{
	"data": {
		"bytecode": {
			"linkReferences": {},
			"object": "60046103008181526103208290526103408290526103608290526103808290526103a082905260036103c08190526103e081905261040081905261042081905261044081905261046081905260026104808190526104a081905260016104c08190526104e082905261050082905261052082905261054082905261056082905260809384526105808581526105a08690526105c08690526105e08690526106008690526106208690526106408690526106608490526106808490526106a08490526106c08490526106e08490526107008390526107208290526107408290526107608390526107808390526107a08390526107c08390526107e083905260a0526108008581526108208690526108408690526108608690526108808690526108a08690526108c08690526108e08690526109008490526109208490526109408490526109608490526109808390526109a08390526109c08290526109e0829052610a00839052610a20839052610a40839052610a6083905260c052610a80858152610aa0869052610ac0869052610ae0869052610b00869052610b20869052610b40869052610b6095909552610b80839052610ba0839052610bc0839052610be0839052610c00839052610c20819052610c40819052610c60819052610c80829052610ca0829052610cc0829052610ce082905260e094909452610d00828152610d20839052610d40839052610d60839052610d80839052610da0839052610dc0839052610de0839052610e00839052610e20839052610e40839052610e60839052610e80859052610ea0859052610ec0859052610ee0859052610f00829052610f20829052610f40829052610f6082905261010052610f80828152610fa0839052610fc0839052610fe08390526110008390526110208390526110408390526110608390526110808390526110a08390526110c08390526110e08390526111008590526111208590526111408590526111608590526111808290526111a08290526111c08290526111e0829052610120526112008281526112208390526112408390526112608390526112808390526112a08390526112c08390526112e08390526113008390526113208390526113408390526113608390526113808590526113a08590526113c08590526113e0859052611400859052611420859052611440859052611460859052610140526114808281526114a08390526114c08390526114e08590526115008390526115208390526115408390526115608390526115808390526115a08390526115c08390526115e08590526116008290526116208290526116408290526116608290526116808590526116a08590526116c08590526116e0859052610160526117008281526117208390526117408390526117608590526117808590526117a08290526117c08290526117e08290526118008290526118208290526118408290526118608590526118808290526118a08290526118c08290526118e0829052611900829052611920829052611940829052611960859052610180526119808481526119a08290526119c08290526119e0859052611a00829052611a20829052611a40829052611a60829052611a80829052611aa0829052611ac0829052611ae0859052611b00829052611b20829052611b40829052611b60829052611b80829052611ba0829052611bc0829052611be08590526101a052611c00818152611c20829052611c40859052611c60859052611c80829052611ca0829052611cc0829052611ce0829052611d00829052611d20829052611d40859052611d60859052611d80829052611da0829052611dc0829052611de0829052611e00829052611e20829052611e40859052611e608590526101c052611e80828152611ea0839052611ec0839052611ee0829052611f00859052611f20829052611f40829052611f60829052611f80829052611fa0829052611fc0859052611fe08290526120008290526120208290526120408290526120608590526120808590526120a08590526120c08590526120e08590526101e0526121008281526121208390526121408390526121608390526121808590526121a08590526121c08290526121e08290526122008290526122208290526122408590526122608590526122808290526122a08290526122c08290526122e0859052612300859052612320859052612340859052612360859052610200526123808281526123a08390526123c08390526123e08390526124008390526124208590526124408290526124608290526124808290526124a08290526124c08590526124e08590526125008590526125208290526125408290526125608290526125808290526125a08590526125c08590526125e0859052610220526126008281526126208390526126408390526126608390526126808390526126a08290526126c08290526126e08290526127008390526127208390526127408290526127608290526127808590526127a08290526127c08290526127e0829052612800829052612820859052612840859052612860859052610240526128808181526128a08290526128c08290526128e08590526129008590526129208590526129408590526129608590526129808390526129a08390526129c08390526129e0839052612a00859052612a20859052612a40829052612a60829052612a80829052612aa0859052612ac0859052612ae085905261026052612b00818152612b20829052612b40829052612b60829052612b80829052612ba0829052612bc0859052612be0859052612c00839052612c20839052612c40839052612c60839052612c80859052612ca0859052612cc0859052612ce0859052612d00839052612d20839052612d40829052612d6082905261028052612d80818152612da0829052612dc0829052612de0829052612e00829052612e20829052612e40829052612e60859052612e80839052612ea0839052612ec0839052612ee0839052612f00859052612f20859052612f40859052612f60859052612f80839052612fa0839052612fc0829052612fe08290526102a0526130008181526130208290526130408290526130608290526130808290526130a08290526130c08290526130e08590526131008590526131208290526131408290526131608590526131808590526131a08290526131c08290526131e08590526132008390526132208390526132408290526132608290526102c0526135006040526132808181526132a08290526132c08290526132e08290526133008290526133208290526133408290526133608590526133808590526133a08590526133c08590526133e08590526134008590526134208590526134408590526134608390526134808390526134a0929092526134c08190526134e0526102e052620009cc9190601462000a56565b50348015620009da57600080fd5b50604051620063c7380380620063c7833981016040819052620009fd9162000b86565b6001600055601580546001600160a01b039586166001600160a01b031991821617909155601680549486169482169490941790935560228054928516928416929092179091556017805491909316911617905562000be3565b826014810192821562000a95579160200282015b8281111562000a9557825162000a84908390601462000aa7565b509160200191906001019062000a6a565b5062000aa392915062000b3d565b5090565b60018301918390821562000b2f5791602002820160005b8382111562000afe57835183826101000a81548160ff021916908360ff160217905550926020019260010160208160000104928301926001030262000abe565b801562000b2d5782816101000a81549060ff021916905560010160208160000104928301926001030262000afe565b505b5062000aa392915062000b53565b8082111562000aa3576000815560010162000b3d565b8082111562000aa3576000815560010162000b3d565b80516001600160a01b038116811462000b8157600080fd5b919050565b6000806000806080858703121562000b9d57600080fd5b62000ba88562000b69565b935062000bb86020860162000b69565b925062000bc86040860162000b69565b915062000bd86060860162000b69565b905092959194509250565b6157d48062000bf36000396000f3fe608060405234801561001057600080fd5b506004361061030a5760003560e01c806362c5813d1161019c5780639cec5194116100ee578063be5ed4c311610097578063ea0e35b111610071578063ea0e35b114610721578063f15ad26414610729578063fa60ad991461073c57600080fd5b8063be5ed4c3146106f2578063e4547fb414610716578063e6192fca1461071657600080fd5b8063b0d77774116100c8578063b0d77774146106b9578063b21e0737146106cc578063bc9955a2146106df57600080fd5b80639cec519414610666578063a609775b14610679578063abefc3231461068c57600080fd5b80637ab9e7fe116101505780638e6bb70e1161012a5780638e6bb70e1461062b57806398a8d0e71461063e5780639b21d6eb1461065157600080fd5b80637ab9e7fe146105c15780637b0c98ef146105f85780638252a6691461060b57600080fd5b80636f5978d9116101815780636f5978d91461058f578063731ae689146105a2578063793c97de146105ae57600080fd5b806362c5813d14610583578063651916661461058357600080fd5b80632e4b51bd1161026057806340b900b6116102095780635387a797116101e35780635387a7971461040257806358612a20146105415780635aa24cbd1461057057600080fd5b806340b900b6146104fb57806344ad764d1461051b5780634f264b031461052e57600080fd5b80633942613c1161023a5780633942613c146104685780633f9662bb146104b157806340b76bbd146104c457600080fd5b80632e4b51bd1461034d5780632f57741c14610422578063367805271461043557600080fd5b806315b7ed6f116102c25780632a2026a91161029c5780632a2026a9146103dd5780632c6d422f146104025780632dec2e631461040d57600080fd5b806315b7ed6f146103a4578063196ab1ab146103b75780631cecb4fb146103ca57600080fd5b80630cea9dc5116102f35780630cea9dc51461034d5780630d67f59e1461036657806313a5cede1461039157600080fd5b80630821de3e1461030f57806309e59cec14610324575b600080fd5b61032261031d366004614d26565b61074f565b005b610337610332366004614d87565b610a7c565b6040516103449190614e0a565b60405180910390f35b610358633b9aca0081565b604051908152602001610344565b601654610379906001600160a01b031681565b6040516001600160a01b039091168152602001610344565b61033761039f366004614e39565b610b31565b6103226103b2366004614e68565b610bca565b602254610379906001600160a01b031681565b6103226103d8366004614d87565b6110de565b6103f06103eb366004614d87565b61188f565b60405160ff9091168152602001610344565b6103586335a4e90081565b61041561193c565b6040516103449190614ecd565b610322610430366004614f3b565b611b14565b610458610443366004614f7d565b60186020526000908152604090205460ff1681565b6040519015158152602001610344565b610497610476366004614f96565b601c6020526000908152604090205461ffff81169062010000900460ff1682565b6040805161ffff9093168352901515602083015201610344565b6104586104bf366004614f3b565b611dd6565b6104e86104d2366004614f96565b601e6020526000908152604090205461ffff1681565b60405161ffff9091168152602001610344565b610358610509366004614f96565b60236020526000908152604090205481565b610322610529366004614d87565b611e7a565b601554610379906001600160a01b031681565b6104e861054f366004614d87565b602160209081526000928352604080842090915290825290205461ffff1681565b6103f061057e366004614f96565b611fe8565b6103586402540be40081565b61032261059d366004614fb1565b612078565b61035864174876e80081565b6104156105bc366004614f96565b612513565b6104e86105cf366004614d87565b60ff918216600090815260216020908152604080832093909416825291909152205461ffff1690565b610337610606366004614d87565b612641565b61061e610619366004614f96565b612665565b6040516103449190615048565b610322610639366004614e68565b61277f565b61032261064c366004614d26565b613094565b6106596137af565b604051610344919061505b565b610337610674366004614d87565b6139eb565b610322610687366004614d87565b613ad9565b61069f61069a366004614f96565b613eda565b6040805160ff938416815292909116602083015201610344565b601754610379906001600160a01b031681565b6104e86106da3660046150db565b613f71565b6103f06106ed366004615105565b613fb8565b610705610700366004614f96565b613ff4565b604051610344959493929190615127565b6103586305f5e10081565b6103f0601e81565b610337610737366004614e39565b6140b7565b61032261074a366004615169565b614162565b6107576147e6565b8015801590610767575060408111155b6107b85760405162461bcd60e51b815260206004820152600f60248201527f426164206e616d65206c656e677468000000000000000000000000000000000060448201526064015b60405180910390fd5b601554604051638a88895360e01b815260ff80871660048301528516602482015233916001600160a01b031690638a88895390604401602060405180830381865afa15801561080b573d6000803e3d6000fd5b505050506040513d601f19601f8201168201806040525081019061082f91906151bf565b6001600160a01b0316146108855760405162461bcd60e51b815260206004820152600e60248201527f4e6f742074696c65206f776e657200000000000000000000000000000000000060448201526064016107af565b6016546040517f23b872dd0000000000000000000000000000000000000000000000000000000081523360048201523060248201526402540be40060448201526001600160a01b03909116906323b872dd906064016020604051808303816000875af11580156108f9573d6000803e3d6000fd5b505050506040513d601f19601f8201168201806040525081019061091d91906151dc565b6109695760405162461bcd60e51b815260206004820152601460248201527f546f6b656e207061796d656e74206661696c656400000000000000000000000060448201526064016107af565b6016546040517f42966c680000000000000000000000000000000000000000000000000000000081526402540be40060048201526001600160a01b03909116906342966c68906024016020604051808303816000875af11580156109d1573d6000803e3d6000fd5b505050506040513d601f19601f820116820180604052508101906109f591906151dc565b610a415760405162461bcd60e51b815260206004820152600b60248201527f4275726e206661696c656400000000000000000000000000000000000000000060448201526064016107af565b60ff8085166000908152601f60209081526040808320938716835292905220610a6b8284836152ce565b50610a766001600055565b50505050565b60ff8083166000908152601f60209081526040808320938516835292905220805460609190610aaa9061522d565b80601f0160208091040260200160405190810160405280929190818152602001828054610ad69061522d565b8015610b235780601f10610af857610100808354040283529160200191610b23565b820191906000526020600020905b815481529060010190602001808311610b0657829003601f168201915b505050505090505b92915050565b602080526000908152604090208054610b499061522d565b80601f0160208091040260200160405190810160405280929190818152602001828054610b759061522d565b8015610bc25780601f10610b9757610100808354040283529160200191610bc2565b820191906000526020600020905b815481529060010190602001808311610ba557829003601f168201915b505050505081565b610bd26147e6565b61ffff85166000908152601b60205260409020600101548590859085906301000000900460ff16610c455760405162461bcd60e51b815260206004820152601360248201527f436c616e20646f6573206e6f742065786973740000000000000000000000000060448201526064016107af565b61ffff83166000908152601b602052604090206001015460ff8381169116148015610c90575061ffff83166000908152601b602052604090206001015460ff82811661010090920416145b610cdc5760405162461bcd60e51b815260206004820152600f60248201527f4e6f74206c65616465722074696c65000000000000000000000000000000000060448201526064016107af565b601554604051638a88895360e01b815260ff80851660048301528316602482015233916001600160a01b031690638a88895390604401602060405180830381865afa158015610d2f573d6000803e3d6000fd5b505050506040513d601f19601f82011682018060405250810190610d5391906151bf565b6001600160a01b031614610da95760405162461bcd60e51b815260206004820152601d60248201527f596f7520646f6e2774206f776e20746865206c65616465722074696c6500000060448201526064016107af565b61ffff88166000908152601b60205260409020600101546301000000900460ff16610e165760405162461bcd60e51b815260206004820152601360248201527f436c616e20646f6573206e6f742065786973740000000000000000000000000060448201526064016107af565b61ffff88166000908152601b6020526040902060010154601e6201000090910460ff1610610e865760405162461bcd60e51b815260206004820152600c60248201527f436c616e2069732066756c6c000000000000000000000000000000000000000060448201526064016107af565b6017546040517f1acc55ea00000000000000000000000000000000000000000000000000000000815260ff808a166004830152881660248201526001600160a01b0390911690631acc55ea90604401602060405180830381865afa158015610ef2573d6000803e3d6000fd5b505050506040513d601f19601f82011682018060405250810190610f1691906151dc565b610f625760405162461bcd60e51b815260206004820152601960248201527f596f75206d7573742068617665206120436c616e2048616c6c0000000000000060448201526064016107af565b601554604051638a88895360e01b815260ff8088166004830152861660248201526000916001600160a01b031690638a88895390604401602060405180830381865afa158015610fb6573d6000803e3d6000fd5b505050506040513d601f19601f82011682018060405250810190610fda91906151bf565b90506001600160a01b0381166110325760405162461bcd60e51b815260206004820152601360248201527f5461726765742074696c6520756e6f776e65640000000000000000000000000060448201526064016107af565b60ff80871660009081526021602090815260408083209389168352929052205461ffff16156110a35760405162461bcd60e51b815260206004820152601d60248201527f5461726765742074696c6520616c726561647920696e206120636c616e00000060448201526064016107af565b5050505061ff00600883901b1660ff8216176000908152601e60205260408120805461ffff191661ffff8816179055600190555b5050505050565b6110e66147e6565b601554604051638a88895360e01b815260ff8085166004830152831660248201528391839133916001600160a01b031690638a88895390604401602060405180830381865afa15801561113d573d6000803e3d6000fd5b505050506040513d601f19601f8201168201806040525081019061116191906151bf565b6001600160a01b0316146111b75760405162461bcd60e51b815260206004820152601860248201527f596f7520646f206e6f74206f776e20746869732074696c65000000000000000060448201526064016107af565b60ff838116600886901b61ff0016176000818152601c60205260409020549091620100009091041661122b5760405162461bcd60e51b815260206004820152601260248201527f54696c65206e6f7420696e206120636c616e000000000000000000000000000060448201526064016107af565b61ffff8181166000908152601c6020908152604080832054909316808352601b909152919020600101546301000000900460ff166112ab5760405162461bcd60e51b815260206004820152601360248201527f436c616e20646f6573206e6f742065786973740000000000000000000000000060448201526064016107af565b61ffff81166000908152601b602052604090206001015460ff87811691161480156112f6575061ffff81166000908152601b602052604090206001015460ff86811661010090920416145b156113435760405162461bcd60e51b815260206004820152601860248201527f4c65616465722074696c652063616e6e6f74206c65617665000000000000000060448201526064016107af565b6016546040517f23b872dd000000000000000000000000000000000000000000000000000000008152336004820152306024820152633b9aca0060448201526001600160a01b03909116906323b872dd906064016020604051808303816000875af11580156113b6573d6000803e3d6000fd5b505050506040513d601f19601f820116820180604052508101906113da91906151dc565b6114265760405162461bcd60e51b815260206004820152601360248201527f4c4f50207472616e73666572206661696c65640000000000000000000000000060448201526064016107af565b61ffff8083166000908152601c60209081526040808320805462ff00001916905560ff8a81168452602183528184208a821685528352818420805461ffff191690559385168352601b909152902060019081015462010000900490911610156114af5761ffff81166000908152601b60205260409020600101805462ff00001916620100001790555b61ffff81166000908152601b60205260409020600101805462010000900460ff169060026114dc836153bd565b825460ff9182166101009390930a92830291909202199091161790555061ffff81166000908152601d60205260408120905b815481101561162d578361ffff1682828154811061152e5761152e6153da565b60009182526020909120601082040154600f9091166002026101000a900461ffff160361161b578154829061156590600190615409565b81548110611575576115756153da565b90600052602060002090601091828204019190066002029054906101000a900461ffff168282815481106115ab576115ab6153da565b90600052602060002090601091828204019190066002026101000a81548161ffff021916908361ffff160217905550818054806115ea576115ea61541c565b600082815260209020601060001990920191820401805461ffff6002600f8516026101000a0219169055905561162d565b806116258161544b565b91505061150e565b5060155461ffff83166000908152601b6020526040808220600101549051638a88895360e01b815260ff8083166004830152610100909204909116602482015290916001600160a01b031690638a88895390604401602060405180830381865afa15801561169f573d6000803e3d6000fd5b505050506040513d601f19601f820116820180604052508101906116c391906151bf565b6016546040517fa9059cbb0000000000000000000000000000000000000000000000000000000081526001600160a01b0380841660048301526335a4e900602483015292935091169063a9059cbb906044016020604051808303816000875af1158015611734573d6000803e3d6000fd5b505050506040513d601f19601f8201168201806040525081019061175891906151dc565b6117a45760405162461bcd60e51b815260206004820152601460248201527f4c6561646572207061796f7574206661696c656400000000000000000000000060448201526064016107af565b6016546040517f42966c680000000000000000000000000000000000000000000000000000000081526305f5e10060048201526001600160a01b03909116906342966c68906024016020604051808303816000875af115801561180b573d6000803e3d6000fd5b505050506040513d601f19601f8201168201806040525081019061182f91906151dc565b61187b5760405162461bcd60e51b815260206004820152600b60248201527f4275726e206661696c656400000000000000000000000000000000000000000060448201526064016107af565b50505050505061188b6001600055565b5050565b600060148360ff161080156118a7575060148260ff16105b6118f35760405162461bcd60e51b815260206004820152601360248201527f496e76616c696420636f6f7264696e617465730000000000000000000000000060448201526064016107af565b60018360ff1660148110611909576119096153da565b018260ff166014811061191e5761191e6153da565b602081049091015460ff601f9092166101000a900416905092915050565b60606000805b60148160ff1610156119b95760005b60148160ff1610156119a65760ff80831660009081526021602090815260408083209385168352929052205461ffff161561199457826119908161544b565b9350505b8061199e81615465565b915050611951565b50806119b181615465565b915050611942565b5060008167ffffffffffffffff8111156119d5576119d56151fe565b604051908082528060200260200182016040528015611a2757816020015b6040805160808101825260008082526020808301829052928201819052606082015282526000199092019101816119f35790505b5090506000805b60148160ff161015611b0b5760005b60148160ff161015611af85760ff80831660009081526021602090815260408083209385168352929052205461ffff168015611ae55760405180608001604052808460ff1681526020018360ff1681526020018261ffff168152602001602360008461ffff1661ffff16815260200190815260200160002054815250858581518110611acb57611acb6153da565b60200260200101819052508380611ae19061544b565b9450505b5080611af081615465565b915050611a3d565b5080611b0381615465565b915050611a2e565b50909392505050565b611b1c6147e6565b600082828080601f0160208091040260200160405190810160405280939291908181526020018383808284376000920191909152505082519293505050611ba55760405162461bcd60e51b815260206004820152601660248201527f48616e646c652063616e6e6f7420626520656d7074790000000000000000000060448201526064016107af565b602081511115611bf75760405162461bcd60e51b815260206004820152600f60248201527f48616e646c6520746f6f206c6f6e67000000000000000000000000000000000060448201526064016107af565b6016546040517f23b872dd000000000000000000000000000000000000000000000000000000008152336004820152306024820152633b9aca0060448201526001600160a01b03909116906323b872dd906064016020604051808303816000875af1158015611c6a573d6000803e3d6000fd5b505050506040513d601f19601f82011682018060405250810190611c8e91906151dc565b611cda5760405162461bcd60e51b815260206004820152601360248201527f4c4f50207472616e73666572206661696c65640000000000000000000000000060448201526064016107af565b6016546040517f42966c68000000000000000000000000000000000000000000000000000000008152633b9aca0060048201526001600160a01b03909116906342966c68906024016020604051808303816000875af1158015611d41573d6000803e3d6000fd5b505050506040513d601f19601f82011682018060405250810190611d6591906151dc565b611db15760405162461bcd60e51b815260206004820152600b60248201527f4275726e206661696c656400000000000000000000000000000000000000000060448201526064016107af565b3360009081526020805260409020611dca8385836152ce565b505061188b6001600055565b600080611e1884848080601f01602080910402602001604051908101604052809392919081815260200183838082843760009201919091525061484692505050565b90508051600003611e2d576000915050610b2b565b6000611e3882614a78565b604051602001611e489190615484565b60408051808303601f1901815291815281516020928301206000908152601890925290205460ff161595945050505050565b611e826147e6565b601554604051638a88895360e01b815260ff8085166004830152831660248201528391839133916001600160a01b031690638a88895390604401602060405180830381865afa158015611ed9573d6000803e3d6000fd5b505050506040513d601f19601f82011682018060405250810190611efd91906151bf565b6001600160a01b031614611f535760405162461bcd60e51b815260206004820152601860248201527f596f7520646f206e6f74206f776e20746869732074696c65000000000000000060448201526064016107af565b60ff8316600885901b61ff0016176000818152601e602052604090205461ffff16611fc05760405162461bcd60e51b815260206004820152601f60248201527f4e6f2070656e64696e6720696e7669746520666f7220746869732074696c650060448201526064016107af565b61ffff166000908152601e60205260409020805461ffff191690555061188b90506001600055565b61ffff81166000908152601b60205260408120600101546301000000900460ff166120555760405162461bcd60e51b815260206004820152601360248201527f436c616e20646f6573206e6f742065786973740000000000000000000000000060448201526064016107af565b5061ffff166000908152601b602052604090206001015462010000900460ff1690565b6120806147e6565b61ffff83166000908152601b60205260409020600101548390839083906301000000900460ff166120f35760405162461bcd60e51b815260206004820152601360248201527f436c616e20646f6573206e6f742065786973740000000000000000000000000060448201526064016107af565b61ffff83166000908152601b602052604090206001015460ff838116911614801561213e575061ffff83166000908152601b602052604090206001015460ff82811661010090920416145b61218a5760405162461bcd60e51b815260206004820152600f60248201527f4e6f74206c65616465722074696c65000000000000000000000000000000000060448201526064016107af565b601554604051638a88895360e01b815260ff80851660048301528316602482015233916001600160a01b031690638a88895390604401602060405180830381865afa1580156121dd573d6000803e3d6000fd5b505050506040513d601f19601f8201168201806040525081019061220191906151bf565b6001600160a01b0316146122575760405162461bcd60e51b815260206004820152601d60248201527f596f7520646f6e2774206f776e20746865206c65616465722074696c6500000060448201526064016107af565b6017546040517f1acc55ea00000000000000000000000000000000000000000000000000000000815260ff8088166004830152861660248201526001600160a01b0390911690631acc55ea90604401602060405180830381865afa1580156122c3573d6000803e3d6000fd5b505050506040513d601f19601f820116820180604052508101906122e791906151dc565b6123335760405162461bcd60e51b815260206004820152601960248201527f596f75206d7573742068617665206120436c616e2048616c6c0000000000000060448201526064016107af565b61ffff86166000908152601d60205260408120905b81548110156124395760008061239c848481548110612369576123696153da565b90600052602060002090601091828204019190066002029054906101000a900461ffff1660ff600882901c811692911690565b915091506000601c60008686815481106123b8576123b86153da565b60009182526020808320601083040154600f9092166002026101000a90910461ffff1683528281019390935260409182018120805462ff0000191662010000951515959095029490941790935560ff9485168352602182528083209390941682529190915220805461ffff19169055806124318161544b565b915050612348565b5061ffff87166000908152601d6020526040812061245691614c50565b61ffff871660009081526019602052604090205480156124b757600081815260186020908152604080832080547fffffffffffffffffffffffffffffffffffffffffffffffffffffffffffffff0016905561ffff8b16835260199091528120555b61ffff88166000908152601b60205260408120906124d58282614c78565b5060010180547fffffffffffffffffffffffffffffffffffffffffffffffffffffffff000000001690555061250e935061483f92505050565b505050565b61ffff81166000908152601d6020526040812080546060929067ffffffffffffffff811115612544576125446151fe565b60405190808252806020026020018201604052801561259657816020015b6040805160808101825260008082526020808301829052928201819052606082015282526000199092019101816125625790505b50905060005b8254811015612639576000806125bd858481548110612369576123696153da565b9150915060405180608001604052808360ff1681526020018260ff1681526020018861ffff168152602001602360008a61ffff1661ffff16815260200190815260200160002054815250848481518110612619576126196153da565b6020026020010181905250505080806126319061544b565b91505061259c565b509392505050565b601f60209081526000928352604080842090915290825290208054610b499061522d565b6040805160a08101825260608082526000602083018190529282018390528101829052608081019190915261ffff82166000908152601b602052604090819020815160a081019092528054829082906126bd9061522d565b80601f01602080910402602001604051908101604052809291908181526020018280546126e99061522d565b80156127365780601f1061270b57610100808354040283529160200191612736565b820191906000526020600020905b81548152906001019060200180831161271957829003601f168201915b50505091835250506001919091015460ff808216602084015261010082048116604084015262010000820481166060840152630100000090910416151560809091015292915050565b6127876147e6565b61ffff85166000908152601b60205260409020600101548590859085906301000000900460ff166127fa5760405162461bcd60e51b815260206004820152601360248201527f436c616e20646f6573206e6f742065786973740000000000000000000000000060448201526064016107af565b61ffff83166000908152601b602052604090206001015460ff8381169116148015612845575061ffff83166000908152601b602052604090206001015460ff82811661010090920416145b6128915760405162461bcd60e51b815260206004820152600f60248201527f4e6f74206c65616465722074696c65000000000000000000000000000000000060448201526064016107af565b601554604051638a88895360e01b815260ff80851660048301528316602482015233916001600160a01b031690638a88895390604401602060405180830381865afa1580156128e4573d6000803e3d6000fd5b505050506040513d601f19601f8201168201806040525081019061290891906151bf565b6001600160a01b03161461295e5760405162461bcd60e51b815260206004820152601d60248201527f596f7520646f6e2774206f776e20746865206c65616465722074696c6500000060448201526064016107af565b6017546040517f1acc55ea00000000000000000000000000000000000000000000000000000000815260ff808a166004830152881660248201526001600160a01b0390911690631acc55ea90604401602060405180830381865afa1580156129ca573d6000803e3d6000fd5b505050506040513d601f19601f820116820180604052508101906129ee91906151dc565b612a3a5760405162461bcd60e51b815260206004820152601960248201527f596f75206d7573742068617665206120436c616e2048616c6c0000000000000060448201526064016107af565b61ffff88166000908152601b602052604090206001015460ff8681169116148015612a85575061ffff88166000908152601b602052604090206001015460ff85811661010090920416145b15612ad25760405162461bcd60e51b815260206004820152601960248201527f43616e6e6f742072656d6f7665206c65616465722074696c650000000000000060448201526064016107af565b60ff848116600887901b61ff0016176000818152601c6020526040902054909162010000909104168015612b1d575061ffff8181166000908152601c60205260409020548116908a16145b612b695760405162461bcd60e51b815260206004820152601560248201527f54696c65206e6f7420696e207468697320636c616e000000000000000000000060448201526064016107af565b6016546040517f23b872dd000000000000000000000000000000000000000000000000000000008152336004820152306024820152633b9aca0060448201526001600160a01b03909116906323b872dd906064016020604051808303816000875af1158015612bdc573d6000803e3d6000fd5b505050506040513d601f19601f82011682018060405250810190612c0091906151dc565b612c4c5760405162461bcd60e51b815260206004820152601360248201527f4c4f50207472616e73666572206661696c65640000000000000000000000000060448201526064016107af565b61ffff8082166000908152601c60209081526040808320805462ff00001916905560ff8a81168452602183528184208a821685528352818420805461ffff19169055938d168352601b90915290206001908101546201000090049091161015612cd55761ffff89166000908152601b60205260409020600101805462ff00001916620100001790555b61ffff89166000908152601b60205260409020600101805462010000900460ff16906002612d02836153bd565b825460ff9182166101009390930a92830291909202199091161790555061ffff89166000908152601d60205260408120905b8154811015612e53578261ffff16828281548110612d5457612d546153da565b60009182526020909120601082040154600f9091166002026101000a900461ffff1603612e415781548290612d8b90600190615409565b81548110612d9b57612d9b6153da565b90600052602060002090601091828204019190066002029054906101000a900461ffff16828281548110612dd157612dd16153da565b90600052602060002090601091828204019190066002026101000a81548161ffff021916908361ffff16021790555081805480612e1057612e1061541c565b600082815260209020601060001990920191820401805461ffff6002600f8516026101000a02191690559055612e53565b80612e4b8161544b565b915050612d34565b50601554604051638a88895360e01b815260ff808a166004830152881660248201526000916001600160a01b031690638a88895390604401602060405180830381865afa158015612ea8573d6000803e3d6000fd5b505050506040513d601f19601f82011682018060405250810190612ecc91906151bf565b6016546040517fa9059cbb0000000000000000000000000000000000000000000000000000000081526001600160a01b0380841660048301526335a4e900602483015292935091169063a9059cbb906044016020604051808303816000875af1158015612f3d573d6000803e3d6000fd5b505050506040513d601f19601f82011682018060405250810190612f6191906151dc565b612fad5760405162461bcd60e51b815260206004820152601660248201527f5061796f7574207472616e73666572206661696c65640000000000000000000060448201526064016107af565b6016546040517f42966c680000000000000000000000000000000000000000000000000000000081526305f5e10060048201526001600160a01b03909116906342966c68906024016020604051808303816000875af1158015613014573d6000803e3d6000fd5b505050506040513d601f19601f8201168201806040525081019061303891906151dc565b6130845760405162461bcd60e51b815260206004820152600b60248201527f4275726e206661696c656400000000000000000000000000000000000000000060448201526064016107af565b5050505050506110d76001600055565b61309c6147e6565b601554604051638a88895360e01b815260ff8087166004830152851660248201528591859133916001600160a01b031690638a88895390604401602060405180830381865afa1580156130f3573d6000803e3d6000fd5b505050506040513d601f19601f8201168201806040525081019061311791906151bf565b6001600160a01b03161461316d5760405162461bcd60e51b815260206004820152601860248201527f596f7520646f206e6f74206f776e20746869732074696c65000000000000000060448201526064016107af565b6131778484614b29565b60ff80871660009081526021602090815260408083209389168352929052205461ffff16156131e85760405162461bcd60e51b815260206004820152601660248201527f54696c6520616c726561647920696e206120636c616e0000000000000000000060448201526064016107af565b600061322985858080601f016020809104026020016040519081016040528093929190818152602001838380828437600092019190915250614c1092505050565b60008181526018602052604090205490915060ff161561328b5760405162461bcd60e51b815260206004820152601760248201527f436c616e206e616d6520616c72656164792074616b656e00000000000000000060448201526064016107af565b6017546040517f1acc55ea00000000000000000000000000000000000000000000000000000000815260ff808a166004830152881660248201526001600160a01b0390911690631acc55ea90604401602060405180830381865afa1580156132f7573d6000803e3d6000fd5b505050506040513d601f19601f8201168201806040525081019061331b91906151dc565b6133675760405162461bcd60e51b815260206004820152601960248201527f596f75206d7573742068617665206120436c616e2048616c6c0000000000000060448201526064016107af565b6016546040517f23b872dd00000000000000000000000000000000000000000000000000000000815233600482015230602482015264174876e80060448201526001600160a01b03909116906323b872dd906064016020604051808303816000875af11580156133db573d6000803e3d6000fd5b505050506040513d601f19601f820116820180604052508101906133ff91906151dc565b61344b5760405162461bcd60e51b815260206004820152601360248201527f4c4f50207472616e73666572206661696c65640000000000000000000000000060448201526064016107af565b6016546040517f42966c6800000000000000000000000000000000000000000000000000000000815264174876e80060048201526001600160a01b03909116906342966c68906024016020604051808303816000875af11580156134b3573d6000803e3d6000fd5b505050506040513d601f19601f820116820180604052508101906134d791906151dc565b6135235760405162461bcd60e51b815260206004820152600b60248201527f4275726e206661696c656400000000000000000000000000000000000000000060448201526064016107af565b601a805461ffff16906000613537836154a0565b91906101000a81548161ffff021916908361ffff160217905550506040518060a0016040528086868080601f016020809104026020016040519081016040528093929190818152602001838380828437600092018290525093855250505060ff808b16602080850191909152908a16604080850191909152600160608501819052608090940193909352601a5461ffff168252601b905220815181906135dd90826154c1565b506020820151600190910180546040840151606085015160809095015115156301000000027fffffffffffffffffffffffffffffffffffffffffffffffffffffffff00ffffff60ff9687166201000002167fffffffffffffffffffffffffffffffffffffffffffffffffffffffff0000ffff9287166101000261ffff199094169690951695909517919091171691909117919091179055600061368c888860ff1660089190911b61ff00161790565b601a805460ff808c166000908152602160209081526040808320938e168352928152828220805461ffff191661ffff958616179055825180840184528554851681526001818301818152978616808552601c8452858520925183549951151562010000027fffffffffffffffffffffffffffffffffffffffffffffffffffffffffff000000909a169088161798909817909155855485168352601d82528383208054808301825590845282842060108204018054600f9092166002026101000a98890298870219909116979097179096558782526018815282822080547fffffffffffffffffffffffffffffffffffffffffffffffffffffffffffffff0016909617909555925490911682526019909252209190915550610a76915061483f9050565b6060600060015b601a5461ffff9081169082161161380d5761ffff81166000908152601b60205260409020600101546301000000900460ff16156137fb57816137f78161544b565b9250505b80613805816154a0565b9150506137b6565b5060008167ffffffffffffffff811115613829576138296151fe565b60405190808252806020026020018201604052801561388357816020015b6040805160a081018252606080825260006020808401829052938301819052908201819052608082015282526000199092019101816138475790505b509050600060015b601a5461ffff90811690821611611b0b5761ffff81166000908152601b60205260409020600101546301000000900460ff16156139d95761ffff81166000908152601b602052604090819020815160a081019092528054829082906138ef9061522d565b80601f016020809104026020016040519081016040528092919081815260200182805461391b9061522d565b80156139685780601f1061393d57610100808354040283529160200191613968565b820191906000526020600020905b81548152906001019060200180831161394b57829003601f168201915b50505091835250506001919091015460ff808216602084015261010082048116604084015262010000820481166060840152630100000090910416151560809091015283518490849081106139bf576139bf6153da565b602002602001018190525081806139d59061544b565b9250505b806139e3816154a0565b91505061388b565b60ff808316600090815260216020908152604080832093851683529290529081205460609161ffff90911690819003613a34575050604080516020810190915260008152610b2b565b61ffff81166000908152601b602052604090208054613a529061522d565b80601f0160208091040260200160405190810160405280929190818152602001828054613a7e9061522d565b8015613acb5780601f10613aa057610100808354040283529160200191613acb565b820191906000526020600020905b815481529060010190602001808311613aae57829003601f168201915b505050505091505092915050565b613ae16147e6565b601554604051638a88895360e01b815260ff8085166004830152831660248201528391839133916001600160a01b031690638a88895390604401602060405180830381865afa158015613b38573d6000803e3d6000fd5b505050506040513d601f19601f82011682018060405250810190613b5c91906151bf565b6001600160a01b031614613bb25760405162461bcd60e51b815260206004820152601860248201527f596f7520646f206e6f74206f776e20746869732074696c65000000000000000060448201526064016107af565b60ff8316600885901b61ff0016176000818152601e602052604090205461ffff1680613c205760405162461bcd60e51b815260206004820152601f60248201527f4e6f2070656e64696e6720696e7669746520666f7220746869732074696c650060448201526064016107af565b61ffff81166000908152601b60205260409020600101546301000000900460ff16613cd15761ffff82166000908152601e602052604090819020805461ffff191690555162461bcd60e51b81526107af9060040160208082526022908201527f436c616e207761732064697362616e6465643b20696e7669746520696e76616c60408201527f6964000000000000000000000000000000000000000000000000000000000000606082015260800190565b60ff80871660009081526021602090815260408083209389168352929052205461ffff1615613d605761ffff82166000908152601e602052604090819020805461ffff191690555162461bcd60e51b81526107af9060040160208082526016908201527f54696c6520616c726561647920696e206120636c616e00000000000000000000604082015260600190565b61ffff81166000908152601b6020526040902060010154601e6201000090910460ff1610613da9575061ffff166000908152601e60205260409020805461ffff19169055611dca565b60ff868116600090815260216020908152604080832089851684528252808320805461ffff191661ffff8781169182179092558251808401845281815260018186018181528a8516808952601c88528689209351845492519087167fffffffffffffffffffffffffffffffffffffffffffffffffffffffffff0000009093169290921762010000921515830217909355838852601d875285882080548084018255908952878920601082040180546002600f90931683026101000a97880219169690940295909517909255918652601b90945291909320018054919091049092169190613e9583615465565b825460ff9182166101009390930a9283029190920219909116179055505061ffff166000908152601e60205260409020805461ffff19169055505061188b6001600055565b61ffff81166000908152601b602052604081206001015481906301000000900460ff16613f495760405162461bcd60e51b815260206004820152601360248201527f436c616e20646f6573206e6f742065786973740000000000000000000000000060448201526064016107af565b505061ffff166000908152601b602052604090206001015460ff808216926101009092041690565b601d6020528160005260406000208181548110613f8d57600080fd5b9060005260206000209060109182820401919006600202915091509054906101000a900461ffff1681565b60018260148110613fc857600080fd5b018160148110613fd757600080fd5b602081049091015460ff601f9092166101000a9004169150829050565b601b6020526000908152604090208054819061400f9061522d565b80601f016020809104026020016040519081016040528092919081815260200182805461403b9061522d565b80156140885780601f1061405d57610100808354040283529160200191614088565b820191906000526020600020905b81548152906001019060200180831161406b57829003601f168201915b5050506001909301549192505060ff808216916101008104821691620100008204811691630100000090041685565b6001600160a01b038116600090815260208052604090208054606091906140dd9061522d565b80601f01602080910402602001604051908101604052809291908181526020018280546141099061522d565b80156141565780601f1061412b57610100808354040283529160200191614156565b820191906000526020600020905b81548152906001019060200180831161413957829003601f168201915b50505050509050919050565b61416a6147e6565b61ffff84166000908152601b60205260409020600101548490849084906301000000900460ff166141dd5760405162461bcd60e51b815260206004820152601360248201527f436c616e20646f6573206e6f742065786973740000000000000000000000000060448201526064016107af565b61ffff83166000908152601b602052604090206001015460ff8381169116148015614228575061ffff83166000908152601b602052604090206001015460ff82811661010090920416145b6142745760405162461bcd60e51b815260206004820152600f60248201527f4e6f74206c65616465722074696c65000000000000000000000000000000000060448201526064016107af565b601554604051638a88895360e01b815260ff80851660048301528316602482015233916001600160a01b031690638a88895390604401602060405180830381865afa1580156142c7573d6000803e3d6000fd5b505050506040513d601f19601f820116820180604052508101906142eb91906151bf565b6001600160a01b0316146143415760405162461bcd60e51b815260206004820152601d60248201527f596f7520646f6e2774206f776e20746865206c65616465722074696c6500000060448201526064016107af565b6022546040517f6352211e0000000000000000000000000000000000000000000000000000000081526004810186905233916001600160a01b031690636352211e90602401602060405180830381865afa1580156143a3573d6000803e3d6000fd5b505050506040513d601f19601f820116820180604052508101906143c791906151bf565b6001600160a01b03161461441d5760405162461bcd60e51b815260206004820152601660248201527f596f7520646f6e2774206f776e2074686973204e46540000000000000000000060448201526064016107af565b6022546040517f0ad4c4f4000000000000000000000000000000000000000000000000000000008152600481018690526000916001600160a01b031690630ad4c4f490602401600060405180830381865afa158015614480573d6000803e3d6000fd5b505050506040513d6000823e601f3d908101601f191682016040526144a89190810190615609565b5099505050505050505050508060011461452a5760405162461bcd60e51b815260206004820152603360248201527f4f6e6c79204e4654732066726f6d20636f6c6c656374696f6e2049442031206360448201527f616e206265207573656420617320666c6167730000000000000000000000000060648201526084016107af565b6017546040517f1acc55ea00000000000000000000000000000000000000000000000000000000815260ff808a166004830152881660248201526001600160a01b0390911690631acc55ea90604401602060405180830381865afa158015614596573d6000803e3d6000fd5b505050506040513d601f19601f820116820180604052508101906145ba91906151dc565b6146065760405162461bcd60e51b815260206004820152601960248201527f596f75206d7573742068617665206120436c616e2048616c6c0000000000000060448201526064016107af565b6016546040517f23b872dd0000000000000000000000000000000000000000000000000000000081523360048201523060248201526402540be40060448201526001600160a01b03909116906323b872dd906064016020604051808303816000875af115801561467a573d6000803e3d6000fd5b505050506040513d601f19601f8201168201806040525081019061469e91906151dc565b6146ea5760405162461bcd60e51b815260206004820152601360248201527f4c4f50207472616e73666572206661696c65640000000000000000000000000060448201526064016107af565b6016546040517f42966c680000000000000000000000000000000000000000000000000000000081526402540be40060048201526001600160a01b03909116906342966c68906024016020604051808303816000875af1158015614752573d6000803e3d6000fd5b505050506040513d601f19601f8201168201806040525081019061477691906151dc565b6147c25760405162461bcd60e51b815260206004820152600b60248201527f4275726e206661696c656400000000000000000000000000000000000000000060448201526064016107af565b50505061ffff8516600090815260236020526040902082905550610a766001600055565b6002600054036148385760405162461bcd60e51b815260206004820152601f60248201527f5265656e7472616e637947756172643a207265656e7472616e742063616c6c0060448201526064016107af565b6002600055565b6001600055565b8051606090829060000361485b575090919050565b60005b8151811080156148c6575081818151811061487b5761487b6153da565b6020910101517fff00000000000000000000000000000000000000000000000000000000000000167f2000000000000000000000000000000000000000000000000000000000000000145b156148dd57806148d58161544b565b91505061485e565b815181036148fc57505060408051602081019091526000815292915050565b60006001835161490c9190615409565b90505b8181118015614976575082818151811061492b5761492b6153da565b6020910101517fff00000000000000000000000000000000000000000000000000000000000000167f2000000000000000000000000000000000000000000000000000000000000000145b1561498d57806149858161575b565b91505061490f565b60006149998383615409565b6149a4906001615772565b67ffffffffffffffff8111156149bc576149bc6151fe565b6040519080825280601f01601f1916602001820160405280156149e6576020820181803683370190505b50905060005b8151811015614a6e5784614a008286615772565b81518110614a1057614a106153da565b602001015160f81c60f81b828281518110614a2d57614a2d6153da565b60200101907effffffffffffffffffffffffffffffffffffffffffffffffffffffffffffff1916908160001a90535080614a668161544b565b9150506149ec565b5095945050505050565b60608160005b8151811015614b22576000828281518110614a9b57614a9b6153da565b016020015160f81c905060418110801590614aba5750605a8160ff1611155b15614b0f57614aca816020615785565b60f81b838381518110614adf57614adf6153da565b60200101907effffffffffffffffffffffffffffffffffffffffffffffffffffffffffffff1916908160001a9053505b5080614b1a8161544b565b915050614a7e565b5092915050565b6000614b6a83838080601f01602080910402602001604051908101604052809392919081815260200183838082843760009201919091525061484692505050565b9050600181511015614bbe5760405162461bcd60e51b815260206004820152600a60248201527f4e616d6520656d7074790000000000000000000000000000000000000000000060448201526064016107af565b60208151111561250e5760405162461bcd60e51b815260206004820152600d60248201527f4e616d6520746f6f206c6f6e670000000000000000000000000000000000000060448201526064016107af565b6000614c23614c1e83614846565b614a78565b604051602001614c339190615484565b604051602081830303815290604052805190602001209050919050565b50805460008255600f016010900490600052602060002090810190614c759190614cae565b50565b508054614c849061522d565b6000825580601f10614c94575050565b601f016020900490600052602060002090810190614c7591905b5b80821115614cc35760008155600101614caf565b5090565b803560ff81168114614cd857600080fd5b919050565b60008083601f840112614cef57600080fd5b50813567ffffffffffffffff811115614d0757600080fd5b602083019150836020828501011115614d1f57600080fd5b9250929050565b60008060008060608587031215614d3c57600080fd5b614d4585614cc7565b9350614d5360208601614cc7565b9250604085013567ffffffffffffffff811115614d6f57600080fd5b614d7b87828801614cdd565b95989497509550505050565b60008060408385031215614d9a57600080fd5b614da383614cc7565b9150614db160208401614cc7565b90509250929050565b60005b83811015614dd5578181015183820152602001614dbd565b50506000910152565b60008151808452614df6816020860160208601614dba565b601f01601f19169290920160200192915050565b602081526000614e1d6020830184614dde565b9392505050565b6001600160a01b0381168114614c7557600080fd5b600060208284031215614e4b57600080fd5b8135614e1d81614e24565b803561ffff81168114614cd857600080fd5b600080600080600060a08688031215614e8057600080fd5b614e8986614e56565b9450614e9760208701614cc7565b9350614ea560408701614cc7565b9250614eb360608701614cc7565b9150614ec160808701614cc7565b90509295509295909350565b602080825282518282018190526000919060409081850190868401855b82811015614f2e578151805160ff90811686528782015116878601528581015161ffff16868601526060908101519085015260809093019290850190600101614eea565b5091979650505050505050565b60008060208385031215614f4e57600080fd5b823567ffffffffffffffff811115614f6557600080fd5b614f7185828601614cdd565b90969095509350505050565b600060208284031215614f8f57600080fd5b5035919050565b600060208284031215614fa857600080fd5b614e1d82614e56565b600080600060608486031215614fc657600080fd5b614fcf84614e56565b9250614fdd60208501614cc7565b9150614feb60408501614cc7565b90509250925092565b6000815160a0845261500960a0850182614dde565b905060ff602084015116602085015260ff604084015116604085015260ff60608401511660608501526080830151151560808501528091505092915050565b602081526000614e1d6020830184614ff4565b6000602080830181845280855180835260408601915060408160051b870101925083870160005b828110156150ce577fffffffffffffffffffffffffffffffffffffffffffffffffffffffffffffffc08886030184526150bc858351614ff4565b94509285019290850190600101615082565b5092979650505050505050565b600080604083850312156150ee57600080fd5b6150f783614e56565b946020939093013593505050565b6000806040838503121561511857600080fd5b50508035926020909101359150565b60a08152600061513a60a0830188614dde565b905060ff8616602083015260ff8516604083015260ff8416606083015282151560808301529695505050505050565b6000806000806080858703121561517f57600080fd5b61518885614e56565b935061519660208601614cc7565b92506151a460408601614cc7565b9396929550929360600135925050565b8051614cd881614e24565b6000602082840312156151d157600080fd5b8151614e1d81614e24565b6000602082840312156151ee57600080fd5b81518015158114614e1d57600080fd5b7f4e487b7100000000000000000000000000000000000000000000000000000000600052604160045260246000fd5b600181811c9082168061524157607f821691505b60208210810361527a577f4e487b7100000000000000000000000000000000000000000000000000000000600052602260045260246000fd5b50919050565b601f82111561250e57600081815260208120601f850160051c810160208610156152a75750805b601f850160051c820191505b818110156152c6578281556001016152b3565b505050505050565b67ffffffffffffffff8311156152e6576152e66151fe565b6152fa836152f4835461522d565b83615280565b6000601f84116001811461532e57600085156153165750838201355b600019600387901b1c1916600186901b1783556110d7565b600083815260209020601f19861690835b8281101561535f578685013582556020948501946001909201910161533f565b508682101561537c5760001960f88860031b161c19848701351681555b505060018560011b0183555050505050565b7f4e487b7100000000000000000000000000000000000000000000000000000000600052601160045260246000fd5b600060ff8216806153d0576153d061538e565b6000190192915050565b7f4e487b7100000000000000000000000000000000000000000000000000000000600052603260045260246000fd5b81810381811115610b2b57610b2b61538e565b7f4e487b7100000000000000000000000000000000000000000000000000000000600052603160045260246000fd5b6000600019820361545e5761545e61538e565b5060010190565b600060ff821660ff810361547b5761547b61538e565b60010192915050565b60008251615496818460208701614dba565b9190910192915050565b600061ffff8083168181036154b7576154b761538e565b6001019392505050565b815167ffffffffffffffff8111156154db576154db6151fe565b6154ef816154e9845461522d565b84615280565b602080601f831160018114615524576000841561550c5750858301515b600019600386901b1c1916600185901b1785556152c6565b600085815260208120601f198616915b8281101561555357888601518255948401946001909101908401615534565b50858210156155715787850151600019600388901b60f8161c191681555b5050505050600190811b01905550565b600082601f83011261559257600080fd5b815167ffffffffffffffff808211156155ad576155ad6151fe565b604051601f8301601f19908116603f011681019082821181831017156155d5576155d56151fe565b816040528381528660208588010111156155ee57600080fd5b6155ff846020830160208901614dba565b9695505050505050565b60008060008060008060008060008060006101608c8e03121561562b57600080fd5b8b5167ffffffffffffffff81111561564257600080fd5b61564e8e828f01615581565b9b505060208c015167ffffffffffffffff81111561566b57600080fd5b6156778e828f01615581565b9a505060408c015167ffffffffffffffff81111561569457600080fd5b6156a08e828f01615581565b99505060608c015167ffffffffffffffff8111156156bd57600080fd5b6156c98e828f01615581565b9850506156d860808d016151b4565b965060a08c0151955060c08c0151945060e08c015167ffffffffffffffff81111561570257600080fd5b61570e8e828f01615581565b9450506101008c015167ffffffffffffffff81111561572c57600080fd5b6157388e828f01615581565b9350506101208c015191506101408c015190509295989b509295989b9093969950565b60008161576a5761576a61538e565b506000190190565b80820180821115610b2b57610b2b61538e565b60ff8181168382160190811115610b2b57610b2b61538e56fea26469706673582212206ae53540444b47983fa1e9570b3857b3972b733888d5de1305aeaeeddcbde57d64736f6c63430008120033",
			"opcodes": "PUSH1 0x4 PUSH2 0x300 DUP2 DUP2 MSTORE PUSH2 0x320 DUP3 SWAP1 MSTORE PUSH2 0x340 DUP3 SWAP1 MSTORE PUSH2 0x360 DUP3 SWAP1 MSTORE PUSH2 0x380 DUP3 SWAP1 MSTORE PUSH2 0x3A0 DUP3 SWAP1 MSTORE PUSH1 0x3 PUSH2 0x3C0 DUP2 SWAP1 MSTORE PUSH2 0x3E0 DUP2 SWAP1 MSTORE PUSH2 0x400 DUP2 SWAP1 MSTORE PUSH2 0x420 DUP2 SWAP1 MSTORE PUSH2 0x440 DUP2 SWAP1 MSTORE PUSH2 0x460 DUP2 SWAP1 MSTORE PUSH1 0x2 PUSH2 0x480 DUP2 SWAP1 MSTORE PUSH2 0x4A0 DUP2 SWAP1 MSTORE PUSH1 0x1 PUSH2 0x4C0 DUP2 SWAP1 MSTORE PUSH2 0x4E0 DUP3 SWAP1 MSTORE PUSH2 0x500 DUP3 SWAP1 MSTORE PUSH2 0x520 DUP3 SWAP1 MSTORE PUSH2 0x540 DUP3 SWAP1 MSTORE PUSH2 0x560 DUP3 SWAP1 MSTORE PUSH1 0x80 SWAP4 DUP5 MSTORE PUSH2 0x580 DUP6 DUP2 MSTORE PUSH2 0x5A0 DUP7 SWAP1 MSTORE PUSH2 0x5C0 DUP7 SWAP1 MSTORE PUSH2 0x5E0 DUP7 SWAP1 MSTORE PUSH2 0x600 DUP7 SWAP1 MSTORE PUSH2 0x620 DUP7 SWAP1 MSTORE PUSH2 0x640 DUP7 SWAP1 MSTORE PUSH2 0x660 DUP5 SWAP1 MSTORE PUSH2 0x680 DUP5 SWAP1 MSTORE PUSH2 0x6A0 DUP5 SWAP1 MSTORE PUSH2 0x6C0 DUP5 SWAP1 MSTORE PUSH2 0x6E0 DUP5 SWAP1 MSTORE PUSH2 0x700 DUP4 SWAP1 MSTORE PUSH2 0x720 DUP3 SWAP1 MSTORE PUSH2 0x740 DUP3 SWAP1 MSTORE PUSH2 0x760 DUP4 SWAP1 MSTORE PUSH2 0x780 DUP4 SWAP1 MSTORE PUSH2 0x7A0 DUP4 SWAP1 MSTORE PUSH2 0x7C0 DUP4 SWAP1 MSTORE PUSH2 0x7E0 DUP4 SWAP1 MSTORE PUSH1 0xA0 MSTORE PUSH2 0x800 DUP6 DUP2 MSTORE PUSH2 0x820 DUP7 SWAP1 MSTORE PUSH2 0x840 DUP7 SWAP1 MSTORE PUSH2 0x860 DUP7 SWAP1 MSTORE PUSH2 0x880 DUP7 SWAP1 MSTORE PUSH2 0x8A0 DUP7 SWAP1 MSTORE PUSH2 0x8C0 DUP7 SWAP1 MSTORE PUSH2 0x8E0 DUP7 SWAP1 MSTORE PUSH2 0x900 DUP5 SWAP1 MSTORE PUSH2 0x920 DUP5 SWAP1 MSTORE PUSH2 0x940 DUP5 SWAP1 MSTORE PUSH2 0x960 DUP5 SWAP1 MSTORE PUSH2 0x980 DUP4 SWAP1 MSTORE PUSH2 0x9A0 DUP4 SWAP1 MSTORE PUSH2 0x9C0 DUP3 SWAP1 MSTORE PUSH2 0x9E0 DUP3 SWAP1 MSTORE PUSH2 0xA00 DUP4 SWAP1 MSTORE PUSH2 0xA20 DUP4 SWAP1 MSTORE PUSH2 0xA40 DUP4 SWAP1 MSTORE PUSH2 0xA60 DUP4 SWAP1 MSTORE PUSH1 0xC0 MSTORE PUSH2 0xA80 DUP6 DUP2 MSTORE PUSH2 0xAA0 DUP7 SWAP1 MSTORE PUSH2 0xAC0 DUP7 SWAP1 MSTORE PUSH2 0xAE0 DUP7 SWAP1 MSTORE PUSH2 0xB00 DUP7 SWAP1 MSTORE PUSH2 0xB20 DUP7 SWAP1 MSTORE PUSH2 0xB40 DUP7 SWAP1 MSTORE PUSH2 0xB60 SWAP6 SWAP1 SWAP6 MSTORE PUSH2 0xB80 DUP4 SWAP1 MSTORE PUSH2 0xBA0 DUP4 SWAP1 MSTORE PUSH2 0xBC0 DUP4 SWAP1 MSTORE PUSH2 0xBE0 DUP4 SWAP1 MSTORE PUSH2 0xC00 DUP4 SWAP1 MSTORE PUSH2 0xC20 DUP2 SWAP1 MSTORE PUSH2 0xC40 DUP2 SWAP1 MSTORE PUSH2 0xC60 DUP2 SWAP1 MSTORE PUSH2 0xC80 DUP3 SWAP1 MSTORE PUSH2 0xCA0 DUP3 SWAP1 MSTORE PUSH2 0xCC0 DUP3 SWAP1 MSTORE PUSH2 0xCE0 DUP3 SWAP1 MSTORE PUSH1 0xE0 SWAP5 SWAP1 SWAP5 MSTORE PUSH2 0xD00 DUP3 DUP2 MSTORE PUSH2 0xD20 DUP4 SWAP1 MSTORE PUSH2 0xD40 DUP4 SWAP1 MSTORE PUSH2 0xD60 DUP4 SWAP1 MSTORE PUSH2 0xD80 DUP4 SWAP1 MSTORE PUSH2 0xDA0 DUP4 SWAP1 MSTORE PUSH2 0xDC0 DUP4 SWAP1 MSTORE PUSH2 0xDE0 DUP4 SWAP1 MSTORE PUSH2 0xE00 DUP4 SWAP1 MSTORE PUSH2 0xE20 DUP4 SWAP1 MSTORE PUSH2 0xE40 DUP4 SWAP1 MSTORE PUSH2 0xE60 DUP4 SWAP1 MSTORE PUSH2 0xE80 DUP6 SWAP1 MSTORE PUSH2 0xEA0 DUP6 SWAP1 MSTORE PUSH2 0xEC0 DUP6 SWAP1 MSTORE PUSH2 0xEE0 DUP6 SWAP1 MSTORE PUSH2 0xF00 DUP3 SWAP1 MSTORE PUSH2 0xF20 DUP3 SWAP1 MSTORE PUSH2 0xF40 DUP3 SWAP1 MSTORE PUSH2 0xF60 DUP3 SWAP1 MSTORE PUSH2 0x100 MSTORE PUSH2 0xF80 DUP3 DUP2 MSTORE PUSH2 0xFA0 DUP4 SWAP1 MSTORE PUSH2 0xFC0 DUP4 SWAP1 MSTORE PUSH2 0xFE0 DUP4 SWAP1 MSTORE PUSH2 0x1000 DUP4 SWAP1 MSTORE PUSH2 0x1020 DUP4 SWAP1 MSTORE PUSH2 0x1040 DUP4 SWAP1 MSTORE PUSH2 0x1060 DUP4 SWAP1 MSTORE PUSH2 0x1080 DUP4 SWAP1 MSTORE PUSH2 0x10A0 DUP4 SWAP1 MSTORE PUSH2 0x10C0 DUP4 SWAP1 MSTORE PUSH2 0x10E0 DUP4 SWAP1 MSTORE PUSH2 0x1100 DUP6 SWAP1 MSTORE PUSH2 0x1120 DUP6 SWAP1 MSTORE PUSH2 0x1140 DUP6 SWAP1 MSTORE PUSH2 0x1160 DUP6 SWAP1 MSTORE PUSH2 0x1180 DUP3 SWAP1 MSTORE PUSH2 0x11A0 DUP3 SWAP1 MSTORE PUSH2 0x11C0 DUP3 SWAP1 MSTORE PUSH2 0x11E0 DUP3 SWAP1 MSTORE PUSH2 0x120 MSTORE PUSH2 0x1200 DUP3 DUP2 MSTORE PUSH2 0x1220 DUP4 SWAP1 MSTORE PUSH2 0x1240 DUP4 SWAP1 MSTORE PUSH2 0x1260 DUP4 SWAP1 MSTORE PUSH2 0x1280 DUP4 SWAP1 MSTORE PUSH2 0x12A0 DUP4 SWAP1 MSTORE PUSH2 0x12C0 DUP4 SWAP1 MSTORE PUSH2 0x12E0 DUP4 SWAP1 MSTORE PUSH2 0x1300 DUP4 SWAP1 MSTORE PUSH2 0x1320 DUP4 SWAP1 MSTORE PUSH2 0x1340 DUP4 SWAP1 MSTORE PUSH2 0x1360 DUP4 SWAP1 MSTORE PUSH2 0x1380 DUP6 SWAP1 MSTORE PUSH2 0x13A0 DUP6 SWAP1 MSTORE PUSH2 0x13C0 DUP6 SWAP1 MSTORE PUSH2 0x13E0 DUP6 SWAP1 MSTORE PUSH2 0x1400 DUP6 SWAP1 MSTORE PUSH2 0x1420 DUP6 SWAP1 MSTORE PUSH2 0x1440 DUP6 SWAP1 MSTORE PUSH2 0x1460 DUP6 SWAP1 MSTORE PUSH2 0x140 MSTORE PUSH2 0x1480 DUP3 DUP2 MSTORE PUSH2 0x14A0 DUP4 SWAP1 MSTORE PUSH2 0x14C0 DUP4 SWAP1 MSTORE PUSH2 0x14E0 DUP6 SWAP1 MSTORE PUSH2 0x1500 DUP4 SWAP1 MSTORE PUSH2 0x1520 DUP4 SWAP1 MSTORE PUSH2 0x1540 DUP4 SWAP1 MSTORE PUSH2 0x1560 DUP4 SWAP1 MSTORE PUSH2 0x1580 DUP4 SWAP1 MSTORE PUSH2 0x15A0 DUP4 SWAP1 MSTORE PUSH2 0x15C0 DUP4 SWAP1 MSTORE PUSH2 0x15E0 DUP6 SWAP1 MSTORE PUSH2 0x1600 DUP3 SWAP1 MSTORE PUSH2 0x1620 DUP3 SWAP1 MSTORE PUSH2 0x1640 DUP3 SWAP1 MSTORE PUSH2 0x1660 DUP3 SWAP1 MSTORE PUSH2 0x1680 DUP6 SWAP1 MSTORE PUSH2 0x16A0 DUP6 SWAP1 MSTORE PUSH2 0x16C0 DUP6 SWAP1 MSTORE PUSH2 0x16E0 DUP6 SWAP1 MSTORE PUSH2 0x160 MSTORE PUSH2 0x1700 DUP3 DUP2 MSTORE PUSH2 0x1720 DUP4 SWAP1 MSTORE PUSH2 0x1740 DUP4 SWAP1 MSTORE PUSH2 0x1760 DUP6 SWAP1 MSTORE PUSH2 0x1780 DUP6 SWAP1 MSTORE PUSH2 0x17A0 DUP3 SWAP1 MSTORE PUSH2 0x17C0 DUP3 SWAP1 MSTORE PUSH2 0x17E0 DUP3 SWAP1 MSTORE PUSH2 0x1800 DUP3 SWAP1 MSTORE PUSH2 0x1820 DUP3 SWAP1 MSTORE PUSH2 0x1840 DUP3 SWAP1 MSTORE PUSH2 0x1860 DUP6 SWAP1 MSTORE PUSH2 0x1880 DUP3 SWAP1 MSTORE PUSH2 0x18A0 DUP3 SWAP1 MSTORE PUSH2 0x18C0 DUP3 SWAP1 MSTORE PUSH2 0x18E0 DUP3 SWAP1 MSTORE PUSH2 0x1900 DUP3 SWAP1 MSTORE PUSH2 0x1920 DUP3 SWAP1 MSTORE PUSH2 0x1940 DUP3 SWAP1 MSTORE PUSH2 0x1960 DUP6 SWAP1 MSTORE PUSH2 0x180 MSTORE PUSH2 0x1980 DUP5 DUP2 MSTORE PUSH2 0x19A0 DUP3 SWAP1 MSTORE PUSH2 0x19C0 DUP3 SWAP1 MSTORE PUSH2 0x19E0 DUP6 SWAP1 MSTORE PUSH2 0x1A00 DUP3 SWAP1 MSTORE PUSH2 0x1A20 DUP3 SWAP1 MSTORE PUSH2 0x1A40 DUP3 SWAP1 MSTORE PUSH2 0x1A60 DUP3 SWAP1 MSTORE PUSH2 0x1A80 DUP3 SWAP1 MSTORE PUSH2 0x1AA0 DUP3 SWAP1 MSTORE PUSH2 0x1AC0 DUP3 SWAP1 MSTORE PUSH2 0x1AE0 DUP6 SWAP1 MSTORE PUSH2 0x1B00 DUP3 SWAP1 MSTORE PUSH2 0x1B20 DUP3 SWAP1 MSTORE PUSH2 0x1B40 DUP3 SWAP1 MSTORE PUSH2 0x1B60 DUP3 SWAP1 MSTORE PUSH2 0x1B80 DUP3 SWAP1 MSTORE PUSH2 0x1BA0 DUP3 SWAP1 MSTORE PUSH2 0x1BC0 DUP3 SWAP1 MSTORE PUSH2 0x1BE0 DUP6 SWAP1 MSTORE PUSH2 0x1A0 MSTORE PUSH2 0x1C00 DUP2 DUP2 MSTORE PUSH2 0x1C20 DUP3 SWAP1 MSTORE PUSH2 0x1C40 DUP6 SWAP1 MSTORE PUSH2 0x1C60 DUP6 SWAP1 MSTORE PUSH2 0x1C80 DUP3 SWAP1 MSTORE PUSH2 0x1CA0 DUP3 SWAP1 MSTORE PUSH2 0x1CC0 DUP3 SWAP1 MSTORE PUSH2 0x1CE0 DUP3 SWAP1 MSTORE PUSH2 0x1D00 DUP3 SWAP1 MSTORE PUSH2 0x1D20 DUP3 SWAP1 MSTORE PUSH2 0x1D40 DUP6 SWAP1 MSTORE PUSH2 0x1D60 DUP6 SWAP1 MSTORE PUSH2 0x1D80 DUP3 SWAP1 MSTORE PUSH2 0x1DA0 DUP3 SWAP1 MSTORE PUSH2 0x1DC0 DUP3 SWAP1 MSTORE PUSH2 0x1DE0 DUP3 SWAP1 MSTORE PUSH2 0x1E00 DUP3 SWAP1 MSTORE PUSH2 0x1E20 DUP3 SWAP1 MSTORE PUSH2 0x1E40 DUP6 SWAP1 MSTORE PUSH2 0x1E60 DUP6 SWAP1 MSTORE PUSH2 0x1C0 MSTORE PUSH2 0x1E80 DUP3 DUP2 MSTORE PUSH2 0x1EA0 DUP4 SWAP1 MSTORE PUSH2 0x1EC0 DUP4 SWAP1 MSTORE PUSH2 0x1EE0 DUP3 SWAP1 MSTORE PUSH2 0x1F00 DUP6 SWAP1 MSTORE PUSH2 0x1F20 DUP3 SWAP1 MSTORE PUSH2 0x1F40 DUP3 SWAP1 MSTORE PUSH2 0x1F60 DUP3 SWAP1 MSTORE PUSH2 0x1F80 DUP3 SWAP1 MSTORE PUSH2 0x1FA0 DUP3 SWAP1 MSTORE PUSH2 0x1FC0 DUP6 SWAP1 MSTORE PUSH2 0x1FE0 DUP3 SWAP1 MSTORE PUSH2 0x2000 DUP3 SWAP1 MSTORE PUSH2 0x2020 DUP3 SWAP1 MSTORE PUSH2 0x2040 DUP3 SWAP1 MSTORE PUSH2 0x2060 DUP6 SWAP1 MSTORE PUSH2 0x2080 DUP6 SWAP1 MSTORE PUSH2 0x20A0 DUP6 SWAP1 MSTORE PUSH2 0x20C0 DUP6 SWAP1 MSTORE PUSH2 0x20E0 DUP6 SWAP1 MSTORE PUSH2 0x1E0 MSTORE PUSH2 0x2100 DUP3 DUP2 MSTORE PUSH2 0x2120 DUP4 SWAP1 MSTORE PUSH2 0x2140 DUP4 SWAP1 MSTORE PUSH2 0x2160 DUP4 SWAP1 MSTORE PUSH2 0x2180 DUP6 SWAP1 MSTORE PUSH2 0x21A0 DUP6 SWAP1 MSTORE PUSH2 0x21C0 DUP3 SWAP1 MSTORE PUSH2 0x21E0 DUP3 SWAP1 MSTORE PUSH2 0x2200 DUP3 SWAP1 MSTORE PUSH2 0x2220 DUP3 SWAP1 MSTORE PUSH2 0x2240 DUP6 SWAP1 MSTORE PUSH2 0x2260 DUP6 SWAP1 MSTORE PUSH2 0x2280 DUP3 SWAP1 MSTORE PUSH2 0x22A0 DUP3 SWAP1 MSTORE PUSH2 0x22C0 DUP3 SWAP1 MSTORE PUSH2 0x22E0 DUP6 SWAP1 MSTORE PUSH2 0x2300 DUP6 SWAP1 MSTORE PUSH2 0x2320 DUP6 SWAP1 MSTORE PUSH2 0x2340 DUP6 SWAP1 MSTORE PUSH2 0x2360 DUP6 SWAP1 MSTORE PUSH2 0x200 MSTORE PUSH2 0x2380 DUP3 DUP2 MSTORE PUSH2 0x23A0 DUP4 SWAP1 MSTORE PUSH2 0x23C0 DUP4 SWAP1 MSTORE PUSH2 0x23E0 DUP4 SWAP1 MSTORE PUSH2 0x2400 DUP4 SWAP1 MSTORE PUSH2 0x2420 DUP6 SWAP1 MSTORE PUSH2 0x2440 DUP3 SWAP1 MSTORE PUSH2 0x2460 DUP3 SWAP1 MSTORE PUSH2 0x2480 DUP3 SWAP1 MSTORE PUSH2 0x24A0 DUP3 SWAP1 MSTORE PUSH2 0x24C0 DUP6 SWAP1 MSTORE PUSH2 0x24E0 DUP6 SWAP1 MSTORE PUSH2 0x2500 DUP6 SWAP1 MSTORE PUSH2 0x2520 DUP3 SWAP1 MSTORE PUSH2 0x2540 DUP3 SWAP1 MSTORE PUSH2 0x2560 DUP3 SWAP1 MSTORE PUSH2 0x2580 DUP3 SWAP1 MSTORE PUSH2 0x25A0 DUP6 SWAP1 MSTORE PUSH2 0x25C0 DUP6 SWAP1 MSTORE PUSH2 0x25E0 DUP6 SWAP1 MSTORE PUSH2 0x220 MSTORE PUSH2 0x2600 DUP3 DUP2 MSTORE PUSH2 0x2620 DUP4 SWAP1 MSTORE PUSH2 0x2640 DUP4 SWAP1 MSTORE PUSH2 0x2660 DUP4 SWAP1 MSTORE PUSH2 0x2680 DUP4 SWAP1 MSTORE PUSH2 0x26A0 DUP3 SWAP1 MSTORE PUSH2 0x26C0 DUP3 SWAP1 MSTORE PUSH2 0x26E0 DUP3 SWAP1 MSTORE PUSH2 0x2700 DUP4 SWAP1 MSTORE PUSH2 0x2720 DUP4 SWAP1 MSTORE PUSH2 0x2740 DUP3 SWAP1 MSTORE PUSH2 0x2760 DUP3 SWAP1 MSTORE PUSH2 0x2780 DUP6 SWAP1 MSTORE PUSH2 0x27A0 DUP3 SWAP1 MSTORE PUSH2 0x27C0 DUP3 SWAP1 MSTORE PUSH2 0x27E0 DUP3 SWAP1 MSTORE PUSH2 0x2800 DUP3 SWAP1 MSTORE PUSH2 0x2820 DUP6 SWAP1 MSTORE PUSH2 0x2840 DUP6 SWAP1 MSTORE PUSH2 0x2860 DUP6 SWAP1 MSTORE PUSH2 0x240 MSTORE PUSH2 0x2880 DUP2 DUP2 MSTORE PUSH2 0x28A0 DUP3 SWAP1 MSTORE PUSH2 0x28C0 DUP3 SWAP1 MSTORE PUSH2 0x28E0 DUP6 SWAP1 MSTORE PUSH2 0x2900 DUP6 SWAP1 MSTORE PUSH2 0x2920 DUP6 SWAP1 MSTORE PUSH2 0x2940 DUP6 SWAP1 MSTORE PUSH2 0x2960 DUP6 SWAP1 MSTORE PUSH2 0x2980 DUP4 SWAP1 MSTORE PUSH2 0x29A0 DUP4 SWAP1 MSTORE PUSH2 0x29C0 DUP4 SWAP1 MSTORE PUSH2 0x29E0 DUP4 SWAP1 MSTORE PUSH2 0x2A00 DUP6 SWAP1 MSTORE PUSH2 0x2A20 DUP6 SWAP1 MSTORE PUSH2 0x2A40 DUP3 SWAP1 MSTORE PUSH2 0x2A60 DUP3 SWAP1 MSTORE PUSH2 0x2A80 DUP3 SWAP1 MSTORE PUSH2 0x2AA0 DUP6 SWAP1 MSTORE PUSH2 0x2AC0 DUP6 SWAP1 MSTORE PUSH2 0x2AE0 DUP6 SWAP1 MSTORE PUSH2 0x260 MSTORE PUSH2 0x2B00 DUP2 DUP2 MSTORE PUSH2 0x2B20 DUP3 SWAP1 MSTORE PUSH2 0x2B40 DUP3 SWAP1 MSTORE PUSH2 0x2B60 DUP3 SWAP1 MSTORE PUSH2 0x2B80 DUP3 SWAP1 MSTORE PUSH2 0x2BA0 DUP3 SWAP1 MSTORE PUSH2 0x2BC0 DUP6 SWAP1 MSTORE PUSH2 0x2BE0 DUP6 SWAP1 MSTORE PUSH2 0x2C00 DUP4 SWAP1 MSTORE PUSH2 0x2C20 DUP4 SWAP1 MSTORE PUSH2 0x2C40 DUP4 SWAP1 MSTORE PUSH2 0x2C60 DUP4 SWAP1 MSTORE PUSH2 0x2C80 DUP6 SWAP1 MSTORE PUSH2 0x2CA0 DUP6 SWAP1 MSTORE PUSH2 0x2CC0 DUP6 SWAP1 MSTORE PUSH2 0x2CE0 DUP6 SWAP1 MSTORE PUSH2 0x2D00 DUP4 SWAP1 MSTORE PUSH2 0x2D20 DUP4 SWAP1 MSTORE PUSH2 0x2D40 DUP3 SWAP1 MSTORE PUSH2 0x2D60 DUP3 SWAP1 MSTORE PUSH2 0x280 MSTORE PUSH2 0x2D80 DUP2 DUP2 MSTORE PUSH2 0x2DA0 DUP3 SWAP1 MSTORE PUSH2 0x2DC0 DUP3 SWAP1 MSTORE PUSH2 0x2DE0 DUP3 SWAP1 MSTORE PUSH2 0x2E00 DUP3 SWAP1 MSTORE PUSH2 0x2E20 DUP3 SWAP1 MSTORE PUSH2 0x2E40 DUP3 SWAP1 MSTORE PUSH2 0x2E60 DUP6 SWAP1 MSTORE PUSH2 0x2E80 DUP4 SWAP1 MSTORE PUSH2 0x2EA0 DUP4 SWAP1 MSTORE PUSH2 0x2EC0 DUP4 SWAP1 MSTORE PUSH2 0x2EE0 DUP4 SWAP1 MSTORE PUSH2 0x2F00 DUP6 SWAP1 MSTORE PUSH2 0x2F20 DUP6 SWAP1 MSTORE PUSH2 0x2F40 DUP6 SWAP1 MSTORE PUSH2 0x2F60 DUP6 SWAP1 MSTORE PUSH2 0x2F80 DUP4 SWAP1 MSTORE PUSH2 0x2FA0 DUP4 SWAP1 MSTORE PUSH2 0x2FC0 DUP3 SWAP1 MSTORE PUSH2 0x2FE0 DUP3 SWAP1 MSTORE PUSH2 0x2A0 MSTORE PUSH2 0x3000 DUP2 DUP2 MSTORE PUSH2 0x3020 DUP3 SWAP1 MSTORE PUSH2 0x3040 DUP3 SWAP1 MSTORE PUSH2 0x3060 DUP3 SWAP1 MSTORE PUSH2 0x3080 DUP3 SWAP1 MSTORE PUSH2 0x30A0 DUP3 SWAP1 MSTORE PUSH2 0x30C0 DUP3 SWAP1 MSTORE PUSH2 0x30E0 DUP6 SWAP1 MSTORE PUSH2 0x3100 DUP6 SWAP1 MSTORE PUSH2 0x3120 DUP3 SWAP1 MSTORE PUSH2 0x3140 DUP3 SWAP1 MSTORE PUSH2 0x3160 DUP6 SWAP1 MSTORE PUSH2 0x3180 DUP6 SWAP1 MSTORE PUSH2 0x31A0 DUP3 SWAP1 MSTORE PUSH2 0x31C0 DUP3 SWAP1 MSTORE PUSH2 0x31E0 DUP6 SWAP1 MSTORE PUSH2 0x3200 DUP4 SWAP1 MSTORE PUSH2 0x3220 DUP4 SWAP1 MSTORE PUSH2 0x3240 DUP3 SWAP1 MSTORE PUSH2 0x3260 DUP3 SWAP1 MSTORE PUSH2 0x2C0 MSTORE PUSH2 0x3500 PUSH1 0x40 MSTORE PUSH2 0x3280 DUP2 DUP2 MSTORE PUSH2 0x32A0 DUP3 SWAP1 MSTORE PUSH2 0x32C0 DUP3 SWAP1 MSTORE PUSH2 0x32E0 DUP3 SWAP1 MSTORE PUSH2 0x3300 DUP3 SWAP1 MSTORE PUSH2 0x3320 DUP3 SWAP1 MSTORE PUSH2 0x3340 DUP3 SWAP1 MSTORE PUSH2 0x3360 DUP6 SWAP1 MSTORE PUSH2 0x3380 DUP6 SWAP1 MSTORE PUSH2 0x33A0 DUP6 SWAP1 MSTORE PUSH2 0x33C0 DUP6 SWAP1 MSTORE PUSH2 0x33E0 DUP6 SWAP1 MSTORE PUSH2 0x3400 DUP6 SWAP1 MSTORE PUSH2 0x3420 DUP6 SWAP1 MSTORE PUSH2 0x3440 DUP6 SWAP1 MSTORE PUSH2 0x3460 DUP4 SWAP1 MSTORE PUSH2 0x3480 DUP4 SWAP1 MSTORE PUSH2 0x34A0 SWAP3 SWAP1 SWAP3 MSTORE PUSH2 0x34C0 DUP2 SWAP1 MSTORE PUSH2 0x34E0 MSTORE PUSH2 0x2E0 MSTORE PUSH3 0x9CC SWAP2 SWAP1 PUSH1 0x14 PUSH3 0xA56 JUMP JUMPDEST POP CALLVALUE DUP1 ISZERO PUSH3 0x9DA JUMPI PUSH1 0x0 DUP1 REVERT JUMPDEST POP PUSH1 0x40 MLOAD PUSH3 0x63C7 CODESIZE SUB DUP1 PUSH3 0x63C7 DUP4 CODECOPY DUP2 ADD PUSH1 0x40 DUP2 SWAP1 MSTORE PUSH3 0x9FD SWAP2 PUSH3 0xB86 JUMP JUMPDEST PUSH1 0x1 PUSH1 0x0 SSTORE PUSH1 0x15 DUP1 SLOAD PUSH1 0x1 PUSH1 0x1 PUSH1 0xA0 SHL SUB SWAP6 DUP7 AND PUSH1 0x1 PUSH1 0x1 PUSH1 0xA0 SHL SUB NOT SWAP2 DUP3 AND OR SWAP1 SWAP2 SSTORE PUSH1 0x16 DUP1 SLOAD SWAP5 DUP7 AND SWAP5 DUP3 AND SWAP5 SWAP1 SWAP5 OR SWAP1 SWAP4 SSTORE PUSH1 0x22 DUP1 SLOAD SWAP3 DUP6 AND SWAP3 DUP5 AND SWAP3 SWAP1 SWAP3 OR SWAP1 SWAP2 SSTORE PUSH1 0x17 DUP1 SLOAD SWAP2 SWAP1 SWAP4 AND SWAP2 AND OR SWAP1 SSTORE PUSH3 0xBE3 JUMP JUMPDEST DUP3 PUSH1 0x14 DUP2 ADD SWAP3 DUP3 ISZERO PUSH3 0xA95 JUMPI SWAP2 PUSH1 0x20 MUL DUP3 ADD JUMPDEST DUP3 DUP2 GT ISZERO PUSH3 0xA95 JUMPI DUP3 MLOAD PUSH3 0xA84 SWAP1 DUP4 SWAP1 PUSH1 0x14 PUSH3 0xAA7 JUMP JUMPDEST POP SWAP2 PUSH1 0x20 ADD SWAP2 SWAP1 PUSH1 0x1 ADD SWAP1 PUSH3 0xA6A JUMP JUMPDEST POP PUSH3 0xAA3 SWAP3 SWAP2 POP PUSH3 0xB3D JUMP JUMPDEST POP SWAP1 JUMP JUMPDEST PUSH1 0x1 DUP4 ADD SWAP2 DUP4 SWAP1 DUP3 ISZERO PUSH3 0xB2F JUMPI SWAP2 PUSH1 0x20 MUL DUP3 ADD PUSH1 0x0 JUMPDEST DUP4 DUP3 GT ISZERO PUSH3 0xAFE JUMPI DUP4 MLOAD DUP4 DUP3 PUSH2 0x100 EXP DUP2 SLOAD DUP2 PUSH1 0xFF MUL NOT AND SWAP1 DUP4 PUSH1 0xFF AND MUL OR SWAP1 SSTORE POP SWAP3 PUSH1 0x20 ADD SWAP3 PUSH1 0x1 ADD PUSH1 0x20 DUP2 PUSH1 0x0 ADD DIV SWAP3 DUP4 ADD SWAP3 PUSH1 0x1 SUB MUL PUSH3 0xABE JUMP JUMPDEST DUP1 ISZERO PUSH3 0xB2D JUMPI DUP3 DUP2 PUSH2 0x100 EXP DUP2 SLOAD SWAP1 PUSH1 0xFF MUL NOT AND SWAP1 SSTORE PUSH1 0x1 ADD PUSH1 0x20 DUP2 PUSH1 0x0 ADD DIV SWAP3 DUP4 ADD SWAP3 PUSH1 0x1 SUB MUL PUSH3 0xAFE JUMP JUMPDEST POP JUMPDEST POP PUSH3 0xAA3 SWAP3 SWAP2 POP PUSH3 0xB53 JUMP JUMPDEST DUP1 DUP3 GT ISZERO PUSH3 0xAA3 JUMPI PUSH1 0x0 DUP2 SSTORE PUSH1 0x1 ADD PUSH3 0xB3D JUMP JUMPDEST DUP1 DUP3 GT ISZERO PUSH3 0xAA3 JUMPI PUSH1 0x0 DUP2 SSTORE PUSH1 0x1 ADD PUSH3 0xB3D JUMP JUMPDEST DUP1 MLOAD PUSH1 0x1 PUSH1 0x1 PUSH1 0xA0 SHL SUB DUP2 AND DUP2 EQ PUSH3 0xB81 JUMPI PUSH1 0x0 DUP1 REVERT JUMPDEST SWAP2 SWAP1 POP JUMP JUMPDEST PUSH1 0x0 DUP1 PUSH1 0x0 DUP1 PUSH1 0x80 DUP6 DUP8 SUB SLT ISZERO PUSH3 0xB9D JUMPI PUSH1 0x0 DUP1 REVERT JUMPDEST PUSH3 0xBA8 DUP6 PUSH3 0xB69 JUMP JUMPDEST SWAP4 POP PUSH3 0xBB8 PUSH1 0x20 DUP7 ADD PUSH3 0xB69 JUMP JUMPDEST SWAP3 POP PUSH3 0xBC8 PUSH1 0x40 DUP7 ADD PUSH3 0xB69 JUMP JUMPDEST SWAP2 POP PUSH3 0xBD8 PUSH1 0x60 DUP7 ADD PUSH3 0xB69 JUMP JUMPDEST SWAP1 POP SWAP3 SWAP6 SWAP2 SWAP5 POP SWAP3 POP JUMP JUMPDEST PUSH2 0x57D4 DUP1 PUSH3 0xBF3 PUSH1 0x0 CODECOPY PUSH1 0x0 RETURN INVALID PUSH1 0x80 PUSH1 0x40 MSTORE CALLVALUE DUP1 ISZERO PUSH2 0x10 JUMPI PUSH1 0x0 DUP1 REVERT JUMPDEST POP PUSH1 0x4 CALLDATASIZE LT PUSH2 0x30A JUMPI PUSH1 0x0 CALLDATALOAD PUSH1 0xE0 SHR DUP1 PUSH4 0x62C5813D GT PUSH2 0x19C JUMPI DUP1 PUSH4 0x9CEC5194 GT PUSH2 0xEE JUMPI DUP1 PUSH4 0xBE5ED4C3 GT PUSH2 0x97 JUMPI DUP1 PUSH4 0xEA0E35B1 GT PUSH2 0x71 JUMPI DUP1 PUSH4 0xEA0E35B1 EQ PUSH2 0x721 JUMPI DUP1 PUSH4 0xF15AD264 EQ PUSH2 0x729 JUMPI DUP1 PUSH4 0xFA60AD99 EQ PUSH2 0x73C JUMPI PUSH1 0x0 DUP1 REVERT JUMPDEST DUP1 PUSH4 0xBE5ED4C3 EQ PUSH2 0x6F2 JUMPI DUP1 PUSH4 0xE4547FB4 EQ PUSH2 0x716 JUMPI DUP1 PUSH4 0xE6192FCA EQ PUSH2 0x716 JUMPI PUSH1 0x0 DUP1 REVERT JUMPDEST DUP1 PUSH4 0xB0D77774 GT PUSH2 0xC8 JUMPI DUP1 PUSH4 0xB0D77774 EQ PUSH2 0x6B9 JUMPI DUP1 PUSH4 0xB21E0737 EQ PUSH2 0x6CC JUMPI DUP1 PUSH4 0xBC9955A2 EQ PUSH2 0x6DF JUMPI PUSH1 0x0 DUP1 REVERT JUMPDEST DUP1 PUSH4 0x9CEC5194 EQ PUSH2 0x666 JUMPI DUP1 PUSH4 0xA609775B EQ PUSH2 0x679 JUMPI DUP1 PUSH4 0xABEFC323 EQ PUSH2 0x68C JUMPI PUSH1 0x0 DUP1 REVERT JUMPDEST DUP1 PUSH4 0x7AB9E7FE GT PUSH2 0x150 JUMPI DUP1 PUSH4 0x8E6BB70E GT PUSH2 0x12A JUMPI DUP1 PUSH4 0x8E6BB70E EQ PUSH2 0x62B JUMPI DUP1 PUSH4 0x98A8D0E7 EQ PUSH2 0x63E JUMPI DUP1 PUSH4 0x9B21D6EB EQ PUSH2 0x651 JUMPI PUSH1 0x0 DUP1 REVERT JUMPDEST DUP1 PUSH4 0x7AB9E7FE EQ PUSH2 0x5C1 JUMPI DUP1 PUSH4 0x7B0C98EF EQ PUSH2 0x5F8 JUMPI DUP1 PUSH4 0x8252A669 EQ PUSH2 0x60B JUMPI PUSH1 0x0 DUP1 REVERT JUMPDEST DUP1 PUSH4 0x6F5978D9 GT PUSH2 0x181 JUMPI DUP1 PUSH4 0x6F5978D9 EQ PUSH2 0x58F JUMPI DUP1 PUSH4 0x731AE689 EQ PUSH2 0x5A2 JUMPI DUP1 PUSH4 0x793C97DE EQ PUSH2 0x5AE JUMPI PUSH1 0x0 DUP1 REVERT JUMPDEST DUP1 PUSH4 0x62C5813D EQ PUSH2 0x583 JUMPI DUP1 PUSH4 0x65191666 EQ PUSH2 0x583 JUMPI PUSH1 0x0 DUP1 REVERT JUMPDEST DUP1 PUSH4 0x2E4B51BD GT PUSH2 0x260 JUMPI DUP1 PUSH4 0x40B900B6 GT PUSH2 0x209 JUMPI DUP1 PUSH4 0x5387A797 GT PUSH2 0x1E3 JUMPI DUP1 PUSH4 0x5387A797 EQ PUSH2 0x402 JUMPI DUP1 PUSH4 0x58612A20 EQ PUSH2 0x541 JUMPI DUP1 PUSH4 0x5AA24CBD EQ PUSH2 0x570 JUMPI PUSH1 0x0 DUP1 REVERT JUMPDEST DUP1 PUSH4 0x40B900B6 EQ PUSH2 0x4FB JUMPI DUP1 PUSH4 0x44AD764D EQ PUSH2 0x51B JUMPI DUP1 PUSH4 0x4F264B03 EQ PUSH2 0x52E JUMPI PUSH1 0x0 DUP1 REVERT JUMPDEST DUP1 PUSH4 0x3942613C GT PUSH2 0x23A JUMPI DUP1 PUSH4 0x3942613C EQ PUSH2 0x468 JUMPI DUP1 PUSH4 0x3F9662BB EQ PUSH2 0x4B1 JUMPI DUP1 PUSH4 0x40B76BBD EQ PUSH2 0x4C4 JUMPI PUSH1 0x0 DUP1 REVERT JUMPDEST DUP1 PUSH4 0x2E4B51BD EQ PUSH2 0x34D JUMPI DUP1 PUSH4 0x2F57741C EQ PUSH2 0x422 JUMPI DUP1 PUSH4 0x36780527 EQ PUSH2 0x435 JUMPI PUSH1 0x0 DUP1 REVERT JUMPDEST DUP1 PUSH4 0x15B7ED6F GT PUSH2 0x2C2 JUMPI DUP1 PUSH4 0x2A2026A9 GT PUSH2 0x29C JUMPI DUP1 PUSH4 0x2A2026A9 EQ PUSH2 0x3DD JUMPI DUP1 PUSH4 0x2C6D422F EQ PUSH2 0x402 JUMPI DUP1 PUSH4 0x2DEC2E63 EQ PUSH2 0x40D JUMPI PUSH1 0x0 DUP1 REVERT JUMPDEST DUP1 PUSH4 0x15B7ED6F EQ PUSH2 0x3A4 JUMPI DUP1 PUSH4 0x196AB1AB EQ PUSH2 0x3B7 JUMPI DUP1 PUSH4 0x1CECB4FB EQ PUSH2 0x3CA JUMPI PUSH1 0x0 DUP1 REVERT JUMPDEST DUP1 PUSH4 0xCEA9DC5 GT PUSH2 0x2F3 JUMPI DUP1 PUSH4 0xCEA9DC5 EQ PUSH2 0x34D JUMPI DUP1 PUSH4 0xD67F59E EQ PUSH2 0x366 JUMPI DUP1 PUSH4 0x13A5CEDE EQ PUSH2 0x391 JUMPI PUSH1 0x0 DUP1 REVERT JUMPDEST DUP1 PUSH4 0x821DE3E EQ PUSH2 0x30F JUMPI DUP1 PUSH4 0x9E59CEC EQ PUSH2 0x324 JUMPI JUMPDEST PUSH1 0x0 DUP1 REVERT JUMPDEST PUSH2 0x322 PUSH2 0x31D CALLDATASIZE PUSH1 0x4 PUSH2 0x4D26 JUMP JUMPDEST PUSH2 0x74F JUMP JUMPDEST STOP JUMPDEST PUSH2 0x337 PUSH2 0x332 CALLDATASIZE PUSH1 0x4 PUSH2 0x4D87 JUMP JUMPDEST PUSH2 0xA7C JUMP JUMPDEST PUSH1 0x40 MLOAD PUSH2 0x344 SWAP2 SWAP1 PUSH2 0x4E0A JUMP JUMPDEST PUSH1 0x40 MLOAD DUP1 SWAP2 SUB SWAP1 RETURN JUMPDEST PUSH2 0x358 PUSH4 0x3B9ACA00 DUP2 JUMP JUMPDEST PUSH1 0x40 MLOAD SWAP1 DUP2 MSTORE PUSH1 0x20 ADD PUSH2 0x344 JUMP JUMPDEST PUSH1 0x16 SLOAD PUSH2 0x379 SWAP1 PUSH1 0x1 PUSH1 0x1 PUSH1 0xA0 SHL SUB AND DUP2 JUMP JUMPDEST PUSH1 0x40 MLOAD PUSH1 0x1 PUSH1 0x1 PUSH1 0xA0 SHL SUB SWAP1 SWAP2 AND DUP2 MSTORE PUSH1 0x20 ADD PUSH2 0x344 JUMP JUMPDEST PUSH2 0x337 PUSH2 0x39F CALLDATASIZE PUSH1 0x4 PUSH2 0x4E39 JUMP JUMPDEST PUSH2 0xB31 JUMP JUMPDEST PUSH2 0x322 PUSH2 0x3B2 CALLDATASIZE PUSH1 0x4 PUSH2 0x4E68 JUMP JUMPDEST PUSH2 0xBCA JUMP JUMPDEST PUSH1 0x22 SLOAD PUSH2 0x379 SWAP1 PUSH1 0x1 PUSH1 0x1 PUSH1 0xA0 SHL SUB AND DUP2 JUMP JUMPDEST PUSH2 0x322 PUSH2 0x3D8 CALLDATASIZE PUSH1 0x4 PUSH2 0x4D87 JUMP JUMPDEST PUSH2 0x10DE JUMP JUMPDEST PUSH2 0x3F0 PUSH2 0x3EB CALLDATASIZE PUSH1 0x4 PUSH2 0x4D87 JUMP JUMPDEST PUSH2 0x188F JUMP JUMPDEST PUSH1 0x40 MLOAD PUSH1 0xFF SWAP1 SWAP2 AND DUP2 MSTORE PUSH1 0x20 ADD PUSH2 0x344 JUMP JUMPDEST PUSH2 0x358 PUSH4 0x35A4E900 DUP2 JUMP JUMPDEST PUSH2 0x415 PUSH2 0x193C JUMP JUMPDEST PUSH1 0x40 MLOAD PUSH2 0x344 SWAP2 SWAP1 PUSH2 0x4ECD JUMP JUMPDEST PUSH2 0x322 PUSH2 0x430 CALLDATASIZE PUSH1 0x4 PUSH2 0x4F3B JUMP JUMPDEST PUSH2 0x1B14 JUMP JUMPDEST PUSH2 0x458 PUSH2 0x443 CALLDATASIZE PUSH1 0x4 PUSH2 0x4F7D JUMP JUMPDEST PUSH1 0x18 PUSH1 0x20 MSTORE PUSH1 0x0 SWAP1 DUP2 MSTORE PUSH1 0x40 SWAP1 KECCAK256 SLOAD PUSH1 0xFF AND DUP2 JUMP JUMPDEST PUSH1 0x40 MLOAD SWAP1 ISZERO ISZERO DUP2 MSTORE PUSH1 0x20 ADD PUSH2 0x344 JUMP JUMPDEST PUSH2 0x497 PUSH2 0x476 CALLDATASIZE PUSH1 0x4 PUSH2 0x4F96 JUMP JUMPDEST PUSH1 0x1C PUSH1 0x20 MSTORE PUSH1 0x0 SWAP1 DUP2 MSTORE PUSH1 0x40 SWAP1 KECCAK256 SLOAD PUSH2 0xFFFF DUP2 AND SWAP1 PUSH3 0x10000 SWAP1 DIV PUSH1 0xFF AND DUP3 JUMP JUMPDEST PUSH1 0x40 DUP1 MLOAD PUSH2 0xFFFF SWAP1 SWAP4 AND DUP4 MSTORE SWAP1 ISZERO ISZERO PUSH1 0x20 DUP4 ADD MSTORE ADD PUSH2 0x344 JUMP JUMPDEST PUSH2 0x458 PUSH2 0x4BF CALLDATASIZE PUSH1 0x4 PUSH2 0x4F3B JUMP JUMPDEST PUSH2 0x1DD6 JUMP JUMPDEST PUSH2 0x4E8 PUSH2 0x4D2 CALLDATASIZE PUSH1 0x4 PUSH2 0x4F96 JUMP JUMPDEST PUSH1 0x1E PUSH1 0x20 MSTORE PUSH1 0x0 SWAP1 DUP2 MSTORE PUSH1 0x40 SWAP1 KECCAK256 SLOAD PUSH2 0xFFFF AND DUP2 JUMP JUMPDEST PUSH1 0x40 MLOAD PUSH2 0xFFFF SWAP1 SWAP2 AND DUP2 MSTORE PUSH1 0x20 ADD PUSH2 0x344 JUMP JUMPDEST PUSH2 0x358 PUSH2 0x509 CALLDATASIZE PUSH1 0x4 PUSH2 0x4F96 JUMP JUMPDEST PUSH1 0x23 PUSH1 0x20 MSTORE PUSH1 0x0 SWAP1 DUP2 MSTORE PUSH1 0x40 SWAP1 KECCAK256 SLOAD DUP2 JUMP JUMPDEST PUSH2 0x322 PUSH2 0x529 CALLDATASIZE PUSH1 0x4 PUSH2 0x4D87 JUMP JUMPDEST PUSH2 0x1E7A JUMP JUMPDEST PUSH1 0x15 SLOAD PUSH2 0x379 SWAP1 PUSH1 0x1 PUSH1 0x1 PUSH1 0xA0 SHL SUB AND DUP2 JUMP JUMPDEST PUSH2 0x4E8 PUSH2 0x54F CALLDATASIZE PUSH1 0x4 PUSH2 0x4D87 JUMP JUMPDEST PUSH1 0x21 PUSH1 0x20 SWAP1 DUP2 MSTORE PUSH1 0x0 SWAP3 DUP4 MSTORE PUSH1 0x40 DUP1 DUP5 KECCAK256 SWAP1 SWAP2 MSTORE SWAP1 DUP3 MSTORE SWAP1 KECCAK256 SLOAD PUSH2 0xFFFF AND DUP2 JUMP JUMPDEST PUSH2 0x3F0 PUSH2 0x57E CALLDATASIZE PUSH1 0x4 PUSH2 0x4F96 JUMP JUMPDEST PUSH2 0x1FE8 JUMP JUMPDEST PUSH2 0x358 PUSH5 0x2540BE400 DUP2 JUMP JUMPDEST PUSH2 0x322 PUSH2 0x59D CALLDATASIZE PUSH1 0x4 PUSH2 0x4FB1 JUMP JUMPDEST PUSH2 0x2078 JUMP JUMPDEST PUSH2 0x358 PUSH5 0x174876E800 DUP2 JUMP JUMPDEST PUSH2 0x415 PUSH2 0x5BC CALLDATASIZE PUSH1 0x4 PUSH2 0x4F96 JUMP JUMPDEST PUSH2 0x2513 JUMP JUMPDEST PUSH2 0x4E8 PUSH2 0x5CF CALLDATASIZE PUSH1 0x4 PUSH2 0x4D87 JUMP JUMPDEST PUSH1 0xFF SWAP2 DUP3 AND PUSH1 0x0 SWAP1 DUP2 MSTORE PUSH1 0x21 PUSH1 0x20 SWAP1 DUP2 MSTORE PUSH1 0x40 DUP1 DUP4 KECCAK256 SWAP4 SWAP1 SWAP5 AND DUP3 MSTORE SWAP2 SWAP1 SWAP2 MSTORE KECCAK256 SLOAD PUSH2 0xFFFF AND SWAP1 JUMP JUMPDEST PUSH2 0x337 PUSH2 0x606 CALLDATASIZE PUSH1 0x4 PUSH2 0x4D87 JUMP JUMPDEST PUSH2 0x2641 JUMP JUMPDEST PUSH2 0x61E PUSH2 0x619 CALLDATASIZE PUSH1 0x4 PUSH2 0x4F96 JUMP JUMPDEST PUSH2 0x2665 JUMP JUMPDEST PUSH1 0x40 MLOAD PUSH2 0x344 SWAP2 SWAP1 PUSH2 0x5048 JUMP JUMPDEST PUSH2 0x322 PUSH2 0x639 CALLDATASIZE PUSH1 0x4 PUSH2 0x4E68 JUMP JUMPDEST PUSH2 0x277F JUMP JUMPDEST PUSH2 0x322 PUSH2 0x64C CALLDATASIZE PUSH1 0x4 PUSH2 0x4D26 JUMP JUMPDEST PUSH2 0x3094 JUMP JUMPDEST PUSH2 0x659 PUSH2 0x37AF JUMP JUMPDEST PUSH1 0x40 MLOAD PUSH2 0x344 SWAP2 SWAP1 PUSH2 0x505B JUMP JUMPDEST PUSH2 0x337 PUSH2 0x674 CALLDATASIZE PUSH1 0x4 PUSH2 0x4D87 JUMP JUMPDEST PUSH2 0x39EB JUMP JUMPDEST PUSH2 0x322 PUSH2 0x687 CALLDATASIZE PUSH1 0x4 PUSH2 0x4D87 JUMP JUMPDEST PUSH2 0x3AD9 JUMP JUMPDEST PUSH2 0x69F PUSH2 0x69A CALLDATASIZE PUSH1 0x4 PUSH2 0x4F96 JUMP JUMPDEST PUSH2 0x3EDA JUMP JUMPDEST PUSH1 0x40 DUP1 MLOAD PUSH1 0xFF SWAP4 DUP5 AND DUP2 MSTORE SWAP3 SWAP1 SWAP2 AND PUSH1 0x20 DUP4 ADD MSTORE ADD PUSH2 0x344 JUMP JUMPDEST PUSH1 0x17 SLOAD PUSH2 0x379 SWAP1 PUSH1 0x1 PUSH1 0x1 PUSH1 0xA0 SHL SUB AND DUP2 JUMP JUMPDEST PUSH2 0x4E8 PUSH2 0x6DA CALLDATASIZE PUSH1 0x4 PUSH2 0x50DB JUMP JUMPDEST PUSH2 0x3F71 JUMP JUMPDEST PUSH2 0x3F0 PUSH2 0x6ED CALLDATASIZE PUSH1 0x4 PUSH2 0x5105 JUMP JUMPDEST PUSH2 0x3FB8 JUMP JUMPDEST PUSH2 0x705 PUSH2 0x700 CALLDATASIZE PUSH1 0x4 PUSH2 0x4F96 JUMP JUMPDEST PUSH2 0x3FF4 JUMP JUMPDEST PUSH1 0x40 MLOAD PUSH2 0x344 SWAP6 SWAP5 SWAP4 SWAP3 SWAP2 SWAP1 PUSH2 0x5127 JUMP JUMPDEST PUSH2 0x358 PUSH4 0x5F5E100 DUP2 JUMP JUMPDEST PUSH2 0x3F0 PUSH1 0x1E DUP2 JUMP JUMPDEST PUSH2 0x337 PUSH2 0x737 CALLDATASIZE PUSH1 0x4 PUSH2 0x4E39 JUMP JUMPDEST PUSH2 0x40B7 JUMP JUMPDEST PUSH2 0x322 PUSH2 0x74A CALLDATASIZE PUSH1 0x4 PUSH2 0x5169 JUMP JUMPDEST PUSH2 0x4162 JUMP JUMPDEST PUSH2 0x757 PUSH2 0x47E6 JUMP JUMPDEST DUP1 ISZERO DUP1 ISZERO SWAP1 PUSH2 0x767 JUMPI POP PUSH1 0x40 DUP2 GT ISZERO JUMPDEST PUSH2 0x7B8 JUMPI PUSH1 0x40 MLOAD PUSH3 0x461BCD PUSH1 0xE5 SHL DUP2 MSTORE PUSH1 0x20 PUSH1 0x4 DUP3 ADD MSTORE PUSH1 0xF PUSH1 0x24 DUP3 ADD MSTORE PUSH32 0x426164206E616D65206C656E6774680000000000000000000000000000000000 PUSH1 0x44 DUP3 ADD MSTORE PUSH1 0x64 ADD JUMPDEST PUSH1 0x40 MLOAD DUP1 SWAP2 SUB SWAP1 REVERT JUMPDEST PUSH1 0x15 SLOAD PUSH1 0x40 MLOAD PUSH4 0x8A888953 PUSH1 0xE0 SHL DUP2 MSTORE PUSH1 0xFF DUP1 DUP8 AND PUSH1 0x4 DUP4 ADD MSTORE DUP6 AND PUSH1 0x24 DUP3 ADD MSTORE CALLER SWAP2 PUSH1 0x1 PUSH1 0x1 PUSH1 0xA0 SHL SUB AND SWAP1 PUSH4 0x8A888953 SWAP1 PUSH1 0x44 ADD PUSH1 0x20 PUSH1 0x40 MLOAD DUP1 DUP4 SUB DUP2 DUP7 GAS STATICCALL ISZERO DUP1 ISZERO PUSH2 0x80B JUMPI RETURNDATASIZE PUSH1 0x0 DUP1 RETURNDATACOPY RETURNDATASIZE PUSH1 0x0 REVERT JUMPDEST POP POP POP POP PUSH1 0x40 MLOAD RETURNDATASIZE PUSH1 0x1F NOT PUSH1 0x1F DUP3 ADD AND DUP3 ADD DUP1 PUSH1 0x40 MSTORE POP DUP2 ADD SWAP1 PUSH2 0x82F SWAP2 SWAP1 PUSH2 0x51BF JUMP JUMPDEST PUSH1 0x1 PUSH1 0x1 PUSH1 0xA0 SHL SUB AND EQ PUSH2 0x885 JUMPI PUSH1 0x40 MLOAD PUSH3 0x461BCD PUSH1 0xE5 SHL DUP2 MSTORE PUSH1 0x20 PUSH1 0x4 DUP3 ADD MSTORE PUSH1 0xE PUSH1 0x24 DUP3 ADD MSTORE PUSH32 0x4E6F742074696C65206F776E6572000000000000000000000000000000000000 PUSH1 0x44 DUP3 ADD MSTORE PUSH1 0x64 ADD PUSH2 0x7AF JUMP JUMPDEST PUSH1 0x16 SLOAD PUSH1 0x40 MLOAD PUSH32 0x23B872DD00000000000000000000000000000000000000000000000000000000 DUP2 MSTORE CALLER PUSH1 0x4 DUP3 ADD MSTORE ADDRESS PUSH1 0x24 DUP3 ADD MSTORE PUSH5 0x2540BE400 PUSH1 0x44 DUP3 ADD MSTORE PUSH1 0x1 PUSH1 0x1 PUSH1 0xA0 SHL SUB SWAP1 SWAP2 AND SWAP1 PUSH4 0x23B872DD SWAP1 PUSH1 0x64 ADD PUSH1 0x20 PUSH1 0x40 MLOAD DUP1 DUP4 SUB DUP2 PUSH1 0x0 DUP8 GAS CALL ISZERO DUP1 ISZERO PUSH2 0x8F9 JUMPI RETURNDATASIZE PUSH1 0x0 DUP1 RETURNDATACOPY RETURNDATASIZE PUSH1 0x0 REVERT JUMPDEST POP POP POP POP PUSH1 0x40 MLOAD RETURNDATASIZE PUSH1 0x1F NOT PUSH1 0x1F DUP3 ADD AND DUP3 ADD DUP1 PUSH1 0x40 MSTORE POP DUP2 ADD SWAP1 PUSH2 0x91D SWAP2 SWAP1 PUSH2 0x51DC JUMP JUMPDEST PUSH2 0x969 JUMPI PUSH1 0x40 MLOAD PUSH3 0x461BCD PUSH1 0xE5 SHL DUP2 MSTORE PUSH1 0x20 PUSH1 0x4 DUP3 ADD MSTORE PUSH1 0x14 PUSH1 0x24 DUP3 ADD MSTORE PUSH32 0x546F6B656E207061796D656E74206661696C6564000000000000000000000000 PUSH1 0x44 DUP3 ADD MSTORE PUSH1 0x64 ADD PUSH2 0x7AF JUMP JUMPDEST PUSH1 0x16 SLOAD PUSH1 0x40 MLOAD PUSH32 0x42966C6800000000000000000000000000000000000000000000000000000000 DUP2 MSTORE PUSH5 0x2540BE400 PUSH1 0x4 DUP3 ADD MSTORE PUSH1 0x1 PUSH1 0x1 PUSH1 0xA0 SHL SUB SWAP1 SWAP2 AND SWAP1 PUSH4 0x42966C68 SWAP1 PUSH1 0x24 ADD PUSH1 0x20 PUSH1 0x40 MLOAD DUP1 DUP4 SUB DUP2 PUSH1 0x0 DUP8 GAS CALL ISZERO DUP1 ISZERO PUSH2 0x9D1 JUMPI RETURNDATASIZE PUSH1 0x0 DUP1 RETURNDATACOPY RETURNDATASIZE PUSH1 0x0 REVERT JUMPDEST POP POP POP POP PUSH1 0x40 MLOAD RETURNDATASIZE PUSH1 0x1F NOT PUSH1 0x1F DUP3 ADD AND DUP3 ADD DUP1 PUSH1 0x40 MSTORE POP DUP2 ADD SWAP1 PUSH2 0x9F5 SWAP2 SWAP1 PUSH2 0x51DC JUMP JUMPDEST PUSH2 0xA41 JUMPI PUSH1 0x40 MLOAD PUSH3 0x461BCD PUSH1 0xE5 SHL DUP2 MSTORE PUSH1 0x20 PUSH1 0x4 DUP3 ADD MSTORE PUSH1 0xB PUSH1 0x24 DUP3 ADD MSTORE PUSH32 0x4275726E206661696C6564000000000000000000000000000000000000000000 PUSH1 0x44 DUP3 ADD MSTORE PUSH1 0x64 ADD PUSH2 0x7AF JUMP JUMPDEST PUSH1 0xFF DUP1 DUP6 AND PUSH1 0x0 SWAP1 DUP2 MSTORE PUSH1 0x1F PUSH1 0x20 SWAP1 DUP2 MSTORE PUSH1 0x40 DUP1 DUP4 KECCAK256 SWAP4 DUP8 AND DUP4 MSTORE SWAP3 SWAP1 MSTORE KECCAK256 PUSH2 0xA6B DUP3 DUP5 DUP4 PUSH2 0x52CE JUMP JUMPDEST POP PUSH2 0xA76 PUSH1 0x1 PUSH1 0x0 SSTORE JUMP JUMPDEST POP POP POP POP JUMP JUMPDEST PUSH1 0xFF DUP1 DUP4 AND PUSH1 0x0 SWAP1 DUP2 MSTORE PUSH1 0x1F PUSH1 0x20 SWAP1 DUP2 MSTORE PUSH1 0x40 DUP1 DUP4 KECCAK256 SWAP4 DUP6 AND DUP4 MSTORE SWAP3 SWAP1 MSTORE KECCAK256 DUP1 SLOAD PUSH1 0x60 SWAP2 SWAP1 PUSH2 0xAAA SWAP1 PUSH2 0x522D JUMP JUMPDEST DUP1 PUSH1 0x1F ADD PUSH1 0x20 DUP1 SWAP2 DIV MUL PUSH1 0x20 ADD PUSH1 0x40 MLOAD SWAP1 DUP2 ADD PUSH1 0x40 MSTORE DUP1 SWAP3 SWAP2 SWAP1 DUP2 DUP2 MSTORE PUSH1 0x20 ADD DUP3 DUP1 SLOAD PUSH2 0xAD6 SWAP1 PUSH2 0x522D JUMP JUMPDEST DUP1 ISZERO PUSH2 0xB23 JUMPI DUP1 PUSH1 0x1F LT PUSH2 0xAF8 JUMPI PUSH2 0x100 DUP1 DUP4 SLOAD DIV MUL DUP4 MSTORE SWAP2 PUSH1 0x20 ADD SWAP2 PUSH2 0xB23 JUMP JUMPDEST DUP3 ADD SWAP2 SWAP1 PUSH1 0x0 MSTORE PUSH1 0x20 PUSH1 0x0 KECCAK256 SWAP1 JUMPDEST DUP2 SLOAD DUP2 MSTORE SWAP1 PUSH1 0x1 ADD SWAP1 PUSH1 0x20 ADD DUP1 DUP4 GT PUSH2 0xB06 JUMPI DUP3 SWAP1 SUB PUSH1 0x1F AND DUP3 ADD SWAP2 JUMPDEST POP POP POP POP POP SWAP1 POP JUMPDEST SWAP3 SWAP2 POP POP JUMP JUMPDEST PUSH1 0x20 DUP1 MSTORE PUSH1 0x0 SWAP1 DUP2 MSTORE PUSH1 0x40 SWAP1 KECCAK256 DUP1 SLOAD PUSH2 0xB49 SWAP1 PUSH2 0x522D JUMP JUMPDEST DUP1 PUSH1 0x1F ADD PUSH1 0x20 DUP1 SWAP2 DIV MUL PUSH1 0x20 ADD PUSH1 0x40 MLOAD SWAP1 DUP2 ADD PUSH1 0x40 MSTORE DUP1 SWAP3 SWAP2 SWAP1 DUP2 DUP2 MSTORE PUSH1 0x20 ADD DUP3 DUP1 SLOAD PUSH2 0xB75 SWAP1 PUSH2 0x522D JUMP JUMPDEST DUP1 ISZERO PUSH2 0xBC2 JUMPI DUP1 PUSH1 0x1F LT PUSH2 0xB97 JUMPI PUSH2 0x100 DUP1 DUP4 SLOAD DIV MUL DUP4 MSTORE SWAP2 PUSH1 0x20 ADD SWAP2 PUSH2 0xBC2 JUMP JUMPDEST DUP3 ADD SWAP2 SWAP1 PUSH1 0x0 MSTORE PUSH1 0x20 PUSH1 0x0 KECCAK256 SWAP1 JUMPDEST DUP2 SLOAD DUP2 MSTORE SWAP1 PUSH1 0x1 ADD SWAP1 PUSH1 0x20 ADD DUP1 DUP4 GT PUSH2 0xBA5 JUMPI DUP3 SWAP1 SUB PUSH1 0x1F AND DUP3 ADD SWAP2 JUMPDEST POP POP POP POP POP DUP2 JUMP JUMPDEST PUSH2 0xBD2 PUSH2 0x47E6 JUMP JUMPDEST PUSH2 0xFFFF DUP6 AND PUSH1 0x0 SWAP1 DUP2 MSTORE PUSH1 0x1B PUSH1 0x20 MSTORE PUSH1 0x40 SWAP1 KECCAK256 PUSH1 0x1 ADD SLOAD DUP6 SWAP1 DUP6 SWAP1 DUP6 SWAP1 PUSH4 0x1000000 SWAP1 DIV PUSH1 0xFF AND PUSH2 0xC45 JUMPI PUSH1 0x40 MLOAD PUSH3 0x461BCD PUSH1 0xE5 SHL DUP2 MSTORE PUSH1 0x20 PUSH1 0x4 DUP3 ADD MSTORE PUSH1 0x13 PUSH1 0x24 DUP3 ADD MSTORE PUSH32 0x436C616E20646F6573206E6F7420657869737400000000000000000000000000 PUSH1 0x44 DUP3 ADD MSTORE PUSH1 0x64 ADD PUSH2 0x7AF JUMP JUMPDEST PUSH2 0xFFFF DUP4 AND PUSH1 0x0 SWAP1 DUP2 MSTORE PUSH1 0x1B PUSH1 0x20 MSTORE PUSH1 0x40 SWAP1 KECCAK256 PUSH1 0x1 ADD SLOAD PUSH1 0xFF DUP4 DUP2 AND SWAP2 AND EQ DUP1 ISZERO PUSH2 0xC90 JUMPI POP PUSH2 0xFFFF DUP4 AND PUSH1 0x0 SWAP1 DUP2 MSTORE PUSH1 0x1B PUSH1 0x20 MSTORE PUSH1 0x40 SWAP1 KECCAK256 PUSH1 0x1 ADD SLOAD PUSH1 0xFF DUP3 DUP2 AND PUSH2 0x100 SWAP1 SWAP3 DIV AND EQ JUMPDEST PUSH2 0xCDC JUMPI PUSH1 0x40 MLOAD PUSH3 0x461BCD PUSH1 0xE5 SHL DUP2 MSTORE PUSH1 0x20 PUSH1 0x4 DUP3 ADD MSTORE PUSH1 0xF PUSH1 0x24 DUP3 ADD MSTORE PUSH32 0x4E6F74206C65616465722074696C650000000000000000000000000000000000 PUSH1 0x44 DUP3 ADD MSTORE PUSH1 0x64 ADD PUSH2 0x7AF JUMP JUMPDEST PUSH1 0x15 SLOAD PUSH1 0x40 MLOAD PUSH4 0x8A888953 PUSH1 0xE0 SHL DUP2 MSTORE PUSH1 0xFF DUP1 DUP6 AND PUSH1 0x4 DUP4 ADD MSTORE DUP4 AND PUSH1 0x24 DUP3 ADD MSTORE CALLER SWAP2 PUSH1 0x1 PUSH1 0x1 PUSH1 0xA0 SHL SUB AND SWAP1 PUSH4 0x8A888953 SWAP1 PUSH1 0x44 ADD PUSH1 0x20 PUSH1 0x40 MLOAD DUP1 DUP4 SUB DUP2 DUP7 GAS STATICCALL ISZERO DUP1 ISZERO PUSH2 0xD2F JUMPI RETURNDATASIZE PUSH1 0x0 DUP1 RETURNDATACOPY RETURNDATASIZE PUSH1 0x0 REVERT JUMPDEST POP POP POP POP PUSH1 0x40 MLOAD RETURNDATASIZE PUSH1 0x1F NOT PUSH1 0x1F DUP3 ADD AND DUP3 ADD DUP1 PUSH1 0x40 MSTORE POP DUP2 ADD SWAP1 PUSH2 0xD53 SWAP2 SWAP1 PUSH2 0x51BF JUMP JUMPDEST PUSH1 0x1 PUSH1 0x1 PUSH1 0xA0 SHL SUB AND EQ PUSH2 0xDA9 JUMPI PUSH1 0x40 MLOAD PUSH3 0x461BCD PUSH1 0xE5 SHL DUP2 MSTORE PUSH1 0x20 PUSH1 0x4 DUP3 ADD MSTORE PUSH1 0x1D PUSH1 0x24 DUP3 ADD MSTORE PUSH32 0x596F7520646F6E2774206F776E20746865206C65616465722074696C65000000 PUSH1 0x44 DUP3 ADD MSTORE PUSH1 0x64 ADD PUSH2 0x7AF JUMP JUMPDEST PUSH2 0xFFFF DUP9 AND PUSH1 0x0 SWAP1 DUP2 MSTORE PUSH1 0x1B PUSH1 0x20 MSTORE PUSH1 0x40 SWAP1 KECCAK256 PUSH1 0x1 ADD SLOAD PUSH4 0x1000000 SWAP1 DIV PUSH1 0xFF AND PUSH2 0xE16 JUMPI PUSH1 0x40 MLOAD PUSH3 0x461BCD PUSH1 0xE5 SHL DUP2 MSTORE PUSH1 0x20 PUSH1 0x4 DUP3 ADD MSTORE PUSH1 0x13 PUSH1 0x24 DUP3 ADD MSTORE PUSH32 0x436C616E20646F6573206E6F7420657869737400000000000000000000000000 PUSH1 0x44 DUP3 ADD MSTORE PUSH1 0x64 ADD PUSH2 0x7AF JUMP JUMPDEST PUSH2 0xFFFF DUP9 AND PUSH1 0x0 SWAP1 DUP2 MSTORE PUSH1 0x1B PUSH1 0x20 MSTORE PUSH1 0x40 SWAP1 KECCAK256 PUSH1 0x1 ADD SLOAD PUSH1 0x1E PUSH3 0x10000 SWAP1 SWAP2 DIV PUSH1 0xFF AND LT PUSH2 0xE86 JUMPI PUSH1 0x40 MLOAD PUSH3 0x461BCD PUSH1 0xE5 SHL DUP2 MSTORE PUSH1 0x20 PUSH1 0x4 DUP3 ADD MSTORE PUSH1 0xC PUSH1 0x24 DUP3 ADD MSTORE PUSH32 0x436C616E2069732066756C6C0000000000000000000000000000000000000000 PUSH1 0x44 DUP3 ADD MSTORE PUSH1 0x64 ADD PUSH2 0x7AF JUMP JUMPDEST PUSH1 0x17 SLOAD PUSH1 0x40 MLOAD PUSH32 0x1ACC55EA00000000000000000000000000000000000000000000000000000000 DUP2 MSTORE PUSH1 0xFF DUP1 DUP11 AND PUSH1 0x4 DUP4 ADD MSTORE DUP9 AND PUSH1 0x24 DUP3 ADD MSTORE PUSH1 0x1 PUSH1 0x1 PUSH1 0xA0 SHL SUB SWAP1 SWAP2 AND SWAP1 PUSH4 0x1ACC55EA SWAP1 PUSH1 0x44 ADD PUSH1 0x20 PUSH1 0x40 MLOAD DUP1 DUP4 SUB DUP2 DUP7 GAS STATICCALL ISZERO DUP1 ISZERO PUSH2 0xEF2 JUMPI RETURNDATASIZE PUSH1 0x0 DUP1 RETURNDATACOPY RETURNDATASIZE PUSH1 0x0 REVERT JUMPDEST POP POP POP POP PUSH1 0x40 MLOAD RETURNDATASIZE PUSH1 0x1F NOT PUSH1 0x1F DUP3 ADD AND DUP3 ADD DUP1 PUSH1 0x40 MSTORE POP DUP2 ADD SWAP1 PUSH2 0xF16 SWAP2 SWAP1 PUSH2 0x51DC JUMP JUMPDEST PUSH2 0xF62 JUMPI PUSH1 0x40 MLOAD PUSH3 0x461BCD PUSH1 0xE5 SHL DUP2 MSTORE PUSH1 0x20 PUSH1 0x4 DUP3 ADD MSTORE PUSH1 0x19 PUSH1 0x24 DUP3 ADD MSTORE PUSH32 0x596F75206D7573742068617665206120436C616E2048616C6C00000000000000 PUSH1 0x44 DUP3 ADD MSTORE PUSH1 0x64 ADD PUSH2 0x7AF JUMP JUMPDEST PUSH1 0x15 SLOAD PUSH1 0x40 MLOAD PUSH4 0x8A888953 PUSH1 0xE0 SHL DUP2 MSTORE PUSH1 0xFF DUP1 DUP9 AND PUSH1 0x4 DUP4 ADD MSTORE DUP7 AND PUSH1 0x24 DUP3 ADD MSTORE PUSH1 0x0 SWAP2 PUSH1 0x1 PUSH1 0x1 PUSH1 0xA0 SHL SUB AND SWAP1 PUSH4 0x8A888953 SWAP1 PUSH1 0x44 ADD PUSH1 0x20 PUSH1 0x40 MLOAD DUP1 DUP4 SUB DUP2 DUP7 GAS STATICCALL ISZERO DUP1 ISZERO PUSH2 0xFB6 JUMPI RETURNDATASIZE PUSH1 0x0 DUP1 RETURNDATACOPY RETURNDATASIZE PUSH1 0x0 REVERT JUMPDEST POP POP POP POP PUSH1 0x40 MLOAD RETURNDATASIZE PUSH1 0x1F NOT PUSH1 0x1F DUP3 ADD AND DUP3 ADD DUP1 PUSH1 0x40 MSTORE POP DUP2 ADD SWAP1 PUSH2 0xFDA SWAP2 SWAP1 PUSH2 0x51BF JUMP JUMPDEST SWAP1 POP PUSH1 0x1 PUSH1 0x1 PUSH1 0xA0 SHL SUB DUP2 AND PUSH2 0x1032 JUMPI PUSH1 0x40 MLOAD PUSH3 0x461BCD PUSH1 0xE5 SHL DUP2 MSTORE PUSH1 0x20 PUSH1 0x4 DUP3 ADD MSTORE PUSH1 0x13 PUSH1 0x24 DUP3 ADD MSTORE PUSH32 0x5461726765742074696C6520756E6F776E656400000000000000000000000000 PUSH1 0x44 DUP3 ADD MSTORE PUSH1 0x64 ADD PUSH2 0x7AF JUMP JUMPDEST PUSH1 0xFF DUP1 DUP8 AND PUSH1 0x0 SWAP1 DUP2 MSTORE PUSH1 0x21 PUSH1 0x20 SWAP1 DUP2 MSTORE PUSH1 0x40 DUP1 DUP4 KECCAK256 SWAP4 DUP10 AND DUP4 MSTORE SWAP3 SWAP1 MSTORE KECCAK256 SLOAD PUSH2 0xFFFF AND ISZERO PUSH2 0x10A3 JUMPI PUSH1 0x40 MLOAD PUSH3 0x461BCD PUSH1 0xE5 SHL DUP2 MSTORE PUSH1 0x20 PUSH1 0x4 DUP3 ADD MSTORE PUSH1 0x1D PUSH1 0x24 DUP3 ADD MSTORE PUSH32 0x5461726765742074696C6520616C726561647920696E206120636C616E000000 PUSH1 0x44 DUP3 ADD MSTORE PUSH1 0x64 ADD PUSH2 0x7AF JUMP JUMPDEST POP POP POP POP PUSH2 0xFF00 PUSH1 0x8 DUP4 SWAP1 SHL AND PUSH1 0xFF DUP3 AND OR PUSH1 0x0 SWAP1 DUP2 MSTORE PUSH1 0x1E PUSH1 0x20 MSTORE PUSH1 0x40 DUP2 KECCAK256 DUP1 SLOAD PUSH2 0xFFFF NOT AND PUSH2 0xFFFF DUP9 AND OR SWAP1 SSTORE PUSH1 0x1 SWAP1 SSTORE JUMPDEST POP POP POP POP POP JUMP JUMPDEST PUSH2 0x10E6 PUSH2 0x47E6 JUMP JUMPDEST PUSH1 0x15 SLOAD PUSH1 0x40 MLOAD PUSH4 0x8A888953 PUSH1 0xE0 SHL DUP2 MSTORE PUSH1 0xFF DUP1 DUP6 AND PUSH1 0x4 DUP4 ADD MSTORE DUP4 AND PUSH1 0x24 DUP3 ADD MSTORE DUP4 SWAP2 DUP4 SWAP2 CALLER SWAP2 PUSH1 0x1 PUSH1 0x1 PUSH1 0xA0 SHL SUB AND SWAP1 PUSH4 0x8A888953 SWAP1 PUSH1 0x44 ADD PUSH1 0x20 PUSH1 0x40 MLOAD DUP1 DUP4 SUB DUP2 DUP7 GAS STATICCALL ISZERO DUP1 ISZERO PUSH2 0x113D JUMPI RETURNDATASIZE PUSH1 0x0 DUP1 RETURNDATACOPY RETURNDATASIZE PUSH1 0x0 REVERT JUMPDEST POP POP POP POP PUSH1 0x40 MLOAD RETURNDATASIZE PUSH1 0x1F NOT PUSH1 0x1F DUP3 ADD AND DUP3 ADD DUP1 PUSH1 0x40 MSTORE POP DUP2 ADD SWAP1 PUSH2 0x1161 SWAP2 SWAP1 PUSH2 0x51BF JUMP JUMPDEST PUSH1 0x1 PUSH1 0x1 PUSH1 0xA0 SHL SUB AND EQ PUSH2 0x11B7 JUMPI PUSH1 0x40 MLOAD PUSH3 0x461BCD PUSH1 0xE5 SHL DUP2 MSTORE PUSH1 0x20 PUSH1 0x4 DUP3 ADD MSTORE PUSH1 0x18 PUSH1 0x24 DUP3 ADD MSTORE PUSH32 0x596F7520646F206E6F74206F776E20746869732074696C650000000000000000 PUSH1 0x44 DUP3 ADD MSTORE PUSH1 0x64 ADD PUSH2 0x7AF JUMP JUMPDEST PUSH1 0xFF DUP4 DUP2 AND PUSH1 0x8 DUP7 SWAP1 SHL PUSH2 0xFF00 AND OR PUSH1 0x0 DUP2 DUP2 MSTORE PUSH1 0x1C PUSH1 0x20 MSTORE PUSH1 0x40 SWAP1 KECCAK256 SLOAD SWAP1 SWAP2 PUSH3 0x10000 SWAP1 SWAP2 DIV AND PUSH2 0x122B JUMPI PUSH1 0x40 MLOAD PUSH3 0x461BCD PUSH1 0xE5 SHL DUP2 MSTORE PUSH1 0x20 PUSH1 0x4 DUP3 ADD MSTORE PUSH1 0x12 PUSH1 0x24 DUP3 ADD MSTORE PUSH32 0x54696C65206E6F7420696E206120636C616E0000000000000000000000000000 PUSH1 0x44 DUP3 ADD MSTORE PUSH1 0x64 ADD PUSH2 0x7AF JUMP JUMPDEST PUSH2 0xFFFF DUP2 DUP2 AND PUSH1 0x0 SWAP1 DUP2 MSTORE PUSH1 0x1C PUSH1 0x20 SWAP1 DUP2 MSTORE PUSH1 0x40 DUP1 DUP4 KECCAK256 SLOAD SWAP1 SWAP4 AND DUP1 DUP4 MSTORE PUSH1 0x1B SWAP1 SWAP2 MSTORE SWAP2 SWAP1 KECCAK256 PUSH1 0x1 ADD SLOAD PUSH4 0x1000000 SWAP1 DIV PUSH1 0xFF AND PUSH2 0x12AB JUMPI PUSH1 0x40 MLOAD PUSH3 0x461BCD PUSH1 0xE5 SHL DUP2 MSTORE PUSH1 0x20 PUSH1 0x4 DUP3 ADD MSTORE PUSH1 0x13 PUSH1 0x24 DUP3 ADD MSTORE PUSH32 0x436C616E20646F6573206E6F7420657869737400000000000000000000000000 PUSH1 0x44 DUP3 ADD MSTORE PUSH1 0x64 ADD PUSH2 0x7AF JUMP JUMPDEST PUSH2 0xFFFF DUP2 AND PUSH1 0x0 SWAP1 DUP2 MSTORE PUSH1 0x1B PUSH1 0x20 MSTORE PUSH1 0x40 SWAP1 KECCAK256 PUSH1 0x1 ADD SLOAD PUSH1 0xFF DUP8 DUP2 AND SWAP2 AND EQ DUP1 ISZERO PUSH2 0x12F6 JUMPI POP PUSH2 0xFFFF DUP2 AND PUSH1 0x0 SWAP1 DUP2 MSTORE PUSH1 0x1B PUSH1 0x20 MSTORE PUSH1 0x40 SWAP1 KECCAK256 PUSH1 0x1 ADD SLOAD PUSH1 0xFF DUP7 DUP2 AND PUSH2 0x100 SWAP1 SWAP3 DIV AND EQ JUMPDEST ISZERO PUSH2 0x1343 JUMPI PUSH1 0x40 MLOAD PUSH3 0x461BCD PUSH1 0xE5 SHL DUP2 MSTORE PUSH1 0x20 PUSH1 0x4 DUP3 ADD MSTORE PUSH1 0x18 PUSH1 0x24 DUP3 ADD MSTORE PUSH32 0x4C65616465722074696C652063616E6E6F74206C656176650000000000000000 PUSH1 0x44 DUP3 ADD MSTORE PUSH1 0x64 ADD PUSH2 0x7AF JUMP JUMPDEST PUSH1 0x16 SLOAD PUSH1 0x40 MLOAD PUSH32 0x23B872DD00000000000000000000000000000000000000000000000000000000 DUP2 MSTORE CALLER PUSH1 0x4 DUP3 ADD MSTORE ADDRESS PUSH1 0x24 DUP3 ADD MSTORE PUSH4 0x3B9ACA00 PUSH1 0x44 DUP3 ADD MSTORE PUSH1 0x1 PUSH1 0x1 PUSH1 0xA0 SHL SUB SWAP1 SWAP2 AND SWAP1 PUSH4 0x23B872DD SWAP1 PUSH1 0x64 ADD PUSH1 0x20 PUSH1 0x40 MLOAD DUP1 DUP4 SUB DUP2 PUSH1 0x0 DUP8 GAS CALL ISZERO DUP1 ISZERO PUSH2 0x13B6 JUMPI RETURNDATASIZE PUSH1 0x0 DUP1 RETURNDATACOPY RETURNDATASIZE PUSH1 0x0 REVERT JUMPDEST POP POP POP POP PUSH1 0x40 MLOAD RETURNDATASIZE PUSH1 0x1F NOT PUSH1 0x1F DUP3 ADD AND DUP3 ADD DUP1 PUSH1 0x40 MSTORE POP DUP2 ADD SWAP1 PUSH2 0x13DA SWAP2 SWAP1 PUSH2 0x51DC JUMP JUMPDEST PUSH2 0x1426 JUMPI PUSH1 0x40 MLOAD PUSH3 0x461BCD PUSH1 0xE5 SHL DUP2 MSTORE PUSH1 0x20 PUSH1 0x4 DUP3 ADD MSTORE PUSH1 0x13 PUSH1 0x24 DUP3 ADD MSTORE PUSH32 0x4C4F50207472616E73666572206661696C656400000000000000000000000000 PUSH1 0x44 DUP3 ADD MSTORE PUSH1 0x64 ADD PUSH2 0x7AF JUMP JUMPDEST PUSH2 0xFFFF DUP1 DUP4 AND PUSH1 0x0 SWAP1 DUP2 MSTORE PUSH1 0x1C PUSH1 0x20 SWAP1 DUP2 MSTORE PUSH1 0x40 DUP1 DUP4 KECCAK256 DUP1 SLOAD PUSH3 0xFF0000 NOT AND SWAP1 SSTORE PUSH1 0xFF DUP11 DUP2 AND DUP5 MSTORE PUSH1 0x21 DUP4 MSTORE DUP2 DUP5 KECCAK256 DUP11 DUP3 AND DUP6 MSTORE DUP4 MSTORE DUP2 DUP5 KECCAK256 DUP1 SLOAD PUSH2 0xFFFF NOT AND SWAP1 SSTORE SWAP4 DUP6 AND DUP4 MSTORE PUSH1 0x1B SWAP1 SWAP2 MSTORE SWAP1 KECCAK256 PUSH1 0x1 SWAP1 DUP2 ADD SLOAD PUSH3 0x10000 SWAP1 DIV SWAP1 SWAP2 AND LT ISZERO PUSH2 0x14AF JUMPI PUSH2 0xFFFF DUP2 AND PUSH1 0x0 SWAP1 DUP2 MSTORE PUSH1 0x1B PUSH1 0x20 MSTORE PUSH1 0x40 SWAP1 KECCAK256 PUSH1 0x1 ADD DUP1 SLOAD PUSH3 0xFF0000 NOT AND PUSH3 0x10000 OR SWAP1 SSTORE JUMPDEST PUSH2 0xFFFF DUP2 AND PUSH1 0x0 SWAP1 DUP2 MSTORE PUSH1 0x1B PUSH1 0x20 MSTORE PUSH1 0x40 SWAP1 KECCAK256 PUSH1 0x1 ADD DUP1 SLOAD PUSH3 0x10000 SWAP1 DIV PUSH1 0xFF AND SWAP1 PUSH1 0x2 PUSH2 0x14DC DUP4 PUSH2 0x53BD JUMP JUMPDEST DUP3 SLOAD PUSH1 0xFF SWAP2 DUP3 AND PUSH2 0x100 SWAP4 SWAP1 SWAP4 EXP SWAP3 DUP4 MUL SWAP2 SWAP1 SWAP3 MUL NOT SWAP1 SWAP2 AND OR SWAP1 SSTORE POP PUSH2 0xFFFF DUP2 AND PUSH1 0x0 SWAP1 DUP2 MSTORE PUSH1 0x1D PUSH1 0x20 MSTORE PUSH1 0x40 DUP2 KECCAK256 SWAP1 JUMPDEST DUP2 SLOAD DUP2 LT ISZERO PUSH2 0x162D JUMPI DUP4 PUSH2 0xFFFF AND DUP3 DUP3 DUP2 SLOAD DUP2 LT PUSH2 0x152E JUMPI PUSH2 0x152E PUSH2 0x53DA JUMP JUMPDEST PUSH1 0x0 SWAP2 DUP3 MSTORE PUSH1 0x20 SWAP1 SWAP2 KECCAK256 PUSH1 0x10 DUP3 DIV ADD SLOAD PUSH1 0xF SWAP1 SWAP2 AND PUSH1 0x2 MUL PUSH2 0x100 EXP SWAP1 DIV PUSH2 0xFFFF AND SUB PUSH2 0x161B JUMPI DUP2 SLOAD DUP3 SWAP1 PUSH2 0x1565 SWAP1 PUSH1 0x1 SWAP1 PUSH2 0x5409 JUMP JUMPDEST DUP2 SLOAD DUP2 LT PUSH2 0x1575 JUMPI PUSH2 0x1575 PUSH2 0x53DA JUMP JUMPDEST SWAP1 PUSH1 0x0 MSTORE PUSH1 0x20 PUSH1 0x0 KECCAK256 SWAP1 PUSH1 0x10 SWAP2 DUP3 DUP3 DIV ADD SWAP2 SWAP1 MOD PUSH1 0x2 MUL SWAP1 SLOAD SWAP1 PUSH2 0x100 EXP SWAP1 DIV PUSH2 0xFFFF AND DUP3 DUP3 DUP2 SLOAD DUP2 LT PUSH2 0x15AB JUMPI PUSH2 0x15AB PUSH2 0x53DA JUMP JUMPDEST SWAP1 PUSH1 0x0 MSTORE PUSH1 0x20 PUSH1 0x0 KECCAK256 SWAP1 PUSH1 0x10 SWAP2 DUP3 DUP3 DIV ADD SWAP2 SWAP1 MOD PUSH1 0x2 MUL PUSH2 0x100 EXP DUP2 SLOAD DUP2 PUSH2 0xFFFF MUL NOT AND SWAP1 DUP4 PUSH2 0xFFFF AND MUL OR SWAP1 SSTORE POP DUP2 DUP1 SLOAD DUP1 PUSH2 0x15EA JUMPI PUSH2 0x15EA PUSH2 0x541C JUMP JUMPDEST PUSH1 0x0 DUP3 DUP2 MSTORE PUSH1 0x20 SWAP1 KECCAK256 PUSH1 0x10 PUSH1 0x0 NOT SWAP1 SWAP3 ADD SWAP2 DUP3 DIV ADD DUP1 SLOAD PUSH2 0xFFFF PUSH1 0x2 PUSH1 0xF DUP6 AND MUL PUSH2 0x100 EXP MUL NOT AND SWAP1 SSTORE SWAP1 SSTORE PUSH2 0x162D JUMP JUMPDEST DUP1 PUSH2 0x1625 DUP2 PUSH2 0x544B JUMP JUMPDEST SWAP2 POP POP PUSH2 0x150E JUMP JUMPDEST POP PUSH1 0x15 SLOAD PUSH2 0xFFFF DUP4 AND PUSH1 0x0 SWAP1 DUP2 MSTORE PUSH1 0x1B PUSH1 0x20 MSTORE PUSH1 0x40 DUP1 DUP3 KECCAK256 PUSH1 0x1 ADD SLOAD SWAP1 MLOAD PUSH4 0x8A888953 PUSH1 0xE0 SHL DUP2 MSTORE PUSH1 0xFF DUP1 DUP4 AND PUSH1 0x4 DUP4 ADD MSTORE PUSH2 0x100 SWAP1 SWAP3 DIV SWAP1 SWAP2 AND PUSH1 0x24 DUP3 ADD MSTORE SWAP1 SWAP2 PUSH1 0x1 PUSH1 0x1 PUSH1 0xA0 SHL SUB AND SWAP1 PUSH4 0x8A888953 SWAP1 PUSH1 0x44 ADD PUSH1 0x20 PUSH1 0x40 MLOAD DUP1 DUP4 SUB DUP2 DUP7 GAS STATICCALL ISZERO DUP1 ISZERO PUSH2 0x169F JUMPI RETURNDATASIZE PUSH1 0x0 DUP1 RETURNDATACOPY RETURNDATASIZE PUSH1 0x0 REVERT JUMPDEST POP POP POP POP PUSH1 0x40 MLOAD RETURNDATASIZE PUSH1 0x1F NOT PUSH1 0x1F DUP3 ADD AND DUP3 ADD DUP1 PUSH1 0x40 MSTORE POP DUP2 ADD SWAP1 PUSH2 0x16C3 SWAP2 SWAP1 PUSH2 0x51BF JUMP JUMPDEST PUSH1 0x16 SLOAD PUSH1 0x40 MLOAD PUSH32 0xA9059CBB00000000000000000000000000000000000000000000000000000000 DUP2 MSTORE PUSH1 0x1 PUSH1 0x1 PUSH1 0xA0 SHL SUB DUP1 DUP5 AND PUSH1 0x4 DUP4 ADD MSTORE PUSH4 0x35A4E900 PUSH1 0x24 DUP4 ADD MSTORE SWAP3 SWAP4 POP SWAP2 AND SWAP1 PUSH4 0xA9059CBB SWAP1 PUSH1 0x44 ADD PUSH1 0x20 PUSH1 0x40 MLOAD DUP1 DUP4 SUB DUP2 PUSH1 0x0 DUP8 GAS CALL ISZERO DUP1 ISZERO PUSH2 0x1734 JUMPI RETURNDATASIZE PUSH1 0x0 DUP1 RETURNDATACOPY RETURNDATASIZE PUSH1 0x0 REVERT JUMPDEST POP POP POP POP PUSH1 0x40 MLOAD RETURNDATASIZE PUSH1 0x1F NOT PUSH1 0x1F DUP3 ADD AND DUP3 ADD DUP1 PUSH1 0x40 MSTORE POP DUP2 ADD SWAP1 PUSH2 0x1758 SWAP2 SWAP1 PUSH2 0x51DC JUMP JUMPDEST PUSH2 0x17A4 JUMPI PUSH1 0x40 MLOAD PUSH3 0x461BCD PUSH1 0xE5 SHL DUP2 MSTORE PUSH1 0x20 PUSH1 0x4 DUP3 ADD MSTORE PUSH1 0x14 PUSH1 0x24 DUP3 ADD MSTORE PUSH32 0x4C6561646572207061796F7574206661696C6564000000000000000000000000 PUSH1 0x44 DUP3 ADD MSTORE PUSH1 0x64 ADD PUSH2 0x7AF JUMP JUMPDEST PUSH1 0x16 SLOAD PUSH1 0x40 MLOAD PUSH32 0x42966C6800000000000000000000000000000000000000000000000000000000 DUP2 MSTORE PUSH4 0x5F5E100 PUSH1 0x4 DUP3 ADD MSTORE PUSH1 0x1 PUSH1 0x1 PUSH1 0xA0 SHL SUB SWAP1 SWAP2 AND SWAP1 PUSH4 0x42966C68 SWAP1 PUSH1 0x24 ADD PUSH1 0x20 PUSH1 0x40 MLOAD DUP1 DUP4 SUB DUP2 PUSH1 0x0 DUP8 GAS CALL ISZERO DUP1 ISZERO PUSH2 0x180B JUMPI RETURNDATASIZE PUSH1 0x0 DUP1 RETURNDATACOPY RETURNDATASIZE PUSH1 0x0 REVERT JUMPDEST POP POP POP POP PUSH1 0x40 MLOAD RETURNDATASIZE PUSH1 0x1F NOT PUSH1 0x1F DUP3 ADD AND DUP3 ADD DUP1 PUSH1 0x40 MSTORE POP DUP2 ADD SWAP1 PUSH2 0x182F SWAP2 SWAP1 PUSH2 0x51DC JUMP JUMPDEST PUSH2 0x187B JUMPI PUSH1 0x40 MLOAD PUSH3 0x461BCD PUSH1 0xE5 SHL DUP2 MSTORE PUSH1 0x20 PUSH1 0x4 DUP3 ADD MSTORE PUSH1 0xB PUSH1 0x24 DUP3 ADD MSTORE PUSH32 0x4275726E206661696C6564000000000000000000000000000000000000000000 PUSH1 0x44 DUP3 ADD MSTORE PUSH1 0x64 ADD PUSH2 0x7AF JUMP JUMPDEST POP POP POP POP POP POP PUSH2 0x188B PUSH1 0x1 PUSH1 0x0 SSTORE JUMP JUMPDEST POP POP JUMP JUMPDEST PUSH1 0x0 PUSH1 0x14 DUP4 PUSH1 0xFF AND LT DUP1 ISZERO PUSH2 0x18A7 JUMPI POP PUSH1 0x14 DUP3 PUSH1 0xFF AND LT JUMPDEST PUSH2 0x18F3 JUMPI PUSH1 0x40 MLOAD PUSH3 0x461BCD PUSH1 0xE5 SHL DUP2 MSTORE PUSH1 0x20 PUSH1 0x4 DUP3 ADD MSTORE PUSH1 0x13 PUSH1 0x24 DUP3 ADD MSTORE PUSH32 0x496E76616C696420636F6F7264696E6174657300000000000000000000000000 PUSH1 0x44 DUP3 ADD MSTORE PUSH1 0x64 ADD PUSH2 0x7AF JUMP JUMPDEST PUSH1 0x1 DUP4 PUSH1 0xFF AND PUSH1 0x14 DUP2 LT PUSH2 0x1909 JUMPI PUSH2 0x1909 PUSH2 0x53DA JUMP JUMPDEST ADD DUP3 PUSH1 0xFF AND PUSH1 0x14 DUP2 LT PUSH2 0x191E JUMPI PUSH2 0x191E PUSH2 0x53DA JUMP JUMPDEST PUSH1 0x20 DUP2 DIV SWAP1 SWAP2 ADD SLOAD PUSH1 0xFF PUSH1 0x1F SWAP1 SWAP3 AND PUSH2 0x100 EXP SWAP1 DIV AND SWAP1 POP SWAP3 SWAP2 POP POP JUMP JUMPDEST PUSH1 0x60 PUSH1 0x0 DUP1 JUMPDEST PUSH1 0x14 DUP2 PUSH1 0xFF AND LT ISZERO PUSH2 0x19B9 JUMPI PUSH1 0x0 JUMPDEST PUSH1 0x14 DUP2 PUSH1 0xFF AND LT ISZERO PUSH2 0x19A6 JUMPI PUSH1 0xFF DUP1 DUP4 AND PUSH1 0x0 SWAP1 DUP2 MSTORE PUSH1 0x21 PUSH1 0x20 SWAP1 DUP2 MSTORE PUSH1 0x40 DUP1 DUP4 KECCAK256 SWAP4 DUP6 AND DUP4 MSTORE SWAP3 SWAP1 MSTORE KECCAK256 SLOAD PUSH2 0xFFFF AND ISZERO PUSH2 0x1994 JUMPI DUP3 PUSH2 0x1990 DUP2 PUSH2 0x544B JUMP JUMPDEST SWAP4 POP POP JUMPDEST DUP1 PUSH2 0x199E DUP2 PUSH2 0x5465 JUMP JUMPDEST SWAP2 POP POP PUSH2 0x1951 JUMP JUMPDEST POP DUP1 PUSH2 0x19B1 DUP2 PUSH2 0x5465 JUMP JUMPDEST SWAP2 POP POP PUSH2 0x1942 JUMP JUMPDEST POP PUSH1 0x0 DUP2 PUSH8 0xFFFFFFFFFFFFFFFF DUP2 GT ISZERO PUSH2 0x19D5 JUMPI PUSH2 0x19D5 PUSH2 0x51FE JUMP JUMPDEST PUSH1 0x40 MLOAD SWAP1 DUP1 DUP3 MSTORE DUP1 PUSH1 0x20 MUL PUSH1 0x20 ADD DUP3 ADD PUSH1 0x40 MSTORE DUP1 ISZERO PUSH2 0x1A27 JUMPI DUP2 PUSH1 0x20 ADD JUMPDEST PUSH1 0x40 DUP1 MLOAD PUSH1 0x80 DUP2 ADD DUP3 MSTORE PUSH1 0x0 DUP1 DUP3 MSTORE PUSH1 0x20 DUP1 DUP4 ADD DUP3 SWAP1 MSTORE SWAP3 DUP3 ADD DUP2 SWAP1 MSTORE PUSH1 0x60 DUP3 ADD MSTORE DUP3 MSTORE PUSH1 0x0 NOT SWAP1 SWAP3 ADD SWAP2 ADD DUP2 PUSH2 0x19F3 JUMPI SWAP1 POP JUMPDEST POP SWAP1 POP PUSH1 0x0 DUP1 JUMPDEST PUSH1 0x14 DUP2 PUSH1 0xFF AND LT ISZERO PUSH2 0x1B0B JUMPI PUSH1 0x0 JUMPDEST PUSH1 0x14 DUP2 PUSH1 0xFF AND LT ISZERO PUSH2 0x1AF8 JUMPI PUSH1 0xFF DUP1 DUP4 AND PUSH1 0x0 SWAP1 DUP2 MSTORE PUSH1 0x21 PUSH1 0x20 SWAP1 DUP2 MSTORE PUSH1 0x40 DUP1 DUP4 KECCAK256 SWAP4 DUP6 AND DUP4 MSTORE SWAP3 SWAP1 MSTORE KECCAK256 SLOAD PUSH2 0xFFFF AND DUP1 ISZERO PUSH2 0x1AE5 JUMPI PUSH1 0x40 MLOAD DUP1 PUSH1 0x80 ADD PUSH1 0x40 MSTORE DUP1 DUP5 PUSH1 0xFF AND DUP2 MSTORE PUSH1 0x20 ADD DUP4 PUSH1 0xFF AND DUP2 MSTORE PUSH1 0x20 ADD DUP3 PUSH2 0xFFFF AND DUP2 MSTORE PUSH1 0x20 ADD PUSH1 0x23 PUSH1 0x0 DUP5 PUSH2 0xFFFF AND PUSH2 0xFFFF AND DUP2 MSTORE PUSH1 0x20 ADD SWAP1 DUP2 MSTORE PUSH1 0x20 ADD PUSH1 0x0 KECCAK256 SLOAD DUP2 MSTORE POP DUP6 DUP6 DUP2 MLOAD DUP2 LT PUSH2 0x1ACB JUMPI PUSH2 0x1ACB PUSH2 0x53DA JUMP JUMPDEST PUSH1 0x20 MUL PUSH1 0x20 ADD ADD DUP2 SWAP1 MSTORE POP DUP4 DUP1 PUSH2 0x1AE1 SWAP1 PUSH2 0x544B JUMP JUMPDEST SWAP5 POP POP JUMPDEST POP DUP1 PUSH2 0x1AF0 DUP2 PUSH2 0x5465 JUMP JUMPDEST SWAP2 POP POP PUSH2 0x1A3D JUMP JUMPDEST POP DUP1 PUSH2 0x1B03 DUP2 PUSH2 0x5465 JUMP JUMPDEST SWAP2 POP POP PUSH2 0x1A2E JUMP JUMPDEST POP SWAP1 SWAP4 SWAP3 POP POP POP JUMP JUMPDEST PUSH2 0x1B1C PUSH2 0x47E6 JUMP JUMPDEST PUSH1 0x0 DUP3 DUP3 DUP1 DUP1 PUSH1 0x1F ADD PUSH1 0x20 DUP1 SWAP2 DIV MUL PUSH1 0x20 ADD PUSH1 0x40 MLOAD SWAP1 DUP2 ADD PUSH1 0x40 MSTORE DUP1 SWAP4 SWAP3 SWAP2 SWAP1 DUP2 DUP2 MSTORE PUSH1 0x20 ADD DUP4 DUP4 DUP1 DUP3 DUP5 CALLDATACOPY PUSH1 0x0 SWAP3 ADD SWAP2 SWAP1 SWAP2 MSTORE POP POP DUP3 MLOAD SWAP3 SWAP4 POP POP POP PUSH2 0x1BA5 JUMPI PUSH1 0x40 MLOAD PUSH3 0x461BCD PUSH1 0xE5 SHL DUP2 MSTORE PUSH1 0x20 PUSH1 0x4 DUP3 ADD MSTORE PUSH1 0x16 PUSH1 0x24 DUP3 ADD MSTORE PUSH32 0x48616E646C652063616E6E6F7420626520656D70747900000000000000000000 PUSH1 0x44 DUP3 ADD MSTORE PUSH1 0x64 ADD PUSH2 0x7AF JUMP JUMPDEST PUSH1 0x20 DUP2 MLOAD GT ISZERO PUSH2 0x1BF7 JUMPI PUSH1 0x40 MLOAD PUSH3 0x461BCD PUSH1 0xE5 SHL DUP2 MSTORE PUSH1 0x20 PUSH1 0x4 DUP3 ADD MSTORE PUSH1 0xF PUSH1 0x24 DUP3 ADD MSTORE PUSH32 0x48616E646C6520746F6F206C6F6E670000000000000000000000000000000000 PUSH1 0x44 DUP3 ADD MSTORE PUSH1 0x64 ADD PUSH2 0x7AF JUMP JUMPDEST PUSH1 0x16 SLOAD PUSH1 0x40 MLOAD PUSH32 0x23B872DD00000000000000000000000000000000000000000000000000000000 DUP2 MSTORE CALLER PUSH1 0x4 DUP3 ADD MSTORE ADDRESS PUSH1 0x24 DUP3 ADD MSTORE PUSH4 0x3B9ACA00 PUSH1 0x44 DUP3 ADD MSTORE PUSH1 0x1 PUSH1 0x1 PUSH1 0xA0 SHL SUB SWAP1 SWAP2 AND SWAP1 PUSH4 0x23B872DD SWAP1 PUSH1 0x64 ADD PUSH1 0x20 PUSH1 0x40 MLOAD DUP1 DUP4 SUB DUP2 PUSH1 0x0 DUP8 GAS CALL ISZERO DUP1 ISZERO PUSH2 0x1C6A JUMPI RETURNDATASIZE PUSH1 0x0 DUP1 RETURNDATACOPY RETURNDATASIZE PUSH1 0x0 REVERT JUMPDEST POP POP POP POP PUSH1 0x40 MLOAD RETURNDATASIZE PUSH1 0x1F NOT PUSH1 0x1F DUP3 ADD AND DUP3 ADD DUP1 PUSH1 0x40 MSTORE POP DUP2 ADD SWAP1 PUSH2 0x1C8E SWAP2 SWAP1 PUSH2 0x51DC JUMP JUMPDEST PUSH2 0x1CDA JUMPI PUSH1 0x40 MLOAD PUSH3 0x461BCD PUSH1 0xE5 SHL DUP2 MSTORE PUSH1 0x20 PUSH1 0x4 DUP3 ADD MSTORE PUSH1 0x13 PUSH1 0x24 DUP3 ADD MSTORE PUSH32 0x4C4F50207472616E73666572206661696C656400000000000000000000000000 PUSH1 0x44 DUP3 ADD MSTORE PUSH1 0x64 ADD PUSH2 0x7AF JUMP JUMPDEST PUSH1 0x16 SLOAD PUSH1 0x40 MLOAD PUSH32 0x42966C6800000000000000000000000000000000000000000000000000000000 DUP2 MSTORE PUSH4 0x3B9ACA00 PUSH1 0x4 DUP3 ADD MSTORE PUSH1 0x1 PUSH1 0x1 PUSH1 0xA0 SHL SUB SWAP1 SWAP2 AND SWAP1 PUSH4 0x42966C68 SWAP1 PUSH1 0x24 ADD PUSH1 0x20 PUSH1 0x40 MLOAD DUP1 DUP4 SUB DUP2 PUSH1 0x0 DUP8 GAS CALL ISZERO DUP1 ISZERO PUSH2 0x1D41 JUMPI RETURNDATASIZE PUSH1 0x0 DUP1 RETURNDATACOPY RETURNDATASIZE PUSH1 0x0 REVERT JUMPDEST POP POP POP POP PUSH1 0x40 MLOAD RETURNDATASIZE PUSH1 0x1F NOT PUSH1 0x1F DUP3 ADD AND DUP3 ADD DUP1 PUSH1 0x40 MSTORE POP DUP2 ADD SWAP1 PUSH2 0x1D65 SWAP2 SWAP1 PUSH2 0x51DC JUMP JUMPDEST PUSH2 0x1DB1 JUMPI PUSH1 0x40 MLOAD PUSH3 0x461BCD PUSH1 0xE5 SHL DUP2 MSTORE PUSH1 0x20 PUSH1 0x4 DUP3 ADD MSTORE PUSH1 0xB PUSH1 0x24 DUP3 ADD MSTORE PUSH32 0x4275726E206661696C6564000000000000000000000000000000000000000000 PUSH1 0x44 DUP3 ADD MSTORE PUSH1 0x64 ADD PUSH2 0x7AF JUMP JUMPDEST CALLER PUSH1 0x0 SWAP1 DUP2 MSTORE PUSH1 0x20 DUP1 MSTORE PUSH1 0x40 SWAP1 KECCAK256 PUSH2 0x1DCA DUP4 DUP6 DUP4 PUSH2 0x52CE JUMP JUMPDEST POP POP PUSH2 0x188B PUSH1 0x1 PUSH1 0x0 SSTORE JUMP JUMPDEST PUSH1 0x0 DUP1 PUSH2 0x1E18 DUP5 DUP5 DUP1 DUP1 PUSH1 0x1F ADD PUSH1 0x20 DUP1 SWAP2 DIV MUL PUSH1 0x20 ADD PUSH1 0x40 MLOAD SWAP1 DUP2 ADD PUSH1 0x40 MSTORE DUP1 SWAP4 SWAP3 SWAP2 SWAP1 DUP2 DUP2 MSTORE PUSH1 0x20 ADD DUP4 DUP4 DUP1 DUP3 DUP5 CALLDATACOPY PUSH1 0x0 SWAP3 ADD SWAP2 SWAP1 SWAP2 MSTORE POP PUSH2 0x4846 SWAP3 POP POP POP JUMP JUMPDEST SWAP1 POP DUP1 MLOAD PUSH1 0x0 SUB PUSH2 0x1E2D JUMPI PUSH1 0x0 SWAP2 POP POP PUSH2 0xB2B JUMP JUMPDEST PUSH1 0x0 PUSH2 0x1E38 DUP3 PUSH2 0x4A78 JUMP JUMPDEST PUSH1 0x40 MLOAD PUSH1 0x20 ADD PUSH2 0x1E48 SWAP2 SWAP1 PUSH2 0x5484 JUMP JUMPDEST PUSH1 0x40 DUP1 MLOAD DUP1 DUP4 SUB PUSH1 0x1F NOT ADD DUP2 MSTORE SWAP2 DUP2 MSTORE DUP2 MLOAD PUSH1 0x20 SWAP3 DUP4 ADD KECCAK256 PUSH1 0x0 SWAP1 DUP2 MSTORE PUSH1 0x18 SWAP1 SWAP3 MSTORE SWAP1 KECCAK256 SLOAD PUSH1 0xFF AND ISZERO SWAP6 SWAP5 POP POP POP POP POP JUMP JUMPDEST PUSH2 0x1E82 PUSH2 0x47E6 JUMP JUMPDEST PUSH1 0x15 SLOAD PUSH1 0x40 MLOAD PUSH4 0x8A888953 PUSH1 0xE0 SHL DUP2 MSTORE PUSH1 0xFF DUP1 DUP6 AND PUSH1 0x4 DUP4 ADD MSTORE DUP4 AND PUSH1 0x24 DUP3 ADD MSTORE DUP4 SWAP2 DUP4 SWAP2 CALLER SWAP2 PUSH1 0x1 PUSH1 0x1 PUSH1 0xA0 SHL SUB AND SWAP1 PUSH4 0x8A888953 SWAP1 PUSH1 0x44 ADD PUSH1 0x20 PUSH1 0x40 MLOAD DUP1 DUP4 SUB DUP2 DUP7 GAS STATICCALL ISZERO DUP1 ISZERO PUSH2 0x1ED9 JUMPI RETURNDATASIZE PUSH1 0x0 DUP1 RETURNDATACOPY RETURNDATASIZE PUSH1 0x0 REVERT JUMPDEST POP POP POP POP PUSH1 0x40 MLOAD RETURNDATASIZE PUSH1 0x1F NOT PUSH1 0x1F DUP3 ADD AND DUP3 ADD DUP1 PUSH1 0x40 MSTORE POP DUP2 ADD SWAP1 PUSH2 0x1EFD SWAP2 SWAP1 PUSH2 0x51BF JUMP JUMPDEST PUSH1 0x1 PUSH1 0x1 PUSH1 0xA0 SHL SUB AND EQ PUSH2 0x1F53 JUMPI PUSH1 0x40 MLOAD PUSH3 0x461BCD PUSH1 0xE5 SHL DUP2 MSTORE PUSH1 0x20 PUSH1 0x4 DUP3 ADD MSTORE PUSH1 0x18 PUSH1 0x24 DUP3 ADD MSTORE PUSH32 0x596F7520646F206E6F74206F776E20746869732074696C650000000000000000 PUSH1 0x44 DUP3 ADD MSTORE PUSH1 0x64 ADD PUSH2 0x7AF JUMP JUMPDEST PUSH1 0xFF DUP4 AND PUSH1 0x8 DUP6 SWAP1 SHL PUSH2 0xFF00 AND OR PUSH1 0x0 DUP2 DUP2 MSTORE PUSH1 0x1E PUSH1 0x20 MSTORE PUSH1 0x40 SWAP1 KECCAK256 SLOAD PUSH2 0xFFFF AND PUSH2 0x1FC0 JUMPI PUSH1 0x40 MLOAD PUSH3 0x461BCD PUSH1 0xE5 SHL DUP2 MSTORE PUSH1 0x20 PUSH1 0x4 DUP3 ADD MSTORE PUSH1 0x1F PUSH1 0x24 DUP3 ADD MSTORE PUSH32 0x4E6F2070656E64696E6720696E7669746520666F7220746869732074696C6500 PUSH1 0x44 DUP3 ADD MSTORE PUSH1 0x64 ADD PUSH2 0x7AF JUMP JUMPDEST PUSH2 0xFFFF AND PUSH1 0x0 SWAP1 DUP2 MSTORE PUSH1 0x1E PUSH1 0x20 MSTORE PUSH1 0x40 SWAP1 KECCAK256 DUP1 SLOAD PUSH2 0xFFFF NOT AND SWAP1 SSTORE POP PUSH2 0x188B SWAP1 POP PUSH1 0x1 PUSH1 0x0 SSTORE JUMP JUMPDEST PUSH2 0xFFFF DUP2 AND PUSH1 0x0 SWAP1 DUP2 MSTORE PUSH1 0x1B PUSH1 0x20 MSTORE PUSH1 0x40 DUP2 KECCAK256 PUSH1 0x1 ADD SLOAD PUSH4 0x1000000 SWAP1 DIV PUSH1 0xFF AND PUSH2 0x2055 JUMPI PUSH1 0x40 MLOAD PUSH3 0x461BCD PUSH1 0xE5 SHL DUP2 MSTORE PUSH1 0x20 PUSH1 0x4 DUP3 ADD MSTORE PUSH1 0x13 PUSH1 0x24 DUP3 ADD MSTORE PUSH32 0x436C616E20646F6573206E6F7420657869737400000000000000000000000000 PUSH1 0x44 DUP3 ADD MSTORE PUSH1 0x64 ADD PUSH2 0x7AF JUMP JUMPDEST POP PUSH2 0xFFFF AND PUSH1 0x0 SWAP1 DUP2 MSTORE PUSH1 0x1B PUSH1 0x20 MSTORE PUSH1 0x40 SWAP1 KECCAK256 PUSH1 0x1 ADD SLOAD PUSH3 0x10000 SWAP1 DIV PUSH1 0xFF AND SWAP1 JUMP JUMPDEST PUSH2 0x2080 PUSH2 0x47E6 JUMP JUMPDEST PUSH2 0xFFFF DUP4 AND PUSH1 0x0 SWAP1 DUP2 MSTORE PUSH1 0x1B PUSH1 0x20 MSTORE PUSH1 0x40 SWAP1 KECCAK256 PUSH1 0x1 ADD SLOAD DUP4 SWAP1 DUP4 SWAP1 DUP4 SWAP1 PUSH4 0x1000000 SWAP1 DIV PUSH1 0xFF AND PUSH2 0x20F3 JUMPI PUSH1 0x40 MLOAD PUSH3 0x461BCD PUSH1 0xE5 SHL DUP2 MSTORE PUSH1 0x20 PUSH1 0x4 DUP3 ADD MSTORE PUSH1 0x13 PUSH1 0x24 DUP3 ADD MSTORE PUSH32 0x436C616E20646F6573206E6F7420657869737400000000000000000000000000 PUSH1 0x44 DUP3 ADD MSTORE PUSH1 0x64 ADD PUSH2 0x7AF JUMP JUMPDEST PUSH2 0xFFFF DUP4 AND PUSH1 0x0 SWAP1 DUP2 MSTORE PUSH1 0x1B PUSH1 0x20 MSTORE PUSH1 0x40 SWAP1 KECCAK256 PUSH1 0x1 ADD SLOAD PUSH1 0xFF DUP4 DUP2 AND SWAP2 AND EQ DUP1 ISZERO PUSH2 0x213E JUMPI POP PUSH2 0xFFFF DUP4 AND PUSH1 0x0 SWAP1 DUP2 MSTORE PUSH1 0x1B PUSH1 0x20 MSTORE PUSH1 0x40 SWAP1 KECCAK256 PUSH1 0x1 ADD SLOAD PUSH1 0xFF DUP3 DUP2 AND PUSH2 0x100 SWAP1 SWAP3 DIV AND EQ JUMPDEST PUSH2 0x218A JUMPI PUSH1 0x40 MLOAD PUSH3 0x461BCD PUSH1 0xE5 SHL DUP2 MSTORE PUSH1 0x20 PUSH1 0x4 DUP3 ADD MSTORE PUSH1 0xF PUSH1 0x24 DUP3 ADD MSTORE PUSH32 0x4E6F74206C65616465722074696C650000000000000000000000000000000000 PUSH1 0x44 DUP3 ADD MSTORE PUSH1 0x64 ADD PUSH2 0x7AF JUMP JUMPDEST PUSH1 0x15 SLOAD PUSH1 0x40 MLOAD PUSH4 0x8A888953 PUSH1 0xE0 SHL DUP2 MSTORE PUSH1 0xFF DUP1 DUP6 AND PUSH1 0x4 DUP4 ADD MSTORE DUP4 AND PUSH1 0x24 DUP3 ADD MSTORE CALLER SWAP2 PUSH1 0x1 PUSH1 0x1 PUSH1 0xA0 SHL SUB AND SWAP1 PUSH4 0x8A888953 SWAP1 PUSH1 0x44 ADD PUSH1 0x20 PUSH1 0x40 MLOAD DUP1 DUP4 SUB DUP2 DUP7 GAS STATICCALL ISZERO DUP1 ISZERO PUSH2 0x21DD JUMPI RETURNDATASIZE PUSH1 0x0 DUP1 RETURNDATACOPY RETURNDATASIZE PUSH1 0x0 REVERT JUMPDEST POP POP POP POP PUSH1 0x40 MLOAD RETURNDATASIZE PUSH1 0x1F NOT PUSH1 0x1F DUP3 ADD AND DUP3 ADD DUP1 PUSH1 0x40 MSTORE POP DUP2 ADD SWAP1 PUSH2 0x2201 SWAP2 SWAP1 PUSH2 0x51BF JUMP JUMPDEST PUSH1 0x1 PUSH1 0x1 PUSH1 0xA0 SHL SUB AND EQ PUSH2 0x2257 JUMPI PUSH1 0x40 MLOAD PUSH3 0x461BCD PUSH1 0xE5 SHL DUP2 MSTORE PUSH1 0x20 PUSH1 0x4 DUP3 ADD MSTORE PUSH1 0x1D PUSH1 0x24 DUP3 ADD MSTORE PUSH32 0x596F7520646F6E2774206F776E20746865206C65616465722074696C65000000 PUSH1 0x44 DUP3 ADD MSTORE PUSH1 0x64 ADD PUSH2 0x7AF JUMP JUMPDEST PUSH1 0x17 SLOAD PUSH1 0x40 MLOAD PUSH32 0x1ACC55EA00000000000000000000000000000000000000000000000000000000 DUP2 MSTORE PUSH1 0xFF DUP1 DUP9 AND PUSH1 0x4 DUP4 ADD MSTORE DUP7 AND PUSH1 0x24 DUP3 ADD MSTORE PUSH1 0x1 PUSH1 0x1 PUSH1 0xA0 SHL SUB SWAP1 SWAP2 AND SWAP1 PUSH4 0x1ACC55EA SWAP1 PUSH1 0x44 ADD PUSH1 0x20 PUSH1 0x40 MLOAD DUP1 DUP4 SUB DUP2 DUP7 GAS STATICCALL ISZERO DUP1 ISZERO PUSH2 0x22C3 JUMPI RETURNDATASIZE PUSH1 0x0 DUP1 RETURNDATACOPY RETURNDATASIZE PUSH1 0x0 REVERT JUMPDEST POP POP POP POP PUSH1 0x40 MLOAD RETURNDATASIZE PUSH1 0x1F NOT PUSH1 0x1F DUP3 ADD AND DUP3 ADD DUP1 PUSH1 0x40 MSTORE POP DUP2 ADD SWAP1 PUSH2 0x22E7 SWAP2 SWAP1 PUSH2 0x51DC JUMP JUMPDEST PUSH2 0x2333 JUMPI PUSH1 0x40 MLOAD PUSH3 0x461BCD PUSH1 0xE5 SHL DUP2 MSTORE PUSH1 0x20 PUSH1 0x4 DUP3 ADD MSTORE PUSH1 0x19 PUSH1 0x24 DUP3 ADD MSTORE PUSH32 0x596F75206D7573742068617665206120436C616E2048616C6C00000000000000 PUSH1 0x44 DUP3 ADD MSTORE PUSH1 0x64 ADD PUSH2 0x7AF JUMP JUMPDEST PUSH2 0xFFFF DUP7 AND PUSH1 0x0 SWAP1 DUP2 MSTORE PUSH1 0x1D PUSH1 0x20 MSTORE PUSH1 0x40 DUP2 KECCAK256 SWAP1 JUMPDEST DUP2 SLOAD DUP2 LT ISZERO PUSH2 0x2439 JUMPI PUSH1 0x0 DUP1 PUSH2 0x239C DUP5 DUP5 DUP2 SLOAD DUP2 LT PUSH2 0x2369 JUMPI PUSH2 0x2369 PUSH2 0x53DA JUMP JUMPDEST SWAP1 PUSH1 0x0 MSTORE PUSH1 0x20 PUSH1 0x0 KECCAK256 SWAP1 PUSH1 0x10 SWAP2 DUP3 DUP3 DIV ADD SWAP2 SWAP1 MOD PUSH1 0x2 MUL SWAP1 SLOAD SWAP1 PUSH2 0x100 EXP SWAP1 DIV PUSH2 0xFFFF AND PUSH1 0xFF PUSH1 0x8 DUP3 SWAP1 SHR DUP2 AND SWAP3 SWAP2 AND SWAP1 JUMP JUMPDEST SWAP2 POP SWAP2 POP PUSH1 0x0 PUSH1 0x1C PUSH1 0x0 DUP7 DUP7 DUP2 SLOAD DUP2 LT PUSH2 0x23B8 JUMPI PUSH2 0x23B8 PUSH2 0x53DA JUMP JUMPDEST PUSH1 0x0 SWAP2 DUP3 MSTORE PUSH1 0x20 DUP1 DUP4 KECCAK256 PUSH1 0x10 DUP4 DIV ADD SLOAD PUSH1 0xF SWAP1 SWAP3 AND PUSH1 0x2 MUL PUSH2 0x100 EXP SWAP1 SWAP2 DIV PUSH2 0xFFFF AND DUP4 MSTORE DUP3 DUP2 ADD SWAP4 SWAP1 SWAP4 MSTORE PUSH1 0x40 SWAP2 DUP3 ADD DUP2 KECCAK256 DUP1 SLOAD PUSH3 0xFF0000 NOT AND PUSH3 0x10000 SWAP6 ISZERO ISZERO SWAP6 SWAP1 SWAP6 MUL SWAP5 SWAP1 SWAP5 OR SWAP1 SWAP4 SSTORE PUSH1 0xFF SWAP5 DUP6 AND DUP4 MSTORE PUSH1 0x21 DUP3 MSTORE DUP1 DUP4 KECCAK256 SWAP4 SWAP1 SWAP5 AND DUP3 MSTORE SWAP2 SWAP1 SWAP2 MSTORE KECCAK256 DUP1 SLOAD PUSH2 0xFFFF NOT AND SWAP1 SSTORE DUP1 PUSH2 0x2431 DUP2 PUSH2 0x544B JUMP JUMPDEST SWAP2 POP POP PUSH2 0x2348 JUMP JUMPDEST POP PUSH2 0xFFFF DUP8 AND PUSH1 0x0 SWAP1 DUP2 MSTORE PUSH1 0x1D PUSH1 0x20 MSTORE PUSH1 0x40 DUP2 KECCAK256 PUSH2 0x2456 SWAP2 PUSH2 0x4C50 JUMP JUMPDEST PUSH2 0xFFFF DUP8 AND PUSH1 0x0 SWAP1 DUP2 MSTORE PUSH1 0x19 PUSH1 0x20 MSTORE PUSH1 0x40 SWAP1 KECCAK256 SLOAD DUP1 ISZERO PUSH2 0x24B7 JUMPI PUSH1 0x0 DUP2 DUP2 MSTORE PUSH1 0x18 PUSH1 0x20 SWAP1 DUP2 MSTORE PUSH1 0x40 DUP1 DUP4 KECCAK256 DUP1 SLOAD PUSH32 0xFFFFFFFFFFFFFFFFFFFFFFFFFFFFFFFFFFFFFFFFFFFFFFFFFFFFFFFFFFFFFF00 AND SWAP1 SSTORE PUSH2 0xFFFF DUP12 AND DUP4 MSTORE PUSH1 0x19 SWAP1 SWAP2 MSTORE DUP2 KECCAK256 SSTORE JUMPDEST PUSH2 0xFFFF DUP9 AND PUSH1 0x0 SWAP1 DUP2 MSTORE PUSH1 0x1B PUSH1 0x20 MSTORE PUSH1 0x40 DUP2 KECCAK256 SWAP1 PUSH2 0x24D5 DUP3 DUP3 PUSH2 0x4C78 JUMP JUMPDEST POP PUSH1 0x1 ADD DUP1 SLOAD PUSH32 0xFFFFFFFFFFFFFFFFFFFFFFFFFFFFFFFFFFFFFFFFFFFFFFFFFFFFFFFF00000000 AND SWAP1 SSTORE POP PUSH2 0x250E SWAP4 POP PUSH2 0x483F SWAP3 POP POP POP JUMP JUMPDEST POP POP POP JUMP JUMPDEST PUSH2 0xFFFF DUP2 AND PUSH1 0x0 SWAP1 DUP2 MSTORE PUSH1 0x1D PUSH1 0x20 MSTORE PUSH1 0x40 DUP2 KECCAK256 DUP1 SLOAD PUSH1 0x60 SWAP3 SWAP1 PUSH8 0xFFFFFFFFFFFFFFFF DUP2 GT ISZERO PUSH2 0x2544 JUMPI PUSH2 0x2544 PUSH2 0x51FE JUMP JUMPDEST PUSH1 0x40 MLOAD SWAP1 DUP1 DUP3 MSTORE DUP1 PUSH1 0x20 MUL PUSH1 0x20 ADD DUP3 ADD PUSH1 0x40 MSTORE DUP1 ISZERO PUSH2 0x2596 JUMPI DUP2 PUSH1 0x20 ADD JUMPDEST PUSH1 0x40 DUP1 MLOAD PUSH1 0x80 DUP2 ADD DUP3 MSTORE PUSH1 0x0 DUP1 DUP3 MSTORE PUSH1 0x20 DUP1 DUP4 ADD DUP3 SWAP1 MSTORE SWAP3 DUP3 ADD DUP2 SWAP1 MSTORE PUSH1 0x60 DUP3 ADD MSTORE DUP3 MSTORE PUSH1 0x0 NOT SWAP1 SWAP3 ADD SWAP2 ADD DUP2 PUSH2 0x2562 JUMPI SWAP1 POP JUMPDEST POP SWAP1 POP PUSH1 0x0 JUMPDEST DUP3 SLOAD DUP2 LT ISZERO PUSH2 0x2639 JUMPI PUSH1 0x0 DUP1 PUSH2 0x25BD DUP6 DUP5 DUP2 SLOAD DUP2 LT PUSH2 0x2369 JUMPI PUSH2 0x2369 PUSH2 0x53DA JUMP JUMPDEST SWAP2 POP SWAP2 POP PUSH1 0x40 MLOAD DUP1 PUSH1 0x80 ADD PUSH1 0x40 MSTORE DUP1 DUP4 PUSH1 0xFF AND DUP2 MSTORE PUSH1 0x20 ADD DUP3 PUSH1 0xFF AND DUP2 MSTORE PUSH1 0x20 ADD DUP9 PUSH2 0xFFFF AND DUP2 MSTORE PUSH1 0x20 ADD PUSH1 0x23 PUSH1 0x0 DUP11 PUSH2 0xFFFF AND PUSH2 0xFFFF AND DUP2 MSTORE PUSH1 0x20 ADD SWAP1 DUP2 MSTORE PUSH1 0x20 ADD PUSH1 0x0 KECCAK256 SLOAD DUP2 MSTORE POP DUP5 DUP5 DUP2 MLOAD DUP2 LT PUSH2 0x2619 JUMPI PUSH2 0x2619 PUSH2 0x53DA JUMP JUMPDEST PUSH1 0x20 MUL PUSH1 0x20 ADD ADD DUP2 SWAP1 MSTORE POP POP POP DUP1 DUP1 PUSH2 0x2631 SWAP1 PUSH2 0x544B JUMP JUMPDEST SWAP2 POP POP PUSH2 0x259C JUMP JUMPDEST POP SWAP4 SWAP3 POP POP POP JUMP JUMPDEST PUSH1 0x1F PUSH1 0x20 SWAP1 DUP2 MSTORE PUSH1 0x0 SWAP3 DUP4 MSTORE PUSH1 0x40 DUP1 DUP5 KECCAK256 SWAP1 SWAP2 MSTORE SWAP1 DUP3 MSTORE SWAP1 KECCAK256 DUP1 SLOAD PUSH2 0xB49 SWAP1 PUSH2 0x522D JUMP JUMPDEST PUSH1 0x40 DUP1 MLOAD PUSH1 0xA0 DUP2 ADD DUP3 MSTORE PUSH1 0x60 DUP1 DUP3 MSTORE PUSH1 0x0 PUSH1 0x20 DUP4 ADD DUP2 SWAP1 MSTORE SWAP3 DUP3 ADD DUP4 SWAP1 MSTORE DUP2 ADD DUP3 SWAP1 MSTORE PUSH1 0x80 DUP2 ADD SWAP2 SWAP1 SWAP2 MSTORE PUSH2 0xFFFF DUP3 AND PUSH1 0x0 SWAP1 DUP2 MSTORE PUSH1 0x1B PUSH1 0x20 MSTORE PUSH1 0x40 SWAP1 DUP2 SWAP1 KECCAK256 DUP2 MLOAD PUSH1 0xA0 DUP2 ADD SWAP1 SWAP3 MSTORE DUP1 SLOAD DUP3 SWAP1 DUP3 SWAP1 PUSH2 0x26BD SWAP1 PUSH2 0x522D JUMP JUMPDEST DUP1 PUSH1 0x1F ADD PUSH1 0x20 DUP1 SWAP2 DIV MUL PUSH1 0x20 ADD PUSH1 0x40 MLOAD SWAP1 DUP2 ADD PUSH1 0x40 MSTORE DUP1 SWAP3 SWAP2 SWAP1 DUP2 DUP2 MSTORE PUSH1 0x20 ADD DUP3 DUP1 SLOAD PUSH2 0x26E9 SWAP1 PUSH2 0x522D JUMP JUMPDEST DUP1 ISZERO PUSH2 0x2736 JUMPI DUP1 PUSH1 0x1F LT PUSH2 0x270B JUMPI PUSH2 0x100 DUP1 DUP4 SLOAD DIV MUL DUP4 MSTORE SWAP2 PUSH1 0x20 ADD SWAP2 PUSH2 0x2736 JUMP JUMPDEST DUP3 ADD SWAP2 SWAP1 PUSH1 0x0 MSTORE PUSH1 0x20 PUSH1 0x0 KECCAK256 SWAP1 JUMPDEST DUP2 SLOAD DUP2 MSTORE SWAP1 PUSH1 0x1 ADD SWAP1 PUSH1 0x20 ADD DUP1 DUP4 GT PUSH2 0x2719 JUMPI DUP3 SWAP1 SUB PUSH1 0x1F AND DUP3 ADD SWAP2 JUMPDEST POP POP POP SWAP2 DUP4 MSTORE POP POP PUSH1 0x1 SWAP2 SWAP1 SWAP2 ADD SLOAD PUSH1 0xFF DUP1 DUP3 AND PUSH1 0x20 DUP5 ADD MSTORE PUSH2 0x100 DUP3 DIV DUP2 AND PUSH1 0x40 DUP5 ADD MSTORE PUSH3 0x10000 DUP3 DIV DUP2 AND PUSH1 0x60 DUP5 ADD MSTORE PUSH4 0x1000000 SWAP1 SWAP2 DIV AND ISZERO ISZERO PUSH1 0x80 SWAP1 SWAP2 ADD MSTORE SWAP3 SWAP2 POP POP JUMP JUMPDEST PUSH2 0x2787 PUSH2 0x47E6 JUMP JUMPDEST PUSH2 0xFFFF DUP6 AND PUSH1 0x0 SWAP1 DUP2 MSTORE PUSH1 0x1B PUSH1 0x20 MSTORE PUSH1 0x40 SWAP1 KECCAK256 PUSH1 0x1 ADD SLOAD DUP6 SWAP1 DUP6 SWAP1 DUP6 SWAP1 PUSH4 0x1000000 SWAP1 DIV PUSH1 0xFF AND PUSH2 0x27FA JUMPI PUSH1 0x40 MLOAD PUSH3 0x461BCD PUSH1 0xE5 SHL DUP2 MSTORE PUSH1 0x20 PUSH1 0x4 DUP3 ADD MSTORE PUSH1 0x13 PUSH1 0x24 DUP3 ADD MSTORE PUSH32 0x436C616E20646F6573206E6F7420657869737400000000000000000000000000 PUSH1 0x44 DUP3 ADD MSTORE PUSH1 0x64 ADD PUSH2 0x7AF JUMP JUMPDEST PUSH2 0xFFFF DUP4 AND PUSH1 0x0 SWAP1 DUP2 MSTORE PUSH1 0x1B PUSH1 0x20 MSTORE PUSH1 0x40 SWAP1 KECCAK256 PUSH1 0x1 ADD SLOAD PUSH1 0xFF DUP4 DUP2 AND SWAP2 AND EQ DUP1 ISZERO PUSH2 0x2845 JUMPI POP PUSH2 0xFFFF DUP4 AND PUSH1 0x0 SWAP1 DUP2 MSTORE PUSH1 0x1B PUSH1 0x20 MSTORE PUSH1 0x40 SWAP1 KECCAK256 PUSH1 0x1 ADD SLOAD PUSH1 0xFF DUP3 DUP2 AND PUSH2 0x100 SWAP1 SWAP3 DIV AND EQ JUMPDEST PUSH2 0x2891 JUMPI PUSH1 0x40 MLOAD PUSH3 0x461BCD PUSH1 0xE5 SHL DUP2 MSTORE PUSH1 0x20 PUSH1 0x4 DUP3 ADD MSTORE PUSH1 0xF PUSH1 0x24 DUP3 ADD MSTORE PUSH32 0x4E6F74206C65616465722074696C650000000000000000000000000000000000 PUSH1 0x44 DUP3 ADD MSTORE PUSH1 0x64 ADD PUSH2 0x7AF JUMP JUMPDEST PUSH1 0x15 SLOAD PUSH1 0x40 MLOAD PUSH4 0x8A888953 PUSH1 0xE0 SHL DUP2 MSTORE PUSH1 0xFF DUP1 DUP6 AND PUSH1 0x4 DUP4 ADD MSTORE DUP4 AND PUSH1 0x24 DUP3 ADD MSTORE CALLER SWAP2 PUSH1 0x1 PUSH1 0x1 PUSH1 0xA0 SHL SUB AND SWAP1 PUSH4 0x8A888953 SWAP1 PUSH1 0x44 ADD PUSH1 0x20 PUSH1 0x40 MLOAD DUP1 DUP4 SUB DUP2 DUP7 GAS STATICCALL ISZERO DUP1 ISZERO PUSH2 0x28E4 JUMPI RETURNDATASIZE PUSH1 0x0 DUP1 RETURNDATACOPY RETURNDATASIZE PUSH1 0x0 REVERT JUMPDEST POP POP POP POP PUSH1 0x40 MLOAD RETURNDATASIZE PUSH1 0x1F NOT PUSH1 0x1F DUP3 ADD AND DUP3 ADD DUP1 PUSH1 0x40 MSTORE POP DUP2 ADD SWAP1 PUSH2 0x2908 SWAP2 SWAP1 PUSH2 0x51BF JUMP JUMPDEST PUSH1 0x1 PUSH1 0x1 PUSH1 0xA0 SHL SUB AND EQ PUSH2 0x295E JUMPI PUSH1 0x40 MLOAD PUSH3 0x461BCD PUSH1 0xE5 SHL DUP2 MSTORE PUSH1 0x20 PUSH1 0x4 DUP3 ADD MSTORE PUSH1 0x1D PUSH1 0x24 DUP3 ADD MSTORE PUSH32 0x596F7520646F6E2774206F776E20746865206C65616465722074696C65000000 PUSH1 0x44 DUP3 ADD MSTORE PUSH1 0x64 ADD PUSH2 0x7AF JUMP JUMPDEST PUSH1 0x17 SLOAD PUSH1 0x40 MLOAD PUSH32 0x1ACC55EA00000000000000000000000000000000000000000000000000000000 DUP2 MSTORE PUSH1 0xFF DUP1 DUP11 AND PUSH1 0x4 DUP4 ADD MSTORE DUP9 AND PUSH1 0x24 DUP3 ADD MSTORE PUSH1 0x1 PUSH1 0x1 PUSH1 0xA0 SHL SUB SWAP1 SWAP2 AND SWAP1 PUSH4 0x1ACC55EA SWAP1 PUSH1 0x44 ADD PUSH1 0x20 PUSH1 0x40 MLOAD DUP1 DUP4 SUB DUP2 DUP7 GAS STATICCALL ISZERO DUP1 ISZERO PUSH2 0x29CA JUMPI RETURNDATASIZE PUSH1 0x0 DUP1 RETURNDATACOPY RETURNDATASIZE PUSH1 0x0 REVERT JUMPDEST POP POP POP POP PUSH1 0x40 MLOAD RETURNDATASIZE PUSH1 0x1F NOT PUSH1 0x1F DUP3 ADD AND DUP3 ADD DUP1 PUSH1 0x40 MSTORE POP DUP2 ADD SWAP1 PUSH2 0x29EE SWAP2 SWAP1 PUSH2 0x51DC JUMP JUMPDEST PUSH2 0x2A3A JUMPI PUSH1 0x40 MLOAD PUSH3 0x461BCD PUSH1 0xE5 SHL DUP2 MSTORE PUSH1 0x20 PUSH1 0x4 DUP3 ADD MSTORE PUSH1 0x19 PUSH1 0x24 DUP3 ADD MSTORE PUSH32 0x596F75206D7573742068617665206120436C616E2048616C6C00000000000000 PUSH1 0x44 DUP3 ADD MSTORE PUSH1 0x64 ADD PUSH2 0x7AF JUMP JUMPDEST PUSH2 0xFFFF DUP9 AND PUSH1 0x0 SWAP1 DUP2 MSTORE PUSH1 0x1B PUSH1 0x20 MSTORE PUSH1 0x40 SWAP1 KECCAK256 PUSH1 0x1 ADD SLOAD PUSH1 0xFF DUP7 DUP2 AND SWAP2 AND EQ DUP1 ISZERO PUSH2 0x2A85 JUMPI POP PUSH2 0xFFFF DUP9 AND PUSH1 0x0 SWAP1 DUP2 MSTORE PUSH1 0x1B PUSH1 0x20 MSTORE PUSH1 0x40 SWAP1 KECCAK256 PUSH1 0x1 ADD SLOAD PUSH1 0xFF DUP6 DUP2 AND PUSH2 0x100 SWAP1 SWAP3 DIV AND EQ JUMPDEST ISZERO PUSH2 0x2AD2 JUMPI PUSH1 0x40 MLOAD PUSH3 0x461BCD PUSH1 0xE5 SHL DUP2 MSTORE PUSH1 0x20 PUSH1 0x4 DUP3 ADD MSTORE PUSH1 0x19 PUSH1 0x24 DUP3 ADD MSTORE PUSH32 0x43616E6E6F742072656D6F7665206C65616465722074696C6500000000000000 PUSH1 0x44 DUP3 ADD MSTORE PUSH1 0x64 ADD PUSH2 0x7AF JUMP JUMPDEST PUSH1 0xFF DUP5 DUP2 AND PUSH1 0x8 DUP8 SWAP1 SHL PUSH2 0xFF00 AND OR PUSH1 0x0 DUP2 DUP2 MSTORE PUSH1 0x1C PUSH1 0x20 MSTORE PUSH1 0x40 SWAP1 KECCAK256 SLOAD SWAP1 SWAP2 PUSH3 0x10000 SWAP1 SWAP2 DIV AND DUP1 ISZERO PUSH2 0x2B1D JUMPI POP PUSH2 0xFFFF DUP2 DUP2 AND PUSH1 0x0 SWAP1 DUP2 MSTORE PUSH1 0x1C PUSH1 0x20 MSTORE PUSH1 0x40 SWAP1 KECCAK256 SLOAD DUP2 AND SWAP1 DUP11 AND EQ JUMPDEST PUSH2 0x2B69 JUMPI PUSH1 0x40 MLOAD PUSH3 0x461BCD PUSH1 0xE5 SHL DUP2 MSTORE PUSH1 0x20 PUSH1 0x4 DUP3 ADD MSTORE PUSH1 0x15 PUSH1 0x24 DUP3 ADD MSTORE PUSH32 0x54696C65206E6F7420696E207468697320636C616E0000000000000000000000 PUSH1 0x44 DUP3 ADD MSTORE PUSH1 0x64 ADD PUSH2 0x7AF JUMP JUMPDEST PUSH1 0x16 SLOAD PUSH1 0x40 MLOAD PUSH32 0x23B872DD00000000000000000000000000000000000000000000000000000000 DUP2 MSTORE CALLER PUSH1 0x4 DUP3 ADD MSTORE ADDRESS PUSH1 0x24 DUP3 ADD MSTORE PUSH4 0x3B9ACA00 PUSH1 0x44 DUP3 ADD MSTORE PUSH1 0x1 PUSH1 0x1 PUSH1 0xA0 SHL SUB SWAP1 SWAP2 AND SWAP1 PUSH4 0x23B872DD SWAP1 PUSH1 0x64 ADD PUSH1 0x20 PUSH1 0x40 MLOAD DUP1 DUP4 SUB DUP2 PUSH1 0x0 DUP8 GAS CALL ISZERO DUP1 ISZERO PUSH2 0x2BDC JUMPI RETURNDATASIZE PUSH1 0x0 DUP1 RETURNDATACOPY RETURNDATASIZE PUSH1 0x0 REVERT JUMPDEST POP POP POP POP PUSH1 0x40 MLOAD RETURNDATASIZE PUSH1 0x1F NOT PUSH1 0x1F DUP3 ADD AND DUP3 ADD DUP1 PUSH1 0x40 MSTORE POP DUP2 ADD SWAP1 PUSH2 0x2C00 SWAP2 SWAP1 PUSH2 0x51DC JUMP JUMPDEST PUSH2 0x2C4C JUMPI PUSH1 0x40 MLOAD PUSH3 0x461BCD PUSH1 0xE5 SHL DUP2 MSTORE PUSH1 0x20 PUSH1 0x4 DUP3 ADD MSTORE PUSH1 0x13 PUSH1 0x24 DUP3 ADD MSTORE PUSH32 0x4C4F50207472616E73666572206661696C656400000000000000000000000000 PUSH1 0x44 DUP3 ADD MSTORE PUSH1 0x64 ADD PUSH2 0x7AF JUMP JUMPDEST PUSH2 0xFFFF DUP1 DUP3 AND PUSH1 0x0 SWAP1 DUP2 MSTORE PUSH1 0x1C PUSH1 0x20 SWAP1 DUP2 MSTORE PUSH1 0x40 DUP1 DUP4 KECCAK256 DUP1 SLOAD PUSH3 0xFF0000 NOT AND SWAP1 SSTORE PUSH1 0xFF DUP11 DUP2 AND DUP5 MSTORE PUSH1 0x21 DUP4 MSTORE DUP2 DUP5 KECCAK256 DUP11 DUP3 AND DUP6 MSTORE DUP4 MSTORE DUP2 DUP5 KECCAK256 DUP1 SLOAD PUSH2 0xFFFF NOT AND SWAP1 SSTORE SWAP4 DUP14 AND DUP4 MSTORE PUSH1 0x1B SWAP1 SWAP2 MSTORE SWAP1 KECCAK256 PUSH1 0x1 SWAP1 DUP2 ADD SLOAD PUSH3 0x10000 SWAP1 DIV SWAP1 SWAP2 AND LT ISZERO PUSH2 0x2CD5 JUMPI PUSH2 0xFFFF DUP10 AND PUSH1 0x0 SWAP1 DUP2 MSTORE PUSH1 0x1B PUSH1 0x20 MSTORE PUSH1 0x40 SWAP1 KECCAK256 PUSH1 0x1 ADD DUP1 SLOAD PUSH3 0xFF0000 NOT AND PUSH3 0x10000 OR SWAP1 SSTORE JUMPDEST PUSH2 0xFFFF DUP10 AND PUSH1 0x0 SWAP1 DUP2 MSTORE PUSH1 0x1B PUSH1 0x20 MSTORE PUSH1 0x40 SWAP1 KECCAK256 PUSH1 0x1 ADD DUP1 SLOAD PUSH3 0x10000 SWAP1 DIV PUSH1 0xFF AND SWAP1 PUSH1 0x2 PUSH2 0x2D02 DUP4 PUSH2 0x53BD JUMP JUMPDEST DUP3 SLOAD PUSH1 0xFF SWAP2 DUP3 AND PUSH2 0x100 SWAP4 SWAP1 SWAP4 EXP SWAP3 DUP4 MUL SWAP2 SWAP1 SWAP3 MUL NOT SWAP1 SWAP2 AND OR SWAP1 SSTORE POP PUSH2 0xFFFF DUP10 AND PUSH1 0x0 SWAP1 DUP2 MSTORE PUSH1 0x1D PUSH1 0x20 MSTORE PUSH1 0x40 DUP2 KECCAK256 SWAP1 JUMPDEST DUP2 SLOAD DUP2 LT ISZERO PUSH2 0x2E53 JUMPI DUP3 PUSH2 0xFFFF AND DUP3 DUP3 DUP2 SLOAD DUP2 LT PUSH2 0x2D54 JUMPI PUSH2 0x2D54 PUSH2 0x53DA JUMP JUMPDEST PUSH1 0x0 SWAP2 DUP3 MSTORE PUSH1 0x20 SWAP1 SWAP2 KECCAK256 PUSH1 0x10 DUP3 DIV ADD SLOAD PUSH1 0xF SWAP1 SWAP2 AND PUSH1 0x2 MUL PUSH2 0x100 EXP SWAP1 DIV PUSH2 0xFFFF AND SUB PUSH2 0x2E41 JUMPI DUP2 SLOAD DUP3 SWAP1 PUSH2 0x2D8B SWAP1 PUSH1 0x1 SWAP1 PUSH2 0x5409 JUMP JUMPDEST DUP2 SLOAD DUP2 LT PUSH2 0x2D9B JUMPI PUSH2 0x2D9B PUSH2 0x53DA JUMP JUMPDEST SWAP1 PUSH1 0x0 MSTORE PUSH1 0x20 PUSH1 0x0 KECCAK256 SWAP1 PUSH1 0x10 SWAP2 DUP3 DUP3 DIV ADD SWAP2 SWAP1 MOD PUSH1 0x2 MUL SWAP1 SLOAD SWAP1 PUSH2 0x100 EXP SWAP1 DIV PUSH2 0xFFFF AND DUP3 DUP3 DUP2 SLOAD DUP2 LT PUSH2 0x2DD1 JUMPI PUSH2 0x2DD1 PUSH2 0x53DA JUMP JUMPDEST SWAP1 PUSH1 0x0 MSTORE PUSH1 0x20 PUSH1 0x0 KECCAK256 SWAP1 PUSH1 0x10 SWAP2 DUP3 DUP3 DIV ADD SWAP2 SWAP1 MOD PUSH1 0x2 MUL PUSH2 0x100 EXP DUP2 SLOAD DUP2 PUSH2 0xFFFF MUL NOT AND SWAP1 DUP4 PUSH2 0xFFFF AND MUL OR SWAP1 SSTORE POP DUP2 DUP1 SLOAD DUP1 PUSH2 0x2E10 JUMPI PUSH2 0x2E10 PUSH2 0x541C JUMP JUMPDEST PUSH1 0x0 DUP3 DUP2 MSTORE PUSH1 0x20 SWAP1 KECCAK256 PUSH1 0x10 PUSH1 0x0 NOT SWAP1 SWAP3 ADD SWAP2 DUP3 DIV ADD DUP1 SLOAD PUSH2 0xFFFF PUSH1 0x2 PUSH1 0xF DUP6 AND MUL PUSH2 0x100 EXP MUL NOT AND SWAP1 SSTORE SWAP1 SSTORE PUSH2 0x2E53 JUMP JUMPDEST DUP1 PUSH2 0x2E4B DUP2 PUSH2 0x544B JUMP JUMPDEST SWAP2 POP POP PUSH2 0x2D34 JUMP JUMPDEST POP PUSH1 0x15 SLOAD PUSH1 0x40 MLOAD PUSH4 0x8A888953 PUSH1 0xE0 SHL DUP2 MSTORE PUSH1 0xFF DUP1 DUP11 AND PUSH1 0x4 DUP4 ADD MSTORE DUP9 AND PUSH1 0x24 DUP3 ADD MSTORE PUSH1 0x0 SWAP2 PUSH1 0x1 PUSH1 0x1 PUSH1 0xA0 SHL SUB AND SWAP1 PUSH4 0x8A888953 SWAP1 PUSH1 0x44 ADD PUSH1 0x20 PUSH1 0x40 MLOAD DUP1 DUP4 SUB DUP2 DUP7 GAS STATICCALL ISZERO DUP1 ISZERO PUSH2 0x2EA8 JUMPI RETURNDATASIZE PUSH1 0x0 DUP1 RETURNDATACOPY RETURNDATASIZE PUSH1 0x0 REVERT JUMPDEST POP POP POP POP PUSH1 0x40 MLOAD RETURNDATASIZE PUSH1 0x1F NOT PUSH1 0x1F DUP3 ADD AND DUP3 ADD DUP1 PUSH1 0x40 MSTORE POP DUP2 ADD SWAP1 PUSH2 0x2ECC SWAP2 SWAP1 PUSH2 0x51BF JUMP JUMPDEST PUSH1 0x16 SLOAD PUSH1 0x40 MLOAD PUSH32 0xA9059CBB00000000000000000000000000000000000000000000000000000000 DUP2 MSTORE PUSH1 0x1 PUSH1 0x1 PUSH1 0xA0 SHL SUB DUP1 DUP5 AND PUSH1 0x4 DUP4 ADD MSTORE PUSH4 0x35A4E900 PUSH1 0x24 DUP4 ADD MSTORE SWAP3 SWAP4 POP SWAP2 AND SWAP1 PUSH4 0xA9059CBB SWAP1 PUSH1 0x44 ADD PUSH1 0x20 PUSH1 0x40 MLOAD DUP1 DUP4 SUB DUP2 PUSH1 0x0 DUP8 GAS CALL ISZERO DUP1 ISZERO PUSH2 0x2F3D JUMPI RETURNDATASIZE PUSH1 0x0 DUP1 RETURNDATACOPY RETURNDATASIZE PUSH1 0x0 REVERT JUMPDEST POP POP POP POP PUSH1 0x40 MLOAD RETURNDATASIZE PUSH1 0x1F NOT PUSH1 0x1F DUP3 ADD AND DUP3 ADD DUP1 PUSH1 0x40 MSTORE POP DUP2 ADD SWAP1 PUSH2 0x2F61 SWAP2 SWAP1 PUSH2 0x51DC JUMP JUMPDEST PUSH2 0x2FAD JUMPI PUSH1 0x40 MLOAD PUSH3 0x461BCD PUSH1 0xE5 SHL DUP2 MSTORE PUSH1 0x20 PUSH1 0x4 DUP3 ADD MSTORE PUSH1 0x16 PUSH1 0x24 DUP3 ADD MSTORE PUSH32 0x5061796F7574207472616E73666572206661696C656400000000000000000000 PUSH1 0x44 DUP3 ADD MSTORE PUSH1 0x64 ADD PUSH2 0x7AF JUMP JUMPDEST PUSH1 0x16 SLOAD PUSH1 0x40 MLOAD PUSH32 0x42966C6800000000000000000000000000000000000000000000000000000000 DUP2 MSTORE PUSH4 0x5F5E100 PUSH1 0x4 DUP3 ADD MSTORE PUSH1 0x1 PUSH1 0x1 PUSH1 0xA0 SHL SUB SWAP1 SWAP2 AND SWAP1 PUSH4 0x42966C68 SWAP1 PUSH1 0x24 ADD PUSH1 0x20 PUSH1 0x40 MLOAD DUP1 DUP4 SUB DUP2 PUSH1 0x0 DUP8 GAS CALL ISZERO DUP1 ISZERO PUSH2 0x3014 JUMPI RETURNDATASIZE PUSH1 0x0 DUP1 RETURNDATACOPY RETURNDATASIZE PUSH1 0x0 REVERT JUMPDEST POP POP POP POP PUSH1 0x40 MLOAD RETURNDATASIZE PUSH1 0x1F NOT PUSH1 0x1F DUP3 ADD AND DUP3 ADD DUP1 PUSH1 0x40 MSTORE POP DUP2 ADD SWAP1 PUSH2 0x3038 SWAP2 SWAP1 PUSH2 0x51DC JUMP JUMPDEST PUSH2 0x3084 JUMPI PUSH1 0x40 MLOAD PUSH3 0x461BCD PUSH1 0xE5 SHL DUP2 MSTORE PUSH1 0x20 PUSH1 0x4 DUP3 ADD MSTORE PUSH1 0xB PUSH1 0x24 DUP3 ADD MSTORE PUSH32 0x4275726E206661696C6564000000000000000000000000000000000000000000 PUSH1 0x44 DUP3 ADD MSTORE PUSH1 0x64 ADD PUSH2 0x7AF JUMP JUMPDEST POP POP POP POP POP POP PUSH2 0x10D7 PUSH1 0x1 PUSH1 0x0 SSTORE JUMP JUMPDEST PUSH2 0x309C PUSH2 0x47E6 JUMP JUMPDEST PUSH1 0x15 SLOAD PUSH1 0x40 MLOAD PUSH4 0x8A888953 PUSH1 0xE0 SHL DUP2 MSTORE PUSH1 0xFF DUP1 DUP8 AND PUSH1 0x4 DUP4 ADD MSTORE DUP6 AND PUSH1 0x24 DUP3 ADD MSTORE DUP6 SWAP2 DUP6 SWAP2 CALLER SWAP2 PUSH1 0x1 PUSH1 0x1 PUSH1 0xA0 SHL SUB AND SWAP1 PUSH4 0x8A888953 SWAP1 PUSH1 0x44 ADD PUSH1 0x20 PUSH1 0x40 MLOAD DUP1 DUP4 SUB DUP2 DUP7 GAS STATICCALL ISZERO DUP1 ISZERO PUSH2 0x30F3 JUMPI RETURNDATASIZE PUSH1 0x0 DUP1 RETURNDATACOPY RETURNDATASIZE PUSH1 0x0 REVERT JUMPDEST POP POP POP POP PUSH1 0x40 MLOAD RETURNDATASIZE PUSH1 0x1F NOT PUSH1 0x1F DUP3 ADD AND DUP3 ADD DUP1 PUSH1 0x40 MSTORE POP DUP2 ADD SWAP1 PUSH2 0x3117 SWAP2 SWAP1 PUSH2 0x51BF JUMP JUMPDEST PUSH1 0x1 PUSH1 0x1 PUSH1 0xA0 SHL SUB AND EQ PUSH2 0x316D JUMPI PUSH1 0x40 MLOAD PUSH3 0x461BCD PUSH1 0xE5 SHL DUP2 MSTORE PUSH1 0x20 PUSH1 0x4 DUP3 ADD MSTORE PUSH1 0x18 PUSH1 0x24 DUP3 ADD MSTORE PUSH32 0x596F7520646F206E6F74206F776E20746869732074696C650000000000000000 PUSH1 0x44 DUP3 ADD MSTORE PUSH1 0x64 ADD PUSH2 0x7AF JUMP JUMPDEST PUSH2 0x3177 DUP5 DUP5 PUSH2 0x4B29 JUMP JUMPDEST PUSH1 0xFF DUP1 DUP8 AND PUSH1 0x0 SWAP1 DUP2 MSTORE PUSH1 0x21 PUSH1 0x20 SWAP1 DUP2 MSTORE PUSH1 0x40 DUP1 DUP4 KECCAK256 SWAP4 DUP10 AND DUP4 MSTORE SWAP3 SWAP1 MSTORE KECCAK256 SLOAD PUSH2 0xFFFF AND ISZERO PUSH2 0x31E8 JUMPI PUSH1 0x40 MLOAD PUSH3 0x461BCD PUSH1 0xE5 SHL DUP2 MSTORE PUSH1 0x20 PUSH1 0x4 DUP3 ADD MSTORE PUSH1 0x16 PUSH1 0x24 DUP3 ADD MSTORE PUSH32 0x54696C6520616C726561647920696E206120636C616E00000000000000000000 PUSH1 0x44 DUP3 ADD MSTORE PUSH1 0x64 ADD PUSH2 0x7AF JUMP JUMPDEST PUSH1 0x0 PUSH2 0x3229 DUP6 DUP6 DUP1 DUP1 PUSH1 0x1F ADD PUSH1 0x20 DUP1 SWAP2 DIV MUL PUSH1 0x20 ADD PUSH1 0x40 MLOAD SWAP1 DUP2 ADD PUSH1 0x40 MSTORE DUP1 SWAP4 SWAP3 SWAP2 SWAP1 DUP2 DUP2 MSTORE PUSH1 0x20 ADD DUP4 DUP4 DUP1 DUP3 DUP5 CALLDATACOPY PUSH1 0x0 SWAP3 ADD SWAP2 SWAP1 SWAP2 MSTORE POP PUSH2 0x4C10 SWAP3 POP POP POP JUMP JUMPDEST PUSH1 0x0 DUP2 DUP2 MSTORE PUSH1 0x18 PUSH1 0x20 MSTORE PUSH1 0x40 SWAP1 KECCAK256 SLOAD SWAP1 SWAP2 POP PUSH1 0xFF AND ISZERO PUSH2 0x328B JUMPI PUSH1 0x40 MLOAD PUSH3 0x461BCD PUSH1 0xE5 SHL DUP2 MSTORE PUSH1 0x20 PUSH1 0x4 DUP3 ADD MSTORE PUSH1 0x17 PUSH1 0x24 DUP3 ADD MSTORE PUSH32 0x436C616E206E616D6520616C72656164792074616B656E000000000000000000 PUSH1 0x44 DUP3 ADD MSTORE PUSH1 0x64 ADD PUSH2 0x7AF JUMP JUMPDEST PUSH1 0x17 SLOAD PUSH1 0x40 MLOAD PUSH32 0x1ACC55EA00000000000000000000000000000000000000000000000000000000 DUP2 MSTORE PUSH1 0xFF DUP1 DUP11 AND PUSH1 0x4 DUP4 ADD MSTORE DUP9 AND PUSH1 0x24 DUP3 ADD MSTORE PUSH1 0x1 PUSH1 0x1 PUSH1 0xA0 SHL SUB SWAP1 SWAP2 AND SWAP1 PUSH4 0x1ACC55EA SWAP1 PUSH1 0x44 ADD PUSH1 0x20 PUSH1 0x40 MLOAD DUP1 DUP4 SUB DUP2 DUP7 GAS STATICCALL ISZERO DUP1 ISZERO PUSH2 0x32F7 JUMPI RETURNDATASIZE PUSH1 0x0 DUP1 RETURNDATACOPY RETURNDATASIZE PUSH1 0x0 REVERT JUMPDEST POP POP POP POP PUSH1 0x40 MLOAD RETURNDATASIZE PUSH1 0x1F NOT PUSH1 0x1F DUP3 ADD AND DUP3 ADD DUP1 PUSH1 0x40 MSTORE POP DUP2 ADD SWAP1 PUSH2 0x331B SWAP2 SWAP1 PUSH2 0x51DC JUMP JUMPDEST PUSH2 0x3367 JUMPI PUSH1 0x40 MLOAD PUSH3 0x461BCD PUSH1 0xE5 SHL DUP2 MSTORE PUSH1 0x20 PUSH1 0x4 DUP3 ADD MSTORE PUSH1 0x19 PUSH1 0x24 DUP3 ADD MSTORE PUSH32 0x596F75206D7573742068617665206120436C616E2048616C6C00000000000000 PUSH1 0x44 DUP3 ADD MSTORE PUSH1 0x64 ADD PUSH2 0x7AF JUMP JUMPDEST PUSH1 0x16 SLOAD PUSH1 0x40 MLOAD PUSH32 0x23B872DD00000000000000000000000000000000000000000000000000000000 DUP2 MSTORE CALLER PUSH1 0x4 DUP3 ADD MSTORE ADDRESS PUSH1 0x24 DUP3 ADD MSTORE PUSH5 0x174876E800 PUSH1 0x44 DUP3 ADD MSTORE PUSH1 0x1 PUSH1 0x1 PUSH1 0xA0 SHL SUB SWAP1 SWAP2 AND SWAP1 PUSH4 0x23B872DD SWAP1 PUSH1 0x64 ADD PUSH1 0x20 PUSH1 0x40 MLOAD DUP1 DUP4 SUB DUP2 PUSH1 0x0 DUP8 GAS CALL ISZERO DUP1 ISZERO PUSH2 0x33DB JUMPI RETURNDATASIZE PUSH1 0x0 DUP1 RETURNDATACOPY RETURNDATASIZE PUSH1 0x0 REVERT JUMPDEST POP POP POP POP PUSH1 0x40 MLOAD RETURNDATASIZE PUSH1 0x1F NOT PUSH1 0x1F DUP3 ADD AND DUP3 ADD DUP1 PUSH1 0x40 MSTORE POP DUP2 ADD SWAP1 PUSH2 0x33FF SWAP2 SWAP1 PUSH2 0x51DC JUMP JUMPDEST PUSH2 0x344B JUMPI PUSH1 0x40 MLOAD PUSH3 0x461BCD PUSH1 0xE5 SHL DUP2 MSTORE PUSH1 0x20 PUSH1 0x4 DUP3 ADD MSTORE PUSH1 0x13 PUSH1 0x24 DUP3 ADD MSTORE PUSH32 0x4C4F50207472616E73666572206661696C656400000000000000000000000000 PUSH1 0x44 DUP3 ADD MSTORE PUSH1 0x64 ADD PUSH2 0x7AF JUMP JUMPDEST PUSH1 0x16 SLOAD PUSH1 0x40 MLOAD PUSH32 0x42966C6800000000000000000000000000000000000000000000000000000000 DUP2 MSTORE PUSH5 0x174876E800 PUSH1 0x4 DUP3 ADD MSTORE PUSH1 0x1 PUSH1 0x1 PUSH1 0xA0 SHL SUB SWAP1 SWAP2 AND SWAP1 PUSH4 0x42966C68 SWAP1 PUSH1 0x24 ADD PUSH1 0x20 PUSH1 0x40 MLOAD DUP1 DUP4 SUB DUP2 PUSH1 0x0 DUP8 GAS CALL ISZERO DUP1 ISZERO PUSH2 0x34B3 JUMPI RETURNDATASIZE PUSH1 0x0 DUP1 RETURNDATACOPY RETURNDATASIZE PUSH1 0x0 REVERT JUMPDEST POP POP POP POP PUSH1 0x40 MLOAD RETURNDATASIZE PUSH1 0x1F NOT PUSH1 0x1F DUP3 ADD AND DUP3 ADD DUP1 PUSH1 0x40 MSTORE POP DUP2 ADD SWAP1 PUSH2 0x34D7 SWAP2 SWAP1 PUSH2 0x51DC JUMP JUMPDEST PUSH2 0x3523 JUMPI PUSH1 0x40 MLOAD PUSH3 0x461BCD PUSH1 0xE5 SHL DUP2 MSTORE PUSH1 0x20 PUSH1 0x4 DUP3 ADD MSTORE PUSH1 0xB PUSH1 0x24 DUP3 ADD MSTORE PUSH32 0x4275726E206661696C6564000000000000000000000000000000000000000000 PUSH1 0x44 DUP3 ADD MSTORE PUSH1 0x64 ADD PUSH2 0x7AF JUMP JUMPDEST PUSH1 0x1A DUP1 SLOAD PUSH2 0xFFFF AND SWAP1 PUSH1 0x0 PUSH2 0x3537 DUP4 PUSH2 0x54A0 JUMP JUMPDEST SWAP2 SWAP1 PUSH2 0x100 EXP DUP2 SLOAD DUP2 PUSH2 0xFFFF MUL NOT AND SWAP1 DUP4 PUSH2 0xFFFF AND MUL OR SWAP1 SSTORE POP POP PUSH1 0x40 MLOAD DUP1 PUSH1 0xA0 ADD PUSH1 0x40 MSTORE DUP1 DUP7 DUP7 DUP1 DUP1 PUSH1 0x1F ADD PUSH1 0x20 DUP1 SWAP2 DIV MUL PUSH1 0x20 ADD PUSH1 0x40 MLOAD SWAP1 DUP2 ADD PUSH1 0x40 MSTORE DUP1 SWAP4 SWAP3 SWAP2 SWAP1 DUP2 DUP2 MSTORE PUSH1 0x20 ADD DUP4 DUP4 DUP1 DUP3 DUP5 CALLDATACOPY PUSH1 0x0 SWAP3 ADD DUP3 SWAP1 MSTORE POP SWAP4 DUP6 MSTORE POP POP POP PUSH1 0xFF DUP1 DUP12 AND PUSH1 0x20 DUP1 DUP6 ADD SWAP2 SWAP1 SWAP2 MSTORE SWAP1 DUP11 AND PUSH1 0x40 DUP1 DUP6 ADD SWAP2 SWAP1 SWAP2 MSTORE PUSH1 0x1 PUSH1 0x60 DUP6 ADD DUP2 SWAP1 MSTORE PUSH1 0x80 SWAP1 SWAP5 ADD SWAP4 SWAP1 SWAP4 MSTORE PUSH1 0x1A SLOAD PUSH2 0xFFFF AND DUP3 MSTORE PUSH1 0x1B SWAP1 MSTORE KECCAK256 DUP2 MLOAD DUP2 SWAP1 PUSH2 0x35DD SWAP1 DUP3 PUSH2 0x54C1 JUMP JUMPDEST POP PUSH1 0x20 DUP3 ADD MLOAD PUSH1 0x1 SWAP1 SWAP2 ADD DUP1 SLOAD PUSH1 0x40 DUP5 ADD MLOAD PUSH1 0x60 DUP6 ADD MLOAD PUSH1 0x80 SWAP1 SWAP6 ADD MLOAD ISZERO ISZERO PUSH4 0x1000000 MUL PUSH32 0xFFFFFFFFFFFFFFFFFFFFFFFFFFFFFFFFFFFFFFFFFFFFFFFFFFFFFFFF00FFFFFF PUSH1 0xFF SWAP7 DUP8 AND PUSH3 0x10000 MUL AND PUSH32 0xFFFFFFFFFFFFFFFFFFFFFFFFFFFFFFFFFFFFFFFFFFFFFFFFFFFFFFFF0000FFFF SWAP3 DUP8 AND PUSH2 0x100 MUL PUSH2 0xFFFF NOT SWAP1 SWAP5 AND SWAP7 SWAP1 SWAP6 AND SWAP6 SWAP1 SWAP6 OR SWAP2 SWAP1 SWAP2 OR AND SWAP2 SWAP1 SWAP2 OR SWAP2 SWAP1 SWAP2 OR SWAP1 SSTORE PUSH1 0x0 PUSH2 0x368C DUP9 DUP9 PUSH1 0xFF AND PUSH1 0x8 SWAP2 SWAP1 SWAP2 SHL PUSH2 0xFF00 AND OR SWAP1 JUMP JUMPDEST PUSH1 0x1A DUP1 SLOAD PUSH1 0xFF DUP1 DUP13 AND PUSH1 0x0 SWAP1 DUP2 MSTORE PUSH1 0x21 PUSH1 0x20 SWAP1 DUP2 MSTORE PUSH1 0x40 DUP1 DUP4 KECCAK256 SWAP4 DUP15 AND DUP4 MSTORE SWAP3 DUP2 MSTORE DUP3 DUP3 KECCAK256 DUP1 SLOAD PUSH2 0xFFFF NOT AND PUSH2 0xFFFF SWAP6 DUP7 AND OR SWAP1 SSTORE DUP3 MLOAD DUP1 DUP5 ADD DUP5 MSTORE DUP6 SLOAD DUP6 AND DUP2 MSTORE PUSH1 0x1 DUP2 DUP4 ADD DUP2 DUP2 MSTORE SWAP8 DUP7 AND DUP1 DUP6 MSTORE PUSH1 0x1C DUP5 MSTORE DUP6 DUP6 KECCAK256 SWAP3 MLOAD DUP4 SLOAD SWAP10 MLOAD ISZERO ISZERO PUSH3 0x10000 MUL PUSH32 0xFFFFFFFFFFFFFFFFFFFFFFFFFFFFFFFFFFFFFFFFFFFFFFFFFFFFFFFFFF000000 SWAP1 SWAP11 AND SWAP1 DUP9 AND OR SWAP9 SWAP1 SWAP9 OR SWAP1 SWAP2 SSTORE DUP6 SLOAD DUP6 AND DUP4 MSTORE PUSH1 0x1D DUP3 MSTORE DUP4 DUP4 KECCAK256 DUP1 SLOAD DUP1 DUP4 ADD DUP3 SSTORE SWAP1 DUP5 MSTORE DUP3 DUP5 KECCAK256 PUSH1 0x10 DUP3 DIV ADD DUP1 SLOAD PUSH1 0xF SWAP1 SWAP3 AND PUSH1 0x2 MUL PUSH2 0x100 EXP SWAP9 DUP10 MUL SWAP9 DUP8 MUL NOT SWAP1 SWAP2 AND SWAP8 SWAP1 SWAP8 OR SWAP1 SWAP7 SSTORE DUP8 DUP3 MSTORE PUSH1 0x18 DUP2 MSTORE DUP3 DUP3 KECCAK256 DUP1 SLOAD PUSH32 0xFFFFFFFFFFFFFFFFFFFFFFFFFFFFFFFFFFFFFFFFFFFFFFFFFFFFFFFFFFFFFF00 AND SWAP1 SWAP7 OR SWAP1 SWAP6 SSTORE SWAP3 SLOAD SWAP1 SWAP2 AND DUP3 MSTORE PUSH1 0x19 SWAP1 SWAP3 MSTORE KECCAK256 SWAP2 SWAP1 SWAP2 SSTORE POP PUSH2 0xA76 SWAP2 POP PUSH2 0x483F SWAP1 POP JUMP JUMPDEST PUSH1 0x60 PUSH1 0x0 PUSH1 0x1 JUMPDEST PUSH1 0x1A SLOAD PUSH2 0xFFFF SWAP1 DUP2 AND SWAP1 DUP3 AND GT PUSH2 0x380D JUMPI PUSH2 0xFFFF DUP2 AND PUSH1 0x0 SWAP1 DUP2 MSTORE PUSH1 0x1B PUSH1 0x20 MSTORE PUSH1 0x40 SWAP1 KECCAK256 PUSH1 0x1 ADD SLOAD PUSH4 0x1000000 SWAP1 DIV PUSH1 0xFF AND ISZERO PUSH2 0x37FB JUMPI DUP2 PUSH2 0x37F7 DUP2 PUSH2 0x544B JUMP JUMPDEST SWAP3 POP POP JUMPDEST DUP1 PUSH2 0x3805 DUP2 PUSH2 0x54A0 JUMP JUMPDEST SWAP2 POP POP PUSH2 0x37B6 JUMP JUMPDEST POP PUSH1 0x0 DUP2 PUSH8 0xFFFFFFFFFFFFFFFF DUP2 GT ISZERO PUSH2 0x3829 JUMPI PUSH2 0x3829 PUSH2 0x51FE JUMP JUMPDEST PUSH1 0x40 MLOAD SWAP1 DUP1 DUP3 MSTORE DUP1 PUSH1 0x20 MUL PUSH1 0x20 ADD DUP3 ADD PUSH1 0x40 MSTORE DUP1 ISZERO PUSH2 0x3883 JUMPI DUP2 PUSH1 0x20 ADD JUMPDEST PUSH1 0x40 DUP1 MLOAD PUSH1 0xA0 DUP2 ADD DUP3 MSTORE PUSH1 0x60 DUP1 DUP3 MSTORE PUSH1 0x0 PUSH1 0x20 DUP1 DUP5 ADD DUP3 SWAP1 MSTORE SWAP4 DUP4 ADD DUP2 SWAP1 MSTORE SWAP1 DUP3 ADD DUP2 SWAP1 MSTORE PUSH1 0x80 DUP3 ADD MSTORE DUP3 MSTORE PUSH1 0x0 NOT SWAP1 SWAP3 ADD SWAP2 ADD DUP2 PUSH2 0x3847 JUMPI SWAP1 POP JUMPDEST POP SWAP1 POP PUSH1 0x0 PUSH1 0x1 JUMPDEST PUSH1 0x1A SLOAD PUSH2 0xFFFF SWAP1 DUP2 AND SWAP1 DUP3 AND GT PUSH2 0x1B0B JUMPI PUSH2 0xFFFF DUP2 AND PUSH1 0x0 SWAP1 DUP2 MSTORE PUSH1 0x1B PUSH1 0x20 MSTORE PUSH1 0x40 SWAP1 KECCAK256 PUSH1 0x1 ADD SLOAD PUSH4 0x1000000 SWAP1 DIV PUSH1 0xFF AND ISZERO PUSH2 0x39D9 JUMPI PUSH2 0xFFFF DUP2 AND PUSH1 0x0 SWAP1 DUP2 MSTORE PUSH1 0x1B PUSH1 0x20 MSTORE PUSH1 0x40 SWAP1 DUP2 SWAP1 KECCAK256 DUP2 MLOAD PUSH1 0xA0 DUP2 ADD SWAP1 SWAP3 MSTORE DUP1 SLOAD DUP3 SWAP1 DUP3 SWAP1 PUSH2 0x38EF SWAP1 PUSH2 0x522D JUMP JUMPDEST DUP1 PUSH1 0x1F ADD PUSH1 0x20 DUP1 SWAP2 DIV MUL PUSH1 0x20 ADD PUSH1 0x40 MLOAD SWAP1 DUP2 ADD PUSH1 0x40 MSTORE DUP1 SWAP3 SWAP2 SWAP1 DUP2 DUP2 MSTORE PUSH1 0x20 ADD DUP3 DUP1 SLOAD PUSH2 0x391B SWAP1 PUSH2 0x522D JUMP JUMPDEST DUP1 ISZERO PUSH2 0x3968 JUMPI DUP1 PUSH1 0x1F LT PUSH2 0x393D JUMPI PUSH2 0x100 DUP1 DUP4 SLOAD DIV MUL DUP4 MSTORE SWAP2 PUSH1 0x20 ADD SWAP2 PUSH2 0x3968 JUMP JUMPDEST DUP3 ADD SWAP2 SWAP1 PUSH1 0x0 MSTORE PUSH1 0x20 PUSH1 0x0 KECCAK256 SWAP1 JUMPDEST DUP2 SLOAD DUP2 MSTORE SWAP1 PUSH1 0x1 ADD SWAP1 PUSH1 0x20 ADD DUP1 DUP4 GT PUSH2 0x394B JUMPI DUP3 SWAP1 SUB PUSH1 0x1F AND DUP3 ADD SWAP2 JUMPDEST POP POP POP SWAP2 DUP4 MSTORE POP POP PUSH1 0x1 SWAP2 SWAP1 SWAP2 ADD SLOAD PUSH1 0xFF DUP1 DUP3 AND PUSH1 0x20 DUP5 ADD MSTORE PUSH2 0x100 DUP3 DIV DUP2 AND PUSH1 0x40 DUP5 ADD MSTORE PUSH3 0x10000 DUP3 DIV DUP2 AND PUSH1 0x60 DUP5 ADD MSTORE PUSH4 0x1000000 SWAP1 SWAP2 DIV AND ISZERO ISZERO PUSH1 0x80 SWAP1 SWAP2 ADD MSTORE DUP4 MLOAD DUP5 SWAP1 DUP5 SWAP1 DUP2 LT PUSH2 0x39BF JUMPI PUSH2 0x39BF PUSH2 0x53DA JUMP JUMPDEST PUSH1 0x20 MUL PUSH1 0x20 ADD ADD DUP2 SWAP1 MSTORE POP DUP2 DUP1 PUSH2 0x39D5 SWAP1 PUSH2 0x544B JUMP JUMPDEST SWAP3 POP POP JUMPDEST DUP1 PUSH2 0x39E3 DUP2 PUSH2 0x54A0 JUMP JUMPDEST SWAP2 POP POP PUSH2 0x388B JUMP JUMPDEST PUSH1 0xFF DUP1 DUP4 AND PUSH1 0x0 SWAP1 DUP2 MSTORE PUSH1 0x21 PUSH1 0x20 SWAP1 DUP2 MSTORE PUSH1 0x40 DUP1 DUP4 KECCAK256 SWAP4 DUP6 AND DUP4 MSTORE SWAP3 SWAP1 MSTORE SWAP1 DUP2 KECCAK256 SLOAD PUSH1 0x60 SWAP2 PUSH2 0xFFFF SWAP1 SWAP2 AND SWAP1 DUP2 SWAP1 SUB PUSH2 0x3A34 JUMPI POP POP PUSH1 0x40 DUP1 MLOAD PUSH1 0x20 DUP2 ADD SWAP1 SWAP2 MSTORE PUSH1 0x0 DUP2 MSTORE PUSH2 0xB2B JUMP JUMPDEST PUSH2 0xFFFF DUP2 AND PUSH1 0x0 SWAP1 DUP2 MSTORE PUSH1 0x1B PUSH1 0x20 MSTORE PUSH1 0x40 SWAP1 KECCAK256 DUP1 SLOAD PUSH2 0x3A52 SWAP1 PUSH2 0x522D JUMP JUMPDEST DUP1 PUSH1 0x1F ADD PUSH1 0x20 DUP1 SWAP2 DIV MUL PUSH1 0x20 ADD PUSH1 0x40 MLOAD SWAP1 DUP2 ADD PUSH1 0x40 MSTORE DUP1 SWAP3 SWAP2 SWAP1 DUP2 DUP2 MSTORE PUSH1 0x20 ADD DUP3 DUP1 SLOAD PUSH2 0x3A7E SWAP1 PUSH2 0x522D JUMP JUMPDEST DUP1 ISZERO PUSH2 0x3ACB JUMPI DUP1 PUSH1 0x1F LT PUSH2 0x3AA0 JUMPI PUSH2 0x100 DUP1 DUP4 SLOAD DIV MUL DUP4 MSTORE SWAP2 PUSH1 0x20 ADD SWAP2 PUSH2 0x3ACB JUMP JUMPDEST DUP3 ADD SWAP2 SWAP1 PUSH1 0x0 MSTORE PUSH1 0x20 PUSH1 0x0 KECCAK256 SWAP1 JUMPDEST DUP2 SLOAD DUP2 MSTORE SWAP1 PUSH1 0x1 ADD SWAP1 PUSH1 0x20 ADD DUP1 DUP4 GT PUSH2 0x3AAE JUMPI DUP3 SWAP1 SUB PUSH1 0x1F AND DUP3 ADD SWAP2 JUMPDEST POP POP POP POP POP SWAP2 POP POP SWAP3 SWAP2 POP POP JUMP JUMPDEST PUSH2 0x3AE1 PUSH2 0x47E6 JUMP JUMPDEST PUSH1 0x15 SLOAD PUSH1 0x40 MLOAD PUSH4 0x8A888953 PUSH1 0xE0 SHL DUP2 MSTORE PUSH1 0xFF DUP1 DUP6 AND PUSH1 0x4 DUP4 ADD MSTORE DUP4 AND PUSH1 0x24 DUP3 ADD MSTORE DUP4 SWAP2 DUP4 SWAP2 CALLER SWAP2 PUSH1 0x1 PUSH1 0x1 PUSH1 0xA0 SHL SUB AND SWAP1 PUSH4 0x8A888953 SWAP1 PUSH1 0x44 ADD PUSH1 0x20 PUSH1 0x40 MLOAD DUP1 DUP4 SUB DUP2 DUP7 GAS STATICCALL ISZERO DUP1 ISZERO PUSH2 0x3B38 JUMPI RETURNDATASIZE PUSH1 0x0 DUP1 RETURNDATACOPY RETURNDATASIZE PUSH1 0x0 REVERT JUMPDEST POP POP POP POP PUSH1 0x40 MLOAD RETURNDATASIZE PUSH1 0x1F NOT PUSH1 0x1F DUP3 ADD AND DUP3 ADD DUP1 PUSH1 0x40 MSTORE POP DUP2 ADD SWAP1 PUSH2 0x3B5C SWAP2 SWAP1 PUSH2 0x51BF JUMP JUMPDEST PUSH1 0x1 PUSH1 0x1 PUSH1 0xA0 SHL SUB AND EQ PUSH2 0x3BB2 JUMPI PUSH1 0x40 MLOAD PUSH3 0x461BCD PUSH1 0xE5 SHL DUP2 MSTORE PUSH1 0x20 PUSH1 0x4 DUP3 ADD MSTORE PUSH1 0x18 PUSH1 0x24 DUP3 ADD MSTORE PUSH32 0x596F7520646F206E6F74206F776E20746869732074696C650000000000000000 PUSH1 0x44 DUP3 ADD MSTORE PUSH1 0x64 ADD PUSH2 0x7AF JUMP JUMPDEST PUSH1 0xFF DUP4 AND PUSH1 0x8 DUP6 SWAP1 SHL PUSH2 0xFF00 AND OR PUSH1 0x0 DUP2 DUP2 MSTORE PUSH1 0x1E PUSH1 0x20 MSTORE PUSH1 0x40 SWAP1 KECCAK256 SLOAD PUSH2 0xFFFF AND DUP1 PUSH2 0x3C20 JUMPI PUSH1 0x40 MLOAD PUSH3 0x461BCD PUSH1 0xE5 SHL DUP2 MSTORE PUSH1 0x20 PUSH1 0x4 DUP3 ADD MSTORE PUSH1 0x1F PUSH1 0x24 DUP3 ADD MSTORE PUSH32 0x4E6F2070656E64696E6720696E7669746520666F7220746869732074696C6500 PUSH1 0x44 DUP3 ADD MSTORE PUSH1 0x64 ADD PUSH2 0x7AF JUMP JUMPDEST PUSH2 0xFFFF DUP2 AND PUSH1 0x0 SWAP1 DUP2 MSTORE PUSH1 0x1B PUSH1 0x20 MSTORE PUSH1 0x40 SWAP1 KECCAK256 PUSH1 0x1 ADD SLOAD PUSH4 0x1000000 SWAP1 DIV PUSH1 0xFF AND PUSH2 0x3CD1 JUMPI PUSH2 0xFFFF DUP3 AND PUSH1 0x0 SWAP1 DUP2 MSTORE PUSH1 0x1E PUSH1 0x20 MSTORE PUSH1 0x40 SWAP1 DUP2 SWAP1 KECCAK256 DUP1 SLOAD PUSH2 0xFFFF NOT AND SWAP1 SSTORE MLOAD PUSH3 0x461BCD PUSH1 0xE5 SHL DUP2 MSTORE PUSH2 0x7AF SWAP1 PUSH1 0x4 ADD PUSH1 0x20 DUP1 DUP3 MSTORE PUSH1 0x22 SWAP1 DUP3 ADD MSTORE PUSH32 0x436C616E207761732064697362616E6465643B20696E7669746520696E76616C PUSH1 0x40 DUP3 ADD MSTORE PUSH32 0x6964000000000000000000000000000000000000000000000000000000000000 PUSH1 0x60 DUP3 ADD MSTORE PUSH1 0x80 ADD SWAP1 JUMP JUMPDEST PUSH1 0xFF DUP1 DUP8 AND PUSH1 0x0 SWAP1 DUP2 MSTORE PUSH1 0x21 PUSH1 0x20 SWAP1 DUP2 MSTORE PUSH1 0x40 DUP1 DUP4 KECCAK256 SWAP4 DUP10 AND DUP4 MSTORE SWAP3 SWAP1 MSTORE KECCAK256 SLOAD PUSH2 0xFFFF AND ISZERO PUSH2 0x3D60 JUMPI PUSH2 0xFFFF DUP3 AND PUSH1 0x0 SWAP1 DUP2 MSTORE PUSH1 0x1E PUSH1 0x20 MSTORE PUSH1 0x40 SWAP1 DUP2 SWAP1 KECCAK256 DUP1 SLOAD PUSH2 0xFFFF NOT AND SWAP1 SSTORE MLOAD PUSH3 0x461BCD PUSH1 0xE5 SHL DUP2 MSTORE PUSH2 0x7AF SWAP1 PUSH1 0x4 ADD PUSH1 0x20 DUP1 DUP3 MSTORE PUSH1 0x16 SWAP1 DUP3 ADD MSTORE PUSH32 0x54696C6520616C726561647920696E206120636C616E00000000000000000000 PUSH1 0x40 DUP3 ADD MSTORE PUSH1 0x60 ADD SWAP1 JUMP JUMPDEST PUSH2 0xFFFF DUP2 AND PUSH1 0x0 SWAP1 DUP2 MSTORE PUSH1 0x1B PUSH1 0x20 MSTORE PUSH1 0x40 SWAP1 KECCAK256 PUSH1 0x1 ADD SLOAD PUSH1 0x1E PUSH3 0x10000 SWAP1 SWAP2 DIV PUSH1 0xFF AND LT PUSH2 0x3DA9 JUMPI POP PUSH2 0xFFFF AND PUSH1 0x0 SWAP1 DUP2 MSTORE PUSH1 0x1E PUSH1 0x20 MSTORE PUSH1 0x40 SWAP1 KECCAK256 DUP1 SLOAD PUSH2 0xFFFF NOT AND SWAP1 SSTORE PUSH2 0x1DCA JUMP JUMPDEST PUSH1 0xFF DUP7 DUP2 AND PUSH1 0x0 SWAP1 DUP2 MSTORE PUSH1 0x21 PUSH1 0x20 SWAP1 DUP2 MSTORE PUSH1 0x40 DUP1 DUP4 KECCAK256 DUP10 DUP6 AND DUP5 MSTORE DUP3 MSTORE DUP1 DUP4 KECCAK256 DUP1 SLOAD PUSH2 0xFFFF NOT AND PUSH2 0xFFFF DUP8 DUP2 AND SWAP2 DUP3 OR SWAP1 SWAP3 SSTORE DUP3 MLOAD DUP1 DUP5 ADD DUP5 MSTORE DUP2 DUP2 MSTORE PUSH1 0x1 DUP2 DUP7 ADD DUP2 DUP2 MSTORE DUP11 DUP6 AND DUP1 DUP10 MSTORE PUSH1 0x1C DUP9 MSTORE DUP7 DUP10 KECCAK256 SWAP4 MLOAD DUP5 SLOAD SWAP3 MLOAD SWAP1 DUP8 AND PUSH32 0xFFFFFFFFFFFFFFFFFFFFFFFFFFFFFFFFFFFFFFFFFFFFFFFFFFFFFFFFFF000000 SWAP1 SWAP4 AND SWAP3 SWAP1 SWAP3 OR PUSH3 0x10000 SWAP3 ISZERO ISZERO DUP4 MUL OR SWAP1 SWAP4 SSTORE DUP4 DUP9 MSTORE PUSH1 0x1D DUP8 MSTORE DUP6 DUP9 KECCAK256 DUP1 SLOAD DUP1 DUP5 ADD DUP3 SSTORE SWAP1 DUP10 MSTORE DUP8 DUP10 KECCAK256 PUSH1 0x10 DUP3 DIV ADD DUP1 SLOAD PUSH1 0x2 PUSH1 0xF SWAP1 SWAP4 AND DUP4 MUL PUSH2 0x100 EXP SWAP8 DUP9 MUL NOT AND SWAP7 SWAP1 SWAP5 MUL SWAP6 SWAP1 SWAP6 OR SWAP1 SWAP3 SSTORE SWAP2 DUP7 MSTORE PUSH1 0x1B SWAP1 SWAP5 MSTORE SWAP2 SWAP1 SWAP4 KECCAK256 ADD DUP1 SLOAD SWAP2 SWAP1 SWAP2 DIV SWAP1 SWAP3 AND SWAP2 SWAP1 PUSH2 0x3E95 DUP4 PUSH2 0x5465 JUMP JUMPDEST DUP3 SLOAD PUSH1 0xFF SWAP2 DUP3 AND PUSH2 0x100 SWAP4 SWAP1 SWAP4 EXP SWAP3 DUP4 MUL SWAP2 SWAP1 SWAP3 MUL NOT SWAP1 SWAP2 AND OR SWAP1 SSTORE POP POP PUSH2 0xFFFF AND PUSH1 0x0 SWAP1 DUP2 MSTORE PUSH1 0x1E PUSH1 0x20 MSTORE PUSH1 0x40 SWAP1 KECCAK256 DUP1 SLOAD PUSH2 0xFFFF NOT AND SWAP1 SSTORE POP POP PUSH2 0x188B PUSH1 0x1 PUSH1 0x0 SSTORE JUMP JUMPDEST PUSH2 0xFFFF DUP2 AND PUSH1 0x0 SWAP1 DUP2 MSTORE PUSH1 0x1B PUSH1 0x20 MSTORE PUSH1 0x40 DUP2 KECCAK256 PUSH1 0x1 ADD SLOAD DUP2 SWAP1 PUSH4 0x1000000 SWAP1 DIV PUSH1 0xFF AND PUSH2 0x3F49 JUMPI PUSH1 0x40 MLOAD PUSH3 0x461BCD PUSH1 0xE5 SHL DUP2 MSTORE PUSH1 0x20 PUSH1 0x4 DUP3 ADD MSTORE PUSH1 0x13 PUSH1 0x24 DUP3 ADD MSTORE PUSH32 0x436C616E20646F6573206E6F7420657869737400000000000000000000000000 PUSH1 0x44 DUP3 ADD MSTORE PUSH1 0x64 ADD PUSH2 0x7AF JUMP JUMPDEST POP POP PUSH2 0xFFFF AND PUSH1 0x0 SWAP1 DUP2 MSTORE PUSH1 0x1B PUSH1 0x20 MSTORE PUSH1 0x40 SWAP1 KECCAK256 PUSH1 0x1 ADD SLOAD PUSH1 0xFF DUP1 DUP3 AND SWAP3 PUSH2 0x100 SWAP1 SWAP3 DIV AND SWAP1 JUMP JUMPDEST PUSH1 0x1D PUSH1 0x20 MSTORE DUP2 PUSH1 0x0 MSTORE PUSH1 0x40 PUSH1 0x0 KECCAK256 DUP2 DUP2 SLOAD DUP2 LT PUSH2 0x3F8D JUMPI PUSH1 0x0 DUP1 REVERT JUMPDEST SWAP1 PUSH1 0x0 MSTORE PUSH1 0x20 PUSH1 0x0 KECCAK256 SWAP1 PUSH1 0x10 SWAP2 DUP3 DUP3 DIV ADD SWAP2 SWAP1 MOD PUSH1 0x2 MUL SWAP2 POP SWAP2 POP SWAP1 SLOAD SWAP1 PUSH2 0x100 EXP SWAP1 DIV PUSH2 0xFFFF AND DUP2 JUMP JUMPDEST PUSH1 0x1 DUP3 PUSH1 0x14 DUP2 LT PUSH2 0x3FC8 JUMPI PUSH1 0x0 DUP1 REVERT JUMPDEST ADD DUP2 PUSH1 0x14 DUP2 LT PUSH2 0x3FD7 JUMPI PUSH1 0x0 DUP1 REVERT JUMPDEST PUSH1 0x20 DUP2 DIV SWAP1 SWAP2 ADD SLOAD PUSH1 0xFF PUSH1 0x1F SWAP1 SWAP3 AND PUSH2 0x100 EXP SWAP1 DIV AND SWAP2 POP DUP3 SWAP1 POP JUMP JUMPDEST PUSH1 0x1B PUSH1 0x20 MSTORE PUSH1 0x0 SWAP1 DUP2 MSTORE PUSH1 0x40 SWAP1 KECCAK256 DUP1 SLOAD DUP2 SWAP1 PUSH2 0x400F SWAP1 PUSH2 0x522D JUMP JUMPDEST DUP1 PUSH1 0x1F ADD PUSH1 0x20 DUP1 SWAP2 DIV MUL PUSH1 0x20 ADD PUSH1 0x40 MLOAD SWAP1 DUP2 ADD PUSH1 0x40 MSTORE DUP1 SWAP3 SWAP2 SWAP1 DUP2 DUP2 MSTORE PUSH1 0x20 ADD DUP3 DUP1 SLOAD PUSH2 0x403B SWAP1 PUSH2 0x522D JUMP JUMPDEST DUP1 ISZERO PUSH2 0x4088 JUMPI DUP1 PUSH1 0x1F LT PUSH2 0x405D JUMPI PUSH2 0x100 DUP1 DUP4 SLOAD DIV MUL DUP4 MSTORE SWAP2 PUSH1 0x20 ADD SWAP2 PUSH2 0x4088 JUMP JUMPDEST DUP3 ADD SWAP2 SWAP1 PUSH1 0x0 MSTORE PUSH1 0x20 PUSH1 0x0 KECCAK256 SWAP1 JUMPDEST DUP2 SLOAD DUP2 MSTORE SWAP1 PUSH1 0x1 ADD SWAP1 PUSH1 0x20 ADD DUP1 DUP4 GT PUSH2 0x406B JUMPI DUP3 SWAP1 SUB PUSH1 0x1F AND DUP3 ADD SWAP2 JUMPDEST POP POP POP PUSH1 0x1 SWAP1 SWAP4 ADD SLOAD SWAP2 SWAP3 POP POP PUSH1 0xFF DUP1 DUP3 AND SWAP2 PUSH2 0x100 DUP2 DIV DUP3 AND SWAP2 PUSH3 0x10000 DUP3 DIV DUP2 AND SWAP2 PUSH4 0x1000000 SWAP1 DIV AND DUP6 JUMP JUMPDEST PUSH1 0x1 PUSH1 0x1 PUSH1 0xA0 SHL SUB DUP2 AND PUSH1 0x0 SWAP1 DUP2 MSTORE PUSH1 0x20 DUP1 MSTORE PUSH1 0x40 SWAP1 KECCAK256 DUP1 SLOAD PUSH1 0x60 SWAP2 SWAP1 PUSH2 0x40DD SWAP1 PUSH2 0x522D JUMP JUMPDEST DUP1 PUSH1 0x1F ADD PUSH1 0x20 DUP1 SWAP2 DIV MUL PUSH1 0x20 ADD PUSH1 0x40 MLOAD SWAP1 DUP2 ADD PUSH1 0x40 MSTORE DUP1 SWAP3 SWAP2 SWAP1 DUP2 DUP2 MSTORE PUSH1 0x20 ADD DUP3 DUP1 SLOAD PUSH2 0x4109 SWAP1 PUSH2 0x522D JUMP JUMPDEST DUP1 ISZERO PUSH2 0x4156 JUMPI DUP1 PUSH1 0x1F LT PUSH2 0x412B JUMPI PUSH2 0x100 DUP1 DUP4 SLOAD DIV MUL DUP4 MSTORE SWAP2 PUSH1 0x20 ADD SWAP2 PUSH2 0x4156 JUMP JUMPDEST DUP3 ADD SWAP2 SWAP1 PUSH1 0x0 MSTORE PUSH1 0x20 PUSH1 0x0 KECCAK256 SWAP1 JUMPDEST DUP2 SLOAD DUP2 MSTORE SWAP1 PUSH1 0x1 ADD SWAP1 PUSH1 0x20 ADD DUP1 DUP4 GT PUSH2 0x4139 JUMPI DUP3 SWAP1 SUB PUSH1 0x1F AND DUP3 ADD SWAP2 JUMPDEST POP POP POP POP POP SWAP1 POP SWAP2 SWAP1 POP JUMP JUMPDEST PUSH2 0x416A PUSH2 0x47E6 JUMP JUMPDEST PUSH2 0xFFFF DUP5 AND PUSH1 0x0 SWAP1 DUP2 MSTORE PUSH1 0x1B PUSH1 0x20 MSTORE PUSH1 0x40 SWAP1 KECCAK256 PUSH1 0x1 ADD SLOAD DUP5 SWAP1 DUP5 SWAP1 DUP5 SWAP1 PUSH4 0x1000000 SWAP1 DIV PUSH1 0xFF AND PUSH2 0x41DD JUMPI PUSH1 0x40 MLOAD PUSH3 0x461BCD PUSH1 0xE5 SHL DUP2 MSTORE PUSH1 0x20 PUSH1 0x4 DUP3 ADD MSTORE PUSH1 0x13 PUSH1 0x24 DUP3 ADD MSTORE PUSH32 0x436C616E20646F6573206E6F7420657869737400000000000000000000000000 PUSH1 0x44 DUP3 ADD MSTORE PUSH1 0x64 ADD PUSH2 0x7AF JUMP JUMPDEST PUSH2 0xFFFF DUP4 AND PUSH1 0x0 SWAP1 DUP2 MSTORE PUSH1 0x1B PUSH1 0x20 MSTORE PUSH1 0x40 SWAP1 KECCAK256 PUSH1 0x1 ADD SLOAD PUSH1 0xFF DUP4 DUP2 AND SWAP2 AND EQ DUP1 ISZERO PUSH2 0x4228 JUMPI POP PUSH2 0xFFFF DUP4 AND PUSH1 0x0 SWAP1 DUP2 MSTORE PUSH1 0x1B PUSH1 0x20 MSTORE PUSH1 0x40 SWAP1 KECCAK256 PUSH1 0x1 ADD SLOAD PUSH1 0xFF DUP3 DUP2 AND PUSH2 0x100 SWAP1 SWAP3 DIV AND EQ JUMPDEST PUSH2 0x4274 JUMPI PUSH1 0x40 MLOAD PUSH3 0x461BCD PUSH1 0xE5 SHL DUP2 MSTORE PUSH1 0x20 PUSH1 0x4 DUP3 ADD MSTORE PUSH1 0xF PUSH1 0x24 DUP3 ADD MSTORE PUSH32 0x4E6F74206C65616465722074696C650000000000000000000000000000000000 PUSH1 0x44 DUP3 ADD MSTORE PUSH1 0x64 ADD PUSH2 0x7AF JUMP JUMPDEST PUSH1 0x15 SLOAD PUSH1 0x40 MLOAD PUSH4 0x8A888953 PUSH1 0xE0 SHL DUP2 MSTORE PUSH1 0xFF DUP1 DUP6 AND PUSH1 0x4 DUP4 ADD MSTORE DUP4 AND PUSH1 0x24 DUP3 ADD MSTORE CALLER SWAP2 PUSH1 0x1 PUSH1 0x1 PUSH1 0xA0 SHL SUB AND SWAP1 PUSH4 0x8A888953 SWAP1 PUSH1 0x44 ADD PUSH1 0x20 PUSH1 0x40 MLOAD DUP1 DUP4 SUB DUP2 DUP7 GAS STATICCALL ISZERO DUP1 ISZERO PUSH2 0x42C7 JUMPI RETURNDATASIZE PUSH1 0x0 DUP1 RETURNDATACOPY RETURNDATASIZE PUSH1 0x0 REVERT JUMPDEST POP POP POP POP PUSH1 0x40 MLOAD RETURNDATASIZE PUSH1 0x1F NOT PUSH1 0x1F DUP3 ADD AND DUP3 ADD DUP1 PUSH1 0x40 MSTORE POP DUP2 ADD SWAP1 PUSH2 0x42EB SWAP2 SWAP1 PUSH2 0x51BF JUMP JUMPDEST PUSH1 0x1 PUSH1 0x1 PUSH1 0xA0 SHL SUB AND EQ PUSH2 0x4341 JUMPI PUSH1 0x40 MLOAD PUSH3 0x461BCD PUSH1 0xE5 SHL DUP2 MSTORE PUSH1 0x20 PUSH1 0x4 DUP3 ADD MSTORE PUSH1 0x1D PUSH1 0x24 DUP3 ADD MSTORE PUSH32 0x596F7520646F6E2774206F776E20746865206C65616465722074696C65000000 PUSH1 0x44 DUP3 ADD MSTORE PUSH1 0x64 ADD PUSH2 0x7AF JUMP JUMPDEST PUSH1 0x22 SLOAD PUSH1 0x40 MLOAD PUSH32 0x6352211E00000000000000000000000000000000000000000000000000000000 DUP2 MSTORE PUSH1 0x4 DUP2 ADD DUP7 SWAP1 MSTORE CALLER SWAP2 PUSH1 0x1 PUSH1 0x1 PUSH1 0xA0 SHL SUB AND SWAP1 PUSH4 0x6352211E SWAP1 PUSH1 0x24 ADD PUSH1 0x20 PUSH1 0x40 MLOAD DUP1 DUP4 SUB DUP2 DUP7 GAS STATICCALL ISZERO DUP1 ISZERO PUSH2 0x43A3 JUMPI RETURNDATASIZE PUSH1 0x0 DUP1 RETURNDATACOPY RETURNDATASIZE PUSH1 0x0 REVERT JUMPDEST POP POP POP POP PUSH1 0x40 MLOAD RETURNDATASIZE PUSH1 0x1F NOT PUSH1 0x1F DUP3 ADD AND DUP3 ADD DUP1 PUSH1 0x40 MSTORE POP DUP2 ADD SWAP1 PUSH2 0x43C7 SWAP2 SWAP1 PUSH2 0x51BF JUMP JUMPDEST PUSH1 0x1 PUSH1 0x1 PUSH1 0xA0 SHL SUB AND EQ PUSH2 0x441D JUMPI PUSH1 0x40 MLOAD PUSH3 0x461BCD PUSH1 0xE5 SHL DUP2 MSTORE PUSH1 0x20 PUSH1 0x4 DUP3 ADD MSTORE PUSH1 0x16 PUSH1 0x24 DUP3 ADD MSTORE PUSH32 0x596F7520646F6E2774206F776E2074686973204E465400000000000000000000 PUSH1 0x44 DUP3 ADD MSTORE PUSH1 0x64 ADD PUSH2 0x7AF JUMP JUMPDEST PUSH1 0x22 SLOAD PUSH1 0x40 MLOAD PUSH32 0xAD4C4F400000000000000000000000000000000000000000000000000000000 DUP2 MSTORE PUSH1 0x4 DUP2 ADD DUP7 SWAP1 MSTORE PUSH1 0x0 SWAP2 PUSH1 0x1 PUSH1 0x1 PUSH1 0xA0 SHL SUB AND SWAP1 PUSH4 0xAD4C4F4 SWAP1 PUSH1 0x24 ADD PUSH1 0x0 PUSH1 0x40 MLOAD DUP1 DUP4 SUB DUP2 DUP7 GAS STATICCALL ISZERO DUP1 ISZERO PUSH2 0x4480 JUMPI RETURNDATASIZE PUSH1 0x0 DUP1 RETURNDATACOPY RETURNDATASIZE PUSH1 0x0 REVERT JUMPDEST POP POP POP POP PUSH1 0x40 MLOAD RETURNDATASIZE PUSH1 0x0 DUP3 RETURNDATACOPY PUSH1 0x1F RETURNDATASIZE SWAP1 DUP2 ADD PUSH1 0x1F NOT AND DUP3 ADD PUSH1 0x40 MSTORE PUSH2 0x44A8 SWAP2 SWAP1 DUP2 ADD SWAP1 PUSH2 0x5609 JUMP JUMPDEST POP SWAP10 POP POP POP POP POP POP POP POP POP POP DUP1 PUSH1 0x1 EQ PUSH2 0x452A JUMPI PUSH1 0x40 MLOAD PUSH3 0x461BCD PUSH1 0xE5 SHL DUP2 MSTORE PUSH1 0x20 PUSH1 0x4 DUP3 ADD MSTORE PUSH1 0x33 PUSH1 0x24 DUP3 ADD MSTORE PUSH32 0x4F6E6C79204E4654732066726F6D20636F6C6C656374696F6E20494420312063 PUSH1 0x44 DUP3 ADD MSTORE PUSH32 0x616E206265207573656420617320666C61677300000000000000000000000000 PUSH1 0x64 DUP3 ADD MSTORE PUSH1 0x84 ADD PUSH2 0x7AF JUMP JUMPDEST PUSH1 0x17 SLOAD PUSH1 0x40 MLOAD PUSH32 0x1ACC55EA00000000000000000000000000000000000000000000000000000000 DUP2 MSTORE PUSH1 0xFF DUP1 DUP11 AND PUSH1 0x4 DUP4 ADD MSTORE DUP9 AND PUSH1 0x24 DUP3 ADD MSTORE PUSH1 0x1 PUSH1 0x1 PUSH1 0xA0 SHL SUB SWAP1 SWAP2 AND SWAP1 PUSH4 0x1ACC55EA SWAP1 PUSH1 0x44 ADD PUSH1 0x20 PUSH1 0x40 MLOAD DUP1 DUP4 SUB DUP2 DUP7 GAS STATICCALL ISZERO DUP1 ISZERO PUSH2 0x4596 JUMPI RETURNDATASIZE PUSH1 0x0 DUP1 RETURNDATACOPY RETURNDATASIZE PUSH1 0x0 REVERT JUMPDEST POP POP POP POP PUSH1 0x40 MLOAD RETURNDATASIZE PUSH1 0x1F NOT PUSH1 0x1F DUP3 ADD AND DUP3 ADD DUP1 PUSH1 0x40 MSTORE POP DUP2 ADD SWAP1 PUSH2 0x45BA SWAP2 SWAP1 PUSH2 0x51DC JUMP JUMPDEST PUSH2 0x4606 JUMPI PUSH1 0x40 MLOAD PUSH3 0x461BCD PUSH1 0xE5 SHL DUP2 MSTORE PUSH1 0x20 PUSH1 0x4 DUP3 ADD MSTORE PUSH1 0x19 PUSH1 0x24 DUP3 ADD MSTORE PUSH32 0x596F75206D7573742068617665206120436C616E2048616C6C00000000000000 PUSH1 0x44 DUP3 ADD MSTORE PUSH1 0x64 ADD PUSH2 0x7AF JUMP JUMPDEST PUSH1 0x16 SLOAD PUSH1 0x40 MLOAD PUSH32 0x23B872DD00000000000000000000000000000000000000000000000000000000 DUP2 MSTORE CALLER PUSH1 0x4 DUP3 ADD MSTORE ADDRESS PUSH1 0x24 DUP3 ADD MSTORE PUSH5 0x2540BE400 PUSH1 0x44 DUP3 ADD MSTORE PUSH1 0x1 PUSH1 0x1 PUSH1 0xA0 SHL SUB SWAP1 SWAP2 AND SWAP1 PUSH4 0x23B872DD SWAP1 PUSH1 0x64 ADD PUSH1 0x20 PUSH1 0x40 MLOAD DUP1 DUP4 SUB DUP2 PUSH1 0x0 DUP8 GAS CALL ISZERO DUP1 ISZERO PUSH2 0x467A JUMPI RETURNDATASIZE PUSH1 0x0 DUP1 RETURNDATACOPY RETURNDATASIZE PUSH1 0x0 REVERT JUMPDEST POP POP POP POP PUSH1 0x40 MLOAD RETURNDATASIZE PUSH1 0x1F NOT PUSH1 0x1F DUP3 ADD AND DUP3 ADD DUP1 PUSH1 0x40 MSTORE POP DUP2 ADD SWAP1 PUSH2 0x469E SWAP2 SWAP1 PUSH2 0x51DC JUMP JUMPDEST PUSH2 0x46EA JUMPI PUSH1 0x40 MLOAD PUSH3 0x461BCD PUSH1 0xE5 SHL DUP2 MSTORE PUSH1 0x20 PUSH1 0x4 DUP3 ADD MSTORE PUSH1 0x13 PUSH1 0x24 DUP3 ADD MSTORE PUSH32 0x4C4F50207472616E73666572206661696C656400000000000000000000000000 PUSH1 0x44 DUP3 ADD MSTORE PUSH1 0x64 ADD PUSH2 0x7AF JUMP JUMPDEST PUSH1 0x16 SLOAD PUSH1 0x40 MLOAD PUSH32 0x42966C6800000000000000000000000000000000000000000000000000000000 DUP2 MSTORE PUSH5 0x2540BE400 PUSH1 0x4 DUP3 ADD MSTORE PUSH1 0x1 PUSH1 0x1 PUSH1 0xA0 SHL SUB SWAP1 SWAP2 AND SWAP1 PUSH4 0x42966C68 SWAP1 PUSH1 0x24 ADD PUSH1 0x20 PUSH1 0x40 MLOAD DUP1 DUP4 SUB DUP2 PUSH1 0x0 DUP8 GAS CALL ISZERO DUP1 ISZERO PUSH2 0x4752 JUMPI RETURNDATASIZE PUSH1 0x0 DUP1 RETURNDATACOPY RETURNDATASIZE PUSH1 0x0 REVERT JUMPDEST POP POP POP POP PUSH1 0x40 MLOAD RETURNDATASIZE PUSH1 0x1F NOT PUSH1 0x1F DUP3 ADD AND DUP3 ADD DUP1 PUSH1 0x40 MSTORE POP DUP2 ADD SWAP1 PUSH2 0x4776 SWAP2 SWAP1 PUSH2 0x51DC JUMP JUMPDEST PUSH2 0x47C2 JUMPI PUSH1 0x40 MLOAD PUSH3 0x461BCD PUSH1 0xE5 SHL DUP2 MSTORE PUSH1 0x20 PUSH1 0x4 DUP3 ADD MSTORE PUSH1 0xB PUSH1 0x24 DUP3 ADD MSTORE PUSH32 0x4275726E206661696C6564000000000000000000000000000000000000000000 PUSH1 0x44 DUP3 ADD MSTORE PUSH1 0x64 ADD PUSH2 0x7AF JUMP JUMPDEST POP POP POP PUSH2 0xFFFF DUP6 AND PUSH1 0x0 SWAP1 DUP2 MSTORE PUSH1 0x23 PUSH1 0x20 MSTORE PUSH1 0x40 SWAP1 KECCAK256 DUP3 SWAP1 SSTORE POP PUSH2 0xA76 PUSH1 0x1 PUSH1 0x0 SSTORE JUMP JUMPDEST PUSH1 0x2 PUSH1 0x0 SLOAD SUB PUSH2 0x4838 JUMPI PUSH1 0x40 MLOAD PUSH3 0x461BCD PUSH1 0xE5 SHL DUP2 MSTORE PUSH1 0x20 PUSH1 0x4 DUP3 ADD MSTORE PUSH1 0x1F PUSH1 0x24 DUP3 ADD MSTORE PUSH32 0x5265656E7472616E637947756172643A207265656E7472616E742063616C6C00 PUSH1 0x44 DUP3 ADD MSTORE PUSH1 0x64 ADD PUSH2 0x7AF JUMP JUMPDEST PUSH1 0x2 PUSH1 0x0 SSTORE JUMP JUMPDEST PUSH1 0x1 PUSH1 0x0 SSTORE JUMP JUMPDEST DUP1 MLOAD PUSH1 0x60 SWAP1 DUP3 SWAP1 PUSH1 0x0 SUB PUSH2 0x485B JUMPI POP SWAP1 SWAP2 SWAP1 POP JUMP JUMPDEST PUSH1 0x0 JUMPDEST DUP2 MLOAD DUP2 LT DUP1 ISZERO PUSH2 0x48C6 JUMPI POP DUP2 DUP2 DUP2 MLOAD DUP2 LT PUSH2 0x487B JUMPI PUSH2 0x487B PUSH2 0x53DA JUMP JUMPDEST PUSH1 0x20 SWAP2 ADD ADD MLOAD PUSH32 0xFF00000000000000000000000000000000000000000000000000000000000000 AND PUSH32 0x2000000000000000000000000000000000000000000000000000000000000000 EQ JUMPDEST ISZERO PUSH2 0x48DD JUMPI DUP1 PUSH2 0x48D5 DUP2 PUSH2 0x544B JUMP JUMPDEST SWAP2 POP POP PUSH2 0x485E JUMP JUMPDEST DUP2 MLOAD DUP2 SUB PUSH2 0x48FC JUMPI POP POP PUSH1 0x40 DUP1 MLOAD PUSH1 0x20 DUP2 ADD SWAP1 SWAP2 MSTORE PUSH1 0x0 DUP2 MSTORE SWAP3 SWAP2 POP POP JUMP JUMPDEST PUSH1 0x0 PUSH1 0x1 DUP4 MLOAD PUSH2 0x490C SWAP2 SWAP1 PUSH2 0x5409 JUMP JUMPDEST SWAP1 POP JUMPDEST DUP2 DUP2 GT DUP1 ISZERO PUSH2 0x4976 JUMPI POP DUP3 DUP2 DUP2 MLOAD DUP2 LT PUSH2 0x492B JUMPI PUSH2 0x492B PUSH2 0x53DA JUMP JUMPDEST PUSH1 0x20 SWAP2 ADD ADD MLOAD PUSH32 0xFF00000000000000000000000000000000000000000000000000000000000000 AND PUSH32 0x2000000000000000000000000000000000000000000000000000000000000000 EQ JUMPDEST ISZERO PUSH2 0x498D JUMPI DUP1 PUSH2 0x4985 DUP2 PUSH2 0x575B JUMP JUMPDEST SWAP2 POP POP PUSH2 0x490F JUMP JUMPDEST PUSH1 0x0 PUSH2 0x4999 DUP4 DUP4 PUSH2 0x5409 JUMP JUMPDEST PUSH2 0x49A4 SWAP1 PUSH1 0x1 PUSH2 0x5772 JUMP JUMPDEST PUSH8 0xFFFFFFFFFFFFFFFF DUP2 GT ISZERO PUSH2 0x49BC JUMPI PUSH2 0x49BC PUSH2 0x51FE JUMP JUMPDEST PUSH1 0x40 MLOAD SWAP1 DUP1 DUP3 MSTORE DUP1 PUSH1 0x1F ADD PUSH1 0x1F NOT AND PUSH1 0x20 ADD DUP3 ADD PUSH1 0x40 MSTORE DUP1 ISZERO PUSH2 0x49E6 JUMPI PUSH1 0x20 DUP3 ADD DUP2 DUP1 CALLDATASIZE DUP4 CALLDATACOPY ADD SWAP1 POP JUMPDEST POP SWAP1 POP PUSH1 0x0 JUMPDEST DUP2 MLOAD DUP2 LT ISZERO PUSH2 0x4A6E JUMPI DUP5 PUSH2 0x4A00 DUP3 DUP7 PUSH2 0x5772 JUMP JUMPDEST DUP2 MLOAD DUP2 LT PUSH2 0x4A10 JUMPI PUSH2 0x4A10 PUSH2 0x53DA JUMP JUMPDEST PUSH1 0x20 ADD ADD MLOAD PUSH1 0xF8 SHR PUSH1 0xF8 SHL DUP3 DUP3 DUP2 MLOAD DUP2 LT PUSH2 0x4A2D JUMPI PUSH2 0x4A2D PUSH2 0x53DA JUMP JUMPDEST PUSH1 0x20 ADD ADD SWAP1 PUSH31 0xFFFFFFFFFFFFFFFFFFFFFFFFFFFFFFFFFFFFFFFFFFFFFFFFFFFFFFFFFFFFFF NOT AND SWAP1 DUP2 PUSH1 0x0 BYTE SWAP1 MSTORE8 POP DUP1 PUSH2 0x4A66 DUP2 PUSH2 0x544B JUMP JUMPDEST SWAP2 POP POP PUSH2 0x49EC JUMP JUMPDEST POP SWAP6 SWAP5 POP POP POP POP POP JUMP JUMPDEST PUSH1 0x60 DUP2 PUSH1 0x0 JUMPDEST DUP2 MLOAD DUP2 LT ISZERO PUSH2 0x4B22 JUMPI PUSH1 0x0 DUP3 DUP3 DUP2 MLOAD DUP2 LT PUSH2 0x4A9B JUMPI PUSH2 0x4A9B PUSH2 0x53DA JUMP JUMPDEST ADD PUSH1 0x20 ADD MLOAD PUSH1 0xF8 SHR SWAP1 POP PUSH1 0x41 DUP2 LT DUP1 ISZERO SWAP1 PUSH2 0x4ABA JUMPI POP PUSH1 0x5A DUP2 PUSH1 0xFF AND GT ISZERO JUMPDEST ISZERO PUSH2 0x4B0F JUMPI PUSH2 0x4ACA DUP2 PUSH1 0x20 PUSH2 0x5785 JUMP JUMPDEST PUSH1 0xF8 SHL DUP4 DUP4 DUP2 MLOAD DUP2 LT PUSH2 0x4ADF JUMPI PUSH2 0x4ADF PUSH2 0x53DA JUMP JUMPDEST PUSH1 0x20 ADD ADD SWAP1 PUSH31 0xFFFFFFFFFFFFFFFFFFFFFFFFFFFFFFFFFFFFFFFFFFFFFFFFFFFFFFFFFFFFFF NOT AND SWAP1 DUP2 PUSH1 0x0 BYTE SWAP1 MSTORE8 POP JUMPDEST POP DUP1 PUSH2 0x4B1A DUP2 PUSH2 0x544B JUMP JUMPDEST SWAP2 POP POP PUSH2 0x4A7E JUMP JUMPDEST POP SWAP3 SWAP2 POP POP JUMP JUMPDEST PUSH1 0x0 PUSH2 0x4B6A DUP4 DUP4 DUP1 DUP1 PUSH1 0x1F ADD PUSH1 0x20 DUP1 SWAP2 DIV MUL PUSH1 0x20 ADD PUSH1 0x40 MLOAD SWAP1 DUP2 ADD PUSH1 0x40 MSTORE DUP1 SWAP4 SWAP3 SWAP2 SWAP1 DUP2 DUP2 MSTORE PUSH1 0x20 ADD DUP4 DUP4 DUP1 DUP3 DUP5 CALLDATACOPY PUSH1 0x0 SWAP3 ADD SWAP2 SWAP1 SWAP2 MSTORE POP PUSH2 0x4846 SWAP3 POP POP POP JUMP JUMPDEST SWAP1 POP PUSH1 0x1 DUP2 MLOAD LT ISZERO PUSH2 0x4BBE JUMPI PUSH1 0x40 MLOAD PUSH3 0x461BCD PUSH1 0xE5 SHL DUP2 MSTORE PUSH1 0x20 PUSH1 0x4 DUP3 ADD MSTORE PUSH1 0xA PUSH1 0x24 DUP3 ADD MSTORE PUSH32 0x4E616D6520656D70747900000000000000000000000000000000000000000000 PUSH1 0x44 DUP3 ADD MSTORE PUSH1 0x64 ADD PUSH2 0x7AF JUMP JUMPDEST PUSH1 0x20 DUP2 MLOAD GT ISZERO PUSH2 0x250E JUMPI PUSH1 0x40 MLOAD PUSH3 0x461BCD PUSH1 0xE5 SHL DUP2 MSTORE PUSH1 0x20 PUSH1 0x4 DUP3 ADD MSTORE PUSH1 0xD PUSH1 0x24 DUP3 ADD MSTORE PUSH32 0x4E616D6520746F6F206C6F6E6700000000000000000000000000000000000000 PUSH1 0x44 DUP3 ADD MSTORE PUSH1 0x64 ADD PUSH2 0x7AF JUMP JUMPDEST PUSH1 0x0 PUSH2 0x4C23 PUSH2 0x4C1E DUP4 PUSH2 0x4846 JUMP JUMPDEST PUSH2 0x4A78 JUMP JUMPDEST PUSH1 0x40 MLOAD PUSH1 0x20 ADD PUSH2 0x4C33 SWAP2 SWAP1 PUSH2 0x5484 JUMP JUMPDEST PUSH1 0x40 MLOAD PUSH1 0x20 DUP2 DUP4 SUB SUB DUP2 MSTORE SWAP1 PUSH1 0x40 MSTORE DUP1 MLOAD SWAP1 PUSH1 0x20 ADD KECCAK256 SWAP1 POP SWAP2 SWAP1 POP JUMP JUMPDEST POP DUP1 SLOAD PUSH1 0x0 DUP3 SSTORE PUSH1 0xF ADD PUSH1 0x10 SWAP1 DIV SWAP1 PUSH1 0x0 MSTORE PUSH1 0x20 PUSH1 0x0 KECCAK256 SWAP1 DUP2 ADD SWAP1 PUSH2 0x4C75 SWAP2 SWAP1 PUSH2 0x4CAE JUMP JUMPDEST POP JUMP JUMPDEST POP DUP1 SLOAD PUSH2 0x4C84 SWAP1 PUSH2 0x522D JUMP JUMPDEST PUSH1 0x0 DUP3 SSTORE DUP1 PUSH1 0x1F LT PUSH2 0x4C94 JUMPI POP POP JUMP JUMPDEST PUSH1 0x1F ADD PUSH1 0x20 SWAP1 DIV SWAP1 PUSH1 0x0 MSTORE PUSH1 0x20 PUSH1 0x0 KECCAK256 SWAP1 DUP2 ADD SWAP1 PUSH2 0x4C75 SWAP2 SWAP1 JUMPDEST JUMPDEST DUP1 DUP3 GT ISZERO PUSH2 0x4CC3 JUMPI PUSH1 0x0 DUP2 SSTORE PUSH1 0x1 ADD PUSH2 0x4CAF JUMP JUMPDEST POP SWAP1 JUMP JUMPDEST DUP1 CALLDATALOAD PUSH1 0xFF DUP2 AND DUP2 EQ PUSH2 0x4CD8 JUMPI PUSH1 0x0 DUP1 REVERT JUMPDEST SWAP2 SWAP1 POP JUMP JUMPDEST PUSH1 0x0 DUP1 DUP4 PUSH1 0x1F DUP5 ADD SLT PUSH2 0x4CEF JUMPI PUSH1 0x0 DUP1 REVERT JUMPDEST POP DUP2 CALLDATALOAD PUSH8 0xFFFFFFFFFFFFFFFF DUP2 GT ISZERO PUSH2 0x4D07 JUMPI PUSH1 0x0 DUP1 REVERT JUMPDEST PUSH1 0x20 DUP4 ADD SWAP2 POP DUP4 PUSH1 0x20 DUP3 DUP6 ADD ADD GT ISZERO PUSH2 0x4D1F JUMPI PUSH1 0x0 DUP1 REVERT JUMPDEST SWAP3 POP SWAP3 SWAP1 POP JUMP JUMPDEST PUSH1 0x0 DUP1 PUSH1 0x0 DUP1 PUSH1 0x60 DUP6 DUP8 SUB SLT ISZERO PUSH2 0x4D3C JUMPI PUSH1 0x0 DUP1 REVERT JUMPDEST PUSH2 0x4D45 DUP6 PUSH2 0x4CC7 JUMP JUMPDEST SWAP4 POP PUSH2 0x4D53 PUSH1 0x20 DUP7 ADD PUSH2 0x4CC7 JUMP JUMPDEST SWAP3 POP PUSH1 0x40 DUP6 ADD CALLDATALOAD PUSH8 0xFFFFFFFFFFFFFFFF DUP2 GT ISZERO PUSH2 0x4D6F JUMPI PUSH1 0x0 DUP1 REVERT JUMPDEST PUSH2 0x4D7B DUP8 DUP3 DUP9 ADD PUSH2 0x4CDD JUMP JUMPDEST SWAP6 SWAP9 SWAP5 SWAP8 POP SWAP6 POP POP POP POP JUMP JUMPDEST PUSH1 0x0 DUP1 PUSH1 0x40 DUP4 DUP6 SUB SLT ISZERO PUSH2 0x4D9A JUMPI PUSH1 0x0 DUP1 REVERT JUMPDEST PUSH2 0x4DA3 DUP4 PUSH2 0x4CC7 JUMP JUMPDEST SWAP2 POP PUSH2 0x4DB1 PUSH1 0x20 DUP5 ADD PUSH2 0x4CC7 JUMP JUMPDEST SWAP1 POP SWAP3 POP SWAP3 SWAP1 POP JUMP JUMPDEST PUSH1 0x0 JUMPDEST DUP4 DUP2 LT ISZERO PUSH2 0x4DD5 JUMPI DUP2 DUP2 ADD MLOAD DUP4 DUP3 ADD MSTORE PUSH1 0x20 ADD PUSH2 0x4DBD JUMP JUMPDEST POP POP PUSH1 0x0 SWAP2 ADD MSTORE JUMP JUMPDEST PUSH1 0x0 DUP2 MLOAD DUP1 DUP5 MSTORE PUSH2 0x4DF6 DUP2 PUSH1 0x20 DUP7 ADD PUSH1 0x20 DUP7 ADD PUSH2 0x4DBA JUMP JUMPDEST PUSH1 0x1F ADD PUSH1 0x1F NOT AND SWAP3 SWAP1 SWAP3 ADD PUSH1 0x20 ADD SWAP3 SWAP2 POP POP JUMP JUMPDEST PUSH1 0x20 DUP2 MSTORE PUSH1 0x0 PUSH2 0x4E1D PUSH1 0x20 DUP4 ADD DUP5 PUSH2 0x4DDE JUMP JUMPDEST SWAP4 SWAP3 POP POP POP JUMP JUMPDEST PUSH1 0x1 PUSH1 0x1 PUSH1 0xA0 SHL SUB DUP2 AND DUP2 EQ PUSH2 0x4C75 JUMPI PUSH1 0x0 DUP1 REVERT JUMPDEST PUSH1 0x0 PUSH1 0x20 DUP3 DUP5 SUB SLT ISZERO PUSH2 0x4E4B JUMPI PUSH1 0x0 DUP1 REVERT JUMPDEST DUP2 CALLDATALOAD PUSH2 0x4E1D DUP2 PUSH2 0x4E24 JUMP JUMPDEST DUP1 CALLDATALOAD PUSH2 0xFFFF DUP2 AND DUP2 EQ PUSH2 0x4CD8 JUMPI PUSH1 0x0 DUP1 REVERT JUMPDEST PUSH1 0x0 DUP1 PUSH1 0x0 DUP1 PUSH1 0x0 PUSH1 0xA0 DUP7 DUP9 SUB SLT ISZERO PUSH2 0x4E80 JUMPI PUSH1 0x0 DUP1 REVERT JUMPDEST PUSH2 0x4E89 DUP7 PUSH2 0x4E56 JUMP JUMPDEST SWAP5 POP PUSH2 0x4E97 PUSH1 0x20 DUP8 ADD PUSH2 0x4CC7 JUMP JUMPDEST SWAP4 POP PUSH2 0x4EA5 PUSH1 0x40 DUP8 ADD PUSH2 0x4CC7 JUMP JUMPDEST SWAP3 POP PUSH2 0x4EB3 PUSH1 0x60 DUP8 ADD PUSH2 0x4CC7 JUMP JUMPDEST SWAP2 POP PUSH2 0x4EC1 PUSH1 0x80 DUP8 ADD PUSH2 0x4CC7 JUMP JUMPDEST SWAP1 POP SWAP3 SWAP6 POP SWAP3 SWAP6 SWAP1 SWAP4 POP JUMP JUMPDEST PUSH1 0x20 DUP1 DUP3 MSTORE DUP3 MLOAD DUP3 DUP3 ADD DUP2 SWAP1 MSTORE PUSH1 0x0 SWAP2 SWAP1 PUSH1 0x40 SWAP1 DUP2 DUP6 ADD SWAP1 DUP7 DUP5 ADD DUP6 JUMPDEST DUP3 DUP2 LT ISZERO PUSH2 0x4F2E JUMPI DUP2 MLOAD DUP1 MLOAD PUSH1 0xFF SWAP1 DUP2 AND DUP7 MSTORE DUP8 DUP3 ADD MLOAD AND DUP8 DUP7 ADD MSTORE DUP6 DUP2 ADD MLOAD PUSH2 0xFFFF AND DUP7 DUP7 ADD MSTORE PUSH1 0x60 SWAP1 DUP2 ADD MLOAD SWAP1 DUP6 ADD MSTORE PUSH1 0x80 SWAP1 SWAP4 ADD SWAP3 SWAP1 DUP6 ADD SWAP1 PUSH1 0x1 ADD PUSH2 0x4EEA JUMP JUMPDEST POP SWAP2 SWAP8 SWAP7 POP POP POP POP POP POP POP JUMP JUMPDEST PUSH1 0x0 DUP1 PUSH1 0x20 DUP4 DUP6 SUB SLT ISZERO PUSH2 0x4F4E JUMPI PUSH1 0x0 DUP1 REVERT JUMPDEST DUP3 CALLDATALOAD PUSH8 0xFFFFFFFFFFFFFFFF DUP2 GT ISZERO PUSH2 0x4F65 JUMPI PUSH1 0x0 DUP1 REVERT JUMPDEST PUSH2 0x4F71 DUP6 DUP3 DUP7 ADD PUSH2 0x4CDD JUMP JUMPDEST SWAP1 SWAP7 SWAP1 SWAP6 POP SWAP4 POP POP POP POP JUMP JUMPDEST PUSH1 0x0 PUSH1 0x20 DUP3 DUP5 SUB SLT ISZERO PUSH2 0x4F8F JUMPI PUSH1 0x0 DUP1 REVERT JUMPDEST POP CALLDATALOAD SWAP2 SWAP1 POP JUMP JUMPDEST PUSH1 0x0 PUSH1 0x20 DUP3 DUP5 SUB SLT ISZERO PUSH2 0x4FA8 JUMPI PUSH1 0x0 DUP1 REVERT JUMPDEST PUSH2 0x4E1D DUP3 PUSH2 0x4E56 JUMP JUMPDEST PUSH1 0x0 DUP1 PUSH1 0x0 PUSH1 0x60 DUP5 DUP7 SUB SLT ISZERO PUSH2 0x4FC6 JUMPI PUSH1 0x0 DUP1 REVERT JUMPDEST PUSH2 0x4FCF DUP5 PUSH2 0x4E56 JUMP JUMPDEST SWAP3 POP PUSH2 0x4FDD PUSH1 0x20 DUP6 ADD PUSH2 0x4CC7 JUMP JUMPDEST SWAP2 POP PUSH2 0x4FEB PUSH1 0x40 DUP6 ADD PUSH2 0x4CC7 JUMP JUMPDEST SWAP1 POP SWAP3 POP SWAP3 POP SWAP3 JUMP JUMPDEST PUSH1 0x0 DUP2 MLOAD PUSH1 0xA0 DUP5 MSTORE PUSH2 0x5009 PUSH1 0xA0 DUP6 ADD DUP3 PUSH2 0x4DDE JUMP JUMPDEST SWAP1 POP PUSH1 0xFF PUSH1 0x20 DUP5 ADD MLOAD AND PUSH1 0x20 DUP6 ADD MSTORE PUSH1 0xFF PUSH1 0x40 DUP5 ADD MLOAD AND PUSH1 0x40 DUP6 ADD MSTORE PUSH1 0xFF PUSH1 0x60 DUP5 ADD MLOAD AND PUSH1 0x60 DUP6 ADD MSTORE PUSH1 0x80 DUP4 ADD MLOAD ISZERO ISZERO PUSH1 0x80 DUP6 ADD MSTORE DUP1 SWAP2 POP POP SWAP3 SWAP2 POP POP JUMP JUMPDEST PUSH1 0x20 DUP2 MSTORE PUSH1 0x0 PUSH2 0x4E1D PUSH1 0x20 DUP4 ADD DUP5 PUSH2 0x4FF4 JUMP JUMPDEST PUSH1 0x0 PUSH1 0x20 DUP1 DUP4 ADD DUP2 DUP5 MSTORE DUP1 DUP6 MLOAD DUP1 DUP4 MSTORE PUSH1 0x40 DUP7 ADD SWAP2 POP PUSH1 0x40 DUP2 PUSH1 0x5 SHL DUP8 ADD ADD SWAP3 POP DUP4 DUP8 ADD PUSH1 0x0 JUMPDEST DUP3 DUP2 LT ISZERO PUSH2 0x50CE JUMPI PUSH32 0xFFFFFFFFFFFFFFFFFFFFFFFFFFFFFFFFFFFFFFFFFFFFFFFFFFFFFFFFFFFFFFC0 DUP9 DUP7 SUB ADD DUP5 MSTORE PUSH2 0x50BC DUP6 DUP4 MLOAD PUSH2 0x4FF4 JUMP JUMPDEST SWAP5 POP SWAP3 DUP6 ADD SWAP3 SWAP1 DUP6 ADD SWAP1 PUSH1 0x1 ADD PUSH2 0x5082 JUMP JUMPDEST POP SWAP3 SWAP8 SWAP7 POP POP POP POP POP POP POP JUMP JUMPDEST PUSH1 0x0 DUP1 PUSH1 0x40 DUP4 DUP6 SUB SLT ISZERO PUSH2 0x50EE JUMPI PUSH1 0x0 DUP1 REVERT JUMPDEST PUSH2 0x50F7 DUP4 PUSH2 0x4E56 JUMP JUMPDEST SWAP5 PUSH1 0x20 SWAP4 SWAP1 SWAP4 ADD CALLDATALOAD SWAP4 POP POP POP JUMP JUMPDEST PUSH1 0x0 DUP1 PUSH1 0x40 DUP4 DUP6 SUB SLT ISZERO PUSH2 0x5118 JUMPI PUSH1 0x0 DUP1 REVERT JUMPDEST POP POP DUP1 CALLDATALOAD SWAP3 PUSH1 0x20 SWAP1 SWAP2 ADD CALLDATALOAD SWAP2 POP JUMP JUMPDEST PUSH1 0xA0 DUP2 MSTORE PUSH1 0x0 PUSH2 0x513A PUSH1 0xA0 DUP4 ADD DUP9 PUSH2 0x4DDE JUMP JUMPDEST SWAP1 POP PUSH1 0xFF DUP7 AND PUSH1 0x20 DUP4 ADD MSTORE PUSH1 0xFF DUP6 AND PUSH1 0x40 DUP4 ADD MSTORE PUSH1 0xFF DUP5 AND PUSH1 0x60 DUP4 ADD MSTORE DUP3 ISZERO ISZERO PUSH1 0x80 DUP4 ADD MSTORE SWAP7 SWAP6 POP POP POP POP POP POP JUMP JUMPDEST PUSH1 0x0 DUP1 PUSH1 0x0 DUP1 PUSH1 0x80 DUP6 DUP8 SUB SLT ISZERO PUSH2 0x517F JUMPI PUSH1 0x0 DUP1 REVERT JUMPDEST PUSH2 0x5188 DUP6 PUSH2 0x4E56 JUMP JUMPDEST SWAP4 POP PUSH2 0x5196 PUSH1 0x20 DUP7 ADD PUSH2 0x4CC7 JUMP JUMPDEST SWAP3 POP PUSH2 0x51A4 PUSH1 0x40 DUP7 ADD PUSH2 0x4CC7 JUMP JUMPDEST SWAP4 SWAP7 SWAP3 SWAP6 POP SWAP3 SWAP4 PUSH1 0x60 ADD CALLDATALOAD SWAP3 POP POP JUMP JUMPDEST DUP1 MLOAD PUSH2 0x4CD8 DUP2 PUSH2 0x4E24 JUMP JUMPDEST PUSH1 0x0 PUSH1 0x20 DUP3 DUP5 SUB SLT ISZERO PUSH2 0x51D1 JUMPI PUSH1 0x0 DUP1 REVERT JUMPDEST DUP2 MLOAD PUSH2 0x4E1D DUP2 PUSH2 0x4E24 JUMP JUMPDEST PUSH1 0x0 PUSH1 0x20 DUP3 DUP5 SUB SLT ISZERO PUSH2 0x51EE JUMPI PUSH1 0x0 DUP1 REVERT JUMPDEST DUP2 MLOAD DUP1 ISZERO ISZERO DUP2 EQ PUSH2 0x4E1D JUMPI PUSH1 0x0 DUP1 REVERT JUMPDEST PUSH32 0x4E487B7100000000000000000000000000000000000000000000000000000000 PUSH1 0x0 MSTORE PUSH1 0x41 PUSH1 0x4 MSTORE PUSH1 0x24 PUSH1 0x0 REVERT JUMPDEST PUSH1 0x1 DUP2 DUP2 SHR SWAP1 DUP3 AND DUP1 PUSH2 0x5241 JUMPI PUSH1 0x7F DUP3 AND SWAP2 POP JUMPDEST PUSH1 0x20 DUP3 LT DUP2 SUB PUSH2 0x527A JUMPI PUSH32 0x4E487B7100000000000000000000000000000000000000000000000000000000 PUSH1 0x0 MSTORE PUSH1 0x22 PUSH1 0x4 MSTORE PUSH1 0x24 PUSH1 0x0 REVERT JUMPDEST POP SWAP2 SWAP1 POP JUMP JUMPDEST PUSH1 0x1F DUP3 GT ISZERO PUSH2 0x250E JUMPI PUSH1 0x0 DUP2 DUP2 MSTORE PUSH1 0x20 DUP2 KECCAK256 PUSH1 0x1F DUP6 ADD PUSH1 0x5 SHR DUP2 ADD PUSH1 0x20 DUP7 LT ISZERO PUSH2 0x52A7 JUMPI POP DUP1 JUMPDEST PUSH1 0x1F DUP6 ADD PUSH1 0x5 SHR DUP3 ADD SWAP2 POP JUMPDEST DUP2 DUP2 LT ISZERO PUSH2 0x52C6 JUMPI DUP3 DUP2 SSTORE PUSH1 0x1 ADD PUSH2 0x52B3 JUMP JUMPDEST POP POP POP POP POP POP JUMP JUMPDEST PUSH8 0xFFFFFFFFFFFFFFFF DUP4 GT ISZERO PUSH2 0x52E6 JUMPI PUSH2 0x52E6 PUSH2 0x51FE JUMP JUMPDEST PUSH2 0x52FA DUP4 PUSH2 0x52F4 DUP4 SLOAD PUSH2 0x522D JUMP JUMPDEST DUP4 PUSH2 0x5280 JUMP JUMPDEST PUSH1 0x0 PUSH1 0x1F DUP5 GT PUSH1 0x1 DUP2 EQ PUSH2 0x532E JUMPI PUSH1 0x0 DUP6 ISZERO PUSH2 0x5316 JUMPI POP DUP4 DUP3 ADD CALLDATALOAD JUMPDEST PUSH1 0x0 NOT PUSH1 0x3 DUP8 SWAP1 SHL SHR NOT AND PUSH1 0x1 DUP7 SWAP1 SHL OR DUP4 SSTORE PUSH2 0x10D7 JUMP JUMPDEST PUSH1 0x0 DUP4 DUP2 MSTORE PUSH1 0x20 SWAP1 KECCAK256 PUSH1 0x1F NOT DUP7 AND SWAP1 DUP4 JUMPDEST DUP3 DUP2 LT ISZERO PUSH2 0x535F JUMPI DUP7 DUP6 ADD CALLDATALOAD DUP3 SSTORE PUSH1 0x20 SWAP5 DUP6 ADD SWAP5 PUSH1 0x1 SWAP1 SWAP3 ADD SWAP2 ADD PUSH2 0x533F JUMP JUMPDEST POP DUP7 DUP3 LT ISZERO PUSH2 0x537C JUMPI PUSH1 0x0 NOT PUSH1 0xF8 DUP9 PUSH1 0x3 SHL AND SHR NOT DUP5 DUP8 ADD CALLDATALOAD AND DUP2 SSTORE JUMPDEST POP POP PUSH1 0x1 DUP6 PUSH1 0x1 SHL ADD DUP4 SSTORE POP POP POP POP POP JUMP JUMPDEST PUSH32 0x4E487B7100000000000000000000000000000000000000000000000000000000 PUSH1 0x0 MSTORE PUSH1 0x11 PUSH1 0x4 MSTORE PUSH1 0x24 PUSH1 0x0 REVERT JUMPDEST PUSH1 0x0 PUSH1 0xFF DUP3 AND DUP1 PUSH2 0x53D0 JUMPI PUSH2 0x53D0 PUSH2 0x538E JUMP JUMPDEST PUSH1 0x0 NOT ADD SWAP3 SWAP2 POP POP JUMP JUMPDEST PUSH32 0x4E487B7100000000000000000000000000000000000000000000000000000000 PUSH1 0x0 MSTORE PUSH1 0x32 PUSH1 0x4 MSTORE PUSH1 0x24 PUSH1 0x0 REVERT JUMPDEST DUP2 DUP2 SUB DUP2 DUP2 GT ISZERO PUSH2 0xB2B JUMPI PUSH2 0xB2B PUSH2 0x538E JUMP JUMPDEST PUSH32 0x4E487B7100000000000000000000000000000000000000000000000000000000 PUSH1 0x0 MSTORE PUSH1 0x31 PUSH1 0x4 MSTORE PUSH1 0x24 PUSH1 0x0 REVERT JUMPDEST PUSH1 0x0 PUSH1 0x0 NOT DUP3 SUB PUSH2 0x545E JUMPI PUSH2 0x545E PUSH2 0x538E JUMP JUMPDEST POP PUSH1 0x1 ADD SWAP1 JUMP JUMPDEST PUSH1 0x0 PUSH1 0xFF DUP3 AND PUSH1 0xFF DUP2 SUB PUSH2 0x547B JUMPI PUSH2 0x547B PUSH2 0x538E JUMP JUMPDEST PUSH1 0x1 ADD SWAP3 SWAP2 POP POP JUMP JUMPDEST PUSH1 0x0 DUP3 MLOAD PUSH2 0x5496 DUP2 DUP5 PUSH1 0x20 DUP8 ADD PUSH2 0x4DBA JUMP JUMPDEST SWAP2 SWAP1 SWAP2 ADD SWAP3 SWAP2 POP POP JUMP JUMPDEST PUSH1 0x0 PUSH2 0xFFFF DUP1 DUP4 AND DUP2 DUP2 SUB PUSH2 0x54B7 JUMPI PUSH2 0x54B7 PUSH2 0x538E JUMP JUMPDEST PUSH1 0x1 ADD SWAP4 SWAP3 POP POP POP JUMP JUMPDEST DUP2 MLOAD PUSH8 0xFFFFFFFFFFFFFFFF DUP2 GT ISZERO PUSH2 0x54DB JUMPI PUSH2 0x54DB PUSH2 0x51FE JUMP JUMPDEST PUSH2 0x54EF DUP2 PUSH2 0x54E9 DUP5 SLOAD PUSH2 0x522D JUMP JUMPDEST DUP5 PUSH2 0x5280 JUMP JUMPDEST PUSH1 0x20 DUP1 PUSH1 0x1F DUP4 GT PUSH1 0x1 DUP2 EQ PUSH2 0x5524 JUMPI PUSH1 0x0 DUP5 ISZERO PUSH2 0x550C JUMPI POP DUP6 DUP4 ADD MLOAD JUMPDEST PUSH1 0x0 NOT PUSH1 0x3 DUP7 SWAP1 SHL SHR NOT AND PUSH1 0x1 DUP6 SWAP1 SHL OR DUP6 SSTORE PUSH2 0x52C6 JUMP JUMPDEST PUSH1 0x0 DUP6 DUP2 MSTORE PUSH1 0x20 DUP2 KECCAK256 PUSH1 0x1F NOT DUP7 AND SWAP2 JUMPDEST DUP3 DUP2 LT ISZERO PUSH2 0x5553 JUMPI DUP9 DUP7 ADD MLOAD DUP3 SSTORE SWAP5 DUP5 ADD SWAP5 PUSH1 0x1 SWAP1 SWAP2 ADD SWAP1 DUP5 ADD PUSH2 0x5534 JUMP JUMPDEST POP DUP6 DUP3 LT ISZERO PUSH2 0x5571 JUMPI DUP8 DUP6 ADD MLOAD PUSH1 0x0 NOT PUSH1 0x3 DUP9 SWAP1 SHL PUSH1 0xF8 AND SHR NOT AND DUP2 SSTORE JUMPDEST POP POP POP POP POP PUSH1 0x1 SWAP1 DUP2 SHL ADD SWAP1 SSTORE POP JUMP JUMPDEST PUSH1 0x0 DUP3 PUSH1 0x1F DUP4 ADD SLT PUSH2 0x5592 JUMPI PUSH1 0x0 DUP1 REVERT JUMPDEST DUP2 MLOAD PUSH8 0xFFFFFFFFFFFFFFFF DUP1 DUP3 GT ISZERO PUSH2 0x55AD JUMPI PUSH2 0x55AD PUSH2 0x51FE JUMP JUMPDEST PUSH1 0x40 MLOAD PUSH1 0x1F DUP4 ADD PUSH1 0x1F NOT SWAP1 DUP2 AND PUSH1 0x3F ADD AND DUP2 ADD SWAP1 DUP3 DUP3 GT DUP2 DUP4 LT OR ISZERO PUSH2 0x55D5 JUMPI PUSH2 0x55D5 PUSH2 0x51FE JUMP JUMPDEST DUP2 PUSH1 0x40 MSTORE DUP4 DUP2 MSTORE DUP7 PUSH1 0x20 DUP6 DUP9 ADD ADD GT ISZERO PUSH2 0x55EE JUMPI PUSH1 0x0 DUP1 REVERT JUMPDEST PUSH2 0x55FF DUP5 PUSH1 0x20 DUP4 ADD PUSH1 0x20 DUP10 ADD PUSH2 0x4DBA JUMP JUMPDEST SWAP7 SWAP6 POP POP POP POP POP POP JUMP JUMPDEST PUSH1 0x0 DUP1 PUSH1 0x0 DUP1 PUSH1 0x0 DUP1 PUSH1 0x0 DUP1 PUSH1 0x0 DUP1 PUSH1 0x0 PUSH2 0x160 DUP13 DUP15 SUB SLT ISZERO PUSH2 0x562B JUMPI PUSH1 0x0 DUP1 REVERT JUMPDEST DUP12 MLOAD PUSH8 0xFFFFFFFFFFFFFFFF DUP2 GT ISZERO PUSH2 0x5642 JUMPI PUSH1 0x0 DUP1 REVERT JUMPDEST PUSH2 0x564E DUP15 DUP3 DUP16 ADD PUSH2 0x5581 JUMP JUMPDEST SWAP12 POP POP PUSH1 0x20 DUP13 ADD MLOAD PUSH8 0xFFFFFFFFFFFFFFFF DUP2 GT ISZERO PUSH2 0x566B JUMPI PUSH1 0x0 DUP1 REVERT JUMPDEST PUSH2 0x5677 DUP15 DUP3 DUP16 ADD PUSH2 0x5581 JUMP JUMPDEST SWAP11 POP POP PUSH1 0x40 DUP13 ADD MLOAD PUSH8 0xFFFFFFFFFFFFFFFF DUP2 GT ISZERO PUSH2 0x5694 JUMPI PUSH1 0x0 DUP1 REVERT JUMPDEST PUSH2 0x56A0 DUP15 DUP3 DUP16 ADD PUSH2 0x5581 JUMP JUMPDEST SWAP10 POP POP PUSH1 0x60 DUP13 ADD MLOAD PUSH8 0xFFFFFFFFFFFFFFFF DUP2 GT ISZERO PUSH2 0x56BD JUMPI PUSH1 0x0 DUP1 REVERT JUMPDEST PUSH2 0x56C9 DUP15 DUP3 DUP16 ADD PUSH2 0x5581 JUMP JUMPDEST SWAP9 POP POP PUSH2 0x56D8 PUSH1 0x80 DUP14 ADD PUSH2 0x51B4 JUMP JUMPDEST SWAP7 POP PUSH1 0xA0 DUP13 ADD MLOAD SWAP6 POP PUSH1 0xC0 DUP13 ADD MLOAD SWAP5 POP PUSH1 0xE0 DUP13 ADD MLOAD PUSH8 0xFFFFFFFFFFFFFFFF DUP2 GT ISZERO PUSH2 0x5702 JUMPI PUSH1 0x0 DUP1 REVERT JUMPDEST PUSH2 0x570E DUP15 DUP3 DUP16 ADD PUSH2 0x5581 JUMP JUMPDEST SWAP5 POP POP PUSH2 0x100 DUP13 ADD MLOAD PUSH8 0xFFFFFFFFFFFFFFFF DUP2 GT ISZERO PUSH2 0x572C JUMPI PUSH1 0x0 DUP1 REVERT JUMPDEST PUSH2 0x5738 DUP15 DUP3 DUP16 ADD PUSH2 0x5581 JUMP JUMPDEST SWAP4 POP POP PUSH2 0x120 DUP13 ADD MLOAD SWAP2 POP PUSH2 0x140 DUP13 ADD MLOAD SWAP1 POP SWAP3 SWAP6 SWAP9 SWAP12 POP SWAP3 SWAP6 SWAP9 SWAP12 SWAP1 SWAP4 SWAP7 SWAP10 POP JUMP JUMPDEST PUSH1 0x0 DUP2 PUSH2 0x576A JUMPI PUSH2 0x576A PUSH2 0x538E JUMP JUMPDEST POP PUSH1 0x0 NOT ADD SWAP1 JUMP JUMPDEST DUP1 DUP3 ADD DUP1 DUP3 GT ISZERO PUSH2 0xB2B JUMPI PUSH2 0xB2B PUSH2 0x538E JUMP JUMPDEST PUSH1 0xFF DUP2 DUP2 AND DUP4 DUP3 AND ADD SWAP1 DUP2 GT ISZERO PUSH2 0xB2B JUMPI PUSH2 0xB2B PUSH2 0x538E JUMP INVALID LOG2 PUSH5 0x6970667358 0x22 SLT KECCAK256 PUSH11 0xE53540444B47983FA1E957 SIGNEXTEND CODESIZE JUMPI 0xB3 SWAP8 0x2B PUSH20 0x3888D5DE1305AEAEEDDCBDE57D64736F6C634300 ADDMOD SLT STOP CALLER "
		},
		"gasEstimates": {
			"creation": {
				"codeDepositCost": "4496800",
				"executionCost": "infinite",
				"totalCost": "infinite"
			},
			"external": {
				"CLAN_CREATION_COST()": "285",
				"CLAN_FLAG_COST()": "286",
				"LEAVE_CLAN_BURN()": "284",
				"LEAVE_CLAN_COST()": "264",
				"LEAVE_CLAN_PAYOUT()": "262",
				"MAX_MEMBERS()": "270",
				"REMOVE_MEMBER_BURN()": "306",
				"REMOVE_MEMBER_COST()": "264",
				"REMOVE_MEMBER_PAYOUT()": "285",
				"TILE_NAMING_COST()": "264",
				"acceptInviteForTile(uint8,uint8)": "infinite",
				"bonuses(uint256,uint256)": "4251",
				"clanFlags(uint16)": "2575",
				"clanMemberTiles(uint16,uint256)": "6497",
				"clanNameTaken(bytes32)": "2563",
				"clans(uint16)": "infinite",
				"createClan(uint8,uint8,string)": "infinite",
				"disbandClan(uint16,uint8,uint8)": "infinite",
				"getAllClans()": "infinite",
				"getAllTilesWithClans()": "infinite",
				"getBonus(uint8,uint8)": "infinite",
				"getClanInfo(uint16)": "infinite",
				"getClanLeaderCoords(uint16)": "4936",
				"getClanMemberCount(uint16)": "4885",
				"getClanMemberTiles(uint16)": "infinite",
				"getTileClan(uint8,uint8)": "infinite",
				"getTileClanName(uint8,uint8)": "infinite",
				"getTileName(uint8,uint8)": "infinite",
				"getTwitterHandle(address)": "infinite",
				"inviteTileToClan(uint16,uint8,uint8,uint8,uint8)": "infinite",
				"isClanNameAvailable(string)": "infinite",
				"leaveClanForTile(uint8,uint8)": "infinite",
				"lopToken()": "2428",
				"membersByTile(uint16)": "2637",
				"nameTile(uint8,uint8,string)": "infinite",
				"nftMarket()": "2428",
				"pendingInvitesByTile(uint16)": "2634",
				"refuseInviteForTile(uint8,uint8)": "infinite",
				"removeMemberTile(uint16,uint8,uint8,uint8,uint8)": "infinite",
				"setClanFlag(uint16,uint8,uint8,uint256)": "infinite",
				"setTwitterHandle(string)": "infinite",
				"theLand()": "2404",
				"tileClans(uint8,uint8)": "infinite",
				"tileMapPhaser()": "2449",
				"tileNames(uint8,uint8)": "infinite",
				"twitterHandles(address)": "infinite"
			},
			"internal": {
				"_assertValidName(string calldata)": "infinite",
				"_nameKey(string memory)": "infinite",
				"_tileKey(uint8,uint8)": "infinite",
				"_toLower(string memory)": "infinite",
				"_trim(string memory)": "infinite",
				"_unpackKey(uint16)": "infinite"
			}
		},
		"methodIdentifiers": {
			"CLAN_CREATION_COST()": "731ae689",
			"CLAN_FLAG_COST()": "65191666",
			"LEAVE_CLAN_BURN()": "e4547fb4",
			"LEAVE_CLAN_COST()": "2e4b51bd",
			"LEAVE_CLAN_PAYOUT()": "5387a797",
			"MAX_MEMBERS()": "ea0e35b1",
			"REMOVE_MEMBER_BURN()": "e6192fca",
			"REMOVE_MEMBER_COST()": "0cea9dc5",
			"REMOVE_MEMBER_PAYOUT()": "2c6d422f",
			"TILE_NAMING_COST()": "62c5813d",
			"acceptInviteForTile(uint8,uint8)": "a609775b",
			"bonuses(uint256,uint256)": "bc9955a2",
			"clanFlags(uint16)": "40b900b6",
			"clanMemberTiles(uint16,uint256)": "b21e0737",
			"clanNameTaken(bytes32)": "36780527",
			"clans(uint16)": "be5ed4c3",
			"createClan(uint8,uint8,string)": "98a8d0e7",
			"disbandClan(uint16,uint8,uint8)": "6f5978d9",
			"getAllClans()": "9b21d6eb",
			"getAllTilesWithClans()": "2dec2e63",
			"getBonus(uint8,uint8)": "2a2026a9",
			"getClanInfo(uint16)": "8252a669",
			"getClanLeaderCoords(uint16)": "abefc323",
			"getClanMemberCount(uint16)": "5aa24cbd",
			"getClanMemberTiles(uint16)": "793c97de",
			"getTileClan(uint8,uint8)": "7ab9e7fe",
			"getTileClanName(uint8,uint8)": "9cec5194",
			"getTileName(uint8,uint8)": "09e59cec",
			"getTwitterHandle(address)": "f15ad264",
			"inviteTileToClan(uint16,uint8,uint8,uint8,uint8)": "15b7ed6f",
			"isClanNameAvailable(string)": "3f9662bb",
			"leaveClanForTile(uint8,uint8)": "1cecb4fb",
			"lopToken()": "0d67f59e",
			"membersByTile(uint16)": "3942613c",
			"nameTile(uint8,uint8,string)": "0821de3e",
			"nftMarket()": "196ab1ab",
			"pendingInvitesByTile(uint16)": "40b76bbd",
			"refuseInviteForTile(uint8,uint8)": "44ad764d",
			"removeMemberTile(uint16,uint8,uint8,uint8,uint8)": "8e6bb70e",
			"setClanFlag(uint16,uint8,uint8,uint256)": "fa60ad99",
			"setTwitterHandle(string)": "2f57741c",
			"theLand()": "b0d77774",
			"tileClans(uint8,uint8)": "58612a20",
			"tileMapPhaser()": "4f264b03",
			"tileNames(uint8,uint8)": "7b0c98ef",
			"twitterHandles(address)": "13a5cede"
		}
	},
	"abi": [
		{
			"inputs": [
				{
					"internalType": "address",
					"name": "_tileMapPhaser",
					"type": "address"
				},
				{
					"internalType": "address",
					"name": "_lopToken",
					"type": "address"
				},
				{
					"internalType": "address",
					"name": "_nftMarket",
					"type": "address"
				},
				{
					"internalType": "address",
					"name": "_theLand",
					"type": "address"
				}
			],
			"stateMutability": "nonpayable",
			"type": "constructor"
		},
		{
			"inputs": [],
			"name": "CLAN_CREATION_COST",
			"outputs": [
				{
					"internalType": "uint256",
					"name": "",
					"type": "uint256"
				}
			],
			"stateMutability": "view",
			"type": "function"
		},
		{
			"inputs": [],
			"name": "CLAN_FLAG_COST",
			"outputs": [
				{
					"internalType": "uint256",
					"name": "",
					"type": "uint256"
				}
			],
			"stateMutability": "view",
			"type": "function"
		},
		{
			"inputs": [],
			"name": "LEAVE_CLAN_BURN",
			"outputs": [
				{
					"internalType": "uint256",
					"name": "",
					"type": "uint256"
				}
			],
			"stateMutability": "view",
			"type": "function"
		},
		{
			"inputs": [],
			"name": "LEAVE_CLAN_COST",
			"outputs": [
				{
					"internalType": "uint256",
					"name": "",
					"type": "uint256"
				}
			],
			"stateMutability": "view",
			"type": "function"
		},
		{
			"inputs": [],
			"name": "LEAVE_CLAN_PAYOUT",
			"outputs": [
				{
					"internalType": "uint256",
					"name": "",
					"type": "uint256"
				}
			],
			"stateMutability": "view",
			"type": "function"
		},
		{
			"inputs": [],
			"name": "MAX_MEMBERS",
			"outputs": [
				{
					"internalType": "uint8",
					"name": "",
					"type": "uint8"
				}
			],
			"stateMutability": "view",
			"type": "function"
		},
		{
			"inputs": [],
			"name": "REMOVE_MEMBER_BURN",
			"outputs": [
				{
					"internalType": "uint256",
					"name": "",
					"type": "uint256"
				}
			],
			"stateMutability": "view",
			"type": "function"
		},
		{
			"inputs": [],
			"name": "REMOVE_MEMBER_COST",
			"outputs": [
				{
					"internalType": "uint256",
					"name": "",
					"type": "uint256"
				}
			],
			"stateMutability": "view",
			"type": "function"
		},
		{
			"inputs": [],
			"name": "REMOVE_MEMBER_PAYOUT",
			"outputs": [
				{
					"internalType": "uint256",
					"name": "",
					"type": "uint256"
				}
			],
			"stateMutability": "view",
			"type": "function"
		},
		{
			"inputs": [],
			"name": "TILE_NAMING_COST",
			"outputs": [
				{
					"internalType": "uint256",
					"name": "",
					"type": "uint256"
				}
			],
			"stateMutability": "view",
			"type": "function"
		},
		{
			"inputs": [
				{
					"internalType": "uint8",
					"name": "x",
					"type": "uint8"
				},
				{
					"internalType": "uint8",
					"name": "y",
					"type": "uint8"
				}
			],
			"name": "acceptInviteForTile",
			"outputs": [],
			"stateMutability": "nonpayable",
			"type": "function"
		},
		{
			"inputs": [
				{
					"internalType": "uint256",
					"name": "",
					"type": "uint256"
				},
				{
					"internalType": "uint256",
					"name": "",
					"type": "uint256"
				}
			],
			"name": "bonuses",
			"outputs": [
				{
					"internalType": "uint8",
					"name": "",
					"type": "uint8"
				}
			],
			"stateMutability": "view",
			"type": "function"
		},
		{
			"inputs": [
				{
					"internalType": "uint16",
					"name": "",
					"type": "uint16"
				}
			],
			"name": "clanFlags",
			"outputs": [
				{
					"internalType": "uint256",
					"name": "",
					"type": "uint256"
				}
			],
			"stateMutability": "view",
			"type": "function"
		},
		{
			"inputs": [
				{
					"internalType": "uint16",
					"name": "",
					"type": "uint16"
				},
				{
					"internalType": "uint256",
					"name": "",
					"type": "uint256"
				}
			],
			"name": "clanMemberTiles",
			"outputs": [
				{
					"internalType": "uint16",
					"name": "",
					"type": "uint16"
				}
			],
			"stateMutability": "view",
			"type": "function"
		},
		{
			"inputs": [
				{
					"internalType": "bytes32",
					"name": "",
					"type": "bytes32"
				}
			],
			"name": "clanNameTaken",
			"outputs": [
				{
					"internalType": "bool",
					"name": "",
					"type": "bool"
				}
			],
			"stateMutability": "view",
			"type": "function"
		},
		{
			"inputs": [
				{
					"internalType": "uint16",
					"name": "",
					"type": "uint16"
				}
			],
			"name": "clans",
			"outputs": [
				{
					"internalType": "string",
					"name": "name",
					"type": "string"
				},
				{
					"internalType": "uint8",
					"name": "leaderX",
					"type": "uint8"
				},
				{
					"internalType": "uint8",
					"name": "leaderY",
					"type": "uint8"
				},
				{
					"internalType": "uint8",
					"name": "memberCount",
					"type": "uint8"
				},
				{
					"internalType": "bool",
					"name": "exists",
					"type": "bool"
				}
			],
			"stateMutability": "view",
			"type": "function"
		},
		{
			"inputs": [
				{
					"internalType": "uint8",
					"name": "x",
					"type": "uint8"
				},
				{
					"internalType": "uint8",
					"name": "y",
					"type": "uint8"
				},
				{
					"internalType": "string",
					"name": "name",
					"type": "string"
				}
			],
			"name": "createClan",
			"outputs": [],
			"stateMutability": "nonpayable",
			"type": "function"
		},
		{
			"inputs": [
				{
					"internalType": "uint16",
					"name": "clanId",
					"type": "uint16"
				},
				{
					"internalType": "uint8",
					"name": "lx",
					"type": "uint8"
				},
				{
					"internalType": "uint8",
					"name": "ly",
					"type": "uint8"
				}
			],
			"name": "disbandClan",
			"outputs": [],
			"stateMutability": "nonpayable",
			"type": "function"
		},
		{
			"inputs": [],
			"name": "getAllClans",
			"outputs": [
				{
					"components": [
						{
							"internalType": "string",
							"name": "name",
							"type": "string"
						},
						{
							"internalType": "uint8",
							"name": "leaderX",
							"type": "uint8"
						},
						{
							"internalType": "uint8",
							"name": "leaderY",
							"type": "uint8"
						},
						{
							"internalType": "uint8",
							"name": "memberCount",
							"type": "uint8"
						},
						{
							"internalType": "bool",
							"name": "exists",
							"type": "bool"
						}
					],
					"internalType": "struct Clan.ClanInfo[]",
					"name": "",
					"type": "tuple[]"
				}
			],
			"stateMutability": "view",
			"type": "function"
		},
		{
			"inputs": [],
			"name": "getAllTilesWithClans",
			"outputs": [
				{
					"components": [
						{
							"internalType": "uint8",
							"name": "x",
							"type": "uint8"
						},
						{
							"internalType": "uint8",
							"name": "y",
							"type": "uint8"
						},
						{
							"internalType": "uint16",
							"name": "clanId",
							"type": "uint16"
						},
						{
							"internalType": "uint256",
							"name": "flagTokenId",
							"type": "uint256"
						}
					],
					"internalType": "struct Clan.TileClanInfo[]",
					"name": "",
					"type": "tuple[]"
				}
			],
			"stateMutability": "view",
			"type": "function"
		},
		{
			"inputs": [
				{
					"internalType": "uint8",
					"name": "x",
					"type": "uint8"
				},
				{
					"internalType": "uint8",
					"name": "y",
					"type": "uint8"
				}
			],
			"name": "getBonus",
			"outputs": [
				{
					"internalType": "uint8",
					"name": "",
					"type": "uint8"
				}
			],
			"stateMutability": "view",
			"type": "function"
		},
		{
			"inputs": [
				{
					"internalType": "uint16",
					"name": "clanId",
					"type": "uint16"
				}
			],
			"name": "getClanInfo",
			"outputs": [
				{
					"components": [
						{
							"internalType": "string",
							"name": "name",
							"type": "string"
						},
						{
							"internalType": "uint8",
							"name": "leaderX",
							"type": "uint8"
						},
						{
							"internalType": "uint8",
							"name": "leaderY",
							"type": "uint8"
						},
						{
							"internalType": "uint8",
							"name": "memberCount",
							"type": "uint8"
						},
						{
							"internalType": "bool",
							"name": "exists",
							"type": "bool"
						}
					],
					"internalType": "struct Clan.ClanInfo",
					"name": "",
					"type": "tuple"
				}
			],
			"stateMutability": "view",
			"type": "function"
		},
		{
			"inputs": [
				{
					"internalType": "uint16",
					"name": "clanId",
					"type": "uint16"
				}
			],
			"name": "getClanLeaderCoords",
			"outputs": [
				{
					"internalType": "uint8",
					"name": "",
					"type": "uint8"
				},
				{
					"internalType": "uint8",
					"name": "",
					"type": "uint8"
				}
			],
			"stateMutability": "view",
			"type": "function"
		},
		{
			"inputs": [
				{
					"internalType": "uint16",
					"name": "clanId",
					"type": "uint16"
				}
			],
			"name": "getClanMemberCount",
			"outputs": [
				{
					"internalType": "uint8",
					"name": "",
					"type": "uint8"
				}
			],
			"stateMutability": "view",
			"type": "function"
		},
		{
			"inputs": [
				{
					"internalType": "uint16",
					"name": "clanId",
					"type": "uint16"
				}
			],
			"name": "getClanMemberTiles",
			"outputs": [
				{
					"components": [
						{
							"internalType": "uint8",
							"name": "x",
							"type": "uint8"
						},
						{
							"internalType": "uint8",
							"name": "y",
							"type": "uint8"
						},
						{
							"internalType": "uint16",
							"name": "clanId",
							"type": "uint16"
						},
						{
							"internalType": "uint256",
							"name": "flagTokenId",
							"type": "uint256"
						}
					],
					"internalType": "struct Clan.TileClanInfo[]",
					"name": "",
					"type": "tuple[]"
				}
			],
			"stateMutability": "view",
			"type": "function"
		},
		{
			"inputs": [
				{
					"internalType": "uint8",
					"name": "x",
					"type": "uint8"
				},
				{
					"internalType": "uint8",
					"name": "y",
					"type": "uint8"
				}
			],
			"name": "getTileClan",
			"outputs": [
				{
					"internalType": "uint16",
					"name": "",
					"type": "uint16"
				}
			],
			"stateMutability": "view",
			"type": "function"
		},
		{
			"inputs": [
				{
					"internalType": "uint8",
					"name": "x",
					"type": "uint8"
				},
				{
					"internalType": "uint8",
					"name": "y",
					"type": "uint8"
				}
			],
			"name": "getTileClanName",
			"outputs": [
				{
					"internalType": "string",
					"name": "",
					"type": "string"
				}
			],
			"stateMutability": "view",
			"type": "function"
		},
		{
			"inputs": [
				{
					"internalType": "uint8",
					"name": "x",
					"type": "uint8"
				},
				{
					"internalType": "uint8",
					"name": "y",
					"type": "uint8"
				}
			],
			"name": "getTileName",
			"outputs": [
				{
					"internalType": "string",
					"name": "",
					"type": "string"
				}
			],
			"stateMutability": "view",
			"type": "function"
		},
		{
			"inputs": [
				{
					"internalType": "address",
					"name": "user",
					"type": "address"
				}
			],
			"name": "getTwitterHandle",
			"outputs": [
				{
					"internalType": "string",
					"name": "",
					"type": "string"
				}
			],
			"stateMutability": "view",
			"type": "function"
		},
		{
			"inputs": [
				{
					"internalType": "uint16",
					"name": "clanId",
					"type": "uint16"
				},
				{
					"internalType": "uint8",
					"name": "lx",
					"type": "uint8"
				},
				{
					"internalType": "uint8",
					"name": "ly",
					"type": "uint8"
				},
				{
					"internalType": "uint8",
					"name": "targetX",
					"type": "uint8"
				},
				{
					"internalType": "uint8",
					"name": "targetY",
					"type": "uint8"
				}
			],
			"name": "inviteTileToClan",
			"outputs": [],
			"stateMutability": "nonpayable",
			"type": "function"
		},
		{
			"inputs": [
				{
					"internalType": "string",
					"name": "name",
					"type": "string"
				}
			],
			"name": "isClanNameAvailable",
			"outputs": [
				{
					"internalType": "bool",
					"name": "",
					"type": "bool"
				}
			],
			"stateMutability": "view",
			"type": "function"
		},
		{
			"inputs": [
				{
					"internalType": "uint8",
					"name": "x",
					"type": "uint8"
				},
				{
					"internalType": "uint8",
					"name": "y",
					"type": "uint8"
				}
			],
			"name": "leaveClanForTile",
			"outputs": [],
			"stateMutability": "nonpayable",
			"type": "function"
		},
		{
			"inputs": [],
			"name": "lopToken",
			"outputs": [
				{
					"internalType": "contract IHarmLop",
					"name": "",
					"type": "address"
				}
			],
			"stateMutability": "view",
			"type": "function"
		},
		{
			"inputs": [
				{
					"internalType": "uint16",
					"name": "",
					"type": "uint16"
				}
			],
			"name": "membersByTile",
			"outputs": [
				{
					"internalType": "uint16",
					"name": "clanId",
					"type": "uint16"
				},
				{
					"internalType": "bool",
					"name": "isMember",
					"type": "bool"
				}
			],
			"stateMutability": "view",
			"type": "function"
		},
		{
			"inputs": [
				{
					"internalType": "uint8",
					"name": "x",
					"type": "uint8"
				},
				{
					"internalType": "uint8",
					"name": "y",
					"type": "uint8"
				},
				{
					"internalType": "string",
					"name": "newName",
					"type": "string"
				}
			],
			"name": "nameTile",
			"outputs": [],
			"stateMutability": "nonpayable",
			"type": "function"
		},
		{
			"inputs": [],
			"name": "nftMarket",
			"outputs": [
				{
					"internalType": "contract IMyNFTMarket",
					"name": "",
					"type": "address"
				}
			],
			"stateMutability": "view",
			"type": "function"
		},
		{
			"inputs": [
				{
					"internalType": "uint16",
					"name": "",
					"type": "uint16"
				}
			],
			"name": "pendingInvitesByTile",
			"outputs": [
				{
					"internalType": "uint16",
					"name": "",
					"type": "uint16"
				}
			],
			"stateMutability": "view",
			"type": "function"
		},
		{
			"inputs": [
				{
					"internalType": "uint8",
					"name": "x",
					"type": "uint8"
				},
				{
					"internalType": "uint8",
					"name": "y",
					"type": "uint8"
				}
			],
			"name": "refuseInviteForTile",
			"outputs": [],
			"stateMutability": "nonpayable",
			"type": "function"
		},
		{
			"inputs": [
				{
					"internalType": "uint16",
					"name": "clanId",
					"type": "uint16"
				},
				{
					"internalType": "uint8",
					"name": "lx",
					"type": "uint8"
				},
				{
					"internalType": "uint8",
					"name": "ly",
					"type": "uint8"
				},
				{
					"internalType": "uint8",
					"name": "mx",
					"type": "uint8"
				},
				{
					"internalType": "uint8",
					"name": "my",
					"type": "uint8"
				}
			],
			"name": "removeMemberTile",
			"outputs": [],
			"stateMutability": "nonpayable",
			"type": "function"
		},
		{
			"inputs": [
				{
					"internalType": "uint16",
					"name": "clanId",
					"type": "uint16"
				},
				{
					"internalType": "uint8",
					"name": "lx",
					"type": "uint8"
				},
				{
					"internalType": "uint8",
					"name": "ly",
					"type": "uint8"
				},
				{
					"internalType": "uint256",
					"name": "tokenId",
					"type": "uint256"
				}
			],
			"name": "setClanFlag",
			"outputs": [],
			"stateMutability": "nonpayable",
			"type": "function"
		},
		{
			"inputs": [
				{
					"internalType": "string",
					"name": "handle",
					"type": "string"
				}
			],
			"name": "setTwitterHandle",
			"outputs": [],
			"stateMutability": "nonpayable",
			"type": "function"
		},
		{
			"inputs": [],
			"name": "theLand",
			"outputs": [
				{
					"internalType": "contract ITheLand",
					"name": "",
					"type": "address"
				}
			],
			"stateMutability": "view",
			"type": "function"
		},
		{
			"inputs": [
				{
					"internalType": "uint8",
					"name": "",
					"type": "uint8"
				},
				{
					"internalType": "uint8",
					"name": "",
					"type": "uint8"
				}
			],
			"name": "tileClans",
			"outputs": [
				{
					"internalType": "uint16",
					"name": "",
					"type": "uint16"
				}
			],
			"stateMutability": "view",
			"type": "function"
		},
		{
			"inputs": [],
			"name": "tileMapPhaser",
			"outputs": [
				{
					"internalType": "contract ITileMapPhaser",
					"name": "",
					"type": "address"
				}
			],
			"stateMutability": "view",
			"type": "function"
		},
		{
			"inputs": [
				{
					"internalType": "uint8",
					"name": "",
					"type": "uint8"
				},
				{
					"internalType": "uint8",
					"name": "",
					"type": "uint8"
				}
			],
			"name": "tileNames",
			"outputs": [
				{
					"internalType": "string",
					"name": "",
					"type": "string"
				}
			],
			"stateMutability": "view",
			"type": "function"
		},
		{
			"inputs": [
				{
					"internalType": "address",
					"name": "",
					"type": "address"
				}
			],
			"name": "twitterHandles",
			"outputs": [
				{
					"internalType": "string",
					"name": "",
					"type": "string"
				}
			],
			"stateMutability": "view",
			"type": "function"
		}
	]
}