{
	"data": {
		"bytecode": {
			"linkReferences": {},
			"object": "60806040523480156200001157600080fd5b506040516200553d3803806200553d83398181016040528101906200003791906200016c565b826000806101000a81548173ffffffffffffffffffffffffffffffffffffffff021916908373ffffffffffffffffffffffffffffffffffffffff16021790555081600160006101000a81548173ffffffffffffffffffffffffffffffffffffffff021916908373ffffffffffffffffffffffffffffffffffffffff16021790555080600860006101000a81548173ffffffffffffffffffffffffffffffffffffffff021916908373ffffffffffffffffffffffffffffffffffffffff160217905550505050620001c8565b600080fd5b600073ffffffffffffffffffffffffffffffffffffffff82169050919050565b6000620001348262000107565b9050919050565b620001468162000127565b81146200015257600080fd5b50565b60008151905062000166816200013b565b92915050565b60008060006060848603121562000188576200018762000102565b5b6000620001988682870162000155565b9350506020620001ab8682870162000155565b9250506040620001be8682870162000155565b9150509250925092565b61536580620001d86000396000f3fe608060405234801561001057600080fd5b50600436106101cf5760003560e01c806369274803116101045780639d995717116100a2578063c2024ede11610071578063c2024ede14610531578063d4ceeec01461054d578063ea0e35b114610580578063eaa105761461059e576101cf565b80639d995717146104d1578063aae1aa3714610501578063bbb4d3e91461050b578063bde7ef8214610515576101cf565b80637b0c98ef116100de5780637b0c98ef1461045d578063867222281461048d5780639adff8d0146104975780639b21d6eb146104b3576101cf565b806369274803146103f3578063731ae6891461040f5780637ab9e7fe1461042d576101cf565b80631d0373ad116101715780632fad04291161014b5780632fad0429146103575780634f264b031461038757806358612a20146103a557806362c5813d146103d5576101cf565b80631d0373ad146102d95780631db8d500146103095780632dec2e6314610339576101cf565b806309e59cec116101ad57806309e59cec146102515780630d67f59e1461028157806314cebc711461029f578063196ab1ab146102bb576101cf565b80630636fcb2146101d45780630821de3e1461020457806308ae4b0c14610220575b600080fd5b6101ee60048036038101906101e9919061360a565b6105ce565b6040516101fb9190613727565b60405180910390f35b61021e600480360381019061021991906137ae565b610675565b005b61023a6004803603810190610235919061384e565b610944565b6040516102489291906138a5565b60405180910390f35b61026b600480360381019061026691906138ce565b610982565b604051610278919061399e565b60405180910390f35b610289610a45565b6040516102969190613a1f565b60405180910390f35b6102b960048036038101906102b49190613a3a565b610a6b565b005b6102c3610fe2565b6040516102d09190613aa8565b60405180910390f35b6102f360048036038101906102ee919061384e565b611008565b6040516103009190613ac3565b60405180910390f35b610323600480360381019061031e9190613b14565b611028565b6040516103309190613b63565b60405180910390f35b610341611076565b60405161034e9190613ca0565b60405180910390f35b610371600480360381019061036c919061360a565b61127c565b60405161037e9190613d7e565b60405180910390f35b61038f6113cf565b60405161039c9190613dc1565b60405180910390f35b6103bf60048036038101906103ba91906138ce565b6113f3565b6040516103cc9190613ac3565b60405180910390f35b6103dd611422565b6040516103ea9190613deb565b60405180910390f35b61040d60048036038101906104089190613e06565b61142b565b005b61041761171f565b6040516104249190613deb565b60405180910390f35b610447600480360381019061044291906138ce565b611728565b6040516104549190613ac3565b60405180910390f35b610477600480360381019061047291906138ce565b611770565b604051610484919061399e565b60405180910390f35b61049561181d565b005b6104b160048036038101906104ac9190613b14565b611900565b005b6104bb611c61565b6040516104c89190613f6b565b60405180910390f35b6104eb60048036038101906104e6919061360a565b611f12565b6040516104f89190613ac3565b60405180910390f35b610509611fae565b005b610513612500565b005b61052f600480360381019061052a919061360a565b61294c565b005b61054b60048036038101906105469190613e06565b612c8a565b005b6105676004803603810190610562919061360a565b61312a565b6040516105779493929190613f8d565b60405180910390f35b61058861321c565b6040516105959190613ac3565b60405180910390f35b6105b860048036038101906105b3919061360a565b613221565b6040516105c59190613deb565b60405180910390f35b6060600460008360ff1660ff16815260200190815260200160002080548060200260200160405190810160405280929190818152602001828054801561066957602002820191906000526020600020905b8160009054906101000a900473ffffffffffffffffffffffffffffffffffffffff1673ffffffffffffffffffffffffffffffffffffffff168152602001906001019080831161061f575b50505050509050919050565b600082829050116106bb576040517f08c379a00000000000000000000000000000000000000000000000000000000081526004016106b290614025565b60405180910390fd5b3373ffffffffffffffffffffffffffffffffffffffff1660008054906101000a900473ffffffffffffffffffffffffffffffffffffffff1673ffffffffffffffffffffffffffffffffffffffff16638a88895386866040518363ffffffff1660e01b815260040161072d929190614045565b602060405180830381865afa15801561074a573d6000803e3d6000fd5b505050506040513d601f19601f8201168201806040525081019061076e9190614083565b73ffffffffffffffffffffffffffffffffffffffff16146107c4576040517f08c379a00000000000000000000000000000000000000000000000000000000081526004016107bb90614122565b60405180910390fd5b600160009054906101000a900473ffffffffffffffffffffffffffffffffffffffff1673ffffffffffffffffffffffffffffffffffffffff166323b872dd33306402540be4006040518463ffffffff1660e01b815260040161082893929190614142565b6020604051808303816000875af1158015610847573d6000803e3d6000fd5b505050506040513d601f19601f8201168201806040525081019061086b91906141a5565b6108aa576040517f08c379a00000000000000000000000000000000000000000000000000000000081526004016108a19061421e565b60405180910390fd5b8181600660008760ff1660ff16815260200190815260200160002060008660ff1660ff16815260200190815260200160002091826108e992919061447a565b503373ffffffffffffffffffffffffffffffffffffffff167f4ca3860ff74978d12a483f5d8fa68a3f3c3ceb09b008784dc253bfbc348ab3e8858585856040516109369493929190614586565b60405180910390a250505050565b60036020528060005260406000206000915090508060000160009054906101000a900460ff16908060000160019054906101000a900460ff16905082565b6060600660008460ff1660ff16815260200190815260200160002060008360ff1660ff16815260200190815260200160002080546109bf906142a7565b80601f01602080910402602001604051908101604052809291908181526020018280546109eb906142a7565b8015610a385780601f10610a0d57610100808354040283529160200191610a38565b820191906000526020600020905b815481529060010190602001808311610a1b57829003601f168201915b5050505050905092915050565b600160009054906101000a900473ffffffffffffffffffffffffffffffffffffffff1681565b610a7433613239565b610ab3576040517f08c379a0000000000000000000000000000000000000000000000000000000008152600401610aaa90614638565b60405180910390fd5b60008282905011610af9576040517f08c379a0000000000000000000000000000000000000000000000000000000008152600401610af0906146a4565b60405180910390fd5b600360003373ffffffffffffffffffffffffffffffffffffffff1673ffffffffffffffffffffffffffffffffffffffff16815260200190815260200160002060000160019054906101000a900460ff1615610b89576040517f08c379a0000000000000000000000000000000000000000000000000000000008152600401610b8090614710565b60405180910390fd5b600160009054906101000a900473ffffffffffffffffffffffffffffffffffffffff1673ffffffffffffffffffffffffffffffffffffffff166323b872dd333064174876e8006040518463ffffffff1660e01b8152600401610bed93929190614142565b6020604051808303816000875af1158015610c0c573d6000803e3d6000fd5b505050506040513d601f19601f82011682018060405250810190610c3091906141a5565b610c6f576040517f08c379a0000000000000000000000000000000000000000000000000000000008152600401610c669061477c565b60405180910390fd5b6001601481819054906101000a900460ff1680929190610c8e906147cb565b91906101000a81548160ff021916908360ff16021790555050604051806080016040528083838080601f016020809104026020016040519081016040528093929190818152602001838380828437600081840152601f19601f8201169050808301925050505050505081526020013373ffffffffffffffffffffffffffffffffffffffff168152602001600160ff1681526020016001151581525060026000600160149054906101000a900460ff1660ff1660ff1681526020019081526020016000206000820151816000019081610d6691906147f4565b5060208201518160010160006101000a81548173ffffffffffffffffffffffffffffffffffffffff021916908373ffffffffffffffffffffffffffffffffffffffff16021790555060408201518160010160146101000a81548160ff021916908360ff16021790555060608201518160010160156101000a81548160ff0219169083151502179055509050506040518060400160405280600160149054906101000a900460ff1660ff16815260200160011515815250600360003373ffffffffffffffffffffffffffffffffffffffff1673ffffffffffffffffffffffffffffffffffffffff16815260200190815260200160002060008201518160000160006101000a81548160ff021916908360ff16021790555060208201518160000160016101000a81548160ff02191690831515021790555090505060046000600160149054906101000a900460ff1660ff1660ff168152602001908152602001600020339080600181540180825580915050600190039060005260206000200160009091909190916101000a81548173ffffffffffffffffffffffffffffffffffffffff021916908373ffffffffffffffffffffffffffffffffffffffff160217905550600080610f3433613367565b91509150600160149054906101000a900460ff16600760008460ff1660ff16815260200190815260200160002060008360ff1660ff16815260200190815260200160002060006101000a81548160ff021916908360ff1602179055507f02894fc6a8646076b891138309ffb3fc9086490a703074b2b2d77c5dcddb43de600160149054906101000a900460ff16858533604051610fd494939291906148c6565b60405180910390a150505050565b600860009054906101000a900473ffffffffffffffffffffffffffffffffffffffff1681565b60056020528060005260406000206000915054906101000a900460ff1681565b6004602052816000526040600020818154811061104457600080fd5b906000526020600020016000915091509054906101000a900473ffffffffffffffffffffffffffffffffffffffff1681565b60606000805b60148160ff1610156111155760005b60148160ff161015611101576000600760008460ff1660ff16815260200190815260200160002060008360ff1660ff16815260200190815260200160002060009054906101000a900460ff1660ff16146110ee5782806110ea90614906565b9350505b80806110f9906147cb565b91505061108b565b50808061110d906147cb565b91505061107c565b5060008167ffffffffffffffff81111561113257611131614249565b5b60405190808252806020026020018201604052801561116b57816020015b6111586134cb565b8152602001906001900390816111505790505b5090506000805b60148160ff1610156112725760005b60148160ff16101561125e576000600760008460ff1660ff16815260200190815260200160002060008360ff1660ff16815260200190815260200160002060009054906101000a900460ff16905060008160ff161461124a5760405180608001604052808460ff1681526020018360ff1681526020018260ff168152602001600960008460ff1660ff168152602001908152602001600020548152508585815181106112305761122f61494e565b5b6020026020010181905250838061124690614906565b9450505b508080611256906147cb565b915050611181565b50808061126a906147cb565b915050611172565b5081935050505090565b6112846134fc565b600260008360ff1660ff1681526020019081526020016000206040518060800160405290816000820180546112b8906142a7565b80601f01602080910402602001604051908101604052809291908181526020018280546112e4906142a7565b80156113315780601f1061130657610100808354040283529160200191611331565b820191906000526020600020905b81548152906001019060200180831161131457829003601f168201915b505050505081526020016001820160009054906101000a900473ffffffffffffffffffffffffffffffffffffffff1673ffffffffffffffffffffffffffffffffffffffff1673ffffffffffffffffffffffffffffffffffffffff1681526020016001820160149054906101000a900460ff1660ff1660ff1681526020016001820160159054906101000a900460ff1615151515815250509050919050565b60008054906101000a900473ffffffffffffffffffffffffffffffffffffffff1681565b60076020528160005260406000206020528060005260406000206000915091509054906101000a900460ff1681565b6402540be40081565b813373ffffffffffffffffffffffffffffffffffffffff16600260008360ff1660ff16815260200190815260200160002060010160009054906101000a900473ffffffffffffffffffffffffffffffffffffffff1673ffffffffffffffffffffffffffffffffffffffff16146114d6576040517f08c379a00000000000000000000000000000000000000000000000000000000081526004016114cd906149ef565b60405180910390fd5b600260008460ff1660ff16815260200190815260200160002060010160159054906101000a900460ff1661153f576040517f08c379a000000000000000000000000000000000000000000000000000000000815260040161153690614a5b565b60405180910390fd5b601e60ff16600260008560ff1660ff16815260200190815260200160002060010160149054906101000a900460ff1660ff16106115b1576040517f08c379a00000000000000000000000000000000000000000000000000000000081526004016115a890614ac7565b60405180910390fd5b600360008373ffffffffffffffffffffffffffffffffffffffff1673ffffffffffffffffffffffffffffffffffffffff16815260200190815260200160002060000160019054906101000a900460ff1615611641576040517f08c379a000000000000000000000000000000000000000000000000000000000815260040161163890614b33565b60405180910390fd5b61164a82613239565b611689576040517f08c379a000000000000000000000000000000000000000000000000000000000815260040161168090614b9f565b60405180910390fd5b82600560008473ffffffffffffffffffffffffffffffffffffffff1673ffffffffffffffffffffffffffffffffffffffff16815260200190815260200160002060006101000a81548160ff021916908360ff1602179055507ffb5973cb72c6bf58be94ff6ad4a5497b4361c5a70e78c75e83627cf0e1396df68383604051611712929190614bbf565b60405180910390a1505050565b64174876e80081565b6000600760008460ff1660ff16815260200190815260200160002060008360ff1660ff16815260200190815260200160002060009054906101000a900460ff16905092915050565b600660205281600052604060002060205280600052604060002060009150915050805461179c906142a7565b80601f01602080910402602001604051908101604052809291908181526020018280546117c8906142a7565b80156118155780601f106117ea57610100808354040283529160200191611815565b820191906000526020600020905b8154815290600101906020018083116117f857829003601f168201915b505050505081565b6000600560003373ffffffffffffffffffffffffffffffffffffffff1673ffffffffffffffffffffffffffffffffffffffff16815260200190815260200160002060009054906101000a900460ff1660ff16116118af576040517f08c379a00000000000000000000000000000000000000000000000000000000081526004016118a690614c34565b60405180910390fd5b600560003373ffffffffffffffffffffffffffffffffffffffff1673ffffffffffffffffffffffffffffffffffffffff16815260200190815260200160002060006101000a81549060ff0219169055565b813373ffffffffffffffffffffffffffffffffffffffff16600260008360ff1660ff16815260200190815260200160002060010160009054906101000a900473ffffffffffffffffffffffffffffffffffffffff1673ffffffffffffffffffffffffffffffffffffffff16146119ab576040517f08c379a00000000000000000000000000000000000000000000000000000000081526004016119a2906149ef565b60405180910390fd5b8260ff16600360003373ffffffffffffffffffffffffffffffffffffffff1673ffffffffffffffffffffffffffffffffffffffff16815260200190815260200160002060000160009054906101000a900460ff1660ff1614611a42576040517f08c379a0000000000000000000000000000000000000000000000000000000008152600401611a3990614ca0565b60405180910390fd5b3373ffffffffffffffffffffffffffffffffffffffff16600860009054906101000a900473ffffffffffffffffffffffffffffffffffffffff1673ffffffffffffffffffffffffffffffffffffffff16636352211e846040518263ffffffff1660e01b8152600401611ab49190613deb565b602060405180830381865afa158015611ad1573d6000803e3d6000fd5b505050506040513d601f19601f82011682018060405250810190611af59190614083565b73ffffffffffffffffffffffffffffffffffffffff1614611b4b576040517f08c379a0000000000000000000000000000000000000000000000000000000008152600401611b4290614d0c565b60405180910390fd5b6000600860009054906101000a900473ffffffffffffffffffffffffffffffffffffffff1673ffffffffffffffffffffffffffffffffffffffff16630ad4c4f4846040518263ffffffff1660e01b8152600401611ba89190613deb565b600060405180830381865afa158015611bc5573d6000803e3d6000fd5b505050506040513d6000823e3d601f19601f82011682018060405250810190611bee9190614e33565b50995050505050505050505060018114611c3d576040517f08c379a0000000000000000000000000000000000000000000000000000000008152600401611c3490615041565b60405180910390fd5b82600960008660ff1660ff1681526020019081526020016000208190555050505050565b6060600080600190505b600160149054906101000a900460ff1660ff168160ff1611611cd857600260008260ff1660ff16815260200190815260200160002060010160159054906101000a900460ff1615611cc5578180611cc190614906565b9250505b8080611cd0906147cb565b915050611c6b565b5060008167ffffffffffffffff811115611cf557611cf4614249565b5b604051908082528060200260200182016040528015611d2e57816020015b611d1b6134fc565b815260200190600190039081611d135790505b509050600080600190505b600160149054906101000a900460ff1660ff168160ff1611611f0857600260008260ff1660ff16815260200190815260200160002060010160159054906101000a900460ff1615611ef557600260008260ff1660ff168152602001908152602001600020604051806080016040529081600082018054611db8906142a7565b80601f0160208091040260200160405190810160405280929190818152602001828054611de4906142a7565b8015611e315780601f10611e0657610100808354040283529160200191611e31565b820191906000526020600020905b815481529060010190602001808311611e1457829003601f168201915b505050505081526020016001820160009054906101000a900473ffffffffffffffffffffffffffffffffffffffff1673ffffffffffffffffffffffffffffffffffffffff1673ffffffffffffffffffffffffffffffffffffffff1681526020016001820160149054906101000a900460ff1660ff1660ff1681526020016001820160159054906101000a900460ff161515151581525050838381518110611edb57611eda61494e565b5b60200260200101819052508180611ef190614906565b9250505b8080611f00906147cb565b915050611d39565b5081935050505090565b6000600260008360ff1660ff16815260200190815260200160002060010160159054906101000a900460ff16611f7d576040517f08c379a0000000000000000000000000000000000000000000000000000000008152600401611f7490614a5b565b60405180910390fd5b600260008360ff1660ff16815260200190815260200160002060010160149054906101000a900460ff169050919050565b600360003373ffffffffffffffffffffffffffffffffffffffff1673ffffffffffffffffffffffffffffffffffffffff16815260200190815260200160002060000160019054906101000a900460ff1661203d576040517f08c379a0000000000000000000000000000000000000000000000000000000008152600401612034906150ad565b60405180910390fd5b6000600360003373ffffffffffffffffffffffffffffffffffffffff1673ffffffffffffffffffffffffffffffffffffffff16815260200190815260200160002060000160009054906101000a900460ff169050600260008260ff1660ff16815260200190815260200160002060010160159054906101000a900460ff166120fa576040517f08c379a00000000000000000000000000000000000000000000000000000000081526004016120f190614a5b565b60405180910390fd5b3373ffffffffffffffffffffffffffffffffffffffff16600260008360ff1660ff16815260200190815260200160002060010160009054906101000a900473ffffffffffffffffffffffffffffffffffffffff1673ffffffffffffffffffffffffffffffffffffffff16036121a4576040517f08c379a000000000000000000000000000000000000000000000000000000000815260040161219b9061513f565b60405180910390fd5b6000600360003373ffffffffffffffffffffffffffffffffffffffff1673ffffffffffffffffffffffffffffffffffffffff16815260200190815260200160002060000160016101000a81548160ff021916908315150217905550600260008260ff1660ff168152602001908152602001600020600101601481819054906101000a900460ff16809291906122389061515f565b91906101000a81548160ff021916908360ff1602179055505060005b600460008360ff1660ff16815260200190815260200160002080549050811015612467573373ffffffffffffffffffffffffffffffffffffffff16600460008460ff1660ff16815260200190815260200160002082815481106122ba576122b961494e565b5b9060005260206000200160009054906101000a900473ffffffffffffffffffffffffffffffffffffffff1673ffffffffffffffffffffffffffffffffffffffff160361245457600460008360ff1660ff1681526020019081526020016000206001600460008560ff1660ff168152602001908152602001600020805490506123429190615188565b815481106123535761235261494e565b5b9060005260206000200160009054906101000a900473ffffffffffffffffffffffffffffffffffffffff16600460008460ff1660ff16815260200190815260200160002082815481106123a9576123a861494e565b5b9060005260206000200160006101000a81548173ffffffffffffffffffffffffffffffffffffffff021916908373ffffffffffffffffffffffffffffffffffffffff160217905550600460008360ff1660ff16815260200190815260200160002080548061241a576124196151bc565b5b6001900381819060005260206000200160006101000a81549073ffffffffffffffffffffffffffffffffffffffff02191690559055612467565b808061245f90614906565b915050612254565b5060008061247433613367565b915091506000600760008460ff1660ff16815260200190815260200160002060008360ff1660ff16815260200190815260200160002060006101000a81548160ff021916908360ff1602179055507f45c35f53284761dc1375da434dfc7ec6a908fd346cb7ef4b10b8a75d6cb8375283336040516124f3929190614bbf565b60405180910390a1505050565b61250933613239565b612548576040517f08c379a000000000000000000000000000000000000000000000000000000000815260040161253f90614638565b60405180910390fd5b6000600560003373ffffffffffffffffffffffffffffffffffffffff1673ffffffffffffffffffffffffffffffffffffffff16815260200190815260200160002060009054906101000a900460ff16905060008160ff16116125df576040517f08c379a00000000000000000000000000000000000000000000000000000000081526004016125d690615237565b60405180910390fd5b600360003373ffffffffffffffffffffffffffffffffffffffff1673ffffffffffffffffffffffffffffffffffffffff16815260200190815260200160002060000160019054906101000a900460ff161561266f576040517f08c379a000000000000000000000000000000000000000000000000000000000815260040161266690614710565b60405180910390fd5b601e60ff16600260008360ff1660ff16815260200190815260200160002060010160149054906101000a900460ff1660ff16106126fb57600560003373ffffffffffffffffffffffffffffffffffffffff1673ffffffffffffffffffffffffffffffffffffffff16815260200190815260200160002060006101000a81549060ff02191690555061294a565b60405180604001604052808260ff16815260200160011515815250600360003373ffffffffffffffffffffffffffffffffffffffff1673ffffffffffffffffffffffffffffffffffffffff16815260200190815260200160002060008201518160000160006101000a81548160ff021916908360ff16021790555060208201518160000160016101000a81548160ff021916908315150217905550905050600460008260ff1660ff168152602001908152602001600020339080600181540180825580915050600190039060005260206000200160009091909190916101000a81548173ffffffffffffffffffffffffffffffffffffffff021916908373ffffffffffffffffffffffffffffffffffffffff160217905550600260008260ff1660ff168152602001908152602001600020600101601481819054906101000a900460ff168092919061284c906147cb565b91906101000a81548160ff021916908360ff1602179055505060008061287133613367565b9150915082600760008460ff1660ff16815260200190815260200160002060008360ff1660ff16815260200190815260200160002060006101000a81548160ff021916908360ff160217905550600560003373ffffffffffffffffffffffffffffffffffffffff1673ffffffffffffffffffffffffffffffffffffffff16815260200190815260200160002060006101000a81549060ff02191690557fc5e51b833a5e5ecfbbcb0d5586d2b0ab450b38d9b32d440cb37f37cc30de6874833360405161293e929190614bbf565b60405180910390a15050505b565b803373ffffffffffffffffffffffffffffffffffffffff16600260008360ff1660ff16815260200190815260200160002060010160009054906101000a900473ffffffffffffffffffffffffffffffffffffffff1673ffffffffffffffffffffffffffffffffffffffff16146129f7576040517f08c379a00000000000000000000000000000000000000000000000000000000081526004016129ee906149ef565b60405180910390fd5b600260008360ff1660ff16815260200190815260200160002060010160159054906101000a900460ff16612a60576040517f08c379a0000000000000000000000000000000000000000000000000000000008152600401612a5790614a5b565b60405180910390fd5b60005b600460008460ff1660ff16815260200190815260200160002080549050811015612bac576000600460008560ff1660ff1681526020019081526020016000208281548110612ab457612ab361494e565b5b9060005260206000200160009054906101000a900473ffffffffffffffffffffffffffffffffffffffff1690506000600360008373ffffffffffffffffffffffffffffffffffffffff1673ffffffffffffffffffffffffffffffffffffffff16815260200190815260200160002060000160016101000a81548160ff021916908315150217905550600080612b4883613367565b915091506000600760008460ff1660ff16815260200190815260200160002060008360ff1660ff16815260200190815260200160002060006101000a81548160ff021916908360ff1602179055505050508080612ba490614906565b915050612a63565b50600460008360ff1660ff1681526020019081526020016000206000612bd2919061353f565b600260008360ff1660ff16815260200190815260200160002060008082016000612bfc9190613560565b6001820160006101000a81549073ffffffffffffffffffffffffffffffffffffffff02191690556001820160146101000a81549060ff02191690556001820160156101000a81549060ff021916905550507ff010a46a390deaaab5cc4bd6bd1242ccc401c860a7b758c8a71c6ea769287d348233604051612c7e929190614bbf565b60405180910390a15050565b813373ffffffffffffffffffffffffffffffffffffffff16600260008360ff1660ff16815260200190815260200160002060010160009054906101000a900473ffffffffffffffffffffffffffffffffffffffff1673ffffffffffffffffffffffffffffffffffffffff1614612d35576040517f08c379a0000000000000000000000000000000000000000000000000000000008152600401612d2c906149ef565b60405180910390fd5b8260ff16600360008473ffffffffffffffffffffffffffffffffffffffff1673ffffffffffffffffffffffffffffffffffffffff16815260200190815260200160002060000160009054906101000a900460ff1660ff1614612dcc576040517f08c379a0000000000000000000000000000000000000000000000000000000008152600401612dc3906152a3565b60405180910390fd5b6000600360008473ffffffffffffffffffffffffffffffffffffffff1673ffffffffffffffffffffffffffffffffffffffff16815260200190815260200160002060000160016101000a81548160ff021916908315150217905550600260008460ff1660ff168152602001908152602001600020600101601481819054906101000a900460ff1680929190612e609061515f565b91906101000a81548160ff021916908360ff1602179055505060005b600460008560ff1660ff1681526020019081526020016000208054905081101561308f578273ffffffffffffffffffffffffffffffffffffffff16600460008660ff1660ff1681526020019081526020016000208281548110612ee257612ee161494e565b5b9060005260206000200160009054906101000a900473ffffffffffffffffffffffffffffffffffffffff1673ffffffffffffffffffffffffffffffffffffffff160361307c57600460008560ff1660ff1681526020019081526020016000206001600460008760ff1660ff16815260200190815260200160002080549050612f6a9190615188565b81548110612f7b57612f7a61494e565b5b9060005260206000200160009054906101000a900473ffffffffffffffffffffffffffffffffffffffff16600460008660ff1660ff1681526020019081526020016000208281548110612fd157612fd061494e565b5b9060005260206000200160006101000a81548173ffffffffffffffffffffffffffffffffffffffff021916908373ffffffffffffffffffffffffffffffffffffffff160217905550600460008560ff1660ff168152602001908152602001600020805480613042576130416151bc565b5b6001900381819060005260206000200160006101000a81549073ffffffffffffffffffffffffffffffffffffffff0219169055905561308f565b808061308790614906565b915050612e7c565b5060008061309c84613367565b915091506000600760008460ff1660ff16815260200190815260200160002060008360ff1660ff16815260200190815260200160002060006101000a81548160ff021916908360ff1602179055507f45c35f53284761dc1375da434dfc7ec6a908fd346cb7ef4b10b8a75d6cb83752858560405161311b929190614bbf565b60405180910390a15050505050565b600260205280600052604060002060009150905080600001805461314d906142a7565b80601f0160208091040260200160405190810160405280929190818152602001828054613179906142a7565b80156131c65780601f1061319b576101008083540402835291602001916131c6565b820191906000526020600020905b8154815290600101906020018083116131a957829003601f168201915b5050505050908060010160009054906101000a900473ffffffffffffffffffffffffffffffffffffffff16908060010160149054906101000a900460ff16908060010160159054906101000a900460ff16905084565b601e81565b60096020528060005260406000206000915090505481565b600080600090505b60148160ff16101561335c5760005b60148160ff161015613348578373ffffffffffffffffffffffffffffffffffffffff1660008054906101000a900473ffffffffffffffffffffffffffffffffffffffff1673ffffffffffffffffffffffffffffffffffffffff16638a88895384846040518363ffffffff1660e01b81526004016132ce929190614045565b602060405180830381865afa1580156132eb573d6000803e3d6000fd5b505050506040513d601f19601f8201168201806040525081019061330f9190614083565b73ffffffffffffffffffffffffffffffffffffffff160361333557600192505050613362565b8080613340906147cb565b915050613250565b508080613354906147cb565b915050613241565b50600090505b919050565b60008060005b60148160ff16101561348a5760005b60148160ff161015613476578473ffffffffffffffffffffffffffffffffffffffff1660008054906101000a900473ffffffffffffffffffffffffffffffffffffffff1673ffffffffffffffffffffffffffffffffffffffff16638a88895384846040518363ffffffff1660e01b81526004016133fa929190614045565b602060405180830381865afa158015613417573d6000803e3d6000fd5b505050506040513d601f19601f8201168201806040525081019061343b9190614083565b73ffffffffffffffffffffffffffffffffffffffff16036134635781819350935050506134c6565b808061346e906147cb565b91505061337c565b508080613482906147cb565b91505061336d565b506040517f08c379a00000000000000000000000000000000000000000000000000000000081526004016134bd9061530f565b60405180910390fd5b915091565b6040518060800160405280600060ff168152602001600060ff168152602001600060ff168152602001600081525090565b604051806080016040528060608152602001600073ffffffffffffffffffffffffffffffffffffffff168152602001600060ff1681526020016000151581525090565b508054600082559060005260206000209081019061355d91906135a0565b50565b50805461356c906142a7565b6000825580601f1061357e575061359d565b601f01602090049060005260206000209081019061359c91906135a0565b5b50565b5b808211156135b95760008160009055506001016135a1565b5090565b6000604051905090565b600080fd5b600080fd5b600060ff82169050919050565b6135e7816135d1565b81146135f257600080fd5b50565b600081359050613604816135de565b92915050565b6000602082840312156136205761361f6135c7565b5b600061362e848285016135f5565b91505092915050565b600081519050919050565b600082825260208201905092915050565b6000819050602082019050919050565b600073ffffffffffffffffffffffffffffffffffffffff82169050919050565b600061368e82613663565b9050919050565b61369e81613683565b82525050565b60006136b08383613695565b60208301905092915050565b6000602082019050919050565b60006136d482613637565b6136de8185613642565b93506136e983613653565b8060005b8381101561371a57815161370188826136a4565b975061370c836136bc565b9250506001810190506136ed565b5085935050505092915050565b6000602082019050818103600083015261374181846136c9565b905092915050565b600080fd5b600080fd5b600080fd5b60008083601f84011261376e5761376d613749565b5b8235905067ffffffffffffffff81111561378b5761378a61374e565b5b6020830191508360018202830111156137a7576137a6613753565b5b9250929050565b600080600080606085870312156137c8576137c76135c7565b5b60006137d6878288016135f5565b94505060206137e7878288016135f5565b935050604085013567ffffffffffffffff811115613808576138076135cc565b5b61381487828801613758565b925092505092959194509250565b61382b81613683565b811461383657600080fd5b50565b60008135905061384881613822565b92915050565b600060208284031215613864576138636135c7565b5b600061387284828501613839565b91505092915050565b613884816135d1565b82525050565b60008115159050919050565b61389f8161388a565b82525050565b60006040820190506138ba600083018561387b565b6138c76020830184613896565b9392505050565b600080604083850312156138e5576138e46135c7565b5b60006138f3858286016135f5565b9250506020613904858286016135f5565b9150509250929050565b600081519050919050565b600082825260208201905092915050565b60005b8381101561394857808201518184015260208101905061392d565b60008484015250505050565b6000601f19601f8301169050919050565b60006139708261390e565b61397a8185613919565b935061398a81856020860161392a565b61399381613954565b840191505092915050565b600060208201905081810360008301526139b88184613965565b905092915050565b6000819050919050565b60006139e56139e06139db84613663565b6139c0565b613663565b9050919050565b60006139f7826139ca565b9050919050565b6000613a09826139ec565b9050919050565b613a19816139fe565b82525050565b6000602082019050613a346000830184613a10565b92915050565b60008060208385031215613a5157613a506135c7565b5b600083013567ffffffffffffffff811115613a6f57613a6e6135cc565b5b613a7b85828601613758565b92509250509250929050565b6000613a92826139ec565b9050919050565b613aa281613a87565b82525050565b6000602082019050613abd6000830184613a99565b92915050565b6000602082019050613ad8600083018461387b565b92915050565b6000819050919050565b613af181613ade565b8114613afc57600080fd5b50565b600081359050613b0e81613ae8565b92915050565b60008060408385031215613b2b57613b2a6135c7565b5b6000613b39858286016135f5565b9250506020613b4a85828601613aff565b9150509250929050565b613b5d81613683565b82525050565b6000602082019050613b786000830184613b54565b92915050565b600081519050919050565b600082825260208201905092915050565b6000819050602082019050919050565b613bb3816135d1565b82525050565b613bc281613ade565b82525050565b608082016000820151613bde6000850182613baa565b506020820151613bf16020850182613baa565b506040820151613c046040850182613baa565b506060820151613c176060850182613bb9565b50505050565b6000613c298383613bc8565b60808301905092915050565b6000602082019050919050565b6000613c4d82613b7e565b613c578185613b89565b9350613c6283613b9a565b8060005b83811015613c93578151613c7a8882613c1d565b9750613c8583613c35565b925050600181019050613c66565b5085935050505092915050565b60006020820190508181036000830152613cba8184613c42565b905092915050565b600082825260208201905092915050565b6000613cde8261390e565b613ce88185613cc2565b9350613cf881856020860161392a565b613d0181613954565b840191505092915050565b613d158161388a565b82525050565b60006080830160008301518482036000860152613d388282613cd3565b9150506020830151613d4d6020860182613695565b506040830151613d606040860182613baa565b506060830151613d736060860182613d0c565b508091505092915050565b60006020820190508181036000830152613d988184613d1b565b905092915050565b6000613dab826139ec565b9050919050565b613dbb81613da0565b82525050565b6000602082019050613dd66000830184613db2565b92915050565b613de581613ade565b82525050565b6000602082019050613e006000830184613ddc565b92915050565b60008060408385031215613e1d57613e1c6135c7565b5b6000613e2b858286016135f5565b9250506020613e3c85828601613839565b9150509250929050565b600081519050919050565b600082825260208201905092915050565b6000819050602082019050919050565b60006080830160008301518482036000860152613e8f8282613cd3565b9150506020830151613ea46020860182613695565b506040830151613eb76040860182613baa565b506060830151613eca6060860182613d0c565b508091505092915050565b6000613ee18383613e72565b905092915050565b6000602082019050919050565b6000613f0182613e46565b613f0b8185613e51565b935083602082028501613f1d85613e62565b8060005b85811015613f595784840389528151613f3a8582613ed5565b9450613f4583613ee9565b925060208a01995050600181019050613f21565b50829750879550505050505092915050565b60006020820190508181036000830152613f858184613ef6565b905092915050565b60006080820190508181036000830152613fa78187613965565b9050613fb66020830186613b54565b613fc3604083018561387b565b613fd06060830184613896565b95945050505050565b7f4e616d652063616e6e6f7420626520656d707479000000000000000000000000600082015250565b600061400f601483613919565b915061401a82613fd9565b602082019050919050565b6000602082019050818103600083015261403e81614002565b9050919050565b600060408201905061405a600083018561387b565b614067602083018461387b565b9392505050565b60008151905061407d81613822565b92915050565b600060208284031215614099576140986135c7565b5b60006140a78482850161406e565b91505092915050565b7f596f7520617265206e6f7420746865206f776e6572206f66207468697320746960008201527f6c65000000000000000000000000000000000000000000000000000000000000602082015250565b600061410c602283613919565b9150614117826140b0565b604082019050919050565b6000602082019050818103600083015261413b816140ff565b9050919050565b60006060820190506141576000830186613b54565b6141646020830185613b54565b6141716040830184613ddc565b949350505050565b6141828161388a565b811461418d57600080fd5b50565b60008151905061419f81614179565b92915050565b6000602082840312156141bb576141ba6135c7565b5b60006141c984828501614190565b91505092915050565b7f546f6b656e207061796d656e74206661696c6564000000000000000000000000600082015250565b6000614208601483613919565b9150614213826141d2565b602082019050919050565b60006020820190508181036000830152614237816141fb565b9050919050565b600082905092915050565b7f4e487b7100000000000000000000000000000000000000000000000000000000600052604160045260246000fd5b7f4e487b7100000000000000000000000000000000000000000000000000000000600052602260045260246000fd5b600060028204905060018216806142bf57607f821691505b6020821081036142d2576142d1614278565b5b50919050565b60008190508160005260206000209050919050565b60006020601f8301049050919050565b600082821b905092915050565b60006008830261433a7fffffffffffffffffffffffffffffffffffffffffffffffffffffffffffffffff826142fd565b61434486836142fd565b95508019841693508086168417925050509392505050565b600061437761437261436d84613ade565b6139c0565b613ade565b9050919050565b6000819050919050565b6143918361435c565b6143a561439d8261437e565b84845461430a565b825550505050565b600090565b6143ba6143ad565b6143c5818484614388565b505050565b5b818110156143e9576143de6000826143b2565b6001810190506143cb565b5050565b601f82111561442e576143ff816142d8565b614408846142ed565b81016020851015614417578190505b61442b614423856142ed565b8301826143ca565b50505b505050565b600082821c905092915050565b600061445160001984600802614433565b1980831691505092915050565b600061446a8383614440565b9150826002028217905092915050565b614484838361423e565b67ffffffffffffffff81111561449d5761449c614249565b5b6144a782546142a7565b6144b28282856143ed565b6000601f8311600181146144e157600084156144cf578287013590505b6144d9858261445e565b865550614541565b601f1984166144ef866142d8565b60005b82811015614517578489013582556001820191506020850194506020810190506144f2565b868310156145345784890135614530601f891682614440565b8355505b6001600288020188555050505b50505050505050565b82818337600083830152505050565b60006145658385613919565b935061457283858461454a565b61457b83613954565b840190509392505050565b600060608201905061459b600083018761387b565b6145a8602083018661387b565b81810360408301526145bb818486614559565b905095945050505050565b7f596f75206d757374206f776e20612074696c6520746f20637265617465206f7260008201527f206a6f696e206120636c616e0000000000000000000000000000000000000000602082015250565b6000614622602c83613919565b915061462d826145c6565b604082019050919050565b6000602082019050818103600083015261465181614615565b9050919050565b7f436c616e206e616d652063616e6e6f7420626520656d70747900000000000000600082015250565b600061468e601983613919565b915061469982614658565b602082019050919050565b600060208201905081810360008301526146bd81614681565b9050919050565b7f416c726561647920696e206120636c616e000000000000000000000000000000600082015250565b60006146fa601183613919565b9150614705826146c4565b602082019050919050565b60006020820190508181036000830152614729816146ed565b9050919050565b7f4c4f50207472616e73666572206661696c656400000000000000000000000000600082015250565b6000614766601383613919565b915061477182614730565b602082019050919050565b6000602082019050818103600083015261479581614759565b9050919050565b7f4e487b7100000000000000000000000000000000000000000000000000000000600052601160045260246000fd5b60006147d6826135d1565b915060ff82036147e9576147e861479c565b5b600182019050919050565b6147fd8261390e565b67ffffffffffffffff81111561481657614815614249565b5b61482082546142a7565b61482b8282856143ed565b600060209050601f83116001811461485e576000841561484c578287015190505b614856858261445e565b8655506148be565b601f19841661486c866142d8565b60005b828110156148945784890151825560018201915060208501945060208101905061486f565b868310156148b157848901516148ad601f891682614440565b8355505b6001600288020188555050505b505050505050565b60006060820190506148db600083018761387b565b81810360208301526148ee818587614559565b90506148fd6040830184613b54565b95945050505050565b600061491182613ade565b91507fffffffffffffffffffffffffffffffffffffffffffffffffffffffffffffffff82036149435761494261479c565b5b600182019050919050565b7f4e487b7100000000000000000000000000000000000000000000000000000000600052603260045260246000fd5b7f4f6e6c7920636c616e206c65616465722063616e20706572666f726d2074686960008201527f7320616374696f6e000000000000000000000000000000000000000000000000602082015250565b60006149d9602883613919565b91506149e48261497d565b604082019050919050565b60006020820190508181036000830152614a08816149cc565b9050919050565b7f436c616e20646f6573206e6f7420657869737400000000000000000000000000600082015250565b6000614a45601383613919565b9150614a5082614a0f565b602082019050919050565b60006020820190508181036000830152614a7481614a38565b9050919050565b7f436c616e2069732066756c6c0000000000000000000000000000000000000000600082015250565b6000614ab1600c83613919565b9150614abc82614a7b565b602082019050919050565b60006020820190508181036000830152614ae081614aa4565b9050919050565b7f506c6179657220697320616c726561647920696e206120636c616e0000000000600082015250565b6000614b1d601b83613919565b9150614b2882614ae7565b602082019050919050565b60006020820190508181036000830152614b4c81614b10565b9050919050565b7f506c6179657220646f6573206e6f74206f776e20612074696c65000000000000600082015250565b6000614b89601a83613919565b9150614b9482614b53565b602082019050919050565b60006020820190508181036000830152614bb881614b7c565b9050919050565b6000604082019050614bd4600083018561387b565b614be16020830184613b54565b9392505050565b7f4e6f2070656e64696e6720696e7669746520746f207265667573650000000000600082015250565b6000614c1e601b83613919565b9150614c2982614be8565b602082019050919050565b60006020820190508181036000830152614c4d81614c11565b9050919050565b7f4e6f742061206d656d626572206f66207468697320636c616e00000000000000600082015250565b6000614c8a601983613919565b9150614c9582614c54565b602082019050919050565b60006020820190508181036000830152614cb981614c7d565b9050919050565b7f596f7520646f6e2774206f776e2074686973204e465400000000000000000000600082015250565b6000614cf6601683613919565b9150614d0182614cc0565b602082019050919050565b60006020820190508181036000830152614d2581614ce9565b9050919050565b600080fd5b614d3a82613954565b810181811067ffffffffffffffff82111715614d5957614d58614249565b5b80604052505050565b6000614d6c6135bd565b9050614d788282614d31565b919050565b600067ffffffffffffffff821115614d9857614d97614249565b5b614da182613954565b9050602081019050919050565b6000614dc1614dbc84614d7d565b614d62565b905082815260208101848484011115614ddd57614ddc614d2c565b5b614de884828561392a565b509392505050565b600082601f830112614e0557614e04613749565b5b8151614e15848260208601614dae565b91505092915050565b600081519050614e2d81613ae8565b92915050565b60008060008060008060008060008060006101608c8e031215614e5957614e586135c7565b5b60008c015167ffffffffffffffff811115614e7757614e766135cc565b5b614e838e828f01614df0565b9b505060208c015167ffffffffffffffff811115614ea457614ea36135cc565b5b614eb08e828f01614df0565b9a505060408c015167ffffffffffffffff811115614ed157614ed06135cc565b5b614edd8e828f01614df0565b99505060608c015167ffffffffffffffff811115614efe57614efd6135cc565b5b614f0a8e828f01614df0565b9850506080614f1b8e828f0161406e565b97505060a0614f2c8e828f01614e1e565b96505060c0614f3d8e828f01614e1e565b95505060e08c015167ffffffffffffffff811115614f5e57614f5d6135cc565b5b614f6a8e828f01614df0565b9450506101008c015167ffffffffffffffff811115614f8c57614f8b6135cc565b5b614f988e828f01614df0565b935050610120614faa8e828f01614e1e565b925050610140614fbc8e828f01614e1e565b9150509295989b509295989b9093969950565b7f4f6e6c79204e4654732066726f6d20636f6c6c656374696f6e2049442031206360008201527f616e206265207573656420617320666c61677300000000000000000000000000602082015250565b600061502b603383613919565b915061503682614fcf565b604082019050919050565b6000602082019050818103600083015261505a8161501e565b9050919050565b7f596f7520617265206e6f7420696e206120636c616e0000000000000000000000600082015250565b6000615097601583613919565b91506150a282615061565b602082019050919050565b600060208201905081810360008301526150c68161508a565b9050919050565b7f436c616e206c65616465722063616e6e6f74206c656176652074686520636c6160008201527f6e2e205573652064697362616e64436c616e20696e73746561642e0000000000602082015250565b6000615129603b83613919565b9150615134826150cd565b604082019050919050565b600060208201905081810360008301526151588161511c565b9050919050565b600061516a826135d1565b91506000820361517d5761517c61479c565b5b600182039050919050565b600061519382613ade565b915061519e83613ade565b92508282039050818111156151b6576151b561479c565b5b92915050565b7f4e487b7100000000000000000000000000000000000000000000000000000000600052603160045260246000fd5b7f4e6f2070656e64696e6720696e7669746520666f756e64000000000000000000600082015250565b6000615221601783613919565b915061522c826151eb565b602082019050919050565b6000602082019050818103600083015261525081615214565b9050919050565b7f4d656d626572206973206e6f7420696e207468697320636c616e000000000000600082015250565b600061528d601a83613919565b915061529882615257565b602082019050919050565b600060208201905081810360008301526152bc81615280565b9050919050565b7f4e6f2074696c6520666f756e6420666f72207573657200000000000000000000600082015250565b60006152f9601683613919565b9150615304826152c3565b602082019050919050565b60006020820190508181036000830152615328816152ec565b905091905056fea264697066735822122038e7bd245e1242af1457b0d4db0896ee31367e78aa091b704432129b1d9698d564736f6c63430008120033",
			"opcodes": "PUSH1 0x80 PUSH1 0x40 MSTORE CALLVALUE DUP1 ISZERO PUSH3 0x11 JUMPI PUSH1 0x0 DUP1 REVERT JUMPDEST POP PUSH1 0x40 MLOAD PUSH3 0x553D CODESIZE SUB DUP1 PUSH3 0x553D DUP4 CODECOPY DUP2 DUP2 ADD PUSH1 0x40 MSTORE DUP2 ADD SWAP1 PUSH3 0x37 SWAP2 SWAP1 PUSH3 0x16C JUMP JUMPDEST DUP3 PUSH1 0x0 DUP1 PUSH2 0x100 EXP DUP2 SLOAD DUP2 PUSH20 0xFFFFFFFFFFFFFFFFFFFFFFFFFFFFFFFFFFFFFFFF MUL NOT AND SWAP1 DUP4 PUSH20 0xFFFFFFFFFFFFFFFFFFFFFFFFFFFFFFFFFFFFFFFF AND MUL OR SWAP1 SSTORE POP DUP2 PUSH1 0x1 PUSH1 0x0 PUSH2 0x100 EXP DUP2 SLOAD DUP2 PUSH20 0xFFFFFFFFFFFFFFFFFFFFFFFFFFFFFFFFFFFFFFFF MUL NOT AND SWAP1 DUP4 PUSH20 0xFFFFFFFFFFFFFFFFFFFFFFFFFFFFFFFFFFFFFFFF AND MUL OR SWAP1 SSTORE POP DUP1 PUSH1 0x8 PUSH1 0x0 PUSH2 0x100 EXP DUP2 SLOAD DUP2 PUSH20 0xFFFFFFFFFFFFFFFFFFFFFFFFFFFFFFFFFFFFFFFF MUL NOT AND SWAP1 DUP4 PUSH20 0xFFFFFFFFFFFFFFFFFFFFFFFFFFFFFFFFFFFFFFFF AND MUL OR SWAP1 SSTORE POP POP POP POP PUSH3 0x1C8 JUMP JUMPDEST PUSH1 0x0 DUP1 REVERT JUMPDEST PUSH1 0x0 PUSH20 0xFFFFFFFFFFFFFFFFFFFFFFFFFFFFFFFFFFFFFFFF DUP3 AND SWAP1 POP SWAP2 SWAP1 POP JUMP JUMPDEST PUSH1 0x0 PUSH3 0x134 DUP3 PUSH3 0x107 JUMP JUMPDEST SWAP1 POP SWAP2 SWAP1 POP JUMP JUMPDEST PUSH3 0x146 DUP2 PUSH3 0x127 JUMP JUMPDEST DUP2 EQ PUSH3 0x152 JUMPI PUSH1 0x0 DUP1 REVERT JUMPDEST POP JUMP JUMPDEST PUSH1 0x0 DUP2 MLOAD SWAP1 POP PUSH3 0x166 DUP2 PUSH3 0x13B JUMP JUMPDEST SWAP3 SWAP2 POP POP JUMP JUMPDEST PUSH1 0x0 DUP1 PUSH1 0x0 PUSH1 0x60 DUP5 DUP7 SUB SLT ISZERO PUSH3 0x188 JUMPI PUSH3 0x187 PUSH3 0x102 JUMP JUMPDEST JUMPDEST PUSH1 0x0 PUSH3 0x198 DUP7 DUP3 DUP8 ADD PUSH3 0x155 JUMP JUMPDEST SWAP4 POP POP PUSH1 0x20 PUSH3 0x1AB DUP7 DUP3 DUP8 ADD PUSH3 0x155 JUMP JUMPDEST SWAP3 POP POP PUSH1 0x40 PUSH3 0x1BE DUP7 DUP3 DUP8 ADD PUSH3 0x155 JUMP JUMPDEST SWAP2 POP POP SWAP3 POP SWAP3 POP SWAP3 JUMP JUMPDEST PUSH2 0x5365 DUP1 PUSH3 0x1D8 PUSH1 0x0 CODECOPY PUSH1 0x0 RETURN INVALID PUSH1 0x80 PUSH1 0x40 MSTORE CALLVALUE DUP1 ISZERO PUSH2 0x10 JUMPI PUSH1 0x0 DUP1 REVERT JUMPDEST POP PUSH1 0x4 CALLDATASIZE LT PUSH2 0x1CF JUMPI PUSH1 0x0 CALLDATALOAD PUSH1 0xE0 SHR DUP1 PUSH4 0x69274803 GT PUSH2 0x104 JUMPI DUP1 PUSH4 0x9D995717 GT PUSH2 0xA2 JUMPI DUP1 PUSH4 0xC2024EDE GT PUSH2 0x71 JUMPI DUP1 PUSH4 0xC2024EDE EQ PUSH2 0x531 JUMPI DUP1 PUSH4 0xD4CEEEC0 EQ PUSH2 0x54D JUMPI DUP1 PUSH4 0xEA0E35B1 EQ PUSH2 0x580 JUMPI DUP1 PUSH4 0xEAA10576 EQ PUSH2 0x59E JUMPI PUSH2 0x1CF JUMP JUMPDEST DUP1 PUSH4 0x9D995717 EQ PUSH2 0x4D1 JUMPI DUP1 PUSH4 0xAAE1AA37 EQ PUSH2 0x501 JUMPI DUP1 PUSH4 0xBBB4D3E9 EQ PUSH2 0x50B JUMPI DUP1 PUSH4 0xBDE7EF82 EQ PUSH2 0x515 JUMPI PUSH2 0x1CF JUMP JUMPDEST DUP1 PUSH4 0x7B0C98EF GT PUSH2 0xDE JUMPI DUP1 PUSH4 0x7B0C98EF EQ PUSH2 0x45D JUMPI DUP1 PUSH4 0x86722228 EQ PUSH2 0x48D JUMPI DUP1 PUSH4 0x9ADFF8D0 EQ PUSH2 0x497 JUMPI DUP1 PUSH4 0x9B21D6EB EQ PUSH2 0x4B3 JUMPI PUSH2 0x1CF JUMP JUMPDEST DUP1 PUSH4 0x69274803 EQ PUSH2 0x3F3 JUMPI DUP1 PUSH4 0x731AE689 EQ PUSH2 0x40F JUMPI DUP1 PUSH4 0x7AB9E7FE EQ PUSH2 0x42D JUMPI PUSH2 0x1CF JUMP JUMPDEST DUP1 PUSH4 0x1D0373AD GT PUSH2 0x171 JUMPI DUP1 PUSH4 0x2FAD0429 GT PUSH2 0x14B JUMPI DUP1 PUSH4 0x2FAD0429 EQ PUSH2 0x357 JUMPI DUP1 PUSH4 0x4F264B03 EQ PUSH2 0x387 JUMPI DUP1 PUSH4 0x58612A20 EQ PUSH2 0x3A5 JUMPI DUP1 PUSH4 0x62C5813D EQ PUSH2 0x3D5 JUMPI PUSH2 0x1CF JUMP JUMPDEST DUP1 PUSH4 0x1D0373AD EQ PUSH2 0x2D9 JUMPI DUP1 PUSH4 0x1DB8D500 EQ PUSH2 0x309 JUMPI DUP1 PUSH4 0x2DEC2E63 EQ PUSH2 0x339 JUMPI PUSH2 0x1CF JUMP JUMPDEST DUP1 PUSH4 0x9E59CEC GT PUSH2 0x1AD JUMPI DUP1 PUSH4 0x9E59CEC EQ PUSH2 0x251 JUMPI DUP1 PUSH4 0xD67F59E EQ PUSH2 0x281 JUMPI DUP1 PUSH4 0x14CEBC71 EQ PUSH2 0x29F JUMPI DUP1 PUSH4 0x196AB1AB EQ PUSH2 0x2BB JUMPI PUSH2 0x1CF JUMP JUMPDEST DUP1 PUSH4 0x636FCB2 EQ PUSH2 0x1D4 JUMPI DUP1 PUSH4 0x821DE3E EQ PUSH2 0x204 JUMPI DUP1 PUSH4 0x8AE4B0C EQ PUSH2 0x220 JUMPI JUMPDEST PUSH1 0x0 DUP1 REVERT JUMPDEST PUSH2 0x1EE PUSH1 0x4 DUP1 CALLDATASIZE SUB DUP2 ADD SWAP1 PUSH2 0x1E9 SWAP2 SWAP1 PUSH2 0x360A JUMP JUMPDEST PUSH2 0x5CE JUMP JUMPDEST PUSH1 0x40 MLOAD PUSH2 0x1FB SWAP2 SWAP1 PUSH2 0x3727 JUMP JUMPDEST PUSH1 0x40 MLOAD DUP1 SWAP2 SUB SWAP1 RETURN JUMPDEST PUSH2 0x21E PUSH1 0x4 DUP1 CALLDATASIZE SUB DUP2 ADD SWAP1 PUSH2 0x219 SWAP2 SWAP1 PUSH2 0x37AE JUMP JUMPDEST PUSH2 0x675 JUMP JUMPDEST STOP JUMPDEST PUSH2 0x23A PUSH1 0x4 DUP1 CALLDATASIZE SUB DUP2 ADD SWAP1 PUSH2 0x235 SWAP2 SWAP1 PUSH2 0x384E JUMP JUMPDEST PUSH2 0x944 JUMP JUMPDEST PUSH1 0x40 MLOAD PUSH2 0x248 SWAP3 SWAP2 SWAP1 PUSH2 0x38A5 JUMP JUMPDEST PUSH1 0x40 MLOAD DUP1 SWAP2 SUB SWAP1 RETURN JUMPDEST PUSH2 0x26B PUSH1 0x4 DUP1 CALLDATASIZE SUB DUP2 ADD SWAP1 PUSH2 0x266 SWAP2 SWAP1 PUSH2 0x38CE JUMP JUMPDEST PUSH2 0x982 JUMP JUMPDEST PUSH1 0x40 MLOAD PUSH2 0x278 SWAP2 SWAP1 PUSH2 0x399E JUMP JUMPDEST PUSH1 0x40 MLOAD DUP1 SWAP2 SUB SWAP1 RETURN JUMPDEST PUSH2 0x289 PUSH2 0xA45 JUMP JUMPDEST PUSH1 0x40 MLOAD PUSH2 0x296 SWAP2 SWAP1 PUSH2 0x3A1F JUMP JUMPDEST PUSH1 0x40 MLOAD DUP1 SWAP2 SUB SWAP1 RETURN JUMPDEST PUSH2 0x2B9 PUSH1 0x4 DUP1 CALLDATASIZE SUB DUP2 ADD SWAP1 PUSH2 0x2B4 SWAP2 SWAP1 PUSH2 0x3A3A JUMP JUMPDEST PUSH2 0xA6B JUMP JUMPDEST STOP JUMPDEST PUSH2 0x2C3 PUSH2 0xFE2 JUMP JUMPDEST PUSH1 0x40 MLOAD PUSH2 0x2D0 SWAP2 SWAP1 PUSH2 0x3AA8 JUMP JUMPDEST PUSH1 0x40 MLOAD DUP1 SWAP2 SUB SWAP1 RETURN JUMPDEST PUSH2 0x2F3 PUSH1 0x4 DUP1 CALLDATASIZE SUB DUP2 ADD SWAP1 PUSH2 0x2EE SWAP2 SWAP1 PUSH2 0x384E JUMP JUMPDEST PUSH2 0x1008 JUMP JUMPDEST PUSH1 0x40 MLOAD PUSH2 0x300 SWAP2 SWAP1 PUSH2 0x3AC3 JUMP JUMPDEST PUSH1 0x40 MLOAD DUP1 SWAP2 SUB SWAP1 RETURN JUMPDEST PUSH2 0x323 PUSH1 0x4 DUP1 CALLDATASIZE SUB DUP2 ADD SWAP1 PUSH2 0x31E SWAP2 SWAP1 PUSH2 0x3B14 JUMP JUMPDEST PUSH2 0x1028 JUMP JUMPDEST PUSH1 0x40 MLOAD PUSH2 0x330 SWAP2 SWAP1 PUSH2 0x3B63 JUMP JUMPDEST PUSH1 0x40 MLOAD DUP1 SWAP2 SUB SWAP1 RETURN JUMPDEST PUSH2 0x341 PUSH2 0x1076 JUMP JUMPDEST PUSH1 0x40 MLOAD PUSH2 0x34E SWAP2 SWAP1 PUSH2 0x3CA0 JUMP JUMPDEST PUSH1 0x40 MLOAD DUP1 SWAP2 SUB SWAP1 RETURN JUMPDEST PUSH2 0x371 PUSH1 0x4 DUP1 CALLDATASIZE SUB DUP2 ADD SWAP1 PUSH2 0x36C SWAP2 SWAP1 PUSH2 0x360A JUMP JUMPDEST PUSH2 0x127C JUMP JUMPDEST PUSH1 0x40 MLOAD PUSH2 0x37E SWAP2 SWAP1 PUSH2 0x3D7E JUMP JUMPDEST PUSH1 0x40 MLOAD DUP1 SWAP2 SUB SWAP1 RETURN JUMPDEST PUSH2 0x38F PUSH2 0x13CF JUMP JUMPDEST PUSH1 0x40 MLOAD PUSH2 0x39C SWAP2 SWAP1 PUSH2 0x3DC1 JUMP JUMPDEST PUSH1 0x40 MLOAD DUP1 SWAP2 SUB SWAP1 RETURN JUMPDEST PUSH2 0x3BF PUSH1 0x4 DUP1 CALLDATASIZE SUB DUP2 ADD SWAP1 PUSH2 0x3BA SWAP2 SWAP1 PUSH2 0x38CE JUMP JUMPDEST PUSH2 0x13F3 JUMP JUMPDEST PUSH1 0x40 MLOAD PUSH2 0x3CC SWAP2 SWAP1 PUSH2 0x3AC3 JUMP JUMPDEST PUSH1 0x40 MLOAD DUP1 SWAP2 SUB SWAP1 RETURN JUMPDEST PUSH2 0x3DD PUSH2 0x1422 JUMP JUMPDEST PUSH1 0x40 MLOAD PUSH2 0x3EA SWAP2 SWAP1 PUSH2 0x3DEB JUMP JUMPDEST PUSH1 0x40 MLOAD DUP1 SWAP2 SUB SWAP1 RETURN JUMPDEST PUSH2 0x40D PUSH1 0x4 DUP1 CALLDATASIZE SUB DUP2 ADD SWAP1 PUSH2 0x408 SWAP2 SWAP1 PUSH2 0x3E06 JUMP JUMPDEST PUSH2 0x142B JUMP JUMPDEST STOP JUMPDEST PUSH2 0x417 PUSH2 0x171F JUMP JUMPDEST PUSH1 0x40 MLOAD PUSH2 0x424 SWAP2 SWAP1 PUSH2 0x3DEB JUMP JUMPDEST PUSH1 0x40 MLOAD DUP1 SWAP2 SUB SWAP1 RETURN JUMPDEST PUSH2 0x447 PUSH1 0x4 DUP1 CALLDATASIZE SUB DUP2 ADD SWAP1 PUSH2 0x442 SWAP2 SWAP1 PUSH2 0x38CE JUMP JUMPDEST PUSH2 0x1728 JUMP JUMPDEST PUSH1 0x40 MLOAD PUSH2 0x454 SWAP2 SWAP1 PUSH2 0x3AC3 JUMP JUMPDEST PUSH1 0x40 MLOAD DUP1 SWAP2 SUB SWAP1 RETURN JUMPDEST PUSH2 0x477 PUSH1 0x4 DUP1 CALLDATASIZE SUB DUP2 ADD SWAP1 PUSH2 0x472 SWAP2 SWAP1 PUSH2 0x38CE JUMP JUMPDEST PUSH2 0x1770 JUMP JUMPDEST PUSH1 0x40 MLOAD PUSH2 0x484 SWAP2 SWAP1 PUSH2 0x399E JUMP JUMPDEST PUSH1 0x40 MLOAD DUP1 SWAP2 SUB SWAP1 RETURN JUMPDEST PUSH2 0x495 PUSH2 0x181D JUMP JUMPDEST STOP JUMPDEST PUSH2 0x4B1 PUSH1 0x4 DUP1 CALLDATASIZE SUB DUP2 ADD SWAP1 PUSH2 0x4AC SWAP2 SWAP1 PUSH2 0x3B14 JUMP JUMPDEST PUSH2 0x1900 JUMP JUMPDEST STOP JUMPDEST PUSH2 0x4BB PUSH2 0x1C61 JUMP JUMPDEST PUSH1 0x40 MLOAD PUSH2 0x4C8 SWAP2 SWAP1 PUSH2 0x3F6B JUMP JUMPDEST PUSH1 0x40 MLOAD DUP1 SWAP2 SUB SWAP1 RETURN JUMPDEST PUSH2 0x4EB PUSH1 0x4 DUP1 CALLDATASIZE SUB DUP2 ADD SWAP1 PUSH2 0x4E6 SWAP2 SWAP1 PUSH2 0x360A JUMP JUMPDEST PUSH2 0x1F12 JUMP JUMPDEST PUSH1 0x40 MLOAD PUSH2 0x4F8 SWAP2 SWAP1 PUSH2 0x3AC3 JUMP JUMPDEST PUSH1 0x40 MLOAD DUP1 SWAP2 SUB SWAP1 RETURN JUMPDEST PUSH2 0x509 PUSH2 0x1FAE JUMP JUMPDEST STOP JUMPDEST PUSH2 0x513 PUSH2 0x2500 JUMP JUMPDEST STOP JUMPDEST PUSH2 0x52F PUSH1 0x4 DUP1 CALLDATASIZE SUB DUP2 ADD SWAP1 PUSH2 0x52A SWAP2 SWAP1 PUSH2 0x360A JUMP JUMPDEST PUSH2 0x294C JUMP JUMPDEST STOP JUMPDEST PUSH2 0x54B PUSH1 0x4 DUP1 CALLDATASIZE SUB DUP2 ADD SWAP1 PUSH2 0x546 SWAP2 SWAP1 PUSH2 0x3E06 JUMP JUMPDEST PUSH2 0x2C8A JUMP JUMPDEST STOP JUMPDEST PUSH2 0x567 PUSH1 0x4 DUP1 CALLDATASIZE SUB DUP2 ADD SWAP1 PUSH2 0x562 SWAP2 SWAP1 PUSH2 0x360A JUMP JUMPDEST PUSH2 0x312A JUMP JUMPDEST PUSH1 0x40 MLOAD PUSH2 0x577 SWAP5 SWAP4 SWAP3 SWAP2 SWAP1 PUSH2 0x3F8D JUMP JUMPDEST PUSH1 0x40 MLOAD DUP1 SWAP2 SUB SWAP1 RETURN JUMPDEST PUSH2 0x588 PUSH2 0x321C JUMP JUMPDEST PUSH1 0x40 MLOAD PUSH2 0x595 SWAP2 SWAP1 PUSH2 0x3AC3 JUMP JUMPDEST PUSH1 0x40 MLOAD DUP1 SWAP2 SUB SWAP1 RETURN JUMPDEST PUSH2 0x5B8 PUSH1 0x4 DUP1 CALLDATASIZE SUB DUP2 ADD SWAP1 PUSH2 0x5B3 SWAP2 SWAP1 PUSH2 0x360A JUMP JUMPDEST PUSH2 0x3221 JUMP JUMPDEST PUSH1 0x40 MLOAD PUSH2 0x5C5 SWAP2 SWAP1 PUSH2 0x3DEB JUMP JUMPDEST PUSH1 0x40 MLOAD DUP1 SWAP2 SUB SWAP1 RETURN JUMPDEST PUSH1 0x60 PUSH1 0x4 PUSH1 0x0 DUP4 PUSH1 0xFF AND PUSH1 0xFF AND DUP2 MSTORE PUSH1 0x20 ADD SWAP1 DUP2 MSTORE PUSH1 0x20 ADD PUSH1 0x0 KECCAK256 DUP1 SLOAD DUP1 PUSH1 0x20 MUL PUSH1 0x20 ADD PUSH1 0x40 MLOAD SWAP1 DUP2 ADD PUSH1 0x40 MSTORE DUP1 SWAP3 SWAP2 SWAP1 DUP2 DUP2 MSTORE PUSH1 0x20 ADD DUP3 DUP1 SLOAD DUP1 ISZERO PUSH2 0x669 JUMPI PUSH1 0x20 MUL DUP3 ADD SWAP2 SWAP1 PUSH1 0x0 MSTORE PUSH1 0x20 PUSH1 0x0 KECCAK256 SWAP1 JUMPDEST DUP2 PUSH1 0x0 SWAP1 SLOAD SWAP1 PUSH2 0x100 EXP SWAP1 DIV PUSH20 0xFFFFFFFFFFFFFFFFFFFFFFFFFFFFFFFFFFFFFFFF AND PUSH20 0xFFFFFFFFFFFFFFFFFFFFFFFFFFFFFFFFFFFFFFFF AND DUP2 MSTORE PUSH1 0x20 ADD SWAP1 PUSH1 0x1 ADD SWAP1 DUP1 DUP4 GT PUSH2 0x61F JUMPI JUMPDEST POP POP POP POP POP SWAP1 POP SWAP2 SWAP1 POP JUMP JUMPDEST PUSH1 0x0 DUP3 DUP3 SWAP1 POP GT PUSH2 0x6BB JUMPI PUSH1 0x40 MLOAD PUSH32 0x8C379A000000000000000000000000000000000000000000000000000000000 DUP2 MSTORE PUSH1 0x4 ADD PUSH2 0x6B2 SWAP1 PUSH2 0x4025 JUMP JUMPDEST PUSH1 0x40 MLOAD DUP1 SWAP2 SUB SWAP1 REVERT JUMPDEST CALLER PUSH20 0xFFFFFFFFFFFFFFFFFFFFFFFFFFFFFFFFFFFFFFFF AND PUSH1 0x0 DUP1 SLOAD SWAP1 PUSH2 0x100 EXP SWAP1 DIV PUSH20 0xFFFFFFFFFFFFFFFFFFFFFFFFFFFFFFFFFFFFFFFF AND PUSH20 0xFFFFFFFFFFFFFFFFFFFFFFFFFFFFFFFFFFFFFFFF AND PUSH4 0x8A888953 DUP7 DUP7 PUSH1 0x40 MLOAD DUP4 PUSH4 0xFFFFFFFF AND PUSH1 0xE0 SHL DUP2 MSTORE PUSH1 0x4 ADD PUSH2 0x72D SWAP3 SWAP2 SWAP1 PUSH2 0x4045 JUMP JUMPDEST PUSH1 0x20 PUSH1 0x40 MLOAD DUP1 DUP4 SUB DUP2 DUP7 GAS STATICCALL ISZERO DUP1 ISZERO PUSH2 0x74A JUMPI RETURNDATASIZE PUSH1 0x0 DUP1 RETURNDATACOPY RETURNDATASIZE PUSH1 0x0 REVERT JUMPDEST POP POP POP POP PUSH1 0x40 MLOAD RETURNDATASIZE PUSH1 0x1F NOT PUSH1 0x1F DUP3 ADD AND DUP3 ADD DUP1 PUSH1 0x40 MSTORE POP DUP2 ADD SWAP1 PUSH2 0x76E SWAP2 SWAP1 PUSH2 0x4083 JUMP JUMPDEST PUSH20 0xFFFFFFFFFFFFFFFFFFFFFFFFFFFFFFFFFFFFFFFF AND EQ PUSH2 0x7C4 JUMPI PUSH1 0x40 MLOAD PUSH32 0x8C379A000000000000000000000000000000000000000000000000000000000 DUP2 MSTORE PUSH1 0x4 ADD PUSH2 0x7BB SWAP1 PUSH2 0x4122 JUMP JUMPDEST PUSH1 0x40 MLOAD DUP1 SWAP2 SUB SWAP1 REVERT JUMPDEST PUSH1 0x1 PUSH1 0x0 SWAP1 SLOAD SWAP1 PUSH2 0x100 EXP SWAP1 DIV PUSH20 0xFFFFFFFFFFFFFFFFFFFFFFFFFFFFFFFFFFFFFFFF AND PUSH20 0xFFFFFFFFFFFFFFFFFFFFFFFFFFFFFFFFFFFFFFFF AND PUSH4 0x23B872DD CALLER ADDRESS PUSH5 0x2540BE400 PUSH1 0x40 MLOAD DUP5 PUSH4 0xFFFFFFFF AND PUSH1 0xE0 SHL DUP2 MSTORE PUSH1 0x4 ADD PUSH2 0x828 SWAP4 SWAP3 SWAP2 SWAP1 PUSH2 0x4142 JUMP JUMPDEST PUSH1 0x20 PUSH1 0x40 MLOAD DUP1 DUP4 SUB DUP2 PUSH1 0x0 DUP8 GAS CALL ISZERO DUP1 ISZERO PUSH2 0x847 JUMPI RETURNDATASIZE PUSH1 0x0 DUP1 RETURNDATACOPY RETURNDATASIZE PUSH1 0x0 REVERT JUMPDEST POP POP POP POP PUSH1 0x40 MLOAD RETURNDATASIZE PUSH1 0x1F NOT PUSH1 0x1F DUP3 ADD AND DUP3 ADD DUP1 PUSH1 0x40 MSTORE POP DUP2 ADD SWAP1 PUSH2 0x86B SWAP2 SWAP1 PUSH2 0x41A5 JUMP JUMPDEST PUSH2 0x8AA JUMPI PUSH1 0x40 MLOAD PUSH32 0x8C379A000000000000000000000000000000000000000000000000000000000 DUP2 MSTORE PUSH1 0x4 ADD PUSH2 0x8A1 SWAP1 PUSH2 0x421E JUMP JUMPDEST PUSH1 0x40 MLOAD DUP1 SWAP2 SUB SWAP1 REVERT JUMPDEST DUP2 DUP2 PUSH1 0x6 PUSH1 0x0 DUP8 PUSH1 0xFF AND PUSH1 0xFF AND DUP2 MSTORE PUSH1 0x20 ADD SWAP1 DUP2 MSTORE PUSH1 0x20 ADD PUSH1 0x0 KECCAK256 PUSH1 0x0 DUP7 PUSH1 0xFF AND PUSH1 0xFF AND DUP2 MSTORE PUSH1 0x20 ADD SWAP1 DUP2 MSTORE PUSH1 0x20 ADD PUSH1 0x0 KECCAK256 SWAP2 DUP3 PUSH2 0x8E9 SWAP3 SWAP2 SWAP1 PUSH2 0x447A JUMP JUMPDEST POP CALLER PUSH20 0xFFFFFFFFFFFFFFFFFFFFFFFFFFFFFFFFFFFFFFFF AND PUSH32 0x4CA3860FF74978D12A483F5D8FA68A3F3C3CEB09B008784DC253BFBC348AB3E8 DUP6 DUP6 DUP6 DUP6 PUSH1 0x40 MLOAD PUSH2 0x936 SWAP5 SWAP4 SWAP3 SWAP2 SWAP1 PUSH2 0x4586 JUMP JUMPDEST PUSH1 0x40 MLOAD DUP1 SWAP2 SUB SWAP1 LOG2 POP POP POP POP JUMP JUMPDEST PUSH1 0x3 PUSH1 0x20 MSTORE DUP1 PUSH1 0x0 MSTORE PUSH1 0x40 PUSH1 0x0 KECCAK256 PUSH1 0x0 SWAP2 POP SWAP1 POP DUP1 PUSH1 0x0 ADD PUSH1 0x0 SWAP1 SLOAD SWAP1 PUSH2 0x100 EXP SWAP1 DIV PUSH1 0xFF AND SWAP1 DUP1 PUSH1 0x0 ADD PUSH1 0x1 SWAP1 SLOAD SWAP1 PUSH2 0x100 EXP SWAP1 DIV PUSH1 0xFF AND SWAP1 POP DUP3 JUMP JUMPDEST PUSH1 0x60 PUSH1 0x6 PUSH1 0x0 DUP5 PUSH1 0xFF AND PUSH1 0xFF AND DUP2 MSTORE PUSH1 0x20 ADD SWAP1 DUP2 MSTORE PUSH1 0x20 ADD PUSH1 0x0 KECCAK256 PUSH1 0x0 DUP4 PUSH1 0xFF AND PUSH1 0xFF AND DUP2 MSTORE PUSH1 0x20 ADD SWAP1 DUP2 MSTORE PUSH1 0x20 ADD PUSH1 0x0 KECCAK256 DUP1 SLOAD PUSH2 0x9BF SWAP1 PUSH2 0x42A7 JUMP JUMPDEST DUP1 PUSH1 0x1F ADD PUSH1 0x20 DUP1 SWAP2 DIV MUL PUSH1 0x20 ADD PUSH1 0x40 MLOAD SWAP1 DUP2 ADD PUSH1 0x40 MSTORE DUP1 SWAP3 SWAP2 SWAP1 DUP2 DUP2 MSTORE PUSH1 0x20 ADD DUP3 DUP1 SLOAD PUSH2 0x9EB SWAP1 PUSH2 0x42A7 JUMP JUMPDEST DUP1 ISZERO PUSH2 0xA38 JUMPI DUP1 PUSH1 0x1F LT PUSH2 0xA0D JUMPI PUSH2 0x100 DUP1 DUP4 SLOAD DIV MUL DUP4 MSTORE SWAP2 PUSH1 0x20 ADD SWAP2 PUSH2 0xA38 JUMP JUMPDEST DUP3 ADD SWAP2 SWAP1 PUSH1 0x0 MSTORE PUSH1 0x20 PUSH1 0x0 KECCAK256 SWAP1 JUMPDEST DUP2 SLOAD DUP2 MSTORE SWAP1 PUSH1 0x1 ADD SWAP1 PUSH1 0x20 ADD DUP1 DUP4 GT PUSH2 0xA1B JUMPI DUP3 SWAP1 SUB PUSH1 0x1F AND DUP3 ADD SWAP2 JUMPDEST POP POP POP POP POP SWAP1 POP SWAP3 SWAP2 POP POP JUMP JUMPDEST PUSH1 0x1 PUSH1 0x0 SWAP1 SLOAD SWAP1 PUSH2 0x100 EXP SWAP1 DIV PUSH20 0xFFFFFFFFFFFFFFFFFFFFFFFFFFFFFFFFFFFFFFFF AND DUP2 JUMP JUMPDEST PUSH2 0xA74 CALLER PUSH2 0x3239 JUMP JUMPDEST PUSH2 0xAB3 JUMPI PUSH1 0x40 MLOAD PUSH32 0x8C379A000000000000000000000000000000000000000000000000000000000 DUP2 MSTORE PUSH1 0x4 ADD PUSH2 0xAAA SWAP1 PUSH2 0x4638 JUMP JUMPDEST PUSH1 0x40 MLOAD DUP1 SWAP2 SUB SWAP1 REVERT JUMPDEST PUSH1 0x0 DUP3 DUP3 SWAP1 POP GT PUSH2 0xAF9 JUMPI PUSH1 0x40 MLOAD PUSH32 0x8C379A000000000000000000000000000000000000000000000000000000000 DUP2 MSTORE PUSH1 0x4 ADD PUSH2 0xAF0 SWAP1 PUSH2 0x46A4 JUMP JUMPDEST PUSH1 0x40 MLOAD DUP1 SWAP2 SUB SWAP1 REVERT JUMPDEST PUSH1 0x3 PUSH1 0x0 CALLER PUSH20 0xFFFFFFFFFFFFFFFFFFFFFFFFFFFFFFFFFFFFFFFF AND PUSH20 0xFFFFFFFFFFFFFFFFFFFFFFFFFFFFFFFFFFFFFFFF AND DUP2 MSTORE PUSH1 0x20 ADD SWAP1 DUP2 MSTORE PUSH1 0x20 ADD PUSH1 0x0 KECCAK256 PUSH1 0x0 ADD PUSH1 0x1 SWAP1 SLOAD SWAP1 PUSH2 0x100 EXP SWAP1 DIV PUSH1 0xFF AND ISZERO PUSH2 0xB89 JUMPI PUSH1 0x40 MLOAD PUSH32 0x8C379A000000000000000000000000000000000000000000000000000000000 DUP2 MSTORE PUSH1 0x4 ADD PUSH2 0xB80 SWAP1 PUSH2 0x4710 JUMP JUMPDEST PUSH1 0x40 MLOAD DUP1 SWAP2 SUB SWAP1 REVERT JUMPDEST PUSH1 0x1 PUSH1 0x0 SWAP1 SLOAD SWAP1 PUSH2 0x100 EXP SWAP1 DIV PUSH20 0xFFFFFFFFFFFFFFFFFFFFFFFFFFFFFFFFFFFFFFFF AND PUSH20 0xFFFFFFFFFFFFFFFFFFFFFFFFFFFFFFFFFFFFFFFF AND PUSH4 0x23B872DD CALLER ADDRESS PUSH5 0x174876E800 PUSH1 0x40 MLOAD DUP5 PUSH4 0xFFFFFFFF AND PUSH1 0xE0 SHL DUP2 MSTORE PUSH1 0x4 ADD PUSH2 0xBED SWAP4 SWAP3 SWAP2 SWAP1 PUSH2 0x4142 JUMP JUMPDEST PUSH1 0x20 PUSH1 0x40 MLOAD DUP1 DUP4 SUB DUP2 PUSH1 0x0 DUP8 GAS CALL ISZERO DUP1 ISZERO PUSH2 0xC0C JUMPI RETURNDATASIZE PUSH1 0x0 DUP1 RETURNDATACOPY RETURNDATASIZE PUSH1 0x0 REVERT JUMPDEST POP POP POP POP PUSH1 0x40 MLOAD RETURNDATASIZE PUSH1 0x1F NOT PUSH1 0x1F DUP3 ADD AND DUP3 ADD DUP1 PUSH1 0x40 MSTORE POP DUP2 ADD SWAP1 PUSH2 0xC30 SWAP2 SWAP1 PUSH2 0x41A5 JUMP JUMPDEST PUSH2 0xC6F JUMPI PUSH1 0x40 MLOAD PUSH32 0x8C379A000000000000000000000000000000000000000000000000000000000 DUP2 MSTORE PUSH1 0x4 ADD PUSH2 0xC66 SWAP1 PUSH2 0x477C JUMP JUMPDEST PUSH1 0x40 MLOAD DUP1 SWAP2 SUB SWAP1 REVERT JUMPDEST PUSH1 0x1 PUSH1 0x14 DUP2 DUP2 SWAP1 SLOAD SWAP1 PUSH2 0x100 EXP SWAP1 DIV PUSH1 0xFF AND DUP1 SWAP3 SWAP2 SWAP1 PUSH2 0xC8E SWAP1 PUSH2 0x47CB JUMP JUMPDEST SWAP2 SWAP1 PUSH2 0x100 EXP DUP2 SLOAD DUP2 PUSH1 0xFF MUL NOT AND SWAP1 DUP4 PUSH1 0xFF AND MUL OR SWAP1 SSTORE POP POP PUSH1 0x40 MLOAD DUP1 PUSH1 0x80 ADD PUSH1 0x40 MSTORE DUP1 DUP4 DUP4 DUP1 DUP1 PUSH1 0x1F ADD PUSH1 0x20 DUP1 SWAP2 DIV MUL PUSH1 0x20 ADD PUSH1 0x40 MLOAD SWAP1 DUP2 ADD PUSH1 0x40 MSTORE DUP1 SWAP4 SWAP3 SWAP2 SWAP1 DUP2 DUP2 MSTORE PUSH1 0x20 ADD DUP4 DUP4 DUP1 DUP3 DUP5 CALLDATACOPY PUSH1 0x0 DUP2 DUP5 ADD MSTORE PUSH1 0x1F NOT PUSH1 0x1F DUP3 ADD AND SWAP1 POP DUP1 DUP4 ADD SWAP3 POP POP POP POP POP POP POP DUP2 MSTORE PUSH1 0x20 ADD CALLER PUSH20 0xFFFFFFFFFFFFFFFFFFFFFFFFFFFFFFFFFFFFFFFF AND DUP2 MSTORE PUSH1 0x20 ADD PUSH1 0x1 PUSH1 0xFF AND DUP2 MSTORE PUSH1 0x20 ADD PUSH1 0x1 ISZERO ISZERO DUP2 MSTORE POP PUSH1 0x2 PUSH1 0x0 PUSH1 0x1 PUSH1 0x14 SWAP1 SLOAD SWAP1 PUSH2 0x100 EXP SWAP1 DIV PUSH1 0xFF AND PUSH1 0xFF AND PUSH1 0xFF AND DUP2 MSTORE PUSH1 0x20 ADD SWAP1 DUP2 MSTORE PUSH1 0x20 ADD PUSH1 0x0 KECCAK256 PUSH1 0x0 DUP3 ADD MLOAD DUP2 PUSH1 0x0 ADD SWAP1 DUP2 PUSH2 0xD66 SWAP2 SWAP1 PUSH2 0x47F4 JUMP JUMPDEST POP PUSH1 0x20 DUP3 ADD MLOAD DUP2 PUSH1 0x1 ADD PUSH1 0x0 PUSH2 0x100 EXP DUP2 SLOAD DUP2 PUSH20 0xFFFFFFFFFFFFFFFFFFFFFFFFFFFFFFFFFFFFFFFF MUL NOT AND SWAP1 DUP4 PUSH20 0xFFFFFFFFFFFFFFFFFFFFFFFFFFFFFFFFFFFFFFFF AND MUL OR SWAP1 SSTORE POP PUSH1 0x40 DUP3 ADD MLOAD DUP2 PUSH1 0x1 ADD PUSH1 0x14 PUSH2 0x100 EXP DUP2 SLOAD DUP2 PUSH1 0xFF MUL NOT AND SWAP1 DUP4 PUSH1 0xFF AND MUL OR SWAP1 SSTORE POP PUSH1 0x60 DUP3 ADD MLOAD DUP2 PUSH1 0x1 ADD PUSH1 0x15 PUSH2 0x100 EXP DUP2 SLOAD DUP2 PUSH1 0xFF MUL NOT AND SWAP1 DUP4 ISZERO ISZERO MUL OR SWAP1 SSTORE POP SWAP1 POP POP PUSH1 0x40 MLOAD DUP1 PUSH1 0x40 ADD PUSH1 0x40 MSTORE DUP1 PUSH1 0x1 PUSH1 0x14 SWAP1 SLOAD SWAP1 PUSH2 0x100 EXP SWAP1 DIV PUSH1 0xFF AND PUSH1 0xFF AND DUP2 MSTORE PUSH1 0x20 ADD PUSH1 0x1 ISZERO ISZERO DUP2 MSTORE POP PUSH1 0x3 PUSH1 0x0 CALLER PUSH20 0xFFFFFFFFFFFFFFFFFFFFFFFFFFFFFFFFFFFFFFFF AND PUSH20 0xFFFFFFFFFFFFFFFFFFFFFFFFFFFFFFFFFFFFFFFF AND DUP2 MSTORE PUSH1 0x20 ADD SWAP1 DUP2 MSTORE PUSH1 0x20 ADD PUSH1 0x0 KECCAK256 PUSH1 0x0 DUP3 ADD MLOAD DUP2 PUSH1 0x0 ADD PUSH1 0x0 PUSH2 0x100 EXP DUP2 SLOAD DUP2 PUSH1 0xFF MUL NOT AND SWAP1 DUP4 PUSH1 0xFF AND MUL OR SWAP1 SSTORE POP PUSH1 0x20 DUP3 ADD MLOAD DUP2 PUSH1 0x0 ADD PUSH1 0x1 PUSH2 0x100 EXP DUP2 SLOAD DUP2 PUSH1 0xFF MUL NOT AND SWAP1 DUP4 ISZERO ISZERO MUL OR SWAP1 SSTORE POP SWAP1 POP POP PUSH1 0x4 PUSH1 0x0 PUSH1 0x1 PUSH1 0x14 SWAP1 SLOAD SWAP1 PUSH2 0x100 EXP SWAP1 DIV PUSH1 0xFF AND PUSH1 0xFF AND PUSH1 0xFF AND DUP2 MSTORE PUSH1 0x20 ADD SWAP1 DUP2 MSTORE PUSH1 0x20 ADD PUSH1 0x0 KECCAK256 CALLER SWAP1 DUP1 PUSH1 0x1 DUP2 SLOAD ADD DUP1 DUP3 SSTORE DUP1 SWAP2 POP POP PUSH1 0x1 SWAP1 SUB SWAP1 PUSH1 0x0 MSTORE PUSH1 0x20 PUSH1 0x0 KECCAK256 ADD PUSH1 0x0 SWAP1 SWAP2 SWAP1 SWAP2 SWAP1 SWAP2 PUSH2 0x100 EXP DUP2 SLOAD DUP2 PUSH20 0xFFFFFFFFFFFFFFFFFFFFFFFFFFFFFFFFFFFFFFFF MUL NOT AND SWAP1 DUP4 PUSH20 0xFFFFFFFFFFFFFFFFFFFFFFFFFFFFFFFFFFFFFFFF AND MUL OR SWAP1 SSTORE POP PUSH1 0x0 DUP1 PUSH2 0xF34 CALLER PUSH2 0x3367 JUMP JUMPDEST SWAP2 POP SWAP2 POP PUSH1 0x1 PUSH1 0x14 SWAP1 SLOAD SWAP1 PUSH2 0x100 EXP SWAP1 DIV PUSH1 0xFF AND PUSH1 0x7 PUSH1 0x0 DUP5 PUSH1 0xFF AND PUSH1 0xFF AND DUP2 MSTORE PUSH1 0x20 ADD SWAP1 DUP2 MSTORE PUSH1 0x20 ADD PUSH1 0x0 KECCAK256 PUSH1 0x0 DUP4 PUSH1 0xFF AND PUSH1 0xFF AND DUP2 MSTORE PUSH1 0x20 ADD SWAP1 DUP2 MSTORE PUSH1 0x20 ADD PUSH1 0x0 KECCAK256 PUSH1 0x0 PUSH2 0x100 EXP DUP2 SLOAD DUP2 PUSH1 0xFF MUL NOT AND SWAP1 DUP4 PUSH1 0xFF AND MUL OR SWAP1 SSTORE POP PUSH32 0x2894FC6A8646076B891138309FFB3FC9086490A703074B2B2D77C5DCDDB43DE PUSH1 0x1 PUSH1 0x14 SWAP1 SLOAD SWAP1 PUSH2 0x100 EXP SWAP1 DIV PUSH1 0xFF AND DUP6 DUP6 CALLER PUSH1 0x40 MLOAD PUSH2 0xFD4 SWAP5 SWAP4 SWAP3 SWAP2 SWAP1 PUSH2 0x48C6 JUMP JUMPDEST PUSH1 0x40 MLOAD DUP1 SWAP2 SUB SWAP1 LOG1 POP POP POP POP JUMP JUMPDEST PUSH1 0x8 PUSH1 0x0 SWAP1 SLOAD SWAP1 PUSH2 0x100 EXP SWAP1 DIV PUSH20 0xFFFFFFFFFFFFFFFFFFFFFFFFFFFFFFFFFFFFFFFF AND DUP2 JUMP JUMPDEST PUSH1 0x5 PUSH1 0x20 MSTORE DUP1 PUSH1 0x0 MSTORE PUSH1 0x40 PUSH1 0x0 KECCAK256 PUSH1 0x0 SWAP2 POP SLOAD SWAP1 PUSH2 0x100 EXP SWAP1 DIV PUSH1 0xFF AND DUP2 JUMP JUMPDEST PUSH1 0x4 PUSH1 0x20 MSTORE DUP2 PUSH1 0x0 MSTORE PUSH1 0x40 PUSH1 0x0 KECCAK256 DUP2 DUP2 SLOAD DUP2 LT PUSH2 0x1044 JUMPI PUSH1 0x0 DUP1 REVERT JUMPDEST SWAP1 PUSH1 0x0 MSTORE PUSH1 0x20 PUSH1 0x0 KECCAK256 ADD PUSH1 0x0 SWAP2 POP SWAP2 POP SWAP1 SLOAD SWAP1 PUSH2 0x100 EXP SWAP1 DIV PUSH20 0xFFFFFFFFFFFFFFFFFFFFFFFFFFFFFFFFFFFFFFFF AND DUP2 JUMP JUMPDEST PUSH1 0x60 PUSH1 0x0 DUP1 JUMPDEST PUSH1 0x14 DUP2 PUSH1 0xFF AND LT ISZERO PUSH2 0x1115 JUMPI PUSH1 0x0 JUMPDEST PUSH1 0x14 DUP2 PUSH1 0xFF AND LT ISZERO PUSH2 0x1101 JUMPI PUSH1 0x0 PUSH1 0x7 PUSH1 0x0 DUP5 PUSH1 0xFF AND PUSH1 0xFF AND DUP2 MSTORE PUSH1 0x20 ADD SWAP1 DUP2 MSTORE PUSH1 0x20 ADD PUSH1 0x0 KECCAK256 PUSH1 0x0 DUP4 PUSH1 0xFF AND PUSH1 0xFF AND DUP2 MSTORE PUSH1 0x20 ADD SWAP1 DUP2 MSTORE PUSH1 0x20 ADD PUSH1 0x0 KECCAK256 PUSH1 0x0 SWAP1 SLOAD SWAP1 PUSH2 0x100 EXP SWAP1 DIV PUSH1 0xFF AND PUSH1 0xFF AND EQ PUSH2 0x10EE JUMPI DUP3 DUP1 PUSH2 0x10EA SWAP1 PUSH2 0x4906 JUMP JUMPDEST SWAP4 POP POP JUMPDEST DUP1 DUP1 PUSH2 0x10F9 SWAP1 PUSH2 0x47CB JUMP JUMPDEST SWAP2 POP POP PUSH2 0x108B JUMP JUMPDEST POP DUP1 DUP1 PUSH2 0x110D SWAP1 PUSH2 0x47CB JUMP JUMPDEST SWAP2 POP POP PUSH2 0x107C JUMP JUMPDEST POP PUSH1 0x0 DUP2 PUSH8 0xFFFFFFFFFFFFFFFF DUP2 GT ISZERO PUSH2 0x1132 JUMPI PUSH2 0x1131 PUSH2 0x4249 JUMP JUMPDEST JUMPDEST PUSH1 0x40 MLOAD SWAP1 DUP1 DUP3 MSTORE DUP1 PUSH1 0x20 MUL PUSH1 0x20 ADD DUP3 ADD PUSH1 0x40 MSTORE DUP1 ISZERO PUSH2 0x116B JUMPI DUP2 PUSH1 0x20 ADD JUMPDEST PUSH2 0x1158 PUSH2 0x34CB JUMP JUMPDEST DUP2 MSTORE PUSH1 0x20 ADD SWAP1 PUSH1 0x1 SWAP1 SUB SWAP1 DUP2 PUSH2 0x1150 JUMPI SWAP1 POP JUMPDEST POP SWAP1 POP PUSH1 0x0 DUP1 JUMPDEST PUSH1 0x14 DUP2 PUSH1 0xFF AND LT ISZERO PUSH2 0x1272 JUMPI PUSH1 0x0 JUMPDEST PUSH1 0x14 DUP2 PUSH1 0xFF AND LT ISZERO PUSH2 0x125E JUMPI PUSH1 0x0 PUSH1 0x7 PUSH1 0x0 DUP5 PUSH1 0xFF AND PUSH1 0xFF AND DUP2 MSTORE PUSH1 0x20 ADD SWAP1 DUP2 MSTORE PUSH1 0x20 ADD PUSH1 0x0 KECCAK256 PUSH1 0x0 DUP4 PUSH1 0xFF AND PUSH1 0xFF AND DUP2 MSTORE PUSH1 0x20 ADD SWAP1 DUP2 MSTORE PUSH1 0x20 ADD PUSH1 0x0 KECCAK256 PUSH1 0x0 SWAP1 SLOAD SWAP1 PUSH2 0x100 EXP SWAP1 DIV PUSH1 0xFF AND SWAP1 POP PUSH1 0x0 DUP2 PUSH1 0xFF AND EQ PUSH2 0x124A JUMPI PUSH1 0x40 MLOAD DUP1 PUSH1 0x80 ADD PUSH1 0x40 MSTORE DUP1 DUP5 PUSH1 0xFF AND DUP2 MSTORE PUSH1 0x20 ADD DUP4 PUSH1 0xFF AND DUP2 MSTORE PUSH1 0x20 ADD DUP3 PUSH1 0xFF AND DUP2 MSTORE PUSH1 0x20 ADD PUSH1 0x9 PUSH1 0x0 DUP5 PUSH1 0xFF AND PUSH1 0xFF AND DUP2 MSTORE PUSH1 0x20 ADD SWAP1 DUP2 MSTORE PUSH1 0x20 ADD PUSH1 0x0 KECCAK256 SLOAD DUP2 MSTORE POP DUP6 DUP6 DUP2 MLOAD DUP2 LT PUSH2 0x1230 JUMPI PUSH2 0x122F PUSH2 0x494E JUMP JUMPDEST JUMPDEST PUSH1 0x20 MUL PUSH1 0x20 ADD ADD DUP2 SWAP1 MSTORE POP DUP4 DUP1 PUSH2 0x1246 SWAP1 PUSH2 0x4906 JUMP JUMPDEST SWAP5 POP POP JUMPDEST POP DUP1 DUP1 PUSH2 0x1256 SWAP1 PUSH2 0x47CB JUMP JUMPDEST SWAP2 POP POP PUSH2 0x1181 JUMP JUMPDEST POP DUP1 DUP1 PUSH2 0x126A SWAP1 PUSH2 0x47CB JUMP JUMPDEST SWAP2 POP POP PUSH2 0x1172 JUMP JUMPDEST POP DUP2 SWAP4 POP POP POP POP SWAP1 JUMP JUMPDEST PUSH2 0x1284 PUSH2 0x34FC JUMP JUMPDEST PUSH1 0x2 PUSH1 0x0 DUP4 PUSH1 0xFF AND PUSH1 0xFF AND DUP2 MSTORE PUSH1 0x20 ADD SWAP1 DUP2 MSTORE PUSH1 0x20 ADD PUSH1 0x0 KECCAK256 PUSH1 0x40 MLOAD DUP1 PUSH1 0x80 ADD PUSH1 0x40 MSTORE SWAP1 DUP2 PUSH1 0x0 DUP3 ADD DUP1 SLOAD PUSH2 0x12B8 SWAP1 PUSH2 0x42A7 JUMP JUMPDEST DUP1 PUSH1 0x1F ADD PUSH1 0x20 DUP1 SWAP2 DIV MUL PUSH1 0x20 ADD PUSH1 0x40 MLOAD SWAP1 DUP2 ADD PUSH1 0x40 MSTORE DUP1 SWAP3 SWAP2 SWAP1 DUP2 DUP2 MSTORE PUSH1 0x20 ADD DUP3 DUP1 SLOAD PUSH2 0x12E4 SWAP1 PUSH2 0x42A7 JUMP JUMPDEST DUP1 ISZERO PUSH2 0x1331 JUMPI DUP1 PUSH1 0x1F LT PUSH2 0x1306 JUMPI PUSH2 0x100 DUP1 DUP4 SLOAD DIV MUL DUP4 MSTORE SWAP2 PUSH1 0x20 ADD SWAP2 PUSH2 0x1331 JUMP JUMPDEST DUP3 ADD SWAP2 SWAP1 PUSH1 0x0 MSTORE PUSH1 0x20 PUSH1 0x0 KECCAK256 SWAP1 JUMPDEST DUP2 SLOAD DUP2 MSTORE SWAP1 PUSH1 0x1 ADD SWAP1 PUSH1 0x20 ADD DUP1 DUP4 GT PUSH2 0x1314 JUMPI DUP3 SWAP1 SUB PUSH1 0x1F AND DUP3 ADD SWAP2 JUMPDEST POP POP POP POP POP DUP2 MSTORE PUSH1 0x20 ADD PUSH1 0x1 DUP3 ADD PUSH1 0x0 SWAP1 SLOAD SWAP1 PUSH2 0x100 EXP SWAP1 DIV PUSH20 0xFFFFFFFFFFFFFFFFFFFFFFFFFFFFFFFFFFFFFFFF AND PUSH20 0xFFFFFFFFFFFFFFFFFFFFFFFFFFFFFFFFFFFFFFFF AND PUSH20 0xFFFFFFFFFFFFFFFFFFFFFFFFFFFFFFFFFFFFFFFF AND DUP2 MSTORE PUSH1 0x20 ADD PUSH1 0x1 DUP3 ADD PUSH1 0x14 SWAP1 SLOAD SWAP1 PUSH2 0x100 EXP SWAP1 DIV PUSH1 0xFF AND PUSH1 0xFF AND PUSH1 0xFF AND DUP2 MSTORE PUSH1 0x20 ADD PUSH1 0x1 DUP3 ADD PUSH1 0x15 SWAP1 SLOAD SWAP1 PUSH2 0x100 EXP SWAP1 DIV PUSH1 0xFF AND ISZERO ISZERO ISZERO ISZERO DUP2 MSTORE POP POP SWAP1 POP SWAP2 SWAP1 POP JUMP JUMPDEST PUSH1 0x0 DUP1 SLOAD SWAP1 PUSH2 0x100 EXP SWAP1 DIV PUSH20 0xFFFFFFFFFFFFFFFFFFFFFFFFFFFFFFFFFFFFFFFF AND DUP2 JUMP JUMPDEST PUSH1 0x7 PUSH1 0x20 MSTORE DUP2 PUSH1 0x0 MSTORE PUSH1 0x40 PUSH1 0x0 KECCAK256 PUSH1 0x20 MSTORE DUP1 PUSH1 0x0 MSTORE PUSH1 0x40 PUSH1 0x0 KECCAK256 PUSH1 0x0 SWAP2 POP SWAP2 POP SWAP1 SLOAD SWAP1 PUSH2 0x100 EXP SWAP1 DIV PUSH1 0xFF AND DUP2 JUMP JUMPDEST PUSH5 0x2540BE400 DUP2 JUMP JUMPDEST DUP2 CALLER PUSH20 0xFFFFFFFFFFFFFFFFFFFFFFFFFFFFFFFFFFFFFFFF AND PUSH1 0x2 PUSH1 0x0 DUP4 PUSH1 0xFF AND PUSH1 0xFF AND DUP2 MSTORE PUSH1 0x20 ADD SWAP1 DUP2 MSTORE PUSH1 0x20 ADD PUSH1 0x0 KECCAK256 PUSH1 0x1 ADD PUSH1 0x0 SWAP1 SLOAD SWAP1 PUSH2 0x100 EXP SWAP1 DIV PUSH20 0xFFFFFFFFFFFFFFFFFFFFFFFFFFFFFFFFFFFFFFFF AND PUSH20 0xFFFFFFFFFFFFFFFFFFFFFFFFFFFFFFFFFFFFFFFF AND EQ PUSH2 0x14D6 JUMPI PUSH1 0x40 MLOAD PUSH32 0x8C379A000000000000000000000000000000000000000000000000000000000 DUP2 MSTORE PUSH1 0x4 ADD PUSH2 0x14CD SWAP1 PUSH2 0x49EF JUMP JUMPDEST PUSH1 0x40 MLOAD DUP1 SWAP2 SUB SWAP1 REVERT JUMPDEST PUSH1 0x2 PUSH1 0x0 DUP5 PUSH1 0xFF AND PUSH1 0xFF AND DUP2 MSTORE PUSH1 0x20 ADD SWAP1 DUP2 MSTORE PUSH1 0x20 ADD PUSH1 0x0 KECCAK256 PUSH1 0x1 ADD PUSH1 0x15 SWAP1 SLOAD SWAP1 PUSH2 0x100 EXP SWAP1 DIV PUSH1 0xFF AND PUSH2 0x153F JUMPI PUSH1 0x40 MLOAD PUSH32 0x8C379A000000000000000000000000000000000000000000000000000000000 DUP2 MSTORE PUSH1 0x4 ADD PUSH2 0x1536 SWAP1 PUSH2 0x4A5B JUMP JUMPDEST PUSH1 0x40 MLOAD DUP1 SWAP2 SUB SWAP1 REVERT JUMPDEST PUSH1 0x1E PUSH1 0xFF AND PUSH1 0x2 PUSH1 0x0 DUP6 PUSH1 0xFF AND PUSH1 0xFF AND DUP2 MSTORE PUSH1 0x20 ADD SWAP1 DUP2 MSTORE PUSH1 0x20 ADD PUSH1 0x0 KECCAK256 PUSH1 0x1 ADD PUSH1 0x14 SWAP1 SLOAD SWAP1 PUSH2 0x100 EXP SWAP1 DIV PUSH1 0xFF AND PUSH1 0xFF AND LT PUSH2 0x15B1 JUMPI PUSH1 0x40 MLOAD PUSH32 0x8C379A000000000000000000000000000000000000000000000000000000000 DUP2 MSTORE PUSH1 0x4 ADD PUSH2 0x15A8 SWAP1 PUSH2 0x4AC7 JUMP JUMPDEST PUSH1 0x40 MLOAD DUP1 SWAP2 SUB SWAP1 REVERT JUMPDEST PUSH1 0x3 PUSH1 0x0 DUP4 PUSH20 0xFFFFFFFFFFFFFFFFFFFFFFFFFFFFFFFFFFFFFFFF AND PUSH20 0xFFFFFFFFFFFFFFFFFFFFFFFFFFFFFFFFFFFFFFFF AND DUP2 MSTORE PUSH1 0x20 ADD SWAP1 DUP2 MSTORE PUSH1 0x20 ADD PUSH1 0x0 KECCAK256 PUSH1 0x0 ADD PUSH1 0x1 SWAP1 SLOAD SWAP1 PUSH2 0x100 EXP SWAP1 DIV PUSH1 0xFF AND ISZERO PUSH2 0x1641 JUMPI PUSH1 0x40 MLOAD PUSH32 0x8C379A000000000000000000000000000000000000000000000000000000000 DUP2 MSTORE PUSH1 0x4 ADD PUSH2 0x1638 SWAP1 PUSH2 0x4B33 JUMP JUMPDEST PUSH1 0x40 MLOAD DUP1 SWAP2 SUB SWAP1 REVERT JUMPDEST PUSH2 0x164A DUP3 PUSH2 0x3239 JUMP JUMPDEST PUSH2 0x1689 JUMPI PUSH1 0x40 MLOAD PUSH32 0x8C379A000000000000000000000000000000000000000000000000000000000 DUP2 MSTORE PUSH1 0x4 ADD PUSH2 0x1680 SWAP1 PUSH2 0x4B9F JUMP JUMPDEST PUSH1 0x40 MLOAD DUP1 SWAP2 SUB SWAP1 REVERT JUMPDEST DUP3 PUSH1 0x5 PUSH1 0x0 DUP5 PUSH20 0xFFFFFFFFFFFFFFFFFFFFFFFFFFFFFFFFFFFFFFFF AND PUSH20 0xFFFFFFFFFFFFFFFFFFFFFFFFFFFFFFFFFFFFFFFF AND DUP2 MSTORE PUSH1 0x20 ADD SWAP1 DUP2 MSTORE PUSH1 0x20 ADD PUSH1 0x0 KECCAK256 PUSH1 0x0 PUSH2 0x100 EXP DUP2 SLOAD DUP2 PUSH1 0xFF MUL NOT AND SWAP1 DUP4 PUSH1 0xFF AND MUL OR SWAP1 SSTORE POP PUSH32 0xFB5973CB72C6BF58BE94FF6AD4A5497B4361C5A70E78C75E83627CF0E1396DF6 DUP4 DUP4 PUSH1 0x40 MLOAD PUSH2 0x1712 SWAP3 SWAP2 SWAP1 PUSH2 0x4BBF JUMP JUMPDEST PUSH1 0x40 MLOAD DUP1 SWAP2 SUB SWAP1 LOG1 POP POP POP JUMP JUMPDEST PUSH5 0x174876E800 DUP2 JUMP JUMPDEST PUSH1 0x0 PUSH1 0x7 PUSH1 0x0 DUP5 PUSH1 0xFF AND PUSH1 0xFF AND DUP2 MSTORE PUSH1 0x20 ADD SWAP1 DUP2 MSTORE PUSH1 0x20 ADD PUSH1 0x0 KECCAK256 PUSH1 0x0 DUP4 PUSH1 0xFF AND PUSH1 0xFF AND DUP2 MSTORE PUSH1 0x20 ADD SWAP1 DUP2 MSTORE PUSH1 0x20 ADD PUSH1 0x0 KECCAK256 PUSH1 0x0 SWAP1 SLOAD SWAP1 PUSH2 0x100 EXP SWAP1 DIV PUSH1 0xFF AND SWAP1 POP SWAP3 SWAP2 POP POP JUMP JUMPDEST PUSH1 0x6 PUSH1 0x20 MSTORE DUP2 PUSH1 0x0 MSTORE PUSH1 0x40 PUSH1 0x0 KECCAK256 PUSH1 0x20 MSTORE DUP1 PUSH1 0x0 MSTORE PUSH1 0x40 PUSH1 0x0 KECCAK256 PUSH1 0x0 SWAP2 POP SWAP2 POP POP DUP1 SLOAD PUSH2 0x179C SWAP1 PUSH2 0x42A7 JUMP JUMPDEST DUP1 PUSH1 0x1F ADD PUSH1 0x20 DUP1 SWAP2 DIV MUL PUSH1 0x20 ADD PUSH1 0x40 MLOAD SWAP1 DUP2 ADD PUSH1 0x40 MSTORE DUP1 SWAP3 SWAP2 SWAP1 DUP2 DUP2 MSTORE PUSH1 0x20 ADD DUP3 DUP1 SLOAD PUSH2 0x17C8 SWAP1 PUSH2 0x42A7 JUMP JUMPDEST DUP1 ISZERO PUSH2 0x1815 JUMPI DUP1 PUSH1 0x1F LT PUSH2 0x17EA JUMPI PUSH2 0x100 DUP1 DUP4 SLOAD DIV MUL DUP4 MSTORE SWAP2 PUSH1 0x20 ADD SWAP2 PUSH2 0x1815 JUMP JUMPDEST DUP3 ADD SWAP2 SWAP1 PUSH1 0x0 MSTORE PUSH1 0x20 PUSH1 0x0 KECCAK256 SWAP1 JUMPDEST DUP2 SLOAD DUP2 MSTORE SWAP1 PUSH1 0x1 ADD SWAP1 PUSH1 0x20 ADD DUP1 DUP4 GT PUSH2 0x17F8 JUMPI DUP3 SWAP1 SUB PUSH1 0x1F AND DUP3 ADD SWAP2 JUMPDEST POP POP POP POP POP DUP2 JUMP JUMPDEST PUSH1 0x0 PUSH1 0x5 PUSH1 0x0 CALLER PUSH20 0xFFFFFFFFFFFFFFFFFFFFFFFFFFFFFFFFFFFFFFFF AND PUSH20 0xFFFFFFFFFFFFFFFFFFFFFFFFFFFFFFFFFFFFFFFF AND DUP2 MSTORE PUSH1 0x20 ADD SWAP1 DUP2 MSTORE PUSH1 0x20 ADD PUSH1 0x0 KECCAK256 PUSH1 0x0 SWAP1 SLOAD SWAP1 PUSH2 0x100 EXP SWAP1 DIV PUSH1 0xFF AND PUSH1 0xFF AND GT PUSH2 0x18AF JUMPI PUSH1 0x40 MLOAD PUSH32 0x8C379A000000000000000000000000000000000000000000000000000000000 DUP2 MSTORE PUSH1 0x4 ADD PUSH2 0x18A6 SWAP1 PUSH2 0x4C34 JUMP JUMPDEST PUSH1 0x40 MLOAD DUP1 SWAP2 SUB SWAP1 REVERT JUMPDEST PUSH1 0x5 PUSH1 0x0 CALLER PUSH20 0xFFFFFFFFFFFFFFFFFFFFFFFFFFFFFFFFFFFFFFFF AND PUSH20 0xFFFFFFFFFFFFFFFFFFFFFFFFFFFFFFFFFFFFFFFF AND DUP2 MSTORE PUSH1 0x20 ADD SWAP1 DUP2 MSTORE PUSH1 0x20 ADD PUSH1 0x0 KECCAK256 PUSH1 0x0 PUSH2 0x100 EXP DUP2 SLOAD SWAP1 PUSH1 0xFF MUL NOT AND SWAP1 SSTORE JUMP JUMPDEST DUP2 CALLER PUSH20 0xFFFFFFFFFFFFFFFFFFFFFFFFFFFFFFFFFFFFFFFF AND PUSH1 0x2 PUSH1 0x0 DUP4 PUSH1 0xFF AND PUSH1 0xFF AND DUP2 MSTORE PUSH1 0x20 ADD SWAP1 DUP2 MSTORE PUSH1 0x20 ADD PUSH1 0x0 KECCAK256 PUSH1 0x1 ADD PUSH1 0x0 SWAP1 SLOAD SWAP1 PUSH2 0x100 EXP SWAP1 DIV PUSH20 0xFFFFFFFFFFFFFFFFFFFFFFFFFFFFFFFFFFFFFFFF AND PUSH20 0xFFFFFFFFFFFFFFFFFFFFFFFFFFFFFFFFFFFFFFFF AND EQ PUSH2 0x19AB JUMPI PUSH1 0x40 MLOAD PUSH32 0x8C379A000000000000000000000000000000000000000000000000000000000 DUP2 MSTORE PUSH1 0x4 ADD PUSH2 0x19A2 SWAP1 PUSH2 0x49EF JUMP JUMPDEST PUSH1 0x40 MLOAD DUP1 SWAP2 SUB SWAP1 REVERT JUMPDEST DUP3 PUSH1 0xFF AND PUSH1 0x3 PUSH1 0x0 CALLER PUSH20 0xFFFFFFFFFFFFFFFFFFFFFFFFFFFFFFFFFFFFFFFF AND PUSH20 0xFFFFFFFFFFFFFFFFFFFFFFFFFFFFFFFFFFFFFFFF AND DUP2 MSTORE PUSH1 0x20 ADD SWAP1 DUP2 MSTORE PUSH1 0x20 ADD PUSH1 0x0 KECCAK256 PUSH1 0x0 ADD PUSH1 0x0 SWAP1 SLOAD SWAP1 PUSH2 0x100 EXP SWAP1 DIV PUSH1 0xFF AND PUSH1 0xFF AND EQ PUSH2 0x1A42 JUMPI PUSH1 0x40 MLOAD PUSH32 0x8C379A000000000000000000000000000000000000000000000000000000000 DUP2 MSTORE PUSH1 0x4 ADD PUSH2 0x1A39 SWAP1 PUSH2 0x4CA0 JUMP JUMPDEST PUSH1 0x40 MLOAD DUP1 SWAP2 SUB SWAP1 REVERT JUMPDEST CALLER PUSH20 0xFFFFFFFFFFFFFFFFFFFFFFFFFFFFFFFFFFFFFFFF AND PUSH1 0x8 PUSH1 0x0 SWAP1 SLOAD SWAP1 PUSH2 0x100 EXP SWAP1 DIV PUSH20 0xFFFFFFFFFFFFFFFFFFFFFFFFFFFFFFFFFFFFFFFF AND PUSH20 0xFFFFFFFFFFFFFFFFFFFFFFFFFFFFFFFFFFFFFFFF AND PUSH4 0x6352211E DUP5 PUSH1 0x40 MLOAD DUP3 PUSH4 0xFFFFFFFF AND PUSH1 0xE0 SHL DUP2 MSTORE PUSH1 0x4 ADD PUSH2 0x1AB4 SWAP2 SWAP1 PUSH2 0x3DEB JUMP JUMPDEST PUSH1 0x20 PUSH1 0x40 MLOAD DUP1 DUP4 SUB DUP2 DUP7 GAS STATICCALL ISZERO DUP1 ISZERO PUSH2 0x1AD1 JUMPI RETURNDATASIZE PUSH1 0x0 DUP1 RETURNDATACOPY RETURNDATASIZE PUSH1 0x0 REVERT JUMPDEST POP POP POP POP PUSH1 0x40 MLOAD RETURNDATASIZE PUSH1 0x1F NOT PUSH1 0x1F DUP3 ADD AND DUP3 ADD DUP1 PUSH1 0x40 MSTORE POP DUP2 ADD SWAP1 PUSH2 0x1AF5 SWAP2 SWAP1 PUSH2 0x4083 JUMP JUMPDEST PUSH20 0xFFFFFFFFFFFFFFFFFFFFFFFFFFFFFFFFFFFFFFFF AND EQ PUSH2 0x1B4B JUMPI PUSH1 0x40 MLOAD PUSH32 0x8C379A000000000000000000000000000000000000000000000000000000000 DUP2 MSTORE PUSH1 0x4 ADD PUSH2 0x1B42 SWAP1 PUSH2 0x4D0C JUMP JUMPDEST PUSH1 0x40 MLOAD DUP1 SWAP2 SUB SWAP1 REVERT JUMPDEST PUSH1 0x0 PUSH1 0x8 PUSH1 0x0 SWAP1 SLOAD SWAP1 PUSH2 0x100 EXP SWAP1 DIV PUSH20 0xFFFFFFFFFFFFFFFFFFFFFFFFFFFFFFFFFFFFFFFF AND PUSH20 0xFFFFFFFFFFFFFFFFFFFFFFFFFFFFFFFFFFFFFFFF AND PUSH4 0xAD4C4F4 DUP5 PUSH1 0x40 MLOAD DUP3 PUSH4 0xFFFFFFFF AND PUSH1 0xE0 SHL DUP2 MSTORE PUSH1 0x4 ADD PUSH2 0x1BA8 SWAP2 SWAP1 PUSH2 0x3DEB JUMP JUMPDEST PUSH1 0x0 PUSH1 0x40 MLOAD DUP1 DUP4 SUB DUP2 DUP7 GAS STATICCALL ISZERO DUP1 ISZERO PUSH2 0x1BC5 JUMPI RETURNDATASIZE PUSH1 0x0 DUP1 RETURNDATACOPY RETURNDATASIZE PUSH1 0x0 REVERT JUMPDEST POP POP POP POP PUSH1 0x40 MLOAD RETURNDATASIZE PUSH1 0x0 DUP3 RETURNDATACOPY RETURNDATASIZE PUSH1 0x1F NOT PUSH1 0x1F DUP3 ADD AND DUP3 ADD DUP1 PUSH1 0x40 MSTORE POP DUP2 ADD SWAP1 PUSH2 0x1BEE SWAP2 SWAP1 PUSH2 0x4E33 JUMP JUMPDEST POP SWAP10 POP POP POP POP POP POP POP POP POP POP PUSH1 0x1 DUP2 EQ PUSH2 0x1C3D JUMPI PUSH1 0x40 MLOAD PUSH32 0x8C379A000000000000000000000000000000000000000000000000000000000 DUP2 MSTORE PUSH1 0x4 ADD PUSH2 0x1C34 SWAP1 PUSH2 0x5041 JUMP JUMPDEST PUSH1 0x40 MLOAD DUP1 SWAP2 SUB SWAP1 REVERT JUMPDEST DUP3 PUSH1 0x9 PUSH1 0x0 DUP7 PUSH1 0xFF AND PUSH1 0xFF AND DUP2 MSTORE PUSH1 0x20 ADD SWAP1 DUP2 MSTORE PUSH1 0x20 ADD PUSH1 0x0 KECCAK256 DUP2 SWAP1 SSTORE POP POP POP POP POP JUMP JUMPDEST PUSH1 0x60 PUSH1 0x0 DUP1 PUSH1 0x1 SWAP1 POP JUMPDEST PUSH1 0x1 PUSH1 0x14 SWAP1 SLOAD SWAP1 PUSH2 0x100 EXP SWAP1 DIV PUSH1 0xFF AND PUSH1 0xFF AND DUP2 PUSH1 0xFF AND GT PUSH2 0x1CD8 JUMPI PUSH1 0x2 PUSH1 0x0 DUP3 PUSH1 0xFF AND PUSH1 0xFF AND DUP2 MSTORE PUSH1 0x20 ADD SWAP1 DUP2 MSTORE PUSH1 0x20 ADD PUSH1 0x0 KECCAK256 PUSH1 0x1 ADD PUSH1 0x15 SWAP1 SLOAD SWAP1 PUSH2 0x100 EXP SWAP1 DIV PUSH1 0xFF AND ISZERO PUSH2 0x1CC5 JUMPI DUP2 DUP1 PUSH2 0x1CC1 SWAP1 PUSH2 0x4906 JUMP JUMPDEST SWAP3 POP POP JUMPDEST DUP1 DUP1 PUSH2 0x1CD0 SWAP1 PUSH2 0x47CB JUMP JUMPDEST SWAP2 POP POP PUSH2 0x1C6B JUMP JUMPDEST POP PUSH1 0x0 DUP2 PUSH8 0xFFFFFFFFFFFFFFFF DUP2 GT ISZERO PUSH2 0x1CF5 JUMPI PUSH2 0x1CF4 PUSH2 0x4249 JUMP JUMPDEST JUMPDEST PUSH1 0x40 MLOAD SWAP1 DUP1 DUP3 MSTORE DUP1 PUSH1 0x20 MUL PUSH1 0x20 ADD DUP3 ADD PUSH1 0x40 MSTORE DUP1 ISZERO PUSH2 0x1D2E JUMPI DUP2 PUSH1 0x20 ADD JUMPDEST PUSH2 0x1D1B PUSH2 0x34FC JUMP JUMPDEST DUP2 MSTORE PUSH1 0x20 ADD SWAP1 PUSH1 0x1 SWAP1 SUB SWAP1 DUP2 PUSH2 0x1D13 JUMPI SWAP1 POP JUMPDEST POP SWAP1 POP PUSH1 0x0 DUP1 PUSH1 0x1 SWAP1 POP JUMPDEST PUSH1 0x1 PUSH1 0x14 SWAP1 SLOAD SWAP1 PUSH2 0x100 EXP SWAP1 DIV PUSH1 0xFF AND PUSH1 0xFF AND DUP2 PUSH1 0xFF AND GT PUSH2 0x1F08 JUMPI PUSH1 0x2 PUSH1 0x0 DUP3 PUSH1 0xFF AND PUSH1 0xFF AND DUP2 MSTORE PUSH1 0x20 ADD SWAP1 DUP2 MSTORE PUSH1 0x20 ADD PUSH1 0x0 KECCAK256 PUSH1 0x1 ADD PUSH1 0x15 SWAP1 SLOAD SWAP1 PUSH2 0x100 EXP SWAP1 DIV PUSH1 0xFF AND ISZERO PUSH2 0x1EF5 JUMPI PUSH1 0x2 PUSH1 0x0 DUP3 PUSH1 0xFF AND PUSH1 0xFF AND DUP2 MSTORE PUSH1 0x20 ADD SWAP1 DUP2 MSTORE PUSH1 0x20 ADD PUSH1 0x0 KECCAK256 PUSH1 0x40 MLOAD DUP1 PUSH1 0x80 ADD PUSH1 0x40 MSTORE SWAP1 DUP2 PUSH1 0x0 DUP3 ADD DUP1 SLOAD PUSH2 0x1DB8 SWAP1 PUSH2 0x42A7 JUMP JUMPDEST DUP1 PUSH1 0x1F ADD PUSH1 0x20 DUP1 SWAP2 DIV MUL PUSH1 0x20 ADD PUSH1 0x40 MLOAD SWAP1 DUP2 ADD PUSH1 0x40 MSTORE DUP1 SWAP3 SWAP2 SWAP1 DUP2 DUP2 MSTORE PUSH1 0x20 ADD DUP3 DUP1 SLOAD PUSH2 0x1DE4 SWAP1 PUSH2 0x42A7 JUMP JUMPDEST DUP1 ISZERO PUSH2 0x1E31 JUMPI DUP1 PUSH1 0x1F LT PUSH2 0x1E06 JUMPI PUSH2 0x100 DUP1 DUP4 SLOAD DIV MUL DUP4 MSTORE SWAP2 PUSH1 0x20 ADD SWAP2 PUSH2 0x1E31 JUMP JUMPDEST DUP3 ADD SWAP2 SWAP1 PUSH1 0x0 MSTORE PUSH1 0x20 PUSH1 0x0 KECCAK256 SWAP1 JUMPDEST DUP2 SLOAD DUP2 MSTORE SWAP1 PUSH1 0x1 ADD SWAP1 PUSH1 0x20 ADD DUP1 DUP4 GT PUSH2 0x1E14 JUMPI DUP3 SWAP1 SUB PUSH1 0x1F AND DUP3 ADD SWAP2 JUMPDEST POP POP POP POP POP DUP2 MSTORE PUSH1 0x20 ADD PUSH1 0x1 DUP3 ADD PUSH1 0x0 SWAP1 SLOAD SWAP1 PUSH2 0x100 EXP SWAP1 DIV PUSH20 0xFFFFFFFFFFFFFFFFFFFFFFFFFFFFFFFFFFFFFFFF AND PUSH20 0xFFFFFFFFFFFFFFFFFFFFFFFFFFFFFFFFFFFFFFFF AND PUSH20 0xFFFFFFFFFFFFFFFFFFFFFFFFFFFFFFFFFFFFFFFF AND DUP2 MSTORE PUSH1 0x20 ADD PUSH1 0x1 DUP3 ADD PUSH1 0x14 SWAP1 SLOAD SWAP1 PUSH2 0x100 EXP SWAP1 DIV PUSH1 0xFF AND PUSH1 0xFF AND PUSH1 0xFF AND DUP2 MSTORE PUSH1 0x20 ADD PUSH1 0x1 DUP3 ADD PUSH1 0x15 SWAP1 SLOAD SWAP1 PUSH2 0x100 EXP SWAP1 DIV PUSH1 0xFF AND ISZERO ISZERO ISZERO ISZERO DUP2 MSTORE POP POP DUP4 DUP4 DUP2 MLOAD DUP2 LT PUSH2 0x1EDB JUMPI PUSH2 0x1EDA PUSH2 0x494E JUMP JUMPDEST JUMPDEST PUSH1 0x20 MUL PUSH1 0x20 ADD ADD DUP2 SWAP1 MSTORE POP DUP2 DUP1 PUSH2 0x1EF1 SWAP1 PUSH2 0x4906 JUMP JUMPDEST SWAP3 POP POP JUMPDEST DUP1 DUP1 PUSH2 0x1F00 SWAP1 PUSH2 0x47CB JUMP JUMPDEST SWAP2 POP POP PUSH2 0x1D39 JUMP JUMPDEST POP DUP2 SWAP4 POP POP POP POP SWAP1 JUMP JUMPDEST PUSH1 0x0 PUSH1 0x2 PUSH1 0x0 DUP4 PUSH1 0xFF AND PUSH1 0xFF AND DUP2 MSTORE PUSH1 0x20 ADD SWAP1 DUP2 MSTORE PUSH1 0x20 ADD PUSH1 0x0 KECCAK256 PUSH1 0x1 ADD PUSH1 0x15 SWAP1 SLOAD SWAP1 PUSH2 0x100 EXP SWAP1 DIV PUSH1 0xFF AND PUSH2 0x1F7D JUMPI PUSH1 0x40 MLOAD PUSH32 0x8C379A000000000000000000000000000000000000000000000000000000000 DUP2 MSTORE PUSH1 0x4 ADD PUSH2 0x1F74 SWAP1 PUSH2 0x4A5B JUMP JUMPDEST PUSH1 0x40 MLOAD DUP1 SWAP2 SUB SWAP1 REVERT JUMPDEST PUSH1 0x2 PUSH1 0x0 DUP4 PUSH1 0xFF AND PUSH1 0xFF AND DUP2 MSTORE PUSH1 0x20 ADD SWAP1 DUP2 MSTORE PUSH1 0x20 ADD PUSH1 0x0 KECCAK256 PUSH1 0x1 ADD PUSH1 0x14 SWAP1 SLOAD SWAP1 PUSH2 0x100 EXP SWAP1 DIV PUSH1 0xFF AND SWAP1 POP SWAP2 SWAP1 POP JUMP JUMPDEST PUSH1 0x3 PUSH1 0x0 CALLER PUSH20 0xFFFFFFFFFFFFFFFFFFFFFFFFFFFFFFFFFFFFFFFF AND PUSH20 0xFFFFFFFFFFFFFFFFFFFFFFFFFFFFFFFFFFFFFFFF AND DUP2 MSTORE PUSH1 0x20 ADD SWAP1 DUP2 MSTORE PUSH1 0x20 ADD PUSH1 0x0 KECCAK256 PUSH1 0x0 ADD PUSH1 0x1 SWAP1 SLOAD SWAP1 PUSH2 0x100 EXP SWAP1 DIV PUSH1 0xFF AND PUSH2 0x203D JUMPI PUSH1 0x40 MLOAD PUSH32 0x8C379A000000000000000000000000000000000000000000000000000000000 DUP2 MSTORE PUSH1 0x4 ADD PUSH2 0x2034 SWAP1 PUSH2 0x50AD JUMP JUMPDEST PUSH1 0x40 MLOAD DUP1 SWAP2 SUB SWAP1 REVERT JUMPDEST PUSH1 0x0 PUSH1 0x3 PUSH1 0x0 CALLER PUSH20 0xFFFFFFFFFFFFFFFFFFFFFFFFFFFFFFFFFFFFFFFF AND PUSH20 0xFFFFFFFFFFFFFFFFFFFFFFFFFFFFFFFFFFFFFFFF AND DUP2 MSTORE PUSH1 0x20 ADD SWAP1 DUP2 MSTORE PUSH1 0x20 ADD PUSH1 0x0 KECCAK256 PUSH1 0x0 ADD PUSH1 0x0 SWAP1 SLOAD SWAP1 PUSH2 0x100 EXP SWAP1 DIV PUSH1 0xFF AND SWAP1 POP PUSH1 0x2 PUSH1 0x0 DUP3 PUSH1 0xFF AND PUSH1 0xFF AND DUP2 MSTORE PUSH1 0x20 ADD SWAP1 DUP2 MSTORE PUSH1 0x20 ADD PUSH1 0x0 KECCAK256 PUSH1 0x1 ADD PUSH1 0x15 SWAP1 SLOAD SWAP1 PUSH2 0x100 EXP SWAP1 DIV PUSH1 0xFF AND PUSH2 0x20FA JUMPI PUSH1 0x40 MLOAD PUSH32 0x8C379A000000000000000000000000000000000000000000000000000000000 DUP2 MSTORE PUSH1 0x4 ADD PUSH2 0x20F1 SWAP1 PUSH2 0x4A5B JUMP JUMPDEST PUSH1 0x40 MLOAD DUP1 SWAP2 SUB SWAP1 REVERT JUMPDEST CALLER PUSH20 0xFFFFFFFFFFFFFFFFFFFFFFFFFFFFFFFFFFFFFFFF AND PUSH1 0x2 PUSH1 0x0 DUP4 PUSH1 0xFF AND PUSH1 0xFF AND DUP2 MSTORE PUSH1 0x20 ADD SWAP1 DUP2 MSTORE PUSH1 0x20 ADD PUSH1 0x0 KECCAK256 PUSH1 0x1 ADD PUSH1 0x0 SWAP1 SLOAD SWAP1 PUSH2 0x100 EXP SWAP1 DIV PUSH20 0xFFFFFFFFFFFFFFFFFFFFFFFFFFFFFFFFFFFFFFFF AND PUSH20 0xFFFFFFFFFFFFFFFFFFFFFFFFFFFFFFFFFFFFFFFF AND SUB PUSH2 0x21A4 JUMPI PUSH1 0x40 MLOAD PUSH32 0x8C379A000000000000000000000000000000000000000000000000000000000 DUP2 MSTORE PUSH1 0x4 ADD PUSH2 0x219B SWAP1 PUSH2 0x513F JUMP JUMPDEST PUSH1 0x40 MLOAD DUP1 SWAP2 SUB SWAP1 REVERT JUMPDEST PUSH1 0x0 PUSH1 0x3 PUSH1 0x0 CALLER PUSH20 0xFFFFFFFFFFFFFFFFFFFFFFFFFFFFFFFFFFFFFFFF AND PUSH20 0xFFFFFFFFFFFFFFFFFFFFFFFFFFFFFFFFFFFFFFFF AND DUP2 MSTORE PUSH1 0x20 ADD SWAP1 DUP2 MSTORE PUSH1 0x20 ADD PUSH1 0x0 KECCAK256 PUSH1 0x0 ADD PUSH1 0x1 PUSH2 0x100 EXP DUP2 SLOAD DUP2 PUSH1 0xFF MUL NOT AND SWAP1 DUP4 ISZERO ISZERO MUL OR SWAP1 SSTORE POP PUSH1 0x2 PUSH1 0x0 DUP3 PUSH1 0xFF AND PUSH1 0xFF AND DUP2 MSTORE PUSH1 0x20 ADD SWAP1 DUP2 MSTORE PUSH1 0x20 ADD PUSH1 0x0 KECCAK256 PUSH1 0x1 ADD PUSH1 0x14 DUP2 DUP2 SWAP1 SLOAD SWAP1 PUSH2 0x100 EXP SWAP1 DIV PUSH1 0xFF AND DUP1 SWAP3 SWAP2 SWAP1 PUSH2 0x2238 SWAP1 PUSH2 0x515F JUMP JUMPDEST SWAP2 SWAP1 PUSH2 0x100 EXP DUP2 SLOAD DUP2 PUSH1 0xFF MUL NOT AND SWAP1 DUP4 PUSH1 0xFF AND MUL OR SWAP1 SSTORE POP POP PUSH1 0x0 JUMPDEST PUSH1 0x4 PUSH1 0x0 DUP4 PUSH1 0xFF AND PUSH1 0xFF AND DUP2 MSTORE PUSH1 0x20 ADD SWAP1 DUP2 MSTORE PUSH1 0x20 ADD PUSH1 0x0 KECCAK256 DUP1 SLOAD SWAP1 POP DUP2 LT ISZERO PUSH2 0x2467 JUMPI CALLER PUSH20 0xFFFFFFFFFFFFFFFFFFFFFFFFFFFFFFFFFFFFFFFF AND PUSH1 0x4 PUSH1 0x0 DUP5 PUSH1 0xFF AND PUSH1 0xFF AND DUP2 MSTORE PUSH1 0x20 ADD SWAP1 DUP2 MSTORE PUSH1 0x20 ADD PUSH1 0x0 KECCAK256 DUP3 DUP2 SLOAD DUP2 LT PUSH2 0x22BA JUMPI PUSH2 0x22B9 PUSH2 0x494E JUMP JUMPDEST JUMPDEST SWAP1 PUSH1 0x0 MSTORE PUSH1 0x20 PUSH1 0x0 KECCAK256 ADD PUSH1 0x0 SWAP1 SLOAD SWAP1 PUSH2 0x100 EXP SWAP1 DIV PUSH20 0xFFFFFFFFFFFFFFFFFFFFFFFFFFFFFFFFFFFFFFFF AND PUSH20 0xFFFFFFFFFFFFFFFFFFFFFFFFFFFFFFFFFFFFFFFF AND SUB PUSH2 0x2454 JUMPI PUSH1 0x4 PUSH1 0x0 DUP4 PUSH1 0xFF AND PUSH1 0xFF AND DUP2 MSTORE PUSH1 0x20 ADD SWAP1 DUP2 MSTORE PUSH1 0x20 ADD PUSH1 0x0 KECCAK256 PUSH1 0x1 PUSH1 0x4 PUSH1 0x0 DUP6 PUSH1 0xFF AND PUSH1 0xFF AND DUP2 MSTORE PUSH1 0x20 ADD SWAP1 DUP2 MSTORE PUSH1 0x20 ADD PUSH1 0x0 KECCAK256 DUP1 SLOAD SWAP1 POP PUSH2 0x2342 SWAP2 SWAP1 PUSH2 0x5188 JUMP JUMPDEST DUP2 SLOAD DUP2 LT PUSH2 0x2353 JUMPI PUSH2 0x2352 PUSH2 0x494E JUMP JUMPDEST JUMPDEST SWAP1 PUSH1 0x0 MSTORE PUSH1 0x20 PUSH1 0x0 KECCAK256 ADD PUSH1 0x0 SWAP1 SLOAD SWAP1 PUSH2 0x100 EXP SWAP1 DIV PUSH20 0xFFFFFFFFFFFFFFFFFFFFFFFFFFFFFFFFFFFFFFFF AND PUSH1 0x4 PUSH1 0x0 DUP5 PUSH1 0xFF AND PUSH1 0xFF AND DUP2 MSTORE PUSH1 0x20 ADD SWAP1 DUP2 MSTORE PUSH1 0x20 ADD PUSH1 0x0 KECCAK256 DUP3 DUP2 SLOAD DUP2 LT PUSH2 0x23A9 JUMPI PUSH2 0x23A8 PUSH2 0x494E JUMP JUMPDEST JUMPDEST SWAP1 PUSH1 0x0 MSTORE PUSH1 0x20 PUSH1 0x0 KECCAK256 ADD PUSH1 0x0 PUSH2 0x100 EXP DUP2 SLOAD DUP2 PUSH20 0xFFFFFFFFFFFFFFFFFFFFFFFFFFFFFFFFFFFFFFFF MUL NOT AND SWAP1 DUP4 PUSH20 0xFFFFFFFFFFFFFFFFFFFFFFFFFFFFFFFFFFFFFFFF AND MUL OR SWAP1 SSTORE POP PUSH1 0x4 PUSH1 0x0 DUP4 PUSH1 0xFF AND PUSH1 0xFF AND DUP2 MSTORE PUSH1 0x20 ADD SWAP1 DUP2 MSTORE PUSH1 0x20 ADD PUSH1 0x0 KECCAK256 DUP1 SLOAD DUP1 PUSH2 0x241A JUMPI PUSH2 0x2419 PUSH2 0x51BC JUMP JUMPDEST JUMPDEST PUSH1 0x1 SWAP1 SUB DUP2 DUP2 SWAP1 PUSH1 0x0 MSTORE PUSH1 0x20 PUSH1 0x0 KECCAK256 ADD PUSH1 0x0 PUSH2 0x100 EXP DUP2 SLOAD SWAP1 PUSH20 0xFFFFFFFFFFFFFFFFFFFFFFFFFFFFFFFFFFFFFFFF MUL NOT AND SWAP1 SSTORE SWAP1 SSTORE PUSH2 0x2467 JUMP JUMPDEST DUP1 DUP1 PUSH2 0x245F SWAP1 PUSH2 0x4906 JUMP JUMPDEST SWAP2 POP POP PUSH2 0x2254 JUMP JUMPDEST POP PUSH1 0x0 DUP1 PUSH2 0x2474 CALLER PUSH2 0x3367 JUMP JUMPDEST SWAP2 POP SWAP2 POP PUSH1 0x0 PUSH1 0x7 PUSH1 0x0 DUP5 PUSH1 0xFF AND PUSH1 0xFF AND DUP2 MSTORE PUSH1 0x20 ADD SWAP1 DUP2 MSTORE PUSH1 0x20 ADD PUSH1 0x0 KECCAK256 PUSH1 0x0 DUP4 PUSH1 0xFF AND PUSH1 0xFF AND DUP2 MSTORE PUSH1 0x20 ADD SWAP1 DUP2 MSTORE PUSH1 0x20 ADD PUSH1 0x0 KECCAK256 PUSH1 0x0 PUSH2 0x100 EXP DUP2 SLOAD DUP2 PUSH1 0xFF MUL NOT AND SWAP1 DUP4 PUSH1 0xFF AND MUL OR SWAP1 SSTORE POP PUSH32 0x45C35F53284761DC1375DA434DFC7EC6A908FD346CB7EF4B10B8A75D6CB83752 DUP4 CALLER PUSH1 0x40 MLOAD PUSH2 0x24F3 SWAP3 SWAP2 SWAP1 PUSH2 0x4BBF JUMP JUMPDEST PUSH1 0x40 MLOAD DUP1 SWAP2 SUB SWAP1 LOG1 POP POP POP JUMP JUMPDEST PUSH2 0x2509 CALLER PUSH2 0x3239 JUMP JUMPDEST PUSH2 0x2548 JUMPI PUSH1 0x40 MLOAD PUSH32 0x8C379A000000000000000000000000000000000000000000000000000000000 DUP2 MSTORE PUSH1 0x4 ADD PUSH2 0x253F SWAP1 PUSH2 0x4638 JUMP JUMPDEST PUSH1 0x40 MLOAD DUP1 SWAP2 SUB SWAP1 REVERT JUMPDEST PUSH1 0x0 PUSH1 0x5 PUSH1 0x0 CALLER PUSH20 0xFFFFFFFFFFFFFFFFFFFFFFFFFFFFFFFFFFFFFFFF AND PUSH20 0xFFFFFFFFFFFFFFFFFFFFFFFFFFFFFFFFFFFFFFFF AND DUP2 MSTORE PUSH1 0x20 ADD SWAP1 DUP2 MSTORE PUSH1 0x20 ADD PUSH1 0x0 KECCAK256 PUSH1 0x0 SWAP1 SLOAD SWAP1 PUSH2 0x100 EXP SWAP1 DIV PUSH1 0xFF AND SWAP1 POP PUSH1 0x0 DUP2 PUSH1 0xFF AND GT PUSH2 0x25DF JUMPI PUSH1 0x40 MLOAD PUSH32 0x8C379A000000000000000000000000000000000000000000000000000000000 DUP2 MSTORE PUSH1 0x4 ADD PUSH2 0x25D6 SWAP1 PUSH2 0x5237 JUMP JUMPDEST PUSH1 0x40 MLOAD DUP1 SWAP2 SUB SWAP1 REVERT JUMPDEST PUSH1 0x3 PUSH1 0x0 CALLER PUSH20 0xFFFFFFFFFFFFFFFFFFFFFFFFFFFFFFFFFFFFFFFF AND PUSH20 0xFFFFFFFFFFFFFFFFFFFFFFFFFFFFFFFFFFFFFFFF AND DUP2 MSTORE PUSH1 0x20 ADD SWAP1 DUP2 MSTORE PUSH1 0x20 ADD PUSH1 0x0 KECCAK256 PUSH1 0x0 ADD PUSH1 0x1 SWAP1 SLOAD SWAP1 PUSH2 0x100 EXP SWAP1 DIV PUSH1 0xFF AND ISZERO PUSH2 0x266F JUMPI PUSH1 0x40 MLOAD PUSH32 0x8C379A000000000000000000000000000000000000000000000000000000000 DUP2 MSTORE PUSH1 0x4 ADD PUSH2 0x2666 SWAP1 PUSH2 0x4710 JUMP JUMPDEST PUSH1 0x40 MLOAD DUP1 SWAP2 SUB SWAP1 REVERT JUMPDEST PUSH1 0x1E PUSH1 0xFF AND PUSH1 0x2 PUSH1 0x0 DUP4 PUSH1 0xFF AND PUSH1 0xFF AND DUP2 MSTORE PUSH1 0x20 ADD SWAP1 DUP2 MSTORE PUSH1 0x20 ADD PUSH1 0x0 KECCAK256 PUSH1 0x1 ADD PUSH1 0x14 SWAP1 SLOAD SWAP1 PUSH2 0x100 EXP SWAP1 DIV PUSH1 0xFF AND PUSH1 0xFF AND LT PUSH2 0x26FB JUMPI PUSH1 0x5 PUSH1 0x0 CALLER PUSH20 0xFFFFFFFFFFFFFFFFFFFFFFFFFFFFFFFFFFFFFFFF AND PUSH20 0xFFFFFFFFFFFFFFFFFFFFFFFFFFFFFFFFFFFFFFFF AND DUP2 MSTORE PUSH1 0x20 ADD SWAP1 DUP2 MSTORE PUSH1 0x20 ADD PUSH1 0x0 KECCAK256 PUSH1 0x0 PUSH2 0x100 EXP DUP2 SLOAD SWAP1 PUSH1 0xFF MUL NOT AND SWAP1 SSTORE POP PUSH2 0x294A JUMP JUMPDEST PUSH1 0x40 MLOAD DUP1 PUSH1 0x40 ADD PUSH1 0x40 MSTORE DUP1 DUP3 PUSH1 0xFF AND DUP2 MSTORE PUSH1 0x20 ADD PUSH1 0x1 ISZERO ISZERO DUP2 MSTORE POP PUSH1 0x3 PUSH1 0x0 CALLER PUSH20 0xFFFFFFFFFFFFFFFFFFFFFFFFFFFFFFFFFFFFFFFF AND PUSH20 0xFFFFFFFFFFFFFFFFFFFFFFFFFFFFFFFFFFFFFFFF AND DUP2 MSTORE PUSH1 0x20 ADD SWAP1 DUP2 MSTORE PUSH1 0x20 ADD PUSH1 0x0 KECCAK256 PUSH1 0x0 DUP3 ADD MLOAD DUP2 PUSH1 0x0 ADD PUSH1 0x0 PUSH2 0x100 EXP DUP2 SLOAD DUP2 PUSH1 0xFF MUL NOT AND SWAP1 DUP4 PUSH1 0xFF AND MUL OR SWAP1 SSTORE POP PUSH1 0x20 DUP3 ADD MLOAD DUP2 PUSH1 0x0 ADD PUSH1 0x1 PUSH2 0x100 EXP DUP2 SLOAD DUP2 PUSH1 0xFF MUL NOT AND SWAP1 DUP4 ISZERO ISZERO MUL OR SWAP1 SSTORE POP SWAP1 POP POP PUSH1 0x4 PUSH1 0x0 DUP3 PUSH1 0xFF AND PUSH1 0xFF AND DUP2 MSTORE PUSH1 0x20 ADD SWAP1 DUP2 MSTORE PUSH1 0x20 ADD PUSH1 0x0 KECCAK256 CALLER SWAP1 DUP1 PUSH1 0x1 DUP2 SLOAD ADD DUP1 DUP3 SSTORE DUP1 SWAP2 POP POP PUSH1 0x1 SWAP1 SUB SWAP1 PUSH1 0x0 MSTORE PUSH1 0x20 PUSH1 0x0 KECCAK256 ADD PUSH1 0x0 SWAP1 SWAP2 SWAP1 SWAP2 SWAP1 SWAP2 PUSH2 0x100 EXP DUP2 SLOAD DUP2 PUSH20 0xFFFFFFFFFFFFFFFFFFFFFFFFFFFFFFFFFFFFFFFF MUL NOT AND SWAP1 DUP4 PUSH20 0xFFFFFFFFFFFFFFFFFFFFFFFFFFFFFFFFFFFFFFFF AND MUL OR SWAP1 SSTORE POP PUSH1 0x2 PUSH1 0x0 DUP3 PUSH1 0xFF AND PUSH1 0xFF AND DUP2 MSTORE PUSH1 0x20 ADD SWAP1 DUP2 MSTORE PUSH1 0x20 ADD PUSH1 0x0 KECCAK256 PUSH1 0x1 ADD PUSH1 0x14 DUP2 DUP2 SWAP1 SLOAD SWAP1 PUSH2 0x100 EXP SWAP1 DIV PUSH1 0xFF AND DUP1 SWAP3 SWAP2 SWAP1 PUSH2 0x284C SWAP1 PUSH2 0x47CB JUMP JUMPDEST SWAP2 SWAP1 PUSH2 0x100 EXP DUP2 SLOAD DUP2 PUSH1 0xFF MUL NOT AND SWAP1 DUP4 PUSH1 0xFF AND MUL OR SWAP1 SSTORE POP POP PUSH1 0x0 DUP1 PUSH2 0x2871 CALLER PUSH2 0x3367 JUMP JUMPDEST SWAP2 POP SWAP2 POP DUP3 PUSH1 0x7 PUSH1 0x0 DUP5 PUSH1 0xFF AND PUSH1 0xFF AND DUP2 MSTORE PUSH1 0x20 ADD SWAP1 DUP2 MSTORE PUSH1 0x20 ADD PUSH1 0x0 KECCAK256 PUSH1 0x0 DUP4 PUSH1 0xFF AND PUSH1 0xFF AND DUP2 MSTORE PUSH1 0x20 ADD SWAP1 DUP2 MSTORE PUSH1 0x20 ADD PUSH1 0x0 KECCAK256 PUSH1 0x0 PUSH2 0x100 EXP DUP2 SLOAD DUP2 PUSH1 0xFF MUL NOT AND SWAP1 DUP4 PUSH1 0xFF AND MUL OR SWAP1 SSTORE POP PUSH1 0x5 PUSH1 0x0 CALLER PUSH20 0xFFFFFFFFFFFFFFFFFFFFFFFFFFFFFFFFFFFFFFFF AND PUSH20 0xFFFFFFFFFFFFFFFFFFFFFFFFFFFFFFFFFFFFFFFF AND DUP2 MSTORE PUSH1 0x20 ADD SWAP1 DUP2 MSTORE PUSH1 0x20 ADD PUSH1 0x0 KECCAK256 PUSH1 0x0 PUSH2 0x100 EXP DUP2 SLOAD SWAP1 PUSH1 0xFF MUL NOT AND SWAP1 SSTORE PUSH32 0xC5E51B833A5E5ECFBBCB0D5586D2B0AB450B38D9B32D440CB37F37CC30DE6874 DUP4 CALLER PUSH1 0x40 MLOAD PUSH2 0x293E SWAP3 SWAP2 SWAP1 PUSH2 0x4BBF JUMP JUMPDEST PUSH1 0x40 MLOAD DUP1 SWAP2 SUB SWAP1 LOG1 POP POP POP JUMPDEST JUMP JUMPDEST DUP1 CALLER PUSH20 0xFFFFFFFFFFFFFFFFFFFFFFFFFFFFFFFFFFFFFFFF AND PUSH1 0x2 PUSH1 0x0 DUP4 PUSH1 0xFF AND PUSH1 0xFF AND DUP2 MSTORE PUSH1 0x20 ADD SWAP1 DUP2 MSTORE PUSH1 0x20 ADD PUSH1 0x0 KECCAK256 PUSH1 0x1 ADD PUSH1 0x0 SWAP1 SLOAD SWAP1 PUSH2 0x100 EXP SWAP1 DIV PUSH20 0xFFFFFFFFFFFFFFFFFFFFFFFFFFFFFFFFFFFFFFFF AND PUSH20 0xFFFFFFFFFFFFFFFFFFFFFFFFFFFFFFFFFFFFFFFF AND EQ PUSH2 0x29F7 JUMPI PUSH1 0x40 MLOAD PUSH32 0x8C379A000000000000000000000000000000000000000000000000000000000 DUP2 MSTORE PUSH1 0x4 ADD PUSH2 0x29EE SWAP1 PUSH2 0x49EF JUMP JUMPDEST PUSH1 0x40 MLOAD DUP1 SWAP2 SUB SWAP1 REVERT JUMPDEST PUSH1 0x2 PUSH1 0x0 DUP4 PUSH1 0xFF AND PUSH1 0xFF AND DUP2 MSTORE PUSH1 0x20 ADD SWAP1 DUP2 MSTORE PUSH1 0x20 ADD PUSH1 0x0 KECCAK256 PUSH1 0x1 ADD PUSH1 0x15 SWAP1 SLOAD SWAP1 PUSH2 0x100 EXP SWAP1 DIV PUSH1 0xFF AND PUSH2 0x2A60 JUMPI PUSH1 0x40 MLOAD PUSH32 0x8C379A000000000000000000000000000000000000000000000000000000000 DUP2 MSTORE PUSH1 0x4 ADD PUSH2 0x2A57 SWAP1 PUSH2 0x4A5B JUMP JUMPDEST PUSH1 0x40 MLOAD DUP1 SWAP2 SUB SWAP1 REVERT JUMPDEST PUSH1 0x0 JUMPDEST PUSH1 0x4 PUSH1 0x0 DUP5 PUSH1 0xFF AND PUSH1 0xFF AND DUP2 MSTORE PUSH1 0x20 ADD SWAP1 DUP2 MSTORE PUSH1 0x20 ADD PUSH1 0x0 KECCAK256 DUP1 SLOAD SWAP1 POP DUP2 LT ISZERO PUSH2 0x2BAC JUMPI PUSH1 0x0 PUSH1 0x4 PUSH1 0x0 DUP6 PUSH1 0xFF AND PUSH1 0xFF AND DUP2 MSTORE PUSH1 0x20 ADD SWAP1 DUP2 MSTORE PUSH1 0x20 ADD PUSH1 0x0 KECCAK256 DUP3 DUP2 SLOAD DUP2 LT PUSH2 0x2AB4 JUMPI PUSH2 0x2AB3 PUSH2 0x494E JUMP JUMPDEST JUMPDEST SWAP1 PUSH1 0x0 MSTORE PUSH1 0x20 PUSH1 0x0 KECCAK256 ADD PUSH1 0x0 SWAP1 SLOAD SWAP1 PUSH2 0x100 EXP SWAP1 DIV PUSH20 0xFFFFFFFFFFFFFFFFFFFFFFFFFFFFFFFFFFFFFFFF AND SWAP1 POP PUSH1 0x0 PUSH1 0x3 PUSH1 0x0 DUP4 PUSH20 0xFFFFFFFFFFFFFFFFFFFFFFFFFFFFFFFFFFFFFFFF AND PUSH20 0xFFFFFFFFFFFFFFFFFFFFFFFFFFFFFFFFFFFFFFFF AND DUP2 MSTORE PUSH1 0x20 ADD SWAP1 DUP2 MSTORE PUSH1 0x20 ADD PUSH1 0x0 KECCAK256 PUSH1 0x0 ADD PUSH1 0x1 PUSH2 0x100 EXP DUP2 SLOAD DUP2 PUSH1 0xFF MUL NOT AND SWAP1 DUP4 ISZERO ISZERO MUL OR SWAP1 SSTORE POP PUSH1 0x0 DUP1 PUSH2 0x2B48 DUP4 PUSH2 0x3367 JUMP JUMPDEST SWAP2 POP SWAP2 POP PUSH1 0x0 PUSH1 0x7 PUSH1 0x0 DUP5 PUSH1 0xFF AND PUSH1 0xFF AND DUP2 MSTORE PUSH1 0x20 ADD SWAP1 DUP2 MSTORE PUSH1 0x20 ADD PUSH1 0x0 KECCAK256 PUSH1 0x0 DUP4 PUSH1 0xFF AND PUSH1 0xFF AND DUP2 MSTORE PUSH1 0x20 ADD SWAP1 DUP2 MSTORE PUSH1 0x20 ADD PUSH1 0x0 KECCAK256 PUSH1 0x0 PUSH2 0x100 EXP DUP2 SLOAD DUP2 PUSH1 0xFF MUL NOT AND SWAP1 DUP4 PUSH1 0xFF AND MUL OR SWAP1 SSTORE POP POP POP POP DUP1 DUP1 PUSH2 0x2BA4 SWAP1 PUSH2 0x4906 JUMP JUMPDEST SWAP2 POP POP PUSH2 0x2A63 JUMP JUMPDEST POP PUSH1 0x4 PUSH1 0x0 DUP4 PUSH1 0xFF AND PUSH1 0xFF AND DUP2 MSTORE PUSH1 0x20 ADD SWAP1 DUP2 MSTORE PUSH1 0x20 ADD PUSH1 0x0 KECCAK256 PUSH1 0x0 PUSH2 0x2BD2 SWAP2 SWAP1 PUSH2 0x353F JUMP JUMPDEST PUSH1 0x2 PUSH1 0x0 DUP4 PUSH1 0xFF AND PUSH1 0xFF AND DUP2 MSTORE PUSH1 0x20 ADD SWAP1 DUP2 MSTORE PUSH1 0x20 ADD PUSH1 0x0 KECCAK256 PUSH1 0x0 DUP1 DUP3 ADD PUSH1 0x0 PUSH2 0x2BFC SWAP2 SWAP1 PUSH2 0x3560 JUMP JUMPDEST PUSH1 0x1 DUP3 ADD PUSH1 0x0 PUSH2 0x100 EXP DUP2 SLOAD SWAP1 PUSH20 0xFFFFFFFFFFFFFFFFFFFFFFFFFFFFFFFFFFFFFFFF MUL NOT AND SWAP1 SSTORE PUSH1 0x1 DUP3 ADD PUSH1 0x14 PUSH2 0x100 EXP DUP2 SLOAD SWAP1 PUSH1 0xFF MUL NOT AND SWAP1 SSTORE PUSH1 0x1 DUP3 ADD PUSH1 0x15 PUSH2 0x100 EXP DUP2 SLOAD SWAP1 PUSH1 0xFF MUL NOT AND SWAP1 SSTORE POP POP PUSH32 0xF010A46A390DEAAAB5CC4BD6BD1242CCC401C860A7B758C8A71C6EA769287D34 DUP3 CALLER PUSH1 0x40 MLOAD PUSH2 0x2C7E SWAP3 SWAP2 SWAP1 PUSH2 0x4BBF JUMP JUMPDEST PUSH1 0x40 MLOAD DUP1 SWAP2 SUB SWAP1 LOG1 POP POP JUMP JUMPDEST DUP2 CALLER PUSH20 0xFFFFFFFFFFFFFFFFFFFFFFFFFFFFFFFFFFFFFFFF AND PUSH1 0x2 PUSH1 0x0 DUP4 PUSH1 0xFF AND PUSH1 0xFF AND DUP2 MSTORE PUSH1 0x20 ADD SWAP1 DUP2 MSTORE PUSH1 0x20 ADD PUSH1 0x0 KECCAK256 PUSH1 0x1 ADD PUSH1 0x0 SWAP1 SLOAD SWAP1 PUSH2 0x100 EXP SWAP1 DIV PUSH20 0xFFFFFFFFFFFFFFFFFFFFFFFFFFFFFFFFFFFFFFFF AND PUSH20 0xFFFFFFFFFFFFFFFFFFFFFFFFFFFFFFFFFFFFFFFF AND EQ PUSH2 0x2D35 JUMPI PUSH1 0x40 MLOAD PUSH32 0x8C379A000000000000000000000000000000000000000000000000000000000 DUP2 MSTORE PUSH1 0x4 ADD PUSH2 0x2D2C SWAP1 PUSH2 0x49EF JUMP JUMPDEST PUSH1 0x40 MLOAD DUP1 SWAP2 SUB SWAP1 REVERT JUMPDEST DUP3 PUSH1 0xFF AND PUSH1 0x3 PUSH1 0x0 DUP5 PUSH20 0xFFFFFFFFFFFFFFFFFFFFFFFFFFFFFFFFFFFFFFFF AND PUSH20 0xFFFFFFFFFFFFFFFFFFFFFFFFFFFFFFFFFFFFFFFF AND DUP2 MSTORE PUSH1 0x20 ADD SWAP1 DUP2 MSTORE PUSH1 0x20 ADD PUSH1 0x0 KECCAK256 PUSH1 0x0 ADD PUSH1 0x0 SWAP1 SLOAD SWAP1 PUSH2 0x100 EXP SWAP1 DIV PUSH1 0xFF AND PUSH1 0xFF AND EQ PUSH2 0x2DCC JUMPI PUSH1 0x40 MLOAD PUSH32 0x8C379A000000000000000000000000000000000000000000000000000000000 DUP2 MSTORE PUSH1 0x4 ADD PUSH2 0x2DC3 SWAP1 PUSH2 0x52A3 JUMP JUMPDEST PUSH1 0x40 MLOAD DUP1 SWAP2 SUB SWAP1 REVERT JUMPDEST PUSH1 0x0 PUSH1 0x3 PUSH1 0x0 DUP5 PUSH20 0xFFFFFFFFFFFFFFFFFFFFFFFFFFFFFFFFFFFFFFFF AND PUSH20 0xFFFFFFFFFFFFFFFFFFFFFFFFFFFFFFFFFFFFFFFF AND DUP2 MSTORE PUSH1 0x20 ADD SWAP1 DUP2 MSTORE PUSH1 0x20 ADD PUSH1 0x0 KECCAK256 PUSH1 0x0 ADD PUSH1 0x1 PUSH2 0x100 EXP DUP2 SLOAD DUP2 PUSH1 0xFF MUL NOT AND SWAP1 DUP4 ISZERO ISZERO MUL OR SWAP1 SSTORE POP PUSH1 0x2 PUSH1 0x0 DUP5 PUSH1 0xFF AND PUSH1 0xFF AND DUP2 MSTORE PUSH1 0x20 ADD SWAP1 DUP2 MSTORE PUSH1 0x20 ADD PUSH1 0x0 KECCAK256 PUSH1 0x1 ADD PUSH1 0x14 DUP2 DUP2 SWAP1 SLOAD SWAP1 PUSH2 0x100 EXP SWAP1 DIV PUSH1 0xFF AND DUP1 SWAP3 SWAP2 SWAP1 PUSH2 0x2E60 SWAP1 PUSH2 0x515F JUMP JUMPDEST SWAP2 SWAP1 PUSH2 0x100 EXP DUP2 SLOAD DUP2 PUSH1 0xFF MUL NOT AND SWAP1 DUP4 PUSH1 0xFF AND MUL OR SWAP1 SSTORE POP POP PUSH1 0x0 JUMPDEST PUSH1 0x4 PUSH1 0x0 DUP6 PUSH1 0xFF AND PUSH1 0xFF AND DUP2 MSTORE PUSH1 0x20 ADD SWAP1 DUP2 MSTORE PUSH1 0x20 ADD PUSH1 0x0 KECCAK256 DUP1 SLOAD SWAP1 POP DUP2 LT ISZERO PUSH2 0x308F JUMPI DUP3 PUSH20 0xFFFFFFFFFFFFFFFFFFFFFFFFFFFFFFFFFFFFFFFF AND PUSH1 0x4 PUSH1 0x0 DUP7 PUSH1 0xFF AND PUSH1 0xFF AND DUP2 MSTORE PUSH1 0x20 ADD SWAP1 DUP2 MSTORE PUSH1 0x20 ADD PUSH1 0x0 KECCAK256 DUP3 DUP2 SLOAD DUP2 LT PUSH2 0x2EE2 JUMPI PUSH2 0x2EE1 PUSH2 0x494E JUMP JUMPDEST JUMPDEST SWAP1 PUSH1 0x0 MSTORE PUSH1 0x20 PUSH1 0x0 KECCAK256 ADD PUSH1 0x0 SWAP1 SLOAD SWAP1 PUSH2 0x100 EXP SWAP1 DIV PUSH20 0xFFFFFFFFFFFFFFFFFFFFFFFFFFFFFFFFFFFFFFFF AND PUSH20 0xFFFFFFFFFFFFFFFFFFFFFFFFFFFFFFFFFFFFFFFF AND SUB PUSH2 0x307C JUMPI PUSH1 0x4 PUSH1 0x0 DUP6 PUSH1 0xFF AND PUSH1 0xFF AND DUP2 MSTORE PUSH1 0x20 ADD SWAP1 DUP2 MSTORE PUSH1 0x20 ADD PUSH1 0x0 KECCAK256 PUSH1 0x1 PUSH1 0x4 PUSH1 0x0 DUP8 PUSH1 0xFF AND PUSH1 0xFF AND DUP2 MSTORE PUSH1 0x20 ADD SWAP1 DUP2 MSTORE PUSH1 0x20 ADD PUSH1 0x0 KECCAK256 DUP1 SLOAD SWAP1 POP PUSH2 0x2F6A SWAP2 SWAP1 PUSH2 0x5188 JUMP JUMPDEST DUP2 SLOAD DUP2 LT PUSH2 0x2F7B JUMPI PUSH2 0x2F7A PUSH2 0x494E JUMP JUMPDEST JUMPDEST SWAP1 PUSH1 0x0 MSTORE PUSH1 0x20 PUSH1 0x0 KECCAK256 ADD PUSH1 0x0 SWAP1 SLOAD SWAP1 PUSH2 0x100 EXP SWAP1 DIV PUSH20 0xFFFFFFFFFFFFFFFFFFFFFFFFFFFFFFFFFFFFFFFF AND PUSH1 0x4 PUSH1 0x0 DUP7 PUSH1 0xFF AND PUSH1 0xFF AND DUP2 MSTORE PUSH1 0x20 ADD SWAP1 DUP2 MSTORE PUSH1 0x20 ADD PUSH1 0x0 KECCAK256 DUP3 DUP2 SLOAD DUP2 LT PUSH2 0x2FD1 JUMPI PUSH2 0x2FD0 PUSH2 0x494E JUMP JUMPDEST JUMPDEST SWAP1 PUSH1 0x0 MSTORE PUSH1 0x20 PUSH1 0x0 KECCAK256 ADD PUSH1 0x0 PUSH2 0x100 EXP DUP2 SLOAD DUP2 PUSH20 0xFFFFFFFFFFFFFFFFFFFFFFFFFFFFFFFFFFFFFFFF MUL NOT AND SWAP1 DUP4 PUSH20 0xFFFFFFFFFFFFFFFFFFFFFFFFFFFFFFFFFFFFFFFF AND MUL OR SWAP1 SSTORE POP PUSH1 0x4 PUSH1 0x0 DUP6 PUSH1 0xFF AND PUSH1 0xFF AND DUP2 MSTORE PUSH1 0x20 ADD SWAP1 DUP2 MSTORE PUSH1 0x20 ADD PUSH1 0x0 KECCAK256 DUP1 SLOAD DUP1 PUSH2 0x3042 JUMPI PUSH2 0x3041 PUSH2 0x51BC JUMP JUMPDEST JUMPDEST PUSH1 0x1 SWAP1 SUB DUP2 DUP2 SWAP1 PUSH1 0x0 MSTORE PUSH1 0x20 PUSH1 0x0 KECCAK256 ADD PUSH1 0x0 PUSH2 0x100 EXP DUP2 SLOAD SWAP1 PUSH20 0xFFFFFFFFFFFFFFFFFFFFFFFFFFFFFFFFFFFFFFFF MUL NOT AND SWAP1 SSTORE SWAP1 SSTORE PUSH2 0x308F JUMP JUMPDEST DUP1 DUP1 PUSH2 0x3087 SWAP1 PUSH2 0x4906 JUMP JUMPDEST SWAP2 POP POP PUSH2 0x2E7C JUMP JUMPDEST POP PUSH1 0x0 DUP1 PUSH2 0x309C DUP5 PUSH2 0x3367 JUMP JUMPDEST SWAP2 POP SWAP2 POP PUSH1 0x0 PUSH1 0x7 PUSH1 0x0 DUP5 PUSH1 0xFF AND PUSH1 0xFF AND DUP2 MSTORE PUSH1 0x20 ADD SWAP1 DUP2 MSTORE PUSH1 0x20 ADD PUSH1 0x0 KECCAK256 PUSH1 0x0 DUP4 PUSH1 0xFF AND PUSH1 0xFF AND DUP2 MSTORE PUSH1 0x20 ADD SWAP1 DUP2 MSTORE PUSH1 0x20 ADD PUSH1 0x0 KECCAK256 PUSH1 0x0 PUSH2 0x100 EXP DUP2 SLOAD DUP2 PUSH1 0xFF MUL NOT AND SWAP1 DUP4 PUSH1 0xFF AND MUL OR SWAP1 SSTORE POP PUSH32 0x45C35F53284761DC1375DA434DFC7EC6A908FD346CB7EF4B10B8A75D6CB83752 DUP6 DUP6 PUSH1 0x40 MLOAD PUSH2 0x311B SWAP3 SWAP2 SWAP1 PUSH2 0x4BBF JUMP JUMPDEST PUSH1 0x40 MLOAD DUP1 SWAP2 SUB SWAP1 LOG1 POP POP POP POP POP JUMP JUMPDEST PUSH1 0x2 PUSH1 0x20 MSTORE DUP1 PUSH1 0x0 MSTORE PUSH1 0x40 PUSH1 0x0 KECCAK256 PUSH1 0x0 SWAP2 POP SWAP1 POP DUP1 PUSH1 0x0 ADD DUP1 SLOAD PUSH2 0x314D SWAP1 PUSH2 0x42A7 JUMP JUMPDEST DUP1 PUSH1 0x1F ADD PUSH1 0x20 DUP1 SWAP2 DIV MUL PUSH1 0x20 ADD PUSH1 0x40 MLOAD SWAP1 DUP2 ADD PUSH1 0x40 MSTORE DUP1 SWAP3 SWAP2 SWAP1 DUP2 DUP2 MSTORE PUSH1 0x20 ADD DUP3 DUP1 SLOAD PUSH2 0x3179 SWAP1 PUSH2 0x42A7 JUMP JUMPDEST DUP1 ISZERO PUSH2 0x31C6 JUMPI DUP1 PUSH1 0x1F LT PUSH2 0x319B JUMPI PUSH2 0x100 DUP1 DUP4 SLOAD DIV MUL DUP4 MSTORE SWAP2 PUSH1 0x20 ADD SWAP2 PUSH2 0x31C6 JUMP JUMPDEST DUP3 ADD SWAP2 SWAP1 PUSH1 0x0 MSTORE PUSH1 0x20 PUSH1 0x0 KECCAK256 SWAP1 JUMPDEST DUP2 SLOAD DUP2 MSTORE SWAP1 PUSH1 0x1 ADD SWAP1 PUSH1 0x20 ADD DUP1 DUP4 GT PUSH2 0x31A9 JUMPI DUP3 SWAP1 SUB PUSH1 0x1F AND DUP3 ADD SWAP2 JUMPDEST POP POP POP POP POP SWAP1 DUP1 PUSH1 0x1 ADD PUSH1 0x0 SWAP1 SLOAD SWAP1 PUSH2 0x100 EXP SWAP1 DIV PUSH20 0xFFFFFFFFFFFFFFFFFFFFFFFFFFFFFFFFFFFFFFFF AND SWAP1 DUP1 PUSH1 0x1 ADD PUSH1 0x14 SWAP1 SLOAD SWAP1 PUSH2 0x100 EXP SWAP1 DIV PUSH1 0xFF AND SWAP1 DUP1 PUSH1 0x1 ADD PUSH1 0x15 SWAP1 SLOAD SWAP1 PUSH2 0x100 EXP SWAP1 DIV PUSH1 0xFF AND SWAP1 POP DUP5 JUMP JUMPDEST PUSH1 0x1E DUP2 JUMP JUMPDEST PUSH1 0x9 PUSH1 0x20 MSTORE DUP1 PUSH1 0x0 MSTORE PUSH1 0x40 PUSH1 0x0 KECCAK256 PUSH1 0x0 SWAP2 POP SWAP1 POP SLOAD DUP2 JUMP JUMPDEST PUSH1 0x0 DUP1 PUSH1 0x0 SWAP1 POP JUMPDEST PUSH1 0x14 DUP2 PUSH1 0xFF AND LT ISZERO PUSH2 0x335C JUMPI PUSH1 0x0 JUMPDEST PUSH1 0x14 DUP2 PUSH1 0xFF AND LT ISZERO PUSH2 0x3348 JUMPI DUP4 PUSH20 0xFFFFFFFFFFFFFFFFFFFFFFFFFFFFFFFFFFFFFFFF AND PUSH1 0x0 DUP1 SLOAD SWAP1 PUSH2 0x100 EXP SWAP1 DIV PUSH20 0xFFFFFFFFFFFFFFFFFFFFFFFFFFFFFFFFFFFFFFFF AND PUSH20 0xFFFFFFFFFFFFFFFFFFFFFFFFFFFFFFFFFFFFFFFF AND PUSH4 0x8A888953 DUP5 DUP5 PUSH1 0x40 MLOAD DUP4 PUSH4 0xFFFFFFFF AND PUSH1 0xE0 SHL DUP2 MSTORE PUSH1 0x4 ADD PUSH2 0x32CE SWAP3 SWAP2 SWAP1 PUSH2 0x4045 JUMP JUMPDEST PUSH1 0x20 PUSH1 0x40 MLOAD DUP1 DUP4 SUB DUP2 DUP7 GAS STATICCALL ISZERO DUP1 ISZERO PUSH2 0x32EB JUMPI RETURNDATASIZE PUSH1 0x0 DUP1 RETURNDATACOPY RETURNDATASIZE PUSH1 0x0 REVERT JUMPDEST POP POP POP POP PUSH1 0x40 MLOAD RETURNDATASIZE PUSH1 0x1F NOT PUSH1 0x1F DUP3 ADD AND DUP3 ADD DUP1 PUSH1 0x40 MSTORE POP DUP2 ADD SWAP1 PUSH2 0x330F SWAP2 SWAP1 PUSH2 0x4083 JUMP JUMPDEST PUSH20 0xFFFFFFFFFFFFFFFFFFFFFFFFFFFFFFFFFFFFFFFF AND SUB PUSH2 0x3335 JUMPI PUSH1 0x1 SWAP3 POP POP POP PUSH2 0x3362 JUMP JUMPDEST DUP1 DUP1 PUSH2 0x3340 SWAP1 PUSH2 0x47CB JUMP JUMPDEST SWAP2 POP POP PUSH2 0x3250 JUMP JUMPDEST POP DUP1 DUP1 PUSH2 0x3354 SWAP1 PUSH2 0x47CB JUMP JUMPDEST SWAP2 POP POP PUSH2 0x3241 JUMP JUMPDEST POP PUSH1 0x0 SWAP1 POP JUMPDEST SWAP2 SWAP1 POP JUMP JUMPDEST PUSH1 0x0 DUP1 PUSH1 0x0 JUMPDEST PUSH1 0x14 DUP2 PUSH1 0xFF AND LT ISZERO PUSH2 0x348A JUMPI PUSH1 0x0 JUMPDEST PUSH1 0x14 DUP2 PUSH1 0xFF AND LT ISZERO PUSH2 0x3476 JUMPI DUP5 PUSH20 0xFFFFFFFFFFFFFFFFFFFFFFFFFFFFFFFFFFFFFFFF AND PUSH1 0x0 DUP1 SLOAD SWAP1 PUSH2 0x100 EXP SWAP1 DIV PUSH20 0xFFFFFFFFFFFFFFFFFFFFFFFFFFFFFFFFFFFFFFFF AND PUSH20 0xFFFFFFFFFFFFFFFFFFFFFFFFFFFFFFFFFFFFFFFF AND PUSH4 0x8A888953 DUP5 DUP5 PUSH1 0x40 MLOAD DUP4 PUSH4 0xFFFFFFFF AND PUSH1 0xE0 SHL DUP2 MSTORE PUSH1 0x4 ADD PUSH2 0x33FA SWAP3 SWAP2 SWAP1 PUSH2 0x4045 JUMP JUMPDEST PUSH1 0x20 PUSH1 0x40 MLOAD DUP1 DUP4 SUB DUP2 DUP7 GAS STATICCALL ISZERO DUP1 ISZERO PUSH2 0x3417 JUMPI RETURNDATASIZE PUSH1 0x0 DUP1 RETURNDATACOPY RETURNDATASIZE PUSH1 0x0 REVERT JUMPDEST POP POP POP POP PUSH1 0x40 MLOAD RETURNDATASIZE PUSH1 0x1F NOT PUSH1 0x1F DUP3 ADD AND DUP3 ADD DUP1 PUSH1 0x40 MSTORE POP DUP2 ADD SWAP1 PUSH2 0x343B SWAP2 SWAP1 PUSH2 0x4083 JUMP JUMPDEST PUSH20 0xFFFFFFFFFFFFFFFFFFFFFFFFFFFFFFFFFFFFFFFF AND SUB PUSH2 0x3463 JUMPI DUP2 DUP2 SWAP4 POP SWAP4 POP POP POP PUSH2 0x34C6 JUMP JUMPDEST DUP1 DUP1 PUSH2 0x346E SWAP1 PUSH2 0x47CB JUMP JUMPDEST SWAP2 POP POP PUSH2 0x337C JUMP JUMPDEST POP DUP1 DUP1 PUSH2 0x3482 SWAP1 PUSH2 0x47CB JUMP JUMPDEST SWAP2 POP POP PUSH2 0x336D JUMP JUMPDEST POP PUSH1 0x40 MLOAD PUSH32 0x8C379A000000000000000000000000000000000000000000000000000000000 DUP2 MSTORE PUSH1 0x4 ADD PUSH2 0x34BD SWAP1 PUSH2 0x530F JUMP JUMPDEST PUSH1 0x40 MLOAD DUP1 SWAP2 SUB SWAP1 REVERT JUMPDEST SWAP2 POP SWAP2 JUMP JUMPDEST PUSH1 0x40 MLOAD DUP1 PUSH1 0x80 ADD PUSH1 0x40 MSTORE DUP1 PUSH1 0x0 PUSH1 0xFF AND DUP2 MSTORE PUSH1 0x20 ADD PUSH1 0x0 PUSH1 0xFF AND DUP2 MSTORE PUSH1 0x20 ADD PUSH1 0x0 PUSH1 0xFF AND DUP2 MSTORE PUSH1 0x20 ADD PUSH1 0x0 DUP2 MSTORE POP SWAP1 JUMP JUMPDEST PUSH1 0x40 MLOAD DUP1 PUSH1 0x80 ADD PUSH1 0x40 MSTORE DUP1 PUSH1 0x60 DUP2 MSTORE PUSH1 0x20 ADD PUSH1 0x0 PUSH20 0xFFFFFFFFFFFFFFFFFFFFFFFFFFFFFFFFFFFFFFFF AND DUP2 MSTORE PUSH1 0x20 ADD PUSH1 0x0 PUSH1 0xFF AND DUP2 MSTORE PUSH1 0x20 ADD PUSH1 0x0 ISZERO ISZERO DUP2 MSTORE POP SWAP1 JUMP JUMPDEST POP DUP1 SLOAD PUSH1 0x0 DUP3 SSTORE SWAP1 PUSH1 0x0 MSTORE PUSH1 0x20 PUSH1 0x0 KECCAK256 SWAP1 DUP2 ADD SWAP1 PUSH2 0x355D SWAP2 SWAP1 PUSH2 0x35A0 JUMP JUMPDEST POP JUMP JUMPDEST POP DUP1 SLOAD PUSH2 0x356C SWAP1 PUSH2 0x42A7 JUMP JUMPDEST PUSH1 0x0 DUP3 SSTORE DUP1 PUSH1 0x1F LT PUSH2 0x357E JUMPI POP PUSH2 0x359D JUMP JUMPDEST PUSH1 0x1F ADD PUSH1 0x20 SWAP1 DIV SWAP1 PUSH1 0x0 MSTORE PUSH1 0x20 PUSH1 0x0 KECCAK256 SWAP1 DUP2 ADD SWAP1 PUSH2 0x359C SWAP2 SWAP1 PUSH2 0x35A0 JUMP JUMPDEST JUMPDEST POP JUMP JUMPDEST JUMPDEST DUP1 DUP3 GT ISZERO PUSH2 0x35B9 JUMPI PUSH1 0x0 DUP2 PUSH1 0x0 SWAP1 SSTORE POP PUSH1 0x1 ADD PUSH2 0x35A1 JUMP JUMPDEST POP SWAP1 JUMP JUMPDEST PUSH1 0x0 PUSH1 0x40 MLOAD SWAP1 POP SWAP1 JUMP JUMPDEST PUSH1 0x0 DUP1 REVERT JUMPDEST PUSH1 0x0 DUP1 REVERT JUMPDEST PUSH1 0x0 PUSH1 0xFF DUP3 AND SWAP1 POP SWAP2 SWAP1 POP JUMP JUMPDEST PUSH2 0x35E7 DUP2 PUSH2 0x35D1 JUMP JUMPDEST DUP2 EQ PUSH2 0x35F2 JUMPI PUSH1 0x0 DUP1 REVERT JUMPDEST POP JUMP JUMPDEST PUSH1 0x0 DUP2 CALLDATALOAD SWAP1 POP PUSH2 0x3604 DUP2 PUSH2 0x35DE JUMP JUMPDEST SWAP3 SWAP2 POP POP JUMP JUMPDEST PUSH1 0x0 PUSH1 0x20 DUP3 DUP5 SUB SLT ISZERO PUSH2 0x3620 JUMPI PUSH2 0x361F PUSH2 0x35C7 JUMP JUMPDEST JUMPDEST PUSH1 0x0 PUSH2 0x362E DUP5 DUP3 DUP6 ADD PUSH2 0x35F5 JUMP JUMPDEST SWAP2 POP POP SWAP3 SWAP2 POP POP JUMP JUMPDEST PUSH1 0x0 DUP2 MLOAD SWAP1 POP SWAP2 SWAP1 POP JUMP JUMPDEST PUSH1 0x0 DUP3 DUP3 MSTORE PUSH1 0x20 DUP3 ADD SWAP1 POP SWAP3 SWAP2 POP POP JUMP JUMPDEST PUSH1 0x0 DUP2 SWAP1 POP PUSH1 0x20 DUP3 ADD SWAP1 POP SWAP2 SWAP1 POP JUMP JUMPDEST PUSH1 0x0 PUSH20 0xFFFFFFFFFFFFFFFFFFFFFFFFFFFFFFFFFFFFFFFF DUP3 AND SWAP1 POP SWAP2 SWAP1 POP JUMP JUMPDEST PUSH1 0x0 PUSH2 0x368E DUP3 PUSH2 0x3663 JUMP JUMPDEST SWAP1 POP SWAP2 SWAP1 POP JUMP JUMPDEST PUSH2 0x369E DUP2 PUSH2 0x3683 JUMP JUMPDEST DUP3 MSTORE POP POP JUMP JUMPDEST PUSH1 0x0 PUSH2 0x36B0 DUP4 DUP4 PUSH2 0x3695 JUMP JUMPDEST PUSH1 0x20 DUP4 ADD SWAP1 POP SWAP3 SWAP2 POP POP JUMP JUMPDEST PUSH1 0x0 PUSH1 0x20 DUP3 ADD SWAP1 POP SWAP2 SWAP1 POP JUMP JUMPDEST PUSH1 0x0 PUSH2 0x36D4 DUP3 PUSH2 0x3637 JUMP JUMPDEST PUSH2 0x36DE DUP2 DUP6 PUSH2 0x3642 JUMP JUMPDEST SWAP4 POP PUSH2 0x36E9 DUP4 PUSH2 0x3653 JUMP JUMPDEST DUP1 PUSH1 0x0 JUMPDEST DUP4 DUP2 LT ISZERO PUSH2 0x371A JUMPI DUP2 MLOAD PUSH2 0x3701 DUP9 DUP3 PUSH2 0x36A4 JUMP JUMPDEST SWAP8 POP PUSH2 0x370C DUP4 PUSH2 0x36BC JUMP JUMPDEST SWAP3 POP POP PUSH1 0x1 DUP2 ADD SWAP1 POP PUSH2 0x36ED JUMP JUMPDEST POP DUP6 SWAP4 POP POP POP POP SWAP3 SWAP2 POP POP JUMP JUMPDEST PUSH1 0x0 PUSH1 0x20 DUP3 ADD SWAP1 POP DUP2 DUP2 SUB PUSH1 0x0 DUP4 ADD MSTORE PUSH2 0x3741 DUP2 DUP5 PUSH2 0x36C9 JUMP JUMPDEST SWAP1 POP SWAP3 SWAP2 POP POP JUMP JUMPDEST PUSH1 0x0 DUP1 REVERT JUMPDEST PUSH1 0x0 DUP1 REVERT JUMPDEST PUSH1 0x0 DUP1 REVERT JUMPDEST PUSH1 0x0 DUP1 DUP4 PUSH1 0x1F DUP5 ADD SLT PUSH2 0x376E JUMPI PUSH2 0x376D PUSH2 0x3749 JUMP JUMPDEST JUMPDEST DUP3 CALLDATALOAD SWAP1 POP PUSH8 0xFFFFFFFFFFFFFFFF DUP2 GT ISZERO PUSH2 0x378B JUMPI PUSH2 0x378A PUSH2 0x374E JUMP JUMPDEST JUMPDEST PUSH1 0x20 DUP4 ADD SWAP2 POP DUP4 PUSH1 0x1 DUP3 MUL DUP4 ADD GT ISZERO PUSH2 0x37A7 JUMPI PUSH2 0x37A6 PUSH2 0x3753 JUMP JUMPDEST JUMPDEST SWAP3 POP SWAP3 SWAP1 POP JUMP JUMPDEST PUSH1 0x0 DUP1 PUSH1 0x0 DUP1 PUSH1 0x60 DUP6 DUP8 SUB SLT ISZERO PUSH2 0x37C8 JUMPI PUSH2 0x37C7 PUSH2 0x35C7 JUMP JUMPDEST JUMPDEST PUSH1 0x0 PUSH2 0x37D6 DUP8 DUP3 DUP9 ADD PUSH2 0x35F5 JUMP JUMPDEST SWAP5 POP POP PUSH1 0x20 PUSH2 0x37E7 DUP8 DUP3 DUP9 ADD PUSH2 0x35F5 JUMP JUMPDEST SWAP4 POP POP PUSH1 0x40 DUP6 ADD CALLDATALOAD PUSH8 0xFFFFFFFFFFFFFFFF DUP2 GT ISZERO PUSH2 0x3808 JUMPI PUSH2 0x3807 PUSH2 0x35CC JUMP JUMPDEST JUMPDEST PUSH2 0x3814 DUP8 DUP3 DUP9 ADD PUSH2 0x3758 JUMP JUMPDEST SWAP3 POP SWAP3 POP POP SWAP3 SWAP6 SWAP2 SWAP5 POP SWAP3 POP JUMP JUMPDEST PUSH2 0x382B DUP2 PUSH2 0x3683 JUMP JUMPDEST DUP2 EQ PUSH2 0x3836 JUMPI PUSH1 0x0 DUP1 REVERT JUMPDEST POP JUMP JUMPDEST PUSH1 0x0 DUP2 CALLDATALOAD SWAP1 POP PUSH2 0x3848 DUP2 PUSH2 0x3822 JUMP JUMPDEST SWAP3 SWAP2 POP POP JUMP JUMPDEST PUSH1 0x0 PUSH1 0x20 DUP3 DUP5 SUB SLT ISZERO PUSH2 0x3864 JUMPI PUSH2 0x3863 PUSH2 0x35C7 JUMP JUMPDEST JUMPDEST PUSH1 0x0 PUSH2 0x3872 DUP5 DUP3 DUP6 ADD PUSH2 0x3839 JUMP JUMPDEST SWAP2 POP POP SWAP3 SWAP2 POP POP JUMP JUMPDEST PUSH2 0x3884 DUP2 PUSH2 0x35D1 JUMP JUMPDEST DUP3 MSTORE POP POP JUMP JUMPDEST PUSH1 0x0 DUP2 ISZERO ISZERO SWAP1 POP SWAP2 SWAP1 POP JUMP JUMPDEST PUSH2 0x389F DUP2 PUSH2 0x388A JUMP JUMPDEST DUP3 MSTORE POP POP JUMP JUMPDEST PUSH1 0x0 PUSH1 0x40 DUP3 ADD SWAP1 POP PUSH2 0x38BA PUSH1 0x0 DUP4 ADD DUP6 PUSH2 0x387B JUMP JUMPDEST PUSH2 0x38C7 PUSH1 0x20 DUP4 ADD DUP5 PUSH2 0x3896 JUMP JUMPDEST SWAP4 SWAP3 POP POP POP JUMP JUMPDEST PUSH1 0x0 DUP1 PUSH1 0x40 DUP4 DUP6 SUB SLT ISZERO PUSH2 0x38E5 JUMPI PUSH2 0x38E4 PUSH2 0x35C7 JUMP JUMPDEST JUMPDEST PUSH1 0x0 PUSH2 0x38F3 DUP6 DUP3 DUP7 ADD PUSH2 0x35F5 JUMP JUMPDEST SWAP3 POP POP PUSH1 0x20 PUSH2 0x3904 DUP6 DUP3 DUP7 ADD PUSH2 0x35F5 JUMP JUMPDEST SWAP2 POP POP SWAP3 POP SWAP3 SWAP1 POP JUMP JUMPDEST PUSH1 0x0 DUP2 MLOAD SWAP1 POP SWAP2 SWAP1 POP JUMP JUMPDEST PUSH1 0x0 DUP3 DUP3 MSTORE PUSH1 0x20 DUP3 ADD SWAP1 POP SWAP3 SWAP2 POP POP JUMP JUMPDEST PUSH1 0x0 JUMPDEST DUP4 DUP2 LT ISZERO PUSH2 0x3948 JUMPI DUP1 DUP3 ADD MLOAD DUP2 DUP5 ADD MSTORE PUSH1 0x20 DUP2 ADD SWAP1 POP PUSH2 0x392D JUMP JUMPDEST PUSH1 0x0 DUP5 DUP5 ADD MSTORE POP POP POP POP JUMP JUMPDEST PUSH1 0x0 PUSH1 0x1F NOT PUSH1 0x1F DUP4 ADD AND SWAP1 POP SWAP2 SWAP1 POP JUMP JUMPDEST PUSH1 0x0 PUSH2 0x3970 DUP3 PUSH2 0x390E JUMP JUMPDEST PUSH2 0x397A DUP2 DUP6 PUSH2 0x3919 JUMP JUMPDEST SWAP4 POP PUSH2 0x398A DUP2 DUP6 PUSH1 0x20 DUP7 ADD PUSH2 0x392A JUMP JUMPDEST PUSH2 0x3993 DUP2 PUSH2 0x3954 JUMP JUMPDEST DUP5 ADD SWAP2 POP POP SWAP3 SWAP2 POP POP JUMP JUMPDEST PUSH1 0x0 PUSH1 0x20 DUP3 ADD SWAP1 POP DUP2 DUP2 SUB PUSH1 0x0 DUP4 ADD MSTORE PUSH2 0x39B8 DUP2 DUP5 PUSH2 0x3965 JUMP JUMPDEST SWAP1 POP SWAP3 SWAP2 POP POP JUMP JUMPDEST PUSH1 0x0 DUP2 SWAP1 POP SWAP2 SWAP1 POP JUMP JUMPDEST PUSH1 0x0 PUSH2 0x39E5 PUSH2 0x39E0 PUSH2 0x39DB DUP5 PUSH2 0x3663 JUMP JUMPDEST PUSH2 0x39C0 JUMP JUMPDEST PUSH2 0x3663 JUMP JUMPDEST SWAP1 POP SWAP2 SWAP1 POP JUMP JUMPDEST PUSH1 0x0 PUSH2 0x39F7 DUP3 PUSH2 0x39CA JUMP JUMPDEST SWAP1 POP SWAP2 SWAP1 POP JUMP JUMPDEST PUSH1 0x0 PUSH2 0x3A09 DUP3 PUSH2 0x39EC JUMP JUMPDEST SWAP1 POP SWAP2 SWAP1 POP JUMP JUMPDEST PUSH2 0x3A19 DUP2 PUSH2 0x39FE JUMP JUMPDEST DUP3 MSTORE POP POP JUMP JUMPDEST PUSH1 0x0 PUSH1 0x20 DUP3 ADD SWAP1 POP PUSH2 0x3A34 PUSH1 0x0 DUP4 ADD DUP5 PUSH2 0x3A10 JUMP JUMPDEST SWAP3 SWAP2 POP POP JUMP JUMPDEST PUSH1 0x0 DUP1 PUSH1 0x20 DUP4 DUP6 SUB SLT ISZERO PUSH2 0x3A51 JUMPI PUSH2 0x3A50 PUSH2 0x35C7 JUMP JUMPDEST JUMPDEST PUSH1 0x0 DUP4 ADD CALLDATALOAD PUSH8 0xFFFFFFFFFFFFFFFF DUP2 GT ISZERO PUSH2 0x3A6F JUMPI PUSH2 0x3A6E PUSH2 0x35CC JUMP JUMPDEST JUMPDEST PUSH2 0x3A7B DUP6 DUP3 DUP7 ADD PUSH2 0x3758 JUMP JUMPDEST SWAP3 POP SWAP3 POP POP SWAP3 POP SWAP3 SWAP1 POP JUMP JUMPDEST PUSH1 0x0 PUSH2 0x3A92 DUP3 PUSH2 0x39EC JUMP JUMPDEST SWAP1 POP SWAP2 SWAP1 POP JUMP JUMPDEST PUSH2 0x3AA2 DUP2 PUSH2 0x3A87 JUMP JUMPDEST DUP3 MSTORE POP POP JUMP JUMPDEST PUSH1 0x0 PUSH1 0x20 DUP3 ADD SWAP1 POP PUSH2 0x3ABD PUSH1 0x0 DUP4 ADD DUP5 PUSH2 0x3A99 JUMP JUMPDEST SWAP3 SWAP2 POP POP JUMP JUMPDEST PUSH1 0x0 PUSH1 0x20 DUP3 ADD SWAP1 POP PUSH2 0x3AD8 PUSH1 0x0 DUP4 ADD DUP5 PUSH2 0x387B JUMP JUMPDEST SWAP3 SWAP2 POP POP JUMP JUMPDEST PUSH1 0x0 DUP2 SWAP1 POP SWAP2 SWAP1 POP JUMP JUMPDEST PUSH2 0x3AF1 DUP2 PUSH2 0x3ADE JUMP JUMPDEST DUP2 EQ PUSH2 0x3AFC JUMPI PUSH1 0x0 DUP1 REVERT JUMPDEST POP JUMP JUMPDEST PUSH1 0x0 DUP2 CALLDATALOAD SWAP1 POP PUSH2 0x3B0E DUP2 PUSH2 0x3AE8 JUMP JUMPDEST SWAP3 SWAP2 POP POP JUMP JUMPDEST PUSH1 0x0 DUP1 PUSH1 0x40 DUP4 DUP6 SUB SLT ISZERO PUSH2 0x3B2B JUMPI PUSH2 0x3B2A PUSH2 0x35C7 JUMP JUMPDEST JUMPDEST PUSH1 0x0 PUSH2 0x3B39 DUP6 DUP3 DUP7 ADD PUSH2 0x35F5 JUMP JUMPDEST SWAP3 POP POP PUSH1 0x20 PUSH2 0x3B4A DUP6 DUP3 DUP7 ADD PUSH2 0x3AFF JUMP JUMPDEST SWAP2 POP POP SWAP3 POP SWAP3 SWAP1 POP JUMP JUMPDEST PUSH2 0x3B5D DUP2 PUSH2 0x3683 JUMP JUMPDEST DUP3 MSTORE POP POP JUMP JUMPDEST PUSH1 0x0 PUSH1 0x20 DUP3 ADD SWAP1 POP PUSH2 0x3B78 PUSH1 0x0 DUP4 ADD DUP5 PUSH2 0x3B54 JUMP JUMPDEST SWAP3 SWAP2 POP POP JUMP JUMPDEST PUSH1 0x0 DUP2 MLOAD SWAP1 POP SWAP2 SWAP1 POP JUMP JUMPDEST PUSH1 0x0 DUP3 DUP3 MSTORE PUSH1 0x20 DUP3 ADD SWAP1 POP SWAP3 SWAP2 POP POP JUMP JUMPDEST PUSH1 0x0 DUP2 SWAP1 POP PUSH1 0x20 DUP3 ADD SWAP1 POP SWAP2 SWAP1 POP JUMP JUMPDEST PUSH2 0x3BB3 DUP2 PUSH2 0x35D1 JUMP JUMPDEST DUP3 MSTORE POP POP JUMP JUMPDEST PUSH2 0x3BC2 DUP2 PUSH2 0x3ADE JUMP JUMPDEST DUP3 MSTORE POP POP JUMP JUMPDEST PUSH1 0x80 DUP3 ADD PUSH1 0x0 DUP3 ADD MLOAD PUSH2 0x3BDE PUSH1 0x0 DUP6 ADD DUP3 PUSH2 0x3BAA JUMP JUMPDEST POP PUSH1 0x20 DUP3 ADD MLOAD PUSH2 0x3BF1 PUSH1 0x20 DUP6 ADD DUP3 PUSH2 0x3BAA JUMP JUMPDEST POP PUSH1 0x40 DUP3 ADD MLOAD PUSH2 0x3C04 PUSH1 0x40 DUP6 ADD DUP3 PUSH2 0x3BAA JUMP JUMPDEST POP PUSH1 0x60 DUP3 ADD MLOAD PUSH2 0x3C17 PUSH1 0x60 DUP6 ADD DUP3 PUSH2 0x3BB9 JUMP JUMPDEST POP POP POP POP JUMP JUMPDEST PUSH1 0x0 PUSH2 0x3C29 DUP4 DUP4 PUSH2 0x3BC8 JUMP JUMPDEST PUSH1 0x80 DUP4 ADD SWAP1 POP SWAP3 SWAP2 POP POP JUMP JUMPDEST PUSH1 0x0 PUSH1 0x20 DUP3 ADD SWAP1 POP SWAP2 SWAP1 POP JUMP JUMPDEST PUSH1 0x0 PUSH2 0x3C4D DUP3 PUSH2 0x3B7E JUMP JUMPDEST PUSH2 0x3C57 DUP2 DUP6 PUSH2 0x3B89 JUMP JUMPDEST SWAP4 POP PUSH2 0x3C62 DUP4 PUSH2 0x3B9A JUMP JUMPDEST DUP1 PUSH1 0x0 JUMPDEST DUP4 DUP2 LT ISZERO PUSH2 0x3C93 JUMPI DUP2 MLOAD PUSH2 0x3C7A DUP9 DUP3 PUSH2 0x3C1D JUMP JUMPDEST SWAP8 POP PUSH2 0x3C85 DUP4 PUSH2 0x3C35 JUMP JUMPDEST SWAP3 POP POP PUSH1 0x1 DUP2 ADD SWAP1 POP PUSH2 0x3C66 JUMP JUMPDEST POP DUP6 SWAP4 POP POP POP POP SWAP3 SWAP2 POP POP JUMP JUMPDEST PUSH1 0x0 PUSH1 0x20 DUP3 ADD SWAP1 POP DUP2 DUP2 SUB PUSH1 0x0 DUP4 ADD MSTORE PUSH2 0x3CBA DUP2 DUP5 PUSH2 0x3C42 JUMP JUMPDEST SWAP1 POP SWAP3 SWAP2 POP POP JUMP JUMPDEST PUSH1 0x0 DUP3 DUP3 MSTORE PUSH1 0x20 DUP3 ADD SWAP1 POP SWAP3 SWAP2 POP POP JUMP JUMPDEST PUSH1 0x0 PUSH2 0x3CDE DUP3 PUSH2 0x390E JUMP JUMPDEST PUSH2 0x3CE8 DUP2 DUP6 PUSH2 0x3CC2 JUMP JUMPDEST SWAP4 POP PUSH2 0x3CF8 DUP2 DUP6 PUSH1 0x20 DUP7 ADD PUSH2 0x392A JUMP JUMPDEST PUSH2 0x3D01 DUP2 PUSH2 0x3954 JUMP JUMPDEST DUP5 ADD SWAP2 POP POP SWAP3 SWAP2 POP POP JUMP JUMPDEST PUSH2 0x3D15 DUP2 PUSH2 0x388A JUMP JUMPDEST DUP3 MSTORE POP POP JUMP JUMPDEST PUSH1 0x0 PUSH1 0x80 DUP4 ADD PUSH1 0x0 DUP4 ADD MLOAD DUP5 DUP3 SUB PUSH1 0x0 DUP7 ADD MSTORE PUSH2 0x3D38 DUP3 DUP3 PUSH2 0x3CD3 JUMP JUMPDEST SWAP2 POP POP PUSH1 0x20 DUP4 ADD MLOAD PUSH2 0x3D4D PUSH1 0x20 DUP7 ADD DUP3 PUSH2 0x3695 JUMP JUMPDEST POP PUSH1 0x40 DUP4 ADD MLOAD PUSH2 0x3D60 PUSH1 0x40 DUP7 ADD DUP3 PUSH2 0x3BAA JUMP JUMPDEST POP PUSH1 0x60 DUP4 ADD MLOAD PUSH2 0x3D73 PUSH1 0x60 DUP7 ADD DUP3 PUSH2 0x3D0C JUMP JUMPDEST POP DUP1 SWAP2 POP POP SWAP3 SWAP2 POP POP JUMP JUMPDEST PUSH1 0x0 PUSH1 0x20 DUP3 ADD SWAP1 POP DUP2 DUP2 SUB PUSH1 0x0 DUP4 ADD MSTORE PUSH2 0x3D98 DUP2 DUP5 PUSH2 0x3D1B JUMP JUMPDEST SWAP1 POP SWAP3 SWAP2 POP POP JUMP JUMPDEST PUSH1 0x0 PUSH2 0x3DAB DUP3 PUSH2 0x39EC JUMP JUMPDEST SWAP1 POP SWAP2 SWAP1 POP JUMP JUMPDEST PUSH2 0x3DBB DUP2 PUSH2 0x3DA0 JUMP JUMPDEST DUP3 MSTORE POP POP JUMP JUMPDEST PUSH1 0x0 PUSH1 0x20 DUP3 ADD SWAP1 POP PUSH2 0x3DD6 PUSH1 0x0 DUP4 ADD DUP5 PUSH2 0x3DB2 JUMP JUMPDEST SWAP3 SWAP2 POP POP JUMP JUMPDEST PUSH2 0x3DE5 DUP2 PUSH2 0x3ADE JUMP JUMPDEST DUP3 MSTORE POP POP JUMP JUMPDEST PUSH1 0x0 PUSH1 0x20 DUP3 ADD SWAP1 POP PUSH2 0x3E00 PUSH1 0x0 DUP4 ADD DUP5 PUSH2 0x3DDC JUMP JUMPDEST SWAP3 SWAP2 POP POP JUMP JUMPDEST PUSH1 0x0 DUP1 PUSH1 0x40 DUP4 DUP6 SUB SLT ISZERO PUSH2 0x3E1D JUMPI PUSH2 0x3E1C PUSH2 0x35C7 JUMP JUMPDEST JUMPDEST PUSH1 0x0 PUSH2 0x3E2B DUP6 DUP3 DUP7 ADD PUSH2 0x35F5 JUMP JUMPDEST SWAP3 POP POP PUSH1 0x20 PUSH2 0x3E3C DUP6 DUP3 DUP7 ADD PUSH2 0x3839 JUMP JUMPDEST SWAP2 POP POP SWAP3 POP SWAP3 SWAP1 POP JUMP JUMPDEST PUSH1 0x0 DUP2 MLOAD SWAP1 POP SWAP2 SWAP1 POP JUMP JUMPDEST PUSH1 0x0 DUP3 DUP3 MSTORE PUSH1 0x20 DUP3 ADD SWAP1 POP SWAP3 SWAP2 POP POP JUMP JUMPDEST PUSH1 0x0 DUP2 SWAP1 POP PUSH1 0x20 DUP3 ADD SWAP1 POP SWAP2 SWAP1 POP JUMP JUMPDEST PUSH1 0x0 PUSH1 0x80 DUP4 ADD PUSH1 0x0 DUP4 ADD MLOAD DUP5 DUP3 SUB PUSH1 0x0 DUP7 ADD MSTORE PUSH2 0x3E8F DUP3 DUP3 PUSH2 0x3CD3 JUMP JUMPDEST SWAP2 POP POP PUSH1 0x20 DUP4 ADD MLOAD PUSH2 0x3EA4 PUSH1 0x20 DUP7 ADD DUP3 PUSH2 0x3695 JUMP JUMPDEST POP PUSH1 0x40 DUP4 ADD MLOAD PUSH2 0x3EB7 PUSH1 0x40 DUP7 ADD DUP3 PUSH2 0x3BAA JUMP JUMPDEST POP PUSH1 0x60 DUP4 ADD MLOAD PUSH2 0x3ECA PUSH1 0x60 DUP7 ADD DUP3 PUSH2 0x3D0C JUMP JUMPDEST POP DUP1 SWAP2 POP POP SWAP3 SWAP2 POP POP JUMP JUMPDEST PUSH1 0x0 PUSH2 0x3EE1 DUP4 DUP4 PUSH2 0x3E72 JUMP JUMPDEST SWAP1 POP SWAP3 SWAP2 POP POP JUMP JUMPDEST PUSH1 0x0 PUSH1 0x20 DUP3 ADD SWAP1 POP SWAP2 SWAP1 POP JUMP JUMPDEST PUSH1 0x0 PUSH2 0x3F01 DUP3 PUSH2 0x3E46 JUMP JUMPDEST PUSH2 0x3F0B DUP2 DUP6 PUSH2 0x3E51 JUMP JUMPDEST SWAP4 POP DUP4 PUSH1 0x20 DUP3 MUL DUP6 ADD PUSH2 0x3F1D DUP6 PUSH2 0x3E62 JUMP JUMPDEST DUP1 PUSH1 0x0 JUMPDEST DUP6 DUP2 LT ISZERO PUSH2 0x3F59 JUMPI DUP5 DUP5 SUB DUP10 MSTORE DUP2 MLOAD PUSH2 0x3F3A DUP6 DUP3 PUSH2 0x3ED5 JUMP JUMPDEST SWAP5 POP PUSH2 0x3F45 DUP4 PUSH2 0x3EE9 JUMP JUMPDEST SWAP3 POP PUSH1 0x20 DUP11 ADD SWAP10 POP POP PUSH1 0x1 DUP2 ADD SWAP1 POP PUSH2 0x3F21 JUMP JUMPDEST POP DUP3 SWAP8 POP DUP8 SWAP6 POP POP POP POP POP POP SWAP3 SWAP2 POP POP JUMP JUMPDEST PUSH1 0x0 PUSH1 0x20 DUP3 ADD SWAP1 POP DUP2 DUP2 SUB PUSH1 0x0 DUP4 ADD MSTORE PUSH2 0x3F85 DUP2 DUP5 PUSH2 0x3EF6 JUMP JUMPDEST SWAP1 POP SWAP3 SWAP2 POP POP JUMP JUMPDEST PUSH1 0x0 PUSH1 0x80 DUP3 ADD SWAP1 POP DUP2 DUP2 SUB PUSH1 0x0 DUP4 ADD MSTORE PUSH2 0x3FA7 DUP2 DUP8 PUSH2 0x3965 JUMP JUMPDEST SWAP1 POP PUSH2 0x3FB6 PUSH1 0x20 DUP4 ADD DUP7 PUSH2 0x3B54 JUMP JUMPDEST PUSH2 0x3FC3 PUSH1 0x40 DUP4 ADD DUP6 PUSH2 0x387B JUMP JUMPDEST PUSH2 0x3FD0 PUSH1 0x60 DUP4 ADD DUP5 PUSH2 0x3896 JUMP JUMPDEST SWAP6 SWAP5 POP POP POP POP POP JUMP JUMPDEST PUSH32 0x4E616D652063616E6E6F7420626520656D707479000000000000000000000000 PUSH1 0x0 DUP3 ADD MSTORE POP JUMP JUMPDEST PUSH1 0x0 PUSH2 0x400F PUSH1 0x14 DUP4 PUSH2 0x3919 JUMP JUMPDEST SWAP2 POP PUSH2 0x401A DUP3 PUSH2 0x3FD9 JUMP JUMPDEST PUSH1 0x20 DUP3 ADD SWAP1 POP SWAP2 SWAP1 POP JUMP JUMPDEST PUSH1 0x0 PUSH1 0x20 DUP3 ADD SWAP1 POP DUP2 DUP2 SUB PUSH1 0x0 DUP4 ADD MSTORE PUSH2 0x403E DUP2 PUSH2 0x4002 JUMP JUMPDEST SWAP1 POP SWAP2 SWAP1 POP JUMP JUMPDEST PUSH1 0x0 PUSH1 0x40 DUP3 ADD SWAP1 POP PUSH2 0x405A PUSH1 0x0 DUP4 ADD DUP6 PUSH2 0x387B JUMP JUMPDEST PUSH2 0x4067 PUSH1 0x20 DUP4 ADD DUP5 PUSH2 0x387B JUMP JUMPDEST SWAP4 SWAP3 POP POP POP JUMP JUMPDEST PUSH1 0x0 DUP2 MLOAD SWAP1 POP PUSH2 0x407D DUP2 PUSH2 0x3822 JUMP JUMPDEST SWAP3 SWAP2 POP POP JUMP JUMPDEST PUSH1 0x0 PUSH1 0x20 DUP3 DUP5 SUB SLT ISZERO PUSH2 0x4099 JUMPI PUSH2 0x4098 PUSH2 0x35C7 JUMP JUMPDEST JUMPDEST PUSH1 0x0 PUSH2 0x40A7 DUP5 DUP3 DUP6 ADD PUSH2 0x406E JUMP JUMPDEST SWAP2 POP POP SWAP3 SWAP2 POP POP JUMP JUMPDEST PUSH32 0x596F7520617265206E6F7420746865206F776E6572206F662074686973207469 PUSH1 0x0 DUP3 ADD MSTORE PUSH32 0x6C65000000000000000000000000000000000000000000000000000000000000 PUSH1 0x20 DUP3 ADD MSTORE POP JUMP JUMPDEST PUSH1 0x0 PUSH2 0x410C PUSH1 0x22 DUP4 PUSH2 0x3919 JUMP JUMPDEST SWAP2 POP PUSH2 0x4117 DUP3 PUSH2 0x40B0 JUMP JUMPDEST PUSH1 0x40 DUP3 ADD SWAP1 POP SWAP2 SWAP1 POP JUMP JUMPDEST PUSH1 0x0 PUSH1 0x20 DUP3 ADD SWAP1 POP DUP2 DUP2 SUB PUSH1 0x0 DUP4 ADD MSTORE PUSH2 0x413B DUP2 PUSH2 0x40FF JUMP JUMPDEST SWAP1 POP SWAP2 SWAP1 POP JUMP JUMPDEST PUSH1 0x0 PUSH1 0x60 DUP3 ADD SWAP1 POP PUSH2 0x4157 PUSH1 0x0 DUP4 ADD DUP7 PUSH2 0x3B54 JUMP JUMPDEST PUSH2 0x4164 PUSH1 0x20 DUP4 ADD DUP6 PUSH2 0x3B54 JUMP JUMPDEST PUSH2 0x4171 PUSH1 0x40 DUP4 ADD DUP5 PUSH2 0x3DDC JUMP JUMPDEST SWAP5 SWAP4 POP POP POP POP JUMP JUMPDEST PUSH2 0x4182 DUP2 PUSH2 0x388A JUMP JUMPDEST DUP2 EQ PUSH2 0x418D JUMPI PUSH1 0x0 DUP1 REVERT JUMPDEST POP JUMP JUMPDEST PUSH1 0x0 DUP2 MLOAD SWAP1 POP PUSH2 0x419F DUP2 PUSH2 0x4179 JUMP JUMPDEST SWAP3 SWAP2 POP POP JUMP JUMPDEST PUSH1 0x0 PUSH1 0x20 DUP3 DUP5 SUB SLT ISZERO PUSH2 0x41BB JUMPI PUSH2 0x41BA PUSH2 0x35C7 JUMP JUMPDEST JUMPDEST PUSH1 0x0 PUSH2 0x41C9 DUP5 DUP3 DUP6 ADD PUSH2 0x4190 JUMP JUMPDEST SWAP2 POP POP SWAP3 SWAP2 POP POP JUMP JUMPDEST PUSH32 0x546F6B656E207061796D656E74206661696C6564000000000000000000000000 PUSH1 0x0 DUP3 ADD MSTORE POP JUMP JUMPDEST PUSH1 0x0 PUSH2 0x4208 PUSH1 0x14 DUP4 PUSH2 0x3919 JUMP JUMPDEST SWAP2 POP PUSH2 0x4213 DUP3 PUSH2 0x41D2 JUMP JUMPDEST PUSH1 0x20 DUP3 ADD SWAP1 POP SWAP2 SWAP1 POP JUMP JUMPDEST PUSH1 0x0 PUSH1 0x20 DUP3 ADD SWAP1 POP DUP2 DUP2 SUB PUSH1 0x0 DUP4 ADD MSTORE PUSH2 0x4237 DUP2 PUSH2 0x41FB JUMP JUMPDEST SWAP1 POP SWAP2 SWAP1 POP JUMP JUMPDEST PUSH1 0x0 DUP3 SWAP1 POP SWAP3 SWAP2 POP POP JUMP JUMPDEST PUSH32 0x4E487B7100000000000000000000000000000000000000000000000000000000 PUSH1 0x0 MSTORE PUSH1 0x41 PUSH1 0x4 MSTORE PUSH1 0x24 PUSH1 0x0 REVERT JUMPDEST PUSH32 0x4E487B7100000000000000000000000000000000000000000000000000000000 PUSH1 0x0 MSTORE PUSH1 0x22 PUSH1 0x4 MSTORE PUSH1 0x24 PUSH1 0x0 REVERT JUMPDEST PUSH1 0x0 PUSH1 0x2 DUP3 DIV SWAP1 POP PUSH1 0x1 DUP3 AND DUP1 PUSH2 0x42BF JUMPI PUSH1 0x7F DUP3 AND SWAP2 POP JUMPDEST PUSH1 0x20 DUP3 LT DUP2 SUB PUSH2 0x42D2 JUMPI PUSH2 0x42D1 PUSH2 0x4278 JUMP JUMPDEST JUMPDEST POP SWAP2 SWAP1 POP JUMP JUMPDEST PUSH1 0x0 DUP2 SWAP1 POP DUP2 PUSH1 0x0 MSTORE PUSH1 0x20 PUSH1 0x0 KECCAK256 SWAP1 POP SWAP2 SWAP1 POP JUMP JUMPDEST PUSH1 0x0 PUSH1 0x20 PUSH1 0x1F DUP4 ADD DIV SWAP1 POP SWAP2 SWAP1 POP JUMP JUMPDEST PUSH1 0x0 DUP3 DUP3 SHL SWAP1 POP SWAP3 SWAP2 POP POP JUMP JUMPDEST PUSH1 0x0 PUSH1 0x8 DUP4 MUL PUSH2 0x433A PUSH32 0xFFFFFFFFFFFFFFFFFFFFFFFFFFFFFFFFFFFFFFFFFFFFFFFFFFFFFFFFFFFFFFFF DUP3 PUSH2 0x42FD JUMP JUMPDEST PUSH2 0x4344 DUP7 DUP4 PUSH2 0x42FD JUMP JUMPDEST SWAP6 POP DUP1 NOT DUP5 AND SWAP4 POP DUP1 DUP7 AND DUP5 OR SWAP3 POP POP POP SWAP4 SWAP3 POP POP POP JUMP JUMPDEST PUSH1 0x0 PUSH2 0x4377 PUSH2 0x4372 PUSH2 0x436D DUP5 PUSH2 0x3ADE JUMP JUMPDEST PUSH2 0x39C0 JUMP JUMPDEST PUSH2 0x3ADE JUMP JUMPDEST SWAP1 POP SWAP2 SWAP1 POP JUMP JUMPDEST PUSH1 0x0 DUP2 SWAP1 POP SWAP2 SWAP1 POP JUMP JUMPDEST PUSH2 0x4391 DUP4 PUSH2 0x435C JUMP JUMPDEST PUSH2 0x43A5 PUSH2 0x439D DUP3 PUSH2 0x437E JUMP JUMPDEST DUP5 DUP5 SLOAD PUSH2 0x430A JUMP JUMPDEST DUP3 SSTORE POP POP POP POP JUMP JUMPDEST PUSH1 0x0 SWAP1 JUMP JUMPDEST PUSH2 0x43BA PUSH2 0x43AD JUMP JUMPDEST PUSH2 0x43C5 DUP2 DUP5 DUP5 PUSH2 0x4388 JUMP JUMPDEST POP POP POP JUMP JUMPDEST JUMPDEST DUP2 DUP2 LT ISZERO PUSH2 0x43E9 JUMPI PUSH2 0x43DE PUSH1 0x0 DUP3 PUSH2 0x43B2 JUMP JUMPDEST PUSH1 0x1 DUP2 ADD SWAP1 POP PUSH2 0x43CB JUMP JUMPDEST POP POP JUMP JUMPDEST PUSH1 0x1F DUP3 GT ISZERO PUSH2 0x442E JUMPI PUSH2 0x43FF DUP2 PUSH2 0x42D8 JUMP JUMPDEST PUSH2 0x4408 DUP5 PUSH2 0x42ED JUMP JUMPDEST DUP2 ADD PUSH1 0x20 DUP6 LT ISZERO PUSH2 0x4417 JUMPI DUP2 SWAP1 POP JUMPDEST PUSH2 0x442B PUSH2 0x4423 DUP6 PUSH2 0x42ED JUMP JUMPDEST DUP4 ADD DUP3 PUSH2 0x43CA JUMP JUMPDEST POP POP JUMPDEST POP POP POP JUMP JUMPDEST PUSH1 0x0 DUP3 DUP3 SHR SWAP1 POP SWAP3 SWAP2 POP POP JUMP JUMPDEST PUSH1 0x0 PUSH2 0x4451 PUSH1 0x0 NOT DUP5 PUSH1 0x8 MUL PUSH2 0x4433 JUMP JUMPDEST NOT DUP1 DUP4 AND SWAP2 POP POP SWAP3 SWAP2 POP POP JUMP JUMPDEST PUSH1 0x0 PUSH2 0x446A DUP4 DUP4 PUSH2 0x4440 JUMP JUMPDEST SWAP2 POP DUP3 PUSH1 0x2 MUL DUP3 OR SWAP1 POP SWAP3 SWAP2 POP POP JUMP JUMPDEST PUSH2 0x4484 DUP4 DUP4 PUSH2 0x423E JUMP JUMPDEST PUSH8 0xFFFFFFFFFFFFFFFF DUP2 GT ISZERO PUSH2 0x449D JUMPI PUSH2 0x449C PUSH2 0x4249 JUMP JUMPDEST JUMPDEST PUSH2 0x44A7 DUP3 SLOAD PUSH2 0x42A7 JUMP JUMPDEST PUSH2 0x44B2 DUP3 DUP3 DUP6 PUSH2 0x43ED JUMP JUMPDEST PUSH1 0x0 PUSH1 0x1F DUP4 GT PUSH1 0x1 DUP2 EQ PUSH2 0x44E1 JUMPI PUSH1 0x0 DUP5 ISZERO PUSH2 0x44CF JUMPI DUP3 DUP8 ADD CALLDATALOAD SWAP1 POP JUMPDEST PUSH2 0x44D9 DUP6 DUP3 PUSH2 0x445E JUMP JUMPDEST DUP7 SSTORE POP PUSH2 0x4541 JUMP JUMPDEST PUSH1 0x1F NOT DUP5 AND PUSH2 0x44EF DUP7 PUSH2 0x42D8 JUMP JUMPDEST PUSH1 0x0 JUMPDEST DUP3 DUP2 LT ISZERO PUSH2 0x4517 JUMPI DUP5 DUP10 ADD CALLDATALOAD DUP3 SSTORE PUSH1 0x1 DUP3 ADD SWAP2 POP PUSH1 0x20 DUP6 ADD SWAP5 POP PUSH1 0x20 DUP2 ADD SWAP1 POP PUSH2 0x44F2 JUMP JUMPDEST DUP7 DUP4 LT ISZERO PUSH2 0x4534 JUMPI DUP5 DUP10 ADD CALLDATALOAD PUSH2 0x4530 PUSH1 0x1F DUP10 AND DUP3 PUSH2 0x4440 JUMP JUMPDEST DUP4 SSTORE POP JUMPDEST PUSH1 0x1 PUSH1 0x2 DUP9 MUL ADD DUP9 SSTORE POP POP POP JUMPDEST POP POP POP POP POP POP POP JUMP JUMPDEST DUP3 DUP2 DUP4 CALLDATACOPY PUSH1 0x0 DUP4 DUP4 ADD MSTORE POP POP POP JUMP JUMPDEST PUSH1 0x0 PUSH2 0x4565 DUP4 DUP6 PUSH2 0x3919 JUMP JUMPDEST SWAP4 POP PUSH2 0x4572 DUP4 DUP6 DUP5 PUSH2 0x454A JUMP JUMPDEST PUSH2 0x457B DUP4 PUSH2 0x3954 JUMP JUMPDEST DUP5 ADD SWAP1 POP SWAP4 SWAP3 POP POP POP JUMP JUMPDEST PUSH1 0x0 PUSH1 0x60 DUP3 ADD SWAP1 POP PUSH2 0x459B PUSH1 0x0 DUP4 ADD DUP8 PUSH2 0x387B JUMP JUMPDEST PUSH2 0x45A8 PUSH1 0x20 DUP4 ADD DUP7 PUSH2 0x387B JUMP JUMPDEST DUP2 DUP2 SUB PUSH1 0x40 DUP4 ADD MSTORE PUSH2 0x45BB DUP2 DUP5 DUP7 PUSH2 0x4559 JUMP JUMPDEST SWAP1 POP SWAP6 SWAP5 POP POP POP POP POP JUMP JUMPDEST PUSH32 0x596F75206D757374206F776E20612074696C6520746F20637265617465206F72 PUSH1 0x0 DUP3 ADD MSTORE PUSH32 0x206A6F696E206120636C616E0000000000000000000000000000000000000000 PUSH1 0x20 DUP3 ADD MSTORE POP JUMP JUMPDEST PUSH1 0x0 PUSH2 0x4622 PUSH1 0x2C DUP4 PUSH2 0x3919 JUMP JUMPDEST SWAP2 POP PUSH2 0x462D DUP3 PUSH2 0x45C6 JUMP JUMPDEST PUSH1 0x40 DUP3 ADD SWAP1 POP SWAP2 SWAP1 POP JUMP JUMPDEST PUSH1 0x0 PUSH1 0x20 DUP3 ADD SWAP1 POP DUP2 DUP2 SUB PUSH1 0x0 DUP4 ADD MSTORE PUSH2 0x4651 DUP2 PUSH2 0x4615 JUMP JUMPDEST SWAP1 POP SWAP2 SWAP1 POP JUMP JUMPDEST PUSH32 0x436C616E206E616D652063616E6E6F7420626520656D70747900000000000000 PUSH1 0x0 DUP3 ADD MSTORE POP JUMP JUMPDEST PUSH1 0x0 PUSH2 0x468E PUSH1 0x19 DUP4 PUSH2 0x3919 JUMP JUMPDEST SWAP2 POP PUSH2 0x4699 DUP3 PUSH2 0x4658 JUMP JUMPDEST PUSH1 0x20 DUP3 ADD SWAP1 POP SWAP2 SWAP1 POP JUMP JUMPDEST PUSH1 0x0 PUSH1 0x20 DUP3 ADD SWAP1 POP DUP2 DUP2 SUB PUSH1 0x0 DUP4 ADD MSTORE PUSH2 0x46BD DUP2 PUSH2 0x4681 JUMP JUMPDEST SWAP1 POP SWAP2 SWAP1 POP JUMP JUMPDEST PUSH32 0x416C726561647920696E206120636C616E000000000000000000000000000000 PUSH1 0x0 DUP3 ADD MSTORE POP JUMP JUMPDEST PUSH1 0x0 PUSH2 0x46FA PUSH1 0x11 DUP4 PUSH2 0x3919 JUMP JUMPDEST SWAP2 POP PUSH2 0x4705 DUP3 PUSH2 0x46C4 JUMP JUMPDEST PUSH1 0x20 DUP3 ADD SWAP1 POP SWAP2 SWAP1 POP JUMP JUMPDEST PUSH1 0x0 PUSH1 0x20 DUP3 ADD SWAP1 POP DUP2 DUP2 SUB PUSH1 0x0 DUP4 ADD MSTORE PUSH2 0x4729 DUP2 PUSH2 0x46ED JUMP JUMPDEST SWAP1 POP SWAP2 SWAP1 POP JUMP JUMPDEST PUSH32 0x4C4F50207472616E73666572206661696C656400000000000000000000000000 PUSH1 0x0 DUP3 ADD MSTORE POP JUMP JUMPDEST PUSH1 0x0 PUSH2 0x4766 PUSH1 0x13 DUP4 PUSH2 0x3919 JUMP JUMPDEST SWAP2 POP PUSH2 0x4771 DUP3 PUSH2 0x4730 JUMP JUMPDEST PUSH1 0x20 DUP3 ADD SWAP1 POP SWAP2 SWAP1 POP JUMP JUMPDEST PUSH1 0x0 PUSH1 0x20 DUP3 ADD SWAP1 POP DUP2 DUP2 SUB PUSH1 0x0 DUP4 ADD MSTORE PUSH2 0x4795 DUP2 PUSH2 0x4759 JUMP JUMPDEST SWAP1 POP SWAP2 SWAP1 POP JUMP JUMPDEST PUSH32 0x4E487B7100000000000000000000000000000000000000000000000000000000 PUSH1 0x0 MSTORE PUSH1 0x11 PUSH1 0x4 MSTORE PUSH1 0x24 PUSH1 0x0 REVERT JUMPDEST PUSH1 0x0 PUSH2 0x47D6 DUP3 PUSH2 0x35D1 JUMP JUMPDEST SWAP2 POP PUSH1 0xFF DUP3 SUB PUSH2 0x47E9 JUMPI PUSH2 0x47E8 PUSH2 0x479C JUMP JUMPDEST JUMPDEST PUSH1 0x1 DUP3 ADD SWAP1 POP SWAP2 SWAP1 POP JUMP JUMPDEST PUSH2 0x47FD DUP3 PUSH2 0x390E JUMP JUMPDEST PUSH8 0xFFFFFFFFFFFFFFFF DUP2 GT ISZERO PUSH2 0x4816 JUMPI PUSH2 0x4815 PUSH2 0x4249 JUMP JUMPDEST JUMPDEST PUSH2 0x4820 DUP3 SLOAD PUSH2 0x42A7 JUMP JUMPDEST PUSH2 0x482B DUP3 DUP3 DUP6 PUSH2 0x43ED JUMP JUMPDEST PUSH1 0x0 PUSH1 0x20 SWAP1 POP PUSH1 0x1F DUP4 GT PUSH1 0x1 DUP2 EQ PUSH2 0x485E JUMPI PUSH1 0x0 DUP5 ISZERO PUSH2 0x484C JUMPI DUP3 DUP8 ADD MLOAD SWAP1 POP JUMPDEST PUSH2 0x4856 DUP6 DUP3 PUSH2 0x445E JUMP JUMPDEST DUP7 SSTORE POP PUSH2 0x48BE JUMP JUMPDEST PUSH1 0x1F NOT DUP5 AND PUSH2 0x486C DUP7 PUSH2 0x42D8 JUMP JUMPDEST PUSH1 0x0 JUMPDEST DUP3 DUP2 LT ISZERO PUSH2 0x4894 JUMPI DUP5 DUP10 ADD MLOAD DUP3 SSTORE PUSH1 0x1 DUP3 ADD SWAP2 POP PUSH1 0x20 DUP6 ADD SWAP5 POP PUSH1 0x20 DUP2 ADD SWAP1 POP PUSH2 0x486F JUMP JUMPDEST DUP7 DUP4 LT ISZERO PUSH2 0x48B1 JUMPI DUP5 DUP10 ADD MLOAD PUSH2 0x48AD PUSH1 0x1F DUP10 AND DUP3 PUSH2 0x4440 JUMP JUMPDEST DUP4 SSTORE POP JUMPDEST PUSH1 0x1 PUSH1 0x2 DUP9 MUL ADD DUP9 SSTORE POP POP POP JUMPDEST POP POP POP POP POP POP JUMP JUMPDEST PUSH1 0x0 PUSH1 0x60 DUP3 ADD SWAP1 POP PUSH2 0x48DB PUSH1 0x0 DUP4 ADD DUP8 PUSH2 0x387B JUMP JUMPDEST DUP2 DUP2 SUB PUSH1 0x20 DUP4 ADD MSTORE PUSH2 0x48EE DUP2 DUP6 DUP8 PUSH2 0x4559 JUMP JUMPDEST SWAP1 POP PUSH2 0x48FD PUSH1 0x40 DUP4 ADD DUP5 PUSH2 0x3B54 JUMP JUMPDEST SWAP6 SWAP5 POP POP POP POP POP JUMP JUMPDEST PUSH1 0x0 PUSH2 0x4911 DUP3 PUSH2 0x3ADE JUMP JUMPDEST SWAP2 POP PUSH32 0xFFFFFFFFFFFFFFFFFFFFFFFFFFFFFFFFFFFFFFFFFFFFFFFFFFFFFFFFFFFFFFFF DUP3 SUB PUSH2 0x4943 JUMPI PUSH2 0x4942 PUSH2 0x479C JUMP JUMPDEST JUMPDEST PUSH1 0x1 DUP3 ADD SWAP1 POP SWAP2 SWAP1 POP JUMP JUMPDEST PUSH32 0x4E487B7100000000000000000000000000000000000000000000000000000000 PUSH1 0x0 MSTORE PUSH1 0x32 PUSH1 0x4 MSTORE PUSH1 0x24 PUSH1 0x0 REVERT JUMPDEST PUSH32 0x4F6E6C7920636C616E206C65616465722063616E20706572666F726D20746869 PUSH1 0x0 DUP3 ADD MSTORE PUSH32 0x7320616374696F6E000000000000000000000000000000000000000000000000 PUSH1 0x20 DUP3 ADD MSTORE POP JUMP JUMPDEST PUSH1 0x0 PUSH2 0x49D9 PUSH1 0x28 DUP4 PUSH2 0x3919 JUMP JUMPDEST SWAP2 POP PUSH2 0x49E4 DUP3 PUSH2 0x497D JUMP JUMPDEST PUSH1 0x40 DUP3 ADD SWAP1 POP SWAP2 SWAP1 POP JUMP JUMPDEST PUSH1 0x0 PUSH1 0x20 DUP3 ADD SWAP1 POP DUP2 DUP2 SUB PUSH1 0x0 DUP4 ADD MSTORE PUSH2 0x4A08 DUP2 PUSH2 0x49CC JUMP JUMPDEST SWAP1 POP SWAP2 SWAP1 POP JUMP JUMPDEST PUSH32 0x436C616E20646F6573206E6F7420657869737400000000000000000000000000 PUSH1 0x0 DUP3 ADD MSTORE POP JUMP JUMPDEST PUSH1 0x0 PUSH2 0x4A45 PUSH1 0x13 DUP4 PUSH2 0x3919 JUMP JUMPDEST SWAP2 POP PUSH2 0x4A50 DUP3 PUSH2 0x4A0F JUMP JUMPDEST PUSH1 0x20 DUP3 ADD SWAP1 POP SWAP2 SWAP1 POP JUMP JUMPDEST PUSH1 0x0 PUSH1 0x20 DUP3 ADD SWAP1 POP DUP2 DUP2 SUB PUSH1 0x0 DUP4 ADD MSTORE PUSH2 0x4A74 DUP2 PUSH2 0x4A38 JUMP JUMPDEST SWAP1 POP SWAP2 SWAP1 POP JUMP JUMPDEST PUSH32 0x436C616E2069732066756C6C0000000000000000000000000000000000000000 PUSH1 0x0 DUP3 ADD MSTORE POP JUMP JUMPDEST PUSH1 0x0 PUSH2 0x4AB1 PUSH1 0xC DUP4 PUSH2 0x3919 JUMP JUMPDEST SWAP2 POP PUSH2 0x4ABC DUP3 PUSH2 0x4A7B JUMP JUMPDEST PUSH1 0x20 DUP3 ADD SWAP1 POP SWAP2 SWAP1 POP JUMP JUMPDEST PUSH1 0x0 PUSH1 0x20 DUP3 ADD SWAP1 POP DUP2 DUP2 SUB PUSH1 0x0 DUP4 ADD MSTORE PUSH2 0x4AE0 DUP2 PUSH2 0x4AA4 JUMP JUMPDEST SWAP1 POP SWAP2 SWAP1 POP JUMP JUMPDEST PUSH32 0x506C6179657220697320616C726561647920696E206120636C616E0000000000 PUSH1 0x0 DUP3 ADD MSTORE POP JUMP JUMPDEST PUSH1 0x0 PUSH2 0x4B1D PUSH1 0x1B DUP4 PUSH2 0x3919 JUMP JUMPDEST SWAP2 POP PUSH2 0x4B28 DUP3 PUSH2 0x4AE7 JUMP JUMPDEST PUSH1 0x20 DUP3 ADD SWAP1 POP SWAP2 SWAP1 POP JUMP JUMPDEST PUSH1 0x0 PUSH1 0x20 DUP3 ADD SWAP1 POP DUP2 DUP2 SUB PUSH1 0x0 DUP4 ADD MSTORE PUSH2 0x4B4C DUP2 PUSH2 0x4B10 JUMP JUMPDEST SWAP1 POP SWAP2 SWAP1 POP JUMP JUMPDEST PUSH32 0x506C6179657220646F6573206E6F74206F776E20612074696C65000000000000 PUSH1 0x0 DUP3 ADD MSTORE POP JUMP JUMPDEST PUSH1 0x0 PUSH2 0x4B89 PUSH1 0x1A DUP4 PUSH2 0x3919 JUMP JUMPDEST SWAP2 POP PUSH2 0x4B94 DUP3 PUSH2 0x4B53 JUMP JUMPDEST PUSH1 0x20 DUP3 ADD SWAP1 POP SWAP2 SWAP1 POP JUMP JUMPDEST PUSH1 0x0 PUSH1 0x20 DUP3 ADD SWAP1 POP DUP2 DUP2 SUB PUSH1 0x0 DUP4 ADD MSTORE PUSH2 0x4BB8 DUP2 PUSH2 0x4B7C JUMP JUMPDEST SWAP1 POP SWAP2 SWAP1 POP JUMP JUMPDEST PUSH1 0x0 PUSH1 0x40 DUP3 ADD SWAP1 POP PUSH2 0x4BD4 PUSH1 0x0 DUP4 ADD DUP6 PUSH2 0x387B JUMP JUMPDEST PUSH2 0x4BE1 PUSH1 0x20 DUP4 ADD DUP5 PUSH2 0x3B54 JUMP JUMPDEST SWAP4 SWAP3 POP POP POP JUMP JUMPDEST PUSH32 0x4E6F2070656E64696E6720696E7669746520746F207265667573650000000000 PUSH1 0x0 DUP3 ADD MSTORE POP JUMP JUMPDEST PUSH1 0x0 PUSH2 0x4C1E PUSH1 0x1B DUP4 PUSH2 0x3919 JUMP JUMPDEST SWAP2 POP PUSH2 0x4C29 DUP3 PUSH2 0x4BE8 JUMP JUMPDEST PUSH1 0x20 DUP3 ADD SWAP1 POP SWAP2 SWAP1 POP JUMP JUMPDEST PUSH1 0x0 PUSH1 0x20 DUP3 ADD SWAP1 POP DUP2 DUP2 SUB PUSH1 0x0 DUP4 ADD MSTORE PUSH2 0x4C4D DUP2 PUSH2 0x4C11 JUMP JUMPDEST SWAP1 POP SWAP2 SWAP1 POP JUMP JUMPDEST PUSH32 0x4E6F742061206D656D626572206F66207468697320636C616E00000000000000 PUSH1 0x0 DUP3 ADD MSTORE POP JUMP JUMPDEST PUSH1 0x0 PUSH2 0x4C8A PUSH1 0x19 DUP4 PUSH2 0x3919 JUMP JUMPDEST SWAP2 POP PUSH2 0x4C95 DUP3 PUSH2 0x4C54 JUMP JUMPDEST PUSH1 0x20 DUP3 ADD SWAP1 POP SWAP2 SWAP1 POP JUMP JUMPDEST PUSH1 0x0 PUSH1 0x20 DUP3 ADD SWAP1 POP DUP2 DUP2 SUB PUSH1 0x0 DUP4 ADD MSTORE PUSH2 0x4CB9 DUP2 PUSH2 0x4C7D JUMP JUMPDEST SWAP1 POP SWAP2 SWAP1 POP JUMP JUMPDEST PUSH32 0x596F7520646F6E2774206F776E2074686973204E465400000000000000000000 PUSH1 0x0 DUP3 ADD MSTORE POP JUMP JUMPDEST PUSH1 0x0 PUSH2 0x4CF6 PUSH1 0x16 DUP4 PUSH2 0x3919 JUMP JUMPDEST SWAP2 POP PUSH2 0x4D01 DUP3 PUSH2 0x4CC0 JUMP JUMPDEST PUSH1 0x20 DUP3 ADD SWAP1 POP SWAP2 SWAP1 POP JUMP JUMPDEST PUSH1 0x0 PUSH1 0x20 DUP3 ADD SWAP1 POP DUP2 DUP2 SUB PUSH1 0x0 DUP4 ADD MSTORE PUSH2 0x4D25 DUP2 PUSH2 0x4CE9 JUMP JUMPDEST SWAP1 POP SWAP2 SWAP1 POP JUMP JUMPDEST PUSH1 0x0 DUP1 REVERT JUMPDEST PUSH2 0x4D3A DUP3 PUSH2 0x3954 JUMP JUMPDEST DUP2 ADD DUP2 DUP2 LT PUSH8 0xFFFFFFFFFFFFFFFF DUP3 GT OR ISZERO PUSH2 0x4D59 JUMPI PUSH2 0x4D58 PUSH2 0x4249 JUMP JUMPDEST JUMPDEST DUP1 PUSH1 0x40 MSTORE POP POP POP JUMP JUMPDEST PUSH1 0x0 PUSH2 0x4D6C PUSH2 0x35BD JUMP JUMPDEST SWAP1 POP PUSH2 0x4D78 DUP3 DUP3 PUSH2 0x4D31 JUMP JUMPDEST SWAP2 SWAP1 POP JUMP JUMPDEST PUSH1 0x0 PUSH8 0xFFFFFFFFFFFFFFFF DUP3 GT ISZERO PUSH2 0x4D98 JUMPI PUSH2 0x4D97 PUSH2 0x4249 JUMP JUMPDEST JUMPDEST PUSH2 0x4DA1 DUP3 PUSH2 0x3954 JUMP JUMPDEST SWAP1 POP PUSH1 0x20 DUP2 ADD SWAP1 POP SWAP2 SWAP1 POP JUMP JUMPDEST PUSH1 0x0 PUSH2 0x4DC1 PUSH2 0x4DBC DUP5 PUSH2 0x4D7D JUMP JUMPDEST PUSH2 0x4D62 JUMP JUMPDEST SWAP1 POP DUP3 DUP2 MSTORE PUSH1 0x20 DUP2 ADD DUP5 DUP5 DUP5 ADD GT ISZERO PUSH2 0x4DDD JUMPI PUSH2 0x4DDC PUSH2 0x4D2C JUMP JUMPDEST JUMPDEST PUSH2 0x4DE8 DUP5 DUP3 DUP6 PUSH2 0x392A JUMP JUMPDEST POP SWAP4 SWAP3 POP POP POP JUMP JUMPDEST PUSH1 0x0 DUP3 PUSH1 0x1F DUP4 ADD SLT PUSH2 0x4E05 JUMPI PUSH2 0x4E04 PUSH2 0x3749 JUMP JUMPDEST JUMPDEST DUP2 MLOAD PUSH2 0x4E15 DUP5 DUP3 PUSH1 0x20 DUP7 ADD PUSH2 0x4DAE JUMP JUMPDEST SWAP2 POP POP SWAP3 SWAP2 POP POP JUMP JUMPDEST PUSH1 0x0 DUP2 MLOAD SWAP1 POP PUSH2 0x4E2D DUP2 PUSH2 0x3AE8 JUMP JUMPDEST SWAP3 SWAP2 POP POP JUMP JUMPDEST PUSH1 0x0 DUP1 PUSH1 0x0 DUP1 PUSH1 0x0 DUP1 PUSH1 0x0 DUP1 PUSH1 0x0 DUP1 PUSH1 0x0 PUSH2 0x160 DUP13 DUP15 SUB SLT ISZERO PUSH2 0x4E59 JUMPI PUSH2 0x4E58 PUSH2 0x35C7 JUMP JUMPDEST JUMPDEST PUSH1 0x0 DUP13 ADD MLOAD PUSH8 0xFFFFFFFFFFFFFFFF DUP2 GT ISZERO PUSH2 0x4E77 JUMPI PUSH2 0x4E76 PUSH2 0x35CC JUMP JUMPDEST JUMPDEST PUSH2 0x4E83 DUP15 DUP3 DUP16 ADD PUSH2 0x4DF0 JUMP JUMPDEST SWAP12 POP POP PUSH1 0x20 DUP13 ADD MLOAD PUSH8 0xFFFFFFFFFFFFFFFF DUP2 GT ISZERO PUSH2 0x4EA4 JUMPI PUSH2 0x4EA3 PUSH2 0x35CC JUMP JUMPDEST JUMPDEST PUSH2 0x4EB0 DUP15 DUP3 DUP16 ADD PUSH2 0x4DF0 JUMP JUMPDEST SWAP11 POP POP PUSH1 0x40 DUP13 ADD MLOAD PUSH8 0xFFFFFFFFFFFFFFFF DUP2 GT ISZERO PUSH2 0x4ED1 JUMPI PUSH2 0x4ED0 PUSH2 0x35CC JUMP JUMPDEST JUMPDEST PUSH2 0x4EDD DUP15 DUP3 DUP16 ADD PUSH2 0x4DF0 JUMP JUMPDEST SWAP10 POP POP PUSH1 0x60 DUP13 ADD MLOAD PUSH8 0xFFFFFFFFFFFFFFFF DUP2 GT ISZERO PUSH2 0x4EFE JUMPI PUSH2 0x4EFD PUSH2 0x35CC JUMP JUMPDEST JUMPDEST PUSH2 0x4F0A DUP15 DUP3 DUP16 ADD PUSH2 0x4DF0 JUMP JUMPDEST SWAP9 POP POP PUSH1 0x80 PUSH2 0x4F1B DUP15 DUP3 DUP16 ADD PUSH2 0x406E JUMP JUMPDEST SWAP8 POP POP PUSH1 0xA0 PUSH2 0x4F2C DUP15 DUP3 DUP16 ADD PUSH2 0x4E1E JUMP JUMPDEST SWAP7 POP POP PUSH1 0xC0 PUSH2 0x4F3D DUP15 DUP3 DUP16 ADD PUSH2 0x4E1E JUMP JUMPDEST SWAP6 POP POP PUSH1 0xE0 DUP13 ADD MLOAD PUSH8 0xFFFFFFFFFFFFFFFF DUP2 GT ISZERO PUSH2 0x4F5E JUMPI PUSH2 0x4F5D PUSH2 0x35CC JUMP JUMPDEST JUMPDEST PUSH2 0x4F6A DUP15 DUP3 DUP16 ADD PUSH2 0x4DF0 JUMP JUMPDEST SWAP5 POP POP PUSH2 0x100 DUP13 ADD MLOAD PUSH8 0xFFFFFFFFFFFFFFFF DUP2 GT ISZERO PUSH2 0x4F8C JUMPI PUSH2 0x4F8B PUSH2 0x35CC JUMP JUMPDEST JUMPDEST PUSH2 0x4F98 DUP15 DUP3 DUP16 ADD PUSH2 0x4DF0 JUMP JUMPDEST SWAP4 POP POP PUSH2 0x120 PUSH2 0x4FAA DUP15 DUP3 DUP16 ADD PUSH2 0x4E1E JUMP JUMPDEST SWAP3 POP POP PUSH2 0x140 PUSH2 0x4FBC DUP15 DUP3 DUP16 ADD PUSH2 0x4E1E JUMP JUMPDEST SWAP2 POP POP SWAP3 SWAP6 SWAP9 SWAP12 POP SWAP3 SWAP6 SWAP9 SWAP12 SWAP1 SWAP4 SWAP7 SWAP10 POP JUMP JUMPDEST PUSH32 0x4F6E6C79204E4654732066726F6D20636F6C6C656374696F6E20494420312063 PUSH1 0x0 DUP3 ADD MSTORE PUSH32 0x616E206265207573656420617320666C61677300000000000000000000000000 PUSH1 0x20 DUP3 ADD MSTORE POP JUMP JUMPDEST PUSH1 0x0 PUSH2 0x502B PUSH1 0x33 DUP4 PUSH2 0x3919 JUMP JUMPDEST SWAP2 POP PUSH2 0x5036 DUP3 PUSH2 0x4FCF JUMP JUMPDEST PUSH1 0x40 DUP3 ADD SWAP1 POP SWAP2 SWAP1 POP JUMP JUMPDEST PUSH1 0x0 PUSH1 0x20 DUP3 ADD SWAP1 POP DUP2 DUP2 SUB PUSH1 0x0 DUP4 ADD MSTORE PUSH2 0x505A DUP2 PUSH2 0x501E JUMP JUMPDEST SWAP1 POP SWAP2 SWAP1 POP JUMP JUMPDEST PUSH32 0x596F7520617265206E6F7420696E206120636C616E0000000000000000000000 PUSH1 0x0 DUP3 ADD MSTORE POP JUMP JUMPDEST PUSH1 0x0 PUSH2 0x5097 PUSH1 0x15 DUP4 PUSH2 0x3919 JUMP JUMPDEST SWAP2 POP PUSH2 0x50A2 DUP3 PUSH2 0x5061 JUMP JUMPDEST PUSH1 0x20 DUP3 ADD SWAP1 POP SWAP2 SWAP1 POP JUMP JUMPDEST PUSH1 0x0 PUSH1 0x20 DUP3 ADD SWAP1 POP DUP2 DUP2 SUB PUSH1 0x0 DUP4 ADD MSTORE PUSH2 0x50C6 DUP2 PUSH2 0x508A JUMP JUMPDEST SWAP1 POP SWAP2 SWAP1 POP JUMP JUMPDEST PUSH32 0x436C616E206C65616465722063616E6E6F74206C656176652074686520636C61 PUSH1 0x0 DUP3 ADD MSTORE PUSH32 0x6E2E205573652064697362616E64436C616E20696E73746561642E0000000000 PUSH1 0x20 DUP3 ADD MSTORE POP JUMP JUMPDEST PUSH1 0x0 PUSH2 0x5129 PUSH1 0x3B DUP4 PUSH2 0x3919 JUMP JUMPDEST SWAP2 POP PUSH2 0x5134 DUP3 PUSH2 0x50CD JUMP JUMPDEST PUSH1 0x40 DUP3 ADD SWAP1 POP SWAP2 SWAP1 POP JUMP JUMPDEST PUSH1 0x0 PUSH1 0x20 DUP3 ADD SWAP1 POP DUP2 DUP2 SUB PUSH1 0x0 DUP4 ADD MSTORE PUSH2 0x5158 DUP2 PUSH2 0x511C JUMP JUMPDEST SWAP1 POP SWAP2 SWAP1 POP JUMP JUMPDEST PUSH1 0x0 PUSH2 0x516A DUP3 PUSH2 0x35D1 JUMP JUMPDEST SWAP2 POP PUSH1 0x0 DUP3 SUB PUSH2 0x517D JUMPI PUSH2 0x517C PUSH2 0x479C JUMP JUMPDEST JUMPDEST PUSH1 0x1 DUP3 SUB SWAP1 POP SWAP2 SWAP1 POP JUMP JUMPDEST PUSH1 0x0 PUSH2 0x5193 DUP3 PUSH2 0x3ADE JUMP JUMPDEST SWAP2 POP PUSH2 0x519E DUP4 PUSH2 0x3ADE JUMP JUMPDEST SWAP3 POP DUP3 DUP3 SUB SWAP1 POP DUP2 DUP2 GT ISZERO PUSH2 0x51B6 JUMPI PUSH2 0x51B5 PUSH2 0x479C JUMP JUMPDEST JUMPDEST SWAP3 SWAP2 POP POP JUMP JUMPDEST PUSH32 0x4E487B7100000000000000000000000000000000000000000000000000000000 PUSH1 0x0 MSTORE PUSH1 0x31 PUSH1 0x4 MSTORE PUSH1 0x24 PUSH1 0x0 REVERT JUMPDEST PUSH32 0x4E6F2070656E64696E6720696E7669746520666F756E64000000000000000000 PUSH1 0x0 DUP3 ADD MSTORE POP JUMP JUMPDEST PUSH1 0x0 PUSH2 0x5221 PUSH1 0x17 DUP4 PUSH2 0x3919 JUMP JUMPDEST SWAP2 POP PUSH2 0x522C DUP3 PUSH2 0x51EB JUMP JUMPDEST PUSH1 0x20 DUP3 ADD SWAP1 POP SWAP2 SWAP1 POP JUMP JUMPDEST PUSH1 0x0 PUSH1 0x20 DUP3 ADD SWAP1 POP DUP2 DUP2 SUB PUSH1 0x0 DUP4 ADD MSTORE PUSH2 0x5250 DUP2 PUSH2 0x5214 JUMP JUMPDEST SWAP1 POP SWAP2 SWAP1 POP JUMP JUMPDEST PUSH32 0x4D656D626572206973206E6F7420696E207468697320636C616E000000000000 PUSH1 0x0 DUP3 ADD MSTORE POP JUMP JUMPDEST PUSH1 0x0 PUSH2 0x528D PUSH1 0x1A DUP4 PUSH2 0x3919 JUMP JUMPDEST SWAP2 POP PUSH2 0x5298 DUP3 PUSH2 0x5257 JUMP JUMPDEST PUSH1 0x20 DUP3 ADD SWAP1 POP SWAP2 SWAP1 POP JUMP JUMPDEST PUSH1 0x0 PUSH1 0x20 DUP3 ADD SWAP1 POP DUP2 DUP2 SUB PUSH1 0x0 DUP4 ADD MSTORE PUSH2 0x52BC DUP2 PUSH2 0x5280 JUMP JUMPDEST SWAP1 POP SWAP2 SWAP1 POP JUMP JUMPDEST PUSH32 0x4E6F2074696C6520666F756E6420666F72207573657200000000000000000000 PUSH1 0x0 DUP3 ADD MSTORE POP JUMP JUMPDEST PUSH1 0x0 PUSH2 0x52F9 PUSH1 0x16 DUP4 PUSH2 0x3919 JUMP JUMPDEST SWAP2 POP PUSH2 0x5304 DUP3 PUSH2 0x52C3 JUMP JUMPDEST PUSH1 0x20 DUP3 ADD SWAP1 POP SWAP2 SWAP1 POP JUMP JUMPDEST PUSH1 0x0 PUSH1 0x20 DUP3 ADD SWAP1 POP DUP2 DUP2 SUB PUSH1 0x0 DUP4 ADD MSTORE PUSH2 0x5328 DUP2 PUSH2 0x52EC JUMP JUMPDEST SWAP1 POP SWAP2 SWAP1 POP JUMP INVALID LOG2 PUSH5 0x6970667358 0x22 SLT KECCAK256 CODESIZE 0xE7 0xBD 0x24 0x5E SLT TIMESTAMP 0xAF EQ JUMPI 0xB0 0xD4 0xDB ADDMOD SWAP7 0xEE BALANCE CALLDATASIZE PUSH31 0x78AA091B704432129B1D9698D564736F6C6343000812003300000000000000 "
		},
		"gasEstimates": {
			"creation": {
				"codeDepositCost": "4269800",
				"executionCost": "infinite",
				"totalCost": "infinite"
			},
			"external": {
				"CLAN_CREATION_COST()": "397",
				"MAX_MEMBERS()": "423",
				"TILE_NAMING_COST()": "440",
				"acceptInvite()": "infinite",
				"clanFlags(uint8)": "2881",
				"clanMembers(uint8,uint256)": "5272",
				"clans(uint8)": "infinite",
				"createClan(string)": "infinite",
				"disbandClan(uint8)": "infinite",
				"getAllClans()": "infinite",
				"getAllTilesWithClans()": "infinite",
				"getClanInfo(uint8)": "infinite",
				"getClanMemberCount(uint8)": "infinite",
				"getClanMembers(uint8)": "infinite",
				"getTileClan(uint8,uint8)": "infinite",
				"getTileName(uint8,uint8)": "infinite",
				"inviteToClan(uint8,address)": "infinite",
				"leaveClan()": "infinite",
				"lopToken()": "infinite",
				"members(address)": "5265",
				"nameTile(uint8,uint8,string)": "infinite",
				"nftMarket()": "infinite",
				"pendingInvites(address)": "2891",
				"refuseInvite()": "26796",
				"removeMember(uint8,address)": "infinite",
				"setClanFlag(uint8,uint256)": "infinite",
				"tileClans(uint8,uint8)": "infinite",
				"tileMapPhaser()": "infinite",
				"tileNames(uint8,uint8)": "infinite"
			},
			"internal": {
				"getTileCoordinates(address)": "infinite",
				"hasTile(address)": "infinite"
			}
		},
		"methodIdentifiers": {
			"CLAN_CREATION_COST()": "731ae689",
			"MAX_MEMBERS()": "ea0e35b1",
			"TILE_NAMING_COST()": "62c5813d",
			"acceptInvite()": "bbb4d3e9",
			"clanFlags(uint8)": "eaa10576",
			"clanMembers(uint8,uint256)": "1db8d500",
			"clans(uint8)": "d4ceeec0",
			"createClan(string)": "14cebc71",
			"disbandClan(uint8)": "bde7ef82",
			"getAllClans()": "9b21d6eb",
			"getAllTilesWithClans()": "2dec2e63",
			"getClanInfo(uint8)": "2fad0429",
			"getClanMemberCount(uint8)": "9d995717",
			"getClanMembers(uint8)": "0636fcb2",
			"getTileClan(uint8,uint8)": "7ab9e7fe",
			"getTileName(uint8,uint8)": "09e59cec",
			"inviteToClan(uint8,address)": "69274803",
			"leaveClan()": "aae1aa37",
			"lopToken()": "0d67f59e",
			"members(address)": "08ae4b0c",
			"nameTile(uint8,uint8,string)": "0821de3e",
			"nftMarket()": "196ab1ab",
			"pendingInvites(address)": "1d0373ad",
			"refuseInvite()": "86722228",
			"removeMember(uint8,address)": "c2024ede",
			"setClanFlag(uint8,uint256)": "9adff8d0",
			"tileClans(uint8,uint8)": "58612a20",
			"tileMapPhaser()": "4f264b03",
			"tileNames(uint8,uint8)": "7b0c98ef"
		}
	},
	"abi": [
		{
			"inputs": [
				{
					"internalType": "address",
					"name": "_tileMapPhaser",
					"type": "address"
				},
				{
					"internalType": "address",
					"name": "_lopToken",
					"type": "address"
				},
				{
					"internalType": "address",
					"name": "_nftMarket",
					"type": "address"
				}
			],
			"stateMutability": "nonpayable",
			"type": "constructor"
		},
		{
			"anonymous": false,
			"inputs": [
				{
					"indexed": false,
					"internalType": "uint8",
					"name": "clanId",
					"type": "uint8"
				},
				{
					"indexed": false,
					"internalType": "string",
					"name": "name",
					"type": "string"
				},
				{
					"indexed": false,
					"internalType": "address",
					"name": "leader",
					"type": "address"
				}
			],
			"name": "ClanCreated",
			"type": "event"
		},
		{
			"anonymous": false,
			"inputs": [
				{
					"indexed": false,
					"internalType": "uint8",
					"name": "clanId",
					"type": "uint8"
				},
				{
					"indexed": false,
					"internalType": "address",
					"name": "leader",
					"type": "address"
				}
			],
			"name": "ClanDisbanded",
			"type": "event"
		},
		{
			"anonymous": false,
			"inputs": [
				{
					"indexed": false,
					"internalType": "uint8",
					"name": "clanId",
					"type": "uint8"
				},
				{
					"indexed": false,
					"internalType": "address",
					"name": "invitedPlayer",
					"type": "address"
				}
			],
			"name": "ClanInvited",
			"type": "event"
		},
		{
			"anonymous": false,
			"inputs": [
				{
					"indexed": false,
					"internalType": "uint8",
					"name": "clanId",
					"type": "uint8"
				},
				{
					"indexed": false,
					"internalType": "address",
					"name": "member",
					"type": "address"
				}
			],
			"name": "ClanJoined",
			"type": "event"
		},
		{
			"anonymous": false,
			"inputs": [
				{
					"indexed": false,
					"internalType": "uint8",
					"name": "clanId",
					"type": "uint8"
				},
				{
					"indexed": false,
					"internalType": "address",
					"name": "member",
					"type": "address"
				}
			],
			"name": "MemberRemoved",
			"type": "event"
		},
		{
			"anonymous": false,
			"inputs": [
				{
					"indexed": false,
					"internalType": "uint8",
					"name": "x",
					"type": "uint8"
				},
				{
					"indexed": false,
					"internalType": "uint8",
					"name": "y",
					"type": "uint8"
				},
				{
					"indexed": true,
					"internalType": "address",
					"name": "owner",
					"type": "address"
				},
				{
					"indexed": false,
					"internalType": "string",
					"name": "name",
					"type": "string"
				}
			],
			"name": "TileNamed",
			"type": "event"
		},
		{
			"inputs": [],
			"name": "CLAN_CREATION_COST",
			"outputs": [
				{
					"internalType": "uint256",
					"name": "",
					"type": "uint256"
				}
			],
			"stateMutability": "view",
			"type": "function"
		},
		{
			"inputs": [],
			"name": "MAX_MEMBERS",
			"outputs": [
				{
					"internalType": "uint8",
					"name": "",
					"type": "uint8"
				}
			],
			"stateMutability": "view",
			"type": "function"
		},
		{
			"inputs": [],
			"name": "TILE_NAMING_COST",
			"outputs": [
				{
					"internalType": "uint256",
					"name": "",
					"type": "uint256"
				}
			],
			"stateMutability": "view",
			"type": "function"
		},
		{
			"inputs": [],
			"name": "acceptInvite",
			"outputs": [],
			"stateMutability": "nonpayable",
			"type": "function"
		},
		{
			"inputs": [
				{
					"internalType": "uint8",
					"name": "",
					"type": "uint8"
				}
			],
			"name": "clanFlags",
			"outputs": [
				{
					"internalType": "uint256",
					"name": "",
					"type": "uint256"
				}
			],
			"stateMutability": "view",
			"type": "function"
		},
		{
			"inputs": [
				{
					"internalType": "uint8",
					"name": "",
					"type": "uint8"
				},
				{
					"internalType": "uint256",
					"name": "",
					"type": "uint256"
				}
			],
			"name": "clanMembers",
			"outputs": [
				{
					"internalType": "address",
					"name": "",
					"type": "address"
				}
			],
			"stateMutability": "view",
			"type": "function"
		},
		{
			"inputs": [
				{
					"internalType": "uint8",
					"name": "",
					"type": "uint8"
				}
			],
			"name": "clans",
			"outputs": [
				{
					"internalType": "string",
					"name": "name",
					"type": "string"
				},
				{
					"internalType": "address",
					"name": "leader",
					"type": "address"
				},
				{
					"internalType": "uint8",
					"name": "memberCount",
					"type": "uint8"
				},
				{
					"internalType": "bool",
					"name": "exists",
					"type": "bool"
				}
			],
			"stateMutability": "view",
			"type": "function"
		},
		{
			"inputs": [
				{
					"internalType": "string",
					"name": "name",
					"type": "string"
				}
			],
			"name": "createClan",
			"outputs": [],
			"stateMutability": "nonpayable",
			"type": "function"
		},
		{
			"inputs": [
				{
					"internalType": "uint8",
					"name": "clanId",
					"type": "uint8"
				}
			],
			"name": "disbandClan",
			"outputs": [],
			"stateMutability": "nonpayable",
			"type": "function"
		},
		{
			"inputs": [],
			"name": "getAllClans",
			"outputs": [
				{
					"components": [
						{
							"internalType": "string",
							"name": "name",
							"type": "string"
						},
						{
							"internalType": "address",
							"name": "leader",
							"type": "address"
						},
						{
							"internalType": "uint8",
							"name": "memberCount",
							"type": "uint8"
						},
						{
							"internalType": "bool",
							"name": "exists",
							"type": "bool"
						}
					],
					"internalType": "struct Clan.ClanInfo[]",
					"name": "",
					"type": "tuple[]"
				}
			],
			"stateMutability": "view",
			"type": "function"
		},
		{
			"inputs": [],
			"name": "getAllTilesWithClans",
			"outputs": [
				{
					"components": [
						{
							"internalType": "uint8",
							"name": "x",
							"type": "uint8"
						},
						{
							"internalType": "uint8",
							"name": "y",
							"type": "uint8"
						},
						{
							"internalType": "uint8",
							"name": "clanId",
							"type": "uint8"
						},
						{
							"internalType": "uint256",
							"name": "flagTokenId",
							"type": "uint256"
						}
					],
					"internalType": "struct Clan.TileClanInfo[]",
					"name": "",
					"type": "tuple[]"
				}
			],
			"stateMutability": "view",
			"type": "function"
		},
		{
			"inputs": [
				{
					"internalType": "uint8",
					"name": "clanId",
					"type": "uint8"
				}
			],
			"name": "getClanInfo",
			"outputs": [
				{
					"components": [
						{
							"internalType": "string",
							"name": "name",
							"type": "string"
						},
						{
							"internalType": "address",
							"name": "leader",
							"type": "address"
						},
						{
							"internalType": "uint8",
							"name": "memberCount",
							"type": "uint8"
						},
						{
							"internalType": "bool",
							"name": "exists",
							"type": "bool"
						}
					],
					"internalType": "struct Clan.ClanInfo",
					"name": "",
					"type": "tuple"
				}
			],
			"stateMutability": "view",
			"type": "function"
		},
		{
			"inputs": [
				{
					"internalType": "uint8",
					"name": "clanId",
					"type": "uint8"
				}
			],
			"name": "getClanMemberCount",
			"outputs": [
				{
					"internalType": "uint8",
					"name": "",
					"type": "uint8"
				}
			],
			"stateMutability": "view",
			"type": "function"
		},
		{
			"inputs": [
				{
					"internalType": "uint8",
					"name": "clanId",
					"type": "uint8"
				}
			],
			"name": "getClanMembers",
			"outputs": [
				{
					"internalType": "address[]",
					"name": "",
					"type": "address[]"
				}
			],
			"stateMutability": "view",
			"type": "function"
		},
		{
			"inputs": [
				{
					"internalType": "uint8",
					"name": "x",
					"type": "uint8"
				},
				{
					"internalType": "uint8",
					"name": "y",
					"type": "uint8"
				}
			],
			"name": "getTileClan",
			"outputs": [
				{
					"internalType": "uint8",
					"name": "",
					"type": "uint8"
				}
			],
			"stateMutability": "view",
			"type": "function"
		},
		{
			"inputs": [
				{
					"internalType": "uint8",
					"name": "x",
					"type": "uint8"
				},
				{
					"internalType": "uint8",
					"name": "y",
					"type": "uint8"
				}
			],
			"name": "getTileName",
			"outputs": [
				{
					"internalType": "string",
					"name": "",
					"type": "string"
				}
			],
			"stateMutability": "view",
			"type": "function"
		},
		{
			"inputs": [
				{
					"internalType": "uint8",
					"name": "clanId",
					"type": "uint8"
				},
				{
					"internalType": "address",
					"name": "player",
					"type": "address"
				}
			],
			"name": "inviteToClan",
			"outputs": [],
			"stateMutability": "nonpayable",
			"type": "function"
		},
		{
			"inputs": [],
			"name": "leaveClan",
			"outputs": [],
			"stateMutability": "nonpayable",
			"type": "function"
		},
		{
			"inputs": [],
			"name": "lopToken",
			"outputs": [
				{
					"internalType": "contract IHarmLop",
					"name": "",
					"type": "address"
				}
			],
			"stateMutability": "view",
			"type": "function"
		},
		{
			"inputs": [
				{
					"internalType": "address",
					"name": "",
					"type": "address"
				}
			],
			"name": "members",
			"outputs": [
				{
					"internalType": "uint8",
					"name": "clanId",
					"type": "uint8"
				},
				{
					"internalType": "bool",
					"name": "isMember",
					"type": "bool"
				}
			],
			"stateMutability": "view",
			"type": "function"
		},
		{
			"inputs": [
				{
					"internalType": "uint8",
					"name": "x",
					"type": "uint8"
				},
				{
					"internalType": "uint8",
					"name": "y",
					"type": "uint8"
				},
				{
					"internalType": "string",
					"name": "newName",
					"type": "string"
				}
			],
			"name": "nameTile",
			"outputs": [],
			"stateMutability": "nonpayable",
			"type": "function"
		},
		{
			"inputs": [],
			"name": "nftMarket",
			"outputs": [
				{
					"internalType": "contract IMyNFTMarket",
					"name": "",
					"type": "address"
				}
			],
			"stateMutability": "view",
			"type": "function"
		},
		{
			"inputs": [
				{
					"internalType": "address",
					"name": "",
					"type": "address"
				}
			],
			"name": "pendingInvites",
			"outputs": [
				{
					"internalType": "uint8",
					"name": "",
					"type": "uint8"
				}
			],
			"stateMutability": "view",
			"type": "function"
		},
		{
			"inputs": [],
			"name": "refuseInvite",
			"outputs": [],
			"stateMutability": "nonpayable",
			"type": "function"
		},
		{
			"inputs": [
				{
					"internalType": "uint8",
					"name": "clanId",
					"type": "uint8"
				},
				{
					"internalType": "address",
					"name": "member",
					"type": "address"
				}
			],
			"name": "removeMember",
			"outputs": [],
			"stateMutability": "nonpayable",
			"type": "function"
		},
		{
			"inputs": [
				{
					"internalType": "uint8",
					"name": "clanId",
					"type": "uint8"
				},
				{
					"internalType": "uint256",
					"name": "tokenId",
					"type": "uint256"
				}
			],
			"name": "setClanFlag",
			"outputs": [],
			"stateMutability": "nonpayable",
			"type": "function"
		},
		{
			"inputs": [
				{
					"internalType": "uint8",
					"name": "",
					"type": "uint8"
				},
				{
					"internalType": "uint8",
					"name": "",
					"type": "uint8"
				}
			],
			"name": "tileClans",
			"outputs": [
				{
					"internalType": "uint8",
					"name": "",
					"type": "uint8"
				}
			],
			"stateMutability": "view",
			"type": "function"
		},
		{
			"inputs": [],
			"name": "tileMapPhaser",
			"outputs": [
				{
					"internalType": "contract ITileMapPhaser",
					"name": "",
					"type": "address"
				}
			],
			"stateMutability": "view",
			"type": "function"
		},
		{
			"inputs": [
				{
					"internalType": "uint8",
					"name": "",
					"type": "uint8"
				},
				{
					"internalType": "uint8",
					"name": "",
					"type": "uint8"
				}
			],
			"name": "tileNames",
			"outputs": [
				{
					"internalType": "string",
					"name": "",
					"type": "string"
				}
			],
			"stateMutability": "view",
			"type": "function"
		}
	]
}