{
	"data": {
		"bytecode": {
			"linkReferences": {},
			"object": "60046103008181526103208290526103408290526103608290526103808290526103a082905260036103c08190526103e081905261040081905261042081905261044081905261046081905260026104808190526104a081905260016104c08190526104e082905261050082905261052082905261054082905261056082905260809384526105808581526105a08690526105c08690526105e08690526106008690526106208690526106408690526106608490526106808490526106a08490526106c08490526106e08490526107008390526107208290526107408290526107608390526107808390526107a08390526107c08390526107e083905260a0526108008581526108208690526108408690526108608690526108808690526108a08690526108c08690526108e08690526109008490526109208490526109408490526109608490526109808390526109a08390526109c08290526109e0829052610a00839052610a20839052610a40839052610a6083905260c052610a80858152610aa0869052610ac0869052610ae0869052610b00869052610b20869052610b40869052610b6095909552610b80839052610ba0839052610bc0839052610be0839052610c00839052610c20819052610c40819052610c60819052610c80829052610ca0829052610cc0829052610ce082905260e094909452610d00828152610d20839052610d40839052610d60839052610d80839052610da0839052610dc0839052610de0839052610e00839052610e20839052610e40839052610e60839052610e80859052610ea0859052610ec0859052610ee0859052610f00829052610f20829052610f40829052610f6082905261010052610f80828152610fa0839052610fc0839052610fe08390526110008390526110208390526110408390526110608390526110808390526110a08390526110c08390526110e08390526111008590526111208590526111408590526111608590526111808290526111a08290526111c08290526111e0829052610120526112008281526112208390526112408390526112608390526112808390526112a08390526112c08390526112e08390526113008390526113208390526113408390526113608390526113808590526113a08590526113c08590526113e0859052611400859052611420859052611440859052611460859052610140526114808281526114a08390526114c08390526114e08590526115008390526115208390526115408390526115608390526115808390526115a08390526115c08390526115e08590526116008290526116208290526116408290526116608290526116808590526116a08590526116c08590526116e0859052610160526117008281526117208390526117408390526117608590526117808590526117a08290526117c08290526117e08290526118008290526118208290526118408290526118608590526118808290526118a08290526118c08290526118e0829052611900829052611920829052611940829052611960859052610180526119808481526119a08290526119c08290526119e0859052611a00829052611a20829052611a40829052611a60829052611a80829052611aa0829052611ac0829052611ae0859052611b00829052611b20829052611b40829052611b60829052611b80829052611ba0829052611bc0829052611be08590526101a052611c00818152611c20829052611c40859052611c60859052611c80829052611ca0829052611cc0829052611ce0829052611d00829052611d20829052611d40859052611d60859052611d80829052611da0829052611dc0829052611de0829052611e00829052611e20829052611e40859052611e608590526101c052611e80828152611ea0839052611ec0839052611ee0829052611f00859052611f20829052611f40829052611f60829052611f80829052611fa0829052611fc0859052611fe08290526120008290526120208290526120408290526120608590526120808590526120a08590526120c08590526120e08590526101e0526121008281526121208390526121408390526121608390526121808590526121a08590526121c08290526121e08290526122008290526122208290526122408590526122608590526122808290526122a08290526122c08290526122e0859052612300859052612320859052612340859052612360859052610200526123808281526123a08390526123c08390526123e08390526124008390526124208590526124408290526124608290526124808290526124a08290526124c08590526124e08590526125008590526125208290526125408290526125608290526125808290526125a08590526125c08590526125e0859052610220526126008281526126208390526126408390526126608390526126808390526126a08290526126c08290526126e08290526127008390526127208390526127408290526127608290526127808590526127a08290526127c08290526127e0829052612800829052612820859052612840859052612860859052610240526128808181526128a08290526128c08290526128e08590526129008590526129208590526129408590526129608590526129808390526129a08390526129c08390526129e0839052612a00859052612a20859052612a40829052612a60829052612a80829052612aa0859052612ac0859052612ae085905261026052612b00818152612b20829052612b40829052612b60829052612b80829052612ba0829052612bc0859052612be0859052612c00839052612c20839052612c40839052612c60839052612c80859052612ca0859052612cc0859052612ce0859052612d00839052612d20839052612d40829052612d6082905261028052612d80818152612da0829052612dc0829052612de0829052612e00829052612e20829052612e40829052612e60859052612e80839052612ea0839052612ec0839052612ee0839052612f00859052612f20859052612f40859052612f60859052612f80839052612fa0839052612fc0829052612fe08290526102a0526130008181526130208290526130408290526130608290526130808290526130a08290526130c08290526130e08590526131008590526131208290526131408290526131608590526131808590526131a08290526131c08290526131e08590526132008390526132208390526132408290526132608290526102c0526135006040526132808181526132a08290526132c08290526132e08290526133008290526133208290526133408290526133608590526133808590526133a08590526133c08590526133e0859052613400859052613420859052613440949094526134608290526134808290526134a0919091526134c08190526134e0526102e091909152620009d290600090601462000a57565b50348015620009e057600080fd5b50604051620051f7380380620051f783398101604081905262000a039162000b87565b601480546001600160a01b039586166001600160a01b031991821617909155601580549486169482169490941790935560218054928516928416929092179091556016805491909316911617905562000be4565b826014810192821562000a96579160200282015b8281111562000a9657825162000a85908390601462000aa8565b509160200191906001019062000a6b565b5062000aa492915062000b3e565b5090565b60018301918390821562000b305791602002820160005b8382111562000aff57835183826101000a81548160ff021916908360ff160217905550926020019260010160208160000104928301926001030262000abf565b801562000b2e5782816101000a81549060ff021916905560010160208160000104928301926001030262000aff565b505b5062000aa492915062000b54565b8082111562000aa4576000815560010162000b3e565b8082111562000aa4576000815560010162000b3e565b80516001600160a01b038116811462000b8257600080fd5b919050565b6000806000806080858703121562000b9e57600080fd5b62000ba98562000b6a565b935062000bb96020860162000b6a565b925062000bc96040860162000b6a565b915062000bd96060860162000b6a565b905092959194509250565b6146038062000bf46000396000f3fe608060405234801561001057600080fd5b506004361061027f5760003560e01c80635c0068a21161015c578063b0d77774116100ce578063e4547fb411610087578063e4547fb414610649578063e6192fca14610649578063ea0e35b114610654578063eaa105761461065c578063f15ad2641461067c578063fd7c31a61461068f57600080fd5b8063b0d77774146105b3578063bc9955a2146105c6578063bfc22a82146105d9578063c0ad21d8146105ec578063d1433201146105ff578063d4ceeec01461062557600080fd5b80637ab9e7fe116101205780637ab9e7fe146105225780637b0c98ef1461055257806398a8d0e7146105655780639b21d6eb146105785780639d9957171461058d578063a609775b146105a057600080fd5b80635c0068a2146104e457806362c5813d146104f757806365191666146104f75780636573c24114610503578063731ae6891461051657600080fd5b80632e4b51bd116101f55780633f9662bb116101b95780633f9662bb1461045c57806340b76bbd1461046f57806344ad764d146104925780634f264b03146104a55780635387a7971461039157806358612a20146104b857600080fd5b80632e4b51bd146102c25780632f57741c146103b15780632fad0429146103c457806336780527146103e45780633942613c1461041757600080fd5b8063154538ab11610247578063154538ab14610319578063196ab1ab146103465780631cecb4fb146103595780632a2026a91461036c5780632c6d422f146103915780632dec2e631461039c57600080fd5b80630821de3e1461028457806309e59cec146102995780630cea9dc5146102c25780630d67f59e146102db57806313a5cede14610306575b600080fd5b610297610292366004613ac1565b6106a2565b005b6102ac6102a7366004613b21565b6108b3565b6040516102b99190613ba4565b60405180910390f35b6102cd633b9aca0081565b6040519081526020016102b9565b6015546102ee906001600160a01b031681565b6040516001600160a01b0390911681526020016102b9565b6102ac610314366004613bd3565b610968565b61032c610327366004613bf0565b610a02565b6040805160ff9384168152929091166020830152016102b9565b6021546102ee906001600160a01b031681565b610297610367366004613b21565b610a6a565b61037f61037a366004613b21565b6110a8565b60405160ff90911681526020016102b9565b6102cd6335a4e90081565b6103a461114b565b6040516102b99190613c0b565b6102976103bf366004613c77565b611317565b6103d76103d2366004613bf0565b611336565b6040516102b99190613d0c565b6104076103f2366004613d1f565b60176020526000908152604090205460ff1681565b60405190151581526020016102b9565b610443610425366004613d38565b601b6020526000908152604090205460ff8082169161010090041682565b6040805160ff90931683529015156020830152016102b9565b61040761046a366004613c77565b61144f565b61037f61047d366004613d38565b601d6020526000908152604090205460ff1681565b6102976104a0366004613b21565b6114ac565b6014546102ee906001600160a01b031681565b61037f6104c6366004613b21565b60208080526000928352604080842090915290825290205460ff1681565b6102976104f2366004613d5c565b6115da565b6102cd6402540be40081565b610297610511366004613da7565b611a09565b6102cd64174876e80081565b61037f610530366004613b21565b60ff918216600090815260208080526040808320938516835292905220541690565b6102ac610560366004613b21565b611d70565b610297610573366004613ac1565b611d94565b61058061239b565b6040516102b99190613dea565b61037f61059b366004613bf0565b6125cf565b6102976105ae366004613b21565b61262f565b6016546102ee906001600160a01b031681565b61037f6105d4366004613e4c565b612932565b6103a46105e7366004613bf0565b61296e565b6102976105fa366004613e6e565b612a97565b61061261060d366004613ed3565b612e79565b60405161ffff90911681526020016102b9565b610638610633366004613bf0565b612ec0565b6040516102b9959493929190613efd565b6102cd6305f5e10081565b61037f601e81565b6102cd61066a366004613bf0565b60226020526000908152604090205481565b6102ac61068a366004613bd3565b612f83565b61029761069d366004613e6e565b61302f565b806106eb5760405162461bcd60e51b81526020600482015260146024820152734e616d652063616e6e6f7420626520656d70747960601b60448201526064015b60405180910390fd5b601454604051638a88895360e01b815260ff80871660048301528516602482015233916001600160a01b031690638a88895390604401602060405180830381865afa15801561073e573d6000803e3d6000fd5b505050506040513d601f19601f820116820180604052508101906107629190613f4a565b6001600160a01b0316146107c35760405162461bcd60e51b815260206004820152602260248201527f596f7520617265206e6f7420746865206f776e6572206f6620746869732074696044820152616c6560f01b60648201526084016106e2565b6015546040516323b872dd60e01b81526001600160a01b03909116906323b872dd906107fc90339030906402540be40090600401613f67565b6020604051808303816000875af115801561081b573d6000803e3d6000fd5b505050506040513d601f19601f8201168201806040525081019061083f9190613f8b565b6108825760405162461bcd60e51b8152602060048201526014602482015273151bdad95b881c185e5b595b9d0819985a5b195960621b60448201526064016106e2565b60ff8085166000908152601e602090815260408083209387168352929052206108ac82848361404b565b5050505050565b60ff8083166000908152601e602090815260408083209385168352929052208054606091906108e190613fc3565b80601f016020809104026020016040519081016040528092919081815260200182805461090d90613fc3565b801561095a5780601f1061092f5761010080835404028352916020019161095a565b820191906000526020600020905b81548152906001019060200180831161093d57829003601f168201915b505050505090505b92915050565b601f602052600090815260409020805461098190613fc3565b80601f01602080910402602001604051908101604052809291908181526020018280546109ad90613fc3565b80156109fa5780601f106109cf576101008083540402835291602001916109fa565b820191906000526020600020905b8154815290600101906020018083116109dd57829003601f168201915b505050505081565b60ff8082166000908152601a6020526040812060010154909182916301000000900416610a415760405162461bcd60e51b81526004016106e29061410a565b505060ff9081166000908152601a60205260409020600101548082169261010090910490911690565b601454604051638a88895360e01b815260ff8085166004830152831660248201528391839133916001600160a01b031690638a88895390604401602060405180830381865afa158015610ac1573d6000803e3d6000fd5b505050506040513d601f19601f82011682018060405250810190610ae59190613f4a565b6001600160a01b031614610b0b5760405162461bcd60e51b81526004016106e290614137565b60ff838116600886901b61ff0016176000818152601b6020526040902054909161010090910416610b735760405162461bcd60e51b81526020600482015260126024820152712a34b632903737ba1034b710309031b630b760711b60448201526064016106e2565b61ffff81166000908152601b602090815260408083205460ff908116808552601a9093529220600101549091630100000090910416610bc45760405162461bcd60e51b81526004016106e29061410a565b60ff8181166000908152601a60205260409020600101548116908716148015610c0b575060ff8181166000908152601a602052604090206001015461010090048116908616145b15610c585760405162461bcd60e51b815260206004820152601860248201527f4c65616465722074696c652063616e6e6f74206c65617665000000000000000060448201526064016106e2565b6015546040516323b872dd60e01b81526001600160a01b03909116906323b872dd90610c909033903090633b9aca0090600401613f67565b6020604051808303816000875af1158015610caf573d6000803e3d6000fd5b505050506040513d601f19601f82011682018060405250810190610cd39190613f8b565b610cef5760405162461bcd60e51b81526004016106e29061416e565b61ffff82166000908152601b60209081526040808320805461ff001916905560ff898116845282805281842089821685528352818420805460ff191690558481168452601a9092529091206001018054620100009004909116906002610d54836141b1565b82546101009290920a60ff81810219909316918316021790915582166000908152601c6020526040812091505b8154811015610ea0578361ffff16828281548110610da157610da16141ce565b60009182526020909120601082040154600f9091166002026101000a900461ffff1603610e8e5781548290610dd8906001906141e4565b81548110610de857610de86141ce565b90600052602060002090601091828204019190066002029054906101000a900461ffff16828281548110610e1e57610e1e6141ce565b90600052602060002090601091828204019190066002026101000a81548161ffff021916908361ffff16021790555081805480610e5d57610e5d6141f7565b600082815260209020601060001990920191820401805461ffff6002600f8516026101000a02191690559055610ea0565b80610e988161420d565b915050610d81565b5060145460ff8381166000908152601a6020526040808220600101549051638a88895360e01b815281841660048201526101009091049092166024830152916001600160a01b031690638a88895390604401602060405180830381865afa158015610f0f573d6000803e3d6000fd5b505050506040513d601f19601f82011682018060405250810190610f339190613f4a565b60155460405163a9059cbb60e01b81526001600160a01b0380841660048301526335a4e900602483015292935091169063a9059cbb906044016020604051808303816000875af1158015610f8b573d6000803e3d6000fd5b505050506040513d601f19601f82011682018060405250810190610faf9190613f8b565b610ff25760405162461bcd60e51b815260206004820152601460248201527313195859195c881c185e5bdd5d0819985a5b195960621b60448201526064016106e2565b601554604051630852cd8d60e31b81526305f5e10060048201526001600160a01b03909116906342966c68906024016020604051808303816000875af1158015611040573d6000803e3d6000fd5b505050506040513d601f19601f820116820180604052508101906110649190613f8b565b61109e5760405162461bcd60e51b815260206004820152600b60248201526a109d5c9b8819985a5b195960aa1b60448201526064016106e2565b5050505050505050565b600060148360ff161080156110c0575060148260ff16105b6111025760405162461bcd60e51b8152602060048201526013602482015272496e76616c696420636f6f7264696e6174657360681b60448201526064016106e2565b60008360ff1660148110611118576111186141ce565b018260ff166014811061112d5761112d6141ce565b602081049091015460ff601f9092166101000a900416905092915050565b60606000805b60148160ff1610156111c45760005b60148160ff1610156111b15760ff8083166000908152602080805260408083208585168452909152902054161561119f578261119b8161420d565b9350505b806111a981614226565b915050611160565b50806111bc81614226565b915050611151565b506000816001600160401b038111156111df576111df613fad565b60405190808252806020026020018201604052801561123157816020015b6040805160808101825260008082526020808301829052928201819052606082015282526000199092019101816111fd5790505b5090506000805b60148160ff16101561130e5760005b60148160ff1610156112fb5760ff80831660009081526020808052604080832085851684529091529020541680156112e85760405180608001604052808460ff1681526020018360ff1681526020018260ff168152602001602260008460ff1660ff168152602001908152602001600020548152508585815181106112ce576112ce6141ce565b602002602001018190525083806112e49061420d565b9450505b50806112f381614226565b915050611247565b508061130681614226565b915050611238565b50909392505050565b336000908152601f6020526040902061133182848361404b565b505050565b6040805160a08101825260608082526000602083018190529282018390528101829052608081019190915260ff82166000908152601a602052604090819020815160a0810190925280548290829061138d90613fc3565b80601f01602080910402602001604051908101604052809291908181526020018280546113b990613fc3565b80156114065780601f106113db57610100808354040283529160200191611406565b820191906000526020600020905b8154815290600101906020018083116113e957829003601f168201915b50505091835250506001919091015460ff808216602084015261010082048116604084015262010000820481166060840152630100000090910416151560809091015292915050565b60008061149184848080601f01602080910402602001604051908101604052809392919081815260200183838082843760009201919091525061376292505050565b60009081526017602052604090205460ff1615949350505050565b601454604051638a88895360e01b815260ff8085166004830152831660248201528391839133916001600160a01b031690638a88895390604401602060405180830381865afa158015611503573d6000803e3d6000fd5b505050506040513d601f19601f820116820180604052508101906115279190613f4a565b6001600160a01b03161461154d5760405162461bcd60e51b81526004016106e290614137565b60ff838116600886901b61ff0016176000818152601d60205260409020549091166115ba5760405162461bcd60e51b815260206004820152601f60248201527f4e6f2070656e64696e6720696e7669746520666f7220746869732074696c650060448201526064016106e2565b61ffff166000908152601d60205260409020805460ff1916905550505050565b60ff8085166000908152601a602052604090206001015485918591859163010000009091041661161c5760405162461bcd60e51b81526004016106e29061410a565b60ff8381166000908152601a60205260409020600101548116908316148015611663575060ff8381166000908152601a602052604090206001015461010090048116908216145b61167f5760405162461bcd60e51b81526004016106e290614245565b601454604051638a88895360e01b815260ff80851660048301528316602482015233916001600160a01b031690638a88895390604401602060405180830381865afa1580156116d2573d6000803e3d6000fd5b505050506040513d601f19601f820116820180604052508101906116f69190613f4a565b6001600160a01b03161461171c5760405162461bcd60e51b81526004016106e29061426e565b6021546040516331a9108f60e11b81526004810186905233916001600160a01b031690636352211e90602401602060405180830381865afa158015611765573d6000803e3d6000fd5b505050506040513d601f19601f820116820180604052508101906117899190613f4a565b6001600160a01b0316146117d85760405162461bcd60e51b8152602060048201526016602482015275165bdd48191bdb89dd081bdddb881d1a1a5cc813919560521b60448201526064016106e2565b6021546040516302b5313d60e21b8152600481018690526000916001600160a01b031690630ad4c4f490602401600060405180830381865afa158015611822573d6000803e3d6000fd5b505050506040513d6000823e601f3d908101601f1916820160405261184a919081019061432c565b509950505050505050505050806001146118c25760405162461bcd60e51b815260206004820152603360248201527f4f6e6c79204e4654732066726f6d20636f6c6c656374696f6e20494420312063604482015272616e206265207573656420617320666c61677360681b60648201526084016106e2565b601654604051630d662af560e11b815260ff808a166004830152881660248201526001600160a01b0390911690631acc55ea90604401602060405180830381865afa158015611915573d6000803e3d6000fd5b505050506040513d601f19601f820116820180604052508101906119399190613f8b565b6119555760405162461bcd60e51b81526004016106e290614478565b6015546040516323b872dd60e01b81526001600160a01b03909116906323b872dd9061198e90339030906402540be40090600401613f67565b6020604051808303816000875af11580156119ad573d6000803e3d6000fd5b505050506040513d601f19601f820116820180604052508101906119d19190613f8b565b6119ed5760405162461bcd60e51b81526004016106e29061416e565b50505060ff909416600090815260226020526040902055505050565b60ff8084166000908152601a6020526040902060010154849184918491630100000090910416611a4b5760405162461bcd60e51b81526004016106e29061410a565b60ff8381166000908152601a60205260409020600101548116908316148015611a92575060ff8381166000908152601a602052604090206001015461010090048116908216145b611aae5760405162461bcd60e51b81526004016106e290614245565b601454604051638a88895360e01b815260ff80851660048301528316602482015233916001600160a01b031690638a88895390604401602060405180830381865afa158015611b01573d6000803e3d6000fd5b505050506040513d601f19601f82011682018060405250810190611b259190613f4a565b6001600160a01b031614611b4b5760405162461bcd60e51b81526004016106e29061426e565b601654604051630d662af560e11b815260ff8088166004830152861660248201526001600160a01b0390911690631acc55ea90604401602060405180830381865afa158015611b9e573d6000803e3d6000fd5b505050506040513d601f19601f82011682018060405250810190611bc29190613f8b565b611bde5760405162461bcd60e51b81526004016106e290614478565b60ff86166000908152601c60205260408120905b8154811015611cdd57600080611c46848481548110611c1357611c136141ce565b90600052602060002090601091828204019190066002029054906101000a900461ffff1660ff600882901c811692911690565b915091506000601b6000868681548110611c6257611c626141ce565b60009182526020808320601083040154600f90921660020261010090810a90920461ffff1684528381019490945260409283018220805461ff0019169515159091029490941790935560ff94851683528180528083209390941682529190915220805460ff1916905580611cd58161420d565b915050611bf2565b5060ff87166000908152601c60205260408120611cf9916139ec565b60ff87166000908152601860205260409020548015611d3a576000818152601760209081526040808320805460ff1916905560ff8b16835260189091528120555b60ff88166000908152601a6020526040812090611d578282613a14565b50600101805463ffffffff191690555050505050505050565b601e6020908152600092835260408084209091529082529020805461098190613fc3565b601454604051638a88895360e01b815260ff8087166004830152851660248201528591859133916001600160a01b031690638a88895390604401602060405180830381865afa158015611deb573d6000803e3d6000fd5b505050506040513d601f19601f82011682018060405250810190611e0f9190613f4a565b6001600160a01b031614611e355760405162461bcd60e51b81526004016106e290614137565b82611e825760405162461bcd60e51b815260206004820152601960248201527f436c616e206e616d652063616e6e6f7420626520656d7074790000000000000060448201526064016106e2565b60ff80871660009081526020808052604080832089851684529091529020541615611ee85760405162461bcd60e51b81526020600482015260166024820152752a34b6329030b63932b0b23c9034b710309031b630b760511b60448201526064016106e2565b6000611f2985858080601f01602080910402602001604051908101604052809392919081815260200183838082843760009201919091525061376292505050565b60008181526017602052604090205490915060ff1615611f8b5760405162461bcd60e51b815260206004820152601760248201527f436c616e206e616d6520616c72656164792074616b656e00000000000000000060448201526064016106e2565b601654604051630d662af560e11b815260ff808a166004830152881660248201526001600160a01b0390911690631acc55ea90604401602060405180830381865afa158015611fde573d6000803e3d6000fd5b505050506040513d601f19601f820116820180604052508101906120029190613f8b565b61201e5760405162461bcd60e51b81526004016106e290614478565b6015546040516323b872dd60e01b81526001600160a01b03909116906323b872dd90612057903390309064174876e80090600401613f67565b6020604051808303816000875af1158015612076573d6000803e3d6000fd5b505050506040513d601f19601f8201168201806040525081019061209a9190613f8b565b6120b65760405162461bcd60e51b81526004016106e29061416e565b6019805460ff169060006120c983614226565b91906101000a81548160ff021916908360ff160217905550506040518060a0016040528086868080601f016020809104026020016040519081016040528093929190818152602001838380828437600092018290525093855250505060ff808b166020808501919091528a82166040808601919091526001606086018190526080909501949094526019549091168252601a9052208151819061216c90826144af565b5060208201516001909101805460408401516060850151608090950151151563010000000263ff0000001960ff96871662010000021663ffff0000199287166101000261ffff19909416969095169590951791909117169190911791909117905560006121e5888860ff1660089190911b61ff00161790565b9050601960009054906101000a900460ff16602060008a60ff1660ff16815260200190815260200160002060008960ff1660ff16815260200190815260200160002060006101000a81548160ff021916908360ff1602179055506040518060400160405280601960009054906101000a900460ff1660ff16815260200160011515815250601b60008361ffff1661ffff16815260200190815260200160002060008201518160000160006101000a81548160ff021916908360ff16021790555060208201518160000160016101000a81548160ff021916908315150217905550905050601c6000601960009054906101000a900460ff1660ff1660ff1681526020019081526020016000208190806001815401808255809150506001900390600052602060002090601091828204019190066002029091909190916101000a81548161ffff021916908361ffff16021790555060016017600084815260200190815260200160002060006101000a81548160ff0219169083151502179055508160186000601960009054906101000a900460ff1660ff1660ff168152602001908152602001600020819055505050505050505050565b6060600060015b60195460ff908116908216116123f65760ff8082166000908152601a60205260409020600101546301000000900416156123e457816123e08161420d565b9250505b806123ee81614226565b9150506123a2565b506000816001600160401b0381111561241157612411613fad565b60405190808252806020026020018201604052801561246b57816020015b6040805160a0810182526060808252600060208084018290529383018190529082018190526080820152825260001990920191018161242f5790505b509050600060015b60195460ff9081169082161161130e5760ff8082166000908152601a60205260409020600101546301000000900416156125bd5760ff81166000908152601a602052604090819020815160a081019092528054829082906124d390613fc3565b80601f01602080910402602001604051908101604052809291908181526020018280546124ff90613fc3565b801561254c5780601f106125215761010080835404028352916020019161254c565b820191906000526020600020905b81548152906001019060200180831161252f57829003601f168201915b50505091835250506001919091015460ff808216602084015261010082048116604084015262010000820481166060840152630100000090910416151560809091015283518490849081106125a3576125a36141ce565b602002602001018190525081806125b99061420d565b9250505b806125c781614226565b915050612473565b60ff8082166000908152601a6020526040812060010154909163010000009091041661260d5760405162461bcd60e51b81526004016106e29061410a565b5060ff9081166000908152601a60205260409020600101546201000090041690565b601454604051638a88895360e01b815260ff8085166004830152831660248201528391839133916001600160a01b031690638a88895390604401602060405180830381865afa158015612686573d6000803e3d6000fd5b505050506040513d601f19601f820116820180604052508101906126aa9190613f4a565b6001600160a01b0316146126d05760405162461bcd60e51b81526004016106e290614137565b60ff838116600886901b61ff0016176000818152601d60205260409020549091168061273e5760405162461bcd60e51b815260206004820152601f60248201527f4e6f2070656e64696e6720696e7669746520666f7220746869732074696c650060448201526064016106e2565b60ff8082166000908152601a602052604090206001015463010000009004166127795760405162461bcd60e51b81526004016106e29061410a565b60ff808716600090815260208080526040808320898516845290915290205416156127df5760405162461bcd60e51b81526020600482015260166024820152752a34b6329030b63932b0b23c9034b710309031b630b760511b60448201526064016106e2565b60ff8181166000908152601a6020526040902060010154601e6201000090910490911610612827575061ffff166000908152601d60205260409020805460ff1916905561292c565b60ff86811660009081526020808052604080832089851684528252808320805460ff191686861690811790915581518083018352818152600181850181815261ffff8a8116808952601b8852868920945185549351908b1661ffff1990941693909317610100931515840217909455848852601c87528588208054808501825590895287892060108204018054600f909216600290810290940a928302199091169190940217909255918552601a9093529220909101805462010000900490921691906128f383614226565b825460ff9182166101009390930a9283029190920219909116179055505061ffff166000908152601d60205260409020805460ff191690555b50505050565b6000826014811061294257600080fd5b01816014811061295157600080fd5b602081049091015460ff601f9092166101000a9004169150829050565b60ff81166000908152601c602052604081208054606092906001600160401b0381111561299d5761299d613fad565b6040519080825280602002602001820160405280156129ef57816020015b6040805160808101825260008082526020808301829052928201819052606082015282526000199092019101816129bb5790505b50905060005b8254811015612a8f57600080612a16858481548110611c1357611c136141ce565b9150915060405180608001604052808360ff1681526020018260ff1681526020018860ff168152602001602260008a60ff1660ff16815260200190815260200160002054815250848481518110612a6f57612a6f6141ce565b602002602001018190525050508080612a879061420d565b9150506129f5565b509392505050565b60ff8086166000908152601a6020526040902060010154869186918691630100000090910416612ad95760405162461bcd60e51b81526004016106e29061410a565b60ff8381166000908152601a60205260409020600101548116908316148015612b20575060ff8381166000908152601a602052604090206001015461010090048116908216145b612b3c5760405162461bcd60e51b81526004016106e290614245565b601454604051638a88895360e01b815260ff80851660048301528316602482015233916001600160a01b031690638a88895390604401602060405180830381865afa158015612b8f573d6000803e3d6000fd5b505050506040513d601f19601f82011682018060405250810190612bb39190613f4a565b6001600160a01b031614612bd95760405162461bcd60e51b81526004016106e29061426e565b60ff8089166000908152601a60205260409020600101546301000000900416612c145760405162461bcd60e51b81526004016106e29061410a565b60ff8881166000908152601a6020526040902060010154601e6201000090910490911610612c735760405162461bcd60e51b815260206004820152600c60248201526b10db185b881a5cc8199d5b1b60a21b60448201526064016106e2565b601654604051630d662af560e11b815260ff808a166004830152881660248201526001600160a01b0390911690631acc55ea90604401602060405180830381865afa158015612cc6573d6000803e3d6000fd5b505050506040513d601f19601f82011682018060405250810190612cea9190613f8b565b612d065760405162461bcd60e51b81526004016106e290614478565b601454604051638a88895360e01b815260ff8088166004830152861660248201526000916001600160a01b031690638a88895390604401602060405180830381865afa158015612d5a573d6000803e3d6000fd5b505050506040513d601f19601f82011682018060405250810190612d7e9190613f4a565b90506001600160a01b038116612dcc5760405162461bcd60e51b815260206004820152601360248201527215185c99d95d081d1a5b19481d5b9bdddb9959606a1b60448201526064016106e2565b60ff80871660009081526020808052604080832089851684529091529020541615612e395760405162461bcd60e51b815260206004820152601d60248201527f5461726765742074696c6520616c726561647920696e206120636c616e00000060448201526064016106e2565b600061ff00600888901b1660ff87161761ffff166000908152601d60205260409020805460ff191660ff9b909b169a909a17909955505050505050505050565b601c6020528160005260406000208181548110612e9557600080fd5b9060005260206000209060109182820401919006600202915091509054906101000a900461ffff1681565b601a60205260009081526040902080548190612edb90613fc3565b80601f0160208091040260200160405190810160405280929190818152602001828054612f0790613fc3565b8015612f545780601f10612f2957610100808354040283529160200191612f54565b820191906000526020600020905b815481529060010190602001808311612f3757829003601f168201915b5050506001909301549192505060ff808216916101008104821691620100008204811691630100000090041685565b6001600160a01b0381166000908152601f60205260409020805460609190612faa90613fc3565b80601f0160208091040260200160405190810160405280929190818152602001828054612fd690613fc3565b80156130235780601f10612ff857610100808354040283529160200191613023565b820191906000526020600020905b81548152906001019060200180831161300657829003601f168201915b50505050509050919050565b60ff8086166000908152601a60205260409020600101548691869186916301000000909104166130715760405162461bcd60e51b81526004016106e29061410a565b60ff8381166000908152601a602052604090206001015481169083161480156130b8575060ff8381166000908152601a602052604090206001015461010090048116908216145b6130d45760405162461bcd60e51b81526004016106e290614245565b601454604051638a88895360e01b815260ff80851660048301528316602482015233916001600160a01b031690638a88895390604401602060405180830381865afa158015613127573d6000803e3d6000fd5b505050506040513d601f19601f8201168201806040525081019061314b9190613f4a565b6001600160a01b0316146131715760405162461bcd60e51b81526004016106e29061426e565b601654604051630d662af560e11b815260ff808a166004830152881660248201526001600160a01b0390911690631acc55ea90604401602060405180830381865afa1580156131c4573d6000803e3d6000fd5b505050506040513d601f19601f820116820180604052508101906131e89190613f8b565b6132045760405162461bcd60e51b81526004016106e290614478565b60ff8881166000908152601a6020526040902060010154811690861614801561324b575060ff8881166000908152601a602052604090206001015461010090048116908516145b156132985760405162461bcd60e51b815260206004820152601960248201527f43616e6e6f742072656d6f7665206c65616465722074696c650000000000000060448201526064016106e2565b60ff848116600887901b61ff0016176000818152601b602052604090205490916101009091041680156132e3575061ffff81166000908152601b602052604090205460ff8a81169116145b6133275760405162461bcd60e51b81526020600482015260156024820152742a34b632903737ba1034b7103a3434b99031b630b760591b60448201526064016106e2565b6015546040516323b872dd60e01b81526001600160a01b03909116906323b872dd9061335f9033903090633b9aca0090600401613f67565b6020604051808303816000875af115801561337e573d6000803e3d6000fd5b505050506040513d601f19601f820116820180604052508101906133a29190613f8b565b6133be5760405162461bcd60e51b81526004016106e29061416e565b61ffff81166000908152601b60209081526040808320805461ff001916905560ff898116845282805281842089821685528352818420805460ff191690558c81168452601a9092529091206001018054620100009004909116906002613423836141b1565b82546101009290920a60ff8181021990931691831602179091558a166000908152601c6020526040812091505b815481101561356f578261ffff16828281548110613470576134706141ce565b60009182526020909120601082040154600f9091166002026101000a900461ffff160361355d57815482906134a7906001906141e4565b815481106134b7576134b76141ce565b90600052602060002090601091828204019190066002029054906101000a900461ffff168282815481106134ed576134ed6141ce565b90600052602060002090601091828204019190066002026101000a81548161ffff021916908361ffff1602179055508180548061352c5761352c6141f7565b600082815260209020601060001990920191820401805461ffff6002600f8516026101000a0219169055905561356f565b806135678161420d565b915050613450565b50601454604051638a88895360e01b815260ff808a166004830152881660248201526000916001600160a01b031690638a88895390604401602060405180830381865afa1580156135c4573d6000803e3d6000fd5b505050506040513d601f19601f820116820180604052508101906135e89190613f4a565b60155460405163a9059cbb60e01b81526001600160a01b0380841660048301526335a4e900602483015292935091169063a9059cbb906044016020604051808303816000875af1158015613640573d6000803e3d6000fd5b505050506040513d601f19601f820116820180604052508101906136649190613f8b565b6136a95760405162461bcd60e51b815260206004820152601660248201527514185e5bdd5d081d1c985b9cd9995c8819985a5b195960521b60448201526064016106e2565b601554604051630852cd8d60e31b81526305f5e10060048201526001600160a01b03909116906342966c68906024016020604051808303816000875af11580156136f7573d6000803e3d6000fd5b505050506040513d601f19601f8201168201806040525081019061371b9190613f8b565b6137555760405162461bcd60e51b815260206004820152600b60248201526a109d5c9b8819985a5b195960aa1b60448201526064016106e2565b5050505050505050505050565b6000613775613770836137a2565b613953565b604051602001613785919061456e565b604051602081830303815290604052805190602001209050919050565b805160609082906000036137b7575090919050565b60005b8151811080156137ee57508181815181106137d7576137d76141ce565b6020910101516001600160f81b031916600160fd1b145b1561380557806137fd8161420d565b9150506137ba565b8151810361382457505060408051602081019091526000815292915050565b60006001835161383491906141e4565b90505b818111801561386a5750828181518110613853576138536141ce565b6020910101516001600160f81b031916600160fd1b145b1561388157806138798161458a565b915050613837565b600061388d83836141e4565b6138989060016145a1565b6001600160401b038111156138af576138af613fad565b6040519080825280601f01601f1916602001820160405280156138d9576020820181803683370190505b50905060005b815181101561394957846138f382866145a1565b81518110613903576139036141ce565b602001015160f81c60f81b828281518110613920576139206141ce565b60200101906001600160f81b031916908160001a905350806139418161420d565b9150506138df565b5095945050505050565b60608160005b81518110156139e5576000828281518110613976576139766141ce565b016020015160f81c9050604181108015906139955750605a8160ff1611155b156139d2576139a58160206145b4565b60f81b8383815181106139ba576139ba6141ce565b60200101906001600160f81b031916908160001a9053505b50806139dd8161420d565b915050613959565b5092915050565b50805460008255600f016010900490600052602060002090810190613a119190613a4a565b50565b508054613a2090613fc3565b6000825580601f10613a30575050565b601f016020900490600052602060002090810190613a1191905b5b80821115613a5f5760008155600101613a4b565b5090565b803560ff81168114613a7457600080fd5b919050565b60008083601f840112613a8b57600080fd5b5081356001600160401b03811115613aa257600080fd5b602083019150836020828501011115613aba57600080fd5b9250929050565b60008060008060608587031215613ad757600080fd5b613ae085613a63565b9350613aee60208601613a63565b925060408501356001600160401b03811115613b0957600080fd5b613b1587828801613a79565b95989497509550505050565b60008060408385031215613b3457600080fd5b613b3d83613a63565b9150613b4b60208401613a63565b90509250929050565b60005b83811015613b6f578181015183820152602001613b57565b50506000910152565b60008151808452613b90816020860160208601613b54565b601f01601f19169290920160200192915050565b602081526000613bb76020830184613b78565b9392505050565b6001600160a01b0381168114613a1157600080fd5b600060208284031215613be557600080fd5b8135613bb781613bbe565b600060208284031215613c0257600080fd5b613bb782613a63565b602080825282518282018190526000919060409081850190868401855b82811015613c6a578151805160ff9081168652878201518116888701528682015116868601526060908101519085015260809093019290850190600101613c28565b5091979650505050505050565b60008060208385031215613c8a57600080fd5b82356001600160401b03811115613ca057600080fd5b613cac85828601613a79565b90969095509350505050565b6000815160a08452613ccd60a0850182613b78565b905060ff602084015116602085015260ff604084015116604085015260ff60608401511660608501526080830151151560808501528091505092915050565b602081526000613bb76020830184613cb8565b600060208284031215613d3157600080fd5b5035919050565b600060208284031215613d4a57600080fd5b813561ffff81168114613bb757600080fd5b60008060008060808587031215613d7257600080fd5b613d7b85613a63565b9350613d8960208601613a63565b9250613d9760408601613a63565b9396929550929360600135925050565b600080600060608486031215613dbc57600080fd5b613dc584613a63565b9250613dd360208501613a63565b9150613de160408501613a63565b90509250925092565b6000602080830181845280855180835260408601915060408160051b870101925083870160005b82811015613e3f57603f19888603018452613e2d858351613cb8565b94509285019290850190600101613e11565b5092979650505050505050565b60008060408385031215613e5f57600080fd5b50508035926020909101359150565b600080600080600060a08688031215613e8657600080fd5b613e8f86613a63565b9450613e9d60208701613a63565b9350613eab60408701613a63565b9250613eb960608701613a63565b9150613ec760808701613a63565b90509295509295909350565b60008060408385031215613ee657600080fd5b613eef83613a63565b946020939093013593505050565b60a081526000613f1060a0830188613b78565b905060ff8616602083015260ff8516604083015260ff8416606083015282151560808301529695505050505050565b8051613a7481613bbe565b600060208284031215613f5c57600080fd5b8151613bb781613bbe565b6001600160a01b039384168152919092166020820152604081019190915260600190565b600060208284031215613f9d57600080fd5b81518015158114613bb757600080fd5b634e487b7160e01b600052604160045260246000fd5b600181811c90821680613fd757607f821691505b602082108103613ff757634e487b7160e01b600052602260045260246000fd5b50919050565b601f82111561133157600081815260208120601f850160051c810160208610156140245750805b601f850160051c820191505b8181101561404357828155600101614030565b505050505050565b6001600160401b0383111561406257614062613fad565b614076836140708354613fc3565b83613ffd565b6000601f8411600181146140aa57600085156140925750838201355b600019600387901b1c1916600186901b1783556108ac565b600083815260209020601f19861690835b828110156140db57868501358255602094850194600190920191016140bb565b50868210156140f85760001960f88860031b161c19848701351681555b505060018560011b0183555050505050565b60208082526013908201527210db185b88191bd95cc81b9bdd08195e1a5cdd606a1b604082015260600190565b60208082526018908201527f596f7520646f206e6f74206f776e20746869732074696c650000000000000000604082015260600190565b6020808252601390820152721313d4081d1c985b9cd9995c8819985a5b1959606a1b604082015260600190565b634e487b7160e01b600052601160045260246000fd5b600060ff8216806141c4576141c461419b565b6000190192915050565b634e487b7160e01b600052603260045260246000fd5b818103818111156109625761096261419b565b634e487b7160e01b600052603160045260246000fd5b60006001820161421f5761421f61419b565b5060010190565b600060ff821660ff810361423c5761423c61419b565b60010192915050565b6020808252600f908201526e4e6f74206c65616465722074696c6560881b604082015260600190565b6020808252601d908201527f596f7520646f6e2774206f776e20746865206c65616465722074696c65000000604082015260600190565b600082601f8301126142b657600080fd5b81516001600160401b03808211156142d0576142d0613fad565b604051601f8301601f19908116603f011681019082821181831017156142f8576142f8613fad565b8160405283815286602085880101111561431157600080fd5b614322846020830160208901613b54565b9695505050505050565b60008060008060008060008060008060006101608c8e03121561434e57600080fd5b8b516001600160401b0381111561436457600080fd5b6143708e828f016142a5565b9b505060208c01516001600160401b0381111561438c57600080fd5b6143988e828f016142a5565b9a505060408c01516001600160401b038111156143b457600080fd5b6143c08e828f016142a5565b99505060608c01516001600160401b038111156143dc57600080fd5b6143e88e828f016142a5565b9850506143f760808d01613f3f565b965060a08c0151955060c08c0151945060e08c01516001600160401b0381111561442057600080fd5b61442c8e828f016142a5565b9450506101008c01516001600160401b0381111561444957600080fd5b6144558e828f016142a5565b9350506101208c015191506101408c015190509295989b509295989b9093969950565b60208082526019908201527f596f75206d7573742068617665206120436c616e2048616c6c00000000000000604082015260600190565b81516001600160401b038111156144c8576144c8613fad565b6144dc816144d68454613fc3565b84613ffd565b602080601f83116001811461451157600084156144f95750858301515b600019600386901b1c1916600185901b178555614043565b600085815260208120601f198616915b8281101561454057888601518255948401946001909101908401614521565b508582101561455e5787850151600019600388901b60f8161c191681555b5050505050600190811b01905550565b60008251614580818460208701613b54565b9190910192915050565b6000816145995761459961419b565b506000190190565b808201808211156109625761096261419b565b60ff81811683821601908111156109625761096261419b56fea26469706673582212209336ba52a11f8ea69eb0c76d064b8f2bcc4b30e6a552e0f02d034fe8545cc83964736f6c63430008120033",
			"opcodes": "PUSH1 0x4 PUSH2 0x300 DUP2 DUP2 MSTORE PUSH2 0x320 DUP3 SWAP1 MSTORE PUSH2 0x340 DUP3 SWAP1 MSTORE PUSH2 0x360 DUP3 SWAP1 MSTORE PUSH2 0x380 DUP3 SWAP1 MSTORE PUSH2 0x3A0 DUP3 SWAP1 MSTORE PUSH1 0x3 PUSH2 0x3C0 DUP2 SWAP1 MSTORE PUSH2 0x3E0 DUP2 SWAP1 MSTORE PUSH2 0x400 DUP2 SWAP1 MSTORE PUSH2 0x420 DUP2 SWAP1 MSTORE PUSH2 0x440 DUP2 SWAP1 MSTORE PUSH2 0x460 DUP2 SWAP1 MSTORE PUSH1 0x2 PUSH2 0x480 DUP2 SWAP1 MSTORE PUSH2 0x4A0 DUP2 SWAP1 MSTORE PUSH1 0x1 PUSH2 0x4C0 DUP2 SWAP1 MSTORE PUSH2 0x4E0 DUP3 SWAP1 MSTORE PUSH2 0x500 DUP3 SWAP1 MSTORE PUSH2 0x520 DUP3 SWAP1 MSTORE PUSH2 0x540 DUP3 SWAP1 MSTORE PUSH2 0x560 DUP3 SWAP1 MSTORE PUSH1 0x80 SWAP4 DUP5 MSTORE PUSH2 0x580 DUP6 DUP2 MSTORE PUSH2 0x5A0 DUP7 SWAP1 MSTORE PUSH2 0x5C0 DUP7 SWAP1 MSTORE PUSH2 0x5E0 DUP7 SWAP1 MSTORE PUSH2 0x600 DUP7 SWAP1 MSTORE PUSH2 0x620 DUP7 SWAP1 MSTORE PUSH2 0x640 DUP7 SWAP1 MSTORE PUSH2 0x660 DUP5 SWAP1 MSTORE PUSH2 0x680 DUP5 SWAP1 MSTORE PUSH2 0x6A0 DUP5 SWAP1 MSTORE PUSH2 0x6C0 DUP5 SWAP1 MSTORE PUSH2 0x6E0 DUP5 SWAP1 MSTORE PUSH2 0x700 DUP4 SWAP1 MSTORE PUSH2 0x720 DUP3 SWAP1 MSTORE PUSH2 0x740 DUP3 SWAP1 MSTORE PUSH2 0x760 DUP4 SWAP1 MSTORE PUSH2 0x780 DUP4 SWAP1 MSTORE PUSH2 0x7A0 DUP4 SWAP1 MSTORE PUSH2 0x7C0 DUP4 SWAP1 MSTORE PUSH2 0x7E0 DUP4 SWAP1 MSTORE PUSH1 0xA0 MSTORE PUSH2 0x800 DUP6 DUP2 MSTORE PUSH2 0x820 DUP7 SWAP1 MSTORE PUSH2 0x840 DUP7 SWAP1 MSTORE PUSH2 0x860 DUP7 SWAP1 MSTORE PUSH2 0x880 DUP7 SWAP1 MSTORE PUSH2 0x8A0 DUP7 SWAP1 MSTORE PUSH2 0x8C0 DUP7 SWAP1 MSTORE PUSH2 0x8E0 DUP7 SWAP1 MSTORE PUSH2 0x900 DUP5 SWAP1 MSTORE PUSH2 0x920 DUP5 SWAP1 MSTORE PUSH2 0x940 DUP5 SWAP1 MSTORE PUSH2 0x960 DUP5 SWAP1 MSTORE PUSH2 0x980 DUP4 SWAP1 MSTORE PUSH2 0x9A0 DUP4 SWAP1 MSTORE PUSH2 0x9C0 DUP3 SWAP1 MSTORE PUSH2 0x9E0 DUP3 SWAP1 MSTORE PUSH2 0xA00 DUP4 SWAP1 MSTORE PUSH2 0xA20 DUP4 SWAP1 MSTORE PUSH2 0xA40 DUP4 SWAP1 MSTORE PUSH2 0xA60 DUP4 SWAP1 MSTORE PUSH1 0xC0 MSTORE PUSH2 0xA80 DUP6 DUP2 MSTORE PUSH2 0xAA0 DUP7 SWAP1 MSTORE PUSH2 0xAC0 DUP7 SWAP1 MSTORE PUSH2 0xAE0 DUP7 SWAP1 MSTORE PUSH2 0xB00 DUP7 SWAP1 MSTORE PUSH2 0xB20 DUP7 SWAP1 MSTORE PUSH2 0xB40 DUP7 SWAP1 MSTORE PUSH2 0xB60 SWAP6 SWAP1 SWAP6 MSTORE PUSH2 0xB80 DUP4 SWAP1 MSTORE PUSH2 0xBA0 DUP4 SWAP1 MSTORE PUSH2 0xBC0 DUP4 SWAP1 MSTORE PUSH2 0xBE0 DUP4 SWAP1 MSTORE PUSH2 0xC00 DUP4 SWAP1 MSTORE PUSH2 0xC20 DUP2 SWAP1 MSTORE PUSH2 0xC40 DUP2 SWAP1 MSTORE PUSH2 0xC60 DUP2 SWAP1 MSTORE PUSH2 0xC80 DUP3 SWAP1 MSTORE PUSH2 0xCA0 DUP3 SWAP1 MSTORE PUSH2 0xCC0 DUP3 SWAP1 MSTORE PUSH2 0xCE0 DUP3 SWAP1 MSTORE PUSH1 0xE0 SWAP5 SWAP1 SWAP5 MSTORE PUSH2 0xD00 DUP3 DUP2 MSTORE PUSH2 0xD20 DUP4 SWAP1 MSTORE PUSH2 0xD40 DUP4 SWAP1 MSTORE PUSH2 0xD60 DUP4 SWAP1 MSTORE PUSH2 0xD80 DUP4 SWAP1 MSTORE PUSH2 0xDA0 DUP4 SWAP1 MSTORE PUSH2 0xDC0 DUP4 SWAP1 MSTORE PUSH2 0xDE0 DUP4 SWAP1 MSTORE PUSH2 0xE00 DUP4 SWAP1 MSTORE PUSH2 0xE20 DUP4 SWAP1 MSTORE PUSH2 0xE40 DUP4 SWAP1 MSTORE PUSH2 0xE60 DUP4 SWAP1 MSTORE PUSH2 0xE80 DUP6 SWAP1 MSTORE PUSH2 0xEA0 DUP6 SWAP1 MSTORE PUSH2 0xEC0 DUP6 SWAP1 MSTORE PUSH2 0xEE0 DUP6 SWAP1 MSTORE PUSH2 0xF00 DUP3 SWAP1 MSTORE PUSH2 0xF20 DUP3 SWAP1 MSTORE PUSH2 0xF40 DUP3 SWAP1 MSTORE PUSH2 0xF60 DUP3 SWAP1 MSTORE PUSH2 0x100 MSTORE PUSH2 0xF80 DUP3 DUP2 MSTORE PUSH2 0xFA0 DUP4 SWAP1 MSTORE PUSH2 0xFC0 DUP4 SWAP1 MSTORE PUSH2 0xFE0 DUP4 SWAP1 MSTORE PUSH2 0x1000 DUP4 SWAP1 MSTORE PUSH2 0x1020 DUP4 SWAP1 MSTORE PUSH2 0x1040 DUP4 SWAP1 MSTORE PUSH2 0x1060 DUP4 SWAP1 MSTORE PUSH2 0x1080 DUP4 SWAP1 MSTORE PUSH2 0x10A0 DUP4 SWAP1 MSTORE PUSH2 0x10C0 DUP4 SWAP1 MSTORE PUSH2 0x10E0 DUP4 SWAP1 MSTORE PUSH2 0x1100 DUP6 SWAP1 MSTORE PUSH2 0x1120 DUP6 SWAP1 MSTORE PUSH2 0x1140 DUP6 SWAP1 MSTORE PUSH2 0x1160 DUP6 SWAP1 MSTORE PUSH2 0x1180 DUP3 SWAP1 MSTORE PUSH2 0x11A0 DUP3 SWAP1 MSTORE PUSH2 0x11C0 DUP3 SWAP1 MSTORE PUSH2 0x11E0 DUP3 SWAP1 MSTORE PUSH2 0x120 MSTORE PUSH2 0x1200 DUP3 DUP2 MSTORE PUSH2 0x1220 DUP4 SWAP1 MSTORE PUSH2 0x1240 DUP4 SWAP1 MSTORE PUSH2 0x1260 DUP4 SWAP1 MSTORE PUSH2 0x1280 DUP4 SWAP1 MSTORE PUSH2 0x12A0 DUP4 SWAP1 MSTORE PUSH2 0x12C0 DUP4 SWAP1 MSTORE PUSH2 0x12E0 DUP4 SWAP1 MSTORE PUSH2 0x1300 DUP4 SWAP1 MSTORE PUSH2 0x1320 DUP4 SWAP1 MSTORE PUSH2 0x1340 DUP4 SWAP1 MSTORE PUSH2 0x1360 DUP4 SWAP1 MSTORE PUSH2 0x1380 DUP6 SWAP1 MSTORE PUSH2 0x13A0 DUP6 SWAP1 MSTORE PUSH2 0x13C0 DUP6 SWAP1 MSTORE PUSH2 0x13E0 DUP6 SWAP1 MSTORE PUSH2 0x1400 DUP6 SWAP1 MSTORE PUSH2 0x1420 DUP6 SWAP1 MSTORE PUSH2 0x1440 DUP6 SWAP1 MSTORE PUSH2 0x1460 DUP6 SWAP1 MSTORE PUSH2 0x140 MSTORE PUSH2 0x1480 DUP3 DUP2 MSTORE PUSH2 0x14A0 DUP4 SWAP1 MSTORE PUSH2 0x14C0 DUP4 SWAP1 MSTORE PUSH2 0x14E0 DUP6 SWAP1 MSTORE PUSH2 0x1500 DUP4 SWAP1 MSTORE PUSH2 0x1520 DUP4 SWAP1 MSTORE PUSH2 0x1540 DUP4 SWAP1 MSTORE PUSH2 0x1560 DUP4 SWAP1 MSTORE PUSH2 0x1580 DUP4 SWAP1 MSTORE PUSH2 0x15A0 DUP4 SWAP1 MSTORE PUSH2 0x15C0 DUP4 SWAP1 MSTORE PUSH2 0x15E0 DUP6 SWAP1 MSTORE PUSH2 0x1600 DUP3 SWAP1 MSTORE PUSH2 0x1620 DUP3 SWAP1 MSTORE PUSH2 0x1640 DUP3 SWAP1 MSTORE PUSH2 0x1660 DUP3 SWAP1 MSTORE PUSH2 0x1680 DUP6 SWAP1 MSTORE PUSH2 0x16A0 DUP6 SWAP1 MSTORE PUSH2 0x16C0 DUP6 SWAP1 MSTORE PUSH2 0x16E0 DUP6 SWAP1 MSTORE PUSH2 0x160 MSTORE PUSH2 0x1700 DUP3 DUP2 MSTORE PUSH2 0x1720 DUP4 SWAP1 MSTORE PUSH2 0x1740 DUP4 SWAP1 MSTORE PUSH2 0x1760 DUP6 SWAP1 MSTORE PUSH2 0x1780 DUP6 SWAP1 MSTORE PUSH2 0x17A0 DUP3 SWAP1 MSTORE PUSH2 0x17C0 DUP3 SWAP1 MSTORE PUSH2 0x17E0 DUP3 SWAP1 MSTORE PUSH2 0x1800 DUP3 SWAP1 MSTORE PUSH2 0x1820 DUP3 SWAP1 MSTORE PUSH2 0x1840 DUP3 SWAP1 MSTORE PUSH2 0x1860 DUP6 SWAP1 MSTORE PUSH2 0x1880 DUP3 SWAP1 MSTORE PUSH2 0x18A0 DUP3 SWAP1 MSTORE PUSH2 0x18C0 DUP3 SWAP1 MSTORE PUSH2 0x18E0 DUP3 SWAP1 MSTORE PUSH2 0x1900 DUP3 SWAP1 MSTORE PUSH2 0x1920 DUP3 SWAP1 MSTORE PUSH2 0x1940 DUP3 SWAP1 MSTORE PUSH2 0x1960 DUP6 SWAP1 MSTORE PUSH2 0x180 MSTORE PUSH2 0x1980 DUP5 DUP2 MSTORE PUSH2 0x19A0 DUP3 SWAP1 MSTORE PUSH2 0x19C0 DUP3 SWAP1 MSTORE PUSH2 0x19E0 DUP6 SWAP1 MSTORE PUSH2 0x1A00 DUP3 SWAP1 MSTORE PUSH2 0x1A20 DUP3 SWAP1 MSTORE PUSH2 0x1A40 DUP3 SWAP1 MSTORE PUSH2 0x1A60 DUP3 SWAP1 MSTORE PUSH2 0x1A80 DUP3 SWAP1 MSTORE PUSH2 0x1AA0 DUP3 SWAP1 MSTORE PUSH2 0x1AC0 DUP3 SWAP1 MSTORE PUSH2 0x1AE0 DUP6 SWAP1 MSTORE PUSH2 0x1B00 DUP3 SWAP1 MSTORE PUSH2 0x1B20 DUP3 SWAP1 MSTORE PUSH2 0x1B40 DUP3 SWAP1 MSTORE PUSH2 0x1B60 DUP3 SWAP1 MSTORE PUSH2 0x1B80 DUP3 SWAP1 MSTORE PUSH2 0x1BA0 DUP3 SWAP1 MSTORE PUSH2 0x1BC0 DUP3 SWAP1 MSTORE PUSH2 0x1BE0 DUP6 SWAP1 MSTORE PUSH2 0x1A0 MSTORE PUSH2 0x1C00 DUP2 DUP2 MSTORE PUSH2 0x1C20 DUP3 SWAP1 MSTORE PUSH2 0x1C40 DUP6 SWAP1 MSTORE PUSH2 0x1C60 DUP6 SWAP1 MSTORE PUSH2 0x1C80 DUP3 SWAP1 MSTORE PUSH2 0x1CA0 DUP3 SWAP1 MSTORE PUSH2 0x1CC0 DUP3 SWAP1 MSTORE PUSH2 0x1CE0 DUP3 SWAP1 MSTORE PUSH2 0x1D00 DUP3 SWAP1 MSTORE PUSH2 0x1D20 DUP3 SWAP1 MSTORE PUSH2 0x1D40 DUP6 SWAP1 MSTORE PUSH2 0x1D60 DUP6 SWAP1 MSTORE PUSH2 0x1D80 DUP3 SWAP1 MSTORE PUSH2 0x1DA0 DUP3 SWAP1 MSTORE PUSH2 0x1DC0 DUP3 SWAP1 MSTORE PUSH2 0x1DE0 DUP3 SWAP1 MSTORE PUSH2 0x1E00 DUP3 SWAP1 MSTORE PUSH2 0x1E20 DUP3 SWAP1 MSTORE PUSH2 0x1E40 DUP6 SWAP1 MSTORE PUSH2 0x1E60 DUP6 SWAP1 MSTORE PUSH2 0x1C0 MSTORE PUSH2 0x1E80 DUP3 DUP2 MSTORE PUSH2 0x1EA0 DUP4 SWAP1 MSTORE PUSH2 0x1EC0 DUP4 SWAP1 MSTORE PUSH2 0x1EE0 DUP3 SWAP1 MSTORE PUSH2 0x1F00 DUP6 SWAP1 MSTORE PUSH2 0x1F20 DUP3 SWAP1 MSTORE PUSH2 0x1F40 DUP3 SWAP1 MSTORE PUSH2 0x1F60 DUP3 SWAP1 MSTORE PUSH2 0x1F80 DUP3 SWAP1 MSTORE PUSH2 0x1FA0 DUP3 SWAP1 MSTORE PUSH2 0x1FC0 DUP6 SWAP1 MSTORE PUSH2 0x1FE0 DUP3 SWAP1 MSTORE PUSH2 0x2000 DUP3 SWAP1 MSTORE PUSH2 0x2020 DUP3 SWAP1 MSTORE PUSH2 0x2040 DUP3 SWAP1 MSTORE PUSH2 0x2060 DUP6 SWAP1 MSTORE PUSH2 0x2080 DUP6 SWAP1 MSTORE PUSH2 0x20A0 DUP6 SWAP1 MSTORE PUSH2 0x20C0 DUP6 SWAP1 MSTORE PUSH2 0x20E0 DUP6 SWAP1 MSTORE PUSH2 0x1E0 MSTORE PUSH2 0x2100 DUP3 DUP2 MSTORE PUSH2 0x2120 DUP4 SWAP1 MSTORE PUSH2 0x2140 DUP4 SWAP1 MSTORE PUSH2 0x2160 DUP4 SWAP1 MSTORE PUSH2 0x2180 DUP6 SWAP1 MSTORE PUSH2 0x21A0 DUP6 SWAP1 MSTORE PUSH2 0x21C0 DUP3 SWAP1 MSTORE PUSH2 0x21E0 DUP3 SWAP1 MSTORE PUSH2 0x2200 DUP3 SWAP1 MSTORE PUSH2 0x2220 DUP3 SWAP1 MSTORE PUSH2 0x2240 DUP6 SWAP1 MSTORE PUSH2 0x2260 DUP6 SWAP1 MSTORE PUSH2 0x2280 DUP3 SWAP1 MSTORE PUSH2 0x22A0 DUP3 SWAP1 MSTORE PUSH2 0x22C0 DUP3 SWAP1 MSTORE PUSH2 0x22E0 DUP6 SWAP1 MSTORE PUSH2 0x2300 DUP6 SWAP1 MSTORE PUSH2 0x2320 DUP6 SWAP1 MSTORE PUSH2 0x2340 DUP6 SWAP1 MSTORE PUSH2 0x2360 DUP6 SWAP1 MSTORE PUSH2 0x200 MSTORE PUSH2 0x2380 DUP3 DUP2 MSTORE PUSH2 0x23A0 DUP4 SWAP1 MSTORE PUSH2 0x23C0 DUP4 SWAP1 MSTORE PUSH2 0x23E0 DUP4 SWAP1 MSTORE PUSH2 0x2400 DUP4 SWAP1 MSTORE PUSH2 0x2420 DUP6 SWAP1 MSTORE PUSH2 0x2440 DUP3 SWAP1 MSTORE PUSH2 0x2460 DUP3 SWAP1 MSTORE PUSH2 0x2480 DUP3 SWAP1 MSTORE PUSH2 0x24A0 DUP3 SWAP1 MSTORE PUSH2 0x24C0 DUP6 SWAP1 MSTORE PUSH2 0x24E0 DUP6 SWAP1 MSTORE PUSH2 0x2500 DUP6 SWAP1 MSTORE PUSH2 0x2520 DUP3 SWAP1 MSTORE PUSH2 0x2540 DUP3 SWAP1 MSTORE PUSH2 0x2560 DUP3 SWAP1 MSTORE PUSH2 0x2580 DUP3 SWAP1 MSTORE PUSH2 0x25A0 DUP6 SWAP1 MSTORE PUSH2 0x25C0 DUP6 SWAP1 MSTORE PUSH2 0x25E0 DUP6 SWAP1 MSTORE PUSH2 0x220 MSTORE PUSH2 0x2600 DUP3 DUP2 MSTORE PUSH2 0x2620 DUP4 SWAP1 MSTORE PUSH2 0x2640 DUP4 SWAP1 MSTORE PUSH2 0x2660 DUP4 SWAP1 MSTORE PUSH2 0x2680 DUP4 SWAP1 MSTORE PUSH2 0x26A0 DUP3 SWAP1 MSTORE PUSH2 0x26C0 DUP3 SWAP1 MSTORE PUSH2 0x26E0 DUP3 SWAP1 MSTORE PUSH2 0x2700 DUP4 SWAP1 MSTORE PUSH2 0x2720 DUP4 SWAP1 MSTORE PUSH2 0x2740 DUP3 SWAP1 MSTORE PUSH2 0x2760 DUP3 SWAP1 MSTORE PUSH2 0x2780 DUP6 SWAP1 MSTORE PUSH2 0x27A0 DUP3 SWAP1 MSTORE PUSH2 0x27C0 DUP3 SWAP1 MSTORE PUSH2 0x27E0 DUP3 SWAP1 MSTORE PUSH2 0x2800 DUP3 SWAP1 MSTORE PUSH2 0x2820 DUP6 SWAP1 MSTORE PUSH2 0x2840 DUP6 SWAP1 MSTORE PUSH2 0x2860 DUP6 SWAP1 MSTORE PUSH2 0x240 MSTORE PUSH2 0x2880 DUP2 DUP2 MSTORE PUSH2 0x28A0 DUP3 SWAP1 MSTORE PUSH2 0x28C0 DUP3 SWAP1 MSTORE PUSH2 0x28E0 DUP6 SWAP1 MSTORE PUSH2 0x2900 DUP6 SWAP1 MSTORE PUSH2 0x2920 DUP6 SWAP1 MSTORE PUSH2 0x2940 DUP6 SWAP1 MSTORE PUSH2 0x2960 DUP6 SWAP1 MSTORE PUSH2 0x2980 DUP4 SWAP1 MSTORE PUSH2 0x29A0 DUP4 SWAP1 MSTORE PUSH2 0x29C0 DUP4 SWAP1 MSTORE PUSH2 0x29E0 DUP4 SWAP1 MSTORE PUSH2 0x2A00 DUP6 SWAP1 MSTORE PUSH2 0x2A20 DUP6 SWAP1 MSTORE PUSH2 0x2A40 DUP3 SWAP1 MSTORE PUSH2 0x2A60 DUP3 SWAP1 MSTORE PUSH2 0x2A80 DUP3 SWAP1 MSTORE PUSH2 0x2AA0 DUP6 SWAP1 MSTORE PUSH2 0x2AC0 DUP6 SWAP1 MSTORE PUSH2 0x2AE0 DUP6 SWAP1 MSTORE PUSH2 0x260 MSTORE PUSH2 0x2B00 DUP2 DUP2 MSTORE PUSH2 0x2B20 DUP3 SWAP1 MSTORE PUSH2 0x2B40 DUP3 SWAP1 MSTORE PUSH2 0x2B60 DUP3 SWAP1 MSTORE PUSH2 0x2B80 DUP3 SWAP1 MSTORE PUSH2 0x2BA0 DUP3 SWAP1 MSTORE PUSH2 0x2BC0 DUP6 SWAP1 MSTORE PUSH2 0x2BE0 DUP6 SWAP1 MSTORE PUSH2 0x2C00 DUP4 SWAP1 MSTORE PUSH2 0x2C20 DUP4 SWAP1 MSTORE PUSH2 0x2C40 DUP4 SWAP1 MSTORE PUSH2 0x2C60 DUP4 SWAP1 MSTORE PUSH2 0x2C80 DUP6 SWAP1 MSTORE PUSH2 0x2CA0 DUP6 SWAP1 MSTORE PUSH2 0x2CC0 DUP6 SWAP1 MSTORE PUSH2 0x2CE0 DUP6 SWAP1 MSTORE PUSH2 0x2D00 DUP4 SWAP1 MSTORE PUSH2 0x2D20 DUP4 SWAP1 MSTORE PUSH2 0x2D40 DUP3 SWAP1 MSTORE PUSH2 0x2D60 DUP3 SWAP1 MSTORE PUSH2 0x280 MSTORE PUSH2 0x2D80 DUP2 DUP2 MSTORE PUSH2 0x2DA0 DUP3 SWAP1 MSTORE PUSH2 0x2DC0 DUP3 SWAP1 MSTORE PUSH2 0x2DE0 DUP3 SWAP1 MSTORE PUSH2 0x2E00 DUP3 SWAP1 MSTORE PUSH2 0x2E20 DUP3 SWAP1 MSTORE PUSH2 0x2E40 DUP3 SWAP1 MSTORE PUSH2 0x2E60 DUP6 SWAP1 MSTORE PUSH2 0x2E80 DUP4 SWAP1 MSTORE PUSH2 0x2EA0 DUP4 SWAP1 MSTORE PUSH2 0x2EC0 DUP4 SWAP1 MSTORE PUSH2 0x2EE0 DUP4 SWAP1 MSTORE PUSH2 0x2F00 DUP6 SWAP1 MSTORE PUSH2 0x2F20 DUP6 SWAP1 MSTORE PUSH2 0x2F40 DUP6 SWAP1 MSTORE PUSH2 0x2F60 DUP6 SWAP1 MSTORE PUSH2 0x2F80 DUP4 SWAP1 MSTORE PUSH2 0x2FA0 DUP4 SWAP1 MSTORE PUSH2 0x2FC0 DUP3 SWAP1 MSTORE PUSH2 0x2FE0 DUP3 SWAP1 MSTORE PUSH2 0x2A0 MSTORE PUSH2 0x3000 DUP2 DUP2 MSTORE PUSH2 0x3020 DUP3 SWAP1 MSTORE PUSH2 0x3040 DUP3 SWAP1 MSTORE PUSH2 0x3060 DUP3 SWAP1 MSTORE PUSH2 0x3080 DUP3 SWAP1 MSTORE PUSH2 0x30A0 DUP3 SWAP1 MSTORE PUSH2 0x30C0 DUP3 SWAP1 MSTORE PUSH2 0x30E0 DUP6 SWAP1 MSTORE PUSH2 0x3100 DUP6 SWAP1 MSTORE PUSH2 0x3120 DUP3 SWAP1 MSTORE PUSH2 0x3140 DUP3 SWAP1 MSTORE PUSH2 0x3160 DUP6 SWAP1 MSTORE PUSH2 0x3180 DUP6 SWAP1 MSTORE PUSH2 0x31A0 DUP3 SWAP1 MSTORE PUSH2 0x31C0 DUP3 SWAP1 MSTORE PUSH2 0x31E0 DUP6 SWAP1 MSTORE PUSH2 0x3200 DUP4 SWAP1 MSTORE PUSH2 0x3220 DUP4 SWAP1 MSTORE PUSH2 0x3240 DUP3 SWAP1 MSTORE PUSH2 0x3260 DUP3 SWAP1 MSTORE PUSH2 0x2C0 MSTORE PUSH2 0x3500 PUSH1 0x40 MSTORE PUSH2 0x3280 DUP2 DUP2 MSTORE PUSH2 0x32A0 DUP3 SWAP1 MSTORE PUSH2 0x32C0 DUP3 SWAP1 MSTORE PUSH2 0x32E0 DUP3 SWAP1 MSTORE PUSH2 0x3300 DUP3 SWAP1 MSTORE PUSH2 0x3320 DUP3 SWAP1 MSTORE PUSH2 0x3340 DUP3 SWAP1 MSTORE PUSH2 0x3360 DUP6 SWAP1 MSTORE PUSH2 0x3380 DUP6 SWAP1 MSTORE PUSH2 0x33A0 DUP6 SWAP1 MSTORE PUSH2 0x33C0 DUP6 SWAP1 MSTORE PUSH2 0x33E0 DUP6 SWAP1 MSTORE PUSH2 0x3400 DUP6 SWAP1 MSTORE PUSH2 0x3420 DUP6 SWAP1 MSTORE PUSH2 0x3440 SWAP5 SWAP1 SWAP5 MSTORE PUSH2 0x3460 DUP3 SWAP1 MSTORE PUSH2 0x3480 DUP3 SWAP1 MSTORE PUSH2 0x34A0 SWAP2 SWAP1 SWAP2 MSTORE PUSH2 0x34C0 DUP2 SWAP1 MSTORE PUSH2 0x34E0 MSTORE PUSH2 0x2E0 SWAP2 SWAP1 SWAP2 MSTORE PUSH3 0x9D2 SWAP1 PUSH1 0x0 SWAP1 PUSH1 0x14 PUSH3 0xA57 JUMP JUMPDEST POP CALLVALUE DUP1 ISZERO PUSH3 0x9E0 JUMPI PUSH1 0x0 DUP1 REVERT JUMPDEST POP PUSH1 0x40 MLOAD PUSH3 0x51F7 CODESIZE SUB DUP1 PUSH3 0x51F7 DUP4 CODECOPY DUP2 ADD PUSH1 0x40 DUP2 SWAP1 MSTORE PUSH3 0xA03 SWAP2 PUSH3 0xB87 JUMP JUMPDEST PUSH1 0x14 DUP1 SLOAD PUSH1 0x1 PUSH1 0x1 PUSH1 0xA0 SHL SUB SWAP6 DUP7 AND PUSH1 0x1 PUSH1 0x1 PUSH1 0xA0 SHL SUB NOT SWAP2 DUP3 AND OR SWAP1 SWAP2 SSTORE PUSH1 0x15 DUP1 SLOAD SWAP5 DUP7 AND SWAP5 DUP3 AND SWAP5 SWAP1 SWAP5 OR SWAP1 SWAP4 SSTORE PUSH1 0x21 DUP1 SLOAD SWAP3 DUP6 AND SWAP3 DUP5 AND SWAP3 SWAP1 SWAP3 OR SWAP1 SWAP2 SSTORE PUSH1 0x16 DUP1 SLOAD SWAP2 SWAP1 SWAP4 AND SWAP2 AND OR SWAP1 SSTORE PUSH3 0xBE4 JUMP JUMPDEST DUP3 PUSH1 0x14 DUP2 ADD SWAP3 DUP3 ISZERO PUSH3 0xA96 JUMPI SWAP2 PUSH1 0x20 MUL DUP3 ADD JUMPDEST DUP3 DUP2 GT ISZERO PUSH3 0xA96 JUMPI DUP3 MLOAD PUSH3 0xA85 SWAP1 DUP4 SWAP1 PUSH1 0x14 PUSH3 0xAA8 JUMP JUMPDEST POP SWAP2 PUSH1 0x20 ADD SWAP2 SWAP1 PUSH1 0x1 ADD SWAP1 PUSH3 0xA6B JUMP JUMPDEST POP PUSH3 0xAA4 SWAP3 SWAP2 POP PUSH3 0xB3E JUMP JUMPDEST POP SWAP1 JUMP JUMPDEST PUSH1 0x1 DUP4 ADD SWAP2 DUP4 SWAP1 DUP3 ISZERO PUSH3 0xB30 JUMPI SWAP2 PUSH1 0x20 MUL DUP3 ADD PUSH1 0x0 JUMPDEST DUP4 DUP3 GT ISZERO PUSH3 0xAFF JUMPI DUP4 MLOAD DUP4 DUP3 PUSH2 0x100 EXP DUP2 SLOAD DUP2 PUSH1 0xFF MUL NOT AND SWAP1 DUP4 PUSH1 0xFF AND MUL OR SWAP1 SSTORE POP SWAP3 PUSH1 0x20 ADD SWAP3 PUSH1 0x1 ADD PUSH1 0x20 DUP2 PUSH1 0x0 ADD DIV SWAP3 DUP4 ADD SWAP3 PUSH1 0x1 SUB MUL PUSH3 0xABF JUMP JUMPDEST DUP1 ISZERO PUSH3 0xB2E JUMPI DUP3 DUP2 PUSH2 0x100 EXP DUP2 SLOAD SWAP1 PUSH1 0xFF MUL NOT AND SWAP1 SSTORE PUSH1 0x1 ADD PUSH1 0x20 DUP2 PUSH1 0x0 ADD DIV SWAP3 DUP4 ADD SWAP3 PUSH1 0x1 SUB MUL PUSH3 0xAFF JUMP JUMPDEST POP JUMPDEST POP PUSH3 0xAA4 SWAP3 SWAP2 POP PUSH3 0xB54 JUMP JUMPDEST DUP1 DUP3 GT ISZERO PUSH3 0xAA4 JUMPI PUSH1 0x0 DUP2 SSTORE PUSH1 0x1 ADD PUSH3 0xB3E JUMP JUMPDEST DUP1 DUP3 GT ISZERO PUSH3 0xAA4 JUMPI PUSH1 0x0 DUP2 SSTORE PUSH1 0x1 ADD PUSH3 0xB3E JUMP JUMPDEST DUP1 MLOAD PUSH1 0x1 PUSH1 0x1 PUSH1 0xA0 SHL SUB DUP2 AND DUP2 EQ PUSH3 0xB82 JUMPI PUSH1 0x0 DUP1 REVERT JUMPDEST SWAP2 SWAP1 POP JUMP JUMPDEST PUSH1 0x0 DUP1 PUSH1 0x0 DUP1 PUSH1 0x80 DUP6 DUP8 SUB SLT ISZERO PUSH3 0xB9E JUMPI PUSH1 0x0 DUP1 REVERT JUMPDEST PUSH3 0xBA9 DUP6 PUSH3 0xB6A JUMP JUMPDEST SWAP4 POP PUSH3 0xBB9 PUSH1 0x20 DUP7 ADD PUSH3 0xB6A JUMP JUMPDEST SWAP3 POP PUSH3 0xBC9 PUSH1 0x40 DUP7 ADD PUSH3 0xB6A JUMP JUMPDEST SWAP2 POP PUSH3 0xBD9 PUSH1 0x60 DUP7 ADD PUSH3 0xB6A JUMP JUMPDEST SWAP1 POP SWAP3 SWAP6 SWAP2 SWAP5 POP SWAP3 POP JUMP JUMPDEST PUSH2 0x4603 DUP1 PUSH3 0xBF4 PUSH1 0x0 CODECOPY PUSH1 0x0 RETURN INVALID PUSH1 0x80 PUSH1 0x40 MSTORE CALLVALUE DUP1 ISZERO PUSH2 0x10 JUMPI PUSH1 0x0 DUP1 REVERT JUMPDEST POP PUSH1 0x4 CALLDATASIZE LT PUSH2 0x27F JUMPI PUSH1 0x0 CALLDATALOAD PUSH1 0xE0 SHR DUP1 PUSH4 0x5C0068A2 GT PUSH2 0x15C JUMPI DUP1 PUSH4 0xB0D77774 GT PUSH2 0xCE JUMPI DUP1 PUSH4 0xE4547FB4 GT PUSH2 0x87 JUMPI DUP1 PUSH4 0xE4547FB4 EQ PUSH2 0x649 JUMPI DUP1 PUSH4 0xE6192FCA EQ PUSH2 0x649 JUMPI DUP1 PUSH4 0xEA0E35B1 EQ PUSH2 0x654 JUMPI DUP1 PUSH4 0xEAA10576 EQ PUSH2 0x65C JUMPI DUP1 PUSH4 0xF15AD264 EQ PUSH2 0x67C JUMPI DUP1 PUSH4 0xFD7C31A6 EQ PUSH2 0x68F JUMPI PUSH1 0x0 DUP1 REVERT JUMPDEST DUP1 PUSH4 0xB0D77774 EQ PUSH2 0x5B3 JUMPI DUP1 PUSH4 0xBC9955A2 EQ PUSH2 0x5C6 JUMPI DUP1 PUSH4 0xBFC22A82 EQ PUSH2 0x5D9 JUMPI DUP1 PUSH4 0xC0AD21D8 EQ PUSH2 0x5EC JUMPI DUP1 PUSH4 0xD1433201 EQ PUSH2 0x5FF JUMPI DUP1 PUSH4 0xD4CEEEC0 EQ PUSH2 0x625 JUMPI PUSH1 0x0 DUP1 REVERT JUMPDEST DUP1 PUSH4 0x7AB9E7FE GT PUSH2 0x120 JUMPI DUP1 PUSH4 0x7AB9E7FE EQ PUSH2 0x522 JUMPI DUP1 PUSH4 0x7B0C98EF EQ PUSH2 0x552 JUMPI DUP1 PUSH4 0x98A8D0E7 EQ PUSH2 0x565 JUMPI DUP1 PUSH4 0x9B21D6EB EQ PUSH2 0x578 JUMPI DUP1 PUSH4 0x9D995717 EQ PUSH2 0x58D JUMPI DUP1 PUSH4 0xA609775B EQ PUSH2 0x5A0 JUMPI PUSH1 0x0 DUP1 REVERT JUMPDEST DUP1 PUSH4 0x5C0068A2 EQ PUSH2 0x4E4 JUMPI DUP1 PUSH4 0x62C5813D EQ PUSH2 0x4F7 JUMPI DUP1 PUSH4 0x65191666 EQ PUSH2 0x4F7 JUMPI DUP1 PUSH4 0x6573C241 EQ PUSH2 0x503 JUMPI DUP1 PUSH4 0x731AE689 EQ PUSH2 0x516 JUMPI PUSH1 0x0 DUP1 REVERT JUMPDEST DUP1 PUSH4 0x2E4B51BD GT PUSH2 0x1F5 JUMPI DUP1 PUSH4 0x3F9662BB GT PUSH2 0x1B9 JUMPI DUP1 PUSH4 0x3F9662BB EQ PUSH2 0x45C JUMPI DUP1 PUSH4 0x40B76BBD EQ PUSH2 0x46F JUMPI DUP1 PUSH4 0x44AD764D EQ PUSH2 0x492 JUMPI DUP1 PUSH4 0x4F264B03 EQ PUSH2 0x4A5 JUMPI DUP1 PUSH4 0x5387A797 EQ PUSH2 0x391 JUMPI DUP1 PUSH4 0x58612A20 EQ PUSH2 0x4B8 JUMPI PUSH1 0x0 DUP1 REVERT JUMPDEST DUP1 PUSH4 0x2E4B51BD EQ PUSH2 0x2C2 JUMPI DUP1 PUSH4 0x2F57741C EQ PUSH2 0x3B1 JUMPI DUP1 PUSH4 0x2FAD0429 EQ PUSH2 0x3C4 JUMPI DUP1 PUSH4 0x36780527 EQ PUSH2 0x3E4 JUMPI DUP1 PUSH4 0x3942613C EQ PUSH2 0x417 JUMPI PUSH1 0x0 DUP1 REVERT JUMPDEST DUP1 PUSH4 0x154538AB GT PUSH2 0x247 JUMPI DUP1 PUSH4 0x154538AB EQ PUSH2 0x319 JUMPI DUP1 PUSH4 0x196AB1AB EQ PUSH2 0x346 JUMPI DUP1 PUSH4 0x1CECB4FB EQ PUSH2 0x359 JUMPI DUP1 PUSH4 0x2A2026A9 EQ PUSH2 0x36C JUMPI DUP1 PUSH4 0x2C6D422F EQ PUSH2 0x391 JUMPI DUP1 PUSH4 0x2DEC2E63 EQ PUSH2 0x39C JUMPI PUSH1 0x0 DUP1 REVERT JUMPDEST DUP1 PUSH4 0x821DE3E EQ PUSH2 0x284 JUMPI DUP1 PUSH4 0x9E59CEC EQ PUSH2 0x299 JUMPI DUP1 PUSH4 0xCEA9DC5 EQ PUSH2 0x2C2 JUMPI DUP1 PUSH4 0xD67F59E EQ PUSH2 0x2DB JUMPI DUP1 PUSH4 0x13A5CEDE EQ PUSH2 0x306 JUMPI JUMPDEST PUSH1 0x0 DUP1 REVERT JUMPDEST PUSH2 0x297 PUSH2 0x292 CALLDATASIZE PUSH1 0x4 PUSH2 0x3AC1 JUMP JUMPDEST PUSH2 0x6A2 JUMP JUMPDEST STOP JUMPDEST PUSH2 0x2AC PUSH2 0x2A7 CALLDATASIZE PUSH1 0x4 PUSH2 0x3B21 JUMP JUMPDEST PUSH2 0x8B3 JUMP JUMPDEST PUSH1 0x40 MLOAD PUSH2 0x2B9 SWAP2 SWAP1 PUSH2 0x3BA4 JUMP JUMPDEST PUSH1 0x40 MLOAD DUP1 SWAP2 SUB SWAP1 RETURN JUMPDEST PUSH2 0x2CD PUSH4 0x3B9ACA00 DUP2 JUMP JUMPDEST PUSH1 0x40 MLOAD SWAP1 DUP2 MSTORE PUSH1 0x20 ADD PUSH2 0x2B9 JUMP JUMPDEST PUSH1 0x15 SLOAD PUSH2 0x2EE SWAP1 PUSH1 0x1 PUSH1 0x1 PUSH1 0xA0 SHL SUB AND DUP2 JUMP JUMPDEST PUSH1 0x40 MLOAD PUSH1 0x1 PUSH1 0x1 PUSH1 0xA0 SHL SUB SWAP1 SWAP2 AND DUP2 MSTORE PUSH1 0x20 ADD PUSH2 0x2B9 JUMP JUMPDEST PUSH2 0x2AC PUSH2 0x314 CALLDATASIZE PUSH1 0x4 PUSH2 0x3BD3 JUMP JUMPDEST PUSH2 0x968 JUMP JUMPDEST PUSH2 0x32C PUSH2 0x327 CALLDATASIZE PUSH1 0x4 PUSH2 0x3BF0 JUMP JUMPDEST PUSH2 0xA02 JUMP JUMPDEST PUSH1 0x40 DUP1 MLOAD PUSH1 0xFF SWAP4 DUP5 AND DUP2 MSTORE SWAP3 SWAP1 SWAP2 AND PUSH1 0x20 DUP4 ADD MSTORE ADD PUSH2 0x2B9 JUMP JUMPDEST PUSH1 0x21 SLOAD PUSH2 0x2EE SWAP1 PUSH1 0x1 PUSH1 0x1 PUSH1 0xA0 SHL SUB AND DUP2 JUMP JUMPDEST PUSH2 0x297 PUSH2 0x367 CALLDATASIZE PUSH1 0x4 PUSH2 0x3B21 JUMP JUMPDEST PUSH2 0xA6A JUMP JUMPDEST PUSH2 0x37F PUSH2 0x37A CALLDATASIZE PUSH1 0x4 PUSH2 0x3B21 JUMP JUMPDEST PUSH2 0x10A8 JUMP JUMPDEST PUSH1 0x40 MLOAD PUSH1 0xFF SWAP1 SWAP2 AND DUP2 MSTORE PUSH1 0x20 ADD PUSH2 0x2B9 JUMP JUMPDEST PUSH2 0x2CD PUSH4 0x35A4E900 DUP2 JUMP JUMPDEST PUSH2 0x3A4 PUSH2 0x114B JUMP JUMPDEST PUSH1 0x40 MLOAD PUSH2 0x2B9 SWAP2 SWAP1 PUSH2 0x3C0B JUMP JUMPDEST PUSH2 0x297 PUSH2 0x3BF CALLDATASIZE PUSH1 0x4 PUSH2 0x3C77 JUMP JUMPDEST PUSH2 0x1317 JUMP JUMPDEST PUSH2 0x3D7 PUSH2 0x3D2 CALLDATASIZE PUSH1 0x4 PUSH2 0x3BF0 JUMP JUMPDEST PUSH2 0x1336 JUMP JUMPDEST PUSH1 0x40 MLOAD PUSH2 0x2B9 SWAP2 SWAP1 PUSH2 0x3D0C JUMP JUMPDEST PUSH2 0x407 PUSH2 0x3F2 CALLDATASIZE PUSH1 0x4 PUSH2 0x3D1F JUMP JUMPDEST PUSH1 0x17 PUSH1 0x20 MSTORE PUSH1 0x0 SWAP1 DUP2 MSTORE PUSH1 0x40 SWAP1 KECCAK256 SLOAD PUSH1 0xFF AND DUP2 JUMP JUMPDEST PUSH1 0x40 MLOAD SWAP1 ISZERO ISZERO DUP2 MSTORE PUSH1 0x20 ADD PUSH2 0x2B9 JUMP JUMPDEST PUSH2 0x443 PUSH2 0x425 CALLDATASIZE PUSH1 0x4 PUSH2 0x3D38 JUMP JUMPDEST PUSH1 0x1B PUSH1 0x20 MSTORE PUSH1 0x0 SWAP1 DUP2 MSTORE PUSH1 0x40 SWAP1 KECCAK256 SLOAD PUSH1 0xFF DUP1 DUP3 AND SWAP2 PUSH2 0x100 SWAP1 DIV AND DUP3 JUMP JUMPDEST PUSH1 0x40 DUP1 MLOAD PUSH1 0xFF SWAP1 SWAP4 AND DUP4 MSTORE SWAP1 ISZERO ISZERO PUSH1 0x20 DUP4 ADD MSTORE ADD PUSH2 0x2B9 JUMP JUMPDEST PUSH2 0x407 PUSH2 0x46A CALLDATASIZE PUSH1 0x4 PUSH2 0x3C77 JUMP JUMPDEST PUSH2 0x144F JUMP JUMPDEST PUSH2 0x37F PUSH2 0x47D CALLDATASIZE PUSH1 0x4 PUSH2 0x3D38 JUMP JUMPDEST PUSH1 0x1D PUSH1 0x20 MSTORE PUSH1 0x0 SWAP1 DUP2 MSTORE PUSH1 0x40 SWAP1 KECCAK256 SLOAD PUSH1 0xFF AND DUP2 JUMP JUMPDEST PUSH2 0x297 PUSH2 0x4A0 CALLDATASIZE PUSH1 0x4 PUSH2 0x3B21 JUMP JUMPDEST PUSH2 0x14AC JUMP JUMPDEST PUSH1 0x14 SLOAD PUSH2 0x2EE SWAP1 PUSH1 0x1 PUSH1 0x1 PUSH1 0xA0 SHL SUB AND DUP2 JUMP JUMPDEST PUSH2 0x37F PUSH2 0x4C6 CALLDATASIZE PUSH1 0x4 PUSH2 0x3B21 JUMP JUMPDEST PUSH1 0x20 DUP1 DUP1 MSTORE PUSH1 0x0 SWAP3 DUP4 MSTORE PUSH1 0x40 DUP1 DUP5 KECCAK256 SWAP1 SWAP2 MSTORE SWAP1 DUP3 MSTORE SWAP1 KECCAK256 SLOAD PUSH1 0xFF AND DUP2 JUMP JUMPDEST PUSH2 0x297 PUSH2 0x4F2 CALLDATASIZE PUSH1 0x4 PUSH2 0x3D5C JUMP JUMPDEST PUSH2 0x15DA JUMP JUMPDEST PUSH2 0x2CD PUSH5 0x2540BE400 DUP2 JUMP JUMPDEST PUSH2 0x297 PUSH2 0x511 CALLDATASIZE PUSH1 0x4 PUSH2 0x3DA7 JUMP JUMPDEST PUSH2 0x1A09 JUMP JUMPDEST PUSH2 0x2CD PUSH5 0x174876E800 DUP2 JUMP JUMPDEST PUSH2 0x37F PUSH2 0x530 CALLDATASIZE PUSH1 0x4 PUSH2 0x3B21 JUMP JUMPDEST PUSH1 0xFF SWAP2 DUP3 AND PUSH1 0x0 SWAP1 DUP2 MSTORE PUSH1 0x20 DUP1 DUP1 MSTORE PUSH1 0x40 DUP1 DUP4 KECCAK256 SWAP4 DUP6 AND DUP4 MSTORE SWAP3 SWAP1 MSTORE KECCAK256 SLOAD AND SWAP1 JUMP JUMPDEST PUSH2 0x2AC PUSH2 0x560 CALLDATASIZE PUSH1 0x4 PUSH2 0x3B21 JUMP JUMPDEST PUSH2 0x1D70 JUMP JUMPDEST PUSH2 0x297 PUSH2 0x573 CALLDATASIZE PUSH1 0x4 PUSH2 0x3AC1 JUMP JUMPDEST PUSH2 0x1D94 JUMP JUMPDEST PUSH2 0x580 PUSH2 0x239B JUMP JUMPDEST PUSH1 0x40 MLOAD PUSH2 0x2B9 SWAP2 SWAP1 PUSH2 0x3DEA JUMP JUMPDEST PUSH2 0x37F PUSH2 0x59B CALLDATASIZE PUSH1 0x4 PUSH2 0x3BF0 JUMP JUMPDEST PUSH2 0x25CF JUMP JUMPDEST PUSH2 0x297 PUSH2 0x5AE CALLDATASIZE PUSH1 0x4 PUSH2 0x3B21 JUMP JUMPDEST PUSH2 0x262F JUMP JUMPDEST PUSH1 0x16 SLOAD PUSH2 0x2EE SWAP1 PUSH1 0x1 PUSH1 0x1 PUSH1 0xA0 SHL SUB AND DUP2 JUMP JUMPDEST PUSH2 0x37F PUSH2 0x5D4 CALLDATASIZE PUSH1 0x4 PUSH2 0x3E4C JUMP JUMPDEST PUSH2 0x2932 JUMP JUMPDEST PUSH2 0x3A4 PUSH2 0x5E7 CALLDATASIZE PUSH1 0x4 PUSH2 0x3BF0 JUMP JUMPDEST PUSH2 0x296E JUMP JUMPDEST PUSH2 0x297 PUSH2 0x5FA CALLDATASIZE PUSH1 0x4 PUSH2 0x3E6E JUMP JUMPDEST PUSH2 0x2A97 JUMP JUMPDEST PUSH2 0x612 PUSH2 0x60D CALLDATASIZE PUSH1 0x4 PUSH2 0x3ED3 JUMP JUMPDEST PUSH2 0x2E79 JUMP JUMPDEST PUSH1 0x40 MLOAD PUSH2 0xFFFF SWAP1 SWAP2 AND DUP2 MSTORE PUSH1 0x20 ADD PUSH2 0x2B9 JUMP JUMPDEST PUSH2 0x638 PUSH2 0x633 CALLDATASIZE PUSH1 0x4 PUSH2 0x3BF0 JUMP JUMPDEST PUSH2 0x2EC0 JUMP JUMPDEST PUSH1 0x40 MLOAD PUSH2 0x2B9 SWAP6 SWAP5 SWAP4 SWAP3 SWAP2 SWAP1 PUSH2 0x3EFD JUMP JUMPDEST PUSH2 0x2CD PUSH4 0x5F5E100 DUP2 JUMP JUMPDEST PUSH2 0x37F PUSH1 0x1E DUP2 JUMP JUMPDEST PUSH2 0x2CD PUSH2 0x66A CALLDATASIZE PUSH1 0x4 PUSH2 0x3BF0 JUMP JUMPDEST PUSH1 0x22 PUSH1 0x20 MSTORE PUSH1 0x0 SWAP1 DUP2 MSTORE PUSH1 0x40 SWAP1 KECCAK256 SLOAD DUP2 JUMP JUMPDEST PUSH2 0x2AC PUSH2 0x68A CALLDATASIZE PUSH1 0x4 PUSH2 0x3BD3 JUMP JUMPDEST PUSH2 0x2F83 JUMP JUMPDEST PUSH2 0x297 PUSH2 0x69D CALLDATASIZE PUSH1 0x4 PUSH2 0x3E6E JUMP JUMPDEST PUSH2 0x302F JUMP JUMPDEST DUP1 PUSH2 0x6EB JUMPI PUSH1 0x40 MLOAD PUSH3 0x461BCD PUSH1 0xE5 SHL DUP2 MSTORE PUSH1 0x20 PUSH1 0x4 DUP3 ADD MSTORE PUSH1 0x14 PUSH1 0x24 DUP3 ADD MSTORE PUSH20 0x4E616D652063616E6E6F7420626520656D707479 PUSH1 0x60 SHL PUSH1 0x44 DUP3 ADD MSTORE PUSH1 0x64 ADD JUMPDEST PUSH1 0x40 MLOAD DUP1 SWAP2 SUB SWAP1 REVERT JUMPDEST PUSH1 0x14 SLOAD PUSH1 0x40 MLOAD PUSH4 0x8A888953 PUSH1 0xE0 SHL DUP2 MSTORE PUSH1 0xFF DUP1 DUP8 AND PUSH1 0x4 DUP4 ADD MSTORE DUP6 AND PUSH1 0x24 DUP3 ADD MSTORE CALLER SWAP2 PUSH1 0x1 PUSH1 0x1 PUSH1 0xA0 SHL SUB AND SWAP1 PUSH4 0x8A888953 SWAP1 PUSH1 0x44 ADD PUSH1 0x20 PUSH1 0x40 MLOAD DUP1 DUP4 SUB DUP2 DUP7 GAS STATICCALL ISZERO DUP1 ISZERO PUSH2 0x73E JUMPI RETURNDATASIZE PUSH1 0x0 DUP1 RETURNDATACOPY RETURNDATASIZE PUSH1 0x0 REVERT JUMPDEST POP POP POP POP PUSH1 0x40 MLOAD RETURNDATASIZE PUSH1 0x1F NOT PUSH1 0x1F DUP3 ADD AND DUP3 ADD DUP1 PUSH1 0x40 MSTORE POP DUP2 ADD SWAP1 PUSH2 0x762 SWAP2 SWAP1 PUSH2 0x3F4A JUMP JUMPDEST PUSH1 0x1 PUSH1 0x1 PUSH1 0xA0 SHL SUB AND EQ PUSH2 0x7C3 JUMPI PUSH1 0x40 MLOAD PUSH3 0x461BCD PUSH1 0xE5 SHL DUP2 MSTORE PUSH1 0x20 PUSH1 0x4 DUP3 ADD MSTORE PUSH1 0x22 PUSH1 0x24 DUP3 ADD MSTORE PUSH32 0x596F7520617265206E6F7420746865206F776E6572206F662074686973207469 PUSH1 0x44 DUP3 ADD MSTORE PUSH2 0x6C65 PUSH1 0xF0 SHL PUSH1 0x64 DUP3 ADD MSTORE PUSH1 0x84 ADD PUSH2 0x6E2 JUMP JUMPDEST PUSH1 0x15 SLOAD PUSH1 0x40 MLOAD PUSH4 0x23B872DD PUSH1 0xE0 SHL DUP2 MSTORE PUSH1 0x1 PUSH1 0x1 PUSH1 0xA0 SHL SUB SWAP1 SWAP2 AND SWAP1 PUSH4 0x23B872DD SWAP1 PUSH2 0x7FC SWAP1 CALLER SWAP1 ADDRESS SWAP1 PUSH5 0x2540BE400 SWAP1 PUSH1 0x4 ADD PUSH2 0x3F67 JUMP JUMPDEST PUSH1 0x20 PUSH1 0x40 MLOAD DUP1 DUP4 SUB DUP2 PUSH1 0x0 DUP8 GAS CALL ISZERO DUP1 ISZERO PUSH2 0x81B JUMPI RETURNDATASIZE PUSH1 0x0 DUP1 RETURNDATACOPY RETURNDATASIZE PUSH1 0x0 REVERT JUMPDEST POP POP POP POP PUSH1 0x40 MLOAD RETURNDATASIZE PUSH1 0x1F NOT PUSH1 0x1F DUP3 ADD AND DUP3 ADD DUP1 PUSH1 0x40 MSTORE POP DUP2 ADD SWAP1 PUSH2 0x83F SWAP2 SWAP1 PUSH2 0x3F8B JUMP JUMPDEST PUSH2 0x882 JUMPI PUSH1 0x40 MLOAD PUSH3 0x461BCD PUSH1 0xE5 SHL DUP2 MSTORE PUSH1 0x20 PUSH1 0x4 DUP3 ADD MSTORE PUSH1 0x14 PUSH1 0x24 DUP3 ADD MSTORE PUSH20 0x151BDAD95B881C185E5B595B9D0819985A5B1959 PUSH1 0x62 SHL PUSH1 0x44 DUP3 ADD MSTORE PUSH1 0x64 ADD PUSH2 0x6E2 JUMP JUMPDEST PUSH1 0xFF DUP1 DUP6 AND PUSH1 0x0 SWAP1 DUP2 MSTORE PUSH1 0x1E PUSH1 0x20 SWAP1 DUP2 MSTORE PUSH1 0x40 DUP1 DUP4 KECCAK256 SWAP4 DUP8 AND DUP4 MSTORE SWAP3 SWAP1 MSTORE KECCAK256 PUSH2 0x8AC DUP3 DUP5 DUP4 PUSH2 0x404B JUMP JUMPDEST POP POP POP POP POP JUMP JUMPDEST PUSH1 0xFF DUP1 DUP4 AND PUSH1 0x0 SWAP1 DUP2 MSTORE PUSH1 0x1E PUSH1 0x20 SWAP1 DUP2 MSTORE PUSH1 0x40 DUP1 DUP4 KECCAK256 SWAP4 DUP6 AND DUP4 MSTORE SWAP3 SWAP1 MSTORE KECCAK256 DUP1 SLOAD PUSH1 0x60 SWAP2 SWAP1 PUSH2 0x8E1 SWAP1 PUSH2 0x3FC3 JUMP JUMPDEST DUP1 PUSH1 0x1F ADD PUSH1 0x20 DUP1 SWAP2 DIV MUL PUSH1 0x20 ADD PUSH1 0x40 MLOAD SWAP1 DUP2 ADD PUSH1 0x40 MSTORE DUP1 SWAP3 SWAP2 SWAP1 DUP2 DUP2 MSTORE PUSH1 0x20 ADD DUP3 DUP1 SLOAD PUSH2 0x90D SWAP1 PUSH2 0x3FC3 JUMP JUMPDEST DUP1 ISZERO PUSH2 0x95A JUMPI DUP1 PUSH1 0x1F LT PUSH2 0x92F JUMPI PUSH2 0x100 DUP1 DUP4 SLOAD DIV MUL DUP4 MSTORE SWAP2 PUSH1 0x20 ADD SWAP2 PUSH2 0x95A JUMP JUMPDEST DUP3 ADD SWAP2 SWAP1 PUSH1 0x0 MSTORE PUSH1 0x20 PUSH1 0x0 KECCAK256 SWAP1 JUMPDEST DUP2 SLOAD DUP2 MSTORE SWAP1 PUSH1 0x1 ADD SWAP1 PUSH1 0x20 ADD DUP1 DUP4 GT PUSH2 0x93D JUMPI DUP3 SWAP1 SUB PUSH1 0x1F AND DUP3 ADD SWAP2 JUMPDEST POP POP POP POP POP SWAP1 POP JUMPDEST SWAP3 SWAP2 POP POP JUMP JUMPDEST PUSH1 0x1F PUSH1 0x20 MSTORE PUSH1 0x0 SWAP1 DUP2 MSTORE PUSH1 0x40 SWAP1 KECCAK256 DUP1 SLOAD PUSH2 0x981 SWAP1 PUSH2 0x3FC3 JUMP JUMPDEST DUP1 PUSH1 0x1F ADD PUSH1 0x20 DUP1 SWAP2 DIV MUL PUSH1 0x20 ADD PUSH1 0x40 MLOAD SWAP1 DUP2 ADD PUSH1 0x40 MSTORE DUP1 SWAP3 SWAP2 SWAP1 DUP2 DUP2 MSTORE PUSH1 0x20 ADD DUP3 DUP1 SLOAD PUSH2 0x9AD SWAP1 PUSH2 0x3FC3 JUMP JUMPDEST DUP1 ISZERO PUSH2 0x9FA JUMPI DUP1 PUSH1 0x1F LT PUSH2 0x9CF JUMPI PUSH2 0x100 DUP1 DUP4 SLOAD DIV MUL DUP4 MSTORE SWAP2 PUSH1 0x20 ADD SWAP2 PUSH2 0x9FA JUMP JUMPDEST DUP3 ADD SWAP2 SWAP1 PUSH1 0x0 MSTORE PUSH1 0x20 PUSH1 0x0 KECCAK256 SWAP1 JUMPDEST DUP2 SLOAD DUP2 MSTORE SWAP1 PUSH1 0x1 ADD SWAP1 PUSH1 0x20 ADD DUP1 DUP4 GT PUSH2 0x9DD JUMPI DUP3 SWAP1 SUB PUSH1 0x1F AND DUP3 ADD SWAP2 JUMPDEST POP POP POP POP POP DUP2 JUMP JUMPDEST PUSH1 0xFF DUP1 DUP3 AND PUSH1 0x0 SWAP1 DUP2 MSTORE PUSH1 0x1A PUSH1 0x20 MSTORE PUSH1 0x40 DUP2 KECCAK256 PUSH1 0x1 ADD SLOAD SWAP1 SWAP2 DUP3 SWAP2 PUSH4 0x1000000 SWAP1 DIV AND PUSH2 0xA41 JUMPI PUSH1 0x40 MLOAD PUSH3 0x461BCD PUSH1 0xE5 SHL DUP2 MSTORE PUSH1 0x4 ADD PUSH2 0x6E2 SWAP1 PUSH2 0x410A JUMP JUMPDEST POP POP PUSH1 0xFF SWAP1 DUP2 AND PUSH1 0x0 SWAP1 DUP2 MSTORE PUSH1 0x1A PUSH1 0x20 MSTORE PUSH1 0x40 SWAP1 KECCAK256 PUSH1 0x1 ADD SLOAD DUP1 DUP3 AND SWAP3 PUSH2 0x100 SWAP1 SWAP2 DIV SWAP1 SWAP2 AND SWAP1 JUMP JUMPDEST PUSH1 0x14 SLOAD PUSH1 0x40 MLOAD PUSH4 0x8A888953 PUSH1 0xE0 SHL DUP2 MSTORE PUSH1 0xFF DUP1 DUP6 AND PUSH1 0x4 DUP4 ADD MSTORE DUP4 AND PUSH1 0x24 DUP3 ADD MSTORE DUP4 SWAP2 DUP4 SWAP2 CALLER SWAP2 PUSH1 0x1 PUSH1 0x1 PUSH1 0xA0 SHL SUB AND SWAP1 PUSH4 0x8A888953 SWAP1 PUSH1 0x44 ADD PUSH1 0x20 PUSH1 0x40 MLOAD DUP1 DUP4 SUB DUP2 DUP7 GAS STATICCALL ISZERO DUP1 ISZERO PUSH2 0xAC1 JUMPI RETURNDATASIZE PUSH1 0x0 DUP1 RETURNDATACOPY RETURNDATASIZE PUSH1 0x0 REVERT JUMPDEST POP POP POP POP PUSH1 0x40 MLOAD RETURNDATASIZE PUSH1 0x1F NOT PUSH1 0x1F DUP3 ADD AND DUP3 ADD DUP1 PUSH1 0x40 MSTORE POP DUP2 ADD SWAP1 PUSH2 0xAE5 SWAP2 SWAP1 PUSH2 0x3F4A JUMP JUMPDEST PUSH1 0x1 PUSH1 0x1 PUSH1 0xA0 SHL SUB AND EQ PUSH2 0xB0B JUMPI PUSH1 0x40 MLOAD PUSH3 0x461BCD PUSH1 0xE5 SHL DUP2 MSTORE PUSH1 0x4 ADD PUSH2 0x6E2 SWAP1 PUSH2 0x4137 JUMP JUMPDEST PUSH1 0xFF DUP4 DUP2 AND PUSH1 0x8 DUP7 SWAP1 SHL PUSH2 0xFF00 AND OR PUSH1 0x0 DUP2 DUP2 MSTORE PUSH1 0x1B PUSH1 0x20 MSTORE PUSH1 0x40 SWAP1 KECCAK256 SLOAD SWAP1 SWAP2 PUSH2 0x100 SWAP1 SWAP2 DIV AND PUSH2 0xB73 JUMPI PUSH1 0x40 MLOAD PUSH3 0x461BCD PUSH1 0xE5 SHL DUP2 MSTORE PUSH1 0x20 PUSH1 0x4 DUP3 ADD MSTORE PUSH1 0x12 PUSH1 0x24 DUP3 ADD MSTORE PUSH18 0x2A34B632903737BA1034B710309031B630B7 PUSH1 0x71 SHL PUSH1 0x44 DUP3 ADD MSTORE PUSH1 0x64 ADD PUSH2 0x6E2 JUMP JUMPDEST PUSH2 0xFFFF DUP2 AND PUSH1 0x0 SWAP1 DUP2 MSTORE PUSH1 0x1B PUSH1 0x20 SWAP1 DUP2 MSTORE PUSH1 0x40 DUP1 DUP4 KECCAK256 SLOAD PUSH1 0xFF SWAP1 DUP2 AND DUP1 DUP6 MSTORE PUSH1 0x1A SWAP1 SWAP4 MSTORE SWAP3 KECCAK256 PUSH1 0x1 ADD SLOAD SWAP1 SWAP2 PUSH4 0x1000000 SWAP1 SWAP2 DIV AND PUSH2 0xBC4 JUMPI PUSH1 0x40 MLOAD PUSH3 0x461BCD PUSH1 0xE5 SHL DUP2 MSTORE PUSH1 0x4 ADD PUSH2 0x6E2 SWAP1 PUSH2 0x410A JUMP JUMPDEST PUSH1 0xFF DUP2 DUP2 AND PUSH1 0x0 SWAP1 DUP2 MSTORE PUSH1 0x1A PUSH1 0x20 MSTORE PUSH1 0x40 SWAP1 KECCAK256 PUSH1 0x1 ADD SLOAD DUP2 AND SWAP1 DUP8 AND EQ DUP1 ISZERO PUSH2 0xC0B JUMPI POP PUSH1 0xFF DUP2 DUP2 AND PUSH1 0x0 SWAP1 DUP2 MSTORE PUSH1 0x1A PUSH1 0x20 MSTORE PUSH1 0x40 SWAP1 KECCAK256 PUSH1 0x1 ADD SLOAD PUSH2 0x100 SWAP1 DIV DUP2 AND SWAP1 DUP7 AND EQ JUMPDEST ISZERO PUSH2 0xC58 JUMPI PUSH1 0x40 MLOAD PUSH3 0x461BCD PUSH1 0xE5 SHL DUP2 MSTORE PUSH1 0x20 PUSH1 0x4 DUP3 ADD MSTORE PUSH1 0x18 PUSH1 0x24 DUP3 ADD MSTORE PUSH32 0x4C65616465722074696C652063616E6E6F74206C656176650000000000000000 PUSH1 0x44 DUP3 ADD MSTORE PUSH1 0x64 ADD PUSH2 0x6E2 JUMP JUMPDEST PUSH1 0x15 SLOAD PUSH1 0x40 MLOAD PUSH4 0x23B872DD PUSH1 0xE0 SHL DUP2 MSTORE PUSH1 0x1 PUSH1 0x1 PUSH1 0xA0 SHL SUB SWAP1 SWAP2 AND SWAP1 PUSH4 0x23B872DD SWAP1 PUSH2 0xC90 SWAP1 CALLER SWAP1 ADDRESS SWAP1 PUSH4 0x3B9ACA00 SWAP1 PUSH1 0x4 ADD PUSH2 0x3F67 JUMP JUMPDEST PUSH1 0x20 PUSH1 0x40 MLOAD DUP1 DUP4 SUB DUP2 PUSH1 0x0 DUP8 GAS CALL ISZERO DUP1 ISZERO PUSH2 0xCAF JUMPI RETURNDATASIZE PUSH1 0x0 DUP1 RETURNDATACOPY RETURNDATASIZE PUSH1 0x0 REVERT JUMPDEST POP POP POP POP PUSH1 0x40 MLOAD RETURNDATASIZE PUSH1 0x1F NOT PUSH1 0x1F DUP3 ADD AND DUP3 ADD DUP1 PUSH1 0x40 MSTORE POP DUP2 ADD SWAP1 PUSH2 0xCD3 SWAP2 SWAP1 PUSH2 0x3F8B JUMP JUMPDEST PUSH2 0xCEF JUMPI PUSH1 0x40 MLOAD PUSH3 0x461BCD PUSH1 0xE5 SHL DUP2 MSTORE PUSH1 0x4 ADD PUSH2 0x6E2 SWAP1 PUSH2 0x416E JUMP JUMPDEST PUSH2 0xFFFF DUP3 AND PUSH1 0x0 SWAP1 DUP2 MSTORE PUSH1 0x1B PUSH1 0x20 SWAP1 DUP2 MSTORE PUSH1 0x40 DUP1 DUP4 KECCAK256 DUP1 SLOAD PUSH2 0xFF00 NOT AND SWAP1 SSTORE PUSH1 0xFF DUP10 DUP2 AND DUP5 MSTORE DUP3 DUP1 MSTORE DUP2 DUP5 KECCAK256 DUP10 DUP3 AND DUP6 MSTORE DUP4 MSTORE DUP2 DUP5 KECCAK256 DUP1 SLOAD PUSH1 0xFF NOT AND SWAP1 SSTORE DUP5 DUP2 AND DUP5 MSTORE PUSH1 0x1A SWAP1 SWAP3 MSTORE SWAP1 SWAP2 KECCAK256 PUSH1 0x1 ADD DUP1 SLOAD PUSH3 0x10000 SWAP1 DIV SWAP1 SWAP2 AND SWAP1 PUSH1 0x2 PUSH2 0xD54 DUP4 PUSH2 0x41B1 JUMP JUMPDEST DUP3 SLOAD PUSH2 0x100 SWAP3 SWAP1 SWAP3 EXP PUSH1 0xFF DUP2 DUP2 MUL NOT SWAP1 SWAP4 AND SWAP2 DUP4 AND MUL OR SWAP1 SWAP2 SSTORE DUP3 AND PUSH1 0x0 SWAP1 DUP2 MSTORE PUSH1 0x1C PUSH1 0x20 MSTORE PUSH1 0x40 DUP2 KECCAK256 SWAP2 POP JUMPDEST DUP2 SLOAD DUP2 LT ISZERO PUSH2 0xEA0 JUMPI DUP4 PUSH2 0xFFFF AND DUP3 DUP3 DUP2 SLOAD DUP2 LT PUSH2 0xDA1 JUMPI PUSH2 0xDA1 PUSH2 0x41CE JUMP JUMPDEST PUSH1 0x0 SWAP2 DUP3 MSTORE PUSH1 0x20 SWAP1 SWAP2 KECCAK256 PUSH1 0x10 DUP3 DIV ADD SLOAD PUSH1 0xF SWAP1 SWAP2 AND PUSH1 0x2 MUL PUSH2 0x100 EXP SWAP1 DIV PUSH2 0xFFFF AND SUB PUSH2 0xE8E JUMPI DUP2 SLOAD DUP3 SWAP1 PUSH2 0xDD8 SWAP1 PUSH1 0x1 SWAP1 PUSH2 0x41E4 JUMP JUMPDEST DUP2 SLOAD DUP2 LT PUSH2 0xDE8 JUMPI PUSH2 0xDE8 PUSH2 0x41CE JUMP JUMPDEST SWAP1 PUSH1 0x0 MSTORE PUSH1 0x20 PUSH1 0x0 KECCAK256 SWAP1 PUSH1 0x10 SWAP2 DUP3 DUP3 DIV ADD SWAP2 SWAP1 MOD PUSH1 0x2 MUL SWAP1 SLOAD SWAP1 PUSH2 0x100 EXP SWAP1 DIV PUSH2 0xFFFF AND DUP3 DUP3 DUP2 SLOAD DUP2 LT PUSH2 0xE1E JUMPI PUSH2 0xE1E PUSH2 0x41CE JUMP JUMPDEST SWAP1 PUSH1 0x0 MSTORE PUSH1 0x20 PUSH1 0x0 KECCAK256 SWAP1 PUSH1 0x10 SWAP2 DUP3 DUP3 DIV ADD SWAP2 SWAP1 MOD PUSH1 0x2 MUL PUSH2 0x100 EXP DUP2 SLOAD DUP2 PUSH2 0xFFFF MUL NOT AND SWAP1 DUP4 PUSH2 0xFFFF AND MUL OR SWAP1 SSTORE POP DUP2 DUP1 SLOAD DUP1 PUSH2 0xE5D JUMPI PUSH2 0xE5D PUSH2 0x41F7 JUMP JUMPDEST PUSH1 0x0 DUP3 DUP2 MSTORE PUSH1 0x20 SWAP1 KECCAK256 PUSH1 0x10 PUSH1 0x0 NOT SWAP1 SWAP3 ADD SWAP2 DUP3 DIV ADD DUP1 SLOAD PUSH2 0xFFFF PUSH1 0x2 PUSH1 0xF DUP6 AND MUL PUSH2 0x100 EXP MUL NOT AND SWAP1 SSTORE SWAP1 SSTORE PUSH2 0xEA0 JUMP JUMPDEST DUP1 PUSH2 0xE98 DUP2 PUSH2 0x420D JUMP JUMPDEST SWAP2 POP POP PUSH2 0xD81 JUMP JUMPDEST POP PUSH1 0x14 SLOAD PUSH1 0xFF DUP4 DUP2 AND PUSH1 0x0 SWAP1 DUP2 MSTORE PUSH1 0x1A PUSH1 0x20 MSTORE PUSH1 0x40 DUP1 DUP3 KECCAK256 PUSH1 0x1 ADD SLOAD SWAP1 MLOAD PUSH4 0x8A888953 PUSH1 0xE0 SHL DUP2 MSTORE DUP2 DUP5 AND PUSH1 0x4 DUP3 ADD MSTORE PUSH2 0x100 SWAP1 SWAP2 DIV SWAP1 SWAP3 AND PUSH1 0x24 DUP4 ADD MSTORE SWAP2 PUSH1 0x1 PUSH1 0x1 PUSH1 0xA0 SHL SUB AND SWAP1 PUSH4 0x8A888953 SWAP1 PUSH1 0x44 ADD PUSH1 0x20 PUSH1 0x40 MLOAD DUP1 DUP4 SUB DUP2 DUP7 GAS STATICCALL ISZERO DUP1 ISZERO PUSH2 0xF0F JUMPI RETURNDATASIZE PUSH1 0x0 DUP1 RETURNDATACOPY RETURNDATASIZE PUSH1 0x0 REVERT JUMPDEST POP POP POP POP PUSH1 0x40 MLOAD RETURNDATASIZE PUSH1 0x1F NOT PUSH1 0x1F DUP3 ADD AND DUP3 ADD DUP1 PUSH1 0x40 MSTORE POP DUP2 ADD SWAP1 PUSH2 0xF33 SWAP2 SWAP1 PUSH2 0x3F4A JUMP JUMPDEST PUSH1 0x15 SLOAD PUSH1 0x40 MLOAD PUSH4 0xA9059CBB PUSH1 0xE0 SHL DUP2 MSTORE PUSH1 0x1 PUSH1 0x1 PUSH1 0xA0 SHL SUB DUP1 DUP5 AND PUSH1 0x4 DUP4 ADD MSTORE PUSH4 0x35A4E900 PUSH1 0x24 DUP4 ADD MSTORE SWAP3 SWAP4 POP SWAP2 AND SWAP1 PUSH4 0xA9059CBB SWAP1 PUSH1 0x44 ADD PUSH1 0x20 PUSH1 0x40 MLOAD DUP1 DUP4 SUB DUP2 PUSH1 0x0 DUP8 GAS CALL ISZERO DUP1 ISZERO PUSH2 0xF8B JUMPI RETURNDATASIZE PUSH1 0x0 DUP1 RETURNDATACOPY RETURNDATASIZE PUSH1 0x0 REVERT JUMPDEST POP POP POP POP PUSH1 0x40 MLOAD RETURNDATASIZE PUSH1 0x1F NOT PUSH1 0x1F DUP3 ADD AND DUP3 ADD DUP1 PUSH1 0x40 MSTORE POP DUP2 ADD SWAP1 PUSH2 0xFAF SWAP2 SWAP1 PUSH2 0x3F8B JUMP JUMPDEST PUSH2 0xFF2 JUMPI PUSH1 0x40 MLOAD PUSH3 0x461BCD PUSH1 0xE5 SHL DUP2 MSTORE PUSH1 0x20 PUSH1 0x4 DUP3 ADD MSTORE PUSH1 0x14 PUSH1 0x24 DUP3 ADD MSTORE PUSH20 0x13195859195C881C185E5BDD5D0819985A5B1959 PUSH1 0x62 SHL PUSH1 0x44 DUP3 ADD MSTORE PUSH1 0x64 ADD PUSH2 0x6E2 JUMP JUMPDEST PUSH1 0x15 SLOAD PUSH1 0x40 MLOAD PUSH4 0x852CD8D PUSH1 0xE3 SHL DUP2 MSTORE PUSH4 0x5F5E100 PUSH1 0x4 DUP3 ADD MSTORE PUSH1 0x1 PUSH1 0x1 PUSH1 0xA0 SHL SUB SWAP1 SWAP2 AND SWAP1 PUSH4 0x42966C68 SWAP1 PUSH1 0x24 ADD PUSH1 0x20 PUSH1 0x40 MLOAD DUP1 DUP4 SUB DUP2 PUSH1 0x0 DUP8 GAS CALL ISZERO DUP1 ISZERO PUSH2 0x1040 JUMPI RETURNDATASIZE PUSH1 0x0 DUP1 RETURNDATACOPY RETURNDATASIZE PUSH1 0x0 REVERT JUMPDEST POP POP POP POP PUSH1 0x40 MLOAD RETURNDATASIZE PUSH1 0x1F NOT PUSH1 0x1F DUP3 ADD AND DUP3 ADD DUP1 PUSH1 0x40 MSTORE POP DUP2 ADD SWAP1 PUSH2 0x1064 SWAP2 SWAP1 PUSH2 0x3F8B JUMP JUMPDEST PUSH2 0x109E JUMPI PUSH1 0x40 MLOAD PUSH3 0x461BCD PUSH1 0xE5 SHL DUP2 MSTORE PUSH1 0x20 PUSH1 0x4 DUP3 ADD MSTORE PUSH1 0xB PUSH1 0x24 DUP3 ADD MSTORE PUSH11 0x109D5C9B8819985A5B1959 PUSH1 0xAA SHL PUSH1 0x44 DUP3 ADD MSTORE PUSH1 0x64 ADD PUSH2 0x6E2 JUMP JUMPDEST POP POP POP POP POP POP POP POP JUMP JUMPDEST PUSH1 0x0 PUSH1 0x14 DUP4 PUSH1 0xFF AND LT DUP1 ISZERO PUSH2 0x10C0 JUMPI POP PUSH1 0x14 DUP3 PUSH1 0xFF AND LT JUMPDEST PUSH2 0x1102 JUMPI PUSH1 0x40 MLOAD PUSH3 0x461BCD PUSH1 0xE5 SHL DUP2 MSTORE PUSH1 0x20 PUSH1 0x4 DUP3 ADD MSTORE PUSH1 0x13 PUSH1 0x24 DUP3 ADD MSTORE PUSH19 0x496E76616C696420636F6F7264696E61746573 PUSH1 0x68 SHL PUSH1 0x44 DUP3 ADD MSTORE PUSH1 0x64 ADD PUSH2 0x6E2 JUMP JUMPDEST PUSH1 0x0 DUP4 PUSH1 0xFF AND PUSH1 0x14 DUP2 LT PUSH2 0x1118 JUMPI PUSH2 0x1118 PUSH2 0x41CE JUMP JUMPDEST ADD DUP3 PUSH1 0xFF AND PUSH1 0x14 DUP2 LT PUSH2 0x112D JUMPI PUSH2 0x112D PUSH2 0x41CE JUMP JUMPDEST PUSH1 0x20 DUP2 DIV SWAP1 SWAP2 ADD SLOAD PUSH1 0xFF PUSH1 0x1F SWAP1 SWAP3 AND PUSH2 0x100 EXP SWAP1 DIV AND SWAP1 POP SWAP3 SWAP2 POP POP JUMP JUMPDEST PUSH1 0x60 PUSH1 0x0 DUP1 JUMPDEST PUSH1 0x14 DUP2 PUSH1 0xFF AND LT ISZERO PUSH2 0x11C4 JUMPI PUSH1 0x0 JUMPDEST PUSH1 0x14 DUP2 PUSH1 0xFF AND LT ISZERO PUSH2 0x11B1 JUMPI PUSH1 0xFF DUP1 DUP4 AND PUSH1 0x0 SWAP1 DUP2 MSTORE PUSH1 0x20 DUP1 DUP1 MSTORE PUSH1 0x40 DUP1 DUP4 KECCAK256 DUP6 DUP6 AND DUP5 MSTORE SWAP1 SWAP2 MSTORE SWAP1 KECCAK256 SLOAD AND ISZERO PUSH2 0x119F JUMPI DUP3 PUSH2 0x119B DUP2 PUSH2 0x420D JUMP JUMPDEST SWAP4 POP POP JUMPDEST DUP1 PUSH2 0x11A9 DUP2 PUSH2 0x4226 JUMP JUMPDEST SWAP2 POP POP PUSH2 0x1160 JUMP JUMPDEST POP DUP1 PUSH2 0x11BC DUP2 PUSH2 0x4226 JUMP JUMPDEST SWAP2 POP POP PUSH2 0x1151 JUMP JUMPDEST POP PUSH1 0x0 DUP2 PUSH1 0x1 PUSH1 0x1 PUSH1 0x40 SHL SUB DUP2 GT ISZERO PUSH2 0x11DF JUMPI PUSH2 0x11DF PUSH2 0x3FAD JUMP JUMPDEST PUSH1 0x40 MLOAD SWAP1 DUP1 DUP3 MSTORE DUP1 PUSH1 0x20 MUL PUSH1 0x20 ADD DUP3 ADD PUSH1 0x40 MSTORE DUP1 ISZERO PUSH2 0x1231 JUMPI DUP2 PUSH1 0x20 ADD JUMPDEST PUSH1 0x40 DUP1 MLOAD PUSH1 0x80 DUP2 ADD DUP3 MSTORE PUSH1 0x0 DUP1 DUP3 MSTORE PUSH1 0x20 DUP1 DUP4 ADD DUP3 SWAP1 MSTORE SWAP3 DUP3 ADD DUP2 SWAP1 MSTORE PUSH1 0x60 DUP3 ADD MSTORE DUP3 MSTORE PUSH1 0x0 NOT SWAP1 SWAP3 ADD SWAP2 ADD DUP2 PUSH2 0x11FD JUMPI SWAP1 POP JUMPDEST POP SWAP1 POP PUSH1 0x0 DUP1 JUMPDEST PUSH1 0x14 DUP2 PUSH1 0xFF AND LT ISZERO PUSH2 0x130E JUMPI PUSH1 0x0 JUMPDEST PUSH1 0x14 DUP2 PUSH1 0xFF AND LT ISZERO PUSH2 0x12FB JUMPI PUSH1 0xFF DUP1 DUP4 AND PUSH1 0x0 SWAP1 DUP2 MSTORE PUSH1 0x20 DUP1 DUP1 MSTORE PUSH1 0x40 DUP1 DUP4 KECCAK256 DUP6 DUP6 AND DUP5 MSTORE SWAP1 SWAP2 MSTORE SWAP1 KECCAK256 SLOAD AND DUP1 ISZERO PUSH2 0x12E8 JUMPI PUSH1 0x40 MLOAD DUP1 PUSH1 0x80 ADD PUSH1 0x40 MSTORE DUP1 DUP5 PUSH1 0xFF AND DUP2 MSTORE PUSH1 0x20 ADD DUP4 PUSH1 0xFF AND DUP2 MSTORE PUSH1 0x20 ADD DUP3 PUSH1 0xFF AND DUP2 MSTORE PUSH1 0x20 ADD PUSH1 0x22 PUSH1 0x0 DUP5 PUSH1 0xFF AND PUSH1 0xFF AND DUP2 MSTORE PUSH1 0x20 ADD SWAP1 DUP2 MSTORE PUSH1 0x20 ADD PUSH1 0x0 KECCAK256 SLOAD DUP2 MSTORE POP DUP6 DUP6 DUP2 MLOAD DUP2 LT PUSH2 0x12CE JUMPI PUSH2 0x12CE PUSH2 0x41CE JUMP JUMPDEST PUSH1 0x20 MUL PUSH1 0x20 ADD ADD DUP2 SWAP1 MSTORE POP DUP4 DUP1 PUSH2 0x12E4 SWAP1 PUSH2 0x420D JUMP JUMPDEST SWAP5 POP POP JUMPDEST POP DUP1 PUSH2 0x12F3 DUP2 PUSH2 0x4226 JUMP JUMPDEST SWAP2 POP POP PUSH2 0x1247 JUMP JUMPDEST POP DUP1 PUSH2 0x1306 DUP2 PUSH2 0x4226 JUMP JUMPDEST SWAP2 POP POP PUSH2 0x1238 JUMP JUMPDEST POP SWAP1 SWAP4 SWAP3 POP POP POP JUMP JUMPDEST CALLER PUSH1 0x0 SWAP1 DUP2 MSTORE PUSH1 0x1F PUSH1 0x20 MSTORE PUSH1 0x40 SWAP1 KECCAK256 PUSH2 0x1331 DUP3 DUP5 DUP4 PUSH2 0x404B JUMP JUMPDEST POP POP POP JUMP JUMPDEST PUSH1 0x40 DUP1 MLOAD PUSH1 0xA0 DUP2 ADD DUP3 MSTORE PUSH1 0x60 DUP1 DUP3 MSTORE PUSH1 0x0 PUSH1 0x20 DUP4 ADD DUP2 SWAP1 MSTORE SWAP3 DUP3 ADD DUP4 SWAP1 MSTORE DUP2 ADD DUP3 SWAP1 MSTORE PUSH1 0x80 DUP2 ADD SWAP2 SWAP1 SWAP2 MSTORE PUSH1 0xFF DUP3 AND PUSH1 0x0 SWAP1 DUP2 MSTORE PUSH1 0x1A PUSH1 0x20 MSTORE PUSH1 0x40 SWAP1 DUP2 SWAP1 KECCAK256 DUP2 MLOAD PUSH1 0xA0 DUP2 ADD SWAP1 SWAP3 MSTORE DUP1 SLOAD DUP3 SWAP1 DUP3 SWAP1 PUSH2 0x138D SWAP1 PUSH2 0x3FC3 JUMP JUMPDEST DUP1 PUSH1 0x1F ADD PUSH1 0x20 DUP1 SWAP2 DIV MUL PUSH1 0x20 ADD PUSH1 0x40 MLOAD SWAP1 DUP2 ADD PUSH1 0x40 MSTORE DUP1 SWAP3 SWAP2 SWAP1 DUP2 DUP2 MSTORE PUSH1 0x20 ADD DUP3 DUP1 SLOAD PUSH2 0x13B9 SWAP1 PUSH2 0x3FC3 JUMP JUMPDEST DUP1 ISZERO PUSH2 0x1406 JUMPI DUP1 PUSH1 0x1F LT PUSH2 0x13DB JUMPI PUSH2 0x100 DUP1 DUP4 SLOAD DIV MUL DUP4 MSTORE SWAP2 PUSH1 0x20 ADD SWAP2 PUSH2 0x1406 JUMP JUMPDEST DUP3 ADD SWAP2 SWAP1 PUSH1 0x0 MSTORE PUSH1 0x20 PUSH1 0x0 KECCAK256 SWAP1 JUMPDEST DUP2 SLOAD DUP2 MSTORE SWAP1 PUSH1 0x1 ADD SWAP1 PUSH1 0x20 ADD DUP1 DUP4 GT PUSH2 0x13E9 JUMPI DUP3 SWAP1 SUB PUSH1 0x1F AND DUP3 ADD SWAP2 JUMPDEST POP POP POP SWAP2 DUP4 MSTORE POP POP PUSH1 0x1 SWAP2 SWAP1 SWAP2 ADD SLOAD PUSH1 0xFF DUP1 DUP3 AND PUSH1 0x20 DUP5 ADD MSTORE PUSH2 0x100 DUP3 DIV DUP2 AND PUSH1 0x40 DUP5 ADD MSTORE PUSH3 0x10000 DUP3 DIV DUP2 AND PUSH1 0x60 DUP5 ADD MSTORE PUSH4 0x1000000 SWAP1 SWAP2 DIV AND ISZERO ISZERO PUSH1 0x80 SWAP1 SWAP2 ADD MSTORE SWAP3 SWAP2 POP POP JUMP JUMPDEST PUSH1 0x0 DUP1 PUSH2 0x1491 DUP5 DUP5 DUP1 DUP1 PUSH1 0x1F ADD PUSH1 0x20 DUP1 SWAP2 DIV MUL PUSH1 0x20 ADD PUSH1 0x40 MLOAD SWAP1 DUP2 ADD PUSH1 0x40 MSTORE DUP1 SWAP4 SWAP3 SWAP2 SWAP1 DUP2 DUP2 MSTORE PUSH1 0x20 ADD DUP4 DUP4 DUP1 DUP3 DUP5 CALLDATACOPY PUSH1 0x0 SWAP3 ADD SWAP2 SWAP1 SWAP2 MSTORE POP PUSH2 0x3762 SWAP3 POP POP POP JUMP JUMPDEST PUSH1 0x0 SWAP1 DUP2 MSTORE PUSH1 0x17 PUSH1 0x20 MSTORE PUSH1 0x40 SWAP1 KECCAK256 SLOAD PUSH1 0xFF AND ISZERO SWAP5 SWAP4 POP POP POP POP JUMP JUMPDEST PUSH1 0x14 SLOAD PUSH1 0x40 MLOAD PUSH4 0x8A888953 PUSH1 0xE0 SHL DUP2 MSTORE PUSH1 0xFF DUP1 DUP6 AND PUSH1 0x4 DUP4 ADD MSTORE DUP4 AND PUSH1 0x24 DUP3 ADD MSTORE DUP4 SWAP2 DUP4 SWAP2 CALLER SWAP2 PUSH1 0x1 PUSH1 0x1 PUSH1 0xA0 SHL SUB AND SWAP1 PUSH4 0x8A888953 SWAP1 PUSH1 0x44 ADD PUSH1 0x20 PUSH1 0x40 MLOAD DUP1 DUP4 SUB DUP2 DUP7 GAS STATICCALL ISZERO DUP1 ISZERO PUSH2 0x1503 JUMPI RETURNDATASIZE PUSH1 0x0 DUP1 RETURNDATACOPY RETURNDATASIZE PUSH1 0x0 REVERT JUMPDEST POP POP POP POP PUSH1 0x40 MLOAD RETURNDATASIZE PUSH1 0x1F NOT PUSH1 0x1F DUP3 ADD AND DUP3 ADD DUP1 PUSH1 0x40 MSTORE POP DUP2 ADD SWAP1 PUSH2 0x1527 SWAP2 SWAP1 PUSH2 0x3F4A JUMP JUMPDEST PUSH1 0x1 PUSH1 0x1 PUSH1 0xA0 SHL SUB AND EQ PUSH2 0x154D JUMPI PUSH1 0x40 MLOAD PUSH3 0x461BCD PUSH1 0xE5 SHL DUP2 MSTORE PUSH1 0x4 ADD PUSH2 0x6E2 SWAP1 PUSH2 0x4137 JUMP JUMPDEST PUSH1 0xFF DUP4 DUP2 AND PUSH1 0x8 DUP7 SWAP1 SHL PUSH2 0xFF00 AND OR PUSH1 0x0 DUP2 DUP2 MSTORE PUSH1 0x1D PUSH1 0x20 MSTORE PUSH1 0x40 SWAP1 KECCAK256 SLOAD SWAP1 SWAP2 AND PUSH2 0x15BA JUMPI PUSH1 0x40 MLOAD PUSH3 0x461BCD PUSH1 0xE5 SHL DUP2 MSTORE PUSH1 0x20 PUSH1 0x4 DUP3 ADD MSTORE PUSH1 0x1F PUSH1 0x24 DUP3 ADD MSTORE PUSH32 0x4E6F2070656E64696E6720696E7669746520666F7220746869732074696C6500 PUSH1 0x44 DUP3 ADD MSTORE PUSH1 0x64 ADD PUSH2 0x6E2 JUMP JUMPDEST PUSH2 0xFFFF AND PUSH1 0x0 SWAP1 DUP2 MSTORE PUSH1 0x1D PUSH1 0x20 MSTORE PUSH1 0x40 SWAP1 KECCAK256 DUP1 SLOAD PUSH1 0xFF NOT AND SWAP1 SSTORE POP POP POP POP JUMP JUMPDEST PUSH1 0xFF DUP1 DUP6 AND PUSH1 0x0 SWAP1 DUP2 MSTORE PUSH1 0x1A PUSH1 0x20 MSTORE PUSH1 0x40 SWAP1 KECCAK256 PUSH1 0x1 ADD SLOAD DUP6 SWAP2 DUP6 SWAP2 DUP6 SWAP2 PUSH4 0x1000000 SWAP1 SWAP2 DIV AND PUSH2 0x161C JUMPI PUSH1 0x40 MLOAD PUSH3 0x461BCD PUSH1 0xE5 SHL DUP2 MSTORE PUSH1 0x4 ADD PUSH2 0x6E2 SWAP1 PUSH2 0x410A JUMP JUMPDEST PUSH1 0xFF DUP4 DUP2 AND PUSH1 0x0 SWAP1 DUP2 MSTORE PUSH1 0x1A PUSH1 0x20 MSTORE PUSH1 0x40 SWAP1 KECCAK256 PUSH1 0x1 ADD SLOAD DUP2 AND SWAP1 DUP4 AND EQ DUP1 ISZERO PUSH2 0x1663 JUMPI POP PUSH1 0xFF DUP4 DUP2 AND PUSH1 0x0 SWAP1 DUP2 MSTORE PUSH1 0x1A PUSH1 0x20 MSTORE PUSH1 0x40 SWAP1 KECCAK256 PUSH1 0x1 ADD SLOAD PUSH2 0x100 SWAP1 DIV DUP2 AND SWAP1 DUP3 AND EQ JUMPDEST PUSH2 0x167F JUMPI PUSH1 0x40 MLOAD PUSH3 0x461BCD PUSH1 0xE5 SHL DUP2 MSTORE PUSH1 0x4 ADD PUSH2 0x6E2 SWAP1 PUSH2 0x4245 JUMP JUMPDEST PUSH1 0x14 SLOAD PUSH1 0x40 MLOAD PUSH4 0x8A888953 PUSH1 0xE0 SHL DUP2 MSTORE PUSH1 0xFF DUP1 DUP6 AND PUSH1 0x4 DUP4 ADD MSTORE DUP4 AND PUSH1 0x24 DUP3 ADD MSTORE CALLER SWAP2 PUSH1 0x1 PUSH1 0x1 PUSH1 0xA0 SHL SUB AND SWAP1 PUSH4 0x8A888953 SWAP1 PUSH1 0x44 ADD PUSH1 0x20 PUSH1 0x40 MLOAD DUP1 DUP4 SUB DUP2 DUP7 GAS STATICCALL ISZERO DUP1 ISZERO PUSH2 0x16D2 JUMPI RETURNDATASIZE PUSH1 0x0 DUP1 RETURNDATACOPY RETURNDATASIZE PUSH1 0x0 REVERT JUMPDEST POP POP POP POP PUSH1 0x40 MLOAD RETURNDATASIZE PUSH1 0x1F NOT PUSH1 0x1F DUP3 ADD AND DUP3 ADD DUP1 PUSH1 0x40 MSTORE POP DUP2 ADD SWAP1 PUSH2 0x16F6 SWAP2 SWAP1 PUSH2 0x3F4A JUMP JUMPDEST PUSH1 0x1 PUSH1 0x1 PUSH1 0xA0 SHL SUB AND EQ PUSH2 0x171C JUMPI PUSH1 0x40 MLOAD PUSH3 0x461BCD PUSH1 0xE5 SHL DUP2 MSTORE PUSH1 0x4 ADD PUSH2 0x6E2 SWAP1 PUSH2 0x426E JUMP JUMPDEST PUSH1 0x21 SLOAD PUSH1 0x40 MLOAD PUSH4 0x31A9108F PUSH1 0xE1 SHL DUP2 MSTORE PUSH1 0x4 DUP2 ADD DUP7 SWAP1 MSTORE CALLER SWAP2 PUSH1 0x1 PUSH1 0x1 PUSH1 0xA0 SHL SUB AND SWAP1 PUSH4 0x6352211E SWAP1 PUSH1 0x24 ADD PUSH1 0x20 PUSH1 0x40 MLOAD DUP1 DUP4 SUB DUP2 DUP7 GAS STATICCALL ISZERO DUP1 ISZERO PUSH2 0x1765 JUMPI RETURNDATASIZE PUSH1 0x0 DUP1 RETURNDATACOPY RETURNDATASIZE PUSH1 0x0 REVERT JUMPDEST POP POP POP POP PUSH1 0x40 MLOAD RETURNDATASIZE PUSH1 0x1F NOT PUSH1 0x1F DUP3 ADD AND DUP3 ADD DUP1 PUSH1 0x40 MSTORE POP DUP2 ADD SWAP1 PUSH2 0x1789 SWAP2 SWAP1 PUSH2 0x3F4A JUMP JUMPDEST PUSH1 0x1 PUSH1 0x1 PUSH1 0xA0 SHL SUB AND EQ PUSH2 0x17D8 JUMPI PUSH1 0x40 MLOAD PUSH3 0x461BCD PUSH1 0xE5 SHL DUP2 MSTORE PUSH1 0x20 PUSH1 0x4 DUP3 ADD MSTORE PUSH1 0x16 PUSH1 0x24 DUP3 ADD MSTORE PUSH22 0x165BDD48191BDB89DD081BDDDB881D1A1A5CC8139195 PUSH1 0x52 SHL PUSH1 0x44 DUP3 ADD MSTORE PUSH1 0x64 ADD PUSH2 0x6E2 JUMP JUMPDEST PUSH1 0x21 SLOAD PUSH1 0x40 MLOAD PUSH4 0x2B5313D PUSH1 0xE2 SHL DUP2 MSTORE PUSH1 0x4 DUP2 ADD DUP7 SWAP1 MSTORE PUSH1 0x0 SWAP2 PUSH1 0x1 PUSH1 0x1 PUSH1 0xA0 SHL SUB AND SWAP1 PUSH4 0xAD4C4F4 SWAP1 PUSH1 0x24 ADD PUSH1 0x0 PUSH1 0x40 MLOAD DUP1 DUP4 SUB DUP2 DUP7 GAS STATICCALL ISZERO DUP1 ISZERO PUSH2 0x1822 JUMPI RETURNDATASIZE PUSH1 0x0 DUP1 RETURNDATACOPY RETURNDATASIZE PUSH1 0x0 REVERT JUMPDEST POP POP POP POP PUSH1 0x40 MLOAD RETURNDATASIZE PUSH1 0x0 DUP3 RETURNDATACOPY PUSH1 0x1F RETURNDATASIZE SWAP1 DUP2 ADD PUSH1 0x1F NOT AND DUP3 ADD PUSH1 0x40 MSTORE PUSH2 0x184A SWAP2 SWAP1 DUP2 ADD SWAP1 PUSH2 0x432C JUMP JUMPDEST POP SWAP10 POP POP POP POP POP POP POP POP POP POP DUP1 PUSH1 0x1 EQ PUSH2 0x18C2 JUMPI PUSH1 0x40 MLOAD PUSH3 0x461BCD PUSH1 0xE5 SHL DUP2 MSTORE PUSH1 0x20 PUSH1 0x4 DUP3 ADD MSTORE PUSH1 0x33 PUSH1 0x24 DUP3 ADD MSTORE PUSH32 0x4F6E6C79204E4654732066726F6D20636F6C6C656374696F6E20494420312063 PUSH1 0x44 DUP3 ADD MSTORE PUSH19 0x616E206265207573656420617320666C616773 PUSH1 0x68 SHL PUSH1 0x64 DUP3 ADD MSTORE PUSH1 0x84 ADD PUSH2 0x6E2 JUMP JUMPDEST PUSH1 0x16 SLOAD PUSH1 0x40 MLOAD PUSH4 0xD662AF5 PUSH1 0xE1 SHL DUP2 MSTORE PUSH1 0xFF DUP1 DUP11 AND PUSH1 0x4 DUP4 ADD MSTORE DUP9 AND PUSH1 0x24 DUP3 ADD MSTORE PUSH1 0x1 PUSH1 0x1 PUSH1 0xA0 SHL SUB SWAP1 SWAP2 AND SWAP1 PUSH4 0x1ACC55EA SWAP1 PUSH1 0x44 ADD PUSH1 0x20 PUSH1 0x40 MLOAD DUP1 DUP4 SUB DUP2 DUP7 GAS STATICCALL ISZERO DUP1 ISZERO PUSH2 0x1915 JUMPI RETURNDATASIZE PUSH1 0x0 DUP1 RETURNDATACOPY RETURNDATASIZE PUSH1 0x0 REVERT JUMPDEST POP POP POP POP PUSH1 0x40 MLOAD RETURNDATASIZE PUSH1 0x1F NOT PUSH1 0x1F DUP3 ADD AND DUP3 ADD DUP1 PUSH1 0x40 MSTORE POP DUP2 ADD SWAP1 PUSH2 0x1939 SWAP2 SWAP1 PUSH2 0x3F8B JUMP JUMPDEST PUSH2 0x1955 JUMPI PUSH1 0x40 MLOAD PUSH3 0x461BCD PUSH1 0xE5 SHL DUP2 MSTORE PUSH1 0x4 ADD PUSH2 0x6E2 SWAP1 PUSH2 0x4478 JUMP JUMPDEST PUSH1 0x15 SLOAD PUSH1 0x40 MLOAD PUSH4 0x23B872DD PUSH1 0xE0 SHL DUP2 MSTORE PUSH1 0x1 PUSH1 0x1 PUSH1 0xA0 SHL SUB SWAP1 SWAP2 AND SWAP1 PUSH4 0x23B872DD SWAP1 PUSH2 0x198E SWAP1 CALLER SWAP1 ADDRESS SWAP1 PUSH5 0x2540BE400 SWAP1 PUSH1 0x4 ADD PUSH2 0x3F67 JUMP JUMPDEST PUSH1 0x20 PUSH1 0x40 MLOAD DUP1 DUP4 SUB DUP2 PUSH1 0x0 DUP8 GAS CALL ISZERO DUP1 ISZERO PUSH2 0x19AD JUMPI RETURNDATASIZE PUSH1 0x0 DUP1 RETURNDATACOPY RETURNDATASIZE PUSH1 0x0 REVERT JUMPDEST POP POP POP POP PUSH1 0x40 MLOAD RETURNDATASIZE PUSH1 0x1F NOT PUSH1 0x1F DUP3 ADD AND DUP3 ADD DUP1 PUSH1 0x40 MSTORE POP DUP2 ADD SWAP1 PUSH2 0x19D1 SWAP2 SWAP1 PUSH2 0x3F8B JUMP JUMPDEST PUSH2 0x19ED JUMPI PUSH1 0x40 MLOAD PUSH3 0x461BCD PUSH1 0xE5 SHL DUP2 MSTORE PUSH1 0x4 ADD PUSH2 0x6E2 SWAP1 PUSH2 0x416E JUMP JUMPDEST POP POP POP PUSH1 0xFF SWAP1 SWAP5 AND PUSH1 0x0 SWAP1 DUP2 MSTORE PUSH1 0x22 PUSH1 0x20 MSTORE PUSH1 0x40 SWAP1 KECCAK256 SSTORE POP POP POP JUMP JUMPDEST PUSH1 0xFF DUP1 DUP5 AND PUSH1 0x0 SWAP1 DUP2 MSTORE PUSH1 0x1A PUSH1 0x20 MSTORE PUSH1 0x40 SWAP1 KECCAK256 PUSH1 0x1 ADD SLOAD DUP5 SWAP2 DUP5 SWAP2 DUP5 SWAP2 PUSH4 0x1000000 SWAP1 SWAP2 DIV AND PUSH2 0x1A4B JUMPI PUSH1 0x40 MLOAD PUSH3 0x461BCD PUSH1 0xE5 SHL DUP2 MSTORE PUSH1 0x4 ADD PUSH2 0x6E2 SWAP1 PUSH2 0x410A JUMP JUMPDEST PUSH1 0xFF DUP4 DUP2 AND PUSH1 0x0 SWAP1 DUP2 MSTORE PUSH1 0x1A PUSH1 0x20 MSTORE PUSH1 0x40 SWAP1 KECCAK256 PUSH1 0x1 ADD SLOAD DUP2 AND SWAP1 DUP4 AND EQ DUP1 ISZERO PUSH2 0x1A92 JUMPI POP PUSH1 0xFF DUP4 DUP2 AND PUSH1 0x0 SWAP1 DUP2 MSTORE PUSH1 0x1A PUSH1 0x20 MSTORE PUSH1 0x40 SWAP1 KECCAK256 PUSH1 0x1 ADD SLOAD PUSH2 0x100 SWAP1 DIV DUP2 AND SWAP1 DUP3 AND EQ JUMPDEST PUSH2 0x1AAE JUMPI PUSH1 0x40 MLOAD PUSH3 0x461BCD PUSH1 0xE5 SHL DUP2 MSTORE PUSH1 0x4 ADD PUSH2 0x6E2 SWAP1 PUSH2 0x4245 JUMP JUMPDEST PUSH1 0x14 SLOAD PUSH1 0x40 MLOAD PUSH4 0x8A888953 PUSH1 0xE0 SHL DUP2 MSTORE PUSH1 0xFF DUP1 DUP6 AND PUSH1 0x4 DUP4 ADD MSTORE DUP4 AND PUSH1 0x24 DUP3 ADD MSTORE CALLER SWAP2 PUSH1 0x1 PUSH1 0x1 PUSH1 0xA0 SHL SUB AND SWAP1 PUSH4 0x8A888953 SWAP1 PUSH1 0x44 ADD PUSH1 0x20 PUSH1 0x40 MLOAD DUP1 DUP4 SUB DUP2 DUP7 GAS STATICCALL ISZERO DUP1 ISZERO PUSH2 0x1B01 JUMPI RETURNDATASIZE PUSH1 0x0 DUP1 RETURNDATACOPY RETURNDATASIZE PUSH1 0x0 REVERT JUMPDEST POP POP POP POP PUSH1 0x40 MLOAD RETURNDATASIZE PUSH1 0x1F NOT PUSH1 0x1F DUP3 ADD AND DUP3 ADD DUP1 PUSH1 0x40 MSTORE POP DUP2 ADD SWAP1 PUSH2 0x1B25 SWAP2 SWAP1 PUSH2 0x3F4A JUMP JUMPDEST PUSH1 0x1 PUSH1 0x1 PUSH1 0xA0 SHL SUB AND EQ PUSH2 0x1B4B JUMPI PUSH1 0x40 MLOAD PUSH3 0x461BCD PUSH1 0xE5 SHL DUP2 MSTORE PUSH1 0x4 ADD PUSH2 0x6E2 SWAP1 PUSH2 0x426E JUMP JUMPDEST PUSH1 0x16 SLOAD PUSH1 0x40 MLOAD PUSH4 0xD662AF5 PUSH1 0xE1 SHL DUP2 MSTORE PUSH1 0xFF DUP1 DUP9 AND PUSH1 0x4 DUP4 ADD MSTORE DUP7 AND PUSH1 0x24 DUP3 ADD MSTORE PUSH1 0x1 PUSH1 0x1 PUSH1 0xA0 SHL SUB SWAP1 SWAP2 AND SWAP1 PUSH4 0x1ACC55EA SWAP1 PUSH1 0x44 ADD PUSH1 0x20 PUSH1 0x40 MLOAD DUP1 DUP4 SUB DUP2 DUP7 GAS STATICCALL ISZERO DUP1 ISZERO PUSH2 0x1B9E JUMPI RETURNDATASIZE PUSH1 0x0 DUP1 RETURNDATACOPY RETURNDATASIZE PUSH1 0x0 REVERT JUMPDEST POP POP POP POP PUSH1 0x40 MLOAD RETURNDATASIZE PUSH1 0x1F NOT PUSH1 0x1F DUP3 ADD AND DUP3 ADD DUP1 PUSH1 0x40 MSTORE POP DUP2 ADD SWAP1 PUSH2 0x1BC2 SWAP2 SWAP1 PUSH2 0x3F8B JUMP JUMPDEST PUSH2 0x1BDE JUMPI PUSH1 0x40 MLOAD PUSH3 0x461BCD PUSH1 0xE5 SHL DUP2 MSTORE PUSH1 0x4 ADD PUSH2 0x6E2 SWAP1 PUSH2 0x4478 JUMP JUMPDEST PUSH1 0xFF DUP7 AND PUSH1 0x0 SWAP1 DUP2 MSTORE PUSH1 0x1C PUSH1 0x20 MSTORE PUSH1 0x40 DUP2 KECCAK256 SWAP1 JUMPDEST DUP2 SLOAD DUP2 LT ISZERO PUSH2 0x1CDD JUMPI PUSH1 0x0 DUP1 PUSH2 0x1C46 DUP5 DUP5 DUP2 SLOAD DUP2 LT PUSH2 0x1C13 JUMPI PUSH2 0x1C13 PUSH2 0x41CE JUMP JUMPDEST SWAP1 PUSH1 0x0 MSTORE PUSH1 0x20 PUSH1 0x0 KECCAK256 SWAP1 PUSH1 0x10 SWAP2 DUP3 DUP3 DIV ADD SWAP2 SWAP1 MOD PUSH1 0x2 MUL SWAP1 SLOAD SWAP1 PUSH2 0x100 EXP SWAP1 DIV PUSH2 0xFFFF AND PUSH1 0xFF PUSH1 0x8 DUP3 SWAP1 SHR DUP2 AND SWAP3 SWAP2 AND SWAP1 JUMP JUMPDEST SWAP2 POP SWAP2 POP PUSH1 0x0 PUSH1 0x1B PUSH1 0x0 DUP7 DUP7 DUP2 SLOAD DUP2 LT PUSH2 0x1C62 JUMPI PUSH2 0x1C62 PUSH2 0x41CE JUMP JUMPDEST PUSH1 0x0 SWAP2 DUP3 MSTORE PUSH1 0x20 DUP1 DUP4 KECCAK256 PUSH1 0x10 DUP4 DIV ADD SLOAD PUSH1 0xF SWAP1 SWAP3 AND PUSH1 0x2 MUL PUSH2 0x100 SWAP1 DUP2 EXP SWAP1 SWAP3 DIV PUSH2 0xFFFF AND DUP5 MSTORE DUP4 DUP2 ADD SWAP5 SWAP1 SWAP5 MSTORE PUSH1 0x40 SWAP3 DUP4 ADD DUP3 KECCAK256 DUP1 SLOAD PUSH2 0xFF00 NOT AND SWAP6 ISZERO ISZERO SWAP1 SWAP2 MUL SWAP5 SWAP1 SWAP5 OR SWAP1 SWAP4 SSTORE PUSH1 0xFF SWAP5 DUP6 AND DUP4 MSTORE DUP2 DUP1 MSTORE DUP1 DUP4 KECCAK256 SWAP4 SWAP1 SWAP5 AND DUP3 MSTORE SWAP2 SWAP1 SWAP2 MSTORE KECCAK256 DUP1 SLOAD PUSH1 0xFF NOT AND SWAP1 SSTORE DUP1 PUSH2 0x1CD5 DUP2 PUSH2 0x420D JUMP JUMPDEST SWAP2 POP POP PUSH2 0x1BF2 JUMP JUMPDEST POP PUSH1 0xFF DUP8 AND PUSH1 0x0 SWAP1 DUP2 MSTORE PUSH1 0x1C PUSH1 0x20 MSTORE PUSH1 0x40 DUP2 KECCAK256 PUSH2 0x1CF9 SWAP2 PUSH2 0x39EC JUMP JUMPDEST PUSH1 0xFF DUP8 AND PUSH1 0x0 SWAP1 DUP2 MSTORE PUSH1 0x18 PUSH1 0x20 MSTORE PUSH1 0x40 SWAP1 KECCAK256 SLOAD DUP1 ISZERO PUSH2 0x1D3A JUMPI PUSH1 0x0 DUP2 DUP2 MSTORE PUSH1 0x17 PUSH1 0x20 SWAP1 DUP2 MSTORE PUSH1 0x40 DUP1 DUP4 KECCAK256 DUP1 SLOAD PUSH1 0xFF NOT AND SWAP1 SSTORE PUSH1 0xFF DUP12 AND DUP4 MSTORE PUSH1 0x18 SWAP1 SWAP2 MSTORE DUP2 KECCAK256 SSTORE JUMPDEST PUSH1 0xFF DUP9 AND PUSH1 0x0 SWAP1 DUP2 MSTORE PUSH1 0x1A PUSH1 0x20 MSTORE PUSH1 0x40 DUP2 KECCAK256 SWAP1 PUSH2 0x1D57 DUP3 DUP3 PUSH2 0x3A14 JUMP JUMPDEST POP PUSH1 0x1 ADD DUP1 SLOAD PUSH4 0xFFFFFFFF NOT AND SWAP1 SSTORE POP POP POP POP POP POP POP POP JUMP JUMPDEST PUSH1 0x1E PUSH1 0x20 SWAP1 DUP2 MSTORE PUSH1 0x0 SWAP3 DUP4 MSTORE PUSH1 0x40 DUP1 DUP5 KECCAK256 SWAP1 SWAP2 MSTORE SWAP1 DUP3 MSTORE SWAP1 KECCAK256 DUP1 SLOAD PUSH2 0x981 SWAP1 PUSH2 0x3FC3 JUMP JUMPDEST PUSH1 0x14 SLOAD PUSH1 0x40 MLOAD PUSH4 0x8A888953 PUSH1 0xE0 SHL DUP2 MSTORE PUSH1 0xFF DUP1 DUP8 AND PUSH1 0x4 DUP4 ADD MSTORE DUP6 AND PUSH1 0x24 DUP3 ADD MSTORE DUP6 SWAP2 DUP6 SWAP2 CALLER SWAP2 PUSH1 0x1 PUSH1 0x1 PUSH1 0xA0 SHL SUB AND SWAP1 PUSH4 0x8A888953 SWAP1 PUSH1 0x44 ADD PUSH1 0x20 PUSH1 0x40 MLOAD DUP1 DUP4 SUB DUP2 DUP7 GAS STATICCALL ISZERO DUP1 ISZERO PUSH2 0x1DEB JUMPI RETURNDATASIZE PUSH1 0x0 DUP1 RETURNDATACOPY RETURNDATASIZE PUSH1 0x0 REVERT JUMPDEST POP POP POP POP PUSH1 0x40 MLOAD RETURNDATASIZE PUSH1 0x1F NOT PUSH1 0x1F DUP3 ADD AND DUP3 ADD DUP1 PUSH1 0x40 MSTORE POP DUP2 ADD SWAP1 PUSH2 0x1E0F SWAP2 SWAP1 PUSH2 0x3F4A JUMP JUMPDEST PUSH1 0x1 PUSH1 0x1 PUSH1 0xA0 SHL SUB AND EQ PUSH2 0x1E35 JUMPI PUSH1 0x40 MLOAD PUSH3 0x461BCD PUSH1 0xE5 SHL DUP2 MSTORE PUSH1 0x4 ADD PUSH2 0x6E2 SWAP1 PUSH2 0x4137 JUMP JUMPDEST DUP3 PUSH2 0x1E82 JUMPI PUSH1 0x40 MLOAD PUSH3 0x461BCD PUSH1 0xE5 SHL DUP2 MSTORE PUSH1 0x20 PUSH1 0x4 DUP3 ADD MSTORE PUSH1 0x19 PUSH1 0x24 DUP3 ADD MSTORE PUSH32 0x436C616E206E616D652063616E6E6F7420626520656D70747900000000000000 PUSH1 0x44 DUP3 ADD MSTORE PUSH1 0x64 ADD PUSH2 0x6E2 JUMP JUMPDEST PUSH1 0xFF DUP1 DUP8 AND PUSH1 0x0 SWAP1 DUP2 MSTORE PUSH1 0x20 DUP1 DUP1 MSTORE PUSH1 0x40 DUP1 DUP4 KECCAK256 DUP10 DUP6 AND DUP5 MSTORE SWAP1 SWAP2 MSTORE SWAP1 KECCAK256 SLOAD AND ISZERO PUSH2 0x1EE8 JUMPI PUSH1 0x40 MLOAD PUSH3 0x461BCD PUSH1 0xE5 SHL DUP2 MSTORE PUSH1 0x20 PUSH1 0x4 DUP3 ADD MSTORE PUSH1 0x16 PUSH1 0x24 DUP3 ADD MSTORE PUSH22 0x2A34B6329030B63932B0B23C9034B710309031B630B7 PUSH1 0x51 SHL PUSH1 0x44 DUP3 ADD MSTORE PUSH1 0x64 ADD PUSH2 0x6E2 JUMP JUMPDEST PUSH1 0x0 PUSH2 0x1F29 DUP6 DUP6 DUP1 DUP1 PUSH1 0x1F ADD PUSH1 0x20 DUP1 SWAP2 DIV MUL PUSH1 0x20 ADD PUSH1 0x40 MLOAD SWAP1 DUP2 ADD PUSH1 0x40 MSTORE DUP1 SWAP4 SWAP3 SWAP2 SWAP1 DUP2 DUP2 MSTORE PUSH1 0x20 ADD DUP4 DUP4 DUP1 DUP3 DUP5 CALLDATACOPY PUSH1 0x0 SWAP3 ADD SWAP2 SWAP1 SWAP2 MSTORE POP PUSH2 0x3762 SWAP3 POP POP POP JUMP JUMPDEST PUSH1 0x0 DUP2 DUP2 MSTORE PUSH1 0x17 PUSH1 0x20 MSTORE PUSH1 0x40 SWAP1 KECCAK256 SLOAD SWAP1 SWAP2 POP PUSH1 0xFF AND ISZERO PUSH2 0x1F8B JUMPI PUSH1 0x40 MLOAD PUSH3 0x461BCD PUSH1 0xE5 SHL DUP2 MSTORE PUSH1 0x20 PUSH1 0x4 DUP3 ADD MSTORE PUSH1 0x17 PUSH1 0x24 DUP3 ADD MSTORE PUSH32 0x436C616E206E616D6520616C72656164792074616B656E000000000000000000 PUSH1 0x44 DUP3 ADD MSTORE PUSH1 0x64 ADD PUSH2 0x6E2 JUMP JUMPDEST PUSH1 0x16 SLOAD PUSH1 0x40 MLOAD PUSH4 0xD662AF5 PUSH1 0xE1 SHL DUP2 MSTORE PUSH1 0xFF DUP1 DUP11 AND PUSH1 0x4 DUP4 ADD MSTORE DUP9 AND PUSH1 0x24 DUP3 ADD MSTORE PUSH1 0x1 PUSH1 0x1 PUSH1 0xA0 SHL SUB SWAP1 SWAP2 AND SWAP1 PUSH4 0x1ACC55EA SWAP1 PUSH1 0x44 ADD PUSH1 0x20 PUSH1 0x40 MLOAD DUP1 DUP4 SUB DUP2 DUP7 GAS STATICCALL ISZERO DUP1 ISZERO PUSH2 0x1FDE JUMPI RETURNDATASIZE PUSH1 0x0 DUP1 RETURNDATACOPY RETURNDATASIZE PUSH1 0x0 REVERT JUMPDEST POP POP POP POP PUSH1 0x40 MLOAD RETURNDATASIZE PUSH1 0x1F NOT PUSH1 0x1F DUP3 ADD AND DUP3 ADD DUP1 PUSH1 0x40 MSTORE POP DUP2 ADD SWAP1 PUSH2 0x2002 SWAP2 SWAP1 PUSH2 0x3F8B JUMP JUMPDEST PUSH2 0x201E JUMPI PUSH1 0x40 MLOAD PUSH3 0x461BCD PUSH1 0xE5 SHL DUP2 MSTORE PUSH1 0x4 ADD PUSH2 0x6E2 SWAP1 PUSH2 0x4478 JUMP JUMPDEST PUSH1 0x15 SLOAD PUSH1 0x40 MLOAD PUSH4 0x23B872DD PUSH1 0xE0 SHL DUP2 MSTORE PUSH1 0x1 PUSH1 0x1 PUSH1 0xA0 SHL SUB SWAP1 SWAP2 AND SWAP1 PUSH4 0x23B872DD SWAP1 PUSH2 0x2057 SWAP1 CALLER SWAP1 ADDRESS SWAP1 PUSH5 0x174876E800 SWAP1 PUSH1 0x4 ADD PUSH2 0x3F67 JUMP JUMPDEST PUSH1 0x20 PUSH1 0x40 MLOAD DUP1 DUP4 SUB DUP2 PUSH1 0x0 DUP8 GAS CALL ISZERO DUP1 ISZERO PUSH2 0x2076 JUMPI RETURNDATASIZE PUSH1 0x0 DUP1 RETURNDATACOPY RETURNDATASIZE PUSH1 0x0 REVERT JUMPDEST POP POP POP POP PUSH1 0x40 MLOAD RETURNDATASIZE PUSH1 0x1F NOT PUSH1 0x1F DUP3 ADD AND DUP3 ADD DUP1 PUSH1 0x40 MSTORE POP DUP2 ADD SWAP1 PUSH2 0x209A SWAP2 SWAP1 PUSH2 0x3F8B JUMP JUMPDEST PUSH2 0x20B6 JUMPI PUSH1 0x40 MLOAD PUSH3 0x461BCD PUSH1 0xE5 SHL DUP2 MSTORE PUSH1 0x4 ADD PUSH2 0x6E2 SWAP1 PUSH2 0x416E JUMP JUMPDEST PUSH1 0x19 DUP1 SLOAD PUSH1 0xFF AND SWAP1 PUSH1 0x0 PUSH2 0x20C9 DUP4 PUSH2 0x4226 JUMP JUMPDEST SWAP2 SWAP1 PUSH2 0x100 EXP DUP2 SLOAD DUP2 PUSH1 0xFF MUL NOT AND SWAP1 DUP4 PUSH1 0xFF AND MUL OR SWAP1 SSTORE POP POP PUSH1 0x40 MLOAD DUP1 PUSH1 0xA0 ADD PUSH1 0x40 MSTORE DUP1 DUP7 DUP7 DUP1 DUP1 PUSH1 0x1F ADD PUSH1 0x20 DUP1 SWAP2 DIV MUL PUSH1 0x20 ADD PUSH1 0x40 MLOAD SWAP1 DUP2 ADD PUSH1 0x40 MSTORE DUP1 SWAP4 SWAP3 SWAP2 SWAP1 DUP2 DUP2 MSTORE PUSH1 0x20 ADD DUP4 DUP4 DUP1 DUP3 DUP5 CALLDATACOPY PUSH1 0x0 SWAP3 ADD DUP3 SWAP1 MSTORE POP SWAP4 DUP6 MSTORE POP POP POP PUSH1 0xFF DUP1 DUP12 AND PUSH1 0x20 DUP1 DUP6 ADD SWAP2 SWAP1 SWAP2 MSTORE DUP11 DUP3 AND PUSH1 0x40 DUP1 DUP7 ADD SWAP2 SWAP1 SWAP2 MSTORE PUSH1 0x1 PUSH1 0x60 DUP7 ADD DUP2 SWAP1 MSTORE PUSH1 0x80 SWAP1 SWAP6 ADD SWAP5 SWAP1 SWAP5 MSTORE PUSH1 0x19 SLOAD SWAP1 SWAP2 AND DUP3 MSTORE PUSH1 0x1A SWAP1 MSTORE KECCAK256 DUP2 MLOAD DUP2 SWAP1 PUSH2 0x216C SWAP1 DUP3 PUSH2 0x44AF JUMP JUMPDEST POP PUSH1 0x20 DUP3 ADD MLOAD PUSH1 0x1 SWAP1 SWAP2 ADD DUP1 SLOAD PUSH1 0x40 DUP5 ADD MLOAD PUSH1 0x60 DUP6 ADD MLOAD PUSH1 0x80 SWAP1 SWAP6 ADD MLOAD ISZERO ISZERO PUSH4 0x1000000 MUL PUSH4 0xFF000000 NOT PUSH1 0xFF SWAP7 DUP8 AND PUSH3 0x10000 MUL AND PUSH4 0xFFFF0000 NOT SWAP3 DUP8 AND PUSH2 0x100 MUL PUSH2 0xFFFF NOT SWAP1 SWAP5 AND SWAP7 SWAP1 SWAP6 AND SWAP6 SWAP1 SWAP6 OR SWAP2 SWAP1 SWAP2 OR AND SWAP2 SWAP1 SWAP2 OR SWAP2 SWAP1 SWAP2 OR SWAP1 SSTORE PUSH1 0x0 PUSH2 0x21E5 DUP9 DUP9 PUSH1 0xFF AND PUSH1 0x8 SWAP2 SWAP1 SWAP2 SHL PUSH2 0xFF00 AND OR SWAP1 JUMP JUMPDEST SWAP1 POP PUSH1 0x19 PUSH1 0x0 SWAP1 SLOAD SWAP1 PUSH2 0x100 EXP SWAP1 DIV PUSH1 0xFF AND PUSH1 0x20 PUSH1 0x0 DUP11 PUSH1 0xFF AND PUSH1 0xFF AND DUP2 MSTORE PUSH1 0x20 ADD SWAP1 DUP2 MSTORE PUSH1 0x20 ADD PUSH1 0x0 KECCAK256 PUSH1 0x0 DUP10 PUSH1 0xFF AND PUSH1 0xFF AND DUP2 MSTORE PUSH1 0x20 ADD SWAP1 DUP2 MSTORE PUSH1 0x20 ADD PUSH1 0x0 KECCAK256 PUSH1 0x0 PUSH2 0x100 EXP DUP2 SLOAD DUP2 PUSH1 0xFF MUL NOT AND SWAP1 DUP4 PUSH1 0xFF AND MUL OR SWAP1 SSTORE POP PUSH1 0x40 MLOAD DUP1 PUSH1 0x40 ADD PUSH1 0x40 MSTORE DUP1 PUSH1 0x19 PUSH1 0x0 SWAP1 SLOAD SWAP1 PUSH2 0x100 EXP SWAP1 DIV PUSH1 0xFF AND PUSH1 0xFF AND DUP2 MSTORE PUSH1 0x20 ADD PUSH1 0x1 ISZERO ISZERO DUP2 MSTORE POP PUSH1 0x1B PUSH1 0x0 DUP4 PUSH2 0xFFFF AND PUSH2 0xFFFF AND DUP2 MSTORE PUSH1 0x20 ADD SWAP1 DUP2 MSTORE PUSH1 0x20 ADD PUSH1 0x0 KECCAK256 PUSH1 0x0 DUP3 ADD MLOAD DUP2 PUSH1 0x0 ADD PUSH1 0x0 PUSH2 0x100 EXP DUP2 SLOAD DUP2 PUSH1 0xFF MUL NOT AND SWAP1 DUP4 PUSH1 0xFF AND MUL OR SWAP1 SSTORE POP PUSH1 0x20 DUP3 ADD MLOAD DUP2 PUSH1 0x0 ADD PUSH1 0x1 PUSH2 0x100 EXP DUP2 SLOAD DUP2 PUSH1 0xFF MUL NOT AND SWAP1 DUP4 ISZERO ISZERO MUL OR SWAP1 SSTORE POP SWAP1 POP POP PUSH1 0x1C PUSH1 0x0 PUSH1 0x19 PUSH1 0x0 SWAP1 SLOAD SWAP1 PUSH2 0x100 EXP SWAP1 DIV PUSH1 0xFF AND PUSH1 0xFF AND PUSH1 0xFF AND DUP2 MSTORE PUSH1 0x20 ADD SWAP1 DUP2 MSTORE PUSH1 0x20 ADD PUSH1 0x0 KECCAK256 DUP2 SWAP1 DUP1 PUSH1 0x1 DUP2 SLOAD ADD DUP1 DUP3 SSTORE DUP1 SWAP2 POP POP PUSH1 0x1 SWAP1 SUB SWAP1 PUSH1 0x0 MSTORE PUSH1 0x20 PUSH1 0x0 KECCAK256 SWAP1 PUSH1 0x10 SWAP2 DUP3 DUP3 DIV ADD SWAP2 SWAP1 MOD PUSH1 0x2 MUL SWAP1 SWAP2 SWAP1 SWAP2 SWAP1 SWAP2 PUSH2 0x100 EXP DUP2 SLOAD DUP2 PUSH2 0xFFFF MUL NOT AND SWAP1 DUP4 PUSH2 0xFFFF AND MUL OR SWAP1 SSTORE POP PUSH1 0x1 PUSH1 0x17 PUSH1 0x0 DUP5 DUP2 MSTORE PUSH1 0x20 ADD SWAP1 DUP2 MSTORE PUSH1 0x20 ADD PUSH1 0x0 KECCAK256 PUSH1 0x0 PUSH2 0x100 EXP DUP2 SLOAD DUP2 PUSH1 0xFF MUL NOT AND SWAP1 DUP4 ISZERO ISZERO MUL OR SWAP1 SSTORE POP DUP2 PUSH1 0x18 PUSH1 0x0 PUSH1 0x19 PUSH1 0x0 SWAP1 SLOAD SWAP1 PUSH2 0x100 EXP SWAP1 DIV PUSH1 0xFF AND PUSH1 0xFF AND PUSH1 0xFF AND DUP2 MSTORE PUSH1 0x20 ADD SWAP1 DUP2 MSTORE PUSH1 0x20 ADD PUSH1 0x0 KECCAK256 DUP2 SWAP1 SSTORE POP POP POP POP POP POP POP POP POP JUMP JUMPDEST PUSH1 0x60 PUSH1 0x0 PUSH1 0x1 JUMPDEST PUSH1 0x19 SLOAD PUSH1 0xFF SWAP1 DUP2 AND SWAP1 DUP3 AND GT PUSH2 0x23F6 JUMPI PUSH1 0xFF DUP1 DUP3 AND PUSH1 0x0 SWAP1 DUP2 MSTORE PUSH1 0x1A PUSH1 0x20 MSTORE PUSH1 0x40 SWAP1 KECCAK256 PUSH1 0x1 ADD SLOAD PUSH4 0x1000000 SWAP1 DIV AND ISZERO PUSH2 0x23E4 JUMPI DUP2 PUSH2 0x23E0 DUP2 PUSH2 0x420D JUMP JUMPDEST SWAP3 POP POP JUMPDEST DUP1 PUSH2 0x23EE DUP2 PUSH2 0x4226 JUMP JUMPDEST SWAP2 POP POP PUSH2 0x23A2 JUMP JUMPDEST POP PUSH1 0x0 DUP2 PUSH1 0x1 PUSH1 0x1 PUSH1 0x40 SHL SUB DUP2 GT ISZERO PUSH2 0x2411 JUMPI PUSH2 0x2411 PUSH2 0x3FAD JUMP JUMPDEST PUSH1 0x40 MLOAD SWAP1 DUP1 DUP3 MSTORE DUP1 PUSH1 0x20 MUL PUSH1 0x20 ADD DUP3 ADD PUSH1 0x40 MSTORE DUP1 ISZERO PUSH2 0x246B JUMPI DUP2 PUSH1 0x20 ADD JUMPDEST PUSH1 0x40 DUP1 MLOAD PUSH1 0xA0 DUP2 ADD DUP3 MSTORE PUSH1 0x60 DUP1 DUP3 MSTORE PUSH1 0x0 PUSH1 0x20 DUP1 DUP5 ADD DUP3 SWAP1 MSTORE SWAP4 DUP4 ADD DUP2 SWAP1 MSTORE SWAP1 DUP3 ADD DUP2 SWAP1 MSTORE PUSH1 0x80 DUP3 ADD MSTORE DUP3 MSTORE PUSH1 0x0 NOT SWAP1 SWAP3 ADD SWAP2 ADD DUP2 PUSH2 0x242F JUMPI SWAP1 POP JUMPDEST POP SWAP1 POP PUSH1 0x0 PUSH1 0x1 JUMPDEST PUSH1 0x19 SLOAD PUSH1 0xFF SWAP1 DUP2 AND SWAP1 DUP3 AND GT PUSH2 0x130E JUMPI PUSH1 0xFF DUP1 DUP3 AND PUSH1 0x0 SWAP1 DUP2 MSTORE PUSH1 0x1A PUSH1 0x20 MSTORE PUSH1 0x40 SWAP1 KECCAK256 PUSH1 0x1 ADD SLOAD PUSH4 0x1000000 SWAP1 DIV AND ISZERO PUSH2 0x25BD JUMPI PUSH1 0xFF DUP2 AND PUSH1 0x0 SWAP1 DUP2 MSTORE PUSH1 0x1A PUSH1 0x20 MSTORE PUSH1 0x40 SWAP1 DUP2 SWAP1 KECCAK256 DUP2 MLOAD PUSH1 0xA0 DUP2 ADD SWAP1 SWAP3 MSTORE DUP1 SLOAD DUP3 SWAP1 DUP3 SWAP1 PUSH2 0x24D3 SWAP1 PUSH2 0x3FC3 JUMP JUMPDEST DUP1 PUSH1 0x1F ADD PUSH1 0x20 DUP1 SWAP2 DIV MUL PUSH1 0x20 ADD PUSH1 0x40 MLOAD SWAP1 DUP2 ADD PUSH1 0x40 MSTORE DUP1 SWAP3 SWAP2 SWAP1 DUP2 DUP2 MSTORE PUSH1 0x20 ADD DUP3 DUP1 SLOAD PUSH2 0x24FF SWAP1 PUSH2 0x3FC3 JUMP JUMPDEST DUP1 ISZERO PUSH2 0x254C JUMPI DUP1 PUSH1 0x1F LT PUSH2 0x2521 JUMPI PUSH2 0x100 DUP1 DUP4 SLOAD DIV MUL DUP4 MSTORE SWAP2 PUSH1 0x20 ADD SWAP2 PUSH2 0x254C JUMP JUMPDEST DUP3 ADD SWAP2 SWAP1 PUSH1 0x0 MSTORE PUSH1 0x20 PUSH1 0x0 KECCAK256 SWAP1 JUMPDEST DUP2 SLOAD DUP2 MSTORE SWAP1 PUSH1 0x1 ADD SWAP1 PUSH1 0x20 ADD DUP1 DUP4 GT PUSH2 0x252F JUMPI DUP3 SWAP1 SUB PUSH1 0x1F AND DUP3 ADD SWAP2 JUMPDEST POP POP POP SWAP2 DUP4 MSTORE POP POP PUSH1 0x1 SWAP2 SWAP1 SWAP2 ADD SLOAD PUSH1 0xFF DUP1 DUP3 AND PUSH1 0x20 DUP5 ADD MSTORE PUSH2 0x100 DUP3 DIV DUP2 AND PUSH1 0x40 DUP5 ADD MSTORE PUSH3 0x10000 DUP3 DIV DUP2 AND PUSH1 0x60 DUP5 ADD MSTORE PUSH4 0x1000000 SWAP1 SWAP2 DIV AND ISZERO ISZERO PUSH1 0x80 SWAP1 SWAP2 ADD MSTORE DUP4 MLOAD DUP5 SWAP1 DUP5 SWAP1 DUP2 LT PUSH2 0x25A3 JUMPI PUSH2 0x25A3 PUSH2 0x41CE JUMP JUMPDEST PUSH1 0x20 MUL PUSH1 0x20 ADD ADD DUP2 SWAP1 MSTORE POP DUP2 DUP1 PUSH2 0x25B9 SWAP1 PUSH2 0x420D JUMP JUMPDEST SWAP3 POP POP JUMPDEST DUP1 PUSH2 0x25C7 DUP2 PUSH2 0x4226 JUMP JUMPDEST SWAP2 POP POP PUSH2 0x2473 JUMP JUMPDEST PUSH1 0xFF DUP1 DUP3 AND PUSH1 0x0 SWAP1 DUP2 MSTORE PUSH1 0x1A PUSH1 0x20 MSTORE PUSH1 0x40 DUP2 KECCAK256 PUSH1 0x1 ADD SLOAD SWAP1 SWAP2 PUSH4 0x1000000 SWAP1 SWAP2 DIV AND PUSH2 0x260D JUMPI PUSH1 0x40 MLOAD PUSH3 0x461BCD PUSH1 0xE5 SHL DUP2 MSTORE PUSH1 0x4 ADD PUSH2 0x6E2 SWAP1 PUSH2 0x410A JUMP JUMPDEST POP PUSH1 0xFF SWAP1 DUP2 AND PUSH1 0x0 SWAP1 DUP2 MSTORE PUSH1 0x1A PUSH1 0x20 MSTORE PUSH1 0x40 SWAP1 KECCAK256 PUSH1 0x1 ADD SLOAD PUSH3 0x10000 SWAP1 DIV AND SWAP1 JUMP JUMPDEST PUSH1 0x14 SLOAD PUSH1 0x40 MLOAD PUSH4 0x8A888953 PUSH1 0xE0 SHL DUP2 MSTORE PUSH1 0xFF DUP1 DUP6 AND PUSH1 0x4 DUP4 ADD MSTORE DUP4 AND PUSH1 0x24 DUP3 ADD MSTORE DUP4 SWAP2 DUP4 SWAP2 CALLER SWAP2 PUSH1 0x1 PUSH1 0x1 PUSH1 0xA0 SHL SUB AND SWAP1 PUSH4 0x8A888953 SWAP1 PUSH1 0x44 ADD PUSH1 0x20 PUSH1 0x40 MLOAD DUP1 DUP4 SUB DUP2 DUP7 GAS STATICCALL ISZERO DUP1 ISZERO PUSH2 0x2686 JUMPI RETURNDATASIZE PUSH1 0x0 DUP1 RETURNDATACOPY RETURNDATASIZE PUSH1 0x0 REVERT JUMPDEST POP POP POP POP PUSH1 0x40 MLOAD RETURNDATASIZE PUSH1 0x1F NOT PUSH1 0x1F DUP3 ADD AND DUP3 ADD DUP1 PUSH1 0x40 MSTORE POP DUP2 ADD SWAP1 PUSH2 0x26AA SWAP2 SWAP1 PUSH2 0x3F4A JUMP JUMPDEST PUSH1 0x1 PUSH1 0x1 PUSH1 0xA0 SHL SUB AND EQ PUSH2 0x26D0 JUMPI PUSH1 0x40 MLOAD PUSH3 0x461BCD PUSH1 0xE5 SHL DUP2 MSTORE PUSH1 0x4 ADD PUSH2 0x6E2 SWAP1 PUSH2 0x4137 JUMP JUMPDEST PUSH1 0xFF DUP4 DUP2 AND PUSH1 0x8 DUP7 SWAP1 SHL PUSH2 0xFF00 AND OR PUSH1 0x0 DUP2 DUP2 MSTORE PUSH1 0x1D PUSH1 0x20 MSTORE PUSH1 0x40 SWAP1 KECCAK256 SLOAD SWAP1 SWAP2 AND DUP1 PUSH2 0x273E JUMPI PUSH1 0x40 MLOAD PUSH3 0x461BCD PUSH1 0xE5 SHL DUP2 MSTORE PUSH1 0x20 PUSH1 0x4 DUP3 ADD MSTORE PUSH1 0x1F PUSH1 0x24 DUP3 ADD MSTORE PUSH32 0x4E6F2070656E64696E6720696E7669746520666F7220746869732074696C6500 PUSH1 0x44 DUP3 ADD MSTORE PUSH1 0x64 ADD PUSH2 0x6E2 JUMP JUMPDEST PUSH1 0xFF DUP1 DUP3 AND PUSH1 0x0 SWAP1 DUP2 MSTORE PUSH1 0x1A PUSH1 0x20 MSTORE PUSH1 0x40 SWAP1 KECCAK256 PUSH1 0x1 ADD SLOAD PUSH4 0x1000000 SWAP1 DIV AND PUSH2 0x2779 JUMPI PUSH1 0x40 MLOAD PUSH3 0x461BCD PUSH1 0xE5 SHL DUP2 MSTORE PUSH1 0x4 ADD PUSH2 0x6E2 SWAP1 PUSH2 0x410A JUMP JUMPDEST PUSH1 0xFF DUP1 DUP8 AND PUSH1 0x0 SWAP1 DUP2 MSTORE PUSH1 0x20 DUP1 DUP1 MSTORE PUSH1 0x40 DUP1 DUP4 KECCAK256 DUP10 DUP6 AND DUP5 MSTORE SWAP1 SWAP2 MSTORE SWAP1 KECCAK256 SLOAD AND ISZERO PUSH2 0x27DF JUMPI PUSH1 0x40 MLOAD PUSH3 0x461BCD PUSH1 0xE5 SHL DUP2 MSTORE PUSH1 0x20 PUSH1 0x4 DUP3 ADD MSTORE PUSH1 0x16 PUSH1 0x24 DUP3 ADD MSTORE PUSH22 0x2A34B6329030B63932B0B23C9034B710309031B630B7 PUSH1 0x51 SHL PUSH1 0x44 DUP3 ADD MSTORE PUSH1 0x64 ADD PUSH2 0x6E2 JUMP JUMPDEST PUSH1 0xFF DUP2 DUP2 AND PUSH1 0x0 SWAP1 DUP2 MSTORE PUSH1 0x1A PUSH1 0x20 MSTORE PUSH1 0x40 SWAP1 KECCAK256 PUSH1 0x1 ADD SLOAD PUSH1 0x1E PUSH3 0x10000 SWAP1 SWAP2 DIV SWAP1 SWAP2 AND LT PUSH2 0x2827 JUMPI POP PUSH2 0xFFFF AND PUSH1 0x0 SWAP1 DUP2 MSTORE PUSH1 0x1D PUSH1 0x20 MSTORE PUSH1 0x40 SWAP1 KECCAK256 DUP1 SLOAD PUSH1 0xFF NOT AND SWAP1 SSTORE PUSH2 0x292C JUMP JUMPDEST PUSH1 0xFF DUP7 DUP2 AND PUSH1 0x0 SWAP1 DUP2 MSTORE PUSH1 0x20 DUP1 DUP1 MSTORE PUSH1 0x40 DUP1 DUP4 KECCAK256 DUP10 DUP6 AND DUP5 MSTORE DUP3 MSTORE DUP1 DUP4 KECCAK256 DUP1 SLOAD PUSH1 0xFF NOT AND DUP7 DUP7 AND SWAP1 DUP2 OR SWAP1 SWAP2 SSTORE DUP2 MLOAD DUP1 DUP4 ADD DUP4 MSTORE DUP2 DUP2 MSTORE PUSH1 0x1 DUP2 DUP6 ADD DUP2 DUP2 MSTORE PUSH2 0xFFFF DUP11 DUP2 AND DUP1 DUP10 MSTORE PUSH1 0x1B DUP9 MSTORE DUP7 DUP10 KECCAK256 SWAP5 MLOAD DUP6 SLOAD SWAP4 MLOAD SWAP1 DUP12 AND PUSH2 0xFFFF NOT SWAP1 SWAP5 AND SWAP4 SWAP1 SWAP4 OR PUSH2 0x100 SWAP4 ISZERO ISZERO DUP5 MUL OR SWAP1 SWAP5 SSTORE DUP5 DUP9 MSTORE PUSH1 0x1C DUP8 MSTORE DUP6 DUP9 KECCAK256 DUP1 SLOAD DUP1 DUP6 ADD DUP3 SSTORE SWAP1 DUP10 MSTORE DUP8 DUP10 KECCAK256 PUSH1 0x10 DUP3 DIV ADD DUP1 SLOAD PUSH1 0xF SWAP1 SWAP3 AND PUSH1 0x2 SWAP1 DUP2 MUL SWAP1 SWAP5 EXP SWAP3 DUP4 MUL NOT SWAP1 SWAP2 AND SWAP2 SWAP1 SWAP5 MUL OR SWAP1 SWAP3 SSTORE SWAP2 DUP6 MSTORE PUSH1 0x1A SWAP1 SWAP4 MSTORE SWAP3 KECCAK256 SWAP1 SWAP2 ADD DUP1 SLOAD PUSH3 0x10000 SWAP1 DIV SWAP1 SWAP3 AND SWAP2 SWAP1 PUSH2 0x28F3 DUP4 PUSH2 0x4226 JUMP JUMPDEST DUP3 SLOAD PUSH1 0xFF SWAP2 DUP3 AND PUSH2 0x100 SWAP4 SWAP1 SWAP4 EXP SWAP3 DUP4 MUL SWAP2 SWAP1 SWAP3 MUL NOT SWAP1 SWAP2 AND OR SWAP1 SSTORE POP POP PUSH2 0xFFFF AND PUSH1 0x0 SWAP1 DUP2 MSTORE PUSH1 0x1D PUSH1 0x20 MSTORE PUSH1 0x40 SWAP1 KECCAK256 DUP1 SLOAD PUSH1 0xFF NOT AND SWAP1 SSTORE JUMPDEST POP POP POP POP JUMP JUMPDEST PUSH1 0x0 DUP3 PUSH1 0x14 DUP2 LT PUSH2 0x2942 JUMPI PUSH1 0x0 DUP1 REVERT JUMPDEST ADD DUP2 PUSH1 0x14 DUP2 LT PUSH2 0x2951 JUMPI PUSH1 0x0 DUP1 REVERT JUMPDEST PUSH1 0x20 DUP2 DIV SWAP1 SWAP2 ADD SLOAD PUSH1 0xFF PUSH1 0x1F SWAP1 SWAP3 AND PUSH2 0x100 EXP SWAP1 DIV AND SWAP2 POP DUP3 SWAP1 POP JUMP JUMPDEST PUSH1 0xFF DUP2 AND PUSH1 0x0 SWAP1 DUP2 MSTORE PUSH1 0x1C PUSH1 0x20 MSTORE PUSH1 0x40 DUP2 KECCAK256 DUP1 SLOAD PUSH1 0x60 SWAP3 SWAP1 PUSH1 0x1 PUSH1 0x1 PUSH1 0x40 SHL SUB DUP2 GT ISZERO PUSH2 0x299D JUMPI PUSH2 0x299D PUSH2 0x3FAD JUMP JUMPDEST PUSH1 0x40 MLOAD SWAP1 DUP1 DUP3 MSTORE DUP1 PUSH1 0x20 MUL PUSH1 0x20 ADD DUP3 ADD PUSH1 0x40 MSTORE DUP1 ISZERO PUSH2 0x29EF JUMPI DUP2 PUSH1 0x20 ADD JUMPDEST PUSH1 0x40 DUP1 MLOAD PUSH1 0x80 DUP2 ADD DUP3 MSTORE PUSH1 0x0 DUP1 DUP3 MSTORE PUSH1 0x20 DUP1 DUP4 ADD DUP3 SWAP1 MSTORE SWAP3 DUP3 ADD DUP2 SWAP1 MSTORE PUSH1 0x60 DUP3 ADD MSTORE DUP3 MSTORE PUSH1 0x0 NOT SWAP1 SWAP3 ADD SWAP2 ADD DUP2 PUSH2 0x29BB JUMPI SWAP1 POP JUMPDEST POP SWAP1 POP PUSH1 0x0 JUMPDEST DUP3 SLOAD DUP2 LT ISZERO PUSH2 0x2A8F JUMPI PUSH1 0x0 DUP1 PUSH2 0x2A16 DUP6 DUP5 DUP2 SLOAD DUP2 LT PUSH2 0x1C13 JUMPI PUSH2 0x1C13 PUSH2 0x41CE JUMP JUMPDEST SWAP2 POP SWAP2 POP PUSH1 0x40 MLOAD DUP1 PUSH1 0x80 ADD PUSH1 0x40 MSTORE DUP1 DUP4 PUSH1 0xFF AND DUP2 MSTORE PUSH1 0x20 ADD DUP3 PUSH1 0xFF AND DUP2 MSTORE PUSH1 0x20 ADD DUP9 PUSH1 0xFF AND DUP2 MSTORE PUSH1 0x20 ADD PUSH1 0x22 PUSH1 0x0 DUP11 PUSH1 0xFF AND PUSH1 0xFF AND DUP2 MSTORE PUSH1 0x20 ADD SWAP1 DUP2 MSTORE PUSH1 0x20 ADD PUSH1 0x0 KECCAK256 SLOAD DUP2 MSTORE POP DUP5 DUP5 DUP2 MLOAD DUP2 LT PUSH2 0x2A6F JUMPI PUSH2 0x2A6F PUSH2 0x41CE JUMP JUMPDEST PUSH1 0x20 MUL PUSH1 0x20 ADD ADD DUP2 SWAP1 MSTORE POP POP POP DUP1 DUP1 PUSH2 0x2A87 SWAP1 PUSH2 0x420D JUMP JUMPDEST SWAP2 POP POP PUSH2 0x29F5 JUMP JUMPDEST POP SWAP4 SWAP3 POP POP POP JUMP JUMPDEST PUSH1 0xFF DUP1 DUP7 AND PUSH1 0x0 SWAP1 DUP2 MSTORE PUSH1 0x1A PUSH1 0x20 MSTORE PUSH1 0x40 SWAP1 KECCAK256 PUSH1 0x1 ADD SLOAD DUP7 SWAP2 DUP7 SWAP2 DUP7 SWAP2 PUSH4 0x1000000 SWAP1 SWAP2 DIV AND PUSH2 0x2AD9 JUMPI PUSH1 0x40 MLOAD PUSH3 0x461BCD PUSH1 0xE5 SHL DUP2 MSTORE PUSH1 0x4 ADD PUSH2 0x6E2 SWAP1 PUSH2 0x410A JUMP JUMPDEST PUSH1 0xFF DUP4 DUP2 AND PUSH1 0x0 SWAP1 DUP2 MSTORE PUSH1 0x1A PUSH1 0x20 MSTORE PUSH1 0x40 SWAP1 KECCAK256 PUSH1 0x1 ADD SLOAD DUP2 AND SWAP1 DUP4 AND EQ DUP1 ISZERO PUSH2 0x2B20 JUMPI POP PUSH1 0xFF DUP4 DUP2 AND PUSH1 0x0 SWAP1 DUP2 MSTORE PUSH1 0x1A PUSH1 0x20 MSTORE PUSH1 0x40 SWAP1 KECCAK256 PUSH1 0x1 ADD SLOAD PUSH2 0x100 SWAP1 DIV DUP2 AND SWAP1 DUP3 AND EQ JUMPDEST PUSH2 0x2B3C JUMPI PUSH1 0x40 MLOAD PUSH3 0x461BCD PUSH1 0xE5 SHL DUP2 MSTORE PUSH1 0x4 ADD PUSH2 0x6E2 SWAP1 PUSH2 0x4245 JUMP JUMPDEST PUSH1 0x14 SLOAD PUSH1 0x40 MLOAD PUSH4 0x8A888953 PUSH1 0xE0 SHL DUP2 MSTORE PUSH1 0xFF DUP1 DUP6 AND PUSH1 0x4 DUP4 ADD MSTORE DUP4 AND PUSH1 0x24 DUP3 ADD MSTORE CALLER SWAP2 PUSH1 0x1 PUSH1 0x1 PUSH1 0xA0 SHL SUB AND SWAP1 PUSH4 0x8A888953 SWAP1 PUSH1 0x44 ADD PUSH1 0x20 PUSH1 0x40 MLOAD DUP1 DUP4 SUB DUP2 DUP7 GAS STATICCALL ISZERO DUP1 ISZERO PUSH2 0x2B8F JUMPI RETURNDATASIZE PUSH1 0x0 DUP1 RETURNDATACOPY RETURNDATASIZE PUSH1 0x0 REVERT JUMPDEST POP POP POP POP PUSH1 0x40 MLOAD RETURNDATASIZE PUSH1 0x1F NOT PUSH1 0x1F DUP3 ADD AND DUP3 ADD DUP1 PUSH1 0x40 MSTORE POP DUP2 ADD SWAP1 PUSH2 0x2BB3 SWAP2 SWAP1 PUSH2 0x3F4A JUMP JUMPDEST PUSH1 0x1 PUSH1 0x1 PUSH1 0xA0 SHL SUB AND EQ PUSH2 0x2BD9 JUMPI PUSH1 0x40 MLOAD PUSH3 0x461BCD PUSH1 0xE5 SHL DUP2 MSTORE PUSH1 0x4 ADD PUSH2 0x6E2 SWAP1 PUSH2 0x426E JUMP JUMPDEST PUSH1 0xFF DUP1 DUP10 AND PUSH1 0x0 SWAP1 DUP2 MSTORE PUSH1 0x1A PUSH1 0x20 MSTORE PUSH1 0x40 SWAP1 KECCAK256 PUSH1 0x1 ADD SLOAD PUSH4 0x1000000 SWAP1 DIV AND PUSH2 0x2C14 JUMPI PUSH1 0x40 MLOAD PUSH3 0x461BCD PUSH1 0xE5 SHL DUP2 MSTORE PUSH1 0x4 ADD PUSH2 0x6E2 SWAP1 PUSH2 0x410A JUMP JUMPDEST PUSH1 0xFF DUP9 DUP2 AND PUSH1 0x0 SWAP1 DUP2 MSTORE PUSH1 0x1A PUSH1 0x20 MSTORE PUSH1 0x40 SWAP1 KECCAK256 PUSH1 0x1 ADD SLOAD PUSH1 0x1E PUSH3 0x10000 SWAP1 SWAP2 DIV SWAP1 SWAP2 AND LT PUSH2 0x2C73 JUMPI PUSH1 0x40 MLOAD PUSH3 0x461BCD PUSH1 0xE5 SHL DUP2 MSTORE PUSH1 0x20 PUSH1 0x4 DUP3 ADD MSTORE PUSH1 0xC PUSH1 0x24 DUP3 ADD MSTORE PUSH12 0x10DB185B881A5CC8199D5B1B PUSH1 0xA2 SHL PUSH1 0x44 DUP3 ADD MSTORE PUSH1 0x64 ADD PUSH2 0x6E2 JUMP JUMPDEST PUSH1 0x16 SLOAD PUSH1 0x40 MLOAD PUSH4 0xD662AF5 PUSH1 0xE1 SHL DUP2 MSTORE PUSH1 0xFF DUP1 DUP11 AND PUSH1 0x4 DUP4 ADD MSTORE DUP9 AND PUSH1 0x24 DUP3 ADD MSTORE PUSH1 0x1 PUSH1 0x1 PUSH1 0xA0 SHL SUB SWAP1 SWAP2 AND SWAP1 PUSH4 0x1ACC55EA SWAP1 PUSH1 0x44 ADD PUSH1 0x20 PUSH1 0x40 MLOAD DUP1 DUP4 SUB DUP2 DUP7 GAS STATICCALL ISZERO DUP1 ISZERO PUSH2 0x2CC6 JUMPI RETURNDATASIZE PUSH1 0x0 DUP1 RETURNDATACOPY RETURNDATASIZE PUSH1 0x0 REVERT JUMPDEST POP POP POP POP PUSH1 0x40 MLOAD RETURNDATASIZE PUSH1 0x1F NOT PUSH1 0x1F DUP3 ADD AND DUP3 ADD DUP1 PUSH1 0x40 MSTORE POP DUP2 ADD SWAP1 PUSH2 0x2CEA SWAP2 SWAP1 PUSH2 0x3F8B JUMP JUMPDEST PUSH2 0x2D06 JUMPI PUSH1 0x40 MLOAD PUSH3 0x461BCD PUSH1 0xE5 SHL DUP2 MSTORE PUSH1 0x4 ADD PUSH2 0x6E2 SWAP1 PUSH2 0x4478 JUMP JUMPDEST PUSH1 0x14 SLOAD PUSH1 0x40 MLOAD PUSH4 0x8A888953 PUSH1 0xE0 SHL DUP2 MSTORE PUSH1 0xFF DUP1 DUP9 AND PUSH1 0x4 DUP4 ADD MSTORE DUP7 AND PUSH1 0x24 DUP3 ADD MSTORE PUSH1 0x0 SWAP2 PUSH1 0x1 PUSH1 0x1 PUSH1 0xA0 SHL SUB AND SWAP1 PUSH4 0x8A888953 SWAP1 PUSH1 0x44 ADD PUSH1 0x20 PUSH1 0x40 MLOAD DUP1 DUP4 SUB DUP2 DUP7 GAS STATICCALL ISZERO DUP1 ISZERO PUSH2 0x2D5A JUMPI RETURNDATASIZE PUSH1 0x0 DUP1 RETURNDATACOPY RETURNDATASIZE PUSH1 0x0 REVERT JUMPDEST POP POP POP POP PUSH1 0x40 MLOAD RETURNDATASIZE PUSH1 0x1F NOT PUSH1 0x1F DUP3 ADD AND DUP3 ADD DUP1 PUSH1 0x40 MSTORE POP DUP2 ADD SWAP1 PUSH2 0x2D7E SWAP2 SWAP1 PUSH2 0x3F4A JUMP JUMPDEST SWAP1 POP PUSH1 0x1 PUSH1 0x1 PUSH1 0xA0 SHL SUB DUP2 AND PUSH2 0x2DCC JUMPI PUSH1 0x40 MLOAD PUSH3 0x461BCD PUSH1 0xE5 SHL DUP2 MSTORE PUSH1 0x20 PUSH1 0x4 DUP3 ADD MSTORE PUSH1 0x13 PUSH1 0x24 DUP3 ADD MSTORE PUSH19 0x15185C99D95D081D1A5B19481D5B9BDDDB9959 PUSH1 0x6A SHL PUSH1 0x44 DUP3 ADD MSTORE PUSH1 0x64 ADD PUSH2 0x6E2 JUMP JUMPDEST PUSH1 0xFF DUP1 DUP8 AND PUSH1 0x0 SWAP1 DUP2 MSTORE PUSH1 0x20 DUP1 DUP1 MSTORE PUSH1 0x40 DUP1 DUP4 KECCAK256 DUP10 DUP6 AND DUP5 MSTORE SWAP1 SWAP2 MSTORE SWAP1 KECCAK256 SLOAD AND ISZERO PUSH2 0x2E39 JUMPI PUSH1 0x40 MLOAD PUSH3 0x461BCD PUSH1 0xE5 SHL DUP2 MSTORE PUSH1 0x20 PUSH1 0x4 DUP3 ADD MSTORE PUSH1 0x1D PUSH1 0x24 DUP3 ADD MSTORE PUSH32 0x5461726765742074696C6520616C726561647920696E206120636C616E000000 PUSH1 0x44 DUP3 ADD MSTORE PUSH1 0x64 ADD PUSH2 0x6E2 JUMP JUMPDEST PUSH1 0x0 PUSH2 0xFF00 PUSH1 0x8 DUP9 SWAP1 SHL AND PUSH1 0xFF DUP8 AND OR PUSH2 0xFFFF AND PUSH1 0x0 SWAP1 DUP2 MSTORE PUSH1 0x1D PUSH1 0x20 MSTORE PUSH1 0x40 SWAP1 KECCAK256 DUP1 SLOAD PUSH1 0xFF NOT AND PUSH1 0xFF SWAP12 SWAP1 SWAP12 AND SWAP11 SWAP1 SWAP11 OR SWAP1 SWAP10 SSTORE POP POP POP POP POP POP POP POP POP JUMP JUMPDEST PUSH1 0x1C PUSH1 0x20 MSTORE DUP2 PUSH1 0x0 MSTORE PUSH1 0x40 PUSH1 0x0 KECCAK256 DUP2 DUP2 SLOAD DUP2 LT PUSH2 0x2E95 JUMPI PUSH1 0x0 DUP1 REVERT JUMPDEST SWAP1 PUSH1 0x0 MSTORE PUSH1 0x20 PUSH1 0x0 KECCAK256 SWAP1 PUSH1 0x10 SWAP2 DUP3 DUP3 DIV ADD SWAP2 SWAP1 MOD PUSH1 0x2 MUL SWAP2 POP SWAP2 POP SWAP1 SLOAD SWAP1 PUSH2 0x100 EXP SWAP1 DIV PUSH2 0xFFFF AND DUP2 JUMP JUMPDEST PUSH1 0x1A PUSH1 0x20 MSTORE PUSH1 0x0 SWAP1 DUP2 MSTORE PUSH1 0x40 SWAP1 KECCAK256 DUP1 SLOAD DUP2 SWAP1 PUSH2 0x2EDB SWAP1 PUSH2 0x3FC3 JUMP JUMPDEST DUP1 PUSH1 0x1F ADD PUSH1 0x20 DUP1 SWAP2 DIV MUL PUSH1 0x20 ADD PUSH1 0x40 MLOAD SWAP1 DUP2 ADD PUSH1 0x40 MSTORE DUP1 SWAP3 SWAP2 SWAP1 DUP2 DUP2 MSTORE PUSH1 0x20 ADD DUP3 DUP1 SLOAD PUSH2 0x2F07 SWAP1 PUSH2 0x3FC3 JUMP JUMPDEST DUP1 ISZERO PUSH2 0x2F54 JUMPI DUP1 PUSH1 0x1F LT PUSH2 0x2F29 JUMPI PUSH2 0x100 DUP1 DUP4 SLOAD DIV MUL DUP4 MSTORE SWAP2 PUSH1 0x20 ADD SWAP2 PUSH2 0x2F54 JUMP JUMPDEST DUP3 ADD SWAP2 SWAP1 PUSH1 0x0 MSTORE PUSH1 0x20 PUSH1 0x0 KECCAK256 SWAP1 JUMPDEST DUP2 SLOAD DUP2 MSTORE SWAP1 PUSH1 0x1 ADD SWAP1 PUSH1 0x20 ADD DUP1 DUP4 GT PUSH2 0x2F37 JUMPI DUP3 SWAP1 SUB PUSH1 0x1F AND DUP3 ADD SWAP2 JUMPDEST POP POP POP PUSH1 0x1 SWAP1 SWAP4 ADD SLOAD SWAP2 SWAP3 POP POP PUSH1 0xFF DUP1 DUP3 AND SWAP2 PUSH2 0x100 DUP2 DIV DUP3 AND SWAP2 PUSH3 0x10000 DUP3 DIV DUP2 AND SWAP2 PUSH4 0x1000000 SWAP1 DIV AND DUP6 JUMP JUMPDEST PUSH1 0x1 PUSH1 0x1 PUSH1 0xA0 SHL SUB DUP2 AND PUSH1 0x0 SWAP1 DUP2 MSTORE PUSH1 0x1F PUSH1 0x20 MSTORE PUSH1 0x40 SWAP1 KECCAK256 DUP1 SLOAD PUSH1 0x60 SWAP2 SWAP1 PUSH2 0x2FAA SWAP1 PUSH2 0x3FC3 JUMP JUMPDEST DUP1 PUSH1 0x1F ADD PUSH1 0x20 DUP1 SWAP2 DIV MUL PUSH1 0x20 ADD PUSH1 0x40 MLOAD SWAP1 DUP2 ADD PUSH1 0x40 MSTORE DUP1 SWAP3 SWAP2 SWAP1 DUP2 DUP2 MSTORE PUSH1 0x20 ADD DUP3 DUP1 SLOAD PUSH2 0x2FD6 SWAP1 PUSH2 0x3FC3 JUMP JUMPDEST DUP1 ISZERO PUSH2 0x3023 JUMPI DUP1 PUSH1 0x1F LT PUSH2 0x2FF8 JUMPI PUSH2 0x100 DUP1 DUP4 SLOAD DIV MUL DUP4 MSTORE SWAP2 PUSH1 0x20 ADD SWAP2 PUSH2 0x3023 JUMP JUMPDEST DUP3 ADD SWAP2 SWAP1 PUSH1 0x0 MSTORE PUSH1 0x20 PUSH1 0x0 KECCAK256 SWAP1 JUMPDEST DUP2 SLOAD DUP2 MSTORE SWAP1 PUSH1 0x1 ADD SWAP1 PUSH1 0x20 ADD DUP1 DUP4 GT PUSH2 0x3006 JUMPI DUP3 SWAP1 SUB PUSH1 0x1F AND DUP3 ADD SWAP2 JUMPDEST POP POP POP POP POP SWAP1 POP SWAP2 SWAP1 POP JUMP JUMPDEST PUSH1 0xFF DUP1 DUP7 AND PUSH1 0x0 SWAP1 DUP2 MSTORE PUSH1 0x1A PUSH1 0x20 MSTORE PUSH1 0x40 SWAP1 KECCAK256 PUSH1 0x1 ADD SLOAD DUP7 SWAP2 DUP7 SWAP2 DUP7 SWAP2 PUSH4 0x1000000 SWAP1 SWAP2 DIV AND PUSH2 0x3071 JUMPI PUSH1 0x40 MLOAD PUSH3 0x461BCD PUSH1 0xE5 SHL DUP2 MSTORE PUSH1 0x4 ADD PUSH2 0x6E2 SWAP1 PUSH2 0x410A JUMP JUMPDEST PUSH1 0xFF DUP4 DUP2 AND PUSH1 0x0 SWAP1 DUP2 MSTORE PUSH1 0x1A PUSH1 0x20 MSTORE PUSH1 0x40 SWAP1 KECCAK256 PUSH1 0x1 ADD SLOAD DUP2 AND SWAP1 DUP4 AND EQ DUP1 ISZERO PUSH2 0x30B8 JUMPI POP PUSH1 0xFF DUP4 DUP2 AND PUSH1 0x0 SWAP1 DUP2 MSTORE PUSH1 0x1A PUSH1 0x20 MSTORE PUSH1 0x40 SWAP1 KECCAK256 PUSH1 0x1 ADD SLOAD PUSH2 0x100 SWAP1 DIV DUP2 AND SWAP1 DUP3 AND EQ JUMPDEST PUSH2 0x30D4 JUMPI PUSH1 0x40 MLOAD PUSH3 0x461BCD PUSH1 0xE5 SHL DUP2 MSTORE PUSH1 0x4 ADD PUSH2 0x6E2 SWAP1 PUSH2 0x4245 JUMP JUMPDEST PUSH1 0x14 SLOAD PUSH1 0x40 MLOAD PUSH4 0x8A888953 PUSH1 0xE0 SHL DUP2 MSTORE PUSH1 0xFF DUP1 DUP6 AND PUSH1 0x4 DUP4 ADD MSTORE DUP4 AND PUSH1 0x24 DUP3 ADD MSTORE CALLER SWAP2 PUSH1 0x1 PUSH1 0x1 PUSH1 0xA0 SHL SUB AND SWAP1 PUSH4 0x8A888953 SWAP1 PUSH1 0x44 ADD PUSH1 0x20 PUSH1 0x40 MLOAD DUP1 DUP4 SUB DUP2 DUP7 GAS STATICCALL ISZERO DUP1 ISZERO PUSH2 0x3127 JUMPI RETURNDATASIZE PUSH1 0x0 DUP1 RETURNDATACOPY RETURNDATASIZE PUSH1 0x0 REVERT JUMPDEST POP POP POP POP PUSH1 0x40 MLOAD RETURNDATASIZE PUSH1 0x1F NOT PUSH1 0x1F DUP3 ADD AND DUP3 ADD DUP1 PUSH1 0x40 MSTORE POP DUP2 ADD SWAP1 PUSH2 0x314B SWAP2 SWAP1 PUSH2 0x3F4A JUMP JUMPDEST PUSH1 0x1 PUSH1 0x1 PUSH1 0xA0 SHL SUB AND EQ PUSH2 0x3171 JUMPI PUSH1 0x40 MLOAD PUSH3 0x461BCD PUSH1 0xE5 SHL DUP2 MSTORE PUSH1 0x4 ADD PUSH2 0x6E2 SWAP1 PUSH2 0x426E JUMP JUMPDEST PUSH1 0x16 SLOAD PUSH1 0x40 MLOAD PUSH4 0xD662AF5 PUSH1 0xE1 SHL DUP2 MSTORE PUSH1 0xFF DUP1 DUP11 AND PUSH1 0x4 DUP4 ADD MSTORE DUP9 AND PUSH1 0x24 DUP3 ADD MSTORE PUSH1 0x1 PUSH1 0x1 PUSH1 0xA0 SHL SUB SWAP1 SWAP2 AND SWAP1 PUSH4 0x1ACC55EA SWAP1 PUSH1 0x44 ADD PUSH1 0x20 PUSH1 0x40 MLOAD DUP1 DUP4 SUB DUP2 DUP7 GAS STATICCALL ISZERO DUP1 ISZERO PUSH2 0x31C4 JUMPI RETURNDATASIZE PUSH1 0x0 DUP1 RETURNDATACOPY RETURNDATASIZE PUSH1 0x0 REVERT JUMPDEST POP POP POP POP PUSH1 0x40 MLOAD RETURNDATASIZE PUSH1 0x1F NOT PUSH1 0x1F DUP3 ADD AND DUP3 ADD DUP1 PUSH1 0x40 MSTORE POP DUP2 ADD SWAP1 PUSH2 0x31E8 SWAP2 SWAP1 PUSH2 0x3F8B JUMP JUMPDEST PUSH2 0x3204 JUMPI PUSH1 0x40 MLOAD PUSH3 0x461BCD PUSH1 0xE5 SHL DUP2 MSTORE PUSH1 0x4 ADD PUSH2 0x6E2 SWAP1 PUSH2 0x4478 JUMP JUMPDEST PUSH1 0xFF DUP9 DUP2 AND PUSH1 0x0 SWAP1 DUP2 MSTORE PUSH1 0x1A PUSH1 0x20 MSTORE PUSH1 0x40 SWAP1 KECCAK256 PUSH1 0x1 ADD SLOAD DUP2 AND SWAP1 DUP7 AND EQ DUP1 ISZERO PUSH2 0x324B JUMPI POP PUSH1 0xFF DUP9 DUP2 AND PUSH1 0x0 SWAP1 DUP2 MSTORE PUSH1 0x1A PUSH1 0x20 MSTORE PUSH1 0x40 SWAP1 KECCAK256 PUSH1 0x1 ADD SLOAD PUSH2 0x100 SWAP1 DIV DUP2 AND SWAP1 DUP6 AND EQ JUMPDEST ISZERO PUSH2 0x3298 JUMPI PUSH1 0x40 MLOAD PUSH3 0x461BCD PUSH1 0xE5 SHL DUP2 MSTORE PUSH1 0x20 PUSH1 0x4 DUP3 ADD MSTORE PUSH1 0x19 PUSH1 0x24 DUP3 ADD MSTORE PUSH32 0x43616E6E6F742072656D6F7665206C65616465722074696C6500000000000000 PUSH1 0x44 DUP3 ADD MSTORE PUSH1 0x64 ADD PUSH2 0x6E2 JUMP JUMPDEST PUSH1 0xFF DUP5 DUP2 AND PUSH1 0x8 DUP8 SWAP1 SHL PUSH2 0xFF00 AND OR PUSH1 0x0 DUP2 DUP2 MSTORE PUSH1 0x1B PUSH1 0x20 MSTORE PUSH1 0x40 SWAP1 KECCAK256 SLOAD SWAP1 SWAP2 PUSH2 0x100 SWAP1 SWAP2 DIV AND DUP1 ISZERO PUSH2 0x32E3 JUMPI POP PUSH2 0xFFFF DUP2 AND PUSH1 0x0 SWAP1 DUP2 MSTORE PUSH1 0x1B PUSH1 0x20 MSTORE PUSH1 0x40 SWAP1 KECCAK256 SLOAD PUSH1 0xFF DUP11 DUP2 AND SWAP2 AND EQ JUMPDEST PUSH2 0x3327 JUMPI PUSH1 0x40 MLOAD PUSH3 0x461BCD PUSH1 0xE5 SHL DUP2 MSTORE PUSH1 0x20 PUSH1 0x4 DUP3 ADD MSTORE PUSH1 0x15 PUSH1 0x24 DUP3 ADD MSTORE PUSH21 0x2A34B632903737BA1034B7103A3434B99031B630B7 PUSH1 0x59 SHL PUSH1 0x44 DUP3 ADD MSTORE PUSH1 0x64 ADD PUSH2 0x6E2 JUMP JUMPDEST PUSH1 0x15 SLOAD PUSH1 0x40 MLOAD PUSH4 0x23B872DD PUSH1 0xE0 SHL DUP2 MSTORE PUSH1 0x1 PUSH1 0x1 PUSH1 0xA0 SHL SUB SWAP1 SWAP2 AND SWAP1 PUSH4 0x23B872DD SWAP1 PUSH2 0x335F SWAP1 CALLER SWAP1 ADDRESS SWAP1 PUSH4 0x3B9ACA00 SWAP1 PUSH1 0x4 ADD PUSH2 0x3F67 JUMP JUMPDEST PUSH1 0x20 PUSH1 0x40 MLOAD DUP1 DUP4 SUB DUP2 PUSH1 0x0 DUP8 GAS CALL ISZERO DUP1 ISZERO PUSH2 0x337E JUMPI RETURNDATASIZE PUSH1 0x0 DUP1 RETURNDATACOPY RETURNDATASIZE PUSH1 0x0 REVERT JUMPDEST POP POP POP POP PUSH1 0x40 MLOAD RETURNDATASIZE PUSH1 0x1F NOT PUSH1 0x1F DUP3 ADD AND DUP3 ADD DUP1 PUSH1 0x40 MSTORE POP DUP2 ADD SWAP1 PUSH2 0x33A2 SWAP2 SWAP1 PUSH2 0x3F8B JUMP JUMPDEST PUSH2 0x33BE JUMPI PUSH1 0x40 MLOAD PUSH3 0x461BCD PUSH1 0xE5 SHL DUP2 MSTORE PUSH1 0x4 ADD PUSH2 0x6E2 SWAP1 PUSH2 0x416E JUMP JUMPDEST PUSH2 0xFFFF DUP2 AND PUSH1 0x0 SWAP1 DUP2 MSTORE PUSH1 0x1B PUSH1 0x20 SWAP1 DUP2 MSTORE PUSH1 0x40 DUP1 DUP4 KECCAK256 DUP1 SLOAD PUSH2 0xFF00 NOT AND SWAP1 SSTORE PUSH1 0xFF DUP10 DUP2 AND DUP5 MSTORE DUP3 DUP1 MSTORE DUP2 DUP5 KECCAK256 DUP10 DUP3 AND DUP6 MSTORE DUP4 MSTORE DUP2 DUP5 KECCAK256 DUP1 SLOAD PUSH1 0xFF NOT AND SWAP1 SSTORE DUP13 DUP2 AND DUP5 MSTORE PUSH1 0x1A SWAP1 SWAP3 MSTORE SWAP1 SWAP2 KECCAK256 PUSH1 0x1 ADD DUP1 SLOAD PUSH3 0x10000 SWAP1 DIV SWAP1 SWAP2 AND SWAP1 PUSH1 0x2 PUSH2 0x3423 DUP4 PUSH2 0x41B1 JUMP JUMPDEST DUP3 SLOAD PUSH2 0x100 SWAP3 SWAP1 SWAP3 EXP PUSH1 0xFF DUP2 DUP2 MUL NOT SWAP1 SWAP4 AND SWAP2 DUP4 AND MUL OR SWAP1 SWAP2 SSTORE DUP11 AND PUSH1 0x0 SWAP1 DUP2 MSTORE PUSH1 0x1C PUSH1 0x20 MSTORE PUSH1 0x40 DUP2 KECCAK256 SWAP2 POP JUMPDEST DUP2 SLOAD DUP2 LT ISZERO PUSH2 0x356F JUMPI DUP3 PUSH2 0xFFFF AND DUP3 DUP3 DUP2 SLOAD DUP2 LT PUSH2 0x3470 JUMPI PUSH2 0x3470 PUSH2 0x41CE JUMP JUMPDEST PUSH1 0x0 SWAP2 DUP3 MSTORE PUSH1 0x20 SWAP1 SWAP2 KECCAK256 PUSH1 0x10 DUP3 DIV ADD SLOAD PUSH1 0xF SWAP1 SWAP2 AND PUSH1 0x2 MUL PUSH2 0x100 EXP SWAP1 DIV PUSH2 0xFFFF AND SUB PUSH2 0x355D JUMPI DUP2 SLOAD DUP3 SWAP1 PUSH2 0x34A7 SWAP1 PUSH1 0x1 SWAP1 PUSH2 0x41E4 JUMP JUMPDEST DUP2 SLOAD DUP2 LT PUSH2 0x34B7 JUMPI PUSH2 0x34B7 PUSH2 0x41CE JUMP JUMPDEST SWAP1 PUSH1 0x0 MSTORE PUSH1 0x20 PUSH1 0x0 KECCAK256 SWAP1 PUSH1 0x10 SWAP2 DUP3 DUP3 DIV ADD SWAP2 SWAP1 MOD PUSH1 0x2 MUL SWAP1 SLOAD SWAP1 PUSH2 0x100 EXP SWAP1 DIV PUSH2 0xFFFF AND DUP3 DUP3 DUP2 SLOAD DUP2 LT PUSH2 0x34ED JUMPI PUSH2 0x34ED PUSH2 0x41CE JUMP JUMPDEST SWAP1 PUSH1 0x0 MSTORE PUSH1 0x20 PUSH1 0x0 KECCAK256 SWAP1 PUSH1 0x10 SWAP2 DUP3 DUP3 DIV ADD SWAP2 SWAP1 MOD PUSH1 0x2 MUL PUSH2 0x100 EXP DUP2 SLOAD DUP2 PUSH2 0xFFFF MUL NOT AND SWAP1 DUP4 PUSH2 0xFFFF AND MUL OR SWAP1 SSTORE POP DUP2 DUP1 SLOAD DUP1 PUSH2 0x352C JUMPI PUSH2 0x352C PUSH2 0x41F7 JUMP JUMPDEST PUSH1 0x0 DUP3 DUP2 MSTORE PUSH1 0x20 SWAP1 KECCAK256 PUSH1 0x10 PUSH1 0x0 NOT SWAP1 SWAP3 ADD SWAP2 DUP3 DIV ADD DUP1 SLOAD PUSH2 0xFFFF PUSH1 0x2 PUSH1 0xF DUP6 AND MUL PUSH2 0x100 EXP MUL NOT AND SWAP1 SSTORE SWAP1 SSTORE PUSH2 0x356F JUMP JUMPDEST DUP1 PUSH2 0x3567 DUP2 PUSH2 0x420D JUMP JUMPDEST SWAP2 POP POP PUSH2 0x3450 JUMP JUMPDEST POP PUSH1 0x14 SLOAD PUSH1 0x40 MLOAD PUSH4 0x8A888953 PUSH1 0xE0 SHL DUP2 MSTORE PUSH1 0xFF DUP1 DUP11 AND PUSH1 0x4 DUP4 ADD MSTORE DUP9 AND PUSH1 0x24 DUP3 ADD MSTORE PUSH1 0x0 SWAP2 PUSH1 0x1 PUSH1 0x1 PUSH1 0xA0 SHL SUB AND SWAP1 PUSH4 0x8A888953 SWAP1 PUSH1 0x44 ADD PUSH1 0x20 PUSH1 0x40 MLOAD DUP1 DUP4 SUB DUP2 DUP7 GAS STATICCALL ISZERO DUP1 ISZERO PUSH2 0x35C4 JUMPI RETURNDATASIZE PUSH1 0x0 DUP1 RETURNDATACOPY RETURNDATASIZE PUSH1 0x0 REVERT JUMPDEST POP POP POP POP PUSH1 0x40 MLOAD RETURNDATASIZE PUSH1 0x1F NOT PUSH1 0x1F DUP3 ADD AND DUP3 ADD DUP1 PUSH1 0x40 MSTORE POP DUP2 ADD SWAP1 PUSH2 0x35E8 SWAP2 SWAP1 PUSH2 0x3F4A JUMP JUMPDEST PUSH1 0x15 SLOAD PUSH1 0x40 MLOAD PUSH4 0xA9059CBB PUSH1 0xE0 SHL DUP2 MSTORE PUSH1 0x1 PUSH1 0x1 PUSH1 0xA0 SHL SUB DUP1 DUP5 AND PUSH1 0x4 DUP4 ADD MSTORE PUSH4 0x35A4E900 PUSH1 0x24 DUP4 ADD MSTORE SWAP3 SWAP4 POP SWAP2 AND SWAP1 PUSH4 0xA9059CBB SWAP1 PUSH1 0x44 ADD PUSH1 0x20 PUSH1 0x40 MLOAD DUP1 DUP4 SUB DUP2 PUSH1 0x0 DUP8 GAS CALL ISZERO DUP1 ISZERO PUSH2 0x3640 JUMPI RETURNDATASIZE PUSH1 0x0 DUP1 RETURNDATACOPY RETURNDATASIZE PUSH1 0x0 REVERT JUMPDEST POP POP POP POP PUSH1 0x40 MLOAD RETURNDATASIZE PUSH1 0x1F NOT PUSH1 0x1F DUP3 ADD AND DUP3 ADD DUP1 PUSH1 0x40 MSTORE POP DUP2 ADD SWAP1 PUSH2 0x3664 SWAP2 SWAP1 PUSH2 0x3F8B JUMP JUMPDEST PUSH2 0x36A9 JUMPI PUSH1 0x40 MLOAD PUSH3 0x461BCD PUSH1 0xE5 SHL DUP2 MSTORE PUSH1 0x20 PUSH1 0x4 DUP3 ADD MSTORE PUSH1 0x16 PUSH1 0x24 DUP3 ADD MSTORE PUSH22 0x14185E5BDD5D081D1C985B9CD9995C8819985A5B1959 PUSH1 0x52 SHL PUSH1 0x44 DUP3 ADD MSTORE PUSH1 0x64 ADD PUSH2 0x6E2 JUMP JUMPDEST PUSH1 0x15 SLOAD PUSH1 0x40 MLOAD PUSH4 0x852CD8D PUSH1 0xE3 SHL DUP2 MSTORE PUSH4 0x5F5E100 PUSH1 0x4 DUP3 ADD MSTORE PUSH1 0x1 PUSH1 0x1 PUSH1 0xA0 SHL SUB SWAP1 SWAP2 AND SWAP1 PUSH4 0x42966C68 SWAP1 PUSH1 0x24 ADD PUSH1 0x20 PUSH1 0x40 MLOAD DUP1 DUP4 SUB DUP2 PUSH1 0x0 DUP8 GAS CALL ISZERO DUP1 ISZERO PUSH2 0x36F7 JUMPI RETURNDATASIZE PUSH1 0x0 DUP1 RETURNDATACOPY RETURNDATASIZE PUSH1 0x0 REVERT JUMPDEST POP POP POP POP PUSH1 0x40 MLOAD RETURNDATASIZE PUSH1 0x1F NOT PUSH1 0x1F DUP3 ADD AND DUP3 ADD DUP1 PUSH1 0x40 MSTORE POP DUP2 ADD SWAP1 PUSH2 0x371B SWAP2 SWAP1 PUSH2 0x3F8B JUMP JUMPDEST PUSH2 0x3755 JUMPI PUSH1 0x40 MLOAD PUSH3 0x461BCD PUSH1 0xE5 SHL DUP2 MSTORE PUSH1 0x20 PUSH1 0x4 DUP3 ADD MSTORE PUSH1 0xB PUSH1 0x24 DUP3 ADD MSTORE PUSH11 0x109D5C9B8819985A5B1959 PUSH1 0xAA SHL PUSH1 0x44 DUP3 ADD MSTORE PUSH1 0x64 ADD PUSH2 0x6E2 JUMP JUMPDEST POP POP POP POP POP POP POP POP POP POP POP JUMP JUMPDEST PUSH1 0x0 PUSH2 0x3775 PUSH2 0x3770 DUP4 PUSH2 0x37A2 JUMP JUMPDEST PUSH2 0x3953 JUMP JUMPDEST PUSH1 0x40 MLOAD PUSH1 0x20 ADD PUSH2 0x3785 SWAP2 SWAP1 PUSH2 0x456E JUMP JUMPDEST PUSH1 0x40 MLOAD PUSH1 0x20 DUP2 DUP4 SUB SUB DUP2 MSTORE SWAP1 PUSH1 0x40 MSTORE DUP1 MLOAD SWAP1 PUSH1 0x20 ADD KECCAK256 SWAP1 POP SWAP2 SWAP1 POP JUMP JUMPDEST DUP1 MLOAD PUSH1 0x60 SWAP1 DUP3 SWAP1 PUSH1 0x0 SUB PUSH2 0x37B7 JUMPI POP SWAP1 SWAP2 SWAP1 POP JUMP JUMPDEST PUSH1 0x0 JUMPDEST DUP2 MLOAD DUP2 LT DUP1 ISZERO PUSH2 0x37EE JUMPI POP DUP2 DUP2 DUP2 MLOAD DUP2 LT PUSH2 0x37D7 JUMPI PUSH2 0x37D7 PUSH2 0x41CE JUMP JUMPDEST PUSH1 0x20 SWAP2 ADD ADD MLOAD PUSH1 0x1 PUSH1 0x1 PUSH1 0xF8 SHL SUB NOT AND PUSH1 0x1 PUSH1 0xFD SHL EQ JUMPDEST ISZERO PUSH2 0x3805 JUMPI DUP1 PUSH2 0x37FD DUP2 PUSH2 0x420D JUMP JUMPDEST SWAP2 POP POP PUSH2 0x37BA JUMP JUMPDEST DUP2 MLOAD DUP2 SUB PUSH2 0x3824 JUMPI POP POP PUSH1 0x40 DUP1 MLOAD PUSH1 0x20 DUP2 ADD SWAP1 SWAP2 MSTORE PUSH1 0x0 DUP2 MSTORE SWAP3 SWAP2 POP POP JUMP JUMPDEST PUSH1 0x0 PUSH1 0x1 DUP4 MLOAD PUSH2 0x3834 SWAP2 SWAP1 PUSH2 0x41E4 JUMP JUMPDEST SWAP1 POP JUMPDEST DUP2 DUP2 GT DUP1 ISZERO PUSH2 0x386A JUMPI POP DUP3 DUP2 DUP2 MLOAD DUP2 LT PUSH2 0x3853 JUMPI PUSH2 0x3853 PUSH2 0x41CE JUMP JUMPDEST PUSH1 0x20 SWAP2 ADD ADD MLOAD PUSH1 0x1 PUSH1 0x1 PUSH1 0xF8 SHL SUB NOT AND PUSH1 0x1 PUSH1 0xFD SHL EQ JUMPDEST ISZERO PUSH2 0x3881 JUMPI DUP1 PUSH2 0x3879 DUP2 PUSH2 0x458A JUMP JUMPDEST SWAP2 POP POP PUSH2 0x3837 JUMP JUMPDEST PUSH1 0x0 PUSH2 0x388D DUP4 DUP4 PUSH2 0x41E4 JUMP JUMPDEST PUSH2 0x3898 SWAP1 PUSH1 0x1 PUSH2 0x45A1 JUMP JUMPDEST PUSH1 0x1 PUSH1 0x1 PUSH1 0x40 SHL SUB DUP2 GT ISZERO PUSH2 0x38AF JUMPI PUSH2 0x38AF PUSH2 0x3FAD JUMP JUMPDEST PUSH1 0x40 MLOAD SWAP1 DUP1 DUP3 MSTORE DUP1 PUSH1 0x1F ADD PUSH1 0x1F NOT AND PUSH1 0x20 ADD DUP3 ADD PUSH1 0x40 MSTORE DUP1 ISZERO PUSH2 0x38D9 JUMPI PUSH1 0x20 DUP3 ADD DUP2 DUP1 CALLDATASIZE DUP4 CALLDATACOPY ADD SWAP1 POP JUMPDEST POP SWAP1 POP PUSH1 0x0 JUMPDEST DUP2 MLOAD DUP2 LT ISZERO PUSH2 0x3949 JUMPI DUP5 PUSH2 0x38F3 DUP3 DUP7 PUSH2 0x45A1 JUMP JUMPDEST DUP2 MLOAD DUP2 LT PUSH2 0x3903 JUMPI PUSH2 0x3903 PUSH2 0x41CE JUMP JUMPDEST PUSH1 0x20 ADD ADD MLOAD PUSH1 0xF8 SHR PUSH1 0xF8 SHL DUP3 DUP3 DUP2 MLOAD DUP2 LT PUSH2 0x3920 JUMPI PUSH2 0x3920 PUSH2 0x41CE JUMP JUMPDEST PUSH1 0x20 ADD ADD SWAP1 PUSH1 0x1 PUSH1 0x1 PUSH1 0xF8 SHL SUB NOT AND SWAP1 DUP2 PUSH1 0x0 BYTE SWAP1 MSTORE8 POP DUP1 PUSH2 0x3941 DUP2 PUSH2 0x420D JUMP JUMPDEST SWAP2 POP POP PUSH2 0x38DF JUMP JUMPDEST POP SWAP6 SWAP5 POP POP POP POP POP JUMP JUMPDEST PUSH1 0x60 DUP2 PUSH1 0x0 JUMPDEST DUP2 MLOAD DUP2 LT ISZERO PUSH2 0x39E5 JUMPI PUSH1 0x0 DUP3 DUP3 DUP2 MLOAD DUP2 LT PUSH2 0x3976 JUMPI PUSH2 0x3976 PUSH2 0x41CE JUMP JUMPDEST ADD PUSH1 0x20 ADD MLOAD PUSH1 0xF8 SHR SWAP1 POP PUSH1 0x41 DUP2 LT DUP1 ISZERO SWAP1 PUSH2 0x3995 JUMPI POP PUSH1 0x5A DUP2 PUSH1 0xFF AND GT ISZERO JUMPDEST ISZERO PUSH2 0x39D2 JUMPI PUSH2 0x39A5 DUP2 PUSH1 0x20 PUSH2 0x45B4 JUMP JUMPDEST PUSH1 0xF8 SHL DUP4 DUP4 DUP2 MLOAD DUP2 LT PUSH2 0x39BA JUMPI PUSH2 0x39BA PUSH2 0x41CE JUMP JUMPDEST PUSH1 0x20 ADD ADD SWAP1 PUSH1 0x1 PUSH1 0x1 PUSH1 0xF8 SHL SUB NOT AND SWAP1 DUP2 PUSH1 0x0 BYTE SWAP1 MSTORE8 POP JUMPDEST POP DUP1 PUSH2 0x39DD DUP2 PUSH2 0x420D JUMP JUMPDEST SWAP2 POP POP PUSH2 0x3959 JUMP JUMPDEST POP SWAP3 SWAP2 POP POP JUMP JUMPDEST POP DUP1 SLOAD PUSH1 0x0 DUP3 SSTORE PUSH1 0xF ADD PUSH1 0x10 SWAP1 DIV SWAP1 PUSH1 0x0 MSTORE PUSH1 0x20 PUSH1 0x0 KECCAK256 SWAP1 DUP2 ADD SWAP1 PUSH2 0x3A11 SWAP2 SWAP1 PUSH2 0x3A4A JUMP JUMPDEST POP JUMP JUMPDEST POP DUP1 SLOAD PUSH2 0x3A20 SWAP1 PUSH2 0x3FC3 JUMP JUMPDEST PUSH1 0x0 DUP3 SSTORE DUP1 PUSH1 0x1F LT PUSH2 0x3A30 JUMPI POP POP JUMP JUMPDEST PUSH1 0x1F ADD PUSH1 0x20 SWAP1 DIV SWAP1 PUSH1 0x0 MSTORE PUSH1 0x20 PUSH1 0x0 KECCAK256 SWAP1 DUP2 ADD SWAP1 PUSH2 0x3A11 SWAP2 SWAP1 JUMPDEST JUMPDEST DUP1 DUP3 GT ISZERO PUSH2 0x3A5F JUMPI PUSH1 0x0 DUP2 SSTORE PUSH1 0x1 ADD PUSH2 0x3A4B JUMP JUMPDEST POP SWAP1 JUMP JUMPDEST DUP1 CALLDATALOAD PUSH1 0xFF DUP2 AND DUP2 EQ PUSH2 0x3A74 JUMPI PUSH1 0x0 DUP1 REVERT JUMPDEST SWAP2 SWAP1 POP JUMP JUMPDEST PUSH1 0x0 DUP1 DUP4 PUSH1 0x1F DUP5 ADD SLT PUSH2 0x3A8B JUMPI PUSH1 0x0 DUP1 REVERT JUMPDEST POP DUP2 CALLDATALOAD PUSH1 0x1 PUSH1 0x1 PUSH1 0x40 SHL SUB DUP2 GT ISZERO PUSH2 0x3AA2 JUMPI PUSH1 0x0 DUP1 REVERT JUMPDEST PUSH1 0x20 DUP4 ADD SWAP2 POP DUP4 PUSH1 0x20 DUP3 DUP6 ADD ADD GT ISZERO PUSH2 0x3ABA JUMPI PUSH1 0x0 DUP1 REVERT JUMPDEST SWAP3 POP SWAP3 SWAP1 POP JUMP JUMPDEST PUSH1 0x0 DUP1 PUSH1 0x0 DUP1 PUSH1 0x60 DUP6 DUP8 SUB SLT ISZERO PUSH2 0x3AD7 JUMPI PUSH1 0x0 DUP1 REVERT JUMPDEST PUSH2 0x3AE0 DUP6 PUSH2 0x3A63 JUMP JUMPDEST SWAP4 POP PUSH2 0x3AEE PUSH1 0x20 DUP7 ADD PUSH2 0x3A63 JUMP JUMPDEST SWAP3 POP PUSH1 0x40 DUP6 ADD CALLDATALOAD PUSH1 0x1 PUSH1 0x1 PUSH1 0x40 SHL SUB DUP2 GT ISZERO PUSH2 0x3B09 JUMPI PUSH1 0x0 DUP1 REVERT JUMPDEST PUSH2 0x3B15 DUP8 DUP3 DUP9 ADD PUSH2 0x3A79 JUMP JUMPDEST SWAP6 SWAP9 SWAP5 SWAP8 POP SWAP6 POP POP POP POP JUMP JUMPDEST PUSH1 0x0 DUP1 PUSH1 0x40 DUP4 DUP6 SUB SLT ISZERO PUSH2 0x3B34 JUMPI PUSH1 0x0 DUP1 REVERT JUMPDEST PUSH2 0x3B3D DUP4 PUSH2 0x3A63 JUMP JUMPDEST SWAP2 POP PUSH2 0x3B4B PUSH1 0x20 DUP5 ADD PUSH2 0x3A63 JUMP JUMPDEST SWAP1 POP SWAP3 POP SWAP3 SWAP1 POP JUMP JUMPDEST PUSH1 0x0 JUMPDEST DUP4 DUP2 LT ISZERO PUSH2 0x3B6F JUMPI DUP2 DUP2 ADD MLOAD DUP4 DUP3 ADD MSTORE PUSH1 0x20 ADD PUSH2 0x3B57 JUMP JUMPDEST POP POP PUSH1 0x0 SWAP2 ADD MSTORE JUMP JUMPDEST PUSH1 0x0 DUP2 MLOAD DUP1 DUP5 MSTORE PUSH2 0x3B90 DUP2 PUSH1 0x20 DUP7 ADD PUSH1 0x20 DUP7 ADD PUSH2 0x3B54 JUMP JUMPDEST PUSH1 0x1F ADD PUSH1 0x1F NOT AND SWAP3 SWAP1 SWAP3 ADD PUSH1 0x20 ADD SWAP3 SWAP2 POP POP JUMP JUMPDEST PUSH1 0x20 DUP2 MSTORE PUSH1 0x0 PUSH2 0x3BB7 PUSH1 0x20 DUP4 ADD DUP5 PUSH2 0x3B78 JUMP JUMPDEST SWAP4 SWAP3 POP POP POP JUMP JUMPDEST PUSH1 0x1 PUSH1 0x1 PUSH1 0xA0 SHL SUB DUP2 AND DUP2 EQ PUSH2 0x3A11 JUMPI PUSH1 0x0 DUP1 REVERT JUMPDEST PUSH1 0x0 PUSH1 0x20 DUP3 DUP5 SUB SLT ISZERO PUSH2 0x3BE5 JUMPI PUSH1 0x0 DUP1 REVERT JUMPDEST DUP2 CALLDATALOAD PUSH2 0x3BB7 DUP2 PUSH2 0x3BBE JUMP JUMPDEST PUSH1 0x0 PUSH1 0x20 DUP3 DUP5 SUB SLT ISZERO PUSH2 0x3C02 JUMPI PUSH1 0x0 DUP1 REVERT JUMPDEST PUSH2 0x3BB7 DUP3 PUSH2 0x3A63 JUMP JUMPDEST PUSH1 0x20 DUP1 DUP3 MSTORE DUP3 MLOAD DUP3 DUP3 ADD DUP2 SWAP1 MSTORE PUSH1 0x0 SWAP2 SWAP1 PUSH1 0x40 SWAP1 DUP2 DUP6 ADD SWAP1 DUP7 DUP5 ADD DUP6 JUMPDEST DUP3 DUP2 LT ISZERO PUSH2 0x3C6A JUMPI DUP2 MLOAD DUP1 MLOAD PUSH1 0xFF SWAP1 DUP2 AND DUP7 MSTORE DUP8 DUP3 ADD MLOAD DUP2 AND DUP9 DUP8 ADD MSTORE DUP7 DUP3 ADD MLOAD AND DUP7 DUP7 ADD MSTORE PUSH1 0x60 SWAP1 DUP2 ADD MLOAD SWAP1 DUP6 ADD MSTORE PUSH1 0x80 SWAP1 SWAP4 ADD SWAP3 SWAP1 DUP6 ADD SWAP1 PUSH1 0x1 ADD PUSH2 0x3C28 JUMP JUMPDEST POP SWAP2 SWAP8 SWAP7 POP POP POP POP POP POP POP JUMP JUMPDEST PUSH1 0x0 DUP1 PUSH1 0x20 DUP4 DUP6 SUB SLT ISZERO PUSH2 0x3C8A JUMPI PUSH1 0x0 DUP1 REVERT JUMPDEST DUP3 CALLDATALOAD PUSH1 0x1 PUSH1 0x1 PUSH1 0x40 SHL SUB DUP2 GT ISZERO PUSH2 0x3CA0 JUMPI PUSH1 0x0 DUP1 REVERT JUMPDEST PUSH2 0x3CAC DUP6 DUP3 DUP7 ADD PUSH2 0x3A79 JUMP JUMPDEST SWAP1 SWAP7 SWAP1 SWAP6 POP SWAP4 POP POP POP POP JUMP JUMPDEST PUSH1 0x0 DUP2 MLOAD PUSH1 0xA0 DUP5 MSTORE PUSH2 0x3CCD PUSH1 0xA0 DUP6 ADD DUP3 PUSH2 0x3B78 JUMP JUMPDEST SWAP1 POP PUSH1 0xFF PUSH1 0x20 DUP5 ADD MLOAD AND PUSH1 0x20 DUP6 ADD MSTORE PUSH1 0xFF PUSH1 0x40 DUP5 ADD MLOAD AND PUSH1 0x40 DUP6 ADD MSTORE PUSH1 0xFF PUSH1 0x60 DUP5 ADD MLOAD AND PUSH1 0x60 DUP6 ADD MSTORE PUSH1 0x80 DUP4 ADD MLOAD ISZERO ISZERO PUSH1 0x80 DUP6 ADD MSTORE DUP1 SWAP2 POP POP SWAP3 SWAP2 POP POP JUMP JUMPDEST PUSH1 0x20 DUP2 MSTORE PUSH1 0x0 PUSH2 0x3BB7 PUSH1 0x20 DUP4 ADD DUP5 PUSH2 0x3CB8 JUMP JUMPDEST PUSH1 0x0 PUSH1 0x20 DUP3 DUP5 SUB SLT ISZERO PUSH2 0x3D31 JUMPI PUSH1 0x0 DUP1 REVERT JUMPDEST POP CALLDATALOAD SWAP2 SWAP1 POP JUMP JUMPDEST PUSH1 0x0 PUSH1 0x20 DUP3 DUP5 SUB SLT ISZERO PUSH2 0x3D4A JUMPI PUSH1 0x0 DUP1 REVERT JUMPDEST DUP2 CALLDATALOAD PUSH2 0xFFFF DUP2 AND DUP2 EQ PUSH2 0x3BB7 JUMPI PUSH1 0x0 DUP1 REVERT JUMPDEST PUSH1 0x0 DUP1 PUSH1 0x0 DUP1 PUSH1 0x80 DUP6 DUP8 SUB SLT ISZERO PUSH2 0x3D72 JUMPI PUSH1 0x0 DUP1 REVERT JUMPDEST PUSH2 0x3D7B DUP6 PUSH2 0x3A63 JUMP JUMPDEST SWAP4 POP PUSH2 0x3D89 PUSH1 0x20 DUP7 ADD PUSH2 0x3A63 JUMP JUMPDEST SWAP3 POP PUSH2 0x3D97 PUSH1 0x40 DUP7 ADD PUSH2 0x3A63 JUMP JUMPDEST SWAP4 SWAP7 SWAP3 SWAP6 POP SWAP3 SWAP4 PUSH1 0x60 ADD CALLDATALOAD SWAP3 POP POP JUMP JUMPDEST PUSH1 0x0 DUP1 PUSH1 0x0 PUSH1 0x60 DUP5 DUP7 SUB SLT ISZERO PUSH2 0x3DBC JUMPI PUSH1 0x0 DUP1 REVERT JUMPDEST PUSH2 0x3DC5 DUP5 PUSH2 0x3A63 JUMP JUMPDEST SWAP3 POP PUSH2 0x3DD3 PUSH1 0x20 DUP6 ADD PUSH2 0x3A63 JUMP JUMPDEST SWAP2 POP PUSH2 0x3DE1 PUSH1 0x40 DUP6 ADD PUSH2 0x3A63 JUMP JUMPDEST SWAP1 POP SWAP3 POP SWAP3 POP SWAP3 JUMP JUMPDEST PUSH1 0x0 PUSH1 0x20 DUP1 DUP4 ADD DUP2 DUP5 MSTORE DUP1 DUP6 MLOAD DUP1 DUP4 MSTORE PUSH1 0x40 DUP7 ADD SWAP2 POP PUSH1 0x40 DUP2 PUSH1 0x5 SHL DUP8 ADD ADD SWAP3 POP DUP4 DUP8 ADD PUSH1 0x0 JUMPDEST DUP3 DUP2 LT ISZERO PUSH2 0x3E3F JUMPI PUSH1 0x3F NOT DUP9 DUP7 SUB ADD DUP5 MSTORE PUSH2 0x3E2D DUP6 DUP4 MLOAD PUSH2 0x3CB8 JUMP JUMPDEST SWAP5 POP SWAP3 DUP6 ADD SWAP3 SWAP1 DUP6 ADD SWAP1 PUSH1 0x1 ADD PUSH2 0x3E11 JUMP JUMPDEST POP SWAP3 SWAP8 SWAP7 POP POP POP POP POP POP POP JUMP JUMPDEST PUSH1 0x0 DUP1 PUSH1 0x40 DUP4 DUP6 SUB SLT ISZERO PUSH2 0x3E5F JUMPI PUSH1 0x0 DUP1 REVERT JUMPDEST POP POP DUP1 CALLDATALOAD SWAP3 PUSH1 0x20 SWAP1 SWAP2 ADD CALLDATALOAD SWAP2 POP JUMP JUMPDEST PUSH1 0x0 DUP1 PUSH1 0x0 DUP1 PUSH1 0x0 PUSH1 0xA0 DUP7 DUP9 SUB SLT ISZERO PUSH2 0x3E86 JUMPI PUSH1 0x0 DUP1 REVERT JUMPDEST PUSH2 0x3E8F DUP7 PUSH2 0x3A63 JUMP JUMPDEST SWAP5 POP PUSH2 0x3E9D PUSH1 0x20 DUP8 ADD PUSH2 0x3A63 JUMP JUMPDEST SWAP4 POP PUSH2 0x3EAB PUSH1 0x40 DUP8 ADD PUSH2 0x3A63 JUMP JUMPDEST SWAP3 POP PUSH2 0x3EB9 PUSH1 0x60 DUP8 ADD PUSH2 0x3A63 JUMP JUMPDEST SWAP2 POP PUSH2 0x3EC7 PUSH1 0x80 DUP8 ADD PUSH2 0x3A63 JUMP JUMPDEST SWAP1 POP SWAP3 SWAP6 POP SWAP3 SWAP6 SWAP1 SWAP4 POP JUMP JUMPDEST PUSH1 0x0 DUP1 PUSH1 0x40 DUP4 DUP6 SUB SLT ISZERO PUSH2 0x3EE6 JUMPI PUSH1 0x0 DUP1 REVERT JUMPDEST PUSH2 0x3EEF DUP4 PUSH2 0x3A63 JUMP JUMPDEST SWAP5 PUSH1 0x20 SWAP4 SWAP1 SWAP4 ADD CALLDATALOAD SWAP4 POP POP POP JUMP JUMPDEST PUSH1 0xA0 DUP2 MSTORE PUSH1 0x0 PUSH2 0x3F10 PUSH1 0xA0 DUP4 ADD DUP9 PUSH2 0x3B78 JUMP JUMPDEST SWAP1 POP PUSH1 0xFF DUP7 AND PUSH1 0x20 DUP4 ADD MSTORE PUSH1 0xFF DUP6 AND PUSH1 0x40 DUP4 ADD MSTORE PUSH1 0xFF DUP5 AND PUSH1 0x60 DUP4 ADD MSTORE DUP3 ISZERO ISZERO PUSH1 0x80 DUP4 ADD MSTORE SWAP7 SWAP6 POP POP POP POP POP POP JUMP JUMPDEST DUP1 MLOAD PUSH2 0x3A74 DUP2 PUSH2 0x3BBE JUMP JUMPDEST PUSH1 0x0 PUSH1 0x20 DUP3 DUP5 SUB SLT ISZERO PUSH2 0x3F5C JUMPI PUSH1 0x0 DUP1 REVERT JUMPDEST DUP2 MLOAD PUSH2 0x3BB7 DUP2 PUSH2 0x3BBE JUMP JUMPDEST PUSH1 0x1 PUSH1 0x1 PUSH1 0xA0 SHL SUB SWAP4 DUP5 AND DUP2 MSTORE SWAP2 SWAP1 SWAP3 AND PUSH1 0x20 DUP3 ADD MSTORE PUSH1 0x40 DUP2 ADD SWAP2 SWAP1 SWAP2 MSTORE PUSH1 0x60 ADD SWAP1 JUMP JUMPDEST PUSH1 0x0 PUSH1 0x20 DUP3 DUP5 SUB SLT ISZERO PUSH2 0x3F9D JUMPI PUSH1 0x0 DUP1 REVERT JUMPDEST DUP2 MLOAD DUP1 ISZERO ISZERO DUP2 EQ PUSH2 0x3BB7 JUMPI PUSH1 0x0 DUP1 REVERT JUMPDEST PUSH4 0x4E487B71 PUSH1 0xE0 SHL PUSH1 0x0 MSTORE PUSH1 0x41 PUSH1 0x4 MSTORE PUSH1 0x24 PUSH1 0x0 REVERT JUMPDEST PUSH1 0x1 DUP2 DUP2 SHR SWAP1 DUP3 AND DUP1 PUSH2 0x3FD7 JUMPI PUSH1 0x7F DUP3 AND SWAP2 POP JUMPDEST PUSH1 0x20 DUP3 LT DUP2 SUB PUSH2 0x3FF7 JUMPI PUSH4 0x4E487B71 PUSH1 0xE0 SHL PUSH1 0x0 MSTORE PUSH1 0x22 PUSH1 0x4 MSTORE PUSH1 0x24 PUSH1 0x0 REVERT JUMPDEST POP SWAP2 SWAP1 POP JUMP JUMPDEST PUSH1 0x1F DUP3 GT ISZERO PUSH2 0x1331 JUMPI PUSH1 0x0 DUP2 DUP2 MSTORE PUSH1 0x20 DUP2 KECCAK256 PUSH1 0x1F DUP6 ADD PUSH1 0x5 SHR DUP2 ADD PUSH1 0x20 DUP7 LT ISZERO PUSH2 0x4024 JUMPI POP DUP1 JUMPDEST PUSH1 0x1F DUP6 ADD PUSH1 0x5 SHR DUP3 ADD SWAP2 POP JUMPDEST DUP2 DUP2 LT ISZERO PUSH2 0x4043 JUMPI DUP3 DUP2 SSTORE PUSH1 0x1 ADD PUSH2 0x4030 JUMP JUMPDEST POP POP POP POP POP POP JUMP JUMPDEST PUSH1 0x1 PUSH1 0x1 PUSH1 0x40 SHL SUB DUP4 GT ISZERO PUSH2 0x4062 JUMPI PUSH2 0x4062 PUSH2 0x3FAD JUMP JUMPDEST PUSH2 0x4076 DUP4 PUSH2 0x4070 DUP4 SLOAD PUSH2 0x3FC3 JUMP JUMPDEST DUP4 PUSH2 0x3FFD JUMP JUMPDEST PUSH1 0x0 PUSH1 0x1F DUP5 GT PUSH1 0x1 DUP2 EQ PUSH2 0x40AA JUMPI PUSH1 0x0 DUP6 ISZERO PUSH2 0x4092 JUMPI POP DUP4 DUP3 ADD CALLDATALOAD JUMPDEST PUSH1 0x0 NOT PUSH1 0x3 DUP8 SWAP1 SHL SHR NOT AND PUSH1 0x1 DUP7 SWAP1 SHL OR DUP4 SSTORE PUSH2 0x8AC JUMP JUMPDEST PUSH1 0x0 DUP4 DUP2 MSTORE PUSH1 0x20 SWAP1 KECCAK256 PUSH1 0x1F NOT DUP7 AND SWAP1 DUP4 JUMPDEST DUP3 DUP2 LT ISZERO PUSH2 0x40DB JUMPI DUP7 DUP6 ADD CALLDATALOAD DUP3 SSTORE PUSH1 0x20 SWAP5 DUP6 ADD SWAP5 PUSH1 0x1 SWAP1 SWAP3 ADD SWAP2 ADD PUSH2 0x40BB JUMP JUMPDEST POP DUP7 DUP3 LT ISZERO PUSH2 0x40F8 JUMPI PUSH1 0x0 NOT PUSH1 0xF8 DUP9 PUSH1 0x3 SHL AND SHR NOT DUP5 DUP8 ADD CALLDATALOAD AND DUP2 SSTORE JUMPDEST POP POP PUSH1 0x1 DUP6 PUSH1 0x1 SHL ADD DUP4 SSTORE POP POP POP POP POP JUMP JUMPDEST PUSH1 0x20 DUP1 DUP3 MSTORE PUSH1 0x13 SWAP1 DUP3 ADD MSTORE PUSH19 0x10DB185B88191BD95CC81B9BDD08195E1A5CDD PUSH1 0x6A SHL PUSH1 0x40 DUP3 ADD MSTORE PUSH1 0x60 ADD SWAP1 JUMP JUMPDEST PUSH1 0x20 DUP1 DUP3 MSTORE PUSH1 0x18 SWAP1 DUP3 ADD MSTORE PUSH32 0x596F7520646F206E6F74206F776E20746869732074696C650000000000000000 PUSH1 0x40 DUP3 ADD MSTORE PUSH1 0x60 ADD SWAP1 JUMP JUMPDEST PUSH1 0x20 DUP1 DUP3 MSTORE PUSH1 0x13 SWAP1 DUP3 ADD MSTORE PUSH19 0x1313D4081D1C985B9CD9995C8819985A5B1959 PUSH1 0x6A SHL PUSH1 0x40 DUP3 ADD MSTORE PUSH1 0x60 ADD SWAP1 JUMP JUMPDEST PUSH4 0x4E487B71 PUSH1 0xE0 SHL PUSH1 0x0 MSTORE PUSH1 0x11 PUSH1 0x4 MSTORE PUSH1 0x24 PUSH1 0x0 REVERT JUMPDEST PUSH1 0x0 PUSH1 0xFF DUP3 AND DUP1 PUSH2 0x41C4 JUMPI PUSH2 0x41C4 PUSH2 0x419B JUMP JUMPDEST PUSH1 0x0 NOT ADD SWAP3 SWAP2 POP POP JUMP JUMPDEST PUSH4 0x4E487B71 PUSH1 0xE0 SHL PUSH1 0x0 MSTORE PUSH1 0x32 PUSH1 0x4 MSTORE PUSH1 0x24 PUSH1 0x0 REVERT JUMPDEST DUP2 DUP2 SUB DUP2 DUP2 GT ISZERO PUSH2 0x962 JUMPI PUSH2 0x962 PUSH2 0x419B JUMP JUMPDEST PUSH4 0x4E487B71 PUSH1 0xE0 SHL PUSH1 0x0 MSTORE PUSH1 0x31 PUSH1 0x4 MSTORE PUSH1 0x24 PUSH1 0x0 REVERT JUMPDEST PUSH1 0x0 PUSH1 0x1 DUP3 ADD PUSH2 0x421F JUMPI PUSH2 0x421F PUSH2 0x419B JUMP JUMPDEST POP PUSH1 0x1 ADD SWAP1 JUMP JUMPDEST PUSH1 0x0 PUSH1 0xFF DUP3 AND PUSH1 0xFF DUP2 SUB PUSH2 0x423C JUMPI PUSH2 0x423C PUSH2 0x419B JUMP JUMPDEST PUSH1 0x1 ADD SWAP3 SWAP2 POP POP JUMP JUMPDEST PUSH1 0x20 DUP1 DUP3 MSTORE PUSH1 0xF SWAP1 DUP3 ADD MSTORE PUSH15 0x4E6F74206C65616465722074696C65 PUSH1 0x88 SHL PUSH1 0x40 DUP3 ADD MSTORE PUSH1 0x60 ADD SWAP1 JUMP JUMPDEST PUSH1 0x20 DUP1 DUP3 MSTORE PUSH1 0x1D SWAP1 DUP3 ADD MSTORE PUSH32 0x596F7520646F6E2774206F776E20746865206C65616465722074696C65000000 PUSH1 0x40 DUP3 ADD MSTORE PUSH1 0x60 ADD SWAP1 JUMP JUMPDEST PUSH1 0x0 DUP3 PUSH1 0x1F DUP4 ADD SLT PUSH2 0x42B6 JUMPI PUSH1 0x0 DUP1 REVERT JUMPDEST DUP2 MLOAD PUSH1 0x1 PUSH1 0x1 PUSH1 0x40 SHL SUB DUP1 DUP3 GT ISZERO PUSH2 0x42D0 JUMPI PUSH2 0x42D0 PUSH2 0x3FAD JUMP JUMPDEST PUSH1 0x40 MLOAD PUSH1 0x1F DUP4 ADD PUSH1 0x1F NOT SWAP1 DUP2 AND PUSH1 0x3F ADD AND DUP2 ADD SWAP1 DUP3 DUP3 GT DUP2 DUP4 LT OR ISZERO PUSH2 0x42F8 JUMPI PUSH2 0x42F8 PUSH2 0x3FAD JUMP JUMPDEST DUP2 PUSH1 0x40 MSTORE DUP4 DUP2 MSTORE DUP7 PUSH1 0x20 DUP6 DUP9 ADD ADD GT ISZERO PUSH2 0x4311 JUMPI PUSH1 0x0 DUP1 REVERT JUMPDEST PUSH2 0x4322 DUP5 PUSH1 0x20 DUP4 ADD PUSH1 0x20 DUP10 ADD PUSH2 0x3B54 JUMP JUMPDEST SWAP7 SWAP6 POP POP POP POP POP POP JUMP JUMPDEST PUSH1 0x0 DUP1 PUSH1 0x0 DUP1 PUSH1 0x0 DUP1 PUSH1 0x0 DUP1 PUSH1 0x0 DUP1 PUSH1 0x0 PUSH2 0x160 DUP13 DUP15 SUB SLT ISZERO PUSH2 0x434E JUMPI PUSH1 0x0 DUP1 REVERT JUMPDEST DUP12 MLOAD PUSH1 0x1 PUSH1 0x1 PUSH1 0x40 SHL SUB DUP2 GT ISZERO PUSH2 0x4364 JUMPI PUSH1 0x0 DUP1 REVERT JUMPDEST PUSH2 0x4370 DUP15 DUP3 DUP16 ADD PUSH2 0x42A5 JUMP JUMPDEST SWAP12 POP POP PUSH1 0x20 DUP13 ADD MLOAD PUSH1 0x1 PUSH1 0x1 PUSH1 0x40 SHL SUB DUP2 GT ISZERO PUSH2 0x438C JUMPI PUSH1 0x0 DUP1 REVERT JUMPDEST PUSH2 0x4398 DUP15 DUP3 DUP16 ADD PUSH2 0x42A5 JUMP JUMPDEST SWAP11 POP POP PUSH1 0x40 DUP13 ADD MLOAD PUSH1 0x1 PUSH1 0x1 PUSH1 0x40 SHL SUB DUP2 GT ISZERO PUSH2 0x43B4 JUMPI PUSH1 0x0 DUP1 REVERT JUMPDEST PUSH2 0x43C0 DUP15 DUP3 DUP16 ADD PUSH2 0x42A5 JUMP JUMPDEST SWAP10 POP POP PUSH1 0x60 DUP13 ADD MLOAD PUSH1 0x1 PUSH1 0x1 PUSH1 0x40 SHL SUB DUP2 GT ISZERO PUSH2 0x43DC JUMPI PUSH1 0x0 DUP1 REVERT JUMPDEST PUSH2 0x43E8 DUP15 DUP3 DUP16 ADD PUSH2 0x42A5 JUMP JUMPDEST SWAP9 POP POP PUSH2 0x43F7 PUSH1 0x80 DUP14 ADD PUSH2 0x3F3F JUMP JUMPDEST SWAP7 POP PUSH1 0xA0 DUP13 ADD MLOAD SWAP6 POP PUSH1 0xC0 DUP13 ADD MLOAD SWAP5 POP PUSH1 0xE0 DUP13 ADD MLOAD PUSH1 0x1 PUSH1 0x1 PUSH1 0x40 SHL SUB DUP2 GT ISZERO PUSH2 0x4420 JUMPI PUSH1 0x0 DUP1 REVERT JUMPDEST PUSH2 0x442C DUP15 DUP3 DUP16 ADD PUSH2 0x42A5 JUMP JUMPDEST SWAP5 POP POP PUSH2 0x100 DUP13 ADD MLOAD PUSH1 0x1 PUSH1 0x1 PUSH1 0x40 SHL SUB DUP2 GT ISZERO PUSH2 0x4449 JUMPI PUSH1 0x0 DUP1 REVERT JUMPDEST PUSH2 0x4455 DUP15 DUP3 DUP16 ADD PUSH2 0x42A5 JUMP JUMPDEST SWAP4 POP POP PUSH2 0x120 DUP13 ADD MLOAD SWAP2 POP PUSH2 0x140 DUP13 ADD MLOAD SWAP1 POP SWAP3 SWAP6 SWAP9 SWAP12 POP SWAP3 SWAP6 SWAP9 SWAP12 SWAP1 SWAP4 SWAP7 SWAP10 POP JUMP JUMPDEST PUSH1 0x20 DUP1 DUP3 MSTORE PUSH1 0x19 SWAP1 DUP3 ADD MSTORE PUSH32 0x596F75206D7573742068617665206120436C616E2048616C6C00000000000000 PUSH1 0x40 DUP3 ADD MSTORE PUSH1 0x60 ADD SWAP1 JUMP JUMPDEST DUP2 MLOAD PUSH1 0x1 PUSH1 0x1 PUSH1 0x40 SHL SUB DUP2 GT ISZERO PUSH2 0x44C8 JUMPI PUSH2 0x44C8 PUSH2 0x3FAD JUMP JUMPDEST PUSH2 0x44DC DUP2 PUSH2 0x44D6 DUP5 SLOAD PUSH2 0x3FC3 JUMP JUMPDEST DUP5 PUSH2 0x3FFD JUMP JUMPDEST PUSH1 0x20 DUP1 PUSH1 0x1F DUP4 GT PUSH1 0x1 DUP2 EQ PUSH2 0x4511 JUMPI PUSH1 0x0 DUP5 ISZERO PUSH2 0x44F9 JUMPI POP DUP6 DUP4 ADD MLOAD JUMPDEST PUSH1 0x0 NOT PUSH1 0x3 DUP7 SWAP1 SHL SHR NOT AND PUSH1 0x1 DUP6 SWAP1 SHL OR DUP6 SSTORE PUSH2 0x4043 JUMP JUMPDEST PUSH1 0x0 DUP6 DUP2 MSTORE PUSH1 0x20 DUP2 KECCAK256 PUSH1 0x1F NOT DUP7 AND SWAP2 JUMPDEST DUP3 DUP2 LT ISZERO PUSH2 0x4540 JUMPI DUP9 DUP7 ADD MLOAD DUP3 SSTORE SWAP5 DUP5 ADD SWAP5 PUSH1 0x1 SWAP1 SWAP2 ADD SWAP1 DUP5 ADD PUSH2 0x4521 JUMP JUMPDEST POP DUP6 DUP3 LT ISZERO PUSH2 0x455E JUMPI DUP8 DUP6 ADD MLOAD PUSH1 0x0 NOT PUSH1 0x3 DUP9 SWAP1 SHL PUSH1 0xF8 AND SHR NOT AND DUP2 SSTORE JUMPDEST POP POP POP POP POP PUSH1 0x1 SWAP1 DUP2 SHL ADD SWAP1 SSTORE POP JUMP JUMPDEST PUSH1 0x0 DUP3 MLOAD PUSH2 0x4580 DUP2 DUP5 PUSH1 0x20 DUP8 ADD PUSH2 0x3B54 JUMP JUMPDEST SWAP2 SWAP1 SWAP2 ADD SWAP3 SWAP2 POP POP JUMP JUMPDEST PUSH1 0x0 DUP2 PUSH2 0x4599 JUMPI PUSH2 0x4599 PUSH2 0x419B JUMP JUMPDEST POP PUSH1 0x0 NOT ADD SWAP1 JUMP JUMPDEST DUP1 DUP3 ADD DUP1 DUP3 GT ISZERO PUSH2 0x962 JUMPI PUSH2 0x962 PUSH2 0x419B JUMP JUMPDEST PUSH1 0xFF DUP2 DUP2 AND DUP4 DUP3 AND ADD SWAP1 DUP2 GT ISZERO PUSH2 0x962 JUMPI PUSH2 0x962 PUSH2 0x419B JUMP INVALID LOG2 PUSH5 0x6970667358 0x22 SLT KECCAK256 SWAP4 CALLDATASIZE 0xBA MSTORE LOG1 0x1F DUP15 0xA6 SWAP15 0xB0 0xC7 PUSH14 0x64B8F2BCC4B30E6A552E0F02D03 0x4F 0xE8 SLOAD 0x5C 0xC8 CODECOPY PUSH5 0x736F6C6343 STOP ADDMOD SLT STOP CALLER "
		},
		"gasEstimates": {
			"creation": {
				"codeDepositCost": "3584600",
				"executionCost": "infinite",
				"totalCost": "infinite"
			},
			"external": {
				"CLAN_CREATION_COST()": "329",
				"CLAN_FLAG_COST()": "285",
				"LEAVE_CLAN_BURN()": "239",
				"LEAVE_CLAN_COST()": "241",
				"LEAVE_CLAN_PAYOUT()": "328",
				"MAX_MEMBERS()": "292",
				"REMOVE_MEMBER_BURN()": "261",
				"REMOVE_MEMBER_COST()": "286",
				"REMOVE_MEMBER_PAYOUT()": "329",
				"TILE_NAMING_COST()": "263",
				"acceptInviteForTile(uint8,uint8)": "infinite",
				"bonuses(uint256,uint256)": "4207",
				"clanFlags(uint8)": "2617",
				"clanMemberTiles(uint8,uint256)": "6541",
				"clanNameTaken(bytes32)": "2562",
				"clans(uint8)": "infinite",
				"createClan(uint8,uint8,string)": "infinite",
				"disbandClan(uint8,uint8,uint8)": "infinite",
				"getAllClans()": "infinite",
				"getAllTilesWithClans()": "infinite",
				"getBonus(uint8,uint8)": "infinite",
				"getClanInfo(uint8)": "infinite",
				"getClanLeaderCoords(uint8)": "4885",
				"getClanMemberCount(uint8)": "4919",
				"getClanMemberTiles(uint8)": "infinite",
				"getTileClan(uint8,uint8)": "infinite",
				"getTileName(uint8,uint8)": "infinite",
				"getTwitterHandle(address)": "infinite",
				"inviteTileToClan(uint8,uint8,uint8,uint8,uint8)": "infinite",
				"isClanNameAvailable(string)": "infinite",
				"leaveClanForTile(uint8,uint8)": "infinite",
				"lopToken()": "2450",
				"membersByTile(uint16)": "2668",
				"nameTile(uint8,uint8,string)": "infinite",
				"nftMarket()": "2405",
				"pendingInvitesByTile(uint16)": "2554",
				"refuseInviteForTile(uint8,uint8)": "infinite",
				"removeMemberTile(uint8,uint8,uint8,uint8,uint8)": "infinite",
				"setClanFlag(uint8,uint8,uint8,uint256)": "infinite",
				"setTwitterHandle(string)": "infinite",
				"theLand()": "2382",
				"tileClans(uint8,uint8)": "infinite",
				"tileMapPhaser()": "2448",
				"tileNames(uint8,uint8)": "infinite",
				"twitterHandles(address)": "infinite"
			},
			"internal": {
				"_nameKey(string memory)": "infinite",
				"_tileKey(uint8,uint8)": "infinite",
				"_toLower(string memory)": "infinite",
				"_trim(string memory)": "infinite",
				"_unpackKey(uint16)": "infinite"
			}
		},
		"methodIdentifiers": {
			"CLAN_CREATION_COST()": "731ae689",
			"CLAN_FLAG_COST()": "65191666",
			"LEAVE_CLAN_BURN()": "e4547fb4",
			"LEAVE_CLAN_COST()": "2e4b51bd",
			"LEAVE_CLAN_PAYOUT()": "5387a797",
			"MAX_MEMBERS()": "ea0e35b1",
			"REMOVE_MEMBER_BURN()": "e6192fca",
			"REMOVE_MEMBER_COST()": "0cea9dc5",
			"REMOVE_MEMBER_PAYOUT()": "2c6d422f",
			"TILE_NAMING_COST()": "62c5813d",
			"acceptInviteForTile(uint8,uint8)": "a609775b",
			"bonuses(uint256,uint256)": "bc9955a2",
			"clanFlags(uint8)": "eaa10576",
			"clanMemberTiles(uint8,uint256)": "d1433201",
			"clanNameTaken(bytes32)": "36780527",
			"clans(uint8)": "d4ceeec0",
			"createClan(uint8,uint8,string)": "98a8d0e7",
			"disbandClan(uint8,uint8,uint8)": "6573c241",
			"getAllClans()": "9b21d6eb",
			"getAllTilesWithClans()": "2dec2e63",
			"getBonus(uint8,uint8)": "2a2026a9",
			"getClanInfo(uint8)": "2fad0429",
			"getClanLeaderCoords(uint8)": "154538ab",
			"getClanMemberCount(uint8)": "9d995717",
			"getClanMemberTiles(uint8)": "bfc22a82",
			"getTileClan(uint8,uint8)": "7ab9e7fe",
			"getTileName(uint8,uint8)": "09e59cec",
			"getTwitterHandle(address)": "f15ad264",
			"inviteTileToClan(uint8,uint8,uint8,uint8,uint8)": "c0ad21d8",
			"isClanNameAvailable(string)": "3f9662bb",
			"leaveClanForTile(uint8,uint8)": "1cecb4fb",
			"lopToken()": "0d67f59e",
			"membersByTile(uint16)": "3942613c",
			"nameTile(uint8,uint8,string)": "0821de3e",
			"nftMarket()": "196ab1ab",
			"pendingInvitesByTile(uint16)": "40b76bbd",
			"refuseInviteForTile(uint8,uint8)": "44ad764d",
			"removeMemberTile(uint8,uint8,uint8,uint8,uint8)": "fd7c31a6",
			"setClanFlag(uint8,uint8,uint8,uint256)": "5c0068a2",
			"setTwitterHandle(string)": "2f57741c",
			"theLand()": "b0d77774",
			"tileClans(uint8,uint8)": "58612a20",
			"tileMapPhaser()": "4f264b03",
			"tileNames(uint8,uint8)": "7b0c98ef",
			"twitterHandles(address)": "13a5cede"
		}
	},
	"abi": [
		{
			"inputs": [
				{
					"internalType": "address",
					"name": "_tileMapPhaser",
					"type": "address"
				},
				{
					"internalType": "address",
					"name": "_lopToken",
					"type": "address"
				},
				{
					"internalType": "address",
					"name": "_nftMarket",
					"type": "address"
				},
				{
					"internalType": "address",
					"name": "_theLand",
					"type": "address"
				}
			],
			"stateMutability": "nonpayable",
			"type": "constructor"
		},
		{
			"inputs": [],
			"name": "CLAN_CREATION_COST",
			"outputs": [
				{
					"internalType": "uint256",
					"name": "",
					"type": "uint256"
				}
			],
			"stateMutability": "view",
			"type": "function"
		},
		{
			"inputs": [],
			"name": "CLAN_FLAG_COST",
			"outputs": [
				{
					"internalType": "uint256",
					"name": "",
					"type": "uint256"
				}
			],
			"stateMutability": "view",
			"type": "function"
		},
		{
			"inputs": [],
			"name": "LEAVE_CLAN_BURN",
			"outputs": [
				{
					"internalType": "uint256",
					"name": "",
					"type": "uint256"
				}
			],
			"stateMutability": "view",
			"type": "function"
		},
		{
			"inputs": [],
			"name": "LEAVE_CLAN_COST",
			"outputs": [
				{
					"internalType": "uint256",
					"name": "",
					"type": "uint256"
				}
			],
			"stateMutability": "view",
			"type": "function"
		},
		{
			"inputs": [],
			"name": "LEAVE_CLAN_PAYOUT",
			"outputs": [
				{
					"internalType": "uint256",
					"name": "",
					"type": "uint256"
				}
			],
			"stateMutability": "view",
			"type": "function"
		},
		{
			"inputs": [],
			"name": "MAX_MEMBERS",
			"outputs": [
				{
					"internalType": "uint8",
					"name": "",
					"type": "uint8"
				}
			],
			"stateMutability": "view",
			"type": "function"
		},
		{
			"inputs": [],
			"name": "REMOVE_MEMBER_BURN",
			"outputs": [
				{
					"internalType": "uint256",
					"name": "",
					"type": "uint256"
				}
			],
			"stateMutability": "view",
			"type": "function"
		},
		{
			"inputs": [],
			"name": "REMOVE_MEMBER_COST",
			"outputs": [
				{
					"internalType": "uint256",
					"name": "",
					"type": "uint256"
				}
			],
			"stateMutability": "view",
			"type": "function"
		},
		{
			"inputs": [],
			"name": "REMOVE_MEMBER_PAYOUT",
			"outputs": [
				{
					"internalType": "uint256",
					"name": "",
					"type": "uint256"
				}
			],
			"stateMutability": "view",
			"type": "function"
		},
		{
			"inputs": [],
			"name": "TILE_NAMING_COST",
			"outputs": [
				{
					"internalType": "uint256",
					"name": "",
					"type": "uint256"
				}
			],
			"stateMutability": "view",
			"type": "function"
		},
		{
			"inputs": [
				{
					"internalType": "uint8",
					"name": "x",
					"type": "uint8"
				},
				{
					"internalType": "uint8",
					"name": "y",
					"type": "uint8"
				}
			],
			"name": "acceptInviteForTile",
			"outputs": [],
			"stateMutability": "nonpayable",
			"type": "function"
		},
		{
			"inputs": [
				{
					"internalType": "uint256",
					"name": "",
					"type": "uint256"
				},
				{
					"internalType": "uint256",
					"name": "",
					"type": "uint256"
				}
			],
			"name": "bonuses",
			"outputs": [
				{
					"internalType": "uint8",
					"name": "",
					"type": "uint8"
				}
			],
			"stateMutability": "view",
			"type": "function"
		},
		{
			"inputs": [
				{
					"internalType": "uint8",
					"name": "",
					"type": "uint8"
				}
			],
			"name": "clanFlags",
			"outputs": [
				{
					"internalType": "uint256",
					"name": "",
					"type": "uint256"
				}
			],
			"stateMutability": "view",
			"type": "function"
		},
		{
			"inputs": [
				{
					"internalType": "uint8",
					"name": "",
					"type": "uint8"
				},
				{
					"internalType": "uint256",
					"name": "",
					"type": "uint256"
				}
			],
			"name": "clanMemberTiles",
			"outputs": [
				{
					"internalType": "uint16",
					"name": "",
					"type": "uint16"
				}
			],
			"stateMutability": "view",
			"type": "function"
		},
		{
			"inputs": [
				{
					"internalType": "bytes32",
					"name": "",
					"type": "bytes32"
				}
			],
			"name": "clanNameTaken",
			"outputs": [
				{
					"internalType": "bool",
					"name": "",
					"type": "bool"
				}
			],
			"stateMutability": "view",
			"type": "function"
		},
		{
			"inputs": [
				{
					"internalType": "uint8",
					"name": "",
					"type": "uint8"
				}
			],
			"name": "clans",
			"outputs": [
				{
					"internalType": "string",
					"name": "name",
					"type": "string"
				},
				{
					"internalType": "uint8",
					"name": "leaderX",
					"type": "uint8"
				},
				{
					"internalType": "uint8",
					"name": "leaderY",
					"type": "uint8"
				},
				{
					"internalType": "uint8",
					"name": "memberCount",
					"type": "uint8"
				},
				{
					"internalType": "bool",
					"name": "exists",
					"type": "bool"
				}
			],
			"stateMutability": "view",
			"type": "function"
		},
		{
			"inputs": [
				{
					"internalType": "uint8",
					"name": "x",
					"type": "uint8"
				},
				{
					"internalType": "uint8",
					"name": "y",
					"type": "uint8"
				},
				{
					"internalType": "string",
					"name": "name",
					"type": "string"
				}
			],
			"name": "createClan",
			"outputs": [],
			"stateMutability": "nonpayable",
			"type": "function"
		},
		{
			"inputs": [
				{
					"internalType": "uint8",
					"name": "clanId",
					"type": "uint8"
				},
				{
					"internalType": "uint8",
					"name": "lx",
					"type": "uint8"
				},
				{
					"internalType": "uint8",
					"name": "ly",
					"type": "uint8"
				}
			],
			"name": "disbandClan",
			"outputs": [],
			"stateMutability": "nonpayable",
			"type": "function"
		},
		{
			"inputs": [],
			"name": "getAllClans",
			"outputs": [
				{
					"components": [
						{
							"internalType": "string",
							"name": "name",
							"type": "string"
						},
						{
							"internalType": "uint8",
							"name": "leaderX",
							"type": "uint8"
						},
						{
							"internalType": "uint8",
							"name": "leaderY",
							"type": "uint8"
						},
						{
							"internalType": "uint8",
							"name": "memberCount",
							"type": "uint8"
						},
						{
							"internalType": "bool",
							"name": "exists",
							"type": "bool"
						}
					],
					"internalType": "struct Clan.ClanInfo[]",
					"name": "",
					"type": "tuple[]"
				}
			],
			"stateMutability": "view",
			"type": "function"
		},
		{
			"inputs": [],
			"name": "getAllTilesWithClans",
			"outputs": [
				{
					"components": [
						{
							"internalType": "uint8",
							"name": "x",
							"type": "uint8"
						},
						{
							"internalType": "uint8",
							"name": "y",
							"type": "uint8"
						},
						{
							"internalType": "uint8",
							"name": "clanId",
							"type": "uint8"
						},
						{
							"internalType": "uint256",
							"name": "flagTokenId",
							"type": "uint256"
						}
					],
					"internalType": "struct Clan.TileClanInfo[]",
					"name": "",
					"type": "tuple[]"
				}
			],
			"stateMutability": "view",
			"type": "function"
		},
		{
			"inputs": [
				{
					"internalType": "uint8",
					"name": "x",
					"type": "uint8"
				},
				{
					"internalType": "uint8",
					"name": "y",
					"type": "uint8"
				}
			],
			"name": "getBonus",
			"outputs": [
				{
					"internalType": "uint8",
					"name": "",
					"type": "uint8"
				}
			],
			"stateMutability": "view",
			"type": "function"
		},
		{
			"inputs": [
				{
					"internalType": "uint8",
					"name": "clanId",
					"type": "uint8"
				}
			],
			"name": "getClanInfo",
			"outputs": [
				{
					"components": [
						{
							"internalType": "string",
							"name": "name",
							"type": "string"
						},
						{
							"internalType": "uint8",
							"name": "leaderX",
							"type": "uint8"
						},
						{
							"internalType": "uint8",
							"name": "leaderY",
							"type": "uint8"
						},
						{
							"internalType": "uint8",
							"name": "memberCount",
							"type": "uint8"
						},
						{
							"internalType": "bool",
							"name": "exists",
							"type": "bool"
						}
					],
					"internalType": "struct Clan.ClanInfo",
					"name": "",
					"type": "tuple"
				}
			],
			"stateMutability": "view",
			"type": "function"
		},
		{
			"inputs": [
				{
					"internalType": "uint8",
					"name": "clanId",
					"type": "uint8"
				}
			],
			"name": "getClanLeaderCoords",
			"outputs": [
				{
					"internalType": "uint8",
					"name": "",
					"type": "uint8"
				},
				{
					"internalType": "uint8",
					"name": "",
					"type": "uint8"
				}
			],
			"stateMutability": "view",
			"type": "function"
		},
		{
			"inputs": [
				{
					"internalType": "uint8",
					"name": "clanId",
					"type": "uint8"
				}
			],
			"name": "getClanMemberCount",
			"outputs": [
				{
					"internalType": "uint8",
					"name": "",
					"type": "uint8"
				}
			],
			"stateMutability": "view",
			"type": "function"
		},
		{
			"inputs": [
				{
					"internalType": "uint8",
					"name": "clanId",
					"type": "uint8"
				}
			],
			"name": "getClanMemberTiles",
			"outputs": [
				{
					"components": [
						{
							"internalType": "uint8",
							"name": "x",
							"type": "uint8"
						},
						{
							"internalType": "uint8",
							"name": "y",
							"type": "uint8"
						},
						{
							"internalType": "uint8",
							"name": "clanId",
							"type": "uint8"
						},
						{
							"internalType": "uint256",
							"name": "flagTokenId",
							"type": "uint256"
						}
					],
					"internalType": "struct Clan.TileClanInfo[]",
					"name": "",
					"type": "tuple[]"
				}
			],
			"stateMutability": "view",
			"type": "function"
		},
		{
			"inputs": [
				{
					"internalType": "uint8",
					"name": "x",
					"type": "uint8"
				},
				{
					"internalType": "uint8",
					"name": "y",
					"type": "uint8"
				}
			],
			"name": "getTileClan",
			"outputs": [
				{
					"internalType": "uint8",
					"name": "",
					"type": "uint8"
				}
			],
			"stateMutability": "view",
			"type": "function"
		},
		{
			"inputs": [
				{
					"internalType": "uint8",
					"name": "x",
					"type": "uint8"
				},
				{
					"internalType": "uint8",
					"name": "y",
					"type": "uint8"
				}
			],
			"name": "getTileName",
			"outputs": [
				{
					"internalType": "string",
					"name": "",
					"type": "string"
				}
			],
			"stateMutability": "view",
			"type": "function"
		},
		{
			"inputs": [
				{
					"internalType": "address",
					"name": "user",
					"type": "address"
				}
			],
			"name": "getTwitterHandle",
			"outputs": [
				{
					"internalType": "string",
					"name": "",
					"type": "string"
				}
			],
			"stateMutability": "view",
			"type": "function"
		},
		{
			"inputs": [
				{
					"internalType": "uint8",
					"name": "clanId",
					"type": "uint8"
				},
				{
					"internalType": "uint8",
					"name": "lx",
					"type": "uint8"
				},
				{
					"internalType": "uint8",
					"name": "ly",
					"type": "uint8"
				},
				{
					"internalType": "uint8",
					"name": "targetX",
					"type": "uint8"
				},
				{
					"internalType": "uint8",
					"name": "targetY",
					"type": "uint8"
				}
			],
			"name": "inviteTileToClan",
			"outputs": [],
			"stateMutability": "nonpayable",
			"type": "function"
		},
		{
			"inputs": [
				{
					"internalType": "string",
					"name": "name",
					"type": "string"
				}
			],
			"name": "isClanNameAvailable",
			"outputs": [
				{
					"internalType": "bool",
					"name": "",
					"type": "bool"
				}
			],
			"stateMutability": "view",
			"type": "function"
		},
		{
			"inputs": [
				{
					"internalType": "uint8",
					"name": "x",
					"type": "uint8"
				},
				{
					"internalType": "uint8",
					"name": "y",
					"type": "uint8"
				}
			],
			"name": "leaveClanForTile",
			"outputs": [],
			"stateMutability": "nonpayable",
			"type": "function"
		},
		{
			"inputs": [],
			"name": "lopToken",
			"outputs": [
				{
					"internalType": "contract IHarmLop",
					"name": "",
					"type": "address"
				}
			],
			"stateMutability": "view",
			"type": "function"
		},
		{
			"inputs": [
				{
					"internalType": "uint16",
					"name": "",
					"type": "uint16"
				}
			],
			"name": "membersByTile",
			"outputs": [
				{
					"internalType": "uint8",
					"name": "clanId",
					"type": "uint8"
				},
				{
					"internalType": "bool",
					"name": "isMember",
					"type": "bool"
				}
			],
			"stateMutability": "view",
			"type": "function"
		},
		{
			"inputs": [
				{
					"internalType": "uint8",
					"name": "x",
					"type": "uint8"
				},
				{
					"internalType": "uint8",
					"name": "y",
					"type": "uint8"
				},
				{
					"internalType": "string",
					"name": "newName",
					"type": "string"
				}
			],
			"name": "nameTile",
			"outputs": [],
			"stateMutability": "nonpayable",
			"type": "function"
		},
		{
			"inputs": [],
			"name": "nftMarket",
			"outputs": [
				{
					"internalType": "contract IMyNFTMarket",
					"name": "",
					"type": "address"
				}
			],
			"stateMutability": "view",
			"type": "function"
		},
		{
			"inputs": [
				{
					"internalType": "uint16",
					"name": "",
					"type": "uint16"
				}
			],
			"name": "pendingInvitesByTile",
			"outputs": [
				{
					"internalType": "uint8",
					"name": "",
					"type": "uint8"
				}
			],
			"stateMutability": "view",
			"type": "function"
		},
		{
			"inputs": [
				{
					"internalType": "uint8",
					"name": "x",
					"type": "uint8"
				},
				{
					"internalType": "uint8",
					"name": "y",
					"type": "uint8"
				}
			],
			"name": "refuseInviteForTile",
			"outputs": [],
			"stateMutability": "nonpayable",
			"type": "function"
		},
		{
			"inputs": [
				{
					"internalType": "uint8",
					"name": "clanId",
					"type": "uint8"
				},
				{
					"internalType": "uint8",
					"name": "lx",
					"type": "uint8"
				},
				{
					"internalType": "uint8",
					"name": "ly",
					"type": "uint8"
				},
				{
					"internalType": "uint8",
					"name": "mx",
					"type": "uint8"
				},
				{
					"internalType": "uint8",
					"name": "my",
					"type": "uint8"
				}
			],
			"name": "removeMemberTile",
			"outputs": [],
			"stateMutability": "nonpayable",
			"type": "function"
		},
		{
			"inputs": [
				{
					"internalType": "uint8",
					"name": "clanId",
					"type": "uint8"
				},
				{
					"internalType": "uint8",
					"name": "lx",
					"type": "uint8"
				},
				{
					"internalType": "uint8",
					"name": "ly",
					"type": "uint8"
				},
				{
					"internalType": "uint256",
					"name": "tokenId",
					"type": "uint256"
				}
			],
			"name": "setClanFlag",
			"outputs": [],
			"stateMutability": "nonpayable",
			"type": "function"
		},
		{
			"inputs": [
				{
					"internalType": "string",
					"name": "handle",
					"type": "string"
				}
			],
			"name": "setTwitterHandle",
			"outputs": [],
			"stateMutability": "nonpayable",
			"type": "function"
		},
		{
			"inputs": [],
			"name": "theLand",
			"outputs": [
				{
					"internalType": "contract ITheLand",
					"name": "",
					"type": "address"
				}
			],
			"stateMutability": "view",
			"type": "function"
		},
		{
			"inputs": [
				{
					"internalType": "uint8",
					"name": "",
					"type": "uint8"
				},
				{
					"internalType": "uint8",
					"name": "",
					"type": "uint8"
				}
			],
			"name": "tileClans",
			"outputs": [
				{
					"internalType": "uint8",
					"name": "",
					"type": "uint8"
				}
			],
			"stateMutability": "view",
			"type": "function"
		},
		{
			"inputs": [],
			"name": "tileMapPhaser",
			"outputs": [
				{
					"internalType": "contract ITileMapPhaser",
					"name": "",
					"type": "address"
				}
			],
			"stateMutability": "view",
			"type": "function"
		},
		{
			"inputs": [
				{
					"internalType": "uint8",
					"name": "",
					"type": "uint8"
				},
				{
					"internalType": "uint8",
					"name": "",
					"type": "uint8"
				}
			],
			"name": "tileNames",
			"outputs": [
				{
					"internalType": "string",
					"name": "",
					"type": "string"
				}
			],
			"stateMutability": "view",
			"type": "function"
		},
		{
			"inputs": [
				{
					"internalType": "address",
					"name": "",
					"type": "address"
				}
			],
			"name": "twitterHandles",
			"outputs": [
				{
					"internalType": "string",
					"name": "",
					"type": "string"
				}
			],
			"stateMutability": "view",
			"type": "function"
		}
	]
}