{
	"data": {
		"bytecode": {
			"linkReferences": {},
			"object": "60046103008181526103208290526103408290526103608290526103808290526103a082905260036103c08190526103e081905261040081905261042081905261044081905261046081905260026104808190526104a081905260016104c08190526104e082905261050082905261052082905261054082905261056082905260809384526105808581526105a08690526105c08690526105e08690526106008690526106208690526106408690526106608490526106808490526106a08490526106c08490526106e08490526107008390526107208290526107408290526107608390526107808390526107a08390526107c08390526107e083905260a0526108008581526108208690526108408690526108608690526108808690526108a08690526108c08690526108e08690526109008490526109208490526109408490526109608490526109808390526109a08390526109c08290526109e0829052610a00839052610a20839052610a40839052610a6083905260c052610a80858152610aa0869052610ac0869052610ae0869052610b00869052610b20869052610b40869052610b6095909552610b80839052610ba0839052610bc0839052610be0839052610c00839052610c20819052610c40819052610c60819052610c80829052610ca0829052610cc0829052610ce082905260e094909452610d00828152610d20839052610d40839052610d60839052610d80839052610da0839052610dc0839052610de0839052610e00839052610e20839052610e40839052610e60839052610e80859052610ea0859052610ec0859052610ee0859052610f00829052610f20829052610f40829052610f6082905261010052610f80828152610fa0839052610fc0839052610fe08390526110008390526110208390526110408390526110608390526110808390526110a08390526110c08390526110e08390526111008590526111208590526111408590526111608590526111808290526111a08290526111c08290526111e0829052610120526112008281526112208390526112408390526112608390526112808390526112a08390526112c08390526112e08390526113008390526113208390526113408390526113608390526113808590526113a08590526113c08590526113e0859052611400859052611420859052611440859052611460859052610140526114808281526114a08390526114c08390526114e08590526115008390526115208390526115408390526115608390526115808390526115a08390526115c08390526115e08590526116008290526116208290526116408290526116608290526116808590526116a08590526116c08590526116e0859052610160526117008281526117208390526117408390526117608590526117808590526117a08290526117c08290526117e08290526118008290526118208290526118408290526118608590526118808290526118a08290526118c08290526118e0829052611900829052611920829052611940829052611960859052610180526119808481526119a08290526119c08290526119e0859052611a00829052611a20829052611a40829052611a60829052611a80829052611aa0829052611ac0829052611ae0859052611b00829052611b20829052611b40829052611b60829052611b80829052611ba0829052611bc0829052611be08590526101a052611c00818152611c20829052611c40859052611c60859052611c80829052611ca0829052611cc0829052611ce0829052611d00829052611d20829052611d40859052611d60859052611d80829052611da0829052611dc0829052611de0829052611e00829052611e20829052611e40859052611e608590526101c052611e80828152611ea0839052611ec0839052611ee0829052611f00859052611f20829052611f40829052611f60829052611f80829052611fa0829052611fc0859052611fe08290526120008290526120208290526120408290526120608590526120808590526120a08590526120c08590526120e08590526101e0526121008281526121208390526121408390526121608390526121808590526121a08590526121c08290526121e08290526122008290526122208290526122408590526122608590526122808290526122a08290526122c08290526122e0859052612300859052612320859052612340859052612360859052610200526123808281526123a08390526123c08390526123e08390526124008390526124208590526124408290526124608290526124808290526124a08290526124c08590526124e08590526125008590526125208290526125408290526125608290526125808290526125a08590526125c08590526125e0859052610220526126008281526126208390526126408390526126608390526126808390526126a08290526126c08290526126e08290526127008390526127208390526127408290526127608290526127808590526127a08290526127c08290526127e0829052612800829052612820859052612840859052612860859052610240526128808181526128a08290526128c08290526128e08590526129008590526129208590526129408590526129608590526129808390526129a08390526129c08390526129e0839052612a00859052612a20859052612a40829052612a60829052612a80829052612aa0859052612ac0859052612ae085905261026052612b00818152612b20829052612b40829052612b60829052612b80829052612ba0829052612bc0859052612be0859052612c00839052612c20839052612c40839052612c60839052612c80859052612ca0859052612cc0859052612ce0859052612d00839052612d20839052612d40829052612d6082905261028052612d80818152612da0829052612dc0829052612de0829052612e00829052612e20829052612e40829052612e60859052612e80839052612ea0839052612ec0839052612ee0839052612f00859052612f20859052612f40859052612f60859052612f80839052612fa0839052612fc0829052612fe08290526102a0526130008181526130208290526130408290526130608290526130808290526130a08290526130c08290526130e08590526131008590526131208290526131408290526131608590526131808590526131a08290526131c08290526131e08590526132008390526132208390526132408290526132608290526102c0526135006040526132808181526132a08290526132c08290526132e08290526133008290526133208290526133408290526133608590526133808590526133a08590526133c08590526133e08590526134008590526134208590526134408590526134608390526134808390526134a0929092526134c08190526134e0526102e052620009cc9190601462000a56565b50348015620009da57600080fd5b506040516200643338038062006433833981016040819052620009fd9162000b86565b6001600055601580546001600160a01b039586166001600160a01b031991821617909155601680549486169482169490941790935560228054928516928416929092179091556017805491909316911617905562000be3565b826014810192821562000a95579160200282015b8281111562000a9557825162000a84908390601462000aa7565b509160200191906001019062000a6a565b5062000aa392915062000b3d565b5090565b60018301918390821562000b2f5791602002820160005b8382111562000afe57835183826101000a81548160ff021916908360ff160217905550926020019260010160208160000104928301926001030262000abe565b801562000b2d5782816101000a81549060ff021916905560010160208160000104928301926001030262000afe565b505b5062000aa392915062000b53565b8082111562000aa3576000815560010162000b3d565b8082111562000aa3576000815560010162000b3d565b80516001600160a01b038116811462000b8157600080fd5b919050565b6000806000806080858703121562000b9d57600080fd5b62000ba88562000b69565b935062000bb86020860162000b69565b925062000bc86040860162000b69565b915062000bd86060860162000b69565b905092959194509250565b6158408062000bf36000396000f3fe608060405234801561001057600080fd5b506004361061030a5760003560e01c806362c5813d1161019c5780639cec5194116100ee578063be5ed4c311610097578063ea0e35b111610071578063ea0e35b114610721578063f15ad26414610729578063fa60ad991461073c57600080fd5b8063be5ed4c3146106f2578063e4547fb414610716578063e6192fca1461071657600080fd5b8063b0d77774116100c8578063b0d77774146106b9578063b21e0737146106cc578063bc9955a2146106df57600080fd5b80639cec519414610666578063a609775b14610679578063abefc3231461068c57600080fd5b80637ab9e7fe116101505780638e6bb70e1161012a5780638e6bb70e1461062b57806398a8d0e71461063e5780639b21d6eb1461065157600080fd5b80637ab9e7fe146105c15780637b0c98ef146105f85780638252a6691461060b57600080fd5b80636f5978d9116101815780636f5978d91461058f578063731ae689146105a2578063793c97de146105ae57600080fd5b806362c5813d14610583578063651916661461058357600080fd5b80632e4b51bd1161026057806340b900b6116102095780635387a797116101e35780635387a7971461040257806358612a20146105415780635aa24cbd1461057057600080fd5b806340b900b6146104fb57806344ad764d1461051b5780634f264b031461052e57600080fd5b80633942613c1161023a5780633942613c146104685780633f9662bb146104b157806340b76bbd146104c457600080fd5b80632e4b51bd1461034d5780632f57741c14610422578063367805271461043557600080fd5b806315b7ed6f116102c25780632a2026a91161029c5780632a2026a9146103dd5780632c6d422f146104025780632dec2e631461040d57600080fd5b806315b7ed6f146103a4578063196ab1ab146103b75780631cecb4fb146103ca57600080fd5b80630cea9dc5116102f35780630cea9dc51461034d5780630d67f59e1461036657806313a5cede1461039157600080fd5b80630821de3e1461030f57806309e59cec14610324575b600080fd5b61032261031d366004614d92565b61074f565b005b610337610332366004614df3565b610a7c565b6040516103449190614e76565b60405180910390f35b610358633b9aca0081565b604051908152602001610344565b601654610379906001600160a01b031681565b6040516001600160a01b039091168152602001610344565b61033761039f366004614ea5565b610b31565b6103226103b2366004614ed4565b610bca565b602254610379906001600160a01b031681565b6103226103d8366004614df3565b61114a565b6103f06103eb366004614df3565b6118fb565b60405160ff9091168152602001610344565b6103586335a4e90081565b6104156119a8565b6040516103449190614f39565b610322610430366004614fa7565b611b80565b610458610443366004614fe9565b60186020526000908152604090205460ff1681565b6040519015158152602001610344565b610497610476366004615002565b601c6020526000908152604090205461ffff81169062010000900460ff1682565b6040805161ffff9093168352901515602083015201610344565b6104586104bf366004614fa7565b611e42565b6104e86104d2366004615002565b601e6020526000908152604090205461ffff1681565b60405161ffff9091168152602001610344565b610358610509366004615002565b60236020526000908152604090205481565b610322610529366004614df3565b611ee6565b601554610379906001600160a01b031681565b6104e861054f366004614df3565b602160209081526000928352604080842090915290825290205461ffff1681565b6103f061057e366004615002565b612054565b6103586402540be40081565b61032261059d36600461501d565b6120e4565b61035864174876e80081565b6104156105bc366004615002565b61257f565b6104e86105cf366004614df3565b60ff918216600090815260216020908152604080832093909416825291909152205461ffff1690565b610337610606366004614df3565b6126ad565b61061e610619366004615002565b6126d1565b60405161034491906150b4565b610322610639366004614ed4565b6127eb565b61032261064c366004614d92565b613100565b61065961381b565b60405161034491906150c7565b610337610674366004614df3565b613a57565b610322610687366004614df3565b613b45565b61069f61069a366004615002565b613f46565b6040805160ff938416815292909116602083015201610344565b601754610379906001600160a01b031681565b6104e86106da366004615147565b613fdd565b6103f06106ed366004615171565b614024565b610705610700366004615002565b614060565b604051610344959493929190615193565b6103586305f5e10081565b6103f0601e81565b610337610737366004614ea5565b614123565b61032261074a3660046151d5565b6141ce565b610757614852565b8015801590610767575060408111155b6107b85760405162461bcd60e51b815260206004820152600f60248201527f426164206e616d65206c656e677468000000000000000000000000000000000060448201526064015b60405180910390fd5b601554604051638a88895360e01b815260ff80871660048301528516602482015233916001600160a01b031690638a88895390604401602060405180830381865afa15801561080b573d6000803e3d6000fd5b505050506040513d601f19601f8201168201806040525081019061082f919061522b565b6001600160a01b0316146108855760405162461bcd60e51b815260206004820152600e60248201527f4e6f742074696c65206f776e657200000000000000000000000000000000000060448201526064016107af565b6016546040517f23b872dd0000000000000000000000000000000000000000000000000000000081523360048201523060248201526402540be40060448201526001600160a01b03909116906323b872dd906064016020604051808303816000875af11580156108f9573d6000803e3d6000fd5b505050506040513d601f19601f8201168201806040525081019061091d9190615248565b6109695760405162461bcd60e51b815260206004820152601460248201527f546f6b656e207061796d656e74206661696c656400000000000000000000000060448201526064016107af565b6016546040517f42966c680000000000000000000000000000000000000000000000000000000081526402540be40060048201526001600160a01b03909116906342966c68906024016020604051808303816000875af11580156109d1573d6000803e3d6000fd5b505050506040513d601f19601f820116820180604052508101906109f59190615248565b610a415760405162461bcd60e51b815260206004820152600b60248201527f4275726e206661696c656400000000000000000000000000000000000000000060448201526064016107af565b60ff8085166000908152601f60209081526040808320938716835292905220610a6b82848361533a565b50610a766001600055565b50505050565b60ff8083166000908152601f60209081526040808320938516835292905220805460609190610aaa90615299565b80601f0160208091040260200160405190810160405280929190818152602001828054610ad690615299565b8015610b235780601f10610af857610100808354040283529160200191610b23565b820191906000526020600020905b815481529060010190602001808311610b0657829003601f168201915b505050505090505b92915050565b602080526000908152604090208054610b4990615299565b80601f0160208091040260200160405190810160405280929190818152602001828054610b7590615299565b8015610bc25780601f10610b9757610100808354040283529160200191610bc2565b820191906000526020600020905b815481529060010190602001808311610ba557829003601f168201915b505050505081565b610bd2614852565b61ffff85166000908152601b60205260409020600101548590859085906301000000900460ff16610c455760405162461bcd60e51b815260206004820152601360248201527f436c616e20646f6573206e6f742065786973740000000000000000000000000060448201526064016107af565b61ffff83166000908152601b602052604090206001015460ff8381169116148015610c90575061ffff83166000908152601b602052604090206001015460ff82811661010090920416145b610cdc5760405162461bcd60e51b815260206004820152600f60248201527f4e6f74206c65616465722074696c65000000000000000000000000000000000060448201526064016107af565b601554604051638a88895360e01b815260ff80851660048301528316602482015233916001600160a01b031690638a88895390604401602060405180830381865afa158015610d2f573d6000803e3d6000fd5b505050506040513d601f19601f82011682018060405250810190610d53919061522b565b6001600160a01b031614610da95760405162461bcd60e51b815260206004820152601d60248201527f596f7520646f6e2774206f776e20746865206c65616465722074696c6500000060448201526064016107af565b61ffff88166000908152601b60205260409020600101546301000000900460ff16610e165760405162461bcd60e51b815260206004820152601360248201527f436c616e20646f6573206e6f742065786973740000000000000000000000000060448201526064016107af565b61ffff88166000908152601b6020526040902060010154601e6201000090910460ff1610610e865760405162461bcd60e51b815260206004820152600c60248201527f436c616e2069732066756c6c000000000000000000000000000000000000000060448201526064016107af565b6017546040517f1acc55ea00000000000000000000000000000000000000000000000000000000815260ff808a166004830152881660248201526001600160a01b0390911690631acc55ea90604401602060405180830381865afa158015610ef2573d6000803e3d6000fd5b505050506040513d601f19601f82011682018060405250810190610f169190615248565b610f625760405162461bcd60e51b815260206004820152601960248201527f596f75206d7573742068617665206120436c616e2048616c6c0000000000000060448201526064016107af565b601554604051638a88895360e01b815260ff8088166004830152861660248201526000916001600160a01b031690638a88895390604401602060405180830381865afa158015610fb6573d6000803e3d6000fd5b505050506040513d601f19601f82011682018060405250810190610fda919061522b565b90506001600160a01b0381166110325760405162461bcd60e51b815260206004820152601360248201527f5461726765742074696c6520756e6f776e65640000000000000000000000000060448201526064016107af565b60ff80871660009081526021602090815260408083209389168352929052205461ffff16156110a35760405162461bcd60e51b815260206004820152601d60248201527f5461726765742074696c6520616c726561647920696e206120636c616e00000060448201526064016107af565b60ff8516600887901b61ff0016176000818152601e602052604090205461ffff16156111115760405162461bcd60e51b815260206004820152601660248201527f496e7669746520616c72656164792070656e64696e670000000000000000000060448201526064016107af565b61ffff9081166000908152601e60205260409020805461ffff1916918b169190911790555061114392506148ab915050565b5050505050565b611152614852565b601554604051638a88895360e01b815260ff8085166004830152831660248201528391839133916001600160a01b031690638a88895390604401602060405180830381865afa1580156111a9573d6000803e3d6000fd5b505050506040513d601f19601f820116820180604052508101906111cd919061522b565b6001600160a01b0316146112235760405162461bcd60e51b815260206004820152601860248201527f596f7520646f206e6f74206f776e20746869732074696c65000000000000000060448201526064016107af565b60ff838116600886901b61ff0016176000818152601c6020526040902054909162010000909104166112975760405162461bcd60e51b815260206004820152601260248201527f54696c65206e6f7420696e206120636c616e000000000000000000000000000060448201526064016107af565b61ffff8181166000908152601c6020908152604080832054909316808352601b909152919020600101546301000000900460ff166113175760405162461bcd60e51b815260206004820152601360248201527f436c616e20646f6573206e6f742065786973740000000000000000000000000060448201526064016107af565b61ffff81166000908152601b602052604090206001015460ff8781169116148015611362575061ffff81166000908152601b602052604090206001015460ff86811661010090920416145b156113af5760405162461bcd60e51b815260206004820152601860248201527f4c65616465722074696c652063616e6e6f74206c65617665000000000000000060448201526064016107af565b6016546040517f23b872dd000000000000000000000000000000000000000000000000000000008152336004820152306024820152633b9aca0060448201526001600160a01b03909116906323b872dd906064016020604051808303816000875af1158015611422573d6000803e3d6000fd5b505050506040513d601f19601f820116820180604052508101906114469190615248565b6114925760405162461bcd60e51b815260206004820152601360248201527f4c4f50207472616e73666572206661696c65640000000000000000000000000060448201526064016107af565b61ffff8083166000908152601c60209081526040808320805462ff00001916905560ff8a81168452602183528184208a821685528352818420805461ffff191690559385168352601b9091529020600190810154620100009004909116101561151b5761ffff81166000908152601b60205260409020600101805462ff00001916620100001790555b61ffff81166000908152601b60205260409020600101805462010000900460ff1690600261154883615429565b825460ff9182166101009390930a92830291909202199091161790555061ffff81166000908152601d60205260408120905b8154811015611699578361ffff1682828154811061159a5761159a615446565b60009182526020909120601082040154600f9091166002026101000a900461ffff160361168757815482906115d190600190615475565b815481106115e1576115e1615446565b90600052602060002090601091828204019190066002029054906101000a900461ffff1682828154811061161757611617615446565b90600052602060002090601091828204019190066002026101000a81548161ffff021916908361ffff1602179055508180548061165657611656615488565b600082815260209020601060001990920191820401805461ffff6002600f8516026101000a02191690559055611699565b80611691816154b7565b91505061157a565b5060155461ffff83166000908152601b6020526040808220600101549051638a88895360e01b815260ff8083166004830152610100909204909116602482015290916001600160a01b031690638a88895390604401602060405180830381865afa15801561170b573d6000803e3d6000fd5b505050506040513d601f19601f8201168201806040525081019061172f919061522b565b6016546040517fa9059cbb0000000000000000000000000000000000000000000000000000000081526001600160a01b0380841660048301526335a4e900602483015292935091169063a9059cbb906044016020604051808303816000875af11580156117a0573d6000803e3d6000fd5b505050506040513d601f19601f820116820180604052508101906117c49190615248565b6118105760405162461bcd60e51b815260206004820152601460248201527f4c6561646572207061796f7574206661696c656400000000000000000000000060448201526064016107af565b6016546040517f42966c680000000000000000000000000000000000000000000000000000000081526305f5e10060048201526001600160a01b03909116906342966c68906024016020604051808303816000875af1158015611877573d6000803e3d6000fd5b505050506040513d601f19601f8201168201806040525081019061189b9190615248565b6118e75760405162461bcd60e51b815260206004820152600b60248201527f4275726e206661696c656400000000000000000000000000000000000000000060448201526064016107af565b5050505050506118f76001600055565b5050565b600060148360ff16108015611913575060148260ff16105b61195f5760405162461bcd60e51b815260206004820152601360248201527f496e76616c696420636f6f7264696e617465730000000000000000000000000060448201526064016107af565b60018360ff166014811061197557611975615446565b018260ff166014811061198a5761198a615446565b602081049091015460ff601f9092166101000a900416905092915050565b60606000805b60148160ff161015611a255760005b60148160ff161015611a125760ff80831660009081526021602090815260408083209385168352929052205461ffff1615611a0057826119fc816154b7565b9350505b80611a0a816154d1565b9150506119bd565b5080611a1d816154d1565b9150506119ae565b5060008167ffffffffffffffff811115611a4157611a4161526a565b604051908082528060200260200182016040528015611a9357816020015b604080516080810182526000808252602080830182905292820181905260608201528252600019909201910181611a5f5790505b5090506000805b60148160ff161015611b775760005b60148160ff161015611b645760ff80831660009081526021602090815260408083209385168352929052205461ffff168015611b515760405180608001604052808460ff1681526020018360ff1681526020018261ffff168152602001602360008461ffff1661ffff16815260200190815260200160002054815250858581518110611b3757611b37615446565b60200260200101819052508380611b4d906154b7565b9450505b5080611b5c816154d1565b915050611aa9565b5080611b6f816154d1565b915050611a9a565b50909392505050565b611b88614852565b600082828080601f0160208091040260200160405190810160405280939291908181526020018383808284376000920191909152505082519293505050611c115760405162461bcd60e51b815260206004820152601660248201527f48616e646c652063616e6e6f7420626520656d7074790000000000000000000060448201526064016107af565b602081511115611c635760405162461bcd60e51b815260206004820152600f60248201527f48616e646c6520746f6f206c6f6e67000000000000000000000000000000000060448201526064016107af565b6016546040517f23b872dd000000000000000000000000000000000000000000000000000000008152336004820152306024820152633b9aca0060448201526001600160a01b03909116906323b872dd906064016020604051808303816000875af1158015611cd6573d6000803e3d6000fd5b505050506040513d601f19601f82011682018060405250810190611cfa9190615248565b611d465760405162461bcd60e51b815260206004820152601360248201527f4c4f50207472616e73666572206661696c65640000000000000000000000000060448201526064016107af565b6016546040517f42966c68000000000000000000000000000000000000000000000000000000008152633b9aca0060048201526001600160a01b03909116906342966c68906024016020604051808303816000875af1158015611dad573d6000803e3d6000fd5b505050506040513d601f19601f82011682018060405250810190611dd19190615248565b611e1d5760405162461bcd60e51b815260206004820152600b60248201527f4275726e206661696c656400000000000000000000000000000000000000000060448201526064016107af565b3360009081526020805260409020611e3683858361533a565b50506118f76001600055565b600080611e8484848080601f0160208091040260200160405190810160405280939291908181526020018383808284376000920191909152506148b292505050565b90508051600003611e99576000915050610b2b565b6000611ea482614ae4565b604051602001611eb491906154f0565b60408051808303601f1901815291815281516020928301206000908152601890925290205460ff161595945050505050565b611eee614852565b601554604051638a88895360e01b815260ff8085166004830152831660248201528391839133916001600160a01b031690638a88895390604401602060405180830381865afa158015611f45573d6000803e3d6000fd5b505050506040513d601f19601f82011682018060405250810190611f69919061522b565b6001600160a01b031614611fbf5760405162461bcd60e51b815260206004820152601860248201527f596f7520646f206e6f74206f776e20746869732074696c65000000000000000060448201526064016107af565b60ff8316600885901b61ff0016176000818152601e602052604090205461ffff1661202c5760405162461bcd60e51b815260206004820152601f60248201527f4e6f2070656e64696e6720696e7669746520666f7220746869732074696c650060448201526064016107af565b61ffff166000908152601e60205260409020805461ffff19169055506118f790506001600055565b61ffff81166000908152601b60205260408120600101546301000000900460ff166120c15760405162461bcd60e51b815260206004820152601360248201527f436c616e20646f6573206e6f742065786973740000000000000000000000000060448201526064016107af565b5061ffff166000908152601b602052604090206001015462010000900460ff1690565b6120ec614852565b61ffff83166000908152601b60205260409020600101548390839083906301000000900460ff1661215f5760405162461bcd60e51b815260206004820152601360248201527f436c616e20646f6573206e6f742065786973740000000000000000000000000060448201526064016107af565b61ffff83166000908152601b602052604090206001015460ff83811691161480156121aa575061ffff83166000908152601b602052604090206001015460ff82811661010090920416145b6121f65760405162461bcd60e51b815260206004820152600f60248201527f4e6f74206c65616465722074696c65000000000000000000000000000000000060448201526064016107af565b601554604051638a88895360e01b815260ff80851660048301528316602482015233916001600160a01b031690638a88895390604401602060405180830381865afa158015612249573d6000803e3d6000fd5b505050506040513d601f19601f8201168201806040525081019061226d919061522b565b6001600160a01b0316146122c35760405162461bcd60e51b815260206004820152601d60248201527f596f7520646f6e2774206f776e20746865206c65616465722074696c6500000060448201526064016107af565b6017546040517f1acc55ea00000000000000000000000000000000000000000000000000000000815260ff8088166004830152861660248201526001600160a01b0390911690631acc55ea90604401602060405180830381865afa15801561232f573d6000803e3d6000fd5b505050506040513d601f19601f820116820180604052508101906123539190615248565b61239f5760405162461bcd60e51b815260206004820152601960248201527f596f75206d7573742068617665206120436c616e2048616c6c0000000000000060448201526064016107af565b61ffff86166000908152601d60205260408120905b81548110156124a5576000806124088484815481106123d5576123d5615446565b90600052602060002090601091828204019190066002029054906101000a900461ffff1660ff600882901c811692911690565b915091506000601c600086868154811061242457612424615446565b60009182526020808320601083040154600f9092166002026101000a90910461ffff1683528281019390935260409182018120805462ff0000191662010000951515959095029490941790935560ff9485168352602182528083209390941682529190915220805461ffff191690558061249d816154b7565b9150506123b4565b5061ffff87166000908152601d602052604081206124c291614cbc565b61ffff8716600090815260196020526040902054801561252357600081815260186020908152604080832080547fffffffffffffffffffffffffffffffffffffffffffffffffffffffffffffff0016905561ffff8b16835260199091528120555b61ffff88166000908152601b60205260408120906125418282614ce4565b5060010180547fffffffffffffffffffffffffffffffffffffffffffffffffffffffff000000001690555061257a93506148ab92505050565b505050565b61ffff81166000908152601d6020526040812080546060929067ffffffffffffffff8111156125b0576125b061526a565b60405190808252806020026020018201604052801561260257816020015b6040805160808101825260008082526020808301829052928201819052606082015282526000199092019101816125ce5790505b50905060005b82548110156126a5576000806126298584815481106123d5576123d5615446565b9150915060405180608001604052808360ff1681526020018260ff1681526020018861ffff168152602001602360008a61ffff1661ffff1681526020019081526020016000205481525084848151811061268557612685615446565b60200260200101819052505050808061269d906154b7565b915050612608565b509392505050565b601f60209081526000928352604080842090915290825290208054610b4990615299565b6040805160a08101825260608082526000602083018190529282018390528101829052608081019190915261ffff82166000908152601b602052604090819020815160a0810190925280548290829061272990615299565b80601f016020809104026020016040519081016040528092919081815260200182805461275590615299565b80156127a25780601f10612777576101008083540402835291602001916127a2565b820191906000526020600020905b81548152906001019060200180831161278557829003601f168201915b50505091835250506001919091015460ff808216602084015261010082048116604084015262010000820481166060840152630100000090910416151560809091015292915050565b6127f3614852565b61ffff85166000908152601b60205260409020600101548590859085906301000000900460ff166128665760405162461bcd60e51b815260206004820152601360248201527f436c616e20646f6573206e6f742065786973740000000000000000000000000060448201526064016107af565b61ffff83166000908152601b602052604090206001015460ff83811691161480156128b1575061ffff83166000908152601b602052604090206001015460ff82811661010090920416145b6128fd5760405162461bcd60e51b815260206004820152600f60248201527f4e6f74206c65616465722074696c65000000000000000000000000000000000060448201526064016107af565b601554604051638a88895360e01b815260ff80851660048301528316602482015233916001600160a01b031690638a88895390604401602060405180830381865afa158015612950573d6000803e3d6000fd5b505050506040513d601f19601f82011682018060405250810190612974919061522b565b6001600160a01b0316146129ca5760405162461bcd60e51b815260206004820152601d60248201527f596f7520646f6e2774206f776e20746865206c65616465722074696c6500000060448201526064016107af565b6017546040517f1acc55ea00000000000000000000000000000000000000000000000000000000815260ff808a166004830152881660248201526001600160a01b0390911690631acc55ea90604401602060405180830381865afa158015612a36573d6000803e3d6000fd5b505050506040513d601f19601f82011682018060405250810190612a5a9190615248565b612aa65760405162461bcd60e51b815260206004820152601960248201527f596f75206d7573742068617665206120436c616e2048616c6c0000000000000060448201526064016107af565b61ffff88166000908152601b602052604090206001015460ff8681169116148015612af1575061ffff88166000908152601b602052604090206001015460ff85811661010090920416145b15612b3e5760405162461bcd60e51b815260206004820152601960248201527f43616e6e6f742072656d6f7665206c65616465722074696c650000000000000060448201526064016107af565b60ff848116600887901b61ff0016176000818152601c6020526040902054909162010000909104168015612b89575061ffff8181166000908152601c60205260409020548116908a16145b612bd55760405162461bcd60e51b815260206004820152601560248201527f54696c65206e6f7420696e207468697320636c616e000000000000000000000060448201526064016107af565b6016546040517f23b872dd000000000000000000000000000000000000000000000000000000008152336004820152306024820152633b9aca0060448201526001600160a01b03909116906323b872dd906064016020604051808303816000875af1158015612c48573d6000803e3d6000fd5b505050506040513d601f19601f82011682018060405250810190612c6c9190615248565b612cb85760405162461bcd60e51b815260206004820152601360248201527f4c4f50207472616e73666572206661696c65640000000000000000000000000060448201526064016107af565b61ffff8082166000908152601c60209081526040808320805462ff00001916905560ff8a81168452602183528184208a821685528352818420805461ffff19169055938d168352601b90915290206001908101546201000090049091161015612d415761ffff89166000908152601b60205260409020600101805462ff00001916620100001790555b61ffff89166000908152601b60205260409020600101805462010000900460ff16906002612d6e83615429565b825460ff9182166101009390930a92830291909202199091161790555061ffff89166000908152601d60205260408120905b8154811015612ebf578261ffff16828281548110612dc057612dc0615446565b60009182526020909120601082040154600f9091166002026101000a900461ffff1603612ead5781548290612df790600190615475565b81548110612e0757612e07615446565b90600052602060002090601091828204019190066002029054906101000a900461ffff16828281548110612e3d57612e3d615446565b90600052602060002090601091828204019190066002026101000a81548161ffff021916908361ffff16021790555081805480612e7c57612e7c615488565b600082815260209020601060001990920191820401805461ffff6002600f8516026101000a02191690559055612ebf565b80612eb7816154b7565b915050612da0565b50601554604051638a88895360e01b815260ff808a166004830152881660248201526000916001600160a01b031690638a88895390604401602060405180830381865afa158015612f14573d6000803e3d6000fd5b505050506040513d601f19601f82011682018060405250810190612f38919061522b565b6016546040517fa9059cbb0000000000000000000000000000000000000000000000000000000081526001600160a01b0380841660048301526335a4e900602483015292935091169063a9059cbb906044016020604051808303816000875af1158015612fa9573d6000803e3d6000fd5b505050506040513d601f19601f82011682018060405250810190612fcd9190615248565b6130195760405162461bcd60e51b815260206004820152601660248201527f5061796f7574207472616e73666572206661696c65640000000000000000000060448201526064016107af565b6016546040517f42966c680000000000000000000000000000000000000000000000000000000081526305f5e10060048201526001600160a01b03909116906342966c68906024016020604051808303816000875af1158015613080573d6000803e3d6000fd5b505050506040513d601f19601f820116820180604052508101906130a49190615248565b6130f05760405162461bcd60e51b815260206004820152600b60248201527f4275726e206661696c656400000000000000000000000000000000000000000060448201526064016107af565b5050505050506111436001600055565b613108614852565b601554604051638a88895360e01b815260ff8087166004830152851660248201528591859133916001600160a01b031690638a88895390604401602060405180830381865afa15801561315f573d6000803e3d6000fd5b505050506040513d601f19601f82011682018060405250810190613183919061522b565b6001600160a01b0316146131d95760405162461bcd60e51b815260206004820152601860248201527f596f7520646f206e6f74206f776e20746869732074696c65000000000000000060448201526064016107af565b6131e38484614b95565b60ff80871660009081526021602090815260408083209389168352929052205461ffff16156132545760405162461bcd60e51b815260206004820152601660248201527f54696c6520616c726561647920696e206120636c616e0000000000000000000060448201526064016107af565b600061329585858080601f016020809104026020016040519081016040528093929190818152602001838380828437600092019190915250614c7c92505050565b60008181526018602052604090205490915060ff16156132f75760405162461bcd60e51b815260206004820152601760248201527f436c616e206e616d6520616c72656164792074616b656e00000000000000000060448201526064016107af565b6017546040517f1acc55ea00000000000000000000000000000000000000000000000000000000815260ff808a166004830152881660248201526001600160a01b0390911690631acc55ea90604401602060405180830381865afa158015613363573d6000803e3d6000fd5b505050506040513d601f19601f820116820180604052508101906133879190615248565b6133d35760405162461bcd60e51b815260206004820152601960248201527f596f75206d7573742068617665206120436c616e2048616c6c0000000000000060448201526064016107af565b6016546040517f23b872dd00000000000000000000000000000000000000000000000000000000815233600482015230602482015264174876e80060448201526001600160a01b03909116906323b872dd906064016020604051808303816000875af1158015613447573d6000803e3d6000fd5b505050506040513d601f19601f8201168201806040525081019061346b9190615248565b6134b75760405162461bcd60e51b815260206004820152601360248201527f4c4f50207472616e73666572206661696c65640000000000000000000000000060448201526064016107af565b6016546040517f42966c6800000000000000000000000000000000000000000000000000000000815264174876e80060048201526001600160a01b03909116906342966c68906024016020604051808303816000875af115801561351f573d6000803e3d6000fd5b505050506040513d601f19601f820116820180604052508101906135439190615248565b61358f5760405162461bcd60e51b815260206004820152600b60248201527f4275726e206661696c656400000000000000000000000000000000000000000060448201526064016107af565b601a805461ffff169060006135a38361550c565b91906101000a81548161ffff021916908361ffff160217905550506040518060a0016040528086868080601f016020809104026020016040519081016040528093929190818152602001838380828437600092018290525093855250505060ff808b16602080850191909152908a16604080850191909152600160608501819052608090940193909352601a5461ffff168252601b90522081518190613649908261552d565b506020820151600190910180546040840151606085015160809095015115156301000000027fffffffffffffffffffffffffffffffffffffffffffffffffffffffff00ffffff60ff9687166201000002167fffffffffffffffffffffffffffffffffffffffffffffffffffffffff0000ffff9287166101000261ffff19909416969095169590951791909117169190911791909117905560006136f8888860ff1660089190911b61ff00161790565b601a805460ff808c166000908152602160209081526040808320938e168352928152828220805461ffff191661ffff958616179055825180840184528554851681526001818301818152978616808552601c8452858520925183549951151562010000027fffffffffffffffffffffffffffffffffffffffffffffffffffffffffff000000909a169088161798909817909155855485168352601d82528383208054808301825590845282842060108204018054600f9092166002026101000a98890298870219909116979097179096558782526018815282822080547fffffffffffffffffffffffffffffffffffffffffffffffffffffffffffffff0016909617909555925490911682526019909252209190915550610a7691506148ab9050565b6060600060015b601a5461ffff908116908216116138795761ffff81166000908152601b60205260409020600101546301000000900460ff16156138675781613863816154b7565b9250505b806138718161550c565b915050613822565b5060008167ffffffffffffffff8111156138955761389561526a565b6040519080825280602002602001820160405280156138ef57816020015b6040805160a081018252606080825260006020808401829052938301819052908201819052608082015282526000199092019101816138b35790505b509050600060015b601a5461ffff90811690821611611b775761ffff81166000908152601b60205260409020600101546301000000900460ff1615613a455761ffff81166000908152601b602052604090819020815160a0810190925280548290829061395b90615299565b80601f016020809104026020016040519081016040528092919081815260200182805461398790615299565b80156139d45780601f106139a9576101008083540402835291602001916139d4565b820191906000526020600020905b8154815290600101906020018083116139b757829003601f168201915b50505091835250506001919091015460ff80821660208401526101008204811660408401526201000082048116606084015263010000009091041615156080909101528351849084908110613a2b57613a2b615446565b60200260200101819052508180613a41906154b7565b9250505b80613a4f8161550c565b9150506138f7565b60ff808316600090815260216020908152604080832093851683529290529081205460609161ffff90911690819003613aa0575050604080516020810190915260008152610b2b565b61ffff81166000908152601b602052604090208054613abe90615299565b80601f0160208091040260200160405190810160405280929190818152602001828054613aea90615299565b8015613b375780601f10613b0c57610100808354040283529160200191613b37565b820191906000526020600020905b815481529060010190602001808311613b1a57829003601f168201915b505050505091505092915050565b613b4d614852565b601554604051638a88895360e01b815260ff8085166004830152831660248201528391839133916001600160a01b031690638a88895390604401602060405180830381865afa158015613ba4573d6000803e3d6000fd5b505050506040513d601f19601f82011682018060405250810190613bc8919061522b565b6001600160a01b031614613c1e5760405162461bcd60e51b815260206004820152601860248201527f596f7520646f206e6f74206f776e20746869732074696c65000000000000000060448201526064016107af565b60ff8316600885901b61ff0016176000818152601e602052604090205461ffff1680613c8c5760405162461bcd60e51b815260206004820152601f60248201527f4e6f2070656e64696e6720696e7669746520666f7220746869732074696c650060448201526064016107af565b61ffff81166000908152601b60205260409020600101546301000000900460ff16613d3d5761ffff82166000908152601e602052604090819020805461ffff191690555162461bcd60e51b81526107af9060040160208082526022908201527f436c616e207761732064697362616e6465643b20696e7669746520696e76616c60408201527f6964000000000000000000000000000000000000000000000000000000000000606082015260800190565b60ff80871660009081526021602090815260408083209389168352929052205461ffff1615613dcc5761ffff82166000908152601e602052604090819020805461ffff191690555162461bcd60e51b81526107af9060040160208082526016908201527f54696c6520616c726561647920696e206120636c616e00000000000000000000604082015260600190565b61ffff81166000908152601b6020526040902060010154601e6201000090910460ff1610613e15575061ffff166000908152601e60205260409020805461ffff19169055611e36565b60ff868116600090815260216020908152604080832089851684528252808320805461ffff191661ffff8781169182179092558251808401845281815260018186018181528a8516808952601c88528689209351845492519087167fffffffffffffffffffffffffffffffffffffffffffffffffffffffffff0000009093169290921762010000921515830217909355838852601d875285882080548084018255908952878920601082040180546002600f90931683026101000a97880219169690940295909517909255918652601b90945291909320018054919091049092169190613f01836154d1565b825460ff9182166101009390930a9283029190920219909116179055505061ffff166000908152601e60205260409020805461ffff1916905550506118f76001600055565b61ffff81166000908152601b602052604081206001015481906301000000900460ff16613fb55760405162461bcd60e51b815260206004820152601360248201527f436c616e20646f6573206e6f742065786973740000000000000000000000000060448201526064016107af565b505061ffff166000908152601b602052604090206001015460ff808216926101009092041690565b601d6020528160005260406000208181548110613ff957600080fd5b9060005260206000209060109182820401919006600202915091509054906101000a900461ffff1681565b6001826014811061403457600080fd5b01816014811061404357600080fd5b602081049091015460ff601f9092166101000a9004169150829050565b601b6020526000908152604090208054819061407b90615299565b80601f01602080910402602001604051908101604052809291908181526020018280546140a790615299565b80156140f45780601f106140c9576101008083540402835291602001916140f4565b820191906000526020600020905b8154815290600101906020018083116140d757829003601f168201915b5050506001909301549192505060ff808216916101008104821691620100008204811691630100000090041685565b6001600160a01b0381166000908152602080526040902080546060919061414990615299565b80601f016020809104026020016040519081016040528092919081815260200182805461417590615299565b80156141c25780601f10614197576101008083540402835291602001916141c2565b820191906000526020600020905b8154815290600101906020018083116141a557829003601f168201915b50505050509050919050565b6141d6614852565b61ffff84166000908152601b60205260409020600101548490849084906301000000900460ff166142495760405162461bcd60e51b815260206004820152601360248201527f436c616e20646f6573206e6f742065786973740000000000000000000000000060448201526064016107af565b61ffff83166000908152601b602052604090206001015460ff8381169116148015614294575061ffff83166000908152601b602052604090206001015460ff82811661010090920416145b6142e05760405162461bcd60e51b815260206004820152600f60248201527f4e6f74206c65616465722074696c65000000000000000000000000000000000060448201526064016107af565b601554604051638a88895360e01b815260ff80851660048301528316602482015233916001600160a01b031690638a88895390604401602060405180830381865afa158015614333573d6000803e3d6000fd5b505050506040513d601f19601f82011682018060405250810190614357919061522b565b6001600160a01b0316146143ad5760405162461bcd60e51b815260206004820152601d60248201527f596f7520646f6e2774206f776e20746865206c65616465722074696c6500000060448201526064016107af565b6022546040517f6352211e0000000000000000000000000000000000000000000000000000000081526004810186905233916001600160a01b031690636352211e90602401602060405180830381865afa15801561440f573d6000803e3d6000fd5b505050506040513d601f19601f82011682018060405250810190614433919061522b565b6001600160a01b0316146144895760405162461bcd60e51b815260206004820152601660248201527f596f7520646f6e2774206f776e2074686973204e46540000000000000000000060448201526064016107af565b6022546040517f0ad4c4f4000000000000000000000000000000000000000000000000000000008152600481018690526000916001600160a01b031690630ad4c4f490602401600060405180830381865afa1580156144ec573d6000803e3d6000fd5b505050506040513d6000823e601f3d908101601f191682016040526145149190810190615675565b509950505050505050505050806001146145965760405162461bcd60e51b815260206004820152603360248201527f4f6e6c79204e4654732066726f6d20636f6c6c656374696f6e2049442031206360448201527f616e206265207573656420617320666c6167730000000000000000000000000060648201526084016107af565b6017546040517f1acc55ea00000000000000000000000000000000000000000000000000000000815260ff808a166004830152881660248201526001600160a01b0390911690631acc55ea90604401602060405180830381865afa158015614602573d6000803e3d6000fd5b505050506040513d601f19601f820116820180604052508101906146269190615248565b6146725760405162461bcd60e51b815260206004820152601960248201527f596f75206d7573742068617665206120436c616e2048616c6c0000000000000060448201526064016107af565b6016546040517f23b872dd0000000000000000000000000000000000000000000000000000000081523360048201523060248201526402540be40060448201526001600160a01b03909116906323b872dd906064016020604051808303816000875af11580156146e6573d6000803e3d6000fd5b505050506040513d601f19601f8201168201806040525081019061470a9190615248565b6147565760405162461bcd60e51b815260206004820152601360248201527f4c4f50207472616e73666572206661696c65640000000000000000000000000060448201526064016107af565b6016546040517f42966c680000000000000000000000000000000000000000000000000000000081526402540be40060048201526001600160a01b03909116906342966c68906024016020604051808303816000875af11580156147be573d6000803e3d6000fd5b505050506040513d601f19601f820116820180604052508101906147e29190615248565b61482e5760405162461bcd60e51b815260206004820152600b60248201527f4275726e206661696c656400000000000000000000000000000000000000000060448201526064016107af565b50505061ffff8516600090815260236020526040902082905550610a766001600055565b6002600054036148a45760405162461bcd60e51b815260206004820152601f60248201527f5265656e7472616e637947756172643a207265656e7472616e742063616c6c0060448201526064016107af565b6002600055565b6001600055565b805160609082906000036148c7575090919050565b60005b81518110801561493257508181815181106148e7576148e7615446565b6020910101517fff00000000000000000000000000000000000000000000000000000000000000167f2000000000000000000000000000000000000000000000000000000000000000145b156149495780614941816154b7565b9150506148ca565b8151810361496857505060408051602081019091526000815292915050565b6000600183516149789190615475565b90505b81811180156149e2575082818151811061499757614997615446565b6020910101517fff00000000000000000000000000000000000000000000000000000000000000167f2000000000000000000000000000000000000000000000000000000000000000145b156149f957806149f1816157c7565b91505061497b565b6000614a058383615475565b614a109060016157de565b67ffffffffffffffff811115614a2857614a2861526a565b6040519080825280601f01601f191660200182016040528015614a52576020820181803683370190505b50905060005b8151811015614ada5784614a6c82866157de565b81518110614a7c57614a7c615446565b602001015160f81c60f81b828281518110614a9957614a99615446565b60200101907effffffffffffffffffffffffffffffffffffffffffffffffffffffffffffff1916908160001a90535080614ad2816154b7565b915050614a58565b5095945050505050565b60608160005b8151811015614b8e576000828281518110614b0757614b07615446565b016020015160f81c905060418110801590614b265750605a8160ff1611155b15614b7b57614b368160206157f1565b60f81b838381518110614b4b57614b4b615446565b60200101907effffffffffffffffffffffffffffffffffffffffffffffffffffffffffffff1916908160001a9053505b5080614b86816154b7565b915050614aea565b5092915050565b6000614bd683838080601f0160208091040260200160405190810160405280939291908181526020018383808284376000920191909152506148b292505050565b9050600181511015614c2a5760405162461bcd60e51b815260206004820152600a60248201527f4e616d6520656d7074790000000000000000000000000000000000000000000060448201526064016107af565b60208151111561257a5760405162461bcd60e51b815260206004820152600d60248201527f4e616d6520746f6f206c6f6e670000000000000000000000000000000000000060448201526064016107af565b6000614c8f614c8a836148b2565b614ae4565b604051602001614c9f91906154f0565b604051602081830303815290604052805190602001209050919050565b50805460008255600f016010900490600052602060002090810190614ce19190614d1a565b50565b508054614cf090615299565b6000825580601f10614d00575050565b601f016020900490600052602060002090810190614ce191905b5b80821115614d2f5760008155600101614d1b565b5090565b803560ff81168114614d4457600080fd5b919050565b60008083601f840112614d5b57600080fd5b50813567ffffffffffffffff811115614d7357600080fd5b602083019150836020828501011115614d8b57600080fd5b9250929050565b60008060008060608587031215614da857600080fd5b614db185614d33565b9350614dbf60208601614d33565b9250604085013567ffffffffffffffff811115614ddb57600080fd5b614de787828801614d49565b95989497509550505050565b60008060408385031215614e0657600080fd5b614e0f83614d33565b9150614e1d60208401614d33565b90509250929050565b60005b83811015614e41578181015183820152602001614e29565b50506000910152565b60008151808452614e62816020860160208601614e26565b601f01601f19169290920160200192915050565b602081526000614e896020830184614e4a565b9392505050565b6001600160a01b0381168114614ce157600080fd5b600060208284031215614eb757600080fd5b8135614e8981614e90565b803561ffff81168114614d4457600080fd5b600080600080600060a08688031215614eec57600080fd5b614ef586614ec2565b9450614f0360208701614d33565b9350614f1160408701614d33565b9250614f1f60608701614d33565b9150614f2d60808701614d33565b90509295509295909350565b602080825282518282018190526000919060409081850190868401855b82811015614f9a578151805160ff90811686528782015116878601528581015161ffff16868601526060908101519085015260809093019290850190600101614f56565b5091979650505050505050565b60008060208385031215614fba57600080fd5b823567ffffffffffffffff811115614fd157600080fd5b614fdd85828601614d49565b90969095509350505050565b600060208284031215614ffb57600080fd5b5035919050565b60006020828403121561501457600080fd5b614e8982614ec2565b60008060006060848603121561503257600080fd5b61503b84614ec2565b925061504960208501614d33565b915061505760408501614d33565b90509250925092565b6000815160a0845261507560a0850182614e4a565b905060ff602084015116602085015260ff604084015116604085015260ff60608401511660608501526080830151151560808501528091505092915050565b602081526000614e896020830184615060565b6000602080830181845280855180835260408601915060408160051b870101925083870160005b8281101561513a577fffffffffffffffffffffffffffffffffffffffffffffffffffffffffffffffc0888603018452615128858351615060565b945092850192908501906001016150ee565b5092979650505050505050565b6000806040838503121561515a57600080fd5b61516383614ec2565b946020939093013593505050565b6000806040838503121561518457600080fd5b50508035926020909101359150565b60a0815260006151a660a0830188614e4a565b905060ff8616602083015260ff8516604083015260ff8416606083015282151560808301529695505050505050565b600080600080608085870312156151eb57600080fd5b6151f485614ec2565b935061520260208601614d33565b925061521060408601614d33565b9396929550929360600135925050565b8051614d4481614e90565b60006020828403121561523d57600080fd5b8151614e8981614e90565b60006020828403121561525a57600080fd5b81518015158114614e8957600080fd5b7f4e487b7100000000000000000000000000000000000000000000000000000000600052604160045260246000fd5b600181811c908216806152ad57607f821691505b6020821081036152e6577f4e487b7100000000000000000000000000000000000000000000000000000000600052602260045260246000fd5b50919050565b601f82111561257a57600081815260208120601f850160051c810160208610156153135750805b601f850160051c820191505b818110156153325782815560010161531f565b505050505050565b67ffffffffffffffff8311156153525761535261526a565b615366836153608354615299565b836152ec565b6000601f84116001811461539a57600085156153825750838201355b600019600387901b1c1916600186901b178355611143565b600083815260209020601f19861690835b828110156153cb57868501358255602094850194600190920191016153ab565b50868210156153e85760001960f88860031b161c19848701351681555b505060018560011b0183555050505050565b7f4e487b7100000000000000000000000000000000000000000000000000000000600052601160045260246000fd5b600060ff82168061543c5761543c6153fa565b6000190192915050565b7f4e487b7100000000000000000000000000000000000000000000000000000000600052603260045260246000fd5b81810381811115610b2b57610b2b6153fa565b7f4e487b7100000000000000000000000000000000000000000000000000000000600052603160045260246000fd5b600060001982036154ca576154ca6153fa565b5060010190565b600060ff821660ff81036154e7576154e76153fa565b60010192915050565b60008251615502818460208701614e26565b9190910192915050565b600061ffff808316818103615523576155236153fa565b6001019392505050565b815167ffffffffffffffff8111156155475761554761526a565b61555b816155558454615299565b846152ec565b602080601f83116001811461559057600084156155785750858301515b600019600386901b1c1916600185901b178555615332565b600085815260208120601f198616915b828110156155bf578886015182559484019460019091019084016155a0565b50858210156155dd5787850151600019600388901b60f8161c191681555b5050505050600190811b01905550565b600082601f8301126155fe57600080fd5b815167ffffffffffffffff808211156156195761561961526a565b604051601f8301601f19908116603f011681019082821181831017156156415761564161526a565b8160405283815286602085880101111561565a57600080fd5b61566b846020830160208901614e26565b9695505050505050565b60008060008060008060008060008060006101608c8e03121561569757600080fd5b8b5167ffffffffffffffff8111156156ae57600080fd5b6156ba8e828f016155ed565b9b505060208c015167ffffffffffffffff8111156156d757600080fd5b6156e38e828f016155ed565b9a505060408c015167ffffffffffffffff81111561570057600080fd5b61570c8e828f016155ed565b99505060608c015167ffffffffffffffff81111561572957600080fd5b6157358e828f016155ed565b98505061574460808d01615220565b965060a08c0151955060c08c0151945060e08c015167ffffffffffffffff81111561576e57600080fd5b61577a8e828f016155ed565b9450506101008c015167ffffffffffffffff81111561579857600080fd5b6157a48e828f016155ed565b9350506101208c015191506101408c015190509295989b509295989b9093969950565b6000816157d6576157d66153fa565b506000190190565b80820180821115610b2b57610b2b6153fa565b60ff8181168382160190811115610b2b57610b2b6153fa56fea2646970667358221220d08c5aceafc59325ed7a7f4d96d9d618aa34ad9a54212547d99bf1012d425a3364736f6c63430008120033",
			"opcodes": "PUSH1 0x4 PUSH2 0x300 DUP2 DUP2 MSTORE PUSH2 0x320 DUP3 SWAP1 MSTORE PUSH2 0x340 DUP3 SWAP1 MSTORE PUSH2 0x360 DUP3 SWAP1 MSTORE PUSH2 0x380 DUP3 SWAP1 MSTORE PUSH2 0x3A0 DUP3 SWAP1 MSTORE PUSH1 0x3 PUSH2 0x3C0 DUP2 SWAP1 MSTORE PUSH2 0x3E0 DUP2 SWAP1 MSTORE PUSH2 0x400 DUP2 SWAP1 MSTORE PUSH2 0x420 DUP2 SWAP1 MSTORE PUSH2 0x440 DUP2 SWAP1 MSTORE PUSH2 0x460 DUP2 SWAP1 MSTORE PUSH1 0x2 PUSH2 0x480 DUP2 SWAP1 MSTORE PUSH2 0x4A0 DUP2 SWAP1 MSTORE PUSH1 0x1 PUSH2 0x4C0 DUP2 SWAP1 MSTORE PUSH2 0x4E0 DUP3 SWAP1 MSTORE PUSH2 0x500 DUP3 SWAP1 MSTORE PUSH2 0x520 DUP3 SWAP1 MSTORE PUSH2 0x540 DUP3 SWAP1 MSTORE PUSH2 0x560 DUP3 SWAP1 MSTORE PUSH1 0x80 SWAP4 DUP5 MSTORE PUSH2 0x580 DUP6 DUP2 MSTORE PUSH2 0x5A0 DUP7 SWAP1 MSTORE PUSH2 0x5C0 DUP7 SWAP1 MSTORE PUSH2 0x5E0 DUP7 SWAP1 MSTORE PUSH2 0x600 DUP7 SWAP1 MSTORE PUSH2 0x620 DUP7 SWAP1 MSTORE PUSH2 0x640 DUP7 SWAP1 MSTORE PUSH2 0x660 DUP5 SWAP1 MSTORE PUSH2 0x680 DUP5 SWAP1 MSTORE PUSH2 0x6A0 DUP5 SWAP1 MSTORE PUSH2 0x6C0 DUP5 SWAP1 MSTORE PUSH2 0x6E0 DUP5 SWAP1 MSTORE PUSH2 0x700 DUP4 SWAP1 MSTORE PUSH2 0x720 DUP3 SWAP1 MSTORE PUSH2 0x740 DUP3 SWAP1 MSTORE PUSH2 0x760 DUP4 SWAP1 MSTORE PUSH2 0x780 DUP4 SWAP1 MSTORE PUSH2 0x7A0 DUP4 SWAP1 MSTORE PUSH2 0x7C0 DUP4 SWAP1 MSTORE PUSH2 0x7E0 DUP4 SWAP1 MSTORE PUSH1 0xA0 MSTORE PUSH2 0x800 DUP6 DUP2 MSTORE PUSH2 0x820 DUP7 SWAP1 MSTORE PUSH2 0x840 DUP7 SWAP1 MSTORE PUSH2 0x860 DUP7 SWAP1 MSTORE PUSH2 0x880 DUP7 SWAP1 MSTORE PUSH2 0x8A0 DUP7 SWAP1 MSTORE PUSH2 0x8C0 DUP7 SWAP1 MSTORE PUSH2 0x8E0 DUP7 SWAP1 MSTORE PUSH2 0x900 DUP5 SWAP1 MSTORE PUSH2 0x920 DUP5 SWAP1 MSTORE PUSH2 0x940 DUP5 SWAP1 MSTORE PUSH2 0x960 DUP5 SWAP1 MSTORE PUSH2 0x980 DUP4 SWAP1 MSTORE PUSH2 0x9A0 DUP4 SWAP1 MSTORE PUSH2 0x9C0 DUP3 SWAP1 MSTORE PUSH2 0x9E0 DUP3 SWAP1 MSTORE PUSH2 0xA00 DUP4 SWAP1 MSTORE PUSH2 0xA20 DUP4 SWAP1 MSTORE PUSH2 0xA40 DUP4 SWAP1 MSTORE PUSH2 0xA60 DUP4 SWAP1 MSTORE PUSH1 0xC0 MSTORE PUSH2 0xA80 DUP6 DUP2 MSTORE PUSH2 0xAA0 DUP7 SWAP1 MSTORE PUSH2 0xAC0 DUP7 SWAP1 MSTORE PUSH2 0xAE0 DUP7 SWAP1 MSTORE PUSH2 0xB00 DUP7 SWAP1 MSTORE PUSH2 0xB20 DUP7 SWAP1 MSTORE PUSH2 0xB40 DUP7 SWAP1 MSTORE PUSH2 0xB60 SWAP6 SWAP1 SWAP6 MSTORE PUSH2 0xB80 DUP4 SWAP1 MSTORE PUSH2 0xBA0 DUP4 SWAP1 MSTORE PUSH2 0xBC0 DUP4 SWAP1 MSTORE PUSH2 0xBE0 DUP4 SWAP1 MSTORE PUSH2 0xC00 DUP4 SWAP1 MSTORE PUSH2 0xC20 DUP2 SWAP1 MSTORE PUSH2 0xC40 DUP2 SWAP1 MSTORE PUSH2 0xC60 DUP2 SWAP1 MSTORE PUSH2 0xC80 DUP3 SWAP1 MSTORE PUSH2 0xCA0 DUP3 SWAP1 MSTORE PUSH2 0xCC0 DUP3 SWAP1 MSTORE PUSH2 0xCE0 DUP3 SWAP1 MSTORE PUSH1 0xE0 SWAP5 SWAP1 SWAP5 MSTORE PUSH2 0xD00 DUP3 DUP2 MSTORE PUSH2 0xD20 DUP4 SWAP1 MSTORE PUSH2 0xD40 DUP4 SWAP1 MSTORE PUSH2 0xD60 DUP4 SWAP1 MSTORE PUSH2 0xD80 DUP4 SWAP1 MSTORE PUSH2 0xDA0 DUP4 SWAP1 MSTORE PUSH2 0xDC0 DUP4 SWAP1 MSTORE PUSH2 0xDE0 DUP4 SWAP1 MSTORE PUSH2 0xE00 DUP4 SWAP1 MSTORE PUSH2 0xE20 DUP4 SWAP1 MSTORE PUSH2 0xE40 DUP4 SWAP1 MSTORE PUSH2 0xE60 DUP4 SWAP1 MSTORE PUSH2 0xE80 DUP6 SWAP1 MSTORE PUSH2 0xEA0 DUP6 SWAP1 MSTORE PUSH2 0xEC0 DUP6 SWAP1 MSTORE PUSH2 0xEE0 DUP6 SWAP1 MSTORE PUSH2 0xF00 DUP3 SWAP1 MSTORE PUSH2 0xF20 DUP3 SWAP1 MSTORE PUSH2 0xF40 DUP3 SWAP1 MSTORE PUSH2 0xF60 DUP3 SWAP1 MSTORE PUSH2 0x100 MSTORE PUSH2 0xF80 DUP3 DUP2 MSTORE PUSH2 0xFA0 DUP4 SWAP1 MSTORE PUSH2 0xFC0 DUP4 SWAP1 MSTORE PUSH2 0xFE0 DUP4 SWAP1 MSTORE PUSH2 0x1000 DUP4 SWAP1 MSTORE PUSH2 0x1020 DUP4 SWAP1 MSTORE PUSH2 0x1040 DUP4 SWAP1 MSTORE PUSH2 0x1060 DUP4 SWAP1 MSTORE PUSH2 0x1080 DUP4 SWAP1 MSTORE PUSH2 0x10A0 DUP4 SWAP1 MSTORE PUSH2 0x10C0 DUP4 SWAP1 MSTORE PUSH2 0x10E0 DUP4 SWAP1 MSTORE PUSH2 0x1100 DUP6 SWAP1 MSTORE PUSH2 0x1120 DUP6 SWAP1 MSTORE PUSH2 0x1140 DUP6 SWAP1 MSTORE PUSH2 0x1160 DUP6 SWAP1 MSTORE PUSH2 0x1180 DUP3 SWAP1 MSTORE PUSH2 0x11A0 DUP3 SWAP1 MSTORE PUSH2 0x11C0 DUP3 SWAP1 MSTORE PUSH2 0x11E0 DUP3 SWAP1 MSTORE PUSH2 0x120 MSTORE PUSH2 0x1200 DUP3 DUP2 MSTORE PUSH2 0x1220 DUP4 SWAP1 MSTORE PUSH2 0x1240 DUP4 SWAP1 MSTORE PUSH2 0x1260 DUP4 SWAP1 MSTORE PUSH2 0x1280 DUP4 SWAP1 MSTORE PUSH2 0x12A0 DUP4 SWAP1 MSTORE PUSH2 0x12C0 DUP4 SWAP1 MSTORE PUSH2 0x12E0 DUP4 SWAP1 MSTORE PUSH2 0x1300 DUP4 SWAP1 MSTORE PUSH2 0x1320 DUP4 SWAP1 MSTORE PUSH2 0x1340 DUP4 SWAP1 MSTORE PUSH2 0x1360 DUP4 SWAP1 MSTORE PUSH2 0x1380 DUP6 SWAP1 MSTORE PUSH2 0x13A0 DUP6 SWAP1 MSTORE PUSH2 0x13C0 DUP6 SWAP1 MSTORE PUSH2 0x13E0 DUP6 SWAP1 MSTORE PUSH2 0x1400 DUP6 SWAP1 MSTORE PUSH2 0x1420 DUP6 SWAP1 MSTORE PUSH2 0x1440 DUP6 SWAP1 MSTORE PUSH2 0x1460 DUP6 SWAP1 MSTORE PUSH2 0x140 MSTORE PUSH2 0x1480 DUP3 DUP2 MSTORE PUSH2 0x14A0 DUP4 SWAP1 MSTORE PUSH2 0x14C0 DUP4 SWAP1 MSTORE PUSH2 0x14E0 DUP6 SWAP1 MSTORE PUSH2 0x1500 DUP4 SWAP1 MSTORE PUSH2 0x1520 DUP4 SWAP1 MSTORE PUSH2 0x1540 DUP4 SWAP1 MSTORE PUSH2 0x1560 DUP4 SWAP1 MSTORE PUSH2 0x1580 DUP4 SWAP1 MSTORE PUSH2 0x15A0 DUP4 SWAP1 MSTORE PUSH2 0x15C0 DUP4 SWAP1 MSTORE PUSH2 0x15E0 DUP6 SWAP1 MSTORE PUSH2 0x1600 DUP3 SWAP1 MSTORE PUSH2 0x1620 DUP3 SWAP1 MSTORE PUSH2 0x1640 DUP3 SWAP1 MSTORE PUSH2 0x1660 DUP3 SWAP1 MSTORE PUSH2 0x1680 DUP6 SWAP1 MSTORE PUSH2 0x16A0 DUP6 SWAP1 MSTORE PUSH2 0x16C0 DUP6 SWAP1 MSTORE PUSH2 0x16E0 DUP6 SWAP1 MSTORE PUSH2 0x160 MSTORE PUSH2 0x1700 DUP3 DUP2 MSTORE PUSH2 0x1720 DUP4 SWAP1 MSTORE PUSH2 0x1740 DUP4 SWAP1 MSTORE PUSH2 0x1760 DUP6 SWAP1 MSTORE PUSH2 0x1780 DUP6 SWAP1 MSTORE PUSH2 0x17A0 DUP3 SWAP1 MSTORE PUSH2 0x17C0 DUP3 SWAP1 MSTORE PUSH2 0x17E0 DUP3 SWAP1 MSTORE PUSH2 0x1800 DUP3 SWAP1 MSTORE PUSH2 0x1820 DUP3 SWAP1 MSTORE PUSH2 0x1840 DUP3 SWAP1 MSTORE PUSH2 0x1860 DUP6 SWAP1 MSTORE PUSH2 0x1880 DUP3 SWAP1 MSTORE PUSH2 0x18A0 DUP3 SWAP1 MSTORE PUSH2 0x18C0 DUP3 SWAP1 MSTORE PUSH2 0x18E0 DUP3 SWAP1 MSTORE PUSH2 0x1900 DUP3 SWAP1 MSTORE PUSH2 0x1920 DUP3 SWAP1 MSTORE PUSH2 0x1940 DUP3 SWAP1 MSTORE PUSH2 0x1960 DUP6 SWAP1 MSTORE PUSH2 0x180 MSTORE PUSH2 0x1980 DUP5 DUP2 MSTORE PUSH2 0x19A0 DUP3 SWAP1 MSTORE PUSH2 0x19C0 DUP3 SWAP1 MSTORE PUSH2 0x19E0 DUP6 SWAP1 MSTORE PUSH2 0x1A00 DUP3 SWAP1 MSTORE PUSH2 0x1A20 DUP3 SWAP1 MSTORE PUSH2 0x1A40 DUP3 SWAP1 MSTORE PUSH2 0x1A60 DUP3 SWAP1 MSTORE PUSH2 0x1A80 DUP3 SWAP1 MSTORE PUSH2 0x1AA0 DUP3 SWAP1 MSTORE PUSH2 0x1AC0 DUP3 SWAP1 MSTORE PUSH2 0x1AE0 DUP6 SWAP1 MSTORE PUSH2 0x1B00 DUP3 SWAP1 MSTORE PUSH2 0x1B20 DUP3 SWAP1 MSTORE PUSH2 0x1B40 DUP3 SWAP1 MSTORE PUSH2 0x1B60 DUP3 SWAP1 MSTORE PUSH2 0x1B80 DUP3 SWAP1 MSTORE PUSH2 0x1BA0 DUP3 SWAP1 MSTORE PUSH2 0x1BC0 DUP3 SWAP1 MSTORE PUSH2 0x1BE0 DUP6 SWAP1 MSTORE PUSH2 0x1A0 MSTORE PUSH2 0x1C00 DUP2 DUP2 MSTORE PUSH2 0x1C20 DUP3 SWAP1 MSTORE PUSH2 0x1C40 DUP6 SWAP1 MSTORE PUSH2 0x1C60 DUP6 SWAP1 MSTORE PUSH2 0x1C80 DUP3 SWAP1 MSTORE PUSH2 0x1CA0 DUP3 SWAP1 MSTORE PUSH2 0x1CC0 DUP3 SWAP1 MSTORE PUSH2 0x1CE0 DUP3 SWAP1 MSTORE PUSH2 0x1D00 DUP3 SWAP1 MSTORE PUSH2 0x1D20 DUP3 SWAP1 MSTORE PUSH2 0x1D40 DUP6 SWAP1 MSTORE PUSH2 0x1D60 DUP6 SWAP1 MSTORE PUSH2 0x1D80 DUP3 SWAP1 MSTORE PUSH2 0x1DA0 DUP3 SWAP1 MSTORE PUSH2 0x1DC0 DUP3 SWAP1 MSTORE PUSH2 0x1DE0 DUP3 SWAP1 MSTORE PUSH2 0x1E00 DUP3 SWAP1 MSTORE PUSH2 0x1E20 DUP3 SWAP1 MSTORE PUSH2 0x1E40 DUP6 SWAP1 MSTORE PUSH2 0x1E60 DUP6 SWAP1 MSTORE PUSH2 0x1C0 MSTORE PUSH2 0x1E80 DUP3 DUP2 MSTORE PUSH2 0x1EA0 DUP4 SWAP1 MSTORE PUSH2 0x1EC0 DUP4 SWAP1 MSTORE PUSH2 0x1EE0 DUP3 SWAP1 MSTORE PUSH2 0x1F00 DUP6 SWAP1 MSTORE PUSH2 0x1F20 DUP3 SWAP1 MSTORE PUSH2 0x1F40 DUP3 SWAP1 MSTORE PUSH2 0x1F60 DUP3 SWAP1 MSTORE PUSH2 0x1F80 DUP3 SWAP1 MSTORE PUSH2 0x1FA0 DUP3 SWAP1 MSTORE PUSH2 0x1FC0 DUP6 SWAP1 MSTORE PUSH2 0x1FE0 DUP3 SWAP1 MSTORE PUSH2 0x2000 DUP3 SWAP1 MSTORE PUSH2 0x2020 DUP3 SWAP1 MSTORE PUSH2 0x2040 DUP3 SWAP1 MSTORE PUSH2 0x2060 DUP6 SWAP1 MSTORE PUSH2 0x2080 DUP6 SWAP1 MSTORE PUSH2 0x20A0 DUP6 SWAP1 MSTORE PUSH2 0x20C0 DUP6 SWAP1 MSTORE PUSH2 0x20E0 DUP6 SWAP1 MSTORE PUSH2 0x1E0 MSTORE PUSH2 0x2100 DUP3 DUP2 MSTORE PUSH2 0x2120 DUP4 SWAP1 MSTORE PUSH2 0x2140 DUP4 SWAP1 MSTORE PUSH2 0x2160 DUP4 SWAP1 MSTORE PUSH2 0x2180 DUP6 SWAP1 MSTORE PUSH2 0x21A0 DUP6 SWAP1 MSTORE PUSH2 0x21C0 DUP3 SWAP1 MSTORE PUSH2 0x21E0 DUP3 SWAP1 MSTORE PUSH2 0x2200 DUP3 SWAP1 MSTORE PUSH2 0x2220 DUP3 SWAP1 MSTORE PUSH2 0x2240 DUP6 SWAP1 MSTORE PUSH2 0x2260 DUP6 SWAP1 MSTORE PUSH2 0x2280 DUP3 SWAP1 MSTORE PUSH2 0x22A0 DUP3 SWAP1 MSTORE PUSH2 0x22C0 DUP3 SWAP1 MSTORE PUSH2 0x22E0 DUP6 SWAP1 MSTORE PUSH2 0x2300 DUP6 SWAP1 MSTORE PUSH2 0x2320 DUP6 SWAP1 MSTORE PUSH2 0x2340 DUP6 SWAP1 MSTORE PUSH2 0x2360 DUP6 SWAP1 MSTORE PUSH2 0x200 MSTORE PUSH2 0x2380 DUP3 DUP2 MSTORE PUSH2 0x23A0 DUP4 SWAP1 MSTORE PUSH2 0x23C0 DUP4 SWAP1 MSTORE PUSH2 0x23E0 DUP4 SWAP1 MSTORE PUSH2 0x2400 DUP4 SWAP1 MSTORE PUSH2 0x2420 DUP6 SWAP1 MSTORE PUSH2 0x2440 DUP3 SWAP1 MSTORE PUSH2 0x2460 DUP3 SWAP1 MSTORE PUSH2 0x2480 DUP3 SWAP1 MSTORE PUSH2 0x24A0 DUP3 SWAP1 MSTORE PUSH2 0x24C0 DUP6 SWAP1 MSTORE PUSH2 0x24E0 DUP6 SWAP1 MSTORE PUSH2 0x2500 DUP6 SWAP1 MSTORE PUSH2 0x2520 DUP3 SWAP1 MSTORE PUSH2 0x2540 DUP3 SWAP1 MSTORE PUSH2 0x2560 DUP3 SWAP1 MSTORE PUSH2 0x2580 DUP3 SWAP1 MSTORE PUSH2 0x25A0 DUP6 SWAP1 MSTORE PUSH2 0x25C0 DUP6 SWAP1 MSTORE PUSH2 0x25E0 DUP6 SWAP1 MSTORE PUSH2 0x220 MSTORE PUSH2 0x2600 DUP3 DUP2 MSTORE PUSH2 0x2620 DUP4 SWAP1 MSTORE PUSH2 0x2640 DUP4 SWAP1 MSTORE PUSH2 0x2660 DUP4 SWAP1 MSTORE PUSH2 0x2680 DUP4 SWAP1 MSTORE PUSH2 0x26A0 DUP3 SWAP1 MSTORE PUSH2 0x26C0 DUP3 SWAP1 MSTORE PUSH2 0x26E0 DUP3 SWAP1 MSTORE PUSH2 0x2700 DUP4 SWAP1 MSTORE PUSH2 0x2720 DUP4 SWAP1 MSTORE PUSH2 0x2740 DUP3 SWAP1 MSTORE PUSH2 0x2760 DUP3 SWAP1 MSTORE PUSH2 0x2780 DUP6 SWAP1 MSTORE PUSH2 0x27A0 DUP3 SWAP1 MSTORE PUSH2 0x27C0 DUP3 SWAP1 MSTORE PUSH2 0x27E0 DUP3 SWAP1 MSTORE PUSH2 0x2800 DUP3 SWAP1 MSTORE PUSH2 0x2820 DUP6 SWAP1 MSTORE PUSH2 0x2840 DUP6 SWAP1 MSTORE PUSH2 0x2860 DUP6 SWAP1 MSTORE PUSH2 0x240 MSTORE PUSH2 0x2880 DUP2 DUP2 MSTORE PUSH2 0x28A0 DUP3 SWAP1 MSTORE PUSH2 0x28C0 DUP3 SWAP1 MSTORE PUSH2 0x28E0 DUP6 SWAP1 MSTORE PUSH2 0x2900 DUP6 SWAP1 MSTORE PUSH2 0x2920 DUP6 SWAP1 MSTORE PUSH2 0x2940 DUP6 SWAP1 MSTORE PUSH2 0x2960 DUP6 SWAP1 MSTORE PUSH2 0x2980 DUP4 SWAP1 MSTORE PUSH2 0x29A0 DUP4 SWAP1 MSTORE PUSH2 0x29C0 DUP4 SWAP1 MSTORE PUSH2 0x29E0 DUP4 SWAP1 MSTORE PUSH2 0x2A00 DUP6 SWAP1 MSTORE PUSH2 0x2A20 DUP6 SWAP1 MSTORE PUSH2 0x2A40 DUP3 SWAP1 MSTORE PUSH2 0x2A60 DUP3 SWAP1 MSTORE PUSH2 0x2A80 DUP3 SWAP1 MSTORE PUSH2 0x2AA0 DUP6 SWAP1 MSTORE PUSH2 0x2AC0 DUP6 SWAP1 MSTORE PUSH2 0x2AE0 DUP6 SWAP1 MSTORE PUSH2 0x260 MSTORE PUSH2 0x2B00 DUP2 DUP2 MSTORE PUSH2 0x2B20 DUP3 SWAP1 MSTORE PUSH2 0x2B40 DUP3 SWAP1 MSTORE PUSH2 0x2B60 DUP3 SWAP1 MSTORE PUSH2 0x2B80 DUP3 SWAP1 MSTORE PUSH2 0x2BA0 DUP3 SWAP1 MSTORE PUSH2 0x2BC0 DUP6 SWAP1 MSTORE PUSH2 0x2BE0 DUP6 SWAP1 MSTORE PUSH2 0x2C00 DUP4 SWAP1 MSTORE PUSH2 0x2C20 DUP4 SWAP1 MSTORE PUSH2 0x2C40 DUP4 SWAP1 MSTORE PUSH2 0x2C60 DUP4 SWAP1 MSTORE PUSH2 0x2C80 DUP6 SWAP1 MSTORE PUSH2 0x2CA0 DUP6 SWAP1 MSTORE PUSH2 0x2CC0 DUP6 SWAP1 MSTORE PUSH2 0x2CE0 DUP6 SWAP1 MSTORE PUSH2 0x2D00 DUP4 SWAP1 MSTORE PUSH2 0x2D20 DUP4 SWAP1 MSTORE PUSH2 0x2D40 DUP3 SWAP1 MSTORE PUSH2 0x2D60 DUP3 SWAP1 MSTORE PUSH2 0x280 MSTORE PUSH2 0x2D80 DUP2 DUP2 MSTORE PUSH2 0x2DA0 DUP3 SWAP1 MSTORE PUSH2 0x2DC0 DUP3 SWAP1 MSTORE PUSH2 0x2DE0 DUP3 SWAP1 MSTORE PUSH2 0x2E00 DUP3 SWAP1 MSTORE PUSH2 0x2E20 DUP3 SWAP1 MSTORE PUSH2 0x2E40 DUP3 SWAP1 MSTORE PUSH2 0x2E60 DUP6 SWAP1 MSTORE PUSH2 0x2E80 DUP4 SWAP1 MSTORE PUSH2 0x2EA0 DUP4 SWAP1 MSTORE PUSH2 0x2EC0 DUP4 SWAP1 MSTORE PUSH2 0x2EE0 DUP4 SWAP1 MSTORE PUSH2 0x2F00 DUP6 SWAP1 MSTORE PUSH2 0x2F20 DUP6 SWAP1 MSTORE PUSH2 0x2F40 DUP6 SWAP1 MSTORE PUSH2 0x2F60 DUP6 SWAP1 MSTORE PUSH2 0x2F80 DUP4 SWAP1 MSTORE PUSH2 0x2FA0 DUP4 SWAP1 MSTORE PUSH2 0x2FC0 DUP3 SWAP1 MSTORE PUSH2 0x2FE0 DUP3 SWAP1 MSTORE PUSH2 0x2A0 MSTORE PUSH2 0x3000 DUP2 DUP2 MSTORE PUSH2 0x3020 DUP3 SWAP1 MSTORE PUSH2 0x3040 DUP3 SWAP1 MSTORE PUSH2 0x3060 DUP3 SWAP1 MSTORE PUSH2 0x3080 DUP3 SWAP1 MSTORE PUSH2 0x30A0 DUP3 SWAP1 MSTORE PUSH2 0x30C0 DUP3 SWAP1 MSTORE PUSH2 0x30E0 DUP6 SWAP1 MSTORE PUSH2 0x3100 DUP6 SWAP1 MSTORE PUSH2 0x3120 DUP3 SWAP1 MSTORE PUSH2 0x3140 DUP3 SWAP1 MSTORE PUSH2 0x3160 DUP6 SWAP1 MSTORE PUSH2 0x3180 DUP6 SWAP1 MSTORE PUSH2 0x31A0 DUP3 SWAP1 MSTORE PUSH2 0x31C0 DUP3 SWAP1 MSTORE PUSH2 0x31E0 DUP6 SWAP1 MSTORE PUSH2 0x3200 DUP4 SWAP1 MSTORE PUSH2 0x3220 DUP4 SWAP1 MSTORE PUSH2 0x3240 DUP3 SWAP1 MSTORE PUSH2 0x3260 DUP3 SWAP1 MSTORE PUSH2 0x2C0 MSTORE PUSH2 0x3500 PUSH1 0x40 MSTORE PUSH2 0x3280 DUP2 DUP2 MSTORE PUSH2 0x32A0 DUP3 SWAP1 MSTORE PUSH2 0x32C0 DUP3 SWAP1 MSTORE PUSH2 0x32E0 DUP3 SWAP1 MSTORE PUSH2 0x3300 DUP3 SWAP1 MSTORE PUSH2 0x3320 DUP3 SWAP1 MSTORE PUSH2 0x3340 DUP3 SWAP1 MSTORE PUSH2 0x3360 DUP6 SWAP1 MSTORE PUSH2 0x3380 DUP6 SWAP1 MSTORE PUSH2 0x33A0 DUP6 SWAP1 MSTORE PUSH2 0x33C0 DUP6 SWAP1 MSTORE PUSH2 0x33E0 DUP6 SWAP1 MSTORE PUSH2 0x3400 DUP6 SWAP1 MSTORE PUSH2 0x3420 DUP6 SWAP1 MSTORE PUSH2 0x3440 DUP6 SWAP1 MSTORE PUSH2 0x3460 DUP4 SWAP1 MSTORE PUSH2 0x3480 DUP4 SWAP1 MSTORE PUSH2 0x34A0 SWAP3 SWAP1 SWAP3 MSTORE PUSH2 0x34C0 DUP2 SWAP1 MSTORE PUSH2 0x34E0 MSTORE PUSH2 0x2E0 MSTORE PUSH3 0x9CC SWAP2 SWAP1 PUSH1 0x14 PUSH3 0xA56 JUMP JUMPDEST POP CALLVALUE DUP1 ISZERO PUSH3 0x9DA JUMPI PUSH1 0x0 DUP1 REVERT JUMPDEST POP PUSH1 0x40 MLOAD PUSH3 0x6433 CODESIZE SUB DUP1 PUSH3 0x6433 DUP4 CODECOPY DUP2 ADD PUSH1 0x40 DUP2 SWAP1 MSTORE PUSH3 0x9FD SWAP2 PUSH3 0xB86 JUMP JUMPDEST PUSH1 0x1 PUSH1 0x0 SSTORE PUSH1 0x15 DUP1 SLOAD PUSH1 0x1 PUSH1 0x1 PUSH1 0xA0 SHL SUB SWAP6 DUP7 AND PUSH1 0x1 PUSH1 0x1 PUSH1 0xA0 SHL SUB NOT SWAP2 DUP3 AND OR SWAP1 SWAP2 SSTORE PUSH1 0x16 DUP1 SLOAD SWAP5 DUP7 AND SWAP5 DUP3 AND SWAP5 SWAP1 SWAP5 OR SWAP1 SWAP4 SSTORE PUSH1 0x22 DUP1 SLOAD SWAP3 DUP6 AND SWAP3 DUP5 AND SWAP3 SWAP1 SWAP3 OR SWAP1 SWAP2 SSTORE PUSH1 0x17 DUP1 SLOAD SWAP2 SWAP1 SWAP4 AND SWAP2 AND OR SWAP1 SSTORE PUSH3 0xBE3 JUMP JUMPDEST DUP3 PUSH1 0x14 DUP2 ADD SWAP3 DUP3 ISZERO PUSH3 0xA95 JUMPI SWAP2 PUSH1 0x20 MUL DUP3 ADD JUMPDEST DUP3 DUP2 GT ISZERO PUSH3 0xA95 JUMPI DUP3 MLOAD PUSH3 0xA84 SWAP1 DUP4 SWAP1 PUSH1 0x14 PUSH3 0xAA7 JUMP JUMPDEST POP SWAP2 PUSH1 0x20 ADD SWAP2 SWAP1 PUSH1 0x1 ADD SWAP1 PUSH3 0xA6A JUMP JUMPDEST POP PUSH3 0xAA3 SWAP3 SWAP2 POP PUSH3 0xB3D JUMP JUMPDEST POP SWAP1 JUMP JUMPDEST PUSH1 0x1 DUP4 ADD SWAP2 DUP4 SWAP1 DUP3 ISZERO PUSH3 0xB2F JUMPI SWAP2 PUSH1 0x20 MUL DUP3 ADD PUSH1 0x0 JUMPDEST DUP4 DUP3 GT ISZERO PUSH3 0xAFE JUMPI DUP4 MLOAD DUP4 DUP3 PUSH2 0x100 EXP DUP2 SLOAD DUP2 PUSH1 0xFF MUL NOT AND SWAP1 DUP4 PUSH1 0xFF AND MUL OR SWAP1 SSTORE POP SWAP3 PUSH1 0x20 ADD SWAP3 PUSH1 0x1 ADD PUSH1 0x20 DUP2 PUSH1 0x0 ADD DIV SWAP3 DUP4 ADD SWAP3 PUSH1 0x1 SUB MUL PUSH3 0xABE JUMP JUMPDEST DUP1 ISZERO PUSH3 0xB2D JUMPI DUP3 DUP2 PUSH2 0x100 EXP DUP2 SLOAD SWAP1 PUSH1 0xFF MUL NOT AND SWAP1 SSTORE PUSH1 0x1 ADD PUSH1 0x20 DUP2 PUSH1 0x0 ADD DIV SWAP3 DUP4 ADD SWAP3 PUSH1 0x1 SUB MUL PUSH3 0xAFE JUMP JUMPDEST POP JUMPDEST POP PUSH3 0xAA3 SWAP3 SWAP2 POP PUSH3 0xB53 JUMP JUMPDEST DUP1 DUP3 GT ISZERO PUSH3 0xAA3 JUMPI PUSH1 0x0 DUP2 SSTORE PUSH1 0x1 ADD PUSH3 0xB3D JUMP JUMPDEST DUP1 DUP3 GT ISZERO PUSH3 0xAA3 JUMPI PUSH1 0x0 DUP2 SSTORE PUSH1 0x1 ADD PUSH3 0xB3D JUMP JUMPDEST DUP1 MLOAD PUSH1 0x1 PUSH1 0x1 PUSH1 0xA0 SHL SUB DUP2 AND DUP2 EQ PUSH3 0xB81 JUMPI PUSH1 0x0 DUP1 REVERT JUMPDEST SWAP2 SWAP1 POP JUMP JUMPDEST PUSH1 0x0 DUP1 PUSH1 0x0 DUP1 PUSH1 0x80 DUP6 DUP8 SUB SLT ISZERO PUSH3 0xB9D JUMPI PUSH1 0x0 DUP1 REVERT JUMPDEST PUSH3 0xBA8 DUP6 PUSH3 0xB69 JUMP JUMPDEST SWAP4 POP PUSH3 0xBB8 PUSH1 0x20 DUP7 ADD PUSH3 0xB69 JUMP JUMPDEST SWAP3 POP PUSH3 0xBC8 PUSH1 0x40 DUP7 ADD PUSH3 0xB69 JUMP JUMPDEST SWAP2 POP PUSH3 0xBD8 PUSH1 0x60 DUP7 ADD PUSH3 0xB69 JUMP JUMPDEST SWAP1 POP SWAP3 SWAP6 SWAP2 SWAP5 POP SWAP3 POP JUMP JUMPDEST PUSH2 0x5840 DUP1 PUSH3 0xBF3 PUSH1 0x0 CODECOPY PUSH1 0x0 RETURN INVALID PUSH1 0x80 PUSH1 0x40 MSTORE CALLVALUE DUP1 ISZERO PUSH2 0x10 JUMPI PUSH1 0x0 DUP1 REVERT JUMPDEST POP PUSH1 0x4 CALLDATASIZE LT PUSH2 0x30A JUMPI PUSH1 0x0 CALLDATALOAD PUSH1 0xE0 SHR DUP1 PUSH4 0x62C5813D GT PUSH2 0x19C JUMPI DUP1 PUSH4 0x9CEC5194 GT PUSH2 0xEE JUMPI DUP1 PUSH4 0xBE5ED4C3 GT PUSH2 0x97 JUMPI DUP1 PUSH4 0xEA0E35B1 GT PUSH2 0x71 JUMPI DUP1 PUSH4 0xEA0E35B1 EQ PUSH2 0x721 JUMPI DUP1 PUSH4 0xF15AD264 EQ PUSH2 0x729 JUMPI DUP1 PUSH4 0xFA60AD99 EQ PUSH2 0x73C JUMPI PUSH1 0x0 DUP1 REVERT JUMPDEST DUP1 PUSH4 0xBE5ED4C3 EQ PUSH2 0x6F2 JUMPI DUP1 PUSH4 0xE4547FB4 EQ PUSH2 0x716 JUMPI DUP1 PUSH4 0xE6192FCA EQ PUSH2 0x716 JUMPI PUSH1 0x0 DUP1 REVERT JUMPDEST DUP1 PUSH4 0xB0D77774 GT PUSH2 0xC8 JUMPI DUP1 PUSH4 0xB0D77774 EQ PUSH2 0x6B9 JUMPI DUP1 PUSH4 0xB21E0737 EQ PUSH2 0x6CC JUMPI DUP1 PUSH4 0xBC9955A2 EQ PUSH2 0x6DF JUMPI PUSH1 0x0 DUP1 REVERT JUMPDEST DUP1 PUSH4 0x9CEC5194 EQ PUSH2 0x666 JUMPI DUP1 PUSH4 0xA609775B EQ PUSH2 0x679 JUMPI DUP1 PUSH4 0xABEFC323 EQ PUSH2 0x68C JUMPI PUSH1 0x0 DUP1 REVERT JUMPDEST DUP1 PUSH4 0x7AB9E7FE GT PUSH2 0x150 JUMPI DUP1 PUSH4 0x8E6BB70E GT PUSH2 0x12A JUMPI DUP1 PUSH4 0x8E6BB70E EQ PUSH2 0x62B JUMPI DUP1 PUSH4 0x98A8D0E7 EQ PUSH2 0x63E JUMPI DUP1 PUSH4 0x9B21D6EB EQ PUSH2 0x651 JUMPI PUSH1 0x0 DUP1 REVERT JUMPDEST DUP1 PUSH4 0x7AB9E7FE EQ PUSH2 0x5C1 JUMPI DUP1 PUSH4 0x7B0C98EF EQ PUSH2 0x5F8 JUMPI DUP1 PUSH4 0x8252A669 EQ PUSH2 0x60B JUMPI PUSH1 0x0 DUP1 REVERT JUMPDEST DUP1 PUSH4 0x6F5978D9 GT PUSH2 0x181 JUMPI DUP1 PUSH4 0x6F5978D9 EQ PUSH2 0x58F JUMPI DUP1 PUSH4 0x731AE689 EQ PUSH2 0x5A2 JUMPI DUP1 PUSH4 0x793C97DE EQ PUSH2 0x5AE JUMPI PUSH1 0x0 DUP1 REVERT JUMPDEST DUP1 PUSH4 0x62C5813D EQ PUSH2 0x583 JUMPI DUP1 PUSH4 0x65191666 EQ PUSH2 0x583 JUMPI PUSH1 0x0 DUP1 REVERT JUMPDEST DUP1 PUSH4 0x2E4B51BD GT PUSH2 0x260 JUMPI DUP1 PUSH4 0x40B900B6 GT PUSH2 0x209 JUMPI DUP1 PUSH4 0x5387A797 GT PUSH2 0x1E3 JUMPI DUP1 PUSH4 0x5387A797 EQ PUSH2 0x402 JUMPI DUP1 PUSH4 0x58612A20 EQ PUSH2 0x541 JUMPI DUP1 PUSH4 0x5AA24CBD EQ PUSH2 0x570 JUMPI PUSH1 0x0 DUP1 REVERT JUMPDEST DUP1 PUSH4 0x40B900B6 EQ PUSH2 0x4FB JUMPI DUP1 PUSH4 0x44AD764D EQ PUSH2 0x51B JUMPI DUP1 PUSH4 0x4F264B03 EQ PUSH2 0x52E JUMPI PUSH1 0x0 DUP1 REVERT JUMPDEST DUP1 PUSH4 0x3942613C GT PUSH2 0x23A JUMPI DUP1 PUSH4 0x3942613C EQ PUSH2 0x468 JUMPI DUP1 PUSH4 0x3F9662BB EQ PUSH2 0x4B1 JUMPI DUP1 PUSH4 0x40B76BBD EQ PUSH2 0x4C4 JUMPI PUSH1 0x0 DUP1 REVERT JUMPDEST DUP1 PUSH4 0x2E4B51BD EQ PUSH2 0x34D JUMPI DUP1 PUSH4 0x2F57741C EQ PUSH2 0x422 JUMPI DUP1 PUSH4 0x36780527 EQ PUSH2 0x435 JUMPI PUSH1 0x0 DUP1 REVERT JUMPDEST DUP1 PUSH4 0x15B7ED6F GT PUSH2 0x2C2 JUMPI DUP1 PUSH4 0x2A2026A9 GT PUSH2 0x29C JUMPI DUP1 PUSH4 0x2A2026A9 EQ PUSH2 0x3DD JUMPI DUP1 PUSH4 0x2C6D422F EQ PUSH2 0x402 JUMPI DUP1 PUSH4 0x2DEC2E63 EQ PUSH2 0x40D JUMPI PUSH1 0x0 DUP1 REVERT JUMPDEST DUP1 PUSH4 0x15B7ED6F EQ PUSH2 0x3A4 JUMPI DUP1 PUSH4 0x196AB1AB EQ PUSH2 0x3B7 JUMPI DUP1 PUSH4 0x1CECB4FB EQ PUSH2 0x3CA JUMPI PUSH1 0x0 DUP1 REVERT JUMPDEST DUP1 PUSH4 0xCEA9DC5 GT PUSH2 0x2F3 JUMPI DUP1 PUSH4 0xCEA9DC5 EQ PUSH2 0x34D JUMPI DUP1 PUSH4 0xD67F59E EQ PUSH2 0x366 JUMPI DUP1 PUSH4 0x13A5CEDE EQ PUSH2 0x391 JUMPI PUSH1 0x0 DUP1 REVERT JUMPDEST DUP1 PUSH4 0x821DE3E EQ PUSH2 0x30F JUMPI DUP1 PUSH4 0x9E59CEC EQ PUSH2 0x324 JUMPI JUMPDEST PUSH1 0x0 DUP1 REVERT JUMPDEST PUSH2 0x322 PUSH2 0x31D CALLDATASIZE PUSH1 0x4 PUSH2 0x4D92 JUMP JUMPDEST PUSH2 0x74F JUMP JUMPDEST STOP JUMPDEST PUSH2 0x337 PUSH2 0x332 CALLDATASIZE PUSH1 0x4 PUSH2 0x4DF3 JUMP JUMPDEST PUSH2 0xA7C JUMP JUMPDEST PUSH1 0x40 MLOAD PUSH2 0x344 SWAP2 SWAP1 PUSH2 0x4E76 JUMP JUMPDEST PUSH1 0x40 MLOAD DUP1 SWAP2 SUB SWAP1 RETURN JUMPDEST PUSH2 0x358 PUSH4 0x3B9ACA00 DUP2 JUMP JUMPDEST PUSH1 0x40 MLOAD SWAP1 DUP2 MSTORE PUSH1 0x20 ADD PUSH2 0x344 JUMP JUMPDEST PUSH1 0x16 SLOAD PUSH2 0x379 SWAP1 PUSH1 0x1 PUSH1 0x1 PUSH1 0xA0 SHL SUB AND DUP2 JUMP JUMPDEST PUSH1 0x40 MLOAD PUSH1 0x1 PUSH1 0x1 PUSH1 0xA0 SHL SUB SWAP1 SWAP2 AND DUP2 MSTORE PUSH1 0x20 ADD PUSH2 0x344 JUMP JUMPDEST PUSH2 0x337 PUSH2 0x39F CALLDATASIZE PUSH1 0x4 PUSH2 0x4EA5 JUMP JUMPDEST PUSH2 0xB31 JUMP JUMPDEST PUSH2 0x322 PUSH2 0x3B2 CALLDATASIZE PUSH1 0x4 PUSH2 0x4ED4 JUMP JUMPDEST PUSH2 0xBCA JUMP JUMPDEST PUSH1 0x22 SLOAD PUSH2 0x379 SWAP1 PUSH1 0x1 PUSH1 0x1 PUSH1 0xA0 SHL SUB AND DUP2 JUMP JUMPDEST PUSH2 0x322 PUSH2 0x3D8 CALLDATASIZE PUSH1 0x4 PUSH2 0x4DF3 JUMP JUMPDEST PUSH2 0x114A JUMP JUMPDEST PUSH2 0x3F0 PUSH2 0x3EB CALLDATASIZE PUSH1 0x4 PUSH2 0x4DF3 JUMP JUMPDEST PUSH2 0x18FB JUMP JUMPDEST PUSH1 0x40 MLOAD PUSH1 0xFF SWAP1 SWAP2 AND DUP2 MSTORE PUSH1 0x20 ADD PUSH2 0x344 JUMP JUMPDEST PUSH2 0x358 PUSH4 0x35A4E900 DUP2 JUMP JUMPDEST PUSH2 0x415 PUSH2 0x19A8 JUMP JUMPDEST PUSH1 0x40 MLOAD PUSH2 0x344 SWAP2 SWAP1 PUSH2 0x4F39 JUMP JUMPDEST PUSH2 0x322 PUSH2 0x430 CALLDATASIZE PUSH1 0x4 PUSH2 0x4FA7 JUMP JUMPDEST PUSH2 0x1B80 JUMP JUMPDEST PUSH2 0x458 PUSH2 0x443 CALLDATASIZE PUSH1 0x4 PUSH2 0x4FE9 JUMP JUMPDEST PUSH1 0x18 PUSH1 0x20 MSTORE PUSH1 0x0 SWAP1 DUP2 MSTORE PUSH1 0x40 SWAP1 KECCAK256 SLOAD PUSH1 0xFF AND DUP2 JUMP JUMPDEST PUSH1 0x40 MLOAD SWAP1 ISZERO ISZERO DUP2 MSTORE PUSH1 0x20 ADD PUSH2 0x344 JUMP JUMPDEST PUSH2 0x497 PUSH2 0x476 CALLDATASIZE PUSH1 0x4 PUSH2 0x5002 JUMP JUMPDEST PUSH1 0x1C PUSH1 0x20 MSTORE PUSH1 0x0 SWAP1 DUP2 MSTORE PUSH1 0x40 SWAP1 KECCAK256 SLOAD PUSH2 0xFFFF DUP2 AND SWAP1 PUSH3 0x10000 SWAP1 DIV PUSH1 0xFF AND DUP3 JUMP JUMPDEST PUSH1 0x40 DUP1 MLOAD PUSH2 0xFFFF SWAP1 SWAP4 AND DUP4 MSTORE SWAP1 ISZERO ISZERO PUSH1 0x20 DUP4 ADD MSTORE ADD PUSH2 0x344 JUMP JUMPDEST PUSH2 0x458 PUSH2 0x4BF CALLDATASIZE PUSH1 0x4 PUSH2 0x4FA7 JUMP JUMPDEST PUSH2 0x1E42 JUMP JUMPDEST PUSH2 0x4E8 PUSH2 0x4D2 CALLDATASIZE PUSH1 0x4 PUSH2 0x5002 JUMP JUMPDEST PUSH1 0x1E PUSH1 0x20 MSTORE PUSH1 0x0 SWAP1 DUP2 MSTORE PUSH1 0x40 SWAP1 KECCAK256 SLOAD PUSH2 0xFFFF AND DUP2 JUMP JUMPDEST PUSH1 0x40 MLOAD PUSH2 0xFFFF SWAP1 SWAP2 AND DUP2 MSTORE PUSH1 0x20 ADD PUSH2 0x344 JUMP JUMPDEST PUSH2 0x358 PUSH2 0x509 CALLDATASIZE PUSH1 0x4 PUSH2 0x5002 JUMP JUMPDEST PUSH1 0x23 PUSH1 0x20 MSTORE PUSH1 0x0 SWAP1 DUP2 MSTORE PUSH1 0x40 SWAP1 KECCAK256 SLOAD DUP2 JUMP JUMPDEST PUSH2 0x322 PUSH2 0x529 CALLDATASIZE PUSH1 0x4 PUSH2 0x4DF3 JUMP JUMPDEST PUSH2 0x1EE6 JUMP JUMPDEST PUSH1 0x15 SLOAD PUSH2 0x379 SWAP1 PUSH1 0x1 PUSH1 0x1 PUSH1 0xA0 SHL SUB AND DUP2 JUMP JUMPDEST PUSH2 0x4E8 PUSH2 0x54F CALLDATASIZE PUSH1 0x4 PUSH2 0x4DF3 JUMP JUMPDEST PUSH1 0x21 PUSH1 0x20 SWAP1 DUP2 MSTORE PUSH1 0x0 SWAP3 DUP4 MSTORE PUSH1 0x40 DUP1 DUP5 KECCAK256 SWAP1 SWAP2 MSTORE SWAP1 DUP3 MSTORE SWAP1 KECCAK256 SLOAD PUSH2 0xFFFF AND DUP2 JUMP JUMPDEST PUSH2 0x3F0 PUSH2 0x57E CALLDATASIZE PUSH1 0x4 PUSH2 0x5002 JUMP JUMPDEST PUSH2 0x2054 JUMP JUMPDEST PUSH2 0x358 PUSH5 0x2540BE400 DUP2 JUMP JUMPDEST PUSH2 0x322 PUSH2 0x59D CALLDATASIZE PUSH1 0x4 PUSH2 0x501D JUMP JUMPDEST PUSH2 0x20E4 JUMP JUMPDEST PUSH2 0x358 PUSH5 0x174876E800 DUP2 JUMP JUMPDEST PUSH2 0x415 PUSH2 0x5BC CALLDATASIZE PUSH1 0x4 PUSH2 0x5002 JUMP JUMPDEST PUSH2 0x257F JUMP JUMPDEST PUSH2 0x4E8 PUSH2 0x5CF CALLDATASIZE PUSH1 0x4 PUSH2 0x4DF3 JUMP JUMPDEST PUSH1 0xFF SWAP2 DUP3 AND PUSH1 0x0 SWAP1 DUP2 MSTORE PUSH1 0x21 PUSH1 0x20 SWAP1 DUP2 MSTORE PUSH1 0x40 DUP1 DUP4 KECCAK256 SWAP4 SWAP1 SWAP5 AND DUP3 MSTORE SWAP2 SWAP1 SWAP2 MSTORE KECCAK256 SLOAD PUSH2 0xFFFF AND SWAP1 JUMP JUMPDEST PUSH2 0x337 PUSH2 0x606 CALLDATASIZE PUSH1 0x4 PUSH2 0x4DF3 JUMP JUMPDEST PUSH2 0x26AD JUMP JUMPDEST PUSH2 0x61E PUSH2 0x619 CALLDATASIZE PUSH1 0x4 PUSH2 0x5002 JUMP JUMPDEST PUSH2 0x26D1 JUMP JUMPDEST PUSH1 0x40 MLOAD PUSH2 0x344 SWAP2 SWAP1 PUSH2 0x50B4 JUMP JUMPDEST PUSH2 0x322 PUSH2 0x639 CALLDATASIZE PUSH1 0x4 PUSH2 0x4ED4 JUMP JUMPDEST PUSH2 0x27EB JUMP JUMPDEST PUSH2 0x322 PUSH2 0x64C CALLDATASIZE PUSH1 0x4 PUSH2 0x4D92 JUMP JUMPDEST PUSH2 0x3100 JUMP JUMPDEST PUSH2 0x659 PUSH2 0x381B JUMP JUMPDEST PUSH1 0x40 MLOAD PUSH2 0x344 SWAP2 SWAP1 PUSH2 0x50C7 JUMP JUMPDEST PUSH2 0x337 PUSH2 0x674 CALLDATASIZE PUSH1 0x4 PUSH2 0x4DF3 JUMP JUMPDEST PUSH2 0x3A57 JUMP JUMPDEST PUSH2 0x322 PUSH2 0x687 CALLDATASIZE PUSH1 0x4 PUSH2 0x4DF3 JUMP JUMPDEST PUSH2 0x3B45 JUMP JUMPDEST PUSH2 0x69F PUSH2 0x69A CALLDATASIZE PUSH1 0x4 PUSH2 0x5002 JUMP JUMPDEST PUSH2 0x3F46 JUMP JUMPDEST PUSH1 0x40 DUP1 MLOAD PUSH1 0xFF SWAP4 DUP5 AND DUP2 MSTORE SWAP3 SWAP1 SWAP2 AND PUSH1 0x20 DUP4 ADD MSTORE ADD PUSH2 0x344 JUMP JUMPDEST PUSH1 0x17 SLOAD PUSH2 0x379 SWAP1 PUSH1 0x1 PUSH1 0x1 PUSH1 0xA0 SHL SUB AND DUP2 JUMP JUMPDEST PUSH2 0x4E8 PUSH2 0x6DA CALLDATASIZE PUSH1 0x4 PUSH2 0x5147 JUMP JUMPDEST PUSH2 0x3FDD JUMP JUMPDEST PUSH2 0x3F0 PUSH2 0x6ED CALLDATASIZE PUSH1 0x4 PUSH2 0x5171 JUMP JUMPDEST PUSH2 0x4024 JUMP JUMPDEST PUSH2 0x705 PUSH2 0x700 CALLDATASIZE PUSH1 0x4 PUSH2 0x5002 JUMP JUMPDEST PUSH2 0x4060 JUMP JUMPDEST PUSH1 0x40 MLOAD PUSH2 0x344 SWAP6 SWAP5 SWAP4 SWAP3 SWAP2 SWAP1 PUSH2 0x5193 JUMP JUMPDEST PUSH2 0x358 PUSH4 0x5F5E100 DUP2 JUMP JUMPDEST PUSH2 0x3F0 PUSH1 0x1E DUP2 JUMP JUMPDEST PUSH2 0x337 PUSH2 0x737 CALLDATASIZE PUSH1 0x4 PUSH2 0x4EA5 JUMP JUMPDEST PUSH2 0x4123 JUMP JUMPDEST PUSH2 0x322 PUSH2 0x74A CALLDATASIZE PUSH1 0x4 PUSH2 0x51D5 JUMP JUMPDEST PUSH2 0x41CE JUMP JUMPDEST PUSH2 0x757 PUSH2 0x4852 JUMP JUMPDEST DUP1 ISZERO DUP1 ISZERO SWAP1 PUSH2 0x767 JUMPI POP PUSH1 0x40 DUP2 GT ISZERO JUMPDEST PUSH2 0x7B8 JUMPI PUSH1 0x40 MLOAD PUSH3 0x461BCD PUSH1 0xE5 SHL DUP2 MSTORE PUSH1 0x20 PUSH1 0x4 DUP3 ADD MSTORE PUSH1 0xF PUSH1 0x24 DUP3 ADD MSTORE PUSH32 0x426164206E616D65206C656E6774680000000000000000000000000000000000 PUSH1 0x44 DUP3 ADD MSTORE PUSH1 0x64 ADD JUMPDEST PUSH1 0x40 MLOAD DUP1 SWAP2 SUB SWAP1 REVERT JUMPDEST PUSH1 0x15 SLOAD PUSH1 0x40 MLOAD PUSH4 0x8A888953 PUSH1 0xE0 SHL DUP2 MSTORE PUSH1 0xFF DUP1 DUP8 AND PUSH1 0x4 DUP4 ADD MSTORE DUP6 AND PUSH1 0x24 DUP3 ADD MSTORE CALLER SWAP2 PUSH1 0x1 PUSH1 0x1 PUSH1 0xA0 SHL SUB AND SWAP1 PUSH4 0x8A888953 SWAP1 PUSH1 0x44 ADD PUSH1 0x20 PUSH1 0x40 MLOAD DUP1 DUP4 SUB DUP2 DUP7 GAS STATICCALL ISZERO DUP1 ISZERO PUSH2 0x80B JUMPI RETURNDATASIZE PUSH1 0x0 DUP1 RETURNDATACOPY RETURNDATASIZE PUSH1 0x0 REVERT JUMPDEST POP POP POP POP PUSH1 0x40 MLOAD RETURNDATASIZE PUSH1 0x1F NOT PUSH1 0x1F DUP3 ADD AND DUP3 ADD DUP1 PUSH1 0x40 MSTORE POP DUP2 ADD SWAP1 PUSH2 0x82F SWAP2 SWAP1 PUSH2 0x522B JUMP JUMPDEST PUSH1 0x1 PUSH1 0x1 PUSH1 0xA0 SHL SUB AND EQ PUSH2 0x885 JUMPI PUSH1 0x40 MLOAD PUSH3 0x461BCD PUSH1 0xE5 SHL DUP2 MSTORE PUSH1 0x20 PUSH1 0x4 DUP3 ADD MSTORE PUSH1 0xE PUSH1 0x24 DUP3 ADD MSTORE PUSH32 0x4E6F742074696C65206F776E6572000000000000000000000000000000000000 PUSH1 0x44 DUP3 ADD MSTORE PUSH1 0x64 ADD PUSH2 0x7AF JUMP JUMPDEST PUSH1 0x16 SLOAD PUSH1 0x40 MLOAD PUSH32 0x23B872DD00000000000000000000000000000000000000000000000000000000 DUP2 MSTORE CALLER PUSH1 0x4 DUP3 ADD MSTORE ADDRESS PUSH1 0x24 DUP3 ADD MSTORE PUSH5 0x2540BE400 PUSH1 0x44 DUP3 ADD MSTORE PUSH1 0x1 PUSH1 0x1 PUSH1 0xA0 SHL SUB SWAP1 SWAP2 AND SWAP1 PUSH4 0x23B872DD SWAP1 PUSH1 0x64 ADD PUSH1 0x20 PUSH1 0x40 MLOAD DUP1 DUP4 SUB DUP2 PUSH1 0x0 DUP8 GAS CALL ISZERO DUP1 ISZERO PUSH2 0x8F9 JUMPI RETURNDATASIZE PUSH1 0x0 DUP1 RETURNDATACOPY RETURNDATASIZE PUSH1 0x0 REVERT JUMPDEST POP POP POP POP PUSH1 0x40 MLOAD RETURNDATASIZE PUSH1 0x1F NOT PUSH1 0x1F DUP3 ADD AND DUP3 ADD DUP1 PUSH1 0x40 MSTORE POP DUP2 ADD SWAP1 PUSH2 0x91D SWAP2 SWAP1 PUSH2 0x5248 JUMP JUMPDEST PUSH2 0x969 JUMPI PUSH1 0x40 MLOAD PUSH3 0x461BCD PUSH1 0xE5 SHL DUP2 MSTORE PUSH1 0x20 PUSH1 0x4 DUP3 ADD MSTORE PUSH1 0x14 PUSH1 0x24 DUP3 ADD MSTORE PUSH32 0x546F6B656E207061796D656E74206661696C6564000000000000000000000000 PUSH1 0x44 DUP3 ADD MSTORE PUSH1 0x64 ADD PUSH2 0x7AF JUMP JUMPDEST PUSH1 0x16 SLOAD PUSH1 0x40 MLOAD PUSH32 0x42966C6800000000000000000000000000000000000000000000000000000000 DUP2 MSTORE PUSH5 0x2540BE400 PUSH1 0x4 DUP3 ADD MSTORE PUSH1 0x1 PUSH1 0x1 PUSH1 0xA0 SHL SUB SWAP1 SWAP2 AND SWAP1 PUSH4 0x42966C68 SWAP1 PUSH1 0x24 ADD PUSH1 0x20 PUSH1 0x40 MLOAD DUP1 DUP4 SUB DUP2 PUSH1 0x0 DUP8 GAS CALL ISZERO DUP1 ISZERO PUSH2 0x9D1 JUMPI RETURNDATASIZE PUSH1 0x0 DUP1 RETURNDATACOPY RETURNDATASIZE PUSH1 0x0 REVERT JUMPDEST POP POP POP POP PUSH1 0x40 MLOAD RETURNDATASIZE PUSH1 0x1F NOT PUSH1 0x1F DUP3 ADD AND DUP3 ADD DUP1 PUSH1 0x40 MSTORE POP DUP2 ADD SWAP1 PUSH2 0x9F5 SWAP2 SWAP1 PUSH2 0x5248 JUMP JUMPDEST PUSH2 0xA41 JUMPI PUSH1 0x40 MLOAD PUSH3 0x461BCD PUSH1 0xE5 SHL DUP2 MSTORE PUSH1 0x20 PUSH1 0x4 DUP3 ADD MSTORE PUSH1 0xB PUSH1 0x24 DUP3 ADD MSTORE PUSH32 0x4275726E206661696C6564000000000000000000000000000000000000000000 PUSH1 0x44 DUP3 ADD MSTORE PUSH1 0x64 ADD PUSH2 0x7AF JUMP JUMPDEST PUSH1 0xFF DUP1 DUP6 AND PUSH1 0x0 SWAP1 DUP2 MSTORE PUSH1 0x1F PUSH1 0x20 SWAP1 DUP2 MSTORE PUSH1 0x40 DUP1 DUP4 KECCAK256 SWAP4 DUP8 AND DUP4 MSTORE SWAP3 SWAP1 MSTORE KECCAK256 PUSH2 0xA6B DUP3 DUP5 DUP4 PUSH2 0x533A JUMP JUMPDEST POP PUSH2 0xA76 PUSH1 0x1 PUSH1 0x0 SSTORE JUMP JUMPDEST POP POP POP POP JUMP JUMPDEST PUSH1 0xFF DUP1 DUP4 AND PUSH1 0x0 SWAP1 DUP2 MSTORE PUSH1 0x1F PUSH1 0x20 SWAP1 DUP2 MSTORE PUSH1 0x40 DUP1 DUP4 KECCAK256 SWAP4 DUP6 AND DUP4 MSTORE SWAP3 SWAP1 MSTORE KECCAK256 DUP1 SLOAD PUSH1 0x60 SWAP2 SWAP1 PUSH2 0xAAA SWAP1 PUSH2 0x5299 JUMP JUMPDEST DUP1 PUSH1 0x1F ADD PUSH1 0x20 DUP1 SWAP2 DIV MUL PUSH1 0x20 ADD PUSH1 0x40 MLOAD SWAP1 DUP2 ADD PUSH1 0x40 MSTORE DUP1 SWAP3 SWAP2 SWAP1 DUP2 DUP2 MSTORE PUSH1 0x20 ADD DUP3 DUP1 SLOAD PUSH2 0xAD6 SWAP1 PUSH2 0x5299 JUMP JUMPDEST DUP1 ISZERO PUSH2 0xB23 JUMPI DUP1 PUSH1 0x1F LT PUSH2 0xAF8 JUMPI PUSH2 0x100 DUP1 DUP4 SLOAD DIV MUL DUP4 MSTORE SWAP2 PUSH1 0x20 ADD SWAP2 PUSH2 0xB23 JUMP JUMPDEST DUP3 ADD SWAP2 SWAP1 PUSH1 0x0 MSTORE PUSH1 0x20 PUSH1 0x0 KECCAK256 SWAP1 JUMPDEST DUP2 SLOAD DUP2 MSTORE SWAP1 PUSH1 0x1 ADD SWAP1 PUSH1 0x20 ADD DUP1 DUP4 GT PUSH2 0xB06 JUMPI DUP3 SWAP1 SUB PUSH1 0x1F AND DUP3 ADD SWAP2 JUMPDEST POP POP POP POP POP SWAP1 POP JUMPDEST SWAP3 SWAP2 POP POP JUMP JUMPDEST PUSH1 0x20 DUP1 MSTORE PUSH1 0x0 SWAP1 DUP2 MSTORE PUSH1 0x40 SWAP1 KECCAK256 DUP1 SLOAD PUSH2 0xB49 SWAP1 PUSH2 0x5299 JUMP JUMPDEST DUP1 PUSH1 0x1F ADD PUSH1 0x20 DUP1 SWAP2 DIV MUL PUSH1 0x20 ADD PUSH1 0x40 MLOAD SWAP1 DUP2 ADD PUSH1 0x40 MSTORE DUP1 SWAP3 SWAP2 SWAP1 DUP2 DUP2 MSTORE PUSH1 0x20 ADD DUP3 DUP1 SLOAD PUSH2 0xB75 SWAP1 PUSH2 0x5299 JUMP JUMPDEST DUP1 ISZERO PUSH2 0xBC2 JUMPI DUP1 PUSH1 0x1F LT PUSH2 0xB97 JUMPI PUSH2 0x100 DUP1 DUP4 SLOAD DIV MUL DUP4 MSTORE SWAP2 PUSH1 0x20 ADD SWAP2 PUSH2 0xBC2 JUMP JUMPDEST DUP3 ADD SWAP2 SWAP1 PUSH1 0x0 MSTORE PUSH1 0x20 PUSH1 0x0 KECCAK256 SWAP1 JUMPDEST DUP2 SLOAD DUP2 MSTORE SWAP1 PUSH1 0x1 ADD SWAP1 PUSH1 0x20 ADD DUP1 DUP4 GT PUSH2 0xBA5 JUMPI DUP3 SWAP1 SUB PUSH1 0x1F AND DUP3 ADD SWAP2 JUMPDEST POP POP POP POP POP DUP2 JUMP JUMPDEST PUSH2 0xBD2 PUSH2 0x4852 JUMP JUMPDEST PUSH2 0xFFFF DUP6 AND PUSH1 0x0 SWAP1 DUP2 MSTORE PUSH1 0x1B PUSH1 0x20 MSTORE PUSH1 0x40 SWAP1 KECCAK256 PUSH1 0x1 ADD SLOAD DUP6 SWAP1 DUP6 SWAP1 DUP6 SWAP1 PUSH4 0x1000000 SWAP1 DIV PUSH1 0xFF AND PUSH2 0xC45 JUMPI PUSH1 0x40 MLOAD PUSH3 0x461BCD PUSH1 0xE5 SHL DUP2 MSTORE PUSH1 0x20 PUSH1 0x4 DUP3 ADD MSTORE PUSH1 0x13 PUSH1 0x24 DUP3 ADD MSTORE PUSH32 0x436C616E20646F6573206E6F7420657869737400000000000000000000000000 PUSH1 0x44 DUP3 ADD MSTORE PUSH1 0x64 ADD PUSH2 0x7AF JUMP JUMPDEST PUSH2 0xFFFF DUP4 AND PUSH1 0x0 SWAP1 DUP2 MSTORE PUSH1 0x1B PUSH1 0x20 MSTORE PUSH1 0x40 SWAP1 KECCAK256 PUSH1 0x1 ADD SLOAD PUSH1 0xFF DUP4 DUP2 AND SWAP2 AND EQ DUP1 ISZERO PUSH2 0xC90 JUMPI POP PUSH2 0xFFFF DUP4 AND PUSH1 0x0 SWAP1 DUP2 MSTORE PUSH1 0x1B PUSH1 0x20 MSTORE PUSH1 0x40 SWAP1 KECCAK256 PUSH1 0x1 ADD SLOAD PUSH1 0xFF DUP3 DUP2 AND PUSH2 0x100 SWAP1 SWAP3 DIV AND EQ JUMPDEST PUSH2 0xCDC JUMPI PUSH1 0x40 MLOAD PUSH3 0x461BCD PUSH1 0xE5 SHL DUP2 MSTORE PUSH1 0x20 PUSH1 0x4 DUP3 ADD MSTORE PUSH1 0xF PUSH1 0x24 DUP3 ADD MSTORE PUSH32 0x4E6F74206C65616465722074696C650000000000000000000000000000000000 PUSH1 0x44 DUP3 ADD MSTORE PUSH1 0x64 ADD PUSH2 0x7AF JUMP JUMPDEST PUSH1 0x15 SLOAD PUSH1 0x40 MLOAD PUSH4 0x8A888953 PUSH1 0xE0 SHL DUP2 MSTORE PUSH1 0xFF DUP1 DUP6 AND PUSH1 0x4 DUP4 ADD MSTORE DUP4 AND PUSH1 0x24 DUP3 ADD MSTORE CALLER SWAP2 PUSH1 0x1 PUSH1 0x1 PUSH1 0xA0 SHL SUB AND SWAP1 PUSH4 0x8A888953 SWAP1 PUSH1 0x44 ADD PUSH1 0x20 PUSH1 0x40 MLOAD DUP1 DUP4 SUB DUP2 DUP7 GAS STATICCALL ISZERO DUP1 ISZERO PUSH2 0xD2F JUMPI RETURNDATASIZE PUSH1 0x0 DUP1 RETURNDATACOPY RETURNDATASIZE PUSH1 0x0 REVERT JUMPDEST POP POP POP POP PUSH1 0x40 MLOAD RETURNDATASIZE PUSH1 0x1F NOT PUSH1 0x1F DUP3 ADD AND DUP3 ADD DUP1 PUSH1 0x40 MSTORE POP DUP2 ADD SWAP1 PUSH2 0xD53 SWAP2 SWAP1 PUSH2 0x522B JUMP JUMPDEST PUSH1 0x1 PUSH1 0x1 PUSH1 0xA0 SHL SUB AND EQ PUSH2 0xDA9 JUMPI PUSH1 0x40 MLOAD PUSH3 0x461BCD PUSH1 0xE5 SHL DUP2 MSTORE PUSH1 0x20 PUSH1 0x4 DUP3 ADD MSTORE PUSH1 0x1D PUSH1 0x24 DUP3 ADD MSTORE PUSH32 0x596F7520646F6E2774206F776E20746865206C65616465722074696C65000000 PUSH1 0x44 DUP3 ADD MSTORE PUSH1 0x64 ADD PUSH2 0x7AF JUMP JUMPDEST PUSH2 0xFFFF DUP9 AND PUSH1 0x0 SWAP1 DUP2 MSTORE PUSH1 0x1B PUSH1 0x20 MSTORE PUSH1 0x40 SWAP1 KECCAK256 PUSH1 0x1 ADD SLOAD PUSH4 0x1000000 SWAP1 DIV PUSH1 0xFF AND PUSH2 0xE16 JUMPI PUSH1 0x40 MLOAD PUSH3 0x461BCD PUSH1 0xE5 SHL DUP2 MSTORE PUSH1 0x20 PUSH1 0x4 DUP3 ADD MSTORE PUSH1 0x13 PUSH1 0x24 DUP3 ADD MSTORE PUSH32 0x436C616E20646F6573206E6F7420657869737400000000000000000000000000 PUSH1 0x44 DUP3 ADD MSTORE PUSH1 0x64 ADD PUSH2 0x7AF JUMP JUMPDEST PUSH2 0xFFFF DUP9 AND PUSH1 0x0 SWAP1 DUP2 MSTORE PUSH1 0x1B PUSH1 0x20 MSTORE PUSH1 0x40 SWAP1 KECCAK256 PUSH1 0x1 ADD SLOAD PUSH1 0x1E PUSH3 0x10000 SWAP1 SWAP2 DIV PUSH1 0xFF AND LT PUSH2 0xE86 JUMPI PUSH1 0x40 MLOAD PUSH3 0x461BCD PUSH1 0xE5 SHL DUP2 MSTORE PUSH1 0x20 PUSH1 0x4 DUP3 ADD MSTORE PUSH1 0xC PUSH1 0x24 DUP3 ADD MSTORE PUSH32 0x436C616E2069732066756C6C0000000000000000000000000000000000000000 PUSH1 0x44 DUP3 ADD MSTORE PUSH1 0x64 ADD PUSH2 0x7AF JUMP JUMPDEST PUSH1 0x17 SLOAD PUSH1 0x40 MLOAD PUSH32 0x1ACC55EA00000000000000000000000000000000000000000000000000000000 DUP2 MSTORE PUSH1 0xFF DUP1 DUP11 AND PUSH1 0x4 DUP4 ADD MSTORE DUP9 AND PUSH1 0x24 DUP3 ADD MSTORE PUSH1 0x1 PUSH1 0x1 PUSH1 0xA0 SHL SUB SWAP1 SWAP2 AND SWAP1 PUSH4 0x1ACC55EA SWAP1 PUSH1 0x44 ADD PUSH1 0x20 PUSH1 0x40 MLOAD DUP1 DUP4 SUB DUP2 DUP7 GAS STATICCALL ISZERO DUP1 ISZERO PUSH2 0xEF2 JUMPI RETURNDATASIZE PUSH1 0x0 DUP1 RETURNDATACOPY RETURNDATASIZE PUSH1 0x0 REVERT JUMPDEST POP POP POP POP PUSH1 0x40 MLOAD RETURNDATASIZE PUSH1 0x1F NOT PUSH1 0x1F DUP3 ADD AND DUP3 ADD DUP1 PUSH1 0x40 MSTORE POP DUP2 ADD SWAP1 PUSH2 0xF16 SWAP2 SWAP1 PUSH2 0x5248 JUMP JUMPDEST PUSH2 0xF62 JUMPI PUSH1 0x40 MLOAD PUSH3 0x461BCD PUSH1 0xE5 SHL DUP2 MSTORE PUSH1 0x20 PUSH1 0x4 DUP3 ADD MSTORE PUSH1 0x19 PUSH1 0x24 DUP3 ADD MSTORE PUSH32 0x596F75206D7573742068617665206120436C616E2048616C6C00000000000000 PUSH1 0x44 DUP3 ADD MSTORE PUSH1 0x64 ADD PUSH2 0x7AF JUMP JUMPDEST PUSH1 0x15 SLOAD PUSH1 0x40 MLOAD PUSH4 0x8A888953 PUSH1 0xE0 SHL DUP2 MSTORE PUSH1 0xFF DUP1 DUP9 AND PUSH1 0x4 DUP4 ADD MSTORE DUP7 AND PUSH1 0x24 DUP3 ADD MSTORE PUSH1 0x0 SWAP2 PUSH1 0x1 PUSH1 0x1 PUSH1 0xA0 SHL SUB AND SWAP1 PUSH4 0x8A888953 SWAP1 PUSH1 0x44 ADD PUSH1 0x20 PUSH1 0x40 MLOAD DUP1 DUP4 SUB DUP2 DUP7 GAS STATICCALL ISZERO DUP1 ISZERO PUSH2 0xFB6 JUMPI RETURNDATASIZE PUSH1 0x0 DUP1 RETURNDATACOPY RETURNDATASIZE PUSH1 0x0 REVERT JUMPDEST POP POP POP POP PUSH1 0x40 MLOAD RETURNDATASIZE PUSH1 0x1F NOT PUSH1 0x1F DUP3 ADD AND DUP3 ADD DUP1 PUSH1 0x40 MSTORE POP DUP2 ADD SWAP1 PUSH2 0xFDA SWAP2 SWAP1 PUSH2 0x522B JUMP JUMPDEST SWAP1 POP PUSH1 0x1 PUSH1 0x1 PUSH1 0xA0 SHL SUB DUP2 AND PUSH2 0x1032 JUMPI PUSH1 0x40 MLOAD PUSH3 0x461BCD PUSH1 0xE5 SHL DUP2 MSTORE PUSH1 0x20 PUSH1 0x4 DUP3 ADD MSTORE PUSH1 0x13 PUSH1 0x24 DUP3 ADD MSTORE PUSH32 0x5461726765742074696C6520756E6F776E656400000000000000000000000000 PUSH1 0x44 DUP3 ADD MSTORE PUSH1 0x64 ADD PUSH2 0x7AF JUMP JUMPDEST PUSH1 0xFF DUP1 DUP8 AND PUSH1 0x0 SWAP1 DUP2 MSTORE PUSH1 0x21 PUSH1 0x20 SWAP1 DUP2 MSTORE PUSH1 0x40 DUP1 DUP4 KECCAK256 SWAP4 DUP10 AND DUP4 MSTORE SWAP3 SWAP1 MSTORE KECCAK256 SLOAD PUSH2 0xFFFF AND ISZERO PUSH2 0x10A3 JUMPI PUSH1 0x40 MLOAD PUSH3 0x461BCD PUSH1 0xE5 SHL DUP2 MSTORE PUSH1 0x20 PUSH1 0x4 DUP3 ADD MSTORE PUSH1 0x1D PUSH1 0x24 DUP3 ADD MSTORE PUSH32 0x5461726765742074696C6520616C726561647920696E206120636C616E000000 PUSH1 0x44 DUP3 ADD MSTORE PUSH1 0x64 ADD PUSH2 0x7AF JUMP JUMPDEST PUSH1 0xFF DUP6 AND PUSH1 0x8 DUP8 SWAP1 SHL PUSH2 0xFF00 AND OR PUSH1 0x0 DUP2 DUP2 MSTORE PUSH1 0x1E PUSH1 0x20 MSTORE PUSH1 0x40 SWAP1 KECCAK256 SLOAD PUSH2 0xFFFF AND ISZERO PUSH2 0x1111 JUMPI PUSH1 0x40 MLOAD PUSH3 0x461BCD PUSH1 0xE5 SHL DUP2 MSTORE PUSH1 0x20 PUSH1 0x4 DUP3 ADD MSTORE PUSH1 0x16 PUSH1 0x24 DUP3 ADD MSTORE PUSH32 0x496E7669746520616C72656164792070656E64696E6700000000000000000000 PUSH1 0x44 DUP3 ADD MSTORE PUSH1 0x64 ADD PUSH2 0x7AF JUMP JUMPDEST PUSH2 0xFFFF SWAP1 DUP2 AND PUSH1 0x0 SWAP1 DUP2 MSTORE PUSH1 0x1E PUSH1 0x20 MSTORE PUSH1 0x40 SWAP1 KECCAK256 DUP1 SLOAD PUSH2 0xFFFF NOT AND SWAP2 DUP12 AND SWAP2 SWAP1 SWAP2 OR SWAP1 SSTORE POP PUSH2 0x1143 SWAP3 POP PUSH2 0x48AB SWAP2 POP POP JUMP JUMPDEST POP POP POP POP POP JUMP JUMPDEST PUSH2 0x1152 PUSH2 0x4852 JUMP JUMPDEST PUSH1 0x15 SLOAD PUSH1 0x40 MLOAD PUSH4 0x8A888953 PUSH1 0xE0 SHL DUP2 MSTORE PUSH1 0xFF DUP1 DUP6 AND PUSH1 0x4 DUP4 ADD MSTORE DUP4 AND PUSH1 0x24 DUP3 ADD MSTORE DUP4 SWAP2 DUP4 SWAP2 CALLER SWAP2 PUSH1 0x1 PUSH1 0x1 PUSH1 0xA0 SHL SUB AND SWAP1 PUSH4 0x8A888953 SWAP1 PUSH1 0x44 ADD PUSH1 0x20 PUSH1 0x40 MLOAD DUP1 DUP4 SUB DUP2 DUP7 GAS STATICCALL ISZERO DUP1 ISZERO PUSH2 0x11A9 JUMPI RETURNDATASIZE PUSH1 0x0 DUP1 RETURNDATACOPY RETURNDATASIZE PUSH1 0x0 REVERT JUMPDEST POP POP POP POP PUSH1 0x40 MLOAD RETURNDATASIZE PUSH1 0x1F NOT PUSH1 0x1F DUP3 ADD AND DUP3 ADD DUP1 PUSH1 0x40 MSTORE POP DUP2 ADD SWAP1 PUSH2 0x11CD SWAP2 SWAP1 PUSH2 0x522B JUMP JUMPDEST PUSH1 0x1 PUSH1 0x1 PUSH1 0xA0 SHL SUB AND EQ PUSH2 0x1223 JUMPI PUSH1 0x40 MLOAD PUSH3 0x461BCD PUSH1 0xE5 SHL DUP2 MSTORE PUSH1 0x20 PUSH1 0x4 DUP3 ADD MSTORE PUSH1 0x18 PUSH1 0x24 DUP3 ADD MSTORE PUSH32 0x596F7520646F206E6F74206F776E20746869732074696C650000000000000000 PUSH1 0x44 DUP3 ADD MSTORE PUSH1 0x64 ADD PUSH2 0x7AF JUMP JUMPDEST PUSH1 0xFF DUP4 DUP2 AND PUSH1 0x8 DUP7 SWAP1 SHL PUSH2 0xFF00 AND OR PUSH1 0x0 DUP2 DUP2 MSTORE PUSH1 0x1C PUSH1 0x20 MSTORE PUSH1 0x40 SWAP1 KECCAK256 SLOAD SWAP1 SWAP2 PUSH3 0x10000 SWAP1 SWAP2 DIV AND PUSH2 0x1297 JUMPI PUSH1 0x40 MLOAD PUSH3 0x461BCD PUSH1 0xE5 SHL DUP2 MSTORE PUSH1 0x20 PUSH1 0x4 DUP3 ADD MSTORE PUSH1 0x12 PUSH1 0x24 DUP3 ADD MSTORE PUSH32 0x54696C65206E6F7420696E206120636C616E0000000000000000000000000000 PUSH1 0x44 DUP3 ADD MSTORE PUSH1 0x64 ADD PUSH2 0x7AF JUMP JUMPDEST PUSH2 0xFFFF DUP2 DUP2 AND PUSH1 0x0 SWAP1 DUP2 MSTORE PUSH1 0x1C PUSH1 0x20 SWAP1 DUP2 MSTORE PUSH1 0x40 DUP1 DUP4 KECCAK256 SLOAD SWAP1 SWAP4 AND DUP1 DUP4 MSTORE PUSH1 0x1B SWAP1 SWAP2 MSTORE SWAP2 SWAP1 KECCAK256 PUSH1 0x1 ADD SLOAD PUSH4 0x1000000 SWAP1 DIV PUSH1 0xFF AND PUSH2 0x1317 JUMPI PUSH1 0x40 MLOAD PUSH3 0x461BCD PUSH1 0xE5 SHL DUP2 MSTORE PUSH1 0x20 PUSH1 0x4 DUP3 ADD MSTORE PUSH1 0x13 PUSH1 0x24 DUP3 ADD MSTORE PUSH32 0x436C616E20646F6573206E6F7420657869737400000000000000000000000000 PUSH1 0x44 DUP3 ADD MSTORE PUSH1 0x64 ADD PUSH2 0x7AF JUMP JUMPDEST PUSH2 0xFFFF DUP2 AND PUSH1 0x0 SWAP1 DUP2 MSTORE PUSH1 0x1B PUSH1 0x20 MSTORE PUSH1 0x40 SWAP1 KECCAK256 PUSH1 0x1 ADD SLOAD PUSH1 0xFF DUP8 DUP2 AND SWAP2 AND EQ DUP1 ISZERO PUSH2 0x1362 JUMPI POP PUSH2 0xFFFF DUP2 AND PUSH1 0x0 SWAP1 DUP2 MSTORE PUSH1 0x1B PUSH1 0x20 MSTORE PUSH1 0x40 SWAP1 KECCAK256 PUSH1 0x1 ADD SLOAD PUSH1 0xFF DUP7 DUP2 AND PUSH2 0x100 SWAP1 SWAP3 DIV AND EQ JUMPDEST ISZERO PUSH2 0x13AF JUMPI PUSH1 0x40 MLOAD PUSH3 0x461BCD PUSH1 0xE5 SHL DUP2 MSTORE PUSH1 0x20 PUSH1 0x4 DUP3 ADD MSTORE PUSH1 0x18 PUSH1 0x24 DUP3 ADD MSTORE PUSH32 0x4C65616465722074696C652063616E6E6F74206C656176650000000000000000 PUSH1 0x44 DUP3 ADD MSTORE PUSH1 0x64 ADD PUSH2 0x7AF JUMP JUMPDEST PUSH1 0x16 SLOAD PUSH1 0x40 MLOAD PUSH32 0x23B872DD00000000000000000000000000000000000000000000000000000000 DUP2 MSTORE CALLER PUSH1 0x4 DUP3 ADD MSTORE ADDRESS PUSH1 0x24 DUP3 ADD MSTORE PUSH4 0x3B9ACA00 PUSH1 0x44 DUP3 ADD MSTORE PUSH1 0x1 PUSH1 0x1 PUSH1 0xA0 SHL SUB SWAP1 SWAP2 AND SWAP1 PUSH4 0x23B872DD SWAP1 PUSH1 0x64 ADD PUSH1 0x20 PUSH1 0x40 MLOAD DUP1 DUP4 SUB DUP2 PUSH1 0x0 DUP8 GAS CALL ISZERO DUP1 ISZERO PUSH2 0x1422 JUMPI RETURNDATASIZE PUSH1 0x0 DUP1 RETURNDATACOPY RETURNDATASIZE PUSH1 0x0 REVERT JUMPDEST POP POP POP POP PUSH1 0x40 MLOAD RETURNDATASIZE PUSH1 0x1F NOT PUSH1 0x1F DUP3 ADD AND DUP3 ADD DUP1 PUSH1 0x40 MSTORE POP DUP2 ADD SWAP1 PUSH2 0x1446 SWAP2 SWAP1 PUSH2 0x5248 JUMP JUMPDEST PUSH2 0x1492 JUMPI PUSH1 0x40 MLOAD PUSH3 0x461BCD PUSH1 0xE5 SHL DUP2 MSTORE PUSH1 0x20 PUSH1 0x4 DUP3 ADD MSTORE PUSH1 0x13 PUSH1 0x24 DUP3 ADD MSTORE PUSH32 0x4C4F50207472616E73666572206661696C656400000000000000000000000000 PUSH1 0x44 DUP3 ADD MSTORE PUSH1 0x64 ADD PUSH2 0x7AF JUMP JUMPDEST PUSH2 0xFFFF DUP1 DUP4 AND PUSH1 0x0 SWAP1 DUP2 MSTORE PUSH1 0x1C PUSH1 0x20 SWAP1 DUP2 MSTORE PUSH1 0x40 DUP1 DUP4 KECCAK256 DUP1 SLOAD PUSH3 0xFF0000 NOT AND SWAP1 SSTORE PUSH1 0xFF DUP11 DUP2 AND DUP5 MSTORE PUSH1 0x21 DUP4 MSTORE DUP2 DUP5 KECCAK256 DUP11 DUP3 AND DUP6 MSTORE DUP4 MSTORE DUP2 DUP5 KECCAK256 DUP1 SLOAD PUSH2 0xFFFF NOT AND SWAP1 SSTORE SWAP4 DUP6 AND DUP4 MSTORE PUSH1 0x1B SWAP1 SWAP2 MSTORE SWAP1 KECCAK256 PUSH1 0x1 SWAP1 DUP2 ADD SLOAD PUSH3 0x10000 SWAP1 DIV SWAP1 SWAP2 AND LT ISZERO PUSH2 0x151B JUMPI PUSH2 0xFFFF DUP2 AND PUSH1 0x0 SWAP1 DUP2 MSTORE PUSH1 0x1B PUSH1 0x20 MSTORE PUSH1 0x40 SWAP1 KECCAK256 PUSH1 0x1 ADD DUP1 SLOAD PUSH3 0xFF0000 NOT AND PUSH3 0x10000 OR SWAP1 SSTORE JUMPDEST PUSH2 0xFFFF DUP2 AND PUSH1 0x0 SWAP1 DUP2 MSTORE PUSH1 0x1B PUSH1 0x20 MSTORE PUSH1 0x40 SWAP1 KECCAK256 PUSH1 0x1 ADD DUP1 SLOAD PUSH3 0x10000 SWAP1 DIV PUSH1 0xFF AND SWAP1 PUSH1 0x2 PUSH2 0x1548 DUP4 PUSH2 0x5429 JUMP JUMPDEST DUP3 SLOAD PUSH1 0xFF SWAP2 DUP3 AND PUSH2 0x100 SWAP4 SWAP1 SWAP4 EXP SWAP3 DUP4 MUL SWAP2 SWAP1 SWAP3 MUL NOT SWAP1 SWAP2 AND OR SWAP1 SSTORE POP PUSH2 0xFFFF DUP2 AND PUSH1 0x0 SWAP1 DUP2 MSTORE PUSH1 0x1D PUSH1 0x20 MSTORE PUSH1 0x40 DUP2 KECCAK256 SWAP1 JUMPDEST DUP2 SLOAD DUP2 LT ISZERO PUSH2 0x1699 JUMPI DUP4 PUSH2 0xFFFF AND DUP3 DUP3 DUP2 SLOAD DUP2 LT PUSH2 0x159A JUMPI PUSH2 0x159A PUSH2 0x5446 JUMP JUMPDEST PUSH1 0x0 SWAP2 DUP3 MSTORE PUSH1 0x20 SWAP1 SWAP2 KECCAK256 PUSH1 0x10 DUP3 DIV ADD SLOAD PUSH1 0xF SWAP1 SWAP2 AND PUSH1 0x2 MUL PUSH2 0x100 EXP SWAP1 DIV PUSH2 0xFFFF AND SUB PUSH2 0x1687 JUMPI DUP2 SLOAD DUP3 SWAP1 PUSH2 0x15D1 SWAP1 PUSH1 0x1 SWAP1 PUSH2 0x5475 JUMP JUMPDEST DUP2 SLOAD DUP2 LT PUSH2 0x15E1 JUMPI PUSH2 0x15E1 PUSH2 0x5446 JUMP JUMPDEST SWAP1 PUSH1 0x0 MSTORE PUSH1 0x20 PUSH1 0x0 KECCAK256 SWAP1 PUSH1 0x10 SWAP2 DUP3 DUP3 DIV ADD SWAP2 SWAP1 MOD PUSH1 0x2 MUL SWAP1 SLOAD SWAP1 PUSH2 0x100 EXP SWAP1 DIV PUSH2 0xFFFF AND DUP3 DUP3 DUP2 SLOAD DUP2 LT PUSH2 0x1617 JUMPI PUSH2 0x1617 PUSH2 0x5446 JUMP JUMPDEST SWAP1 PUSH1 0x0 MSTORE PUSH1 0x20 PUSH1 0x0 KECCAK256 SWAP1 PUSH1 0x10 SWAP2 DUP3 DUP3 DIV ADD SWAP2 SWAP1 MOD PUSH1 0x2 MUL PUSH2 0x100 EXP DUP2 SLOAD DUP2 PUSH2 0xFFFF MUL NOT AND SWAP1 DUP4 PUSH2 0xFFFF AND MUL OR SWAP1 SSTORE POP DUP2 DUP1 SLOAD DUP1 PUSH2 0x1656 JUMPI PUSH2 0x1656 PUSH2 0x5488 JUMP JUMPDEST PUSH1 0x0 DUP3 DUP2 MSTORE PUSH1 0x20 SWAP1 KECCAK256 PUSH1 0x10 PUSH1 0x0 NOT SWAP1 SWAP3 ADD SWAP2 DUP3 DIV ADD DUP1 SLOAD PUSH2 0xFFFF PUSH1 0x2 PUSH1 0xF DUP6 AND MUL PUSH2 0x100 EXP MUL NOT AND SWAP1 SSTORE SWAP1 SSTORE PUSH2 0x1699 JUMP JUMPDEST DUP1 PUSH2 0x1691 DUP2 PUSH2 0x54B7 JUMP JUMPDEST SWAP2 POP POP PUSH2 0x157A JUMP JUMPDEST POP PUSH1 0x15 SLOAD PUSH2 0xFFFF DUP4 AND PUSH1 0x0 SWAP1 DUP2 MSTORE PUSH1 0x1B PUSH1 0x20 MSTORE PUSH1 0x40 DUP1 DUP3 KECCAK256 PUSH1 0x1 ADD SLOAD SWAP1 MLOAD PUSH4 0x8A888953 PUSH1 0xE0 SHL DUP2 MSTORE PUSH1 0xFF DUP1 DUP4 AND PUSH1 0x4 DUP4 ADD MSTORE PUSH2 0x100 SWAP1 SWAP3 DIV SWAP1 SWAP2 AND PUSH1 0x24 DUP3 ADD MSTORE SWAP1 SWAP2 PUSH1 0x1 PUSH1 0x1 PUSH1 0xA0 SHL SUB AND SWAP1 PUSH4 0x8A888953 SWAP1 PUSH1 0x44 ADD PUSH1 0x20 PUSH1 0x40 MLOAD DUP1 DUP4 SUB DUP2 DUP7 GAS STATICCALL ISZERO DUP1 ISZERO PUSH2 0x170B JUMPI RETURNDATASIZE PUSH1 0x0 DUP1 RETURNDATACOPY RETURNDATASIZE PUSH1 0x0 REVERT JUMPDEST POP POP POP POP PUSH1 0x40 MLOAD RETURNDATASIZE PUSH1 0x1F NOT PUSH1 0x1F DUP3 ADD AND DUP3 ADD DUP1 PUSH1 0x40 MSTORE POP DUP2 ADD SWAP1 PUSH2 0x172F SWAP2 SWAP1 PUSH2 0x522B JUMP JUMPDEST PUSH1 0x16 SLOAD PUSH1 0x40 MLOAD PUSH32 0xA9059CBB00000000000000000000000000000000000000000000000000000000 DUP2 MSTORE PUSH1 0x1 PUSH1 0x1 PUSH1 0xA0 SHL SUB DUP1 DUP5 AND PUSH1 0x4 DUP4 ADD MSTORE PUSH4 0x35A4E900 PUSH1 0x24 DUP4 ADD MSTORE SWAP3 SWAP4 POP SWAP2 AND SWAP1 PUSH4 0xA9059CBB SWAP1 PUSH1 0x44 ADD PUSH1 0x20 PUSH1 0x40 MLOAD DUP1 DUP4 SUB DUP2 PUSH1 0x0 DUP8 GAS CALL ISZERO DUP1 ISZERO PUSH2 0x17A0 JUMPI RETURNDATASIZE PUSH1 0x0 DUP1 RETURNDATACOPY RETURNDATASIZE PUSH1 0x0 REVERT JUMPDEST POP POP POP POP PUSH1 0x40 MLOAD RETURNDATASIZE PUSH1 0x1F NOT PUSH1 0x1F DUP3 ADD AND DUP3 ADD DUP1 PUSH1 0x40 MSTORE POP DUP2 ADD SWAP1 PUSH2 0x17C4 SWAP2 SWAP1 PUSH2 0x5248 JUMP JUMPDEST PUSH2 0x1810 JUMPI PUSH1 0x40 MLOAD PUSH3 0x461BCD PUSH1 0xE5 SHL DUP2 MSTORE PUSH1 0x20 PUSH1 0x4 DUP3 ADD MSTORE PUSH1 0x14 PUSH1 0x24 DUP3 ADD MSTORE PUSH32 0x4C6561646572207061796F7574206661696C6564000000000000000000000000 PUSH1 0x44 DUP3 ADD MSTORE PUSH1 0x64 ADD PUSH2 0x7AF JUMP JUMPDEST PUSH1 0x16 SLOAD PUSH1 0x40 MLOAD PUSH32 0x42966C6800000000000000000000000000000000000000000000000000000000 DUP2 MSTORE PUSH4 0x5F5E100 PUSH1 0x4 DUP3 ADD MSTORE PUSH1 0x1 PUSH1 0x1 PUSH1 0xA0 SHL SUB SWAP1 SWAP2 AND SWAP1 PUSH4 0x42966C68 SWAP1 PUSH1 0x24 ADD PUSH1 0x20 PUSH1 0x40 MLOAD DUP1 DUP4 SUB DUP2 PUSH1 0x0 DUP8 GAS CALL ISZERO DUP1 ISZERO PUSH2 0x1877 JUMPI RETURNDATASIZE PUSH1 0x0 DUP1 RETURNDATACOPY RETURNDATASIZE PUSH1 0x0 REVERT JUMPDEST POP POP POP POP PUSH1 0x40 MLOAD RETURNDATASIZE PUSH1 0x1F NOT PUSH1 0x1F DUP3 ADD AND DUP3 ADD DUP1 PUSH1 0x40 MSTORE POP DUP2 ADD SWAP1 PUSH2 0x189B SWAP2 SWAP1 PUSH2 0x5248 JUMP JUMPDEST PUSH2 0x18E7 JUMPI PUSH1 0x40 MLOAD PUSH3 0x461BCD PUSH1 0xE5 SHL DUP2 MSTORE PUSH1 0x20 PUSH1 0x4 DUP3 ADD MSTORE PUSH1 0xB PUSH1 0x24 DUP3 ADD MSTORE PUSH32 0x4275726E206661696C6564000000000000000000000000000000000000000000 PUSH1 0x44 DUP3 ADD MSTORE PUSH1 0x64 ADD PUSH2 0x7AF JUMP JUMPDEST POP POP POP POP POP POP PUSH2 0x18F7 PUSH1 0x1 PUSH1 0x0 SSTORE JUMP JUMPDEST POP POP JUMP JUMPDEST PUSH1 0x0 PUSH1 0x14 DUP4 PUSH1 0xFF AND LT DUP1 ISZERO PUSH2 0x1913 JUMPI POP PUSH1 0x14 DUP3 PUSH1 0xFF AND LT JUMPDEST PUSH2 0x195F JUMPI PUSH1 0x40 MLOAD PUSH3 0x461BCD PUSH1 0xE5 SHL DUP2 MSTORE PUSH1 0x20 PUSH1 0x4 DUP3 ADD MSTORE PUSH1 0x13 PUSH1 0x24 DUP3 ADD MSTORE PUSH32 0x496E76616C696420636F6F7264696E6174657300000000000000000000000000 PUSH1 0x44 DUP3 ADD MSTORE PUSH1 0x64 ADD PUSH2 0x7AF JUMP JUMPDEST PUSH1 0x1 DUP4 PUSH1 0xFF AND PUSH1 0x14 DUP2 LT PUSH2 0x1975 JUMPI PUSH2 0x1975 PUSH2 0x5446 JUMP JUMPDEST ADD DUP3 PUSH1 0xFF AND PUSH1 0x14 DUP2 LT PUSH2 0x198A JUMPI PUSH2 0x198A PUSH2 0x5446 JUMP JUMPDEST PUSH1 0x20 DUP2 DIV SWAP1 SWAP2 ADD SLOAD PUSH1 0xFF PUSH1 0x1F SWAP1 SWAP3 AND PUSH2 0x100 EXP SWAP1 DIV AND SWAP1 POP SWAP3 SWAP2 POP POP JUMP JUMPDEST PUSH1 0x60 PUSH1 0x0 DUP1 JUMPDEST PUSH1 0x14 DUP2 PUSH1 0xFF AND LT ISZERO PUSH2 0x1A25 JUMPI PUSH1 0x0 JUMPDEST PUSH1 0x14 DUP2 PUSH1 0xFF AND LT ISZERO PUSH2 0x1A12 JUMPI PUSH1 0xFF DUP1 DUP4 AND PUSH1 0x0 SWAP1 DUP2 MSTORE PUSH1 0x21 PUSH1 0x20 SWAP1 DUP2 MSTORE PUSH1 0x40 DUP1 DUP4 KECCAK256 SWAP4 DUP6 AND DUP4 MSTORE SWAP3 SWAP1 MSTORE KECCAK256 SLOAD PUSH2 0xFFFF AND ISZERO PUSH2 0x1A00 JUMPI DUP3 PUSH2 0x19FC DUP2 PUSH2 0x54B7 JUMP JUMPDEST SWAP4 POP POP JUMPDEST DUP1 PUSH2 0x1A0A DUP2 PUSH2 0x54D1 JUMP JUMPDEST SWAP2 POP POP PUSH2 0x19BD JUMP JUMPDEST POP DUP1 PUSH2 0x1A1D DUP2 PUSH2 0x54D1 JUMP JUMPDEST SWAP2 POP POP PUSH2 0x19AE JUMP JUMPDEST POP PUSH1 0x0 DUP2 PUSH8 0xFFFFFFFFFFFFFFFF DUP2 GT ISZERO PUSH2 0x1A41 JUMPI PUSH2 0x1A41 PUSH2 0x526A JUMP JUMPDEST PUSH1 0x40 MLOAD SWAP1 DUP1 DUP3 MSTORE DUP1 PUSH1 0x20 MUL PUSH1 0x20 ADD DUP3 ADD PUSH1 0x40 MSTORE DUP1 ISZERO PUSH2 0x1A93 JUMPI DUP2 PUSH1 0x20 ADD JUMPDEST PUSH1 0x40 DUP1 MLOAD PUSH1 0x80 DUP2 ADD DUP3 MSTORE PUSH1 0x0 DUP1 DUP3 MSTORE PUSH1 0x20 DUP1 DUP4 ADD DUP3 SWAP1 MSTORE SWAP3 DUP3 ADD DUP2 SWAP1 MSTORE PUSH1 0x60 DUP3 ADD MSTORE DUP3 MSTORE PUSH1 0x0 NOT SWAP1 SWAP3 ADD SWAP2 ADD DUP2 PUSH2 0x1A5F JUMPI SWAP1 POP JUMPDEST POP SWAP1 POP PUSH1 0x0 DUP1 JUMPDEST PUSH1 0x14 DUP2 PUSH1 0xFF AND LT ISZERO PUSH2 0x1B77 JUMPI PUSH1 0x0 JUMPDEST PUSH1 0x14 DUP2 PUSH1 0xFF AND LT ISZERO PUSH2 0x1B64 JUMPI PUSH1 0xFF DUP1 DUP4 AND PUSH1 0x0 SWAP1 DUP2 MSTORE PUSH1 0x21 PUSH1 0x20 SWAP1 DUP2 MSTORE PUSH1 0x40 DUP1 DUP4 KECCAK256 SWAP4 DUP6 AND DUP4 MSTORE SWAP3 SWAP1 MSTORE KECCAK256 SLOAD PUSH2 0xFFFF AND DUP1 ISZERO PUSH2 0x1B51 JUMPI PUSH1 0x40 MLOAD DUP1 PUSH1 0x80 ADD PUSH1 0x40 MSTORE DUP1 DUP5 PUSH1 0xFF AND DUP2 MSTORE PUSH1 0x20 ADD DUP4 PUSH1 0xFF AND DUP2 MSTORE PUSH1 0x20 ADD DUP3 PUSH2 0xFFFF AND DUP2 MSTORE PUSH1 0x20 ADD PUSH1 0x23 PUSH1 0x0 DUP5 PUSH2 0xFFFF AND PUSH2 0xFFFF AND DUP2 MSTORE PUSH1 0x20 ADD SWAP1 DUP2 MSTORE PUSH1 0x20 ADD PUSH1 0x0 KECCAK256 SLOAD DUP2 MSTORE POP DUP6 DUP6 DUP2 MLOAD DUP2 LT PUSH2 0x1B37 JUMPI PUSH2 0x1B37 PUSH2 0x5446 JUMP JUMPDEST PUSH1 0x20 MUL PUSH1 0x20 ADD ADD DUP2 SWAP1 MSTORE POP DUP4 DUP1 PUSH2 0x1B4D SWAP1 PUSH2 0x54B7 JUMP JUMPDEST SWAP5 POP POP JUMPDEST POP DUP1 PUSH2 0x1B5C DUP2 PUSH2 0x54D1 JUMP JUMPDEST SWAP2 POP POP PUSH2 0x1AA9 JUMP JUMPDEST POP DUP1 PUSH2 0x1B6F DUP2 PUSH2 0x54D1 JUMP JUMPDEST SWAP2 POP POP PUSH2 0x1A9A JUMP JUMPDEST POP SWAP1 SWAP4 SWAP3 POP POP POP JUMP JUMPDEST PUSH2 0x1B88 PUSH2 0x4852 JUMP JUMPDEST PUSH1 0x0 DUP3 DUP3 DUP1 DUP1 PUSH1 0x1F ADD PUSH1 0x20 DUP1 SWAP2 DIV MUL PUSH1 0x20 ADD PUSH1 0x40 MLOAD SWAP1 DUP2 ADD PUSH1 0x40 MSTORE DUP1 SWAP4 SWAP3 SWAP2 SWAP1 DUP2 DUP2 MSTORE PUSH1 0x20 ADD DUP4 DUP4 DUP1 DUP3 DUP5 CALLDATACOPY PUSH1 0x0 SWAP3 ADD SWAP2 SWAP1 SWAP2 MSTORE POP POP DUP3 MLOAD SWAP3 SWAP4 POP POP POP PUSH2 0x1C11 JUMPI PUSH1 0x40 MLOAD PUSH3 0x461BCD PUSH1 0xE5 SHL DUP2 MSTORE PUSH1 0x20 PUSH1 0x4 DUP3 ADD MSTORE PUSH1 0x16 PUSH1 0x24 DUP3 ADD MSTORE PUSH32 0x48616E646C652063616E6E6F7420626520656D70747900000000000000000000 PUSH1 0x44 DUP3 ADD MSTORE PUSH1 0x64 ADD PUSH2 0x7AF JUMP JUMPDEST PUSH1 0x20 DUP2 MLOAD GT ISZERO PUSH2 0x1C63 JUMPI PUSH1 0x40 MLOAD PUSH3 0x461BCD PUSH1 0xE5 SHL DUP2 MSTORE PUSH1 0x20 PUSH1 0x4 DUP3 ADD MSTORE PUSH1 0xF PUSH1 0x24 DUP3 ADD MSTORE PUSH32 0x48616E646C6520746F6F206C6F6E670000000000000000000000000000000000 PUSH1 0x44 DUP3 ADD MSTORE PUSH1 0x64 ADD PUSH2 0x7AF JUMP JUMPDEST PUSH1 0x16 SLOAD PUSH1 0x40 MLOAD PUSH32 0x23B872DD00000000000000000000000000000000000000000000000000000000 DUP2 MSTORE CALLER PUSH1 0x4 DUP3 ADD MSTORE ADDRESS PUSH1 0x24 DUP3 ADD MSTORE PUSH4 0x3B9ACA00 PUSH1 0x44 DUP3 ADD MSTORE PUSH1 0x1 PUSH1 0x1 PUSH1 0xA0 SHL SUB SWAP1 SWAP2 AND SWAP1 PUSH4 0x23B872DD SWAP1 PUSH1 0x64 ADD PUSH1 0x20 PUSH1 0x40 MLOAD DUP1 DUP4 SUB DUP2 PUSH1 0x0 DUP8 GAS CALL ISZERO DUP1 ISZERO PUSH2 0x1CD6 JUMPI RETURNDATASIZE PUSH1 0x0 DUP1 RETURNDATACOPY RETURNDATASIZE PUSH1 0x0 REVERT JUMPDEST POP POP POP POP PUSH1 0x40 MLOAD RETURNDATASIZE PUSH1 0x1F NOT PUSH1 0x1F DUP3 ADD AND DUP3 ADD DUP1 PUSH1 0x40 MSTORE POP DUP2 ADD SWAP1 PUSH2 0x1CFA SWAP2 SWAP1 PUSH2 0x5248 JUMP JUMPDEST PUSH2 0x1D46 JUMPI PUSH1 0x40 MLOAD PUSH3 0x461BCD PUSH1 0xE5 SHL DUP2 MSTORE PUSH1 0x20 PUSH1 0x4 DUP3 ADD MSTORE PUSH1 0x13 PUSH1 0x24 DUP3 ADD MSTORE PUSH32 0x4C4F50207472616E73666572206661696C656400000000000000000000000000 PUSH1 0x44 DUP3 ADD MSTORE PUSH1 0x64 ADD PUSH2 0x7AF JUMP JUMPDEST PUSH1 0x16 SLOAD PUSH1 0x40 MLOAD PUSH32 0x42966C6800000000000000000000000000000000000000000000000000000000 DUP2 MSTORE PUSH4 0x3B9ACA00 PUSH1 0x4 DUP3 ADD MSTORE PUSH1 0x1 PUSH1 0x1 PUSH1 0xA0 SHL SUB SWAP1 SWAP2 AND SWAP1 PUSH4 0x42966C68 SWAP1 PUSH1 0x24 ADD PUSH1 0x20 PUSH1 0x40 MLOAD DUP1 DUP4 SUB DUP2 PUSH1 0x0 DUP8 GAS CALL ISZERO DUP1 ISZERO PUSH2 0x1DAD JUMPI RETURNDATASIZE PUSH1 0x0 DUP1 RETURNDATACOPY RETURNDATASIZE PUSH1 0x0 REVERT JUMPDEST POP POP POP POP PUSH1 0x40 MLOAD RETURNDATASIZE PUSH1 0x1F NOT PUSH1 0x1F DUP3 ADD AND DUP3 ADD DUP1 PUSH1 0x40 MSTORE POP DUP2 ADD SWAP1 PUSH2 0x1DD1 SWAP2 SWAP1 PUSH2 0x5248 JUMP JUMPDEST PUSH2 0x1E1D JUMPI PUSH1 0x40 MLOAD PUSH3 0x461BCD PUSH1 0xE5 SHL DUP2 MSTORE PUSH1 0x20 PUSH1 0x4 DUP3 ADD MSTORE PUSH1 0xB PUSH1 0x24 DUP3 ADD MSTORE PUSH32 0x4275726E206661696C6564000000000000000000000000000000000000000000 PUSH1 0x44 DUP3 ADD MSTORE PUSH1 0x64 ADD PUSH2 0x7AF JUMP JUMPDEST CALLER PUSH1 0x0 SWAP1 DUP2 MSTORE PUSH1 0x20 DUP1 MSTORE PUSH1 0x40 SWAP1 KECCAK256 PUSH2 0x1E36 DUP4 DUP6 DUP4 PUSH2 0x533A JUMP JUMPDEST POP POP PUSH2 0x18F7 PUSH1 0x1 PUSH1 0x0 SSTORE JUMP JUMPDEST PUSH1 0x0 DUP1 PUSH2 0x1E84 DUP5 DUP5 DUP1 DUP1 PUSH1 0x1F ADD PUSH1 0x20 DUP1 SWAP2 DIV MUL PUSH1 0x20 ADD PUSH1 0x40 MLOAD SWAP1 DUP2 ADD PUSH1 0x40 MSTORE DUP1 SWAP4 SWAP3 SWAP2 SWAP1 DUP2 DUP2 MSTORE PUSH1 0x20 ADD DUP4 DUP4 DUP1 DUP3 DUP5 CALLDATACOPY PUSH1 0x0 SWAP3 ADD SWAP2 SWAP1 SWAP2 MSTORE POP PUSH2 0x48B2 SWAP3 POP POP POP JUMP JUMPDEST SWAP1 POP DUP1 MLOAD PUSH1 0x0 SUB PUSH2 0x1E99 JUMPI PUSH1 0x0 SWAP2 POP POP PUSH2 0xB2B JUMP JUMPDEST PUSH1 0x0 PUSH2 0x1EA4 DUP3 PUSH2 0x4AE4 JUMP JUMPDEST PUSH1 0x40 MLOAD PUSH1 0x20 ADD PUSH2 0x1EB4 SWAP2 SWAP1 PUSH2 0x54F0 JUMP JUMPDEST PUSH1 0x40 DUP1 MLOAD DUP1 DUP4 SUB PUSH1 0x1F NOT ADD DUP2 MSTORE SWAP2 DUP2 MSTORE DUP2 MLOAD PUSH1 0x20 SWAP3 DUP4 ADD KECCAK256 PUSH1 0x0 SWAP1 DUP2 MSTORE PUSH1 0x18 SWAP1 SWAP3 MSTORE SWAP1 KECCAK256 SLOAD PUSH1 0xFF AND ISZERO SWAP6 SWAP5 POP POP POP POP POP JUMP JUMPDEST PUSH2 0x1EEE PUSH2 0x4852 JUMP JUMPDEST PUSH1 0x15 SLOAD PUSH1 0x40 MLOAD PUSH4 0x8A888953 PUSH1 0xE0 SHL DUP2 MSTORE PUSH1 0xFF DUP1 DUP6 AND PUSH1 0x4 DUP4 ADD MSTORE DUP4 AND PUSH1 0x24 DUP3 ADD MSTORE DUP4 SWAP2 DUP4 SWAP2 CALLER SWAP2 PUSH1 0x1 PUSH1 0x1 PUSH1 0xA0 SHL SUB AND SWAP1 PUSH4 0x8A888953 SWAP1 PUSH1 0x44 ADD PUSH1 0x20 PUSH1 0x40 MLOAD DUP1 DUP4 SUB DUP2 DUP7 GAS STATICCALL ISZERO DUP1 ISZERO PUSH2 0x1F45 JUMPI RETURNDATASIZE PUSH1 0x0 DUP1 RETURNDATACOPY RETURNDATASIZE PUSH1 0x0 REVERT JUMPDEST POP POP POP POP PUSH1 0x40 MLOAD RETURNDATASIZE PUSH1 0x1F NOT PUSH1 0x1F DUP3 ADD AND DUP3 ADD DUP1 PUSH1 0x40 MSTORE POP DUP2 ADD SWAP1 PUSH2 0x1F69 SWAP2 SWAP1 PUSH2 0x522B JUMP JUMPDEST PUSH1 0x1 PUSH1 0x1 PUSH1 0xA0 SHL SUB AND EQ PUSH2 0x1FBF JUMPI PUSH1 0x40 MLOAD PUSH3 0x461BCD PUSH1 0xE5 SHL DUP2 MSTORE PUSH1 0x20 PUSH1 0x4 DUP3 ADD MSTORE PUSH1 0x18 PUSH1 0x24 DUP3 ADD MSTORE PUSH32 0x596F7520646F206E6F74206F776E20746869732074696C650000000000000000 PUSH1 0x44 DUP3 ADD MSTORE PUSH1 0x64 ADD PUSH2 0x7AF JUMP JUMPDEST PUSH1 0xFF DUP4 AND PUSH1 0x8 DUP6 SWAP1 SHL PUSH2 0xFF00 AND OR PUSH1 0x0 DUP2 DUP2 MSTORE PUSH1 0x1E PUSH1 0x20 MSTORE PUSH1 0x40 SWAP1 KECCAK256 SLOAD PUSH2 0xFFFF AND PUSH2 0x202C JUMPI PUSH1 0x40 MLOAD PUSH3 0x461BCD PUSH1 0xE5 SHL DUP2 MSTORE PUSH1 0x20 PUSH1 0x4 DUP3 ADD MSTORE PUSH1 0x1F PUSH1 0x24 DUP3 ADD MSTORE PUSH32 0x4E6F2070656E64696E6720696E7669746520666F7220746869732074696C6500 PUSH1 0x44 DUP3 ADD MSTORE PUSH1 0x64 ADD PUSH2 0x7AF JUMP JUMPDEST PUSH2 0xFFFF AND PUSH1 0x0 SWAP1 DUP2 MSTORE PUSH1 0x1E PUSH1 0x20 MSTORE PUSH1 0x40 SWAP1 KECCAK256 DUP1 SLOAD PUSH2 0xFFFF NOT AND SWAP1 SSTORE POP PUSH2 0x18F7 SWAP1 POP PUSH1 0x1 PUSH1 0x0 SSTORE JUMP JUMPDEST PUSH2 0xFFFF DUP2 AND PUSH1 0x0 SWAP1 DUP2 MSTORE PUSH1 0x1B PUSH1 0x20 MSTORE PUSH1 0x40 DUP2 KECCAK256 PUSH1 0x1 ADD SLOAD PUSH4 0x1000000 SWAP1 DIV PUSH1 0xFF AND PUSH2 0x20C1 JUMPI PUSH1 0x40 MLOAD PUSH3 0x461BCD PUSH1 0xE5 SHL DUP2 MSTORE PUSH1 0x20 PUSH1 0x4 DUP3 ADD MSTORE PUSH1 0x13 PUSH1 0x24 DUP3 ADD MSTORE PUSH32 0x436C616E20646F6573206E6F7420657869737400000000000000000000000000 PUSH1 0x44 DUP3 ADD MSTORE PUSH1 0x64 ADD PUSH2 0x7AF JUMP JUMPDEST POP PUSH2 0xFFFF AND PUSH1 0x0 SWAP1 DUP2 MSTORE PUSH1 0x1B PUSH1 0x20 MSTORE PUSH1 0x40 SWAP1 KECCAK256 PUSH1 0x1 ADD SLOAD PUSH3 0x10000 SWAP1 DIV PUSH1 0xFF AND SWAP1 JUMP JUMPDEST PUSH2 0x20EC PUSH2 0x4852 JUMP JUMPDEST PUSH2 0xFFFF DUP4 AND PUSH1 0x0 SWAP1 DUP2 MSTORE PUSH1 0x1B PUSH1 0x20 MSTORE PUSH1 0x40 SWAP1 KECCAK256 PUSH1 0x1 ADD SLOAD DUP4 SWAP1 DUP4 SWAP1 DUP4 SWAP1 PUSH4 0x1000000 SWAP1 DIV PUSH1 0xFF AND PUSH2 0x215F JUMPI PUSH1 0x40 MLOAD PUSH3 0x461BCD PUSH1 0xE5 SHL DUP2 MSTORE PUSH1 0x20 PUSH1 0x4 DUP3 ADD MSTORE PUSH1 0x13 PUSH1 0x24 DUP3 ADD MSTORE PUSH32 0x436C616E20646F6573206E6F7420657869737400000000000000000000000000 PUSH1 0x44 DUP3 ADD MSTORE PUSH1 0x64 ADD PUSH2 0x7AF JUMP JUMPDEST PUSH2 0xFFFF DUP4 AND PUSH1 0x0 SWAP1 DUP2 MSTORE PUSH1 0x1B PUSH1 0x20 MSTORE PUSH1 0x40 SWAP1 KECCAK256 PUSH1 0x1 ADD SLOAD PUSH1 0xFF DUP4 DUP2 AND SWAP2 AND EQ DUP1 ISZERO PUSH2 0x21AA JUMPI POP PUSH2 0xFFFF DUP4 AND PUSH1 0x0 SWAP1 DUP2 MSTORE PUSH1 0x1B PUSH1 0x20 MSTORE PUSH1 0x40 SWAP1 KECCAK256 PUSH1 0x1 ADD SLOAD PUSH1 0xFF DUP3 DUP2 AND PUSH2 0x100 SWAP1 SWAP3 DIV AND EQ JUMPDEST PUSH2 0x21F6 JUMPI PUSH1 0x40 MLOAD PUSH3 0x461BCD PUSH1 0xE5 SHL DUP2 MSTORE PUSH1 0x20 PUSH1 0x4 DUP3 ADD MSTORE PUSH1 0xF PUSH1 0x24 DUP3 ADD MSTORE PUSH32 0x4E6F74206C65616465722074696C650000000000000000000000000000000000 PUSH1 0x44 DUP3 ADD MSTORE PUSH1 0x64 ADD PUSH2 0x7AF JUMP JUMPDEST PUSH1 0x15 SLOAD PUSH1 0x40 MLOAD PUSH4 0x8A888953 PUSH1 0xE0 SHL DUP2 MSTORE PUSH1 0xFF DUP1 DUP6 AND PUSH1 0x4 DUP4 ADD MSTORE DUP4 AND PUSH1 0x24 DUP3 ADD MSTORE CALLER SWAP2 PUSH1 0x1 PUSH1 0x1 PUSH1 0xA0 SHL SUB AND SWAP1 PUSH4 0x8A888953 SWAP1 PUSH1 0x44 ADD PUSH1 0x20 PUSH1 0x40 MLOAD DUP1 DUP4 SUB DUP2 DUP7 GAS STATICCALL ISZERO DUP1 ISZERO PUSH2 0x2249 JUMPI RETURNDATASIZE PUSH1 0x0 DUP1 RETURNDATACOPY RETURNDATASIZE PUSH1 0x0 REVERT JUMPDEST POP POP POP POP PUSH1 0x40 MLOAD RETURNDATASIZE PUSH1 0x1F NOT PUSH1 0x1F DUP3 ADD AND DUP3 ADD DUP1 PUSH1 0x40 MSTORE POP DUP2 ADD SWAP1 PUSH2 0x226D SWAP2 SWAP1 PUSH2 0x522B JUMP JUMPDEST PUSH1 0x1 PUSH1 0x1 PUSH1 0xA0 SHL SUB AND EQ PUSH2 0x22C3 JUMPI PUSH1 0x40 MLOAD PUSH3 0x461BCD PUSH1 0xE5 SHL DUP2 MSTORE PUSH1 0x20 PUSH1 0x4 DUP3 ADD MSTORE PUSH1 0x1D PUSH1 0x24 DUP3 ADD MSTORE PUSH32 0x596F7520646F6E2774206F776E20746865206C65616465722074696C65000000 PUSH1 0x44 DUP3 ADD MSTORE PUSH1 0x64 ADD PUSH2 0x7AF JUMP JUMPDEST PUSH1 0x17 SLOAD PUSH1 0x40 MLOAD PUSH32 0x1ACC55EA00000000000000000000000000000000000000000000000000000000 DUP2 MSTORE PUSH1 0xFF DUP1 DUP9 AND PUSH1 0x4 DUP4 ADD MSTORE DUP7 AND PUSH1 0x24 DUP3 ADD MSTORE PUSH1 0x1 PUSH1 0x1 PUSH1 0xA0 SHL SUB SWAP1 SWAP2 AND SWAP1 PUSH4 0x1ACC55EA SWAP1 PUSH1 0x44 ADD PUSH1 0x20 PUSH1 0x40 MLOAD DUP1 DUP4 SUB DUP2 DUP7 GAS STATICCALL ISZERO DUP1 ISZERO PUSH2 0x232F JUMPI RETURNDATASIZE PUSH1 0x0 DUP1 RETURNDATACOPY RETURNDATASIZE PUSH1 0x0 REVERT JUMPDEST POP POP POP POP PUSH1 0x40 MLOAD RETURNDATASIZE PUSH1 0x1F NOT PUSH1 0x1F DUP3 ADD AND DUP3 ADD DUP1 PUSH1 0x40 MSTORE POP DUP2 ADD SWAP1 PUSH2 0x2353 SWAP2 SWAP1 PUSH2 0x5248 JUMP JUMPDEST PUSH2 0x239F JUMPI PUSH1 0x40 MLOAD PUSH3 0x461BCD PUSH1 0xE5 SHL DUP2 MSTORE PUSH1 0x20 PUSH1 0x4 DUP3 ADD MSTORE PUSH1 0x19 PUSH1 0x24 DUP3 ADD MSTORE PUSH32 0x596F75206D7573742068617665206120436C616E2048616C6C00000000000000 PUSH1 0x44 DUP3 ADD MSTORE PUSH1 0x64 ADD PUSH2 0x7AF JUMP JUMPDEST PUSH2 0xFFFF DUP7 AND PUSH1 0x0 SWAP1 DUP2 MSTORE PUSH1 0x1D PUSH1 0x20 MSTORE PUSH1 0x40 DUP2 KECCAK256 SWAP1 JUMPDEST DUP2 SLOAD DUP2 LT ISZERO PUSH2 0x24A5 JUMPI PUSH1 0x0 DUP1 PUSH2 0x2408 DUP5 DUP5 DUP2 SLOAD DUP2 LT PUSH2 0x23D5 JUMPI PUSH2 0x23D5 PUSH2 0x5446 JUMP JUMPDEST SWAP1 PUSH1 0x0 MSTORE PUSH1 0x20 PUSH1 0x0 KECCAK256 SWAP1 PUSH1 0x10 SWAP2 DUP3 DUP3 DIV ADD SWAP2 SWAP1 MOD PUSH1 0x2 MUL SWAP1 SLOAD SWAP1 PUSH2 0x100 EXP SWAP1 DIV PUSH2 0xFFFF AND PUSH1 0xFF PUSH1 0x8 DUP3 SWAP1 SHR DUP2 AND SWAP3 SWAP2 AND SWAP1 JUMP JUMPDEST SWAP2 POP SWAP2 POP PUSH1 0x0 PUSH1 0x1C PUSH1 0x0 DUP7 DUP7 DUP2 SLOAD DUP2 LT PUSH2 0x2424 JUMPI PUSH2 0x2424 PUSH2 0x5446 JUMP JUMPDEST PUSH1 0x0 SWAP2 DUP3 MSTORE PUSH1 0x20 DUP1 DUP4 KECCAK256 PUSH1 0x10 DUP4 DIV ADD SLOAD PUSH1 0xF SWAP1 SWAP3 AND PUSH1 0x2 MUL PUSH2 0x100 EXP SWAP1 SWAP2 DIV PUSH2 0xFFFF AND DUP4 MSTORE DUP3 DUP2 ADD SWAP4 SWAP1 SWAP4 MSTORE PUSH1 0x40 SWAP2 DUP3 ADD DUP2 KECCAK256 DUP1 SLOAD PUSH3 0xFF0000 NOT AND PUSH3 0x10000 SWAP6 ISZERO ISZERO SWAP6 SWAP1 SWAP6 MUL SWAP5 SWAP1 SWAP5 OR SWAP1 SWAP4 SSTORE PUSH1 0xFF SWAP5 DUP6 AND DUP4 MSTORE PUSH1 0x21 DUP3 MSTORE DUP1 DUP4 KECCAK256 SWAP4 SWAP1 SWAP5 AND DUP3 MSTORE SWAP2 SWAP1 SWAP2 MSTORE KECCAK256 DUP1 SLOAD PUSH2 0xFFFF NOT AND SWAP1 SSTORE DUP1 PUSH2 0x249D DUP2 PUSH2 0x54B7 JUMP JUMPDEST SWAP2 POP POP PUSH2 0x23B4 JUMP JUMPDEST POP PUSH2 0xFFFF DUP8 AND PUSH1 0x0 SWAP1 DUP2 MSTORE PUSH1 0x1D PUSH1 0x20 MSTORE PUSH1 0x40 DUP2 KECCAK256 PUSH2 0x24C2 SWAP2 PUSH2 0x4CBC JUMP JUMPDEST PUSH2 0xFFFF DUP8 AND PUSH1 0x0 SWAP1 DUP2 MSTORE PUSH1 0x19 PUSH1 0x20 MSTORE PUSH1 0x40 SWAP1 KECCAK256 SLOAD DUP1 ISZERO PUSH2 0x2523 JUMPI PUSH1 0x0 DUP2 DUP2 MSTORE PUSH1 0x18 PUSH1 0x20 SWAP1 DUP2 MSTORE PUSH1 0x40 DUP1 DUP4 KECCAK256 DUP1 SLOAD PUSH32 0xFFFFFFFFFFFFFFFFFFFFFFFFFFFFFFFFFFFFFFFFFFFFFFFFFFFFFFFFFFFFFF00 AND SWAP1 SSTORE PUSH2 0xFFFF DUP12 AND DUP4 MSTORE PUSH1 0x19 SWAP1 SWAP2 MSTORE DUP2 KECCAK256 SSTORE JUMPDEST PUSH2 0xFFFF DUP9 AND PUSH1 0x0 SWAP1 DUP2 MSTORE PUSH1 0x1B PUSH1 0x20 MSTORE PUSH1 0x40 DUP2 KECCAK256 SWAP1 PUSH2 0x2541 DUP3 DUP3 PUSH2 0x4CE4 JUMP JUMPDEST POP PUSH1 0x1 ADD DUP1 SLOAD PUSH32 0xFFFFFFFFFFFFFFFFFFFFFFFFFFFFFFFFFFFFFFFFFFFFFFFFFFFFFFFF00000000 AND SWAP1 SSTORE POP PUSH2 0x257A SWAP4 POP PUSH2 0x48AB SWAP3 POP POP POP JUMP JUMPDEST POP POP POP JUMP JUMPDEST PUSH2 0xFFFF DUP2 AND PUSH1 0x0 SWAP1 DUP2 MSTORE PUSH1 0x1D PUSH1 0x20 MSTORE PUSH1 0x40 DUP2 KECCAK256 DUP1 SLOAD PUSH1 0x60 SWAP3 SWAP1 PUSH8 0xFFFFFFFFFFFFFFFF DUP2 GT ISZERO PUSH2 0x25B0 JUMPI PUSH2 0x25B0 PUSH2 0x526A JUMP JUMPDEST PUSH1 0x40 MLOAD SWAP1 DUP1 DUP3 MSTORE DUP1 PUSH1 0x20 MUL PUSH1 0x20 ADD DUP3 ADD PUSH1 0x40 MSTORE DUP1 ISZERO PUSH2 0x2602 JUMPI DUP2 PUSH1 0x20 ADD JUMPDEST PUSH1 0x40 DUP1 MLOAD PUSH1 0x80 DUP2 ADD DUP3 MSTORE PUSH1 0x0 DUP1 DUP3 MSTORE PUSH1 0x20 DUP1 DUP4 ADD DUP3 SWAP1 MSTORE SWAP3 DUP3 ADD DUP2 SWAP1 MSTORE PUSH1 0x60 DUP3 ADD MSTORE DUP3 MSTORE PUSH1 0x0 NOT SWAP1 SWAP3 ADD SWAP2 ADD DUP2 PUSH2 0x25CE JUMPI SWAP1 POP JUMPDEST POP SWAP1 POP PUSH1 0x0 JUMPDEST DUP3 SLOAD DUP2 LT ISZERO PUSH2 0x26A5 JUMPI PUSH1 0x0 DUP1 PUSH2 0x2629 DUP6 DUP5 DUP2 SLOAD DUP2 LT PUSH2 0x23D5 JUMPI PUSH2 0x23D5 PUSH2 0x5446 JUMP JUMPDEST SWAP2 POP SWAP2 POP PUSH1 0x40 MLOAD DUP1 PUSH1 0x80 ADD PUSH1 0x40 MSTORE DUP1 DUP4 PUSH1 0xFF AND DUP2 MSTORE PUSH1 0x20 ADD DUP3 PUSH1 0xFF AND DUP2 MSTORE PUSH1 0x20 ADD DUP9 PUSH2 0xFFFF AND DUP2 MSTORE PUSH1 0x20 ADD PUSH1 0x23 PUSH1 0x0 DUP11 PUSH2 0xFFFF AND PUSH2 0xFFFF AND DUP2 MSTORE PUSH1 0x20 ADD SWAP1 DUP2 MSTORE PUSH1 0x20 ADD PUSH1 0x0 KECCAK256 SLOAD DUP2 MSTORE POP DUP5 DUP5 DUP2 MLOAD DUP2 LT PUSH2 0x2685 JUMPI PUSH2 0x2685 PUSH2 0x5446 JUMP JUMPDEST PUSH1 0x20 MUL PUSH1 0x20 ADD ADD DUP2 SWAP1 MSTORE POP POP POP DUP1 DUP1 PUSH2 0x269D SWAP1 PUSH2 0x54B7 JUMP JUMPDEST SWAP2 POP POP PUSH2 0x2608 JUMP JUMPDEST POP SWAP4 SWAP3 POP POP POP JUMP JUMPDEST PUSH1 0x1F PUSH1 0x20 SWAP1 DUP2 MSTORE PUSH1 0x0 SWAP3 DUP4 MSTORE PUSH1 0x40 DUP1 DUP5 KECCAK256 SWAP1 SWAP2 MSTORE SWAP1 DUP3 MSTORE SWAP1 KECCAK256 DUP1 SLOAD PUSH2 0xB49 SWAP1 PUSH2 0x5299 JUMP JUMPDEST PUSH1 0x40 DUP1 MLOAD PUSH1 0xA0 DUP2 ADD DUP3 MSTORE PUSH1 0x60 DUP1 DUP3 MSTORE PUSH1 0x0 PUSH1 0x20 DUP4 ADD DUP2 SWAP1 MSTORE SWAP3 DUP3 ADD DUP4 SWAP1 MSTORE DUP2 ADD DUP3 SWAP1 MSTORE PUSH1 0x80 DUP2 ADD SWAP2 SWAP1 SWAP2 MSTORE PUSH2 0xFFFF DUP3 AND PUSH1 0x0 SWAP1 DUP2 MSTORE PUSH1 0x1B PUSH1 0x20 MSTORE PUSH1 0x40 SWAP1 DUP2 SWAP1 KECCAK256 DUP2 MLOAD PUSH1 0xA0 DUP2 ADD SWAP1 SWAP3 MSTORE DUP1 SLOAD DUP3 SWAP1 DUP3 SWAP1 PUSH2 0x2729 SWAP1 PUSH2 0x5299 JUMP JUMPDEST DUP1 PUSH1 0x1F ADD PUSH1 0x20 DUP1 SWAP2 DIV MUL PUSH1 0x20 ADD PUSH1 0x40 MLOAD SWAP1 DUP2 ADD PUSH1 0x40 MSTORE DUP1 SWAP3 SWAP2 SWAP1 DUP2 DUP2 MSTORE PUSH1 0x20 ADD DUP3 DUP1 SLOAD PUSH2 0x2755 SWAP1 PUSH2 0x5299 JUMP JUMPDEST DUP1 ISZERO PUSH2 0x27A2 JUMPI DUP1 PUSH1 0x1F LT PUSH2 0x2777 JUMPI PUSH2 0x100 DUP1 DUP4 SLOAD DIV MUL DUP4 MSTORE SWAP2 PUSH1 0x20 ADD SWAP2 PUSH2 0x27A2 JUMP JUMPDEST DUP3 ADD SWAP2 SWAP1 PUSH1 0x0 MSTORE PUSH1 0x20 PUSH1 0x0 KECCAK256 SWAP1 JUMPDEST DUP2 SLOAD DUP2 MSTORE SWAP1 PUSH1 0x1 ADD SWAP1 PUSH1 0x20 ADD DUP1 DUP4 GT PUSH2 0x2785 JUMPI DUP3 SWAP1 SUB PUSH1 0x1F AND DUP3 ADD SWAP2 JUMPDEST POP POP POP SWAP2 DUP4 MSTORE POP POP PUSH1 0x1 SWAP2 SWAP1 SWAP2 ADD SLOAD PUSH1 0xFF DUP1 DUP3 AND PUSH1 0x20 DUP5 ADD MSTORE PUSH2 0x100 DUP3 DIV DUP2 AND PUSH1 0x40 DUP5 ADD MSTORE PUSH3 0x10000 DUP3 DIV DUP2 AND PUSH1 0x60 DUP5 ADD MSTORE PUSH4 0x1000000 SWAP1 SWAP2 DIV AND ISZERO ISZERO PUSH1 0x80 SWAP1 SWAP2 ADD MSTORE SWAP3 SWAP2 POP POP JUMP JUMPDEST PUSH2 0x27F3 PUSH2 0x4852 JUMP JUMPDEST PUSH2 0xFFFF DUP6 AND PUSH1 0x0 SWAP1 DUP2 MSTORE PUSH1 0x1B PUSH1 0x20 MSTORE PUSH1 0x40 SWAP1 KECCAK256 PUSH1 0x1 ADD SLOAD DUP6 SWAP1 DUP6 SWAP1 DUP6 SWAP1 PUSH4 0x1000000 SWAP1 DIV PUSH1 0xFF AND PUSH2 0x2866 JUMPI PUSH1 0x40 MLOAD PUSH3 0x461BCD PUSH1 0xE5 SHL DUP2 MSTORE PUSH1 0x20 PUSH1 0x4 DUP3 ADD MSTORE PUSH1 0x13 PUSH1 0x24 DUP3 ADD MSTORE PUSH32 0x436C616E20646F6573206E6F7420657869737400000000000000000000000000 PUSH1 0x44 DUP3 ADD MSTORE PUSH1 0x64 ADD PUSH2 0x7AF JUMP JUMPDEST PUSH2 0xFFFF DUP4 AND PUSH1 0x0 SWAP1 DUP2 MSTORE PUSH1 0x1B PUSH1 0x20 MSTORE PUSH1 0x40 SWAP1 KECCAK256 PUSH1 0x1 ADD SLOAD PUSH1 0xFF DUP4 DUP2 AND SWAP2 AND EQ DUP1 ISZERO PUSH2 0x28B1 JUMPI POP PUSH2 0xFFFF DUP4 AND PUSH1 0x0 SWAP1 DUP2 MSTORE PUSH1 0x1B PUSH1 0x20 MSTORE PUSH1 0x40 SWAP1 KECCAK256 PUSH1 0x1 ADD SLOAD PUSH1 0xFF DUP3 DUP2 AND PUSH2 0x100 SWAP1 SWAP3 DIV AND EQ JUMPDEST PUSH2 0x28FD JUMPI PUSH1 0x40 MLOAD PUSH3 0x461BCD PUSH1 0xE5 SHL DUP2 MSTORE PUSH1 0x20 PUSH1 0x4 DUP3 ADD MSTORE PUSH1 0xF PUSH1 0x24 DUP3 ADD MSTORE PUSH32 0x4E6F74206C65616465722074696C650000000000000000000000000000000000 PUSH1 0x44 DUP3 ADD MSTORE PUSH1 0x64 ADD PUSH2 0x7AF JUMP JUMPDEST PUSH1 0x15 SLOAD PUSH1 0x40 MLOAD PUSH4 0x8A888953 PUSH1 0xE0 SHL DUP2 MSTORE PUSH1 0xFF DUP1 DUP6 AND PUSH1 0x4 DUP4 ADD MSTORE DUP4 AND PUSH1 0x24 DUP3 ADD MSTORE CALLER SWAP2 PUSH1 0x1 PUSH1 0x1 PUSH1 0xA0 SHL SUB AND SWAP1 PUSH4 0x8A888953 SWAP1 PUSH1 0x44 ADD PUSH1 0x20 PUSH1 0x40 MLOAD DUP1 DUP4 SUB DUP2 DUP7 GAS STATICCALL ISZERO DUP1 ISZERO PUSH2 0x2950 JUMPI RETURNDATASIZE PUSH1 0x0 DUP1 RETURNDATACOPY RETURNDATASIZE PUSH1 0x0 REVERT JUMPDEST POP POP POP POP PUSH1 0x40 MLOAD RETURNDATASIZE PUSH1 0x1F NOT PUSH1 0x1F DUP3 ADD AND DUP3 ADD DUP1 PUSH1 0x40 MSTORE POP DUP2 ADD SWAP1 PUSH2 0x2974 SWAP2 SWAP1 PUSH2 0x522B JUMP JUMPDEST PUSH1 0x1 PUSH1 0x1 PUSH1 0xA0 SHL SUB AND EQ PUSH2 0x29CA JUMPI PUSH1 0x40 MLOAD PUSH3 0x461BCD PUSH1 0xE5 SHL DUP2 MSTORE PUSH1 0x20 PUSH1 0x4 DUP3 ADD MSTORE PUSH1 0x1D PUSH1 0x24 DUP3 ADD MSTORE PUSH32 0x596F7520646F6E2774206F776E20746865206C65616465722074696C65000000 PUSH1 0x44 DUP3 ADD MSTORE PUSH1 0x64 ADD PUSH2 0x7AF JUMP JUMPDEST PUSH1 0x17 SLOAD PUSH1 0x40 MLOAD PUSH32 0x1ACC55EA00000000000000000000000000000000000000000000000000000000 DUP2 MSTORE PUSH1 0xFF DUP1 DUP11 AND PUSH1 0x4 DUP4 ADD MSTORE DUP9 AND PUSH1 0x24 DUP3 ADD MSTORE PUSH1 0x1 PUSH1 0x1 PUSH1 0xA0 SHL SUB SWAP1 SWAP2 AND SWAP1 PUSH4 0x1ACC55EA SWAP1 PUSH1 0x44 ADD PUSH1 0x20 PUSH1 0x40 MLOAD DUP1 DUP4 SUB DUP2 DUP7 GAS STATICCALL ISZERO DUP1 ISZERO PUSH2 0x2A36 JUMPI RETURNDATASIZE PUSH1 0x0 DUP1 RETURNDATACOPY RETURNDATASIZE PUSH1 0x0 REVERT JUMPDEST POP POP POP POP PUSH1 0x40 MLOAD RETURNDATASIZE PUSH1 0x1F NOT PUSH1 0x1F DUP3 ADD AND DUP3 ADD DUP1 PUSH1 0x40 MSTORE POP DUP2 ADD SWAP1 PUSH2 0x2A5A SWAP2 SWAP1 PUSH2 0x5248 JUMP JUMPDEST PUSH2 0x2AA6 JUMPI PUSH1 0x40 MLOAD PUSH3 0x461BCD PUSH1 0xE5 SHL DUP2 MSTORE PUSH1 0x20 PUSH1 0x4 DUP3 ADD MSTORE PUSH1 0x19 PUSH1 0x24 DUP3 ADD MSTORE PUSH32 0x596F75206D7573742068617665206120436C616E2048616C6C00000000000000 PUSH1 0x44 DUP3 ADD MSTORE PUSH1 0x64 ADD PUSH2 0x7AF JUMP JUMPDEST PUSH2 0xFFFF DUP9 AND PUSH1 0x0 SWAP1 DUP2 MSTORE PUSH1 0x1B PUSH1 0x20 MSTORE PUSH1 0x40 SWAP1 KECCAK256 PUSH1 0x1 ADD SLOAD PUSH1 0xFF DUP7 DUP2 AND SWAP2 AND EQ DUP1 ISZERO PUSH2 0x2AF1 JUMPI POP PUSH2 0xFFFF DUP9 AND PUSH1 0x0 SWAP1 DUP2 MSTORE PUSH1 0x1B PUSH1 0x20 MSTORE PUSH1 0x40 SWAP1 KECCAK256 PUSH1 0x1 ADD SLOAD PUSH1 0xFF DUP6 DUP2 AND PUSH2 0x100 SWAP1 SWAP3 DIV AND EQ JUMPDEST ISZERO PUSH2 0x2B3E JUMPI PUSH1 0x40 MLOAD PUSH3 0x461BCD PUSH1 0xE5 SHL DUP2 MSTORE PUSH1 0x20 PUSH1 0x4 DUP3 ADD MSTORE PUSH1 0x19 PUSH1 0x24 DUP3 ADD MSTORE PUSH32 0x43616E6E6F742072656D6F7665206C65616465722074696C6500000000000000 PUSH1 0x44 DUP3 ADD MSTORE PUSH1 0x64 ADD PUSH2 0x7AF JUMP JUMPDEST PUSH1 0xFF DUP5 DUP2 AND PUSH1 0x8 DUP8 SWAP1 SHL PUSH2 0xFF00 AND OR PUSH1 0x0 DUP2 DUP2 MSTORE PUSH1 0x1C PUSH1 0x20 MSTORE PUSH1 0x40 SWAP1 KECCAK256 SLOAD SWAP1 SWAP2 PUSH3 0x10000 SWAP1 SWAP2 DIV AND DUP1 ISZERO PUSH2 0x2B89 JUMPI POP PUSH2 0xFFFF DUP2 DUP2 AND PUSH1 0x0 SWAP1 DUP2 MSTORE PUSH1 0x1C PUSH1 0x20 MSTORE PUSH1 0x40 SWAP1 KECCAK256 SLOAD DUP2 AND SWAP1 DUP11 AND EQ JUMPDEST PUSH2 0x2BD5 JUMPI PUSH1 0x40 MLOAD PUSH3 0x461BCD PUSH1 0xE5 SHL DUP2 MSTORE PUSH1 0x20 PUSH1 0x4 DUP3 ADD MSTORE PUSH1 0x15 PUSH1 0x24 DUP3 ADD MSTORE PUSH32 0x54696C65206E6F7420696E207468697320636C616E0000000000000000000000 PUSH1 0x44 DUP3 ADD MSTORE PUSH1 0x64 ADD PUSH2 0x7AF JUMP JUMPDEST PUSH1 0x16 SLOAD PUSH1 0x40 MLOAD PUSH32 0x23B872DD00000000000000000000000000000000000000000000000000000000 DUP2 MSTORE CALLER PUSH1 0x4 DUP3 ADD MSTORE ADDRESS PUSH1 0x24 DUP3 ADD MSTORE PUSH4 0x3B9ACA00 PUSH1 0x44 DUP3 ADD MSTORE PUSH1 0x1 PUSH1 0x1 PUSH1 0xA0 SHL SUB SWAP1 SWAP2 AND SWAP1 PUSH4 0x23B872DD SWAP1 PUSH1 0x64 ADD PUSH1 0x20 PUSH1 0x40 MLOAD DUP1 DUP4 SUB DUP2 PUSH1 0x0 DUP8 GAS CALL ISZERO DUP1 ISZERO PUSH2 0x2C48 JUMPI RETURNDATASIZE PUSH1 0x0 DUP1 RETURNDATACOPY RETURNDATASIZE PUSH1 0x0 REVERT JUMPDEST POP POP POP POP PUSH1 0x40 MLOAD RETURNDATASIZE PUSH1 0x1F NOT PUSH1 0x1F DUP3 ADD AND DUP3 ADD DUP1 PUSH1 0x40 MSTORE POP DUP2 ADD SWAP1 PUSH2 0x2C6C SWAP2 SWAP1 PUSH2 0x5248 JUMP JUMPDEST PUSH2 0x2CB8 JUMPI PUSH1 0x40 MLOAD PUSH3 0x461BCD PUSH1 0xE5 SHL DUP2 MSTORE PUSH1 0x20 PUSH1 0x4 DUP3 ADD MSTORE PUSH1 0x13 PUSH1 0x24 DUP3 ADD MSTORE PUSH32 0x4C4F50207472616E73666572206661696C656400000000000000000000000000 PUSH1 0x44 DUP3 ADD MSTORE PUSH1 0x64 ADD PUSH2 0x7AF JUMP JUMPDEST PUSH2 0xFFFF DUP1 DUP3 AND PUSH1 0x0 SWAP1 DUP2 MSTORE PUSH1 0x1C PUSH1 0x20 SWAP1 DUP2 MSTORE PUSH1 0x40 DUP1 DUP4 KECCAK256 DUP1 SLOAD PUSH3 0xFF0000 NOT AND SWAP1 SSTORE PUSH1 0xFF DUP11 DUP2 AND DUP5 MSTORE PUSH1 0x21 DUP4 MSTORE DUP2 DUP5 KECCAK256 DUP11 DUP3 AND DUP6 MSTORE DUP4 MSTORE DUP2 DUP5 KECCAK256 DUP1 SLOAD PUSH2 0xFFFF NOT AND SWAP1 SSTORE SWAP4 DUP14 AND DUP4 MSTORE PUSH1 0x1B SWAP1 SWAP2 MSTORE SWAP1 KECCAK256 PUSH1 0x1 SWAP1 DUP2 ADD SLOAD PUSH3 0x10000 SWAP1 DIV SWAP1 SWAP2 AND LT ISZERO PUSH2 0x2D41 JUMPI PUSH2 0xFFFF DUP10 AND PUSH1 0x0 SWAP1 DUP2 MSTORE PUSH1 0x1B PUSH1 0x20 MSTORE PUSH1 0x40 SWAP1 KECCAK256 PUSH1 0x1 ADD DUP1 SLOAD PUSH3 0xFF0000 NOT AND PUSH3 0x10000 OR SWAP1 SSTORE JUMPDEST PUSH2 0xFFFF DUP10 AND PUSH1 0x0 SWAP1 DUP2 MSTORE PUSH1 0x1B PUSH1 0x20 MSTORE PUSH1 0x40 SWAP1 KECCAK256 PUSH1 0x1 ADD DUP1 SLOAD PUSH3 0x10000 SWAP1 DIV PUSH1 0xFF AND SWAP1 PUSH1 0x2 PUSH2 0x2D6E DUP4 PUSH2 0x5429 JUMP JUMPDEST DUP3 SLOAD PUSH1 0xFF SWAP2 DUP3 AND PUSH2 0x100 SWAP4 SWAP1 SWAP4 EXP SWAP3 DUP4 MUL SWAP2 SWAP1 SWAP3 MUL NOT SWAP1 SWAP2 AND OR SWAP1 SSTORE POP PUSH2 0xFFFF DUP10 AND PUSH1 0x0 SWAP1 DUP2 MSTORE PUSH1 0x1D PUSH1 0x20 MSTORE PUSH1 0x40 DUP2 KECCAK256 SWAP1 JUMPDEST DUP2 SLOAD DUP2 LT ISZERO PUSH2 0x2EBF JUMPI DUP3 PUSH2 0xFFFF AND DUP3 DUP3 DUP2 SLOAD DUP2 LT PUSH2 0x2DC0 JUMPI PUSH2 0x2DC0 PUSH2 0x5446 JUMP JUMPDEST PUSH1 0x0 SWAP2 DUP3 MSTORE PUSH1 0x20 SWAP1 SWAP2 KECCAK256 PUSH1 0x10 DUP3 DIV ADD SLOAD PUSH1 0xF SWAP1 SWAP2 AND PUSH1 0x2 MUL PUSH2 0x100 EXP SWAP1 DIV PUSH2 0xFFFF AND SUB PUSH2 0x2EAD JUMPI DUP2 SLOAD DUP3 SWAP1 PUSH2 0x2DF7 SWAP1 PUSH1 0x1 SWAP1 PUSH2 0x5475 JUMP JUMPDEST DUP2 SLOAD DUP2 LT PUSH2 0x2E07 JUMPI PUSH2 0x2E07 PUSH2 0x5446 JUMP JUMPDEST SWAP1 PUSH1 0x0 MSTORE PUSH1 0x20 PUSH1 0x0 KECCAK256 SWAP1 PUSH1 0x10 SWAP2 DUP3 DUP3 DIV ADD SWAP2 SWAP1 MOD PUSH1 0x2 MUL SWAP1 SLOAD SWAP1 PUSH2 0x100 EXP SWAP1 DIV PUSH2 0xFFFF AND DUP3 DUP3 DUP2 SLOAD DUP2 LT PUSH2 0x2E3D JUMPI PUSH2 0x2E3D PUSH2 0x5446 JUMP JUMPDEST SWAP1 PUSH1 0x0 MSTORE PUSH1 0x20 PUSH1 0x0 KECCAK256 SWAP1 PUSH1 0x10 SWAP2 DUP3 DUP3 DIV ADD SWAP2 SWAP1 MOD PUSH1 0x2 MUL PUSH2 0x100 EXP DUP2 SLOAD DUP2 PUSH2 0xFFFF MUL NOT AND SWAP1 DUP4 PUSH2 0xFFFF AND MUL OR SWAP1 SSTORE POP DUP2 DUP1 SLOAD DUP1 PUSH2 0x2E7C JUMPI PUSH2 0x2E7C PUSH2 0x5488 JUMP JUMPDEST PUSH1 0x0 DUP3 DUP2 MSTORE PUSH1 0x20 SWAP1 KECCAK256 PUSH1 0x10 PUSH1 0x0 NOT SWAP1 SWAP3 ADD SWAP2 DUP3 DIV ADD DUP1 SLOAD PUSH2 0xFFFF PUSH1 0x2 PUSH1 0xF DUP6 AND MUL PUSH2 0x100 EXP MUL NOT AND SWAP1 SSTORE SWAP1 SSTORE PUSH2 0x2EBF JUMP JUMPDEST DUP1 PUSH2 0x2EB7 DUP2 PUSH2 0x54B7 JUMP JUMPDEST SWAP2 POP POP PUSH2 0x2DA0 JUMP JUMPDEST POP PUSH1 0x15 SLOAD PUSH1 0x40 MLOAD PUSH4 0x8A888953 PUSH1 0xE0 SHL DUP2 MSTORE PUSH1 0xFF DUP1 DUP11 AND PUSH1 0x4 DUP4 ADD MSTORE DUP9 AND PUSH1 0x24 DUP3 ADD MSTORE PUSH1 0x0 SWAP2 PUSH1 0x1 PUSH1 0x1 PUSH1 0xA0 SHL SUB AND SWAP1 PUSH4 0x8A888953 SWAP1 PUSH1 0x44 ADD PUSH1 0x20 PUSH1 0x40 MLOAD DUP1 DUP4 SUB DUP2 DUP7 GAS STATICCALL ISZERO DUP1 ISZERO PUSH2 0x2F14 JUMPI RETURNDATASIZE PUSH1 0x0 DUP1 RETURNDATACOPY RETURNDATASIZE PUSH1 0x0 REVERT JUMPDEST POP POP POP POP PUSH1 0x40 MLOAD RETURNDATASIZE PUSH1 0x1F NOT PUSH1 0x1F DUP3 ADD AND DUP3 ADD DUP1 PUSH1 0x40 MSTORE POP DUP2 ADD SWAP1 PUSH2 0x2F38 SWAP2 SWAP1 PUSH2 0x522B JUMP JUMPDEST PUSH1 0x16 SLOAD PUSH1 0x40 MLOAD PUSH32 0xA9059CBB00000000000000000000000000000000000000000000000000000000 DUP2 MSTORE PUSH1 0x1 PUSH1 0x1 PUSH1 0xA0 SHL SUB DUP1 DUP5 AND PUSH1 0x4 DUP4 ADD MSTORE PUSH4 0x35A4E900 PUSH1 0x24 DUP4 ADD MSTORE SWAP3 SWAP4 POP SWAP2 AND SWAP1 PUSH4 0xA9059CBB SWAP1 PUSH1 0x44 ADD PUSH1 0x20 PUSH1 0x40 MLOAD DUP1 DUP4 SUB DUP2 PUSH1 0x0 DUP8 GAS CALL ISZERO DUP1 ISZERO PUSH2 0x2FA9 JUMPI RETURNDATASIZE PUSH1 0x0 DUP1 RETURNDATACOPY RETURNDATASIZE PUSH1 0x0 REVERT JUMPDEST POP POP POP POP PUSH1 0x40 MLOAD RETURNDATASIZE PUSH1 0x1F NOT PUSH1 0x1F DUP3 ADD AND DUP3 ADD DUP1 PUSH1 0x40 MSTORE POP DUP2 ADD SWAP1 PUSH2 0x2FCD SWAP2 SWAP1 PUSH2 0x5248 JUMP JUMPDEST PUSH2 0x3019 JUMPI PUSH1 0x40 MLOAD PUSH3 0x461BCD PUSH1 0xE5 SHL DUP2 MSTORE PUSH1 0x20 PUSH1 0x4 DUP3 ADD MSTORE PUSH1 0x16 PUSH1 0x24 DUP3 ADD MSTORE PUSH32 0x5061796F7574207472616E73666572206661696C656400000000000000000000 PUSH1 0x44 DUP3 ADD MSTORE PUSH1 0x64 ADD PUSH2 0x7AF JUMP JUMPDEST PUSH1 0x16 SLOAD PUSH1 0x40 MLOAD PUSH32 0x42966C6800000000000000000000000000000000000000000000000000000000 DUP2 MSTORE PUSH4 0x5F5E100 PUSH1 0x4 DUP3 ADD MSTORE PUSH1 0x1 PUSH1 0x1 PUSH1 0xA0 SHL SUB SWAP1 SWAP2 AND SWAP1 PUSH4 0x42966C68 SWAP1 PUSH1 0x24 ADD PUSH1 0x20 PUSH1 0x40 MLOAD DUP1 DUP4 SUB DUP2 PUSH1 0x0 DUP8 GAS CALL ISZERO DUP1 ISZERO PUSH2 0x3080 JUMPI RETURNDATASIZE PUSH1 0x0 DUP1 RETURNDATACOPY RETURNDATASIZE PUSH1 0x0 REVERT JUMPDEST POP POP POP POP PUSH1 0x40 MLOAD RETURNDATASIZE PUSH1 0x1F NOT PUSH1 0x1F DUP3 ADD AND DUP3 ADD DUP1 PUSH1 0x40 MSTORE POP DUP2 ADD SWAP1 PUSH2 0x30A4 SWAP2 SWAP1 PUSH2 0x5248 JUMP JUMPDEST PUSH2 0x30F0 JUMPI PUSH1 0x40 MLOAD PUSH3 0x461BCD PUSH1 0xE5 SHL DUP2 MSTORE PUSH1 0x20 PUSH1 0x4 DUP3 ADD MSTORE PUSH1 0xB PUSH1 0x24 DUP3 ADD MSTORE PUSH32 0x4275726E206661696C6564000000000000000000000000000000000000000000 PUSH1 0x44 DUP3 ADD MSTORE PUSH1 0x64 ADD PUSH2 0x7AF JUMP JUMPDEST POP POP POP POP POP POP PUSH2 0x1143 PUSH1 0x1 PUSH1 0x0 SSTORE JUMP JUMPDEST PUSH2 0x3108 PUSH2 0x4852 JUMP JUMPDEST PUSH1 0x15 SLOAD PUSH1 0x40 MLOAD PUSH4 0x8A888953 PUSH1 0xE0 SHL DUP2 MSTORE PUSH1 0xFF DUP1 DUP8 AND PUSH1 0x4 DUP4 ADD MSTORE DUP6 AND PUSH1 0x24 DUP3 ADD MSTORE DUP6 SWAP2 DUP6 SWAP2 CALLER SWAP2 PUSH1 0x1 PUSH1 0x1 PUSH1 0xA0 SHL SUB AND SWAP1 PUSH4 0x8A888953 SWAP1 PUSH1 0x44 ADD PUSH1 0x20 PUSH1 0x40 MLOAD DUP1 DUP4 SUB DUP2 DUP7 GAS STATICCALL ISZERO DUP1 ISZERO PUSH2 0x315F JUMPI RETURNDATASIZE PUSH1 0x0 DUP1 RETURNDATACOPY RETURNDATASIZE PUSH1 0x0 REVERT JUMPDEST POP POP POP POP PUSH1 0x40 MLOAD RETURNDATASIZE PUSH1 0x1F NOT PUSH1 0x1F DUP3 ADD AND DUP3 ADD DUP1 PUSH1 0x40 MSTORE POP DUP2 ADD SWAP1 PUSH2 0x3183 SWAP2 SWAP1 PUSH2 0x522B JUMP JUMPDEST PUSH1 0x1 PUSH1 0x1 PUSH1 0xA0 SHL SUB AND EQ PUSH2 0x31D9 JUMPI PUSH1 0x40 MLOAD PUSH3 0x461BCD PUSH1 0xE5 SHL DUP2 MSTORE PUSH1 0x20 PUSH1 0x4 DUP3 ADD MSTORE PUSH1 0x18 PUSH1 0x24 DUP3 ADD MSTORE PUSH32 0x596F7520646F206E6F74206F776E20746869732074696C650000000000000000 PUSH1 0x44 DUP3 ADD MSTORE PUSH1 0x64 ADD PUSH2 0x7AF JUMP JUMPDEST PUSH2 0x31E3 DUP5 DUP5 PUSH2 0x4B95 JUMP JUMPDEST PUSH1 0xFF DUP1 DUP8 AND PUSH1 0x0 SWAP1 DUP2 MSTORE PUSH1 0x21 PUSH1 0x20 SWAP1 DUP2 MSTORE PUSH1 0x40 DUP1 DUP4 KECCAK256 SWAP4 DUP10 AND DUP4 MSTORE SWAP3 SWAP1 MSTORE KECCAK256 SLOAD PUSH2 0xFFFF AND ISZERO PUSH2 0x3254 JUMPI PUSH1 0x40 MLOAD PUSH3 0x461BCD PUSH1 0xE5 SHL DUP2 MSTORE PUSH1 0x20 PUSH1 0x4 DUP3 ADD MSTORE PUSH1 0x16 PUSH1 0x24 DUP3 ADD MSTORE PUSH32 0x54696C6520616C726561647920696E206120636C616E00000000000000000000 PUSH1 0x44 DUP3 ADD MSTORE PUSH1 0x64 ADD PUSH2 0x7AF JUMP JUMPDEST PUSH1 0x0 PUSH2 0x3295 DUP6 DUP6 DUP1 DUP1 PUSH1 0x1F ADD PUSH1 0x20 DUP1 SWAP2 DIV MUL PUSH1 0x20 ADD PUSH1 0x40 MLOAD SWAP1 DUP2 ADD PUSH1 0x40 MSTORE DUP1 SWAP4 SWAP3 SWAP2 SWAP1 DUP2 DUP2 MSTORE PUSH1 0x20 ADD DUP4 DUP4 DUP1 DUP3 DUP5 CALLDATACOPY PUSH1 0x0 SWAP3 ADD SWAP2 SWAP1 SWAP2 MSTORE POP PUSH2 0x4C7C SWAP3 POP POP POP JUMP JUMPDEST PUSH1 0x0 DUP2 DUP2 MSTORE PUSH1 0x18 PUSH1 0x20 MSTORE PUSH1 0x40 SWAP1 KECCAK256 SLOAD SWAP1 SWAP2 POP PUSH1 0xFF AND ISZERO PUSH2 0x32F7 JUMPI PUSH1 0x40 MLOAD PUSH3 0x461BCD PUSH1 0xE5 SHL DUP2 MSTORE PUSH1 0x20 PUSH1 0x4 DUP3 ADD MSTORE PUSH1 0x17 PUSH1 0x24 DUP3 ADD MSTORE PUSH32 0x436C616E206E616D6520616C72656164792074616B656E000000000000000000 PUSH1 0x44 DUP3 ADD MSTORE PUSH1 0x64 ADD PUSH2 0x7AF JUMP JUMPDEST PUSH1 0x17 SLOAD PUSH1 0x40 MLOAD PUSH32 0x1ACC55EA00000000000000000000000000000000000000000000000000000000 DUP2 MSTORE PUSH1 0xFF DUP1 DUP11 AND PUSH1 0x4 DUP4 ADD MSTORE DUP9 AND PUSH1 0x24 DUP3 ADD MSTORE PUSH1 0x1 PUSH1 0x1 PUSH1 0xA0 SHL SUB SWAP1 SWAP2 AND SWAP1 PUSH4 0x1ACC55EA SWAP1 PUSH1 0x44 ADD PUSH1 0x20 PUSH1 0x40 MLOAD DUP1 DUP4 SUB DUP2 DUP7 GAS STATICCALL ISZERO DUP1 ISZERO PUSH2 0x3363 JUMPI RETURNDATASIZE PUSH1 0x0 DUP1 RETURNDATACOPY RETURNDATASIZE PUSH1 0x0 REVERT JUMPDEST POP POP POP POP PUSH1 0x40 MLOAD RETURNDATASIZE PUSH1 0x1F NOT PUSH1 0x1F DUP3 ADD AND DUP3 ADD DUP1 PUSH1 0x40 MSTORE POP DUP2 ADD SWAP1 PUSH2 0x3387 SWAP2 SWAP1 PUSH2 0x5248 JUMP JUMPDEST PUSH2 0x33D3 JUMPI PUSH1 0x40 MLOAD PUSH3 0x461BCD PUSH1 0xE5 SHL DUP2 MSTORE PUSH1 0x20 PUSH1 0x4 DUP3 ADD MSTORE PUSH1 0x19 PUSH1 0x24 DUP3 ADD MSTORE PUSH32 0x596F75206D7573742068617665206120436C616E2048616C6C00000000000000 PUSH1 0x44 DUP3 ADD MSTORE PUSH1 0x64 ADD PUSH2 0x7AF JUMP JUMPDEST PUSH1 0x16 SLOAD PUSH1 0x40 MLOAD PUSH32 0x23B872DD00000000000000000000000000000000000000000000000000000000 DUP2 MSTORE CALLER PUSH1 0x4 DUP3 ADD MSTORE ADDRESS PUSH1 0x24 DUP3 ADD MSTORE PUSH5 0x174876E800 PUSH1 0x44 DUP3 ADD MSTORE PUSH1 0x1 PUSH1 0x1 PUSH1 0xA0 SHL SUB SWAP1 SWAP2 AND SWAP1 PUSH4 0x23B872DD SWAP1 PUSH1 0x64 ADD PUSH1 0x20 PUSH1 0x40 MLOAD DUP1 DUP4 SUB DUP2 PUSH1 0x0 DUP8 GAS CALL ISZERO DUP1 ISZERO PUSH2 0x3447 JUMPI RETURNDATASIZE PUSH1 0x0 DUP1 RETURNDATACOPY RETURNDATASIZE PUSH1 0x0 REVERT JUMPDEST POP POP POP POP PUSH1 0x40 MLOAD RETURNDATASIZE PUSH1 0x1F NOT PUSH1 0x1F DUP3 ADD AND DUP3 ADD DUP1 PUSH1 0x40 MSTORE POP DUP2 ADD SWAP1 PUSH2 0x346B SWAP2 SWAP1 PUSH2 0x5248 JUMP JUMPDEST PUSH2 0x34B7 JUMPI PUSH1 0x40 MLOAD PUSH3 0x461BCD PUSH1 0xE5 SHL DUP2 MSTORE PUSH1 0x20 PUSH1 0x4 DUP3 ADD MSTORE PUSH1 0x13 PUSH1 0x24 DUP3 ADD MSTORE PUSH32 0x4C4F50207472616E73666572206661696C656400000000000000000000000000 PUSH1 0x44 DUP3 ADD MSTORE PUSH1 0x64 ADD PUSH2 0x7AF JUMP JUMPDEST PUSH1 0x16 SLOAD PUSH1 0x40 MLOAD PUSH32 0x42966C6800000000000000000000000000000000000000000000000000000000 DUP2 MSTORE PUSH5 0x174876E800 PUSH1 0x4 DUP3 ADD MSTORE PUSH1 0x1 PUSH1 0x1 PUSH1 0xA0 SHL SUB SWAP1 SWAP2 AND SWAP1 PUSH4 0x42966C68 SWAP1 PUSH1 0x24 ADD PUSH1 0x20 PUSH1 0x40 MLOAD DUP1 DUP4 SUB DUP2 PUSH1 0x0 DUP8 GAS CALL ISZERO DUP1 ISZERO PUSH2 0x351F JUMPI RETURNDATASIZE PUSH1 0x0 DUP1 RETURNDATACOPY RETURNDATASIZE PUSH1 0x0 REVERT JUMPDEST POP POP POP POP PUSH1 0x40 MLOAD RETURNDATASIZE PUSH1 0x1F NOT PUSH1 0x1F DUP3 ADD AND DUP3 ADD DUP1 PUSH1 0x40 MSTORE POP DUP2 ADD SWAP1 PUSH2 0x3543 SWAP2 SWAP1 PUSH2 0x5248 JUMP JUMPDEST PUSH2 0x358F JUMPI PUSH1 0x40 MLOAD PUSH3 0x461BCD PUSH1 0xE5 SHL DUP2 MSTORE PUSH1 0x20 PUSH1 0x4 DUP3 ADD MSTORE PUSH1 0xB PUSH1 0x24 DUP3 ADD MSTORE PUSH32 0x4275726E206661696C6564000000000000000000000000000000000000000000 PUSH1 0x44 DUP3 ADD MSTORE PUSH1 0x64 ADD PUSH2 0x7AF JUMP JUMPDEST PUSH1 0x1A DUP1 SLOAD PUSH2 0xFFFF AND SWAP1 PUSH1 0x0 PUSH2 0x35A3 DUP4 PUSH2 0x550C JUMP JUMPDEST SWAP2 SWAP1 PUSH2 0x100 EXP DUP2 SLOAD DUP2 PUSH2 0xFFFF MUL NOT AND SWAP1 DUP4 PUSH2 0xFFFF AND MUL OR SWAP1 SSTORE POP POP PUSH1 0x40 MLOAD DUP1 PUSH1 0xA0 ADD PUSH1 0x40 MSTORE DUP1 DUP7 DUP7 DUP1 DUP1 PUSH1 0x1F ADD PUSH1 0x20 DUP1 SWAP2 DIV MUL PUSH1 0x20 ADD PUSH1 0x40 MLOAD SWAP1 DUP2 ADD PUSH1 0x40 MSTORE DUP1 SWAP4 SWAP3 SWAP2 SWAP1 DUP2 DUP2 MSTORE PUSH1 0x20 ADD DUP4 DUP4 DUP1 DUP3 DUP5 CALLDATACOPY PUSH1 0x0 SWAP3 ADD DUP3 SWAP1 MSTORE POP SWAP4 DUP6 MSTORE POP POP POP PUSH1 0xFF DUP1 DUP12 AND PUSH1 0x20 DUP1 DUP6 ADD SWAP2 SWAP1 SWAP2 MSTORE SWAP1 DUP11 AND PUSH1 0x40 DUP1 DUP6 ADD SWAP2 SWAP1 SWAP2 MSTORE PUSH1 0x1 PUSH1 0x60 DUP6 ADD DUP2 SWAP1 MSTORE PUSH1 0x80 SWAP1 SWAP5 ADD SWAP4 SWAP1 SWAP4 MSTORE PUSH1 0x1A SLOAD PUSH2 0xFFFF AND DUP3 MSTORE PUSH1 0x1B SWAP1 MSTORE KECCAK256 DUP2 MLOAD DUP2 SWAP1 PUSH2 0x3649 SWAP1 DUP3 PUSH2 0x552D JUMP JUMPDEST POP PUSH1 0x20 DUP3 ADD MLOAD PUSH1 0x1 SWAP1 SWAP2 ADD DUP1 SLOAD PUSH1 0x40 DUP5 ADD MLOAD PUSH1 0x60 DUP6 ADD MLOAD PUSH1 0x80 SWAP1 SWAP6 ADD MLOAD ISZERO ISZERO PUSH4 0x1000000 MUL PUSH32 0xFFFFFFFFFFFFFFFFFFFFFFFFFFFFFFFFFFFFFFFFFFFFFFFFFFFFFFFF00FFFFFF PUSH1 0xFF SWAP7 DUP8 AND PUSH3 0x10000 MUL AND PUSH32 0xFFFFFFFFFFFFFFFFFFFFFFFFFFFFFFFFFFFFFFFFFFFFFFFFFFFFFFFF0000FFFF SWAP3 DUP8 AND PUSH2 0x100 MUL PUSH2 0xFFFF NOT SWAP1 SWAP5 AND SWAP7 SWAP1 SWAP6 AND SWAP6 SWAP1 SWAP6 OR SWAP2 SWAP1 SWAP2 OR AND SWAP2 SWAP1 SWAP2 OR SWAP2 SWAP1 SWAP2 OR SWAP1 SSTORE PUSH1 0x0 PUSH2 0x36F8 DUP9 DUP9 PUSH1 0xFF AND PUSH1 0x8 SWAP2 SWAP1 SWAP2 SHL PUSH2 0xFF00 AND OR SWAP1 JUMP JUMPDEST PUSH1 0x1A DUP1 SLOAD PUSH1 0xFF DUP1 DUP13 AND PUSH1 0x0 SWAP1 DUP2 MSTORE PUSH1 0x21 PUSH1 0x20 SWAP1 DUP2 MSTORE PUSH1 0x40 DUP1 DUP4 KECCAK256 SWAP4 DUP15 AND DUP4 MSTORE SWAP3 DUP2 MSTORE DUP3 DUP3 KECCAK256 DUP1 SLOAD PUSH2 0xFFFF NOT AND PUSH2 0xFFFF SWAP6 DUP7 AND OR SWAP1 SSTORE DUP3 MLOAD DUP1 DUP5 ADD DUP5 MSTORE DUP6 SLOAD DUP6 AND DUP2 MSTORE PUSH1 0x1 DUP2 DUP4 ADD DUP2 DUP2 MSTORE SWAP8 DUP7 AND DUP1 DUP6 MSTORE PUSH1 0x1C DUP5 MSTORE DUP6 DUP6 KECCAK256 SWAP3 MLOAD DUP4 SLOAD SWAP10 MLOAD ISZERO ISZERO PUSH3 0x10000 MUL PUSH32 0xFFFFFFFFFFFFFFFFFFFFFFFFFFFFFFFFFFFFFFFFFFFFFFFFFFFFFFFFFF000000 SWAP1 SWAP11 AND SWAP1 DUP9 AND OR SWAP9 SWAP1 SWAP9 OR SWAP1 SWAP2 SSTORE DUP6 SLOAD DUP6 AND DUP4 MSTORE PUSH1 0x1D DUP3 MSTORE DUP4 DUP4 KECCAK256 DUP1 SLOAD DUP1 DUP4 ADD DUP3 SSTORE SWAP1 DUP5 MSTORE DUP3 DUP5 KECCAK256 PUSH1 0x10 DUP3 DIV ADD DUP1 SLOAD PUSH1 0xF SWAP1 SWAP3 AND PUSH1 0x2 MUL PUSH2 0x100 EXP SWAP9 DUP10 MUL SWAP9 DUP8 MUL NOT SWAP1 SWAP2 AND SWAP8 SWAP1 SWAP8 OR SWAP1 SWAP7 SSTORE DUP8 DUP3 MSTORE PUSH1 0x18 DUP2 MSTORE DUP3 DUP3 KECCAK256 DUP1 SLOAD PUSH32 0xFFFFFFFFFFFFFFFFFFFFFFFFFFFFFFFFFFFFFFFFFFFFFFFFFFFFFFFFFFFFFF00 AND SWAP1 SWAP7 OR SWAP1 SWAP6 SSTORE SWAP3 SLOAD SWAP1 SWAP2 AND DUP3 MSTORE PUSH1 0x19 SWAP1 SWAP3 MSTORE KECCAK256 SWAP2 SWAP1 SWAP2 SSTORE POP PUSH2 0xA76 SWAP2 POP PUSH2 0x48AB SWAP1 POP JUMP JUMPDEST PUSH1 0x60 PUSH1 0x0 PUSH1 0x1 JUMPDEST PUSH1 0x1A SLOAD PUSH2 0xFFFF SWAP1 DUP2 AND SWAP1 DUP3 AND GT PUSH2 0x3879 JUMPI PUSH2 0xFFFF DUP2 AND PUSH1 0x0 SWAP1 DUP2 MSTORE PUSH1 0x1B PUSH1 0x20 MSTORE PUSH1 0x40 SWAP1 KECCAK256 PUSH1 0x1 ADD SLOAD PUSH4 0x1000000 SWAP1 DIV PUSH1 0xFF AND ISZERO PUSH2 0x3867 JUMPI DUP2 PUSH2 0x3863 DUP2 PUSH2 0x54B7 JUMP JUMPDEST SWAP3 POP POP JUMPDEST DUP1 PUSH2 0x3871 DUP2 PUSH2 0x550C JUMP JUMPDEST SWAP2 POP POP PUSH2 0x3822 JUMP JUMPDEST POP PUSH1 0x0 DUP2 PUSH8 0xFFFFFFFFFFFFFFFF DUP2 GT ISZERO PUSH2 0x3895 JUMPI PUSH2 0x3895 PUSH2 0x526A JUMP JUMPDEST PUSH1 0x40 MLOAD SWAP1 DUP1 DUP3 MSTORE DUP1 PUSH1 0x20 MUL PUSH1 0x20 ADD DUP3 ADD PUSH1 0x40 MSTORE DUP1 ISZERO PUSH2 0x38EF JUMPI DUP2 PUSH1 0x20 ADD JUMPDEST PUSH1 0x40 DUP1 MLOAD PUSH1 0xA0 DUP2 ADD DUP3 MSTORE PUSH1 0x60 DUP1 DUP3 MSTORE PUSH1 0x0 PUSH1 0x20 DUP1 DUP5 ADD DUP3 SWAP1 MSTORE SWAP4 DUP4 ADD DUP2 SWAP1 MSTORE SWAP1 DUP3 ADD DUP2 SWAP1 MSTORE PUSH1 0x80 DUP3 ADD MSTORE DUP3 MSTORE PUSH1 0x0 NOT SWAP1 SWAP3 ADD SWAP2 ADD DUP2 PUSH2 0x38B3 JUMPI SWAP1 POP JUMPDEST POP SWAP1 POP PUSH1 0x0 PUSH1 0x1 JUMPDEST PUSH1 0x1A SLOAD PUSH2 0xFFFF SWAP1 DUP2 AND SWAP1 DUP3 AND GT PUSH2 0x1B77 JUMPI PUSH2 0xFFFF DUP2 AND PUSH1 0x0 SWAP1 DUP2 MSTORE PUSH1 0x1B PUSH1 0x20 MSTORE PUSH1 0x40 SWAP1 KECCAK256 PUSH1 0x1 ADD SLOAD PUSH4 0x1000000 SWAP1 DIV PUSH1 0xFF AND ISZERO PUSH2 0x3A45 JUMPI PUSH2 0xFFFF DUP2 AND PUSH1 0x0 SWAP1 DUP2 MSTORE PUSH1 0x1B PUSH1 0x20 MSTORE PUSH1 0x40 SWAP1 DUP2 SWAP1 KECCAK256 DUP2 MLOAD PUSH1 0xA0 DUP2 ADD SWAP1 SWAP3 MSTORE DUP1 SLOAD DUP3 SWAP1 DUP3 SWAP1 PUSH2 0x395B SWAP1 PUSH2 0x5299 JUMP JUMPDEST DUP1 PUSH1 0x1F ADD PUSH1 0x20 DUP1 SWAP2 DIV MUL PUSH1 0x20 ADD PUSH1 0x40 MLOAD SWAP1 DUP2 ADD PUSH1 0x40 MSTORE DUP1 SWAP3 SWAP2 SWAP1 DUP2 DUP2 MSTORE PUSH1 0x20 ADD DUP3 DUP1 SLOAD PUSH2 0x3987 SWAP1 PUSH2 0x5299 JUMP JUMPDEST DUP1 ISZERO PUSH2 0x39D4 JUMPI DUP1 PUSH1 0x1F LT PUSH2 0x39A9 JUMPI PUSH2 0x100 DUP1 DUP4 SLOAD DIV MUL DUP4 MSTORE SWAP2 PUSH1 0x20 ADD SWAP2 PUSH2 0x39D4 JUMP JUMPDEST DUP3 ADD SWAP2 SWAP1 PUSH1 0x0 MSTORE PUSH1 0x20 PUSH1 0x0 KECCAK256 SWAP1 JUMPDEST DUP2 SLOAD DUP2 MSTORE SWAP1 PUSH1 0x1 ADD SWAP1 PUSH1 0x20 ADD DUP1 DUP4 GT PUSH2 0x39B7 JUMPI DUP3 SWAP1 SUB PUSH1 0x1F AND DUP3 ADD SWAP2 JUMPDEST POP POP POP SWAP2 DUP4 MSTORE POP POP PUSH1 0x1 SWAP2 SWAP1 SWAP2 ADD SLOAD PUSH1 0xFF DUP1 DUP3 AND PUSH1 0x20 DUP5 ADD MSTORE PUSH2 0x100 DUP3 DIV DUP2 AND PUSH1 0x40 DUP5 ADD MSTORE PUSH3 0x10000 DUP3 DIV DUP2 AND PUSH1 0x60 DUP5 ADD MSTORE PUSH4 0x1000000 SWAP1 SWAP2 DIV AND ISZERO ISZERO PUSH1 0x80 SWAP1 SWAP2 ADD MSTORE DUP4 MLOAD DUP5 SWAP1 DUP5 SWAP1 DUP2 LT PUSH2 0x3A2B JUMPI PUSH2 0x3A2B PUSH2 0x5446 JUMP JUMPDEST PUSH1 0x20 MUL PUSH1 0x20 ADD ADD DUP2 SWAP1 MSTORE POP DUP2 DUP1 PUSH2 0x3A41 SWAP1 PUSH2 0x54B7 JUMP JUMPDEST SWAP3 POP POP JUMPDEST DUP1 PUSH2 0x3A4F DUP2 PUSH2 0x550C JUMP JUMPDEST SWAP2 POP POP PUSH2 0x38F7 JUMP JUMPDEST PUSH1 0xFF DUP1 DUP4 AND PUSH1 0x0 SWAP1 DUP2 MSTORE PUSH1 0x21 PUSH1 0x20 SWAP1 DUP2 MSTORE PUSH1 0x40 DUP1 DUP4 KECCAK256 SWAP4 DUP6 AND DUP4 MSTORE SWAP3 SWAP1 MSTORE SWAP1 DUP2 KECCAK256 SLOAD PUSH1 0x60 SWAP2 PUSH2 0xFFFF SWAP1 SWAP2 AND SWAP1 DUP2 SWAP1 SUB PUSH2 0x3AA0 JUMPI POP POP PUSH1 0x40 DUP1 MLOAD PUSH1 0x20 DUP2 ADD SWAP1 SWAP2 MSTORE PUSH1 0x0 DUP2 MSTORE PUSH2 0xB2B JUMP JUMPDEST PUSH2 0xFFFF DUP2 AND PUSH1 0x0 SWAP1 DUP2 MSTORE PUSH1 0x1B PUSH1 0x20 MSTORE PUSH1 0x40 SWAP1 KECCAK256 DUP1 SLOAD PUSH2 0x3ABE SWAP1 PUSH2 0x5299 JUMP JUMPDEST DUP1 PUSH1 0x1F ADD PUSH1 0x20 DUP1 SWAP2 DIV MUL PUSH1 0x20 ADD PUSH1 0x40 MLOAD SWAP1 DUP2 ADD PUSH1 0x40 MSTORE DUP1 SWAP3 SWAP2 SWAP1 DUP2 DUP2 MSTORE PUSH1 0x20 ADD DUP3 DUP1 SLOAD PUSH2 0x3AEA SWAP1 PUSH2 0x5299 JUMP JUMPDEST DUP1 ISZERO PUSH2 0x3B37 JUMPI DUP1 PUSH1 0x1F LT PUSH2 0x3B0C JUMPI PUSH2 0x100 DUP1 DUP4 SLOAD DIV MUL DUP4 MSTORE SWAP2 PUSH1 0x20 ADD SWAP2 PUSH2 0x3B37 JUMP JUMPDEST DUP3 ADD SWAP2 SWAP1 PUSH1 0x0 MSTORE PUSH1 0x20 PUSH1 0x0 KECCAK256 SWAP1 JUMPDEST DUP2 SLOAD DUP2 MSTORE SWAP1 PUSH1 0x1 ADD SWAP1 PUSH1 0x20 ADD DUP1 DUP4 GT PUSH2 0x3B1A JUMPI DUP3 SWAP1 SUB PUSH1 0x1F AND DUP3 ADD SWAP2 JUMPDEST POP POP POP POP POP SWAP2 POP POP SWAP3 SWAP2 POP POP JUMP JUMPDEST PUSH2 0x3B4D PUSH2 0x4852 JUMP JUMPDEST PUSH1 0x15 SLOAD PUSH1 0x40 MLOAD PUSH4 0x8A888953 PUSH1 0xE0 SHL DUP2 MSTORE PUSH1 0xFF DUP1 DUP6 AND PUSH1 0x4 DUP4 ADD MSTORE DUP4 AND PUSH1 0x24 DUP3 ADD MSTORE DUP4 SWAP2 DUP4 SWAP2 CALLER SWAP2 PUSH1 0x1 PUSH1 0x1 PUSH1 0xA0 SHL SUB AND SWAP1 PUSH4 0x8A888953 SWAP1 PUSH1 0x44 ADD PUSH1 0x20 PUSH1 0x40 MLOAD DUP1 DUP4 SUB DUP2 DUP7 GAS STATICCALL ISZERO DUP1 ISZERO PUSH2 0x3BA4 JUMPI RETURNDATASIZE PUSH1 0x0 DUP1 RETURNDATACOPY RETURNDATASIZE PUSH1 0x0 REVERT JUMPDEST POP POP POP POP PUSH1 0x40 MLOAD RETURNDATASIZE PUSH1 0x1F NOT PUSH1 0x1F DUP3 ADD AND DUP3 ADD DUP1 PUSH1 0x40 MSTORE POP DUP2 ADD SWAP1 PUSH2 0x3BC8 SWAP2 SWAP1 PUSH2 0x522B JUMP JUMPDEST PUSH1 0x1 PUSH1 0x1 PUSH1 0xA0 SHL SUB AND EQ PUSH2 0x3C1E JUMPI PUSH1 0x40 MLOAD PUSH3 0x461BCD PUSH1 0xE5 SHL DUP2 MSTORE PUSH1 0x20 PUSH1 0x4 DUP3 ADD MSTORE PUSH1 0x18 PUSH1 0x24 DUP3 ADD MSTORE PUSH32 0x596F7520646F206E6F74206F776E20746869732074696C650000000000000000 PUSH1 0x44 DUP3 ADD MSTORE PUSH1 0x64 ADD PUSH2 0x7AF JUMP JUMPDEST PUSH1 0xFF DUP4 AND PUSH1 0x8 DUP6 SWAP1 SHL PUSH2 0xFF00 AND OR PUSH1 0x0 DUP2 DUP2 MSTORE PUSH1 0x1E PUSH1 0x20 MSTORE PUSH1 0x40 SWAP1 KECCAK256 SLOAD PUSH2 0xFFFF AND DUP1 PUSH2 0x3C8C JUMPI PUSH1 0x40 MLOAD PUSH3 0x461BCD PUSH1 0xE5 SHL DUP2 MSTORE PUSH1 0x20 PUSH1 0x4 DUP3 ADD MSTORE PUSH1 0x1F PUSH1 0x24 DUP3 ADD MSTORE PUSH32 0x4E6F2070656E64696E6720696E7669746520666F7220746869732074696C6500 PUSH1 0x44 DUP3 ADD MSTORE PUSH1 0x64 ADD PUSH2 0x7AF JUMP JUMPDEST PUSH2 0xFFFF DUP2 AND PUSH1 0x0 SWAP1 DUP2 MSTORE PUSH1 0x1B PUSH1 0x20 MSTORE PUSH1 0x40 SWAP1 KECCAK256 PUSH1 0x1 ADD SLOAD PUSH4 0x1000000 SWAP1 DIV PUSH1 0xFF AND PUSH2 0x3D3D JUMPI PUSH2 0xFFFF DUP3 AND PUSH1 0x0 SWAP1 DUP2 MSTORE PUSH1 0x1E PUSH1 0x20 MSTORE PUSH1 0x40 SWAP1 DUP2 SWAP1 KECCAK256 DUP1 SLOAD PUSH2 0xFFFF NOT AND SWAP1 SSTORE MLOAD PUSH3 0x461BCD PUSH1 0xE5 SHL DUP2 MSTORE PUSH2 0x7AF SWAP1 PUSH1 0x4 ADD PUSH1 0x20 DUP1 DUP3 MSTORE PUSH1 0x22 SWAP1 DUP3 ADD MSTORE PUSH32 0x436C616E207761732064697362616E6465643B20696E7669746520696E76616C PUSH1 0x40 DUP3 ADD MSTORE PUSH32 0x6964000000000000000000000000000000000000000000000000000000000000 PUSH1 0x60 DUP3 ADD MSTORE PUSH1 0x80 ADD SWAP1 JUMP JUMPDEST PUSH1 0xFF DUP1 DUP8 AND PUSH1 0x0 SWAP1 DUP2 MSTORE PUSH1 0x21 PUSH1 0x20 SWAP1 DUP2 MSTORE PUSH1 0x40 DUP1 DUP4 KECCAK256 SWAP4 DUP10 AND DUP4 MSTORE SWAP3 SWAP1 MSTORE KECCAK256 SLOAD PUSH2 0xFFFF AND ISZERO PUSH2 0x3DCC JUMPI PUSH2 0xFFFF DUP3 AND PUSH1 0x0 SWAP1 DUP2 MSTORE PUSH1 0x1E PUSH1 0x20 MSTORE PUSH1 0x40 SWAP1 DUP2 SWAP1 KECCAK256 DUP1 SLOAD PUSH2 0xFFFF NOT AND SWAP1 SSTORE MLOAD PUSH3 0x461BCD PUSH1 0xE5 SHL DUP2 MSTORE PUSH2 0x7AF SWAP1 PUSH1 0x4 ADD PUSH1 0x20 DUP1 DUP3 MSTORE PUSH1 0x16 SWAP1 DUP3 ADD MSTORE PUSH32 0x54696C6520616C726561647920696E206120636C616E00000000000000000000 PUSH1 0x40 DUP3 ADD MSTORE PUSH1 0x60 ADD SWAP1 JUMP JUMPDEST PUSH2 0xFFFF DUP2 AND PUSH1 0x0 SWAP1 DUP2 MSTORE PUSH1 0x1B PUSH1 0x20 MSTORE PUSH1 0x40 SWAP1 KECCAK256 PUSH1 0x1 ADD SLOAD PUSH1 0x1E PUSH3 0x10000 SWAP1 SWAP2 DIV PUSH1 0xFF AND LT PUSH2 0x3E15 JUMPI POP PUSH2 0xFFFF AND PUSH1 0x0 SWAP1 DUP2 MSTORE PUSH1 0x1E PUSH1 0x20 MSTORE PUSH1 0x40 SWAP1 KECCAK256 DUP1 SLOAD PUSH2 0xFFFF NOT AND SWAP1 SSTORE PUSH2 0x1E36 JUMP JUMPDEST PUSH1 0xFF DUP7 DUP2 AND PUSH1 0x0 SWAP1 DUP2 MSTORE PUSH1 0x21 PUSH1 0x20 SWAP1 DUP2 MSTORE PUSH1 0x40 DUP1 DUP4 KECCAK256 DUP10 DUP6 AND DUP5 MSTORE DUP3 MSTORE DUP1 DUP4 KECCAK256 DUP1 SLOAD PUSH2 0xFFFF NOT AND PUSH2 0xFFFF DUP8 DUP2 AND SWAP2 DUP3 OR SWAP1 SWAP3 SSTORE DUP3 MLOAD DUP1 DUP5 ADD DUP5 MSTORE DUP2 DUP2 MSTORE PUSH1 0x1 DUP2 DUP7 ADD DUP2 DUP2 MSTORE DUP11 DUP6 AND DUP1 DUP10 MSTORE PUSH1 0x1C DUP9 MSTORE DUP7 DUP10 KECCAK256 SWAP4 MLOAD DUP5 SLOAD SWAP3 MLOAD SWAP1 DUP8 AND PUSH32 0xFFFFFFFFFFFFFFFFFFFFFFFFFFFFFFFFFFFFFFFFFFFFFFFFFFFFFFFFFF000000 SWAP1 SWAP4 AND SWAP3 SWAP1 SWAP3 OR PUSH3 0x10000 SWAP3 ISZERO ISZERO DUP4 MUL OR SWAP1 SWAP4 SSTORE DUP4 DUP9 MSTORE PUSH1 0x1D DUP8 MSTORE DUP6 DUP9 KECCAK256 DUP1 SLOAD DUP1 DUP5 ADD DUP3 SSTORE SWAP1 DUP10 MSTORE DUP8 DUP10 KECCAK256 PUSH1 0x10 DUP3 DIV ADD DUP1 SLOAD PUSH1 0x2 PUSH1 0xF SWAP1 SWAP4 AND DUP4 MUL PUSH2 0x100 EXP SWAP8 DUP9 MUL NOT AND SWAP7 SWAP1 SWAP5 MUL SWAP6 SWAP1 SWAP6 OR SWAP1 SWAP3 SSTORE SWAP2 DUP7 MSTORE PUSH1 0x1B SWAP1 SWAP5 MSTORE SWAP2 SWAP1 SWAP4 KECCAK256 ADD DUP1 SLOAD SWAP2 SWAP1 SWAP2 DIV SWAP1 SWAP3 AND SWAP2 SWAP1 PUSH2 0x3F01 DUP4 PUSH2 0x54D1 JUMP JUMPDEST DUP3 SLOAD PUSH1 0xFF SWAP2 DUP3 AND PUSH2 0x100 SWAP4 SWAP1 SWAP4 EXP SWAP3 DUP4 MUL SWAP2 SWAP1 SWAP3 MUL NOT SWAP1 SWAP2 AND OR SWAP1 SSTORE POP POP PUSH2 0xFFFF AND PUSH1 0x0 SWAP1 DUP2 MSTORE PUSH1 0x1E PUSH1 0x20 MSTORE PUSH1 0x40 SWAP1 KECCAK256 DUP1 SLOAD PUSH2 0xFFFF NOT AND SWAP1 SSTORE POP POP PUSH2 0x18F7 PUSH1 0x1 PUSH1 0x0 SSTORE JUMP JUMPDEST PUSH2 0xFFFF DUP2 AND PUSH1 0x0 SWAP1 DUP2 MSTORE PUSH1 0x1B PUSH1 0x20 MSTORE PUSH1 0x40 DUP2 KECCAK256 PUSH1 0x1 ADD SLOAD DUP2 SWAP1 PUSH4 0x1000000 SWAP1 DIV PUSH1 0xFF AND PUSH2 0x3FB5 JUMPI PUSH1 0x40 MLOAD PUSH3 0x461BCD PUSH1 0xE5 SHL DUP2 MSTORE PUSH1 0x20 PUSH1 0x4 DUP3 ADD MSTORE PUSH1 0x13 PUSH1 0x24 DUP3 ADD MSTORE PUSH32 0x436C616E20646F6573206E6F7420657869737400000000000000000000000000 PUSH1 0x44 DUP3 ADD MSTORE PUSH1 0x64 ADD PUSH2 0x7AF JUMP JUMPDEST POP POP PUSH2 0xFFFF AND PUSH1 0x0 SWAP1 DUP2 MSTORE PUSH1 0x1B PUSH1 0x20 MSTORE PUSH1 0x40 SWAP1 KECCAK256 PUSH1 0x1 ADD SLOAD PUSH1 0xFF DUP1 DUP3 AND SWAP3 PUSH2 0x100 SWAP1 SWAP3 DIV AND SWAP1 JUMP JUMPDEST PUSH1 0x1D PUSH1 0x20 MSTORE DUP2 PUSH1 0x0 MSTORE PUSH1 0x40 PUSH1 0x0 KECCAK256 DUP2 DUP2 SLOAD DUP2 LT PUSH2 0x3FF9 JUMPI PUSH1 0x0 DUP1 REVERT JUMPDEST SWAP1 PUSH1 0x0 MSTORE PUSH1 0x20 PUSH1 0x0 KECCAK256 SWAP1 PUSH1 0x10 SWAP2 DUP3 DUP3 DIV ADD SWAP2 SWAP1 MOD PUSH1 0x2 MUL SWAP2 POP SWAP2 POP SWAP1 SLOAD SWAP1 PUSH2 0x100 EXP SWAP1 DIV PUSH2 0xFFFF AND DUP2 JUMP JUMPDEST PUSH1 0x1 DUP3 PUSH1 0x14 DUP2 LT PUSH2 0x4034 JUMPI PUSH1 0x0 DUP1 REVERT JUMPDEST ADD DUP2 PUSH1 0x14 DUP2 LT PUSH2 0x4043 JUMPI PUSH1 0x0 DUP1 REVERT JUMPDEST PUSH1 0x20 DUP2 DIV SWAP1 SWAP2 ADD SLOAD PUSH1 0xFF PUSH1 0x1F SWAP1 SWAP3 AND PUSH2 0x100 EXP SWAP1 DIV AND SWAP2 POP DUP3 SWAP1 POP JUMP JUMPDEST PUSH1 0x1B PUSH1 0x20 MSTORE PUSH1 0x0 SWAP1 DUP2 MSTORE PUSH1 0x40 SWAP1 KECCAK256 DUP1 SLOAD DUP2 SWAP1 PUSH2 0x407B SWAP1 PUSH2 0x5299 JUMP JUMPDEST DUP1 PUSH1 0x1F ADD PUSH1 0x20 DUP1 SWAP2 DIV MUL PUSH1 0x20 ADD PUSH1 0x40 MLOAD SWAP1 DUP2 ADD PUSH1 0x40 MSTORE DUP1 SWAP3 SWAP2 SWAP1 DUP2 DUP2 MSTORE PUSH1 0x20 ADD DUP3 DUP1 SLOAD PUSH2 0x40A7 SWAP1 PUSH2 0x5299 JUMP JUMPDEST DUP1 ISZERO PUSH2 0x40F4 JUMPI DUP1 PUSH1 0x1F LT PUSH2 0x40C9 JUMPI PUSH2 0x100 DUP1 DUP4 SLOAD DIV MUL DUP4 MSTORE SWAP2 PUSH1 0x20 ADD SWAP2 PUSH2 0x40F4 JUMP JUMPDEST DUP3 ADD SWAP2 SWAP1 PUSH1 0x0 MSTORE PUSH1 0x20 PUSH1 0x0 KECCAK256 SWAP1 JUMPDEST DUP2 SLOAD DUP2 MSTORE SWAP1 PUSH1 0x1 ADD SWAP1 PUSH1 0x20 ADD DUP1 DUP4 GT PUSH2 0x40D7 JUMPI DUP3 SWAP1 SUB PUSH1 0x1F AND DUP3 ADD SWAP2 JUMPDEST POP POP POP PUSH1 0x1 SWAP1 SWAP4 ADD SLOAD SWAP2 SWAP3 POP POP PUSH1 0xFF DUP1 DUP3 AND SWAP2 PUSH2 0x100 DUP2 DIV DUP3 AND SWAP2 PUSH3 0x10000 DUP3 DIV DUP2 AND SWAP2 PUSH4 0x1000000 SWAP1 DIV AND DUP6 JUMP JUMPDEST PUSH1 0x1 PUSH1 0x1 PUSH1 0xA0 SHL SUB DUP2 AND PUSH1 0x0 SWAP1 DUP2 MSTORE PUSH1 0x20 DUP1 MSTORE PUSH1 0x40 SWAP1 KECCAK256 DUP1 SLOAD PUSH1 0x60 SWAP2 SWAP1 PUSH2 0x4149 SWAP1 PUSH2 0x5299 JUMP JUMPDEST DUP1 PUSH1 0x1F ADD PUSH1 0x20 DUP1 SWAP2 DIV MUL PUSH1 0x20 ADD PUSH1 0x40 MLOAD SWAP1 DUP2 ADD PUSH1 0x40 MSTORE DUP1 SWAP3 SWAP2 SWAP1 DUP2 DUP2 MSTORE PUSH1 0x20 ADD DUP3 DUP1 SLOAD PUSH2 0x4175 SWAP1 PUSH2 0x5299 JUMP JUMPDEST DUP1 ISZERO PUSH2 0x41C2 JUMPI DUP1 PUSH1 0x1F LT PUSH2 0x4197 JUMPI PUSH2 0x100 DUP1 DUP4 SLOAD DIV MUL DUP4 MSTORE SWAP2 PUSH1 0x20 ADD SWAP2 PUSH2 0x41C2 JUMP JUMPDEST DUP3 ADD SWAP2 SWAP1 PUSH1 0x0 MSTORE PUSH1 0x20 PUSH1 0x0 KECCAK256 SWAP1 JUMPDEST DUP2 SLOAD DUP2 MSTORE SWAP1 PUSH1 0x1 ADD SWAP1 PUSH1 0x20 ADD DUP1 DUP4 GT PUSH2 0x41A5 JUMPI DUP3 SWAP1 SUB PUSH1 0x1F AND DUP3 ADD SWAP2 JUMPDEST POP POP POP POP POP SWAP1 POP SWAP2 SWAP1 POP JUMP JUMPDEST PUSH2 0x41D6 PUSH2 0x4852 JUMP JUMPDEST PUSH2 0xFFFF DUP5 AND PUSH1 0x0 SWAP1 DUP2 MSTORE PUSH1 0x1B PUSH1 0x20 MSTORE PUSH1 0x40 SWAP1 KECCAK256 PUSH1 0x1 ADD SLOAD DUP5 SWAP1 DUP5 SWAP1 DUP5 SWAP1 PUSH4 0x1000000 SWAP1 DIV PUSH1 0xFF AND PUSH2 0x4249 JUMPI PUSH1 0x40 MLOAD PUSH3 0x461BCD PUSH1 0xE5 SHL DUP2 MSTORE PUSH1 0x20 PUSH1 0x4 DUP3 ADD MSTORE PUSH1 0x13 PUSH1 0x24 DUP3 ADD MSTORE PUSH32 0x436C616E20646F6573206E6F7420657869737400000000000000000000000000 PUSH1 0x44 DUP3 ADD MSTORE PUSH1 0x64 ADD PUSH2 0x7AF JUMP JUMPDEST PUSH2 0xFFFF DUP4 AND PUSH1 0x0 SWAP1 DUP2 MSTORE PUSH1 0x1B PUSH1 0x20 MSTORE PUSH1 0x40 SWAP1 KECCAK256 PUSH1 0x1 ADD SLOAD PUSH1 0xFF DUP4 DUP2 AND SWAP2 AND EQ DUP1 ISZERO PUSH2 0x4294 JUMPI POP PUSH2 0xFFFF DUP4 AND PUSH1 0x0 SWAP1 DUP2 MSTORE PUSH1 0x1B PUSH1 0x20 MSTORE PUSH1 0x40 SWAP1 KECCAK256 PUSH1 0x1 ADD SLOAD PUSH1 0xFF DUP3 DUP2 AND PUSH2 0x100 SWAP1 SWAP3 DIV AND EQ JUMPDEST PUSH2 0x42E0 JUMPI PUSH1 0x40 MLOAD PUSH3 0x461BCD PUSH1 0xE5 SHL DUP2 MSTORE PUSH1 0x20 PUSH1 0x4 DUP3 ADD MSTORE PUSH1 0xF PUSH1 0x24 DUP3 ADD MSTORE PUSH32 0x4E6F74206C65616465722074696C650000000000000000000000000000000000 PUSH1 0x44 DUP3 ADD MSTORE PUSH1 0x64 ADD PUSH2 0x7AF JUMP JUMPDEST PUSH1 0x15 SLOAD PUSH1 0x40 MLOAD PUSH4 0x8A888953 PUSH1 0xE0 SHL DUP2 MSTORE PUSH1 0xFF DUP1 DUP6 AND PUSH1 0x4 DUP4 ADD MSTORE DUP4 AND PUSH1 0x24 DUP3 ADD MSTORE CALLER SWAP2 PUSH1 0x1 PUSH1 0x1 PUSH1 0xA0 SHL SUB AND SWAP1 PUSH4 0x8A888953 SWAP1 PUSH1 0x44 ADD PUSH1 0x20 PUSH1 0x40 MLOAD DUP1 DUP4 SUB DUP2 DUP7 GAS STATICCALL ISZERO DUP1 ISZERO PUSH2 0x4333 JUMPI RETURNDATASIZE PUSH1 0x0 DUP1 RETURNDATACOPY RETURNDATASIZE PUSH1 0x0 REVERT JUMPDEST POP POP POP POP PUSH1 0x40 MLOAD RETURNDATASIZE PUSH1 0x1F NOT PUSH1 0x1F DUP3 ADD AND DUP3 ADD DUP1 PUSH1 0x40 MSTORE POP DUP2 ADD SWAP1 PUSH2 0x4357 SWAP2 SWAP1 PUSH2 0x522B JUMP JUMPDEST PUSH1 0x1 PUSH1 0x1 PUSH1 0xA0 SHL SUB AND EQ PUSH2 0x43AD JUMPI PUSH1 0x40 MLOAD PUSH3 0x461BCD PUSH1 0xE5 SHL DUP2 MSTORE PUSH1 0x20 PUSH1 0x4 DUP3 ADD MSTORE PUSH1 0x1D PUSH1 0x24 DUP3 ADD MSTORE PUSH32 0x596F7520646F6E2774206F776E20746865206C65616465722074696C65000000 PUSH1 0x44 DUP3 ADD MSTORE PUSH1 0x64 ADD PUSH2 0x7AF JUMP JUMPDEST PUSH1 0x22 SLOAD PUSH1 0x40 MLOAD PUSH32 0x6352211E00000000000000000000000000000000000000000000000000000000 DUP2 MSTORE PUSH1 0x4 DUP2 ADD DUP7 SWAP1 MSTORE CALLER SWAP2 PUSH1 0x1 PUSH1 0x1 PUSH1 0xA0 SHL SUB AND SWAP1 PUSH4 0x6352211E SWAP1 PUSH1 0x24 ADD PUSH1 0x20 PUSH1 0x40 MLOAD DUP1 DUP4 SUB DUP2 DUP7 GAS STATICCALL ISZERO DUP1 ISZERO PUSH2 0x440F JUMPI RETURNDATASIZE PUSH1 0x0 DUP1 RETURNDATACOPY RETURNDATASIZE PUSH1 0x0 REVERT JUMPDEST POP POP POP POP PUSH1 0x40 MLOAD RETURNDATASIZE PUSH1 0x1F NOT PUSH1 0x1F DUP3 ADD AND DUP3 ADD DUP1 PUSH1 0x40 MSTORE POP DUP2 ADD SWAP1 PUSH2 0x4433 SWAP2 SWAP1 PUSH2 0x522B JUMP JUMPDEST PUSH1 0x1 PUSH1 0x1 PUSH1 0xA0 SHL SUB AND EQ PUSH2 0x4489 JUMPI PUSH1 0x40 MLOAD PUSH3 0x461BCD PUSH1 0xE5 SHL DUP2 MSTORE PUSH1 0x20 PUSH1 0x4 DUP3 ADD MSTORE PUSH1 0x16 PUSH1 0x24 DUP3 ADD MSTORE PUSH32 0x596F7520646F6E2774206F776E2074686973204E465400000000000000000000 PUSH1 0x44 DUP3 ADD MSTORE PUSH1 0x64 ADD PUSH2 0x7AF JUMP JUMPDEST PUSH1 0x22 SLOAD PUSH1 0x40 MLOAD PUSH32 0xAD4C4F400000000000000000000000000000000000000000000000000000000 DUP2 MSTORE PUSH1 0x4 DUP2 ADD DUP7 SWAP1 MSTORE PUSH1 0x0 SWAP2 PUSH1 0x1 PUSH1 0x1 PUSH1 0xA0 SHL SUB AND SWAP1 PUSH4 0xAD4C4F4 SWAP1 PUSH1 0x24 ADD PUSH1 0x0 PUSH1 0x40 MLOAD DUP1 DUP4 SUB DUP2 DUP7 GAS STATICCALL ISZERO DUP1 ISZERO PUSH2 0x44EC JUMPI RETURNDATASIZE PUSH1 0x0 DUP1 RETURNDATACOPY RETURNDATASIZE PUSH1 0x0 REVERT JUMPDEST POP POP POP POP PUSH1 0x40 MLOAD RETURNDATASIZE PUSH1 0x0 DUP3 RETURNDATACOPY PUSH1 0x1F RETURNDATASIZE SWAP1 DUP2 ADD PUSH1 0x1F NOT AND DUP3 ADD PUSH1 0x40 MSTORE PUSH2 0x4514 SWAP2 SWAP1 DUP2 ADD SWAP1 PUSH2 0x5675 JUMP JUMPDEST POP SWAP10 POP POP POP POP POP POP POP POP POP POP DUP1 PUSH1 0x1 EQ PUSH2 0x4596 JUMPI PUSH1 0x40 MLOAD PUSH3 0x461BCD PUSH1 0xE5 SHL DUP2 MSTORE PUSH1 0x20 PUSH1 0x4 DUP3 ADD MSTORE PUSH1 0x33 PUSH1 0x24 DUP3 ADD MSTORE PUSH32 0x4F6E6C79204E4654732066726F6D20636F6C6C656374696F6E20494420312063 PUSH1 0x44 DUP3 ADD MSTORE PUSH32 0x616E206265207573656420617320666C61677300000000000000000000000000 PUSH1 0x64 DUP3 ADD MSTORE PUSH1 0x84 ADD PUSH2 0x7AF JUMP JUMPDEST PUSH1 0x17 SLOAD PUSH1 0x40 MLOAD PUSH32 0x1ACC55EA00000000000000000000000000000000000000000000000000000000 DUP2 MSTORE PUSH1 0xFF DUP1 DUP11 AND PUSH1 0x4 DUP4 ADD MSTORE DUP9 AND PUSH1 0x24 DUP3 ADD MSTORE PUSH1 0x1 PUSH1 0x1 PUSH1 0xA0 SHL SUB SWAP1 SWAP2 AND SWAP1 PUSH4 0x1ACC55EA SWAP1 PUSH1 0x44 ADD PUSH1 0x20 PUSH1 0x40 MLOAD DUP1 DUP4 SUB DUP2 DUP7 GAS STATICCALL ISZERO DUP1 ISZERO PUSH2 0x4602 JUMPI RETURNDATASIZE PUSH1 0x0 DUP1 RETURNDATACOPY RETURNDATASIZE PUSH1 0x0 REVERT JUMPDEST POP POP POP POP PUSH1 0x40 MLOAD RETURNDATASIZE PUSH1 0x1F NOT PUSH1 0x1F DUP3 ADD AND DUP3 ADD DUP1 PUSH1 0x40 MSTORE POP DUP2 ADD SWAP1 PUSH2 0x4626 SWAP2 SWAP1 PUSH2 0x5248 JUMP JUMPDEST PUSH2 0x4672 JUMPI PUSH1 0x40 MLOAD PUSH3 0x461BCD PUSH1 0xE5 SHL DUP2 MSTORE PUSH1 0x20 PUSH1 0x4 DUP3 ADD MSTORE PUSH1 0x19 PUSH1 0x24 DUP3 ADD MSTORE PUSH32 0x596F75206D7573742068617665206120436C616E2048616C6C00000000000000 PUSH1 0x44 DUP3 ADD MSTORE PUSH1 0x64 ADD PUSH2 0x7AF JUMP JUMPDEST PUSH1 0x16 SLOAD PUSH1 0x40 MLOAD PUSH32 0x23B872DD00000000000000000000000000000000000000000000000000000000 DUP2 MSTORE CALLER PUSH1 0x4 DUP3 ADD MSTORE ADDRESS PUSH1 0x24 DUP3 ADD MSTORE PUSH5 0x2540BE400 PUSH1 0x44 DUP3 ADD MSTORE PUSH1 0x1 PUSH1 0x1 PUSH1 0xA0 SHL SUB SWAP1 SWAP2 AND SWAP1 PUSH4 0x23B872DD SWAP1 PUSH1 0x64 ADD PUSH1 0x20 PUSH1 0x40 MLOAD DUP1 DUP4 SUB DUP2 PUSH1 0x0 DUP8 GAS CALL ISZERO DUP1 ISZERO PUSH2 0x46E6 JUMPI RETURNDATASIZE PUSH1 0x0 DUP1 RETURNDATACOPY RETURNDATASIZE PUSH1 0x0 REVERT JUMPDEST POP POP POP POP PUSH1 0x40 MLOAD RETURNDATASIZE PUSH1 0x1F NOT PUSH1 0x1F DUP3 ADD AND DUP3 ADD DUP1 PUSH1 0x40 MSTORE POP DUP2 ADD SWAP1 PUSH2 0x470A SWAP2 SWAP1 PUSH2 0x5248 JUMP JUMPDEST PUSH2 0x4756 JUMPI PUSH1 0x40 MLOAD PUSH3 0x461BCD PUSH1 0xE5 SHL DUP2 MSTORE PUSH1 0x20 PUSH1 0x4 DUP3 ADD MSTORE PUSH1 0x13 PUSH1 0x24 DUP3 ADD MSTORE PUSH32 0x4C4F50207472616E73666572206661696C656400000000000000000000000000 PUSH1 0x44 DUP3 ADD MSTORE PUSH1 0x64 ADD PUSH2 0x7AF JUMP JUMPDEST PUSH1 0x16 SLOAD PUSH1 0x40 MLOAD PUSH32 0x42966C6800000000000000000000000000000000000000000000000000000000 DUP2 MSTORE PUSH5 0x2540BE400 PUSH1 0x4 DUP3 ADD MSTORE PUSH1 0x1 PUSH1 0x1 PUSH1 0xA0 SHL SUB SWAP1 SWAP2 AND SWAP1 PUSH4 0x42966C68 SWAP1 PUSH1 0x24 ADD PUSH1 0x20 PUSH1 0x40 MLOAD DUP1 DUP4 SUB DUP2 PUSH1 0x0 DUP8 GAS CALL ISZERO DUP1 ISZERO PUSH2 0x47BE JUMPI RETURNDATASIZE PUSH1 0x0 DUP1 RETURNDATACOPY RETURNDATASIZE PUSH1 0x0 REVERT JUMPDEST POP POP POP POP PUSH1 0x40 MLOAD RETURNDATASIZE PUSH1 0x1F NOT PUSH1 0x1F DUP3 ADD AND DUP3 ADD DUP1 PUSH1 0x40 MSTORE POP DUP2 ADD SWAP1 PUSH2 0x47E2 SWAP2 SWAP1 PUSH2 0x5248 JUMP JUMPDEST PUSH2 0x482E JUMPI PUSH1 0x40 MLOAD PUSH3 0x461BCD PUSH1 0xE5 SHL DUP2 MSTORE PUSH1 0x20 PUSH1 0x4 DUP3 ADD MSTORE PUSH1 0xB PUSH1 0x24 DUP3 ADD MSTORE PUSH32 0x4275726E206661696C6564000000000000000000000000000000000000000000 PUSH1 0x44 DUP3 ADD MSTORE PUSH1 0x64 ADD PUSH2 0x7AF JUMP JUMPDEST POP POP POP PUSH2 0xFFFF DUP6 AND PUSH1 0x0 SWAP1 DUP2 MSTORE PUSH1 0x23 PUSH1 0x20 MSTORE PUSH1 0x40 SWAP1 KECCAK256 DUP3 SWAP1 SSTORE POP PUSH2 0xA76 PUSH1 0x1 PUSH1 0x0 SSTORE JUMP JUMPDEST PUSH1 0x2 PUSH1 0x0 SLOAD SUB PUSH2 0x48A4 JUMPI PUSH1 0x40 MLOAD PUSH3 0x461BCD PUSH1 0xE5 SHL DUP2 MSTORE PUSH1 0x20 PUSH1 0x4 DUP3 ADD MSTORE PUSH1 0x1F PUSH1 0x24 DUP3 ADD MSTORE PUSH32 0x5265656E7472616E637947756172643A207265656E7472616E742063616C6C00 PUSH1 0x44 DUP3 ADD MSTORE PUSH1 0x64 ADD PUSH2 0x7AF JUMP JUMPDEST PUSH1 0x2 PUSH1 0x0 SSTORE JUMP JUMPDEST PUSH1 0x1 PUSH1 0x0 SSTORE JUMP JUMPDEST DUP1 MLOAD PUSH1 0x60 SWAP1 DUP3 SWAP1 PUSH1 0x0 SUB PUSH2 0x48C7 JUMPI POP SWAP1 SWAP2 SWAP1 POP JUMP JUMPDEST PUSH1 0x0 JUMPDEST DUP2 MLOAD DUP2 LT DUP1 ISZERO PUSH2 0x4932 JUMPI POP DUP2 DUP2 DUP2 MLOAD DUP2 LT PUSH2 0x48E7 JUMPI PUSH2 0x48E7 PUSH2 0x5446 JUMP JUMPDEST PUSH1 0x20 SWAP2 ADD ADD MLOAD PUSH32 0xFF00000000000000000000000000000000000000000000000000000000000000 AND PUSH32 0x2000000000000000000000000000000000000000000000000000000000000000 EQ JUMPDEST ISZERO PUSH2 0x4949 JUMPI DUP1 PUSH2 0x4941 DUP2 PUSH2 0x54B7 JUMP JUMPDEST SWAP2 POP POP PUSH2 0x48CA JUMP JUMPDEST DUP2 MLOAD DUP2 SUB PUSH2 0x4968 JUMPI POP POP PUSH1 0x40 DUP1 MLOAD PUSH1 0x20 DUP2 ADD SWAP1 SWAP2 MSTORE PUSH1 0x0 DUP2 MSTORE SWAP3 SWAP2 POP POP JUMP JUMPDEST PUSH1 0x0 PUSH1 0x1 DUP4 MLOAD PUSH2 0x4978 SWAP2 SWAP1 PUSH2 0x5475 JUMP JUMPDEST SWAP1 POP JUMPDEST DUP2 DUP2 GT DUP1 ISZERO PUSH2 0x49E2 JUMPI POP DUP3 DUP2 DUP2 MLOAD DUP2 LT PUSH2 0x4997 JUMPI PUSH2 0x4997 PUSH2 0x5446 JUMP JUMPDEST PUSH1 0x20 SWAP2 ADD ADD MLOAD PUSH32 0xFF00000000000000000000000000000000000000000000000000000000000000 AND PUSH32 0x2000000000000000000000000000000000000000000000000000000000000000 EQ JUMPDEST ISZERO PUSH2 0x49F9 JUMPI DUP1 PUSH2 0x49F1 DUP2 PUSH2 0x57C7 JUMP JUMPDEST SWAP2 POP POP PUSH2 0x497B JUMP JUMPDEST PUSH1 0x0 PUSH2 0x4A05 DUP4 DUP4 PUSH2 0x5475 JUMP JUMPDEST PUSH2 0x4A10 SWAP1 PUSH1 0x1 PUSH2 0x57DE JUMP JUMPDEST PUSH8 0xFFFFFFFFFFFFFFFF DUP2 GT ISZERO PUSH2 0x4A28 JUMPI PUSH2 0x4A28 PUSH2 0x526A JUMP JUMPDEST PUSH1 0x40 MLOAD SWAP1 DUP1 DUP3 MSTORE DUP1 PUSH1 0x1F ADD PUSH1 0x1F NOT AND PUSH1 0x20 ADD DUP3 ADD PUSH1 0x40 MSTORE DUP1 ISZERO PUSH2 0x4A52 JUMPI PUSH1 0x20 DUP3 ADD DUP2 DUP1 CALLDATASIZE DUP4 CALLDATACOPY ADD SWAP1 POP JUMPDEST POP SWAP1 POP PUSH1 0x0 JUMPDEST DUP2 MLOAD DUP2 LT ISZERO PUSH2 0x4ADA JUMPI DUP5 PUSH2 0x4A6C DUP3 DUP7 PUSH2 0x57DE JUMP JUMPDEST DUP2 MLOAD DUP2 LT PUSH2 0x4A7C JUMPI PUSH2 0x4A7C PUSH2 0x5446 JUMP JUMPDEST PUSH1 0x20 ADD ADD MLOAD PUSH1 0xF8 SHR PUSH1 0xF8 SHL DUP3 DUP3 DUP2 MLOAD DUP2 LT PUSH2 0x4A99 JUMPI PUSH2 0x4A99 PUSH2 0x5446 JUMP JUMPDEST PUSH1 0x20 ADD ADD SWAP1 PUSH31 0xFFFFFFFFFFFFFFFFFFFFFFFFFFFFFFFFFFFFFFFFFFFFFFFFFFFFFFFFFFFFFF NOT AND SWAP1 DUP2 PUSH1 0x0 BYTE SWAP1 MSTORE8 POP DUP1 PUSH2 0x4AD2 DUP2 PUSH2 0x54B7 JUMP JUMPDEST SWAP2 POP POP PUSH2 0x4A58 JUMP JUMPDEST POP SWAP6 SWAP5 POP POP POP POP POP JUMP JUMPDEST PUSH1 0x60 DUP2 PUSH1 0x0 JUMPDEST DUP2 MLOAD DUP2 LT ISZERO PUSH2 0x4B8E JUMPI PUSH1 0x0 DUP3 DUP3 DUP2 MLOAD DUP2 LT PUSH2 0x4B07 JUMPI PUSH2 0x4B07 PUSH2 0x5446 JUMP JUMPDEST ADD PUSH1 0x20 ADD MLOAD PUSH1 0xF8 SHR SWAP1 POP PUSH1 0x41 DUP2 LT DUP1 ISZERO SWAP1 PUSH2 0x4B26 JUMPI POP PUSH1 0x5A DUP2 PUSH1 0xFF AND GT ISZERO JUMPDEST ISZERO PUSH2 0x4B7B JUMPI PUSH2 0x4B36 DUP2 PUSH1 0x20 PUSH2 0x57F1 JUMP JUMPDEST PUSH1 0xF8 SHL DUP4 DUP4 DUP2 MLOAD DUP2 LT PUSH2 0x4B4B JUMPI PUSH2 0x4B4B PUSH2 0x5446 JUMP JUMPDEST PUSH1 0x20 ADD ADD SWAP1 PUSH31 0xFFFFFFFFFFFFFFFFFFFFFFFFFFFFFFFFFFFFFFFFFFFFFFFFFFFFFFFFFFFFFF NOT AND SWAP1 DUP2 PUSH1 0x0 BYTE SWAP1 MSTORE8 POP JUMPDEST POP DUP1 PUSH2 0x4B86 DUP2 PUSH2 0x54B7 JUMP JUMPDEST SWAP2 POP POP PUSH2 0x4AEA JUMP JUMPDEST POP SWAP3 SWAP2 POP POP JUMP JUMPDEST PUSH1 0x0 PUSH2 0x4BD6 DUP4 DUP4 DUP1 DUP1 PUSH1 0x1F ADD PUSH1 0x20 DUP1 SWAP2 DIV MUL PUSH1 0x20 ADD PUSH1 0x40 MLOAD SWAP1 DUP2 ADD PUSH1 0x40 MSTORE DUP1 SWAP4 SWAP3 SWAP2 SWAP1 DUP2 DUP2 MSTORE PUSH1 0x20 ADD DUP4 DUP4 DUP1 DUP3 DUP5 CALLDATACOPY PUSH1 0x0 SWAP3 ADD SWAP2 SWAP1 SWAP2 MSTORE POP PUSH2 0x48B2 SWAP3 POP POP POP JUMP JUMPDEST SWAP1 POP PUSH1 0x1 DUP2 MLOAD LT ISZERO PUSH2 0x4C2A JUMPI PUSH1 0x40 MLOAD PUSH3 0x461BCD PUSH1 0xE5 SHL DUP2 MSTORE PUSH1 0x20 PUSH1 0x4 DUP3 ADD MSTORE PUSH1 0xA PUSH1 0x24 DUP3 ADD MSTORE PUSH32 0x4E616D6520656D70747900000000000000000000000000000000000000000000 PUSH1 0x44 DUP3 ADD MSTORE PUSH1 0x64 ADD PUSH2 0x7AF JUMP JUMPDEST PUSH1 0x20 DUP2 MLOAD GT ISZERO PUSH2 0x257A JUMPI PUSH1 0x40 MLOAD PUSH3 0x461BCD PUSH1 0xE5 SHL DUP2 MSTORE PUSH1 0x20 PUSH1 0x4 DUP3 ADD MSTORE PUSH1 0xD PUSH1 0x24 DUP3 ADD MSTORE PUSH32 0x4E616D6520746F6F206C6F6E6700000000000000000000000000000000000000 PUSH1 0x44 DUP3 ADD MSTORE PUSH1 0x64 ADD PUSH2 0x7AF JUMP JUMPDEST PUSH1 0x0 PUSH2 0x4C8F PUSH2 0x4C8A DUP4 PUSH2 0x48B2 JUMP JUMPDEST PUSH2 0x4AE4 JUMP JUMPDEST PUSH1 0x40 MLOAD PUSH1 0x20 ADD PUSH2 0x4C9F SWAP2 SWAP1 PUSH2 0x54F0 JUMP JUMPDEST PUSH1 0x40 MLOAD PUSH1 0x20 DUP2 DUP4 SUB SUB DUP2 MSTORE SWAP1 PUSH1 0x40 MSTORE DUP1 MLOAD SWAP1 PUSH1 0x20 ADD KECCAK256 SWAP1 POP SWAP2 SWAP1 POP JUMP JUMPDEST POP DUP1 SLOAD PUSH1 0x0 DUP3 SSTORE PUSH1 0xF ADD PUSH1 0x10 SWAP1 DIV SWAP1 PUSH1 0x0 MSTORE PUSH1 0x20 PUSH1 0x0 KECCAK256 SWAP1 DUP2 ADD SWAP1 PUSH2 0x4CE1 SWAP2 SWAP1 PUSH2 0x4D1A JUMP JUMPDEST POP JUMP JUMPDEST POP DUP1 SLOAD PUSH2 0x4CF0 SWAP1 PUSH2 0x5299 JUMP JUMPDEST PUSH1 0x0 DUP3 SSTORE DUP1 PUSH1 0x1F LT PUSH2 0x4D00 JUMPI POP POP JUMP JUMPDEST PUSH1 0x1F ADD PUSH1 0x20 SWAP1 DIV SWAP1 PUSH1 0x0 MSTORE PUSH1 0x20 PUSH1 0x0 KECCAK256 SWAP1 DUP2 ADD SWAP1 PUSH2 0x4CE1 SWAP2 SWAP1 JUMPDEST JUMPDEST DUP1 DUP3 GT ISZERO PUSH2 0x4D2F JUMPI PUSH1 0x0 DUP2 SSTORE PUSH1 0x1 ADD PUSH2 0x4D1B JUMP JUMPDEST POP SWAP1 JUMP JUMPDEST DUP1 CALLDATALOAD PUSH1 0xFF DUP2 AND DUP2 EQ PUSH2 0x4D44 JUMPI PUSH1 0x0 DUP1 REVERT JUMPDEST SWAP2 SWAP1 POP JUMP JUMPDEST PUSH1 0x0 DUP1 DUP4 PUSH1 0x1F DUP5 ADD SLT PUSH2 0x4D5B JUMPI PUSH1 0x0 DUP1 REVERT JUMPDEST POP DUP2 CALLDATALOAD PUSH8 0xFFFFFFFFFFFFFFFF DUP2 GT ISZERO PUSH2 0x4D73 JUMPI PUSH1 0x0 DUP1 REVERT JUMPDEST PUSH1 0x20 DUP4 ADD SWAP2 POP DUP4 PUSH1 0x20 DUP3 DUP6 ADD ADD GT ISZERO PUSH2 0x4D8B JUMPI PUSH1 0x0 DUP1 REVERT JUMPDEST SWAP3 POP SWAP3 SWAP1 POP JUMP JUMPDEST PUSH1 0x0 DUP1 PUSH1 0x0 DUP1 PUSH1 0x60 DUP6 DUP8 SUB SLT ISZERO PUSH2 0x4DA8 JUMPI PUSH1 0x0 DUP1 REVERT JUMPDEST PUSH2 0x4DB1 DUP6 PUSH2 0x4D33 JUMP JUMPDEST SWAP4 POP PUSH2 0x4DBF PUSH1 0x20 DUP7 ADD PUSH2 0x4D33 JUMP JUMPDEST SWAP3 POP PUSH1 0x40 DUP6 ADD CALLDATALOAD PUSH8 0xFFFFFFFFFFFFFFFF DUP2 GT ISZERO PUSH2 0x4DDB JUMPI PUSH1 0x0 DUP1 REVERT JUMPDEST PUSH2 0x4DE7 DUP8 DUP3 DUP9 ADD PUSH2 0x4D49 JUMP JUMPDEST SWAP6 SWAP9 SWAP5 SWAP8 POP SWAP6 POP POP POP POP JUMP JUMPDEST PUSH1 0x0 DUP1 PUSH1 0x40 DUP4 DUP6 SUB SLT ISZERO PUSH2 0x4E06 JUMPI PUSH1 0x0 DUP1 REVERT JUMPDEST PUSH2 0x4E0F DUP4 PUSH2 0x4D33 JUMP JUMPDEST SWAP2 POP PUSH2 0x4E1D PUSH1 0x20 DUP5 ADD PUSH2 0x4D33 JUMP JUMPDEST SWAP1 POP SWAP3 POP SWAP3 SWAP1 POP JUMP JUMPDEST PUSH1 0x0 JUMPDEST DUP4 DUP2 LT ISZERO PUSH2 0x4E41 JUMPI DUP2 DUP2 ADD MLOAD DUP4 DUP3 ADD MSTORE PUSH1 0x20 ADD PUSH2 0x4E29 JUMP JUMPDEST POP POP PUSH1 0x0 SWAP2 ADD MSTORE JUMP JUMPDEST PUSH1 0x0 DUP2 MLOAD DUP1 DUP5 MSTORE PUSH2 0x4E62 DUP2 PUSH1 0x20 DUP7 ADD PUSH1 0x20 DUP7 ADD PUSH2 0x4E26 JUMP JUMPDEST PUSH1 0x1F ADD PUSH1 0x1F NOT AND SWAP3 SWAP1 SWAP3 ADD PUSH1 0x20 ADD SWAP3 SWAP2 POP POP JUMP JUMPDEST PUSH1 0x20 DUP2 MSTORE PUSH1 0x0 PUSH2 0x4E89 PUSH1 0x20 DUP4 ADD DUP5 PUSH2 0x4E4A JUMP JUMPDEST SWAP4 SWAP3 POP POP POP JUMP JUMPDEST PUSH1 0x1 PUSH1 0x1 PUSH1 0xA0 SHL SUB DUP2 AND DUP2 EQ PUSH2 0x4CE1 JUMPI PUSH1 0x0 DUP1 REVERT JUMPDEST PUSH1 0x0 PUSH1 0x20 DUP3 DUP5 SUB SLT ISZERO PUSH2 0x4EB7 JUMPI PUSH1 0x0 DUP1 REVERT JUMPDEST DUP2 CALLDATALOAD PUSH2 0x4E89 DUP2 PUSH2 0x4E90 JUMP JUMPDEST DUP1 CALLDATALOAD PUSH2 0xFFFF DUP2 AND DUP2 EQ PUSH2 0x4D44 JUMPI PUSH1 0x0 DUP1 REVERT JUMPDEST PUSH1 0x0 DUP1 PUSH1 0x0 DUP1 PUSH1 0x0 PUSH1 0xA0 DUP7 DUP9 SUB SLT ISZERO PUSH2 0x4EEC JUMPI PUSH1 0x0 DUP1 REVERT JUMPDEST PUSH2 0x4EF5 DUP7 PUSH2 0x4EC2 JUMP JUMPDEST SWAP5 POP PUSH2 0x4F03 PUSH1 0x20 DUP8 ADD PUSH2 0x4D33 JUMP JUMPDEST SWAP4 POP PUSH2 0x4F11 PUSH1 0x40 DUP8 ADD PUSH2 0x4D33 JUMP JUMPDEST SWAP3 POP PUSH2 0x4F1F PUSH1 0x60 DUP8 ADD PUSH2 0x4D33 JUMP JUMPDEST SWAP2 POP PUSH2 0x4F2D PUSH1 0x80 DUP8 ADD PUSH2 0x4D33 JUMP JUMPDEST SWAP1 POP SWAP3 SWAP6 POP SWAP3 SWAP6 SWAP1 SWAP4 POP JUMP JUMPDEST PUSH1 0x20 DUP1 DUP3 MSTORE DUP3 MLOAD DUP3 DUP3 ADD DUP2 SWAP1 MSTORE PUSH1 0x0 SWAP2 SWAP1 PUSH1 0x40 SWAP1 DUP2 DUP6 ADD SWAP1 DUP7 DUP5 ADD DUP6 JUMPDEST DUP3 DUP2 LT ISZERO PUSH2 0x4F9A JUMPI DUP2 MLOAD DUP1 MLOAD PUSH1 0xFF SWAP1 DUP2 AND DUP7 MSTORE DUP8 DUP3 ADD MLOAD AND DUP8 DUP7 ADD MSTORE DUP6 DUP2 ADD MLOAD PUSH2 0xFFFF AND DUP7 DUP7 ADD MSTORE PUSH1 0x60 SWAP1 DUP2 ADD MLOAD SWAP1 DUP6 ADD MSTORE PUSH1 0x80 SWAP1 SWAP4 ADD SWAP3 SWAP1 DUP6 ADD SWAP1 PUSH1 0x1 ADD PUSH2 0x4F56 JUMP JUMPDEST POP SWAP2 SWAP8 SWAP7 POP POP POP POP POP POP POP JUMP JUMPDEST PUSH1 0x0 DUP1 PUSH1 0x20 DUP4 DUP6 SUB SLT ISZERO PUSH2 0x4FBA JUMPI PUSH1 0x0 DUP1 REVERT JUMPDEST DUP3 CALLDATALOAD PUSH8 0xFFFFFFFFFFFFFFFF DUP2 GT ISZERO PUSH2 0x4FD1 JUMPI PUSH1 0x0 DUP1 REVERT JUMPDEST PUSH2 0x4FDD DUP6 DUP3 DUP7 ADD PUSH2 0x4D49 JUMP JUMPDEST SWAP1 SWAP7 SWAP1 SWAP6 POP SWAP4 POP POP POP POP JUMP JUMPDEST PUSH1 0x0 PUSH1 0x20 DUP3 DUP5 SUB SLT ISZERO PUSH2 0x4FFB JUMPI PUSH1 0x0 DUP1 REVERT JUMPDEST POP CALLDATALOAD SWAP2 SWAP1 POP JUMP JUMPDEST PUSH1 0x0 PUSH1 0x20 DUP3 DUP5 SUB SLT ISZERO PUSH2 0x5014 JUMPI PUSH1 0x0 DUP1 REVERT JUMPDEST PUSH2 0x4E89 DUP3 PUSH2 0x4EC2 JUMP JUMPDEST PUSH1 0x0 DUP1 PUSH1 0x0 PUSH1 0x60 DUP5 DUP7 SUB SLT ISZERO PUSH2 0x5032 JUMPI PUSH1 0x0 DUP1 REVERT JUMPDEST PUSH2 0x503B DUP5 PUSH2 0x4EC2 JUMP JUMPDEST SWAP3 POP PUSH2 0x5049 PUSH1 0x20 DUP6 ADD PUSH2 0x4D33 JUMP JUMPDEST SWAP2 POP PUSH2 0x5057 PUSH1 0x40 DUP6 ADD PUSH2 0x4D33 JUMP JUMPDEST SWAP1 POP SWAP3 POP SWAP3 POP SWAP3 JUMP JUMPDEST PUSH1 0x0 DUP2 MLOAD PUSH1 0xA0 DUP5 MSTORE PUSH2 0x5075 PUSH1 0xA0 DUP6 ADD DUP3 PUSH2 0x4E4A JUMP JUMPDEST SWAP1 POP PUSH1 0xFF PUSH1 0x20 DUP5 ADD MLOAD AND PUSH1 0x20 DUP6 ADD MSTORE PUSH1 0xFF PUSH1 0x40 DUP5 ADD MLOAD AND PUSH1 0x40 DUP6 ADD MSTORE PUSH1 0xFF PUSH1 0x60 DUP5 ADD MLOAD AND PUSH1 0x60 DUP6 ADD MSTORE PUSH1 0x80 DUP4 ADD MLOAD ISZERO ISZERO PUSH1 0x80 DUP6 ADD MSTORE DUP1 SWAP2 POP POP SWAP3 SWAP2 POP POP JUMP JUMPDEST PUSH1 0x20 DUP2 MSTORE PUSH1 0x0 PUSH2 0x4E89 PUSH1 0x20 DUP4 ADD DUP5 PUSH2 0x5060 JUMP JUMPDEST PUSH1 0x0 PUSH1 0x20 DUP1 DUP4 ADD DUP2 DUP5 MSTORE DUP1 DUP6 MLOAD DUP1 DUP4 MSTORE PUSH1 0x40 DUP7 ADD SWAP2 POP PUSH1 0x40 DUP2 PUSH1 0x5 SHL DUP8 ADD ADD SWAP3 POP DUP4 DUP8 ADD PUSH1 0x0 JUMPDEST DUP3 DUP2 LT ISZERO PUSH2 0x513A JUMPI PUSH32 0xFFFFFFFFFFFFFFFFFFFFFFFFFFFFFFFFFFFFFFFFFFFFFFFFFFFFFFFFFFFFFFC0 DUP9 DUP7 SUB ADD DUP5 MSTORE PUSH2 0x5128 DUP6 DUP4 MLOAD PUSH2 0x5060 JUMP JUMPDEST SWAP5 POP SWAP3 DUP6 ADD SWAP3 SWAP1 DUP6 ADD SWAP1 PUSH1 0x1 ADD PUSH2 0x50EE JUMP JUMPDEST POP SWAP3 SWAP8 SWAP7 POP POP POP POP POP POP POP JUMP JUMPDEST PUSH1 0x0 DUP1 PUSH1 0x40 DUP4 DUP6 SUB SLT ISZERO PUSH2 0x515A JUMPI PUSH1 0x0 DUP1 REVERT JUMPDEST PUSH2 0x5163 DUP4 PUSH2 0x4EC2 JUMP JUMPDEST SWAP5 PUSH1 0x20 SWAP4 SWAP1 SWAP4 ADD CALLDATALOAD SWAP4 POP POP POP JUMP JUMPDEST PUSH1 0x0 DUP1 PUSH1 0x40 DUP4 DUP6 SUB SLT ISZERO PUSH2 0x5184 JUMPI PUSH1 0x0 DUP1 REVERT JUMPDEST POP POP DUP1 CALLDATALOAD SWAP3 PUSH1 0x20 SWAP1 SWAP2 ADD CALLDATALOAD SWAP2 POP JUMP JUMPDEST PUSH1 0xA0 DUP2 MSTORE PUSH1 0x0 PUSH2 0x51A6 PUSH1 0xA0 DUP4 ADD DUP9 PUSH2 0x4E4A JUMP JUMPDEST SWAP1 POP PUSH1 0xFF DUP7 AND PUSH1 0x20 DUP4 ADD MSTORE PUSH1 0xFF DUP6 AND PUSH1 0x40 DUP4 ADD MSTORE PUSH1 0xFF DUP5 AND PUSH1 0x60 DUP4 ADD MSTORE DUP3 ISZERO ISZERO PUSH1 0x80 DUP4 ADD MSTORE SWAP7 SWAP6 POP POP POP POP POP POP JUMP JUMPDEST PUSH1 0x0 DUP1 PUSH1 0x0 DUP1 PUSH1 0x80 DUP6 DUP8 SUB SLT ISZERO PUSH2 0x51EB JUMPI PUSH1 0x0 DUP1 REVERT JUMPDEST PUSH2 0x51F4 DUP6 PUSH2 0x4EC2 JUMP JUMPDEST SWAP4 POP PUSH2 0x5202 PUSH1 0x20 DUP7 ADD PUSH2 0x4D33 JUMP JUMPDEST SWAP3 POP PUSH2 0x5210 PUSH1 0x40 DUP7 ADD PUSH2 0x4D33 JUMP JUMPDEST SWAP4 SWAP7 SWAP3 SWAP6 POP SWAP3 SWAP4 PUSH1 0x60 ADD CALLDATALOAD SWAP3 POP POP JUMP JUMPDEST DUP1 MLOAD PUSH2 0x4D44 DUP2 PUSH2 0x4E90 JUMP JUMPDEST PUSH1 0x0 PUSH1 0x20 DUP3 DUP5 SUB SLT ISZERO PUSH2 0x523D JUMPI PUSH1 0x0 DUP1 REVERT JUMPDEST DUP2 MLOAD PUSH2 0x4E89 DUP2 PUSH2 0x4E90 JUMP JUMPDEST PUSH1 0x0 PUSH1 0x20 DUP3 DUP5 SUB SLT ISZERO PUSH2 0x525A JUMPI PUSH1 0x0 DUP1 REVERT JUMPDEST DUP2 MLOAD DUP1 ISZERO ISZERO DUP2 EQ PUSH2 0x4E89 JUMPI PUSH1 0x0 DUP1 REVERT JUMPDEST PUSH32 0x4E487B7100000000000000000000000000000000000000000000000000000000 PUSH1 0x0 MSTORE PUSH1 0x41 PUSH1 0x4 MSTORE PUSH1 0x24 PUSH1 0x0 REVERT JUMPDEST PUSH1 0x1 DUP2 DUP2 SHR SWAP1 DUP3 AND DUP1 PUSH2 0x52AD JUMPI PUSH1 0x7F DUP3 AND SWAP2 POP JUMPDEST PUSH1 0x20 DUP3 LT DUP2 SUB PUSH2 0x52E6 JUMPI PUSH32 0x4E487B7100000000000000000000000000000000000000000000000000000000 PUSH1 0x0 MSTORE PUSH1 0x22 PUSH1 0x4 MSTORE PUSH1 0x24 PUSH1 0x0 REVERT JUMPDEST POP SWAP2 SWAP1 POP JUMP JUMPDEST PUSH1 0x1F DUP3 GT ISZERO PUSH2 0x257A JUMPI PUSH1 0x0 DUP2 DUP2 MSTORE PUSH1 0x20 DUP2 KECCAK256 PUSH1 0x1F DUP6 ADD PUSH1 0x5 SHR DUP2 ADD PUSH1 0x20 DUP7 LT ISZERO PUSH2 0x5313 JUMPI POP DUP1 JUMPDEST PUSH1 0x1F DUP6 ADD PUSH1 0x5 SHR DUP3 ADD SWAP2 POP JUMPDEST DUP2 DUP2 LT ISZERO PUSH2 0x5332 JUMPI DUP3 DUP2 SSTORE PUSH1 0x1 ADD PUSH2 0x531F JUMP JUMPDEST POP POP POP POP POP POP JUMP JUMPDEST PUSH8 0xFFFFFFFFFFFFFFFF DUP4 GT ISZERO PUSH2 0x5352 JUMPI PUSH2 0x5352 PUSH2 0x526A JUMP JUMPDEST PUSH2 0x5366 DUP4 PUSH2 0x5360 DUP4 SLOAD PUSH2 0x5299 JUMP JUMPDEST DUP4 PUSH2 0x52EC JUMP JUMPDEST PUSH1 0x0 PUSH1 0x1F DUP5 GT PUSH1 0x1 DUP2 EQ PUSH2 0x539A JUMPI PUSH1 0x0 DUP6 ISZERO PUSH2 0x5382 JUMPI POP DUP4 DUP3 ADD CALLDATALOAD JUMPDEST PUSH1 0x0 NOT PUSH1 0x3 DUP8 SWAP1 SHL SHR NOT AND PUSH1 0x1 DUP7 SWAP1 SHL OR DUP4 SSTORE PUSH2 0x1143 JUMP JUMPDEST PUSH1 0x0 DUP4 DUP2 MSTORE PUSH1 0x20 SWAP1 KECCAK256 PUSH1 0x1F NOT DUP7 AND SWAP1 DUP4 JUMPDEST DUP3 DUP2 LT ISZERO PUSH2 0x53CB JUMPI DUP7 DUP6 ADD CALLDATALOAD DUP3 SSTORE PUSH1 0x20 SWAP5 DUP6 ADD SWAP5 PUSH1 0x1 SWAP1 SWAP3 ADD SWAP2 ADD PUSH2 0x53AB JUMP JUMPDEST POP DUP7 DUP3 LT ISZERO PUSH2 0x53E8 JUMPI PUSH1 0x0 NOT PUSH1 0xF8 DUP9 PUSH1 0x3 SHL AND SHR NOT DUP5 DUP8 ADD CALLDATALOAD AND DUP2 SSTORE JUMPDEST POP POP PUSH1 0x1 DUP6 PUSH1 0x1 SHL ADD DUP4 SSTORE POP POP POP POP POP JUMP JUMPDEST PUSH32 0x4E487B7100000000000000000000000000000000000000000000000000000000 PUSH1 0x0 MSTORE PUSH1 0x11 PUSH1 0x4 MSTORE PUSH1 0x24 PUSH1 0x0 REVERT JUMPDEST PUSH1 0x0 PUSH1 0xFF DUP3 AND DUP1 PUSH2 0x543C JUMPI PUSH2 0x543C PUSH2 0x53FA JUMP JUMPDEST PUSH1 0x0 NOT ADD SWAP3 SWAP2 POP POP JUMP JUMPDEST PUSH32 0x4E487B7100000000000000000000000000000000000000000000000000000000 PUSH1 0x0 MSTORE PUSH1 0x32 PUSH1 0x4 MSTORE PUSH1 0x24 PUSH1 0x0 REVERT JUMPDEST DUP2 DUP2 SUB DUP2 DUP2 GT ISZERO PUSH2 0xB2B JUMPI PUSH2 0xB2B PUSH2 0x53FA JUMP JUMPDEST PUSH32 0x4E487B7100000000000000000000000000000000000000000000000000000000 PUSH1 0x0 MSTORE PUSH1 0x31 PUSH1 0x4 MSTORE PUSH1 0x24 PUSH1 0x0 REVERT JUMPDEST PUSH1 0x0 PUSH1 0x0 NOT DUP3 SUB PUSH2 0x54CA JUMPI PUSH2 0x54CA PUSH2 0x53FA JUMP JUMPDEST POP PUSH1 0x1 ADD SWAP1 JUMP JUMPDEST PUSH1 0x0 PUSH1 0xFF DUP3 AND PUSH1 0xFF DUP2 SUB PUSH2 0x54E7 JUMPI PUSH2 0x54E7 PUSH2 0x53FA JUMP JUMPDEST PUSH1 0x1 ADD SWAP3 SWAP2 POP POP JUMP JUMPDEST PUSH1 0x0 DUP3 MLOAD PUSH2 0x5502 DUP2 DUP5 PUSH1 0x20 DUP8 ADD PUSH2 0x4E26 JUMP JUMPDEST SWAP2 SWAP1 SWAP2 ADD SWAP3 SWAP2 POP POP JUMP JUMPDEST PUSH1 0x0 PUSH2 0xFFFF DUP1 DUP4 AND DUP2 DUP2 SUB PUSH2 0x5523 JUMPI PUSH2 0x5523 PUSH2 0x53FA JUMP JUMPDEST PUSH1 0x1 ADD SWAP4 SWAP3 POP POP POP JUMP JUMPDEST DUP2 MLOAD PUSH8 0xFFFFFFFFFFFFFFFF DUP2 GT ISZERO PUSH2 0x5547 JUMPI PUSH2 0x5547 PUSH2 0x526A JUMP JUMPDEST PUSH2 0x555B DUP2 PUSH2 0x5555 DUP5 SLOAD PUSH2 0x5299 JUMP JUMPDEST DUP5 PUSH2 0x52EC JUMP JUMPDEST PUSH1 0x20 DUP1 PUSH1 0x1F DUP4 GT PUSH1 0x1 DUP2 EQ PUSH2 0x5590 JUMPI PUSH1 0x0 DUP5 ISZERO PUSH2 0x5578 JUMPI POP DUP6 DUP4 ADD MLOAD JUMPDEST PUSH1 0x0 NOT PUSH1 0x3 DUP7 SWAP1 SHL SHR NOT AND PUSH1 0x1 DUP6 SWAP1 SHL OR DUP6 SSTORE PUSH2 0x5332 JUMP JUMPDEST PUSH1 0x0 DUP6 DUP2 MSTORE PUSH1 0x20 DUP2 KECCAK256 PUSH1 0x1F NOT DUP7 AND SWAP2 JUMPDEST DUP3 DUP2 LT ISZERO PUSH2 0x55BF JUMPI DUP9 DUP7 ADD MLOAD DUP3 SSTORE SWAP5 DUP5 ADD SWAP5 PUSH1 0x1 SWAP1 SWAP2 ADD SWAP1 DUP5 ADD PUSH2 0x55A0 JUMP JUMPDEST POP DUP6 DUP3 LT ISZERO PUSH2 0x55DD JUMPI DUP8 DUP6 ADD MLOAD PUSH1 0x0 NOT PUSH1 0x3 DUP9 SWAP1 SHL PUSH1 0xF8 AND SHR NOT AND DUP2 SSTORE JUMPDEST POP POP POP POP POP PUSH1 0x1 SWAP1 DUP2 SHL ADD SWAP1 SSTORE POP JUMP JUMPDEST PUSH1 0x0 DUP3 PUSH1 0x1F DUP4 ADD SLT PUSH2 0x55FE JUMPI PUSH1 0x0 DUP1 REVERT JUMPDEST DUP2 MLOAD PUSH8 0xFFFFFFFFFFFFFFFF DUP1 DUP3 GT ISZERO PUSH2 0x5619 JUMPI PUSH2 0x5619 PUSH2 0x526A JUMP JUMPDEST PUSH1 0x40 MLOAD PUSH1 0x1F DUP4 ADD PUSH1 0x1F NOT SWAP1 DUP2 AND PUSH1 0x3F ADD AND DUP2 ADD SWAP1 DUP3 DUP3 GT DUP2 DUP4 LT OR ISZERO PUSH2 0x5641 JUMPI PUSH2 0x5641 PUSH2 0x526A JUMP JUMPDEST DUP2 PUSH1 0x40 MSTORE DUP4 DUP2 MSTORE DUP7 PUSH1 0x20 DUP6 DUP9 ADD ADD GT ISZERO PUSH2 0x565A JUMPI PUSH1 0x0 DUP1 REVERT JUMPDEST PUSH2 0x566B DUP5 PUSH1 0x20 DUP4 ADD PUSH1 0x20 DUP10 ADD PUSH2 0x4E26 JUMP JUMPDEST SWAP7 SWAP6 POP POP POP POP POP POP JUMP JUMPDEST PUSH1 0x0 DUP1 PUSH1 0x0 DUP1 PUSH1 0x0 DUP1 PUSH1 0x0 DUP1 PUSH1 0x0 DUP1 PUSH1 0x0 PUSH2 0x160 DUP13 DUP15 SUB SLT ISZERO PUSH2 0x5697 JUMPI PUSH1 0x0 DUP1 REVERT JUMPDEST DUP12 MLOAD PUSH8 0xFFFFFFFFFFFFFFFF DUP2 GT ISZERO PUSH2 0x56AE JUMPI PUSH1 0x0 DUP1 REVERT JUMPDEST PUSH2 0x56BA DUP15 DUP3 DUP16 ADD PUSH2 0x55ED JUMP JUMPDEST SWAP12 POP POP PUSH1 0x20 DUP13 ADD MLOAD PUSH8 0xFFFFFFFFFFFFFFFF DUP2 GT ISZERO PUSH2 0x56D7 JUMPI PUSH1 0x0 DUP1 REVERT JUMPDEST PUSH2 0x56E3 DUP15 DUP3 DUP16 ADD PUSH2 0x55ED JUMP JUMPDEST SWAP11 POP POP PUSH1 0x40 DUP13 ADD MLOAD PUSH8 0xFFFFFFFFFFFFFFFF DUP2 GT ISZERO PUSH2 0x5700 JUMPI PUSH1 0x0 DUP1 REVERT JUMPDEST PUSH2 0x570C DUP15 DUP3 DUP16 ADD PUSH2 0x55ED JUMP JUMPDEST SWAP10 POP POP PUSH1 0x60 DUP13 ADD MLOAD PUSH8 0xFFFFFFFFFFFFFFFF DUP2 GT ISZERO PUSH2 0x5729 JUMPI PUSH1 0x0 DUP1 REVERT JUMPDEST PUSH2 0x5735 DUP15 DUP3 DUP16 ADD PUSH2 0x55ED JUMP JUMPDEST SWAP9 POP POP PUSH2 0x5744 PUSH1 0x80 DUP14 ADD PUSH2 0x5220 JUMP JUMPDEST SWAP7 POP PUSH1 0xA0 DUP13 ADD MLOAD SWAP6 POP PUSH1 0xC0 DUP13 ADD MLOAD SWAP5 POP PUSH1 0xE0 DUP13 ADD MLOAD PUSH8 0xFFFFFFFFFFFFFFFF DUP2 GT ISZERO PUSH2 0x576E JUMPI PUSH1 0x0 DUP1 REVERT JUMPDEST PUSH2 0x577A DUP15 DUP3 DUP16 ADD PUSH2 0x55ED JUMP JUMPDEST SWAP5 POP POP PUSH2 0x100 DUP13 ADD MLOAD PUSH8 0xFFFFFFFFFFFFFFFF DUP2 GT ISZERO PUSH2 0x5798 JUMPI PUSH1 0x0 DUP1 REVERT JUMPDEST PUSH2 0x57A4 DUP15 DUP3 DUP16 ADD PUSH2 0x55ED JUMP JUMPDEST SWAP4 POP POP PUSH2 0x120 DUP13 ADD MLOAD SWAP2 POP PUSH2 0x140 DUP13 ADD MLOAD SWAP1 POP SWAP3 SWAP6 SWAP9 SWAP12 POP SWAP3 SWAP6 SWAP9 SWAP12 SWAP1 SWAP4 SWAP7 SWAP10 POP JUMP JUMPDEST PUSH1 0x0 DUP2 PUSH2 0x57D6 JUMPI PUSH2 0x57D6 PUSH2 0x53FA JUMP JUMPDEST POP PUSH1 0x0 NOT ADD SWAP1 JUMP JUMPDEST DUP1 DUP3 ADD DUP1 DUP3 GT ISZERO PUSH2 0xB2B JUMPI PUSH2 0xB2B PUSH2 0x53FA JUMP JUMPDEST PUSH1 0xFF DUP2 DUP2 AND DUP4 DUP3 AND ADD SWAP1 DUP2 GT ISZERO PUSH2 0xB2B JUMPI PUSH2 0xB2B PUSH2 0x53FA JUMP INVALID LOG2 PUSH5 0x6970667358 0x22 SLT KECCAK256 0xD0 DUP13 GAS 0xCE 0xAF 0xC5 SWAP4 0x25 0xED PUSH27 0x7F4D96D9D618AA34AD9A54212547D99BF1012D425A3364736F6C63 NUMBER STOP ADDMOD SLT STOP CALLER "
		},
		"gasEstimates": {
			"creation": {
				"codeDepositCost": "4518400",
				"executionCost": "infinite",
				"totalCost": "infinite"
			},
			"external": {
				"CLAN_CREATION_COST()": "285",
				"CLAN_FLAG_COST()": "286",
				"LEAVE_CLAN_BURN()": "284",
				"LEAVE_CLAN_COST()": "264",
				"LEAVE_CLAN_PAYOUT()": "262",
				"MAX_MEMBERS()": "270",
				"REMOVE_MEMBER_BURN()": "306",
				"REMOVE_MEMBER_COST()": "264",
				"REMOVE_MEMBER_PAYOUT()": "285",
				"TILE_NAMING_COST()": "264",
				"acceptInviteForTile(uint8,uint8)": "infinite",
				"bonuses(uint256,uint256)": "4251",
				"clanFlags(uint16)": "2575",
				"clanMemberTiles(uint16,uint256)": "6497",
				"clanNameTaken(bytes32)": "2563",
				"clans(uint16)": "infinite",
				"createClan(uint8,uint8,string)": "infinite",
				"disbandClan(uint16,uint8,uint8)": "infinite",
				"getAllClans()": "infinite",
				"getAllTilesWithClans()": "infinite",
				"getBonus(uint8,uint8)": "infinite",
				"getClanInfo(uint16)": "infinite",
				"getClanLeaderCoords(uint16)": "4936",
				"getClanMemberCount(uint16)": "4885",
				"getClanMemberTiles(uint16)": "infinite",
				"getTileClan(uint8,uint8)": "infinite",
				"getTileClanName(uint8,uint8)": "infinite",
				"getTileName(uint8,uint8)": "infinite",
				"getTwitterHandle(address)": "infinite",
				"inviteTileToClan(uint16,uint8,uint8,uint8,uint8)": "infinite",
				"isClanNameAvailable(string)": "infinite",
				"leaveClanForTile(uint8,uint8)": "infinite",
				"lopToken()": "2428",
				"membersByTile(uint16)": "2637",
				"nameTile(uint8,uint8,string)": "infinite",
				"nftMarket()": "2428",
				"pendingInvitesByTile(uint16)": "2634",
				"refuseInviteForTile(uint8,uint8)": "infinite",
				"removeMemberTile(uint16,uint8,uint8,uint8,uint8)": "infinite",
				"setClanFlag(uint16,uint8,uint8,uint256)": "infinite",
				"setTwitterHandle(string)": "infinite",
				"theLand()": "2404",
				"tileClans(uint8,uint8)": "infinite",
				"tileMapPhaser()": "2449",
				"tileNames(uint8,uint8)": "infinite",
				"twitterHandles(address)": "infinite"
			},
			"internal": {
				"_assertValidName(string calldata)": "infinite",
				"_nameKey(string memory)": "infinite",
				"_tileKey(uint8,uint8)": "infinite",
				"_toLower(string memory)": "infinite",
				"_trim(string memory)": "infinite",
				"_unpackKey(uint16)": "infinite"
			}
		},
		"methodIdentifiers": {
			"CLAN_CREATION_COST()": "731ae689",
			"CLAN_FLAG_COST()": "65191666",
			"LEAVE_CLAN_BURN()": "e4547fb4",
			"LEAVE_CLAN_COST()": "2e4b51bd",
			"LEAVE_CLAN_PAYOUT()": "5387a797",
			"MAX_MEMBERS()": "ea0e35b1",
			"REMOVE_MEMBER_BURN()": "e6192fca",
			"REMOVE_MEMBER_COST()": "0cea9dc5",
			"REMOVE_MEMBER_PAYOUT()": "2c6d422f",
			"TILE_NAMING_COST()": "62c5813d",
			"acceptInviteForTile(uint8,uint8)": "a609775b",
			"bonuses(uint256,uint256)": "bc9955a2",
			"clanFlags(uint16)": "40b900b6",
			"clanMemberTiles(uint16,uint256)": "b21e0737",
			"clanNameTaken(bytes32)": "36780527",
			"clans(uint16)": "be5ed4c3",
			"createClan(uint8,uint8,string)": "98a8d0e7",
			"disbandClan(uint16,uint8,uint8)": "6f5978d9",
			"getAllClans()": "9b21d6eb",
			"getAllTilesWithClans()": "2dec2e63",
			"getBonus(uint8,uint8)": "2a2026a9",
			"getClanInfo(uint16)": "8252a669",
			"getClanLeaderCoords(uint16)": "abefc323",
			"getClanMemberCount(uint16)": "5aa24cbd",
			"getClanMemberTiles(uint16)": "793c97de",
			"getTileClan(uint8,uint8)": "7ab9e7fe",
			"getTileClanName(uint8,uint8)": "9cec5194",
			"getTileName(uint8,uint8)": "09e59cec",
			"getTwitterHandle(address)": "f15ad264",
			"inviteTileToClan(uint16,uint8,uint8,uint8,uint8)": "15b7ed6f",
			"isClanNameAvailable(string)": "3f9662bb",
			"leaveClanForTile(uint8,uint8)": "1cecb4fb",
			"lopToken()": "0d67f59e",
			"membersByTile(uint16)": "3942613c",
			"nameTile(uint8,uint8,string)": "0821de3e",
			"nftMarket()": "196ab1ab",
			"pendingInvitesByTile(uint16)": "40b76bbd",
			"refuseInviteForTile(uint8,uint8)": "44ad764d",
			"removeMemberTile(uint16,uint8,uint8,uint8,uint8)": "8e6bb70e",
			"setClanFlag(uint16,uint8,uint8,uint256)": "fa60ad99",
			"setTwitterHandle(string)": "2f57741c",
			"theLand()": "b0d77774",
			"tileClans(uint8,uint8)": "58612a20",
			"tileMapPhaser()": "4f264b03",
			"tileNames(uint8,uint8)": "7b0c98ef",
			"twitterHandles(address)": "13a5cede"
		}
	},
	"abi": [
		{
			"inputs": [
				{
					"internalType": "address",
					"name": "_tileMapPhaser",
					"type": "address"
				},
				{
					"internalType": "address",
					"name": "_lopToken",
					"type": "address"
				},
				{
					"internalType": "address",
					"name": "_nftMarket",
					"type": "address"
				},
				{
					"internalType": "address",
					"name": "_theLand",
					"type": "address"
				}
			],
			"stateMutability": "nonpayable",
			"type": "constructor"
		},
		{
			"inputs": [],
			"name": "CLAN_CREATION_COST",
			"outputs": [
				{
					"internalType": "uint256",
					"name": "",
					"type": "uint256"
				}
			],
			"stateMutability": "view",
			"type": "function"
		},
		{
			"inputs": [],
			"name": "CLAN_FLAG_COST",
			"outputs": [
				{
					"internalType": "uint256",
					"name": "",
					"type": "uint256"
				}
			],
			"stateMutability": "view",
			"type": "function"
		},
		{
			"inputs": [],
			"name": "LEAVE_CLAN_BURN",
			"outputs": [
				{
					"internalType": "uint256",
					"name": "",
					"type": "uint256"
				}
			],
			"stateMutability": "view",
			"type": "function"
		},
		{
			"inputs": [],
			"name": "LEAVE_CLAN_COST",
			"outputs": [
				{
					"internalType": "uint256",
					"name": "",
					"type": "uint256"
				}
			],
			"stateMutability": "view",
			"type": "function"
		},
		{
			"inputs": [],
			"name": "LEAVE_CLAN_PAYOUT",
			"outputs": [
				{
					"internalType": "uint256",
					"name": "",
					"type": "uint256"
				}
			],
			"stateMutability": "view",
			"type": "function"
		},
		{
			"inputs": [],
			"name": "MAX_MEMBERS",
			"outputs": [
				{
					"internalType": "uint8",
					"name": "",
					"type": "uint8"
				}
			],
			"stateMutability": "view",
			"type": "function"
		},
		{
			"inputs": [],
			"name": "REMOVE_MEMBER_BURN",
			"outputs": [
				{
					"internalType": "uint256",
					"name": "",
					"type": "uint256"
				}
			],
			"stateMutability": "view",
			"type": "function"
		},
		{
			"inputs": [],
			"name": "REMOVE_MEMBER_COST",
			"outputs": [
				{
					"internalType": "uint256",
					"name": "",
					"type": "uint256"
				}
			],
			"stateMutability": "view",
			"type": "function"
		},
		{
			"inputs": [],
			"name": "REMOVE_MEMBER_PAYOUT",
			"outputs": [
				{
					"internalType": "uint256",
					"name": "",
					"type": "uint256"
				}
			],
			"stateMutability": "view",
			"type": "function"
		},
		{
			"inputs": [],
			"name": "TILE_NAMING_COST",
			"outputs": [
				{
					"internalType": "uint256",
					"name": "",
					"type": "uint256"
				}
			],
			"stateMutability": "view",
			"type": "function"
		},
		{
			"inputs": [
				{
					"internalType": "uint8",
					"name": "x",
					"type": "uint8"
				},
				{
					"internalType": "uint8",
					"name": "y",
					"type": "uint8"
				}
			],
			"name": "acceptInviteForTile",
			"outputs": [],
			"stateMutability": "nonpayable",
			"type": "function"
		},
		{
			"inputs": [
				{
					"internalType": "uint256",
					"name": "",
					"type": "uint256"
				},
				{
					"internalType": "uint256",
					"name": "",
					"type": "uint256"
				}
			],
			"name": "bonuses",
			"outputs": [
				{
					"internalType": "uint8",
					"name": "",
					"type": "uint8"
				}
			],
			"stateMutability": "view",
			"type": "function"
		},
		{
			"inputs": [
				{
					"internalType": "uint16",
					"name": "",
					"type": "uint16"
				}
			],
			"name": "clanFlags",
			"outputs": [
				{
					"internalType": "uint256",
					"name": "",
					"type": "uint256"
				}
			],
			"stateMutability": "view",
			"type": "function"
		},
		{
			"inputs": [
				{
					"internalType": "uint16",
					"name": "",
					"type": "uint16"
				},
				{
					"internalType": "uint256",
					"name": "",
					"type": "uint256"
				}
			],
			"name": "clanMemberTiles",
			"outputs": [
				{
					"internalType": "uint16",
					"name": "",
					"type": "uint16"
				}
			],
			"stateMutability": "view",
			"type": "function"
		},
		{
			"inputs": [
				{
					"internalType": "bytes32",
					"name": "",
					"type": "bytes32"
				}
			],
			"name": "clanNameTaken",
			"outputs": [
				{
					"internalType": "bool",
					"name": "",
					"type": "bool"
				}
			],
			"stateMutability": "view",
			"type": "function"
		},
		{
			"inputs": [
				{
					"internalType": "uint16",
					"name": "",
					"type": "uint16"
				}
			],
			"name": "clans",
			"outputs": [
				{
					"internalType": "string",
					"name": "name",
					"type": "string"
				},
				{
					"internalType": "uint8",
					"name": "leaderX",
					"type": "uint8"
				},
				{
					"internalType": "uint8",
					"name": "leaderY",
					"type": "uint8"
				},
				{
					"internalType": "uint8",
					"name": "memberCount",
					"type": "uint8"
				},
				{
					"internalType": "bool",
					"name": "exists",
					"type": "bool"
				}
			],
			"stateMutability": "view",
			"type": "function"
		},
		{
			"inputs": [
				{
					"internalType": "uint8",
					"name": "x",
					"type": "uint8"
				},
				{
					"internalType": "uint8",
					"name": "y",
					"type": "uint8"
				},
				{
					"internalType": "string",
					"name": "name",
					"type": "string"
				}
			],
			"name": "createClan",
			"outputs": [],
			"stateMutability": "nonpayable",
			"type": "function"
		},
		{
			"inputs": [
				{
					"internalType": "uint16",
					"name": "clanId",
					"type": "uint16"
				},
				{
					"internalType": "uint8",
					"name": "lx",
					"type": "uint8"
				},
				{
					"internalType": "uint8",
					"name": "ly",
					"type": "uint8"
				}
			],
			"name": "disbandClan",
			"outputs": [],
			"stateMutability": "nonpayable",
			"type": "function"
		},
		{
			"inputs": [],
			"name": "getAllClans",
			"outputs": [
				{
					"components": [
						{
							"internalType": "string",
							"name": "name",
							"type": "string"
						},
						{
							"internalType": "uint8",
							"name": "leaderX",
							"type": "uint8"
						},
						{
							"internalType": "uint8",
							"name": "leaderY",
							"type": "uint8"
						},
						{
							"internalType": "uint8",
							"name": "memberCount",
							"type": "uint8"
						},
						{
							"internalType": "bool",
							"name": "exists",
							"type": "bool"
						}
					],
					"internalType": "struct Clan.ClanInfo[]",
					"name": "",
					"type": "tuple[]"
				}
			],
			"stateMutability": "view",
			"type": "function"
		},
		{
			"inputs": [],
			"name": "getAllTilesWithClans",
			"outputs": [
				{
					"components": [
						{
							"internalType": "uint8",
							"name": "x",
							"type": "uint8"
						},
						{
							"internalType": "uint8",
							"name": "y",
							"type": "uint8"
						},
						{
							"internalType": "uint16",
							"name": "clanId",
							"type": "uint16"
						},
						{
							"internalType": "uint256",
							"name": "flagTokenId",
							"type": "uint256"
						}
					],
					"internalType": "struct Clan.TileClanInfo[]",
					"name": "",
					"type": "tuple[]"
				}
			],
			"stateMutability": "view",
			"type": "function"
		},
		{
			"inputs": [
				{
					"internalType": "uint8",
					"name": "x",
					"type": "uint8"
				},
				{
					"internalType": "uint8",
					"name": "y",
					"type": "uint8"
				}
			],
			"name": "getBonus",
			"outputs": [
				{
					"internalType": "uint8",
					"name": "",
					"type": "uint8"
				}
			],
			"stateMutability": "view",
			"type": "function"
		},
		{
			"inputs": [
				{
					"internalType": "uint16",
					"name": "clanId",
					"type": "uint16"
				}
			],
			"name": "getClanInfo",
			"outputs": [
				{
					"components": [
						{
							"internalType": "string",
							"name": "name",
							"type": "string"
						},
						{
							"internalType": "uint8",
							"name": "leaderX",
							"type": "uint8"
						},
						{
							"internalType": "uint8",
							"name": "leaderY",
							"type": "uint8"
						},
						{
							"internalType": "uint8",
							"name": "memberCount",
							"type": "uint8"
						},
						{
							"internalType": "bool",
							"name": "exists",
							"type": "bool"
						}
					],
					"internalType": "struct Clan.ClanInfo",
					"name": "",
					"type": "tuple"
				}
			],
			"stateMutability": "view",
			"type": "function"
		},
		{
			"inputs": [
				{
					"internalType": "uint16",
					"name": "clanId",
					"type": "uint16"
				}
			],
			"name": "getClanLeaderCoords",
			"outputs": [
				{
					"internalType": "uint8",
					"name": "",
					"type": "uint8"
				},
				{
					"internalType": "uint8",
					"name": "",
					"type": "uint8"
				}
			],
			"stateMutability": "view",
			"type": "function"
		},
		{
			"inputs": [
				{
					"internalType": "uint16",
					"name": "clanId",
					"type": "uint16"
				}
			],
			"name": "getClanMemberCount",
			"outputs": [
				{
					"internalType": "uint8",
					"name": "",
					"type": "uint8"
				}
			],
			"stateMutability": "view",
			"type": "function"
		},
		{
			"inputs": [
				{
					"internalType": "uint16",
					"name": "clanId",
					"type": "uint16"
				}
			],
			"name": "getClanMemberTiles",
			"outputs": [
				{
					"components": [
						{
							"internalType": "uint8",
							"name": "x",
							"type": "uint8"
						},
						{
							"internalType": "uint8",
							"name": "y",
							"type": "uint8"
						},
						{
							"internalType": "uint16",
							"name": "clanId",
							"type": "uint16"
						},
						{
							"internalType": "uint256",
							"name": "flagTokenId",
							"type": "uint256"
						}
					],
					"internalType": "struct Clan.TileClanInfo[]",
					"name": "",
					"type": "tuple[]"
				}
			],
			"stateMutability": "view",
			"type": "function"
		},
		{
			"inputs": [
				{
					"internalType": "uint8",
					"name": "x",
					"type": "uint8"
				},
				{
					"internalType": "uint8",
					"name": "y",
					"type": "uint8"
				}
			],
			"name": "getTileClan",
			"outputs": [
				{
					"internalType": "uint16",
					"name": "",
					"type": "uint16"
				}
			],
			"stateMutability": "view",
			"type": "function"
		},
		{
			"inputs": [
				{
					"internalType": "uint8",
					"name": "x",
					"type": "uint8"
				},
				{
					"internalType": "uint8",
					"name": "y",
					"type": "uint8"
				}
			],
			"name": "getTileClanName",
			"outputs": [
				{
					"internalType": "string",
					"name": "",
					"type": "string"
				}
			],
			"stateMutability": "view",
			"type": "function"
		},
		{
			"inputs": [
				{
					"internalType": "uint8",
					"name": "x",
					"type": "uint8"
				},
				{
					"internalType": "uint8",
					"name": "y",
					"type": "uint8"
				}
			],
			"name": "getTileName",
			"outputs": [
				{
					"internalType": "string",
					"name": "",
					"type": "string"
				}
			],
			"stateMutability": "view",
			"type": "function"
		},
		{
			"inputs": [
				{
					"internalType": "address",
					"name": "user",
					"type": "address"
				}
			],
			"name": "getTwitterHandle",
			"outputs": [
				{
					"internalType": "string",
					"name": "",
					"type": "string"
				}
			],
			"stateMutability": "view",
			"type": "function"
		},
		{
			"inputs": [
				{
					"internalType": "uint16",
					"name": "clanId",
					"type": "uint16"
				},
				{
					"internalType": "uint8",
					"name": "lx",
					"type": "uint8"
				},
				{
					"internalType": "uint8",
					"name": "ly",
					"type": "uint8"
				},
				{
					"internalType": "uint8",
					"name": "targetX",
					"type": "uint8"
				},
				{
					"internalType": "uint8",
					"name": "targetY",
					"type": "uint8"
				}
			],
			"name": "inviteTileToClan",
			"outputs": [],
			"stateMutability": "nonpayable",
			"type": "function"
		},
		{
			"inputs": [
				{
					"internalType": "string",
					"name": "name",
					"type": "string"
				}
			],
			"name": "isClanNameAvailable",
			"outputs": [
				{
					"internalType": "bool",
					"name": "",
					"type": "bool"
				}
			],
			"stateMutability": "view",
			"type": "function"
		},
		{
			"inputs": [
				{
					"internalType": "uint8",
					"name": "x",
					"type": "uint8"
				},
				{
					"internalType": "uint8",
					"name": "y",
					"type": "uint8"
				}
			],
			"name": "leaveClanForTile",
			"outputs": [],
			"stateMutability": "nonpayable",
			"type": "function"
		},
		{
			"inputs": [],
			"name": "lopToken",
			"outputs": [
				{
					"internalType": "contract IHarmLop",
					"name": "",
					"type": "address"
				}
			],
			"stateMutability": "view",
			"type": "function"
		},
		{
			"inputs": [
				{
					"internalType": "uint16",
					"name": "",
					"type": "uint16"
				}
			],
			"name": "membersByTile",
			"outputs": [
				{
					"internalType": "uint16",
					"name": "clanId",
					"type": "uint16"
				},
				{
					"internalType": "bool",
					"name": "isMember",
					"type": "bool"
				}
			],
			"stateMutability": "view",
			"type": "function"
		},
		{
			"inputs": [
				{
					"internalType": "uint8",
					"name": "x",
					"type": "uint8"
				},
				{
					"internalType": "uint8",
					"name": "y",
					"type": "uint8"
				},
				{
					"internalType": "string",
					"name": "newName",
					"type": "string"
				}
			],
			"name": "nameTile",
			"outputs": [],
			"stateMutability": "nonpayable",
			"type": "function"
		},
		{
			"inputs": [],
			"name": "nftMarket",
			"outputs": [
				{
					"internalType": "contract IMyNFTMarket",
					"name": "",
					"type": "address"
				}
			],
			"stateMutability": "view",
			"type": "function"
		},
		{
			"inputs": [
				{
					"internalType": "uint16",
					"name": "",
					"type": "uint16"
				}
			],
			"name": "pendingInvitesByTile",
			"outputs": [
				{
					"internalType": "uint16",
					"name": "",
					"type": "uint16"
				}
			],
			"stateMutability": "view",
			"type": "function"
		},
		{
			"inputs": [
				{
					"internalType": "uint8",
					"name": "x",
					"type": "uint8"
				},
				{
					"internalType": "uint8",
					"name": "y",
					"type": "uint8"
				}
			],
			"name": "refuseInviteForTile",
			"outputs": [],
			"stateMutability": "nonpayable",
			"type": "function"
		},
		{
			"inputs": [
				{
					"internalType": "uint16",
					"name": "clanId",
					"type": "uint16"
				},
				{
					"internalType": "uint8",
					"name": "lx",
					"type": "uint8"
				},
				{
					"internalType": "uint8",
					"name": "ly",
					"type": "uint8"
				},
				{
					"internalType": "uint8",
					"name": "mx",
					"type": "uint8"
				},
				{
					"internalType": "uint8",
					"name": "my",
					"type": "uint8"
				}
			],
			"name": "removeMemberTile",
			"outputs": [],
			"stateMutability": "nonpayable",
			"type": "function"
		},
		{
			"inputs": [
				{
					"internalType": "uint16",
					"name": "clanId",
					"type": "uint16"
				},
				{
					"internalType": "uint8",
					"name": "lx",
					"type": "uint8"
				},
				{
					"internalType": "uint8",
					"name": "ly",
					"type": "uint8"
				},
				{
					"internalType": "uint256",
					"name": "tokenId",
					"type": "uint256"
				}
			],
			"name": "setClanFlag",
			"outputs": [],
			"stateMutability": "nonpayable",
			"type": "function"
		},
		{
			"inputs": [
				{
					"internalType": "string",
					"name": "handle",
					"type": "string"
				}
			],
			"name": "setTwitterHandle",
			"outputs": [],
			"stateMutability": "nonpayable",
			"type": "function"
		},
		{
			"inputs": [],
			"name": "theLand",
			"outputs": [
				{
					"internalType": "contract ITheLand",
					"name": "",
					"type": "address"
				}
			],
			"stateMutability": "view",
			"type": "function"
		},
		{
			"inputs": [
				{
					"internalType": "uint8",
					"name": "",
					"type": "uint8"
				},
				{
					"internalType": "uint8",
					"name": "",
					"type": "uint8"
				}
			],
			"name": "tileClans",
			"outputs": [
				{
					"internalType": "uint16",
					"name": "",
					"type": "uint16"
				}
			],
			"stateMutability": "view",
			"type": "function"
		},
		{
			"inputs": [],
			"name": "tileMapPhaser",
			"outputs": [
				{
					"internalType": "contract ITileMapPhaser",
					"name": "",
					"type": "address"
				}
			],
			"stateMutability": "view",
			"type": "function"
		},
		{
			"inputs": [
				{
					"internalType": "uint8",
					"name": "",
					"type": "uint8"
				},
				{
					"internalType": "uint8",
					"name": "",
					"type": "uint8"
				}
			],
			"name": "tileNames",
			"outputs": [
				{
					"internalType": "string",
					"name": "",
					"type": "string"
				}
			],
			"stateMutability": "view",
			"type": "function"
		},
		{
			"inputs": [
				{
					"internalType": "address",
					"name": "",
					"type": "address"
				}
			],
			"name": "twitterHandles",
			"outputs": [
				{
					"internalType": "string",
					"name": "",
					"type": "string"
				}
			],
			"stateMutability": "view",
			"type": "function"
		}
	]
}