{
	"data": {
		"bytecode": {
			"linkReferences": {},
			"object": "60046103008181526103208290526103408290526103608290526103808290526103a082905260036103c08190526103e081905261040081905261042081905261044081905261046081905260026104808190526104a081905260016104c08190526104e082905261050082905261052082905261054082905261056082905260809384526105808581526105a08690526105c08690526105e08690526106008690526106208690526106408690526106608490526106808490526106a08490526106c08490526106e08490526107008390526107208290526107408290526107608390526107808390526107a08390526107c08390526107e083905260a0526108008581526108208690526108408690526108608690526108808690526108a08690526108c08690526108e08690526109008490526109208490526109408490526109608490526109808390526109a08390526109c08290526109e0829052610a00839052610a20839052610a40839052610a6083905260c052610a80858152610aa0869052610ac0869052610ae0869052610b00869052610b20869052610b40869052610b6095909552610b80839052610ba0839052610bc0839052610be0839052610c00839052610c20819052610c40819052610c60819052610c80829052610ca0829052610cc0829052610ce082905260e094909452610d00828152610d20839052610d40839052610d60839052610d80839052610da0839052610dc0839052610de0839052610e00839052610e20839052610e40839052610e60839052610e80859052610ea0859052610ec0859052610ee0859052610f00829052610f20829052610f40829052610f6082905261010052610f80828152610fa0839052610fc0839052610fe08390526110008390526110208390526110408390526110608390526110808390526110a08390526110c08390526110e08390526111008590526111208590526111408590526111608590526111808290526111a08290526111c08290526111e0829052610120526112008281526112208390526112408390526112608390526112808390526112a08390526112c08390526112e08390526113008390526113208390526113408390526113608390526113808590526113a08590526113c08590526113e0859052611400859052611420859052611440859052611460859052610140526114808281526114a08390526114c08390526114e08590526115008390526115208390526115408390526115608390526115808390526115a08390526115c08390526115e08590526116008290526116208290526116408290526116608290526116808590526116a08590526116c08590526116e0859052610160526117008281526117208390526117408390526117608590526117808590526117a08290526117c08290526117e08290526118008290526118208290526118408290526118608590526118808290526118a08290526118c08290526118e0829052611900829052611920829052611940829052611960859052610180526119808481526119a08290526119c08290526119e0859052611a00829052611a20829052611a40829052611a60829052611a80829052611aa0829052611ac0829052611ae0859052611b00829052611b20829052611b40829052611b60829052611b80829052611ba0829052611bc0829052611be08590526101a052611c00818152611c20829052611c40859052611c60859052611c80829052611ca0829052611cc0829052611ce0829052611d00829052611d20829052611d40859052611d60859052611d80829052611da0829052611dc0829052611de0829052611e00829052611e20829052611e40859052611e608590526101c052611e80828152611ea0839052611ec0839052611ee0829052611f00859052611f20829052611f40829052611f60829052611f80829052611fa0829052611fc0859052611fe08290526120008290526120208290526120408290526120608590526120808590526120a08590526120c08590526120e08590526101e0526121008281526121208390526121408390526121608390526121808590526121a08590526121c08290526121e08290526122008290526122208290526122408590526122608590526122808290526122a08290526122c08290526122e0859052612300859052612320859052612340859052612360859052610200526123808281526123a08390526123c08390526123e08390526124008390526124208590526124408290526124608290526124808290526124a08290526124c08590526124e08590526125008590526125208290526125408290526125608290526125808290526125a08590526125c08590526125e0859052610220526126008281526126208390526126408390526126608390526126808390526126a08290526126c08290526126e08290526127008390526127208390526127408290526127608290526127808590526127a08290526127c08290526127e0829052612800829052612820859052612840859052612860859052610240526128808181526128a08290526128c08290526128e08590526129008590526129208590526129408590526129608590526129808390526129a08390526129c08390526129e0839052612a00859052612a20859052612a40829052612a60829052612a80829052612aa0859052612ac0859052612ae085905261026052612b00818152612b20829052612b40829052612b60829052612b80829052612ba0829052612bc0859052612be0859052612c00839052612c20839052612c40839052612c60839052612c80859052612ca0859052612cc0859052612ce0859052612d00839052612d20839052612d40829052612d6082905261028052612d80818152612da0829052612dc0829052612de0829052612e00829052612e20829052612e40829052612e60859052612e80839052612ea0839052612ec0839052612ee0839052612f00859052612f20859052612f40859052612f60859052612f80839052612fa0839052612fc0829052612fe08290526102a0526130008181526130208290526130408290526130608290526130808290526130a08290526130c08290526130e08590526131008590526131208290526131408290526131608590526131808590526131a08290526131c08290526131e08590526132008390526132208390526132408290526132608290526102c0526135006040526132808181526132a08290526132c08290526132e08290526133008290526133208290526133408290526133608590526133808590526133a08590526133c08590526133e0859052613400859052613420859052613440949094526134608290526134808290526134a0919091526134c08190526134e0526102e091909152620009d290600090601462000a57565b50348015620009e057600080fd5b5060405162005c5f38038062005c5f83398101604081905262000a039162000b87565b601480546001600160a01b039586166001600160a01b031991821617909155601580549486169482169490941790935560218054928516928416929092179091556016805491909316911617905562000be4565b826014810192821562000a96579160200282015b8281111562000a9657825162000a85908390601462000aa8565b509160200191906001019062000a6b565b5062000aa492915062000b3e565b5090565b60018301918390821562000b305791602002820160005b8382111562000aff57835183826101000a81548160ff021916908360ff160217905550926020019260010160208160000104928301926001030262000abf565b801562000b2e5782816101000a81549060ff021916905560010160208160000104928301926001030262000aff565b505b5062000aa492915062000b54565b8082111562000aa4576000815560010162000b3e565b8082111562000aa4576000815560010162000b3e565b80516001600160a01b038116811462000b8257600080fd5b919050565b6000806000806080858703121562000b9e57600080fd5b62000ba98562000b6a565b935062000bb96020860162000b6a565b925062000bc96040860162000b6a565b915062000bd96060860162000b6a565b905092959194509250565b61506b8062000bf46000396000f3fe608060405234801561001057600080fd5b506004361061030a5760003560e01c806362c5813d1161019c578063b0d77774116100ee578063e4547fb411610097578063eaa1057611610071578063eaa10576146106fa578063f15ad2641461071a578063fd7c31a61461072d57600080fd5b8063e4547fb4146106e7578063e6192fca146106e7578063ea0e35b1146106f257600080fd5b8063c0ad21d8116100c8578063c0ad21d81461068a578063d14332011461069d578063d4ceeec0146106c357600080fd5b8063b0d7777414610651578063bc9955a214610664578063bfc22a821461067757600080fd5b80637b0c98ef116101505780639cec51941161012a5780639cec5194146106185780639d9957171461062b578063a609775b1461063e57600080fd5b80637b0c98ef146105dd57806398a8d0e7146105f05780639b21d6eb1461060357600080fd5b80636573c241116101815780636573c2411461058e578063731ae689146105a15780637ab9e7fe146105ad57600080fd5b806362c5813d14610582578063651916661461058257600080fd5b80632e4b51bd1161026057806340b76bbd116102095780635387a797116101e35780635387a7971461041c57806358612a20146105435780635c0068a21461056f57600080fd5b806340b76bbd146104fa57806344ad764d1461051d5780634f264b031461053057600080fd5b8063367805271161023a578063367805271461046f5780633942613c146104a25780633f9662bb146104e757600080fd5b80632e4b51bd1461034d5780632f57741c1461043c5780632fad04291461044f57600080fd5b8063154538ab116102c25780632a2026a91161029c5780632a2026a9146103f75780632c6d422f1461041c5780632dec2e631461042757600080fd5b8063154538ab146103a4578063196ab1ab146103d15780631cecb4fb146103e457600080fd5b80630cea9dc5116102f35780630cea9dc51461034d5780630d67f59e1461036657806313a5cede1461039157600080fd5b80630821de3e1461030f57806309e59cec14610324575b600080fd5b61032261031d3660046145ce565b610740565b005b61033761033236600461462f565b61099a565b60405161034491906146b2565b60405180910390f35b610358633b9aca0081565b604051908152602001610344565b601554610379906001600160a01b031681565b6040516001600160a01b039091168152602001610344565b61033761039f3660046146e1565b610a4f565b6103b76103b23660046146fe565b610ae9565b6040805160ff938416815292909116602083015201610344565b602154610379906001600160a01b031681565b6103226103f236600461462f565b610b81565b61040a61040536600461462f565b6112c3565b60405160ff9091168152602001610344565b6103586335a4e90081565b61042f611370565b6040516103449190614719565b61032261044a366004614785565b61153d565b61046261045d3660046146fe565b61155c565b604051610344919061481b565b61049261047d36600461482e565b60176020526000908152604090205460ff1681565b6040519015158152602001610344565b6104ce6104b0366004614847565b601b6020526000908152604090205460ff8082169161010090041682565b6040805160ff9093168352901515602083015201610344565b6104926104f5366004614785565b611675565b61040a610508366004614847565b601d6020526000908152604090205460ff1681565b61032261052b36600461462f565b6116d2565b601454610379906001600160a01b031681565b61040a61055136600461462f565b60208080526000928352604080842090915290825290205460ff1681565b61032261057d36600461486b565b611830565b6103586402540be40081565b61032261059c3660046148b6565b611dc7565b61035864174876e80081565b61040a6105bb36600461462f565b60ff918216600090815260208080526040808320938516835292905220541690565b6103376105eb36600461462f565b612222565b6103226105fe3660046145ce565b612246565b61060b61296c565b60405161034491906148f9565b61033761062636600461462f565b612ba1565b61040a6106393660046146fe565b612cf1565b61032261064c36600461462f565b612d81565b601654610379906001600160a01b031681565b61040a610672366004614979565b613108565b61042f6106853660046146fe565b613144565b61032261069836600461499b565b61326e565b6106b06106ab366004614a00565b613774565b60405161ffff9091168152602001610344565b6106d66106d13660046146fe565b6137bb565b604051610344959493929190614a2a565b6103586305f5e10081565b61040a601e81565b6103586107083660046146fe565b60226020526000908152604090205481565b6103376107283660046146e1565b61387e565b61032261073b36600461499b565b61392a565b806107925760405162461bcd60e51b815260206004820152601460248201527f4e616d652063616e6e6f7420626520656d70747900000000000000000000000060448201526064015b60405180910390fd5b601454604051638a88895360e01b815260ff80871660048301528516602482015233916001600160a01b031690638a88895390604401602060405180830381865afa1580156107e5573d6000803e3d6000fd5b505050506040513d601f19601f820116820180604052508101906108099190614a77565b6001600160a01b0316146108855760405162461bcd60e51b815260206004820152602260248201527f596f7520617265206e6f7420746865206f776e6572206f66207468697320746960448201527f6c650000000000000000000000000000000000000000000000000000000000006064820152608401610789565b6015546040517f23b872dd0000000000000000000000000000000000000000000000000000000081523360048201523060248201526402540be40060448201526001600160a01b03909116906323b872dd906064016020604051808303816000875af11580156108f9573d6000803e3d6000fd5b505050506040513d601f19601f8201168201806040525081019061091d9190614a94565b6109695760405162461bcd60e51b815260206004820152601460248201527f546f6b656e207061796d656e74206661696c65640000000000000000000000006044820152606401610789565b60ff8085166000908152601e60209081526040808320938716835292905220610993828483614b86565b5050505050565b60ff8083166000908152601e602090815260408083209385168352929052208054606091906109c890614ae5565b80601f01602080910402602001604051908101604052809291908181526020018280546109f490614ae5565b8015610a415780601f10610a1657610100808354040283529160200191610a41565b820191906000526020600020905b815481529060010190602001808311610a2457829003601f168201915b505050505090505b92915050565b601f6020526000908152604090208054610a6890614ae5565b80601f0160208091040260200160405190810160405280929190818152602001828054610a9490614ae5565b8015610ae15780601f10610ab657610100808354040283529160200191610ae1565b820191906000526020600020905b815481529060010190602001808311610ac457829003601f168201915b505050505081565b60ff8082166000908152601a6020526040812060010154909182916301000000900416610b585760405162461bcd60e51b815260206004820152601360248201527f436c616e20646f6573206e6f74206578697374000000000000000000000000006044820152606401610789565b505060ff9081166000908152601a60205260409020600101548082169261010090910490911690565b601454604051638a88895360e01b815260ff8085166004830152831660248201528391839133916001600160a01b031690638a88895390604401602060405180830381865afa158015610bd8573d6000803e3d6000fd5b505050506040513d601f19601f82011682018060405250810190610bfc9190614a77565b6001600160a01b031614610c525760405162461bcd60e51b815260206004820152601860248201527f596f7520646f206e6f74206f776e20746869732074696c6500000000000000006044820152606401610789565b60ff838116600886901b61ff0016176000818152601b6020526040902054909161010090910416610cc55760405162461bcd60e51b815260206004820152601260248201527f54696c65206e6f7420696e206120636c616e00000000000000000000000000006044820152606401610789565b61ffff81166000908152601b602090815260408083205460ff908116808552601a9093529220600101549091630100000090910416610d465760405162461bcd60e51b815260206004820152601360248201527f436c616e20646f6573206e6f74206578697374000000000000000000000000006044820152606401610789565b60ff8181166000908152601a60205260409020600101548116908716148015610d8d575060ff8181166000908152601a602052604090206001015461010090048116908616145b15610dda5760405162461bcd60e51b815260206004820152601860248201527f4c65616465722074696c652063616e6e6f74206c6561766500000000000000006044820152606401610789565b6015546040517f23b872dd000000000000000000000000000000000000000000000000000000008152336004820152306024820152633b9aca0060448201526001600160a01b03909116906323b872dd906064016020604051808303816000875af1158015610e4d573d6000803e3d6000fd5b505050506040513d601f19601f82011682018060405250810190610e719190614a94565b610ebd5760405162461bcd60e51b815260206004820152601360248201527f4c4f50207472616e73666572206661696c6564000000000000000000000000006044820152606401610789565b61ffff82166000908152601b60209081526040808320805461ff001916905560ff898116845282805281842089821685528352818420805460ff191690558481168452601a9092529091206001018054620100009004909116906002610f2283614c75565b82546101009290920a60ff81810219909316918316021790915582166000908152601c6020526040812091505b815481101561106e578361ffff16828281548110610f6f57610f6f614c92565b60009182526020909120601082040154600f9091166002026101000a900461ffff160361105c5781548290610fa690600190614cc1565b81548110610fb657610fb6614c92565b90600052602060002090601091828204019190066002029054906101000a900461ffff16828281548110610fec57610fec614c92565b90600052602060002090601091828204019190066002026101000a81548161ffff021916908361ffff1602179055508180548061102b5761102b614cd4565b600082815260209020601060001990920191820401805461ffff6002600f8516026101000a0219169055905561106e565b8061106681614d03565b915050610f4f565b5060145460ff8381166000908152601a6020526040808220600101549051638a88895360e01b815281841660048201526101009091049092166024830152916001600160a01b031690638a88895390604401602060405180830381865afa1580156110dd573d6000803e3d6000fd5b505050506040513d601f19601f820116820180604052508101906111019190614a77565b6015546040517fa9059cbb0000000000000000000000000000000000000000000000000000000081526001600160a01b0380841660048301526335a4e900602483015292935091169063a9059cbb906044016020604051808303816000875af1158015611172573d6000803e3d6000fd5b505050506040513d601f19601f820116820180604052508101906111969190614a94565b6111e25760405162461bcd60e51b815260206004820152601460248201527f4c6561646572207061796f7574206661696c65640000000000000000000000006044820152606401610789565b6015546040517f42966c680000000000000000000000000000000000000000000000000000000081526305f5e10060048201526001600160a01b03909116906342966c68906024016020604051808303816000875af1158015611249573d6000803e3d6000fd5b505050506040513d601f19601f8201168201806040525081019061126d9190614a94565b6112b95760405162461bcd60e51b815260206004820152600b60248201527f4275726e206661696c65640000000000000000000000000000000000000000006044820152606401610789565b5050505050505050565b600060148360ff161080156112db575060148260ff16105b6113275760405162461bcd60e51b815260206004820152601360248201527f496e76616c696420636f6f7264696e61746573000000000000000000000000006044820152606401610789565b60008360ff166014811061133d5761133d614c92565b018260ff166014811061135257611352614c92565b602081049091015460ff601f9092166101000a900416905092915050565b60606000805b60148160ff1610156113e95760005b60148160ff1610156113d65760ff808316600090815260208080526040808320858516845290915290205416156113c457826113c081614d03565b9350505b806113ce81614d1d565b915050611385565b50806113e181614d1d565b915050611376565b5060008167ffffffffffffffff81111561140557611405614ab6565b60405190808252806020026020018201604052801561145757816020015b6040805160808101825260008082526020808301829052928201819052606082015282526000199092019101816114235790505b5090506000805b60148160ff1610156115345760005b60148160ff1610156115215760ff808316600090815260208080526040808320858516845290915290205416801561150e5760405180608001604052808460ff1681526020018360ff1681526020018260ff168152602001602260008460ff1660ff168152602001908152602001600020548152508585815181106114f4576114f4614c92565b6020026020010181905250838061150a90614d03565b9450505b508061151981614d1d565b91505061146d565b508061152c81614d1d565b91505061145e565b50909392505050565b336000908152601f60205260409020611557828483614b86565b505050565b6040805160a08101825260608082526000602083018190529282018390528101829052608081019190915260ff82166000908152601a602052604090819020815160a081019092528054829082906115b390614ae5565b80601f01602080910402602001604051908101604052809291908181526020018280546115df90614ae5565b801561162c5780601f106116015761010080835404028352916020019161162c565b820191906000526020600020905b81548152906001019060200180831161160f57829003601f168201915b50505091835250506001919091015460ff808216602084015261010082048116604084015262010000820481166060840152630100000090910416151560809091015292915050565b6000806116b784848080601f0160208091040260200160405190810160405280939291908181526020018383808284376000920191909152506141d592505050565b60009081526017602052604090205460ff1615949350505050565b601454604051638a88895360e01b815260ff8085166004830152831660248201528391839133916001600160a01b031690638a88895390604401602060405180830381865afa158015611729573d6000803e3d6000fd5b505050506040513d601f19601f8201168201806040525081019061174d9190614a77565b6001600160a01b0316146117a35760405162461bcd60e51b815260206004820152601860248201527f596f7520646f206e6f74206f776e20746869732074696c6500000000000000006044820152606401610789565b60ff838116600886901b61ff0016176000818152601d60205260409020549091166118105760405162461bcd60e51b815260206004820152601f60248201527f4e6f2070656e64696e6720696e7669746520666f7220746869732074696c65006044820152606401610789565b61ffff166000908152601d60205260409020805460ff1916905550505050565b60ff8085166000908152601a60205260409020600101548591859185916301000000909104166118a25760405162461bcd60e51b815260206004820152601360248201527f436c616e20646f6573206e6f74206578697374000000000000000000000000006044820152606401610789565b60ff8381166000908152601a602052604090206001015481169083161480156118e9575060ff8381166000908152601a602052604090206001015461010090048116908216145b6119355760405162461bcd60e51b815260206004820152600f60248201527f4e6f74206c65616465722074696c6500000000000000000000000000000000006044820152606401610789565b601454604051638a88895360e01b815260ff80851660048301528316602482015233916001600160a01b031690638a88895390604401602060405180830381865afa158015611988573d6000803e3d6000fd5b505050506040513d601f19601f820116820180604052508101906119ac9190614a77565b6001600160a01b031614611a025760405162461bcd60e51b815260206004820152601d60248201527f596f7520646f6e2774206f776e20746865206c65616465722074696c650000006044820152606401610789565b6021546040517f6352211e0000000000000000000000000000000000000000000000000000000081526004810186905233916001600160a01b031690636352211e90602401602060405180830381865afa158015611a64573d6000803e3d6000fd5b505050506040513d601f19601f82011682018060405250810190611a889190614a77565b6001600160a01b031614611ade5760405162461bcd60e51b815260206004820152601660248201527f596f7520646f6e2774206f776e2074686973204e4654000000000000000000006044820152606401610789565b6021546040517f0ad4c4f4000000000000000000000000000000000000000000000000000000008152600481018690526000916001600160a01b031690630ad4c4f490602401600060405180830381865afa158015611b41573d6000803e3d6000fd5b505050506040513d6000823e601f3d908101601f19168201604052611b699190810190614dc4565b50995050505050505050505080600114611beb5760405162461bcd60e51b815260206004820152603360248201527f4f6e6c79204e4654732066726f6d20636f6c6c656374696f6e2049442031206360448201527f616e206265207573656420617320666c616773000000000000000000000000006064820152608401610789565b6016546040517f1acc55ea00000000000000000000000000000000000000000000000000000000815260ff808a166004830152881660248201526001600160a01b0390911690631acc55ea90604401602060405180830381865afa158015611c57573d6000803e3d6000fd5b505050506040513d601f19601f82011682018060405250810190611c7b9190614a94565b611cc75760405162461bcd60e51b815260206004820152601960248201527f596f75206d7573742068617665206120436c616e2048616c6c000000000000006044820152606401610789565b6015546040517f23b872dd0000000000000000000000000000000000000000000000000000000081523360048201523060248201526402540be40060448201526001600160a01b03909116906323b872dd906064016020604051808303816000875af1158015611d3b573d6000803e3d6000fd5b505050506040513d601f19601f82011682018060405250810190611d5f9190614a94565b611dab5760405162461bcd60e51b815260206004820152601360248201527f4c4f50207472616e73666572206661696c6564000000000000000000000000006044820152606401610789565b50505060ff909416600090815260226020526040902055505050565b60ff8084166000908152601a6020526040902060010154849184918491630100000090910416611e395760405162461bcd60e51b815260206004820152601360248201527f436c616e20646f6573206e6f74206578697374000000000000000000000000006044820152606401610789565b60ff8381166000908152601a60205260409020600101548116908316148015611e80575060ff8381166000908152601a602052604090206001015461010090048116908216145b611ecc5760405162461bcd60e51b815260206004820152600f60248201527f4e6f74206c65616465722074696c6500000000000000000000000000000000006044820152606401610789565b601454604051638a88895360e01b815260ff80851660048301528316602482015233916001600160a01b031690638a88895390604401602060405180830381865afa158015611f1f573d6000803e3d6000fd5b505050506040513d601f19601f82011682018060405250810190611f439190614a77565b6001600160a01b031614611f995760405162461bcd60e51b815260206004820152601d60248201527f596f7520646f6e2774206f776e20746865206c65616465722074696c650000006044820152606401610789565b6016546040517f1acc55ea00000000000000000000000000000000000000000000000000000000815260ff8088166004830152861660248201526001600160a01b0390911690631acc55ea90604401602060405180830381865afa158015612005573d6000803e3d6000fd5b505050506040513d601f19601f820116820180604052508101906120299190614a94565b6120755760405162461bcd60e51b815260206004820152601960248201527f596f75206d7573742068617665206120436c616e2048616c6c000000000000006044820152606401610789565b60ff86166000908152601c60205260408120905b8154811015612174576000806120dd8484815481106120aa576120aa614c92565b90600052602060002090601091828204019190066002029054906101000a900461ffff1660ff600882901c811692911690565b915091506000601b60008686815481106120f9576120f9614c92565b60009182526020808320601083040154600f90921660020261010090810a90920461ffff1684528381019490945260409283018220805461ff0019169515159091029490941790935560ff94851683528180528083209390941682529190915220805460ff191690558061216c81614d03565b915050612089565b5060ff87166000908152601c60205260408120612190916144f8565b60ff871660009081526018602052604090205480156121d1576000818152601760209081526040808320805460ff1916905560ff8b16835260189091528120555b60ff88166000908152601a60205260408120906121ee8282614520565b5060010180547fffffffffffffffffffffffffffffffffffffffffffffffffffffffff000000001690555050505050505050565b601e60209081526000928352604080842090915290825290208054610a6890614ae5565b601454604051638a88895360e01b815260ff8087166004830152851660248201528591859133916001600160a01b031690638a88895390604401602060405180830381865afa15801561229d573d6000803e3d6000fd5b505050506040513d601f19601f820116820180604052508101906122c19190614a77565b6001600160a01b0316146123175760405162461bcd60e51b815260206004820152601860248201527f596f7520646f206e6f74206f776e20746869732074696c6500000000000000006044820152606401610789565b826123645760405162461bcd60e51b815260206004820152601960248201527f436c616e206e616d652063616e6e6f7420626520656d707479000000000000006044820152606401610789565b60ff808716600090815260208080526040808320898516845290915290205416156123d15760405162461bcd60e51b815260206004820152601660248201527f54696c6520616c726561647920696e206120636c616e000000000000000000006044820152606401610789565b600061241285858080601f0160208091040260200160405190810160405280939291908181526020018383808284376000920191909152506141d592505050565b60008181526017602052604090205490915060ff16156124745760405162461bcd60e51b815260206004820152601760248201527f436c616e206e616d6520616c72656164792074616b656e0000000000000000006044820152606401610789565b6016546040517f1acc55ea00000000000000000000000000000000000000000000000000000000815260ff808a166004830152881660248201526001600160a01b0390911690631acc55ea90604401602060405180830381865afa1580156124e0573d6000803e3d6000fd5b505050506040513d601f19601f820116820180604052508101906125049190614a94565b6125505760405162461bcd60e51b815260206004820152601960248201527f596f75206d7573742068617665206120436c616e2048616c6c000000000000006044820152606401610789565b6015546040517f23b872dd00000000000000000000000000000000000000000000000000000000815233600482015230602482015264174876e80060448201526001600160a01b03909116906323b872dd906064016020604051808303816000875af11580156125c4573d6000803e3d6000fd5b505050506040513d601f19601f820116820180604052508101906125e89190614a94565b6126345760405162461bcd60e51b815260206004820152601360248201527f4c4f50207472616e73666572206661696c6564000000000000000000000000006044820152606401610789565b6019805460ff1690600061264783614d1d565b91906101000a81548160ff021916908360ff160217905550506040518060a0016040528086868080601f016020809104026020016040519081016040528093929190818152602001838380828437600092018290525093855250505060ff808b166020808501919091528a82166040808601919091526001606086018190526080909501949094526019549091168252601a905220815181906126ea9082614f16565b506020820151600190910180546040840151606085015160809095015115156301000000027fffffffffffffffffffffffffffffffffffffffffffffffffffffffff00ffffff60ff9687166201000002167fffffffffffffffffffffffffffffffffffffffffffffffffffffffff0000ffff928716610100027fffffffffffffffffffffffffffffffffffffffffffffffffffffffffffff0000909416969095169590951791909117169190911791909117905560006127b6888860ff1660089190911b61ff00161790565b9050601960009054906101000a900460ff16602060008a60ff1660ff16815260200190815260200160002060008960ff1660ff16815260200190815260200160002060006101000a81548160ff021916908360ff1602179055506040518060400160405280601960009054906101000a900460ff1660ff16815260200160011515815250601b60008361ffff1661ffff16815260200190815260200160002060008201518160000160006101000a81548160ff021916908360ff16021790555060208201518160000160016101000a81548160ff021916908315150217905550905050601c6000601960009054906101000a900460ff1660ff1660ff1681526020019081526020016000208190806001815401808255809150506001900390600052602060002090601091828204019190066002029091909190916101000a81548161ffff021916908361ffff16021790555060016017600084815260200190815260200160002060006101000a81548160ff0219169083151502179055508160186000601960009054906101000a900460ff1660ff1660ff168152602001908152602001600020819055505050505050505050565b6060600060015b60195460ff908116908216116129c75760ff8082166000908152601a60205260409020600101546301000000900416156129b557816129b181614d03565b9250505b806129bf81614d1d565b915050612973565b5060008167ffffffffffffffff8111156129e3576129e3614ab6565b604051908082528060200260200182016040528015612a3d57816020015b6040805160a08101825260608082526000602080840182905293830181905290820181905260808201528252600019909201910181612a015790505b509050600060015b60195460ff908116908216116115345760ff8082166000908152601a6020526040902060010154630100000090041615612b8f5760ff81166000908152601a602052604090819020815160a08101909252805482908290612aa590614ae5565b80601f0160208091040260200160405190810160405280929190818152602001828054612ad190614ae5565b8015612b1e5780601f10612af357610100808354040283529160200191612b1e565b820191906000526020600020905b815481529060010190602001808311612b0157829003601f168201915b50505091835250506001919091015460ff80821660208401526101008204811660408401526201000082048116606084015263010000009091041615156080909101528351849084908110612b7557612b75614c92565b60200260200101819052508180612b8b90614d03565b9250505b80612b9981614d1d565b915050612a45565b60ff80831660009081526020808052604080832085851684529091528120546060921690819003612be2575050604080516020810190915260008152610a49565b60ff8082166000908152601a60205260409020600101546301000000900416612c4d5760405162461bcd60e51b815260206004820152601360248201527f436c616e20646f6573206e6f74206578697374000000000000000000000000006044820152606401610789565b60ff81166000908152601a602052604090208054612c6a90614ae5565b80601f0160208091040260200160405190810160405280929190818152602001828054612c9690614ae5565b8015612ce35780601f10612cb857610100808354040283529160200191612ce3565b820191906000526020600020905b815481529060010190602001808311612cc657829003601f168201915b505050505091505092915050565b60ff8082166000908152601a60205260408120600101549091630100000090910416612d5f5760405162461bcd60e51b815260206004820152601360248201527f436c616e20646f6573206e6f74206578697374000000000000000000000000006044820152606401610789565b5060ff9081166000908152601a60205260409020600101546201000090041690565b601454604051638a88895360e01b815260ff8085166004830152831660248201528391839133916001600160a01b031690638a88895390604401602060405180830381865afa158015612dd8573d6000803e3d6000fd5b505050506040513d601f19601f82011682018060405250810190612dfc9190614a77565b6001600160a01b031614612e525760405162461bcd60e51b815260206004820152601860248201527f596f7520646f206e6f74206f776e20746869732074696c6500000000000000006044820152606401610789565b60ff838116600886901b61ff0016176000818152601d602052604090205490911680612ec05760405162461bcd60e51b815260206004820152601f60248201527f4e6f2070656e64696e6720696e7669746520666f7220746869732074696c65006044820152606401610789565b60ff8082166000908152601a60205260409020600101546301000000900416612f2b5760405162461bcd60e51b815260206004820152601360248201527f436c616e20646f6573206e6f74206578697374000000000000000000000000006044820152606401610789565b60ff80871660009081526020808052604080832089851684529091529020541615612f985760405162461bcd60e51b815260206004820152601660248201527f54696c6520616c726561647920696e206120636c616e000000000000000000006044820152606401610789565b60ff8181166000908152601a6020526040902060010154601e6201000090910490911610612fe0575061ffff166000908152601d60205260409020805460ff19169055613102565b60ff86811660009081526020808052604080832089851684528252808320805460ff191686861690811790915581518083018352818152600181850181815261ffff8a8116808952601b8852868920945185549351908b167fffffffffffffffffffffffffffffffffffffffffffffffffffffffffffff000090941693909317610100931515840217909455848852601c87528588208054808501825590895287892060108204018054600f909216600290810290940a928302199091169190940217909255918552601a9093529220909101805462010000900490921691906130c983614d1d565b825460ff9182166101009390930a9283029190920219909116179055505061ffff166000908152601d60205260409020805460ff191690555b50505050565b6000826014811061311857600080fd5b01816014811061312757600080fd5b602081049091015460ff601f9092166101000a9004169150829050565b60ff81166000908152601c6020526040812080546060929067ffffffffffffffff81111561317457613174614ab6565b6040519080825280602002602001820160405280156131c657816020015b6040805160808101825260008082526020808301829052928201819052606082015282526000199092019101816131925790505b50905060005b8254811015613266576000806131ed8584815481106120aa576120aa614c92565b9150915060405180608001604052808360ff1681526020018260ff1681526020018860ff168152602001602260008a60ff1660ff1681526020019081526020016000205481525084848151811061324657613246614c92565b60200260200101819052505050808061325e90614d03565b9150506131cc565b509392505050565b60ff8086166000908152601a60205260409020600101548691869186916301000000909104166132e05760405162461bcd60e51b815260206004820152601360248201527f436c616e20646f6573206e6f74206578697374000000000000000000000000006044820152606401610789565b60ff8381166000908152601a60205260409020600101548116908316148015613327575060ff8381166000908152601a602052604090206001015461010090048116908216145b6133735760405162461bcd60e51b815260206004820152600f60248201527f4e6f74206c65616465722074696c6500000000000000000000000000000000006044820152606401610789565b601454604051638a88895360e01b815260ff80851660048301528316602482015233916001600160a01b031690638a88895390604401602060405180830381865afa1580156133c6573d6000803e3d6000fd5b505050506040513d601f19601f820116820180604052508101906133ea9190614a77565b6001600160a01b0316146134405760405162461bcd60e51b815260206004820152601d60248201527f596f7520646f6e2774206f776e20746865206c65616465722074696c650000006044820152606401610789565b60ff8089166000908152601a602052604090206001015463010000009004166134ab5760405162461bcd60e51b815260206004820152601360248201527f436c616e20646f6573206e6f74206578697374000000000000000000000000006044820152606401610789565b60ff8881166000908152601a6020526040902060010154601e620100009091049091161061351b5760405162461bcd60e51b815260206004820152600c60248201527f436c616e2069732066756c6c00000000000000000000000000000000000000006044820152606401610789565b6016546040517f1acc55ea00000000000000000000000000000000000000000000000000000000815260ff808a166004830152881660248201526001600160a01b0390911690631acc55ea90604401602060405180830381865afa158015613587573d6000803e3d6000fd5b505050506040513d601f19601f820116820180604052508101906135ab9190614a94565b6135f75760405162461bcd60e51b815260206004820152601960248201527f596f75206d7573742068617665206120436c616e2048616c6c000000000000006044820152606401610789565b601454604051638a88895360e01b815260ff8088166004830152861660248201526000916001600160a01b031690638a88895390604401602060405180830381865afa15801561364b573d6000803e3d6000fd5b505050506040513d601f19601f8201168201806040525081019061366f9190614a77565b90506001600160a01b0381166136c75760405162461bcd60e51b815260206004820152601360248201527f5461726765742074696c6520756e6f776e6564000000000000000000000000006044820152606401610789565b60ff808716600090815260208080526040808320898516845290915290205416156137345760405162461bcd60e51b815260206004820152601d60248201527f5461726765742074696c6520616c726561647920696e206120636c616e0000006044820152606401610789565b600061ff00600888901b1660ff87161761ffff166000908152601d60205260409020805460ff191660ff9b909b169a909a17909955505050505050505050565b601c602052816000526040600020818154811061379057600080fd5b9060005260206000209060109182820401919006600202915091509054906101000a900461ffff1681565b601a602052600090815260409020805481906137d690614ae5565b80601f016020809104026020016040519081016040528092919081815260200182805461380290614ae5565b801561384f5780601f106138245761010080835404028352916020019161384f565b820191906000526020600020905b81548152906001019060200180831161383257829003601f168201915b5050506001909301549192505060ff808216916101008104821691620100008204811691630100000090041685565b6001600160a01b0381166000908152601f602052604090208054606091906138a590614ae5565b80601f01602080910402602001604051908101604052809291908181526020018280546138d190614ae5565b801561391e5780601f106138f35761010080835404028352916020019161391e565b820191906000526020600020905b81548152906001019060200180831161390157829003601f168201915b50505050509050919050565b60ff8086166000908152601a602052604090206001015486918691869163010000009091041661399c5760405162461bcd60e51b815260206004820152601360248201527f436c616e20646f6573206e6f74206578697374000000000000000000000000006044820152606401610789565b60ff8381166000908152601a602052604090206001015481169083161480156139e3575060ff8381166000908152601a602052604090206001015461010090048116908216145b613a2f5760405162461bcd60e51b815260206004820152600f60248201527f4e6f74206c65616465722074696c6500000000000000000000000000000000006044820152606401610789565b601454604051638a88895360e01b815260ff80851660048301528316602482015233916001600160a01b031690638a88895390604401602060405180830381865afa158015613a82573d6000803e3d6000fd5b505050506040513d601f19601f82011682018060405250810190613aa69190614a77565b6001600160a01b031614613afc5760405162461bcd60e51b815260206004820152601d60248201527f596f7520646f6e2774206f776e20746865206c65616465722074696c650000006044820152606401610789565b6016546040517f1acc55ea00000000000000000000000000000000000000000000000000000000815260ff808a166004830152881660248201526001600160a01b0390911690631acc55ea90604401602060405180830381865afa158015613b68573d6000803e3d6000fd5b505050506040513d601f19601f82011682018060405250810190613b8c9190614a94565b613bd85760405162461bcd60e51b815260206004820152601960248201527f596f75206d7573742068617665206120436c616e2048616c6c000000000000006044820152606401610789565b60ff8881166000908152601a60205260409020600101548116908616148015613c1f575060ff8881166000908152601a602052604090206001015461010090048116908516145b15613c6c5760405162461bcd60e51b815260206004820152601960248201527f43616e6e6f742072656d6f7665206c65616465722074696c65000000000000006044820152606401610789565b60ff848116600887901b61ff0016176000818152601b60205260409020549091610100909104168015613cb7575061ffff81166000908152601b602052604090205460ff8a81169116145b613d035760405162461bcd60e51b815260206004820152601560248201527f54696c65206e6f7420696e207468697320636c616e00000000000000000000006044820152606401610789565b6015546040517f23b872dd000000000000000000000000000000000000000000000000000000008152336004820152306024820152633b9aca0060448201526001600160a01b03909116906323b872dd906064016020604051808303816000875af1158015613d76573d6000803e3d6000fd5b505050506040513d601f19601f82011682018060405250810190613d9a9190614a94565b613de65760405162461bcd60e51b815260206004820152601360248201527f4c4f50207472616e73666572206661696c6564000000000000000000000000006044820152606401610789565b61ffff81166000908152601b60209081526040808320805461ff001916905560ff898116845282805281842089821685528352818420805460ff191690558c81168452601a9092529091206001018054620100009004909116906002613e4b83614c75565b82546101009290920a60ff8181021990931691831602179091558a166000908152601c6020526040812091505b8154811015613f97578261ffff16828281548110613e9857613e98614c92565b60009182526020909120601082040154600f9091166002026101000a900461ffff1603613f855781548290613ecf90600190614cc1565b81548110613edf57613edf614c92565b90600052602060002090601091828204019190066002029054906101000a900461ffff16828281548110613f1557613f15614c92565b90600052602060002090601091828204019190066002026101000a81548161ffff021916908361ffff16021790555081805480613f5457613f54614cd4565b600082815260209020601060001990920191820401805461ffff6002600f8516026101000a02191690559055613f97565b80613f8f81614d03565b915050613e78565b50601454604051638a88895360e01b815260ff808a166004830152881660248201526000916001600160a01b031690638a88895390604401602060405180830381865afa158015613fec573d6000803e3d6000fd5b505050506040513d601f19601f820116820180604052508101906140109190614a77565b6015546040517fa9059cbb0000000000000000000000000000000000000000000000000000000081526001600160a01b0380841660048301526335a4e900602483015292935091169063a9059cbb906044016020604051808303816000875af1158015614081573d6000803e3d6000fd5b505050506040513d601f19601f820116820180604052508101906140a59190614a94565b6140f15760405162461bcd60e51b815260206004820152601660248201527f5061796f7574207472616e73666572206661696c6564000000000000000000006044820152606401610789565b6015546040517f42966c680000000000000000000000000000000000000000000000000000000081526305f5e10060048201526001600160a01b03909116906342966c68906024016020604051808303816000875af1158015614158573d6000803e3d6000fd5b505050506040513d601f19601f8201168201806040525081019061417c9190614a94565b6141c85760405162461bcd60e51b815260206004820152600b60248201527f4275726e206661696c65640000000000000000000000000000000000000000006044820152606401610789565b5050505050505050505050565b60006141e86141e383614215565b614447565b6040516020016141f89190614fd6565b604051602081830303815290604052805190602001209050919050565b8051606090829060000361422a575090919050565b60005b815181108015614295575081818151811061424a5761424a614c92565b6020910101517fff00000000000000000000000000000000000000000000000000000000000000167f2000000000000000000000000000000000000000000000000000000000000000145b156142ac57806142a481614d03565b91505061422d565b815181036142cb57505060408051602081019091526000815292915050565b6000600183516142db9190614cc1565b90505b818111801561434557508281815181106142fa576142fa614c92565b6020910101517fff00000000000000000000000000000000000000000000000000000000000000167f2000000000000000000000000000000000000000000000000000000000000000145b1561435c578061435481614ff2565b9150506142de565b60006143688383614cc1565b614373906001615009565b67ffffffffffffffff81111561438b5761438b614ab6565b6040519080825280601f01601f1916602001820160405280156143b5576020820181803683370190505b50905060005b815181101561443d57846143cf8286615009565b815181106143df576143df614c92565b602001015160f81c60f81b8282815181106143fc576143fc614c92565b60200101907effffffffffffffffffffffffffffffffffffffffffffffffffffffffffffff1916908160001a9053508061443581614d03565b9150506143bb565b5095945050505050565b60608160005b81518110156144f157600082828151811061446a5761446a614c92565b016020015160f81c9050604181108015906144895750605a8160ff1611155b156144de5761449981602061501c565b60f81b8383815181106144ae576144ae614c92565b60200101907effffffffffffffffffffffffffffffffffffffffffffffffffffffffffffff1916908160001a9053505b50806144e981614d03565b91505061444d565b5092915050565b50805460008255600f01601090049060005260206000209081019061451d9190614556565b50565b50805461452c90614ae5565b6000825580601f1061453c575050565b601f01602090049060005260206000209081019061451d91905b5b8082111561456b5760008155600101614557565b5090565b803560ff8116811461458057600080fd5b919050565b60008083601f84011261459757600080fd5b50813567ffffffffffffffff8111156145af57600080fd5b6020830191508360208285010111156145c757600080fd5b9250929050565b600080600080606085870312156145e457600080fd5b6145ed8561456f565b93506145fb6020860161456f565b9250604085013567ffffffffffffffff81111561461757600080fd5b61462387828801614585565b95989497509550505050565b6000806040838503121561464257600080fd5b61464b8361456f565b91506146596020840161456f565b90509250929050565b60005b8381101561467d578181015183820152602001614665565b50506000910152565b6000815180845261469e816020860160208601614662565b601f01601f19169290920160200192915050565b6020815260006146c56020830184614686565b9392505050565b6001600160a01b038116811461451d57600080fd5b6000602082840312156146f357600080fd5b81356146c5816146cc565b60006020828403121561471057600080fd5b6146c58261456f565b602080825282518282018190526000919060409081850190868401855b82811015614778578151805160ff9081168652878201518116888701528682015116868601526060908101519085015260809093019290850190600101614736565b5091979650505050505050565b6000806020838503121561479857600080fd5b823567ffffffffffffffff8111156147af57600080fd5b6147bb85828601614585565b90969095509350505050565b6000815160a084526147dc60a0850182614686565b905060ff602084015116602085015260ff604084015116604085015260ff60608401511660608501526080830151151560808501528091505092915050565b6020815260006146c560208301846147c7565b60006020828403121561484057600080fd5b5035919050565b60006020828403121561485957600080fd5b813561ffff811681146146c557600080fd5b6000806000806080858703121561488157600080fd5b61488a8561456f565b93506148986020860161456f565b92506148a66040860161456f565b9396929550929360600135925050565b6000806000606084860312156148cb57600080fd5b6148d48461456f565b92506148e26020850161456f565b91506148f06040850161456f565b90509250925092565b6000602080830181845280855180835260408601915060408160051b870101925083870160005b8281101561496c577fffffffffffffffffffffffffffffffffffffffffffffffffffffffffffffffc088860301845261495a8583516147c7565b94509285019290850190600101614920565b5092979650505050505050565b6000806040838503121561498c57600080fd5b50508035926020909101359150565b600080600080600060a086880312156149b357600080fd5b6149bc8661456f565b94506149ca6020870161456f565b93506149d86040870161456f565b92506149e66060870161456f565b91506149f46080870161456f565b90509295509295909350565b60008060408385031215614a1357600080fd5b614a1c8361456f565b946020939093013593505050565b60a081526000614a3d60a0830188614686565b905060ff8616602083015260ff8516604083015260ff8416606083015282151560808301529695505050505050565b8051614580816146cc565b600060208284031215614a8957600080fd5b81516146c5816146cc565b600060208284031215614aa657600080fd5b815180151581146146c557600080fd5b7f4e487b7100000000000000000000000000000000000000000000000000000000600052604160045260246000fd5b600181811c90821680614af957607f821691505b602082108103614b32577f4e487b7100000000000000000000000000000000000000000000000000000000600052602260045260246000fd5b50919050565b601f82111561155757600081815260208120601f850160051c81016020861015614b5f5750805b601f850160051c820191505b81811015614b7e57828155600101614b6b565b505050505050565b67ffffffffffffffff831115614b9e57614b9e614ab6565b614bb283614bac8354614ae5565b83614b38565b6000601f841160018114614be65760008515614bce5750838201355b600019600387901b1c1916600186901b178355610993565b600083815260209020601f19861690835b82811015614c175786850135825560209485019460019092019101614bf7565b5086821015614c345760001960f88860031b161c19848701351681555b505060018560011b0183555050505050565b7f4e487b7100000000000000000000000000000000000000000000000000000000600052601160045260246000fd5b600060ff821680614c8857614c88614c46565b6000190192915050565b7f4e487b7100000000000000000000000000000000000000000000000000000000600052603260045260246000fd5b81810381811115610a4957610a49614c46565b7f4e487b7100000000000000000000000000000000000000000000000000000000600052603160045260246000fd5b60006000198203614d1657614d16614c46565b5060010190565b600060ff821660ff8103614d3357614d33614c46565b60010192915050565b600082601f830112614d4d57600080fd5b815167ffffffffffffffff80821115614d6857614d68614ab6565b604051601f8301601f19908116603f01168101908282118183101715614d9057614d90614ab6565b81604052838152866020858801011115614da957600080fd5b614dba846020830160208901614662565b9695505050505050565b60008060008060008060008060008060006101608c8e031215614de657600080fd5b8b5167ffffffffffffffff811115614dfd57600080fd5b614e098e828f01614d3c565b9b505060208c015167ffffffffffffffff811115614e2657600080fd5b614e328e828f01614d3c565b9a505060408c015167ffffffffffffffff811115614e4f57600080fd5b614e5b8e828f01614d3c565b99505060608c015167ffffffffffffffff811115614e7857600080fd5b614e848e828f01614d3c565b985050614e9360808d01614a6c565b965060a08c0151955060c08c0151945060e08c015167ffffffffffffffff811115614ebd57600080fd5b614ec98e828f01614d3c565b9450506101008c015167ffffffffffffffff811115614ee757600080fd5b614ef38e828f01614d3c565b9350506101208c015191506101408c015190509295989b509295989b9093969950565b815167ffffffffffffffff811115614f3057614f30614ab6565b614f4481614f3e8454614ae5565b84614b38565b602080601f831160018114614f795760008415614f615750858301515b600019600386901b1c1916600185901b178555614b7e565b600085815260208120601f198616915b82811015614fa857888601518255948401946001909101908401614f89565b5085821015614fc65787850151600019600388901b60f8161c191681555b5050505050600190811b01905550565b60008251614fe8818460208701614662565b9190910192915050565b60008161500157615001614c46565b506000190190565b80820180821115610a4957610a49614c46565b60ff8181168382160190811115610a4957610a49614c4656fea2646970667358221220dd8194fae66d0a971e442d36e33ae33c870693cdcff01d02a750c2edd79a5fc464736f6c63430008120033",
			"opcodes": "PUSH1 0x4 PUSH2 0x300 DUP2 DUP2 MSTORE PUSH2 0x320 DUP3 SWAP1 MSTORE PUSH2 0x340 DUP3 SWAP1 MSTORE PUSH2 0x360 DUP3 SWAP1 MSTORE PUSH2 0x380 DUP3 SWAP1 MSTORE PUSH2 0x3A0 DUP3 SWAP1 MSTORE PUSH1 0x3 PUSH2 0x3C0 DUP2 SWAP1 MSTORE PUSH2 0x3E0 DUP2 SWAP1 MSTORE PUSH2 0x400 DUP2 SWAP1 MSTORE PUSH2 0x420 DUP2 SWAP1 MSTORE PUSH2 0x440 DUP2 SWAP1 MSTORE PUSH2 0x460 DUP2 SWAP1 MSTORE PUSH1 0x2 PUSH2 0x480 DUP2 SWAP1 MSTORE PUSH2 0x4A0 DUP2 SWAP1 MSTORE PUSH1 0x1 PUSH2 0x4C0 DUP2 SWAP1 MSTORE PUSH2 0x4E0 DUP3 SWAP1 MSTORE PUSH2 0x500 DUP3 SWAP1 MSTORE PUSH2 0x520 DUP3 SWAP1 MSTORE PUSH2 0x540 DUP3 SWAP1 MSTORE PUSH2 0x560 DUP3 SWAP1 MSTORE PUSH1 0x80 SWAP4 DUP5 MSTORE PUSH2 0x580 DUP6 DUP2 MSTORE PUSH2 0x5A0 DUP7 SWAP1 MSTORE PUSH2 0x5C0 DUP7 SWAP1 MSTORE PUSH2 0x5E0 DUP7 SWAP1 MSTORE PUSH2 0x600 DUP7 SWAP1 MSTORE PUSH2 0x620 DUP7 SWAP1 MSTORE PUSH2 0x640 DUP7 SWAP1 MSTORE PUSH2 0x660 DUP5 SWAP1 MSTORE PUSH2 0x680 DUP5 SWAP1 MSTORE PUSH2 0x6A0 DUP5 SWAP1 MSTORE PUSH2 0x6C0 DUP5 SWAP1 MSTORE PUSH2 0x6E0 DUP5 SWAP1 MSTORE PUSH2 0x700 DUP4 SWAP1 MSTORE PUSH2 0x720 DUP3 SWAP1 MSTORE PUSH2 0x740 DUP3 SWAP1 MSTORE PUSH2 0x760 DUP4 SWAP1 MSTORE PUSH2 0x780 DUP4 SWAP1 MSTORE PUSH2 0x7A0 DUP4 SWAP1 MSTORE PUSH2 0x7C0 DUP4 SWAP1 MSTORE PUSH2 0x7E0 DUP4 SWAP1 MSTORE PUSH1 0xA0 MSTORE PUSH2 0x800 DUP6 DUP2 MSTORE PUSH2 0x820 DUP7 SWAP1 MSTORE PUSH2 0x840 DUP7 SWAP1 MSTORE PUSH2 0x860 DUP7 SWAP1 MSTORE PUSH2 0x880 DUP7 SWAP1 MSTORE PUSH2 0x8A0 DUP7 SWAP1 MSTORE PUSH2 0x8C0 DUP7 SWAP1 MSTORE PUSH2 0x8E0 DUP7 SWAP1 MSTORE PUSH2 0x900 DUP5 SWAP1 MSTORE PUSH2 0x920 DUP5 SWAP1 MSTORE PUSH2 0x940 DUP5 SWAP1 MSTORE PUSH2 0x960 DUP5 SWAP1 MSTORE PUSH2 0x980 DUP4 SWAP1 MSTORE PUSH2 0x9A0 DUP4 SWAP1 MSTORE PUSH2 0x9C0 DUP3 SWAP1 MSTORE PUSH2 0x9E0 DUP3 SWAP1 MSTORE PUSH2 0xA00 DUP4 SWAP1 MSTORE PUSH2 0xA20 DUP4 SWAP1 MSTORE PUSH2 0xA40 DUP4 SWAP1 MSTORE PUSH2 0xA60 DUP4 SWAP1 MSTORE PUSH1 0xC0 MSTORE PUSH2 0xA80 DUP6 DUP2 MSTORE PUSH2 0xAA0 DUP7 SWAP1 MSTORE PUSH2 0xAC0 DUP7 SWAP1 MSTORE PUSH2 0xAE0 DUP7 SWAP1 MSTORE PUSH2 0xB00 DUP7 SWAP1 MSTORE PUSH2 0xB20 DUP7 SWAP1 MSTORE PUSH2 0xB40 DUP7 SWAP1 MSTORE PUSH2 0xB60 SWAP6 SWAP1 SWAP6 MSTORE PUSH2 0xB80 DUP4 SWAP1 MSTORE PUSH2 0xBA0 DUP4 SWAP1 MSTORE PUSH2 0xBC0 DUP4 SWAP1 MSTORE PUSH2 0xBE0 DUP4 SWAP1 MSTORE PUSH2 0xC00 DUP4 SWAP1 MSTORE PUSH2 0xC20 DUP2 SWAP1 MSTORE PUSH2 0xC40 DUP2 SWAP1 MSTORE PUSH2 0xC60 DUP2 SWAP1 MSTORE PUSH2 0xC80 DUP3 SWAP1 MSTORE PUSH2 0xCA0 DUP3 SWAP1 MSTORE PUSH2 0xCC0 DUP3 SWAP1 MSTORE PUSH2 0xCE0 DUP3 SWAP1 MSTORE PUSH1 0xE0 SWAP5 SWAP1 SWAP5 MSTORE PUSH2 0xD00 DUP3 DUP2 MSTORE PUSH2 0xD20 DUP4 SWAP1 MSTORE PUSH2 0xD40 DUP4 SWAP1 MSTORE PUSH2 0xD60 DUP4 SWAP1 MSTORE PUSH2 0xD80 DUP4 SWAP1 MSTORE PUSH2 0xDA0 DUP4 SWAP1 MSTORE PUSH2 0xDC0 DUP4 SWAP1 MSTORE PUSH2 0xDE0 DUP4 SWAP1 MSTORE PUSH2 0xE00 DUP4 SWAP1 MSTORE PUSH2 0xE20 DUP4 SWAP1 MSTORE PUSH2 0xE40 DUP4 SWAP1 MSTORE PUSH2 0xE60 DUP4 SWAP1 MSTORE PUSH2 0xE80 DUP6 SWAP1 MSTORE PUSH2 0xEA0 DUP6 SWAP1 MSTORE PUSH2 0xEC0 DUP6 SWAP1 MSTORE PUSH2 0xEE0 DUP6 SWAP1 MSTORE PUSH2 0xF00 DUP3 SWAP1 MSTORE PUSH2 0xF20 DUP3 SWAP1 MSTORE PUSH2 0xF40 DUP3 SWAP1 MSTORE PUSH2 0xF60 DUP3 SWAP1 MSTORE PUSH2 0x100 MSTORE PUSH2 0xF80 DUP3 DUP2 MSTORE PUSH2 0xFA0 DUP4 SWAP1 MSTORE PUSH2 0xFC0 DUP4 SWAP1 MSTORE PUSH2 0xFE0 DUP4 SWAP1 MSTORE PUSH2 0x1000 DUP4 SWAP1 MSTORE PUSH2 0x1020 DUP4 SWAP1 MSTORE PUSH2 0x1040 DUP4 SWAP1 MSTORE PUSH2 0x1060 DUP4 SWAP1 MSTORE PUSH2 0x1080 DUP4 SWAP1 MSTORE PUSH2 0x10A0 DUP4 SWAP1 MSTORE PUSH2 0x10C0 DUP4 SWAP1 MSTORE PUSH2 0x10E0 DUP4 SWAP1 MSTORE PUSH2 0x1100 DUP6 SWAP1 MSTORE PUSH2 0x1120 DUP6 SWAP1 MSTORE PUSH2 0x1140 DUP6 SWAP1 MSTORE PUSH2 0x1160 DUP6 SWAP1 MSTORE PUSH2 0x1180 DUP3 SWAP1 MSTORE PUSH2 0x11A0 DUP3 SWAP1 MSTORE PUSH2 0x11C0 DUP3 SWAP1 MSTORE PUSH2 0x11E0 DUP3 SWAP1 MSTORE PUSH2 0x120 MSTORE PUSH2 0x1200 DUP3 DUP2 MSTORE PUSH2 0x1220 DUP4 SWAP1 MSTORE PUSH2 0x1240 DUP4 SWAP1 MSTORE PUSH2 0x1260 DUP4 SWAP1 MSTORE PUSH2 0x1280 DUP4 SWAP1 MSTORE PUSH2 0x12A0 DUP4 SWAP1 MSTORE PUSH2 0x12C0 DUP4 SWAP1 MSTORE PUSH2 0x12E0 DUP4 SWAP1 MSTORE PUSH2 0x1300 DUP4 SWAP1 MSTORE PUSH2 0x1320 DUP4 SWAP1 MSTORE PUSH2 0x1340 DUP4 SWAP1 MSTORE PUSH2 0x1360 DUP4 SWAP1 MSTORE PUSH2 0x1380 DUP6 SWAP1 MSTORE PUSH2 0x13A0 DUP6 SWAP1 MSTORE PUSH2 0x13C0 DUP6 SWAP1 MSTORE PUSH2 0x13E0 DUP6 SWAP1 MSTORE PUSH2 0x1400 DUP6 SWAP1 MSTORE PUSH2 0x1420 DUP6 SWAP1 MSTORE PUSH2 0x1440 DUP6 SWAP1 MSTORE PUSH2 0x1460 DUP6 SWAP1 MSTORE PUSH2 0x140 MSTORE PUSH2 0x1480 DUP3 DUP2 MSTORE PUSH2 0x14A0 DUP4 SWAP1 MSTORE PUSH2 0x14C0 DUP4 SWAP1 MSTORE PUSH2 0x14E0 DUP6 SWAP1 MSTORE PUSH2 0x1500 DUP4 SWAP1 MSTORE PUSH2 0x1520 DUP4 SWAP1 MSTORE PUSH2 0x1540 DUP4 SWAP1 MSTORE PUSH2 0x1560 DUP4 SWAP1 MSTORE PUSH2 0x1580 DUP4 SWAP1 MSTORE PUSH2 0x15A0 DUP4 SWAP1 MSTORE PUSH2 0x15C0 DUP4 SWAP1 MSTORE PUSH2 0x15E0 DUP6 SWAP1 MSTORE PUSH2 0x1600 DUP3 SWAP1 MSTORE PUSH2 0x1620 DUP3 SWAP1 MSTORE PUSH2 0x1640 DUP3 SWAP1 MSTORE PUSH2 0x1660 DUP3 SWAP1 MSTORE PUSH2 0x1680 DUP6 SWAP1 MSTORE PUSH2 0x16A0 DUP6 SWAP1 MSTORE PUSH2 0x16C0 DUP6 SWAP1 MSTORE PUSH2 0x16E0 DUP6 SWAP1 MSTORE PUSH2 0x160 MSTORE PUSH2 0x1700 DUP3 DUP2 MSTORE PUSH2 0x1720 DUP4 SWAP1 MSTORE PUSH2 0x1740 DUP4 SWAP1 MSTORE PUSH2 0x1760 DUP6 SWAP1 MSTORE PUSH2 0x1780 DUP6 SWAP1 MSTORE PUSH2 0x17A0 DUP3 SWAP1 MSTORE PUSH2 0x17C0 DUP3 SWAP1 MSTORE PUSH2 0x17E0 DUP3 SWAP1 MSTORE PUSH2 0x1800 DUP3 SWAP1 MSTORE PUSH2 0x1820 DUP3 SWAP1 MSTORE PUSH2 0x1840 DUP3 SWAP1 MSTORE PUSH2 0x1860 DUP6 SWAP1 MSTORE PUSH2 0x1880 DUP3 SWAP1 MSTORE PUSH2 0x18A0 DUP3 SWAP1 MSTORE PUSH2 0x18C0 DUP3 SWAP1 MSTORE PUSH2 0x18E0 DUP3 SWAP1 MSTORE PUSH2 0x1900 DUP3 SWAP1 MSTORE PUSH2 0x1920 DUP3 SWAP1 MSTORE PUSH2 0x1940 DUP3 SWAP1 MSTORE PUSH2 0x1960 DUP6 SWAP1 MSTORE PUSH2 0x180 MSTORE PUSH2 0x1980 DUP5 DUP2 MSTORE PUSH2 0x19A0 DUP3 SWAP1 MSTORE PUSH2 0x19C0 DUP3 SWAP1 MSTORE PUSH2 0x19E0 DUP6 SWAP1 MSTORE PUSH2 0x1A00 DUP3 SWAP1 MSTORE PUSH2 0x1A20 DUP3 SWAP1 MSTORE PUSH2 0x1A40 DUP3 SWAP1 MSTORE PUSH2 0x1A60 DUP3 SWAP1 MSTORE PUSH2 0x1A80 DUP3 SWAP1 MSTORE PUSH2 0x1AA0 DUP3 SWAP1 MSTORE PUSH2 0x1AC0 DUP3 SWAP1 MSTORE PUSH2 0x1AE0 DUP6 SWAP1 MSTORE PUSH2 0x1B00 DUP3 SWAP1 MSTORE PUSH2 0x1B20 DUP3 SWAP1 MSTORE PUSH2 0x1B40 DUP3 SWAP1 MSTORE PUSH2 0x1B60 DUP3 SWAP1 MSTORE PUSH2 0x1B80 DUP3 SWAP1 MSTORE PUSH2 0x1BA0 DUP3 SWAP1 MSTORE PUSH2 0x1BC0 DUP3 SWAP1 MSTORE PUSH2 0x1BE0 DUP6 SWAP1 MSTORE PUSH2 0x1A0 MSTORE PUSH2 0x1C00 DUP2 DUP2 MSTORE PUSH2 0x1C20 DUP3 SWAP1 MSTORE PUSH2 0x1C40 DUP6 SWAP1 MSTORE PUSH2 0x1C60 DUP6 SWAP1 MSTORE PUSH2 0x1C80 DUP3 SWAP1 MSTORE PUSH2 0x1CA0 DUP3 SWAP1 MSTORE PUSH2 0x1CC0 DUP3 SWAP1 MSTORE PUSH2 0x1CE0 DUP3 SWAP1 MSTORE PUSH2 0x1D00 DUP3 SWAP1 MSTORE PUSH2 0x1D20 DUP3 SWAP1 MSTORE PUSH2 0x1D40 DUP6 SWAP1 MSTORE PUSH2 0x1D60 DUP6 SWAP1 MSTORE PUSH2 0x1D80 DUP3 SWAP1 MSTORE PUSH2 0x1DA0 DUP3 SWAP1 MSTORE PUSH2 0x1DC0 DUP3 SWAP1 MSTORE PUSH2 0x1DE0 DUP3 SWAP1 MSTORE PUSH2 0x1E00 DUP3 SWAP1 MSTORE PUSH2 0x1E20 DUP3 SWAP1 MSTORE PUSH2 0x1E40 DUP6 SWAP1 MSTORE PUSH2 0x1E60 DUP6 SWAP1 MSTORE PUSH2 0x1C0 MSTORE PUSH2 0x1E80 DUP3 DUP2 MSTORE PUSH2 0x1EA0 DUP4 SWAP1 MSTORE PUSH2 0x1EC0 DUP4 SWAP1 MSTORE PUSH2 0x1EE0 DUP3 SWAP1 MSTORE PUSH2 0x1F00 DUP6 SWAP1 MSTORE PUSH2 0x1F20 DUP3 SWAP1 MSTORE PUSH2 0x1F40 DUP3 SWAP1 MSTORE PUSH2 0x1F60 DUP3 SWAP1 MSTORE PUSH2 0x1F80 DUP3 SWAP1 MSTORE PUSH2 0x1FA0 DUP3 SWAP1 MSTORE PUSH2 0x1FC0 DUP6 SWAP1 MSTORE PUSH2 0x1FE0 DUP3 SWAP1 MSTORE PUSH2 0x2000 DUP3 SWAP1 MSTORE PUSH2 0x2020 DUP3 SWAP1 MSTORE PUSH2 0x2040 DUP3 SWAP1 MSTORE PUSH2 0x2060 DUP6 SWAP1 MSTORE PUSH2 0x2080 DUP6 SWAP1 MSTORE PUSH2 0x20A0 DUP6 SWAP1 MSTORE PUSH2 0x20C0 DUP6 SWAP1 MSTORE PUSH2 0x20E0 DUP6 SWAP1 MSTORE PUSH2 0x1E0 MSTORE PUSH2 0x2100 DUP3 DUP2 MSTORE PUSH2 0x2120 DUP4 SWAP1 MSTORE PUSH2 0x2140 DUP4 SWAP1 MSTORE PUSH2 0x2160 DUP4 SWAP1 MSTORE PUSH2 0x2180 DUP6 SWAP1 MSTORE PUSH2 0x21A0 DUP6 SWAP1 MSTORE PUSH2 0x21C0 DUP3 SWAP1 MSTORE PUSH2 0x21E0 DUP3 SWAP1 MSTORE PUSH2 0x2200 DUP3 SWAP1 MSTORE PUSH2 0x2220 DUP3 SWAP1 MSTORE PUSH2 0x2240 DUP6 SWAP1 MSTORE PUSH2 0x2260 DUP6 SWAP1 MSTORE PUSH2 0x2280 DUP3 SWAP1 MSTORE PUSH2 0x22A0 DUP3 SWAP1 MSTORE PUSH2 0x22C0 DUP3 SWAP1 MSTORE PUSH2 0x22E0 DUP6 SWAP1 MSTORE PUSH2 0x2300 DUP6 SWAP1 MSTORE PUSH2 0x2320 DUP6 SWAP1 MSTORE PUSH2 0x2340 DUP6 SWAP1 MSTORE PUSH2 0x2360 DUP6 SWAP1 MSTORE PUSH2 0x200 MSTORE PUSH2 0x2380 DUP3 DUP2 MSTORE PUSH2 0x23A0 DUP4 SWAP1 MSTORE PUSH2 0x23C0 DUP4 SWAP1 MSTORE PUSH2 0x23E0 DUP4 SWAP1 MSTORE PUSH2 0x2400 DUP4 SWAP1 MSTORE PUSH2 0x2420 DUP6 SWAP1 MSTORE PUSH2 0x2440 DUP3 SWAP1 MSTORE PUSH2 0x2460 DUP3 SWAP1 MSTORE PUSH2 0x2480 DUP3 SWAP1 MSTORE PUSH2 0x24A0 DUP3 SWAP1 MSTORE PUSH2 0x24C0 DUP6 SWAP1 MSTORE PUSH2 0x24E0 DUP6 SWAP1 MSTORE PUSH2 0x2500 DUP6 SWAP1 MSTORE PUSH2 0x2520 DUP3 SWAP1 MSTORE PUSH2 0x2540 DUP3 SWAP1 MSTORE PUSH2 0x2560 DUP3 SWAP1 MSTORE PUSH2 0x2580 DUP3 SWAP1 MSTORE PUSH2 0x25A0 DUP6 SWAP1 MSTORE PUSH2 0x25C0 DUP6 SWAP1 MSTORE PUSH2 0x25E0 DUP6 SWAP1 MSTORE PUSH2 0x220 MSTORE PUSH2 0x2600 DUP3 DUP2 MSTORE PUSH2 0x2620 DUP4 SWAP1 MSTORE PUSH2 0x2640 DUP4 SWAP1 MSTORE PUSH2 0x2660 DUP4 SWAP1 MSTORE PUSH2 0x2680 DUP4 SWAP1 MSTORE PUSH2 0x26A0 DUP3 SWAP1 MSTORE PUSH2 0x26C0 DUP3 SWAP1 MSTORE PUSH2 0x26E0 DUP3 SWAP1 MSTORE PUSH2 0x2700 DUP4 SWAP1 MSTORE PUSH2 0x2720 DUP4 SWAP1 MSTORE PUSH2 0x2740 DUP3 SWAP1 MSTORE PUSH2 0x2760 DUP3 SWAP1 MSTORE PUSH2 0x2780 DUP6 SWAP1 MSTORE PUSH2 0x27A0 DUP3 SWAP1 MSTORE PUSH2 0x27C0 DUP3 SWAP1 MSTORE PUSH2 0x27E0 DUP3 SWAP1 MSTORE PUSH2 0x2800 DUP3 SWAP1 MSTORE PUSH2 0x2820 DUP6 SWAP1 MSTORE PUSH2 0x2840 DUP6 SWAP1 MSTORE PUSH2 0x2860 DUP6 SWAP1 MSTORE PUSH2 0x240 MSTORE PUSH2 0x2880 DUP2 DUP2 MSTORE PUSH2 0x28A0 DUP3 SWAP1 MSTORE PUSH2 0x28C0 DUP3 SWAP1 MSTORE PUSH2 0x28E0 DUP6 SWAP1 MSTORE PUSH2 0x2900 DUP6 SWAP1 MSTORE PUSH2 0x2920 DUP6 SWAP1 MSTORE PUSH2 0x2940 DUP6 SWAP1 MSTORE PUSH2 0x2960 DUP6 SWAP1 MSTORE PUSH2 0x2980 DUP4 SWAP1 MSTORE PUSH2 0x29A0 DUP4 SWAP1 MSTORE PUSH2 0x29C0 DUP4 SWAP1 MSTORE PUSH2 0x29E0 DUP4 SWAP1 MSTORE PUSH2 0x2A00 DUP6 SWAP1 MSTORE PUSH2 0x2A20 DUP6 SWAP1 MSTORE PUSH2 0x2A40 DUP3 SWAP1 MSTORE PUSH2 0x2A60 DUP3 SWAP1 MSTORE PUSH2 0x2A80 DUP3 SWAP1 MSTORE PUSH2 0x2AA0 DUP6 SWAP1 MSTORE PUSH2 0x2AC0 DUP6 SWAP1 MSTORE PUSH2 0x2AE0 DUP6 SWAP1 MSTORE PUSH2 0x260 MSTORE PUSH2 0x2B00 DUP2 DUP2 MSTORE PUSH2 0x2B20 DUP3 SWAP1 MSTORE PUSH2 0x2B40 DUP3 SWAP1 MSTORE PUSH2 0x2B60 DUP3 SWAP1 MSTORE PUSH2 0x2B80 DUP3 SWAP1 MSTORE PUSH2 0x2BA0 DUP3 SWAP1 MSTORE PUSH2 0x2BC0 DUP6 SWAP1 MSTORE PUSH2 0x2BE0 DUP6 SWAP1 MSTORE PUSH2 0x2C00 DUP4 SWAP1 MSTORE PUSH2 0x2C20 DUP4 SWAP1 MSTORE PUSH2 0x2C40 DUP4 SWAP1 MSTORE PUSH2 0x2C60 DUP4 SWAP1 MSTORE PUSH2 0x2C80 DUP6 SWAP1 MSTORE PUSH2 0x2CA0 DUP6 SWAP1 MSTORE PUSH2 0x2CC0 DUP6 SWAP1 MSTORE PUSH2 0x2CE0 DUP6 SWAP1 MSTORE PUSH2 0x2D00 DUP4 SWAP1 MSTORE PUSH2 0x2D20 DUP4 SWAP1 MSTORE PUSH2 0x2D40 DUP3 SWAP1 MSTORE PUSH2 0x2D60 DUP3 SWAP1 MSTORE PUSH2 0x280 MSTORE PUSH2 0x2D80 DUP2 DUP2 MSTORE PUSH2 0x2DA0 DUP3 SWAP1 MSTORE PUSH2 0x2DC0 DUP3 SWAP1 MSTORE PUSH2 0x2DE0 DUP3 SWAP1 MSTORE PUSH2 0x2E00 DUP3 SWAP1 MSTORE PUSH2 0x2E20 DUP3 SWAP1 MSTORE PUSH2 0x2E40 DUP3 SWAP1 MSTORE PUSH2 0x2E60 DUP6 SWAP1 MSTORE PUSH2 0x2E80 DUP4 SWAP1 MSTORE PUSH2 0x2EA0 DUP4 SWAP1 MSTORE PUSH2 0x2EC0 DUP4 SWAP1 MSTORE PUSH2 0x2EE0 DUP4 SWAP1 MSTORE PUSH2 0x2F00 DUP6 SWAP1 MSTORE PUSH2 0x2F20 DUP6 SWAP1 MSTORE PUSH2 0x2F40 DUP6 SWAP1 MSTORE PUSH2 0x2F60 DUP6 SWAP1 MSTORE PUSH2 0x2F80 DUP4 SWAP1 MSTORE PUSH2 0x2FA0 DUP4 SWAP1 MSTORE PUSH2 0x2FC0 DUP3 SWAP1 MSTORE PUSH2 0x2FE0 DUP3 SWAP1 MSTORE PUSH2 0x2A0 MSTORE PUSH2 0x3000 DUP2 DUP2 MSTORE PUSH2 0x3020 DUP3 SWAP1 MSTORE PUSH2 0x3040 DUP3 SWAP1 MSTORE PUSH2 0x3060 DUP3 SWAP1 MSTORE PUSH2 0x3080 DUP3 SWAP1 MSTORE PUSH2 0x30A0 DUP3 SWAP1 MSTORE PUSH2 0x30C0 DUP3 SWAP1 MSTORE PUSH2 0x30E0 DUP6 SWAP1 MSTORE PUSH2 0x3100 DUP6 SWAP1 MSTORE PUSH2 0x3120 DUP3 SWAP1 MSTORE PUSH2 0x3140 DUP3 SWAP1 MSTORE PUSH2 0x3160 DUP6 SWAP1 MSTORE PUSH2 0x3180 DUP6 SWAP1 MSTORE PUSH2 0x31A0 DUP3 SWAP1 MSTORE PUSH2 0x31C0 DUP3 SWAP1 MSTORE PUSH2 0x31E0 DUP6 SWAP1 MSTORE PUSH2 0x3200 DUP4 SWAP1 MSTORE PUSH2 0x3220 DUP4 SWAP1 MSTORE PUSH2 0x3240 DUP3 SWAP1 MSTORE PUSH2 0x3260 DUP3 SWAP1 MSTORE PUSH2 0x2C0 MSTORE PUSH2 0x3500 PUSH1 0x40 MSTORE PUSH2 0x3280 DUP2 DUP2 MSTORE PUSH2 0x32A0 DUP3 SWAP1 MSTORE PUSH2 0x32C0 DUP3 SWAP1 MSTORE PUSH2 0x32E0 DUP3 SWAP1 MSTORE PUSH2 0x3300 DUP3 SWAP1 MSTORE PUSH2 0x3320 DUP3 SWAP1 MSTORE PUSH2 0x3340 DUP3 SWAP1 MSTORE PUSH2 0x3360 DUP6 SWAP1 MSTORE PUSH2 0x3380 DUP6 SWAP1 MSTORE PUSH2 0x33A0 DUP6 SWAP1 MSTORE PUSH2 0x33C0 DUP6 SWAP1 MSTORE PUSH2 0x33E0 DUP6 SWAP1 MSTORE PUSH2 0x3400 DUP6 SWAP1 MSTORE PUSH2 0x3420 DUP6 SWAP1 MSTORE PUSH2 0x3440 SWAP5 SWAP1 SWAP5 MSTORE PUSH2 0x3460 DUP3 SWAP1 MSTORE PUSH2 0x3480 DUP3 SWAP1 MSTORE PUSH2 0x34A0 SWAP2 SWAP1 SWAP2 MSTORE PUSH2 0x34C0 DUP2 SWAP1 MSTORE PUSH2 0x34E0 MSTORE PUSH2 0x2E0 SWAP2 SWAP1 SWAP2 MSTORE PUSH3 0x9D2 SWAP1 PUSH1 0x0 SWAP1 PUSH1 0x14 PUSH3 0xA57 JUMP JUMPDEST POP CALLVALUE DUP1 ISZERO PUSH3 0x9E0 JUMPI PUSH1 0x0 DUP1 REVERT JUMPDEST POP PUSH1 0x40 MLOAD PUSH3 0x5C5F CODESIZE SUB DUP1 PUSH3 0x5C5F DUP4 CODECOPY DUP2 ADD PUSH1 0x40 DUP2 SWAP1 MSTORE PUSH3 0xA03 SWAP2 PUSH3 0xB87 JUMP JUMPDEST PUSH1 0x14 DUP1 SLOAD PUSH1 0x1 PUSH1 0x1 PUSH1 0xA0 SHL SUB SWAP6 DUP7 AND PUSH1 0x1 PUSH1 0x1 PUSH1 0xA0 SHL SUB NOT SWAP2 DUP3 AND OR SWAP1 SWAP2 SSTORE PUSH1 0x15 DUP1 SLOAD SWAP5 DUP7 AND SWAP5 DUP3 AND SWAP5 SWAP1 SWAP5 OR SWAP1 SWAP4 SSTORE PUSH1 0x21 DUP1 SLOAD SWAP3 DUP6 AND SWAP3 DUP5 AND SWAP3 SWAP1 SWAP3 OR SWAP1 SWAP2 SSTORE PUSH1 0x16 DUP1 SLOAD SWAP2 SWAP1 SWAP4 AND SWAP2 AND OR SWAP1 SSTORE PUSH3 0xBE4 JUMP JUMPDEST DUP3 PUSH1 0x14 DUP2 ADD SWAP3 DUP3 ISZERO PUSH3 0xA96 JUMPI SWAP2 PUSH1 0x20 MUL DUP3 ADD JUMPDEST DUP3 DUP2 GT ISZERO PUSH3 0xA96 JUMPI DUP3 MLOAD PUSH3 0xA85 SWAP1 DUP4 SWAP1 PUSH1 0x14 PUSH3 0xAA8 JUMP JUMPDEST POP SWAP2 PUSH1 0x20 ADD SWAP2 SWAP1 PUSH1 0x1 ADD SWAP1 PUSH3 0xA6B JUMP JUMPDEST POP PUSH3 0xAA4 SWAP3 SWAP2 POP PUSH3 0xB3E JUMP JUMPDEST POP SWAP1 JUMP JUMPDEST PUSH1 0x1 DUP4 ADD SWAP2 DUP4 SWAP1 DUP3 ISZERO PUSH3 0xB30 JUMPI SWAP2 PUSH1 0x20 MUL DUP3 ADD PUSH1 0x0 JUMPDEST DUP4 DUP3 GT ISZERO PUSH3 0xAFF JUMPI DUP4 MLOAD DUP4 DUP3 PUSH2 0x100 EXP DUP2 SLOAD DUP2 PUSH1 0xFF MUL NOT AND SWAP1 DUP4 PUSH1 0xFF AND MUL OR SWAP1 SSTORE POP SWAP3 PUSH1 0x20 ADD SWAP3 PUSH1 0x1 ADD PUSH1 0x20 DUP2 PUSH1 0x0 ADD DIV SWAP3 DUP4 ADD SWAP3 PUSH1 0x1 SUB MUL PUSH3 0xABF JUMP JUMPDEST DUP1 ISZERO PUSH3 0xB2E JUMPI DUP3 DUP2 PUSH2 0x100 EXP DUP2 SLOAD SWAP1 PUSH1 0xFF MUL NOT AND SWAP1 SSTORE PUSH1 0x1 ADD PUSH1 0x20 DUP2 PUSH1 0x0 ADD DIV SWAP3 DUP4 ADD SWAP3 PUSH1 0x1 SUB MUL PUSH3 0xAFF JUMP JUMPDEST POP JUMPDEST POP PUSH3 0xAA4 SWAP3 SWAP2 POP PUSH3 0xB54 JUMP JUMPDEST DUP1 DUP3 GT ISZERO PUSH3 0xAA4 JUMPI PUSH1 0x0 DUP2 SSTORE PUSH1 0x1 ADD PUSH3 0xB3E JUMP JUMPDEST DUP1 DUP3 GT ISZERO PUSH3 0xAA4 JUMPI PUSH1 0x0 DUP2 SSTORE PUSH1 0x1 ADD PUSH3 0xB3E JUMP JUMPDEST DUP1 MLOAD PUSH1 0x1 PUSH1 0x1 PUSH1 0xA0 SHL SUB DUP2 AND DUP2 EQ PUSH3 0xB82 JUMPI PUSH1 0x0 DUP1 REVERT JUMPDEST SWAP2 SWAP1 POP JUMP JUMPDEST PUSH1 0x0 DUP1 PUSH1 0x0 DUP1 PUSH1 0x80 DUP6 DUP8 SUB SLT ISZERO PUSH3 0xB9E JUMPI PUSH1 0x0 DUP1 REVERT JUMPDEST PUSH3 0xBA9 DUP6 PUSH3 0xB6A JUMP JUMPDEST SWAP4 POP PUSH3 0xBB9 PUSH1 0x20 DUP7 ADD PUSH3 0xB6A JUMP JUMPDEST SWAP3 POP PUSH3 0xBC9 PUSH1 0x40 DUP7 ADD PUSH3 0xB6A JUMP JUMPDEST SWAP2 POP PUSH3 0xBD9 PUSH1 0x60 DUP7 ADD PUSH3 0xB6A JUMP JUMPDEST SWAP1 POP SWAP3 SWAP6 SWAP2 SWAP5 POP SWAP3 POP JUMP JUMPDEST PUSH2 0x506B DUP1 PUSH3 0xBF4 PUSH1 0x0 CODECOPY PUSH1 0x0 RETURN INVALID PUSH1 0x80 PUSH1 0x40 MSTORE CALLVALUE DUP1 ISZERO PUSH2 0x10 JUMPI PUSH1 0x0 DUP1 REVERT JUMPDEST POP PUSH1 0x4 CALLDATASIZE LT PUSH2 0x30A JUMPI PUSH1 0x0 CALLDATALOAD PUSH1 0xE0 SHR DUP1 PUSH4 0x62C5813D GT PUSH2 0x19C JUMPI DUP1 PUSH4 0xB0D77774 GT PUSH2 0xEE JUMPI DUP1 PUSH4 0xE4547FB4 GT PUSH2 0x97 JUMPI DUP1 PUSH4 0xEAA10576 GT PUSH2 0x71 JUMPI DUP1 PUSH4 0xEAA10576 EQ PUSH2 0x6FA JUMPI DUP1 PUSH4 0xF15AD264 EQ PUSH2 0x71A JUMPI DUP1 PUSH4 0xFD7C31A6 EQ PUSH2 0x72D JUMPI PUSH1 0x0 DUP1 REVERT JUMPDEST DUP1 PUSH4 0xE4547FB4 EQ PUSH2 0x6E7 JUMPI DUP1 PUSH4 0xE6192FCA EQ PUSH2 0x6E7 JUMPI DUP1 PUSH4 0xEA0E35B1 EQ PUSH2 0x6F2 JUMPI PUSH1 0x0 DUP1 REVERT JUMPDEST DUP1 PUSH4 0xC0AD21D8 GT PUSH2 0xC8 JUMPI DUP1 PUSH4 0xC0AD21D8 EQ PUSH2 0x68A JUMPI DUP1 PUSH4 0xD1433201 EQ PUSH2 0x69D JUMPI DUP1 PUSH4 0xD4CEEEC0 EQ PUSH2 0x6C3 JUMPI PUSH1 0x0 DUP1 REVERT JUMPDEST DUP1 PUSH4 0xB0D77774 EQ PUSH2 0x651 JUMPI DUP1 PUSH4 0xBC9955A2 EQ PUSH2 0x664 JUMPI DUP1 PUSH4 0xBFC22A82 EQ PUSH2 0x677 JUMPI PUSH1 0x0 DUP1 REVERT JUMPDEST DUP1 PUSH4 0x7B0C98EF GT PUSH2 0x150 JUMPI DUP1 PUSH4 0x9CEC5194 GT PUSH2 0x12A JUMPI DUP1 PUSH4 0x9CEC5194 EQ PUSH2 0x618 JUMPI DUP1 PUSH4 0x9D995717 EQ PUSH2 0x62B JUMPI DUP1 PUSH4 0xA609775B EQ PUSH2 0x63E JUMPI PUSH1 0x0 DUP1 REVERT JUMPDEST DUP1 PUSH4 0x7B0C98EF EQ PUSH2 0x5DD JUMPI DUP1 PUSH4 0x98A8D0E7 EQ PUSH2 0x5F0 JUMPI DUP1 PUSH4 0x9B21D6EB EQ PUSH2 0x603 JUMPI PUSH1 0x0 DUP1 REVERT JUMPDEST DUP1 PUSH4 0x6573C241 GT PUSH2 0x181 JUMPI DUP1 PUSH4 0x6573C241 EQ PUSH2 0x58E JUMPI DUP1 PUSH4 0x731AE689 EQ PUSH2 0x5A1 JUMPI DUP1 PUSH4 0x7AB9E7FE EQ PUSH2 0x5AD JUMPI PUSH1 0x0 DUP1 REVERT JUMPDEST DUP1 PUSH4 0x62C5813D EQ PUSH2 0x582 JUMPI DUP1 PUSH4 0x65191666 EQ PUSH2 0x582 JUMPI PUSH1 0x0 DUP1 REVERT JUMPDEST DUP1 PUSH4 0x2E4B51BD GT PUSH2 0x260 JUMPI DUP1 PUSH4 0x40B76BBD GT PUSH2 0x209 JUMPI DUP1 PUSH4 0x5387A797 GT PUSH2 0x1E3 JUMPI DUP1 PUSH4 0x5387A797 EQ PUSH2 0x41C JUMPI DUP1 PUSH4 0x58612A20 EQ PUSH2 0x543 JUMPI DUP1 PUSH4 0x5C0068A2 EQ PUSH2 0x56F JUMPI PUSH1 0x0 DUP1 REVERT JUMPDEST DUP1 PUSH4 0x40B76BBD EQ PUSH2 0x4FA JUMPI DUP1 PUSH4 0x44AD764D EQ PUSH2 0x51D JUMPI DUP1 PUSH4 0x4F264B03 EQ PUSH2 0x530 JUMPI PUSH1 0x0 DUP1 REVERT JUMPDEST DUP1 PUSH4 0x36780527 GT PUSH2 0x23A JUMPI DUP1 PUSH4 0x36780527 EQ PUSH2 0x46F JUMPI DUP1 PUSH4 0x3942613C EQ PUSH2 0x4A2 JUMPI DUP1 PUSH4 0x3F9662BB EQ PUSH2 0x4E7 JUMPI PUSH1 0x0 DUP1 REVERT JUMPDEST DUP1 PUSH4 0x2E4B51BD EQ PUSH2 0x34D JUMPI DUP1 PUSH4 0x2F57741C EQ PUSH2 0x43C JUMPI DUP1 PUSH4 0x2FAD0429 EQ PUSH2 0x44F JUMPI PUSH1 0x0 DUP1 REVERT JUMPDEST DUP1 PUSH4 0x154538AB GT PUSH2 0x2C2 JUMPI DUP1 PUSH4 0x2A2026A9 GT PUSH2 0x29C JUMPI DUP1 PUSH4 0x2A2026A9 EQ PUSH2 0x3F7 JUMPI DUP1 PUSH4 0x2C6D422F EQ PUSH2 0x41C JUMPI DUP1 PUSH4 0x2DEC2E63 EQ PUSH2 0x427 JUMPI PUSH1 0x0 DUP1 REVERT JUMPDEST DUP1 PUSH4 0x154538AB EQ PUSH2 0x3A4 JUMPI DUP1 PUSH4 0x196AB1AB EQ PUSH2 0x3D1 JUMPI DUP1 PUSH4 0x1CECB4FB EQ PUSH2 0x3E4 JUMPI PUSH1 0x0 DUP1 REVERT JUMPDEST DUP1 PUSH4 0xCEA9DC5 GT PUSH2 0x2F3 JUMPI DUP1 PUSH4 0xCEA9DC5 EQ PUSH2 0x34D JUMPI DUP1 PUSH4 0xD67F59E EQ PUSH2 0x366 JUMPI DUP1 PUSH4 0x13A5CEDE EQ PUSH2 0x391 JUMPI PUSH1 0x0 DUP1 REVERT JUMPDEST DUP1 PUSH4 0x821DE3E EQ PUSH2 0x30F JUMPI DUP1 PUSH4 0x9E59CEC EQ PUSH2 0x324 JUMPI JUMPDEST PUSH1 0x0 DUP1 REVERT JUMPDEST PUSH2 0x322 PUSH2 0x31D CALLDATASIZE PUSH1 0x4 PUSH2 0x45CE JUMP JUMPDEST PUSH2 0x740 JUMP JUMPDEST STOP JUMPDEST PUSH2 0x337 PUSH2 0x332 CALLDATASIZE PUSH1 0x4 PUSH2 0x462F JUMP JUMPDEST PUSH2 0x99A JUMP JUMPDEST PUSH1 0x40 MLOAD PUSH2 0x344 SWAP2 SWAP1 PUSH2 0x46B2 JUMP JUMPDEST PUSH1 0x40 MLOAD DUP1 SWAP2 SUB SWAP1 RETURN JUMPDEST PUSH2 0x358 PUSH4 0x3B9ACA00 DUP2 JUMP JUMPDEST PUSH1 0x40 MLOAD SWAP1 DUP2 MSTORE PUSH1 0x20 ADD PUSH2 0x344 JUMP JUMPDEST PUSH1 0x15 SLOAD PUSH2 0x379 SWAP1 PUSH1 0x1 PUSH1 0x1 PUSH1 0xA0 SHL SUB AND DUP2 JUMP JUMPDEST PUSH1 0x40 MLOAD PUSH1 0x1 PUSH1 0x1 PUSH1 0xA0 SHL SUB SWAP1 SWAP2 AND DUP2 MSTORE PUSH1 0x20 ADD PUSH2 0x344 JUMP JUMPDEST PUSH2 0x337 PUSH2 0x39F CALLDATASIZE PUSH1 0x4 PUSH2 0x46E1 JUMP JUMPDEST PUSH2 0xA4F JUMP JUMPDEST PUSH2 0x3B7 PUSH2 0x3B2 CALLDATASIZE PUSH1 0x4 PUSH2 0x46FE JUMP JUMPDEST PUSH2 0xAE9 JUMP JUMPDEST PUSH1 0x40 DUP1 MLOAD PUSH1 0xFF SWAP4 DUP5 AND DUP2 MSTORE SWAP3 SWAP1 SWAP2 AND PUSH1 0x20 DUP4 ADD MSTORE ADD PUSH2 0x344 JUMP JUMPDEST PUSH1 0x21 SLOAD PUSH2 0x379 SWAP1 PUSH1 0x1 PUSH1 0x1 PUSH1 0xA0 SHL SUB AND DUP2 JUMP JUMPDEST PUSH2 0x322 PUSH2 0x3F2 CALLDATASIZE PUSH1 0x4 PUSH2 0x462F JUMP JUMPDEST PUSH2 0xB81 JUMP JUMPDEST PUSH2 0x40A PUSH2 0x405 CALLDATASIZE PUSH1 0x4 PUSH2 0x462F JUMP JUMPDEST PUSH2 0x12C3 JUMP JUMPDEST PUSH1 0x40 MLOAD PUSH1 0xFF SWAP1 SWAP2 AND DUP2 MSTORE PUSH1 0x20 ADD PUSH2 0x344 JUMP JUMPDEST PUSH2 0x358 PUSH4 0x35A4E900 DUP2 JUMP JUMPDEST PUSH2 0x42F PUSH2 0x1370 JUMP JUMPDEST PUSH1 0x40 MLOAD PUSH2 0x344 SWAP2 SWAP1 PUSH2 0x4719 JUMP JUMPDEST PUSH2 0x322 PUSH2 0x44A CALLDATASIZE PUSH1 0x4 PUSH2 0x4785 JUMP JUMPDEST PUSH2 0x153D JUMP JUMPDEST PUSH2 0x462 PUSH2 0x45D CALLDATASIZE PUSH1 0x4 PUSH2 0x46FE JUMP JUMPDEST PUSH2 0x155C JUMP JUMPDEST PUSH1 0x40 MLOAD PUSH2 0x344 SWAP2 SWAP1 PUSH2 0x481B JUMP JUMPDEST PUSH2 0x492 PUSH2 0x47D CALLDATASIZE PUSH1 0x4 PUSH2 0x482E JUMP JUMPDEST PUSH1 0x17 PUSH1 0x20 MSTORE PUSH1 0x0 SWAP1 DUP2 MSTORE PUSH1 0x40 SWAP1 KECCAK256 SLOAD PUSH1 0xFF AND DUP2 JUMP JUMPDEST PUSH1 0x40 MLOAD SWAP1 ISZERO ISZERO DUP2 MSTORE PUSH1 0x20 ADD PUSH2 0x344 JUMP JUMPDEST PUSH2 0x4CE PUSH2 0x4B0 CALLDATASIZE PUSH1 0x4 PUSH2 0x4847 JUMP JUMPDEST PUSH1 0x1B PUSH1 0x20 MSTORE PUSH1 0x0 SWAP1 DUP2 MSTORE PUSH1 0x40 SWAP1 KECCAK256 SLOAD PUSH1 0xFF DUP1 DUP3 AND SWAP2 PUSH2 0x100 SWAP1 DIV AND DUP3 JUMP JUMPDEST PUSH1 0x40 DUP1 MLOAD PUSH1 0xFF SWAP1 SWAP4 AND DUP4 MSTORE SWAP1 ISZERO ISZERO PUSH1 0x20 DUP4 ADD MSTORE ADD PUSH2 0x344 JUMP JUMPDEST PUSH2 0x492 PUSH2 0x4F5 CALLDATASIZE PUSH1 0x4 PUSH2 0x4785 JUMP JUMPDEST PUSH2 0x1675 JUMP JUMPDEST PUSH2 0x40A PUSH2 0x508 CALLDATASIZE PUSH1 0x4 PUSH2 0x4847 JUMP JUMPDEST PUSH1 0x1D PUSH1 0x20 MSTORE PUSH1 0x0 SWAP1 DUP2 MSTORE PUSH1 0x40 SWAP1 KECCAK256 SLOAD PUSH1 0xFF AND DUP2 JUMP JUMPDEST PUSH2 0x322 PUSH2 0x52B CALLDATASIZE PUSH1 0x4 PUSH2 0x462F JUMP JUMPDEST PUSH2 0x16D2 JUMP JUMPDEST PUSH1 0x14 SLOAD PUSH2 0x379 SWAP1 PUSH1 0x1 PUSH1 0x1 PUSH1 0xA0 SHL SUB AND DUP2 JUMP JUMPDEST PUSH2 0x40A PUSH2 0x551 CALLDATASIZE PUSH1 0x4 PUSH2 0x462F JUMP JUMPDEST PUSH1 0x20 DUP1 DUP1 MSTORE PUSH1 0x0 SWAP3 DUP4 MSTORE PUSH1 0x40 DUP1 DUP5 KECCAK256 SWAP1 SWAP2 MSTORE SWAP1 DUP3 MSTORE SWAP1 KECCAK256 SLOAD PUSH1 0xFF AND DUP2 JUMP JUMPDEST PUSH2 0x322 PUSH2 0x57D CALLDATASIZE PUSH1 0x4 PUSH2 0x486B JUMP JUMPDEST PUSH2 0x1830 JUMP JUMPDEST PUSH2 0x358 PUSH5 0x2540BE400 DUP2 JUMP JUMPDEST PUSH2 0x322 PUSH2 0x59C CALLDATASIZE PUSH1 0x4 PUSH2 0x48B6 JUMP JUMPDEST PUSH2 0x1DC7 JUMP JUMPDEST PUSH2 0x358 PUSH5 0x174876E800 DUP2 JUMP JUMPDEST PUSH2 0x40A PUSH2 0x5BB CALLDATASIZE PUSH1 0x4 PUSH2 0x462F JUMP JUMPDEST PUSH1 0xFF SWAP2 DUP3 AND PUSH1 0x0 SWAP1 DUP2 MSTORE PUSH1 0x20 DUP1 DUP1 MSTORE PUSH1 0x40 DUP1 DUP4 KECCAK256 SWAP4 DUP6 AND DUP4 MSTORE SWAP3 SWAP1 MSTORE KECCAK256 SLOAD AND SWAP1 JUMP JUMPDEST PUSH2 0x337 PUSH2 0x5EB CALLDATASIZE PUSH1 0x4 PUSH2 0x462F JUMP JUMPDEST PUSH2 0x2222 JUMP JUMPDEST PUSH2 0x322 PUSH2 0x5FE CALLDATASIZE PUSH1 0x4 PUSH2 0x45CE JUMP JUMPDEST PUSH2 0x2246 JUMP JUMPDEST PUSH2 0x60B PUSH2 0x296C JUMP JUMPDEST PUSH1 0x40 MLOAD PUSH2 0x344 SWAP2 SWAP1 PUSH2 0x48F9 JUMP JUMPDEST PUSH2 0x337 PUSH2 0x626 CALLDATASIZE PUSH1 0x4 PUSH2 0x462F JUMP JUMPDEST PUSH2 0x2BA1 JUMP JUMPDEST PUSH2 0x40A PUSH2 0x639 CALLDATASIZE PUSH1 0x4 PUSH2 0x46FE JUMP JUMPDEST PUSH2 0x2CF1 JUMP JUMPDEST PUSH2 0x322 PUSH2 0x64C CALLDATASIZE PUSH1 0x4 PUSH2 0x462F JUMP JUMPDEST PUSH2 0x2D81 JUMP JUMPDEST PUSH1 0x16 SLOAD PUSH2 0x379 SWAP1 PUSH1 0x1 PUSH1 0x1 PUSH1 0xA0 SHL SUB AND DUP2 JUMP JUMPDEST PUSH2 0x40A PUSH2 0x672 CALLDATASIZE PUSH1 0x4 PUSH2 0x4979 JUMP JUMPDEST PUSH2 0x3108 JUMP JUMPDEST PUSH2 0x42F PUSH2 0x685 CALLDATASIZE PUSH1 0x4 PUSH2 0x46FE JUMP JUMPDEST PUSH2 0x3144 JUMP JUMPDEST PUSH2 0x322 PUSH2 0x698 CALLDATASIZE PUSH1 0x4 PUSH2 0x499B JUMP JUMPDEST PUSH2 0x326E JUMP JUMPDEST PUSH2 0x6B0 PUSH2 0x6AB CALLDATASIZE PUSH1 0x4 PUSH2 0x4A00 JUMP JUMPDEST PUSH2 0x3774 JUMP JUMPDEST PUSH1 0x40 MLOAD PUSH2 0xFFFF SWAP1 SWAP2 AND DUP2 MSTORE PUSH1 0x20 ADD PUSH2 0x344 JUMP JUMPDEST PUSH2 0x6D6 PUSH2 0x6D1 CALLDATASIZE PUSH1 0x4 PUSH2 0x46FE JUMP JUMPDEST PUSH2 0x37BB JUMP JUMPDEST PUSH1 0x40 MLOAD PUSH2 0x344 SWAP6 SWAP5 SWAP4 SWAP3 SWAP2 SWAP1 PUSH2 0x4A2A JUMP JUMPDEST PUSH2 0x358 PUSH4 0x5F5E100 DUP2 JUMP JUMPDEST PUSH2 0x40A PUSH1 0x1E DUP2 JUMP JUMPDEST PUSH2 0x358 PUSH2 0x708 CALLDATASIZE PUSH1 0x4 PUSH2 0x46FE JUMP JUMPDEST PUSH1 0x22 PUSH1 0x20 MSTORE PUSH1 0x0 SWAP1 DUP2 MSTORE PUSH1 0x40 SWAP1 KECCAK256 SLOAD DUP2 JUMP JUMPDEST PUSH2 0x337 PUSH2 0x728 CALLDATASIZE PUSH1 0x4 PUSH2 0x46E1 JUMP JUMPDEST PUSH2 0x387E JUMP JUMPDEST PUSH2 0x322 PUSH2 0x73B CALLDATASIZE PUSH1 0x4 PUSH2 0x499B JUMP JUMPDEST PUSH2 0x392A JUMP JUMPDEST DUP1 PUSH2 0x792 JUMPI PUSH1 0x40 MLOAD PUSH3 0x461BCD PUSH1 0xE5 SHL DUP2 MSTORE PUSH1 0x20 PUSH1 0x4 DUP3 ADD MSTORE PUSH1 0x14 PUSH1 0x24 DUP3 ADD MSTORE PUSH32 0x4E616D652063616E6E6F7420626520656D707479000000000000000000000000 PUSH1 0x44 DUP3 ADD MSTORE PUSH1 0x64 ADD JUMPDEST PUSH1 0x40 MLOAD DUP1 SWAP2 SUB SWAP1 REVERT JUMPDEST PUSH1 0x14 SLOAD PUSH1 0x40 MLOAD PUSH4 0x8A888953 PUSH1 0xE0 SHL DUP2 MSTORE PUSH1 0xFF DUP1 DUP8 AND PUSH1 0x4 DUP4 ADD MSTORE DUP6 AND PUSH1 0x24 DUP3 ADD MSTORE CALLER SWAP2 PUSH1 0x1 PUSH1 0x1 PUSH1 0xA0 SHL SUB AND SWAP1 PUSH4 0x8A888953 SWAP1 PUSH1 0x44 ADD PUSH1 0x20 PUSH1 0x40 MLOAD DUP1 DUP4 SUB DUP2 DUP7 GAS STATICCALL ISZERO DUP1 ISZERO PUSH2 0x7E5 JUMPI RETURNDATASIZE PUSH1 0x0 DUP1 RETURNDATACOPY RETURNDATASIZE PUSH1 0x0 REVERT JUMPDEST POP POP POP POP PUSH1 0x40 MLOAD RETURNDATASIZE PUSH1 0x1F NOT PUSH1 0x1F DUP3 ADD AND DUP3 ADD DUP1 PUSH1 0x40 MSTORE POP DUP2 ADD SWAP1 PUSH2 0x809 SWAP2 SWAP1 PUSH2 0x4A77 JUMP JUMPDEST PUSH1 0x1 PUSH1 0x1 PUSH1 0xA0 SHL SUB AND EQ PUSH2 0x885 JUMPI PUSH1 0x40 MLOAD PUSH3 0x461BCD PUSH1 0xE5 SHL DUP2 MSTORE PUSH1 0x20 PUSH1 0x4 DUP3 ADD MSTORE PUSH1 0x22 PUSH1 0x24 DUP3 ADD MSTORE PUSH32 0x596F7520617265206E6F7420746865206F776E6572206F662074686973207469 PUSH1 0x44 DUP3 ADD MSTORE PUSH32 0x6C65000000000000000000000000000000000000000000000000000000000000 PUSH1 0x64 DUP3 ADD MSTORE PUSH1 0x84 ADD PUSH2 0x789 JUMP JUMPDEST PUSH1 0x15 SLOAD PUSH1 0x40 MLOAD PUSH32 0x23B872DD00000000000000000000000000000000000000000000000000000000 DUP2 MSTORE CALLER PUSH1 0x4 DUP3 ADD MSTORE ADDRESS PUSH1 0x24 DUP3 ADD MSTORE PUSH5 0x2540BE400 PUSH1 0x44 DUP3 ADD MSTORE PUSH1 0x1 PUSH1 0x1 PUSH1 0xA0 SHL SUB SWAP1 SWAP2 AND SWAP1 PUSH4 0x23B872DD SWAP1 PUSH1 0x64 ADD PUSH1 0x20 PUSH1 0x40 MLOAD DUP1 DUP4 SUB DUP2 PUSH1 0x0 DUP8 GAS CALL ISZERO DUP1 ISZERO PUSH2 0x8F9 JUMPI RETURNDATASIZE PUSH1 0x0 DUP1 RETURNDATACOPY RETURNDATASIZE PUSH1 0x0 REVERT JUMPDEST POP POP POP POP PUSH1 0x40 MLOAD RETURNDATASIZE PUSH1 0x1F NOT PUSH1 0x1F DUP3 ADD AND DUP3 ADD DUP1 PUSH1 0x40 MSTORE POP DUP2 ADD SWAP1 PUSH2 0x91D SWAP2 SWAP1 PUSH2 0x4A94 JUMP JUMPDEST PUSH2 0x969 JUMPI PUSH1 0x40 MLOAD PUSH3 0x461BCD PUSH1 0xE5 SHL DUP2 MSTORE PUSH1 0x20 PUSH1 0x4 DUP3 ADD MSTORE PUSH1 0x14 PUSH1 0x24 DUP3 ADD MSTORE PUSH32 0x546F6B656E207061796D656E74206661696C6564000000000000000000000000 PUSH1 0x44 DUP3 ADD MSTORE PUSH1 0x64 ADD PUSH2 0x789 JUMP JUMPDEST PUSH1 0xFF DUP1 DUP6 AND PUSH1 0x0 SWAP1 DUP2 MSTORE PUSH1 0x1E PUSH1 0x20 SWAP1 DUP2 MSTORE PUSH1 0x40 DUP1 DUP4 KECCAK256 SWAP4 DUP8 AND DUP4 MSTORE SWAP3 SWAP1 MSTORE KECCAK256 PUSH2 0x993 DUP3 DUP5 DUP4 PUSH2 0x4B86 JUMP JUMPDEST POP POP POP POP POP JUMP JUMPDEST PUSH1 0xFF DUP1 DUP4 AND PUSH1 0x0 SWAP1 DUP2 MSTORE PUSH1 0x1E PUSH1 0x20 SWAP1 DUP2 MSTORE PUSH1 0x40 DUP1 DUP4 KECCAK256 SWAP4 DUP6 AND DUP4 MSTORE SWAP3 SWAP1 MSTORE KECCAK256 DUP1 SLOAD PUSH1 0x60 SWAP2 SWAP1 PUSH2 0x9C8 SWAP1 PUSH2 0x4AE5 JUMP JUMPDEST DUP1 PUSH1 0x1F ADD PUSH1 0x20 DUP1 SWAP2 DIV MUL PUSH1 0x20 ADD PUSH1 0x40 MLOAD SWAP1 DUP2 ADD PUSH1 0x40 MSTORE DUP1 SWAP3 SWAP2 SWAP1 DUP2 DUP2 MSTORE PUSH1 0x20 ADD DUP3 DUP1 SLOAD PUSH2 0x9F4 SWAP1 PUSH2 0x4AE5 JUMP JUMPDEST DUP1 ISZERO PUSH2 0xA41 JUMPI DUP1 PUSH1 0x1F LT PUSH2 0xA16 JUMPI PUSH2 0x100 DUP1 DUP4 SLOAD DIV MUL DUP4 MSTORE SWAP2 PUSH1 0x20 ADD SWAP2 PUSH2 0xA41 JUMP JUMPDEST DUP3 ADD SWAP2 SWAP1 PUSH1 0x0 MSTORE PUSH1 0x20 PUSH1 0x0 KECCAK256 SWAP1 JUMPDEST DUP2 SLOAD DUP2 MSTORE SWAP1 PUSH1 0x1 ADD SWAP1 PUSH1 0x20 ADD DUP1 DUP4 GT PUSH2 0xA24 JUMPI DUP3 SWAP1 SUB PUSH1 0x1F AND DUP3 ADD SWAP2 JUMPDEST POP POP POP POP POP SWAP1 POP JUMPDEST SWAP3 SWAP2 POP POP JUMP JUMPDEST PUSH1 0x1F PUSH1 0x20 MSTORE PUSH1 0x0 SWAP1 DUP2 MSTORE PUSH1 0x40 SWAP1 KECCAK256 DUP1 SLOAD PUSH2 0xA68 SWAP1 PUSH2 0x4AE5 JUMP JUMPDEST DUP1 PUSH1 0x1F ADD PUSH1 0x20 DUP1 SWAP2 DIV MUL PUSH1 0x20 ADD PUSH1 0x40 MLOAD SWAP1 DUP2 ADD PUSH1 0x40 MSTORE DUP1 SWAP3 SWAP2 SWAP1 DUP2 DUP2 MSTORE PUSH1 0x20 ADD DUP3 DUP1 SLOAD PUSH2 0xA94 SWAP1 PUSH2 0x4AE5 JUMP JUMPDEST DUP1 ISZERO PUSH2 0xAE1 JUMPI DUP1 PUSH1 0x1F LT PUSH2 0xAB6 JUMPI PUSH2 0x100 DUP1 DUP4 SLOAD DIV MUL DUP4 MSTORE SWAP2 PUSH1 0x20 ADD SWAP2 PUSH2 0xAE1 JUMP JUMPDEST DUP3 ADD SWAP2 SWAP1 PUSH1 0x0 MSTORE PUSH1 0x20 PUSH1 0x0 KECCAK256 SWAP1 JUMPDEST DUP2 SLOAD DUP2 MSTORE SWAP1 PUSH1 0x1 ADD SWAP1 PUSH1 0x20 ADD DUP1 DUP4 GT PUSH2 0xAC4 JUMPI DUP3 SWAP1 SUB PUSH1 0x1F AND DUP3 ADD SWAP2 JUMPDEST POP POP POP POP POP DUP2 JUMP JUMPDEST PUSH1 0xFF DUP1 DUP3 AND PUSH1 0x0 SWAP1 DUP2 MSTORE PUSH1 0x1A PUSH1 0x20 MSTORE PUSH1 0x40 DUP2 KECCAK256 PUSH1 0x1 ADD SLOAD SWAP1 SWAP2 DUP3 SWAP2 PUSH4 0x1000000 SWAP1 DIV AND PUSH2 0xB58 JUMPI PUSH1 0x40 MLOAD PUSH3 0x461BCD PUSH1 0xE5 SHL DUP2 MSTORE PUSH1 0x20 PUSH1 0x4 DUP3 ADD MSTORE PUSH1 0x13 PUSH1 0x24 DUP3 ADD MSTORE PUSH32 0x436C616E20646F6573206E6F7420657869737400000000000000000000000000 PUSH1 0x44 DUP3 ADD MSTORE PUSH1 0x64 ADD PUSH2 0x789 JUMP JUMPDEST POP POP PUSH1 0xFF SWAP1 DUP2 AND PUSH1 0x0 SWAP1 DUP2 MSTORE PUSH1 0x1A PUSH1 0x20 MSTORE PUSH1 0x40 SWAP1 KECCAK256 PUSH1 0x1 ADD SLOAD DUP1 DUP3 AND SWAP3 PUSH2 0x100 SWAP1 SWAP2 DIV SWAP1 SWAP2 AND SWAP1 JUMP JUMPDEST PUSH1 0x14 SLOAD PUSH1 0x40 MLOAD PUSH4 0x8A888953 PUSH1 0xE0 SHL DUP2 MSTORE PUSH1 0xFF DUP1 DUP6 AND PUSH1 0x4 DUP4 ADD MSTORE DUP4 AND PUSH1 0x24 DUP3 ADD MSTORE DUP4 SWAP2 DUP4 SWAP2 CALLER SWAP2 PUSH1 0x1 PUSH1 0x1 PUSH1 0xA0 SHL SUB AND SWAP1 PUSH4 0x8A888953 SWAP1 PUSH1 0x44 ADD PUSH1 0x20 PUSH1 0x40 MLOAD DUP1 DUP4 SUB DUP2 DUP7 GAS STATICCALL ISZERO DUP1 ISZERO PUSH2 0xBD8 JUMPI RETURNDATASIZE PUSH1 0x0 DUP1 RETURNDATACOPY RETURNDATASIZE PUSH1 0x0 REVERT JUMPDEST POP POP POP POP PUSH1 0x40 MLOAD RETURNDATASIZE PUSH1 0x1F NOT PUSH1 0x1F DUP3 ADD AND DUP3 ADD DUP1 PUSH1 0x40 MSTORE POP DUP2 ADD SWAP1 PUSH2 0xBFC SWAP2 SWAP1 PUSH2 0x4A77 JUMP JUMPDEST PUSH1 0x1 PUSH1 0x1 PUSH1 0xA0 SHL SUB AND EQ PUSH2 0xC52 JUMPI PUSH1 0x40 MLOAD PUSH3 0x461BCD PUSH1 0xE5 SHL DUP2 MSTORE PUSH1 0x20 PUSH1 0x4 DUP3 ADD MSTORE PUSH1 0x18 PUSH1 0x24 DUP3 ADD MSTORE PUSH32 0x596F7520646F206E6F74206F776E20746869732074696C650000000000000000 PUSH1 0x44 DUP3 ADD MSTORE PUSH1 0x64 ADD PUSH2 0x789 JUMP JUMPDEST PUSH1 0xFF DUP4 DUP2 AND PUSH1 0x8 DUP7 SWAP1 SHL PUSH2 0xFF00 AND OR PUSH1 0x0 DUP2 DUP2 MSTORE PUSH1 0x1B PUSH1 0x20 MSTORE PUSH1 0x40 SWAP1 KECCAK256 SLOAD SWAP1 SWAP2 PUSH2 0x100 SWAP1 SWAP2 DIV AND PUSH2 0xCC5 JUMPI PUSH1 0x40 MLOAD PUSH3 0x461BCD PUSH1 0xE5 SHL DUP2 MSTORE PUSH1 0x20 PUSH1 0x4 DUP3 ADD MSTORE PUSH1 0x12 PUSH1 0x24 DUP3 ADD MSTORE PUSH32 0x54696C65206E6F7420696E206120636C616E0000000000000000000000000000 PUSH1 0x44 DUP3 ADD MSTORE PUSH1 0x64 ADD PUSH2 0x789 JUMP JUMPDEST PUSH2 0xFFFF DUP2 AND PUSH1 0x0 SWAP1 DUP2 MSTORE PUSH1 0x1B PUSH1 0x20 SWAP1 DUP2 MSTORE PUSH1 0x40 DUP1 DUP4 KECCAK256 SLOAD PUSH1 0xFF SWAP1 DUP2 AND DUP1 DUP6 MSTORE PUSH1 0x1A SWAP1 SWAP4 MSTORE SWAP3 KECCAK256 PUSH1 0x1 ADD SLOAD SWAP1 SWAP2 PUSH4 0x1000000 SWAP1 SWAP2 DIV AND PUSH2 0xD46 JUMPI PUSH1 0x40 MLOAD PUSH3 0x461BCD PUSH1 0xE5 SHL DUP2 MSTORE PUSH1 0x20 PUSH1 0x4 DUP3 ADD MSTORE PUSH1 0x13 PUSH1 0x24 DUP3 ADD MSTORE PUSH32 0x436C616E20646F6573206E6F7420657869737400000000000000000000000000 PUSH1 0x44 DUP3 ADD MSTORE PUSH1 0x64 ADD PUSH2 0x789 JUMP JUMPDEST PUSH1 0xFF DUP2 DUP2 AND PUSH1 0x0 SWAP1 DUP2 MSTORE PUSH1 0x1A PUSH1 0x20 MSTORE PUSH1 0x40 SWAP1 KECCAK256 PUSH1 0x1 ADD SLOAD DUP2 AND SWAP1 DUP8 AND EQ DUP1 ISZERO PUSH2 0xD8D JUMPI POP PUSH1 0xFF DUP2 DUP2 AND PUSH1 0x0 SWAP1 DUP2 MSTORE PUSH1 0x1A PUSH1 0x20 MSTORE PUSH1 0x40 SWAP1 KECCAK256 PUSH1 0x1 ADD SLOAD PUSH2 0x100 SWAP1 DIV DUP2 AND SWAP1 DUP7 AND EQ JUMPDEST ISZERO PUSH2 0xDDA JUMPI PUSH1 0x40 MLOAD PUSH3 0x461BCD PUSH1 0xE5 SHL DUP2 MSTORE PUSH1 0x20 PUSH1 0x4 DUP3 ADD MSTORE PUSH1 0x18 PUSH1 0x24 DUP3 ADD MSTORE PUSH32 0x4C65616465722074696C652063616E6E6F74206C656176650000000000000000 PUSH1 0x44 DUP3 ADD MSTORE PUSH1 0x64 ADD PUSH2 0x789 JUMP JUMPDEST PUSH1 0x15 SLOAD PUSH1 0x40 MLOAD PUSH32 0x23B872DD00000000000000000000000000000000000000000000000000000000 DUP2 MSTORE CALLER PUSH1 0x4 DUP3 ADD MSTORE ADDRESS PUSH1 0x24 DUP3 ADD MSTORE PUSH4 0x3B9ACA00 PUSH1 0x44 DUP3 ADD MSTORE PUSH1 0x1 PUSH1 0x1 PUSH1 0xA0 SHL SUB SWAP1 SWAP2 AND SWAP1 PUSH4 0x23B872DD SWAP1 PUSH1 0x64 ADD PUSH1 0x20 PUSH1 0x40 MLOAD DUP1 DUP4 SUB DUP2 PUSH1 0x0 DUP8 GAS CALL ISZERO DUP1 ISZERO PUSH2 0xE4D JUMPI RETURNDATASIZE PUSH1 0x0 DUP1 RETURNDATACOPY RETURNDATASIZE PUSH1 0x0 REVERT JUMPDEST POP POP POP POP PUSH1 0x40 MLOAD RETURNDATASIZE PUSH1 0x1F NOT PUSH1 0x1F DUP3 ADD AND DUP3 ADD DUP1 PUSH1 0x40 MSTORE POP DUP2 ADD SWAP1 PUSH2 0xE71 SWAP2 SWAP1 PUSH2 0x4A94 JUMP JUMPDEST PUSH2 0xEBD JUMPI PUSH1 0x40 MLOAD PUSH3 0x461BCD PUSH1 0xE5 SHL DUP2 MSTORE PUSH1 0x20 PUSH1 0x4 DUP3 ADD MSTORE PUSH1 0x13 PUSH1 0x24 DUP3 ADD MSTORE PUSH32 0x4C4F50207472616E73666572206661696C656400000000000000000000000000 PUSH1 0x44 DUP3 ADD MSTORE PUSH1 0x64 ADD PUSH2 0x789 JUMP JUMPDEST PUSH2 0xFFFF DUP3 AND PUSH1 0x0 SWAP1 DUP2 MSTORE PUSH1 0x1B PUSH1 0x20 SWAP1 DUP2 MSTORE PUSH1 0x40 DUP1 DUP4 KECCAK256 DUP1 SLOAD PUSH2 0xFF00 NOT AND SWAP1 SSTORE PUSH1 0xFF DUP10 DUP2 AND DUP5 MSTORE DUP3 DUP1 MSTORE DUP2 DUP5 KECCAK256 DUP10 DUP3 AND DUP6 MSTORE DUP4 MSTORE DUP2 DUP5 KECCAK256 DUP1 SLOAD PUSH1 0xFF NOT AND SWAP1 SSTORE DUP5 DUP2 AND DUP5 MSTORE PUSH1 0x1A SWAP1 SWAP3 MSTORE SWAP1 SWAP2 KECCAK256 PUSH1 0x1 ADD DUP1 SLOAD PUSH3 0x10000 SWAP1 DIV SWAP1 SWAP2 AND SWAP1 PUSH1 0x2 PUSH2 0xF22 DUP4 PUSH2 0x4C75 JUMP JUMPDEST DUP3 SLOAD PUSH2 0x100 SWAP3 SWAP1 SWAP3 EXP PUSH1 0xFF DUP2 DUP2 MUL NOT SWAP1 SWAP4 AND SWAP2 DUP4 AND MUL OR SWAP1 SWAP2 SSTORE DUP3 AND PUSH1 0x0 SWAP1 DUP2 MSTORE PUSH1 0x1C PUSH1 0x20 MSTORE PUSH1 0x40 DUP2 KECCAK256 SWAP2 POP JUMPDEST DUP2 SLOAD DUP2 LT ISZERO PUSH2 0x106E JUMPI DUP4 PUSH2 0xFFFF AND DUP3 DUP3 DUP2 SLOAD DUP2 LT PUSH2 0xF6F JUMPI PUSH2 0xF6F PUSH2 0x4C92 JUMP JUMPDEST PUSH1 0x0 SWAP2 DUP3 MSTORE PUSH1 0x20 SWAP1 SWAP2 KECCAK256 PUSH1 0x10 DUP3 DIV ADD SLOAD PUSH1 0xF SWAP1 SWAP2 AND PUSH1 0x2 MUL PUSH2 0x100 EXP SWAP1 DIV PUSH2 0xFFFF AND SUB PUSH2 0x105C JUMPI DUP2 SLOAD DUP3 SWAP1 PUSH2 0xFA6 SWAP1 PUSH1 0x1 SWAP1 PUSH2 0x4CC1 JUMP JUMPDEST DUP2 SLOAD DUP2 LT PUSH2 0xFB6 JUMPI PUSH2 0xFB6 PUSH2 0x4C92 JUMP JUMPDEST SWAP1 PUSH1 0x0 MSTORE PUSH1 0x20 PUSH1 0x0 KECCAK256 SWAP1 PUSH1 0x10 SWAP2 DUP3 DUP3 DIV ADD SWAP2 SWAP1 MOD PUSH1 0x2 MUL SWAP1 SLOAD SWAP1 PUSH2 0x100 EXP SWAP1 DIV PUSH2 0xFFFF AND DUP3 DUP3 DUP2 SLOAD DUP2 LT PUSH2 0xFEC JUMPI PUSH2 0xFEC PUSH2 0x4C92 JUMP JUMPDEST SWAP1 PUSH1 0x0 MSTORE PUSH1 0x20 PUSH1 0x0 KECCAK256 SWAP1 PUSH1 0x10 SWAP2 DUP3 DUP3 DIV ADD SWAP2 SWAP1 MOD PUSH1 0x2 MUL PUSH2 0x100 EXP DUP2 SLOAD DUP2 PUSH2 0xFFFF MUL NOT AND SWAP1 DUP4 PUSH2 0xFFFF AND MUL OR SWAP1 SSTORE POP DUP2 DUP1 SLOAD DUP1 PUSH2 0x102B JUMPI PUSH2 0x102B PUSH2 0x4CD4 JUMP JUMPDEST PUSH1 0x0 DUP3 DUP2 MSTORE PUSH1 0x20 SWAP1 KECCAK256 PUSH1 0x10 PUSH1 0x0 NOT SWAP1 SWAP3 ADD SWAP2 DUP3 DIV ADD DUP1 SLOAD PUSH2 0xFFFF PUSH1 0x2 PUSH1 0xF DUP6 AND MUL PUSH2 0x100 EXP MUL NOT AND SWAP1 SSTORE SWAP1 SSTORE PUSH2 0x106E JUMP JUMPDEST DUP1 PUSH2 0x1066 DUP2 PUSH2 0x4D03 JUMP JUMPDEST SWAP2 POP POP PUSH2 0xF4F JUMP JUMPDEST POP PUSH1 0x14 SLOAD PUSH1 0xFF DUP4 DUP2 AND PUSH1 0x0 SWAP1 DUP2 MSTORE PUSH1 0x1A PUSH1 0x20 MSTORE PUSH1 0x40 DUP1 DUP3 KECCAK256 PUSH1 0x1 ADD SLOAD SWAP1 MLOAD PUSH4 0x8A888953 PUSH1 0xE0 SHL DUP2 MSTORE DUP2 DUP5 AND PUSH1 0x4 DUP3 ADD MSTORE PUSH2 0x100 SWAP1 SWAP2 DIV SWAP1 SWAP3 AND PUSH1 0x24 DUP4 ADD MSTORE SWAP2 PUSH1 0x1 PUSH1 0x1 PUSH1 0xA0 SHL SUB AND SWAP1 PUSH4 0x8A888953 SWAP1 PUSH1 0x44 ADD PUSH1 0x20 PUSH1 0x40 MLOAD DUP1 DUP4 SUB DUP2 DUP7 GAS STATICCALL ISZERO DUP1 ISZERO PUSH2 0x10DD JUMPI RETURNDATASIZE PUSH1 0x0 DUP1 RETURNDATACOPY RETURNDATASIZE PUSH1 0x0 REVERT JUMPDEST POP POP POP POP PUSH1 0x40 MLOAD RETURNDATASIZE PUSH1 0x1F NOT PUSH1 0x1F DUP3 ADD AND DUP3 ADD DUP1 PUSH1 0x40 MSTORE POP DUP2 ADD SWAP1 PUSH2 0x1101 SWAP2 SWAP1 PUSH2 0x4A77 JUMP JUMPDEST PUSH1 0x15 SLOAD PUSH1 0x40 MLOAD PUSH32 0xA9059CBB00000000000000000000000000000000000000000000000000000000 DUP2 MSTORE PUSH1 0x1 PUSH1 0x1 PUSH1 0xA0 SHL SUB DUP1 DUP5 AND PUSH1 0x4 DUP4 ADD MSTORE PUSH4 0x35A4E900 PUSH1 0x24 DUP4 ADD MSTORE SWAP3 SWAP4 POP SWAP2 AND SWAP1 PUSH4 0xA9059CBB SWAP1 PUSH1 0x44 ADD PUSH1 0x20 PUSH1 0x40 MLOAD DUP1 DUP4 SUB DUP2 PUSH1 0x0 DUP8 GAS CALL ISZERO DUP1 ISZERO PUSH2 0x1172 JUMPI RETURNDATASIZE PUSH1 0x0 DUP1 RETURNDATACOPY RETURNDATASIZE PUSH1 0x0 REVERT JUMPDEST POP POP POP POP PUSH1 0x40 MLOAD RETURNDATASIZE PUSH1 0x1F NOT PUSH1 0x1F DUP3 ADD AND DUP3 ADD DUP1 PUSH1 0x40 MSTORE POP DUP2 ADD SWAP1 PUSH2 0x1196 SWAP2 SWAP1 PUSH2 0x4A94 JUMP JUMPDEST PUSH2 0x11E2 JUMPI PUSH1 0x40 MLOAD PUSH3 0x461BCD PUSH1 0xE5 SHL DUP2 MSTORE PUSH1 0x20 PUSH1 0x4 DUP3 ADD MSTORE PUSH1 0x14 PUSH1 0x24 DUP3 ADD MSTORE PUSH32 0x4C6561646572207061796F7574206661696C6564000000000000000000000000 PUSH1 0x44 DUP3 ADD MSTORE PUSH1 0x64 ADD PUSH2 0x789 JUMP JUMPDEST PUSH1 0x15 SLOAD PUSH1 0x40 MLOAD PUSH32 0x42966C6800000000000000000000000000000000000000000000000000000000 DUP2 MSTORE PUSH4 0x5F5E100 PUSH1 0x4 DUP3 ADD MSTORE PUSH1 0x1 PUSH1 0x1 PUSH1 0xA0 SHL SUB SWAP1 SWAP2 AND SWAP1 PUSH4 0x42966C68 SWAP1 PUSH1 0x24 ADD PUSH1 0x20 PUSH1 0x40 MLOAD DUP1 DUP4 SUB DUP2 PUSH1 0x0 DUP8 GAS CALL ISZERO DUP1 ISZERO PUSH2 0x1249 JUMPI RETURNDATASIZE PUSH1 0x0 DUP1 RETURNDATACOPY RETURNDATASIZE PUSH1 0x0 REVERT JUMPDEST POP POP POP POP PUSH1 0x40 MLOAD RETURNDATASIZE PUSH1 0x1F NOT PUSH1 0x1F DUP3 ADD AND DUP3 ADD DUP1 PUSH1 0x40 MSTORE POP DUP2 ADD SWAP1 PUSH2 0x126D SWAP2 SWAP1 PUSH2 0x4A94 JUMP JUMPDEST PUSH2 0x12B9 JUMPI PUSH1 0x40 MLOAD PUSH3 0x461BCD PUSH1 0xE5 SHL DUP2 MSTORE PUSH1 0x20 PUSH1 0x4 DUP3 ADD MSTORE PUSH1 0xB PUSH1 0x24 DUP3 ADD MSTORE PUSH32 0x4275726E206661696C6564000000000000000000000000000000000000000000 PUSH1 0x44 DUP3 ADD MSTORE PUSH1 0x64 ADD PUSH2 0x789 JUMP JUMPDEST POP POP POP POP POP POP POP POP JUMP JUMPDEST PUSH1 0x0 PUSH1 0x14 DUP4 PUSH1 0xFF AND LT DUP1 ISZERO PUSH2 0x12DB JUMPI POP PUSH1 0x14 DUP3 PUSH1 0xFF AND LT JUMPDEST PUSH2 0x1327 JUMPI PUSH1 0x40 MLOAD PUSH3 0x461BCD PUSH1 0xE5 SHL DUP2 MSTORE PUSH1 0x20 PUSH1 0x4 DUP3 ADD MSTORE PUSH1 0x13 PUSH1 0x24 DUP3 ADD MSTORE PUSH32 0x496E76616C696420636F6F7264696E6174657300000000000000000000000000 PUSH1 0x44 DUP3 ADD MSTORE PUSH1 0x64 ADD PUSH2 0x789 JUMP JUMPDEST PUSH1 0x0 DUP4 PUSH1 0xFF AND PUSH1 0x14 DUP2 LT PUSH2 0x133D JUMPI PUSH2 0x133D PUSH2 0x4C92 JUMP JUMPDEST ADD DUP3 PUSH1 0xFF AND PUSH1 0x14 DUP2 LT PUSH2 0x1352 JUMPI PUSH2 0x1352 PUSH2 0x4C92 JUMP JUMPDEST PUSH1 0x20 DUP2 DIV SWAP1 SWAP2 ADD SLOAD PUSH1 0xFF PUSH1 0x1F SWAP1 SWAP3 AND PUSH2 0x100 EXP SWAP1 DIV AND SWAP1 POP SWAP3 SWAP2 POP POP JUMP JUMPDEST PUSH1 0x60 PUSH1 0x0 DUP1 JUMPDEST PUSH1 0x14 DUP2 PUSH1 0xFF AND LT ISZERO PUSH2 0x13E9 JUMPI PUSH1 0x0 JUMPDEST PUSH1 0x14 DUP2 PUSH1 0xFF AND LT ISZERO PUSH2 0x13D6 JUMPI PUSH1 0xFF DUP1 DUP4 AND PUSH1 0x0 SWAP1 DUP2 MSTORE PUSH1 0x20 DUP1 DUP1 MSTORE PUSH1 0x40 DUP1 DUP4 KECCAK256 DUP6 DUP6 AND DUP5 MSTORE SWAP1 SWAP2 MSTORE SWAP1 KECCAK256 SLOAD AND ISZERO PUSH2 0x13C4 JUMPI DUP3 PUSH2 0x13C0 DUP2 PUSH2 0x4D03 JUMP JUMPDEST SWAP4 POP POP JUMPDEST DUP1 PUSH2 0x13CE DUP2 PUSH2 0x4D1D JUMP JUMPDEST SWAP2 POP POP PUSH2 0x1385 JUMP JUMPDEST POP DUP1 PUSH2 0x13E1 DUP2 PUSH2 0x4D1D JUMP JUMPDEST SWAP2 POP POP PUSH2 0x1376 JUMP JUMPDEST POP PUSH1 0x0 DUP2 PUSH8 0xFFFFFFFFFFFFFFFF DUP2 GT ISZERO PUSH2 0x1405 JUMPI PUSH2 0x1405 PUSH2 0x4AB6 JUMP JUMPDEST PUSH1 0x40 MLOAD SWAP1 DUP1 DUP3 MSTORE DUP1 PUSH1 0x20 MUL PUSH1 0x20 ADD DUP3 ADD PUSH1 0x40 MSTORE DUP1 ISZERO PUSH2 0x1457 JUMPI DUP2 PUSH1 0x20 ADD JUMPDEST PUSH1 0x40 DUP1 MLOAD PUSH1 0x80 DUP2 ADD DUP3 MSTORE PUSH1 0x0 DUP1 DUP3 MSTORE PUSH1 0x20 DUP1 DUP4 ADD DUP3 SWAP1 MSTORE SWAP3 DUP3 ADD DUP2 SWAP1 MSTORE PUSH1 0x60 DUP3 ADD MSTORE DUP3 MSTORE PUSH1 0x0 NOT SWAP1 SWAP3 ADD SWAP2 ADD DUP2 PUSH2 0x1423 JUMPI SWAP1 POP JUMPDEST POP SWAP1 POP PUSH1 0x0 DUP1 JUMPDEST PUSH1 0x14 DUP2 PUSH1 0xFF AND LT ISZERO PUSH2 0x1534 JUMPI PUSH1 0x0 JUMPDEST PUSH1 0x14 DUP2 PUSH1 0xFF AND LT ISZERO PUSH2 0x1521 JUMPI PUSH1 0xFF DUP1 DUP4 AND PUSH1 0x0 SWAP1 DUP2 MSTORE PUSH1 0x20 DUP1 DUP1 MSTORE PUSH1 0x40 DUP1 DUP4 KECCAK256 DUP6 DUP6 AND DUP5 MSTORE SWAP1 SWAP2 MSTORE SWAP1 KECCAK256 SLOAD AND DUP1 ISZERO PUSH2 0x150E JUMPI PUSH1 0x40 MLOAD DUP1 PUSH1 0x80 ADD PUSH1 0x40 MSTORE DUP1 DUP5 PUSH1 0xFF AND DUP2 MSTORE PUSH1 0x20 ADD DUP4 PUSH1 0xFF AND DUP2 MSTORE PUSH1 0x20 ADD DUP3 PUSH1 0xFF AND DUP2 MSTORE PUSH1 0x20 ADD PUSH1 0x22 PUSH1 0x0 DUP5 PUSH1 0xFF AND PUSH1 0xFF AND DUP2 MSTORE PUSH1 0x20 ADD SWAP1 DUP2 MSTORE PUSH1 0x20 ADD PUSH1 0x0 KECCAK256 SLOAD DUP2 MSTORE POP DUP6 DUP6 DUP2 MLOAD DUP2 LT PUSH2 0x14F4 JUMPI PUSH2 0x14F4 PUSH2 0x4C92 JUMP JUMPDEST PUSH1 0x20 MUL PUSH1 0x20 ADD ADD DUP2 SWAP1 MSTORE POP DUP4 DUP1 PUSH2 0x150A SWAP1 PUSH2 0x4D03 JUMP JUMPDEST SWAP5 POP POP JUMPDEST POP DUP1 PUSH2 0x1519 DUP2 PUSH2 0x4D1D JUMP JUMPDEST SWAP2 POP POP PUSH2 0x146D JUMP JUMPDEST POP DUP1 PUSH2 0x152C DUP2 PUSH2 0x4D1D JUMP JUMPDEST SWAP2 POP POP PUSH2 0x145E JUMP JUMPDEST POP SWAP1 SWAP4 SWAP3 POP POP POP JUMP JUMPDEST CALLER PUSH1 0x0 SWAP1 DUP2 MSTORE PUSH1 0x1F PUSH1 0x20 MSTORE PUSH1 0x40 SWAP1 KECCAK256 PUSH2 0x1557 DUP3 DUP5 DUP4 PUSH2 0x4B86 JUMP JUMPDEST POP POP POP JUMP JUMPDEST PUSH1 0x40 DUP1 MLOAD PUSH1 0xA0 DUP2 ADD DUP3 MSTORE PUSH1 0x60 DUP1 DUP3 MSTORE PUSH1 0x0 PUSH1 0x20 DUP4 ADD DUP2 SWAP1 MSTORE SWAP3 DUP3 ADD DUP4 SWAP1 MSTORE DUP2 ADD DUP3 SWAP1 MSTORE PUSH1 0x80 DUP2 ADD SWAP2 SWAP1 SWAP2 MSTORE PUSH1 0xFF DUP3 AND PUSH1 0x0 SWAP1 DUP2 MSTORE PUSH1 0x1A PUSH1 0x20 MSTORE PUSH1 0x40 SWAP1 DUP2 SWAP1 KECCAK256 DUP2 MLOAD PUSH1 0xA0 DUP2 ADD SWAP1 SWAP3 MSTORE DUP1 SLOAD DUP3 SWAP1 DUP3 SWAP1 PUSH2 0x15B3 SWAP1 PUSH2 0x4AE5 JUMP JUMPDEST DUP1 PUSH1 0x1F ADD PUSH1 0x20 DUP1 SWAP2 DIV MUL PUSH1 0x20 ADD PUSH1 0x40 MLOAD SWAP1 DUP2 ADD PUSH1 0x40 MSTORE DUP1 SWAP3 SWAP2 SWAP1 DUP2 DUP2 MSTORE PUSH1 0x20 ADD DUP3 DUP1 SLOAD PUSH2 0x15DF SWAP1 PUSH2 0x4AE5 JUMP JUMPDEST DUP1 ISZERO PUSH2 0x162C JUMPI DUP1 PUSH1 0x1F LT PUSH2 0x1601 JUMPI PUSH2 0x100 DUP1 DUP4 SLOAD DIV MUL DUP4 MSTORE SWAP2 PUSH1 0x20 ADD SWAP2 PUSH2 0x162C JUMP JUMPDEST DUP3 ADD SWAP2 SWAP1 PUSH1 0x0 MSTORE PUSH1 0x20 PUSH1 0x0 KECCAK256 SWAP1 JUMPDEST DUP2 SLOAD DUP2 MSTORE SWAP1 PUSH1 0x1 ADD SWAP1 PUSH1 0x20 ADD DUP1 DUP4 GT PUSH2 0x160F JUMPI DUP3 SWAP1 SUB PUSH1 0x1F AND DUP3 ADD SWAP2 JUMPDEST POP POP POP SWAP2 DUP4 MSTORE POP POP PUSH1 0x1 SWAP2 SWAP1 SWAP2 ADD SLOAD PUSH1 0xFF DUP1 DUP3 AND PUSH1 0x20 DUP5 ADD MSTORE PUSH2 0x100 DUP3 DIV DUP2 AND PUSH1 0x40 DUP5 ADD MSTORE PUSH3 0x10000 DUP3 DIV DUP2 AND PUSH1 0x60 DUP5 ADD MSTORE PUSH4 0x1000000 SWAP1 SWAP2 DIV AND ISZERO ISZERO PUSH1 0x80 SWAP1 SWAP2 ADD MSTORE SWAP3 SWAP2 POP POP JUMP JUMPDEST PUSH1 0x0 DUP1 PUSH2 0x16B7 DUP5 DUP5 DUP1 DUP1 PUSH1 0x1F ADD PUSH1 0x20 DUP1 SWAP2 DIV MUL PUSH1 0x20 ADD PUSH1 0x40 MLOAD SWAP1 DUP2 ADD PUSH1 0x40 MSTORE DUP1 SWAP4 SWAP3 SWAP2 SWAP1 DUP2 DUP2 MSTORE PUSH1 0x20 ADD DUP4 DUP4 DUP1 DUP3 DUP5 CALLDATACOPY PUSH1 0x0 SWAP3 ADD SWAP2 SWAP1 SWAP2 MSTORE POP PUSH2 0x41D5 SWAP3 POP POP POP JUMP JUMPDEST PUSH1 0x0 SWAP1 DUP2 MSTORE PUSH1 0x17 PUSH1 0x20 MSTORE PUSH1 0x40 SWAP1 KECCAK256 SLOAD PUSH1 0xFF AND ISZERO SWAP5 SWAP4 POP POP POP POP JUMP JUMPDEST PUSH1 0x14 SLOAD PUSH1 0x40 MLOAD PUSH4 0x8A888953 PUSH1 0xE0 SHL DUP2 MSTORE PUSH1 0xFF DUP1 DUP6 AND PUSH1 0x4 DUP4 ADD MSTORE DUP4 AND PUSH1 0x24 DUP3 ADD MSTORE DUP4 SWAP2 DUP4 SWAP2 CALLER SWAP2 PUSH1 0x1 PUSH1 0x1 PUSH1 0xA0 SHL SUB AND SWAP1 PUSH4 0x8A888953 SWAP1 PUSH1 0x44 ADD PUSH1 0x20 PUSH1 0x40 MLOAD DUP1 DUP4 SUB DUP2 DUP7 GAS STATICCALL ISZERO DUP1 ISZERO PUSH2 0x1729 JUMPI RETURNDATASIZE PUSH1 0x0 DUP1 RETURNDATACOPY RETURNDATASIZE PUSH1 0x0 REVERT JUMPDEST POP POP POP POP PUSH1 0x40 MLOAD RETURNDATASIZE PUSH1 0x1F NOT PUSH1 0x1F DUP3 ADD AND DUP3 ADD DUP1 PUSH1 0x40 MSTORE POP DUP2 ADD SWAP1 PUSH2 0x174D SWAP2 SWAP1 PUSH2 0x4A77 JUMP JUMPDEST PUSH1 0x1 PUSH1 0x1 PUSH1 0xA0 SHL SUB AND EQ PUSH2 0x17A3 JUMPI PUSH1 0x40 MLOAD PUSH3 0x461BCD PUSH1 0xE5 SHL DUP2 MSTORE PUSH1 0x20 PUSH1 0x4 DUP3 ADD MSTORE PUSH1 0x18 PUSH1 0x24 DUP3 ADD MSTORE PUSH32 0x596F7520646F206E6F74206F776E20746869732074696C650000000000000000 PUSH1 0x44 DUP3 ADD MSTORE PUSH1 0x64 ADD PUSH2 0x789 JUMP JUMPDEST PUSH1 0xFF DUP4 DUP2 AND PUSH1 0x8 DUP7 SWAP1 SHL PUSH2 0xFF00 AND OR PUSH1 0x0 DUP2 DUP2 MSTORE PUSH1 0x1D PUSH1 0x20 MSTORE PUSH1 0x40 SWAP1 KECCAK256 SLOAD SWAP1 SWAP2 AND PUSH2 0x1810 JUMPI PUSH1 0x40 MLOAD PUSH3 0x461BCD PUSH1 0xE5 SHL DUP2 MSTORE PUSH1 0x20 PUSH1 0x4 DUP3 ADD MSTORE PUSH1 0x1F PUSH1 0x24 DUP3 ADD MSTORE PUSH32 0x4E6F2070656E64696E6720696E7669746520666F7220746869732074696C6500 PUSH1 0x44 DUP3 ADD MSTORE PUSH1 0x64 ADD PUSH2 0x789 JUMP JUMPDEST PUSH2 0xFFFF AND PUSH1 0x0 SWAP1 DUP2 MSTORE PUSH1 0x1D PUSH1 0x20 MSTORE PUSH1 0x40 SWAP1 KECCAK256 DUP1 SLOAD PUSH1 0xFF NOT AND SWAP1 SSTORE POP POP POP POP JUMP JUMPDEST PUSH1 0xFF DUP1 DUP6 AND PUSH1 0x0 SWAP1 DUP2 MSTORE PUSH1 0x1A PUSH1 0x20 MSTORE PUSH1 0x40 SWAP1 KECCAK256 PUSH1 0x1 ADD SLOAD DUP6 SWAP2 DUP6 SWAP2 DUP6 SWAP2 PUSH4 0x1000000 SWAP1 SWAP2 DIV AND PUSH2 0x18A2 JUMPI PUSH1 0x40 MLOAD PUSH3 0x461BCD PUSH1 0xE5 SHL DUP2 MSTORE PUSH1 0x20 PUSH1 0x4 DUP3 ADD MSTORE PUSH1 0x13 PUSH1 0x24 DUP3 ADD MSTORE PUSH32 0x436C616E20646F6573206E6F7420657869737400000000000000000000000000 PUSH1 0x44 DUP3 ADD MSTORE PUSH1 0x64 ADD PUSH2 0x789 JUMP JUMPDEST PUSH1 0xFF DUP4 DUP2 AND PUSH1 0x0 SWAP1 DUP2 MSTORE PUSH1 0x1A PUSH1 0x20 MSTORE PUSH1 0x40 SWAP1 KECCAK256 PUSH1 0x1 ADD SLOAD DUP2 AND SWAP1 DUP4 AND EQ DUP1 ISZERO PUSH2 0x18E9 JUMPI POP PUSH1 0xFF DUP4 DUP2 AND PUSH1 0x0 SWAP1 DUP2 MSTORE PUSH1 0x1A PUSH1 0x20 MSTORE PUSH1 0x40 SWAP1 KECCAK256 PUSH1 0x1 ADD SLOAD PUSH2 0x100 SWAP1 DIV DUP2 AND SWAP1 DUP3 AND EQ JUMPDEST PUSH2 0x1935 JUMPI PUSH1 0x40 MLOAD PUSH3 0x461BCD PUSH1 0xE5 SHL DUP2 MSTORE PUSH1 0x20 PUSH1 0x4 DUP3 ADD MSTORE PUSH1 0xF PUSH1 0x24 DUP3 ADD MSTORE PUSH32 0x4E6F74206C65616465722074696C650000000000000000000000000000000000 PUSH1 0x44 DUP3 ADD MSTORE PUSH1 0x64 ADD PUSH2 0x789 JUMP JUMPDEST PUSH1 0x14 SLOAD PUSH1 0x40 MLOAD PUSH4 0x8A888953 PUSH1 0xE0 SHL DUP2 MSTORE PUSH1 0xFF DUP1 DUP6 AND PUSH1 0x4 DUP4 ADD MSTORE DUP4 AND PUSH1 0x24 DUP3 ADD MSTORE CALLER SWAP2 PUSH1 0x1 PUSH1 0x1 PUSH1 0xA0 SHL SUB AND SWAP1 PUSH4 0x8A888953 SWAP1 PUSH1 0x44 ADD PUSH1 0x20 PUSH1 0x40 MLOAD DUP1 DUP4 SUB DUP2 DUP7 GAS STATICCALL ISZERO DUP1 ISZERO PUSH2 0x1988 JUMPI RETURNDATASIZE PUSH1 0x0 DUP1 RETURNDATACOPY RETURNDATASIZE PUSH1 0x0 REVERT JUMPDEST POP POP POP POP PUSH1 0x40 MLOAD RETURNDATASIZE PUSH1 0x1F NOT PUSH1 0x1F DUP3 ADD AND DUP3 ADD DUP1 PUSH1 0x40 MSTORE POP DUP2 ADD SWAP1 PUSH2 0x19AC SWAP2 SWAP1 PUSH2 0x4A77 JUMP JUMPDEST PUSH1 0x1 PUSH1 0x1 PUSH1 0xA0 SHL SUB AND EQ PUSH2 0x1A02 JUMPI PUSH1 0x40 MLOAD PUSH3 0x461BCD PUSH1 0xE5 SHL DUP2 MSTORE PUSH1 0x20 PUSH1 0x4 DUP3 ADD MSTORE PUSH1 0x1D PUSH1 0x24 DUP3 ADD MSTORE PUSH32 0x596F7520646F6E2774206F776E20746865206C65616465722074696C65000000 PUSH1 0x44 DUP3 ADD MSTORE PUSH1 0x64 ADD PUSH2 0x789 JUMP JUMPDEST PUSH1 0x21 SLOAD PUSH1 0x40 MLOAD PUSH32 0x6352211E00000000000000000000000000000000000000000000000000000000 DUP2 MSTORE PUSH1 0x4 DUP2 ADD DUP7 SWAP1 MSTORE CALLER SWAP2 PUSH1 0x1 PUSH1 0x1 PUSH1 0xA0 SHL SUB AND SWAP1 PUSH4 0x6352211E SWAP1 PUSH1 0x24 ADD PUSH1 0x20 PUSH1 0x40 MLOAD DUP1 DUP4 SUB DUP2 DUP7 GAS STATICCALL ISZERO DUP1 ISZERO PUSH2 0x1A64 JUMPI RETURNDATASIZE PUSH1 0x0 DUP1 RETURNDATACOPY RETURNDATASIZE PUSH1 0x0 REVERT JUMPDEST POP POP POP POP PUSH1 0x40 MLOAD RETURNDATASIZE PUSH1 0x1F NOT PUSH1 0x1F DUP3 ADD AND DUP3 ADD DUP1 PUSH1 0x40 MSTORE POP DUP2 ADD SWAP1 PUSH2 0x1A88 SWAP2 SWAP1 PUSH2 0x4A77 JUMP JUMPDEST PUSH1 0x1 PUSH1 0x1 PUSH1 0xA0 SHL SUB AND EQ PUSH2 0x1ADE JUMPI PUSH1 0x40 MLOAD PUSH3 0x461BCD PUSH1 0xE5 SHL DUP2 MSTORE PUSH1 0x20 PUSH1 0x4 DUP3 ADD MSTORE PUSH1 0x16 PUSH1 0x24 DUP3 ADD MSTORE PUSH32 0x596F7520646F6E2774206F776E2074686973204E465400000000000000000000 PUSH1 0x44 DUP3 ADD MSTORE PUSH1 0x64 ADD PUSH2 0x789 JUMP JUMPDEST PUSH1 0x21 SLOAD PUSH1 0x40 MLOAD PUSH32 0xAD4C4F400000000000000000000000000000000000000000000000000000000 DUP2 MSTORE PUSH1 0x4 DUP2 ADD DUP7 SWAP1 MSTORE PUSH1 0x0 SWAP2 PUSH1 0x1 PUSH1 0x1 PUSH1 0xA0 SHL SUB AND SWAP1 PUSH4 0xAD4C4F4 SWAP1 PUSH1 0x24 ADD PUSH1 0x0 PUSH1 0x40 MLOAD DUP1 DUP4 SUB DUP2 DUP7 GAS STATICCALL ISZERO DUP1 ISZERO PUSH2 0x1B41 JUMPI RETURNDATASIZE PUSH1 0x0 DUP1 RETURNDATACOPY RETURNDATASIZE PUSH1 0x0 REVERT JUMPDEST POP POP POP POP PUSH1 0x40 MLOAD RETURNDATASIZE PUSH1 0x0 DUP3 RETURNDATACOPY PUSH1 0x1F RETURNDATASIZE SWAP1 DUP2 ADD PUSH1 0x1F NOT AND DUP3 ADD PUSH1 0x40 MSTORE PUSH2 0x1B69 SWAP2 SWAP1 DUP2 ADD SWAP1 PUSH2 0x4DC4 JUMP JUMPDEST POP SWAP10 POP POP POP POP POP POP POP POP POP POP DUP1 PUSH1 0x1 EQ PUSH2 0x1BEB JUMPI PUSH1 0x40 MLOAD PUSH3 0x461BCD PUSH1 0xE5 SHL DUP2 MSTORE PUSH1 0x20 PUSH1 0x4 DUP3 ADD MSTORE PUSH1 0x33 PUSH1 0x24 DUP3 ADD MSTORE PUSH32 0x4F6E6C79204E4654732066726F6D20636F6C6C656374696F6E20494420312063 PUSH1 0x44 DUP3 ADD MSTORE PUSH32 0x616E206265207573656420617320666C61677300000000000000000000000000 PUSH1 0x64 DUP3 ADD MSTORE PUSH1 0x84 ADD PUSH2 0x789 JUMP JUMPDEST PUSH1 0x16 SLOAD PUSH1 0x40 MLOAD PUSH32 0x1ACC55EA00000000000000000000000000000000000000000000000000000000 DUP2 MSTORE PUSH1 0xFF DUP1 DUP11 AND PUSH1 0x4 DUP4 ADD MSTORE DUP9 AND PUSH1 0x24 DUP3 ADD MSTORE PUSH1 0x1 PUSH1 0x1 PUSH1 0xA0 SHL SUB SWAP1 SWAP2 AND SWAP1 PUSH4 0x1ACC55EA SWAP1 PUSH1 0x44 ADD PUSH1 0x20 PUSH1 0x40 MLOAD DUP1 DUP4 SUB DUP2 DUP7 GAS STATICCALL ISZERO DUP1 ISZERO PUSH2 0x1C57 JUMPI RETURNDATASIZE PUSH1 0x0 DUP1 RETURNDATACOPY RETURNDATASIZE PUSH1 0x0 REVERT JUMPDEST POP POP POP POP PUSH1 0x40 MLOAD RETURNDATASIZE PUSH1 0x1F NOT PUSH1 0x1F DUP3 ADD AND DUP3 ADD DUP1 PUSH1 0x40 MSTORE POP DUP2 ADD SWAP1 PUSH2 0x1C7B SWAP2 SWAP1 PUSH2 0x4A94 JUMP JUMPDEST PUSH2 0x1CC7 JUMPI PUSH1 0x40 MLOAD PUSH3 0x461BCD PUSH1 0xE5 SHL DUP2 MSTORE PUSH1 0x20 PUSH1 0x4 DUP3 ADD MSTORE PUSH1 0x19 PUSH1 0x24 DUP3 ADD MSTORE PUSH32 0x596F75206D7573742068617665206120436C616E2048616C6C00000000000000 PUSH1 0x44 DUP3 ADD MSTORE PUSH1 0x64 ADD PUSH2 0x789 JUMP JUMPDEST PUSH1 0x15 SLOAD PUSH1 0x40 MLOAD PUSH32 0x23B872DD00000000000000000000000000000000000000000000000000000000 DUP2 MSTORE CALLER PUSH1 0x4 DUP3 ADD MSTORE ADDRESS PUSH1 0x24 DUP3 ADD MSTORE PUSH5 0x2540BE400 PUSH1 0x44 DUP3 ADD MSTORE PUSH1 0x1 PUSH1 0x1 PUSH1 0xA0 SHL SUB SWAP1 SWAP2 AND SWAP1 PUSH4 0x23B872DD SWAP1 PUSH1 0x64 ADD PUSH1 0x20 PUSH1 0x40 MLOAD DUP1 DUP4 SUB DUP2 PUSH1 0x0 DUP8 GAS CALL ISZERO DUP1 ISZERO PUSH2 0x1D3B JUMPI RETURNDATASIZE PUSH1 0x0 DUP1 RETURNDATACOPY RETURNDATASIZE PUSH1 0x0 REVERT JUMPDEST POP POP POP POP PUSH1 0x40 MLOAD RETURNDATASIZE PUSH1 0x1F NOT PUSH1 0x1F DUP3 ADD AND DUP3 ADD DUP1 PUSH1 0x40 MSTORE POP DUP2 ADD SWAP1 PUSH2 0x1D5F SWAP2 SWAP1 PUSH2 0x4A94 JUMP JUMPDEST PUSH2 0x1DAB JUMPI PUSH1 0x40 MLOAD PUSH3 0x461BCD PUSH1 0xE5 SHL DUP2 MSTORE PUSH1 0x20 PUSH1 0x4 DUP3 ADD MSTORE PUSH1 0x13 PUSH1 0x24 DUP3 ADD MSTORE PUSH32 0x4C4F50207472616E73666572206661696C656400000000000000000000000000 PUSH1 0x44 DUP3 ADD MSTORE PUSH1 0x64 ADD PUSH2 0x789 JUMP JUMPDEST POP POP POP PUSH1 0xFF SWAP1 SWAP5 AND PUSH1 0x0 SWAP1 DUP2 MSTORE PUSH1 0x22 PUSH1 0x20 MSTORE PUSH1 0x40 SWAP1 KECCAK256 SSTORE POP POP POP JUMP JUMPDEST PUSH1 0xFF DUP1 DUP5 AND PUSH1 0x0 SWAP1 DUP2 MSTORE PUSH1 0x1A PUSH1 0x20 MSTORE PUSH1 0x40 SWAP1 KECCAK256 PUSH1 0x1 ADD SLOAD DUP5 SWAP2 DUP5 SWAP2 DUP5 SWAP2 PUSH4 0x1000000 SWAP1 SWAP2 DIV AND PUSH2 0x1E39 JUMPI PUSH1 0x40 MLOAD PUSH3 0x461BCD PUSH1 0xE5 SHL DUP2 MSTORE PUSH1 0x20 PUSH1 0x4 DUP3 ADD MSTORE PUSH1 0x13 PUSH1 0x24 DUP3 ADD MSTORE PUSH32 0x436C616E20646F6573206E6F7420657869737400000000000000000000000000 PUSH1 0x44 DUP3 ADD MSTORE PUSH1 0x64 ADD PUSH2 0x789 JUMP JUMPDEST PUSH1 0xFF DUP4 DUP2 AND PUSH1 0x0 SWAP1 DUP2 MSTORE PUSH1 0x1A PUSH1 0x20 MSTORE PUSH1 0x40 SWAP1 KECCAK256 PUSH1 0x1 ADD SLOAD DUP2 AND SWAP1 DUP4 AND EQ DUP1 ISZERO PUSH2 0x1E80 JUMPI POP PUSH1 0xFF DUP4 DUP2 AND PUSH1 0x0 SWAP1 DUP2 MSTORE PUSH1 0x1A PUSH1 0x20 MSTORE PUSH1 0x40 SWAP1 KECCAK256 PUSH1 0x1 ADD SLOAD PUSH2 0x100 SWAP1 DIV DUP2 AND SWAP1 DUP3 AND EQ JUMPDEST PUSH2 0x1ECC JUMPI PUSH1 0x40 MLOAD PUSH3 0x461BCD PUSH1 0xE5 SHL DUP2 MSTORE PUSH1 0x20 PUSH1 0x4 DUP3 ADD MSTORE PUSH1 0xF PUSH1 0x24 DUP3 ADD MSTORE PUSH32 0x4E6F74206C65616465722074696C650000000000000000000000000000000000 PUSH1 0x44 DUP3 ADD MSTORE PUSH1 0x64 ADD PUSH2 0x789 JUMP JUMPDEST PUSH1 0x14 SLOAD PUSH1 0x40 MLOAD PUSH4 0x8A888953 PUSH1 0xE0 SHL DUP2 MSTORE PUSH1 0xFF DUP1 DUP6 AND PUSH1 0x4 DUP4 ADD MSTORE DUP4 AND PUSH1 0x24 DUP3 ADD MSTORE CALLER SWAP2 PUSH1 0x1 PUSH1 0x1 PUSH1 0xA0 SHL SUB AND SWAP1 PUSH4 0x8A888953 SWAP1 PUSH1 0x44 ADD PUSH1 0x20 PUSH1 0x40 MLOAD DUP1 DUP4 SUB DUP2 DUP7 GAS STATICCALL ISZERO DUP1 ISZERO PUSH2 0x1F1F JUMPI RETURNDATASIZE PUSH1 0x0 DUP1 RETURNDATACOPY RETURNDATASIZE PUSH1 0x0 REVERT JUMPDEST POP POP POP POP PUSH1 0x40 MLOAD RETURNDATASIZE PUSH1 0x1F NOT PUSH1 0x1F DUP3 ADD AND DUP3 ADD DUP1 PUSH1 0x40 MSTORE POP DUP2 ADD SWAP1 PUSH2 0x1F43 SWAP2 SWAP1 PUSH2 0x4A77 JUMP JUMPDEST PUSH1 0x1 PUSH1 0x1 PUSH1 0xA0 SHL SUB AND EQ PUSH2 0x1F99 JUMPI PUSH1 0x40 MLOAD PUSH3 0x461BCD PUSH1 0xE5 SHL DUP2 MSTORE PUSH1 0x20 PUSH1 0x4 DUP3 ADD MSTORE PUSH1 0x1D PUSH1 0x24 DUP3 ADD MSTORE PUSH32 0x596F7520646F6E2774206F776E20746865206C65616465722074696C65000000 PUSH1 0x44 DUP3 ADD MSTORE PUSH1 0x64 ADD PUSH2 0x789 JUMP JUMPDEST PUSH1 0x16 SLOAD PUSH1 0x40 MLOAD PUSH32 0x1ACC55EA00000000000000000000000000000000000000000000000000000000 DUP2 MSTORE PUSH1 0xFF DUP1 DUP9 AND PUSH1 0x4 DUP4 ADD MSTORE DUP7 AND PUSH1 0x24 DUP3 ADD MSTORE PUSH1 0x1 PUSH1 0x1 PUSH1 0xA0 SHL SUB SWAP1 SWAP2 AND SWAP1 PUSH4 0x1ACC55EA SWAP1 PUSH1 0x44 ADD PUSH1 0x20 PUSH1 0x40 MLOAD DUP1 DUP4 SUB DUP2 DUP7 GAS STATICCALL ISZERO DUP1 ISZERO PUSH2 0x2005 JUMPI RETURNDATASIZE PUSH1 0x0 DUP1 RETURNDATACOPY RETURNDATASIZE PUSH1 0x0 REVERT JUMPDEST POP POP POP POP PUSH1 0x40 MLOAD RETURNDATASIZE PUSH1 0x1F NOT PUSH1 0x1F DUP3 ADD AND DUP3 ADD DUP1 PUSH1 0x40 MSTORE POP DUP2 ADD SWAP1 PUSH2 0x2029 SWAP2 SWAP1 PUSH2 0x4A94 JUMP JUMPDEST PUSH2 0x2075 JUMPI PUSH1 0x40 MLOAD PUSH3 0x461BCD PUSH1 0xE5 SHL DUP2 MSTORE PUSH1 0x20 PUSH1 0x4 DUP3 ADD MSTORE PUSH1 0x19 PUSH1 0x24 DUP3 ADD MSTORE PUSH32 0x596F75206D7573742068617665206120436C616E2048616C6C00000000000000 PUSH1 0x44 DUP3 ADD MSTORE PUSH1 0x64 ADD PUSH2 0x789 JUMP JUMPDEST PUSH1 0xFF DUP7 AND PUSH1 0x0 SWAP1 DUP2 MSTORE PUSH1 0x1C PUSH1 0x20 MSTORE PUSH1 0x40 DUP2 KECCAK256 SWAP1 JUMPDEST DUP2 SLOAD DUP2 LT ISZERO PUSH2 0x2174 JUMPI PUSH1 0x0 DUP1 PUSH2 0x20DD DUP5 DUP5 DUP2 SLOAD DUP2 LT PUSH2 0x20AA JUMPI PUSH2 0x20AA PUSH2 0x4C92 JUMP JUMPDEST SWAP1 PUSH1 0x0 MSTORE PUSH1 0x20 PUSH1 0x0 KECCAK256 SWAP1 PUSH1 0x10 SWAP2 DUP3 DUP3 DIV ADD SWAP2 SWAP1 MOD PUSH1 0x2 MUL SWAP1 SLOAD SWAP1 PUSH2 0x100 EXP SWAP1 DIV PUSH2 0xFFFF AND PUSH1 0xFF PUSH1 0x8 DUP3 SWAP1 SHR DUP2 AND SWAP3 SWAP2 AND SWAP1 JUMP JUMPDEST SWAP2 POP SWAP2 POP PUSH1 0x0 PUSH1 0x1B PUSH1 0x0 DUP7 DUP7 DUP2 SLOAD DUP2 LT PUSH2 0x20F9 JUMPI PUSH2 0x20F9 PUSH2 0x4C92 JUMP JUMPDEST PUSH1 0x0 SWAP2 DUP3 MSTORE PUSH1 0x20 DUP1 DUP4 KECCAK256 PUSH1 0x10 DUP4 DIV ADD SLOAD PUSH1 0xF SWAP1 SWAP3 AND PUSH1 0x2 MUL PUSH2 0x100 SWAP1 DUP2 EXP SWAP1 SWAP3 DIV PUSH2 0xFFFF AND DUP5 MSTORE DUP4 DUP2 ADD SWAP5 SWAP1 SWAP5 MSTORE PUSH1 0x40 SWAP3 DUP4 ADD DUP3 KECCAK256 DUP1 SLOAD PUSH2 0xFF00 NOT AND SWAP6 ISZERO ISZERO SWAP1 SWAP2 MUL SWAP5 SWAP1 SWAP5 OR SWAP1 SWAP4 SSTORE PUSH1 0xFF SWAP5 DUP6 AND DUP4 MSTORE DUP2 DUP1 MSTORE DUP1 DUP4 KECCAK256 SWAP4 SWAP1 SWAP5 AND DUP3 MSTORE SWAP2 SWAP1 SWAP2 MSTORE KECCAK256 DUP1 SLOAD PUSH1 0xFF NOT AND SWAP1 SSTORE DUP1 PUSH2 0x216C DUP2 PUSH2 0x4D03 JUMP JUMPDEST SWAP2 POP POP PUSH2 0x2089 JUMP JUMPDEST POP PUSH1 0xFF DUP8 AND PUSH1 0x0 SWAP1 DUP2 MSTORE PUSH1 0x1C PUSH1 0x20 MSTORE PUSH1 0x40 DUP2 KECCAK256 PUSH2 0x2190 SWAP2 PUSH2 0x44F8 JUMP JUMPDEST PUSH1 0xFF DUP8 AND PUSH1 0x0 SWAP1 DUP2 MSTORE PUSH1 0x18 PUSH1 0x20 MSTORE PUSH1 0x40 SWAP1 KECCAK256 SLOAD DUP1 ISZERO PUSH2 0x21D1 JUMPI PUSH1 0x0 DUP2 DUP2 MSTORE PUSH1 0x17 PUSH1 0x20 SWAP1 DUP2 MSTORE PUSH1 0x40 DUP1 DUP4 KECCAK256 DUP1 SLOAD PUSH1 0xFF NOT AND SWAP1 SSTORE PUSH1 0xFF DUP12 AND DUP4 MSTORE PUSH1 0x18 SWAP1 SWAP2 MSTORE DUP2 KECCAK256 SSTORE JUMPDEST PUSH1 0xFF DUP9 AND PUSH1 0x0 SWAP1 DUP2 MSTORE PUSH1 0x1A PUSH1 0x20 MSTORE PUSH1 0x40 DUP2 KECCAK256 SWAP1 PUSH2 0x21EE DUP3 DUP3 PUSH2 0x4520 JUMP JUMPDEST POP PUSH1 0x1 ADD DUP1 SLOAD PUSH32 0xFFFFFFFFFFFFFFFFFFFFFFFFFFFFFFFFFFFFFFFFFFFFFFFFFFFFFFFF00000000 AND SWAP1 SSTORE POP POP POP POP POP POP POP POP JUMP JUMPDEST PUSH1 0x1E PUSH1 0x20 SWAP1 DUP2 MSTORE PUSH1 0x0 SWAP3 DUP4 MSTORE PUSH1 0x40 DUP1 DUP5 KECCAK256 SWAP1 SWAP2 MSTORE SWAP1 DUP3 MSTORE SWAP1 KECCAK256 DUP1 SLOAD PUSH2 0xA68 SWAP1 PUSH2 0x4AE5 JUMP JUMPDEST PUSH1 0x14 SLOAD PUSH1 0x40 MLOAD PUSH4 0x8A888953 PUSH1 0xE0 SHL DUP2 MSTORE PUSH1 0xFF DUP1 DUP8 AND PUSH1 0x4 DUP4 ADD MSTORE DUP6 AND PUSH1 0x24 DUP3 ADD MSTORE DUP6 SWAP2 DUP6 SWAP2 CALLER SWAP2 PUSH1 0x1 PUSH1 0x1 PUSH1 0xA0 SHL SUB AND SWAP1 PUSH4 0x8A888953 SWAP1 PUSH1 0x44 ADD PUSH1 0x20 PUSH1 0x40 MLOAD DUP1 DUP4 SUB DUP2 DUP7 GAS STATICCALL ISZERO DUP1 ISZERO PUSH2 0x229D JUMPI RETURNDATASIZE PUSH1 0x0 DUP1 RETURNDATACOPY RETURNDATASIZE PUSH1 0x0 REVERT JUMPDEST POP POP POP POP PUSH1 0x40 MLOAD RETURNDATASIZE PUSH1 0x1F NOT PUSH1 0x1F DUP3 ADD AND DUP3 ADD DUP1 PUSH1 0x40 MSTORE POP DUP2 ADD SWAP1 PUSH2 0x22C1 SWAP2 SWAP1 PUSH2 0x4A77 JUMP JUMPDEST PUSH1 0x1 PUSH1 0x1 PUSH1 0xA0 SHL SUB AND EQ PUSH2 0x2317 JUMPI PUSH1 0x40 MLOAD PUSH3 0x461BCD PUSH1 0xE5 SHL DUP2 MSTORE PUSH1 0x20 PUSH1 0x4 DUP3 ADD MSTORE PUSH1 0x18 PUSH1 0x24 DUP3 ADD MSTORE PUSH32 0x596F7520646F206E6F74206F776E20746869732074696C650000000000000000 PUSH1 0x44 DUP3 ADD MSTORE PUSH1 0x64 ADD PUSH2 0x789 JUMP JUMPDEST DUP3 PUSH2 0x2364 JUMPI PUSH1 0x40 MLOAD PUSH3 0x461BCD PUSH1 0xE5 SHL DUP2 MSTORE PUSH1 0x20 PUSH1 0x4 DUP3 ADD MSTORE PUSH1 0x19 PUSH1 0x24 DUP3 ADD MSTORE PUSH32 0x436C616E206E616D652063616E6E6F7420626520656D70747900000000000000 PUSH1 0x44 DUP3 ADD MSTORE PUSH1 0x64 ADD PUSH2 0x789 JUMP JUMPDEST PUSH1 0xFF DUP1 DUP8 AND PUSH1 0x0 SWAP1 DUP2 MSTORE PUSH1 0x20 DUP1 DUP1 MSTORE PUSH1 0x40 DUP1 DUP4 KECCAK256 DUP10 DUP6 AND DUP5 MSTORE SWAP1 SWAP2 MSTORE SWAP1 KECCAK256 SLOAD AND ISZERO PUSH2 0x23D1 JUMPI PUSH1 0x40 MLOAD PUSH3 0x461BCD PUSH1 0xE5 SHL DUP2 MSTORE PUSH1 0x20 PUSH1 0x4 DUP3 ADD MSTORE PUSH1 0x16 PUSH1 0x24 DUP3 ADD MSTORE PUSH32 0x54696C6520616C726561647920696E206120636C616E00000000000000000000 PUSH1 0x44 DUP3 ADD MSTORE PUSH1 0x64 ADD PUSH2 0x789 JUMP JUMPDEST PUSH1 0x0 PUSH2 0x2412 DUP6 DUP6 DUP1 DUP1 PUSH1 0x1F ADD PUSH1 0x20 DUP1 SWAP2 DIV MUL PUSH1 0x20 ADD PUSH1 0x40 MLOAD SWAP1 DUP2 ADD PUSH1 0x40 MSTORE DUP1 SWAP4 SWAP3 SWAP2 SWAP1 DUP2 DUP2 MSTORE PUSH1 0x20 ADD DUP4 DUP4 DUP1 DUP3 DUP5 CALLDATACOPY PUSH1 0x0 SWAP3 ADD SWAP2 SWAP1 SWAP2 MSTORE POP PUSH2 0x41D5 SWAP3 POP POP POP JUMP JUMPDEST PUSH1 0x0 DUP2 DUP2 MSTORE PUSH1 0x17 PUSH1 0x20 MSTORE PUSH1 0x40 SWAP1 KECCAK256 SLOAD SWAP1 SWAP2 POP PUSH1 0xFF AND ISZERO PUSH2 0x2474 JUMPI PUSH1 0x40 MLOAD PUSH3 0x461BCD PUSH1 0xE5 SHL DUP2 MSTORE PUSH1 0x20 PUSH1 0x4 DUP3 ADD MSTORE PUSH1 0x17 PUSH1 0x24 DUP3 ADD MSTORE PUSH32 0x436C616E206E616D6520616C72656164792074616B656E000000000000000000 PUSH1 0x44 DUP3 ADD MSTORE PUSH1 0x64 ADD PUSH2 0x789 JUMP JUMPDEST PUSH1 0x16 SLOAD PUSH1 0x40 MLOAD PUSH32 0x1ACC55EA00000000000000000000000000000000000000000000000000000000 DUP2 MSTORE PUSH1 0xFF DUP1 DUP11 AND PUSH1 0x4 DUP4 ADD MSTORE DUP9 AND PUSH1 0x24 DUP3 ADD MSTORE PUSH1 0x1 PUSH1 0x1 PUSH1 0xA0 SHL SUB SWAP1 SWAP2 AND SWAP1 PUSH4 0x1ACC55EA SWAP1 PUSH1 0x44 ADD PUSH1 0x20 PUSH1 0x40 MLOAD DUP1 DUP4 SUB DUP2 DUP7 GAS STATICCALL ISZERO DUP1 ISZERO PUSH2 0x24E0 JUMPI RETURNDATASIZE PUSH1 0x0 DUP1 RETURNDATACOPY RETURNDATASIZE PUSH1 0x0 REVERT JUMPDEST POP POP POP POP PUSH1 0x40 MLOAD RETURNDATASIZE PUSH1 0x1F NOT PUSH1 0x1F DUP3 ADD AND DUP3 ADD DUP1 PUSH1 0x40 MSTORE POP DUP2 ADD SWAP1 PUSH2 0x2504 SWAP2 SWAP1 PUSH2 0x4A94 JUMP JUMPDEST PUSH2 0x2550 JUMPI PUSH1 0x40 MLOAD PUSH3 0x461BCD PUSH1 0xE5 SHL DUP2 MSTORE PUSH1 0x20 PUSH1 0x4 DUP3 ADD MSTORE PUSH1 0x19 PUSH1 0x24 DUP3 ADD MSTORE PUSH32 0x596F75206D7573742068617665206120436C616E2048616C6C00000000000000 PUSH1 0x44 DUP3 ADD MSTORE PUSH1 0x64 ADD PUSH2 0x789 JUMP JUMPDEST PUSH1 0x15 SLOAD PUSH1 0x40 MLOAD PUSH32 0x23B872DD00000000000000000000000000000000000000000000000000000000 DUP2 MSTORE CALLER PUSH1 0x4 DUP3 ADD MSTORE ADDRESS PUSH1 0x24 DUP3 ADD MSTORE PUSH5 0x174876E800 PUSH1 0x44 DUP3 ADD MSTORE PUSH1 0x1 PUSH1 0x1 PUSH1 0xA0 SHL SUB SWAP1 SWAP2 AND SWAP1 PUSH4 0x23B872DD SWAP1 PUSH1 0x64 ADD PUSH1 0x20 PUSH1 0x40 MLOAD DUP1 DUP4 SUB DUP2 PUSH1 0x0 DUP8 GAS CALL ISZERO DUP1 ISZERO PUSH2 0x25C4 JUMPI RETURNDATASIZE PUSH1 0x0 DUP1 RETURNDATACOPY RETURNDATASIZE PUSH1 0x0 REVERT JUMPDEST POP POP POP POP PUSH1 0x40 MLOAD RETURNDATASIZE PUSH1 0x1F NOT PUSH1 0x1F DUP3 ADD AND DUP3 ADD DUP1 PUSH1 0x40 MSTORE POP DUP2 ADD SWAP1 PUSH2 0x25E8 SWAP2 SWAP1 PUSH2 0x4A94 JUMP JUMPDEST PUSH2 0x2634 JUMPI PUSH1 0x40 MLOAD PUSH3 0x461BCD PUSH1 0xE5 SHL DUP2 MSTORE PUSH1 0x20 PUSH1 0x4 DUP3 ADD MSTORE PUSH1 0x13 PUSH1 0x24 DUP3 ADD MSTORE PUSH32 0x4C4F50207472616E73666572206661696C656400000000000000000000000000 PUSH1 0x44 DUP3 ADD MSTORE PUSH1 0x64 ADD PUSH2 0x789 JUMP JUMPDEST PUSH1 0x19 DUP1 SLOAD PUSH1 0xFF AND SWAP1 PUSH1 0x0 PUSH2 0x2647 DUP4 PUSH2 0x4D1D JUMP JUMPDEST SWAP2 SWAP1 PUSH2 0x100 EXP DUP2 SLOAD DUP2 PUSH1 0xFF MUL NOT AND SWAP1 DUP4 PUSH1 0xFF AND MUL OR SWAP1 SSTORE POP POP PUSH1 0x40 MLOAD DUP1 PUSH1 0xA0 ADD PUSH1 0x40 MSTORE DUP1 DUP7 DUP7 DUP1 DUP1 PUSH1 0x1F ADD PUSH1 0x20 DUP1 SWAP2 DIV MUL PUSH1 0x20 ADD PUSH1 0x40 MLOAD SWAP1 DUP2 ADD PUSH1 0x40 MSTORE DUP1 SWAP4 SWAP3 SWAP2 SWAP1 DUP2 DUP2 MSTORE PUSH1 0x20 ADD DUP4 DUP4 DUP1 DUP3 DUP5 CALLDATACOPY PUSH1 0x0 SWAP3 ADD DUP3 SWAP1 MSTORE POP SWAP4 DUP6 MSTORE POP POP POP PUSH1 0xFF DUP1 DUP12 AND PUSH1 0x20 DUP1 DUP6 ADD SWAP2 SWAP1 SWAP2 MSTORE DUP11 DUP3 AND PUSH1 0x40 DUP1 DUP7 ADD SWAP2 SWAP1 SWAP2 MSTORE PUSH1 0x1 PUSH1 0x60 DUP7 ADD DUP2 SWAP1 MSTORE PUSH1 0x80 SWAP1 SWAP6 ADD SWAP5 SWAP1 SWAP5 MSTORE PUSH1 0x19 SLOAD SWAP1 SWAP2 AND DUP3 MSTORE PUSH1 0x1A SWAP1 MSTORE KECCAK256 DUP2 MLOAD DUP2 SWAP1 PUSH2 0x26EA SWAP1 DUP3 PUSH2 0x4F16 JUMP JUMPDEST POP PUSH1 0x20 DUP3 ADD MLOAD PUSH1 0x1 SWAP1 SWAP2 ADD DUP1 SLOAD PUSH1 0x40 DUP5 ADD MLOAD PUSH1 0x60 DUP6 ADD MLOAD PUSH1 0x80 SWAP1 SWAP6 ADD MLOAD ISZERO ISZERO PUSH4 0x1000000 MUL PUSH32 0xFFFFFFFFFFFFFFFFFFFFFFFFFFFFFFFFFFFFFFFFFFFFFFFFFFFFFFFF00FFFFFF PUSH1 0xFF SWAP7 DUP8 AND PUSH3 0x10000 MUL AND PUSH32 0xFFFFFFFFFFFFFFFFFFFFFFFFFFFFFFFFFFFFFFFFFFFFFFFFFFFFFFFF0000FFFF SWAP3 DUP8 AND PUSH2 0x100 MUL PUSH32 0xFFFFFFFFFFFFFFFFFFFFFFFFFFFFFFFFFFFFFFFFFFFFFFFFFFFFFFFFFFFF0000 SWAP1 SWAP5 AND SWAP7 SWAP1 SWAP6 AND SWAP6 SWAP1 SWAP6 OR SWAP2 SWAP1 SWAP2 OR AND SWAP2 SWAP1 SWAP2 OR SWAP2 SWAP1 SWAP2 OR SWAP1 SSTORE PUSH1 0x0 PUSH2 0x27B6 DUP9 DUP9 PUSH1 0xFF AND PUSH1 0x8 SWAP2 SWAP1 SWAP2 SHL PUSH2 0xFF00 AND OR SWAP1 JUMP JUMPDEST SWAP1 POP PUSH1 0x19 PUSH1 0x0 SWAP1 SLOAD SWAP1 PUSH2 0x100 EXP SWAP1 DIV PUSH1 0xFF AND PUSH1 0x20 PUSH1 0x0 DUP11 PUSH1 0xFF AND PUSH1 0xFF AND DUP2 MSTORE PUSH1 0x20 ADD SWAP1 DUP2 MSTORE PUSH1 0x20 ADD PUSH1 0x0 KECCAK256 PUSH1 0x0 DUP10 PUSH1 0xFF AND PUSH1 0xFF AND DUP2 MSTORE PUSH1 0x20 ADD SWAP1 DUP2 MSTORE PUSH1 0x20 ADD PUSH1 0x0 KECCAK256 PUSH1 0x0 PUSH2 0x100 EXP DUP2 SLOAD DUP2 PUSH1 0xFF MUL NOT AND SWAP1 DUP4 PUSH1 0xFF AND MUL OR SWAP1 SSTORE POP PUSH1 0x40 MLOAD DUP1 PUSH1 0x40 ADD PUSH1 0x40 MSTORE DUP1 PUSH1 0x19 PUSH1 0x0 SWAP1 SLOAD SWAP1 PUSH2 0x100 EXP SWAP1 DIV PUSH1 0xFF AND PUSH1 0xFF AND DUP2 MSTORE PUSH1 0x20 ADD PUSH1 0x1 ISZERO ISZERO DUP2 MSTORE POP PUSH1 0x1B PUSH1 0x0 DUP4 PUSH2 0xFFFF AND PUSH2 0xFFFF AND DUP2 MSTORE PUSH1 0x20 ADD SWAP1 DUP2 MSTORE PUSH1 0x20 ADD PUSH1 0x0 KECCAK256 PUSH1 0x0 DUP3 ADD MLOAD DUP2 PUSH1 0x0 ADD PUSH1 0x0 PUSH2 0x100 EXP DUP2 SLOAD DUP2 PUSH1 0xFF MUL NOT AND SWAP1 DUP4 PUSH1 0xFF AND MUL OR SWAP1 SSTORE POP PUSH1 0x20 DUP3 ADD MLOAD DUP2 PUSH1 0x0 ADD PUSH1 0x1 PUSH2 0x100 EXP DUP2 SLOAD DUP2 PUSH1 0xFF MUL NOT AND SWAP1 DUP4 ISZERO ISZERO MUL OR SWAP1 SSTORE POP SWAP1 POP POP PUSH1 0x1C PUSH1 0x0 PUSH1 0x19 PUSH1 0x0 SWAP1 SLOAD SWAP1 PUSH2 0x100 EXP SWAP1 DIV PUSH1 0xFF AND PUSH1 0xFF AND PUSH1 0xFF AND DUP2 MSTORE PUSH1 0x20 ADD SWAP1 DUP2 MSTORE PUSH1 0x20 ADD PUSH1 0x0 KECCAK256 DUP2 SWAP1 DUP1 PUSH1 0x1 DUP2 SLOAD ADD DUP1 DUP3 SSTORE DUP1 SWAP2 POP POP PUSH1 0x1 SWAP1 SUB SWAP1 PUSH1 0x0 MSTORE PUSH1 0x20 PUSH1 0x0 KECCAK256 SWAP1 PUSH1 0x10 SWAP2 DUP3 DUP3 DIV ADD SWAP2 SWAP1 MOD PUSH1 0x2 MUL SWAP1 SWAP2 SWAP1 SWAP2 SWAP1 SWAP2 PUSH2 0x100 EXP DUP2 SLOAD DUP2 PUSH2 0xFFFF MUL NOT AND SWAP1 DUP4 PUSH2 0xFFFF AND MUL OR SWAP1 SSTORE POP PUSH1 0x1 PUSH1 0x17 PUSH1 0x0 DUP5 DUP2 MSTORE PUSH1 0x20 ADD SWAP1 DUP2 MSTORE PUSH1 0x20 ADD PUSH1 0x0 KECCAK256 PUSH1 0x0 PUSH2 0x100 EXP DUP2 SLOAD DUP2 PUSH1 0xFF MUL NOT AND SWAP1 DUP4 ISZERO ISZERO MUL OR SWAP1 SSTORE POP DUP2 PUSH1 0x18 PUSH1 0x0 PUSH1 0x19 PUSH1 0x0 SWAP1 SLOAD SWAP1 PUSH2 0x100 EXP SWAP1 DIV PUSH1 0xFF AND PUSH1 0xFF AND PUSH1 0xFF AND DUP2 MSTORE PUSH1 0x20 ADD SWAP1 DUP2 MSTORE PUSH1 0x20 ADD PUSH1 0x0 KECCAK256 DUP2 SWAP1 SSTORE POP POP POP POP POP POP POP POP POP JUMP JUMPDEST PUSH1 0x60 PUSH1 0x0 PUSH1 0x1 JUMPDEST PUSH1 0x19 SLOAD PUSH1 0xFF SWAP1 DUP2 AND SWAP1 DUP3 AND GT PUSH2 0x29C7 JUMPI PUSH1 0xFF DUP1 DUP3 AND PUSH1 0x0 SWAP1 DUP2 MSTORE PUSH1 0x1A PUSH1 0x20 MSTORE PUSH1 0x40 SWAP1 KECCAK256 PUSH1 0x1 ADD SLOAD PUSH4 0x1000000 SWAP1 DIV AND ISZERO PUSH2 0x29B5 JUMPI DUP2 PUSH2 0x29B1 DUP2 PUSH2 0x4D03 JUMP JUMPDEST SWAP3 POP POP JUMPDEST DUP1 PUSH2 0x29BF DUP2 PUSH2 0x4D1D JUMP JUMPDEST SWAP2 POP POP PUSH2 0x2973 JUMP JUMPDEST POP PUSH1 0x0 DUP2 PUSH8 0xFFFFFFFFFFFFFFFF DUP2 GT ISZERO PUSH2 0x29E3 JUMPI PUSH2 0x29E3 PUSH2 0x4AB6 JUMP JUMPDEST PUSH1 0x40 MLOAD SWAP1 DUP1 DUP3 MSTORE DUP1 PUSH1 0x20 MUL PUSH1 0x20 ADD DUP3 ADD PUSH1 0x40 MSTORE DUP1 ISZERO PUSH2 0x2A3D JUMPI DUP2 PUSH1 0x20 ADD JUMPDEST PUSH1 0x40 DUP1 MLOAD PUSH1 0xA0 DUP2 ADD DUP3 MSTORE PUSH1 0x60 DUP1 DUP3 MSTORE PUSH1 0x0 PUSH1 0x20 DUP1 DUP5 ADD DUP3 SWAP1 MSTORE SWAP4 DUP4 ADD DUP2 SWAP1 MSTORE SWAP1 DUP3 ADD DUP2 SWAP1 MSTORE PUSH1 0x80 DUP3 ADD MSTORE DUP3 MSTORE PUSH1 0x0 NOT SWAP1 SWAP3 ADD SWAP2 ADD DUP2 PUSH2 0x2A01 JUMPI SWAP1 POP JUMPDEST POP SWAP1 POP PUSH1 0x0 PUSH1 0x1 JUMPDEST PUSH1 0x19 SLOAD PUSH1 0xFF SWAP1 DUP2 AND SWAP1 DUP3 AND GT PUSH2 0x1534 JUMPI PUSH1 0xFF DUP1 DUP3 AND PUSH1 0x0 SWAP1 DUP2 MSTORE PUSH1 0x1A PUSH1 0x20 MSTORE PUSH1 0x40 SWAP1 KECCAK256 PUSH1 0x1 ADD SLOAD PUSH4 0x1000000 SWAP1 DIV AND ISZERO PUSH2 0x2B8F JUMPI PUSH1 0xFF DUP2 AND PUSH1 0x0 SWAP1 DUP2 MSTORE PUSH1 0x1A PUSH1 0x20 MSTORE PUSH1 0x40 SWAP1 DUP2 SWAP1 KECCAK256 DUP2 MLOAD PUSH1 0xA0 DUP2 ADD SWAP1 SWAP3 MSTORE DUP1 SLOAD DUP3 SWAP1 DUP3 SWAP1 PUSH2 0x2AA5 SWAP1 PUSH2 0x4AE5 JUMP JUMPDEST DUP1 PUSH1 0x1F ADD PUSH1 0x20 DUP1 SWAP2 DIV MUL PUSH1 0x20 ADD PUSH1 0x40 MLOAD SWAP1 DUP2 ADD PUSH1 0x40 MSTORE DUP1 SWAP3 SWAP2 SWAP1 DUP2 DUP2 MSTORE PUSH1 0x20 ADD DUP3 DUP1 SLOAD PUSH2 0x2AD1 SWAP1 PUSH2 0x4AE5 JUMP JUMPDEST DUP1 ISZERO PUSH2 0x2B1E JUMPI DUP1 PUSH1 0x1F LT PUSH2 0x2AF3 JUMPI PUSH2 0x100 DUP1 DUP4 SLOAD DIV MUL DUP4 MSTORE SWAP2 PUSH1 0x20 ADD SWAP2 PUSH2 0x2B1E JUMP JUMPDEST DUP3 ADD SWAP2 SWAP1 PUSH1 0x0 MSTORE PUSH1 0x20 PUSH1 0x0 KECCAK256 SWAP1 JUMPDEST DUP2 SLOAD DUP2 MSTORE SWAP1 PUSH1 0x1 ADD SWAP1 PUSH1 0x20 ADD DUP1 DUP4 GT PUSH2 0x2B01 JUMPI DUP3 SWAP1 SUB PUSH1 0x1F AND DUP3 ADD SWAP2 JUMPDEST POP POP POP SWAP2 DUP4 MSTORE POP POP PUSH1 0x1 SWAP2 SWAP1 SWAP2 ADD SLOAD PUSH1 0xFF DUP1 DUP3 AND PUSH1 0x20 DUP5 ADD MSTORE PUSH2 0x100 DUP3 DIV DUP2 AND PUSH1 0x40 DUP5 ADD MSTORE PUSH3 0x10000 DUP3 DIV DUP2 AND PUSH1 0x60 DUP5 ADD MSTORE PUSH4 0x1000000 SWAP1 SWAP2 DIV AND ISZERO ISZERO PUSH1 0x80 SWAP1 SWAP2 ADD MSTORE DUP4 MLOAD DUP5 SWAP1 DUP5 SWAP1 DUP2 LT PUSH2 0x2B75 JUMPI PUSH2 0x2B75 PUSH2 0x4C92 JUMP JUMPDEST PUSH1 0x20 MUL PUSH1 0x20 ADD ADD DUP2 SWAP1 MSTORE POP DUP2 DUP1 PUSH2 0x2B8B SWAP1 PUSH2 0x4D03 JUMP JUMPDEST SWAP3 POP POP JUMPDEST DUP1 PUSH2 0x2B99 DUP2 PUSH2 0x4D1D JUMP JUMPDEST SWAP2 POP POP PUSH2 0x2A45 JUMP JUMPDEST PUSH1 0xFF DUP1 DUP4 AND PUSH1 0x0 SWAP1 DUP2 MSTORE PUSH1 0x20 DUP1 DUP1 MSTORE PUSH1 0x40 DUP1 DUP4 KECCAK256 DUP6 DUP6 AND DUP5 MSTORE SWAP1 SWAP2 MSTORE DUP2 KECCAK256 SLOAD PUSH1 0x60 SWAP3 AND SWAP1 DUP2 SWAP1 SUB PUSH2 0x2BE2 JUMPI POP POP PUSH1 0x40 DUP1 MLOAD PUSH1 0x20 DUP2 ADD SWAP1 SWAP2 MSTORE PUSH1 0x0 DUP2 MSTORE PUSH2 0xA49 JUMP JUMPDEST PUSH1 0xFF DUP1 DUP3 AND PUSH1 0x0 SWAP1 DUP2 MSTORE PUSH1 0x1A PUSH1 0x20 MSTORE PUSH1 0x40 SWAP1 KECCAK256 PUSH1 0x1 ADD SLOAD PUSH4 0x1000000 SWAP1 DIV AND PUSH2 0x2C4D JUMPI PUSH1 0x40 MLOAD PUSH3 0x461BCD PUSH1 0xE5 SHL DUP2 MSTORE PUSH1 0x20 PUSH1 0x4 DUP3 ADD MSTORE PUSH1 0x13 PUSH1 0x24 DUP3 ADD MSTORE PUSH32 0x436C616E20646F6573206E6F7420657869737400000000000000000000000000 PUSH1 0x44 DUP3 ADD MSTORE PUSH1 0x64 ADD PUSH2 0x789 JUMP JUMPDEST PUSH1 0xFF DUP2 AND PUSH1 0x0 SWAP1 DUP2 MSTORE PUSH1 0x1A PUSH1 0x20 MSTORE PUSH1 0x40 SWAP1 KECCAK256 DUP1 SLOAD PUSH2 0x2C6A SWAP1 PUSH2 0x4AE5 JUMP JUMPDEST DUP1 PUSH1 0x1F ADD PUSH1 0x20 DUP1 SWAP2 DIV MUL PUSH1 0x20 ADD PUSH1 0x40 MLOAD SWAP1 DUP2 ADD PUSH1 0x40 MSTORE DUP1 SWAP3 SWAP2 SWAP1 DUP2 DUP2 MSTORE PUSH1 0x20 ADD DUP3 DUP1 SLOAD PUSH2 0x2C96 SWAP1 PUSH2 0x4AE5 JUMP JUMPDEST DUP1 ISZERO PUSH2 0x2CE3 JUMPI DUP1 PUSH1 0x1F LT PUSH2 0x2CB8 JUMPI PUSH2 0x100 DUP1 DUP4 SLOAD DIV MUL DUP4 MSTORE SWAP2 PUSH1 0x20 ADD SWAP2 PUSH2 0x2CE3 JUMP JUMPDEST DUP3 ADD SWAP2 SWAP1 PUSH1 0x0 MSTORE PUSH1 0x20 PUSH1 0x0 KECCAK256 SWAP1 JUMPDEST DUP2 SLOAD DUP2 MSTORE SWAP1 PUSH1 0x1 ADD SWAP1 PUSH1 0x20 ADD DUP1 DUP4 GT PUSH2 0x2CC6 JUMPI DUP3 SWAP1 SUB PUSH1 0x1F AND DUP3 ADD SWAP2 JUMPDEST POP POP POP POP POP SWAP2 POP POP SWAP3 SWAP2 POP POP JUMP JUMPDEST PUSH1 0xFF DUP1 DUP3 AND PUSH1 0x0 SWAP1 DUP2 MSTORE PUSH1 0x1A PUSH1 0x20 MSTORE PUSH1 0x40 DUP2 KECCAK256 PUSH1 0x1 ADD SLOAD SWAP1 SWAP2 PUSH4 0x1000000 SWAP1 SWAP2 DIV AND PUSH2 0x2D5F JUMPI PUSH1 0x40 MLOAD PUSH3 0x461BCD PUSH1 0xE5 SHL DUP2 MSTORE PUSH1 0x20 PUSH1 0x4 DUP3 ADD MSTORE PUSH1 0x13 PUSH1 0x24 DUP3 ADD MSTORE PUSH32 0x436C616E20646F6573206E6F7420657869737400000000000000000000000000 PUSH1 0x44 DUP3 ADD MSTORE PUSH1 0x64 ADD PUSH2 0x789 JUMP JUMPDEST POP PUSH1 0xFF SWAP1 DUP2 AND PUSH1 0x0 SWAP1 DUP2 MSTORE PUSH1 0x1A PUSH1 0x20 MSTORE PUSH1 0x40 SWAP1 KECCAK256 PUSH1 0x1 ADD SLOAD PUSH3 0x10000 SWAP1 DIV AND SWAP1 JUMP JUMPDEST PUSH1 0x14 SLOAD PUSH1 0x40 MLOAD PUSH4 0x8A888953 PUSH1 0xE0 SHL DUP2 MSTORE PUSH1 0xFF DUP1 DUP6 AND PUSH1 0x4 DUP4 ADD MSTORE DUP4 AND PUSH1 0x24 DUP3 ADD MSTORE DUP4 SWAP2 DUP4 SWAP2 CALLER SWAP2 PUSH1 0x1 PUSH1 0x1 PUSH1 0xA0 SHL SUB AND SWAP1 PUSH4 0x8A888953 SWAP1 PUSH1 0x44 ADD PUSH1 0x20 PUSH1 0x40 MLOAD DUP1 DUP4 SUB DUP2 DUP7 GAS STATICCALL ISZERO DUP1 ISZERO PUSH2 0x2DD8 JUMPI RETURNDATASIZE PUSH1 0x0 DUP1 RETURNDATACOPY RETURNDATASIZE PUSH1 0x0 REVERT JUMPDEST POP POP POP POP PUSH1 0x40 MLOAD RETURNDATASIZE PUSH1 0x1F NOT PUSH1 0x1F DUP3 ADD AND DUP3 ADD DUP1 PUSH1 0x40 MSTORE POP DUP2 ADD SWAP1 PUSH2 0x2DFC SWAP2 SWAP1 PUSH2 0x4A77 JUMP JUMPDEST PUSH1 0x1 PUSH1 0x1 PUSH1 0xA0 SHL SUB AND EQ PUSH2 0x2E52 JUMPI PUSH1 0x40 MLOAD PUSH3 0x461BCD PUSH1 0xE5 SHL DUP2 MSTORE PUSH1 0x20 PUSH1 0x4 DUP3 ADD MSTORE PUSH1 0x18 PUSH1 0x24 DUP3 ADD MSTORE PUSH32 0x596F7520646F206E6F74206F776E20746869732074696C650000000000000000 PUSH1 0x44 DUP3 ADD MSTORE PUSH1 0x64 ADD PUSH2 0x789 JUMP JUMPDEST PUSH1 0xFF DUP4 DUP2 AND PUSH1 0x8 DUP7 SWAP1 SHL PUSH2 0xFF00 AND OR PUSH1 0x0 DUP2 DUP2 MSTORE PUSH1 0x1D PUSH1 0x20 MSTORE PUSH1 0x40 SWAP1 KECCAK256 SLOAD SWAP1 SWAP2 AND DUP1 PUSH2 0x2EC0 JUMPI PUSH1 0x40 MLOAD PUSH3 0x461BCD PUSH1 0xE5 SHL DUP2 MSTORE PUSH1 0x20 PUSH1 0x4 DUP3 ADD MSTORE PUSH1 0x1F PUSH1 0x24 DUP3 ADD MSTORE PUSH32 0x4E6F2070656E64696E6720696E7669746520666F7220746869732074696C6500 PUSH1 0x44 DUP3 ADD MSTORE PUSH1 0x64 ADD PUSH2 0x789 JUMP JUMPDEST PUSH1 0xFF DUP1 DUP3 AND PUSH1 0x0 SWAP1 DUP2 MSTORE PUSH1 0x1A PUSH1 0x20 MSTORE PUSH1 0x40 SWAP1 KECCAK256 PUSH1 0x1 ADD SLOAD PUSH4 0x1000000 SWAP1 DIV AND PUSH2 0x2F2B JUMPI PUSH1 0x40 MLOAD PUSH3 0x461BCD PUSH1 0xE5 SHL DUP2 MSTORE PUSH1 0x20 PUSH1 0x4 DUP3 ADD MSTORE PUSH1 0x13 PUSH1 0x24 DUP3 ADD MSTORE PUSH32 0x436C616E20646F6573206E6F7420657869737400000000000000000000000000 PUSH1 0x44 DUP3 ADD MSTORE PUSH1 0x64 ADD PUSH2 0x789 JUMP JUMPDEST PUSH1 0xFF DUP1 DUP8 AND PUSH1 0x0 SWAP1 DUP2 MSTORE PUSH1 0x20 DUP1 DUP1 MSTORE PUSH1 0x40 DUP1 DUP4 KECCAK256 DUP10 DUP6 AND DUP5 MSTORE SWAP1 SWAP2 MSTORE SWAP1 KECCAK256 SLOAD AND ISZERO PUSH2 0x2F98 JUMPI PUSH1 0x40 MLOAD PUSH3 0x461BCD PUSH1 0xE5 SHL DUP2 MSTORE PUSH1 0x20 PUSH1 0x4 DUP3 ADD MSTORE PUSH1 0x16 PUSH1 0x24 DUP3 ADD MSTORE PUSH32 0x54696C6520616C726561647920696E206120636C616E00000000000000000000 PUSH1 0x44 DUP3 ADD MSTORE PUSH1 0x64 ADD PUSH2 0x789 JUMP JUMPDEST PUSH1 0xFF DUP2 DUP2 AND PUSH1 0x0 SWAP1 DUP2 MSTORE PUSH1 0x1A PUSH1 0x20 MSTORE PUSH1 0x40 SWAP1 KECCAK256 PUSH1 0x1 ADD SLOAD PUSH1 0x1E PUSH3 0x10000 SWAP1 SWAP2 DIV SWAP1 SWAP2 AND LT PUSH2 0x2FE0 JUMPI POP PUSH2 0xFFFF AND PUSH1 0x0 SWAP1 DUP2 MSTORE PUSH1 0x1D PUSH1 0x20 MSTORE PUSH1 0x40 SWAP1 KECCAK256 DUP1 SLOAD PUSH1 0xFF NOT AND SWAP1 SSTORE PUSH2 0x3102 JUMP JUMPDEST PUSH1 0xFF DUP7 DUP2 AND PUSH1 0x0 SWAP1 DUP2 MSTORE PUSH1 0x20 DUP1 DUP1 MSTORE PUSH1 0x40 DUP1 DUP4 KECCAK256 DUP10 DUP6 AND DUP5 MSTORE DUP3 MSTORE DUP1 DUP4 KECCAK256 DUP1 SLOAD PUSH1 0xFF NOT AND DUP7 DUP7 AND SWAP1 DUP2 OR SWAP1 SWAP2 SSTORE DUP2 MLOAD DUP1 DUP4 ADD DUP4 MSTORE DUP2 DUP2 MSTORE PUSH1 0x1 DUP2 DUP6 ADD DUP2 DUP2 MSTORE PUSH2 0xFFFF DUP11 DUP2 AND DUP1 DUP10 MSTORE PUSH1 0x1B DUP9 MSTORE DUP7 DUP10 KECCAK256 SWAP5 MLOAD DUP6 SLOAD SWAP4 MLOAD SWAP1 DUP12 AND PUSH32 0xFFFFFFFFFFFFFFFFFFFFFFFFFFFFFFFFFFFFFFFFFFFFFFFFFFFFFFFFFFFF0000 SWAP1 SWAP5 AND SWAP4 SWAP1 SWAP4 OR PUSH2 0x100 SWAP4 ISZERO ISZERO DUP5 MUL OR SWAP1 SWAP5 SSTORE DUP5 DUP9 MSTORE PUSH1 0x1C DUP8 MSTORE DUP6 DUP9 KECCAK256 DUP1 SLOAD DUP1 DUP6 ADD DUP3 SSTORE SWAP1 DUP10 MSTORE DUP8 DUP10 KECCAK256 PUSH1 0x10 DUP3 DIV ADD DUP1 SLOAD PUSH1 0xF SWAP1 SWAP3 AND PUSH1 0x2 SWAP1 DUP2 MUL SWAP1 SWAP5 EXP SWAP3 DUP4 MUL NOT SWAP1 SWAP2 AND SWAP2 SWAP1 SWAP5 MUL OR SWAP1 SWAP3 SSTORE SWAP2 DUP6 MSTORE PUSH1 0x1A SWAP1 SWAP4 MSTORE SWAP3 KECCAK256 SWAP1 SWAP2 ADD DUP1 SLOAD PUSH3 0x10000 SWAP1 DIV SWAP1 SWAP3 AND SWAP2 SWAP1 PUSH2 0x30C9 DUP4 PUSH2 0x4D1D JUMP JUMPDEST DUP3 SLOAD PUSH1 0xFF SWAP2 DUP3 AND PUSH2 0x100 SWAP4 SWAP1 SWAP4 EXP SWAP3 DUP4 MUL SWAP2 SWAP1 SWAP3 MUL NOT SWAP1 SWAP2 AND OR SWAP1 SSTORE POP POP PUSH2 0xFFFF AND PUSH1 0x0 SWAP1 DUP2 MSTORE PUSH1 0x1D PUSH1 0x20 MSTORE PUSH1 0x40 SWAP1 KECCAK256 DUP1 SLOAD PUSH1 0xFF NOT AND SWAP1 SSTORE JUMPDEST POP POP POP POP JUMP JUMPDEST PUSH1 0x0 DUP3 PUSH1 0x14 DUP2 LT PUSH2 0x3118 JUMPI PUSH1 0x0 DUP1 REVERT JUMPDEST ADD DUP2 PUSH1 0x14 DUP2 LT PUSH2 0x3127 JUMPI PUSH1 0x0 DUP1 REVERT JUMPDEST PUSH1 0x20 DUP2 DIV SWAP1 SWAP2 ADD SLOAD PUSH1 0xFF PUSH1 0x1F SWAP1 SWAP3 AND PUSH2 0x100 EXP SWAP1 DIV AND SWAP2 POP DUP3 SWAP1 POP JUMP JUMPDEST PUSH1 0xFF DUP2 AND PUSH1 0x0 SWAP1 DUP2 MSTORE PUSH1 0x1C PUSH1 0x20 MSTORE PUSH1 0x40 DUP2 KECCAK256 DUP1 SLOAD PUSH1 0x60 SWAP3 SWAP1 PUSH8 0xFFFFFFFFFFFFFFFF DUP2 GT ISZERO PUSH2 0x3174 JUMPI PUSH2 0x3174 PUSH2 0x4AB6 JUMP JUMPDEST PUSH1 0x40 MLOAD SWAP1 DUP1 DUP3 MSTORE DUP1 PUSH1 0x20 MUL PUSH1 0x20 ADD DUP3 ADD PUSH1 0x40 MSTORE DUP1 ISZERO PUSH2 0x31C6 JUMPI DUP2 PUSH1 0x20 ADD JUMPDEST PUSH1 0x40 DUP1 MLOAD PUSH1 0x80 DUP2 ADD DUP3 MSTORE PUSH1 0x0 DUP1 DUP3 MSTORE PUSH1 0x20 DUP1 DUP4 ADD DUP3 SWAP1 MSTORE SWAP3 DUP3 ADD DUP2 SWAP1 MSTORE PUSH1 0x60 DUP3 ADD MSTORE DUP3 MSTORE PUSH1 0x0 NOT SWAP1 SWAP3 ADD SWAP2 ADD DUP2 PUSH2 0x3192 JUMPI SWAP1 POP JUMPDEST POP SWAP1 POP PUSH1 0x0 JUMPDEST DUP3 SLOAD DUP2 LT ISZERO PUSH2 0x3266 JUMPI PUSH1 0x0 DUP1 PUSH2 0x31ED DUP6 DUP5 DUP2 SLOAD DUP2 LT PUSH2 0x20AA JUMPI PUSH2 0x20AA PUSH2 0x4C92 JUMP JUMPDEST SWAP2 POP SWAP2 POP PUSH1 0x40 MLOAD DUP1 PUSH1 0x80 ADD PUSH1 0x40 MSTORE DUP1 DUP4 PUSH1 0xFF AND DUP2 MSTORE PUSH1 0x20 ADD DUP3 PUSH1 0xFF AND DUP2 MSTORE PUSH1 0x20 ADD DUP9 PUSH1 0xFF AND DUP2 MSTORE PUSH1 0x20 ADD PUSH1 0x22 PUSH1 0x0 DUP11 PUSH1 0xFF AND PUSH1 0xFF AND DUP2 MSTORE PUSH1 0x20 ADD SWAP1 DUP2 MSTORE PUSH1 0x20 ADD PUSH1 0x0 KECCAK256 SLOAD DUP2 MSTORE POP DUP5 DUP5 DUP2 MLOAD DUP2 LT PUSH2 0x3246 JUMPI PUSH2 0x3246 PUSH2 0x4C92 JUMP JUMPDEST PUSH1 0x20 MUL PUSH1 0x20 ADD ADD DUP2 SWAP1 MSTORE POP POP POP DUP1 DUP1 PUSH2 0x325E SWAP1 PUSH2 0x4D03 JUMP JUMPDEST SWAP2 POP POP PUSH2 0x31CC JUMP JUMPDEST POP SWAP4 SWAP3 POP POP POP JUMP JUMPDEST PUSH1 0xFF DUP1 DUP7 AND PUSH1 0x0 SWAP1 DUP2 MSTORE PUSH1 0x1A PUSH1 0x20 MSTORE PUSH1 0x40 SWAP1 KECCAK256 PUSH1 0x1 ADD SLOAD DUP7 SWAP2 DUP7 SWAP2 DUP7 SWAP2 PUSH4 0x1000000 SWAP1 SWAP2 DIV AND PUSH2 0x32E0 JUMPI PUSH1 0x40 MLOAD PUSH3 0x461BCD PUSH1 0xE5 SHL DUP2 MSTORE PUSH1 0x20 PUSH1 0x4 DUP3 ADD MSTORE PUSH1 0x13 PUSH1 0x24 DUP3 ADD MSTORE PUSH32 0x436C616E20646F6573206E6F7420657869737400000000000000000000000000 PUSH1 0x44 DUP3 ADD MSTORE PUSH1 0x64 ADD PUSH2 0x789 JUMP JUMPDEST PUSH1 0xFF DUP4 DUP2 AND PUSH1 0x0 SWAP1 DUP2 MSTORE PUSH1 0x1A PUSH1 0x20 MSTORE PUSH1 0x40 SWAP1 KECCAK256 PUSH1 0x1 ADD SLOAD DUP2 AND SWAP1 DUP4 AND EQ DUP1 ISZERO PUSH2 0x3327 JUMPI POP PUSH1 0xFF DUP4 DUP2 AND PUSH1 0x0 SWAP1 DUP2 MSTORE PUSH1 0x1A PUSH1 0x20 MSTORE PUSH1 0x40 SWAP1 KECCAK256 PUSH1 0x1 ADD SLOAD PUSH2 0x100 SWAP1 DIV DUP2 AND SWAP1 DUP3 AND EQ JUMPDEST PUSH2 0x3373 JUMPI PUSH1 0x40 MLOAD PUSH3 0x461BCD PUSH1 0xE5 SHL DUP2 MSTORE PUSH1 0x20 PUSH1 0x4 DUP3 ADD MSTORE PUSH1 0xF PUSH1 0x24 DUP3 ADD MSTORE PUSH32 0x4E6F74206C65616465722074696C650000000000000000000000000000000000 PUSH1 0x44 DUP3 ADD MSTORE PUSH1 0x64 ADD PUSH2 0x789 JUMP JUMPDEST PUSH1 0x14 SLOAD PUSH1 0x40 MLOAD PUSH4 0x8A888953 PUSH1 0xE0 SHL DUP2 MSTORE PUSH1 0xFF DUP1 DUP6 AND PUSH1 0x4 DUP4 ADD MSTORE DUP4 AND PUSH1 0x24 DUP3 ADD MSTORE CALLER SWAP2 PUSH1 0x1 PUSH1 0x1 PUSH1 0xA0 SHL SUB AND SWAP1 PUSH4 0x8A888953 SWAP1 PUSH1 0x44 ADD PUSH1 0x20 PUSH1 0x40 MLOAD DUP1 DUP4 SUB DUP2 DUP7 GAS STATICCALL ISZERO DUP1 ISZERO PUSH2 0x33C6 JUMPI RETURNDATASIZE PUSH1 0x0 DUP1 RETURNDATACOPY RETURNDATASIZE PUSH1 0x0 REVERT JUMPDEST POP POP POP POP PUSH1 0x40 MLOAD RETURNDATASIZE PUSH1 0x1F NOT PUSH1 0x1F DUP3 ADD AND DUP3 ADD DUP1 PUSH1 0x40 MSTORE POP DUP2 ADD SWAP1 PUSH2 0x33EA SWAP2 SWAP1 PUSH2 0x4A77 JUMP JUMPDEST PUSH1 0x1 PUSH1 0x1 PUSH1 0xA0 SHL SUB AND EQ PUSH2 0x3440 JUMPI PUSH1 0x40 MLOAD PUSH3 0x461BCD PUSH1 0xE5 SHL DUP2 MSTORE PUSH1 0x20 PUSH1 0x4 DUP3 ADD MSTORE PUSH1 0x1D PUSH1 0x24 DUP3 ADD MSTORE PUSH32 0x596F7520646F6E2774206F776E20746865206C65616465722074696C65000000 PUSH1 0x44 DUP3 ADD MSTORE PUSH1 0x64 ADD PUSH2 0x789 JUMP JUMPDEST PUSH1 0xFF DUP1 DUP10 AND PUSH1 0x0 SWAP1 DUP2 MSTORE PUSH1 0x1A PUSH1 0x20 MSTORE PUSH1 0x40 SWAP1 KECCAK256 PUSH1 0x1 ADD SLOAD PUSH4 0x1000000 SWAP1 DIV AND PUSH2 0x34AB JUMPI PUSH1 0x40 MLOAD PUSH3 0x461BCD PUSH1 0xE5 SHL DUP2 MSTORE PUSH1 0x20 PUSH1 0x4 DUP3 ADD MSTORE PUSH1 0x13 PUSH1 0x24 DUP3 ADD MSTORE PUSH32 0x436C616E20646F6573206E6F7420657869737400000000000000000000000000 PUSH1 0x44 DUP3 ADD MSTORE PUSH1 0x64 ADD PUSH2 0x789 JUMP JUMPDEST PUSH1 0xFF DUP9 DUP2 AND PUSH1 0x0 SWAP1 DUP2 MSTORE PUSH1 0x1A PUSH1 0x20 MSTORE PUSH1 0x40 SWAP1 KECCAK256 PUSH1 0x1 ADD SLOAD PUSH1 0x1E PUSH3 0x10000 SWAP1 SWAP2 DIV SWAP1 SWAP2 AND LT PUSH2 0x351B JUMPI PUSH1 0x40 MLOAD PUSH3 0x461BCD PUSH1 0xE5 SHL DUP2 MSTORE PUSH1 0x20 PUSH1 0x4 DUP3 ADD MSTORE PUSH1 0xC PUSH1 0x24 DUP3 ADD MSTORE PUSH32 0x436C616E2069732066756C6C0000000000000000000000000000000000000000 PUSH1 0x44 DUP3 ADD MSTORE PUSH1 0x64 ADD PUSH2 0x789 JUMP JUMPDEST PUSH1 0x16 SLOAD PUSH1 0x40 MLOAD PUSH32 0x1ACC55EA00000000000000000000000000000000000000000000000000000000 DUP2 MSTORE PUSH1 0xFF DUP1 DUP11 AND PUSH1 0x4 DUP4 ADD MSTORE DUP9 AND PUSH1 0x24 DUP3 ADD MSTORE PUSH1 0x1 PUSH1 0x1 PUSH1 0xA0 SHL SUB SWAP1 SWAP2 AND SWAP1 PUSH4 0x1ACC55EA SWAP1 PUSH1 0x44 ADD PUSH1 0x20 PUSH1 0x40 MLOAD DUP1 DUP4 SUB DUP2 DUP7 GAS STATICCALL ISZERO DUP1 ISZERO PUSH2 0x3587 JUMPI RETURNDATASIZE PUSH1 0x0 DUP1 RETURNDATACOPY RETURNDATASIZE PUSH1 0x0 REVERT JUMPDEST POP POP POP POP PUSH1 0x40 MLOAD RETURNDATASIZE PUSH1 0x1F NOT PUSH1 0x1F DUP3 ADD AND DUP3 ADD DUP1 PUSH1 0x40 MSTORE POP DUP2 ADD SWAP1 PUSH2 0x35AB SWAP2 SWAP1 PUSH2 0x4A94 JUMP JUMPDEST PUSH2 0x35F7 JUMPI PUSH1 0x40 MLOAD PUSH3 0x461BCD PUSH1 0xE5 SHL DUP2 MSTORE PUSH1 0x20 PUSH1 0x4 DUP3 ADD MSTORE PUSH1 0x19 PUSH1 0x24 DUP3 ADD MSTORE PUSH32 0x596F75206D7573742068617665206120436C616E2048616C6C00000000000000 PUSH1 0x44 DUP3 ADD MSTORE PUSH1 0x64 ADD PUSH2 0x789 JUMP JUMPDEST PUSH1 0x14 SLOAD PUSH1 0x40 MLOAD PUSH4 0x8A888953 PUSH1 0xE0 SHL DUP2 MSTORE PUSH1 0xFF DUP1 DUP9 AND PUSH1 0x4 DUP4 ADD MSTORE DUP7 AND PUSH1 0x24 DUP3 ADD MSTORE PUSH1 0x0 SWAP2 PUSH1 0x1 PUSH1 0x1 PUSH1 0xA0 SHL SUB AND SWAP1 PUSH4 0x8A888953 SWAP1 PUSH1 0x44 ADD PUSH1 0x20 PUSH1 0x40 MLOAD DUP1 DUP4 SUB DUP2 DUP7 GAS STATICCALL ISZERO DUP1 ISZERO PUSH2 0x364B JUMPI RETURNDATASIZE PUSH1 0x0 DUP1 RETURNDATACOPY RETURNDATASIZE PUSH1 0x0 REVERT JUMPDEST POP POP POP POP PUSH1 0x40 MLOAD RETURNDATASIZE PUSH1 0x1F NOT PUSH1 0x1F DUP3 ADD AND DUP3 ADD DUP1 PUSH1 0x40 MSTORE POP DUP2 ADD SWAP1 PUSH2 0x366F SWAP2 SWAP1 PUSH2 0x4A77 JUMP JUMPDEST SWAP1 POP PUSH1 0x1 PUSH1 0x1 PUSH1 0xA0 SHL SUB DUP2 AND PUSH2 0x36C7 JUMPI PUSH1 0x40 MLOAD PUSH3 0x461BCD PUSH1 0xE5 SHL DUP2 MSTORE PUSH1 0x20 PUSH1 0x4 DUP3 ADD MSTORE PUSH1 0x13 PUSH1 0x24 DUP3 ADD MSTORE PUSH32 0x5461726765742074696C6520756E6F776E656400000000000000000000000000 PUSH1 0x44 DUP3 ADD MSTORE PUSH1 0x64 ADD PUSH2 0x789 JUMP JUMPDEST PUSH1 0xFF DUP1 DUP8 AND PUSH1 0x0 SWAP1 DUP2 MSTORE PUSH1 0x20 DUP1 DUP1 MSTORE PUSH1 0x40 DUP1 DUP4 KECCAK256 DUP10 DUP6 AND DUP5 MSTORE SWAP1 SWAP2 MSTORE SWAP1 KECCAK256 SLOAD AND ISZERO PUSH2 0x3734 JUMPI PUSH1 0x40 MLOAD PUSH3 0x461BCD PUSH1 0xE5 SHL DUP2 MSTORE PUSH1 0x20 PUSH1 0x4 DUP3 ADD MSTORE PUSH1 0x1D PUSH1 0x24 DUP3 ADD MSTORE PUSH32 0x5461726765742074696C6520616C726561647920696E206120636C616E000000 PUSH1 0x44 DUP3 ADD MSTORE PUSH1 0x64 ADD PUSH2 0x789 JUMP JUMPDEST PUSH1 0x0 PUSH2 0xFF00 PUSH1 0x8 DUP9 SWAP1 SHL AND PUSH1 0xFF DUP8 AND OR PUSH2 0xFFFF AND PUSH1 0x0 SWAP1 DUP2 MSTORE PUSH1 0x1D PUSH1 0x20 MSTORE PUSH1 0x40 SWAP1 KECCAK256 DUP1 SLOAD PUSH1 0xFF NOT AND PUSH1 0xFF SWAP12 SWAP1 SWAP12 AND SWAP11 SWAP1 SWAP11 OR SWAP1 SWAP10 SSTORE POP POP POP POP POP POP POP POP POP JUMP JUMPDEST PUSH1 0x1C PUSH1 0x20 MSTORE DUP2 PUSH1 0x0 MSTORE PUSH1 0x40 PUSH1 0x0 KECCAK256 DUP2 DUP2 SLOAD DUP2 LT PUSH2 0x3790 JUMPI PUSH1 0x0 DUP1 REVERT JUMPDEST SWAP1 PUSH1 0x0 MSTORE PUSH1 0x20 PUSH1 0x0 KECCAK256 SWAP1 PUSH1 0x10 SWAP2 DUP3 DUP3 DIV ADD SWAP2 SWAP1 MOD PUSH1 0x2 MUL SWAP2 POP SWAP2 POP SWAP1 SLOAD SWAP1 PUSH2 0x100 EXP SWAP1 DIV PUSH2 0xFFFF AND DUP2 JUMP JUMPDEST PUSH1 0x1A PUSH1 0x20 MSTORE PUSH1 0x0 SWAP1 DUP2 MSTORE PUSH1 0x40 SWAP1 KECCAK256 DUP1 SLOAD DUP2 SWAP1 PUSH2 0x37D6 SWAP1 PUSH2 0x4AE5 JUMP JUMPDEST DUP1 PUSH1 0x1F ADD PUSH1 0x20 DUP1 SWAP2 DIV MUL PUSH1 0x20 ADD PUSH1 0x40 MLOAD SWAP1 DUP2 ADD PUSH1 0x40 MSTORE DUP1 SWAP3 SWAP2 SWAP1 DUP2 DUP2 MSTORE PUSH1 0x20 ADD DUP3 DUP1 SLOAD PUSH2 0x3802 SWAP1 PUSH2 0x4AE5 JUMP JUMPDEST DUP1 ISZERO PUSH2 0x384F JUMPI DUP1 PUSH1 0x1F LT PUSH2 0x3824 JUMPI PUSH2 0x100 DUP1 DUP4 SLOAD DIV MUL DUP4 MSTORE SWAP2 PUSH1 0x20 ADD SWAP2 PUSH2 0x384F JUMP JUMPDEST DUP3 ADD SWAP2 SWAP1 PUSH1 0x0 MSTORE PUSH1 0x20 PUSH1 0x0 KECCAK256 SWAP1 JUMPDEST DUP2 SLOAD DUP2 MSTORE SWAP1 PUSH1 0x1 ADD SWAP1 PUSH1 0x20 ADD DUP1 DUP4 GT PUSH2 0x3832 JUMPI DUP3 SWAP1 SUB PUSH1 0x1F AND DUP3 ADD SWAP2 JUMPDEST POP POP POP PUSH1 0x1 SWAP1 SWAP4 ADD SLOAD SWAP2 SWAP3 POP POP PUSH1 0xFF DUP1 DUP3 AND SWAP2 PUSH2 0x100 DUP2 DIV DUP3 AND SWAP2 PUSH3 0x10000 DUP3 DIV DUP2 AND SWAP2 PUSH4 0x1000000 SWAP1 DIV AND DUP6 JUMP JUMPDEST PUSH1 0x1 PUSH1 0x1 PUSH1 0xA0 SHL SUB DUP2 AND PUSH1 0x0 SWAP1 DUP2 MSTORE PUSH1 0x1F PUSH1 0x20 MSTORE PUSH1 0x40 SWAP1 KECCAK256 DUP1 SLOAD PUSH1 0x60 SWAP2 SWAP1 PUSH2 0x38A5 SWAP1 PUSH2 0x4AE5 JUMP JUMPDEST DUP1 PUSH1 0x1F ADD PUSH1 0x20 DUP1 SWAP2 DIV MUL PUSH1 0x20 ADD PUSH1 0x40 MLOAD SWAP1 DUP2 ADD PUSH1 0x40 MSTORE DUP1 SWAP3 SWAP2 SWAP1 DUP2 DUP2 MSTORE PUSH1 0x20 ADD DUP3 DUP1 SLOAD PUSH2 0x38D1 SWAP1 PUSH2 0x4AE5 JUMP JUMPDEST DUP1 ISZERO PUSH2 0x391E JUMPI DUP1 PUSH1 0x1F LT PUSH2 0x38F3 JUMPI PUSH2 0x100 DUP1 DUP4 SLOAD DIV MUL DUP4 MSTORE SWAP2 PUSH1 0x20 ADD SWAP2 PUSH2 0x391E JUMP JUMPDEST DUP3 ADD SWAP2 SWAP1 PUSH1 0x0 MSTORE PUSH1 0x20 PUSH1 0x0 KECCAK256 SWAP1 JUMPDEST DUP2 SLOAD DUP2 MSTORE SWAP1 PUSH1 0x1 ADD SWAP1 PUSH1 0x20 ADD DUP1 DUP4 GT PUSH2 0x3901 JUMPI DUP3 SWAP1 SUB PUSH1 0x1F AND DUP3 ADD SWAP2 JUMPDEST POP POP POP POP POP SWAP1 POP SWAP2 SWAP1 POP JUMP JUMPDEST PUSH1 0xFF DUP1 DUP7 AND PUSH1 0x0 SWAP1 DUP2 MSTORE PUSH1 0x1A PUSH1 0x20 MSTORE PUSH1 0x40 SWAP1 KECCAK256 PUSH1 0x1 ADD SLOAD DUP7 SWAP2 DUP7 SWAP2 DUP7 SWAP2 PUSH4 0x1000000 SWAP1 SWAP2 DIV AND PUSH2 0x399C JUMPI PUSH1 0x40 MLOAD PUSH3 0x461BCD PUSH1 0xE5 SHL DUP2 MSTORE PUSH1 0x20 PUSH1 0x4 DUP3 ADD MSTORE PUSH1 0x13 PUSH1 0x24 DUP3 ADD MSTORE PUSH32 0x436C616E20646F6573206E6F7420657869737400000000000000000000000000 PUSH1 0x44 DUP3 ADD MSTORE PUSH1 0x64 ADD PUSH2 0x789 JUMP JUMPDEST PUSH1 0xFF DUP4 DUP2 AND PUSH1 0x0 SWAP1 DUP2 MSTORE PUSH1 0x1A PUSH1 0x20 MSTORE PUSH1 0x40 SWAP1 KECCAK256 PUSH1 0x1 ADD SLOAD DUP2 AND SWAP1 DUP4 AND EQ DUP1 ISZERO PUSH2 0x39E3 JUMPI POP PUSH1 0xFF DUP4 DUP2 AND PUSH1 0x0 SWAP1 DUP2 MSTORE PUSH1 0x1A PUSH1 0x20 MSTORE PUSH1 0x40 SWAP1 KECCAK256 PUSH1 0x1 ADD SLOAD PUSH2 0x100 SWAP1 DIV DUP2 AND SWAP1 DUP3 AND EQ JUMPDEST PUSH2 0x3A2F JUMPI PUSH1 0x40 MLOAD PUSH3 0x461BCD PUSH1 0xE5 SHL DUP2 MSTORE PUSH1 0x20 PUSH1 0x4 DUP3 ADD MSTORE PUSH1 0xF PUSH1 0x24 DUP3 ADD MSTORE PUSH32 0x4E6F74206C65616465722074696C650000000000000000000000000000000000 PUSH1 0x44 DUP3 ADD MSTORE PUSH1 0x64 ADD PUSH2 0x789 JUMP JUMPDEST PUSH1 0x14 SLOAD PUSH1 0x40 MLOAD PUSH4 0x8A888953 PUSH1 0xE0 SHL DUP2 MSTORE PUSH1 0xFF DUP1 DUP6 AND PUSH1 0x4 DUP4 ADD MSTORE DUP4 AND PUSH1 0x24 DUP3 ADD MSTORE CALLER SWAP2 PUSH1 0x1 PUSH1 0x1 PUSH1 0xA0 SHL SUB AND SWAP1 PUSH4 0x8A888953 SWAP1 PUSH1 0x44 ADD PUSH1 0x20 PUSH1 0x40 MLOAD DUP1 DUP4 SUB DUP2 DUP7 GAS STATICCALL ISZERO DUP1 ISZERO PUSH2 0x3A82 JUMPI RETURNDATASIZE PUSH1 0x0 DUP1 RETURNDATACOPY RETURNDATASIZE PUSH1 0x0 REVERT JUMPDEST POP POP POP POP PUSH1 0x40 MLOAD RETURNDATASIZE PUSH1 0x1F NOT PUSH1 0x1F DUP3 ADD AND DUP3 ADD DUP1 PUSH1 0x40 MSTORE POP DUP2 ADD SWAP1 PUSH2 0x3AA6 SWAP2 SWAP1 PUSH2 0x4A77 JUMP JUMPDEST PUSH1 0x1 PUSH1 0x1 PUSH1 0xA0 SHL SUB AND EQ PUSH2 0x3AFC JUMPI PUSH1 0x40 MLOAD PUSH3 0x461BCD PUSH1 0xE5 SHL DUP2 MSTORE PUSH1 0x20 PUSH1 0x4 DUP3 ADD MSTORE PUSH1 0x1D PUSH1 0x24 DUP3 ADD MSTORE PUSH32 0x596F7520646F6E2774206F776E20746865206C65616465722074696C65000000 PUSH1 0x44 DUP3 ADD MSTORE PUSH1 0x64 ADD PUSH2 0x789 JUMP JUMPDEST PUSH1 0x16 SLOAD PUSH1 0x40 MLOAD PUSH32 0x1ACC55EA00000000000000000000000000000000000000000000000000000000 DUP2 MSTORE PUSH1 0xFF DUP1 DUP11 AND PUSH1 0x4 DUP4 ADD MSTORE DUP9 AND PUSH1 0x24 DUP3 ADD MSTORE PUSH1 0x1 PUSH1 0x1 PUSH1 0xA0 SHL SUB SWAP1 SWAP2 AND SWAP1 PUSH4 0x1ACC55EA SWAP1 PUSH1 0x44 ADD PUSH1 0x20 PUSH1 0x40 MLOAD DUP1 DUP4 SUB DUP2 DUP7 GAS STATICCALL ISZERO DUP1 ISZERO PUSH2 0x3B68 JUMPI RETURNDATASIZE PUSH1 0x0 DUP1 RETURNDATACOPY RETURNDATASIZE PUSH1 0x0 REVERT JUMPDEST POP POP POP POP PUSH1 0x40 MLOAD RETURNDATASIZE PUSH1 0x1F NOT PUSH1 0x1F DUP3 ADD AND DUP3 ADD DUP1 PUSH1 0x40 MSTORE POP DUP2 ADD SWAP1 PUSH2 0x3B8C SWAP2 SWAP1 PUSH2 0x4A94 JUMP JUMPDEST PUSH2 0x3BD8 JUMPI PUSH1 0x40 MLOAD PUSH3 0x461BCD PUSH1 0xE5 SHL DUP2 MSTORE PUSH1 0x20 PUSH1 0x4 DUP3 ADD MSTORE PUSH1 0x19 PUSH1 0x24 DUP3 ADD MSTORE PUSH32 0x596F75206D7573742068617665206120436C616E2048616C6C00000000000000 PUSH1 0x44 DUP3 ADD MSTORE PUSH1 0x64 ADD PUSH2 0x789 JUMP JUMPDEST PUSH1 0xFF DUP9 DUP2 AND PUSH1 0x0 SWAP1 DUP2 MSTORE PUSH1 0x1A PUSH1 0x20 MSTORE PUSH1 0x40 SWAP1 KECCAK256 PUSH1 0x1 ADD SLOAD DUP2 AND SWAP1 DUP7 AND EQ DUP1 ISZERO PUSH2 0x3C1F JUMPI POP PUSH1 0xFF DUP9 DUP2 AND PUSH1 0x0 SWAP1 DUP2 MSTORE PUSH1 0x1A PUSH1 0x20 MSTORE PUSH1 0x40 SWAP1 KECCAK256 PUSH1 0x1 ADD SLOAD PUSH2 0x100 SWAP1 DIV DUP2 AND SWAP1 DUP6 AND EQ JUMPDEST ISZERO PUSH2 0x3C6C JUMPI PUSH1 0x40 MLOAD PUSH3 0x461BCD PUSH1 0xE5 SHL DUP2 MSTORE PUSH1 0x20 PUSH1 0x4 DUP3 ADD MSTORE PUSH1 0x19 PUSH1 0x24 DUP3 ADD MSTORE PUSH32 0x43616E6E6F742072656D6F7665206C65616465722074696C6500000000000000 PUSH1 0x44 DUP3 ADD MSTORE PUSH1 0x64 ADD PUSH2 0x789 JUMP JUMPDEST PUSH1 0xFF DUP5 DUP2 AND PUSH1 0x8 DUP8 SWAP1 SHL PUSH2 0xFF00 AND OR PUSH1 0x0 DUP2 DUP2 MSTORE PUSH1 0x1B PUSH1 0x20 MSTORE PUSH1 0x40 SWAP1 KECCAK256 SLOAD SWAP1 SWAP2 PUSH2 0x100 SWAP1 SWAP2 DIV AND DUP1 ISZERO PUSH2 0x3CB7 JUMPI POP PUSH2 0xFFFF DUP2 AND PUSH1 0x0 SWAP1 DUP2 MSTORE PUSH1 0x1B PUSH1 0x20 MSTORE PUSH1 0x40 SWAP1 KECCAK256 SLOAD PUSH1 0xFF DUP11 DUP2 AND SWAP2 AND EQ JUMPDEST PUSH2 0x3D03 JUMPI PUSH1 0x40 MLOAD PUSH3 0x461BCD PUSH1 0xE5 SHL DUP2 MSTORE PUSH1 0x20 PUSH1 0x4 DUP3 ADD MSTORE PUSH1 0x15 PUSH1 0x24 DUP3 ADD MSTORE PUSH32 0x54696C65206E6F7420696E207468697320636C616E0000000000000000000000 PUSH1 0x44 DUP3 ADD MSTORE PUSH1 0x64 ADD PUSH2 0x789 JUMP JUMPDEST PUSH1 0x15 SLOAD PUSH1 0x40 MLOAD PUSH32 0x23B872DD00000000000000000000000000000000000000000000000000000000 DUP2 MSTORE CALLER PUSH1 0x4 DUP3 ADD MSTORE ADDRESS PUSH1 0x24 DUP3 ADD MSTORE PUSH4 0x3B9ACA00 PUSH1 0x44 DUP3 ADD MSTORE PUSH1 0x1 PUSH1 0x1 PUSH1 0xA0 SHL SUB SWAP1 SWAP2 AND SWAP1 PUSH4 0x23B872DD SWAP1 PUSH1 0x64 ADD PUSH1 0x20 PUSH1 0x40 MLOAD DUP1 DUP4 SUB DUP2 PUSH1 0x0 DUP8 GAS CALL ISZERO DUP1 ISZERO PUSH2 0x3D76 JUMPI RETURNDATASIZE PUSH1 0x0 DUP1 RETURNDATACOPY RETURNDATASIZE PUSH1 0x0 REVERT JUMPDEST POP POP POP POP PUSH1 0x40 MLOAD RETURNDATASIZE PUSH1 0x1F NOT PUSH1 0x1F DUP3 ADD AND DUP3 ADD DUP1 PUSH1 0x40 MSTORE POP DUP2 ADD SWAP1 PUSH2 0x3D9A SWAP2 SWAP1 PUSH2 0x4A94 JUMP JUMPDEST PUSH2 0x3DE6 JUMPI PUSH1 0x40 MLOAD PUSH3 0x461BCD PUSH1 0xE5 SHL DUP2 MSTORE PUSH1 0x20 PUSH1 0x4 DUP3 ADD MSTORE PUSH1 0x13 PUSH1 0x24 DUP3 ADD MSTORE PUSH32 0x4C4F50207472616E73666572206661696C656400000000000000000000000000 PUSH1 0x44 DUP3 ADD MSTORE PUSH1 0x64 ADD PUSH2 0x789 JUMP JUMPDEST PUSH2 0xFFFF DUP2 AND PUSH1 0x0 SWAP1 DUP2 MSTORE PUSH1 0x1B PUSH1 0x20 SWAP1 DUP2 MSTORE PUSH1 0x40 DUP1 DUP4 KECCAK256 DUP1 SLOAD PUSH2 0xFF00 NOT AND SWAP1 SSTORE PUSH1 0xFF DUP10 DUP2 AND DUP5 MSTORE DUP3 DUP1 MSTORE DUP2 DUP5 KECCAK256 DUP10 DUP3 AND DUP6 MSTORE DUP4 MSTORE DUP2 DUP5 KECCAK256 DUP1 SLOAD PUSH1 0xFF NOT AND SWAP1 SSTORE DUP13 DUP2 AND DUP5 MSTORE PUSH1 0x1A SWAP1 SWAP3 MSTORE SWAP1 SWAP2 KECCAK256 PUSH1 0x1 ADD DUP1 SLOAD PUSH3 0x10000 SWAP1 DIV SWAP1 SWAP2 AND SWAP1 PUSH1 0x2 PUSH2 0x3E4B DUP4 PUSH2 0x4C75 JUMP JUMPDEST DUP3 SLOAD PUSH2 0x100 SWAP3 SWAP1 SWAP3 EXP PUSH1 0xFF DUP2 DUP2 MUL NOT SWAP1 SWAP4 AND SWAP2 DUP4 AND MUL OR SWAP1 SWAP2 SSTORE DUP11 AND PUSH1 0x0 SWAP1 DUP2 MSTORE PUSH1 0x1C PUSH1 0x20 MSTORE PUSH1 0x40 DUP2 KECCAK256 SWAP2 POP JUMPDEST DUP2 SLOAD DUP2 LT ISZERO PUSH2 0x3F97 JUMPI DUP3 PUSH2 0xFFFF AND DUP3 DUP3 DUP2 SLOAD DUP2 LT PUSH2 0x3E98 JUMPI PUSH2 0x3E98 PUSH2 0x4C92 JUMP JUMPDEST PUSH1 0x0 SWAP2 DUP3 MSTORE PUSH1 0x20 SWAP1 SWAP2 KECCAK256 PUSH1 0x10 DUP3 DIV ADD SLOAD PUSH1 0xF SWAP1 SWAP2 AND PUSH1 0x2 MUL PUSH2 0x100 EXP SWAP1 DIV PUSH2 0xFFFF AND SUB PUSH2 0x3F85 JUMPI DUP2 SLOAD DUP3 SWAP1 PUSH2 0x3ECF SWAP1 PUSH1 0x1 SWAP1 PUSH2 0x4CC1 JUMP JUMPDEST DUP2 SLOAD DUP2 LT PUSH2 0x3EDF JUMPI PUSH2 0x3EDF PUSH2 0x4C92 JUMP JUMPDEST SWAP1 PUSH1 0x0 MSTORE PUSH1 0x20 PUSH1 0x0 KECCAK256 SWAP1 PUSH1 0x10 SWAP2 DUP3 DUP3 DIV ADD SWAP2 SWAP1 MOD PUSH1 0x2 MUL SWAP1 SLOAD SWAP1 PUSH2 0x100 EXP SWAP1 DIV PUSH2 0xFFFF AND DUP3 DUP3 DUP2 SLOAD DUP2 LT PUSH2 0x3F15 JUMPI PUSH2 0x3F15 PUSH2 0x4C92 JUMP JUMPDEST SWAP1 PUSH1 0x0 MSTORE PUSH1 0x20 PUSH1 0x0 KECCAK256 SWAP1 PUSH1 0x10 SWAP2 DUP3 DUP3 DIV ADD SWAP2 SWAP1 MOD PUSH1 0x2 MUL PUSH2 0x100 EXP DUP2 SLOAD DUP2 PUSH2 0xFFFF MUL NOT AND SWAP1 DUP4 PUSH2 0xFFFF AND MUL OR SWAP1 SSTORE POP DUP2 DUP1 SLOAD DUP1 PUSH2 0x3F54 JUMPI PUSH2 0x3F54 PUSH2 0x4CD4 JUMP JUMPDEST PUSH1 0x0 DUP3 DUP2 MSTORE PUSH1 0x20 SWAP1 KECCAK256 PUSH1 0x10 PUSH1 0x0 NOT SWAP1 SWAP3 ADD SWAP2 DUP3 DIV ADD DUP1 SLOAD PUSH2 0xFFFF PUSH1 0x2 PUSH1 0xF DUP6 AND MUL PUSH2 0x100 EXP MUL NOT AND SWAP1 SSTORE SWAP1 SSTORE PUSH2 0x3F97 JUMP JUMPDEST DUP1 PUSH2 0x3F8F DUP2 PUSH2 0x4D03 JUMP JUMPDEST SWAP2 POP POP PUSH2 0x3E78 JUMP JUMPDEST POP PUSH1 0x14 SLOAD PUSH1 0x40 MLOAD PUSH4 0x8A888953 PUSH1 0xE0 SHL DUP2 MSTORE PUSH1 0xFF DUP1 DUP11 AND PUSH1 0x4 DUP4 ADD MSTORE DUP9 AND PUSH1 0x24 DUP3 ADD MSTORE PUSH1 0x0 SWAP2 PUSH1 0x1 PUSH1 0x1 PUSH1 0xA0 SHL SUB AND SWAP1 PUSH4 0x8A888953 SWAP1 PUSH1 0x44 ADD PUSH1 0x20 PUSH1 0x40 MLOAD DUP1 DUP4 SUB DUP2 DUP7 GAS STATICCALL ISZERO DUP1 ISZERO PUSH2 0x3FEC JUMPI RETURNDATASIZE PUSH1 0x0 DUP1 RETURNDATACOPY RETURNDATASIZE PUSH1 0x0 REVERT JUMPDEST POP POP POP POP PUSH1 0x40 MLOAD RETURNDATASIZE PUSH1 0x1F NOT PUSH1 0x1F DUP3 ADD AND DUP3 ADD DUP1 PUSH1 0x40 MSTORE POP DUP2 ADD SWAP1 PUSH2 0x4010 SWAP2 SWAP1 PUSH2 0x4A77 JUMP JUMPDEST PUSH1 0x15 SLOAD PUSH1 0x40 MLOAD PUSH32 0xA9059CBB00000000000000000000000000000000000000000000000000000000 DUP2 MSTORE PUSH1 0x1 PUSH1 0x1 PUSH1 0xA0 SHL SUB DUP1 DUP5 AND PUSH1 0x4 DUP4 ADD MSTORE PUSH4 0x35A4E900 PUSH1 0x24 DUP4 ADD MSTORE SWAP3 SWAP4 POP SWAP2 AND SWAP1 PUSH4 0xA9059CBB SWAP1 PUSH1 0x44 ADD PUSH1 0x20 PUSH1 0x40 MLOAD DUP1 DUP4 SUB DUP2 PUSH1 0x0 DUP8 GAS CALL ISZERO DUP1 ISZERO PUSH2 0x4081 JUMPI RETURNDATASIZE PUSH1 0x0 DUP1 RETURNDATACOPY RETURNDATASIZE PUSH1 0x0 REVERT JUMPDEST POP POP POP POP PUSH1 0x40 MLOAD RETURNDATASIZE PUSH1 0x1F NOT PUSH1 0x1F DUP3 ADD AND DUP3 ADD DUP1 PUSH1 0x40 MSTORE POP DUP2 ADD SWAP1 PUSH2 0x40A5 SWAP2 SWAP1 PUSH2 0x4A94 JUMP JUMPDEST PUSH2 0x40F1 JUMPI PUSH1 0x40 MLOAD PUSH3 0x461BCD PUSH1 0xE5 SHL DUP2 MSTORE PUSH1 0x20 PUSH1 0x4 DUP3 ADD MSTORE PUSH1 0x16 PUSH1 0x24 DUP3 ADD MSTORE PUSH32 0x5061796F7574207472616E73666572206661696C656400000000000000000000 PUSH1 0x44 DUP3 ADD MSTORE PUSH1 0x64 ADD PUSH2 0x789 JUMP JUMPDEST PUSH1 0x15 SLOAD PUSH1 0x40 MLOAD PUSH32 0x42966C6800000000000000000000000000000000000000000000000000000000 DUP2 MSTORE PUSH4 0x5F5E100 PUSH1 0x4 DUP3 ADD MSTORE PUSH1 0x1 PUSH1 0x1 PUSH1 0xA0 SHL SUB SWAP1 SWAP2 AND SWAP1 PUSH4 0x42966C68 SWAP1 PUSH1 0x24 ADD PUSH1 0x20 PUSH1 0x40 MLOAD DUP1 DUP4 SUB DUP2 PUSH1 0x0 DUP8 GAS CALL ISZERO DUP1 ISZERO PUSH2 0x4158 JUMPI RETURNDATASIZE PUSH1 0x0 DUP1 RETURNDATACOPY RETURNDATASIZE PUSH1 0x0 REVERT JUMPDEST POP POP POP POP PUSH1 0x40 MLOAD RETURNDATASIZE PUSH1 0x1F NOT PUSH1 0x1F DUP3 ADD AND DUP3 ADD DUP1 PUSH1 0x40 MSTORE POP DUP2 ADD SWAP1 PUSH2 0x417C SWAP2 SWAP1 PUSH2 0x4A94 JUMP JUMPDEST PUSH2 0x41C8 JUMPI PUSH1 0x40 MLOAD PUSH3 0x461BCD PUSH1 0xE5 SHL DUP2 MSTORE PUSH1 0x20 PUSH1 0x4 DUP3 ADD MSTORE PUSH1 0xB PUSH1 0x24 DUP3 ADD MSTORE PUSH32 0x4275726E206661696C6564000000000000000000000000000000000000000000 PUSH1 0x44 DUP3 ADD MSTORE PUSH1 0x64 ADD PUSH2 0x789 JUMP JUMPDEST POP POP POP POP POP POP POP POP POP POP POP JUMP JUMPDEST PUSH1 0x0 PUSH2 0x41E8 PUSH2 0x41E3 DUP4 PUSH2 0x4215 JUMP JUMPDEST PUSH2 0x4447 JUMP JUMPDEST PUSH1 0x40 MLOAD PUSH1 0x20 ADD PUSH2 0x41F8 SWAP2 SWAP1 PUSH2 0x4FD6 JUMP JUMPDEST PUSH1 0x40 MLOAD PUSH1 0x20 DUP2 DUP4 SUB SUB DUP2 MSTORE SWAP1 PUSH1 0x40 MSTORE DUP1 MLOAD SWAP1 PUSH1 0x20 ADD KECCAK256 SWAP1 POP SWAP2 SWAP1 POP JUMP JUMPDEST DUP1 MLOAD PUSH1 0x60 SWAP1 DUP3 SWAP1 PUSH1 0x0 SUB PUSH2 0x422A JUMPI POP SWAP1 SWAP2 SWAP1 POP JUMP JUMPDEST PUSH1 0x0 JUMPDEST DUP2 MLOAD DUP2 LT DUP1 ISZERO PUSH2 0x4295 JUMPI POP DUP2 DUP2 DUP2 MLOAD DUP2 LT PUSH2 0x424A JUMPI PUSH2 0x424A PUSH2 0x4C92 JUMP JUMPDEST PUSH1 0x20 SWAP2 ADD ADD MLOAD PUSH32 0xFF00000000000000000000000000000000000000000000000000000000000000 AND PUSH32 0x2000000000000000000000000000000000000000000000000000000000000000 EQ JUMPDEST ISZERO PUSH2 0x42AC JUMPI DUP1 PUSH2 0x42A4 DUP2 PUSH2 0x4D03 JUMP JUMPDEST SWAP2 POP POP PUSH2 0x422D JUMP JUMPDEST DUP2 MLOAD DUP2 SUB PUSH2 0x42CB JUMPI POP POP PUSH1 0x40 DUP1 MLOAD PUSH1 0x20 DUP2 ADD SWAP1 SWAP2 MSTORE PUSH1 0x0 DUP2 MSTORE SWAP3 SWAP2 POP POP JUMP JUMPDEST PUSH1 0x0 PUSH1 0x1 DUP4 MLOAD PUSH2 0x42DB SWAP2 SWAP1 PUSH2 0x4CC1 JUMP JUMPDEST SWAP1 POP JUMPDEST DUP2 DUP2 GT DUP1 ISZERO PUSH2 0x4345 JUMPI POP DUP3 DUP2 DUP2 MLOAD DUP2 LT PUSH2 0x42FA JUMPI PUSH2 0x42FA PUSH2 0x4C92 JUMP JUMPDEST PUSH1 0x20 SWAP2 ADD ADD MLOAD PUSH32 0xFF00000000000000000000000000000000000000000000000000000000000000 AND PUSH32 0x2000000000000000000000000000000000000000000000000000000000000000 EQ JUMPDEST ISZERO PUSH2 0x435C JUMPI DUP1 PUSH2 0x4354 DUP2 PUSH2 0x4FF2 JUMP JUMPDEST SWAP2 POP POP PUSH2 0x42DE JUMP JUMPDEST PUSH1 0x0 PUSH2 0x4368 DUP4 DUP4 PUSH2 0x4CC1 JUMP JUMPDEST PUSH2 0x4373 SWAP1 PUSH1 0x1 PUSH2 0x5009 JUMP JUMPDEST PUSH8 0xFFFFFFFFFFFFFFFF DUP2 GT ISZERO PUSH2 0x438B JUMPI PUSH2 0x438B PUSH2 0x4AB6 JUMP JUMPDEST PUSH1 0x40 MLOAD SWAP1 DUP1 DUP3 MSTORE DUP1 PUSH1 0x1F ADD PUSH1 0x1F NOT AND PUSH1 0x20 ADD DUP3 ADD PUSH1 0x40 MSTORE DUP1 ISZERO PUSH2 0x43B5 JUMPI PUSH1 0x20 DUP3 ADD DUP2 DUP1 CALLDATASIZE DUP4 CALLDATACOPY ADD SWAP1 POP JUMPDEST POP SWAP1 POP PUSH1 0x0 JUMPDEST DUP2 MLOAD DUP2 LT ISZERO PUSH2 0x443D JUMPI DUP5 PUSH2 0x43CF DUP3 DUP7 PUSH2 0x5009 JUMP JUMPDEST DUP2 MLOAD DUP2 LT PUSH2 0x43DF JUMPI PUSH2 0x43DF PUSH2 0x4C92 JUMP JUMPDEST PUSH1 0x20 ADD ADD MLOAD PUSH1 0xF8 SHR PUSH1 0xF8 SHL DUP3 DUP3 DUP2 MLOAD DUP2 LT PUSH2 0x43FC JUMPI PUSH2 0x43FC PUSH2 0x4C92 JUMP JUMPDEST PUSH1 0x20 ADD ADD SWAP1 PUSH31 0xFFFFFFFFFFFFFFFFFFFFFFFFFFFFFFFFFFFFFFFFFFFFFFFFFFFFFFFFFFFFFF NOT AND SWAP1 DUP2 PUSH1 0x0 BYTE SWAP1 MSTORE8 POP DUP1 PUSH2 0x4435 DUP2 PUSH2 0x4D03 JUMP JUMPDEST SWAP2 POP POP PUSH2 0x43BB JUMP JUMPDEST POP SWAP6 SWAP5 POP POP POP POP POP JUMP JUMPDEST PUSH1 0x60 DUP2 PUSH1 0x0 JUMPDEST DUP2 MLOAD DUP2 LT ISZERO PUSH2 0x44F1 JUMPI PUSH1 0x0 DUP3 DUP3 DUP2 MLOAD DUP2 LT PUSH2 0x446A JUMPI PUSH2 0x446A PUSH2 0x4C92 JUMP JUMPDEST ADD PUSH1 0x20 ADD MLOAD PUSH1 0xF8 SHR SWAP1 POP PUSH1 0x41 DUP2 LT DUP1 ISZERO SWAP1 PUSH2 0x4489 JUMPI POP PUSH1 0x5A DUP2 PUSH1 0xFF AND GT ISZERO JUMPDEST ISZERO PUSH2 0x44DE JUMPI PUSH2 0x4499 DUP2 PUSH1 0x20 PUSH2 0x501C JUMP JUMPDEST PUSH1 0xF8 SHL DUP4 DUP4 DUP2 MLOAD DUP2 LT PUSH2 0x44AE JUMPI PUSH2 0x44AE PUSH2 0x4C92 JUMP JUMPDEST PUSH1 0x20 ADD ADD SWAP1 PUSH31 0xFFFFFFFFFFFFFFFFFFFFFFFFFFFFFFFFFFFFFFFFFFFFFFFFFFFFFFFFFFFFFF NOT AND SWAP1 DUP2 PUSH1 0x0 BYTE SWAP1 MSTORE8 POP JUMPDEST POP DUP1 PUSH2 0x44E9 DUP2 PUSH2 0x4D03 JUMP JUMPDEST SWAP2 POP POP PUSH2 0x444D JUMP JUMPDEST POP SWAP3 SWAP2 POP POP JUMP JUMPDEST POP DUP1 SLOAD PUSH1 0x0 DUP3 SSTORE PUSH1 0xF ADD PUSH1 0x10 SWAP1 DIV SWAP1 PUSH1 0x0 MSTORE PUSH1 0x20 PUSH1 0x0 KECCAK256 SWAP1 DUP2 ADD SWAP1 PUSH2 0x451D SWAP2 SWAP1 PUSH2 0x4556 JUMP JUMPDEST POP JUMP JUMPDEST POP DUP1 SLOAD PUSH2 0x452C SWAP1 PUSH2 0x4AE5 JUMP JUMPDEST PUSH1 0x0 DUP3 SSTORE DUP1 PUSH1 0x1F LT PUSH2 0x453C JUMPI POP POP JUMP JUMPDEST PUSH1 0x1F ADD PUSH1 0x20 SWAP1 DIV SWAP1 PUSH1 0x0 MSTORE PUSH1 0x20 PUSH1 0x0 KECCAK256 SWAP1 DUP2 ADD SWAP1 PUSH2 0x451D SWAP2 SWAP1 JUMPDEST JUMPDEST DUP1 DUP3 GT ISZERO PUSH2 0x456B JUMPI PUSH1 0x0 DUP2 SSTORE PUSH1 0x1 ADD PUSH2 0x4557 JUMP JUMPDEST POP SWAP1 JUMP JUMPDEST DUP1 CALLDATALOAD PUSH1 0xFF DUP2 AND DUP2 EQ PUSH2 0x4580 JUMPI PUSH1 0x0 DUP1 REVERT JUMPDEST SWAP2 SWAP1 POP JUMP JUMPDEST PUSH1 0x0 DUP1 DUP4 PUSH1 0x1F DUP5 ADD SLT PUSH2 0x4597 JUMPI PUSH1 0x0 DUP1 REVERT JUMPDEST POP DUP2 CALLDATALOAD PUSH8 0xFFFFFFFFFFFFFFFF DUP2 GT ISZERO PUSH2 0x45AF JUMPI PUSH1 0x0 DUP1 REVERT JUMPDEST PUSH1 0x20 DUP4 ADD SWAP2 POP DUP4 PUSH1 0x20 DUP3 DUP6 ADD ADD GT ISZERO PUSH2 0x45C7 JUMPI PUSH1 0x0 DUP1 REVERT JUMPDEST SWAP3 POP SWAP3 SWAP1 POP JUMP JUMPDEST PUSH1 0x0 DUP1 PUSH1 0x0 DUP1 PUSH1 0x60 DUP6 DUP8 SUB SLT ISZERO PUSH2 0x45E4 JUMPI PUSH1 0x0 DUP1 REVERT JUMPDEST PUSH2 0x45ED DUP6 PUSH2 0x456F JUMP JUMPDEST SWAP4 POP PUSH2 0x45FB PUSH1 0x20 DUP7 ADD PUSH2 0x456F JUMP JUMPDEST SWAP3 POP PUSH1 0x40 DUP6 ADD CALLDATALOAD PUSH8 0xFFFFFFFFFFFFFFFF DUP2 GT ISZERO PUSH2 0x4617 JUMPI PUSH1 0x0 DUP1 REVERT JUMPDEST PUSH2 0x4623 DUP8 DUP3 DUP9 ADD PUSH2 0x4585 JUMP JUMPDEST SWAP6 SWAP9 SWAP5 SWAP8 POP SWAP6 POP POP POP POP JUMP JUMPDEST PUSH1 0x0 DUP1 PUSH1 0x40 DUP4 DUP6 SUB SLT ISZERO PUSH2 0x4642 JUMPI PUSH1 0x0 DUP1 REVERT JUMPDEST PUSH2 0x464B DUP4 PUSH2 0x456F JUMP JUMPDEST SWAP2 POP PUSH2 0x4659 PUSH1 0x20 DUP5 ADD PUSH2 0x456F JUMP JUMPDEST SWAP1 POP SWAP3 POP SWAP3 SWAP1 POP JUMP JUMPDEST PUSH1 0x0 JUMPDEST DUP4 DUP2 LT ISZERO PUSH2 0x467D JUMPI DUP2 DUP2 ADD MLOAD DUP4 DUP3 ADD MSTORE PUSH1 0x20 ADD PUSH2 0x4665 JUMP JUMPDEST POP POP PUSH1 0x0 SWAP2 ADD MSTORE JUMP JUMPDEST PUSH1 0x0 DUP2 MLOAD DUP1 DUP5 MSTORE PUSH2 0x469E DUP2 PUSH1 0x20 DUP7 ADD PUSH1 0x20 DUP7 ADD PUSH2 0x4662 JUMP JUMPDEST PUSH1 0x1F ADD PUSH1 0x1F NOT AND SWAP3 SWAP1 SWAP3 ADD PUSH1 0x20 ADD SWAP3 SWAP2 POP POP JUMP JUMPDEST PUSH1 0x20 DUP2 MSTORE PUSH1 0x0 PUSH2 0x46C5 PUSH1 0x20 DUP4 ADD DUP5 PUSH2 0x4686 JUMP JUMPDEST SWAP4 SWAP3 POP POP POP JUMP JUMPDEST PUSH1 0x1 PUSH1 0x1 PUSH1 0xA0 SHL SUB DUP2 AND DUP2 EQ PUSH2 0x451D JUMPI PUSH1 0x0 DUP1 REVERT JUMPDEST PUSH1 0x0 PUSH1 0x20 DUP3 DUP5 SUB SLT ISZERO PUSH2 0x46F3 JUMPI PUSH1 0x0 DUP1 REVERT JUMPDEST DUP2 CALLDATALOAD PUSH2 0x46C5 DUP2 PUSH2 0x46CC JUMP JUMPDEST PUSH1 0x0 PUSH1 0x20 DUP3 DUP5 SUB SLT ISZERO PUSH2 0x4710 JUMPI PUSH1 0x0 DUP1 REVERT JUMPDEST PUSH2 0x46C5 DUP3 PUSH2 0x456F JUMP JUMPDEST PUSH1 0x20 DUP1 DUP3 MSTORE DUP3 MLOAD DUP3 DUP3 ADD DUP2 SWAP1 MSTORE PUSH1 0x0 SWAP2 SWAP1 PUSH1 0x40 SWAP1 DUP2 DUP6 ADD SWAP1 DUP7 DUP5 ADD DUP6 JUMPDEST DUP3 DUP2 LT ISZERO PUSH2 0x4778 JUMPI DUP2 MLOAD DUP1 MLOAD PUSH1 0xFF SWAP1 DUP2 AND DUP7 MSTORE DUP8 DUP3 ADD MLOAD DUP2 AND DUP9 DUP8 ADD MSTORE DUP7 DUP3 ADD MLOAD AND DUP7 DUP7 ADD MSTORE PUSH1 0x60 SWAP1 DUP2 ADD MLOAD SWAP1 DUP6 ADD MSTORE PUSH1 0x80 SWAP1 SWAP4 ADD SWAP3 SWAP1 DUP6 ADD SWAP1 PUSH1 0x1 ADD PUSH2 0x4736 JUMP JUMPDEST POP SWAP2 SWAP8 SWAP7 POP POP POP POP POP POP POP JUMP JUMPDEST PUSH1 0x0 DUP1 PUSH1 0x20 DUP4 DUP6 SUB SLT ISZERO PUSH2 0x4798 JUMPI PUSH1 0x0 DUP1 REVERT JUMPDEST DUP3 CALLDATALOAD PUSH8 0xFFFFFFFFFFFFFFFF DUP2 GT ISZERO PUSH2 0x47AF JUMPI PUSH1 0x0 DUP1 REVERT JUMPDEST PUSH2 0x47BB DUP6 DUP3 DUP7 ADD PUSH2 0x4585 JUMP JUMPDEST SWAP1 SWAP7 SWAP1 SWAP6 POP SWAP4 POP POP POP POP JUMP JUMPDEST PUSH1 0x0 DUP2 MLOAD PUSH1 0xA0 DUP5 MSTORE PUSH2 0x47DC PUSH1 0xA0 DUP6 ADD DUP3 PUSH2 0x4686 JUMP JUMPDEST SWAP1 POP PUSH1 0xFF PUSH1 0x20 DUP5 ADD MLOAD AND PUSH1 0x20 DUP6 ADD MSTORE PUSH1 0xFF PUSH1 0x40 DUP5 ADD MLOAD AND PUSH1 0x40 DUP6 ADD MSTORE PUSH1 0xFF PUSH1 0x60 DUP5 ADD MLOAD AND PUSH1 0x60 DUP6 ADD MSTORE PUSH1 0x80 DUP4 ADD MLOAD ISZERO ISZERO PUSH1 0x80 DUP6 ADD MSTORE DUP1 SWAP2 POP POP SWAP3 SWAP2 POP POP JUMP JUMPDEST PUSH1 0x20 DUP2 MSTORE PUSH1 0x0 PUSH2 0x46C5 PUSH1 0x20 DUP4 ADD DUP5 PUSH2 0x47C7 JUMP JUMPDEST PUSH1 0x0 PUSH1 0x20 DUP3 DUP5 SUB SLT ISZERO PUSH2 0x4840 JUMPI PUSH1 0x0 DUP1 REVERT JUMPDEST POP CALLDATALOAD SWAP2 SWAP1 POP JUMP JUMPDEST PUSH1 0x0 PUSH1 0x20 DUP3 DUP5 SUB SLT ISZERO PUSH2 0x4859 JUMPI PUSH1 0x0 DUP1 REVERT JUMPDEST DUP2 CALLDATALOAD PUSH2 0xFFFF DUP2 AND DUP2 EQ PUSH2 0x46C5 JUMPI PUSH1 0x0 DUP1 REVERT JUMPDEST PUSH1 0x0 DUP1 PUSH1 0x0 DUP1 PUSH1 0x80 DUP6 DUP8 SUB SLT ISZERO PUSH2 0x4881 JUMPI PUSH1 0x0 DUP1 REVERT JUMPDEST PUSH2 0x488A DUP6 PUSH2 0x456F JUMP JUMPDEST SWAP4 POP PUSH2 0x4898 PUSH1 0x20 DUP7 ADD PUSH2 0x456F JUMP JUMPDEST SWAP3 POP PUSH2 0x48A6 PUSH1 0x40 DUP7 ADD PUSH2 0x456F JUMP JUMPDEST SWAP4 SWAP7 SWAP3 SWAP6 POP SWAP3 SWAP4 PUSH1 0x60 ADD CALLDATALOAD SWAP3 POP POP JUMP JUMPDEST PUSH1 0x0 DUP1 PUSH1 0x0 PUSH1 0x60 DUP5 DUP7 SUB SLT ISZERO PUSH2 0x48CB JUMPI PUSH1 0x0 DUP1 REVERT JUMPDEST PUSH2 0x48D4 DUP5 PUSH2 0x456F JUMP JUMPDEST SWAP3 POP PUSH2 0x48E2 PUSH1 0x20 DUP6 ADD PUSH2 0x456F JUMP JUMPDEST SWAP2 POP PUSH2 0x48F0 PUSH1 0x40 DUP6 ADD PUSH2 0x456F JUMP JUMPDEST SWAP1 POP SWAP3 POP SWAP3 POP SWAP3 JUMP JUMPDEST PUSH1 0x0 PUSH1 0x20 DUP1 DUP4 ADD DUP2 DUP5 MSTORE DUP1 DUP6 MLOAD DUP1 DUP4 MSTORE PUSH1 0x40 DUP7 ADD SWAP2 POP PUSH1 0x40 DUP2 PUSH1 0x5 SHL DUP8 ADD ADD SWAP3 POP DUP4 DUP8 ADD PUSH1 0x0 JUMPDEST DUP3 DUP2 LT ISZERO PUSH2 0x496C JUMPI PUSH32 0xFFFFFFFFFFFFFFFFFFFFFFFFFFFFFFFFFFFFFFFFFFFFFFFFFFFFFFFFFFFFFFC0 DUP9 DUP7 SUB ADD DUP5 MSTORE PUSH2 0x495A DUP6 DUP4 MLOAD PUSH2 0x47C7 JUMP JUMPDEST SWAP5 POP SWAP3 DUP6 ADD SWAP3 SWAP1 DUP6 ADD SWAP1 PUSH1 0x1 ADD PUSH2 0x4920 JUMP JUMPDEST POP SWAP3 SWAP8 SWAP7 POP POP POP POP POP POP POP JUMP JUMPDEST PUSH1 0x0 DUP1 PUSH1 0x40 DUP4 DUP6 SUB SLT ISZERO PUSH2 0x498C JUMPI PUSH1 0x0 DUP1 REVERT JUMPDEST POP POP DUP1 CALLDATALOAD SWAP3 PUSH1 0x20 SWAP1 SWAP2 ADD CALLDATALOAD SWAP2 POP JUMP JUMPDEST PUSH1 0x0 DUP1 PUSH1 0x0 DUP1 PUSH1 0x0 PUSH1 0xA0 DUP7 DUP9 SUB SLT ISZERO PUSH2 0x49B3 JUMPI PUSH1 0x0 DUP1 REVERT JUMPDEST PUSH2 0x49BC DUP7 PUSH2 0x456F JUMP JUMPDEST SWAP5 POP PUSH2 0x49CA PUSH1 0x20 DUP8 ADD PUSH2 0x456F JUMP JUMPDEST SWAP4 POP PUSH2 0x49D8 PUSH1 0x40 DUP8 ADD PUSH2 0x456F JUMP JUMPDEST SWAP3 POP PUSH2 0x49E6 PUSH1 0x60 DUP8 ADD PUSH2 0x456F JUMP JUMPDEST SWAP2 POP PUSH2 0x49F4 PUSH1 0x80 DUP8 ADD PUSH2 0x456F JUMP JUMPDEST SWAP1 POP SWAP3 SWAP6 POP SWAP3 SWAP6 SWAP1 SWAP4 POP JUMP JUMPDEST PUSH1 0x0 DUP1 PUSH1 0x40 DUP4 DUP6 SUB SLT ISZERO PUSH2 0x4A13 JUMPI PUSH1 0x0 DUP1 REVERT JUMPDEST PUSH2 0x4A1C DUP4 PUSH2 0x456F JUMP JUMPDEST SWAP5 PUSH1 0x20 SWAP4 SWAP1 SWAP4 ADD CALLDATALOAD SWAP4 POP POP POP JUMP JUMPDEST PUSH1 0xA0 DUP2 MSTORE PUSH1 0x0 PUSH2 0x4A3D PUSH1 0xA0 DUP4 ADD DUP9 PUSH2 0x4686 JUMP JUMPDEST SWAP1 POP PUSH1 0xFF DUP7 AND PUSH1 0x20 DUP4 ADD MSTORE PUSH1 0xFF DUP6 AND PUSH1 0x40 DUP4 ADD MSTORE PUSH1 0xFF DUP5 AND PUSH1 0x60 DUP4 ADD MSTORE DUP3 ISZERO ISZERO PUSH1 0x80 DUP4 ADD MSTORE SWAP7 SWAP6 POP POP POP POP POP POP JUMP JUMPDEST DUP1 MLOAD PUSH2 0x4580 DUP2 PUSH2 0x46CC JUMP JUMPDEST PUSH1 0x0 PUSH1 0x20 DUP3 DUP5 SUB SLT ISZERO PUSH2 0x4A89 JUMPI PUSH1 0x0 DUP1 REVERT JUMPDEST DUP2 MLOAD PUSH2 0x46C5 DUP2 PUSH2 0x46CC JUMP JUMPDEST PUSH1 0x0 PUSH1 0x20 DUP3 DUP5 SUB SLT ISZERO PUSH2 0x4AA6 JUMPI PUSH1 0x0 DUP1 REVERT JUMPDEST DUP2 MLOAD DUP1 ISZERO ISZERO DUP2 EQ PUSH2 0x46C5 JUMPI PUSH1 0x0 DUP1 REVERT JUMPDEST PUSH32 0x4E487B7100000000000000000000000000000000000000000000000000000000 PUSH1 0x0 MSTORE PUSH1 0x41 PUSH1 0x4 MSTORE PUSH1 0x24 PUSH1 0x0 REVERT JUMPDEST PUSH1 0x1 DUP2 DUP2 SHR SWAP1 DUP3 AND DUP1 PUSH2 0x4AF9 JUMPI PUSH1 0x7F DUP3 AND SWAP2 POP JUMPDEST PUSH1 0x20 DUP3 LT DUP2 SUB PUSH2 0x4B32 JUMPI PUSH32 0x4E487B7100000000000000000000000000000000000000000000000000000000 PUSH1 0x0 MSTORE PUSH1 0x22 PUSH1 0x4 MSTORE PUSH1 0x24 PUSH1 0x0 REVERT JUMPDEST POP SWAP2 SWAP1 POP JUMP JUMPDEST PUSH1 0x1F DUP3 GT ISZERO PUSH2 0x1557 JUMPI PUSH1 0x0 DUP2 DUP2 MSTORE PUSH1 0x20 DUP2 KECCAK256 PUSH1 0x1F DUP6 ADD PUSH1 0x5 SHR DUP2 ADD PUSH1 0x20 DUP7 LT ISZERO PUSH2 0x4B5F JUMPI POP DUP1 JUMPDEST PUSH1 0x1F DUP6 ADD PUSH1 0x5 SHR DUP3 ADD SWAP2 POP JUMPDEST DUP2 DUP2 LT ISZERO PUSH2 0x4B7E JUMPI DUP3 DUP2 SSTORE PUSH1 0x1 ADD PUSH2 0x4B6B JUMP JUMPDEST POP POP POP POP POP POP JUMP JUMPDEST PUSH8 0xFFFFFFFFFFFFFFFF DUP4 GT ISZERO PUSH2 0x4B9E JUMPI PUSH2 0x4B9E PUSH2 0x4AB6 JUMP JUMPDEST PUSH2 0x4BB2 DUP4 PUSH2 0x4BAC DUP4 SLOAD PUSH2 0x4AE5 JUMP JUMPDEST DUP4 PUSH2 0x4B38 JUMP JUMPDEST PUSH1 0x0 PUSH1 0x1F DUP5 GT PUSH1 0x1 DUP2 EQ PUSH2 0x4BE6 JUMPI PUSH1 0x0 DUP6 ISZERO PUSH2 0x4BCE JUMPI POP DUP4 DUP3 ADD CALLDATALOAD JUMPDEST PUSH1 0x0 NOT PUSH1 0x3 DUP8 SWAP1 SHL SHR NOT AND PUSH1 0x1 DUP7 SWAP1 SHL OR DUP4 SSTORE PUSH2 0x993 JUMP JUMPDEST PUSH1 0x0 DUP4 DUP2 MSTORE PUSH1 0x20 SWAP1 KECCAK256 PUSH1 0x1F NOT DUP7 AND SWAP1 DUP4 JUMPDEST DUP3 DUP2 LT ISZERO PUSH2 0x4C17 JUMPI DUP7 DUP6 ADD CALLDATALOAD DUP3 SSTORE PUSH1 0x20 SWAP5 DUP6 ADD SWAP5 PUSH1 0x1 SWAP1 SWAP3 ADD SWAP2 ADD PUSH2 0x4BF7 JUMP JUMPDEST POP DUP7 DUP3 LT ISZERO PUSH2 0x4C34 JUMPI PUSH1 0x0 NOT PUSH1 0xF8 DUP9 PUSH1 0x3 SHL AND SHR NOT DUP5 DUP8 ADD CALLDATALOAD AND DUP2 SSTORE JUMPDEST POP POP PUSH1 0x1 DUP6 PUSH1 0x1 SHL ADD DUP4 SSTORE POP POP POP POP POP JUMP JUMPDEST PUSH32 0x4E487B7100000000000000000000000000000000000000000000000000000000 PUSH1 0x0 MSTORE PUSH1 0x11 PUSH1 0x4 MSTORE PUSH1 0x24 PUSH1 0x0 REVERT JUMPDEST PUSH1 0x0 PUSH1 0xFF DUP3 AND DUP1 PUSH2 0x4C88 JUMPI PUSH2 0x4C88 PUSH2 0x4C46 JUMP JUMPDEST PUSH1 0x0 NOT ADD SWAP3 SWAP2 POP POP JUMP JUMPDEST PUSH32 0x4E487B7100000000000000000000000000000000000000000000000000000000 PUSH1 0x0 MSTORE PUSH1 0x32 PUSH1 0x4 MSTORE PUSH1 0x24 PUSH1 0x0 REVERT JUMPDEST DUP2 DUP2 SUB DUP2 DUP2 GT ISZERO PUSH2 0xA49 JUMPI PUSH2 0xA49 PUSH2 0x4C46 JUMP JUMPDEST PUSH32 0x4E487B7100000000000000000000000000000000000000000000000000000000 PUSH1 0x0 MSTORE PUSH1 0x31 PUSH1 0x4 MSTORE PUSH1 0x24 PUSH1 0x0 REVERT JUMPDEST PUSH1 0x0 PUSH1 0x0 NOT DUP3 SUB PUSH2 0x4D16 JUMPI PUSH2 0x4D16 PUSH2 0x4C46 JUMP JUMPDEST POP PUSH1 0x1 ADD SWAP1 JUMP JUMPDEST PUSH1 0x0 PUSH1 0xFF DUP3 AND PUSH1 0xFF DUP2 SUB PUSH2 0x4D33 JUMPI PUSH2 0x4D33 PUSH2 0x4C46 JUMP JUMPDEST PUSH1 0x1 ADD SWAP3 SWAP2 POP POP JUMP JUMPDEST PUSH1 0x0 DUP3 PUSH1 0x1F DUP4 ADD SLT PUSH2 0x4D4D JUMPI PUSH1 0x0 DUP1 REVERT JUMPDEST DUP2 MLOAD PUSH8 0xFFFFFFFFFFFFFFFF DUP1 DUP3 GT ISZERO PUSH2 0x4D68 JUMPI PUSH2 0x4D68 PUSH2 0x4AB6 JUMP JUMPDEST PUSH1 0x40 MLOAD PUSH1 0x1F DUP4 ADD PUSH1 0x1F NOT SWAP1 DUP2 AND PUSH1 0x3F ADD AND DUP2 ADD SWAP1 DUP3 DUP3 GT DUP2 DUP4 LT OR ISZERO PUSH2 0x4D90 JUMPI PUSH2 0x4D90 PUSH2 0x4AB6 JUMP JUMPDEST DUP2 PUSH1 0x40 MSTORE DUP4 DUP2 MSTORE DUP7 PUSH1 0x20 DUP6 DUP9 ADD ADD GT ISZERO PUSH2 0x4DA9 JUMPI PUSH1 0x0 DUP1 REVERT JUMPDEST PUSH2 0x4DBA DUP5 PUSH1 0x20 DUP4 ADD PUSH1 0x20 DUP10 ADD PUSH2 0x4662 JUMP JUMPDEST SWAP7 SWAP6 POP POP POP POP POP POP JUMP JUMPDEST PUSH1 0x0 DUP1 PUSH1 0x0 DUP1 PUSH1 0x0 DUP1 PUSH1 0x0 DUP1 PUSH1 0x0 DUP1 PUSH1 0x0 PUSH2 0x160 DUP13 DUP15 SUB SLT ISZERO PUSH2 0x4DE6 JUMPI PUSH1 0x0 DUP1 REVERT JUMPDEST DUP12 MLOAD PUSH8 0xFFFFFFFFFFFFFFFF DUP2 GT ISZERO PUSH2 0x4DFD JUMPI PUSH1 0x0 DUP1 REVERT JUMPDEST PUSH2 0x4E09 DUP15 DUP3 DUP16 ADD PUSH2 0x4D3C JUMP JUMPDEST SWAP12 POP POP PUSH1 0x20 DUP13 ADD MLOAD PUSH8 0xFFFFFFFFFFFFFFFF DUP2 GT ISZERO PUSH2 0x4E26 JUMPI PUSH1 0x0 DUP1 REVERT JUMPDEST PUSH2 0x4E32 DUP15 DUP3 DUP16 ADD PUSH2 0x4D3C JUMP JUMPDEST SWAP11 POP POP PUSH1 0x40 DUP13 ADD MLOAD PUSH8 0xFFFFFFFFFFFFFFFF DUP2 GT ISZERO PUSH2 0x4E4F JUMPI PUSH1 0x0 DUP1 REVERT JUMPDEST PUSH2 0x4E5B DUP15 DUP3 DUP16 ADD PUSH2 0x4D3C JUMP JUMPDEST SWAP10 POP POP PUSH1 0x60 DUP13 ADD MLOAD PUSH8 0xFFFFFFFFFFFFFFFF DUP2 GT ISZERO PUSH2 0x4E78 JUMPI PUSH1 0x0 DUP1 REVERT JUMPDEST PUSH2 0x4E84 DUP15 DUP3 DUP16 ADD PUSH2 0x4D3C JUMP JUMPDEST SWAP9 POP POP PUSH2 0x4E93 PUSH1 0x80 DUP14 ADD PUSH2 0x4A6C JUMP JUMPDEST SWAP7 POP PUSH1 0xA0 DUP13 ADD MLOAD SWAP6 POP PUSH1 0xC0 DUP13 ADD MLOAD SWAP5 POP PUSH1 0xE0 DUP13 ADD MLOAD PUSH8 0xFFFFFFFFFFFFFFFF DUP2 GT ISZERO PUSH2 0x4EBD JUMPI PUSH1 0x0 DUP1 REVERT JUMPDEST PUSH2 0x4EC9 DUP15 DUP3 DUP16 ADD PUSH2 0x4D3C JUMP JUMPDEST SWAP5 POP POP PUSH2 0x100 DUP13 ADD MLOAD PUSH8 0xFFFFFFFFFFFFFFFF DUP2 GT ISZERO PUSH2 0x4EE7 JUMPI PUSH1 0x0 DUP1 REVERT JUMPDEST PUSH2 0x4EF3 DUP15 DUP3 DUP16 ADD PUSH2 0x4D3C JUMP JUMPDEST SWAP4 POP POP PUSH2 0x120 DUP13 ADD MLOAD SWAP2 POP PUSH2 0x140 DUP13 ADD MLOAD SWAP1 POP SWAP3 SWAP6 SWAP9 SWAP12 POP SWAP3 SWAP6 SWAP9 SWAP12 SWAP1 SWAP4 SWAP7 SWAP10 POP JUMP JUMPDEST DUP2 MLOAD PUSH8 0xFFFFFFFFFFFFFFFF DUP2 GT ISZERO PUSH2 0x4F30 JUMPI PUSH2 0x4F30 PUSH2 0x4AB6 JUMP JUMPDEST PUSH2 0x4F44 DUP2 PUSH2 0x4F3E DUP5 SLOAD PUSH2 0x4AE5 JUMP JUMPDEST DUP5 PUSH2 0x4B38 JUMP JUMPDEST PUSH1 0x20 DUP1 PUSH1 0x1F DUP4 GT PUSH1 0x1 DUP2 EQ PUSH2 0x4F79 JUMPI PUSH1 0x0 DUP5 ISZERO PUSH2 0x4F61 JUMPI POP DUP6 DUP4 ADD MLOAD JUMPDEST PUSH1 0x0 NOT PUSH1 0x3 DUP7 SWAP1 SHL SHR NOT AND PUSH1 0x1 DUP6 SWAP1 SHL OR DUP6 SSTORE PUSH2 0x4B7E JUMP JUMPDEST PUSH1 0x0 DUP6 DUP2 MSTORE PUSH1 0x20 DUP2 KECCAK256 PUSH1 0x1F NOT DUP7 AND SWAP2 JUMPDEST DUP3 DUP2 LT ISZERO PUSH2 0x4FA8 JUMPI DUP9 DUP7 ADD MLOAD DUP3 SSTORE SWAP5 DUP5 ADD SWAP5 PUSH1 0x1 SWAP1 SWAP2 ADD SWAP1 DUP5 ADD PUSH2 0x4F89 JUMP JUMPDEST POP DUP6 DUP3 LT ISZERO PUSH2 0x4FC6 JUMPI DUP8 DUP6 ADD MLOAD PUSH1 0x0 NOT PUSH1 0x3 DUP9 SWAP1 SHL PUSH1 0xF8 AND SHR NOT AND DUP2 SSTORE JUMPDEST POP POP POP POP POP PUSH1 0x1 SWAP1 DUP2 SHL ADD SWAP1 SSTORE POP JUMP JUMPDEST PUSH1 0x0 DUP3 MLOAD PUSH2 0x4FE8 DUP2 DUP5 PUSH1 0x20 DUP8 ADD PUSH2 0x4662 JUMP JUMPDEST SWAP2 SWAP1 SWAP2 ADD SWAP3 SWAP2 POP POP JUMP JUMPDEST PUSH1 0x0 DUP2 PUSH2 0x5001 JUMPI PUSH2 0x5001 PUSH2 0x4C46 JUMP JUMPDEST POP PUSH1 0x0 NOT ADD SWAP1 JUMP JUMPDEST DUP1 DUP3 ADD DUP1 DUP3 GT ISZERO PUSH2 0xA49 JUMPI PUSH2 0xA49 PUSH2 0x4C46 JUMP JUMPDEST PUSH1 0xFF DUP2 DUP2 AND DUP4 DUP3 AND ADD SWAP1 DUP2 GT ISZERO PUSH2 0xA49 JUMPI PUSH2 0xA49 PUSH2 0x4C46 JUMP INVALID LOG2 PUSH5 0x6970667358 0x22 SLT KECCAK256 0xDD DUP2 SWAP5 STATICCALL 0xE6 PUSH14 0xA971E442D36E33AE33C870693CD 0xCF CREATE SAR MUL 0xA7 POP 0xC2 0xED 0xD7 SWAP11 0x5F 0xC4 PUSH5 0x736F6C6343 STOP ADDMOD SLT STOP CALLER "
		},
		"gasEstimates": {
			"creation": {
				"codeDepositCost": "4117400",
				"executionCost": "infinite",
				"totalCost": "infinite"
			},
			"external": {
				"CLAN_CREATION_COST()": "285",
				"CLAN_FLAG_COST()": "286",
				"LEAVE_CLAN_BURN()": "262",
				"LEAVE_CLAN_COST()": "264",
				"LEAVE_CLAN_PAYOUT()": "262",
				"MAX_MEMBERS()": "315",
				"REMOVE_MEMBER_BURN()": "284",
				"REMOVE_MEMBER_COST()": "264",
				"REMOVE_MEMBER_PAYOUT()": "285",
				"TILE_NAMING_COST()": "264",
				"acceptInviteForTile(uint8,uint8)": "infinite",
				"bonuses(uint256,uint256)": "4230",
				"clanFlags(uint8)": "2573",
				"clanMemberTiles(uint8,uint256)": "6497",
				"clanNameTaken(bytes32)": "2518",
				"clans(uint8)": "infinite",
				"createClan(uint8,uint8,string)": "infinite",
				"disbandClan(uint8,uint8,uint8)": "infinite",
				"getAllClans()": "infinite",
				"getAllTilesWithClans()": "infinite",
				"getBonus(uint8,uint8)": "infinite",
				"getClanInfo(uint8)": "infinite",
				"getClanLeaderCoords(uint8)": "4908",
				"getClanMemberCount(uint8)": "4875",
				"getClanMemberTiles(uint8)": "infinite",
				"getTileClan(uint8,uint8)": "infinite",
				"getTileClanName(uint8,uint8)": "infinite",
				"getTileName(uint8,uint8)": "infinite",
				"getTwitterHandle(address)": "infinite",
				"inviteTileToClan(uint8,uint8,uint8,uint8,uint8)": "infinite",
				"isClanNameAvailable(string)": "infinite",
				"leaveClanForTile(uint8,uint8)": "infinite",
				"lopToken()": "2428",
				"membersByTile(uint16)": "2624",
				"nameTile(uint8,uint8,string)": "infinite",
				"nftMarket()": "2428",
				"pendingInvitesByTile(uint16)": "2555",
				"refuseInviteForTile(uint8,uint8)": "infinite",
				"removeMemberTile(uint8,uint8,uint8,uint8,uint8)": "infinite",
				"setClanFlag(uint8,uint8,uint8,uint256)": "infinite",
				"setTwitterHandle(string)": "infinite",
				"theLand()": "2405",
				"tileClans(uint8,uint8)": "infinite",
				"tileMapPhaser()": "2449",
				"tileNames(uint8,uint8)": "infinite",
				"twitterHandles(address)": "infinite"
			},
			"internal": {
				"_nameKey(string memory)": "infinite",
				"_tileKey(uint8,uint8)": "infinite",
				"_toLower(string memory)": "infinite",
				"_trim(string memory)": "infinite",
				"_unpackKey(uint16)": "infinite"
			}
		},
		"methodIdentifiers": {
			"CLAN_CREATION_COST()": "731ae689",
			"CLAN_FLAG_COST()": "65191666",
			"LEAVE_CLAN_BURN()": "e4547fb4",
			"LEAVE_CLAN_COST()": "2e4b51bd",
			"LEAVE_CLAN_PAYOUT()": "5387a797",
			"MAX_MEMBERS()": "ea0e35b1",
			"REMOVE_MEMBER_BURN()": "e6192fca",
			"REMOVE_MEMBER_COST()": "0cea9dc5",
			"REMOVE_MEMBER_PAYOUT()": "2c6d422f",
			"TILE_NAMING_COST()": "62c5813d",
			"acceptInviteForTile(uint8,uint8)": "a609775b",
			"bonuses(uint256,uint256)": "bc9955a2",
			"clanFlags(uint8)": "eaa10576",
			"clanMemberTiles(uint8,uint256)": "d1433201",
			"clanNameTaken(bytes32)": "36780527",
			"clans(uint8)": "d4ceeec0",
			"createClan(uint8,uint8,string)": "98a8d0e7",
			"disbandClan(uint8,uint8,uint8)": "6573c241",
			"getAllClans()": "9b21d6eb",
			"getAllTilesWithClans()": "2dec2e63",
			"getBonus(uint8,uint8)": "2a2026a9",
			"getClanInfo(uint8)": "2fad0429",
			"getClanLeaderCoords(uint8)": "154538ab",
			"getClanMemberCount(uint8)": "9d995717",
			"getClanMemberTiles(uint8)": "bfc22a82",
			"getTileClan(uint8,uint8)": "7ab9e7fe",
			"getTileClanName(uint8,uint8)": "9cec5194",
			"getTileName(uint8,uint8)": "09e59cec",
			"getTwitterHandle(address)": "f15ad264",
			"inviteTileToClan(uint8,uint8,uint8,uint8,uint8)": "c0ad21d8",
			"isClanNameAvailable(string)": "3f9662bb",
			"leaveClanForTile(uint8,uint8)": "1cecb4fb",
			"lopToken()": "0d67f59e",
			"membersByTile(uint16)": "3942613c",
			"nameTile(uint8,uint8,string)": "0821de3e",
			"nftMarket()": "196ab1ab",
			"pendingInvitesByTile(uint16)": "40b76bbd",
			"refuseInviteForTile(uint8,uint8)": "44ad764d",
			"removeMemberTile(uint8,uint8,uint8,uint8,uint8)": "fd7c31a6",
			"setClanFlag(uint8,uint8,uint8,uint256)": "5c0068a2",
			"setTwitterHandle(string)": "2f57741c",
			"theLand()": "b0d77774",
			"tileClans(uint8,uint8)": "58612a20",
			"tileMapPhaser()": "4f264b03",
			"tileNames(uint8,uint8)": "7b0c98ef",
			"twitterHandles(address)": "13a5cede"
		}
	},
	"abi": [
		{
			"inputs": [
				{
					"internalType": "address",
					"name": "_tileMapPhaser",
					"type": "address"
				},
				{
					"internalType": "address",
					"name": "_lopToken",
					"type": "address"
				},
				{
					"internalType": "address",
					"name": "_nftMarket",
					"type": "address"
				},
				{
					"internalType": "address",
					"name": "_theLand",
					"type": "address"
				}
			],
			"stateMutability": "nonpayable",
			"type": "constructor"
		},
		{
			"inputs": [],
			"name": "CLAN_CREATION_COST",
			"outputs": [
				{
					"internalType": "uint256",
					"name": "",
					"type": "uint256"
				}
			],
			"stateMutability": "view",
			"type": "function"
		},
		{
			"inputs": [],
			"name": "CLAN_FLAG_COST",
			"outputs": [
				{
					"internalType": "uint256",
					"name": "",
					"type": "uint256"
				}
			],
			"stateMutability": "view",
			"type": "function"
		},
		{
			"inputs": [],
			"name": "LEAVE_CLAN_BURN",
			"outputs": [
				{
					"internalType": "uint256",
					"name": "",
					"type": "uint256"
				}
			],
			"stateMutability": "view",
			"type": "function"
		},
		{
			"inputs": [],
			"name": "LEAVE_CLAN_COST",
			"outputs": [
				{
					"internalType": "uint256",
					"name": "",
					"type": "uint256"
				}
			],
			"stateMutability": "view",
			"type": "function"
		},
		{
			"inputs": [],
			"name": "LEAVE_CLAN_PAYOUT",
			"outputs": [
				{
					"internalType": "uint256",
					"name": "",
					"type": "uint256"
				}
			],
			"stateMutability": "view",
			"type": "function"
		},
		{
			"inputs": [],
			"name": "MAX_MEMBERS",
			"outputs": [
				{
					"internalType": "uint8",
					"name": "",
					"type": "uint8"
				}
			],
			"stateMutability": "view",
			"type": "function"
		},
		{
			"inputs": [],
			"name": "REMOVE_MEMBER_BURN",
			"outputs": [
				{
					"internalType": "uint256",
					"name": "",
					"type": "uint256"
				}
			],
			"stateMutability": "view",
			"type": "function"
		},
		{
			"inputs": [],
			"name": "REMOVE_MEMBER_COST",
			"outputs": [
				{
					"internalType": "uint256",
					"name": "",
					"type": "uint256"
				}
			],
			"stateMutability": "view",
			"type": "function"
		},
		{
			"inputs": [],
			"name": "REMOVE_MEMBER_PAYOUT",
			"outputs": [
				{
					"internalType": "uint256",
					"name": "",
					"type": "uint256"
				}
			],
			"stateMutability": "view",
			"type": "function"
		},
		{
			"inputs": [],
			"name": "TILE_NAMING_COST",
			"outputs": [
				{
					"internalType": "uint256",
					"name": "",
					"type": "uint256"
				}
			],
			"stateMutability": "view",
			"type": "function"
		},
		{
			"inputs": [
				{
					"internalType": "uint8",
					"name": "x",
					"type": "uint8"
				},
				{
					"internalType": "uint8",
					"name": "y",
					"type": "uint8"
				}
			],
			"name": "acceptInviteForTile",
			"outputs": [],
			"stateMutability": "nonpayable",
			"type": "function"
		},
		{
			"inputs": [
				{
					"internalType": "uint256",
					"name": "",
					"type": "uint256"
				},
				{
					"internalType": "uint256",
					"name": "",
					"type": "uint256"
				}
			],
			"name": "bonuses",
			"outputs": [
				{
					"internalType": "uint8",
					"name": "",
					"type": "uint8"
				}
			],
			"stateMutability": "view",
			"type": "function"
		},
		{
			"inputs": [
				{
					"internalType": "uint8",
					"name": "",
					"type": "uint8"
				}
			],
			"name": "clanFlags",
			"outputs": [
				{
					"internalType": "uint256",
					"name": "",
					"type": "uint256"
				}
			],
			"stateMutability": "view",
			"type": "function"
		},
		{
			"inputs": [
				{
					"internalType": "uint8",
					"name": "",
					"type": "uint8"
				},
				{
					"internalType": "uint256",
					"name": "",
					"type": "uint256"
				}
			],
			"name": "clanMemberTiles",
			"outputs": [
				{
					"internalType": "uint16",
					"name": "",
					"type": "uint16"
				}
			],
			"stateMutability": "view",
			"type": "function"
		},
		{
			"inputs": [
				{
					"internalType": "bytes32",
					"name": "",
					"type": "bytes32"
				}
			],
			"name": "clanNameTaken",
			"outputs": [
				{
					"internalType": "bool",
					"name": "",
					"type": "bool"
				}
			],
			"stateMutability": "view",
			"type": "function"
		},
		{
			"inputs": [
				{
					"internalType": "uint8",
					"name": "",
					"type": "uint8"
				}
			],
			"name": "clans",
			"outputs": [
				{
					"internalType": "string",
					"name": "name",
					"type": "string"
				},
				{
					"internalType": "uint8",
					"name": "leaderX",
					"type": "uint8"
				},
				{
					"internalType": "uint8",
					"name": "leaderY",
					"type": "uint8"
				},
				{
					"internalType": "uint8",
					"name": "memberCount",
					"type": "uint8"
				},
				{
					"internalType": "bool",
					"name": "exists",
					"type": "bool"
				}
			],
			"stateMutability": "view",
			"type": "function"
		},
		{
			"inputs": [
				{
					"internalType": "uint8",
					"name": "x",
					"type": "uint8"
				},
				{
					"internalType": "uint8",
					"name": "y",
					"type": "uint8"
				},
				{
					"internalType": "string",
					"name": "name",
					"type": "string"
				}
			],
			"name": "createClan",
			"outputs": [],
			"stateMutability": "nonpayable",
			"type": "function"
		},
		{
			"inputs": [
				{
					"internalType": "uint8",
					"name": "clanId",
					"type": "uint8"
				},
				{
					"internalType": "uint8",
					"name": "lx",
					"type": "uint8"
				},
				{
					"internalType": "uint8",
					"name": "ly",
					"type": "uint8"
				}
			],
			"name": "disbandClan",
			"outputs": [],
			"stateMutability": "nonpayable",
			"type": "function"
		},
		{
			"inputs": [],
			"name": "getAllClans",
			"outputs": [
				{
					"components": [
						{
							"internalType": "string",
							"name": "name",
							"type": "string"
						},
						{
							"internalType": "uint8",
							"name": "leaderX",
							"type": "uint8"
						},
						{
							"internalType": "uint8",
							"name": "leaderY",
							"type": "uint8"
						},
						{
							"internalType": "uint8",
							"name": "memberCount",
							"type": "uint8"
						},
						{
							"internalType": "bool",
							"name": "exists",
							"type": "bool"
						}
					],
					"internalType": "struct Clan.ClanInfo[]",
					"name": "",
					"type": "tuple[]"
				}
			],
			"stateMutability": "view",
			"type": "function"
		},
		{
			"inputs": [],
			"name": "getAllTilesWithClans",
			"outputs": [
				{
					"components": [
						{
							"internalType": "uint8",
							"name": "x",
							"type": "uint8"
						},
						{
							"internalType": "uint8",
							"name": "y",
							"type": "uint8"
						},
						{
							"internalType": "uint8",
							"name": "clanId",
							"type": "uint8"
						},
						{
							"internalType": "uint256",
							"name": "flagTokenId",
							"type": "uint256"
						}
					],
					"internalType": "struct Clan.TileClanInfo[]",
					"name": "",
					"type": "tuple[]"
				}
			],
			"stateMutability": "view",
			"type": "function"
		},
		{
			"inputs": [
				{
					"internalType": "uint8",
					"name": "x",
					"type": "uint8"
				},
				{
					"internalType": "uint8",
					"name": "y",
					"type": "uint8"
				}
			],
			"name": "getBonus",
			"outputs": [
				{
					"internalType": "uint8",
					"name": "",
					"type": "uint8"
				}
			],
			"stateMutability": "view",
			"type": "function"
		},
		{
			"inputs": [
				{
					"internalType": "uint8",
					"name": "clanId",
					"type": "uint8"
				}
			],
			"name": "getClanInfo",
			"outputs": [
				{
					"components": [
						{
							"internalType": "string",
							"name": "name",
							"type": "string"
						},
						{
							"internalType": "uint8",
							"name": "leaderX",
							"type": "uint8"
						},
						{
							"internalType": "uint8",
							"name": "leaderY",
							"type": "uint8"
						},
						{
							"internalType": "uint8",
							"name": "memberCount",
							"type": "uint8"
						},
						{
							"internalType": "bool",
							"name": "exists",
							"type": "bool"
						}
					],
					"internalType": "struct Clan.ClanInfo",
					"name": "",
					"type": "tuple"
				}
			],
			"stateMutability": "view",
			"type": "function"
		},
		{
			"inputs": [
				{
					"internalType": "uint8",
					"name": "clanId",
					"type": "uint8"
				}
			],
			"name": "getClanLeaderCoords",
			"outputs": [
				{
					"internalType": "uint8",
					"name": "",
					"type": "uint8"
				},
				{
					"internalType": "uint8",
					"name": "",
					"type": "uint8"
				}
			],
			"stateMutability": "view",
			"type": "function"
		},
		{
			"inputs": [
				{
					"internalType": "uint8",
					"name": "clanId",
					"type": "uint8"
				}
			],
			"name": "getClanMemberCount",
			"outputs": [
				{
					"internalType": "uint8",
					"name": "",
					"type": "uint8"
				}
			],
			"stateMutability": "view",
			"type": "function"
		},
		{
			"inputs": [
				{
					"internalType": "uint8",
					"name": "clanId",
					"type": "uint8"
				}
			],
			"name": "getClanMemberTiles",
			"outputs": [
				{
					"components": [
						{
							"internalType": "uint8",
							"name": "x",
							"type": "uint8"
						},
						{
							"internalType": "uint8",
							"name": "y",
							"type": "uint8"
						},
						{
							"internalType": "uint8",
							"name": "clanId",
							"type": "uint8"
						},
						{
							"internalType": "uint256",
							"name": "flagTokenId",
							"type": "uint256"
						}
					],
					"internalType": "struct Clan.TileClanInfo[]",
					"name": "",
					"type": "tuple[]"
				}
			],
			"stateMutability": "view",
			"type": "function"
		},
		{
			"inputs": [
				{
					"internalType": "uint8",
					"name": "x",
					"type": "uint8"
				},
				{
					"internalType": "uint8",
					"name": "y",
					"type": "uint8"
				}
			],
			"name": "getTileClan",
			"outputs": [
				{
					"internalType": "uint8",
					"name": "",
					"type": "uint8"
				}
			],
			"stateMutability": "view",
			"type": "function"
		},
		{
			"inputs": [
				{
					"internalType": "uint8",
					"name": "x",
					"type": "uint8"
				},
				{
					"internalType": "uint8",
					"name": "y",
					"type": "uint8"
				}
			],
			"name": "getTileClanName",
			"outputs": [
				{
					"internalType": "string",
					"name": "",
					"type": "string"
				}
			],
			"stateMutability": "view",
			"type": "function"
		},
		{
			"inputs": [
				{
					"internalType": "uint8",
					"name": "x",
					"type": "uint8"
				},
				{
					"internalType": "uint8",
					"name": "y",
					"type": "uint8"
				}
			],
			"name": "getTileName",
			"outputs": [
				{
					"internalType": "string",
					"name": "",
					"type": "string"
				}
			],
			"stateMutability": "view",
			"type": "function"
		},
		{
			"inputs": [
				{
					"internalType": "address",
					"name": "user",
					"type": "address"
				}
			],
			"name": "getTwitterHandle",
			"outputs": [
				{
					"internalType": "string",
					"name": "",
					"type": "string"
				}
			],
			"stateMutability": "view",
			"type": "function"
		},
		{
			"inputs": [
				{
					"internalType": "uint8",
					"name": "clanId",
					"type": "uint8"
				},
				{
					"internalType": "uint8",
					"name": "lx",
					"type": "uint8"
				},
				{
					"internalType": "uint8",
					"name": "ly",
					"type": "uint8"
				},
				{
					"internalType": "uint8",
					"name": "targetX",
					"type": "uint8"
				},
				{
					"internalType": "uint8",
					"name": "targetY",
					"type": "uint8"
				}
			],
			"name": "inviteTileToClan",
			"outputs": [],
			"stateMutability": "nonpayable",
			"type": "function"
		},
		{
			"inputs": [
				{
					"internalType": "string",
					"name": "name",
					"type": "string"
				}
			],
			"name": "isClanNameAvailable",
			"outputs": [
				{
					"internalType": "bool",
					"name": "",
					"type": "bool"
				}
			],
			"stateMutability": "view",
			"type": "function"
		},
		{
			"inputs": [
				{
					"internalType": "uint8",
					"name": "x",
					"type": "uint8"
				},
				{
					"internalType": "uint8",
					"name": "y",
					"type": "uint8"
				}
			],
			"name": "leaveClanForTile",
			"outputs": [],
			"stateMutability": "nonpayable",
			"type": "function"
		},
		{
			"inputs": [],
			"name": "lopToken",
			"outputs": [
				{
					"internalType": "contract IHarmLop",
					"name": "",
					"type": "address"
				}
			],
			"stateMutability": "view",
			"type": "function"
		},
		{
			"inputs": [
				{
					"internalType": "uint16",
					"name": "",
					"type": "uint16"
				}
			],
			"name": "membersByTile",
			"outputs": [
				{
					"internalType": "uint8",
					"name": "clanId",
					"type": "uint8"
				},
				{
					"internalType": "bool",
					"name": "isMember",
					"type": "bool"
				}
			],
			"stateMutability": "view",
			"type": "function"
		},
		{
			"inputs": [
				{
					"internalType": "uint8",
					"name": "x",
					"type": "uint8"
				},
				{
					"internalType": "uint8",
					"name": "y",
					"type": "uint8"
				},
				{
					"internalType": "string",
					"name": "newName",
					"type": "string"
				}
			],
			"name": "nameTile",
			"outputs": [],
			"stateMutability": "nonpayable",
			"type": "function"
		},
		{
			"inputs": [],
			"name": "nftMarket",
			"outputs": [
				{
					"internalType": "contract IMyNFTMarket",
					"name": "",
					"type": "address"
				}
			],
			"stateMutability": "view",
			"type": "function"
		},
		{
			"inputs": [
				{
					"internalType": "uint16",
					"name": "",
					"type": "uint16"
				}
			],
			"name": "pendingInvitesByTile",
			"outputs": [
				{
					"internalType": "uint8",
					"name": "",
					"type": "uint8"
				}
			],
			"stateMutability": "view",
			"type": "function"
		},
		{
			"inputs": [
				{
					"internalType": "uint8",
					"name": "x",
					"type": "uint8"
				},
				{
					"internalType": "uint8",
					"name": "y",
					"type": "uint8"
				}
			],
			"name": "refuseInviteForTile",
			"outputs": [],
			"stateMutability": "nonpayable",
			"type": "function"
		},
		{
			"inputs": [
				{
					"internalType": "uint8",
					"name": "clanId",
					"type": "uint8"
				},
				{
					"internalType": "uint8",
					"name": "lx",
					"type": "uint8"
				},
				{
					"internalType": "uint8",
					"name": "ly",
					"type": "uint8"
				},
				{
					"internalType": "uint8",
					"name": "mx",
					"type": "uint8"
				},
				{
					"internalType": "uint8",
					"name": "my",
					"type": "uint8"
				}
			],
			"name": "removeMemberTile",
			"outputs": [],
			"stateMutability": "nonpayable",
			"type": "function"
		},
		{
			"inputs": [
				{
					"internalType": "uint8",
					"name": "clanId",
					"type": "uint8"
				},
				{
					"internalType": "uint8",
					"name": "lx",
					"type": "uint8"
				},
				{
					"internalType": "uint8",
					"name": "ly",
					"type": "uint8"
				},
				{
					"internalType": "uint256",
					"name": "tokenId",
					"type": "uint256"
				}
			],
			"name": "setClanFlag",
			"outputs": [],
			"stateMutability": "nonpayable",
			"type": "function"
		},
		{
			"inputs": [
				{
					"internalType": "string",
					"name": "handle",
					"type": "string"
				}
			],
			"name": "setTwitterHandle",
			"outputs": [],
			"stateMutability": "nonpayable",
			"type": "function"
		},
		{
			"inputs": [],
			"name": "theLand",
			"outputs": [
				{
					"internalType": "contract ITheLand",
					"name": "",
					"type": "address"
				}
			],
			"stateMutability": "view",
			"type": "function"
		},
		{
			"inputs": [
				{
					"internalType": "uint8",
					"name": "",
					"type": "uint8"
				},
				{
					"internalType": "uint8",
					"name": "",
					"type": "uint8"
				}
			],
			"name": "tileClans",
			"outputs": [
				{
					"internalType": "uint8",
					"name": "",
					"type": "uint8"
				}
			],
			"stateMutability": "view",
			"type": "function"
		},
		{
			"inputs": [],
			"name": "tileMapPhaser",
			"outputs": [
				{
					"internalType": "contract ITileMapPhaser",
					"name": "",
					"type": "address"
				}
			],
			"stateMutability": "view",
			"type": "function"
		},
		{
			"inputs": [
				{
					"internalType": "uint8",
					"name": "",
					"type": "uint8"
				},
				{
					"internalType": "uint8",
					"name": "",
					"type": "uint8"
				}
			],
			"name": "tileNames",
			"outputs": [
				{
					"internalType": "string",
					"name": "",
					"type": "string"
				}
			],
			"stateMutability": "view",
			"type": "function"
		},
		{
			"inputs": [
				{
					"internalType": "address",
					"name": "",
					"type": "address"
				}
			],
			"name": "twitterHandles",
			"outputs": [
				{
					"internalType": "string",
					"name": "",
					"type": "string"
				}
			],
			"stateMutability": "view",
			"type": "function"
		}
	]
}