{
	"data": {
		"bytecode": {
			"linkReferences": {},
			"object": "60046103008181526103208290526103408290526103608290526103808290526103a082905260036103c08190526103e081905261040081905261042081905261044081905261046081905260026104808190526104a081905260016104c08190526104e082905261050082905261052082905261054082905261056082905260809384526105808581526105a08690526105c08690526105e08690526106008690526106208690526106408690526106608490526106808490526106a08490526106c08490526106e08490526107008390526107208290526107408290526107608390526107808390526107a08390526107c08390526107e083905260a0526108008581526108208690526108408690526108608690526108808690526108a08690526108c08690526108e08690526109008490526109208490526109408490526109608490526109808390526109a08390526109c08290526109e0829052610a00839052610a20839052610a40839052610a6083905260c052610a80858152610aa0869052610ac0869052610ae0869052610b00869052610b20869052610b40869052610b6095909552610b80839052610ba0839052610bc0839052610be0839052610c00839052610c20819052610c40819052610c60819052610c80829052610ca0829052610cc0829052610ce082905260e094909452610d00828152610d20839052610d40839052610d60839052610d80839052610da0839052610dc0839052610de0839052610e00839052610e20839052610e40839052610e60839052610e80859052610ea0859052610ec0859052610ee0859052610f00829052610f20829052610f40829052610f6082905261010052610f80828152610fa0839052610fc0839052610fe08390526110008390526110208390526110408390526110608390526110808390526110a08390526110c08390526110e08390526111008590526111208590526111408590526111608590526111808290526111a08290526111c08290526111e0829052610120526112008281526112208390526112408390526112608390526112808390526112a08390526112c08390526112e08390526113008390526113208390526113408390526113608390526113808590526113a08590526113c08590526113e0859052611400859052611420859052611440859052611460859052610140526114808281526114a08390526114c08390526114e08590526115008390526115208390526115408390526115608390526115808390526115a08390526115c08390526115e08590526116008290526116208290526116408290526116608290526116808590526116a08590526116c08590526116e0859052610160526117008281526117208390526117408390526117608590526117808590526117a08290526117c08290526117e08290526118008290526118208290526118408290526118608590526118808290526118a08290526118c08290526118e0829052611900829052611920829052611940829052611960859052610180526119808481526119a08290526119c08290526119e0859052611a00829052611a20829052611a40829052611a60829052611a80829052611aa0829052611ac0829052611ae0859052611b00829052611b20829052611b40829052611b60829052611b80829052611ba0829052611bc0829052611be08590526101a052611c00818152611c20829052611c40859052611c60859052611c80829052611ca0829052611cc0829052611ce0829052611d00829052611d20829052611d40859052611d60859052611d80829052611da0829052611dc0829052611de0829052611e00829052611e20829052611e40859052611e608590526101c052611e80828152611ea0839052611ec0839052611ee0829052611f00859052611f20829052611f40829052611f60829052611f80829052611fa0829052611fc0859052611fe08290526120008290526120208290526120408290526120608590526120808590526120a08590526120c08590526120e08590526101e0526121008281526121208390526121408390526121608390526121808590526121a08590526121c08290526121e08290526122008290526122208290526122408590526122608590526122808290526122a08290526122c08290526122e0859052612300859052612320859052612340859052612360859052610200526123808281526123a08390526123c08390526123e08390526124008390526124208590526124408290526124608290526124808290526124a08290526124c08590526124e08590526125008590526125208290526125408290526125608290526125808290526125a08590526125c08590526125e0859052610220526126008281526126208390526126408390526126608390526126808390526126a08290526126c08290526126e08290526127008390526127208390526127408290526127608290526127808590526127a08290526127c08290526127e0829052612800829052612820859052612840859052612860859052610240526128808181526128a08290526128c08290526128e08590526129008590526129208590526129408590526129608590526129808390526129a08390526129c08390526129e0839052612a00859052612a20859052612a40829052612a60829052612a80829052612aa0859052612ac0859052612ae085905261026052612b00818152612b20829052612b40829052612b60829052612b80829052612ba0829052612bc0859052612be0859052612c00839052612c20839052612c40839052612c60839052612c80859052612ca0859052612cc0859052612ce0859052612d00839052612d20839052612d40829052612d6082905261028052612d80818152612da0829052612dc0829052612de0829052612e00829052612e20829052612e40829052612e60859052612e80839052612ea0839052612ec0839052612ee0839052612f00859052612f20859052612f40859052612f60859052612f80839052612fa0839052612fc0829052612fe08290526102a0526130008181526130208290526130408290526130608290526130808290526130a08290526130c08290526130e08590526131008590526131208290526131408290526131608590526131808590526131a08290526131c08290526131e08590526132008390526132208390526132408290526132608290526102c0526135006040526132808181526132a08290526132c08290526132e08290526133008290526133208290526133408290526133608590526133808590526133a08590526133c08590526133e0859052613400859052613420859052613440949094526134608290526134808290526134a0919091526134c08190526134e0526102e091909152620009d290600090601462000a57565b50348015620009e057600080fd5b50604051620045253803806200452583398101604081905262000a039162000b87565b601480546001600160a01b039586166001600160a01b031991821617909155601580549486169482169490941790935560218054928516928416929092179091556016805491909316911617905562000be4565b826014810192821562000a96579160200282015b8281111562000a9657825162000a85908390601462000aa8565b509160200191906001019062000a6b565b5062000aa492915062000b3e565b5090565b60018301918390821562000b305791602002820160005b8382111562000aff57835183826101000a81548160ff021916908360ff160217905550926020019260010160208160000104928301926001030262000abf565b801562000b2e5782816101000a81549060ff021916905560010160208160000104928301926001030262000aff565b505b5062000aa492915062000b54565b8082111562000aa4576000815560010162000b3e565b8082111562000aa4576000815560010162000b3e565b80516001600160a01b038116811462000b8257600080fd5b919050565b6000806000806080858703121562000b9e57600080fd5b62000ba98562000b6a565b935062000bb96020860162000b6a565b925062000bc96040860162000b6a565b915062000bd96060860162000b6a565b905092959194509250565b6139318062000bf46000396000f3fe608060405234801561001057600080fd5b50600436106102325760003560e01c80636519166611610130578063aae1aa37116100b8578063c2024ede1161007c578063c2024ede1461056e578063d4ceeec014610581578063ea0e35b1146105a4578063eaa10576146105ac578063f15ad264146105cc57600080fd5b8063aae1aa3714610525578063b0d777741461052d578063bbb4d3e914610540578063bc9955a214610548578063bde7ef821461055b57600080fd5b80637b0c98ef116100ff5780637b0c98ef146104cf57806386722228146104e25780639adff8d0146104ea5780639b21d6eb146104fd5780639d9957171461051257600080fd5b806365191666146104665780636927480314610480578063731ae689146104935780637ab9e7fe1461049f57600080fd5b80631db8d500116101be578063367805271161018257806336780527146103e15780633f9662bb146104145780634f264b031461042757806358612a201461043a57806362c5813d1461046657600080fd5b80631db8d500146103735780632a2026a9146103865780632dec2e63146103995780632f57741c146103ae5780632fad0429146103c157600080fd5b80630d67f59e116102055780630d67f59e146102da57806313a5cede1461030557806314cebc7114610318578063196ab1ab1461032b5780631d0373ad1461033e57600080fd5b80630636fcb2146102375780630821de3e1461026057806308ae4b0c1461027557806309e59cec146102ba575b600080fd5b61024a610245366004612d83565b6105df565b6040516102579190612da7565b60405180910390f35b61027361026e366004612e3c565b61064f565b005b6102a1610283366004612eb5565b601b6020526000908152604090205460ff8082169161010090041682565b6040805160ff9093168352901515602083015201610257565b6102cd6102c8366004612ed2565b6108aa565b6040516102579190612f5b565b6015546102ed906001600160a01b031681565b6040516001600160a01b039091168152602001610257565b6102cd610313366004612eb5565b61095f565b610273610326366004612f6e565b6109f9565b6021546102ed906001600160a01b031681565b61036161034c366004612eb5565b601d6020526000908152604090205460ff1681565b60405160ff9091168152602001610257565b6102ed610381366004612faf565b610ebd565b610361610394366004612ed2565b610ef5565b6103a1610f98565b6040516102579190612fdb565b6102736103bc366004612f6e565b611164565b6103d46103cf366004612d83565b611183565b6040516102579190613093565b6104046103ef3660046130a6565b60176020526000908152604090205460ff1681565b6040519015158152602001610257565b610404610422366004612f6e565b611291565b6014546102ed906001600160a01b031681565b610361610448366004612ed2565b60208080526000928352604080842090915290825290205460ff1681565b6104726402540be40081565b604051908152602001610257565b61027361048e3660046130bf565b6112ee565b61047264174876e80081565b6103616104ad366004612ed2565b60ff918216600090815260208080526040808320938516835292905220541690565b6102cd6104dd366004612ed2565b61157c565b6102736115a0565b6102736104f8366004612faf565b611618565b6105056119c2565b60405161025791906130ed565b610361610520366004612d83565b611beb565b610273611c4c565b6016546102ed906001600160a01b031681565b610273611fa4565b61036161055636600461314f565b6121fd565b610273610569366004612d83565b612239565b61027361057c3660046130bf565b6124b6565b61059461058f366004612d83565b61281f565b6040516102579493929190613171565b610361601e81565b6104726105ba366004612d83565b60226020526000908152604090205481565b6102cd6105da366004612eb5565b6128e2565b60ff81166000908152601c602090815260409182902080548351818402810184019094528084526060939283018282801561064357602002820191906000526020600020905b81546001600160a01b03168152600190910190602001808311610625575b50505050509050919050565b806106985760405162461bcd60e51b81526020600482015260146024820152734e616d652063616e6e6f7420626520656d70747960601b60448201526064015b60405180910390fd5b601454604051638a88895360e01b815260ff80871660048301528516602482015233916001600160a01b031690638a88895390604401602060405180830381865afa1580156106eb573d6000803e3d6000fd5b505050506040513d601f19601f8201168201806040525081019061070f91906131be565b6001600160a01b0316146107705760405162461bcd60e51b815260206004820152602260248201527f596f7520617265206e6f7420746865206f776e6572206f6620746869732074696044820152616c6560f01b606482015260840161068f565b6015546040516323b872dd60e01b81523360048201523060248201526402540be40060448201526001600160a01b03909116906323b872dd906064016020604051808303816000875af11580156107cb573d6000803e3d6000fd5b505050506040513d601f19601f820116820180604052508101906107ef91906131db565b6108325760405162461bcd60e51b8152602060048201526014602482015273151bdad95b881c185e5b595b9d0819985a5b195960621b604482015260640161068f565b60ff8085166000908152601e6020908152604080832093871683529290522061085c82848361329b565b50336001600160a01b03167f4ca3860ff74978d12a483f5d8fa68a3f3c3ceb09b008784dc253bfbc348ab3e88585858560405161089c9493929190613384565b60405180910390a250505050565b60ff8083166000908152601e602090815260408083209385168352929052208054606091906108d890613213565b80601f016020809104026020016040519081016040528092919081815260200182805461090490613213565b80156109515780601f1061092657610100808354040283529160200191610951565b820191906000526020600020905b81548152906001019060200180831161093457829003601f168201915b505050505090505b92915050565b601f602052600090815260409020805461097890613213565b80601f01602080910402602001604051908101604052809291908181526020018280546109a490613213565b80156109f15780601f106109c6576101008083540402835291602001916109f1565b820191906000526020600020905b8154815290600101906020018083116109d457829003601f168201915b505050505081565b610a0233612984565b610a1e5760405162461bcd60e51b815260040161068f906133b4565b80610a6b5760405162461bcd60e51b815260206004820152601960248201527f436c616e206e616d652063616e6e6f7420626520656d70747900000000000000604482015260640161068f565b336000908152601b6020526040902054610100900460ff1615610ac45760405162461bcd60e51b815260206004820152601160248201527020b63932b0b23c9034b710309031b630b760791b604482015260640161068f565b6000610b0583838080601f0160208091040260200160405190810160405280939291908181526020018383808284376000920191909152506129f392505050565b60008181526017602052604090205490915060ff1615610b675760405162461bcd60e51b815260206004820152601760248201527f436c616e206e616d6520616c72656164792074616b656e000000000000000000604482015260640161068f565b600080610b7333612a33565b601654604051631c6331c160e31b81523360048201529294509092506001600160a01b03169063e3198e0890602401602060405180830381865afa158015610bbf573d6000803e3d6000fd5b505050506040513d601f19601f82011682018060405250810190610be391906131db565b610bff5760405162461bcd60e51b815260040161068f90613400565b6015546040516323b872dd60e01b815233600482015230602482015264174876e80060448201526001600160a01b03909116906323b872dd906064016020604051808303816000875af1158015610c5a573d6000803e3d6000fd5b505050506040513d601f19601f82011682018060405250810190610c7e91906131db565b610cc05760405162461bcd60e51b81526020600482015260136024820152721313d4081d1c985b9cd9995c8819985a5b1959606a1b604482015260640161068f565b6019805460ff16906000610cd38361344d565b91906101000a81548160ff021916908360ff16021790555050604051806080016040528086868080601f01602080910402602001604051908101604052809392919081815260200183838082843760009201829052509385525050336020808501919091526001604080860182905260609095015260195460ff168352601a9052502081518190610d64908261346c565b50602082810151600192830180546040808701516060909701511515600160a81b0260ff60a81b1960ff988916600160a01b026001600160a81b03199094166001600160a01b03909616959095179290921793909316179055805180820182526019805486168252818401858152336000818152601b875285812094518554935115156101000261ffff19909416908a161792909217909355815487168152601c8552838120805480880182559082528582200180546001600160a01b031916841790558154898816825285805284822089891683528652848220805460ff19908116928a169290921790558a8252601786528482208054909116909617909555805486168552601890935292819020879055905490517f02894fc6a8646076b891138309ffb3fc9086490a703074b2b2d77c5dcddb43de93610eae93921691899189919061352b565b60405180910390a15050505050565b601c6020528160005260406000208181548110610ed957600080fd5b6000918252602090912001546001600160a01b03169150829050565b600060148360ff16108015610f0d575060148260ff16105b610f4f5760405162461bcd60e51b8152602060048201526013602482015272496e76616c696420636f6f7264696e6174657360681b604482015260640161068f565b60008360ff1660148110610f6557610f65613561565b018260ff1660148110610f7a57610f7a613561565b602081049091015460ff601f9092166101000a900416905092915050565b60606000805b60148160ff1610156110115760005b60148160ff161015610ffe5760ff80831660009081526020808052604080832085851684529091529020541615610fec5782610fe881613577565b9350505b80610ff68161344d565b915050610fad565b50806110098161344d565b915050610f9e565b506000816001600160401b0381111561102c5761102c6131fd565b60405190808252806020026020018201604052801561107e57816020015b60408051608081018252600080825260208083018290529282018190526060820152825260001990920191018161104a5790505b5090506000805b60148160ff16101561115b5760005b60148160ff1610156111485760ff80831660009081526020808052604080832085851684529091529020541680156111355760405180608001604052808460ff1681526020018360ff1681526020018260ff168152602001602260008460ff1660ff1681526020019081526020016000205481525085858151811061111b5761111b613561565b6020026020010181905250838061113190613577565b9450505b50806111408161344d565b915050611094565b50806111538161344d565b915050611085565b50909392505050565b336000908152601f6020526040902061117e82848361329b565b505050565b60408051608081018252606080825260006020830181905292820183905281019190915260ff82166000908152601a6020526040908190208151608081019092528054829082906111d390613213565b80601f01602080910402602001604051908101604052809291908181526020018280546111ff90613213565b801561124c5780601f106112215761010080835404028352916020019161124c565b820191906000526020600020905b81548152906001019060200180831161122f57829003601f168201915b5050509183525050600191909101546001600160a01b038116602083015260ff600160a01b820481166040840152600160a81b90910416151560609091015292915050565b6000806112d384848080601f0160208091040260200160405190810160405280939291908181526020018383808284376000920191909152506129f392505050565b60009081526017602052604090205460ff1615949350505050565b60ff82166000908152601a602052604090206001015482906001600160a01b0316331461132d5760405162461bcd60e51b815260040161068f90613590565b60ff8084166000908152601a6020526040902060010154600160a81b9004166113685760405162461bcd60e51b815260040161068f906135d8565b60ff8381166000908152601a6020526040902060010154601e600160a01b909104909116106113c85760405162461bcd60e51b815260206004820152600c60248201526b10db185b881a5cc8199d5b1b60a21b604482015260640161068f565b6001600160a01b0382166000908152601b6020526040902054610100900460ff16156114365760405162461bcd60e51b815260206004820152601b60248201527f506c6179657220697320616c726561647920696e206120636c616e0000000000604482015260640161068f565b61143f82612984565b61148b5760405162461bcd60e51b815260206004820152601a60248201527f506c6179657220646f6573206e6f74206f776e20612074696c65000000000000604482015260640161068f565b601654604051631c6331c160e31b81523360048201526001600160a01b039091169063e3198e0890602401602060405180830381865afa1580156114d3573d6000803e3d6000fd5b505050506040513d601f19601f820116820180604052508101906114f791906131db565b6115135760405162461bcd60e51b815260040161068f90613400565b6001600160a01b0382166000818152601d6020908152604091829020805460ff191660ff88169081179091558251908152908101929092527ffb5973cb72c6bf58be94ff6ad4a5497b4361c5a70e78c75e83627cf0e1396df691015b60405180910390a1505050565b601e6020908152600092835260408084209091529082529020805461097890613213565b336000908152601d602052604090205460ff166115ff5760405162461bcd60e51b815260206004820152601b60248201527f4e6f2070656e64696e6720696e7669746520746f207265667573650000000000604482015260640161068f565b336000908152601d60205260409020805460ff19169055565b60ff82166000908152601a602052604090206001015482906001600160a01b031633146116575760405162461bcd60e51b815260040161068f90613590565b336000908152601b602052604090205460ff8481169116146116bb5760405162461bcd60e51b815260206004820152601960248201527f4e6f742061206d656d626572206f66207468697320636c616e00000000000000604482015260640161068f565b6021546040516331a9108f60e11b81526004810184905233916001600160a01b031690636352211e90602401602060405180830381865afa158015611704573d6000803e3d6000fd5b505050506040513d601f19601f8201168201806040525081019061172891906131be565b6001600160a01b0316146117775760405162461bcd60e51b8152602060048201526016602482015275165bdd48191bdb89dd081bdddb881d1a1a5cc813919560521b604482015260640161068f565b6021546040516302b5313d60e21b8152600481018490526000916001600160a01b031690630ad4c4f490602401600060405180830381865afa1580156117c1573d6000803e3d6000fd5b505050506040513d6000823e601f3d908101601f191682016040526117e99190810190613682565b509950505050505050505050806001146118615760405162461bcd60e51b815260206004820152603360248201527f4f6e6c79204e4654732066726f6d20636f6c6c656374696f6e20494420312063604482015272616e206265207573656420617320666c61677360681b606482015260840161068f565b601654604051631c6331c160e31b81523360048201526001600160a01b039091169063e3198e0890602401602060405180830381865afa1580156118a9573d6000803e3d6000fd5b505050506040513d601f19601f820116820180604052508101906118cd91906131db565b6118e95760405162461bcd60e51b815260040161068f90613400565b6015546040516323b872dd60e01b81523360048201523060248201526402540be40060448201526001600160a01b03909116906323b872dd906064016020604051808303816000875af1158015611944573d6000803e3d6000fd5b505050506040513d601f19601f8201168201806040525081019061196891906131db565b6119aa5760405162461bcd60e51b81526020600482015260136024820152721313d4081d1c985b9cd9995c8819985a5b1959606a1b604482015260640161068f565b505060ff909116600090815260226020526040902055565b6060600060015b60195460ff90811690821611611a1d5760ff8082166000908152601a6020526040902060010154600160a81b90041615611a0b5781611a0781613577565b9250505b80611a158161344d565b9150506119c9565b506000816001600160401b03811115611a3857611a386131fd565b604051908082528060200260200182016040528015611a8b57816020015b60408051608081018252606080825260006020808401829052938301819052908201528252600019909201910181611a565790505b509050600060015b60195460ff9081169082161161115b5760ff8082166000908152601a6020526040902060010154600160a81b90041615611bd95760ff81166000908152601a602052604090819020815160808101909252805482908290611af390613213565b80601f0160208091040260200160405190810160405280929190818152602001828054611b1f90613213565b8015611b6c5780601f10611b4157610100808354040283529160200191611b6c565b820191906000526020600020905b815481529060010190602001808311611b4f57829003601f168201915b5050509183525050600191909101546001600160a01b038116602083015260ff600160a01b820481166040840152600160a81b9091041615156060909101528351849084908110611bbf57611bbf613561565b60200260200101819052508180611bd590613577565b9250505b80611be38161344d565b915050611a93565b60ff8082166000908152601a60205260408120600101549091600160a81b90910416611c295760405162461bcd60e51b815260040161068f906135d8565b5060ff9081166000908152601a6020526040902060010154600160a01b90041690565b336000908152601b6020526040902054610100900460ff16611ca85760405162461bcd60e51b81526020600482015260156024820152742cb7ba9030b932903737ba1034b710309031b630b760591b604482015260640161068f565b336000908152601b602090815260408083205460ff908116808552601a9093529220600101549091600160a81b90910416611cf55760405162461bcd60e51b815260040161068f906135d8565b60ff81166000908152601a6020526040902060010154336001600160a01b0390911603611d8a5760405162461bcd60e51b815260206004820152603b60248201527f436c616e206c65616465722063616e6e6f74206c656176652074686520636c6160448201527f6e2e205573652064697362616e64436c616e20696e73746561642e0000000000606482015260840161068f565b336000908152601b60209081526040808320805461ff001916905560ff8481168452601a9092529091206001018054600160a01b9004909116906014611dcf836137ce565b91906101000a81548160ff021916908360ff1602179055505060005b60ff82166000908152601c6020526040902054811015611f365760ff82166000908152601c60205260409020805433919083908110611e2c57611e2c613561565b6000918252602090912001546001600160a01b031603611f245760ff82166000908152601c602052604090208054611e66906001906137eb565b81548110611e7657611e76613561565b600091825260208083209091015460ff85168352601c909152604090912080546001600160a01b039092169183908110611eb257611eb2613561565b600091825260208083209190910180546001600160a01b0319166001600160a01b03949094169390931790925560ff84168152601c90915260409020805480611efd57611efd6137fe565b600082815260209020810160001990810180546001600160a01b0319169055019055611f36565b80611f2e81613577565b915050611deb565b50600080611f4333612a33565b60ff8281166000908152602080805260408083208585168452825291829020805460ff191690558151928816835233908301529294509092507f45c35f53284761dc1375da434dfc7ec6a908fd346cb7ef4b10b8a75d6cb83752910161156f565b611fad33612984565b611fc95760405162461bcd60e51b815260040161068f906133b4565b336000908152601d602052604090205460ff16806120295760405162461bcd60e51b815260206004820152601760248201527f4e6f2070656e64696e6720696e7669746520666f756e64000000000000000000604482015260640161068f565b336000908152601b6020526040902054610100900460ff16156120825760405162461bcd60e51b815260206004820152601160248201527020b63932b0b23c9034b710309031b630b760791b604482015260640161068f565b60ff8181166000908152601a6020526040902060010154601e600160a01b909104909116106120c55750336000908152601d60205260409020805460ff19169055565b60408051808201825260ff80841680835260016020808501828152336000818152601b845288812097518854935115156101000261ffff199094169088161792909217909655838152601c8252868120805480850182559082528282200180546001600160a01b031916909617909555918452601a909152929091209091018054600160a01b900490911690601461215c8361344d565b91906101000a81548160ff021916908360ff1602179055505060008061218133612a33565b60ff82811660009081526020808052604080832085851684528252808320805460ff19908116958b1695861790915533808552601d845293829020805490911690558051938452908301919091529294509092507fc5e51b833a5e5ecfbbcb0d5586d2b0ab450b38d9b32d440cb37f37cc30de6874910161156f565b6000826014811061220d57600080fd5b01816014811061221c57600080fd5b602081049091015460ff601f9092166101000a9004169150829050565b60ff81166000908152601a602052604090206001015481906001600160a01b031633146122785760405162461bcd60e51b815260040161068f90613590565b60ff8083166000908152601a6020526040902060010154600160a81b9004166122b35760405162461bcd60e51b815260040161068f906135d8565b601654604051631c6331c160e31b81523360048201526001600160a01b039091169063e3198e0890602401602060405180830381865afa1580156122fb573d6000803e3d6000fd5b505050506040513d601f19601f8201168201806040525081019061231f91906131db565b61233b5760405162461bcd60e51b815260040161068f90613400565b60005b60ff83166000908152601c60205260409020548110156123f25760ff83166000908152601c6020526040812080548390811061237c5761237c613561565b60009182526020808320909101546001600160a01b0316808352601b90915260408220805461ff00191690559150806123b483612a33565b60ff9182166000908152602080805260408083209390941682529190915220805460ff19169055508291506123ea905081613577565b91505061233e565b5060ff82166000908152601860205260409020548015612434576000818152601760209081526040808320805460ff1916905560ff8616835260189091528120555b60ff83166000908152601c6020526040812061244f91612d04565b60ff83166000908152601a602052604081209061246c8282612d25565b5060010180546001600160b01b03191690556040805160ff851681523360208201527ff010a46a390deaaab5cc4bd6bd1242ccc401c860a7b758c8a71c6ea769287d34910161156f565b60ff82166000908152601a602052604090206001015482906001600160a01b031633146124f55760405162461bcd60e51b815260040161068f90613590565b6001600160a01b0382166000908152601b602052604090205460ff8481169116146125625760405162461bcd60e51b815260206004820152601a60248201527f4d656d626572206973206e6f7420696e207468697320636c616e000000000000604482015260640161068f565b601654604051631c6331c160e31b81523360048201526001600160a01b039091169063e3198e0890602401602060405180830381865afa1580156125aa573d6000803e3d6000fd5b505050506040513d601f19601f820116820180604052508101906125ce91906131db565b6125ea5760405162461bcd60e51b815260040161068f90613400565b6001600160a01b0382166000908152601b60209081526040808320805461ff001916905560ff8681168452601a9092529091206001018054600160a01b9004909116906014612638836137ce565b91906101000a81548160ff021916908360ff1602179055505060005b60ff84166000908152601c60205260409020548110156127a85760ff84166000908152601c6020526040902080546001600160a01b03851691908390811061269e5761269e613561565b6000918252602090912001546001600160a01b0316036127965760ff84166000908152601c6020526040902080546126d8906001906137eb565b815481106126e8576126e8613561565b600091825260208083209091015460ff87168352601c909152604090912080546001600160a01b03909216918390811061272457612724613561565b600091825260208083209190910180546001600160a01b0319166001600160a01b03949094169390931790925560ff86168152601c9091526040902080548061276f5761276f6137fe565b600082815260209020810160001990810180546001600160a01b03191690550190556127a8565b806127a081613577565b915050612654565b506000806127b584612a33565b60ff8281166000908152602080805260408083208585168452825291829020805460ff191690558151928a1683526001600160a01b038916908301529294509092507f45c35f53284761dc1375da434dfc7ec6a908fd346cb7ef4b10b8a75d6cb837529101610eae565b601a6020526000908152604090208054819061283a90613213565b80601f016020809104026020016040519081016040528092919081815260200182805461286690613213565b80156128b35780601f10612888576101008083540402835291602001916128b3565b820191906000526020600020905b81548152906001019060200180831161289657829003601f168201915b505050600190930154919250506001600160a01b0381169060ff600160a01b8204811691600160a81b90041684565b6001600160a01b0381166000908152601f6020526040902080546060919061290990613213565b80601f016020809104026020016040519081016040528092919081815260200182805461293590613213565b80156106435780601f1061295757610100808354040283529160200191610643565b820191906000526020600020905b8154815290600101906020018083116129655750939695505050505050565b601454604051632cfdf9b160e01b81526001600160a01b0383811660048301526000921690632cfdf9b190602401602060405180830381865afa1580156129cf573d6000803e3d6000fd5b505050506040513d601f19601f8201168201806040525081019061095991906131db565b6000612a06612a0183612aba565b612c6b565b604051602001612a169190613814565b604051602081830303815290604052805190602001209050919050565b6014546040516302400a3b60e41b81526001600160a01b0383811660048301526000928392839290911690632400a3b0906024016040805180830381865afa158015612a83573d6000803e3d6000fd5b505050506040513d601f19601f82011682018060405250810190612aa79190613830565b8051602090910151909590945092505050565b80516060908290600003612acf575090919050565b60005b815181108015612b065750818181518110612aef57612aef613561565b6020910101516001600160f81b031916600160fd1b145b15612b1d5780612b1581613577565b915050612ad2565b81518103612b3c57505060408051602081019091526000815292915050565b600060018351612b4c91906137eb565b90505b8181118015612b825750828181518110612b6b57612b6b613561565b6020910101516001600160f81b031916600160fd1b145b15612b995780612b91816138b8565b915050612b4f565b6000612ba583836137eb565b612bb09060016138cf565b6001600160401b03811115612bc757612bc76131fd565b6040519080825280601f01601f191660200182016040528015612bf1576020820181803683370190505b50905060005b8151811015612c615784612c0b82866138cf565b81518110612c1b57612c1b613561565b602001015160f81c60f81b828281518110612c3857612c38613561565b60200101906001600160f81b031916908160001a90535080612c5981613577565b915050612bf7565b5095945050505050565b60608160005b8151811015612cfd576000828281518110612c8e57612c8e613561565b016020015160f81c905060418110801590612cad5750605a8160ff1611155b15612cea57612cbd8160206138e2565b60f81b838381518110612cd257612cd2613561565b60200101906001600160f81b031916908160001a9053505b5080612cf581613577565b915050612c71565b5092915050565b5080546000825590600052602060002090810190612d229190612d5b565b50565b508054612d3190613213565b6000825580601f10612d41575050565b601f016020900490600052602060002090810190612d2291905b5b80821115612d705760008155600101612d5c565b5090565b60ff81168114612d2257600080fd5b600060208284031215612d9557600080fd5b8135612da081612d74565b9392505050565b6020808252825182820181905260009190848201906040850190845b81811015612de85783516001600160a01b031683529284019291840191600101612dc3565b50909695505050505050565b60008083601f840112612e0657600080fd5b5081356001600160401b03811115612e1d57600080fd5b602083019150836020828501011115612e3557600080fd5b9250929050565b60008060008060608587031215612e5257600080fd5b8435612e5d81612d74565b93506020850135612e6d81612d74565b925060408501356001600160401b03811115612e8857600080fd5b612e9487828801612df4565b95989497509550505050565b6001600160a01b0381168114612d2257600080fd5b600060208284031215612ec757600080fd5b8135612da081612ea0565b60008060408385031215612ee557600080fd5b8235612ef081612d74565b91506020830135612f0081612d74565b809150509250929050565b60005b83811015612f26578181015183820152602001612f0e565b50506000910152565b60008151808452612f47816020860160208601612f0b565b601f01601f19169290920160200192915050565b602081526000612da06020830184612f2f565b60008060208385031215612f8157600080fd5b82356001600160401b03811115612f9757600080fd5b612fa385828601612df4565b90969095509350505050565b60008060408385031215612fc257600080fd5b8235612fcd81612d74565b946020939093013593505050565b602080825282518282018190526000919060409081850190868401855b8281101561303a578151805160ff9081168652878201518116888701528682015116868601526060908101519085015260809093019290850190600101612ff8565b5091979650505050505050565b600081516080845261305c6080850182612f2f565b6020848101516001600160a01b03169086015260408085015160ff1690860152606093840151151593909401929092525090919050565b602081526000612da06020830184613047565b6000602082840312156130b857600080fd5b5035919050565b600080604083850312156130d257600080fd5b82356130dd81612d74565b91506020830135612f0081612ea0565b6000602080830181845280855180835260408601915060408160051b870101925083870160005b8281101561314257603f19888603018452613130858351613047565b94509285019290850190600101613114565b5092979650505050505050565b6000806040838503121561316257600080fd5b50508035926020909101359150565b6080815260006131846080830187612f2f565b6001600160a01b039590951660208301525060ff9290921660408301521515606090910152919050565b80516131b981612ea0565b919050565b6000602082840312156131d057600080fd5b8151612da081612ea0565b6000602082840312156131ed57600080fd5b81518015158114612da057600080fd5b634e487b7160e01b600052604160045260246000fd5b600181811c9082168061322757607f821691505b60208210810361324757634e487b7160e01b600052602260045260246000fd5b50919050565b601f82111561117e57600081815260208120601f850160051c810160208610156132745750805b601f850160051c820191505b8181101561329357828155600101613280565b505050505050565b6001600160401b038311156132b2576132b26131fd565b6132c6836132c08354613213565b8361324d565b6000601f8411600181146132fa57600085156132e25750838201355b600019600387901b1c1916600186901b178355613354565b600083815260209020601f19861690835b8281101561332b578685013582556020948501946001909201910161330b565b50868210156133485760001960f88860031b161c19848701351681555b505060018560011b0183555b5050505050565b81835281816020850137506000828201602090810191909152601f909101601f19169091010190565b60ff8516815260ff841660208201526060604082015260006133aa60608301848661335b565b9695505050505050565b6020808252602c908201527f596f75206d757374206f776e20612074696c6520746f20637265617465206f7260408201526b103537b4b710309031b630b760a11b606082015260800190565b60208082526019908201527f596f75206d7573742068617665206120436c616e2048616c6c00000000000000604082015260600190565b634e487b7160e01b600052601160045260246000fd5b600060ff821660ff810361346357613463613437565b60010192915050565b81516001600160401b03811115613485576134856131fd565b613499816134938454613213565b8461324d565b602080601f8311600181146134ce57600084156134b65750858301515b600019600386901b1c1916600185901b178555613293565b600085815260208120601f198616915b828110156134fd578886015182559484019460019091019084016134de565b508582101561351b5787850151600019600388901b60f8161c191681555b5050505050600190811b01905550565b60ff8516815260606020820152600061354860608301858761335b565b905060018060a01b038316604083015295945050505050565b634e487b7160e01b600052603260045260246000fd5b60006001820161358957613589613437565b5060010190565b60208082526028908201527f4f6e6c7920636c616e206c65616465722063616e20706572666f726d20746869604082015267399030b1ba34b7b760c11b606082015260800190565b60208082526013908201527210db185b88191bd95cc81b9bdd08195e1a5cdd606a1b604082015260600190565b600082601f83011261361657600080fd5b81516001600160401b0380821115613630576136306131fd565b604051601f8301601f19908116603f01168101908282118183101715613658576136586131fd565b8160405283815286602085880101111561367157600080fd5b6133aa846020830160208901612f0b565b60008060008060008060008060008060006101608c8e0312156136a457600080fd5b8b516001600160401b038111156136ba57600080fd5b6136c68e828f01613605565b9b505060208c01516001600160401b038111156136e257600080fd5b6136ee8e828f01613605565b9a505060408c01516001600160401b0381111561370a57600080fd5b6137168e828f01613605565b99505060608c01516001600160401b0381111561373257600080fd5b61373e8e828f01613605565b98505061374d60808d016131ae565b965060a08c0151955060c08c0151945060e08c01516001600160401b0381111561377657600080fd5b6137828e828f01613605565b9450506101008c01516001600160401b0381111561379f57600080fd5b6137ab8e828f01613605565b9350506101208c015191506101408c015190509295989b509295989b9093969950565b600060ff8216806137e1576137e1613437565b6000190192915050565b8181038181111561095957610959613437565b634e487b7160e01b600052603160045260246000fd5b60008251613826818460208701612f0b565b9190910192915050565b60006040828403121561384257600080fd5b82601f83011261385157600080fd5b604051604081018181106001600160401b0382111715613873576138736131fd565b806040525080604084018581111561388a57600080fd5b845b818110156138ad57805161389f81612d74565b83526020928301920161388c565b509195945050505050565b6000816138c7576138c7613437565b506000190190565b8082018082111561095957610959613437565b60ff81811683821601908111156109595761095961343756fea2646970667358221220c4ec8d234d99187d36b99542c5d0e5d44a107bf97ad481960efdd8db6e731d5b64736f6c63430008120033",
			"opcodes": "PUSH1 0x4 PUSH2 0x300 DUP2 DUP2 MSTORE PUSH2 0x320 DUP3 SWAP1 MSTORE PUSH2 0x340 DUP3 SWAP1 MSTORE PUSH2 0x360 DUP3 SWAP1 MSTORE PUSH2 0x380 DUP3 SWAP1 MSTORE PUSH2 0x3A0 DUP3 SWAP1 MSTORE PUSH1 0x3 PUSH2 0x3C0 DUP2 SWAP1 MSTORE PUSH2 0x3E0 DUP2 SWAP1 MSTORE PUSH2 0x400 DUP2 SWAP1 MSTORE PUSH2 0x420 DUP2 SWAP1 MSTORE PUSH2 0x440 DUP2 SWAP1 MSTORE PUSH2 0x460 DUP2 SWAP1 MSTORE PUSH1 0x2 PUSH2 0x480 DUP2 SWAP1 MSTORE PUSH2 0x4A0 DUP2 SWAP1 MSTORE PUSH1 0x1 PUSH2 0x4C0 DUP2 SWAP1 MSTORE PUSH2 0x4E0 DUP3 SWAP1 MSTORE PUSH2 0x500 DUP3 SWAP1 MSTORE PUSH2 0x520 DUP3 SWAP1 MSTORE PUSH2 0x540 DUP3 SWAP1 MSTORE PUSH2 0x560 DUP3 SWAP1 MSTORE PUSH1 0x80 SWAP4 DUP5 MSTORE PUSH2 0x580 DUP6 DUP2 MSTORE PUSH2 0x5A0 DUP7 SWAP1 MSTORE PUSH2 0x5C0 DUP7 SWAP1 MSTORE PUSH2 0x5E0 DUP7 SWAP1 MSTORE PUSH2 0x600 DUP7 SWAP1 MSTORE PUSH2 0x620 DUP7 SWAP1 MSTORE PUSH2 0x640 DUP7 SWAP1 MSTORE PUSH2 0x660 DUP5 SWAP1 MSTORE PUSH2 0x680 DUP5 SWAP1 MSTORE PUSH2 0x6A0 DUP5 SWAP1 MSTORE PUSH2 0x6C0 DUP5 SWAP1 MSTORE PUSH2 0x6E0 DUP5 SWAP1 MSTORE PUSH2 0x700 DUP4 SWAP1 MSTORE PUSH2 0x720 DUP3 SWAP1 MSTORE PUSH2 0x740 DUP3 SWAP1 MSTORE PUSH2 0x760 DUP4 SWAP1 MSTORE PUSH2 0x780 DUP4 SWAP1 MSTORE PUSH2 0x7A0 DUP4 SWAP1 MSTORE PUSH2 0x7C0 DUP4 SWAP1 MSTORE PUSH2 0x7E0 DUP4 SWAP1 MSTORE PUSH1 0xA0 MSTORE PUSH2 0x800 DUP6 DUP2 MSTORE PUSH2 0x820 DUP7 SWAP1 MSTORE PUSH2 0x840 DUP7 SWAP1 MSTORE PUSH2 0x860 DUP7 SWAP1 MSTORE PUSH2 0x880 DUP7 SWAP1 MSTORE PUSH2 0x8A0 DUP7 SWAP1 MSTORE PUSH2 0x8C0 DUP7 SWAP1 MSTORE PUSH2 0x8E0 DUP7 SWAP1 MSTORE PUSH2 0x900 DUP5 SWAP1 MSTORE PUSH2 0x920 DUP5 SWAP1 MSTORE PUSH2 0x940 DUP5 SWAP1 MSTORE PUSH2 0x960 DUP5 SWAP1 MSTORE PUSH2 0x980 DUP4 SWAP1 MSTORE PUSH2 0x9A0 DUP4 SWAP1 MSTORE PUSH2 0x9C0 DUP3 SWAP1 MSTORE PUSH2 0x9E0 DUP3 SWAP1 MSTORE PUSH2 0xA00 DUP4 SWAP1 MSTORE PUSH2 0xA20 DUP4 SWAP1 MSTORE PUSH2 0xA40 DUP4 SWAP1 MSTORE PUSH2 0xA60 DUP4 SWAP1 MSTORE PUSH1 0xC0 MSTORE PUSH2 0xA80 DUP6 DUP2 MSTORE PUSH2 0xAA0 DUP7 SWAP1 MSTORE PUSH2 0xAC0 DUP7 SWAP1 MSTORE PUSH2 0xAE0 DUP7 SWAP1 MSTORE PUSH2 0xB00 DUP7 SWAP1 MSTORE PUSH2 0xB20 DUP7 SWAP1 MSTORE PUSH2 0xB40 DUP7 SWAP1 MSTORE PUSH2 0xB60 SWAP6 SWAP1 SWAP6 MSTORE PUSH2 0xB80 DUP4 SWAP1 MSTORE PUSH2 0xBA0 DUP4 SWAP1 MSTORE PUSH2 0xBC0 DUP4 SWAP1 MSTORE PUSH2 0xBE0 DUP4 SWAP1 MSTORE PUSH2 0xC00 DUP4 SWAP1 MSTORE PUSH2 0xC20 DUP2 SWAP1 MSTORE PUSH2 0xC40 DUP2 SWAP1 MSTORE PUSH2 0xC60 DUP2 SWAP1 MSTORE PUSH2 0xC80 DUP3 SWAP1 MSTORE PUSH2 0xCA0 DUP3 SWAP1 MSTORE PUSH2 0xCC0 DUP3 SWAP1 MSTORE PUSH2 0xCE0 DUP3 SWAP1 MSTORE PUSH1 0xE0 SWAP5 SWAP1 SWAP5 MSTORE PUSH2 0xD00 DUP3 DUP2 MSTORE PUSH2 0xD20 DUP4 SWAP1 MSTORE PUSH2 0xD40 DUP4 SWAP1 MSTORE PUSH2 0xD60 DUP4 SWAP1 MSTORE PUSH2 0xD80 DUP4 SWAP1 MSTORE PUSH2 0xDA0 DUP4 SWAP1 MSTORE PUSH2 0xDC0 DUP4 SWAP1 MSTORE PUSH2 0xDE0 DUP4 SWAP1 MSTORE PUSH2 0xE00 DUP4 SWAP1 MSTORE PUSH2 0xE20 DUP4 SWAP1 MSTORE PUSH2 0xE40 DUP4 SWAP1 MSTORE PUSH2 0xE60 DUP4 SWAP1 MSTORE PUSH2 0xE80 DUP6 SWAP1 MSTORE PUSH2 0xEA0 DUP6 SWAP1 MSTORE PUSH2 0xEC0 DUP6 SWAP1 MSTORE PUSH2 0xEE0 DUP6 SWAP1 MSTORE PUSH2 0xF00 DUP3 SWAP1 MSTORE PUSH2 0xF20 DUP3 SWAP1 MSTORE PUSH2 0xF40 DUP3 SWAP1 MSTORE PUSH2 0xF60 DUP3 SWAP1 MSTORE PUSH2 0x100 MSTORE PUSH2 0xF80 DUP3 DUP2 MSTORE PUSH2 0xFA0 DUP4 SWAP1 MSTORE PUSH2 0xFC0 DUP4 SWAP1 MSTORE PUSH2 0xFE0 DUP4 SWAP1 MSTORE PUSH2 0x1000 DUP4 SWAP1 MSTORE PUSH2 0x1020 DUP4 SWAP1 MSTORE PUSH2 0x1040 DUP4 SWAP1 MSTORE PUSH2 0x1060 DUP4 SWAP1 MSTORE PUSH2 0x1080 DUP4 SWAP1 MSTORE PUSH2 0x10A0 DUP4 SWAP1 MSTORE PUSH2 0x10C0 DUP4 SWAP1 MSTORE PUSH2 0x10E0 DUP4 SWAP1 MSTORE PUSH2 0x1100 DUP6 SWAP1 MSTORE PUSH2 0x1120 DUP6 SWAP1 MSTORE PUSH2 0x1140 DUP6 SWAP1 MSTORE PUSH2 0x1160 DUP6 SWAP1 MSTORE PUSH2 0x1180 DUP3 SWAP1 MSTORE PUSH2 0x11A0 DUP3 SWAP1 MSTORE PUSH2 0x11C0 DUP3 SWAP1 MSTORE PUSH2 0x11E0 DUP3 SWAP1 MSTORE PUSH2 0x120 MSTORE PUSH2 0x1200 DUP3 DUP2 MSTORE PUSH2 0x1220 DUP4 SWAP1 MSTORE PUSH2 0x1240 DUP4 SWAP1 MSTORE PUSH2 0x1260 DUP4 SWAP1 MSTORE PUSH2 0x1280 DUP4 SWAP1 MSTORE PUSH2 0x12A0 DUP4 SWAP1 MSTORE PUSH2 0x12C0 DUP4 SWAP1 MSTORE PUSH2 0x12E0 DUP4 SWAP1 MSTORE PUSH2 0x1300 DUP4 SWAP1 MSTORE PUSH2 0x1320 DUP4 SWAP1 MSTORE PUSH2 0x1340 DUP4 SWAP1 MSTORE PUSH2 0x1360 DUP4 SWAP1 MSTORE PUSH2 0x1380 DUP6 SWAP1 MSTORE PUSH2 0x13A0 DUP6 SWAP1 MSTORE PUSH2 0x13C0 DUP6 SWAP1 MSTORE PUSH2 0x13E0 DUP6 SWAP1 MSTORE PUSH2 0x1400 DUP6 SWAP1 MSTORE PUSH2 0x1420 DUP6 SWAP1 MSTORE PUSH2 0x1440 DUP6 SWAP1 MSTORE PUSH2 0x1460 DUP6 SWAP1 MSTORE PUSH2 0x140 MSTORE PUSH2 0x1480 DUP3 DUP2 MSTORE PUSH2 0x14A0 DUP4 SWAP1 MSTORE PUSH2 0x14C0 DUP4 SWAP1 MSTORE PUSH2 0x14E0 DUP6 SWAP1 MSTORE PUSH2 0x1500 DUP4 SWAP1 MSTORE PUSH2 0x1520 DUP4 SWAP1 MSTORE PUSH2 0x1540 DUP4 SWAP1 MSTORE PUSH2 0x1560 DUP4 SWAP1 MSTORE PUSH2 0x1580 DUP4 SWAP1 MSTORE PUSH2 0x15A0 DUP4 SWAP1 MSTORE PUSH2 0x15C0 DUP4 SWAP1 MSTORE PUSH2 0x15E0 DUP6 SWAP1 MSTORE PUSH2 0x1600 DUP3 SWAP1 MSTORE PUSH2 0x1620 DUP3 SWAP1 MSTORE PUSH2 0x1640 DUP3 SWAP1 MSTORE PUSH2 0x1660 DUP3 SWAP1 MSTORE PUSH2 0x1680 DUP6 SWAP1 MSTORE PUSH2 0x16A0 DUP6 SWAP1 MSTORE PUSH2 0x16C0 DUP6 SWAP1 MSTORE PUSH2 0x16E0 DUP6 SWAP1 MSTORE PUSH2 0x160 MSTORE PUSH2 0x1700 DUP3 DUP2 MSTORE PUSH2 0x1720 DUP4 SWAP1 MSTORE PUSH2 0x1740 DUP4 SWAP1 MSTORE PUSH2 0x1760 DUP6 SWAP1 MSTORE PUSH2 0x1780 DUP6 SWAP1 MSTORE PUSH2 0x17A0 DUP3 SWAP1 MSTORE PUSH2 0x17C0 DUP3 SWAP1 MSTORE PUSH2 0x17E0 DUP3 SWAP1 MSTORE PUSH2 0x1800 DUP3 SWAP1 MSTORE PUSH2 0x1820 DUP3 SWAP1 MSTORE PUSH2 0x1840 DUP3 SWAP1 MSTORE PUSH2 0x1860 DUP6 SWAP1 MSTORE PUSH2 0x1880 DUP3 SWAP1 MSTORE PUSH2 0x18A0 DUP3 SWAP1 MSTORE PUSH2 0x18C0 DUP3 SWAP1 MSTORE PUSH2 0x18E0 DUP3 SWAP1 MSTORE PUSH2 0x1900 DUP3 SWAP1 MSTORE PUSH2 0x1920 DUP3 SWAP1 MSTORE PUSH2 0x1940 DUP3 SWAP1 MSTORE PUSH2 0x1960 DUP6 SWAP1 MSTORE PUSH2 0x180 MSTORE PUSH2 0x1980 DUP5 DUP2 MSTORE PUSH2 0x19A0 DUP3 SWAP1 MSTORE PUSH2 0x19C0 DUP3 SWAP1 MSTORE PUSH2 0x19E0 DUP6 SWAP1 MSTORE PUSH2 0x1A00 DUP3 SWAP1 MSTORE PUSH2 0x1A20 DUP3 SWAP1 MSTORE PUSH2 0x1A40 DUP3 SWAP1 MSTORE PUSH2 0x1A60 DUP3 SWAP1 MSTORE PUSH2 0x1A80 DUP3 SWAP1 MSTORE PUSH2 0x1AA0 DUP3 SWAP1 MSTORE PUSH2 0x1AC0 DUP3 SWAP1 MSTORE PUSH2 0x1AE0 DUP6 SWAP1 MSTORE PUSH2 0x1B00 DUP3 SWAP1 MSTORE PUSH2 0x1B20 DUP3 SWAP1 MSTORE PUSH2 0x1B40 DUP3 SWAP1 MSTORE PUSH2 0x1B60 DUP3 SWAP1 MSTORE PUSH2 0x1B80 DUP3 SWAP1 MSTORE PUSH2 0x1BA0 DUP3 SWAP1 MSTORE PUSH2 0x1BC0 DUP3 SWAP1 MSTORE PUSH2 0x1BE0 DUP6 SWAP1 MSTORE PUSH2 0x1A0 MSTORE PUSH2 0x1C00 DUP2 DUP2 MSTORE PUSH2 0x1C20 DUP3 SWAP1 MSTORE PUSH2 0x1C40 DUP6 SWAP1 MSTORE PUSH2 0x1C60 DUP6 SWAP1 MSTORE PUSH2 0x1C80 DUP3 SWAP1 MSTORE PUSH2 0x1CA0 DUP3 SWAP1 MSTORE PUSH2 0x1CC0 DUP3 SWAP1 MSTORE PUSH2 0x1CE0 DUP3 SWAP1 MSTORE PUSH2 0x1D00 DUP3 SWAP1 MSTORE PUSH2 0x1D20 DUP3 SWAP1 MSTORE PUSH2 0x1D40 DUP6 SWAP1 MSTORE PUSH2 0x1D60 DUP6 SWAP1 MSTORE PUSH2 0x1D80 DUP3 SWAP1 MSTORE PUSH2 0x1DA0 DUP3 SWAP1 MSTORE PUSH2 0x1DC0 DUP3 SWAP1 MSTORE PUSH2 0x1DE0 DUP3 SWAP1 MSTORE PUSH2 0x1E00 DUP3 SWAP1 MSTORE PUSH2 0x1E20 DUP3 SWAP1 MSTORE PUSH2 0x1E40 DUP6 SWAP1 MSTORE PUSH2 0x1E60 DUP6 SWAP1 MSTORE PUSH2 0x1C0 MSTORE PUSH2 0x1E80 DUP3 DUP2 MSTORE PUSH2 0x1EA0 DUP4 SWAP1 MSTORE PUSH2 0x1EC0 DUP4 SWAP1 MSTORE PUSH2 0x1EE0 DUP3 SWAP1 MSTORE PUSH2 0x1F00 DUP6 SWAP1 MSTORE PUSH2 0x1F20 DUP3 SWAP1 MSTORE PUSH2 0x1F40 DUP3 SWAP1 MSTORE PUSH2 0x1F60 DUP3 SWAP1 MSTORE PUSH2 0x1F80 DUP3 SWAP1 MSTORE PUSH2 0x1FA0 DUP3 SWAP1 MSTORE PUSH2 0x1FC0 DUP6 SWAP1 MSTORE PUSH2 0x1FE0 DUP3 SWAP1 MSTORE PUSH2 0x2000 DUP3 SWAP1 MSTORE PUSH2 0x2020 DUP3 SWAP1 MSTORE PUSH2 0x2040 DUP3 SWAP1 MSTORE PUSH2 0x2060 DUP6 SWAP1 MSTORE PUSH2 0x2080 DUP6 SWAP1 MSTORE PUSH2 0x20A0 DUP6 SWAP1 MSTORE PUSH2 0x20C0 DUP6 SWAP1 MSTORE PUSH2 0x20E0 DUP6 SWAP1 MSTORE PUSH2 0x1E0 MSTORE PUSH2 0x2100 DUP3 DUP2 MSTORE PUSH2 0x2120 DUP4 SWAP1 MSTORE PUSH2 0x2140 DUP4 SWAP1 MSTORE PUSH2 0x2160 DUP4 SWAP1 MSTORE PUSH2 0x2180 DUP6 SWAP1 MSTORE PUSH2 0x21A0 DUP6 SWAP1 MSTORE PUSH2 0x21C0 DUP3 SWAP1 MSTORE PUSH2 0x21E0 DUP3 SWAP1 MSTORE PUSH2 0x2200 DUP3 SWAP1 MSTORE PUSH2 0x2220 DUP3 SWAP1 MSTORE PUSH2 0x2240 DUP6 SWAP1 MSTORE PUSH2 0x2260 DUP6 SWAP1 MSTORE PUSH2 0x2280 DUP3 SWAP1 MSTORE PUSH2 0x22A0 DUP3 SWAP1 MSTORE PUSH2 0x22C0 DUP3 SWAP1 MSTORE PUSH2 0x22E0 DUP6 SWAP1 MSTORE PUSH2 0x2300 DUP6 SWAP1 MSTORE PUSH2 0x2320 DUP6 SWAP1 MSTORE PUSH2 0x2340 DUP6 SWAP1 MSTORE PUSH2 0x2360 DUP6 SWAP1 MSTORE PUSH2 0x200 MSTORE PUSH2 0x2380 DUP3 DUP2 MSTORE PUSH2 0x23A0 DUP4 SWAP1 MSTORE PUSH2 0x23C0 DUP4 SWAP1 MSTORE PUSH2 0x23E0 DUP4 SWAP1 MSTORE PUSH2 0x2400 DUP4 SWAP1 MSTORE PUSH2 0x2420 DUP6 SWAP1 MSTORE PUSH2 0x2440 DUP3 SWAP1 MSTORE PUSH2 0x2460 DUP3 SWAP1 MSTORE PUSH2 0x2480 DUP3 SWAP1 MSTORE PUSH2 0x24A0 DUP3 SWAP1 MSTORE PUSH2 0x24C0 DUP6 SWAP1 MSTORE PUSH2 0x24E0 DUP6 SWAP1 MSTORE PUSH2 0x2500 DUP6 SWAP1 MSTORE PUSH2 0x2520 DUP3 SWAP1 MSTORE PUSH2 0x2540 DUP3 SWAP1 MSTORE PUSH2 0x2560 DUP3 SWAP1 MSTORE PUSH2 0x2580 DUP3 SWAP1 MSTORE PUSH2 0x25A0 DUP6 SWAP1 MSTORE PUSH2 0x25C0 DUP6 SWAP1 MSTORE PUSH2 0x25E0 DUP6 SWAP1 MSTORE PUSH2 0x220 MSTORE PUSH2 0x2600 DUP3 DUP2 MSTORE PUSH2 0x2620 DUP4 SWAP1 MSTORE PUSH2 0x2640 DUP4 SWAP1 MSTORE PUSH2 0x2660 DUP4 SWAP1 MSTORE PUSH2 0x2680 DUP4 SWAP1 MSTORE PUSH2 0x26A0 DUP3 SWAP1 MSTORE PUSH2 0x26C0 DUP3 SWAP1 MSTORE PUSH2 0x26E0 DUP3 SWAP1 MSTORE PUSH2 0x2700 DUP4 SWAP1 MSTORE PUSH2 0x2720 DUP4 SWAP1 MSTORE PUSH2 0x2740 DUP3 SWAP1 MSTORE PUSH2 0x2760 DUP3 SWAP1 MSTORE PUSH2 0x2780 DUP6 SWAP1 MSTORE PUSH2 0x27A0 DUP3 SWAP1 MSTORE PUSH2 0x27C0 DUP3 SWAP1 MSTORE PUSH2 0x27E0 DUP3 SWAP1 MSTORE PUSH2 0x2800 DUP3 SWAP1 MSTORE PUSH2 0x2820 DUP6 SWAP1 MSTORE PUSH2 0x2840 DUP6 SWAP1 MSTORE PUSH2 0x2860 DUP6 SWAP1 MSTORE PUSH2 0x240 MSTORE PUSH2 0x2880 DUP2 DUP2 MSTORE PUSH2 0x28A0 DUP3 SWAP1 MSTORE PUSH2 0x28C0 DUP3 SWAP1 MSTORE PUSH2 0x28E0 DUP6 SWAP1 MSTORE PUSH2 0x2900 DUP6 SWAP1 MSTORE PUSH2 0x2920 DUP6 SWAP1 MSTORE PUSH2 0x2940 DUP6 SWAP1 MSTORE PUSH2 0x2960 DUP6 SWAP1 MSTORE PUSH2 0x2980 DUP4 SWAP1 MSTORE PUSH2 0x29A0 DUP4 SWAP1 MSTORE PUSH2 0x29C0 DUP4 SWAP1 MSTORE PUSH2 0x29E0 DUP4 SWAP1 MSTORE PUSH2 0x2A00 DUP6 SWAP1 MSTORE PUSH2 0x2A20 DUP6 SWAP1 MSTORE PUSH2 0x2A40 DUP3 SWAP1 MSTORE PUSH2 0x2A60 DUP3 SWAP1 MSTORE PUSH2 0x2A80 DUP3 SWAP1 MSTORE PUSH2 0x2AA0 DUP6 SWAP1 MSTORE PUSH2 0x2AC0 DUP6 SWAP1 MSTORE PUSH2 0x2AE0 DUP6 SWAP1 MSTORE PUSH2 0x260 MSTORE PUSH2 0x2B00 DUP2 DUP2 MSTORE PUSH2 0x2B20 DUP3 SWAP1 MSTORE PUSH2 0x2B40 DUP3 SWAP1 MSTORE PUSH2 0x2B60 DUP3 SWAP1 MSTORE PUSH2 0x2B80 DUP3 SWAP1 MSTORE PUSH2 0x2BA0 DUP3 SWAP1 MSTORE PUSH2 0x2BC0 DUP6 SWAP1 MSTORE PUSH2 0x2BE0 DUP6 SWAP1 MSTORE PUSH2 0x2C00 DUP4 SWAP1 MSTORE PUSH2 0x2C20 DUP4 SWAP1 MSTORE PUSH2 0x2C40 DUP4 SWAP1 MSTORE PUSH2 0x2C60 DUP4 SWAP1 MSTORE PUSH2 0x2C80 DUP6 SWAP1 MSTORE PUSH2 0x2CA0 DUP6 SWAP1 MSTORE PUSH2 0x2CC0 DUP6 SWAP1 MSTORE PUSH2 0x2CE0 DUP6 SWAP1 MSTORE PUSH2 0x2D00 DUP4 SWAP1 MSTORE PUSH2 0x2D20 DUP4 SWAP1 MSTORE PUSH2 0x2D40 DUP3 SWAP1 MSTORE PUSH2 0x2D60 DUP3 SWAP1 MSTORE PUSH2 0x280 MSTORE PUSH2 0x2D80 DUP2 DUP2 MSTORE PUSH2 0x2DA0 DUP3 SWAP1 MSTORE PUSH2 0x2DC0 DUP3 SWAP1 MSTORE PUSH2 0x2DE0 DUP3 SWAP1 MSTORE PUSH2 0x2E00 DUP3 SWAP1 MSTORE PUSH2 0x2E20 DUP3 SWAP1 MSTORE PUSH2 0x2E40 DUP3 SWAP1 MSTORE PUSH2 0x2E60 DUP6 SWAP1 MSTORE PUSH2 0x2E80 DUP4 SWAP1 MSTORE PUSH2 0x2EA0 DUP4 SWAP1 MSTORE PUSH2 0x2EC0 DUP4 SWAP1 MSTORE PUSH2 0x2EE0 DUP4 SWAP1 MSTORE PUSH2 0x2F00 DUP6 SWAP1 MSTORE PUSH2 0x2F20 DUP6 SWAP1 MSTORE PUSH2 0x2F40 DUP6 SWAP1 MSTORE PUSH2 0x2F60 DUP6 SWAP1 MSTORE PUSH2 0x2F80 DUP4 SWAP1 MSTORE PUSH2 0x2FA0 DUP4 SWAP1 MSTORE PUSH2 0x2FC0 DUP3 SWAP1 MSTORE PUSH2 0x2FE0 DUP3 SWAP1 MSTORE PUSH2 0x2A0 MSTORE PUSH2 0x3000 DUP2 DUP2 MSTORE PUSH2 0x3020 DUP3 SWAP1 MSTORE PUSH2 0x3040 DUP3 SWAP1 MSTORE PUSH2 0x3060 DUP3 SWAP1 MSTORE PUSH2 0x3080 DUP3 SWAP1 MSTORE PUSH2 0x30A0 DUP3 SWAP1 MSTORE PUSH2 0x30C0 DUP3 SWAP1 MSTORE PUSH2 0x30E0 DUP6 SWAP1 MSTORE PUSH2 0x3100 DUP6 SWAP1 MSTORE PUSH2 0x3120 DUP3 SWAP1 MSTORE PUSH2 0x3140 DUP3 SWAP1 MSTORE PUSH2 0x3160 DUP6 SWAP1 MSTORE PUSH2 0x3180 DUP6 SWAP1 MSTORE PUSH2 0x31A0 DUP3 SWAP1 MSTORE PUSH2 0x31C0 DUP3 SWAP1 MSTORE PUSH2 0x31E0 DUP6 SWAP1 MSTORE PUSH2 0x3200 DUP4 SWAP1 MSTORE PUSH2 0x3220 DUP4 SWAP1 MSTORE PUSH2 0x3240 DUP3 SWAP1 MSTORE PUSH2 0x3260 DUP3 SWAP1 MSTORE PUSH2 0x2C0 MSTORE PUSH2 0x3500 PUSH1 0x40 MSTORE PUSH2 0x3280 DUP2 DUP2 MSTORE PUSH2 0x32A0 DUP3 SWAP1 MSTORE PUSH2 0x32C0 DUP3 SWAP1 MSTORE PUSH2 0x32E0 DUP3 SWAP1 MSTORE PUSH2 0x3300 DUP3 SWAP1 MSTORE PUSH2 0x3320 DUP3 SWAP1 MSTORE PUSH2 0x3340 DUP3 SWAP1 MSTORE PUSH2 0x3360 DUP6 SWAP1 MSTORE PUSH2 0x3380 DUP6 SWAP1 MSTORE PUSH2 0x33A0 DUP6 SWAP1 MSTORE PUSH2 0x33C0 DUP6 SWAP1 MSTORE PUSH2 0x33E0 DUP6 SWAP1 MSTORE PUSH2 0x3400 DUP6 SWAP1 MSTORE PUSH2 0x3420 DUP6 SWAP1 MSTORE PUSH2 0x3440 SWAP5 SWAP1 SWAP5 MSTORE PUSH2 0x3460 DUP3 SWAP1 MSTORE PUSH2 0x3480 DUP3 SWAP1 MSTORE PUSH2 0x34A0 SWAP2 SWAP1 SWAP2 MSTORE PUSH2 0x34C0 DUP2 SWAP1 MSTORE PUSH2 0x34E0 MSTORE PUSH2 0x2E0 SWAP2 SWAP1 SWAP2 MSTORE PUSH3 0x9D2 SWAP1 PUSH1 0x0 SWAP1 PUSH1 0x14 PUSH3 0xA57 JUMP JUMPDEST POP CALLVALUE DUP1 ISZERO PUSH3 0x9E0 JUMPI PUSH1 0x0 DUP1 REVERT JUMPDEST POP PUSH1 0x40 MLOAD PUSH3 0x4525 CODESIZE SUB DUP1 PUSH3 0x4525 DUP4 CODECOPY DUP2 ADD PUSH1 0x40 DUP2 SWAP1 MSTORE PUSH3 0xA03 SWAP2 PUSH3 0xB87 JUMP JUMPDEST PUSH1 0x14 DUP1 SLOAD PUSH1 0x1 PUSH1 0x1 PUSH1 0xA0 SHL SUB SWAP6 DUP7 AND PUSH1 0x1 PUSH1 0x1 PUSH1 0xA0 SHL SUB NOT SWAP2 DUP3 AND OR SWAP1 SWAP2 SSTORE PUSH1 0x15 DUP1 SLOAD SWAP5 DUP7 AND SWAP5 DUP3 AND SWAP5 SWAP1 SWAP5 OR SWAP1 SWAP4 SSTORE PUSH1 0x21 DUP1 SLOAD SWAP3 DUP6 AND SWAP3 DUP5 AND SWAP3 SWAP1 SWAP3 OR SWAP1 SWAP2 SSTORE PUSH1 0x16 DUP1 SLOAD SWAP2 SWAP1 SWAP4 AND SWAP2 AND OR SWAP1 SSTORE PUSH3 0xBE4 JUMP JUMPDEST DUP3 PUSH1 0x14 DUP2 ADD SWAP3 DUP3 ISZERO PUSH3 0xA96 JUMPI SWAP2 PUSH1 0x20 MUL DUP3 ADD JUMPDEST DUP3 DUP2 GT ISZERO PUSH3 0xA96 JUMPI DUP3 MLOAD PUSH3 0xA85 SWAP1 DUP4 SWAP1 PUSH1 0x14 PUSH3 0xAA8 JUMP JUMPDEST POP SWAP2 PUSH1 0x20 ADD SWAP2 SWAP1 PUSH1 0x1 ADD SWAP1 PUSH3 0xA6B JUMP JUMPDEST POP PUSH3 0xAA4 SWAP3 SWAP2 POP PUSH3 0xB3E JUMP JUMPDEST POP SWAP1 JUMP JUMPDEST PUSH1 0x1 DUP4 ADD SWAP2 DUP4 SWAP1 DUP3 ISZERO PUSH3 0xB30 JUMPI SWAP2 PUSH1 0x20 MUL DUP3 ADD PUSH1 0x0 JUMPDEST DUP4 DUP3 GT ISZERO PUSH3 0xAFF JUMPI DUP4 MLOAD DUP4 DUP3 PUSH2 0x100 EXP DUP2 SLOAD DUP2 PUSH1 0xFF MUL NOT AND SWAP1 DUP4 PUSH1 0xFF AND MUL OR SWAP1 SSTORE POP SWAP3 PUSH1 0x20 ADD SWAP3 PUSH1 0x1 ADD PUSH1 0x20 DUP2 PUSH1 0x0 ADD DIV SWAP3 DUP4 ADD SWAP3 PUSH1 0x1 SUB MUL PUSH3 0xABF JUMP JUMPDEST DUP1 ISZERO PUSH3 0xB2E JUMPI DUP3 DUP2 PUSH2 0x100 EXP DUP2 SLOAD SWAP1 PUSH1 0xFF MUL NOT AND SWAP1 SSTORE PUSH1 0x1 ADD PUSH1 0x20 DUP2 PUSH1 0x0 ADD DIV SWAP3 DUP4 ADD SWAP3 PUSH1 0x1 SUB MUL PUSH3 0xAFF JUMP JUMPDEST POP JUMPDEST POP PUSH3 0xAA4 SWAP3 SWAP2 POP PUSH3 0xB54 JUMP JUMPDEST DUP1 DUP3 GT ISZERO PUSH3 0xAA4 JUMPI PUSH1 0x0 DUP2 SSTORE PUSH1 0x1 ADD PUSH3 0xB3E JUMP JUMPDEST DUP1 DUP3 GT ISZERO PUSH3 0xAA4 JUMPI PUSH1 0x0 DUP2 SSTORE PUSH1 0x1 ADD PUSH3 0xB3E JUMP JUMPDEST DUP1 MLOAD PUSH1 0x1 PUSH1 0x1 PUSH1 0xA0 SHL SUB DUP2 AND DUP2 EQ PUSH3 0xB82 JUMPI PUSH1 0x0 DUP1 REVERT JUMPDEST SWAP2 SWAP1 POP JUMP JUMPDEST PUSH1 0x0 DUP1 PUSH1 0x0 DUP1 PUSH1 0x80 DUP6 DUP8 SUB SLT ISZERO PUSH3 0xB9E JUMPI PUSH1 0x0 DUP1 REVERT JUMPDEST PUSH3 0xBA9 DUP6 PUSH3 0xB6A JUMP JUMPDEST SWAP4 POP PUSH3 0xBB9 PUSH1 0x20 DUP7 ADD PUSH3 0xB6A JUMP JUMPDEST SWAP3 POP PUSH3 0xBC9 PUSH1 0x40 DUP7 ADD PUSH3 0xB6A JUMP JUMPDEST SWAP2 POP PUSH3 0xBD9 PUSH1 0x60 DUP7 ADD PUSH3 0xB6A JUMP JUMPDEST SWAP1 POP SWAP3 SWAP6 SWAP2 SWAP5 POP SWAP3 POP JUMP JUMPDEST PUSH2 0x3931 DUP1 PUSH3 0xBF4 PUSH1 0x0 CODECOPY PUSH1 0x0 RETURN INVALID PUSH1 0x80 PUSH1 0x40 MSTORE CALLVALUE DUP1 ISZERO PUSH2 0x10 JUMPI PUSH1 0x0 DUP1 REVERT JUMPDEST POP PUSH1 0x4 CALLDATASIZE LT PUSH2 0x232 JUMPI PUSH1 0x0 CALLDATALOAD PUSH1 0xE0 SHR DUP1 PUSH4 0x65191666 GT PUSH2 0x130 JUMPI DUP1 PUSH4 0xAAE1AA37 GT PUSH2 0xB8 JUMPI DUP1 PUSH4 0xC2024EDE GT PUSH2 0x7C JUMPI DUP1 PUSH4 0xC2024EDE EQ PUSH2 0x56E JUMPI DUP1 PUSH4 0xD4CEEEC0 EQ PUSH2 0x581 JUMPI DUP1 PUSH4 0xEA0E35B1 EQ PUSH2 0x5A4 JUMPI DUP1 PUSH4 0xEAA10576 EQ PUSH2 0x5AC JUMPI DUP1 PUSH4 0xF15AD264 EQ PUSH2 0x5CC JUMPI PUSH1 0x0 DUP1 REVERT JUMPDEST DUP1 PUSH4 0xAAE1AA37 EQ PUSH2 0x525 JUMPI DUP1 PUSH4 0xB0D77774 EQ PUSH2 0x52D JUMPI DUP1 PUSH4 0xBBB4D3E9 EQ PUSH2 0x540 JUMPI DUP1 PUSH4 0xBC9955A2 EQ PUSH2 0x548 JUMPI DUP1 PUSH4 0xBDE7EF82 EQ PUSH2 0x55B JUMPI PUSH1 0x0 DUP1 REVERT JUMPDEST DUP1 PUSH4 0x7B0C98EF GT PUSH2 0xFF JUMPI DUP1 PUSH4 0x7B0C98EF EQ PUSH2 0x4CF JUMPI DUP1 PUSH4 0x86722228 EQ PUSH2 0x4E2 JUMPI DUP1 PUSH4 0x9ADFF8D0 EQ PUSH2 0x4EA JUMPI DUP1 PUSH4 0x9B21D6EB EQ PUSH2 0x4FD JUMPI DUP1 PUSH4 0x9D995717 EQ PUSH2 0x512 JUMPI PUSH1 0x0 DUP1 REVERT JUMPDEST DUP1 PUSH4 0x65191666 EQ PUSH2 0x466 JUMPI DUP1 PUSH4 0x69274803 EQ PUSH2 0x480 JUMPI DUP1 PUSH4 0x731AE689 EQ PUSH2 0x493 JUMPI DUP1 PUSH4 0x7AB9E7FE EQ PUSH2 0x49F JUMPI PUSH1 0x0 DUP1 REVERT JUMPDEST DUP1 PUSH4 0x1DB8D500 GT PUSH2 0x1BE JUMPI DUP1 PUSH4 0x36780527 GT PUSH2 0x182 JUMPI DUP1 PUSH4 0x36780527 EQ PUSH2 0x3E1 JUMPI DUP1 PUSH4 0x3F9662BB EQ PUSH2 0x414 JUMPI DUP1 PUSH4 0x4F264B03 EQ PUSH2 0x427 JUMPI DUP1 PUSH4 0x58612A20 EQ PUSH2 0x43A JUMPI DUP1 PUSH4 0x62C5813D EQ PUSH2 0x466 JUMPI PUSH1 0x0 DUP1 REVERT JUMPDEST DUP1 PUSH4 0x1DB8D500 EQ PUSH2 0x373 JUMPI DUP1 PUSH4 0x2A2026A9 EQ PUSH2 0x386 JUMPI DUP1 PUSH4 0x2DEC2E63 EQ PUSH2 0x399 JUMPI DUP1 PUSH4 0x2F57741C EQ PUSH2 0x3AE JUMPI DUP1 PUSH4 0x2FAD0429 EQ PUSH2 0x3C1 JUMPI PUSH1 0x0 DUP1 REVERT JUMPDEST DUP1 PUSH4 0xD67F59E GT PUSH2 0x205 JUMPI DUP1 PUSH4 0xD67F59E EQ PUSH2 0x2DA JUMPI DUP1 PUSH4 0x13A5CEDE EQ PUSH2 0x305 JUMPI DUP1 PUSH4 0x14CEBC71 EQ PUSH2 0x318 JUMPI DUP1 PUSH4 0x196AB1AB EQ PUSH2 0x32B JUMPI DUP1 PUSH4 0x1D0373AD EQ PUSH2 0x33E JUMPI PUSH1 0x0 DUP1 REVERT JUMPDEST DUP1 PUSH4 0x636FCB2 EQ PUSH2 0x237 JUMPI DUP1 PUSH4 0x821DE3E EQ PUSH2 0x260 JUMPI DUP1 PUSH4 0x8AE4B0C EQ PUSH2 0x275 JUMPI DUP1 PUSH4 0x9E59CEC EQ PUSH2 0x2BA JUMPI JUMPDEST PUSH1 0x0 DUP1 REVERT JUMPDEST PUSH2 0x24A PUSH2 0x245 CALLDATASIZE PUSH1 0x4 PUSH2 0x2D83 JUMP JUMPDEST PUSH2 0x5DF JUMP JUMPDEST PUSH1 0x40 MLOAD PUSH2 0x257 SWAP2 SWAP1 PUSH2 0x2DA7 JUMP JUMPDEST PUSH1 0x40 MLOAD DUP1 SWAP2 SUB SWAP1 RETURN JUMPDEST PUSH2 0x273 PUSH2 0x26E CALLDATASIZE PUSH1 0x4 PUSH2 0x2E3C JUMP JUMPDEST PUSH2 0x64F JUMP JUMPDEST STOP JUMPDEST PUSH2 0x2A1 PUSH2 0x283 CALLDATASIZE PUSH1 0x4 PUSH2 0x2EB5 JUMP JUMPDEST PUSH1 0x1B PUSH1 0x20 MSTORE PUSH1 0x0 SWAP1 DUP2 MSTORE PUSH1 0x40 SWAP1 KECCAK256 SLOAD PUSH1 0xFF DUP1 DUP3 AND SWAP2 PUSH2 0x100 SWAP1 DIV AND DUP3 JUMP JUMPDEST PUSH1 0x40 DUP1 MLOAD PUSH1 0xFF SWAP1 SWAP4 AND DUP4 MSTORE SWAP1 ISZERO ISZERO PUSH1 0x20 DUP4 ADD MSTORE ADD PUSH2 0x257 JUMP JUMPDEST PUSH2 0x2CD PUSH2 0x2C8 CALLDATASIZE PUSH1 0x4 PUSH2 0x2ED2 JUMP JUMPDEST PUSH2 0x8AA JUMP JUMPDEST PUSH1 0x40 MLOAD PUSH2 0x257 SWAP2 SWAP1 PUSH2 0x2F5B JUMP JUMPDEST PUSH1 0x15 SLOAD PUSH2 0x2ED SWAP1 PUSH1 0x1 PUSH1 0x1 PUSH1 0xA0 SHL SUB AND DUP2 JUMP JUMPDEST PUSH1 0x40 MLOAD PUSH1 0x1 PUSH1 0x1 PUSH1 0xA0 SHL SUB SWAP1 SWAP2 AND DUP2 MSTORE PUSH1 0x20 ADD PUSH2 0x257 JUMP JUMPDEST PUSH2 0x2CD PUSH2 0x313 CALLDATASIZE PUSH1 0x4 PUSH2 0x2EB5 JUMP JUMPDEST PUSH2 0x95F JUMP JUMPDEST PUSH2 0x273 PUSH2 0x326 CALLDATASIZE PUSH1 0x4 PUSH2 0x2F6E JUMP JUMPDEST PUSH2 0x9F9 JUMP JUMPDEST PUSH1 0x21 SLOAD PUSH2 0x2ED SWAP1 PUSH1 0x1 PUSH1 0x1 PUSH1 0xA0 SHL SUB AND DUP2 JUMP JUMPDEST PUSH2 0x361 PUSH2 0x34C CALLDATASIZE PUSH1 0x4 PUSH2 0x2EB5 JUMP JUMPDEST PUSH1 0x1D PUSH1 0x20 MSTORE PUSH1 0x0 SWAP1 DUP2 MSTORE PUSH1 0x40 SWAP1 KECCAK256 SLOAD PUSH1 0xFF AND DUP2 JUMP JUMPDEST PUSH1 0x40 MLOAD PUSH1 0xFF SWAP1 SWAP2 AND DUP2 MSTORE PUSH1 0x20 ADD PUSH2 0x257 JUMP JUMPDEST PUSH2 0x2ED PUSH2 0x381 CALLDATASIZE PUSH1 0x4 PUSH2 0x2FAF JUMP JUMPDEST PUSH2 0xEBD JUMP JUMPDEST PUSH2 0x361 PUSH2 0x394 CALLDATASIZE PUSH1 0x4 PUSH2 0x2ED2 JUMP JUMPDEST PUSH2 0xEF5 JUMP JUMPDEST PUSH2 0x3A1 PUSH2 0xF98 JUMP JUMPDEST PUSH1 0x40 MLOAD PUSH2 0x257 SWAP2 SWAP1 PUSH2 0x2FDB JUMP JUMPDEST PUSH2 0x273 PUSH2 0x3BC CALLDATASIZE PUSH1 0x4 PUSH2 0x2F6E JUMP JUMPDEST PUSH2 0x1164 JUMP JUMPDEST PUSH2 0x3D4 PUSH2 0x3CF CALLDATASIZE PUSH1 0x4 PUSH2 0x2D83 JUMP JUMPDEST PUSH2 0x1183 JUMP JUMPDEST PUSH1 0x40 MLOAD PUSH2 0x257 SWAP2 SWAP1 PUSH2 0x3093 JUMP JUMPDEST PUSH2 0x404 PUSH2 0x3EF CALLDATASIZE PUSH1 0x4 PUSH2 0x30A6 JUMP JUMPDEST PUSH1 0x17 PUSH1 0x20 MSTORE PUSH1 0x0 SWAP1 DUP2 MSTORE PUSH1 0x40 SWAP1 KECCAK256 SLOAD PUSH1 0xFF AND DUP2 JUMP JUMPDEST PUSH1 0x40 MLOAD SWAP1 ISZERO ISZERO DUP2 MSTORE PUSH1 0x20 ADD PUSH2 0x257 JUMP JUMPDEST PUSH2 0x404 PUSH2 0x422 CALLDATASIZE PUSH1 0x4 PUSH2 0x2F6E JUMP JUMPDEST PUSH2 0x1291 JUMP JUMPDEST PUSH1 0x14 SLOAD PUSH2 0x2ED SWAP1 PUSH1 0x1 PUSH1 0x1 PUSH1 0xA0 SHL SUB AND DUP2 JUMP JUMPDEST PUSH2 0x361 PUSH2 0x448 CALLDATASIZE PUSH1 0x4 PUSH2 0x2ED2 JUMP JUMPDEST PUSH1 0x20 DUP1 DUP1 MSTORE PUSH1 0x0 SWAP3 DUP4 MSTORE PUSH1 0x40 DUP1 DUP5 KECCAK256 SWAP1 SWAP2 MSTORE SWAP1 DUP3 MSTORE SWAP1 KECCAK256 SLOAD PUSH1 0xFF AND DUP2 JUMP JUMPDEST PUSH2 0x472 PUSH5 0x2540BE400 DUP2 JUMP JUMPDEST PUSH1 0x40 MLOAD SWAP1 DUP2 MSTORE PUSH1 0x20 ADD PUSH2 0x257 JUMP JUMPDEST PUSH2 0x273 PUSH2 0x48E CALLDATASIZE PUSH1 0x4 PUSH2 0x30BF JUMP JUMPDEST PUSH2 0x12EE JUMP JUMPDEST PUSH2 0x472 PUSH5 0x174876E800 DUP2 JUMP JUMPDEST PUSH2 0x361 PUSH2 0x4AD CALLDATASIZE PUSH1 0x4 PUSH2 0x2ED2 JUMP JUMPDEST PUSH1 0xFF SWAP2 DUP3 AND PUSH1 0x0 SWAP1 DUP2 MSTORE PUSH1 0x20 DUP1 DUP1 MSTORE PUSH1 0x40 DUP1 DUP4 KECCAK256 SWAP4 DUP6 AND DUP4 MSTORE SWAP3 SWAP1 MSTORE KECCAK256 SLOAD AND SWAP1 JUMP JUMPDEST PUSH2 0x2CD PUSH2 0x4DD CALLDATASIZE PUSH1 0x4 PUSH2 0x2ED2 JUMP JUMPDEST PUSH2 0x157C JUMP JUMPDEST PUSH2 0x273 PUSH2 0x15A0 JUMP JUMPDEST PUSH2 0x273 PUSH2 0x4F8 CALLDATASIZE PUSH1 0x4 PUSH2 0x2FAF JUMP JUMPDEST PUSH2 0x1618 JUMP JUMPDEST PUSH2 0x505 PUSH2 0x19C2 JUMP JUMPDEST PUSH1 0x40 MLOAD PUSH2 0x257 SWAP2 SWAP1 PUSH2 0x30ED JUMP JUMPDEST PUSH2 0x361 PUSH2 0x520 CALLDATASIZE PUSH1 0x4 PUSH2 0x2D83 JUMP JUMPDEST PUSH2 0x1BEB JUMP JUMPDEST PUSH2 0x273 PUSH2 0x1C4C JUMP JUMPDEST PUSH1 0x16 SLOAD PUSH2 0x2ED SWAP1 PUSH1 0x1 PUSH1 0x1 PUSH1 0xA0 SHL SUB AND DUP2 JUMP JUMPDEST PUSH2 0x273 PUSH2 0x1FA4 JUMP JUMPDEST PUSH2 0x361 PUSH2 0x556 CALLDATASIZE PUSH1 0x4 PUSH2 0x314F JUMP JUMPDEST PUSH2 0x21FD JUMP JUMPDEST PUSH2 0x273 PUSH2 0x569 CALLDATASIZE PUSH1 0x4 PUSH2 0x2D83 JUMP JUMPDEST PUSH2 0x2239 JUMP JUMPDEST PUSH2 0x273 PUSH2 0x57C CALLDATASIZE PUSH1 0x4 PUSH2 0x30BF JUMP JUMPDEST PUSH2 0x24B6 JUMP JUMPDEST PUSH2 0x594 PUSH2 0x58F CALLDATASIZE PUSH1 0x4 PUSH2 0x2D83 JUMP JUMPDEST PUSH2 0x281F JUMP JUMPDEST PUSH1 0x40 MLOAD PUSH2 0x257 SWAP5 SWAP4 SWAP3 SWAP2 SWAP1 PUSH2 0x3171 JUMP JUMPDEST PUSH2 0x361 PUSH1 0x1E DUP2 JUMP JUMPDEST PUSH2 0x472 PUSH2 0x5BA CALLDATASIZE PUSH1 0x4 PUSH2 0x2D83 JUMP JUMPDEST PUSH1 0x22 PUSH1 0x20 MSTORE PUSH1 0x0 SWAP1 DUP2 MSTORE PUSH1 0x40 SWAP1 KECCAK256 SLOAD DUP2 JUMP JUMPDEST PUSH2 0x2CD PUSH2 0x5DA CALLDATASIZE PUSH1 0x4 PUSH2 0x2EB5 JUMP JUMPDEST PUSH2 0x28E2 JUMP JUMPDEST PUSH1 0xFF DUP2 AND PUSH1 0x0 SWAP1 DUP2 MSTORE PUSH1 0x1C PUSH1 0x20 SWAP1 DUP2 MSTORE PUSH1 0x40 SWAP2 DUP3 SWAP1 KECCAK256 DUP1 SLOAD DUP4 MLOAD DUP2 DUP5 MUL DUP2 ADD DUP5 ADD SWAP1 SWAP5 MSTORE DUP1 DUP5 MSTORE PUSH1 0x60 SWAP4 SWAP3 DUP4 ADD DUP3 DUP3 DUP1 ISZERO PUSH2 0x643 JUMPI PUSH1 0x20 MUL DUP3 ADD SWAP2 SWAP1 PUSH1 0x0 MSTORE PUSH1 0x20 PUSH1 0x0 KECCAK256 SWAP1 JUMPDEST DUP2 SLOAD PUSH1 0x1 PUSH1 0x1 PUSH1 0xA0 SHL SUB AND DUP2 MSTORE PUSH1 0x1 SWAP1 SWAP2 ADD SWAP1 PUSH1 0x20 ADD DUP1 DUP4 GT PUSH2 0x625 JUMPI JUMPDEST POP POP POP POP POP SWAP1 POP SWAP2 SWAP1 POP JUMP JUMPDEST DUP1 PUSH2 0x698 JUMPI PUSH1 0x40 MLOAD PUSH3 0x461BCD PUSH1 0xE5 SHL DUP2 MSTORE PUSH1 0x20 PUSH1 0x4 DUP3 ADD MSTORE PUSH1 0x14 PUSH1 0x24 DUP3 ADD MSTORE PUSH20 0x4E616D652063616E6E6F7420626520656D707479 PUSH1 0x60 SHL PUSH1 0x44 DUP3 ADD MSTORE PUSH1 0x64 ADD JUMPDEST PUSH1 0x40 MLOAD DUP1 SWAP2 SUB SWAP1 REVERT JUMPDEST PUSH1 0x14 SLOAD PUSH1 0x40 MLOAD PUSH4 0x8A888953 PUSH1 0xE0 SHL DUP2 MSTORE PUSH1 0xFF DUP1 DUP8 AND PUSH1 0x4 DUP4 ADD MSTORE DUP6 AND PUSH1 0x24 DUP3 ADD MSTORE CALLER SWAP2 PUSH1 0x1 PUSH1 0x1 PUSH1 0xA0 SHL SUB AND SWAP1 PUSH4 0x8A888953 SWAP1 PUSH1 0x44 ADD PUSH1 0x20 PUSH1 0x40 MLOAD DUP1 DUP4 SUB DUP2 DUP7 GAS STATICCALL ISZERO DUP1 ISZERO PUSH2 0x6EB JUMPI RETURNDATASIZE PUSH1 0x0 DUP1 RETURNDATACOPY RETURNDATASIZE PUSH1 0x0 REVERT JUMPDEST POP POP POP POP PUSH1 0x40 MLOAD RETURNDATASIZE PUSH1 0x1F NOT PUSH1 0x1F DUP3 ADD AND DUP3 ADD DUP1 PUSH1 0x40 MSTORE POP DUP2 ADD SWAP1 PUSH2 0x70F SWAP2 SWAP1 PUSH2 0x31BE JUMP JUMPDEST PUSH1 0x1 PUSH1 0x1 PUSH1 0xA0 SHL SUB AND EQ PUSH2 0x770 JUMPI PUSH1 0x40 MLOAD PUSH3 0x461BCD PUSH1 0xE5 SHL DUP2 MSTORE PUSH1 0x20 PUSH1 0x4 DUP3 ADD MSTORE PUSH1 0x22 PUSH1 0x24 DUP3 ADD MSTORE PUSH32 0x596F7520617265206E6F7420746865206F776E6572206F662074686973207469 PUSH1 0x44 DUP3 ADD MSTORE PUSH2 0x6C65 PUSH1 0xF0 SHL PUSH1 0x64 DUP3 ADD MSTORE PUSH1 0x84 ADD PUSH2 0x68F JUMP JUMPDEST PUSH1 0x15 SLOAD PUSH1 0x40 MLOAD PUSH4 0x23B872DD PUSH1 0xE0 SHL DUP2 MSTORE CALLER PUSH1 0x4 DUP3 ADD MSTORE ADDRESS PUSH1 0x24 DUP3 ADD MSTORE PUSH5 0x2540BE400 PUSH1 0x44 DUP3 ADD MSTORE PUSH1 0x1 PUSH1 0x1 PUSH1 0xA0 SHL SUB SWAP1 SWAP2 AND SWAP1 PUSH4 0x23B872DD SWAP1 PUSH1 0x64 ADD PUSH1 0x20 PUSH1 0x40 MLOAD DUP1 DUP4 SUB DUP2 PUSH1 0x0 DUP8 GAS CALL ISZERO DUP1 ISZERO PUSH2 0x7CB JUMPI RETURNDATASIZE PUSH1 0x0 DUP1 RETURNDATACOPY RETURNDATASIZE PUSH1 0x0 REVERT JUMPDEST POP POP POP POP PUSH1 0x40 MLOAD RETURNDATASIZE PUSH1 0x1F NOT PUSH1 0x1F DUP3 ADD AND DUP3 ADD DUP1 PUSH1 0x40 MSTORE POP DUP2 ADD SWAP1 PUSH2 0x7EF SWAP2 SWAP1 PUSH2 0x31DB JUMP JUMPDEST PUSH2 0x832 JUMPI PUSH1 0x40 MLOAD PUSH3 0x461BCD PUSH1 0xE5 SHL DUP2 MSTORE PUSH1 0x20 PUSH1 0x4 DUP3 ADD MSTORE PUSH1 0x14 PUSH1 0x24 DUP3 ADD MSTORE PUSH20 0x151BDAD95B881C185E5B595B9D0819985A5B1959 PUSH1 0x62 SHL PUSH1 0x44 DUP3 ADD MSTORE PUSH1 0x64 ADD PUSH2 0x68F JUMP JUMPDEST PUSH1 0xFF DUP1 DUP6 AND PUSH1 0x0 SWAP1 DUP2 MSTORE PUSH1 0x1E PUSH1 0x20 SWAP1 DUP2 MSTORE PUSH1 0x40 DUP1 DUP4 KECCAK256 SWAP4 DUP8 AND DUP4 MSTORE SWAP3 SWAP1 MSTORE KECCAK256 PUSH2 0x85C DUP3 DUP5 DUP4 PUSH2 0x329B JUMP JUMPDEST POP CALLER PUSH1 0x1 PUSH1 0x1 PUSH1 0xA0 SHL SUB AND PUSH32 0x4CA3860FF74978D12A483F5D8FA68A3F3C3CEB09B008784DC253BFBC348AB3E8 DUP6 DUP6 DUP6 DUP6 PUSH1 0x40 MLOAD PUSH2 0x89C SWAP5 SWAP4 SWAP3 SWAP2 SWAP1 PUSH2 0x3384 JUMP JUMPDEST PUSH1 0x40 MLOAD DUP1 SWAP2 SUB SWAP1 LOG2 POP POP POP POP JUMP JUMPDEST PUSH1 0xFF DUP1 DUP4 AND PUSH1 0x0 SWAP1 DUP2 MSTORE PUSH1 0x1E PUSH1 0x20 SWAP1 DUP2 MSTORE PUSH1 0x40 DUP1 DUP4 KECCAK256 SWAP4 DUP6 AND DUP4 MSTORE SWAP3 SWAP1 MSTORE KECCAK256 DUP1 SLOAD PUSH1 0x60 SWAP2 SWAP1 PUSH2 0x8D8 SWAP1 PUSH2 0x3213 JUMP JUMPDEST DUP1 PUSH1 0x1F ADD PUSH1 0x20 DUP1 SWAP2 DIV MUL PUSH1 0x20 ADD PUSH1 0x40 MLOAD SWAP1 DUP2 ADD PUSH1 0x40 MSTORE DUP1 SWAP3 SWAP2 SWAP1 DUP2 DUP2 MSTORE PUSH1 0x20 ADD DUP3 DUP1 SLOAD PUSH2 0x904 SWAP1 PUSH2 0x3213 JUMP JUMPDEST DUP1 ISZERO PUSH2 0x951 JUMPI DUP1 PUSH1 0x1F LT PUSH2 0x926 JUMPI PUSH2 0x100 DUP1 DUP4 SLOAD DIV MUL DUP4 MSTORE SWAP2 PUSH1 0x20 ADD SWAP2 PUSH2 0x951 JUMP JUMPDEST DUP3 ADD SWAP2 SWAP1 PUSH1 0x0 MSTORE PUSH1 0x20 PUSH1 0x0 KECCAK256 SWAP1 JUMPDEST DUP2 SLOAD DUP2 MSTORE SWAP1 PUSH1 0x1 ADD SWAP1 PUSH1 0x20 ADD DUP1 DUP4 GT PUSH2 0x934 JUMPI DUP3 SWAP1 SUB PUSH1 0x1F AND DUP3 ADD SWAP2 JUMPDEST POP POP POP POP POP SWAP1 POP JUMPDEST SWAP3 SWAP2 POP POP JUMP JUMPDEST PUSH1 0x1F PUSH1 0x20 MSTORE PUSH1 0x0 SWAP1 DUP2 MSTORE PUSH1 0x40 SWAP1 KECCAK256 DUP1 SLOAD PUSH2 0x978 SWAP1 PUSH2 0x3213 JUMP JUMPDEST DUP1 PUSH1 0x1F ADD PUSH1 0x20 DUP1 SWAP2 DIV MUL PUSH1 0x20 ADD PUSH1 0x40 MLOAD SWAP1 DUP2 ADD PUSH1 0x40 MSTORE DUP1 SWAP3 SWAP2 SWAP1 DUP2 DUP2 MSTORE PUSH1 0x20 ADD DUP3 DUP1 SLOAD PUSH2 0x9A4 SWAP1 PUSH2 0x3213 JUMP JUMPDEST DUP1 ISZERO PUSH2 0x9F1 JUMPI DUP1 PUSH1 0x1F LT PUSH2 0x9C6 JUMPI PUSH2 0x100 DUP1 DUP4 SLOAD DIV MUL DUP4 MSTORE SWAP2 PUSH1 0x20 ADD SWAP2 PUSH2 0x9F1 JUMP JUMPDEST DUP3 ADD SWAP2 SWAP1 PUSH1 0x0 MSTORE PUSH1 0x20 PUSH1 0x0 KECCAK256 SWAP1 JUMPDEST DUP2 SLOAD DUP2 MSTORE SWAP1 PUSH1 0x1 ADD SWAP1 PUSH1 0x20 ADD DUP1 DUP4 GT PUSH2 0x9D4 JUMPI DUP3 SWAP1 SUB PUSH1 0x1F AND DUP3 ADD SWAP2 JUMPDEST POP POP POP POP POP DUP2 JUMP JUMPDEST PUSH2 0xA02 CALLER PUSH2 0x2984 JUMP JUMPDEST PUSH2 0xA1E JUMPI PUSH1 0x40 MLOAD PUSH3 0x461BCD PUSH1 0xE5 SHL DUP2 MSTORE PUSH1 0x4 ADD PUSH2 0x68F SWAP1 PUSH2 0x33B4 JUMP JUMPDEST DUP1 PUSH2 0xA6B JUMPI PUSH1 0x40 MLOAD PUSH3 0x461BCD PUSH1 0xE5 SHL DUP2 MSTORE PUSH1 0x20 PUSH1 0x4 DUP3 ADD MSTORE PUSH1 0x19 PUSH1 0x24 DUP3 ADD MSTORE PUSH32 0x436C616E206E616D652063616E6E6F7420626520656D70747900000000000000 PUSH1 0x44 DUP3 ADD MSTORE PUSH1 0x64 ADD PUSH2 0x68F JUMP JUMPDEST CALLER PUSH1 0x0 SWAP1 DUP2 MSTORE PUSH1 0x1B PUSH1 0x20 MSTORE PUSH1 0x40 SWAP1 KECCAK256 SLOAD PUSH2 0x100 SWAP1 DIV PUSH1 0xFF AND ISZERO PUSH2 0xAC4 JUMPI PUSH1 0x40 MLOAD PUSH3 0x461BCD PUSH1 0xE5 SHL DUP2 MSTORE PUSH1 0x20 PUSH1 0x4 DUP3 ADD MSTORE PUSH1 0x11 PUSH1 0x24 DUP3 ADD MSTORE PUSH17 0x20B63932B0B23C9034B710309031B630B7 PUSH1 0x79 SHL PUSH1 0x44 DUP3 ADD MSTORE PUSH1 0x64 ADD PUSH2 0x68F JUMP JUMPDEST PUSH1 0x0 PUSH2 0xB05 DUP4 DUP4 DUP1 DUP1 PUSH1 0x1F ADD PUSH1 0x20 DUP1 SWAP2 DIV MUL PUSH1 0x20 ADD PUSH1 0x40 MLOAD SWAP1 DUP2 ADD PUSH1 0x40 MSTORE DUP1 SWAP4 SWAP3 SWAP2 SWAP1 DUP2 DUP2 MSTORE PUSH1 0x20 ADD DUP4 DUP4 DUP1 DUP3 DUP5 CALLDATACOPY PUSH1 0x0 SWAP3 ADD SWAP2 SWAP1 SWAP2 MSTORE POP PUSH2 0x29F3 SWAP3 POP POP POP JUMP JUMPDEST PUSH1 0x0 DUP2 DUP2 MSTORE PUSH1 0x17 PUSH1 0x20 MSTORE PUSH1 0x40 SWAP1 KECCAK256 SLOAD SWAP1 SWAP2 POP PUSH1 0xFF AND ISZERO PUSH2 0xB67 JUMPI PUSH1 0x40 MLOAD PUSH3 0x461BCD PUSH1 0xE5 SHL DUP2 MSTORE PUSH1 0x20 PUSH1 0x4 DUP3 ADD MSTORE PUSH1 0x17 PUSH1 0x24 DUP3 ADD MSTORE PUSH32 0x436C616E206E616D6520616C72656164792074616B656E000000000000000000 PUSH1 0x44 DUP3 ADD MSTORE PUSH1 0x64 ADD PUSH2 0x68F JUMP JUMPDEST PUSH1 0x0 DUP1 PUSH2 0xB73 CALLER PUSH2 0x2A33 JUMP JUMPDEST PUSH1 0x16 SLOAD PUSH1 0x40 MLOAD PUSH4 0x1C6331C1 PUSH1 0xE3 SHL DUP2 MSTORE CALLER PUSH1 0x4 DUP3 ADD MSTORE SWAP3 SWAP5 POP SWAP1 SWAP3 POP PUSH1 0x1 PUSH1 0x1 PUSH1 0xA0 SHL SUB AND SWAP1 PUSH4 0xE3198E08 SWAP1 PUSH1 0x24 ADD PUSH1 0x20 PUSH1 0x40 MLOAD DUP1 DUP4 SUB DUP2 DUP7 GAS STATICCALL ISZERO DUP1 ISZERO PUSH2 0xBBF JUMPI RETURNDATASIZE PUSH1 0x0 DUP1 RETURNDATACOPY RETURNDATASIZE PUSH1 0x0 REVERT JUMPDEST POP POP POP POP PUSH1 0x40 MLOAD RETURNDATASIZE PUSH1 0x1F NOT PUSH1 0x1F DUP3 ADD AND DUP3 ADD DUP1 PUSH1 0x40 MSTORE POP DUP2 ADD SWAP1 PUSH2 0xBE3 SWAP2 SWAP1 PUSH2 0x31DB JUMP JUMPDEST PUSH2 0xBFF JUMPI PUSH1 0x40 MLOAD PUSH3 0x461BCD PUSH1 0xE5 SHL DUP2 MSTORE PUSH1 0x4 ADD PUSH2 0x68F SWAP1 PUSH2 0x3400 JUMP JUMPDEST PUSH1 0x15 SLOAD PUSH1 0x40 MLOAD PUSH4 0x23B872DD PUSH1 0xE0 SHL DUP2 MSTORE CALLER PUSH1 0x4 DUP3 ADD MSTORE ADDRESS PUSH1 0x24 DUP3 ADD MSTORE PUSH5 0x174876E800 PUSH1 0x44 DUP3 ADD MSTORE PUSH1 0x1 PUSH1 0x1 PUSH1 0xA0 SHL SUB SWAP1 SWAP2 AND SWAP1 PUSH4 0x23B872DD SWAP1 PUSH1 0x64 ADD PUSH1 0x20 PUSH1 0x40 MLOAD DUP1 DUP4 SUB DUP2 PUSH1 0x0 DUP8 GAS CALL ISZERO DUP1 ISZERO PUSH2 0xC5A JUMPI RETURNDATASIZE PUSH1 0x0 DUP1 RETURNDATACOPY RETURNDATASIZE PUSH1 0x0 REVERT JUMPDEST POP POP POP POP PUSH1 0x40 MLOAD RETURNDATASIZE PUSH1 0x1F NOT PUSH1 0x1F DUP3 ADD AND DUP3 ADD DUP1 PUSH1 0x40 MSTORE POP DUP2 ADD SWAP1 PUSH2 0xC7E SWAP2 SWAP1 PUSH2 0x31DB JUMP JUMPDEST PUSH2 0xCC0 JUMPI PUSH1 0x40 MLOAD PUSH3 0x461BCD PUSH1 0xE5 SHL DUP2 MSTORE PUSH1 0x20 PUSH1 0x4 DUP3 ADD MSTORE PUSH1 0x13 PUSH1 0x24 DUP3 ADD MSTORE PUSH19 0x1313D4081D1C985B9CD9995C8819985A5B1959 PUSH1 0x6A SHL PUSH1 0x44 DUP3 ADD MSTORE PUSH1 0x64 ADD PUSH2 0x68F JUMP JUMPDEST PUSH1 0x19 DUP1 SLOAD PUSH1 0xFF AND SWAP1 PUSH1 0x0 PUSH2 0xCD3 DUP4 PUSH2 0x344D JUMP JUMPDEST SWAP2 SWAP1 PUSH2 0x100 EXP DUP2 SLOAD DUP2 PUSH1 0xFF MUL NOT AND SWAP1 DUP4 PUSH1 0xFF AND MUL OR SWAP1 SSTORE POP POP PUSH1 0x40 MLOAD DUP1 PUSH1 0x80 ADD PUSH1 0x40 MSTORE DUP1 DUP7 DUP7 DUP1 DUP1 PUSH1 0x1F ADD PUSH1 0x20 DUP1 SWAP2 DIV MUL PUSH1 0x20 ADD PUSH1 0x40 MLOAD SWAP1 DUP2 ADD PUSH1 0x40 MSTORE DUP1 SWAP4 SWAP3 SWAP2 SWAP1 DUP2 DUP2 MSTORE PUSH1 0x20 ADD DUP4 DUP4 DUP1 DUP3 DUP5 CALLDATACOPY PUSH1 0x0 SWAP3 ADD DUP3 SWAP1 MSTORE POP SWAP4 DUP6 MSTORE POP POP CALLER PUSH1 0x20 DUP1 DUP6 ADD SWAP2 SWAP1 SWAP2 MSTORE PUSH1 0x1 PUSH1 0x40 DUP1 DUP7 ADD DUP3 SWAP1 MSTORE PUSH1 0x60 SWAP1 SWAP6 ADD MSTORE PUSH1 0x19 SLOAD PUSH1 0xFF AND DUP4 MSTORE PUSH1 0x1A SWAP1 MSTORE POP KECCAK256 DUP2 MLOAD DUP2 SWAP1 PUSH2 0xD64 SWAP1 DUP3 PUSH2 0x346C JUMP JUMPDEST POP PUSH1 0x20 DUP3 DUP2 ADD MLOAD PUSH1 0x1 SWAP3 DUP4 ADD DUP1 SLOAD PUSH1 0x40 DUP1 DUP8 ADD MLOAD PUSH1 0x60 SWAP1 SWAP8 ADD MLOAD ISZERO ISZERO PUSH1 0x1 PUSH1 0xA8 SHL MUL PUSH1 0xFF PUSH1 0xA8 SHL NOT PUSH1 0xFF SWAP9 DUP10 AND PUSH1 0x1 PUSH1 0xA0 SHL MUL PUSH1 0x1 PUSH1 0x1 PUSH1 0xA8 SHL SUB NOT SWAP1 SWAP5 AND PUSH1 0x1 PUSH1 0x1 PUSH1 0xA0 SHL SUB SWAP1 SWAP7 AND SWAP6 SWAP1 SWAP6 OR SWAP3 SWAP1 SWAP3 OR SWAP4 SWAP1 SWAP4 AND OR SWAP1 SSTORE DUP1 MLOAD DUP1 DUP3 ADD DUP3 MSTORE PUSH1 0x19 DUP1 SLOAD DUP7 AND DUP3 MSTORE DUP2 DUP5 ADD DUP6 DUP2 MSTORE CALLER PUSH1 0x0 DUP2 DUP2 MSTORE PUSH1 0x1B DUP8 MSTORE DUP6 DUP2 KECCAK256 SWAP5 MLOAD DUP6 SLOAD SWAP4 MLOAD ISZERO ISZERO PUSH2 0x100 MUL PUSH2 0xFFFF NOT SWAP1 SWAP5 AND SWAP1 DUP11 AND OR SWAP3 SWAP1 SWAP3 OR SWAP1 SWAP4 SSTORE DUP2 SLOAD DUP8 AND DUP2 MSTORE PUSH1 0x1C DUP6 MSTORE DUP4 DUP2 KECCAK256 DUP1 SLOAD DUP1 DUP9 ADD DUP3 SSTORE SWAP1 DUP3 MSTORE DUP6 DUP3 KECCAK256 ADD DUP1 SLOAD PUSH1 0x1 PUSH1 0x1 PUSH1 0xA0 SHL SUB NOT AND DUP5 OR SWAP1 SSTORE DUP2 SLOAD DUP10 DUP9 AND DUP3 MSTORE DUP6 DUP1 MSTORE DUP5 DUP3 KECCAK256 DUP10 DUP10 AND DUP4 MSTORE DUP7 MSTORE DUP5 DUP3 KECCAK256 DUP1 SLOAD PUSH1 0xFF NOT SWAP1 DUP2 AND SWAP3 DUP11 AND SWAP3 SWAP1 SWAP3 OR SWAP1 SSTORE DUP11 DUP3 MSTORE PUSH1 0x17 DUP7 MSTORE DUP5 DUP3 KECCAK256 DUP1 SLOAD SWAP1 SWAP2 AND SWAP1 SWAP7 OR SWAP1 SWAP6 SSTORE DUP1 SLOAD DUP7 AND DUP6 MSTORE PUSH1 0x18 SWAP1 SWAP4 MSTORE SWAP3 DUP2 SWAP1 KECCAK256 DUP8 SWAP1 SSTORE SWAP1 SLOAD SWAP1 MLOAD PUSH32 0x2894FC6A8646076B891138309FFB3FC9086490A703074B2B2D77C5DCDDB43DE SWAP4 PUSH2 0xEAE SWAP4 SWAP3 AND SWAP2 DUP10 SWAP2 DUP10 SWAP2 SWAP1 PUSH2 0x352B JUMP JUMPDEST PUSH1 0x40 MLOAD DUP1 SWAP2 SUB SWAP1 LOG1 POP POP POP POP POP JUMP JUMPDEST PUSH1 0x1C PUSH1 0x20 MSTORE DUP2 PUSH1 0x0 MSTORE PUSH1 0x40 PUSH1 0x0 KECCAK256 DUP2 DUP2 SLOAD DUP2 LT PUSH2 0xED9 JUMPI PUSH1 0x0 DUP1 REVERT JUMPDEST PUSH1 0x0 SWAP2 DUP3 MSTORE PUSH1 0x20 SWAP1 SWAP2 KECCAK256 ADD SLOAD PUSH1 0x1 PUSH1 0x1 PUSH1 0xA0 SHL SUB AND SWAP2 POP DUP3 SWAP1 POP JUMP JUMPDEST PUSH1 0x0 PUSH1 0x14 DUP4 PUSH1 0xFF AND LT DUP1 ISZERO PUSH2 0xF0D JUMPI POP PUSH1 0x14 DUP3 PUSH1 0xFF AND LT JUMPDEST PUSH2 0xF4F JUMPI PUSH1 0x40 MLOAD PUSH3 0x461BCD PUSH1 0xE5 SHL DUP2 MSTORE PUSH1 0x20 PUSH1 0x4 DUP3 ADD MSTORE PUSH1 0x13 PUSH1 0x24 DUP3 ADD MSTORE PUSH19 0x496E76616C696420636F6F7264696E61746573 PUSH1 0x68 SHL PUSH1 0x44 DUP3 ADD MSTORE PUSH1 0x64 ADD PUSH2 0x68F JUMP JUMPDEST PUSH1 0x0 DUP4 PUSH1 0xFF AND PUSH1 0x14 DUP2 LT PUSH2 0xF65 JUMPI PUSH2 0xF65 PUSH2 0x3561 JUMP JUMPDEST ADD DUP3 PUSH1 0xFF AND PUSH1 0x14 DUP2 LT PUSH2 0xF7A JUMPI PUSH2 0xF7A PUSH2 0x3561 JUMP JUMPDEST PUSH1 0x20 DUP2 DIV SWAP1 SWAP2 ADD SLOAD PUSH1 0xFF PUSH1 0x1F SWAP1 SWAP3 AND PUSH2 0x100 EXP SWAP1 DIV AND SWAP1 POP SWAP3 SWAP2 POP POP JUMP JUMPDEST PUSH1 0x60 PUSH1 0x0 DUP1 JUMPDEST PUSH1 0x14 DUP2 PUSH1 0xFF AND LT ISZERO PUSH2 0x1011 JUMPI PUSH1 0x0 JUMPDEST PUSH1 0x14 DUP2 PUSH1 0xFF AND LT ISZERO PUSH2 0xFFE JUMPI PUSH1 0xFF DUP1 DUP4 AND PUSH1 0x0 SWAP1 DUP2 MSTORE PUSH1 0x20 DUP1 DUP1 MSTORE PUSH1 0x40 DUP1 DUP4 KECCAK256 DUP6 DUP6 AND DUP5 MSTORE SWAP1 SWAP2 MSTORE SWAP1 KECCAK256 SLOAD AND ISZERO PUSH2 0xFEC JUMPI DUP3 PUSH2 0xFE8 DUP2 PUSH2 0x3577 JUMP JUMPDEST SWAP4 POP POP JUMPDEST DUP1 PUSH2 0xFF6 DUP2 PUSH2 0x344D JUMP JUMPDEST SWAP2 POP POP PUSH2 0xFAD JUMP JUMPDEST POP DUP1 PUSH2 0x1009 DUP2 PUSH2 0x344D JUMP JUMPDEST SWAP2 POP POP PUSH2 0xF9E JUMP JUMPDEST POP PUSH1 0x0 DUP2 PUSH1 0x1 PUSH1 0x1 PUSH1 0x40 SHL SUB DUP2 GT ISZERO PUSH2 0x102C JUMPI PUSH2 0x102C PUSH2 0x31FD JUMP JUMPDEST PUSH1 0x40 MLOAD SWAP1 DUP1 DUP3 MSTORE DUP1 PUSH1 0x20 MUL PUSH1 0x20 ADD DUP3 ADD PUSH1 0x40 MSTORE DUP1 ISZERO PUSH2 0x107E JUMPI DUP2 PUSH1 0x20 ADD JUMPDEST PUSH1 0x40 DUP1 MLOAD PUSH1 0x80 DUP2 ADD DUP3 MSTORE PUSH1 0x0 DUP1 DUP3 MSTORE PUSH1 0x20 DUP1 DUP4 ADD DUP3 SWAP1 MSTORE SWAP3 DUP3 ADD DUP2 SWAP1 MSTORE PUSH1 0x60 DUP3 ADD MSTORE DUP3 MSTORE PUSH1 0x0 NOT SWAP1 SWAP3 ADD SWAP2 ADD DUP2 PUSH2 0x104A JUMPI SWAP1 POP JUMPDEST POP SWAP1 POP PUSH1 0x0 DUP1 JUMPDEST PUSH1 0x14 DUP2 PUSH1 0xFF AND LT ISZERO PUSH2 0x115B JUMPI PUSH1 0x0 JUMPDEST PUSH1 0x14 DUP2 PUSH1 0xFF AND LT ISZERO PUSH2 0x1148 JUMPI PUSH1 0xFF DUP1 DUP4 AND PUSH1 0x0 SWAP1 DUP2 MSTORE PUSH1 0x20 DUP1 DUP1 MSTORE PUSH1 0x40 DUP1 DUP4 KECCAK256 DUP6 DUP6 AND DUP5 MSTORE SWAP1 SWAP2 MSTORE SWAP1 KECCAK256 SLOAD AND DUP1 ISZERO PUSH2 0x1135 JUMPI PUSH1 0x40 MLOAD DUP1 PUSH1 0x80 ADD PUSH1 0x40 MSTORE DUP1 DUP5 PUSH1 0xFF AND DUP2 MSTORE PUSH1 0x20 ADD DUP4 PUSH1 0xFF AND DUP2 MSTORE PUSH1 0x20 ADD DUP3 PUSH1 0xFF AND DUP2 MSTORE PUSH1 0x20 ADD PUSH1 0x22 PUSH1 0x0 DUP5 PUSH1 0xFF AND PUSH1 0xFF AND DUP2 MSTORE PUSH1 0x20 ADD SWAP1 DUP2 MSTORE PUSH1 0x20 ADD PUSH1 0x0 KECCAK256 SLOAD DUP2 MSTORE POP DUP6 DUP6 DUP2 MLOAD DUP2 LT PUSH2 0x111B JUMPI PUSH2 0x111B PUSH2 0x3561 JUMP JUMPDEST PUSH1 0x20 MUL PUSH1 0x20 ADD ADD DUP2 SWAP1 MSTORE POP DUP4 DUP1 PUSH2 0x1131 SWAP1 PUSH2 0x3577 JUMP JUMPDEST SWAP5 POP POP JUMPDEST POP DUP1 PUSH2 0x1140 DUP2 PUSH2 0x344D JUMP JUMPDEST SWAP2 POP POP PUSH2 0x1094 JUMP JUMPDEST POP DUP1 PUSH2 0x1153 DUP2 PUSH2 0x344D JUMP JUMPDEST SWAP2 POP POP PUSH2 0x1085 JUMP JUMPDEST POP SWAP1 SWAP4 SWAP3 POP POP POP JUMP JUMPDEST CALLER PUSH1 0x0 SWAP1 DUP2 MSTORE PUSH1 0x1F PUSH1 0x20 MSTORE PUSH1 0x40 SWAP1 KECCAK256 PUSH2 0x117E DUP3 DUP5 DUP4 PUSH2 0x329B JUMP JUMPDEST POP POP POP JUMP JUMPDEST PUSH1 0x40 DUP1 MLOAD PUSH1 0x80 DUP2 ADD DUP3 MSTORE PUSH1 0x60 DUP1 DUP3 MSTORE PUSH1 0x0 PUSH1 0x20 DUP4 ADD DUP2 SWAP1 MSTORE SWAP3 DUP3 ADD DUP4 SWAP1 MSTORE DUP2 ADD SWAP2 SWAP1 SWAP2 MSTORE PUSH1 0xFF DUP3 AND PUSH1 0x0 SWAP1 DUP2 MSTORE PUSH1 0x1A PUSH1 0x20 MSTORE PUSH1 0x40 SWAP1 DUP2 SWAP1 KECCAK256 DUP2 MLOAD PUSH1 0x80 DUP2 ADD SWAP1 SWAP3 MSTORE DUP1 SLOAD DUP3 SWAP1 DUP3 SWAP1 PUSH2 0x11D3 SWAP1 PUSH2 0x3213 JUMP JUMPDEST DUP1 PUSH1 0x1F ADD PUSH1 0x20 DUP1 SWAP2 DIV MUL PUSH1 0x20 ADD PUSH1 0x40 MLOAD SWAP1 DUP2 ADD PUSH1 0x40 MSTORE DUP1 SWAP3 SWAP2 SWAP1 DUP2 DUP2 MSTORE PUSH1 0x20 ADD DUP3 DUP1 SLOAD PUSH2 0x11FF SWAP1 PUSH2 0x3213 JUMP JUMPDEST DUP1 ISZERO PUSH2 0x124C JUMPI DUP1 PUSH1 0x1F LT PUSH2 0x1221 JUMPI PUSH2 0x100 DUP1 DUP4 SLOAD DIV MUL DUP4 MSTORE SWAP2 PUSH1 0x20 ADD SWAP2 PUSH2 0x124C JUMP JUMPDEST DUP3 ADD SWAP2 SWAP1 PUSH1 0x0 MSTORE PUSH1 0x20 PUSH1 0x0 KECCAK256 SWAP1 JUMPDEST DUP2 SLOAD DUP2 MSTORE SWAP1 PUSH1 0x1 ADD SWAP1 PUSH1 0x20 ADD DUP1 DUP4 GT PUSH2 0x122F JUMPI DUP3 SWAP1 SUB PUSH1 0x1F AND DUP3 ADD SWAP2 JUMPDEST POP POP POP SWAP2 DUP4 MSTORE POP POP PUSH1 0x1 SWAP2 SWAP1 SWAP2 ADD SLOAD PUSH1 0x1 PUSH1 0x1 PUSH1 0xA0 SHL SUB DUP2 AND PUSH1 0x20 DUP4 ADD MSTORE PUSH1 0xFF PUSH1 0x1 PUSH1 0xA0 SHL DUP3 DIV DUP2 AND PUSH1 0x40 DUP5 ADD MSTORE PUSH1 0x1 PUSH1 0xA8 SHL SWAP1 SWAP2 DIV AND ISZERO ISZERO PUSH1 0x60 SWAP1 SWAP2 ADD MSTORE SWAP3 SWAP2 POP POP JUMP JUMPDEST PUSH1 0x0 DUP1 PUSH2 0x12D3 DUP5 DUP5 DUP1 DUP1 PUSH1 0x1F ADD PUSH1 0x20 DUP1 SWAP2 DIV MUL PUSH1 0x20 ADD PUSH1 0x40 MLOAD SWAP1 DUP2 ADD PUSH1 0x40 MSTORE DUP1 SWAP4 SWAP3 SWAP2 SWAP1 DUP2 DUP2 MSTORE PUSH1 0x20 ADD DUP4 DUP4 DUP1 DUP3 DUP5 CALLDATACOPY PUSH1 0x0 SWAP3 ADD SWAP2 SWAP1 SWAP2 MSTORE POP PUSH2 0x29F3 SWAP3 POP POP POP JUMP JUMPDEST PUSH1 0x0 SWAP1 DUP2 MSTORE PUSH1 0x17 PUSH1 0x20 MSTORE PUSH1 0x40 SWAP1 KECCAK256 SLOAD PUSH1 0xFF AND ISZERO SWAP5 SWAP4 POP POP POP POP JUMP JUMPDEST PUSH1 0xFF DUP3 AND PUSH1 0x0 SWAP1 DUP2 MSTORE PUSH1 0x1A PUSH1 0x20 MSTORE PUSH1 0x40 SWAP1 KECCAK256 PUSH1 0x1 ADD SLOAD DUP3 SWAP1 PUSH1 0x1 PUSH1 0x1 PUSH1 0xA0 SHL SUB AND CALLER EQ PUSH2 0x132D JUMPI PUSH1 0x40 MLOAD PUSH3 0x461BCD PUSH1 0xE5 SHL DUP2 MSTORE PUSH1 0x4 ADD PUSH2 0x68F SWAP1 PUSH2 0x3590 JUMP JUMPDEST PUSH1 0xFF DUP1 DUP5 AND PUSH1 0x0 SWAP1 DUP2 MSTORE PUSH1 0x1A PUSH1 0x20 MSTORE PUSH1 0x40 SWAP1 KECCAK256 PUSH1 0x1 ADD SLOAD PUSH1 0x1 PUSH1 0xA8 SHL SWAP1 DIV AND PUSH2 0x1368 JUMPI PUSH1 0x40 MLOAD PUSH3 0x461BCD PUSH1 0xE5 SHL DUP2 MSTORE PUSH1 0x4 ADD PUSH2 0x68F SWAP1 PUSH2 0x35D8 JUMP JUMPDEST PUSH1 0xFF DUP4 DUP2 AND PUSH1 0x0 SWAP1 DUP2 MSTORE PUSH1 0x1A PUSH1 0x20 MSTORE PUSH1 0x40 SWAP1 KECCAK256 PUSH1 0x1 ADD SLOAD PUSH1 0x1E PUSH1 0x1 PUSH1 0xA0 SHL SWAP1 SWAP2 DIV SWAP1 SWAP2 AND LT PUSH2 0x13C8 JUMPI PUSH1 0x40 MLOAD PUSH3 0x461BCD PUSH1 0xE5 SHL DUP2 MSTORE PUSH1 0x20 PUSH1 0x4 DUP3 ADD MSTORE PUSH1 0xC PUSH1 0x24 DUP3 ADD MSTORE PUSH12 0x10DB185B881A5CC8199D5B1B PUSH1 0xA2 SHL PUSH1 0x44 DUP3 ADD MSTORE PUSH1 0x64 ADD PUSH2 0x68F JUMP JUMPDEST PUSH1 0x1 PUSH1 0x1 PUSH1 0xA0 SHL SUB DUP3 AND PUSH1 0x0 SWAP1 DUP2 MSTORE PUSH1 0x1B PUSH1 0x20 MSTORE PUSH1 0x40 SWAP1 KECCAK256 SLOAD PUSH2 0x100 SWAP1 DIV PUSH1 0xFF AND ISZERO PUSH2 0x1436 JUMPI PUSH1 0x40 MLOAD PUSH3 0x461BCD PUSH1 0xE5 SHL DUP2 MSTORE PUSH1 0x20 PUSH1 0x4 DUP3 ADD MSTORE PUSH1 0x1B PUSH1 0x24 DUP3 ADD MSTORE PUSH32 0x506C6179657220697320616C726561647920696E206120636C616E0000000000 PUSH1 0x44 DUP3 ADD MSTORE PUSH1 0x64 ADD PUSH2 0x68F JUMP JUMPDEST PUSH2 0x143F DUP3 PUSH2 0x2984 JUMP JUMPDEST PUSH2 0x148B JUMPI PUSH1 0x40 MLOAD PUSH3 0x461BCD PUSH1 0xE5 SHL DUP2 MSTORE PUSH1 0x20 PUSH1 0x4 DUP3 ADD MSTORE PUSH1 0x1A PUSH1 0x24 DUP3 ADD MSTORE PUSH32 0x506C6179657220646F6573206E6F74206F776E20612074696C65000000000000 PUSH1 0x44 DUP3 ADD MSTORE PUSH1 0x64 ADD PUSH2 0x68F JUMP JUMPDEST PUSH1 0x16 SLOAD PUSH1 0x40 MLOAD PUSH4 0x1C6331C1 PUSH1 0xE3 SHL DUP2 MSTORE CALLER PUSH1 0x4 DUP3 ADD MSTORE PUSH1 0x1 PUSH1 0x1 PUSH1 0xA0 SHL SUB SWAP1 SWAP2 AND SWAP1 PUSH4 0xE3198E08 SWAP1 PUSH1 0x24 ADD PUSH1 0x20 PUSH1 0x40 MLOAD DUP1 DUP4 SUB DUP2 DUP7 GAS STATICCALL ISZERO DUP1 ISZERO PUSH2 0x14D3 JUMPI RETURNDATASIZE PUSH1 0x0 DUP1 RETURNDATACOPY RETURNDATASIZE PUSH1 0x0 REVERT JUMPDEST POP POP POP POP PUSH1 0x40 MLOAD RETURNDATASIZE PUSH1 0x1F NOT PUSH1 0x1F DUP3 ADD AND DUP3 ADD DUP1 PUSH1 0x40 MSTORE POP DUP2 ADD SWAP1 PUSH2 0x14F7 SWAP2 SWAP1 PUSH2 0x31DB JUMP JUMPDEST PUSH2 0x1513 JUMPI PUSH1 0x40 MLOAD PUSH3 0x461BCD PUSH1 0xE5 SHL DUP2 MSTORE PUSH1 0x4 ADD PUSH2 0x68F SWAP1 PUSH2 0x3400 JUMP JUMPDEST PUSH1 0x1 PUSH1 0x1 PUSH1 0xA0 SHL SUB DUP3 AND PUSH1 0x0 DUP2 DUP2 MSTORE PUSH1 0x1D PUSH1 0x20 SWAP1 DUP2 MSTORE PUSH1 0x40 SWAP2 DUP3 SWAP1 KECCAK256 DUP1 SLOAD PUSH1 0xFF NOT AND PUSH1 0xFF DUP9 AND SWAP1 DUP2 OR SWAP1 SWAP2 SSTORE DUP3 MLOAD SWAP1 DUP2 MSTORE SWAP1 DUP2 ADD SWAP3 SWAP1 SWAP3 MSTORE PUSH32 0xFB5973CB72C6BF58BE94FF6AD4A5497B4361C5A70E78C75E83627CF0E1396DF6 SWAP2 ADD JUMPDEST PUSH1 0x40 MLOAD DUP1 SWAP2 SUB SWAP1 LOG1 POP POP POP JUMP JUMPDEST PUSH1 0x1E PUSH1 0x20 SWAP1 DUP2 MSTORE PUSH1 0x0 SWAP3 DUP4 MSTORE PUSH1 0x40 DUP1 DUP5 KECCAK256 SWAP1 SWAP2 MSTORE SWAP1 DUP3 MSTORE SWAP1 KECCAK256 DUP1 SLOAD PUSH2 0x978 SWAP1 PUSH2 0x3213 JUMP JUMPDEST CALLER PUSH1 0x0 SWAP1 DUP2 MSTORE PUSH1 0x1D PUSH1 0x20 MSTORE PUSH1 0x40 SWAP1 KECCAK256 SLOAD PUSH1 0xFF AND PUSH2 0x15FF JUMPI PUSH1 0x40 MLOAD PUSH3 0x461BCD PUSH1 0xE5 SHL DUP2 MSTORE PUSH1 0x20 PUSH1 0x4 DUP3 ADD MSTORE PUSH1 0x1B PUSH1 0x24 DUP3 ADD MSTORE PUSH32 0x4E6F2070656E64696E6720696E7669746520746F207265667573650000000000 PUSH1 0x44 DUP3 ADD MSTORE PUSH1 0x64 ADD PUSH2 0x68F JUMP JUMPDEST CALLER PUSH1 0x0 SWAP1 DUP2 MSTORE PUSH1 0x1D PUSH1 0x20 MSTORE PUSH1 0x40 SWAP1 KECCAK256 DUP1 SLOAD PUSH1 0xFF NOT AND SWAP1 SSTORE JUMP JUMPDEST PUSH1 0xFF DUP3 AND PUSH1 0x0 SWAP1 DUP2 MSTORE PUSH1 0x1A PUSH1 0x20 MSTORE PUSH1 0x40 SWAP1 KECCAK256 PUSH1 0x1 ADD SLOAD DUP3 SWAP1 PUSH1 0x1 PUSH1 0x1 PUSH1 0xA0 SHL SUB AND CALLER EQ PUSH2 0x1657 JUMPI PUSH1 0x40 MLOAD PUSH3 0x461BCD PUSH1 0xE5 SHL DUP2 MSTORE PUSH1 0x4 ADD PUSH2 0x68F SWAP1 PUSH2 0x3590 JUMP JUMPDEST CALLER PUSH1 0x0 SWAP1 DUP2 MSTORE PUSH1 0x1B PUSH1 0x20 MSTORE PUSH1 0x40 SWAP1 KECCAK256 SLOAD PUSH1 0xFF DUP5 DUP2 AND SWAP2 AND EQ PUSH2 0x16BB JUMPI PUSH1 0x40 MLOAD PUSH3 0x461BCD PUSH1 0xE5 SHL DUP2 MSTORE PUSH1 0x20 PUSH1 0x4 DUP3 ADD MSTORE PUSH1 0x19 PUSH1 0x24 DUP3 ADD MSTORE PUSH32 0x4E6F742061206D656D626572206F66207468697320636C616E00000000000000 PUSH1 0x44 DUP3 ADD MSTORE PUSH1 0x64 ADD PUSH2 0x68F JUMP JUMPDEST PUSH1 0x21 SLOAD PUSH1 0x40 MLOAD PUSH4 0x31A9108F PUSH1 0xE1 SHL DUP2 MSTORE PUSH1 0x4 DUP2 ADD DUP5 SWAP1 MSTORE CALLER SWAP2 PUSH1 0x1 PUSH1 0x1 PUSH1 0xA0 SHL SUB AND SWAP1 PUSH4 0x6352211E SWAP1 PUSH1 0x24 ADD PUSH1 0x20 PUSH1 0x40 MLOAD DUP1 DUP4 SUB DUP2 DUP7 GAS STATICCALL ISZERO DUP1 ISZERO PUSH2 0x1704 JUMPI RETURNDATASIZE PUSH1 0x0 DUP1 RETURNDATACOPY RETURNDATASIZE PUSH1 0x0 REVERT JUMPDEST POP POP POP POP PUSH1 0x40 MLOAD RETURNDATASIZE PUSH1 0x1F NOT PUSH1 0x1F DUP3 ADD AND DUP3 ADD DUP1 PUSH1 0x40 MSTORE POP DUP2 ADD SWAP1 PUSH2 0x1728 SWAP2 SWAP1 PUSH2 0x31BE JUMP JUMPDEST PUSH1 0x1 PUSH1 0x1 PUSH1 0xA0 SHL SUB AND EQ PUSH2 0x1777 JUMPI PUSH1 0x40 MLOAD PUSH3 0x461BCD PUSH1 0xE5 SHL DUP2 MSTORE PUSH1 0x20 PUSH1 0x4 DUP3 ADD MSTORE PUSH1 0x16 PUSH1 0x24 DUP3 ADD MSTORE PUSH22 0x165BDD48191BDB89DD081BDDDB881D1A1A5CC8139195 PUSH1 0x52 SHL PUSH1 0x44 DUP3 ADD MSTORE PUSH1 0x64 ADD PUSH2 0x68F JUMP JUMPDEST PUSH1 0x21 SLOAD PUSH1 0x40 MLOAD PUSH4 0x2B5313D PUSH1 0xE2 SHL DUP2 MSTORE PUSH1 0x4 DUP2 ADD DUP5 SWAP1 MSTORE PUSH1 0x0 SWAP2 PUSH1 0x1 PUSH1 0x1 PUSH1 0xA0 SHL SUB AND SWAP1 PUSH4 0xAD4C4F4 SWAP1 PUSH1 0x24 ADD PUSH1 0x0 PUSH1 0x40 MLOAD DUP1 DUP4 SUB DUP2 DUP7 GAS STATICCALL ISZERO DUP1 ISZERO PUSH2 0x17C1 JUMPI RETURNDATASIZE PUSH1 0x0 DUP1 RETURNDATACOPY RETURNDATASIZE PUSH1 0x0 REVERT JUMPDEST POP POP POP POP PUSH1 0x40 MLOAD RETURNDATASIZE PUSH1 0x0 DUP3 RETURNDATACOPY PUSH1 0x1F RETURNDATASIZE SWAP1 DUP2 ADD PUSH1 0x1F NOT AND DUP3 ADD PUSH1 0x40 MSTORE PUSH2 0x17E9 SWAP2 SWAP1 DUP2 ADD SWAP1 PUSH2 0x3682 JUMP JUMPDEST POP SWAP10 POP POP POP POP POP POP POP POP POP POP DUP1 PUSH1 0x1 EQ PUSH2 0x1861 JUMPI PUSH1 0x40 MLOAD PUSH3 0x461BCD PUSH1 0xE5 SHL DUP2 MSTORE PUSH1 0x20 PUSH1 0x4 DUP3 ADD MSTORE PUSH1 0x33 PUSH1 0x24 DUP3 ADD MSTORE PUSH32 0x4F6E6C79204E4654732066726F6D20636F6C6C656374696F6E20494420312063 PUSH1 0x44 DUP3 ADD MSTORE PUSH19 0x616E206265207573656420617320666C616773 PUSH1 0x68 SHL PUSH1 0x64 DUP3 ADD MSTORE PUSH1 0x84 ADD PUSH2 0x68F JUMP JUMPDEST PUSH1 0x16 SLOAD PUSH1 0x40 MLOAD PUSH4 0x1C6331C1 PUSH1 0xE3 SHL DUP2 MSTORE CALLER PUSH1 0x4 DUP3 ADD MSTORE PUSH1 0x1 PUSH1 0x1 PUSH1 0xA0 SHL SUB SWAP1 SWAP2 AND SWAP1 PUSH4 0xE3198E08 SWAP1 PUSH1 0x24 ADD PUSH1 0x20 PUSH1 0x40 MLOAD DUP1 DUP4 SUB DUP2 DUP7 GAS STATICCALL ISZERO DUP1 ISZERO PUSH2 0x18A9 JUMPI RETURNDATASIZE PUSH1 0x0 DUP1 RETURNDATACOPY RETURNDATASIZE PUSH1 0x0 REVERT JUMPDEST POP POP POP POP PUSH1 0x40 MLOAD RETURNDATASIZE PUSH1 0x1F NOT PUSH1 0x1F DUP3 ADD AND DUP3 ADD DUP1 PUSH1 0x40 MSTORE POP DUP2 ADD SWAP1 PUSH2 0x18CD SWAP2 SWAP1 PUSH2 0x31DB JUMP JUMPDEST PUSH2 0x18E9 JUMPI PUSH1 0x40 MLOAD PUSH3 0x461BCD PUSH1 0xE5 SHL DUP2 MSTORE PUSH1 0x4 ADD PUSH2 0x68F SWAP1 PUSH2 0x3400 JUMP JUMPDEST PUSH1 0x15 SLOAD PUSH1 0x40 MLOAD PUSH4 0x23B872DD PUSH1 0xE0 SHL DUP2 MSTORE CALLER PUSH1 0x4 DUP3 ADD MSTORE ADDRESS PUSH1 0x24 DUP3 ADD MSTORE PUSH5 0x2540BE400 PUSH1 0x44 DUP3 ADD MSTORE PUSH1 0x1 PUSH1 0x1 PUSH1 0xA0 SHL SUB SWAP1 SWAP2 AND SWAP1 PUSH4 0x23B872DD SWAP1 PUSH1 0x64 ADD PUSH1 0x20 PUSH1 0x40 MLOAD DUP1 DUP4 SUB DUP2 PUSH1 0x0 DUP8 GAS CALL ISZERO DUP1 ISZERO PUSH2 0x1944 JUMPI RETURNDATASIZE PUSH1 0x0 DUP1 RETURNDATACOPY RETURNDATASIZE PUSH1 0x0 REVERT JUMPDEST POP POP POP POP PUSH1 0x40 MLOAD RETURNDATASIZE PUSH1 0x1F NOT PUSH1 0x1F DUP3 ADD AND DUP3 ADD DUP1 PUSH1 0x40 MSTORE POP DUP2 ADD SWAP1 PUSH2 0x1968 SWAP2 SWAP1 PUSH2 0x31DB JUMP JUMPDEST PUSH2 0x19AA JUMPI PUSH1 0x40 MLOAD PUSH3 0x461BCD PUSH1 0xE5 SHL DUP2 MSTORE PUSH1 0x20 PUSH1 0x4 DUP3 ADD MSTORE PUSH1 0x13 PUSH1 0x24 DUP3 ADD MSTORE PUSH19 0x1313D4081D1C985B9CD9995C8819985A5B1959 PUSH1 0x6A SHL PUSH1 0x44 DUP3 ADD MSTORE PUSH1 0x64 ADD PUSH2 0x68F JUMP JUMPDEST POP POP PUSH1 0xFF SWAP1 SWAP2 AND PUSH1 0x0 SWAP1 DUP2 MSTORE PUSH1 0x22 PUSH1 0x20 MSTORE PUSH1 0x40 SWAP1 KECCAK256 SSTORE JUMP JUMPDEST PUSH1 0x60 PUSH1 0x0 PUSH1 0x1 JUMPDEST PUSH1 0x19 SLOAD PUSH1 0xFF SWAP1 DUP2 AND SWAP1 DUP3 AND GT PUSH2 0x1A1D JUMPI PUSH1 0xFF DUP1 DUP3 AND PUSH1 0x0 SWAP1 DUP2 MSTORE PUSH1 0x1A PUSH1 0x20 MSTORE PUSH1 0x40 SWAP1 KECCAK256 PUSH1 0x1 ADD SLOAD PUSH1 0x1 PUSH1 0xA8 SHL SWAP1 DIV AND ISZERO PUSH2 0x1A0B JUMPI DUP2 PUSH2 0x1A07 DUP2 PUSH2 0x3577 JUMP JUMPDEST SWAP3 POP POP JUMPDEST DUP1 PUSH2 0x1A15 DUP2 PUSH2 0x344D JUMP JUMPDEST SWAP2 POP POP PUSH2 0x19C9 JUMP JUMPDEST POP PUSH1 0x0 DUP2 PUSH1 0x1 PUSH1 0x1 PUSH1 0x40 SHL SUB DUP2 GT ISZERO PUSH2 0x1A38 JUMPI PUSH2 0x1A38 PUSH2 0x31FD JUMP JUMPDEST PUSH1 0x40 MLOAD SWAP1 DUP1 DUP3 MSTORE DUP1 PUSH1 0x20 MUL PUSH1 0x20 ADD DUP3 ADD PUSH1 0x40 MSTORE DUP1 ISZERO PUSH2 0x1A8B JUMPI DUP2 PUSH1 0x20 ADD JUMPDEST PUSH1 0x40 DUP1 MLOAD PUSH1 0x80 DUP2 ADD DUP3 MSTORE PUSH1 0x60 DUP1 DUP3 MSTORE PUSH1 0x0 PUSH1 0x20 DUP1 DUP5 ADD DUP3 SWAP1 MSTORE SWAP4 DUP4 ADD DUP2 SWAP1 MSTORE SWAP1 DUP3 ADD MSTORE DUP3 MSTORE PUSH1 0x0 NOT SWAP1 SWAP3 ADD SWAP2 ADD DUP2 PUSH2 0x1A56 JUMPI SWAP1 POP JUMPDEST POP SWAP1 POP PUSH1 0x0 PUSH1 0x1 JUMPDEST PUSH1 0x19 SLOAD PUSH1 0xFF SWAP1 DUP2 AND SWAP1 DUP3 AND GT PUSH2 0x115B JUMPI PUSH1 0xFF DUP1 DUP3 AND PUSH1 0x0 SWAP1 DUP2 MSTORE PUSH1 0x1A PUSH1 0x20 MSTORE PUSH1 0x40 SWAP1 KECCAK256 PUSH1 0x1 ADD SLOAD PUSH1 0x1 PUSH1 0xA8 SHL SWAP1 DIV AND ISZERO PUSH2 0x1BD9 JUMPI PUSH1 0xFF DUP2 AND PUSH1 0x0 SWAP1 DUP2 MSTORE PUSH1 0x1A PUSH1 0x20 MSTORE PUSH1 0x40 SWAP1 DUP2 SWAP1 KECCAK256 DUP2 MLOAD PUSH1 0x80 DUP2 ADD SWAP1 SWAP3 MSTORE DUP1 SLOAD DUP3 SWAP1 DUP3 SWAP1 PUSH2 0x1AF3 SWAP1 PUSH2 0x3213 JUMP JUMPDEST DUP1 PUSH1 0x1F ADD PUSH1 0x20 DUP1 SWAP2 DIV MUL PUSH1 0x20 ADD PUSH1 0x40 MLOAD SWAP1 DUP2 ADD PUSH1 0x40 MSTORE DUP1 SWAP3 SWAP2 SWAP1 DUP2 DUP2 MSTORE PUSH1 0x20 ADD DUP3 DUP1 SLOAD PUSH2 0x1B1F SWAP1 PUSH2 0x3213 JUMP JUMPDEST DUP1 ISZERO PUSH2 0x1B6C JUMPI DUP1 PUSH1 0x1F LT PUSH2 0x1B41 JUMPI PUSH2 0x100 DUP1 DUP4 SLOAD DIV MUL DUP4 MSTORE SWAP2 PUSH1 0x20 ADD SWAP2 PUSH2 0x1B6C JUMP JUMPDEST DUP3 ADD SWAP2 SWAP1 PUSH1 0x0 MSTORE PUSH1 0x20 PUSH1 0x0 KECCAK256 SWAP1 JUMPDEST DUP2 SLOAD DUP2 MSTORE SWAP1 PUSH1 0x1 ADD SWAP1 PUSH1 0x20 ADD DUP1 DUP4 GT PUSH2 0x1B4F JUMPI DUP3 SWAP1 SUB PUSH1 0x1F AND DUP3 ADD SWAP2 JUMPDEST POP POP POP SWAP2 DUP4 MSTORE POP POP PUSH1 0x1 SWAP2 SWAP1 SWAP2 ADD SLOAD PUSH1 0x1 PUSH1 0x1 PUSH1 0xA0 SHL SUB DUP2 AND PUSH1 0x20 DUP4 ADD MSTORE PUSH1 0xFF PUSH1 0x1 PUSH1 0xA0 SHL DUP3 DIV DUP2 AND PUSH1 0x40 DUP5 ADD MSTORE PUSH1 0x1 PUSH1 0xA8 SHL SWAP1 SWAP2 DIV AND ISZERO ISZERO PUSH1 0x60 SWAP1 SWAP2 ADD MSTORE DUP4 MLOAD DUP5 SWAP1 DUP5 SWAP1 DUP2 LT PUSH2 0x1BBF JUMPI PUSH2 0x1BBF PUSH2 0x3561 JUMP JUMPDEST PUSH1 0x20 MUL PUSH1 0x20 ADD ADD DUP2 SWAP1 MSTORE POP DUP2 DUP1 PUSH2 0x1BD5 SWAP1 PUSH2 0x3577 JUMP JUMPDEST SWAP3 POP POP JUMPDEST DUP1 PUSH2 0x1BE3 DUP2 PUSH2 0x344D JUMP JUMPDEST SWAP2 POP POP PUSH2 0x1A93 JUMP JUMPDEST PUSH1 0xFF DUP1 DUP3 AND PUSH1 0x0 SWAP1 DUP2 MSTORE PUSH1 0x1A PUSH1 0x20 MSTORE PUSH1 0x40 DUP2 KECCAK256 PUSH1 0x1 ADD SLOAD SWAP1 SWAP2 PUSH1 0x1 PUSH1 0xA8 SHL SWAP1 SWAP2 DIV AND PUSH2 0x1C29 JUMPI PUSH1 0x40 MLOAD PUSH3 0x461BCD PUSH1 0xE5 SHL DUP2 MSTORE PUSH1 0x4 ADD PUSH2 0x68F SWAP1 PUSH2 0x35D8 JUMP JUMPDEST POP PUSH1 0xFF SWAP1 DUP2 AND PUSH1 0x0 SWAP1 DUP2 MSTORE PUSH1 0x1A PUSH1 0x20 MSTORE PUSH1 0x40 SWAP1 KECCAK256 PUSH1 0x1 ADD SLOAD PUSH1 0x1 PUSH1 0xA0 SHL SWAP1 DIV AND SWAP1 JUMP JUMPDEST CALLER PUSH1 0x0 SWAP1 DUP2 MSTORE PUSH1 0x1B PUSH1 0x20 MSTORE PUSH1 0x40 SWAP1 KECCAK256 SLOAD PUSH2 0x100 SWAP1 DIV PUSH1 0xFF AND PUSH2 0x1CA8 JUMPI PUSH1 0x40 MLOAD PUSH3 0x461BCD PUSH1 0xE5 SHL DUP2 MSTORE PUSH1 0x20 PUSH1 0x4 DUP3 ADD MSTORE PUSH1 0x15 PUSH1 0x24 DUP3 ADD MSTORE PUSH21 0x2CB7BA9030B932903737BA1034B710309031B630B7 PUSH1 0x59 SHL PUSH1 0x44 DUP3 ADD MSTORE PUSH1 0x64 ADD PUSH2 0x68F JUMP JUMPDEST CALLER PUSH1 0x0 SWAP1 DUP2 MSTORE PUSH1 0x1B PUSH1 0x20 SWAP1 DUP2 MSTORE PUSH1 0x40 DUP1 DUP4 KECCAK256 SLOAD PUSH1 0xFF SWAP1 DUP2 AND DUP1 DUP6 MSTORE PUSH1 0x1A SWAP1 SWAP4 MSTORE SWAP3 KECCAK256 PUSH1 0x1 ADD SLOAD SWAP1 SWAP2 PUSH1 0x1 PUSH1 0xA8 SHL SWAP1 SWAP2 DIV AND PUSH2 0x1CF5 JUMPI PUSH1 0x40 MLOAD PUSH3 0x461BCD PUSH1 0xE5 SHL DUP2 MSTORE PUSH1 0x4 ADD PUSH2 0x68F SWAP1 PUSH2 0x35D8 JUMP JUMPDEST PUSH1 0xFF DUP2 AND PUSH1 0x0 SWAP1 DUP2 MSTORE PUSH1 0x1A PUSH1 0x20 MSTORE PUSH1 0x40 SWAP1 KECCAK256 PUSH1 0x1 ADD SLOAD CALLER PUSH1 0x1 PUSH1 0x1 PUSH1 0xA0 SHL SUB SWAP1 SWAP2 AND SUB PUSH2 0x1D8A JUMPI PUSH1 0x40 MLOAD PUSH3 0x461BCD PUSH1 0xE5 SHL DUP2 MSTORE PUSH1 0x20 PUSH1 0x4 DUP3 ADD MSTORE PUSH1 0x3B PUSH1 0x24 DUP3 ADD MSTORE PUSH32 0x436C616E206C65616465722063616E6E6F74206C656176652074686520636C61 PUSH1 0x44 DUP3 ADD MSTORE PUSH32 0x6E2E205573652064697362616E64436C616E20696E73746561642E0000000000 PUSH1 0x64 DUP3 ADD MSTORE PUSH1 0x84 ADD PUSH2 0x68F JUMP JUMPDEST CALLER PUSH1 0x0 SWAP1 DUP2 MSTORE PUSH1 0x1B PUSH1 0x20 SWAP1 DUP2 MSTORE PUSH1 0x40 DUP1 DUP4 KECCAK256 DUP1 SLOAD PUSH2 0xFF00 NOT AND SWAP1 SSTORE PUSH1 0xFF DUP5 DUP2 AND DUP5 MSTORE PUSH1 0x1A SWAP1 SWAP3 MSTORE SWAP1 SWAP2 KECCAK256 PUSH1 0x1 ADD DUP1 SLOAD PUSH1 0x1 PUSH1 0xA0 SHL SWAP1 DIV SWAP1 SWAP2 AND SWAP1 PUSH1 0x14 PUSH2 0x1DCF DUP4 PUSH2 0x37CE JUMP JUMPDEST SWAP2 SWAP1 PUSH2 0x100 EXP DUP2 SLOAD DUP2 PUSH1 0xFF MUL NOT AND SWAP1 DUP4 PUSH1 0xFF AND MUL OR SWAP1 SSTORE POP POP PUSH1 0x0 JUMPDEST PUSH1 0xFF DUP3 AND PUSH1 0x0 SWAP1 DUP2 MSTORE PUSH1 0x1C PUSH1 0x20 MSTORE PUSH1 0x40 SWAP1 KECCAK256 SLOAD DUP2 LT ISZERO PUSH2 0x1F36 JUMPI PUSH1 0xFF DUP3 AND PUSH1 0x0 SWAP1 DUP2 MSTORE PUSH1 0x1C PUSH1 0x20 MSTORE PUSH1 0x40 SWAP1 KECCAK256 DUP1 SLOAD CALLER SWAP2 SWAP1 DUP4 SWAP1 DUP2 LT PUSH2 0x1E2C JUMPI PUSH2 0x1E2C PUSH2 0x3561 JUMP JUMPDEST PUSH1 0x0 SWAP2 DUP3 MSTORE PUSH1 0x20 SWAP1 SWAP2 KECCAK256 ADD SLOAD PUSH1 0x1 PUSH1 0x1 PUSH1 0xA0 SHL SUB AND SUB PUSH2 0x1F24 JUMPI PUSH1 0xFF DUP3 AND PUSH1 0x0 SWAP1 DUP2 MSTORE PUSH1 0x1C PUSH1 0x20 MSTORE PUSH1 0x40 SWAP1 KECCAK256 DUP1 SLOAD PUSH2 0x1E66 SWAP1 PUSH1 0x1 SWAP1 PUSH2 0x37EB JUMP JUMPDEST DUP2 SLOAD DUP2 LT PUSH2 0x1E76 JUMPI PUSH2 0x1E76 PUSH2 0x3561 JUMP JUMPDEST PUSH1 0x0 SWAP2 DUP3 MSTORE PUSH1 0x20 DUP1 DUP4 KECCAK256 SWAP1 SWAP2 ADD SLOAD PUSH1 0xFF DUP6 AND DUP4 MSTORE PUSH1 0x1C SWAP1 SWAP2 MSTORE PUSH1 0x40 SWAP1 SWAP2 KECCAK256 DUP1 SLOAD PUSH1 0x1 PUSH1 0x1 PUSH1 0xA0 SHL SUB SWAP1 SWAP3 AND SWAP2 DUP4 SWAP1 DUP2 LT PUSH2 0x1EB2 JUMPI PUSH2 0x1EB2 PUSH2 0x3561 JUMP JUMPDEST PUSH1 0x0 SWAP2 DUP3 MSTORE PUSH1 0x20 DUP1 DUP4 KECCAK256 SWAP2 SWAP1 SWAP2 ADD DUP1 SLOAD PUSH1 0x1 PUSH1 0x1 PUSH1 0xA0 SHL SUB NOT AND PUSH1 0x1 PUSH1 0x1 PUSH1 0xA0 SHL SUB SWAP5 SWAP1 SWAP5 AND SWAP4 SWAP1 SWAP4 OR SWAP1 SWAP3 SSTORE PUSH1 0xFF DUP5 AND DUP2 MSTORE PUSH1 0x1C SWAP1 SWAP2 MSTORE PUSH1 0x40 SWAP1 KECCAK256 DUP1 SLOAD DUP1 PUSH2 0x1EFD JUMPI PUSH2 0x1EFD PUSH2 0x37FE JUMP JUMPDEST PUSH1 0x0 DUP3 DUP2 MSTORE PUSH1 0x20 SWAP1 KECCAK256 DUP2 ADD PUSH1 0x0 NOT SWAP1 DUP2 ADD DUP1 SLOAD PUSH1 0x1 PUSH1 0x1 PUSH1 0xA0 SHL SUB NOT AND SWAP1 SSTORE ADD SWAP1 SSTORE PUSH2 0x1F36 JUMP JUMPDEST DUP1 PUSH2 0x1F2E DUP2 PUSH2 0x3577 JUMP JUMPDEST SWAP2 POP POP PUSH2 0x1DEB JUMP JUMPDEST POP PUSH1 0x0 DUP1 PUSH2 0x1F43 CALLER PUSH2 0x2A33 JUMP JUMPDEST PUSH1 0xFF DUP3 DUP2 AND PUSH1 0x0 SWAP1 DUP2 MSTORE PUSH1 0x20 DUP1 DUP1 MSTORE PUSH1 0x40 DUP1 DUP4 KECCAK256 DUP6 DUP6 AND DUP5 MSTORE DUP3 MSTORE SWAP2 DUP3 SWAP1 KECCAK256 DUP1 SLOAD PUSH1 0xFF NOT AND SWAP1 SSTORE DUP2 MLOAD SWAP3 DUP9 AND DUP4 MSTORE CALLER SWAP1 DUP4 ADD MSTORE SWAP3 SWAP5 POP SWAP1 SWAP3 POP PUSH32 0x45C35F53284761DC1375DA434DFC7EC6A908FD346CB7EF4B10B8A75D6CB83752 SWAP2 ADD PUSH2 0x156F JUMP JUMPDEST PUSH2 0x1FAD CALLER PUSH2 0x2984 JUMP JUMPDEST PUSH2 0x1FC9 JUMPI PUSH1 0x40 MLOAD PUSH3 0x461BCD PUSH1 0xE5 SHL DUP2 MSTORE PUSH1 0x4 ADD PUSH2 0x68F SWAP1 PUSH2 0x33B4 JUMP JUMPDEST CALLER PUSH1 0x0 SWAP1 DUP2 MSTORE PUSH1 0x1D PUSH1 0x20 MSTORE PUSH1 0x40 SWAP1 KECCAK256 SLOAD PUSH1 0xFF AND DUP1 PUSH2 0x2029 JUMPI PUSH1 0x40 MLOAD PUSH3 0x461BCD PUSH1 0xE5 SHL DUP2 MSTORE PUSH1 0x20 PUSH1 0x4 DUP3 ADD MSTORE PUSH1 0x17 PUSH1 0x24 DUP3 ADD MSTORE PUSH32 0x4E6F2070656E64696E6720696E7669746520666F756E64000000000000000000 PUSH1 0x44 DUP3 ADD MSTORE PUSH1 0x64 ADD PUSH2 0x68F JUMP JUMPDEST CALLER PUSH1 0x0 SWAP1 DUP2 MSTORE PUSH1 0x1B PUSH1 0x20 MSTORE PUSH1 0x40 SWAP1 KECCAK256 SLOAD PUSH2 0x100 SWAP1 DIV PUSH1 0xFF AND ISZERO PUSH2 0x2082 JUMPI PUSH1 0x40 MLOAD PUSH3 0x461BCD PUSH1 0xE5 SHL DUP2 MSTORE PUSH1 0x20 PUSH1 0x4 DUP3 ADD MSTORE PUSH1 0x11 PUSH1 0x24 DUP3 ADD MSTORE PUSH17 0x20B63932B0B23C9034B710309031B630B7 PUSH1 0x79 SHL PUSH1 0x44 DUP3 ADD MSTORE PUSH1 0x64 ADD PUSH2 0x68F JUMP JUMPDEST PUSH1 0xFF DUP2 DUP2 AND PUSH1 0x0 SWAP1 DUP2 MSTORE PUSH1 0x1A PUSH1 0x20 MSTORE PUSH1 0x40 SWAP1 KECCAK256 PUSH1 0x1 ADD SLOAD PUSH1 0x1E PUSH1 0x1 PUSH1 0xA0 SHL SWAP1 SWAP2 DIV SWAP1 SWAP2 AND LT PUSH2 0x20C5 JUMPI POP CALLER PUSH1 0x0 SWAP1 DUP2 MSTORE PUSH1 0x1D PUSH1 0x20 MSTORE PUSH1 0x40 SWAP1 KECCAK256 DUP1 SLOAD PUSH1 0xFF NOT AND SWAP1 SSTORE JUMP JUMPDEST PUSH1 0x40 DUP1 MLOAD DUP1 DUP3 ADD DUP3 MSTORE PUSH1 0xFF DUP1 DUP5 AND DUP1 DUP4 MSTORE PUSH1 0x1 PUSH1 0x20 DUP1 DUP6 ADD DUP3 DUP2 MSTORE CALLER PUSH1 0x0 DUP2 DUP2 MSTORE PUSH1 0x1B DUP5 MSTORE DUP9 DUP2 KECCAK256 SWAP8 MLOAD DUP9 SLOAD SWAP4 MLOAD ISZERO ISZERO PUSH2 0x100 MUL PUSH2 0xFFFF NOT SWAP1 SWAP5 AND SWAP1 DUP9 AND OR SWAP3 SWAP1 SWAP3 OR SWAP1 SWAP7 SSTORE DUP4 DUP2 MSTORE PUSH1 0x1C DUP3 MSTORE DUP7 DUP2 KECCAK256 DUP1 SLOAD DUP1 DUP6 ADD DUP3 SSTORE SWAP1 DUP3 MSTORE DUP3 DUP3 KECCAK256 ADD DUP1 SLOAD PUSH1 0x1 PUSH1 0x1 PUSH1 0xA0 SHL SUB NOT AND SWAP1 SWAP7 OR SWAP1 SWAP6 SSTORE SWAP2 DUP5 MSTORE PUSH1 0x1A SWAP1 SWAP2 MSTORE SWAP3 SWAP1 SWAP2 KECCAK256 SWAP1 SWAP2 ADD DUP1 SLOAD PUSH1 0x1 PUSH1 0xA0 SHL SWAP1 DIV SWAP1 SWAP2 AND SWAP1 PUSH1 0x14 PUSH2 0x215C DUP4 PUSH2 0x344D JUMP JUMPDEST SWAP2 SWAP1 PUSH2 0x100 EXP DUP2 SLOAD DUP2 PUSH1 0xFF MUL NOT AND SWAP1 DUP4 PUSH1 0xFF AND MUL OR SWAP1 SSTORE POP POP PUSH1 0x0 DUP1 PUSH2 0x2181 CALLER PUSH2 0x2A33 JUMP JUMPDEST PUSH1 0xFF DUP3 DUP2 AND PUSH1 0x0 SWAP1 DUP2 MSTORE PUSH1 0x20 DUP1 DUP1 MSTORE PUSH1 0x40 DUP1 DUP4 KECCAK256 DUP6 DUP6 AND DUP5 MSTORE DUP3 MSTORE DUP1 DUP4 KECCAK256 DUP1 SLOAD PUSH1 0xFF NOT SWAP1 DUP2 AND SWAP6 DUP12 AND SWAP6 DUP7 OR SWAP1 SWAP2 SSTORE CALLER DUP1 DUP6 MSTORE PUSH1 0x1D DUP5 MSTORE SWAP4 DUP3 SWAP1 KECCAK256 DUP1 SLOAD SWAP1 SWAP2 AND SWAP1 SSTORE DUP1 MLOAD SWAP4 DUP5 MSTORE SWAP1 DUP4 ADD SWAP2 SWAP1 SWAP2 MSTORE SWAP3 SWAP5 POP SWAP1 SWAP3 POP PUSH32 0xC5E51B833A5E5ECFBBCB0D5586D2B0AB450B38D9B32D440CB37F37CC30DE6874 SWAP2 ADD PUSH2 0x156F JUMP JUMPDEST PUSH1 0x0 DUP3 PUSH1 0x14 DUP2 LT PUSH2 0x220D JUMPI PUSH1 0x0 DUP1 REVERT JUMPDEST ADD DUP2 PUSH1 0x14 DUP2 LT PUSH2 0x221C JUMPI PUSH1 0x0 DUP1 REVERT JUMPDEST PUSH1 0x20 DUP2 DIV SWAP1 SWAP2 ADD SLOAD PUSH1 0xFF PUSH1 0x1F SWAP1 SWAP3 AND PUSH2 0x100 EXP SWAP1 DIV AND SWAP2 POP DUP3 SWAP1 POP JUMP JUMPDEST PUSH1 0xFF DUP2 AND PUSH1 0x0 SWAP1 DUP2 MSTORE PUSH1 0x1A PUSH1 0x20 MSTORE PUSH1 0x40 SWAP1 KECCAK256 PUSH1 0x1 ADD SLOAD DUP2 SWAP1 PUSH1 0x1 PUSH1 0x1 PUSH1 0xA0 SHL SUB AND CALLER EQ PUSH2 0x2278 JUMPI PUSH1 0x40 MLOAD PUSH3 0x461BCD PUSH1 0xE5 SHL DUP2 MSTORE PUSH1 0x4 ADD PUSH2 0x68F SWAP1 PUSH2 0x3590 JUMP JUMPDEST PUSH1 0xFF DUP1 DUP4 AND PUSH1 0x0 SWAP1 DUP2 MSTORE PUSH1 0x1A PUSH1 0x20 MSTORE PUSH1 0x40 SWAP1 KECCAK256 PUSH1 0x1 ADD SLOAD PUSH1 0x1 PUSH1 0xA8 SHL SWAP1 DIV AND PUSH2 0x22B3 JUMPI PUSH1 0x40 MLOAD PUSH3 0x461BCD PUSH1 0xE5 SHL DUP2 MSTORE PUSH1 0x4 ADD PUSH2 0x68F SWAP1 PUSH2 0x35D8 JUMP JUMPDEST PUSH1 0x16 SLOAD PUSH1 0x40 MLOAD PUSH4 0x1C6331C1 PUSH1 0xE3 SHL DUP2 MSTORE CALLER PUSH1 0x4 DUP3 ADD MSTORE PUSH1 0x1 PUSH1 0x1 PUSH1 0xA0 SHL SUB SWAP1 SWAP2 AND SWAP1 PUSH4 0xE3198E08 SWAP1 PUSH1 0x24 ADD PUSH1 0x20 PUSH1 0x40 MLOAD DUP1 DUP4 SUB DUP2 DUP7 GAS STATICCALL ISZERO DUP1 ISZERO PUSH2 0x22FB JUMPI RETURNDATASIZE PUSH1 0x0 DUP1 RETURNDATACOPY RETURNDATASIZE PUSH1 0x0 REVERT JUMPDEST POP POP POP POP PUSH1 0x40 MLOAD RETURNDATASIZE PUSH1 0x1F NOT PUSH1 0x1F DUP3 ADD AND DUP3 ADD DUP1 PUSH1 0x40 MSTORE POP DUP2 ADD SWAP1 PUSH2 0x231F SWAP2 SWAP1 PUSH2 0x31DB JUMP JUMPDEST PUSH2 0x233B JUMPI PUSH1 0x40 MLOAD PUSH3 0x461BCD PUSH1 0xE5 SHL DUP2 MSTORE PUSH1 0x4 ADD PUSH2 0x68F SWAP1 PUSH2 0x3400 JUMP JUMPDEST PUSH1 0x0 JUMPDEST PUSH1 0xFF DUP4 AND PUSH1 0x0 SWAP1 DUP2 MSTORE PUSH1 0x1C PUSH1 0x20 MSTORE PUSH1 0x40 SWAP1 KECCAK256 SLOAD DUP2 LT ISZERO PUSH2 0x23F2 JUMPI PUSH1 0xFF DUP4 AND PUSH1 0x0 SWAP1 DUP2 MSTORE PUSH1 0x1C PUSH1 0x20 MSTORE PUSH1 0x40 DUP2 KECCAK256 DUP1 SLOAD DUP4 SWAP1 DUP2 LT PUSH2 0x237C JUMPI PUSH2 0x237C PUSH2 0x3561 JUMP JUMPDEST PUSH1 0x0 SWAP2 DUP3 MSTORE PUSH1 0x20 DUP1 DUP4 KECCAK256 SWAP1 SWAP2 ADD SLOAD PUSH1 0x1 PUSH1 0x1 PUSH1 0xA0 SHL SUB AND DUP1 DUP4 MSTORE PUSH1 0x1B SWAP1 SWAP2 MSTORE PUSH1 0x40 DUP3 KECCAK256 DUP1 SLOAD PUSH2 0xFF00 NOT AND SWAP1 SSTORE SWAP2 POP DUP1 PUSH2 0x23B4 DUP4 PUSH2 0x2A33 JUMP JUMPDEST PUSH1 0xFF SWAP2 DUP3 AND PUSH1 0x0 SWAP1 DUP2 MSTORE PUSH1 0x20 DUP1 DUP1 MSTORE PUSH1 0x40 DUP1 DUP4 KECCAK256 SWAP4 SWAP1 SWAP5 AND DUP3 MSTORE SWAP2 SWAP1 SWAP2 MSTORE KECCAK256 DUP1 SLOAD PUSH1 0xFF NOT AND SWAP1 SSTORE POP DUP3 SWAP2 POP PUSH2 0x23EA SWAP1 POP DUP2 PUSH2 0x3577 JUMP JUMPDEST SWAP2 POP POP PUSH2 0x233E JUMP JUMPDEST POP PUSH1 0xFF DUP3 AND PUSH1 0x0 SWAP1 DUP2 MSTORE PUSH1 0x18 PUSH1 0x20 MSTORE PUSH1 0x40 SWAP1 KECCAK256 SLOAD DUP1 ISZERO PUSH2 0x2434 JUMPI PUSH1 0x0 DUP2 DUP2 MSTORE PUSH1 0x17 PUSH1 0x20 SWAP1 DUP2 MSTORE PUSH1 0x40 DUP1 DUP4 KECCAK256 DUP1 SLOAD PUSH1 0xFF NOT AND SWAP1 SSTORE PUSH1 0xFF DUP7 AND DUP4 MSTORE PUSH1 0x18 SWAP1 SWAP2 MSTORE DUP2 KECCAK256 SSTORE JUMPDEST PUSH1 0xFF DUP4 AND PUSH1 0x0 SWAP1 DUP2 MSTORE PUSH1 0x1C PUSH1 0x20 MSTORE PUSH1 0x40 DUP2 KECCAK256 PUSH2 0x244F SWAP2 PUSH2 0x2D04 JUMP JUMPDEST PUSH1 0xFF DUP4 AND PUSH1 0x0 SWAP1 DUP2 MSTORE PUSH1 0x1A PUSH1 0x20 MSTORE PUSH1 0x40 DUP2 KECCAK256 SWAP1 PUSH2 0x246C DUP3 DUP3 PUSH2 0x2D25 JUMP JUMPDEST POP PUSH1 0x1 ADD DUP1 SLOAD PUSH1 0x1 PUSH1 0x1 PUSH1 0xB0 SHL SUB NOT AND SWAP1 SSTORE PUSH1 0x40 DUP1 MLOAD PUSH1 0xFF DUP6 AND DUP2 MSTORE CALLER PUSH1 0x20 DUP3 ADD MSTORE PUSH32 0xF010A46A390DEAAAB5CC4BD6BD1242CCC401C860A7B758C8A71C6EA769287D34 SWAP2 ADD PUSH2 0x156F JUMP JUMPDEST PUSH1 0xFF DUP3 AND PUSH1 0x0 SWAP1 DUP2 MSTORE PUSH1 0x1A PUSH1 0x20 MSTORE PUSH1 0x40 SWAP1 KECCAK256 PUSH1 0x1 ADD SLOAD DUP3 SWAP1 PUSH1 0x1 PUSH1 0x1 PUSH1 0xA0 SHL SUB AND CALLER EQ PUSH2 0x24F5 JUMPI PUSH1 0x40 MLOAD PUSH3 0x461BCD PUSH1 0xE5 SHL DUP2 MSTORE PUSH1 0x4 ADD PUSH2 0x68F SWAP1 PUSH2 0x3590 JUMP JUMPDEST PUSH1 0x1 PUSH1 0x1 PUSH1 0xA0 SHL SUB DUP3 AND PUSH1 0x0 SWAP1 DUP2 MSTORE PUSH1 0x1B PUSH1 0x20 MSTORE PUSH1 0x40 SWAP1 KECCAK256 SLOAD PUSH1 0xFF DUP5 DUP2 AND SWAP2 AND EQ PUSH2 0x2562 JUMPI PUSH1 0x40 MLOAD PUSH3 0x461BCD PUSH1 0xE5 SHL DUP2 MSTORE PUSH1 0x20 PUSH1 0x4 DUP3 ADD MSTORE PUSH1 0x1A PUSH1 0x24 DUP3 ADD MSTORE PUSH32 0x4D656D626572206973206E6F7420696E207468697320636C616E000000000000 PUSH1 0x44 DUP3 ADD MSTORE PUSH1 0x64 ADD PUSH2 0x68F JUMP JUMPDEST PUSH1 0x16 SLOAD PUSH1 0x40 MLOAD PUSH4 0x1C6331C1 PUSH1 0xE3 SHL DUP2 MSTORE CALLER PUSH1 0x4 DUP3 ADD MSTORE PUSH1 0x1 PUSH1 0x1 PUSH1 0xA0 SHL SUB SWAP1 SWAP2 AND SWAP1 PUSH4 0xE3198E08 SWAP1 PUSH1 0x24 ADD PUSH1 0x20 PUSH1 0x40 MLOAD DUP1 DUP4 SUB DUP2 DUP7 GAS STATICCALL ISZERO DUP1 ISZERO PUSH2 0x25AA JUMPI RETURNDATASIZE PUSH1 0x0 DUP1 RETURNDATACOPY RETURNDATASIZE PUSH1 0x0 REVERT JUMPDEST POP POP POP POP PUSH1 0x40 MLOAD RETURNDATASIZE PUSH1 0x1F NOT PUSH1 0x1F DUP3 ADD AND DUP3 ADD DUP1 PUSH1 0x40 MSTORE POP DUP2 ADD SWAP1 PUSH2 0x25CE SWAP2 SWAP1 PUSH2 0x31DB JUMP JUMPDEST PUSH2 0x25EA JUMPI PUSH1 0x40 MLOAD PUSH3 0x461BCD PUSH1 0xE5 SHL DUP2 MSTORE PUSH1 0x4 ADD PUSH2 0x68F SWAP1 PUSH2 0x3400 JUMP JUMPDEST PUSH1 0x1 PUSH1 0x1 PUSH1 0xA0 SHL SUB DUP3 AND PUSH1 0x0 SWAP1 DUP2 MSTORE PUSH1 0x1B PUSH1 0x20 SWAP1 DUP2 MSTORE PUSH1 0x40 DUP1 DUP4 KECCAK256 DUP1 SLOAD PUSH2 0xFF00 NOT AND SWAP1 SSTORE PUSH1 0xFF DUP7 DUP2 AND DUP5 MSTORE PUSH1 0x1A SWAP1 SWAP3 MSTORE SWAP1 SWAP2 KECCAK256 PUSH1 0x1 ADD DUP1 SLOAD PUSH1 0x1 PUSH1 0xA0 SHL SWAP1 DIV SWAP1 SWAP2 AND SWAP1 PUSH1 0x14 PUSH2 0x2638 DUP4 PUSH2 0x37CE JUMP JUMPDEST SWAP2 SWAP1 PUSH2 0x100 EXP DUP2 SLOAD DUP2 PUSH1 0xFF MUL NOT AND SWAP1 DUP4 PUSH1 0xFF AND MUL OR SWAP1 SSTORE POP POP PUSH1 0x0 JUMPDEST PUSH1 0xFF DUP5 AND PUSH1 0x0 SWAP1 DUP2 MSTORE PUSH1 0x1C PUSH1 0x20 MSTORE PUSH1 0x40 SWAP1 KECCAK256 SLOAD DUP2 LT ISZERO PUSH2 0x27A8 JUMPI PUSH1 0xFF DUP5 AND PUSH1 0x0 SWAP1 DUP2 MSTORE PUSH1 0x1C PUSH1 0x20 MSTORE PUSH1 0x40 SWAP1 KECCAK256 DUP1 SLOAD PUSH1 0x1 PUSH1 0x1 PUSH1 0xA0 SHL SUB DUP6 AND SWAP2 SWAP1 DUP4 SWAP1 DUP2 LT PUSH2 0x269E JUMPI PUSH2 0x269E PUSH2 0x3561 JUMP JUMPDEST PUSH1 0x0 SWAP2 DUP3 MSTORE PUSH1 0x20 SWAP1 SWAP2 KECCAK256 ADD SLOAD PUSH1 0x1 PUSH1 0x1 PUSH1 0xA0 SHL SUB AND SUB PUSH2 0x2796 JUMPI PUSH1 0xFF DUP5 AND PUSH1 0x0 SWAP1 DUP2 MSTORE PUSH1 0x1C PUSH1 0x20 MSTORE PUSH1 0x40 SWAP1 KECCAK256 DUP1 SLOAD PUSH2 0x26D8 SWAP1 PUSH1 0x1 SWAP1 PUSH2 0x37EB JUMP JUMPDEST DUP2 SLOAD DUP2 LT PUSH2 0x26E8 JUMPI PUSH2 0x26E8 PUSH2 0x3561 JUMP JUMPDEST PUSH1 0x0 SWAP2 DUP3 MSTORE PUSH1 0x20 DUP1 DUP4 KECCAK256 SWAP1 SWAP2 ADD SLOAD PUSH1 0xFF DUP8 AND DUP4 MSTORE PUSH1 0x1C SWAP1 SWAP2 MSTORE PUSH1 0x40 SWAP1 SWAP2 KECCAK256 DUP1 SLOAD PUSH1 0x1 PUSH1 0x1 PUSH1 0xA0 SHL SUB SWAP1 SWAP3 AND SWAP2 DUP4 SWAP1 DUP2 LT PUSH2 0x2724 JUMPI PUSH2 0x2724 PUSH2 0x3561 JUMP JUMPDEST PUSH1 0x0 SWAP2 DUP3 MSTORE PUSH1 0x20 DUP1 DUP4 KECCAK256 SWAP2 SWAP1 SWAP2 ADD DUP1 SLOAD PUSH1 0x1 PUSH1 0x1 PUSH1 0xA0 SHL SUB NOT AND PUSH1 0x1 PUSH1 0x1 PUSH1 0xA0 SHL SUB SWAP5 SWAP1 SWAP5 AND SWAP4 SWAP1 SWAP4 OR SWAP1 SWAP3 SSTORE PUSH1 0xFF DUP7 AND DUP2 MSTORE PUSH1 0x1C SWAP1 SWAP2 MSTORE PUSH1 0x40 SWAP1 KECCAK256 DUP1 SLOAD DUP1 PUSH2 0x276F JUMPI PUSH2 0x276F PUSH2 0x37FE JUMP JUMPDEST PUSH1 0x0 DUP3 DUP2 MSTORE PUSH1 0x20 SWAP1 KECCAK256 DUP2 ADD PUSH1 0x0 NOT SWAP1 DUP2 ADD DUP1 SLOAD PUSH1 0x1 PUSH1 0x1 PUSH1 0xA0 SHL SUB NOT AND SWAP1 SSTORE ADD SWAP1 SSTORE PUSH2 0x27A8 JUMP JUMPDEST DUP1 PUSH2 0x27A0 DUP2 PUSH2 0x3577 JUMP JUMPDEST SWAP2 POP POP PUSH2 0x2654 JUMP JUMPDEST POP PUSH1 0x0 DUP1 PUSH2 0x27B5 DUP5 PUSH2 0x2A33 JUMP JUMPDEST PUSH1 0xFF DUP3 DUP2 AND PUSH1 0x0 SWAP1 DUP2 MSTORE PUSH1 0x20 DUP1 DUP1 MSTORE PUSH1 0x40 DUP1 DUP4 KECCAK256 DUP6 DUP6 AND DUP5 MSTORE DUP3 MSTORE SWAP2 DUP3 SWAP1 KECCAK256 DUP1 SLOAD PUSH1 0xFF NOT AND SWAP1 SSTORE DUP2 MLOAD SWAP3 DUP11 AND DUP4 MSTORE PUSH1 0x1 PUSH1 0x1 PUSH1 0xA0 SHL SUB DUP10 AND SWAP1 DUP4 ADD MSTORE SWAP3 SWAP5 POP SWAP1 SWAP3 POP PUSH32 0x45C35F53284761DC1375DA434DFC7EC6A908FD346CB7EF4B10B8A75D6CB83752 SWAP2 ADD PUSH2 0xEAE JUMP JUMPDEST PUSH1 0x1A PUSH1 0x20 MSTORE PUSH1 0x0 SWAP1 DUP2 MSTORE PUSH1 0x40 SWAP1 KECCAK256 DUP1 SLOAD DUP2 SWAP1 PUSH2 0x283A SWAP1 PUSH2 0x3213 JUMP JUMPDEST DUP1 PUSH1 0x1F ADD PUSH1 0x20 DUP1 SWAP2 DIV MUL PUSH1 0x20 ADD PUSH1 0x40 MLOAD SWAP1 DUP2 ADD PUSH1 0x40 MSTORE DUP1 SWAP3 SWAP2 SWAP1 DUP2 DUP2 MSTORE PUSH1 0x20 ADD DUP3 DUP1 SLOAD PUSH2 0x2866 SWAP1 PUSH2 0x3213 JUMP JUMPDEST DUP1 ISZERO PUSH2 0x28B3 JUMPI DUP1 PUSH1 0x1F LT PUSH2 0x2888 JUMPI PUSH2 0x100 DUP1 DUP4 SLOAD DIV MUL DUP4 MSTORE SWAP2 PUSH1 0x20 ADD SWAP2 PUSH2 0x28B3 JUMP JUMPDEST DUP3 ADD SWAP2 SWAP1 PUSH1 0x0 MSTORE PUSH1 0x20 PUSH1 0x0 KECCAK256 SWAP1 JUMPDEST DUP2 SLOAD DUP2 MSTORE SWAP1 PUSH1 0x1 ADD SWAP1 PUSH1 0x20 ADD DUP1 DUP4 GT PUSH2 0x2896 JUMPI DUP3 SWAP1 SUB PUSH1 0x1F AND DUP3 ADD SWAP2 JUMPDEST POP POP POP PUSH1 0x1 SWAP1 SWAP4 ADD SLOAD SWAP2 SWAP3 POP POP PUSH1 0x1 PUSH1 0x1 PUSH1 0xA0 SHL SUB DUP2 AND SWAP1 PUSH1 0xFF PUSH1 0x1 PUSH1 0xA0 SHL DUP3 DIV DUP2 AND SWAP2 PUSH1 0x1 PUSH1 0xA8 SHL SWAP1 DIV AND DUP5 JUMP JUMPDEST PUSH1 0x1 PUSH1 0x1 PUSH1 0xA0 SHL SUB DUP2 AND PUSH1 0x0 SWAP1 DUP2 MSTORE PUSH1 0x1F PUSH1 0x20 MSTORE PUSH1 0x40 SWAP1 KECCAK256 DUP1 SLOAD PUSH1 0x60 SWAP2 SWAP1 PUSH2 0x2909 SWAP1 PUSH2 0x3213 JUMP JUMPDEST DUP1 PUSH1 0x1F ADD PUSH1 0x20 DUP1 SWAP2 DIV MUL PUSH1 0x20 ADD PUSH1 0x40 MLOAD SWAP1 DUP2 ADD PUSH1 0x40 MSTORE DUP1 SWAP3 SWAP2 SWAP1 DUP2 DUP2 MSTORE PUSH1 0x20 ADD DUP3 DUP1 SLOAD PUSH2 0x2935 SWAP1 PUSH2 0x3213 JUMP JUMPDEST DUP1 ISZERO PUSH2 0x643 JUMPI DUP1 PUSH1 0x1F LT PUSH2 0x2957 JUMPI PUSH2 0x100 DUP1 DUP4 SLOAD DIV MUL DUP4 MSTORE SWAP2 PUSH1 0x20 ADD SWAP2 PUSH2 0x643 JUMP JUMPDEST DUP3 ADD SWAP2 SWAP1 PUSH1 0x0 MSTORE PUSH1 0x20 PUSH1 0x0 KECCAK256 SWAP1 JUMPDEST DUP2 SLOAD DUP2 MSTORE SWAP1 PUSH1 0x1 ADD SWAP1 PUSH1 0x20 ADD DUP1 DUP4 GT PUSH2 0x2965 JUMPI POP SWAP4 SWAP7 SWAP6 POP POP POP POP POP POP JUMP JUMPDEST PUSH1 0x14 SLOAD PUSH1 0x40 MLOAD PUSH4 0x2CFDF9B1 PUSH1 0xE0 SHL DUP2 MSTORE PUSH1 0x1 PUSH1 0x1 PUSH1 0xA0 SHL SUB DUP4 DUP2 AND PUSH1 0x4 DUP4 ADD MSTORE PUSH1 0x0 SWAP3 AND SWAP1 PUSH4 0x2CFDF9B1 SWAP1 PUSH1 0x24 ADD PUSH1 0x20 PUSH1 0x40 MLOAD DUP1 DUP4 SUB DUP2 DUP7 GAS STATICCALL ISZERO DUP1 ISZERO PUSH2 0x29CF JUMPI RETURNDATASIZE PUSH1 0x0 DUP1 RETURNDATACOPY RETURNDATASIZE PUSH1 0x0 REVERT JUMPDEST POP POP POP POP PUSH1 0x40 MLOAD RETURNDATASIZE PUSH1 0x1F NOT PUSH1 0x1F DUP3 ADD AND DUP3 ADD DUP1 PUSH1 0x40 MSTORE POP DUP2 ADD SWAP1 PUSH2 0x959 SWAP2 SWAP1 PUSH2 0x31DB JUMP JUMPDEST PUSH1 0x0 PUSH2 0x2A06 PUSH2 0x2A01 DUP4 PUSH2 0x2ABA JUMP JUMPDEST PUSH2 0x2C6B JUMP JUMPDEST PUSH1 0x40 MLOAD PUSH1 0x20 ADD PUSH2 0x2A16 SWAP2 SWAP1 PUSH2 0x3814 JUMP JUMPDEST PUSH1 0x40 MLOAD PUSH1 0x20 DUP2 DUP4 SUB SUB DUP2 MSTORE SWAP1 PUSH1 0x40 MSTORE DUP1 MLOAD SWAP1 PUSH1 0x20 ADD KECCAK256 SWAP1 POP SWAP2 SWAP1 POP JUMP JUMPDEST PUSH1 0x14 SLOAD PUSH1 0x40 MLOAD PUSH4 0x2400A3B PUSH1 0xE4 SHL DUP2 MSTORE PUSH1 0x1 PUSH1 0x1 PUSH1 0xA0 SHL SUB DUP4 DUP2 AND PUSH1 0x4 DUP4 ADD MSTORE PUSH1 0x0 SWAP3 DUP4 SWAP3 DUP4 SWAP3 SWAP1 SWAP2 AND SWAP1 PUSH4 0x2400A3B0 SWAP1 PUSH1 0x24 ADD PUSH1 0x40 DUP1 MLOAD DUP1 DUP4 SUB DUP2 DUP7 GAS STATICCALL ISZERO DUP1 ISZERO PUSH2 0x2A83 JUMPI RETURNDATASIZE PUSH1 0x0 DUP1 RETURNDATACOPY RETURNDATASIZE PUSH1 0x0 REVERT JUMPDEST POP POP POP POP PUSH1 0x40 MLOAD RETURNDATASIZE PUSH1 0x1F NOT PUSH1 0x1F DUP3 ADD AND DUP3 ADD DUP1 PUSH1 0x40 MSTORE POP DUP2 ADD SWAP1 PUSH2 0x2AA7 SWAP2 SWAP1 PUSH2 0x3830 JUMP JUMPDEST DUP1 MLOAD PUSH1 0x20 SWAP1 SWAP2 ADD MLOAD SWAP1 SWAP6 SWAP1 SWAP5 POP SWAP3 POP POP POP JUMP JUMPDEST DUP1 MLOAD PUSH1 0x60 SWAP1 DUP3 SWAP1 PUSH1 0x0 SUB PUSH2 0x2ACF JUMPI POP SWAP1 SWAP2 SWAP1 POP JUMP JUMPDEST PUSH1 0x0 JUMPDEST DUP2 MLOAD DUP2 LT DUP1 ISZERO PUSH2 0x2B06 JUMPI POP DUP2 DUP2 DUP2 MLOAD DUP2 LT PUSH2 0x2AEF JUMPI PUSH2 0x2AEF PUSH2 0x3561 JUMP JUMPDEST PUSH1 0x20 SWAP2 ADD ADD MLOAD PUSH1 0x1 PUSH1 0x1 PUSH1 0xF8 SHL SUB NOT AND PUSH1 0x1 PUSH1 0xFD SHL EQ JUMPDEST ISZERO PUSH2 0x2B1D JUMPI DUP1 PUSH2 0x2B15 DUP2 PUSH2 0x3577 JUMP JUMPDEST SWAP2 POP POP PUSH2 0x2AD2 JUMP JUMPDEST DUP2 MLOAD DUP2 SUB PUSH2 0x2B3C JUMPI POP POP PUSH1 0x40 DUP1 MLOAD PUSH1 0x20 DUP2 ADD SWAP1 SWAP2 MSTORE PUSH1 0x0 DUP2 MSTORE SWAP3 SWAP2 POP POP JUMP JUMPDEST PUSH1 0x0 PUSH1 0x1 DUP4 MLOAD PUSH2 0x2B4C SWAP2 SWAP1 PUSH2 0x37EB JUMP JUMPDEST SWAP1 POP JUMPDEST DUP2 DUP2 GT DUP1 ISZERO PUSH2 0x2B82 JUMPI POP DUP3 DUP2 DUP2 MLOAD DUP2 LT PUSH2 0x2B6B JUMPI PUSH2 0x2B6B PUSH2 0x3561 JUMP JUMPDEST PUSH1 0x20 SWAP2 ADD ADD MLOAD PUSH1 0x1 PUSH1 0x1 PUSH1 0xF8 SHL SUB NOT AND PUSH1 0x1 PUSH1 0xFD SHL EQ JUMPDEST ISZERO PUSH2 0x2B99 JUMPI DUP1 PUSH2 0x2B91 DUP2 PUSH2 0x38B8 JUMP JUMPDEST SWAP2 POP POP PUSH2 0x2B4F JUMP JUMPDEST PUSH1 0x0 PUSH2 0x2BA5 DUP4 DUP4 PUSH2 0x37EB JUMP JUMPDEST PUSH2 0x2BB0 SWAP1 PUSH1 0x1 PUSH2 0x38CF JUMP JUMPDEST PUSH1 0x1 PUSH1 0x1 PUSH1 0x40 SHL SUB DUP2 GT ISZERO PUSH2 0x2BC7 JUMPI PUSH2 0x2BC7 PUSH2 0x31FD JUMP JUMPDEST PUSH1 0x40 MLOAD SWAP1 DUP1 DUP3 MSTORE DUP1 PUSH1 0x1F ADD PUSH1 0x1F NOT AND PUSH1 0x20 ADD DUP3 ADD PUSH1 0x40 MSTORE DUP1 ISZERO PUSH2 0x2BF1 JUMPI PUSH1 0x20 DUP3 ADD DUP2 DUP1 CALLDATASIZE DUP4 CALLDATACOPY ADD SWAP1 POP JUMPDEST POP SWAP1 POP PUSH1 0x0 JUMPDEST DUP2 MLOAD DUP2 LT ISZERO PUSH2 0x2C61 JUMPI DUP5 PUSH2 0x2C0B DUP3 DUP7 PUSH2 0x38CF JUMP JUMPDEST DUP2 MLOAD DUP2 LT PUSH2 0x2C1B JUMPI PUSH2 0x2C1B PUSH2 0x3561 JUMP JUMPDEST PUSH1 0x20 ADD ADD MLOAD PUSH1 0xF8 SHR PUSH1 0xF8 SHL DUP3 DUP3 DUP2 MLOAD DUP2 LT PUSH2 0x2C38 JUMPI PUSH2 0x2C38 PUSH2 0x3561 JUMP JUMPDEST PUSH1 0x20 ADD ADD SWAP1 PUSH1 0x1 PUSH1 0x1 PUSH1 0xF8 SHL SUB NOT AND SWAP1 DUP2 PUSH1 0x0 BYTE SWAP1 MSTORE8 POP DUP1 PUSH2 0x2C59 DUP2 PUSH2 0x3577 JUMP JUMPDEST SWAP2 POP POP PUSH2 0x2BF7 JUMP JUMPDEST POP SWAP6 SWAP5 POP POP POP POP POP JUMP JUMPDEST PUSH1 0x60 DUP2 PUSH1 0x0 JUMPDEST DUP2 MLOAD DUP2 LT ISZERO PUSH2 0x2CFD JUMPI PUSH1 0x0 DUP3 DUP3 DUP2 MLOAD DUP2 LT PUSH2 0x2C8E JUMPI PUSH2 0x2C8E PUSH2 0x3561 JUMP JUMPDEST ADD PUSH1 0x20 ADD MLOAD PUSH1 0xF8 SHR SWAP1 POP PUSH1 0x41 DUP2 LT DUP1 ISZERO SWAP1 PUSH2 0x2CAD JUMPI POP PUSH1 0x5A DUP2 PUSH1 0xFF AND GT ISZERO JUMPDEST ISZERO PUSH2 0x2CEA JUMPI PUSH2 0x2CBD DUP2 PUSH1 0x20 PUSH2 0x38E2 JUMP JUMPDEST PUSH1 0xF8 SHL DUP4 DUP4 DUP2 MLOAD DUP2 LT PUSH2 0x2CD2 JUMPI PUSH2 0x2CD2 PUSH2 0x3561 JUMP JUMPDEST PUSH1 0x20 ADD ADD SWAP1 PUSH1 0x1 PUSH1 0x1 PUSH1 0xF8 SHL SUB NOT AND SWAP1 DUP2 PUSH1 0x0 BYTE SWAP1 MSTORE8 POP JUMPDEST POP DUP1 PUSH2 0x2CF5 DUP2 PUSH2 0x3577 JUMP JUMPDEST SWAP2 POP POP PUSH2 0x2C71 JUMP JUMPDEST POP SWAP3 SWAP2 POP POP JUMP JUMPDEST POP DUP1 SLOAD PUSH1 0x0 DUP3 SSTORE SWAP1 PUSH1 0x0 MSTORE PUSH1 0x20 PUSH1 0x0 KECCAK256 SWAP1 DUP2 ADD SWAP1 PUSH2 0x2D22 SWAP2 SWAP1 PUSH2 0x2D5B JUMP JUMPDEST POP JUMP JUMPDEST POP DUP1 SLOAD PUSH2 0x2D31 SWAP1 PUSH2 0x3213 JUMP JUMPDEST PUSH1 0x0 DUP3 SSTORE DUP1 PUSH1 0x1F LT PUSH2 0x2D41 JUMPI POP POP JUMP JUMPDEST PUSH1 0x1F ADD PUSH1 0x20 SWAP1 DIV SWAP1 PUSH1 0x0 MSTORE PUSH1 0x20 PUSH1 0x0 KECCAK256 SWAP1 DUP2 ADD SWAP1 PUSH2 0x2D22 SWAP2 SWAP1 JUMPDEST JUMPDEST DUP1 DUP3 GT ISZERO PUSH2 0x2D70 JUMPI PUSH1 0x0 DUP2 SSTORE PUSH1 0x1 ADD PUSH2 0x2D5C JUMP JUMPDEST POP SWAP1 JUMP JUMPDEST PUSH1 0xFF DUP2 AND DUP2 EQ PUSH2 0x2D22 JUMPI PUSH1 0x0 DUP1 REVERT JUMPDEST PUSH1 0x0 PUSH1 0x20 DUP3 DUP5 SUB SLT ISZERO PUSH2 0x2D95 JUMPI PUSH1 0x0 DUP1 REVERT JUMPDEST DUP2 CALLDATALOAD PUSH2 0x2DA0 DUP2 PUSH2 0x2D74 JUMP JUMPDEST SWAP4 SWAP3 POP POP POP JUMP JUMPDEST PUSH1 0x20 DUP1 DUP3 MSTORE DUP3 MLOAD DUP3 DUP3 ADD DUP2 SWAP1 MSTORE PUSH1 0x0 SWAP2 SWAP1 DUP5 DUP3 ADD SWAP1 PUSH1 0x40 DUP6 ADD SWAP1 DUP5 JUMPDEST DUP2 DUP2 LT ISZERO PUSH2 0x2DE8 JUMPI DUP4 MLOAD PUSH1 0x1 PUSH1 0x1 PUSH1 0xA0 SHL SUB AND DUP4 MSTORE SWAP3 DUP5 ADD SWAP3 SWAP2 DUP5 ADD SWAP2 PUSH1 0x1 ADD PUSH2 0x2DC3 JUMP JUMPDEST POP SWAP1 SWAP7 SWAP6 POP POP POP POP POP POP JUMP JUMPDEST PUSH1 0x0 DUP1 DUP4 PUSH1 0x1F DUP5 ADD SLT PUSH2 0x2E06 JUMPI PUSH1 0x0 DUP1 REVERT JUMPDEST POP DUP2 CALLDATALOAD PUSH1 0x1 PUSH1 0x1 PUSH1 0x40 SHL SUB DUP2 GT ISZERO PUSH2 0x2E1D JUMPI PUSH1 0x0 DUP1 REVERT JUMPDEST PUSH1 0x20 DUP4 ADD SWAP2 POP DUP4 PUSH1 0x20 DUP3 DUP6 ADD ADD GT ISZERO PUSH2 0x2E35 JUMPI PUSH1 0x0 DUP1 REVERT JUMPDEST SWAP3 POP SWAP3 SWAP1 POP JUMP JUMPDEST PUSH1 0x0 DUP1 PUSH1 0x0 DUP1 PUSH1 0x60 DUP6 DUP8 SUB SLT ISZERO PUSH2 0x2E52 JUMPI PUSH1 0x0 DUP1 REVERT JUMPDEST DUP5 CALLDATALOAD PUSH2 0x2E5D DUP2 PUSH2 0x2D74 JUMP JUMPDEST SWAP4 POP PUSH1 0x20 DUP6 ADD CALLDATALOAD PUSH2 0x2E6D DUP2 PUSH2 0x2D74 JUMP JUMPDEST SWAP3 POP PUSH1 0x40 DUP6 ADD CALLDATALOAD PUSH1 0x1 PUSH1 0x1 PUSH1 0x40 SHL SUB DUP2 GT ISZERO PUSH2 0x2E88 JUMPI PUSH1 0x0 DUP1 REVERT JUMPDEST PUSH2 0x2E94 DUP8 DUP3 DUP9 ADD PUSH2 0x2DF4 JUMP JUMPDEST SWAP6 SWAP9 SWAP5 SWAP8 POP SWAP6 POP POP POP POP JUMP JUMPDEST PUSH1 0x1 PUSH1 0x1 PUSH1 0xA0 SHL SUB DUP2 AND DUP2 EQ PUSH2 0x2D22 JUMPI PUSH1 0x0 DUP1 REVERT JUMPDEST PUSH1 0x0 PUSH1 0x20 DUP3 DUP5 SUB SLT ISZERO PUSH2 0x2EC7 JUMPI PUSH1 0x0 DUP1 REVERT JUMPDEST DUP2 CALLDATALOAD PUSH2 0x2DA0 DUP2 PUSH2 0x2EA0 JUMP JUMPDEST PUSH1 0x0 DUP1 PUSH1 0x40 DUP4 DUP6 SUB SLT ISZERO PUSH2 0x2EE5 JUMPI PUSH1 0x0 DUP1 REVERT JUMPDEST DUP3 CALLDATALOAD PUSH2 0x2EF0 DUP2 PUSH2 0x2D74 JUMP JUMPDEST SWAP2 POP PUSH1 0x20 DUP4 ADD CALLDATALOAD PUSH2 0x2F00 DUP2 PUSH2 0x2D74 JUMP JUMPDEST DUP1 SWAP2 POP POP SWAP3 POP SWAP3 SWAP1 POP JUMP JUMPDEST PUSH1 0x0 JUMPDEST DUP4 DUP2 LT ISZERO PUSH2 0x2F26 JUMPI DUP2 DUP2 ADD MLOAD DUP4 DUP3 ADD MSTORE PUSH1 0x20 ADD PUSH2 0x2F0E JUMP JUMPDEST POP POP PUSH1 0x0 SWAP2 ADD MSTORE JUMP JUMPDEST PUSH1 0x0 DUP2 MLOAD DUP1 DUP5 MSTORE PUSH2 0x2F47 DUP2 PUSH1 0x20 DUP7 ADD PUSH1 0x20 DUP7 ADD PUSH2 0x2F0B JUMP JUMPDEST PUSH1 0x1F ADD PUSH1 0x1F NOT AND SWAP3 SWAP1 SWAP3 ADD PUSH1 0x20 ADD SWAP3 SWAP2 POP POP JUMP JUMPDEST PUSH1 0x20 DUP2 MSTORE PUSH1 0x0 PUSH2 0x2DA0 PUSH1 0x20 DUP4 ADD DUP5 PUSH2 0x2F2F JUMP JUMPDEST PUSH1 0x0 DUP1 PUSH1 0x20 DUP4 DUP6 SUB SLT ISZERO PUSH2 0x2F81 JUMPI PUSH1 0x0 DUP1 REVERT JUMPDEST DUP3 CALLDATALOAD PUSH1 0x1 PUSH1 0x1 PUSH1 0x40 SHL SUB DUP2 GT ISZERO PUSH2 0x2F97 JUMPI PUSH1 0x0 DUP1 REVERT JUMPDEST PUSH2 0x2FA3 DUP6 DUP3 DUP7 ADD PUSH2 0x2DF4 JUMP JUMPDEST SWAP1 SWAP7 SWAP1 SWAP6 POP SWAP4 POP POP POP POP JUMP JUMPDEST PUSH1 0x0 DUP1 PUSH1 0x40 DUP4 DUP6 SUB SLT ISZERO PUSH2 0x2FC2 JUMPI PUSH1 0x0 DUP1 REVERT JUMPDEST DUP3 CALLDATALOAD PUSH2 0x2FCD DUP2 PUSH2 0x2D74 JUMP JUMPDEST SWAP5 PUSH1 0x20 SWAP4 SWAP1 SWAP4 ADD CALLDATALOAD SWAP4 POP POP POP JUMP JUMPDEST PUSH1 0x20 DUP1 DUP3 MSTORE DUP3 MLOAD DUP3 DUP3 ADD DUP2 SWAP1 MSTORE PUSH1 0x0 SWAP2 SWAP1 PUSH1 0x40 SWAP1 DUP2 DUP6 ADD SWAP1 DUP7 DUP5 ADD DUP6 JUMPDEST DUP3 DUP2 LT ISZERO PUSH2 0x303A JUMPI DUP2 MLOAD DUP1 MLOAD PUSH1 0xFF SWAP1 DUP2 AND DUP7 MSTORE DUP8 DUP3 ADD MLOAD DUP2 AND DUP9 DUP8 ADD MSTORE DUP7 DUP3 ADD MLOAD AND DUP7 DUP7 ADD MSTORE PUSH1 0x60 SWAP1 DUP2 ADD MLOAD SWAP1 DUP6 ADD MSTORE PUSH1 0x80 SWAP1 SWAP4 ADD SWAP3 SWAP1 DUP6 ADD SWAP1 PUSH1 0x1 ADD PUSH2 0x2FF8 JUMP JUMPDEST POP SWAP2 SWAP8 SWAP7 POP POP POP POP POP POP POP JUMP JUMPDEST PUSH1 0x0 DUP2 MLOAD PUSH1 0x80 DUP5 MSTORE PUSH2 0x305C PUSH1 0x80 DUP6 ADD DUP3 PUSH2 0x2F2F JUMP JUMPDEST PUSH1 0x20 DUP5 DUP2 ADD MLOAD PUSH1 0x1 PUSH1 0x1 PUSH1 0xA0 SHL SUB AND SWAP1 DUP7 ADD MSTORE PUSH1 0x40 DUP1 DUP6 ADD MLOAD PUSH1 0xFF AND SWAP1 DUP7 ADD MSTORE PUSH1 0x60 SWAP4 DUP5 ADD MLOAD ISZERO ISZERO SWAP4 SWAP1 SWAP5 ADD SWAP3 SWAP1 SWAP3 MSTORE POP SWAP1 SWAP2 SWAP1 POP JUMP JUMPDEST PUSH1 0x20 DUP2 MSTORE PUSH1 0x0 PUSH2 0x2DA0 PUSH1 0x20 DUP4 ADD DUP5 PUSH2 0x3047 JUMP JUMPDEST PUSH1 0x0 PUSH1 0x20 DUP3 DUP5 SUB SLT ISZERO PUSH2 0x30B8 JUMPI PUSH1 0x0 DUP1 REVERT JUMPDEST POP CALLDATALOAD SWAP2 SWAP1 POP JUMP JUMPDEST PUSH1 0x0 DUP1 PUSH1 0x40 DUP4 DUP6 SUB SLT ISZERO PUSH2 0x30D2 JUMPI PUSH1 0x0 DUP1 REVERT JUMPDEST DUP3 CALLDATALOAD PUSH2 0x30DD DUP2 PUSH2 0x2D74 JUMP JUMPDEST SWAP2 POP PUSH1 0x20 DUP4 ADD CALLDATALOAD PUSH2 0x2F00 DUP2 PUSH2 0x2EA0 JUMP JUMPDEST PUSH1 0x0 PUSH1 0x20 DUP1 DUP4 ADD DUP2 DUP5 MSTORE DUP1 DUP6 MLOAD DUP1 DUP4 MSTORE PUSH1 0x40 DUP7 ADD SWAP2 POP PUSH1 0x40 DUP2 PUSH1 0x5 SHL DUP8 ADD ADD SWAP3 POP DUP4 DUP8 ADD PUSH1 0x0 JUMPDEST DUP3 DUP2 LT ISZERO PUSH2 0x3142 JUMPI PUSH1 0x3F NOT DUP9 DUP7 SUB ADD DUP5 MSTORE PUSH2 0x3130 DUP6 DUP4 MLOAD PUSH2 0x3047 JUMP JUMPDEST SWAP5 POP SWAP3 DUP6 ADD SWAP3 SWAP1 DUP6 ADD SWAP1 PUSH1 0x1 ADD PUSH2 0x3114 JUMP JUMPDEST POP SWAP3 SWAP8 SWAP7 POP POP POP POP POP POP POP JUMP JUMPDEST PUSH1 0x0 DUP1 PUSH1 0x40 DUP4 DUP6 SUB SLT ISZERO PUSH2 0x3162 JUMPI PUSH1 0x0 DUP1 REVERT JUMPDEST POP POP DUP1 CALLDATALOAD SWAP3 PUSH1 0x20 SWAP1 SWAP2 ADD CALLDATALOAD SWAP2 POP JUMP JUMPDEST PUSH1 0x80 DUP2 MSTORE PUSH1 0x0 PUSH2 0x3184 PUSH1 0x80 DUP4 ADD DUP8 PUSH2 0x2F2F JUMP JUMPDEST PUSH1 0x1 PUSH1 0x1 PUSH1 0xA0 SHL SUB SWAP6 SWAP1 SWAP6 AND PUSH1 0x20 DUP4 ADD MSTORE POP PUSH1 0xFF SWAP3 SWAP1 SWAP3 AND PUSH1 0x40 DUP4 ADD MSTORE ISZERO ISZERO PUSH1 0x60 SWAP1 SWAP2 ADD MSTORE SWAP2 SWAP1 POP JUMP JUMPDEST DUP1 MLOAD PUSH2 0x31B9 DUP2 PUSH2 0x2EA0 JUMP JUMPDEST SWAP2 SWAP1 POP JUMP JUMPDEST PUSH1 0x0 PUSH1 0x20 DUP3 DUP5 SUB SLT ISZERO PUSH2 0x31D0 JUMPI PUSH1 0x0 DUP1 REVERT JUMPDEST DUP2 MLOAD PUSH2 0x2DA0 DUP2 PUSH2 0x2EA0 JUMP JUMPDEST PUSH1 0x0 PUSH1 0x20 DUP3 DUP5 SUB SLT ISZERO PUSH2 0x31ED JUMPI PUSH1 0x0 DUP1 REVERT JUMPDEST DUP2 MLOAD DUP1 ISZERO ISZERO DUP2 EQ PUSH2 0x2DA0 JUMPI PUSH1 0x0 DUP1 REVERT JUMPDEST PUSH4 0x4E487B71 PUSH1 0xE0 SHL PUSH1 0x0 MSTORE PUSH1 0x41 PUSH1 0x4 MSTORE PUSH1 0x24 PUSH1 0x0 REVERT JUMPDEST PUSH1 0x1 DUP2 DUP2 SHR SWAP1 DUP3 AND DUP1 PUSH2 0x3227 JUMPI PUSH1 0x7F DUP3 AND SWAP2 POP JUMPDEST PUSH1 0x20 DUP3 LT DUP2 SUB PUSH2 0x3247 JUMPI PUSH4 0x4E487B71 PUSH1 0xE0 SHL PUSH1 0x0 MSTORE PUSH1 0x22 PUSH1 0x4 MSTORE PUSH1 0x24 PUSH1 0x0 REVERT JUMPDEST POP SWAP2 SWAP1 POP JUMP JUMPDEST PUSH1 0x1F DUP3 GT ISZERO PUSH2 0x117E JUMPI PUSH1 0x0 DUP2 DUP2 MSTORE PUSH1 0x20 DUP2 KECCAK256 PUSH1 0x1F DUP6 ADD PUSH1 0x5 SHR DUP2 ADD PUSH1 0x20 DUP7 LT ISZERO PUSH2 0x3274 JUMPI POP DUP1 JUMPDEST PUSH1 0x1F DUP6 ADD PUSH1 0x5 SHR DUP3 ADD SWAP2 POP JUMPDEST DUP2 DUP2 LT ISZERO PUSH2 0x3293 JUMPI DUP3 DUP2 SSTORE PUSH1 0x1 ADD PUSH2 0x3280 JUMP JUMPDEST POP POP POP POP POP POP JUMP JUMPDEST PUSH1 0x1 PUSH1 0x1 PUSH1 0x40 SHL SUB DUP4 GT ISZERO PUSH2 0x32B2 JUMPI PUSH2 0x32B2 PUSH2 0x31FD JUMP JUMPDEST PUSH2 0x32C6 DUP4 PUSH2 0x32C0 DUP4 SLOAD PUSH2 0x3213 JUMP JUMPDEST DUP4 PUSH2 0x324D JUMP JUMPDEST PUSH1 0x0 PUSH1 0x1F DUP5 GT PUSH1 0x1 DUP2 EQ PUSH2 0x32FA JUMPI PUSH1 0x0 DUP6 ISZERO PUSH2 0x32E2 JUMPI POP DUP4 DUP3 ADD CALLDATALOAD JUMPDEST PUSH1 0x0 NOT PUSH1 0x3 DUP8 SWAP1 SHL SHR NOT AND PUSH1 0x1 DUP7 SWAP1 SHL OR DUP4 SSTORE PUSH2 0x3354 JUMP JUMPDEST PUSH1 0x0 DUP4 DUP2 MSTORE PUSH1 0x20 SWAP1 KECCAK256 PUSH1 0x1F NOT DUP7 AND SWAP1 DUP4 JUMPDEST DUP3 DUP2 LT ISZERO PUSH2 0x332B JUMPI DUP7 DUP6 ADD CALLDATALOAD DUP3 SSTORE PUSH1 0x20 SWAP5 DUP6 ADD SWAP5 PUSH1 0x1 SWAP1 SWAP3 ADD SWAP2 ADD PUSH2 0x330B JUMP JUMPDEST POP DUP7 DUP3 LT ISZERO PUSH2 0x3348 JUMPI PUSH1 0x0 NOT PUSH1 0xF8 DUP9 PUSH1 0x3 SHL AND SHR NOT DUP5 DUP8 ADD CALLDATALOAD AND DUP2 SSTORE JUMPDEST POP POP PUSH1 0x1 DUP6 PUSH1 0x1 SHL ADD DUP4 SSTORE JUMPDEST POP POP POP POP POP JUMP JUMPDEST DUP2 DUP4 MSTORE DUP2 DUP2 PUSH1 0x20 DUP6 ADD CALLDATACOPY POP PUSH1 0x0 DUP3 DUP3 ADD PUSH1 0x20 SWAP1 DUP2 ADD SWAP2 SWAP1 SWAP2 MSTORE PUSH1 0x1F SWAP1 SWAP2 ADD PUSH1 0x1F NOT AND SWAP1 SWAP2 ADD ADD SWAP1 JUMP JUMPDEST PUSH1 0xFF DUP6 AND DUP2 MSTORE PUSH1 0xFF DUP5 AND PUSH1 0x20 DUP3 ADD MSTORE PUSH1 0x60 PUSH1 0x40 DUP3 ADD MSTORE PUSH1 0x0 PUSH2 0x33AA PUSH1 0x60 DUP4 ADD DUP5 DUP7 PUSH2 0x335B JUMP JUMPDEST SWAP7 SWAP6 POP POP POP POP POP POP JUMP JUMPDEST PUSH1 0x20 DUP1 DUP3 MSTORE PUSH1 0x2C SWAP1 DUP3 ADD MSTORE PUSH32 0x596F75206D757374206F776E20612074696C6520746F20637265617465206F72 PUSH1 0x40 DUP3 ADD MSTORE PUSH12 0x103537B4B710309031B630B7 PUSH1 0xA1 SHL PUSH1 0x60 DUP3 ADD MSTORE PUSH1 0x80 ADD SWAP1 JUMP JUMPDEST PUSH1 0x20 DUP1 DUP3 MSTORE PUSH1 0x19 SWAP1 DUP3 ADD MSTORE PUSH32 0x596F75206D7573742068617665206120436C616E2048616C6C00000000000000 PUSH1 0x40 DUP3 ADD MSTORE PUSH1 0x60 ADD SWAP1 JUMP JUMPDEST PUSH4 0x4E487B71 PUSH1 0xE0 SHL PUSH1 0x0 MSTORE PUSH1 0x11 PUSH1 0x4 MSTORE PUSH1 0x24 PUSH1 0x0 REVERT JUMPDEST PUSH1 0x0 PUSH1 0xFF DUP3 AND PUSH1 0xFF DUP2 SUB PUSH2 0x3463 JUMPI PUSH2 0x3463 PUSH2 0x3437 JUMP JUMPDEST PUSH1 0x1 ADD SWAP3 SWAP2 POP POP JUMP JUMPDEST DUP2 MLOAD PUSH1 0x1 PUSH1 0x1 PUSH1 0x40 SHL SUB DUP2 GT ISZERO PUSH2 0x3485 JUMPI PUSH2 0x3485 PUSH2 0x31FD JUMP JUMPDEST PUSH2 0x3499 DUP2 PUSH2 0x3493 DUP5 SLOAD PUSH2 0x3213 JUMP JUMPDEST DUP5 PUSH2 0x324D JUMP JUMPDEST PUSH1 0x20 DUP1 PUSH1 0x1F DUP4 GT PUSH1 0x1 DUP2 EQ PUSH2 0x34CE JUMPI PUSH1 0x0 DUP5 ISZERO PUSH2 0x34B6 JUMPI POP DUP6 DUP4 ADD MLOAD JUMPDEST PUSH1 0x0 NOT PUSH1 0x3 DUP7 SWAP1 SHL SHR NOT AND PUSH1 0x1 DUP6 SWAP1 SHL OR DUP6 SSTORE PUSH2 0x3293 JUMP JUMPDEST PUSH1 0x0 DUP6 DUP2 MSTORE PUSH1 0x20 DUP2 KECCAK256 PUSH1 0x1F NOT DUP7 AND SWAP2 JUMPDEST DUP3 DUP2 LT ISZERO PUSH2 0x34FD JUMPI DUP9 DUP7 ADD MLOAD DUP3 SSTORE SWAP5 DUP5 ADD SWAP5 PUSH1 0x1 SWAP1 SWAP2 ADD SWAP1 DUP5 ADD PUSH2 0x34DE JUMP JUMPDEST POP DUP6 DUP3 LT ISZERO PUSH2 0x351B JUMPI DUP8 DUP6 ADD MLOAD PUSH1 0x0 NOT PUSH1 0x3 DUP9 SWAP1 SHL PUSH1 0xF8 AND SHR NOT AND DUP2 SSTORE JUMPDEST POP POP POP POP POP PUSH1 0x1 SWAP1 DUP2 SHL ADD SWAP1 SSTORE POP JUMP JUMPDEST PUSH1 0xFF DUP6 AND DUP2 MSTORE PUSH1 0x60 PUSH1 0x20 DUP3 ADD MSTORE PUSH1 0x0 PUSH2 0x3548 PUSH1 0x60 DUP4 ADD DUP6 DUP8 PUSH2 0x335B JUMP JUMPDEST SWAP1 POP PUSH1 0x1 DUP1 PUSH1 0xA0 SHL SUB DUP4 AND PUSH1 0x40 DUP4 ADD MSTORE SWAP6 SWAP5 POP POP POP POP POP JUMP JUMPDEST PUSH4 0x4E487B71 PUSH1 0xE0 SHL PUSH1 0x0 MSTORE PUSH1 0x32 PUSH1 0x4 MSTORE PUSH1 0x24 PUSH1 0x0 REVERT JUMPDEST PUSH1 0x0 PUSH1 0x1 DUP3 ADD PUSH2 0x3589 JUMPI PUSH2 0x3589 PUSH2 0x3437 JUMP JUMPDEST POP PUSH1 0x1 ADD SWAP1 JUMP JUMPDEST PUSH1 0x20 DUP1 DUP3 MSTORE PUSH1 0x28 SWAP1 DUP3 ADD MSTORE PUSH32 0x4F6E6C7920636C616E206C65616465722063616E20706572666F726D20746869 PUSH1 0x40 DUP3 ADD MSTORE PUSH8 0x399030B1BA34B7B7 PUSH1 0xC1 SHL PUSH1 0x60 DUP3 ADD MSTORE PUSH1 0x80 ADD SWAP1 JUMP JUMPDEST PUSH1 0x20 DUP1 DUP3 MSTORE PUSH1 0x13 SWAP1 DUP3 ADD MSTORE PUSH19 0x10DB185B88191BD95CC81B9BDD08195E1A5CDD PUSH1 0x6A SHL PUSH1 0x40 DUP3 ADD MSTORE PUSH1 0x60 ADD SWAP1 JUMP JUMPDEST PUSH1 0x0 DUP3 PUSH1 0x1F DUP4 ADD SLT PUSH2 0x3616 JUMPI PUSH1 0x0 DUP1 REVERT JUMPDEST DUP2 MLOAD PUSH1 0x1 PUSH1 0x1 PUSH1 0x40 SHL SUB DUP1 DUP3 GT ISZERO PUSH2 0x3630 JUMPI PUSH2 0x3630 PUSH2 0x31FD JUMP JUMPDEST PUSH1 0x40 MLOAD PUSH1 0x1F DUP4 ADD PUSH1 0x1F NOT SWAP1 DUP2 AND PUSH1 0x3F ADD AND DUP2 ADD SWAP1 DUP3 DUP3 GT DUP2 DUP4 LT OR ISZERO PUSH2 0x3658 JUMPI PUSH2 0x3658 PUSH2 0x31FD JUMP JUMPDEST DUP2 PUSH1 0x40 MSTORE DUP4 DUP2 MSTORE DUP7 PUSH1 0x20 DUP6 DUP9 ADD ADD GT ISZERO PUSH2 0x3671 JUMPI PUSH1 0x0 DUP1 REVERT JUMPDEST PUSH2 0x33AA DUP5 PUSH1 0x20 DUP4 ADD PUSH1 0x20 DUP10 ADD PUSH2 0x2F0B JUMP JUMPDEST PUSH1 0x0 DUP1 PUSH1 0x0 DUP1 PUSH1 0x0 DUP1 PUSH1 0x0 DUP1 PUSH1 0x0 DUP1 PUSH1 0x0 PUSH2 0x160 DUP13 DUP15 SUB SLT ISZERO PUSH2 0x36A4 JUMPI PUSH1 0x0 DUP1 REVERT JUMPDEST DUP12 MLOAD PUSH1 0x1 PUSH1 0x1 PUSH1 0x40 SHL SUB DUP2 GT ISZERO PUSH2 0x36BA JUMPI PUSH1 0x0 DUP1 REVERT JUMPDEST PUSH2 0x36C6 DUP15 DUP3 DUP16 ADD PUSH2 0x3605 JUMP JUMPDEST SWAP12 POP POP PUSH1 0x20 DUP13 ADD MLOAD PUSH1 0x1 PUSH1 0x1 PUSH1 0x40 SHL SUB DUP2 GT ISZERO PUSH2 0x36E2 JUMPI PUSH1 0x0 DUP1 REVERT JUMPDEST PUSH2 0x36EE DUP15 DUP3 DUP16 ADD PUSH2 0x3605 JUMP JUMPDEST SWAP11 POP POP PUSH1 0x40 DUP13 ADD MLOAD PUSH1 0x1 PUSH1 0x1 PUSH1 0x40 SHL SUB DUP2 GT ISZERO PUSH2 0x370A JUMPI PUSH1 0x0 DUP1 REVERT JUMPDEST PUSH2 0x3716 DUP15 DUP3 DUP16 ADD PUSH2 0x3605 JUMP JUMPDEST SWAP10 POP POP PUSH1 0x60 DUP13 ADD MLOAD PUSH1 0x1 PUSH1 0x1 PUSH1 0x40 SHL SUB DUP2 GT ISZERO PUSH2 0x3732 JUMPI PUSH1 0x0 DUP1 REVERT JUMPDEST PUSH2 0x373E DUP15 DUP3 DUP16 ADD PUSH2 0x3605 JUMP JUMPDEST SWAP9 POP POP PUSH2 0x374D PUSH1 0x80 DUP14 ADD PUSH2 0x31AE JUMP JUMPDEST SWAP7 POP PUSH1 0xA0 DUP13 ADD MLOAD SWAP6 POP PUSH1 0xC0 DUP13 ADD MLOAD SWAP5 POP PUSH1 0xE0 DUP13 ADD MLOAD PUSH1 0x1 PUSH1 0x1 PUSH1 0x40 SHL SUB DUP2 GT ISZERO PUSH2 0x3776 JUMPI PUSH1 0x0 DUP1 REVERT JUMPDEST PUSH2 0x3782 DUP15 DUP3 DUP16 ADD PUSH2 0x3605 JUMP JUMPDEST SWAP5 POP POP PUSH2 0x100 DUP13 ADD MLOAD PUSH1 0x1 PUSH1 0x1 PUSH1 0x40 SHL SUB DUP2 GT ISZERO PUSH2 0x379F JUMPI PUSH1 0x0 DUP1 REVERT JUMPDEST PUSH2 0x37AB DUP15 DUP3 DUP16 ADD PUSH2 0x3605 JUMP JUMPDEST SWAP4 POP POP PUSH2 0x120 DUP13 ADD MLOAD SWAP2 POP PUSH2 0x140 DUP13 ADD MLOAD SWAP1 POP SWAP3 SWAP6 SWAP9 SWAP12 POP SWAP3 SWAP6 SWAP9 SWAP12 SWAP1 SWAP4 SWAP7 SWAP10 POP JUMP JUMPDEST PUSH1 0x0 PUSH1 0xFF DUP3 AND DUP1 PUSH2 0x37E1 JUMPI PUSH2 0x37E1 PUSH2 0x3437 JUMP JUMPDEST PUSH1 0x0 NOT ADD SWAP3 SWAP2 POP POP JUMP JUMPDEST DUP2 DUP2 SUB DUP2 DUP2 GT ISZERO PUSH2 0x959 JUMPI PUSH2 0x959 PUSH2 0x3437 JUMP JUMPDEST PUSH4 0x4E487B71 PUSH1 0xE0 SHL PUSH1 0x0 MSTORE PUSH1 0x31 PUSH1 0x4 MSTORE PUSH1 0x24 PUSH1 0x0 REVERT JUMPDEST PUSH1 0x0 DUP3 MLOAD PUSH2 0x3826 DUP2 DUP5 PUSH1 0x20 DUP8 ADD PUSH2 0x2F0B JUMP JUMPDEST SWAP2 SWAP1 SWAP2 ADD SWAP3 SWAP2 POP POP JUMP JUMPDEST PUSH1 0x0 PUSH1 0x40 DUP3 DUP5 SUB SLT ISZERO PUSH2 0x3842 JUMPI PUSH1 0x0 DUP1 REVERT JUMPDEST DUP3 PUSH1 0x1F DUP4 ADD SLT PUSH2 0x3851 JUMPI PUSH1 0x0 DUP1 REVERT JUMPDEST PUSH1 0x40 MLOAD PUSH1 0x40 DUP2 ADD DUP2 DUP2 LT PUSH1 0x1 PUSH1 0x1 PUSH1 0x40 SHL SUB DUP3 GT OR ISZERO PUSH2 0x3873 JUMPI PUSH2 0x3873 PUSH2 0x31FD JUMP JUMPDEST DUP1 PUSH1 0x40 MSTORE POP DUP1 PUSH1 0x40 DUP5 ADD DUP6 DUP2 GT ISZERO PUSH2 0x388A JUMPI PUSH1 0x0 DUP1 REVERT JUMPDEST DUP5 JUMPDEST DUP2 DUP2 LT ISZERO PUSH2 0x38AD JUMPI DUP1 MLOAD PUSH2 0x389F DUP2 PUSH2 0x2D74 JUMP JUMPDEST DUP4 MSTORE PUSH1 0x20 SWAP3 DUP4 ADD SWAP3 ADD PUSH2 0x388C JUMP JUMPDEST POP SWAP2 SWAP6 SWAP5 POP POP POP POP POP JUMP JUMPDEST PUSH1 0x0 DUP2 PUSH2 0x38C7 JUMPI PUSH2 0x38C7 PUSH2 0x3437 JUMP JUMPDEST POP PUSH1 0x0 NOT ADD SWAP1 JUMP JUMPDEST DUP1 DUP3 ADD DUP1 DUP3 GT ISZERO PUSH2 0x959 JUMPI PUSH2 0x959 PUSH2 0x3437 JUMP JUMPDEST PUSH1 0xFF DUP2 DUP2 AND DUP4 DUP3 AND ADD SWAP1 DUP2 GT ISZERO PUSH2 0x959 JUMPI PUSH2 0x959 PUSH2 0x3437 JUMP INVALID LOG2 PUSH5 0x6970667358 0x22 SLT KECCAK256 0xC4 0xEC DUP14 0x23 0x4D SWAP10 XOR PUSH30 0x36B99542C5D0E5D44A107BF97AD481960EFDD8DB6E731D5B64736F6C6343 STOP ADDMOD SLT STOP CALLER "
		},
		"gasEstimates": {
			"creation": {
				"codeDepositCost": "2928200",
				"executionCost": "infinite",
				"totalCost": "infinite"
			},
			"external": {
				"CLAN_CREATION_COST()": "285",
				"CLAN_FLAG_COST()": "241",
				"MAX_MEMBERS()": "292",
				"TILE_NAMING_COST()": "328",
				"acceptInvite()": "infinite",
				"bonuses(uint256,uint256)": "4251",
				"clanFlags(uint8)": "2611",
				"clanMembers(uint8,uint256)": "4812",
				"clanNameTaken(bytes32)": "2495",
				"clans(uint8)": "infinite",
				"createClan(string)": "infinite",
				"disbandClan(uint8)": "infinite",
				"getAllClans()": "infinite",
				"getAllTilesWithClans()": "infinite",
				"getBonus(uint8,uint8)": "infinite",
				"getClanInfo(uint8)": "infinite",
				"getClanMemberCount(uint8)": "4925",
				"getClanMembers(uint8)": "infinite",
				"getTileClan(uint8,uint8)": "infinite",
				"getTileName(uint8,uint8)": "infinite",
				"getTwitterHandle(address)": "infinite",
				"inviteToClan(uint8,address)": "infinite",
				"isClanNameAvailable(string)": "infinite",
				"leaveClan()": "infinite",
				"lopToken()": "2383",
				"members(address)": "2666",
				"nameTile(uint8,uint8,string)": "infinite",
				"nftMarket()": "2449",
				"pendingInvites(address)": "2662",
				"refuseInvite()": "26688",
				"removeMember(uint8,address)": "infinite",
				"setClanFlag(uint8,uint256)": "infinite",
				"setTwitterHandle(string)": "infinite",
				"theLand()": "2404",
				"tileClans(uint8,uint8)": "infinite",
				"tileMapPhaser()": "2426",
				"tileNames(uint8,uint8)": "infinite",
				"twitterHandles(address)": "infinite"
			},
			"internal": {
				"_nameKey(string memory)": "infinite",
				"_toLower(string memory)": "infinite",
				"_trim(string memory)": "infinite",
				"getTileCoordinates(address)": "infinite",
				"hasTile(address)": "infinite"
			}
		},
		"methodIdentifiers": {
			"CLAN_CREATION_COST()": "731ae689",
			"CLAN_FLAG_COST()": "65191666",
			"MAX_MEMBERS()": "ea0e35b1",
			"TILE_NAMING_COST()": "62c5813d",
			"acceptInvite()": "bbb4d3e9",
			"bonuses(uint256,uint256)": "bc9955a2",
			"clanFlags(uint8)": "eaa10576",
			"clanMembers(uint8,uint256)": "1db8d500",
			"clanNameTaken(bytes32)": "36780527",
			"clans(uint8)": "d4ceeec0",
			"createClan(string)": "14cebc71",
			"disbandClan(uint8)": "bde7ef82",
			"getAllClans()": "9b21d6eb",
			"getAllTilesWithClans()": "2dec2e63",
			"getBonus(uint8,uint8)": "2a2026a9",
			"getClanInfo(uint8)": "2fad0429",
			"getClanMemberCount(uint8)": "9d995717",
			"getClanMembers(uint8)": "0636fcb2",
			"getTileClan(uint8,uint8)": "7ab9e7fe",
			"getTileName(uint8,uint8)": "09e59cec",
			"getTwitterHandle(address)": "f15ad264",
			"inviteToClan(uint8,address)": "69274803",
			"isClanNameAvailable(string)": "3f9662bb",
			"leaveClan()": "aae1aa37",
			"lopToken()": "0d67f59e",
			"members(address)": "08ae4b0c",
			"nameTile(uint8,uint8,string)": "0821de3e",
			"nftMarket()": "196ab1ab",
			"pendingInvites(address)": "1d0373ad",
			"refuseInvite()": "86722228",
			"removeMember(uint8,address)": "c2024ede",
			"setClanFlag(uint8,uint256)": "9adff8d0",
			"setTwitterHandle(string)": "2f57741c",
			"theLand()": "b0d77774",
			"tileClans(uint8,uint8)": "58612a20",
			"tileMapPhaser()": "4f264b03",
			"tileNames(uint8,uint8)": "7b0c98ef",
			"twitterHandles(address)": "13a5cede"
		}
	},
	"abi": [
		{
			"inputs": [
				{
					"internalType": "address",
					"name": "_tileMapPhaser",
					"type": "address"
				},
				{
					"internalType": "address",
					"name": "_lopToken",
					"type": "address"
				},
				{
					"internalType": "address",
					"name": "_nftMarket",
					"type": "address"
				},
				{
					"internalType": "address",
					"name": "_theLand",
					"type": "address"
				}
			],
			"stateMutability": "nonpayable",
			"type": "constructor"
		},
		{
			"anonymous": false,
			"inputs": [
				{
					"indexed": false,
					"internalType": "uint8",
					"name": "clanId",
					"type": "uint8"
				},
				{
					"indexed": false,
					"internalType": "string",
					"name": "name",
					"type": "string"
				},
				{
					"indexed": false,
					"internalType": "address",
					"name": "leader",
					"type": "address"
				}
			],
			"name": "ClanCreated",
			"type": "event"
		},
		{
			"anonymous": false,
			"inputs": [
				{
					"indexed": false,
					"internalType": "uint8",
					"name": "clanId",
					"type": "uint8"
				},
				{
					"indexed": false,
					"internalType": "address",
					"name": "leader",
					"type": "address"
				}
			],
			"name": "ClanDisbanded",
			"type": "event"
		},
		{
			"anonymous": false,
			"inputs": [
				{
					"indexed": false,
					"internalType": "uint8",
					"name": "clanId",
					"type": "uint8"
				},
				{
					"indexed": false,
					"internalType": "address",
					"name": "invitedPlayer",
					"type": "address"
				}
			],
			"name": "ClanInvited",
			"type": "event"
		},
		{
			"anonymous": false,
			"inputs": [
				{
					"indexed": false,
					"internalType": "uint8",
					"name": "clanId",
					"type": "uint8"
				},
				{
					"indexed": false,
					"internalType": "address",
					"name": "member",
					"type": "address"
				}
			],
			"name": "ClanJoined",
			"type": "event"
		},
		{
			"anonymous": false,
			"inputs": [
				{
					"indexed": false,
					"internalType": "uint8",
					"name": "clanId",
					"type": "uint8"
				},
				{
					"indexed": false,
					"internalType": "address",
					"name": "member",
					"type": "address"
				}
			],
			"name": "MemberRemoved",
			"type": "event"
		},
		{
			"anonymous": false,
			"inputs": [
				{
					"indexed": false,
					"internalType": "uint8",
					"name": "x",
					"type": "uint8"
				},
				{
					"indexed": false,
					"internalType": "uint8",
					"name": "y",
					"type": "uint8"
				},
				{
					"indexed": true,
					"internalType": "address",
					"name": "owner",
					"type": "address"
				},
				{
					"indexed": false,
					"internalType": "string",
					"name": "name",
					"type": "string"
				}
			],
			"name": "TileNamed",
			"type": "event"
		},
		{
			"inputs": [],
			"name": "CLAN_CREATION_COST",
			"outputs": [
				{
					"internalType": "uint256",
					"name": "",
					"type": "uint256"
				}
			],
			"stateMutability": "view",
			"type": "function"
		},
		{
			"inputs": [],
			"name": "CLAN_FLAG_COST",
			"outputs": [
				{
					"internalType": "uint256",
					"name": "",
					"type": "uint256"
				}
			],
			"stateMutability": "view",
			"type": "function"
		},
		{
			"inputs": [],
			"name": "MAX_MEMBERS",
			"outputs": [
				{
					"internalType": "uint8",
					"name": "",
					"type": "uint8"
				}
			],
			"stateMutability": "view",
			"type": "function"
		},
		{
			"inputs": [],
			"name": "TILE_NAMING_COST",
			"outputs": [
				{
					"internalType": "uint256",
					"name": "",
					"type": "uint256"
				}
			],
			"stateMutability": "view",
			"type": "function"
		},
		{
			"inputs": [],
			"name": "acceptInvite",
			"outputs": [],
			"stateMutability": "nonpayable",
			"type": "function"
		},
		{
			"inputs": [
				{
					"internalType": "uint256",
					"name": "",
					"type": "uint256"
				},
				{
					"internalType": "uint256",
					"name": "",
					"type": "uint256"
				}
			],
			"name": "bonuses",
			"outputs": [
				{
					"internalType": "uint8",
					"name": "",
					"type": "uint8"
				}
			],
			"stateMutability": "view",
			"type": "function"
		},
		{
			"inputs": [
				{
					"internalType": "uint8",
					"name": "",
					"type": "uint8"
				}
			],
			"name": "clanFlags",
			"outputs": [
				{
					"internalType": "uint256",
					"name": "",
					"type": "uint256"
				}
			],
			"stateMutability": "view",
			"type": "function"
		},
		{
			"inputs": [
				{
					"internalType": "uint8",
					"name": "",
					"type": "uint8"
				},
				{
					"internalType": "uint256",
					"name": "",
					"type": "uint256"
				}
			],
			"name": "clanMembers",
			"outputs": [
				{
					"internalType": "address",
					"name": "",
					"type": "address"
				}
			],
			"stateMutability": "view",
			"type": "function"
		},
		{
			"inputs": [
				{
					"internalType": "bytes32",
					"name": "",
					"type": "bytes32"
				}
			],
			"name": "clanNameTaken",
			"outputs": [
				{
					"internalType": "bool",
					"name": "",
					"type": "bool"
				}
			],
			"stateMutability": "view",
			"type": "function"
		},
		{
			"inputs": [
				{
					"internalType": "uint8",
					"name": "",
					"type": "uint8"
				}
			],
			"name": "clans",
			"outputs": [
				{
					"internalType": "string",
					"name": "name",
					"type": "string"
				},
				{
					"internalType": "address",
					"name": "leader",
					"type": "address"
				},
				{
					"internalType": "uint8",
					"name": "memberCount",
					"type": "uint8"
				},
				{
					"internalType": "bool",
					"name": "exists",
					"type": "bool"
				}
			],
			"stateMutability": "view",
			"type": "function"
		},
		{
			"inputs": [
				{
					"internalType": "string",
					"name": "name",
					"type": "string"
				}
			],
			"name": "createClan",
			"outputs": [],
			"stateMutability": "nonpayable",
			"type": "function"
		},
		{
			"inputs": [
				{
					"internalType": "uint8",
					"name": "clanId",
					"type": "uint8"
				}
			],
			"name": "disbandClan",
			"outputs": [],
			"stateMutability": "nonpayable",
			"type": "function"
		},
		{
			"inputs": [],
			"name": "getAllClans",
			"outputs": [
				{
					"components": [
						{
							"internalType": "string",
							"name": "name",
							"type": "string"
						},
						{
							"internalType": "address",
							"name": "leader",
							"type": "address"
						},
						{
							"internalType": "uint8",
							"name": "memberCount",
							"type": "uint8"
						},
						{
							"internalType": "bool",
							"name": "exists",
							"type": "bool"
						}
					],
					"internalType": "struct Clan.ClanInfo[]",
					"name": "",
					"type": "tuple[]"
				}
			],
			"stateMutability": "view",
			"type": "function"
		},
		{
			"inputs": [],
			"name": "getAllTilesWithClans",
			"outputs": [
				{
					"components": [
						{
							"internalType": "uint8",
							"name": "x",
							"type": "uint8"
						},
						{
							"internalType": "uint8",
							"name": "y",
							"type": "uint8"
						},
						{
							"internalType": "uint8",
							"name": "clanId",
							"type": "uint8"
						},
						{
							"internalType": "uint256",
							"name": "flagTokenId",
							"type": "uint256"
						}
					],
					"internalType": "struct Clan.TileClanInfo[]",
					"name": "",
					"type": "tuple[]"
				}
			],
			"stateMutability": "view",
			"type": "function"
		},
		{
			"inputs": [
				{
					"internalType": "uint8",
					"name": "x",
					"type": "uint8"
				},
				{
					"internalType": "uint8",
					"name": "y",
					"type": "uint8"
				}
			],
			"name": "getBonus",
			"outputs": [
				{
					"internalType": "uint8",
					"name": "",
					"type": "uint8"
				}
			],
			"stateMutability": "view",
			"type": "function"
		},
		{
			"inputs": [
				{
					"internalType": "uint8",
					"name": "clanId",
					"type": "uint8"
				}
			],
			"name": "getClanInfo",
			"outputs": [
				{
					"components": [
						{
							"internalType": "string",
							"name": "name",
							"type": "string"
						},
						{
							"internalType": "address",
							"name": "leader",
							"type": "address"
						},
						{
							"internalType": "uint8",
							"name": "memberCount",
							"type": "uint8"
						},
						{
							"internalType": "bool",
							"name": "exists",
							"type": "bool"
						}
					],
					"internalType": "struct Clan.ClanInfo",
					"name": "",
					"type": "tuple"
				}
			],
			"stateMutability": "view",
			"type": "function"
		},
		{
			"inputs": [
				{
					"internalType": "uint8",
					"name": "clanId",
					"type": "uint8"
				}
			],
			"name": "getClanMemberCount",
			"outputs": [
				{
					"internalType": "uint8",
					"name": "",
					"type": "uint8"
				}
			],
			"stateMutability": "view",
			"type": "function"
		},
		{
			"inputs": [
				{
					"internalType": "uint8",
					"name": "clanId",
					"type": "uint8"
				}
			],
			"name": "getClanMembers",
			"outputs": [
				{
					"internalType": "address[]",
					"name": "",
					"type": "address[]"
				}
			],
			"stateMutability": "view",
			"type": "function"
		},
		{
			"inputs": [
				{
					"internalType": "uint8",
					"name": "x",
					"type": "uint8"
				},
				{
					"internalType": "uint8",
					"name": "y",
					"type": "uint8"
				}
			],
			"name": "getTileClan",
			"outputs": [
				{
					"internalType": "uint8",
					"name": "",
					"type": "uint8"
				}
			],
			"stateMutability": "view",
			"type": "function"
		},
		{
			"inputs": [
				{
					"internalType": "uint8",
					"name": "x",
					"type": "uint8"
				},
				{
					"internalType": "uint8",
					"name": "y",
					"type": "uint8"
				}
			],
			"name": "getTileName",
			"outputs": [
				{
					"internalType": "string",
					"name": "",
					"type": "string"
				}
			],
			"stateMutability": "view",
			"type": "function"
		},
		{
			"inputs": [
				{
					"internalType": "address",
					"name": "user",
					"type": "address"
				}
			],
			"name": "getTwitterHandle",
			"outputs": [
				{
					"internalType": "string",
					"name": "",
					"type": "string"
				}
			],
			"stateMutability": "view",
			"type": "function"
		},
		{
			"inputs": [
				{
					"internalType": "uint8",
					"name": "clanId",
					"type": "uint8"
				},
				{
					"internalType": "address",
					"name": "player",
					"type": "address"
				}
			],
			"name": "inviteToClan",
			"outputs": [],
			"stateMutability": "nonpayable",
			"type": "function"
		},
		{
			"inputs": [
				{
					"internalType": "string",
					"name": "name",
					"type": "string"
				}
			],
			"name": "isClanNameAvailable",
			"outputs": [
				{
					"internalType": "bool",
					"name": "",
					"type": "bool"
				}
			],
			"stateMutability": "view",
			"type": "function"
		},
		{
			"inputs": [],
			"name": "leaveClan",
			"outputs": [],
			"stateMutability": "nonpayable",
			"type": "function"
		},
		{
			"inputs": [],
			"name": "lopToken",
			"outputs": [
				{
					"internalType": "contract IHarmLop",
					"name": "",
					"type": "address"
				}
			],
			"stateMutability": "view",
			"type": "function"
		},
		{
			"inputs": [
				{
					"internalType": "address",
					"name": "",
					"type": "address"
				}
			],
			"name": "members",
			"outputs": [
				{
					"internalType": "uint8",
					"name": "clanId",
					"type": "uint8"
				},
				{
					"internalType": "bool",
					"name": "isMember",
					"type": "bool"
				}
			],
			"stateMutability": "view",
			"type": "function"
		},
		{
			"inputs": [
				{
					"internalType": "uint8",
					"name": "x",
					"type": "uint8"
				},
				{
					"internalType": "uint8",
					"name": "y",
					"type": "uint8"
				},
				{
					"internalType": "string",
					"name": "newName",
					"type": "string"
				}
			],
			"name": "nameTile",
			"outputs": [],
			"stateMutability": "nonpayable",
			"type": "function"
		},
		{
			"inputs": [],
			"name": "nftMarket",
			"outputs": [
				{
					"internalType": "contract IMyNFTMarket",
					"name": "",
					"type": "address"
				}
			],
			"stateMutability": "view",
			"type": "function"
		},
		{
			"inputs": [
				{
					"internalType": "address",
					"name": "",
					"type": "address"
				}
			],
			"name": "pendingInvites",
			"outputs": [
				{
					"internalType": "uint8",
					"name": "",
					"type": "uint8"
				}
			],
			"stateMutability": "view",
			"type": "function"
		},
		{
			"inputs": [],
			"name": "refuseInvite",
			"outputs": [],
			"stateMutability": "nonpayable",
			"type": "function"
		},
		{
			"inputs": [
				{
					"internalType": "uint8",
					"name": "clanId",
					"type": "uint8"
				},
				{
					"internalType": "address",
					"name": "member",
					"type": "address"
				}
			],
			"name": "removeMember",
			"outputs": [],
			"stateMutability": "nonpayable",
			"type": "function"
		},
		{
			"inputs": [
				{
					"internalType": "uint8",
					"name": "clanId",
					"type": "uint8"
				},
				{
					"internalType": "uint256",
					"name": "tokenId",
					"type": "uint256"
				}
			],
			"name": "setClanFlag",
			"outputs": [],
			"stateMutability": "nonpayable",
			"type": "function"
		},
		{
			"inputs": [
				{
					"internalType": "string",
					"name": "handle",
					"type": "string"
				}
			],
			"name": "setTwitterHandle",
			"outputs": [],
			"stateMutability": "nonpayable",
			"type": "function"
		},
		{
			"inputs": [],
			"name": "theLand",
			"outputs": [
				{
					"internalType": "contract ITheLand",
					"name": "",
					"type": "address"
				}
			],
			"stateMutability": "view",
			"type": "function"
		},
		{
			"inputs": [
				{
					"internalType": "uint8",
					"name": "",
					"type": "uint8"
				},
				{
					"internalType": "uint8",
					"name": "",
					"type": "uint8"
				}
			],
			"name": "tileClans",
			"outputs": [
				{
					"internalType": "uint8",
					"name": "",
					"type": "uint8"
				}
			],
			"stateMutability": "view",
			"type": "function"
		},
		{
			"inputs": [],
			"name": "tileMapPhaser",
			"outputs": [
				{
					"internalType": "contract ITileMapPhaser",
					"name": "",
					"type": "address"
				}
			],
			"stateMutability": "view",
			"type": "function"
		},
		{
			"inputs": [
				{
					"internalType": "uint8",
					"name": "",
					"type": "uint8"
				},
				{
					"internalType": "uint8",
					"name": "",
					"type": "uint8"
				}
			],
			"name": "tileNames",
			"outputs": [
				{
					"internalType": "string",
					"name": "",
					"type": "string"
				}
			],
			"stateMutability": "view",
			"type": "function"
		},
		{
			"inputs": [
				{
					"internalType": "address",
					"name": "",
					"type": "address"
				}
			],
			"name": "twitterHandles",
			"outputs": [
				{
					"internalType": "string",
					"name": "",
					"type": "string"
				}
			],
			"stateMutability": "view",
			"type": "function"
		}
	]
}