{
	"data": {
		"bytecode": {
			"linkReferences": {},
			"object": "6080604052604051806102800160405280604051806102800160405280600460ff168152602001600460ff168152602001600460ff168152602001600460ff168152602001600460ff168152602001600460ff168152602001600360ff168152602001600360ff168152602001600360ff168152602001600360ff168152602001600360ff168152602001600360ff168152602001600260ff168152602001600260ff168152602001600160ff168152602001600260ff168152602001600260ff168152602001600260ff168152602001600260ff168152602001600260ff168152508152602001604051806102800160405280600460ff168152602001600460ff168152602001600460ff168152602001600460ff168152602001600460ff168152602001600460ff168152602001600460ff168152602001600360ff168152602001600360ff168152602001600360ff168152602001600360ff168152602001600360ff168152602001600260ff168152602001600160ff168152602001600160ff168152602001600260ff168152602001600260ff168152602001600260ff168152602001600260ff168152602001600260ff168152508152602001604051806102800160405280600460ff168152602001600460ff168152602001600460ff168152602001600460ff168152602001600460ff168152602001600460ff168152602001600460ff168152602001600460ff168152602001600360ff168152602001600360ff168152602001600360ff168152602001600360ff168152602001600260ff168152602001600260ff168152602001600160ff168152602001600160ff168152602001600260ff168152602001600260ff168152602001600260ff168152602001600260ff168152508152602001604051806102800160405280600460ff168152602001600460ff168152602001600460ff168152602001600460ff168152602001600460ff168152602001600460ff168152602001600460ff168152602001600460ff168152602001600360ff168152602001600360ff168152602001600360ff168152602001600360ff168152602001600360ff168152602001600160ff168152602001600160ff168152602001600160ff168152602001600260ff168152602001600260ff168152602001600260ff168152602001600260ff168152508152602001604051806102800160405280600360ff168152602001600360ff168152602001600360ff168152602001600360ff168152602001600360ff168152602001600360ff168152602001600360ff168152602001600360ff168152602001600360ff168152602001600360ff168152602001600360ff168152602001600360ff168152602001600160ff168152602001600160ff168152602001600160ff168152602001600160ff168152602001600260ff168152602001600260ff168152602001600260ff168152602001600260ff168152508152602001604051806102800160405280600360ff168152602001600360ff168152602001600360ff168152602001600360ff168152602001600360ff168152602001600360ff168152602001600360ff168152602001600360ff168152602001600360ff168152602001600360ff168152602001600360ff168152602001600360ff168152602001600160ff168152602001600160ff168152602001600160ff168152602001600160ff168152602001600260ff168152602001600260ff168152602001600260ff168152602001600260ff168152508152602001604051806102800160405280600360ff168152602001600360ff168152602001600360ff168152602001600360ff168152602001600360ff168152602001600360ff168152602001600360ff168152602001600360ff168152602001600360ff168152602001600360ff168152602001600360ff168152602001600360ff168152602001600160ff168152602001600160ff168152602001600160ff168152602001600160ff168152602001600160ff168152602001600160ff168152602001600160ff168152602001600160ff168152508152602001604051806102800160405280600360ff168152602001600360ff168152602001600360ff168152602001600160ff168152602001600360ff168152602001600360ff168152602001600360ff168152602001600360ff168152602001600360ff168152602001600360ff168152602001600360ff168152602001600160ff168152602001600260ff168152602001600260ff168152602001600260ff168152602001600260ff168152602001600160ff168152602001600160ff168152602001600160ff168152602001600160ff168152508152602001604051806102800160405280600360ff168152602001600360ff168152602001600360ff168152602001600160ff168152602001600160ff168152602001600260ff168152602001600260ff168152602001600260ff168152602001600260ff168152602001600260ff168152602001600260ff168152602001600160ff168152602001600260ff168152602001600260ff168152602001600260ff168152602001600260ff168152602001600260ff168152602001600260ff168152602001600260ff168152602001600160ff168152508152602001604051806102800160405280600160ff168152602001600260ff168152602001600260ff168152602001600160ff168152602001600260ff168152602001600260ff168152602001600260ff168152602001600260ff168152602001600260ff168152602001600260ff168152602001600260ff168152602001600160ff168152602001600260ff168152602001600260ff168152602001600260ff168152602001600260ff168152602001600260ff168152602001600260ff168152602001600260ff168152602001600160ff168152508152602001604051806102800160405280600260ff168152602001600260ff168152602001600160ff168152602001600160ff168152602001600260ff168152602001600260ff168152602001600260ff168152602001600260ff168152602001600260ff168152602001600260ff168152602001600160ff168152602001600160ff168152602001600260ff168152602001600260ff168152602001600260ff168152602001600260ff168152602001600260ff168152602001600260ff168152602001600160ff168152602001600160ff168152508152602001604051806102800160405280600360ff168152602001600360ff168152602001600360ff168152602001600260ff168152602001600160ff168152602001600260ff168152602001600260ff168152602001600260ff168152602001600260ff168152602001600260ff168152602001600160ff168152602001600260ff168152602001600260ff168152602001600260ff168152602001600260ff168152602001600160ff168152602001600160ff168152602001600160ff168152602001600160ff168152602001600160ff168152508152602001604051806102800160405280600360ff168152602001600360ff168152602001600360ff168152602001600360ff168152602001600160ff168152602001600160ff168152602001600260ff168152602001600260ff168152602001600260ff168152602001600260ff168152602001600160ff168152602001600160ff168152602001600260ff168152602001600260ff168152602001600260ff168152602001600160ff168152602001600160ff168152602001600160ff168152602001600160ff168152602001600160ff168152508152602001604051806102800160405280600360ff168152602001600360ff168152602001600360ff168152602001600360ff168152602001600360ff168152602001600160ff168152602001600260ff168152602001600260ff168152602001600260ff168152602001600260ff168152602001600160ff168152602001600160ff168152602001600160ff168152602001600260ff168152602001600260ff168152602001600260ff168152602001600260ff168152602001600160ff168152602001600160ff168152602001600160ff168152508152602001604051806102800160405280600360ff168152602001600360ff168152602001600360ff168152602001600360ff168152602001600360ff168152602001600260ff168152602001600260ff168152602001600260ff168152602001600360ff168152602001600360ff168152602001600260ff168152602001600260ff168152602001600160ff168152602001600260ff168152602001600260ff168152602001600260ff168152602001600260ff168152602001600160ff168152602001600160ff168152602001600160ff168152508152602001604051806102800160405280600260ff168152602001600260ff168152602001600260ff168152602001600160ff168152602001600160ff168152602001600160ff168152602001600160ff168152602001600160ff168152602001600360ff168152602001600360ff168152602001600360ff168152602001600360ff168152602001600160ff168152602001600160ff168152602001600260ff168152602001600260ff168152602001600260ff168152602001600160ff168152602001600160ff168152602001600160ff168152508152602001604051806102800160405280600260ff168152602001600260ff168152602001600260ff168152602001600260ff168152602001600260ff168152602001600260ff168152602001600160ff168152602001600160ff168152602001600360ff168152602001600360ff168152602001600360ff168152602001600360ff168152602001600160ff168152602001600160ff168152602001600160ff168152602001600160ff168152602001600360ff168152602001600360ff168152602001600260ff168152602001600260ff168152508152602001604051806102800160405280600260ff168152602001600260ff168152602001600260ff168152602001600260ff168152602001600260ff168152602001600260ff168152602001600260ff168152602001600160ff168152602001600360ff168152602001600360ff168152602001600360ff168152602001600360ff168152602001600160ff168152602001600160ff168152602001600160ff168152602001600160ff168152602001600360ff168152602001600360ff168152602001600260ff168152602001600260ff168152508152602001604051806102800160405280600260ff168152602001600260ff168152602001600260ff168152602001600260ff168152602001600260ff168152602001600260ff168152602001600260ff168152602001600160ff168152602001600160ff168152602001600260ff168152602001600260ff168152602001600160ff168152602001600160ff168152602001600260ff168152602001600260ff168152602001600160ff168152602001600360ff168152602001600360ff168152602001600260ff168152602001600260ff168152508152602001604051806102800160405280600260ff168152602001600260ff168152602001600260ff168152602001600260ff168152602001600260ff168152602001600260ff168152602001600260ff168152602001600160ff168152602001600160ff168152602001600160ff168152602001600160ff168152602001600160ff168152602001600160ff168152602001600160ff168152602001600160ff168152602001600360ff168152602001600360ff168152602001600360ff168152602001600260ff168152602001600260ff168152508152506000906014620010ec9291906200122e565b50348015620010fa57600080fd5b50604051620071f6380380620071f68339818101604052810190620011209190620013dc565b83601460006101000a81548173ffffffffffffffffffffffffffffffffffffffff021916908373ffffffffffffffffffffffffffffffffffffffff16021790555082601560006101000a81548173ffffffffffffffffffffffffffffffffffffffff021916908373ffffffffffffffffffffffffffffffffffffffff16021790555081601e60006101000a81548173ffffffffffffffffffffffffffffffffffffffff021916908373ffffffffffffffffffffffffffffffffffffffff16021790555080601660006101000a81548173ffffffffffffffffffffffffffffffffffffffff021916908373ffffffffffffffffffffffffffffffffffffffff160217905550505050506200144e565b826014810192821562001270579160200282015b828111156200126f578251829060146200125e92919062001283565b509160200191906001019062001242565b5b5090506200127f919062001324565b5090565b826014601f01602090048101928215620013115791602002820160005b83821115620012e057835183826101000a81548160ff021916908360ff1602179055509260200192600101602081600001049283019260010302620012a0565b80156200130f5782816101000a81549060ff0219169055600101602081600001049283019260010302620012e0565b505b5090506200132091906200134c565b5090565b5b808211156200134857600081816200133e91906200136b565b5060010162001325565b5090565b5b80821115620013675760008160009055506001016200134d565b5090565b5060009055565b600080fd5b600073ffffffffffffffffffffffffffffffffffffffff82169050919050565b6000620013a48262001377565b9050919050565b620013b68162001397565b8114620013c257600080fd5b50565b600081519050620013d681620013ab565b92915050565b60008060008060808587031215620013f957620013f862001372565b5b60006200140987828801620013c5565b94505060206200141c87828801620013c5565b93505060406200142f87828801620013c5565b92505060606200144287828801620013c5565b91505092959194509250565b615d98806200145e6000396000f3fe608060405234801561001057600080fd5b506004361061021c5760003560e01c80636927480311610125578063b0d77774116100ad578063c2024ede1161007c578063c2024ede14610666578063d4ceeec014610682578063ea0e35b1146106b5578063eaa10576146106d3578063f15ad264146107035761021c565b8063b0d77774146105f2578063bbb4d3e914610610578063bc9955a21461061a578063bde7ef821461064a5761021c565b806386722228116100f457806386722228146105745780639adff8d01461057e5780639b21d6eb1461059a5780639d995717146105b8578063aae1aa37146105e85761021c565b806369274803146104da578063731ae689146104f65780637ab9e7fe146105145780637b0c98ef146105445761021c565b80631db8d500116101a85780632fad0429116101775780632fad0429146104205780634f264b031461045057806358612a201461046e57806362c5813d1461049e57806365191666146104bc5761021c565b80631db8d500146103865780632a2026a9146103b65780632dec2e63146103e65780632f57741c146104045761021c565b80630d67f59e116101ef5780630d67f59e146102ce57806313a5cede146102ec57806314cebc711461031c578063196ab1ab146103385780631d0373ad146103565761021c565b80630636fcb2146102215780630821de3e1461025157806308ae4b0c1461026d57806309e59cec1461029e575b600080fd5b61023b60048036038101906102369190613e62565b610733565b6040516102489190613f7f565b60405180910390f35b61026b60048036038101906102669190614006565b6107da565b005b610287600480360381019061028291906140a6565b610aab565b6040516102959291906140fd565b60405180910390f35b6102b860048036038101906102b39190614126565b610ae9565b6040516102c591906141f6565b60405180910390f35b6102d6610bac565b6040516102e39190614277565b60405180910390f35b610306600480360381019061030191906140a6565b610bd2565b60405161031391906141f6565b60405180910390f35b61033660048036038101906103319190614292565b610c72565b005b6103406112c4565b60405161034d9190614300565b60405180910390f35b610370600480360381019061036b91906140a6565b6112ea565b60405161037d919061431b565b60405180910390f35b6103a0600480360381019061039b919061436c565b61130a565b6040516103ad91906143bb565b60405180910390f35b6103d060048036038101906103cb9190614126565b611358565b6040516103dd919061431b565b60405180910390f35b6103ee6113fa565b6040516103fb91906144f8565b60405180910390f35b61041e60048036038101906104199190614292565b611600565b005b61043a60048036038101906104359190613e62565b611653565b60405161044791906145d6565b60405180910390f35b6104586117a6565b6040516104659190614619565b60405180910390f35b61048860048036038101906104839190614126565b6117cc565b604051610495919061431b565b60405180910390f35b6104a66117fb565b6040516104b39190614643565b60405180910390f35b6104c4611804565b6040516104d19190614643565b60405180910390f35b6104f460048036038101906104ef919061465e565b61180d565b005b6104fe611bdc565b60405161050b9190614643565b60405180910390f35b61052e60048036038101906105299190614126565b611be5565b60405161053b919061431b565b60405180910390f35b61055e60048036038101906105599190614126565b611c2d565b60405161056b91906141f6565b60405180910390f35b61057c611cda565b005b6105986004803603810190610593919061436c565b611dbd565b005b6105a26122df565b6040516105af91906147c3565b60405180910390f35b6105d260048036038101906105cd9190613e62565b612590565b6040516105df919061431b565b60405180910390f35b6105f061262c565b005b6105fa612b7e565b6040516106079190614806565b60405180910390f35b610618612ba4565b005b610634600480360381019061062f9190614821565b612ff0565b604051610641919061431b565b60405180910390f35b610664600480360381019061065f9190613e62565b61302c565b005b610680600480360381019061067b919061465e565b613445565b005b61069c60048036038101906106979190613e62565b6139c0565b6040516106ac9493929190614861565b60405180910390f35b6106bd613ab2565b6040516106ca919061431b565b60405180910390f35b6106ed60048036038101906106e89190613e62565b613ab7565b6040516106fa9190614643565b60405180910390f35b61071d600480360381019061071891906140a6565b613acf565b60405161072a91906141f6565b60405180910390f35b6060601960008360ff1660ff1681526020019081526020016000208054806020026020016040519081016040528092919081815260200182805480156107ce57602002820191906000526020600020905b8160009054906101000a900473ffffffffffffffffffffffffffffffffffffffff1673ffffffffffffffffffffffffffffffffffffffff1681526020019060010190808311610784575b50505050509050919050565b60008282905011610820576040517f08c379a0000000000000000000000000000000000000000000000000000000008152600401610817906148f9565b60405180910390fd5b3373ffffffffffffffffffffffffffffffffffffffff16601460009054906101000a900473ffffffffffffffffffffffffffffffffffffffff1673ffffffffffffffffffffffffffffffffffffffff16638a88895386866040518363ffffffff1660e01b8152600401610894929190614919565b602060405180830381865afa1580156108b1573d6000803e3d6000fd5b505050506040513d601f19601f820116820180604052508101906108d59190614957565b73ffffffffffffffffffffffffffffffffffffffff161461092b576040517f08c379a0000000000000000000000000000000000000000000000000000000008152600401610922906149f6565b60405180910390fd5b601560009054906101000a900473ffffffffffffffffffffffffffffffffffffffff1673ffffffffffffffffffffffffffffffffffffffff166323b872dd33306402540be4006040518463ffffffff1660e01b815260040161098f93929190614a16565b6020604051808303816000875af11580156109ae573d6000803e3d6000fd5b505050506040513d601f19601f820116820180604052508101906109d29190614a79565b610a11576040517f08c379a0000000000000000000000000000000000000000000000000000000008152600401610a0890614af2565b60405180910390fd5b8181601b60008760ff1660ff16815260200190815260200160002060008660ff1660ff1681526020019081526020016000209182610a50929190614d4e565b503373ffffffffffffffffffffffffffffffffffffffff167f4ca3860ff74978d12a483f5d8fa68a3f3c3ceb09b008784dc253bfbc348ab3e885858585604051610a9d9493929190614e5a565b60405180910390a250505050565b60186020528060005260406000206000915090508060000160009054906101000a900460ff16908060000160019054906101000a900460ff16905082565b6060601b60008460ff1660ff16815260200190815260200160002060008360ff1660ff1681526020019081526020016000208054610b2690614b7b565b80601f0160208091040260200160405190810160405280929190818152602001828054610b5290614b7b565b8015610b9f5780601f10610b7457610100808354040283529160200191610b9f565b820191906000526020600020905b815481529060010190602001808311610b8257829003601f168201915b5050505050905092915050565b601560009054906101000a900473ffffffffffffffffffffffffffffffffffffffff1681565b601c6020528060005260406000206000915090508054610bf190614b7b565b80601f0160208091040260200160405190810160405280929190818152602001828054610c1d90614b7b565b8015610c6a5780601f10610c3f57610100808354040283529160200191610c6a565b820191906000526020600020905b815481529060010190602001808311610c4d57829003601f168201915b505050505081565b610c7b33613ba0565b610cba576040517f08c379a0000000000000000000000000000000000000000000000000000000008152600401610cb190614f0c565b60405180910390fd5b60008282905011610d00576040517f08c379a0000000000000000000000000000000000000000000000000000000008152600401610cf790614f78565b60405180910390fd5b601860003373ffffffffffffffffffffffffffffffffffffffff1673ffffffffffffffffffffffffffffffffffffffff16815260200190815260200160002060000160019054906101000a900460ff1615610d90576040517f08c379a0000000000000000000000000000000000000000000000000000000008152600401610d8790614fe4565b60405180910390fd5b600080610d9c33613c45565b91509150601660009054906101000a900473ffffffffffffffffffffffffffffffffffffffff1673ffffffffffffffffffffffffffffffffffffffff1663e3198e08336040518263ffffffff1660e01b8152600401610dfb91906143bb565b602060405180830381865afa158015610e18573d6000803e3d6000fd5b505050506040513d601f19601f82011682018060405250810190610e3c9190614a79565b610e7b576040517f08c379a0000000000000000000000000000000000000000000000000000000008152600401610e7290615050565b60405180910390fd5b601560009054906101000a900473ffffffffffffffffffffffffffffffffffffffff1673ffffffffffffffffffffffffffffffffffffffff166323b872dd333064174876e8006040518463ffffffff1660e01b8152600401610edf93929190614a16565b6020604051808303816000875af1158015610efe573d6000803e3d6000fd5b505050506040513d601f19601f82011682018060405250810190610f229190614a79565b610f61576040517f08c379a0000000000000000000000000000000000000000000000000000000008152600401610f58906150bc565b60405180910390fd5b6016601481819054906101000a900460ff1680929190610f809061510b565b91906101000a81548160ff021916908360ff16021790555050604051806080016040528085858080601f016020809104026020016040519081016040528093929190818152602001838380828437600081840152601f19601f8201169050808301925050505050505081526020013373ffffffffffffffffffffffffffffffffffffffff168152602001600160ff1681526020016001151581525060176000601660149054906101000a900460ff1660ff1660ff16815260200190815260200160002060008201518160000190816110589190615134565b5060208201518160010160006101000a81548173ffffffffffffffffffffffffffffffffffffffff021916908373ffffffffffffffffffffffffffffffffffffffff16021790555060408201518160010160146101000a81548160ff021916908360ff16021790555060608201518160010160156101000a81548160ff0219169083151502179055509050506040518060400160405280601660149054906101000a900460ff1660ff16815260200160011515815250601860003373ffffffffffffffffffffffffffffffffffffffff1673ffffffffffffffffffffffffffffffffffffffff16815260200190815260200160002060008201518160000160006101000a81548160ff021916908360ff16021790555060208201518160000160016101000a81548160ff02191690831515021790555090505060196000601660149054906101000a900460ff1660ff1660ff168152602001908152602001600020339080600181540180825580915050600190039060005260206000200160009091909190916101000a81548173ffffffffffffffffffffffffffffffffffffffff021916908373ffffffffffffffffffffffffffffffffffffffff160217905550601660149054906101000a900460ff16601d60008460ff1660ff16815260200190815260200160002060008360ff1660ff16815260200190815260200160002060006101000a81548160ff021916908360ff1602179055507f02894fc6a8646076b891138309ffb3fc9086490a703074b2b2d77c5dcddb43de601660149054906101000a900460ff168585336040516112b69493929190615206565b60405180910390a150505050565b601e60009054906101000a900473ffffffffffffffffffffffffffffffffffffffff1681565b601a6020528060005260406000206000915054906101000a900460ff1681565b6019602052816000526040600020818154811061132657600080fd5b906000526020600020016000915091509054906101000a900473ffffffffffffffffffffffffffffffffffffffff1681565b600060148360ff16108015611370575060148260ff16105b6113af576040517f08c379a00000000000000000000000000000000000000000000000000000000081526004016113a690615292565b60405180910390fd5b60008360ff16601481106113c6576113c56152b2565b5b018260ff16601481106113dc576113db6152b2565b5b602091828204019190069054906101000a900460ff16905092915050565b60606000805b60148160ff1610156114995760005b60148160ff161015611485576000601d60008460ff1660ff16815260200190815260200160002060008360ff1660ff16815260200190815260200160002060009054906101000a900460ff1660ff161461147257828061146e906152e1565b9350505b808061147d9061510b565b91505061140f565b5080806114919061510b565b915050611400565b5060008167ffffffffffffffff8111156114b6576114b5614b1d565b5b6040519080825280602002602001820160405280156114ef57816020015b6114dc613d23565b8152602001906001900390816114d45790505b5090506000805b60148160ff1610156115f65760005b60148160ff1610156115e2576000601d60008460ff1660ff16815260200190815260200160002060008360ff1660ff16815260200190815260200160002060009054906101000a900460ff16905060008160ff16146115ce5760405180608001604052808460ff1681526020018360ff1681526020018260ff168152602001601f60008460ff1660ff168152602001908152602001600020548152508585815181106115b4576115b36152b2565b5b602002602001018190525083806115ca906152e1565b9450505b5080806115da9061510b565b915050611505565b5080806115ee9061510b565b9150506114f6565b5081935050505090565b8181601c60003373ffffffffffffffffffffffffffffffffffffffff1673ffffffffffffffffffffffffffffffffffffffff168152602001908152602001600020918261164e929190614d4e565b505050565b61165b613d54565b601760008360ff1660ff16815260200190815260200160002060405180608001604052908160008201805461168f90614b7b565b80601f01602080910402602001604051908101604052809291908181526020018280546116bb90614b7b565b80156117085780601f106116dd57610100808354040283529160200191611708565b820191906000526020600020905b8154815290600101906020018083116116eb57829003601f168201915b505050505081526020016001820160009054906101000a900473ffffffffffffffffffffffffffffffffffffffff1673ffffffffffffffffffffffffffffffffffffffff1673ffffffffffffffffffffffffffffffffffffffff1681526020016001820160149054906101000a900460ff1660ff1660ff1681526020016001820160159054906101000a900460ff1615151515815250509050919050565b601460009054906101000a900473ffffffffffffffffffffffffffffffffffffffff1681565b601d6020528160005260406000206020528060005260406000206000915091509054906101000a900460ff1681565b6402540be40081565b6402540be40081565b813373ffffffffffffffffffffffffffffffffffffffff16601760008360ff1660ff16815260200190815260200160002060010160009054906101000a900473ffffffffffffffffffffffffffffffffffffffff1673ffffffffffffffffffffffffffffffffffffffff16146118b8576040517f08c379a00000000000000000000000000000000000000000000000000000000081526004016118af9061539b565b60405180910390fd5b601760008460ff1660ff16815260200190815260200160002060010160159054906101000a900460ff16611921576040517f08c379a000000000000000000000000000000000000000000000000000000000815260040161191890615407565b60405180910390fd5b601e60ff16601760008560ff1660ff16815260200190815260200160002060010160149054906101000a900460ff1660ff1610611993576040517f08c379a000000000000000000000000000000000000000000000000000000000815260040161198a90615473565b60405180910390fd5b601860008373ffffffffffffffffffffffffffffffffffffffff1673ffffffffffffffffffffffffffffffffffffffff16815260200190815260200160002060000160019054906101000a900460ff1615611a23576040517f08c379a0000000000000000000000000000000000000000000000000000000008152600401611a1a906154df565b60405180910390fd5b611a2c82613ba0565b611a6b576040517f08c379a0000000000000000000000000000000000000000000000000000000008152600401611a629061554b565b60405180910390fd5b601660009054906101000a900473ffffffffffffffffffffffffffffffffffffffff1673ffffffffffffffffffffffffffffffffffffffff1663e3198e08336040518263ffffffff1660e01b8152600401611ac691906143bb565b602060405180830381865afa158015611ae3573d6000803e3d6000fd5b505050506040513d601f19601f82011682018060405250810190611b079190614a79565b611b46576040517f08c379a0000000000000000000000000000000000000000000000000000000008152600401611b3d90615050565b60405180910390fd5b82601a60008473ffffffffffffffffffffffffffffffffffffffff1673ffffffffffffffffffffffffffffffffffffffff16815260200190815260200160002060006101000a81548160ff021916908360ff1602179055507ffb5973cb72c6bf58be94ff6ad4a5497b4361c5a70e78c75e83627cf0e1396df68383604051611bcf92919061556b565b60405180910390a1505050565b64174876e80081565b6000601d60008460ff1660ff16815260200190815260200160002060008360ff1660ff16815260200190815260200160002060009054906101000a900460ff16905092915050565b601b602052816000526040600020602052806000526040600020600091509150508054611c5990614b7b565b80601f0160208091040260200160405190810160405280929190818152602001828054611c8590614b7b565b8015611cd25780601f10611ca757610100808354040283529160200191611cd2565b820191906000526020600020905b815481529060010190602001808311611cb557829003601f168201915b505050505081565b6000601a60003373ffffffffffffffffffffffffffffffffffffffff1673ffffffffffffffffffffffffffffffffffffffff16815260200190815260200160002060009054906101000a900460ff1660ff1611611d6c576040517f08c379a0000000000000000000000000000000000000000000000000000000008152600401611d63906155e0565b60405180910390fd5b601a60003373ffffffffffffffffffffffffffffffffffffffff1673ffffffffffffffffffffffffffffffffffffffff16815260200190815260200160002060006101000a81549060ff0219169055565b813373ffffffffffffffffffffffffffffffffffffffff16601760008360ff1660ff16815260200190815260200160002060010160009054906101000a900473ffffffffffffffffffffffffffffffffffffffff1673ffffffffffffffffffffffffffffffffffffffff1614611e68576040517f08c379a0000000000000000000000000000000000000000000000000000000008152600401611e5f9061539b565b60405180910390fd5b8260ff16601860003373ffffffffffffffffffffffffffffffffffffffff1673ffffffffffffffffffffffffffffffffffffffff16815260200190815260200160002060000160009054906101000a900460ff1660ff1614611eff576040517f08c379a0000000000000000000000000000000000000000000000000000000008152600401611ef69061564c565b60405180910390fd5b3373ffffffffffffffffffffffffffffffffffffffff16601e60009054906101000a900473ffffffffffffffffffffffffffffffffffffffff1673ffffffffffffffffffffffffffffffffffffffff16636352211e846040518263ffffffff1660e01b8152600401611f719190614643565b602060405180830381865afa158015611f8e573d6000803e3d6000fd5b505050506040513d601f19601f82011682018060405250810190611fb29190614957565b73ffffffffffffffffffffffffffffffffffffffff1614612008576040517f08c379a0000000000000000000000000000000000000000000000000000000008152600401611fff906156b8565b60405180910390fd5b6000601e60009054906101000a900473ffffffffffffffffffffffffffffffffffffffff1673ffffffffffffffffffffffffffffffffffffffff16630ad4c4f4846040518263ffffffff1660e01b81526004016120659190614643565b600060405180830381865afa158015612082573d6000803e3d6000fd5b505050506040513d6000823e3d601f19601f820116820180604052508101906120ab91906157df565b509950505050505050505050600181146120fa576040517f08c379a00000000000000000000000000000000000000000000000000000000081526004016120f1906159ed565b60405180910390fd5b601660009054906101000a900473ffffffffffffffffffffffffffffffffffffffff1673ffffffffffffffffffffffffffffffffffffffff1663e3198e08336040518263ffffffff1660e01b815260040161215591906143bb565b602060405180830381865afa158015612172573d6000803e3d6000fd5b505050506040513d601f19601f820116820180604052508101906121969190614a79565b6121d5576040517f08c379a00000000000000000000000000000000000000000000000000000000081526004016121cc90615050565b60405180910390fd5b601560009054906101000a900473ffffffffffffffffffffffffffffffffffffffff1673ffffffffffffffffffffffffffffffffffffffff166323b872dd33306402540be4006040518463ffffffff1660e01b815260040161223993929190614a16565b6020604051808303816000875af1158015612258573d6000803e3d6000fd5b505050506040513d601f19601f8201168201806040525081019061227c9190614a79565b6122bb576040517f08c379a00000000000000000000000000000000000000000000000000000000081526004016122b2906150bc565b60405180910390fd5b82601f60008660ff1660ff1681526020019081526020016000208190555050505050565b6060600080600190505b601660149054906101000a900460ff1660ff168160ff161161235657601760008260ff1660ff16815260200190815260200160002060010160159054906101000a900460ff161561234357818061233f906152e1565b9250505b808061234e9061510b565b9150506122e9565b5060008167ffffffffffffffff81111561237357612372614b1d565b5b6040519080825280602002602001820160405280156123ac57816020015b612399613d54565b8152602001906001900390816123915790505b509050600080600190505b601660149054906101000a900460ff1660ff168160ff161161258657601760008260ff1660ff16815260200190815260200160002060010160159054906101000a900460ff161561257357601760008260ff1660ff16815260200190815260200160002060405180608001604052908160008201805461243690614b7b565b80601f016020809104026020016040519081016040528092919081815260200182805461246290614b7b565b80156124af5780601f10612484576101008083540402835291602001916124af565b820191906000526020600020905b81548152906001019060200180831161249257829003601f168201915b505050505081526020016001820160009054906101000a900473ffffffffffffffffffffffffffffffffffffffff1673ffffffffffffffffffffffffffffffffffffffff1673ffffffffffffffffffffffffffffffffffffffff1681526020016001820160149054906101000a900460ff1660ff1660ff1681526020016001820160159054906101000a900460ff161515151581525050838381518110612559576125586152b2565b5b6020026020010181905250818061256f906152e1565b9250505b808061257e9061510b565b9150506123b7565b5081935050505090565b6000601760008360ff1660ff16815260200190815260200160002060010160159054906101000a900460ff166125fb576040517f08c379a00000000000000000000000000000000000000000000000000000000081526004016125f290615407565b60405180910390fd5b601760008360ff1660ff16815260200190815260200160002060010160149054906101000a900460ff169050919050565b601860003373ffffffffffffffffffffffffffffffffffffffff1673ffffffffffffffffffffffffffffffffffffffff16815260200190815260200160002060000160019054906101000a900460ff166126bb576040517f08c379a00000000000000000000000000000000000000000000000000000000081526004016126b290615a59565b60405180910390fd5b6000601860003373ffffffffffffffffffffffffffffffffffffffff1673ffffffffffffffffffffffffffffffffffffffff16815260200190815260200160002060000160009054906101000a900460ff169050601760008260ff1660ff16815260200190815260200160002060010160159054906101000a900460ff16612778576040517f08c379a000000000000000000000000000000000000000000000000000000000815260040161276f90615407565b60405180910390fd5b3373ffffffffffffffffffffffffffffffffffffffff16601760008360ff1660ff16815260200190815260200160002060010160009054906101000a900473ffffffffffffffffffffffffffffffffffffffff1673ffffffffffffffffffffffffffffffffffffffff1603612822576040517f08c379a000000000000000000000000000000000000000000000000000000000815260040161281990615aeb565b60405180910390fd5b6000601860003373ffffffffffffffffffffffffffffffffffffffff1673ffffffffffffffffffffffffffffffffffffffff16815260200190815260200160002060000160016101000a81548160ff021916908315150217905550601760008260ff1660ff168152602001908152602001600020600101601481819054906101000a900460ff16809291906128b690615b0b565b91906101000a81548160ff021916908360ff1602179055505060005b601960008360ff1660ff16815260200190815260200160002080549050811015612ae5573373ffffffffffffffffffffffffffffffffffffffff16601960008460ff1660ff1681526020019081526020016000208281548110612938576129376152b2565b5b9060005260206000200160009054906101000a900473ffffffffffffffffffffffffffffffffffffffff1673ffffffffffffffffffffffffffffffffffffffff1603612ad257601960008360ff1660ff1681526020019081526020016000206001601960008560ff1660ff168152602001908152602001600020805490506129c09190615b34565b815481106129d1576129d06152b2565b5b9060005260206000200160009054906101000a900473ffffffffffffffffffffffffffffffffffffffff16601960008460ff1660ff1681526020019081526020016000208281548110612a2757612a266152b2565b5b9060005260206000200160006101000a81548173ffffffffffffffffffffffffffffffffffffffff021916908373ffffffffffffffffffffffffffffffffffffffff160217905550601960008360ff1660ff168152602001908152602001600020805480612a9857612a97615b68565b5b6001900381819060005260206000200160006101000a81549073ffffffffffffffffffffffffffffffffffffffff02191690559055612ae5565b8080612add906152e1565b9150506128d2565b50600080612af233613c45565b915091506000601d60008460ff1660ff16815260200190815260200160002060008360ff1660ff16815260200190815260200160002060006101000a81548160ff021916908360ff1602179055507f45c35f53284761dc1375da434dfc7ec6a908fd346cb7ef4b10b8a75d6cb837528333604051612b7192919061556b565b60405180910390a1505050565b601660009054906101000a900473ffffffffffffffffffffffffffffffffffffffff1681565b612bad33613ba0565b612bec576040517f08c379a0000000000000000000000000000000000000000000000000000000008152600401612be390614f0c565b60405180910390fd5b6000601a60003373ffffffffffffffffffffffffffffffffffffffff1673ffffffffffffffffffffffffffffffffffffffff16815260200190815260200160002060009054906101000a900460ff16905060008160ff1611612c83576040517f08c379a0000000000000000000000000000000000000000000000000000000008152600401612c7a90615be3565b60405180910390fd5b601860003373ffffffffffffffffffffffffffffffffffffffff1673ffffffffffffffffffffffffffffffffffffffff16815260200190815260200160002060000160019054906101000a900460ff1615612d13576040517f08c379a0000000000000000000000000000000000000000000000000000000008152600401612d0a90614fe4565b60405180910390fd5b601e60ff16601760008360ff1660ff16815260200190815260200160002060010160149054906101000a900460ff1660ff1610612d9f57601a60003373ffffffffffffffffffffffffffffffffffffffff1673ffffffffffffffffffffffffffffffffffffffff16815260200190815260200160002060006101000a81549060ff021916905550612fee565b60405180604001604052808260ff16815260200160011515815250601860003373ffffffffffffffffffffffffffffffffffffffff1673ffffffffffffffffffffffffffffffffffffffff16815260200190815260200160002060008201518160000160006101000a81548160ff021916908360ff16021790555060208201518160000160016101000a81548160ff021916908315150217905550905050601960008260ff1660ff168152602001908152602001600020339080600181540180825580915050600190039060005260206000200160009091909190916101000a81548173ffffffffffffffffffffffffffffffffffffffff021916908373ffffffffffffffffffffffffffffffffffffffff160217905550601760008260ff1660ff168152602001908152602001600020600101601481819054906101000a900460ff1680929190612ef09061510b565b91906101000a81548160ff021916908360ff16021790555050600080612f1533613c45565b9150915082601d60008460ff1660ff16815260200190815260200160002060008360ff1660ff16815260200190815260200160002060006101000a81548160ff021916908360ff160217905550601a60003373ffffffffffffffffffffffffffffffffffffffff1673ffffffffffffffffffffffffffffffffffffffff16815260200190815260200160002060006101000a81549060ff02191690557fc5e51b833a5e5ecfbbcb0d5586d2b0ab450b38d9b32d440cb37f37cc30de68748333604051612fe292919061556b565b60405180910390a15050505b565b6000826014811061300057600080fd5b01816014811061300f57600080fd5b60209182820401919006915091509054906101000a900460ff1681565b803373ffffffffffffffffffffffffffffffffffffffff16601760008360ff1660ff16815260200190815260200160002060010160009054906101000a900473ffffffffffffffffffffffffffffffffffffffff1673ffffffffffffffffffffffffffffffffffffffff16146130d7576040517f08c379a00000000000000000000000000000000000000000000000000000000081526004016130ce9061539b565b60405180910390fd5b601760008360ff1660ff16815260200190815260200160002060010160159054906101000a900460ff16613140576040517f08c379a000000000000000000000000000000000000000000000000000000000815260040161313790615407565b60405180910390fd5b601660009054906101000a900473ffffffffffffffffffffffffffffffffffffffff1673ffffffffffffffffffffffffffffffffffffffff1663e3198e08336040518263ffffffff1660e01b815260040161319b91906143bb565b602060405180830381865afa1580156131b8573d6000803e3d6000fd5b505050506040513d601f19601f820116820180604052508101906131dc9190614a79565b61321b576040517f08c379a000000000000000000000000000000000000000000000000000000000815260040161321290615050565b60405180910390fd5b60005b601960008460ff1660ff16815260200190815260200160002080549050811015613367576000601960008560ff1660ff168152602001908152602001600020828154811061326f5761326e6152b2565b5b9060005260206000200160009054906101000a900473ffffffffffffffffffffffffffffffffffffffff1690506000601860008373ffffffffffffffffffffffffffffffffffffffff1673ffffffffffffffffffffffffffffffffffffffff16815260200190815260200160002060000160016101000a81548160ff02191690831515021790555060008061330383613c45565b915091506000601d60008460ff1660ff16815260200190815260200160002060008360ff1660ff16815260200190815260200160002060006101000a81548160ff021916908360ff160217905550505050808061335f906152e1565b91505061321e565b50601960008360ff1660ff168152602001908152602001600020600061338d9190613d97565b601760008360ff1660ff168152602001908152602001600020600080820160006133b79190613db8565b6001820160006101000a81549073ffffffffffffffffffffffffffffffffffffffff02191690556001820160146101000a81549060ff02191690556001820160156101000a81549060ff021916905550507ff010a46a390deaaab5cc4bd6bd1242ccc401c860a7b758c8a71c6ea769287d34823360405161343992919061556b565b60405180910390a15050565b813373ffffffffffffffffffffffffffffffffffffffff16601760008360ff1660ff16815260200190815260200160002060010160009054906101000a900473ffffffffffffffffffffffffffffffffffffffff1673ffffffffffffffffffffffffffffffffffffffff16146134f0576040517f08c379a00000000000000000000000000000000000000000000000000000000081526004016134e79061539b565b60405180910390fd5b8260ff16601860008473ffffffffffffffffffffffffffffffffffffffff1673ffffffffffffffffffffffffffffffffffffffff16815260200190815260200160002060000160009054906101000a900460ff1660ff1614613587576040517f08c379a000000000000000000000000000000000000000000000000000000000815260040161357e90615c4f565b60405180910390fd5b601660009054906101000a900473ffffffffffffffffffffffffffffffffffffffff1673ffffffffffffffffffffffffffffffffffffffff1663e3198e08336040518263ffffffff1660e01b81526004016135e291906143bb565b602060405180830381865afa1580156135ff573d6000803e3d6000fd5b505050506040513d601f19601f820116820180604052508101906136239190614a79565b613662576040517f08c379a000000000000000000000000000000000000000000000000000000000815260040161365990615050565b60405180910390fd5b6000601860008473ffffffffffffffffffffffffffffffffffffffff1673ffffffffffffffffffffffffffffffffffffffff16815260200190815260200160002060000160016101000a81548160ff021916908315150217905550601760008460ff1660ff168152602001908152602001600020600101601481819054906101000a900460ff16809291906136f690615b0b565b91906101000a81548160ff021916908360ff1602179055505060005b601960008560ff1660ff16815260200190815260200160002080549050811015613925578273ffffffffffffffffffffffffffffffffffffffff16601960008660ff1660ff1681526020019081526020016000208281548110613778576137776152b2565b5b9060005260206000200160009054906101000a900473ffffffffffffffffffffffffffffffffffffffff1673ffffffffffffffffffffffffffffffffffffffff160361391257601960008560ff1660ff1681526020019081526020016000206001601960008760ff1660ff168152602001908152602001600020805490506138009190615b34565b81548110613811576138106152b2565b5b9060005260206000200160009054906101000a900473ffffffffffffffffffffffffffffffffffffffff16601960008660ff1660ff1681526020019081526020016000208281548110613867576138666152b2565b5b9060005260206000200160006101000a81548173ffffffffffffffffffffffffffffffffffffffff021916908373ffffffffffffffffffffffffffffffffffffffff160217905550601960008560ff1660ff1681526020019081526020016000208054806138d8576138d7615b68565b5b6001900381819060005260206000200160006101000a81549073ffffffffffffffffffffffffffffffffffffffff02191690559055613925565b808061391d906152e1565b915050613712565b5060008061393284613c45565b915091506000601d60008460ff1660ff16815260200190815260200160002060008360ff1660ff16815260200190815260200160002060006101000a81548160ff021916908360ff1602179055507f45c35f53284761dc1375da434dfc7ec6a908fd346cb7ef4b10b8a75d6cb8375285856040516139b192919061556b565b60405180910390a15050505050565b60176020528060005260406000206000915090508060000180546139e390614b7b565b80601f0160208091040260200160405190810160405280929190818152602001828054613a0f90614b7b565b8015613a5c5780601f10613a3157610100808354040283529160200191613a5c565b820191906000526020600020905b815481529060010190602001808311613a3f57829003601f168201915b5050505050908060010160009054906101000a900473ffffffffffffffffffffffffffffffffffffffff16908060010160149054906101000a900460ff16908060010160159054906101000a900460ff16905084565b601e81565b601f6020528060005260406000206000915090505481565b6060601c60008373ffffffffffffffffffffffffffffffffffffffff1673ffffffffffffffffffffffffffffffffffffffff1681526020019081526020016000208054613b1b90614b7b565b80601f0160208091040260200160405190810160405280929190818152602001828054613b4790614b7b565b8015613b945780601f10613b6957610100808354040283529160200191613b94565b820191906000526020600020905b815481529060010190602001808311613b7757829003601f168201915b50505050509050919050565b6000601460009054906101000a900473ffffffffffffffffffffffffffffffffffffffff1673ffffffffffffffffffffffffffffffffffffffff16632cfdf9b1836040518263ffffffff1660e01b8152600401613bfd91906143bb565b602060405180830381865afa158015613c1a573d6000803e3d6000fd5b505050506040513d601f19601f82011682018060405250810190613c3e9190614a79565b9050919050565b6000806000601460009054906101000a900473ffffffffffffffffffffffffffffffffffffffff1673ffffffffffffffffffffffffffffffffffffffff16632400a3b0856040518263ffffffff1660e01b8152600401613ca591906143bb565b6040805180830381865afa158015613cc1573d6000803e3d6000fd5b505050506040513d601f19601f82011682018060405250810190613ce59190615d35565b905080600060028110613cfb57613cfa6152b2565b5b602002015181600160028110613d1457613d136152b2565b5b60200201519250925050915091565b6040518060800160405280600060ff168152602001600060ff168152602001600060ff168152602001600081525090565b604051806080016040528060608152602001600073ffffffffffffffffffffffffffffffffffffffff168152602001600060ff1681526020016000151581525090565b5080546000825590600052602060002090810190613db59190613df8565b50565b508054613dc490614b7b565b6000825580601f10613dd65750613df5565b601f016020900490600052602060002090810190613df49190613df8565b5b50565b5b80821115613e11576000816000905550600101613df9565b5090565b6000604051905090565b600080fd5b600080fd5b600060ff82169050919050565b613e3f81613e29565b8114613e4a57600080fd5b50565b600081359050613e5c81613e36565b92915050565b600060208284031215613e7857613e77613e1f565b5b6000613e8684828501613e4d565b91505092915050565b600081519050919050565b600082825260208201905092915050565b6000819050602082019050919050565b600073ffffffffffffffffffffffffffffffffffffffff82169050919050565b6000613ee682613ebb565b9050919050565b613ef681613edb565b82525050565b6000613f088383613eed565b60208301905092915050565b6000602082019050919050565b6000613f2c82613e8f565b613f368185613e9a565b9350613f4183613eab565b8060005b83811015613f72578151613f598882613efc565b9750613f6483613f14565b925050600181019050613f45565b5085935050505092915050565b60006020820190508181036000830152613f998184613f21565b905092915050565b600080fd5b600080fd5b600080fd5b60008083601f840112613fc657613fc5613fa1565b5b8235905067ffffffffffffffff811115613fe357613fe2613fa6565b5b602083019150836001820283011115613fff57613ffe613fab565b5b9250929050565b600080600080606085870312156140205761401f613e1f565b5b600061402e87828801613e4d565b945050602061403f87828801613e4d565b935050604085013567ffffffffffffffff8111156140605761405f613e24565b5b61406c87828801613fb0565b925092505092959194509250565b61408381613edb565b811461408e57600080fd5b50565b6000813590506140a08161407a565b92915050565b6000602082840312156140bc576140bb613e1f565b5b60006140ca84828501614091565b91505092915050565b6140dc81613e29565b82525050565b60008115159050919050565b6140f7816140e2565b82525050565b600060408201905061411260008301856140d3565b61411f60208301846140ee565b9392505050565b6000806040838503121561413d5761413c613e1f565b5b600061414b85828601613e4d565b925050602061415c85828601613e4d565b9150509250929050565b600081519050919050565b600082825260208201905092915050565b60005b838110156141a0578082015181840152602081019050614185565b60008484015250505050565b6000601f19601f8301169050919050565b60006141c882614166565b6141d28185614171565b93506141e2818560208601614182565b6141eb816141ac565b840191505092915050565b6000602082019050818103600083015261421081846141bd565b905092915050565b6000819050919050565b600061423d61423861423384613ebb565b614218565b613ebb565b9050919050565b600061424f82614222565b9050919050565b600061426182614244565b9050919050565b61427181614256565b82525050565b600060208201905061428c6000830184614268565b92915050565b600080602083850312156142a9576142a8613e1f565b5b600083013567ffffffffffffffff8111156142c7576142c6613e24565b5b6142d385828601613fb0565b92509250509250929050565b60006142ea82614244565b9050919050565b6142fa816142df565b82525050565b600060208201905061431560008301846142f1565b92915050565b600060208201905061433060008301846140d3565b92915050565b6000819050919050565b61434981614336565b811461435457600080fd5b50565b60008135905061436681614340565b92915050565b6000806040838503121561438357614382613e1f565b5b600061439185828601613e4d565b92505060206143a285828601614357565b9150509250929050565b6143b581613edb565b82525050565b60006020820190506143d060008301846143ac565b92915050565b600081519050919050565b600082825260208201905092915050565b6000819050602082019050919050565b61440b81613e29565b82525050565b61441a81614336565b82525050565b6080820160008201516144366000850182614402565b5060208201516144496020850182614402565b50604082015161445c6040850182614402565b50606082015161446f6060850182614411565b50505050565b60006144818383614420565b60808301905092915050565b6000602082019050919050565b60006144a5826143d6565b6144af81856143e1565b93506144ba836143f2565b8060005b838110156144eb5781516144d28882614475565b97506144dd8361448d565b9250506001810190506144be565b5085935050505092915050565b60006020820190508181036000830152614512818461449a565b905092915050565b600082825260208201905092915050565b600061453682614166565b614540818561451a565b9350614550818560208601614182565b614559816141ac565b840191505092915050565b61456d816140e2565b82525050565b60006080830160008301518482036000860152614590828261452b565b91505060208301516145a56020860182613eed565b5060408301516145b86040860182614402565b5060608301516145cb6060860182614564565b508091505092915050565b600060208201905081810360008301526145f08184614573565b905092915050565b600061460382614244565b9050919050565b614613816145f8565b82525050565b600060208201905061462e600083018461460a565b92915050565b61463d81614336565b82525050565b60006020820190506146586000830184614634565b92915050565b6000806040838503121561467557614674613e1f565b5b600061468385828601613e4d565b925050602061469485828601614091565b9150509250929050565b600081519050919050565b600082825260208201905092915050565b6000819050602082019050919050565b600060808301600083015184820360008601526146e7828261452b565b91505060208301516146fc6020860182613eed565b50604083015161470f6040860182614402565b5060608301516147226060860182614564565b508091505092915050565b600061473983836146ca565b905092915050565b6000602082019050919050565b60006147598261469e565b61476381856146a9565b935083602082028501614775856146ba565b8060005b858110156147b15784840389528151614792858261472d565b945061479d83614741565b925060208a01995050600181019050614779565b50829750879550505050505092915050565b600060208201905081810360008301526147dd818461474e565b905092915050565b60006147f082614244565b9050919050565b614800816147e5565b82525050565b600060208201905061481b60008301846147f7565b92915050565b6000806040838503121561483857614837613e1f565b5b600061484685828601614357565b925050602061485785828601614357565b9150509250929050565b6000608082019050818103600083015261487b81876141bd565b905061488a60208301866143ac565b61489760408301856140d3565b6148a460608301846140ee565b95945050505050565b7f4e616d652063616e6e6f7420626520656d707479000000000000000000000000600082015250565b60006148e3601483614171565b91506148ee826148ad565b602082019050919050565b60006020820190508181036000830152614912816148d6565b9050919050565b600060408201905061492e60008301856140d3565b61493b60208301846140d3565b9392505050565b6000815190506149518161407a565b92915050565b60006020828403121561496d5761496c613e1f565b5b600061497b84828501614942565b91505092915050565b7f596f7520617265206e6f7420746865206f776e6572206f66207468697320746960008201527f6c65000000000000000000000000000000000000000000000000000000000000602082015250565b60006149e0602283614171565b91506149eb82614984565b604082019050919050565b60006020820190508181036000830152614a0f816149d3565b9050919050565b6000606082019050614a2b60008301866143ac565b614a3860208301856143ac565b614a456040830184614634565b949350505050565b614a56816140e2565b8114614a6157600080fd5b50565b600081519050614a7381614a4d565b92915050565b600060208284031215614a8f57614a8e613e1f565b5b6000614a9d84828501614a64565b91505092915050565b7f546f6b656e207061796d656e74206661696c6564000000000000000000000000600082015250565b6000614adc601483614171565b9150614ae782614aa6565b602082019050919050565b60006020820190508181036000830152614b0b81614acf565b9050919050565b600082905092915050565b7f4e487b7100000000000000000000000000000000000000000000000000000000600052604160045260246000fd5b7f4e487b7100000000000000000000000000000000000000000000000000000000600052602260045260246000fd5b60006002820490506001821680614b9357607f821691505b602082108103614ba657614ba5614b4c565b5b50919050565b60008190508160005260206000209050919050565b60006020601f8301049050919050565b600082821b905092915050565b600060088302614c0e7fffffffffffffffffffffffffffffffffffffffffffffffffffffffffffffffff82614bd1565b614c188683614bd1565b95508019841693508086168417925050509392505050565b6000614c4b614c46614c4184614336565b614218565b614336565b9050919050565b6000819050919050565b614c6583614c30565b614c79614c7182614c52565b848454614bde565b825550505050565b600090565b614c8e614c81565b614c99818484614c5c565b505050565b5b81811015614cbd57614cb2600082614c86565b600181019050614c9f565b5050565b601f821115614d0257614cd381614bac565b614cdc84614bc1565b81016020851015614ceb578190505b614cff614cf785614bc1565b830182614c9e565b50505b505050565b600082821c905092915050565b6000614d2560001984600802614d07565b1980831691505092915050565b6000614d3e8383614d14565b9150826002028217905092915050565b614d588383614b12565b67ffffffffffffffff811115614d7157614d70614b1d565b5b614d7b8254614b7b565b614d86828285614cc1565b6000601f831160018114614db55760008415614da3578287013590505b614dad8582614d32565b865550614e15565b601f198416614dc386614bac565b60005b82811015614deb57848901358255600182019150602085019450602081019050614dc6565b86831015614e085784890135614e04601f891682614d14565b8355505b6001600288020188555050505b50505050505050565b82818337600083830152505050565b6000614e398385614171565b9350614e46838584614e1e565b614e4f836141ac565b840190509392505050565b6000606082019050614e6f60008301876140d3565b614e7c60208301866140d3565b8181036040830152614e8f818486614e2d565b905095945050505050565b7f596f75206d757374206f776e20612074696c6520746f20637265617465206f7260008201527f206a6f696e206120636c616e0000000000000000000000000000000000000000602082015250565b6000614ef6602c83614171565b9150614f0182614e9a565b604082019050919050565b60006020820190508181036000830152614f2581614ee9565b9050919050565b7f436c616e206e616d652063616e6e6f7420626520656d70747900000000000000600082015250565b6000614f62601983614171565b9150614f6d82614f2c565b602082019050919050565b60006020820190508181036000830152614f9181614f55565b9050919050565b7f416c726561647920696e206120636c616e000000000000000000000000000000600082015250565b6000614fce601183614171565b9150614fd982614f98565b602082019050919050565b60006020820190508181036000830152614ffd81614fc1565b9050919050565b7f596f75206d7573742068617665206120436c616e2048616c6c00000000000000600082015250565b600061503a601983614171565b915061504582615004565b602082019050919050565b600060208201905081810360008301526150698161502d565b9050919050565b7f4c4f50207472616e73666572206661696c656400000000000000000000000000600082015250565b60006150a6601383614171565b91506150b182615070565b602082019050919050565b600060208201905081810360008301526150d581615099565b9050919050565b7f4e487b7100000000000000000000000000000000000000000000000000000000600052601160045260246000fd5b600061511682613e29565b915060ff8203615129576151286150dc565b5b600182019050919050565b61513d82614166565b67ffffffffffffffff81111561515657615155614b1d565b5b6151608254614b7b565b61516b828285614cc1565b600060209050601f83116001811461519e576000841561518c578287015190505b6151968582614d32565b8655506151fe565b601f1984166151ac86614bac565b60005b828110156151d4578489015182556001820191506020850194506020810190506151af565b868310156151f157848901516151ed601f891682614d14565b8355505b6001600288020188555050505b505050505050565b600060608201905061521b60008301876140d3565b818103602083015261522e818587614e2d565b905061523d60408301846143ac565b95945050505050565b7f496e76616c696420636f6f7264696e6174657300000000000000000000000000600082015250565b600061527c601383614171565b915061528782615246565b602082019050919050565b600060208201905081810360008301526152ab8161526f565b9050919050565b7f4e487b7100000000000000000000000000000000000000000000000000000000600052603260045260246000fd5b60006152ec82614336565b91507fffffffffffffffffffffffffffffffffffffffffffffffffffffffffffffffff820361531e5761531d6150dc565b5b600182019050919050565b7f4f6e6c7920636c616e206c65616465722063616e20706572666f726d2074686960008201527f7320616374696f6e000000000000000000000000000000000000000000000000602082015250565b6000615385602883614171565b915061539082615329565b604082019050919050565b600060208201905081810360008301526153b481615378565b9050919050565b7f436c616e20646f6573206e6f7420657869737400000000000000000000000000600082015250565b60006153f1601383614171565b91506153fc826153bb565b602082019050919050565b60006020820190508181036000830152615420816153e4565b9050919050565b7f436c616e2069732066756c6c0000000000000000000000000000000000000000600082015250565b600061545d600c83614171565b915061546882615427565b602082019050919050565b6000602082019050818103600083015261548c81615450565b9050919050565b7f506c6179657220697320616c726561647920696e206120636c616e0000000000600082015250565b60006154c9601b83614171565b91506154d482615493565b602082019050919050565b600060208201905081810360008301526154f8816154bc565b9050919050565b7f506c6179657220646f6573206e6f74206f776e20612074696c65000000000000600082015250565b6000615535601a83614171565b9150615540826154ff565b602082019050919050565b6000602082019050818103600083015261556481615528565b9050919050565b600060408201905061558060008301856140d3565b61558d60208301846143ac565b9392505050565b7f4e6f2070656e64696e6720696e7669746520746f207265667573650000000000600082015250565b60006155ca601b83614171565b91506155d582615594565b602082019050919050565b600060208201905081810360008301526155f9816155bd565b9050919050565b7f4e6f742061206d656d626572206f66207468697320636c616e00000000000000600082015250565b6000615636601983614171565b915061564182615600565b602082019050919050565b6000602082019050818103600083015261566581615629565b9050919050565b7f596f7520646f6e2774206f776e2074686973204e465400000000000000000000600082015250565b60006156a2601683614171565b91506156ad8261566c565b602082019050919050565b600060208201905081810360008301526156d181615695565b9050919050565b600080fd5b6156e6826141ac565b810181811067ffffffffffffffff8211171561570557615704614b1d565b5b80604052505050565b6000615718613e15565b905061572482826156dd565b919050565b600067ffffffffffffffff82111561574457615743614b1d565b5b61574d826141ac565b9050602081019050919050565b600061576d61576884615729565b61570e565b905082815260208101848484011115615789576157886156d8565b5b615794848285614182565b509392505050565b600082601f8301126157b1576157b0613fa1565b5b81516157c184826020860161575a565b91505092915050565b6000815190506157d981614340565b92915050565b60008060008060008060008060008060006101608c8e03121561580557615804613e1f565b5b60008c015167ffffffffffffffff81111561582357615822613e24565b5b61582f8e828f0161579c565b9b505060208c015167ffffffffffffffff8111156158505761584f613e24565b5b61585c8e828f0161579c565b9a505060408c015167ffffffffffffffff81111561587d5761587c613e24565b5b6158898e828f0161579c565b99505060608c015167ffffffffffffffff8111156158aa576158a9613e24565b5b6158b68e828f0161579c565b98505060806158c78e828f01614942565b97505060a06158d88e828f016157ca565b96505060c06158e98e828f016157ca565b95505060e08c015167ffffffffffffffff81111561590a57615909613e24565b5b6159168e828f0161579c565b9450506101008c015167ffffffffffffffff81111561593857615937613e24565b5b6159448e828f0161579c565b9350506101206159568e828f016157ca565b9250506101406159688e828f016157ca565b9150509295989b509295989b9093969950565b7f4f6e6c79204e4654732066726f6d20636f6c6c656374696f6e2049442031206360008201527f616e206265207573656420617320666c61677300000000000000000000000000602082015250565b60006159d7603383614171565b91506159e28261597b565b604082019050919050565b60006020820190508181036000830152615a06816159ca565b9050919050565b7f596f7520617265206e6f7420696e206120636c616e0000000000000000000000600082015250565b6000615a43601583614171565b9150615a4e82615a0d565b602082019050919050565b60006020820190508181036000830152615a7281615a36565b9050919050565b7f436c616e206c65616465722063616e6e6f74206c656176652074686520636c6160008201527f6e2e205573652064697362616e64436c616e20696e73746561642e0000000000602082015250565b6000615ad5603b83614171565b9150615ae082615a79565b604082019050919050565b60006020820190508181036000830152615b0481615ac8565b9050919050565b6000615b1682613e29565b915060008203615b2957615b286150dc565b5b600182039050919050565b6000615b3f82614336565b9150615b4a83614336565b9250828203905081811115615b6257615b616150dc565b5b92915050565b7f4e487b7100000000000000000000000000000000000000000000000000000000600052603160045260246000fd5b7f4e6f2070656e64696e6720696e7669746520666f756e64000000000000000000600082015250565b6000615bcd601783614171565b9150615bd882615b97565b602082019050919050565b60006020820190508181036000830152615bfc81615bc0565b9050919050565b7f4d656d626572206973206e6f7420696e207468697320636c616e000000000000600082015250565b6000615c39601a83614171565b9150615c4482615c03565b602082019050919050565b60006020820190508181036000830152615c6881615c2c565b9050919050565b600067ffffffffffffffff821115615c8a57615c89614b1d565b5b602082029050919050565b600081519050615ca481613e36565b92915050565b6000615cbd615cb884615c6f565b61570e565b90508060208402830185811115615cd757615cd6613fab565b5b835b81811015615d005780615cec8882615c95565b845260208401935050602081019050615cd9565b5050509392505050565b600082601f830112615d1f57615d1e613fa1565b5b6002615d2c848285615caa565b91505092915050565b600060408284031215615d4b57615d4a613e1f565b5b6000615d5984828501615d0a565b9150509291505056fea2646970667358221220f87da2244778a14c4fcbedb7b7e3aca2cf0ab165740464a14b84397070a5380364736f6c63430008120033",
			"opcodes": "PUSH1 0x80 PUSH1 0x40 MSTORE PUSH1 0x40 MLOAD DUP1 PUSH2 0x280 ADD PUSH1 0x40 MSTORE DUP1 PUSH1 0x40 MLOAD DUP1 PUSH2 0x280 ADD PUSH1 0x40 MSTORE DUP1 PUSH1 0x4 PUSH1 0xFF AND DUP2 MSTORE PUSH1 0x20 ADD PUSH1 0x4 PUSH1 0xFF AND DUP2 MSTORE PUSH1 0x20 ADD PUSH1 0x4 PUSH1 0xFF AND DUP2 MSTORE PUSH1 0x20 ADD PUSH1 0x4 PUSH1 0xFF AND DUP2 MSTORE PUSH1 0x20 ADD PUSH1 0x4 PUSH1 0xFF AND DUP2 MSTORE PUSH1 0x20 ADD PUSH1 0x4 PUSH1 0xFF AND DUP2 MSTORE PUSH1 0x20 ADD PUSH1 0x3 PUSH1 0xFF AND DUP2 MSTORE PUSH1 0x20 ADD PUSH1 0x3 PUSH1 0xFF AND DUP2 MSTORE PUSH1 0x20 ADD PUSH1 0x3 PUSH1 0xFF AND DUP2 MSTORE PUSH1 0x20 ADD PUSH1 0x3 PUSH1 0xFF AND DUP2 MSTORE PUSH1 0x20 ADD PUSH1 0x3 PUSH1 0xFF AND DUP2 MSTORE PUSH1 0x20 ADD PUSH1 0x3 PUSH1 0xFF AND DUP2 MSTORE PUSH1 0x20 ADD PUSH1 0x2 PUSH1 0xFF AND DUP2 MSTORE PUSH1 0x20 ADD PUSH1 0x2 PUSH1 0xFF AND DUP2 MSTORE PUSH1 0x20 ADD PUSH1 0x1 PUSH1 0xFF AND DUP2 MSTORE PUSH1 0x20 ADD PUSH1 0x2 PUSH1 0xFF AND DUP2 MSTORE PUSH1 0x20 ADD PUSH1 0x2 PUSH1 0xFF AND DUP2 MSTORE PUSH1 0x20 ADD PUSH1 0x2 PUSH1 0xFF AND DUP2 MSTORE PUSH1 0x20 ADD PUSH1 0x2 PUSH1 0xFF AND DUP2 MSTORE PUSH1 0x20 ADD PUSH1 0x2 PUSH1 0xFF AND DUP2 MSTORE POP DUP2 MSTORE PUSH1 0x20 ADD PUSH1 0x40 MLOAD DUP1 PUSH2 0x280 ADD PUSH1 0x40 MSTORE DUP1 PUSH1 0x4 PUSH1 0xFF AND DUP2 MSTORE PUSH1 0x20 ADD PUSH1 0x4 PUSH1 0xFF AND DUP2 MSTORE PUSH1 0x20 ADD PUSH1 0x4 PUSH1 0xFF AND DUP2 MSTORE PUSH1 0x20 ADD PUSH1 0x4 PUSH1 0xFF AND DUP2 MSTORE PUSH1 0x20 ADD PUSH1 0x4 PUSH1 0xFF AND DUP2 MSTORE PUSH1 0x20 ADD PUSH1 0x4 PUSH1 0xFF AND DUP2 MSTORE PUSH1 0x20 ADD PUSH1 0x4 PUSH1 0xFF AND DUP2 MSTORE PUSH1 0x20 ADD PUSH1 0x3 PUSH1 0xFF AND DUP2 MSTORE PUSH1 0x20 ADD PUSH1 0x3 PUSH1 0xFF AND DUP2 MSTORE PUSH1 0x20 ADD PUSH1 0x3 PUSH1 0xFF AND DUP2 MSTORE PUSH1 0x20 ADD PUSH1 0x3 PUSH1 0xFF AND DUP2 MSTORE PUSH1 0x20 ADD PUSH1 0x3 PUSH1 0xFF AND DUP2 MSTORE PUSH1 0x20 ADD PUSH1 0x2 PUSH1 0xFF AND DUP2 MSTORE PUSH1 0x20 ADD PUSH1 0x1 PUSH1 0xFF AND DUP2 MSTORE PUSH1 0x20 ADD PUSH1 0x1 PUSH1 0xFF AND DUP2 MSTORE PUSH1 0x20 ADD PUSH1 0x2 PUSH1 0xFF AND DUP2 MSTORE PUSH1 0x20 ADD PUSH1 0x2 PUSH1 0xFF AND DUP2 MSTORE PUSH1 0x20 ADD PUSH1 0x2 PUSH1 0xFF AND DUP2 MSTORE PUSH1 0x20 ADD PUSH1 0x2 PUSH1 0xFF AND DUP2 MSTORE PUSH1 0x20 ADD PUSH1 0x2 PUSH1 0xFF AND DUP2 MSTORE POP DUP2 MSTORE PUSH1 0x20 ADD PUSH1 0x40 MLOAD DUP1 PUSH2 0x280 ADD PUSH1 0x40 MSTORE DUP1 PUSH1 0x4 PUSH1 0xFF AND DUP2 MSTORE PUSH1 0x20 ADD PUSH1 0x4 PUSH1 0xFF AND DUP2 MSTORE PUSH1 0x20 ADD PUSH1 0x4 PUSH1 0xFF AND DUP2 MSTORE PUSH1 0x20 ADD PUSH1 0x4 PUSH1 0xFF AND DUP2 MSTORE PUSH1 0x20 ADD PUSH1 0x4 PUSH1 0xFF AND DUP2 MSTORE PUSH1 0x20 ADD PUSH1 0x4 PUSH1 0xFF AND DUP2 MSTORE PUSH1 0x20 ADD PUSH1 0x4 PUSH1 0xFF AND DUP2 MSTORE PUSH1 0x20 ADD PUSH1 0x4 PUSH1 0xFF AND DUP2 MSTORE PUSH1 0x20 ADD PUSH1 0x3 PUSH1 0xFF AND DUP2 MSTORE PUSH1 0x20 ADD PUSH1 0x3 PUSH1 0xFF AND DUP2 MSTORE PUSH1 0x20 ADD PUSH1 0x3 PUSH1 0xFF AND DUP2 MSTORE PUSH1 0x20 ADD PUSH1 0x3 PUSH1 0xFF AND DUP2 MSTORE PUSH1 0x20 ADD PUSH1 0x2 PUSH1 0xFF AND DUP2 MSTORE PUSH1 0x20 ADD PUSH1 0x2 PUSH1 0xFF AND DUP2 MSTORE PUSH1 0x20 ADD PUSH1 0x1 PUSH1 0xFF AND DUP2 MSTORE PUSH1 0x20 ADD PUSH1 0x1 PUSH1 0xFF AND DUP2 MSTORE PUSH1 0x20 ADD PUSH1 0x2 PUSH1 0xFF AND DUP2 MSTORE PUSH1 0x20 ADD PUSH1 0x2 PUSH1 0xFF AND DUP2 MSTORE PUSH1 0x20 ADD PUSH1 0x2 PUSH1 0xFF AND DUP2 MSTORE PUSH1 0x20 ADD PUSH1 0x2 PUSH1 0xFF AND DUP2 MSTORE POP DUP2 MSTORE PUSH1 0x20 ADD PUSH1 0x40 MLOAD DUP1 PUSH2 0x280 ADD PUSH1 0x40 MSTORE DUP1 PUSH1 0x4 PUSH1 0xFF AND DUP2 MSTORE PUSH1 0x20 ADD PUSH1 0x4 PUSH1 0xFF AND DUP2 MSTORE PUSH1 0x20 ADD PUSH1 0x4 PUSH1 0xFF AND DUP2 MSTORE PUSH1 0x20 ADD PUSH1 0x4 PUSH1 0xFF AND DUP2 MSTORE PUSH1 0x20 ADD PUSH1 0x4 PUSH1 0xFF AND DUP2 MSTORE PUSH1 0x20 ADD PUSH1 0x4 PUSH1 0xFF AND DUP2 MSTORE PUSH1 0x20 ADD PUSH1 0x4 PUSH1 0xFF AND DUP2 MSTORE PUSH1 0x20 ADD PUSH1 0x4 PUSH1 0xFF AND DUP2 MSTORE PUSH1 0x20 ADD PUSH1 0x3 PUSH1 0xFF AND DUP2 MSTORE PUSH1 0x20 ADD PUSH1 0x3 PUSH1 0xFF AND DUP2 MSTORE PUSH1 0x20 ADD PUSH1 0x3 PUSH1 0xFF AND DUP2 MSTORE PUSH1 0x20 ADD PUSH1 0x3 PUSH1 0xFF AND DUP2 MSTORE PUSH1 0x20 ADD PUSH1 0x3 PUSH1 0xFF AND DUP2 MSTORE PUSH1 0x20 ADD PUSH1 0x1 PUSH1 0xFF AND DUP2 MSTORE PUSH1 0x20 ADD PUSH1 0x1 PUSH1 0xFF AND DUP2 MSTORE PUSH1 0x20 ADD PUSH1 0x1 PUSH1 0xFF AND DUP2 MSTORE PUSH1 0x20 ADD PUSH1 0x2 PUSH1 0xFF AND DUP2 MSTORE PUSH1 0x20 ADD PUSH1 0x2 PUSH1 0xFF AND DUP2 MSTORE PUSH1 0x20 ADD PUSH1 0x2 PUSH1 0xFF AND DUP2 MSTORE PUSH1 0x20 ADD PUSH1 0x2 PUSH1 0xFF AND DUP2 MSTORE POP DUP2 MSTORE PUSH1 0x20 ADD PUSH1 0x40 MLOAD DUP1 PUSH2 0x280 ADD PUSH1 0x40 MSTORE DUP1 PUSH1 0x3 PUSH1 0xFF AND DUP2 MSTORE PUSH1 0x20 ADD PUSH1 0x3 PUSH1 0xFF AND DUP2 MSTORE PUSH1 0x20 ADD PUSH1 0x3 PUSH1 0xFF AND DUP2 MSTORE PUSH1 0x20 ADD PUSH1 0x3 PUSH1 0xFF AND DUP2 MSTORE PUSH1 0x20 ADD PUSH1 0x3 PUSH1 0xFF AND DUP2 MSTORE PUSH1 0x20 ADD PUSH1 0x3 PUSH1 0xFF AND DUP2 MSTORE PUSH1 0x20 ADD PUSH1 0x3 PUSH1 0xFF AND DUP2 MSTORE PUSH1 0x20 ADD PUSH1 0x3 PUSH1 0xFF AND DUP2 MSTORE PUSH1 0x20 ADD PUSH1 0x3 PUSH1 0xFF AND DUP2 MSTORE PUSH1 0x20 ADD PUSH1 0x3 PUSH1 0xFF AND DUP2 MSTORE PUSH1 0x20 ADD PUSH1 0x3 PUSH1 0xFF AND DUP2 MSTORE PUSH1 0x20 ADD PUSH1 0x3 PUSH1 0xFF AND DUP2 MSTORE PUSH1 0x20 ADD PUSH1 0x1 PUSH1 0xFF AND DUP2 MSTORE PUSH1 0x20 ADD PUSH1 0x1 PUSH1 0xFF AND DUP2 MSTORE PUSH1 0x20 ADD PUSH1 0x1 PUSH1 0xFF AND DUP2 MSTORE PUSH1 0x20 ADD PUSH1 0x1 PUSH1 0xFF AND DUP2 MSTORE PUSH1 0x20 ADD PUSH1 0x2 PUSH1 0xFF AND DUP2 MSTORE PUSH1 0x20 ADD PUSH1 0x2 PUSH1 0xFF AND DUP2 MSTORE PUSH1 0x20 ADD PUSH1 0x2 PUSH1 0xFF AND DUP2 MSTORE PUSH1 0x20 ADD PUSH1 0x2 PUSH1 0xFF AND DUP2 MSTORE POP DUP2 MSTORE PUSH1 0x20 ADD PUSH1 0x40 MLOAD DUP1 PUSH2 0x280 ADD PUSH1 0x40 MSTORE DUP1 PUSH1 0x3 PUSH1 0xFF AND DUP2 MSTORE PUSH1 0x20 ADD PUSH1 0x3 PUSH1 0xFF AND DUP2 MSTORE PUSH1 0x20 ADD PUSH1 0x3 PUSH1 0xFF AND DUP2 MSTORE PUSH1 0x20 ADD PUSH1 0x3 PUSH1 0xFF AND DUP2 MSTORE PUSH1 0x20 ADD PUSH1 0x3 PUSH1 0xFF AND DUP2 MSTORE PUSH1 0x20 ADD PUSH1 0x3 PUSH1 0xFF AND DUP2 MSTORE PUSH1 0x20 ADD PUSH1 0x3 PUSH1 0xFF AND DUP2 MSTORE PUSH1 0x20 ADD PUSH1 0x3 PUSH1 0xFF AND DUP2 MSTORE PUSH1 0x20 ADD PUSH1 0x3 PUSH1 0xFF AND DUP2 MSTORE PUSH1 0x20 ADD PUSH1 0x3 PUSH1 0xFF AND DUP2 MSTORE PUSH1 0x20 ADD PUSH1 0x3 PUSH1 0xFF AND DUP2 MSTORE PUSH1 0x20 ADD PUSH1 0x3 PUSH1 0xFF AND DUP2 MSTORE PUSH1 0x20 ADD PUSH1 0x1 PUSH1 0xFF AND DUP2 MSTORE PUSH1 0x20 ADD PUSH1 0x1 PUSH1 0xFF AND DUP2 MSTORE PUSH1 0x20 ADD PUSH1 0x1 PUSH1 0xFF AND DUP2 MSTORE PUSH1 0x20 ADD PUSH1 0x1 PUSH1 0xFF AND DUP2 MSTORE PUSH1 0x20 ADD PUSH1 0x2 PUSH1 0xFF AND DUP2 MSTORE PUSH1 0x20 ADD PUSH1 0x2 PUSH1 0xFF AND DUP2 MSTORE PUSH1 0x20 ADD PUSH1 0x2 PUSH1 0xFF AND DUP2 MSTORE PUSH1 0x20 ADD PUSH1 0x2 PUSH1 0xFF AND DUP2 MSTORE POP DUP2 MSTORE PUSH1 0x20 ADD PUSH1 0x40 MLOAD DUP1 PUSH2 0x280 ADD PUSH1 0x40 MSTORE DUP1 PUSH1 0x3 PUSH1 0xFF AND DUP2 MSTORE PUSH1 0x20 ADD PUSH1 0x3 PUSH1 0xFF AND DUP2 MSTORE PUSH1 0x20 ADD PUSH1 0x3 PUSH1 0xFF AND DUP2 MSTORE PUSH1 0x20 ADD PUSH1 0x3 PUSH1 0xFF AND DUP2 MSTORE PUSH1 0x20 ADD PUSH1 0x3 PUSH1 0xFF AND DUP2 MSTORE PUSH1 0x20 ADD PUSH1 0x3 PUSH1 0xFF AND DUP2 MSTORE PUSH1 0x20 ADD PUSH1 0x3 PUSH1 0xFF AND DUP2 MSTORE PUSH1 0x20 ADD PUSH1 0x3 PUSH1 0xFF AND DUP2 MSTORE PUSH1 0x20 ADD PUSH1 0x3 PUSH1 0xFF AND DUP2 MSTORE PUSH1 0x20 ADD PUSH1 0x3 PUSH1 0xFF AND DUP2 MSTORE PUSH1 0x20 ADD PUSH1 0x3 PUSH1 0xFF AND DUP2 MSTORE PUSH1 0x20 ADD PUSH1 0x3 PUSH1 0xFF AND DUP2 MSTORE PUSH1 0x20 ADD PUSH1 0x1 PUSH1 0xFF AND DUP2 MSTORE PUSH1 0x20 ADD PUSH1 0x1 PUSH1 0xFF AND DUP2 MSTORE PUSH1 0x20 ADD PUSH1 0x1 PUSH1 0xFF AND DUP2 MSTORE PUSH1 0x20 ADD PUSH1 0x1 PUSH1 0xFF AND DUP2 MSTORE PUSH1 0x20 ADD PUSH1 0x1 PUSH1 0xFF AND DUP2 MSTORE PUSH1 0x20 ADD PUSH1 0x1 PUSH1 0xFF AND DUP2 MSTORE PUSH1 0x20 ADD PUSH1 0x1 PUSH1 0xFF AND DUP2 MSTORE PUSH1 0x20 ADD PUSH1 0x1 PUSH1 0xFF AND DUP2 MSTORE POP DUP2 MSTORE PUSH1 0x20 ADD PUSH1 0x40 MLOAD DUP1 PUSH2 0x280 ADD PUSH1 0x40 MSTORE DUP1 PUSH1 0x3 PUSH1 0xFF AND DUP2 MSTORE PUSH1 0x20 ADD PUSH1 0x3 PUSH1 0xFF AND DUP2 MSTORE PUSH1 0x20 ADD PUSH1 0x3 PUSH1 0xFF AND DUP2 MSTORE PUSH1 0x20 ADD PUSH1 0x1 PUSH1 0xFF AND DUP2 MSTORE PUSH1 0x20 ADD PUSH1 0x3 PUSH1 0xFF AND DUP2 MSTORE PUSH1 0x20 ADD PUSH1 0x3 PUSH1 0xFF AND DUP2 MSTORE PUSH1 0x20 ADD PUSH1 0x3 PUSH1 0xFF AND DUP2 MSTORE PUSH1 0x20 ADD PUSH1 0x3 PUSH1 0xFF AND DUP2 MSTORE PUSH1 0x20 ADD PUSH1 0x3 PUSH1 0xFF AND DUP2 MSTORE PUSH1 0x20 ADD PUSH1 0x3 PUSH1 0xFF AND DUP2 MSTORE PUSH1 0x20 ADD PUSH1 0x3 PUSH1 0xFF AND DUP2 MSTORE PUSH1 0x20 ADD PUSH1 0x1 PUSH1 0xFF AND DUP2 MSTORE PUSH1 0x20 ADD PUSH1 0x2 PUSH1 0xFF AND DUP2 MSTORE PUSH1 0x20 ADD PUSH1 0x2 PUSH1 0xFF AND DUP2 MSTORE PUSH1 0x20 ADD PUSH1 0x2 PUSH1 0xFF AND DUP2 MSTORE PUSH1 0x20 ADD PUSH1 0x2 PUSH1 0xFF AND DUP2 MSTORE PUSH1 0x20 ADD PUSH1 0x1 PUSH1 0xFF AND DUP2 MSTORE PUSH1 0x20 ADD PUSH1 0x1 PUSH1 0xFF AND DUP2 MSTORE PUSH1 0x20 ADD PUSH1 0x1 PUSH1 0xFF AND DUP2 MSTORE PUSH1 0x20 ADD PUSH1 0x1 PUSH1 0xFF AND DUP2 MSTORE POP DUP2 MSTORE PUSH1 0x20 ADD PUSH1 0x40 MLOAD DUP1 PUSH2 0x280 ADD PUSH1 0x40 MSTORE DUP1 PUSH1 0x3 PUSH1 0xFF AND DUP2 MSTORE PUSH1 0x20 ADD PUSH1 0x3 PUSH1 0xFF AND DUP2 MSTORE PUSH1 0x20 ADD PUSH1 0x3 PUSH1 0xFF AND DUP2 MSTORE PUSH1 0x20 ADD PUSH1 0x1 PUSH1 0xFF AND DUP2 MSTORE PUSH1 0x20 ADD PUSH1 0x1 PUSH1 0xFF AND DUP2 MSTORE PUSH1 0x20 ADD PUSH1 0x2 PUSH1 0xFF AND DUP2 MSTORE PUSH1 0x20 ADD PUSH1 0x2 PUSH1 0xFF AND DUP2 MSTORE PUSH1 0x20 ADD PUSH1 0x2 PUSH1 0xFF AND DUP2 MSTORE PUSH1 0x20 ADD PUSH1 0x2 PUSH1 0xFF AND DUP2 MSTORE PUSH1 0x20 ADD PUSH1 0x2 PUSH1 0xFF AND DUP2 MSTORE PUSH1 0x20 ADD PUSH1 0x2 PUSH1 0xFF AND DUP2 MSTORE PUSH1 0x20 ADD PUSH1 0x1 PUSH1 0xFF AND DUP2 MSTORE PUSH1 0x20 ADD PUSH1 0x2 PUSH1 0xFF AND DUP2 MSTORE PUSH1 0x20 ADD PUSH1 0x2 PUSH1 0xFF AND DUP2 MSTORE PUSH1 0x20 ADD PUSH1 0x2 PUSH1 0xFF AND DUP2 MSTORE PUSH1 0x20 ADD PUSH1 0x2 PUSH1 0xFF AND DUP2 MSTORE PUSH1 0x20 ADD PUSH1 0x2 PUSH1 0xFF AND DUP2 MSTORE PUSH1 0x20 ADD PUSH1 0x2 PUSH1 0xFF AND DUP2 MSTORE PUSH1 0x20 ADD PUSH1 0x2 PUSH1 0xFF AND DUP2 MSTORE PUSH1 0x20 ADD PUSH1 0x1 PUSH1 0xFF AND DUP2 MSTORE POP DUP2 MSTORE PUSH1 0x20 ADD PUSH1 0x40 MLOAD DUP1 PUSH2 0x280 ADD PUSH1 0x40 MSTORE DUP1 PUSH1 0x1 PUSH1 0xFF AND DUP2 MSTORE PUSH1 0x20 ADD PUSH1 0x2 PUSH1 0xFF AND DUP2 MSTORE PUSH1 0x20 ADD PUSH1 0x2 PUSH1 0xFF AND DUP2 MSTORE PUSH1 0x20 ADD PUSH1 0x1 PUSH1 0xFF AND DUP2 MSTORE PUSH1 0x20 ADD PUSH1 0x2 PUSH1 0xFF AND DUP2 MSTORE PUSH1 0x20 ADD PUSH1 0x2 PUSH1 0xFF AND DUP2 MSTORE PUSH1 0x20 ADD PUSH1 0x2 PUSH1 0xFF AND DUP2 MSTORE PUSH1 0x20 ADD PUSH1 0x2 PUSH1 0xFF AND DUP2 MSTORE PUSH1 0x20 ADD PUSH1 0x2 PUSH1 0xFF AND DUP2 MSTORE PUSH1 0x20 ADD PUSH1 0x2 PUSH1 0xFF AND DUP2 MSTORE PUSH1 0x20 ADD PUSH1 0x2 PUSH1 0xFF AND DUP2 MSTORE PUSH1 0x20 ADD PUSH1 0x1 PUSH1 0xFF AND DUP2 MSTORE PUSH1 0x20 ADD PUSH1 0x2 PUSH1 0xFF AND DUP2 MSTORE PUSH1 0x20 ADD PUSH1 0x2 PUSH1 0xFF AND DUP2 MSTORE PUSH1 0x20 ADD PUSH1 0x2 PUSH1 0xFF AND DUP2 MSTORE PUSH1 0x20 ADD PUSH1 0x2 PUSH1 0xFF AND DUP2 MSTORE PUSH1 0x20 ADD PUSH1 0x2 PUSH1 0xFF AND DUP2 MSTORE PUSH1 0x20 ADD PUSH1 0x2 PUSH1 0xFF AND DUP2 MSTORE PUSH1 0x20 ADD PUSH1 0x2 PUSH1 0xFF AND DUP2 MSTORE PUSH1 0x20 ADD PUSH1 0x1 PUSH1 0xFF AND DUP2 MSTORE POP DUP2 MSTORE PUSH1 0x20 ADD PUSH1 0x40 MLOAD DUP1 PUSH2 0x280 ADD PUSH1 0x40 MSTORE DUP1 PUSH1 0x2 PUSH1 0xFF AND DUP2 MSTORE PUSH1 0x20 ADD PUSH1 0x2 PUSH1 0xFF AND DUP2 MSTORE PUSH1 0x20 ADD PUSH1 0x1 PUSH1 0xFF AND DUP2 MSTORE PUSH1 0x20 ADD PUSH1 0x1 PUSH1 0xFF AND DUP2 MSTORE PUSH1 0x20 ADD PUSH1 0x2 PUSH1 0xFF AND DUP2 MSTORE PUSH1 0x20 ADD PUSH1 0x2 PUSH1 0xFF AND DUP2 MSTORE PUSH1 0x20 ADD PUSH1 0x2 PUSH1 0xFF AND DUP2 MSTORE PUSH1 0x20 ADD PUSH1 0x2 PUSH1 0xFF AND DUP2 MSTORE PUSH1 0x20 ADD PUSH1 0x2 PUSH1 0xFF AND DUP2 MSTORE PUSH1 0x20 ADD PUSH1 0x2 PUSH1 0xFF AND DUP2 MSTORE PUSH1 0x20 ADD PUSH1 0x1 PUSH1 0xFF AND DUP2 MSTORE PUSH1 0x20 ADD PUSH1 0x1 PUSH1 0xFF AND DUP2 MSTORE PUSH1 0x20 ADD PUSH1 0x2 PUSH1 0xFF AND DUP2 MSTORE PUSH1 0x20 ADD PUSH1 0x2 PUSH1 0xFF AND DUP2 MSTORE PUSH1 0x20 ADD PUSH1 0x2 PUSH1 0xFF AND DUP2 MSTORE PUSH1 0x20 ADD PUSH1 0x2 PUSH1 0xFF AND DUP2 MSTORE PUSH1 0x20 ADD PUSH1 0x2 PUSH1 0xFF AND DUP2 MSTORE PUSH1 0x20 ADD PUSH1 0x2 PUSH1 0xFF AND DUP2 MSTORE PUSH1 0x20 ADD PUSH1 0x1 PUSH1 0xFF AND DUP2 MSTORE PUSH1 0x20 ADD PUSH1 0x1 PUSH1 0xFF AND DUP2 MSTORE POP DUP2 MSTORE PUSH1 0x20 ADD PUSH1 0x40 MLOAD DUP1 PUSH2 0x280 ADD PUSH1 0x40 MSTORE DUP1 PUSH1 0x3 PUSH1 0xFF AND DUP2 MSTORE PUSH1 0x20 ADD PUSH1 0x3 PUSH1 0xFF AND DUP2 MSTORE PUSH1 0x20 ADD PUSH1 0x3 PUSH1 0xFF AND DUP2 MSTORE PUSH1 0x20 ADD PUSH1 0x2 PUSH1 0xFF AND DUP2 MSTORE PUSH1 0x20 ADD PUSH1 0x1 PUSH1 0xFF AND DUP2 MSTORE PUSH1 0x20 ADD PUSH1 0x2 PUSH1 0xFF AND DUP2 MSTORE PUSH1 0x20 ADD PUSH1 0x2 PUSH1 0xFF AND DUP2 MSTORE PUSH1 0x20 ADD PUSH1 0x2 PUSH1 0xFF AND DUP2 MSTORE PUSH1 0x20 ADD PUSH1 0x2 PUSH1 0xFF AND DUP2 MSTORE PUSH1 0x20 ADD PUSH1 0x2 PUSH1 0xFF AND DUP2 MSTORE PUSH1 0x20 ADD PUSH1 0x1 PUSH1 0xFF AND DUP2 MSTORE PUSH1 0x20 ADD PUSH1 0x2 PUSH1 0xFF AND DUP2 MSTORE PUSH1 0x20 ADD PUSH1 0x2 PUSH1 0xFF AND DUP2 MSTORE PUSH1 0x20 ADD PUSH1 0x2 PUSH1 0xFF AND DUP2 MSTORE PUSH1 0x20 ADD PUSH1 0x2 PUSH1 0xFF AND DUP2 MSTORE PUSH1 0x20 ADD PUSH1 0x1 PUSH1 0xFF AND DUP2 MSTORE PUSH1 0x20 ADD PUSH1 0x1 PUSH1 0xFF AND DUP2 MSTORE PUSH1 0x20 ADD PUSH1 0x1 PUSH1 0xFF AND DUP2 MSTORE PUSH1 0x20 ADD PUSH1 0x1 PUSH1 0xFF AND DUP2 MSTORE PUSH1 0x20 ADD PUSH1 0x1 PUSH1 0xFF AND DUP2 MSTORE POP DUP2 MSTORE PUSH1 0x20 ADD PUSH1 0x40 MLOAD DUP1 PUSH2 0x280 ADD PUSH1 0x40 MSTORE DUP1 PUSH1 0x3 PUSH1 0xFF AND DUP2 MSTORE PUSH1 0x20 ADD PUSH1 0x3 PUSH1 0xFF AND DUP2 MSTORE PUSH1 0x20 ADD PUSH1 0x3 PUSH1 0xFF AND DUP2 MSTORE PUSH1 0x20 ADD PUSH1 0x3 PUSH1 0xFF AND DUP2 MSTORE PUSH1 0x20 ADD PUSH1 0x1 PUSH1 0xFF AND DUP2 MSTORE PUSH1 0x20 ADD PUSH1 0x1 PUSH1 0xFF AND DUP2 MSTORE PUSH1 0x20 ADD PUSH1 0x2 PUSH1 0xFF AND DUP2 MSTORE PUSH1 0x20 ADD PUSH1 0x2 PUSH1 0xFF AND DUP2 MSTORE PUSH1 0x20 ADD PUSH1 0x2 PUSH1 0xFF AND DUP2 MSTORE PUSH1 0x20 ADD PUSH1 0x2 PUSH1 0xFF AND DUP2 MSTORE PUSH1 0x20 ADD PUSH1 0x1 PUSH1 0xFF AND DUP2 MSTORE PUSH1 0x20 ADD PUSH1 0x1 PUSH1 0xFF AND DUP2 MSTORE PUSH1 0x20 ADD PUSH1 0x2 PUSH1 0xFF AND DUP2 MSTORE PUSH1 0x20 ADD PUSH1 0x2 PUSH1 0xFF AND DUP2 MSTORE PUSH1 0x20 ADD PUSH1 0x2 PUSH1 0xFF AND DUP2 MSTORE PUSH1 0x20 ADD PUSH1 0x1 PUSH1 0xFF AND DUP2 MSTORE PUSH1 0x20 ADD PUSH1 0x1 PUSH1 0xFF AND DUP2 MSTORE PUSH1 0x20 ADD PUSH1 0x1 PUSH1 0xFF AND DUP2 MSTORE PUSH1 0x20 ADD PUSH1 0x1 PUSH1 0xFF AND DUP2 MSTORE PUSH1 0x20 ADD PUSH1 0x1 PUSH1 0xFF AND DUP2 MSTORE POP DUP2 MSTORE PUSH1 0x20 ADD PUSH1 0x40 MLOAD DUP1 PUSH2 0x280 ADD PUSH1 0x40 MSTORE DUP1 PUSH1 0x3 PUSH1 0xFF AND DUP2 MSTORE PUSH1 0x20 ADD PUSH1 0x3 PUSH1 0xFF AND DUP2 MSTORE PUSH1 0x20 ADD PUSH1 0x3 PUSH1 0xFF AND DUP2 MSTORE PUSH1 0x20 ADD PUSH1 0x3 PUSH1 0xFF AND DUP2 MSTORE PUSH1 0x20 ADD PUSH1 0x3 PUSH1 0xFF AND DUP2 MSTORE PUSH1 0x20 ADD PUSH1 0x1 PUSH1 0xFF AND DUP2 MSTORE PUSH1 0x20 ADD PUSH1 0x2 PUSH1 0xFF AND DUP2 MSTORE PUSH1 0x20 ADD PUSH1 0x2 PUSH1 0xFF AND DUP2 MSTORE PUSH1 0x20 ADD PUSH1 0x2 PUSH1 0xFF AND DUP2 MSTORE PUSH1 0x20 ADD PUSH1 0x2 PUSH1 0xFF AND DUP2 MSTORE PUSH1 0x20 ADD PUSH1 0x1 PUSH1 0xFF AND DUP2 MSTORE PUSH1 0x20 ADD PUSH1 0x1 PUSH1 0xFF AND DUP2 MSTORE PUSH1 0x20 ADD PUSH1 0x1 PUSH1 0xFF AND DUP2 MSTORE PUSH1 0x20 ADD PUSH1 0x2 PUSH1 0xFF AND DUP2 MSTORE PUSH1 0x20 ADD PUSH1 0x2 PUSH1 0xFF AND DUP2 MSTORE PUSH1 0x20 ADD PUSH1 0x2 PUSH1 0xFF AND DUP2 MSTORE PUSH1 0x20 ADD PUSH1 0x2 PUSH1 0xFF AND DUP2 MSTORE PUSH1 0x20 ADD PUSH1 0x1 PUSH1 0xFF AND DUP2 MSTORE PUSH1 0x20 ADD PUSH1 0x1 PUSH1 0xFF AND DUP2 MSTORE PUSH1 0x20 ADD PUSH1 0x1 PUSH1 0xFF AND DUP2 MSTORE POP DUP2 MSTORE PUSH1 0x20 ADD PUSH1 0x40 MLOAD DUP1 PUSH2 0x280 ADD PUSH1 0x40 MSTORE DUP1 PUSH1 0x3 PUSH1 0xFF AND DUP2 MSTORE PUSH1 0x20 ADD PUSH1 0x3 PUSH1 0xFF AND DUP2 MSTORE PUSH1 0x20 ADD PUSH1 0x3 PUSH1 0xFF AND DUP2 MSTORE PUSH1 0x20 ADD PUSH1 0x3 PUSH1 0xFF AND DUP2 MSTORE PUSH1 0x20 ADD PUSH1 0x3 PUSH1 0xFF AND DUP2 MSTORE PUSH1 0x20 ADD PUSH1 0x2 PUSH1 0xFF AND DUP2 MSTORE PUSH1 0x20 ADD PUSH1 0x2 PUSH1 0xFF AND DUP2 MSTORE PUSH1 0x20 ADD PUSH1 0x2 PUSH1 0xFF AND DUP2 MSTORE PUSH1 0x20 ADD PUSH1 0x3 PUSH1 0xFF AND DUP2 MSTORE PUSH1 0x20 ADD PUSH1 0x3 PUSH1 0xFF AND DUP2 MSTORE PUSH1 0x20 ADD PUSH1 0x2 PUSH1 0xFF AND DUP2 MSTORE PUSH1 0x20 ADD PUSH1 0x2 PUSH1 0xFF AND DUP2 MSTORE PUSH1 0x20 ADD PUSH1 0x1 PUSH1 0xFF AND DUP2 MSTORE PUSH1 0x20 ADD PUSH1 0x2 PUSH1 0xFF AND DUP2 MSTORE PUSH1 0x20 ADD PUSH1 0x2 PUSH1 0xFF AND DUP2 MSTORE PUSH1 0x20 ADD PUSH1 0x2 PUSH1 0xFF AND DUP2 MSTORE PUSH1 0x20 ADD PUSH1 0x2 PUSH1 0xFF AND DUP2 MSTORE PUSH1 0x20 ADD PUSH1 0x1 PUSH1 0xFF AND DUP2 MSTORE PUSH1 0x20 ADD PUSH1 0x1 PUSH1 0xFF AND DUP2 MSTORE PUSH1 0x20 ADD PUSH1 0x1 PUSH1 0xFF AND DUP2 MSTORE POP DUP2 MSTORE PUSH1 0x20 ADD PUSH1 0x40 MLOAD DUP1 PUSH2 0x280 ADD PUSH1 0x40 MSTORE DUP1 PUSH1 0x2 PUSH1 0xFF AND DUP2 MSTORE PUSH1 0x20 ADD PUSH1 0x2 PUSH1 0xFF AND DUP2 MSTORE PUSH1 0x20 ADD PUSH1 0x2 PUSH1 0xFF AND DUP2 MSTORE PUSH1 0x20 ADD PUSH1 0x1 PUSH1 0xFF AND DUP2 MSTORE PUSH1 0x20 ADD PUSH1 0x1 PUSH1 0xFF AND DUP2 MSTORE PUSH1 0x20 ADD PUSH1 0x1 PUSH1 0xFF AND DUP2 MSTORE PUSH1 0x20 ADD PUSH1 0x1 PUSH1 0xFF AND DUP2 MSTORE PUSH1 0x20 ADD PUSH1 0x1 PUSH1 0xFF AND DUP2 MSTORE PUSH1 0x20 ADD PUSH1 0x3 PUSH1 0xFF AND DUP2 MSTORE PUSH1 0x20 ADD PUSH1 0x3 PUSH1 0xFF AND DUP2 MSTORE PUSH1 0x20 ADD PUSH1 0x3 PUSH1 0xFF AND DUP2 MSTORE PUSH1 0x20 ADD PUSH1 0x3 PUSH1 0xFF AND DUP2 MSTORE PUSH1 0x20 ADD PUSH1 0x1 PUSH1 0xFF AND DUP2 MSTORE PUSH1 0x20 ADD PUSH1 0x1 PUSH1 0xFF AND DUP2 MSTORE PUSH1 0x20 ADD PUSH1 0x2 PUSH1 0xFF AND DUP2 MSTORE PUSH1 0x20 ADD PUSH1 0x2 PUSH1 0xFF AND DUP2 MSTORE PUSH1 0x20 ADD PUSH1 0x2 PUSH1 0xFF AND DUP2 MSTORE PUSH1 0x20 ADD PUSH1 0x1 PUSH1 0xFF AND DUP2 MSTORE PUSH1 0x20 ADD PUSH1 0x1 PUSH1 0xFF AND DUP2 MSTORE PUSH1 0x20 ADD PUSH1 0x1 PUSH1 0xFF AND DUP2 MSTORE POP DUP2 MSTORE PUSH1 0x20 ADD PUSH1 0x40 MLOAD DUP1 PUSH2 0x280 ADD PUSH1 0x40 MSTORE DUP1 PUSH1 0x2 PUSH1 0xFF AND DUP2 MSTORE PUSH1 0x20 ADD PUSH1 0x2 PUSH1 0xFF AND DUP2 MSTORE PUSH1 0x20 ADD PUSH1 0x2 PUSH1 0xFF AND DUP2 MSTORE PUSH1 0x20 ADD PUSH1 0x2 PUSH1 0xFF AND DUP2 MSTORE PUSH1 0x20 ADD PUSH1 0x2 PUSH1 0xFF AND DUP2 MSTORE PUSH1 0x20 ADD PUSH1 0x2 PUSH1 0xFF AND DUP2 MSTORE PUSH1 0x20 ADD PUSH1 0x1 PUSH1 0xFF AND DUP2 MSTORE PUSH1 0x20 ADD PUSH1 0x1 PUSH1 0xFF AND DUP2 MSTORE PUSH1 0x20 ADD PUSH1 0x3 PUSH1 0xFF AND DUP2 MSTORE PUSH1 0x20 ADD PUSH1 0x3 PUSH1 0xFF AND DUP2 MSTORE PUSH1 0x20 ADD PUSH1 0x3 PUSH1 0xFF AND DUP2 MSTORE PUSH1 0x20 ADD PUSH1 0x3 PUSH1 0xFF AND DUP2 MSTORE PUSH1 0x20 ADD PUSH1 0x1 PUSH1 0xFF AND DUP2 MSTORE PUSH1 0x20 ADD PUSH1 0x1 PUSH1 0xFF AND DUP2 MSTORE PUSH1 0x20 ADD PUSH1 0x1 PUSH1 0xFF AND DUP2 MSTORE PUSH1 0x20 ADD PUSH1 0x1 PUSH1 0xFF AND DUP2 MSTORE PUSH1 0x20 ADD PUSH1 0x3 PUSH1 0xFF AND DUP2 MSTORE PUSH1 0x20 ADD PUSH1 0x3 PUSH1 0xFF AND DUP2 MSTORE PUSH1 0x20 ADD PUSH1 0x2 PUSH1 0xFF AND DUP2 MSTORE PUSH1 0x20 ADD PUSH1 0x2 PUSH1 0xFF AND DUP2 MSTORE POP DUP2 MSTORE PUSH1 0x20 ADD PUSH1 0x40 MLOAD DUP1 PUSH2 0x280 ADD PUSH1 0x40 MSTORE DUP1 PUSH1 0x2 PUSH1 0xFF AND DUP2 MSTORE PUSH1 0x20 ADD PUSH1 0x2 PUSH1 0xFF AND DUP2 MSTORE PUSH1 0x20 ADD PUSH1 0x2 PUSH1 0xFF AND DUP2 MSTORE PUSH1 0x20 ADD PUSH1 0x2 PUSH1 0xFF AND DUP2 MSTORE PUSH1 0x20 ADD PUSH1 0x2 PUSH1 0xFF AND DUP2 MSTORE PUSH1 0x20 ADD PUSH1 0x2 PUSH1 0xFF AND DUP2 MSTORE PUSH1 0x20 ADD PUSH1 0x2 PUSH1 0xFF AND DUP2 MSTORE PUSH1 0x20 ADD PUSH1 0x1 PUSH1 0xFF AND DUP2 MSTORE PUSH1 0x20 ADD PUSH1 0x3 PUSH1 0xFF AND DUP2 MSTORE PUSH1 0x20 ADD PUSH1 0x3 PUSH1 0xFF AND DUP2 MSTORE PUSH1 0x20 ADD PUSH1 0x3 PUSH1 0xFF AND DUP2 MSTORE PUSH1 0x20 ADD PUSH1 0x3 PUSH1 0xFF AND DUP2 MSTORE PUSH1 0x20 ADD PUSH1 0x1 PUSH1 0xFF AND DUP2 MSTORE PUSH1 0x20 ADD PUSH1 0x1 PUSH1 0xFF AND DUP2 MSTORE PUSH1 0x20 ADD PUSH1 0x1 PUSH1 0xFF AND DUP2 MSTORE PUSH1 0x20 ADD PUSH1 0x1 PUSH1 0xFF AND DUP2 MSTORE PUSH1 0x20 ADD PUSH1 0x3 PUSH1 0xFF AND DUP2 MSTORE PUSH1 0x20 ADD PUSH1 0x3 PUSH1 0xFF AND DUP2 MSTORE PUSH1 0x20 ADD PUSH1 0x2 PUSH1 0xFF AND DUP2 MSTORE PUSH1 0x20 ADD PUSH1 0x2 PUSH1 0xFF AND DUP2 MSTORE POP DUP2 MSTORE PUSH1 0x20 ADD PUSH1 0x40 MLOAD DUP1 PUSH2 0x280 ADD PUSH1 0x40 MSTORE DUP1 PUSH1 0x2 PUSH1 0xFF AND DUP2 MSTORE PUSH1 0x20 ADD PUSH1 0x2 PUSH1 0xFF AND DUP2 MSTORE PUSH1 0x20 ADD PUSH1 0x2 PUSH1 0xFF AND DUP2 MSTORE PUSH1 0x20 ADD PUSH1 0x2 PUSH1 0xFF AND DUP2 MSTORE PUSH1 0x20 ADD PUSH1 0x2 PUSH1 0xFF AND DUP2 MSTORE PUSH1 0x20 ADD PUSH1 0x2 PUSH1 0xFF AND DUP2 MSTORE PUSH1 0x20 ADD PUSH1 0x2 PUSH1 0xFF AND DUP2 MSTORE PUSH1 0x20 ADD PUSH1 0x1 PUSH1 0xFF AND DUP2 MSTORE PUSH1 0x20 ADD PUSH1 0x1 PUSH1 0xFF AND DUP2 MSTORE PUSH1 0x20 ADD PUSH1 0x2 PUSH1 0xFF AND DUP2 MSTORE PUSH1 0x20 ADD PUSH1 0x2 PUSH1 0xFF AND DUP2 MSTORE PUSH1 0x20 ADD PUSH1 0x1 PUSH1 0xFF AND DUP2 MSTORE PUSH1 0x20 ADD PUSH1 0x1 PUSH1 0xFF AND DUP2 MSTORE PUSH1 0x20 ADD PUSH1 0x2 PUSH1 0xFF AND DUP2 MSTORE PUSH1 0x20 ADD PUSH1 0x2 PUSH1 0xFF AND DUP2 MSTORE PUSH1 0x20 ADD PUSH1 0x1 PUSH1 0xFF AND DUP2 MSTORE PUSH1 0x20 ADD PUSH1 0x3 PUSH1 0xFF AND DUP2 MSTORE PUSH1 0x20 ADD PUSH1 0x3 PUSH1 0xFF AND DUP2 MSTORE PUSH1 0x20 ADD PUSH1 0x2 PUSH1 0xFF AND DUP2 MSTORE PUSH1 0x20 ADD PUSH1 0x2 PUSH1 0xFF AND DUP2 MSTORE POP DUP2 MSTORE PUSH1 0x20 ADD PUSH1 0x40 MLOAD DUP1 PUSH2 0x280 ADD PUSH1 0x40 MSTORE DUP1 PUSH1 0x2 PUSH1 0xFF AND DUP2 MSTORE PUSH1 0x20 ADD PUSH1 0x2 PUSH1 0xFF AND DUP2 MSTORE PUSH1 0x20 ADD PUSH1 0x2 PUSH1 0xFF AND DUP2 MSTORE PUSH1 0x20 ADD PUSH1 0x2 PUSH1 0xFF AND DUP2 MSTORE PUSH1 0x20 ADD PUSH1 0x2 PUSH1 0xFF AND DUP2 MSTORE PUSH1 0x20 ADD PUSH1 0x2 PUSH1 0xFF AND DUP2 MSTORE PUSH1 0x20 ADD PUSH1 0x2 PUSH1 0xFF AND DUP2 MSTORE PUSH1 0x20 ADD PUSH1 0x1 PUSH1 0xFF AND DUP2 MSTORE PUSH1 0x20 ADD PUSH1 0x1 PUSH1 0xFF AND DUP2 MSTORE PUSH1 0x20 ADD PUSH1 0x1 PUSH1 0xFF AND DUP2 MSTORE PUSH1 0x20 ADD PUSH1 0x1 PUSH1 0xFF AND DUP2 MSTORE PUSH1 0x20 ADD PUSH1 0x1 PUSH1 0xFF AND DUP2 MSTORE PUSH1 0x20 ADD PUSH1 0x1 PUSH1 0xFF AND DUP2 MSTORE PUSH1 0x20 ADD PUSH1 0x1 PUSH1 0xFF AND DUP2 MSTORE PUSH1 0x20 ADD PUSH1 0x1 PUSH1 0xFF AND DUP2 MSTORE PUSH1 0x20 ADD PUSH1 0x3 PUSH1 0xFF AND DUP2 MSTORE PUSH1 0x20 ADD PUSH1 0x3 PUSH1 0xFF AND DUP2 MSTORE PUSH1 0x20 ADD PUSH1 0x3 PUSH1 0xFF AND DUP2 MSTORE PUSH1 0x20 ADD PUSH1 0x2 PUSH1 0xFF AND DUP2 MSTORE PUSH1 0x20 ADD PUSH1 0x2 PUSH1 0xFF AND DUP2 MSTORE POP DUP2 MSTORE POP PUSH1 0x0 SWAP1 PUSH1 0x14 PUSH3 0x10EC SWAP3 SWAP2 SWAP1 PUSH3 0x122E JUMP JUMPDEST POP CALLVALUE DUP1 ISZERO PUSH3 0x10FA JUMPI PUSH1 0x0 DUP1 REVERT JUMPDEST POP PUSH1 0x40 MLOAD PUSH3 0x71F6 CODESIZE SUB DUP1 PUSH3 0x71F6 DUP4 CODECOPY DUP2 DUP2 ADD PUSH1 0x40 MSTORE DUP2 ADD SWAP1 PUSH3 0x1120 SWAP2 SWAP1 PUSH3 0x13DC JUMP JUMPDEST DUP4 PUSH1 0x14 PUSH1 0x0 PUSH2 0x100 EXP DUP2 SLOAD DUP2 PUSH20 0xFFFFFFFFFFFFFFFFFFFFFFFFFFFFFFFFFFFFFFFF MUL NOT AND SWAP1 DUP4 PUSH20 0xFFFFFFFFFFFFFFFFFFFFFFFFFFFFFFFFFFFFFFFF AND MUL OR SWAP1 SSTORE POP DUP3 PUSH1 0x15 PUSH1 0x0 PUSH2 0x100 EXP DUP2 SLOAD DUP2 PUSH20 0xFFFFFFFFFFFFFFFFFFFFFFFFFFFFFFFFFFFFFFFF MUL NOT AND SWAP1 DUP4 PUSH20 0xFFFFFFFFFFFFFFFFFFFFFFFFFFFFFFFFFFFFFFFF AND MUL OR SWAP1 SSTORE POP DUP2 PUSH1 0x1E PUSH1 0x0 PUSH2 0x100 EXP DUP2 SLOAD DUP2 PUSH20 0xFFFFFFFFFFFFFFFFFFFFFFFFFFFFFFFFFFFFFFFF MUL NOT AND SWAP1 DUP4 PUSH20 0xFFFFFFFFFFFFFFFFFFFFFFFFFFFFFFFFFFFFFFFF AND MUL OR SWAP1 SSTORE POP DUP1 PUSH1 0x16 PUSH1 0x0 PUSH2 0x100 EXP DUP2 SLOAD DUP2 PUSH20 0xFFFFFFFFFFFFFFFFFFFFFFFFFFFFFFFFFFFFFFFF MUL NOT AND SWAP1 DUP4 PUSH20 0xFFFFFFFFFFFFFFFFFFFFFFFFFFFFFFFFFFFFFFFF AND MUL OR SWAP1 SSTORE POP POP POP POP POP PUSH3 0x144E JUMP JUMPDEST DUP3 PUSH1 0x14 DUP2 ADD SWAP3 DUP3 ISZERO PUSH3 0x1270 JUMPI SWAP2 PUSH1 0x20 MUL DUP3 ADD JUMPDEST DUP3 DUP2 GT ISZERO PUSH3 0x126F JUMPI DUP3 MLOAD DUP3 SWAP1 PUSH1 0x14 PUSH3 0x125E SWAP3 SWAP2 SWAP1 PUSH3 0x1283 JUMP JUMPDEST POP SWAP2 PUSH1 0x20 ADD SWAP2 SWAP1 PUSH1 0x1 ADD SWAP1 PUSH3 0x1242 JUMP JUMPDEST JUMPDEST POP SWAP1 POP PUSH3 0x127F SWAP2 SWAP1 PUSH3 0x1324 JUMP JUMPDEST POP SWAP1 JUMP JUMPDEST DUP3 PUSH1 0x14 PUSH1 0x1F ADD PUSH1 0x20 SWAP1 DIV DUP2 ADD SWAP3 DUP3 ISZERO PUSH3 0x1311 JUMPI SWAP2 PUSH1 0x20 MUL DUP3 ADD PUSH1 0x0 JUMPDEST DUP4 DUP3 GT ISZERO PUSH3 0x12E0 JUMPI DUP4 MLOAD DUP4 DUP3 PUSH2 0x100 EXP DUP2 SLOAD DUP2 PUSH1 0xFF MUL NOT AND SWAP1 DUP4 PUSH1 0xFF AND MUL OR SWAP1 SSTORE POP SWAP3 PUSH1 0x20 ADD SWAP3 PUSH1 0x1 ADD PUSH1 0x20 DUP2 PUSH1 0x0 ADD DIV SWAP3 DUP4 ADD SWAP3 PUSH1 0x1 SUB MUL PUSH3 0x12A0 JUMP JUMPDEST DUP1 ISZERO PUSH3 0x130F JUMPI DUP3 DUP2 PUSH2 0x100 EXP DUP2 SLOAD SWAP1 PUSH1 0xFF MUL NOT AND SWAP1 SSTORE PUSH1 0x1 ADD PUSH1 0x20 DUP2 PUSH1 0x0 ADD DIV SWAP3 DUP4 ADD SWAP3 PUSH1 0x1 SUB MUL PUSH3 0x12E0 JUMP JUMPDEST POP JUMPDEST POP SWAP1 POP PUSH3 0x1320 SWAP2 SWAP1 PUSH3 0x134C JUMP JUMPDEST POP SWAP1 JUMP JUMPDEST JUMPDEST DUP1 DUP3 GT ISZERO PUSH3 0x1348 JUMPI PUSH1 0x0 DUP2 DUP2 PUSH3 0x133E SWAP2 SWAP1 PUSH3 0x136B JUMP JUMPDEST POP PUSH1 0x1 ADD PUSH3 0x1325 JUMP JUMPDEST POP SWAP1 JUMP JUMPDEST JUMPDEST DUP1 DUP3 GT ISZERO PUSH3 0x1367 JUMPI PUSH1 0x0 DUP2 PUSH1 0x0 SWAP1 SSTORE POP PUSH1 0x1 ADD PUSH3 0x134D JUMP JUMPDEST POP SWAP1 JUMP JUMPDEST POP PUSH1 0x0 SWAP1 SSTORE JUMP JUMPDEST PUSH1 0x0 DUP1 REVERT JUMPDEST PUSH1 0x0 PUSH20 0xFFFFFFFFFFFFFFFFFFFFFFFFFFFFFFFFFFFFFFFF DUP3 AND SWAP1 POP SWAP2 SWAP1 POP JUMP JUMPDEST PUSH1 0x0 PUSH3 0x13A4 DUP3 PUSH3 0x1377 JUMP JUMPDEST SWAP1 POP SWAP2 SWAP1 POP JUMP JUMPDEST PUSH3 0x13B6 DUP2 PUSH3 0x1397 JUMP JUMPDEST DUP2 EQ PUSH3 0x13C2 JUMPI PUSH1 0x0 DUP1 REVERT JUMPDEST POP JUMP JUMPDEST PUSH1 0x0 DUP2 MLOAD SWAP1 POP PUSH3 0x13D6 DUP2 PUSH3 0x13AB JUMP JUMPDEST SWAP3 SWAP2 POP POP JUMP JUMPDEST PUSH1 0x0 DUP1 PUSH1 0x0 DUP1 PUSH1 0x80 DUP6 DUP8 SUB SLT ISZERO PUSH3 0x13F9 JUMPI PUSH3 0x13F8 PUSH3 0x1372 JUMP JUMPDEST JUMPDEST PUSH1 0x0 PUSH3 0x1409 DUP8 DUP3 DUP9 ADD PUSH3 0x13C5 JUMP JUMPDEST SWAP5 POP POP PUSH1 0x20 PUSH3 0x141C DUP8 DUP3 DUP9 ADD PUSH3 0x13C5 JUMP JUMPDEST SWAP4 POP POP PUSH1 0x40 PUSH3 0x142F DUP8 DUP3 DUP9 ADD PUSH3 0x13C5 JUMP JUMPDEST SWAP3 POP POP PUSH1 0x60 PUSH3 0x1442 DUP8 DUP3 DUP9 ADD PUSH3 0x13C5 JUMP JUMPDEST SWAP2 POP POP SWAP3 SWAP6 SWAP2 SWAP5 POP SWAP3 POP JUMP JUMPDEST PUSH2 0x5D98 DUP1 PUSH3 0x145E PUSH1 0x0 CODECOPY PUSH1 0x0 RETURN INVALID PUSH1 0x80 PUSH1 0x40 MSTORE CALLVALUE DUP1 ISZERO PUSH2 0x10 JUMPI PUSH1 0x0 DUP1 REVERT JUMPDEST POP PUSH1 0x4 CALLDATASIZE LT PUSH2 0x21C JUMPI PUSH1 0x0 CALLDATALOAD PUSH1 0xE0 SHR DUP1 PUSH4 0x69274803 GT PUSH2 0x125 JUMPI DUP1 PUSH4 0xB0D77774 GT PUSH2 0xAD JUMPI DUP1 PUSH4 0xC2024EDE GT PUSH2 0x7C JUMPI DUP1 PUSH4 0xC2024EDE EQ PUSH2 0x666 JUMPI DUP1 PUSH4 0xD4CEEEC0 EQ PUSH2 0x682 JUMPI DUP1 PUSH4 0xEA0E35B1 EQ PUSH2 0x6B5 JUMPI DUP1 PUSH4 0xEAA10576 EQ PUSH2 0x6D3 JUMPI DUP1 PUSH4 0xF15AD264 EQ PUSH2 0x703 JUMPI PUSH2 0x21C JUMP JUMPDEST DUP1 PUSH4 0xB0D77774 EQ PUSH2 0x5F2 JUMPI DUP1 PUSH4 0xBBB4D3E9 EQ PUSH2 0x610 JUMPI DUP1 PUSH4 0xBC9955A2 EQ PUSH2 0x61A JUMPI DUP1 PUSH4 0xBDE7EF82 EQ PUSH2 0x64A JUMPI PUSH2 0x21C JUMP JUMPDEST DUP1 PUSH4 0x86722228 GT PUSH2 0xF4 JUMPI DUP1 PUSH4 0x86722228 EQ PUSH2 0x574 JUMPI DUP1 PUSH4 0x9ADFF8D0 EQ PUSH2 0x57E JUMPI DUP1 PUSH4 0x9B21D6EB EQ PUSH2 0x59A JUMPI DUP1 PUSH4 0x9D995717 EQ PUSH2 0x5B8 JUMPI DUP1 PUSH4 0xAAE1AA37 EQ PUSH2 0x5E8 JUMPI PUSH2 0x21C JUMP JUMPDEST DUP1 PUSH4 0x69274803 EQ PUSH2 0x4DA JUMPI DUP1 PUSH4 0x731AE689 EQ PUSH2 0x4F6 JUMPI DUP1 PUSH4 0x7AB9E7FE EQ PUSH2 0x514 JUMPI DUP1 PUSH4 0x7B0C98EF EQ PUSH2 0x544 JUMPI PUSH2 0x21C JUMP JUMPDEST DUP1 PUSH4 0x1DB8D500 GT PUSH2 0x1A8 JUMPI DUP1 PUSH4 0x2FAD0429 GT PUSH2 0x177 JUMPI DUP1 PUSH4 0x2FAD0429 EQ PUSH2 0x420 JUMPI DUP1 PUSH4 0x4F264B03 EQ PUSH2 0x450 JUMPI DUP1 PUSH4 0x58612A20 EQ PUSH2 0x46E JUMPI DUP1 PUSH4 0x62C5813D EQ PUSH2 0x49E JUMPI DUP1 PUSH4 0x65191666 EQ PUSH2 0x4BC JUMPI PUSH2 0x21C JUMP JUMPDEST DUP1 PUSH4 0x1DB8D500 EQ PUSH2 0x386 JUMPI DUP1 PUSH4 0x2A2026A9 EQ PUSH2 0x3B6 JUMPI DUP1 PUSH4 0x2DEC2E63 EQ PUSH2 0x3E6 JUMPI DUP1 PUSH4 0x2F57741C EQ PUSH2 0x404 JUMPI PUSH2 0x21C JUMP JUMPDEST DUP1 PUSH4 0xD67F59E GT PUSH2 0x1EF JUMPI DUP1 PUSH4 0xD67F59E EQ PUSH2 0x2CE JUMPI DUP1 PUSH4 0x13A5CEDE EQ PUSH2 0x2EC JUMPI DUP1 PUSH4 0x14CEBC71 EQ PUSH2 0x31C JUMPI DUP1 PUSH4 0x196AB1AB EQ PUSH2 0x338 JUMPI DUP1 PUSH4 0x1D0373AD EQ PUSH2 0x356 JUMPI PUSH2 0x21C JUMP JUMPDEST DUP1 PUSH4 0x636FCB2 EQ PUSH2 0x221 JUMPI DUP1 PUSH4 0x821DE3E EQ PUSH2 0x251 JUMPI DUP1 PUSH4 0x8AE4B0C EQ PUSH2 0x26D JUMPI DUP1 PUSH4 0x9E59CEC EQ PUSH2 0x29E JUMPI JUMPDEST PUSH1 0x0 DUP1 REVERT JUMPDEST PUSH2 0x23B PUSH1 0x4 DUP1 CALLDATASIZE SUB DUP2 ADD SWAP1 PUSH2 0x236 SWAP2 SWAP1 PUSH2 0x3E62 JUMP JUMPDEST PUSH2 0x733 JUMP JUMPDEST PUSH1 0x40 MLOAD PUSH2 0x248 SWAP2 SWAP1 PUSH2 0x3F7F JUMP JUMPDEST PUSH1 0x40 MLOAD DUP1 SWAP2 SUB SWAP1 RETURN JUMPDEST PUSH2 0x26B PUSH1 0x4 DUP1 CALLDATASIZE SUB DUP2 ADD SWAP1 PUSH2 0x266 SWAP2 SWAP1 PUSH2 0x4006 JUMP JUMPDEST PUSH2 0x7DA JUMP JUMPDEST STOP JUMPDEST PUSH2 0x287 PUSH1 0x4 DUP1 CALLDATASIZE SUB DUP2 ADD SWAP1 PUSH2 0x282 SWAP2 SWAP1 PUSH2 0x40A6 JUMP JUMPDEST PUSH2 0xAAB JUMP JUMPDEST PUSH1 0x40 MLOAD PUSH2 0x295 SWAP3 SWAP2 SWAP1 PUSH2 0x40FD JUMP JUMPDEST PUSH1 0x40 MLOAD DUP1 SWAP2 SUB SWAP1 RETURN JUMPDEST PUSH2 0x2B8 PUSH1 0x4 DUP1 CALLDATASIZE SUB DUP2 ADD SWAP1 PUSH2 0x2B3 SWAP2 SWAP1 PUSH2 0x4126 JUMP JUMPDEST PUSH2 0xAE9 JUMP JUMPDEST PUSH1 0x40 MLOAD PUSH2 0x2C5 SWAP2 SWAP1 PUSH2 0x41F6 JUMP JUMPDEST PUSH1 0x40 MLOAD DUP1 SWAP2 SUB SWAP1 RETURN JUMPDEST PUSH2 0x2D6 PUSH2 0xBAC JUMP JUMPDEST PUSH1 0x40 MLOAD PUSH2 0x2E3 SWAP2 SWAP1 PUSH2 0x4277 JUMP JUMPDEST PUSH1 0x40 MLOAD DUP1 SWAP2 SUB SWAP1 RETURN JUMPDEST PUSH2 0x306 PUSH1 0x4 DUP1 CALLDATASIZE SUB DUP2 ADD SWAP1 PUSH2 0x301 SWAP2 SWAP1 PUSH2 0x40A6 JUMP JUMPDEST PUSH2 0xBD2 JUMP JUMPDEST PUSH1 0x40 MLOAD PUSH2 0x313 SWAP2 SWAP1 PUSH2 0x41F6 JUMP JUMPDEST PUSH1 0x40 MLOAD DUP1 SWAP2 SUB SWAP1 RETURN JUMPDEST PUSH2 0x336 PUSH1 0x4 DUP1 CALLDATASIZE SUB DUP2 ADD SWAP1 PUSH2 0x331 SWAP2 SWAP1 PUSH2 0x4292 JUMP JUMPDEST PUSH2 0xC72 JUMP JUMPDEST STOP JUMPDEST PUSH2 0x340 PUSH2 0x12C4 JUMP JUMPDEST PUSH1 0x40 MLOAD PUSH2 0x34D SWAP2 SWAP1 PUSH2 0x4300 JUMP JUMPDEST PUSH1 0x40 MLOAD DUP1 SWAP2 SUB SWAP1 RETURN JUMPDEST PUSH2 0x370 PUSH1 0x4 DUP1 CALLDATASIZE SUB DUP2 ADD SWAP1 PUSH2 0x36B SWAP2 SWAP1 PUSH2 0x40A6 JUMP JUMPDEST PUSH2 0x12EA JUMP JUMPDEST PUSH1 0x40 MLOAD PUSH2 0x37D SWAP2 SWAP1 PUSH2 0x431B JUMP JUMPDEST PUSH1 0x40 MLOAD DUP1 SWAP2 SUB SWAP1 RETURN JUMPDEST PUSH2 0x3A0 PUSH1 0x4 DUP1 CALLDATASIZE SUB DUP2 ADD SWAP1 PUSH2 0x39B SWAP2 SWAP1 PUSH2 0x436C JUMP JUMPDEST PUSH2 0x130A JUMP JUMPDEST PUSH1 0x40 MLOAD PUSH2 0x3AD SWAP2 SWAP1 PUSH2 0x43BB JUMP JUMPDEST PUSH1 0x40 MLOAD DUP1 SWAP2 SUB SWAP1 RETURN JUMPDEST PUSH2 0x3D0 PUSH1 0x4 DUP1 CALLDATASIZE SUB DUP2 ADD SWAP1 PUSH2 0x3CB SWAP2 SWAP1 PUSH2 0x4126 JUMP JUMPDEST PUSH2 0x1358 JUMP JUMPDEST PUSH1 0x40 MLOAD PUSH2 0x3DD SWAP2 SWAP1 PUSH2 0x431B JUMP JUMPDEST PUSH1 0x40 MLOAD DUP1 SWAP2 SUB SWAP1 RETURN JUMPDEST PUSH2 0x3EE PUSH2 0x13FA JUMP JUMPDEST PUSH1 0x40 MLOAD PUSH2 0x3FB SWAP2 SWAP1 PUSH2 0x44F8 JUMP JUMPDEST PUSH1 0x40 MLOAD DUP1 SWAP2 SUB SWAP1 RETURN JUMPDEST PUSH2 0x41E PUSH1 0x4 DUP1 CALLDATASIZE SUB DUP2 ADD SWAP1 PUSH2 0x419 SWAP2 SWAP1 PUSH2 0x4292 JUMP JUMPDEST PUSH2 0x1600 JUMP JUMPDEST STOP JUMPDEST PUSH2 0x43A PUSH1 0x4 DUP1 CALLDATASIZE SUB DUP2 ADD SWAP1 PUSH2 0x435 SWAP2 SWAP1 PUSH2 0x3E62 JUMP JUMPDEST PUSH2 0x1653 JUMP JUMPDEST PUSH1 0x40 MLOAD PUSH2 0x447 SWAP2 SWAP1 PUSH2 0x45D6 JUMP JUMPDEST PUSH1 0x40 MLOAD DUP1 SWAP2 SUB SWAP1 RETURN JUMPDEST PUSH2 0x458 PUSH2 0x17A6 JUMP JUMPDEST PUSH1 0x40 MLOAD PUSH2 0x465 SWAP2 SWAP1 PUSH2 0x4619 JUMP JUMPDEST PUSH1 0x40 MLOAD DUP1 SWAP2 SUB SWAP1 RETURN JUMPDEST PUSH2 0x488 PUSH1 0x4 DUP1 CALLDATASIZE SUB DUP2 ADD SWAP1 PUSH2 0x483 SWAP2 SWAP1 PUSH2 0x4126 JUMP JUMPDEST PUSH2 0x17CC JUMP JUMPDEST PUSH1 0x40 MLOAD PUSH2 0x495 SWAP2 SWAP1 PUSH2 0x431B JUMP JUMPDEST PUSH1 0x40 MLOAD DUP1 SWAP2 SUB SWAP1 RETURN JUMPDEST PUSH2 0x4A6 PUSH2 0x17FB JUMP JUMPDEST PUSH1 0x40 MLOAD PUSH2 0x4B3 SWAP2 SWAP1 PUSH2 0x4643 JUMP JUMPDEST PUSH1 0x40 MLOAD DUP1 SWAP2 SUB SWAP1 RETURN JUMPDEST PUSH2 0x4C4 PUSH2 0x1804 JUMP JUMPDEST PUSH1 0x40 MLOAD PUSH2 0x4D1 SWAP2 SWAP1 PUSH2 0x4643 JUMP JUMPDEST PUSH1 0x40 MLOAD DUP1 SWAP2 SUB SWAP1 RETURN JUMPDEST PUSH2 0x4F4 PUSH1 0x4 DUP1 CALLDATASIZE SUB DUP2 ADD SWAP1 PUSH2 0x4EF SWAP2 SWAP1 PUSH2 0x465E JUMP JUMPDEST PUSH2 0x180D JUMP JUMPDEST STOP JUMPDEST PUSH2 0x4FE PUSH2 0x1BDC JUMP JUMPDEST PUSH1 0x40 MLOAD PUSH2 0x50B SWAP2 SWAP1 PUSH2 0x4643 JUMP JUMPDEST PUSH1 0x40 MLOAD DUP1 SWAP2 SUB SWAP1 RETURN JUMPDEST PUSH2 0x52E PUSH1 0x4 DUP1 CALLDATASIZE SUB DUP2 ADD SWAP1 PUSH2 0x529 SWAP2 SWAP1 PUSH2 0x4126 JUMP JUMPDEST PUSH2 0x1BE5 JUMP JUMPDEST PUSH1 0x40 MLOAD PUSH2 0x53B SWAP2 SWAP1 PUSH2 0x431B JUMP JUMPDEST PUSH1 0x40 MLOAD DUP1 SWAP2 SUB SWAP1 RETURN JUMPDEST PUSH2 0x55E PUSH1 0x4 DUP1 CALLDATASIZE SUB DUP2 ADD SWAP1 PUSH2 0x559 SWAP2 SWAP1 PUSH2 0x4126 JUMP JUMPDEST PUSH2 0x1C2D JUMP JUMPDEST PUSH1 0x40 MLOAD PUSH2 0x56B SWAP2 SWAP1 PUSH2 0x41F6 JUMP JUMPDEST PUSH1 0x40 MLOAD DUP1 SWAP2 SUB SWAP1 RETURN JUMPDEST PUSH2 0x57C PUSH2 0x1CDA JUMP JUMPDEST STOP JUMPDEST PUSH2 0x598 PUSH1 0x4 DUP1 CALLDATASIZE SUB DUP2 ADD SWAP1 PUSH2 0x593 SWAP2 SWAP1 PUSH2 0x436C JUMP JUMPDEST PUSH2 0x1DBD JUMP JUMPDEST STOP JUMPDEST PUSH2 0x5A2 PUSH2 0x22DF JUMP JUMPDEST PUSH1 0x40 MLOAD PUSH2 0x5AF SWAP2 SWAP1 PUSH2 0x47C3 JUMP JUMPDEST PUSH1 0x40 MLOAD DUP1 SWAP2 SUB SWAP1 RETURN JUMPDEST PUSH2 0x5D2 PUSH1 0x4 DUP1 CALLDATASIZE SUB DUP2 ADD SWAP1 PUSH2 0x5CD SWAP2 SWAP1 PUSH2 0x3E62 JUMP JUMPDEST PUSH2 0x2590 JUMP JUMPDEST PUSH1 0x40 MLOAD PUSH2 0x5DF SWAP2 SWAP1 PUSH2 0x431B JUMP JUMPDEST PUSH1 0x40 MLOAD DUP1 SWAP2 SUB SWAP1 RETURN JUMPDEST PUSH2 0x5F0 PUSH2 0x262C JUMP JUMPDEST STOP JUMPDEST PUSH2 0x5FA PUSH2 0x2B7E JUMP JUMPDEST PUSH1 0x40 MLOAD PUSH2 0x607 SWAP2 SWAP1 PUSH2 0x4806 JUMP JUMPDEST PUSH1 0x40 MLOAD DUP1 SWAP2 SUB SWAP1 RETURN JUMPDEST PUSH2 0x618 PUSH2 0x2BA4 JUMP JUMPDEST STOP JUMPDEST PUSH2 0x634 PUSH1 0x4 DUP1 CALLDATASIZE SUB DUP2 ADD SWAP1 PUSH2 0x62F SWAP2 SWAP1 PUSH2 0x4821 JUMP JUMPDEST PUSH2 0x2FF0 JUMP JUMPDEST PUSH1 0x40 MLOAD PUSH2 0x641 SWAP2 SWAP1 PUSH2 0x431B JUMP JUMPDEST PUSH1 0x40 MLOAD DUP1 SWAP2 SUB SWAP1 RETURN JUMPDEST PUSH2 0x664 PUSH1 0x4 DUP1 CALLDATASIZE SUB DUP2 ADD SWAP1 PUSH2 0x65F SWAP2 SWAP1 PUSH2 0x3E62 JUMP JUMPDEST PUSH2 0x302C JUMP JUMPDEST STOP JUMPDEST PUSH2 0x680 PUSH1 0x4 DUP1 CALLDATASIZE SUB DUP2 ADD SWAP1 PUSH2 0x67B SWAP2 SWAP1 PUSH2 0x465E JUMP JUMPDEST PUSH2 0x3445 JUMP JUMPDEST STOP JUMPDEST PUSH2 0x69C PUSH1 0x4 DUP1 CALLDATASIZE SUB DUP2 ADD SWAP1 PUSH2 0x697 SWAP2 SWAP1 PUSH2 0x3E62 JUMP JUMPDEST PUSH2 0x39C0 JUMP JUMPDEST PUSH1 0x40 MLOAD PUSH2 0x6AC SWAP5 SWAP4 SWAP3 SWAP2 SWAP1 PUSH2 0x4861 JUMP JUMPDEST PUSH1 0x40 MLOAD DUP1 SWAP2 SUB SWAP1 RETURN JUMPDEST PUSH2 0x6BD PUSH2 0x3AB2 JUMP JUMPDEST PUSH1 0x40 MLOAD PUSH2 0x6CA SWAP2 SWAP1 PUSH2 0x431B JUMP JUMPDEST PUSH1 0x40 MLOAD DUP1 SWAP2 SUB SWAP1 RETURN JUMPDEST PUSH2 0x6ED PUSH1 0x4 DUP1 CALLDATASIZE SUB DUP2 ADD SWAP1 PUSH2 0x6E8 SWAP2 SWAP1 PUSH2 0x3E62 JUMP JUMPDEST PUSH2 0x3AB7 JUMP JUMPDEST PUSH1 0x40 MLOAD PUSH2 0x6FA SWAP2 SWAP1 PUSH2 0x4643 JUMP JUMPDEST PUSH1 0x40 MLOAD DUP1 SWAP2 SUB SWAP1 RETURN JUMPDEST PUSH2 0x71D PUSH1 0x4 DUP1 CALLDATASIZE SUB DUP2 ADD SWAP1 PUSH2 0x718 SWAP2 SWAP1 PUSH2 0x40A6 JUMP JUMPDEST PUSH2 0x3ACF JUMP JUMPDEST PUSH1 0x40 MLOAD PUSH2 0x72A SWAP2 SWAP1 PUSH2 0x41F6 JUMP JUMPDEST PUSH1 0x40 MLOAD DUP1 SWAP2 SUB SWAP1 RETURN JUMPDEST PUSH1 0x60 PUSH1 0x19 PUSH1 0x0 DUP4 PUSH1 0xFF AND PUSH1 0xFF AND DUP2 MSTORE PUSH1 0x20 ADD SWAP1 DUP2 MSTORE PUSH1 0x20 ADD PUSH1 0x0 KECCAK256 DUP1 SLOAD DUP1 PUSH1 0x20 MUL PUSH1 0x20 ADD PUSH1 0x40 MLOAD SWAP1 DUP2 ADD PUSH1 0x40 MSTORE DUP1 SWAP3 SWAP2 SWAP1 DUP2 DUP2 MSTORE PUSH1 0x20 ADD DUP3 DUP1 SLOAD DUP1 ISZERO PUSH2 0x7CE JUMPI PUSH1 0x20 MUL DUP3 ADD SWAP2 SWAP1 PUSH1 0x0 MSTORE PUSH1 0x20 PUSH1 0x0 KECCAK256 SWAP1 JUMPDEST DUP2 PUSH1 0x0 SWAP1 SLOAD SWAP1 PUSH2 0x100 EXP SWAP1 DIV PUSH20 0xFFFFFFFFFFFFFFFFFFFFFFFFFFFFFFFFFFFFFFFF AND PUSH20 0xFFFFFFFFFFFFFFFFFFFFFFFFFFFFFFFFFFFFFFFF AND DUP2 MSTORE PUSH1 0x20 ADD SWAP1 PUSH1 0x1 ADD SWAP1 DUP1 DUP4 GT PUSH2 0x784 JUMPI JUMPDEST POP POP POP POP POP SWAP1 POP SWAP2 SWAP1 POP JUMP JUMPDEST PUSH1 0x0 DUP3 DUP3 SWAP1 POP GT PUSH2 0x820 JUMPI PUSH1 0x40 MLOAD PUSH32 0x8C379A000000000000000000000000000000000000000000000000000000000 DUP2 MSTORE PUSH1 0x4 ADD PUSH2 0x817 SWAP1 PUSH2 0x48F9 JUMP JUMPDEST PUSH1 0x40 MLOAD DUP1 SWAP2 SUB SWAP1 REVERT JUMPDEST CALLER PUSH20 0xFFFFFFFFFFFFFFFFFFFFFFFFFFFFFFFFFFFFFFFF AND PUSH1 0x14 PUSH1 0x0 SWAP1 SLOAD SWAP1 PUSH2 0x100 EXP SWAP1 DIV PUSH20 0xFFFFFFFFFFFFFFFFFFFFFFFFFFFFFFFFFFFFFFFF AND PUSH20 0xFFFFFFFFFFFFFFFFFFFFFFFFFFFFFFFFFFFFFFFF AND PUSH4 0x8A888953 DUP7 DUP7 PUSH1 0x40 MLOAD DUP4 PUSH4 0xFFFFFFFF AND PUSH1 0xE0 SHL DUP2 MSTORE PUSH1 0x4 ADD PUSH2 0x894 SWAP3 SWAP2 SWAP1 PUSH2 0x4919 JUMP JUMPDEST PUSH1 0x20 PUSH1 0x40 MLOAD DUP1 DUP4 SUB DUP2 DUP7 GAS STATICCALL ISZERO DUP1 ISZERO PUSH2 0x8B1 JUMPI RETURNDATASIZE PUSH1 0x0 DUP1 RETURNDATACOPY RETURNDATASIZE PUSH1 0x0 REVERT JUMPDEST POP POP POP POP PUSH1 0x40 MLOAD RETURNDATASIZE PUSH1 0x1F NOT PUSH1 0x1F DUP3 ADD AND DUP3 ADD DUP1 PUSH1 0x40 MSTORE POP DUP2 ADD SWAP1 PUSH2 0x8D5 SWAP2 SWAP1 PUSH2 0x4957 JUMP JUMPDEST PUSH20 0xFFFFFFFFFFFFFFFFFFFFFFFFFFFFFFFFFFFFFFFF AND EQ PUSH2 0x92B JUMPI PUSH1 0x40 MLOAD PUSH32 0x8C379A000000000000000000000000000000000000000000000000000000000 DUP2 MSTORE PUSH1 0x4 ADD PUSH2 0x922 SWAP1 PUSH2 0x49F6 JUMP JUMPDEST PUSH1 0x40 MLOAD DUP1 SWAP2 SUB SWAP1 REVERT JUMPDEST PUSH1 0x15 PUSH1 0x0 SWAP1 SLOAD SWAP1 PUSH2 0x100 EXP SWAP1 DIV PUSH20 0xFFFFFFFFFFFFFFFFFFFFFFFFFFFFFFFFFFFFFFFF AND PUSH20 0xFFFFFFFFFFFFFFFFFFFFFFFFFFFFFFFFFFFFFFFF AND PUSH4 0x23B872DD CALLER ADDRESS PUSH5 0x2540BE400 PUSH1 0x40 MLOAD DUP5 PUSH4 0xFFFFFFFF AND PUSH1 0xE0 SHL DUP2 MSTORE PUSH1 0x4 ADD PUSH2 0x98F SWAP4 SWAP3 SWAP2 SWAP1 PUSH2 0x4A16 JUMP JUMPDEST PUSH1 0x20 PUSH1 0x40 MLOAD DUP1 DUP4 SUB DUP2 PUSH1 0x0 DUP8 GAS CALL ISZERO DUP1 ISZERO PUSH2 0x9AE JUMPI RETURNDATASIZE PUSH1 0x0 DUP1 RETURNDATACOPY RETURNDATASIZE PUSH1 0x0 REVERT JUMPDEST POP POP POP POP PUSH1 0x40 MLOAD RETURNDATASIZE PUSH1 0x1F NOT PUSH1 0x1F DUP3 ADD AND DUP3 ADD DUP1 PUSH1 0x40 MSTORE POP DUP2 ADD SWAP1 PUSH2 0x9D2 SWAP2 SWAP1 PUSH2 0x4A79 JUMP JUMPDEST PUSH2 0xA11 JUMPI PUSH1 0x40 MLOAD PUSH32 0x8C379A000000000000000000000000000000000000000000000000000000000 DUP2 MSTORE PUSH1 0x4 ADD PUSH2 0xA08 SWAP1 PUSH2 0x4AF2 JUMP JUMPDEST PUSH1 0x40 MLOAD DUP1 SWAP2 SUB SWAP1 REVERT JUMPDEST DUP2 DUP2 PUSH1 0x1B PUSH1 0x0 DUP8 PUSH1 0xFF AND PUSH1 0xFF AND DUP2 MSTORE PUSH1 0x20 ADD SWAP1 DUP2 MSTORE PUSH1 0x20 ADD PUSH1 0x0 KECCAK256 PUSH1 0x0 DUP7 PUSH1 0xFF AND PUSH1 0xFF AND DUP2 MSTORE PUSH1 0x20 ADD SWAP1 DUP2 MSTORE PUSH1 0x20 ADD PUSH1 0x0 KECCAK256 SWAP2 DUP3 PUSH2 0xA50 SWAP3 SWAP2 SWAP1 PUSH2 0x4D4E JUMP JUMPDEST POP CALLER PUSH20 0xFFFFFFFFFFFFFFFFFFFFFFFFFFFFFFFFFFFFFFFF AND PUSH32 0x4CA3860FF74978D12A483F5D8FA68A3F3C3CEB09B008784DC253BFBC348AB3E8 DUP6 DUP6 DUP6 DUP6 PUSH1 0x40 MLOAD PUSH2 0xA9D SWAP5 SWAP4 SWAP3 SWAP2 SWAP1 PUSH2 0x4E5A JUMP JUMPDEST PUSH1 0x40 MLOAD DUP1 SWAP2 SUB SWAP1 LOG2 POP POP POP POP JUMP JUMPDEST PUSH1 0x18 PUSH1 0x20 MSTORE DUP1 PUSH1 0x0 MSTORE PUSH1 0x40 PUSH1 0x0 KECCAK256 PUSH1 0x0 SWAP2 POP SWAP1 POP DUP1 PUSH1 0x0 ADD PUSH1 0x0 SWAP1 SLOAD SWAP1 PUSH2 0x100 EXP SWAP1 DIV PUSH1 0xFF AND SWAP1 DUP1 PUSH1 0x0 ADD PUSH1 0x1 SWAP1 SLOAD SWAP1 PUSH2 0x100 EXP SWAP1 DIV PUSH1 0xFF AND SWAP1 POP DUP3 JUMP JUMPDEST PUSH1 0x60 PUSH1 0x1B PUSH1 0x0 DUP5 PUSH1 0xFF AND PUSH1 0xFF AND DUP2 MSTORE PUSH1 0x20 ADD SWAP1 DUP2 MSTORE PUSH1 0x20 ADD PUSH1 0x0 KECCAK256 PUSH1 0x0 DUP4 PUSH1 0xFF AND PUSH1 0xFF AND DUP2 MSTORE PUSH1 0x20 ADD SWAP1 DUP2 MSTORE PUSH1 0x20 ADD PUSH1 0x0 KECCAK256 DUP1 SLOAD PUSH2 0xB26 SWAP1 PUSH2 0x4B7B JUMP JUMPDEST DUP1 PUSH1 0x1F ADD PUSH1 0x20 DUP1 SWAP2 DIV MUL PUSH1 0x20 ADD PUSH1 0x40 MLOAD SWAP1 DUP2 ADD PUSH1 0x40 MSTORE DUP1 SWAP3 SWAP2 SWAP1 DUP2 DUP2 MSTORE PUSH1 0x20 ADD DUP3 DUP1 SLOAD PUSH2 0xB52 SWAP1 PUSH2 0x4B7B JUMP JUMPDEST DUP1 ISZERO PUSH2 0xB9F JUMPI DUP1 PUSH1 0x1F LT PUSH2 0xB74 JUMPI PUSH2 0x100 DUP1 DUP4 SLOAD DIV MUL DUP4 MSTORE SWAP2 PUSH1 0x20 ADD SWAP2 PUSH2 0xB9F JUMP JUMPDEST DUP3 ADD SWAP2 SWAP1 PUSH1 0x0 MSTORE PUSH1 0x20 PUSH1 0x0 KECCAK256 SWAP1 JUMPDEST DUP2 SLOAD DUP2 MSTORE SWAP1 PUSH1 0x1 ADD SWAP1 PUSH1 0x20 ADD DUP1 DUP4 GT PUSH2 0xB82 JUMPI DUP3 SWAP1 SUB PUSH1 0x1F AND DUP3 ADD SWAP2 JUMPDEST POP POP POP POP POP SWAP1 POP SWAP3 SWAP2 POP POP JUMP JUMPDEST PUSH1 0x15 PUSH1 0x0 SWAP1 SLOAD SWAP1 PUSH2 0x100 EXP SWAP1 DIV PUSH20 0xFFFFFFFFFFFFFFFFFFFFFFFFFFFFFFFFFFFFFFFF AND DUP2 JUMP JUMPDEST PUSH1 0x1C PUSH1 0x20 MSTORE DUP1 PUSH1 0x0 MSTORE PUSH1 0x40 PUSH1 0x0 KECCAK256 PUSH1 0x0 SWAP2 POP SWAP1 POP DUP1 SLOAD PUSH2 0xBF1 SWAP1 PUSH2 0x4B7B JUMP JUMPDEST DUP1 PUSH1 0x1F ADD PUSH1 0x20 DUP1 SWAP2 DIV MUL PUSH1 0x20 ADD PUSH1 0x40 MLOAD SWAP1 DUP2 ADD PUSH1 0x40 MSTORE DUP1 SWAP3 SWAP2 SWAP1 DUP2 DUP2 MSTORE PUSH1 0x20 ADD DUP3 DUP1 SLOAD PUSH2 0xC1D SWAP1 PUSH2 0x4B7B JUMP JUMPDEST DUP1 ISZERO PUSH2 0xC6A JUMPI DUP1 PUSH1 0x1F LT PUSH2 0xC3F JUMPI PUSH2 0x100 DUP1 DUP4 SLOAD DIV MUL DUP4 MSTORE SWAP2 PUSH1 0x20 ADD SWAP2 PUSH2 0xC6A JUMP JUMPDEST DUP3 ADD SWAP2 SWAP1 PUSH1 0x0 MSTORE PUSH1 0x20 PUSH1 0x0 KECCAK256 SWAP1 JUMPDEST DUP2 SLOAD DUP2 MSTORE SWAP1 PUSH1 0x1 ADD SWAP1 PUSH1 0x20 ADD DUP1 DUP4 GT PUSH2 0xC4D JUMPI DUP3 SWAP1 SUB PUSH1 0x1F AND DUP3 ADD SWAP2 JUMPDEST POP POP POP POP POP DUP2 JUMP JUMPDEST PUSH2 0xC7B CALLER PUSH2 0x3BA0 JUMP JUMPDEST PUSH2 0xCBA JUMPI PUSH1 0x40 MLOAD PUSH32 0x8C379A000000000000000000000000000000000000000000000000000000000 DUP2 MSTORE PUSH1 0x4 ADD PUSH2 0xCB1 SWAP1 PUSH2 0x4F0C JUMP JUMPDEST PUSH1 0x40 MLOAD DUP1 SWAP2 SUB SWAP1 REVERT JUMPDEST PUSH1 0x0 DUP3 DUP3 SWAP1 POP GT PUSH2 0xD00 JUMPI PUSH1 0x40 MLOAD PUSH32 0x8C379A000000000000000000000000000000000000000000000000000000000 DUP2 MSTORE PUSH1 0x4 ADD PUSH2 0xCF7 SWAP1 PUSH2 0x4F78 JUMP JUMPDEST PUSH1 0x40 MLOAD DUP1 SWAP2 SUB SWAP1 REVERT JUMPDEST PUSH1 0x18 PUSH1 0x0 CALLER PUSH20 0xFFFFFFFFFFFFFFFFFFFFFFFFFFFFFFFFFFFFFFFF AND PUSH20 0xFFFFFFFFFFFFFFFFFFFFFFFFFFFFFFFFFFFFFFFF AND DUP2 MSTORE PUSH1 0x20 ADD SWAP1 DUP2 MSTORE PUSH1 0x20 ADD PUSH1 0x0 KECCAK256 PUSH1 0x0 ADD PUSH1 0x1 SWAP1 SLOAD SWAP1 PUSH2 0x100 EXP SWAP1 DIV PUSH1 0xFF AND ISZERO PUSH2 0xD90 JUMPI PUSH1 0x40 MLOAD PUSH32 0x8C379A000000000000000000000000000000000000000000000000000000000 DUP2 MSTORE PUSH1 0x4 ADD PUSH2 0xD87 SWAP1 PUSH2 0x4FE4 JUMP JUMPDEST PUSH1 0x40 MLOAD DUP1 SWAP2 SUB SWAP1 REVERT JUMPDEST PUSH1 0x0 DUP1 PUSH2 0xD9C CALLER PUSH2 0x3C45 JUMP JUMPDEST SWAP2 POP SWAP2 POP PUSH1 0x16 PUSH1 0x0 SWAP1 SLOAD SWAP1 PUSH2 0x100 EXP SWAP1 DIV PUSH20 0xFFFFFFFFFFFFFFFFFFFFFFFFFFFFFFFFFFFFFFFF AND PUSH20 0xFFFFFFFFFFFFFFFFFFFFFFFFFFFFFFFFFFFFFFFF AND PUSH4 0xE3198E08 CALLER PUSH1 0x40 MLOAD DUP3 PUSH4 0xFFFFFFFF AND PUSH1 0xE0 SHL DUP2 MSTORE PUSH1 0x4 ADD PUSH2 0xDFB SWAP2 SWAP1 PUSH2 0x43BB JUMP JUMPDEST PUSH1 0x20 PUSH1 0x40 MLOAD DUP1 DUP4 SUB DUP2 DUP7 GAS STATICCALL ISZERO DUP1 ISZERO PUSH2 0xE18 JUMPI RETURNDATASIZE PUSH1 0x0 DUP1 RETURNDATACOPY RETURNDATASIZE PUSH1 0x0 REVERT JUMPDEST POP POP POP POP PUSH1 0x40 MLOAD RETURNDATASIZE PUSH1 0x1F NOT PUSH1 0x1F DUP3 ADD AND DUP3 ADD DUP1 PUSH1 0x40 MSTORE POP DUP2 ADD SWAP1 PUSH2 0xE3C SWAP2 SWAP1 PUSH2 0x4A79 JUMP JUMPDEST PUSH2 0xE7B JUMPI PUSH1 0x40 MLOAD PUSH32 0x8C379A000000000000000000000000000000000000000000000000000000000 DUP2 MSTORE PUSH1 0x4 ADD PUSH2 0xE72 SWAP1 PUSH2 0x5050 JUMP JUMPDEST PUSH1 0x40 MLOAD DUP1 SWAP2 SUB SWAP1 REVERT JUMPDEST PUSH1 0x15 PUSH1 0x0 SWAP1 SLOAD SWAP1 PUSH2 0x100 EXP SWAP1 DIV PUSH20 0xFFFFFFFFFFFFFFFFFFFFFFFFFFFFFFFFFFFFFFFF AND PUSH20 0xFFFFFFFFFFFFFFFFFFFFFFFFFFFFFFFFFFFFFFFF AND PUSH4 0x23B872DD CALLER ADDRESS PUSH5 0x174876E800 PUSH1 0x40 MLOAD DUP5 PUSH4 0xFFFFFFFF AND PUSH1 0xE0 SHL DUP2 MSTORE PUSH1 0x4 ADD PUSH2 0xEDF SWAP4 SWAP3 SWAP2 SWAP1 PUSH2 0x4A16 JUMP JUMPDEST PUSH1 0x20 PUSH1 0x40 MLOAD DUP1 DUP4 SUB DUP2 PUSH1 0x0 DUP8 GAS CALL ISZERO DUP1 ISZERO PUSH2 0xEFE JUMPI RETURNDATASIZE PUSH1 0x0 DUP1 RETURNDATACOPY RETURNDATASIZE PUSH1 0x0 REVERT JUMPDEST POP POP POP POP PUSH1 0x40 MLOAD RETURNDATASIZE PUSH1 0x1F NOT PUSH1 0x1F DUP3 ADD AND DUP3 ADD DUP1 PUSH1 0x40 MSTORE POP DUP2 ADD SWAP1 PUSH2 0xF22 SWAP2 SWAP1 PUSH2 0x4A79 JUMP JUMPDEST PUSH2 0xF61 JUMPI PUSH1 0x40 MLOAD PUSH32 0x8C379A000000000000000000000000000000000000000000000000000000000 DUP2 MSTORE PUSH1 0x4 ADD PUSH2 0xF58 SWAP1 PUSH2 0x50BC JUMP JUMPDEST PUSH1 0x40 MLOAD DUP1 SWAP2 SUB SWAP1 REVERT JUMPDEST PUSH1 0x16 PUSH1 0x14 DUP2 DUP2 SWAP1 SLOAD SWAP1 PUSH2 0x100 EXP SWAP1 DIV PUSH1 0xFF AND DUP1 SWAP3 SWAP2 SWAP1 PUSH2 0xF80 SWAP1 PUSH2 0x510B JUMP JUMPDEST SWAP2 SWAP1 PUSH2 0x100 EXP DUP2 SLOAD DUP2 PUSH1 0xFF MUL NOT AND SWAP1 DUP4 PUSH1 0xFF AND MUL OR SWAP1 SSTORE POP POP PUSH1 0x40 MLOAD DUP1 PUSH1 0x80 ADD PUSH1 0x40 MSTORE DUP1 DUP6 DUP6 DUP1 DUP1 PUSH1 0x1F ADD PUSH1 0x20 DUP1 SWAP2 DIV MUL PUSH1 0x20 ADD PUSH1 0x40 MLOAD SWAP1 DUP2 ADD PUSH1 0x40 MSTORE DUP1 SWAP4 SWAP3 SWAP2 SWAP1 DUP2 DUP2 MSTORE PUSH1 0x20 ADD DUP4 DUP4 DUP1 DUP3 DUP5 CALLDATACOPY PUSH1 0x0 DUP2 DUP5 ADD MSTORE PUSH1 0x1F NOT PUSH1 0x1F DUP3 ADD AND SWAP1 POP DUP1 DUP4 ADD SWAP3 POP POP POP POP POP POP POP DUP2 MSTORE PUSH1 0x20 ADD CALLER PUSH20 0xFFFFFFFFFFFFFFFFFFFFFFFFFFFFFFFFFFFFFFFF AND DUP2 MSTORE PUSH1 0x20 ADD PUSH1 0x1 PUSH1 0xFF AND DUP2 MSTORE PUSH1 0x20 ADD PUSH1 0x1 ISZERO ISZERO DUP2 MSTORE POP PUSH1 0x17 PUSH1 0x0 PUSH1 0x16 PUSH1 0x14 SWAP1 SLOAD SWAP1 PUSH2 0x100 EXP SWAP1 DIV PUSH1 0xFF AND PUSH1 0xFF AND PUSH1 0xFF AND DUP2 MSTORE PUSH1 0x20 ADD SWAP1 DUP2 MSTORE PUSH1 0x20 ADD PUSH1 0x0 KECCAK256 PUSH1 0x0 DUP3 ADD MLOAD DUP2 PUSH1 0x0 ADD SWAP1 DUP2 PUSH2 0x1058 SWAP2 SWAP1 PUSH2 0x5134 JUMP JUMPDEST POP PUSH1 0x20 DUP3 ADD MLOAD DUP2 PUSH1 0x1 ADD PUSH1 0x0 PUSH2 0x100 EXP DUP2 SLOAD DUP2 PUSH20 0xFFFFFFFFFFFFFFFFFFFFFFFFFFFFFFFFFFFFFFFF MUL NOT AND SWAP1 DUP4 PUSH20 0xFFFFFFFFFFFFFFFFFFFFFFFFFFFFFFFFFFFFFFFF AND MUL OR SWAP1 SSTORE POP PUSH1 0x40 DUP3 ADD MLOAD DUP2 PUSH1 0x1 ADD PUSH1 0x14 PUSH2 0x100 EXP DUP2 SLOAD DUP2 PUSH1 0xFF MUL NOT AND SWAP1 DUP4 PUSH1 0xFF AND MUL OR SWAP1 SSTORE POP PUSH1 0x60 DUP3 ADD MLOAD DUP2 PUSH1 0x1 ADD PUSH1 0x15 PUSH2 0x100 EXP DUP2 SLOAD DUP2 PUSH1 0xFF MUL NOT AND SWAP1 DUP4 ISZERO ISZERO MUL OR SWAP1 SSTORE POP SWAP1 POP POP PUSH1 0x40 MLOAD DUP1 PUSH1 0x40 ADD PUSH1 0x40 MSTORE DUP1 PUSH1 0x16 PUSH1 0x14 SWAP1 SLOAD SWAP1 PUSH2 0x100 EXP SWAP1 DIV PUSH1 0xFF AND PUSH1 0xFF AND DUP2 MSTORE PUSH1 0x20 ADD PUSH1 0x1 ISZERO ISZERO DUP2 MSTORE POP PUSH1 0x18 PUSH1 0x0 CALLER PUSH20 0xFFFFFFFFFFFFFFFFFFFFFFFFFFFFFFFFFFFFFFFF AND PUSH20 0xFFFFFFFFFFFFFFFFFFFFFFFFFFFFFFFFFFFFFFFF AND DUP2 MSTORE PUSH1 0x20 ADD SWAP1 DUP2 MSTORE PUSH1 0x20 ADD PUSH1 0x0 KECCAK256 PUSH1 0x0 DUP3 ADD MLOAD DUP2 PUSH1 0x0 ADD PUSH1 0x0 PUSH2 0x100 EXP DUP2 SLOAD DUP2 PUSH1 0xFF MUL NOT AND SWAP1 DUP4 PUSH1 0xFF AND MUL OR SWAP1 SSTORE POP PUSH1 0x20 DUP3 ADD MLOAD DUP2 PUSH1 0x0 ADD PUSH1 0x1 PUSH2 0x100 EXP DUP2 SLOAD DUP2 PUSH1 0xFF MUL NOT AND SWAP1 DUP4 ISZERO ISZERO MUL OR SWAP1 SSTORE POP SWAP1 POP POP PUSH1 0x19 PUSH1 0x0 PUSH1 0x16 PUSH1 0x14 SWAP1 SLOAD SWAP1 PUSH2 0x100 EXP SWAP1 DIV PUSH1 0xFF AND PUSH1 0xFF AND PUSH1 0xFF AND DUP2 MSTORE PUSH1 0x20 ADD SWAP1 DUP2 MSTORE PUSH1 0x20 ADD PUSH1 0x0 KECCAK256 CALLER SWAP1 DUP1 PUSH1 0x1 DUP2 SLOAD ADD DUP1 DUP3 SSTORE DUP1 SWAP2 POP POP PUSH1 0x1 SWAP1 SUB SWAP1 PUSH1 0x0 MSTORE PUSH1 0x20 PUSH1 0x0 KECCAK256 ADD PUSH1 0x0 SWAP1 SWAP2 SWAP1 SWAP2 SWAP1 SWAP2 PUSH2 0x100 EXP DUP2 SLOAD DUP2 PUSH20 0xFFFFFFFFFFFFFFFFFFFFFFFFFFFFFFFFFFFFFFFF MUL NOT AND SWAP1 DUP4 PUSH20 0xFFFFFFFFFFFFFFFFFFFFFFFFFFFFFFFFFFFFFFFF AND MUL OR SWAP1 SSTORE POP PUSH1 0x16 PUSH1 0x14 SWAP1 SLOAD SWAP1 PUSH2 0x100 EXP SWAP1 DIV PUSH1 0xFF AND PUSH1 0x1D PUSH1 0x0 DUP5 PUSH1 0xFF AND PUSH1 0xFF AND DUP2 MSTORE PUSH1 0x20 ADD SWAP1 DUP2 MSTORE PUSH1 0x20 ADD PUSH1 0x0 KECCAK256 PUSH1 0x0 DUP4 PUSH1 0xFF AND PUSH1 0xFF AND DUP2 MSTORE PUSH1 0x20 ADD SWAP1 DUP2 MSTORE PUSH1 0x20 ADD PUSH1 0x0 KECCAK256 PUSH1 0x0 PUSH2 0x100 EXP DUP2 SLOAD DUP2 PUSH1 0xFF MUL NOT AND SWAP1 DUP4 PUSH1 0xFF AND MUL OR SWAP1 SSTORE POP PUSH32 0x2894FC6A8646076B891138309FFB3FC9086490A703074B2B2D77C5DCDDB43DE PUSH1 0x16 PUSH1 0x14 SWAP1 SLOAD SWAP1 PUSH2 0x100 EXP SWAP1 DIV PUSH1 0xFF AND DUP6 DUP6 CALLER PUSH1 0x40 MLOAD PUSH2 0x12B6 SWAP5 SWAP4 SWAP3 SWAP2 SWAP1 PUSH2 0x5206 JUMP JUMPDEST PUSH1 0x40 MLOAD DUP1 SWAP2 SUB SWAP1 LOG1 POP POP POP POP JUMP JUMPDEST PUSH1 0x1E PUSH1 0x0 SWAP1 SLOAD SWAP1 PUSH2 0x100 EXP SWAP1 DIV PUSH20 0xFFFFFFFFFFFFFFFFFFFFFFFFFFFFFFFFFFFFFFFF AND DUP2 JUMP JUMPDEST PUSH1 0x1A PUSH1 0x20 MSTORE DUP1 PUSH1 0x0 MSTORE PUSH1 0x40 PUSH1 0x0 KECCAK256 PUSH1 0x0 SWAP2 POP SLOAD SWAP1 PUSH2 0x100 EXP SWAP1 DIV PUSH1 0xFF AND DUP2 JUMP JUMPDEST PUSH1 0x19 PUSH1 0x20 MSTORE DUP2 PUSH1 0x0 MSTORE PUSH1 0x40 PUSH1 0x0 KECCAK256 DUP2 DUP2 SLOAD DUP2 LT PUSH2 0x1326 JUMPI PUSH1 0x0 DUP1 REVERT JUMPDEST SWAP1 PUSH1 0x0 MSTORE PUSH1 0x20 PUSH1 0x0 KECCAK256 ADD PUSH1 0x0 SWAP2 POP SWAP2 POP SWAP1 SLOAD SWAP1 PUSH2 0x100 EXP SWAP1 DIV PUSH20 0xFFFFFFFFFFFFFFFFFFFFFFFFFFFFFFFFFFFFFFFF AND DUP2 JUMP JUMPDEST PUSH1 0x0 PUSH1 0x14 DUP4 PUSH1 0xFF AND LT DUP1 ISZERO PUSH2 0x1370 JUMPI POP PUSH1 0x14 DUP3 PUSH1 0xFF AND LT JUMPDEST PUSH2 0x13AF JUMPI PUSH1 0x40 MLOAD PUSH32 0x8C379A000000000000000000000000000000000000000000000000000000000 DUP2 MSTORE PUSH1 0x4 ADD PUSH2 0x13A6 SWAP1 PUSH2 0x5292 JUMP JUMPDEST PUSH1 0x40 MLOAD DUP1 SWAP2 SUB SWAP1 REVERT JUMPDEST PUSH1 0x0 DUP4 PUSH1 0xFF AND PUSH1 0x14 DUP2 LT PUSH2 0x13C6 JUMPI PUSH2 0x13C5 PUSH2 0x52B2 JUMP JUMPDEST JUMPDEST ADD DUP3 PUSH1 0xFF AND PUSH1 0x14 DUP2 LT PUSH2 0x13DC JUMPI PUSH2 0x13DB PUSH2 0x52B2 JUMP JUMPDEST JUMPDEST PUSH1 0x20 SWAP2 DUP3 DUP3 DIV ADD SWAP2 SWAP1 MOD SWAP1 SLOAD SWAP1 PUSH2 0x100 EXP SWAP1 DIV PUSH1 0xFF AND SWAP1 POP SWAP3 SWAP2 POP POP JUMP JUMPDEST PUSH1 0x60 PUSH1 0x0 DUP1 JUMPDEST PUSH1 0x14 DUP2 PUSH1 0xFF AND LT ISZERO PUSH2 0x1499 JUMPI PUSH1 0x0 JUMPDEST PUSH1 0x14 DUP2 PUSH1 0xFF AND LT ISZERO PUSH2 0x1485 JUMPI PUSH1 0x0 PUSH1 0x1D PUSH1 0x0 DUP5 PUSH1 0xFF AND PUSH1 0xFF AND DUP2 MSTORE PUSH1 0x20 ADD SWAP1 DUP2 MSTORE PUSH1 0x20 ADD PUSH1 0x0 KECCAK256 PUSH1 0x0 DUP4 PUSH1 0xFF AND PUSH1 0xFF AND DUP2 MSTORE PUSH1 0x20 ADD SWAP1 DUP2 MSTORE PUSH1 0x20 ADD PUSH1 0x0 KECCAK256 PUSH1 0x0 SWAP1 SLOAD SWAP1 PUSH2 0x100 EXP SWAP1 DIV PUSH1 0xFF AND PUSH1 0xFF AND EQ PUSH2 0x1472 JUMPI DUP3 DUP1 PUSH2 0x146E SWAP1 PUSH2 0x52E1 JUMP JUMPDEST SWAP4 POP POP JUMPDEST DUP1 DUP1 PUSH2 0x147D SWAP1 PUSH2 0x510B JUMP JUMPDEST SWAP2 POP POP PUSH2 0x140F JUMP JUMPDEST POP DUP1 DUP1 PUSH2 0x1491 SWAP1 PUSH2 0x510B JUMP JUMPDEST SWAP2 POP POP PUSH2 0x1400 JUMP JUMPDEST POP PUSH1 0x0 DUP2 PUSH8 0xFFFFFFFFFFFFFFFF DUP2 GT ISZERO PUSH2 0x14B6 JUMPI PUSH2 0x14B5 PUSH2 0x4B1D JUMP JUMPDEST JUMPDEST PUSH1 0x40 MLOAD SWAP1 DUP1 DUP3 MSTORE DUP1 PUSH1 0x20 MUL PUSH1 0x20 ADD DUP3 ADD PUSH1 0x40 MSTORE DUP1 ISZERO PUSH2 0x14EF JUMPI DUP2 PUSH1 0x20 ADD JUMPDEST PUSH2 0x14DC PUSH2 0x3D23 JUMP JUMPDEST DUP2 MSTORE PUSH1 0x20 ADD SWAP1 PUSH1 0x1 SWAP1 SUB SWAP1 DUP2 PUSH2 0x14D4 JUMPI SWAP1 POP JUMPDEST POP SWAP1 POP PUSH1 0x0 DUP1 JUMPDEST PUSH1 0x14 DUP2 PUSH1 0xFF AND LT ISZERO PUSH2 0x15F6 JUMPI PUSH1 0x0 JUMPDEST PUSH1 0x14 DUP2 PUSH1 0xFF AND LT ISZERO PUSH2 0x15E2 JUMPI PUSH1 0x0 PUSH1 0x1D PUSH1 0x0 DUP5 PUSH1 0xFF AND PUSH1 0xFF AND DUP2 MSTORE PUSH1 0x20 ADD SWAP1 DUP2 MSTORE PUSH1 0x20 ADD PUSH1 0x0 KECCAK256 PUSH1 0x0 DUP4 PUSH1 0xFF AND PUSH1 0xFF AND DUP2 MSTORE PUSH1 0x20 ADD SWAP1 DUP2 MSTORE PUSH1 0x20 ADD PUSH1 0x0 KECCAK256 PUSH1 0x0 SWAP1 SLOAD SWAP1 PUSH2 0x100 EXP SWAP1 DIV PUSH1 0xFF AND SWAP1 POP PUSH1 0x0 DUP2 PUSH1 0xFF AND EQ PUSH2 0x15CE JUMPI PUSH1 0x40 MLOAD DUP1 PUSH1 0x80 ADD PUSH1 0x40 MSTORE DUP1 DUP5 PUSH1 0xFF AND DUP2 MSTORE PUSH1 0x20 ADD DUP4 PUSH1 0xFF AND DUP2 MSTORE PUSH1 0x20 ADD DUP3 PUSH1 0xFF AND DUP2 MSTORE PUSH1 0x20 ADD PUSH1 0x1F PUSH1 0x0 DUP5 PUSH1 0xFF AND PUSH1 0xFF AND DUP2 MSTORE PUSH1 0x20 ADD SWAP1 DUP2 MSTORE PUSH1 0x20 ADD PUSH1 0x0 KECCAK256 SLOAD DUP2 MSTORE POP DUP6 DUP6 DUP2 MLOAD DUP2 LT PUSH2 0x15B4 JUMPI PUSH2 0x15B3 PUSH2 0x52B2 JUMP JUMPDEST JUMPDEST PUSH1 0x20 MUL PUSH1 0x20 ADD ADD DUP2 SWAP1 MSTORE POP DUP4 DUP1 PUSH2 0x15CA SWAP1 PUSH2 0x52E1 JUMP JUMPDEST SWAP5 POP POP JUMPDEST POP DUP1 DUP1 PUSH2 0x15DA SWAP1 PUSH2 0x510B JUMP JUMPDEST SWAP2 POP POP PUSH2 0x1505 JUMP JUMPDEST POP DUP1 DUP1 PUSH2 0x15EE SWAP1 PUSH2 0x510B JUMP JUMPDEST SWAP2 POP POP PUSH2 0x14F6 JUMP JUMPDEST POP DUP2 SWAP4 POP POP POP POP SWAP1 JUMP JUMPDEST DUP2 DUP2 PUSH1 0x1C PUSH1 0x0 CALLER PUSH20 0xFFFFFFFFFFFFFFFFFFFFFFFFFFFFFFFFFFFFFFFF AND PUSH20 0xFFFFFFFFFFFFFFFFFFFFFFFFFFFFFFFFFFFFFFFF AND DUP2 MSTORE PUSH1 0x20 ADD SWAP1 DUP2 MSTORE PUSH1 0x20 ADD PUSH1 0x0 KECCAK256 SWAP2 DUP3 PUSH2 0x164E SWAP3 SWAP2 SWAP1 PUSH2 0x4D4E JUMP JUMPDEST POP POP POP JUMP JUMPDEST PUSH2 0x165B PUSH2 0x3D54 JUMP JUMPDEST PUSH1 0x17 PUSH1 0x0 DUP4 PUSH1 0xFF AND PUSH1 0xFF AND DUP2 MSTORE PUSH1 0x20 ADD SWAP1 DUP2 MSTORE PUSH1 0x20 ADD PUSH1 0x0 KECCAK256 PUSH1 0x40 MLOAD DUP1 PUSH1 0x80 ADD PUSH1 0x40 MSTORE SWAP1 DUP2 PUSH1 0x0 DUP3 ADD DUP1 SLOAD PUSH2 0x168F SWAP1 PUSH2 0x4B7B JUMP JUMPDEST DUP1 PUSH1 0x1F ADD PUSH1 0x20 DUP1 SWAP2 DIV MUL PUSH1 0x20 ADD PUSH1 0x40 MLOAD SWAP1 DUP2 ADD PUSH1 0x40 MSTORE DUP1 SWAP3 SWAP2 SWAP1 DUP2 DUP2 MSTORE PUSH1 0x20 ADD DUP3 DUP1 SLOAD PUSH2 0x16BB SWAP1 PUSH2 0x4B7B JUMP JUMPDEST DUP1 ISZERO PUSH2 0x1708 JUMPI DUP1 PUSH1 0x1F LT PUSH2 0x16DD JUMPI PUSH2 0x100 DUP1 DUP4 SLOAD DIV MUL DUP4 MSTORE SWAP2 PUSH1 0x20 ADD SWAP2 PUSH2 0x1708 JUMP JUMPDEST DUP3 ADD SWAP2 SWAP1 PUSH1 0x0 MSTORE PUSH1 0x20 PUSH1 0x0 KECCAK256 SWAP1 JUMPDEST DUP2 SLOAD DUP2 MSTORE SWAP1 PUSH1 0x1 ADD SWAP1 PUSH1 0x20 ADD DUP1 DUP4 GT PUSH2 0x16EB JUMPI DUP3 SWAP1 SUB PUSH1 0x1F AND DUP3 ADD SWAP2 JUMPDEST POP POP POP POP POP DUP2 MSTORE PUSH1 0x20 ADD PUSH1 0x1 DUP3 ADD PUSH1 0x0 SWAP1 SLOAD SWAP1 PUSH2 0x100 EXP SWAP1 DIV PUSH20 0xFFFFFFFFFFFFFFFFFFFFFFFFFFFFFFFFFFFFFFFF AND PUSH20 0xFFFFFFFFFFFFFFFFFFFFFFFFFFFFFFFFFFFFFFFF AND PUSH20 0xFFFFFFFFFFFFFFFFFFFFFFFFFFFFFFFFFFFFFFFF AND DUP2 MSTORE PUSH1 0x20 ADD PUSH1 0x1 DUP3 ADD PUSH1 0x14 SWAP1 SLOAD SWAP1 PUSH2 0x100 EXP SWAP1 DIV PUSH1 0xFF AND PUSH1 0xFF AND PUSH1 0xFF AND DUP2 MSTORE PUSH1 0x20 ADD PUSH1 0x1 DUP3 ADD PUSH1 0x15 SWAP1 SLOAD SWAP1 PUSH2 0x100 EXP SWAP1 DIV PUSH1 0xFF AND ISZERO ISZERO ISZERO ISZERO DUP2 MSTORE POP POP SWAP1 POP SWAP2 SWAP1 POP JUMP JUMPDEST PUSH1 0x14 PUSH1 0x0 SWAP1 SLOAD SWAP1 PUSH2 0x100 EXP SWAP1 DIV PUSH20 0xFFFFFFFFFFFFFFFFFFFFFFFFFFFFFFFFFFFFFFFF AND DUP2 JUMP JUMPDEST PUSH1 0x1D PUSH1 0x20 MSTORE DUP2 PUSH1 0x0 MSTORE PUSH1 0x40 PUSH1 0x0 KECCAK256 PUSH1 0x20 MSTORE DUP1 PUSH1 0x0 MSTORE PUSH1 0x40 PUSH1 0x0 KECCAK256 PUSH1 0x0 SWAP2 POP SWAP2 POP SWAP1 SLOAD SWAP1 PUSH2 0x100 EXP SWAP1 DIV PUSH1 0xFF AND DUP2 JUMP JUMPDEST PUSH5 0x2540BE400 DUP2 JUMP JUMPDEST PUSH5 0x2540BE400 DUP2 JUMP JUMPDEST DUP2 CALLER PUSH20 0xFFFFFFFFFFFFFFFFFFFFFFFFFFFFFFFFFFFFFFFF AND PUSH1 0x17 PUSH1 0x0 DUP4 PUSH1 0xFF AND PUSH1 0xFF AND DUP2 MSTORE PUSH1 0x20 ADD SWAP1 DUP2 MSTORE PUSH1 0x20 ADD PUSH1 0x0 KECCAK256 PUSH1 0x1 ADD PUSH1 0x0 SWAP1 SLOAD SWAP1 PUSH2 0x100 EXP SWAP1 DIV PUSH20 0xFFFFFFFFFFFFFFFFFFFFFFFFFFFFFFFFFFFFFFFF AND PUSH20 0xFFFFFFFFFFFFFFFFFFFFFFFFFFFFFFFFFFFFFFFF AND EQ PUSH2 0x18B8 JUMPI PUSH1 0x40 MLOAD PUSH32 0x8C379A000000000000000000000000000000000000000000000000000000000 DUP2 MSTORE PUSH1 0x4 ADD PUSH2 0x18AF SWAP1 PUSH2 0x539B JUMP JUMPDEST PUSH1 0x40 MLOAD DUP1 SWAP2 SUB SWAP1 REVERT JUMPDEST PUSH1 0x17 PUSH1 0x0 DUP5 PUSH1 0xFF AND PUSH1 0xFF AND DUP2 MSTORE PUSH1 0x20 ADD SWAP1 DUP2 MSTORE PUSH1 0x20 ADD PUSH1 0x0 KECCAK256 PUSH1 0x1 ADD PUSH1 0x15 SWAP1 SLOAD SWAP1 PUSH2 0x100 EXP SWAP1 DIV PUSH1 0xFF AND PUSH2 0x1921 JUMPI PUSH1 0x40 MLOAD PUSH32 0x8C379A000000000000000000000000000000000000000000000000000000000 DUP2 MSTORE PUSH1 0x4 ADD PUSH2 0x1918 SWAP1 PUSH2 0x5407 JUMP JUMPDEST PUSH1 0x40 MLOAD DUP1 SWAP2 SUB SWAP1 REVERT JUMPDEST PUSH1 0x1E PUSH1 0xFF AND PUSH1 0x17 PUSH1 0x0 DUP6 PUSH1 0xFF AND PUSH1 0xFF AND DUP2 MSTORE PUSH1 0x20 ADD SWAP1 DUP2 MSTORE PUSH1 0x20 ADD PUSH1 0x0 KECCAK256 PUSH1 0x1 ADD PUSH1 0x14 SWAP1 SLOAD SWAP1 PUSH2 0x100 EXP SWAP1 DIV PUSH1 0xFF AND PUSH1 0xFF AND LT PUSH2 0x1993 JUMPI PUSH1 0x40 MLOAD PUSH32 0x8C379A000000000000000000000000000000000000000000000000000000000 DUP2 MSTORE PUSH1 0x4 ADD PUSH2 0x198A SWAP1 PUSH2 0x5473 JUMP JUMPDEST PUSH1 0x40 MLOAD DUP1 SWAP2 SUB SWAP1 REVERT JUMPDEST PUSH1 0x18 PUSH1 0x0 DUP4 PUSH20 0xFFFFFFFFFFFFFFFFFFFFFFFFFFFFFFFFFFFFFFFF AND PUSH20 0xFFFFFFFFFFFFFFFFFFFFFFFFFFFFFFFFFFFFFFFF AND DUP2 MSTORE PUSH1 0x20 ADD SWAP1 DUP2 MSTORE PUSH1 0x20 ADD PUSH1 0x0 KECCAK256 PUSH1 0x0 ADD PUSH1 0x1 SWAP1 SLOAD SWAP1 PUSH2 0x100 EXP SWAP1 DIV PUSH1 0xFF AND ISZERO PUSH2 0x1A23 JUMPI PUSH1 0x40 MLOAD PUSH32 0x8C379A000000000000000000000000000000000000000000000000000000000 DUP2 MSTORE PUSH1 0x4 ADD PUSH2 0x1A1A SWAP1 PUSH2 0x54DF JUMP JUMPDEST PUSH1 0x40 MLOAD DUP1 SWAP2 SUB SWAP1 REVERT JUMPDEST PUSH2 0x1A2C DUP3 PUSH2 0x3BA0 JUMP JUMPDEST PUSH2 0x1A6B JUMPI PUSH1 0x40 MLOAD PUSH32 0x8C379A000000000000000000000000000000000000000000000000000000000 DUP2 MSTORE PUSH1 0x4 ADD PUSH2 0x1A62 SWAP1 PUSH2 0x554B JUMP JUMPDEST PUSH1 0x40 MLOAD DUP1 SWAP2 SUB SWAP1 REVERT JUMPDEST PUSH1 0x16 PUSH1 0x0 SWAP1 SLOAD SWAP1 PUSH2 0x100 EXP SWAP1 DIV PUSH20 0xFFFFFFFFFFFFFFFFFFFFFFFFFFFFFFFFFFFFFFFF AND PUSH20 0xFFFFFFFFFFFFFFFFFFFFFFFFFFFFFFFFFFFFFFFF AND PUSH4 0xE3198E08 CALLER PUSH1 0x40 MLOAD DUP3 PUSH4 0xFFFFFFFF AND PUSH1 0xE0 SHL DUP2 MSTORE PUSH1 0x4 ADD PUSH2 0x1AC6 SWAP2 SWAP1 PUSH2 0x43BB JUMP JUMPDEST PUSH1 0x20 PUSH1 0x40 MLOAD DUP1 DUP4 SUB DUP2 DUP7 GAS STATICCALL ISZERO DUP1 ISZERO PUSH2 0x1AE3 JUMPI RETURNDATASIZE PUSH1 0x0 DUP1 RETURNDATACOPY RETURNDATASIZE PUSH1 0x0 REVERT JUMPDEST POP POP POP POP PUSH1 0x40 MLOAD RETURNDATASIZE PUSH1 0x1F NOT PUSH1 0x1F DUP3 ADD AND DUP3 ADD DUP1 PUSH1 0x40 MSTORE POP DUP2 ADD SWAP1 PUSH2 0x1B07 SWAP2 SWAP1 PUSH2 0x4A79 JUMP JUMPDEST PUSH2 0x1B46 JUMPI PUSH1 0x40 MLOAD PUSH32 0x8C379A000000000000000000000000000000000000000000000000000000000 DUP2 MSTORE PUSH1 0x4 ADD PUSH2 0x1B3D SWAP1 PUSH2 0x5050 JUMP JUMPDEST PUSH1 0x40 MLOAD DUP1 SWAP2 SUB SWAP1 REVERT JUMPDEST DUP3 PUSH1 0x1A PUSH1 0x0 DUP5 PUSH20 0xFFFFFFFFFFFFFFFFFFFFFFFFFFFFFFFFFFFFFFFF AND PUSH20 0xFFFFFFFFFFFFFFFFFFFFFFFFFFFFFFFFFFFFFFFF AND DUP2 MSTORE PUSH1 0x20 ADD SWAP1 DUP2 MSTORE PUSH1 0x20 ADD PUSH1 0x0 KECCAK256 PUSH1 0x0 PUSH2 0x100 EXP DUP2 SLOAD DUP2 PUSH1 0xFF MUL NOT AND SWAP1 DUP4 PUSH1 0xFF AND MUL OR SWAP1 SSTORE POP PUSH32 0xFB5973CB72C6BF58BE94FF6AD4A5497B4361C5A70E78C75E83627CF0E1396DF6 DUP4 DUP4 PUSH1 0x40 MLOAD PUSH2 0x1BCF SWAP3 SWAP2 SWAP1 PUSH2 0x556B JUMP JUMPDEST PUSH1 0x40 MLOAD DUP1 SWAP2 SUB SWAP1 LOG1 POP POP POP JUMP JUMPDEST PUSH5 0x174876E800 DUP2 JUMP JUMPDEST PUSH1 0x0 PUSH1 0x1D PUSH1 0x0 DUP5 PUSH1 0xFF AND PUSH1 0xFF AND DUP2 MSTORE PUSH1 0x20 ADD SWAP1 DUP2 MSTORE PUSH1 0x20 ADD PUSH1 0x0 KECCAK256 PUSH1 0x0 DUP4 PUSH1 0xFF AND PUSH1 0xFF AND DUP2 MSTORE PUSH1 0x20 ADD SWAP1 DUP2 MSTORE PUSH1 0x20 ADD PUSH1 0x0 KECCAK256 PUSH1 0x0 SWAP1 SLOAD SWAP1 PUSH2 0x100 EXP SWAP1 DIV PUSH1 0xFF AND SWAP1 POP SWAP3 SWAP2 POP POP JUMP JUMPDEST PUSH1 0x1B PUSH1 0x20 MSTORE DUP2 PUSH1 0x0 MSTORE PUSH1 0x40 PUSH1 0x0 KECCAK256 PUSH1 0x20 MSTORE DUP1 PUSH1 0x0 MSTORE PUSH1 0x40 PUSH1 0x0 KECCAK256 PUSH1 0x0 SWAP2 POP SWAP2 POP POP DUP1 SLOAD PUSH2 0x1C59 SWAP1 PUSH2 0x4B7B JUMP JUMPDEST DUP1 PUSH1 0x1F ADD PUSH1 0x20 DUP1 SWAP2 DIV MUL PUSH1 0x20 ADD PUSH1 0x40 MLOAD SWAP1 DUP2 ADD PUSH1 0x40 MSTORE DUP1 SWAP3 SWAP2 SWAP1 DUP2 DUP2 MSTORE PUSH1 0x20 ADD DUP3 DUP1 SLOAD PUSH2 0x1C85 SWAP1 PUSH2 0x4B7B JUMP JUMPDEST DUP1 ISZERO PUSH2 0x1CD2 JUMPI DUP1 PUSH1 0x1F LT PUSH2 0x1CA7 JUMPI PUSH2 0x100 DUP1 DUP4 SLOAD DIV MUL DUP4 MSTORE SWAP2 PUSH1 0x20 ADD SWAP2 PUSH2 0x1CD2 JUMP JUMPDEST DUP3 ADD SWAP2 SWAP1 PUSH1 0x0 MSTORE PUSH1 0x20 PUSH1 0x0 KECCAK256 SWAP1 JUMPDEST DUP2 SLOAD DUP2 MSTORE SWAP1 PUSH1 0x1 ADD SWAP1 PUSH1 0x20 ADD DUP1 DUP4 GT PUSH2 0x1CB5 JUMPI DUP3 SWAP1 SUB PUSH1 0x1F AND DUP3 ADD SWAP2 JUMPDEST POP POP POP POP POP DUP2 JUMP JUMPDEST PUSH1 0x0 PUSH1 0x1A PUSH1 0x0 CALLER PUSH20 0xFFFFFFFFFFFFFFFFFFFFFFFFFFFFFFFFFFFFFFFF AND PUSH20 0xFFFFFFFFFFFFFFFFFFFFFFFFFFFFFFFFFFFFFFFF AND DUP2 MSTORE PUSH1 0x20 ADD SWAP1 DUP2 MSTORE PUSH1 0x20 ADD PUSH1 0x0 KECCAK256 PUSH1 0x0 SWAP1 SLOAD SWAP1 PUSH2 0x100 EXP SWAP1 DIV PUSH1 0xFF AND PUSH1 0xFF AND GT PUSH2 0x1D6C JUMPI PUSH1 0x40 MLOAD PUSH32 0x8C379A000000000000000000000000000000000000000000000000000000000 DUP2 MSTORE PUSH1 0x4 ADD PUSH2 0x1D63 SWAP1 PUSH2 0x55E0 JUMP JUMPDEST PUSH1 0x40 MLOAD DUP1 SWAP2 SUB SWAP1 REVERT JUMPDEST PUSH1 0x1A PUSH1 0x0 CALLER PUSH20 0xFFFFFFFFFFFFFFFFFFFFFFFFFFFFFFFFFFFFFFFF AND PUSH20 0xFFFFFFFFFFFFFFFFFFFFFFFFFFFFFFFFFFFFFFFF AND DUP2 MSTORE PUSH1 0x20 ADD SWAP1 DUP2 MSTORE PUSH1 0x20 ADD PUSH1 0x0 KECCAK256 PUSH1 0x0 PUSH2 0x100 EXP DUP2 SLOAD SWAP1 PUSH1 0xFF MUL NOT AND SWAP1 SSTORE JUMP JUMPDEST DUP2 CALLER PUSH20 0xFFFFFFFFFFFFFFFFFFFFFFFFFFFFFFFFFFFFFFFF AND PUSH1 0x17 PUSH1 0x0 DUP4 PUSH1 0xFF AND PUSH1 0xFF AND DUP2 MSTORE PUSH1 0x20 ADD SWAP1 DUP2 MSTORE PUSH1 0x20 ADD PUSH1 0x0 KECCAK256 PUSH1 0x1 ADD PUSH1 0x0 SWAP1 SLOAD SWAP1 PUSH2 0x100 EXP SWAP1 DIV PUSH20 0xFFFFFFFFFFFFFFFFFFFFFFFFFFFFFFFFFFFFFFFF AND PUSH20 0xFFFFFFFFFFFFFFFFFFFFFFFFFFFFFFFFFFFFFFFF AND EQ PUSH2 0x1E68 JUMPI PUSH1 0x40 MLOAD PUSH32 0x8C379A000000000000000000000000000000000000000000000000000000000 DUP2 MSTORE PUSH1 0x4 ADD PUSH2 0x1E5F SWAP1 PUSH2 0x539B JUMP JUMPDEST PUSH1 0x40 MLOAD DUP1 SWAP2 SUB SWAP1 REVERT JUMPDEST DUP3 PUSH1 0xFF AND PUSH1 0x18 PUSH1 0x0 CALLER PUSH20 0xFFFFFFFFFFFFFFFFFFFFFFFFFFFFFFFFFFFFFFFF AND PUSH20 0xFFFFFFFFFFFFFFFFFFFFFFFFFFFFFFFFFFFFFFFF AND DUP2 MSTORE PUSH1 0x20 ADD SWAP1 DUP2 MSTORE PUSH1 0x20 ADD PUSH1 0x0 KECCAK256 PUSH1 0x0 ADD PUSH1 0x0 SWAP1 SLOAD SWAP1 PUSH2 0x100 EXP SWAP1 DIV PUSH1 0xFF AND PUSH1 0xFF AND EQ PUSH2 0x1EFF JUMPI PUSH1 0x40 MLOAD PUSH32 0x8C379A000000000000000000000000000000000000000000000000000000000 DUP2 MSTORE PUSH1 0x4 ADD PUSH2 0x1EF6 SWAP1 PUSH2 0x564C JUMP JUMPDEST PUSH1 0x40 MLOAD DUP1 SWAP2 SUB SWAP1 REVERT JUMPDEST CALLER PUSH20 0xFFFFFFFFFFFFFFFFFFFFFFFFFFFFFFFFFFFFFFFF AND PUSH1 0x1E PUSH1 0x0 SWAP1 SLOAD SWAP1 PUSH2 0x100 EXP SWAP1 DIV PUSH20 0xFFFFFFFFFFFFFFFFFFFFFFFFFFFFFFFFFFFFFFFF AND PUSH20 0xFFFFFFFFFFFFFFFFFFFFFFFFFFFFFFFFFFFFFFFF AND PUSH4 0x6352211E DUP5 PUSH1 0x40 MLOAD DUP3 PUSH4 0xFFFFFFFF AND PUSH1 0xE0 SHL DUP2 MSTORE PUSH1 0x4 ADD PUSH2 0x1F71 SWAP2 SWAP1 PUSH2 0x4643 JUMP JUMPDEST PUSH1 0x20 PUSH1 0x40 MLOAD DUP1 DUP4 SUB DUP2 DUP7 GAS STATICCALL ISZERO DUP1 ISZERO PUSH2 0x1F8E JUMPI RETURNDATASIZE PUSH1 0x0 DUP1 RETURNDATACOPY RETURNDATASIZE PUSH1 0x0 REVERT JUMPDEST POP POP POP POP PUSH1 0x40 MLOAD RETURNDATASIZE PUSH1 0x1F NOT PUSH1 0x1F DUP3 ADD AND DUP3 ADD DUP1 PUSH1 0x40 MSTORE POP DUP2 ADD SWAP1 PUSH2 0x1FB2 SWAP2 SWAP1 PUSH2 0x4957 JUMP JUMPDEST PUSH20 0xFFFFFFFFFFFFFFFFFFFFFFFFFFFFFFFFFFFFFFFF AND EQ PUSH2 0x2008 JUMPI PUSH1 0x40 MLOAD PUSH32 0x8C379A000000000000000000000000000000000000000000000000000000000 DUP2 MSTORE PUSH1 0x4 ADD PUSH2 0x1FFF SWAP1 PUSH2 0x56B8 JUMP JUMPDEST PUSH1 0x40 MLOAD DUP1 SWAP2 SUB SWAP1 REVERT JUMPDEST PUSH1 0x0 PUSH1 0x1E PUSH1 0x0 SWAP1 SLOAD SWAP1 PUSH2 0x100 EXP SWAP1 DIV PUSH20 0xFFFFFFFFFFFFFFFFFFFFFFFFFFFFFFFFFFFFFFFF AND PUSH20 0xFFFFFFFFFFFFFFFFFFFFFFFFFFFFFFFFFFFFFFFF AND PUSH4 0xAD4C4F4 DUP5 PUSH1 0x40 MLOAD DUP3 PUSH4 0xFFFFFFFF AND PUSH1 0xE0 SHL DUP2 MSTORE PUSH1 0x4 ADD PUSH2 0x2065 SWAP2 SWAP1 PUSH2 0x4643 JUMP JUMPDEST PUSH1 0x0 PUSH1 0x40 MLOAD DUP1 DUP4 SUB DUP2 DUP7 GAS STATICCALL ISZERO DUP1 ISZERO PUSH2 0x2082 JUMPI RETURNDATASIZE PUSH1 0x0 DUP1 RETURNDATACOPY RETURNDATASIZE PUSH1 0x0 REVERT JUMPDEST POP POP POP POP PUSH1 0x40 MLOAD RETURNDATASIZE PUSH1 0x0 DUP3 RETURNDATACOPY RETURNDATASIZE PUSH1 0x1F NOT PUSH1 0x1F DUP3 ADD AND DUP3 ADD DUP1 PUSH1 0x40 MSTORE POP DUP2 ADD SWAP1 PUSH2 0x20AB SWAP2 SWAP1 PUSH2 0x57DF JUMP JUMPDEST POP SWAP10 POP POP POP POP POP POP POP POP POP POP PUSH1 0x1 DUP2 EQ PUSH2 0x20FA JUMPI PUSH1 0x40 MLOAD PUSH32 0x8C379A000000000000000000000000000000000000000000000000000000000 DUP2 MSTORE PUSH1 0x4 ADD PUSH2 0x20F1 SWAP1 PUSH2 0x59ED JUMP JUMPDEST PUSH1 0x40 MLOAD DUP1 SWAP2 SUB SWAP1 REVERT JUMPDEST PUSH1 0x16 PUSH1 0x0 SWAP1 SLOAD SWAP1 PUSH2 0x100 EXP SWAP1 DIV PUSH20 0xFFFFFFFFFFFFFFFFFFFFFFFFFFFFFFFFFFFFFFFF AND PUSH20 0xFFFFFFFFFFFFFFFFFFFFFFFFFFFFFFFFFFFFFFFF AND PUSH4 0xE3198E08 CALLER PUSH1 0x40 MLOAD DUP3 PUSH4 0xFFFFFFFF AND PUSH1 0xE0 SHL DUP2 MSTORE PUSH1 0x4 ADD PUSH2 0x2155 SWAP2 SWAP1 PUSH2 0x43BB JUMP JUMPDEST PUSH1 0x20 PUSH1 0x40 MLOAD DUP1 DUP4 SUB DUP2 DUP7 GAS STATICCALL ISZERO DUP1 ISZERO PUSH2 0x2172 JUMPI RETURNDATASIZE PUSH1 0x0 DUP1 RETURNDATACOPY RETURNDATASIZE PUSH1 0x0 REVERT JUMPDEST POP POP POP POP PUSH1 0x40 MLOAD RETURNDATASIZE PUSH1 0x1F NOT PUSH1 0x1F DUP3 ADD AND DUP3 ADD DUP1 PUSH1 0x40 MSTORE POP DUP2 ADD SWAP1 PUSH2 0x2196 SWAP2 SWAP1 PUSH2 0x4A79 JUMP JUMPDEST PUSH2 0x21D5 JUMPI PUSH1 0x40 MLOAD PUSH32 0x8C379A000000000000000000000000000000000000000000000000000000000 DUP2 MSTORE PUSH1 0x4 ADD PUSH2 0x21CC SWAP1 PUSH2 0x5050 JUMP JUMPDEST PUSH1 0x40 MLOAD DUP1 SWAP2 SUB SWAP1 REVERT JUMPDEST PUSH1 0x15 PUSH1 0x0 SWAP1 SLOAD SWAP1 PUSH2 0x100 EXP SWAP1 DIV PUSH20 0xFFFFFFFFFFFFFFFFFFFFFFFFFFFFFFFFFFFFFFFF AND PUSH20 0xFFFFFFFFFFFFFFFFFFFFFFFFFFFFFFFFFFFFFFFF AND PUSH4 0x23B872DD CALLER ADDRESS PUSH5 0x2540BE400 PUSH1 0x40 MLOAD DUP5 PUSH4 0xFFFFFFFF AND PUSH1 0xE0 SHL DUP2 MSTORE PUSH1 0x4 ADD PUSH2 0x2239 SWAP4 SWAP3 SWAP2 SWAP1 PUSH2 0x4A16 JUMP JUMPDEST PUSH1 0x20 PUSH1 0x40 MLOAD DUP1 DUP4 SUB DUP2 PUSH1 0x0 DUP8 GAS CALL ISZERO DUP1 ISZERO PUSH2 0x2258 JUMPI RETURNDATASIZE PUSH1 0x0 DUP1 RETURNDATACOPY RETURNDATASIZE PUSH1 0x0 REVERT JUMPDEST POP POP POP POP PUSH1 0x40 MLOAD RETURNDATASIZE PUSH1 0x1F NOT PUSH1 0x1F DUP3 ADD AND DUP3 ADD DUP1 PUSH1 0x40 MSTORE POP DUP2 ADD SWAP1 PUSH2 0x227C SWAP2 SWAP1 PUSH2 0x4A79 JUMP JUMPDEST PUSH2 0x22BB JUMPI PUSH1 0x40 MLOAD PUSH32 0x8C379A000000000000000000000000000000000000000000000000000000000 DUP2 MSTORE PUSH1 0x4 ADD PUSH2 0x22B2 SWAP1 PUSH2 0x50BC JUMP JUMPDEST PUSH1 0x40 MLOAD DUP1 SWAP2 SUB SWAP1 REVERT JUMPDEST DUP3 PUSH1 0x1F PUSH1 0x0 DUP7 PUSH1 0xFF AND PUSH1 0xFF AND DUP2 MSTORE PUSH1 0x20 ADD SWAP1 DUP2 MSTORE PUSH1 0x20 ADD PUSH1 0x0 KECCAK256 DUP2 SWAP1 SSTORE POP POP POP POP POP JUMP JUMPDEST PUSH1 0x60 PUSH1 0x0 DUP1 PUSH1 0x1 SWAP1 POP JUMPDEST PUSH1 0x16 PUSH1 0x14 SWAP1 SLOAD SWAP1 PUSH2 0x100 EXP SWAP1 DIV PUSH1 0xFF AND PUSH1 0xFF AND DUP2 PUSH1 0xFF AND GT PUSH2 0x2356 JUMPI PUSH1 0x17 PUSH1 0x0 DUP3 PUSH1 0xFF AND PUSH1 0xFF AND DUP2 MSTORE PUSH1 0x20 ADD SWAP1 DUP2 MSTORE PUSH1 0x20 ADD PUSH1 0x0 KECCAK256 PUSH1 0x1 ADD PUSH1 0x15 SWAP1 SLOAD SWAP1 PUSH2 0x100 EXP SWAP1 DIV PUSH1 0xFF AND ISZERO PUSH2 0x2343 JUMPI DUP2 DUP1 PUSH2 0x233F SWAP1 PUSH2 0x52E1 JUMP JUMPDEST SWAP3 POP POP JUMPDEST DUP1 DUP1 PUSH2 0x234E SWAP1 PUSH2 0x510B JUMP JUMPDEST SWAP2 POP POP PUSH2 0x22E9 JUMP JUMPDEST POP PUSH1 0x0 DUP2 PUSH8 0xFFFFFFFFFFFFFFFF DUP2 GT ISZERO PUSH2 0x2373 JUMPI PUSH2 0x2372 PUSH2 0x4B1D JUMP JUMPDEST JUMPDEST PUSH1 0x40 MLOAD SWAP1 DUP1 DUP3 MSTORE DUP1 PUSH1 0x20 MUL PUSH1 0x20 ADD DUP3 ADD PUSH1 0x40 MSTORE DUP1 ISZERO PUSH2 0x23AC JUMPI DUP2 PUSH1 0x20 ADD JUMPDEST PUSH2 0x2399 PUSH2 0x3D54 JUMP JUMPDEST DUP2 MSTORE PUSH1 0x20 ADD SWAP1 PUSH1 0x1 SWAP1 SUB SWAP1 DUP2 PUSH2 0x2391 JUMPI SWAP1 POP JUMPDEST POP SWAP1 POP PUSH1 0x0 DUP1 PUSH1 0x1 SWAP1 POP JUMPDEST PUSH1 0x16 PUSH1 0x14 SWAP1 SLOAD SWAP1 PUSH2 0x100 EXP SWAP1 DIV PUSH1 0xFF AND PUSH1 0xFF AND DUP2 PUSH1 0xFF AND GT PUSH2 0x2586 JUMPI PUSH1 0x17 PUSH1 0x0 DUP3 PUSH1 0xFF AND PUSH1 0xFF AND DUP2 MSTORE PUSH1 0x20 ADD SWAP1 DUP2 MSTORE PUSH1 0x20 ADD PUSH1 0x0 KECCAK256 PUSH1 0x1 ADD PUSH1 0x15 SWAP1 SLOAD SWAP1 PUSH2 0x100 EXP SWAP1 DIV PUSH1 0xFF AND ISZERO PUSH2 0x2573 JUMPI PUSH1 0x17 PUSH1 0x0 DUP3 PUSH1 0xFF AND PUSH1 0xFF AND DUP2 MSTORE PUSH1 0x20 ADD SWAP1 DUP2 MSTORE PUSH1 0x20 ADD PUSH1 0x0 KECCAK256 PUSH1 0x40 MLOAD DUP1 PUSH1 0x80 ADD PUSH1 0x40 MSTORE SWAP1 DUP2 PUSH1 0x0 DUP3 ADD DUP1 SLOAD PUSH2 0x2436 SWAP1 PUSH2 0x4B7B JUMP JUMPDEST DUP1 PUSH1 0x1F ADD PUSH1 0x20 DUP1 SWAP2 DIV MUL PUSH1 0x20 ADD PUSH1 0x40 MLOAD SWAP1 DUP2 ADD PUSH1 0x40 MSTORE DUP1 SWAP3 SWAP2 SWAP1 DUP2 DUP2 MSTORE PUSH1 0x20 ADD DUP3 DUP1 SLOAD PUSH2 0x2462 SWAP1 PUSH2 0x4B7B JUMP JUMPDEST DUP1 ISZERO PUSH2 0x24AF JUMPI DUP1 PUSH1 0x1F LT PUSH2 0x2484 JUMPI PUSH2 0x100 DUP1 DUP4 SLOAD DIV MUL DUP4 MSTORE SWAP2 PUSH1 0x20 ADD SWAP2 PUSH2 0x24AF JUMP JUMPDEST DUP3 ADD SWAP2 SWAP1 PUSH1 0x0 MSTORE PUSH1 0x20 PUSH1 0x0 KECCAK256 SWAP1 JUMPDEST DUP2 SLOAD DUP2 MSTORE SWAP1 PUSH1 0x1 ADD SWAP1 PUSH1 0x20 ADD DUP1 DUP4 GT PUSH2 0x2492 JUMPI DUP3 SWAP1 SUB PUSH1 0x1F AND DUP3 ADD SWAP2 JUMPDEST POP POP POP POP POP DUP2 MSTORE PUSH1 0x20 ADD PUSH1 0x1 DUP3 ADD PUSH1 0x0 SWAP1 SLOAD SWAP1 PUSH2 0x100 EXP SWAP1 DIV PUSH20 0xFFFFFFFFFFFFFFFFFFFFFFFFFFFFFFFFFFFFFFFF AND PUSH20 0xFFFFFFFFFFFFFFFFFFFFFFFFFFFFFFFFFFFFFFFF AND PUSH20 0xFFFFFFFFFFFFFFFFFFFFFFFFFFFFFFFFFFFFFFFF AND DUP2 MSTORE PUSH1 0x20 ADD PUSH1 0x1 DUP3 ADD PUSH1 0x14 SWAP1 SLOAD SWAP1 PUSH2 0x100 EXP SWAP1 DIV PUSH1 0xFF AND PUSH1 0xFF AND PUSH1 0xFF AND DUP2 MSTORE PUSH1 0x20 ADD PUSH1 0x1 DUP3 ADD PUSH1 0x15 SWAP1 SLOAD SWAP1 PUSH2 0x100 EXP SWAP1 DIV PUSH1 0xFF AND ISZERO ISZERO ISZERO ISZERO DUP2 MSTORE POP POP DUP4 DUP4 DUP2 MLOAD DUP2 LT PUSH2 0x2559 JUMPI PUSH2 0x2558 PUSH2 0x52B2 JUMP JUMPDEST JUMPDEST PUSH1 0x20 MUL PUSH1 0x20 ADD ADD DUP2 SWAP1 MSTORE POP DUP2 DUP1 PUSH2 0x256F SWAP1 PUSH2 0x52E1 JUMP JUMPDEST SWAP3 POP POP JUMPDEST DUP1 DUP1 PUSH2 0x257E SWAP1 PUSH2 0x510B JUMP JUMPDEST SWAP2 POP POP PUSH2 0x23B7 JUMP JUMPDEST POP DUP2 SWAP4 POP POP POP POP SWAP1 JUMP JUMPDEST PUSH1 0x0 PUSH1 0x17 PUSH1 0x0 DUP4 PUSH1 0xFF AND PUSH1 0xFF AND DUP2 MSTORE PUSH1 0x20 ADD SWAP1 DUP2 MSTORE PUSH1 0x20 ADD PUSH1 0x0 KECCAK256 PUSH1 0x1 ADD PUSH1 0x15 SWAP1 SLOAD SWAP1 PUSH2 0x100 EXP SWAP1 DIV PUSH1 0xFF AND PUSH2 0x25FB JUMPI PUSH1 0x40 MLOAD PUSH32 0x8C379A000000000000000000000000000000000000000000000000000000000 DUP2 MSTORE PUSH1 0x4 ADD PUSH2 0x25F2 SWAP1 PUSH2 0x5407 JUMP JUMPDEST PUSH1 0x40 MLOAD DUP1 SWAP2 SUB SWAP1 REVERT JUMPDEST PUSH1 0x17 PUSH1 0x0 DUP4 PUSH1 0xFF AND PUSH1 0xFF AND DUP2 MSTORE PUSH1 0x20 ADD SWAP1 DUP2 MSTORE PUSH1 0x20 ADD PUSH1 0x0 KECCAK256 PUSH1 0x1 ADD PUSH1 0x14 SWAP1 SLOAD SWAP1 PUSH2 0x100 EXP SWAP1 DIV PUSH1 0xFF AND SWAP1 POP SWAP2 SWAP1 POP JUMP JUMPDEST PUSH1 0x18 PUSH1 0x0 CALLER PUSH20 0xFFFFFFFFFFFFFFFFFFFFFFFFFFFFFFFFFFFFFFFF AND PUSH20 0xFFFFFFFFFFFFFFFFFFFFFFFFFFFFFFFFFFFFFFFF AND DUP2 MSTORE PUSH1 0x20 ADD SWAP1 DUP2 MSTORE PUSH1 0x20 ADD PUSH1 0x0 KECCAK256 PUSH1 0x0 ADD PUSH1 0x1 SWAP1 SLOAD SWAP1 PUSH2 0x100 EXP SWAP1 DIV PUSH1 0xFF AND PUSH2 0x26BB JUMPI PUSH1 0x40 MLOAD PUSH32 0x8C379A000000000000000000000000000000000000000000000000000000000 DUP2 MSTORE PUSH1 0x4 ADD PUSH2 0x26B2 SWAP1 PUSH2 0x5A59 JUMP JUMPDEST PUSH1 0x40 MLOAD DUP1 SWAP2 SUB SWAP1 REVERT JUMPDEST PUSH1 0x0 PUSH1 0x18 PUSH1 0x0 CALLER PUSH20 0xFFFFFFFFFFFFFFFFFFFFFFFFFFFFFFFFFFFFFFFF AND PUSH20 0xFFFFFFFFFFFFFFFFFFFFFFFFFFFFFFFFFFFFFFFF AND DUP2 MSTORE PUSH1 0x20 ADD SWAP1 DUP2 MSTORE PUSH1 0x20 ADD PUSH1 0x0 KECCAK256 PUSH1 0x0 ADD PUSH1 0x0 SWAP1 SLOAD SWAP1 PUSH2 0x100 EXP SWAP1 DIV PUSH1 0xFF AND SWAP1 POP PUSH1 0x17 PUSH1 0x0 DUP3 PUSH1 0xFF AND PUSH1 0xFF AND DUP2 MSTORE PUSH1 0x20 ADD SWAP1 DUP2 MSTORE PUSH1 0x20 ADD PUSH1 0x0 KECCAK256 PUSH1 0x1 ADD PUSH1 0x15 SWAP1 SLOAD SWAP1 PUSH2 0x100 EXP SWAP1 DIV PUSH1 0xFF AND PUSH2 0x2778 JUMPI PUSH1 0x40 MLOAD PUSH32 0x8C379A000000000000000000000000000000000000000000000000000000000 DUP2 MSTORE PUSH1 0x4 ADD PUSH2 0x276F SWAP1 PUSH2 0x5407 JUMP JUMPDEST PUSH1 0x40 MLOAD DUP1 SWAP2 SUB SWAP1 REVERT JUMPDEST CALLER PUSH20 0xFFFFFFFFFFFFFFFFFFFFFFFFFFFFFFFFFFFFFFFF AND PUSH1 0x17 PUSH1 0x0 DUP4 PUSH1 0xFF AND PUSH1 0xFF AND DUP2 MSTORE PUSH1 0x20 ADD SWAP1 DUP2 MSTORE PUSH1 0x20 ADD PUSH1 0x0 KECCAK256 PUSH1 0x1 ADD PUSH1 0x0 SWAP1 SLOAD SWAP1 PUSH2 0x100 EXP SWAP1 DIV PUSH20 0xFFFFFFFFFFFFFFFFFFFFFFFFFFFFFFFFFFFFFFFF AND PUSH20 0xFFFFFFFFFFFFFFFFFFFFFFFFFFFFFFFFFFFFFFFF AND SUB PUSH2 0x2822 JUMPI PUSH1 0x40 MLOAD PUSH32 0x8C379A000000000000000000000000000000000000000000000000000000000 DUP2 MSTORE PUSH1 0x4 ADD PUSH2 0x2819 SWAP1 PUSH2 0x5AEB JUMP JUMPDEST PUSH1 0x40 MLOAD DUP1 SWAP2 SUB SWAP1 REVERT JUMPDEST PUSH1 0x0 PUSH1 0x18 PUSH1 0x0 CALLER PUSH20 0xFFFFFFFFFFFFFFFFFFFFFFFFFFFFFFFFFFFFFFFF AND PUSH20 0xFFFFFFFFFFFFFFFFFFFFFFFFFFFFFFFFFFFFFFFF AND DUP2 MSTORE PUSH1 0x20 ADD SWAP1 DUP2 MSTORE PUSH1 0x20 ADD PUSH1 0x0 KECCAK256 PUSH1 0x0 ADD PUSH1 0x1 PUSH2 0x100 EXP DUP2 SLOAD DUP2 PUSH1 0xFF MUL NOT AND SWAP1 DUP4 ISZERO ISZERO MUL OR SWAP1 SSTORE POP PUSH1 0x17 PUSH1 0x0 DUP3 PUSH1 0xFF AND PUSH1 0xFF AND DUP2 MSTORE PUSH1 0x20 ADD SWAP1 DUP2 MSTORE PUSH1 0x20 ADD PUSH1 0x0 KECCAK256 PUSH1 0x1 ADD PUSH1 0x14 DUP2 DUP2 SWAP1 SLOAD SWAP1 PUSH2 0x100 EXP SWAP1 DIV PUSH1 0xFF AND DUP1 SWAP3 SWAP2 SWAP1 PUSH2 0x28B6 SWAP1 PUSH2 0x5B0B JUMP JUMPDEST SWAP2 SWAP1 PUSH2 0x100 EXP DUP2 SLOAD DUP2 PUSH1 0xFF MUL NOT AND SWAP1 DUP4 PUSH1 0xFF AND MUL OR SWAP1 SSTORE POP POP PUSH1 0x0 JUMPDEST PUSH1 0x19 PUSH1 0x0 DUP4 PUSH1 0xFF AND PUSH1 0xFF AND DUP2 MSTORE PUSH1 0x20 ADD SWAP1 DUP2 MSTORE PUSH1 0x20 ADD PUSH1 0x0 KECCAK256 DUP1 SLOAD SWAP1 POP DUP2 LT ISZERO PUSH2 0x2AE5 JUMPI CALLER PUSH20 0xFFFFFFFFFFFFFFFFFFFFFFFFFFFFFFFFFFFFFFFF AND PUSH1 0x19 PUSH1 0x0 DUP5 PUSH1 0xFF AND PUSH1 0xFF AND DUP2 MSTORE PUSH1 0x20 ADD SWAP1 DUP2 MSTORE PUSH1 0x20 ADD PUSH1 0x0 KECCAK256 DUP3 DUP2 SLOAD DUP2 LT PUSH2 0x2938 JUMPI PUSH2 0x2937 PUSH2 0x52B2 JUMP JUMPDEST JUMPDEST SWAP1 PUSH1 0x0 MSTORE PUSH1 0x20 PUSH1 0x0 KECCAK256 ADD PUSH1 0x0 SWAP1 SLOAD SWAP1 PUSH2 0x100 EXP SWAP1 DIV PUSH20 0xFFFFFFFFFFFFFFFFFFFFFFFFFFFFFFFFFFFFFFFF AND PUSH20 0xFFFFFFFFFFFFFFFFFFFFFFFFFFFFFFFFFFFFFFFF AND SUB PUSH2 0x2AD2 JUMPI PUSH1 0x19 PUSH1 0x0 DUP4 PUSH1 0xFF AND PUSH1 0xFF AND DUP2 MSTORE PUSH1 0x20 ADD SWAP1 DUP2 MSTORE PUSH1 0x20 ADD PUSH1 0x0 KECCAK256 PUSH1 0x1 PUSH1 0x19 PUSH1 0x0 DUP6 PUSH1 0xFF AND PUSH1 0xFF AND DUP2 MSTORE PUSH1 0x20 ADD SWAP1 DUP2 MSTORE PUSH1 0x20 ADD PUSH1 0x0 KECCAK256 DUP1 SLOAD SWAP1 POP PUSH2 0x29C0 SWAP2 SWAP1 PUSH2 0x5B34 JUMP JUMPDEST DUP2 SLOAD DUP2 LT PUSH2 0x29D1 JUMPI PUSH2 0x29D0 PUSH2 0x52B2 JUMP JUMPDEST JUMPDEST SWAP1 PUSH1 0x0 MSTORE PUSH1 0x20 PUSH1 0x0 KECCAK256 ADD PUSH1 0x0 SWAP1 SLOAD SWAP1 PUSH2 0x100 EXP SWAP1 DIV PUSH20 0xFFFFFFFFFFFFFFFFFFFFFFFFFFFFFFFFFFFFFFFF AND PUSH1 0x19 PUSH1 0x0 DUP5 PUSH1 0xFF AND PUSH1 0xFF AND DUP2 MSTORE PUSH1 0x20 ADD SWAP1 DUP2 MSTORE PUSH1 0x20 ADD PUSH1 0x0 KECCAK256 DUP3 DUP2 SLOAD DUP2 LT PUSH2 0x2A27 JUMPI PUSH2 0x2A26 PUSH2 0x52B2 JUMP JUMPDEST JUMPDEST SWAP1 PUSH1 0x0 MSTORE PUSH1 0x20 PUSH1 0x0 KECCAK256 ADD PUSH1 0x0 PUSH2 0x100 EXP DUP2 SLOAD DUP2 PUSH20 0xFFFFFFFFFFFFFFFFFFFFFFFFFFFFFFFFFFFFFFFF MUL NOT AND SWAP1 DUP4 PUSH20 0xFFFFFFFFFFFFFFFFFFFFFFFFFFFFFFFFFFFFFFFF AND MUL OR SWAP1 SSTORE POP PUSH1 0x19 PUSH1 0x0 DUP4 PUSH1 0xFF AND PUSH1 0xFF AND DUP2 MSTORE PUSH1 0x20 ADD SWAP1 DUP2 MSTORE PUSH1 0x20 ADD PUSH1 0x0 KECCAK256 DUP1 SLOAD DUP1 PUSH2 0x2A98 JUMPI PUSH2 0x2A97 PUSH2 0x5B68 JUMP JUMPDEST JUMPDEST PUSH1 0x1 SWAP1 SUB DUP2 DUP2 SWAP1 PUSH1 0x0 MSTORE PUSH1 0x20 PUSH1 0x0 KECCAK256 ADD PUSH1 0x0 PUSH2 0x100 EXP DUP2 SLOAD SWAP1 PUSH20 0xFFFFFFFFFFFFFFFFFFFFFFFFFFFFFFFFFFFFFFFF MUL NOT AND SWAP1 SSTORE SWAP1 SSTORE PUSH2 0x2AE5 JUMP JUMPDEST DUP1 DUP1 PUSH2 0x2ADD SWAP1 PUSH2 0x52E1 JUMP JUMPDEST SWAP2 POP POP PUSH2 0x28D2 JUMP JUMPDEST POP PUSH1 0x0 DUP1 PUSH2 0x2AF2 CALLER PUSH2 0x3C45 JUMP JUMPDEST SWAP2 POP SWAP2 POP PUSH1 0x0 PUSH1 0x1D PUSH1 0x0 DUP5 PUSH1 0xFF AND PUSH1 0xFF AND DUP2 MSTORE PUSH1 0x20 ADD SWAP1 DUP2 MSTORE PUSH1 0x20 ADD PUSH1 0x0 KECCAK256 PUSH1 0x0 DUP4 PUSH1 0xFF AND PUSH1 0xFF AND DUP2 MSTORE PUSH1 0x20 ADD SWAP1 DUP2 MSTORE PUSH1 0x20 ADD PUSH1 0x0 KECCAK256 PUSH1 0x0 PUSH2 0x100 EXP DUP2 SLOAD DUP2 PUSH1 0xFF MUL NOT AND SWAP1 DUP4 PUSH1 0xFF AND MUL OR SWAP1 SSTORE POP PUSH32 0x45C35F53284761DC1375DA434DFC7EC6A908FD346CB7EF4B10B8A75D6CB83752 DUP4 CALLER PUSH1 0x40 MLOAD PUSH2 0x2B71 SWAP3 SWAP2 SWAP1 PUSH2 0x556B JUMP JUMPDEST PUSH1 0x40 MLOAD DUP1 SWAP2 SUB SWAP1 LOG1 POP POP POP JUMP JUMPDEST PUSH1 0x16 PUSH1 0x0 SWAP1 SLOAD SWAP1 PUSH2 0x100 EXP SWAP1 DIV PUSH20 0xFFFFFFFFFFFFFFFFFFFFFFFFFFFFFFFFFFFFFFFF AND DUP2 JUMP JUMPDEST PUSH2 0x2BAD CALLER PUSH2 0x3BA0 JUMP JUMPDEST PUSH2 0x2BEC JUMPI PUSH1 0x40 MLOAD PUSH32 0x8C379A000000000000000000000000000000000000000000000000000000000 DUP2 MSTORE PUSH1 0x4 ADD PUSH2 0x2BE3 SWAP1 PUSH2 0x4F0C JUMP JUMPDEST PUSH1 0x40 MLOAD DUP1 SWAP2 SUB SWAP1 REVERT JUMPDEST PUSH1 0x0 PUSH1 0x1A PUSH1 0x0 CALLER PUSH20 0xFFFFFFFFFFFFFFFFFFFFFFFFFFFFFFFFFFFFFFFF AND PUSH20 0xFFFFFFFFFFFFFFFFFFFFFFFFFFFFFFFFFFFFFFFF AND DUP2 MSTORE PUSH1 0x20 ADD SWAP1 DUP2 MSTORE PUSH1 0x20 ADD PUSH1 0x0 KECCAK256 PUSH1 0x0 SWAP1 SLOAD SWAP1 PUSH2 0x100 EXP SWAP1 DIV PUSH1 0xFF AND SWAP1 POP PUSH1 0x0 DUP2 PUSH1 0xFF AND GT PUSH2 0x2C83 JUMPI PUSH1 0x40 MLOAD PUSH32 0x8C379A000000000000000000000000000000000000000000000000000000000 DUP2 MSTORE PUSH1 0x4 ADD PUSH2 0x2C7A SWAP1 PUSH2 0x5BE3 JUMP JUMPDEST PUSH1 0x40 MLOAD DUP1 SWAP2 SUB SWAP1 REVERT JUMPDEST PUSH1 0x18 PUSH1 0x0 CALLER PUSH20 0xFFFFFFFFFFFFFFFFFFFFFFFFFFFFFFFFFFFFFFFF AND PUSH20 0xFFFFFFFFFFFFFFFFFFFFFFFFFFFFFFFFFFFFFFFF AND DUP2 MSTORE PUSH1 0x20 ADD SWAP1 DUP2 MSTORE PUSH1 0x20 ADD PUSH1 0x0 KECCAK256 PUSH1 0x0 ADD PUSH1 0x1 SWAP1 SLOAD SWAP1 PUSH2 0x100 EXP SWAP1 DIV PUSH1 0xFF AND ISZERO PUSH2 0x2D13 JUMPI PUSH1 0x40 MLOAD PUSH32 0x8C379A000000000000000000000000000000000000000000000000000000000 DUP2 MSTORE PUSH1 0x4 ADD PUSH2 0x2D0A SWAP1 PUSH2 0x4FE4 JUMP JUMPDEST PUSH1 0x40 MLOAD DUP1 SWAP2 SUB SWAP1 REVERT JUMPDEST PUSH1 0x1E PUSH1 0xFF AND PUSH1 0x17 PUSH1 0x0 DUP4 PUSH1 0xFF AND PUSH1 0xFF AND DUP2 MSTORE PUSH1 0x20 ADD SWAP1 DUP2 MSTORE PUSH1 0x20 ADD PUSH1 0x0 KECCAK256 PUSH1 0x1 ADD PUSH1 0x14 SWAP1 SLOAD SWAP1 PUSH2 0x100 EXP SWAP1 DIV PUSH1 0xFF AND PUSH1 0xFF AND LT PUSH2 0x2D9F JUMPI PUSH1 0x1A PUSH1 0x0 CALLER PUSH20 0xFFFFFFFFFFFFFFFFFFFFFFFFFFFFFFFFFFFFFFFF AND PUSH20 0xFFFFFFFFFFFFFFFFFFFFFFFFFFFFFFFFFFFFFFFF AND DUP2 MSTORE PUSH1 0x20 ADD SWAP1 DUP2 MSTORE PUSH1 0x20 ADD PUSH1 0x0 KECCAK256 PUSH1 0x0 PUSH2 0x100 EXP DUP2 SLOAD SWAP1 PUSH1 0xFF MUL NOT AND SWAP1 SSTORE POP PUSH2 0x2FEE JUMP JUMPDEST PUSH1 0x40 MLOAD DUP1 PUSH1 0x40 ADD PUSH1 0x40 MSTORE DUP1 DUP3 PUSH1 0xFF AND DUP2 MSTORE PUSH1 0x20 ADD PUSH1 0x1 ISZERO ISZERO DUP2 MSTORE POP PUSH1 0x18 PUSH1 0x0 CALLER PUSH20 0xFFFFFFFFFFFFFFFFFFFFFFFFFFFFFFFFFFFFFFFF AND PUSH20 0xFFFFFFFFFFFFFFFFFFFFFFFFFFFFFFFFFFFFFFFF AND DUP2 MSTORE PUSH1 0x20 ADD SWAP1 DUP2 MSTORE PUSH1 0x20 ADD PUSH1 0x0 KECCAK256 PUSH1 0x0 DUP3 ADD MLOAD DUP2 PUSH1 0x0 ADD PUSH1 0x0 PUSH2 0x100 EXP DUP2 SLOAD DUP2 PUSH1 0xFF MUL NOT AND SWAP1 DUP4 PUSH1 0xFF AND MUL OR SWAP1 SSTORE POP PUSH1 0x20 DUP3 ADD MLOAD DUP2 PUSH1 0x0 ADD PUSH1 0x1 PUSH2 0x100 EXP DUP2 SLOAD DUP2 PUSH1 0xFF MUL NOT AND SWAP1 DUP4 ISZERO ISZERO MUL OR SWAP1 SSTORE POP SWAP1 POP POP PUSH1 0x19 PUSH1 0x0 DUP3 PUSH1 0xFF AND PUSH1 0xFF AND DUP2 MSTORE PUSH1 0x20 ADD SWAP1 DUP2 MSTORE PUSH1 0x20 ADD PUSH1 0x0 KECCAK256 CALLER SWAP1 DUP1 PUSH1 0x1 DUP2 SLOAD ADD DUP1 DUP3 SSTORE DUP1 SWAP2 POP POP PUSH1 0x1 SWAP1 SUB SWAP1 PUSH1 0x0 MSTORE PUSH1 0x20 PUSH1 0x0 KECCAK256 ADD PUSH1 0x0 SWAP1 SWAP2 SWAP1 SWAP2 SWAP1 SWAP2 PUSH2 0x100 EXP DUP2 SLOAD DUP2 PUSH20 0xFFFFFFFFFFFFFFFFFFFFFFFFFFFFFFFFFFFFFFFF MUL NOT AND SWAP1 DUP4 PUSH20 0xFFFFFFFFFFFFFFFFFFFFFFFFFFFFFFFFFFFFFFFF AND MUL OR SWAP1 SSTORE POP PUSH1 0x17 PUSH1 0x0 DUP3 PUSH1 0xFF AND PUSH1 0xFF AND DUP2 MSTORE PUSH1 0x20 ADD SWAP1 DUP2 MSTORE PUSH1 0x20 ADD PUSH1 0x0 KECCAK256 PUSH1 0x1 ADD PUSH1 0x14 DUP2 DUP2 SWAP1 SLOAD SWAP1 PUSH2 0x100 EXP SWAP1 DIV PUSH1 0xFF AND DUP1 SWAP3 SWAP2 SWAP1 PUSH2 0x2EF0 SWAP1 PUSH2 0x510B JUMP JUMPDEST SWAP2 SWAP1 PUSH2 0x100 EXP DUP2 SLOAD DUP2 PUSH1 0xFF MUL NOT AND SWAP1 DUP4 PUSH1 0xFF AND MUL OR SWAP1 SSTORE POP POP PUSH1 0x0 DUP1 PUSH2 0x2F15 CALLER PUSH2 0x3C45 JUMP JUMPDEST SWAP2 POP SWAP2 POP DUP3 PUSH1 0x1D PUSH1 0x0 DUP5 PUSH1 0xFF AND PUSH1 0xFF AND DUP2 MSTORE PUSH1 0x20 ADD SWAP1 DUP2 MSTORE PUSH1 0x20 ADD PUSH1 0x0 KECCAK256 PUSH1 0x0 DUP4 PUSH1 0xFF AND PUSH1 0xFF AND DUP2 MSTORE PUSH1 0x20 ADD SWAP1 DUP2 MSTORE PUSH1 0x20 ADD PUSH1 0x0 KECCAK256 PUSH1 0x0 PUSH2 0x100 EXP DUP2 SLOAD DUP2 PUSH1 0xFF MUL NOT AND SWAP1 DUP4 PUSH1 0xFF AND MUL OR SWAP1 SSTORE POP PUSH1 0x1A PUSH1 0x0 CALLER PUSH20 0xFFFFFFFFFFFFFFFFFFFFFFFFFFFFFFFFFFFFFFFF AND PUSH20 0xFFFFFFFFFFFFFFFFFFFFFFFFFFFFFFFFFFFFFFFF AND DUP2 MSTORE PUSH1 0x20 ADD SWAP1 DUP2 MSTORE PUSH1 0x20 ADD PUSH1 0x0 KECCAK256 PUSH1 0x0 PUSH2 0x100 EXP DUP2 SLOAD SWAP1 PUSH1 0xFF MUL NOT AND SWAP1 SSTORE PUSH32 0xC5E51B833A5E5ECFBBCB0D5586D2B0AB450B38D9B32D440CB37F37CC30DE6874 DUP4 CALLER PUSH1 0x40 MLOAD PUSH2 0x2FE2 SWAP3 SWAP2 SWAP1 PUSH2 0x556B JUMP JUMPDEST PUSH1 0x40 MLOAD DUP1 SWAP2 SUB SWAP1 LOG1 POP POP POP JUMPDEST JUMP JUMPDEST PUSH1 0x0 DUP3 PUSH1 0x14 DUP2 LT PUSH2 0x3000 JUMPI PUSH1 0x0 DUP1 REVERT JUMPDEST ADD DUP2 PUSH1 0x14 DUP2 LT PUSH2 0x300F JUMPI PUSH1 0x0 DUP1 REVERT JUMPDEST PUSH1 0x20 SWAP2 DUP3 DUP3 DIV ADD SWAP2 SWAP1 MOD SWAP2 POP SWAP2 POP SWAP1 SLOAD SWAP1 PUSH2 0x100 EXP SWAP1 DIV PUSH1 0xFF AND DUP2 JUMP JUMPDEST DUP1 CALLER PUSH20 0xFFFFFFFFFFFFFFFFFFFFFFFFFFFFFFFFFFFFFFFF AND PUSH1 0x17 PUSH1 0x0 DUP4 PUSH1 0xFF AND PUSH1 0xFF AND DUP2 MSTORE PUSH1 0x20 ADD SWAP1 DUP2 MSTORE PUSH1 0x20 ADD PUSH1 0x0 KECCAK256 PUSH1 0x1 ADD PUSH1 0x0 SWAP1 SLOAD SWAP1 PUSH2 0x100 EXP SWAP1 DIV PUSH20 0xFFFFFFFFFFFFFFFFFFFFFFFFFFFFFFFFFFFFFFFF AND PUSH20 0xFFFFFFFFFFFFFFFFFFFFFFFFFFFFFFFFFFFFFFFF AND EQ PUSH2 0x30D7 JUMPI PUSH1 0x40 MLOAD PUSH32 0x8C379A000000000000000000000000000000000000000000000000000000000 DUP2 MSTORE PUSH1 0x4 ADD PUSH2 0x30CE SWAP1 PUSH2 0x539B JUMP JUMPDEST PUSH1 0x40 MLOAD DUP1 SWAP2 SUB SWAP1 REVERT JUMPDEST PUSH1 0x17 PUSH1 0x0 DUP4 PUSH1 0xFF AND PUSH1 0xFF AND DUP2 MSTORE PUSH1 0x20 ADD SWAP1 DUP2 MSTORE PUSH1 0x20 ADD PUSH1 0x0 KECCAK256 PUSH1 0x1 ADD PUSH1 0x15 SWAP1 SLOAD SWAP1 PUSH2 0x100 EXP SWAP1 DIV PUSH1 0xFF AND PUSH2 0x3140 JUMPI PUSH1 0x40 MLOAD PUSH32 0x8C379A000000000000000000000000000000000000000000000000000000000 DUP2 MSTORE PUSH1 0x4 ADD PUSH2 0x3137 SWAP1 PUSH2 0x5407 JUMP JUMPDEST PUSH1 0x40 MLOAD DUP1 SWAP2 SUB SWAP1 REVERT JUMPDEST PUSH1 0x16 PUSH1 0x0 SWAP1 SLOAD SWAP1 PUSH2 0x100 EXP SWAP1 DIV PUSH20 0xFFFFFFFFFFFFFFFFFFFFFFFFFFFFFFFFFFFFFFFF AND PUSH20 0xFFFFFFFFFFFFFFFFFFFFFFFFFFFFFFFFFFFFFFFF AND PUSH4 0xE3198E08 CALLER PUSH1 0x40 MLOAD DUP3 PUSH4 0xFFFFFFFF AND PUSH1 0xE0 SHL DUP2 MSTORE PUSH1 0x4 ADD PUSH2 0x319B SWAP2 SWAP1 PUSH2 0x43BB JUMP JUMPDEST PUSH1 0x20 PUSH1 0x40 MLOAD DUP1 DUP4 SUB DUP2 DUP7 GAS STATICCALL ISZERO DUP1 ISZERO PUSH2 0x31B8 JUMPI RETURNDATASIZE PUSH1 0x0 DUP1 RETURNDATACOPY RETURNDATASIZE PUSH1 0x0 REVERT JUMPDEST POP POP POP POP PUSH1 0x40 MLOAD RETURNDATASIZE PUSH1 0x1F NOT PUSH1 0x1F DUP3 ADD AND DUP3 ADD DUP1 PUSH1 0x40 MSTORE POP DUP2 ADD SWAP1 PUSH2 0x31DC SWAP2 SWAP1 PUSH2 0x4A79 JUMP JUMPDEST PUSH2 0x321B JUMPI PUSH1 0x40 MLOAD PUSH32 0x8C379A000000000000000000000000000000000000000000000000000000000 DUP2 MSTORE PUSH1 0x4 ADD PUSH2 0x3212 SWAP1 PUSH2 0x5050 JUMP JUMPDEST PUSH1 0x40 MLOAD DUP1 SWAP2 SUB SWAP1 REVERT JUMPDEST PUSH1 0x0 JUMPDEST PUSH1 0x19 PUSH1 0x0 DUP5 PUSH1 0xFF AND PUSH1 0xFF AND DUP2 MSTORE PUSH1 0x20 ADD SWAP1 DUP2 MSTORE PUSH1 0x20 ADD PUSH1 0x0 KECCAK256 DUP1 SLOAD SWAP1 POP DUP2 LT ISZERO PUSH2 0x3367 JUMPI PUSH1 0x0 PUSH1 0x19 PUSH1 0x0 DUP6 PUSH1 0xFF AND PUSH1 0xFF AND DUP2 MSTORE PUSH1 0x20 ADD SWAP1 DUP2 MSTORE PUSH1 0x20 ADD PUSH1 0x0 KECCAK256 DUP3 DUP2 SLOAD DUP2 LT PUSH2 0x326F JUMPI PUSH2 0x326E PUSH2 0x52B2 JUMP JUMPDEST JUMPDEST SWAP1 PUSH1 0x0 MSTORE PUSH1 0x20 PUSH1 0x0 KECCAK256 ADD PUSH1 0x0 SWAP1 SLOAD SWAP1 PUSH2 0x100 EXP SWAP1 DIV PUSH20 0xFFFFFFFFFFFFFFFFFFFFFFFFFFFFFFFFFFFFFFFF AND SWAP1 POP PUSH1 0x0 PUSH1 0x18 PUSH1 0x0 DUP4 PUSH20 0xFFFFFFFFFFFFFFFFFFFFFFFFFFFFFFFFFFFFFFFF AND PUSH20 0xFFFFFFFFFFFFFFFFFFFFFFFFFFFFFFFFFFFFFFFF AND DUP2 MSTORE PUSH1 0x20 ADD SWAP1 DUP2 MSTORE PUSH1 0x20 ADD PUSH1 0x0 KECCAK256 PUSH1 0x0 ADD PUSH1 0x1 PUSH2 0x100 EXP DUP2 SLOAD DUP2 PUSH1 0xFF MUL NOT AND SWAP1 DUP4 ISZERO ISZERO MUL OR SWAP1 SSTORE POP PUSH1 0x0 DUP1 PUSH2 0x3303 DUP4 PUSH2 0x3C45 JUMP JUMPDEST SWAP2 POP SWAP2 POP PUSH1 0x0 PUSH1 0x1D PUSH1 0x0 DUP5 PUSH1 0xFF AND PUSH1 0xFF AND DUP2 MSTORE PUSH1 0x20 ADD SWAP1 DUP2 MSTORE PUSH1 0x20 ADD PUSH1 0x0 KECCAK256 PUSH1 0x0 DUP4 PUSH1 0xFF AND PUSH1 0xFF AND DUP2 MSTORE PUSH1 0x20 ADD SWAP1 DUP2 MSTORE PUSH1 0x20 ADD PUSH1 0x0 KECCAK256 PUSH1 0x0 PUSH2 0x100 EXP DUP2 SLOAD DUP2 PUSH1 0xFF MUL NOT AND SWAP1 DUP4 PUSH1 0xFF AND MUL OR SWAP1 SSTORE POP POP POP POP DUP1 DUP1 PUSH2 0x335F SWAP1 PUSH2 0x52E1 JUMP JUMPDEST SWAP2 POP POP PUSH2 0x321E JUMP JUMPDEST POP PUSH1 0x19 PUSH1 0x0 DUP4 PUSH1 0xFF AND PUSH1 0xFF AND DUP2 MSTORE PUSH1 0x20 ADD SWAP1 DUP2 MSTORE PUSH1 0x20 ADD PUSH1 0x0 KECCAK256 PUSH1 0x0 PUSH2 0x338D SWAP2 SWAP1 PUSH2 0x3D97 JUMP JUMPDEST PUSH1 0x17 PUSH1 0x0 DUP4 PUSH1 0xFF AND PUSH1 0xFF AND DUP2 MSTORE PUSH1 0x20 ADD SWAP1 DUP2 MSTORE PUSH1 0x20 ADD PUSH1 0x0 KECCAK256 PUSH1 0x0 DUP1 DUP3 ADD PUSH1 0x0 PUSH2 0x33B7 SWAP2 SWAP1 PUSH2 0x3DB8 JUMP JUMPDEST PUSH1 0x1 DUP3 ADD PUSH1 0x0 PUSH2 0x100 EXP DUP2 SLOAD SWAP1 PUSH20 0xFFFFFFFFFFFFFFFFFFFFFFFFFFFFFFFFFFFFFFFF MUL NOT AND SWAP1 SSTORE PUSH1 0x1 DUP3 ADD PUSH1 0x14 PUSH2 0x100 EXP DUP2 SLOAD SWAP1 PUSH1 0xFF MUL NOT AND SWAP1 SSTORE PUSH1 0x1 DUP3 ADD PUSH1 0x15 PUSH2 0x100 EXP DUP2 SLOAD SWAP1 PUSH1 0xFF MUL NOT AND SWAP1 SSTORE POP POP PUSH32 0xF010A46A390DEAAAB5CC4BD6BD1242CCC401C860A7B758C8A71C6EA769287D34 DUP3 CALLER PUSH1 0x40 MLOAD PUSH2 0x3439 SWAP3 SWAP2 SWAP1 PUSH2 0x556B JUMP JUMPDEST PUSH1 0x40 MLOAD DUP1 SWAP2 SUB SWAP1 LOG1 POP POP JUMP JUMPDEST DUP2 CALLER PUSH20 0xFFFFFFFFFFFFFFFFFFFFFFFFFFFFFFFFFFFFFFFF AND PUSH1 0x17 PUSH1 0x0 DUP4 PUSH1 0xFF AND PUSH1 0xFF AND DUP2 MSTORE PUSH1 0x20 ADD SWAP1 DUP2 MSTORE PUSH1 0x20 ADD PUSH1 0x0 KECCAK256 PUSH1 0x1 ADD PUSH1 0x0 SWAP1 SLOAD SWAP1 PUSH2 0x100 EXP SWAP1 DIV PUSH20 0xFFFFFFFFFFFFFFFFFFFFFFFFFFFFFFFFFFFFFFFF AND PUSH20 0xFFFFFFFFFFFFFFFFFFFFFFFFFFFFFFFFFFFFFFFF AND EQ PUSH2 0x34F0 JUMPI PUSH1 0x40 MLOAD PUSH32 0x8C379A000000000000000000000000000000000000000000000000000000000 DUP2 MSTORE PUSH1 0x4 ADD PUSH2 0x34E7 SWAP1 PUSH2 0x539B JUMP JUMPDEST PUSH1 0x40 MLOAD DUP1 SWAP2 SUB SWAP1 REVERT JUMPDEST DUP3 PUSH1 0xFF AND PUSH1 0x18 PUSH1 0x0 DUP5 PUSH20 0xFFFFFFFFFFFFFFFFFFFFFFFFFFFFFFFFFFFFFFFF AND PUSH20 0xFFFFFFFFFFFFFFFFFFFFFFFFFFFFFFFFFFFFFFFF AND DUP2 MSTORE PUSH1 0x20 ADD SWAP1 DUP2 MSTORE PUSH1 0x20 ADD PUSH1 0x0 KECCAK256 PUSH1 0x0 ADD PUSH1 0x0 SWAP1 SLOAD SWAP1 PUSH2 0x100 EXP SWAP1 DIV PUSH1 0xFF AND PUSH1 0xFF AND EQ PUSH2 0x3587 JUMPI PUSH1 0x40 MLOAD PUSH32 0x8C379A000000000000000000000000000000000000000000000000000000000 DUP2 MSTORE PUSH1 0x4 ADD PUSH2 0x357E SWAP1 PUSH2 0x5C4F JUMP JUMPDEST PUSH1 0x40 MLOAD DUP1 SWAP2 SUB SWAP1 REVERT JUMPDEST PUSH1 0x16 PUSH1 0x0 SWAP1 SLOAD SWAP1 PUSH2 0x100 EXP SWAP1 DIV PUSH20 0xFFFFFFFFFFFFFFFFFFFFFFFFFFFFFFFFFFFFFFFF AND PUSH20 0xFFFFFFFFFFFFFFFFFFFFFFFFFFFFFFFFFFFFFFFF AND PUSH4 0xE3198E08 CALLER PUSH1 0x40 MLOAD DUP3 PUSH4 0xFFFFFFFF AND PUSH1 0xE0 SHL DUP2 MSTORE PUSH1 0x4 ADD PUSH2 0x35E2 SWAP2 SWAP1 PUSH2 0x43BB JUMP JUMPDEST PUSH1 0x20 PUSH1 0x40 MLOAD DUP1 DUP4 SUB DUP2 DUP7 GAS STATICCALL ISZERO DUP1 ISZERO PUSH2 0x35FF JUMPI RETURNDATASIZE PUSH1 0x0 DUP1 RETURNDATACOPY RETURNDATASIZE PUSH1 0x0 REVERT JUMPDEST POP POP POP POP PUSH1 0x40 MLOAD RETURNDATASIZE PUSH1 0x1F NOT PUSH1 0x1F DUP3 ADD AND DUP3 ADD DUP1 PUSH1 0x40 MSTORE POP DUP2 ADD SWAP1 PUSH2 0x3623 SWAP2 SWAP1 PUSH2 0x4A79 JUMP JUMPDEST PUSH2 0x3662 JUMPI PUSH1 0x40 MLOAD PUSH32 0x8C379A000000000000000000000000000000000000000000000000000000000 DUP2 MSTORE PUSH1 0x4 ADD PUSH2 0x3659 SWAP1 PUSH2 0x5050 JUMP JUMPDEST PUSH1 0x40 MLOAD DUP1 SWAP2 SUB SWAP1 REVERT JUMPDEST PUSH1 0x0 PUSH1 0x18 PUSH1 0x0 DUP5 PUSH20 0xFFFFFFFFFFFFFFFFFFFFFFFFFFFFFFFFFFFFFFFF AND PUSH20 0xFFFFFFFFFFFFFFFFFFFFFFFFFFFFFFFFFFFFFFFF AND DUP2 MSTORE PUSH1 0x20 ADD SWAP1 DUP2 MSTORE PUSH1 0x20 ADD PUSH1 0x0 KECCAK256 PUSH1 0x0 ADD PUSH1 0x1 PUSH2 0x100 EXP DUP2 SLOAD DUP2 PUSH1 0xFF MUL NOT AND SWAP1 DUP4 ISZERO ISZERO MUL OR SWAP1 SSTORE POP PUSH1 0x17 PUSH1 0x0 DUP5 PUSH1 0xFF AND PUSH1 0xFF AND DUP2 MSTORE PUSH1 0x20 ADD SWAP1 DUP2 MSTORE PUSH1 0x20 ADD PUSH1 0x0 KECCAK256 PUSH1 0x1 ADD PUSH1 0x14 DUP2 DUP2 SWAP1 SLOAD SWAP1 PUSH2 0x100 EXP SWAP1 DIV PUSH1 0xFF AND DUP1 SWAP3 SWAP2 SWAP1 PUSH2 0x36F6 SWAP1 PUSH2 0x5B0B JUMP JUMPDEST SWAP2 SWAP1 PUSH2 0x100 EXP DUP2 SLOAD DUP2 PUSH1 0xFF MUL NOT AND SWAP1 DUP4 PUSH1 0xFF AND MUL OR SWAP1 SSTORE POP POP PUSH1 0x0 JUMPDEST PUSH1 0x19 PUSH1 0x0 DUP6 PUSH1 0xFF AND PUSH1 0xFF AND DUP2 MSTORE PUSH1 0x20 ADD SWAP1 DUP2 MSTORE PUSH1 0x20 ADD PUSH1 0x0 KECCAK256 DUP1 SLOAD SWAP1 POP DUP2 LT ISZERO PUSH2 0x3925 JUMPI DUP3 PUSH20 0xFFFFFFFFFFFFFFFFFFFFFFFFFFFFFFFFFFFFFFFF AND PUSH1 0x19 PUSH1 0x0 DUP7 PUSH1 0xFF AND PUSH1 0xFF AND DUP2 MSTORE PUSH1 0x20 ADD SWAP1 DUP2 MSTORE PUSH1 0x20 ADD PUSH1 0x0 KECCAK256 DUP3 DUP2 SLOAD DUP2 LT PUSH2 0x3778 JUMPI PUSH2 0x3777 PUSH2 0x52B2 JUMP JUMPDEST JUMPDEST SWAP1 PUSH1 0x0 MSTORE PUSH1 0x20 PUSH1 0x0 KECCAK256 ADD PUSH1 0x0 SWAP1 SLOAD SWAP1 PUSH2 0x100 EXP SWAP1 DIV PUSH20 0xFFFFFFFFFFFFFFFFFFFFFFFFFFFFFFFFFFFFFFFF AND PUSH20 0xFFFFFFFFFFFFFFFFFFFFFFFFFFFFFFFFFFFFFFFF AND SUB PUSH2 0x3912 JUMPI PUSH1 0x19 PUSH1 0x0 DUP6 PUSH1 0xFF AND PUSH1 0xFF AND DUP2 MSTORE PUSH1 0x20 ADD SWAP1 DUP2 MSTORE PUSH1 0x20 ADD PUSH1 0x0 KECCAK256 PUSH1 0x1 PUSH1 0x19 PUSH1 0x0 DUP8 PUSH1 0xFF AND PUSH1 0xFF AND DUP2 MSTORE PUSH1 0x20 ADD SWAP1 DUP2 MSTORE PUSH1 0x20 ADD PUSH1 0x0 KECCAK256 DUP1 SLOAD SWAP1 POP PUSH2 0x3800 SWAP2 SWAP1 PUSH2 0x5B34 JUMP JUMPDEST DUP2 SLOAD DUP2 LT PUSH2 0x3811 JUMPI PUSH2 0x3810 PUSH2 0x52B2 JUMP JUMPDEST JUMPDEST SWAP1 PUSH1 0x0 MSTORE PUSH1 0x20 PUSH1 0x0 KECCAK256 ADD PUSH1 0x0 SWAP1 SLOAD SWAP1 PUSH2 0x100 EXP SWAP1 DIV PUSH20 0xFFFFFFFFFFFFFFFFFFFFFFFFFFFFFFFFFFFFFFFF AND PUSH1 0x19 PUSH1 0x0 DUP7 PUSH1 0xFF AND PUSH1 0xFF AND DUP2 MSTORE PUSH1 0x20 ADD SWAP1 DUP2 MSTORE PUSH1 0x20 ADD PUSH1 0x0 KECCAK256 DUP3 DUP2 SLOAD DUP2 LT PUSH2 0x3867 JUMPI PUSH2 0x3866 PUSH2 0x52B2 JUMP JUMPDEST JUMPDEST SWAP1 PUSH1 0x0 MSTORE PUSH1 0x20 PUSH1 0x0 KECCAK256 ADD PUSH1 0x0 PUSH2 0x100 EXP DUP2 SLOAD DUP2 PUSH20 0xFFFFFFFFFFFFFFFFFFFFFFFFFFFFFFFFFFFFFFFF MUL NOT AND SWAP1 DUP4 PUSH20 0xFFFFFFFFFFFFFFFFFFFFFFFFFFFFFFFFFFFFFFFF AND MUL OR SWAP1 SSTORE POP PUSH1 0x19 PUSH1 0x0 DUP6 PUSH1 0xFF AND PUSH1 0xFF AND DUP2 MSTORE PUSH1 0x20 ADD SWAP1 DUP2 MSTORE PUSH1 0x20 ADD PUSH1 0x0 KECCAK256 DUP1 SLOAD DUP1 PUSH2 0x38D8 JUMPI PUSH2 0x38D7 PUSH2 0x5B68 JUMP JUMPDEST JUMPDEST PUSH1 0x1 SWAP1 SUB DUP2 DUP2 SWAP1 PUSH1 0x0 MSTORE PUSH1 0x20 PUSH1 0x0 KECCAK256 ADD PUSH1 0x0 PUSH2 0x100 EXP DUP2 SLOAD SWAP1 PUSH20 0xFFFFFFFFFFFFFFFFFFFFFFFFFFFFFFFFFFFFFFFF MUL NOT AND SWAP1 SSTORE SWAP1 SSTORE PUSH2 0x3925 JUMP JUMPDEST DUP1 DUP1 PUSH2 0x391D SWAP1 PUSH2 0x52E1 JUMP JUMPDEST SWAP2 POP POP PUSH2 0x3712 JUMP JUMPDEST POP PUSH1 0x0 DUP1 PUSH2 0x3932 DUP5 PUSH2 0x3C45 JUMP JUMPDEST SWAP2 POP SWAP2 POP PUSH1 0x0 PUSH1 0x1D PUSH1 0x0 DUP5 PUSH1 0xFF AND PUSH1 0xFF AND DUP2 MSTORE PUSH1 0x20 ADD SWAP1 DUP2 MSTORE PUSH1 0x20 ADD PUSH1 0x0 KECCAK256 PUSH1 0x0 DUP4 PUSH1 0xFF AND PUSH1 0xFF AND DUP2 MSTORE PUSH1 0x20 ADD SWAP1 DUP2 MSTORE PUSH1 0x20 ADD PUSH1 0x0 KECCAK256 PUSH1 0x0 PUSH2 0x100 EXP DUP2 SLOAD DUP2 PUSH1 0xFF MUL NOT AND SWAP1 DUP4 PUSH1 0xFF AND MUL OR SWAP1 SSTORE POP PUSH32 0x45C35F53284761DC1375DA434DFC7EC6A908FD346CB7EF4B10B8A75D6CB83752 DUP6 DUP6 PUSH1 0x40 MLOAD PUSH2 0x39B1 SWAP3 SWAP2 SWAP1 PUSH2 0x556B JUMP JUMPDEST PUSH1 0x40 MLOAD DUP1 SWAP2 SUB SWAP1 LOG1 POP POP POP POP POP JUMP JUMPDEST PUSH1 0x17 PUSH1 0x20 MSTORE DUP1 PUSH1 0x0 MSTORE PUSH1 0x40 PUSH1 0x0 KECCAK256 PUSH1 0x0 SWAP2 POP SWAP1 POP DUP1 PUSH1 0x0 ADD DUP1 SLOAD PUSH2 0x39E3 SWAP1 PUSH2 0x4B7B JUMP JUMPDEST DUP1 PUSH1 0x1F ADD PUSH1 0x20 DUP1 SWAP2 DIV MUL PUSH1 0x20 ADD PUSH1 0x40 MLOAD SWAP1 DUP2 ADD PUSH1 0x40 MSTORE DUP1 SWAP3 SWAP2 SWAP1 DUP2 DUP2 MSTORE PUSH1 0x20 ADD DUP3 DUP1 SLOAD PUSH2 0x3A0F SWAP1 PUSH2 0x4B7B JUMP JUMPDEST DUP1 ISZERO PUSH2 0x3A5C JUMPI DUP1 PUSH1 0x1F LT PUSH2 0x3A31 JUMPI PUSH2 0x100 DUP1 DUP4 SLOAD DIV MUL DUP4 MSTORE SWAP2 PUSH1 0x20 ADD SWAP2 PUSH2 0x3A5C JUMP JUMPDEST DUP3 ADD SWAP2 SWAP1 PUSH1 0x0 MSTORE PUSH1 0x20 PUSH1 0x0 KECCAK256 SWAP1 JUMPDEST DUP2 SLOAD DUP2 MSTORE SWAP1 PUSH1 0x1 ADD SWAP1 PUSH1 0x20 ADD DUP1 DUP4 GT PUSH2 0x3A3F JUMPI DUP3 SWAP1 SUB PUSH1 0x1F AND DUP3 ADD SWAP2 JUMPDEST POP POP POP POP POP SWAP1 DUP1 PUSH1 0x1 ADD PUSH1 0x0 SWAP1 SLOAD SWAP1 PUSH2 0x100 EXP SWAP1 DIV PUSH20 0xFFFFFFFFFFFFFFFFFFFFFFFFFFFFFFFFFFFFFFFF AND SWAP1 DUP1 PUSH1 0x1 ADD PUSH1 0x14 SWAP1 SLOAD SWAP1 PUSH2 0x100 EXP SWAP1 DIV PUSH1 0xFF AND SWAP1 DUP1 PUSH1 0x1 ADD PUSH1 0x15 SWAP1 SLOAD SWAP1 PUSH2 0x100 EXP SWAP1 DIV PUSH1 0xFF AND SWAP1 POP DUP5 JUMP JUMPDEST PUSH1 0x1E DUP2 JUMP JUMPDEST PUSH1 0x1F PUSH1 0x20 MSTORE DUP1 PUSH1 0x0 MSTORE PUSH1 0x40 PUSH1 0x0 KECCAK256 PUSH1 0x0 SWAP2 POP SWAP1 POP SLOAD DUP2 JUMP JUMPDEST PUSH1 0x60 PUSH1 0x1C PUSH1 0x0 DUP4 PUSH20 0xFFFFFFFFFFFFFFFFFFFFFFFFFFFFFFFFFFFFFFFF AND PUSH20 0xFFFFFFFFFFFFFFFFFFFFFFFFFFFFFFFFFFFFFFFF AND DUP2 MSTORE PUSH1 0x20 ADD SWAP1 DUP2 MSTORE PUSH1 0x20 ADD PUSH1 0x0 KECCAK256 DUP1 SLOAD PUSH2 0x3B1B SWAP1 PUSH2 0x4B7B JUMP JUMPDEST DUP1 PUSH1 0x1F ADD PUSH1 0x20 DUP1 SWAP2 DIV MUL PUSH1 0x20 ADD PUSH1 0x40 MLOAD SWAP1 DUP2 ADD PUSH1 0x40 MSTORE DUP1 SWAP3 SWAP2 SWAP1 DUP2 DUP2 MSTORE PUSH1 0x20 ADD DUP3 DUP1 SLOAD PUSH2 0x3B47 SWAP1 PUSH2 0x4B7B JUMP JUMPDEST DUP1 ISZERO PUSH2 0x3B94 JUMPI DUP1 PUSH1 0x1F LT PUSH2 0x3B69 JUMPI PUSH2 0x100 DUP1 DUP4 SLOAD DIV MUL DUP4 MSTORE SWAP2 PUSH1 0x20 ADD SWAP2 PUSH2 0x3B94 JUMP JUMPDEST DUP3 ADD SWAP2 SWAP1 PUSH1 0x0 MSTORE PUSH1 0x20 PUSH1 0x0 KECCAK256 SWAP1 JUMPDEST DUP2 SLOAD DUP2 MSTORE SWAP1 PUSH1 0x1 ADD SWAP1 PUSH1 0x20 ADD DUP1 DUP4 GT PUSH2 0x3B77 JUMPI DUP3 SWAP1 SUB PUSH1 0x1F AND DUP3 ADD SWAP2 JUMPDEST POP POP POP POP POP SWAP1 POP SWAP2 SWAP1 POP JUMP JUMPDEST PUSH1 0x0 PUSH1 0x14 PUSH1 0x0 SWAP1 SLOAD SWAP1 PUSH2 0x100 EXP SWAP1 DIV PUSH20 0xFFFFFFFFFFFFFFFFFFFFFFFFFFFFFFFFFFFFFFFF AND PUSH20 0xFFFFFFFFFFFFFFFFFFFFFFFFFFFFFFFFFFFFFFFF AND PUSH4 0x2CFDF9B1 DUP4 PUSH1 0x40 MLOAD DUP3 PUSH4 0xFFFFFFFF AND PUSH1 0xE0 SHL DUP2 MSTORE PUSH1 0x4 ADD PUSH2 0x3BFD SWAP2 SWAP1 PUSH2 0x43BB JUMP JUMPDEST PUSH1 0x20 PUSH1 0x40 MLOAD DUP1 DUP4 SUB DUP2 DUP7 GAS STATICCALL ISZERO DUP1 ISZERO PUSH2 0x3C1A JUMPI RETURNDATASIZE PUSH1 0x0 DUP1 RETURNDATACOPY RETURNDATASIZE PUSH1 0x0 REVERT JUMPDEST POP POP POP POP PUSH1 0x40 MLOAD RETURNDATASIZE PUSH1 0x1F NOT PUSH1 0x1F DUP3 ADD AND DUP3 ADD DUP1 PUSH1 0x40 MSTORE POP DUP2 ADD SWAP1 PUSH2 0x3C3E SWAP2 SWAP1 PUSH2 0x4A79 JUMP JUMPDEST SWAP1 POP SWAP2 SWAP1 POP JUMP JUMPDEST PUSH1 0x0 DUP1 PUSH1 0x0 PUSH1 0x14 PUSH1 0x0 SWAP1 SLOAD SWAP1 PUSH2 0x100 EXP SWAP1 DIV PUSH20 0xFFFFFFFFFFFFFFFFFFFFFFFFFFFFFFFFFFFFFFFF AND PUSH20 0xFFFFFFFFFFFFFFFFFFFFFFFFFFFFFFFFFFFFFFFF AND PUSH4 0x2400A3B0 DUP6 PUSH1 0x40 MLOAD DUP3 PUSH4 0xFFFFFFFF AND PUSH1 0xE0 SHL DUP2 MSTORE PUSH1 0x4 ADD PUSH2 0x3CA5 SWAP2 SWAP1 PUSH2 0x43BB JUMP JUMPDEST PUSH1 0x40 DUP1 MLOAD DUP1 DUP4 SUB DUP2 DUP7 GAS STATICCALL ISZERO DUP1 ISZERO PUSH2 0x3CC1 JUMPI RETURNDATASIZE PUSH1 0x0 DUP1 RETURNDATACOPY RETURNDATASIZE PUSH1 0x0 REVERT JUMPDEST POP POP POP POP PUSH1 0x40 MLOAD RETURNDATASIZE PUSH1 0x1F NOT PUSH1 0x1F DUP3 ADD AND DUP3 ADD DUP1 PUSH1 0x40 MSTORE POP DUP2 ADD SWAP1 PUSH2 0x3CE5 SWAP2 SWAP1 PUSH2 0x5D35 JUMP JUMPDEST SWAP1 POP DUP1 PUSH1 0x0 PUSH1 0x2 DUP2 LT PUSH2 0x3CFB JUMPI PUSH2 0x3CFA PUSH2 0x52B2 JUMP JUMPDEST JUMPDEST PUSH1 0x20 MUL ADD MLOAD DUP2 PUSH1 0x1 PUSH1 0x2 DUP2 LT PUSH2 0x3D14 JUMPI PUSH2 0x3D13 PUSH2 0x52B2 JUMP JUMPDEST JUMPDEST PUSH1 0x20 MUL ADD MLOAD SWAP3 POP SWAP3 POP POP SWAP2 POP SWAP2 JUMP JUMPDEST PUSH1 0x40 MLOAD DUP1 PUSH1 0x80 ADD PUSH1 0x40 MSTORE DUP1 PUSH1 0x0 PUSH1 0xFF AND DUP2 MSTORE PUSH1 0x20 ADD PUSH1 0x0 PUSH1 0xFF AND DUP2 MSTORE PUSH1 0x20 ADD PUSH1 0x0 PUSH1 0xFF AND DUP2 MSTORE PUSH1 0x20 ADD PUSH1 0x0 DUP2 MSTORE POP SWAP1 JUMP JUMPDEST PUSH1 0x40 MLOAD DUP1 PUSH1 0x80 ADD PUSH1 0x40 MSTORE DUP1 PUSH1 0x60 DUP2 MSTORE PUSH1 0x20 ADD PUSH1 0x0 PUSH20 0xFFFFFFFFFFFFFFFFFFFFFFFFFFFFFFFFFFFFFFFF AND DUP2 MSTORE PUSH1 0x20 ADD PUSH1 0x0 PUSH1 0xFF AND DUP2 MSTORE PUSH1 0x20 ADD PUSH1 0x0 ISZERO ISZERO DUP2 MSTORE POP SWAP1 JUMP JUMPDEST POP DUP1 SLOAD PUSH1 0x0 DUP3 SSTORE SWAP1 PUSH1 0x0 MSTORE PUSH1 0x20 PUSH1 0x0 KECCAK256 SWAP1 DUP2 ADD SWAP1 PUSH2 0x3DB5 SWAP2 SWAP1 PUSH2 0x3DF8 JUMP JUMPDEST POP JUMP JUMPDEST POP DUP1 SLOAD PUSH2 0x3DC4 SWAP1 PUSH2 0x4B7B JUMP JUMPDEST PUSH1 0x0 DUP3 SSTORE DUP1 PUSH1 0x1F LT PUSH2 0x3DD6 JUMPI POP PUSH2 0x3DF5 JUMP JUMPDEST PUSH1 0x1F ADD PUSH1 0x20 SWAP1 DIV SWAP1 PUSH1 0x0 MSTORE PUSH1 0x20 PUSH1 0x0 KECCAK256 SWAP1 DUP2 ADD SWAP1 PUSH2 0x3DF4 SWAP2 SWAP1 PUSH2 0x3DF8 JUMP JUMPDEST JUMPDEST POP JUMP JUMPDEST JUMPDEST DUP1 DUP3 GT ISZERO PUSH2 0x3E11 JUMPI PUSH1 0x0 DUP2 PUSH1 0x0 SWAP1 SSTORE POP PUSH1 0x1 ADD PUSH2 0x3DF9 JUMP JUMPDEST POP SWAP1 JUMP JUMPDEST PUSH1 0x0 PUSH1 0x40 MLOAD SWAP1 POP SWAP1 JUMP JUMPDEST PUSH1 0x0 DUP1 REVERT JUMPDEST PUSH1 0x0 DUP1 REVERT JUMPDEST PUSH1 0x0 PUSH1 0xFF DUP3 AND SWAP1 POP SWAP2 SWAP1 POP JUMP JUMPDEST PUSH2 0x3E3F DUP2 PUSH2 0x3E29 JUMP JUMPDEST DUP2 EQ PUSH2 0x3E4A JUMPI PUSH1 0x0 DUP1 REVERT JUMPDEST POP JUMP JUMPDEST PUSH1 0x0 DUP2 CALLDATALOAD SWAP1 POP PUSH2 0x3E5C DUP2 PUSH2 0x3E36 JUMP JUMPDEST SWAP3 SWAP2 POP POP JUMP JUMPDEST PUSH1 0x0 PUSH1 0x20 DUP3 DUP5 SUB SLT ISZERO PUSH2 0x3E78 JUMPI PUSH2 0x3E77 PUSH2 0x3E1F JUMP JUMPDEST JUMPDEST PUSH1 0x0 PUSH2 0x3E86 DUP5 DUP3 DUP6 ADD PUSH2 0x3E4D JUMP JUMPDEST SWAP2 POP POP SWAP3 SWAP2 POP POP JUMP JUMPDEST PUSH1 0x0 DUP2 MLOAD SWAP1 POP SWAP2 SWAP1 POP JUMP JUMPDEST PUSH1 0x0 DUP3 DUP3 MSTORE PUSH1 0x20 DUP3 ADD SWAP1 POP SWAP3 SWAP2 POP POP JUMP JUMPDEST PUSH1 0x0 DUP2 SWAP1 POP PUSH1 0x20 DUP3 ADD SWAP1 POP SWAP2 SWAP1 POP JUMP JUMPDEST PUSH1 0x0 PUSH20 0xFFFFFFFFFFFFFFFFFFFFFFFFFFFFFFFFFFFFFFFF DUP3 AND SWAP1 POP SWAP2 SWAP1 POP JUMP JUMPDEST PUSH1 0x0 PUSH2 0x3EE6 DUP3 PUSH2 0x3EBB JUMP JUMPDEST SWAP1 POP SWAP2 SWAP1 POP JUMP JUMPDEST PUSH2 0x3EF6 DUP2 PUSH2 0x3EDB JUMP JUMPDEST DUP3 MSTORE POP POP JUMP JUMPDEST PUSH1 0x0 PUSH2 0x3F08 DUP4 DUP4 PUSH2 0x3EED JUMP JUMPDEST PUSH1 0x20 DUP4 ADD SWAP1 POP SWAP3 SWAP2 POP POP JUMP JUMPDEST PUSH1 0x0 PUSH1 0x20 DUP3 ADD SWAP1 POP SWAP2 SWAP1 POP JUMP JUMPDEST PUSH1 0x0 PUSH2 0x3F2C DUP3 PUSH2 0x3E8F JUMP JUMPDEST PUSH2 0x3F36 DUP2 DUP6 PUSH2 0x3E9A JUMP JUMPDEST SWAP4 POP PUSH2 0x3F41 DUP4 PUSH2 0x3EAB JUMP JUMPDEST DUP1 PUSH1 0x0 JUMPDEST DUP4 DUP2 LT ISZERO PUSH2 0x3F72 JUMPI DUP2 MLOAD PUSH2 0x3F59 DUP9 DUP3 PUSH2 0x3EFC JUMP JUMPDEST SWAP8 POP PUSH2 0x3F64 DUP4 PUSH2 0x3F14 JUMP JUMPDEST SWAP3 POP POP PUSH1 0x1 DUP2 ADD SWAP1 POP PUSH2 0x3F45 JUMP JUMPDEST POP DUP6 SWAP4 POP POP POP POP SWAP3 SWAP2 POP POP JUMP JUMPDEST PUSH1 0x0 PUSH1 0x20 DUP3 ADD SWAP1 POP DUP2 DUP2 SUB PUSH1 0x0 DUP4 ADD MSTORE PUSH2 0x3F99 DUP2 DUP5 PUSH2 0x3F21 JUMP JUMPDEST SWAP1 POP SWAP3 SWAP2 POP POP JUMP JUMPDEST PUSH1 0x0 DUP1 REVERT JUMPDEST PUSH1 0x0 DUP1 REVERT JUMPDEST PUSH1 0x0 DUP1 REVERT JUMPDEST PUSH1 0x0 DUP1 DUP4 PUSH1 0x1F DUP5 ADD SLT PUSH2 0x3FC6 JUMPI PUSH2 0x3FC5 PUSH2 0x3FA1 JUMP JUMPDEST JUMPDEST DUP3 CALLDATALOAD SWAP1 POP PUSH8 0xFFFFFFFFFFFFFFFF DUP2 GT ISZERO PUSH2 0x3FE3 JUMPI PUSH2 0x3FE2 PUSH2 0x3FA6 JUMP JUMPDEST JUMPDEST PUSH1 0x20 DUP4 ADD SWAP2 POP DUP4 PUSH1 0x1 DUP3 MUL DUP4 ADD GT ISZERO PUSH2 0x3FFF JUMPI PUSH2 0x3FFE PUSH2 0x3FAB JUMP JUMPDEST JUMPDEST SWAP3 POP SWAP3 SWAP1 POP JUMP JUMPDEST PUSH1 0x0 DUP1 PUSH1 0x0 DUP1 PUSH1 0x60 DUP6 DUP8 SUB SLT ISZERO PUSH2 0x4020 JUMPI PUSH2 0x401F PUSH2 0x3E1F JUMP JUMPDEST JUMPDEST PUSH1 0x0 PUSH2 0x402E DUP8 DUP3 DUP9 ADD PUSH2 0x3E4D JUMP JUMPDEST SWAP5 POP POP PUSH1 0x20 PUSH2 0x403F DUP8 DUP3 DUP9 ADD PUSH2 0x3E4D JUMP JUMPDEST SWAP4 POP POP PUSH1 0x40 DUP6 ADD CALLDATALOAD PUSH8 0xFFFFFFFFFFFFFFFF DUP2 GT ISZERO PUSH2 0x4060 JUMPI PUSH2 0x405F PUSH2 0x3E24 JUMP JUMPDEST JUMPDEST PUSH2 0x406C DUP8 DUP3 DUP9 ADD PUSH2 0x3FB0 JUMP JUMPDEST SWAP3 POP SWAP3 POP POP SWAP3 SWAP6 SWAP2 SWAP5 POP SWAP3 POP JUMP JUMPDEST PUSH2 0x4083 DUP2 PUSH2 0x3EDB JUMP JUMPDEST DUP2 EQ PUSH2 0x408E JUMPI PUSH1 0x0 DUP1 REVERT JUMPDEST POP JUMP JUMPDEST PUSH1 0x0 DUP2 CALLDATALOAD SWAP1 POP PUSH2 0x40A0 DUP2 PUSH2 0x407A JUMP JUMPDEST SWAP3 SWAP2 POP POP JUMP JUMPDEST PUSH1 0x0 PUSH1 0x20 DUP3 DUP5 SUB SLT ISZERO PUSH2 0x40BC JUMPI PUSH2 0x40BB PUSH2 0x3E1F JUMP JUMPDEST JUMPDEST PUSH1 0x0 PUSH2 0x40CA DUP5 DUP3 DUP6 ADD PUSH2 0x4091 JUMP JUMPDEST SWAP2 POP POP SWAP3 SWAP2 POP POP JUMP JUMPDEST PUSH2 0x40DC DUP2 PUSH2 0x3E29 JUMP JUMPDEST DUP3 MSTORE POP POP JUMP JUMPDEST PUSH1 0x0 DUP2 ISZERO ISZERO SWAP1 POP SWAP2 SWAP1 POP JUMP JUMPDEST PUSH2 0x40F7 DUP2 PUSH2 0x40E2 JUMP JUMPDEST DUP3 MSTORE POP POP JUMP JUMPDEST PUSH1 0x0 PUSH1 0x40 DUP3 ADD SWAP1 POP PUSH2 0x4112 PUSH1 0x0 DUP4 ADD DUP6 PUSH2 0x40D3 JUMP JUMPDEST PUSH2 0x411F PUSH1 0x20 DUP4 ADD DUP5 PUSH2 0x40EE JUMP JUMPDEST SWAP4 SWAP3 POP POP POP JUMP JUMPDEST PUSH1 0x0 DUP1 PUSH1 0x40 DUP4 DUP6 SUB SLT ISZERO PUSH2 0x413D JUMPI PUSH2 0x413C PUSH2 0x3E1F JUMP JUMPDEST JUMPDEST PUSH1 0x0 PUSH2 0x414B DUP6 DUP3 DUP7 ADD PUSH2 0x3E4D JUMP JUMPDEST SWAP3 POP POP PUSH1 0x20 PUSH2 0x415C DUP6 DUP3 DUP7 ADD PUSH2 0x3E4D JUMP JUMPDEST SWAP2 POP POP SWAP3 POP SWAP3 SWAP1 POP JUMP JUMPDEST PUSH1 0x0 DUP2 MLOAD SWAP1 POP SWAP2 SWAP1 POP JUMP JUMPDEST PUSH1 0x0 DUP3 DUP3 MSTORE PUSH1 0x20 DUP3 ADD SWAP1 POP SWAP3 SWAP2 POP POP JUMP JUMPDEST PUSH1 0x0 JUMPDEST DUP4 DUP2 LT ISZERO PUSH2 0x41A0 JUMPI DUP1 DUP3 ADD MLOAD DUP2 DUP5 ADD MSTORE PUSH1 0x20 DUP2 ADD SWAP1 POP PUSH2 0x4185 JUMP JUMPDEST PUSH1 0x0 DUP5 DUP5 ADD MSTORE POP POP POP POP JUMP JUMPDEST PUSH1 0x0 PUSH1 0x1F NOT PUSH1 0x1F DUP4 ADD AND SWAP1 POP SWAP2 SWAP1 POP JUMP JUMPDEST PUSH1 0x0 PUSH2 0x41C8 DUP3 PUSH2 0x4166 JUMP JUMPDEST PUSH2 0x41D2 DUP2 DUP6 PUSH2 0x4171 JUMP JUMPDEST SWAP4 POP PUSH2 0x41E2 DUP2 DUP6 PUSH1 0x20 DUP7 ADD PUSH2 0x4182 JUMP JUMPDEST PUSH2 0x41EB DUP2 PUSH2 0x41AC JUMP JUMPDEST DUP5 ADD SWAP2 POP POP SWAP3 SWAP2 POP POP JUMP JUMPDEST PUSH1 0x0 PUSH1 0x20 DUP3 ADD SWAP1 POP DUP2 DUP2 SUB PUSH1 0x0 DUP4 ADD MSTORE PUSH2 0x4210 DUP2 DUP5 PUSH2 0x41BD JUMP JUMPDEST SWAP1 POP SWAP3 SWAP2 POP POP JUMP JUMPDEST PUSH1 0x0 DUP2 SWAP1 POP SWAP2 SWAP1 POP JUMP JUMPDEST PUSH1 0x0 PUSH2 0x423D PUSH2 0x4238 PUSH2 0x4233 DUP5 PUSH2 0x3EBB JUMP JUMPDEST PUSH2 0x4218 JUMP JUMPDEST PUSH2 0x3EBB JUMP JUMPDEST SWAP1 POP SWAP2 SWAP1 POP JUMP JUMPDEST PUSH1 0x0 PUSH2 0x424F DUP3 PUSH2 0x4222 JUMP JUMPDEST SWAP1 POP SWAP2 SWAP1 POP JUMP JUMPDEST PUSH1 0x0 PUSH2 0x4261 DUP3 PUSH2 0x4244 JUMP JUMPDEST SWAP1 POP SWAP2 SWAP1 POP JUMP JUMPDEST PUSH2 0x4271 DUP2 PUSH2 0x4256 JUMP JUMPDEST DUP3 MSTORE POP POP JUMP JUMPDEST PUSH1 0x0 PUSH1 0x20 DUP3 ADD SWAP1 POP PUSH2 0x428C PUSH1 0x0 DUP4 ADD DUP5 PUSH2 0x4268 JUMP JUMPDEST SWAP3 SWAP2 POP POP JUMP JUMPDEST PUSH1 0x0 DUP1 PUSH1 0x20 DUP4 DUP6 SUB SLT ISZERO PUSH2 0x42A9 JUMPI PUSH2 0x42A8 PUSH2 0x3E1F JUMP JUMPDEST JUMPDEST PUSH1 0x0 DUP4 ADD CALLDATALOAD PUSH8 0xFFFFFFFFFFFFFFFF DUP2 GT ISZERO PUSH2 0x42C7 JUMPI PUSH2 0x42C6 PUSH2 0x3E24 JUMP JUMPDEST JUMPDEST PUSH2 0x42D3 DUP6 DUP3 DUP7 ADD PUSH2 0x3FB0 JUMP JUMPDEST SWAP3 POP SWAP3 POP POP SWAP3 POP SWAP3 SWAP1 POP JUMP JUMPDEST PUSH1 0x0 PUSH2 0x42EA DUP3 PUSH2 0x4244 JUMP JUMPDEST SWAP1 POP SWAP2 SWAP1 POP JUMP JUMPDEST PUSH2 0x42FA DUP2 PUSH2 0x42DF JUMP JUMPDEST DUP3 MSTORE POP POP JUMP JUMPDEST PUSH1 0x0 PUSH1 0x20 DUP3 ADD SWAP1 POP PUSH2 0x4315 PUSH1 0x0 DUP4 ADD DUP5 PUSH2 0x42F1 JUMP JUMPDEST SWAP3 SWAP2 POP POP JUMP JUMPDEST PUSH1 0x0 PUSH1 0x20 DUP3 ADD SWAP1 POP PUSH2 0x4330 PUSH1 0x0 DUP4 ADD DUP5 PUSH2 0x40D3 JUMP JUMPDEST SWAP3 SWAP2 POP POP JUMP JUMPDEST PUSH1 0x0 DUP2 SWAP1 POP SWAP2 SWAP1 POP JUMP JUMPDEST PUSH2 0x4349 DUP2 PUSH2 0x4336 JUMP JUMPDEST DUP2 EQ PUSH2 0x4354 JUMPI PUSH1 0x0 DUP1 REVERT JUMPDEST POP JUMP JUMPDEST PUSH1 0x0 DUP2 CALLDATALOAD SWAP1 POP PUSH2 0x4366 DUP2 PUSH2 0x4340 JUMP JUMPDEST SWAP3 SWAP2 POP POP JUMP JUMPDEST PUSH1 0x0 DUP1 PUSH1 0x40 DUP4 DUP6 SUB SLT ISZERO PUSH2 0x4383 JUMPI PUSH2 0x4382 PUSH2 0x3E1F JUMP JUMPDEST JUMPDEST PUSH1 0x0 PUSH2 0x4391 DUP6 DUP3 DUP7 ADD PUSH2 0x3E4D JUMP JUMPDEST SWAP3 POP POP PUSH1 0x20 PUSH2 0x43A2 DUP6 DUP3 DUP7 ADD PUSH2 0x4357 JUMP JUMPDEST SWAP2 POP POP SWAP3 POP SWAP3 SWAP1 POP JUMP JUMPDEST PUSH2 0x43B5 DUP2 PUSH2 0x3EDB JUMP JUMPDEST DUP3 MSTORE POP POP JUMP JUMPDEST PUSH1 0x0 PUSH1 0x20 DUP3 ADD SWAP1 POP PUSH2 0x43D0 PUSH1 0x0 DUP4 ADD DUP5 PUSH2 0x43AC JUMP JUMPDEST SWAP3 SWAP2 POP POP JUMP JUMPDEST PUSH1 0x0 DUP2 MLOAD SWAP1 POP SWAP2 SWAP1 POP JUMP JUMPDEST PUSH1 0x0 DUP3 DUP3 MSTORE PUSH1 0x20 DUP3 ADD SWAP1 POP SWAP3 SWAP2 POP POP JUMP JUMPDEST PUSH1 0x0 DUP2 SWAP1 POP PUSH1 0x20 DUP3 ADD SWAP1 POP SWAP2 SWAP1 POP JUMP JUMPDEST PUSH2 0x440B DUP2 PUSH2 0x3E29 JUMP JUMPDEST DUP3 MSTORE POP POP JUMP JUMPDEST PUSH2 0x441A DUP2 PUSH2 0x4336 JUMP JUMPDEST DUP3 MSTORE POP POP JUMP JUMPDEST PUSH1 0x80 DUP3 ADD PUSH1 0x0 DUP3 ADD MLOAD PUSH2 0x4436 PUSH1 0x0 DUP6 ADD DUP3 PUSH2 0x4402 JUMP JUMPDEST POP PUSH1 0x20 DUP3 ADD MLOAD PUSH2 0x4449 PUSH1 0x20 DUP6 ADD DUP3 PUSH2 0x4402 JUMP JUMPDEST POP PUSH1 0x40 DUP3 ADD MLOAD PUSH2 0x445C PUSH1 0x40 DUP6 ADD DUP3 PUSH2 0x4402 JUMP JUMPDEST POP PUSH1 0x60 DUP3 ADD MLOAD PUSH2 0x446F PUSH1 0x60 DUP6 ADD DUP3 PUSH2 0x4411 JUMP JUMPDEST POP POP POP POP JUMP JUMPDEST PUSH1 0x0 PUSH2 0x4481 DUP4 DUP4 PUSH2 0x4420 JUMP JUMPDEST PUSH1 0x80 DUP4 ADD SWAP1 POP SWAP3 SWAP2 POP POP JUMP JUMPDEST PUSH1 0x0 PUSH1 0x20 DUP3 ADD SWAP1 POP SWAP2 SWAP1 POP JUMP JUMPDEST PUSH1 0x0 PUSH2 0x44A5 DUP3 PUSH2 0x43D6 JUMP JUMPDEST PUSH2 0x44AF DUP2 DUP6 PUSH2 0x43E1 JUMP JUMPDEST SWAP4 POP PUSH2 0x44BA DUP4 PUSH2 0x43F2 JUMP JUMPDEST DUP1 PUSH1 0x0 JUMPDEST DUP4 DUP2 LT ISZERO PUSH2 0x44EB JUMPI DUP2 MLOAD PUSH2 0x44D2 DUP9 DUP3 PUSH2 0x4475 JUMP JUMPDEST SWAP8 POP PUSH2 0x44DD DUP4 PUSH2 0x448D JUMP JUMPDEST SWAP3 POP POP PUSH1 0x1 DUP2 ADD SWAP1 POP PUSH2 0x44BE JUMP JUMPDEST POP DUP6 SWAP4 POP POP POP POP SWAP3 SWAP2 POP POP JUMP JUMPDEST PUSH1 0x0 PUSH1 0x20 DUP3 ADD SWAP1 POP DUP2 DUP2 SUB PUSH1 0x0 DUP4 ADD MSTORE PUSH2 0x4512 DUP2 DUP5 PUSH2 0x449A JUMP JUMPDEST SWAP1 POP SWAP3 SWAP2 POP POP JUMP JUMPDEST PUSH1 0x0 DUP3 DUP3 MSTORE PUSH1 0x20 DUP3 ADD SWAP1 POP SWAP3 SWAP2 POP POP JUMP JUMPDEST PUSH1 0x0 PUSH2 0x4536 DUP3 PUSH2 0x4166 JUMP JUMPDEST PUSH2 0x4540 DUP2 DUP6 PUSH2 0x451A JUMP JUMPDEST SWAP4 POP PUSH2 0x4550 DUP2 DUP6 PUSH1 0x20 DUP7 ADD PUSH2 0x4182 JUMP JUMPDEST PUSH2 0x4559 DUP2 PUSH2 0x41AC JUMP JUMPDEST DUP5 ADD SWAP2 POP POP SWAP3 SWAP2 POP POP JUMP JUMPDEST PUSH2 0x456D DUP2 PUSH2 0x40E2 JUMP JUMPDEST DUP3 MSTORE POP POP JUMP JUMPDEST PUSH1 0x0 PUSH1 0x80 DUP4 ADD PUSH1 0x0 DUP4 ADD MLOAD DUP5 DUP3 SUB PUSH1 0x0 DUP7 ADD MSTORE PUSH2 0x4590 DUP3 DUP3 PUSH2 0x452B JUMP JUMPDEST SWAP2 POP POP PUSH1 0x20 DUP4 ADD MLOAD PUSH2 0x45A5 PUSH1 0x20 DUP7 ADD DUP3 PUSH2 0x3EED JUMP JUMPDEST POP PUSH1 0x40 DUP4 ADD MLOAD PUSH2 0x45B8 PUSH1 0x40 DUP7 ADD DUP3 PUSH2 0x4402 JUMP JUMPDEST POP PUSH1 0x60 DUP4 ADD MLOAD PUSH2 0x45CB PUSH1 0x60 DUP7 ADD DUP3 PUSH2 0x4564 JUMP JUMPDEST POP DUP1 SWAP2 POP POP SWAP3 SWAP2 POP POP JUMP JUMPDEST PUSH1 0x0 PUSH1 0x20 DUP3 ADD SWAP1 POP DUP2 DUP2 SUB PUSH1 0x0 DUP4 ADD MSTORE PUSH2 0x45F0 DUP2 DUP5 PUSH2 0x4573 JUMP JUMPDEST SWAP1 POP SWAP3 SWAP2 POP POP JUMP JUMPDEST PUSH1 0x0 PUSH2 0x4603 DUP3 PUSH2 0x4244 JUMP JUMPDEST SWAP1 POP SWAP2 SWAP1 POP JUMP JUMPDEST PUSH2 0x4613 DUP2 PUSH2 0x45F8 JUMP JUMPDEST DUP3 MSTORE POP POP JUMP JUMPDEST PUSH1 0x0 PUSH1 0x20 DUP3 ADD SWAP1 POP PUSH2 0x462E PUSH1 0x0 DUP4 ADD DUP5 PUSH2 0x460A JUMP JUMPDEST SWAP3 SWAP2 POP POP JUMP JUMPDEST PUSH2 0x463D DUP2 PUSH2 0x4336 JUMP JUMPDEST DUP3 MSTORE POP POP JUMP JUMPDEST PUSH1 0x0 PUSH1 0x20 DUP3 ADD SWAP1 POP PUSH2 0x4658 PUSH1 0x0 DUP4 ADD DUP5 PUSH2 0x4634 JUMP JUMPDEST SWAP3 SWAP2 POP POP JUMP JUMPDEST PUSH1 0x0 DUP1 PUSH1 0x40 DUP4 DUP6 SUB SLT ISZERO PUSH2 0x4675 JUMPI PUSH2 0x4674 PUSH2 0x3E1F JUMP JUMPDEST JUMPDEST PUSH1 0x0 PUSH2 0x4683 DUP6 DUP3 DUP7 ADD PUSH2 0x3E4D JUMP JUMPDEST SWAP3 POP POP PUSH1 0x20 PUSH2 0x4694 DUP6 DUP3 DUP7 ADD PUSH2 0x4091 JUMP JUMPDEST SWAP2 POP POP SWAP3 POP SWAP3 SWAP1 POP JUMP JUMPDEST PUSH1 0x0 DUP2 MLOAD SWAP1 POP SWAP2 SWAP1 POP JUMP JUMPDEST PUSH1 0x0 DUP3 DUP3 MSTORE PUSH1 0x20 DUP3 ADD SWAP1 POP SWAP3 SWAP2 POP POP JUMP JUMPDEST PUSH1 0x0 DUP2 SWAP1 POP PUSH1 0x20 DUP3 ADD SWAP1 POP SWAP2 SWAP1 POP JUMP JUMPDEST PUSH1 0x0 PUSH1 0x80 DUP4 ADD PUSH1 0x0 DUP4 ADD MLOAD DUP5 DUP3 SUB PUSH1 0x0 DUP7 ADD MSTORE PUSH2 0x46E7 DUP3 DUP3 PUSH2 0x452B JUMP JUMPDEST SWAP2 POP POP PUSH1 0x20 DUP4 ADD MLOAD PUSH2 0x46FC PUSH1 0x20 DUP7 ADD DUP3 PUSH2 0x3EED JUMP JUMPDEST POP PUSH1 0x40 DUP4 ADD MLOAD PUSH2 0x470F PUSH1 0x40 DUP7 ADD DUP3 PUSH2 0x4402 JUMP JUMPDEST POP PUSH1 0x60 DUP4 ADD MLOAD PUSH2 0x4722 PUSH1 0x60 DUP7 ADD DUP3 PUSH2 0x4564 JUMP JUMPDEST POP DUP1 SWAP2 POP POP SWAP3 SWAP2 POP POP JUMP JUMPDEST PUSH1 0x0 PUSH2 0x4739 DUP4 DUP4 PUSH2 0x46CA JUMP JUMPDEST SWAP1 POP SWAP3 SWAP2 POP POP JUMP JUMPDEST PUSH1 0x0 PUSH1 0x20 DUP3 ADD SWAP1 POP SWAP2 SWAP1 POP JUMP JUMPDEST PUSH1 0x0 PUSH2 0x4759 DUP3 PUSH2 0x469E JUMP JUMPDEST PUSH2 0x4763 DUP2 DUP6 PUSH2 0x46A9 JUMP JUMPDEST SWAP4 POP DUP4 PUSH1 0x20 DUP3 MUL DUP6 ADD PUSH2 0x4775 DUP6 PUSH2 0x46BA JUMP JUMPDEST DUP1 PUSH1 0x0 JUMPDEST DUP6 DUP2 LT ISZERO PUSH2 0x47B1 JUMPI DUP5 DUP5 SUB DUP10 MSTORE DUP2 MLOAD PUSH2 0x4792 DUP6 DUP3 PUSH2 0x472D JUMP JUMPDEST SWAP5 POP PUSH2 0x479D DUP4 PUSH2 0x4741 JUMP JUMPDEST SWAP3 POP PUSH1 0x20 DUP11 ADD SWAP10 POP POP PUSH1 0x1 DUP2 ADD SWAP1 POP PUSH2 0x4779 JUMP JUMPDEST POP DUP3 SWAP8 POP DUP8 SWAP6 POP POP POP POP POP POP SWAP3 SWAP2 POP POP JUMP JUMPDEST PUSH1 0x0 PUSH1 0x20 DUP3 ADD SWAP1 POP DUP2 DUP2 SUB PUSH1 0x0 DUP4 ADD MSTORE PUSH2 0x47DD DUP2 DUP5 PUSH2 0x474E JUMP JUMPDEST SWAP1 POP SWAP3 SWAP2 POP POP JUMP JUMPDEST PUSH1 0x0 PUSH2 0x47F0 DUP3 PUSH2 0x4244 JUMP JUMPDEST SWAP1 POP SWAP2 SWAP1 POP JUMP JUMPDEST PUSH2 0x4800 DUP2 PUSH2 0x47E5 JUMP JUMPDEST DUP3 MSTORE POP POP JUMP JUMPDEST PUSH1 0x0 PUSH1 0x20 DUP3 ADD SWAP1 POP PUSH2 0x481B PUSH1 0x0 DUP4 ADD DUP5 PUSH2 0x47F7 JUMP JUMPDEST SWAP3 SWAP2 POP POP JUMP JUMPDEST PUSH1 0x0 DUP1 PUSH1 0x40 DUP4 DUP6 SUB SLT ISZERO PUSH2 0x4838 JUMPI PUSH2 0x4837 PUSH2 0x3E1F JUMP JUMPDEST JUMPDEST PUSH1 0x0 PUSH2 0x4846 DUP6 DUP3 DUP7 ADD PUSH2 0x4357 JUMP JUMPDEST SWAP3 POP POP PUSH1 0x20 PUSH2 0x4857 DUP6 DUP3 DUP7 ADD PUSH2 0x4357 JUMP JUMPDEST SWAP2 POP POP SWAP3 POP SWAP3 SWAP1 POP JUMP JUMPDEST PUSH1 0x0 PUSH1 0x80 DUP3 ADD SWAP1 POP DUP2 DUP2 SUB PUSH1 0x0 DUP4 ADD MSTORE PUSH2 0x487B DUP2 DUP8 PUSH2 0x41BD JUMP JUMPDEST SWAP1 POP PUSH2 0x488A PUSH1 0x20 DUP4 ADD DUP7 PUSH2 0x43AC JUMP JUMPDEST PUSH2 0x4897 PUSH1 0x40 DUP4 ADD DUP6 PUSH2 0x40D3 JUMP JUMPDEST PUSH2 0x48A4 PUSH1 0x60 DUP4 ADD DUP5 PUSH2 0x40EE JUMP JUMPDEST SWAP6 SWAP5 POP POP POP POP POP JUMP JUMPDEST PUSH32 0x4E616D652063616E6E6F7420626520656D707479000000000000000000000000 PUSH1 0x0 DUP3 ADD MSTORE POP JUMP JUMPDEST PUSH1 0x0 PUSH2 0x48E3 PUSH1 0x14 DUP4 PUSH2 0x4171 JUMP JUMPDEST SWAP2 POP PUSH2 0x48EE DUP3 PUSH2 0x48AD JUMP JUMPDEST PUSH1 0x20 DUP3 ADD SWAP1 POP SWAP2 SWAP1 POP JUMP JUMPDEST PUSH1 0x0 PUSH1 0x20 DUP3 ADD SWAP1 POP DUP2 DUP2 SUB PUSH1 0x0 DUP4 ADD MSTORE PUSH2 0x4912 DUP2 PUSH2 0x48D6 JUMP JUMPDEST SWAP1 POP SWAP2 SWAP1 POP JUMP JUMPDEST PUSH1 0x0 PUSH1 0x40 DUP3 ADD SWAP1 POP PUSH2 0x492E PUSH1 0x0 DUP4 ADD DUP6 PUSH2 0x40D3 JUMP JUMPDEST PUSH2 0x493B PUSH1 0x20 DUP4 ADD DUP5 PUSH2 0x40D3 JUMP JUMPDEST SWAP4 SWAP3 POP POP POP JUMP JUMPDEST PUSH1 0x0 DUP2 MLOAD SWAP1 POP PUSH2 0x4951 DUP2 PUSH2 0x407A JUMP JUMPDEST SWAP3 SWAP2 POP POP JUMP JUMPDEST PUSH1 0x0 PUSH1 0x20 DUP3 DUP5 SUB SLT ISZERO PUSH2 0x496D JUMPI PUSH2 0x496C PUSH2 0x3E1F JUMP JUMPDEST JUMPDEST PUSH1 0x0 PUSH2 0x497B DUP5 DUP3 DUP6 ADD PUSH2 0x4942 JUMP JUMPDEST SWAP2 POP POP SWAP3 SWAP2 POP POP JUMP JUMPDEST PUSH32 0x596F7520617265206E6F7420746865206F776E6572206F662074686973207469 PUSH1 0x0 DUP3 ADD MSTORE PUSH32 0x6C65000000000000000000000000000000000000000000000000000000000000 PUSH1 0x20 DUP3 ADD MSTORE POP JUMP JUMPDEST PUSH1 0x0 PUSH2 0x49E0 PUSH1 0x22 DUP4 PUSH2 0x4171 JUMP JUMPDEST SWAP2 POP PUSH2 0x49EB DUP3 PUSH2 0x4984 JUMP JUMPDEST PUSH1 0x40 DUP3 ADD SWAP1 POP SWAP2 SWAP1 POP JUMP JUMPDEST PUSH1 0x0 PUSH1 0x20 DUP3 ADD SWAP1 POP DUP2 DUP2 SUB PUSH1 0x0 DUP4 ADD MSTORE PUSH2 0x4A0F DUP2 PUSH2 0x49D3 JUMP JUMPDEST SWAP1 POP SWAP2 SWAP1 POP JUMP JUMPDEST PUSH1 0x0 PUSH1 0x60 DUP3 ADD SWAP1 POP PUSH2 0x4A2B PUSH1 0x0 DUP4 ADD DUP7 PUSH2 0x43AC JUMP JUMPDEST PUSH2 0x4A38 PUSH1 0x20 DUP4 ADD DUP6 PUSH2 0x43AC JUMP JUMPDEST PUSH2 0x4A45 PUSH1 0x40 DUP4 ADD DUP5 PUSH2 0x4634 JUMP JUMPDEST SWAP5 SWAP4 POP POP POP POP JUMP JUMPDEST PUSH2 0x4A56 DUP2 PUSH2 0x40E2 JUMP JUMPDEST DUP2 EQ PUSH2 0x4A61 JUMPI PUSH1 0x0 DUP1 REVERT JUMPDEST POP JUMP JUMPDEST PUSH1 0x0 DUP2 MLOAD SWAP1 POP PUSH2 0x4A73 DUP2 PUSH2 0x4A4D JUMP JUMPDEST SWAP3 SWAP2 POP POP JUMP JUMPDEST PUSH1 0x0 PUSH1 0x20 DUP3 DUP5 SUB SLT ISZERO PUSH2 0x4A8F JUMPI PUSH2 0x4A8E PUSH2 0x3E1F JUMP JUMPDEST JUMPDEST PUSH1 0x0 PUSH2 0x4A9D DUP5 DUP3 DUP6 ADD PUSH2 0x4A64 JUMP JUMPDEST SWAP2 POP POP SWAP3 SWAP2 POP POP JUMP JUMPDEST PUSH32 0x546F6B656E207061796D656E74206661696C6564000000000000000000000000 PUSH1 0x0 DUP3 ADD MSTORE POP JUMP JUMPDEST PUSH1 0x0 PUSH2 0x4ADC PUSH1 0x14 DUP4 PUSH2 0x4171 JUMP JUMPDEST SWAP2 POP PUSH2 0x4AE7 DUP3 PUSH2 0x4AA6 JUMP JUMPDEST PUSH1 0x20 DUP3 ADD SWAP1 POP SWAP2 SWAP1 POP JUMP JUMPDEST PUSH1 0x0 PUSH1 0x20 DUP3 ADD SWAP1 POP DUP2 DUP2 SUB PUSH1 0x0 DUP4 ADD MSTORE PUSH2 0x4B0B DUP2 PUSH2 0x4ACF JUMP JUMPDEST SWAP1 POP SWAP2 SWAP1 POP JUMP JUMPDEST PUSH1 0x0 DUP3 SWAP1 POP SWAP3 SWAP2 POP POP JUMP JUMPDEST PUSH32 0x4E487B7100000000000000000000000000000000000000000000000000000000 PUSH1 0x0 MSTORE PUSH1 0x41 PUSH1 0x4 MSTORE PUSH1 0x24 PUSH1 0x0 REVERT JUMPDEST PUSH32 0x4E487B7100000000000000000000000000000000000000000000000000000000 PUSH1 0x0 MSTORE PUSH1 0x22 PUSH1 0x4 MSTORE PUSH1 0x24 PUSH1 0x0 REVERT JUMPDEST PUSH1 0x0 PUSH1 0x2 DUP3 DIV SWAP1 POP PUSH1 0x1 DUP3 AND DUP1 PUSH2 0x4B93 JUMPI PUSH1 0x7F DUP3 AND SWAP2 POP JUMPDEST PUSH1 0x20 DUP3 LT DUP2 SUB PUSH2 0x4BA6 JUMPI PUSH2 0x4BA5 PUSH2 0x4B4C JUMP JUMPDEST JUMPDEST POP SWAP2 SWAP1 POP JUMP JUMPDEST PUSH1 0x0 DUP2 SWAP1 POP DUP2 PUSH1 0x0 MSTORE PUSH1 0x20 PUSH1 0x0 KECCAK256 SWAP1 POP SWAP2 SWAP1 POP JUMP JUMPDEST PUSH1 0x0 PUSH1 0x20 PUSH1 0x1F DUP4 ADD DIV SWAP1 POP SWAP2 SWAP1 POP JUMP JUMPDEST PUSH1 0x0 DUP3 DUP3 SHL SWAP1 POP SWAP3 SWAP2 POP POP JUMP JUMPDEST PUSH1 0x0 PUSH1 0x8 DUP4 MUL PUSH2 0x4C0E PUSH32 0xFFFFFFFFFFFFFFFFFFFFFFFFFFFFFFFFFFFFFFFFFFFFFFFFFFFFFFFFFFFFFFFF DUP3 PUSH2 0x4BD1 JUMP JUMPDEST PUSH2 0x4C18 DUP7 DUP4 PUSH2 0x4BD1 JUMP JUMPDEST SWAP6 POP DUP1 NOT DUP5 AND SWAP4 POP DUP1 DUP7 AND DUP5 OR SWAP3 POP POP POP SWAP4 SWAP3 POP POP POP JUMP JUMPDEST PUSH1 0x0 PUSH2 0x4C4B PUSH2 0x4C46 PUSH2 0x4C41 DUP5 PUSH2 0x4336 JUMP JUMPDEST PUSH2 0x4218 JUMP JUMPDEST PUSH2 0x4336 JUMP JUMPDEST SWAP1 POP SWAP2 SWAP1 POP JUMP JUMPDEST PUSH1 0x0 DUP2 SWAP1 POP SWAP2 SWAP1 POP JUMP JUMPDEST PUSH2 0x4C65 DUP4 PUSH2 0x4C30 JUMP JUMPDEST PUSH2 0x4C79 PUSH2 0x4C71 DUP3 PUSH2 0x4C52 JUMP JUMPDEST DUP5 DUP5 SLOAD PUSH2 0x4BDE JUMP JUMPDEST DUP3 SSTORE POP POP POP POP JUMP JUMPDEST PUSH1 0x0 SWAP1 JUMP JUMPDEST PUSH2 0x4C8E PUSH2 0x4C81 JUMP JUMPDEST PUSH2 0x4C99 DUP2 DUP5 DUP5 PUSH2 0x4C5C JUMP JUMPDEST POP POP POP JUMP JUMPDEST JUMPDEST DUP2 DUP2 LT ISZERO PUSH2 0x4CBD JUMPI PUSH2 0x4CB2 PUSH1 0x0 DUP3 PUSH2 0x4C86 JUMP JUMPDEST PUSH1 0x1 DUP2 ADD SWAP1 POP PUSH2 0x4C9F JUMP JUMPDEST POP POP JUMP JUMPDEST PUSH1 0x1F DUP3 GT ISZERO PUSH2 0x4D02 JUMPI PUSH2 0x4CD3 DUP2 PUSH2 0x4BAC JUMP JUMPDEST PUSH2 0x4CDC DUP5 PUSH2 0x4BC1 JUMP JUMPDEST DUP2 ADD PUSH1 0x20 DUP6 LT ISZERO PUSH2 0x4CEB JUMPI DUP2 SWAP1 POP JUMPDEST PUSH2 0x4CFF PUSH2 0x4CF7 DUP6 PUSH2 0x4BC1 JUMP JUMPDEST DUP4 ADD DUP3 PUSH2 0x4C9E JUMP JUMPDEST POP POP JUMPDEST POP POP POP JUMP JUMPDEST PUSH1 0x0 DUP3 DUP3 SHR SWAP1 POP SWAP3 SWAP2 POP POP JUMP JUMPDEST PUSH1 0x0 PUSH2 0x4D25 PUSH1 0x0 NOT DUP5 PUSH1 0x8 MUL PUSH2 0x4D07 JUMP JUMPDEST NOT DUP1 DUP4 AND SWAP2 POP POP SWAP3 SWAP2 POP POP JUMP JUMPDEST PUSH1 0x0 PUSH2 0x4D3E DUP4 DUP4 PUSH2 0x4D14 JUMP JUMPDEST SWAP2 POP DUP3 PUSH1 0x2 MUL DUP3 OR SWAP1 POP SWAP3 SWAP2 POP POP JUMP JUMPDEST PUSH2 0x4D58 DUP4 DUP4 PUSH2 0x4B12 JUMP JUMPDEST PUSH8 0xFFFFFFFFFFFFFFFF DUP2 GT ISZERO PUSH2 0x4D71 JUMPI PUSH2 0x4D70 PUSH2 0x4B1D JUMP JUMPDEST JUMPDEST PUSH2 0x4D7B DUP3 SLOAD PUSH2 0x4B7B JUMP JUMPDEST PUSH2 0x4D86 DUP3 DUP3 DUP6 PUSH2 0x4CC1 JUMP JUMPDEST PUSH1 0x0 PUSH1 0x1F DUP4 GT PUSH1 0x1 DUP2 EQ PUSH2 0x4DB5 JUMPI PUSH1 0x0 DUP5 ISZERO PUSH2 0x4DA3 JUMPI DUP3 DUP8 ADD CALLDATALOAD SWAP1 POP JUMPDEST PUSH2 0x4DAD DUP6 DUP3 PUSH2 0x4D32 JUMP JUMPDEST DUP7 SSTORE POP PUSH2 0x4E15 JUMP JUMPDEST PUSH1 0x1F NOT DUP5 AND PUSH2 0x4DC3 DUP7 PUSH2 0x4BAC JUMP JUMPDEST PUSH1 0x0 JUMPDEST DUP3 DUP2 LT ISZERO PUSH2 0x4DEB JUMPI DUP5 DUP10 ADD CALLDATALOAD DUP3 SSTORE PUSH1 0x1 DUP3 ADD SWAP2 POP PUSH1 0x20 DUP6 ADD SWAP5 POP PUSH1 0x20 DUP2 ADD SWAP1 POP PUSH2 0x4DC6 JUMP JUMPDEST DUP7 DUP4 LT ISZERO PUSH2 0x4E08 JUMPI DUP5 DUP10 ADD CALLDATALOAD PUSH2 0x4E04 PUSH1 0x1F DUP10 AND DUP3 PUSH2 0x4D14 JUMP JUMPDEST DUP4 SSTORE POP JUMPDEST PUSH1 0x1 PUSH1 0x2 DUP9 MUL ADD DUP9 SSTORE POP POP POP JUMPDEST POP POP POP POP POP POP POP JUMP JUMPDEST DUP3 DUP2 DUP4 CALLDATACOPY PUSH1 0x0 DUP4 DUP4 ADD MSTORE POP POP POP JUMP JUMPDEST PUSH1 0x0 PUSH2 0x4E39 DUP4 DUP6 PUSH2 0x4171 JUMP JUMPDEST SWAP4 POP PUSH2 0x4E46 DUP4 DUP6 DUP5 PUSH2 0x4E1E JUMP JUMPDEST PUSH2 0x4E4F DUP4 PUSH2 0x41AC JUMP JUMPDEST DUP5 ADD SWAP1 POP SWAP4 SWAP3 POP POP POP JUMP JUMPDEST PUSH1 0x0 PUSH1 0x60 DUP3 ADD SWAP1 POP PUSH2 0x4E6F PUSH1 0x0 DUP4 ADD DUP8 PUSH2 0x40D3 JUMP JUMPDEST PUSH2 0x4E7C PUSH1 0x20 DUP4 ADD DUP7 PUSH2 0x40D3 JUMP JUMPDEST DUP2 DUP2 SUB PUSH1 0x40 DUP4 ADD MSTORE PUSH2 0x4E8F DUP2 DUP5 DUP7 PUSH2 0x4E2D JUMP JUMPDEST SWAP1 POP SWAP6 SWAP5 POP POP POP POP POP JUMP JUMPDEST PUSH32 0x596F75206D757374206F776E20612074696C6520746F20637265617465206F72 PUSH1 0x0 DUP3 ADD MSTORE PUSH32 0x206A6F696E206120636C616E0000000000000000000000000000000000000000 PUSH1 0x20 DUP3 ADD MSTORE POP JUMP JUMPDEST PUSH1 0x0 PUSH2 0x4EF6 PUSH1 0x2C DUP4 PUSH2 0x4171 JUMP JUMPDEST SWAP2 POP PUSH2 0x4F01 DUP3 PUSH2 0x4E9A JUMP JUMPDEST PUSH1 0x40 DUP3 ADD SWAP1 POP SWAP2 SWAP1 POP JUMP JUMPDEST PUSH1 0x0 PUSH1 0x20 DUP3 ADD SWAP1 POP DUP2 DUP2 SUB PUSH1 0x0 DUP4 ADD MSTORE PUSH2 0x4F25 DUP2 PUSH2 0x4EE9 JUMP JUMPDEST SWAP1 POP SWAP2 SWAP1 POP JUMP JUMPDEST PUSH32 0x436C616E206E616D652063616E6E6F7420626520656D70747900000000000000 PUSH1 0x0 DUP3 ADD MSTORE POP JUMP JUMPDEST PUSH1 0x0 PUSH2 0x4F62 PUSH1 0x19 DUP4 PUSH2 0x4171 JUMP JUMPDEST SWAP2 POP PUSH2 0x4F6D DUP3 PUSH2 0x4F2C JUMP JUMPDEST PUSH1 0x20 DUP3 ADD SWAP1 POP SWAP2 SWAP1 POP JUMP JUMPDEST PUSH1 0x0 PUSH1 0x20 DUP3 ADD SWAP1 POP DUP2 DUP2 SUB PUSH1 0x0 DUP4 ADD MSTORE PUSH2 0x4F91 DUP2 PUSH2 0x4F55 JUMP JUMPDEST SWAP1 POP SWAP2 SWAP1 POP JUMP JUMPDEST PUSH32 0x416C726561647920696E206120636C616E000000000000000000000000000000 PUSH1 0x0 DUP3 ADD MSTORE POP JUMP JUMPDEST PUSH1 0x0 PUSH2 0x4FCE PUSH1 0x11 DUP4 PUSH2 0x4171 JUMP JUMPDEST SWAP2 POP PUSH2 0x4FD9 DUP3 PUSH2 0x4F98 JUMP JUMPDEST PUSH1 0x20 DUP3 ADD SWAP1 POP SWAP2 SWAP1 POP JUMP JUMPDEST PUSH1 0x0 PUSH1 0x20 DUP3 ADD SWAP1 POP DUP2 DUP2 SUB PUSH1 0x0 DUP4 ADD MSTORE PUSH2 0x4FFD DUP2 PUSH2 0x4FC1 JUMP JUMPDEST SWAP1 POP SWAP2 SWAP1 POP JUMP JUMPDEST PUSH32 0x596F75206D7573742068617665206120436C616E2048616C6C00000000000000 PUSH1 0x0 DUP3 ADD MSTORE POP JUMP JUMPDEST PUSH1 0x0 PUSH2 0x503A PUSH1 0x19 DUP4 PUSH2 0x4171 JUMP JUMPDEST SWAP2 POP PUSH2 0x5045 DUP3 PUSH2 0x5004 JUMP JUMPDEST PUSH1 0x20 DUP3 ADD SWAP1 POP SWAP2 SWAP1 POP JUMP JUMPDEST PUSH1 0x0 PUSH1 0x20 DUP3 ADD SWAP1 POP DUP2 DUP2 SUB PUSH1 0x0 DUP4 ADD MSTORE PUSH2 0x5069 DUP2 PUSH2 0x502D JUMP JUMPDEST SWAP1 POP SWAP2 SWAP1 POP JUMP JUMPDEST PUSH32 0x4C4F50207472616E73666572206661696C656400000000000000000000000000 PUSH1 0x0 DUP3 ADD MSTORE POP JUMP JUMPDEST PUSH1 0x0 PUSH2 0x50A6 PUSH1 0x13 DUP4 PUSH2 0x4171 JUMP JUMPDEST SWAP2 POP PUSH2 0x50B1 DUP3 PUSH2 0x5070 JUMP JUMPDEST PUSH1 0x20 DUP3 ADD SWAP1 POP SWAP2 SWAP1 POP JUMP JUMPDEST PUSH1 0x0 PUSH1 0x20 DUP3 ADD SWAP1 POP DUP2 DUP2 SUB PUSH1 0x0 DUP4 ADD MSTORE PUSH2 0x50D5 DUP2 PUSH2 0x5099 JUMP JUMPDEST SWAP1 POP SWAP2 SWAP1 POP JUMP JUMPDEST PUSH32 0x4E487B7100000000000000000000000000000000000000000000000000000000 PUSH1 0x0 MSTORE PUSH1 0x11 PUSH1 0x4 MSTORE PUSH1 0x24 PUSH1 0x0 REVERT JUMPDEST PUSH1 0x0 PUSH2 0x5116 DUP3 PUSH2 0x3E29 JUMP JUMPDEST SWAP2 POP PUSH1 0xFF DUP3 SUB PUSH2 0x5129 JUMPI PUSH2 0x5128 PUSH2 0x50DC JUMP JUMPDEST JUMPDEST PUSH1 0x1 DUP3 ADD SWAP1 POP SWAP2 SWAP1 POP JUMP JUMPDEST PUSH2 0x513D DUP3 PUSH2 0x4166 JUMP JUMPDEST PUSH8 0xFFFFFFFFFFFFFFFF DUP2 GT ISZERO PUSH2 0x5156 JUMPI PUSH2 0x5155 PUSH2 0x4B1D JUMP JUMPDEST JUMPDEST PUSH2 0x5160 DUP3 SLOAD PUSH2 0x4B7B JUMP JUMPDEST PUSH2 0x516B DUP3 DUP3 DUP6 PUSH2 0x4CC1 JUMP JUMPDEST PUSH1 0x0 PUSH1 0x20 SWAP1 POP PUSH1 0x1F DUP4 GT PUSH1 0x1 DUP2 EQ PUSH2 0x519E JUMPI PUSH1 0x0 DUP5 ISZERO PUSH2 0x518C JUMPI DUP3 DUP8 ADD MLOAD SWAP1 POP JUMPDEST PUSH2 0x5196 DUP6 DUP3 PUSH2 0x4D32 JUMP JUMPDEST DUP7 SSTORE POP PUSH2 0x51FE JUMP JUMPDEST PUSH1 0x1F NOT DUP5 AND PUSH2 0x51AC DUP7 PUSH2 0x4BAC JUMP JUMPDEST PUSH1 0x0 JUMPDEST DUP3 DUP2 LT ISZERO PUSH2 0x51D4 JUMPI DUP5 DUP10 ADD MLOAD DUP3 SSTORE PUSH1 0x1 DUP3 ADD SWAP2 POP PUSH1 0x20 DUP6 ADD SWAP5 POP PUSH1 0x20 DUP2 ADD SWAP1 POP PUSH2 0x51AF JUMP JUMPDEST DUP7 DUP4 LT ISZERO PUSH2 0x51F1 JUMPI DUP5 DUP10 ADD MLOAD PUSH2 0x51ED PUSH1 0x1F DUP10 AND DUP3 PUSH2 0x4D14 JUMP JUMPDEST DUP4 SSTORE POP JUMPDEST PUSH1 0x1 PUSH1 0x2 DUP9 MUL ADD DUP9 SSTORE POP POP POP JUMPDEST POP POP POP POP POP POP JUMP JUMPDEST PUSH1 0x0 PUSH1 0x60 DUP3 ADD SWAP1 POP PUSH2 0x521B PUSH1 0x0 DUP4 ADD DUP8 PUSH2 0x40D3 JUMP JUMPDEST DUP2 DUP2 SUB PUSH1 0x20 DUP4 ADD MSTORE PUSH2 0x522E DUP2 DUP6 DUP8 PUSH2 0x4E2D JUMP JUMPDEST SWAP1 POP PUSH2 0x523D PUSH1 0x40 DUP4 ADD DUP5 PUSH2 0x43AC JUMP JUMPDEST SWAP6 SWAP5 POP POP POP POP POP JUMP JUMPDEST PUSH32 0x496E76616C696420636F6F7264696E6174657300000000000000000000000000 PUSH1 0x0 DUP3 ADD MSTORE POP JUMP JUMPDEST PUSH1 0x0 PUSH2 0x527C PUSH1 0x13 DUP4 PUSH2 0x4171 JUMP JUMPDEST SWAP2 POP PUSH2 0x5287 DUP3 PUSH2 0x5246 JUMP JUMPDEST PUSH1 0x20 DUP3 ADD SWAP1 POP SWAP2 SWAP1 POP JUMP JUMPDEST PUSH1 0x0 PUSH1 0x20 DUP3 ADD SWAP1 POP DUP2 DUP2 SUB PUSH1 0x0 DUP4 ADD MSTORE PUSH2 0x52AB DUP2 PUSH2 0x526F JUMP JUMPDEST SWAP1 POP SWAP2 SWAP1 POP JUMP JUMPDEST PUSH32 0x4E487B7100000000000000000000000000000000000000000000000000000000 PUSH1 0x0 MSTORE PUSH1 0x32 PUSH1 0x4 MSTORE PUSH1 0x24 PUSH1 0x0 REVERT JUMPDEST PUSH1 0x0 PUSH2 0x52EC DUP3 PUSH2 0x4336 JUMP JUMPDEST SWAP2 POP PUSH32 0xFFFFFFFFFFFFFFFFFFFFFFFFFFFFFFFFFFFFFFFFFFFFFFFFFFFFFFFFFFFFFFFF DUP3 SUB PUSH2 0x531E JUMPI PUSH2 0x531D PUSH2 0x50DC JUMP JUMPDEST JUMPDEST PUSH1 0x1 DUP3 ADD SWAP1 POP SWAP2 SWAP1 POP JUMP JUMPDEST PUSH32 0x4F6E6C7920636C616E206C65616465722063616E20706572666F726D20746869 PUSH1 0x0 DUP3 ADD MSTORE PUSH32 0x7320616374696F6E000000000000000000000000000000000000000000000000 PUSH1 0x20 DUP3 ADD MSTORE POP JUMP JUMPDEST PUSH1 0x0 PUSH2 0x5385 PUSH1 0x28 DUP4 PUSH2 0x4171 JUMP JUMPDEST SWAP2 POP PUSH2 0x5390 DUP3 PUSH2 0x5329 JUMP JUMPDEST PUSH1 0x40 DUP3 ADD SWAP1 POP SWAP2 SWAP1 POP JUMP JUMPDEST PUSH1 0x0 PUSH1 0x20 DUP3 ADD SWAP1 POP DUP2 DUP2 SUB PUSH1 0x0 DUP4 ADD MSTORE PUSH2 0x53B4 DUP2 PUSH2 0x5378 JUMP JUMPDEST SWAP1 POP SWAP2 SWAP1 POP JUMP JUMPDEST PUSH32 0x436C616E20646F6573206E6F7420657869737400000000000000000000000000 PUSH1 0x0 DUP3 ADD MSTORE POP JUMP JUMPDEST PUSH1 0x0 PUSH2 0x53F1 PUSH1 0x13 DUP4 PUSH2 0x4171 JUMP JUMPDEST SWAP2 POP PUSH2 0x53FC DUP3 PUSH2 0x53BB JUMP JUMPDEST PUSH1 0x20 DUP3 ADD SWAP1 POP SWAP2 SWAP1 POP JUMP JUMPDEST PUSH1 0x0 PUSH1 0x20 DUP3 ADD SWAP1 POP DUP2 DUP2 SUB PUSH1 0x0 DUP4 ADD MSTORE PUSH2 0x5420 DUP2 PUSH2 0x53E4 JUMP JUMPDEST SWAP1 POP SWAP2 SWAP1 POP JUMP JUMPDEST PUSH32 0x436C616E2069732066756C6C0000000000000000000000000000000000000000 PUSH1 0x0 DUP3 ADD MSTORE POP JUMP JUMPDEST PUSH1 0x0 PUSH2 0x545D PUSH1 0xC DUP4 PUSH2 0x4171 JUMP JUMPDEST SWAP2 POP PUSH2 0x5468 DUP3 PUSH2 0x5427 JUMP JUMPDEST PUSH1 0x20 DUP3 ADD SWAP1 POP SWAP2 SWAP1 POP JUMP JUMPDEST PUSH1 0x0 PUSH1 0x20 DUP3 ADD SWAP1 POP DUP2 DUP2 SUB PUSH1 0x0 DUP4 ADD MSTORE PUSH2 0x548C DUP2 PUSH2 0x5450 JUMP JUMPDEST SWAP1 POP SWAP2 SWAP1 POP JUMP JUMPDEST PUSH32 0x506C6179657220697320616C726561647920696E206120636C616E0000000000 PUSH1 0x0 DUP3 ADD MSTORE POP JUMP JUMPDEST PUSH1 0x0 PUSH2 0x54C9 PUSH1 0x1B DUP4 PUSH2 0x4171 JUMP JUMPDEST SWAP2 POP PUSH2 0x54D4 DUP3 PUSH2 0x5493 JUMP JUMPDEST PUSH1 0x20 DUP3 ADD SWAP1 POP SWAP2 SWAP1 POP JUMP JUMPDEST PUSH1 0x0 PUSH1 0x20 DUP3 ADD SWAP1 POP DUP2 DUP2 SUB PUSH1 0x0 DUP4 ADD MSTORE PUSH2 0x54F8 DUP2 PUSH2 0x54BC JUMP JUMPDEST SWAP1 POP SWAP2 SWAP1 POP JUMP JUMPDEST PUSH32 0x506C6179657220646F6573206E6F74206F776E20612074696C65000000000000 PUSH1 0x0 DUP3 ADD MSTORE POP JUMP JUMPDEST PUSH1 0x0 PUSH2 0x5535 PUSH1 0x1A DUP4 PUSH2 0x4171 JUMP JUMPDEST SWAP2 POP PUSH2 0x5540 DUP3 PUSH2 0x54FF JUMP JUMPDEST PUSH1 0x20 DUP3 ADD SWAP1 POP SWAP2 SWAP1 POP JUMP JUMPDEST PUSH1 0x0 PUSH1 0x20 DUP3 ADD SWAP1 POP DUP2 DUP2 SUB PUSH1 0x0 DUP4 ADD MSTORE PUSH2 0x5564 DUP2 PUSH2 0x5528 JUMP JUMPDEST SWAP1 POP SWAP2 SWAP1 POP JUMP JUMPDEST PUSH1 0x0 PUSH1 0x40 DUP3 ADD SWAP1 POP PUSH2 0x5580 PUSH1 0x0 DUP4 ADD DUP6 PUSH2 0x40D3 JUMP JUMPDEST PUSH2 0x558D PUSH1 0x20 DUP4 ADD DUP5 PUSH2 0x43AC JUMP JUMPDEST SWAP4 SWAP3 POP POP POP JUMP JUMPDEST PUSH32 0x4E6F2070656E64696E6720696E7669746520746F207265667573650000000000 PUSH1 0x0 DUP3 ADD MSTORE POP JUMP JUMPDEST PUSH1 0x0 PUSH2 0x55CA PUSH1 0x1B DUP4 PUSH2 0x4171 JUMP JUMPDEST SWAP2 POP PUSH2 0x55D5 DUP3 PUSH2 0x5594 JUMP JUMPDEST PUSH1 0x20 DUP3 ADD SWAP1 POP SWAP2 SWAP1 POP JUMP JUMPDEST PUSH1 0x0 PUSH1 0x20 DUP3 ADD SWAP1 POP DUP2 DUP2 SUB PUSH1 0x0 DUP4 ADD MSTORE PUSH2 0x55F9 DUP2 PUSH2 0x55BD JUMP JUMPDEST SWAP1 POP SWAP2 SWAP1 POP JUMP JUMPDEST PUSH32 0x4E6F742061206D656D626572206F66207468697320636C616E00000000000000 PUSH1 0x0 DUP3 ADD MSTORE POP JUMP JUMPDEST PUSH1 0x0 PUSH2 0x5636 PUSH1 0x19 DUP4 PUSH2 0x4171 JUMP JUMPDEST SWAP2 POP PUSH2 0x5641 DUP3 PUSH2 0x5600 JUMP JUMPDEST PUSH1 0x20 DUP3 ADD SWAP1 POP SWAP2 SWAP1 POP JUMP JUMPDEST PUSH1 0x0 PUSH1 0x20 DUP3 ADD SWAP1 POP DUP2 DUP2 SUB PUSH1 0x0 DUP4 ADD MSTORE PUSH2 0x5665 DUP2 PUSH2 0x5629 JUMP JUMPDEST SWAP1 POP SWAP2 SWAP1 POP JUMP JUMPDEST PUSH32 0x596F7520646F6E2774206F776E2074686973204E465400000000000000000000 PUSH1 0x0 DUP3 ADD MSTORE POP JUMP JUMPDEST PUSH1 0x0 PUSH2 0x56A2 PUSH1 0x16 DUP4 PUSH2 0x4171 JUMP JUMPDEST SWAP2 POP PUSH2 0x56AD DUP3 PUSH2 0x566C JUMP JUMPDEST PUSH1 0x20 DUP3 ADD SWAP1 POP SWAP2 SWAP1 POP JUMP JUMPDEST PUSH1 0x0 PUSH1 0x20 DUP3 ADD SWAP1 POP DUP2 DUP2 SUB PUSH1 0x0 DUP4 ADD MSTORE PUSH2 0x56D1 DUP2 PUSH2 0x5695 JUMP JUMPDEST SWAP1 POP SWAP2 SWAP1 POP JUMP JUMPDEST PUSH1 0x0 DUP1 REVERT JUMPDEST PUSH2 0x56E6 DUP3 PUSH2 0x41AC JUMP JUMPDEST DUP2 ADD DUP2 DUP2 LT PUSH8 0xFFFFFFFFFFFFFFFF DUP3 GT OR ISZERO PUSH2 0x5705 JUMPI PUSH2 0x5704 PUSH2 0x4B1D JUMP JUMPDEST JUMPDEST DUP1 PUSH1 0x40 MSTORE POP POP POP JUMP JUMPDEST PUSH1 0x0 PUSH2 0x5718 PUSH2 0x3E15 JUMP JUMPDEST SWAP1 POP PUSH2 0x5724 DUP3 DUP3 PUSH2 0x56DD JUMP JUMPDEST SWAP2 SWAP1 POP JUMP JUMPDEST PUSH1 0x0 PUSH8 0xFFFFFFFFFFFFFFFF DUP3 GT ISZERO PUSH2 0x5744 JUMPI PUSH2 0x5743 PUSH2 0x4B1D JUMP JUMPDEST JUMPDEST PUSH2 0x574D DUP3 PUSH2 0x41AC JUMP JUMPDEST SWAP1 POP PUSH1 0x20 DUP2 ADD SWAP1 POP SWAP2 SWAP1 POP JUMP JUMPDEST PUSH1 0x0 PUSH2 0x576D PUSH2 0x5768 DUP5 PUSH2 0x5729 JUMP JUMPDEST PUSH2 0x570E JUMP JUMPDEST SWAP1 POP DUP3 DUP2 MSTORE PUSH1 0x20 DUP2 ADD DUP5 DUP5 DUP5 ADD GT ISZERO PUSH2 0x5789 JUMPI PUSH2 0x5788 PUSH2 0x56D8 JUMP JUMPDEST JUMPDEST PUSH2 0x5794 DUP5 DUP3 DUP6 PUSH2 0x4182 JUMP JUMPDEST POP SWAP4 SWAP3 POP POP POP JUMP JUMPDEST PUSH1 0x0 DUP3 PUSH1 0x1F DUP4 ADD SLT PUSH2 0x57B1 JUMPI PUSH2 0x57B0 PUSH2 0x3FA1 JUMP JUMPDEST JUMPDEST DUP2 MLOAD PUSH2 0x57C1 DUP5 DUP3 PUSH1 0x20 DUP7 ADD PUSH2 0x575A JUMP JUMPDEST SWAP2 POP POP SWAP3 SWAP2 POP POP JUMP JUMPDEST PUSH1 0x0 DUP2 MLOAD SWAP1 POP PUSH2 0x57D9 DUP2 PUSH2 0x4340 JUMP JUMPDEST SWAP3 SWAP2 POP POP JUMP JUMPDEST PUSH1 0x0 DUP1 PUSH1 0x0 DUP1 PUSH1 0x0 DUP1 PUSH1 0x0 DUP1 PUSH1 0x0 DUP1 PUSH1 0x0 PUSH2 0x160 DUP13 DUP15 SUB SLT ISZERO PUSH2 0x5805 JUMPI PUSH2 0x5804 PUSH2 0x3E1F JUMP JUMPDEST JUMPDEST PUSH1 0x0 DUP13 ADD MLOAD PUSH8 0xFFFFFFFFFFFFFFFF DUP2 GT ISZERO PUSH2 0x5823 JUMPI PUSH2 0x5822 PUSH2 0x3E24 JUMP JUMPDEST JUMPDEST PUSH2 0x582F DUP15 DUP3 DUP16 ADD PUSH2 0x579C JUMP JUMPDEST SWAP12 POP POP PUSH1 0x20 DUP13 ADD MLOAD PUSH8 0xFFFFFFFFFFFFFFFF DUP2 GT ISZERO PUSH2 0x5850 JUMPI PUSH2 0x584F PUSH2 0x3E24 JUMP JUMPDEST JUMPDEST PUSH2 0x585C DUP15 DUP3 DUP16 ADD PUSH2 0x579C JUMP JUMPDEST SWAP11 POP POP PUSH1 0x40 DUP13 ADD MLOAD PUSH8 0xFFFFFFFFFFFFFFFF DUP2 GT ISZERO PUSH2 0x587D JUMPI PUSH2 0x587C PUSH2 0x3E24 JUMP JUMPDEST JUMPDEST PUSH2 0x5889 DUP15 DUP3 DUP16 ADD PUSH2 0x579C JUMP JUMPDEST SWAP10 POP POP PUSH1 0x60 DUP13 ADD MLOAD PUSH8 0xFFFFFFFFFFFFFFFF DUP2 GT ISZERO PUSH2 0x58AA JUMPI PUSH2 0x58A9 PUSH2 0x3E24 JUMP JUMPDEST JUMPDEST PUSH2 0x58B6 DUP15 DUP3 DUP16 ADD PUSH2 0x579C JUMP JUMPDEST SWAP9 POP POP PUSH1 0x80 PUSH2 0x58C7 DUP15 DUP3 DUP16 ADD PUSH2 0x4942 JUMP JUMPDEST SWAP8 POP POP PUSH1 0xA0 PUSH2 0x58D8 DUP15 DUP3 DUP16 ADD PUSH2 0x57CA JUMP JUMPDEST SWAP7 POP POP PUSH1 0xC0 PUSH2 0x58E9 DUP15 DUP3 DUP16 ADD PUSH2 0x57CA JUMP JUMPDEST SWAP6 POP POP PUSH1 0xE0 DUP13 ADD MLOAD PUSH8 0xFFFFFFFFFFFFFFFF DUP2 GT ISZERO PUSH2 0x590A JUMPI PUSH2 0x5909 PUSH2 0x3E24 JUMP JUMPDEST JUMPDEST PUSH2 0x5916 DUP15 DUP3 DUP16 ADD PUSH2 0x579C JUMP JUMPDEST SWAP5 POP POP PUSH2 0x100 DUP13 ADD MLOAD PUSH8 0xFFFFFFFFFFFFFFFF DUP2 GT ISZERO PUSH2 0x5938 JUMPI PUSH2 0x5937 PUSH2 0x3E24 JUMP JUMPDEST JUMPDEST PUSH2 0x5944 DUP15 DUP3 DUP16 ADD PUSH2 0x579C JUMP JUMPDEST SWAP4 POP POP PUSH2 0x120 PUSH2 0x5956 DUP15 DUP3 DUP16 ADD PUSH2 0x57CA JUMP JUMPDEST SWAP3 POP POP PUSH2 0x140 PUSH2 0x5968 DUP15 DUP3 DUP16 ADD PUSH2 0x57CA JUMP JUMPDEST SWAP2 POP POP SWAP3 SWAP6 SWAP9 SWAP12 POP SWAP3 SWAP6 SWAP9 SWAP12 SWAP1 SWAP4 SWAP7 SWAP10 POP JUMP JUMPDEST PUSH32 0x4F6E6C79204E4654732066726F6D20636F6C6C656374696F6E20494420312063 PUSH1 0x0 DUP3 ADD MSTORE PUSH32 0x616E206265207573656420617320666C61677300000000000000000000000000 PUSH1 0x20 DUP3 ADD MSTORE POP JUMP JUMPDEST PUSH1 0x0 PUSH2 0x59D7 PUSH1 0x33 DUP4 PUSH2 0x4171 JUMP JUMPDEST SWAP2 POP PUSH2 0x59E2 DUP3 PUSH2 0x597B JUMP JUMPDEST PUSH1 0x40 DUP3 ADD SWAP1 POP SWAP2 SWAP1 POP JUMP JUMPDEST PUSH1 0x0 PUSH1 0x20 DUP3 ADD SWAP1 POP DUP2 DUP2 SUB PUSH1 0x0 DUP4 ADD MSTORE PUSH2 0x5A06 DUP2 PUSH2 0x59CA JUMP JUMPDEST SWAP1 POP SWAP2 SWAP1 POP JUMP JUMPDEST PUSH32 0x596F7520617265206E6F7420696E206120636C616E0000000000000000000000 PUSH1 0x0 DUP3 ADD MSTORE POP JUMP JUMPDEST PUSH1 0x0 PUSH2 0x5A43 PUSH1 0x15 DUP4 PUSH2 0x4171 JUMP JUMPDEST SWAP2 POP PUSH2 0x5A4E DUP3 PUSH2 0x5A0D JUMP JUMPDEST PUSH1 0x20 DUP3 ADD SWAP1 POP SWAP2 SWAP1 POP JUMP JUMPDEST PUSH1 0x0 PUSH1 0x20 DUP3 ADD SWAP1 POP DUP2 DUP2 SUB PUSH1 0x0 DUP4 ADD MSTORE PUSH2 0x5A72 DUP2 PUSH2 0x5A36 JUMP JUMPDEST SWAP1 POP SWAP2 SWAP1 POP JUMP JUMPDEST PUSH32 0x436C616E206C65616465722063616E6E6F74206C656176652074686520636C61 PUSH1 0x0 DUP3 ADD MSTORE PUSH32 0x6E2E205573652064697362616E64436C616E20696E73746561642E0000000000 PUSH1 0x20 DUP3 ADD MSTORE POP JUMP JUMPDEST PUSH1 0x0 PUSH2 0x5AD5 PUSH1 0x3B DUP4 PUSH2 0x4171 JUMP JUMPDEST SWAP2 POP PUSH2 0x5AE0 DUP3 PUSH2 0x5A79 JUMP JUMPDEST PUSH1 0x40 DUP3 ADD SWAP1 POP SWAP2 SWAP1 POP JUMP JUMPDEST PUSH1 0x0 PUSH1 0x20 DUP3 ADD SWAP1 POP DUP2 DUP2 SUB PUSH1 0x0 DUP4 ADD MSTORE PUSH2 0x5B04 DUP2 PUSH2 0x5AC8 JUMP JUMPDEST SWAP1 POP SWAP2 SWAP1 POP JUMP JUMPDEST PUSH1 0x0 PUSH2 0x5B16 DUP3 PUSH2 0x3E29 JUMP JUMPDEST SWAP2 POP PUSH1 0x0 DUP3 SUB PUSH2 0x5B29 JUMPI PUSH2 0x5B28 PUSH2 0x50DC JUMP JUMPDEST JUMPDEST PUSH1 0x1 DUP3 SUB SWAP1 POP SWAP2 SWAP1 POP JUMP JUMPDEST PUSH1 0x0 PUSH2 0x5B3F DUP3 PUSH2 0x4336 JUMP JUMPDEST SWAP2 POP PUSH2 0x5B4A DUP4 PUSH2 0x4336 JUMP JUMPDEST SWAP3 POP DUP3 DUP3 SUB SWAP1 POP DUP2 DUP2 GT ISZERO PUSH2 0x5B62 JUMPI PUSH2 0x5B61 PUSH2 0x50DC JUMP JUMPDEST JUMPDEST SWAP3 SWAP2 POP POP JUMP JUMPDEST PUSH32 0x4E487B7100000000000000000000000000000000000000000000000000000000 PUSH1 0x0 MSTORE PUSH1 0x31 PUSH1 0x4 MSTORE PUSH1 0x24 PUSH1 0x0 REVERT JUMPDEST PUSH32 0x4E6F2070656E64696E6720696E7669746520666F756E64000000000000000000 PUSH1 0x0 DUP3 ADD MSTORE POP JUMP JUMPDEST PUSH1 0x0 PUSH2 0x5BCD PUSH1 0x17 DUP4 PUSH2 0x4171 JUMP JUMPDEST SWAP2 POP PUSH2 0x5BD8 DUP3 PUSH2 0x5B97 JUMP JUMPDEST PUSH1 0x20 DUP3 ADD SWAP1 POP SWAP2 SWAP1 POP JUMP JUMPDEST PUSH1 0x0 PUSH1 0x20 DUP3 ADD SWAP1 POP DUP2 DUP2 SUB PUSH1 0x0 DUP4 ADD MSTORE PUSH2 0x5BFC DUP2 PUSH2 0x5BC0 JUMP JUMPDEST SWAP1 POP SWAP2 SWAP1 POP JUMP JUMPDEST PUSH32 0x4D656D626572206973206E6F7420696E207468697320636C616E000000000000 PUSH1 0x0 DUP3 ADD MSTORE POP JUMP JUMPDEST PUSH1 0x0 PUSH2 0x5C39 PUSH1 0x1A DUP4 PUSH2 0x4171 JUMP JUMPDEST SWAP2 POP PUSH2 0x5C44 DUP3 PUSH2 0x5C03 JUMP JUMPDEST PUSH1 0x20 DUP3 ADD SWAP1 POP SWAP2 SWAP1 POP JUMP JUMPDEST PUSH1 0x0 PUSH1 0x20 DUP3 ADD SWAP1 POP DUP2 DUP2 SUB PUSH1 0x0 DUP4 ADD MSTORE PUSH2 0x5C68 DUP2 PUSH2 0x5C2C JUMP JUMPDEST SWAP1 POP SWAP2 SWAP1 POP JUMP JUMPDEST PUSH1 0x0 PUSH8 0xFFFFFFFFFFFFFFFF DUP3 GT ISZERO PUSH2 0x5C8A JUMPI PUSH2 0x5C89 PUSH2 0x4B1D JUMP JUMPDEST JUMPDEST PUSH1 0x20 DUP3 MUL SWAP1 POP SWAP2 SWAP1 POP JUMP JUMPDEST PUSH1 0x0 DUP2 MLOAD SWAP1 POP PUSH2 0x5CA4 DUP2 PUSH2 0x3E36 JUMP JUMPDEST SWAP3 SWAP2 POP POP JUMP JUMPDEST PUSH1 0x0 PUSH2 0x5CBD PUSH2 0x5CB8 DUP5 PUSH2 0x5C6F JUMP JUMPDEST PUSH2 0x570E JUMP JUMPDEST SWAP1 POP DUP1 PUSH1 0x20 DUP5 MUL DUP4 ADD DUP6 DUP2 GT ISZERO PUSH2 0x5CD7 JUMPI PUSH2 0x5CD6 PUSH2 0x3FAB JUMP JUMPDEST JUMPDEST DUP4 JUMPDEST DUP2 DUP2 LT ISZERO PUSH2 0x5D00 JUMPI DUP1 PUSH2 0x5CEC DUP9 DUP3 PUSH2 0x5C95 JUMP JUMPDEST DUP5 MSTORE PUSH1 0x20 DUP5 ADD SWAP4 POP POP PUSH1 0x20 DUP2 ADD SWAP1 POP PUSH2 0x5CD9 JUMP JUMPDEST POP POP POP SWAP4 SWAP3 POP POP POP JUMP JUMPDEST PUSH1 0x0 DUP3 PUSH1 0x1F DUP4 ADD SLT PUSH2 0x5D1F JUMPI PUSH2 0x5D1E PUSH2 0x3FA1 JUMP JUMPDEST JUMPDEST PUSH1 0x2 PUSH2 0x5D2C DUP5 DUP3 DUP6 PUSH2 0x5CAA JUMP JUMPDEST SWAP2 POP POP SWAP3 SWAP2 POP POP JUMP JUMPDEST PUSH1 0x0 PUSH1 0x40 DUP3 DUP5 SUB SLT ISZERO PUSH2 0x5D4B JUMPI PUSH2 0x5D4A PUSH2 0x3E1F JUMP JUMPDEST JUMPDEST PUSH1 0x0 PUSH2 0x5D59 DUP5 DUP3 DUP6 ADD PUSH2 0x5D0A JUMP JUMPDEST SWAP2 POP POP SWAP3 SWAP2 POP POP JUMP INVALID LOG2 PUSH5 0x6970667358 0x22 SLT KECCAK256 0xF8 PUSH30 0xA2244778A14C4FCBEDB7B7E3ACA2CF0AB165740464A14B84397070A53803 PUSH5 0x736F6C6343 STOP ADDMOD SLT STOP CALLER "
		},
		"gasEstimates": {
			"creation": {
				"codeDepositCost": "4792000",
				"executionCost": "infinite",
				"totalCost": "infinite"
			},
			"external": {
				"CLAN_CREATION_COST()": "397",
				"CLAN_FLAG_COST()": "462",
				"MAX_MEMBERS()": "423",
				"TILE_NAMING_COST()": "440",
				"acceptInvite()": "infinite",
				"bonuses(uint256,uint256)": "infinite",
				"clanFlags(uint8)": "2881",
				"clanMembers(uint8,uint256)": "5250",
				"clans(uint8)": "infinite",
				"createClan(string)": "infinite",
				"disbandClan(uint8)": "infinite",
				"getAllClans()": "infinite",
				"getAllTilesWithClans()": "infinite",
				"getBonus(uint8,uint8)": "infinite",
				"getClanInfo(uint8)": "infinite",
				"getClanMemberCount(uint8)": "infinite",
				"getClanMembers(uint8)": "infinite",
				"getTileClan(uint8,uint8)": "infinite",
				"getTileName(uint8,uint8)": "infinite",
				"getTwitterHandle(address)": "infinite",
				"inviteToClan(uint8,address)": "infinite",
				"leaveClan()": "infinite",
				"lopToken()": "infinite",
				"members(address)": "5265",
				"nameTile(uint8,uint8,string)": "infinite",
				"nftMarket()": "infinite",
				"pendingInvites(address)": "2979",
				"refuseInvite()": "26774",
				"removeMember(uint8,address)": "infinite",
				"setClanFlag(uint8,uint256)": "infinite",
				"setTwitterHandle(string)": "infinite",
				"theLand()": "infinite",
				"tileClans(uint8,uint8)": "infinite",
				"tileMapPhaser()": "infinite",
				"tileNames(uint8,uint8)": "infinite",
				"twitterHandles(address)": "infinite"
			},
			"internal": {
				"getTileCoordinates(address)": "infinite",
				"hasTile(address)": "infinite"
			}
		},
		"methodIdentifiers": {
			"CLAN_CREATION_COST()": "731ae689",
			"CLAN_FLAG_COST()": "65191666",
			"MAX_MEMBERS()": "ea0e35b1",
			"TILE_NAMING_COST()": "62c5813d",
			"acceptInvite()": "bbb4d3e9",
			"bonuses(uint256,uint256)": "bc9955a2",
			"clanFlags(uint8)": "eaa10576",
			"clanMembers(uint8,uint256)": "1db8d500",
			"clans(uint8)": "d4ceeec0",
			"createClan(string)": "14cebc71",
			"disbandClan(uint8)": "bde7ef82",
			"getAllClans()": "9b21d6eb",
			"getAllTilesWithClans()": "2dec2e63",
			"getBonus(uint8,uint8)": "2a2026a9",
			"getClanInfo(uint8)": "2fad0429",
			"getClanMemberCount(uint8)": "9d995717",
			"getClanMembers(uint8)": "0636fcb2",
			"getTileClan(uint8,uint8)": "7ab9e7fe",
			"getTileName(uint8,uint8)": "09e59cec",
			"getTwitterHandle(address)": "f15ad264",
			"inviteToClan(uint8,address)": "69274803",
			"leaveClan()": "aae1aa37",
			"lopToken()": "0d67f59e",
			"members(address)": "08ae4b0c",
			"nameTile(uint8,uint8,string)": "0821de3e",
			"nftMarket()": "196ab1ab",
			"pendingInvites(address)": "1d0373ad",
			"refuseInvite()": "86722228",
			"removeMember(uint8,address)": "c2024ede",
			"setClanFlag(uint8,uint256)": "9adff8d0",
			"setTwitterHandle(string)": "2f57741c",
			"theLand()": "b0d77774",
			"tileClans(uint8,uint8)": "58612a20",
			"tileMapPhaser()": "4f264b03",
			"tileNames(uint8,uint8)": "7b0c98ef",
			"twitterHandles(address)": "13a5cede"
		}
	},
	"abi": [
		{
			"inputs": [
				{
					"internalType": "address",
					"name": "_tileMapPhaser",
					"type": "address"
				},
				{
					"internalType": "address",
					"name": "_lopToken",
					"type": "address"
				},
				{
					"internalType": "address",
					"name": "_nftMarket",
					"type": "address"
				},
				{
					"internalType": "address",
					"name": "_theLand",
					"type": "address"
				}
			],
			"stateMutability": "nonpayable",
			"type": "constructor"
		},
		{
			"anonymous": false,
			"inputs": [
				{
					"indexed": false,
					"internalType": "uint8",
					"name": "clanId",
					"type": "uint8"
				},
				{
					"indexed": false,
					"internalType": "string",
					"name": "name",
					"type": "string"
				},
				{
					"indexed": false,
					"internalType": "address",
					"name": "leader",
					"type": "address"
				}
			],
			"name": "ClanCreated",
			"type": "event"
		},
		{
			"anonymous": false,
			"inputs": [
				{
					"indexed": false,
					"internalType": "uint8",
					"name": "clanId",
					"type": "uint8"
				},
				{
					"indexed": false,
					"internalType": "address",
					"name": "leader",
					"type": "address"
				}
			],
			"name": "ClanDisbanded",
			"type": "event"
		},
		{
			"anonymous": false,
			"inputs": [
				{
					"indexed": false,
					"internalType": "uint8",
					"name": "clanId",
					"type": "uint8"
				},
				{
					"indexed": false,
					"internalType": "address",
					"name": "invitedPlayer",
					"type": "address"
				}
			],
			"name": "ClanInvited",
			"type": "event"
		},
		{
			"anonymous": false,
			"inputs": [
				{
					"indexed": false,
					"internalType": "uint8",
					"name": "clanId",
					"type": "uint8"
				},
				{
					"indexed": false,
					"internalType": "address",
					"name": "member",
					"type": "address"
				}
			],
			"name": "ClanJoined",
			"type": "event"
		},
		{
			"anonymous": false,
			"inputs": [
				{
					"indexed": false,
					"internalType": "uint8",
					"name": "clanId",
					"type": "uint8"
				},
				{
					"indexed": false,
					"internalType": "address",
					"name": "member",
					"type": "address"
				}
			],
			"name": "MemberRemoved",
			"type": "event"
		},
		{
			"anonymous": false,
			"inputs": [
				{
					"indexed": false,
					"internalType": "uint8",
					"name": "x",
					"type": "uint8"
				},
				{
					"indexed": false,
					"internalType": "uint8",
					"name": "y",
					"type": "uint8"
				},
				{
					"indexed": true,
					"internalType": "address",
					"name": "owner",
					"type": "address"
				},
				{
					"indexed": false,
					"internalType": "string",
					"name": "name",
					"type": "string"
				}
			],
			"name": "TileNamed",
			"type": "event"
		},
		{
			"inputs": [],
			"name": "CLAN_CREATION_COST",
			"outputs": [
				{
					"internalType": "uint256",
					"name": "",
					"type": "uint256"
				}
			],
			"stateMutability": "view",
			"type": "function"
		},
		{
			"inputs": [],
			"name": "CLAN_FLAG_COST",
			"outputs": [
				{
					"internalType": "uint256",
					"name": "",
					"type": "uint256"
				}
			],
			"stateMutability": "view",
			"type": "function"
		},
		{
			"inputs": [],
			"name": "MAX_MEMBERS",
			"outputs": [
				{
					"internalType": "uint8",
					"name": "",
					"type": "uint8"
				}
			],
			"stateMutability": "view",
			"type": "function"
		},
		{
			"inputs": [],
			"name": "TILE_NAMING_COST",
			"outputs": [
				{
					"internalType": "uint256",
					"name": "",
					"type": "uint256"
				}
			],
			"stateMutability": "view",
			"type": "function"
		},
		{
			"inputs": [],
			"name": "acceptInvite",
			"outputs": [],
			"stateMutability": "nonpayable",
			"type": "function"
		},
		{
			"inputs": [
				{
					"internalType": "uint256",
					"name": "",
					"type": "uint256"
				},
				{
					"internalType": "uint256",
					"name": "",
					"type": "uint256"
				}
			],
			"name": "bonuses",
			"outputs": [
				{
					"internalType": "uint8",
					"name": "",
					"type": "uint8"
				}
			],
			"stateMutability": "view",
			"type": "function"
		},
		{
			"inputs": [
				{
					"internalType": "uint8",
					"name": "",
					"type": "uint8"
				}
			],
			"name": "clanFlags",
			"outputs": [
				{
					"internalType": "uint256",
					"name": "",
					"type": "uint256"
				}
			],
			"stateMutability": "view",
			"type": "function"
		},
		{
			"inputs": [
				{
					"internalType": "uint8",
					"name": "",
					"type": "uint8"
				},
				{
					"internalType": "uint256",
					"name": "",
					"type": "uint256"
				}
			],
			"name": "clanMembers",
			"outputs": [
				{
					"internalType": "address",
					"name": "",
					"type": "address"
				}
			],
			"stateMutability": "view",
			"type": "function"
		},
		{
			"inputs": [
				{
					"internalType": "uint8",
					"name": "",
					"type": "uint8"
				}
			],
			"name": "clans",
			"outputs": [
				{
					"internalType": "string",
					"name": "name",
					"type": "string"
				},
				{
					"internalType": "address",
					"name": "leader",
					"type": "address"
				},
				{
					"internalType": "uint8",
					"name": "memberCount",
					"type": "uint8"
				},
				{
					"internalType": "bool",
					"name": "exists",
					"type": "bool"
				}
			],
			"stateMutability": "view",
			"type": "function"
		},
		{
			"inputs": [
				{
					"internalType": "string",
					"name": "name",
					"type": "string"
				}
			],
			"name": "createClan",
			"outputs": [],
			"stateMutability": "nonpayable",
			"type": "function"
		},
		{
			"inputs": [
				{
					"internalType": "uint8",
					"name": "clanId",
					"type": "uint8"
				}
			],
			"name": "disbandClan",
			"outputs": [],
			"stateMutability": "nonpayable",
			"type": "function"
		},
		{
			"inputs": [],
			"name": "getAllClans",
			"outputs": [
				{
					"components": [
						{
							"internalType": "string",
							"name": "name",
							"type": "string"
						},
						{
							"internalType": "address",
							"name": "leader",
							"type": "address"
						},
						{
							"internalType": "uint8",
							"name": "memberCount",
							"type": "uint8"
						},
						{
							"internalType": "bool",
							"name": "exists",
							"type": "bool"
						}
					],
					"internalType": "struct Clan.ClanInfo[]",
					"name": "",
					"type": "tuple[]"
				}
			],
			"stateMutability": "view",
			"type": "function"
		},
		{
			"inputs": [],
			"name": "getAllTilesWithClans",
			"outputs": [
				{
					"components": [
						{
							"internalType": "uint8",
							"name": "x",
							"type": "uint8"
						},
						{
							"internalType": "uint8",
							"name": "y",
							"type": "uint8"
						},
						{
							"internalType": "uint8",
							"name": "clanId",
							"type": "uint8"
						},
						{
							"internalType": "uint256",
							"name": "flagTokenId",
							"type": "uint256"
						}
					],
					"internalType": "struct Clan.TileClanInfo[]",
					"name": "",
					"type": "tuple[]"
				}
			],
			"stateMutability": "view",
			"type": "function"
		},
		{
			"inputs": [
				{
					"internalType": "uint8",
					"name": "x",
					"type": "uint8"
				},
				{
					"internalType": "uint8",
					"name": "y",
					"type": "uint8"
				}
			],
			"name": "getBonus",
			"outputs": [
				{
					"internalType": "uint8",
					"name": "",
					"type": "uint8"
				}
			],
			"stateMutability": "view",
			"type": "function"
		},
		{
			"inputs": [
				{
					"internalType": "uint8",
					"name": "clanId",
					"type": "uint8"
				}
			],
			"name": "getClanInfo",
			"outputs": [
				{
					"components": [
						{
							"internalType": "string",
							"name": "name",
							"type": "string"
						},
						{
							"internalType": "address",
							"name": "leader",
							"type": "address"
						},
						{
							"internalType": "uint8",
							"name": "memberCount",
							"type": "uint8"
						},
						{
							"internalType": "bool",
							"name": "exists",
							"type": "bool"
						}
					],
					"internalType": "struct Clan.ClanInfo",
					"name": "",
					"type": "tuple"
				}
			],
			"stateMutability": "view",
			"type": "function"
		},
		{
			"inputs": [
				{
					"internalType": "uint8",
					"name": "clanId",
					"type": "uint8"
				}
			],
			"name": "getClanMemberCount",
			"outputs": [
				{
					"internalType": "uint8",
					"name": "",
					"type": "uint8"
				}
			],
			"stateMutability": "view",
			"type": "function"
		},
		{
			"inputs": [
				{
					"internalType": "uint8",
					"name": "clanId",
					"type": "uint8"
				}
			],
			"name": "getClanMembers",
			"outputs": [
				{
					"internalType": "address[]",
					"name": "",
					"type": "address[]"
				}
			],
			"stateMutability": "view",
			"type": "function"
		},
		{
			"inputs": [
				{
					"internalType": "uint8",
					"name": "x",
					"type": "uint8"
				},
				{
					"internalType": "uint8",
					"name": "y",
					"type": "uint8"
				}
			],
			"name": "getTileClan",
			"outputs": [
				{
					"internalType": "uint8",
					"name": "",
					"type": "uint8"
				}
			],
			"stateMutability": "view",
			"type": "function"
		},
		{
			"inputs": [
				{
					"internalType": "uint8",
					"name": "x",
					"type": "uint8"
				},
				{
					"internalType": "uint8",
					"name": "y",
					"type": "uint8"
				}
			],
			"name": "getTileName",
			"outputs": [
				{
					"internalType": "string",
					"name": "",
					"type": "string"
				}
			],
			"stateMutability": "view",
			"type": "function"
		},
		{
			"inputs": [
				{
					"internalType": "address",
					"name": "user",
					"type": "address"
				}
			],
			"name": "getTwitterHandle",
			"outputs": [
				{
					"internalType": "string",
					"name": "",
					"type": "string"
				}
			],
			"stateMutability": "view",
			"type": "function"
		},
		{
			"inputs": [
				{
					"internalType": "uint8",
					"name": "clanId",
					"type": "uint8"
				},
				{
					"internalType": "address",
					"name": "player",
					"type": "address"
				}
			],
			"name": "inviteToClan",
			"outputs": [],
			"stateMutability": "nonpayable",
			"type": "function"
		},
		{
			"inputs": [],
			"name": "leaveClan",
			"outputs": [],
			"stateMutability": "nonpayable",
			"type": "function"
		},
		{
			"inputs": [],
			"name": "lopToken",
			"outputs": [
				{
					"internalType": "contract IHarmLop",
					"name": "",
					"type": "address"
				}
			],
			"stateMutability": "view",
			"type": "function"
		},
		{
			"inputs": [
				{
					"internalType": "address",
					"name": "",
					"type": "address"
				}
			],
			"name": "members",
			"outputs": [
				{
					"internalType": "uint8",
					"name": "clanId",
					"type": "uint8"
				},
				{
					"internalType": "bool",
					"name": "isMember",
					"type": "bool"
				}
			],
			"stateMutability": "view",
			"type": "function"
		},
		{
			"inputs": [
				{
					"internalType": "uint8",
					"name": "x",
					"type": "uint8"
				},
				{
					"internalType": "uint8",
					"name": "y",
					"type": "uint8"
				},
				{
					"internalType": "string",
					"name": "newName",
					"type": "string"
				}
			],
			"name": "nameTile",
			"outputs": [],
			"stateMutability": "nonpayable",
			"type": "function"
		},
		{
			"inputs": [],
			"name": "nftMarket",
			"outputs": [
				{
					"internalType": "contract IMyNFTMarket",
					"name": "",
					"type": "address"
				}
			],
			"stateMutability": "view",
			"type": "function"
		},
		{
			"inputs": [
				{
					"internalType": "address",
					"name": "",
					"type": "address"
				}
			],
			"name": "pendingInvites",
			"outputs": [
				{
					"internalType": "uint8",
					"name": "",
					"type": "uint8"
				}
			],
			"stateMutability": "view",
			"type": "function"
		},
		{
			"inputs": [],
			"name": "refuseInvite",
			"outputs": [],
			"stateMutability": "nonpayable",
			"type": "function"
		},
		{
			"inputs": [
				{
					"internalType": "uint8",
					"name": "clanId",
					"type": "uint8"
				},
				{
					"internalType": "address",
					"name": "member",
					"type": "address"
				}
			],
			"name": "removeMember",
			"outputs": [],
			"stateMutability": "nonpayable",
			"type": "function"
		},
		{
			"inputs": [
				{
					"internalType": "uint8",
					"name": "clanId",
					"type": "uint8"
				},
				{
					"internalType": "uint256",
					"name": "tokenId",
					"type": "uint256"
				}
			],
			"name": "setClanFlag",
			"outputs": [],
			"stateMutability": "nonpayable",
			"type": "function"
		},
		{
			"inputs": [
				{
					"internalType": "string",
					"name": "handle",
					"type": "string"
				}
			],
			"name": "setTwitterHandle",
			"outputs": [],
			"stateMutability": "nonpayable",
			"type": "function"
		},
		{
			"inputs": [],
			"name": "theLand",
			"outputs": [
				{
					"internalType": "contract ITheLand",
					"name": "",
					"type": "address"
				}
			],
			"stateMutability": "view",
			"type": "function"
		},
		{
			"inputs": [
				{
					"internalType": "uint8",
					"name": "",
					"type": "uint8"
				},
				{
					"internalType": "uint8",
					"name": "",
					"type": "uint8"
				}
			],
			"name": "tileClans",
			"outputs": [
				{
					"internalType": "uint8",
					"name": "",
					"type": "uint8"
				}
			],
			"stateMutability": "view",
			"type": "function"
		},
		{
			"inputs": [],
			"name": "tileMapPhaser",
			"outputs": [
				{
					"internalType": "contract ITileMapPhaser",
					"name": "",
					"type": "address"
				}
			],
			"stateMutability": "view",
			"type": "function"
		},
		{
			"inputs": [
				{
					"internalType": "uint8",
					"name": "",
					"type": "uint8"
				},
				{
					"internalType": "uint8",
					"name": "",
					"type": "uint8"
				}
			],
			"name": "tileNames",
			"outputs": [
				{
					"internalType": "string",
					"name": "",
					"type": "string"
				}
			],
			"stateMutability": "view",
			"type": "function"
		},
		{
			"inputs": [
				{
					"internalType": "address",
					"name": "",
					"type": "address"
				}
			],
			"name": "twitterHandles",
			"outputs": [
				{
					"internalType": "string",
					"name": "",
					"type": "string"
				}
			],
			"stateMutability": "view",
			"type": "function"
		}
	]
}