{
	"data": {
		"bytecode": {
			"linkReferences": {},
			"object": "6080604052604051806102800160405280604051806102800160405280600460ff168152602001600460ff168152602001600460ff168152602001600460ff168152602001600460ff168152602001600460ff168152602001600360ff168152602001600360ff168152602001600360ff168152602001600360ff168152602001600360ff168152602001600360ff168152602001600260ff168152602001600260ff168152602001600160ff168152602001600260ff168152602001600260ff168152602001600260ff168152602001600260ff168152602001600260ff168152508152602001604051806102800160405280600460ff168152602001600460ff168152602001600460ff168152602001600460ff168152602001600460ff168152602001600460ff168152602001600460ff168152602001600360ff168152602001600360ff168152602001600360ff168152602001600360ff168152602001600360ff168152602001600260ff168152602001600160ff168152602001600160ff168152602001600260ff168152602001600260ff168152602001600260ff168152602001600260ff168152602001600260ff168152508152602001604051806102800160405280600460ff168152602001600460ff168152602001600460ff168152602001600460ff168152602001600460ff168152602001600460ff168152602001600460ff168152602001600460ff168152602001600360ff168152602001600360ff168152602001600360ff168152602001600360ff168152602001600260ff168152602001600260ff168152602001600160ff168152602001600160ff168152602001600260ff168152602001600260ff168152602001600260ff168152602001600260ff168152508152602001604051806102800160405280600460ff168152602001600460ff168152602001600460ff168152602001600460ff168152602001600460ff168152602001600460ff168152602001600460ff168152602001600460ff168152602001600360ff168152602001600360ff168152602001600360ff168152602001600360ff168152602001600360ff168152602001600160ff168152602001600160ff168152602001600160ff168152602001600260ff168152602001600260ff168152602001600260ff168152602001600260ff168152508152602001604051806102800160405280600360ff168152602001600360ff168152602001600360ff168152602001600360ff168152602001600360ff168152602001600360ff168152602001600360ff168152602001600360ff168152602001600360ff168152602001600360ff168152602001600360ff168152602001600360ff168152602001600160ff168152602001600160ff168152602001600160ff168152602001600160ff168152602001600260ff168152602001600260ff168152602001600260ff168152602001600260ff168152508152602001604051806102800160405280600360ff168152602001600360ff168152602001600360ff168152602001600360ff168152602001600360ff168152602001600360ff168152602001600360ff168152602001600360ff168152602001600360ff168152602001600360ff168152602001600360ff168152602001600360ff168152602001600160ff168152602001600160ff168152602001600160ff168152602001600160ff168152602001600260ff168152602001600260ff168152602001600260ff168152602001600260ff168152508152602001604051806102800160405280600360ff168152602001600360ff168152602001600360ff168152602001600360ff168152602001600360ff168152602001600360ff168152602001600360ff168152602001600360ff168152602001600360ff168152602001600360ff168152602001600360ff168152602001600360ff168152602001600160ff168152602001600160ff168152602001600160ff168152602001600160ff168152602001600160ff168152602001600160ff168152602001600160ff168152602001600160ff168152508152602001604051806102800160405280600360ff168152602001600360ff168152602001600360ff168152602001600160ff168152602001600360ff168152602001600360ff168152602001600360ff168152602001600360ff168152602001600360ff168152602001600360ff168152602001600360ff168152602001600160ff168152602001600260ff168152602001600260ff168152602001600260ff168152602001600260ff168152602001600160ff168152602001600160ff168152602001600160ff168152602001600160ff168152508152602001604051806102800160405280600360ff168152602001600360ff168152602001600360ff168152602001600160ff168152602001600160ff168152602001600260ff168152602001600260ff168152602001600260ff168152602001600260ff168152602001600260ff168152602001600260ff168152602001600160ff168152602001600260ff168152602001600260ff168152602001600260ff168152602001600260ff168152602001600260ff168152602001600260ff168152602001600260ff168152602001600160ff168152508152602001604051806102800160405280600160ff168152602001600260ff168152602001600260ff168152602001600160ff168152602001600260ff168152602001600260ff168152602001600260ff168152602001600260ff168152602001600260ff168152602001600260ff168152602001600260ff168152602001600160ff168152602001600260ff168152602001600260ff168152602001600260ff168152602001600260ff168152602001600260ff168152602001600260ff168152602001600260ff168152602001600160ff168152508152602001604051806102800160405280600260ff168152602001600260ff168152602001600160ff168152602001600160ff168152602001600260ff168152602001600260ff168152602001600260ff168152602001600260ff168152602001600260ff168152602001600260ff168152602001600160ff168152602001600160ff168152602001600260ff168152602001600260ff168152602001600260ff168152602001600260ff168152602001600260ff168152602001600260ff168152602001600160ff168152602001600160ff168152508152602001604051806102800160405280600360ff168152602001600360ff168152602001600360ff168152602001600260ff168152602001600160ff168152602001600260ff168152602001600260ff168152602001600260ff168152602001600260ff168152602001600260ff168152602001600160ff168152602001600260ff168152602001600260ff168152602001600260ff168152602001600260ff168152602001600160ff168152602001600160ff168152602001600160ff168152602001600160ff168152602001600160ff168152508152602001604051806102800160405280600360ff168152602001600360ff168152602001600360ff168152602001600360ff168152602001600160ff168152602001600160ff168152602001600260ff168152602001600260ff168152602001600260ff168152602001600260ff168152602001600160ff168152602001600160ff168152602001600260ff168152602001600260ff168152602001600260ff168152602001600160ff168152602001600160ff168152602001600160ff168152602001600160ff168152602001600160ff168152508152602001604051806102800160405280600360ff168152602001600360ff168152602001600360ff168152602001600360ff168152602001600360ff168152602001600160ff168152602001600260ff168152602001600260ff168152602001600260ff168152602001600260ff168152602001600160ff168152602001600160ff168152602001600160ff168152602001600260ff168152602001600260ff168152602001600260ff168152602001600260ff168152602001600160ff168152602001600160ff168152602001600160ff168152508152602001604051806102800160405280600360ff168152602001600360ff168152602001600360ff168152602001600360ff168152602001600360ff168152602001600260ff168152602001600260ff168152602001600260ff168152602001600360ff168152602001600360ff168152602001600260ff168152602001600260ff168152602001600160ff168152602001600260ff168152602001600260ff168152602001600260ff168152602001600260ff168152602001600160ff168152602001600160ff168152602001600160ff168152508152602001604051806102800160405280600260ff168152602001600260ff168152602001600260ff168152602001600160ff168152602001600160ff168152602001600160ff168152602001600160ff168152602001600160ff168152602001600360ff168152602001600360ff168152602001600360ff168152602001600360ff168152602001600160ff168152602001600160ff168152602001600260ff168152602001600260ff168152602001600260ff168152602001600160ff168152602001600160ff168152602001600160ff168152508152602001604051806102800160405280600260ff168152602001600260ff168152602001600260ff168152602001600260ff168152602001600260ff168152602001600260ff168152602001600160ff168152602001600160ff168152602001600360ff168152602001600360ff168152602001600360ff168152602001600360ff168152602001600160ff168152602001600160ff168152602001600160ff168152602001600160ff168152602001600360ff168152602001600360ff168152602001600260ff168152602001600260ff168152508152602001604051806102800160405280600260ff168152602001600260ff168152602001600260ff168152602001600260ff168152602001600260ff168152602001600260ff168152602001600260ff168152602001600160ff168152602001600360ff168152602001600360ff168152602001600360ff168152602001600360ff168152602001600160ff168152602001600160ff168152602001600160ff168152602001600160ff168152602001600360ff168152602001600360ff168152602001600260ff168152602001600260ff168152508152602001604051806102800160405280600260ff168152602001600260ff168152602001600260ff168152602001600260ff168152602001600260ff168152602001600260ff168152602001600260ff168152602001600160ff168152602001600160ff168152602001600260ff168152602001600260ff168152602001600160ff168152602001600160ff168152602001600260ff168152602001600260ff168152602001600160ff168152602001600360ff168152602001600360ff168152602001600260ff168152602001600260ff168152508152602001604051806102800160405280600260ff168152602001600260ff168152602001600260ff168152602001600260ff168152602001600260ff168152602001600260ff168152602001600260ff168152602001600160ff168152602001600160ff168152602001600160ff168152602001600160ff168152602001600160ff168152602001600160ff168152602001600160ff168152602001600160ff168152602001600360ff168152602001600360ff168152602001600360ff168152602001600260ff168152602001600260ff168152508152506104b6906014620010ed929190620011f4565b50348015620010fb57600080fd5b5060405162005555380380620055558339818101604052810190620011219190620013a2565b600160008190555033600160006101000a81548173ffffffffffffffffffffffffffffffffffffffff021916908373ffffffffffffffffffffffffffffffffffffffff16021790555081600360006101000a81548173ffffffffffffffffffffffffffffffffffffffff021916908373ffffffffffffffffffffffffffffffffffffffff16021790555080600560006101000a81548173ffffffffffffffffffffffffffffffffffffffff021916908373ffffffffffffffffffffffffffffffffffffffff1602179055505050620013e9565b826014810192821562001236579160200282015b8281111562001235578251829060146200122492919062001249565b509160200191906001019062001208565b5b509050620012459190620012ea565b5090565b826014601f01602090048101928215620012d75791602002820160005b83821115620012a657835183826101000a81548160ff021916908360ff160217905550926020019260010160208160000104928301926001030262001266565b8015620012d55782816101000a81549060ff0219169055600101602081600001049283019260010302620012a6565b505b509050620012e6919062001312565b5090565b5b808211156200130e576000818162001304919062001331565b50600101620012eb565b5090565b5b808211156200132d57600081600090555060010162001313565b5090565b5060009055565b600080fd5b600073ffffffffffffffffffffffffffffffffffffffff82169050919050565b60006200136a826200133d565b9050919050565b6200137c816200135d565b81146200138857600080fd5b50565b6000815190506200139c8162001371565b92915050565b60008060408385031215620013bc57620013bb62001338565b5b6000620013cc858286016200138b565b9250506020620013df858286016200138b565b9150509250929050565b61415c80620013f96000396000f3fe608060405234801561001057600080fd5b50600436106101735760003560e01c8063503d4c8d116100de578063bc4462de11610097578063d0ebdbe711610071578063d0ebdbe71461048f578063d21cacdf146104ab578063d855e7e1146104db578063db3543f5146104f757610173565b8063bc4462de14610423578063bc9147a414610441578063bc9955a21461045f57610173565b8063503d4c8d1461034857806362cb4694146103525780638a115f0b146103835780638a3d7cdc146103a15780638a888953146103d55780638da5cb5b1461040557610173565b80632ef761d3116101305780632ef761d314610274578063323fd7b714610290578063426ea0d2146102c0578063481c6a75146102de5780634a9fefc7146102fc57806350328bdd1461032c57610173565b80630d67f59e146101785780631a32ebb6146101965780631b64f93d146101b45780632400a3b0146101e45780632672becb146102145780632cfdf9b114610244575b600080fd5b610180610513565b60405161018d9190612f12565b60405180910390f35b61019e610539565b6040516101ab9190612f49565b60405180910390f35b6101ce60048036038101906101c99190612fdd565b61053e565b6040516101db919061302c565b60405180910390f35b6101fe60048036038101906101f99190613047565b61058d565b60405161020b919061311f565b60405180910390f35b61022e60048036038101906102299190613166565b6106cb565b60405161023b91906131c1565b60405180910390f35b61025e60048036038101906102599190613047565b610775565b60405161026b91906131c1565b60405180910390f35b61028e60048036038101906102899190613166565b610796565b005b6102aa60048036038101906102a59190612fdd565b611491565b6040516102b79190612f49565b60405180910390f35b6102c86114cb565b6040516102d591906131eb565b60405180910390f35b6102e66114d4565b6040516102f3919061302c565b60405180910390f35b61031660048036038101906103119190613047565b6114fa565b604051610323919061302c565b60405180910390f35b61034660048036038101906103419190613206565b611564565b005b61035061218c565b005b61036c60048036038101906103679190613047565b612275565b60405161037a929190613317565b60405180910390f35b61038b6123ab565b604051610398919061348f565b60405180910390f35b6103bb60048036038101906103b691906134ab565b612492565b6040516103cc9594939291906134eb565b60405180910390f35b6103ef60048036038101906103ea9190613166565b61251b565b6040516103fc919061302c565b60405180910390f35b61040d6125d8565b60405161041a919061302c565b60405180910390f35b61042b6125fe565b604051610438919061302c565b60405180910390f35b610449612624565b604051610456919061302c565b60405180910390f35b610479600480360381019061047491906134ab565b61264a565b6040516104869190612f49565b60405180910390f35b6104a960048036038101906104a49190613047565b612687565b005b6104c560048036038101906104c09190613047565b6127ed565b6040516104d2919061302c565b60405180910390f35b6104f560048036038101906104f0919061356a565b612821565b005b610511600480360381019061050c9190613047565b612b37565b005b600560009054906101000a900473ffffffffffffffffffffffffffffffffffffffff1681565b601481565b6104cd602052816000526040600020818154811061055b57600080fd5b906000526020600020016000915091509054906101000a900473ffffffffffffffffffffffffffffffffffffffff1681565b610595612cf6565b6104ca60008373ffffffffffffffffffffffffffffffffffffffff1673ffffffffffffffffffffffffffffffffffffffff16815260200190815260200160002060009054906101000a900460ff16610622576040517f08c379a000000000000000000000000000000000000000000000000000000000815260040161061990613654565b60405180910390fd5b6104cb60008373ffffffffffffffffffffffffffffffffffffffff1673ffffffffffffffffffffffffffffffffffffffff1681526020019081526020016000206002806020026040519081016040528092919082600280156106bf576020028201916000905b82829054906101000a900460ff1660ff16815260200190600101906020826000010492830192600103820291508084116106885790505b50505050509050919050565b6000601460ff168360ff161080156106e95750601460ff168260ff16105b610728576040517f08c379a000000000000000000000000000000000000000000000000000000000815260040161071f906136c0565b60405180910390fd5b60068360ff166014811061073f5761073e6136e0565b5b603c02018260ff1660148110610758576107576136e0565b5b6003020160000160009054906101000a900460ff16905092915050565b6104ca6020528060005260406000206000915054906101000a900460ff1681565b61079e612c9d565b601460ff168260ff161080156107ba5750601460ff168160ff16105b6107f9576040517f08c379a00000000000000000000000000000000000000000000000000000000081526004016107f0906136c0565b60405180910390fd5b60068260ff16601481106108105761080f6136e0565b5b603c02018160ff1660148110610829576108286136e0565b5b6003020160000160009054906101000a900460ff1661087d576040517f08c379a00000000000000000000000000000000000000000000000000000000081526004016108749061375b565b60405180910390fd5b60068260ff1660148110610894576108936136e0565b5b603c02018160ff16601481106108ad576108ac6136e0565b5b6003020160000160159054906101000a900460ff16610901576040517f08c379a00000000000000000000000000000000000000000000000000000000081526004016108f8906137c7565b60405180910390fd5b6104ca60003373ffffffffffffffffffffffffffffffffffffffff1673ffffffffffffffffffffffffffffffffffffffff16815260200190815260200160002060009054906101000a900460ff161561098f576040517f08c379a000000000000000000000000000000000000000000000000000000000815260040161098690613833565b60405180910390fd5b600060068360ff16601481106109a8576109a76136e0565b5b603c02018260ff16601481106109c1576109c06136e0565b5b60030201600101549050600060068460ff16601481106109e4576109e36136e0565b5b603c02018360ff16601481106109fd576109fc6136e0565b5b6003020160020154905060008183610a159190613882565b905080600560009054906101000a900473ffffffffffffffffffffffffffffffffffffffff1673ffffffffffffffffffffffffffffffffffffffff166370a08231336040518263ffffffff1660e01b8152600401610a73919061302c565b602060405180830381865afa158015610a90573d6000803e3d6000fd5b505050506040513d601f19601f82011682018060405250810190610ab491906138cb565b1015610af5576040517f08c379a0000000000000000000000000000000000000000000000000000000008152600401610aec9061396a565b60405180910390fd5b600560009054906101000a900473ffffffffffffffffffffffffffffffffffffffff1673ffffffffffffffffffffffffffffffffffffffff166323b872dd3360068860ff1660148110610b4b57610b4a6136e0565b5b603c02018760ff1660148110610b6457610b636136e0565b5b6003020160000160019054906101000a900473ffffffffffffffffffffffffffffffffffffffff16866040518463ffffffff1660e01b8152600401610bab9392919061398a565b6020604051808303816000875af1158015610bca573d6000803e3d6000fd5b505050506040513d601f19601f82011682018060405250810190610bee91906139d6565b610c2d576040517f08c379a0000000000000000000000000000000000000000000000000000000008152600401610c2490613a4f565b60405180910390fd5b600560009054906101000a900473ffffffffffffffffffffffffffffffffffffffff1673ffffffffffffffffffffffffffffffffffffffff166323b872dd3330856040518463ffffffff1660e01b8152600401610c8c9392919061398a565b6020604051808303816000875af1158015610cab573d6000803e3d6000fd5b505050506040513d601f19601f82011682018060405250810190610ccf91906139d6565b610d0e576040517f08c379a0000000000000000000000000000000000000000000000000000000008152600401610d0590613a4f565b60405180910390fd5b600560009054906101000a900473ffffffffffffffffffffffffffffffffffffffff1673ffffffffffffffffffffffffffffffffffffffff166342966c68836040518263ffffffff1660e01b8152600401610d6991906131eb565b6020604051808303816000875af1158015610d88573d6000803e3d6000fd5b505050506040513d601f19601f82011682018060405250810190610dac91906139d6565b610deb576040517f08c379a0000000000000000000000000000000000000000000000000000000008152600401610de290613abb565b60405180910390fd5b600060068660ff1660148110610e0457610e036136e0565b5b603c02018560ff1660148110610e1d57610e1c6136e0565b5b6003020160000160019054906101000a900473ffffffffffffffffffffffffffffffffffffffff1690503360068760ff1660148110610e5f57610e5e6136e0565b5b603c02018660ff1660148110610e7857610e776136e0565b5b6003020160000160016101000a81548173ffffffffffffffffffffffffffffffffffffffff021916908373ffffffffffffffffffffffffffffffffffffffff160217905550600060068760ff1660148110610ed657610ed56136e0565b5b603c02018660ff1660148110610eef57610eee6136e0565b5b6003020160000160156101000a81548160ff02191690831515021790555060006104cd60008373ffffffffffffffffffffffffffffffffffffffff1673ffffffffffffffffffffffffffffffffffffffff168152602001908152602001600020905060005b818054905081101561108f576000828281548110610f7557610f746136e0565b5b9060005260206000200160009054906101000a900473ffffffffffffffffffffffffffffffffffffffff169050336104cc60008373ffffffffffffffffffffffffffffffffffffffff1673ffffffffffffffffffffffffffffffffffffffff16815260200190815260200160002060006101000a81548173ffffffffffffffffffffffffffffffffffffffff021916908373ffffffffffffffffffffffffffffffffffffffff1602179055503373ffffffffffffffffffffffffffffffffffffffff168173ffffffffffffffffffffffffffffffffffffffff167fdf63218877cb126f6c003f2b7f77327674cd6a0b53ad51deac392548ec12b0ed60405160405180910390a350808061108790613adb565b915050610f54565b5060006104cc60008473ffffffffffffffffffffffffffffffffffffffff1673ffffffffffffffffffffffffffffffffffffffff16815260200190815260200160002060009054906101000a900473ffffffffffffffffffffffffffffffffffffffff169050600073ffffffffffffffffffffffffffffffffffffffff168173ffffffffffffffffffffffffffffffffffffffff161461120357806104cc60003373ffffffffffffffffffffffffffffffffffffffff1673ffffffffffffffffffffffffffffffffffffffff16815260200190815260200160002060006101000a81548173ffffffffffffffffffffffffffffffffffffffff021916908373ffffffffffffffffffffffffffffffffffffffff1602179055508073ffffffffffffffffffffffffffffffffffffffff163373ffffffffffffffffffffffffffffffffffffffff167fdf63218877cb126f6c003f2b7f77327674cd6a0b53ad51deac392548ec12b0ed60405160405180910390a35b816104cd60003373ffffffffffffffffffffffffffffffffffffffff1673ffffffffffffffffffffffffffffffffffffffff168152602001908152602001600020908054611252929190612d18565b506104cd60008473ffffffffffffffffffffffffffffffffffffffff1673ffffffffffffffffffffffffffffffffffffffff168152602001908152602001600020600061129f9190612d6a565b60006104cc60008573ffffffffffffffffffffffffffffffffffffffff1673ffffffffffffffffffffffffffffffffffffffff16815260200190815260200160002060006101000a81548173ffffffffffffffffffffffffffffffffffffffff021916908373ffffffffffffffffffffffffffffffffffffffff16021790555060016104ca60003373ffffffffffffffffffffffffffffffffffffffff1673ffffffffffffffffffffffffffffffffffffffff16815260200190815260200160002060006101000a81548160ff02191690831515021790555060006104ca60008573ffffffffffffffffffffffffffffffffffffffff1673ffffffffffffffffffffffffffffffffffffffff16815260200190815260200160002060006101000a81548160ff02191690831515021790555060405180604001604052808960ff1660ff1681526020018860ff1660ff168152506104cb60003373ffffffffffffffffffffffffffffffffffffffff1673ffffffffffffffffffffffffffffffffffffffff168152602001908152602001600020906002611440929190612d8b565b507f19c0182f0d6040e7f43aa17e1c6584130bdbc8da2e4ac4d2050593808b77a77188886001336040516114779493929190613b23565b60405180910390a150505050505061148d612cec565b5050565b6104cb60205281600052604060002081600281106114ae57600080fd5b60209182820401919006915091509054906101000a900460ff1681565b64174876e80081565b600260009054906101000a900473ffffffffffffffffffffffffffffffffffffffff1681565b60006104cc60008373ffffffffffffffffffffffffffffffffffffffff1673ffffffffffffffffffffffffffffffffffffffff16815260200190815260200160002060009054906101000a900473ffffffffffffffffffffffffffffffffffffffff169050919050565b61156c612c9d565b601460ff168360ff161080156115885750601460ff168260ff16105b6115c7576040517f08c379a00000000000000000000000000000000000000000000000000000000081526004016115be906136c0565b60405180910390fd5b60068360ff16601481106115de576115dd6136e0565b5b603c02018260ff16601481106115f7576115f66136e0565b5b6003020160000160009054906101000a900460ff161561164c576040517f08c379a000000000000000000000000000000000000000000000000000000000815260040161164390613bb4565b60405180910390fd5b6104ca60003373ffffffffffffffffffffffffffffffffffffffff1673ffffffffffffffffffffffffffffffffffffffff16815260200190815260200160002060009054906101000a900460ff16156116da576040517f08c379a00000000000000000000000000000000000000000000000000000000081526004016116d190613c20565b60405180910390fd5b64174876e800600560009054906101000a900473ffffffffffffffffffffffffffffffffffffffff1673ffffffffffffffffffffffffffffffffffffffff166370a08231336040518263ffffffff1660e01b815260040161173b919061302c565b602060405180830381865afa158015611758573d6000803e3d6000fd5b505050506040513d601f19601f8201168201806040525081019061177c91906138cb565b10156117bd576040517f08c379a00000000000000000000000000000000000000000000000000000000081526004016117b490613c8c565b60405180910390fd5b600560009054906101000a900473ffffffffffffffffffffffffffffffffffffffff1673ffffffffffffffffffffffffffffffffffffffff166323b872dd333064174876e8006040518463ffffffff1660e01b81526004016118219392919061398a565b6020604051808303816000875af1158015611840573d6000803e3d6000fd5b505050506040513d601f19601f8201168201806040525081019061186491906139d6565b6118a3576040517f08c379a000000000000000000000000000000000000000000000000000000000815260040161189a90613a4f565b60405180910390fd5b600560009054906101000a900473ffffffffffffffffffffffffffffffffffffffff1673ffffffffffffffffffffffffffffffffffffffff166342966c6864174876e8006040518263ffffffff1660e01b815260040161190391906131eb565b6020604051808303816000875af1158015611922573d6000803e3d6000fd5b505050506040513d601f19601f8201168201806040525081019061194691906139d6565b611985576040517f08c379a000000000000000000000000000000000000000000000000000000000815260040161197c90613abb565b60405180910390fd5b600073ffffffffffffffffffffffffffffffffffffffff168173ffffffffffffffffffffffffffffffffffffffff1603611c6d57600073ffffffffffffffffffffffffffffffffffffffff166104cc60003373ffffffffffffffffffffffffffffffffffffffff1673ffffffffffffffffffffffffffffffffffffffff16815260200190815260200160002060009054906101000a900473ffffffffffffffffffffffffffffffffffffffff1673ffffffffffffffffffffffffffffffffffffffff1614611a88576040517f08c379a0000000000000000000000000000000000000000000000000000000008152600401611a7f90613cf8565b60405180910390fd5b600460009054906101000a900473ffffffffffffffffffffffffffffffffffffffff166104cc60003373ffffffffffffffffffffffffffffffffffffffff1673ffffffffffffffffffffffffffffffffffffffff16815260200190815260200160002060006101000a81548173ffffffffffffffffffffffffffffffffffffffff021916908373ffffffffffffffffffffffffffffffffffffffff1602179055506104cd6000600460009054906101000a900473ffffffffffffffffffffffffffffffffffffffff1673ffffffffffffffffffffffffffffffffffffffff1673ffffffffffffffffffffffffffffffffffffffff168152602001908152602001600020339080600181540180825580915050600190039060005260206000200160009091909190916101000a81548173ffffffffffffffffffffffffffffffffffffffff021916908373ffffffffffffffffffffffffffffffffffffffff160217905550600460009054906101000a900473ffffffffffffffffffffffffffffffffffffffff1673ffffffffffffffffffffffffffffffffffffffff163373ffffffffffffffffffffffffffffffffffffffff167fdf63218877cb126f6c003f2b7f77327674cd6a0b53ad51deac392548ec12b0ed60405160405180910390a3611fb2565b600073ffffffffffffffffffffffffffffffffffffffff166104cc60003373ffffffffffffffffffffffffffffffffffffffff1673ffffffffffffffffffffffffffffffffffffffff16815260200190815260200160002060009054906101000a900473ffffffffffffffffffffffffffffffffffffffff1673ffffffffffffffffffffffffffffffffffffffff1614611d3c576040517f08c379a0000000000000000000000000000000000000000000000000000000008152600401611d3390613cf8565b60405180910390fd5b3373ffffffffffffffffffffffffffffffffffffffff168173ffffffffffffffffffffffffffffffffffffffff1603611daa576040517f08c379a0000000000000000000000000000000000000000000000000000000008152600401611da190613d64565b60405180910390fd5b6104ca60008273ffffffffffffffffffffffffffffffffffffffff1673ffffffffffffffffffffffffffffffffffffffff16815260200190815260200160002060009054906101000a900460ff16611e37576040517f08c379a0000000000000000000000000000000000000000000000000000000008152600401611e2e90613df6565b60405180910390fd5b806104cc60003373ffffffffffffffffffffffffffffffffffffffff1673ffffffffffffffffffffffffffffffffffffffff16815260200190815260200160002060006101000a81548173ffffffffffffffffffffffffffffffffffffffff021916908373ffffffffffffffffffffffffffffffffffffffff1602179055506104cd60008273ffffffffffffffffffffffffffffffffffffffff1673ffffffffffffffffffffffffffffffffffffffff168152602001908152602001600020339080600181540180825580915050600190039060005260206000200160009091909190916101000a81548173ffffffffffffffffffffffffffffffffffffffff021916908373ffffffffffffffffffffffffffffffffffffffff1602179055508073ffffffffffffffffffffffffffffffffffffffff163373ffffffffffffffffffffffffffffffffffffffff167fdf63218877cb126f6c003f2b7f77327674cd6a0b53ad51deac392548ec12b0ed60405160405180910390a35b600160068460ff1660148110611fcb57611fca6136e0565b5b603c02018360ff1660148110611fe457611fe36136e0565b5b6003020160000160006101000a81548160ff0219169083151502179055503360068460ff166014811061201a576120196136e0565b5b603c02018360ff1660148110612033576120326136e0565b5b6003020160000160016101000a81548173ffffffffffffffffffffffffffffffffffffffff021916908373ffffffffffffffffffffffffffffffffffffffff16021790555060016104ca60003373ffffffffffffffffffffffffffffffffffffffff1673ffffffffffffffffffffffffffffffffffffffff16815260200190815260200160002060006101000a81548160ff02191690831515021790555060405180604001604052808460ff1660ff1681526020018360ff1660ff168152506104cb60003373ffffffffffffffffffffffffffffffffffffffff1673ffffffffffffffffffffffffffffffffffffffff168152602001908152602001600020906002612140929190612d8b565b507f19c0182f0d6040e7f43aa17e1c6584130bdbc8da2e4ac4d2050593808b77a77183836001336040516121779493929190613b23565b60405180910390a1612187612cec565b505050565b600360009054906101000a900473ffffffffffffffffffffffffffffffffffffffff1673ffffffffffffffffffffffffffffffffffffffff163373ffffffffffffffffffffffffffffffffffffffff161461221c576040517f08c379a000000000000000000000000000000000000000000000000000000000815260040161221390613e62565b60405180910390fd5b60001515600460149054906101000a900460ff16151503612257576001600460146101000a81548160ff021916908315150217905550612273565b6000600460146101000a81548160ff0219169083151502179055505b565b600060606104cc60008473ffffffffffffffffffffffffffffffffffffffff1673ffffffffffffffffffffffffffffffffffffffff16815260200190815260200160002060009054906101000a900473ffffffffffffffffffffffffffffffffffffffff166104cd60008573ffffffffffffffffffffffffffffffffffffffff1673ffffffffffffffffffffffffffffffffffffffff1681526020019081526020016000208080548060200260200160405190810160405280929190818152602001828054801561239b57602002820191906000526020600020905b8160009054906101000a900473ffffffffffffffffffffffffffffffffffffffff1673ffffffffffffffffffffffffffffffffffffffff1681526020019060010190808311612351575b5050505050905091509150915091565b6123b3612e25565b6123bb612e25565b60005b601460ff168160ff16101561248a5760005b601460ff168160ff1610156124765760068260ff16601481106123f6576123f56136e0565b5b603c02018160ff166014811061240f5761240e6136e0565b5b6003020160000160009054906101000a900460ff16838360ff166014811061243a576124396136e0565b5b60200201518260ff1660148110612454576124536136e0565b5b602002019015159081151581525050808061246e90613e82565b9150506123d0565b50808061248290613e82565b9150506123be565b508091505090565b600682601481106124a257600080fd5b603c020181601481106124b457600080fd5b60030201600091509150508060000160009054906101000a900460ff16908060000160019054906101000a900473ffffffffffffffffffffffffffffffffffffffff16908060000160159054906101000a900460ff16908060010154908060020154905085565b6000601460ff168360ff161080156125395750601460ff168260ff16105b612578576040517f08c379a000000000000000000000000000000000000000000000000000000000815260040161256f906136c0565b60405180910390fd5b60068360ff166014811061258f5761258e6136e0565b5b603c02018260ff16601481106125a8576125a76136e0565b5b6003020160000160019054906101000a900473ffffffffffffffffffffffffffffffffffffffff16905092915050565b600160009054906101000a900473ffffffffffffffffffffffffffffffffffffffff1681565b600360009054906101000a900473ffffffffffffffffffffffffffffffffffffffff1681565b600460009054906101000a900473ffffffffffffffffffffffffffffffffffffffff1681565b6104b6826014811061265b57600080fd5b01816014811061266a57600080fd5b60209182820401919006915091509054906101000a900460ff1681565b600160009054906101000a900473ffffffffffffffffffffffffffffffffffffffff1673ffffffffffffffffffffffffffffffffffffffff163373ffffffffffffffffffffffffffffffffffffffff1614612717576040517f08c379a000000000000000000000000000000000000000000000000000000000815260040161270e90613ef7565b60405180910390fd5b600460149054906101000a900460ff16612766576040517f08c379a000000000000000000000000000000000000000000000000000000000815260040161275d90613f63565b60405180910390fd5b80600260006101000a81548173ffffffffffffffffffffffffffffffffffffffff021916908373ffffffffffffffffffffffffffffffffffffffff1602179055508073ffffffffffffffffffffffffffffffffffffffff167f60a0f5b9f9e81e98216071b85826681c796256fe3d1354ecb675580fba64fa6960405160405180910390a250565b6104cc6020528060005260406000206000915054906101000a900473ffffffffffffffffffffffffffffffffffffffff1681565b8383600260009054906101000a900473ffffffffffffffffffffffffffffffffffffffff1673ffffffffffffffffffffffffffffffffffffffff163373ffffffffffffffffffffffffffffffffffffffff161480612901575060068260ff1660148110612891576128906136e0565b5b603c02018160ff16601481106128aa576128a96136e0565b5b6003020160000160019054906101000a900473ffffffffffffffffffffffffffffffffffffffff1673ffffffffffffffffffffffffffffffffffffffff163373ffffffffffffffffffffffffffffffffffffffff16145b612940576040517f08c379a000000000000000000000000000000000000000000000000000000000815260040161293790613ff5565b60405180910390fd5b601460ff168660ff1610801561295c5750601460ff168560ff16105b61299b576040517f08c379a0000000000000000000000000000000000000000000000000000000008152600401612992906136c0565b60405180910390fd5b60068660ff16601481106129b2576129b16136e0565b5b603c02018560ff16601481106129cb576129ca6136e0565b5b6003020160000160009054906101000a900460ff16612a1f576040517f08c379a0000000000000000000000000000000000000000000000000000000008152600401612a169061375b565b60405180910390fd5b8360068760ff1660148110612a3757612a366136e0565b5b603c02018660ff1660148110612a5057612a4f6136e0565b5b6003020160000160156101000a81548160ff0219169083151502179055508260068760ff1660148110612a8657612a856136e0565b5b603c02018660ff1660148110612a9f57612a9e6136e0565b5b6003020160010181905550600a83612ab79190614044565b60068760ff1660148110612ace57612acd6136e0565b5b603c02018660ff1660148110612ae757612ae66136e0565b5b60030201600201819055507f641f89aec36931a43d99f5a3fd4d845cc1112ec11452d8cfb6d97d78f8b6ffac86868686604051612b279493929190614075565b60405180910390a1505050505050565b600160009054906101000a900473ffffffffffffffffffffffffffffffffffffffff1673ffffffffffffffffffffffffffffffffffffffff163373ffffffffffffffffffffffffffffffffffffffff1614612bc7576040517f08c379a0000000000000000000000000000000000000000000000000000000008152600401612bbe90613ef7565b60405180910390fd5b600460149054906101000a900460ff16612c16576040517f08c379a0000000000000000000000000000000000000000000000000000000008152600401612c0d90613f63565b60405180910390fd5b80600460006101000a81548173ffffffffffffffffffffffffffffffffffffffff021916908373ffffffffffffffffffffffffffffffffffffffff1602179055508073ffffffffffffffffffffffffffffffffffffffff167ffb3a44111c652758dbcb45122c36ba9fa8d5f2c5b3df984a0196dee5a0bdcc9760405160405180910390a250565b600260005403612ce2576040517f08c379a0000000000000000000000000000000000000000000000000000000008152600401612cd990614106565b60405180910390fd5b6002600081905550565b6001600081905550565b6040518060400160405280600290602082028036833780820191505090505090565b828054828255906000526020600020908101928215612d595760005260206000209182015b82811115612d58578254825591600101919060010190612d3d565b5b509050612d669190612e53565b5090565b5080546000825590600052602060002090810190612d889190612e53565b50565b826002601f01602090048101928215612e145791602002820160005b83821115612de557835183826101000a81548160ff021916908360ff1602179055509260200192600101602081600001049283019260010302612da7565b8015612e125782816101000a81549060ff0219169055600101602081600001049283019260010302612de5565b505b509050612e219190612e53565b5090565b6040518061028001604052806014905b612e3d612e70565b815260200190600190039081612e355790505090565b5b80821115612e6c576000816000905550600101612e54565b5090565b604051806102800160405280601490602082028036833780820191505090505090565b600073ffffffffffffffffffffffffffffffffffffffff82169050919050565b6000819050919050565b6000612ed8612ed3612ece84612e93565b612eb3565b612e93565b9050919050565b6000612eea82612ebd565b9050919050565b6000612efc82612edf565b9050919050565b612f0c81612ef1565b82525050565b6000602082019050612f276000830184612f03565b92915050565b600060ff82169050919050565b612f4381612f2d565b82525050565b6000602082019050612f5e6000830184612f3a565b92915050565b600080fd5b6000612f7482612e93565b9050919050565b612f8481612f69565b8114612f8f57600080fd5b50565b600081359050612fa181612f7b565b92915050565b6000819050919050565b612fba81612fa7565b8114612fc557600080fd5b50565b600081359050612fd781612fb1565b92915050565b60008060408385031215612ff457612ff3612f64565b5b600061300285828601612f92565b925050602061301385828601612fc8565b9150509250929050565b61302681612f69565b82525050565b6000602082019050613041600083018461301d565b92915050565b60006020828403121561305d5761305c612f64565b5b600061306b84828501612f92565b91505092915050565b600060029050919050565b600081905092915050565b6000819050919050565b61309d81612f2d565b82525050565b60006130af8383613094565b60208301905092915050565b6000602082019050919050565b6130d181613074565b6130db818461307f565b92506130e68261308a565b8060005b838110156131175781516130fe87826130a3565b9650613109836130bb565b9250506001810190506130ea565b505050505050565b600060408201905061313460008301846130c8565b92915050565b61314381612f2d565b811461314e57600080fd5b50565b6000813590506131608161313a565b92915050565b6000806040838503121561317d5761317c612f64565b5b600061318b85828601613151565b925050602061319c85828601613151565b9150509250929050565b60008115159050919050565b6131bb816131a6565b82525050565b60006020820190506131d660008301846131b2565b92915050565b6131e581612fa7565b82525050565b600060208201905061320060008301846131dc565b92915050565b60008060006060848603121561321f5761321e612f64565b5b600061322d86828701613151565b935050602061323e86828701613151565b925050604061324f86828701612f92565b9150509250925092565b600081519050919050565b600082825260208201905092915050565b6000819050602082019050919050565b61328e81612f69565b82525050565b60006132a08383613285565b60208301905092915050565b6000602082019050919050565b60006132c482613259565b6132ce8185613264565b93506132d983613275565b8060005b8381101561330a5781516132f18882613294565b97506132fc836132ac565b9250506001810190506132dd565b5085935050505092915050565b600060408201905061332c600083018561301d565b818103602083015261333e81846132b9565b90509392505050565b600060149050919050565b600081905092915050565b6000819050919050565b600060149050919050565b600081905092915050565b6000819050919050565b613390816131a6565b82525050565b60006133a28383613387565b60208301905092915050565b6000602082019050919050565b6133c481613367565b6133ce8184613372565b92506133d98261337d565b8060005b8381101561340a5781516133f18782613396565b96506133fc836133ae565b9250506001810190506133dd565b505050505050565b600061341e83836133bb565b6102808301905092915050565b6000602082019050919050565b61344181613347565b61344b8184613352565b92506134568261335d565b8060005b8381101561348757815161346e8782613412565b96506134798361342b565b92505060018101905061345a565b505050505050565b6000613200820190506134a56000830184613438565b92915050565b600080604083850312156134c2576134c1612f64565b5b60006134d085828601612fc8565b92505060206134e185828601612fc8565b9150509250929050565b600060a08201905061350060008301886131b2565b61350d602083018761301d565b61351a60408301866131b2565b61352760608301856131dc565b61353460808301846131dc565b9695505050505050565b613547816131a6565b811461355257600080fd5b50565b6000813590506135648161353e565b92915050565b6000806000806080858703121561358457613583612f64565b5b600061359287828801613151565b94505060206135a387828801613151565b93505060406135b487828801613555565b92505060606135c587828801612fc8565b91505092959194509250565b600082825260208201905092915050565b7f54686973206164647265737320686173206e6f74206f6363757069656420612060008201527f74696c6500000000000000000000000000000000000000000000000000000000602082015250565b600061363e6024836135d1565b9150613649826135e2565b604082019050919050565b6000602082019050818103600083015261366d81613631565b9050919050565b7f496e76616c69642074696c6520636f6f7264696e617465730000000000000000600082015250565b60006136aa6018836135d1565b91506136b582613674565b602082019050919050565b600060208201905081810360008301526136d98161369d565b9050919050565b7f4e487b7100000000000000000000000000000000000000000000000000000000600052603260045260246000fd5b7f54696c65206973206e6f74206f63637570696564000000000000000000000000600082015250565b60006137456014836135d1565b91506137508261370f565b602082019050919050565b6000602082019050818103600083015261377481613738565b9050919050565b7f54696c65206973206e6f74206f6e2073616c6500000000000000000000000000600082015250565b60006137b16013836135d1565b91506137bc8261377b565b602082019050919050565b600060208201905081810360008301526137e0816137a4565b9050919050565b7f596f7520616c7265616479206f636375707920612074696c6500000000000000600082015250565b600061381d6019836135d1565b9150613828826137e7565b602082019050919050565b6000602082019050818103600083015261384c81613810565b9050919050565b7f4e487b7100000000000000000000000000000000000000000000000000000000600052601160045260246000fd5b600061388d82612fa7565b915061389883612fa7565b92508282019050808211156138b0576138af613853565b5b92915050565b6000815190506138c581612fb1565b92915050565b6000602082840312156138e1576138e0612f64565b5b60006138ef848285016138b6565b91505092915050565b7f496e73756666696369656e74204c4f502062616c616e636520666f722070757260008201527f6368617365000000000000000000000000000000000000000000000000000000602082015250565b60006139546025836135d1565b915061395f826138f8565b604082019050919050565b6000602082019050818103600083015261398381613947565b9050919050565b600060608201905061399f600083018661301d565b6139ac602083018561301d565b6139b960408301846131dc565b949350505050565b6000815190506139d08161353e565b92915050565b6000602082840312156139ec576139eb612f64565b5b60006139fa848285016139c1565b91505092915050565b7f4c4f50207472616e73666572206661696c656400000000000000000000000000600082015250565b6000613a396013836135d1565b9150613a4482613a03565b602082019050919050565b60006020820190508181036000830152613a6881613a2c565b9050919050565b7f4c4f50206275726e206661696c65640000000000000000000000000000000000600082015250565b6000613aa5600f836135d1565b9150613ab082613a6f565b602082019050919050565b60006020820190508181036000830152613ad481613a98565b9050919050565b6000613ae682612fa7565b91507fffffffffffffffffffffffffffffffffffffffffffffffffffffffffffffffff8203613b1857613b17613853565b5b600182019050919050565b6000608082019050613b386000830187612f3a565b613b456020830186612f3a565b613b5260408301856131b2565b613b5f606083018461301d565b95945050505050565b7f54696c6520697320616c7265616479206f636375706965640000000000000000600082015250565b6000613b9e6018836135d1565b9150613ba982613b68565b602082019050919050565b60006020820190508181036000830152613bcd81613b91565b9050919050565b7f596f75206861766520616c7265616479206f6363757069656420612074696c65600082015250565b6000613c0a6020836135d1565b9150613c1582613bd4565b602082019050919050565b60006020820190508181036000830152613c3981613bfd565b9050919050565b7f496e73756666696369656e74204c4f502062616c616e63650000000000000000600082015250565b6000613c766018836135d1565b9150613c8182613c40565b602082019050919050565b60006020820190508181036000830152613ca581613c69565b9050919050565b7f416c726561647920686173206120526566657272657200000000000000000000600082015250565b6000613ce26016836135d1565b9150613ced82613cac565b602082019050919050565b60006020820190508181036000830152613d1181613cd5565b9050919050565b7f52656665727265722063616e206e6f742062652073656c660000000000000000600082015250565b6000613d4e6018836135d1565b9150613d5982613d18565b602082019050919050565b60006020820190508181036000830152613d7d81613d41565b9050919050565b7f5265666572726572206d757374206861766520616e206f63637570696564207460008201527f696c650000000000000000000000000000000000000000000000000000000000602082015250565b6000613de06023836135d1565b9150613deb82613d84565b604082019050919050565b60006020820190508181036000830152613e0f81613dd3565b9050919050565b7f43616c6c6572206973206e6f7420746865207377697463686572000000000000600082015250565b6000613e4c601a836135d1565b9150613e5782613e16565b602082019050919050565b60006020820190508181036000830152613e7b81613e3f565b9050919050565b6000613e8d82612f2d565b915060ff8203613ea057613e9f613853565b5b600182019050919050565b7f43616c6c6572206973206e6f7420746865206f776e6572000000000000000000600082015250565b6000613ee16017836135d1565b9150613eec82613eab565b602082019050919050565b60006020820190508181036000830152613f1081613ed4565b9050919050565b7f537769746368206973206f666600000000000000000000000000000000000000600082015250565b6000613f4d600d836135d1565b9150613f5882613f17565b602082019050919050565b60006020820190508181036000830152613f7c81613f40565b9050919050565b7f43616c6c6572206973206e6f7420746865206d616e61676572206f72206f636360008201527f7570616e74000000000000000000000000000000000000000000000000000000602082015250565b6000613fdf6025836135d1565b9150613fea82613f83565b604082019050919050565b6000602082019050818103600083015261400e81613fd2565b9050919050565b7f4e487b7100000000000000000000000000000000000000000000000000000000600052601260045260246000fd5b600061404f82612fa7565b915061405a83612fa7565b92508261406a57614069614015565b5b828204905092915050565b600060808201905061408a6000830187612f3a565b6140976020830186612f3a565b6140a460408301856131b2565b6140b160608301846131dc565b95945050505050565b7f5265656e7472616e637947756172643a207265656e7472616e742063616c6c00600082015250565b60006140f0601f836135d1565b91506140fb826140ba565b602082019050919050565b6000602082019050818103600083015261411f816140e3565b905091905056fea26469706673582212205148b4b722b1cc3726ab77e0f58eef4c3a9290868fbaa3cb0de9ce6187ed590564736f6c63430008120033",
			"opcodes": "PUSH1 0x80 PUSH1 0x40 MSTORE PUSH1 0x40 MLOAD DUP1 PUSH2 0x280 ADD PUSH1 0x40 MSTORE DUP1 PUSH1 0x40 MLOAD DUP1 PUSH2 0x280 ADD PUSH1 0x40 MSTORE DUP1 PUSH1 0x4 PUSH1 0xFF AND DUP2 MSTORE PUSH1 0x20 ADD PUSH1 0x4 PUSH1 0xFF AND DUP2 MSTORE PUSH1 0x20 ADD PUSH1 0x4 PUSH1 0xFF AND DUP2 MSTORE PUSH1 0x20 ADD PUSH1 0x4 PUSH1 0xFF AND DUP2 MSTORE PUSH1 0x20 ADD PUSH1 0x4 PUSH1 0xFF AND DUP2 MSTORE PUSH1 0x20 ADD PUSH1 0x4 PUSH1 0xFF AND DUP2 MSTORE PUSH1 0x20 ADD PUSH1 0x3 PUSH1 0xFF AND DUP2 MSTORE PUSH1 0x20 ADD PUSH1 0x3 PUSH1 0xFF AND DUP2 MSTORE PUSH1 0x20 ADD PUSH1 0x3 PUSH1 0xFF AND DUP2 MSTORE PUSH1 0x20 ADD PUSH1 0x3 PUSH1 0xFF AND DUP2 MSTORE PUSH1 0x20 ADD PUSH1 0x3 PUSH1 0xFF AND DUP2 MSTORE PUSH1 0x20 ADD PUSH1 0x3 PUSH1 0xFF AND DUP2 MSTORE PUSH1 0x20 ADD PUSH1 0x2 PUSH1 0xFF AND DUP2 MSTORE PUSH1 0x20 ADD PUSH1 0x2 PUSH1 0xFF AND DUP2 MSTORE PUSH1 0x20 ADD PUSH1 0x1 PUSH1 0xFF AND DUP2 MSTORE PUSH1 0x20 ADD PUSH1 0x2 PUSH1 0xFF AND DUP2 MSTORE PUSH1 0x20 ADD PUSH1 0x2 PUSH1 0xFF AND DUP2 MSTORE PUSH1 0x20 ADD PUSH1 0x2 PUSH1 0xFF AND DUP2 MSTORE PUSH1 0x20 ADD PUSH1 0x2 PUSH1 0xFF AND DUP2 MSTORE PUSH1 0x20 ADD PUSH1 0x2 PUSH1 0xFF AND DUP2 MSTORE POP DUP2 MSTORE PUSH1 0x20 ADD PUSH1 0x40 MLOAD DUP1 PUSH2 0x280 ADD PUSH1 0x40 MSTORE DUP1 PUSH1 0x4 PUSH1 0xFF AND DUP2 MSTORE PUSH1 0x20 ADD PUSH1 0x4 PUSH1 0xFF AND DUP2 MSTORE PUSH1 0x20 ADD PUSH1 0x4 PUSH1 0xFF AND DUP2 MSTORE PUSH1 0x20 ADD PUSH1 0x4 PUSH1 0xFF AND DUP2 MSTORE PUSH1 0x20 ADD PUSH1 0x4 PUSH1 0xFF AND DUP2 MSTORE PUSH1 0x20 ADD PUSH1 0x4 PUSH1 0xFF AND DUP2 MSTORE PUSH1 0x20 ADD PUSH1 0x4 PUSH1 0xFF AND DUP2 MSTORE PUSH1 0x20 ADD PUSH1 0x3 PUSH1 0xFF AND DUP2 MSTORE PUSH1 0x20 ADD PUSH1 0x3 PUSH1 0xFF AND DUP2 MSTORE PUSH1 0x20 ADD PUSH1 0x3 PUSH1 0xFF AND DUP2 MSTORE PUSH1 0x20 ADD PUSH1 0x3 PUSH1 0xFF AND DUP2 MSTORE PUSH1 0x20 ADD PUSH1 0x3 PUSH1 0xFF AND DUP2 MSTORE PUSH1 0x20 ADD PUSH1 0x2 PUSH1 0xFF AND DUP2 MSTORE PUSH1 0x20 ADD PUSH1 0x1 PUSH1 0xFF AND DUP2 MSTORE PUSH1 0x20 ADD PUSH1 0x1 PUSH1 0xFF AND DUP2 MSTORE PUSH1 0x20 ADD PUSH1 0x2 PUSH1 0xFF AND DUP2 MSTORE PUSH1 0x20 ADD PUSH1 0x2 PUSH1 0xFF AND DUP2 MSTORE PUSH1 0x20 ADD PUSH1 0x2 PUSH1 0xFF AND DUP2 MSTORE PUSH1 0x20 ADD PUSH1 0x2 PUSH1 0xFF AND DUP2 MSTORE PUSH1 0x20 ADD PUSH1 0x2 PUSH1 0xFF AND DUP2 MSTORE POP DUP2 MSTORE PUSH1 0x20 ADD PUSH1 0x40 MLOAD DUP1 PUSH2 0x280 ADD PUSH1 0x40 MSTORE DUP1 PUSH1 0x4 PUSH1 0xFF AND DUP2 MSTORE PUSH1 0x20 ADD PUSH1 0x4 PUSH1 0xFF AND DUP2 MSTORE PUSH1 0x20 ADD PUSH1 0x4 PUSH1 0xFF AND DUP2 MSTORE PUSH1 0x20 ADD PUSH1 0x4 PUSH1 0xFF AND DUP2 MSTORE PUSH1 0x20 ADD PUSH1 0x4 PUSH1 0xFF AND DUP2 MSTORE PUSH1 0x20 ADD PUSH1 0x4 PUSH1 0xFF AND DUP2 MSTORE PUSH1 0x20 ADD PUSH1 0x4 PUSH1 0xFF AND DUP2 MSTORE PUSH1 0x20 ADD PUSH1 0x4 PUSH1 0xFF AND DUP2 MSTORE PUSH1 0x20 ADD PUSH1 0x3 PUSH1 0xFF AND DUP2 MSTORE PUSH1 0x20 ADD PUSH1 0x3 PUSH1 0xFF AND DUP2 MSTORE PUSH1 0x20 ADD PUSH1 0x3 PUSH1 0xFF AND DUP2 MSTORE PUSH1 0x20 ADD PUSH1 0x3 PUSH1 0xFF AND DUP2 MSTORE PUSH1 0x20 ADD PUSH1 0x2 PUSH1 0xFF AND DUP2 MSTORE PUSH1 0x20 ADD PUSH1 0x2 PUSH1 0xFF AND DUP2 MSTORE PUSH1 0x20 ADD PUSH1 0x1 PUSH1 0xFF AND DUP2 MSTORE PUSH1 0x20 ADD PUSH1 0x1 PUSH1 0xFF AND DUP2 MSTORE PUSH1 0x20 ADD PUSH1 0x2 PUSH1 0xFF AND DUP2 MSTORE PUSH1 0x20 ADD PUSH1 0x2 PUSH1 0xFF AND DUP2 MSTORE PUSH1 0x20 ADD PUSH1 0x2 PUSH1 0xFF AND DUP2 MSTORE PUSH1 0x20 ADD PUSH1 0x2 PUSH1 0xFF AND DUP2 MSTORE POP DUP2 MSTORE PUSH1 0x20 ADD PUSH1 0x40 MLOAD DUP1 PUSH2 0x280 ADD PUSH1 0x40 MSTORE DUP1 PUSH1 0x4 PUSH1 0xFF AND DUP2 MSTORE PUSH1 0x20 ADD PUSH1 0x4 PUSH1 0xFF AND DUP2 MSTORE PUSH1 0x20 ADD PUSH1 0x4 PUSH1 0xFF AND DUP2 MSTORE PUSH1 0x20 ADD PUSH1 0x4 PUSH1 0xFF AND DUP2 MSTORE PUSH1 0x20 ADD PUSH1 0x4 PUSH1 0xFF AND DUP2 MSTORE PUSH1 0x20 ADD PUSH1 0x4 PUSH1 0xFF AND DUP2 MSTORE PUSH1 0x20 ADD PUSH1 0x4 PUSH1 0xFF AND DUP2 MSTORE PUSH1 0x20 ADD PUSH1 0x4 PUSH1 0xFF AND DUP2 MSTORE PUSH1 0x20 ADD PUSH1 0x3 PUSH1 0xFF AND DUP2 MSTORE PUSH1 0x20 ADD PUSH1 0x3 PUSH1 0xFF AND DUP2 MSTORE PUSH1 0x20 ADD PUSH1 0x3 PUSH1 0xFF AND DUP2 MSTORE PUSH1 0x20 ADD PUSH1 0x3 PUSH1 0xFF AND DUP2 MSTORE PUSH1 0x20 ADD PUSH1 0x3 PUSH1 0xFF AND DUP2 MSTORE PUSH1 0x20 ADD PUSH1 0x1 PUSH1 0xFF AND DUP2 MSTORE PUSH1 0x20 ADD PUSH1 0x1 PUSH1 0xFF AND DUP2 MSTORE PUSH1 0x20 ADD PUSH1 0x1 PUSH1 0xFF AND DUP2 MSTORE PUSH1 0x20 ADD PUSH1 0x2 PUSH1 0xFF AND DUP2 MSTORE PUSH1 0x20 ADD PUSH1 0x2 PUSH1 0xFF AND DUP2 MSTORE PUSH1 0x20 ADD PUSH1 0x2 PUSH1 0xFF AND DUP2 MSTORE PUSH1 0x20 ADD PUSH1 0x2 PUSH1 0xFF AND DUP2 MSTORE POP DUP2 MSTORE PUSH1 0x20 ADD PUSH1 0x40 MLOAD DUP1 PUSH2 0x280 ADD PUSH1 0x40 MSTORE DUP1 PUSH1 0x3 PUSH1 0xFF AND DUP2 MSTORE PUSH1 0x20 ADD PUSH1 0x3 PUSH1 0xFF AND DUP2 MSTORE PUSH1 0x20 ADD PUSH1 0x3 PUSH1 0xFF AND DUP2 MSTORE PUSH1 0x20 ADD PUSH1 0x3 PUSH1 0xFF AND DUP2 MSTORE PUSH1 0x20 ADD PUSH1 0x3 PUSH1 0xFF AND DUP2 MSTORE PUSH1 0x20 ADD PUSH1 0x3 PUSH1 0xFF AND DUP2 MSTORE PUSH1 0x20 ADD PUSH1 0x3 PUSH1 0xFF AND DUP2 MSTORE PUSH1 0x20 ADD PUSH1 0x3 PUSH1 0xFF AND DUP2 MSTORE PUSH1 0x20 ADD PUSH1 0x3 PUSH1 0xFF AND DUP2 MSTORE PUSH1 0x20 ADD PUSH1 0x3 PUSH1 0xFF AND DUP2 MSTORE PUSH1 0x20 ADD PUSH1 0x3 PUSH1 0xFF AND DUP2 MSTORE PUSH1 0x20 ADD PUSH1 0x3 PUSH1 0xFF AND DUP2 MSTORE PUSH1 0x20 ADD PUSH1 0x1 PUSH1 0xFF AND DUP2 MSTORE PUSH1 0x20 ADD PUSH1 0x1 PUSH1 0xFF AND DUP2 MSTORE PUSH1 0x20 ADD PUSH1 0x1 PUSH1 0xFF AND DUP2 MSTORE PUSH1 0x20 ADD PUSH1 0x1 PUSH1 0xFF AND DUP2 MSTORE PUSH1 0x20 ADD PUSH1 0x2 PUSH1 0xFF AND DUP2 MSTORE PUSH1 0x20 ADD PUSH1 0x2 PUSH1 0xFF AND DUP2 MSTORE PUSH1 0x20 ADD PUSH1 0x2 PUSH1 0xFF AND DUP2 MSTORE PUSH1 0x20 ADD PUSH1 0x2 PUSH1 0xFF AND DUP2 MSTORE POP DUP2 MSTORE PUSH1 0x20 ADD PUSH1 0x40 MLOAD DUP1 PUSH2 0x280 ADD PUSH1 0x40 MSTORE DUP1 PUSH1 0x3 PUSH1 0xFF AND DUP2 MSTORE PUSH1 0x20 ADD PUSH1 0x3 PUSH1 0xFF AND DUP2 MSTORE PUSH1 0x20 ADD PUSH1 0x3 PUSH1 0xFF AND DUP2 MSTORE PUSH1 0x20 ADD PUSH1 0x3 PUSH1 0xFF AND DUP2 MSTORE PUSH1 0x20 ADD PUSH1 0x3 PUSH1 0xFF AND DUP2 MSTORE PUSH1 0x20 ADD PUSH1 0x3 PUSH1 0xFF AND DUP2 MSTORE PUSH1 0x20 ADD PUSH1 0x3 PUSH1 0xFF AND DUP2 MSTORE PUSH1 0x20 ADD PUSH1 0x3 PUSH1 0xFF AND DUP2 MSTORE PUSH1 0x20 ADD PUSH1 0x3 PUSH1 0xFF AND DUP2 MSTORE PUSH1 0x20 ADD PUSH1 0x3 PUSH1 0xFF AND DUP2 MSTORE PUSH1 0x20 ADD PUSH1 0x3 PUSH1 0xFF AND DUP2 MSTORE PUSH1 0x20 ADD PUSH1 0x3 PUSH1 0xFF AND DUP2 MSTORE PUSH1 0x20 ADD PUSH1 0x1 PUSH1 0xFF AND DUP2 MSTORE PUSH1 0x20 ADD PUSH1 0x1 PUSH1 0xFF AND DUP2 MSTORE PUSH1 0x20 ADD PUSH1 0x1 PUSH1 0xFF AND DUP2 MSTORE PUSH1 0x20 ADD PUSH1 0x1 PUSH1 0xFF AND DUP2 MSTORE PUSH1 0x20 ADD PUSH1 0x2 PUSH1 0xFF AND DUP2 MSTORE PUSH1 0x20 ADD PUSH1 0x2 PUSH1 0xFF AND DUP2 MSTORE PUSH1 0x20 ADD PUSH1 0x2 PUSH1 0xFF AND DUP2 MSTORE PUSH1 0x20 ADD PUSH1 0x2 PUSH1 0xFF AND DUP2 MSTORE POP DUP2 MSTORE PUSH1 0x20 ADD PUSH1 0x40 MLOAD DUP1 PUSH2 0x280 ADD PUSH1 0x40 MSTORE DUP1 PUSH1 0x3 PUSH1 0xFF AND DUP2 MSTORE PUSH1 0x20 ADD PUSH1 0x3 PUSH1 0xFF AND DUP2 MSTORE PUSH1 0x20 ADD PUSH1 0x3 PUSH1 0xFF AND DUP2 MSTORE PUSH1 0x20 ADD PUSH1 0x3 PUSH1 0xFF AND DUP2 MSTORE PUSH1 0x20 ADD PUSH1 0x3 PUSH1 0xFF AND DUP2 MSTORE PUSH1 0x20 ADD PUSH1 0x3 PUSH1 0xFF AND DUP2 MSTORE PUSH1 0x20 ADD PUSH1 0x3 PUSH1 0xFF AND DUP2 MSTORE PUSH1 0x20 ADD PUSH1 0x3 PUSH1 0xFF AND DUP2 MSTORE PUSH1 0x20 ADD PUSH1 0x3 PUSH1 0xFF AND DUP2 MSTORE PUSH1 0x20 ADD PUSH1 0x3 PUSH1 0xFF AND DUP2 MSTORE PUSH1 0x20 ADD PUSH1 0x3 PUSH1 0xFF AND DUP2 MSTORE PUSH1 0x20 ADD PUSH1 0x3 PUSH1 0xFF AND DUP2 MSTORE PUSH1 0x20 ADD PUSH1 0x1 PUSH1 0xFF AND DUP2 MSTORE PUSH1 0x20 ADD PUSH1 0x1 PUSH1 0xFF AND DUP2 MSTORE PUSH1 0x20 ADD PUSH1 0x1 PUSH1 0xFF AND DUP2 MSTORE PUSH1 0x20 ADD PUSH1 0x1 PUSH1 0xFF AND DUP2 MSTORE PUSH1 0x20 ADD PUSH1 0x1 PUSH1 0xFF AND DUP2 MSTORE PUSH1 0x20 ADD PUSH1 0x1 PUSH1 0xFF AND DUP2 MSTORE PUSH1 0x20 ADD PUSH1 0x1 PUSH1 0xFF AND DUP2 MSTORE PUSH1 0x20 ADD PUSH1 0x1 PUSH1 0xFF AND DUP2 MSTORE POP DUP2 MSTORE PUSH1 0x20 ADD PUSH1 0x40 MLOAD DUP1 PUSH2 0x280 ADD PUSH1 0x40 MSTORE DUP1 PUSH1 0x3 PUSH1 0xFF AND DUP2 MSTORE PUSH1 0x20 ADD PUSH1 0x3 PUSH1 0xFF AND DUP2 MSTORE PUSH1 0x20 ADD PUSH1 0x3 PUSH1 0xFF AND DUP2 MSTORE PUSH1 0x20 ADD PUSH1 0x1 PUSH1 0xFF AND DUP2 MSTORE PUSH1 0x20 ADD PUSH1 0x3 PUSH1 0xFF AND DUP2 MSTORE PUSH1 0x20 ADD PUSH1 0x3 PUSH1 0xFF AND DUP2 MSTORE PUSH1 0x20 ADD PUSH1 0x3 PUSH1 0xFF AND DUP2 MSTORE PUSH1 0x20 ADD PUSH1 0x3 PUSH1 0xFF AND DUP2 MSTORE PUSH1 0x20 ADD PUSH1 0x3 PUSH1 0xFF AND DUP2 MSTORE PUSH1 0x20 ADD PUSH1 0x3 PUSH1 0xFF AND DUP2 MSTORE PUSH1 0x20 ADD PUSH1 0x3 PUSH1 0xFF AND DUP2 MSTORE PUSH1 0x20 ADD PUSH1 0x1 PUSH1 0xFF AND DUP2 MSTORE PUSH1 0x20 ADD PUSH1 0x2 PUSH1 0xFF AND DUP2 MSTORE PUSH1 0x20 ADD PUSH1 0x2 PUSH1 0xFF AND DUP2 MSTORE PUSH1 0x20 ADD PUSH1 0x2 PUSH1 0xFF AND DUP2 MSTORE PUSH1 0x20 ADD PUSH1 0x2 PUSH1 0xFF AND DUP2 MSTORE PUSH1 0x20 ADD PUSH1 0x1 PUSH1 0xFF AND DUP2 MSTORE PUSH1 0x20 ADD PUSH1 0x1 PUSH1 0xFF AND DUP2 MSTORE PUSH1 0x20 ADD PUSH1 0x1 PUSH1 0xFF AND DUP2 MSTORE PUSH1 0x20 ADD PUSH1 0x1 PUSH1 0xFF AND DUP2 MSTORE POP DUP2 MSTORE PUSH1 0x20 ADD PUSH1 0x40 MLOAD DUP1 PUSH2 0x280 ADD PUSH1 0x40 MSTORE DUP1 PUSH1 0x3 PUSH1 0xFF AND DUP2 MSTORE PUSH1 0x20 ADD PUSH1 0x3 PUSH1 0xFF AND DUP2 MSTORE PUSH1 0x20 ADD PUSH1 0x3 PUSH1 0xFF AND DUP2 MSTORE PUSH1 0x20 ADD PUSH1 0x1 PUSH1 0xFF AND DUP2 MSTORE PUSH1 0x20 ADD PUSH1 0x1 PUSH1 0xFF AND DUP2 MSTORE PUSH1 0x20 ADD PUSH1 0x2 PUSH1 0xFF AND DUP2 MSTORE PUSH1 0x20 ADD PUSH1 0x2 PUSH1 0xFF AND DUP2 MSTORE PUSH1 0x20 ADD PUSH1 0x2 PUSH1 0xFF AND DUP2 MSTORE PUSH1 0x20 ADD PUSH1 0x2 PUSH1 0xFF AND DUP2 MSTORE PUSH1 0x20 ADD PUSH1 0x2 PUSH1 0xFF AND DUP2 MSTORE PUSH1 0x20 ADD PUSH1 0x2 PUSH1 0xFF AND DUP2 MSTORE PUSH1 0x20 ADD PUSH1 0x1 PUSH1 0xFF AND DUP2 MSTORE PUSH1 0x20 ADD PUSH1 0x2 PUSH1 0xFF AND DUP2 MSTORE PUSH1 0x20 ADD PUSH1 0x2 PUSH1 0xFF AND DUP2 MSTORE PUSH1 0x20 ADD PUSH1 0x2 PUSH1 0xFF AND DUP2 MSTORE PUSH1 0x20 ADD PUSH1 0x2 PUSH1 0xFF AND DUP2 MSTORE PUSH1 0x20 ADD PUSH1 0x2 PUSH1 0xFF AND DUP2 MSTORE PUSH1 0x20 ADD PUSH1 0x2 PUSH1 0xFF AND DUP2 MSTORE PUSH1 0x20 ADD PUSH1 0x2 PUSH1 0xFF AND DUP2 MSTORE PUSH1 0x20 ADD PUSH1 0x1 PUSH1 0xFF AND DUP2 MSTORE POP DUP2 MSTORE PUSH1 0x20 ADD PUSH1 0x40 MLOAD DUP1 PUSH2 0x280 ADD PUSH1 0x40 MSTORE DUP1 PUSH1 0x1 PUSH1 0xFF AND DUP2 MSTORE PUSH1 0x20 ADD PUSH1 0x2 PUSH1 0xFF AND DUP2 MSTORE PUSH1 0x20 ADD PUSH1 0x2 PUSH1 0xFF AND DUP2 MSTORE PUSH1 0x20 ADD PUSH1 0x1 PUSH1 0xFF AND DUP2 MSTORE PUSH1 0x20 ADD PUSH1 0x2 PUSH1 0xFF AND DUP2 MSTORE PUSH1 0x20 ADD PUSH1 0x2 PUSH1 0xFF AND DUP2 MSTORE PUSH1 0x20 ADD PUSH1 0x2 PUSH1 0xFF AND DUP2 MSTORE PUSH1 0x20 ADD PUSH1 0x2 PUSH1 0xFF AND DUP2 MSTORE PUSH1 0x20 ADD PUSH1 0x2 PUSH1 0xFF AND DUP2 MSTORE PUSH1 0x20 ADD PUSH1 0x2 PUSH1 0xFF AND DUP2 MSTORE PUSH1 0x20 ADD PUSH1 0x2 PUSH1 0xFF AND DUP2 MSTORE PUSH1 0x20 ADD PUSH1 0x1 PUSH1 0xFF AND DUP2 MSTORE PUSH1 0x20 ADD PUSH1 0x2 PUSH1 0xFF AND DUP2 MSTORE PUSH1 0x20 ADD PUSH1 0x2 PUSH1 0xFF AND DUP2 MSTORE PUSH1 0x20 ADD PUSH1 0x2 PUSH1 0xFF AND DUP2 MSTORE PUSH1 0x20 ADD PUSH1 0x2 PUSH1 0xFF AND DUP2 MSTORE PUSH1 0x20 ADD PUSH1 0x2 PUSH1 0xFF AND DUP2 MSTORE PUSH1 0x20 ADD PUSH1 0x2 PUSH1 0xFF AND DUP2 MSTORE PUSH1 0x20 ADD PUSH1 0x2 PUSH1 0xFF AND DUP2 MSTORE PUSH1 0x20 ADD PUSH1 0x1 PUSH1 0xFF AND DUP2 MSTORE POP DUP2 MSTORE PUSH1 0x20 ADD PUSH1 0x40 MLOAD DUP1 PUSH2 0x280 ADD PUSH1 0x40 MSTORE DUP1 PUSH1 0x2 PUSH1 0xFF AND DUP2 MSTORE PUSH1 0x20 ADD PUSH1 0x2 PUSH1 0xFF AND DUP2 MSTORE PUSH1 0x20 ADD PUSH1 0x1 PUSH1 0xFF AND DUP2 MSTORE PUSH1 0x20 ADD PUSH1 0x1 PUSH1 0xFF AND DUP2 MSTORE PUSH1 0x20 ADD PUSH1 0x2 PUSH1 0xFF AND DUP2 MSTORE PUSH1 0x20 ADD PUSH1 0x2 PUSH1 0xFF AND DUP2 MSTORE PUSH1 0x20 ADD PUSH1 0x2 PUSH1 0xFF AND DUP2 MSTORE PUSH1 0x20 ADD PUSH1 0x2 PUSH1 0xFF AND DUP2 MSTORE PUSH1 0x20 ADD PUSH1 0x2 PUSH1 0xFF AND DUP2 MSTORE PUSH1 0x20 ADD PUSH1 0x2 PUSH1 0xFF AND DUP2 MSTORE PUSH1 0x20 ADD PUSH1 0x1 PUSH1 0xFF AND DUP2 MSTORE PUSH1 0x20 ADD PUSH1 0x1 PUSH1 0xFF AND DUP2 MSTORE PUSH1 0x20 ADD PUSH1 0x2 PUSH1 0xFF AND DUP2 MSTORE PUSH1 0x20 ADD PUSH1 0x2 PUSH1 0xFF AND DUP2 MSTORE PUSH1 0x20 ADD PUSH1 0x2 PUSH1 0xFF AND DUP2 MSTORE PUSH1 0x20 ADD PUSH1 0x2 PUSH1 0xFF AND DUP2 MSTORE PUSH1 0x20 ADD PUSH1 0x2 PUSH1 0xFF AND DUP2 MSTORE PUSH1 0x20 ADD PUSH1 0x2 PUSH1 0xFF AND DUP2 MSTORE PUSH1 0x20 ADD PUSH1 0x1 PUSH1 0xFF AND DUP2 MSTORE PUSH1 0x20 ADD PUSH1 0x1 PUSH1 0xFF AND DUP2 MSTORE POP DUP2 MSTORE PUSH1 0x20 ADD PUSH1 0x40 MLOAD DUP1 PUSH2 0x280 ADD PUSH1 0x40 MSTORE DUP1 PUSH1 0x3 PUSH1 0xFF AND DUP2 MSTORE PUSH1 0x20 ADD PUSH1 0x3 PUSH1 0xFF AND DUP2 MSTORE PUSH1 0x20 ADD PUSH1 0x3 PUSH1 0xFF AND DUP2 MSTORE PUSH1 0x20 ADD PUSH1 0x2 PUSH1 0xFF AND DUP2 MSTORE PUSH1 0x20 ADD PUSH1 0x1 PUSH1 0xFF AND DUP2 MSTORE PUSH1 0x20 ADD PUSH1 0x2 PUSH1 0xFF AND DUP2 MSTORE PUSH1 0x20 ADD PUSH1 0x2 PUSH1 0xFF AND DUP2 MSTORE PUSH1 0x20 ADD PUSH1 0x2 PUSH1 0xFF AND DUP2 MSTORE PUSH1 0x20 ADD PUSH1 0x2 PUSH1 0xFF AND DUP2 MSTORE PUSH1 0x20 ADD PUSH1 0x2 PUSH1 0xFF AND DUP2 MSTORE PUSH1 0x20 ADD PUSH1 0x1 PUSH1 0xFF AND DUP2 MSTORE PUSH1 0x20 ADD PUSH1 0x2 PUSH1 0xFF AND DUP2 MSTORE PUSH1 0x20 ADD PUSH1 0x2 PUSH1 0xFF AND DUP2 MSTORE PUSH1 0x20 ADD PUSH1 0x2 PUSH1 0xFF AND DUP2 MSTORE PUSH1 0x20 ADD PUSH1 0x2 PUSH1 0xFF AND DUP2 MSTORE PUSH1 0x20 ADD PUSH1 0x1 PUSH1 0xFF AND DUP2 MSTORE PUSH1 0x20 ADD PUSH1 0x1 PUSH1 0xFF AND DUP2 MSTORE PUSH1 0x20 ADD PUSH1 0x1 PUSH1 0xFF AND DUP2 MSTORE PUSH1 0x20 ADD PUSH1 0x1 PUSH1 0xFF AND DUP2 MSTORE PUSH1 0x20 ADD PUSH1 0x1 PUSH1 0xFF AND DUP2 MSTORE POP DUP2 MSTORE PUSH1 0x20 ADD PUSH1 0x40 MLOAD DUP1 PUSH2 0x280 ADD PUSH1 0x40 MSTORE DUP1 PUSH1 0x3 PUSH1 0xFF AND DUP2 MSTORE PUSH1 0x20 ADD PUSH1 0x3 PUSH1 0xFF AND DUP2 MSTORE PUSH1 0x20 ADD PUSH1 0x3 PUSH1 0xFF AND DUP2 MSTORE PUSH1 0x20 ADD PUSH1 0x3 PUSH1 0xFF AND DUP2 MSTORE PUSH1 0x20 ADD PUSH1 0x1 PUSH1 0xFF AND DUP2 MSTORE PUSH1 0x20 ADD PUSH1 0x1 PUSH1 0xFF AND DUP2 MSTORE PUSH1 0x20 ADD PUSH1 0x2 PUSH1 0xFF AND DUP2 MSTORE PUSH1 0x20 ADD PUSH1 0x2 PUSH1 0xFF AND DUP2 MSTORE PUSH1 0x20 ADD PUSH1 0x2 PUSH1 0xFF AND DUP2 MSTORE PUSH1 0x20 ADD PUSH1 0x2 PUSH1 0xFF AND DUP2 MSTORE PUSH1 0x20 ADD PUSH1 0x1 PUSH1 0xFF AND DUP2 MSTORE PUSH1 0x20 ADD PUSH1 0x1 PUSH1 0xFF AND DUP2 MSTORE PUSH1 0x20 ADD PUSH1 0x2 PUSH1 0xFF AND DUP2 MSTORE PUSH1 0x20 ADD PUSH1 0x2 PUSH1 0xFF AND DUP2 MSTORE PUSH1 0x20 ADD PUSH1 0x2 PUSH1 0xFF AND DUP2 MSTORE PUSH1 0x20 ADD PUSH1 0x1 PUSH1 0xFF AND DUP2 MSTORE PUSH1 0x20 ADD PUSH1 0x1 PUSH1 0xFF AND DUP2 MSTORE PUSH1 0x20 ADD PUSH1 0x1 PUSH1 0xFF AND DUP2 MSTORE PUSH1 0x20 ADD PUSH1 0x1 PUSH1 0xFF AND DUP2 MSTORE PUSH1 0x20 ADD PUSH1 0x1 PUSH1 0xFF AND DUP2 MSTORE POP DUP2 MSTORE PUSH1 0x20 ADD PUSH1 0x40 MLOAD DUP1 PUSH2 0x280 ADD PUSH1 0x40 MSTORE DUP1 PUSH1 0x3 PUSH1 0xFF AND DUP2 MSTORE PUSH1 0x20 ADD PUSH1 0x3 PUSH1 0xFF AND DUP2 MSTORE PUSH1 0x20 ADD PUSH1 0x3 PUSH1 0xFF AND DUP2 MSTORE PUSH1 0x20 ADD PUSH1 0x3 PUSH1 0xFF AND DUP2 MSTORE PUSH1 0x20 ADD PUSH1 0x3 PUSH1 0xFF AND DUP2 MSTORE PUSH1 0x20 ADD PUSH1 0x1 PUSH1 0xFF AND DUP2 MSTORE PUSH1 0x20 ADD PUSH1 0x2 PUSH1 0xFF AND DUP2 MSTORE PUSH1 0x20 ADD PUSH1 0x2 PUSH1 0xFF AND DUP2 MSTORE PUSH1 0x20 ADD PUSH1 0x2 PUSH1 0xFF AND DUP2 MSTORE PUSH1 0x20 ADD PUSH1 0x2 PUSH1 0xFF AND DUP2 MSTORE PUSH1 0x20 ADD PUSH1 0x1 PUSH1 0xFF AND DUP2 MSTORE PUSH1 0x20 ADD PUSH1 0x1 PUSH1 0xFF AND DUP2 MSTORE PUSH1 0x20 ADD PUSH1 0x1 PUSH1 0xFF AND DUP2 MSTORE PUSH1 0x20 ADD PUSH1 0x2 PUSH1 0xFF AND DUP2 MSTORE PUSH1 0x20 ADD PUSH1 0x2 PUSH1 0xFF AND DUP2 MSTORE PUSH1 0x20 ADD PUSH1 0x2 PUSH1 0xFF AND DUP2 MSTORE PUSH1 0x20 ADD PUSH1 0x2 PUSH1 0xFF AND DUP2 MSTORE PUSH1 0x20 ADD PUSH1 0x1 PUSH1 0xFF AND DUP2 MSTORE PUSH1 0x20 ADD PUSH1 0x1 PUSH1 0xFF AND DUP2 MSTORE PUSH1 0x20 ADD PUSH1 0x1 PUSH1 0xFF AND DUP2 MSTORE POP DUP2 MSTORE PUSH1 0x20 ADD PUSH1 0x40 MLOAD DUP1 PUSH2 0x280 ADD PUSH1 0x40 MSTORE DUP1 PUSH1 0x3 PUSH1 0xFF AND DUP2 MSTORE PUSH1 0x20 ADD PUSH1 0x3 PUSH1 0xFF AND DUP2 MSTORE PUSH1 0x20 ADD PUSH1 0x3 PUSH1 0xFF AND DUP2 MSTORE PUSH1 0x20 ADD PUSH1 0x3 PUSH1 0xFF AND DUP2 MSTORE PUSH1 0x20 ADD PUSH1 0x3 PUSH1 0xFF AND DUP2 MSTORE PUSH1 0x20 ADD PUSH1 0x2 PUSH1 0xFF AND DUP2 MSTORE PUSH1 0x20 ADD PUSH1 0x2 PUSH1 0xFF AND DUP2 MSTORE PUSH1 0x20 ADD PUSH1 0x2 PUSH1 0xFF AND DUP2 MSTORE PUSH1 0x20 ADD PUSH1 0x3 PUSH1 0xFF AND DUP2 MSTORE PUSH1 0x20 ADD PUSH1 0x3 PUSH1 0xFF AND DUP2 MSTORE PUSH1 0x20 ADD PUSH1 0x2 PUSH1 0xFF AND DUP2 MSTORE PUSH1 0x20 ADD PUSH1 0x2 PUSH1 0xFF AND DUP2 MSTORE PUSH1 0x20 ADD PUSH1 0x1 PUSH1 0xFF AND DUP2 MSTORE PUSH1 0x20 ADD PUSH1 0x2 PUSH1 0xFF AND DUP2 MSTORE PUSH1 0x20 ADD PUSH1 0x2 PUSH1 0xFF AND DUP2 MSTORE PUSH1 0x20 ADD PUSH1 0x2 PUSH1 0xFF AND DUP2 MSTORE PUSH1 0x20 ADD PUSH1 0x2 PUSH1 0xFF AND DUP2 MSTORE PUSH1 0x20 ADD PUSH1 0x1 PUSH1 0xFF AND DUP2 MSTORE PUSH1 0x20 ADD PUSH1 0x1 PUSH1 0xFF AND DUP2 MSTORE PUSH1 0x20 ADD PUSH1 0x1 PUSH1 0xFF AND DUP2 MSTORE POP DUP2 MSTORE PUSH1 0x20 ADD PUSH1 0x40 MLOAD DUP1 PUSH2 0x280 ADD PUSH1 0x40 MSTORE DUP1 PUSH1 0x2 PUSH1 0xFF AND DUP2 MSTORE PUSH1 0x20 ADD PUSH1 0x2 PUSH1 0xFF AND DUP2 MSTORE PUSH1 0x20 ADD PUSH1 0x2 PUSH1 0xFF AND DUP2 MSTORE PUSH1 0x20 ADD PUSH1 0x1 PUSH1 0xFF AND DUP2 MSTORE PUSH1 0x20 ADD PUSH1 0x1 PUSH1 0xFF AND DUP2 MSTORE PUSH1 0x20 ADD PUSH1 0x1 PUSH1 0xFF AND DUP2 MSTORE PUSH1 0x20 ADD PUSH1 0x1 PUSH1 0xFF AND DUP2 MSTORE PUSH1 0x20 ADD PUSH1 0x1 PUSH1 0xFF AND DUP2 MSTORE PUSH1 0x20 ADD PUSH1 0x3 PUSH1 0xFF AND DUP2 MSTORE PUSH1 0x20 ADD PUSH1 0x3 PUSH1 0xFF AND DUP2 MSTORE PUSH1 0x20 ADD PUSH1 0x3 PUSH1 0xFF AND DUP2 MSTORE PUSH1 0x20 ADD PUSH1 0x3 PUSH1 0xFF AND DUP2 MSTORE PUSH1 0x20 ADD PUSH1 0x1 PUSH1 0xFF AND DUP2 MSTORE PUSH1 0x20 ADD PUSH1 0x1 PUSH1 0xFF AND DUP2 MSTORE PUSH1 0x20 ADD PUSH1 0x2 PUSH1 0xFF AND DUP2 MSTORE PUSH1 0x20 ADD PUSH1 0x2 PUSH1 0xFF AND DUP2 MSTORE PUSH1 0x20 ADD PUSH1 0x2 PUSH1 0xFF AND DUP2 MSTORE PUSH1 0x20 ADD PUSH1 0x1 PUSH1 0xFF AND DUP2 MSTORE PUSH1 0x20 ADD PUSH1 0x1 PUSH1 0xFF AND DUP2 MSTORE PUSH1 0x20 ADD PUSH1 0x1 PUSH1 0xFF AND DUP2 MSTORE POP DUP2 MSTORE PUSH1 0x20 ADD PUSH1 0x40 MLOAD DUP1 PUSH2 0x280 ADD PUSH1 0x40 MSTORE DUP1 PUSH1 0x2 PUSH1 0xFF AND DUP2 MSTORE PUSH1 0x20 ADD PUSH1 0x2 PUSH1 0xFF AND DUP2 MSTORE PUSH1 0x20 ADD PUSH1 0x2 PUSH1 0xFF AND DUP2 MSTORE PUSH1 0x20 ADD PUSH1 0x2 PUSH1 0xFF AND DUP2 MSTORE PUSH1 0x20 ADD PUSH1 0x2 PUSH1 0xFF AND DUP2 MSTORE PUSH1 0x20 ADD PUSH1 0x2 PUSH1 0xFF AND DUP2 MSTORE PUSH1 0x20 ADD PUSH1 0x1 PUSH1 0xFF AND DUP2 MSTORE PUSH1 0x20 ADD PUSH1 0x1 PUSH1 0xFF AND DUP2 MSTORE PUSH1 0x20 ADD PUSH1 0x3 PUSH1 0xFF AND DUP2 MSTORE PUSH1 0x20 ADD PUSH1 0x3 PUSH1 0xFF AND DUP2 MSTORE PUSH1 0x20 ADD PUSH1 0x3 PUSH1 0xFF AND DUP2 MSTORE PUSH1 0x20 ADD PUSH1 0x3 PUSH1 0xFF AND DUP2 MSTORE PUSH1 0x20 ADD PUSH1 0x1 PUSH1 0xFF AND DUP2 MSTORE PUSH1 0x20 ADD PUSH1 0x1 PUSH1 0xFF AND DUP2 MSTORE PUSH1 0x20 ADD PUSH1 0x1 PUSH1 0xFF AND DUP2 MSTORE PUSH1 0x20 ADD PUSH1 0x1 PUSH1 0xFF AND DUP2 MSTORE PUSH1 0x20 ADD PUSH1 0x3 PUSH1 0xFF AND DUP2 MSTORE PUSH1 0x20 ADD PUSH1 0x3 PUSH1 0xFF AND DUP2 MSTORE PUSH1 0x20 ADD PUSH1 0x2 PUSH1 0xFF AND DUP2 MSTORE PUSH1 0x20 ADD PUSH1 0x2 PUSH1 0xFF AND DUP2 MSTORE POP DUP2 MSTORE PUSH1 0x20 ADD PUSH1 0x40 MLOAD DUP1 PUSH2 0x280 ADD PUSH1 0x40 MSTORE DUP1 PUSH1 0x2 PUSH1 0xFF AND DUP2 MSTORE PUSH1 0x20 ADD PUSH1 0x2 PUSH1 0xFF AND DUP2 MSTORE PUSH1 0x20 ADD PUSH1 0x2 PUSH1 0xFF AND DUP2 MSTORE PUSH1 0x20 ADD PUSH1 0x2 PUSH1 0xFF AND DUP2 MSTORE PUSH1 0x20 ADD PUSH1 0x2 PUSH1 0xFF AND DUP2 MSTORE PUSH1 0x20 ADD PUSH1 0x2 PUSH1 0xFF AND DUP2 MSTORE PUSH1 0x20 ADD PUSH1 0x2 PUSH1 0xFF AND DUP2 MSTORE PUSH1 0x20 ADD PUSH1 0x1 PUSH1 0xFF AND DUP2 MSTORE PUSH1 0x20 ADD PUSH1 0x3 PUSH1 0xFF AND DUP2 MSTORE PUSH1 0x20 ADD PUSH1 0x3 PUSH1 0xFF AND DUP2 MSTORE PUSH1 0x20 ADD PUSH1 0x3 PUSH1 0xFF AND DUP2 MSTORE PUSH1 0x20 ADD PUSH1 0x3 PUSH1 0xFF AND DUP2 MSTORE PUSH1 0x20 ADD PUSH1 0x1 PUSH1 0xFF AND DUP2 MSTORE PUSH1 0x20 ADD PUSH1 0x1 PUSH1 0xFF AND DUP2 MSTORE PUSH1 0x20 ADD PUSH1 0x1 PUSH1 0xFF AND DUP2 MSTORE PUSH1 0x20 ADD PUSH1 0x1 PUSH1 0xFF AND DUP2 MSTORE PUSH1 0x20 ADD PUSH1 0x3 PUSH1 0xFF AND DUP2 MSTORE PUSH1 0x20 ADD PUSH1 0x3 PUSH1 0xFF AND DUP2 MSTORE PUSH1 0x20 ADD PUSH1 0x2 PUSH1 0xFF AND DUP2 MSTORE PUSH1 0x20 ADD PUSH1 0x2 PUSH1 0xFF AND DUP2 MSTORE POP DUP2 MSTORE PUSH1 0x20 ADD PUSH1 0x40 MLOAD DUP1 PUSH2 0x280 ADD PUSH1 0x40 MSTORE DUP1 PUSH1 0x2 PUSH1 0xFF AND DUP2 MSTORE PUSH1 0x20 ADD PUSH1 0x2 PUSH1 0xFF AND DUP2 MSTORE PUSH1 0x20 ADD PUSH1 0x2 PUSH1 0xFF AND DUP2 MSTORE PUSH1 0x20 ADD PUSH1 0x2 PUSH1 0xFF AND DUP2 MSTORE PUSH1 0x20 ADD PUSH1 0x2 PUSH1 0xFF AND DUP2 MSTORE PUSH1 0x20 ADD PUSH1 0x2 PUSH1 0xFF AND DUP2 MSTORE PUSH1 0x20 ADD PUSH1 0x2 PUSH1 0xFF AND DUP2 MSTORE PUSH1 0x20 ADD PUSH1 0x1 PUSH1 0xFF AND DUP2 MSTORE PUSH1 0x20 ADD PUSH1 0x1 PUSH1 0xFF AND DUP2 MSTORE PUSH1 0x20 ADD PUSH1 0x2 PUSH1 0xFF AND DUP2 MSTORE PUSH1 0x20 ADD PUSH1 0x2 PUSH1 0xFF AND DUP2 MSTORE PUSH1 0x20 ADD PUSH1 0x1 PUSH1 0xFF AND DUP2 MSTORE PUSH1 0x20 ADD PUSH1 0x1 PUSH1 0xFF AND DUP2 MSTORE PUSH1 0x20 ADD PUSH1 0x2 PUSH1 0xFF AND DUP2 MSTORE PUSH1 0x20 ADD PUSH1 0x2 PUSH1 0xFF AND DUP2 MSTORE PUSH1 0x20 ADD PUSH1 0x1 PUSH1 0xFF AND DUP2 MSTORE PUSH1 0x20 ADD PUSH1 0x3 PUSH1 0xFF AND DUP2 MSTORE PUSH1 0x20 ADD PUSH1 0x3 PUSH1 0xFF AND DUP2 MSTORE PUSH1 0x20 ADD PUSH1 0x2 PUSH1 0xFF AND DUP2 MSTORE PUSH1 0x20 ADD PUSH1 0x2 PUSH1 0xFF AND DUP2 MSTORE POP DUP2 MSTORE PUSH1 0x20 ADD PUSH1 0x40 MLOAD DUP1 PUSH2 0x280 ADD PUSH1 0x40 MSTORE DUP1 PUSH1 0x2 PUSH1 0xFF AND DUP2 MSTORE PUSH1 0x20 ADD PUSH1 0x2 PUSH1 0xFF AND DUP2 MSTORE PUSH1 0x20 ADD PUSH1 0x2 PUSH1 0xFF AND DUP2 MSTORE PUSH1 0x20 ADD PUSH1 0x2 PUSH1 0xFF AND DUP2 MSTORE PUSH1 0x20 ADD PUSH1 0x2 PUSH1 0xFF AND DUP2 MSTORE PUSH1 0x20 ADD PUSH1 0x2 PUSH1 0xFF AND DUP2 MSTORE PUSH1 0x20 ADD PUSH1 0x2 PUSH1 0xFF AND DUP2 MSTORE PUSH1 0x20 ADD PUSH1 0x1 PUSH1 0xFF AND DUP2 MSTORE PUSH1 0x20 ADD PUSH1 0x1 PUSH1 0xFF AND DUP2 MSTORE PUSH1 0x20 ADD PUSH1 0x1 PUSH1 0xFF AND DUP2 MSTORE PUSH1 0x20 ADD PUSH1 0x1 PUSH1 0xFF AND DUP2 MSTORE PUSH1 0x20 ADD PUSH1 0x1 PUSH1 0xFF AND DUP2 MSTORE PUSH1 0x20 ADD PUSH1 0x1 PUSH1 0xFF AND DUP2 MSTORE PUSH1 0x20 ADD PUSH1 0x1 PUSH1 0xFF AND DUP2 MSTORE PUSH1 0x20 ADD PUSH1 0x1 PUSH1 0xFF AND DUP2 MSTORE PUSH1 0x20 ADD PUSH1 0x3 PUSH1 0xFF AND DUP2 MSTORE PUSH1 0x20 ADD PUSH1 0x3 PUSH1 0xFF AND DUP2 MSTORE PUSH1 0x20 ADD PUSH1 0x3 PUSH1 0xFF AND DUP2 MSTORE PUSH1 0x20 ADD PUSH1 0x2 PUSH1 0xFF AND DUP2 MSTORE PUSH1 0x20 ADD PUSH1 0x2 PUSH1 0xFF AND DUP2 MSTORE POP DUP2 MSTORE POP PUSH2 0x4B6 SWAP1 PUSH1 0x14 PUSH3 0x10ED SWAP3 SWAP2 SWAP1 PUSH3 0x11F4 JUMP JUMPDEST POP CALLVALUE DUP1 ISZERO PUSH3 0x10FB JUMPI PUSH1 0x0 DUP1 REVERT JUMPDEST POP PUSH1 0x40 MLOAD PUSH3 0x5555 CODESIZE SUB DUP1 PUSH3 0x5555 DUP4 CODECOPY DUP2 DUP2 ADD PUSH1 0x40 MSTORE DUP2 ADD SWAP1 PUSH3 0x1121 SWAP2 SWAP1 PUSH3 0x13A2 JUMP JUMPDEST PUSH1 0x1 PUSH1 0x0 DUP2 SWAP1 SSTORE POP CALLER PUSH1 0x1 PUSH1 0x0 PUSH2 0x100 EXP DUP2 SLOAD DUP2 PUSH20 0xFFFFFFFFFFFFFFFFFFFFFFFFFFFFFFFFFFFFFFFF MUL NOT AND SWAP1 DUP4 PUSH20 0xFFFFFFFFFFFFFFFFFFFFFFFFFFFFFFFFFFFFFFFF AND MUL OR SWAP1 SSTORE POP DUP2 PUSH1 0x3 PUSH1 0x0 PUSH2 0x100 EXP DUP2 SLOAD DUP2 PUSH20 0xFFFFFFFFFFFFFFFFFFFFFFFFFFFFFFFFFFFFFFFF MUL NOT AND SWAP1 DUP4 PUSH20 0xFFFFFFFFFFFFFFFFFFFFFFFFFFFFFFFFFFFFFFFF AND MUL OR SWAP1 SSTORE POP DUP1 PUSH1 0x5 PUSH1 0x0 PUSH2 0x100 EXP DUP2 SLOAD DUP2 PUSH20 0xFFFFFFFFFFFFFFFFFFFFFFFFFFFFFFFFFFFFFFFF MUL NOT AND SWAP1 DUP4 PUSH20 0xFFFFFFFFFFFFFFFFFFFFFFFFFFFFFFFFFFFFFFFF AND MUL OR SWAP1 SSTORE POP POP POP PUSH3 0x13E9 JUMP JUMPDEST DUP3 PUSH1 0x14 DUP2 ADD SWAP3 DUP3 ISZERO PUSH3 0x1236 JUMPI SWAP2 PUSH1 0x20 MUL DUP3 ADD JUMPDEST DUP3 DUP2 GT ISZERO PUSH3 0x1235 JUMPI DUP3 MLOAD DUP3 SWAP1 PUSH1 0x14 PUSH3 0x1224 SWAP3 SWAP2 SWAP1 PUSH3 0x1249 JUMP JUMPDEST POP SWAP2 PUSH1 0x20 ADD SWAP2 SWAP1 PUSH1 0x1 ADD SWAP1 PUSH3 0x1208 JUMP JUMPDEST JUMPDEST POP SWAP1 POP PUSH3 0x1245 SWAP2 SWAP1 PUSH3 0x12EA JUMP JUMPDEST POP SWAP1 JUMP JUMPDEST DUP3 PUSH1 0x14 PUSH1 0x1F ADD PUSH1 0x20 SWAP1 DIV DUP2 ADD SWAP3 DUP3 ISZERO PUSH3 0x12D7 JUMPI SWAP2 PUSH1 0x20 MUL DUP3 ADD PUSH1 0x0 JUMPDEST DUP4 DUP3 GT ISZERO PUSH3 0x12A6 JUMPI DUP4 MLOAD DUP4 DUP3 PUSH2 0x100 EXP DUP2 SLOAD DUP2 PUSH1 0xFF MUL NOT AND SWAP1 DUP4 PUSH1 0xFF AND MUL OR SWAP1 SSTORE POP SWAP3 PUSH1 0x20 ADD SWAP3 PUSH1 0x1 ADD PUSH1 0x20 DUP2 PUSH1 0x0 ADD DIV SWAP3 DUP4 ADD SWAP3 PUSH1 0x1 SUB MUL PUSH3 0x1266 JUMP JUMPDEST DUP1 ISZERO PUSH3 0x12D5 JUMPI DUP3 DUP2 PUSH2 0x100 EXP DUP2 SLOAD SWAP1 PUSH1 0xFF MUL NOT AND SWAP1 SSTORE PUSH1 0x1 ADD PUSH1 0x20 DUP2 PUSH1 0x0 ADD DIV SWAP3 DUP4 ADD SWAP3 PUSH1 0x1 SUB MUL PUSH3 0x12A6 JUMP JUMPDEST POP JUMPDEST POP SWAP1 POP PUSH3 0x12E6 SWAP2 SWAP1 PUSH3 0x1312 JUMP JUMPDEST POP SWAP1 JUMP JUMPDEST JUMPDEST DUP1 DUP3 GT ISZERO PUSH3 0x130E JUMPI PUSH1 0x0 DUP2 DUP2 PUSH3 0x1304 SWAP2 SWAP1 PUSH3 0x1331 JUMP JUMPDEST POP PUSH1 0x1 ADD PUSH3 0x12EB JUMP JUMPDEST POP SWAP1 JUMP JUMPDEST JUMPDEST DUP1 DUP3 GT ISZERO PUSH3 0x132D JUMPI PUSH1 0x0 DUP2 PUSH1 0x0 SWAP1 SSTORE POP PUSH1 0x1 ADD PUSH3 0x1313 JUMP JUMPDEST POP SWAP1 JUMP JUMPDEST POP PUSH1 0x0 SWAP1 SSTORE JUMP JUMPDEST PUSH1 0x0 DUP1 REVERT JUMPDEST PUSH1 0x0 PUSH20 0xFFFFFFFFFFFFFFFFFFFFFFFFFFFFFFFFFFFFFFFF DUP3 AND SWAP1 POP SWAP2 SWAP1 POP JUMP JUMPDEST PUSH1 0x0 PUSH3 0x136A DUP3 PUSH3 0x133D JUMP JUMPDEST SWAP1 POP SWAP2 SWAP1 POP JUMP JUMPDEST PUSH3 0x137C DUP2 PUSH3 0x135D JUMP JUMPDEST DUP2 EQ PUSH3 0x1388 JUMPI PUSH1 0x0 DUP1 REVERT JUMPDEST POP JUMP JUMPDEST PUSH1 0x0 DUP2 MLOAD SWAP1 POP PUSH3 0x139C DUP2 PUSH3 0x1371 JUMP JUMPDEST SWAP3 SWAP2 POP POP JUMP JUMPDEST PUSH1 0x0 DUP1 PUSH1 0x40 DUP4 DUP6 SUB SLT ISZERO PUSH3 0x13BC JUMPI PUSH3 0x13BB PUSH3 0x1338 JUMP JUMPDEST JUMPDEST PUSH1 0x0 PUSH3 0x13CC DUP6 DUP3 DUP7 ADD PUSH3 0x138B JUMP JUMPDEST SWAP3 POP POP PUSH1 0x20 PUSH3 0x13DF DUP6 DUP3 DUP7 ADD PUSH3 0x138B JUMP JUMPDEST SWAP2 POP POP SWAP3 POP SWAP3 SWAP1 POP JUMP JUMPDEST PUSH2 0x415C DUP1 PUSH3 0x13F9 PUSH1 0x0 CODECOPY PUSH1 0x0 RETURN INVALID PUSH1 0x80 PUSH1 0x40 MSTORE CALLVALUE DUP1 ISZERO PUSH2 0x10 JUMPI PUSH1 0x0 DUP1 REVERT JUMPDEST POP PUSH1 0x4 CALLDATASIZE LT PUSH2 0x173 JUMPI PUSH1 0x0 CALLDATALOAD PUSH1 0xE0 SHR DUP1 PUSH4 0x503D4C8D GT PUSH2 0xDE JUMPI DUP1 PUSH4 0xBC4462DE GT PUSH2 0x97 JUMPI DUP1 PUSH4 0xD0EBDBE7 GT PUSH2 0x71 JUMPI DUP1 PUSH4 0xD0EBDBE7 EQ PUSH2 0x48F JUMPI DUP1 PUSH4 0xD21CACDF EQ PUSH2 0x4AB JUMPI DUP1 PUSH4 0xD855E7E1 EQ PUSH2 0x4DB JUMPI DUP1 PUSH4 0xDB3543F5 EQ PUSH2 0x4F7 JUMPI PUSH2 0x173 JUMP JUMPDEST DUP1 PUSH4 0xBC4462DE EQ PUSH2 0x423 JUMPI DUP1 PUSH4 0xBC9147A4 EQ PUSH2 0x441 JUMPI DUP1 PUSH4 0xBC9955A2 EQ PUSH2 0x45F JUMPI PUSH2 0x173 JUMP JUMPDEST DUP1 PUSH4 0x503D4C8D EQ PUSH2 0x348 JUMPI DUP1 PUSH4 0x62CB4694 EQ PUSH2 0x352 JUMPI DUP1 PUSH4 0x8A115F0B EQ PUSH2 0x383 JUMPI DUP1 PUSH4 0x8A3D7CDC EQ PUSH2 0x3A1 JUMPI DUP1 PUSH4 0x8A888953 EQ PUSH2 0x3D5 JUMPI DUP1 PUSH4 0x8DA5CB5B EQ PUSH2 0x405 JUMPI PUSH2 0x173 JUMP JUMPDEST DUP1 PUSH4 0x2EF761D3 GT PUSH2 0x130 JUMPI DUP1 PUSH4 0x2EF761D3 EQ PUSH2 0x274 JUMPI DUP1 PUSH4 0x323FD7B7 EQ PUSH2 0x290 JUMPI DUP1 PUSH4 0x426EA0D2 EQ PUSH2 0x2C0 JUMPI DUP1 PUSH4 0x481C6A75 EQ PUSH2 0x2DE JUMPI DUP1 PUSH4 0x4A9FEFC7 EQ PUSH2 0x2FC JUMPI DUP1 PUSH4 0x50328BDD EQ PUSH2 0x32C JUMPI PUSH2 0x173 JUMP JUMPDEST DUP1 PUSH4 0xD67F59E EQ PUSH2 0x178 JUMPI DUP1 PUSH4 0x1A32EBB6 EQ PUSH2 0x196 JUMPI DUP1 PUSH4 0x1B64F93D EQ PUSH2 0x1B4 JUMPI DUP1 PUSH4 0x2400A3B0 EQ PUSH2 0x1E4 JUMPI DUP1 PUSH4 0x2672BECB EQ PUSH2 0x214 JUMPI DUP1 PUSH4 0x2CFDF9B1 EQ PUSH2 0x244 JUMPI JUMPDEST PUSH1 0x0 DUP1 REVERT JUMPDEST PUSH2 0x180 PUSH2 0x513 JUMP JUMPDEST PUSH1 0x40 MLOAD PUSH2 0x18D SWAP2 SWAP1 PUSH2 0x2F12 JUMP JUMPDEST PUSH1 0x40 MLOAD DUP1 SWAP2 SUB SWAP1 RETURN JUMPDEST PUSH2 0x19E PUSH2 0x539 JUMP JUMPDEST PUSH1 0x40 MLOAD PUSH2 0x1AB SWAP2 SWAP1 PUSH2 0x2F49 JUMP JUMPDEST PUSH1 0x40 MLOAD DUP1 SWAP2 SUB SWAP1 RETURN JUMPDEST PUSH2 0x1CE PUSH1 0x4 DUP1 CALLDATASIZE SUB DUP2 ADD SWAP1 PUSH2 0x1C9 SWAP2 SWAP1 PUSH2 0x2FDD JUMP JUMPDEST PUSH2 0x53E JUMP JUMPDEST PUSH1 0x40 MLOAD PUSH2 0x1DB SWAP2 SWAP1 PUSH2 0x302C JUMP JUMPDEST PUSH1 0x40 MLOAD DUP1 SWAP2 SUB SWAP1 RETURN JUMPDEST PUSH2 0x1FE PUSH1 0x4 DUP1 CALLDATASIZE SUB DUP2 ADD SWAP1 PUSH2 0x1F9 SWAP2 SWAP1 PUSH2 0x3047 JUMP JUMPDEST PUSH2 0x58D JUMP JUMPDEST PUSH1 0x40 MLOAD PUSH2 0x20B SWAP2 SWAP1 PUSH2 0x311F JUMP JUMPDEST PUSH1 0x40 MLOAD DUP1 SWAP2 SUB SWAP1 RETURN JUMPDEST PUSH2 0x22E PUSH1 0x4 DUP1 CALLDATASIZE SUB DUP2 ADD SWAP1 PUSH2 0x229 SWAP2 SWAP1 PUSH2 0x3166 JUMP JUMPDEST PUSH2 0x6CB JUMP JUMPDEST PUSH1 0x40 MLOAD PUSH2 0x23B SWAP2 SWAP1 PUSH2 0x31C1 JUMP JUMPDEST PUSH1 0x40 MLOAD DUP1 SWAP2 SUB SWAP1 RETURN JUMPDEST PUSH2 0x25E PUSH1 0x4 DUP1 CALLDATASIZE SUB DUP2 ADD SWAP1 PUSH2 0x259 SWAP2 SWAP1 PUSH2 0x3047 JUMP JUMPDEST PUSH2 0x775 JUMP JUMPDEST PUSH1 0x40 MLOAD PUSH2 0x26B SWAP2 SWAP1 PUSH2 0x31C1 JUMP JUMPDEST PUSH1 0x40 MLOAD DUP1 SWAP2 SUB SWAP1 RETURN JUMPDEST PUSH2 0x28E PUSH1 0x4 DUP1 CALLDATASIZE SUB DUP2 ADD SWAP1 PUSH2 0x289 SWAP2 SWAP1 PUSH2 0x3166 JUMP JUMPDEST PUSH2 0x796 JUMP JUMPDEST STOP JUMPDEST PUSH2 0x2AA PUSH1 0x4 DUP1 CALLDATASIZE SUB DUP2 ADD SWAP1 PUSH2 0x2A5 SWAP2 SWAP1 PUSH2 0x2FDD JUMP JUMPDEST PUSH2 0x1491 JUMP JUMPDEST PUSH1 0x40 MLOAD PUSH2 0x2B7 SWAP2 SWAP1 PUSH2 0x2F49 JUMP JUMPDEST PUSH1 0x40 MLOAD DUP1 SWAP2 SUB SWAP1 RETURN JUMPDEST PUSH2 0x2C8 PUSH2 0x14CB JUMP JUMPDEST PUSH1 0x40 MLOAD PUSH2 0x2D5 SWAP2 SWAP1 PUSH2 0x31EB JUMP JUMPDEST PUSH1 0x40 MLOAD DUP1 SWAP2 SUB SWAP1 RETURN JUMPDEST PUSH2 0x2E6 PUSH2 0x14D4 JUMP JUMPDEST PUSH1 0x40 MLOAD PUSH2 0x2F3 SWAP2 SWAP1 PUSH2 0x302C JUMP JUMPDEST PUSH1 0x40 MLOAD DUP1 SWAP2 SUB SWAP1 RETURN JUMPDEST PUSH2 0x316 PUSH1 0x4 DUP1 CALLDATASIZE SUB DUP2 ADD SWAP1 PUSH2 0x311 SWAP2 SWAP1 PUSH2 0x3047 JUMP JUMPDEST PUSH2 0x14FA JUMP JUMPDEST PUSH1 0x40 MLOAD PUSH2 0x323 SWAP2 SWAP1 PUSH2 0x302C JUMP JUMPDEST PUSH1 0x40 MLOAD DUP1 SWAP2 SUB SWAP1 RETURN JUMPDEST PUSH2 0x346 PUSH1 0x4 DUP1 CALLDATASIZE SUB DUP2 ADD SWAP1 PUSH2 0x341 SWAP2 SWAP1 PUSH2 0x3206 JUMP JUMPDEST PUSH2 0x1564 JUMP JUMPDEST STOP JUMPDEST PUSH2 0x350 PUSH2 0x218C JUMP JUMPDEST STOP JUMPDEST PUSH2 0x36C PUSH1 0x4 DUP1 CALLDATASIZE SUB DUP2 ADD SWAP1 PUSH2 0x367 SWAP2 SWAP1 PUSH2 0x3047 JUMP JUMPDEST PUSH2 0x2275 JUMP JUMPDEST PUSH1 0x40 MLOAD PUSH2 0x37A SWAP3 SWAP2 SWAP1 PUSH2 0x3317 JUMP JUMPDEST PUSH1 0x40 MLOAD DUP1 SWAP2 SUB SWAP1 RETURN JUMPDEST PUSH2 0x38B PUSH2 0x23AB JUMP JUMPDEST PUSH1 0x40 MLOAD PUSH2 0x398 SWAP2 SWAP1 PUSH2 0x348F JUMP JUMPDEST PUSH1 0x40 MLOAD DUP1 SWAP2 SUB SWAP1 RETURN JUMPDEST PUSH2 0x3BB PUSH1 0x4 DUP1 CALLDATASIZE SUB DUP2 ADD SWAP1 PUSH2 0x3B6 SWAP2 SWAP1 PUSH2 0x34AB JUMP JUMPDEST PUSH2 0x2492 JUMP JUMPDEST PUSH1 0x40 MLOAD PUSH2 0x3CC SWAP6 SWAP5 SWAP4 SWAP3 SWAP2 SWAP1 PUSH2 0x34EB JUMP JUMPDEST PUSH1 0x40 MLOAD DUP1 SWAP2 SUB SWAP1 RETURN JUMPDEST PUSH2 0x3EF PUSH1 0x4 DUP1 CALLDATASIZE SUB DUP2 ADD SWAP1 PUSH2 0x3EA SWAP2 SWAP1 PUSH2 0x3166 JUMP JUMPDEST PUSH2 0x251B JUMP JUMPDEST PUSH1 0x40 MLOAD PUSH2 0x3FC SWAP2 SWAP1 PUSH2 0x302C JUMP JUMPDEST PUSH1 0x40 MLOAD DUP1 SWAP2 SUB SWAP1 RETURN JUMPDEST PUSH2 0x40D PUSH2 0x25D8 JUMP JUMPDEST PUSH1 0x40 MLOAD PUSH2 0x41A SWAP2 SWAP1 PUSH2 0x302C JUMP JUMPDEST PUSH1 0x40 MLOAD DUP1 SWAP2 SUB SWAP1 RETURN JUMPDEST PUSH2 0x42B PUSH2 0x25FE JUMP JUMPDEST PUSH1 0x40 MLOAD PUSH2 0x438 SWAP2 SWAP1 PUSH2 0x302C JUMP JUMPDEST PUSH1 0x40 MLOAD DUP1 SWAP2 SUB SWAP1 RETURN JUMPDEST PUSH2 0x449 PUSH2 0x2624 JUMP JUMPDEST PUSH1 0x40 MLOAD PUSH2 0x456 SWAP2 SWAP1 PUSH2 0x302C JUMP JUMPDEST PUSH1 0x40 MLOAD DUP1 SWAP2 SUB SWAP1 RETURN JUMPDEST PUSH2 0x479 PUSH1 0x4 DUP1 CALLDATASIZE SUB DUP2 ADD SWAP1 PUSH2 0x474 SWAP2 SWAP1 PUSH2 0x34AB JUMP JUMPDEST PUSH2 0x264A JUMP JUMPDEST PUSH1 0x40 MLOAD PUSH2 0x486 SWAP2 SWAP1 PUSH2 0x2F49 JUMP JUMPDEST PUSH1 0x40 MLOAD DUP1 SWAP2 SUB SWAP1 RETURN JUMPDEST PUSH2 0x4A9 PUSH1 0x4 DUP1 CALLDATASIZE SUB DUP2 ADD SWAP1 PUSH2 0x4A4 SWAP2 SWAP1 PUSH2 0x3047 JUMP JUMPDEST PUSH2 0x2687 JUMP JUMPDEST STOP JUMPDEST PUSH2 0x4C5 PUSH1 0x4 DUP1 CALLDATASIZE SUB DUP2 ADD SWAP1 PUSH2 0x4C0 SWAP2 SWAP1 PUSH2 0x3047 JUMP JUMPDEST PUSH2 0x27ED JUMP JUMPDEST PUSH1 0x40 MLOAD PUSH2 0x4D2 SWAP2 SWAP1 PUSH2 0x302C JUMP JUMPDEST PUSH1 0x40 MLOAD DUP1 SWAP2 SUB SWAP1 RETURN JUMPDEST PUSH2 0x4F5 PUSH1 0x4 DUP1 CALLDATASIZE SUB DUP2 ADD SWAP1 PUSH2 0x4F0 SWAP2 SWAP1 PUSH2 0x356A JUMP JUMPDEST PUSH2 0x2821 JUMP JUMPDEST STOP JUMPDEST PUSH2 0x511 PUSH1 0x4 DUP1 CALLDATASIZE SUB DUP2 ADD SWAP1 PUSH2 0x50C SWAP2 SWAP1 PUSH2 0x3047 JUMP JUMPDEST PUSH2 0x2B37 JUMP JUMPDEST STOP JUMPDEST PUSH1 0x5 PUSH1 0x0 SWAP1 SLOAD SWAP1 PUSH2 0x100 EXP SWAP1 DIV PUSH20 0xFFFFFFFFFFFFFFFFFFFFFFFFFFFFFFFFFFFFFFFF AND DUP2 JUMP JUMPDEST PUSH1 0x14 DUP2 JUMP JUMPDEST PUSH2 0x4CD PUSH1 0x20 MSTORE DUP2 PUSH1 0x0 MSTORE PUSH1 0x40 PUSH1 0x0 KECCAK256 DUP2 DUP2 SLOAD DUP2 LT PUSH2 0x55B JUMPI PUSH1 0x0 DUP1 REVERT JUMPDEST SWAP1 PUSH1 0x0 MSTORE PUSH1 0x20 PUSH1 0x0 KECCAK256 ADD PUSH1 0x0 SWAP2 POP SWAP2 POP SWAP1 SLOAD SWAP1 PUSH2 0x100 EXP SWAP1 DIV PUSH20 0xFFFFFFFFFFFFFFFFFFFFFFFFFFFFFFFFFFFFFFFF AND DUP2 JUMP JUMPDEST PUSH2 0x595 PUSH2 0x2CF6 JUMP JUMPDEST PUSH2 0x4CA PUSH1 0x0 DUP4 PUSH20 0xFFFFFFFFFFFFFFFFFFFFFFFFFFFFFFFFFFFFFFFF AND PUSH20 0xFFFFFFFFFFFFFFFFFFFFFFFFFFFFFFFFFFFFFFFF AND DUP2 MSTORE PUSH1 0x20 ADD SWAP1 DUP2 MSTORE PUSH1 0x20 ADD PUSH1 0x0 KECCAK256 PUSH1 0x0 SWAP1 SLOAD SWAP1 PUSH2 0x100 EXP SWAP1 DIV PUSH1 0xFF AND PUSH2 0x622 JUMPI PUSH1 0x40 MLOAD PUSH32 0x8C379A000000000000000000000000000000000000000000000000000000000 DUP2 MSTORE PUSH1 0x4 ADD PUSH2 0x619 SWAP1 PUSH2 0x3654 JUMP JUMPDEST PUSH1 0x40 MLOAD DUP1 SWAP2 SUB SWAP1 REVERT JUMPDEST PUSH2 0x4CB PUSH1 0x0 DUP4 PUSH20 0xFFFFFFFFFFFFFFFFFFFFFFFFFFFFFFFFFFFFFFFF AND PUSH20 0xFFFFFFFFFFFFFFFFFFFFFFFFFFFFFFFFFFFFFFFF AND DUP2 MSTORE PUSH1 0x20 ADD SWAP1 DUP2 MSTORE PUSH1 0x20 ADD PUSH1 0x0 KECCAK256 PUSH1 0x2 DUP1 PUSH1 0x20 MUL PUSH1 0x40 MLOAD SWAP1 DUP2 ADD PUSH1 0x40 MSTORE DUP1 SWAP3 SWAP2 SWAP1 DUP3 PUSH1 0x2 DUP1 ISZERO PUSH2 0x6BF JUMPI PUSH1 0x20 MUL DUP3 ADD SWAP2 PUSH1 0x0 SWAP1 JUMPDEST DUP3 DUP3 SWAP1 SLOAD SWAP1 PUSH2 0x100 EXP SWAP1 DIV PUSH1 0xFF AND PUSH1 0xFF AND DUP2 MSTORE PUSH1 0x20 ADD SWAP1 PUSH1 0x1 ADD SWAP1 PUSH1 0x20 DUP3 PUSH1 0x0 ADD DIV SWAP3 DUP4 ADD SWAP3 PUSH1 0x1 SUB DUP3 MUL SWAP2 POP DUP1 DUP5 GT PUSH2 0x688 JUMPI SWAP1 POP JUMPDEST POP POP POP POP POP SWAP1 POP SWAP2 SWAP1 POP JUMP JUMPDEST PUSH1 0x0 PUSH1 0x14 PUSH1 0xFF AND DUP4 PUSH1 0xFF AND LT DUP1 ISZERO PUSH2 0x6E9 JUMPI POP PUSH1 0x14 PUSH1 0xFF AND DUP3 PUSH1 0xFF AND LT JUMPDEST PUSH2 0x728 JUMPI PUSH1 0x40 MLOAD PUSH32 0x8C379A000000000000000000000000000000000000000000000000000000000 DUP2 MSTORE PUSH1 0x4 ADD PUSH2 0x71F SWAP1 PUSH2 0x36C0 JUMP JUMPDEST PUSH1 0x40 MLOAD DUP1 SWAP2 SUB SWAP1 REVERT JUMPDEST PUSH1 0x6 DUP4 PUSH1 0xFF AND PUSH1 0x14 DUP2 LT PUSH2 0x73F JUMPI PUSH2 0x73E PUSH2 0x36E0 JUMP JUMPDEST JUMPDEST PUSH1 0x3C MUL ADD DUP3 PUSH1 0xFF AND PUSH1 0x14 DUP2 LT PUSH2 0x758 JUMPI PUSH2 0x757 PUSH2 0x36E0 JUMP JUMPDEST JUMPDEST PUSH1 0x3 MUL ADD PUSH1 0x0 ADD PUSH1 0x0 SWAP1 SLOAD SWAP1 PUSH2 0x100 EXP SWAP1 DIV PUSH1 0xFF AND SWAP1 POP SWAP3 SWAP2 POP POP JUMP JUMPDEST PUSH2 0x4CA PUSH1 0x20 MSTORE DUP1 PUSH1 0x0 MSTORE PUSH1 0x40 PUSH1 0x0 KECCAK256 PUSH1 0x0 SWAP2 POP SLOAD SWAP1 PUSH2 0x100 EXP SWAP1 DIV PUSH1 0xFF AND DUP2 JUMP JUMPDEST PUSH2 0x79E PUSH2 0x2C9D JUMP JUMPDEST PUSH1 0x14 PUSH1 0xFF AND DUP3 PUSH1 0xFF AND LT DUP1 ISZERO PUSH2 0x7BA JUMPI POP PUSH1 0x14 PUSH1 0xFF AND DUP2 PUSH1 0xFF AND LT JUMPDEST PUSH2 0x7F9 JUMPI PUSH1 0x40 MLOAD PUSH32 0x8C379A000000000000000000000000000000000000000000000000000000000 DUP2 MSTORE PUSH1 0x4 ADD PUSH2 0x7F0 SWAP1 PUSH2 0x36C0 JUMP JUMPDEST PUSH1 0x40 MLOAD DUP1 SWAP2 SUB SWAP1 REVERT JUMPDEST PUSH1 0x6 DUP3 PUSH1 0xFF AND PUSH1 0x14 DUP2 LT PUSH2 0x810 JUMPI PUSH2 0x80F PUSH2 0x36E0 JUMP JUMPDEST JUMPDEST PUSH1 0x3C MUL ADD DUP2 PUSH1 0xFF AND PUSH1 0x14 DUP2 LT PUSH2 0x829 JUMPI PUSH2 0x828 PUSH2 0x36E0 JUMP JUMPDEST JUMPDEST PUSH1 0x3 MUL ADD PUSH1 0x0 ADD PUSH1 0x0 SWAP1 SLOAD SWAP1 PUSH2 0x100 EXP SWAP1 DIV PUSH1 0xFF AND PUSH2 0x87D JUMPI PUSH1 0x40 MLOAD PUSH32 0x8C379A000000000000000000000000000000000000000000000000000000000 DUP2 MSTORE PUSH1 0x4 ADD PUSH2 0x874 SWAP1 PUSH2 0x375B JUMP JUMPDEST PUSH1 0x40 MLOAD DUP1 SWAP2 SUB SWAP1 REVERT JUMPDEST PUSH1 0x6 DUP3 PUSH1 0xFF AND PUSH1 0x14 DUP2 LT PUSH2 0x894 JUMPI PUSH2 0x893 PUSH2 0x36E0 JUMP JUMPDEST JUMPDEST PUSH1 0x3C MUL ADD DUP2 PUSH1 0xFF AND PUSH1 0x14 DUP2 LT PUSH2 0x8AD JUMPI PUSH2 0x8AC PUSH2 0x36E0 JUMP JUMPDEST JUMPDEST PUSH1 0x3 MUL ADD PUSH1 0x0 ADD PUSH1 0x15 SWAP1 SLOAD SWAP1 PUSH2 0x100 EXP SWAP1 DIV PUSH1 0xFF AND PUSH2 0x901 JUMPI PUSH1 0x40 MLOAD PUSH32 0x8C379A000000000000000000000000000000000000000000000000000000000 DUP2 MSTORE PUSH1 0x4 ADD PUSH2 0x8F8 SWAP1 PUSH2 0x37C7 JUMP JUMPDEST PUSH1 0x40 MLOAD DUP1 SWAP2 SUB SWAP1 REVERT JUMPDEST PUSH2 0x4CA PUSH1 0x0 CALLER PUSH20 0xFFFFFFFFFFFFFFFFFFFFFFFFFFFFFFFFFFFFFFFF AND PUSH20 0xFFFFFFFFFFFFFFFFFFFFFFFFFFFFFFFFFFFFFFFF AND DUP2 MSTORE PUSH1 0x20 ADD SWAP1 DUP2 MSTORE PUSH1 0x20 ADD PUSH1 0x0 KECCAK256 PUSH1 0x0 SWAP1 SLOAD SWAP1 PUSH2 0x100 EXP SWAP1 DIV PUSH1 0xFF AND ISZERO PUSH2 0x98F JUMPI PUSH1 0x40 MLOAD PUSH32 0x8C379A000000000000000000000000000000000000000000000000000000000 DUP2 MSTORE PUSH1 0x4 ADD PUSH2 0x986 SWAP1 PUSH2 0x3833 JUMP JUMPDEST PUSH1 0x40 MLOAD DUP1 SWAP2 SUB SWAP1 REVERT JUMPDEST PUSH1 0x0 PUSH1 0x6 DUP4 PUSH1 0xFF AND PUSH1 0x14 DUP2 LT PUSH2 0x9A8 JUMPI PUSH2 0x9A7 PUSH2 0x36E0 JUMP JUMPDEST JUMPDEST PUSH1 0x3C MUL ADD DUP3 PUSH1 0xFF AND PUSH1 0x14 DUP2 LT PUSH2 0x9C1 JUMPI PUSH2 0x9C0 PUSH2 0x36E0 JUMP JUMPDEST JUMPDEST PUSH1 0x3 MUL ADD PUSH1 0x1 ADD SLOAD SWAP1 POP PUSH1 0x0 PUSH1 0x6 DUP5 PUSH1 0xFF AND PUSH1 0x14 DUP2 LT PUSH2 0x9E4 JUMPI PUSH2 0x9E3 PUSH2 0x36E0 JUMP JUMPDEST JUMPDEST PUSH1 0x3C MUL ADD DUP4 PUSH1 0xFF AND PUSH1 0x14 DUP2 LT PUSH2 0x9FD JUMPI PUSH2 0x9FC PUSH2 0x36E0 JUMP JUMPDEST JUMPDEST PUSH1 0x3 MUL ADD PUSH1 0x2 ADD SLOAD SWAP1 POP PUSH1 0x0 DUP2 DUP4 PUSH2 0xA15 SWAP2 SWAP1 PUSH2 0x3882 JUMP JUMPDEST SWAP1 POP DUP1 PUSH1 0x5 PUSH1 0x0 SWAP1 SLOAD SWAP1 PUSH2 0x100 EXP SWAP1 DIV PUSH20 0xFFFFFFFFFFFFFFFFFFFFFFFFFFFFFFFFFFFFFFFF AND PUSH20 0xFFFFFFFFFFFFFFFFFFFFFFFFFFFFFFFFFFFFFFFF AND PUSH4 0x70A08231 CALLER PUSH1 0x40 MLOAD DUP3 PUSH4 0xFFFFFFFF AND PUSH1 0xE0 SHL DUP2 MSTORE PUSH1 0x4 ADD PUSH2 0xA73 SWAP2 SWAP1 PUSH2 0x302C JUMP JUMPDEST PUSH1 0x20 PUSH1 0x40 MLOAD DUP1 DUP4 SUB DUP2 DUP7 GAS STATICCALL ISZERO DUP1 ISZERO PUSH2 0xA90 JUMPI RETURNDATASIZE PUSH1 0x0 DUP1 RETURNDATACOPY RETURNDATASIZE PUSH1 0x0 REVERT JUMPDEST POP POP POP POP PUSH1 0x40 MLOAD RETURNDATASIZE PUSH1 0x1F NOT PUSH1 0x1F DUP3 ADD AND DUP3 ADD DUP1 PUSH1 0x40 MSTORE POP DUP2 ADD SWAP1 PUSH2 0xAB4 SWAP2 SWAP1 PUSH2 0x38CB JUMP JUMPDEST LT ISZERO PUSH2 0xAF5 JUMPI PUSH1 0x40 MLOAD PUSH32 0x8C379A000000000000000000000000000000000000000000000000000000000 DUP2 MSTORE PUSH1 0x4 ADD PUSH2 0xAEC SWAP1 PUSH2 0x396A JUMP JUMPDEST PUSH1 0x40 MLOAD DUP1 SWAP2 SUB SWAP1 REVERT JUMPDEST PUSH1 0x5 PUSH1 0x0 SWAP1 SLOAD SWAP1 PUSH2 0x100 EXP SWAP1 DIV PUSH20 0xFFFFFFFFFFFFFFFFFFFFFFFFFFFFFFFFFFFFFFFF AND PUSH20 0xFFFFFFFFFFFFFFFFFFFFFFFFFFFFFFFFFFFFFFFF AND PUSH4 0x23B872DD CALLER PUSH1 0x6 DUP9 PUSH1 0xFF AND PUSH1 0x14 DUP2 LT PUSH2 0xB4B JUMPI PUSH2 0xB4A PUSH2 0x36E0 JUMP JUMPDEST JUMPDEST PUSH1 0x3C MUL ADD DUP8 PUSH1 0xFF AND PUSH1 0x14 DUP2 LT PUSH2 0xB64 JUMPI PUSH2 0xB63 PUSH2 0x36E0 JUMP JUMPDEST JUMPDEST PUSH1 0x3 MUL ADD PUSH1 0x0 ADD PUSH1 0x1 SWAP1 SLOAD SWAP1 PUSH2 0x100 EXP SWAP1 DIV PUSH20 0xFFFFFFFFFFFFFFFFFFFFFFFFFFFFFFFFFFFFFFFF AND DUP7 PUSH1 0x40 MLOAD DUP5 PUSH4 0xFFFFFFFF AND PUSH1 0xE0 SHL DUP2 MSTORE PUSH1 0x4 ADD PUSH2 0xBAB SWAP4 SWAP3 SWAP2 SWAP1 PUSH2 0x398A JUMP JUMPDEST PUSH1 0x20 PUSH1 0x40 MLOAD DUP1 DUP4 SUB DUP2 PUSH1 0x0 DUP8 GAS CALL ISZERO DUP1 ISZERO PUSH2 0xBCA JUMPI RETURNDATASIZE PUSH1 0x0 DUP1 RETURNDATACOPY RETURNDATASIZE PUSH1 0x0 REVERT JUMPDEST POP POP POP POP PUSH1 0x40 MLOAD RETURNDATASIZE PUSH1 0x1F NOT PUSH1 0x1F DUP3 ADD AND DUP3 ADD DUP1 PUSH1 0x40 MSTORE POP DUP2 ADD SWAP1 PUSH2 0xBEE SWAP2 SWAP1 PUSH2 0x39D6 JUMP JUMPDEST PUSH2 0xC2D JUMPI PUSH1 0x40 MLOAD PUSH32 0x8C379A000000000000000000000000000000000000000000000000000000000 DUP2 MSTORE PUSH1 0x4 ADD PUSH2 0xC24 SWAP1 PUSH2 0x3A4F JUMP JUMPDEST PUSH1 0x40 MLOAD DUP1 SWAP2 SUB SWAP1 REVERT JUMPDEST PUSH1 0x5 PUSH1 0x0 SWAP1 SLOAD SWAP1 PUSH2 0x100 EXP SWAP1 DIV PUSH20 0xFFFFFFFFFFFFFFFFFFFFFFFFFFFFFFFFFFFFFFFF AND PUSH20 0xFFFFFFFFFFFFFFFFFFFFFFFFFFFFFFFFFFFFFFFF AND PUSH4 0x23B872DD CALLER ADDRESS DUP6 PUSH1 0x40 MLOAD DUP5 PUSH4 0xFFFFFFFF AND PUSH1 0xE0 SHL DUP2 MSTORE PUSH1 0x4 ADD PUSH2 0xC8C SWAP4 SWAP3 SWAP2 SWAP1 PUSH2 0x398A JUMP JUMPDEST PUSH1 0x20 PUSH1 0x40 MLOAD DUP1 DUP4 SUB DUP2 PUSH1 0x0 DUP8 GAS CALL ISZERO DUP1 ISZERO PUSH2 0xCAB JUMPI RETURNDATASIZE PUSH1 0x0 DUP1 RETURNDATACOPY RETURNDATASIZE PUSH1 0x0 REVERT JUMPDEST POP POP POP POP PUSH1 0x40 MLOAD RETURNDATASIZE PUSH1 0x1F NOT PUSH1 0x1F DUP3 ADD AND DUP3 ADD DUP1 PUSH1 0x40 MSTORE POP DUP2 ADD SWAP1 PUSH2 0xCCF SWAP2 SWAP1 PUSH2 0x39D6 JUMP JUMPDEST PUSH2 0xD0E JUMPI PUSH1 0x40 MLOAD PUSH32 0x8C379A000000000000000000000000000000000000000000000000000000000 DUP2 MSTORE PUSH1 0x4 ADD PUSH2 0xD05 SWAP1 PUSH2 0x3A4F JUMP JUMPDEST PUSH1 0x40 MLOAD DUP1 SWAP2 SUB SWAP1 REVERT JUMPDEST PUSH1 0x5 PUSH1 0x0 SWAP1 SLOAD SWAP1 PUSH2 0x100 EXP SWAP1 DIV PUSH20 0xFFFFFFFFFFFFFFFFFFFFFFFFFFFFFFFFFFFFFFFF AND PUSH20 0xFFFFFFFFFFFFFFFFFFFFFFFFFFFFFFFFFFFFFFFF AND PUSH4 0x42966C68 DUP4 PUSH1 0x40 MLOAD DUP3 PUSH4 0xFFFFFFFF AND PUSH1 0xE0 SHL DUP2 MSTORE PUSH1 0x4 ADD PUSH2 0xD69 SWAP2 SWAP1 PUSH2 0x31EB JUMP JUMPDEST PUSH1 0x20 PUSH1 0x40 MLOAD DUP1 DUP4 SUB DUP2 PUSH1 0x0 DUP8 GAS CALL ISZERO DUP1 ISZERO PUSH2 0xD88 JUMPI RETURNDATASIZE PUSH1 0x0 DUP1 RETURNDATACOPY RETURNDATASIZE PUSH1 0x0 REVERT JUMPDEST POP POP POP POP PUSH1 0x40 MLOAD RETURNDATASIZE PUSH1 0x1F NOT PUSH1 0x1F DUP3 ADD AND DUP3 ADD DUP1 PUSH1 0x40 MSTORE POP DUP2 ADD SWAP1 PUSH2 0xDAC SWAP2 SWAP1 PUSH2 0x39D6 JUMP JUMPDEST PUSH2 0xDEB JUMPI PUSH1 0x40 MLOAD PUSH32 0x8C379A000000000000000000000000000000000000000000000000000000000 DUP2 MSTORE PUSH1 0x4 ADD PUSH2 0xDE2 SWAP1 PUSH2 0x3ABB JUMP JUMPDEST PUSH1 0x40 MLOAD DUP1 SWAP2 SUB SWAP1 REVERT JUMPDEST PUSH1 0x0 PUSH1 0x6 DUP7 PUSH1 0xFF AND PUSH1 0x14 DUP2 LT PUSH2 0xE04 JUMPI PUSH2 0xE03 PUSH2 0x36E0 JUMP JUMPDEST JUMPDEST PUSH1 0x3C MUL ADD DUP6 PUSH1 0xFF AND PUSH1 0x14 DUP2 LT PUSH2 0xE1D JUMPI PUSH2 0xE1C PUSH2 0x36E0 JUMP JUMPDEST JUMPDEST PUSH1 0x3 MUL ADD PUSH1 0x0 ADD PUSH1 0x1 SWAP1 SLOAD SWAP1 PUSH2 0x100 EXP SWAP1 DIV PUSH20 0xFFFFFFFFFFFFFFFFFFFFFFFFFFFFFFFFFFFFFFFF AND SWAP1 POP CALLER PUSH1 0x6 DUP8 PUSH1 0xFF AND PUSH1 0x14 DUP2 LT PUSH2 0xE5F JUMPI PUSH2 0xE5E PUSH2 0x36E0 JUMP JUMPDEST JUMPDEST PUSH1 0x3C MUL ADD DUP7 PUSH1 0xFF AND PUSH1 0x14 DUP2 LT PUSH2 0xE78 JUMPI PUSH2 0xE77 PUSH2 0x36E0 JUMP JUMPDEST JUMPDEST PUSH1 0x3 MUL ADD PUSH1 0x0 ADD PUSH1 0x1 PUSH2 0x100 EXP DUP2 SLOAD DUP2 PUSH20 0xFFFFFFFFFFFFFFFFFFFFFFFFFFFFFFFFFFFFFFFF MUL NOT AND SWAP1 DUP4 PUSH20 0xFFFFFFFFFFFFFFFFFFFFFFFFFFFFFFFFFFFFFFFF AND MUL OR SWAP1 SSTORE POP PUSH1 0x0 PUSH1 0x6 DUP8 PUSH1 0xFF AND PUSH1 0x14 DUP2 LT PUSH2 0xED6 JUMPI PUSH2 0xED5 PUSH2 0x36E0 JUMP JUMPDEST JUMPDEST PUSH1 0x3C MUL ADD DUP7 PUSH1 0xFF AND PUSH1 0x14 DUP2 LT PUSH2 0xEEF JUMPI PUSH2 0xEEE PUSH2 0x36E0 JUMP JUMPDEST JUMPDEST PUSH1 0x3 MUL ADD PUSH1 0x0 ADD PUSH1 0x15 PUSH2 0x100 EXP DUP2 SLOAD DUP2 PUSH1 0xFF MUL NOT AND SWAP1 DUP4 ISZERO ISZERO MUL OR SWAP1 SSTORE POP PUSH1 0x0 PUSH2 0x4CD PUSH1 0x0 DUP4 PUSH20 0xFFFFFFFFFFFFFFFFFFFFFFFFFFFFFFFFFFFFFFFF AND PUSH20 0xFFFFFFFFFFFFFFFFFFFFFFFFFFFFFFFFFFFFFFFF AND DUP2 MSTORE PUSH1 0x20 ADD SWAP1 DUP2 MSTORE PUSH1 0x20 ADD PUSH1 0x0 KECCAK256 SWAP1 POP PUSH1 0x0 JUMPDEST DUP2 DUP1 SLOAD SWAP1 POP DUP2 LT ISZERO PUSH2 0x108F JUMPI PUSH1 0x0 DUP3 DUP3 DUP2 SLOAD DUP2 LT PUSH2 0xF75 JUMPI PUSH2 0xF74 PUSH2 0x36E0 JUMP JUMPDEST JUMPDEST SWAP1 PUSH1 0x0 MSTORE PUSH1 0x20 PUSH1 0x0 KECCAK256 ADD PUSH1 0x0 SWAP1 SLOAD SWAP1 PUSH2 0x100 EXP SWAP1 DIV PUSH20 0xFFFFFFFFFFFFFFFFFFFFFFFFFFFFFFFFFFFFFFFF AND SWAP1 POP CALLER PUSH2 0x4CC PUSH1 0x0 DUP4 PUSH20 0xFFFFFFFFFFFFFFFFFFFFFFFFFFFFFFFFFFFFFFFF AND PUSH20 0xFFFFFFFFFFFFFFFFFFFFFFFFFFFFFFFFFFFFFFFF AND DUP2 MSTORE PUSH1 0x20 ADD SWAP1 DUP2 MSTORE PUSH1 0x20 ADD PUSH1 0x0 KECCAK256 PUSH1 0x0 PUSH2 0x100 EXP DUP2 SLOAD DUP2 PUSH20 0xFFFFFFFFFFFFFFFFFFFFFFFFFFFFFFFFFFFFFFFF MUL NOT AND SWAP1 DUP4 PUSH20 0xFFFFFFFFFFFFFFFFFFFFFFFFFFFFFFFFFFFFFFFF AND MUL OR SWAP1 SSTORE POP CALLER PUSH20 0xFFFFFFFFFFFFFFFFFFFFFFFFFFFFFFFFFFFFFFFF AND DUP2 PUSH20 0xFFFFFFFFFFFFFFFFFFFFFFFFFFFFFFFFFFFFFFFF AND PUSH32 0xDF63218877CB126F6C003F2B7F77327674CD6A0B53AD51DEAC392548EC12B0ED PUSH1 0x40 MLOAD PUSH1 0x40 MLOAD DUP1 SWAP2 SUB SWAP1 LOG3 POP DUP1 DUP1 PUSH2 0x1087 SWAP1 PUSH2 0x3ADB JUMP JUMPDEST SWAP2 POP POP PUSH2 0xF54 JUMP JUMPDEST POP PUSH1 0x0 PUSH2 0x4CC PUSH1 0x0 DUP5 PUSH20 0xFFFFFFFFFFFFFFFFFFFFFFFFFFFFFFFFFFFFFFFF AND PUSH20 0xFFFFFFFFFFFFFFFFFFFFFFFFFFFFFFFFFFFFFFFF AND DUP2 MSTORE PUSH1 0x20 ADD SWAP1 DUP2 MSTORE PUSH1 0x20 ADD PUSH1 0x0 KECCAK256 PUSH1 0x0 SWAP1 SLOAD SWAP1 PUSH2 0x100 EXP SWAP1 DIV PUSH20 0xFFFFFFFFFFFFFFFFFFFFFFFFFFFFFFFFFFFFFFFF AND SWAP1 POP PUSH1 0x0 PUSH20 0xFFFFFFFFFFFFFFFFFFFFFFFFFFFFFFFFFFFFFFFF AND DUP2 PUSH20 0xFFFFFFFFFFFFFFFFFFFFFFFFFFFFFFFFFFFFFFFF AND EQ PUSH2 0x1203 JUMPI DUP1 PUSH2 0x4CC PUSH1 0x0 CALLER PUSH20 0xFFFFFFFFFFFFFFFFFFFFFFFFFFFFFFFFFFFFFFFF AND PUSH20 0xFFFFFFFFFFFFFFFFFFFFFFFFFFFFFFFFFFFFFFFF AND DUP2 MSTORE PUSH1 0x20 ADD SWAP1 DUP2 MSTORE PUSH1 0x20 ADD PUSH1 0x0 KECCAK256 PUSH1 0x0 PUSH2 0x100 EXP DUP2 SLOAD DUP2 PUSH20 0xFFFFFFFFFFFFFFFFFFFFFFFFFFFFFFFFFFFFFFFF MUL NOT AND SWAP1 DUP4 PUSH20 0xFFFFFFFFFFFFFFFFFFFFFFFFFFFFFFFFFFFFFFFF AND MUL OR SWAP1 SSTORE POP DUP1 PUSH20 0xFFFFFFFFFFFFFFFFFFFFFFFFFFFFFFFFFFFFFFFF AND CALLER PUSH20 0xFFFFFFFFFFFFFFFFFFFFFFFFFFFFFFFFFFFFFFFF AND PUSH32 0xDF63218877CB126F6C003F2B7F77327674CD6A0B53AD51DEAC392548EC12B0ED PUSH1 0x40 MLOAD PUSH1 0x40 MLOAD DUP1 SWAP2 SUB SWAP1 LOG3 JUMPDEST DUP2 PUSH2 0x4CD PUSH1 0x0 CALLER PUSH20 0xFFFFFFFFFFFFFFFFFFFFFFFFFFFFFFFFFFFFFFFF AND PUSH20 0xFFFFFFFFFFFFFFFFFFFFFFFFFFFFFFFFFFFFFFFF AND DUP2 MSTORE PUSH1 0x20 ADD SWAP1 DUP2 MSTORE PUSH1 0x20 ADD PUSH1 0x0 KECCAK256 SWAP1 DUP1 SLOAD PUSH2 0x1252 SWAP3 SWAP2 SWAP1 PUSH2 0x2D18 JUMP JUMPDEST POP PUSH2 0x4CD PUSH1 0x0 DUP5 PUSH20 0xFFFFFFFFFFFFFFFFFFFFFFFFFFFFFFFFFFFFFFFF AND PUSH20 0xFFFFFFFFFFFFFFFFFFFFFFFFFFFFFFFFFFFFFFFF AND DUP2 MSTORE PUSH1 0x20 ADD SWAP1 DUP2 MSTORE PUSH1 0x20 ADD PUSH1 0x0 KECCAK256 PUSH1 0x0 PUSH2 0x129F SWAP2 SWAP1 PUSH2 0x2D6A JUMP JUMPDEST PUSH1 0x0 PUSH2 0x4CC PUSH1 0x0 DUP6 PUSH20 0xFFFFFFFFFFFFFFFFFFFFFFFFFFFFFFFFFFFFFFFF AND PUSH20 0xFFFFFFFFFFFFFFFFFFFFFFFFFFFFFFFFFFFFFFFF AND DUP2 MSTORE PUSH1 0x20 ADD SWAP1 DUP2 MSTORE PUSH1 0x20 ADD PUSH1 0x0 KECCAK256 PUSH1 0x0 PUSH2 0x100 EXP DUP2 SLOAD DUP2 PUSH20 0xFFFFFFFFFFFFFFFFFFFFFFFFFFFFFFFFFFFFFFFF MUL NOT AND SWAP1 DUP4 PUSH20 0xFFFFFFFFFFFFFFFFFFFFFFFFFFFFFFFFFFFFFFFF AND MUL OR SWAP1 SSTORE POP PUSH1 0x1 PUSH2 0x4CA PUSH1 0x0 CALLER PUSH20 0xFFFFFFFFFFFFFFFFFFFFFFFFFFFFFFFFFFFFFFFF AND PUSH20 0xFFFFFFFFFFFFFFFFFFFFFFFFFFFFFFFFFFFFFFFF AND DUP2 MSTORE PUSH1 0x20 ADD SWAP1 DUP2 MSTORE PUSH1 0x20 ADD PUSH1 0x0 KECCAK256 PUSH1 0x0 PUSH2 0x100 EXP DUP2 SLOAD DUP2 PUSH1 0xFF MUL NOT AND SWAP1 DUP4 ISZERO ISZERO MUL OR SWAP1 SSTORE POP PUSH1 0x0 PUSH2 0x4CA PUSH1 0x0 DUP6 PUSH20 0xFFFFFFFFFFFFFFFFFFFFFFFFFFFFFFFFFFFFFFFF AND PUSH20 0xFFFFFFFFFFFFFFFFFFFFFFFFFFFFFFFFFFFFFFFF AND DUP2 MSTORE PUSH1 0x20 ADD SWAP1 DUP2 MSTORE PUSH1 0x20 ADD PUSH1 0x0 KECCAK256 PUSH1 0x0 PUSH2 0x100 EXP DUP2 SLOAD DUP2 PUSH1 0xFF MUL NOT AND SWAP1 DUP4 ISZERO ISZERO MUL OR SWAP1 SSTORE POP PUSH1 0x40 MLOAD DUP1 PUSH1 0x40 ADD PUSH1 0x40 MSTORE DUP1 DUP10 PUSH1 0xFF AND PUSH1 0xFF AND DUP2 MSTORE PUSH1 0x20 ADD DUP9 PUSH1 0xFF AND PUSH1 0xFF AND DUP2 MSTORE POP PUSH2 0x4CB PUSH1 0x0 CALLER PUSH20 0xFFFFFFFFFFFFFFFFFFFFFFFFFFFFFFFFFFFFFFFF AND PUSH20 0xFFFFFFFFFFFFFFFFFFFFFFFFFFFFFFFFFFFFFFFF AND DUP2 MSTORE PUSH1 0x20 ADD SWAP1 DUP2 MSTORE PUSH1 0x20 ADD PUSH1 0x0 KECCAK256 SWAP1 PUSH1 0x2 PUSH2 0x1440 SWAP3 SWAP2 SWAP1 PUSH2 0x2D8B JUMP JUMPDEST POP PUSH32 0x19C0182F0D6040E7F43AA17E1C6584130BDBC8DA2E4AC4D2050593808B77A771 DUP9 DUP9 PUSH1 0x1 CALLER PUSH1 0x40 MLOAD PUSH2 0x1477 SWAP5 SWAP4 SWAP3 SWAP2 SWAP1 PUSH2 0x3B23 JUMP JUMPDEST PUSH1 0x40 MLOAD DUP1 SWAP2 SUB SWAP1 LOG1 POP POP POP POP POP POP PUSH2 0x148D PUSH2 0x2CEC JUMP JUMPDEST POP POP JUMP JUMPDEST PUSH2 0x4CB PUSH1 0x20 MSTORE DUP2 PUSH1 0x0 MSTORE PUSH1 0x40 PUSH1 0x0 KECCAK256 DUP2 PUSH1 0x2 DUP2 LT PUSH2 0x14AE JUMPI PUSH1 0x0 DUP1 REVERT JUMPDEST PUSH1 0x20 SWAP2 DUP3 DUP3 DIV ADD SWAP2 SWAP1 MOD SWAP2 POP SWAP2 POP SWAP1 SLOAD SWAP1 PUSH2 0x100 EXP SWAP1 DIV PUSH1 0xFF AND DUP2 JUMP JUMPDEST PUSH5 0x174876E800 DUP2 JUMP JUMPDEST PUSH1 0x2 PUSH1 0x0 SWAP1 SLOAD SWAP1 PUSH2 0x100 EXP SWAP1 DIV PUSH20 0xFFFFFFFFFFFFFFFFFFFFFFFFFFFFFFFFFFFFFFFF AND DUP2 JUMP JUMPDEST PUSH1 0x0 PUSH2 0x4CC PUSH1 0x0 DUP4 PUSH20 0xFFFFFFFFFFFFFFFFFFFFFFFFFFFFFFFFFFFFFFFF AND PUSH20 0xFFFFFFFFFFFFFFFFFFFFFFFFFFFFFFFFFFFFFFFF AND DUP2 MSTORE PUSH1 0x20 ADD SWAP1 DUP2 MSTORE PUSH1 0x20 ADD PUSH1 0x0 KECCAK256 PUSH1 0x0 SWAP1 SLOAD SWAP1 PUSH2 0x100 EXP SWAP1 DIV PUSH20 0xFFFFFFFFFFFFFFFFFFFFFFFFFFFFFFFFFFFFFFFF AND SWAP1 POP SWAP2 SWAP1 POP JUMP JUMPDEST PUSH2 0x156C PUSH2 0x2C9D JUMP JUMPDEST PUSH1 0x14 PUSH1 0xFF AND DUP4 PUSH1 0xFF AND LT DUP1 ISZERO PUSH2 0x1588 JUMPI POP PUSH1 0x14 PUSH1 0xFF AND DUP3 PUSH1 0xFF AND LT JUMPDEST PUSH2 0x15C7 JUMPI PUSH1 0x40 MLOAD PUSH32 0x8C379A000000000000000000000000000000000000000000000000000000000 DUP2 MSTORE PUSH1 0x4 ADD PUSH2 0x15BE SWAP1 PUSH2 0x36C0 JUMP JUMPDEST PUSH1 0x40 MLOAD DUP1 SWAP2 SUB SWAP1 REVERT JUMPDEST PUSH1 0x6 DUP4 PUSH1 0xFF AND PUSH1 0x14 DUP2 LT PUSH2 0x15DE JUMPI PUSH2 0x15DD PUSH2 0x36E0 JUMP JUMPDEST JUMPDEST PUSH1 0x3C MUL ADD DUP3 PUSH1 0xFF AND PUSH1 0x14 DUP2 LT PUSH2 0x15F7 JUMPI PUSH2 0x15F6 PUSH2 0x36E0 JUMP JUMPDEST JUMPDEST PUSH1 0x3 MUL ADD PUSH1 0x0 ADD PUSH1 0x0 SWAP1 SLOAD SWAP1 PUSH2 0x100 EXP SWAP1 DIV PUSH1 0xFF AND ISZERO PUSH2 0x164C JUMPI PUSH1 0x40 MLOAD PUSH32 0x8C379A000000000000000000000000000000000000000000000000000000000 DUP2 MSTORE PUSH1 0x4 ADD PUSH2 0x1643 SWAP1 PUSH2 0x3BB4 JUMP JUMPDEST PUSH1 0x40 MLOAD DUP1 SWAP2 SUB SWAP1 REVERT JUMPDEST PUSH2 0x4CA PUSH1 0x0 CALLER PUSH20 0xFFFFFFFFFFFFFFFFFFFFFFFFFFFFFFFFFFFFFFFF AND PUSH20 0xFFFFFFFFFFFFFFFFFFFFFFFFFFFFFFFFFFFFFFFF AND DUP2 MSTORE PUSH1 0x20 ADD SWAP1 DUP2 MSTORE PUSH1 0x20 ADD PUSH1 0x0 KECCAK256 PUSH1 0x0 SWAP1 SLOAD SWAP1 PUSH2 0x100 EXP SWAP1 DIV PUSH1 0xFF AND ISZERO PUSH2 0x16DA JUMPI PUSH1 0x40 MLOAD PUSH32 0x8C379A000000000000000000000000000000000000000000000000000000000 DUP2 MSTORE PUSH1 0x4 ADD PUSH2 0x16D1 SWAP1 PUSH2 0x3C20 JUMP JUMPDEST PUSH1 0x40 MLOAD DUP1 SWAP2 SUB SWAP1 REVERT JUMPDEST PUSH5 0x174876E800 PUSH1 0x5 PUSH1 0x0 SWAP1 SLOAD SWAP1 PUSH2 0x100 EXP SWAP1 DIV PUSH20 0xFFFFFFFFFFFFFFFFFFFFFFFFFFFFFFFFFFFFFFFF AND PUSH20 0xFFFFFFFFFFFFFFFFFFFFFFFFFFFFFFFFFFFFFFFF AND PUSH4 0x70A08231 CALLER PUSH1 0x40 MLOAD DUP3 PUSH4 0xFFFFFFFF AND PUSH1 0xE0 SHL DUP2 MSTORE PUSH1 0x4 ADD PUSH2 0x173B SWAP2 SWAP1 PUSH2 0x302C JUMP JUMPDEST PUSH1 0x20 PUSH1 0x40 MLOAD DUP1 DUP4 SUB DUP2 DUP7 GAS STATICCALL ISZERO DUP1 ISZERO PUSH2 0x1758 JUMPI RETURNDATASIZE PUSH1 0x0 DUP1 RETURNDATACOPY RETURNDATASIZE PUSH1 0x0 REVERT JUMPDEST POP POP POP POP PUSH1 0x40 MLOAD RETURNDATASIZE PUSH1 0x1F NOT PUSH1 0x1F DUP3 ADD AND DUP3 ADD DUP1 PUSH1 0x40 MSTORE POP DUP2 ADD SWAP1 PUSH2 0x177C SWAP2 SWAP1 PUSH2 0x38CB JUMP JUMPDEST LT ISZERO PUSH2 0x17BD JUMPI PUSH1 0x40 MLOAD PUSH32 0x8C379A000000000000000000000000000000000000000000000000000000000 DUP2 MSTORE PUSH1 0x4 ADD PUSH2 0x17B4 SWAP1 PUSH2 0x3C8C JUMP JUMPDEST PUSH1 0x40 MLOAD DUP1 SWAP2 SUB SWAP1 REVERT JUMPDEST PUSH1 0x5 PUSH1 0x0 SWAP1 SLOAD SWAP1 PUSH2 0x100 EXP SWAP1 DIV PUSH20 0xFFFFFFFFFFFFFFFFFFFFFFFFFFFFFFFFFFFFFFFF AND PUSH20 0xFFFFFFFFFFFFFFFFFFFFFFFFFFFFFFFFFFFFFFFF AND PUSH4 0x23B872DD CALLER ADDRESS PUSH5 0x174876E800 PUSH1 0x40 MLOAD DUP5 PUSH4 0xFFFFFFFF AND PUSH1 0xE0 SHL DUP2 MSTORE PUSH1 0x4 ADD PUSH2 0x1821 SWAP4 SWAP3 SWAP2 SWAP1 PUSH2 0x398A JUMP JUMPDEST PUSH1 0x20 PUSH1 0x40 MLOAD DUP1 DUP4 SUB DUP2 PUSH1 0x0 DUP8 GAS CALL ISZERO DUP1 ISZERO PUSH2 0x1840 JUMPI RETURNDATASIZE PUSH1 0x0 DUP1 RETURNDATACOPY RETURNDATASIZE PUSH1 0x0 REVERT JUMPDEST POP POP POP POP PUSH1 0x40 MLOAD RETURNDATASIZE PUSH1 0x1F NOT PUSH1 0x1F DUP3 ADD AND DUP3 ADD DUP1 PUSH1 0x40 MSTORE POP DUP2 ADD SWAP1 PUSH2 0x1864 SWAP2 SWAP1 PUSH2 0x39D6 JUMP JUMPDEST PUSH2 0x18A3 JUMPI PUSH1 0x40 MLOAD PUSH32 0x8C379A000000000000000000000000000000000000000000000000000000000 DUP2 MSTORE PUSH1 0x4 ADD PUSH2 0x189A SWAP1 PUSH2 0x3A4F JUMP JUMPDEST PUSH1 0x40 MLOAD DUP1 SWAP2 SUB SWAP1 REVERT JUMPDEST PUSH1 0x5 PUSH1 0x0 SWAP1 SLOAD SWAP1 PUSH2 0x100 EXP SWAP1 DIV PUSH20 0xFFFFFFFFFFFFFFFFFFFFFFFFFFFFFFFFFFFFFFFF AND PUSH20 0xFFFFFFFFFFFFFFFFFFFFFFFFFFFFFFFFFFFFFFFF AND PUSH4 0x42966C68 PUSH5 0x174876E800 PUSH1 0x40 MLOAD DUP3 PUSH4 0xFFFFFFFF AND PUSH1 0xE0 SHL DUP2 MSTORE PUSH1 0x4 ADD PUSH2 0x1903 SWAP2 SWAP1 PUSH2 0x31EB JUMP JUMPDEST PUSH1 0x20 PUSH1 0x40 MLOAD DUP1 DUP4 SUB DUP2 PUSH1 0x0 DUP8 GAS CALL ISZERO DUP1 ISZERO PUSH2 0x1922 JUMPI RETURNDATASIZE PUSH1 0x0 DUP1 RETURNDATACOPY RETURNDATASIZE PUSH1 0x0 REVERT JUMPDEST POP POP POP POP PUSH1 0x40 MLOAD RETURNDATASIZE PUSH1 0x1F NOT PUSH1 0x1F DUP3 ADD AND DUP3 ADD DUP1 PUSH1 0x40 MSTORE POP DUP2 ADD SWAP1 PUSH2 0x1946 SWAP2 SWAP1 PUSH2 0x39D6 JUMP JUMPDEST PUSH2 0x1985 JUMPI PUSH1 0x40 MLOAD PUSH32 0x8C379A000000000000000000000000000000000000000000000000000000000 DUP2 MSTORE PUSH1 0x4 ADD PUSH2 0x197C SWAP1 PUSH2 0x3ABB JUMP JUMPDEST PUSH1 0x40 MLOAD DUP1 SWAP2 SUB SWAP1 REVERT JUMPDEST PUSH1 0x0 PUSH20 0xFFFFFFFFFFFFFFFFFFFFFFFFFFFFFFFFFFFFFFFF AND DUP2 PUSH20 0xFFFFFFFFFFFFFFFFFFFFFFFFFFFFFFFFFFFFFFFF AND SUB PUSH2 0x1C6D JUMPI PUSH1 0x0 PUSH20 0xFFFFFFFFFFFFFFFFFFFFFFFFFFFFFFFFFFFFFFFF AND PUSH2 0x4CC PUSH1 0x0 CALLER PUSH20 0xFFFFFFFFFFFFFFFFFFFFFFFFFFFFFFFFFFFFFFFF AND PUSH20 0xFFFFFFFFFFFFFFFFFFFFFFFFFFFFFFFFFFFFFFFF AND DUP2 MSTORE PUSH1 0x20 ADD SWAP1 DUP2 MSTORE PUSH1 0x20 ADD PUSH1 0x0 KECCAK256 PUSH1 0x0 SWAP1 SLOAD SWAP1 PUSH2 0x100 EXP SWAP1 DIV PUSH20 0xFFFFFFFFFFFFFFFFFFFFFFFFFFFFFFFFFFFFFFFF AND PUSH20 0xFFFFFFFFFFFFFFFFFFFFFFFFFFFFFFFFFFFFFFFF AND EQ PUSH2 0x1A88 JUMPI PUSH1 0x40 MLOAD PUSH32 0x8C379A000000000000000000000000000000000000000000000000000000000 DUP2 MSTORE PUSH1 0x4 ADD PUSH2 0x1A7F SWAP1 PUSH2 0x3CF8 JUMP JUMPDEST PUSH1 0x40 MLOAD DUP1 SWAP2 SUB SWAP1 REVERT JUMPDEST PUSH1 0x4 PUSH1 0x0 SWAP1 SLOAD SWAP1 PUSH2 0x100 EXP SWAP1 DIV PUSH20 0xFFFFFFFFFFFFFFFFFFFFFFFFFFFFFFFFFFFFFFFF AND PUSH2 0x4CC PUSH1 0x0 CALLER PUSH20 0xFFFFFFFFFFFFFFFFFFFFFFFFFFFFFFFFFFFFFFFF AND PUSH20 0xFFFFFFFFFFFFFFFFFFFFFFFFFFFFFFFFFFFFFFFF AND DUP2 MSTORE PUSH1 0x20 ADD SWAP1 DUP2 MSTORE PUSH1 0x20 ADD PUSH1 0x0 KECCAK256 PUSH1 0x0 PUSH2 0x100 EXP DUP2 SLOAD DUP2 PUSH20 0xFFFFFFFFFFFFFFFFFFFFFFFFFFFFFFFFFFFFFFFF MUL NOT AND SWAP1 DUP4 PUSH20 0xFFFFFFFFFFFFFFFFFFFFFFFFFFFFFFFFFFFFFFFF AND MUL OR SWAP1 SSTORE POP PUSH2 0x4CD PUSH1 0x0 PUSH1 0x4 PUSH1 0x0 SWAP1 SLOAD SWAP1 PUSH2 0x100 EXP SWAP1 DIV PUSH20 0xFFFFFFFFFFFFFFFFFFFFFFFFFFFFFFFFFFFFFFFF AND PUSH20 0xFFFFFFFFFFFFFFFFFFFFFFFFFFFFFFFFFFFFFFFF AND PUSH20 0xFFFFFFFFFFFFFFFFFFFFFFFFFFFFFFFFFFFFFFFF AND DUP2 MSTORE PUSH1 0x20 ADD SWAP1 DUP2 MSTORE PUSH1 0x20 ADD PUSH1 0x0 KECCAK256 CALLER SWAP1 DUP1 PUSH1 0x1 DUP2 SLOAD ADD DUP1 DUP3 SSTORE DUP1 SWAP2 POP POP PUSH1 0x1 SWAP1 SUB SWAP1 PUSH1 0x0 MSTORE PUSH1 0x20 PUSH1 0x0 KECCAK256 ADD PUSH1 0x0 SWAP1 SWAP2 SWAP1 SWAP2 SWAP1 SWAP2 PUSH2 0x100 EXP DUP2 SLOAD DUP2 PUSH20 0xFFFFFFFFFFFFFFFFFFFFFFFFFFFFFFFFFFFFFFFF MUL NOT AND SWAP1 DUP4 PUSH20 0xFFFFFFFFFFFFFFFFFFFFFFFFFFFFFFFFFFFFFFFF AND MUL OR SWAP1 SSTORE POP PUSH1 0x4 PUSH1 0x0 SWAP1 SLOAD SWAP1 PUSH2 0x100 EXP SWAP1 DIV PUSH20 0xFFFFFFFFFFFFFFFFFFFFFFFFFFFFFFFFFFFFFFFF AND PUSH20 0xFFFFFFFFFFFFFFFFFFFFFFFFFFFFFFFFFFFFFFFF AND CALLER PUSH20 0xFFFFFFFFFFFFFFFFFFFFFFFFFFFFFFFFFFFFFFFF AND PUSH32 0xDF63218877CB126F6C003F2B7F77327674CD6A0B53AD51DEAC392548EC12B0ED PUSH1 0x40 MLOAD PUSH1 0x40 MLOAD DUP1 SWAP2 SUB SWAP1 LOG3 PUSH2 0x1FB2 JUMP JUMPDEST PUSH1 0x0 PUSH20 0xFFFFFFFFFFFFFFFFFFFFFFFFFFFFFFFFFFFFFFFF AND PUSH2 0x4CC PUSH1 0x0 CALLER PUSH20 0xFFFFFFFFFFFFFFFFFFFFFFFFFFFFFFFFFFFFFFFF AND PUSH20 0xFFFFFFFFFFFFFFFFFFFFFFFFFFFFFFFFFFFFFFFF AND DUP2 MSTORE PUSH1 0x20 ADD SWAP1 DUP2 MSTORE PUSH1 0x20 ADD PUSH1 0x0 KECCAK256 PUSH1 0x0 SWAP1 SLOAD SWAP1 PUSH2 0x100 EXP SWAP1 DIV PUSH20 0xFFFFFFFFFFFFFFFFFFFFFFFFFFFFFFFFFFFFFFFF AND PUSH20 0xFFFFFFFFFFFFFFFFFFFFFFFFFFFFFFFFFFFFFFFF AND EQ PUSH2 0x1D3C JUMPI PUSH1 0x40 MLOAD PUSH32 0x8C379A000000000000000000000000000000000000000000000000000000000 DUP2 MSTORE PUSH1 0x4 ADD PUSH2 0x1D33 SWAP1 PUSH2 0x3CF8 JUMP JUMPDEST PUSH1 0x40 MLOAD DUP1 SWAP2 SUB SWAP1 REVERT JUMPDEST CALLER PUSH20 0xFFFFFFFFFFFFFFFFFFFFFFFFFFFFFFFFFFFFFFFF AND DUP2 PUSH20 0xFFFFFFFFFFFFFFFFFFFFFFFFFFFFFFFFFFFFFFFF AND SUB PUSH2 0x1DAA JUMPI PUSH1 0x40 MLOAD PUSH32 0x8C379A000000000000000000000000000000000000000000000000000000000 DUP2 MSTORE PUSH1 0x4 ADD PUSH2 0x1DA1 SWAP1 PUSH2 0x3D64 JUMP JUMPDEST PUSH1 0x40 MLOAD DUP1 SWAP2 SUB SWAP1 REVERT JUMPDEST PUSH2 0x4CA PUSH1 0x0 DUP3 PUSH20 0xFFFFFFFFFFFFFFFFFFFFFFFFFFFFFFFFFFFFFFFF AND PUSH20 0xFFFFFFFFFFFFFFFFFFFFFFFFFFFFFFFFFFFFFFFF AND DUP2 MSTORE PUSH1 0x20 ADD SWAP1 DUP2 MSTORE PUSH1 0x20 ADD PUSH1 0x0 KECCAK256 PUSH1 0x0 SWAP1 SLOAD SWAP1 PUSH2 0x100 EXP SWAP1 DIV PUSH1 0xFF AND PUSH2 0x1E37 JUMPI PUSH1 0x40 MLOAD PUSH32 0x8C379A000000000000000000000000000000000000000000000000000000000 DUP2 MSTORE PUSH1 0x4 ADD PUSH2 0x1E2E SWAP1 PUSH2 0x3DF6 JUMP JUMPDEST PUSH1 0x40 MLOAD DUP1 SWAP2 SUB SWAP1 REVERT JUMPDEST DUP1 PUSH2 0x4CC PUSH1 0x0 CALLER PUSH20 0xFFFFFFFFFFFFFFFFFFFFFFFFFFFFFFFFFFFFFFFF AND PUSH20 0xFFFFFFFFFFFFFFFFFFFFFFFFFFFFFFFFFFFFFFFF AND DUP2 MSTORE PUSH1 0x20 ADD SWAP1 DUP2 MSTORE PUSH1 0x20 ADD PUSH1 0x0 KECCAK256 PUSH1 0x0 PUSH2 0x100 EXP DUP2 SLOAD DUP2 PUSH20 0xFFFFFFFFFFFFFFFFFFFFFFFFFFFFFFFFFFFFFFFF MUL NOT AND SWAP1 DUP4 PUSH20 0xFFFFFFFFFFFFFFFFFFFFFFFFFFFFFFFFFFFFFFFF AND MUL OR SWAP1 SSTORE POP PUSH2 0x4CD PUSH1 0x0 DUP3 PUSH20 0xFFFFFFFFFFFFFFFFFFFFFFFFFFFFFFFFFFFFFFFF AND PUSH20 0xFFFFFFFFFFFFFFFFFFFFFFFFFFFFFFFFFFFFFFFF AND DUP2 MSTORE PUSH1 0x20 ADD SWAP1 DUP2 MSTORE PUSH1 0x20 ADD PUSH1 0x0 KECCAK256 CALLER SWAP1 DUP1 PUSH1 0x1 DUP2 SLOAD ADD DUP1 DUP3 SSTORE DUP1 SWAP2 POP POP PUSH1 0x1 SWAP1 SUB SWAP1 PUSH1 0x0 MSTORE PUSH1 0x20 PUSH1 0x0 KECCAK256 ADD PUSH1 0x0 SWAP1 SWAP2 SWAP1 SWAP2 SWAP1 SWAP2 PUSH2 0x100 EXP DUP2 SLOAD DUP2 PUSH20 0xFFFFFFFFFFFFFFFFFFFFFFFFFFFFFFFFFFFFFFFF MUL NOT AND SWAP1 DUP4 PUSH20 0xFFFFFFFFFFFFFFFFFFFFFFFFFFFFFFFFFFFFFFFF AND MUL OR SWAP1 SSTORE POP DUP1 PUSH20 0xFFFFFFFFFFFFFFFFFFFFFFFFFFFFFFFFFFFFFFFF AND CALLER PUSH20 0xFFFFFFFFFFFFFFFFFFFFFFFFFFFFFFFFFFFFFFFF AND PUSH32 0xDF63218877CB126F6C003F2B7F77327674CD6A0B53AD51DEAC392548EC12B0ED PUSH1 0x40 MLOAD PUSH1 0x40 MLOAD DUP1 SWAP2 SUB SWAP1 LOG3 JUMPDEST PUSH1 0x1 PUSH1 0x6 DUP5 PUSH1 0xFF AND PUSH1 0x14 DUP2 LT PUSH2 0x1FCB JUMPI PUSH2 0x1FCA PUSH2 0x36E0 JUMP JUMPDEST JUMPDEST PUSH1 0x3C MUL ADD DUP4 PUSH1 0xFF AND PUSH1 0x14 DUP2 LT PUSH2 0x1FE4 JUMPI PUSH2 0x1FE3 PUSH2 0x36E0 JUMP JUMPDEST JUMPDEST PUSH1 0x3 MUL ADD PUSH1 0x0 ADD PUSH1 0x0 PUSH2 0x100 EXP DUP2 SLOAD DUP2 PUSH1 0xFF MUL NOT AND SWAP1 DUP4 ISZERO ISZERO MUL OR SWAP1 SSTORE POP CALLER PUSH1 0x6 DUP5 PUSH1 0xFF AND PUSH1 0x14 DUP2 LT PUSH2 0x201A JUMPI PUSH2 0x2019 PUSH2 0x36E0 JUMP JUMPDEST JUMPDEST PUSH1 0x3C MUL ADD DUP4 PUSH1 0xFF AND PUSH1 0x14 DUP2 LT PUSH2 0x2033 JUMPI PUSH2 0x2032 PUSH2 0x36E0 JUMP JUMPDEST JUMPDEST PUSH1 0x3 MUL ADD PUSH1 0x0 ADD PUSH1 0x1 PUSH2 0x100 EXP DUP2 SLOAD DUP2 PUSH20 0xFFFFFFFFFFFFFFFFFFFFFFFFFFFFFFFFFFFFFFFF MUL NOT AND SWAP1 DUP4 PUSH20 0xFFFFFFFFFFFFFFFFFFFFFFFFFFFFFFFFFFFFFFFF AND MUL OR SWAP1 SSTORE POP PUSH1 0x1 PUSH2 0x4CA PUSH1 0x0 CALLER PUSH20 0xFFFFFFFFFFFFFFFFFFFFFFFFFFFFFFFFFFFFFFFF AND PUSH20 0xFFFFFFFFFFFFFFFFFFFFFFFFFFFFFFFFFFFFFFFF AND DUP2 MSTORE PUSH1 0x20 ADD SWAP1 DUP2 MSTORE PUSH1 0x20 ADD PUSH1 0x0 KECCAK256 PUSH1 0x0 PUSH2 0x100 EXP DUP2 SLOAD DUP2 PUSH1 0xFF MUL NOT AND SWAP1 DUP4 ISZERO ISZERO MUL OR SWAP1 SSTORE POP PUSH1 0x40 MLOAD DUP1 PUSH1 0x40 ADD PUSH1 0x40 MSTORE DUP1 DUP5 PUSH1 0xFF AND PUSH1 0xFF AND DUP2 MSTORE PUSH1 0x20 ADD DUP4 PUSH1 0xFF AND PUSH1 0xFF AND DUP2 MSTORE POP PUSH2 0x4CB PUSH1 0x0 CALLER PUSH20 0xFFFFFFFFFFFFFFFFFFFFFFFFFFFFFFFFFFFFFFFF AND PUSH20 0xFFFFFFFFFFFFFFFFFFFFFFFFFFFFFFFFFFFFFFFF AND DUP2 MSTORE PUSH1 0x20 ADD SWAP1 DUP2 MSTORE PUSH1 0x20 ADD PUSH1 0x0 KECCAK256 SWAP1 PUSH1 0x2 PUSH2 0x2140 SWAP3 SWAP2 SWAP1 PUSH2 0x2D8B JUMP JUMPDEST POP PUSH32 0x19C0182F0D6040E7F43AA17E1C6584130BDBC8DA2E4AC4D2050593808B77A771 DUP4 DUP4 PUSH1 0x1 CALLER PUSH1 0x40 MLOAD PUSH2 0x2177 SWAP5 SWAP4 SWAP3 SWAP2 SWAP1 PUSH2 0x3B23 JUMP JUMPDEST PUSH1 0x40 MLOAD DUP1 SWAP2 SUB SWAP1 LOG1 PUSH2 0x2187 PUSH2 0x2CEC JUMP JUMPDEST POP POP POP JUMP JUMPDEST PUSH1 0x3 PUSH1 0x0 SWAP1 SLOAD SWAP1 PUSH2 0x100 EXP SWAP1 DIV PUSH20 0xFFFFFFFFFFFFFFFFFFFFFFFFFFFFFFFFFFFFFFFF AND PUSH20 0xFFFFFFFFFFFFFFFFFFFFFFFFFFFFFFFFFFFFFFFF AND CALLER PUSH20 0xFFFFFFFFFFFFFFFFFFFFFFFFFFFFFFFFFFFFFFFF AND EQ PUSH2 0x221C JUMPI PUSH1 0x40 MLOAD PUSH32 0x8C379A000000000000000000000000000000000000000000000000000000000 DUP2 MSTORE PUSH1 0x4 ADD PUSH2 0x2213 SWAP1 PUSH2 0x3E62 JUMP JUMPDEST PUSH1 0x40 MLOAD DUP1 SWAP2 SUB SWAP1 REVERT JUMPDEST PUSH1 0x0 ISZERO ISZERO PUSH1 0x4 PUSH1 0x14 SWAP1 SLOAD SWAP1 PUSH2 0x100 EXP SWAP1 DIV PUSH1 0xFF AND ISZERO ISZERO SUB PUSH2 0x2257 JUMPI PUSH1 0x1 PUSH1 0x4 PUSH1 0x14 PUSH2 0x100 EXP DUP2 SLOAD DUP2 PUSH1 0xFF MUL NOT AND SWAP1 DUP4 ISZERO ISZERO MUL OR SWAP1 SSTORE POP PUSH2 0x2273 JUMP JUMPDEST PUSH1 0x0 PUSH1 0x4 PUSH1 0x14 PUSH2 0x100 EXP DUP2 SLOAD DUP2 PUSH1 0xFF MUL NOT AND SWAP1 DUP4 ISZERO ISZERO MUL OR SWAP1 SSTORE POP JUMPDEST JUMP JUMPDEST PUSH1 0x0 PUSH1 0x60 PUSH2 0x4CC PUSH1 0x0 DUP5 PUSH20 0xFFFFFFFFFFFFFFFFFFFFFFFFFFFFFFFFFFFFFFFF AND PUSH20 0xFFFFFFFFFFFFFFFFFFFFFFFFFFFFFFFFFFFFFFFF AND DUP2 MSTORE PUSH1 0x20 ADD SWAP1 DUP2 MSTORE PUSH1 0x20 ADD PUSH1 0x0 KECCAK256 PUSH1 0x0 SWAP1 SLOAD SWAP1 PUSH2 0x100 EXP SWAP1 DIV PUSH20 0xFFFFFFFFFFFFFFFFFFFFFFFFFFFFFFFFFFFFFFFF AND PUSH2 0x4CD PUSH1 0x0 DUP6 PUSH20 0xFFFFFFFFFFFFFFFFFFFFFFFFFFFFFFFFFFFFFFFF AND PUSH20 0xFFFFFFFFFFFFFFFFFFFFFFFFFFFFFFFFFFFFFFFF AND DUP2 MSTORE PUSH1 0x20 ADD SWAP1 DUP2 MSTORE PUSH1 0x20 ADD PUSH1 0x0 KECCAK256 DUP1 DUP1 SLOAD DUP1 PUSH1 0x20 MUL PUSH1 0x20 ADD PUSH1 0x40 MLOAD SWAP1 DUP2 ADD PUSH1 0x40 MSTORE DUP1 SWAP3 SWAP2 SWAP1 DUP2 DUP2 MSTORE PUSH1 0x20 ADD DUP3 DUP1 SLOAD DUP1 ISZERO PUSH2 0x239B JUMPI PUSH1 0x20 MUL DUP3 ADD SWAP2 SWAP1 PUSH1 0x0 MSTORE PUSH1 0x20 PUSH1 0x0 KECCAK256 SWAP1 JUMPDEST DUP2 PUSH1 0x0 SWAP1 SLOAD SWAP1 PUSH2 0x100 EXP SWAP1 DIV PUSH20 0xFFFFFFFFFFFFFFFFFFFFFFFFFFFFFFFFFFFFFFFF AND PUSH20 0xFFFFFFFFFFFFFFFFFFFFFFFFFFFFFFFFFFFFFFFF AND DUP2 MSTORE PUSH1 0x20 ADD SWAP1 PUSH1 0x1 ADD SWAP1 DUP1 DUP4 GT PUSH2 0x2351 JUMPI JUMPDEST POP POP POP POP POP SWAP1 POP SWAP2 POP SWAP2 POP SWAP2 POP SWAP2 JUMP JUMPDEST PUSH2 0x23B3 PUSH2 0x2E25 JUMP JUMPDEST PUSH2 0x23BB PUSH2 0x2E25 JUMP JUMPDEST PUSH1 0x0 JUMPDEST PUSH1 0x14 PUSH1 0xFF AND DUP2 PUSH1 0xFF AND LT ISZERO PUSH2 0x248A JUMPI PUSH1 0x0 JUMPDEST PUSH1 0x14 PUSH1 0xFF AND DUP2 PUSH1 0xFF AND LT ISZERO PUSH2 0x2476 JUMPI PUSH1 0x6 DUP3 PUSH1 0xFF AND PUSH1 0x14 DUP2 LT PUSH2 0x23F6 JUMPI PUSH2 0x23F5 PUSH2 0x36E0 JUMP JUMPDEST JUMPDEST PUSH1 0x3C MUL ADD DUP2 PUSH1 0xFF AND PUSH1 0x14 DUP2 LT PUSH2 0x240F JUMPI PUSH2 0x240E PUSH2 0x36E0 JUMP JUMPDEST JUMPDEST PUSH1 0x3 MUL ADD PUSH1 0x0 ADD PUSH1 0x0 SWAP1 SLOAD SWAP1 PUSH2 0x100 EXP SWAP1 DIV PUSH1 0xFF AND DUP4 DUP4 PUSH1 0xFF AND PUSH1 0x14 DUP2 LT PUSH2 0x243A JUMPI PUSH2 0x2439 PUSH2 0x36E0 JUMP JUMPDEST JUMPDEST PUSH1 0x20 MUL ADD MLOAD DUP3 PUSH1 0xFF AND PUSH1 0x14 DUP2 LT PUSH2 0x2454 JUMPI PUSH2 0x2453 PUSH2 0x36E0 JUMP JUMPDEST JUMPDEST PUSH1 0x20 MUL ADD SWAP1 ISZERO ISZERO SWAP1 DUP2 ISZERO ISZERO DUP2 MSTORE POP POP DUP1 DUP1 PUSH2 0x246E SWAP1 PUSH2 0x3E82 JUMP JUMPDEST SWAP2 POP POP PUSH2 0x23D0 JUMP JUMPDEST POP DUP1 DUP1 PUSH2 0x2482 SWAP1 PUSH2 0x3E82 JUMP JUMPDEST SWAP2 POP POP PUSH2 0x23BE JUMP JUMPDEST POP DUP1 SWAP2 POP POP SWAP1 JUMP JUMPDEST PUSH1 0x6 DUP3 PUSH1 0x14 DUP2 LT PUSH2 0x24A2 JUMPI PUSH1 0x0 DUP1 REVERT JUMPDEST PUSH1 0x3C MUL ADD DUP2 PUSH1 0x14 DUP2 LT PUSH2 0x24B4 JUMPI PUSH1 0x0 DUP1 REVERT JUMPDEST PUSH1 0x3 MUL ADD PUSH1 0x0 SWAP2 POP SWAP2 POP POP DUP1 PUSH1 0x0 ADD PUSH1 0x0 SWAP1 SLOAD SWAP1 PUSH2 0x100 EXP SWAP1 DIV PUSH1 0xFF AND SWAP1 DUP1 PUSH1 0x0 ADD PUSH1 0x1 SWAP1 SLOAD SWAP1 PUSH2 0x100 EXP SWAP1 DIV PUSH20 0xFFFFFFFFFFFFFFFFFFFFFFFFFFFFFFFFFFFFFFFF AND SWAP1 DUP1 PUSH1 0x0 ADD PUSH1 0x15 SWAP1 SLOAD SWAP1 PUSH2 0x100 EXP SWAP1 DIV PUSH1 0xFF AND SWAP1 DUP1 PUSH1 0x1 ADD SLOAD SWAP1 DUP1 PUSH1 0x2 ADD SLOAD SWAP1 POP DUP6 JUMP JUMPDEST PUSH1 0x0 PUSH1 0x14 PUSH1 0xFF AND DUP4 PUSH1 0xFF AND LT DUP1 ISZERO PUSH2 0x2539 JUMPI POP PUSH1 0x14 PUSH1 0xFF AND DUP3 PUSH1 0xFF AND LT JUMPDEST PUSH2 0x2578 JUMPI PUSH1 0x40 MLOAD PUSH32 0x8C379A000000000000000000000000000000000000000000000000000000000 DUP2 MSTORE PUSH1 0x4 ADD PUSH2 0x256F SWAP1 PUSH2 0x36C0 JUMP JUMPDEST PUSH1 0x40 MLOAD DUP1 SWAP2 SUB SWAP1 REVERT JUMPDEST PUSH1 0x6 DUP4 PUSH1 0xFF AND PUSH1 0x14 DUP2 LT PUSH2 0x258F JUMPI PUSH2 0x258E PUSH2 0x36E0 JUMP JUMPDEST JUMPDEST PUSH1 0x3C MUL ADD DUP3 PUSH1 0xFF AND PUSH1 0x14 DUP2 LT PUSH2 0x25A8 JUMPI PUSH2 0x25A7 PUSH2 0x36E0 JUMP JUMPDEST JUMPDEST PUSH1 0x3 MUL ADD PUSH1 0x0 ADD PUSH1 0x1 SWAP1 SLOAD SWAP1 PUSH2 0x100 EXP SWAP1 DIV PUSH20 0xFFFFFFFFFFFFFFFFFFFFFFFFFFFFFFFFFFFFFFFF AND SWAP1 POP SWAP3 SWAP2 POP POP JUMP JUMPDEST PUSH1 0x1 PUSH1 0x0 SWAP1 SLOAD SWAP1 PUSH2 0x100 EXP SWAP1 DIV PUSH20 0xFFFFFFFFFFFFFFFFFFFFFFFFFFFFFFFFFFFFFFFF AND DUP2 JUMP JUMPDEST PUSH1 0x3 PUSH1 0x0 SWAP1 SLOAD SWAP1 PUSH2 0x100 EXP SWAP1 DIV PUSH20 0xFFFFFFFFFFFFFFFFFFFFFFFFFFFFFFFFFFFFFFFF AND DUP2 JUMP JUMPDEST PUSH1 0x4 PUSH1 0x0 SWAP1 SLOAD SWAP1 PUSH2 0x100 EXP SWAP1 DIV PUSH20 0xFFFFFFFFFFFFFFFFFFFFFFFFFFFFFFFFFFFFFFFF AND DUP2 JUMP JUMPDEST PUSH2 0x4B6 DUP3 PUSH1 0x14 DUP2 LT PUSH2 0x265B JUMPI PUSH1 0x0 DUP1 REVERT JUMPDEST ADD DUP2 PUSH1 0x14 DUP2 LT PUSH2 0x266A JUMPI PUSH1 0x0 DUP1 REVERT JUMPDEST PUSH1 0x20 SWAP2 DUP3 DUP3 DIV ADD SWAP2 SWAP1 MOD SWAP2 POP SWAP2 POP SWAP1 SLOAD SWAP1 PUSH2 0x100 EXP SWAP1 DIV PUSH1 0xFF AND DUP2 JUMP JUMPDEST PUSH1 0x1 PUSH1 0x0 SWAP1 SLOAD SWAP1 PUSH2 0x100 EXP SWAP1 DIV PUSH20 0xFFFFFFFFFFFFFFFFFFFFFFFFFFFFFFFFFFFFFFFF AND PUSH20 0xFFFFFFFFFFFFFFFFFFFFFFFFFFFFFFFFFFFFFFFF AND CALLER PUSH20 0xFFFFFFFFFFFFFFFFFFFFFFFFFFFFFFFFFFFFFFFF AND EQ PUSH2 0x2717 JUMPI PUSH1 0x40 MLOAD PUSH32 0x8C379A000000000000000000000000000000000000000000000000000000000 DUP2 MSTORE PUSH1 0x4 ADD PUSH2 0x270E SWAP1 PUSH2 0x3EF7 JUMP JUMPDEST PUSH1 0x40 MLOAD DUP1 SWAP2 SUB SWAP1 REVERT JUMPDEST PUSH1 0x4 PUSH1 0x14 SWAP1 SLOAD SWAP1 PUSH2 0x100 EXP SWAP1 DIV PUSH1 0xFF AND PUSH2 0x2766 JUMPI PUSH1 0x40 MLOAD PUSH32 0x8C379A000000000000000000000000000000000000000000000000000000000 DUP2 MSTORE PUSH1 0x4 ADD PUSH2 0x275D SWAP1 PUSH2 0x3F63 JUMP JUMPDEST PUSH1 0x40 MLOAD DUP1 SWAP2 SUB SWAP1 REVERT JUMPDEST DUP1 PUSH1 0x2 PUSH1 0x0 PUSH2 0x100 EXP DUP2 SLOAD DUP2 PUSH20 0xFFFFFFFFFFFFFFFFFFFFFFFFFFFFFFFFFFFFFFFF MUL NOT AND SWAP1 DUP4 PUSH20 0xFFFFFFFFFFFFFFFFFFFFFFFFFFFFFFFFFFFFFFFF AND MUL OR SWAP1 SSTORE POP DUP1 PUSH20 0xFFFFFFFFFFFFFFFFFFFFFFFFFFFFFFFFFFFFFFFF AND PUSH32 0x60A0F5B9F9E81E98216071B85826681C796256FE3D1354ECB675580FBA64FA69 PUSH1 0x40 MLOAD PUSH1 0x40 MLOAD DUP1 SWAP2 SUB SWAP1 LOG2 POP JUMP JUMPDEST PUSH2 0x4CC PUSH1 0x20 MSTORE DUP1 PUSH1 0x0 MSTORE PUSH1 0x40 PUSH1 0x0 KECCAK256 PUSH1 0x0 SWAP2 POP SLOAD SWAP1 PUSH2 0x100 EXP SWAP1 DIV PUSH20 0xFFFFFFFFFFFFFFFFFFFFFFFFFFFFFFFFFFFFFFFF AND DUP2 JUMP JUMPDEST DUP4 DUP4 PUSH1 0x2 PUSH1 0x0 SWAP1 SLOAD SWAP1 PUSH2 0x100 EXP SWAP1 DIV PUSH20 0xFFFFFFFFFFFFFFFFFFFFFFFFFFFFFFFFFFFFFFFF AND PUSH20 0xFFFFFFFFFFFFFFFFFFFFFFFFFFFFFFFFFFFFFFFF AND CALLER PUSH20 0xFFFFFFFFFFFFFFFFFFFFFFFFFFFFFFFFFFFFFFFF AND EQ DUP1 PUSH2 0x2901 JUMPI POP PUSH1 0x6 DUP3 PUSH1 0xFF AND PUSH1 0x14 DUP2 LT PUSH2 0x2891 JUMPI PUSH2 0x2890 PUSH2 0x36E0 JUMP JUMPDEST JUMPDEST PUSH1 0x3C MUL ADD DUP2 PUSH1 0xFF AND PUSH1 0x14 DUP2 LT PUSH2 0x28AA JUMPI PUSH2 0x28A9 PUSH2 0x36E0 JUMP JUMPDEST JUMPDEST PUSH1 0x3 MUL ADD PUSH1 0x0 ADD PUSH1 0x1 SWAP1 SLOAD SWAP1 PUSH2 0x100 EXP SWAP1 DIV PUSH20 0xFFFFFFFFFFFFFFFFFFFFFFFFFFFFFFFFFFFFFFFF AND PUSH20 0xFFFFFFFFFFFFFFFFFFFFFFFFFFFFFFFFFFFFFFFF AND CALLER PUSH20 0xFFFFFFFFFFFFFFFFFFFFFFFFFFFFFFFFFFFFFFFF AND EQ JUMPDEST PUSH2 0x2940 JUMPI PUSH1 0x40 MLOAD PUSH32 0x8C379A000000000000000000000000000000000000000000000000000000000 DUP2 MSTORE PUSH1 0x4 ADD PUSH2 0x2937 SWAP1 PUSH2 0x3FF5 JUMP JUMPDEST PUSH1 0x40 MLOAD DUP1 SWAP2 SUB SWAP1 REVERT JUMPDEST PUSH1 0x14 PUSH1 0xFF AND DUP7 PUSH1 0xFF AND LT DUP1 ISZERO PUSH2 0x295C JUMPI POP PUSH1 0x14 PUSH1 0xFF AND DUP6 PUSH1 0xFF AND LT JUMPDEST PUSH2 0x299B JUMPI PUSH1 0x40 MLOAD PUSH32 0x8C379A000000000000000000000000000000000000000000000000000000000 DUP2 MSTORE PUSH1 0x4 ADD PUSH2 0x2992 SWAP1 PUSH2 0x36C0 JUMP JUMPDEST PUSH1 0x40 MLOAD DUP1 SWAP2 SUB SWAP1 REVERT JUMPDEST PUSH1 0x6 DUP7 PUSH1 0xFF AND PUSH1 0x14 DUP2 LT PUSH2 0x29B2 JUMPI PUSH2 0x29B1 PUSH2 0x36E0 JUMP JUMPDEST JUMPDEST PUSH1 0x3C MUL ADD DUP6 PUSH1 0xFF AND PUSH1 0x14 DUP2 LT PUSH2 0x29CB JUMPI PUSH2 0x29CA PUSH2 0x36E0 JUMP JUMPDEST JUMPDEST PUSH1 0x3 MUL ADD PUSH1 0x0 ADD PUSH1 0x0 SWAP1 SLOAD SWAP1 PUSH2 0x100 EXP SWAP1 DIV PUSH1 0xFF AND PUSH2 0x2A1F JUMPI PUSH1 0x40 MLOAD PUSH32 0x8C379A000000000000000000000000000000000000000000000000000000000 DUP2 MSTORE PUSH1 0x4 ADD PUSH2 0x2A16 SWAP1 PUSH2 0x375B JUMP JUMPDEST PUSH1 0x40 MLOAD DUP1 SWAP2 SUB SWAP1 REVERT JUMPDEST DUP4 PUSH1 0x6 DUP8 PUSH1 0xFF AND PUSH1 0x14 DUP2 LT PUSH2 0x2A37 JUMPI PUSH2 0x2A36 PUSH2 0x36E0 JUMP JUMPDEST JUMPDEST PUSH1 0x3C MUL ADD DUP7 PUSH1 0xFF AND PUSH1 0x14 DUP2 LT PUSH2 0x2A50 JUMPI PUSH2 0x2A4F PUSH2 0x36E0 JUMP JUMPDEST JUMPDEST PUSH1 0x3 MUL ADD PUSH1 0x0 ADD PUSH1 0x15 PUSH2 0x100 EXP DUP2 SLOAD DUP2 PUSH1 0xFF MUL NOT AND SWAP1 DUP4 ISZERO ISZERO MUL OR SWAP1 SSTORE POP DUP3 PUSH1 0x6 DUP8 PUSH1 0xFF AND PUSH1 0x14 DUP2 LT PUSH2 0x2A86 JUMPI PUSH2 0x2A85 PUSH2 0x36E0 JUMP JUMPDEST JUMPDEST PUSH1 0x3C MUL ADD DUP7 PUSH1 0xFF AND PUSH1 0x14 DUP2 LT PUSH2 0x2A9F JUMPI PUSH2 0x2A9E PUSH2 0x36E0 JUMP JUMPDEST JUMPDEST PUSH1 0x3 MUL ADD PUSH1 0x1 ADD DUP2 SWAP1 SSTORE POP PUSH1 0xA DUP4 PUSH2 0x2AB7 SWAP2 SWAP1 PUSH2 0x4044 JUMP JUMPDEST PUSH1 0x6 DUP8 PUSH1 0xFF AND PUSH1 0x14 DUP2 LT PUSH2 0x2ACE JUMPI PUSH2 0x2ACD PUSH2 0x36E0 JUMP JUMPDEST JUMPDEST PUSH1 0x3C MUL ADD DUP7 PUSH1 0xFF AND PUSH1 0x14 DUP2 LT PUSH2 0x2AE7 JUMPI PUSH2 0x2AE6 PUSH2 0x36E0 JUMP JUMPDEST JUMPDEST PUSH1 0x3 MUL ADD PUSH1 0x2 ADD DUP2 SWAP1 SSTORE POP PUSH32 0x641F89AEC36931A43D99F5A3FD4D845CC1112EC11452D8CFB6D97D78F8B6FFAC DUP7 DUP7 DUP7 DUP7 PUSH1 0x40 MLOAD PUSH2 0x2B27 SWAP5 SWAP4 SWAP3 SWAP2 SWAP1 PUSH2 0x4075 JUMP JUMPDEST PUSH1 0x40 MLOAD DUP1 SWAP2 SUB SWAP1 LOG1 POP POP POP POP POP POP JUMP JUMPDEST PUSH1 0x1 PUSH1 0x0 SWAP1 SLOAD SWAP1 PUSH2 0x100 EXP SWAP1 DIV PUSH20 0xFFFFFFFFFFFFFFFFFFFFFFFFFFFFFFFFFFFFFFFF AND PUSH20 0xFFFFFFFFFFFFFFFFFFFFFFFFFFFFFFFFFFFFFFFF AND CALLER PUSH20 0xFFFFFFFFFFFFFFFFFFFFFFFFFFFFFFFFFFFFFFFF AND EQ PUSH2 0x2BC7 JUMPI PUSH1 0x40 MLOAD PUSH32 0x8C379A000000000000000000000000000000000000000000000000000000000 DUP2 MSTORE PUSH1 0x4 ADD PUSH2 0x2BBE SWAP1 PUSH2 0x3EF7 JUMP JUMPDEST PUSH1 0x40 MLOAD DUP1 SWAP2 SUB SWAP1 REVERT JUMPDEST PUSH1 0x4 PUSH1 0x14 SWAP1 SLOAD SWAP1 PUSH2 0x100 EXP SWAP1 DIV PUSH1 0xFF AND PUSH2 0x2C16 JUMPI PUSH1 0x40 MLOAD PUSH32 0x8C379A000000000000000000000000000000000000000000000000000000000 DUP2 MSTORE PUSH1 0x4 ADD PUSH2 0x2C0D SWAP1 PUSH2 0x3F63 JUMP JUMPDEST PUSH1 0x40 MLOAD DUP1 SWAP2 SUB SWAP1 REVERT JUMPDEST DUP1 PUSH1 0x4 PUSH1 0x0 PUSH2 0x100 EXP DUP2 SLOAD DUP2 PUSH20 0xFFFFFFFFFFFFFFFFFFFFFFFFFFFFFFFFFFFFFFFF MUL NOT AND SWAP1 DUP4 PUSH20 0xFFFFFFFFFFFFFFFFFFFFFFFFFFFFFFFFFFFFFFFF AND MUL OR SWAP1 SSTORE POP DUP1 PUSH20 0xFFFFFFFFFFFFFFFFFFFFFFFFFFFFFFFFFFFFFFFF AND PUSH32 0xFB3A44111C652758DBCB45122C36BA9FA8D5F2C5B3DF984A0196DEE5A0BDCC97 PUSH1 0x40 MLOAD PUSH1 0x40 MLOAD DUP1 SWAP2 SUB SWAP1 LOG2 POP JUMP JUMPDEST PUSH1 0x2 PUSH1 0x0 SLOAD SUB PUSH2 0x2CE2 JUMPI PUSH1 0x40 MLOAD PUSH32 0x8C379A000000000000000000000000000000000000000000000000000000000 DUP2 MSTORE PUSH1 0x4 ADD PUSH2 0x2CD9 SWAP1 PUSH2 0x4106 JUMP JUMPDEST PUSH1 0x40 MLOAD DUP1 SWAP2 SUB SWAP1 REVERT JUMPDEST PUSH1 0x2 PUSH1 0x0 DUP2 SWAP1 SSTORE POP JUMP JUMPDEST PUSH1 0x1 PUSH1 0x0 DUP2 SWAP1 SSTORE POP JUMP JUMPDEST PUSH1 0x40 MLOAD DUP1 PUSH1 0x40 ADD PUSH1 0x40 MSTORE DUP1 PUSH1 0x2 SWAP1 PUSH1 0x20 DUP3 MUL DUP1 CALLDATASIZE DUP4 CALLDATACOPY DUP1 DUP3 ADD SWAP2 POP POP SWAP1 POP POP SWAP1 JUMP JUMPDEST DUP3 DUP1 SLOAD DUP3 DUP3 SSTORE SWAP1 PUSH1 0x0 MSTORE PUSH1 0x20 PUSH1 0x0 KECCAK256 SWAP1 DUP2 ADD SWAP3 DUP3 ISZERO PUSH2 0x2D59 JUMPI PUSH1 0x0 MSTORE PUSH1 0x20 PUSH1 0x0 KECCAK256 SWAP2 DUP3 ADD JUMPDEST DUP3 DUP2 GT ISZERO PUSH2 0x2D58 JUMPI DUP3 SLOAD DUP3 SSTORE SWAP2 PUSH1 0x1 ADD SWAP2 SWAP1 PUSH1 0x1 ADD SWAP1 PUSH2 0x2D3D JUMP JUMPDEST JUMPDEST POP SWAP1 POP PUSH2 0x2D66 SWAP2 SWAP1 PUSH2 0x2E53 JUMP JUMPDEST POP SWAP1 JUMP JUMPDEST POP DUP1 SLOAD PUSH1 0x0 DUP3 SSTORE SWAP1 PUSH1 0x0 MSTORE PUSH1 0x20 PUSH1 0x0 KECCAK256 SWAP1 DUP2 ADD SWAP1 PUSH2 0x2D88 SWAP2 SWAP1 PUSH2 0x2E53 JUMP JUMPDEST POP JUMP JUMPDEST DUP3 PUSH1 0x2 PUSH1 0x1F ADD PUSH1 0x20 SWAP1 DIV DUP2 ADD SWAP3 DUP3 ISZERO PUSH2 0x2E14 JUMPI SWAP2 PUSH1 0x20 MUL DUP3 ADD PUSH1 0x0 JUMPDEST DUP4 DUP3 GT ISZERO PUSH2 0x2DE5 JUMPI DUP4 MLOAD DUP4 DUP3 PUSH2 0x100 EXP DUP2 SLOAD DUP2 PUSH1 0xFF MUL NOT AND SWAP1 DUP4 PUSH1 0xFF AND MUL OR SWAP1 SSTORE POP SWAP3 PUSH1 0x20 ADD SWAP3 PUSH1 0x1 ADD PUSH1 0x20 DUP2 PUSH1 0x0 ADD DIV SWAP3 DUP4 ADD SWAP3 PUSH1 0x1 SUB MUL PUSH2 0x2DA7 JUMP JUMPDEST DUP1 ISZERO PUSH2 0x2E12 JUMPI DUP3 DUP2 PUSH2 0x100 EXP DUP2 SLOAD SWAP1 PUSH1 0xFF MUL NOT AND SWAP1 SSTORE PUSH1 0x1 ADD PUSH1 0x20 DUP2 PUSH1 0x0 ADD DIV SWAP3 DUP4 ADD SWAP3 PUSH1 0x1 SUB MUL PUSH2 0x2DE5 JUMP JUMPDEST POP JUMPDEST POP SWAP1 POP PUSH2 0x2E21 SWAP2 SWAP1 PUSH2 0x2E53 JUMP JUMPDEST POP SWAP1 JUMP JUMPDEST PUSH1 0x40 MLOAD DUP1 PUSH2 0x280 ADD PUSH1 0x40 MSTORE DUP1 PUSH1 0x14 SWAP1 JUMPDEST PUSH2 0x2E3D PUSH2 0x2E70 JUMP JUMPDEST DUP2 MSTORE PUSH1 0x20 ADD SWAP1 PUSH1 0x1 SWAP1 SUB SWAP1 DUP2 PUSH2 0x2E35 JUMPI SWAP1 POP POP SWAP1 JUMP JUMPDEST JUMPDEST DUP1 DUP3 GT ISZERO PUSH2 0x2E6C JUMPI PUSH1 0x0 DUP2 PUSH1 0x0 SWAP1 SSTORE POP PUSH1 0x1 ADD PUSH2 0x2E54 JUMP JUMPDEST POP SWAP1 JUMP JUMPDEST PUSH1 0x40 MLOAD DUP1 PUSH2 0x280 ADD PUSH1 0x40 MSTORE DUP1 PUSH1 0x14 SWAP1 PUSH1 0x20 DUP3 MUL DUP1 CALLDATASIZE DUP4 CALLDATACOPY DUP1 DUP3 ADD SWAP2 POP POP SWAP1 POP POP SWAP1 JUMP JUMPDEST PUSH1 0x0 PUSH20 0xFFFFFFFFFFFFFFFFFFFFFFFFFFFFFFFFFFFFFFFF DUP3 AND SWAP1 POP SWAP2 SWAP1 POP JUMP JUMPDEST PUSH1 0x0 DUP2 SWAP1 POP SWAP2 SWAP1 POP JUMP JUMPDEST PUSH1 0x0 PUSH2 0x2ED8 PUSH2 0x2ED3 PUSH2 0x2ECE DUP5 PUSH2 0x2E93 JUMP JUMPDEST PUSH2 0x2EB3 JUMP JUMPDEST PUSH2 0x2E93 JUMP JUMPDEST SWAP1 POP SWAP2 SWAP1 POP JUMP JUMPDEST PUSH1 0x0 PUSH2 0x2EEA DUP3 PUSH2 0x2EBD JUMP JUMPDEST SWAP1 POP SWAP2 SWAP1 POP JUMP JUMPDEST PUSH1 0x0 PUSH2 0x2EFC DUP3 PUSH2 0x2EDF JUMP JUMPDEST SWAP1 POP SWAP2 SWAP1 POP JUMP JUMPDEST PUSH2 0x2F0C DUP2 PUSH2 0x2EF1 JUMP JUMPDEST DUP3 MSTORE POP POP JUMP JUMPDEST PUSH1 0x0 PUSH1 0x20 DUP3 ADD SWAP1 POP PUSH2 0x2F27 PUSH1 0x0 DUP4 ADD DUP5 PUSH2 0x2F03 JUMP JUMPDEST SWAP3 SWAP2 POP POP JUMP JUMPDEST PUSH1 0x0 PUSH1 0xFF DUP3 AND SWAP1 POP SWAP2 SWAP1 POP JUMP JUMPDEST PUSH2 0x2F43 DUP2 PUSH2 0x2F2D JUMP JUMPDEST DUP3 MSTORE POP POP JUMP JUMPDEST PUSH1 0x0 PUSH1 0x20 DUP3 ADD SWAP1 POP PUSH2 0x2F5E PUSH1 0x0 DUP4 ADD DUP5 PUSH2 0x2F3A JUMP JUMPDEST SWAP3 SWAP2 POP POP JUMP JUMPDEST PUSH1 0x0 DUP1 REVERT JUMPDEST PUSH1 0x0 PUSH2 0x2F74 DUP3 PUSH2 0x2E93 JUMP JUMPDEST SWAP1 POP SWAP2 SWAP1 POP JUMP JUMPDEST PUSH2 0x2F84 DUP2 PUSH2 0x2F69 JUMP JUMPDEST DUP2 EQ PUSH2 0x2F8F JUMPI PUSH1 0x0 DUP1 REVERT JUMPDEST POP JUMP JUMPDEST PUSH1 0x0 DUP2 CALLDATALOAD SWAP1 POP PUSH2 0x2FA1 DUP2 PUSH2 0x2F7B JUMP JUMPDEST SWAP3 SWAP2 POP POP JUMP JUMPDEST PUSH1 0x0 DUP2 SWAP1 POP SWAP2 SWAP1 POP JUMP JUMPDEST PUSH2 0x2FBA DUP2 PUSH2 0x2FA7 JUMP JUMPDEST DUP2 EQ PUSH2 0x2FC5 JUMPI PUSH1 0x0 DUP1 REVERT JUMPDEST POP JUMP JUMPDEST PUSH1 0x0 DUP2 CALLDATALOAD SWAP1 POP PUSH2 0x2FD7 DUP2 PUSH2 0x2FB1 JUMP JUMPDEST SWAP3 SWAP2 POP POP JUMP JUMPDEST PUSH1 0x0 DUP1 PUSH1 0x40 DUP4 DUP6 SUB SLT ISZERO PUSH2 0x2FF4 JUMPI PUSH2 0x2FF3 PUSH2 0x2F64 JUMP JUMPDEST JUMPDEST PUSH1 0x0 PUSH2 0x3002 DUP6 DUP3 DUP7 ADD PUSH2 0x2F92 JUMP JUMPDEST SWAP3 POP POP PUSH1 0x20 PUSH2 0x3013 DUP6 DUP3 DUP7 ADD PUSH2 0x2FC8 JUMP JUMPDEST SWAP2 POP POP SWAP3 POP SWAP3 SWAP1 POP JUMP JUMPDEST PUSH2 0x3026 DUP2 PUSH2 0x2F69 JUMP JUMPDEST DUP3 MSTORE POP POP JUMP JUMPDEST PUSH1 0x0 PUSH1 0x20 DUP3 ADD SWAP1 POP PUSH2 0x3041 PUSH1 0x0 DUP4 ADD DUP5 PUSH2 0x301D JUMP JUMPDEST SWAP3 SWAP2 POP POP JUMP JUMPDEST PUSH1 0x0 PUSH1 0x20 DUP3 DUP5 SUB SLT ISZERO PUSH2 0x305D JUMPI PUSH2 0x305C PUSH2 0x2F64 JUMP JUMPDEST JUMPDEST PUSH1 0x0 PUSH2 0x306B DUP5 DUP3 DUP6 ADD PUSH2 0x2F92 JUMP JUMPDEST SWAP2 POP POP SWAP3 SWAP2 POP POP JUMP JUMPDEST PUSH1 0x0 PUSH1 0x2 SWAP1 POP SWAP2 SWAP1 POP JUMP JUMPDEST PUSH1 0x0 DUP2 SWAP1 POP SWAP3 SWAP2 POP POP JUMP JUMPDEST PUSH1 0x0 DUP2 SWAP1 POP SWAP2 SWAP1 POP JUMP JUMPDEST PUSH2 0x309D DUP2 PUSH2 0x2F2D JUMP JUMPDEST DUP3 MSTORE POP POP JUMP JUMPDEST PUSH1 0x0 PUSH2 0x30AF DUP4 DUP4 PUSH2 0x3094 JUMP JUMPDEST PUSH1 0x20 DUP4 ADD SWAP1 POP SWAP3 SWAP2 POP POP JUMP JUMPDEST PUSH1 0x0 PUSH1 0x20 DUP3 ADD SWAP1 POP SWAP2 SWAP1 POP JUMP JUMPDEST PUSH2 0x30D1 DUP2 PUSH2 0x3074 JUMP JUMPDEST PUSH2 0x30DB DUP2 DUP5 PUSH2 0x307F JUMP JUMPDEST SWAP3 POP PUSH2 0x30E6 DUP3 PUSH2 0x308A JUMP JUMPDEST DUP1 PUSH1 0x0 JUMPDEST DUP4 DUP2 LT ISZERO PUSH2 0x3117 JUMPI DUP2 MLOAD PUSH2 0x30FE DUP8 DUP3 PUSH2 0x30A3 JUMP JUMPDEST SWAP7 POP PUSH2 0x3109 DUP4 PUSH2 0x30BB JUMP JUMPDEST SWAP3 POP POP PUSH1 0x1 DUP2 ADD SWAP1 POP PUSH2 0x30EA JUMP JUMPDEST POP POP POP POP POP POP JUMP JUMPDEST PUSH1 0x0 PUSH1 0x40 DUP3 ADD SWAP1 POP PUSH2 0x3134 PUSH1 0x0 DUP4 ADD DUP5 PUSH2 0x30C8 JUMP JUMPDEST SWAP3 SWAP2 POP POP JUMP JUMPDEST PUSH2 0x3143 DUP2 PUSH2 0x2F2D JUMP JUMPDEST DUP2 EQ PUSH2 0x314E JUMPI PUSH1 0x0 DUP1 REVERT JUMPDEST POP JUMP JUMPDEST PUSH1 0x0 DUP2 CALLDATALOAD SWAP1 POP PUSH2 0x3160 DUP2 PUSH2 0x313A JUMP JUMPDEST SWAP3 SWAP2 POP POP JUMP JUMPDEST PUSH1 0x0 DUP1 PUSH1 0x40 DUP4 DUP6 SUB SLT ISZERO PUSH2 0x317D JUMPI PUSH2 0x317C PUSH2 0x2F64 JUMP JUMPDEST JUMPDEST PUSH1 0x0 PUSH2 0x318B DUP6 DUP3 DUP7 ADD PUSH2 0x3151 JUMP JUMPDEST SWAP3 POP POP PUSH1 0x20 PUSH2 0x319C DUP6 DUP3 DUP7 ADD PUSH2 0x3151 JUMP JUMPDEST SWAP2 POP POP SWAP3 POP SWAP3 SWAP1 POP JUMP JUMPDEST PUSH1 0x0 DUP2 ISZERO ISZERO SWAP1 POP SWAP2 SWAP1 POP JUMP JUMPDEST PUSH2 0x31BB DUP2 PUSH2 0x31A6 JUMP JUMPDEST DUP3 MSTORE POP POP JUMP JUMPDEST PUSH1 0x0 PUSH1 0x20 DUP3 ADD SWAP1 POP PUSH2 0x31D6 PUSH1 0x0 DUP4 ADD DUP5 PUSH2 0x31B2 JUMP JUMPDEST SWAP3 SWAP2 POP POP JUMP JUMPDEST PUSH2 0x31E5 DUP2 PUSH2 0x2FA7 JUMP JUMPDEST DUP3 MSTORE POP POP JUMP JUMPDEST PUSH1 0x0 PUSH1 0x20 DUP3 ADD SWAP1 POP PUSH2 0x3200 PUSH1 0x0 DUP4 ADD DUP5 PUSH2 0x31DC JUMP JUMPDEST SWAP3 SWAP2 POP POP JUMP JUMPDEST PUSH1 0x0 DUP1 PUSH1 0x0 PUSH1 0x60 DUP5 DUP7 SUB SLT ISZERO PUSH2 0x321F JUMPI PUSH2 0x321E PUSH2 0x2F64 JUMP JUMPDEST JUMPDEST PUSH1 0x0 PUSH2 0x322D DUP7 DUP3 DUP8 ADD PUSH2 0x3151 JUMP JUMPDEST SWAP4 POP POP PUSH1 0x20 PUSH2 0x323E DUP7 DUP3 DUP8 ADD PUSH2 0x3151 JUMP JUMPDEST SWAP3 POP POP PUSH1 0x40 PUSH2 0x324F DUP7 DUP3 DUP8 ADD PUSH2 0x2F92 JUMP JUMPDEST SWAP2 POP POP SWAP3 POP SWAP3 POP SWAP3 JUMP JUMPDEST PUSH1 0x0 DUP2 MLOAD SWAP1 POP SWAP2 SWAP1 POP JUMP JUMPDEST PUSH1 0x0 DUP3 DUP3 MSTORE PUSH1 0x20 DUP3 ADD SWAP1 POP SWAP3 SWAP2 POP POP JUMP JUMPDEST PUSH1 0x0 DUP2 SWAP1 POP PUSH1 0x20 DUP3 ADD SWAP1 POP SWAP2 SWAP1 POP JUMP JUMPDEST PUSH2 0x328E DUP2 PUSH2 0x2F69 JUMP JUMPDEST DUP3 MSTORE POP POP JUMP JUMPDEST PUSH1 0x0 PUSH2 0x32A0 DUP4 DUP4 PUSH2 0x3285 JUMP JUMPDEST PUSH1 0x20 DUP4 ADD SWAP1 POP SWAP3 SWAP2 POP POP JUMP JUMPDEST PUSH1 0x0 PUSH1 0x20 DUP3 ADD SWAP1 POP SWAP2 SWAP1 POP JUMP JUMPDEST PUSH1 0x0 PUSH2 0x32C4 DUP3 PUSH2 0x3259 JUMP JUMPDEST PUSH2 0x32CE DUP2 DUP6 PUSH2 0x3264 JUMP JUMPDEST SWAP4 POP PUSH2 0x32D9 DUP4 PUSH2 0x3275 JUMP JUMPDEST DUP1 PUSH1 0x0 JUMPDEST DUP4 DUP2 LT ISZERO PUSH2 0x330A JUMPI DUP2 MLOAD PUSH2 0x32F1 DUP9 DUP3 PUSH2 0x3294 JUMP JUMPDEST SWAP8 POP PUSH2 0x32FC DUP4 PUSH2 0x32AC JUMP JUMPDEST SWAP3 POP POP PUSH1 0x1 DUP2 ADD SWAP1 POP PUSH2 0x32DD JUMP JUMPDEST POP DUP6 SWAP4 POP POP POP POP SWAP3 SWAP2 POP POP JUMP JUMPDEST PUSH1 0x0 PUSH1 0x40 DUP3 ADD SWAP1 POP PUSH2 0x332C PUSH1 0x0 DUP4 ADD DUP6 PUSH2 0x301D JUMP JUMPDEST DUP2 DUP2 SUB PUSH1 0x20 DUP4 ADD MSTORE PUSH2 0x333E DUP2 DUP5 PUSH2 0x32B9 JUMP JUMPDEST SWAP1 POP SWAP4 SWAP3 POP POP POP JUMP JUMPDEST PUSH1 0x0 PUSH1 0x14 SWAP1 POP SWAP2 SWAP1 POP JUMP JUMPDEST PUSH1 0x0 DUP2 SWAP1 POP SWAP3 SWAP2 POP POP JUMP JUMPDEST PUSH1 0x0 DUP2 SWAP1 POP SWAP2 SWAP1 POP JUMP JUMPDEST PUSH1 0x0 PUSH1 0x14 SWAP1 POP SWAP2 SWAP1 POP JUMP JUMPDEST PUSH1 0x0 DUP2 SWAP1 POP SWAP3 SWAP2 POP POP JUMP JUMPDEST PUSH1 0x0 DUP2 SWAP1 POP SWAP2 SWAP1 POP JUMP JUMPDEST PUSH2 0x3390 DUP2 PUSH2 0x31A6 JUMP JUMPDEST DUP3 MSTORE POP POP JUMP JUMPDEST PUSH1 0x0 PUSH2 0x33A2 DUP4 DUP4 PUSH2 0x3387 JUMP JUMPDEST PUSH1 0x20 DUP4 ADD SWAP1 POP SWAP3 SWAP2 POP POP JUMP JUMPDEST PUSH1 0x0 PUSH1 0x20 DUP3 ADD SWAP1 POP SWAP2 SWAP1 POP JUMP JUMPDEST PUSH2 0x33C4 DUP2 PUSH2 0x3367 JUMP JUMPDEST PUSH2 0x33CE DUP2 DUP5 PUSH2 0x3372 JUMP JUMPDEST SWAP3 POP PUSH2 0x33D9 DUP3 PUSH2 0x337D JUMP JUMPDEST DUP1 PUSH1 0x0 JUMPDEST DUP4 DUP2 LT ISZERO PUSH2 0x340A JUMPI DUP2 MLOAD PUSH2 0x33F1 DUP8 DUP3 PUSH2 0x3396 JUMP JUMPDEST SWAP7 POP PUSH2 0x33FC DUP4 PUSH2 0x33AE JUMP JUMPDEST SWAP3 POP POP PUSH1 0x1 DUP2 ADD SWAP1 POP PUSH2 0x33DD JUMP JUMPDEST POP POP POP POP POP POP JUMP JUMPDEST PUSH1 0x0 PUSH2 0x341E DUP4 DUP4 PUSH2 0x33BB JUMP JUMPDEST PUSH2 0x280 DUP4 ADD SWAP1 POP SWAP3 SWAP2 POP POP JUMP JUMPDEST PUSH1 0x0 PUSH1 0x20 DUP3 ADD SWAP1 POP SWAP2 SWAP1 POP JUMP JUMPDEST PUSH2 0x3441 DUP2 PUSH2 0x3347 JUMP JUMPDEST PUSH2 0x344B DUP2 DUP5 PUSH2 0x3352 JUMP JUMPDEST SWAP3 POP PUSH2 0x3456 DUP3 PUSH2 0x335D JUMP JUMPDEST DUP1 PUSH1 0x0 JUMPDEST DUP4 DUP2 LT ISZERO PUSH2 0x3487 JUMPI DUP2 MLOAD PUSH2 0x346E DUP8 DUP3 PUSH2 0x3412 JUMP JUMPDEST SWAP7 POP PUSH2 0x3479 DUP4 PUSH2 0x342B JUMP JUMPDEST SWAP3 POP POP PUSH1 0x1 DUP2 ADD SWAP1 POP PUSH2 0x345A JUMP JUMPDEST POP POP POP POP POP POP JUMP JUMPDEST PUSH1 0x0 PUSH2 0x3200 DUP3 ADD SWAP1 POP PUSH2 0x34A5 PUSH1 0x0 DUP4 ADD DUP5 PUSH2 0x3438 JUMP JUMPDEST SWAP3 SWAP2 POP POP JUMP JUMPDEST PUSH1 0x0 DUP1 PUSH1 0x40 DUP4 DUP6 SUB SLT ISZERO PUSH2 0x34C2 JUMPI PUSH2 0x34C1 PUSH2 0x2F64 JUMP JUMPDEST JUMPDEST PUSH1 0x0 PUSH2 0x34D0 DUP6 DUP3 DUP7 ADD PUSH2 0x2FC8 JUMP JUMPDEST SWAP3 POP POP PUSH1 0x20 PUSH2 0x34E1 DUP6 DUP3 DUP7 ADD PUSH2 0x2FC8 JUMP JUMPDEST SWAP2 POP POP SWAP3 POP SWAP3 SWAP1 POP JUMP JUMPDEST PUSH1 0x0 PUSH1 0xA0 DUP3 ADD SWAP1 POP PUSH2 0x3500 PUSH1 0x0 DUP4 ADD DUP9 PUSH2 0x31B2 JUMP JUMPDEST PUSH2 0x350D PUSH1 0x20 DUP4 ADD DUP8 PUSH2 0x301D JUMP JUMPDEST PUSH2 0x351A PUSH1 0x40 DUP4 ADD DUP7 PUSH2 0x31B2 JUMP JUMPDEST PUSH2 0x3527 PUSH1 0x60 DUP4 ADD DUP6 PUSH2 0x31DC JUMP JUMPDEST PUSH2 0x3534 PUSH1 0x80 DUP4 ADD DUP5 PUSH2 0x31DC JUMP JUMPDEST SWAP7 SWAP6 POP POP POP POP POP POP JUMP JUMPDEST PUSH2 0x3547 DUP2 PUSH2 0x31A6 JUMP JUMPDEST DUP2 EQ PUSH2 0x3552 JUMPI PUSH1 0x0 DUP1 REVERT JUMPDEST POP JUMP JUMPDEST PUSH1 0x0 DUP2 CALLDATALOAD SWAP1 POP PUSH2 0x3564 DUP2 PUSH2 0x353E JUMP JUMPDEST SWAP3 SWAP2 POP POP JUMP JUMPDEST PUSH1 0x0 DUP1 PUSH1 0x0 DUP1 PUSH1 0x80 DUP6 DUP8 SUB SLT ISZERO PUSH2 0x3584 JUMPI PUSH2 0x3583 PUSH2 0x2F64 JUMP JUMPDEST JUMPDEST PUSH1 0x0 PUSH2 0x3592 DUP8 DUP3 DUP9 ADD PUSH2 0x3151 JUMP JUMPDEST SWAP5 POP POP PUSH1 0x20 PUSH2 0x35A3 DUP8 DUP3 DUP9 ADD PUSH2 0x3151 JUMP JUMPDEST SWAP4 POP POP PUSH1 0x40 PUSH2 0x35B4 DUP8 DUP3 DUP9 ADD PUSH2 0x3555 JUMP JUMPDEST SWAP3 POP POP PUSH1 0x60 PUSH2 0x35C5 DUP8 DUP3 DUP9 ADD PUSH2 0x2FC8 JUMP JUMPDEST SWAP2 POP POP SWAP3 SWAP6 SWAP2 SWAP5 POP SWAP3 POP JUMP JUMPDEST PUSH1 0x0 DUP3 DUP3 MSTORE PUSH1 0x20 DUP3 ADD SWAP1 POP SWAP3 SWAP2 POP POP JUMP JUMPDEST PUSH32 0x54686973206164647265737320686173206E6F74206F63637570696564206120 PUSH1 0x0 DUP3 ADD MSTORE PUSH32 0x74696C6500000000000000000000000000000000000000000000000000000000 PUSH1 0x20 DUP3 ADD MSTORE POP JUMP JUMPDEST PUSH1 0x0 PUSH2 0x363E PUSH1 0x24 DUP4 PUSH2 0x35D1 JUMP JUMPDEST SWAP2 POP PUSH2 0x3649 DUP3 PUSH2 0x35E2 JUMP JUMPDEST PUSH1 0x40 DUP3 ADD SWAP1 POP SWAP2 SWAP1 POP JUMP JUMPDEST PUSH1 0x0 PUSH1 0x20 DUP3 ADD SWAP1 POP DUP2 DUP2 SUB PUSH1 0x0 DUP4 ADD MSTORE PUSH2 0x366D DUP2 PUSH2 0x3631 JUMP JUMPDEST SWAP1 POP SWAP2 SWAP1 POP JUMP JUMPDEST PUSH32 0x496E76616C69642074696C6520636F6F7264696E617465730000000000000000 PUSH1 0x0 DUP3 ADD MSTORE POP JUMP JUMPDEST PUSH1 0x0 PUSH2 0x36AA PUSH1 0x18 DUP4 PUSH2 0x35D1 JUMP JUMPDEST SWAP2 POP PUSH2 0x36B5 DUP3 PUSH2 0x3674 JUMP JUMPDEST PUSH1 0x20 DUP3 ADD SWAP1 POP SWAP2 SWAP1 POP JUMP JUMPDEST PUSH1 0x0 PUSH1 0x20 DUP3 ADD SWAP1 POP DUP2 DUP2 SUB PUSH1 0x0 DUP4 ADD MSTORE PUSH2 0x36D9 DUP2 PUSH2 0x369D JUMP JUMPDEST SWAP1 POP SWAP2 SWAP1 POP JUMP JUMPDEST PUSH32 0x4E487B7100000000000000000000000000000000000000000000000000000000 PUSH1 0x0 MSTORE PUSH1 0x32 PUSH1 0x4 MSTORE PUSH1 0x24 PUSH1 0x0 REVERT JUMPDEST PUSH32 0x54696C65206973206E6F74206F63637570696564000000000000000000000000 PUSH1 0x0 DUP3 ADD MSTORE POP JUMP JUMPDEST PUSH1 0x0 PUSH2 0x3745 PUSH1 0x14 DUP4 PUSH2 0x35D1 JUMP JUMPDEST SWAP2 POP PUSH2 0x3750 DUP3 PUSH2 0x370F JUMP JUMPDEST PUSH1 0x20 DUP3 ADD SWAP1 POP SWAP2 SWAP1 POP JUMP JUMPDEST PUSH1 0x0 PUSH1 0x20 DUP3 ADD SWAP1 POP DUP2 DUP2 SUB PUSH1 0x0 DUP4 ADD MSTORE PUSH2 0x3774 DUP2 PUSH2 0x3738 JUMP JUMPDEST SWAP1 POP SWAP2 SWAP1 POP JUMP JUMPDEST PUSH32 0x54696C65206973206E6F74206F6E2073616C6500000000000000000000000000 PUSH1 0x0 DUP3 ADD MSTORE POP JUMP JUMPDEST PUSH1 0x0 PUSH2 0x37B1 PUSH1 0x13 DUP4 PUSH2 0x35D1 JUMP JUMPDEST SWAP2 POP PUSH2 0x37BC DUP3 PUSH2 0x377B JUMP JUMPDEST PUSH1 0x20 DUP3 ADD SWAP1 POP SWAP2 SWAP1 POP JUMP JUMPDEST PUSH1 0x0 PUSH1 0x20 DUP3 ADD SWAP1 POP DUP2 DUP2 SUB PUSH1 0x0 DUP4 ADD MSTORE PUSH2 0x37E0 DUP2 PUSH2 0x37A4 JUMP JUMPDEST SWAP1 POP SWAP2 SWAP1 POP JUMP JUMPDEST PUSH32 0x596F7520616C7265616479206F636375707920612074696C6500000000000000 PUSH1 0x0 DUP3 ADD MSTORE POP JUMP JUMPDEST PUSH1 0x0 PUSH2 0x381D PUSH1 0x19 DUP4 PUSH2 0x35D1 JUMP JUMPDEST SWAP2 POP PUSH2 0x3828 DUP3 PUSH2 0x37E7 JUMP JUMPDEST PUSH1 0x20 DUP3 ADD SWAP1 POP SWAP2 SWAP1 POP JUMP JUMPDEST PUSH1 0x0 PUSH1 0x20 DUP3 ADD SWAP1 POP DUP2 DUP2 SUB PUSH1 0x0 DUP4 ADD MSTORE PUSH2 0x384C DUP2 PUSH2 0x3810 JUMP JUMPDEST SWAP1 POP SWAP2 SWAP1 POP JUMP JUMPDEST PUSH32 0x4E487B7100000000000000000000000000000000000000000000000000000000 PUSH1 0x0 MSTORE PUSH1 0x11 PUSH1 0x4 MSTORE PUSH1 0x24 PUSH1 0x0 REVERT JUMPDEST PUSH1 0x0 PUSH2 0x388D DUP3 PUSH2 0x2FA7 JUMP JUMPDEST SWAP2 POP PUSH2 0x3898 DUP4 PUSH2 0x2FA7 JUMP JUMPDEST SWAP3 POP DUP3 DUP3 ADD SWAP1 POP DUP1 DUP3 GT ISZERO PUSH2 0x38B0 JUMPI PUSH2 0x38AF PUSH2 0x3853 JUMP JUMPDEST JUMPDEST SWAP3 SWAP2 POP POP JUMP JUMPDEST PUSH1 0x0 DUP2 MLOAD SWAP1 POP PUSH2 0x38C5 DUP2 PUSH2 0x2FB1 JUMP JUMPDEST SWAP3 SWAP2 POP POP JUMP JUMPDEST PUSH1 0x0 PUSH1 0x20 DUP3 DUP5 SUB SLT ISZERO PUSH2 0x38E1 JUMPI PUSH2 0x38E0 PUSH2 0x2F64 JUMP JUMPDEST JUMPDEST PUSH1 0x0 PUSH2 0x38EF DUP5 DUP3 DUP6 ADD PUSH2 0x38B6 JUMP JUMPDEST SWAP2 POP POP SWAP3 SWAP2 POP POP JUMP JUMPDEST PUSH32 0x496E73756666696369656E74204C4F502062616C616E636520666F7220707572 PUSH1 0x0 DUP3 ADD MSTORE PUSH32 0x6368617365000000000000000000000000000000000000000000000000000000 PUSH1 0x20 DUP3 ADD MSTORE POP JUMP JUMPDEST PUSH1 0x0 PUSH2 0x3954 PUSH1 0x25 DUP4 PUSH2 0x35D1 JUMP JUMPDEST SWAP2 POP PUSH2 0x395F DUP3 PUSH2 0x38F8 JUMP JUMPDEST PUSH1 0x40 DUP3 ADD SWAP1 POP SWAP2 SWAP1 POP JUMP JUMPDEST PUSH1 0x0 PUSH1 0x20 DUP3 ADD SWAP1 POP DUP2 DUP2 SUB PUSH1 0x0 DUP4 ADD MSTORE PUSH2 0x3983 DUP2 PUSH2 0x3947 JUMP JUMPDEST SWAP1 POP SWAP2 SWAP1 POP JUMP JUMPDEST PUSH1 0x0 PUSH1 0x60 DUP3 ADD SWAP1 POP PUSH2 0x399F PUSH1 0x0 DUP4 ADD DUP7 PUSH2 0x301D JUMP JUMPDEST PUSH2 0x39AC PUSH1 0x20 DUP4 ADD DUP6 PUSH2 0x301D JUMP JUMPDEST PUSH2 0x39B9 PUSH1 0x40 DUP4 ADD DUP5 PUSH2 0x31DC JUMP JUMPDEST SWAP5 SWAP4 POP POP POP POP JUMP JUMPDEST PUSH1 0x0 DUP2 MLOAD SWAP1 POP PUSH2 0x39D0 DUP2 PUSH2 0x353E JUMP JUMPDEST SWAP3 SWAP2 POP POP JUMP JUMPDEST PUSH1 0x0 PUSH1 0x20 DUP3 DUP5 SUB SLT ISZERO PUSH2 0x39EC JUMPI PUSH2 0x39EB PUSH2 0x2F64 JUMP JUMPDEST JUMPDEST PUSH1 0x0 PUSH2 0x39FA DUP5 DUP3 DUP6 ADD PUSH2 0x39C1 JUMP JUMPDEST SWAP2 POP POP SWAP3 SWAP2 POP POP JUMP JUMPDEST PUSH32 0x4C4F50207472616E73666572206661696C656400000000000000000000000000 PUSH1 0x0 DUP3 ADD MSTORE POP JUMP JUMPDEST PUSH1 0x0 PUSH2 0x3A39 PUSH1 0x13 DUP4 PUSH2 0x35D1 JUMP JUMPDEST SWAP2 POP PUSH2 0x3A44 DUP3 PUSH2 0x3A03 JUMP JUMPDEST PUSH1 0x20 DUP3 ADD SWAP1 POP SWAP2 SWAP1 POP JUMP JUMPDEST PUSH1 0x0 PUSH1 0x20 DUP3 ADD SWAP1 POP DUP2 DUP2 SUB PUSH1 0x0 DUP4 ADD MSTORE PUSH2 0x3A68 DUP2 PUSH2 0x3A2C JUMP JUMPDEST SWAP1 POP SWAP2 SWAP1 POP JUMP JUMPDEST PUSH32 0x4C4F50206275726E206661696C65640000000000000000000000000000000000 PUSH1 0x0 DUP3 ADD MSTORE POP JUMP JUMPDEST PUSH1 0x0 PUSH2 0x3AA5 PUSH1 0xF DUP4 PUSH2 0x35D1 JUMP JUMPDEST SWAP2 POP PUSH2 0x3AB0 DUP3 PUSH2 0x3A6F JUMP JUMPDEST PUSH1 0x20 DUP3 ADD SWAP1 POP SWAP2 SWAP1 POP JUMP JUMPDEST PUSH1 0x0 PUSH1 0x20 DUP3 ADD SWAP1 POP DUP2 DUP2 SUB PUSH1 0x0 DUP4 ADD MSTORE PUSH2 0x3AD4 DUP2 PUSH2 0x3A98 JUMP JUMPDEST SWAP1 POP SWAP2 SWAP1 POP JUMP JUMPDEST PUSH1 0x0 PUSH2 0x3AE6 DUP3 PUSH2 0x2FA7 JUMP JUMPDEST SWAP2 POP PUSH32 0xFFFFFFFFFFFFFFFFFFFFFFFFFFFFFFFFFFFFFFFFFFFFFFFFFFFFFFFFFFFFFFFF DUP3 SUB PUSH2 0x3B18 JUMPI PUSH2 0x3B17 PUSH2 0x3853 JUMP JUMPDEST JUMPDEST PUSH1 0x1 DUP3 ADD SWAP1 POP SWAP2 SWAP1 POP JUMP JUMPDEST PUSH1 0x0 PUSH1 0x80 DUP3 ADD SWAP1 POP PUSH2 0x3B38 PUSH1 0x0 DUP4 ADD DUP8 PUSH2 0x2F3A JUMP JUMPDEST PUSH2 0x3B45 PUSH1 0x20 DUP4 ADD DUP7 PUSH2 0x2F3A JUMP JUMPDEST PUSH2 0x3B52 PUSH1 0x40 DUP4 ADD DUP6 PUSH2 0x31B2 JUMP JUMPDEST PUSH2 0x3B5F PUSH1 0x60 DUP4 ADD DUP5 PUSH2 0x301D JUMP JUMPDEST SWAP6 SWAP5 POP POP POP POP POP JUMP JUMPDEST PUSH32 0x54696C6520697320616C7265616479206F636375706965640000000000000000 PUSH1 0x0 DUP3 ADD MSTORE POP JUMP JUMPDEST PUSH1 0x0 PUSH2 0x3B9E PUSH1 0x18 DUP4 PUSH2 0x35D1 JUMP JUMPDEST SWAP2 POP PUSH2 0x3BA9 DUP3 PUSH2 0x3B68 JUMP JUMPDEST PUSH1 0x20 DUP3 ADD SWAP1 POP SWAP2 SWAP1 POP JUMP JUMPDEST PUSH1 0x0 PUSH1 0x20 DUP3 ADD SWAP1 POP DUP2 DUP2 SUB PUSH1 0x0 DUP4 ADD MSTORE PUSH2 0x3BCD DUP2 PUSH2 0x3B91 JUMP JUMPDEST SWAP1 POP SWAP2 SWAP1 POP JUMP JUMPDEST PUSH32 0x596F75206861766520616C7265616479206F6363757069656420612074696C65 PUSH1 0x0 DUP3 ADD MSTORE POP JUMP JUMPDEST PUSH1 0x0 PUSH2 0x3C0A PUSH1 0x20 DUP4 PUSH2 0x35D1 JUMP JUMPDEST SWAP2 POP PUSH2 0x3C15 DUP3 PUSH2 0x3BD4 JUMP JUMPDEST PUSH1 0x20 DUP3 ADD SWAP1 POP SWAP2 SWAP1 POP JUMP JUMPDEST PUSH1 0x0 PUSH1 0x20 DUP3 ADD SWAP1 POP DUP2 DUP2 SUB PUSH1 0x0 DUP4 ADD MSTORE PUSH2 0x3C39 DUP2 PUSH2 0x3BFD JUMP JUMPDEST SWAP1 POP SWAP2 SWAP1 POP JUMP JUMPDEST PUSH32 0x496E73756666696369656E74204C4F502062616C616E63650000000000000000 PUSH1 0x0 DUP3 ADD MSTORE POP JUMP JUMPDEST PUSH1 0x0 PUSH2 0x3C76 PUSH1 0x18 DUP4 PUSH2 0x35D1 JUMP JUMPDEST SWAP2 POP PUSH2 0x3C81 DUP3 PUSH2 0x3C40 JUMP JUMPDEST PUSH1 0x20 DUP3 ADD SWAP1 POP SWAP2 SWAP1 POP JUMP JUMPDEST PUSH1 0x0 PUSH1 0x20 DUP3 ADD SWAP1 POP DUP2 DUP2 SUB PUSH1 0x0 DUP4 ADD MSTORE PUSH2 0x3CA5 DUP2 PUSH2 0x3C69 JUMP JUMPDEST SWAP1 POP SWAP2 SWAP1 POP JUMP JUMPDEST PUSH32 0x416C726561647920686173206120526566657272657200000000000000000000 PUSH1 0x0 DUP3 ADD MSTORE POP JUMP JUMPDEST PUSH1 0x0 PUSH2 0x3CE2 PUSH1 0x16 DUP4 PUSH2 0x35D1 JUMP JUMPDEST SWAP2 POP PUSH2 0x3CED DUP3 PUSH2 0x3CAC JUMP JUMPDEST PUSH1 0x20 DUP3 ADD SWAP1 POP SWAP2 SWAP1 POP JUMP JUMPDEST PUSH1 0x0 PUSH1 0x20 DUP3 ADD SWAP1 POP DUP2 DUP2 SUB PUSH1 0x0 DUP4 ADD MSTORE PUSH2 0x3D11 DUP2 PUSH2 0x3CD5 JUMP JUMPDEST SWAP1 POP SWAP2 SWAP1 POP JUMP JUMPDEST PUSH32 0x52656665727265722063616E206E6F742062652073656C660000000000000000 PUSH1 0x0 DUP3 ADD MSTORE POP JUMP JUMPDEST PUSH1 0x0 PUSH2 0x3D4E PUSH1 0x18 DUP4 PUSH2 0x35D1 JUMP JUMPDEST SWAP2 POP PUSH2 0x3D59 DUP3 PUSH2 0x3D18 JUMP JUMPDEST PUSH1 0x20 DUP3 ADD SWAP1 POP SWAP2 SWAP1 POP JUMP JUMPDEST PUSH1 0x0 PUSH1 0x20 DUP3 ADD SWAP1 POP DUP2 DUP2 SUB PUSH1 0x0 DUP4 ADD MSTORE PUSH2 0x3D7D DUP2 PUSH2 0x3D41 JUMP JUMPDEST SWAP1 POP SWAP2 SWAP1 POP JUMP JUMPDEST PUSH32 0x5265666572726572206D757374206861766520616E206F636375706965642074 PUSH1 0x0 DUP3 ADD MSTORE PUSH32 0x696C650000000000000000000000000000000000000000000000000000000000 PUSH1 0x20 DUP3 ADD MSTORE POP JUMP JUMPDEST PUSH1 0x0 PUSH2 0x3DE0 PUSH1 0x23 DUP4 PUSH2 0x35D1 JUMP JUMPDEST SWAP2 POP PUSH2 0x3DEB DUP3 PUSH2 0x3D84 JUMP JUMPDEST PUSH1 0x40 DUP3 ADD SWAP1 POP SWAP2 SWAP1 POP JUMP JUMPDEST PUSH1 0x0 PUSH1 0x20 DUP3 ADD SWAP1 POP DUP2 DUP2 SUB PUSH1 0x0 DUP4 ADD MSTORE PUSH2 0x3E0F DUP2 PUSH2 0x3DD3 JUMP JUMPDEST SWAP1 POP SWAP2 SWAP1 POP JUMP JUMPDEST PUSH32 0x43616C6C6572206973206E6F7420746865207377697463686572000000000000 PUSH1 0x0 DUP3 ADD MSTORE POP JUMP JUMPDEST PUSH1 0x0 PUSH2 0x3E4C PUSH1 0x1A DUP4 PUSH2 0x35D1 JUMP JUMPDEST SWAP2 POP PUSH2 0x3E57 DUP3 PUSH2 0x3E16 JUMP JUMPDEST PUSH1 0x20 DUP3 ADD SWAP1 POP SWAP2 SWAP1 POP JUMP JUMPDEST PUSH1 0x0 PUSH1 0x20 DUP3 ADD SWAP1 POP DUP2 DUP2 SUB PUSH1 0x0 DUP4 ADD MSTORE PUSH2 0x3E7B DUP2 PUSH2 0x3E3F JUMP JUMPDEST SWAP1 POP SWAP2 SWAP1 POP JUMP JUMPDEST PUSH1 0x0 PUSH2 0x3E8D DUP3 PUSH2 0x2F2D JUMP JUMPDEST SWAP2 POP PUSH1 0xFF DUP3 SUB PUSH2 0x3EA0 JUMPI PUSH2 0x3E9F PUSH2 0x3853 JUMP JUMPDEST JUMPDEST PUSH1 0x1 DUP3 ADD SWAP1 POP SWAP2 SWAP1 POP JUMP JUMPDEST PUSH32 0x43616C6C6572206973206E6F7420746865206F776E6572000000000000000000 PUSH1 0x0 DUP3 ADD MSTORE POP JUMP JUMPDEST PUSH1 0x0 PUSH2 0x3EE1 PUSH1 0x17 DUP4 PUSH2 0x35D1 JUMP JUMPDEST SWAP2 POP PUSH2 0x3EEC DUP3 PUSH2 0x3EAB JUMP JUMPDEST PUSH1 0x20 DUP3 ADD SWAP1 POP SWAP2 SWAP1 POP JUMP JUMPDEST PUSH1 0x0 PUSH1 0x20 DUP3 ADD SWAP1 POP DUP2 DUP2 SUB PUSH1 0x0 DUP4 ADD MSTORE PUSH2 0x3F10 DUP2 PUSH2 0x3ED4 JUMP JUMPDEST SWAP1 POP SWAP2 SWAP1 POP JUMP JUMPDEST PUSH32 0x537769746368206973206F666600000000000000000000000000000000000000 PUSH1 0x0 DUP3 ADD MSTORE POP JUMP JUMPDEST PUSH1 0x0 PUSH2 0x3F4D PUSH1 0xD DUP4 PUSH2 0x35D1 JUMP JUMPDEST SWAP2 POP PUSH2 0x3F58 DUP3 PUSH2 0x3F17 JUMP JUMPDEST PUSH1 0x20 DUP3 ADD SWAP1 POP SWAP2 SWAP1 POP JUMP JUMPDEST PUSH1 0x0 PUSH1 0x20 DUP3 ADD SWAP1 POP DUP2 DUP2 SUB PUSH1 0x0 DUP4 ADD MSTORE PUSH2 0x3F7C DUP2 PUSH2 0x3F40 JUMP JUMPDEST SWAP1 POP SWAP2 SWAP1 POP JUMP JUMPDEST PUSH32 0x43616C6C6572206973206E6F7420746865206D616E61676572206F72206F6363 PUSH1 0x0 DUP3 ADD MSTORE PUSH32 0x7570616E74000000000000000000000000000000000000000000000000000000 PUSH1 0x20 DUP3 ADD MSTORE POP JUMP JUMPDEST PUSH1 0x0 PUSH2 0x3FDF PUSH1 0x25 DUP4 PUSH2 0x35D1 JUMP JUMPDEST SWAP2 POP PUSH2 0x3FEA DUP3 PUSH2 0x3F83 JUMP JUMPDEST PUSH1 0x40 DUP3 ADD SWAP1 POP SWAP2 SWAP1 POP JUMP JUMPDEST PUSH1 0x0 PUSH1 0x20 DUP3 ADD SWAP1 POP DUP2 DUP2 SUB PUSH1 0x0 DUP4 ADD MSTORE PUSH2 0x400E DUP2 PUSH2 0x3FD2 JUMP JUMPDEST SWAP1 POP SWAP2 SWAP1 POP JUMP JUMPDEST PUSH32 0x4E487B7100000000000000000000000000000000000000000000000000000000 PUSH1 0x0 MSTORE PUSH1 0x12 PUSH1 0x4 MSTORE PUSH1 0x24 PUSH1 0x0 REVERT JUMPDEST PUSH1 0x0 PUSH2 0x404F DUP3 PUSH2 0x2FA7 JUMP JUMPDEST SWAP2 POP PUSH2 0x405A DUP4 PUSH2 0x2FA7 JUMP JUMPDEST SWAP3 POP DUP3 PUSH2 0x406A JUMPI PUSH2 0x4069 PUSH2 0x4015 JUMP JUMPDEST JUMPDEST DUP3 DUP3 DIV SWAP1 POP SWAP3 SWAP2 POP POP JUMP JUMPDEST PUSH1 0x0 PUSH1 0x80 DUP3 ADD SWAP1 POP PUSH2 0x408A PUSH1 0x0 DUP4 ADD DUP8 PUSH2 0x2F3A JUMP JUMPDEST PUSH2 0x4097 PUSH1 0x20 DUP4 ADD DUP7 PUSH2 0x2F3A JUMP JUMPDEST PUSH2 0x40A4 PUSH1 0x40 DUP4 ADD DUP6 PUSH2 0x31B2 JUMP JUMPDEST PUSH2 0x40B1 PUSH1 0x60 DUP4 ADD DUP5 PUSH2 0x31DC JUMP JUMPDEST SWAP6 SWAP5 POP POP POP POP POP JUMP JUMPDEST PUSH32 0x5265656E7472616E637947756172643A207265656E7472616E742063616C6C00 PUSH1 0x0 DUP3 ADD MSTORE POP JUMP JUMPDEST PUSH1 0x0 PUSH2 0x40F0 PUSH1 0x1F DUP4 PUSH2 0x35D1 JUMP JUMPDEST SWAP2 POP PUSH2 0x40FB DUP3 PUSH2 0x40BA JUMP JUMPDEST PUSH1 0x20 DUP3 ADD SWAP1 POP SWAP2 SWAP1 POP JUMP JUMPDEST PUSH1 0x0 PUSH1 0x20 DUP3 ADD SWAP1 POP DUP2 DUP2 SUB PUSH1 0x0 DUP4 ADD MSTORE PUSH2 0x411F DUP2 PUSH2 0x40E3 JUMP JUMPDEST SWAP1 POP SWAP2 SWAP1 POP JUMP INVALID LOG2 PUSH5 0x6970667358 0x22 SLT KECCAK256 MLOAD BASEFEE 0xB4 0xB7 0x22 0xB1 0xCC CALLDATACOPY 0x26 0xAB PUSH24 0xE0F58EEF4C3A9290868FBAA3CB0DE9CE6187ED590564736F PUSH13 0x63430008120033000000000000 "
		},
		"gasEstimates": {
			"creation": {
				"codeDepositCost": "3346400",
				"executionCost": "infinite",
				"totalCost": "infinite"
			},
			"external": {
				"Foundation()": "2581",
				"bonuses(uint256,uint256)": "infinite",
				"buyTile(uint8,uint8)": "infinite",
				"getAllOccupiedTiles()": "infinite",
				"getOccupiedTileByAddress(address)": "infinite",
				"getReferralNetwork(address)": "infinite",
				"getReferrer(address)": "infinite",
				"getTileOccupant(uint8,uint8)": "infinite",
				"hasOccupiedTile(address)": "2979",
				"isTileOccupied(uint8,uint8)": "infinite",
				"lopToken()": "infinite",
				"manager()": "2603",
				"mapSize()": "381",
				"occupantTileCoordinates(address,uint256)": "4723",
				"occupationCost()": "396",
				"occupyTile(uint8,uint8,address)": "infinite",
				"owner()": "2647",
				"referredBy(address,uint256)": "infinite",
				"referrerOf(address)": "infinite",
				"setFoundation(address)": "30366",
				"setManager(address)": "30300",
				"setSwitchStatus()": "28886",
				"setTileOnSale(uint8,uint8,bool,uint256)": "infinite",
				"switcher()": "2559",
				"tiles(uint256,uint256)": "infinite"
			}
		},
		"methodIdentifiers": {
			"Foundation()": "bc9147a4",
			"bonuses(uint256,uint256)": "bc9955a2",
			"buyTile(uint8,uint8)": "2ef761d3",
			"getAllOccupiedTiles()": "8a115f0b",
			"getOccupiedTileByAddress(address)": "2400a3b0",
			"getReferralNetwork(address)": "62cb4694",
			"getReferrer(address)": "4a9fefc7",
			"getTileOccupant(uint8,uint8)": "8a888953",
			"hasOccupiedTile(address)": "2cfdf9b1",
			"isTileOccupied(uint8,uint8)": "2672becb",
			"lopToken()": "0d67f59e",
			"manager()": "481c6a75",
			"mapSize()": "1a32ebb6",
			"occupantTileCoordinates(address,uint256)": "323fd7b7",
			"occupationCost()": "426ea0d2",
			"occupyTile(uint8,uint8,address)": "50328bdd",
			"owner()": "8da5cb5b",
			"referredBy(address,uint256)": "1b64f93d",
			"referrerOf(address)": "d21cacdf",
			"setFoundation(address)": "db3543f5",
			"setManager(address)": "d0ebdbe7",
			"setSwitchStatus()": "503d4c8d",
			"setTileOnSale(uint8,uint8,bool,uint256)": "d855e7e1",
			"switcher()": "bc4462de",
			"tiles(uint256,uint256)": "8a3d7cdc"
		}
	},
	"abi": [
		{
			"inputs": [
				{
					"internalType": "address",
					"name": "_switcher",
					"type": "address"
				},
				{
					"internalType": "address",
					"name": "_lopTokenAddress",
					"type": "address"
				}
			],
			"stateMutability": "nonpayable",
			"type": "constructor"
		},
		{
			"anonymous": false,
			"inputs": [
				{
					"indexed": true,
					"internalType": "address",
					"name": "newFoundation",
					"type": "address"
				}
			],
			"name": "FoundationSet",
			"type": "event"
		},
		{
			"anonymous": false,
			"inputs": [
				{
					"indexed": true,
					"internalType": "address",
					"name": "newManager",
					"type": "address"
				}
			],
			"name": "ManagerSet",
			"type": "event"
		},
		{
			"anonymous": false,
			"inputs": [
				{
					"indexed": true,
					"internalType": "address",
					"name": "user",
					"type": "address"
				},
				{
					"indexed": true,
					"internalType": "address",
					"name": "referrer",
					"type": "address"
				}
			],
			"name": "ReferralSet",
			"type": "event"
		},
		{
			"anonymous": false,
			"inputs": [
				{
					"indexed": false,
					"internalType": "uint8",
					"name": "x",
					"type": "uint8"
				},
				{
					"indexed": false,
					"internalType": "uint8",
					"name": "y",
					"type": "uint8"
				},
				{
					"indexed": false,
					"internalType": "bool",
					"name": "isOnSale",
					"type": "bool"
				},
				{
					"indexed": false,
					"internalType": "uint256",
					"name": "salePrice",
					"type": "uint256"
				}
			],
			"name": "TileOnSale",
			"type": "event"
		},
		{
			"anonymous": false,
			"inputs": [
				{
					"indexed": false,
					"internalType": "uint8",
					"name": "x",
					"type": "uint8"
				},
				{
					"indexed": false,
					"internalType": "uint8",
					"name": "y",
					"type": "uint8"
				},
				{
					"indexed": false,
					"internalType": "bool",
					"name": "isOccupied",
					"type": "bool"
				},
				{
					"indexed": false,
					"internalType": "address",
					"name": "occupant",
					"type": "address"
				}
			],
			"name": "TileUpdated",
			"type": "event"
		},
		{
			"inputs": [],
			"name": "Foundation",
			"outputs": [
				{
					"internalType": "address",
					"name": "",
					"type": "address"
				}
			],
			"stateMutability": "view",
			"type": "function"
		},
		{
			"inputs": [
				{
					"internalType": "uint256",
					"name": "",
					"type": "uint256"
				},
				{
					"internalType": "uint256",
					"name": "",
					"type": "uint256"
				}
			],
			"name": "bonuses",
			"outputs": [
				{
					"internalType": "uint8",
					"name": "",
					"type": "uint8"
				}
			],
			"stateMutability": "view",
			"type": "function"
		},
		{
			"inputs": [
				{
					"internalType": "uint8",
					"name": "x",
					"type": "uint8"
				},
				{
					"internalType": "uint8",
					"name": "y",
					"type": "uint8"
				}
			],
			"name": "buyTile",
			"outputs": [],
			"stateMutability": "nonpayable",
			"type": "function"
		},
		{
			"inputs": [],
			"name": "getAllOccupiedTiles",
			"outputs": [
				{
					"internalType": "bool[20][20]",
					"name": "",
					"type": "bool[20][20]"
				}
			],
			"stateMutability": "view",
			"type": "function"
		},
		{
			"inputs": [
				{
					"internalType": "address",
					"name": "occupant",
					"type": "address"
				}
			],
			"name": "getOccupiedTileByAddress",
			"outputs": [
				{
					"internalType": "uint8[2]",
					"name": "",
					"type": "uint8[2]"
				}
			],
			"stateMutability": "view",
			"type": "function"
		},
		{
			"inputs": [
				{
					"internalType": "address",
					"name": "user",
					"type": "address"
				}
			],
			"name": "getReferralNetwork",
			"outputs": [
				{
					"internalType": "address",
					"name": "",
					"type": "address"
				},
				{
					"internalType": "address[]",
					"name": "",
					"type": "address[]"
				}
			],
			"stateMutability": "view",
			"type": "function"
		},
		{
			"inputs": [
				{
					"internalType": "address",
					"name": "user",
					"type": "address"
				}
			],
			"name": "getReferrer",
			"outputs": [
				{
					"internalType": "address",
					"name": "",
					"type": "address"
				}
			],
			"stateMutability": "view",
			"type": "function"
		},
		{
			"inputs": [
				{
					"internalType": "uint8",
					"name": "x",
					"type": "uint8"
				},
				{
					"internalType": "uint8",
					"name": "y",
					"type": "uint8"
				}
			],
			"name": "getTileOccupant",
			"outputs": [
				{
					"internalType": "address",
					"name": "",
					"type": "address"
				}
			],
			"stateMutability": "view",
			"type": "function"
		},
		{
			"inputs": [
				{
					"internalType": "address",
					"name": "",
					"type": "address"
				}
			],
			"name": "hasOccupiedTile",
			"outputs": [
				{
					"internalType": "bool",
					"name": "",
					"type": "bool"
				}
			],
			"stateMutability": "view",
			"type": "function"
		},
		{
			"inputs": [
				{
					"internalType": "uint8",
					"name": "x",
					"type": "uint8"
				},
				{
					"internalType": "uint8",
					"name": "y",
					"type": "uint8"
				}
			],
			"name": "isTileOccupied",
			"outputs": [
				{
					"internalType": "bool",
					"name": "",
					"type": "bool"
				}
			],
			"stateMutability": "view",
			"type": "function"
		},
		{
			"inputs": [],
			"name": "lopToken",
			"outputs": [
				{
					"internalType": "contract IHarmLop",
					"name": "",
					"type": "address"
				}
			],
			"stateMutability": "view",
			"type": "function"
		},
		{
			"inputs": [],
			"name": "manager",
			"outputs": [
				{
					"internalType": "address",
					"name": "",
					"type": "address"
				}
			],
			"stateMutability": "view",
			"type": "function"
		},
		{
			"inputs": [],
			"name": "mapSize",
			"outputs": [
				{
					"internalType": "uint8",
					"name": "",
					"type": "uint8"
				}
			],
			"stateMutability": "view",
			"type": "function"
		},
		{
			"inputs": [
				{
					"internalType": "address",
					"name": "",
					"type": "address"
				},
				{
					"internalType": "uint256",
					"name": "",
					"type": "uint256"
				}
			],
			"name": "occupantTileCoordinates",
			"outputs": [
				{
					"internalType": "uint8",
					"name": "",
					"type": "uint8"
				}
			],
			"stateMutability": "view",
			"type": "function"
		},
		{
			"inputs": [],
			"name": "occupationCost",
			"outputs": [
				{
					"internalType": "uint256",
					"name": "",
					"type": "uint256"
				}
			],
			"stateMutability": "view",
			"type": "function"
		},
		{
			"inputs": [
				{
					"internalType": "uint8",
					"name": "x",
					"type": "uint8"
				},
				{
					"internalType": "uint8",
					"name": "y",
					"type": "uint8"
				},
				{
					"internalType": "address",
					"name": "referrer",
					"type": "address"
				}
			],
			"name": "occupyTile",
			"outputs": [],
			"stateMutability": "nonpayable",
			"type": "function"
		},
		{
			"inputs": [],
			"name": "owner",
			"outputs": [
				{
					"internalType": "address",
					"name": "",
					"type": "address"
				}
			],
			"stateMutability": "view",
			"type": "function"
		},
		{
			"inputs": [
				{
					"internalType": "address",
					"name": "",
					"type": "address"
				},
				{
					"internalType": "uint256",
					"name": "",
					"type": "uint256"
				}
			],
			"name": "referredBy",
			"outputs": [
				{
					"internalType": "address",
					"name": "",
					"type": "address"
				}
			],
			"stateMutability": "view",
			"type": "function"
		},
		{
			"inputs": [
				{
					"internalType": "address",
					"name": "",
					"type": "address"
				}
			],
			"name": "referrerOf",
			"outputs": [
				{
					"internalType": "address",
					"name": "",
					"type": "address"
				}
			],
			"stateMutability": "view",
			"type": "function"
		},
		{
			"inputs": [
				{
					"internalType": "address",
					"name": "_foundation",
					"type": "address"
				}
			],
			"name": "setFoundation",
			"outputs": [],
			"stateMutability": "nonpayable",
			"type": "function"
		},
		{
			"inputs": [
				{
					"internalType": "address",
					"name": "_manager",
					"type": "address"
				}
			],
			"name": "setManager",
			"outputs": [],
			"stateMutability": "nonpayable",
			"type": "function"
		},
		{
			"inputs": [],
			"name": "setSwitchStatus",
			"outputs": [],
			"stateMutability": "nonpayable",
			"type": "function"
		},
		{
			"inputs": [
				{
					"internalType": "uint8",
					"name": "x",
					"type": "uint8"
				},
				{
					"internalType": "uint8",
					"name": "y",
					"type": "uint8"
				},
				{
					"internalType": "bool",
					"name": "onSale",
					"type": "bool"
				},
				{
					"internalType": "uint256",
					"name": "salePrice",
					"type": "uint256"
				}
			],
			"name": "setTileOnSale",
			"outputs": [],
			"stateMutability": "nonpayable",
			"type": "function"
		},
		{
			"inputs": [],
			"name": "switcher",
			"outputs": [
				{
					"internalType": "address",
					"name": "",
					"type": "address"
				}
			],
			"stateMutability": "view",
			"type": "function"
		},
		{
			"inputs": [
				{
					"internalType": "uint256",
					"name": "",
					"type": "uint256"
				},
				{
					"internalType": "uint256",
					"name": "",
					"type": "uint256"
				}
			],
			"name": "tiles",
			"outputs": [
				{
					"internalType": "bool",
					"name": "isOccupied",
					"type": "bool"
				},
				{
					"internalType": "address",
					"name": "occupant",
					"type": "address"
				},
				{
					"internalType": "bool",
					"name": "isOnSale",
					"type": "bool"
				},
				{
					"internalType": "uint256",
					"name": "salePrice",
					"type": "uint256"
				},
				{
					"internalType": "uint256",
					"name": "saleBurnAmount",
					"type": "uint256"
				}
			],
			"stateMutability": "view",
			"type": "function"
		}
	]
}