{
	"data": {
		"bytecode": {
			"linkReferences": {},
			"object": "608060405234801561001057600080fd5b50611240806100206000396000f3fe608060405234801561001057600080fd5b50600436106100935760003560e01c8063323fd7b711610066578063323fd7b7146101465780638a115f0b146101765780638a3d7cdc146101945780638a888953146101c5578063f386cf55146101f557610093565b80631a32ebb6146100985780632400a3b0146100b65780632672becb146100e65780632cfdf9b114610116575b600080fd5b6100a0610211565b6040516100ad9190610ad7565b60405180910390f35b6100d060048036038101906100cb9190610b55565b610216565b6040516100dd9190610c2d565b60405180910390f35b61010060048036038101906100fb9190610c74565b610354565b60405161010d9190610ccf565b60405180910390f35b610130600480360381019061012b9190610b55565b6103fb565b60405161013d9190610ccf565b60405180910390f35b610160600480360381019061015b9190610d20565b61041c565b60405161016d9190610ad7565b60405180910390f35b61017e610456565b60405161018b9190610ea8565b60405180910390f35b6101ae60048036038101906101a99190610ec4565b61053a565b6040516101bc929190610f13565b60405180910390f35b6101df60048036038101906101da9190610c74565b6105a1565b6040516101ec9190610f3c565b60405180910390f35b61020f600480360381019061020a9190610c74565b61065b565b005b601481565b61021e610991565b61019060008373ffffffffffffffffffffffffffffffffffffffff1673ffffffffffffffffffffffffffffffffffffffff16815260200190815260200160002060009054906101000a900460ff166102ab576040517f08c379a00000000000000000000000000000000000000000000000000000000081526004016102a290610fda565b60405180910390fd5b61019160008373ffffffffffffffffffffffffffffffffffffffff1673ffffffffffffffffffffffffffffffffffffffff168152602001908152602001600020600280602002604051908101604052809291908260028015610348576020028201916000905b82829054906101000a900460ff1660ff16815260200190600101906020826000010492830192600103820291508084116103115790505b50505050509050919050565b6000601460ff168360ff161080156103725750601460ff168260ff16105b6103b1576040517f08c379a00000000000000000000000000000000000000000000000000000000081526004016103a890611046565b60405180910390fd5b60008360ff16601481106103c8576103c7611066565b5b601402018260ff16601481106103e1576103e0611066565b5b0160000160009054906101000a900460ff16905092915050565b6101906020528060005260406000206000915054906101000a900460ff1681565b610191602052816000526040600020816002811061043957600080fd5b60209182820401919006915091509054906101000a900460ff1681565b61045e6109b3565b6104666109b3565b60005b601460ff168160ff1610156105325760005b601460ff168160ff16101561051e5760008260ff16601481106104a1576104a0611066565b5b601402018160ff16601481106104ba576104b9611066565b5b0160000160009054906101000a900460ff16838360ff16601481106104e2576104e1611066565b5b60200201518260ff16601481106104fc576104fb611066565b5b6020020190151590811515815250508080610516906110c4565b91505061047b565b50808061052a906110c4565b915050610469565b508091505090565b6000826014811061054a57600080fd5b60140201816014811061055c57600080fd5b01600091509150508060000160009054906101000a900460ff16908060000160019054906101000a900473ffffffffffffffffffffffffffffffffffffffff16905082565b6000601460ff168360ff161080156105bf5750601460ff168260ff16105b6105fe576040517f08c379a00000000000000000000000000000000000000000000000000000000081526004016105f590611046565b60405180910390fd5b60008360ff166014811061061557610614611066565b5b601402018260ff166014811061062e5761062d611066565b5b0160000160019054906101000a900473ffffffffffffffffffffffffffffffffffffffff16905092915050565b601460ff168260ff161080156106775750601460ff168160ff16105b6106b6576040517f08c379a00000000000000000000000000000000000000000000000000000000081526004016106ad90611046565b60405180910390fd5b60008260ff16601481106106cd576106cc611066565b5b601402018160ff16601481106106e6576106e5611066565b5b0160000160009054906101000a900460ff1615610738576040517f08c379a000000000000000000000000000000000000000000000000000000000815260040161072f90611139565b60405180910390fd5b61019060003373ffffffffffffffffffffffffffffffffffffffff1673ffffffffffffffffffffffffffffffffffffffff16815260200190815260200160002060009054906101000a900460ff16156107c6576040517f08c379a00000000000000000000000000000000000000000000000000000000081526004016107bd906111a5565b60405180910390fd5b600160008360ff16601481106107df576107de611066565b5b601402018260ff16601481106107f8576107f7611066565b5b0160000160006101000a81548160ff0219169083151502179055503360008360ff166014811061082b5761082a611066565b5b601402018260ff166014811061084457610843611066565b5b0160000160016101000a81548173ffffffffffffffffffffffffffffffffffffffff021916908373ffffffffffffffffffffffffffffffffffffffff160217905550600161019060003373ffffffffffffffffffffffffffffffffffffffff1673ffffffffffffffffffffffffffffffffffffffff16815260200190815260200160002060006101000a81548160ff02191690831515021790555060405180604001604052808360ff1660ff1681526020018260ff1660ff1681525061019160003373ffffffffffffffffffffffffffffffffffffffff1673ffffffffffffffffffffffffffffffffffffffff16815260200190815260200160002090600261094e9291906109e1565b507f19c0182f0d6040e7f43aa17e1c6584130bdbc8da2e4ac4d2050593808b77a771828260013360405161098594939291906111c5565b60405180910390a15050565b6040518060400160405280600290602082028036833780820191505090505090565b6040518061028001604052806014905b6109cb610a7b565b8152602001906001900390816109c35790505090565b826002601f01602090048101928215610a6a5791602002820160005b83821115610a3b57835183826101000a81548160ff021916908360ff16021790555092602001926001016020816000010492830192600103026109fd565b8015610a685782816101000a81549060ff0219169055600101602081600001049283019260010302610a3b565b505b509050610a779190610a9e565b5090565b604051806102800160405280601490602082028036833780820191505090505090565b5b80821115610ab7576000816000905550600101610a9f565b5090565b600060ff82169050919050565b610ad181610abb565b82525050565b6000602082019050610aec6000830184610ac8565b92915050565b600080fd5b600073ffffffffffffffffffffffffffffffffffffffff82169050919050565b6000610b2282610af7565b9050919050565b610b3281610b17565b8114610b3d57600080fd5b50565b600081359050610b4f81610b29565b92915050565b600060208284031215610b6b57610b6a610af2565b5b6000610b7984828501610b40565b91505092915050565b600060029050919050565b600081905092915050565b6000819050919050565b610bab81610abb565b82525050565b6000610bbd8383610ba2565b60208301905092915050565b6000602082019050919050565b610bdf81610b82565b610be98184610b8d565b9250610bf482610b98565b8060005b83811015610c25578151610c0c8782610bb1565b9650610c1783610bc9565b925050600181019050610bf8565b505050505050565b6000604082019050610c426000830184610bd6565b92915050565b610c5181610abb565b8114610c5c57600080fd5b50565b600081359050610c6e81610c48565b92915050565b60008060408385031215610c8b57610c8a610af2565b5b6000610c9985828601610c5f565b9250506020610caa85828601610c5f565b9150509250929050565b60008115159050919050565b610cc981610cb4565b82525050565b6000602082019050610ce46000830184610cc0565b92915050565b6000819050919050565b610cfd81610cea565b8114610d0857600080fd5b50565b600081359050610d1a81610cf4565b92915050565b60008060408385031215610d3757610d36610af2565b5b6000610d4585828601610b40565b9250506020610d5685828601610d0b565b9150509250929050565b600060149050919050565b600081905092915050565b6000819050919050565b600060149050919050565b600081905092915050565b6000819050919050565b610da981610cb4565b82525050565b6000610dbb8383610da0565b60208301905092915050565b6000602082019050919050565b610ddd81610d80565b610de78184610d8b565b9250610df282610d96565b8060005b83811015610e23578151610e0a8782610daf565b9650610e1583610dc7565b925050600181019050610df6565b505050505050565b6000610e378383610dd4565b6102808301905092915050565b6000602082019050919050565b610e5a81610d60565b610e648184610d6b565b9250610e6f82610d76565b8060005b83811015610ea0578151610e878782610e2b565b9650610e9283610e44565b925050600181019050610e73565b505050505050565b600061320082019050610ebe6000830184610e51565b92915050565b60008060408385031215610edb57610eda610af2565b5b6000610ee985828601610d0b565b9250506020610efa85828601610d0b565b9150509250929050565b610f0d81610b17565b82525050565b6000604082019050610f286000830185610cc0565b610f356020830184610f04565b9392505050565b6000602082019050610f516000830184610f04565b92915050565b600082825260208201905092915050565b7f54686973206164647265737320686173206e6f74206f6363757069656420612060008201527f74696c6500000000000000000000000000000000000000000000000000000000602082015250565b6000610fc4602483610f57565b9150610fcf82610f68565b604082019050919050565b60006020820190508181036000830152610ff381610fb7565b9050919050565b7f496e76616c69642074696c6520636f6f7264696e617465730000000000000000600082015250565b6000611030601883610f57565b915061103b82610ffa565b602082019050919050565b6000602082019050818103600083015261105f81611023565b9050919050565b7f4e487b7100000000000000000000000000000000000000000000000000000000600052603260045260246000fd5b7f4e487b7100000000000000000000000000000000000000000000000000000000600052601160045260246000fd5b60006110cf82610abb565b915060ff82036110e2576110e1611095565b5b600182019050919050565b7f54696c6520697320616c7265616479206f636375706965640000000000000000600082015250565b6000611123601883610f57565b915061112e826110ed565b602082019050919050565b6000602082019050818103600083015261115281611116565b9050919050565b7f596f75206861766520616c7265616479206f6363757069656420612074696c65600082015250565b600061118f602083610f57565b915061119a82611159565b602082019050919050565b600060208201905081810360008301526111be81611182565b9050919050565b60006080820190506111da6000830187610ac8565b6111e76020830186610ac8565b6111f46040830185610cc0565b6112016060830184610f04565b9594505050505056fea26469706673582212203096ef16976a839dd209c0b3fcd12dcdc225a0b18274f0cc3f1c138345e4e47a64736f6c63430008120033",
			"opcodes": "PUSH1 0x80 PUSH1 0x40 MSTORE CALLVALUE DUP1 ISZERO PUSH2 0x10 JUMPI PUSH1 0x0 DUP1 REVERT JUMPDEST POP PUSH2 0x1240 DUP1 PUSH2 0x20 PUSH1 0x0 CODECOPY PUSH1 0x0 RETURN INVALID PUSH1 0x80 PUSH1 0x40 MSTORE CALLVALUE DUP1 ISZERO PUSH2 0x10 JUMPI PUSH1 0x0 DUP1 REVERT JUMPDEST POP PUSH1 0x4 CALLDATASIZE LT PUSH2 0x93 JUMPI PUSH1 0x0 CALLDATALOAD PUSH1 0xE0 SHR DUP1 PUSH4 0x323FD7B7 GT PUSH2 0x66 JUMPI DUP1 PUSH4 0x323FD7B7 EQ PUSH2 0x146 JUMPI DUP1 PUSH4 0x8A115F0B EQ PUSH2 0x176 JUMPI DUP1 PUSH4 0x8A3D7CDC EQ PUSH2 0x194 JUMPI DUP1 PUSH4 0x8A888953 EQ PUSH2 0x1C5 JUMPI DUP1 PUSH4 0xF386CF55 EQ PUSH2 0x1F5 JUMPI PUSH2 0x93 JUMP JUMPDEST DUP1 PUSH4 0x1A32EBB6 EQ PUSH2 0x98 JUMPI DUP1 PUSH4 0x2400A3B0 EQ PUSH2 0xB6 JUMPI DUP1 PUSH4 0x2672BECB EQ PUSH2 0xE6 JUMPI DUP1 PUSH4 0x2CFDF9B1 EQ PUSH2 0x116 JUMPI JUMPDEST PUSH1 0x0 DUP1 REVERT JUMPDEST PUSH2 0xA0 PUSH2 0x211 JUMP JUMPDEST PUSH1 0x40 MLOAD PUSH2 0xAD SWAP2 SWAP1 PUSH2 0xAD7 JUMP JUMPDEST PUSH1 0x40 MLOAD DUP1 SWAP2 SUB SWAP1 RETURN JUMPDEST PUSH2 0xD0 PUSH1 0x4 DUP1 CALLDATASIZE SUB DUP2 ADD SWAP1 PUSH2 0xCB SWAP2 SWAP1 PUSH2 0xB55 JUMP JUMPDEST PUSH2 0x216 JUMP JUMPDEST PUSH1 0x40 MLOAD PUSH2 0xDD SWAP2 SWAP1 PUSH2 0xC2D JUMP JUMPDEST PUSH1 0x40 MLOAD DUP1 SWAP2 SUB SWAP1 RETURN JUMPDEST PUSH2 0x100 PUSH1 0x4 DUP1 CALLDATASIZE SUB DUP2 ADD SWAP1 PUSH2 0xFB SWAP2 SWAP1 PUSH2 0xC74 JUMP JUMPDEST PUSH2 0x354 JUMP JUMPDEST PUSH1 0x40 MLOAD PUSH2 0x10D SWAP2 SWAP1 PUSH2 0xCCF JUMP JUMPDEST PUSH1 0x40 MLOAD DUP1 SWAP2 SUB SWAP1 RETURN JUMPDEST PUSH2 0x130 PUSH1 0x4 DUP1 CALLDATASIZE SUB DUP2 ADD SWAP1 PUSH2 0x12B SWAP2 SWAP1 PUSH2 0xB55 JUMP JUMPDEST PUSH2 0x3FB JUMP JUMPDEST PUSH1 0x40 MLOAD PUSH2 0x13D SWAP2 SWAP1 PUSH2 0xCCF JUMP JUMPDEST PUSH1 0x40 MLOAD DUP1 SWAP2 SUB SWAP1 RETURN JUMPDEST PUSH2 0x160 PUSH1 0x4 DUP1 CALLDATASIZE SUB DUP2 ADD SWAP1 PUSH2 0x15B SWAP2 SWAP1 PUSH2 0xD20 JUMP JUMPDEST PUSH2 0x41C JUMP JUMPDEST PUSH1 0x40 MLOAD PUSH2 0x16D SWAP2 SWAP1 PUSH2 0xAD7 JUMP JUMPDEST PUSH1 0x40 MLOAD DUP1 SWAP2 SUB SWAP1 RETURN JUMPDEST PUSH2 0x17E PUSH2 0x456 JUMP JUMPDEST PUSH1 0x40 MLOAD PUSH2 0x18B SWAP2 SWAP1 PUSH2 0xEA8 JUMP JUMPDEST PUSH1 0x40 MLOAD DUP1 SWAP2 SUB SWAP1 RETURN JUMPDEST PUSH2 0x1AE PUSH1 0x4 DUP1 CALLDATASIZE SUB DUP2 ADD SWAP1 PUSH2 0x1A9 SWAP2 SWAP1 PUSH2 0xEC4 JUMP JUMPDEST PUSH2 0x53A JUMP JUMPDEST PUSH1 0x40 MLOAD PUSH2 0x1BC SWAP3 SWAP2 SWAP1 PUSH2 0xF13 JUMP JUMPDEST PUSH1 0x40 MLOAD DUP1 SWAP2 SUB SWAP1 RETURN JUMPDEST PUSH2 0x1DF PUSH1 0x4 DUP1 CALLDATASIZE SUB DUP2 ADD SWAP1 PUSH2 0x1DA SWAP2 SWAP1 PUSH2 0xC74 JUMP JUMPDEST PUSH2 0x5A1 JUMP JUMPDEST PUSH1 0x40 MLOAD PUSH2 0x1EC SWAP2 SWAP1 PUSH2 0xF3C JUMP JUMPDEST PUSH1 0x40 MLOAD DUP1 SWAP2 SUB SWAP1 RETURN JUMPDEST PUSH2 0x20F PUSH1 0x4 DUP1 CALLDATASIZE SUB DUP2 ADD SWAP1 PUSH2 0x20A SWAP2 SWAP1 PUSH2 0xC74 JUMP JUMPDEST PUSH2 0x65B JUMP JUMPDEST STOP JUMPDEST PUSH1 0x14 DUP2 JUMP JUMPDEST PUSH2 0x21E PUSH2 0x991 JUMP JUMPDEST PUSH2 0x190 PUSH1 0x0 DUP4 PUSH20 0xFFFFFFFFFFFFFFFFFFFFFFFFFFFFFFFFFFFFFFFF AND PUSH20 0xFFFFFFFFFFFFFFFFFFFFFFFFFFFFFFFFFFFFFFFF AND DUP2 MSTORE PUSH1 0x20 ADD SWAP1 DUP2 MSTORE PUSH1 0x20 ADD PUSH1 0x0 KECCAK256 PUSH1 0x0 SWAP1 SLOAD SWAP1 PUSH2 0x100 EXP SWAP1 DIV PUSH1 0xFF AND PUSH2 0x2AB JUMPI PUSH1 0x40 MLOAD PUSH32 0x8C379A000000000000000000000000000000000000000000000000000000000 DUP2 MSTORE PUSH1 0x4 ADD PUSH2 0x2A2 SWAP1 PUSH2 0xFDA JUMP JUMPDEST PUSH1 0x40 MLOAD DUP1 SWAP2 SUB SWAP1 REVERT JUMPDEST PUSH2 0x191 PUSH1 0x0 DUP4 PUSH20 0xFFFFFFFFFFFFFFFFFFFFFFFFFFFFFFFFFFFFFFFF AND PUSH20 0xFFFFFFFFFFFFFFFFFFFFFFFFFFFFFFFFFFFFFFFF AND DUP2 MSTORE PUSH1 0x20 ADD SWAP1 DUP2 MSTORE PUSH1 0x20 ADD PUSH1 0x0 KECCAK256 PUSH1 0x2 DUP1 PUSH1 0x20 MUL PUSH1 0x40 MLOAD SWAP1 DUP2 ADD PUSH1 0x40 MSTORE DUP1 SWAP3 SWAP2 SWAP1 DUP3 PUSH1 0x2 DUP1 ISZERO PUSH2 0x348 JUMPI PUSH1 0x20 MUL DUP3 ADD SWAP2 PUSH1 0x0 SWAP1 JUMPDEST DUP3 DUP3 SWAP1 SLOAD SWAP1 PUSH2 0x100 EXP SWAP1 DIV PUSH1 0xFF AND PUSH1 0xFF AND DUP2 MSTORE PUSH1 0x20 ADD SWAP1 PUSH1 0x1 ADD SWAP1 PUSH1 0x20 DUP3 PUSH1 0x0 ADD DIV SWAP3 DUP4 ADD SWAP3 PUSH1 0x1 SUB DUP3 MUL SWAP2 POP DUP1 DUP5 GT PUSH2 0x311 JUMPI SWAP1 POP JUMPDEST POP POP POP POP POP SWAP1 POP SWAP2 SWAP1 POP JUMP JUMPDEST PUSH1 0x0 PUSH1 0x14 PUSH1 0xFF AND DUP4 PUSH1 0xFF AND LT DUP1 ISZERO PUSH2 0x372 JUMPI POP PUSH1 0x14 PUSH1 0xFF AND DUP3 PUSH1 0xFF AND LT JUMPDEST PUSH2 0x3B1 JUMPI PUSH1 0x40 MLOAD PUSH32 0x8C379A000000000000000000000000000000000000000000000000000000000 DUP2 MSTORE PUSH1 0x4 ADD PUSH2 0x3A8 SWAP1 PUSH2 0x1046 JUMP JUMPDEST PUSH1 0x40 MLOAD DUP1 SWAP2 SUB SWAP1 REVERT JUMPDEST PUSH1 0x0 DUP4 PUSH1 0xFF AND PUSH1 0x14 DUP2 LT PUSH2 0x3C8 JUMPI PUSH2 0x3C7 PUSH2 0x1066 JUMP JUMPDEST JUMPDEST PUSH1 0x14 MUL ADD DUP3 PUSH1 0xFF AND PUSH1 0x14 DUP2 LT PUSH2 0x3E1 JUMPI PUSH2 0x3E0 PUSH2 0x1066 JUMP JUMPDEST JUMPDEST ADD PUSH1 0x0 ADD PUSH1 0x0 SWAP1 SLOAD SWAP1 PUSH2 0x100 EXP SWAP1 DIV PUSH1 0xFF AND SWAP1 POP SWAP3 SWAP2 POP POP JUMP JUMPDEST PUSH2 0x190 PUSH1 0x20 MSTORE DUP1 PUSH1 0x0 MSTORE PUSH1 0x40 PUSH1 0x0 KECCAK256 PUSH1 0x0 SWAP2 POP SLOAD SWAP1 PUSH2 0x100 EXP SWAP1 DIV PUSH1 0xFF AND DUP2 JUMP JUMPDEST PUSH2 0x191 PUSH1 0x20 MSTORE DUP2 PUSH1 0x0 MSTORE PUSH1 0x40 PUSH1 0x0 KECCAK256 DUP2 PUSH1 0x2 DUP2 LT PUSH2 0x439 JUMPI PUSH1 0x0 DUP1 REVERT JUMPDEST PUSH1 0x20 SWAP2 DUP3 DUP3 DIV ADD SWAP2 SWAP1 MOD SWAP2 POP SWAP2 POP SWAP1 SLOAD SWAP1 PUSH2 0x100 EXP SWAP1 DIV PUSH1 0xFF AND DUP2 JUMP JUMPDEST PUSH2 0x45E PUSH2 0x9B3 JUMP JUMPDEST PUSH2 0x466 PUSH2 0x9B3 JUMP JUMPDEST PUSH1 0x0 JUMPDEST PUSH1 0x14 PUSH1 0xFF AND DUP2 PUSH1 0xFF AND LT ISZERO PUSH2 0x532 JUMPI PUSH1 0x0 JUMPDEST PUSH1 0x14 PUSH1 0xFF AND DUP2 PUSH1 0xFF AND LT ISZERO PUSH2 0x51E JUMPI PUSH1 0x0 DUP3 PUSH1 0xFF AND PUSH1 0x14 DUP2 LT PUSH2 0x4A1 JUMPI PUSH2 0x4A0 PUSH2 0x1066 JUMP JUMPDEST JUMPDEST PUSH1 0x14 MUL ADD DUP2 PUSH1 0xFF AND PUSH1 0x14 DUP2 LT PUSH2 0x4BA JUMPI PUSH2 0x4B9 PUSH2 0x1066 JUMP JUMPDEST JUMPDEST ADD PUSH1 0x0 ADD PUSH1 0x0 SWAP1 SLOAD SWAP1 PUSH2 0x100 EXP SWAP1 DIV PUSH1 0xFF AND DUP4 DUP4 PUSH1 0xFF AND PUSH1 0x14 DUP2 LT PUSH2 0x4E2 JUMPI PUSH2 0x4E1 PUSH2 0x1066 JUMP JUMPDEST JUMPDEST PUSH1 0x20 MUL ADD MLOAD DUP3 PUSH1 0xFF AND PUSH1 0x14 DUP2 LT PUSH2 0x4FC JUMPI PUSH2 0x4FB PUSH2 0x1066 JUMP JUMPDEST JUMPDEST PUSH1 0x20 MUL ADD SWAP1 ISZERO ISZERO SWAP1 DUP2 ISZERO ISZERO DUP2 MSTORE POP POP DUP1 DUP1 PUSH2 0x516 SWAP1 PUSH2 0x10C4 JUMP JUMPDEST SWAP2 POP POP PUSH2 0x47B JUMP JUMPDEST POP DUP1 DUP1 PUSH2 0x52A SWAP1 PUSH2 0x10C4 JUMP JUMPDEST SWAP2 POP POP PUSH2 0x469 JUMP JUMPDEST POP DUP1 SWAP2 POP POP SWAP1 JUMP JUMPDEST PUSH1 0x0 DUP3 PUSH1 0x14 DUP2 LT PUSH2 0x54A JUMPI PUSH1 0x0 DUP1 REVERT JUMPDEST PUSH1 0x14 MUL ADD DUP2 PUSH1 0x14 DUP2 LT PUSH2 0x55C JUMPI PUSH1 0x0 DUP1 REVERT JUMPDEST ADD PUSH1 0x0 SWAP2 POP SWAP2 POP POP DUP1 PUSH1 0x0 ADD PUSH1 0x0 SWAP1 SLOAD SWAP1 PUSH2 0x100 EXP SWAP1 DIV PUSH1 0xFF AND SWAP1 DUP1 PUSH1 0x0 ADD PUSH1 0x1 SWAP1 SLOAD SWAP1 PUSH2 0x100 EXP SWAP1 DIV PUSH20 0xFFFFFFFFFFFFFFFFFFFFFFFFFFFFFFFFFFFFFFFF AND SWAP1 POP DUP3 JUMP JUMPDEST PUSH1 0x0 PUSH1 0x14 PUSH1 0xFF AND DUP4 PUSH1 0xFF AND LT DUP1 ISZERO PUSH2 0x5BF JUMPI POP PUSH1 0x14 PUSH1 0xFF AND DUP3 PUSH1 0xFF AND LT JUMPDEST PUSH2 0x5FE JUMPI PUSH1 0x40 MLOAD PUSH32 0x8C379A000000000000000000000000000000000000000000000000000000000 DUP2 MSTORE PUSH1 0x4 ADD PUSH2 0x5F5 SWAP1 PUSH2 0x1046 JUMP JUMPDEST PUSH1 0x40 MLOAD DUP1 SWAP2 SUB SWAP1 REVERT JUMPDEST PUSH1 0x0 DUP4 PUSH1 0xFF AND PUSH1 0x14 DUP2 LT PUSH2 0x615 JUMPI PUSH2 0x614 PUSH2 0x1066 JUMP JUMPDEST JUMPDEST PUSH1 0x14 MUL ADD DUP3 PUSH1 0xFF AND PUSH1 0x14 DUP2 LT PUSH2 0x62E JUMPI PUSH2 0x62D PUSH2 0x1066 JUMP JUMPDEST JUMPDEST ADD PUSH1 0x0 ADD PUSH1 0x1 SWAP1 SLOAD SWAP1 PUSH2 0x100 EXP SWAP1 DIV PUSH20 0xFFFFFFFFFFFFFFFFFFFFFFFFFFFFFFFFFFFFFFFF AND SWAP1 POP SWAP3 SWAP2 POP POP JUMP JUMPDEST PUSH1 0x14 PUSH1 0xFF AND DUP3 PUSH1 0xFF AND LT DUP1 ISZERO PUSH2 0x677 JUMPI POP PUSH1 0x14 PUSH1 0xFF AND DUP2 PUSH1 0xFF AND LT JUMPDEST PUSH2 0x6B6 JUMPI PUSH1 0x40 MLOAD PUSH32 0x8C379A000000000000000000000000000000000000000000000000000000000 DUP2 MSTORE PUSH1 0x4 ADD PUSH2 0x6AD SWAP1 PUSH2 0x1046 JUMP JUMPDEST PUSH1 0x40 MLOAD DUP1 SWAP2 SUB SWAP1 REVERT JUMPDEST PUSH1 0x0 DUP3 PUSH1 0xFF AND PUSH1 0x14 DUP2 LT PUSH2 0x6CD JUMPI PUSH2 0x6CC PUSH2 0x1066 JUMP JUMPDEST JUMPDEST PUSH1 0x14 MUL ADD DUP2 PUSH1 0xFF AND PUSH1 0x14 DUP2 LT PUSH2 0x6E6 JUMPI PUSH2 0x6E5 PUSH2 0x1066 JUMP JUMPDEST JUMPDEST ADD PUSH1 0x0 ADD PUSH1 0x0 SWAP1 SLOAD SWAP1 PUSH2 0x100 EXP SWAP1 DIV PUSH1 0xFF AND ISZERO PUSH2 0x738 JUMPI PUSH1 0x40 MLOAD PUSH32 0x8C379A000000000000000000000000000000000000000000000000000000000 DUP2 MSTORE PUSH1 0x4 ADD PUSH2 0x72F SWAP1 PUSH2 0x1139 JUMP JUMPDEST PUSH1 0x40 MLOAD DUP1 SWAP2 SUB SWAP1 REVERT JUMPDEST PUSH2 0x190 PUSH1 0x0 CALLER PUSH20 0xFFFFFFFFFFFFFFFFFFFFFFFFFFFFFFFFFFFFFFFF AND PUSH20 0xFFFFFFFFFFFFFFFFFFFFFFFFFFFFFFFFFFFFFFFF AND DUP2 MSTORE PUSH1 0x20 ADD SWAP1 DUP2 MSTORE PUSH1 0x20 ADD PUSH1 0x0 KECCAK256 PUSH1 0x0 SWAP1 SLOAD SWAP1 PUSH2 0x100 EXP SWAP1 DIV PUSH1 0xFF AND ISZERO PUSH2 0x7C6 JUMPI PUSH1 0x40 MLOAD PUSH32 0x8C379A000000000000000000000000000000000000000000000000000000000 DUP2 MSTORE PUSH1 0x4 ADD PUSH2 0x7BD SWAP1 PUSH2 0x11A5 JUMP JUMPDEST PUSH1 0x40 MLOAD DUP1 SWAP2 SUB SWAP1 REVERT JUMPDEST PUSH1 0x1 PUSH1 0x0 DUP4 PUSH1 0xFF AND PUSH1 0x14 DUP2 LT PUSH2 0x7DF JUMPI PUSH2 0x7DE PUSH2 0x1066 JUMP JUMPDEST JUMPDEST PUSH1 0x14 MUL ADD DUP3 PUSH1 0xFF AND PUSH1 0x14 DUP2 LT PUSH2 0x7F8 JUMPI PUSH2 0x7F7 PUSH2 0x1066 JUMP JUMPDEST JUMPDEST ADD PUSH1 0x0 ADD PUSH1 0x0 PUSH2 0x100 EXP DUP2 SLOAD DUP2 PUSH1 0xFF MUL NOT AND SWAP1 DUP4 ISZERO ISZERO MUL OR SWAP1 SSTORE POP CALLER PUSH1 0x0 DUP4 PUSH1 0xFF AND PUSH1 0x14 DUP2 LT PUSH2 0x82B JUMPI PUSH2 0x82A PUSH2 0x1066 JUMP JUMPDEST JUMPDEST PUSH1 0x14 MUL ADD DUP3 PUSH1 0xFF AND PUSH1 0x14 DUP2 LT PUSH2 0x844 JUMPI PUSH2 0x843 PUSH2 0x1066 JUMP JUMPDEST JUMPDEST ADD PUSH1 0x0 ADD PUSH1 0x1 PUSH2 0x100 EXP DUP2 SLOAD DUP2 PUSH20 0xFFFFFFFFFFFFFFFFFFFFFFFFFFFFFFFFFFFFFFFF MUL NOT AND SWAP1 DUP4 PUSH20 0xFFFFFFFFFFFFFFFFFFFFFFFFFFFFFFFFFFFFFFFF AND MUL OR SWAP1 SSTORE POP PUSH1 0x1 PUSH2 0x190 PUSH1 0x0 CALLER PUSH20 0xFFFFFFFFFFFFFFFFFFFFFFFFFFFFFFFFFFFFFFFF AND PUSH20 0xFFFFFFFFFFFFFFFFFFFFFFFFFFFFFFFFFFFFFFFF AND DUP2 MSTORE PUSH1 0x20 ADD SWAP1 DUP2 MSTORE PUSH1 0x20 ADD PUSH1 0x0 KECCAK256 PUSH1 0x0 PUSH2 0x100 EXP DUP2 SLOAD DUP2 PUSH1 0xFF MUL NOT AND SWAP1 DUP4 ISZERO ISZERO MUL OR SWAP1 SSTORE POP PUSH1 0x40 MLOAD DUP1 PUSH1 0x40 ADD PUSH1 0x40 MSTORE DUP1 DUP4 PUSH1 0xFF AND PUSH1 0xFF AND DUP2 MSTORE PUSH1 0x20 ADD DUP3 PUSH1 0xFF AND PUSH1 0xFF AND DUP2 MSTORE POP PUSH2 0x191 PUSH1 0x0 CALLER PUSH20 0xFFFFFFFFFFFFFFFFFFFFFFFFFFFFFFFFFFFFFFFF AND PUSH20 0xFFFFFFFFFFFFFFFFFFFFFFFFFFFFFFFFFFFFFFFF AND DUP2 MSTORE PUSH1 0x20 ADD SWAP1 DUP2 MSTORE PUSH1 0x20 ADD PUSH1 0x0 KECCAK256 SWAP1 PUSH1 0x2 PUSH2 0x94E SWAP3 SWAP2 SWAP1 PUSH2 0x9E1 JUMP JUMPDEST POP PUSH32 0x19C0182F0D6040E7F43AA17E1C6584130BDBC8DA2E4AC4D2050593808B77A771 DUP3 DUP3 PUSH1 0x1 CALLER PUSH1 0x40 MLOAD PUSH2 0x985 SWAP5 SWAP4 SWAP3 SWAP2 SWAP1 PUSH2 0x11C5 JUMP JUMPDEST PUSH1 0x40 MLOAD DUP1 SWAP2 SUB SWAP1 LOG1 POP POP JUMP JUMPDEST PUSH1 0x40 MLOAD DUP1 PUSH1 0x40 ADD PUSH1 0x40 MSTORE DUP1 PUSH1 0x2 SWAP1 PUSH1 0x20 DUP3 MUL DUP1 CALLDATASIZE DUP4 CALLDATACOPY DUP1 DUP3 ADD SWAP2 POP POP SWAP1 POP POP SWAP1 JUMP JUMPDEST PUSH1 0x40 MLOAD DUP1 PUSH2 0x280 ADD PUSH1 0x40 MSTORE DUP1 PUSH1 0x14 SWAP1 JUMPDEST PUSH2 0x9CB PUSH2 0xA7B JUMP JUMPDEST DUP2 MSTORE PUSH1 0x20 ADD SWAP1 PUSH1 0x1 SWAP1 SUB SWAP1 DUP2 PUSH2 0x9C3 JUMPI SWAP1 POP POP SWAP1 JUMP JUMPDEST DUP3 PUSH1 0x2 PUSH1 0x1F ADD PUSH1 0x20 SWAP1 DIV DUP2 ADD SWAP3 DUP3 ISZERO PUSH2 0xA6A JUMPI SWAP2 PUSH1 0x20 MUL DUP3 ADD PUSH1 0x0 JUMPDEST DUP4 DUP3 GT ISZERO PUSH2 0xA3B JUMPI DUP4 MLOAD DUP4 DUP3 PUSH2 0x100 EXP DUP2 SLOAD DUP2 PUSH1 0xFF MUL NOT AND SWAP1 DUP4 PUSH1 0xFF AND MUL OR SWAP1 SSTORE POP SWAP3 PUSH1 0x20 ADD SWAP3 PUSH1 0x1 ADD PUSH1 0x20 DUP2 PUSH1 0x0 ADD DIV SWAP3 DUP4 ADD SWAP3 PUSH1 0x1 SUB MUL PUSH2 0x9FD JUMP JUMPDEST DUP1 ISZERO PUSH2 0xA68 JUMPI DUP3 DUP2 PUSH2 0x100 EXP DUP2 SLOAD SWAP1 PUSH1 0xFF MUL NOT AND SWAP1 SSTORE PUSH1 0x1 ADD PUSH1 0x20 DUP2 PUSH1 0x0 ADD DIV SWAP3 DUP4 ADD SWAP3 PUSH1 0x1 SUB MUL PUSH2 0xA3B JUMP JUMPDEST POP JUMPDEST POP SWAP1 POP PUSH2 0xA77 SWAP2 SWAP1 PUSH2 0xA9E JUMP JUMPDEST POP SWAP1 JUMP JUMPDEST PUSH1 0x40 MLOAD DUP1 PUSH2 0x280 ADD PUSH1 0x40 MSTORE DUP1 PUSH1 0x14 SWAP1 PUSH1 0x20 DUP3 MUL DUP1 CALLDATASIZE DUP4 CALLDATACOPY DUP1 DUP3 ADD SWAP2 POP POP SWAP1 POP POP SWAP1 JUMP JUMPDEST JUMPDEST DUP1 DUP3 GT ISZERO PUSH2 0xAB7 JUMPI PUSH1 0x0 DUP2 PUSH1 0x0 SWAP1 SSTORE POP PUSH1 0x1 ADD PUSH2 0xA9F JUMP JUMPDEST POP SWAP1 JUMP JUMPDEST PUSH1 0x0 PUSH1 0xFF DUP3 AND SWAP1 POP SWAP2 SWAP1 POP JUMP JUMPDEST PUSH2 0xAD1 DUP2 PUSH2 0xABB JUMP JUMPDEST DUP3 MSTORE POP POP JUMP JUMPDEST PUSH1 0x0 PUSH1 0x20 DUP3 ADD SWAP1 POP PUSH2 0xAEC PUSH1 0x0 DUP4 ADD DUP5 PUSH2 0xAC8 JUMP JUMPDEST SWAP3 SWAP2 POP POP JUMP JUMPDEST PUSH1 0x0 DUP1 REVERT JUMPDEST PUSH1 0x0 PUSH20 0xFFFFFFFFFFFFFFFFFFFFFFFFFFFFFFFFFFFFFFFF DUP3 AND SWAP1 POP SWAP2 SWAP1 POP JUMP JUMPDEST PUSH1 0x0 PUSH2 0xB22 DUP3 PUSH2 0xAF7 JUMP JUMPDEST SWAP1 POP SWAP2 SWAP1 POP JUMP JUMPDEST PUSH2 0xB32 DUP2 PUSH2 0xB17 JUMP JUMPDEST DUP2 EQ PUSH2 0xB3D JUMPI PUSH1 0x0 DUP1 REVERT JUMPDEST POP JUMP JUMPDEST PUSH1 0x0 DUP2 CALLDATALOAD SWAP1 POP PUSH2 0xB4F DUP2 PUSH2 0xB29 JUMP JUMPDEST SWAP3 SWAP2 POP POP JUMP JUMPDEST PUSH1 0x0 PUSH1 0x20 DUP3 DUP5 SUB SLT ISZERO PUSH2 0xB6B JUMPI PUSH2 0xB6A PUSH2 0xAF2 JUMP JUMPDEST JUMPDEST PUSH1 0x0 PUSH2 0xB79 DUP5 DUP3 DUP6 ADD PUSH2 0xB40 JUMP JUMPDEST SWAP2 POP POP SWAP3 SWAP2 POP POP JUMP JUMPDEST PUSH1 0x0 PUSH1 0x2 SWAP1 POP SWAP2 SWAP1 POP JUMP JUMPDEST PUSH1 0x0 DUP2 SWAP1 POP SWAP3 SWAP2 POP POP JUMP JUMPDEST PUSH1 0x0 DUP2 SWAP1 POP SWAP2 SWAP1 POP JUMP JUMPDEST PUSH2 0xBAB DUP2 PUSH2 0xABB JUMP JUMPDEST DUP3 MSTORE POP POP JUMP JUMPDEST PUSH1 0x0 PUSH2 0xBBD DUP4 DUP4 PUSH2 0xBA2 JUMP JUMPDEST PUSH1 0x20 DUP4 ADD SWAP1 POP SWAP3 SWAP2 POP POP JUMP JUMPDEST PUSH1 0x0 PUSH1 0x20 DUP3 ADD SWAP1 POP SWAP2 SWAP1 POP JUMP JUMPDEST PUSH2 0xBDF DUP2 PUSH2 0xB82 JUMP JUMPDEST PUSH2 0xBE9 DUP2 DUP5 PUSH2 0xB8D JUMP JUMPDEST SWAP3 POP PUSH2 0xBF4 DUP3 PUSH2 0xB98 JUMP JUMPDEST DUP1 PUSH1 0x0 JUMPDEST DUP4 DUP2 LT ISZERO PUSH2 0xC25 JUMPI DUP2 MLOAD PUSH2 0xC0C DUP8 DUP3 PUSH2 0xBB1 JUMP JUMPDEST SWAP7 POP PUSH2 0xC17 DUP4 PUSH2 0xBC9 JUMP JUMPDEST SWAP3 POP POP PUSH1 0x1 DUP2 ADD SWAP1 POP PUSH2 0xBF8 JUMP JUMPDEST POP POP POP POP POP POP JUMP JUMPDEST PUSH1 0x0 PUSH1 0x40 DUP3 ADD SWAP1 POP PUSH2 0xC42 PUSH1 0x0 DUP4 ADD DUP5 PUSH2 0xBD6 JUMP JUMPDEST SWAP3 SWAP2 POP POP JUMP JUMPDEST PUSH2 0xC51 DUP2 PUSH2 0xABB JUMP JUMPDEST DUP2 EQ PUSH2 0xC5C JUMPI PUSH1 0x0 DUP1 REVERT JUMPDEST POP JUMP JUMPDEST PUSH1 0x0 DUP2 CALLDATALOAD SWAP1 POP PUSH2 0xC6E DUP2 PUSH2 0xC48 JUMP JUMPDEST SWAP3 SWAP2 POP POP JUMP JUMPDEST PUSH1 0x0 DUP1 PUSH1 0x40 DUP4 DUP6 SUB SLT ISZERO PUSH2 0xC8B JUMPI PUSH2 0xC8A PUSH2 0xAF2 JUMP JUMPDEST JUMPDEST PUSH1 0x0 PUSH2 0xC99 DUP6 DUP3 DUP7 ADD PUSH2 0xC5F JUMP JUMPDEST SWAP3 POP POP PUSH1 0x20 PUSH2 0xCAA DUP6 DUP3 DUP7 ADD PUSH2 0xC5F JUMP JUMPDEST SWAP2 POP POP SWAP3 POP SWAP3 SWAP1 POP JUMP JUMPDEST PUSH1 0x0 DUP2 ISZERO ISZERO SWAP1 POP SWAP2 SWAP1 POP JUMP JUMPDEST PUSH2 0xCC9 DUP2 PUSH2 0xCB4 JUMP JUMPDEST DUP3 MSTORE POP POP JUMP JUMPDEST PUSH1 0x0 PUSH1 0x20 DUP3 ADD SWAP1 POP PUSH2 0xCE4 PUSH1 0x0 DUP4 ADD DUP5 PUSH2 0xCC0 JUMP JUMPDEST SWAP3 SWAP2 POP POP JUMP JUMPDEST PUSH1 0x0 DUP2 SWAP1 POP SWAP2 SWAP1 POP JUMP JUMPDEST PUSH2 0xCFD DUP2 PUSH2 0xCEA JUMP JUMPDEST DUP2 EQ PUSH2 0xD08 JUMPI PUSH1 0x0 DUP1 REVERT JUMPDEST POP JUMP JUMPDEST PUSH1 0x0 DUP2 CALLDATALOAD SWAP1 POP PUSH2 0xD1A DUP2 PUSH2 0xCF4 JUMP JUMPDEST SWAP3 SWAP2 POP POP JUMP JUMPDEST PUSH1 0x0 DUP1 PUSH1 0x40 DUP4 DUP6 SUB SLT ISZERO PUSH2 0xD37 JUMPI PUSH2 0xD36 PUSH2 0xAF2 JUMP JUMPDEST JUMPDEST PUSH1 0x0 PUSH2 0xD45 DUP6 DUP3 DUP7 ADD PUSH2 0xB40 JUMP JUMPDEST SWAP3 POP POP PUSH1 0x20 PUSH2 0xD56 DUP6 DUP3 DUP7 ADD PUSH2 0xD0B JUMP JUMPDEST SWAP2 POP POP SWAP3 POP SWAP3 SWAP1 POP JUMP JUMPDEST PUSH1 0x0 PUSH1 0x14 SWAP1 POP SWAP2 SWAP1 POP JUMP JUMPDEST PUSH1 0x0 DUP2 SWAP1 POP SWAP3 SWAP2 POP POP JUMP JUMPDEST PUSH1 0x0 DUP2 SWAP1 POP SWAP2 SWAP1 POP JUMP JUMPDEST PUSH1 0x0 PUSH1 0x14 SWAP1 POP SWAP2 SWAP1 POP JUMP JUMPDEST PUSH1 0x0 DUP2 SWAP1 POP SWAP3 SWAP2 POP POP JUMP JUMPDEST PUSH1 0x0 DUP2 SWAP1 POP SWAP2 SWAP1 POP JUMP JUMPDEST PUSH2 0xDA9 DUP2 PUSH2 0xCB4 JUMP JUMPDEST DUP3 MSTORE POP POP JUMP JUMPDEST PUSH1 0x0 PUSH2 0xDBB DUP4 DUP4 PUSH2 0xDA0 JUMP JUMPDEST PUSH1 0x20 DUP4 ADD SWAP1 POP SWAP3 SWAP2 POP POP JUMP JUMPDEST PUSH1 0x0 PUSH1 0x20 DUP3 ADD SWAP1 POP SWAP2 SWAP1 POP JUMP JUMPDEST PUSH2 0xDDD DUP2 PUSH2 0xD80 JUMP JUMPDEST PUSH2 0xDE7 DUP2 DUP5 PUSH2 0xD8B JUMP JUMPDEST SWAP3 POP PUSH2 0xDF2 DUP3 PUSH2 0xD96 JUMP JUMPDEST DUP1 PUSH1 0x0 JUMPDEST DUP4 DUP2 LT ISZERO PUSH2 0xE23 JUMPI DUP2 MLOAD PUSH2 0xE0A DUP8 DUP3 PUSH2 0xDAF JUMP JUMPDEST SWAP7 POP PUSH2 0xE15 DUP4 PUSH2 0xDC7 JUMP JUMPDEST SWAP3 POP POP PUSH1 0x1 DUP2 ADD SWAP1 POP PUSH2 0xDF6 JUMP JUMPDEST POP POP POP POP POP POP JUMP JUMPDEST PUSH1 0x0 PUSH2 0xE37 DUP4 DUP4 PUSH2 0xDD4 JUMP JUMPDEST PUSH2 0x280 DUP4 ADD SWAP1 POP SWAP3 SWAP2 POP POP JUMP JUMPDEST PUSH1 0x0 PUSH1 0x20 DUP3 ADD SWAP1 POP SWAP2 SWAP1 POP JUMP JUMPDEST PUSH2 0xE5A DUP2 PUSH2 0xD60 JUMP JUMPDEST PUSH2 0xE64 DUP2 DUP5 PUSH2 0xD6B JUMP JUMPDEST SWAP3 POP PUSH2 0xE6F DUP3 PUSH2 0xD76 JUMP JUMPDEST DUP1 PUSH1 0x0 JUMPDEST DUP4 DUP2 LT ISZERO PUSH2 0xEA0 JUMPI DUP2 MLOAD PUSH2 0xE87 DUP8 DUP3 PUSH2 0xE2B JUMP JUMPDEST SWAP7 POP PUSH2 0xE92 DUP4 PUSH2 0xE44 JUMP JUMPDEST SWAP3 POP POP PUSH1 0x1 DUP2 ADD SWAP1 POP PUSH2 0xE73 JUMP JUMPDEST POP POP POP POP POP POP JUMP JUMPDEST PUSH1 0x0 PUSH2 0x3200 DUP3 ADD SWAP1 POP PUSH2 0xEBE PUSH1 0x0 DUP4 ADD DUP5 PUSH2 0xE51 JUMP JUMPDEST SWAP3 SWAP2 POP POP JUMP JUMPDEST PUSH1 0x0 DUP1 PUSH1 0x40 DUP4 DUP6 SUB SLT ISZERO PUSH2 0xEDB JUMPI PUSH2 0xEDA PUSH2 0xAF2 JUMP JUMPDEST JUMPDEST PUSH1 0x0 PUSH2 0xEE9 DUP6 DUP3 DUP7 ADD PUSH2 0xD0B JUMP JUMPDEST SWAP3 POP POP PUSH1 0x20 PUSH2 0xEFA DUP6 DUP3 DUP7 ADD PUSH2 0xD0B JUMP JUMPDEST SWAP2 POP POP SWAP3 POP SWAP3 SWAP1 POP JUMP JUMPDEST PUSH2 0xF0D DUP2 PUSH2 0xB17 JUMP JUMPDEST DUP3 MSTORE POP POP JUMP JUMPDEST PUSH1 0x0 PUSH1 0x40 DUP3 ADD SWAP1 POP PUSH2 0xF28 PUSH1 0x0 DUP4 ADD DUP6 PUSH2 0xCC0 JUMP JUMPDEST PUSH2 0xF35 PUSH1 0x20 DUP4 ADD DUP5 PUSH2 0xF04 JUMP JUMPDEST SWAP4 SWAP3 POP POP POP JUMP JUMPDEST PUSH1 0x0 PUSH1 0x20 DUP3 ADD SWAP1 POP PUSH2 0xF51 PUSH1 0x0 DUP4 ADD DUP5 PUSH2 0xF04 JUMP JUMPDEST SWAP3 SWAP2 POP POP JUMP JUMPDEST PUSH1 0x0 DUP3 DUP3 MSTORE PUSH1 0x20 DUP3 ADD SWAP1 POP SWAP3 SWAP2 POP POP JUMP JUMPDEST PUSH32 0x54686973206164647265737320686173206E6F74206F63637570696564206120 PUSH1 0x0 DUP3 ADD MSTORE PUSH32 0x74696C6500000000000000000000000000000000000000000000000000000000 PUSH1 0x20 DUP3 ADD MSTORE POP JUMP JUMPDEST PUSH1 0x0 PUSH2 0xFC4 PUSH1 0x24 DUP4 PUSH2 0xF57 JUMP JUMPDEST SWAP2 POP PUSH2 0xFCF DUP3 PUSH2 0xF68 JUMP JUMPDEST PUSH1 0x40 DUP3 ADD SWAP1 POP SWAP2 SWAP1 POP JUMP JUMPDEST PUSH1 0x0 PUSH1 0x20 DUP3 ADD SWAP1 POP DUP2 DUP2 SUB PUSH1 0x0 DUP4 ADD MSTORE PUSH2 0xFF3 DUP2 PUSH2 0xFB7 JUMP JUMPDEST SWAP1 POP SWAP2 SWAP1 POP JUMP JUMPDEST PUSH32 0x496E76616C69642074696C6520636F6F7264696E617465730000000000000000 PUSH1 0x0 DUP3 ADD MSTORE POP JUMP JUMPDEST PUSH1 0x0 PUSH2 0x1030 PUSH1 0x18 DUP4 PUSH2 0xF57 JUMP JUMPDEST SWAP2 POP PUSH2 0x103B DUP3 PUSH2 0xFFA JUMP JUMPDEST PUSH1 0x20 DUP3 ADD SWAP1 POP SWAP2 SWAP1 POP JUMP JUMPDEST PUSH1 0x0 PUSH1 0x20 DUP3 ADD SWAP1 POP DUP2 DUP2 SUB PUSH1 0x0 DUP4 ADD MSTORE PUSH2 0x105F DUP2 PUSH2 0x1023 JUMP JUMPDEST SWAP1 POP SWAP2 SWAP1 POP JUMP JUMPDEST PUSH32 0x4E487B7100000000000000000000000000000000000000000000000000000000 PUSH1 0x0 MSTORE PUSH1 0x32 PUSH1 0x4 MSTORE PUSH1 0x24 PUSH1 0x0 REVERT JUMPDEST PUSH32 0x4E487B7100000000000000000000000000000000000000000000000000000000 PUSH1 0x0 MSTORE PUSH1 0x11 PUSH1 0x4 MSTORE PUSH1 0x24 PUSH1 0x0 REVERT JUMPDEST PUSH1 0x0 PUSH2 0x10CF DUP3 PUSH2 0xABB JUMP JUMPDEST SWAP2 POP PUSH1 0xFF DUP3 SUB PUSH2 0x10E2 JUMPI PUSH2 0x10E1 PUSH2 0x1095 JUMP JUMPDEST JUMPDEST PUSH1 0x1 DUP3 ADD SWAP1 POP SWAP2 SWAP1 POP JUMP JUMPDEST PUSH32 0x54696C6520697320616C7265616479206F636375706965640000000000000000 PUSH1 0x0 DUP3 ADD MSTORE POP JUMP JUMPDEST PUSH1 0x0 PUSH2 0x1123 PUSH1 0x18 DUP4 PUSH2 0xF57 JUMP JUMPDEST SWAP2 POP PUSH2 0x112E DUP3 PUSH2 0x10ED JUMP JUMPDEST PUSH1 0x20 DUP3 ADD SWAP1 POP SWAP2 SWAP1 POP JUMP JUMPDEST PUSH1 0x0 PUSH1 0x20 DUP3 ADD SWAP1 POP DUP2 DUP2 SUB PUSH1 0x0 DUP4 ADD MSTORE PUSH2 0x1152 DUP2 PUSH2 0x1116 JUMP JUMPDEST SWAP1 POP SWAP2 SWAP1 POP JUMP JUMPDEST PUSH32 0x596F75206861766520616C7265616479206F6363757069656420612074696C65 PUSH1 0x0 DUP3 ADD MSTORE POP JUMP JUMPDEST PUSH1 0x0 PUSH2 0x118F PUSH1 0x20 DUP4 PUSH2 0xF57 JUMP JUMPDEST SWAP2 POP PUSH2 0x119A DUP3 PUSH2 0x1159 JUMP JUMPDEST PUSH1 0x20 DUP3 ADD SWAP1 POP SWAP2 SWAP1 POP JUMP JUMPDEST PUSH1 0x0 PUSH1 0x20 DUP3 ADD SWAP1 POP DUP2 DUP2 SUB PUSH1 0x0 DUP4 ADD MSTORE PUSH2 0x11BE DUP2 PUSH2 0x1182 JUMP JUMPDEST SWAP1 POP SWAP2 SWAP1 POP JUMP JUMPDEST PUSH1 0x0 PUSH1 0x80 DUP3 ADD SWAP1 POP PUSH2 0x11DA PUSH1 0x0 DUP4 ADD DUP8 PUSH2 0xAC8 JUMP JUMPDEST PUSH2 0x11E7 PUSH1 0x20 DUP4 ADD DUP7 PUSH2 0xAC8 JUMP JUMPDEST PUSH2 0x11F4 PUSH1 0x40 DUP4 ADD DUP6 PUSH2 0xCC0 JUMP JUMPDEST PUSH2 0x1201 PUSH1 0x60 DUP4 ADD DUP5 PUSH2 0xF04 JUMP JUMPDEST SWAP6 SWAP5 POP POP POP POP POP JUMP INVALID LOG2 PUSH5 0x6970667358 0x22 SLT KECCAK256 ADDRESS SWAP7 0xEF AND SWAP8 PUSH11 0x839DD209C0B3FCD12DCDC2 0x25 LOG0 0xB1 DUP3 PUSH21 0xF0CC3F1C138345E4E47A64736F6C63430008120033 "
		},
		"gasEstimates": {
			"creation": {
				"codeDepositCost": "934400",
				"executionCost": "968",
				"totalCost": "935368"
			},
			"external": {
				"getAllOccupiedTiles()": "infinite",
				"getOccupiedTileByAddress(address)": "infinite",
				"getTileOccupant(uint8,uint8)": "infinite",
				"hasOccupiedTile(address)": "2912",
				"isTileOccupied(uint8,uint8)": "infinite",
				"mapSize()": "336",
				"occupantTileCoordinates(address,uint256)": "4678",
				"occupyTile(uint8,uint8)": "infinite",
				"tiles(uint256,uint256)": "infinite"
			}
		},
		"methodIdentifiers": {
			"getAllOccupiedTiles()": "8a115f0b",
			"getOccupiedTileByAddress(address)": "2400a3b0",
			"getTileOccupant(uint8,uint8)": "8a888953",
			"hasOccupiedTile(address)": "2cfdf9b1",
			"isTileOccupied(uint8,uint8)": "2672becb",
			"mapSize()": "1a32ebb6",
			"occupantTileCoordinates(address,uint256)": "323fd7b7",
			"occupyTile(uint8,uint8)": "f386cf55",
			"tiles(uint256,uint256)": "8a3d7cdc"
		}
	},
	"abi": [
		{
			"anonymous": false,
			"inputs": [
				{
					"indexed": false,
					"internalType": "uint8",
					"name": "x",
					"type": "uint8"
				},
				{
					"indexed": false,
					"internalType": "uint8",
					"name": "y",
					"type": "uint8"
				},
				{
					"indexed": false,
					"internalType": "bool",
					"name": "isOccupied",
					"type": "bool"
				},
				{
					"indexed": false,
					"internalType": "address",
					"name": "occupant",
					"type": "address"
				}
			],
			"name": "TileUpdated",
			"type": "event"
		},
		{
			"inputs": [],
			"name": "getAllOccupiedTiles",
			"outputs": [
				{
					"internalType": "bool[20][20]",
					"name": "",
					"type": "bool[20][20]"
				}
			],
			"stateMutability": "view",
			"type": "function"
		},
		{
			"inputs": [
				{
					"internalType": "address",
					"name": "occupant",
					"type": "address"
				}
			],
			"name": "getOccupiedTileByAddress",
			"outputs": [
				{
					"internalType": "uint8[2]",
					"name": "",
					"type": "uint8[2]"
				}
			],
			"stateMutability": "view",
			"type": "function"
		},
		{
			"inputs": [
				{
					"internalType": "uint8",
					"name": "x",
					"type": "uint8"
				},
				{
					"internalType": "uint8",
					"name": "y",
					"type": "uint8"
				}
			],
			"name": "getTileOccupant",
			"outputs": [
				{
					"internalType": "address",
					"name": "",
					"type": "address"
				}
			],
			"stateMutability": "view",
			"type": "function"
		},
		{
			"inputs": [
				{
					"internalType": "address",
					"name": "",
					"type": "address"
				}
			],
			"name": "hasOccupiedTile",
			"outputs": [
				{
					"internalType": "bool",
					"name": "",
					"type": "bool"
				}
			],
			"stateMutability": "view",
			"type": "function"
		},
		{
			"inputs": [
				{
					"internalType": "uint8",
					"name": "x",
					"type": "uint8"
				},
				{
					"internalType": "uint8",
					"name": "y",
					"type": "uint8"
				}
			],
			"name": "isTileOccupied",
			"outputs": [
				{
					"internalType": "bool",
					"name": "",
					"type": "bool"
				}
			],
			"stateMutability": "view",
			"type": "function"
		},
		{
			"inputs": [],
			"name": "mapSize",
			"outputs": [
				{
					"internalType": "uint8",
					"name": "",
					"type": "uint8"
				}
			],
			"stateMutability": "view",
			"type": "function"
		},
		{
			"inputs": [
				{
					"internalType": "address",
					"name": "",
					"type": "address"
				},
				{
					"internalType": "uint256",
					"name": "",
					"type": "uint256"
				}
			],
			"name": "occupantTileCoordinates",
			"outputs": [
				{
					"internalType": "uint8",
					"name": "",
					"type": "uint8"
				}
			],
			"stateMutability": "view",
			"type": "function"
		},
		{
			"inputs": [
				{
					"internalType": "uint8",
					"name": "x",
					"type": "uint8"
				},
				{
					"internalType": "uint8",
					"name": "y",
					"type": "uint8"
				}
			],
			"name": "occupyTile",
			"outputs": [],
			"stateMutability": "nonpayable",
			"type": "function"
		},
		{
			"inputs": [
				{
					"internalType": "uint256",
					"name": "",
					"type": "uint256"
				},
				{
					"internalType": "uint256",
					"name": "",
					"type": "uint256"
				}
			],
			"name": "tiles",
			"outputs": [
				{
					"internalType": "bool",
					"name": "isOccupied",
					"type": "bool"
				},
				{
					"internalType": "address",
					"name": "occupant",
					"type": "address"
				}
			],
			"stateMutability": "view",
			"type": "function"
		}
	]
}