{
	"data": {
		"bytecode": {
			"linkReferences": {},
			"object": "608060405234801561001057600080fd5b50610b59806100206000396000f3fe608060405234801561001057600080fd5b50600436106100625760003560e01c80631a32ebb6146100675780632672becb146100855780638a115f0b146100b55780638a3d7cdc146100d35780638a88895314610104578063f386cf5514610134575b600080fd5b61006f610150565b60405161007c919061064d565b60405180910390f35b61009f600480360381019061009a9190610699565b610155565b6040516100ac91906106f4565b60405180910390f35b6100bd6101fc565b6040516100ca9190610857565b60405180910390f35b6100ed60048036038101906100e891906108a9565b6102e0565b6040516100fb92919061092a565b60405180910390f35b61011e60048036038101906101199190610699565b610347565b60405161012b9190610953565b60405180910390f35b61014e60048036038101906101499190610699565b610401565b005b601481565b6000601460ff168360ff161080156101735750601460ff168260ff16105b6101b2576040517f08c379a00000000000000000000000000000000000000000000000000000000081526004016101a9906109cb565b60405180910390fd5b60008360ff16601481106101c9576101c86109eb565b5b601402018260ff16601481106101e2576101e16109eb565b5b0160000160009054906101000a900460ff16905092915050565b6102046105e0565b61020c6105e0565b60005b601460ff168160ff1610156102d85760005b601460ff168160ff1610156102c45760008260ff1660148110610247576102466109eb565b5b601402018160ff16601481106102605761025f6109eb565b5b0160000160009054906101000a900460ff16838360ff1660148110610288576102876109eb565b5b60200201518260ff16601481106102a2576102a16109eb565b5b60200201901515908115158152505080806102bc90610a49565b915050610221565b5080806102d090610a49565b91505061020f565b508091505090565b600082601481106102f057600080fd5b60140201816014811061030257600080fd5b01600091509150508060000160009054906101000a900460ff16908060000160019054906101000a900473ffffffffffffffffffffffffffffffffffffffff16905082565b6000601460ff168360ff161080156103655750601460ff168260ff16105b6103a4576040517f08c379a000000000000000000000000000000000000000000000000000000000815260040161039b906109cb565b60405180910390fd5b60008360ff16601481106103bb576103ba6109eb565b5b601402018260ff16601481106103d4576103d36109eb565b5b0160000160019054906101000a900473ffffffffffffffffffffffffffffffffffffffff16905092915050565b601460ff168260ff1610801561041d5750601460ff168160ff16105b61045c576040517f08c379a0000000000000000000000000000000000000000000000000000000008152600401610453906109cb565b60405180910390fd5b60008260ff1660148110610473576104726109eb565b5b601402018160ff166014811061048c5761048b6109eb565b5b0160000160009054906101000a900460ff16156104de576040517f08c379a00000000000000000000000000000000000000000000000000000000081526004016104d590610abe565b60405180910390fd5b600160008360ff16601481106104f7576104f66109eb565b5b601402018260ff16601481106105105761050f6109eb565b5b0160000160006101000a81548160ff0219169083151502179055503360008360ff1660148110610543576105426109eb565b5b601402018260ff166014811061055c5761055b6109eb565b5b0160000160016101000a81548173ffffffffffffffffffffffffffffffffffffffff021916908373ffffffffffffffffffffffffffffffffffffffff1602179055507f19c0182f0d6040e7f43aa17e1c6584130bdbc8da2e4ac4d2050593808b77a77182826001336040516105d49493929190610ade565b60405180910390a15050565b6040518061028001604052806014905b6105f861060e565b8152602001906001900390816105f05790505090565b604051806102800160405280601490602082028036833780820191505090505090565b600060ff82169050919050565b61064781610631565b82525050565b6000602082019050610662600083018461063e565b92915050565b600080fd5b61067681610631565b811461068157600080fd5b50565b6000813590506106938161066d565b92915050565b600080604083850312156106b0576106af610668565b5b60006106be85828601610684565b92505060206106cf85828601610684565b9150509250929050565b60008115159050919050565b6106ee816106d9565b82525050565b600060208201905061070960008301846106e5565b92915050565b600060149050919050565b600081905092915050565b6000819050919050565b600060149050919050565b600081905092915050565b6000819050919050565b610758816106d9565b82525050565b600061076a838361074f565b60208301905092915050565b6000602082019050919050565b61078c8161072f565b610796818461073a565b92506107a182610745565b8060005b838110156107d25781516107b9878261075e565b96506107c483610776565b9250506001810190506107a5565b505050505050565b60006107e68383610783565b6102808301905092915050565b6000602082019050919050565b6108098161070f565b610813818461071a565b925061081e82610725565b8060005b8381101561084f57815161083687826107da565b9650610841836107f3565b925050600181019050610822565b505050505050565b60006132008201905061086d6000830184610800565b92915050565b6000819050919050565b61088681610873565b811461089157600080fd5b50565b6000813590506108a38161087d565b92915050565b600080604083850312156108c0576108bf610668565b5b60006108ce85828601610894565b92505060206108df85828601610894565b9150509250929050565b600073ffffffffffffffffffffffffffffffffffffffff82169050919050565b6000610914826108e9565b9050919050565b61092481610909565b82525050565b600060408201905061093f60008301856106e5565b61094c602083018461091b565b9392505050565b6000602082019050610968600083018461091b565b92915050565b600082825260208201905092915050565b7f496e76616c69642074696c6520636f6f7264696e617465730000000000000000600082015250565b60006109b560188361096e565b91506109c08261097f565b602082019050919050565b600060208201905081810360008301526109e4816109a8565b9050919050565b7f4e487b7100000000000000000000000000000000000000000000000000000000600052603260045260246000fd5b7f4e487b7100000000000000000000000000000000000000000000000000000000600052601160045260246000fd5b6000610a5482610631565b915060ff8203610a6757610a66610a1a565b5b600182019050919050565b7f54696c6520697320616c7265616479206f636375706965640000000000000000600082015250565b6000610aa860188361096e565b9150610ab382610a72565b602082019050919050565b60006020820190508181036000830152610ad781610a9b565b9050919050565b6000608082019050610af3600083018761063e565b610b00602083018661063e565b610b0d60408301856106e5565b610b1a606083018461091b565b9594505050505056fea2646970667358221220fc5c03b426df49a1ec8be9229511d247547a06c912a0c9eb8173624e245c7ba464736f6c63430008120033",
			"opcodes": "PUSH1 0x80 PUSH1 0x40 MSTORE CALLVALUE DUP1 ISZERO PUSH2 0x10 JUMPI PUSH1 0x0 DUP1 REVERT JUMPDEST POP PUSH2 0xB59 DUP1 PUSH2 0x20 PUSH1 0x0 CODECOPY PUSH1 0x0 RETURN INVALID PUSH1 0x80 PUSH1 0x40 MSTORE CALLVALUE DUP1 ISZERO PUSH2 0x10 JUMPI PUSH1 0x0 DUP1 REVERT JUMPDEST POP PUSH1 0x4 CALLDATASIZE LT PUSH2 0x62 JUMPI PUSH1 0x0 CALLDATALOAD PUSH1 0xE0 SHR DUP1 PUSH4 0x1A32EBB6 EQ PUSH2 0x67 JUMPI DUP1 PUSH4 0x2672BECB EQ PUSH2 0x85 JUMPI DUP1 PUSH4 0x8A115F0B EQ PUSH2 0xB5 JUMPI DUP1 PUSH4 0x8A3D7CDC EQ PUSH2 0xD3 JUMPI DUP1 PUSH4 0x8A888953 EQ PUSH2 0x104 JUMPI DUP1 PUSH4 0xF386CF55 EQ PUSH2 0x134 JUMPI JUMPDEST PUSH1 0x0 DUP1 REVERT JUMPDEST PUSH2 0x6F PUSH2 0x150 JUMP JUMPDEST PUSH1 0x40 MLOAD PUSH2 0x7C SWAP2 SWAP1 PUSH2 0x64D JUMP JUMPDEST PUSH1 0x40 MLOAD DUP1 SWAP2 SUB SWAP1 RETURN JUMPDEST PUSH2 0x9F PUSH1 0x4 DUP1 CALLDATASIZE SUB DUP2 ADD SWAP1 PUSH2 0x9A SWAP2 SWAP1 PUSH2 0x699 JUMP JUMPDEST PUSH2 0x155 JUMP JUMPDEST PUSH1 0x40 MLOAD PUSH2 0xAC SWAP2 SWAP1 PUSH2 0x6F4 JUMP JUMPDEST PUSH1 0x40 MLOAD DUP1 SWAP2 SUB SWAP1 RETURN JUMPDEST PUSH2 0xBD PUSH2 0x1FC JUMP JUMPDEST PUSH1 0x40 MLOAD PUSH2 0xCA SWAP2 SWAP1 PUSH2 0x857 JUMP JUMPDEST PUSH1 0x40 MLOAD DUP1 SWAP2 SUB SWAP1 RETURN JUMPDEST PUSH2 0xED PUSH1 0x4 DUP1 CALLDATASIZE SUB DUP2 ADD SWAP1 PUSH2 0xE8 SWAP2 SWAP1 PUSH2 0x8A9 JUMP JUMPDEST PUSH2 0x2E0 JUMP JUMPDEST PUSH1 0x40 MLOAD PUSH2 0xFB SWAP3 SWAP2 SWAP1 PUSH2 0x92A JUMP JUMPDEST PUSH1 0x40 MLOAD DUP1 SWAP2 SUB SWAP1 RETURN JUMPDEST PUSH2 0x11E PUSH1 0x4 DUP1 CALLDATASIZE SUB DUP2 ADD SWAP1 PUSH2 0x119 SWAP2 SWAP1 PUSH2 0x699 JUMP JUMPDEST PUSH2 0x347 JUMP JUMPDEST PUSH1 0x40 MLOAD PUSH2 0x12B SWAP2 SWAP1 PUSH2 0x953 JUMP JUMPDEST PUSH1 0x40 MLOAD DUP1 SWAP2 SUB SWAP1 RETURN JUMPDEST PUSH2 0x14E PUSH1 0x4 DUP1 CALLDATASIZE SUB DUP2 ADD SWAP1 PUSH2 0x149 SWAP2 SWAP1 PUSH2 0x699 JUMP JUMPDEST PUSH2 0x401 JUMP JUMPDEST STOP JUMPDEST PUSH1 0x14 DUP2 JUMP JUMPDEST PUSH1 0x0 PUSH1 0x14 PUSH1 0xFF AND DUP4 PUSH1 0xFF AND LT DUP1 ISZERO PUSH2 0x173 JUMPI POP PUSH1 0x14 PUSH1 0xFF AND DUP3 PUSH1 0xFF AND LT JUMPDEST PUSH2 0x1B2 JUMPI PUSH1 0x40 MLOAD PUSH32 0x8C379A000000000000000000000000000000000000000000000000000000000 DUP2 MSTORE PUSH1 0x4 ADD PUSH2 0x1A9 SWAP1 PUSH2 0x9CB JUMP JUMPDEST PUSH1 0x40 MLOAD DUP1 SWAP2 SUB SWAP1 REVERT JUMPDEST PUSH1 0x0 DUP4 PUSH1 0xFF AND PUSH1 0x14 DUP2 LT PUSH2 0x1C9 JUMPI PUSH2 0x1C8 PUSH2 0x9EB JUMP JUMPDEST JUMPDEST PUSH1 0x14 MUL ADD DUP3 PUSH1 0xFF AND PUSH1 0x14 DUP2 LT PUSH2 0x1E2 JUMPI PUSH2 0x1E1 PUSH2 0x9EB JUMP JUMPDEST JUMPDEST ADD PUSH1 0x0 ADD PUSH1 0x0 SWAP1 SLOAD SWAP1 PUSH2 0x100 EXP SWAP1 DIV PUSH1 0xFF AND SWAP1 POP SWAP3 SWAP2 POP POP JUMP JUMPDEST PUSH2 0x204 PUSH2 0x5E0 JUMP JUMPDEST PUSH2 0x20C PUSH2 0x5E0 JUMP JUMPDEST PUSH1 0x0 JUMPDEST PUSH1 0x14 PUSH1 0xFF AND DUP2 PUSH1 0xFF AND LT ISZERO PUSH2 0x2D8 JUMPI PUSH1 0x0 JUMPDEST PUSH1 0x14 PUSH1 0xFF AND DUP2 PUSH1 0xFF AND LT ISZERO PUSH2 0x2C4 JUMPI PUSH1 0x0 DUP3 PUSH1 0xFF AND PUSH1 0x14 DUP2 LT PUSH2 0x247 JUMPI PUSH2 0x246 PUSH2 0x9EB JUMP JUMPDEST JUMPDEST PUSH1 0x14 MUL ADD DUP2 PUSH1 0xFF AND PUSH1 0x14 DUP2 LT PUSH2 0x260 JUMPI PUSH2 0x25F PUSH2 0x9EB JUMP JUMPDEST JUMPDEST ADD PUSH1 0x0 ADD PUSH1 0x0 SWAP1 SLOAD SWAP1 PUSH2 0x100 EXP SWAP1 DIV PUSH1 0xFF AND DUP4 DUP4 PUSH1 0xFF AND PUSH1 0x14 DUP2 LT PUSH2 0x288 JUMPI PUSH2 0x287 PUSH2 0x9EB JUMP JUMPDEST JUMPDEST PUSH1 0x20 MUL ADD MLOAD DUP3 PUSH1 0xFF AND PUSH1 0x14 DUP2 LT PUSH2 0x2A2 JUMPI PUSH2 0x2A1 PUSH2 0x9EB JUMP JUMPDEST JUMPDEST PUSH1 0x20 MUL ADD SWAP1 ISZERO ISZERO SWAP1 DUP2 ISZERO ISZERO DUP2 MSTORE POP POP DUP1 DUP1 PUSH2 0x2BC SWAP1 PUSH2 0xA49 JUMP JUMPDEST SWAP2 POP POP PUSH2 0x221 JUMP JUMPDEST POP DUP1 DUP1 PUSH2 0x2D0 SWAP1 PUSH2 0xA49 JUMP JUMPDEST SWAP2 POP POP PUSH2 0x20F JUMP JUMPDEST POP DUP1 SWAP2 POP POP SWAP1 JUMP JUMPDEST PUSH1 0x0 DUP3 PUSH1 0x14 DUP2 LT PUSH2 0x2F0 JUMPI PUSH1 0x0 DUP1 REVERT JUMPDEST PUSH1 0x14 MUL ADD DUP2 PUSH1 0x14 DUP2 LT PUSH2 0x302 JUMPI PUSH1 0x0 DUP1 REVERT JUMPDEST ADD PUSH1 0x0 SWAP2 POP SWAP2 POP POP DUP1 PUSH1 0x0 ADD PUSH1 0x0 SWAP1 SLOAD SWAP1 PUSH2 0x100 EXP SWAP1 DIV PUSH1 0xFF AND SWAP1 DUP1 PUSH1 0x0 ADD PUSH1 0x1 SWAP1 SLOAD SWAP1 PUSH2 0x100 EXP SWAP1 DIV PUSH20 0xFFFFFFFFFFFFFFFFFFFFFFFFFFFFFFFFFFFFFFFF AND SWAP1 POP DUP3 JUMP JUMPDEST PUSH1 0x0 PUSH1 0x14 PUSH1 0xFF AND DUP4 PUSH1 0xFF AND LT DUP1 ISZERO PUSH2 0x365 JUMPI POP PUSH1 0x14 PUSH1 0xFF AND DUP3 PUSH1 0xFF AND LT JUMPDEST PUSH2 0x3A4 JUMPI PUSH1 0x40 MLOAD PUSH32 0x8C379A000000000000000000000000000000000000000000000000000000000 DUP2 MSTORE PUSH1 0x4 ADD PUSH2 0x39B SWAP1 PUSH2 0x9CB JUMP JUMPDEST PUSH1 0x40 MLOAD DUP1 SWAP2 SUB SWAP1 REVERT JUMPDEST PUSH1 0x0 DUP4 PUSH1 0xFF AND PUSH1 0x14 DUP2 LT PUSH2 0x3BB JUMPI PUSH2 0x3BA PUSH2 0x9EB JUMP JUMPDEST JUMPDEST PUSH1 0x14 MUL ADD DUP3 PUSH1 0xFF AND PUSH1 0x14 DUP2 LT PUSH2 0x3D4 JUMPI PUSH2 0x3D3 PUSH2 0x9EB JUMP JUMPDEST JUMPDEST ADD PUSH1 0x0 ADD PUSH1 0x1 SWAP1 SLOAD SWAP1 PUSH2 0x100 EXP SWAP1 DIV PUSH20 0xFFFFFFFFFFFFFFFFFFFFFFFFFFFFFFFFFFFFFFFF AND SWAP1 POP SWAP3 SWAP2 POP POP JUMP JUMPDEST PUSH1 0x14 PUSH1 0xFF AND DUP3 PUSH1 0xFF AND LT DUP1 ISZERO PUSH2 0x41D JUMPI POP PUSH1 0x14 PUSH1 0xFF AND DUP2 PUSH1 0xFF AND LT JUMPDEST PUSH2 0x45C JUMPI PUSH1 0x40 MLOAD PUSH32 0x8C379A000000000000000000000000000000000000000000000000000000000 DUP2 MSTORE PUSH1 0x4 ADD PUSH2 0x453 SWAP1 PUSH2 0x9CB JUMP JUMPDEST PUSH1 0x40 MLOAD DUP1 SWAP2 SUB SWAP1 REVERT JUMPDEST PUSH1 0x0 DUP3 PUSH1 0xFF AND PUSH1 0x14 DUP2 LT PUSH2 0x473 JUMPI PUSH2 0x472 PUSH2 0x9EB JUMP JUMPDEST JUMPDEST PUSH1 0x14 MUL ADD DUP2 PUSH1 0xFF AND PUSH1 0x14 DUP2 LT PUSH2 0x48C JUMPI PUSH2 0x48B PUSH2 0x9EB JUMP JUMPDEST JUMPDEST ADD PUSH1 0x0 ADD PUSH1 0x0 SWAP1 SLOAD SWAP1 PUSH2 0x100 EXP SWAP1 DIV PUSH1 0xFF AND ISZERO PUSH2 0x4DE JUMPI PUSH1 0x40 MLOAD PUSH32 0x8C379A000000000000000000000000000000000000000000000000000000000 DUP2 MSTORE PUSH1 0x4 ADD PUSH2 0x4D5 SWAP1 PUSH2 0xABE JUMP JUMPDEST PUSH1 0x40 MLOAD DUP1 SWAP2 SUB SWAP1 REVERT JUMPDEST PUSH1 0x1 PUSH1 0x0 DUP4 PUSH1 0xFF AND PUSH1 0x14 DUP2 LT PUSH2 0x4F7 JUMPI PUSH2 0x4F6 PUSH2 0x9EB JUMP JUMPDEST JUMPDEST PUSH1 0x14 MUL ADD DUP3 PUSH1 0xFF AND PUSH1 0x14 DUP2 LT PUSH2 0x510 JUMPI PUSH2 0x50F PUSH2 0x9EB JUMP JUMPDEST JUMPDEST ADD PUSH1 0x0 ADD PUSH1 0x0 PUSH2 0x100 EXP DUP2 SLOAD DUP2 PUSH1 0xFF MUL NOT AND SWAP1 DUP4 ISZERO ISZERO MUL OR SWAP1 SSTORE POP CALLER PUSH1 0x0 DUP4 PUSH1 0xFF AND PUSH1 0x14 DUP2 LT PUSH2 0x543 JUMPI PUSH2 0x542 PUSH2 0x9EB JUMP JUMPDEST JUMPDEST PUSH1 0x14 MUL ADD DUP3 PUSH1 0xFF AND PUSH1 0x14 DUP2 LT PUSH2 0x55C JUMPI PUSH2 0x55B PUSH2 0x9EB JUMP JUMPDEST JUMPDEST ADD PUSH1 0x0 ADD PUSH1 0x1 PUSH2 0x100 EXP DUP2 SLOAD DUP2 PUSH20 0xFFFFFFFFFFFFFFFFFFFFFFFFFFFFFFFFFFFFFFFF MUL NOT AND SWAP1 DUP4 PUSH20 0xFFFFFFFFFFFFFFFFFFFFFFFFFFFFFFFFFFFFFFFF AND MUL OR SWAP1 SSTORE POP PUSH32 0x19C0182F0D6040E7F43AA17E1C6584130BDBC8DA2E4AC4D2050593808B77A771 DUP3 DUP3 PUSH1 0x1 CALLER PUSH1 0x40 MLOAD PUSH2 0x5D4 SWAP5 SWAP4 SWAP3 SWAP2 SWAP1 PUSH2 0xADE JUMP JUMPDEST PUSH1 0x40 MLOAD DUP1 SWAP2 SUB SWAP1 LOG1 POP POP JUMP JUMPDEST PUSH1 0x40 MLOAD DUP1 PUSH2 0x280 ADD PUSH1 0x40 MSTORE DUP1 PUSH1 0x14 SWAP1 JUMPDEST PUSH2 0x5F8 PUSH2 0x60E JUMP JUMPDEST DUP2 MSTORE PUSH1 0x20 ADD SWAP1 PUSH1 0x1 SWAP1 SUB SWAP1 DUP2 PUSH2 0x5F0 JUMPI SWAP1 POP POP SWAP1 JUMP JUMPDEST PUSH1 0x40 MLOAD DUP1 PUSH2 0x280 ADD PUSH1 0x40 MSTORE DUP1 PUSH1 0x14 SWAP1 PUSH1 0x20 DUP3 MUL DUP1 CALLDATASIZE DUP4 CALLDATACOPY DUP1 DUP3 ADD SWAP2 POP POP SWAP1 POP POP SWAP1 JUMP JUMPDEST PUSH1 0x0 PUSH1 0xFF DUP3 AND SWAP1 POP SWAP2 SWAP1 POP JUMP JUMPDEST PUSH2 0x647 DUP2 PUSH2 0x631 JUMP JUMPDEST DUP3 MSTORE POP POP JUMP JUMPDEST PUSH1 0x0 PUSH1 0x20 DUP3 ADD SWAP1 POP PUSH2 0x662 PUSH1 0x0 DUP4 ADD DUP5 PUSH2 0x63E JUMP JUMPDEST SWAP3 SWAP2 POP POP JUMP JUMPDEST PUSH1 0x0 DUP1 REVERT JUMPDEST PUSH2 0x676 DUP2 PUSH2 0x631 JUMP JUMPDEST DUP2 EQ PUSH2 0x681 JUMPI PUSH1 0x0 DUP1 REVERT JUMPDEST POP JUMP JUMPDEST PUSH1 0x0 DUP2 CALLDATALOAD SWAP1 POP PUSH2 0x693 DUP2 PUSH2 0x66D JUMP JUMPDEST SWAP3 SWAP2 POP POP JUMP JUMPDEST PUSH1 0x0 DUP1 PUSH1 0x40 DUP4 DUP6 SUB SLT ISZERO PUSH2 0x6B0 JUMPI PUSH2 0x6AF PUSH2 0x668 JUMP JUMPDEST JUMPDEST PUSH1 0x0 PUSH2 0x6BE DUP6 DUP3 DUP7 ADD PUSH2 0x684 JUMP JUMPDEST SWAP3 POP POP PUSH1 0x20 PUSH2 0x6CF DUP6 DUP3 DUP7 ADD PUSH2 0x684 JUMP JUMPDEST SWAP2 POP POP SWAP3 POP SWAP3 SWAP1 POP JUMP JUMPDEST PUSH1 0x0 DUP2 ISZERO ISZERO SWAP1 POP SWAP2 SWAP1 POP JUMP JUMPDEST PUSH2 0x6EE DUP2 PUSH2 0x6D9 JUMP JUMPDEST DUP3 MSTORE POP POP JUMP JUMPDEST PUSH1 0x0 PUSH1 0x20 DUP3 ADD SWAP1 POP PUSH2 0x709 PUSH1 0x0 DUP4 ADD DUP5 PUSH2 0x6E5 JUMP JUMPDEST SWAP3 SWAP2 POP POP JUMP JUMPDEST PUSH1 0x0 PUSH1 0x14 SWAP1 POP SWAP2 SWAP1 POP JUMP JUMPDEST PUSH1 0x0 DUP2 SWAP1 POP SWAP3 SWAP2 POP POP JUMP JUMPDEST PUSH1 0x0 DUP2 SWAP1 POP SWAP2 SWAP1 POP JUMP JUMPDEST PUSH1 0x0 PUSH1 0x14 SWAP1 POP SWAP2 SWAP1 POP JUMP JUMPDEST PUSH1 0x0 DUP2 SWAP1 POP SWAP3 SWAP2 POP POP JUMP JUMPDEST PUSH1 0x0 DUP2 SWAP1 POP SWAP2 SWAP1 POP JUMP JUMPDEST PUSH2 0x758 DUP2 PUSH2 0x6D9 JUMP JUMPDEST DUP3 MSTORE POP POP JUMP JUMPDEST PUSH1 0x0 PUSH2 0x76A DUP4 DUP4 PUSH2 0x74F JUMP JUMPDEST PUSH1 0x20 DUP4 ADD SWAP1 POP SWAP3 SWAP2 POP POP JUMP JUMPDEST PUSH1 0x0 PUSH1 0x20 DUP3 ADD SWAP1 POP SWAP2 SWAP1 POP JUMP JUMPDEST PUSH2 0x78C DUP2 PUSH2 0x72F JUMP JUMPDEST PUSH2 0x796 DUP2 DUP5 PUSH2 0x73A JUMP JUMPDEST SWAP3 POP PUSH2 0x7A1 DUP3 PUSH2 0x745 JUMP JUMPDEST DUP1 PUSH1 0x0 JUMPDEST DUP4 DUP2 LT ISZERO PUSH2 0x7D2 JUMPI DUP2 MLOAD PUSH2 0x7B9 DUP8 DUP3 PUSH2 0x75E JUMP JUMPDEST SWAP7 POP PUSH2 0x7C4 DUP4 PUSH2 0x776 JUMP JUMPDEST SWAP3 POP POP PUSH1 0x1 DUP2 ADD SWAP1 POP PUSH2 0x7A5 JUMP JUMPDEST POP POP POP POP POP POP JUMP JUMPDEST PUSH1 0x0 PUSH2 0x7E6 DUP4 DUP4 PUSH2 0x783 JUMP JUMPDEST PUSH2 0x280 DUP4 ADD SWAP1 POP SWAP3 SWAP2 POP POP JUMP JUMPDEST PUSH1 0x0 PUSH1 0x20 DUP3 ADD SWAP1 POP SWAP2 SWAP1 POP JUMP JUMPDEST PUSH2 0x809 DUP2 PUSH2 0x70F JUMP JUMPDEST PUSH2 0x813 DUP2 DUP5 PUSH2 0x71A JUMP JUMPDEST SWAP3 POP PUSH2 0x81E DUP3 PUSH2 0x725 JUMP JUMPDEST DUP1 PUSH1 0x0 JUMPDEST DUP4 DUP2 LT ISZERO PUSH2 0x84F JUMPI DUP2 MLOAD PUSH2 0x836 DUP8 DUP3 PUSH2 0x7DA JUMP JUMPDEST SWAP7 POP PUSH2 0x841 DUP4 PUSH2 0x7F3 JUMP JUMPDEST SWAP3 POP POP PUSH1 0x1 DUP2 ADD SWAP1 POP PUSH2 0x822 JUMP JUMPDEST POP POP POP POP POP POP JUMP JUMPDEST PUSH1 0x0 PUSH2 0x3200 DUP3 ADD SWAP1 POP PUSH2 0x86D PUSH1 0x0 DUP4 ADD DUP5 PUSH2 0x800 JUMP JUMPDEST SWAP3 SWAP2 POP POP JUMP JUMPDEST PUSH1 0x0 DUP2 SWAP1 POP SWAP2 SWAP1 POP JUMP JUMPDEST PUSH2 0x886 DUP2 PUSH2 0x873 JUMP JUMPDEST DUP2 EQ PUSH2 0x891 JUMPI PUSH1 0x0 DUP1 REVERT JUMPDEST POP JUMP JUMPDEST PUSH1 0x0 DUP2 CALLDATALOAD SWAP1 POP PUSH2 0x8A3 DUP2 PUSH2 0x87D JUMP JUMPDEST SWAP3 SWAP2 POP POP JUMP JUMPDEST PUSH1 0x0 DUP1 PUSH1 0x40 DUP4 DUP6 SUB SLT ISZERO PUSH2 0x8C0 JUMPI PUSH2 0x8BF PUSH2 0x668 JUMP JUMPDEST JUMPDEST PUSH1 0x0 PUSH2 0x8CE DUP6 DUP3 DUP7 ADD PUSH2 0x894 JUMP JUMPDEST SWAP3 POP POP PUSH1 0x20 PUSH2 0x8DF DUP6 DUP3 DUP7 ADD PUSH2 0x894 JUMP JUMPDEST SWAP2 POP POP SWAP3 POP SWAP3 SWAP1 POP JUMP JUMPDEST PUSH1 0x0 PUSH20 0xFFFFFFFFFFFFFFFFFFFFFFFFFFFFFFFFFFFFFFFF DUP3 AND SWAP1 POP SWAP2 SWAP1 POP JUMP JUMPDEST PUSH1 0x0 PUSH2 0x914 DUP3 PUSH2 0x8E9 JUMP JUMPDEST SWAP1 POP SWAP2 SWAP1 POP JUMP JUMPDEST PUSH2 0x924 DUP2 PUSH2 0x909 JUMP JUMPDEST DUP3 MSTORE POP POP JUMP JUMPDEST PUSH1 0x0 PUSH1 0x40 DUP3 ADD SWAP1 POP PUSH2 0x93F PUSH1 0x0 DUP4 ADD DUP6 PUSH2 0x6E5 JUMP JUMPDEST PUSH2 0x94C PUSH1 0x20 DUP4 ADD DUP5 PUSH2 0x91B JUMP JUMPDEST SWAP4 SWAP3 POP POP POP JUMP JUMPDEST PUSH1 0x0 PUSH1 0x20 DUP3 ADD SWAP1 POP PUSH2 0x968 PUSH1 0x0 DUP4 ADD DUP5 PUSH2 0x91B JUMP JUMPDEST SWAP3 SWAP2 POP POP JUMP JUMPDEST PUSH1 0x0 DUP3 DUP3 MSTORE PUSH1 0x20 DUP3 ADD SWAP1 POP SWAP3 SWAP2 POP POP JUMP JUMPDEST PUSH32 0x496E76616C69642074696C6520636F6F7264696E617465730000000000000000 PUSH1 0x0 DUP3 ADD MSTORE POP JUMP JUMPDEST PUSH1 0x0 PUSH2 0x9B5 PUSH1 0x18 DUP4 PUSH2 0x96E JUMP JUMPDEST SWAP2 POP PUSH2 0x9C0 DUP3 PUSH2 0x97F JUMP JUMPDEST PUSH1 0x20 DUP3 ADD SWAP1 POP SWAP2 SWAP1 POP JUMP JUMPDEST PUSH1 0x0 PUSH1 0x20 DUP3 ADD SWAP1 POP DUP2 DUP2 SUB PUSH1 0x0 DUP4 ADD MSTORE PUSH2 0x9E4 DUP2 PUSH2 0x9A8 JUMP JUMPDEST SWAP1 POP SWAP2 SWAP1 POP JUMP JUMPDEST PUSH32 0x4E487B7100000000000000000000000000000000000000000000000000000000 PUSH1 0x0 MSTORE PUSH1 0x32 PUSH1 0x4 MSTORE PUSH1 0x24 PUSH1 0x0 REVERT JUMPDEST PUSH32 0x4E487B7100000000000000000000000000000000000000000000000000000000 PUSH1 0x0 MSTORE PUSH1 0x11 PUSH1 0x4 MSTORE PUSH1 0x24 PUSH1 0x0 REVERT JUMPDEST PUSH1 0x0 PUSH2 0xA54 DUP3 PUSH2 0x631 JUMP JUMPDEST SWAP2 POP PUSH1 0xFF DUP3 SUB PUSH2 0xA67 JUMPI PUSH2 0xA66 PUSH2 0xA1A JUMP JUMPDEST JUMPDEST PUSH1 0x1 DUP3 ADD SWAP1 POP SWAP2 SWAP1 POP JUMP JUMPDEST PUSH32 0x54696C6520697320616C7265616479206F636375706965640000000000000000 PUSH1 0x0 DUP3 ADD MSTORE POP JUMP JUMPDEST PUSH1 0x0 PUSH2 0xAA8 PUSH1 0x18 DUP4 PUSH2 0x96E JUMP JUMPDEST SWAP2 POP PUSH2 0xAB3 DUP3 PUSH2 0xA72 JUMP JUMPDEST PUSH1 0x20 DUP3 ADD SWAP1 POP SWAP2 SWAP1 POP JUMP JUMPDEST PUSH1 0x0 PUSH1 0x20 DUP3 ADD SWAP1 POP DUP2 DUP2 SUB PUSH1 0x0 DUP4 ADD MSTORE PUSH2 0xAD7 DUP2 PUSH2 0xA9B JUMP JUMPDEST SWAP1 POP SWAP2 SWAP1 POP JUMP JUMPDEST PUSH1 0x0 PUSH1 0x80 DUP3 ADD SWAP1 POP PUSH2 0xAF3 PUSH1 0x0 DUP4 ADD DUP8 PUSH2 0x63E JUMP JUMPDEST PUSH2 0xB00 PUSH1 0x20 DUP4 ADD DUP7 PUSH2 0x63E JUMP JUMPDEST PUSH2 0xB0D PUSH1 0x40 DUP4 ADD DUP6 PUSH2 0x6E5 JUMP JUMPDEST PUSH2 0xB1A PUSH1 0x60 DUP4 ADD DUP5 PUSH2 0x91B JUMP JUMPDEST SWAP6 SWAP5 POP POP POP POP POP JUMP INVALID LOG2 PUSH5 0x6970667358 0x22 SLT KECCAK256 0xFC 0x5C SUB 0xB4 0x26 0xDF 0x49 LOG1 0xEC DUP12 0xE9 0x22 SWAP6 GT 0xD2 SELFBALANCE SLOAD PUSH27 0x6C912A0C9EB8173624E245C7BA464736F6C634300081200330000 "
		},
		"gasEstimates": {
			"creation": {
				"codeDepositCost": "581000",
				"executionCost": "613",
				"totalCost": "581613"
			},
			"external": {
				"getAllOccupiedTiles()": "infinite",
				"getTileOccupant(uint8,uint8)": "infinite",
				"isTileOccupied(uint8,uint8)": "infinite",
				"mapSize()": "313",
				"occupyTile(uint8,uint8)": "infinite",
				"tiles(uint256,uint256)": "infinite"
			}
		},
		"methodIdentifiers": {
			"getAllOccupiedTiles()": "8a115f0b",
			"getTileOccupant(uint8,uint8)": "8a888953",
			"isTileOccupied(uint8,uint8)": "2672becb",
			"mapSize()": "1a32ebb6",
			"occupyTile(uint8,uint8)": "f386cf55",
			"tiles(uint256,uint256)": "8a3d7cdc"
		}
	},
	"abi": [
		{
			"anonymous": false,
			"inputs": [
				{
					"indexed": false,
					"internalType": "uint8",
					"name": "x",
					"type": "uint8"
				},
				{
					"indexed": false,
					"internalType": "uint8",
					"name": "y",
					"type": "uint8"
				},
				{
					"indexed": false,
					"internalType": "bool",
					"name": "isOccupied",
					"type": "bool"
				},
				{
					"indexed": false,
					"internalType": "address",
					"name": "occupant",
					"type": "address"
				}
			],
			"name": "TileUpdated",
			"type": "event"
		},
		{
			"inputs": [],
			"name": "getAllOccupiedTiles",
			"outputs": [
				{
					"internalType": "bool[20][20]",
					"name": "",
					"type": "bool[20][20]"
				}
			],
			"stateMutability": "view",
			"type": "function"
		},
		{
			"inputs": [
				{
					"internalType": "uint8",
					"name": "x",
					"type": "uint8"
				},
				{
					"internalType": "uint8",
					"name": "y",
					"type": "uint8"
				}
			],
			"name": "getTileOccupant",
			"outputs": [
				{
					"internalType": "address",
					"name": "",
					"type": "address"
				}
			],
			"stateMutability": "view",
			"type": "function"
		},
		{
			"inputs": [
				{
					"internalType": "uint8",
					"name": "x",
					"type": "uint8"
				},
				{
					"internalType": "uint8",
					"name": "y",
					"type": "uint8"
				}
			],
			"name": "isTileOccupied",
			"outputs": [
				{
					"internalType": "bool",
					"name": "",
					"type": "bool"
				}
			],
			"stateMutability": "view",
			"type": "function"
		},
		{
			"inputs": [],
			"name": "mapSize",
			"outputs": [
				{
					"internalType": "uint8",
					"name": "",
					"type": "uint8"
				}
			],
			"stateMutability": "view",
			"type": "function"
		},
		{
			"inputs": [
				{
					"internalType": "uint8",
					"name": "x",
					"type": "uint8"
				},
				{
					"internalType": "uint8",
					"name": "y",
					"type": "uint8"
				}
			],
			"name": "occupyTile",
			"outputs": [],
			"stateMutability": "nonpayable",
			"type": "function"
		},
		{
			"inputs": [
				{
					"internalType": "uint256",
					"name": "",
					"type": "uint256"
				},
				{
					"internalType": "uint256",
					"name": "",
					"type": "uint256"
				}
			],
			"name": "tiles",
			"outputs": [
				{
					"internalType": "bool",
					"name": "isOccupied",
					"type": "bool"
				},
				{
					"internalType": "address",
					"name": "occupant",
					"type": "address"
				}
			],
			"stateMutability": "view",
			"type": "function"
		}
	]
}