{
	"data": {
		"bytecode": {
			"linkReferences": {},
			"object": "6080604052604051806102800160405280604051806102800160405280600460ff168152602001600460ff168152602001600460ff168152602001600460ff168152602001600460ff168152602001600460ff168152602001600360ff168152602001600360ff168152602001600360ff168152602001600360ff168152602001600360ff168152602001600360ff168152602001600260ff168152602001600260ff168152602001600160ff168152602001600260ff168152602001600260ff168152602001600260ff168152602001600260ff168152602001600260ff168152508152602001604051806102800160405280600460ff168152602001600460ff168152602001600460ff168152602001600460ff168152602001600460ff168152602001600460ff168152602001600460ff168152602001600360ff168152602001600360ff168152602001600360ff168152602001600360ff168152602001600360ff168152602001600260ff168152602001600160ff168152602001600160ff168152602001600260ff168152602001600260ff168152602001600260ff168152602001600260ff168152602001600260ff168152508152602001604051806102800160405280600460ff168152602001600460ff168152602001600460ff168152602001600460ff168152602001600460ff168152602001600460ff168152602001600460ff168152602001600460ff168152602001600360ff168152602001600360ff168152602001600360ff168152602001600360ff168152602001600260ff168152602001600260ff168152602001600160ff168152602001600160ff168152602001600260ff168152602001600260ff168152602001600260ff168152602001600260ff168152508152602001604051806102800160405280600460ff168152602001600460ff168152602001600460ff168152602001600460ff168152602001600460ff168152602001600460ff168152602001600460ff168152602001600460ff168152602001600360ff168152602001600360ff168152602001600360ff168152602001600360ff168152602001600360ff168152602001600160ff168152602001600160ff168152602001600160ff168152602001600260ff168152602001600260ff168152602001600260ff168152602001600260ff168152508152602001604051806102800160405280600360ff168152602001600360ff168152602001600360ff168152602001600360ff168152602001600360ff168152602001600360ff168152602001600360ff168152602001600360ff168152602001600360ff168152602001600360ff168152602001600360ff168152602001600360ff168152602001600160ff168152602001600160ff168152602001600160ff168152602001600160ff168152602001600260ff168152602001600260ff168152602001600260ff168152602001600260ff168152508152602001604051806102800160405280600360ff168152602001600360ff168152602001600360ff168152602001600360ff168152602001600360ff168152602001600360ff168152602001600360ff168152602001600360ff168152602001600360ff168152602001600360ff168152602001600360ff168152602001600360ff168152602001600160ff168152602001600160ff168152602001600160ff168152602001600160ff168152602001600260ff168152602001600260ff168152602001600260ff168152602001600260ff168152508152602001604051806102800160405280600360ff168152602001600360ff168152602001600360ff168152602001600360ff168152602001600360ff168152602001600360ff168152602001600360ff168152602001600360ff168152602001600360ff168152602001600360ff168152602001600360ff168152602001600360ff168152602001600160ff168152602001600160ff168152602001600160ff168152602001600160ff168152602001600160ff168152602001600160ff168152602001600160ff168152602001600160ff168152508152602001604051806102800160405280600360ff168152602001600360ff168152602001600360ff168152602001600160ff168152602001600360ff168152602001600360ff168152602001600360ff168152602001600360ff168152602001600360ff168152602001600360ff168152602001600360ff168152602001600160ff168152602001600260ff168152602001600260ff168152602001600260ff168152602001600260ff168152602001600160ff168152602001600160ff168152602001600160ff168152602001600160ff168152508152602001604051806102800160405280600360ff168152602001600360ff168152602001600360ff168152602001600160ff168152602001600160ff168152602001600260ff168152602001600260ff168152602001600260ff168152602001600260ff168152602001600260ff168152602001600260ff168152602001600160ff168152602001600260ff168152602001600260ff168152602001600260ff168152602001600260ff168152602001600260ff168152602001600260ff168152602001600260ff168152602001600160ff168152508152602001604051806102800160405280600160ff168152602001600260ff168152602001600260ff168152602001600160ff168152602001600260ff168152602001600260ff168152602001600260ff168152602001600260ff168152602001600260ff168152602001600260ff168152602001600260ff168152602001600160ff168152602001600260ff168152602001600260ff168152602001600260ff168152602001600260ff168152602001600260ff168152602001600260ff168152602001600260ff168152602001600160ff168152508152602001604051806102800160405280600260ff168152602001600260ff168152602001600160ff168152602001600160ff168152602001600260ff168152602001600260ff168152602001600260ff168152602001600260ff168152602001600260ff168152602001600260ff168152602001600160ff168152602001600160ff168152602001600260ff168152602001600260ff168152602001600260ff168152602001600260ff168152602001600260ff168152602001600260ff168152602001600160ff168152602001600160ff168152508152602001604051806102800160405280600360ff168152602001600360ff168152602001600360ff168152602001600260ff168152602001600160ff168152602001600260ff168152602001600260ff168152602001600260ff168152602001600260ff168152602001600260ff168152602001600160ff168152602001600260ff168152602001600260ff168152602001600260ff168152602001600260ff168152602001600160ff168152602001600160ff168152602001600160ff168152602001600160ff168152602001600160ff168152508152602001604051806102800160405280600360ff168152602001600360ff168152602001600360ff168152602001600360ff168152602001600160ff168152602001600160ff168152602001600260ff168152602001600260ff168152602001600260ff168152602001600260ff168152602001600160ff168152602001600160ff168152602001600260ff168152602001600260ff168152602001600260ff168152602001600160ff168152602001600160ff168152602001600160ff168152602001600160ff168152602001600160ff168152508152602001604051806102800160405280600360ff168152602001600360ff168152602001600360ff168152602001600360ff168152602001600360ff168152602001600160ff168152602001600260ff168152602001600260ff168152602001600260ff168152602001600260ff168152602001600160ff168152602001600160ff168152602001600160ff168152602001600260ff168152602001600260ff168152602001600260ff168152602001600260ff168152602001600160ff168152602001600160ff168152602001600160ff168152508152602001604051806102800160405280600360ff168152602001600360ff168152602001600360ff168152602001600360ff168152602001600360ff168152602001600260ff168152602001600260ff168152602001600260ff168152602001600360ff168152602001600360ff168152602001600260ff168152602001600260ff168152602001600160ff168152602001600260ff168152602001600260ff168152602001600260ff168152602001600260ff168152602001600160ff168152602001600160ff168152602001600160ff168152508152602001604051806102800160405280600260ff168152602001600260ff168152602001600260ff168152602001600160ff168152602001600160ff168152602001600160ff168152602001600160ff168152602001600160ff168152602001600360ff168152602001600360ff168152602001600360ff168152602001600360ff168152602001600160ff168152602001600160ff168152602001600260ff168152602001600260ff168152602001600260ff168152602001600160ff168152602001600160ff168152602001600160ff168152508152602001604051806102800160405280600260ff168152602001600260ff168152602001600260ff168152602001600260ff168152602001600260ff168152602001600260ff168152602001600160ff168152602001600160ff168152602001600360ff168152602001600360ff168152602001600360ff168152602001600360ff168152602001600160ff168152602001600160ff168152602001600160ff168152602001600160ff168152602001600360ff168152602001600360ff168152602001600260ff168152602001600260ff168152508152602001604051806102800160405280600260ff168152602001600260ff168152602001600260ff168152602001600260ff168152602001600260ff168152602001600260ff168152602001600260ff168152602001600160ff168152602001600360ff168152602001600360ff168152602001600360ff168152602001600360ff168152602001600160ff168152602001600160ff168152602001600160ff168152602001600160ff168152602001600360ff168152602001600360ff168152602001600260ff168152602001600260ff168152508152602001604051806102800160405280600260ff168152602001600260ff168152602001600260ff168152602001600260ff168152602001600260ff168152602001600260ff168152602001600260ff168152602001600160ff168152602001600160ff168152602001600260ff168152602001600260ff168152602001600160ff168152602001600160ff168152602001600260ff168152602001600260ff168152602001600160ff168152602001600360ff168152602001600360ff168152602001600260ff168152602001600260ff168152508152602001604051806102800160405280600260ff168152602001600260ff168152602001600260ff168152602001600260ff168152602001600260ff168152602001600260ff168152602001600260ff168152602001600160ff168152602001600160ff168152602001600160ff168152602001600160ff168152602001600160ff168152602001600160ff168152602001600160ff168152602001600160ff168152602001600360ff168152602001600360ff168152602001600360ff168152602001600260ff168152602001600260ff16815250815250610193906014620010ed929190620011a9565b50348015620010fb57600080fd5b50604051620044c5380380620044c5833981810160405281019062001121919062001357565b336000806101000a81548173ffffffffffffffffffffffffffffffffffffffff021916908373ffffffffffffffffffffffffffffffffffffffff16021790555080600260006101000a81548173ffffffffffffffffffffffffffffffffffffffff021916908373ffffffffffffffffffffffffffffffffffffffff1602179055505062001389565b8260148101928215620011eb579160200282015b82811115620011ea57825182906014620011d9929190620011fe565b5091602001919060010190620011bd565b5b509050620011fa91906200129f565b5090565b826014601f016020900481019282156200128c5791602002820160005b838211156200125b57835183826101000a81548160ff021916908360ff16021790555092602001926001016020816000010492830192600103026200121b565b80156200128a5782816101000a81549060ff02191690556001016020816000010492830192600103026200125b565b505b5090506200129b9190620012c7565b5090565b5b80821115620012c35760008181620012b99190620012e6565b50600101620012a0565b5090565b5b80821115620012e2576000816000905550600101620012c8565b5090565b5060009055565b600080fd5b600073ffffffffffffffffffffffffffffffffffffffff82169050919050565b60006200131f82620012f2565b9050919050565b620013318162001312565b81146200133d57600080fd5b50565b600081519050620013518162001326565b92915050565b60006020828403121562001370576200136f620012ed565b5b6000620013808482850162001340565b91505092915050565b61312c80620013996000396000f3fe608060405234801561001057600080fd5b50600436106101375760003560e01c8063503d4c8d116100b85780638da5cb5b1161007c5780638da5cb5b1461038b578063bc4462de146103a9578063bc9955a2146103c7578063d0ebdbe7146103f7578063d21cacdf14610413578063e62cdc8a1461044357610137565b8063503d4c8d146102d057806362cb4694146102da5780638a115f0b1461030b5780638a3d7cdc146103295780638a8889531461035b57610137565b80632ef761d3116100ff5780632ef761d31461021a578063323fd7b714610236578063481c6a75146102665780634a9fefc71461028457806350328bdd146102b457610137565b80631a32ebb61461013c5780631b64f93d1461015a5780632400a3b01461018a5780632672becb146101ba5780632cfdf9b1146101ea575b600080fd5b61014461045f565b604051610151919061235e565b60405180910390f35b610174600480360381019061016f9190612412565b610464565b6040516101819190612461565b60405180910390f35b6101a4600480360381019061019f919061247c565b6104b3565b6040516101b19190612554565b60405180910390f35b6101d460048036038101906101cf919061259b565b6105f1565b6040516101e191906125f6565b60405180910390f35b61020460048036038101906101ff919061247c565b610698565b60405161021191906125f6565b60405180910390f35b610234600480360381019061022f919061259b565b6106b9565b005b610250600480360381019061024b9190612412565b610f36565b60405161025d919061235e565b60405180910390f35b61026e610f70565b60405161027b9190612461565b60405180910390f35b61029e6004803603810190610299919061247c565b610f96565b6040516102ab9190612461565b60405180910390f35b6102ce60048036038101906102c99190612611565b611000565b005b6102d8611918565b005b6102f460048036038101906102ef919061247c565b611a01565b604051610302929190612722565b60405180910390f35b610313611b37565b604051610320919061289a565b60405180910390f35b610343600480360381019061033e91906128b6565b611c1b565b604051610352939291906128f6565b60405180910390f35b6103756004803603810190610370919061259b565b611c95565b6040516103829190612461565b60405180910390f35b610393611d4f565b6040516103a09190612461565b60405180910390f35b6103b1611d73565b6040516103be9190612461565b60405180910390f35b6103e160048036038101906103dc91906128b6565b611d99565b6040516103ee919061235e565b60405180910390f35b610411600480360381019061040c919061247c565b611dd6565b005b61042d6004803603810190610428919061247c565b611eeb565b60405161043a9190612461565b60405180910390f35b61045d60048036038101906104589190612959565b611f1f565b005b601481565b6101aa602052816000526040600020818154811061048157600080fd5b906000526020600020016000915091509054906101000a900473ffffffffffffffffffffffffffffffffffffffff1681565b6104bb6121a5565b6101a760008373ffffffffffffffffffffffffffffffffffffffff1673ffffffffffffffffffffffffffffffffffffffff16815260200190815260200160002060009054906101000a900460ff16610548576040517f08c379a000000000000000000000000000000000000000000000000000000000815260040161053f90612a2f565b60405180910390fd5b6101a860008373ffffffffffffffffffffffffffffffffffffffff1673ffffffffffffffffffffffffffffffffffffffff1681526020019081526020016000206002806020026040519081016040528092919082600280156105e5576020028201916000905b82829054906101000a900460ff1660ff16815260200190600101906020826000010492830192600103820291508084116105ae5790505b50505050509050919050565b6000601460ff168360ff1610801561060f5750601460ff168260ff16105b61064e576040517f08c379a000000000000000000000000000000000000000000000000000000000815260040161064590612a9b565b60405180910390fd5b60038360ff166014811061066557610664612abb565b5b601402018260ff166014811061067e5761067d612abb565b5b0160000160009054906101000a900460ff16905092915050565b6101a76020528060005260406000206000915054906101000a900460ff1681565b601460ff168260ff161080156106d55750601460ff168160ff16105b610714576040517f08c379a000000000000000000000000000000000000000000000000000000000815260040161070b90612a9b565b60405180910390fd5b60038260ff166014811061072b5761072a612abb565b5b601402018160ff166014811061074457610743612abb565b5b0160000160009054906101000a900460ff16610795576040517f08c379a000000000000000000000000000000000000000000000000000000000815260040161078c90612b36565b60405180910390fd5b60038260ff16601481106107ac576107ab612abb565b5b601402018160ff16601481106107c5576107c4612abb565b5b0160000160159054906101000a900460ff16610816576040517f08c379a000000000000000000000000000000000000000000000000000000000815260040161080d90612ba2565b60405180910390fd5b6101a760003373ffffffffffffffffffffffffffffffffffffffff1673ffffffffffffffffffffffffffffffffffffffff16815260200190815260200160002060009054906101000a900460ff16156108a4576040517f08c379a000000000000000000000000000000000000000000000000000000000815260040161089b90612c0e565b60405180910390fd5b600060038360ff16601481106108bd576108bc612abb565b5b601402018260ff16601481106108d6576108d5612abb565b5b0160000160019054906101000a900473ffffffffffffffffffffffffffffffffffffffff1690503360038460ff166014811061091557610914612abb565b5b601402018360ff166014811061092e5761092d612abb565b5b0160000160016101000a81548173ffffffffffffffffffffffffffffffffffffffff021916908373ffffffffffffffffffffffffffffffffffffffff160217905550600060038460ff166014811061098957610988612abb565b5b601402018360ff16601481106109a2576109a1612abb565b5b0160000160156101000a81548160ff02191690831515021790555060006101aa60008373ffffffffffffffffffffffffffffffffffffffff1673ffffffffffffffffffffffffffffffffffffffff168152602001908152602001600020905060005b8180549050811015610b3f576000828281548110610a2557610a24612abb565b5b9060005260206000200160009054906101000a900473ffffffffffffffffffffffffffffffffffffffff169050336101a960008373ffffffffffffffffffffffffffffffffffffffff1673ffffffffffffffffffffffffffffffffffffffff16815260200190815260200160002060006101000a81548173ffffffffffffffffffffffffffffffffffffffff021916908373ffffffffffffffffffffffffffffffffffffffff1602179055503373ffffffffffffffffffffffffffffffffffffffff168173ffffffffffffffffffffffffffffffffffffffff167fdf63218877cb126f6c003f2b7f77327674cd6a0b53ad51deac392548ec12b0ed60405160405180910390a3508080610b3790612c5d565b915050610a04565b5060006101a960008473ffffffffffffffffffffffffffffffffffffffff1673ffffffffffffffffffffffffffffffffffffffff16815260200190815260200160002060009054906101000a900473ffffffffffffffffffffffffffffffffffffffff169050600073ffffffffffffffffffffffffffffffffffffffff168173ffffffffffffffffffffffffffffffffffffffff1614610cb357806101a960003373ffffffffffffffffffffffffffffffffffffffff1673ffffffffffffffffffffffffffffffffffffffff16815260200190815260200160002060006101000a81548173ffffffffffffffffffffffffffffffffffffffff021916908373ffffffffffffffffffffffffffffffffffffffff1602179055508073ffffffffffffffffffffffffffffffffffffffff163373ffffffffffffffffffffffffffffffffffffffff167fdf63218877cb126f6c003f2b7f77327674cd6a0b53ad51deac392548ec12b0ed60405160405180910390a35b816101aa60003373ffffffffffffffffffffffffffffffffffffffff1673ffffffffffffffffffffffffffffffffffffffff168152602001908152602001600020908054610d029291906121c7565b506101aa60008473ffffffffffffffffffffffffffffffffffffffff1673ffffffffffffffffffffffffffffffffffffffff1681526020019081526020016000206000610d4f9190612219565b60006101a960008573ffffffffffffffffffffffffffffffffffffffff1673ffffffffffffffffffffffffffffffffffffffff16815260200190815260200160002060006101000a81548173ffffffffffffffffffffffffffffffffffffffff021916908373ffffffffffffffffffffffffffffffffffffffff16021790555060016101a760003373ffffffffffffffffffffffffffffffffffffffff1673ffffffffffffffffffffffffffffffffffffffff16815260200190815260200160002060006101000a81548160ff02191690831515021790555060006101a760008573ffffffffffffffffffffffffffffffffffffffff1673ffffffffffffffffffffffffffffffffffffffff16815260200190815260200160002060006101000a81548160ff02191690831515021790555060405180604001604052808660ff1660ff1681526020018560ff1660ff168152506101a860003373ffffffffffffffffffffffffffffffffffffffff1673ffffffffffffffffffffffffffffffffffffffff168152602001908152602001600020906002610ef092919061223a565b507f19c0182f0d6040e7f43aa17e1c6584130bdbc8da2e4ac4d2050593808b77a7718585600133604051610f279493929190612ca5565b60405180910390a15050505050565b6101a86020528160005260406000208160028110610f5357600080fd5b60209182820401919006915091509054906101000a900460ff1681565b600160009054906101000a900473ffffffffffffffffffffffffffffffffffffffff1681565b60006101a960008373ffffffffffffffffffffffffffffffffffffffff1673ffffffffffffffffffffffffffffffffffffffff16815260200190815260200160002060009054906101000a900473ffffffffffffffffffffffffffffffffffffffff169050919050565b601460ff168360ff1610801561101c5750601460ff168260ff16105b61105b576040517f08c379a000000000000000000000000000000000000000000000000000000000815260040161105290612a9b565b60405180910390fd5b60038360ff166014811061107257611071612abb565b5b601402018260ff166014811061108b5761108a612abb565b5b0160000160009054906101000a900460ff16156110dd576040517f08c379a00000000000000000000000000000000000000000000000000000000081526004016110d490612d36565b60405180910390fd5b6101a760003373ffffffffffffffffffffffffffffffffffffffff1673ffffffffffffffffffffffffffffffffffffffff16815260200190815260200160002060009054906101000a900460ff161561116b576040517f08c379a000000000000000000000000000000000000000000000000000000000815260040161116290612da2565b60405180910390fd5b600073ffffffffffffffffffffffffffffffffffffffff168173ffffffffffffffffffffffffffffffffffffffff160361140757600073ffffffffffffffffffffffffffffffffffffffff166101a960003373ffffffffffffffffffffffffffffffffffffffff1673ffffffffffffffffffffffffffffffffffffffff16815260200190815260200160002060009054906101000a900473ffffffffffffffffffffffffffffffffffffffff1673ffffffffffffffffffffffffffffffffffffffff161461126e576040517f08c379a000000000000000000000000000000000000000000000000000000000815260040161126590612e0e565b60405180910390fd5b600073b17d9315f2be27e5a1d897412bf5a6c3949449a49050806101a960003373ffffffffffffffffffffffffffffffffffffffff1673ffffffffffffffffffffffffffffffffffffffff16815260200190815260200160002060006101000a81548173ffffffffffffffffffffffffffffffffffffffff021916908373ffffffffffffffffffffffffffffffffffffffff1602179055506101aa60008273ffffffffffffffffffffffffffffffffffffffff1673ffffffffffffffffffffffffffffffffffffffff168152602001908152602001600020339080600181540180825580915050600190039060005260206000200160009091909190916101000a81548173ffffffffffffffffffffffffffffffffffffffff021916908373ffffffffffffffffffffffffffffffffffffffff1602179055508073ffffffffffffffffffffffffffffffffffffffff163373ffffffffffffffffffffffffffffffffffffffff167fdf63218877cb126f6c003f2b7f77327674cd6a0b53ad51deac392548ec12b0ed60405160405180910390a35061174c565b600073ffffffffffffffffffffffffffffffffffffffff166101a960003373ffffffffffffffffffffffffffffffffffffffff1673ffffffffffffffffffffffffffffffffffffffff16815260200190815260200160002060009054906101000a900473ffffffffffffffffffffffffffffffffffffffff1673ffffffffffffffffffffffffffffffffffffffff16146114d6576040517f08c379a00000000000000000000000000000000000000000000000000000000081526004016114cd90612e0e565b60405180910390fd5b3373ffffffffffffffffffffffffffffffffffffffff168173ffffffffffffffffffffffffffffffffffffffff1603611544576040517f08c379a000000000000000000000000000000000000000000000000000000000815260040161153b90612e7a565b60405180910390fd5b6101a760008273ffffffffffffffffffffffffffffffffffffffff1673ffffffffffffffffffffffffffffffffffffffff16815260200190815260200160002060009054906101000a900460ff166115d1576040517f08c379a00000000000000000000000000000000000000000000000000000000081526004016115c890612f0c565b60405180910390fd5b806101a960003373ffffffffffffffffffffffffffffffffffffffff1673ffffffffffffffffffffffffffffffffffffffff16815260200190815260200160002060006101000a81548173ffffffffffffffffffffffffffffffffffffffff021916908373ffffffffffffffffffffffffffffffffffffffff1602179055506101aa60008273ffffffffffffffffffffffffffffffffffffffff1673ffffffffffffffffffffffffffffffffffffffff168152602001908152602001600020339080600181540180825580915050600190039060005260206000200160009091909190916101000a81548173ffffffffffffffffffffffffffffffffffffffff021916908373ffffffffffffffffffffffffffffffffffffffff1602179055508073ffffffffffffffffffffffffffffffffffffffff163373ffffffffffffffffffffffffffffffffffffffff167fdf63218877cb126f6c003f2b7f77327674cd6a0b53ad51deac392548ec12b0ed60405160405180910390a35b600160038460ff166014811061176557611764612abb565b5b601402018360ff166014811061177e5761177d612abb565b5b0160000160006101000a81548160ff0219169083151502179055503360038460ff16601481106117b1576117b0612abb565b5b601402018360ff16601481106117ca576117c9612abb565b5b0160000160016101000a81548173ffffffffffffffffffffffffffffffffffffffff021916908373ffffffffffffffffffffffffffffffffffffffff16021790555060016101a760003373ffffffffffffffffffffffffffffffffffffffff1673ffffffffffffffffffffffffffffffffffffffff16815260200190815260200160002060006101000a81548160ff02191690831515021790555060405180604001604052808460ff1660ff1681526020018360ff1660ff168152506101a860003373ffffffffffffffffffffffffffffffffffffffff1673ffffffffffffffffffffffffffffffffffffffff1681526020019081526020016000209060026118d492919061223a565b507f19c0182f0d6040e7f43aa17e1c6584130bdbc8da2e4ac4d2050593808b77a771838360013360405161190b9493929190612ca5565b60405180910390a1505050565b600260009054906101000a900473ffffffffffffffffffffffffffffffffffffffff1673ffffffffffffffffffffffffffffffffffffffff163373ffffffffffffffffffffffffffffffffffffffff16146119a8576040517f08c379a000000000000000000000000000000000000000000000000000000000815260040161199f90612f78565b60405180910390fd5b60001515600260149054906101000a900460ff161515036119e3576001600260146101000a81548160ff0219169083151502179055506119ff565b6000600260146101000a81548160ff0219169083151502179055505b565b600060606101a960008473ffffffffffffffffffffffffffffffffffffffff1673ffffffffffffffffffffffffffffffffffffffff16815260200190815260200160002060009054906101000a900473ffffffffffffffffffffffffffffffffffffffff166101aa60008573ffffffffffffffffffffffffffffffffffffffff1673ffffffffffffffffffffffffffffffffffffffff16815260200190815260200160002080805480602002602001604051908101604052809291908181526020018280548015611b2757602002820191906000526020600020905b8160009054906101000a900473ffffffffffffffffffffffffffffffffffffffff1673ffffffffffffffffffffffffffffffffffffffff1681526020019060010190808311611add575b5050505050905091509150915091565b611b3f6122d4565b611b476122d4565b60005b601460ff168160ff161015611c135760005b601460ff168160ff161015611bff5760038260ff1660148110611b8257611b81612abb565b5b601402018160ff1660148110611b9b57611b9a612abb565b5b0160000160009054906101000a900460ff16838360ff1660148110611bc357611bc2612abb565b5b60200201518260ff1660148110611bdd57611bdc612abb565b5b6020020190151590811515815250508080611bf790612f98565b915050611b5c565b508080611c0b90612f98565b915050611b4a565b508091505090565b60038260148110611c2b57600080fd5b601402018160148110611c3d57600080fd5b01600091509150508060000160009054906101000a900460ff16908060000160019054906101000a900473ffffffffffffffffffffffffffffffffffffffff16908060000160159054906101000a900460ff16905083565b6000601460ff168360ff16108015611cb35750601460ff168260ff16105b611cf2576040517f08c379a0000000000000000000000000000000000000000000000000000000008152600401611ce990612a9b565b60405180910390fd5b60038360ff1660148110611d0957611d08612abb565b5b601402018260ff1660148110611d2257611d21612abb565b5b0160000160019054906101000a900473ffffffffffffffffffffffffffffffffffffffff16905092915050565b60008054906101000a900473ffffffffffffffffffffffffffffffffffffffff1681565b600260009054906101000a900473ffffffffffffffffffffffffffffffffffffffff1681565b6101938260148110611daa57600080fd5b018160148110611db957600080fd5b60209182820401919006915091509054906101000a900460ff1681565b60008054906101000a900473ffffffffffffffffffffffffffffffffffffffff1673ffffffffffffffffffffffffffffffffffffffff163373ffffffffffffffffffffffffffffffffffffffff1614611e64576040517f08c379a0000000000000000000000000000000000000000000000000000000008152600401611e5b9061300d565b60405180910390fd5b80600160006101000a81548173ffffffffffffffffffffffffffffffffffffffff021916908373ffffffffffffffffffffffffffffffffffffffff1602179055508073ffffffffffffffffffffffffffffffffffffffff167f60a0f5b9f9e81e98216071b85826681c796256fe3d1354ecb675580fba64fa6960405160405180910390a250565b6101a96020528060005260406000206000915054906101000a900473ffffffffffffffffffffffffffffffffffffffff1681565b8282600160009054906101000a900473ffffffffffffffffffffffffffffffffffffffff1673ffffffffffffffffffffffffffffffffffffffff163373ffffffffffffffffffffffffffffffffffffffff161480611ffc575060038260ff1660148110611f8f57611f8e612abb565b5b601402018160ff1660148110611fa857611fa7612abb565b5b0160000160019054906101000a900473ffffffffffffffffffffffffffffffffffffffff1673ffffffffffffffffffffffffffffffffffffffff163373ffffffffffffffffffffffffffffffffffffffff16145b61203b576040517f08c379a00000000000000000000000000000000000000000000000000000000081526004016120329061309f565b60405180910390fd5b601460ff168560ff161080156120575750601460ff168460ff16105b612096576040517f08c379a000000000000000000000000000000000000000000000000000000000815260040161208d90612a9b565b60405180910390fd5b60038560ff16601481106120ad576120ac612abb565b5b601402018460ff16601481106120c6576120c5612abb565b5b0160000160009054906101000a900460ff16612117576040517f08c379a000000000000000000000000000000000000000000000000000000000815260040161210e90612b36565b60405180910390fd5b8260038660ff166014811061212f5761212e612abb565b5b601402018560ff166014811061214857612147612abb565b5b0160000160156101000a81548160ff0219169083151502179055507f057fde9860f0e368e5c97a86bd3dd0da476b8d38b86e0493dc933bcad975a44d858585604051612196939291906130bf565b60405180910390a15050505050565b6040518060400160405280600290602082028036833780820191505090505090565b8280548282559060005260206000209081019282156122085760005260206000209182015b828111156122075782548255916001019190600101906121ec565b5b5090506122159190612302565b5090565b50805460008255906000526020600020908101906122379190612302565b50565b826002601f016020900481019282156122c35791602002820160005b8382111561229457835183826101000a81548160ff021916908360ff1602179055509260200192600101602081600001049283019260010302612256565b80156122c15782816101000a81549060ff0219169055600101602081600001049283019260010302612294565b505b5090506122d09190612302565b5090565b6040518061028001604052806014905b6122ec61231f565b8152602001906001900390816122e45790505090565b5b8082111561231b576000816000905550600101612303565b5090565b604051806102800160405280601490602082028036833780820191505090505090565b600060ff82169050919050565b61235881612342565b82525050565b6000602082019050612373600083018461234f565b92915050565b600080fd5b600073ffffffffffffffffffffffffffffffffffffffff82169050919050565b60006123a98261237e565b9050919050565b6123b98161239e565b81146123c457600080fd5b50565b6000813590506123d6816123b0565b92915050565b6000819050919050565b6123ef816123dc565b81146123fa57600080fd5b50565b60008135905061240c816123e6565b92915050565b6000806040838503121561242957612428612379565b5b6000612437858286016123c7565b9250506020612448858286016123fd565b9150509250929050565b61245b8161239e565b82525050565b60006020820190506124766000830184612452565b92915050565b60006020828403121561249257612491612379565b5b60006124a0848285016123c7565b91505092915050565b600060029050919050565b600081905092915050565b6000819050919050565b6124d281612342565b82525050565b60006124e483836124c9565b60208301905092915050565b6000602082019050919050565b612506816124a9565b61251081846124b4565b925061251b826124bf565b8060005b8381101561254c57815161253387826124d8565b965061253e836124f0565b92505060018101905061251f565b505050505050565b600060408201905061256960008301846124fd565b92915050565b61257881612342565b811461258357600080fd5b50565b6000813590506125958161256f565b92915050565b600080604083850312156125b2576125b1612379565b5b60006125c085828601612586565b92505060206125d185828601612586565b9150509250929050565b60008115159050919050565b6125f0816125db565b82525050565b600060208201905061260b60008301846125e7565b92915050565b60008060006060848603121561262a57612629612379565b5b600061263886828701612586565b935050602061264986828701612586565b925050604061265a868287016123c7565b9150509250925092565b600081519050919050565b600082825260208201905092915050565b6000819050602082019050919050565b6126998161239e565b82525050565b60006126ab8383612690565b60208301905092915050565b6000602082019050919050565b60006126cf82612664565b6126d9818561266f565b93506126e483612680565b8060005b838110156127155781516126fc888261269f565b9750612707836126b7565b9250506001810190506126e8565b5085935050505092915050565b60006040820190506127376000830185612452565b818103602083015261274981846126c4565b90509392505050565b600060149050919050565b600081905092915050565b6000819050919050565b600060149050919050565b600081905092915050565b6000819050919050565b61279b816125db565b82525050565b60006127ad8383612792565b60208301905092915050565b6000602082019050919050565b6127cf81612772565b6127d9818461277d565b92506127e482612788565b8060005b838110156128155781516127fc87826127a1565b9650612807836127b9565b9250506001810190506127e8565b505050505050565b600061282983836127c6565b6102808301905092915050565b6000602082019050919050565b61284c81612752565b612856818461275d565b925061286182612768565b8060005b83811015612892578151612879878261281d565b965061288483612836565b925050600181019050612865565b505050505050565b6000613200820190506128b06000830184612843565b92915050565b600080604083850312156128cd576128cc612379565b5b60006128db858286016123fd565b92505060206128ec858286016123fd565b9150509250929050565b600060608201905061290b60008301866125e7565b6129186020830185612452565b61292560408301846125e7565b949350505050565b612936816125db565b811461294157600080fd5b50565b6000813590506129538161292d565b92915050565b60008060006060848603121561297257612971612379565b5b600061298086828701612586565b935050602061299186828701612586565b92505060406129a286828701612944565b9150509250925092565b600082825260208201905092915050565b7f54686973206164647265737320686173206e6f74206f6363757069656420612060008201527f74696c6500000000000000000000000000000000000000000000000000000000602082015250565b6000612a196024836129ac565b9150612a24826129bd565b604082019050919050565b60006020820190508181036000830152612a4881612a0c565b9050919050565b7f496e76616c69642074696c6520636f6f7264696e617465730000000000000000600082015250565b6000612a856018836129ac565b9150612a9082612a4f565b602082019050919050565b60006020820190508181036000830152612ab481612a78565b9050919050565b7f4e487b7100000000000000000000000000000000000000000000000000000000600052603260045260246000fd5b7f54696c65206973206e6f74206f63637570696564000000000000000000000000600082015250565b6000612b206014836129ac565b9150612b2b82612aea565b602082019050919050565b60006020820190508181036000830152612b4f81612b13565b9050919050565b7f54696c65206973206e6f74206f6e2073616c6500000000000000000000000000600082015250565b6000612b8c6013836129ac565b9150612b9782612b56565b602082019050919050565b60006020820190508181036000830152612bbb81612b7f565b9050919050565b7f596f7520616c7265616479206f636375707920612074696c6500000000000000600082015250565b6000612bf86019836129ac565b9150612c0382612bc2565b602082019050919050565b60006020820190508181036000830152612c2781612beb565b9050919050565b7f4e487b7100000000000000000000000000000000000000000000000000000000600052601160045260246000fd5b6000612c68826123dc565b91507fffffffffffffffffffffffffffffffffffffffffffffffffffffffffffffffff8203612c9a57612c99612c2e565b5b600182019050919050565b6000608082019050612cba600083018761234f565b612cc7602083018661234f565b612cd460408301856125e7565b612ce16060830184612452565b95945050505050565b7f54696c6520697320616c7265616479206f636375706965640000000000000000600082015250565b6000612d206018836129ac565b9150612d2b82612cea565b602082019050919050565b60006020820190508181036000830152612d4f81612d13565b9050919050565b7f596f75206861766520616c7265616479206f6363757069656420612074696c65600082015250565b6000612d8c6020836129ac565b9150612d9782612d56565b602082019050919050565b60006020820190508181036000830152612dbb81612d7f565b9050919050565b7f416c726561647920686173206120526566657272657200000000000000000000600082015250565b6000612df86016836129ac565b9150612e0382612dc2565b602082019050919050565b60006020820190508181036000830152612e2781612deb565b9050919050565b7f52656665727265722063616e206e6f742062652073656c660000000000000000600082015250565b6000612e646018836129ac565b9150612e6f82612e2e565b602082019050919050565b60006020820190508181036000830152612e9381612e57565b9050919050565b7f5265666572726572206d757374206861766520616e206f63637570696564207460008201527f696c650000000000000000000000000000000000000000000000000000000000602082015250565b6000612ef66023836129ac565b9150612f0182612e9a565b604082019050919050565b60006020820190508181036000830152612f2581612ee9565b9050919050565b7f43616c6c6572206973206e6f7420746865207377697463686572000000000000600082015250565b6000612f62601a836129ac565b9150612f6d82612f2c565b602082019050919050565b60006020820190508181036000830152612f9181612f55565b9050919050565b6000612fa382612342565b915060ff8203612fb657612fb5612c2e565b5b600182019050919050565b7f43616c6c6572206973206e6f7420746865206f776e6572000000000000000000600082015250565b6000612ff76017836129ac565b915061300282612fc1565b602082019050919050565b6000602082019050818103600083015261302681612fea565b9050919050565b7f43616c6c6572206973206e6f7420746865206d616e61676572206f72206f636360008201527f7570616e74000000000000000000000000000000000000000000000000000000602082015250565b60006130896025836129ac565b91506130948261302d565b604082019050919050565b600060208201905081810360008301526130b88161307c565b9050919050565b60006060820190506130d4600083018661234f565b6130e1602083018561234f565b6130ee60408301846125e7565b94935050505056fea26469706673582212201aa354b6c3e25cc2cca3bfebad189adcfc982326391cdf3ffa9296f96fe1651d64736f6c63430008120033",
			"opcodes": "PUSH1 0x80 PUSH1 0x40 MSTORE PUSH1 0x40 MLOAD DUP1 PUSH2 0x280 ADD PUSH1 0x40 MSTORE DUP1 PUSH1 0x40 MLOAD DUP1 PUSH2 0x280 ADD PUSH1 0x40 MSTORE DUP1 PUSH1 0x4 PUSH1 0xFF AND DUP2 MSTORE PUSH1 0x20 ADD PUSH1 0x4 PUSH1 0xFF AND DUP2 MSTORE PUSH1 0x20 ADD PUSH1 0x4 PUSH1 0xFF AND DUP2 MSTORE PUSH1 0x20 ADD PUSH1 0x4 PUSH1 0xFF AND DUP2 MSTORE PUSH1 0x20 ADD PUSH1 0x4 PUSH1 0xFF AND DUP2 MSTORE PUSH1 0x20 ADD PUSH1 0x4 PUSH1 0xFF AND DUP2 MSTORE PUSH1 0x20 ADD PUSH1 0x3 PUSH1 0xFF AND DUP2 MSTORE PUSH1 0x20 ADD PUSH1 0x3 PUSH1 0xFF AND DUP2 MSTORE PUSH1 0x20 ADD PUSH1 0x3 PUSH1 0xFF AND DUP2 MSTORE PUSH1 0x20 ADD PUSH1 0x3 PUSH1 0xFF AND DUP2 MSTORE PUSH1 0x20 ADD PUSH1 0x3 PUSH1 0xFF AND DUP2 MSTORE PUSH1 0x20 ADD PUSH1 0x3 PUSH1 0xFF AND DUP2 MSTORE PUSH1 0x20 ADD PUSH1 0x2 PUSH1 0xFF AND DUP2 MSTORE PUSH1 0x20 ADD PUSH1 0x2 PUSH1 0xFF AND DUP2 MSTORE PUSH1 0x20 ADD PUSH1 0x1 PUSH1 0xFF AND DUP2 MSTORE PUSH1 0x20 ADD PUSH1 0x2 PUSH1 0xFF AND DUP2 MSTORE PUSH1 0x20 ADD PUSH1 0x2 PUSH1 0xFF AND DUP2 MSTORE PUSH1 0x20 ADD PUSH1 0x2 PUSH1 0xFF AND DUP2 MSTORE PUSH1 0x20 ADD PUSH1 0x2 PUSH1 0xFF AND DUP2 MSTORE PUSH1 0x20 ADD PUSH1 0x2 PUSH1 0xFF AND DUP2 MSTORE POP DUP2 MSTORE PUSH1 0x20 ADD PUSH1 0x40 MLOAD DUP1 PUSH2 0x280 ADD PUSH1 0x40 MSTORE DUP1 PUSH1 0x4 PUSH1 0xFF AND DUP2 MSTORE PUSH1 0x20 ADD PUSH1 0x4 PUSH1 0xFF AND DUP2 MSTORE PUSH1 0x20 ADD PUSH1 0x4 PUSH1 0xFF AND DUP2 MSTORE PUSH1 0x20 ADD PUSH1 0x4 PUSH1 0xFF AND DUP2 MSTORE PUSH1 0x20 ADD PUSH1 0x4 PUSH1 0xFF AND DUP2 MSTORE PUSH1 0x20 ADD PUSH1 0x4 PUSH1 0xFF AND DUP2 MSTORE PUSH1 0x20 ADD PUSH1 0x4 PUSH1 0xFF AND DUP2 MSTORE PUSH1 0x20 ADD PUSH1 0x3 PUSH1 0xFF AND DUP2 MSTORE PUSH1 0x20 ADD PUSH1 0x3 PUSH1 0xFF AND DUP2 MSTORE PUSH1 0x20 ADD PUSH1 0x3 PUSH1 0xFF AND DUP2 MSTORE PUSH1 0x20 ADD PUSH1 0x3 PUSH1 0xFF AND DUP2 MSTORE PUSH1 0x20 ADD PUSH1 0x3 PUSH1 0xFF AND DUP2 MSTORE PUSH1 0x20 ADD PUSH1 0x2 PUSH1 0xFF AND DUP2 MSTORE PUSH1 0x20 ADD PUSH1 0x1 PUSH1 0xFF AND DUP2 MSTORE PUSH1 0x20 ADD PUSH1 0x1 PUSH1 0xFF AND DUP2 MSTORE PUSH1 0x20 ADD PUSH1 0x2 PUSH1 0xFF AND DUP2 MSTORE PUSH1 0x20 ADD PUSH1 0x2 PUSH1 0xFF AND DUP2 MSTORE PUSH1 0x20 ADD PUSH1 0x2 PUSH1 0xFF AND DUP2 MSTORE PUSH1 0x20 ADD PUSH1 0x2 PUSH1 0xFF AND DUP2 MSTORE PUSH1 0x20 ADD PUSH1 0x2 PUSH1 0xFF AND DUP2 MSTORE POP DUP2 MSTORE PUSH1 0x20 ADD PUSH1 0x40 MLOAD DUP1 PUSH2 0x280 ADD PUSH1 0x40 MSTORE DUP1 PUSH1 0x4 PUSH1 0xFF AND DUP2 MSTORE PUSH1 0x20 ADD PUSH1 0x4 PUSH1 0xFF AND DUP2 MSTORE PUSH1 0x20 ADD PUSH1 0x4 PUSH1 0xFF AND DUP2 MSTORE PUSH1 0x20 ADD PUSH1 0x4 PUSH1 0xFF AND DUP2 MSTORE PUSH1 0x20 ADD PUSH1 0x4 PUSH1 0xFF AND DUP2 MSTORE PUSH1 0x20 ADD PUSH1 0x4 PUSH1 0xFF AND DUP2 MSTORE PUSH1 0x20 ADD PUSH1 0x4 PUSH1 0xFF AND DUP2 MSTORE PUSH1 0x20 ADD PUSH1 0x4 PUSH1 0xFF AND DUP2 MSTORE PUSH1 0x20 ADD PUSH1 0x3 PUSH1 0xFF AND DUP2 MSTORE PUSH1 0x20 ADD PUSH1 0x3 PUSH1 0xFF AND DUP2 MSTORE PUSH1 0x20 ADD PUSH1 0x3 PUSH1 0xFF AND DUP2 MSTORE PUSH1 0x20 ADD PUSH1 0x3 PUSH1 0xFF AND DUP2 MSTORE PUSH1 0x20 ADD PUSH1 0x2 PUSH1 0xFF AND DUP2 MSTORE PUSH1 0x20 ADD PUSH1 0x2 PUSH1 0xFF AND DUP2 MSTORE PUSH1 0x20 ADD PUSH1 0x1 PUSH1 0xFF AND DUP2 MSTORE PUSH1 0x20 ADD PUSH1 0x1 PUSH1 0xFF AND DUP2 MSTORE PUSH1 0x20 ADD PUSH1 0x2 PUSH1 0xFF AND DUP2 MSTORE PUSH1 0x20 ADD PUSH1 0x2 PUSH1 0xFF AND DUP2 MSTORE PUSH1 0x20 ADD PUSH1 0x2 PUSH1 0xFF AND DUP2 MSTORE PUSH1 0x20 ADD PUSH1 0x2 PUSH1 0xFF AND DUP2 MSTORE POP DUP2 MSTORE PUSH1 0x20 ADD PUSH1 0x40 MLOAD DUP1 PUSH2 0x280 ADD PUSH1 0x40 MSTORE DUP1 PUSH1 0x4 PUSH1 0xFF AND DUP2 MSTORE PUSH1 0x20 ADD PUSH1 0x4 PUSH1 0xFF AND DUP2 MSTORE PUSH1 0x20 ADD PUSH1 0x4 PUSH1 0xFF AND DUP2 MSTORE PUSH1 0x20 ADD PUSH1 0x4 PUSH1 0xFF AND DUP2 MSTORE PUSH1 0x20 ADD PUSH1 0x4 PUSH1 0xFF AND DUP2 MSTORE PUSH1 0x20 ADD PUSH1 0x4 PUSH1 0xFF AND DUP2 MSTORE PUSH1 0x20 ADD PUSH1 0x4 PUSH1 0xFF AND DUP2 MSTORE PUSH1 0x20 ADD PUSH1 0x4 PUSH1 0xFF AND DUP2 MSTORE PUSH1 0x20 ADD PUSH1 0x3 PUSH1 0xFF AND DUP2 MSTORE PUSH1 0x20 ADD PUSH1 0x3 PUSH1 0xFF AND DUP2 MSTORE PUSH1 0x20 ADD PUSH1 0x3 PUSH1 0xFF AND DUP2 MSTORE PUSH1 0x20 ADD PUSH1 0x3 PUSH1 0xFF AND DUP2 MSTORE PUSH1 0x20 ADD PUSH1 0x3 PUSH1 0xFF AND DUP2 MSTORE PUSH1 0x20 ADD PUSH1 0x1 PUSH1 0xFF AND DUP2 MSTORE PUSH1 0x20 ADD PUSH1 0x1 PUSH1 0xFF AND DUP2 MSTORE PUSH1 0x20 ADD PUSH1 0x1 PUSH1 0xFF AND DUP2 MSTORE PUSH1 0x20 ADD PUSH1 0x2 PUSH1 0xFF AND DUP2 MSTORE PUSH1 0x20 ADD PUSH1 0x2 PUSH1 0xFF AND DUP2 MSTORE PUSH1 0x20 ADD PUSH1 0x2 PUSH1 0xFF AND DUP2 MSTORE PUSH1 0x20 ADD PUSH1 0x2 PUSH1 0xFF AND DUP2 MSTORE POP DUP2 MSTORE PUSH1 0x20 ADD PUSH1 0x40 MLOAD DUP1 PUSH2 0x280 ADD PUSH1 0x40 MSTORE DUP1 PUSH1 0x3 PUSH1 0xFF AND DUP2 MSTORE PUSH1 0x20 ADD PUSH1 0x3 PUSH1 0xFF AND DUP2 MSTORE PUSH1 0x20 ADD PUSH1 0x3 PUSH1 0xFF AND DUP2 MSTORE PUSH1 0x20 ADD PUSH1 0x3 PUSH1 0xFF AND DUP2 MSTORE PUSH1 0x20 ADD PUSH1 0x3 PUSH1 0xFF AND DUP2 MSTORE PUSH1 0x20 ADD PUSH1 0x3 PUSH1 0xFF AND DUP2 MSTORE PUSH1 0x20 ADD PUSH1 0x3 PUSH1 0xFF AND DUP2 MSTORE PUSH1 0x20 ADD PUSH1 0x3 PUSH1 0xFF AND DUP2 MSTORE PUSH1 0x20 ADD PUSH1 0x3 PUSH1 0xFF AND DUP2 MSTORE PUSH1 0x20 ADD PUSH1 0x3 PUSH1 0xFF AND DUP2 MSTORE PUSH1 0x20 ADD PUSH1 0x3 PUSH1 0xFF AND DUP2 MSTORE PUSH1 0x20 ADD PUSH1 0x3 PUSH1 0xFF AND DUP2 MSTORE PUSH1 0x20 ADD PUSH1 0x1 PUSH1 0xFF AND DUP2 MSTORE PUSH1 0x20 ADD PUSH1 0x1 PUSH1 0xFF AND DUP2 MSTORE PUSH1 0x20 ADD PUSH1 0x1 PUSH1 0xFF AND DUP2 MSTORE PUSH1 0x20 ADD PUSH1 0x1 PUSH1 0xFF AND DUP2 MSTORE PUSH1 0x20 ADD PUSH1 0x2 PUSH1 0xFF AND DUP2 MSTORE PUSH1 0x20 ADD PUSH1 0x2 PUSH1 0xFF AND DUP2 MSTORE PUSH1 0x20 ADD PUSH1 0x2 PUSH1 0xFF AND DUP2 MSTORE PUSH1 0x20 ADD PUSH1 0x2 PUSH1 0xFF AND DUP2 MSTORE POP DUP2 MSTORE PUSH1 0x20 ADD PUSH1 0x40 MLOAD DUP1 PUSH2 0x280 ADD PUSH1 0x40 MSTORE DUP1 PUSH1 0x3 PUSH1 0xFF AND DUP2 MSTORE PUSH1 0x20 ADD PUSH1 0x3 PUSH1 0xFF AND DUP2 MSTORE PUSH1 0x20 ADD PUSH1 0x3 PUSH1 0xFF AND DUP2 MSTORE PUSH1 0x20 ADD PUSH1 0x3 PUSH1 0xFF AND DUP2 MSTORE PUSH1 0x20 ADD PUSH1 0x3 PUSH1 0xFF AND DUP2 MSTORE PUSH1 0x20 ADD PUSH1 0x3 PUSH1 0xFF AND DUP2 MSTORE PUSH1 0x20 ADD PUSH1 0x3 PUSH1 0xFF AND DUP2 MSTORE PUSH1 0x20 ADD PUSH1 0x3 PUSH1 0xFF AND DUP2 MSTORE PUSH1 0x20 ADD PUSH1 0x3 PUSH1 0xFF AND DUP2 MSTORE PUSH1 0x20 ADD PUSH1 0x3 PUSH1 0xFF AND DUP2 MSTORE PUSH1 0x20 ADD PUSH1 0x3 PUSH1 0xFF AND DUP2 MSTORE PUSH1 0x20 ADD PUSH1 0x3 PUSH1 0xFF AND DUP2 MSTORE PUSH1 0x20 ADD PUSH1 0x1 PUSH1 0xFF AND DUP2 MSTORE PUSH1 0x20 ADD PUSH1 0x1 PUSH1 0xFF AND DUP2 MSTORE PUSH1 0x20 ADD PUSH1 0x1 PUSH1 0xFF AND DUP2 MSTORE PUSH1 0x20 ADD PUSH1 0x1 PUSH1 0xFF AND DUP2 MSTORE PUSH1 0x20 ADD PUSH1 0x2 PUSH1 0xFF AND DUP2 MSTORE PUSH1 0x20 ADD PUSH1 0x2 PUSH1 0xFF AND DUP2 MSTORE PUSH1 0x20 ADD PUSH1 0x2 PUSH1 0xFF AND DUP2 MSTORE PUSH1 0x20 ADD PUSH1 0x2 PUSH1 0xFF AND DUP2 MSTORE POP DUP2 MSTORE PUSH1 0x20 ADD PUSH1 0x40 MLOAD DUP1 PUSH2 0x280 ADD PUSH1 0x40 MSTORE DUP1 PUSH1 0x3 PUSH1 0xFF AND DUP2 MSTORE PUSH1 0x20 ADD PUSH1 0x3 PUSH1 0xFF AND DUP2 MSTORE PUSH1 0x20 ADD PUSH1 0x3 PUSH1 0xFF AND DUP2 MSTORE PUSH1 0x20 ADD PUSH1 0x3 PUSH1 0xFF AND DUP2 MSTORE PUSH1 0x20 ADD PUSH1 0x3 PUSH1 0xFF AND DUP2 MSTORE PUSH1 0x20 ADD PUSH1 0x3 PUSH1 0xFF AND DUP2 MSTORE PUSH1 0x20 ADD PUSH1 0x3 PUSH1 0xFF AND DUP2 MSTORE PUSH1 0x20 ADD PUSH1 0x3 PUSH1 0xFF AND DUP2 MSTORE PUSH1 0x20 ADD PUSH1 0x3 PUSH1 0xFF AND DUP2 MSTORE PUSH1 0x20 ADD PUSH1 0x3 PUSH1 0xFF AND DUP2 MSTORE PUSH1 0x20 ADD PUSH1 0x3 PUSH1 0xFF AND DUP2 MSTORE PUSH1 0x20 ADD PUSH1 0x3 PUSH1 0xFF AND DUP2 MSTORE PUSH1 0x20 ADD PUSH1 0x1 PUSH1 0xFF AND DUP2 MSTORE PUSH1 0x20 ADD PUSH1 0x1 PUSH1 0xFF AND DUP2 MSTORE PUSH1 0x20 ADD PUSH1 0x1 PUSH1 0xFF AND DUP2 MSTORE PUSH1 0x20 ADD PUSH1 0x1 PUSH1 0xFF AND DUP2 MSTORE PUSH1 0x20 ADD PUSH1 0x1 PUSH1 0xFF AND DUP2 MSTORE PUSH1 0x20 ADD PUSH1 0x1 PUSH1 0xFF AND DUP2 MSTORE PUSH1 0x20 ADD PUSH1 0x1 PUSH1 0xFF AND DUP2 MSTORE PUSH1 0x20 ADD PUSH1 0x1 PUSH1 0xFF AND DUP2 MSTORE POP DUP2 MSTORE PUSH1 0x20 ADD PUSH1 0x40 MLOAD DUP1 PUSH2 0x280 ADD PUSH1 0x40 MSTORE DUP1 PUSH1 0x3 PUSH1 0xFF AND DUP2 MSTORE PUSH1 0x20 ADD PUSH1 0x3 PUSH1 0xFF AND DUP2 MSTORE PUSH1 0x20 ADD PUSH1 0x3 PUSH1 0xFF AND DUP2 MSTORE PUSH1 0x20 ADD PUSH1 0x1 PUSH1 0xFF AND DUP2 MSTORE PUSH1 0x20 ADD PUSH1 0x3 PUSH1 0xFF AND DUP2 MSTORE PUSH1 0x20 ADD PUSH1 0x3 PUSH1 0xFF AND DUP2 MSTORE PUSH1 0x20 ADD PUSH1 0x3 PUSH1 0xFF AND DUP2 MSTORE PUSH1 0x20 ADD PUSH1 0x3 PUSH1 0xFF AND DUP2 MSTORE PUSH1 0x20 ADD PUSH1 0x3 PUSH1 0xFF AND DUP2 MSTORE PUSH1 0x20 ADD PUSH1 0x3 PUSH1 0xFF AND DUP2 MSTORE PUSH1 0x20 ADD PUSH1 0x3 PUSH1 0xFF AND DUP2 MSTORE PUSH1 0x20 ADD PUSH1 0x1 PUSH1 0xFF AND DUP2 MSTORE PUSH1 0x20 ADD PUSH1 0x2 PUSH1 0xFF AND DUP2 MSTORE PUSH1 0x20 ADD PUSH1 0x2 PUSH1 0xFF AND DUP2 MSTORE PUSH1 0x20 ADD PUSH1 0x2 PUSH1 0xFF AND DUP2 MSTORE PUSH1 0x20 ADD PUSH1 0x2 PUSH1 0xFF AND DUP2 MSTORE PUSH1 0x20 ADD PUSH1 0x1 PUSH1 0xFF AND DUP2 MSTORE PUSH1 0x20 ADD PUSH1 0x1 PUSH1 0xFF AND DUP2 MSTORE PUSH1 0x20 ADD PUSH1 0x1 PUSH1 0xFF AND DUP2 MSTORE PUSH1 0x20 ADD PUSH1 0x1 PUSH1 0xFF AND DUP2 MSTORE POP DUP2 MSTORE PUSH1 0x20 ADD PUSH1 0x40 MLOAD DUP1 PUSH2 0x280 ADD PUSH1 0x40 MSTORE DUP1 PUSH1 0x3 PUSH1 0xFF AND DUP2 MSTORE PUSH1 0x20 ADD PUSH1 0x3 PUSH1 0xFF AND DUP2 MSTORE PUSH1 0x20 ADD PUSH1 0x3 PUSH1 0xFF AND DUP2 MSTORE PUSH1 0x20 ADD PUSH1 0x1 PUSH1 0xFF AND DUP2 MSTORE PUSH1 0x20 ADD PUSH1 0x1 PUSH1 0xFF AND DUP2 MSTORE PUSH1 0x20 ADD PUSH1 0x2 PUSH1 0xFF AND DUP2 MSTORE PUSH1 0x20 ADD PUSH1 0x2 PUSH1 0xFF AND DUP2 MSTORE PUSH1 0x20 ADD PUSH1 0x2 PUSH1 0xFF AND DUP2 MSTORE PUSH1 0x20 ADD PUSH1 0x2 PUSH1 0xFF AND DUP2 MSTORE PUSH1 0x20 ADD PUSH1 0x2 PUSH1 0xFF AND DUP2 MSTORE PUSH1 0x20 ADD PUSH1 0x2 PUSH1 0xFF AND DUP2 MSTORE PUSH1 0x20 ADD PUSH1 0x1 PUSH1 0xFF AND DUP2 MSTORE PUSH1 0x20 ADD PUSH1 0x2 PUSH1 0xFF AND DUP2 MSTORE PUSH1 0x20 ADD PUSH1 0x2 PUSH1 0xFF AND DUP2 MSTORE PUSH1 0x20 ADD PUSH1 0x2 PUSH1 0xFF AND DUP2 MSTORE PUSH1 0x20 ADD PUSH1 0x2 PUSH1 0xFF AND DUP2 MSTORE PUSH1 0x20 ADD PUSH1 0x2 PUSH1 0xFF AND DUP2 MSTORE PUSH1 0x20 ADD PUSH1 0x2 PUSH1 0xFF AND DUP2 MSTORE PUSH1 0x20 ADD PUSH1 0x2 PUSH1 0xFF AND DUP2 MSTORE PUSH1 0x20 ADD PUSH1 0x1 PUSH1 0xFF AND DUP2 MSTORE POP DUP2 MSTORE PUSH1 0x20 ADD PUSH1 0x40 MLOAD DUP1 PUSH2 0x280 ADD PUSH1 0x40 MSTORE DUP1 PUSH1 0x1 PUSH1 0xFF AND DUP2 MSTORE PUSH1 0x20 ADD PUSH1 0x2 PUSH1 0xFF AND DUP2 MSTORE PUSH1 0x20 ADD PUSH1 0x2 PUSH1 0xFF AND DUP2 MSTORE PUSH1 0x20 ADD PUSH1 0x1 PUSH1 0xFF AND DUP2 MSTORE PUSH1 0x20 ADD PUSH1 0x2 PUSH1 0xFF AND DUP2 MSTORE PUSH1 0x20 ADD PUSH1 0x2 PUSH1 0xFF AND DUP2 MSTORE PUSH1 0x20 ADD PUSH1 0x2 PUSH1 0xFF AND DUP2 MSTORE PUSH1 0x20 ADD PUSH1 0x2 PUSH1 0xFF AND DUP2 MSTORE PUSH1 0x20 ADD PUSH1 0x2 PUSH1 0xFF AND DUP2 MSTORE PUSH1 0x20 ADD PUSH1 0x2 PUSH1 0xFF AND DUP2 MSTORE PUSH1 0x20 ADD PUSH1 0x2 PUSH1 0xFF AND DUP2 MSTORE PUSH1 0x20 ADD PUSH1 0x1 PUSH1 0xFF AND DUP2 MSTORE PUSH1 0x20 ADD PUSH1 0x2 PUSH1 0xFF AND DUP2 MSTORE PUSH1 0x20 ADD PUSH1 0x2 PUSH1 0xFF AND DUP2 MSTORE PUSH1 0x20 ADD PUSH1 0x2 PUSH1 0xFF AND DUP2 MSTORE PUSH1 0x20 ADD PUSH1 0x2 PUSH1 0xFF AND DUP2 MSTORE PUSH1 0x20 ADD PUSH1 0x2 PUSH1 0xFF AND DUP2 MSTORE PUSH1 0x20 ADD PUSH1 0x2 PUSH1 0xFF AND DUP2 MSTORE PUSH1 0x20 ADD PUSH1 0x2 PUSH1 0xFF AND DUP2 MSTORE PUSH1 0x20 ADD PUSH1 0x1 PUSH1 0xFF AND DUP2 MSTORE POP DUP2 MSTORE PUSH1 0x20 ADD PUSH1 0x40 MLOAD DUP1 PUSH2 0x280 ADD PUSH1 0x40 MSTORE DUP1 PUSH1 0x2 PUSH1 0xFF AND DUP2 MSTORE PUSH1 0x20 ADD PUSH1 0x2 PUSH1 0xFF AND DUP2 MSTORE PUSH1 0x20 ADD PUSH1 0x1 PUSH1 0xFF AND DUP2 MSTORE PUSH1 0x20 ADD PUSH1 0x1 PUSH1 0xFF AND DUP2 MSTORE PUSH1 0x20 ADD PUSH1 0x2 PUSH1 0xFF AND DUP2 MSTORE PUSH1 0x20 ADD PUSH1 0x2 PUSH1 0xFF AND DUP2 MSTORE PUSH1 0x20 ADD PUSH1 0x2 PUSH1 0xFF AND DUP2 MSTORE PUSH1 0x20 ADD PUSH1 0x2 PUSH1 0xFF AND DUP2 MSTORE PUSH1 0x20 ADD PUSH1 0x2 PUSH1 0xFF AND DUP2 MSTORE PUSH1 0x20 ADD PUSH1 0x2 PUSH1 0xFF AND DUP2 MSTORE PUSH1 0x20 ADD PUSH1 0x1 PUSH1 0xFF AND DUP2 MSTORE PUSH1 0x20 ADD PUSH1 0x1 PUSH1 0xFF AND DUP2 MSTORE PUSH1 0x20 ADD PUSH1 0x2 PUSH1 0xFF AND DUP2 MSTORE PUSH1 0x20 ADD PUSH1 0x2 PUSH1 0xFF AND DUP2 MSTORE PUSH1 0x20 ADD PUSH1 0x2 PUSH1 0xFF AND DUP2 MSTORE PUSH1 0x20 ADD PUSH1 0x2 PUSH1 0xFF AND DUP2 MSTORE PUSH1 0x20 ADD PUSH1 0x2 PUSH1 0xFF AND DUP2 MSTORE PUSH1 0x20 ADD PUSH1 0x2 PUSH1 0xFF AND DUP2 MSTORE PUSH1 0x20 ADD PUSH1 0x1 PUSH1 0xFF AND DUP2 MSTORE PUSH1 0x20 ADD PUSH1 0x1 PUSH1 0xFF AND DUP2 MSTORE POP DUP2 MSTORE PUSH1 0x20 ADD PUSH1 0x40 MLOAD DUP1 PUSH2 0x280 ADD PUSH1 0x40 MSTORE DUP1 PUSH1 0x3 PUSH1 0xFF AND DUP2 MSTORE PUSH1 0x20 ADD PUSH1 0x3 PUSH1 0xFF AND DUP2 MSTORE PUSH1 0x20 ADD PUSH1 0x3 PUSH1 0xFF AND DUP2 MSTORE PUSH1 0x20 ADD PUSH1 0x2 PUSH1 0xFF AND DUP2 MSTORE PUSH1 0x20 ADD PUSH1 0x1 PUSH1 0xFF AND DUP2 MSTORE PUSH1 0x20 ADD PUSH1 0x2 PUSH1 0xFF AND DUP2 MSTORE PUSH1 0x20 ADD PUSH1 0x2 PUSH1 0xFF AND DUP2 MSTORE PUSH1 0x20 ADD PUSH1 0x2 PUSH1 0xFF AND DUP2 MSTORE PUSH1 0x20 ADD PUSH1 0x2 PUSH1 0xFF AND DUP2 MSTORE PUSH1 0x20 ADD PUSH1 0x2 PUSH1 0xFF AND DUP2 MSTORE PUSH1 0x20 ADD PUSH1 0x1 PUSH1 0xFF AND DUP2 MSTORE PUSH1 0x20 ADD PUSH1 0x2 PUSH1 0xFF AND DUP2 MSTORE PUSH1 0x20 ADD PUSH1 0x2 PUSH1 0xFF AND DUP2 MSTORE PUSH1 0x20 ADD PUSH1 0x2 PUSH1 0xFF AND DUP2 MSTORE PUSH1 0x20 ADD PUSH1 0x2 PUSH1 0xFF AND DUP2 MSTORE PUSH1 0x20 ADD PUSH1 0x1 PUSH1 0xFF AND DUP2 MSTORE PUSH1 0x20 ADD PUSH1 0x1 PUSH1 0xFF AND DUP2 MSTORE PUSH1 0x20 ADD PUSH1 0x1 PUSH1 0xFF AND DUP2 MSTORE PUSH1 0x20 ADD PUSH1 0x1 PUSH1 0xFF AND DUP2 MSTORE PUSH1 0x20 ADD PUSH1 0x1 PUSH1 0xFF AND DUP2 MSTORE POP DUP2 MSTORE PUSH1 0x20 ADD PUSH1 0x40 MLOAD DUP1 PUSH2 0x280 ADD PUSH1 0x40 MSTORE DUP1 PUSH1 0x3 PUSH1 0xFF AND DUP2 MSTORE PUSH1 0x20 ADD PUSH1 0x3 PUSH1 0xFF AND DUP2 MSTORE PUSH1 0x20 ADD PUSH1 0x3 PUSH1 0xFF AND DUP2 MSTORE PUSH1 0x20 ADD PUSH1 0x3 PUSH1 0xFF AND DUP2 MSTORE PUSH1 0x20 ADD PUSH1 0x1 PUSH1 0xFF AND DUP2 MSTORE PUSH1 0x20 ADD PUSH1 0x1 PUSH1 0xFF AND DUP2 MSTORE PUSH1 0x20 ADD PUSH1 0x2 PUSH1 0xFF AND DUP2 MSTORE PUSH1 0x20 ADD PUSH1 0x2 PUSH1 0xFF AND DUP2 MSTORE PUSH1 0x20 ADD PUSH1 0x2 PUSH1 0xFF AND DUP2 MSTORE PUSH1 0x20 ADD PUSH1 0x2 PUSH1 0xFF AND DUP2 MSTORE PUSH1 0x20 ADD PUSH1 0x1 PUSH1 0xFF AND DUP2 MSTORE PUSH1 0x20 ADD PUSH1 0x1 PUSH1 0xFF AND DUP2 MSTORE PUSH1 0x20 ADD PUSH1 0x2 PUSH1 0xFF AND DUP2 MSTORE PUSH1 0x20 ADD PUSH1 0x2 PUSH1 0xFF AND DUP2 MSTORE PUSH1 0x20 ADD PUSH1 0x2 PUSH1 0xFF AND DUP2 MSTORE PUSH1 0x20 ADD PUSH1 0x1 PUSH1 0xFF AND DUP2 MSTORE PUSH1 0x20 ADD PUSH1 0x1 PUSH1 0xFF AND DUP2 MSTORE PUSH1 0x20 ADD PUSH1 0x1 PUSH1 0xFF AND DUP2 MSTORE PUSH1 0x20 ADD PUSH1 0x1 PUSH1 0xFF AND DUP2 MSTORE PUSH1 0x20 ADD PUSH1 0x1 PUSH1 0xFF AND DUP2 MSTORE POP DUP2 MSTORE PUSH1 0x20 ADD PUSH1 0x40 MLOAD DUP1 PUSH2 0x280 ADD PUSH1 0x40 MSTORE DUP1 PUSH1 0x3 PUSH1 0xFF AND DUP2 MSTORE PUSH1 0x20 ADD PUSH1 0x3 PUSH1 0xFF AND DUP2 MSTORE PUSH1 0x20 ADD PUSH1 0x3 PUSH1 0xFF AND DUP2 MSTORE PUSH1 0x20 ADD PUSH1 0x3 PUSH1 0xFF AND DUP2 MSTORE PUSH1 0x20 ADD PUSH1 0x3 PUSH1 0xFF AND DUP2 MSTORE PUSH1 0x20 ADD PUSH1 0x1 PUSH1 0xFF AND DUP2 MSTORE PUSH1 0x20 ADD PUSH1 0x2 PUSH1 0xFF AND DUP2 MSTORE PUSH1 0x20 ADD PUSH1 0x2 PUSH1 0xFF AND DUP2 MSTORE PUSH1 0x20 ADD PUSH1 0x2 PUSH1 0xFF AND DUP2 MSTORE PUSH1 0x20 ADD PUSH1 0x2 PUSH1 0xFF AND DUP2 MSTORE PUSH1 0x20 ADD PUSH1 0x1 PUSH1 0xFF AND DUP2 MSTORE PUSH1 0x20 ADD PUSH1 0x1 PUSH1 0xFF AND DUP2 MSTORE PUSH1 0x20 ADD PUSH1 0x1 PUSH1 0xFF AND DUP2 MSTORE PUSH1 0x20 ADD PUSH1 0x2 PUSH1 0xFF AND DUP2 MSTORE PUSH1 0x20 ADD PUSH1 0x2 PUSH1 0xFF AND DUP2 MSTORE PUSH1 0x20 ADD PUSH1 0x2 PUSH1 0xFF AND DUP2 MSTORE PUSH1 0x20 ADD PUSH1 0x2 PUSH1 0xFF AND DUP2 MSTORE PUSH1 0x20 ADD PUSH1 0x1 PUSH1 0xFF AND DUP2 MSTORE PUSH1 0x20 ADD PUSH1 0x1 PUSH1 0xFF AND DUP2 MSTORE PUSH1 0x20 ADD PUSH1 0x1 PUSH1 0xFF AND DUP2 MSTORE POP DUP2 MSTORE PUSH1 0x20 ADD PUSH1 0x40 MLOAD DUP1 PUSH2 0x280 ADD PUSH1 0x40 MSTORE DUP1 PUSH1 0x3 PUSH1 0xFF AND DUP2 MSTORE PUSH1 0x20 ADD PUSH1 0x3 PUSH1 0xFF AND DUP2 MSTORE PUSH1 0x20 ADD PUSH1 0x3 PUSH1 0xFF AND DUP2 MSTORE PUSH1 0x20 ADD PUSH1 0x3 PUSH1 0xFF AND DUP2 MSTORE PUSH1 0x20 ADD PUSH1 0x3 PUSH1 0xFF AND DUP2 MSTORE PUSH1 0x20 ADD PUSH1 0x2 PUSH1 0xFF AND DUP2 MSTORE PUSH1 0x20 ADD PUSH1 0x2 PUSH1 0xFF AND DUP2 MSTORE PUSH1 0x20 ADD PUSH1 0x2 PUSH1 0xFF AND DUP2 MSTORE PUSH1 0x20 ADD PUSH1 0x3 PUSH1 0xFF AND DUP2 MSTORE PUSH1 0x20 ADD PUSH1 0x3 PUSH1 0xFF AND DUP2 MSTORE PUSH1 0x20 ADD PUSH1 0x2 PUSH1 0xFF AND DUP2 MSTORE PUSH1 0x20 ADD PUSH1 0x2 PUSH1 0xFF AND DUP2 MSTORE PUSH1 0x20 ADD PUSH1 0x1 PUSH1 0xFF AND DUP2 MSTORE PUSH1 0x20 ADD PUSH1 0x2 PUSH1 0xFF AND DUP2 MSTORE PUSH1 0x20 ADD PUSH1 0x2 PUSH1 0xFF AND DUP2 MSTORE PUSH1 0x20 ADD PUSH1 0x2 PUSH1 0xFF AND DUP2 MSTORE PUSH1 0x20 ADD PUSH1 0x2 PUSH1 0xFF AND DUP2 MSTORE PUSH1 0x20 ADD PUSH1 0x1 PUSH1 0xFF AND DUP2 MSTORE PUSH1 0x20 ADD PUSH1 0x1 PUSH1 0xFF AND DUP2 MSTORE PUSH1 0x20 ADD PUSH1 0x1 PUSH1 0xFF AND DUP2 MSTORE POP DUP2 MSTORE PUSH1 0x20 ADD PUSH1 0x40 MLOAD DUP1 PUSH2 0x280 ADD PUSH1 0x40 MSTORE DUP1 PUSH1 0x2 PUSH1 0xFF AND DUP2 MSTORE PUSH1 0x20 ADD PUSH1 0x2 PUSH1 0xFF AND DUP2 MSTORE PUSH1 0x20 ADD PUSH1 0x2 PUSH1 0xFF AND DUP2 MSTORE PUSH1 0x20 ADD PUSH1 0x1 PUSH1 0xFF AND DUP2 MSTORE PUSH1 0x20 ADD PUSH1 0x1 PUSH1 0xFF AND DUP2 MSTORE PUSH1 0x20 ADD PUSH1 0x1 PUSH1 0xFF AND DUP2 MSTORE PUSH1 0x20 ADD PUSH1 0x1 PUSH1 0xFF AND DUP2 MSTORE PUSH1 0x20 ADD PUSH1 0x1 PUSH1 0xFF AND DUP2 MSTORE PUSH1 0x20 ADD PUSH1 0x3 PUSH1 0xFF AND DUP2 MSTORE PUSH1 0x20 ADD PUSH1 0x3 PUSH1 0xFF AND DUP2 MSTORE PUSH1 0x20 ADD PUSH1 0x3 PUSH1 0xFF AND DUP2 MSTORE PUSH1 0x20 ADD PUSH1 0x3 PUSH1 0xFF AND DUP2 MSTORE PUSH1 0x20 ADD PUSH1 0x1 PUSH1 0xFF AND DUP2 MSTORE PUSH1 0x20 ADD PUSH1 0x1 PUSH1 0xFF AND DUP2 MSTORE PUSH1 0x20 ADD PUSH1 0x2 PUSH1 0xFF AND DUP2 MSTORE PUSH1 0x20 ADD PUSH1 0x2 PUSH1 0xFF AND DUP2 MSTORE PUSH1 0x20 ADD PUSH1 0x2 PUSH1 0xFF AND DUP2 MSTORE PUSH1 0x20 ADD PUSH1 0x1 PUSH1 0xFF AND DUP2 MSTORE PUSH1 0x20 ADD PUSH1 0x1 PUSH1 0xFF AND DUP2 MSTORE PUSH1 0x20 ADD PUSH1 0x1 PUSH1 0xFF AND DUP2 MSTORE POP DUP2 MSTORE PUSH1 0x20 ADD PUSH1 0x40 MLOAD DUP1 PUSH2 0x280 ADD PUSH1 0x40 MSTORE DUP1 PUSH1 0x2 PUSH1 0xFF AND DUP2 MSTORE PUSH1 0x20 ADD PUSH1 0x2 PUSH1 0xFF AND DUP2 MSTORE PUSH1 0x20 ADD PUSH1 0x2 PUSH1 0xFF AND DUP2 MSTORE PUSH1 0x20 ADD PUSH1 0x2 PUSH1 0xFF AND DUP2 MSTORE PUSH1 0x20 ADD PUSH1 0x2 PUSH1 0xFF AND DUP2 MSTORE PUSH1 0x20 ADD PUSH1 0x2 PUSH1 0xFF AND DUP2 MSTORE PUSH1 0x20 ADD PUSH1 0x1 PUSH1 0xFF AND DUP2 MSTORE PUSH1 0x20 ADD PUSH1 0x1 PUSH1 0xFF AND DUP2 MSTORE PUSH1 0x20 ADD PUSH1 0x3 PUSH1 0xFF AND DUP2 MSTORE PUSH1 0x20 ADD PUSH1 0x3 PUSH1 0xFF AND DUP2 MSTORE PUSH1 0x20 ADD PUSH1 0x3 PUSH1 0xFF AND DUP2 MSTORE PUSH1 0x20 ADD PUSH1 0x3 PUSH1 0xFF AND DUP2 MSTORE PUSH1 0x20 ADD PUSH1 0x1 PUSH1 0xFF AND DUP2 MSTORE PUSH1 0x20 ADD PUSH1 0x1 PUSH1 0xFF AND DUP2 MSTORE PUSH1 0x20 ADD PUSH1 0x1 PUSH1 0xFF AND DUP2 MSTORE PUSH1 0x20 ADD PUSH1 0x1 PUSH1 0xFF AND DUP2 MSTORE PUSH1 0x20 ADD PUSH1 0x3 PUSH1 0xFF AND DUP2 MSTORE PUSH1 0x20 ADD PUSH1 0x3 PUSH1 0xFF AND DUP2 MSTORE PUSH1 0x20 ADD PUSH1 0x2 PUSH1 0xFF AND DUP2 MSTORE PUSH1 0x20 ADD PUSH1 0x2 PUSH1 0xFF AND DUP2 MSTORE POP DUP2 MSTORE PUSH1 0x20 ADD PUSH1 0x40 MLOAD DUP1 PUSH2 0x280 ADD PUSH1 0x40 MSTORE DUP1 PUSH1 0x2 PUSH1 0xFF AND DUP2 MSTORE PUSH1 0x20 ADD PUSH1 0x2 PUSH1 0xFF AND DUP2 MSTORE PUSH1 0x20 ADD PUSH1 0x2 PUSH1 0xFF AND DUP2 MSTORE PUSH1 0x20 ADD PUSH1 0x2 PUSH1 0xFF AND DUP2 MSTORE PUSH1 0x20 ADD PUSH1 0x2 PUSH1 0xFF AND DUP2 MSTORE PUSH1 0x20 ADD PUSH1 0x2 PUSH1 0xFF AND DUP2 MSTORE PUSH1 0x20 ADD PUSH1 0x2 PUSH1 0xFF AND DUP2 MSTORE PUSH1 0x20 ADD PUSH1 0x1 PUSH1 0xFF AND DUP2 MSTORE PUSH1 0x20 ADD PUSH1 0x3 PUSH1 0xFF AND DUP2 MSTORE PUSH1 0x20 ADD PUSH1 0x3 PUSH1 0xFF AND DUP2 MSTORE PUSH1 0x20 ADD PUSH1 0x3 PUSH1 0xFF AND DUP2 MSTORE PUSH1 0x20 ADD PUSH1 0x3 PUSH1 0xFF AND DUP2 MSTORE PUSH1 0x20 ADD PUSH1 0x1 PUSH1 0xFF AND DUP2 MSTORE PUSH1 0x20 ADD PUSH1 0x1 PUSH1 0xFF AND DUP2 MSTORE PUSH1 0x20 ADD PUSH1 0x1 PUSH1 0xFF AND DUP2 MSTORE PUSH1 0x20 ADD PUSH1 0x1 PUSH1 0xFF AND DUP2 MSTORE PUSH1 0x20 ADD PUSH1 0x3 PUSH1 0xFF AND DUP2 MSTORE PUSH1 0x20 ADD PUSH1 0x3 PUSH1 0xFF AND DUP2 MSTORE PUSH1 0x20 ADD PUSH1 0x2 PUSH1 0xFF AND DUP2 MSTORE PUSH1 0x20 ADD PUSH1 0x2 PUSH1 0xFF AND DUP2 MSTORE POP DUP2 MSTORE PUSH1 0x20 ADD PUSH1 0x40 MLOAD DUP1 PUSH2 0x280 ADD PUSH1 0x40 MSTORE DUP1 PUSH1 0x2 PUSH1 0xFF AND DUP2 MSTORE PUSH1 0x20 ADD PUSH1 0x2 PUSH1 0xFF AND DUP2 MSTORE PUSH1 0x20 ADD PUSH1 0x2 PUSH1 0xFF AND DUP2 MSTORE PUSH1 0x20 ADD PUSH1 0x2 PUSH1 0xFF AND DUP2 MSTORE PUSH1 0x20 ADD PUSH1 0x2 PUSH1 0xFF AND DUP2 MSTORE PUSH1 0x20 ADD PUSH1 0x2 PUSH1 0xFF AND DUP2 MSTORE PUSH1 0x20 ADD PUSH1 0x2 PUSH1 0xFF AND DUP2 MSTORE PUSH1 0x20 ADD PUSH1 0x1 PUSH1 0xFF AND DUP2 MSTORE PUSH1 0x20 ADD PUSH1 0x1 PUSH1 0xFF AND DUP2 MSTORE PUSH1 0x20 ADD PUSH1 0x2 PUSH1 0xFF AND DUP2 MSTORE PUSH1 0x20 ADD PUSH1 0x2 PUSH1 0xFF AND DUP2 MSTORE PUSH1 0x20 ADD PUSH1 0x1 PUSH1 0xFF AND DUP2 MSTORE PUSH1 0x20 ADD PUSH1 0x1 PUSH1 0xFF AND DUP2 MSTORE PUSH1 0x20 ADD PUSH1 0x2 PUSH1 0xFF AND DUP2 MSTORE PUSH1 0x20 ADD PUSH1 0x2 PUSH1 0xFF AND DUP2 MSTORE PUSH1 0x20 ADD PUSH1 0x1 PUSH1 0xFF AND DUP2 MSTORE PUSH1 0x20 ADD PUSH1 0x3 PUSH1 0xFF AND DUP2 MSTORE PUSH1 0x20 ADD PUSH1 0x3 PUSH1 0xFF AND DUP2 MSTORE PUSH1 0x20 ADD PUSH1 0x2 PUSH1 0xFF AND DUP2 MSTORE PUSH1 0x20 ADD PUSH1 0x2 PUSH1 0xFF AND DUP2 MSTORE POP DUP2 MSTORE PUSH1 0x20 ADD PUSH1 0x40 MLOAD DUP1 PUSH2 0x280 ADD PUSH1 0x40 MSTORE DUP1 PUSH1 0x2 PUSH1 0xFF AND DUP2 MSTORE PUSH1 0x20 ADD PUSH1 0x2 PUSH1 0xFF AND DUP2 MSTORE PUSH1 0x20 ADD PUSH1 0x2 PUSH1 0xFF AND DUP2 MSTORE PUSH1 0x20 ADD PUSH1 0x2 PUSH1 0xFF AND DUP2 MSTORE PUSH1 0x20 ADD PUSH1 0x2 PUSH1 0xFF AND DUP2 MSTORE PUSH1 0x20 ADD PUSH1 0x2 PUSH1 0xFF AND DUP2 MSTORE PUSH1 0x20 ADD PUSH1 0x2 PUSH1 0xFF AND DUP2 MSTORE PUSH1 0x20 ADD PUSH1 0x1 PUSH1 0xFF AND DUP2 MSTORE PUSH1 0x20 ADD PUSH1 0x1 PUSH1 0xFF AND DUP2 MSTORE PUSH1 0x20 ADD PUSH1 0x1 PUSH1 0xFF AND DUP2 MSTORE PUSH1 0x20 ADD PUSH1 0x1 PUSH1 0xFF AND DUP2 MSTORE PUSH1 0x20 ADD PUSH1 0x1 PUSH1 0xFF AND DUP2 MSTORE PUSH1 0x20 ADD PUSH1 0x1 PUSH1 0xFF AND DUP2 MSTORE PUSH1 0x20 ADD PUSH1 0x1 PUSH1 0xFF AND DUP2 MSTORE PUSH1 0x20 ADD PUSH1 0x1 PUSH1 0xFF AND DUP2 MSTORE PUSH1 0x20 ADD PUSH1 0x3 PUSH1 0xFF AND DUP2 MSTORE PUSH1 0x20 ADD PUSH1 0x3 PUSH1 0xFF AND DUP2 MSTORE PUSH1 0x20 ADD PUSH1 0x3 PUSH1 0xFF AND DUP2 MSTORE PUSH1 0x20 ADD PUSH1 0x2 PUSH1 0xFF AND DUP2 MSTORE PUSH1 0x20 ADD PUSH1 0x2 PUSH1 0xFF AND DUP2 MSTORE POP DUP2 MSTORE POP PUSH2 0x193 SWAP1 PUSH1 0x14 PUSH3 0x10ED SWAP3 SWAP2 SWAP1 PUSH3 0x11A9 JUMP JUMPDEST POP CALLVALUE DUP1 ISZERO PUSH3 0x10FB JUMPI PUSH1 0x0 DUP1 REVERT JUMPDEST POP PUSH1 0x40 MLOAD PUSH3 0x44C5 CODESIZE SUB DUP1 PUSH3 0x44C5 DUP4 CODECOPY DUP2 DUP2 ADD PUSH1 0x40 MSTORE DUP2 ADD SWAP1 PUSH3 0x1121 SWAP2 SWAP1 PUSH3 0x1357 JUMP JUMPDEST CALLER PUSH1 0x0 DUP1 PUSH2 0x100 EXP DUP2 SLOAD DUP2 PUSH20 0xFFFFFFFFFFFFFFFFFFFFFFFFFFFFFFFFFFFFFFFF MUL NOT AND SWAP1 DUP4 PUSH20 0xFFFFFFFFFFFFFFFFFFFFFFFFFFFFFFFFFFFFFFFF AND MUL OR SWAP1 SSTORE POP DUP1 PUSH1 0x2 PUSH1 0x0 PUSH2 0x100 EXP DUP2 SLOAD DUP2 PUSH20 0xFFFFFFFFFFFFFFFFFFFFFFFFFFFFFFFFFFFFFFFF MUL NOT AND SWAP1 DUP4 PUSH20 0xFFFFFFFFFFFFFFFFFFFFFFFFFFFFFFFFFFFFFFFF AND MUL OR SWAP1 SSTORE POP POP PUSH3 0x1389 JUMP JUMPDEST DUP3 PUSH1 0x14 DUP2 ADD SWAP3 DUP3 ISZERO PUSH3 0x11EB JUMPI SWAP2 PUSH1 0x20 MUL DUP3 ADD JUMPDEST DUP3 DUP2 GT ISZERO PUSH3 0x11EA JUMPI DUP3 MLOAD DUP3 SWAP1 PUSH1 0x14 PUSH3 0x11D9 SWAP3 SWAP2 SWAP1 PUSH3 0x11FE JUMP JUMPDEST POP SWAP2 PUSH1 0x20 ADD SWAP2 SWAP1 PUSH1 0x1 ADD SWAP1 PUSH3 0x11BD JUMP JUMPDEST JUMPDEST POP SWAP1 POP PUSH3 0x11FA SWAP2 SWAP1 PUSH3 0x129F JUMP JUMPDEST POP SWAP1 JUMP JUMPDEST DUP3 PUSH1 0x14 PUSH1 0x1F ADD PUSH1 0x20 SWAP1 DIV DUP2 ADD SWAP3 DUP3 ISZERO PUSH3 0x128C JUMPI SWAP2 PUSH1 0x20 MUL DUP3 ADD PUSH1 0x0 JUMPDEST DUP4 DUP3 GT ISZERO PUSH3 0x125B JUMPI DUP4 MLOAD DUP4 DUP3 PUSH2 0x100 EXP DUP2 SLOAD DUP2 PUSH1 0xFF MUL NOT AND SWAP1 DUP4 PUSH1 0xFF AND MUL OR SWAP1 SSTORE POP SWAP3 PUSH1 0x20 ADD SWAP3 PUSH1 0x1 ADD PUSH1 0x20 DUP2 PUSH1 0x0 ADD DIV SWAP3 DUP4 ADD SWAP3 PUSH1 0x1 SUB MUL PUSH3 0x121B JUMP JUMPDEST DUP1 ISZERO PUSH3 0x128A JUMPI DUP3 DUP2 PUSH2 0x100 EXP DUP2 SLOAD SWAP1 PUSH1 0xFF MUL NOT AND SWAP1 SSTORE PUSH1 0x1 ADD PUSH1 0x20 DUP2 PUSH1 0x0 ADD DIV SWAP3 DUP4 ADD SWAP3 PUSH1 0x1 SUB MUL PUSH3 0x125B JUMP JUMPDEST POP JUMPDEST POP SWAP1 POP PUSH3 0x129B SWAP2 SWAP1 PUSH3 0x12C7 JUMP JUMPDEST POP SWAP1 JUMP JUMPDEST JUMPDEST DUP1 DUP3 GT ISZERO PUSH3 0x12C3 JUMPI PUSH1 0x0 DUP2 DUP2 PUSH3 0x12B9 SWAP2 SWAP1 PUSH3 0x12E6 JUMP JUMPDEST POP PUSH1 0x1 ADD PUSH3 0x12A0 JUMP JUMPDEST POP SWAP1 JUMP JUMPDEST JUMPDEST DUP1 DUP3 GT ISZERO PUSH3 0x12E2 JUMPI PUSH1 0x0 DUP2 PUSH1 0x0 SWAP1 SSTORE POP PUSH1 0x1 ADD PUSH3 0x12C8 JUMP JUMPDEST POP SWAP1 JUMP JUMPDEST POP PUSH1 0x0 SWAP1 SSTORE JUMP JUMPDEST PUSH1 0x0 DUP1 REVERT JUMPDEST PUSH1 0x0 PUSH20 0xFFFFFFFFFFFFFFFFFFFFFFFFFFFFFFFFFFFFFFFF DUP3 AND SWAP1 POP SWAP2 SWAP1 POP JUMP JUMPDEST PUSH1 0x0 PUSH3 0x131F DUP3 PUSH3 0x12F2 JUMP JUMPDEST SWAP1 POP SWAP2 SWAP1 POP JUMP JUMPDEST PUSH3 0x1331 DUP2 PUSH3 0x1312 JUMP JUMPDEST DUP2 EQ PUSH3 0x133D JUMPI PUSH1 0x0 DUP1 REVERT JUMPDEST POP JUMP JUMPDEST PUSH1 0x0 DUP2 MLOAD SWAP1 POP PUSH3 0x1351 DUP2 PUSH3 0x1326 JUMP JUMPDEST SWAP3 SWAP2 POP POP JUMP JUMPDEST PUSH1 0x0 PUSH1 0x20 DUP3 DUP5 SUB SLT ISZERO PUSH3 0x1370 JUMPI PUSH3 0x136F PUSH3 0x12ED JUMP JUMPDEST JUMPDEST PUSH1 0x0 PUSH3 0x1380 DUP5 DUP3 DUP6 ADD PUSH3 0x1340 JUMP JUMPDEST SWAP2 POP POP SWAP3 SWAP2 POP POP JUMP JUMPDEST PUSH2 0x312C DUP1 PUSH3 0x1399 PUSH1 0x0 CODECOPY PUSH1 0x0 RETURN INVALID PUSH1 0x80 PUSH1 0x40 MSTORE CALLVALUE DUP1 ISZERO PUSH2 0x10 JUMPI PUSH1 0x0 DUP1 REVERT JUMPDEST POP PUSH1 0x4 CALLDATASIZE LT PUSH2 0x137 JUMPI PUSH1 0x0 CALLDATALOAD PUSH1 0xE0 SHR DUP1 PUSH4 0x503D4C8D GT PUSH2 0xB8 JUMPI DUP1 PUSH4 0x8DA5CB5B GT PUSH2 0x7C JUMPI DUP1 PUSH4 0x8DA5CB5B EQ PUSH2 0x38B JUMPI DUP1 PUSH4 0xBC4462DE EQ PUSH2 0x3A9 JUMPI DUP1 PUSH4 0xBC9955A2 EQ PUSH2 0x3C7 JUMPI DUP1 PUSH4 0xD0EBDBE7 EQ PUSH2 0x3F7 JUMPI DUP1 PUSH4 0xD21CACDF EQ PUSH2 0x413 JUMPI DUP1 PUSH4 0xE62CDC8A EQ PUSH2 0x443 JUMPI PUSH2 0x137 JUMP JUMPDEST DUP1 PUSH4 0x503D4C8D EQ PUSH2 0x2D0 JUMPI DUP1 PUSH4 0x62CB4694 EQ PUSH2 0x2DA JUMPI DUP1 PUSH4 0x8A115F0B EQ PUSH2 0x30B JUMPI DUP1 PUSH4 0x8A3D7CDC EQ PUSH2 0x329 JUMPI DUP1 PUSH4 0x8A888953 EQ PUSH2 0x35B JUMPI PUSH2 0x137 JUMP JUMPDEST DUP1 PUSH4 0x2EF761D3 GT PUSH2 0xFF JUMPI DUP1 PUSH4 0x2EF761D3 EQ PUSH2 0x21A JUMPI DUP1 PUSH4 0x323FD7B7 EQ PUSH2 0x236 JUMPI DUP1 PUSH4 0x481C6A75 EQ PUSH2 0x266 JUMPI DUP1 PUSH4 0x4A9FEFC7 EQ PUSH2 0x284 JUMPI DUP1 PUSH4 0x50328BDD EQ PUSH2 0x2B4 JUMPI PUSH2 0x137 JUMP JUMPDEST DUP1 PUSH4 0x1A32EBB6 EQ PUSH2 0x13C JUMPI DUP1 PUSH4 0x1B64F93D EQ PUSH2 0x15A JUMPI DUP1 PUSH4 0x2400A3B0 EQ PUSH2 0x18A JUMPI DUP1 PUSH4 0x2672BECB EQ PUSH2 0x1BA JUMPI DUP1 PUSH4 0x2CFDF9B1 EQ PUSH2 0x1EA JUMPI JUMPDEST PUSH1 0x0 DUP1 REVERT JUMPDEST PUSH2 0x144 PUSH2 0x45F JUMP JUMPDEST PUSH1 0x40 MLOAD PUSH2 0x151 SWAP2 SWAP1 PUSH2 0x235E JUMP JUMPDEST PUSH1 0x40 MLOAD DUP1 SWAP2 SUB SWAP1 RETURN JUMPDEST PUSH2 0x174 PUSH1 0x4 DUP1 CALLDATASIZE SUB DUP2 ADD SWAP1 PUSH2 0x16F SWAP2 SWAP1 PUSH2 0x2412 JUMP JUMPDEST PUSH2 0x464 JUMP JUMPDEST PUSH1 0x40 MLOAD PUSH2 0x181 SWAP2 SWAP1 PUSH2 0x2461 JUMP JUMPDEST PUSH1 0x40 MLOAD DUP1 SWAP2 SUB SWAP1 RETURN JUMPDEST PUSH2 0x1A4 PUSH1 0x4 DUP1 CALLDATASIZE SUB DUP2 ADD SWAP1 PUSH2 0x19F SWAP2 SWAP1 PUSH2 0x247C JUMP JUMPDEST PUSH2 0x4B3 JUMP JUMPDEST PUSH1 0x40 MLOAD PUSH2 0x1B1 SWAP2 SWAP1 PUSH2 0x2554 JUMP JUMPDEST PUSH1 0x40 MLOAD DUP1 SWAP2 SUB SWAP1 RETURN JUMPDEST PUSH2 0x1D4 PUSH1 0x4 DUP1 CALLDATASIZE SUB DUP2 ADD SWAP1 PUSH2 0x1CF SWAP2 SWAP1 PUSH2 0x259B JUMP JUMPDEST PUSH2 0x5F1 JUMP JUMPDEST PUSH1 0x40 MLOAD PUSH2 0x1E1 SWAP2 SWAP1 PUSH2 0x25F6 JUMP JUMPDEST PUSH1 0x40 MLOAD DUP1 SWAP2 SUB SWAP1 RETURN JUMPDEST PUSH2 0x204 PUSH1 0x4 DUP1 CALLDATASIZE SUB DUP2 ADD SWAP1 PUSH2 0x1FF SWAP2 SWAP1 PUSH2 0x247C JUMP JUMPDEST PUSH2 0x698 JUMP JUMPDEST PUSH1 0x40 MLOAD PUSH2 0x211 SWAP2 SWAP1 PUSH2 0x25F6 JUMP JUMPDEST PUSH1 0x40 MLOAD DUP1 SWAP2 SUB SWAP1 RETURN JUMPDEST PUSH2 0x234 PUSH1 0x4 DUP1 CALLDATASIZE SUB DUP2 ADD SWAP1 PUSH2 0x22F SWAP2 SWAP1 PUSH2 0x259B JUMP JUMPDEST PUSH2 0x6B9 JUMP JUMPDEST STOP JUMPDEST PUSH2 0x250 PUSH1 0x4 DUP1 CALLDATASIZE SUB DUP2 ADD SWAP1 PUSH2 0x24B SWAP2 SWAP1 PUSH2 0x2412 JUMP JUMPDEST PUSH2 0xF36 JUMP JUMPDEST PUSH1 0x40 MLOAD PUSH2 0x25D SWAP2 SWAP1 PUSH2 0x235E JUMP JUMPDEST PUSH1 0x40 MLOAD DUP1 SWAP2 SUB SWAP1 RETURN JUMPDEST PUSH2 0x26E PUSH2 0xF70 JUMP JUMPDEST PUSH1 0x40 MLOAD PUSH2 0x27B SWAP2 SWAP1 PUSH2 0x2461 JUMP JUMPDEST PUSH1 0x40 MLOAD DUP1 SWAP2 SUB SWAP1 RETURN JUMPDEST PUSH2 0x29E PUSH1 0x4 DUP1 CALLDATASIZE SUB DUP2 ADD SWAP1 PUSH2 0x299 SWAP2 SWAP1 PUSH2 0x247C JUMP JUMPDEST PUSH2 0xF96 JUMP JUMPDEST PUSH1 0x40 MLOAD PUSH2 0x2AB SWAP2 SWAP1 PUSH2 0x2461 JUMP JUMPDEST PUSH1 0x40 MLOAD DUP1 SWAP2 SUB SWAP1 RETURN JUMPDEST PUSH2 0x2CE PUSH1 0x4 DUP1 CALLDATASIZE SUB DUP2 ADD SWAP1 PUSH2 0x2C9 SWAP2 SWAP1 PUSH2 0x2611 JUMP JUMPDEST PUSH2 0x1000 JUMP JUMPDEST STOP JUMPDEST PUSH2 0x2D8 PUSH2 0x1918 JUMP JUMPDEST STOP JUMPDEST PUSH2 0x2F4 PUSH1 0x4 DUP1 CALLDATASIZE SUB DUP2 ADD SWAP1 PUSH2 0x2EF SWAP2 SWAP1 PUSH2 0x247C JUMP JUMPDEST PUSH2 0x1A01 JUMP JUMPDEST PUSH1 0x40 MLOAD PUSH2 0x302 SWAP3 SWAP2 SWAP1 PUSH2 0x2722 JUMP JUMPDEST PUSH1 0x40 MLOAD DUP1 SWAP2 SUB SWAP1 RETURN JUMPDEST PUSH2 0x313 PUSH2 0x1B37 JUMP JUMPDEST PUSH1 0x40 MLOAD PUSH2 0x320 SWAP2 SWAP1 PUSH2 0x289A JUMP JUMPDEST PUSH1 0x40 MLOAD DUP1 SWAP2 SUB SWAP1 RETURN JUMPDEST PUSH2 0x343 PUSH1 0x4 DUP1 CALLDATASIZE SUB DUP2 ADD SWAP1 PUSH2 0x33E SWAP2 SWAP1 PUSH2 0x28B6 JUMP JUMPDEST PUSH2 0x1C1B JUMP JUMPDEST PUSH1 0x40 MLOAD PUSH2 0x352 SWAP4 SWAP3 SWAP2 SWAP1 PUSH2 0x28F6 JUMP JUMPDEST PUSH1 0x40 MLOAD DUP1 SWAP2 SUB SWAP1 RETURN JUMPDEST PUSH2 0x375 PUSH1 0x4 DUP1 CALLDATASIZE SUB DUP2 ADD SWAP1 PUSH2 0x370 SWAP2 SWAP1 PUSH2 0x259B JUMP JUMPDEST PUSH2 0x1C95 JUMP JUMPDEST PUSH1 0x40 MLOAD PUSH2 0x382 SWAP2 SWAP1 PUSH2 0x2461 JUMP JUMPDEST PUSH1 0x40 MLOAD DUP1 SWAP2 SUB SWAP1 RETURN JUMPDEST PUSH2 0x393 PUSH2 0x1D4F JUMP JUMPDEST PUSH1 0x40 MLOAD PUSH2 0x3A0 SWAP2 SWAP1 PUSH2 0x2461 JUMP JUMPDEST PUSH1 0x40 MLOAD DUP1 SWAP2 SUB SWAP1 RETURN JUMPDEST PUSH2 0x3B1 PUSH2 0x1D73 JUMP JUMPDEST PUSH1 0x40 MLOAD PUSH2 0x3BE SWAP2 SWAP1 PUSH2 0x2461 JUMP JUMPDEST PUSH1 0x40 MLOAD DUP1 SWAP2 SUB SWAP1 RETURN JUMPDEST PUSH2 0x3E1 PUSH1 0x4 DUP1 CALLDATASIZE SUB DUP2 ADD SWAP1 PUSH2 0x3DC SWAP2 SWAP1 PUSH2 0x28B6 JUMP JUMPDEST PUSH2 0x1D99 JUMP JUMPDEST PUSH1 0x40 MLOAD PUSH2 0x3EE SWAP2 SWAP1 PUSH2 0x235E JUMP JUMPDEST PUSH1 0x40 MLOAD DUP1 SWAP2 SUB SWAP1 RETURN JUMPDEST PUSH2 0x411 PUSH1 0x4 DUP1 CALLDATASIZE SUB DUP2 ADD SWAP1 PUSH2 0x40C SWAP2 SWAP1 PUSH2 0x247C JUMP JUMPDEST PUSH2 0x1DD6 JUMP JUMPDEST STOP JUMPDEST PUSH2 0x42D PUSH1 0x4 DUP1 CALLDATASIZE SUB DUP2 ADD SWAP1 PUSH2 0x428 SWAP2 SWAP1 PUSH2 0x247C JUMP JUMPDEST PUSH2 0x1EEB JUMP JUMPDEST PUSH1 0x40 MLOAD PUSH2 0x43A SWAP2 SWAP1 PUSH2 0x2461 JUMP JUMPDEST PUSH1 0x40 MLOAD DUP1 SWAP2 SUB SWAP1 RETURN JUMPDEST PUSH2 0x45D PUSH1 0x4 DUP1 CALLDATASIZE SUB DUP2 ADD SWAP1 PUSH2 0x458 SWAP2 SWAP1 PUSH2 0x2959 JUMP JUMPDEST PUSH2 0x1F1F JUMP JUMPDEST STOP JUMPDEST PUSH1 0x14 DUP2 JUMP JUMPDEST PUSH2 0x1AA PUSH1 0x20 MSTORE DUP2 PUSH1 0x0 MSTORE PUSH1 0x40 PUSH1 0x0 KECCAK256 DUP2 DUP2 SLOAD DUP2 LT PUSH2 0x481 JUMPI PUSH1 0x0 DUP1 REVERT JUMPDEST SWAP1 PUSH1 0x0 MSTORE PUSH1 0x20 PUSH1 0x0 KECCAK256 ADD PUSH1 0x0 SWAP2 POP SWAP2 POP SWAP1 SLOAD SWAP1 PUSH2 0x100 EXP SWAP1 DIV PUSH20 0xFFFFFFFFFFFFFFFFFFFFFFFFFFFFFFFFFFFFFFFF AND DUP2 JUMP JUMPDEST PUSH2 0x4BB PUSH2 0x21A5 JUMP JUMPDEST PUSH2 0x1A7 PUSH1 0x0 DUP4 PUSH20 0xFFFFFFFFFFFFFFFFFFFFFFFFFFFFFFFFFFFFFFFF AND PUSH20 0xFFFFFFFFFFFFFFFFFFFFFFFFFFFFFFFFFFFFFFFF AND DUP2 MSTORE PUSH1 0x20 ADD SWAP1 DUP2 MSTORE PUSH1 0x20 ADD PUSH1 0x0 KECCAK256 PUSH1 0x0 SWAP1 SLOAD SWAP1 PUSH2 0x100 EXP SWAP1 DIV PUSH1 0xFF AND PUSH2 0x548 JUMPI PUSH1 0x40 MLOAD PUSH32 0x8C379A000000000000000000000000000000000000000000000000000000000 DUP2 MSTORE PUSH1 0x4 ADD PUSH2 0x53F SWAP1 PUSH2 0x2A2F JUMP JUMPDEST PUSH1 0x40 MLOAD DUP1 SWAP2 SUB SWAP1 REVERT JUMPDEST PUSH2 0x1A8 PUSH1 0x0 DUP4 PUSH20 0xFFFFFFFFFFFFFFFFFFFFFFFFFFFFFFFFFFFFFFFF AND PUSH20 0xFFFFFFFFFFFFFFFFFFFFFFFFFFFFFFFFFFFFFFFF AND DUP2 MSTORE PUSH1 0x20 ADD SWAP1 DUP2 MSTORE PUSH1 0x20 ADD PUSH1 0x0 KECCAK256 PUSH1 0x2 DUP1 PUSH1 0x20 MUL PUSH1 0x40 MLOAD SWAP1 DUP2 ADD PUSH1 0x40 MSTORE DUP1 SWAP3 SWAP2 SWAP1 DUP3 PUSH1 0x2 DUP1 ISZERO PUSH2 0x5E5 JUMPI PUSH1 0x20 MUL DUP3 ADD SWAP2 PUSH1 0x0 SWAP1 JUMPDEST DUP3 DUP3 SWAP1 SLOAD SWAP1 PUSH2 0x100 EXP SWAP1 DIV PUSH1 0xFF AND PUSH1 0xFF AND DUP2 MSTORE PUSH1 0x20 ADD SWAP1 PUSH1 0x1 ADD SWAP1 PUSH1 0x20 DUP3 PUSH1 0x0 ADD DIV SWAP3 DUP4 ADD SWAP3 PUSH1 0x1 SUB DUP3 MUL SWAP2 POP DUP1 DUP5 GT PUSH2 0x5AE JUMPI SWAP1 POP JUMPDEST POP POP POP POP POP SWAP1 POP SWAP2 SWAP1 POP JUMP JUMPDEST PUSH1 0x0 PUSH1 0x14 PUSH1 0xFF AND DUP4 PUSH1 0xFF AND LT DUP1 ISZERO PUSH2 0x60F JUMPI POP PUSH1 0x14 PUSH1 0xFF AND DUP3 PUSH1 0xFF AND LT JUMPDEST PUSH2 0x64E JUMPI PUSH1 0x40 MLOAD PUSH32 0x8C379A000000000000000000000000000000000000000000000000000000000 DUP2 MSTORE PUSH1 0x4 ADD PUSH2 0x645 SWAP1 PUSH2 0x2A9B JUMP JUMPDEST PUSH1 0x40 MLOAD DUP1 SWAP2 SUB SWAP1 REVERT JUMPDEST PUSH1 0x3 DUP4 PUSH1 0xFF AND PUSH1 0x14 DUP2 LT PUSH2 0x665 JUMPI PUSH2 0x664 PUSH2 0x2ABB JUMP JUMPDEST JUMPDEST PUSH1 0x14 MUL ADD DUP3 PUSH1 0xFF AND PUSH1 0x14 DUP2 LT PUSH2 0x67E JUMPI PUSH2 0x67D PUSH2 0x2ABB JUMP JUMPDEST JUMPDEST ADD PUSH1 0x0 ADD PUSH1 0x0 SWAP1 SLOAD SWAP1 PUSH2 0x100 EXP SWAP1 DIV PUSH1 0xFF AND SWAP1 POP SWAP3 SWAP2 POP POP JUMP JUMPDEST PUSH2 0x1A7 PUSH1 0x20 MSTORE DUP1 PUSH1 0x0 MSTORE PUSH1 0x40 PUSH1 0x0 KECCAK256 PUSH1 0x0 SWAP2 POP SLOAD SWAP1 PUSH2 0x100 EXP SWAP1 DIV PUSH1 0xFF AND DUP2 JUMP JUMPDEST PUSH1 0x14 PUSH1 0xFF AND DUP3 PUSH1 0xFF AND LT DUP1 ISZERO PUSH2 0x6D5 JUMPI POP PUSH1 0x14 PUSH1 0xFF AND DUP2 PUSH1 0xFF AND LT JUMPDEST PUSH2 0x714 JUMPI PUSH1 0x40 MLOAD PUSH32 0x8C379A000000000000000000000000000000000000000000000000000000000 DUP2 MSTORE PUSH1 0x4 ADD PUSH2 0x70B SWAP1 PUSH2 0x2A9B JUMP JUMPDEST PUSH1 0x40 MLOAD DUP1 SWAP2 SUB SWAP1 REVERT JUMPDEST PUSH1 0x3 DUP3 PUSH1 0xFF AND PUSH1 0x14 DUP2 LT PUSH2 0x72B JUMPI PUSH2 0x72A PUSH2 0x2ABB JUMP JUMPDEST JUMPDEST PUSH1 0x14 MUL ADD DUP2 PUSH1 0xFF AND PUSH1 0x14 DUP2 LT PUSH2 0x744 JUMPI PUSH2 0x743 PUSH2 0x2ABB JUMP JUMPDEST JUMPDEST ADD PUSH1 0x0 ADD PUSH1 0x0 SWAP1 SLOAD SWAP1 PUSH2 0x100 EXP SWAP1 DIV PUSH1 0xFF AND PUSH2 0x795 JUMPI PUSH1 0x40 MLOAD PUSH32 0x8C379A000000000000000000000000000000000000000000000000000000000 DUP2 MSTORE PUSH1 0x4 ADD PUSH2 0x78C SWAP1 PUSH2 0x2B36 JUMP JUMPDEST PUSH1 0x40 MLOAD DUP1 SWAP2 SUB SWAP1 REVERT JUMPDEST PUSH1 0x3 DUP3 PUSH1 0xFF AND PUSH1 0x14 DUP2 LT PUSH2 0x7AC JUMPI PUSH2 0x7AB PUSH2 0x2ABB JUMP JUMPDEST JUMPDEST PUSH1 0x14 MUL ADD DUP2 PUSH1 0xFF AND PUSH1 0x14 DUP2 LT PUSH2 0x7C5 JUMPI PUSH2 0x7C4 PUSH2 0x2ABB JUMP JUMPDEST JUMPDEST ADD PUSH1 0x0 ADD PUSH1 0x15 SWAP1 SLOAD SWAP1 PUSH2 0x100 EXP SWAP1 DIV PUSH1 0xFF AND PUSH2 0x816 JUMPI PUSH1 0x40 MLOAD PUSH32 0x8C379A000000000000000000000000000000000000000000000000000000000 DUP2 MSTORE PUSH1 0x4 ADD PUSH2 0x80D SWAP1 PUSH2 0x2BA2 JUMP JUMPDEST PUSH1 0x40 MLOAD DUP1 SWAP2 SUB SWAP1 REVERT JUMPDEST PUSH2 0x1A7 PUSH1 0x0 CALLER PUSH20 0xFFFFFFFFFFFFFFFFFFFFFFFFFFFFFFFFFFFFFFFF AND PUSH20 0xFFFFFFFFFFFFFFFFFFFFFFFFFFFFFFFFFFFFFFFF AND DUP2 MSTORE PUSH1 0x20 ADD SWAP1 DUP2 MSTORE PUSH1 0x20 ADD PUSH1 0x0 KECCAK256 PUSH1 0x0 SWAP1 SLOAD SWAP1 PUSH2 0x100 EXP SWAP1 DIV PUSH1 0xFF AND ISZERO PUSH2 0x8A4 JUMPI PUSH1 0x40 MLOAD PUSH32 0x8C379A000000000000000000000000000000000000000000000000000000000 DUP2 MSTORE PUSH1 0x4 ADD PUSH2 0x89B SWAP1 PUSH2 0x2C0E JUMP JUMPDEST PUSH1 0x40 MLOAD DUP1 SWAP2 SUB SWAP1 REVERT JUMPDEST PUSH1 0x0 PUSH1 0x3 DUP4 PUSH1 0xFF AND PUSH1 0x14 DUP2 LT PUSH2 0x8BD JUMPI PUSH2 0x8BC PUSH2 0x2ABB JUMP JUMPDEST JUMPDEST PUSH1 0x14 MUL ADD DUP3 PUSH1 0xFF AND PUSH1 0x14 DUP2 LT PUSH2 0x8D6 JUMPI PUSH2 0x8D5 PUSH2 0x2ABB JUMP JUMPDEST JUMPDEST ADD PUSH1 0x0 ADD PUSH1 0x1 SWAP1 SLOAD SWAP1 PUSH2 0x100 EXP SWAP1 DIV PUSH20 0xFFFFFFFFFFFFFFFFFFFFFFFFFFFFFFFFFFFFFFFF AND SWAP1 POP CALLER PUSH1 0x3 DUP5 PUSH1 0xFF AND PUSH1 0x14 DUP2 LT PUSH2 0x915 JUMPI PUSH2 0x914 PUSH2 0x2ABB JUMP JUMPDEST JUMPDEST PUSH1 0x14 MUL ADD DUP4 PUSH1 0xFF AND PUSH1 0x14 DUP2 LT PUSH2 0x92E JUMPI PUSH2 0x92D PUSH2 0x2ABB JUMP JUMPDEST JUMPDEST ADD PUSH1 0x0 ADD PUSH1 0x1 PUSH2 0x100 EXP DUP2 SLOAD DUP2 PUSH20 0xFFFFFFFFFFFFFFFFFFFFFFFFFFFFFFFFFFFFFFFF MUL NOT AND SWAP1 DUP4 PUSH20 0xFFFFFFFFFFFFFFFFFFFFFFFFFFFFFFFFFFFFFFFF AND MUL OR SWAP1 SSTORE POP PUSH1 0x0 PUSH1 0x3 DUP5 PUSH1 0xFF AND PUSH1 0x14 DUP2 LT PUSH2 0x989 JUMPI PUSH2 0x988 PUSH2 0x2ABB JUMP JUMPDEST JUMPDEST PUSH1 0x14 MUL ADD DUP4 PUSH1 0xFF AND PUSH1 0x14 DUP2 LT PUSH2 0x9A2 JUMPI PUSH2 0x9A1 PUSH2 0x2ABB JUMP JUMPDEST JUMPDEST ADD PUSH1 0x0 ADD PUSH1 0x15 PUSH2 0x100 EXP DUP2 SLOAD DUP2 PUSH1 0xFF MUL NOT AND SWAP1 DUP4 ISZERO ISZERO MUL OR SWAP1 SSTORE POP PUSH1 0x0 PUSH2 0x1AA PUSH1 0x0 DUP4 PUSH20 0xFFFFFFFFFFFFFFFFFFFFFFFFFFFFFFFFFFFFFFFF AND PUSH20 0xFFFFFFFFFFFFFFFFFFFFFFFFFFFFFFFFFFFFFFFF AND DUP2 MSTORE PUSH1 0x20 ADD SWAP1 DUP2 MSTORE PUSH1 0x20 ADD PUSH1 0x0 KECCAK256 SWAP1 POP PUSH1 0x0 JUMPDEST DUP2 DUP1 SLOAD SWAP1 POP DUP2 LT ISZERO PUSH2 0xB3F JUMPI PUSH1 0x0 DUP3 DUP3 DUP2 SLOAD DUP2 LT PUSH2 0xA25 JUMPI PUSH2 0xA24 PUSH2 0x2ABB JUMP JUMPDEST JUMPDEST SWAP1 PUSH1 0x0 MSTORE PUSH1 0x20 PUSH1 0x0 KECCAK256 ADD PUSH1 0x0 SWAP1 SLOAD SWAP1 PUSH2 0x100 EXP SWAP1 DIV PUSH20 0xFFFFFFFFFFFFFFFFFFFFFFFFFFFFFFFFFFFFFFFF AND SWAP1 POP CALLER PUSH2 0x1A9 PUSH1 0x0 DUP4 PUSH20 0xFFFFFFFFFFFFFFFFFFFFFFFFFFFFFFFFFFFFFFFF AND PUSH20 0xFFFFFFFFFFFFFFFFFFFFFFFFFFFFFFFFFFFFFFFF AND DUP2 MSTORE PUSH1 0x20 ADD SWAP1 DUP2 MSTORE PUSH1 0x20 ADD PUSH1 0x0 KECCAK256 PUSH1 0x0 PUSH2 0x100 EXP DUP2 SLOAD DUP2 PUSH20 0xFFFFFFFFFFFFFFFFFFFFFFFFFFFFFFFFFFFFFFFF MUL NOT AND SWAP1 DUP4 PUSH20 0xFFFFFFFFFFFFFFFFFFFFFFFFFFFFFFFFFFFFFFFF AND MUL OR SWAP1 SSTORE POP CALLER PUSH20 0xFFFFFFFFFFFFFFFFFFFFFFFFFFFFFFFFFFFFFFFF AND DUP2 PUSH20 0xFFFFFFFFFFFFFFFFFFFFFFFFFFFFFFFFFFFFFFFF AND PUSH32 0xDF63218877CB126F6C003F2B7F77327674CD6A0B53AD51DEAC392548EC12B0ED PUSH1 0x40 MLOAD PUSH1 0x40 MLOAD DUP1 SWAP2 SUB SWAP1 LOG3 POP DUP1 DUP1 PUSH2 0xB37 SWAP1 PUSH2 0x2C5D JUMP JUMPDEST SWAP2 POP POP PUSH2 0xA04 JUMP JUMPDEST POP PUSH1 0x0 PUSH2 0x1A9 PUSH1 0x0 DUP5 PUSH20 0xFFFFFFFFFFFFFFFFFFFFFFFFFFFFFFFFFFFFFFFF AND PUSH20 0xFFFFFFFFFFFFFFFFFFFFFFFFFFFFFFFFFFFFFFFF AND DUP2 MSTORE PUSH1 0x20 ADD SWAP1 DUP2 MSTORE PUSH1 0x20 ADD PUSH1 0x0 KECCAK256 PUSH1 0x0 SWAP1 SLOAD SWAP1 PUSH2 0x100 EXP SWAP1 DIV PUSH20 0xFFFFFFFFFFFFFFFFFFFFFFFFFFFFFFFFFFFFFFFF AND SWAP1 POP PUSH1 0x0 PUSH20 0xFFFFFFFFFFFFFFFFFFFFFFFFFFFFFFFFFFFFFFFF AND DUP2 PUSH20 0xFFFFFFFFFFFFFFFFFFFFFFFFFFFFFFFFFFFFFFFF AND EQ PUSH2 0xCB3 JUMPI DUP1 PUSH2 0x1A9 PUSH1 0x0 CALLER PUSH20 0xFFFFFFFFFFFFFFFFFFFFFFFFFFFFFFFFFFFFFFFF AND PUSH20 0xFFFFFFFFFFFFFFFFFFFFFFFFFFFFFFFFFFFFFFFF AND DUP2 MSTORE PUSH1 0x20 ADD SWAP1 DUP2 MSTORE PUSH1 0x20 ADD PUSH1 0x0 KECCAK256 PUSH1 0x0 PUSH2 0x100 EXP DUP2 SLOAD DUP2 PUSH20 0xFFFFFFFFFFFFFFFFFFFFFFFFFFFFFFFFFFFFFFFF MUL NOT AND SWAP1 DUP4 PUSH20 0xFFFFFFFFFFFFFFFFFFFFFFFFFFFFFFFFFFFFFFFF AND MUL OR SWAP1 SSTORE POP DUP1 PUSH20 0xFFFFFFFFFFFFFFFFFFFFFFFFFFFFFFFFFFFFFFFF AND CALLER PUSH20 0xFFFFFFFFFFFFFFFFFFFFFFFFFFFFFFFFFFFFFFFF AND PUSH32 0xDF63218877CB126F6C003F2B7F77327674CD6A0B53AD51DEAC392548EC12B0ED PUSH1 0x40 MLOAD PUSH1 0x40 MLOAD DUP1 SWAP2 SUB SWAP1 LOG3 JUMPDEST DUP2 PUSH2 0x1AA PUSH1 0x0 CALLER PUSH20 0xFFFFFFFFFFFFFFFFFFFFFFFFFFFFFFFFFFFFFFFF AND PUSH20 0xFFFFFFFFFFFFFFFFFFFFFFFFFFFFFFFFFFFFFFFF AND DUP2 MSTORE PUSH1 0x20 ADD SWAP1 DUP2 MSTORE PUSH1 0x20 ADD PUSH1 0x0 KECCAK256 SWAP1 DUP1 SLOAD PUSH2 0xD02 SWAP3 SWAP2 SWAP1 PUSH2 0x21C7 JUMP JUMPDEST POP PUSH2 0x1AA PUSH1 0x0 DUP5 PUSH20 0xFFFFFFFFFFFFFFFFFFFFFFFFFFFFFFFFFFFFFFFF AND PUSH20 0xFFFFFFFFFFFFFFFFFFFFFFFFFFFFFFFFFFFFFFFF AND DUP2 MSTORE PUSH1 0x20 ADD SWAP1 DUP2 MSTORE PUSH1 0x20 ADD PUSH1 0x0 KECCAK256 PUSH1 0x0 PUSH2 0xD4F SWAP2 SWAP1 PUSH2 0x2219 JUMP JUMPDEST PUSH1 0x0 PUSH2 0x1A9 PUSH1 0x0 DUP6 PUSH20 0xFFFFFFFFFFFFFFFFFFFFFFFFFFFFFFFFFFFFFFFF AND PUSH20 0xFFFFFFFFFFFFFFFFFFFFFFFFFFFFFFFFFFFFFFFF AND DUP2 MSTORE PUSH1 0x20 ADD SWAP1 DUP2 MSTORE PUSH1 0x20 ADD PUSH1 0x0 KECCAK256 PUSH1 0x0 PUSH2 0x100 EXP DUP2 SLOAD DUP2 PUSH20 0xFFFFFFFFFFFFFFFFFFFFFFFFFFFFFFFFFFFFFFFF MUL NOT AND SWAP1 DUP4 PUSH20 0xFFFFFFFFFFFFFFFFFFFFFFFFFFFFFFFFFFFFFFFF AND MUL OR SWAP1 SSTORE POP PUSH1 0x1 PUSH2 0x1A7 PUSH1 0x0 CALLER PUSH20 0xFFFFFFFFFFFFFFFFFFFFFFFFFFFFFFFFFFFFFFFF AND PUSH20 0xFFFFFFFFFFFFFFFFFFFFFFFFFFFFFFFFFFFFFFFF AND DUP2 MSTORE PUSH1 0x20 ADD SWAP1 DUP2 MSTORE PUSH1 0x20 ADD PUSH1 0x0 KECCAK256 PUSH1 0x0 PUSH2 0x100 EXP DUP2 SLOAD DUP2 PUSH1 0xFF MUL NOT AND SWAP1 DUP4 ISZERO ISZERO MUL OR SWAP1 SSTORE POP PUSH1 0x0 PUSH2 0x1A7 PUSH1 0x0 DUP6 PUSH20 0xFFFFFFFFFFFFFFFFFFFFFFFFFFFFFFFFFFFFFFFF AND PUSH20 0xFFFFFFFFFFFFFFFFFFFFFFFFFFFFFFFFFFFFFFFF AND DUP2 MSTORE PUSH1 0x20 ADD SWAP1 DUP2 MSTORE PUSH1 0x20 ADD PUSH1 0x0 KECCAK256 PUSH1 0x0 PUSH2 0x100 EXP DUP2 SLOAD DUP2 PUSH1 0xFF MUL NOT AND SWAP1 DUP4 ISZERO ISZERO MUL OR SWAP1 SSTORE POP PUSH1 0x40 MLOAD DUP1 PUSH1 0x40 ADD PUSH1 0x40 MSTORE DUP1 DUP7 PUSH1 0xFF AND PUSH1 0xFF AND DUP2 MSTORE PUSH1 0x20 ADD DUP6 PUSH1 0xFF AND PUSH1 0xFF AND DUP2 MSTORE POP PUSH2 0x1A8 PUSH1 0x0 CALLER PUSH20 0xFFFFFFFFFFFFFFFFFFFFFFFFFFFFFFFFFFFFFFFF AND PUSH20 0xFFFFFFFFFFFFFFFFFFFFFFFFFFFFFFFFFFFFFFFF AND DUP2 MSTORE PUSH1 0x20 ADD SWAP1 DUP2 MSTORE PUSH1 0x20 ADD PUSH1 0x0 KECCAK256 SWAP1 PUSH1 0x2 PUSH2 0xEF0 SWAP3 SWAP2 SWAP1 PUSH2 0x223A JUMP JUMPDEST POP PUSH32 0x19C0182F0D6040E7F43AA17E1C6584130BDBC8DA2E4AC4D2050593808B77A771 DUP6 DUP6 PUSH1 0x1 CALLER PUSH1 0x40 MLOAD PUSH2 0xF27 SWAP5 SWAP4 SWAP3 SWAP2 SWAP1 PUSH2 0x2CA5 JUMP JUMPDEST PUSH1 0x40 MLOAD DUP1 SWAP2 SUB SWAP1 LOG1 POP POP POP POP POP JUMP JUMPDEST PUSH2 0x1A8 PUSH1 0x20 MSTORE DUP2 PUSH1 0x0 MSTORE PUSH1 0x40 PUSH1 0x0 KECCAK256 DUP2 PUSH1 0x2 DUP2 LT PUSH2 0xF53 JUMPI PUSH1 0x0 DUP1 REVERT JUMPDEST PUSH1 0x20 SWAP2 DUP3 DUP3 DIV ADD SWAP2 SWAP1 MOD SWAP2 POP SWAP2 POP SWAP1 SLOAD SWAP1 PUSH2 0x100 EXP SWAP1 DIV PUSH1 0xFF AND DUP2 JUMP JUMPDEST PUSH1 0x1 PUSH1 0x0 SWAP1 SLOAD SWAP1 PUSH2 0x100 EXP SWAP1 DIV PUSH20 0xFFFFFFFFFFFFFFFFFFFFFFFFFFFFFFFFFFFFFFFF AND DUP2 JUMP JUMPDEST PUSH1 0x0 PUSH2 0x1A9 PUSH1 0x0 DUP4 PUSH20 0xFFFFFFFFFFFFFFFFFFFFFFFFFFFFFFFFFFFFFFFF AND PUSH20 0xFFFFFFFFFFFFFFFFFFFFFFFFFFFFFFFFFFFFFFFF AND DUP2 MSTORE PUSH1 0x20 ADD SWAP1 DUP2 MSTORE PUSH1 0x20 ADD PUSH1 0x0 KECCAK256 PUSH1 0x0 SWAP1 SLOAD SWAP1 PUSH2 0x100 EXP SWAP1 DIV PUSH20 0xFFFFFFFFFFFFFFFFFFFFFFFFFFFFFFFFFFFFFFFF AND SWAP1 POP SWAP2 SWAP1 POP JUMP JUMPDEST PUSH1 0x14 PUSH1 0xFF AND DUP4 PUSH1 0xFF AND LT DUP1 ISZERO PUSH2 0x101C JUMPI POP PUSH1 0x14 PUSH1 0xFF AND DUP3 PUSH1 0xFF AND LT JUMPDEST PUSH2 0x105B JUMPI PUSH1 0x40 MLOAD PUSH32 0x8C379A000000000000000000000000000000000000000000000000000000000 DUP2 MSTORE PUSH1 0x4 ADD PUSH2 0x1052 SWAP1 PUSH2 0x2A9B JUMP JUMPDEST PUSH1 0x40 MLOAD DUP1 SWAP2 SUB SWAP1 REVERT JUMPDEST PUSH1 0x3 DUP4 PUSH1 0xFF AND PUSH1 0x14 DUP2 LT PUSH2 0x1072 JUMPI PUSH2 0x1071 PUSH2 0x2ABB JUMP JUMPDEST JUMPDEST PUSH1 0x14 MUL ADD DUP3 PUSH1 0xFF AND PUSH1 0x14 DUP2 LT PUSH2 0x108B JUMPI PUSH2 0x108A PUSH2 0x2ABB JUMP JUMPDEST JUMPDEST ADD PUSH1 0x0 ADD PUSH1 0x0 SWAP1 SLOAD SWAP1 PUSH2 0x100 EXP SWAP1 DIV PUSH1 0xFF AND ISZERO PUSH2 0x10DD JUMPI PUSH1 0x40 MLOAD PUSH32 0x8C379A000000000000000000000000000000000000000000000000000000000 DUP2 MSTORE PUSH1 0x4 ADD PUSH2 0x10D4 SWAP1 PUSH2 0x2D36 JUMP JUMPDEST PUSH1 0x40 MLOAD DUP1 SWAP2 SUB SWAP1 REVERT JUMPDEST PUSH2 0x1A7 PUSH1 0x0 CALLER PUSH20 0xFFFFFFFFFFFFFFFFFFFFFFFFFFFFFFFFFFFFFFFF AND PUSH20 0xFFFFFFFFFFFFFFFFFFFFFFFFFFFFFFFFFFFFFFFF AND DUP2 MSTORE PUSH1 0x20 ADD SWAP1 DUP2 MSTORE PUSH1 0x20 ADD PUSH1 0x0 KECCAK256 PUSH1 0x0 SWAP1 SLOAD SWAP1 PUSH2 0x100 EXP SWAP1 DIV PUSH1 0xFF AND ISZERO PUSH2 0x116B JUMPI PUSH1 0x40 MLOAD PUSH32 0x8C379A000000000000000000000000000000000000000000000000000000000 DUP2 MSTORE PUSH1 0x4 ADD PUSH2 0x1162 SWAP1 PUSH2 0x2DA2 JUMP JUMPDEST PUSH1 0x40 MLOAD DUP1 SWAP2 SUB SWAP1 REVERT JUMPDEST PUSH1 0x0 PUSH20 0xFFFFFFFFFFFFFFFFFFFFFFFFFFFFFFFFFFFFFFFF AND DUP2 PUSH20 0xFFFFFFFFFFFFFFFFFFFFFFFFFFFFFFFFFFFFFFFF AND SUB PUSH2 0x1407 JUMPI PUSH1 0x0 PUSH20 0xFFFFFFFFFFFFFFFFFFFFFFFFFFFFFFFFFFFFFFFF AND PUSH2 0x1A9 PUSH1 0x0 CALLER PUSH20 0xFFFFFFFFFFFFFFFFFFFFFFFFFFFFFFFFFFFFFFFF AND PUSH20 0xFFFFFFFFFFFFFFFFFFFFFFFFFFFFFFFFFFFFFFFF AND DUP2 MSTORE PUSH1 0x20 ADD SWAP1 DUP2 MSTORE PUSH1 0x20 ADD PUSH1 0x0 KECCAK256 PUSH1 0x0 SWAP1 SLOAD SWAP1 PUSH2 0x100 EXP SWAP1 DIV PUSH20 0xFFFFFFFFFFFFFFFFFFFFFFFFFFFFFFFFFFFFFFFF AND PUSH20 0xFFFFFFFFFFFFFFFFFFFFFFFFFFFFFFFFFFFFFFFF AND EQ PUSH2 0x126E JUMPI PUSH1 0x40 MLOAD PUSH32 0x8C379A000000000000000000000000000000000000000000000000000000000 DUP2 MSTORE PUSH1 0x4 ADD PUSH2 0x1265 SWAP1 PUSH2 0x2E0E JUMP JUMPDEST PUSH1 0x40 MLOAD DUP1 SWAP2 SUB SWAP1 REVERT JUMPDEST PUSH1 0x0 PUSH20 0xB17D9315F2BE27E5A1D897412BF5A6C3949449A4 SWAP1 POP DUP1 PUSH2 0x1A9 PUSH1 0x0 CALLER PUSH20 0xFFFFFFFFFFFFFFFFFFFFFFFFFFFFFFFFFFFFFFFF AND PUSH20 0xFFFFFFFFFFFFFFFFFFFFFFFFFFFFFFFFFFFFFFFF AND DUP2 MSTORE PUSH1 0x20 ADD SWAP1 DUP2 MSTORE PUSH1 0x20 ADD PUSH1 0x0 KECCAK256 PUSH1 0x0 PUSH2 0x100 EXP DUP2 SLOAD DUP2 PUSH20 0xFFFFFFFFFFFFFFFFFFFFFFFFFFFFFFFFFFFFFFFF MUL NOT AND SWAP1 DUP4 PUSH20 0xFFFFFFFFFFFFFFFFFFFFFFFFFFFFFFFFFFFFFFFF AND MUL OR SWAP1 SSTORE POP PUSH2 0x1AA PUSH1 0x0 DUP3 PUSH20 0xFFFFFFFFFFFFFFFFFFFFFFFFFFFFFFFFFFFFFFFF AND PUSH20 0xFFFFFFFFFFFFFFFFFFFFFFFFFFFFFFFFFFFFFFFF AND DUP2 MSTORE PUSH1 0x20 ADD SWAP1 DUP2 MSTORE PUSH1 0x20 ADD PUSH1 0x0 KECCAK256 CALLER SWAP1 DUP1 PUSH1 0x1 DUP2 SLOAD ADD DUP1 DUP3 SSTORE DUP1 SWAP2 POP POP PUSH1 0x1 SWAP1 SUB SWAP1 PUSH1 0x0 MSTORE PUSH1 0x20 PUSH1 0x0 KECCAK256 ADD PUSH1 0x0 SWAP1 SWAP2 SWAP1 SWAP2 SWAP1 SWAP2 PUSH2 0x100 EXP DUP2 SLOAD DUP2 PUSH20 0xFFFFFFFFFFFFFFFFFFFFFFFFFFFFFFFFFFFFFFFF MUL NOT AND SWAP1 DUP4 PUSH20 0xFFFFFFFFFFFFFFFFFFFFFFFFFFFFFFFFFFFFFFFF AND MUL OR SWAP1 SSTORE POP DUP1 PUSH20 0xFFFFFFFFFFFFFFFFFFFFFFFFFFFFFFFFFFFFFFFF AND CALLER PUSH20 0xFFFFFFFFFFFFFFFFFFFFFFFFFFFFFFFFFFFFFFFF AND PUSH32 0xDF63218877CB126F6C003F2B7F77327674CD6A0B53AD51DEAC392548EC12B0ED PUSH1 0x40 MLOAD PUSH1 0x40 MLOAD DUP1 SWAP2 SUB SWAP1 LOG3 POP PUSH2 0x174C JUMP JUMPDEST PUSH1 0x0 PUSH20 0xFFFFFFFFFFFFFFFFFFFFFFFFFFFFFFFFFFFFFFFF AND PUSH2 0x1A9 PUSH1 0x0 CALLER PUSH20 0xFFFFFFFFFFFFFFFFFFFFFFFFFFFFFFFFFFFFFFFF AND PUSH20 0xFFFFFFFFFFFFFFFFFFFFFFFFFFFFFFFFFFFFFFFF AND DUP2 MSTORE PUSH1 0x20 ADD SWAP1 DUP2 MSTORE PUSH1 0x20 ADD PUSH1 0x0 KECCAK256 PUSH1 0x0 SWAP1 SLOAD SWAP1 PUSH2 0x100 EXP SWAP1 DIV PUSH20 0xFFFFFFFFFFFFFFFFFFFFFFFFFFFFFFFFFFFFFFFF AND PUSH20 0xFFFFFFFFFFFFFFFFFFFFFFFFFFFFFFFFFFFFFFFF AND EQ PUSH2 0x14D6 JUMPI PUSH1 0x40 MLOAD PUSH32 0x8C379A000000000000000000000000000000000000000000000000000000000 DUP2 MSTORE PUSH1 0x4 ADD PUSH2 0x14CD SWAP1 PUSH2 0x2E0E JUMP JUMPDEST PUSH1 0x40 MLOAD DUP1 SWAP2 SUB SWAP1 REVERT JUMPDEST CALLER PUSH20 0xFFFFFFFFFFFFFFFFFFFFFFFFFFFFFFFFFFFFFFFF AND DUP2 PUSH20 0xFFFFFFFFFFFFFFFFFFFFFFFFFFFFFFFFFFFFFFFF AND SUB PUSH2 0x1544 JUMPI PUSH1 0x40 MLOAD PUSH32 0x8C379A000000000000000000000000000000000000000000000000000000000 DUP2 MSTORE PUSH1 0x4 ADD PUSH2 0x153B SWAP1 PUSH2 0x2E7A JUMP JUMPDEST PUSH1 0x40 MLOAD DUP1 SWAP2 SUB SWAP1 REVERT JUMPDEST PUSH2 0x1A7 PUSH1 0x0 DUP3 PUSH20 0xFFFFFFFFFFFFFFFFFFFFFFFFFFFFFFFFFFFFFFFF AND PUSH20 0xFFFFFFFFFFFFFFFFFFFFFFFFFFFFFFFFFFFFFFFF AND DUP2 MSTORE PUSH1 0x20 ADD SWAP1 DUP2 MSTORE PUSH1 0x20 ADD PUSH1 0x0 KECCAK256 PUSH1 0x0 SWAP1 SLOAD SWAP1 PUSH2 0x100 EXP SWAP1 DIV PUSH1 0xFF AND PUSH2 0x15D1 JUMPI PUSH1 0x40 MLOAD PUSH32 0x8C379A000000000000000000000000000000000000000000000000000000000 DUP2 MSTORE PUSH1 0x4 ADD PUSH2 0x15C8 SWAP1 PUSH2 0x2F0C JUMP JUMPDEST PUSH1 0x40 MLOAD DUP1 SWAP2 SUB SWAP1 REVERT JUMPDEST DUP1 PUSH2 0x1A9 PUSH1 0x0 CALLER PUSH20 0xFFFFFFFFFFFFFFFFFFFFFFFFFFFFFFFFFFFFFFFF AND PUSH20 0xFFFFFFFFFFFFFFFFFFFFFFFFFFFFFFFFFFFFFFFF AND DUP2 MSTORE PUSH1 0x20 ADD SWAP1 DUP2 MSTORE PUSH1 0x20 ADD PUSH1 0x0 KECCAK256 PUSH1 0x0 PUSH2 0x100 EXP DUP2 SLOAD DUP2 PUSH20 0xFFFFFFFFFFFFFFFFFFFFFFFFFFFFFFFFFFFFFFFF MUL NOT AND SWAP1 DUP4 PUSH20 0xFFFFFFFFFFFFFFFFFFFFFFFFFFFFFFFFFFFFFFFF AND MUL OR SWAP1 SSTORE POP PUSH2 0x1AA PUSH1 0x0 DUP3 PUSH20 0xFFFFFFFFFFFFFFFFFFFFFFFFFFFFFFFFFFFFFFFF AND PUSH20 0xFFFFFFFFFFFFFFFFFFFFFFFFFFFFFFFFFFFFFFFF AND DUP2 MSTORE PUSH1 0x20 ADD SWAP1 DUP2 MSTORE PUSH1 0x20 ADD PUSH1 0x0 KECCAK256 CALLER SWAP1 DUP1 PUSH1 0x1 DUP2 SLOAD ADD DUP1 DUP3 SSTORE DUP1 SWAP2 POP POP PUSH1 0x1 SWAP1 SUB SWAP1 PUSH1 0x0 MSTORE PUSH1 0x20 PUSH1 0x0 KECCAK256 ADD PUSH1 0x0 SWAP1 SWAP2 SWAP1 SWAP2 SWAP1 SWAP2 PUSH2 0x100 EXP DUP2 SLOAD DUP2 PUSH20 0xFFFFFFFFFFFFFFFFFFFFFFFFFFFFFFFFFFFFFFFF MUL NOT AND SWAP1 DUP4 PUSH20 0xFFFFFFFFFFFFFFFFFFFFFFFFFFFFFFFFFFFFFFFF AND MUL OR SWAP1 SSTORE POP DUP1 PUSH20 0xFFFFFFFFFFFFFFFFFFFFFFFFFFFFFFFFFFFFFFFF AND CALLER PUSH20 0xFFFFFFFFFFFFFFFFFFFFFFFFFFFFFFFFFFFFFFFF AND PUSH32 0xDF63218877CB126F6C003F2B7F77327674CD6A0B53AD51DEAC392548EC12B0ED PUSH1 0x40 MLOAD PUSH1 0x40 MLOAD DUP1 SWAP2 SUB SWAP1 LOG3 JUMPDEST PUSH1 0x1 PUSH1 0x3 DUP5 PUSH1 0xFF AND PUSH1 0x14 DUP2 LT PUSH2 0x1765 JUMPI PUSH2 0x1764 PUSH2 0x2ABB JUMP JUMPDEST JUMPDEST PUSH1 0x14 MUL ADD DUP4 PUSH1 0xFF AND PUSH1 0x14 DUP2 LT PUSH2 0x177E JUMPI PUSH2 0x177D PUSH2 0x2ABB JUMP JUMPDEST JUMPDEST ADD PUSH1 0x0 ADD PUSH1 0x0 PUSH2 0x100 EXP DUP2 SLOAD DUP2 PUSH1 0xFF MUL NOT AND SWAP1 DUP4 ISZERO ISZERO MUL OR SWAP1 SSTORE POP CALLER PUSH1 0x3 DUP5 PUSH1 0xFF AND PUSH1 0x14 DUP2 LT PUSH2 0x17B1 JUMPI PUSH2 0x17B0 PUSH2 0x2ABB JUMP JUMPDEST JUMPDEST PUSH1 0x14 MUL ADD DUP4 PUSH1 0xFF AND PUSH1 0x14 DUP2 LT PUSH2 0x17CA JUMPI PUSH2 0x17C9 PUSH2 0x2ABB JUMP JUMPDEST JUMPDEST ADD PUSH1 0x0 ADD PUSH1 0x1 PUSH2 0x100 EXP DUP2 SLOAD DUP2 PUSH20 0xFFFFFFFFFFFFFFFFFFFFFFFFFFFFFFFFFFFFFFFF MUL NOT AND SWAP1 DUP4 PUSH20 0xFFFFFFFFFFFFFFFFFFFFFFFFFFFFFFFFFFFFFFFF AND MUL OR SWAP1 SSTORE POP PUSH1 0x1 PUSH2 0x1A7 PUSH1 0x0 CALLER PUSH20 0xFFFFFFFFFFFFFFFFFFFFFFFFFFFFFFFFFFFFFFFF AND PUSH20 0xFFFFFFFFFFFFFFFFFFFFFFFFFFFFFFFFFFFFFFFF AND DUP2 MSTORE PUSH1 0x20 ADD SWAP1 DUP2 MSTORE PUSH1 0x20 ADD PUSH1 0x0 KECCAK256 PUSH1 0x0 PUSH2 0x100 EXP DUP2 SLOAD DUP2 PUSH1 0xFF MUL NOT AND SWAP1 DUP4 ISZERO ISZERO MUL OR SWAP1 SSTORE POP PUSH1 0x40 MLOAD DUP1 PUSH1 0x40 ADD PUSH1 0x40 MSTORE DUP1 DUP5 PUSH1 0xFF AND PUSH1 0xFF AND DUP2 MSTORE PUSH1 0x20 ADD DUP4 PUSH1 0xFF AND PUSH1 0xFF AND DUP2 MSTORE POP PUSH2 0x1A8 PUSH1 0x0 CALLER PUSH20 0xFFFFFFFFFFFFFFFFFFFFFFFFFFFFFFFFFFFFFFFF AND PUSH20 0xFFFFFFFFFFFFFFFFFFFFFFFFFFFFFFFFFFFFFFFF AND DUP2 MSTORE PUSH1 0x20 ADD SWAP1 DUP2 MSTORE PUSH1 0x20 ADD PUSH1 0x0 KECCAK256 SWAP1 PUSH1 0x2 PUSH2 0x18D4 SWAP3 SWAP2 SWAP1 PUSH2 0x223A JUMP JUMPDEST POP PUSH32 0x19C0182F0D6040E7F43AA17E1C6584130BDBC8DA2E4AC4D2050593808B77A771 DUP4 DUP4 PUSH1 0x1 CALLER PUSH1 0x40 MLOAD PUSH2 0x190B SWAP5 SWAP4 SWAP3 SWAP2 SWAP1 PUSH2 0x2CA5 JUMP JUMPDEST PUSH1 0x40 MLOAD DUP1 SWAP2 SUB SWAP1 LOG1 POP POP POP JUMP JUMPDEST PUSH1 0x2 PUSH1 0x0 SWAP1 SLOAD SWAP1 PUSH2 0x100 EXP SWAP1 DIV PUSH20 0xFFFFFFFFFFFFFFFFFFFFFFFFFFFFFFFFFFFFFFFF AND PUSH20 0xFFFFFFFFFFFFFFFFFFFFFFFFFFFFFFFFFFFFFFFF AND CALLER PUSH20 0xFFFFFFFFFFFFFFFFFFFFFFFFFFFFFFFFFFFFFFFF AND EQ PUSH2 0x19A8 JUMPI PUSH1 0x40 MLOAD PUSH32 0x8C379A000000000000000000000000000000000000000000000000000000000 DUP2 MSTORE PUSH1 0x4 ADD PUSH2 0x199F SWAP1 PUSH2 0x2F78 JUMP JUMPDEST PUSH1 0x40 MLOAD DUP1 SWAP2 SUB SWAP1 REVERT JUMPDEST PUSH1 0x0 ISZERO ISZERO PUSH1 0x2 PUSH1 0x14 SWAP1 SLOAD SWAP1 PUSH2 0x100 EXP SWAP1 DIV PUSH1 0xFF AND ISZERO ISZERO SUB PUSH2 0x19E3 JUMPI PUSH1 0x1 PUSH1 0x2 PUSH1 0x14 PUSH2 0x100 EXP DUP2 SLOAD DUP2 PUSH1 0xFF MUL NOT AND SWAP1 DUP4 ISZERO ISZERO MUL OR SWAP1 SSTORE POP PUSH2 0x19FF JUMP JUMPDEST PUSH1 0x0 PUSH1 0x2 PUSH1 0x14 PUSH2 0x100 EXP DUP2 SLOAD DUP2 PUSH1 0xFF MUL NOT AND SWAP1 DUP4 ISZERO ISZERO MUL OR SWAP1 SSTORE POP JUMPDEST JUMP JUMPDEST PUSH1 0x0 PUSH1 0x60 PUSH2 0x1A9 PUSH1 0x0 DUP5 PUSH20 0xFFFFFFFFFFFFFFFFFFFFFFFFFFFFFFFFFFFFFFFF AND PUSH20 0xFFFFFFFFFFFFFFFFFFFFFFFFFFFFFFFFFFFFFFFF AND DUP2 MSTORE PUSH1 0x20 ADD SWAP1 DUP2 MSTORE PUSH1 0x20 ADD PUSH1 0x0 KECCAK256 PUSH1 0x0 SWAP1 SLOAD SWAP1 PUSH2 0x100 EXP SWAP1 DIV PUSH20 0xFFFFFFFFFFFFFFFFFFFFFFFFFFFFFFFFFFFFFFFF AND PUSH2 0x1AA PUSH1 0x0 DUP6 PUSH20 0xFFFFFFFFFFFFFFFFFFFFFFFFFFFFFFFFFFFFFFFF AND PUSH20 0xFFFFFFFFFFFFFFFFFFFFFFFFFFFFFFFFFFFFFFFF AND DUP2 MSTORE PUSH1 0x20 ADD SWAP1 DUP2 MSTORE PUSH1 0x20 ADD PUSH1 0x0 KECCAK256 DUP1 DUP1 SLOAD DUP1 PUSH1 0x20 MUL PUSH1 0x20 ADD PUSH1 0x40 MLOAD SWAP1 DUP2 ADD PUSH1 0x40 MSTORE DUP1 SWAP3 SWAP2 SWAP1 DUP2 DUP2 MSTORE PUSH1 0x20 ADD DUP3 DUP1 SLOAD DUP1 ISZERO PUSH2 0x1B27 JUMPI PUSH1 0x20 MUL DUP3 ADD SWAP2 SWAP1 PUSH1 0x0 MSTORE PUSH1 0x20 PUSH1 0x0 KECCAK256 SWAP1 JUMPDEST DUP2 PUSH1 0x0 SWAP1 SLOAD SWAP1 PUSH2 0x100 EXP SWAP1 DIV PUSH20 0xFFFFFFFFFFFFFFFFFFFFFFFFFFFFFFFFFFFFFFFF AND PUSH20 0xFFFFFFFFFFFFFFFFFFFFFFFFFFFFFFFFFFFFFFFF AND DUP2 MSTORE PUSH1 0x20 ADD SWAP1 PUSH1 0x1 ADD SWAP1 DUP1 DUP4 GT PUSH2 0x1ADD JUMPI JUMPDEST POP POP POP POP POP SWAP1 POP SWAP2 POP SWAP2 POP SWAP2 POP SWAP2 JUMP JUMPDEST PUSH2 0x1B3F PUSH2 0x22D4 JUMP JUMPDEST PUSH2 0x1B47 PUSH2 0x22D4 JUMP JUMPDEST PUSH1 0x0 JUMPDEST PUSH1 0x14 PUSH1 0xFF AND DUP2 PUSH1 0xFF AND LT ISZERO PUSH2 0x1C13 JUMPI PUSH1 0x0 JUMPDEST PUSH1 0x14 PUSH1 0xFF AND DUP2 PUSH1 0xFF AND LT ISZERO PUSH2 0x1BFF JUMPI PUSH1 0x3 DUP3 PUSH1 0xFF AND PUSH1 0x14 DUP2 LT PUSH2 0x1B82 JUMPI PUSH2 0x1B81 PUSH2 0x2ABB JUMP JUMPDEST JUMPDEST PUSH1 0x14 MUL ADD DUP2 PUSH1 0xFF AND PUSH1 0x14 DUP2 LT PUSH2 0x1B9B JUMPI PUSH2 0x1B9A PUSH2 0x2ABB JUMP JUMPDEST JUMPDEST ADD PUSH1 0x0 ADD PUSH1 0x0 SWAP1 SLOAD SWAP1 PUSH2 0x100 EXP SWAP1 DIV PUSH1 0xFF AND DUP4 DUP4 PUSH1 0xFF AND PUSH1 0x14 DUP2 LT PUSH2 0x1BC3 JUMPI PUSH2 0x1BC2 PUSH2 0x2ABB JUMP JUMPDEST JUMPDEST PUSH1 0x20 MUL ADD MLOAD DUP3 PUSH1 0xFF AND PUSH1 0x14 DUP2 LT PUSH2 0x1BDD JUMPI PUSH2 0x1BDC PUSH2 0x2ABB JUMP JUMPDEST JUMPDEST PUSH1 0x20 MUL ADD SWAP1 ISZERO ISZERO SWAP1 DUP2 ISZERO ISZERO DUP2 MSTORE POP POP DUP1 DUP1 PUSH2 0x1BF7 SWAP1 PUSH2 0x2F98 JUMP JUMPDEST SWAP2 POP POP PUSH2 0x1B5C JUMP JUMPDEST POP DUP1 DUP1 PUSH2 0x1C0B SWAP1 PUSH2 0x2F98 JUMP JUMPDEST SWAP2 POP POP PUSH2 0x1B4A JUMP JUMPDEST POP DUP1 SWAP2 POP POP SWAP1 JUMP JUMPDEST PUSH1 0x3 DUP3 PUSH1 0x14 DUP2 LT PUSH2 0x1C2B JUMPI PUSH1 0x0 DUP1 REVERT JUMPDEST PUSH1 0x14 MUL ADD DUP2 PUSH1 0x14 DUP2 LT PUSH2 0x1C3D JUMPI PUSH1 0x0 DUP1 REVERT JUMPDEST ADD PUSH1 0x0 SWAP2 POP SWAP2 POP POP DUP1 PUSH1 0x0 ADD PUSH1 0x0 SWAP1 SLOAD SWAP1 PUSH2 0x100 EXP SWAP1 DIV PUSH1 0xFF AND SWAP1 DUP1 PUSH1 0x0 ADD PUSH1 0x1 SWAP1 SLOAD SWAP1 PUSH2 0x100 EXP SWAP1 DIV PUSH20 0xFFFFFFFFFFFFFFFFFFFFFFFFFFFFFFFFFFFFFFFF AND SWAP1 DUP1 PUSH1 0x0 ADD PUSH1 0x15 SWAP1 SLOAD SWAP1 PUSH2 0x100 EXP SWAP1 DIV PUSH1 0xFF AND SWAP1 POP DUP4 JUMP JUMPDEST PUSH1 0x0 PUSH1 0x14 PUSH1 0xFF AND DUP4 PUSH1 0xFF AND LT DUP1 ISZERO PUSH2 0x1CB3 JUMPI POP PUSH1 0x14 PUSH1 0xFF AND DUP3 PUSH1 0xFF AND LT JUMPDEST PUSH2 0x1CF2 JUMPI PUSH1 0x40 MLOAD PUSH32 0x8C379A000000000000000000000000000000000000000000000000000000000 DUP2 MSTORE PUSH1 0x4 ADD PUSH2 0x1CE9 SWAP1 PUSH2 0x2A9B JUMP JUMPDEST PUSH1 0x40 MLOAD DUP1 SWAP2 SUB SWAP1 REVERT JUMPDEST PUSH1 0x3 DUP4 PUSH1 0xFF AND PUSH1 0x14 DUP2 LT PUSH2 0x1D09 JUMPI PUSH2 0x1D08 PUSH2 0x2ABB JUMP JUMPDEST JUMPDEST PUSH1 0x14 MUL ADD DUP3 PUSH1 0xFF AND PUSH1 0x14 DUP2 LT PUSH2 0x1D22 JUMPI PUSH2 0x1D21 PUSH2 0x2ABB JUMP JUMPDEST JUMPDEST ADD PUSH1 0x0 ADD PUSH1 0x1 SWAP1 SLOAD SWAP1 PUSH2 0x100 EXP SWAP1 DIV PUSH20 0xFFFFFFFFFFFFFFFFFFFFFFFFFFFFFFFFFFFFFFFF AND SWAP1 POP SWAP3 SWAP2 POP POP JUMP JUMPDEST PUSH1 0x0 DUP1 SLOAD SWAP1 PUSH2 0x100 EXP SWAP1 DIV PUSH20 0xFFFFFFFFFFFFFFFFFFFFFFFFFFFFFFFFFFFFFFFF AND DUP2 JUMP JUMPDEST PUSH1 0x2 PUSH1 0x0 SWAP1 SLOAD SWAP1 PUSH2 0x100 EXP SWAP1 DIV PUSH20 0xFFFFFFFFFFFFFFFFFFFFFFFFFFFFFFFFFFFFFFFF AND DUP2 JUMP JUMPDEST PUSH2 0x193 DUP3 PUSH1 0x14 DUP2 LT PUSH2 0x1DAA JUMPI PUSH1 0x0 DUP1 REVERT JUMPDEST ADD DUP2 PUSH1 0x14 DUP2 LT PUSH2 0x1DB9 JUMPI PUSH1 0x0 DUP1 REVERT JUMPDEST PUSH1 0x20 SWAP2 DUP3 DUP3 DIV ADD SWAP2 SWAP1 MOD SWAP2 POP SWAP2 POP SWAP1 SLOAD SWAP1 PUSH2 0x100 EXP SWAP1 DIV PUSH1 0xFF AND DUP2 JUMP JUMPDEST PUSH1 0x0 DUP1 SLOAD SWAP1 PUSH2 0x100 EXP SWAP1 DIV PUSH20 0xFFFFFFFFFFFFFFFFFFFFFFFFFFFFFFFFFFFFFFFF AND PUSH20 0xFFFFFFFFFFFFFFFFFFFFFFFFFFFFFFFFFFFFFFFF AND CALLER PUSH20 0xFFFFFFFFFFFFFFFFFFFFFFFFFFFFFFFFFFFFFFFF AND EQ PUSH2 0x1E64 JUMPI PUSH1 0x40 MLOAD PUSH32 0x8C379A000000000000000000000000000000000000000000000000000000000 DUP2 MSTORE PUSH1 0x4 ADD PUSH2 0x1E5B SWAP1 PUSH2 0x300D JUMP JUMPDEST PUSH1 0x40 MLOAD DUP1 SWAP2 SUB SWAP1 REVERT JUMPDEST DUP1 PUSH1 0x1 PUSH1 0x0 PUSH2 0x100 EXP DUP2 SLOAD DUP2 PUSH20 0xFFFFFFFFFFFFFFFFFFFFFFFFFFFFFFFFFFFFFFFF MUL NOT AND SWAP1 DUP4 PUSH20 0xFFFFFFFFFFFFFFFFFFFFFFFFFFFFFFFFFFFFFFFF AND MUL OR SWAP1 SSTORE POP DUP1 PUSH20 0xFFFFFFFFFFFFFFFFFFFFFFFFFFFFFFFFFFFFFFFF AND PUSH32 0x60A0F5B9F9E81E98216071B85826681C796256FE3D1354ECB675580FBA64FA69 PUSH1 0x40 MLOAD PUSH1 0x40 MLOAD DUP1 SWAP2 SUB SWAP1 LOG2 POP JUMP JUMPDEST PUSH2 0x1A9 PUSH1 0x20 MSTORE DUP1 PUSH1 0x0 MSTORE PUSH1 0x40 PUSH1 0x0 KECCAK256 PUSH1 0x0 SWAP2 POP SLOAD SWAP1 PUSH2 0x100 EXP SWAP1 DIV PUSH20 0xFFFFFFFFFFFFFFFFFFFFFFFFFFFFFFFFFFFFFFFF AND DUP2 JUMP JUMPDEST DUP3 DUP3 PUSH1 0x1 PUSH1 0x0 SWAP1 SLOAD SWAP1 PUSH2 0x100 EXP SWAP1 DIV PUSH20 0xFFFFFFFFFFFFFFFFFFFFFFFFFFFFFFFFFFFFFFFF AND PUSH20 0xFFFFFFFFFFFFFFFFFFFFFFFFFFFFFFFFFFFFFFFF AND CALLER PUSH20 0xFFFFFFFFFFFFFFFFFFFFFFFFFFFFFFFFFFFFFFFF AND EQ DUP1 PUSH2 0x1FFC JUMPI POP PUSH1 0x3 DUP3 PUSH1 0xFF AND PUSH1 0x14 DUP2 LT PUSH2 0x1F8F JUMPI PUSH2 0x1F8E PUSH2 0x2ABB JUMP JUMPDEST JUMPDEST PUSH1 0x14 MUL ADD DUP2 PUSH1 0xFF AND PUSH1 0x14 DUP2 LT PUSH2 0x1FA8 JUMPI PUSH2 0x1FA7 PUSH2 0x2ABB JUMP JUMPDEST JUMPDEST ADD PUSH1 0x0 ADD PUSH1 0x1 SWAP1 SLOAD SWAP1 PUSH2 0x100 EXP SWAP1 DIV PUSH20 0xFFFFFFFFFFFFFFFFFFFFFFFFFFFFFFFFFFFFFFFF AND PUSH20 0xFFFFFFFFFFFFFFFFFFFFFFFFFFFFFFFFFFFFFFFF AND CALLER PUSH20 0xFFFFFFFFFFFFFFFFFFFFFFFFFFFFFFFFFFFFFFFF AND EQ JUMPDEST PUSH2 0x203B JUMPI PUSH1 0x40 MLOAD PUSH32 0x8C379A000000000000000000000000000000000000000000000000000000000 DUP2 MSTORE PUSH1 0x4 ADD PUSH2 0x2032 SWAP1 PUSH2 0x309F JUMP JUMPDEST PUSH1 0x40 MLOAD DUP1 SWAP2 SUB SWAP1 REVERT JUMPDEST PUSH1 0x14 PUSH1 0xFF AND DUP6 PUSH1 0xFF AND LT DUP1 ISZERO PUSH2 0x2057 JUMPI POP PUSH1 0x14 PUSH1 0xFF AND DUP5 PUSH1 0xFF AND LT JUMPDEST PUSH2 0x2096 JUMPI PUSH1 0x40 MLOAD PUSH32 0x8C379A000000000000000000000000000000000000000000000000000000000 DUP2 MSTORE PUSH1 0x4 ADD PUSH2 0x208D SWAP1 PUSH2 0x2A9B JUMP JUMPDEST PUSH1 0x40 MLOAD DUP1 SWAP2 SUB SWAP1 REVERT JUMPDEST PUSH1 0x3 DUP6 PUSH1 0xFF AND PUSH1 0x14 DUP2 LT PUSH2 0x20AD JUMPI PUSH2 0x20AC PUSH2 0x2ABB JUMP JUMPDEST JUMPDEST PUSH1 0x14 MUL ADD DUP5 PUSH1 0xFF AND PUSH1 0x14 DUP2 LT PUSH2 0x20C6 JUMPI PUSH2 0x20C5 PUSH2 0x2ABB JUMP JUMPDEST JUMPDEST ADD PUSH1 0x0 ADD PUSH1 0x0 SWAP1 SLOAD SWAP1 PUSH2 0x100 EXP SWAP1 DIV PUSH1 0xFF AND PUSH2 0x2117 JUMPI PUSH1 0x40 MLOAD PUSH32 0x8C379A000000000000000000000000000000000000000000000000000000000 DUP2 MSTORE PUSH1 0x4 ADD PUSH2 0x210E SWAP1 PUSH2 0x2B36 JUMP JUMPDEST PUSH1 0x40 MLOAD DUP1 SWAP2 SUB SWAP1 REVERT JUMPDEST DUP3 PUSH1 0x3 DUP7 PUSH1 0xFF AND PUSH1 0x14 DUP2 LT PUSH2 0x212F JUMPI PUSH2 0x212E PUSH2 0x2ABB JUMP JUMPDEST JUMPDEST PUSH1 0x14 MUL ADD DUP6 PUSH1 0xFF AND PUSH1 0x14 DUP2 LT PUSH2 0x2148 JUMPI PUSH2 0x2147 PUSH2 0x2ABB JUMP JUMPDEST JUMPDEST ADD PUSH1 0x0 ADD PUSH1 0x15 PUSH2 0x100 EXP DUP2 SLOAD DUP2 PUSH1 0xFF MUL NOT AND SWAP1 DUP4 ISZERO ISZERO MUL OR SWAP1 SSTORE POP PUSH32 0x57FDE9860F0E368E5C97A86BD3DD0DA476B8D38B86E0493DC933BCAD975A44D DUP6 DUP6 DUP6 PUSH1 0x40 MLOAD PUSH2 0x2196 SWAP4 SWAP3 SWAP2 SWAP1 PUSH2 0x30BF JUMP JUMPDEST PUSH1 0x40 MLOAD DUP1 SWAP2 SUB SWAP1 LOG1 POP POP POP POP POP JUMP JUMPDEST PUSH1 0x40 MLOAD DUP1 PUSH1 0x40 ADD PUSH1 0x40 MSTORE DUP1 PUSH1 0x2 SWAP1 PUSH1 0x20 DUP3 MUL DUP1 CALLDATASIZE DUP4 CALLDATACOPY DUP1 DUP3 ADD SWAP2 POP POP SWAP1 POP POP SWAP1 JUMP JUMPDEST DUP3 DUP1 SLOAD DUP3 DUP3 SSTORE SWAP1 PUSH1 0x0 MSTORE PUSH1 0x20 PUSH1 0x0 KECCAK256 SWAP1 DUP2 ADD SWAP3 DUP3 ISZERO PUSH2 0x2208 JUMPI PUSH1 0x0 MSTORE PUSH1 0x20 PUSH1 0x0 KECCAK256 SWAP2 DUP3 ADD JUMPDEST DUP3 DUP2 GT ISZERO PUSH2 0x2207 JUMPI DUP3 SLOAD DUP3 SSTORE SWAP2 PUSH1 0x1 ADD SWAP2 SWAP1 PUSH1 0x1 ADD SWAP1 PUSH2 0x21EC JUMP JUMPDEST JUMPDEST POP SWAP1 POP PUSH2 0x2215 SWAP2 SWAP1 PUSH2 0x2302 JUMP JUMPDEST POP SWAP1 JUMP JUMPDEST POP DUP1 SLOAD PUSH1 0x0 DUP3 SSTORE SWAP1 PUSH1 0x0 MSTORE PUSH1 0x20 PUSH1 0x0 KECCAK256 SWAP1 DUP2 ADD SWAP1 PUSH2 0x2237 SWAP2 SWAP1 PUSH2 0x2302 JUMP JUMPDEST POP JUMP JUMPDEST DUP3 PUSH1 0x2 PUSH1 0x1F ADD PUSH1 0x20 SWAP1 DIV DUP2 ADD SWAP3 DUP3 ISZERO PUSH2 0x22C3 JUMPI SWAP2 PUSH1 0x20 MUL DUP3 ADD PUSH1 0x0 JUMPDEST DUP4 DUP3 GT ISZERO PUSH2 0x2294 JUMPI DUP4 MLOAD DUP4 DUP3 PUSH2 0x100 EXP DUP2 SLOAD DUP2 PUSH1 0xFF MUL NOT AND SWAP1 DUP4 PUSH1 0xFF AND MUL OR SWAP1 SSTORE POP SWAP3 PUSH1 0x20 ADD SWAP3 PUSH1 0x1 ADD PUSH1 0x20 DUP2 PUSH1 0x0 ADD DIV SWAP3 DUP4 ADD SWAP3 PUSH1 0x1 SUB MUL PUSH2 0x2256 JUMP JUMPDEST DUP1 ISZERO PUSH2 0x22C1 JUMPI DUP3 DUP2 PUSH2 0x100 EXP DUP2 SLOAD SWAP1 PUSH1 0xFF MUL NOT AND SWAP1 SSTORE PUSH1 0x1 ADD PUSH1 0x20 DUP2 PUSH1 0x0 ADD DIV SWAP3 DUP4 ADD SWAP3 PUSH1 0x1 SUB MUL PUSH2 0x2294 JUMP JUMPDEST POP JUMPDEST POP SWAP1 POP PUSH2 0x22D0 SWAP2 SWAP1 PUSH2 0x2302 JUMP JUMPDEST POP SWAP1 JUMP JUMPDEST PUSH1 0x40 MLOAD DUP1 PUSH2 0x280 ADD PUSH1 0x40 MSTORE DUP1 PUSH1 0x14 SWAP1 JUMPDEST PUSH2 0x22EC PUSH2 0x231F JUMP JUMPDEST DUP2 MSTORE PUSH1 0x20 ADD SWAP1 PUSH1 0x1 SWAP1 SUB SWAP1 DUP2 PUSH2 0x22E4 JUMPI SWAP1 POP POP SWAP1 JUMP JUMPDEST JUMPDEST DUP1 DUP3 GT ISZERO PUSH2 0x231B JUMPI PUSH1 0x0 DUP2 PUSH1 0x0 SWAP1 SSTORE POP PUSH1 0x1 ADD PUSH2 0x2303 JUMP JUMPDEST POP SWAP1 JUMP JUMPDEST PUSH1 0x40 MLOAD DUP1 PUSH2 0x280 ADD PUSH1 0x40 MSTORE DUP1 PUSH1 0x14 SWAP1 PUSH1 0x20 DUP3 MUL DUP1 CALLDATASIZE DUP4 CALLDATACOPY DUP1 DUP3 ADD SWAP2 POP POP SWAP1 POP POP SWAP1 JUMP JUMPDEST PUSH1 0x0 PUSH1 0xFF DUP3 AND SWAP1 POP SWAP2 SWAP1 POP JUMP JUMPDEST PUSH2 0x2358 DUP2 PUSH2 0x2342 JUMP JUMPDEST DUP3 MSTORE POP POP JUMP JUMPDEST PUSH1 0x0 PUSH1 0x20 DUP3 ADD SWAP1 POP PUSH2 0x2373 PUSH1 0x0 DUP4 ADD DUP5 PUSH2 0x234F JUMP JUMPDEST SWAP3 SWAP2 POP POP JUMP JUMPDEST PUSH1 0x0 DUP1 REVERT JUMPDEST PUSH1 0x0 PUSH20 0xFFFFFFFFFFFFFFFFFFFFFFFFFFFFFFFFFFFFFFFF DUP3 AND SWAP1 POP SWAP2 SWAP1 POP JUMP JUMPDEST PUSH1 0x0 PUSH2 0x23A9 DUP3 PUSH2 0x237E JUMP JUMPDEST SWAP1 POP SWAP2 SWAP1 POP JUMP JUMPDEST PUSH2 0x23B9 DUP2 PUSH2 0x239E JUMP JUMPDEST DUP2 EQ PUSH2 0x23C4 JUMPI PUSH1 0x0 DUP1 REVERT JUMPDEST POP JUMP JUMPDEST PUSH1 0x0 DUP2 CALLDATALOAD SWAP1 POP PUSH2 0x23D6 DUP2 PUSH2 0x23B0 JUMP JUMPDEST SWAP3 SWAP2 POP POP JUMP JUMPDEST PUSH1 0x0 DUP2 SWAP1 POP SWAP2 SWAP1 POP JUMP JUMPDEST PUSH2 0x23EF DUP2 PUSH2 0x23DC JUMP JUMPDEST DUP2 EQ PUSH2 0x23FA JUMPI PUSH1 0x0 DUP1 REVERT JUMPDEST POP JUMP JUMPDEST PUSH1 0x0 DUP2 CALLDATALOAD SWAP1 POP PUSH2 0x240C DUP2 PUSH2 0x23E6 JUMP JUMPDEST SWAP3 SWAP2 POP POP JUMP JUMPDEST PUSH1 0x0 DUP1 PUSH1 0x40 DUP4 DUP6 SUB SLT ISZERO PUSH2 0x2429 JUMPI PUSH2 0x2428 PUSH2 0x2379 JUMP JUMPDEST JUMPDEST PUSH1 0x0 PUSH2 0x2437 DUP6 DUP3 DUP7 ADD PUSH2 0x23C7 JUMP JUMPDEST SWAP3 POP POP PUSH1 0x20 PUSH2 0x2448 DUP6 DUP3 DUP7 ADD PUSH2 0x23FD JUMP JUMPDEST SWAP2 POP POP SWAP3 POP SWAP3 SWAP1 POP JUMP JUMPDEST PUSH2 0x245B DUP2 PUSH2 0x239E JUMP JUMPDEST DUP3 MSTORE POP POP JUMP JUMPDEST PUSH1 0x0 PUSH1 0x20 DUP3 ADD SWAP1 POP PUSH2 0x2476 PUSH1 0x0 DUP4 ADD DUP5 PUSH2 0x2452 JUMP JUMPDEST SWAP3 SWAP2 POP POP JUMP JUMPDEST PUSH1 0x0 PUSH1 0x20 DUP3 DUP5 SUB SLT ISZERO PUSH2 0x2492 JUMPI PUSH2 0x2491 PUSH2 0x2379 JUMP JUMPDEST JUMPDEST PUSH1 0x0 PUSH2 0x24A0 DUP5 DUP3 DUP6 ADD PUSH2 0x23C7 JUMP JUMPDEST SWAP2 POP POP SWAP3 SWAP2 POP POP JUMP JUMPDEST PUSH1 0x0 PUSH1 0x2 SWAP1 POP SWAP2 SWAP1 POP JUMP JUMPDEST PUSH1 0x0 DUP2 SWAP1 POP SWAP3 SWAP2 POP POP JUMP JUMPDEST PUSH1 0x0 DUP2 SWAP1 POP SWAP2 SWAP1 POP JUMP JUMPDEST PUSH2 0x24D2 DUP2 PUSH2 0x2342 JUMP JUMPDEST DUP3 MSTORE POP POP JUMP JUMPDEST PUSH1 0x0 PUSH2 0x24E4 DUP4 DUP4 PUSH2 0x24C9 JUMP JUMPDEST PUSH1 0x20 DUP4 ADD SWAP1 POP SWAP3 SWAP2 POP POP JUMP JUMPDEST PUSH1 0x0 PUSH1 0x20 DUP3 ADD SWAP1 POP SWAP2 SWAP1 POP JUMP JUMPDEST PUSH2 0x2506 DUP2 PUSH2 0x24A9 JUMP JUMPDEST PUSH2 0x2510 DUP2 DUP5 PUSH2 0x24B4 JUMP JUMPDEST SWAP3 POP PUSH2 0x251B DUP3 PUSH2 0x24BF JUMP JUMPDEST DUP1 PUSH1 0x0 JUMPDEST DUP4 DUP2 LT ISZERO PUSH2 0x254C JUMPI DUP2 MLOAD PUSH2 0x2533 DUP8 DUP3 PUSH2 0x24D8 JUMP JUMPDEST SWAP7 POP PUSH2 0x253E DUP4 PUSH2 0x24F0 JUMP JUMPDEST SWAP3 POP POP PUSH1 0x1 DUP2 ADD SWAP1 POP PUSH2 0x251F JUMP JUMPDEST POP POP POP POP POP POP JUMP JUMPDEST PUSH1 0x0 PUSH1 0x40 DUP3 ADD SWAP1 POP PUSH2 0x2569 PUSH1 0x0 DUP4 ADD DUP5 PUSH2 0x24FD JUMP JUMPDEST SWAP3 SWAP2 POP POP JUMP JUMPDEST PUSH2 0x2578 DUP2 PUSH2 0x2342 JUMP JUMPDEST DUP2 EQ PUSH2 0x2583 JUMPI PUSH1 0x0 DUP1 REVERT JUMPDEST POP JUMP JUMPDEST PUSH1 0x0 DUP2 CALLDATALOAD SWAP1 POP PUSH2 0x2595 DUP2 PUSH2 0x256F JUMP JUMPDEST SWAP3 SWAP2 POP POP JUMP JUMPDEST PUSH1 0x0 DUP1 PUSH1 0x40 DUP4 DUP6 SUB SLT ISZERO PUSH2 0x25B2 JUMPI PUSH2 0x25B1 PUSH2 0x2379 JUMP JUMPDEST JUMPDEST PUSH1 0x0 PUSH2 0x25C0 DUP6 DUP3 DUP7 ADD PUSH2 0x2586 JUMP JUMPDEST SWAP3 POP POP PUSH1 0x20 PUSH2 0x25D1 DUP6 DUP3 DUP7 ADD PUSH2 0x2586 JUMP JUMPDEST SWAP2 POP POP SWAP3 POP SWAP3 SWAP1 POP JUMP JUMPDEST PUSH1 0x0 DUP2 ISZERO ISZERO SWAP1 POP SWAP2 SWAP1 POP JUMP JUMPDEST PUSH2 0x25F0 DUP2 PUSH2 0x25DB JUMP JUMPDEST DUP3 MSTORE POP POP JUMP JUMPDEST PUSH1 0x0 PUSH1 0x20 DUP3 ADD SWAP1 POP PUSH2 0x260B PUSH1 0x0 DUP4 ADD DUP5 PUSH2 0x25E7 JUMP JUMPDEST SWAP3 SWAP2 POP POP JUMP JUMPDEST PUSH1 0x0 DUP1 PUSH1 0x0 PUSH1 0x60 DUP5 DUP7 SUB SLT ISZERO PUSH2 0x262A JUMPI PUSH2 0x2629 PUSH2 0x2379 JUMP JUMPDEST JUMPDEST PUSH1 0x0 PUSH2 0x2638 DUP7 DUP3 DUP8 ADD PUSH2 0x2586 JUMP JUMPDEST SWAP4 POP POP PUSH1 0x20 PUSH2 0x2649 DUP7 DUP3 DUP8 ADD PUSH2 0x2586 JUMP JUMPDEST SWAP3 POP POP PUSH1 0x40 PUSH2 0x265A DUP7 DUP3 DUP8 ADD PUSH2 0x23C7 JUMP JUMPDEST SWAP2 POP POP SWAP3 POP SWAP3 POP SWAP3 JUMP JUMPDEST PUSH1 0x0 DUP2 MLOAD SWAP1 POP SWAP2 SWAP1 POP JUMP JUMPDEST PUSH1 0x0 DUP3 DUP3 MSTORE PUSH1 0x20 DUP3 ADD SWAP1 POP SWAP3 SWAP2 POP POP JUMP JUMPDEST PUSH1 0x0 DUP2 SWAP1 POP PUSH1 0x20 DUP3 ADD SWAP1 POP SWAP2 SWAP1 POP JUMP JUMPDEST PUSH2 0x2699 DUP2 PUSH2 0x239E JUMP JUMPDEST DUP3 MSTORE POP POP JUMP JUMPDEST PUSH1 0x0 PUSH2 0x26AB DUP4 DUP4 PUSH2 0x2690 JUMP JUMPDEST PUSH1 0x20 DUP4 ADD SWAP1 POP SWAP3 SWAP2 POP POP JUMP JUMPDEST PUSH1 0x0 PUSH1 0x20 DUP3 ADD SWAP1 POP SWAP2 SWAP1 POP JUMP JUMPDEST PUSH1 0x0 PUSH2 0x26CF DUP3 PUSH2 0x2664 JUMP JUMPDEST PUSH2 0x26D9 DUP2 DUP6 PUSH2 0x266F JUMP JUMPDEST SWAP4 POP PUSH2 0x26E4 DUP4 PUSH2 0x2680 JUMP JUMPDEST DUP1 PUSH1 0x0 JUMPDEST DUP4 DUP2 LT ISZERO PUSH2 0x2715 JUMPI DUP2 MLOAD PUSH2 0x26FC DUP9 DUP3 PUSH2 0x269F JUMP JUMPDEST SWAP8 POP PUSH2 0x2707 DUP4 PUSH2 0x26B7 JUMP JUMPDEST SWAP3 POP POP PUSH1 0x1 DUP2 ADD SWAP1 POP PUSH2 0x26E8 JUMP JUMPDEST POP DUP6 SWAP4 POP POP POP POP SWAP3 SWAP2 POP POP JUMP JUMPDEST PUSH1 0x0 PUSH1 0x40 DUP3 ADD SWAP1 POP PUSH2 0x2737 PUSH1 0x0 DUP4 ADD DUP6 PUSH2 0x2452 JUMP JUMPDEST DUP2 DUP2 SUB PUSH1 0x20 DUP4 ADD MSTORE PUSH2 0x2749 DUP2 DUP5 PUSH2 0x26C4 JUMP JUMPDEST SWAP1 POP SWAP4 SWAP3 POP POP POP JUMP JUMPDEST PUSH1 0x0 PUSH1 0x14 SWAP1 POP SWAP2 SWAP1 POP JUMP JUMPDEST PUSH1 0x0 DUP2 SWAP1 POP SWAP3 SWAP2 POP POP JUMP JUMPDEST PUSH1 0x0 DUP2 SWAP1 POP SWAP2 SWAP1 POP JUMP JUMPDEST PUSH1 0x0 PUSH1 0x14 SWAP1 POP SWAP2 SWAP1 POP JUMP JUMPDEST PUSH1 0x0 DUP2 SWAP1 POP SWAP3 SWAP2 POP POP JUMP JUMPDEST PUSH1 0x0 DUP2 SWAP1 POP SWAP2 SWAP1 POP JUMP JUMPDEST PUSH2 0x279B DUP2 PUSH2 0x25DB JUMP JUMPDEST DUP3 MSTORE POP POP JUMP JUMPDEST PUSH1 0x0 PUSH2 0x27AD DUP4 DUP4 PUSH2 0x2792 JUMP JUMPDEST PUSH1 0x20 DUP4 ADD SWAP1 POP SWAP3 SWAP2 POP POP JUMP JUMPDEST PUSH1 0x0 PUSH1 0x20 DUP3 ADD SWAP1 POP SWAP2 SWAP1 POP JUMP JUMPDEST PUSH2 0x27CF DUP2 PUSH2 0x2772 JUMP JUMPDEST PUSH2 0x27D9 DUP2 DUP5 PUSH2 0x277D JUMP JUMPDEST SWAP3 POP PUSH2 0x27E4 DUP3 PUSH2 0x2788 JUMP JUMPDEST DUP1 PUSH1 0x0 JUMPDEST DUP4 DUP2 LT ISZERO PUSH2 0x2815 JUMPI DUP2 MLOAD PUSH2 0x27FC DUP8 DUP3 PUSH2 0x27A1 JUMP JUMPDEST SWAP7 POP PUSH2 0x2807 DUP4 PUSH2 0x27B9 JUMP JUMPDEST SWAP3 POP POP PUSH1 0x1 DUP2 ADD SWAP1 POP PUSH2 0x27E8 JUMP JUMPDEST POP POP POP POP POP POP JUMP JUMPDEST PUSH1 0x0 PUSH2 0x2829 DUP4 DUP4 PUSH2 0x27C6 JUMP JUMPDEST PUSH2 0x280 DUP4 ADD SWAP1 POP SWAP3 SWAP2 POP POP JUMP JUMPDEST PUSH1 0x0 PUSH1 0x20 DUP3 ADD SWAP1 POP SWAP2 SWAP1 POP JUMP JUMPDEST PUSH2 0x284C DUP2 PUSH2 0x2752 JUMP JUMPDEST PUSH2 0x2856 DUP2 DUP5 PUSH2 0x275D JUMP JUMPDEST SWAP3 POP PUSH2 0x2861 DUP3 PUSH2 0x2768 JUMP JUMPDEST DUP1 PUSH1 0x0 JUMPDEST DUP4 DUP2 LT ISZERO PUSH2 0x2892 JUMPI DUP2 MLOAD PUSH2 0x2879 DUP8 DUP3 PUSH2 0x281D JUMP JUMPDEST SWAP7 POP PUSH2 0x2884 DUP4 PUSH2 0x2836 JUMP JUMPDEST SWAP3 POP POP PUSH1 0x1 DUP2 ADD SWAP1 POP PUSH2 0x2865 JUMP JUMPDEST POP POP POP POP POP POP JUMP JUMPDEST PUSH1 0x0 PUSH2 0x3200 DUP3 ADD SWAP1 POP PUSH2 0x28B0 PUSH1 0x0 DUP4 ADD DUP5 PUSH2 0x2843 JUMP JUMPDEST SWAP3 SWAP2 POP POP JUMP JUMPDEST PUSH1 0x0 DUP1 PUSH1 0x40 DUP4 DUP6 SUB SLT ISZERO PUSH2 0x28CD JUMPI PUSH2 0x28CC PUSH2 0x2379 JUMP JUMPDEST JUMPDEST PUSH1 0x0 PUSH2 0x28DB DUP6 DUP3 DUP7 ADD PUSH2 0x23FD JUMP JUMPDEST SWAP3 POP POP PUSH1 0x20 PUSH2 0x28EC DUP6 DUP3 DUP7 ADD PUSH2 0x23FD JUMP JUMPDEST SWAP2 POP POP SWAP3 POP SWAP3 SWAP1 POP JUMP JUMPDEST PUSH1 0x0 PUSH1 0x60 DUP3 ADD SWAP1 POP PUSH2 0x290B PUSH1 0x0 DUP4 ADD DUP7 PUSH2 0x25E7 JUMP JUMPDEST PUSH2 0x2918 PUSH1 0x20 DUP4 ADD DUP6 PUSH2 0x2452 JUMP JUMPDEST PUSH2 0x2925 PUSH1 0x40 DUP4 ADD DUP5 PUSH2 0x25E7 JUMP JUMPDEST SWAP5 SWAP4 POP POP POP POP JUMP JUMPDEST PUSH2 0x2936 DUP2 PUSH2 0x25DB JUMP JUMPDEST DUP2 EQ PUSH2 0x2941 JUMPI PUSH1 0x0 DUP1 REVERT JUMPDEST POP JUMP JUMPDEST PUSH1 0x0 DUP2 CALLDATALOAD SWAP1 POP PUSH2 0x2953 DUP2 PUSH2 0x292D JUMP JUMPDEST SWAP3 SWAP2 POP POP JUMP JUMPDEST PUSH1 0x0 DUP1 PUSH1 0x0 PUSH1 0x60 DUP5 DUP7 SUB SLT ISZERO PUSH2 0x2972 JUMPI PUSH2 0x2971 PUSH2 0x2379 JUMP JUMPDEST JUMPDEST PUSH1 0x0 PUSH2 0x2980 DUP7 DUP3 DUP8 ADD PUSH2 0x2586 JUMP JUMPDEST SWAP4 POP POP PUSH1 0x20 PUSH2 0x2991 DUP7 DUP3 DUP8 ADD PUSH2 0x2586 JUMP JUMPDEST SWAP3 POP POP PUSH1 0x40 PUSH2 0x29A2 DUP7 DUP3 DUP8 ADD PUSH2 0x2944 JUMP JUMPDEST SWAP2 POP POP SWAP3 POP SWAP3 POP SWAP3 JUMP JUMPDEST PUSH1 0x0 DUP3 DUP3 MSTORE PUSH1 0x20 DUP3 ADD SWAP1 POP SWAP3 SWAP2 POP POP JUMP JUMPDEST PUSH32 0x54686973206164647265737320686173206E6F74206F63637570696564206120 PUSH1 0x0 DUP3 ADD MSTORE PUSH32 0x74696C6500000000000000000000000000000000000000000000000000000000 PUSH1 0x20 DUP3 ADD MSTORE POP JUMP JUMPDEST PUSH1 0x0 PUSH2 0x2A19 PUSH1 0x24 DUP4 PUSH2 0x29AC JUMP JUMPDEST SWAP2 POP PUSH2 0x2A24 DUP3 PUSH2 0x29BD JUMP JUMPDEST PUSH1 0x40 DUP3 ADD SWAP1 POP SWAP2 SWAP1 POP JUMP JUMPDEST PUSH1 0x0 PUSH1 0x20 DUP3 ADD SWAP1 POP DUP2 DUP2 SUB PUSH1 0x0 DUP4 ADD MSTORE PUSH2 0x2A48 DUP2 PUSH2 0x2A0C JUMP JUMPDEST SWAP1 POP SWAP2 SWAP1 POP JUMP JUMPDEST PUSH32 0x496E76616C69642074696C6520636F6F7264696E617465730000000000000000 PUSH1 0x0 DUP3 ADD MSTORE POP JUMP JUMPDEST PUSH1 0x0 PUSH2 0x2A85 PUSH1 0x18 DUP4 PUSH2 0x29AC JUMP JUMPDEST SWAP2 POP PUSH2 0x2A90 DUP3 PUSH2 0x2A4F JUMP JUMPDEST PUSH1 0x20 DUP3 ADD SWAP1 POP SWAP2 SWAP1 POP JUMP JUMPDEST PUSH1 0x0 PUSH1 0x20 DUP3 ADD SWAP1 POP DUP2 DUP2 SUB PUSH1 0x0 DUP4 ADD MSTORE PUSH2 0x2AB4 DUP2 PUSH2 0x2A78 JUMP JUMPDEST SWAP1 POP SWAP2 SWAP1 POP JUMP JUMPDEST PUSH32 0x4E487B7100000000000000000000000000000000000000000000000000000000 PUSH1 0x0 MSTORE PUSH1 0x32 PUSH1 0x4 MSTORE PUSH1 0x24 PUSH1 0x0 REVERT JUMPDEST PUSH32 0x54696C65206973206E6F74206F63637570696564000000000000000000000000 PUSH1 0x0 DUP3 ADD MSTORE POP JUMP JUMPDEST PUSH1 0x0 PUSH2 0x2B20 PUSH1 0x14 DUP4 PUSH2 0x29AC JUMP JUMPDEST SWAP2 POP PUSH2 0x2B2B DUP3 PUSH2 0x2AEA JUMP JUMPDEST PUSH1 0x20 DUP3 ADD SWAP1 POP SWAP2 SWAP1 POP JUMP JUMPDEST PUSH1 0x0 PUSH1 0x20 DUP3 ADD SWAP1 POP DUP2 DUP2 SUB PUSH1 0x0 DUP4 ADD MSTORE PUSH2 0x2B4F DUP2 PUSH2 0x2B13 JUMP JUMPDEST SWAP1 POP SWAP2 SWAP1 POP JUMP JUMPDEST PUSH32 0x54696C65206973206E6F74206F6E2073616C6500000000000000000000000000 PUSH1 0x0 DUP3 ADD MSTORE POP JUMP JUMPDEST PUSH1 0x0 PUSH2 0x2B8C PUSH1 0x13 DUP4 PUSH2 0x29AC JUMP JUMPDEST SWAP2 POP PUSH2 0x2B97 DUP3 PUSH2 0x2B56 JUMP JUMPDEST PUSH1 0x20 DUP3 ADD SWAP1 POP SWAP2 SWAP1 POP JUMP JUMPDEST PUSH1 0x0 PUSH1 0x20 DUP3 ADD SWAP1 POP DUP2 DUP2 SUB PUSH1 0x0 DUP4 ADD MSTORE PUSH2 0x2BBB DUP2 PUSH2 0x2B7F JUMP JUMPDEST SWAP1 POP SWAP2 SWAP1 POP JUMP JUMPDEST PUSH32 0x596F7520616C7265616479206F636375707920612074696C6500000000000000 PUSH1 0x0 DUP3 ADD MSTORE POP JUMP JUMPDEST PUSH1 0x0 PUSH2 0x2BF8 PUSH1 0x19 DUP4 PUSH2 0x29AC JUMP JUMPDEST SWAP2 POP PUSH2 0x2C03 DUP3 PUSH2 0x2BC2 JUMP JUMPDEST PUSH1 0x20 DUP3 ADD SWAP1 POP SWAP2 SWAP1 POP JUMP JUMPDEST PUSH1 0x0 PUSH1 0x20 DUP3 ADD SWAP1 POP DUP2 DUP2 SUB PUSH1 0x0 DUP4 ADD MSTORE PUSH2 0x2C27 DUP2 PUSH2 0x2BEB JUMP JUMPDEST SWAP1 POP SWAP2 SWAP1 POP JUMP JUMPDEST PUSH32 0x4E487B7100000000000000000000000000000000000000000000000000000000 PUSH1 0x0 MSTORE PUSH1 0x11 PUSH1 0x4 MSTORE PUSH1 0x24 PUSH1 0x0 REVERT JUMPDEST PUSH1 0x0 PUSH2 0x2C68 DUP3 PUSH2 0x23DC JUMP JUMPDEST SWAP2 POP PUSH32 0xFFFFFFFFFFFFFFFFFFFFFFFFFFFFFFFFFFFFFFFFFFFFFFFFFFFFFFFFFFFFFFFF DUP3 SUB PUSH2 0x2C9A JUMPI PUSH2 0x2C99 PUSH2 0x2C2E JUMP JUMPDEST JUMPDEST PUSH1 0x1 DUP3 ADD SWAP1 POP SWAP2 SWAP1 POP JUMP JUMPDEST PUSH1 0x0 PUSH1 0x80 DUP3 ADD SWAP1 POP PUSH2 0x2CBA PUSH1 0x0 DUP4 ADD DUP8 PUSH2 0x234F JUMP JUMPDEST PUSH2 0x2CC7 PUSH1 0x20 DUP4 ADD DUP7 PUSH2 0x234F JUMP JUMPDEST PUSH2 0x2CD4 PUSH1 0x40 DUP4 ADD DUP6 PUSH2 0x25E7 JUMP JUMPDEST PUSH2 0x2CE1 PUSH1 0x60 DUP4 ADD DUP5 PUSH2 0x2452 JUMP JUMPDEST SWAP6 SWAP5 POP POP POP POP POP JUMP JUMPDEST PUSH32 0x54696C6520697320616C7265616479206F636375706965640000000000000000 PUSH1 0x0 DUP3 ADD MSTORE POP JUMP JUMPDEST PUSH1 0x0 PUSH2 0x2D20 PUSH1 0x18 DUP4 PUSH2 0x29AC JUMP JUMPDEST SWAP2 POP PUSH2 0x2D2B DUP3 PUSH2 0x2CEA JUMP JUMPDEST PUSH1 0x20 DUP3 ADD SWAP1 POP SWAP2 SWAP1 POP JUMP JUMPDEST PUSH1 0x0 PUSH1 0x20 DUP3 ADD SWAP1 POP DUP2 DUP2 SUB PUSH1 0x0 DUP4 ADD MSTORE PUSH2 0x2D4F DUP2 PUSH2 0x2D13 JUMP JUMPDEST SWAP1 POP SWAP2 SWAP1 POP JUMP JUMPDEST PUSH32 0x596F75206861766520616C7265616479206F6363757069656420612074696C65 PUSH1 0x0 DUP3 ADD MSTORE POP JUMP JUMPDEST PUSH1 0x0 PUSH2 0x2D8C PUSH1 0x20 DUP4 PUSH2 0x29AC JUMP JUMPDEST SWAP2 POP PUSH2 0x2D97 DUP3 PUSH2 0x2D56 JUMP JUMPDEST PUSH1 0x20 DUP3 ADD SWAP1 POP SWAP2 SWAP1 POP JUMP JUMPDEST PUSH1 0x0 PUSH1 0x20 DUP3 ADD SWAP1 POP DUP2 DUP2 SUB PUSH1 0x0 DUP4 ADD MSTORE PUSH2 0x2DBB DUP2 PUSH2 0x2D7F JUMP JUMPDEST SWAP1 POP SWAP2 SWAP1 POP JUMP JUMPDEST PUSH32 0x416C726561647920686173206120526566657272657200000000000000000000 PUSH1 0x0 DUP3 ADD MSTORE POP JUMP JUMPDEST PUSH1 0x0 PUSH2 0x2DF8 PUSH1 0x16 DUP4 PUSH2 0x29AC JUMP JUMPDEST SWAP2 POP PUSH2 0x2E03 DUP3 PUSH2 0x2DC2 JUMP JUMPDEST PUSH1 0x20 DUP3 ADD SWAP1 POP SWAP2 SWAP1 POP JUMP JUMPDEST PUSH1 0x0 PUSH1 0x20 DUP3 ADD SWAP1 POP DUP2 DUP2 SUB PUSH1 0x0 DUP4 ADD MSTORE PUSH2 0x2E27 DUP2 PUSH2 0x2DEB JUMP JUMPDEST SWAP1 POP SWAP2 SWAP1 POP JUMP JUMPDEST PUSH32 0x52656665727265722063616E206E6F742062652073656C660000000000000000 PUSH1 0x0 DUP3 ADD MSTORE POP JUMP JUMPDEST PUSH1 0x0 PUSH2 0x2E64 PUSH1 0x18 DUP4 PUSH2 0x29AC JUMP JUMPDEST SWAP2 POP PUSH2 0x2E6F DUP3 PUSH2 0x2E2E JUMP JUMPDEST PUSH1 0x20 DUP3 ADD SWAP1 POP SWAP2 SWAP1 POP JUMP JUMPDEST PUSH1 0x0 PUSH1 0x20 DUP3 ADD SWAP1 POP DUP2 DUP2 SUB PUSH1 0x0 DUP4 ADD MSTORE PUSH2 0x2E93 DUP2 PUSH2 0x2E57 JUMP JUMPDEST SWAP1 POP SWAP2 SWAP1 POP JUMP JUMPDEST PUSH32 0x5265666572726572206D757374206861766520616E206F636375706965642074 PUSH1 0x0 DUP3 ADD MSTORE PUSH32 0x696C650000000000000000000000000000000000000000000000000000000000 PUSH1 0x20 DUP3 ADD MSTORE POP JUMP JUMPDEST PUSH1 0x0 PUSH2 0x2EF6 PUSH1 0x23 DUP4 PUSH2 0x29AC JUMP JUMPDEST SWAP2 POP PUSH2 0x2F01 DUP3 PUSH2 0x2E9A JUMP JUMPDEST PUSH1 0x40 DUP3 ADD SWAP1 POP SWAP2 SWAP1 POP JUMP JUMPDEST PUSH1 0x0 PUSH1 0x20 DUP3 ADD SWAP1 POP DUP2 DUP2 SUB PUSH1 0x0 DUP4 ADD MSTORE PUSH2 0x2F25 DUP2 PUSH2 0x2EE9 JUMP JUMPDEST SWAP1 POP SWAP2 SWAP1 POP JUMP JUMPDEST PUSH32 0x43616C6C6572206973206E6F7420746865207377697463686572000000000000 PUSH1 0x0 DUP3 ADD MSTORE POP JUMP JUMPDEST PUSH1 0x0 PUSH2 0x2F62 PUSH1 0x1A DUP4 PUSH2 0x29AC JUMP JUMPDEST SWAP2 POP PUSH2 0x2F6D DUP3 PUSH2 0x2F2C JUMP JUMPDEST PUSH1 0x20 DUP3 ADD SWAP1 POP SWAP2 SWAP1 POP JUMP JUMPDEST PUSH1 0x0 PUSH1 0x20 DUP3 ADD SWAP1 POP DUP2 DUP2 SUB PUSH1 0x0 DUP4 ADD MSTORE PUSH2 0x2F91 DUP2 PUSH2 0x2F55 JUMP JUMPDEST SWAP1 POP SWAP2 SWAP1 POP JUMP JUMPDEST PUSH1 0x0 PUSH2 0x2FA3 DUP3 PUSH2 0x2342 JUMP JUMPDEST SWAP2 POP PUSH1 0xFF DUP3 SUB PUSH2 0x2FB6 JUMPI PUSH2 0x2FB5 PUSH2 0x2C2E JUMP JUMPDEST JUMPDEST PUSH1 0x1 DUP3 ADD SWAP1 POP SWAP2 SWAP1 POP JUMP JUMPDEST PUSH32 0x43616C6C6572206973206E6F7420746865206F776E6572000000000000000000 PUSH1 0x0 DUP3 ADD MSTORE POP JUMP JUMPDEST PUSH1 0x0 PUSH2 0x2FF7 PUSH1 0x17 DUP4 PUSH2 0x29AC JUMP JUMPDEST SWAP2 POP PUSH2 0x3002 DUP3 PUSH2 0x2FC1 JUMP JUMPDEST PUSH1 0x20 DUP3 ADD SWAP1 POP SWAP2 SWAP1 POP JUMP JUMPDEST PUSH1 0x0 PUSH1 0x20 DUP3 ADD SWAP1 POP DUP2 DUP2 SUB PUSH1 0x0 DUP4 ADD MSTORE PUSH2 0x3026 DUP2 PUSH2 0x2FEA JUMP JUMPDEST SWAP1 POP SWAP2 SWAP1 POP JUMP JUMPDEST PUSH32 0x43616C6C6572206973206E6F7420746865206D616E61676572206F72206F6363 PUSH1 0x0 DUP3 ADD MSTORE PUSH32 0x7570616E74000000000000000000000000000000000000000000000000000000 PUSH1 0x20 DUP3 ADD MSTORE POP JUMP JUMPDEST PUSH1 0x0 PUSH2 0x3089 PUSH1 0x25 DUP4 PUSH2 0x29AC JUMP JUMPDEST SWAP2 POP PUSH2 0x3094 DUP3 PUSH2 0x302D JUMP JUMPDEST PUSH1 0x40 DUP3 ADD SWAP1 POP SWAP2 SWAP1 POP JUMP JUMPDEST PUSH1 0x0 PUSH1 0x20 DUP3 ADD SWAP1 POP DUP2 DUP2 SUB PUSH1 0x0 DUP4 ADD MSTORE PUSH2 0x30B8 DUP2 PUSH2 0x307C JUMP JUMPDEST SWAP1 POP SWAP2 SWAP1 POP JUMP JUMPDEST PUSH1 0x0 PUSH1 0x60 DUP3 ADD SWAP1 POP PUSH2 0x30D4 PUSH1 0x0 DUP4 ADD DUP7 PUSH2 0x234F JUMP JUMPDEST PUSH2 0x30E1 PUSH1 0x20 DUP4 ADD DUP6 PUSH2 0x234F JUMP JUMPDEST PUSH2 0x30EE PUSH1 0x40 DUP4 ADD DUP5 PUSH2 0x25E7 JUMP JUMPDEST SWAP5 SWAP4 POP POP POP POP JUMP INVALID LOG2 PUSH5 0x6970667358 0x22 SLT KECCAK256 BYTE LOG3 SLOAD 0xB6 0xC3 0xE2 0x5C 0xC2 0xCC LOG3 0xBF 0xEB 0xAD XOR SWAP11 0xDC 0xFC SWAP9 0x23 0x26 CODECOPY SHR 0xDF EXTCODEHASH STATICCALL SWAP3 SWAP7 0xF9 PUSH16 0xE1651D64736F6C634300081200330000 "
		},
		"gasEstimates": {
			"creation": {
				"codeDepositCost": "2517600",
				"executionCost": "infinite",
				"totalCost": "infinite"
			},
			"external": {
				"bonuses(uint256,uint256)": "infinite",
				"buyTile(uint8,uint8)": "infinite",
				"getAllOccupiedTiles()": "infinite",
				"getOccupiedTileByAddress(address)": "infinite",
				"getReferralNetwork(address)": "infinite",
				"getReferrer(address)": "infinite",
				"getTileOccupant(uint8,uint8)": "infinite",
				"hasOccupiedTile(address)": "2957",
				"isTileOccupied(uint8,uint8)": "infinite",
				"manager()": "2581",
				"mapSize()": "359",
				"occupantTileCoordinates(address,uint256)": "4723",
				"occupyTile(uint8,uint8,address)": "infinite",
				"owner()": "2533",
				"referredBy(address,uint256)": "infinite",
				"referrerOf(address)": "infinite",
				"setManager(address)": "28138",
				"setSwitchStatus()": "28886",
				"setTileOnSale(uint8,uint8,bool)": "infinite",
				"switcher()": "2558",
				"tiles(uint256,uint256)": "infinite"
			}
		},
		"methodIdentifiers": {
			"bonuses(uint256,uint256)": "bc9955a2",
			"buyTile(uint8,uint8)": "2ef761d3",
			"getAllOccupiedTiles()": "8a115f0b",
			"getOccupiedTileByAddress(address)": "2400a3b0",
			"getReferralNetwork(address)": "62cb4694",
			"getReferrer(address)": "4a9fefc7",
			"getTileOccupant(uint8,uint8)": "8a888953",
			"hasOccupiedTile(address)": "2cfdf9b1",
			"isTileOccupied(uint8,uint8)": "2672becb",
			"manager()": "481c6a75",
			"mapSize()": "1a32ebb6",
			"occupantTileCoordinates(address,uint256)": "323fd7b7",
			"occupyTile(uint8,uint8,address)": "50328bdd",
			"owner()": "8da5cb5b",
			"referredBy(address,uint256)": "1b64f93d",
			"referrerOf(address)": "d21cacdf",
			"setManager(address)": "d0ebdbe7",
			"setSwitchStatus()": "503d4c8d",
			"setTileOnSale(uint8,uint8,bool)": "e62cdc8a",
			"switcher()": "bc4462de",
			"tiles(uint256,uint256)": "8a3d7cdc"
		}
	},
	"abi": [
		{
			"inputs": [
				{
					"internalType": "address",
					"name": "_switcher",
					"type": "address"
				}
			],
			"stateMutability": "nonpayable",
			"type": "constructor"
		},
		{
			"anonymous": false,
			"inputs": [
				{
					"indexed": true,
					"internalType": "address",
					"name": "newManager",
					"type": "address"
				}
			],
			"name": "ManagerSet",
			"type": "event"
		},
		{
			"anonymous": false,
			"inputs": [
				{
					"indexed": true,
					"internalType": "address",
					"name": "user",
					"type": "address"
				},
				{
					"indexed": true,
					"internalType": "address",
					"name": "referrer",
					"type": "address"
				}
			],
			"name": "ReferralSet",
			"type": "event"
		},
		{
			"anonymous": false,
			"inputs": [
				{
					"indexed": false,
					"internalType": "uint8",
					"name": "x",
					"type": "uint8"
				},
				{
					"indexed": false,
					"internalType": "uint8",
					"name": "y",
					"type": "uint8"
				},
				{
					"indexed": false,
					"internalType": "bool",
					"name": "isOnSale",
					"type": "bool"
				}
			],
			"name": "TileOnSale",
			"type": "event"
		},
		{
			"anonymous": false,
			"inputs": [
				{
					"indexed": false,
					"internalType": "uint8",
					"name": "x",
					"type": "uint8"
				},
				{
					"indexed": false,
					"internalType": "uint8",
					"name": "y",
					"type": "uint8"
				},
				{
					"indexed": false,
					"internalType": "bool",
					"name": "isOccupied",
					"type": "bool"
				},
				{
					"indexed": false,
					"internalType": "address",
					"name": "occupant",
					"type": "address"
				}
			],
			"name": "TileUpdated",
			"type": "event"
		},
		{
			"inputs": [
				{
					"internalType": "uint256",
					"name": "",
					"type": "uint256"
				},
				{
					"internalType": "uint256",
					"name": "",
					"type": "uint256"
				}
			],
			"name": "bonuses",
			"outputs": [
				{
					"internalType": "uint8",
					"name": "",
					"type": "uint8"
				}
			],
			"stateMutability": "view",
			"type": "function"
		},
		{
			"inputs": [
				{
					"internalType": "uint8",
					"name": "x",
					"type": "uint8"
				},
				{
					"internalType": "uint8",
					"name": "y",
					"type": "uint8"
				}
			],
			"name": "buyTile",
			"outputs": [],
			"stateMutability": "nonpayable",
			"type": "function"
		},
		{
			"inputs": [],
			"name": "getAllOccupiedTiles",
			"outputs": [
				{
					"internalType": "bool[20][20]",
					"name": "",
					"type": "bool[20][20]"
				}
			],
			"stateMutability": "view",
			"type": "function"
		},
		{
			"inputs": [
				{
					"internalType": "address",
					"name": "occupant",
					"type": "address"
				}
			],
			"name": "getOccupiedTileByAddress",
			"outputs": [
				{
					"internalType": "uint8[2]",
					"name": "",
					"type": "uint8[2]"
				}
			],
			"stateMutability": "view",
			"type": "function"
		},
		{
			"inputs": [
				{
					"internalType": "address",
					"name": "user",
					"type": "address"
				}
			],
			"name": "getReferralNetwork",
			"outputs": [
				{
					"internalType": "address",
					"name": "",
					"type": "address"
				},
				{
					"internalType": "address[]",
					"name": "",
					"type": "address[]"
				}
			],
			"stateMutability": "view",
			"type": "function"
		},
		{
			"inputs": [
				{
					"internalType": "address",
					"name": "user",
					"type": "address"
				}
			],
			"name": "getReferrer",
			"outputs": [
				{
					"internalType": "address",
					"name": "",
					"type": "address"
				}
			],
			"stateMutability": "view",
			"type": "function"
		},
		{
			"inputs": [
				{
					"internalType": "uint8",
					"name": "x",
					"type": "uint8"
				},
				{
					"internalType": "uint8",
					"name": "y",
					"type": "uint8"
				}
			],
			"name": "getTileOccupant",
			"outputs": [
				{
					"internalType": "address",
					"name": "",
					"type": "address"
				}
			],
			"stateMutability": "view",
			"type": "function"
		},
		{
			"inputs": [
				{
					"internalType": "address",
					"name": "",
					"type": "address"
				}
			],
			"name": "hasOccupiedTile",
			"outputs": [
				{
					"internalType": "bool",
					"name": "",
					"type": "bool"
				}
			],
			"stateMutability": "view",
			"type": "function"
		},
		{
			"inputs": [
				{
					"internalType": "uint8",
					"name": "x",
					"type": "uint8"
				},
				{
					"internalType": "uint8",
					"name": "y",
					"type": "uint8"
				}
			],
			"name": "isTileOccupied",
			"outputs": [
				{
					"internalType": "bool",
					"name": "",
					"type": "bool"
				}
			],
			"stateMutability": "view",
			"type": "function"
		},
		{
			"inputs": [],
			"name": "manager",
			"outputs": [
				{
					"internalType": "address",
					"name": "",
					"type": "address"
				}
			],
			"stateMutability": "view",
			"type": "function"
		},
		{
			"inputs": [],
			"name": "mapSize",
			"outputs": [
				{
					"internalType": "uint8",
					"name": "",
					"type": "uint8"
				}
			],
			"stateMutability": "view",
			"type": "function"
		},
		{
			"inputs": [
				{
					"internalType": "address",
					"name": "",
					"type": "address"
				},
				{
					"internalType": "uint256",
					"name": "",
					"type": "uint256"
				}
			],
			"name": "occupantTileCoordinates",
			"outputs": [
				{
					"internalType": "uint8",
					"name": "",
					"type": "uint8"
				}
			],
			"stateMutability": "view",
			"type": "function"
		},
		{
			"inputs": [
				{
					"internalType": "uint8",
					"name": "x",
					"type": "uint8"
				},
				{
					"internalType": "uint8",
					"name": "y",
					"type": "uint8"
				},
				{
					"internalType": "address",
					"name": "referrer",
					"type": "address"
				}
			],
			"name": "occupyTile",
			"outputs": [],
			"stateMutability": "nonpayable",
			"type": "function"
		},
		{
			"inputs": [],
			"name": "owner",
			"outputs": [
				{
					"internalType": "address",
					"name": "",
					"type": "address"
				}
			],
			"stateMutability": "view",
			"type": "function"
		},
		{
			"inputs": [
				{
					"internalType": "address",
					"name": "",
					"type": "address"
				},
				{
					"internalType": "uint256",
					"name": "",
					"type": "uint256"
				}
			],
			"name": "referredBy",
			"outputs": [
				{
					"internalType": "address",
					"name": "",
					"type": "address"
				}
			],
			"stateMutability": "view",
			"type": "function"
		},
		{
			"inputs": [
				{
					"internalType": "address",
					"name": "",
					"type": "address"
				}
			],
			"name": "referrerOf",
			"outputs": [
				{
					"internalType": "address",
					"name": "",
					"type": "address"
				}
			],
			"stateMutability": "view",
			"type": "function"
		},
		{
			"inputs": [
				{
					"internalType": "address",
					"name": "_manager",
					"type": "address"
				}
			],
			"name": "setManager",
			"outputs": [],
			"stateMutability": "nonpayable",
			"type": "function"
		},
		{
			"inputs": [],
			"name": "setSwitchStatus",
			"outputs": [],
			"stateMutability": "nonpayable",
			"type": "function"
		},
		{
			"inputs": [
				{
					"internalType": "uint8",
					"name": "x",
					"type": "uint8"
				},
				{
					"internalType": "uint8",
					"name": "y",
					"type": "uint8"
				},
				{
					"internalType": "bool",
					"name": "onSale",
					"type": "bool"
				}
			],
			"name": "setTileOnSale",
			"outputs": [],
			"stateMutability": "nonpayable",
			"type": "function"
		},
		{
			"inputs": [],
			"name": "switcher",
			"outputs": [
				{
					"internalType": "address",
					"name": "",
					"type": "address"
				}
			],
			"stateMutability": "view",
			"type": "function"
		},
		{
			"inputs": [
				{
					"internalType": "uint256",
					"name": "",
					"type": "uint256"
				},
				{
					"internalType": "uint256",
					"name": "",
					"type": "uint256"
				}
			],
			"name": "tiles",
			"outputs": [
				{
					"internalType": "bool",
					"name": "isOccupied",
					"type": "bool"
				},
				{
					"internalType": "address",
					"name": "occupant",
					"type": "address"
				},
				{
					"internalType": "bool",
					"name": "isOnSale",
					"type": "bool"
				}
			],
			"stateMutability": "view",
			"type": "function"
		}
	]
}