{
	"data": {
		"bytecode": {
			"linkReferences": {},
			"object": "60806040523480156200001157600080fd5b50604051620044543803806200445483398181016040528101906200003791906200016c565b826000806101000a81548173ffffffffffffffffffffffffffffffffffffffff021916908373ffffffffffffffffffffffffffffffffffffffff16021790555081600160006101000a81548173ffffffffffffffffffffffffffffffffffffffff021916908373ffffffffffffffffffffffffffffffffffffffff16021790555080600260006101000a81548173ffffffffffffffffffffffffffffffffffffffff021916908373ffffffffffffffffffffffffffffffffffffffff160217905550505050620001c8565b600080fd5b600073ffffffffffffffffffffffffffffffffffffffff82169050919050565b6000620001348262000107565b9050919050565b620001468162000127565b81146200015257600080fd5b50565b60008151905062000166816200013b565b92915050565b60008060006060848603121562000188576200018762000102565b5b6000620001988682870162000155565b9350506020620001ab8682870162000155565b9250506040620001be8682870162000155565b9150509250925092565b61427c80620001d86000396000f3fe608060405234801561001057600080fd5b50600436106100b45760003560e01c8063697e71d211610071578063697e71d21461019257806370d27e41146101ae578063763540cd146101de578063999a2f7a1461020e578063b0d777741461022a578063ca03007914610248576100b4565b80630d67f59e146100b957806310ac4633146100d75780633e6abf42146100f55780634b4d9f89146101285780634d53fefb146101585780634f264b0314610174575b600080fd5b6100c1610264565b6040516100ce9190612cc4565b60405180910390f35b6100df61028a565b6040516100ec9190612cf8565b60405180910390f35b61010f600480360381019061010a9190612d87565b61028f565b60405161011f9493929190612df7565b60405180910390f35b610142600480360381019061013d9190612e3c565b610309565b60405161014f9190612f9a565b60405180910390f35b610172600480360381019061016d9190612fbc565b61045f565b005b61017c610a2c565b6040516101899190613044565b60405180910390f35b6101ac60048036038101906101a7919061305f565b610a52565b005b6101c860048036038101906101c391906130c6565b611476565b6040516101d59190612cf8565b60405180910390f35b6101f860048036038101906101f391906130c6565b61149b565b6040516102059190612cf8565b60405180910390f35b61022860048036038101906102239190612fbc565b6114c0565b005b610232611b9d565b60405161023f9190613127565b60405180910390f35b610262600480360381019061025d9190613142565b611bc1565b005b600160009054906101000a900473ffffffffffffffffffffffffffffffffffffffff1681565b600a81565b600360205281600052604060002081815481106102ab57600080fd5b9060005260206000209060030201600091509150508060000160009054906101000a900473ffffffffffffffffffffffffffffffffffffffff16908060000160149054906101000a900460ff16908060010154908060020154905084565b606060018260ff1610158015610323575060088260ff1611155b610362576040517f08c379a00000000000000000000000000000000000000000000000000000000081526004016103599061321a565b60405180910390fd5b600360008360ff1660ff168152602001908152602001600020805480602002602001604051908101604052809291908181526020016000905b8282101561045457838290600052602060002090600302016040518060800160405290816000820160009054906101000a900473ffffffffffffffffffffffffffffffffffffffff1673ffffffffffffffffffffffffffffffffffffffff1673ffffffffffffffffffffffffffffffffffffffff1681526020016000820160149054906101000a900460ff1660ff1660ff168152602001600182015481526020016002820154815250508152602001906001019061039b565b505050509050919050565b83833373ffffffffffffffffffffffffffffffffffffffff16600260009054906101000a900473ffffffffffffffffffffffffffffffffffffffff1673ffffffffffffffffffffffffffffffffffffffff16638a88895384846040518363ffffffff1660e01b81526004016104d592919061323a565b602060405180830381865afa1580156104f2573d6000803e3d6000fd5b505050506040513d601f19601f82011682018060405250810190610516919061328f565b73ffffffffffffffffffffffffffffffffffffffff161461056c576040517f08c379a000000000000000000000000000000000000000000000000000000000815260040161056390613308565b60405180910390fd5b600360008560ff1660ff1681526020019081526020016000208054905083106105ca576040517f08c379a00000000000000000000000000000000000000000000000000000000081526004016105c190613374565b60405180910390fd5b60018460ff16101580156105e2575060088460ff1611155b610621576040517f08c379a00000000000000000000000000000000000000000000000000000000081526004016106189061321a565b60405180910390fd5b6000600360008660ff1660ff168152602001908152602001600020848154811061064e5761064d613394565b5b90600052602060002090600302016040518060800160405290816000820160009054906101000a900473ffffffffffffffffffffffffffffffffffffffff1673ffffffffffffffffffffffffffffffffffffffff1673ffffffffffffffffffffffffffffffffffffffff1681526020016000820160149054906101000a900460ff1660ff1660ff1681526020016001820154815260200160028201548152505090503373ffffffffffffffffffffffffffffffffffffffff16816000015173ffffffffffffffffffffffffffffffffffffffff1614610762576040517f08c379a00000000000000000000000000000000000000000000000000000000081526004016107599061340f565b60405180910390fd5b60008054906101000a900473ffffffffffffffffffffffffffffffffffffffff1673ffffffffffffffffffffffffffffffffffffffff16633e5f2857888888856040015160016040518663ffffffff1660e01b81526004016107c895949392919061344a565b600060405180830381600087803b1580156107e257600080fd5b505af11580156107f6573d6000803e3d6000fd5b50505050600360008660ff1660ff1681526020019081526020016000206001600360008860ff1660ff1681526020019081526020016000208054905061083c91906134cc565b8154811061084d5761084c613394565b5b9060005260206000209060030201600360008760ff1660ff168152602001908152602001600020858154811061088657610885613394565b5b90600052602060002090600302016000820160009054906101000a900473ffffffffffffffffffffffffffffffffffffffff168160000160006101000a81548173ffffffffffffffffffffffffffffffffffffffff021916908373ffffffffffffffffffffffffffffffffffffffff1602179055506000820160149054906101000a900460ff168160000160146101000a81548160ff021916908360ff1602179055506001820154816001015560028201548160020155905050600360008660ff1660ff16815260200190815260200160002080548061096957610968613500565b5b6001900381819060005260206000209060030201600080820160006101000a81549073ffffffffffffffffffffffffffffffffffffffff02191690556000820160146101000a81549060ff021916905560018201600090556002820160009055505090558460ff163373ffffffffffffffffffffffffffffffffffffffff167fcdc639f0e71c77d81afa3fcfc9f7863218a3b0016784247b0aa0fb0fc6a138698360400151604051610a1b9190612cf8565b60405180910390a350505050505050565b600260009054906101000a900473ffffffffffffffffffffffffffffffffffffffff1681565b83833373ffffffffffffffffffffffffffffffffffffffff16600260009054906101000a900473ffffffffffffffffffffffffffffffffffffffff1673ffffffffffffffffffffffffffffffffffffffff16638a88895384846040518363ffffffff1660e01b8152600401610ac892919061323a565b602060405180830381865afa158015610ae5573d6000803e3d6000fd5b505050506040513d601f19601f82011682018060405250810190610b09919061328f565b73ffffffffffffffffffffffffffffffffffffffff1614610b5f576040517f08c379a0000000000000000000000000000000000000000000000000000000008152600401610b5690613308565b60405180910390fd5b600073ffffffffffffffffffffffffffffffffffffffff16600260009054906101000a900473ffffffffffffffffffffffffffffffffffffffff1673ffffffffffffffffffffffffffffffffffffffff16638a88895386866040518363ffffffff1660e01b8152600401610bd492919061323a565b602060405180830381865afa158015610bf1573d6000803e3d6000fd5b505050506040513d601f19601f82011682018060405250810190610c15919061328f565b73ffffffffffffffffffffffffffffffffffffffff1603610c6b576040517f08c379a0000000000000000000000000000000000000000000000000000000008152600401610c629061357b565b60405180910390fd5b6000600260009054906101000a900473ffffffffffffffffffffffffffffffffffffffff1673ffffffffffffffffffffffffffffffffffffffff16638a88895386866040518363ffffffff1660e01b8152600401610cca92919061323a565b602060405180830381865afa158015610ce7573d6000803e3d6000fd5b505050506040513d601f19601f82011682018060405250810190610d0b919061328f565b90503373ffffffffffffffffffffffffffffffffffffffff168173ffffffffffffffffffffffffffffffffffffffff1603610d7b576040517f08c379a0000000000000000000000000000000000000000000000000000000008152600401610d72906135e7565b60405180910390fd5b6000610d87878661204e565b610d91898861204e565b610d9b9190613607565b905060008160ff16118015610db4575060268160ff1611155b610df3576040517f08c379a0000000000000000000000000000000000000000000000000000000008152600401610dea90613688565b60405180910390fd5b61012c600460008a60ff1660ff16815260200190815260200160002060008960ff1660ff16815260200190815260200160002054610e3191906136a8565b60008054906101000a900473ffffffffffffffffffffffffffffffffffffffff1673ffffffffffffffffffffffffffffffffffffffff166341ede44f8a8a6040518363ffffffff1660e01b8152600401610e8c92919061323a565b602060405180830381865afa158015610ea9573d6000803e3d6000fd5b505050506040513d601f19601f82011682018060405250810190610ecd91906136f1565b1015610f0e576040517f08c379a0000000000000000000000000000000000000000000000000000000008152600401610f0590613790565b60405180910390fd5b61012c600560008860ff1660ff16815260200190815260200160002060008760ff1660ff16815260200190815260200160002054610f4c91906136a8565b60008054906101000a900473ffffffffffffffffffffffffffffffffffffffff1673ffffffffffffffffffffffffffffffffffffffff166341ede44f88886040518363ffffffff1660e01b8152600401610fa792919061323a565b602060405180830381865afa158015610fc4573d6000803e3d6000fd5b505050506040513d601f19601f82011682018060405250810190610fe891906136f1565b1015611029576040517f08c379a000000000000000000000000000000000000000000000000000000000815260040161102090613822565b60405180910390fd5b60008060009054906101000a900473ffffffffffffffffffffffffffffffffffffffff1673ffffffffffffffffffffffffffffffffffffffff1663bd6383788a8a6040518363ffffffff1660e01b815260040161108792919061323a565b6101e060405180830381865afa1580156110a5573d6000803e3d6000fd5b505050506040513d601f19601f820116820180604052508101906110c99190613a86565b905060008060009054906101000a900473ffffffffffffffffffffffffffffffffffffffff1673ffffffffffffffffffffffffffffffffffffffff1663bd63837889896040518363ffffffff1660e01b815260040161112992919061323a565b6101e060405180830381865afa158015611147573d6000803e3d6000fd5b505050506040513d601f19601f8201168201806040525081019061116b9190613a86565b90506111798a8a8585612083565b6000806111868484612372565b915091506111988c8c8c8c8888612426565b808211156111ae576111ad8c8c8c8c87612706565b5b60008054906101000a900473ffffffffffffffffffffffffffffffffffffffff1673ffffffffffffffffffffffffffffffffffffffff166341ede44f8d8d6040518363ffffffff1660e01b815260040161120992919061323a565b602060405180830381865afa158015611226573d6000803e3d6000fd5b505050506040513d601f19601f8201168201806040525081019061124a91906136f1565b600460008e60ff1660ff16815260200190815260200160002060008d60ff1660ff1681526020019081526020016000208190555060008054906101000a900473ffffffffffffffffffffffffffffffffffffffff1673ffffffffffffffffffffffffffffffffffffffff166341ede44f8b8b6040518363ffffffff1660e01b81526004016112d992919061323a565b602060405180830381865afa1580156112f6573d6000803e3d6000fd5b505050506040513d601f19601f8201168201806040525081019061131a91906136f1565b600560008c60ff1660ff16815260200190815260200160002060008b60ff1660ff1681526020019081526020016000208190555060008054906101000a900473ffffffffffffffffffffffffffffffffffffffff1673ffffffffffffffffffffffffffffffffffffffff16637659bc608d8d6040518363ffffffff1660e01b81526004016113a992919061323a565b600060405180830381600087803b1580156113c357600080fd5b505af11580156113d7573d6000803e3d6000fd5b5050505060008054906101000a900473ffffffffffffffffffffffffffffffffffffffff1673ffffffffffffffffffffffffffffffffffffffff16637659bc608b8b6040518363ffffffff1660e01b815260040161143692919061323a565b600060405180830381600087803b15801561145057600080fd5b505af1158015611464573d6000803e3d6000fd5b50505050505050505050505050505050565b6005602052816000526040600020602052806000526040600020600091509150505481565b6004602052816000526040600020602052806000526040600020600091509150505481565b83833373ffffffffffffffffffffffffffffffffffffffff16600260009054906101000a900473ffffffffffffffffffffffffffffffffffffffff1673ffffffffffffffffffffffffffffffffffffffff16638a88895384846040518363ffffffff1660e01b815260040161153692919061323a565b602060405180830381865afa158015611553573d6000803e3d6000fd5b505050506040513d601f19601f82011682018060405250810190611577919061328f565b73ffffffffffffffffffffffffffffffffffffffff16146115cd576040517f08c379a00000000000000000000000000000000000000000000000000000000081526004016115c490613308565b60405180910390fd5b600360008560ff1660ff16815260200190815260200160002080549050831061162b576040517f08c379a000000000000000000000000000000000000000000000000000000000815260040161162290613374565b60405180910390fd5b60018460ff1610158015611643575060088460ff1611155b611682576040517f08c379a00000000000000000000000000000000000000000000000000000000081526004016116799061321a565b60405180910390fd5b6000600360008660ff1660ff16815260200190815260200160002084815481106116af576116ae613394565b5b90600052602060002090600302016040518060800160405290816000820160009054906101000a900473ffffffffffffffffffffffffffffffffffffffff1673ffffffffffffffffffffffffffffffffffffffff1673ffffffffffffffffffffffffffffffffffffffff1681526020016000820160149054906101000a900460ff1660ff1660ff1681526020016001820154815260200160028201548152505090503373ffffffffffffffffffffffffffffffffffffffff16816000015173ffffffffffffffffffffffffffffffffffffffff16036117c3576040517f08c379a00000000000000000000000000000000000000000000000000000000081526004016117ba90613b00565b60405180910390fd5b600081606001519050600082604001519050600083600001519050600160009054906101000a900473ffffffffffffffffffffffffffffffffffffffff1673ffffffffffffffffffffffffffffffffffffffff166323b872dd3383866040518463ffffffff1660e01b815260040161183d93929190613b20565b6020604051808303816000875af115801561185c573d6000803e3d6000fd5b505050506040513d601f19601f820116820180604052508101906118809190613b83565b6118bf576040517f08c379a00000000000000000000000000000000000000000000000000000000081526004016118b690613bfc565b60405180910390fd5b60008054906101000a900473ffffffffffffffffffffffffffffffffffffffff1673ffffffffffffffffffffffffffffffffffffffff16633e5f28578b8b8b8660016040518663ffffffff1660e01b815260040161192195949392919061344a565b600060405180830381600087803b15801561193b57600080fd5b505af115801561194f573d6000803e3d6000fd5b50505050600360008960ff1660ff1681526020019081526020016000206001600360008b60ff1660ff1681526020019081526020016000208054905061199591906134cc565b815481106119a6576119a5613394565b5b9060005260206000209060030201600360008a60ff1660ff16815260200190815260200160002088815481106119df576119de613394565b5b90600052602060002090600302016000820160009054906101000a900473ffffffffffffffffffffffffffffffffffffffff168160000160006101000a81548173ffffffffffffffffffffffffffffffffffffffff021916908373ffffffffffffffffffffffffffffffffffffffff1602179055506000820160149054906101000a900460ff168160000160146101000a81548160ff021916908360ff1602179055506001820154816001015560028201548160020155905050600360008960ff1660ff168152602001908152602001600020805480611ac257611ac1613500565b5b6001900381819060005260206000209060030201600080820160006101000a81549073ffffffffffffffffffffffffffffffffffffffff02191690556000820160146101000a81549060ff021916905560018201600090556002820160009055505090558760ff168173ffffffffffffffffffffffffffffffffffffffff163373ffffffffffffffffffffffffffffffffffffffff167fcb8e9dce1a8c67703d11d2b78043345960bab3c035aa061005630270b28c89ec8587604051611b89929190613c1c565b60405180910390a450505050505050505050565b60008054906101000a900473ffffffffffffffffffffffffffffffffffffffff1681565b84843373ffffffffffffffffffffffffffffffffffffffff16600260009054906101000a900473ffffffffffffffffffffffffffffffffffffffff1673ffffffffffffffffffffffffffffffffffffffff16638a88895384846040518363ffffffff1660e01b8152600401611c3792919061323a565b602060405180830381865afa158015611c54573d6000803e3d6000fd5b505050506040513d601f19601f82011682018060405250810190611c78919061328f565b73ffffffffffffffffffffffffffffffffffffffff1614611cce576040517f08c379a0000000000000000000000000000000000000000000000000000000008152600401611cc590613308565b60405180910390fd5b60008311611d11576040517f08c379a0000000000000000000000000000000000000000000000000000000008152600401611d0890613c91565b60405180910390fd5b60008411611d54576040517f08c379a0000000000000000000000000000000000000000000000000000000008152600401611d4b90613cfd565b60405180910390fd5b60018560ff1610158015611d6c575060088560ff1611155b611dab576040517f08c379a0000000000000000000000000000000000000000000000000000000008152600401611da29061321a565b60405180910390fd5b60048560ff1611611e10576127108410158015611dcc57506305f5e1008411155b611e0b576040517f08c379a0000000000000000000000000000000000000000000000000000000008152600401611e0290613d69565b60405180910390fd5b611e63565b60648410158015611e2357506127108411155b611e62576040517f08c379a0000000000000000000000000000000000000000000000000000000008152600401611e5990613dfb565b60405180910390fd5b5b60008054906101000a900473ffffffffffffffffffffffffffffffffffffffff1673ffffffffffffffffffffffffffffffffffffffff16633e5f28578888888860006040518663ffffffff1660e01b8152600401611ec595949392919061344a565b600060405180830381600087803b158015611edf57600080fd5b505af1158015611ef3573d6000803e3d6000fd5b50505050600360008660ff1660ff16815260200190815260200160002060405180608001604052803373ffffffffffffffffffffffffffffffffffffffff1681526020018760ff16815260200186815260200185815250908060018154018082558091505060019003906000526020600020906003020160009091909190915060008201518160000160006101000a81548173ffffffffffffffffffffffffffffffffffffffff021916908373ffffffffffffffffffffffffffffffffffffffff16021790555060208201518160000160146101000a81548160ff021916908360ff160217905550604082015181600101556060820151816002015550508460ff163373ffffffffffffffffffffffffffffffffffffffff167f9d2fa11e70f4c72f4275d772a6e09bbd83b3800a6b4f2351a7ac06df8db5169e868660405161203d929190613c1c565b60405180910390a350505050505050565b60008160ff168360ff161161206e5782826120699190613e1b565b61207b565b818361207a9190613e1b565b5b905092915050565b600081610160015182610140015161209b91906136a8565b8360ff16600a6120ab9190613e50565b6120b59190613e50565b905060008054906101000a900473ffffffffffffffffffffffffffffffffffffffff1673ffffffffffffffffffffffffffffffffffffffff16633e5f28578686600160646028876121069190613e50565b6121109190613ec1565b60006040518663ffffffff1660e01b8152600401612132959493929190613f2d565b600060405180830381600087803b15801561214c57600080fd5b505af1158015612160573d6000803e3d6000fd5b5050505060008054906101000a900473ffffffffffffffffffffffffffffffffffffffff1673ffffffffffffffffffffffffffffffffffffffff16633e5f2857868660026064601e876121b39190613e50565b6121bd9190613ec1565b60006040518663ffffffff1660e01b81526004016121df959493929190613fbb565b600060405180830381600087803b1580156121f957600080fd5b505af115801561220d573d6000803e3d6000fd5b5050505060008054906101000a900473ffffffffffffffffffffffffffffffffffffffff1673ffffffffffffffffffffffffffffffffffffffff16633e5f28578686600360646014876122609190613e50565b61226a9190613ec1565b60006040518663ffffffff1660e01b815260040161228c959493929190614049565b600060405180830381600087803b1580156122a657600080fd5b505af11580156122ba573d6000803e3d6000fd5b5050505060008054906101000a900473ffffffffffffffffffffffffffffffffffffffff1673ffffffffffffffffffffffffffffffffffffffff16633e5f2857868660046064600a8761230d9190613e50565b6123179190613ec1565b60006040518663ffffffff1660e01b81526004016123399594939291906140d7565b600060405180830381600087803b15801561235357600080fd5b505af1158015612367573d6000803e3d6000fd5b505050505050505050565b600080600060018561018001516123899190613607565b60ff16600186610160015161239e9190613e50565b60028761014001516123b09190613e50565b6123ba91906136a8565b6123c491906136a8565b905060006001856101a001516123da9190613607565b60ff1660028661016001516123ef9190613e50565b60018761014001516124019190613e50565b61240b91906136a8565b61241591906136a8565b905081819350935050509250929050565b6000600283610140015161243a9190613ec1565b9050600060028461016001516124509190613ec1565b9050600060028461014001516124669190613ec1565b90506000600285610160015161247c9190613ec1565b9050600084111561251d5760008054906101000a900473ffffffffffffffffffffffffffffffffffffffff1673ffffffffffffffffffffffffffffffffffffffff16633e5f28578b8b60098860006040518663ffffffff1660e01b81526004016124ea959493929190614165565b600060405180830381600087803b15801561250457600080fd5b505af1158015612518573d6000803e3d6000fd5b505050505b60008311156125bc5760008054906101000a900473ffffffffffffffffffffffffffffffffffffffff1673ffffffffffffffffffffffffffffffffffffffff16633e5f28578b8b600a8760006040518663ffffffff1660e01b81526004016125899594939291906141f3565b600060405180830381600087803b1580156125a357600080fd5b505af11580156125b7573d6000803e3d6000fd5b505050505b600082111561265b5760008054906101000a900473ffffffffffffffffffffffffffffffffffffffff1673ffffffffffffffffffffffffffffffffffffffff16633e5f2857898960098660006040518663ffffffff1660e01b8152600401612628959493929190614165565b600060405180830381600087803b15801561264257600080fd5b505af1158015612656573d6000803e3d6000fd5b505050505b60008111156126fa5760008054906101000a900473ffffffffffffffffffffffffffffffffffffffff1673ffffffffffffffffffffffffffffffffffffffff16633e5f28578989600a8560006040518663ffffffff1660e01b81526004016126c79594939291906141f3565b600060405180830381600087803b1580156126e157600080fd5b505af11580156126f5573d6000803e3d6000fd5b505050505b50505050505050505050565b600181600001511115612854576000600282600001516127269190613ec1565b905060008054906101000a900473ffffffffffffffffffffffffffffffffffffffff1673ffffffffffffffffffffffffffffffffffffffff16633e5f2857858560018560006040518663ffffffff1660e01b815260040161278b959493929190613f2d565b600060405180830381600087803b1580156127a557600080fd5b505af11580156127b9573d6000803e3d6000fd5b5050505060008054906101000a900473ffffffffffffffffffffffffffffffffffffffff1673ffffffffffffffffffffffffffffffffffffffff16633e5f2857878760018560016040518663ffffffff1660e01b8152600401612820959493929190613f2d565b600060405180830381600087803b15801561283a57600080fd5b505af115801561284e573d6000803e3d6000fd5b50505050505b6001816020015111156129a2576000600282602001516128749190613ec1565b905060008054906101000a900473ffffffffffffffffffffffffffffffffffffffff1673ffffffffffffffffffffffffffffffffffffffff16633e5f2857858560028560006040518663ffffffff1660e01b81526004016128d9959493929190613fbb565b600060405180830381600087803b1580156128f357600080fd5b505af1158015612907573d6000803e3d6000fd5b5050505060008054906101000a900473ffffffffffffffffffffffffffffffffffffffff1673ffffffffffffffffffffffffffffffffffffffff16633e5f2857878760028560016040518663ffffffff1660e01b815260040161296e959493929190613fbb565b600060405180830381600087803b15801561298857600080fd5b505af115801561299c573d6000803e3d6000fd5b50505050505b600181604001511115612af0576000600282604001516129c29190613ec1565b905060008054906101000a900473ffffffffffffffffffffffffffffffffffffffff1673ffffffffffffffffffffffffffffffffffffffff16633e5f2857858560038560006040518663ffffffff1660e01b8152600401612a27959493929190614049565b600060405180830381600087803b158015612a4157600080fd5b505af1158015612a55573d6000803e3d6000fd5b5050505060008054906101000a900473ffffffffffffffffffffffffffffffffffffffff1673ffffffffffffffffffffffffffffffffffffffff16633e5f2857878760038560016040518663ffffffff1660e01b8152600401612abc959493929190614049565b600060405180830381600087803b158015612ad657600080fd5b505af1158015612aea573d6000803e3d6000fd5b50505050505b600181606001511115612c3e57600060028260600151612b109190613ec1565b905060008054906101000a900473ffffffffffffffffffffffffffffffffffffffff1673ffffffffffffffffffffffffffffffffffffffff16633e5f2857858560048560006040518663ffffffff1660e01b8152600401612b759594939291906140d7565b600060405180830381600087803b158015612b8f57600080fd5b505af1158015612ba3573d6000803e3d6000fd5b5050505060008054906101000a900473ffffffffffffffffffffffffffffffffffffffff1673ffffffffffffffffffffffffffffffffffffffff16633e5f2857878760048560016040518663ffffffff1660e01b8152600401612c0a9594939291906140d7565b600060405180830381600087803b158015612c2457600080fd5b505af1158015612c38573d6000803e3d6000fd5b50505050505b5050505050565b600073ffffffffffffffffffffffffffffffffffffffff82169050919050565b6000819050919050565b6000612c8a612c85612c8084612c45565b612c65565b612c45565b9050919050565b6000612c9c82612c6f565b9050919050565b6000612cae82612c91565b9050919050565b612cbe81612ca3565b82525050565b6000602082019050612cd96000830184612cb5565b92915050565b6000819050919050565b612cf281612cdf565b82525050565b6000602082019050612d0d6000830184612ce9565b92915050565b6000604051905090565b600080fd5b600060ff82169050919050565b612d3881612d22565b8114612d4357600080fd5b50565b600081359050612d5581612d2f565b92915050565b612d6481612cdf565b8114612d6f57600080fd5b50565b600081359050612d8181612d5b565b92915050565b60008060408385031215612d9e57612d9d612d1d565b5b6000612dac85828601612d46565b9250506020612dbd85828601612d72565b9150509250929050565b6000612dd282612c45565b9050919050565b612de281612dc7565b82525050565b612df181612d22565b82525050565b6000608082019050612e0c6000830187612dd9565b612e196020830186612de8565b612e266040830185612ce9565b612e336060830184612ce9565b95945050505050565b600060208284031215612e5257612e51612d1d565b5b6000612e6084828501612d46565b91505092915050565b600081519050919050565b600082825260208201905092915050565b6000819050602082019050919050565b612e9e81612dc7565b82525050565b612ead81612d22565b82525050565b612ebc81612cdf565b82525050565b608082016000820151612ed86000850182612e95565b506020820151612eeb6020850182612ea4565b506040820151612efe6040850182612eb3565b506060820151612f116060850182612eb3565b50505050565b6000612f238383612ec2565b60808301905092915050565b6000602082019050919050565b6000612f4782612e69565b612f518185612e74565b9350612f5c83612e85565b8060005b83811015612f8d578151612f748882612f17565b9750612f7f83612f2f565b925050600181019050612f60565b5085935050505092915050565b60006020820190508181036000830152612fb48184612f3c565b905092915050565b60008060008060808587031215612fd657612fd5612d1d565b5b6000612fe487828801612d46565b9450506020612ff587828801612d46565b935050604061300687828801612d46565b925050606061301787828801612d72565b91505092959194509250565b600061302e82612c91565b9050919050565b61303e81613023565b82525050565b60006020820190506130596000830184613035565b92915050565b6000806000806080858703121561307957613078612d1d565b5b600061308787828801612d46565b945050602061309887828801612d46565b93505060406130a987828801612d46565b92505060606130ba87828801612d46565b91505092959194509250565b600080604083850312156130dd576130dc612d1d565b5b60006130eb85828601612d46565b92505060206130fc85828601612d46565b9150509250929050565b600061311182612c91565b9050919050565b61312181613106565b82525050565b600060208201905061313c6000830184613118565b92915050565b600080600080600060a0868803121561315e5761315d612d1d565b5b600061316c88828901612d46565b955050602061317d88828901612d46565b945050604061318e88828901612d46565b935050606061319f88828901612d72565b92505060806131b088828901612d72565b9150509295509295909350565b600082825260208201905092915050565b7f496e76616c6964207265736f7572636520747970650000000000000000000000600082015250565b60006132046015836131bd565b915061320f826131ce565b602082019050919050565b60006020820190508181036000830152613233816131f7565b9050919050565b600060408201905061324f6000830185612de8565b61325c6020830184612de8565b9392505050565b61326c81612dc7565b811461327757600080fd5b50565b60008151905061328981613263565b92915050565b6000602082840312156132a5576132a4612d1d565b5b60006132b38482850161327a565b91505092915050565b7f596f7520646f206e6f74206f776e20746869732074696c650000000000000000600082015250565b60006132f26018836131bd565b91506132fd826132bc565b602082019050919050565b60006020820190508181036000830152613321816132e5565b9050919050565b7f496e76616c696420696e64657800000000000000000000000000000000000000600082015250565b600061335e600d836131bd565b915061336982613328565b602082019050919050565b6000602082019050818103600083015261338d81613351565b9050919050565b7f4e487b7100000000000000000000000000000000000000000000000000000000600052603260045260246000fd5b7f4e6f7420796f7572206c697374696e6700000000000000000000000000000000600082015250565b60006133f96010836131bd565b9150613404826133c3565b602082019050919050565b60006020820190508181036000830152613428816133ec565b9050919050565b60008115159050919050565b6134448161342f565b82525050565b600060a08201905061345f6000830188612de8565b61346c6020830187612de8565b6134796040830186612de8565b6134866060830185612ce9565b613493608083018461343b565b9695505050505050565b7f4e487b7100000000000000000000000000000000000000000000000000000000600052601160045260246000fd5b60006134d782612cdf565b91506134e283612cdf565b92508282039050818111156134fa576134f961349d565b5b92915050565b7f4e487b7100000000000000000000000000000000000000000000000000000000600052603160045260246000fd5b7f4e6f20646566656e646572000000000000000000000000000000000000000000600082015250565b6000613565600b836131bd565b91506135708261352f565b602082019050919050565b6000602082019050818103600083015261359481613558565b9050919050565b7f43616e27742061747461636b20796f757273656c660000000000000000000000600082015250565b60006135d16015836131bd565b91506135dc8261359b565b602082019050919050565b60006020820190508181036000830152613600816135c4565b9050919050565b600061361282612d22565b915061361d83612d22565b9250828201905060ff8111156136365761363561349d565b5b92915050565b7f54617267657420746f6f20666172206f722073616d652074696c650000000000600082015250565b6000613672601b836131bd565b915061367d8261363c565b602082019050919050565b600060208201905081810360008301526136a181613665565b9050919050565b60006136b382612cdf565b91506136be83612cdf565b92508282019050808211156136d6576136d561349d565b5b92915050565b6000815190506136eb81612d5b565b92915050565b60006020828403121561370757613706612d1d565b5b6000613715848285016136dc565b91505092915050565b7f4e6f7420656e6f756768207475726e732073696e6365206c617374206174746160008201527f636b000000000000000000000000000000000000000000000000000000000000602082015250565b600061377a6022836131bd565b91506137858261371e565b604082019050919050565b600060208201905081810360008301526137a98161376d565b9050919050565b7f446566656e64657220697320756e64657220636f6f6c646f776e2070726f746560008201527f6374696f6e000000000000000000000000000000000000000000000000000000602082015250565b600061380c6025836131bd565b9150613817826137b0565b604082019050919050565b6000602082019050818103600083015261383b816137ff565b9050919050565b600080fd5b6000601f19601f8301169050919050565b7f4e487b7100000000000000000000000000000000000000000000000000000000600052604160045260246000fd5b61389082613847565b810181811067ffffffffffffffff821117156138af576138ae613858565b5b80604052505050565b60006138c2612d13565b90506138ce8282613887565b919050565b600061ffff82169050919050565b6138ea816138d3565b81146138f557600080fd5b50565b600081519050613907816138e1565b92915050565b60008151905061391c81612d2f565b92915050565b60006101e0828403121561393957613938613842565b5b6139446101e06138b8565b90506000613954848285016136dc565b6000830152506020613968848285016136dc565b602083015250604061397c848285016136dc565b6040830152506060613990848285016136dc565b60608301525060806139a4848285016138f8565b60808301525060a06139b8848285016136dc565b60a08301525060c06139cc848285016136dc565b60c08301525060e06139e0848285016136dc565b60e0830152506101006139f5848285016136dc565b61010083015250610120613a0b848285016136dc565b61012083015250610140613a21848285016136dc565b61014083015250610160613a37848285016136dc565b61016083015250610180613a4d8482850161390d565b610180830152506101a0613a638482850161390d565b6101a0830152506101c0613a79848285016136dc565b6101c08301525092915050565b60006101e08284031215613a9d57613a9c612d1d565b5b6000613aab84828501613922565b91505092915050565b7f43616e6e6f742062757920796f7572206f776e206974656d0000000000000000600082015250565b6000613aea6018836131bd565b9150613af582613ab4565b602082019050919050565b60006020820190508181036000830152613b1981613add565b9050919050565b6000606082019050613b356000830186612dd9565b613b426020830185612dd9565b613b4f6040830184612ce9565b949350505050565b613b608161342f565b8114613b6b57600080fd5b50565b600081519050613b7d81613b57565b92915050565b600060208284031215613b9957613b98612d1d565b5b6000613ba784828501613b6e565b91505092915050565b7f546f6b656e207472616e73666572206661696c65640000000000000000000000600082015250565b6000613be66015836131bd565b9150613bf182613bb0565b602082019050919050565b60006020820190508181036000830152613c1581613bd9565b9050919050565b6000604082019050613c316000830185612ce9565b613c3e6020830184612ce9565b9392505050565b7f5072696365206d7573742062652067726561746572207468616e207a65726f00600082015250565b6000613c7b601f836131bd565b9150613c8682613c45565b602082019050919050565b60006020820190508181036000830152613caa81613c6e565b9050919050565b7f416d6f756e74206d7573742062652067726561746572207468616e207a65726f600082015250565b6000613ce76020836131bd565b9150613cf282613cb1565b602082019050919050565b60006020820190508181036000830152613d1681613cda565b9050919050565b7f496e76616c696420616d6f756e7420666f72207265736f757263650000000000600082015250565b6000613d53601b836131bd565b9150613d5e82613d1d565b602082019050919050565b60006020820190508181036000830152613d8281613d46565b9050919050565b7f496e76616c696420616d6f756e7420666f72206d696c6974617279206571756960008201527f706d656e74000000000000000000000000000000000000000000000000000000602082015250565b6000613de56025836131bd565b9150613df082613d89565b604082019050919050565b60006020820190508181036000830152613e1481613dd8565b9050919050565b6000613e2682612d22565b9150613e3183612d22565b9250828203905060ff811115613e4a57613e4961349d565b5b92915050565b6000613e5b82612cdf565b9150613e6683612cdf565b9250828202613e7481612cdf565b91508282048414831517613e8b57613e8a61349d565b5b5092915050565b7f4e487b7100000000000000000000000000000000000000000000000000000000600052601260045260246000fd5b6000613ecc82612cdf565b9150613ed783612cdf565b925082613ee757613ee6613e92565b5b828204905092915050565b6000819050919050565b6000613f17613f12613f0d84613ef2565b612c65565b612d22565b9050919050565b613f2781613efc565b82525050565b600060a082019050613f426000830188612de8565b613f4f6020830187612de8565b613f5c6040830186613f1e565b613f696060830185612ce9565b613f76608083018461343b565b9695505050505050565b6000819050919050565b6000613fa5613fa0613f9b84613f80565b612c65565b612d22565b9050919050565b613fb581613f8a565b82525050565b600060a082019050613fd06000830188612de8565b613fdd6020830187612de8565b613fea6040830186613fac565b613ff76060830185612ce9565b614004608083018461343b565b9695505050505050565b6000819050919050565b600061403361402e6140298461400e565b612c65565b612d22565b9050919050565b61404381614018565b82525050565b600060a08201905061405e6000830188612de8565b61406b6020830187612de8565b614078604083018661403a565b6140856060830185612ce9565b614092608083018461343b565b9695505050505050565b6000819050919050565b60006140c16140bc6140b78461409c565b612c65565b612d22565b9050919050565b6140d1816140a6565b82525050565b600060a0820190506140ec6000830188612de8565b6140f96020830187612de8565b61410660408301866140c8565b6141136060830185612ce9565b614120608083018461343b565b9695505050505050565b6000819050919050565b600061414f61414a6141458461412a565b612c65565b612d22565b9050919050565b61415f81614134565b82525050565b600060a08201905061417a6000830188612de8565b6141876020830187612de8565b6141946040830186614156565b6141a16060830185612ce9565b6141ae608083018461343b565b9695505050505050565b6000819050919050565b60006141dd6141d86141d3846141b8565b612c65565b612d22565b9050919050565b6141ed816141c2565b82525050565b600060a0820190506142086000830188612de8565b6142156020830187612de8565b61422260408301866141e4565b61422f6060830185612ce9565b61423c608083018461343b565b969550505050505056fea2646970667358221220711721a564f588f5161812de2bf32dafdc4b0d65b131779b31e22a7a7ca675dd64736f6c63430008120033",
			"opcodes": "PUSH1 0x80 PUSH1 0x40 MSTORE CALLVALUE DUP1 ISZERO PUSH3 0x11 JUMPI PUSH1 0x0 DUP1 REVERT JUMPDEST POP PUSH1 0x40 MLOAD PUSH3 0x4454 CODESIZE SUB DUP1 PUSH3 0x4454 DUP4 CODECOPY DUP2 DUP2 ADD PUSH1 0x40 MSTORE DUP2 ADD SWAP1 PUSH3 0x37 SWAP2 SWAP1 PUSH3 0x16C JUMP JUMPDEST DUP3 PUSH1 0x0 DUP1 PUSH2 0x100 EXP DUP2 SLOAD DUP2 PUSH20 0xFFFFFFFFFFFFFFFFFFFFFFFFFFFFFFFFFFFFFFFF MUL NOT AND SWAP1 DUP4 PUSH20 0xFFFFFFFFFFFFFFFFFFFFFFFFFFFFFFFFFFFFFFFF AND MUL OR SWAP1 SSTORE POP DUP2 PUSH1 0x1 PUSH1 0x0 PUSH2 0x100 EXP DUP2 SLOAD DUP2 PUSH20 0xFFFFFFFFFFFFFFFFFFFFFFFFFFFFFFFFFFFFFFFF MUL NOT AND SWAP1 DUP4 PUSH20 0xFFFFFFFFFFFFFFFFFFFFFFFFFFFFFFFFFFFFFFFF AND MUL OR SWAP1 SSTORE POP DUP1 PUSH1 0x2 PUSH1 0x0 PUSH2 0x100 EXP DUP2 SLOAD DUP2 PUSH20 0xFFFFFFFFFFFFFFFFFFFFFFFFFFFFFFFFFFFFFFFF MUL NOT AND SWAP1 DUP4 PUSH20 0xFFFFFFFFFFFFFFFFFFFFFFFFFFFFFFFFFFFFFFFF AND MUL OR SWAP1 SSTORE POP POP POP POP PUSH3 0x1C8 JUMP JUMPDEST PUSH1 0x0 DUP1 REVERT JUMPDEST PUSH1 0x0 PUSH20 0xFFFFFFFFFFFFFFFFFFFFFFFFFFFFFFFFFFFFFFFF DUP3 AND SWAP1 POP SWAP2 SWAP1 POP JUMP JUMPDEST PUSH1 0x0 PUSH3 0x134 DUP3 PUSH3 0x107 JUMP JUMPDEST SWAP1 POP SWAP2 SWAP1 POP JUMP JUMPDEST PUSH3 0x146 DUP2 PUSH3 0x127 JUMP JUMPDEST DUP2 EQ PUSH3 0x152 JUMPI PUSH1 0x0 DUP1 REVERT JUMPDEST POP JUMP JUMPDEST PUSH1 0x0 DUP2 MLOAD SWAP1 POP PUSH3 0x166 DUP2 PUSH3 0x13B JUMP JUMPDEST SWAP3 SWAP2 POP POP JUMP JUMPDEST PUSH1 0x0 DUP1 PUSH1 0x0 PUSH1 0x60 DUP5 DUP7 SUB SLT ISZERO PUSH3 0x188 JUMPI PUSH3 0x187 PUSH3 0x102 JUMP JUMPDEST JUMPDEST PUSH1 0x0 PUSH3 0x198 DUP7 DUP3 DUP8 ADD PUSH3 0x155 JUMP JUMPDEST SWAP4 POP POP PUSH1 0x20 PUSH3 0x1AB DUP7 DUP3 DUP8 ADD PUSH3 0x155 JUMP JUMPDEST SWAP3 POP POP PUSH1 0x40 PUSH3 0x1BE DUP7 DUP3 DUP8 ADD PUSH3 0x155 JUMP JUMPDEST SWAP2 POP POP SWAP3 POP SWAP3 POP SWAP3 JUMP JUMPDEST PUSH2 0x427C DUP1 PUSH3 0x1D8 PUSH1 0x0 CODECOPY PUSH1 0x0 RETURN INVALID PUSH1 0x80 PUSH1 0x40 MSTORE CALLVALUE DUP1 ISZERO PUSH2 0x10 JUMPI PUSH1 0x0 DUP1 REVERT JUMPDEST POP PUSH1 0x4 CALLDATASIZE LT PUSH2 0xB4 JUMPI PUSH1 0x0 CALLDATALOAD PUSH1 0xE0 SHR DUP1 PUSH4 0x697E71D2 GT PUSH2 0x71 JUMPI DUP1 PUSH4 0x697E71D2 EQ PUSH2 0x192 JUMPI DUP1 PUSH4 0x70D27E41 EQ PUSH2 0x1AE JUMPI DUP1 PUSH4 0x763540CD EQ PUSH2 0x1DE JUMPI DUP1 PUSH4 0x999A2F7A EQ PUSH2 0x20E JUMPI DUP1 PUSH4 0xB0D77774 EQ PUSH2 0x22A JUMPI DUP1 PUSH4 0xCA030079 EQ PUSH2 0x248 JUMPI PUSH2 0xB4 JUMP JUMPDEST DUP1 PUSH4 0xD67F59E EQ PUSH2 0xB9 JUMPI DUP1 PUSH4 0x10AC4633 EQ PUSH2 0xD7 JUMPI DUP1 PUSH4 0x3E6ABF42 EQ PUSH2 0xF5 JUMPI DUP1 PUSH4 0x4B4D9F89 EQ PUSH2 0x128 JUMPI DUP1 PUSH4 0x4D53FEFB EQ PUSH2 0x158 JUMPI DUP1 PUSH4 0x4F264B03 EQ PUSH2 0x174 JUMPI JUMPDEST PUSH1 0x0 DUP1 REVERT JUMPDEST PUSH2 0xC1 PUSH2 0x264 JUMP JUMPDEST PUSH1 0x40 MLOAD PUSH2 0xCE SWAP2 SWAP1 PUSH2 0x2CC4 JUMP JUMPDEST PUSH1 0x40 MLOAD DUP1 SWAP2 SUB SWAP1 RETURN JUMPDEST PUSH2 0xDF PUSH2 0x28A JUMP JUMPDEST PUSH1 0x40 MLOAD PUSH2 0xEC SWAP2 SWAP1 PUSH2 0x2CF8 JUMP JUMPDEST PUSH1 0x40 MLOAD DUP1 SWAP2 SUB SWAP1 RETURN JUMPDEST PUSH2 0x10F PUSH1 0x4 DUP1 CALLDATASIZE SUB DUP2 ADD SWAP1 PUSH2 0x10A SWAP2 SWAP1 PUSH2 0x2D87 JUMP JUMPDEST PUSH2 0x28F JUMP JUMPDEST PUSH1 0x40 MLOAD PUSH2 0x11F SWAP5 SWAP4 SWAP3 SWAP2 SWAP1 PUSH2 0x2DF7 JUMP JUMPDEST PUSH1 0x40 MLOAD DUP1 SWAP2 SUB SWAP1 RETURN JUMPDEST PUSH2 0x142 PUSH1 0x4 DUP1 CALLDATASIZE SUB DUP2 ADD SWAP1 PUSH2 0x13D SWAP2 SWAP1 PUSH2 0x2E3C JUMP JUMPDEST PUSH2 0x309 JUMP JUMPDEST PUSH1 0x40 MLOAD PUSH2 0x14F SWAP2 SWAP1 PUSH2 0x2F9A JUMP JUMPDEST PUSH1 0x40 MLOAD DUP1 SWAP2 SUB SWAP1 RETURN JUMPDEST PUSH2 0x172 PUSH1 0x4 DUP1 CALLDATASIZE SUB DUP2 ADD SWAP1 PUSH2 0x16D SWAP2 SWAP1 PUSH2 0x2FBC JUMP JUMPDEST PUSH2 0x45F JUMP JUMPDEST STOP JUMPDEST PUSH2 0x17C PUSH2 0xA2C JUMP JUMPDEST PUSH1 0x40 MLOAD PUSH2 0x189 SWAP2 SWAP1 PUSH2 0x3044 JUMP JUMPDEST PUSH1 0x40 MLOAD DUP1 SWAP2 SUB SWAP1 RETURN JUMPDEST PUSH2 0x1AC PUSH1 0x4 DUP1 CALLDATASIZE SUB DUP2 ADD SWAP1 PUSH2 0x1A7 SWAP2 SWAP1 PUSH2 0x305F JUMP JUMPDEST PUSH2 0xA52 JUMP JUMPDEST STOP JUMPDEST PUSH2 0x1C8 PUSH1 0x4 DUP1 CALLDATASIZE SUB DUP2 ADD SWAP1 PUSH2 0x1C3 SWAP2 SWAP1 PUSH2 0x30C6 JUMP JUMPDEST PUSH2 0x1476 JUMP JUMPDEST PUSH1 0x40 MLOAD PUSH2 0x1D5 SWAP2 SWAP1 PUSH2 0x2CF8 JUMP JUMPDEST PUSH1 0x40 MLOAD DUP1 SWAP2 SUB SWAP1 RETURN JUMPDEST PUSH2 0x1F8 PUSH1 0x4 DUP1 CALLDATASIZE SUB DUP2 ADD SWAP1 PUSH2 0x1F3 SWAP2 SWAP1 PUSH2 0x30C6 JUMP JUMPDEST PUSH2 0x149B JUMP JUMPDEST PUSH1 0x40 MLOAD PUSH2 0x205 SWAP2 SWAP1 PUSH2 0x2CF8 JUMP JUMPDEST PUSH1 0x40 MLOAD DUP1 SWAP2 SUB SWAP1 RETURN JUMPDEST PUSH2 0x228 PUSH1 0x4 DUP1 CALLDATASIZE SUB DUP2 ADD SWAP1 PUSH2 0x223 SWAP2 SWAP1 PUSH2 0x2FBC JUMP JUMPDEST PUSH2 0x14C0 JUMP JUMPDEST STOP JUMPDEST PUSH2 0x232 PUSH2 0x1B9D JUMP JUMPDEST PUSH1 0x40 MLOAD PUSH2 0x23F SWAP2 SWAP1 PUSH2 0x3127 JUMP JUMPDEST PUSH1 0x40 MLOAD DUP1 SWAP2 SUB SWAP1 RETURN JUMPDEST PUSH2 0x262 PUSH1 0x4 DUP1 CALLDATASIZE SUB DUP2 ADD SWAP1 PUSH2 0x25D SWAP2 SWAP1 PUSH2 0x3142 JUMP JUMPDEST PUSH2 0x1BC1 JUMP JUMPDEST STOP JUMPDEST PUSH1 0x1 PUSH1 0x0 SWAP1 SLOAD SWAP1 PUSH2 0x100 EXP SWAP1 DIV PUSH20 0xFFFFFFFFFFFFFFFFFFFFFFFFFFFFFFFFFFFFFFFF AND DUP2 JUMP JUMPDEST PUSH1 0xA DUP2 JUMP JUMPDEST PUSH1 0x3 PUSH1 0x20 MSTORE DUP2 PUSH1 0x0 MSTORE PUSH1 0x40 PUSH1 0x0 KECCAK256 DUP2 DUP2 SLOAD DUP2 LT PUSH2 0x2AB JUMPI PUSH1 0x0 DUP1 REVERT JUMPDEST SWAP1 PUSH1 0x0 MSTORE PUSH1 0x20 PUSH1 0x0 KECCAK256 SWAP1 PUSH1 0x3 MUL ADD PUSH1 0x0 SWAP2 POP SWAP2 POP POP DUP1 PUSH1 0x0 ADD PUSH1 0x0 SWAP1 SLOAD SWAP1 PUSH2 0x100 EXP SWAP1 DIV PUSH20 0xFFFFFFFFFFFFFFFFFFFFFFFFFFFFFFFFFFFFFFFF AND SWAP1 DUP1 PUSH1 0x0 ADD PUSH1 0x14 SWAP1 SLOAD SWAP1 PUSH2 0x100 EXP SWAP1 DIV PUSH1 0xFF AND SWAP1 DUP1 PUSH1 0x1 ADD SLOAD SWAP1 DUP1 PUSH1 0x2 ADD SLOAD SWAP1 POP DUP5 JUMP JUMPDEST PUSH1 0x60 PUSH1 0x1 DUP3 PUSH1 0xFF AND LT ISZERO DUP1 ISZERO PUSH2 0x323 JUMPI POP PUSH1 0x8 DUP3 PUSH1 0xFF AND GT ISZERO JUMPDEST PUSH2 0x362 JUMPI PUSH1 0x40 MLOAD PUSH32 0x8C379A000000000000000000000000000000000000000000000000000000000 DUP2 MSTORE PUSH1 0x4 ADD PUSH2 0x359 SWAP1 PUSH2 0x321A JUMP JUMPDEST PUSH1 0x40 MLOAD DUP1 SWAP2 SUB SWAP1 REVERT JUMPDEST PUSH1 0x3 PUSH1 0x0 DUP4 PUSH1 0xFF AND PUSH1 0xFF AND DUP2 MSTORE PUSH1 0x20 ADD SWAP1 DUP2 MSTORE PUSH1 0x20 ADD PUSH1 0x0 KECCAK256 DUP1 SLOAD DUP1 PUSH1 0x20 MUL PUSH1 0x20 ADD PUSH1 0x40 MLOAD SWAP1 DUP2 ADD PUSH1 0x40 MSTORE DUP1 SWAP3 SWAP2 SWAP1 DUP2 DUP2 MSTORE PUSH1 0x20 ADD PUSH1 0x0 SWAP1 JUMPDEST DUP3 DUP3 LT ISZERO PUSH2 0x454 JUMPI DUP4 DUP3 SWAP1 PUSH1 0x0 MSTORE PUSH1 0x20 PUSH1 0x0 KECCAK256 SWAP1 PUSH1 0x3 MUL ADD PUSH1 0x40 MLOAD DUP1 PUSH1 0x80 ADD PUSH1 0x40 MSTORE SWAP1 DUP2 PUSH1 0x0 DUP3 ADD PUSH1 0x0 SWAP1 SLOAD SWAP1 PUSH2 0x100 EXP SWAP1 DIV PUSH20 0xFFFFFFFFFFFFFFFFFFFFFFFFFFFFFFFFFFFFFFFF AND PUSH20 0xFFFFFFFFFFFFFFFFFFFFFFFFFFFFFFFFFFFFFFFF AND PUSH20 0xFFFFFFFFFFFFFFFFFFFFFFFFFFFFFFFFFFFFFFFF AND DUP2 MSTORE PUSH1 0x20 ADD PUSH1 0x0 DUP3 ADD PUSH1 0x14 SWAP1 SLOAD SWAP1 PUSH2 0x100 EXP SWAP1 DIV PUSH1 0xFF AND PUSH1 0xFF AND PUSH1 0xFF AND DUP2 MSTORE PUSH1 0x20 ADD PUSH1 0x1 DUP3 ADD SLOAD DUP2 MSTORE PUSH1 0x20 ADD PUSH1 0x2 DUP3 ADD SLOAD DUP2 MSTORE POP POP DUP2 MSTORE PUSH1 0x20 ADD SWAP1 PUSH1 0x1 ADD SWAP1 PUSH2 0x39B JUMP JUMPDEST POP POP POP POP SWAP1 POP SWAP2 SWAP1 POP JUMP JUMPDEST DUP4 DUP4 CALLER PUSH20 0xFFFFFFFFFFFFFFFFFFFFFFFFFFFFFFFFFFFFFFFF AND PUSH1 0x2 PUSH1 0x0 SWAP1 SLOAD SWAP1 PUSH2 0x100 EXP SWAP1 DIV PUSH20 0xFFFFFFFFFFFFFFFFFFFFFFFFFFFFFFFFFFFFFFFF AND PUSH20 0xFFFFFFFFFFFFFFFFFFFFFFFFFFFFFFFFFFFFFFFF AND PUSH4 0x8A888953 DUP5 DUP5 PUSH1 0x40 MLOAD DUP4 PUSH4 0xFFFFFFFF AND PUSH1 0xE0 SHL DUP2 MSTORE PUSH1 0x4 ADD PUSH2 0x4D5 SWAP3 SWAP2 SWAP1 PUSH2 0x323A JUMP JUMPDEST PUSH1 0x20 PUSH1 0x40 MLOAD DUP1 DUP4 SUB DUP2 DUP7 GAS STATICCALL ISZERO DUP1 ISZERO PUSH2 0x4F2 JUMPI RETURNDATASIZE PUSH1 0x0 DUP1 RETURNDATACOPY RETURNDATASIZE PUSH1 0x0 REVERT JUMPDEST POP POP POP POP PUSH1 0x40 MLOAD RETURNDATASIZE PUSH1 0x1F NOT PUSH1 0x1F DUP3 ADD AND DUP3 ADD DUP1 PUSH1 0x40 MSTORE POP DUP2 ADD SWAP1 PUSH2 0x516 SWAP2 SWAP1 PUSH2 0x328F JUMP JUMPDEST PUSH20 0xFFFFFFFFFFFFFFFFFFFFFFFFFFFFFFFFFFFFFFFF AND EQ PUSH2 0x56C JUMPI PUSH1 0x40 MLOAD PUSH32 0x8C379A000000000000000000000000000000000000000000000000000000000 DUP2 MSTORE PUSH1 0x4 ADD PUSH2 0x563 SWAP1 PUSH2 0x3308 JUMP JUMPDEST PUSH1 0x40 MLOAD DUP1 SWAP2 SUB SWAP1 REVERT JUMPDEST PUSH1 0x3 PUSH1 0x0 DUP6 PUSH1 0xFF AND PUSH1 0xFF AND DUP2 MSTORE PUSH1 0x20 ADD SWAP1 DUP2 MSTORE PUSH1 0x20 ADD PUSH1 0x0 KECCAK256 DUP1 SLOAD SWAP1 POP DUP4 LT PUSH2 0x5CA JUMPI PUSH1 0x40 MLOAD PUSH32 0x8C379A000000000000000000000000000000000000000000000000000000000 DUP2 MSTORE PUSH1 0x4 ADD PUSH2 0x5C1 SWAP1 PUSH2 0x3374 JUMP JUMPDEST PUSH1 0x40 MLOAD DUP1 SWAP2 SUB SWAP1 REVERT JUMPDEST PUSH1 0x1 DUP5 PUSH1 0xFF AND LT ISZERO DUP1 ISZERO PUSH2 0x5E2 JUMPI POP PUSH1 0x8 DUP5 PUSH1 0xFF AND GT ISZERO JUMPDEST PUSH2 0x621 JUMPI PUSH1 0x40 MLOAD PUSH32 0x8C379A000000000000000000000000000000000000000000000000000000000 DUP2 MSTORE PUSH1 0x4 ADD PUSH2 0x618 SWAP1 PUSH2 0x321A JUMP JUMPDEST PUSH1 0x40 MLOAD DUP1 SWAP2 SUB SWAP1 REVERT JUMPDEST PUSH1 0x0 PUSH1 0x3 PUSH1 0x0 DUP7 PUSH1 0xFF AND PUSH1 0xFF AND DUP2 MSTORE PUSH1 0x20 ADD SWAP1 DUP2 MSTORE PUSH1 0x20 ADD PUSH1 0x0 KECCAK256 DUP5 DUP2 SLOAD DUP2 LT PUSH2 0x64E JUMPI PUSH2 0x64D PUSH2 0x3394 JUMP JUMPDEST JUMPDEST SWAP1 PUSH1 0x0 MSTORE PUSH1 0x20 PUSH1 0x0 KECCAK256 SWAP1 PUSH1 0x3 MUL ADD PUSH1 0x40 MLOAD DUP1 PUSH1 0x80 ADD PUSH1 0x40 MSTORE SWAP1 DUP2 PUSH1 0x0 DUP3 ADD PUSH1 0x0 SWAP1 SLOAD SWAP1 PUSH2 0x100 EXP SWAP1 DIV PUSH20 0xFFFFFFFFFFFFFFFFFFFFFFFFFFFFFFFFFFFFFFFF AND PUSH20 0xFFFFFFFFFFFFFFFFFFFFFFFFFFFFFFFFFFFFFFFF AND PUSH20 0xFFFFFFFFFFFFFFFFFFFFFFFFFFFFFFFFFFFFFFFF AND DUP2 MSTORE PUSH1 0x20 ADD PUSH1 0x0 DUP3 ADD PUSH1 0x14 SWAP1 SLOAD SWAP1 PUSH2 0x100 EXP SWAP1 DIV PUSH1 0xFF AND PUSH1 0xFF AND PUSH1 0xFF AND DUP2 MSTORE PUSH1 0x20 ADD PUSH1 0x1 DUP3 ADD SLOAD DUP2 MSTORE PUSH1 0x20 ADD PUSH1 0x2 DUP3 ADD SLOAD DUP2 MSTORE POP POP SWAP1 POP CALLER PUSH20 0xFFFFFFFFFFFFFFFFFFFFFFFFFFFFFFFFFFFFFFFF AND DUP2 PUSH1 0x0 ADD MLOAD PUSH20 0xFFFFFFFFFFFFFFFFFFFFFFFFFFFFFFFFFFFFFFFF AND EQ PUSH2 0x762 JUMPI PUSH1 0x40 MLOAD PUSH32 0x8C379A000000000000000000000000000000000000000000000000000000000 DUP2 MSTORE PUSH1 0x4 ADD PUSH2 0x759 SWAP1 PUSH2 0x340F JUMP JUMPDEST PUSH1 0x40 MLOAD DUP1 SWAP2 SUB SWAP1 REVERT JUMPDEST PUSH1 0x0 DUP1 SLOAD SWAP1 PUSH2 0x100 EXP SWAP1 DIV PUSH20 0xFFFFFFFFFFFFFFFFFFFFFFFFFFFFFFFFFFFFFFFF AND PUSH20 0xFFFFFFFFFFFFFFFFFFFFFFFFFFFFFFFFFFFFFFFF AND PUSH4 0x3E5F2857 DUP9 DUP9 DUP9 DUP6 PUSH1 0x40 ADD MLOAD PUSH1 0x1 PUSH1 0x40 MLOAD DUP7 PUSH4 0xFFFFFFFF AND PUSH1 0xE0 SHL DUP2 MSTORE PUSH1 0x4 ADD PUSH2 0x7C8 SWAP6 SWAP5 SWAP4 SWAP3 SWAP2 SWAP1 PUSH2 0x344A JUMP JUMPDEST PUSH1 0x0 PUSH1 0x40 MLOAD DUP1 DUP4 SUB DUP2 PUSH1 0x0 DUP8 DUP1 EXTCODESIZE ISZERO DUP1 ISZERO PUSH2 0x7E2 JUMPI PUSH1 0x0 DUP1 REVERT JUMPDEST POP GAS CALL ISZERO DUP1 ISZERO PUSH2 0x7F6 JUMPI RETURNDATASIZE PUSH1 0x0 DUP1 RETURNDATACOPY RETURNDATASIZE PUSH1 0x0 REVERT JUMPDEST POP POP POP POP PUSH1 0x3 PUSH1 0x0 DUP7 PUSH1 0xFF AND PUSH1 0xFF AND DUP2 MSTORE PUSH1 0x20 ADD SWAP1 DUP2 MSTORE PUSH1 0x20 ADD PUSH1 0x0 KECCAK256 PUSH1 0x1 PUSH1 0x3 PUSH1 0x0 DUP9 PUSH1 0xFF AND PUSH1 0xFF AND DUP2 MSTORE PUSH1 0x20 ADD SWAP1 DUP2 MSTORE PUSH1 0x20 ADD PUSH1 0x0 KECCAK256 DUP1 SLOAD SWAP1 POP PUSH2 0x83C SWAP2 SWAP1 PUSH2 0x34CC JUMP JUMPDEST DUP2 SLOAD DUP2 LT PUSH2 0x84D JUMPI PUSH2 0x84C PUSH2 0x3394 JUMP JUMPDEST JUMPDEST SWAP1 PUSH1 0x0 MSTORE PUSH1 0x20 PUSH1 0x0 KECCAK256 SWAP1 PUSH1 0x3 MUL ADD PUSH1 0x3 PUSH1 0x0 DUP8 PUSH1 0xFF AND PUSH1 0xFF AND DUP2 MSTORE PUSH1 0x20 ADD SWAP1 DUP2 MSTORE PUSH1 0x20 ADD PUSH1 0x0 KECCAK256 DUP6 DUP2 SLOAD DUP2 LT PUSH2 0x886 JUMPI PUSH2 0x885 PUSH2 0x3394 JUMP JUMPDEST JUMPDEST SWAP1 PUSH1 0x0 MSTORE PUSH1 0x20 PUSH1 0x0 KECCAK256 SWAP1 PUSH1 0x3 MUL ADD PUSH1 0x0 DUP3 ADD PUSH1 0x0 SWAP1 SLOAD SWAP1 PUSH2 0x100 EXP SWAP1 DIV PUSH20 0xFFFFFFFFFFFFFFFFFFFFFFFFFFFFFFFFFFFFFFFF AND DUP2 PUSH1 0x0 ADD PUSH1 0x0 PUSH2 0x100 EXP DUP2 SLOAD DUP2 PUSH20 0xFFFFFFFFFFFFFFFFFFFFFFFFFFFFFFFFFFFFFFFF MUL NOT AND SWAP1 DUP4 PUSH20 0xFFFFFFFFFFFFFFFFFFFFFFFFFFFFFFFFFFFFFFFF AND MUL OR SWAP1 SSTORE POP PUSH1 0x0 DUP3 ADD PUSH1 0x14 SWAP1 SLOAD SWAP1 PUSH2 0x100 EXP SWAP1 DIV PUSH1 0xFF AND DUP2 PUSH1 0x0 ADD PUSH1 0x14 PUSH2 0x100 EXP DUP2 SLOAD DUP2 PUSH1 0xFF MUL NOT AND SWAP1 DUP4 PUSH1 0xFF AND MUL OR SWAP1 SSTORE POP PUSH1 0x1 DUP3 ADD SLOAD DUP2 PUSH1 0x1 ADD SSTORE PUSH1 0x2 DUP3 ADD SLOAD DUP2 PUSH1 0x2 ADD SSTORE SWAP1 POP POP PUSH1 0x3 PUSH1 0x0 DUP7 PUSH1 0xFF AND PUSH1 0xFF AND DUP2 MSTORE PUSH1 0x20 ADD SWAP1 DUP2 MSTORE PUSH1 0x20 ADD PUSH1 0x0 KECCAK256 DUP1 SLOAD DUP1 PUSH2 0x969 JUMPI PUSH2 0x968 PUSH2 0x3500 JUMP JUMPDEST JUMPDEST PUSH1 0x1 SWAP1 SUB DUP2 DUP2 SWAP1 PUSH1 0x0 MSTORE PUSH1 0x20 PUSH1 0x0 KECCAK256 SWAP1 PUSH1 0x3 MUL ADD PUSH1 0x0 DUP1 DUP3 ADD PUSH1 0x0 PUSH2 0x100 EXP DUP2 SLOAD SWAP1 PUSH20 0xFFFFFFFFFFFFFFFFFFFFFFFFFFFFFFFFFFFFFFFF MUL NOT AND SWAP1 SSTORE PUSH1 0x0 DUP3 ADD PUSH1 0x14 PUSH2 0x100 EXP DUP2 SLOAD SWAP1 PUSH1 0xFF MUL NOT AND SWAP1 SSTORE PUSH1 0x1 DUP3 ADD PUSH1 0x0 SWAP1 SSTORE PUSH1 0x2 DUP3 ADD PUSH1 0x0 SWAP1 SSTORE POP POP SWAP1 SSTORE DUP5 PUSH1 0xFF AND CALLER PUSH20 0xFFFFFFFFFFFFFFFFFFFFFFFFFFFFFFFFFFFFFFFF AND PUSH32 0xCDC639F0E71C77D81AFA3FCFC9F7863218A3B0016784247B0AA0FB0FC6A13869 DUP4 PUSH1 0x40 ADD MLOAD PUSH1 0x40 MLOAD PUSH2 0xA1B SWAP2 SWAP1 PUSH2 0x2CF8 JUMP JUMPDEST PUSH1 0x40 MLOAD DUP1 SWAP2 SUB SWAP1 LOG3 POP POP POP POP POP POP POP JUMP JUMPDEST PUSH1 0x2 PUSH1 0x0 SWAP1 SLOAD SWAP1 PUSH2 0x100 EXP SWAP1 DIV PUSH20 0xFFFFFFFFFFFFFFFFFFFFFFFFFFFFFFFFFFFFFFFF AND DUP2 JUMP JUMPDEST DUP4 DUP4 CALLER PUSH20 0xFFFFFFFFFFFFFFFFFFFFFFFFFFFFFFFFFFFFFFFF AND PUSH1 0x2 PUSH1 0x0 SWAP1 SLOAD SWAP1 PUSH2 0x100 EXP SWAP1 DIV PUSH20 0xFFFFFFFFFFFFFFFFFFFFFFFFFFFFFFFFFFFFFFFF AND PUSH20 0xFFFFFFFFFFFFFFFFFFFFFFFFFFFFFFFFFFFFFFFF AND PUSH4 0x8A888953 DUP5 DUP5 PUSH1 0x40 MLOAD DUP4 PUSH4 0xFFFFFFFF AND PUSH1 0xE0 SHL DUP2 MSTORE PUSH1 0x4 ADD PUSH2 0xAC8 SWAP3 SWAP2 SWAP1 PUSH2 0x323A JUMP JUMPDEST PUSH1 0x20 PUSH1 0x40 MLOAD DUP1 DUP4 SUB DUP2 DUP7 GAS STATICCALL ISZERO DUP1 ISZERO PUSH2 0xAE5 JUMPI RETURNDATASIZE PUSH1 0x0 DUP1 RETURNDATACOPY RETURNDATASIZE PUSH1 0x0 REVERT JUMPDEST POP POP POP POP PUSH1 0x40 MLOAD RETURNDATASIZE PUSH1 0x1F NOT PUSH1 0x1F DUP3 ADD AND DUP3 ADD DUP1 PUSH1 0x40 MSTORE POP DUP2 ADD SWAP1 PUSH2 0xB09 SWAP2 SWAP1 PUSH2 0x328F JUMP JUMPDEST PUSH20 0xFFFFFFFFFFFFFFFFFFFFFFFFFFFFFFFFFFFFFFFF AND EQ PUSH2 0xB5F JUMPI PUSH1 0x40 MLOAD PUSH32 0x8C379A000000000000000000000000000000000000000000000000000000000 DUP2 MSTORE PUSH1 0x4 ADD PUSH2 0xB56 SWAP1 PUSH2 0x3308 JUMP JUMPDEST PUSH1 0x40 MLOAD DUP1 SWAP2 SUB SWAP1 REVERT JUMPDEST PUSH1 0x0 PUSH20 0xFFFFFFFFFFFFFFFFFFFFFFFFFFFFFFFFFFFFFFFF AND PUSH1 0x2 PUSH1 0x0 SWAP1 SLOAD SWAP1 PUSH2 0x100 EXP SWAP1 DIV PUSH20 0xFFFFFFFFFFFFFFFFFFFFFFFFFFFFFFFFFFFFFFFF AND PUSH20 0xFFFFFFFFFFFFFFFFFFFFFFFFFFFFFFFFFFFFFFFF AND PUSH4 0x8A888953 DUP7 DUP7 PUSH1 0x40 MLOAD DUP4 PUSH4 0xFFFFFFFF AND PUSH1 0xE0 SHL DUP2 MSTORE PUSH1 0x4 ADD PUSH2 0xBD4 SWAP3 SWAP2 SWAP1 PUSH2 0x323A JUMP JUMPDEST PUSH1 0x20 PUSH1 0x40 MLOAD DUP1 DUP4 SUB DUP2 DUP7 GAS STATICCALL ISZERO DUP1 ISZERO PUSH2 0xBF1 JUMPI RETURNDATASIZE PUSH1 0x0 DUP1 RETURNDATACOPY RETURNDATASIZE PUSH1 0x0 REVERT JUMPDEST POP POP POP POP PUSH1 0x40 MLOAD RETURNDATASIZE PUSH1 0x1F NOT PUSH1 0x1F DUP3 ADD AND DUP3 ADD DUP1 PUSH1 0x40 MSTORE POP DUP2 ADD SWAP1 PUSH2 0xC15 SWAP2 SWAP1 PUSH2 0x328F JUMP JUMPDEST PUSH20 0xFFFFFFFFFFFFFFFFFFFFFFFFFFFFFFFFFFFFFFFF AND SUB PUSH2 0xC6B JUMPI PUSH1 0x40 MLOAD PUSH32 0x8C379A000000000000000000000000000000000000000000000000000000000 DUP2 MSTORE PUSH1 0x4 ADD PUSH2 0xC62 SWAP1 PUSH2 0x357B JUMP JUMPDEST PUSH1 0x40 MLOAD DUP1 SWAP2 SUB SWAP1 REVERT JUMPDEST PUSH1 0x0 PUSH1 0x2 PUSH1 0x0 SWAP1 SLOAD SWAP1 PUSH2 0x100 EXP SWAP1 DIV PUSH20 0xFFFFFFFFFFFFFFFFFFFFFFFFFFFFFFFFFFFFFFFF AND PUSH20 0xFFFFFFFFFFFFFFFFFFFFFFFFFFFFFFFFFFFFFFFF AND PUSH4 0x8A888953 DUP7 DUP7 PUSH1 0x40 MLOAD DUP4 PUSH4 0xFFFFFFFF AND PUSH1 0xE0 SHL DUP2 MSTORE PUSH1 0x4 ADD PUSH2 0xCCA SWAP3 SWAP2 SWAP1 PUSH2 0x323A JUMP JUMPDEST PUSH1 0x20 PUSH1 0x40 MLOAD DUP1 DUP4 SUB DUP2 DUP7 GAS STATICCALL ISZERO DUP1 ISZERO PUSH2 0xCE7 JUMPI RETURNDATASIZE PUSH1 0x0 DUP1 RETURNDATACOPY RETURNDATASIZE PUSH1 0x0 REVERT JUMPDEST POP POP POP POP PUSH1 0x40 MLOAD RETURNDATASIZE PUSH1 0x1F NOT PUSH1 0x1F DUP3 ADD AND DUP3 ADD DUP1 PUSH1 0x40 MSTORE POP DUP2 ADD SWAP1 PUSH2 0xD0B SWAP2 SWAP1 PUSH2 0x328F JUMP JUMPDEST SWAP1 POP CALLER PUSH20 0xFFFFFFFFFFFFFFFFFFFFFFFFFFFFFFFFFFFFFFFF AND DUP2 PUSH20 0xFFFFFFFFFFFFFFFFFFFFFFFFFFFFFFFFFFFFFFFF AND SUB PUSH2 0xD7B JUMPI PUSH1 0x40 MLOAD PUSH32 0x8C379A000000000000000000000000000000000000000000000000000000000 DUP2 MSTORE PUSH1 0x4 ADD PUSH2 0xD72 SWAP1 PUSH2 0x35E7 JUMP JUMPDEST PUSH1 0x40 MLOAD DUP1 SWAP2 SUB SWAP1 REVERT JUMPDEST PUSH1 0x0 PUSH2 0xD87 DUP8 DUP7 PUSH2 0x204E JUMP JUMPDEST PUSH2 0xD91 DUP10 DUP9 PUSH2 0x204E JUMP JUMPDEST PUSH2 0xD9B SWAP2 SWAP1 PUSH2 0x3607 JUMP JUMPDEST SWAP1 POP PUSH1 0x0 DUP2 PUSH1 0xFF AND GT DUP1 ISZERO PUSH2 0xDB4 JUMPI POP PUSH1 0x26 DUP2 PUSH1 0xFF AND GT ISZERO JUMPDEST PUSH2 0xDF3 JUMPI PUSH1 0x40 MLOAD PUSH32 0x8C379A000000000000000000000000000000000000000000000000000000000 DUP2 MSTORE PUSH1 0x4 ADD PUSH2 0xDEA SWAP1 PUSH2 0x3688 JUMP JUMPDEST PUSH1 0x40 MLOAD DUP1 SWAP2 SUB SWAP1 REVERT JUMPDEST PUSH2 0x12C PUSH1 0x4 PUSH1 0x0 DUP11 PUSH1 0xFF AND PUSH1 0xFF AND DUP2 MSTORE PUSH1 0x20 ADD SWAP1 DUP2 MSTORE PUSH1 0x20 ADD PUSH1 0x0 KECCAK256 PUSH1 0x0 DUP10 PUSH1 0xFF AND PUSH1 0xFF AND DUP2 MSTORE PUSH1 0x20 ADD SWAP1 DUP2 MSTORE PUSH1 0x20 ADD PUSH1 0x0 KECCAK256 SLOAD PUSH2 0xE31 SWAP2 SWAP1 PUSH2 0x36A8 JUMP JUMPDEST PUSH1 0x0 DUP1 SLOAD SWAP1 PUSH2 0x100 EXP SWAP1 DIV PUSH20 0xFFFFFFFFFFFFFFFFFFFFFFFFFFFFFFFFFFFFFFFF AND PUSH20 0xFFFFFFFFFFFFFFFFFFFFFFFFFFFFFFFFFFFFFFFF AND PUSH4 0x41EDE44F DUP11 DUP11 PUSH1 0x40 MLOAD DUP4 PUSH4 0xFFFFFFFF AND PUSH1 0xE0 SHL DUP2 MSTORE PUSH1 0x4 ADD PUSH2 0xE8C SWAP3 SWAP2 SWAP1 PUSH2 0x323A JUMP JUMPDEST PUSH1 0x20 PUSH1 0x40 MLOAD DUP1 DUP4 SUB DUP2 DUP7 GAS STATICCALL ISZERO DUP1 ISZERO PUSH2 0xEA9 JUMPI RETURNDATASIZE PUSH1 0x0 DUP1 RETURNDATACOPY RETURNDATASIZE PUSH1 0x0 REVERT JUMPDEST POP POP POP POP PUSH1 0x40 MLOAD RETURNDATASIZE PUSH1 0x1F NOT PUSH1 0x1F DUP3 ADD AND DUP3 ADD DUP1 PUSH1 0x40 MSTORE POP DUP2 ADD SWAP1 PUSH2 0xECD SWAP2 SWAP1 PUSH2 0x36F1 JUMP JUMPDEST LT ISZERO PUSH2 0xF0E JUMPI PUSH1 0x40 MLOAD PUSH32 0x8C379A000000000000000000000000000000000000000000000000000000000 DUP2 MSTORE PUSH1 0x4 ADD PUSH2 0xF05 SWAP1 PUSH2 0x3790 JUMP JUMPDEST PUSH1 0x40 MLOAD DUP1 SWAP2 SUB SWAP1 REVERT JUMPDEST PUSH2 0x12C PUSH1 0x5 PUSH1 0x0 DUP9 PUSH1 0xFF AND PUSH1 0xFF AND DUP2 MSTORE PUSH1 0x20 ADD SWAP1 DUP2 MSTORE PUSH1 0x20 ADD PUSH1 0x0 KECCAK256 PUSH1 0x0 DUP8 PUSH1 0xFF AND PUSH1 0xFF AND DUP2 MSTORE PUSH1 0x20 ADD SWAP1 DUP2 MSTORE PUSH1 0x20 ADD PUSH1 0x0 KECCAK256 SLOAD PUSH2 0xF4C SWAP2 SWAP1 PUSH2 0x36A8 JUMP JUMPDEST PUSH1 0x0 DUP1 SLOAD SWAP1 PUSH2 0x100 EXP SWAP1 DIV PUSH20 0xFFFFFFFFFFFFFFFFFFFFFFFFFFFFFFFFFFFFFFFF AND PUSH20 0xFFFFFFFFFFFFFFFFFFFFFFFFFFFFFFFFFFFFFFFF AND PUSH4 0x41EDE44F DUP9 DUP9 PUSH1 0x40 MLOAD DUP4 PUSH4 0xFFFFFFFF AND PUSH1 0xE0 SHL DUP2 MSTORE PUSH1 0x4 ADD PUSH2 0xFA7 SWAP3 SWAP2 SWAP1 PUSH2 0x323A JUMP JUMPDEST PUSH1 0x20 PUSH1 0x40 MLOAD DUP1 DUP4 SUB DUP2 DUP7 GAS STATICCALL ISZERO DUP1 ISZERO PUSH2 0xFC4 JUMPI RETURNDATASIZE PUSH1 0x0 DUP1 RETURNDATACOPY RETURNDATASIZE PUSH1 0x0 REVERT JUMPDEST POP POP POP POP PUSH1 0x40 MLOAD RETURNDATASIZE PUSH1 0x1F NOT PUSH1 0x1F DUP3 ADD AND DUP3 ADD DUP1 PUSH1 0x40 MSTORE POP DUP2 ADD SWAP1 PUSH2 0xFE8 SWAP2 SWAP1 PUSH2 0x36F1 JUMP JUMPDEST LT ISZERO PUSH2 0x1029 JUMPI PUSH1 0x40 MLOAD PUSH32 0x8C379A000000000000000000000000000000000000000000000000000000000 DUP2 MSTORE PUSH1 0x4 ADD PUSH2 0x1020 SWAP1 PUSH2 0x3822 JUMP JUMPDEST PUSH1 0x40 MLOAD DUP1 SWAP2 SUB SWAP1 REVERT JUMPDEST PUSH1 0x0 DUP1 PUSH1 0x0 SWAP1 SLOAD SWAP1 PUSH2 0x100 EXP SWAP1 DIV PUSH20 0xFFFFFFFFFFFFFFFFFFFFFFFFFFFFFFFFFFFFFFFF AND PUSH20 0xFFFFFFFFFFFFFFFFFFFFFFFFFFFFFFFFFFFFFFFF AND PUSH4 0xBD638378 DUP11 DUP11 PUSH1 0x40 MLOAD DUP4 PUSH4 0xFFFFFFFF AND PUSH1 0xE0 SHL DUP2 MSTORE PUSH1 0x4 ADD PUSH2 0x1087 SWAP3 SWAP2 SWAP1 PUSH2 0x323A JUMP JUMPDEST PUSH2 0x1E0 PUSH1 0x40 MLOAD DUP1 DUP4 SUB DUP2 DUP7 GAS STATICCALL ISZERO DUP1 ISZERO PUSH2 0x10A5 JUMPI RETURNDATASIZE PUSH1 0x0 DUP1 RETURNDATACOPY RETURNDATASIZE PUSH1 0x0 REVERT JUMPDEST POP POP POP POP PUSH1 0x40 MLOAD RETURNDATASIZE PUSH1 0x1F NOT PUSH1 0x1F DUP3 ADD AND DUP3 ADD DUP1 PUSH1 0x40 MSTORE POP DUP2 ADD SWAP1 PUSH2 0x10C9 SWAP2 SWAP1 PUSH2 0x3A86 JUMP JUMPDEST SWAP1 POP PUSH1 0x0 DUP1 PUSH1 0x0 SWAP1 SLOAD SWAP1 PUSH2 0x100 EXP SWAP1 DIV PUSH20 0xFFFFFFFFFFFFFFFFFFFFFFFFFFFFFFFFFFFFFFFF AND PUSH20 0xFFFFFFFFFFFFFFFFFFFFFFFFFFFFFFFFFFFFFFFF AND PUSH4 0xBD638378 DUP10 DUP10 PUSH1 0x40 MLOAD DUP4 PUSH4 0xFFFFFFFF AND PUSH1 0xE0 SHL DUP2 MSTORE PUSH1 0x4 ADD PUSH2 0x1129 SWAP3 SWAP2 SWAP1 PUSH2 0x323A JUMP JUMPDEST PUSH2 0x1E0 PUSH1 0x40 MLOAD DUP1 DUP4 SUB DUP2 DUP7 GAS STATICCALL ISZERO DUP1 ISZERO PUSH2 0x1147 JUMPI RETURNDATASIZE PUSH1 0x0 DUP1 RETURNDATACOPY RETURNDATASIZE PUSH1 0x0 REVERT JUMPDEST POP POP POP POP PUSH1 0x40 MLOAD RETURNDATASIZE PUSH1 0x1F NOT PUSH1 0x1F DUP3 ADD AND DUP3 ADD DUP1 PUSH1 0x40 MSTORE POP DUP2 ADD SWAP1 PUSH2 0x116B SWAP2 SWAP1 PUSH2 0x3A86 JUMP JUMPDEST SWAP1 POP PUSH2 0x1179 DUP11 DUP11 DUP6 DUP6 PUSH2 0x2083 JUMP JUMPDEST PUSH1 0x0 DUP1 PUSH2 0x1186 DUP5 DUP5 PUSH2 0x2372 JUMP JUMPDEST SWAP2 POP SWAP2 POP PUSH2 0x1198 DUP13 DUP13 DUP13 DUP13 DUP9 DUP9 PUSH2 0x2426 JUMP JUMPDEST DUP1 DUP3 GT ISZERO PUSH2 0x11AE JUMPI PUSH2 0x11AD DUP13 DUP13 DUP13 DUP13 DUP8 PUSH2 0x2706 JUMP JUMPDEST JUMPDEST PUSH1 0x0 DUP1 SLOAD SWAP1 PUSH2 0x100 EXP SWAP1 DIV PUSH20 0xFFFFFFFFFFFFFFFFFFFFFFFFFFFFFFFFFFFFFFFF AND PUSH20 0xFFFFFFFFFFFFFFFFFFFFFFFFFFFFFFFFFFFFFFFF AND PUSH4 0x41EDE44F DUP14 DUP14 PUSH1 0x40 MLOAD DUP4 PUSH4 0xFFFFFFFF AND PUSH1 0xE0 SHL DUP2 MSTORE PUSH1 0x4 ADD PUSH2 0x1209 SWAP3 SWAP2 SWAP1 PUSH2 0x323A JUMP JUMPDEST PUSH1 0x20 PUSH1 0x40 MLOAD DUP1 DUP4 SUB DUP2 DUP7 GAS STATICCALL ISZERO DUP1 ISZERO PUSH2 0x1226 JUMPI RETURNDATASIZE PUSH1 0x0 DUP1 RETURNDATACOPY RETURNDATASIZE PUSH1 0x0 REVERT JUMPDEST POP POP POP POP PUSH1 0x40 MLOAD RETURNDATASIZE PUSH1 0x1F NOT PUSH1 0x1F DUP3 ADD AND DUP3 ADD DUP1 PUSH1 0x40 MSTORE POP DUP2 ADD SWAP1 PUSH2 0x124A SWAP2 SWAP1 PUSH2 0x36F1 JUMP JUMPDEST PUSH1 0x4 PUSH1 0x0 DUP15 PUSH1 0xFF AND PUSH1 0xFF AND DUP2 MSTORE PUSH1 0x20 ADD SWAP1 DUP2 MSTORE PUSH1 0x20 ADD PUSH1 0x0 KECCAK256 PUSH1 0x0 DUP14 PUSH1 0xFF AND PUSH1 0xFF AND DUP2 MSTORE PUSH1 0x20 ADD SWAP1 DUP2 MSTORE PUSH1 0x20 ADD PUSH1 0x0 KECCAK256 DUP2 SWAP1 SSTORE POP PUSH1 0x0 DUP1 SLOAD SWAP1 PUSH2 0x100 EXP SWAP1 DIV PUSH20 0xFFFFFFFFFFFFFFFFFFFFFFFFFFFFFFFFFFFFFFFF AND PUSH20 0xFFFFFFFFFFFFFFFFFFFFFFFFFFFFFFFFFFFFFFFF AND PUSH4 0x41EDE44F DUP12 DUP12 PUSH1 0x40 MLOAD DUP4 PUSH4 0xFFFFFFFF AND PUSH1 0xE0 SHL DUP2 MSTORE PUSH1 0x4 ADD PUSH2 0x12D9 SWAP3 SWAP2 SWAP1 PUSH2 0x323A JUMP JUMPDEST PUSH1 0x20 PUSH1 0x40 MLOAD DUP1 DUP4 SUB DUP2 DUP7 GAS STATICCALL ISZERO DUP1 ISZERO PUSH2 0x12F6 JUMPI RETURNDATASIZE PUSH1 0x0 DUP1 RETURNDATACOPY RETURNDATASIZE PUSH1 0x0 REVERT JUMPDEST POP POP POP POP PUSH1 0x40 MLOAD RETURNDATASIZE PUSH1 0x1F NOT PUSH1 0x1F DUP3 ADD AND DUP3 ADD DUP1 PUSH1 0x40 MSTORE POP DUP2 ADD SWAP1 PUSH2 0x131A SWAP2 SWAP1 PUSH2 0x36F1 JUMP JUMPDEST PUSH1 0x5 PUSH1 0x0 DUP13 PUSH1 0xFF AND PUSH1 0xFF AND DUP2 MSTORE PUSH1 0x20 ADD SWAP1 DUP2 MSTORE PUSH1 0x20 ADD PUSH1 0x0 KECCAK256 PUSH1 0x0 DUP12 PUSH1 0xFF AND PUSH1 0xFF AND DUP2 MSTORE PUSH1 0x20 ADD SWAP1 DUP2 MSTORE PUSH1 0x20 ADD PUSH1 0x0 KECCAK256 DUP2 SWAP1 SSTORE POP PUSH1 0x0 DUP1 SLOAD SWAP1 PUSH2 0x100 EXP SWAP1 DIV PUSH20 0xFFFFFFFFFFFFFFFFFFFFFFFFFFFFFFFFFFFFFFFF AND PUSH20 0xFFFFFFFFFFFFFFFFFFFFFFFFFFFFFFFFFFFFFFFF AND PUSH4 0x7659BC60 DUP14 DUP14 PUSH1 0x40 MLOAD DUP4 PUSH4 0xFFFFFFFF AND PUSH1 0xE0 SHL DUP2 MSTORE PUSH1 0x4 ADD PUSH2 0x13A9 SWAP3 SWAP2 SWAP1 PUSH2 0x323A JUMP JUMPDEST PUSH1 0x0 PUSH1 0x40 MLOAD DUP1 DUP4 SUB DUP2 PUSH1 0x0 DUP8 DUP1 EXTCODESIZE ISZERO DUP1 ISZERO PUSH2 0x13C3 JUMPI PUSH1 0x0 DUP1 REVERT JUMPDEST POP GAS CALL ISZERO DUP1 ISZERO PUSH2 0x13D7 JUMPI RETURNDATASIZE PUSH1 0x0 DUP1 RETURNDATACOPY RETURNDATASIZE PUSH1 0x0 REVERT JUMPDEST POP POP POP POP PUSH1 0x0 DUP1 SLOAD SWAP1 PUSH2 0x100 EXP SWAP1 DIV PUSH20 0xFFFFFFFFFFFFFFFFFFFFFFFFFFFFFFFFFFFFFFFF AND PUSH20 0xFFFFFFFFFFFFFFFFFFFFFFFFFFFFFFFFFFFFFFFF AND PUSH4 0x7659BC60 DUP12 DUP12 PUSH1 0x40 MLOAD DUP4 PUSH4 0xFFFFFFFF AND PUSH1 0xE0 SHL DUP2 MSTORE PUSH1 0x4 ADD PUSH2 0x1436 SWAP3 SWAP2 SWAP1 PUSH2 0x323A JUMP JUMPDEST PUSH1 0x0 PUSH1 0x40 MLOAD DUP1 DUP4 SUB DUP2 PUSH1 0x0 DUP8 DUP1 EXTCODESIZE ISZERO DUP1 ISZERO PUSH2 0x1450 JUMPI PUSH1 0x0 DUP1 REVERT JUMPDEST POP GAS CALL ISZERO DUP1 ISZERO PUSH2 0x1464 JUMPI RETURNDATASIZE PUSH1 0x0 DUP1 RETURNDATACOPY RETURNDATASIZE PUSH1 0x0 REVERT JUMPDEST POP POP POP POP POP POP POP POP POP POP POP POP POP POP POP POP JUMP JUMPDEST PUSH1 0x5 PUSH1 0x20 MSTORE DUP2 PUSH1 0x0 MSTORE PUSH1 0x40 PUSH1 0x0 KECCAK256 PUSH1 0x20 MSTORE DUP1 PUSH1 0x0 MSTORE PUSH1 0x40 PUSH1 0x0 KECCAK256 PUSH1 0x0 SWAP2 POP SWAP2 POP POP SLOAD DUP2 JUMP JUMPDEST PUSH1 0x4 PUSH1 0x20 MSTORE DUP2 PUSH1 0x0 MSTORE PUSH1 0x40 PUSH1 0x0 KECCAK256 PUSH1 0x20 MSTORE DUP1 PUSH1 0x0 MSTORE PUSH1 0x40 PUSH1 0x0 KECCAK256 PUSH1 0x0 SWAP2 POP SWAP2 POP POP SLOAD DUP2 JUMP JUMPDEST DUP4 DUP4 CALLER PUSH20 0xFFFFFFFFFFFFFFFFFFFFFFFFFFFFFFFFFFFFFFFF AND PUSH1 0x2 PUSH1 0x0 SWAP1 SLOAD SWAP1 PUSH2 0x100 EXP SWAP1 DIV PUSH20 0xFFFFFFFFFFFFFFFFFFFFFFFFFFFFFFFFFFFFFFFF AND PUSH20 0xFFFFFFFFFFFFFFFFFFFFFFFFFFFFFFFFFFFFFFFF AND PUSH4 0x8A888953 DUP5 DUP5 PUSH1 0x40 MLOAD DUP4 PUSH4 0xFFFFFFFF AND PUSH1 0xE0 SHL DUP2 MSTORE PUSH1 0x4 ADD PUSH2 0x1536 SWAP3 SWAP2 SWAP1 PUSH2 0x323A JUMP JUMPDEST PUSH1 0x20 PUSH1 0x40 MLOAD DUP1 DUP4 SUB DUP2 DUP7 GAS STATICCALL ISZERO DUP1 ISZERO PUSH2 0x1553 JUMPI RETURNDATASIZE PUSH1 0x0 DUP1 RETURNDATACOPY RETURNDATASIZE PUSH1 0x0 REVERT JUMPDEST POP POP POP POP PUSH1 0x40 MLOAD RETURNDATASIZE PUSH1 0x1F NOT PUSH1 0x1F DUP3 ADD AND DUP3 ADD DUP1 PUSH1 0x40 MSTORE POP DUP2 ADD SWAP1 PUSH2 0x1577 SWAP2 SWAP1 PUSH2 0x328F JUMP JUMPDEST PUSH20 0xFFFFFFFFFFFFFFFFFFFFFFFFFFFFFFFFFFFFFFFF AND EQ PUSH2 0x15CD JUMPI PUSH1 0x40 MLOAD PUSH32 0x8C379A000000000000000000000000000000000000000000000000000000000 DUP2 MSTORE PUSH1 0x4 ADD PUSH2 0x15C4 SWAP1 PUSH2 0x3308 JUMP JUMPDEST PUSH1 0x40 MLOAD DUP1 SWAP2 SUB SWAP1 REVERT JUMPDEST PUSH1 0x3 PUSH1 0x0 DUP6 PUSH1 0xFF AND PUSH1 0xFF AND DUP2 MSTORE PUSH1 0x20 ADD SWAP1 DUP2 MSTORE PUSH1 0x20 ADD PUSH1 0x0 KECCAK256 DUP1 SLOAD SWAP1 POP DUP4 LT PUSH2 0x162B JUMPI PUSH1 0x40 MLOAD PUSH32 0x8C379A000000000000000000000000000000000000000000000000000000000 DUP2 MSTORE PUSH1 0x4 ADD PUSH2 0x1622 SWAP1 PUSH2 0x3374 JUMP JUMPDEST PUSH1 0x40 MLOAD DUP1 SWAP2 SUB SWAP1 REVERT JUMPDEST PUSH1 0x1 DUP5 PUSH1 0xFF AND LT ISZERO DUP1 ISZERO PUSH2 0x1643 JUMPI POP PUSH1 0x8 DUP5 PUSH1 0xFF AND GT ISZERO JUMPDEST PUSH2 0x1682 JUMPI PUSH1 0x40 MLOAD PUSH32 0x8C379A000000000000000000000000000000000000000000000000000000000 DUP2 MSTORE PUSH1 0x4 ADD PUSH2 0x1679 SWAP1 PUSH2 0x321A JUMP JUMPDEST PUSH1 0x40 MLOAD DUP1 SWAP2 SUB SWAP1 REVERT JUMPDEST PUSH1 0x0 PUSH1 0x3 PUSH1 0x0 DUP7 PUSH1 0xFF AND PUSH1 0xFF AND DUP2 MSTORE PUSH1 0x20 ADD SWAP1 DUP2 MSTORE PUSH1 0x20 ADD PUSH1 0x0 KECCAK256 DUP5 DUP2 SLOAD DUP2 LT PUSH2 0x16AF JUMPI PUSH2 0x16AE PUSH2 0x3394 JUMP JUMPDEST JUMPDEST SWAP1 PUSH1 0x0 MSTORE PUSH1 0x20 PUSH1 0x0 KECCAK256 SWAP1 PUSH1 0x3 MUL ADD PUSH1 0x40 MLOAD DUP1 PUSH1 0x80 ADD PUSH1 0x40 MSTORE SWAP1 DUP2 PUSH1 0x0 DUP3 ADD PUSH1 0x0 SWAP1 SLOAD SWAP1 PUSH2 0x100 EXP SWAP1 DIV PUSH20 0xFFFFFFFFFFFFFFFFFFFFFFFFFFFFFFFFFFFFFFFF AND PUSH20 0xFFFFFFFFFFFFFFFFFFFFFFFFFFFFFFFFFFFFFFFF AND PUSH20 0xFFFFFFFFFFFFFFFFFFFFFFFFFFFFFFFFFFFFFFFF AND DUP2 MSTORE PUSH1 0x20 ADD PUSH1 0x0 DUP3 ADD PUSH1 0x14 SWAP1 SLOAD SWAP1 PUSH2 0x100 EXP SWAP1 DIV PUSH1 0xFF AND PUSH1 0xFF AND PUSH1 0xFF AND DUP2 MSTORE PUSH1 0x20 ADD PUSH1 0x1 DUP3 ADD SLOAD DUP2 MSTORE PUSH1 0x20 ADD PUSH1 0x2 DUP3 ADD SLOAD DUP2 MSTORE POP POP SWAP1 POP CALLER PUSH20 0xFFFFFFFFFFFFFFFFFFFFFFFFFFFFFFFFFFFFFFFF AND DUP2 PUSH1 0x0 ADD MLOAD PUSH20 0xFFFFFFFFFFFFFFFFFFFFFFFFFFFFFFFFFFFFFFFF AND SUB PUSH2 0x17C3 JUMPI PUSH1 0x40 MLOAD PUSH32 0x8C379A000000000000000000000000000000000000000000000000000000000 DUP2 MSTORE PUSH1 0x4 ADD PUSH2 0x17BA SWAP1 PUSH2 0x3B00 JUMP JUMPDEST PUSH1 0x40 MLOAD DUP1 SWAP2 SUB SWAP1 REVERT JUMPDEST PUSH1 0x0 DUP2 PUSH1 0x60 ADD MLOAD SWAP1 POP PUSH1 0x0 DUP3 PUSH1 0x40 ADD MLOAD SWAP1 POP PUSH1 0x0 DUP4 PUSH1 0x0 ADD MLOAD SWAP1 POP PUSH1 0x1 PUSH1 0x0 SWAP1 SLOAD SWAP1 PUSH2 0x100 EXP SWAP1 DIV PUSH20 0xFFFFFFFFFFFFFFFFFFFFFFFFFFFFFFFFFFFFFFFF AND PUSH20 0xFFFFFFFFFFFFFFFFFFFFFFFFFFFFFFFFFFFFFFFF AND PUSH4 0x23B872DD CALLER DUP4 DUP7 PUSH1 0x40 MLOAD DUP5 PUSH4 0xFFFFFFFF AND PUSH1 0xE0 SHL DUP2 MSTORE PUSH1 0x4 ADD PUSH2 0x183D SWAP4 SWAP3 SWAP2 SWAP1 PUSH2 0x3B20 JUMP JUMPDEST PUSH1 0x20 PUSH1 0x40 MLOAD DUP1 DUP4 SUB DUP2 PUSH1 0x0 DUP8 GAS CALL ISZERO DUP1 ISZERO PUSH2 0x185C JUMPI RETURNDATASIZE PUSH1 0x0 DUP1 RETURNDATACOPY RETURNDATASIZE PUSH1 0x0 REVERT JUMPDEST POP POP POP POP PUSH1 0x40 MLOAD RETURNDATASIZE PUSH1 0x1F NOT PUSH1 0x1F DUP3 ADD AND DUP3 ADD DUP1 PUSH1 0x40 MSTORE POP DUP2 ADD SWAP1 PUSH2 0x1880 SWAP2 SWAP1 PUSH2 0x3B83 JUMP JUMPDEST PUSH2 0x18BF JUMPI PUSH1 0x40 MLOAD PUSH32 0x8C379A000000000000000000000000000000000000000000000000000000000 DUP2 MSTORE PUSH1 0x4 ADD PUSH2 0x18B6 SWAP1 PUSH2 0x3BFC JUMP JUMPDEST PUSH1 0x40 MLOAD DUP1 SWAP2 SUB SWAP1 REVERT JUMPDEST PUSH1 0x0 DUP1 SLOAD SWAP1 PUSH2 0x100 EXP SWAP1 DIV PUSH20 0xFFFFFFFFFFFFFFFFFFFFFFFFFFFFFFFFFFFFFFFF AND PUSH20 0xFFFFFFFFFFFFFFFFFFFFFFFFFFFFFFFFFFFFFFFF AND PUSH4 0x3E5F2857 DUP12 DUP12 DUP12 DUP7 PUSH1 0x1 PUSH1 0x40 MLOAD DUP7 PUSH4 0xFFFFFFFF AND PUSH1 0xE0 SHL DUP2 MSTORE PUSH1 0x4 ADD PUSH2 0x1921 SWAP6 SWAP5 SWAP4 SWAP3 SWAP2 SWAP1 PUSH2 0x344A JUMP JUMPDEST PUSH1 0x0 PUSH1 0x40 MLOAD DUP1 DUP4 SUB DUP2 PUSH1 0x0 DUP8 DUP1 EXTCODESIZE ISZERO DUP1 ISZERO PUSH2 0x193B JUMPI PUSH1 0x0 DUP1 REVERT JUMPDEST POP GAS CALL ISZERO DUP1 ISZERO PUSH2 0x194F JUMPI RETURNDATASIZE PUSH1 0x0 DUP1 RETURNDATACOPY RETURNDATASIZE PUSH1 0x0 REVERT JUMPDEST POP POP POP POP PUSH1 0x3 PUSH1 0x0 DUP10 PUSH1 0xFF AND PUSH1 0xFF AND DUP2 MSTORE PUSH1 0x20 ADD SWAP1 DUP2 MSTORE PUSH1 0x20 ADD PUSH1 0x0 KECCAK256 PUSH1 0x1 PUSH1 0x3 PUSH1 0x0 DUP12 PUSH1 0xFF AND PUSH1 0xFF AND DUP2 MSTORE PUSH1 0x20 ADD SWAP1 DUP2 MSTORE PUSH1 0x20 ADD PUSH1 0x0 KECCAK256 DUP1 SLOAD SWAP1 POP PUSH2 0x1995 SWAP2 SWAP1 PUSH2 0x34CC JUMP JUMPDEST DUP2 SLOAD DUP2 LT PUSH2 0x19A6 JUMPI PUSH2 0x19A5 PUSH2 0x3394 JUMP JUMPDEST JUMPDEST SWAP1 PUSH1 0x0 MSTORE PUSH1 0x20 PUSH1 0x0 KECCAK256 SWAP1 PUSH1 0x3 MUL ADD PUSH1 0x3 PUSH1 0x0 DUP11 PUSH1 0xFF AND PUSH1 0xFF AND DUP2 MSTORE PUSH1 0x20 ADD SWAP1 DUP2 MSTORE PUSH1 0x20 ADD PUSH1 0x0 KECCAK256 DUP9 DUP2 SLOAD DUP2 LT PUSH2 0x19DF JUMPI PUSH2 0x19DE PUSH2 0x3394 JUMP JUMPDEST JUMPDEST SWAP1 PUSH1 0x0 MSTORE PUSH1 0x20 PUSH1 0x0 KECCAK256 SWAP1 PUSH1 0x3 MUL ADD PUSH1 0x0 DUP3 ADD PUSH1 0x0 SWAP1 SLOAD SWAP1 PUSH2 0x100 EXP SWAP1 DIV PUSH20 0xFFFFFFFFFFFFFFFFFFFFFFFFFFFFFFFFFFFFFFFF AND DUP2 PUSH1 0x0 ADD PUSH1 0x0 PUSH2 0x100 EXP DUP2 SLOAD DUP2 PUSH20 0xFFFFFFFFFFFFFFFFFFFFFFFFFFFFFFFFFFFFFFFF MUL NOT AND SWAP1 DUP4 PUSH20 0xFFFFFFFFFFFFFFFFFFFFFFFFFFFFFFFFFFFFFFFF AND MUL OR SWAP1 SSTORE POP PUSH1 0x0 DUP3 ADD PUSH1 0x14 SWAP1 SLOAD SWAP1 PUSH2 0x100 EXP SWAP1 DIV PUSH1 0xFF AND DUP2 PUSH1 0x0 ADD PUSH1 0x14 PUSH2 0x100 EXP DUP2 SLOAD DUP2 PUSH1 0xFF MUL NOT AND SWAP1 DUP4 PUSH1 0xFF AND MUL OR SWAP1 SSTORE POP PUSH1 0x1 DUP3 ADD SLOAD DUP2 PUSH1 0x1 ADD SSTORE PUSH1 0x2 DUP3 ADD SLOAD DUP2 PUSH1 0x2 ADD SSTORE SWAP1 POP POP PUSH1 0x3 PUSH1 0x0 DUP10 PUSH1 0xFF AND PUSH1 0xFF AND DUP2 MSTORE PUSH1 0x20 ADD SWAP1 DUP2 MSTORE PUSH1 0x20 ADD PUSH1 0x0 KECCAK256 DUP1 SLOAD DUP1 PUSH2 0x1AC2 JUMPI PUSH2 0x1AC1 PUSH2 0x3500 JUMP JUMPDEST JUMPDEST PUSH1 0x1 SWAP1 SUB DUP2 DUP2 SWAP1 PUSH1 0x0 MSTORE PUSH1 0x20 PUSH1 0x0 KECCAK256 SWAP1 PUSH1 0x3 MUL ADD PUSH1 0x0 DUP1 DUP3 ADD PUSH1 0x0 PUSH2 0x100 EXP DUP2 SLOAD SWAP1 PUSH20 0xFFFFFFFFFFFFFFFFFFFFFFFFFFFFFFFFFFFFFFFF MUL NOT AND SWAP1 SSTORE PUSH1 0x0 DUP3 ADD PUSH1 0x14 PUSH2 0x100 EXP DUP2 SLOAD SWAP1 PUSH1 0xFF MUL NOT AND SWAP1 SSTORE PUSH1 0x1 DUP3 ADD PUSH1 0x0 SWAP1 SSTORE PUSH1 0x2 DUP3 ADD PUSH1 0x0 SWAP1 SSTORE POP POP SWAP1 SSTORE DUP8 PUSH1 0xFF AND DUP2 PUSH20 0xFFFFFFFFFFFFFFFFFFFFFFFFFFFFFFFFFFFFFFFF AND CALLER PUSH20 0xFFFFFFFFFFFFFFFFFFFFFFFFFFFFFFFFFFFFFFFF AND PUSH32 0xCB8E9DCE1A8C67703D11D2B78043345960BAB3C035AA061005630270B28C89EC DUP6 DUP8 PUSH1 0x40 MLOAD PUSH2 0x1B89 SWAP3 SWAP2 SWAP1 PUSH2 0x3C1C JUMP JUMPDEST PUSH1 0x40 MLOAD DUP1 SWAP2 SUB SWAP1 LOG4 POP POP POP POP POP POP POP POP POP POP JUMP JUMPDEST PUSH1 0x0 DUP1 SLOAD SWAP1 PUSH2 0x100 EXP SWAP1 DIV PUSH20 0xFFFFFFFFFFFFFFFFFFFFFFFFFFFFFFFFFFFFFFFF AND DUP2 JUMP JUMPDEST DUP5 DUP5 CALLER PUSH20 0xFFFFFFFFFFFFFFFFFFFFFFFFFFFFFFFFFFFFFFFF AND PUSH1 0x2 PUSH1 0x0 SWAP1 SLOAD SWAP1 PUSH2 0x100 EXP SWAP1 DIV PUSH20 0xFFFFFFFFFFFFFFFFFFFFFFFFFFFFFFFFFFFFFFFF AND PUSH20 0xFFFFFFFFFFFFFFFFFFFFFFFFFFFFFFFFFFFFFFFF AND PUSH4 0x8A888953 DUP5 DUP5 PUSH1 0x40 MLOAD DUP4 PUSH4 0xFFFFFFFF AND PUSH1 0xE0 SHL DUP2 MSTORE PUSH1 0x4 ADD PUSH2 0x1C37 SWAP3 SWAP2 SWAP1 PUSH2 0x323A JUMP JUMPDEST PUSH1 0x20 PUSH1 0x40 MLOAD DUP1 DUP4 SUB DUP2 DUP7 GAS STATICCALL ISZERO DUP1 ISZERO PUSH2 0x1C54 JUMPI RETURNDATASIZE PUSH1 0x0 DUP1 RETURNDATACOPY RETURNDATASIZE PUSH1 0x0 REVERT JUMPDEST POP POP POP POP PUSH1 0x40 MLOAD RETURNDATASIZE PUSH1 0x1F NOT PUSH1 0x1F DUP3 ADD AND DUP3 ADD DUP1 PUSH1 0x40 MSTORE POP DUP2 ADD SWAP1 PUSH2 0x1C78 SWAP2 SWAP1 PUSH2 0x328F JUMP JUMPDEST PUSH20 0xFFFFFFFFFFFFFFFFFFFFFFFFFFFFFFFFFFFFFFFF AND EQ PUSH2 0x1CCE JUMPI PUSH1 0x40 MLOAD PUSH32 0x8C379A000000000000000000000000000000000000000000000000000000000 DUP2 MSTORE PUSH1 0x4 ADD PUSH2 0x1CC5 SWAP1 PUSH2 0x3308 JUMP JUMPDEST PUSH1 0x40 MLOAD DUP1 SWAP2 SUB SWAP1 REVERT JUMPDEST PUSH1 0x0 DUP4 GT PUSH2 0x1D11 JUMPI PUSH1 0x40 MLOAD PUSH32 0x8C379A000000000000000000000000000000000000000000000000000000000 DUP2 MSTORE PUSH1 0x4 ADD PUSH2 0x1D08 SWAP1 PUSH2 0x3C91 JUMP JUMPDEST PUSH1 0x40 MLOAD DUP1 SWAP2 SUB SWAP1 REVERT JUMPDEST PUSH1 0x0 DUP5 GT PUSH2 0x1D54 JUMPI PUSH1 0x40 MLOAD PUSH32 0x8C379A000000000000000000000000000000000000000000000000000000000 DUP2 MSTORE PUSH1 0x4 ADD PUSH2 0x1D4B SWAP1 PUSH2 0x3CFD JUMP JUMPDEST PUSH1 0x40 MLOAD DUP1 SWAP2 SUB SWAP1 REVERT JUMPDEST PUSH1 0x1 DUP6 PUSH1 0xFF AND LT ISZERO DUP1 ISZERO PUSH2 0x1D6C JUMPI POP PUSH1 0x8 DUP6 PUSH1 0xFF AND GT ISZERO JUMPDEST PUSH2 0x1DAB JUMPI PUSH1 0x40 MLOAD PUSH32 0x8C379A000000000000000000000000000000000000000000000000000000000 DUP2 MSTORE PUSH1 0x4 ADD PUSH2 0x1DA2 SWAP1 PUSH2 0x321A JUMP JUMPDEST PUSH1 0x40 MLOAD DUP1 SWAP2 SUB SWAP1 REVERT JUMPDEST PUSH1 0x4 DUP6 PUSH1 0xFF AND GT PUSH2 0x1E10 JUMPI PUSH2 0x2710 DUP5 LT ISZERO DUP1 ISZERO PUSH2 0x1DCC JUMPI POP PUSH4 0x5F5E100 DUP5 GT ISZERO JUMPDEST PUSH2 0x1E0B JUMPI PUSH1 0x40 MLOAD PUSH32 0x8C379A000000000000000000000000000000000000000000000000000000000 DUP2 MSTORE PUSH1 0x4 ADD PUSH2 0x1E02 SWAP1 PUSH2 0x3D69 JUMP JUMPDEST PUSH1 0x40 MLOAD DUP1 SWAP2 SUB SWAP1 REVERT JUMPDEST PUSH2 0x1E63 JUMP JUMPDEST PUSH1 0x64 DUP5 LT ISZERO DUP1 ISZERO PUSH2 0x1E23 JUMPI POP PUSH2 0x2710 DUP5 GT ISZERO JUMPDEST PUSH2 0x1E62 JUMPI PUSH1 0x40 MLOAD PUSH32 0x8C379A000000000000000000000000000000000000000000000000000000000 DUP2 MSTORE PUSH1 0x4 ADD PUSH2 0x1E59 SWAP1 PUSH2 0x3DFB JUMP JUMPDEST PUSH1 0x40 MLOAD DUP1 SWAP2 SUB SWAP1 REVERT JUMPDEST JUMPDEST PUSH1 0x0 DUP1 SLOAD SWAP1 PUSH2 0x100 EXP SWAP1 DIV PUSH20 0xFFFFFFFFFFFFFFFFFFFFFFFFFFFFFFFFFFFFFFFF AND PUSH20 0xFFFFFFFFFFFFFFFFFFFFFFFFFFFFFFFFFFFFFFFF AND PUSH4 0x3E5F2857 DUP9 DUP9 DUP9 DUP9 PUSH1 0x0 PUSH1 0x40 MLOAD DUP7 PUSH4 0xFFFFFFFF AND PUSH1 0xE0 SHL DUP2 MSTORE PUSH1 0x4 ADD PUSH2 0x1EC5 SWAP6 SWAP5 SWAP4 SWAP3 SWAP2 SWAP1 PUSH2 0x344A JUMP JUMPDEST PUSH1 0x0 PUSH1 0x40 MLOAD DUP1 DUP4 SUB DUP2 PUSH1 0x0 DUP8 DUP1 EXTCODESIZE ISZERO DUP1 ISZERO PUSH2 0x1EDF JUMPI PUSH1 0x0 DUP1 REVERT JUMPDEST POP GAS CALL ISZERO DUP1 ISZERO PUSH2 0x1EF3 JUMPI RETURNDATASIZE PUSH1 0x0 DUP1 RETURNDATACOPY RETURNDATASIZE PUSH1 0x0 REVERT JUMPDEST POP POP POP POP PUSH1 0x3 PUSH1 0x0 DUP7 PUSH1 0xFF AND PUSH1 0xFF AND DUP2 MSTORE PUSH1 0x20 ADD SWAP1 DUP2 MSTORE PUSH1 0x20 ADD PUSH1 0x0 KECCAK256 PUSH1 0x40 MLOAD DUP1 PUSH1 0x80 ADD PUSH1 0x40 MSTORE DUP1 CALLER PUSH20 0xFFFFFFFFFFFFFFFFFFFFFFFFFFFFFFFFFFFFFFFF AND DUP2 MSTORE PUSH1 0x20 ADD DUP8 PUSH1 0xFF AND DUP2 MSTORE PUSH1 0x20 ADD DUP7 DUP2 MSTORE PUSH1 0x20 ADD DUP6 DUP2 MSTORE POP SWAP1 DUP1 PUSH1 0x1 DUP2 SLOAD ADD DUP1 DUP3 SSTORE DUP1 SWAP2 POP POP PUSH1 0x1 SWAP1 SUB SWAP1 PUSH1 0x0 MSTORE PUSH1 0x20 PUSH1 0x0 KECCAK256 SWAP1 PUSH1 0x3 MUL ADD PUSH1 0x0 SWAP1 SWAP2 SWAP1 SWAP2 SWAP1 SWAP2 POP PUSH1 0x0 DUP3 ADD MLOAD DUP2 PUSH1 0x0 ADD PUSH1 0x0 PUSH2 0x100 EXP DUP2 SLOAD DUP2 PUSH20 0xFFFFFFFFFFFFFFFFFFFFFFFFFFFFFFFFFFFFFFFF MUL NOT AND SWAP1 DUP4 PUSH20 0xFFFFFFFFFFFFFFFFFFFFFFFFFFFFFFFFFFFFFFFF AND MUL OR SWAP1 SSTORE POP PUSH1 0x20 DUP3 ADD MLOAD DUP2 PUSH1 0x0 ADD PUSH1 0x14 PUSH2 0x100 EXP DUP2 SLOAD DUP2 PUSH1 0xFF MUL NOT AND SWAP1 DUP4 PUSH1 0xFF AND MUL OR SWAP1 SSTORE POP PUSH1 0x40 DUP3 ADD MLOAD DUP2 PUSH1 0x1 ADD SSTORE PUSH1 0x60 DUP3 ADD MLOAD DUP2 PUSH1 0x2 ADD SSTORE POP POP DUP5 PUSH1 0xFF AND CALLER PUSH20 0xFFFFFFFFFFFFFFFFFFFFFFFFFFFFFFFFFFFFFFFF AND PUSH32 0x9D2FA11E70F4C72F4275D772A6E09BBD83B3800A6B4F2351A7AC06DF8DB5169E DUP7 DUP7 PUSH1 0x40 MLOAD PUSH2 0x203D SWAP3 SWAP2 SWAP1 PUSH2 0x3C1C JUMP JUMPDEST PUSH1 0x40 MLOAD DUP1 SWAP2 SUB SWAP1 LOG3 POP POP POP POP POP POP POP JUMP JUMPDEST PUSH1 0x0 DUP2 PUSH1 0xFF AND DUP4 PUSH1 0xFF AND GT PUSH2 0x206E JUMPI DUP3 DUP3 PUSH2 0x2069 SWAP2 SWAP1 PUSH2 0x3E1B JUMP JUMPDEST PUSH2 0x207B JUMP JUMPDEST DUP2 DUP4 PUSH2 0x207A SWAP2 SWAP1 PUSH2 0x3E1B JUMP JUMPDEST JUMPDEST SWAP1 POP SWAP3 SWAP2 POP POP JUMP JUMPDEST PUSH1 0x0 DUP2 PUSH2 0x160 ADD MLOAD DUP3 PUSH2 0x140 ADD MLOAD PUSH2 0x209B SWAP2 SWAP1 PUSH2 0x36A8 JUMP JUMPDEST DUP4 PUSH1 0xFF AND PUSH1 0xA PUSH2 0x20AB SWAP2 SWAP1 PUSH2 0x3E50 JUMP JUMPDEST PUSH2 0x20B5 SWAP2 SWAP1 PUSH2 0x3E50 JUMP JUMPDEST SWAP1 POP PUSH1 0x0 DUP1 SLOAD SWAP1 PUSH2 0x100 EXP SWAP1 DIV PUSH20 0xFFFFFFFFFFFFFFFFFFFFFFFFFFFFFFFFFFFFFFFF AND PUSH20 0xFFFFFFFFFFFFFFFFFFFFFFFFFFFFFFFFFFFFFFFF AND PUSH4 0x3E5F2857 DUP7 DUP7 PUSH1 0x1 PUSH1 0x64 PUSH1 0x28 DUP8 PUSH2 0x2106 SWAP2 SWAP1 PUSH2 0x3E50 JUMP JUMPDEST PUSH2 0x2110 SWAP2 SWAP1 PUSH2 0x3EC1 JUMP JUMPDEST PUSH1 0x0 PUSH1 0x40 MLOAD DUP7 PUSH4 0xFFFFFFFF AND PUSH1 0xE0 SHL DUP2 MSTORE PUSH1 0x4 ADD PUSH2 0x2132 SWAP6 SWAP5 SWAP4 SWAP3 SWAP2 SWAP1 PUSH2 0x3F2D JUMP JUMPDEST PUSH1 0x0 PUSH1 0x40 MLOAD DUP1 DUP4 SUB DUP2 PUSH1 0x0 DUP8 DUP1 EXTCODESIZE ISZERO DUP1 ISZERO PUSH2 0x214C JUMPI PUSH1 0x0 DUP1 REVERT JUMPDEST POP GAS CALL ISZERO DUP1 ISZERO PUSH2 0x2160 JUMPI RETURNDATASIZE PUSH1 0x0 DUP1 RETURNDATACOPY RETURNDATASIZE PUSH1 0x0 REVERT JUMPDEST POP POP POP POP PUSH1 0x0 DUP1 SLOAD SWAP1 PUSH2 0x100 EXP SWAP1 DIV PUSH20 0xFFFFFFFFFFFFFFFFFFFFFFFFFFFFFFFFFFFFFFFF AND PUSH20 0xFFFFFFFFFFFFFFFFFFFFFFFFFFFFFFFFFFFFFFFF AND PUSH4 0x3E5F2857 DUP7 DUP7 PUSH1 0x2 PUSH1 0x64 PUSH1 0x1E DUP8 PUSH2 0x21B3 SWAP2 SWAP1 PUSH2 0x3E50 JUMP JUMPDEST PUSH2 0x21BD SWAP2 SWAP1 PUSH2 0x3EC1 JUMP JUMPDEST PUSH1 0x0 PUSH1 0x40 MLOAD DUP7 PUSH4 0xFFFFFFFF AND PUSH1 0xE0 SHL DUP2 MSTORE PUSH1 0x4 ADD PUSH2 0x21DF SWAP6 SWAP5 SWAP4 SWAP3 SWAP2 SWAP1 PUSH2 0x3FBB JUMP JUMPDEST PUSH1 0x0 PUSH1 0x40 MLOAD DUP1 DUP4 SUB DUP2 PUSH1 0x0 DUP8 DUP1 EXTCODESIZE ISZERO DUP1 ISZERO PUSH2 0x21F9 JUMPI PUSH1 0x0 DUP1 REVERT JUMPDEST POP GAS CALL ISZERO DUP1 ISZERO PUSH2 0x220D JUMPI RETURNDATASIZE PUSH1 0x0 DUP1 RETURNDATACOPY RETURNDATASIZE PUSH1 0x0 REVERT JUMPDEST POP POP POP POP PUSH1 0x0 DUP1 SLOAD SWAP1 PUSH2 0x100 EXP SWAP1 DIV PUSH20 0xFFFFFFFFFFFFFFFFFFFFFFFFFFFFFFFFFFFFFFFF AND PUSH20 0xFFFFFFFFFFFFFFFFFFFFFFFFFFFFFFFFFFFFFFFF AND PUSH4 0x3E5F2857 DUP7 DUP7 PUSH1 0x3 PUSH1 0x64 PUSH1 0x14 DUP8 PUSH2 0x2260 SWAP2 SWAP1 PUSH2 0x3E50 JUMP JUMPDEST PUSH2 0x226A SWAP2 SWAP1 PUSH2 0x3EC1 JUMP JUMPDEST PUSH1 0x0 PUSH1 0x40 MLOAD DUP7 PUSH4 0xFFFFFFFF AND PUSH1 0xE0 SHL DUP2 MSTORE PUSH1 0x4 ADD PUSH2 0x228C SWAP6 SWAP5 SWAP4 SWAP3 SWAP2 SWAP1 PUSH2 0x4049 JUMP JUMPDEST PUSH1 0x0 PUSH1 0x40 MLOAD DUP1 DUP4 SUB DUP2 PUSH1 0x0 DUP8 DUP1 EXTCODESIZE ISZERO DUP1 ISZERO PUSH2 0x22A6 JUMPI PUSH1 0x0 DUP1 REVERT JUMPDEST POP GAS CALL ISZERO DUP1 ISZERO PUSH2 0x22BA JUMPI RETURNDATASIZE PUSH1 0x0 DUP1 RETURNDATACOPY RETURNDATASIZE PUSH1 0x0 REVERT JUMPDEST POP POP POP POP PUSH1 0x0 DUP1 SLOAD SWAP1 PUSH2 0x100 EXP SWAP1 DIV PUSH20 0xFFFFFFFFFFFFFFFFFFFFFFFFFFFFFFFFFFFFFFFF AND PUSH20 0xFFFFFFFFFFFFFFFFFFFFFFFFFFFFFFFFFFFFFFFF AND PUSH4 0x3E5F2857 DUP7 DUP7 PUSH1 0x4 PUSH1 0x64 PUSH1 0xA DUP8 PUSH2 0x230D SWAP2 SWAP1 PUSH2 0x3E50 JUMP JUMPDEST PUSH2 0x2317 SWAP2 SWAP1 PUSH2 0x3EC1 JUMP JUMPDEST PUSH1 0x0 PUSH1 0x40 MLOAD DUP7 PUSH4 0xFFFFFFFF AND PUSH1 0xE0 SHL DUP2 MSTORE PUSH1 0x4 ADD PUSH2 0x2339 SWAP6 SWAP5 SWAP4 SWAP3 SWAP2 SWAP1 PUSH2 0x40D7 JUMP JUMPDEST PUSH1 0x0 PUSH1 0x40 MLOAD DUP1 DUP4 SUB DUP2 PUSH1 0x0 DUP8 DUP1 EXTCODESIZE ISZERO DUP1 ISZERO PUSH2 0x2353 JUMPI PUSH1 0x0 DUP1 REVERT JUMPDEST POP GAS CALL ISZERO DUP1 ISZERO PUSH2 0x2367 JUMPI RETURNDATASIZE PUSH1 0x0 DUP1 RETURNDATACOPY RETURNDATASIZE PUSH1 0x0 REVERT JUMPDEST POP POP POP POP POP POP POP POP POP JUMP JUMPDEST PUSH1 0x0 DUP1 PUSH1 0x0 PUSH1 0x1 DUP6 PUSH2 0x180 ADD MLOAD PUSH2 0x2389 SWAP2 SWAP1 PUSH2 0x3607 JUMP JUMPDEST PUSH1 0xFF AND PUSH1 0x1 DUP7 PUSH2 0x160 ADD MLOAD PUSH2 0x239E SWAP2 SWAP1 PUSH2 0x3E50 JUMP JUMPDEST PUSH1 0x2 DUP8 PUSH2 0x140 ADD MLOAD PUSH2 0x23B0 SWAP2 SWAP1 PUSH2 0x3E50 JUMP JUMPDEST PUSH2 0x23BA SWAP2 SWAP1 PUSH2 0x36A8 JUMP JUMPDEST PUSH2 0x23C4 SWAP2 SWAP1 PUSH2 0x36A8 JUMP JUMPDEST SWAP1 POP PUSH1 0x0 PUSH1 0x1 DUP6 PUSH2 0x1A0 ADD MLOAD PUSH2 0x23DA SWAP2 SWAP1 PUSH2 0x3607 JUMP JUMPDEST PUSH1 0xFF AND PUSH1 0x2 DUP7 PUSH2 0x160 ADD MLOAD PUSH2 0x23EF SWAP2 SWAP1 PUSH2 0x3E50 JUMP JUMPDEST PUSH1 0x1 DUP8 PUSH2 0x140 ADD MLOAD PUSH2 0x2401 SWAP2 SWAP1 PUSH2 0x3E50 JUMP JUMPDEST PUSH2 0x240B SWAP2 SWAP1 PUSH2 0x36A8 JUMP JUMPDEST PUSH2 0x2415 SWAP2 SWAP1 PUSH2 0x36A8 JUMP JUMPDEST SWAP1 POP DUP2 DUP2 SWAP4 POP SWAP4 POP POP POP SWAP3 POP SWAP3 SWAP1 POP JUMP JUMPDEST PUSH1 0x0 PUSH1 0x2 DUP4 PUSH2 0x140 ADD MLOAD PUSH2 0x243A SWAP2 SWAP1 PUSH2 0x3EC1 JUMP JUMPDEST SWAP1 POP PUSH1 0x0 PUSH1 0x2 DUP5 PUSH2 0x160 ADD MLOAD PUSH2 0x2450 SWAP2 SWAP1 PUSH2 0x3EC1 JUMP JUMPDEST SWAP1 POP PUSH1 0x0 PUSH1 0x2 DUP5 PUSH2 0x140 ADD MLOAD PUSH2 0x2466 SWAP2 SWAP1 PUSH2 0x3EC1 JUMP JUMPDEST SWAP1 POP PUSH1 0x0 PUSH1 0x2 DUP6 PUSH2 0x160 ADD MLOAD PUSH2 0x247C SWAP2 SWAP1 PUSH2 0x3EC1 JUMP JUMPDEST SWAP1 POP PUSH1 0x0 DUP5 GT ISZERO PUSH2 0x251D JUMPI PUSH1 0x0 DUP1 SLOAD SWAP1 PUSH2 0x100 EXP SWAP1 DIV PUSH20 0xFFFFFFFFFFFFFFFFFFFFFFFFFFFFFFFFFFFFFFFF AND PUSH20 0xFFFFFFFFFFFFFFFFFFFFFFFFFFFFFFFFFFFFFFFF AND PUSH4 0x3E5F2857 DUP12 DUP12 PUSH1 0x9 DUP9 PUSH1 0x0 PUSH1 0x40 MLOAD DUP7 PUSH4 0xFFFFFFFF AND PUSH1 0xE0 SHL DUP2 MSTORE PUSH1 0x4 ADD PUSH2 0x24EA SWAP6 SWAP5 SWAP4 SWAP3 SWAP2 SWAP1 PUSH2 0x4165 JUMP JUMPDEST PUSH1 0x0 PUSH1 0x40 MLOAD DUP1 DUP4 SUB DUP2 PUSH1 0x0 DUP8 DUP1 EXTCODESIZE ISZERO DUP1 ISZERO PUSH2 0x2504 JUMPI PUSH1 0x0 DUP1 REVERT JUMPDEST POP GAS CALL ISZERO DUP1 ISZERO PUSH2 0x2518 JUMPI RETURNDATASIZE PUSH1 0x0 DUP1 RETURNDATACOPY RETURNDATASIZE PUSH1 0x0 REVERT JUMPDEST POP POP POP POP JUMPDEST PUSH1 0x0 DUP4 GT ISZERO PUSH2 0x25BC JUMPI PUSH1 0x0 DUP1 SLOAD SWAP1 PUSH2 0x100 EXP SWAP1 DIV PUSH20 0xFFFFFFFFFFFFFFFFFFFFFFFFFFFFFFFFFFFFFFFF AND PUSH20 0xFFFFFFFFFFFFFFFFFFFFFFFFFFFFFFFFFFFFFFFF AND PUSH4 0x3E5F2857 DUP12 DUP12 PUSH1 0xA DUP8 PUSH1 0x0 PUSH1 0x40 MLOAD DUP7 PUSH4 0xFFFFFFFF AND PUSH1 0xE0 SHL DUP2 MSTORE PUSH1 0x4 ADD PUSH2 0x2589 SWAP6 SWAP5 SWAP4 SWAP3 SWAP2 SWAP1 PUSH2 0x41F3 JUMP JUMPDEST PUSH1 0x0 PUSH1 0x40 MLOAD DUP1 DUP4 SUB DUP2 PUSH1 0x0 DUP8 DUP1 EXTCODESIZE ISZERO DUP1 ISZERO PUSH2 0x25A3 JUMPI PUSH1 0x0 DUP1 REVERT JUMPDEST POP GAS CALL ISZERO DUP1 ISZERO PUSH2 0x25B7 JUMPI RETURNDATASIZE PUSH1 0x0 DUP1 RETURNDATACOPY RETURNDATASIZE PUSH1 0x0 REVERT JUMPDEST POP POP POP POP JUMPDEST PUSH1 0x0 DUP3 GT ISZERO PUSH2 0x265B JUMPI PUSH1 0x0 DUP1 SLOAD SWAP1 PUSH2 0x100 EXP SWAP1 DIV PUSH20 0xFFFFFFFFFFFFFFFFFFFFFFFFFFFFFFFFFFFFFFFF AND PUSH20 0xFFFFFFFFFFFFFFFFFFFFFFFFFFFFFFFFFFFFFFFF AND PUSH4 0x3E5F2857 DUP10 DUP10 PUSH1 0x9 DUP7 PUSH1 0x0 PUSH1 0x40 MLOAD DUP7 PUSH4 0xFFFFFFFF AND PUSH1 0xE0 SHL DUP2 MSTORE PUSH1 0x4 ADD PUSH2 0x2628 SWAP6 SWAP5 SWAP4 SWAP3 SWAP2 SWAP1 PUSH2 0x4165 JUMP JUMPDEST PUSH1 0x0 PUSH1 0x40 MLOAD DUP1 DUP4 SUB DUP2 PUSH1 0x0 DUP8 DUP1 EXTCODESIZE ISZERO DUP1 ISZERO PUSH2 0x2642 JUMPI PUSH1 0x0 DUP1 REVERT JUMPDEST POP GAS CALL ISZERO DUP1 ISZERO PUSH2 0x2656 JUMPI RETURNDATASIZE PUSH1 0x0 DUP1 RETURNDATACOPY RETURNDATASIZE PUSH1 0x0 REVERT JUMPDEST POP POP POP POP JUMPDEST PUSH1 0x0 DUP2 GT ISZERO PUSH2 0x26FA JUMPI PUSH1 0x0 DUP1 SLOAD SWAP1 PUSH2 0x100 EXP SWAP1 DIV PUSH20 0xFFFFFFFFFFFFFFFFFFFFFFFFFFFFFFFFFFFFFFFF AND PUSH20 0xFFFFFFFFFFFFFFFFFFFFFFFFFFFFFFFFFFFFFFFF AND PUSH4 0x3E5F2857 DUP10 DUP10 PUSH1 0xA DUP6 PUSH1 0x0 PUSH1 0x40 MLOAD DUP7 PUSH4 0xFFFFFFFF AND PUSH1 0xE0 SHL DUP2 MSTORE PUSH1 0x4 ADD PUSH2 0x26C7 SWAP6 SWAP5 SWAP4 SWAP3 SWAP2 SWAP1 PUSH2 0x41F3 JUMP JUMPDEST PUSH1 0x0 PUSH1 0x40 MLOAD DUP1 DUP4 SUB DUP2 PUSH1 0x0 DUP8 DUP1 EXTCODESIZE ISZERO DUP1 ISZERO PUSH2 0x26E1 JUMPI PUSH1 0x0 DUP1 REVERT JUMPDEST POP GAS CALL ISZERO DUP1 ISZERO PUSH2 0x26F5 JUMPI RETURNDATASIZE PUSH1 0x0 DUP1 RETURNDATACOPY RETURNDATASIZE PUSH1 0x0 REVERT JUMPDEST POP POP POP POP JUMPDEST POP POP POP POP POP POP POP POP POP POP JUMP JUMPDEST PUSH1 0x1 DUP2 PUSH1 0x0 ADD MLOAD GT ISZERO PUSH2 0x2854 JUMPI PUSH1 0x0 PUSH1 0x2 DUP3 PUSH1 0x0 ADD MLOAD PUSH2 0x2726 SWAP2 SWAP1 PUSH2 0x3EC1 JUMP JUMPDEST SWAP1 POP PUSH1 0x0 DUP1 SLOAD SWAP1 PUSH2 0x100 EXP SWAP1 DIV PUSH20 0xFFFFFFFFFFFFFFFFFFFFFFFFFFFFFFFFFFFFFFFF AND PUSH20 0xFFFFFFFFFFFFFFFFFFFFFFFFFFFFFFFFFFFFFFFF AND PUSH4 0x3E5F2857 DUP6 DUP6 PUSH1 0x1 DUP6 PUSH1 0x0 PUSH1 0x40 MLOAD DUP7 PUSH4 0xFFFFFFFF AND PUSH1 0xE0 SHL DUP2 MSTORE PUSH1 0x4 ADD PUSH2 0x278B SWAP6 SWAP5 SWAP4 SWAP3 SWAP2 SWAP1 PUSH2 0x3F2D JUMP JUMPDEST PUSH1 0x0 PUSH1 0x40 MLOAD DUP1 DUP4 SUB DUP2 PUSH1 0x0 DUP8 DUP1 EXTCODESIZE ISZERO DUP1 ISZERO PUSH2 0x27A5 JUMPI PUSH1 0x0 DUP1 REVERT JUMPDEST POP GAS CALL ISZERO DUP1 ISZERO PUSH2 0x27B9 JUMPI RETURNDATASIZE PUSH1 0x0 DUP1 RETURNDATACOPY RETURNDATASIZE PUSH1 0x0 REVERT JUMPDEST POP POP POP POP PUSH1 0x0 DUP1 SLOAD SWAP1 PUSH2 0x100 EXP SWAP1 DIV PUSH20 0xFFFFFFFFFFFFFFFFFFFFFFFFFFFFFFFFFFFFFFFF AND PUSH20 0xFFFFFFFFFFFFFFFFFFFFFFFFFFFFFFFFFFFFFFFF AND PUSH4 0x3E5F2857 DUP8 DUP8 PUSH1 0x1 DUP6 PUSH1 0x1 PUSH1 0x40 MLOAD DUP7 PUSH4 0xFFFFFFFF AND PUSH1 0xE0 SHL DUP2 MSTORE PUSH1 0x4 ADD PUSH2 0x2820 SWAP6 SWAP5 SWAP4 SWAP3 SWAP2 SWAP1 PUSH2 0x3F2D JUMP JUMPDEST PUSH1 0x0 PUSH1 0x40 MLOAD DUP1 DUP4 SUB DUP2 PUSH1 0x0 DUP8 DUP1 EXTCODESIZE ISZERO DUP1 ISZERO PUSH2 0x283A JUMPI PUSH1 0x0 DUP1 REVERT JUMPDEST POP GAS CALL ISZERO DUP1 ISZERO PUSH2 0x284E JUMPI RETURNDATASIZE PUSH1 0x0 DUP1 RETURNDATACOPY RETURNDATASIZE PUSH1 0x0 REVERT JUMPDEST POP POP POP POP POP JUMPDEST PUSH1 0x1 DUP2 PUSH1 0x20 ADD MLOAD GT ISZERO PUSH2 0x29A2 JUMPI PUSH1 0x0 PUSH1 0x2 DUP3 PUSH1 0x20 ADD MLOAD PUSH2 0x2874 SWAP2 SWAP1 PUSH2 0x3EC1 JUMP JUMPDEST SWAP1 POP PUSH1 0x0 DUP1 SLOAD SWAP1 PUSH2 0x100 EXP SWAP1 DIV PUSH20 0xFFFFFFFFFFFFFFFFFFFFFFFFFFFFFFFFFFFFFFFF AND PUSH20 0xFFFFFFFFFFFFFFFFFFFFFFFFFFFFFFFFFFFFFFFF AND PUSH4 0x3E5F2857 DUP6 DUP6 PUSH1 0x2 DUP6 PUSH1 0x0 PUSH1 0x40 MLOAD DUP7 PUSH4 0xFFFFFFFF AND PUSH1 0xE0 SHL DUP2 MSTORE PUSH1 0x4 ADD PUSH2 0x28D9 SWAP6 SWAP5 SWAP4 SWAP3 SWAP2 SWAP1 PUSH2 0x3FBB JUMP JUMPDEST PUSH1 0x0 PUSH1 0x40 MLOAD DUP1 DUP4 SUB DUP2 PUSH1 0x0 DUP8 DUP1 EXTCODESIZE ISZERO DUP1 ISZERO PUSH2 0x28F3 JUMPI PUSH1 0x0 DUP1 REVERT JUMPDEST POP GAS CALL ISZERO DUP1 ISZERO PUSH2 0x2907 JUMPI RETURNDATASIZE PUSH1 0x0 DUP1 RETURNDATACOPY RETURNDATASIZE PUSH1 0x0 REVERT JUMPDEST POP POP POP POP PUSH1 0x0 DUP1 SLOAD SWAP1 PUSH2 0x100 EXP SWAP1 DIV PUSH20 0xFFFFFFFFFFFFFFFFFFFFFFFFFFFFFFFFFFFFFFFF AND PUSH20 0xFFFFFFFFFFFFFFFFFFFFFFFFFFFFFFFFFFFFFFFF AND PUSH4 0x3E5F2857 DUP8 DUP8 PUSH1 0x2 DUP6 PUSH1 0x1 PUSH1 0x40 MLOAD DUP7 PUSH4 0xFFFFFFFF AND PUSH1 0xE0 SHL DUP2 MSTORE PUSH1 0x4 ADD PUSH2 0x296E SWAP6 SWAP5 SWAP4 SWAP3 SWAP2 SWAP1 PUSH2 0x3FBB JUMP JUMPDEST PUSH1 0x0 PUSH1 0x40 MLOAD DUP1 DUP4 SUB DUP2 PUSH1 0x0 DUP8 DUP1 EXTCODESIZE ISZERO DUP1 ISZERO PUSH2 0x2988 JUMPI PUSH1 0x0 DUP1 REVERT JUMPDEST POP GAS CALL ISZERO DUP1 ISZERO PUSH2 0x299C JUMPI RETURNDATASIZE PUSH1 0x0 DUP1 RETURNDATACOPY RETURNDATASIZE PUSH1 0x0 REVERT JUMPDEST POP POP POP POP POP JUMPDEST PUSH1 0x1 DUP2 PUSH1 0x40 ADD MLOAD GT ISZERO PUSH2 0x2AF0 JUMPI PUSH1 0x0 PUSH1 0x2 DUP3 PUSH1 0x40 ADD MLOAD PUSH2 0x29C2 SWAP2 SWAP1 PUSH2 0x3EC1 JUMP JUMPDEST SWAP1 POP PUSH1 0x0 DUP1 SLOAD SWAP1 PUSH2 0x100 EXP SWAP1 DIV PUSH20 0xFFFFFFFFFFFFFFFFFFFFFFFFFFFFFFFFFFFFFFFF AND PUSH20 0xFFFFFFFFFFFFFFFFFFFFFFFFFFFFFFFFFFFFFFFF AND PUSH4 0x3E5F2857 DUP6 DUP6 PUSH1 0x3 DUP6 PUSH1 0x0 PUSH1 0x40 MLOAD DUP7 PUSH4 0xFFFFFFFF AND PUSH1 0xE0 SHL DUP2 MSTORE PUSH1 0x4 ADD PUSH2 0x2A27 SWAP6 SWAP5 SWAP4 SWAP3 SWAP2 SWAP1 PUSH2 0x4049 JUMP JUMPDEST PUSH1 0x0 PUSH1 0x40 MLOAD DUP1 DUP4 SUB DUP2 PUSH1 0x0 DUP8 DUP1 EXTCODESIZE ISZERO DUP1 ISZERO PUSH2 0x2A41 JUMPI PUSH1 0x0 DUP1 REVERT JUMPDEST POP GAS CALL ISZERO DUP1 ISZERO PUSH2 0x2A55 JUMPI RETURNDATASIZE PUSH1 0x0 DUP1 RETURNDATACOPY RETURNDATASIZE PUSH1 0x0 REVERT JUMPDEST POP POP POP POP PUSH1 0x0 DUP1 SLOAD SWAP1 PUSH2 0x100 EXP SWAP1 DIV PUSH20 0xFFFFFFFFFFFFFFFFFFFFFFFFFFFFFFFFFFFFFFFF AND PUSH20 0xFFFFFFFFFFFFFFFFFFFFFFFFFFFFFFFFFFFFFFFF AND PUSH4 0x3E5F2857 DUP8 DUP8 PUSH1 0x3 DUP6 PUSH1 0x1 PUSH1 0x40 MLOAD DUP7 PUSH4 0xFFFFFFFF AND PUSH1 0xE0 SHL DUP2 MSTORE PUSH1 0x4 ADD PUSH2 0x2ABC SWAP6 SWAP5 SWAP4 SWAP3 SWAP2 SWAP1 PUSH2 0x4049 JUMP JUMPDEST PUSH1 0x0 PUSH1 0x40 MLOAD DUP1 DUP4 SUB DUP2 PUSH1 0x0 DUP8 DUP1 EXTCODESIZE ISZERO DUP1 ISZERO PUSH2 0x2AD6 JUMPI PUSH1 0x0 DUP1 REVERT JUMPDEST POP GAS CALL ISZERO DUP1 ISZERO PUSH2 0x2AEA JUMPI RETURNDATASIZE PUSH1 0x0 DUP1 RETURNDATACOPY RETURNDATASIZE PUSH1 0x0 REVERT JUMPDEST POP POP POP POP POP JUMPDEST PUSH1 0x1 DUP2 PUSH1 0x60 ADD MLOAD GT ISZERO PUSH2 0x2C3E JUMPI PUSH1 0x0 PUSH1 0x2 DUP3 PUSH1 0x60 ADD MLOAD PUSH2 0x2B10 SWAP2 SWAP1 PUSH2 0x3EC1 JUMP JUMPDEST SWAP1 POP PUSH1 0x0 DUP1 SLOAD SWAP1 PUSH2 0x100 EXP SWAP1 DIV PUSH20 0xFFFFFFFFFFFFFFFFFFFFFFFFFFFFFFFFFFFFFFFF AND PUSH20 0xFFFFFFFFFFFFFFFFFFFFFFFFFFFFFFFFFFFFFFFF AND PUSH4 0x3E5F2857 DUP6 DUP6 PUSH1 0x4 DUP6 PUSH1 0x0 PUSH1 0x40 MLOAD DUP7 PUSH4 0xFFFFFFFF AND PUSH1 0xE0 SHL DUP2 MSTORE PUSH1 0x4 ADD PUSH2 0x2B75 SWAP6 SWAP5 SWAP4 SWAP3 SWAP2 SWAP1 PUSH2 0x40D7 JUMP JUMPDEST PUSH1 0x0 PUSH1 0x40 MLOAD DUP1 DUP4 SUB DUP2 PUSH1 0x0 DUP8 DUP1 EXTCODESIZE ISZERO DUP1 ISZERO PUSH2 0x2B8F JUMPI PUSH1 0x0 DUP1 REVERT JUMPDEST POP GAS CALL ISZERO DUP1 ISZERO PUSH2 0x2BA3 JUMPI RETURNDATASIZE PUSH1 0x0 DUP1 RETURNDATACOPY RETURNDATASIZE PUSH1 0x0 REVERT JUMPDEST POP POP POP POP PUSH1 0x0 DUP1 SLOAD SWAP1 PUSH2 0x100 EXP SWAP1 DIV PUSH20 0xFFFFFFFFFFFFFFFFFFFFFFFFFFFFFFFFFFFFFFFF AND PUSH20 0xFFFFFFFFFFFFFFFFFFFFFFFFFFFFFFFFFFFFFFFF AND PUSH4 0x3E5F2857 DUP8 DUP8 PUSH1 0x4 DUP6 PUSH1 0x1 PUSH1 0x40 MLOAD DUP7 PUSH4 0xFFFFFFFF AND PUSH1 0xE0 SHL DUP2 MSTORE PUSH1 0x4 ADD PUSH2 0x2C0A SWAP6 SWAP5 SWAP4 SWAP3 SWAP2 SWAP1 PUSH2 0x40D7 JUMP JUMPDEST PUSH1 0x0 PUSH1 0x40 MLOAD DUP1 DUP4 SUB DUP2 PUSH1 0x0 DUP8 DUP1 EXTCODESIZE ISZERO DUP1 ISZERO PUSH2 0x2C24 JUMPI PUSH1 0x0 DUP1 REVERT JUMPDEST POP GAS CALL ISZERO DUP1 ISZERO PUSH2 0x2C38 JUMPI RETURNDATASIZE PUSH1 0x0 DUP1 RETURNDATACOPY RETURNDATASIZE PUSH1 0x0 REVERT JUMPDEST POP POP POP POP POP JUMPDEST POP POP POP POP POP JUMP JUMPDEST PUSH1 0x0 PUSH20 0xFFFFFFFFFFFFFFFFFFFFFFFFFFFFFFFFFFFFFFFF DUP3 AND SWAP1 POP SWAP2 SWAP1 POP JUMP JUMPDEST PUSH1 0x0 DUP2 SWAP1 POP SWAP2 SWAP1 POP JUMP JUMPDEST PUSH1 0x0 PUSH2 0x2C8A PUSH2 0x2C85 PUSH2 0x2C80 DUP5 PUSH2 0x2C45 JUMP JUMPDEST PUSH2 0x2C65 JUMP JUMPDEST PUSH2 0x2C45 JUMP JUMPDEST SWAP1 POP SWAP2 SWAP1 POP JUMP JUMPDEST PUSH1 0x0 PUSH2 0x2C9C DUP3 PUSH2 0x2C6F JUMP JUMPDEST SWAP1 POP SWAP2 SWAP1 POP JUMP JUMPDEST PUSH1 0x0 PUSH2 0x2CAE DUP3 PUSH2 0x2C91 JUMP JUMPDEST SWAP1 POP SWAP2 SWAP1 POP JUMP JUMPDEST PUSH2 0x2CBE DUP2 PUSH2 0x2CA3 JUMP JUMPDEST DUP3 MSTORE POP POP JUMP JUMPDEST PUSH1 0x0 PUSH1 0x20 DUP3 ADD SWAP1 POP PUSH2 0x2CD9 PUSH1 0x0 DUP4 ADD DUP5 PUSH2 0x2CB5 JUMP JUMPDEST SWAP3 SWAP2 POP POP JUMP JUMPDEST PUSH1 0x0 DUP2 SWAP1 POP SWAP2 SWAP1 POP JUMP JUMPDEST PUSH2 0x2CF2 DUP2 PUSH2 0x2CDF JUMP JUMPDEST DUP3 MSTORE POP POP JUMP JUMPDEST PUSH1 0x0 PUSH1 0x20 DUP3 ADD SWAP1 POP PUSH2 0x2D0D PUSH1 0x0 DUP4 ADD DUP5 PUSH2 0x2CE9 JUMP JUMPDEST SWAP3 SWAP2 POP POP JUMP JUMPDEST PUSH1 0x0 PUSH1 0x40 MLOAD SWAP1 POP SWAP1 JUMP JUMPDEST PUSH1 0x0 DUP1 REVERT JUMPDEST PUSH1 0x0 PUSH1 0xFF DUP3 AND SWAP1 POP SWAP2 SWAP1 POP JUMP JUMPDEST PUSH2 0x2D38 DUP2 PUSH2 0x2D22 JUMP JUMPDEST DUP2 EQ PUSH2 0x2D43 JUMPI PUSH1 0x0 DUP1 REVERT JUMPDEST POP JUMP JUMPDEST PUSH1 0x0 DUP2 CALLDATALOAD SWAP1 POP PUSH2 0x2D55 DUP2 PUSH2 0x2D2F JUMP JUMPDEST SWAP3 SWAP2 POP POP JUMP JUMPDEST PUSH2 0x2D64 DUP2 PUSH2 0x2CDF JUMP JUMPDEST DUP2 EQ PUSH2 0x2D6F JUMPI PUSH1 0x0 DUP1 REVERT JUMPDEST POP JUMP JUMPDEST PUSH1 0x0 DUP2 CALLDATALOAD SWAP1 POP PUSH2 0x2D81 DUP2 PUSH2 0x2D5B JUMP JUMPDEST SWAP3 SWAP2 POP POP JUMP JUMPDEST PUSH1 0x0 DUP1 PUSH1 0x40 DUP4 DUP6 SUB SLT ISZERO PUSH2 0x2D9E JUMPI PUSH2 0x2D9D PUSH2 0x2D1D JUMP JUMPDEST JUMPDEST PUSH1 0x0 PUSH2 0x2DAC DUP6 DUP3 DUP7 ADD PUSH2 0x2D46 JUMP JUMPDEST SWAP3 POP POP PUSH1 0x20 PUSH2 0x2DBD DUP6 DUP3 DUP7 ADD PUSH2 0x2D72 JUMP JUMPDEST SWAP2 POP POP SWAP3 POP SWAP3 SWAP1 POP JUMP JUMPDEST PUSH1 0x0 PUSH2 0x2DD2 DUP3 PUSH2 0x2C45 JUMP JUMPDEST SWAP1 POP SWAP2 SWAP1 POP JUMP JUMPDEST PUSH2 0x2DE2 DUP2 PUSH2 0x2DC7 JUMP JUMPDEST DUP3 MSTORE POP POP JUMP JUMPDEST PUSH2 0x2DF1 DUP2 PUSH2 0x2D22 JUMP JUMPDEST DUP3 MSTORE POP POP JUMP JUMPDEST PUSH1 0x0 PUSH1 0x80 DUP3 ADD SWAP1 POP PUSH2 0x2E0C PUSH1 0x0 DUP4 ADD DUP8 PUSH2 0x2DD9 JUMP JUMPDEST PUSH2 0x2E19 PUSH1 0x20 DUP4 ADD DUP7 PUSH2 0x2DE8 JUMP JUMPDEST PUSH2 0x2E26 PUSH1 0x40 DUP4 ADD DUP6 PUSH2 0x2CE9 JUMP JUMPDEST PUSH2 0x2E33 PUSH1 0x60 DUP4 ADD DUP5 PUSH2 0x2CE9 JUMP JUMPDEST SWAP6 SWAP5 POP POP POP POP POP JUMP JUMPDEST PUSH1 0x0 PUSH1 0x20 DUP3 DUP5 SUB SLT ISZERO PUSH2 0x2E52 JUMPI PUSH2 0x2E51 PUSH2 0x2D1D JUMP JUMPDEST JUMPDEST PUSH1 0x0 PUSH2 0x2E60 DUP5 DUP3 DUP6 ADD PUSH2 0x2D46 JUMP JUMPDEST SWAP2 POP POP SWAP3 SWAP2 POP POP JUMP JUMPDEST PUSH1 0x0 DUP2 MLOAD SWAP1 POP SWAP2 SWAP1 POP JUMP JUMPDEST PUSH1 0x0 DUP3 DUP3 MSTORE PUSH1 0x20 DUP3 ADD SWAP1 POP SWAP3 SWAP2 POP POP JUMP JUMPDEST PUSH1 0x0 DUP2 SWAP1 POP PUSH1 0x20 DUP3 ADD SWAP1 POP SWAP2 SWAP1 POP JUMP JUMPDEST PUSH2 0x2E9E DUP2 PUSH2 0x2DC7 JUMP JUMPDEST DUP3 MSTORE POP POP JUMP JUMPDEST PUSH2 0x2EAD DUP2 PUSH2 0x2D22 JUMP JUMPDEST DUP3 MSTORE POP POP JUMP JUMPDEST PUSH2 0x2EBC DUP2 PUSH2 0x2CDF JUMP JUMPDEST DUP3 MSTORE POP POP JUMP JUMPDEST PUSH1 0x80 DUP3 ADD PUSH1 0x0 DUP3 ADD MLOAD PUSH2 0x2ED8 PUSH1 0x0 DUP6 ADD DUP3 PUSH2 0x2E95 JUMP JUMPDEST POP PUSH1 0x20 DUP3 ADD MLOAD PUSH2 0x2EEB PUSH1 0x20 DUP6 ADD DUP3 PUSH2 0x2EA4 JUMP JUMPDEST POP PUSH1 0x40 DUP3 ADD MLOAD PUSH2 0x2EFE PUSH1 0x40 DUP6 ADD DUP3 PUSH2 0x2EB3 JUMP JUMPDEST POP PUSH1 0x60 DUP3 ADD MLOAD PUSH2 0x2F11 PUSH1 0x60 DUP6 ADD DUP3 PUSH2 0x2EB3 JUMP JUMPDEST POP POP POP POP JUMP JUMPDEST PUSH1 0x0 PUSH2 0x2F23 DUP4 DUP4 PUSH2 0x2EC2 JUMP JUMPDEST PUSH1 0x80 DUP4 ADD SWAP1 POP SWAP3 SWAP2 POP POP JUMP JUMPDEST PUSH1 0x0 PUSH1 0x20 DUP3 ADD SWAP1 POP SWAP2 SWAP1 POP JUMP JUMPDEST PUSH1 0x0 PUSH2 0x2F47 DUP3 PUSH2 0x2E69 JUMP JUMPDEST PUSH2 0x2F51 DUP2 DUP6 PUSH2 0x2E74 JUMP JUMPDEST SWAP4 POP PUSH2 0x2F5C DUP4 PUSH2 0x2E85 JUMP JUMPDEST DUP1 PUSH1 0x0 JUMPDEST DUP4 DUP2 LT ISZERO PUSH2 0x2F8D JUMPI DUP2 MLOAD PUSH2 0x2F74 DUP9 DUP3 PUSH2 0x2F17 JUMP JUMPDEST SWAP8 POP PUSH2 0x2F7F DUP4 PUSH2 0x2F2F JUMP JUMPDEST SWAP3 POP POP PUSH1 0x1 DUP2 ADD SWAP1 POP PUSH2 0x2F60 JUMP JUMPDEST POP DUP6 SWAP4 POP POP POP POP SWAP3 SWAP2 POP POP JUMP JUMPDEST PUSH1 0x0 PUSH1 0x20 DUP3 ADD SWAP1 POP DUP2 DUP2 SUB PUSH1 0x0 DUP4 ADD MSTORE PUSH2 0x2FB4 DUP2 DUP5 PUSH2 0x2F3C JUMP JUMPDEST SWAP1 POP SWAP3 SWAP2 POP POP JUMP JUMPDEST PUSH1 0x0 DUP1 PUSH1 0x0 DUP1 PUSH1 0x80 DUP6 DUP8 SUB SLT ISZERO PUSH2 0x2FD6 JUMPI PUSH2 0x2FD5 PUSH2 0x2D1D JUMP JUMPDEST JUMPDEST PUSH1 0x0 PUSH2 0x2FE4 DUP8 DUP3 DUP9 ADD PUSH2 0x2D46 JUMP JUMPDEST SWAP5 POP POP PUSH1 0x20 PUSH2 0x2FF5 DUP8 DUP3 DUP9 ADD PUSH2 0x2D46 JUMP JUMPDEST SWAP4 POP POP PUSH1 0x40 PUSH2 0x3006 DUP8 DUP3 DUP9 ADD PUSH2 0x2D46 JUMP JUMPDEST SWAP3 POP POP PUSH1 0x60 PUSH2 0x3017 DUP8 DUP3 DUP9 ADD PUSH2 0x2D72 JUMP JUMPDEST SWAP2 POP POP SWAP3 SWAP6 SWAP2 SWAP5 POP SWAP3 POP JUMP JUMPDEST PUSH1 0x0 PUSH2 0x302E DUP3 PUSH2 0x2C91 JUMP JUMPDEST SWAP1 POP SWAP2 SWAP1 POP JUMP JUMPDEST PUSH2 0x303E DUP2 PUSH2 0x3023 JUMP JUMPDEST DUP3 MSTORE POP POP JUMP JUMPDEST PUSH1 0x0 PUSH1 0x20 DUP3 ADD SWAP1 POP PUSH2 0x3059 PUSH1 0x0 DUP4 ADD DUP5 PUSH2 0x3035 JUMP JUMPDEST SWAP3 SWAP2 POP POP JUMP JUMPDEST PUSH1 0x0 DUP1 PUSH1 0x0 DUP1 PUSH1 0x80 DUP6 DUP8 SUB SLT ISZERO PUSH2 0x3079 JUMPI PUSH2 0x3078 PUSH2 0x2D1D JUMP JUMPDEST JUMPDEST PUSH1 0x0 PUSH2 0x3087 DUP8 DUP3 DUP9 ADD PUSH2 0x2D46 JUMP JUMPDEST SWAP5 POP POP PUSH1 0x20 PUSH2 0x3098 DUP8 DUP3 DUP9 ADD PUSH2 0x2D46 JUMP JUMPDEST SWAP4 POP POP PUSH1 0x40 PUSH2 0x30A9 DUP8 DUP3 DUP9 ADD PUSH2 0x2D46 JUMP JUMPDEST SWAP3 POP POP PUSH1 0x60 PUSH2 0x30BA DUP8 DUP3 DUP9 ADD PUSH2 0x2D46 JUMP JUMPDEST SWAP2 POP POP SWAP3 SWAP6 SWAP2 SWAP5 POP SWAP3 POP JUMP JUMPDEST PUSH1 0x0 DUP1 PUSH1 0x40 DUP4 DUP6 SUB SLT ISZERO PUSH2 0x30DD JUMPI PUSH2 0x30DC PUSH2 0x2D1D JUMP JUMPDEST JUMPDEST PUSH1 0x0 PUSH2 0x30EB DUP6 DUP3 DUP7 ADD PUSH2 0x2D46 JUMP JUMPDEST SWAP3 POP POP PUSH1 0x20 PUSH2 0x30FC DUP6 DUP3 DUP7 ADD PUSH2 0x2D46 JUMP JUMPDEST SWAP2 POP POP SWAP3 POP SWAP3 SWAP1 POP JUMP JUMPDEST PUSH1 0x0 PUSH2 0x3111 DUP3 PUSH2 0x2C91 JUMP JUMPDEST SWAP1 POP SWAP2 SWAP1 POP JUMP JUMPDEST PUSH2 0x3121 DUP2 PUSH2 0x3106 JUMP JUMPDEST DUP3 MSTORE POP POP JUMP JUMPDEST PUSH1 0x0 PUSH1 0x20 DUP3 ADD SWAP1 POP PUSH2 0x313C PUSH1 0x0 DUP4 ADD DUP5 PUSH2 0x3118 JUMP JUMPDEST SWAP3 SWAP2 POP POP JUMP JUMPDEST PUSH1 0x0 DUP1 PUSH1 0x0 DUP1 PUSH1 0x0 PUSH1 0xA0 DUP7 DUP9 SUB SLT ISZERO PUSH2 0x315E JUMPI PUSH2 0x315D PUSH2 0x2D1D JUMP JUMPDEST JUMPDEST PUSH1 0x0 PUSH2 0x316C DUP9 DUP3 DUP10 ADD PUSH2 0x2D46 JUMP JUMPDEST SWAP6 POP POP PUSH1 0x20 PUSH2 0x317D DUP9 DUP3 DUP10 ADD PUSH2 0x2D46 JUMP JUMPDEST SWAP5 POP POP PUSH1 0x40 PUSH2 0x318E DUP9 DUP3 DUP10 ADD PUSH2 0x2D46 JUMP JUMPDEST SWAP4 POP POP PUSH1 0x60 PUSH2 0x319F DUP9 DUP3 DUP10 ADD PUSH2 0x2D72 JUMP JUMPDEST SWAP3 POP POP PUSH1 0x80 PUSH2 0x31B0 DUP9 DUP3 DUP10 ADD PUSH2 0x2D72 JUMP JUMPDEST SWAP2 POP POP SWAP3 SWAP6 POP SWAP3 SWAP6 SWAP1 SWAP4 POP JUMP JUMPDEST PUSH1 0x0 DUP3 DUP3 MSTORE PUSH1 0x20 DUP3 ADD SWAP1 POP SWAP3 SWAP2 POP POP JUMP JUMPDEST PUSH32 0x496E76616C6964207265736F7572636520747970650000000000000000000000 PUSH1 0x0 DUP3 ADD MSTORE POP JUMP JUMPDEST PUSH1 0x0 PUSH2 0x3204 PUSH1 0x15 DUP4 PUSH2 0x31BD JUMP JUMPDEST SWAP2 POP PUSH2 0x320F DUP3 PUSH2 0x31CE JUMP JUMPDEST PUSH1 0x20 DUP3 ADD SWAP1 POP SWAP2 SWAP1 POP JUMP JUMPDEST PUSH1 0x0 PUSH1 0x20 DUP3 ADD SWAP1 POP DUP2 DUP2 SUB PUSH1 0x0 DUP4 ADD MSTORE PUSH2 0x3233 DUP2 PUSH2 0x31F7 JUMP JUMPDEST SWAP1 POP SWAP2 SWAP1 POP JUMP JUMPDEST PUSH1 0x0 PUSH1 0x40 DUP3 ADD SWAP1 POP PUSH2 0x324F PUSH1 0x0 DUP4 ADD DUP6 PUSH2 0x2DE8 JUMP JUMPDEST PUSH2 0x325C PUSH1 0x20 DUP4 ADD DUP5 PUSH2 0x2DE8 JUMP JUMPDEST SWAP4 SWAP3 POP POP POP JUMP JUMPDEST PUSH2 0x326C DUP2 PUSH2 0x2DC7 JUMP JUMPDEST DUP2 EQ PUSH2 0x3277 JUMPI PUSH1 0x0 DUP1 REVERT JUMPDEST POP JUMP JUMPDEST PUSH1 0x0 DUP2 MLOAD SWAP1 POP PUSH2 0x3289 DUP2 PUSH2 0x3263 JUMP JUMPDEST SWAP3 SWAP2 POP POP JUMP JUMPDEST PUSH1 0x0 PUSH1 0x20 DUP3 DUP5 SUB SLT ISZERO PUSH2 0x32A5 JUMPI PUSH2 0x32A4 PUSH2 0x2D1D JUMP JUMPDEST JUMPDEST PUSH1 0x0 PUSH2 0x32B3 DUP5 DUP3 DUP6 ADD PUSH2 0x327A JUMP JUMPDEST SWAP2 POP POP SWAP3 SWAP2 POP POP JUMP JUMPDEST PUSH32 0x596F7520646F206E6F74206F776E20746869732074696C650000000000000000 PUSH1 0x0 DUP3 ADD MSTORE POP JUMP JUMPDEST PUSH1 0x0 PUSH2 0x32F2 PUSH1 0x18 DUP4 PUSH2 0x31BD JUMP JUMPDEST SWAP2 POP PUSH2 0x32FD DUP3 PUSH2 0x32BC JUMP JUMPDEST PUSH1 0x20 DUP3 ADD SWAP1 POP SWAP2 SWAP1 POP JUMP JUMPDEST PUSH1 0x0 PUSH1 0x20 DUP3 ADD SWAP1 POP DUP2 DUP2 SUB PUSH1 0x0 DUP4 ADD MSTORE PUSH2 0x3321 DUP2 PUSH2 0x32E5 JUMP JUMPDEST SWAP1 POP SWAP2 SWAP1 POP JUMP JUMPDEST PUSH32 0x496E76616C696420696E64657800000000000000000000000000000000000000 PUSH1 0x0 DUP3 ADD MSTORE POP JUMP JUMPDEST PUSH1 0x0 PUSH2 0x335E PUSH1 0xD DUP4 PUSH2 0x31BD JUMP JUMPDEST SWAP2 POP PUSH2 0x3369 DUP3 PUSH2 0x3328 JUMP JUMPDEST PUSH1 0x20 DUP3 ADD SWAP1 POP SWAP2 SWAP1 POP JUMP JUMPDEST PUSH1 0x0 PUSH1 0x20 DUP3 ADD SWAP1 POP DUP2 DUP2 SUB PUSH1 0x0 DUP4 ADD MSTORE PUSH2 0x338D DUP2 PUSH2 0x3351 JUMP JUMPDEST SWAP1 POP SWAP2 SWAP1 POP JUMP JUMPDEST PUSH32 0x4E487B7100000000000000000000000000000000000000000000000000000000 PUSH1 0x0 MSTORE PUSH1 0x32 PUSH1 0x4 MSTORE PUSH1 0x24 PUSH1 0x0 REVERT JUMPDEST PUSH32 0x4E6F7420796F7572206C697374696E6700000000000000000000000000000000 PUSH1 0x0 DUP3 ADD MSTORE POP JUMP JUMPDEST PUSH1 0x0 PUSH2 0x33F9 PUSH1 0x10 DUP4 PUSH2 0x31BD JUMP JUMPDEST SWAP2 POP PUSH2 0x3404 DUP3 PUSH2 0x33C3 JUMP JUMPDEST PUSH1 0x20 DUP3 ADD SWAP1 POP SWAP2 SWAP1 POP JUMP JUMPDEST PUSH1 0x0 PUSH1 0x20 DUP3 ADD SWAP1 POP DUP2 DUP2 SUB PUSH1 0x0 DUP4 ADD MSTORE PUSH2 0x3428 DUP2 PUSH2 0x33EC JUMP JUMPDEST SWAP1 POP SWAP2 SWAP1 POP JUMP JUMPDEST PUSH1 0x0 DUP2 ISZERO ISZERO SWAP1 POP SWAP2 SWAP1 POP JUMP JUMPDEST PUSH2 0x3444 DUP2 PUSH2 0x342F JUMP JUMPDEST DUP3 MSTORE POP POP JUMP JUMPDEST PUSH1 0x0 PUSH1 0xA0 DUP3 ADD SWAP1 POP PUSH2 0x345F PUSH1 0x0 DUP4 ADD DUP9 PUSH2 0x2DE8 JUMP JUMPDEST PUSH2 0x346C PUSH1 0x20 DUP4 ADD DUP8 PUSH2 0x2DE8 JUMP JUMPDEST PUSH2 0x3479 PUSH1 0x40 DUP4 ADD DUP7 PUSH2 0x2DE8 JUMP JUMPDEST PUSH2 0x3486 PUSH1 0x60 DUP4 ADD DUP6 PUSH2 0x2CE9 JUMP JUMPDEST PUSH2 0x3493 PUSH1 0x80 DUP4 ADD DUP5 PUSH2 0x343B JUMP JUMPDEST SWAP7 SWAP6 POP POP POP POP POP POP JUMP JUMPDEST PUSH32 0x4E487B7100000000000000000000000000000000000000000000000000000000 PUSH1 0x0 MSTORE PUSH1 0x11 PUSH1 0x4 MSTORE PUSH1 0x24 PUSH1 0x0 REVERT JUMPDEST PUSH1 0x0 PUSH2 0x34D7 DUP3 PUSH2 0x2CDF JUMP JUMPDEST SWAP2 POP PUSH2 0x34E2 DUP4 PUSH2 0x2CDF JUMP JUMPDEST SWAP3 POP DUP3 DUP3 SUB SWAP1 POP DUP2 DUP2 GT ISZERO PUSH2 0x34FA JUMPI PUSH2 0x34F9 PUSH2 0x349D JUMP JUMPDEST JUMPDEST SWAP3 SWAP2 POP POP JUMP JUMPDEST PUSH32 0x4E487B7100000000000000000000000000000000000000000000000000000000 PUSH1 0x0 MSTORE PUSH1 0x31 PUSH1 0x4 MSTORE PUSH1 0x24 PUSH1 0x0 REVERT JUMPDEST PUSH32 0x4E6F20646566656E646572000000000000000000000000000000000000000000 PUSH1 0x0 DUP3 ADD MSTORE POP JUMP JUMPDEST PUSH1 0x0 PUSH2 0x3565 PUSH1 0xB DUP4 PUSH2 0x31BD JUMP JUMPDEST SWAP2 POP PUSH2 0x3570 DUP3 PUSH2 0x352F JUMP JUMPDEST PUSH1 0x20 DUP3 ADD SWAP1 POP SWAP2 SWAP1 POP JUMP JUMPDEST PUSH1 0x0 PUSH1 0x20 DUP3 ADD SWAP1 POP DUP2 DUP2 SUB PUSH1 0x0 DUP4 ADD MSTORE PUSH2 0x3594 DUP2 PUSH2 0x3558 JUMP JUMPDEST SWAP1 POP SWAP2 SWAP1 POP JUMP JUMPDEST PUSH32 0x43616E27742061747461636B20796F757273656C660000000000000000000000 PUSH1 0x0 DUP3 ADD MSTORE POP JUMP JUMPDEST PUSH1 0x0 PUSH2 0x35D1 PUSH1 0x15 DUP4 PUSH2 0x31BD JUMP JUMPDEST SWAP2 POP PUSH2 0x35DC DUP3 PUSH2 0x359B JUMP JUMPDEST PUSH1 0x20 DUP3 ADD SWAP1 POP SWAP2 SWAP1 POP JUMP JUMPDEST PUSH1 0x0 PUSH1 0x20 DUP3 ADD SWAP1 POP DUP2 DUP2 SUB PUSH1 0x0 DUP4 ADD MSTORE PUSH2 0x3600 DUP2 PUSH2 0x35C4 JUMP JUMPDEST SWAP1 POP SWAP2 SWAP1 POP JUMP JUMPDEST PUSH1 0x0 PUSH2 0x3612 DUP3 PUSH2 0x2D22 JUMP JUMPDEST SWAP2 POP PUSH2 0x361D DUP4 PUSH2 0x2D22 JUMP JUMPDEST SWAP3 POP DUP3 DUP3 ADD SWAP1 POP PUSH1 0xFF DUP2 GT ISZERO PUSH2 0x3636 JUMPI PUSH2 0x3635 PUSH2 0x349D JUMP JUMPDEST JUMPDEST SWAP3 SWAP2 POP POP JUMP JUMPDEST PUSH32 0x54617267657420746F6F20666172206F722073616D652074696C650000000000 PUSH1 0x0 DUP3 ADD MSTORE POP JUMP JUMPDEST PUSH1 0x0 PUSH2 0x3672 PUSH1 0x1B DUP4 PUSH2 0x31BD JUMP JUMPDEST SWAP2 POP PUSH2 0x367D DUP3 PUSH2 0x363C JUMP JUMPDEST PUSH1 0x20 DUP3 ADD SWAP1 POP SWAP2 SWAP1 POP JUMP JUMPDEST PUSH1 0x0 PUSH1 0x20 DUP3 ADD SWAP1 POP DUP2 DUP2 SUB PUSH1 0x0 DUP4 ADD MSTORE PUSH2 0x36A1 DUP2 PUSH2 0x3665 JUMP JUMPDEST SWAP1 POP SWAP2 SWAP1 POP JUMP JUMPDEST PUSH1 0x0 PUSH2 0x36B3 DUP3 PUSH2 0x2CDF JUMP JUMPDEST SWAP2 POP PUSH2 0x36BE DUP4 PUSH2 0x2CDF JUMP JUMPDEST SWAP3 POP DUP3 DUP3 ADD SWAP1 POP DUP1 DUP3 GT ISZERO PUSH2 0x36D6 JUMPI PUSH2 0x36D5 PUSH2 0x349D JUMP JUMPDEST JUMPDEST SWAP3 SWAP2 POP POP JUMP JUMPDEST PUSH1 0x0 DUP2 MLOAD SWAP1 POP PUSH2 0x36EB DUP2 PUSH2 0x2D5B JUMP JUMPDEST SWAP3 SWAP2 POP POP JUMP JUMPDEST PUSH1 0x0 PUSH1 0x20 DUP3 DUP5 SUB SLT ISZERO PUSH2 0x3707 JUMPI PUSH2 0x3706 PUSH2 0x2D1D JUMP JUMPDEST JUMPDEST PUSH1 0x0 PUSH2 0x3715 DUP5 DUP3 DUP6 ADD PUSH2 0x36DC JUMP JUMPDEST SWAP2 POP POP SWAP3 SWAP2 POP POP JUMP JUMPDEST PUSH32 0x4E6F7420656E6F756768207475726E732073696E6365206C6173742061747461 PUSH1 0x0 DUP3 ADD MSTORE PUSH32 0x636B000000000000000000000000000000000000000000000000000000000000 PUSH1 0x20 DUP3 ADD MSTORE POP JUMP JUMPDEST PUSH1 0x0 PUSH2 0x377A PUSH1 0x22 DUP4 PUSH2 0x31BD JUMP JUMPDEST SWAP2 POP PUSH2 0x3785 DUP3 PUSH2 0x371E JUMP JUMPDEST PUSH1 0x40 DUP3 ADD SWAP1 POP SWAP2 SWAP1 POP JUMP JUMPDEST PUSH1 0x0 PUSH1 0x20 DUP3 ADD SWAP1 POP DUP2 DUP2 SUB PUSH1 0x0 DUP4 ADD MSTORE PUSH2 0x37A9 DUP2 PUSH2 0x376D JUMP JUMPDEST SWAP1 POP SWAP2 SWAP1 POP JUMP JUMPDEST PUSH32 0x446566656E64657220697320756E64657220636F6F6C646F776E2070726F7465 PUSH1 0x0 DUP3 ADD MSTORE PUSH32 0x6374696F6E000000000000000000000000000000000000000000000000000000 PUSH1 0x20 DUP3 ADD MSTORE POP JUMP JUMPDEST PUSH1 0x0 PUSH2 0x380C PUSH1 0x25 DUP4 PUSH2 0x31BD JUMP JUMPDEST SWAP2 POP PUSH2 0x3817 DUP3 PUSH2 0x37B0 JUMP JUMPDEST PUSH1 0x40 DUP3 ADD SWAP1 POP SWAP2 SWAP1 POP JUMP JUMPDEST PUSH1 0x0 PUSH1 0x20 DUP3 ADD SWAP1 POP DUP2 DUP2 SUB PUSH1 0x0 DUP4 ADD MSTORE PUSH2 0x383B DUP2 PUSH2 0x37FF JUMP JUMPDEST SWAP1 POP SWAP2 SWAP1 POP JUMP JUMPDEST PUSH1 0x0 DUP1 REVERT JUMPDEST PUSH1 0x0 PUSH1 0x1F NOT PUSH1 0x1F DUP4 ADD AND SWAP1 POP SWAP2 SWAP1 POP JUMP JUMPDEST PUSH32 0x4E487B7100000000000000000000000000000000000000000000000000000000 PUSH1 0x0 MSTORE PUSH1 0x41 PUSH1 0x4 MSTORE PUSH1 0x24 PUSH1 0x0 REVERT JUMPDEST PUSH2 0x3890 DUP3 PUSH2 0x3847 JUMP JUMPDEST DUP2 ADD DUP2 DUP2 LT PUSH8 0xFFFFFFFFFFFFFFFF DUP3 GT OR ISZERO PUSH2 0x38AF JUMPI PUSH2 0x38AE PUSH2 0x3858 JUMP JUMPDEST JUMPDEST DUP1 PUSH1 0x40 MSTORE POP POP POP JUMP JUMPDEST PUSH1 0x0 PUSH2 0x38C2 PUSH2 0x2D13 JUMP JUMPDEST SWAP1 POP PUSH2 0x38CE DUP3 DUP3 PUSH2 0x3887 JUMP JUMPDEST SWAP2 SWAP1 POP JUMP JUMPDEST PUSH1 0x0 PUSH2 0xFFFF DUP3 AND SWAP1 POP SWAP2 SWAP1 POP JUMP JUMPDEST PUSH2 0x38EA DUP2 PUSH2 0x38D3 JUMP JUMPDEST DUP2 EQ PUSH2 0x38F5 JUMPI PUSH1 0x0 DUP1 REVERT JUMPDEST POP JUMP JUMPDEST PUSH1 0x0 DUP2 MLOAD SWAP1 POP PUSH2 0x3907 DUP2 PUSH2 0x38E1 JUMP JUMPDEST SWAP3 SWAP2 POP POP JUMP JUMPDEST PUSH1 0x0 DUP2 MLOAD SWAP1 POP PUSH2 0x391C DUP2 PUSH2 0x2D2F JUMP JUMPDEST SWAP3 SWAP2 POP POP JUMP JUMPDEST PUSH1 0x0 PUSH2 0x1E0 DUP3 DUP5 SUB SLT ISZERO PUSH2 0x3939 JUMPI PUSH2 0x3938 PUSH2 0x3842 JUMP JUMPDEST JUMPDEST PUSH2 0x3944 PUSH2 0x1E0 PUSH2 0x38B8 JUMP JUMPDEST SWAP1 POP PUSH1 0x0 PUSH2 0x3954 DUP5 DUP3 DUP6 ADD PUSH2 0x36DC JUMP JUMPDEST PUSH1 0x0 DUP4 ADD MSTORE POP PUSH1 0x20 PUSH2 0x3968 DUP5 DUP3 DUP6 ADD PUSH2 0x36DC JUMP JUMPDEST PUSH1 0x20 DUP4 ADD MSTORE POP PUSH1 0x40 PUSH2 0x397C DUP5 DUP3 DUP6 ADD PUSH2 0x36DC JUMP JUMPDEST PUSH1 0x40 DUP4 ADD MSTORE POP PUSH1 0x60 PUSH2 0x3990 DUP5 DUP3 DUP6 ADD PUSH2 0x36DC JUMP JUMPDEST PUSH1 0x60 DUP4 ADD MSTORE POP PUSH1 0x80 PUSH2 0x39A4 DUP5 DUP3 DUP6 ADD PUSH2 0x38F8 JUMP JUMPDEST PUSH1 0x80 DUP4 ADD MSTORE POP PUSH1 0xA0 PUSH2 0x39B8 DUP5 DUP3 DUP6 ADD PUSH2 0x36DC JUMP JUMPDEST PUSH1 0xA0 DUP4 ADD MSTORE POP PUSH1 0xC0 PUSH2 0x39CC DUP5 DUP3 DUP6 ADD PUSH2 0x36DC JUMP JUMPDEST PUSH1 0xC0 DUP4 ADD MSTORE POP PUSH1 0xE0 PUSH2 0x39E0 DUP5 DUP3 DUP6 ADD PUSH2 0x36DC JUMP JUMPDEST PUSH1 0xE0 DUP4 ADD MSTORE POP PUSH2 0x100 PUSH2 0x39F5 DUP5 DUP3 DUP6 ADD PUSH2 0x36DC JUMP JUMPDEST PUSH2 0x100 DUP4 ADD MSTORE POP PUSH2 0x120 PUSH2 0x3A0B DUP5 DUP3 DUP6 ADD PUSH2 0x36DC JUMP JUMPDEST PUSH2 0x120 DUP4 ADD MSTORE POP PUSH2 0x140 PUSH2 0x3A21 DUP5 DUP3 DUP6 ADD PUSH2 0x36DC JUMP JUMPDEST PUSH2 0x140 DUP4 ADD MSTORE POP PUSH2 0x160 PUSH2 0x3A37 DUP5 DUP3 DUP6 ADD PUSH2 0x36DC JUMP JUMPDEST PUSH2 0x160 DUP4 ADD MSTORE POP PUSH2 0x180 PUSH2 0x3A4D DUP5 DUP3 DUP6 ADD PUSH2 0x390D JUMP JUMPDEST PUSH2 0x180 DUP4 ADD MSTORE POP PUSH2 0x1A0 PUSH2 0x3A63 DUP5 DUP3 DUP6 ADD PUSH2 0x390D JUMP JUMPDEST PUSH2 0x1A0 DUP4 ADD MSTORE POP PUSH2 0x1C0 PUSH2 0x3A79 DUP5 DUP3 DUP6 ADD PUSH2 0x36DC JUMP JUMPDEST PUSH2 0x1C0 DUP4 ADD MSTORE POP SWAP3 SWAP2 POP POP JUMP JUMPDEST PUSH1 0x0 PUSH2 0x1E0 DUP3 DUP5 SUB SLT ISZERO PUSH2 0x3A9D JUMPI PUSH2 0x3A9C PUSH2 0x2D1D JUMP JUMPDEST JUMPDEST PUSH1 0x0 PUSH2 0x3AAB DUP5 DUP3 DUP6 ADD PUSH2 0x3922 JUMP JUMPDEST SWAP2 POP POP SWAP3 SWAP2 POP POP JUMP JUMPDEST PUSH32 0x43616E6E6F742062757920796F7572206F776E206974656D0000000000000000 PUSH1 0x0 DUP3 ADD MSTORE POP JUMP JUMPDEST PUSH1 0x0 PUSH2 0x3AEA PUSH1 0x18 DUP4 PUSH2 0x31BD JUMP JUMPDEST SWAP2 POP PUSH2 0x3AF5 DUP3 PUSH2 0x3AB4 JUMP JUMPDEST PUSH1 0x20 DUP3 ADD SWAP1 POP SWAP2 SWAP1 POP JUMP JUMPDEST PUSH1 0x0 PUSH1 0x20 DUP3 ADD SWAP1 POP DUP2 DUP2 SUB PUSH1 0x0 DUP4 ADD MSTORE PUSH2 0x3B19 DUP2 PUSH2 0x3ADD JUMP JUMPDEST SWAP1 POP SWAP2 SWAP1 POP JUMP JUMPDEST PUSH1 0x0 PUSH1 0x60 DUP3 ADD SWAP1 POP PUSH2 0x3B35 PUSH1 0x0 DUP4 ADD DUP7 PUSH2 0x2DD9 JUMP JUMPDEST PUSH2 0x3B42 PUSH1 0x20 DUP4 ADD DUP6 PUSH2 0x2DD9 JUMP JUMPDEST PUSH2 0x3B4F PUSH1 0x40 DUP4 ADD DUP5 PUSH2 0x2CE9 JUMP JUMPDEST SWAP5 SWAP4 POP POP POP POP JUMP JUMPDEST PUSH2 0x3B60 DUP2 PUSH2 0x342F JUMP JUMPDEST DUP2 EQ PUSH2 0x3B6B JUMPI PUSH1 0x0 DUP1 REVERT JUMPDEST POP JUMP JUMPDEST PUSH1 0x0 DUP2 MLOAD SWAP1 POP PUSH2 0x3B7D DUP2 PUSH2 0x3B57 JUMP JUMPDEST SWAP3 SWAP2 POP POP JUMP JUMPDEST PUSH1 0x0 PUSH1 0x20 DUP3 DUP5 SUB SLT ISZERO PUSH2 0x3B99 JUMPI PUSH2 0x3B98 PUSH2 0x2D1D JUMP JUMPDEST JUMPDEST PUSH1 0x0 PUSH2 0x3BA7 DUP5 DUP3 DUP6 ADD PUSH2 0x3B6E JUMP JUMPDEST SWAP2 POP POP SWAP3 SWAP2 POP POP JUMP JUMPDEST PUSH32 0x546F6B656E207472616E73666572206661696C65640000000000000000000000 PUSH1 0x0 DUP3 ADD MSTORE POP JUMP JUMPDEST PUSH1 0x0 PUSH2 0x3BE6 PUSH1 0x15 DUP4 PUSH2 0x31BD JUMP JUMPDEST SWAP2 POP PUSH2 0x3BF1 DUP3 PUSH2 0x3BB0 JUMP JUMPDEST PUSH1 0x20 DUP3 ADD SWAP1 POP SWAP2 SWAP1 POP JUMP JUMPDEST PUSH1 0x0 PUSH1 0x20 DUP3 ADD SWAP1 POP DUP2 DUP2 SUB PUSH1 0x0 DUP4 ADD MSTORE PUSH2 0x3C15 DUP2 PUSH2 0x3BD9 JUMP JUMPDEST SWAP1 POP SWAP2 SWAP1 POP JUMP JUMPDEST PUSH1 0x0 PUSH1 0x40 DUP3 ADD SWAP1 POP PUSH2 0x3C31 PUSH1 0x0 DUP4 ADD DUP6 PUSH2 0x2CE9 JUMP JUMPDEST PUSH2 0x3C3E PUSH1 0x20 DUP4 ADD DUP5 PUSH2 0x2CE9 JUMP JUMPDEST SWAP4 SWAP3 POP POP POP JUMP JUMPDEST PUSH32 0x5072696365206D7573742062652067726561746572207468616E207A65726F00 PUSH1 0x0 DUP3 ADD MSTORE POP JUMP JUMPDEST PUSH1 0x0 PUSH2 0x3C7B PUSH1 0x1F DUP4 PUSH2 0x31BD JUMP JUMPDEST SWAP2 POP PUSH2 0x3C86 DUP3 PUSH2 0x3C45 JUMP JUMPDEST PUSH1 0x20 DUP3 ADD SWAP1 POP SWAP2 SWAP1 POP JUMP JUMPDEST PUSH1 0x0 PUSH1 0x20 DUP3 ADD SWAP1 POP DUP2 DUP2 SUB PUSH1 0x0 DUP4 ADD MSTORE PUSH2 0x3CAA DUP2 PUSH2 0x3C6E JUMP JUMPDEST SWAP1 POP SWAP2 SWAP1 POP JUMP JUMPDEST PUSH32 0x416D6F756E74206D7573742062652067726561746572207468616E207A65726F PUSH1 0x0 DUP3 ADD MSTORE POP JUMP JUMPDEST PUSH1 0x0 PUSH2 0x3CE7 PUSH1 0x20 DUP4 PUSH2 0x31BD JUMP JUMPDEST SWAP2 POP PUSH2 0x3CF2 DUP3 PUSH2 0x3CB1 JUMP JUMPDEST PUSH1 0x20 DUP3 ADD SWAP1 POP SWAP2 SWAP1 POP JUMP JUMPDEST PUSH1 0x0 PUSH1 0x20 DUP3 ADD SWAP1 POP DUP2 DUP2 SUB PUSH1 0x0 DUP4 ADD MSTORE PUSH2 0x3D16 DUP2 PUSH2 0x3CDA JUMP JUMPDEST SWAP1 POP SWAP2 SWAP1 POP JUMP JUMPDEST PUSH32 0x496E76616C696420616D6F756E7420666F72207265736F757263650000000000 PUSH1 0x0 DUP3 ADD MSTORE POP JUMP JUMPDEST PUSH1 0x0 PUSH2 0x3D53 PUSH1 0x1B DUP4 PUSH2 0x31BD JUMP JUMPDEST SWAP2 POP PUSH2 0x3D5E DUP3 PUSH2 0x3D1D JUMP JUMPDEST PUSH1 0x20 DUP3 ADD SWAP1 POP SWAP2 SWAP1 POP JUMP JUMPDEST PUSH1 0x0 PUSH1 0x20 DUP3 ADD SWAP1 POP DUP2 DUP2 SUB PUSH1 0x0 DUP4 ADD MSTORE PUSH2 0x3D82 DUP2 PUSH2 0x3D46 JUMP JUMPDEST SWAP1 POP SWAP2 SWAP1 POP JUMP JUMPDEST PUSH32 0x496E76616C696420616D6F756E7420666F72206D696C69746172792065717569 PUSH1 0x0 DUP3 ADD MSTORE PUSH32 0x706D656E74000000000000000000000000000000000000000000000000000000 PUSH1 0x20 DUP3 ADD MSTORE POP JUMP JUMPDEST PUSH1 0x0 PUSH2 0x3DE5 PUSH1 0x25 DUP4 PUSH2 0x31BD JUMP JUMPDEST SWAP2 POP PUSH2 0x3DF0 DUP3 PUSH2 0x3D89 JUMP JUMPDEST PUSH1 0x40 DUP3 ADD SWAP1 POP SWAP2 SWAP1 POP JUMP JUMPDEST PUSH1 0x0 PUSH1 0x20 DUP3 ADD SWAP1 POP DUP2 DUP2 SUB PUSH1 0x0 DUP4 ADD MSTORE PUSH2 0x3E14 DUP2 PUSH2 0x3DD8 JUMP JUMPDEST SWAP1 POP SWAP2 SWAP1 POP JUMP JUMPDEST PUSH1 0x0 PUSH2 0x3E26 DUP3 PUSH2 0x2D22 JUMP JUMPDEST SWAP2 POP PUSH2 0x3E31 DUP4 PUSH2 0x2D22 JUMP JUMPDEST SWAP3 POP DUP3 DUP3 SUB SWAP1 POP PUSH1 0xFF DUP2 GT ISZERO PUSH2 0x3E4A JUMPI PUSH2 0x3E49 PUSH2 0x349D JUMP JUMPDEST JUMPDEST SWAP3 SWAP2 POP POP JUMP JUMPDEST PUSH1 0x0 PUSH2 0x3E5B DUP3 PUSH2 0x2CDF JUMP JUMPDEST SWAP2 POP PUSH2 0x3E66 DUP4 PUSH2 0x2CDF JUMP JUMPDEST SWAP3 POP DUP3 DUP3 MUL PUSH2 0x3E74 DUP2 PUSH2 0x2CDF JUMP JUMPDEST SWAP2 POP DUP3 DUP3 DIV DUP5 EQ DUP4 ISZERO OR PUSH2 0x3E8B JUMPI PUSH2 0x3E8A PUSH2 0x349D JUMP JUMPDEST JUMPDEST POP SWAP3 SWAP2 POP POP JUMP JUMPDEST PUSH32 0x4E487B7100000000000000000000000000000000000000000000000000000000 PUSH1 0x0 MSTORE PUSH1 0x12 PUSH1 0x4 MSTORE PUSH1 0x24 PUSH1 0x0 REVERT JUMPDEST PUSH1 0x0 PUSH2 0x3ECC DUP3 PUSH2 0x2CDF JUMP JUMPDEST SWAP2 POP PUSH2 0x3ED7 DUP4 PUSH2 0x2CDF JUMP JUMPDEST SWAP3 POP DUP3 PUSH2 0x3EE7 JUMPI PUSH2 0x3EE6 PUSH2 0x3E92 JUMP JUMPDEST JUMPDEST DUP3 DUP3 DIV SWAP1 POP SWAP3 SWAP2 POP POP JUMP JUMPDEST PUSH1 0x0 DUP2 SWAP1 POP SWAP2 SWAP1 POP JUMP JUMPDEST PUSH1 0x0 PUSH2 0x3F17 PUSH2 0x3F12 PUSH2 0x3F0D DUP5 PUSH2 0x3EF2 JUMP JUMPDEST PUSH2 0x2C65 JUMP JUMPDEST PUSH2 0x2D22 JUMP JUMPDEST SWAP1 POP SWAP2 SWAP1 POP JUMP JUMPDEST PUSH2 0x3F27 DUP2 PUSH2 0x3EFC JUMP JUMPDEST DUP3 MSTORE POP POP JUMP JUMPDEST PUSH1 0x0 PUSH1 0xA0 DUP3 ADD SWAP1 POP PUSH2 0x3F42 PUSH1 0x0 DUP4 ADD DUP9 PUSH2 0x2DE8 JUMP JUMPDEST PUSH2 0x3F4F PUSH1 0x20 DUP4 ADD DUP8 PUSH2 0x2DE8 JUMP JUMPDEST PUSH2 0x3F5C PUSH1 0x40 DUP4 ADD DUP7 PUSH2 0x3F1E JUMP JUMPDEST PUSH2 0x3F69 PUSH1 0x60 DUP4 ADD DUP6 PUSH2 0x2CE9 JUMP JUMPDEST PUSH2 0x3F76 PUSH1 0x80 DUP4 ADD DUP5 PUSH2 0x343B JUMP JUMPDEST SWAP7 SWAP6 POP POP POP POP POP POP JUMP JUMPDEST PUSH1 0x0 DUP2 SWAP1 POP SWAP2 SWAP1 POP JUMP JUMPDEST PUSH1 0x0 PUSH2 0x3FA5 PUSH2 0x3FA0 PUSH2 0x3F9B DUP5 PUSH2 0x3F80 JUMP JUMPDEST PUSH2 0x2C65 JUMP JUMPDEST PUSH2 0x2D22 JUMP JUMPDEST SWAP1 POP SWAP2 SWAP1 POP JUMP JUMPDEST PUSH2 0x3FB5 DUP2 PUSH2 0x3F8A JUMP JUMPDEST DUP3 MSTORE POP POP JUMP JUMPDEST PUSH1 0x0 PUSH1 0xA0 DUP3 ADD SWAP1 POP PUSH2 0x3FD0 PUSH1 0x0 DUP4 ADD DUP9 PUSH2 0x2DE8 JUMP JUMPDEST PUSH2 0x3FDD PUSH1 0x20 DUP4 ADD DUP8 PUSH2 0x2DE8 JUMP JUMPDEST PUSH2 0x3FEA PUSH1 0x40 DUP4 ADD DUP7 PUSH2 0x3FAC JUMP JUMPDEST PUSH2 0x3FF7 PUSH1 0x60 DUP4 ADD DUP6 PUSH2 0x2CE9 JUMP JUMPDEST PUSH2 0x4004 PUSH1 0x80 DUP4 ADD DUP5 PUSH2 0x343B JUMP JUMPDEST SWAP7 SWAP6 POP POP POP POP POP POP JUMP JUMPDEST PUSH1 0x0 DUP2 SWAP1 POP SWAP2 SWAP1 POP JUMP JUMPDEST PUSH1 0x0 PUSH2 0x4033 PUSH2 0x402E PUSH2 0x4029 DUP5 PUSH2 0x400E JUMP JUMPDEST PUSH2 0x2C65 JUMP JUMPDEST PUSH2 0x2D22 JUMP JUMPDEST SWAP1 POP SWAP2 SWAP1 POP JUMP JUMPDEST PUSH2 0x4043 DUP2 PUSH2 0x4018 JUMP JUMPDEST DUP3 MSTORE POP POP JUMP JUMPDEST PUSH1 0x0 PUSH1 0xA0 DUP3 ADD SWAP1 POP PUSH2 0x405E PUSH1 0x0 DUP4 ADD DUP9 PUSH2 0x2DE8 JUMP JUMPDEST PUSH2 0x406B PUSH1 0x20 DUP4 ADD DUP8 PUSH2 0x2DE8 JUMP JUMPDEST PUSH2 0x4078 PUSH1 0x40 DUP4 ADD DUP7 PUSH2 0x403A JUMP JUMPDEST PUSH2 0x4085 PUSH1 0x60 DUP4 ADD DUP6 PUSH2 0x2CE9 JUMP JUMPDEST PUSH2 0x4092 PUSH1 0x80 DUP4 ADD DUP5 PUSH2 0x343B JUMP JUMPDEST SWAP7 SWAP6 POP POP POP POP POP POP JUMP JUMPDEST PUSH1 0x0 DUP2 SWAP1 POP SWAP2 SWAP1 POP JUMP JUMPDEST PUSH1 0x0 PUSH2 0x40C1 PUSH2 0x40BC PUSH2 0x40B7 DUP5 PUSH2 0x409C JUMP JUMPDEST PUSH2 0x2C65 JUMP JUMPDEST PUSH2 0x2D22 JUMP JUMPDEST SWAP1 POP SWAP2 SWAP1 POP JUMP JUMPDEST PUSH2 0x40D1 DUP2 PUSH2 0x40A6 JUMP JUMPDEST DUP3 MSTORE POP POP JUMP JUMPDEST PUSH1 0x0 PUSH1 0xA0 DUP3 ADD SWAP1 POP PUSH2 0x40EC PUSH1 0x0 DUP4 ADD DUP9 PUSH2 0x2DE8 JUMP JUMPDEST PUSH2 0x40F9 PUSH1 0x20 DUP4 ADD DUP8 PUSH2 0x2DE8 JUMP JUMPDEST PUSH2 0x4106 PUSH1 0x40 DUP4 ADD DUP7 PUSH2 0x40C8 JUMP JUMPDEST PUSH2 0x4113 PUSH1 0x60 DUP4 ADD DUP6 PUSH2 0x2CE9 JUMP JUMPDEST PUSH2 0x4120 PUSH1 0x80 DUP4 ADD DUP5 PUSH2 0x343B JUMP JUMPDEST SWAP7 SWAP6 POP POP POP POP POP POP JUMP JUMPDEST PUSH1 0x0 DUP2 SWAP1 POP SWAP2 SWAP1 POP JUMP JUMPDEST PUSH1 0x0 PUSH2 0x414F PUSH2 0x414A PUSH2 0x4145 DUP5 PUSH2 0x412A JUMP JUMPDEST PUSH2 0x2C65 JUMP JUMPDEST PUSH2 0x2D22 JUMP JUMPDEST SWAP1 POP SWAP2 SWAP1 POP JUMP JUMPDEST PUSH2 0x415F DUP2 PUSH2 0x4134 JUMP JUMPDEST DUP3 MSTORE POP POP JUMP JUMPDEST PUSH1 0x0 PUSH1 0xA0 DUP3 ADD SWAP1 POP PUSH2 0x417A PUSH1 0x0 DUP4 ADD DUP9 PUSH2 0x2DE8 JUMP JUMPDEST PUSH2 0x4187 PUSH1 0x20 DUP4 ADD DUP8 PUSH2 0x2DE8 JUMP JUMPDEST PUSH2 0x4194 PUSH1 0x40 DUP4 ADD DUP7 PUSH2 0x4156 JUMP JUMPDEST PUSH2 0x41A1 PUSH1 0x60 DUP4 ADD DUP6 PUSH2 0x2CE9 JUMP JUMPDEST PUSH2 0x41AE PUSH1 0x80 DUP4 ADD DUP5 PUSH2 0x343B JUMP JUMPDEST SWAP7 SWAP6 POP POP POP POP POP POP JUMP JUMPDEST PUSH1 0x0 DUP2 SWAP1 POP SWAP2 SWAP1 POP JUMP JUMPDEST PUSH1 0x0 PUSH2 0x41DD PUSH2 0x41D8 PUSH2 0x41D3 DUP5 PUSH2 0x41B8 JUMP JUMPDEST PUSH2 0x2C65 JUMP JUMPDEST PUSH2 0x2D22 JUMP JUMPDEST SWAP1 POP SWAP2 SWAP1 POP JUMP JUMPDEST PUSH2 0x41ED DUP2 PUSH2 0x41C2 JUMP JUMPDEST DUP3 MSTORE POP POP JUMP JUMPDEST PUSH1 0x0 PUSH1 0xA0 DUP3 ADD SWAP1 POP PUSH2 0x4208 PUSH1 0x0 DUP4 ADD DUP9 PUSH2 0x2DE8 JUMP JUMPDEST PUSH2 0x4215 PUSH1 0x20 DUP4 ADD DUP8 PUSH2 0x2DE8 JUMP JUMPDEST PUSH2 0x4222 PUSH1 0x40 DUP4 ADD DUP7 PUSH2 0x41E4 JUMP JUMPDEST PUSH2 0x422F PUSH1 0x60 DUP4 ADD DUP6 PUSH2 0x2CE9 JUMP JUMPDEST PUSH2 0x423C PUSH1 0x80 DUP4 ADD DUP5 PUSH2 0x343B JUMP JUMPDEST SWAP7 SWAP6 POP POP POP POP POP POP JUMP INVALID LOG2 PUSH5 0x6970667358 0x22 SLT KECCAK256 PUSH18 0x1721A564F588F5161812DE2BF32DAFDC4B0D PUSH6 0xB131779B31E2 0x2A PUSH27 0x7CA675DD64736F6C63430008120033000000000000000000000000 "
		},
		"gasEstimates": {
			"creation": {
				"codeDepositCost": "3404000",
				"executionCost": "infinite",
				"totalCost": "infinite"
			},
			"external": {
				"ATTACK_COST_FACTOR()": "352",
				"attackTile(uint8,uint8,uint8,uint8)": "infinite",
				"buyItem(uint8,uint8,uint8,uint256)": "infinite",
				"getListingsByResourceType(uint8)": "infinite",
				"lastAttackTurn(uint8,uint8)": "infinite",
				"lastDefenseTurn(uint8,uint8)": "infinite",
				"listItemForSale(uint8,uint8,uint8,uint256,uint256)": "infinite",
				"lopToken()": "infinite",
				"marketListings(uint8,uint256)": "infinite",
				"removeListing(uint8,uint8,uint8,uint256)": "infinite",
				"theLand()": "infinite",
				"tileMapPhaser()": "infinite"
			},
			"internal": {
				"_absDiff(uint8,uint8)": "infinite",
				"_applySoldierLoss(uint8,uint8,uint8,uint8,struct ITheLand.TileDataResponse memory,struct ITheLand.TileDataResponse memory)": "infinite",
				"_calculatePowers(struct ITheLand.TileDataResponse memory,struct ITheLand.TileDataResponse memory)": "infinite",
				"_payAttackResourceCost(uint8,uint8,uint8,struct ITheLand.TileDataResponse memory)": "infinite",
				"_stealResources(uint8,uint8,uint8,uint8,struct ITheLand.TileDataResponse memory)": "infinite"
			}
		},
		"methodIdentifiers": {
			"ATTACK_COST_FACTOR()": "10ac4633",
			"attackTile(uint8,uint8,uint8,uint8)": "697e71d2",
			"buyItem(uint8,uint8,uint8,uint256)": "999a2f7a",
			"getListingsByResourceType(uint8)": "4b4d9f89",
			"lastAttackTurn(uint8,uint8)": "763540cd",
			"lastDefenseTurn(uint8,uint8)": "70d27e41",
			"listItemForSale(uint8,uint8,uint8,uint256,uint256)": "ca030079",
			"lopToken()": "0d67f59e",
			"marketListings(uint8,uint256)": "3e6abf42",
			"removeListing(uint8,uint8,uint8,uint256)": "4d53fefb",
			"theLand()": "b0d77774",
			"tileMapPhaser()": "4f264b03"
		}
	},
	"abi": [
		{
			"inputs": [
				{
					"internalType": "address",
					"name": "_theLand",
					"type": "address"
				},
				{
					"internalType": "address",
					"name": "_lopToken",
					"type": "address"
				},
				{
					"internalType": "address",
					"name": "_tileMapPhaser",
					"type": "address"
				}
			],
			"stateMutability": "nonpayable",
			"type": "constructor"
		},
		{
			"anonymous": false,
			"inputs": [
				{
					"indexed": true,
					"internalType": "address",
					"name": "seller",
					"type": "address"
				},
				{
					"indexed": true,
					"internalType": "uint8",
					"name": "resourceType",
					"type": "uint8"
				},
				{
					"indexed": false,
					"internalType": "uint256",
					"name": "amount",
					"type": "uint256"
				},
				{
					"indexed": false,
					"internalType": "uint256",
					"name": "price",
					"type": "uint256"
				}
			],
			"name": "ItemListed",
			"type": "event"
		},
		{
			"anonymous": false,
			"inputs": [
				{
					"indexed": true,
					"internalType": "address",
					"name": "buyer",
					"type": "address"
				},
				{
					"indexed": true,
					"internalType": "address",
					"name": "seller",
					"type": "address"
				},
				{
					"indexed": true,
					"internalType": "uint8",
					"name": "resourceType",
					"type": "uint8"
				},
				{
					"indexed": false,
					"internalType": "uint256",
					"name": "amount",
					"type": "uint256"
				},
				{
					"indexed": false,
					"internalType": "uint256",
					"name": "price",
					"type": "uint256"
				}
			],
			"name": "ItemPurchased",
			"type": "event"
		},
		{
			"anonymous": false,
			"inputs": [
				{
					"indexed": true,
					"internalType": "address",
					"name": "seller",
					"type": "address"
				},
				{
					"indexed": true,
					"internalType": "uint8",
					"name": "resourceType",
					"type": "uint8"
				},
				{
					"indexed": false,
					"internalType": "uint256",
					"name": "amount",
					"type": "uint256"
				}
			],
			"name": "ItemRemoved",
			"type": "event"
		},
		{
			"inputs": [],
			"name": "ATTACK_COST_FACTOR",
			"outputs": [
				{
					"internalType": "uint256",
					"name": "",
					"type": "uint256"
				}
			],
			"stateMutability": "view",
			"type": "function"
		},
		{
			"inputs": [
				{
					"internalType": "uint8",
					"name": "ax",
					"type": "uint8"
				},
				{
					"internalType": "uint8",
					"name": "ay",
					"type": "uint8"
				},
				{
					"internalType": "uint8",
					"name": "dx",
					"type": "uint8"
				},
				{
					"internalType": "uint8",
					"name": "dy",
					"type": "uint8"
				}
			],
			"name": "attackTile",
			"outputs": [],
			"stateMutability": "nonpayable",
			"type": "function"
		},
		{
			"inputs": [
				{
					"internalType": "uint8",
					"name": "x",
					"type": "uint8"
				},
				{
					"internalType": "uint8",
					"name": "y",
					"type": "uint8"
				},
				{
					"internalType": "uint8",
					"name": "resourceType",
					"type": "uint8"
				},
				{
					"internalType": "uint256",
					"name": "index",
					"type": "uint256"
				}
			],
			"name": "buyItem",
			"outputs": [],
			"stateMutability": "nonpayable",
			"type": "function"
		},
		{
			"inputs": [
				{
					"internalType": "uint8",
					"name": "resourceType",
					"type": "uint8"
				}
			],
			"name": "getListingsByResourceType",
			"outputs": [
				{
					"components": [
						{
							"internalType": "address",
							"name": "seller",
							"type": "address"
						},
						{
							"internalType": "uint8",
							"name": "resourceType",
							"type": "uint8"
						},
						{
							"internalType": "uint256",
							"name": "amount",
							"type": "uint256"
						},
						{
							"internalType": "uint256",
							"name": "price",
							"type": "uint256"
						}
					],
					"internalType": "struct MarketPlace.MarketItem[]",
					"name": "",
					"type": "tuple[]"
				}
			],
			"stateMutability": "view",
			"type": "function"
		},
		{
			"inputs": [
				{
					"internalType": "uint8",
					"name": "",
					"type": "uint8"
				},
				{
					"internalType": "uint8",
					"name": "",
					"type": "uint8"
				}
			],
			"name": "lastAttackTurn",
			"outputs": [
				{
					"internalType": "uint256",
					"name": "",
					"type": "uint256"
				}
			],
			"stateMutability": "view",
			"type": "function"
		},
		{
			"inputs": [
				{
					"internalType": "uint8",
					"name": "",
					"type": "uint8"
				},
				{
					"internalType": "uint8",
					"name": "",
					"type": "uint8"
				}
			],
			"name": "lastDefenseTurn",
			"outputs": [
				{
					"internalType": "uint256",
					"name": "",
					"type": "uint256"
				}
			],
			"stateMutability": "view",
			"type": "function"
		},
		{
			"inputs": [
				{
					"internalType": "uint8",
					"name": "x",
					"type": "uint8"
				},
				{
					"internalType": "uint8",
					"name": "y",
					"type": "uint8"
				},
				{
					"internalType": "uint8",
					"name": "resourceType",
					"type": "uint8"
				},
				{
					"internalType": "uint256",
					"name": "amount",
					"type": "uint256"
				},
				{
					"internalType": "uint256",
					"name": "price",
					"type": "uint256"
				}
			],
			"name": "listItemForSale",
			"outputs": [],
			"stateMutability": "nonpayable",
			"type": "function"
		},
		{
			"inputs": [],
			"name": "lopToken",
			"outputs": [
				{
					"internalType": "contract IHarmLop",
					"name": "",
					"type": "address"
				}
			],
			"stateMutability": "view",
			"type": "function"
		},
		{
			"inputs": [
				{
					"internalType": "uint8",
					"name": "",
					"type": "uint8"
				},
				{
					"internalType": "uint256",
					"name": "",
					"type": "uint256"
				}
			],
			"name": "marketListings",
			"outputs": [
				{
					"internalType": "address",
					"name": "seller",
					"type": "address"
				},
				{
					"internalType": "uint8",
					"name": "resourceType",
					"type": "uint8"
				},
				{
					"internalType": "uint256",
					"name": "amount",
					"type": "uint256"
				},
				{
					"internalType": "uint256",
					"name": "price",
					"type": "uint256"
				}
			],
			"stateMutability": "view",
			"type": "function"
		},
		{
			"inputs": [
				{
					"internalType": "uint8",
					"name": "x",
					"type": "uint8"
				},
				{
					"internalType": "uint8",
					"name": "y",
					"type": "uint8"
				},
				{
					"internalType": "uint8",
					"name": "resourceType",
					"type": "uint8"
				},
				{
					"internalType": "uint256",
					"name": "index",
					"type": "uint256"
				}
			],
			"name": "removeListing",
			"outputs": [],
			"stateMutability": "nonpayable",
			"type": "function"
		},
		{
			"inputs": [],
			"name": "theLand",
			"outputs": [
				{
					"internalType": "contract ITheLand",
					"name": "",
					"type": "address"
				}
			],
			"stateMutability": "view",
			"type": "function"
		},
		{
			"inputs": [],
			"name": "tileMapPhaser",
			"outputs": [
				{
					"internalType": "contract ITileMapPhaser",
					"name": "",
					"type": "address"
				}
			],
			"stateMutability": "view",
			"type": "function"
		}
	]
}