{
	"data": {
		"bytecode": {
			"linkReferences": {},
			"object": "60806040523480156200001157600080fd5b5060405162004aba38038062004aba8339810160408190526200003491620000a5565b600080546001600160a01b039586166001600160a01b031991821617909155600180549486169482169490941790935560028054928516928416929092179091556003805491909316911617905562000102565b80516001600160a01b0381168114620000a057600080fd5b919050565b60008060008060808587031215620000bc57600080fd5b620000c78562000088565b9350620000d76020860162000088565b9250620000e76040860162000088565b9150620000f76060860162000088565b905092959194509250565b6149a880620001126000396000f3fe608060405234801561001057600080fd5b506004361061016b5760003560e01c8063697e71d2116100cd578063999a2f7a11610081578063c49443ac11610066578063c49443ac146103a5578063ca030079146103b8578063e450909a146103cb57600080fd5b8063999a2f7a1461037f578063b0d777741461039257600080fd5b8063763540cd116100b2578063763540cd1461032e5780638972ae26146103595780638e9197b41461036c57600080fd5b8063697e71d2146102f057806370d27e411461030357600080fd5b80633e6abf42116101245780634b4d9f89116101095780634b4d9f89146102a85780634f264b03146102c857806354adac10146102db57600080fd5b80633e6abf421461025657806340ca262a1461029557600080fd5b80630d67f59e116101555780630d67f59e1461020d57806310ac4633146102385780632456028b1461024e57600080fd5b806275c0791461017057806303c59f79146101f8575b600080fd5b61018361017e366004614270565b610445565b6040805160ff9e8f1681529c8e1660208e01529a8d169a8c019a909a529a90971660608a0152608089019590955292151560a088015260c087019190915260e08601526101008501526101208401526101408301526101608201929092526101808101919091526101a0015b60405180910390f35b6102006104c4565b6040516101ef9190614289565b600154610220906001600160a01b031681565b6040516001600160a01b0390911681526020016101ef565b610240606481565b6040519081526020016101ef565b61020061073c565b61026961026436600461436d565b610833565b604080516001600160a01b03909516855260ff90931660208501529183015260608201526080016101ef565b6102006102a33660046143ae565b610899565b6102bb6102b63660046143cb565b610bc9565b6040516101ef91906143e8565b600254610220906001600160a01b031681565b6102ee6102e936600461444b565b610ce0565b005b6102ee6102fe3660046144c4565b611548565b610240610311366004614520565b600760209081526000928352604080842090915290825290205481565b61024061033c366004614520565b600660209081526000928352604080842090915290825290205481565b6102006103673660046143ae565b6119b5565b61024061037a366004614559565b611c0f565b6102ee61038d366004614577565b611c40565b600054610220906001600160a01b031681565b600354610220906001600160a01b031681565b6102ee6103c63660046145c8565b612480565b6104166103d9366004614520565b60046020908152600092835260408084209091529082529020805460019091015460ff808316926101008104821692620100009091049091169084565b6040516101ef949392919060ff9485168152928416602084015292166040820152606081019190915260800190565b6008818154811061045557600080fd5b60009182526020909120600a9091020180546001820154600283015460038401546004850154600586015460068701546007880154600889015460099099015460ff808a169b506101008a0481169a620100008b0482169a63010000009004821699989091169695949392918d565b60606000806104d662093a8042614652565b6008549091505b8015610541578160086104f1600184614652565b8154811061050157610501614665565b90600052602060002090600a0201600101541061052a578261052281614694565b93505061052f565b610541565b80610539816146ae565b9150506104dd565b5060008267ffffffffffffffff81111561055d5761055d6146c5565b60405190808252806020026020018201604052801561060757816020015b6105f4604051806101a00160405280600060ff168152602001600060ff168152602001600060ff168152602001600060ff16815260200160008152602001600015158152602001600081526020016000815260200160008152602001600081526020016000815260200160008152602001600081525090565b81526020019060019003908161057b5790505b5090506000808460088054905061061e9190614652565b90505b600854811015610732576008818154811061063e5761063e614665565b6000918252602091829020604080516101a081018252600a909302909101805460ff80821685526101008083048216968601969096526201000082048116938501939093526301000000900482166060840152600181015460808401526002810154909116151560a0830152600381015460c0830152600481015460e0830152600581015492820192909252600682015461012082015260078201546101408201526008820154610160820152600990910154610180820152838361070281614694565b94508151811061071457610714614665565b6020026020010181905250808061072a90614694565b915050610621565b5090949350505050565b60606008805480602002602001604051908101604052809291908181526020016000905b8282101561082a576000848152602090819020604080516101a081018252600a8602909201805460ff808216855261010080830482168688015262010000830482169486019490945263010000009091048116606085015260018083015460808601526002830154909116151560a0850152600382015460c0850152600482015460e0850152600582015492840192909252600681015461012084015260078101546101408401526008810154610160840152600901546101808301529083529092019101610760565b50505050905090565b6005602052816000526040600020818154811061084f57600080fd5b60009182526020909120600390910201805460018201546002909201546001600160a01b03821694507401000000000000000000000000000000000000000090910460ff16925084565b6001600160a01b03811660009081526009602090815260408083208054825181850281018501909352808352606094938301828280156108f857602002820191906000526020600020905b8154815260200190600101908083116108e4575b5050505050905060008062093a80426109119190614652565b905060005b83518110156109835781600885838151811061093457610934614665565b60200260200101518154811061094c5761094c614665565b90600052602060002090600a02016001015410610971578261096d81614694565b9350505b8061097b81614694565b915050610916565b5060008267ffffffffffffffff81111561099f5761099f6146c5565b604051908082528060200260200182016040528015610a4957816020015b610a36604051806101a00160405280600060ff168152602001600060ff168152602001600060ff168152602001600060ff16815260200160008152602001600015158152602001600081526020016000815260200160008152602001600081526020016000815260200160008152602001600081525090565b8152602001906001900390816109bd5790505b5090506000805b8551811015610bbd57836008878381518110610a6e57610a6e614665565b602002602001015181548110610a8657610a86614665565b90600052602060002090600a02016001015410610bab576008868281518110610ab157610ab1614665565b602002602001015181548110610ac957610ac9614665565b6000918252602091829020604080516101a081018252600a909302909101805460ff80821685526101008083048216968601969096526201000082048116938501939093526301000000900482166060840152600181015460808401526002810154909116151560a0830152600381015460c0830152600481015460e08301526005810154928201929092526006820154610120820152600782015461014082015260088201546101608201526009909101546101808201528383610b8d81614694565b945081518110610b9f57610b9f614665565b60200260200101819052505b80610bb581614694565b915050610a50565b50909695505050505050565b606060018260ff1610158015610be3575060088260ff1611155b610c345760405162461bcd60e51b815260206004820152601560248201527f496e76616c6964207265736f757263652074797065000000000000000000000060448201526064015b60405180910390fd5b60ff8216600090815260056020908152604080832080548251818502810185019093528083529193909284015b82821015610cd5576000848152602090819020604080516080810182526003860290920180546001600160a01b038116845274010000000000000000000000000000000000000000900460ff1683850152600180820154928401929092526002015460608301529083529092019101610c61565b505050509050919050565b6002546040517f8a88895300000000000000000000000000000000000000000000000000000000815260ff8089166004830152871660248201528791879133916001600160a01b031690638a88895390604401602060405180830381865afa158015610d50573d6000803e3d6000fd5b505050506040513d601f19601f82011682018060405250810190610d7491906146f4565b6001600160a01b031614610dca5760405162461bcd60e51b815260206004820152601860248201527f596f7520646f206e6f74206f776e20746869732074696c6500000000000000006044820152606401610c2b565b6000546040517f5e75968e0000000000000000000000000000000000000000000000000000000081523360048201526001600160a01b0390911690635e75968e90602401602060405180830381865afa158015610e2b573d6000803e3d6000fd5b505050506040513d601f19601f82011682018060405250810190610e4f9190614711565b610e9b5760405162461bcd60e51b815260206004820152601660248201527f596f75206d75737420686176652061204d61726b6574000000000000000000006044820152606401610c2b565b6002546040517f8a88895300000000000000000000000000000000000000000000000000000000815260ff8089166004830152871660248201526000916001600160a01b031690638a88895390604401602060405180830381865afa158015610f08573d6000803e3d6000fd5b505050506040513d601f19601f82011682018060405250810190610f2c91906146f4565b90506001600160a01b038116610f845760405162461bcd60e51b815260206004820152601960248201527f5461726765742074696c6520697320756e6f63637570696564000000000000006044820152606401610c2b565b60018560ff1610158015610f9c575060088560ff1611155b610fe85760405162461bcd60e51b815260206004820152601560248201527f496e76616c6964207265736f75726365207479706500000000000000000000006044820152606401610c2b565b601e8410156110395760405162461bcd60e51b815260206004820152601460248201527f416d6f756e74206d757374206265203e3d2033300000000000000000000000006044820152606401610c2b565b60006110458988612986565b61104f8b8a612986565b6110599190614733565b905060008160ff16118015611072575060268160ff1611155b6110be5760405162461bcd60e51b815260206004820152601060248201527f496e76616c69642064697374616e6365000000000000000000000000000000006044820152606401610c2b565b6305f5e10060006110d260ff84168361474c565b6001546040517f23b872dd000000000000000000000000000000000000000000000000000000008152336004820152306024820152604481018390529192506001600160a01b0316906323b872dd906064016020604051808303816000875af1158015611143573d6000803e3d6000fd5b505050506040513d601f19601f820116820180604052508101906111679190614711565b6111b35760405162461bcd60e51b815260206004820152601760248201527f4c4f5020666565207472616e73666572206661696c65640000000000000000006044820152606401610c2b565b6001546040517f42966c68000000000000000000000000000000000000000000000000000000008152600481018390526001600160a01b03909116906342966c68906024016020604051808303816000875af1158015611217573d6000803e3d6000fd5b505050506040513d601f19601f8201168201806040525081019061123b9190614711565b6112875760405162461bcd60e51b815260206004820152600f60248201527f4c4f50206275726e206661696c656400000000000000000000000000000000006044820152606401610c2b565b6000601e6112988960ff871661474c565b6112a29190614763565b6000549091506001600160a01b0316633e5f28578e8e8c6112c3868e61479e565b6040517fffffffff0000000000000000000000000000000000000000000000000000000060e087901b16815260ff948516600482015292841660248401529216604482015260648101919091526000608482015260a401600060405180830381600087803b15801561133457600080fd5b505af1158015611348573d6000803e3d6000fd5b5050600054604051633e5f285760e01b81526001600160a01b039091169250633e5f285791506113ae908e908e908e908e9060019060040160ff958616815293851660208501529190931660408301526060820192909252901515608082015260a00190565b600060405180830381600087803b1580156113c857600080fd5b505af11580156113dc573d6000803e3d6000fd5b5050505060405180608001604052808e60ff1681526020018d60ff1681526020018a60ff16815260200189815250600460008d60ff1660ff16815260200190815260200160002060008c60ff1660ff16815260200190815260200160002060008201518160000160006101000a81548160ff021916908360ff16021790555060208201518160000160016101000a81548160ff021916908360ff16021790555060408201518160000160026101000a81548160ff021916908360ff1602179055506060820151816001015590505060008054906101000a90046001600160a01b03166001600160a01b0316639a4a20848c8c60016040518463ffffffff1660e01b81526004016115079392919060ff9384168152919092166020820152901515604082015260600190565b600060405180830381600087803b15801561152157600080fd5b505af1158015611535573d6000803e3d6000fd5b5050505050505050505050505050505050565b6002546040517f8a88895300000000000000000000000000000000000000000000000000000000815260ff8087166004830152851660248201528591859133916001600160a01b031690638a88895390604401602060405180830381865afa1580156115b8573d6000803e3d6000fd5b505050506040513d601f19601f820116820180604052508101906115dc91906146f4565b6001600160a01b0316146116325760405162461bcd60e51b815260206004820152601860248201527f596f7520646f206e6f74206f776e20746869732074696c6500000000000000006044820152606401610c2b565b6002546040517f8a88895300000000000000000000000000000000000000000000000000000000815260ff8087166004830152851660248201526000916001600160a01b031690638a88895390604401602060405180830381865afa15801561169f573d6000803e3d6000fd5b505050506040513d601f19601f820116820180604052508101906116c391906146f4565b90506001600160a01b03811661171b5760405162461bcd60e51b815260206004820152600b60248201527f4e6f20646566656e6465720000000000000000000000000000000000000000006044820152606401610c2b565b6117298787878733866129b7565b6117316140d3565b60ff88811680835288821660208401819052888316604080860191909152928816606085015260005492517fbd638378000000000000000000000000000000000000000000000000000000008152600481019290925260248201526001600160a01b039091169063bd638378906044016101e060405180830381865afa1580156117bf573d6000803e3d6000fd5b505050506040513d601f19601f820116820180604052508101906117e39190614824565b60808201526000546040517fbd63837800000000000000000000000000000000000000000000000000000000815260ff8089166004830152871660248201526001600160a01b039091169063bd638378906044016101e060405180830381865afa158015611855573d6000803e3d6000fd5b505050506040513d601f19601f820116820180604052508101906118799190614824565b60a082015260808101516101400151600a11156118fe5760405162461bcd60e51b815260206004820152602d60248201527f4e656564206174206c65617374203130206f6666656e7369766520736f6c646960448201527f65727320746f2061747461636b000000000000000000000000000000000000006064820152608401610c2b565b600061190a8887612986565b6119148a89612986565b61191e9190614733565b90506119308989838560800151612ec5565b61194482608001518360a0015189896131ce565b60e084015260c0830152600061195983613320565b905060008360e001518460c00151111561197957611976846135c2565b90505b611981614226565b8281526020810182905260e085015160c08601511160408201526119a785823389613728565b505050505050505050505050565b6001600160a01b0381166000908152600960209081526040808320805482518185028101850190935280835260609493830182828015611a1457602002820191906000526020600020905b815481526020019060010190808311611a00575b505050505090506000815167ffffffffffffffff811115611a3757611a376146c5565b604051908082528060200260200182016040528015611ae157816020015b611ace604051806101a00160405280600060ff168152602001600060ff168152602001600060ff168152602001600060ff16815260200160008152602001600015158152602001600081526020016000815260200160008152602001600081526020016000815260200160008152602001600081525090565b815260200190600190039081611a555790505b50905060005b8251811015611c07576008838281518110611b0457611b04614665565b602002602001015181548110611b1c57611b1c614665565b6000918252602091829020604080516101a081018252600a909302909101805460ff80821685526101008083048216968601969096526201000082048116938501939093526301000000900482166060840152600181015460808401526002810154909116151560a0830152600381015460c0830152600481015460e08301526005810154928201929092526006820154610120820152600782015461014082015260088201546101608201526009909101546101808201528251839083908110611be957611be9614665565b60200260200101819052508080611bff90614694565b915050611ae7565b509392505050565b60096020528160005260406000208181548110611c2b57600080fd5b90600052602060002001600091509150505481565b6002546040517f8a88895300000000000000000000000000000000000000000000000000000000815260ff8087166004830152851660248201528591859133916001600160a01b031690638a88895390604401602060405180830381865afa158015611cb0573d6000803e3d6000fd5b505050506040513d601f19601f82011682018060405250810190611cd491906146f4565b6001600160a01b031614611d2a5760405162461bcd60e51b815260206004820152601860248201527f596f7520646f206e6f74206f776e20746869732074696c6500000000000000006044820152606401610c2b565b6000546040517f5e75968e0000000000000000000000000000000000000000000000000000000081523360048201526001600160a01b0390911690635e75968e90602401602060405180830381865afa158015611d8b573d6000803e3d6000fd5b505050506040513d601f19601f82011682018060405250810190611daf9190614711565b611dfb5760405162461bcd60e51b815260206004820152601660248201527f596f75206d75737420686176652061204d61726b6574000000000000000000006044820152606401610c2b565b60ff84166000908152600560205260409020548310611e5c5760405162461bcd60e51b815260206004820152600d60248201527f496e76616c696420696e646578000000000000000000000000000000000000006044820152606401610c2b565b60018460ff1610158015611e74575060088460ff1611155b611ec05760405162461bcd60e51b815260206004820152601560248201527f496e76616c6964207265736f75726365207479706500000000000000000000006044820152606401610c2b565b60ff84166000908152600560205260408120805485908110611ee457611ee4614665565b600091825260208083206040805160808101825260039490940290910180546001600160a01b0381168086527401000000000000000000000000000000000000000090910460ff1693850193909352600181015491840182905260020154606084018190529294509192606e611f5b85606461474c565b611f659190614763565b90506000611f738286614652565b6001546040517f23b872dd000000000000000000000000000000000000000000000000000000008152336004820152306024820152604481018890529192506001600160a01b0316906323b872dd906064016020604051808303816000875af1158015611fe4573d6000803e3d6000fd5b505050506040513d601f19601f820116820180604052508101906120089190614711565b61207a5760405162461bcd60e51b815260206004820152602160248201527f546f6b656e207472616e7366657220746f20636f6e7472616374206661696c6560448201527f64000000000000000000000000000000000000000000000000000000000000006064820152608401610c2b565b6001546040517fa9059cbb0000000000000000000000000000000000000000000000000000000081526001600160a01b038581166004830152602482018590529091169063a9059cbb906044016020604051808303816000875af11580156120e6573d6000803e3d6000fd5b505050506040513d601f19601f8201168201806040525081019061210a9190614711565b6121565760405162461bcd60e51b815260206004820152601960248201527f5472616e7366657220746f2073656c6c6572206661696c6564000000000000006044820152606401610c2b565b6001546040517f42966c68000000000000000000000000000000000000000000000000000000008152600481018390526001600160a01b03909116906342966c68906024016020604051808303816000875af11580156121ba573d6000803e3d6000fd5b505050506040513d601f19601f820116820180604052508101906121de9190614711565b61222a5760405162461bcd60e51b815260206004820152600f60248201527f4c4f50206275726e206661696c656400000000000000000000000000000000006044820152606401610c2b565b600054604051633e5f285760e01b815260ff808f166004830152808e1660248301528c16604482015260648101869052600160848201526001600160a01b0390911690633e5f28579060a401600060405180830381600087803b15801561229057600080fd5b505af11580156122a4573d6000803e3d6000fd5b5050505060ff8a16600090815260056020526040902080546122c890600190614652565b815481106122d8576122d8614665565b9060005260206000209060030201600560008c60ff1660ff1681526020019081526020016000208a8154811061231057612310614665565b6000918252602080832084546003939093020180546001600160a01b039093167fffffffffffffffffffffffff000000000000000000000000000000000000000084168117825585547fffffffffffffffffffffff00000000000000000000000000000000000000000090941617740100000000000000000000000000000000000000009384900460ff908116909402178155600180860154908201556002948501549401939093558c1681526005909152604090208054806123d5576123d56148f4565b60008281526020812060036000199093019283020180547fffffffffffffffffffffff0000000000000000000000000000000000000000001681556001810182905560020155905560405160ff8b16906001600160a01b0385169033907fcb8e9dce1a8c67703d11d2b78043345960bab3c035aa061005630270b28c89ec9061246a9089908b90918252602082015260400190565b60405180910390a4505050505050505050505050565b6002546040517f8a88895300000000000000000000000000000000000000000000000000000000815260ff8088166004830152861660248201528691869133916001600160a01b031690638a88895390604401602060405180830381865afa1580156124f0573d6000803e3d6000fd5b505050506040513d601f19601f8201168201806040525081019061251491906146f4565b6001600160a01b03161461256a5760405162461bcd60e51b815260206004820152601860248201527f596f7520646f206e6f74206f776e20746869732074696c6500000000000000006044820152606401610c2b565b6000546040517f5e75968e0000000000000000000000000000000000000000000000000000000081523360048201526001600160a01b0390911690635e75968e90602401602060405180830381865afa1580156125cb573d6000803e3d6000fd5b505050506040513d601f19601f820116820180604052508101906125ef9190614711565b61263b5760405162461bcd60e51b815260206004820152601660248201527f596f75206d75737420686176652061204d61726b6574000000000000000000006044820152606401610c2b565b6298968083101561268e5760405162461bcd60e51b815260206004820152601e60248201527f5072696365206d7573742062652067726561746572207468616e2074656e00006044820152606401610c2b565b60018560ff16101580156126a6575060088560ff1611155b6126f25760405162461bcd60e51b815260206004820152601560248201527f496e76616c6964207265736f75726365207479706500000000000000000000006044820152606401610c2b565b60048560ff161161276457612710841015801561271357506305f5e1008411155b61275f5760405162461bcd60e51b815260206004820152601b60248201527f496e76616c696420616d6f756e7420666f72207265736f7572636500000000006044820152606401610c2b565b6127e9565b6064841015801561277757506127108411155b6127e95760405162461bcd60e51b815260206004820152602560248201527f496e76616c696420616d6f756e7420666f72206d696c6974617279206571756960448201527f706d656e740000000000000000000000000000000000000000000000000000006064820152608401610c2b565b60008054604051633e5f285760e01b815260ff808b166004830152808a166024830152881660448201526064810187905260848101929092526001600160a01b031690633e5f28579060a401600060405180830381600087803b15801561284f57600080fd5b505af1158015612863573d6000803e3d6000fd5b505050506000600a846128769190614763565b612880908561479e565b60ff80881660008181526005602090815260408083208151608081018352338082528185018781528285018f8152606084018b8152855460018181018855968a5297909820935160039097029093018054915190991674010000000000000000000000000000000000000000027fffffffffffffffffffffff0000000000000000000000000000000000000000009091166001600160a01b0396909616959095179490941787555190860155915160029094019390935551929350917f9d2fa11e70f4c72f4275d772a6e09bbd83b3800a6b4f2351a7ac06df8db5169e906129749089908990918252602082015260400190565b60405180910390a35050505050505050565b60008160ff168360ff16116129a45761299f8383614923565b6129ae565b6129ae8284614923565b90505b92915050565b816001600160a01b0316816001600160a01b031603612a185760405162461bcd60e51b815260206004820152601560248201527f43616e27742061747461636b20796f757273656c6600000000000000000000006044820152606401610c2b565b6003546040517f7ab9e7fe00000000000000000000000000000000000000000000000000000000815260ff8089166004830152871660248201526000916001600160a01b031690637ab9e7fe90604401602060405180830381865afa158015612a85573d6000803e3d6000fd5b505050506040513d601f19601f82011682018060405250810190612aa9919061493c565b6003546040517f7ab9e7fe00000000000000000000000000000000000000000000000000000000815260ff8089166004830152871660248201529192506000916001600160a01b0390911690637ab9e7fe90604401602060405180830381865afa158015612b1b573d6000803e3d6000fd5b505050506040513d601f19601f82011682018060405250810190612b3f919061493c565b905060ff82161580612b52575060ff8116155b80612b6357508060ff168260ff1614155b612bd55760405162461bcd60e51b815260206004820152602760248201527f43616e6e6f742061747461636b2061206d656d626572206f6620796f7572206f60448201527f776e20636c616e000000000000000000000000000000000000000000000000006064820152608401610c2b565b6000612be18887612986565b612beb8a89612986565b612bf59190614733565b905060008160ff16118015612c0e575060268160ff1611155b612c5a5760405162461bcd60e51b815260206004820152601b60248201527f54617267657420746f6f20666172206f722073616d652074696c6500000000006044820152606401610c2b565b60ff808a166000908152600660209081526040808320938c1683529290522054612c869061012c61479e565b6000546040517f41ede44f00000000000000000000000000000000000000000000000000000000815260ff808d1660048301528b1660248201526001600160a01b03909116906341ede44f90604401602060405180830381865afa158015612cf2573d6000803e3d6000fd5b505050506040513d601f19601f82011682018060405250810190612d169190614959565b1015612d8a5760405162461bcd60e51b815260206004820152602260248201527f4e6f7420656e6f756768207475726e732073696e6365206c617374206174746160448201527f636b0000000000000000000000000000000000000000000000000000000000006064820152608401610c2b565b60ff8088166000908152600760209081526040808320938a1683529290522054612db69061012c61479e565b6000546040517f41ede44f00000000000000000000000000000000000000000000000000000000815260ff808b166004830152891660248201526001600160a01b03909116906341ede44f90604401602060405180830381865afa158015612e22573d6000803e3d6000fd5b505050506040513d601f19601f82011682018060405250810190612e469190614959565b1015612eba5760405162461bcd60e51b815260206004820152602560248201527f446566656e64657220697320756e64657220636f6f6c646f776e2070726f746560448201527f6374696f6e0000000000000000000000000000000000000000000000000000006064820152608401610c2b565b505050505050505050565b6000816101600151826101400151612edd919061479e565b612eeb60ff8516606461474c565b612ef5919061474c565b6000549091506001600160a01b0316633e5f2857868660016064612f1a87602861474c565b612f249190614763565b6040517fffffffff0000000000000000000000000000000000000000000000000000000060e087901b16815260ff948516600482015292841660248401529216604482015260648101919091526000608482015260a401600060405180830381600087803b158015612f9557600080fd5b505af1158015612fa9573d6000803e3d6000fd5b50506000546001600160a01b03169150633e5f28579050868660026064612fd187601e61474c565b612fdb9190614763565b6040517fffffffff0000000000000000000000000000000000000000000000000000000060e087901b16815260ff948516600482015292841660248401529216604482015260648101919091526000608482015260a401600060405180830381600087803b15801561304c57600080fd5b505af1158015613060573d6000803e3d6000fd5b50506000546001600160a01b03169150633e5f2857905086866003606461308887601461474c565b6130929190614763565b6040517fffffffff0000000000000000000000000000000000000000000000000000000060e087901b16815260ff948516600482015292841660248401529216604482015260648101919091526000608482015260a401600060405180830381600087803b15801561310357600080fd5b505af1158015613117573d6000803e3d6000fd5b50506000546001600160a01b03169150633e5f2857905086866004606461313f87600a61474c565b6131499190614763565b6040517fffffffff0000000000000000000000000000000000000000000000000000000060e087901b16815260ff948516600482015292841660248401529216604482015260648101919091526000608482015260a401600060405180830381600087803b1580156131ba57600080fd5b505af1158015612eba573d6000803e3d6000fd5b600080546040517f2a490ae800000000000000000000000000000000000000000000000000000000815260ff808616600483015284166024820152829182916001600160a01b0390911690632a490ae890604401602060405180830381865afa15801561323f573d6000803e3d6000fd5b505050506040513d601f19601f820116820180604052508101906132639190614959565b90506000876080015161ffff1688610180015160ff168961016001518a61014001516002613291919061474c565b61329b919061479e565b6132a5919061479e565b6132af919061479e565b905060006132be83606461474c565b886080015161ffff16896101a0015160ff168a610160015160026132e2919061474c565b8b61014001516132f2919061479e565b6132fc919061479e565b613306919061479e565b613310919061479e565b9199919850909650505050505050565b61334b6040518060800160405280600081526020016000815260200160008152602001600081525090565b600061336983608001518460a001518560c001518660e00151613cf5565b8051909150156133fa5760008054845160208601518451604051633e5f285760e01b815260ff938416600482015292909116602483015260096044830152606482015260848101929092526001600160a01b031690633e5f28579060a401600060405180830381600087803b1580156133e157600080fd5b505af11580156133f5573d6000803e3d6000fd5b505050505b60208101511561348e5760008054845160208087015190850151604051633e5f285760e01b815260ff9384166004820152929091166024830152600a6044830152606482015260848101929092526001600160a01b031690633e5f28579060a401600060405180830381600087803b15801561347557600080fd5b505af1158015613489573d6000803e3d6000fd5b505050505b60408101511561352557600080546040858101516060870151858301519251633e5f285760e01b815260ff92831660048201529116602482015260096044820152606481019190915260848101929092526001600160a01b031690633e5f28579060a401600060405180830381600087803b15801561350c57600080fd5b505af1158015613520573d6000803e3d6000fd5b505050505b6060810151156129b15760008054604085810151606080880151908601519251633e5f285760e01b815260ff928316600482015291166024820152600a6044820152606481019190915260848101929092526001600160a01b031690633e5f28579060a401600060405180830381600087803b1580156135a457600080fd5b505af11580156135b8573d6000803e3d6000fd5b5050505092915050565b6000808260e001518360c00151116135ed578260c001518360e001516135e89190614652565b613601565b8260e001518360c001516136019190614652565b905060008360e001518460c00151613619919061479e565b905060008161362984606461474c565b6136339190614763565b9050600061364e61364583601e61479e565b600a603c613f3f565b905061367860018760a0015160000151886000015189602001518a604001518b6060015187613f69565b613682908661479e565b94506136ac60028760a0015160200151886000015189602001518a604001518b6060015187613f69565b6136b6908661479e565b94506136e060038760a0015160400151886000015189602001518a604001518b6060015187613f69565b6136ea908661479e565b945061371460048760a0015160600151886000015189602001518a604001518b6060015187613f69565b61371e908661479e565b9695505050505050565b600054845160208601516040517f41ede44f00000000000000000000000000000000000000000000000000000000815260ff9283166004820152911660248201526001600160a01b03909116906341ede44f90604401602060405180830381865afa15801561379b573d6000803e3d6000fd5b505050506040513d601f19601f820116820180604052508101906137bf9190614959565b845160ff9081166000908152600660209081526040808320828a015185168452909152808220939093555482870151606088015193517f41ede44f00000000000000000000000000000000000000000000000000000000815290831660048201529290911660248301526001600160a01b0316906341ede44f90604401602060405180830381865afa158015613859573d6000803e3d6000fd5b505050506040513d601f19601f8201168201806040525081019061387d9190614959565b60408581015160ff90811660009081526007602090815283822060608a0151841683528152838220949094555487519388015192517f7659bc600000000000000000000000000000000000000000000000000000000081529382166004850152911660248301526001600160a01b031690637659bc6090604401600060405180830381600087803b15801561391157600080fd5b505af1158015613925573d6000803e3d6000fd5b5050600054604087810151606089015191517f7659bc6000000000000000000000000000000000000000000000000000000000815260ff9182166004820152911660248201526001600160a01b039091169250637659bc609150604401600060405180830381600087803b15801561399c57600080fd5b505af11580156139b0573d6000803e3d6000fd5b5050505060008460e001518560c001511190506008604051806101a00160405280876000015160ff168152602001876020015160ff168152602001876040015160ff168152602001876060015160ff1681526020014281526020018660400151151581526020018760800151610160015188608001516101400151613a35919061479e565b815286516020818101519151920191613a4e919061479e565b81526020018760c0015181526020018760a0015161016001518860a001516101400151613a7b919061479e565b8152602001866000015160600151876000015160400151613a9c919061479e565b815260e0888101516020808401919091528881015160409384015284546001808201875560009687528287208651600a909302018054878501518888015160608a015160ff9687167fffffffffffffffffffffffffffffffffffffffffffffffffffffffffffff0000909416939093176101009287168302177fffffffffffffffffffffffffffffffffffffffffffffffffffffffff0000ffff1662010000918716919091027fffffffffffffffffffffffffffffffffffffffffffffffffffffffff00ffffff16176301000000959092169490940217815560808701518183015560a08701516002820180547fffffffffffffffffffffffffffffffffffffffffffffffffffffffffffffff001691151591909117905560c0870151600382015593860151600485015590850151600584015561012085015160068401556101408501516007840155610160850151600880850191909155610180909501516009938401556001600160a01b0389168652919052922090549091613c2091614652565b81546001818101845560009384526020808520909201929092556001600160a01b03851683526009905260409091206008549091613c5d91614652565b8154600181018355600092835260209283902001558551868201516040808901516060808b0151835160ff96871681529486169685019690965290841691830191909152919092169082015281151560808201526001600160a01b0383811691908516907f47389018a4bfd5e1ef612f1fe9082cc3e3675be36e77743a6bfaf0ea011d586f9060a00160405180910390a35050505050565b613d206040518060800160405280600081526020016000815260200160008152602001600081525090565b6000828411613d3857613d338484614652565b613d42565b613d428385614652565b90506000613d50848661479e565b9050600081613d6084606461474c565b613d6a9190614763565b905084861115613e63576064613d9f6002613d858484614652565b613d8f9190614763565b613d9a90601961479e565b614097565b896101400151613daf919061474c565b613db99190614763565b84526064613de16004613dcc8484614652565b613dd69190614763565b613d9a90600a61479e565b896101600151613df1919061474c565b613dfb9190614763565b60208501526064613e10613d9a83603261479e565b886101400151613e20919061474c565b613e2a9190614763565b60408501526064613e3f613d9a83603261479e565b886101600151613e4f919061474c565b613e599190614763565b6060850152613f34565b6064613e73613d9a83603261479e565b896101400151613e83919061474c565b613e8d9190614763565b84526064613e9f613d8f600284614763565b896101600151613eaf919061474c565b613eb99190614763565b60208501526064613ee46004613ecf8484614652565b613ed99190614763565b613d9a90600f61479e565b886101400151613ef4919061474c565b613efe9190614763565b60408501526064613f146004613dcc8484614652565b886101600151613f24919061474c565b613f2e9190614763565b60608501525b505050949350505050565b600082841015613f50575081613f62565b81841115613f5f575080613f62565b50825b9392505050565b6000600187111561408c576064613f80838961474c565b613f8a9190614763565b60008054604051633e5f285760e01b815260ff808916600483015280881660248301528c1660448201526064810184905260848101929092529192506001600160a01b0390911690633e5f28579060a401600060405180830381600087803b158015613ff557600080fd5b505af1158015614009573d6000803e3d6000fd5b5050600054604051633e5f285760e01b815260ff808b166004830152808a1660248301528c16604482015260648101859052600160848201526001600160a01b039091169250633e5f2857915060a401600060405180830381600087803b15801561407357600080fd5b505af1158015614087573d6000803e3d6000fd5b505050505b979650505050505050565b60006129b16140a783600a6140ae565b605a6140c4565b60008183116140bd57816129ae565b5090919050565b60008183106140bd57816129ae565b604051806101000160405280600060ff168152602001600060ff168152602001600060ff168152602001600060ff16815260200161418a604051806101e0016040528060008152602001600081526020016000815260200160008152602001600061ffff16815260200160008152602001600081526020016000815260200160008152602001600081526020016000815260200160008152602001600060ff168152602001600060ff168152602001600081525090565b8152602001614212604051806101e0016040528060008152602001600081526020016000815260200160008152602001600061ffff16815260200160008152602001600081526020016000815260200160008152602001600081526020016000815260200160008152602001600060ff168152602001600060ff168152602001600081525090565b815260200160008152602001600081525090565b604051806060016040528061425c6040518060800160405280600081526020016000815260200160008152602001600081525090565b815260006020820181905260409091015290565b60006020828403121561428257600080fd5b5035919050565b602080825282518282018190526000919060409081850190868401855b8281101561434e578151805160ff90811686528782015181168887015286820151811687870152606080830151909116908601526080808201519086015260a08082015115159086015260c0808201519086015260e08082015190860152610100808201519086015261012080820151908601526101408082015190860152610160808201519086015261018090810151908501526101a090930192908501906001016142a6565b5091979650505050505050565b60ff8116811461436a57600080fd5b50565b6000806040838503121561438057600080fd5b823561438b8161435b565b946020939093013593505050565b6001600160a01b038116811461436a57600080fd5b6000602082840312156143c057600080fd5b8135613f6281614399565b6000602082840312156143dd57600080fd5b8135613f628161435b565b602080825282518282018190526000919060409081850190868401855b8281101561434e57815180516001600160a01b031685528681015160ff168786015285810151868601526060908101519085015260809093019290850190600101614405565b60008060008060008060c0878903121561446457600080fd5b863561446f8161435b565b9550602087013561447f8161435b565b9450604087013561448f8161435b565b9350606087013561449f8161435b565b925060808701356144af8161435b565b8092505060a087013590509295509295509295565b600080600080608085870312156144da57600080fd5b84356144e58161435b565b935060208501356144f58161435b565b925060408501356145058161435b565b915060608501356145158161435b565b939692955090935050565b6000806040838503121561453357600080fd5b823561453e8161435b565b9150602083013561454e8161435b565b809150509250929050565b6000806040838503121561456c57600080fd5b823561438b81614399565b6000806000806080858703121561458d57600080fd5b84356145988161435b565b935060208501356145a88161435b565b925060408501356145b88161435b565b9396929550929360600135925050565b600080600080600060a086880312156145e057600080fd5b85356145eb8161435b565b945060208601356145fb8161435b565b9350604086013561460b8161435b565b94979396509394606081013594506080013592915050565b7f4e487b7100000000000000000000000000000000000000000000000000000000600052601160045260246000fd5b818103818111156129b1576129b1614623565b7f4e487b7100000000000000000000000000000000000000000000000000000000600052603260045260246000fd5b600060001982036146a7576146a7614623565b5060010190565b6000816146bd576146bd614623565b506000190190565b7f4e487b7100000000000000000000000000000000000000000000000000000000600052604160045260246000fd5b60006020828403121561470657600080fd5b8151613f6281614399565b60006020828403121561472357600080fd5b81518015158114613f6257600080fd5b60ff81811683821601908111156129b1576129b1614623565b80820281158282048414176129b1576129b1614623565b600082614799577f4e487b7100000000000000000000000000000000000000000000000000000000600052601260045260246000fd5b500490565b808201808211156129b1576129b1614623565b6040516101e0810167ffffffffffffffff811182821017156147fc577f4e487b7100000000000000000000000000000000000000000000000000000000600052604160045260246000fd5b60405290565b805161ffff8116811461481457600080fd5b919050565b80516148148161435b565b60006101e0828403121561483757600080fd5b61483f6147b1565b8251815260208301516020820152604083015160408201526060830151606082015261486d60808401614802565b608082015260a0838101519082015260c0808401519082015260e0808401519082015261010080840151908201526101208084015190820152610140808401519082015261016080840151908201526101806148ca818501614819565b908201526101a06148dc848201614819565b908201526101c0928301519281019290925250919050565b7f4e487b7100000000000000000000000000000000000000000000000000000000600052603160045260246000fd5b60ff82811682821603908111156129b1576129b1614623565b60006020828403121561494e57600080fd5b8151613f628161435b565b60006020828403121561496b57600080fd5b505191905056fea2646970667358221220f62ead55fb74243de2b688d52fe92ac77f356f3c4465c04e0790d2b9db2a478964736f6c63430008120033",
			"opcodes": "PUSH1 0x80 PUSH1 0x40 MSTORE CALLVALUE DUP1 ISZERO PUSH3 0x11 JUMPI PUSH1 0x0 DUP1 REVERT JUMPDEST POP PUSH1 0x40 MLOAD PUSH3 0x4ABA CODESIZE SUB DUP1 PUSH3 0x4ABA DUP4 CODECOPY DUP2 ADD PUSH1 0x40 DUP2 SWAP1 MSTORE PUSH3 0x34 SWAP2 PUSH3 0xA5 JUMP JUMPDEST PUSH1 0x0 DUP1 SLOAD PUSH1 0x1 PUSH1 0x1 PUSH1 0xA0 SHL SUB SWAP6 DUP7 AND PUSH1 0x1 PUSH1 0x1 PUSH1 0xA0 SHL SUB NOT SWAP2 DUP3 AND OR SWAP1 SWAP2 SSTORE PUSH1 0x1 DUP1 SLOAD SWAP5 DUP7 AND SWAP5 DUP3 AND SWAP5 SWAP1 SWAP5 OR SWAP1 SWAP4 SSTORE PUSH1 0x2 DUP1 SLOAD SWAP3 DUP6 AND SWAP3 DUP5 AND SWAP3 SWAP1 SWAP3 OR SWAP1 SWAP2 SSTORE PUSH1 0x3 DUP1 SLOAD SWAP2 SWAP1 SWAP4 AND SWAP2 AND OR SWAP1 SSTORE PUSH3 0x102 JUMP JUMPDEST DUP1 MLOAD PUSH1 0x1 PUSH1 0x1 PUSH1 0xA0 SHL SUB DUP2 AND DUP2 EQ PUSH3 0xA0 JUMPI PUSH1 0x0 DUP1 REVERT JUMPDEST SWAP2 SWAP1 POP JUMP JUMPDEST PUSH1 0x0 DUP1 PUSH1 0x0 DUP1 PUSH1 0x80 DUP6 DUP8 SUB SLT ISZERO PUSH3 0xBC JUMPI PUSH1 0x0 DUP1 REVERT JUMPDEST PUSH3 0xC7 DUP6 PUSH3 0x88 JUMP JUMPDEST SWAP4 POP PUSH3 0xD7 PUSH1 0x20 DUP7 ADD PUSH3 0x88 JUMP JUMPDEST SWAP3 POP PUSH3 0xE7 PUSH1 0x40 DUP7 ADD PUSH3 0x88 JUMP JUMPDEST SWAP2 POP PUSH3 0xF7 PUSH1 0x60 DUP7 ADD PUSH3 0x88 JUMP JUMPDEST SWAP1 POP SWAP3 SWAP6 SWAP2 SWAP5 POP SWAP3 POP JUMP JUMPDEST PUSH2 0x49A8 DUP1 PUSH3 0x112 PUSH1 0x0 CODECOPY PUSH1 0x0 RETURN INVALID PUSH1 0x80 PUSH1 0x40 MSTORE CALLVALUE DUP1 ISZERO PUSH2 0x10 JUMPI PUSH1 0x0 DUP1 REVERT JUMPDEST POP PUSH1 0x4 CALLDATASIZE LT PUSH2 0x16B JUMPI PUSH1 0x0 CALLDATALOAD PUSH1 0xE0 SHR DUP1 PUSH4 0x697E71D2 GT PUSH2 0xCD JUMPI DUP1 PUSH4 0x999A2F7A GT PUSH2 0x81 JUMPI DUP1 PUSH4 0xC49443AC GT PUSH2 0x66 JUMPI DUP1 PUSH4 0xC49443AC EQ PUSH2 0x3A5 JUMPI DUP1 PUSH4 0xCA030079 EQ PUSH2 0x3B8 JUMPI DUP1 PUSH4 0xE450909A EQ PUSH2 0x3CB JUMPI PUSH1 0x0 DUP1 REVERT JUMPDEST DUP1 PUSH4 0x999A2F7A EQ PUSH2 0x37F JUMPI DUP1 PUSH4 0xB0D77774 EQ PUSH2 0x392 JUMPI PUSH1 0x0 DUP1 REVERT JUMPDEST DUP1 PUSH4 0x763540CD GT PUSH2 0xB2 JUMPI DUP1 PUSH4 0x763540CD EQ PUSH2 0x32E JUMPI DUP1 PUSH4 0x8972AE26 EQ PUSH2 0x359 JUMPI DUP1 PUSH4 0x8E9197B4 EQ PUSH2 0x36C JUMPI PUSH1 0x0 DUP1 REVERT JUMPDEST DUP1 PUSH4 0x697E71D2 EQ PUSH2 0x2F0 JUMPI DUP1 PUSH4 0x70D27E41 EQ PUSH2 0x303 JUMPI PUSH1 0x0 DUP1 REVERT JUMPDEST DUP1 PUSH4 0x3E6ABF42 GT PUSH2 0x124 JUMPI DUP1 PUSH4 0x4B4D9F89 GT PUSH2 0x109 JUMPI DUP1 PUSH4 0x4B4D9F89 EQ PUSH2 0x2A8 JUMPI DUP1 PUSH4 0x4F264B03 EQ PUSH2 0x2C8 JUMPI DUP1 PUSH4 0x54ADAC10 EQ PUSH2 0x2DB JUMPI PUSH1 0x0 DUP1 REVERT JUMPDEST DUP1 PUSH4 0x3E6ABF42 EQ PUSH2 0x256 JUMPI DUP1 PUSH4 0x40CA262A EQ PUSH2 0x295 JUMPI PUSH1 0x0 DUP1 REVERT JUMPDEST DUP1 PUSH4 0xD67F59E GT PUSH2 0x155 JUMPI DUP1 PUSH4 0xD67F59E EQ PUSH2 0x20D JUMPI DUP1 PUSH4 0x10AC4633 EQ PUSH2 0x238 JUMPI DUP1 PUSH4 0x2456028B EQ PUSH2 0x24E JUMPI PUSH1 0x0 DUP1 REVERT JUMPDEST DUP1 PUSH3 0x75C079 EQ PUSH2 0x170 JUMPI DUP1 PUSH4 0x3C59F79 EQ PUSH2 0x1F8 JUMPI JUMPDEST PUSH1 0x0 DUP1 REVERT JUMPDEST PUSH2 0x183 PUSH2 0x17E CALLDATASIZE PUSH1 0x4 PUSH2 0x4270 JUMP JUMPDEST PUSH2 0x445 JUMP JUMPDEST PUSH1 0x40 DUP1 MLOAD PUSH1 0xFF SWAP15 DUP16 AND DUP2 MSTORE SWAP13 DUP15 AND PUSH1 0x20 DUP15 ADD MSTORE SWAP11 DUP14 AND SWAP11 DUP13 ADD SWAP11 SWAP1 SWAP11 MSTORE SWAP11 SWAP1 SWAP8 AND PUSH1 0x60 DUP11 ADD MSTORE PUSH1 0x80 DUP10 ADD SWAP6 SWAP1 SWAP6 MSTORE SWAP3 ISZERO ISZERO PUSH1 0xA0 DUP9 ADD MSTORE PUSH1 0xC0 DUP8 ADD SWAP2 SWAP1 SWAP2 MSTORE PUSH1 0xE0 DUP7 ADD MSTORE PUSH2 0x100 DUP6 ADD MSTORE PUSH2 0x120 DUP5 ADD MSTORE PUSH2 0x140 DUP4 ADD MSTORE PUSH2 0x160 DUP3 ADD SWAP3 SWAP1 SWAP3 MSTORE PUSH2 0x180 DUP2 ADD SWAP2 SWAP1 SWAP2 MSTORE PUSH2 0x1A0 ADD JUMPDEST PUSH1 0x40 MLOAD DUP1 SWAP2 SUB SWAP1 RETURN JUMPDEST PUSH2 0x200 PUSH2 0x4C4 JUMP JUMPDEST PUSH1 0x40 MLOAD PUSH2 0x1EF SWAP2 SWAP1 PUSH2 0x4289 JUMP JUMPDEST PUSH1 0x1 SLOAD PUSH2 0x220 SWAP1 PUSH1 0x1 PUSH1 0x1 PUSH1 0xA0 SHL SUB AND DUP2 JUMP JUMPDEST PUSH1 0x40 MLOAD PUSH1 0x1 PUSH1 0x1 PUSH1 0xA0 SHL SUB SWAP1 SWAP2 AND DUP2 MSTORE PUSH1 0x20 ADD PUSH2 0x1EF JUMP JUMPDEST PUSH2 0x240 PUSH1 0x64 DUP2 JUMP JUMPDEST PUSH1 0x40 MLOAD SWAP1 DUP2 MSTORE PUSH1 0x20 ADD PUSH2 0x1EF JUMP JUMPDEST PUSH2 0x200 PUSH2 0x73C JUMP JUMPDEST PUSH2 0x269 PUSH2 0x264 CALLDATASIZE PUSH1 0x4 PUSH2 0x436D JUMP JUMPDEST PUSH2 0x833 JUMP JUMPDEST PUSH1 0x40 DUP1 MLOAD PUSH1 0x1 PUSH1 0x1 PUSH1 0xA0 SHL SUB SWAP1 SWAP6 AND DUP6 MSTORE PUSH1 0xFF SWAP1 SWAP4 AND PUSH1 0x20 DUP6 ADD MSTORE SWAP2 DUP4 ADD MSTORE PUSH1 0x60 DUP3 ADD MSTORE PUSH1 0x80 ADD PUSH2 0x1EF JUMP JUMPDEST PUSH2 0x200 PUSH2 0x2A3 CALLDATASIZE PUSH1 0x4 PUSH2 0x43AE JUMP JUMPDEST PUSH2 0x899 JUMP JUMPDEST PUSH2 0x2BB PUSH2 0x2B6 CALLDATASIZE PUSH1 0x4 PUSH2 0x43CB JUMP JUMPDEST PUSH2 0xBC9 JUMP JUMPDEST PUSH1 0x40 MLOAD PUSH2 0x1EF SWAP2 SWAP1 PUSH2 0x43E8 JUMP JUMPDEST PUSH1 0x2 SLOAD PUSH2 0x220 SWAP1 PUSH1 0x1 PUSH1 0x1 PUSH1 0xA0 SHL SUB AND DUP2 JUMP JUMPDEST PUSH2 0x2EE PUSH2 0x2E9 CALLDATASIZE PUSH1 0x4 PUSH2 0x444B JUMP JUMPDEST PUSH2 0xCE0 JUMP JUMPDEST STOP JUMPDEST PUSH2 0x2EE PUSH2 0x2FE CALLDATASIZE PUSH1 0x4 PUSH2 0x44C4 JUMP JUMPDEST PUSH2 0x1548 JUMP JUMPDEST PUSH2 0x240 PUSH2 0x311 CALLDATASIZE PUSH1 0x4 PUSH2 0x4520 JUMP JUMPDEST PUSH1 0x7 PUSH1 0x20 SWAP1 DUP2 MSTORE PUSH1 0x0 SWAP3 DUP4 MSTORE PUSH1 0x40 DUP1 DUP5 KECCAK256 SWAP1 SWAP2 MSTORE SWAP1 DUP3 MSTORE SWAP1 KECCAK256 SLOAD DUP2 JUMP JUMPDEST PUSH2 0x240 PUSH2 0x33C CALLDATASIZE PUSH1 0x4 PUSH2 0x4520 JUMP JUMPDEST PUSH1 0x6 PUSH1 0x20 SWAP1 DUP2 MSTORE PUSH1 0x0 SWAP3 DUP4 MSTORE PUSH1 0x40 DUP1 DUP5 KECCAK256 SWAP1 SWAP2 MSTORE SWAP1 DUP3 MSTORE SWAP1 KECCAK256 SLOAD DUP2 JUMP JUMPDEST PUSH2 0x200 PUSH2 0x367 CALLDATASIZE PUSH1 0x4 PUSH2 0x43AE JUMP JUMPDEST PUSH2 0x19B5 JUMP JUMPDEST PUSH2 0x240 PUSH2 0x37A CALLDATASIZE PUSH1 0x4 PUSH2 0x4559 JUMP JUMPDEST PUSH2 0x1C0F JUMP JUMPDEST PUSH2 0x2EE PUSH2 0x38D CALLDATASIZE PUSH1 0x4 PUSH2 0x4577 JUMP JUMPDEST PUSH2 0x1C40 JUMP JUMPDEST PUSH1 0x0 SLOAD PUSH2 0x220 SWAP1 PUSH1 0x1 PUSH1 0x1 PUSH1 0xA0 SHL SUB AND DUP2 JUMP JUMPDEST PUSH1 0x3 SLOAD PUSH2 0x220 SWAP1 PUSH1 0x1 PUSH1 0x1 PUSH1 0xA0 SHL SUB AND DUP2 JUMP JUMPDEST PUSH2 0x2EE PUSH2 0x3C6 CALLDATASIZE PUSH1 0x4 PUSH2 0x45C8 JUMP JUMPDEST PUSH2 0x2480 JUMP JUMPDEST PUSH2 0x416 PUSH2 0x3D9 CALLDATASIZE PUSH1 0x4 PUSH2 0x4520 JUMP JUMPDEST PUSH1 0x4 PUSH1 0x20 SWAP1 DUP2 MSTORE PUSH1 0x0 SWAP3 DUP4 MSTORE PUSH1 0x40 DUP1 DUP5 KECCAK256 SWAP1 SWAP2 MSTORE SWAP1 DUP3 MSTORE SWAP1 KECCAK256 DUP1 SLOAD PUSH1 0x1 SWAP1 SWAP2 ADD SLOAD PUSH1 0xFF DUP1 DUP4 AND SWAP3 PUSH2 0x100 DUP2 DIV DUP3 AND SWAP3 PUSH3 0x10000 SWAP1 SWAP2 DIV SWAP1 SWAP2 AND SWAP1 DUP5 JUMP JUMPDEST PUSH1 0x40 MLOAD PUSH2 0x1EF SWAP5 SWAP4 SWAP3 SWAP2 SWAP1 PUSH1 0xFF SWAP5 DUP6 AND DUP2 MSTORE SWAP3 DUP5 AND PUSH1 0x20 DUP5 ADD MSTORE SWAP3 AND PUSH1 0x40 DUP3 ADD MSTORE PUSH1 0x60 DUP2 ADD SWAP2 SWAP1 SWAP2 MSTORE PUSH1 0x80 ADD SWAP1 JUMP JUMPDEST PUSH1 0x8 DUP2 DUP2 SLOAD DUP2 LT PUSH2 0x455 JUMPI PUSH1 0x0 DUP1 REVERT JUMPDEST PUSH1 0x0 SWAP2 DUP3 MSTORE PUSH1 0x20 SWAP1 SWAP2 KECCAK256 PUSH1 0xA SWAP1 SWAP2 MUL ADD DUP1 SLOAD PUSH1 0x1 DUP3 ADD SLOAD PUSH1 0x2 DUP4 ADD SLOAD PUSH1 0x3 DUP5 ADD SLOAD PUSH1 0x4 DUP6 ADD SLOAD PUSH1 0x5 DUP7 ADD SLOAD PUSH1 0x6 DUP8 ADD SLOAD PUSH1 0x7 DUP9 ADD SLOAD PUSH1 0x8 DUP10 ADD SLOAD PUSH1 0x9 SWAP1 SWAP10 ADD SLOAD PUSH1 0xFF DUP1 DUP11 AND SWAP12 POP PUSH2 0x100 DUP11 DIV DUP2 AND SWAP11 PUSH3 0x10000 DUP12 DIV DUP3 AND SWAP11 PUSH4 0x1000000 SWAP1 DIV DUP3 AND SWAP10 SWAP9 SWAP1 SWAP2 AND SWAP7 SWAP6 SWAP5 SWAP4 SWAP3 SWAP2 DUP14 JUMP JUMPDEST PUSH1 0x60 PUSH1 0x0 DUP1 PUSH2 0x4D6 PUSH3 0x93A80 TIMESTAMP PUSH2 0x4652 JUMP JUMPDEST PUSH1 0x8 SLOAD SWAP1 SWAP2 POP JUMPDEST DUP1 ISZERO PUSH2 0x541 JUMPI DUP2 PUSH1 0x8 PUSH2 0x4F1 PUSH1 0x1 DUP5 PUSH2 0x4652 JUMP JUMPDEST DUP2 SLOAD DUP2 LT PUSH2 0x501 JUMPI PUSH2 0x501 PUSH2 0x4665 JUMP JUMPDEST SWAP1 PUSH1 0x0 MSTORE PUSH1 0x20 PUSH1 0x0 KECCAK256 SWAP1 PUSH1 0xA MUL ADD PUSH1 0x1 ADD SLOAD LT PUSH2 0x52A JUMPI DUP3 PUSH2 0x522 DUP2 PUSH2 0x4694 JUMP JUMPDEST SWAP4 POP POP PUSH2 0x52F JUMP JUMPDEST PUSH2 0x541 JUMP JUMPDEST DUP1 PUSH2 0x539 DUP2 PUSH2 0x46AE JUMP JUMPDEST SWAP2 POP POP PUSH2 0x4DD JUMP JUMPDEST POP PUSH1 0x0 DUP3 PUSH8 0xFFFFFFFFFFFFFFFF DUP2 GT ISZERO PUSH2 0x55D JUMPI PUSH2 0x55D PUSH2 0x46C5 JUMP JUMPDEST PUSH1 0x40 MLOAD SWAP1 DUP1 DUP3 MSTORE DUP1 PUSH1 0x20 MUL PUSH1 0x20 ADD DUP3 ADD PUSH1 0x40 MSTORE DUP1 ISZERO PUSH2 0x607 JUMPI DUP2 PUSH1 0x20 ADD JUMPDEST PUSH2 0x5F4 PUSH1 0x40 MLOAD DUP1 PUSH2 0x1A0 ADD PUSH1 0x40 MSTORE DUP1 PUSH1 0x0 PUSH1 0xFF AND DUP2 MSTORE PUSH1 0x20 ADD PUSH1 0x0 PUSH1 0xFF AND DUP2 MSTORE PUSH1 0x20 ADD PUSH1 0x0 PUSH1 0xFF AND DUP2 MSTORE PUSH1 0x20 ADD PUSH1 0x0 PUSH1 0xFF AND DUP2 MSTORE PUSH1 0x20 ADD PUSH1 0x0 DUP2 MSTORE PUSH1 0x20 ADD PUSH1 0x0 ISZERO ISZERO DUP2 MSTORE PUSH1 0x20 ADD PUSH1 0x0 DUP2 MSTORE PUSH1 0x20 ADD PUSH1 0x0 DUP2 MSTORE PUSH1 0x20 ADD PUSH1 0x0 DUP2 MSTORE PUSH1 0x20 ADD PUSH1 0x0 DUP2 MSTORE PUSH1 0x20 ADD PUSH1 0x0 DUP2 MSTORE PUSH1 0x20 ADD PUSH1 0x0 DUP2 MSTORE PUSH1 0x20 ADD PUSH1 0x0 DUP2 MSTORE POP SWAP1 JUMP JUMPDEST DUP2 MSTORE PUSH1 0x20 ADD SWAP1 PUSH1 0x1 SWAP1 SUB SWAP1 DUP2 PUSH2 0x57B JUMPI SWAP1 POP JUMPDEST POP SWAP1 POP PUSH1 0x0 DUP1 DUP5 PUSH1 0x8 DUP1 SLOAD SWAP1 POP PUSH2 0x61E SWAP2 SWAP1 PUSH2 0x4652 JUMP JUMPDEST SWAP1 POP JUMPDEST PUSH1 0x8 SLOAD DUP2 LT ISZERO PUSH2 0x732 JUMPI PUSH1 0x8 DUP2 DUP2 SLOAD DUP2 LT PUSH2 0x63E JUMPI PUSH2 0x63E PUSH2 0x4665 JUMP JUMPDEST PUSH1 0x0 SWAP2 DUP3 MSTORE PUSH1 0x20 SWAP2 DUP3 SWAP1 KECCAK256 PUSH1 0x40 DUP1 MLOAD PUSH2 0x1A0 DUP2 ADD DUP3 MSTORE PUSH1 0xA SWAP1 SWAP4 MUL SWAP1 SWAP2 ADD DUP1 SLOAD PUSH1 0xFF DUP1 DUP3 AND DUP6 MSTORE PUSH2 0x100 DUP1 DUP4 DIV DUP3 AND SWAP7 DUP7 ADD SWAP7 SWAP1 SWAP7 MSTORE PUSH3 0x10000 DUP3 DIV DUP2 AND SWAP4 DUP6 ADD SWAP4 SWAP1 SWAP4 MSTORE PUSH4 0x1000000 SWAP1 DIV DUP3 AND PUSH1 0x60 DUP5 ADD MSTORE PUSH1 0x1 DUP2 ADD SLOAD PUSH1 0x80 DUP5 ADD MSTORE PUSH1 0x2 DUP2 ADD SLOAD SWAP1 SWAP2 AND ISZERO ISZERO PUSH1 0xA0 DUP4 ADD MSTORE PUSH1 0x3 DUP2 ADD SLOAD PUSH1 0xC0 DUP4 ADD MSTORE PUSH1 0x4 DUP2 ADD SLOAD PUSH1 0xE0 DUP4 ADD MSTORE PUSH1 0x5 DUP2 ADD SLOAD SWAP3 DUP3 ADD SWAP3 SWAP1 SWAP3 MSTORE PUSH1 0x6 DUP3 ADD SLOAD PUSH2 0x120 DUP3 ADD MSTORE PUSH1 0x7 DUP3 ADD SLOAD PUSH2 0x140 DUP3 ADD MSTORE PUSH1 0x8 DUP3 ADD SLOAD PUSH2 0x160 DUP3 ADD MSTORE PUSH1 0x9 SWAP1 SWAP2 ADD SLOAD PUSH2 0x180 DUP3 ADD MSTORE DUP4 DUP4 PUSH2 0x702 DUP2 PUSH2 0x4694 JUMP JUMPDEST SWAP5 POP DUP2 MLOAD DUP2 LT PUSH2 0x714 JUMPI PUSH2 0x714 PUSH2 0x4665 JUMP JUMPDEST PUSH1 0x20 MUL PUSH1 0x20 ADD ADD DUP2 SWAP1 MSTORE POP DUP1 DUP1 PUSH2 0x72A SWAP1 PUSH2 0x4694 JUMP JUMPDEST SWAP2 POP POP PUSH2 0x621 JUMP JUMPDEST POP SWAP1 SWAP5 SWAP4 POP POP POP POP JUMP JUMPDEST PUSH1 0x60 PUSH1 0x8 DUP1 SLOAD DUP1 PUSH1 0x20 MUL PUSH1 0x20 ADD PUSH1 0x40 MLOAD SWAP1 DUP2 ADD PUSH1 0x40 MSTORE DUP1 SWAP3 SWAP2 SWAP1 DUP2 DUP2 MSTORE PUSH1 0x20 ADD PUSH1 0x0 SWAP1 JUMPDEST DUP3 DUP3 LT ISZERO PUSH2 0x82A JUMPI PUSH1 0x0 DUP5 DUP2 MSTORE PUSH1 0x20 SWAP1 DUP2 SWAP1 KECCAK256 PUSH1 0x40 DUP1 MLOAD PUSH2 0x1A0 DUP2 ADD DUP3 MSTORE PUSH1 0xA DUP7 MUL SWAP1 SWAP3 ADD DUP1 SLOAD PUSH1 0xFF DUP1 DUP3 AND DUP6 MSTORE PUSH2 0x100 DUP1 DUP4 DIV DUP3 AND DUP7 DUP9 ADD MSTORE PUSH3 0x10000 DUP4 DIV DUP3 AND SWAP5 DUP7 ADD SWAP5 SWAP1 SWAP5 MSTORE PUSH4 0x1000000 SWAP1 SWAP2 DIV DUP2 AND PUSH1 0x60 DUP6 ADD MSTORE PUSH1 0x1 DUP1 DUP4 ADD SLOAD PUSH1 0x80 DUP7 ADD MSTORE PUSH1 0x2 DUP4 ADD SLOAD SWAP1 SWAP2 AND ISZERO ISZERO PUSH1 0xA0 DUP6 ADD MSTORE PUSH1 0x3 DUP3 ADD SLOAD PUSH1 0xC0 DUP6 ADD MSTORE PUSH1 0x4 DUP3 ADD SLOAD PUSH1 0xE0 DUP6 ADD MSTORE PUSH1 0x5 DUP3 ADD SLOAD SWAP3 DUP5 ADD SWAP3 SWAP1 SWAP3 MSTORE PUSH1 0x6 DUP2 ADD SLOAD PUSH2 0x120 DUP5 ADD MSTORE PUSH1 0x7 DUP2 ADD SLOAD PUSH2 0x140 DUP5 ADD MSTORE PUSH1 0x8 DUP2 ADD SLOAD PUSH2 0x160 DUP5 ADD MSTORE PUSH1 0x9 ADD SLOAD PUSH2 0x180 DUP4 ADD MSTORE SWAP1 DUP4 MSTORE SWAP1 SWAP3 ADD SWAP2 ADD PUSH2 0x760 JUMP JUMPDEST POP POP POP POP SWAP1 POP SWAP1 JUMP JUMPDEST PUSH1 0x5 PUSH1 0x20 MSTORE DUP2 PUSH1 0x0 MSTORE PUSH1 0x40 PUSH1 0x0 KECCAK256 DUP2 DUP2 SLOAD DUP2 LT PUSH2 0x84F JUMPI PUSH1 0x0 DUP1 REVERT JUMPDEST PUSH1 0x0 SWAP2 DUP3 MSTORE PUSH1 0x20 SWAP1 SWAP2 KECCAK256 PUSH1 0x3 SWAP1 SWAP2 MUL ADD DUP1 SLOAD PUSH1 0x1 DUP3 ADD SLOAD PUSH1 0x2 SWAP1 SWAP3 ADD SLOAD PUSH1 0x1 PUSH1 0x1 PUSH1 0xA0 SHL SUB DUP3 AND SWAP5 POP PUSH21 0x10000000000000000000000000000000000000000 SWAP1 SWAP2 DIV PUSH1 0xFF AND SWAP3 POP DUP5 JUMP JUMPDEST PUSH1 0x1 PUSH1 0x1 PUSH1 0xA0 SHL SUB DUP2 AND PUSH1 0x0 SWAP1 DUP2 MSTORE PUSH1 0x9 PUSH1 0x20 SWAP1 DUP2 MSTORE PUSH1 0x40 DUP1 DUP4 KECCAK256 DUP1 SLOAD DUP3 MLOAD DUP2 DUP6 MUL DUP2 ADD DUP6 ADD SWAP1 SWAP4 MSTORE DUP1 DUP4 MSTORE PUSH1 0x60 SWAP5 SWAP4 DUP4 ADD DUP3 DUP3 DUP1 ISZERO PUSH2 0x8F8 JUMPI PUSH1 0x20 MUL DUP3 ADD SWAP2 SWAP1 PUSH1 0x0 MSTORE PUSH1 0x20 PUSH1 0x0 KECCAK256 SWAP1 JUMPDEST DUP2 SLOAD DUP2 MSTORE PUSH1 0x20 ADD SWAP1 PUSH1 0x1 ADD SWAP1 DUP1 DUP4 GT PUSH2 0x8E4 JUMPI JUMPDEST POP POP POP POP POP SWAP1 POP PUSH1 0x0 DUP1 PUSH3 0x93A80 TIMESTAMP PUSH2 0x911 SWAP2 SWAP1 PUSH2 0x4652 JUMP JUMPDEST SWAP1 POP PUSH1 0x0 JUMPDEST DUP4 MLOAD DUP2 LT ISZERO PUSH2 0x983 JUMPI DUP2 PUSH1 0x8 DUP6 DUP4 DUP2 MLOAD DUP2 LT PUSH2 0x934 JUMPI PUSH2 0x934 PUSH2 0x4665 JUMP JUMPDEST PUSH1 0x20 MUL PUSH1 0x20 ADD ADD MLOAD DUP2 SLOAD DUP2 LT PUSH2 0x94C JUMPI PUSH2 0x94C PUSH2 0x4665 JUMP JUMPDEST SWAP1 PUSH1 0x0 MSTORE PUSH1 0x20 PUSH1 0x0 KECCAK256 SWAP1 PUSH1 0xA MUL ADD PUSH1 0x1 ADD SLOAD LT PUSH2 0x971 JUMPI DUP3 PUSH2 0x96D DUP2 PUSH2 0x4694 JUMP JUMPDEST SWAP4 POP POP JUMPDEST DUP1 PUSH2 0x97B DUP2 PUSH2 0x4694 JUMP JUMPDEST SWAP2 POP POP PUSH2 0x916 JUMP JUMPDEST POP PUSH1 0x0 DUP3 PUSH8 0xFFFFFFFFFFFFFFFF DUP2 GT ISZERO PUSH2 0x99F JUMPI PUSH2 0x99F PUSH2 0x46C5 JUMP JUMPDEST PUSH1 0x40 MLOAD SWAP1 DUP1 DUP3 MSTORE DUP1 PUSH1 0x20 MUL PUSH1 0x20 ADD DUP3 ADD PUSH1 0x40 MSTORE DUP1 ISZERO PUSH2 0xA49 JUMPI DUP2 PUSH1 0x20 ADD JUMPDEST PUSH2 0xA36 PUSH1 0x40 MLOAD DUP1 PUSH2 0x1A0 ADD PUSH1 0x40 MSTORE DUP1 PUSH1 0x0 PUSH1 0xFF AND DUP2 MSTORE PUSH1 0x20 ADD PUSH1 0x0 PUSH1 0xFF AND DUP2 MSTORE PUSH1 0x20 ADD PUSH1 0x0 PUSH1 0xFF AND DUP2 MSTORE PUSH1 0x20 ADD PUSH1 0x0 PUSH1 0xFF AND DUP2 MSTORE PUSH1 0x20 ADD PUSH1 0x0 DUP2 MSTORE PUSH1 0x20 ADD PUSH1 0x0 ISZERO ISZERO DUP2 MSTORE PUSH1 0x20 ADD PUSH1 0x0 DUP2 MSTORE PUSH1 0x20 ADD PUSH1 0x0 DUP2 MSTORE PUSH1 0x20 ADD PUSH1 0x0 DUP2 MSTORE PUSH1 0x20 ADD PUSH1 0x0 DUP2 MSTORE PUSH1 0x20 ADD PUSH1 0x0 DUP2 MSTORE PUSH1 0x20 ADD PUSH1 0x0 DUP2 MSTORE PUSH1 0x20 ADD PUSH1 0x0 DUP2 MSTORE POP SWAP1 JUMP JUMPDEST DUP2 MSTORE PUSH1 0x20 ADD SWAP1 PUSH1 0x1 SWAP1 SUB SWAP1 DUP2 PUSH2 0x9BD JUMPI SWAP1 POP JUMPDEST POP SWAP1 POP PUSH1 0x0 DUP1 JUMPDEST DUP6 MLOAD DUP2 LT ISZERO PUSH2 0xBBD JUMPI DUP4 PUSH1 0x8 DUP8 DUP4 DUP2 MLOAD DUP2 LT PUSH2 0xA6E JUMPI PUSH2 0xA6E PUSH2 0x4665 JUMP JUMPDEST PUSH1 0x20 MUL PUSH1 0x20 ADD ADD MLOAD DUP2 SLOAD DUP2 LT PUSH2 0xA86 JUMPI PUSH2 0xA86 PUSH2 0x4665 JUMP JUMPDEST SWAP1 PUSH1 0x0 MSTORE PUSH1 0x20 PUSH1 0x0 KECCAK256 SWAP1 PUSH1 0xA MUL ADD PUSH1 0x1 ADD SLOAD LT PUSH2 0xBAB JUMPI PUSH1 0x8 DUP7 DUP3 DUP2 MLOAD DUP2 LT PUSH2 0xAB1 JUMPI PUSH2 0xAB1 PUSH2 0x4665 JUMP JUMPDEST PUSH1 0x20 MUL PUSH1 0x20 ADD ADD MLOAD DUP2 SLOAD DUP2 LT PUSH2 0xAC9 JUMPI PUSH2 0xAC9 PUSH2 0x4665 JUMP JUMPDEST PUSH1 0x0 SWAP2 DUP3 MSTORE PUSH1 0x20 SWAP2 DUP3 SWAP1 KECCAK256 PUSH1 0x40 DUP1 MLOAD PUSH2 0x1A0 DUP2 ADD DUP3 MSTORE PUSH1 0xA SWAP1 SWAP4 MUL SWAP1 SWAP2 ADD DUP1 SLOAD PUSH1 0xFF DUP1 DUP3 AND DUP6 MSTORE PUSH2 0x100 DUP1 DUP4 DIV DUP3 AND SWAP7 DUP7 ADD SWAP7 SWAP1 SWAP7 MSTORE PUSH3 0x10000 DUP3 DIV DUP2 AND SWAP4 DUP6 ADD SWAP4 SWAP1 SWAP4 MSTORE PUSH4 0x1000000 SWAP1 DIV DUP3 AND PUSH1 0x60 DUP5 ADD MSTORE PUSH1 0x1 DUP2 ADD SLOAD PUSH1 0x80 DUP5 ADD MSTORE PUSH1 0x2 DUP2 ADD SLOAD SWAP1 SWAP2 AND ISZERO ISZERO PUSH1 0xA0 DUP4 ADD MSTORE PUSH1 0x3 DUP2 ADD SLOAD PUSH1 0xC0 DUP4 ADD MSTORE PUSH1 0x4 DUP2 ADD SLOAD PUSH1 0xE0 DUP4 ADD MSTORE PUSH1 0x5 DUP2 ADD SLOAD SWAP3 DUP3 ADD SWAP3 SWAP1 SWAP3 MSTORE PUSH1 0x6 DUP3 ADD SLOAD PUSH2 0x120 DUP3 ADD MSTORE PUSH1 0x7 DUP3 ADD SLOAD PUSH2 0x140 DUP3 ADD MSTORE PUSH1 0x8 DUP3 ADD SLOAD PUSH2 0x160 DUP3 ADD MSTORE PUSH1 0x9 SWAP1 SWAP2 ADD SLOAD PUSH2 0x180 DUP3 ADD MSTORE DUP4 DUP4 PUSH2 0xB8D DUP2 PUSH2 0x4694 JUMP JUMPDEST SWAP5 POP DUP2 MLOAD DUP2 LT PUSH2 0xB9F JUMPI PUSH2 0xB9F PUSH2 0x4665 JUMP JUMPDEST PUSH1 0x20 MUL PUSH1 0x20 ADD ADD DUP2 SWAP1 MSTORE POP JUMPDEST DUP1 PUSH2 0xBB5 DUP2 PUSH2 0x4694 JUMP JUMPDEST SWAP2 POP POP PUSH2 0xA50 JUMP JUMPDEST POP SWAP1 SWAP7 SWAP6 POP POP POP POP POP POP JUMP JUMPDEST PUSH1 0x60 PUSH1 0x1 DUP3 PUSH1 0xFF AND LT ISZERO DUP1 ISZERO PUSH2 0xBE3 JUMPI POP PUSH1 0x8 DUP3 PUSH1 0xFF AND GT ISZERO JUMPDEST PUSH2 0xC34 JUMPI PUSH1 0x40 MLOAD PUSH3 0x461BCD PUSH1 0xE5 SHL DUP2 MSTORE PUSH1 0x20 PUSH1 0x4 DUP3 ADD MSTORE PUSH1 0x15 PUSH1 0x24 DUP3 ADD MSTORE PUSH32 0x496E76616C6964207265736F7572636520747970650000000000000000000000 PUSH1 0x44 DUP3 ADD MSTORE PUSH1 0x64 ADD JUMPDEST PUSH1 0x40 MLOAD DUP1 SWAP2 SUB SWAP1 REVERT JUMPDEST PUSH1 0xFF DUP3 AND PUSH1 0x0 SWAP1 DUP2 MSTORE PUSH1 0x5 PUSH1 0x20 SWAP1 DUP2 MSTORE PUSH1 0x40 DUP1 DUP4 KECCAK256 DUP1 SLOAD DUP3 MLOAD DUP2 DUP6 MUL DUP2 ADD DUP6 ADD SWAP1 SWAP4 MSTORE DUP1 DUP4 MSTORE SWAP2 SWAP4 SWAP1 SWAP3 DUP5 ADD JUMPDEST DUP3 DUP3 LT ISZERO PUSH2 0xCD5 JUMPI PUSH1 0x0 DUP5 DUP2 MSTORE PUSH1 0x20 SWAP1 DUP2 SWAP1 KECCAK256 PUSH1 0x40 DUP1 MLOAD PUSH1 0x80 DUP2 ADD DUP3 MSTORE PUSH1 0x3 DUP7 MUL SWAP1 SWAP3 ADD DUP1 SLOAD PUSH1 0x1 PUSH1 0x1 PUSH1 0xA0 SHL SUB DUP2 AND DUP5 MSTORE PUSH21 0x10000000000000000000000000000000000000000 SWAP1 DIV PUSH1 0xFF AND DUP4 DUP6 ADD MSTORE PUSH1 0x1 DUP1 DUP3 ADD SLOAD SWAP3 DUP5 ADD SWAP3 SWAP1 SWAP3 MSTORE PUSH1 0x2 ADD SLOAD PUSH1 0x60 DUP4 ADD MSTORE SWAP1 DUP4 MSTORE SWAP1 SWAP3 ADD SWAP2 ADD PUSH2 0xC61 JUMP JUMPDEST POP POP POP POP SWAP1 POP SWAP2 SWAP1 POP JUMP JUMPDEST PUSH1 0x2 SLOAD PUSH1 0x40 MLOAD PUSH32 0x8A88895300000000000000000000000000000000000000000000000000000000 DUP2 MSTORE PUSH1 0xFF DUP1 DUP10 AND PUSH1 0x4 DUP4 ADD MSTORE DUP8 AND PUSH1 0x24 DUP3 ADD MSTORE DUP8 SWAP2 DUP8 SWAP2 CALLER SWAP2 PUSH1 0x1 PUSH1 0x1 PUSH1 0xA0 SHL SUB AND SWAP1 PUSH4 0x8A888953 SWAP1 PUSH1 0x44 ADD PUSH1 0x20 PUSH1 0x40 MLOAD DUP1 DUP4 SUB DUP2 DUP7 GAS STATICCALL ISZERO DUP1 ISZERO PUSH2 0xD50 JUMPI RETURNDATASIZE PUSH1 0x0 DUP1 RETURNDATACOPY RETURNDATASIZE PUSH1 0x0 REVERT JUMPDEST POP POP POP POP PUSH1 0x40 MLOAD RETURNDATASIZE PUSH1 0x1F NOT PUSH1 0x1F DUP3 ADD AND DUP3 ADD DUP1 PUSH1 0x40 MSTORE POP DUP2 ADD SWAP1 PUSH2 0xD74 SWAP2 SWAP1 PUSH2 0x46F4 JUMP JUMPDEST PUSH1 0x1 PUSH1 0x1 PUSH1 0xA0 SHL SUB AND EQ PUSH2 0xDCA JUMPI PUSH1 0x40 MLOAD PUSH3 0x461BCD PUSH1 0xE5 SHL DUP2 MSTORE PUSH1 0x20 PUSH1 0x4 DUP3 ADD MSTORE PUSH1 0x18 PUSH1 0x24 DUP3 ADD MSTORE PUSH32 0x596F7520646F206E6F74206F776E20746869732074696C650000000000000000 PUSH1 0x44 DUP3 ADD MSTORE PUSH1 0x64 ADD PUSH2 0xC2B JUMP JUMPDEST PUSH1 0x0 SLOAD PUSH1 0x40 MLOAD PUSH32 0x5E75968E00000000000000000000000000000000000000000000000000000000 DUP2 MSTORE CALLER PUSH1 0x4 DUP3 ADD MSTORE PUSH1 0x1 PUSH1 0x1 PUSH1 0xA0 SHL SUB SWAP1 SWAP2 AND SWAP1 PUSH4 0x5E75968E SWAP1 PUSH1 0x24 ADD PUSH1 0x20 PUSH1 0x40 MLOAD DUP1 DUP4 SUB DUP2 DUP7 GAS STATICCALL ISZERO DUP1 ISZERO PUSH2 0xE2B JUMPI RETURNDATASIZE PUSH1 0x0 DUP1 RETURNDATACOPY RETURNDATASIZE PUSH1 0x0 REVERT JUMPDEST POP POP POP POP PUSH1 0x40 MLOAD RETURNDATASIZE PUSH1 0x1F NOT PUSH1 0x1F DUP3 ADD AND DUP3 ADD DUP1 PUSH1 0x40 MSTORE POP DUP2 ADD SWAP1 PUSH2 0xE4F SWAP2 SWAP1 PUSH2 0x4711 JUMP JUMPDEST PUSH2 0xE9B JUMPI PUSH1 0x40 MLOAD PUSH3 0x461BCD PUSH1 0xE5 SHL DUP2 MSTORE PUSH1 0x20 PUSH1 0x4 DUP3 ADD MSTORE PUSH1 0x16 PUSH1 0x24 DUP3 ADD MSTORE PUSH32 0x596F75206D75737420686176652061204D61726B657400000000000000000000 PUSH1 0x44 DUP3 ADD MSTORE PUSH1 0x64 ADD PUSH2 0xC2B JUMP JUMPDEST PUSH1 0x2 SLOAD PUSH1 0x40 MLOAD PUSH32 0x8A88895300000000000000000000000000000000000000000000000000000000 DUP2 MSTORE PUSH1 0xFF DUP1 DUP10 AND PUSH1 0x4 DUP4 ADD MSTORE DUP8 AND PUSH1 0x24 DUP3 ADD MSTORE PUSH1 0x0 SWAP2 PUSH1 0x1 PUSH1 0x1 PUSH1 0xA0 SHL SUB AND SWAP1 PUSH4 0x8A888953 SWAP1 PUSH1 0x44 ADD PUSH1 0x20 PUSH1 0x40 MLOAD DUP1 DUP4 SUB DUP2 DUP7 GAS STATICCALL ISZERO DUP1 ISZERO PUSH2 0xF08 JUMPI RETURNDATASIZE PUSH1 0x0 DUP1 RETURNDATACOPY RETURNDATASIZE PUSH1 0x0 REVERT JUMPDEST POP POP POP POP PUSH1 0x40 MLOAD RETURNDATASIZE PUSH1 0x1F NOT PUSH1 0x1F DUP3 ADD AND DUP3 ADD DUP1 PUSH1 0x40 MSTORE POP DUP2 ADD SWAP1 PUSH2 0xF2C SWAP2 SWAP1 PUSH2 0x46F4 JUMP JUMPDEST SWAP1 POP PUSH1 0x1 PUSH1 0x1 PUSH1 0xA0 SHL SUB DUP2 AND PUSH2 0xF84 JUMPI PUSH1 0x40 MLOAD PUSH3 0x461BCD PUSH1 0xE5 SHL DUP2 MSTORE PUSH1 0x20 PUSH1 0x4 DUP3 ADD MSTORE PUSH1 0x19 PUSH1 0x24 DUP3 ADD MSTORE PUSH32 0x5461726765742074696C6520697320756E6F6363757069656400000000000000 PUSH1 0x44 DUP3 ADD MSTORE PUSH1 0x64 ADD PUSH2 0xC2B JUMP JUMPDEST PUSH1 0x1 DUP6 PUSH1 0xFF AND LT ISZERO DUP1 ISZERO PUSH2 0xF9C JUMPI POP PUSH1 0x8 DUP6 PUSH1 0xFF AND GT ISZERO JUMPDEST PUSH2 0xFE8 JUMPI PUSH1 0x40 MLOAD PUSH3 0x461BCD PUSH1 0xE5 SHL DUP2 MSTORE PUSH1 0x20 PUSH1 0x4 DUP3 ADD MSTORE PUSH1 0x15 PUSH1 0x24 DUP3 ADD MSTORE PUSH32 0x496E76616C6964207265736F7572636520747970650000000000000000000000 PUSH1 0x44 DUP3 ADD MSTORE PUSH1 0x64 ADD PUSH2 0xC2B JUMP JUMPDEST PUSH1 0x1E DUP5 LT ISZERO PUSH2 0x1039 JUMPI PUSH1 0x40 MLOAD PUSH3 0x461BCD PUSH1 0xE5 SHL DUP2 MSTORE PUSH1 0x20 PUSH1 0x4 DUP3 ADD MSTORE PUSH1 0x14 PUSH1 0x24 DUP3 ADD MSTORE PUSH32 0x416D6F756E74206D757374206265203E3D203330000000000000000000000000 PUSH1 0x44 DUP3 ADD MSTORE PUSH1 0x64 ADD PUSH2 0xC2B JUMP JUMPDEST PUSH1 0x0 PUSH2 0x1045 DUP10 DUP9 PUSH2 0x2986 JUMP JUMPDEST PUSH2 0x104F DUP12 DUP11 PUSH2 0x2986 JUMP JUMPDEST PUSH2 0x1059 SWAP2 SWAP1 PUSH2 0x4733 JUMP JUMPDEST SWAP1 POP PUSH1 0x0 DUP2 PUSH1 0xFF AND GT DUP1 ISZERO PUSH2 0x1072 JUMPI POP PUSH1 0x26 DUP2 PUSH1 0xFF AND GT ISZERO JUMPDEST PUSH2 0x10BE JUMPI PUSH1 0x40 MLOAD PUSH3 0x461BCD PUSH1 0xE5 SHL DUP2 MSTORE PUSH1 0x20 PUSH1 0x4 DUP3 ADD MSTORE PUSH1 0x10 PUSH1 0x24 DUP3 ADD MSTORE PUSH32 0x496E76616C69642064697374616E636500000000000000000000000000000000 PUSH1 0x44 DUP3 ADD MSTORE PUSH1 0x64 ADD PUSH2 0xC2B JUMP JUMPDEST PUSH4 0x5F5E100 PUSH1 0x0 PUSH2 0x10D2 PUSH1 0xFF DUP5 AND DUP4 PUSH2 0x474C JUMP JUMPDEST PUSH1 0x1 SLOAD PUSH1 0x40 MLOAD PUSH32 0x23B872DD00000000000000000000000000000000000000000000000000000000 DUP2 MSTORE CALLER PUSH1 0x4 DUP3 ADD MSTORE ADDRESS PUSH1 0x24 DUP3 ADD MSTORE PUSH1 0x44 DUP2 ADD DUP4 SWAP1 MSTORE SWAP2 SWAP3 POP PUSH1 0x1 PUSH1 0x1 PUSH1 0xA0 SHL SUB AND SWAP1 PUSH4 0x23B872DD SWAP1 PUSH1 0x64 ADD PUSH1 0x20 PUSH1 0x40 MLOAD DUP1 DUP4 SUB DUP2 PUSH1 0x0 DUP8 GAS CALL ISZERO DUP1 ISZERO PUSH2 0x1143 JUMPI RETURNDATASIZE PUSH1 0x0 DUP1 RETURNDATACOPY RETURNDATASIZE PUSH1 0x0 REVERT JUMPDEST POP POP POP POP PUSH1 0x40 MLOAD RETURNDATASIZE PUSH1 0x1F NOT PUSH1 0x1F DUP3 ADD AND DUP3 ADD DUP1 PUSH1 0x40 MSTORE POP DUP2 ADD SWAP1 PUSH2 0x1167 SWAP2 SWAP1 PUSH2 0x4711 JUMP JUMPDEST PUSH2 0x11B3 JUMPI PUSH1 0x40 MLOAD PUSH3 0x461BCD PUSH1 0xE5 SHL DUP2 MSTORE PUSH1 0x20 PUSH1 0x4 DUP3 ADD MSTORE PUSH1 0x17 PUSH1 0x24 DUP3 ADD MSTORE PUSH32 0x4C4F5020666565207472616E73666572206661696C6564000000000000000000 PUSH1 0x44 DUP3 ADD MSTORE PUSH1 0x64 ADD PUSH2 0xC2B JUMP JUMPDEST PUSH1 0x1 SLOAD PUSH1 0x40 MLOAD PUSH32 0x42966C6800000000000000000000000000000000000000000000000000000000 DUP2 MSTORE PUSH1 0x4 DUP2 ADD DUP4 SWAP1 MSTORE PUSH1 0x1 PUSH1 0x1 PUSH1 0xA0 SHL SUB SWAP1 SWAP2 AND SWAP1 PUSH4 0x42966C68 SWAP1 PUSH1 0x24 ADD PUSH1 0x20 PUSH1 0x40 MLOAD DUP1 DUP4 SUB DUP2 PUSH1 0x0 DUP8 GAS CALL ISZERO DUP1 ISZERO PUSH2 0x1217 JUMPI RETURNDATASIZE PUSH1 0x0 DUP1 RETURNDATACOPY RETURNDATASIZE PUSH1 0x0 REVERT JUMPDEST POP POP POP POP PUSH1 0x40 MLOAD RETURNDATASIZE PUSH1 0x1F NOT PUSH1 0x1F DUP3 ADD AND DUP3 ADD DUP1 PUSH1 0x40 MSTORE POP DUP2 ADD SWAP1 PUSH2 0x123B SWAP2 SWAP1 PUSH2 0x4711 JUMP JUMPDEST PUSH2 0x1287 JUMPI PUSH1 0x40 MLOAD PUSH3 0x461BCD PUSH1 0xE5 SHL DUP2 MSTORE PUSH1 0x20 PUSH1 0x4 DUP3 ADD MSTORE PUSH1 0xF PUSH1 0x24 DUP3 ADD MSTORE PUSH32 0x4C4F50206275726E206661696C65640000000000000000000000000000000000 PUSH1 0x44 DUP3 ADD MSTORE PUSH1 0x64 ADD PUSH2 0xC2B JUMP JUMPDEST PUSH1 0x0 PUSH1 0x1E PUSH2 0x1298 DUP10 PUSH1 0xFF DUP8 AND PUSH2 0x474C JUMP JUMPDEST PUSH2 0x12A2 SWAP2 SWAP1 PUSH2 0x4763 JUMP JUMPDEST PUSH1 0x0 SLOAD SWAP1 SWAP2 POP PUSH1 0x1 PUSH1 0x1 PUSH1 0xA0 SHL SUB AND PUSH4 0x3E5F2857 DUP15 DUP15 DUP13 PUSH2 0x12C3 DUP7 DUP15 PUSH2 0x479E JUMP JUMPDEST PUSH1 0x40 MLOAD PUSH32 0xFFFFFFFF00000000000000000000000000000000000000000000000000000000 PUSH1 0xE0 DUP8 SWAP1 SHL AND DUP2 MSTORE PUSH1 0xFF SWAP5 DUP6 AND PUSH1 0x4 DUP3 ADD MSTORE SWAP3 DUP5 AND PUSH1 0x24 DUP5 ADD MSTORE SWAP3 AND PUSH1 0x44 DUP3 ADD MSTORE PUSH1 0x64 DUP2 ADD SWAP2 SWAP1 SWAP2 MSTORE PUSH1 0x0 PUSH1 0x84 DUP3 ADD MSTORE PUSH1 0xA4 ADD PUSH1 0x0 PUSH1 0x40 MLOAD DUP1 DUP4 SUB DUP2 PUSH1 0x0 DUP8 DUP1 EXTCODESIZE ISZERO DUP1 ISZERO PUSH2 0x1334 JUMPI PUSH1 0x0 DUP1 REVERT JUMPDEST POP GAS CALL ISZERO DUP1 ISZERO PUSH2 0x1348 JUMPI RETURNDATASIZE PUSH1 0x0 DUP1 RETURNDATACOPY RETURNDATASIZE PUSH1 0x0 REVERT JUMPDEST POP POP PUSH1 0x0 SLOAD PUSH1 0x40 MLOAD PUSH4 0x3E5F2857 PUSH1 0xE0 SHL DUP2 MSTORE PUSH1 0x1 PUSH1 0x1 PUSH1 0xA0 SHL SUB SWAP1 SWAP2 AND SWAP3 POP PUSH4 0x3E5F2857 SWAP2 POP PUSH2 0x13AE SWAP1 DUP15 SWAP1 DUP15 SWAP1 DUP15 SWAP1 DUP15 SWAP1 PUSH1 0x1 SWAP1 PUSH1 0x4 ADD PUSH1 0xFF SWAP6 DUP7 AND DUP2 MSTORE SWAP4 DUP6 AND PUSH1 0x20 DUP6 ADD MSTORE SWAP2 SWAP1 SWAP4 AND PUSH1 0x40 DUP4 ADD MSTORE PUSH1 0x60 DUP3 ADD SWAP3 SWAP1 SWAP3 MSTORE SWAP1 ISZERO ISZERO PUSH1 0x80 DUP3 ADD MSTORE PUSH1 0xA0 ADD SWAP1 JUMP JUMPDEST PUSH1 0x0 PUSH1 0x40 MLOAD DUP1 DUP4 SUB DUP2 PUSH1 0x0 DUP8 DUP1 EXTCODESIZE ISZERO DUP1 ISZERO PUSH2 0x13C8 JUMPI PUSH1 0x0 DUP1 REVERT JUMPDEST POP GAS CALL ISZERO DUP1 ISZERO PUSH2 0x13DC JUMPI RETURNDATASIZE PUSH1 0x0 DUP1 RETURNDATACOPY RETURNDATASIZE PUSH1 0x0 REVERT JUMPDEST POP POP POP POP PUSH1 0x40 MLOAD DUP1 PUSH1 0x80 ADD PUSH1 0x40 MSTORE DUP1 DUP15 PUSH1 0xFF AND DUP2 MSTORE PUSH1 0x20 ADD DUP14 PUSH1 0xFF AND DUP2 MSTORE PUSH1 0x20 ADD DUP11 PUSH1 0xFF AND DUP2 MSTORE PUSH1 0x20 ADD DUP10 DUP2 MSTORE POP PUSH1 0x4 PUSH1 0x0 DUP14 PUSH1 0xFF AND PUSH1 0xFF AND DUP2 MSTORE PUSH1 0x20 ADD SWAP1 DUP2 MSTORE PUSH1 0x20 ADD PUSH1 0x0 KECCAK256 PUSH1 0x0 DUP13 PUSH1 0xFF AND PUSH1 0xFF AND DUP2 MSTORE PUSH1 0x20 ADD SWAP1 DUP2 MSTORE PUSH1 0x20 ADD PUSH1 0x0 KECCAK256 PUSH1 0x0 DUP3 ADD MLOAD DUP2 PUSH1 0x0 ADD PUSH1 0x0 PUSH2 0x100 EXP DUP2 SLOAD DUP2 PUSH1 0xFF MUL NOT AND SWAP1 DUP4 PUSH1 0xFF AND MUL OR SWAP1 SSTORE POP PUSH1 0x20 DUP3 ADD MLOAD DUP2 PUSH1 0x0 ADD PUSH1 0x1 PUSH2 0x100 EXP DUP2 SLOAD DUP2 PUSH1 0xFF MUL NOT AND SWAP1 DUP4 PUSH1 0xFF AND MUL OR SWAP1 SSTORE POP PUSH1 0x40 DUP3 ADD MLOAD DUP2 PUSH1 0x0 ADD PUSH1 0x2 PUSH2 0x100 EXP DUP2 SLOAD DUP2 PUSH1 0xFF MUL NOT AND SWAP1 DUP4 PUSH1 0xFF AND MUL OR SWAP1 SSTORE POP PUSH1 0x60 DUP3 ADD MLOAD DUP2 PUSH1 0x1 ADD SSTORE SWAP1 POP POP PUSH1 0x0 DUP1 SLOAD SWAP1 PUSH2 0x100 EXP SWAP1 DIV PUSH1 0x1 PUSH1 0x1 PUSH1 0xA0 SHL SUB AND PUSH1 0x1 PUSH1 0x1 PUSH1 0xA0 SHL SUB AND PUSH4 0x9A4A2084 DUP13 DUP13 PUSH1 0x1 PUSH1 0x40 MLOAD DUP5 PUSH4 0xFFFFFFFF AND PUSH1 0xE0 SHL DUP2 MSTORE PUSH1 0x4 ADD PUSH2 0x1507 SWAP4 SWAP3 SWAP2 SWAP1 PUSH1 0xFF SWAP4 DUP5 AND DUP2 MSTORE SWAP2 SWAP1 SWAP3 AND PUSH1 0x20 DUP3 ADD MSTORE SWAP1 ISZERO ISZERO PUSH1 0x40 DUP3 ADD MSTORE PUSH1 0x60 ADD SWAP1 JUMP JUMPDEST PUSH1 0x0 PUSH1 0x40 MLOAD DUP1 DUP4 SUB DUP2 PUSH1 0x0 DUP8 DUP1 EXTCODESIZE ISZERO DUP1 ISZERO PUSH2 0x1521 JUMPI PUSH1 0x0 DUP1 REVERT JUMPDEST POP GAS CALL ISZERO DUP1 ISZERO PUSH2 0x1535 JUMPI RETURNDATASIZE PUSH1 0x0 DUP1 RETURNDATACOPY RETURNDATASIZE PUSH1 0x0 REVERT JUMPDEST POP POP POP POP POP POP POP POP POP POP POP POP POP POP POP POP POP JUMP JUMPDEST PUSH1 0x2 SLOAD PUSH1 0x40 MLOAD PUSH32 0x8A88895300000000000000000000000000000000000000000000000000000000 DUP2 MSTORE PUSH1 0xFF DUP1 DUP8 AND PUSH1 0x4 DUP4 ADD MSTORE DUP6 AND PUSH1 0x24 DUP3 ADD MSTORE DUP6 SWAP2 DUP6 SWAP2 CALLER SWAP2 PUSH1 0x1 PUSH1 0x1 PUSH1 0xA0 SHL SUB AND SWAP1 PUSH4 0x8A888953 SWAP1 PUSH1 0x44 ADD PUSH1 0x20 PUSH1 0x40 MLOAD DUP1 DUP4 SUB DUP2 DUP7 GAS STATICCALL ISZERO DUP1 ISZERO PUSH2 0x15B8 JUMPI RETURNDATASIZE PUSH1 0x0 DUP1 RETURNDATACOPY RETURNDATASIZE PUSH1 0x0 REVERT JUMPDEST POP POP POP POP PUSH1 0x40 MLOAD RETURNDATASIZE PUSH1 0x1F NOT PUSH1 0x1F DUP3 ADD AND DUP3 ADD DUP1 PUSH1 0x40 MSTORE POP DUP2 ADD SWAP1 PUSH2 0x15DC SWAP2 SWAP1 PUSH2 0x46F4 JUMP JUMPDEST PUSH1 0x1 PUSH1 0x1 PUSH1 0xA0 SHL SUB AND EQ PUSH2 0x1632 JUMPI PUSH1 0x40 MLOAD PUSH3 0x461BCD PUSH1 0xE5 SHL DUP2 MSTORE PUSH1 0x20 PUSH1 0x4 DUP3 ADD MSTORE PUSH1 0x18 PUSH1 0x24 DUP3 ADD MSTORE PUSH32 0x596F7520646F206E6F74206F776E20746869732074696C650000000000000000 PUSH1 0x44 DUP3 ADD MSTORE PUSH1 0x64 ADD PUSH2 0xC2B JUMP JUMPDEST PUSH1 0x2 SLOAD PUSH1 0x40 MLOAD PUSH32 0x8A88895300000000000000000000000000000000000000000000000000000000 DUP2 MSTORE PUSH1 0xFF DUP1 DUP8 AND PUSH1 0x4 DUP4 ADD MSTORE DUP6 AND PUSH1 0x24 DUP3 ADD MSTORE PUSH1 0x0 SWAP2 PUSH1 0x1 PUSH1 0x1 PUSH1 0xA0 SHL SUB AND SWAP1 PUSH4 0x8A888953 SWAP1 PUSH1 0x44 ADD PUSH1 0x20 PUSH1 0x40 MLOAD DUP1 DUP4 SUB DUP2 DUP7 GAS STATICCALL ISZERO DUP1 ISZERO PUSH2 0x169F JUMPI RETURNDATASIZE PUSH1 0x0 DUP1 RETURNDATACOPY RETURNDATASIZE PUSH1 0x0 REVERT JUMPDEST POP POP POP POP PUSH1 0x40 MLOAD RETURNDATASIZE PUSH1 0x1F NOT PUSH1 0x1F DUP3 ADD AND DUP3 ADD DUP1 PUSH1 0x40 MSTORE POP DUP2 ADD SWAP1 PUSH2 0x16C3 SWAP2 SWAP1 PUSH2 0x46F4 JUMP JUMPDEST SWAP1 POP PUSH1 0x1 PUSH1 0x1 PUSH1 0xA0 SHL SUB DUP2 AND PUSH2 0x171B JUMPI PUSH1 0x40 MLOAD PUSH3 0x461BCD PUSH1 0xE5 SHL DUP2 MSTORE PUSH1 0x20 PUSH1 0x4 DUP3 ADD MSTORE PUSH1 0xB PUSH1 0x24 DUP3 ADD MSTORE PUSH32 0x4E6F20646566656E646572000000000000000000000000000000000000000000 PUSH1 0x44 DUP3 ADD MSTORE PUSH1 0x64 ADD PUSH2 0xC2B JUMP JUMPDEST PUSH2 0x1729 DUP8 DUP8 DUP8 DUP8 CALLER DUP7 PUSH2 0x29B7 JUMP JUMPDEST PUSH2 0x1731 PUSH2 0x40D3 JUMP JUMPDEST PUSH1 0xFF DUP9 DUP2 AND DUP1 DUP4 MSTORE DUP9 DUP3 AND PUSH1 0x20 DUP5 ADD DUP2 SWAP1 MSTORE DUP9 DUP4 AND PUSH1 0x40 DUP1 DUP7 ADD SWAP2 SWAP1 SWAP2 MSTORE SWAP3 DUP9 AND PUSH1 0x60 DUP6 ADD MSTORE PUSH1 0x0 SLOAD SWAP3 MLOAD PUSH32 0xBD63837800000000000000000000000000000000000000000000000000000000 DUP2 MSTORE PUSH1 0x4 DUP2 ADD SWAP3 SWAP1 SWAP3 MSTORE PUSH1 0x24 DUP3 ADD MSTORE PUSH1 0x1 PUSH1 0x1 PUSH1 0xA0 SHL SUB SWAP1 SWAP2 AND SWAP1 PUSH4 0xBD638378 SWAP1 PUSH1 0x44 ADD PUSH2 0x1E0 PUSH1 0x40 MLOAD DUP1 DUP4 SUB DUP2 DUP7 GAS STATICCALL ISZERO DUP1 ISZERO PUSH2 0x17BF JUMPI RETURNDATASIZE PUSH1 0x0 DUP1 RETURNDATACOPY RETURNDATASIZE PUSH1 0x0 REVERT JUMPDEST POP POP POP POP PUSH1 0x40 MLOAD RETURNDATASIZE PUSH1 0x1F NOT PUSH1 0x1F DUP3 ADD AND DUP3 ADD DUP1 PUSH1 0x40 MSTORE POP DUP2 ADD SWAP1 PUSH2 0x17E3 SWAP2 SWAP1 PUSH2 0x4824 JUMP JUMPDEST PUSH1 0x80 DUP3 ADD MSTORE PUSH1 0x0 SLOAD PUSH1 0x40 MLOAD PUSH32 0xBD63837800000000000000000000000000000000000000000000000000000000 DUP2 MSTORE PUSH1 0xFF DUP1 DUP10 AND PUSH1 0x4 DUP4 ADD MSTORE DUP8 AND PUSH1 0x24 DUP3 ADD MSTORE PUSH1 0x1 PUSH1 0x1 PUSH1 0xA0 SHL SUB SWAP1 SWAP2 AND SWAP1 PUSH4 0xBD638378 SWAP1 PUSH1 0x44 ADD PUSH2 0x1E0 PUSH1 0x40 MLOAD DUP1 DUP4 SUB DUP2 DUP7 GAS STATICCALL ISZERO DUP1 ISZERO PUSH2 0x1855 JUMPI RETURNDATASIZE PUSH1 0x0 DUP1 RETURNDATACOPY RETURNDATASIZE PUSH1 0x0 REVERT JUMPDEST POP POP POP POP PUSH1 0x40 MLOAD RETURNDATASIZE PUSH1 0x1F NOT PUSH1 0x1F DUP3 ADD AND DUP3 ADD DUP1 PUSH1 0x40 MSTORE POP DUP2 ADD SWAP1 PUSH2 0x1879 SWAP2 SWAP1 PUSH2 0x4824 JUMP JUMPDEST PUSH1 0xA0 DUP3 ADD MSTORE PUSH1 0x80 DUP2 ADD MLOAD PUSH2 0x140 ADD MLOAD PUSH1 0xA GT ISZERO PUSH2 0x18FE JUMPI PUSH1 0x40 MLOAD PUSH3 0x461BCD PUSH1 0xE5 SHL DUP2 MSTORE PUSH1 0x20 PUSH1 0x4 DUP3 ADD MSTORE PUSH1 0x2D PUSH1 0x24 DUP3 ADD MSTORE PUSH32 0x4E656564206174206C65617374203130206F6666656E7369766520736F6C6469 PUSH1 0x44 DUP3 ADD MSTORE PUSH32 0x65727320746F2061747461636B00000000000000000000000000000000000000 PUSH1 0x64 DUP3 ADD MSTORE PUSH1 0x84 ADD PUSH2 0xC2B JUMP JUMPDEST PUSH1 0x0 PUSH2 0x190A DUP9 DUP8 PUSH2 0x2986 JUMP JUMPDEST PUSH2 0x1914 DUP11 DUP10 PUSH2 0x2986 JUMP JUMPDEST PUSH2 0x191E SWAP2 SWAP1 PUSH2 0x4733 JUMP JUMPDEST SWAP1 POP PUSH2 0x1930 DUP10 DUP10 DUP4 DUP6 PUSH1 0x80 ADD MLOAD PUSH2 0x2EC5 JUMP JUMPDEST PUSH2 0x1944 DUP3 PUSH1 0x80 ADD MLOAD DUP4 PUSH1 0xA0 ADD MLOAD DUP10 DUP10 PUSH2 0x31CE JUMP JUMPDEST PUSH1 0xE0 DUP5 ADD MSTORE PUSH1 0xC0 DUP4 ADD MSTORE PUSH1 0x0 PUSH2 0x1959 DUP4 PUSH2 0x3320 JUMP JUMPDEST SWAP1 POP PUSH1 0x0 DUP4 PUSH1 0xE0 ADD MLOAD DUP5 PUSH1 0xC0 ADD MLOAD GT ISZERO PUSH2 0x1979 JUMPI PUSH2 0x1976 DUP5 PUSH2 0x35C2 JUMP JUMPDEST SWAP1 POP JUMPDEST PUSH2 0x1981 PUSH2 0x4226 JUMP JUMPDEST DUP3 DUP2 MSTORE PUSH1 0x20 DUP2 ADD DUP3 SWAP1 MSTORE PUSH1 0xE0 DUP6 ADD MLOAD PUSH1 0xC0 DUP7 ADD MLOAD GT PUSH1 0x40 DUP3 ADD MSTORE PUSH2 0x19A7 DUP6 DUP3 CALLER DUP10 PUSH2 0x3728 JUMP JUMPDEST POP POP POP POP POP POP POP POP POP POP POP POP JUMP JUMPDEST PUSH1 0x1 PUSH1 0x1 PUSH1 0xA0 SHL SUB DUP2 AND PUSH1 0x0 SWAP1 DUP2 MSTORE PUSH1 0x9 PUSH1 0x20 SWAP1 DUP2 MSTORE PUSH1 0x40 DUP1 DUP4 KECCAK256 DUP1 SLOAD DUP3 MLOAD DUP2 DUP6 MUL DUP2 ADD DUP6 ADD SWAP1 SWAP4 MSTORE DUP1 DUP4 MSTORE PUSH1 0x60 SWAP5 SWAP4 DUP4 ADD DUP3 DUP3 DUP1 ISZERO PUSH2 0x1A14 JUMPI PUSH1 0x20 MUL DUP3 ADD SWAP2 SWAP1 PUSH1 0x0 MSTORE PUSH1 0x20 PUSH1 0x0 KECCAK256 SWAP1 JUMPDEST DUP2 SLOAD DUP2 MSTORE PUSH1 0x20 ADD SWAP1 PUSH1 0x1 ADD SWAP1 DUP1 DUP4 GT PUSH2 0x1A00 JUMPI JUMPDEST POP POP POP POP POP SWAP1 POP PUSH1 0x0 DUP2 MLOAD PUSH8 0xFFFFFFFFFFFFFFFF DUP2 GT ISZERO PUSH2 0x1A37 JUMPI PUSH2 0x1A37 PUSH2 0x46C5 JUMP JUMPDEST PUSH1 0x40 MLOAD SWAP1 DUP1 DUP3 MSTORE DUP1 PUSH1 0x20 MUL PUSH1 0x20 ADD DUP3 ADD PUSH1 0x40 MSTORE DUP1 ISZERO PUSH2 0x1AE1 JUMPI DUP2 PUSH1 0x20 ADD JUMPDEST PUSH2 0x1ACE PUSH1 0x40 MLOAD DUP1 PUSH2 0x1A0 ADD PUSH1 0x40 MSTORE DUP1 PUSH1 0x0 PUSH1 0xFF AND DUP2 MSTORE PUSH1 0x20 ADD PUSH1 0x0 PUSH1 0xFF AND DUP2 MSTORE PUSH1 0x20 ADD PUSH1 0x0 PUSH1 0xFF AND DUP2 MSTORE PUSH1 0x20 ADD PUSH1 0x0 PUSH1 0xFF AND DUP2 MSTORE PUSH1 0x20 ADD PUSH1 0x0 DUP2 MSTORE PUSH1 0x20 ADD PUSH1 0x0 ISZERO ISZERO DUP2 MSTORE PUSH1 0x20 ADD PUSH1 0x0 DUP2 MSTORE PUSH1 0x20 ADD PUSH1 0x0 DUP2 MSTORE PUSH1 0x20 ADD PUSH1 0x0 DUP2 MSTORE PUSH1 0x20 ADD PUSH1 0x0 DUP2 MSTORE PUSH1 0x20 ADD PUSH1 0x0 DUP2 MSTORE PUSH1 0x20 ADD PUSH1 0x0 DUP2 MSTORE PUSH1 0x20 ADD PUSH1 0x0 DUP2 MSTORE POP SWAP1 JUMP JUMPDEST DUP2 MSTORE PUSH1 0x20 ADD SWAP1 PUSH1 0x1 SWAP1 SUB SWAP1 DUP2 PUSH2 0x1A55 JUMPI SWAP1 POP JUMPDEST POP SWAP1 POP PUSH1 0x0 JUMPDEST DUP3 MLOAD DUP2 LT ISZERO PUSH2 0x1C07 JUMPI PUSH1 0x8 DUP4 DUP3 DUP2 MLOAD DUP2 LT PUSH2 0x1B04 JUMPI PUSH2 0x1B04 PUSH2 0x4665 JUMP JUMPDEST PUSH1 0x20 MUL PUSH1 0x20 ADD ADD MLOAD DUP2 SLOAD DUP2 LT PUSH2 0x1B1C JUMPI PUSH2 0x1B1C PUSH2 0x4665 JUMP JUMPDEST PUSH1 0x0 SWAP2 DUP3 MSTORE PUSH1 0x20 SWAP2 DUP3 SWAP1 KECCAK256 PUSH1 0x40 DUP1 MLOAD PUSH2 0x1A0 DUP2 ADD DUP3 MSTORE PUSH1 0xA SWAP1 SWAP4 MUL SWAP1 SWAP2 ADD DUP1 SLOAD PUSH1 0xFF DUP1 DUP3 AND DUP6 MSTORE PUSH2 0x100 DUP1 DUP4 DIV DUP3 AND SWAP7 DUP7 ADD SWAP7 SWAP1 SWAP7 MSTORE PUSH3 0x10000 DUP3 DIV DUP2 AND SWAP4 DUP6 ADD SWAP4 SWAP1 SWAP4 MSTORE PUSH4 0x1000000 SWAP1 DIV DUP3 AND PUSH1 0x60 DUP5 ADD MSTORE PUSH1 0x1 DUP2 ADD SLOAD PUSH1 0x80 DUP5 ADD MSTORE PUSH1 0x2 DUP2 ADD SLOAD SWAP1 SWAP2 AND ISZERO ISZERO PUSH1 0xA0 DUP4 ADD MSTORE PUSH1 0x3 DUP2 ADD SLOAD PUSH1 0xC0 DUP4 ADD MSTORE PUSH1 0x4 DUP2 ADD SLOAD PUSH1 0xE0 DUP4 ADD MSTORE PUSH1 0x5 DUP2 ADD SLOAD SWAP3 DUP3 ADD SWAP3 SWAP1 SWAP3 MSTORE PUSH1 0x6 DUP3 ADD SLOAD PUSH2 0x120 DUP3 ADD MSTORE PUSH1 0x7 DUP3 ADD SLOAD PUSH2 0x140 DUP3 ADD MSTORE PUSH1 0x8 DUP3 ADD SLOAD PUSH2 0x160 DUP3 ADD MSTORE PUSH1 0x9 SWAP1 SWAP2 ADD SLOAD PUSH2 0x180 DUP3 ADD MSTORE DUP3 MLOAD DUP4 SWAP1 DUP4 SWAP1 DUP2 LT PUSH2 0x1BE9 JUMPI PUSH2 0x1BE9 PUSH2 0x4665 JUMP JUMPDEST PUSH1 0x20 MUL PUSH1 0x20 ADD ADD DUP2 SWAP1 MSTORE POP DUP1 DUP1 PUSH2 0x1BFF SWAP1 PUSH2 0x4694 JUMP JUMPDEST SWAP2 POP POP PUSH2 0x1AE7 JUMP JUMPDEST POP SWAP4 SWAP3 POP POP POP JUMP JUMPDEST PUSH1 0x9 PUSH1 0x20 MSTORE DUP2 PUSH1 0x0 MSTORE PUSH1 0x40 PUSH1 0x0 KECCAK256 DUP2 DUP2 SLOAD DUP2 LT PUSH2 0x1C2B JUMPI PUSH1 0x0 DUP1 REVERT JUMPDEST SWAP1 PUSH1 0x0 MSTORE PUSH1 0x20 PUSH1 0x0 KECCAK256 ADD PUSH1 0x0 SWAP2 POP SWAP2 POP POP SLOAD DUP2 JUMP JUMPDEST PUSH1 0x2 SLOAD PUSH1 0x40 MLOAD PUSH32 0x8A88895300000000000000000000000000000000000000000000000000000000 DUP2 MSTORE PUSH1 0xFF DUP1 DUP8 AND PUSH1 0x4 DUP4 ADD MSTORE DUP6 AND PUSH1 0x24 DUP3 ADD MSTORE DUP6 SWAP2 DUP6 SWAP2 CALLER SWAP2 PUSH1 0x1 PUSH1 0x1 PUSH1 0xA0 SHL SUB AND SWAP1 PUSH4 0x8A888953 SWAP1 PUSH1 0x44 ADD PUSH1 0x20 PUSH1 0x40 MLOAD DUP1 DUP4 SUB DUP2 DUP7 GAS STATICCALL ISZERO DUP1 ISZERO PUSH2 0x1CB0 JUMPI RETURNDATASIZE PUSH1 0x0 DUP1 RETURNDATACOPY RETURNDATASIZE PUSH1 0x0 REVERT JUMPDEST POP POP POP POP PUSH1 0x40 MLOAD RETURNDATASIZE PUSH1 0x1F NOT PUSH1 0x1F DUP3 ADD AND DUP3 ADD DUP1 PUSH1 0x40 MSTORE POP DUP2 ADD SWAP1 PUSH2 0x1CD4 SWAP2 SWAP1 PUSH2 0x46F4 JUMP JUMPDEST PUSH1 0x1 PUSH1 0x1 PUSH1 0xA0 SHL SUB AND EQ PUSH2 0x1D2A JUMPI PUSH1 0x40 MLOAD PUSH3 0x461BCD PUSH1 0xE5 SHL DUP2 MSTORE PUSH1 0x20 PUSH1 0x4 DUP3 ADD MSTORE PUSH1 0x18 PUSH1 0x24 DUP3 ADD MSTORE PUSH32 0x596F7520646F206E6F74206F776E20746869732074696C650000000000000000 PUSH1 0x44 DUP3 ADD MSTORE PUSH1 0x64 ADD PUSH2 0xC2B JUMP JUMPDEST PUSH1 0x0 SLOAD PUSH1 0x40 MLOAD PUSH32 0x5E75968E00000000000000000000000000000000000000000000000000000000 DUP2 MSTORE CALLER PUSH1 0x4 DUP3 ADD MSTORE PUSH1 0x1 PUSH1 0x1 PUSH1 0xA0 SHL SUB SWAP1 SWAP2 AND SWAP1 PUSH4 0x5E75968E SWAP1 PUSH1 0x24 ADD PUSH1 0x20 PUSH1 0x40 MLOAD DUP1 DUP4 SUB DUP2 DUP7 GAS STATICCALL ISZERO DUP1 ISZERO PUSH2 0x1D8B JUMPI RETURNDATASIZE PUSH1 0x0 DUP1 RETURNDATACOPY RETURNDATASIZE PUSH1 0x0 REVERT JUMPDEST POP POP POP POP PUSH1 0x40 MLOAD RETURNDATASIZE PUSH1 0x1F NOT PUSH1 0x1F DUP3 ADD AND DUP3 ADD DUP1 PUSH1 0x40 MSTORE POP DUP2 ADD SWAP1 PUSH2 0x1DAF SWAP2 SWAP1 PUSH2 0x4711 JUMP JUMPDEST PUSH2 0x1DFB JUMPI PUSH1 0x40 MLOAD PUSH3 0x461BCD PUSH1 0xE5 SHL DUP2 MSTORE PUSH1 0x20 PUSH1 0x4 DUP3 ADD MSTORE PUSH1 0x16 PUSH1 0x24 DUP3 ADD MSTORE PUSH32 0x596F75206D75737420686176652061204D61726B657400000000000000000000 PUSH1 0x44 DUP3 ADD MSTORE PUSH1 0x64 ADD PUSH2 0xC2B JUMP JUMPDEST PUSH1 0xFF DUP5 AND PUSH1 0x0 SWAP1 DUP2 MSTORE PUSH1 0x5 PUSH1 0x20 MSTORE PUSH1 0x40 SWAP1 KECCAK256 SLOAD DUP4 LT PUSH2 0x1E5C JUMPI PUSH1 0x40 MLOAD PUSH3 0x461BCD PUSH1 0xE5 SHL DUP2 MSTORE PUSH1 0x20 PUSH1 0x4 DUP3 ADD MSTORE PUSH1 0xD PUSH1 0x24 DUP3 ADD MSTORE PUSH32 0x496E76616C696420696E64657800000000000000000000000000000000000000 PUSH1 0x44 DUP3 ADD MSTORE PUSH1 0x64 ADD PUSH2 0xC2B JUMP JUMPDEST PUSH1 0x1 DUP5 PUSH1 0xFF AND LT ISZERO DUP1 ISZERO PUSH2 0x1E74 JUMPI POP PUSH1 0x8 DUP5 PUSH1 0xFF AND GT ISZERO JUMPDEST PUSH2 0x1EC0 JUMPI PUSH1 0x40 MLOAD PUSH3 0x461BCD PUSH1 0xE5 SHL DUP2 MSTORE PUSH1 0x20 PUSH1 0x4 DUP3 ADD MSTORE PUSH1 0x15 PUSH1 0x24 DUP3 ADD MSTORE PUSH32 0x496E76616C6964207265736F7572636520747970650000000000000000000000 PUSH1 0x44 DUP3 ADD MSTORE PUSH1 0x64 ADD PUSH2 0xC2B JUMP JUMPDEST PUSH1 0xFF DUP5 AND PUSH1 0x0 SWAP1 DUP2 MSTORE PUSH1 0x5 PUSH1 0x20 MSTORE PUSH1 0x40 DUP2 KECCAK256 DUP1 SLOAD DUP6 SWAP1 DUP2 LT PUSH2 0x1EE4 JUMPI PUSH2 0x1EE4 PUSH2 0x4665 JUMP JUMPDEST PUSH1 0x0 SWAP2 DUP3 MSTORE PUSH1 0x20 DUP1 DUP4 KECCAK256 PUSH1 0x40 DUP1 MLOAD PUSH1 0x80 DUP2 ADD DUP3 MSTORE PUSH1 0x3 SWAP5 SWAP1 SWAP5 MUL SWAP1 SWAP2 ADD DUP1 SLOAD PUSH1 0x1 PUSH1 0x1 PUSH1 0xA0 SHL SUB DUP2 AND DUP1 DUP7 MSTORE PUSH21 0x10000000000000000000000000000000000000000 SWAP1 SWAP2 DIV PUSH1 0xFF AND SWAP4 DUP6 ADD SWAP4 SWAP1 SWAP4 MSTORE PUSH1 0x1 DUP2 ADD SLOAD SWAP2 DUP5 ADD DUP3 SWAP1 MSTORE PUSH1 0x2 ADD SLOAD PUSH1 0x60 DUP5 ADD DUP2 SWAP1 MSTORE SWAP3 SWAP5 POP SWAP2 SWAP3 PUSH1 0x6E PUSH2 0x1F5B DUP6 PUSH1 0x64 PUSH2 0x474C JUMP JUMPDEST PUSH2 0x1F65 SWAP2 SWAP1 PUSH2 0x4763 JUMP JUMPDEST SWAP1 POP PUSH1 0x0 PUSH2 0x1F73 DUP3 DUP7 PUSH2 0x4652 JUMP JUMPDEST PUSH1 0x1 SLOAD PUSH1 0x40 MLOAD PUSH32 0x23B872DD00000000000000000000000000000000000000000000000000000000 DUP2 MSTORE CALLER PUSH1 0x4 DUP3 ADD MSTORE ADDRESS PUSH1 0x24 DUP3 ADD MSTORE PUSH1 0x44 DUP2 ADD DUP9 SWAP1 MSTORE SWAP2 SWAP3 POP PUSH1 0x1 PUSH1 0x1 PUSH1 0xA0 SHL SUB AND SWAP1 PUSH4 0x23B872DD SWAP1 PUSH1 0x64 ADD PUSH1 0x20 PUSH1 0x40 MLOAD DUP1 DUP4 SUB DUP2 PUSH1 0x0 DUP8 GAS CALL ISZERO DUP1 ISZERO PUSH2 0x1FE4 JUMPI RETURNDATASIZE PUSH1 0x0 DUP1 RETURNDATACOPY RETURNDATASIZE PUSH1 0x0 REVERT JUMPDEST POP POP POP POP PUSH1 0x40 MLOAD RETURNDATASIZE PUSH1 0x1F NOT PUSH1 0x1F DUP3 ADD AND DUP3 ADD DUP1 PUSH1 0x40 MSTORE POP DUP2 ADD SWAP1 PUSH2 0x2008 SWAP2 SWAP1 PUSH2 0x4711 JUMP JUMPDEST PUSH2 0x207A JUMPI PUSH1 0x40 MLOAD PUSH3 0x461BCD PUSH1 0xE5 SHL DUP2 MSTORE PUSH1 0x20 PUSH1 0x4 DUP3 ADD MSTORE PUSH1 0x21 PUSH1 0x24 DUP3 ADD MSTORE PUSH32 0x546F6B656E207472616E7366657220746F20636F6E7472616374206661696C65 PUSH1 0x44 DUP3 ADD MSTORE PUSH32 0x6400000000000000000000000000000000000000000000000000000000000000 PUSH1 0x64 DUP3 ADD MSTORE PUSH1 0x84 ADD PUSH2 0xC2B JUMP JUMPDEST PUSH1 0x1 SLOAD PUSH1 0x40 MLOAD PUSH32 0xA9059CBB00000000000000000000000000000000000000000000000000000000 DUP2 MSTORE PUSH1 0x1 PUSH1 0x1 PUSH1 0xA0 SHL SUB DUP6 DUP2 AND PUSH1 0x4 DUP4 ADD MSTORE PUSH1 0x24 DUP3 ADD DUP6 SWAP1 MSTORE SWAP1 SWAP2 AND SWAP1 PUSH4 0xA9059CBB SWAP1 PUSH1 0x44 ADD PUSH1 0x20 PUSH1 0x40 MLOAD DUP1 DUP4 SUB DUP2 PUSH1 0x0 DUP8 GAS CALL ISZERO DUP1 ISZERO PUSH2 0x20E6 JUMPI RETURNDATASIZE PUSH1 0x0 DUP1 RETURNDATACOPY RETURNDATASIZE PUSH1 0x0 REVERT JUMPDEST POP POP POP POP PUSH1 0x40 MLOAD RETURNDATASIZE PUSH1 0x1F NOT PUSH1 0x1F DUP3 ADD AND DUP3 ADD DUP1 PUSH1 0x40 MSTORE POP DUP2 ADD SWAP1 PUSH2 0x210A SWAP2 SWAP1 PUSH2 0x4711 JUMP JUMPDEST PUSH2 0x2156 JUMPI PUSH1 0x40 MLOAD PUSH3 0x461BCD PUSH1 0xE5 SHL DUP2 MSTORE PUSH1 0x20 PUSH1 0x4 DUP3 ADD MSTORE PUSH1 0x19 PUSH1 0x24 DUP3 ADD MSTORE PUSH32 0x5472616E7366657220746F2073656C6C6572206661696C656400000000000000 PUSH1 0x44 DUP3 ADD MSTORE PUSH1 0x64 ADD PUSH2 0xC2B JUMP JUMPDEST PUSH1 0x1 SLOAD PUSH1 0x40 MLOAD PUSH32 0x42966C6800000000000000000000000000000000000000000000000000000000 DUP2 MSTORE PUSH1 0x4 DUP2 ADD DUP4 SWAP1 MSTORE PUSH1 0x1 PUSH1 0x1 PUSH1 0xA0 SHL SUB SWAP1 SWAP2 AND SWAP1 PUSH4 0x42966C68 SWAP1 PUSH1 0x24 ADD PUSH1 0x20 PUSH1 0x40 MLOAD DUP1 DUP4 SUB DUP2 PUSH1 0x0 DUP8 GAS CALL ISZERO DUP1 ISZERO PUSH2 0x21BA JUMPI RETURNDATASIZE PUSH1 0x0 DUP1 RETURNDATACOPY RETURNDATASIZE PUSH1 0x0 REVERT JUMPDEST POP POP POP POP PUSH1 0x40 MLOAD RETURNDATASIZE PUSH1 0x1F NOT PUSH1 0x1F DUP3 ADD AND DUP3 ADD DUP1 PUSH1 0x40 MSTORE POP DUP2 ADD SWAP1 PUSH2 0x21DE SWAP2 SWAP1 PUSH2 0x4711 JUMP JUMPDEST PUSH2 0x222A JUMPI PUSH1 0x40 MLOAD PUSH3 0x461BCD PUSH1 0xE5 SHL DUP2 MSTORE PUSH1 0x20 PUSH1 0x4 DUP3 ADD MSTORE PUSH1 0xF PUSH1 0x24 DUP3 ADD MSTORE PUSH32 0x4C4F50206275726E206661696C65640000000000000000000000000000000000 PUSH1 0x44 DUP3 ADD MSTORE PUSH1 0x64 ADD PUSH2 0xC2B JUMP JUMPDEST PUSH1 0x0 SLOAD PUSH1 0x40 MLOAD PUSH4 0x3E5F2857 PUSH1 0xE0 SHL DUP2 MSTORE PUSH1 0xFF DUP1 DUP16 AND PUSH1 0x4 DUP4 ADD MSTORE DUP1 DUP15 AND PUSH1 0x24 DUP4 ADD MSTORE DUP13 AND PUSH1 0x44 DUP3 ADD MSTORE PUSH1 0x64 DUP2 ADD DUP7 SWAP1 MSTORE PUSH1 0x1 PUSH1 0x84 DUP3 ADD MSTORE PUSH1 0x1 PUSH1 0x1 PUSH1 0xA0 SHL SUB SWAP1 SWAP2 AND SWAP1 PUSH4 0x3E5F2857 SWAP1 PUSH1 0xA4 ADD PUSH1 0x0 PUSH1 0x40 MLOAD DUP1 DUP4 SUB DUP2 PUSH1 0x0 DUP8 DUP1 EXTCODESIZE ISZERO DUP1 ISZERO PUSH2 0x2290 JUMPI PUSH1 0x0 DUP1 REVERT JUMPDEST POP GAS CALL ISZERO DUP1 ISZERO PUSH2 0x22A4 JUMPI RETURNDATASIZE PUSH1 0x0 DUP1 RETURNDATACOPY RETURNDATASIZE PUSH1 0x0 REVERT JUMPDEST POP POP POP POP PUSH1 0xFF DUP11 AND PUSH1 0x0 SWAP1 DUP2 MSTORE PUSH1 0x5 PUSH1 0x20 MSTORE PUSH1 0x40 SWAP1 KECCAK256 DUP1 SLOAD PUSH2 0x22C8 SWAP1 PUSH1 0x1 SWAP1 PUSH2 0x4652 JUMP JUMPDEST DUP2 SLOAD DUP2 LT PUSH2 0x22D8 JUMPI PUSH2 0x22D8 PUSH2 0x4665 JUMP JUMPDEST SWAP1 PUSH1 0x0 MSTORE PUSH1 0x20 PUSH1 0x0 KECCAK256 SWAP1 PUSH1 0x3 MUL ADD PUSH1 0x5 PUSH1 0x0 DUP13 PUSH1 0xFF AND PUSH1 0xFF AND DUP2 MSTORE PUSH1 0x20 ADD SWAP1 DUP2 MSTORE PUSH1 0x20 ADD PUSH1 0x0 KECCAK256 DUP11 DUP2 SLOAD DUP2 LT PUSH2 0x2310 JUMPI PUSH2 0x2310 PUSH2 0x4665 JUMP JUMPDEST PUSH1 0x0 SWAP2 DUP3 MSTORE PUSH1 0x20 DUP1 DUP4 KECCAK256 DUP5 SLOAD PUSH1 0x3 SWAP4 SWAP1 SWAP4 MUL ADD DUP1 SLOAD PUSH1 0x1 PUSH1 0x1 PUSH1 0xA0 SHL SUB SWAP1 SWAP4 AND PUSH32 0xFFFFFFFFFFFFFFFFFFFFFFFF0000000000000000000000000000000000000000 DUP5 AND DUP2 OR DUP3 SSTORE DUP6 SLOAD PUSH32 0xFFFFFFFFFFFFFFFFFFFFFF000000000000000000000000000000000000000000 SWAP1 SWAP5 AND OR PUSH21 0x10000000000000000000000000000000000000000 SWAP4 DUP5 SWAP1 DIV PUSH1 0xFF SWAP1 DUP2 AND SWAP1 SWAP5 MUL OR DUP2 SSTORE PUSH1 0x1 DUP1 DUP7 ADD SLOAD SWAP1 DUP3 ADD SSTORE PUSH1 0x2 SWAP5 DUP6 ADD SLOAD SWAP5 ADD SWAP4 SWAP1 SWAP4 SSTORE DUP13 AND DUP2 MSTORE PUSH1 0x5 SWAP1 SWAP2 MSTORE PUSH1 0x40 SWAP1 KECCAK256 DUP1 SLOAD DUP1 PUSH2 0x23D5 JUMPI PUSH2 0x23D5 PUSH2 0x48F4 JUMP JUMPDEST PUSH1 0x0 DUP3 DUP2 MSTORE PUSH1 0x20 DUP2 KECCAK256 PUSH1 0x3 PUSH1 0x0 NOT SWAP1 SWAP4 ADD SWAP3 DUP4 MUL ADD DUP1 SLOAD PUSH32 0xFFFFFFFFFFFFFFFFFFFFFF000000000000000000000000000000000000000000 AND DUP2 SSTORE PUSH1 0x1 DUP2 ADD DUP3 SWAP1 SSTORE PUSH1 0x2 ADD SSTORE SWAP1 SSTORE PUSH1 0x40 MLOAD PUSH1 0xFF DUP12 AND SWAP1 PUSH1 0x1 PUSH1 0x1 PUSH1 0xA0 SHL SUB DUP6 AND SWAP1 CALLER SWAP1 PUSH32 0xCB8E9DCE1A8C67703D11D2B78043345960BAB3C035AA061005630270B28C89EC SWAP1 PUSH2 0x246A SWAP1 DUP10 SWAP1 DUP12 SWAP1 SWAP2 DUP3 MSTORE PUSH1 0x20 DUP3 ADD MSTORE PUSH1 0x40 ADD SWAP1 JUMP JUMPDEST PUSH1 0x40 MLOAD DUP1 SWAP2 SUB SWAP1 LOG4 POP POP POP POP POP POP POP POP POP POP POP POP JUMP JUMPDEST PUSH1 0x2 SLOAD PUSH1 0x40 MLOAD PUSH32 0x8A88895300000000000000000000000000000000000000000000000000000000 DUP2 MSTORE PUSH1 0xFF DUP1 DUP9 AND PUSH1 0x4 DUP4 ADD MSTORE DUP7 AND PUSH1 0x24 DUP3 ADD MSTORE DUP7 SWAP2 DUP7 SWAP2 CALLER SWAP2 PUSH1 0x1 PUSH1 0x1 PUSH1 0xA0 SHL SUB AND SWAP1 PUSH4 0x8A888953 SWAP1 PUSH1 0x44 ADD PUSH1 0x20 PUSH1 0x40 MLOAD DUP1 DUP4 SUB DUP2 DUP7 GAS STATICCALL ISZERO DUP1 ISZERO PUSH2 0x24F0 JUMPI RETURNDATASIZE PUSH1 0x0 DUP1 RETURNDATACOPY RETURNDATASIZE PUSH1 0x0 REVERT JUMPDEST POP POP POP POP PUSH1 0x40 MLOAD RETURNDATASIZE PUSH1 0x1F NOT PUSH1 0x1F DUP3 ADD AND DUP3 ADD DUP1 PUSH1 0x40 MSTORE POP DUP2 ADD SWAP1 PUSH2 0x2514 SWAP2 SWAP1 PUSH2 0x46F4 JUMP JUMPDEST PUSH1 0x1 PUSH1 0x1 PUSH1 0xA0 SHL SUB AND EQ PUSH2 0x256A JUMPI PUSH1 0x40 MLOAD PUSH3 0x461BCD PUSH1 0xE5 SHL DUP2 MSTORE PUSH1 0x20 PUSH1 0x4 DUP3 ADD MSTORE PUSH1 0x18 PUSH1 0x24 DUP3 ADD MSTORE PUSH32 0x596F7520646F206E6F74206F776E20746869732074696C650000000000000000 PUSH1 0x44 DUP3 ADD MSTORE PUSH1 0x64 ADD PUSH2 0xC2B JUMP JUMPDEST PUSH1 0x0 SLOAD PUSH1 0x40 MLOAD PUSH32 0x5E75968E00000000000000000000000000000000000000000000000000000000 DUP2 MSTORE CALLER PUSH1 0x4 DUP3 ADD MSTORE PUSH1 0x1 PUSH1 0x1 PUSH1 0xA0 SHL SUB SWAP1 SWAP2 AND SWAP1 PUSH4 0x5E75968E SWAP1 PUSH1 0x24 ADD PUSH1 0x20 PUSH1 0x40 MLOAD DUP1 DUP4 SUB DUP2 DUP7 GAS STATICCALL ISZERO DUP1 ISZERO PUSH2 0x25CB JUMPI RETURNDATASIZE PUSH1 0x0 DUP1 RETURNDATACOPY RETURNDATASIZE PUSH1 0x0 REVERT JUMPDEST POP POP POP POP PUSH1 0x40 MLOAD RETURNDATASIZE PUSH1 0x1F NOT PUSH1 0x1F DUP3 ADD AND DUP3 ADD DUP1 PUSH1 0x40 MSTORE POP DUP2 ADD SWAP1 PUSH2 0x25EF SWAP2 SWAP1 PUSH2 0x4711 JUMP JUMPDEST PUSH2 0x263B JUMPI PUSH1 0x40 MLOAD PUSH3 0x461BCD PUSH1 0xE5 SHL DUP2 MSTORE PUSH1 0x20 PUSH1 0x4 DUP3 ADD MSTORE PUSH1 0x16 PUSH1 0x24 DUP3 ADD MSTORE PUSH32 0x596F75206D75737420686176652061204D61726B657400000000000000000000 PUSH1 0x44 DUP3 ADD MSTORE PUSH1 0x64 ADD PUSH2 0xC2B JUMP JUMPDEST PUSH3 0x989680 DUP4 LT ISZERO PUSH2 0x268E JUMPI PUSH1 0x40 MLOAD PUSH3 0x461BCD PUSH1 0xE5 SHL DUP2 MSTORE PUSH1 0x20 PUSH1 0x4 DUP3 ADD MSTORE PUSH1 0x1E PUSH1 0x24 DUP3 ADD MSTORE PUSH32 0x5072696365206D7573742062652067726561746572207468616E2074656E0000 PUSH1 0x44 DUP3 ADD MSTORE PUSH1 0x64 ADD PUSH2 0xC2B JUMP JUMPDEST PUSH1 0x1 DUP6 PUSH1 0xFF AND LT ISZERO DUP1 ISZERO PUSH2 0x26A6 JUMPI POP PUSH1 0x8 DUP6 PUSH1 0xFF AND GT ISZERO JUMPDEST PUSH2 0x26F2 JUMPI PUSH1 0x40 MLOAD PUSH3 0x461BCD PUSH1 0xE5 SHL DUP2 MSTORE PUSH1 0x20 PUSH1 0x4 DUP3 ADD MSTORE PUSH1 0x15 PUSH1 0x24 DUP3 ADD MSTORE PUSH32 0x496E76616C6964207265736F7572636520747970650000000000000000000000 PUSH1 0x44 DUP3 ADD MSTORE PUSH1 0x64 ADD PUSH2 0xC2B JUMP JUMPDEST PUSH1 0x4 DUP6 PUSH1 0xFF AND GT PUSH2 0x2764 JUMPI PUSH2 0x2710 DUP5 LT ISZERO DUP1 ISZERO PUSH2 0x2713 JUMPI POP PUSH4 0x5F5E100 DUP5 GT ISZERO JUMPDEST PUSH2 0x275F JUMPI PUSH1 0x40 MLOAD PUSH3 0x461BCD PUSH1 0xE5 SHL DUP2 MSTORE PUSH1 0x20 PUSH1 0x4 DUP3 ADD MSTORE PUSH1 0x1B PUSH1 0x24 DUP3 ADD MSTORE PUSH32 0x496E76616C696420616D6F756E7420666F72207265736F757263650000000000 PUSH1 0x44 DUP3 ADD MSTORE PUSH1 0x64 ADD PUSH2 0xC2B JUMP JUMPDEST PUSH2 0x27E9 JUMP JUMPDEST PUSH1 0x64 DUP5 LT ISZERO DUP1 ISZERO PUSH2 0x2777 JUMPI POP PUSH2 0x2710 DUP5 GT ISZERO JUMPDEST PUSH2 0x27E9 JUMPI PUSH1 0x40 MLOAD PUSH3 0x461BCD PUSH1 0xE5 SHL DUP2 MSTORE PUSH1 0x20 PUSH1 0x4 DUP3 ADD MSTORE PUSH1 0x25 PUSH1 0x24 DUP3 ADD MSTORE PUSH32 0x496E76616C696420616D6F756E7420666F72206D696C69746172792065717569 PUSH1 0x44 DUP3 ADD MSTORE PUSH32 0x706D656E74000000000000000000000000000000000000000000000000000000 PUSH1 0x64 DUP3 ADD MSTORE PUSH1 0x84 ADD PUSH2 0xC2B JUMP JUMPDEST PUSH1 0x0 DUP1 SLOAD PUSH1 0x40 MLOAD PUSH4 0x3E5F2857 PUSH1 0xE0 SHL DUP2 MSTORE PUSH1 0xFF DUP1 DUP12 AND PUSH1 0x4 DUP4 ADD MSTORE DUP1 DUP11 AND PUSH1 0x24 DUP4 ADD MSTORE DUP9 AND PUSH1 0x44 DUP3 ADD MSTORE PUSH1 0x64 DUP2 ADD DUP8 SWAP1 MSTORE PUSH1 0x84 DUP2 ADD SWAP3 SWAP1 SWAP3 MSTORE PUSH1 0x1 PUSH1 0x1 PUSH1 0xA0 SHL SUB AND SWAP1 PUSH4 0x3E5F2857 SWAP1 PUSH1 0xA4 ADD PUSH1 0x0 PUSH1 0x40 MLOAD DUP1 DUP4 SUB DUP2 PUSH1 0x0 DUP8 DUP1 EXTCODESIZE ISZERO DUP1 ISZERO PUSH2 0x284F JUMPI PUSH1 0x0 DUP1 REVERT JUMPDEST POP GAS CALL ISZERO DUP1 ISZERO PUSH2 0x2863 JUMPI RETURNDATASIZE PUSH1 0x0 DUP1 RETURNDATACOPY RETURNDATASIZE PUSH1 0x0 REVERT JUMPDEST POP POP POP POP PUSH1 0x0 PUSH1 0xA DUP5 PUSH2 0x2876 SWAP2 SWAP1 PUSH2 0x4763 JUMP JUMPDEST PUSH2 0x2880 SWAP1 DUP6 PUSH2 0x479E JUMP JUMPDEST PUSH1 0xFF DUP1 DUP9 AND PUSH1 0x0 DUP2 DUP2 MSTORE PUSH1 0x5 PUSH1 0x20 SWAP1 DUP2 MSTORE PUSH1 0x40 DUP1 DUP4 KECCAK256 DUP2 MLOAD PUSH1 0x80 DUP2 ADD DUP4 MSTORE CALLER DUP1 DUP3 MSTORE DUP2 DUP6 ADD DUP8 DUP2 MSTORE DUP3 DUP6 ADD DUP16 DUP2 MSTORE PUSH1 0x60 DUP5 ADD DUP12 DUP2 MSTORE DUP6 SLOAD PUSH1 0x1 DUP2 DUP2 ADD DUP9 SSTORE SWAP7 DUP11 MSTORE SWAP8 SWAP1 SWAP9 KECCAK256 SWAP4 MLOAD PUSH1 0x3 SWAP1 SWAP8 MUL SWAP1 SWAP4 ADD DUP1 SLOAD SWAP2 MLOAD SWAP1 SWAP10 AND PUSH21 0x10000000000000000000000000000000000000000 MUL PUSH32 0xFFFFFFFFFFFFFFFFFFFFFF000000000000000000000000000000000000000000 SWAP1 SWAP2 AND PUSH1 0x1 PUSH1 0x1 PUSH1 0xA0 SHL SUB SWAP7 SWAP1 SWAP7 AND SWAP6 SWAP1 SWAP6 OR SWAP5 SWAP1 SWAP5 OR DUP8 SSTORE MLOAD SWAP1 DUP7 ADD SSTORE SWAP2 MLOAD PUSH1 0x2 SWAP1 SWAP5 ADD SWAP4 SWAP1 SWAP4 SSTORE MLOAD SWAP3 SWAP4 POP SWAP2 PUSH32 0x9D2FA11E70F4C72F4275D772A6E09BBD83B3800A6B4F2351A7AC06DF8DB5169E SWAP1 PUSH2 0x2974 SWAP1 DUP10 SWAP1 DUP10 SWAP1 SWAP2 DUP3 MSTORE PUSH1 0x20 DUP3 ADD MSTORE PUSH1 0x40 ADD SWAP1 JUMP JUMPDEST PUSH1 0x40 MLOAD DUP1 SWAP2 SUB SWAP1 LOG3 POP POP POP POP POP POP POP POP JUMP JUMPDEST PUSH1 0x0 DUP2 PUSH1 0xFF AND DUP4 PUSH1 0xFF AND GT PUSH2 0x29A4 JUMPI PUSH2 0x299F DUP4 DUP4 PUSH2 0x4923 JUMP JUMPDEST PUSH2 0x29AE JUMP JUMPDEST PUSH2 0x29AE DUP3 DUP5 PUSH2 0x4923 JUMP JUMPDEST SWAP1 POP JUMPDEST SWAP3 SWAP2 POP POP JUMP JUMPDEST DUP2 PUSH1 0x1 PUSH1 0x1 PUSH1 0xA0 SHL SUB AND DUP2 PUSH1 0x1 PUSH1 0x1 PUSH1 0xA0 SHL SUB AND SUB PUSH2 0x2A18 JUMPI PUSH1 0x40 MLOAD PUSH3 0x461BCD PUSH1 0xE5 SHL DUP2 MSTORE PUSH1 0x20 PUSH1 0x4 DUP3 ADD MSTORE PUSH1 0x15 PUSH1 0x24 DUP3 ADD MSTORE PUSH32 0x43616E27742061747461636B20796F757273656C660000000000000000000000 PUSH1 0x44 DUP3 ADD MSTORE PUSH1 0x64 ADD PUSH2 0xC2B JUMP JUMPDEST PUSH1 0x3 SLOAD PUSH1 0x40 MLOAD PUSH32 0x7AB9E7FE00000000000000000000000000000000000000000000000000000000 DUP2 MSTORE PUSH1 0xFF DUP1 DUP10 AND PUSH1 0x4 DUP4 ADD MSTORE DUP8 AND PUSH1 0x24 DUP3 ADD MSTORE PUSH1 0x0 SWAP2 PUSH1 0x1 PUSH1 0x1 PUSH1 0xA0 SHL SUB AND SWAP1 PUSH4 0x7AB9E7FE SWAP1 PUSH1 0x44 ADD PUSH1 0x20 PUSH1 0x40 MLOAD DUP1 DUP4 SUB DUP2 DUP7 GAS STATICCALL ISZERO DUP1 ISZERO PUSH2 0x2A85 JUMPI RETURNDATASIZE PUSH1 0x0 DUP1 RETURNDATACOPY RETURNDATASIZE PUSH1 0x0 REVERT JUMPDEST POP POP POP POP PUSH1 0x40 MLOAD RETURNDATASIZE PUSH1 0x1F NOT PUSH1 0x1F DUP3 ADD AND DUP3 ADD DUP1 PUSH1 0x40 MSTORE POP DUP2 ADD SWAP1 PUSH2 0x2AA9 SWAP2 SWAP1 PUSH2 0x493C JUMP JUMPDEST PUSH1 0x3 SLOAD PUSH1 0x40 MLOAD PUSH32 0x7AB9E7FE00000000000000000000000000000000000000000000000000000000 DUP2 MSTORE PUSH1 0xFF DUP1 DUP10 AND PUSH1 0x4 DUP4 ADD MSTORE DUP8 AND PUSH1 0x24 DUP3 ADD MSTORE SWAP2 SWAP3 POP PUSH1 0x0 SWAP2 PUSH1 0x1 PUSH1 0x1 PUSH1 0xA0 SHL SUB SWAP1 SWAP2 AND SWAP1 PUSH4 0x7AB9E7FE SWAP1 PUSH1 0x44 ADD PUSH1 0x20 PUSH1 0x40 MLOAD DUP1 DUP4 SUB DUP2 DUP7 GAS STATICCALL ISZERO DUP1 ISZERO PUSH2 0x2B1B JUMPI RETURNDATASIZE PUSH1 0x0 DUP1 RETURNDATACOPY RETURNDATASIZE PUSH1 0x0 REVERT JUMPDEST POP POP POP POP PUSH1 0x40 MLOAD RETURNDATASIZE PUSH1 0x1F NOT PUSH1 0x1F DUP3 ADD AND DUP3 ADD DUP1 PUSH1 0x40 MSTORE POP DUP2 ADD SWAP1 PUSH2 0x2B3F SWAP2 SWAP1 PUSH2 0x493C JUMP JUMPDEST SWAP1 POP PUSH1 0xFF DUP3 AND ISZERO DUP1 PUSH2 0x2B52 JUMPI POP PUSH1 0xFF DUP2 AND ISZERO JUMPDEST DUP1 PUSH2 0x2B63 JUMPI POP DUP1 PUSH1 0xFF AND DUP3 PUSH1 0xFF AND EQ ISZERO JUMPDEST PUSH2 0x2BD5 JUMPI PUSH1 0x40 MLOAD PUSH3 0x461BCD PUSH1 0xE5 SHL DUP2 MSTORE PUSH1 0x20 PUSH1 0x4 DUP3 ADD MSTORE PUSH1 0x27 PUSH1 0x24 DUP3 ADD MSTORE PUSH32 0x43616E6E6F742061747461636B2061206D656D626572206F6620796F7572206F PUSH1 0x44 DUP3 ADD MSTORE PUSH32 0x776E20636C616E00000000000000000000000000000000000000000000000000 PUSH1 0x64 DUP3 ADD MSTORE PUSH1 0x84 ADD PUSH2 0xC2B JUMP JUMPDEST PUSH1 0x0 PUSH2 0x2BE1 DUP9 DUP8 PUSH2 0x2986 JUMP JUMPDEST PUSH2 0x2BEB DUP11 DUP10 PUSH2 0x2986 JUMP JUMPDEST PUSH2 0x2BF5 SWAP2 SWAP1 PUSH2 0x4733 JUMP JUMPDEST SWAP1 POP PUSH1 0x0 DUP2 PUSH1 0xFF AND GT DUP1 ISZERO PUSH2 0x2C0E JUMPI POP PUSH1 0x26 DUP2 PUSH1 0xFF AND GT ISZERO JUMPDEST PUSH2 0x2C5A JUMPI PUSH1 0x40 MLOAD PUSH3 0x461BCD PUSH1 0xE5 SHL DUP2 MSTORE PUSH1 0x20 PUSH1 0x4 DUP3 ADD MSTORE PUSH1 0x1B PUSH1 0x24 DUP3 ADD MSTORE PUSH32 0x54617267657420746F6F20666172206F722073616D652074696C650000000000 PUSH1 0x44 DUP3 ADD MSTORE PUSH1 0x64 ADD PUSH2 0xC2B JUMP JUMPDEST PUSH1 0xFF DUP1 DUP11 AND PUSH1 0x0 SWAP1 DUP2 MSTORE PUSH1 0x6 PUSH1 0x20 SWAP1 DUP2 MSTORE PUSH1 0x40 DUP1 DUP4 KECCAK256 SWAP4 DUP13 AND DUP4 MSTORE SWAP3 SWAP1 MSTORE KECCAK256 SLOAD PUSH2 0x2C86 SWAP1 PUSH2 0x12C PUSH2 0x479E JUMP JUMPDEST PUSH1 0x0 SLOAD PUSH1 0x40 MLOAD PUSH32 0x41EDE44F00000000000000000000000000000000000000000000000000000000 DUP2 MSTORE PUSH1 0xFF DUP1 DUP14 AND PUSH1 0x4 DUP4 ADD MSTORE DUP12 AND PUSH1 0x24 DUP3 ADD MSTORE PUSH1 0x1 PUSH1 0x1 PUSH1 0xA0 SHL SUB SWAP1 SWAP2 AND SWAP1 PUSH4 0x41EDE44F SWAP1 PUSH1 0x44 ADD PUSH1 0x20 PUSH1 0x40 MLOAD DUP1 DUP4 SUB DUP2 DUP7 GAS STATICCALL ISZERO DUP1 ISZERO PUSH2 0x2CF2 JUMPI RETURNDATASIZE PUSH1 0x0 DUP1 RETURNDATACOPY RETURNDATASIZE PUSH1 0x0 REVERT JUMPDEST POP POP POP POP PUSH1 0x40 MLOAD RETURNDATASIZE PUSH1 0x1F NOT PUSH1 0x1F DUP3 ADD AND DUP3 ADD DUP1 PUSH1 0x40 MSTORE POP DUP2 ADD SWAP1 PUSH2 0x2D16 SWAP2 SWAP1 PUSH2 0x4959 JUMP JUMPDEST LT ISZERO PUSH2 0x2D8A JUMPI PUSH1 0x40 MLOAD PUSH3 0x461BCD PUSH1 0xE5 SHL DUP2 MSTORE PUSH1 0x20 PUSH1 0x4 DUP3 ADD MSTORE PUSH1 0x22 PUSH1 0x24 DUP3 ADD MSTORE PUSH32 0x4E6F7420656E6F756768207475726E732073696E6365206C6173742061747461 PUSH1 0x44 DUP3 ADD MSTORE PUSH32 0x636B000000000000000000000000000000000000000000000000000000000000 PUSH1 0x64 DUP3 ADD MSTORE PUSH1 0x84 ADD PUSH2 0xC2B JUMP JUMPDEST PUSH1 0xFF DUP1 DUP9 AND PUSH1 0x0 SWAP1 DUP2 MSTORE PUSH1 0x7 PUSH1 0x20 SWAP1 DUP2 MSTORE PUSH1 0x40 DUP1 DUP4 KECCAK256 SWAP4 DUP11 AND DUP4 MSTORE SWAP3 SWAP1 MSTORE KECCAK256 SLOAD PUSH2 0x2DB6 SWAP1 PUSH2 0x12C PUSH2 0x479E JUMP JUMPDEST PUSH1 0x0 SLOAD PUSH1 0x40 MLOAD PUSH32 0x41EDE44F00000000000000000000000000000000000000000000000000000000 DUP2 MSTORE PUSH1 0xFF DUP1 DUP12 AND PUSH1 0x4 DUP4 ADD MSTORE DUP10 AND PUSH1 0x24 DUP3 ADD MSTORE PUSH1 0x1 PUSH1 0x1 PUSH1 0xA0 SHL SUB SWAP1 SWAP2 AND SWAP1 PUSH4 0x41EDE44F SWAP1 PUSH1 0x44 ADD PUSH1 0x20 PUSH1 0x40 MLOAD DUP1 DUP4 SUB DUP2 DUP7 GAS STATICCALL ISZERO DUP1 ISZERO PUSH2 0x2E22 JUMPI RETURNDATASIZE PUSH1 0x0 DUP1 RETURNDATACOPY RETURNDATASIZE PUSH1 0x0 REVERT JUMPDEST POP POP POP POP PUSH1 0x40 MLOAD RETURNDATASIZE PUSH1 0x1F NOT PUSH1 0x1F DUP3 ADD AND DUP3 ADD DUP1 PUSH1 0x40 MSTORE POP DUP2 ADD SWAP1 PUSH2 0x2E46 SWAP2 SWAP1 PUSH2 0x4959 JUMP JUMPDEST LT ISZERO PUSH2 0x2EBA JUMPI PUSH1 0x40 MLOAD PUSH3 0x461BCD PUSH1 0xE5 SHL DUP2 MSTORE PUSH1 0x20 PUSH1 0x4 DUP3 ADD MSTORE PUSH1 0x25 PUSH1 0x24 DUP3 ADD MSTORE PUSH32 0x446566656E64657220697320756E64657220636F6F6C646F776E2070726F7465 PUSH1 0x44 DUP3 ADD MSTORE PUSH32 0x6374696F6E000000000000000000000000000000000000000000000000000000 PUSH1 0x64 DUP3 ADD MSTORE PUSH1 0x84 ADD PUSH2 0xC2B JUMP JUMPDEST POP POP POP POP POP POP POP POP POP JUMP JUMPDEST PUSH1 0x0 DUP2 PUSH2 0x160 ADD MLOAD DUP3 PUSH2 0x140 ADD MLOAD PUSH2 0x2EDD SWAP2 SWAP1 PUSH2 0x479E JUMP JUMPDEST PUSH2 0x2EEB PUSH1 0xFF DUP6 AND PUSH1 0x64 PUSH2 0x474C JUMP JUMPDEST PUSH2 0x2EF5 SWAP2 SWAP1 PUSH2 0x474C JUMP JUMPDEST PUSH1 0x0 SLOAD SWAP1 SWAP2 POP PUSH1 0x1 PUSH1 0x1 PUSH1 0xA0 SHL SUB AND PUSH4 0x3E5F2857 DUP7 DUP7 PUSH1 0x1 PUSH1 0x64 PUSH2 0x2F1A DUP8 PUSH1 0x28 PUSH2 0x474C JUMP JUMPDEST PUSH2 0x2F24 SWAP2 SWAP1 PUSH2 0x4763 JUMP JUMPDEST PUSH1 0x40 MLOAD PUSH32 0xFFFFFFFF00000000000000000000000000000000000000000000000000000000 PUSH1 0xE0 DUP8 SWAP1 SHL AND DUP2 MSTORE PUSH1 0xFF SWAP5 DUP6 AND PUSH1 0x4 DUP3 ADD MSTORE SWAP3 DUP5 AND PUSH1 0x24 DUP5 ADD MSTORE SWAP3 AND PUSH1 0x44 DUP3 ADD MSTORE PUSH1 0x64 DUP2 ADD SWAP2 SWAP1 SWAP2 MSTORE PUSH1 0x0 PUSH1 0x84 DUP3 ADD MSTORE PUSH1 0xA4 ADD PUSH1 0x0 PUSH1 0x40 MLOAD DUP1 DUP4 SUB DUP2 PUSH1 0x0 DUP8 DUP1 EXTCODESIZE ISZERO DUP1 ISZERO PUSH2 0x2F95 JUMPI PUSH1 0x0 DUP1 REVERT JUMPDEST POP GAS CALL ISZERO DUP1 ISZERO PUSH2 0x2FA9 JUMPI RETURNDATASIZE PUSH1 0x0 DUP1 RETURNDATACOPY RETURNDATASIZE PUSH1 0x0 REVERT JUMPDEST POP POP PUSH1 0x0 SLOAD PUSH1 0x1 PUSH1 0x1 PUSH1 0xA0 SHL SUB AND SWAP2 POP PUSH4 0x3E5F2857 SWAP1 POP DUP7 DUP7 PUSH1 0x2 PUSH1 0x64 PUSH2 0x2FD1 DUP8 PUSH1 0x1E PUSH2 0x474C JUMP JUMPDEST PUSH2 0x2FDB SWAP2 SWAP1 PUSH2 0x4763 JUMP JUMPDEST PUSH1 0x40 MLOAD PUSH32 0xFFFFFFFF00000000000000000000000000000000000000000000000000000000 PUSH1 0xE0 DUP8 SWAP1 SHL AND DUP2 MSTORE PUSH1 0xFF SWAP5 DUP6 AND PUSH1 0x4 DUP3 ADD MSTORE SWAP3 DUP5 AND PUSH1 0x24 DUP5 ADD MSTORE SWAP3 AND PUSH1 0x44 DUP3 ADD MSTORE PUSH1 0x64 DUP2 ADD SWAP2 SWAP1 SWAP2 MSTORE PUSH1 0x0 PUSH1 0x84 DUP3 ADD MSTORE PUSH1 0xA4 ADD PUSH1 0x0 PUSH1 0x40 MLOAD DUP1 DUP4 SUB DUP2 PUSH1 0x0 DUP8 DUP1 EXTCODESIZE ISZERO DUP1 ISZERO PUSH2 0x304C JUMPI PUSH1 0x0 DUP1 REVERT JUMPDEST POP GAS CALL ISZERO DUP1 ISZERO PUSH2 0x3060 JUMPI RETURNDATASIZE PUSH1 0x0 DUP1 RETURNDATACOPY RETURNDATASIZE PUSH1 0x0 REVERT JUMPDEST POP POP PUSH1 0x0 SLOAD PUSH1 0x1 PUSH1 0x1 PUSH1 0xA0 SHL SUB AND SWAP2 POP PUSH4 0x3E5F2857 SWAP1 POP DUP7 DUP7 PUSH1 0x3 PUSH1 0x64 PUSH2 0x3088 DUP8 PUSH1 0x14 PUSH2 0x474C JUMP JUMPDEST PUSH2 0x3092 SWAP2 SWAP1 PUSH2 0x4763 JUMP JUMPDEST PUSH1 0x40 MLOAD PUSH32 0xFFFFFFFF00000000000000000000000000000000000000000000000000000000 PUSH1 0xE0 DUP8 SWAP1 SHL AND DUP2 MSTORE PUSH1 0xFF SWAP5 DUP6 AND PUSH1 0x4 DUP3 ADD MSTORE SWAP3 DUP5 AND PUSH1 0x24 DUP5 ADD MSTORE SWAP3 AND PUSH1 0x44 DUP3 ADD MSTORE PUSH1 0x64 DUP2 ADD SWAP2 SWAP1 SWAP2 MSTORE PUSH1 0x0 PUSH1 0x84 DUP3 ADD MSTORE PUSH1 0xA4 ADD PUSH1 0x0 PUSH1 0x40 MLOAD DUP1 DUP4 SUB DUP2 PUSH1 0x0 DUP8 DUP1 EXTCODESIZE ISZERO DUP1 ISZERO PUSH2 0x3103 JUMPI PUSH1 0x0 DUP1 REVERT JUMPDEST POP GAS CALL ISZERO DUP1 ISZERO PUSH2 0x3117 JUMPI RETURNDATASIZE PUSH1 0x0 DUP1 RETURNDATACOPY RETURNDATASIZE PUSH1 0x0 REVERT JUMPDEST POP POP PUSH1 0x0 SLOAD PUSH1 0x1 PUSH1 0x1 PUSH1 0xA0 SHL SUB AND SWAP2 POP PUSH4 0x3E5F2857 SWAP1 POP DUP7 DUP7 PUSH1 0x4 PUSH1 0x64 PUSH2 0x313F DUP8 PUSH1 0xA PUSH2 0x474C JUMP JUMPDEST PUSH2 0x3149 SWAP2 SWAP1 PUSH2 0x4763 JUMP JUMPDEST PUSH1 0x40 MLOAD PUSH32 0xFFFFFFFF00000000000000000000000000000000000000000000000000000000 PUSH1 0xE0 DUP8 SWAP1 SHL AND DUP2 MSTORE PUSH1 0xFF SWAP5 DUP6 AND PUSH1 0x4 DUP3 ADD MSTORE SWAP3 DUP5 AND PUSH1 0x24 DUP5 ADD MSTORE SWAP3 AND PUSH1 0x44 DUP3 ADD MSTORE PUSH1 0x64 DUP2 ADD SWAP2 SWAP1 SWAP2 MSTORE PUSH1 0x0 PUSH1 0x84 DUP3 ADD MSTORE PUSH1 0xA4 ADD PUSH1 0x0 PUSH1 0x40 MLOAD DUP1 DUP4 SUB DUP2 PUSH1 0x0 DUP8 DUP1 EXTCODESIZE ISZERO DUP1 ISZERO PUSH2 0x31BA JUMPI PUSH1 0x0 DUP1 REVERT JUMPDEST POP GAS CALL ISZERO DUP1 ISZERO PUSH2 0x2EBA JUMPI RETURNDATASIZE PUSH1 0x0 DUP1 RETURNDATACOPY RETURNDATASIZE PUSH1 0x0 REVERT JUMPDEST PUSH1 0x0 DUP1 SLOAD PUSH1 0x40 MLOAD PUSH32 0x2A490AE800000000000000000000000000000000000000000000000000000000 DUP2 MSTORE PUSH1 0xFF DUP1 DUP7 AND PUSH1 0x4 DUP4 ADD MSTORE DUP5 AND PUSH1 0x24 DUP3 ADD MSTORE DUP3 SWAP2 DUP3 SWAP2 PUSH1 0x1 PUSH1 0x1 PUSH1 0xA0 SHL SUB SWAP1 SWAP2 AND SWAP1 PUSH4 0x2A490AE8 SWAP1 PUSH1 0x44 ADD PUSH1 0x20 PUSH1 0x40 MLOAD DUP1 DUP4 SUB DUP2 DUP7 GAS STATICCALL ISZERO DUP1 ISZERO PUSH2 0x323F JUMPI RETURNDATASIZE PUSH1 0x0 DUP1 RETURNDATACOPY RETURNDATASIZE PUSH1 0x0 REVERT JUMPDEST POP POP POP POP PUSH1 0x40 MLOAD RETURNDATASIZE PUSH1 0x1F NOT PUSH1 0x1F DUP3 ADD AND DUP3 ADD DUP1 PUSH1 0x40 MSTORE POP DUP2 ADD SWAP1 PUSH2 0x3263 SWAP2 SWAP1 PUSH2 0x4959 JUMP JUMPDEST SWAP1 POP PUSH1 0x0 DUP8 PUSH1 0x80 ADD MLOAD PUSH2 0xFFFF AND DUP9 PUSH2 0x180 ADD MLOAD PUSH1 0xFF AND DUP10 PUSH2 0x160 ADD MLOAD DUP11 PUSH2 0x140 ADD MLOAD PUSH1 0x2 PUSH2 0x3291 SWAP2 SWAP1 PUSH2 0x474C JUMP JUMPDEST PUSH2 0x329B SWAP2 SWAP1 PUSH2 0x479E JUMP JUMPDEST PUSH2 0x32A5 SWAP2 SWAP1 PUSH2 0x479E JUMP JUMPDEST PUSH2 0x32AF SWAP2 SWAP1 PUSH2 0x479E JUMP JUMPDEST SWAP1 POP PUSH1 0x0 PUSH2 0x32BE DUP4 PUSH1 0x64 PUSH2 0x474C JUMP JUMPDEST DUP9 PUSH1 0x80 ADD MLOAD PUSH2 0xFFFF AND DUP10 PUSH2 0x1A0 ADD MLOAD PUSH1 0xFF AND DUP11 PUSH2 0x160 ADD MLOAD PUSH1 0x2 PUSH2 0x32E2 SWAP2 SWAP1 PUSH2 0x474C JUMP JUMPDEST DUP12 PUSH2 0x140 ADD MLOAD PUSH2 0x32F2 SWAP2 SWAP1 PUSH2 0x479E JUMP JUMPDEST PUSH2 0x32FC SWAP2 SWAP1 PUSH2 0x479E JUMP JUMPDEST PUSH2 0x3306 SWAP2 SWAP1 PUSH2 0x479E JUMP JUMPDEST PUSH2 0x3310 SWAP2 SWAP1 PUSH2 0x479E JUMP JUMPDEST SWAP2 SWAP10 SWAP2 SWAP9 POP SWAP1 SWAP7 POP POP POP POP POP POP POP JUMP JUMPDEST PUSH2 0x334B PUSH1 0x40 MLOAD DUP1 PUSH1 0x80 ADD PUSH1 0x40 MSTORE DUP1 PUSH1 0x0 DUP2 MSTORE PUSH1 0x20 ADD PUSH1 0x0 DUP2 MSTORE PUSH1 0x20 ADD PUSH1 0x0 DUP2 MSTORE PUSH1 0x20 ADD PUSH1 0x0 DUP2 MSTORE POP SWAP1 JUMP JUMPDEST PUSH1 0x0 PUSH2 0x3369 DUP4 PUSH1 0x80 ADD MLOAD DUP5 PUSH1 0xA0 ADD MLOAD DUP6 PUSH1 0xC0 ADD MLOAD DUP7 PUSH1 0xE0 ADD MLOAD PUSH2 0x3CF5 JUMP JUMPDEST DUP1 MLOAD SWAP1 SWAP2 POP ISZERO PUSH2 0x33FA JUMPI PUSH1 0x0 DUP1 SLOAD DUP5 MLOAD PUSH1 0x20 DUP7 ADD MLOAD DUP5 MLOAD PUSH1 0x40 MLOAD PUSH4 0x3E5F2857 PUSH1 0xE0 SHL DUP2 MSTORE PUSH1 0xFF SWAP4 DUP5 AND PUSH1 0x4 DUP3 ADD MSTORE SWAP3 SWAP1 SWAP2 AND PUSH1 0x24 DUP4 ADD MSTORE PUSH1 0x9 PUSH1 0x44 DUP4 ADD MSTORE PUSH1 0x64 DUP3 ADD MSTORE PUSH1 0x84 DUP2 ADD SWAP3 SWAP1 SWAP3 MSTORE PUSH1 0x1 PUSH1 0x1 PUSH1 0xA0 SHL SUB AND SWAP1 PUSH4 0x3E5F2857 SWAP1 PUSH1 0xA4 ADD PUSH1 0x0 PUSH1 0x40 MLOAD DUP1 DUP4 SUB DUP2 PUSH1 0x0 DUP8 DUP1 EXTCODESIZE ISZERO DUP1 ISZERO PUSH2 0x33E1 JUMPI PUSH1 0x0 DUP1 REVERT JUMPDEST POP GAS CALL ISZERO DUP1 ISZERO PUSH2 0x33F5 JUMPI RETURNDATASIZE PUSH1 0x0 DUP1 RETURNDATACOPY RETURNDATASIZE PUSH1 0x0 REVERT JUMPDEST POP POP POP POP JUMPDEST PUSH1 0x20 DUP2 ADD MLOAD ISZERO PUSH2 0x348E JUMPI PUSH1 0x0 DUP1 SLOAD DUP5 MLOAD PUSH1 0x20 DUP1 DUP8 ADD MLOAD SWAP1 DUP6 ADD MLOAD PUSH1 0x40 MLOAD PUSH4 0x3E5F2857 PUSH1 0xE0 SHL DUP2 MSTORE PUSH1 0xFF SWAP4 DUP5 AND PUSH1 0x4 DUP3 ADD MSTORE SWAP3 SWAP1 SWAP2 AND PUSH1 0x24 DUP4 ADD MSTORE PUSH1 0xA PUSH1 0x44 DUP4 ADD MSTORE PUSH1 0x64 DUP3 ADD MSTORE PUSH1 0x84 DUP2 ADD SWAP3 SWAP1 SWAP3 MSTORE PUSH1 0x1 PUSH1 0x1 PUSH1 0xA0 SHL SUB AND SWAP1 PUSH4 0x3E5F2857 SWAP1 PUSH1 0xA4 ADD PUSH1 0x0 PUSH1 0x40 MLOAD DUP1 DUP4 SUB DUP2 PUSH1 0x0 DUP8 DUP1 EXTCODESIZE ISZERO DUP1 ISZERO PUSH2 0x3475 JUMPI PUSH1 0x0 DUP1 REVERT JUMPDEST POP GAS CALL ISZERO DUP1 ISZERO PUSH2 0x3489 JUMPI RETURNDATASIZE PUSH1 0x0 DUP1 RETURNDATACOPY RETURNDATASIZE PUSH1 0x0 REVERT JUMPDEST POP POP POP POP JUMPDEST PUSH1 0x40 DUP2 ADD MLOAD ISZERO PUSH2 0x3525 JUMPI PUSH1 0x0 DUP1 SLOAD PUSH1 0x40 DUP6 DUP2 ADD MLOAD PUSH1 0x60 DUP8 ADD MLOAD DUP6 DUP4 ADD MLOAD SWAP3 MLOAD PUSH4 0x3E5F2857 PUSH1 0xE0 SHL DUP2 MSTORE PUSH1 0xFF SWAP3 DUP4 AND PUSH1 0x4 DUP3 ADD MSTORE SWAP2 AND PUSH1 0x24 DUP3 ADD MSTORE PUSH1 0x9 PUSH1 0x44 DUP3 ADD MSTORE PUSH1 0x64 DUP2 ADD SWAP2 SWAP1 SWAP2 MSTORE PUSH1 0x84 DUP2 ADD SWAP3 SWAP1 SWAP3 MSTORE PUSH1 0x1 PUSH1 0x1 PUSH1 0xA0 SHL SUB AND SWAP1 PUSH4 0x3E5F2857 SWAP1 PUSH1 0xA4 ADD PUSH1 0x0 PUSH1 0x40 MLOAD DUP1 DUP4 SUB DUP2 PUSH1 0x0 DUP8 DUP1 EXTCODESIZE ISZERO DUP1 ISZERO PUSH2 0x350C JUMPI PUSH1 0x0 DUP1 REVERT JUMPDEST POP GAS CALL ISZERO DUP1 ISZERO PUSH2 0x3520 JUMPI RETURNDATASIZE PUSH1 0x0 DUP1 RETURNDATACOPY RETURNDATASIZE PUSH1 0x0 REVERT JUMPDEST POP POP POP POP JUMPDEST PUSH1 0x60 DUP2 ADD MLOAD ISZERO PUSH2 0x29B1 JUMPI PUSH1 0x0 DUP1 SLOAD PUSH1 0x40 DUP6 DUP2 ADD MLOAD PUSH1 0x60 DUP1 DUP9 ADD MLOAD SWAP1 DUP7 ADD MLOAD SWAP3 MLOAD PUSH4 0x3E5F2857 PUSH1 0xE0 SHL DUP2 MSTORE PUSH1 0xFF SWAP3 DUP4 AND PUSH1 0x4 DUP3 ADD MSTORE SWAP2 AND PUSH1 0x24 DUP3 ADD MSTORE PUSH1 0xA PUSH1 0x44 DUP3 ADD MSTORE PUSH1 0x64 DUP2 ADD SWAP2 SWAP1 SWAP2 MSTORE PUSH1 0x84 DUP2 ADD SWAP3 SWAP1 SWAP3 MSTORE PUSH1 0x1 PUSH1 0x1 PUSH1 0xA0 SHL SUB AND SWAP1 PUSH4 0x3E5F2857 SWAP1 PUSH1 0xA4 ADD PUSH1 0x0 PUSH1 0x40 MLOAD DUP1 DUP4 SUB DUP2 PUSH1 0x0 DUP8 DUP1 EXTCODESIZE ISZERO DUP1 ISZERO PUSH2 0x35A4 JUMPI PUSH1 0x0 DUP1 REVERT JUMPDEST POP GAS CALL ISZERO DUP1 ISZERO PUSH2 0x35B8 JUMPI RETURNDATASIZE PUSH1 0x0 DUP1 RETURNDATACOPY RETURNDATASIZE PUSH1 0x0 REVERT JUMPDEST POP POP POP POP SWAP3 SWAP2 POP POP JUMP JUMPDEST PUSH1 0x0 DUP1 DUP3 PUSH1 0xE0 ADD MLOAD DUP4 PUSH1 0xC0 ADD MLOAD GT PUSH2 0x35ED JUMPI DUP3 PUSH1 0xC0 ADD MLOAD DUP4 PUSH1 0xE0 ADD MLOAD PUSH2 0x35E8 SWAP2 SWAP1 PUSH2 0x4652 JUMP JUMPDEST PUSH2 0x3601 JUMP JUMPDEST DUP3 PUSH1 0xE0 ADD MLOAD DUP4 PUSH1 0xC0 ADD MLOAD PUSH2 0x3601 SWAP2 SWAP1 PUSH2 0x4652 JUMP JUMPDEST SWAP1 POP PUSH1 0x0 DUP4 PUSH1 0xE0 ADD MLOAD DUP5 PUSH1 0xC0 ADD MLOAD PUSH2 0x3619 SWAP2 SWAP1 PUSH2 0x479E JUMP JUMPDEST SWAP1 POP PUSH1 0x0 DUP2 PUSH2 0x3629 DUP5 PUSH1 0x64 PUSH2 0x474C JUMP JUMPDEST PUSH2 0x3633 SWAP2 SWAP1 PUSH2 0x4763 JUMP JUMPDEST SWAP1 POP PUSH1 0x0 PUSH2 0x364E PUSH2 0x3645 DUP4 PUSH1 0x1E PUSH2 0x479E JUMP JUMPDEST PUSH1 0xA PUSH1 0x3C PUSH2 0x3F3F JUMP JUMPDEST SWAP1 POP PUSH2 0x3678 PUSH1 0x1 DUP8 PUSH1 0xA0 ADD MLOAD PUSH1 0x0 ADD MLOAD DUP9 PUSH1 0x0 ADD MLOAD DUP10 PUSH1 0x20 ADD MLOAD DUP11 PUSH1 0x40 ADD MLOAD DUP12 PUSH1 0x60 ADD MLOAD DUP8 PUSH2 0x3F69 JUMP JUMPDEST PUSH2 0x3682 SWAP1 DUP7 PUSH2 0x479E JUMP JUMPDEST SWAP5 POP PUSH2 0x36AC PUSH1 0x2 DUP8 PUSH1 0xA0 ADD MLOAD PUSH1 0x20 ADD MLOAD DUP9 PUSH1 0x0 ADD MLOAD DUP10 PUSH1 0x20 ADD MLOAD DUP11 PUSH1 0x40 ADD MLOAD DUP12 PUSH1 0x60 ADD MLOAD DUP8 PUSH2 0x3F69 JUMP JUMPDEST PUSH2 0x36B6 SWAP1 DUP7 PUSH2 0x479E JUMP JUMPDEST SWAP5 POP PUSH2 0x36E0 PUSH1 0x3 DUP8 PUSH1 0xA0 ADD MLOAD PUSH1 0x40 ADD MLOAD DUP9 PUSH1 0x0 ADD MLOAD DUP10 PUSH1 0x20 ADD MLOAD DUP11 PUSH1 0x40 ADD MLOAD DUP12 PUSH1 0x60 ADD MLOAD DUP8 PUSH2 0x3F69 JUMP JUMPDEST PUSH2 0x36EA SWAP1 DUP7 PUSH2 0x479E JUMP JUMPDEST SWAP5 POP PUSH2 0x3714 PUSH1 0x4 DUP8 PUSH1 0xA0 ADD MLOAD PUSH1 0x60 ADD MLOAD DUP9 PUSH1 0x0 ADD MLOAD DUP10 PUSH1 0x20 ADD MLOAD DUP11 PUSH1 0x40 ADD MLOAD DUP12 PUSH1 0x60 ADD MLOAD DUP8 PUSH2 0x3F69 JUMP JUMPDEST PUSH2 0x371E SWAP1 DUP7 PUSH2 0x479E JUMP JUMPDEST SWAP7 SWAP6 POP POP POP POP POP POP JUMP JUMPDEST PUSH1 0x0 SLOAD DUP5 MLOAD PUSH1 0x20 DUP7 ADD MLOAD PUSH1 0x40 MLOAD PUSH32 0x41EDE44F00000000000000000000000000000000000000000000000000000000 DUP2 MSTORE PUSH1 0xFF SWAP3 DUP4 AND PUSH1 0x4 DUP3 ADD MSTORE SWAP2 AND PUSH1 0x24 DUP3 ADD MSTORE PUSH1 0x1 PUSH1 0x1 PUSH1 0xA0 SHL SUB SWAP1 SWAP2 AND SWAP1 PUSH4 0x41EDE44F SWAP1 PUSH1 0x44 ADD PUSH1 0x20 PUSH1 0x40 MLOAD DUP1 DUP4 SUB DUP2 DUP7 GAS STATICCALL ISZERO DUP1 ISZERO PUSH2 0x379B JUMPI RETURNDATASIZE PUSH1 0x0 DUP1 RETURNDATACOPY RETURNDATASIZE PUSH1 0x0 REVERT JUMPDEST POP POP POP POP PUSH1 0x40 MLOAD RETURNDATASIZE PUSH1 0x1F NOT PUSH1 0x1F DUP3 ADD AND DUP3 ADD DUP1 PUSH1 0x40 MSTORE POP DUP2 ADD SWAP1 PUSH2 0x37BF SWAP2 SWAP1 PUSH2 0x4959 JUMP JUMPDEST DUP5 MLOAD PUSH1 0xFF SWAP1 DUP2 AND PUSH1 0x0 SWAP1 DUP2 MSTORE PUSH1 0x6 PUSH1 0x20 SWAP1 DUP2 MSTORE PUSH1 0x40 DUP1 DUP4 KECCAK256 DUP3 DUP11 ADD MLOAD DUP6 AND DUP5 MSTORE SWAP1 SWAP2 MSTORE DUP1 DUP3 KECCAK256 SWAP4 SWAP1 SWAP4 SSTORE SLOAD DUP3 DUP8 ADD MLOAD PUSH1 0x60 DUP9 ADD MLOAD SWAP4 MLOAD PUSH32 0x41EDE44F00000000000000000000000000000000000000000000000000000000 DUP2 MSTORE SWAP1 DUP4 AND PUSH1 0x4 DUP3 ADD MSTORE SWAP3 SWAP1 SWAP2 AND PUSH1 0x24 DUP4 ADD MSTORE PUSH1 0x1 PUSH1 0x1 PUSH1 0xA0 SHL SUB AND SWAP1 PUSH4 0x41EDE44F SWAP1 PUSH1 0x44 ADD PUSH1 0x20 PUSH1 0x40 MLOAD DUP1 DUP4 SUB DUP2 DUP7 GAS STATICCALL ISZERO DUP1 ISZERO PUSH2 0x3859 JUMPI RETURNDATASIZE PUSH1 0x0 DUP1 RETURNDATACOPY RETURNDATASIZE PUSH1 0x0 REVERT JUMPDEST POP POP POP POP PUSH1 0x40 MLOAD RETURNDATASIZE PUSH1 0x1F NOT PUSH1 0x1F DUP3 ADD AND DUP3 ADD DUP1 PUSH1 0x40 MSTORE POP DUP2 ADD SWAP1 PUSH2 0x387D SWAP2 SWAP1 PUSH2 0x4959 JUMP JUMPDEST PUSH1 0x40 DUP6 DUP2 ADD MLOAD PUSH1 0xFF SWAP1 DUP2 AND PUSH1 0x0 SWAP1 DUP2 MSTORE PUSH1 0x7 PUSH1 0x20 SWAP1 DUP2 MSTORE DUP4 DUP3 KECCAK256 PUSH1 0x60 DUP11 ADD MLOAD DUP5 AND DUP4 MSTORE DUP2 MSTORE DUP4 DUP3 KECCAK256 SWAP5 SWAP1 SWAP5 SSTORE SLOAD DUP8 MLOAD SWAP4 DUP9 ADD MLOAD SWAP3 MLOAD PUSH32 0x7659BC6000000000000000000000000000000000000000000000000000000000 DUP2 MSTORE SWAP4 DUP3 AND PUSH1 0x4 DUP6 ADD MSTORE SWAP2 AND PUSH1 0x24 DUP4 ADD MSTORE PUSH1 0x1 PUSH1 0x1 PUSH1 0xA0 SHL SUB AND SWAP1 PUSH4 0x7659BC60 SWAP1 PUSH1 0x44 ADD PUSH1 0x0 PUSH1 0x40 MLOAD DUP1 DUP4 SUB DUP2 PUSH1 0x0 DUP8 DUP1 EXTCODESIZE ISZERO DUP1 ISZERO PUSH2 0x3911 JUMPI PUSH1 0x0 DUP1 REVERT JUMPDEST POP GAS CALL ISZERO DUP1 ISZERO PUSH2 0x3925 JUMPI RETURNDATASIZE PUSH1 0x0 DUP1 RETURNDATACOPY RETURNDATASIZE PUSH1 0x0 REVERT JUMPDEST POP POP PUSH1 0x0 SLOAD PUSH1 0x40 DUP8 DUP2 ADD MLOAD PUSH1 0x60 DUP10 ADD MLOAD SWAP2 MLOAD PUSH32 0x7659BC6000000000000000000000000000000000000000000000000000000000 DUP2 MSTORE PUSH1 0xFF SWAP2 DUP3 AND PUSH1 0x4 DUP3 ADD MSTORE SWAP2 AND PUSH1 0x24 DUP3 ADD MSTORE PUSH1 0x1 PUSH1 0x1 PUSH1 0xA0 SHL SUB SWAP1 SWAP2 AND SWAP3 POP PUSH4 0x7659BC60 SWAP2 POP PUSH1 0x44 ADD PUSH1 0x0 PUSH1 0x40 MLOAD DUP1 DUP4 SUB DUP2 PUSH1 0x0 DUP8 DUP1 EXTCODESIZE ISZERO DUP1 ISZERO PUSH2 0x399C JUMPI PUSH1 0x0 DUP1 REVERT JUMPDEST POP GAS CALL ISZERO DUP1 ISZERO PUSH2 0x39B0 JUMPI RETURNDATASIZE PUSH1 0x0 DUP1 RETURNDATACOPY RETURNDATASIZE PUSH1 0x0 REVERT JUMPDEST POP POP POP POP PUSH1 0x0 DUP5 PUSH1 0xE0 ADD MLOAD DUP6 PUSH1 0xC0 ADD MLOAD GT SWAP1 POP PUSH1 0x8 PUSH1 0x40 MLOAD DUP1 PUSH2 0x1A0 ADD PUSH1 0x40 MSTORE DUP1 DUP8 PUSH1 0x0 ADD MLOAD PUSH1 0xFF AND DUP2 MSTORE PUSH1 0x20 ADD DUP8 PUSH1 0x20 ADD MLOAD PUSH1 0xFF AND DUP2 MSTORE PUSH1 0x20 ADD DUP8 PUSH1 0x40 ADD MLOAD PUSH1 0xFF AND DUP2 MSTORE PUSH1 0x20 ADD DUP8 PUSH1 0x60 ADD MLOAD PUSH1 0xFF AND DUP2 MSTORE PUSH1 0x20 ADD TIMESTAMP DUP2 MSTORE PUSH1 0x20 ADD DUP7 PUSH1 0x40 ADD MLOAD ISZERO ISZERO DUP2 MSTORE PUSH1 0x20 ADD DUP8 PUSH1 0x80 ADD MLOAD PUSH2 0x160 ADD MLOAD DUP9 PUSH1 0x80 ADD MLOAD PUSH2 0x140 ADD MLOAD PUSH2 0x3A35 SWAP2 SWAP1 PUSH2 0x479E JUMP JUMPDEST DUP2 MSTORE DUP7 MLOAD PUSH1 0x20 DUP2 DUP2 ADD MLOAD SWAP2 MLOAD SWAP3 ADD SWAP2 PUSH2 0x3A4E SWAP2 SWAP1 PUSH2 0x479E JUMP JUMPDEST DUP2 MSTORE PUSH1 0x20 ADD DUP8 PUSH1 0xC0 ADD MLOAD DUP2 MSTORE PUSH1 0x20 ADD DUP8 PUSH1 0xA0 ADD MLOAD PUSH2 0x160 ADD MLOAD DUP9 PUSH1 0xA0 ADD MLOAD PUSH2 0x140 ADD MLOAD PUSH2 0x3A7B SWAP2 SWAP1 PUSH2 0x479E JUMP JUMPDEST DUP2 MSTORE PUSH1 0x20 ADD DUP7 PUSH1 0x0 ADD MLOAD PUSH1 0x60 ADD MLOAD DUP8 PUSH1 0x0 ADD MLOAD PUSH1 0x40 ADD MLOAD PUSH2 0x3A9C SWAP2 SWAP1 PUSH2 0x479E JUMP JUMPDEST DUP2 MSTORE PUSH1 0xE0 DUP9 DUP2 ADD MLOAD PUSH1 0x20 DUP1 DUP5 ADD SWAP2 SWAP1 SWAP2 MSTORE DUP9 DUP2 ADD MLOAD PUSH1 0x40 SWAP4 DUP5 ADD MSTORE DUP5 SLOAD PUSH1 0x1 DUP1 DUP3 ADD DUP8 SSTORE PUSH1 0x0 SWAP7 DUP8 MSTORE DUP3 DUP8 KECCAK256 DUP7 MLOAD PUSH1 0xA SWAP1 SWAP4 MUL ADD DUP1 SLOAD DUP8 DUP6 ADD MLOAD DUP9 DUP9 ADD MLOAD PUSH1 0x60 DUP11 ADD MLOAD PUSH1 0xFF SWAP7 DUP8 AND PUSH32 0xFFFFFFFFFFFFFFFFFFFFFFFFFFFFFFFFFFFFFFFFFFFFFFFFFFFFFFFFFFFF0000 SWAP1 SWAP5 AND SWAP4 SWAP1 SWAP4 OR PUSH2 0x100 SWAP3 DUP8 AND DUP4 MUL OR PUSH32 0xFFFFFFFFFFFFFFFFFFFFFFFFFFFFFFFFFFFFFFFFFFFFFFFFFFFFFFFF0000FFFF AND PUSH3 0x10000 SWAP2 DUP8 AND SWAP2 SWAP1 SWAP2 MUL PUSH32 0xFFFFFFFFFFFFFFFFFFFFFFFFFFFFFFFFFFFFFFFFFFFFFFFFFFFFFFFF00FFFFFF AND OR PUSH4 0x1000000 SWAP6 SWAP1 SWAP3 AND SWAP5 SWAP1 SWAP5 MUL OR DUP2 SSTORE PUSH1 0x80 DUP8 ADD MLOAD DUP2 DUP4 ADD SSTORE PUSH1 0xA0 DUP8 ADD MLOAD PUSH1 0x2 DUP3 ADD DUP1 SLOAD PUSH32 0xFFFFFFFFFFFFFFFFFFFFFFFFFFFFFFFFFFFFFFFFFFFFFFFFFFFFFFFFFFFFFF00 AND SWAP2 ISZERO ISZERO SWAP2 SWAP1 SWAP2 OR SWAP1 SSTORE PUSH1 0xC0 DUP8 ADD MLOAD PUSH1 0x3 DUP3 ADD SSTORE SWAP4 DUP7 ADD MLOAD PUSH1 0x4 DUP6 ADD SSTORE SWAP1 DUP6 ADD MLOAD PUSH1 0x5 DUP5 ADD SSTORE PUSH2 0x120 DUP6 ADD MLOAD PUSH1 0x6 DUP5 ADD SSTORE PUSH2 0x140 DUP6 ADD MLOAD PUSH1 0x7 DUP5 ADD SSTORE PUSH2 0x160 DUP6 ADD MLOAD PUSH1 0x8 DUP1 DUP6 ADD SWAP2 SWAP1 SWAP2 SSTORE PUSH2 0x180 SWAP1 SWAP6 ADD MLOAD PUSH1 0x9 SWAP4 DUP5 ADD SSTORE PUSH1 0x1 PUSH1 0x1 PUSH1 0xA0 SHL SUB DUP10 AND DUP7 MSTORE SWAP2 SWAP1 MSTORE SWAP3 KECCAK256 SWAP1 SLOAD SWAP1 SWAP2 PUSH2 0x3C20 SWAP2 PUSH2 0x4652 JUMP JUMPDEST DUP2 SLOAD PUSH1 0x1 DUP2 DUP2 ADD DUP5 SSTORE PUSH1 0x0 SWAP4 DUP5 MSTORE PUSH1 0x20 DUP1 DUP6 KECCAK256 SWAP1 SWAP3 ADD SWAP3 SWAP1 SWAP3 SSTORE PUSH1 0x1 PUSH1 0x1 PUSH1 0xA0 SHL SUB DUP6 AND DUP4 MSTORE PUSH1 0x9 SWAP1 MSTORE PUSH1 0x40 SWAP1 SWAP2 KECCAK256 PUSH1 0x8 SLOAD SWAP1 SWAP2 PUSH2 0x3C5D SWAP2 PUSH2 0x4652 JUMP JUMPDEST DUP2 SLOAD PUSH1 0x1 DUP2 ADD DUP4 SSTORE PUSH1 0x0 SWAP3 DUP4 MSTORE PUSH1 0x20 SWAP3 DUP4 SWAP1 KECCAK256 ADD SSTORE DUP6 MLOAD DUP7 DUP3 ADD MLOAD PUSH1 0x40 DUP1 DUP10 ADD MLOAD PUSH1 0x60 DUP1 DUP12 ADD MLOAD DUP4 MLOAD PUSH1 0xFF SWAP7 DUP8 AND DUP2 MSTORE SWAP5 DUP7 AND SWAP7 DUP6 ADD SWAP7 SWAP1 SWAP7 MSTORE SWAP1 DUP5 AND SWAP2 DUP4 ADD SWAP2 SWAP1 SWAP2 MSTORE SWAP2 SWAP1 SWAP3 AND SWAP1 DUP3 ADD MSTORE DUP2 ISZERO ISZERO PUSH1 0x80 DUP3 ADD MSTORE PUSH1 0x1 PUSH1 0x1 PUSH1 0xA0 SHL SUB DUP4 DUP2 AND SWAP2 SWAP1 DUP6 AND SWAP1 PUSH32 0x47389018A4BFD5E1EF612F1FE9082CC3E3675BE36E77743A6BFAF0EA011D586F SWAP1 PUSH1 0xA0 ADD PUSH1 0x40 MLOAD DUP1 SWAP2 SUB SWAP1 LOG3 POP POP POP POP POP JUMP JUMPDEST PUSH2 0x3D20 PUSH1 0x40 MLOAD DUP1 PUSH1 0x80 ADD PUSH1 0x40 MSTORE DUP1 PUSH1 0x0 DUP2 MSTORE PUSH1 0x20 ADD PUSH1 0x0 DUP2 MSTORE PUSH1 0x20 ADD PUSH1 0x0 DUP2 MSTORE PUSH1 0x20 ADD PUSH1 0x0 DUP2 MSTORE POP SWAP1 JUMP JUMPDEST PUSH1 0x0 DUP3 DUP5 GT PUSH2 0x3D38 JUMPI PUSH2 0x3D33 DUP5 DUP5 PUSH2 0x4652 JUMP JUMPDEST PUSH2 0x3D42 JUMP JUMPDEST PUSH2 0x3D42 DUP4 DUP6 PUSH2 0x4652 JUMP JUMPDEST SWAP1 POP PUSH1 0x0 PUSH2 0x3D50 DUP5 DUP7 PUSH2 0x479E JUMP JUMPDEST SWAP1 POP PUSH1 0x0 DUP2 PUSH2 0x3D60 DUP5 PUSH1 0x64 PUSH2 0x474C JUMP JUMPDEST PUSH2 0x3D6A SWAP2 SWAP1 PUSH2 0x4763 JUMP JUMPDEST SWAP1 POP DUP5 DUP7 GT ISZERO PUSH2 0x3E63 JUMPI PUSH1 0x64 PUSH2 0x3D9F PUSH1 0x2 PUSH2 0x3D85 DUP5 DUP5 PUSH2 0x4652 JUMP JUMPDEST PUSH2 0x3D8F SWAP2 SWAP1 PUSH2 0x4763 JUMP JUMPDEST PUSH2 0x3D9A SWAP1 PUSH1 0x19 PUSH2 0x479E JUMP JUMPDEST PUSH2 0x4097 JUMP JUMPDEST DUP10 PUSH2 0x140 ADD MLOAD PUSH2 0x3DAF SWAP2 SWAP1 PUSH2 0x474C JUMP JUMPDEST PUSH2 0x3DB9 SWAP2 SWAP1 PUSH2 0x4763 JUMP JUMPDEST DUP5 MSTORE PUSH1 0x64 PUSH2 0x3DE1 PUSH1 0x4 PUSH2 0x3DCC DUP5 DUP5 PUSH2 0x4652 JUMP JUMPDEST PUSH2 0x3DD6 SWAP2 SWAP1 PUSH2 0x4763 JUMP JUMPDEST PUSH2 0x3D9A SWAP1 PUSH1 0xA PUSH2 0x479E JUMP JUMPDEST DUP10 PUSH2 0x160 ADD MLOAD PUSH2 0x3DF1 SWAP2 SWAP1 PUSH2 0x474C JUMP JUMPDEST PUSH2 0x3DFB SWAP2 SWAP1 PUSH2 0x4763 JUMP JUMPDEST PUSH1 0x20 DUP6 ADD MSTORE PUSH1 0x64 PUSH2 0x3E10 PUSH2 0x3D9A DUP4 PUSH1 0x32 PUSH2 0x479E JUMP JUMPDEST DUP9 PUSH2 0x140 ADD MLOAD PUSH2 0x3E20 SWAP2 SWAP1 PUSH2 0x474C JUMP JUMPDEST PUSH2 0x3E2A SWAP2 SWAP1 PUSH2 0x4763 JUMP JUMPDEST PUSH1 0x40 DUP6 ADD MSTORE PUSH1 0x64 PUSH2 0x3E3F PUSH2 0x3D9A DUP4 PUSH1 0x32 PUSH2 0x479E JUMP JUMPDEST DUP9 PUSH2 0x160 ADD MLOAD PUSH2 0x3E4F SWAP2 SWAP1 PUSH2 0x474C JUMP JUMPDEST PUSH2 0x3E59 SWAP2 SWAP1 PUSH2 0x4763 JUMP JUMPDEST PUSH1 0x60 DUP6 ADD MSTORE PUSH2 0x3F34 JUMP JUMPDEST PUSH1 0x64 PUSH2 0x3E73 PUSH2 0x3D9A DUP4 PUSH1 0x32 PUSH2 0x479E JUMP JUMPDEST DUP10 PUSH2 0x140 ADD MLOAD PUSH2 0x3E83 SWAP2 SWAP1 PUSH2 0x474C JUMP JUMPDEST PUSH2 0x3E8D SWAP2 SWAP1 PUSH2 0x4763 JUMP JUMPDEST DUP5 MSTORE PUSH1 0x64 PUSH2 0x3E9F PUSH2 0x3D8F PUSH1 0x2 DUP5 PUSH2 0x4763 JUMP JUMPDEST DUP10 PUSH2 0x160 ADD MLOAD PUSH2 0x3EAF SWAP2 SWAP1 PUSH2 0x474C JUMP JUMPDEST PUSH2 0x3EB9 SWAP2 SWAP1 PUSH2 0x4763 JUMP JUMPDEST PUSH1 0x20 DUP6 ADD MSTORE PUSH1 0x64 PUSH2 0x3EE4 PUSH1 0x4 PUSH2 0x3ECF DUP5 DUP5 PUSH2 0x4652 JUMP JUMPDEST PUSH2 0x3ED9 SWAP2 SWAP1 PUSH2 0x4763 JUMP JUMPDEST PUSH2 0x3D9A SWAP1 PUSH1 0xF PUSH2 0x479E JUMP JUMPDEST DUP9 PUSH2 0x140 ADD MLOAD PUSH2 0x3EF4 SWAP2 SWAP1 PUSH2 0x474C JUMP JUMPDEST PUSH2 0x3EFE SWAP2 SWAP1 PUSH2 0x4763 JUMP JUMPDEST PUSH1 0x40 DUP6 ADD MSTORE PUSH1 0x64 PUSH2 0x3F14 PUSH1 0x4 PUSH2 0x3DCC DUP5 DUP5 PUSH2 0x4652 JUMP JUMPDEST DUP9 PUSH2 0x160 ADD MLOAD PUSH2 0x3F24 SWAP2 SWAP1 PUSH2 0x474C JUMP JUMPDEST PUSH2 0x3F2E SWAP2 SWAP1 PUSH2 0x4763 JUMP JUMPDEST PUSH1 0x60 DUP6 ADD MSTORE JUMPDEST POP POP POP SWAP5 SWAP4 POP POP POP POP JUMP JUMPDEST PUSH1 0x0 DUP3 DUP5 LT ISZERO PUSH2 0x3F50 JUMPI POP DUP2 PUSH2 0x3F62 JUMP JUMPDEST DUP2 DUP5 GT ISZERO PUSH2 0x3F5F JUMPI POP DUP1 PUSH2 0x3F62 JUMP JUMPDEST POP DUP3 JUMPDEST SWAP4 SWAP3 POP POP POP JUMP JUMPDEST PUSH1 0x0 PUSH1 0x1 DUP8 GT ISZERO PUSH2 0x408C JUMPI PUSH1 0x64 PUSH2 0x3F80 DUP4 DUP10 PUSH2 0x474C JUMP JUMPDEST PUSH2 0x3F8A SWAP2 SWAP1 PUSH2 0x4763 JUMP JUMPDEST PUSH1 0x0 DUP1 SLOAD PUSH1 0x40 MLOAD PUSH4 0x3E5F2857 PUSH1 0xE0 SHL DUP2 MSTORE PUSH1 0xFF DUP1 DUP10 AND PUSH1 0x4 DUP4 ADD MSTORE DUP1 DUP9 AND PUSH1 0x24 DUP4 ADD MSTORE DUP13 AND PUSH1 0x44 DUP3 ADD MSTORE PUSH1 0x64 DUP2 ADD DUP5 SWAP1 MSTORE PUSH1 0x84 DUP2 ADD SWAP3 SWAP1 SWAP3 MSTORE SWAP2 SWAP3 POP PUSH1 0x1 PUSH1 0x1 PUSH1 0xA0 SHL SUB SWAP1 SWAP2 AND SWAP1 PUSH4 0x3E5F2857 SWAP1 PUSH1 0xA4 ADD PUSH1 0x0 PUSH1 0x40 MLOAD DUP1 DUP4 SUB DUP2 PUSH1 0x0 DUP8 DUP1 EXTCODESIZE ISZERO DUP1 ISZERO PUSH2 0x3FF5 JUMPI PUSH1 0x0 DUP1 REVERT JUMPDEST POP GAS CALL ISZERO DUP1 ISZERO PUSH2 0x4009 JUMPI RETURNDATASIZE PUSH1 0x0 DUP1 RETURNDATACOPY RETURNDATASIZE PUSH1 0x0 REVERT JUMPDEST POP POP PUSH1 0x0 SLOAD PUSH1 0x40 MLOAD PUSH4 0x3E5F2857 PUSH1 0xE0 SHL DUP2 MSTORE PUSH1 0xFF DUP1 DUP12 AND PUSH1 0x4 DUP4 ADD MSTORE DUP1 DUP11 AND PUSH1 0x24 DUP4 ADD MSTORE DUP13 AND PUSH1 0x44 DUP3 ADD MSTORE PUSH1 0x64 DUP2 ADD DUP6 SWAP1 MSTORE PUSH1 0x1 PUSH1 0x84 DUP3 ADD MSTORE PUSH1 0x1 PUSH1 0x1 PUSH1 0xA0 SHL SUB SWAP1 SWAP2 AND SWAP3 POP PUSH4 0x3E5F2857 SWAP2 POP PUSH1 0xA4 ADD PUSH1 0x0 PUSH1 0x40 MLOAD DUP1 DUP4 SUB DUP2 PUSH1 0x0 DUP8 DUP1 EXTCODESIZE ISZERO DUP1 ISZERO PUSH2 0x4073 JUMPI PUSH1 0x0 DUP1 REVERT JUMPDEST POP GAS CALL ISZERO DUP1 ISZERO PUSH2 0x4087 JUMPI RETURNDATASIZE PUSH1 0x0 DUP1 RETURNDATACOPY RETURNDATASIZE PUSH1 0x0 REVERT JUMPDEST POP POP POP POP JUMPDEST SWAP8 SWAP7 POP POP POP POP POP POP POP JUMP JUMPDEST PUSH1 0x0 PUSH2 0x29B1 PUSH2 0x40A7 DUP4 PUSH1 0xA PUSH2 0x40AE JUMP JUMPDEST PUSH1 0x5A PUSH2 0x40C4 JUMP JUMPDEST PUSH1 0x0 DUP2 DUP4 GT PUSH2 0x40BD JUMPI DUP2 PUSH2 0x29AE JUMP JUMPDEST POP SWAP1 SWAP2 SWAP1 POP JUMP JUMPDEST PUSH1 0x0 DUP2 DUP4 LT PUSH2 0x40BD JUMPI DUP2 PUSH2 0x29AE JUMP JUMPDEST PUSH1 0x40 MLOAD DUP1 PUSH2 0x100 ADD PUSH1 0x40 MSTORE DUP1 PUSH1 0x0 PUSH1 0xFF AND DUP2 MSTORE PUSH1 0x20 ADD PUSH1 0x0 PUSH1 0xFF AND DUP2 MSTORE PUSH1 0x20 ADD PUSH1 0x0 PUSH1 0xFF AND DUP2 MSTORE PUSH1 0x20 ADD PUSH1 0x0 PUSH1 0xFF AND DUP2 MSTORE PUSH1 0x20 ADD PUSH2 0x418A PUSH1 0x40 MLOAD DUP1 PUSH2 0x1E0 ADD PUSH1 0x40 MSTORE DUP1 PUSH1 0x0 DUP2 MSTORE PUSH1 0x20 ADD PUSH1 0x0 DUP2 MSTORE PUSH1 0x20 ADD PUSH1 0x0 DUP2 MSTORE PUSH1 0x20 ADD PUSH1 0x0 DUP2 MSTORE PUSH1 0x20 ADD PUSH1 0x0 PUSH2 0xFFFF AND DUP2 MSTORE PUSH1 0x20 ADD PUSH1 0x0 DUP2 MSTORE PUSH1 0x20 ADD PUSH1 0x0 DUP2 MSTORE PUSH1 0x20 ADD PUSH1 0x0 DUP2 MSTORE PUSH1 0x20 ADD PUSH1 0x0 DUP2 MSTORE PUSH1 0x20 ADD PUSH1 0x0 DUP2 MSTORE PUSH1 0x20 ADD PUSH1 0x0 DUP2 MSTORE PUSH1 0x20 ADD PUSH1 0x0 DUP2 MSTORE PUSH1 0x20 ADD PUSH1 0x0 PUSH1 0xFF AND DUP2 MSTORE PUSH1 0x20 ADD PUSH1 0x0 PUSH1 0xFF AND DUP2 MSTORE PUSH1 0x20 ADD PUSH1 0x0 DUP2 MSTORE POP SWAP1 JUMP JUMPDEST DUP2 MSTORE PUSH1 0x20 ADD PUSH2 0x4212 PUSH1 0x40 MLOAD DUP1 PUSH2 0x1E0 ADD PUSH1 0x40 MSTORE DUP1 PUSH1 0x0 DUP2 MSTORE PUSH1 0x20 ADD PUSH1 0x0 DUP2 MSTORE PUSH1 0x20 ADD PUSH1 0x0 DUP2 MSTORE PUSH1 0x20 ADD PUSH1 0x0 DUP2 MSTORE PUSH1 0x20 ADD PUSH1 0x0 PUSH2 0xFFFF AND DUP2 MSTORE PUSH1 0x20 ADD PUSH1 0x0 DUP2 MSTORE PUSH1 0x20 ADD PUSH1 0x0 DUP2 MSTORE PUSH1 0x20 ADD PUSH1 0x0 DUP2 MSTORE PUSH1 0x20 ADD PUSH1 0x0 DUP2 MSTORE PUSH1 0x20 ADD PUSH1 0x0 DUP2 MSTORE PUSH1 0x20 ADD PUSH1 0x0 DUP2 MSTORE PUSH1 0x20 ADD PUSH1 0x0 DUP2 MSTORE PUSH1 0x20 ADD PUSH1 0x0 PUSH1 0xFF AND DUP2 MSTORE PUSH1 0x20 ADD PUSH1 0x0 PUSH1 0xFF AND DUP2 MSTORE PUSH1 0x20 ADD PUSH1 0x0 DUP2 MSTORE POP SWAP1 JUMP JUMPDEST DUP2 MSTORE PUSH1 0x20 ADD PUSH1 0x0 DUP2 MSTORE PUSH1 0x20 ADD PUSH1 0x0 DUP2 MSTORE POP SWAP1 JUMP JUMPDEST PUSH1 0x40 MLOAD DUP1 PUSH1 0x60 ADD PUSH1 0x40 MSTORE DUP1 PUSH2 0x425C PUSH1 0x40 MLOAD DUP1 PUSH1 0x80 ADD PUSH1 0x40 MSTORE DUP1 PUSH1 0x0 DUP2 MSTORE PUSH1 0x20 ADD PUSH1 0x0 DUP2 MSTORE PUSH1 0x20 ADD PUSH1 0x0 DUP2 MSTORE PUSH1 0x20 ADD PUSH1 0x0 DUP2 MSTORE POP SWAP1 JUMP JUMPDEST DUP2 MSTORE PUSH1 0x0 PUSH1 0x20 DUP3 ADD DUP2 SWAP1 MSTORE PUSH1 0x40 SWAP1 SWAP2 ADD MSTORE SWAP1 JUMP JUMPDEST PUSH1 0x0 PUSH1 0x20 DUP3 DUP5 SUB SLT ISZERO PUSH2 0x4282 JUMPI PUSH1 0x0 DUP1 REVERT JUMPDEST POP CALLDATALOAD SWAP2 SWAP1 POP JUMP JUMPDEST PUSH1 0x20 DUP1 DUP3 MSTORE DUP3 MLOAD DUP3 DUP3 ADD DUP2 SWAP1 MSTORE PUSH1 0x0 SWAP2 SWAP1 PUSH1 0x40 SWAP1 DUP2 DUP6 ADD SWAP1 DUP7 DUP5 ADD DUP6 JUMPDEST DUP3 DUP2 LT ISZERO PUSH2 0x434E JUMPI DUP2 MLOAD DUP1 MLOAD PUSH1 0xFF SWAP1 DUP2 AND DUP7 MSTORE DUP8 DUP3 ADD MLOAD DUP2 AND DUP9 DUP8 ADD MSTORE DUP7 DUP3 ADD MLOAD DUP2 AND DUP8 DUP8 ADD MSTORE PUSH1 0x60 DUP1 DUP4 ADD MLOAD SWAP1 SWAP2 AND SWAP1 DUP7 ADD MSTORE PUSH1 0x80 DUP1 DUP3 ADD MLOAD SWAP1 DUP7 ADD MSTORE PUSH1 0xA0 DUP1 DUP3 ADD MLOAD ISZERO ISZERO SWAP1 DUP7 ADD MSTORE PUSH1 0xC0 DUP1 DUP3 ADD MLOAD SWAP1 DUP7 ADD MSTORE PUSH1 0xE0 DUP1 DUP3 ADD MLOAD SWAP1 DUP7 ADD MSTORE PUSH2 0x100 DUP1 DUP3 ADD MLOAD SWAP1 DUP7 ADD MSTORE PUSH2 0x120 DUP1 DUP3 ADD MLOAD SWAP1 DUP7 ADD MSTORE PUSH2 0x140 DUP1 DUP3 ADD MLOAD SWAP1 DUP7 ADD MSTORE PUSH2 0x160 DUP1 DUP3 ADD MLOAD SWAP1 DUP7 ADD MSTORE PUSH2 0x180 SWAP1 DUP2 ADD MLOAD SWAP1 DUP6 ADD MSTORE PUSH2 0x1A0 SWAP1 SWAP4 ADD SWAP3 SWAP1 DUP6 ADD SWAP1 PUSH1 0x1 ADD PUSH2 0x42A6 JUMP JUMPDEST POP SWAP2 SWAP8 SWAP7 POP POP POP POP POP POP POP JUMP JUMPDEST PUSH1 0xFF DUP2 AND DUP2 EQ PUSH2 0x436A JUMPI PUSH1 0x0 DUP1 REVERT JUMPDEST POP JUMP JUMPDEST PUSH1 0x0 DUP1 PUSH1 0x40 DUP4 DUP6 SUB SLT ISZERO PUSH2 0x4380 JUMPI PUSH1 0x0 DUP1 REVERT JUMPDEST DUP3 CALLDATALOAD PUSH2 0x438B DUP2 PUSH2 0x435B JUMP JUMPDEST SWAP5 PUSH1 0x20 SWAP4 SWAP1 SWAP4 ADD CALLDATALOAD SWAP4 POP POP POP JUMP JUMPDEST PUSH1 0x1 PUSH1 0x1 PUSH1 0xA0 SHL SUB DUP2 AND DUP2 EQ PUSH2 0x436A JUMPI PUSH1 0x0 DUP1 REVERT JUMPDEST PUSH1 0x0 PUSH1 0x20 DUP3 DUP5 SUB SLT ISZERO PUSH2 0x43C0 JUMPI PUSH1 0x0 DUP1 REVERT JUMPDEST DUP2 CALLDATALOAD PUSH2 0x3F62 DUP2 PUSH2 0x4399 JUMP JUMPDEST PUSH1 0x0 PUSH1 0x20 DUP3 DUP5 SUB SLT ISZERO PUSH2 0x43DD JUMPI PUSH1 0x0 DUP1 REVERT JUMPDEST DUP2 CALLDATALOAD PUSH2 0x3F62 DUP2 PUSH2 0x435B JUMP JUMPDEST PUSH1 0x20 DUP1 DUP3 MSTORE DUP3 MLOAD DUP3 DUP3 ADD DUP2 SWAP1 MSTORE PUSH1 0x0 SWAP2 SWAP1 PUSH1 0x40 SWAP1 DUP2 DUP6 ADD SWAP1 DUP7 DUP5 ADD DUP6 JUMPDEST DUP3 DUP2 LT ISZERO PUSH2 0x434E JUMPI DUP2 MLOAD DUP1 MLOAD PUSH1 0x1 PUSH1 0x1 PUSH1 0xA0 SHL SUB AND DUP6 MSTORE DUP7 DUP2 ADD MLOAD PUSH1 0xFF AND DUP8 DUP7 ADD MSTORE DUP6 DUP2 ADD MLOAD DUP7 DUP7 ADD MSTORE PUSH1 0x60 SWAP1 DUP2 ADD MLOAD SWAP1 DUP6 ADD MSTORE PUSH1 0x80 SWAP1 SWAP4 ADD SWAP3 SWAP1 DUP6 ADD SWAP1 PUSH1 0x1 ADD PUSH2 0x4405 JUMP JUMPDEST PUSH1 0x0 DUP1 PUSH1 0x0 DUP1 PUSH1 0x0 DUP1 PUSH1 0xC0 DUP8 DUP10 SUB SLT ISZERO PUSH2 0x4464 JUMPI PUSH1 0x0 DUP1 REVERT JUMPDEST DUP7 CALLDATALOAD PUSH2 0x446F DUP2 PUSH2 0x435B JUMP JUMPDEST SWAP6 POP PUSH1 0x20 DUP8 ADD CALLDATALOAD PUSH2 0x447F DUP2 PUSH2 0x435B JUMP JUMPDEST SWAP5 POP PUSH1 0x40 DUP8 ADD CALLDATALOAD PUSH2 0x448F DUP2 PUSH2 0x435B JUMP JUMPDEST SWAP4 POP PUSH1 0x60 DUP8 ADD CALLDATALOAD PUSH2 0x449F DUP2 PUSH2 0x435B JUMP JUMPDEST SWAP3 POP PUSH1 0x80 DUP8 ADD CALLDATALOAD PUSH2 0x44AF DUP2 PUSH2 0x435B JUMP JUMPDEST DUP1 SWAP3 POP POP PUSH1 0xA0 DUP8 ADD CALLDATALOAD SWAP1 POP SWAP3 SWAP6 POP SWAP3 SWAP6 POP SWAP3 SWAP6 JUMP JUMPDEST PUSH1 0x0 DUP1 PUSH1 0x0 DUP1 PUSH1 0x80 DUP6 DUP8 SUB SLT ISZERO PUSH2 0x44DA JUMPI PUSH1 0x0 DUP1 REVERT JUMPDEST DUP5 CALLDATALOAD PUSH2 0x44E5 DUP2 PUSH2 0x435B JUMP JUMPDEST SWAP4 POP PUSH1 0x20 DUP6 ADD CALLDATALOAD PUSH2 0x44F5 DUP2 PUSH2 0x435B JUMP JUMPDEST SWAP3 POP PUSH1 0x40 DUP6 ADD CALLDATALOAD PUSH2 0x4505 DUP2 PUSH2 0x435B JUMP JUMPDEST SWAP2 POP PUSH1 0x60 DUP6 ADD CALLDATALOAD PUSH2 0x4515 DUP2 PUSH2 0x435B JUMP JUMPDEST SWAP4 SWAP7 SWAP3 SWAP6 POP SWAP1 SWAP4 POP POP JUMP JUMPDEST PUSH1 0x0 DUP1 PUSH1 0x40 DUP4 DUP6 SUB SLT ISZERO PUSH2 0x4533 JUMPI PUSH1 0x0 DUP1 REVERT JUMPDEST DUP3 CALLDATALOAD PUSH2 0x453E DUP2 PUSH2 0x435B JUMP JUMPDEST SWAP2 POP PUSH1 0x20 DUP4 ADD CALLDATALOAD PUSH2 0x454E DUP2 PUSH2 0x435B JUMP JUMPDEST DUP1 SWAP2 POP POP SWAP3 POP SWAP3 SWAP1 POP JUMP JUMPDEST PUSH1 0x0 DUP1 PUSH1 0x40 DUP4 DUP6 SUB SLT ISZERO PUSH2 0x456C JUMPI PUSH1 0x0 DUP1 REVERT JUMPDEST DUP3 CALLDATALOAD PUSH2 0x438B DUP2 PUSH2 0x4399 JUMP JUMPDEST PUSH1 0x0 DUP1 PUSH1 0x0 DUP1 PUSH1 0x80 DUP6 DUP8 SUB SLT ISZERO PUSH2 0x458D JUMPI PUSH1 0x0 DUP1 REVERT JUMPDEST DUP5 CALLDATALOAD PUSH2 0x4598 DUP2 PUSH2 0x435B JUMP JUMPDEST SWAP4 POP PUSH1 0x20 DUP6 ADD CALLDATALOAD PUSH2 0x45A8 DUP2 PUSH2 0x435B JUMP JUMPDEST SWAP3 POP PUSH1 0x40 DUP6 ADD CALLDATALOAD PUSH2 0x45B8 DUP2 PUSH2 0x435B JUMP JUMPDEST SWAP4 SWAP7 SWAP3 SWAP6 POP SWAP3 SWAP4 PUSH1 0x60 ADD CALLDATALOAD SWAP3 POP POP JUMP JUMPDEST PUSH1 0x0 DUP1 PUSH1 0x0 DUP1 PUSH1 0x0 PUSH1 0xA0 DUP7 DUP9 SUB SLT ISZERO PUSH2 0x45E0 JUMPI PUSH1 0x0 DUP1 REVERT JUMPDEST DUP6 CALLDATALOAD PUSH2 0x45EB DUP2 PUSH2 0x435B JUMP JUMPDEST SWAP5 POP PUSH1 0x20 DUP7 ADD CALLDATALOAD PUSH2 0x45FB DUP2 PUSH2 0x435B JUMP JUMPDEST SWAP4 POP PUSH1 0x40 DUP7 ADD CALLDATALOAD PUSH2 0x460B DUP2 PUSH2 0x435B JUMP JUMPDEST SWAP5 SWAP8 SWAP4 SWAP7 POP SWAP4 SWAP5 PUSH1 0x60 DUP2 ADD CALLDATALOAD SWAP5 POP PUSH1 0x80 ADD CALLDATALOAD SWAP3 SWAP2 POP POP JUMP JUMPDEST PUSH32 0x4E487B7100000000000000000000000000000000000000000000000000000000 PUSH1 0x0 MSTORE PUSH1 0x11 PUSH1 0x4 MSTORE PUSH1 0x24 PUSH1 0x0 REVERT JUMPDEST DUP2 DUP2 SUB DUP2 DUP2 GT ISZERO PUSH2 0x29B1 JUMPI PUSH2 0x29B1 PUSH2 0x4623 JUMP JUMPDEST PUSH32 0x4E487B7100000000000000000000000000000000000000000000000000000000 PUSH1 0x0 MSTORE PUSH1 0x32 PUSH1 0x4 MSTORE PUSH1 0x24 PUSH1 0x0 REVERT JUMPDEST PUSH1 0x0 PUSH1 0x0 NOT DUP3 SUB PUSH2 0x46A7 JUMPI PUSH2 0x46A7 PUSH2 0x4623 JUMP JUMPDEST POP PUSH1 0x1 ADD SWAP1 JUMP JUMPDEST PUSH1 0x0 DUP2 PUSH2 0x46BD JUMPI PUSH2 0x46BD PUSH2 0x4623 JUMP JUMPDEST POP PUSH1 0x0 NOT ADD SWAP1 JUMP JUMPDEST PUSH32 0x4E487B7100000000000000000000000000000000000000000000000000000000 PUSH1 0x0 MSTORE PUSH1 0x41 PUSH1 0x4 MSTORE PUSH1 0x24 PUSH1 0x0 REVERT JUMPDEST PUSH1 0x0 PUSH1 0x20 DUP3 DUP5 SUB SLT ISZERO PUSH2 0x4706 JUMPI PUSH1 0x0 DUP1 REVERT JUMPDEST DUP2 MLOAD PUSH2 0x3F62 DUP2 PUSH2 0x4399 JUMP JUMPDEST PUSH1 0x0 PUSH1 0x20 DUP3 DUP5 SUB SLT ISZERO PUSH2 0x4723 JUMPI PUSH1 0x0 DUP1 REVERT JUMPDEST DUP2 MLOAD DUP1 ISZERO ISZERO DUP2 EQ PUSH2 0x3F62 JUMPI PUSH1 0x0 DUP1 REVERT JUMPDEST PUSH1 0xFF DUP2 DUP2 AND DUP4 DUP3 AND ADD SWAP1 DUP2 GT ISZERO PUSH2 0x29B1 JUMPI PUSH2 0x29B1 PUSH2 0x4623 JUMP JUMPDEST DUP1 DUP3 MUL DUP2 ISZERO DUP3 DUP3 DIV DUP5 EQ OR PUSH2 0x29B1 JUMPI PUSH2 0x29B1 PUSH2 0x4623 JUMP JUMPDEST PUSH1 0x0 DUP3 PUSH2 0x4799 JUMPI PUSH32 0x4E487B7100000000000000000000000000000000000000000000000000000000 PUSH1 0x0 MSTORE PUSH1 0x12 PUSH1 0x4 MSTORE PUSH1 0x24 PUSH1 0x0 REVERT JUMPDEST POP DIV SWAP1 JUMP JUMPDEST DUP1 DUP3 ADD DUP1 DUP3 GT ISZERO PUSH2 0x29B1 JUMPI PUSH2 0x29B1 PUSH2 0x4623 JUMP JUMPDEST PUSH1 0x40 MLOAD PUSH2 0x1E0 DUP2 ADD PUSH8 0xFFFFFFFFFFFFFFFF DUP2 GT DUP3 DUP3 LT OR ISZERO PUSH2 0x47FC JUMPI PUSH32 0x4E487B7100000000000000000000000000000000000000000000000000000000 PUSH1 0x0 MSTORE PUSH1 0x41 PUSH1 0x4 MSTORE PUSH1 0x24 PUSH1 0x0 REVERT JUMPDEST PUSH1 0x40 MSTORE SWAP1 JUMP JUMPDEST DUP1 MLOAD PUSH2 0xFFFF DUP2 AND DUP2 EQ PUSH2 0x4814 JUMPI PUSH1 0x0 DUP1 REVERT JUMPDEST SWAP2 SWAP1 POP JUMP JUMPDEST DUP1 MLOAD PUSH2 0x4814 DUP2 PUSH2 0x435B JUMP JUMPDEST PUSH1 0x0 PUSH2 0x1E0 DUP3 DUP5 SUB SLT ISZERO PUSH2 0x4837 JUMPI PUSH1 0x0 DUP1 REVERT JUMPDEST PUSH2 0x483F PUSH2 0x47B1 JUMP JUMPDEST DUP3 MLOAD DUP2 MSTORE PUSH1 0x20 DUP4 ADD MLOAD PUSH1 0x20 DUP3 ADD MSTORE PUSH1 0x40 DUP4 ADD MLOAD PUSH1 0x40 DUP3 ADD MSTORE PUSH1 0x60 DUP4 ADD MLOAD PUSH1 0x60 DUP3 ADD MSTORE PUSH2 0x486D PUSH1 0x80 DUP5 ADD PUSH2 0x4802 JUMP JUMPDEST PUSH1 0x80 DUP3 ADD MSTORE PUSH1 0xA0 DUP4 DUP2 ADD MLOAD SWAP1 DUP3 ADD MSTORE PUSH1 0xC0 DUP1 DUP5 ADD MLOAD SWAP1 DUP3 ADD MSTORE PUSH1 0xE0 DUP1 DUP5 ADD MLOAD SWAP1 DUP3 ADD MSTORE PUSH2 0x100 DUP1 DUP5 ADD MLOAD SWAP1 DUP3 ADD MSTORE PUSH2 0x120 DUP1 DUP5 ADD MLOAD SWAP1 DUP3 ADD MSTORE PUSH2 0x140 DUP1 DUP5 ADD MLOAD SWAP1 DUP3 ADD MSTORE PUSH2 0x160 DUP1 DUP5 ADD MLOAD SWAP1 DUP3 ADD MSTORE PUSH2 0x180 PUSH2 0x48CA DUP2 DUP6 ADD PUSH2 0x4819 JUMP JUMPDEST SWAP1 DUP3 ADD MSTORE PUSH2 0x1A0 PUSH2 0x48DC DUP5 DUP3 ADD PUSH2 0x4819 JUMP JUMPDEST SWAP1 DUP3 ADD MSTORE PUSH2 0x1C0 SWAP3 DUP4 ADD MLOAD SWAP3 DUP2 ADD SWAP3 SWAP1 SWAP3 MSTORE POP SWAP2 SWAP1 POP JUMP JUMPDEST PUSH32 0x4E487B7100000000000000000000000000000000000000000000000000000000 PUSH1 0x0 MSTORE PUSH1 0x31 PUSH1 0x4 MSTORE PUSH1 0x24 PUSH1 0x0 REVERT JUMPDEST PUSH1 0xFF DUP3 DUP2 AND DUP3 DUP3 AND SUB SWAP1 DUP2 GT ISZERO PUSH2 0x29B1 JUMPI PUSH2 0x29B1 PUSH2 0x4623 JUMP JUMPDEST PUSH1 0x0 PUSH1 0x20 DUP3 DUP5 SUB SLT ISZERO PUSH2 0x494E JUMPI PUSH1 0x0 DUP1 REVERT JUMPDEST DUP2 MLOAD PUSH2 0x3F62 DUP2 PUSH2 0x435B JUMP JUMPDEST PUSH1 0x0 PUSH1 0x20 DUP3 DUP5 SUB SLT ISZERO PUSH2 0x496B JUMPI PUSH1 0x0 DUP1 REVERT JUMPDEST POP MLOAD SWAP2 SWAP1 POP JUMP INVALID LOG2 PUSH5 0x6970667358 0x22 SLT KECCAK256 0xF6 0x2E 0xAD SSTORE 0xFB PUSH21 0x243DE2B688D52FE92AC77F356F3C4465C04E0790D2 0xB9 0xDB 0x2A SELFBALANCE DUP10 PUSH5 0x736F6C6343 STOP ADDMOD SLT STOP CALLER "
		},
		"gasEstimates": {
			"creation": {
				"codeDepositCost": "3771200",
				"executionCost": "infinite",
				"totalCost": "infinite"
			},
			"external": {
				"ATTACK_COST_FACTOR()": "263",
				"attackTile(uint8,uint8,uint8,uint8)": "infinite",
				"buyItem(uint8,uint8,uint8,uint256)": "infinite",
				"clanContract()": "2381",
				"getAllPlayerWars(address)": "infinite",
				"getAllWarHistory()": "infinite",
				"getListingsByResourceType(uint8)": "infinite",
				"getRecentPlayerWars(address)": "infinite",
				"getRecentWarHistory()": "infinite",
				"lastAttackTurn(uint8,uint8)": "infinite",
				"lastDefenseTurn(uint8,uint8)": "infinite",
				"listItemForSale(uint8,uint8,uint8,uint256,uint256)": "infinite",
				"lopToken()": "2383",
				"marketListings(uint8,uint256)": "9133",
				"playerWars(address,uint256)": "4827",
				"resourceMessages(uint8,uint8)": "infinite",
				"sendResources(uint8,uint8,uint8,uint8,uint8,uint256)": "infinite",
				"theLand()": "2404",
				"tileMapPhaser()": "2404",
				"warHistory(uint256)": "23990"
			},
			"internal": {
				"_absDiff(uint8,uint8)": "infinite",
				"_applySoldierLoss(struct MarketPlace.AttackContext memory)": "infinite",
				"_calculatePowers(struct ITheLand.TileDataResponse memory,struct ITheLand.TileDataResponse memory,uint8,uint8)": "infinite",
				"_calculateSoldierLosses(struct ITheLand.TileDataResponse memory,struct ITheLand.TileDataResponse memory,uint256,uint256)": "infinite",
				"_capBetween(uint256,uint256,uint256)": "92",
				"_capLossPercent(uint256)": "infinite",
				"_finalizeAttack(struct MarketPlace.AttackContext memory,struct MarketPlace.BattleResult memory,address,address)": "infinite",
				"_max(uint256,uint256)": "65",
				"_min(uint256,uint256)": "65",
				"_payAttackResourceCost(uint8,uint8,uint8,struct ITheLand.TileDataResponse memory)": "infinite",
				"_stealOneResource(uint8,uint256,uint8,uint8,uint8,uint8,uint256)": "infinite",
				"_stealResources(struct MarketPlace.AttackContext memory)": "infinite",
				"_validateAttack(uint8,uint8,uint8,uint8,address,address)": "infinite"
			}
		},
		"methodIdentifiers": {
			"ATTACK_COST_FACTOR()": "10ac4633",
			"attackTile(uint8,uint8,uint8,uint8)": "697e71d2",
			"buyItem(uint8,uint8,uint8,uint256)": "999a2f7a",
			"clanContract()": "c49443ac",
			"getAllPlayerWars(address)": "8972ae26",
			"getAllWarHistory()": "2456028b",
			"getListingsByResourceType(uint8)": "4b4d9f89",
			"getRecentPlayerWars(address)": "40ca262a",
			"getRecentWarHistory()": "03c59f79",
			"lastAttackTurn(uint8,uint8)": "763540cd",
			"lastDefenseTurn(uint8,uint8)": "70d27e41",
			"listItemForSale(uint8,uint8,uint8,uint256,uint256)": "ca030079",
			"lopToken()": "0d67f59e",
			"marketListings(uint8,uint256)": "3e6abf42",
			"playerWars(address,uint256)": "8e9197b4",
			"resourceMessages(uint8,uint8)": "e450909a",
			"sendResources(uint8,uint8,uint8,uint8,uint8,uint256)": "54adac10",
			"theLand()": "b0d77774",
			"tileMapPhaser()": "4f264b03",
			"warHistory(uint256)": "0075c079"
		}
	},
	"abi": [
		{
			"inputs": [
				{
					"internalType": "address",
					"name": "_theLand",
					"type": "address"
				},
				{
					"internalType": "address",
					"name": "_lopToken",
					"type": "address"
				},
				{
					"internalType": "address",
					"name": "_tileMapPhaser",
					"type": "address"
				},
				{
					"internalType": "address",
					"name": "_clanContract",
					"type": "address"
				}
			],
			"stateMutability": "nonpayable",
			"type": "constructor"
		},
		{
			"anonymous": false,
			"inputs": [
				{
					"indexed": true,
					"internalType": "address",
					"name": "seller",
					"type": "address"
				},
				{
					"indexed": true,
					"internalType": "uint8",
					"name": "resourceType",
					"type": "uint8"
				},
				{
					"indexed": false,
					"internalType": "uint256",
					"name": "amount",
					"type": "uint256"
				},
				{
					"indexed": false,
					"internalType": "uint256",
					"name": "price",
					"type": "uint256"
				}
			],
			"name": "ItemListed",
			"type": "event"
		},
		{
			"anonymous": false,
			"inputs": [
				{
					"indexed": true,
					"internalType": "address",
					"name": "buyer",
					"type": "address"
				},
				{
					"indexed": true,
					"internalType": "address",
					"name": "seller",
					"type": "address"
				},
				{
					"indexed": true,
					"internalType": "uint8",
					"name": "resourceType",
					"type": "uint8"
				},
				{
					"indexed": false,
					"internalType": "uint256",
					"name": "amount",
					"type": "uint256"
				},
				{
					"indexed": false,
					"internalType": "uint256",
					"name": "price",
					"type": "uint256"
				}
			],
			"name": "ItemPurchased",
			"type": "event"
		},
		{
			"anonymous": false,
			"inputs": [
				{
					"indexed": true,
					"internalType": "address",
					"name": "seller",
					"type": "address"
				},
				{
					"indexed": true,
					"internalType": "uint8",
					"name": "resourceType",
					"type": "uint8"
				},
				{
					"indexed": false,
					"internalType": "uint256",
					"name": "amount",
					"type": "uint256"
				}
			],
			"name": "ItemRemoved",
			"type": "event"
		},
		{
			"anonymous": false,
			"inputs": [
				{
					"indexed": true,
					"internalType": "address",
					"name": "attacker",
					"type": "address"
				},
				{
					"indexed": false,
					"internalType": "uint8",
					"name": "attackerX",
					"type": "uint8"
				},
				{
					"indexed": false,
					"internalType": "uint8",
					"name": "attackerY",
					"type": "uint8"
				},
				{
					"indexed": true,
					"internalType": "address",
					"name": "defender",
					"type": "address"
				},
				{
					"indexed": false,
					"internalType": "uint8",
					"name": "defenderX",
					"type": "uint8"
				},
				{
					"indexed": false,
					"internalType": "uint8",
					"name": "defenderY",
					"type": "uint8"
				},
				{
					"indexed": false,
					"internalType": "bool",
					"name": "attackerWon",
					"type": "bool"
				}
			],
			"name": "TileAttacked",
			"type": "event"
		},
		{
			"inputs": [],
			"name": "ATTACK_COST_FACTOR",
			"outputs": [
				{
					"internalType": "uint256",
					"name": "",
					"type": "uint256"
				}
			],
			"stateMutability": "view",
			"type": "function"
		},
		{
			"inputs": [
				{
					"internalType": "uint8",
					"name": "ax",
					"type": "uint8"
				},
				{
					"internalType": "uint8",
					"name": "ay",
					"type": "uint8"
				},
				{
					"internalType": "uint8",
					"name": "dx",
					"type": "uint8"
				},
				{
					"internalType": "uint8",
					"name": "dy",
					"type": "uint8"
				}
			],
			"name": "attackTile",
			"outputs": [],
			"stateMutability": "nonpayable",
			"type": "function"
		},
		{
			"inputs": [
				{
					"internalType": "uint8",
					"name": "x",
					"type": "uint8"
				},
				{
					"internalType": "uint8",
					"name": "y",
					"type": "uint8"
				},
				{
					"internalType": "uint8",
					"name": "resourceType",
					"type": "uint8"
				},
				{
					"internalType": "uint256",
					"name": "index",
					"type": "uint256"
				}
			],
			"name": "buyItem",
			"outputs": [],
			"stateMutability": "nonpayable",
			"type": "function"
		},
		{
			"inputs": [],
			"name": "clanContract",
			"outputs": [
				{
					"internalType": "contract IClan",
					"name": "",
					"type": "address"
				}
			],
			"stateMutability": "view",
			"type": "function"
		},
		{
			"inputs": [
				{
					"internalType": "address",
					"name": "player",
					"type": "address"
				}
			],
			"name": "getAllPlayerWars",
			"outputs": [
				{
					"components": [
						{
							"internalType": "uint8",
							"name": "attackerX",
							"type": "uint8"
						},
						{
							"internalType": "uint8",
							"name": "attackerY",
							"type": "uint8"
						},
						{
							"internalType": "uint8",
							"name": "defenderX",
							"type": "uint8"
						},
						{
							"internalType": "uint8",
							"name": "defenderY",
							"type": "uint8"
						},
						{
							"internalType": "uint256",
							"name": "timestamp",
							"type": "uint256"
						},
						{
							"internalType": "bool",
							"name": "attackerWon",
							"type": "bool"
						},
						{
							"internalType": "uint256",
							"name": "attackerSoldiers",
							"type": "uint256"
						},
						{
							"internalType": "uint256",
							"name": "attackerCasualties",
							"type": "uint256"
						},
						{
							"internalType": "uint256",
							"name": "attackerPower",
							"type": "uint256"
						},
						{
							"internalType": "uint256",
							"name": "defenderSoldiers",
							"type": "uint256"
						},
						{
							"internalType": "uint256",
							"name": "defenderCasualties",
							"type": "uint256"
						},
						{
							"internalType": "uint256",
							"name": "defenderPower",
							"type": "uint256"
						},
						{
							"internalType": "uint256",
							"name": "resourcesStolen",
							"type": "uint256"
						}
					],
					"internalType": "struct MarketPlace.WarRecord[]",
					"name": "",
					"type": "tuple[]"
				}
			],
			"stateMutability": "view",
			"type": "function"
		},
		{
			"inputs": [],
			"name": "getAllWarHistory",
			"outputs": [
				{
					"components": [
						{
							"internalType": "uint8",
							"name": "attackerX",
							"type": "uint8"
						},
						{
							"internalType": "uint8",
							"name": "attackerY",
							"type": "uint8"
						},
						{
							"internalType": "uint8",
							"name": "defenderX",
							"type": "uint8"
						},
						{
							"internalType": "uint8",
							"name": "defenderY",
							"type": "uint8"
						},
						{
							"internalType": "uint256",
							"name": "timestamp",
							"type": "uint256"
						},
						{
							"internalType": "bool",
							"name": "attackerWon",
							"type": "bool"
						},
						{
							"internalType": "uint256",
							"name": "attackerSoldiers",
							"type": "uint256"
						},
						{
							"internalType": "uint256",
							"name": "attackerCasualties",
							"type": "uint256"
						},
						{
							"internalType": "uint256",
							"name": "attackerPower",
							"type": "uint256"
						},
						{
							"internalType": "uint256",
							"name": "defenderSoldiers",
							"type": "uint256"
						},
						{
							"internalType": "uint256",
							"name": "defenderCasualties",
							"type": "uint256"
						},
						{
							"internalType": "uint256",
							"name": "defenderPower",
							"type": "uint256"
						},
						{
							"internalType": "uint256",
							"name": "resourcesStolen",
							"type": "uint256"
						}
					],
					"internalType": "struct MarketPlace.WarRecord[]",
					"name": "",
					"type": "tuple[]"
				}
			],
			"stateMutability": "view",
			"type": "function"
		},
		{
			"inputs": [
				{
					"internalType": "uint8",
					"name": "resourceType",
					"type": "uint8"
				}
			],
			"name": "getListingsByResourceType",
			"outputs": [
				{
					"components": [
						{
							"internalType": "address",
							"name": "seller",
							"type": "address"
						},
						{
							"internalType": "uint8",
							"name": "resourceType",
							"type": "uint8"
						},
						{
							"internalType": "uint256",
							"name": "amount",
							"type": "uint256"
						},
						{
							"internalType": "uint256",
							"name": "price",
							"type": "uint256"
						}
					],
					"internalType": "struct MarketPlace.MarketItem[]",
					"name": "",
					"type": "tuple[]"
				}
			],
			"stateMutability": "view",
			"type": "function"
		},
		{
			"inputs": [
				{
					"internalType": "address",
					"name": "player",
					"type": "address"
				}
			],
			"name": "getRecentPlayerWars",
			"outputs": [
				{
					"components": [
						{
							"internalType": "uint8",
							"name": "attackerX",
							"type": "uint8"
						},
						{
							"internalType": "uint8",
							"name": "attackerY",
							"type": "uint8"
						},
						{
							"internalType": "uint8",
							"name": "defenderX",
							"type": "uint8"
						},
						{
							"internalType": "uint8",
							"name": "defenderY",
							"type": "uint8"
						},
						{
							"internalType": "uint256",
							"name": "timestamp",
							"type": "uint256"
						},
						{
							"internalType": "bool",
							"name": "attackerWon",
							"type": "bool"
						},
						{
							"internalType": "uint256",
							"name": "attackerSoldiers",
							"type": "uint256"
						},
						{
							"internalType": "uint256",
							"name": "attackerCasualties",
							"type": "uint256"
						},
						{
							"internalType": "uint256",
							"name": "attackerPower",
							"type": "uint256"
						},
						{
							"internalType": "uint256",
							"name": "defenderSoldiers",
							"type": "uint256"
						},
						{
							"internalType": "uint256",
							"name": "defenderCasualties",
							"type": "uint256"
						},
						{
							"internalType": "uint256",
							"name": "defenderPower",
							"type": "uint256"
						},
						{
							"internalType": "uint256",
							"name": "resourcesStolen",
							"type": "uint256"
						}
					],
					"internalType": "struct MarketPlace.WarRecord[]",
					"name": "",
					"type": "tuple[]"
				}
			],
			"stateMutability": "view",
			"type": "function"
		},
		{
			"inputs": [],
			"name": "getRecentWarHistory",
			"outputs": [
				{
					"components": [
						{
							"internalType": "uint8",
							"name": "attackerX",
							"type": "uint8"
						},
						{
							"internalType": "uint8",
							"name": "attackerY",
							"type": "uint8"
						},
						{
							"internalType": "uint8",
							"name": "defenderX",
							"type": "uint8"
						},
						{
							"internalType": "uint8",
							"name": "defenderY",
							"type": "uint8"
						},
						{
							"internalType": "uint256",
							"name": "timestamp",
							"type": "uint256"
						},
						{
							"internalType": "bool",
							"name": "attackerWon",
							"type": "bool"
						},
						{
							"internalType": "uint256",
							"name": "attackerSoldiers",
							"type": "uint256"
						},
						{
							"internalType": "uint256",
							"name": "attackerCasualties",
							"type": "uint256"
						},
						{
							"internalType": "uint256",
							"name": "attackerPower",
							"type": "uint256"
						},
						{
							"internalType": "uint256",
							"name": "defenderSoldiers",
							"type": "uint256"
						},
						{
							"internalType": "uint256",
							"name": "defenderCasualties",
							"type": "uint256"
						},
						{
							"internalType": "uint256",
							"name": "defenderPower",
							"type": "uint256"
						},
						{
							"internalType": "uint256",
							"name": "resourcesStolen",
							"type": "uint256"
						}
					],
					"internalType": "struct MarketPlace.WarRecord[]",
					"name": "",
					"type": "tuple[]"
				}
			],
			"stateMutability": "view",
			"type": "function"
		},
		{
			"inputs": [
				{
					"internalType": "uint8",
					"name": "",
					"type": "uint8"
				},
				{
					"internalType": "uint8",
					"name": "",
					"type": "uint8"
				}
			],
			"name": "lastAttackTurn",
			"outputs": [
				{
					"internalType": "uint256",
					"name": "",
					"type": "uint256"
				}
			],
			"stateMutability": "view",
			"type": "function"
		},
		{
			"inputs": [
				{
					"internalType": "uint8",
					"name": "",
					"type": "uint8"
				},
				{
					"internalType": "uint8",
					"name": "",
					"type": "uint8"
				}
			],
			"name": "lastDefenseTurn",
			"outputs": [
				{
					"internalType": "uint256",
					"name": "",
					"type": "uint256"
				}
			],
			"stateMutability": "view",
			"type": "function"
		},
		{
			"inputs": [
				{
					"internalType": "uint8",
					"name": "x",
					"type": "uint8"
				},
				{
					"internalType": "uint8",
					"name": "y",
					"type": "uint8"
				},
				{
					"internalType": "uint8",
					"name": "resourceType",
					"type": "uint8"
				},
				{
					"internalType": "uint256",
					"name": "amount",
					"type": "uint256"
				},
				{
					"internalType": "uint256",
					"name": "price",
					"type": "uint256"
				}
			],
			"name": "listItemForSale",
			"outputs": [],
			"stateMutability": "nonpayable",
			"type": "function"
		},
		{
			"inputs": [],
			"name": "lopToken",
			"outputs": [
				{
					"internalType": "contract IHarmLop",
					"name": "",
					"type": "address"
				}
			],
			"stateMutability": "view",
			"type": "function"
		},
		{
			"inputs": [
				{
					"internalType": "uint8",
					"name": "",
					"type": "uint8"
				},
				{
					"internalType": "uint256",
					"name": "",
					"type": "uint256"
				}
			],
			"name": "marketListings",
			"outputs": [
				{
					"internalType": "address",
					"name": "seller",
					"type": "address"
				},
				{
					"internalType": "uint8",
					"name": "resourceType",
					"type": "uint8"
				},
				{
					"internalType": "uint256",
					"name": "amount",
					"type": "uint256"
				},
				{
					"internalType": "uint256",
					"name": "price",
					"type": "uint256"
				}
			],
			"stateMutability": "view",
			"type": "function"
		},
		{
			"inputs": [
				{
					"internalType": "address",
					"name": "",
					"type": "address"
				},
				{
					"internalType": "uint256",
					"name": "",
					"type": "uint256"
				}
			],
			"name": "playerWars",
			"outputs": [
				{
					"internalType": "uint256",
					"name": "",
					"type": "uint256"
				}
			],
			"stateMutability": "view",
			"type": "function"
		},
		{
			"inputs": [
				{
					"internalType": "uint8",
					"name": "",
					"type": "uint8"
				},
				{
					"internalType": "uint8",
					"name": "",
					"type": "uint8"
				}
			],
			"name": "resourceMessages",
			"outputs": [
				{
					"internalType": "uint8",
					"name": "fromX",
					"type": "uint8"
				},
				{
					"internalType": "uint8",
					"name": "fromY",
					"type": "uint8"
				},
				{
					"internalType": "uint8",
					"name": "resourceType",
					"type": "uint8"
				},
				{
					"internalType": "uint256",
					"name": "amount",
					"type": "uint256"
				}
			],
			"stateMutability": "view",
			"type": "function"
		},
		{
			"inputs": [
				{
					"internalType": "uint8",
					"name": "fromX",
					"type": "uint8"
				},
				{
					"internalType": "uint8",
					"name": "fromY",
					"type": "uint8"
				},
				{
					"internalType": "uint8",
					"name": "toX",
					"type": "uint8"
				},
				{
					"internalType": "uint8",
					"name": "toY",
					"type": "uint8"
				},
				{
					"internalType": "uint8",
					"name": "resourceType",
					"type": "uint8"
				},
				{
					"internalType": "uint256",
					"name": "amount",
					"type": "uint256"
				}
			],
			"name": "sendResources",
			"outputs": [],
			"stateMutability": "nonpayable",
			"type": "function"
		},
		{
			"inputs": [],
			"name": "theLand",
			"outputs": [
				{
					"internalType": "contract ITheLand",
					"name": "",
					"type": "address"
				}
			],
			"stateMutability": "view",
			"type": "function"
		},
		{
			"inputs": [],
			"name": "tileMapPhaser",
			"outputs": [
				{
					"internalType": "contract ITileMapPhaser",
					"name": "",
					"type": "address"
				}
			],
			"stateMutability": "view",
			"type": "function"
		},
		{
			"inputs": [
				{
					"internalType": "uint256",
					"name": "",
					"type": "uint256"
				}
			],
			"name": "warHistory",
			"outputs": [
				{
					"internalType": "uint8",
					"name": "attackerX",
					"type": "uint8"
				},
				{
					"internalType": "uint8",
					"name": "attackerY",
					"type": "uint8"
				},
				{
					"internalType": "uint8",
					"name": "defenderX",
					"type": "uint8"
				},
				{
					"internalType": "uint8",
					"name": "defenderY",
					"type": "uint8"
				},
				{
					"internalType": "uint256",
					"name": "timestamp",
					"type": "uint256"
				},
				{
					"internalType": "bool",
					"name": "attackerWon",
					"type": "bool"
				},
				{
					"internalType": "uint256",
					"name": "attackerSoldiers",
					"type": "uint256"
				},
				{
					"internalType": "uint256",
					"name": "attackerCasualties",
					"type": "uint256"
				},
				{
					"internalType": "uint256",
					"name": "attackerPower",
					"type": "uint256"
				},
				{
					"internalType": "uint256",
					"name": "defenderSoldiers",
					"type": "uint256"
				},
				{
					"internalType": "uint256",
					"name": "defenderCasualties",
					"type": "uint256"
				},
				{
					"internalType": "uint256",
					"name": "defenderPower",
					"type": "uint256"
				},
				{
					"internalType": "uint256",
					"name": "resourcesStolen",
					"type": "uint256"
				}
			],
			"stateMutability": "view",
			"type": "function"
		}
	]
}