{
	"data": {
		"bytecode": {
			"linkReferences": {},
			"object": "60806040523480156200001157600080fd5b5060405162006108380380620061088339810160408190526200003491620000aa565b6001600081905580546001600160a01b039586166001600160a01b031991821617909155600280549486169482169490941790935560038054928516928416929092179091556004805491909316911617905562000107565b80516001600160a01b0381168114620000a557600080fd5b919050565b60008060008060808587031215620000c157600080fd5b620000cc856200008d565b9350620000dc602086016200008d565b9250620000ec604086016200008d565b9150620000fc606086016200008d565b905092959194509250565b615ff180620001176000396000f3fe608060405234801561001057600080fd5b506004361061016c5760003560e01c8063763540cd116100cd578063b0d7777411610081578063c49443ac11610066578063c49443ac14610379578063ca0300791461038c578063efcb01ba1461039f57600080fd5b8063b0d7777414610353578063c399c2b01461036657600080fd5b8063823e9282116100b2578063823e92821461030d578063999a2f7a1461032d578063ada680cf1461034057600080fd5b8063763540cd1461028e57806377f8c951146102b957600080fd5b80633a965c901161012457806354adac101161010957806354adac101461023d578063697e71d21461025057806370d27e411461026357600080fd5b80633a965c90146102175780634f264b031461022a57600080fd5b806321f65c901161015557806321f65c90146101b75780632c400cb7146101cd57806330378338146101e257600080fd5b80630d67f59e1461017157806310ac4633146101a1575b600080fd5b600254610184906001600160a01b031681565b6040516001600160a01b0390911681526020015b60405180910390f35b6101a9600a81565b604051908152602001610198565b6101bf6103bf565b6040516101989291906155f8565b6101e06101db366004615699565b610814565b005b6102056101f0366004615700565b60066020526000908152604090205460ff1681565b60405160ff9091168152602001610198565b6101e061022536600461571d565b610b2d565b600354610184906001600160a01b031681565b6101e061024b366004615768565b610e37565b6101e061025e366004615699565b6117b9565b6101a96102713660046157d5565b600960209081526000928352604080842090915290825290205481565b6101a961029c3660046157d5565b600860209081526000928352604080842090915290825290205481565b6102cc6102c73660046157d5565b611bbe565b6040516101989190600060808201905060ff835116825260ff602084015116602083015260ff60408401511660408301526060830151606083015292915050565b61032061031b3660046157d5565b611cf8565b6040516101989190615808565b6101e061033b36600461571d565b61207f565b61032061034e3660046158cd565b612880565b600154610184906001600160a01b031681565b6101bf61037436600461590f565b612c31565b600454610184906001600160a01b031681565b6101e061039a366004615931565b6130b3565b6103b26103ad366004615986565b61351c565b60405161019891906159c9565b60608060006103d162093a8042615a61565b600a549091506000905b801561043f5782600a6103ef600184615a61565b815481106103ff576103ff615a74565b90600052602060002090600a02016001015410610428578161042081615aa3565b92505061042d565b61043f565b8061043781615abd565b9150506103db565b508067ffffffffffffffff81111561045957610459615ad4565b6040519080825280602002602001820160405280156104b957816020015b6040805160c08101825260008082526020808301829052928201819052606082018190526080820181905260a082015282526000199092019101816104775790505b5093508067ffffffffffffffff8111156104d5576104d5615ad4565b60405190808252806020026020018201604052801561051a57816020015b60408051808201909152606080825260208201528152602001906001900390816104f35790505b50600a5490935060009061052f908390615a61565b905060005b8281101561080c576000600a61054a8385615b03565b8154811061055a5761055a615a74565b6000918252602091829020604080516101a081018252600a909302909101805460ff80821685526101008083048216868801908152620100008404831687870190815263010000009094048316606080890191825260018701546080808b0191825260028901548716151560a0808d0191825260038b015460c0808f019190915260048c015460e08f015260058c0154988e019890985260068b01546101208e015260078b01546101408e015260088b01546101608e01526009909a01546101808d01528a519687018b528b5188168752945187169b86019b909b52955185169784019790975251909216948101949094529051948301949094529251151592810192909252885190925088908490811061067757610677615a74565b6020908102919091010152600b61068e8385615b03565b8154811061069e5761069e615a74565b90600052602060002090600202016040518060400160405290816000820180546106c790615b16565b80601f01602080910402602001604051908101604052809291908181526020018280546106f390615b16565b80156107405780601f1061071557610100808354040283529160200191610740565b820191906000526020600020905b81548152906001019060200180831161072357829003601f168201915b5050505050815260200160018201805461075990615b16565b80601f016020809104026020016040519081016040528092919081815260200182805461078590615b16565b80156107d25780601f106107a7576101008083540402835291602001916107d2565b820191906000526020600020905b8154815290600101906020018083116107b557829003601f168201915b5050505050815250508683815181106107ed576107ed615a74565b602002602001018190525050808061080490615aa3565b915050610534565b505050509091565b61081c6137a0565b600354604051638a88895360e01b815260ff8087166004830152851660248201528591859133916001600160a01b031690638a88895390604401602060405180830381865afa158015610873573d6000803e3d6000fd5b505050506040513d601f19601f820116820180604052508101906108979190615b80565b6001600160a01b0316146108d65760405162461bcd60e51b81526020600482015260016024820152606f60f81b60448201526064015b60405180910390fd5b6001546040517f4173f9e900000000000000000000000000000000000000000000000000000000815260ff8087166004830152851660248201526000916001600160a01b031690634173f9e990604401602060405180830381865afa158015610943573d6000803e3d6000fd5b505050506040513d601f19601f820116820180604052508101906109679190615b9b565b90508060000361097857506368ae4a805b61098481611518615b03565b4210156109915750610b1b565b6003546040517f9b562df200000000000000000000000000000000000000000000000000000000815260ff808816600483015286166024820152600091829182916001600160a01b031690639b562df29060440160c060405180830381865afa158015610a02573d6000803e3d6000fd5b505050506040513d601f19601f82011682018060405250810190610a269190615bc4565b955050509350509250821580610a395750815b15610a475750505050610b1b565b60006064610a5683605a615c23565b610a609190615c3a565b90506298968064e8d4a5100081831015610a78578192505b80831115610a84578092505b6003546040517fd855e7e100000000000000000000000000000000000000000000000000000000815260ff808e1660048301528c16602482015260016044820152606481018590526001600160a01b039091169063d855e7e190608401600060405180830381600087803b158015610afb57600080fd5b505af1158015610b0f573d6000803e3d6000fd5b50505050505050505050505b5050610b276001600055565b50505050565b610b356137a0565b600354604051638a88895360e01b815260ff8087166004830152851660248201528591859133916001600160a01b031690638a88895390604401602060405180830381865afa158015610b8c573d6000803e3d6000fd5b505050506040513d601f19601f82011682018060405250810190610bb09190615b80565b6001600160a01b031614610bea5760405162461bcd60e51b81526020600482015260016024820152606f60f81b60448201526064016108cd565b60018460ff1610158015610c02575060088460ff1611155b610c4e5760405162461bcd60e51b815260206004820152600260248201527f207400000000000000000000000000000000000000000000000000000000000060448201526064016108cd565b60ff84166000908152600760205260409020548310610caf5760405162461bcd60e51b815260206004820152600260248201527f206900000000000000000000000000000000000000000000000000000000000060448201526064016108cd565b60ff84166000908152600760205260408120805485908110610cd357610cd3615a74565b60009182526020918290206040805160a0810182526003909302909101805460ff808216808652610100830482169686019690965262010000909104811692840192909252600181015460608401526002015460808301529092508816148015610d4657508560ff16816020015160ff16145b610d925760405162461bcd60e51b815260206004820152600160248201527f6c0000000000000000000000000000000000000000000000000000000000000060448201526064016108cd565b600180546060830151604051633e5f285760e01b815260ff808c166004830152808b16602483015289166044820152606481019190915260848101929092526001600160a01b031690633e5f28579060a401600060405180830381600087803b158015610dfe57600080fd5b505af1158015610e12573d6000803e3d6000fd5b50505050610e2085856137f9565b610e2a8787613957565b505050610b276001600055565b610e3f6137a0565b600354604051638a88895360e01b815260ff8089166004830152871660248201528791879133916001600160a01b031690638a88895390604401602060405180830381865afa158015610e96573d6000803e3d6000fd5b505050506040513d601f19601f82011682018060405250810190610eba9190615b80565b6001600160a01b031614610ef45760405162461bcd60e51b81526020600482015260016024820152606f60f81b60448201526064016108cd565b6001546040517f4855735c00000000000000000000000000000000000000000000000000000000815260ff808b166004830152891660248201526001600160a01b0390911690634855735c90604401602060405180830381865afa158015610f60573d6000803e3d6000fd5b505050506040513d601f19601f82011682018060405250810190610f849190615c75565b610fd05760405162461bcd60e51b815260206004820152600160248201527f6d0000000000000000000000000000000000000000000000000000000000000060448201526064016108cd565b6001546040517f9c54e47100000000000000000000000000000000000000000000000000000000815260ff8089166004830152871660248201526001600160a01b0390911690639c54e47190604401602060405180830381865afa15801561103c573d6000803e3d6000fd5b505050506040513d601f19601f820116820180604052508101906110609190615c75565b156110ad5760405162461bcd60e51b815260206004820152600160248201527f630000000000000000000000000000000000000000000000000000000000000060448201526064016108cd565b600354604051638a88895360e01b815260ff8089166004830152871660248201526000916001600160a01b031690638a88895390604401602060405180830381865afa158015611101573d6000803e3d6000fd5b505050506040513d601f19601f820116820180604052508101906111259190615b80565b90506001600160a01b03811661117d5760405162461bcd60e51b815260206004820152600160248201527f750000000000000000000000000000000000000000000000000000000000000060448201526064016108cd565b60018560ff1610158015611195575060088560ff1611155b6111c55760405162461bcd60e51b81526020600482015260016024820152601d60fa1b60448201526064016108cd565b601e84101580156111d95750620186a08411155b6112255760405162461bcd60e51b815260206004820152600160248201527f610000000000000000000000000000000000000000000000000000000000000060448201526064016108cd565b600061123189886139ac565b61123b8b8a6139ac565b6112459190615c90565b905060008160ff1611801561125e575060268160ff1611155b6112aa5760405162461bcd60e51b815260206004820152600160248201527f640000000000000000000000000000000000000000000000000000000000000060448201526064016108cd565b6305f5e10060006112be60ff841683615c23565b6002546040517f23b872dd000000000000000000000000000000000000000000000000000000008152336004820152306024820152604481018390529192506001600160a01b0316906323b872dd906064016020604051808303816000875af115801561132f573d6000803e3d6000fd5b505050506040513d601f19601f820116820180604052508101906113539190615c75565b61139f5760405162461bcd60e51b815260206004820152600160248201527f660000000000000000000000000000000000000000000000000000000000000060448201526064016108cd565b6002546040517f42966c68000000000000000000000000000000000000000000000000000000008152600481018390526001600160a01b03909116906342966c68906024016020604051808303816000875af1158015611403573d6000803e3d6000fd5b505050506040513d601f19601f820116820180604052508101906114279190615c75565b6114735760405162461bcd60e51b815260206004820152600160248201527f620000000000000000000000000000000000000000000000000000000000000060448201526064016108cd565b6000601e6114848960ff8716615c23565b61148e9190615c3a565b6001549091506001600160a01b0316633e5f28578e8e8c6114af868e615b03565b6040517fffffffff0000000000000000000000000000000000000000000000000000000060e087901b16815260ff948516600482015292841660248401529216604482015260648101919091526000608482015260a401600060405180830381600087803b15801561152057600080fd5b505af1158015611534573d6000803e3d6000fd5b505060018054604051633e5f285760e01b81526001600160a01b039091169350633e5f28579250611599918f918f918f918f919060040160ff958616815293851660208501529190931660408301526060820192909252901515608082015260a00190565b600060405180830381600087803b1580156115b357600080fd5b505af11580156115c7573d6000803e3d6000fd5b5050505060405180608001604052808e60ff1681526020018d60ff1681526020018a60ff16815260200189815250600560008d60ff1660ff16815260200190815260200160002060008c60ff1660ff16815260200190815260200160002060008201518160000160006101000a81548160ff021916908360ff16021790555060208201518160000160016101000a81548160ff021916908360ff16021790555060408201518160000160026101000a81548160ff021916908360ff16021790555060608201518160010155905050600160009054906101000a90046001600160a01b03166001600160a01b0316639a4a20848c8c60016040518463ffffffff1660e01b81526004016116f49392919060ff9384168152919092166020820152901515604082015260600190565b600060405180830381600087803b15801561170e57600080fd5b505af1158015611722573d6000803e3d6000fd5b50505050846001600160a01b0316336001600160a01b03167f0d8d0ffb785186ae5cfa3f64dc9e01d4100c899244f5a09749c62a7ddc76dc1a8f8f8f8f8f60405161179895949392919060ff95861681529385166020850152918416604084015283166060830152909116608082015260a00190565b60405180910390a3505050505050506117b16001600055565b505050505050565b6117c16137a0565b600354604051638a88895360e01b815260ff8087166004830152851660248201528591859133916001600160a01b031690638a88895390604401602060405180830381865afa158015611818573d6000803e3d6000fd5b505050506040513d601f19601f8201168201806040525081019061183c9190615b80565b6001600160a01b0316146118765760405162461bcd60e51b81526020600482015260016024820152606f60f81b60448201526064016108cd565b600354604051638a88895360e01b815260ff8087166004830152851660248201526000916001600160a01b031690638a88895390604401602060405180830381865afa1580156118ca573d6000803e3d6000fd5b505050506040513d601f19601f820116820180604052508101906118ee9190615b80565b90506001600160a01b0381166119465760405162461bcd60e51b815260206004820152600160248201527f6e0000000000000000000000000000000000000000000000000000000000000060448201526064016108cd565b6119548787878733866139dd565b61195c61538c565b60ff88811680835288821660208401819052888316604080860191909152928816606085015260015492517fbd638378000000000000000000000000000000000000000000000000000000008152600481019290925260248201526001600160a01b039091169063bd638378906044016101e060405180830381865afa1580156119ea573d6000803e3d6000fd5b505050506040513d601f19601f82011682018060405250810190611a0e9190615cde565b60808201526001546040517fbd63837800000000000000000000000000000000000000000000000000000000815260ff8089166004830152871660248201526001600160a01b039091169063bd638378906044016101e060405180830381865afa158015611a80573d6000803e3d6000fd5b505050506040513d601f19601f82011682018060405250810190611aa49190615cde565b60a082015260808101516101400151600a1115611b035760405162461bcd60e51b815260206004820152600860248201527f736f6c646965727300000000000000000000000000000000000000000000000060448201526064016108cd565b6000611b0f88876139ac565b611b198a896139ac565b611b239190615c90565b9050611b358989838560800151613e6a565b611b4982608001518360a001518989614178565b60e084015260c08301526000611b5e836142cc565b905060008360e001518460c001511115611b7e57611b7b8461456e565b90505b611b866154e3565b8281526020810182905260e085015160c0860151116040820152611bac85823389614726565b5050505050505050610b276001600055565b604080516080810182526000808252602082018190529181018290526060810191909152600354604051638a88895360e01b815260ff8086166004830152841660248201528491849133916001600160a01b031690638a88895390604401602060405180830381865afa158015611c39573d6000803e3d6000fd5b505050506040513d601f19601f82011682018060405250810190611c5d9190615b80565b6001600160a01b031614611c975760405162461bcd60e51b81526020600482015260016024820152606f60f81b60448201526064016108cd565b50505060ff918216600090815260056020908152604080832093851683529281529082902082516080810184528154808616825261010081048616938201939093526201000090920490931691810191909152600190910154606082015290565b600354604051638a88895360e01b815260ff8085166004830152831660248201526060918491849133916001600160a01b0390911690638a88895390604401602060405180830381865afa158015611d54573d6000803e3d6000fd5b505050506040513d601f19601f82011682018060405250810190611d789190615b80565b6001600160a01b031614611db25760405162461bcd60e51b81526020600482015260016024820152606f60f81b60448201526064016108cd565b60ff8416600886901b61ff0016176000818152600c6020526040812090611ddc62093a8042615a61565b82549091506000905b8015611e655782600a85611dfa600185615a61565b81548110611e0a57611e0a615a74565b906000526020600020015481548110611e2557611e25615a74565b90600052602060002090600a02016001015410611e4e5781611e4681615aa3565b925050611e53565b611e65565b80611e5d81615abd565b915050611de5565b5060008167ffffffffffffffff811115611e8157611e81615ad4565b604051908082528060200260200182016040528015611f2b57816020015b611f18604051806101a00160405280600060ff168152602001600060ff168152602001600060ff168152602001600060ff16815260200160008152602001600015158152602001600081526020016000815260200160008152602001600081526020016000815260200160008152602001600081525090565b815260200190600190039081611e9f5790505b508454909150600090611f3f908490615a61565b905060005b8381101561206f57600a86611f598385615b03565b81548110611f6957611f69615a74565b906000526020600020015481548110611f8457611f84615a74565b6000918252602091829020604080516101a081018252600a909302909101805460ff80821685526101008083048216968601969096526201000082048116938501939093526301000000900482166060840152600181015460808401526002810154909116151560a0830152600381015460c0830152600481015460e0830152600581015492820192909252600682015461012082015260078201546101408201526008820154610160820152600990910154610180820152835184908390811061205157612051615a74565b6020026020010181905250808061206790615aa3565b915050611f44565b50909a9950505050505050505050565b6120876137a0565b600354604051638a88895360e01b815260ff8087166004830152851660248201528591859133916001600160a01b031690638a88895390604401602060405180830381865afa1580156120de573d6000803e3d6000fd5b505050506040513d601f19601f820116820180604052508101906121029190615b80565b6001600160a01b03161461213c5760405162461bcd60e51b81526020600482015260016024820152606f60f81b60448201526064016108cd565b6001546040517f4855735c00000000000000000000000000000000000000000000000000000000815260ff8089166004830152871660248201526001600160a01b0390911690634855735c90604401602060405180830381865afa1580156121a8573d6000803e3d6000fd5b505050506040513d601f19601f820116820180604052508101906121cc9190615c75565b6122185760405162461bcd60e51b815260206004820152600160248201527f6d0000000000000000000000000000000000000000000000000000000000000060448201526064016108cd565b60ff841660009081526007602052604090205483106122795760405162461bcd60e51b815260206004820152600160248201527f6d0000000000000000000000000000000000000000000000000000000000000060448201526064016108cd565b60018460ff1610158015612291575060088460ff1611155b6122c15760405162461bcd60e51b81526020600482015260016024820152601d60fa1b60448201526064016108cd565b60ff841660009081526007602052604081208054859081106122e5576122e5615a74565b600091825260208083206040805160a0810182526003948502909201805460ff808216808652610100830482169686018790526201000090920416848401526001820154606085018190526002909201546080850181905295549251638a88895360e01b8152600481019190915260248101949094529195509293909290916001600160a01b0390911690638a88895390604401602060405180830381865afa158015612396573d6000803e3d6000fd5b505050506040513d601f19601f820116820180604052508101906123ba9190615b80565b90506001600160a01b0381166124125760405162461bcd60e51b815260206004820152600160248201527f750000000000000000000000000000000000000000000000000000000000000060448201526064016108cd565b6000606e612421856064615c23565b61242b9190615c3a565b905060006124398286615a61565b6002546040517f23b872dd000000000000000000000000000000000000000000000000000000008152336004820152306024820152604481018890529192506001600160a01b0316906323b872dd906064016020604051808303816000875af11580156124aa573d6000803e3d6000fd5b505050506040513d601f19601f820116820180604052508101906124ce9190615c75565b6124fe5760405162461bcd60e51b81526020600482015260016024820152601d60fa1b60448201526064016108cd565b6002546040517fa9059cbb0000000000000000000000000000000000000000000000000000000081526001600160a01b038581166004830152602482018590529091169063a9059cbb906044016020604051808303816000875af115801561256a573d6000803e3d6000fd5b505050506040513d601f19601f8201168201806040525081019061258e9190615c75565b6125be5760405162461bcd60e51b81526020600482015260016024820152601d60fa1b60448201526064016108cd565b6002546040517f42966c68000000000000000000000000000000000000000000000000000000008152600481018390526001600160a01b03909116906342966c68906024016020604051808303816000875af1158015612622573d6000803e3d6000fd5b505050506040513d601f19601f820116820180604052508101906126469190615c75565b6126925760405162461bcd60e51b815260206004820152600160248201527f620000000000000000000000000000000000000000000000000000000000000060448201526064016108cd565b600160009054906101000a90046001600160a01b03166001600160a01b0316633e5f28578d8d8d8860016040518663ffffffff1660e01b815260040161270595949392919060ff958616815293851660208501529190931660408301526060820192909252901515608082015260a00190565b600060405180830381600087803b15801561271f57600080fd5b505af1158015612733573d6000803e3d6000fd5b5050505060ff8a166000908152600760205260409020805461275790600190615a61565b8154811061276757612767615a74565b9060005260206000209060030201600760008c60ff1660ff1681526020019081526020016000208a8154811061279f5761279f615a74565b600091825260208083208454600390930201805460ff19811660ff948516908117835586546101009081900486160261ffff1990921617178082558554620100009081900485160262ff000019909116178155600180860154908201556002948501549401939093558c16815260079091526040902080548061282457612824615dae565b6000828152602080822060036000199094019384020180547fffffffffffffffffffffffffffffffffffffffffffffffffffffffffff00000016815560018101839055600201919091559155865190870151611bac9190613957565b600354604051638a88895360e01b815260ff8087166004830152851660248201526060918691869133916001600160a01b0390911690638a88895390604401602060405180830381865afa1580156128dc573d6000803e3d6000fd5b505050506040513d601f19601f820116820180604052508101906129009190615b80565b6001600160a01b03161461293a5760405162461bcd60e51b81526020600482015260016024820152606f60f81b60448201526064016108cd565b83600003612946574293505b83851115612952579293925b60ff8616600888901b61ff0016176000818152600c602052604081208054909181900361297d575060015b6000815b8015612a1e576000600a85612997600185615a61565b815481106129a7576129a7615a74565b9060005260206000200154815481106129c2576129c2615a74565b90600052602060002090600a02016001015490508a81101580156129e65750898111155b156129fd57826129f581615aa3565b935050612a0b565b8a811015612a0b5750612a1e565b5080612a1681615abd565b915050612981565b508067ffffffffffffffff811115612a3857612a38615ad4565b604051908082528060200260200182016040528015612ae257816020015b612acf604051806101a00160405280600060ff168152602001600060ff168152602001600060ff168152602001600060ff16815260200160008152602001600015158152602001600081526020016000815260200160008152602001600081526020016000815260200160008152602001600081525090565b815260200190600190039081612a565790505b5096506000612af18284615a61565b905060005b82811015612c2157600a85612b0b8385615b03565b81548110612b1b57612b1b615a74565b906000526020600020015481548110612b3657612b36615a74565b6000918252602091829020604080516101a081018252600a909302909101805460ff80821685526101008083048216968601969096526201000082048116938501939093526301000000900482166060840152600181015460808401526002810154909116151560a0830152600381015460c0830152600481015460e083015260058101549282019290925260068201546101208201526007820154610140820152600882015461016082015260099091015461018082015289518a9083908110612c0357612c03615a74565b60200260200101819052508080612c1990615aa3565b915050612af6565b5050505050505050949350505050565b60608082600003612c40574292505b82841115612c4c579192915b600a546000819003612c5c575060015b6000815b8015612ce1576000600a612c75600184615a61565b81548110612c8557612c85615a74565b90600052602060002090600a0201600101549050878110158015612ca95750868111155b15612cc05782612cb881615aa3565b935050612cce565b87811015612cce5750612ce1565b5080612cd981615abd565b915050612c60565b508067ffffffffffffffff811115612cfb57612cfb615ad4565b604051908082528060200260200182016040528015612d5b57816020015b6040805160c08101825260008082526020808301829052928201819052606082018190526080820181905260a08201528252600019909201910181612d195790505b5093508067ffffffffffffffff811115612d7757612d77615ad4565b604051908082528060200260200182016040528015612dbc57816020015b6040805180820190915260608082526020820152815260200190600190039081612d955790505b5092506000612dcb8284615a61565b905060005b828110156130a8576000600a612de68385615b03565b81548110612df657612df6615a74565b6000918252602091829020604080516101a081018252600a909302909101805460ff80821685526101008083048216868801908152620100008404831687870190815263010000009094048316606080890191825260018701546080808b0191825260028901548716151560a0808d0191825260038b015460c0808f019190915260048c015460e08f015260058c0154988e019890985260068b01546101208e015260078b01546101408e015260088b01546101608e01526009909a01546101808d01528a519687018b528b5188168752945187169b86019b909b529551851697840197909752519092169481019490945290519483019490945292511515928101929092528851909250889084908110612f1357612f13615a74565b6020908102919091010152600b612f2a8385615b03565b81548110612f3a57612f3a615a74565b9060005260206000209060020201604051806040016040529081600082018054612f6390615b16565b80601f0160208091040260200160405190810160405280929190818152602001828054612f8f90615b16565b8015612fdc5780601f10612fb157610100808354040283529160200191612fdc565b820191906000526020600020905b815481529060010190602001808311612fbf57829003601f168201915b50505050508152602001600182018054612ff590615b16565b80601f016020809104026020016040519081016040528092919081815260200182805461302190615b16565b801561306e5780601f106130435761010080835404028352916020019161306e565b820191906000526020600020905b81548152906001019060200180831161305157829003601f168201915b50505050508152505086838151811061308957613089615a74565b60200260200101819052505080806130a090615aa3565b915050612dd0565b505050509250929050565b6130bb6137a0565b600354604051638a88895360e01b815260ff8088166004830152861660248201528691869133916001600160a01b031690638a88895390604401602060405180830381865afa158015613112573d6000803e3d6000fd5b505050506040513d601f19601f820116820180604052508101906131369190615b80565b6001600160a01b0316146131705760405162461bcd60e51b81526020600482015260016024820152606f60f81b60448201526064016108cd565b6001546040517f4855735c00000000000000000000000000000000000000000000000000000000815260ff808a166004830152881660248201526001600160a01b0390911690634855735c90604401602060405180830381865afa1580156131dc573d6000803e3d6000fd5b505050506040513d601f19601f820116820180604052508101906132009190615c75565b61324c5760405162461bcd60e51b815260206004820152600160248201527f6d0000000000000000000000000000000000000000000000000000000000000060448201526064016108cd565b62989680831015801561326557506509184e72a0008311155b6132b15760405162461bcd60e51b815260206004820152600160248201527f700000000000000000000000000000000000000000000000000000000000000060448201526064016108cd565b60018560ff16101580156132c9575060088560ff1611155b6132f95760405162461bcd60e51b81526020600482015260016024820152601d60fa1b60448201526064016108cd565b60048560ff161161336b57612710841015801561331a57506305f5e1008411155b6133665760405162461bcd60e51b815260206004820152600160248201527f610000000000000000000000000000000000000000000000000000000000000060448201526064016108cd565b6133ca565b6064841015801561337e57506127108411155b6133ca5760405162461bcd60e51b815260206004820152600160248201527f610000000000000000000000000000000000000000000000000000000000000060448201526064016108cd565b600154604051633e5f285760e01b815260ff808a16600483015280891660248301528716604482015260648101869052600060848201526001600160a01b0390911690633e5f28579060a401600060405180830381600087803b15801561343057600080fd5b505af1158015613444573d6000803e3d6000fd5b505050506000600a846134579190615c3a565b6134619085615b03565b905061346d8888614eb7565b60ff8087166000818152600760209081526040808320815160a0810183528e871681528d8716818501908152928101958652606081018c8152608082019889528254600181810185559387529490952090516003909402018054925195518716620100000262ff0000199688166101000261ffff1990941694909716939093179190911793909316939093178355519082015590516002909101555061351590506001600055565b5050505050565b600354604051638a88895360e01b815260ff8086166004830152841660248201526060918591859133916001600160a01b0390911690638a88895390604401602060405180830381865afa158015613578573d6000803e3d6000fd5b505050506040513d601f19601f8201168201806040525081019061359c9190615b80565b6001600160a01b0316146135d65760405162461bcd60e51b81526020600482015260016024820152606f60f81b60448201526064016108cd565b60018460ff16101580156135ee575060088460ff1611155b61361e5760405162461bcd60e51b81526020600482015260016024820152601d60fa1b60448201526064016108cd565b6001546040517f4855735c00000000000000000000000000000000000000000000000000000000815260ff8089166004830152871660248201526001600160a01b0390911690634855735c90604401602060405180830381865afa15801561368a573d6000803e3d6000fd5b505050506040513d601f19601f820116820180604052508101906136ae9190615c75565b6136fa5760405162461bcd60e51b815260206004820152600160248201527f6d0000000000000000000000000000000000000000000000000000000000000060448201526064016108cd565b60ff8416600090815260076020908152604080832080548251818502810185019093528083529193909284015b828210156137915760008481526020908190206040805160a08101825260038602909201805460ff80821685526101008204811685870152620100009091041691830191909152600180820154606084015260029091015460808301529083529092019101613727565b50505050925050509392505050565b6002600054036137f25760405162461bcd60e51b815260206004820152601f60248201527f5265656e7472616e637947756172643a207265656e7472616e742063616c6c0060448201526064016108cd565b6002600055565b60ff821660009081526007602052604081205461381890600190615a61565b90508082146138e95760ff8316600090815260076020526040902080548290811061384557613845615a74565b9060005260206000209060030201600760008560ff1660ff168152602001908152602001600020838154811061387d5761387d615a74565b600091825260209091208254600390920201805460ff92831660ff19821681178355845461ffff199092161761010091829004841690910217808255835462ff000019909116620100009182900490931602919091178155600180830154908201556002918201549101555b60ff8316600090815260076020526040902080548061390a5761390a615dae565b60008281526020812060036000199093019283020180547fffffffffffffffffffffffffffffffffffffffffffffffffffffffffff00000016815560018101829055600201559055505050565b60ff818116600884901b61ff001617600081815260066020526040902054909116156139a75761ffff81166000908152600660205260409020805460ff19811660ff918216600019019091161790555b505050565b60008160ff168360ff16116139ca576139c58383615ddd565b6139d4565b6139d48284615ddd565b90505b92915050565b816001600160a01b0316816001600160a01b031603613a3e5760405162461bcd60e51b815260206004820152600160248201527f790000000000000000000000000000000000000000000000000000000000000060448201526064016108cd565b600480546040517f7ab9e7fe00000000000000000000000000000000000000000000000000000000815260ff808a169382019390935291871660248301526000916001600160a01b0390911690637ab9e7fe90604401602060405180830381865afa158015613ab1573d6000803e3d6000fd5b505050506040513d601f19601f82011682018060405250810190613ad59190615df6565b600480546040517f7ab9e7fe00000000000000000000000000000000000000000000000000000000815260ff808a169382019390935291871660248301529192506000916001600160a01b031690637ab9e7fe90604401602060405180830381865afa158015613b49573d6000803e3d6000fd5b505050506040513d601f19601f82011682018060405250810190613b6d9190615df6565b905061ffff82161580613b82575061ffff8116155b80613b9557508061ffff168261ffff1614155b613be15760405162461bcd60e51b815260206004820152600160248201527f630000000000000000000000000000000000000000000000000000000000000060448201526064016108cd565b6000613bed88876139ac565b613bf78a896139ac565b613c019190615c90565b905060008160ff16118015613c1a575060268160ff1611155b613c685760405162461bcd60e51b81526004016108cd9060208082526004908201527f2066617200000000000000000000000000000000000000000000000000000000604082015260600190565b60ff808a166000908152600860209081526040808320938c1683529290522054613c93906096615b03565b6001546040517f41ede44f00000000000000000000000000000000000000000000000000000000815260ff808d1660048301528b1660248201526001600160a01b03909116906341ede44f90604401602060405180830381865afa158015613cff573d6000803e3d6000fd5b505050506040513d601f19601f82011682018060405250810190613d239190615b9b565b1015613d555760405162461bcd60e51b81526020600482015260016024820152601d60fa1b60448201526064016108cd565b60ff8088166000908152600960209081526040808320938a1683529290522054613d819061012c615b03565b6001546040517f41ede44f00000000000000000000000000000000000000000000000000000000815260ff808b166004830152891660248201526001600160a01b03909116906341ede44f90604401602060405180830381865afa158015613ded573d6000803e3d6000fd5b505050506040513d601f19601f82011682018060405250810190613e119190615b9b565b1015613e5f5760405162461bcd60e51b815260206004820152600260248201527f646300000000000000000000000000000000000000000000000000000000000060448201526064016108cd565b505050505050505050565b6000816101600151826101400151613e829190615b03565b613e9060ff8516600a615c23565b613e9a9190615c23565b600180549192506001600160a01b0390911690633e5f285790879087906064613ec4876028615c23565b613ece9190615c3a565b6040517fffffffff0000000000000000000000000000000000000000000000000000000060e087901b16815260ff948516600482015292841660248401529216604482015260648101919091526000608482015260a401600060405180830381600087803b158015613f3f57600080fd5b505af1158015613f53573d6000803e3d6000fd5b50506001546001600160a01b03169150633e5f28579050868660026064613f7b87601e615c23565b613f859190615c3a565b6040517fffffffff0000000000000000000000000000000000000000000000000000000060e087901b16815260ff948516600482015292841660248401529216604482015260648101919091526000608482015260a401600060405180830381600087803b158015613ff657600080fd5b505af115801561400a573d6000803e3d6000fd5b50506001546001600160a01b03169150633e5f28579050868660036064614032876014615c23565b61403c9190615c3a565b6040517fffffffff0000000000000000000000000000000000000000000000000000000060e087901b16815260ff948516600482015292841660248401529216604482015260648101919091526000608482015260a401600060405180830381600087803b1580156140ad57600080fd5b505af11580156140c1573d6000803e3d6000fd5b50506001546001600160a01b03169150633e5f285790508686600460646140e987600a615c23565b6140f39190615c3a565b6040517fffffffff0000000000000000000000000000000000000000000000000000000060e087901b16815260ff948516600482015292841660248401529216604482015260648101919091526000608482015260a401600060405180830381600087803b15801561416457600080fd5b505af1158015613e5f573d6000803e3d6000fd5b6001546040517f2a490ae800000000000000000000000000000000000000000000000000000000815260ff808516600483015283166024820152600091829182916001600160a01b031690632a490ae890604401602060405180830381865afa1580156141e9573d6000803e3d6000fd5b505050506040513d601f19601f8201168201806040525081019061420d9190615b9b565b90506000876080015161ffff1688610180015161ffff168961016001518a6101400151600261423c9190615c23565b6142469190615b03565b6142509190615b03565b61425a9190615b03565b90506000614269836064615c23565b886080015161ffff16896101a0015161ffff168a6101600151600261428e9190615c23565b8b610140015161429e9190615b03565b6142a89190615b03565b6142b29190615b03565b6142bc9190615b03565b9199919850909650505050505050565b6142f76040518060800160405280600081526020016000815260200160008152602001600081525090565b600061431583608001518460a001518560c001518660e00151614f52565b8051909150156143a657600154835160208501518351604051633e5f285760e01b815260ff9384166004820152929091166024830152600960448301526064820152600060848201526001600160a01b0390911690633e5f28579060a401600060405180830381600087803b15801561438d57600080fd5b505af11580156143a1573d6000803e3d6000fd5b505050505b60208101511561443a57600154835160208086015190840151604051633e5f285760e01b815260ff9384166004820152929091166024830152600a60448301526064820152600060848201526001600160a01b0390911690633e5f28579060a401600060405180830381600087803b15801561442157600080fd5b505af1158015614435573d6000803e3d6000fd5b505050505b6040810151156144d1576001546040848101516060860151848301519251633e5f285760e01b815260ff928316600482015291166024820152600960448201526064810191909152600060848201526001600160a01b0390911690633e5f28579060a401600060405180830381600087803b1580156144b857600080fd5b505af11580156144cc573d6000803e3d6000fd5b505050505b6060810151156139d757600154604084810151606080870151908501519251633e5f285760e01b815260ff928316600482015291166024820152600a60448201526064810191909152600060848201526001600160a01b0390911690633e5f28579060a401600060405180830381600087803b15801561455057600080fd5b505af1158015614564573d6000803e3d6000fd5b5050505092915050565b6000808260e001518360c0015111614599578260c001518360e001516145949190615a61565b6145ad565b8260e001518360c001516145ad9190615a61565b905060008360e001518460c001516145c59190615b03565b9050600081116146195760405162461bcd60e51b81526004016108cd9060208082526004908201527f7a65726f00000000000000000000000000000000000000000000000000000000604082015260600190565b600081614627846064615c23565b6146319190615c3a565b9050600061464c61464383601e615b03565b600a603c6151ee565b905061467660018760a0015160000151886000015189602001518a604001518b6060015187615218565b6146809086615b03565b94506146aa60028760a0015160200151886000015189602001518a604001518b6060015187615218565b6146b49086615b03565b94506146de60038760a0015160400151886000015189602001518a604001518b6060015187615218565b6146e89086615b03565b945061471260048760a0015160600151886000015189602001518a604001518b6060015187615218565b61471c9086615b03565b9695505050505050565b600154845160208601516040517f41ede44f00000000000000000000000000000000000000000000000000000000815260ff9283166004820152911660248201526001600160a01b03909116906341ede44f90604401602060405180830381865afa158015614799573d6000803e3d6000fd5b505050506040513d601f19601f820116820180604052508101906147bd9190615b9b565b845160ff9081166000908152600860209081526040808320828a0151909416835292905281902091909155830151156148b557600154604085810151606087015191517f41ede44f00000000000000000000000000000000000000000000000000000000815260ff9182166004820152911660248201526001600160a01b03909116906341ede44f90604401602060405180830381865afa158015614866573d6000803e3d6000fd5b505050506040513d601f19601f8201168201806040525081019061488a9190615b9b565b60408086015160ff90811660009081526009602090815283822060608a015190931682529190915220555b600154845160208601516040517f7659bc6000000000000000000000000000000000000000000000000000000000815260ff9283166004820152911660248201526001600160a01b0390911690637659bc6090604401600060405180830381600087803b15801561492557600080fd5b505af1158015614939573d6000803e3d6000fd5b5050600154604087810151606089015191517f7659bc6000000000000000000000000000000000000000000000000000000000815260ff9182166004820152911660248201526001600160a01b039091169250637659bc609150604401600060405180830381600087803b1580156149b057600080fd5b505af11580156149c4573d6000803e3d6000fd5b50505060408085015160048054885160208a015194517f9cec51940000000000000000000000000000000000000000000000000000000081529395506000946001600160a01b0390921693639cec519493614a2f93910160ff92831681529116602082015260400190565b600060405180830381865afa158015614a4c573d6000803e3d6000fd5b505050506040513d6000823e601f3d908101601f19168201604052614a749190810190615e13565b6004805460408981015160608b015191517f9cec519400000000000000000000000000000000000000000000000000000000815260ff918216948101949094521660248301529192506000916001600160a01b031690639cec519490604401600060405180830381865afa158015614af0573d6000803e3d6000fd5b505050506040513d6000823e601f3d908101601f19168201604052614b189190810190615e13565b9050600a604051806101a00160405280896000015160ff168152602001896020015160ff168152602001896040015160ff168152602001896060015160ff168152602001428152602001886040015115158152602001896080015161016001518a608001516101400151614b8c9190615b03565b815288516020818101519151920191614ba59190615b03565b81526020018960c0015181526020018960a0015161016001518a60a001516101400151614bd29190615b03565b8152602001886000015160600151896000015160400151614bf39190615b03565b815260e08a8101516020808401919091528a81015160409384015284546001808201875560009687528287208651600a909302018054878501518888015160608a015160ff96871661ffff19909416939093176101009287168302177fffffffffffffffffffffffffffffffffffffffffffffffffffffffff0000ffff1662010000918716919091027fffffffffffffffffffffffffffffffffffffffffffffffffffffffff00ffffff16176301000000959092169490940217815560808701518183015560a08701516002808301805460ff19169215159290921790915560c088015160038301559487015160048201559186015160058301556101208601516006830155610140860151600783015561016086015160088301556101809095015160099091015582518084019093528683528201859052600b80549384018155909352805190927f0175b7a638427703f0dbe7bb9bbf987a2551717b34e79f33b5b1008d1fa01db9920291909101908190614d709082615efb565b5060208201516001820190614d859082615efb565b5050600a5460009150614d9a90600190615a61565b9050600c6000614dbe8a600001518b6020015160ff1660089190911b61ff00161790565b61ffff16815260208082019290925260409081016000908120805460018101825590825292812090920183905589015160608a0151600c9291614e0c9160ff1660089190911b61ff00161790565b61ffff168152602080820192909252604090810160009081208054600181018255908252908390200183905589518a8301518b8301516060808e0151855160ff9586168152938516968401969096529083168285015291909316908301528515156080830152516001600160a01b0387811692908916917f47389018a4bfd5e1ef612f1fe9082cc3e3675be36e77743a6bfaf0ea011d586f9181900360a00190a35050505050505050565b60ff818116600884901b61ff00161760008181526006602052604090205490916005911610614f285760405162461bcd60e51b815260206004820152600160248201527f350000000000000000000000000000000000000000000000000000000000000060448201526064016108cd565b61ffff166000908152600660205260409020805460ff8082166001011660ff199091161790555050565b614f7d6040518060800160405280600081526020016000815260200160008152602001600081525090565b6000828411614f9557614f908484615a61565b614f9f565b614f9f8385615a61565b90506000614fad8486615b03565b9050600081116150015760405162461bcd60e51b81526004016108cd9060208082526004908201527f7a65726f00000000000000000000000000000000000000000000000000000000604082015260600190565b60008161500f846064615c23565b6150199190615c3a565b90508486111561511257606461504e60026150348484615a61565b61503e9190615c3a565b615049906019615b03565b615350565b89610140015161505e9190615c23565b6150689190615c3a565b84526064615090600461507b8484615a61565b6150859190615c3a565b61504990600a615b03565b8961016001516150a09190615c23565b6150aa9190615c3a565b602085015260646150bf615049836032615b03565b8861014001516150cf9190615c23565b6150d99190615c3a565b604085015260646150ee615049836032615b03565b8861016001516150fe9190615c23565b6151089190615c3a565b60608501526151e3565b6064615122615049836032615b03565b8961014001516151329190615c23565b61513c9190615c3a565b8452606461514e61503e600284615c3a565b89610160015161515e9190615c23565b6151689190615c3a565b60208501526064615193600461517e8484615a61565b6151889190615c3a565b61504990600f615b03565b8861014001516151a39190615c23565b6151ad9190615c3a565b604085015260646151c3600461507b8484615a61565b8861016001516151d39190615c23565b6151dd9190615c3a565b60608501525b505050949350505050565b6000828410156151ff575081615211565b8184111561520e575080615211565b50825b9392505050565b600060018711156153455760006064615231848a615c23565b61523b9190615c3a565b9050801561534357600154604051633e5f285760e01b815260ff808816600483015280871660248301528b16604482015260648101839052600060848201526001600160a01b0390911690633e5f28579060a401600060405180830381600087803b1580156152a957600080fd5b505af11580156152bd573d6000803e3d6000fd5b505060018054604051633e5f285760e01b815260ff808d166004830152808c1660248301528e1660448201526064810186905260848101929092526001600160a01b03169250633e5f2857915060a401600060405180830381600087803b15801561532757600080fd5b505af115801561533b573d6000803e3d6000fd5b505050508091505b505b979650505050505050565b60006139d761536083600a615367565b605a61537d565b600081831161537657816139d4565b5090919050565b600081831061537657816139d4565b604051806101000160405280600060ff168152602001600060ff168152602001600060ff168152602001600060ff168152602001615445604051806101e0016040528060008152602001600081526020016000815260200160008152602001600061ffff16815260200160008152602001600081526020016000815260200160008152602001600081526020016000815260200160008152602001600061ffff168152602001600061ffff168152602001600081525090565b81526020016154cf604051806101e0016040528060008152602001600081526020016000815260200160008152602001600061ffff16815260200160008152602001600081526020016000815260200160008152602001600081526020016000815260200160008152602001600061ffff168152602001600061ffff168152602001600081525090565b815260200160008152602001600081525090565b60405180606001604052806155196040518060800160405280600081526020016000815260200160008152602001600081525090565b815260006020820181905260409091015290565b60005b83811015615548578181015183820152602001615530565b50506000910152565b6000815180845261556981602086016020860161552d565b601f01601f19169290920160200192915050565b600081518084526020808501808196508360051b8101915082860160005b858110156155eb5782840389528151604081518187526155bd82880182615551565b915050868201519150858103878701526155d78183615551565b9a87019a955050509084019060010161559b565b5091979650505050505050565b6040808252835182820181905260009190606090818501906020808901865b8381101561566f578151805160ff908116875284820151811685880152888201518116898801528782015116878701526080808201519087015260a09081015115159086015260c09094019390820190600101615617565b50508683039087015250615345818761557d565b803560ff8116811461569457600080fd5b919050565b600080600080608085870312156156af57600080fd5b6156b885615683565b93506156c660208601615683565b92506156d460408601615683565b91506156e260608601615683565b905092959194509250565b61ffff811681146156fd57600080fd5b50565b60006020828403121561571257600080fd5b8135615211816156ed565b6000806000806080858703121561573357600080fd5b61573c85615683565b935061574a60208601615683565b925061575860408601615683565b9396929550929360600135925050565b60008060008060008060c0878903121561578157600080fd5b61578a87615683565b955061579860208801615683565b94506157a660408801615683565b93506157b460608801615683565b92506157c260808801615683565b915060a087013590509295509295509295565b600080604083850312156157e857600080fd5b6157f183615683565b91506157ff60208401615683565b90509250929050565b602080825282518282018190526000919060409081850190868401855b828110156155eb578151805160ff90811686528782015181168887015286820151811687870152606080830151909116908601526080808201519086015260a08082015115159086015260c0808201519086015260e08082015190860152610100808201519086015261012080820151908601526101408082015190860152610160808201519086015261018090810151908501526101a09093019290850190600101615825565b600080600080608085870312156158e357600080fd5b6158ec85615683565b93506158fa60208601615683565b93969395505050506040820135916060013590565b6000806040838503121561592257600080fd5b50508035926020909101359150565b600080600080600060a0868803121561594957600080fd5b61595286615683565b945061596060208701615683565b935061596e60408701615683565b94979396509394606081013594506080013592915050565b60008060006060848603121561599b57600080fd5b6159a484615683565b92506159b260208501615683565b91506159c060408501615683565b90509250925092565b602080825282518282018190526000919060409081850190868401855b828110156155eb578151805160ff908116865287820151811688870152868201511686860152606080820151908601526080908101519085015260a090930192908501906001016159e6565b7f4e487b7100000000000000000000000000000000000000000000000000000000600052601160045260246000fd5b818103818111156139d7576139d7615a32565b7f4e487b7100000000000000000000000000000000000000000000000000000000600052603260045260246000fd5b60006000198203615ab657615ab6615a32565b5060010190565b600081615acc57615acc615a32565b506000190190565b7f4e487b7100000000000000000000000000000000000000000000000000000000600052604160045260246000fd5b808201808211156139d7576139d7615a32565b600181811c90821680615b2a57607f821691505b602082108103615b63577f4e487b7100000000000000000000000000000000000000000000000000000000600052602260045260246000fd5b50919050565b80516001600160a01b038116811461569457600080fd5b600060208284031215615b9257600080fd5b6139d482615b69565b600060208284031215615bad57600080fd5b5051919050565b8051801515811461569457600080fd5b60008060008060008060c08789031215615bdd57600080fd5b615be687615bb4565b9550615bf460208801615b69565b9450615c0260408801615bb4565b9350606087015192506080870151915060a087015190509295509295509295565b80820281158282048414176139d7576139d7615a32565b600082615c70577f4e487b7100000000000000000000000000000000000000000000000000000000600052601260045260246000fd5b500490565b600060208284031215615c8757600080fd5b6139d482615bb4565b60ff81811683821601908111156139d7576139d7615a32565b6040516101e0810167ffffffffffffffff81118282101715615ccd57615ccd615ad4565b60405290565b8051615694816156ed565b60006101e08284031215615cf157600080fd5b615cf9615ca9565b82518152602083015160208201526040830151604082015260608301516060820152615d2760808401615cd3565b608082015260a0838101519082015260c0808401519082015260e080840151908201526101008084015190820152610120808401519082015261014080840151908201526101608084015190820152610180615d84818501615cd3565b908201526101a0615d96848201615cd3565b908201526101c0928301519281019290925250919050565b7f4e487b7100000000000000000000000000000000000000000000000000000000600052603160045260246000fd5b60ff82811682821603908111156139d7576139d7615a32565b600060208284031215615e0857600080fd5b8151615211816156ed565b600060208284031215615e2557600080fd5b815167ffffffffffffffff80821115615e3d57600080fd5b818401915084601f830112615e5157600080fd5b815181811115615e6357615e63615ad4565b604051601f8201601f19908116603f01168101908382118183101715615e8b57615e8b615ad4565b81604052828152876020848701011115615ea457600080fd5b61534583602083016020880161552d565b601f8211156139a757600081815260208120601f850160051c81016020861015615edc5750805b601f850160051c820191505b818110156117b157828155600101615ee8565b815167ffffffffffffffff811115615f1557615f15615ad4565b615f2981615f238454615b16565b84615eb5565b602080601f831160018114615f5e5760008415615f465750858301515b600019600386901b1c1916600185901b1785556117b1565b600085815260208120601f198616915b82811015615f8d57888601518255948401946001909101908401615f6e565b5085821015615fab5787850151600019600388901b60f8161c191681555b5050505050600190811b0190555056fea2646970667358221220668c3a66caacf84ef21b78cbc7aad8681be17a3d5ac3e16c279723c95b8aa11d64736f6c63430008120033",
			"opcodes": "PUSH1 0x80 PUSH1 0x40 MSTORE CALLVALUE DUP1 ISZERO PUSH3 0x11 JUMPI PUSH1 0x0 DUP1 REVERT JUMPDEST POP PUSH1 0x40 MLOAD PUSH3 0x6108 CODESIZE SUB DUP1 PUSH3 0x6108 DUP4 CODECOPY DUP2 ADD PUSH1 0x40 DUP2 SWAP1 MSTORE PUSH3 0x34 SWAP2 PUSH3 0xAA JUMP JUMPDEST PUSH1 0x1 PUSH1 0x0 DUP2 SWAP1 SSTORE DUP1 SLOAD PUSH1 0x1 PUSH1 0x1 PUSH1 0xA0 SHL SUB SWAP6 DUP7 AND PUSH1 0x1 PUSH1 0x1 PUSH1 0xA0 SHL SUB NOT SWAP2 DUP3 AND OR SWAP1 SWAP2 SSTORE PUSH1 0x2 DUP1 SLOAD SWAP5 DUP7 AND SWAP5 DUP3 AND SWAP5 SWAP1 SWAP5 OR SWAP1 SWAP4 SSTORE PUSH1 0x3 DUP1 SLOAD SWAP3 DUP6 AND SWAP3 DUP5 AND SWAP3 SWAP1 SWAP3 OR SWAP1 SWAP2 SSTORE PUSH1 0x4 DUP1 SLOAD SWAP2 SWAP1 SWAP4 AND SWAP2 AND OR SWAP1 SSTORE PUSH3 0x107 JUMP JUMPDEST DUP1 MLOAD PUSH1 0x1 PUSH1 0x1 PUSH1 0xA0 SHL SUB DUP2 AND DUP2 EQ PUSH3 0xA5 JUMPI PUSH1 0x0 DUP1 REVERT JUMPDEST SWAP2 SWAP1 POP JUMP JUMPDEST PUSH1 0x0 DUP1 PUSH1 0x0 DUP1 PUSH1 0x80 DUP6 DUP8 SUB SLT ISZERO PUSH3 0xC1 JUMPI PUSH1 0x0 DUP1 REVERT JUMPDEST PUSH3 0xCC DUP6 PUSH3 0x8D JUMP JUMPDEST SWAP4 POP PUSH3 0xDC PUSH1 0x20 DUP7 ADD PUSH3 0x8D JUMP JUMPDEST SWAP3 POP PUSH3 0xEC PUSH1 0x40 DUP7 ADD PUSH3 0x8D JUMP JUMPDEST SWAP2 POP PUSH3 0xFC PUSH1 0x60 DUP7 ADD PUSH3 0x8D JUMP JUMPDEST SWAP1 POP SWAP3 SWAP6 SWAP2 SWAP5 POP SWAP3 POP JUMP JUMPDEST PUSH2 0x5FF1 DUP1 PUSH3 0x117 PUSH1 0x0 CODECOPY PUSH1 0x0 RETURN INVALID PUSH1 0x80 PUSH1 0x40 MSTORE CALLVALUE DUP1 ISZERO PUSH2 0x10 JUMPI PUSH1 0x0 DUP1 REVERT JUMPDEST POP PUSH1 0x4 CALLDATASIZE LT PUSH2 0x16C JUMPI PUSH1 0x0 CALLDATALOAD PUSH1 0xE0 SHR DUP1 PUSH4 0x763540CD GT PUSH2 0xCD JUMPI DUP1 PUSH4 0xB0D77774 GT PUSH2 0x81 JUMPI DUP1 PUSH4 0xC49443AC GT PUSH2 0x66 JUMPI DUP1 PUSH4 0xC49443AC EQ PUSH2 0x379 JUMPI DUP1 PUSH4 0xCA030079 EQ PUSH2 0x38C JUMPI DUP1 PUSH4 0xEFCB01BA EQ PUSH2 0x39F JUMPI PUSH1 0x0 DUP1 REVERT JUMPDEST DUP1 PUSH4 0xB0D77774 EQ PUSH2 0x353 JUMPI DUP1 PUSH4 0xC399C2B0 EQ PUSH2 0x366 JUMPI PUSH1 0x0 DUP1 REVERT JUMPDEST DUP1 PUSH4 0x823E9282 GT PUSH2 0xB2 JUMPI DUP1 PUSH4 0x823E9282 EQ PUSH2 0x30D JUMPI DUP1 PUSH4 0x999A2F7A EQ PUSH2 0x32D JUMPI DUP1 PUSH4 0xADA680CF EQ PUSH2 0x340 JUMPI PUSH1 0x0 DUP1 REVERT JUMPDEST DUP1 PUSH4 0x763540CD EQ PUSH2 0x28E JUMPI DUP1 PUSH4 0x77F8C951 EQ PUSH2 0x2B9 JUMPI PUSH1 0x0 DUP1 REVERT JUMPDEST DUP1 PUSH4 0x3A965C90 GT PUSH2 0x124 JUMPI DUP1 PUSH4 0x54ADAC10 GT PUSH2 0x109 JUMPI DUP1 PUSH4 0x54ADAC10 EQ PUSH2 0x23D JUMPI DUP1 PUSH4 0x697E71D2 EQ PUSH2 0x250 JUMPI DUP1 PUSH4 0x70D27E41 EQ PUSH2 0x263 JUMPI PUSH1 0x0 DUP1 REVERT JUMPDEST DUP1 PUSH4 0x3A965C90 EQ PUSH2 0x217 JUMPI DUP1 PUSH4 0x4F264B03 EQ PUSH2 0x22A JUMPI PUSH1 0x0 DUP1 REVERT JUMPDEST DUP1 PUSH4 0x21F65C90 GT PUSH2 0x155 JUMPI DUP1 PUSH4 0x21F65C90 EQ PUSH2 0x1B7 JUMPI DUP1 PUSH4 0x2C400CB7 EQ PUSH2 0x1CD JUMPI DUP1 PUSH4 0x30378338 EQ PUSH2 0x1E2 JUMPI PUSH1 0x0 DUP1 REVERT JUMPDEST DUP1 PUSH4 0xD67F59E EQ PUSH2 0x171 JUMPI DUP1 PUSH4 0x10AC4633 EQ PUSH2 0x1A1 JUMPI JUMPDEST PUSH1 0x0 DUP1 REVERT JUMPDEST PUSH1 0x2 SLOAD PUSH2 0x184 SWAP1 PUSH1 0x1 PUSH1 0x1 PUSH1 0xA0 SHL SUB AND DUP2 JUMP JUMPDEST PUSH1 0x40 MLOAD PUSH1 0x1 PUSH1 0x1 PUSH1 0xA0 SHL SUB SWAP1 SWAP2 AND DUP2 MSTORE PUSH1 0x20 ADD JUMPDEST PUSH1 0x40 MLOAD DUP1 SWAP2 SUB SWAP1 RETURN JUMPDEST PUSH2 0x1A9 PUSH1 0xA DUP2 JUMP JUMPDEST PUSH1 0x40 MLOAD SWAP1 DUP2 MSTORE PUSH1 0x20 ADD PUSH2 0x198 JUMP JUMPDEST PUSH2 0x1BF PUSH2 0x3BF JUMP JUMPDEST PUSH1 0x40 MLOAD PUSH2 0x198 SWAP3 SWAP2 SWAP1 PUSH2 0x55F8 JUMP JUMPDEST PUSH2 0x1E0 PUSH2 0x1DB CALLDATASIZE PUSH1 0x4 PUSH2 0x5699 JUMP JUMPDEST PUSH2 0x814 JUMP JUMPDEST STOP JUMPDEST PUSH2 0x205 PUSH2 0x1F0 CALLDATASIZE PUSH1 0x4 PUSH2 0x5700 JUMP JUMPDEST PUSH1 0x6 PUSH1 0x20 MSTORE PUSH1 0x0 SWAP1 DUP2 MSTORE PUSH1 0x40 SWAP1 KECCAK256 SLOAD PUSH1 0xFF AND DUP2 JUMP JUMPDEST PUSH1 0x40 MLOAD PUSH1 0xFF SWAP1 SWAP2 AND DUP2 MSTORE PUSH1 0x20 ADD PUSH2 0x198 JUMP JUMPDEST PUSH2 0x1E0 PUSH2 0x225 CALLDATASIZE PUSH1 0x4 PUSH2 0x571D JUMP JUMPDEST PUSH2 0xB2D JUMP JUMPDEST PUSH1 0x3 SLOAD PUSH2 0x184 SWAP1 PUSH1 0x1 PUSH1 0x1 PUSH1 0xA0 SHL SUB AND DUP2 JUMP JUMPDEST PUSH2 0x1E0 PUSH2 0x24B CALLDATASIZE PUSH1 0x4 PUSH2 0x5768 JUMP JUMPDEST PUSH2 0xE37 JUMP JUMPDEST PUSH2 0x1E0 PUSH2 0x25E CALLDATASIZE PUSH1 0x4 PUSH2 0x5699 JUMP JUMPDEST PUSH2 0x17B9 JUMP JUMPDEST PUSH2 0x1A9 PUSH2 0x271 CALLDATASIZE PUSH1 0x4 PUSH2 0x57D5 JUMP JUMPDEST PUSH1 0x9 PUSH1 0x20 SWAP1 DUP2 MSTORE PUSH1 0x0 SWAP3 DUP4 MSTORE PUSH1 0x40 DUP1 DUP5 KECCAK256 SWAP1 SWAP2 MSTORE SWAP1 DUP3 MSTORE SWAP1 KECCAK256 SLOAD DUP2 JUMP JUMPDEST PUSH2 0x1A9 PUSH2 0x29C CALLDATASIZE PUSH1 0x4 PUSH2 0x57D5 JUMP JUMPDEST PUSH1 0x8 PUSH1 0x20 SWAP1 DUP2 MSTORE PUSH1 0x0 SWAP3 DUP4 MSTORE PUSH1 0x40 DUP1 DUP5 KECCAK256 SWAP1 SWAP2 MSTORE SWAP1 DUP3 MSTORE SWAP1 KECCAK256 SLOAD DUP2 JUMP JUMPDEST PUSH2 0x2CC PUSH2 0x2C7 CALLDATASIZE PUSH1 0x4 PUSH2 0x57D5 JUMP JUMPDEST PUSH2 0x1BBE JUMP JUMPDEST PUSH1 0x40 MLOAD PUSH2 0x198 SWAP2 SWAP1 PUSH1 0x0 PUSH1 0x80 DUP3 ADD SWAP1 POP PUSH1 0xFF DUP4 MLOAD AND DUP3 MSTORE PUSH1 0xFF PUSH1 0x20 DUP5 ADD MLOAD AND PUSH1 0x20 DUP4 ADD MSTORE PUSH1 0xFF PUSH1 0x40 DUP5 ADD MLOAD AND PUSH1 0x40 DUP4 ADD MSTORE PUSH1 0x60 DUP4 ADD MLOAD PUSH1 0x60 DUP4 ADD MSTORE SWAP3 SWAP2 POP POP JUMP JUMPDEST PUSH2 0x320 PUSH2 0x31B CALLDATASIZE PUSH1 0x4 PUSH2 0x57D5 JUMP JUMPDEST PUSH2 0x1CF8 JUMP JUMPDEST PUSH1 0x40 MLOAD PUSH2 0x198 SWAP2 SWAP1 PUSH2 0x5808 JUMP JUMPDEST PUSH2 0x1E0 PUSH2 0x33B CALLDATASIZE PUSH1 0x4 PUSH2 0x571D JUMP JUMPDEST PUSH2 0x207F JUMP JUMPDEST PUSH2 0x320 PUSH2 0x34E CALLDATASIZE PUSH1 0x4 PUSH2 0x58CD JUMP JUMPDEST PUSH2 0x2880 JUMP JUMPDEST PUSH1 0x1 SLOAD PUSH2 0x184 SWAP1 PUSH1 0x1 PUSH1 0x1 PUSH1 0xA0 SHL SUB AND DUP2 JUMP JUMPDEST PUSH2 0x1BF PUSH2 0x374 CALLDATASIZE PUSH1 0x4 PUSH2 0x590F JUMP JUMPDEST PUSH2 0x2C31 JUMP JUMPDEST PUSH1 0x4 SLOAD PUSH2 0x184 SWAP1 PUSH1 0x1 PUSH1 0x1 PUSH1 0xA0 SHL SUB AND DUP2 JUMP JUMPDEST PUSH2 0x1E0 PUSH2 0x39A CALLDATASIZE PUSH1 0x4 PUSH2 0x5931 JUMP JUMPDEST PUSH2 0x30B3 JUMP JUMPDEST PUSH2 0x3B2 PUSH2 0x3AD CALLDATASIZE PUSH1 0x4 PUSH2 0x5986 JUMP JUMPDEST PUSH2 0x351C JUMP JUMPDEST PUSH1 0x40 MLOAD PUSH2 0x198 SWAP2 SWAP1 PUSH2 0x59C9 JUMP JUMPDEST PUSH1 0x60 DUP1 PUSH1 0x0 PUSH2 0x3D1 PUSH3 0x93A80 TIMESTAMP PUSH2 0x5A61 JUMP JUMPDEST PUSH1 0xA SLOAD SWAP1 SWAP2 POP PUSH1 0x0 SWAP1 JUMPDEST DUP1 ISZERO PUSH2 0x43F JUMPI DUP3 PUSH1 0xA PUSH2 0x3EF PUSH1 0x1 DUP5 PUSH2 0x5A61 JUMP JUMPDEST DUP2 SLOAD DUP2 LT PUSH2 0x3FF JUMPI PUSH2 0x3FF PUSH2 0x5A74 JUMP JUMPDEST SWAP1 PUSH1 0x0 MSTORE PUSH1 0x20 PUSH1 0x0 KECCAK256 SWAP1 PUSH1 0xA MUL ADD PUSH1 0x1 ADD SLOAD LT PUSH2 0x428 JUMPI DUP2 PUSH2 0x420 DUP2 PUSH2 0x5AA3 JUMP JUMPDEST SWAP3 POP POP PUSH2 0x42D JUMP JUMPDEST PUSH2 0x43F JUMP JUMPDEST DUP1 PUSH2 0x437 DUP2 PUSH2 0x5ABD JUMP JUMPDEST SWAP2 POP POP PUSH2 0x3DB JUMP JUMPDEST POP DUP1 PUSH8 0xFFFFFFFFFFFFFFFF DUP2 GT ISZERO PUSH2 0x459 JUMPI PUSH2 0x459 PUSH2 0x5AD4 JUMP JUMPDEST PUSH1 0x40 MLOAD SWAP1 DUP1 DUP3 MSTORE DUP1 PUSH1 0x20 MUL PUSH1 0x20 ADD DUP3 ADD PUSH1 0x40 MSTORE DUP1 ISZERO PUSH2 0x4B9 JUMPI DUP2 PUSH1 0x20 ADD JUMPDEST PUSH1 0x40 DUP1 MLOAD PUSH1 0xC0 DUP2 ADD DUP3 MSTORE PUSH1 0x0 DUP1 DUP3 MSTORE PUSH1 0x20 DUP1 DUP4 ADD DUP3 SWAP1 MSTORE SWAP3 DUP3 ADD DUP2 SWAP1 MSTORE PUSH1 0x60 DUP3 ADD DUP2 SWAP1 MSTORE PUSH1 0x80 DUP3 ADD DUP2 SWAP1 MSTORE PUSH1 0xA0 DUP3 ADD MSTORE DUP3 MSTORE PUSH1 0x0 NOT SWAP1 SWAP3 ADD SWAP2 ADD DUP2 PUSH2 0x477 JUMPI SWAP1 POP JUMPDEST POP SWAP4 POP DUP1 PUSH8 0xFFFFFFFFFFFFFFFF DUP2 GT ISZERO PUSH2 0x4D5 JUMPI PUSH2 0x4D5 PUSH2 0x5AD4 JUMP JUMPDEST PUSH1 0x40 MLOAD SWAP1 DUP1 DUP3 MSTORE DUP1 PUSH1 0x20 MUL PUSH1 0x20 ADD DUP3 ADD PUSH1 0x40 MSTORE DUP1 ISZERO PUSH2 0x51A JUMPI DUP2 PUSH1 0x20 ADD JUMPDEST PUSH1 0x40 DUP1 MLOAD DUP1 DUP3 ADD SWAP1 SWAP2 MSTORE PUSH1 0x60 DUP1 DUP3 MSTORE PUSH1 0x20 DUP3 ADD MSTORE DUP2 MSTORE PUSH1 0x20 ADD SWAP1 PUSH1 0x1 SWAP1 SUB SWAP1 DUP2 PUSH2 0x4F3 JUMPI SWAP1 POP JUMPDEST POP PUSH1 0xA SLOAD SWAP1 SWAP4 POP PUSH1 0x0 SWAP1 PUSH2 0x52F SWAP1 DUP4 SWAP1 PUSH2 0x5A61 JUMP JUMPDEST SWAP1 POP PUSH1 0x0 JUMPDEST DUP3 DUP2 LT ISZERO PUSH2 0x80C JUMPI PUSH1 0x0 PUSH1 0xA PUSH2 0x54A DUP4 DUP6 PUSH2 0x5B03 JUMP JUMPDEST DUP2 SLOAD DUP2 LT PUSH2 0x55A JUMPI PUSH2 0x55A PUSH2 0x5A74 JUMP JUMPDEST PUSH1 0x0 SWAP2 DUP3 MSTORE PUSH1 0x20 SWAP2 DUP3 SWAP1 KECCAK256 PUSH1 0x40 DUP1 MLOAD PUSH2 0x1A0 DUP2 ADD DUP3 MSTORE PUSH1 0xA SWAP1 SWAP4 MUL SWAP1 SWAP2 ADD DUP1 SLOAD PUSH1 0xFF DUP1 DUP3 AND DUP6 MSTORE PUSH2 0x100 DUP1 DUP4 DIV DUP3 AND DUP7 DUP9 ADD SWAP1 DUP2 MSTORE PUSH3 0x10000 DUP5 DIV DUP4 AND DUP8 DUP8 ADD SWAP1 DUP2 MSTORE PUSH4 0x1000000 SWAP1 SWAP5 DIV DUP4 AND PUSH1 0x60 DUP1 DUP10 ADD SWAP2 DUP3 MSTORE PUSH1 0x1 DUP8 ADD SLOAD PUSH1 0x80 DUP1 DUP12 ADD SWAP2 DUP3 MSTORE PUSH1 0x2 DUP10 ADD SLOAD DUP8 AND ISZERO ISZERO PUSH1 0xA0 DUP1 DUP14 ADD SWAP2 DUP3 MSTORE PUSH1 0x3 DUP12 ADD SLOAD PUSH1 0xC0 DUP1 DUP16 ADD SWAP2 SWAP1 SWAP2 MSTORE PUSH1 0x4 DUP13 ADD SLOAD PUSH1 0xE0 DUP16 ADD MSTORE PUSH1 0x5 DUP13 ADD SLOAD SWAP9 DUP15 ADD SWAP9 SWAP1 SWAP9 MSTORE PUSH1 0x6 DUP12 ADD SLOAD PUSH2 0x120 DUP15 ADD MSTORE PUSH1 0x7 DUP12 ADD SLOAD PUSH2 0x140 DUP15 ADD MSTORE PUSH1 0x8 DUP12 ADD SLOAD PUSH2 0x160 DUP15 ADD MSTORE PUSH1 0x9 SWAP1 SWAP11 ADD SLOAD PUSH2 0x180 DUP14 ADD MSTORE DUP11 MLOAD SWAP7 DUP8 ADD DUP12 MSTORE DUP12 MLOAD DUP9 AND DUP8 MSTORE SWAP5 MLOAD DUP8 AND SWAP12 DUP7 ADD SWAP12 SWAP1 SWAP12 MSTORE SWAP6 MLOAD DUP6 AND SWAP8 DUP5 ADD SWAP8 SWAP1 SWAP8 MSTORE MLOAD SWAP1 SWAP3 AND SWAP5 DUP2 ADD SWAP5 SWAP1 SWAP5 MSTORE SWAP1 MLOAD SWAP5 DUP4 ADD SWAP5 SWAP1 SWAP5 MSTORE SWAP3 MLOAD ISZERO ISZERO SWAP3 DUP2 ADD SWAP3 SWAP1 SWAP3 MSTORE DUP9 MLOAD SWAP1 SWAP3 POP DUP9 SWAP1 DUP5 SWAP1 DUP2 LT PUSH2 0x677 JUMPI PUSH2 0x677 PUSH2 0x5A74 JUMP JUMPDEST PUSH1 0x20 SWAP1 DUP2 MUL SWAP2 SWAP1 SWAP2 ADD ADD MSTORE PUSH1 0xB PUSH2 0x68E DUP4 DUP6 PUSH2 0x5B03 JUMP JUMPDEST DUP2 SLOAD DUP2 LT PUSH2 0x69E JUMPI PUSH2 0x69E PUSH2 0x5A74 JUMP JUMPDEST SWAP1 PUSH1 0x0 MSTORE PUSH1 0x20 PUSH1 0x0 KECCAK256 SWAP1 PUSH1 0x2 MUL ADD PUSH1 0x40 MLOAD DUP1 PUSH1 0x40 ADD PUSH1 0x40 MSTORE SWAP1 DUP2 PUSH1 0x0 DUP3 ADD DUP1 SLOAD PUSH2 0x6C7 SWAP1 PUSH2 0x5B16 JUMP JUMPDEST DUP1 PUSH1 0x1F ADD PUSH1 0x20 DUP1 SWAP2 DIV MUL PUSH1 0x20 ADD PUSH1 0x40 MLOAD SWAP1 DUP2 ADD PUSH1 0x40 MSTORE DUP1 SWAP3 SWAP2 SWAP1 DUP2 DUP2 MSTORE PUSH1 0x20 ADD DUP3 DUP1 SLOAD PUSH2 0x6F3 SWAP1 PUSH2 0x5B16 JUMP JUMPDEST DUP1 ISZERO PUSH2 0x740 JUMPI DUP1 PUSH1 0x1F LT PUSH2 0x715 JUMPI PUSH2 0x100 DUP1 DUP4 SLOAD DIV MUL DUP4 MSTORE SWAP2 PUSH1 0x20 ADD SWAP2 PUSH2 0x740 JUMP JUMPDEST DUP3 ADD SWAP2 SWAP1 PUSH1 0x0 MSTORE PUSH1 0x20 PUSH1 0x0 KECCAK256 SWAP1 JUMPDEST DUP2 SLOAD DUP2 MSTORE SWAP1 PUSH1 0x1 ADD SWAP1 PUSH1 0x20 ADD DUP1 DUP4 GT PUSH2 0x723 JUMPI DUP3 SWAP1 SUB PUSH1 0x1F AND DUP3 ADD SWAP2 JUMPDEST POP POP POP POP POP DUP2 MSTORE PUSH1 0x20 ADD PUSH1 0x1 DUP3 ADD DUP1 SLOAD PUSH2 0x759 SWAP1 PUSH2 0x5B16 JUMP JUMPDEST DUP1 PUSH1 0x1F ADD PUSH1 0x20 DUP1 SWAP2 DIV MUL PUSH1 0x20 ADD PUSH1 0x40 MLOAD SWAP1 DUP2 ADD PUSH1 0x40 MSTORE DUP1 SWAP3 SWAP2 SWAP1 DUP2 DUP2 MSTORE PUSH1 0x20 ADD DUP3 DUP1 SLOAD PUSH2 0x785 SWAP1 PUSH2 0x5B16 JUMP JUMPDEST DUP1 ISZERO PUSH2 0x7D2 JUMPI DUP1 PUSH1 0x1F LT PUSH2 0x7A7 JUMPI PUSH2 0x100 DUP1 DUP4 SLOAD DIV MUL DUP4 MSTORE SWAP2 PUSH1 0x20 ADD SWAP2 PUSH2 0x7D2 JUMP JUMPDEST DUP3 ADD SWAP2 SWAP1 PUSH1 0x0 MSTORE PUSH1 0x20 PUSH1 0x0 KECCAK256 SWAP1 JUMPDEST DUP2 SLOAD DUP2 MSTORE SWAP1 PUSH1 0x1 ADD SWAP1 PUSH1 0x20 ADD DUP1 DUP4 GT PUSH2 0x7B5 JUMPI DUP3 SWAP1 SUB PUSH1 0x1F AND DUP3 ADD SWAP2 JUMPDEST POP POP POP POP POP DUP2 MSTORE POP POP DUP7 DUP4 DUP2 MLOAD DUP2 LT PUSH2 0x7ED JUMPI PUSH2 0x7ED PUSH2 0x5A74 JUMP JUMPDEST PUSH1 0x20 MUL PUSH1 0x20 ADD ADD DUP2 SWAP1 MSTORE POP POP DUP1 DUP1 PUSH2 0x804 SWAP1 PUSH2 0x5AA3 JUMP JUMPDEST SWAP2 POP POP PUSH2 0x534 JUMP JUMPDEST POP POP POP POP SWAP1 SWAP2 JUMP JUMPDEST PUSH2 0x81C PUSH2 0x37A0 JUMP JUMPDEST PUSH1 0x3 SLOAD PUSH1 0x40 MLOAD PUSH4 0x8A888953 PUSH1 0xE0 SHL DUP2 MSTORE PUSH1 0xFF DUP1 DUP8 AND PUSH1 0x4 DUP4 ADD MSTORE DUP6 AND PUSH1 0x24 DUP3 ADD MSTORE DUP6 SWAP2 DUP6 SWAP2 CALLER SWAP2 PUSH1 0x1 PUSH1 0x1 PUSH1 0xA0 SHL SUB AND SWAP1 PUSH4 0x8A888953 SWAP1 PUSH1 0x44 ADD PUSH1 0x20 PUSH1 0x40 MLOAD DUP1 DUP4 SUB DUP2 DUP7 GAS STATICCALL ISZERO DUP1 ISZERO PUSH2 0x873 JUMPI RETURNDATASIZE PUSH1 0x0 DUP1 RETURNDATACOPY RETURNDATASIZE PUSH1 0x0 REVERT JUMPDEST POP POP POP POP PUSH1 0x40 MLOAD RETURNDATASIZE PUSH1 0x1F NOT PUSH1 0x1F DUP3 ADD AND DUP3 ADD DUP1 PUSH1 0x40 MSTORE POP DUP2 ADD SWAP1 PUSH2 0x897 SWAP2 SWAP1 PUSH2 0x5B80 JUMP JUMPDEST PUSH1 0x1 PUSH1 0x1 PUSH1 0xA0 SHL SUB AND EQ PUSH2 0x8D6 JUMPI PUSH1 0x40 MLOAD PUSH3 0x461BCD PUSH1 0xE5 SHL DUP2 MSTORE PUSH1 0x20 PUSH1 0x4 DUP3 ADD MSTORE PUSH1 0x1 PUSH1 0x24 DUP3 ADD MSTORE PUSH1 0x6F PUSH1 0xF8 SHL PUSH1 0x44 DUP3 ADD MSTORE PUSH1 0x64 ADD JUMPDEST PUSH1 0x40 MLOAD DUP1 SWAP2 SUB SWAP1 REVERT JUMPDEST PUSH1 0x1 SLOAD PUSH1 0x40 MLOAD PUSH32 0x4173F9E900000000000000000000000000000000000000000000000000000000 DUP2 MSTORE PUSH1 0xFF DUP1 DUP8 AND PUSH1 0x4 DUP4 ADD MSTORE DUP6 AND PUSH1 0x24 DUP3 ADD MSTORE PUSH1 0x0 SWAP2 PUSH1 0x1 PUSH1 0x1 PUSH1 0xA0 SHL SUB AND SWAP1 PUSH4 0x4173F9E9 SWAP1 PUSH1 0x44 ADD PUSH1 0x20 PUSH1 0x40 MLOAD DUP1 DUP4 SUB DUP2 DUP7 GAS STATICCALL ISZERO DUP1 ISZERO PUSH2 0x943 JUMPI RETURNDATASIZE PUSH1 0x0 DUP1 RETURNDATACOPY RETURNDATASIZE PUSH1 0x0 REVERT JUMPDEST POP POP POP POP PUSH1 0x40 MLOAD RETURNDATASIZE PUSH1 0x1F NOT PUSH1 0x1F DUP3 ADD AND DUP3 ADD DUP1 PUSH1 0x40 MSTORE POP DUP2 ADD SWAP1 PUSH2 0x967 SWAP2 SWAP1 PUSH2 0x5B9B JUMP JUMPDEST SWAP1 POP DUP1 PUSH1 0x0 SUB PUSH2 0x978 JUMPI POP PUSH4 0x68AE4A80 JUMPDEST PUSH2 0x984 DUP2 PUSH2 0x1518 PUSH2 0x5B03 JUMP JUMPDEST TIMESTAMP LT ISZERO PUSH2 0x991 JUMPI POP PUSH2 0xB1B JUMP JUMPDEST PUSH1 0x3 SLOAD PUSH1 0x40 MLOAD PUSH32 0x9B562DF200000000000000000000000000000000000000000000000000000000 DUP2 MSTORE PUSH1 0xFF DUP1 DUP9 AND PUSH1 0x4 DUP4 ADD MSTORE DUP7 AND PUSH1 0x24 DUP3 ADD MSTORE PUSH1 0x0 SWAP2 DUP3 SWAP2 DUP3 SWAP2 PUSH1 0x1 PUSH1 0x1 PUSH1 0xA0 SHL SUB AND SWAP1 PUSH4 0x9B562DF2 SWAP1 PUSH1 0x44 ADD PUSH1 0xC0 PUSH1 0x40 MLOAD DUP1 DUP4 SUB DUP2 DUP7 GAS STATICCALL ISZERO DUP1 ISZERO PUSH2 0xA02 JUMPI RETURNDATASIZE PUSH1 0x0 DUP1 RETURNDATACOPY RETURNDATASIZE PUSH1 0x0 REVERT JUMPDEST POP POP POP POP PUSH1 0x40 MLOAD RETURNDATASIZE PUSH1 0x1F NOT PUSH1 0x1F DUP3 ADD AND DUP3 ADD DUP1 PUSH1 0x40 MSTORE POP DUP2 ADD SWAP1 PUSH2 0xA26 SWAP2 SWAP1 PUSH2 0x5BC4 JUMP JUMPDEST SWAP6 POP POP POP SWAP4 POP POP SWAP3 POP DUP3 ISZERO DUP1 PUSH2 0xA39 JUMPI POP DUP2 JUMPDEST ISZERO PUSH2 0xA47 JUMPI POP POP POP POP PUSH2 0xB1B JUMP JUMPDEST PUSH1 0x0 PUSH1 0x64 PUSH2 0xA56 DUP4 PUSH1 0x5A PUSH2 0x5C23 JUMP JUMPDEST PUSH2 0xA60 SWAP2 SWAP1 PUSH2 0x5C3A JUMP JUMPDEST SWAP1 POP PUSH3 0x989680 PUSH5 0xE8D4A51000 DUP2 DUP4 LT ISZERO PUSH2 0xA78 JUMPI DUP2 SWAP3 POP JUMPDEST DUP1 DUP4 GT ISZERO PUSH2 0xA84 JUMPI DUP1 SWAP3 POP JUMPDEST PUSH1 0x3 SLOAD PUSH1 0x40 MLOAD PUSH32 0xD855E7E100000000000000000000000000000000000000000000000000000000 DUP2 MSTORE PUSH1 0xFF DUP1 DUP15 AND PUSH1 0x4 DUP4 ADD MSTORE DUP13 AND PUSH1 0x24 DUP3 ADD MSTORE PUSH1 0x1 PUSH1 0x44 DUP3 ADD MSTORE PUSH1 0x64 DUP2 ADD DUP6 SWAP1 MSTORE PUSH1 0x1 PUSH1 0x1 PUSH1 0xA0 SHL SUB SWAP1 SWAP2 AND SWAP1 PUSH4 0xD855E7E1 SWAP1 PUSH1 0x84 ADD PUSH1 0x0 PUSH1 0x40 MLOAD DUP1 DUP4 SUB DUP2 PUSH1 0x0 DUP8 DUP1 EXTCODESIZE ISZERO DUP1 ISZERO PUSH2 0xAFB JUMPI PUSH1 0x0 DUP1 REVERT JUMPDEST POP GAS CALL ISZERO DUP1 ISZERO PUSH2 0xB0F JUMPI RETURNDATASIZE PUSH1 0x0 DUP1 RETURNDATACOPY RETURNDATASIZE PUSH1 0x0 REVERT JUMPDEST POP POP POP POP POP POP POP POP POP POP POP JUMPDEST POP POP PUSH2 0xB27 PUSH1 0x1 PUSH1 0x0 SSTORE JUMP JUMPDEST POP POP POP POP JUMP JUMPDEST PUSH2 0xB35 PUSH2 0x37A0 JUMP JUMPDEST PUSH1 0x3 SLOAD PUSH1 0x40 MLOAD PUSH4 0x8A888953 PUSH1 0xE0 SHL DUP2 MSTORE PUSH1 0xFF DUP1 DUP8 AND PUSH1 0x4 DUP4 ADD MSTORE DUP6 AND PUSH1 0x24 DUP3 ADD MSTORE DUP6 SWAP2 DUP6 SWAP2 CALLER SWAP2 PUSH1 0x1 PUSH1 0x1 PUSH1 0xA0 SHL SUB AND SWAP1 PUSH4 0x8A888953 SWAP1 PUSH1 0x44 ADD PUSH1 0x20 PUSH1 0x40 MLOAD DUP1 DUP4 SUB DUP2 DUP7 GAS STATICCALL ISZERO DUP1 ISZERO PUSH2 0xB8C JUMPI RETURNDATASIZE PUSH1 0x0 DUP1 RETURNDATACOPY RETURNDATASIZE PUSH1 0x0 REVERT JUMPDEST POP POP POP POP PUSH1 0x40 MLOAD RETURNDATASIZE PUSH1 0x1F NOT PUSH1 0x1F DUP3 ADD AND DUP3 ADD DUP1 PUSH1 0x40 MSTORE POP DUP2 ADD SWAP1 PUSH2 0xBB0 SWAP2 SWAP1 PUSH2 0x5B80 JUMP JUMPDEST PUSH1 0x1 PUSH1 0x1 PUSH1 0xA0 SHL SUB AND EQ PUSH2 0xBEA JUMPI PUSH1 0x40 MLOAD PUSH3 0x461BCD PUSH1 0xE5 SHL DUP2 MSTORE PUSH1 0x20 PUSH1 0x4 DUP3 ADD MSTORE PUSH1 0x1 PUSH1 0x24 DUP3 ADD MSTORE PUSH1 0x6F PUSH1 0xF8 SHL PUSH1 0x44 DUP3 ADD MSTORE PUSH1 0x64 ADD PUSH2 0x8CD JUMP JUMPDEST PUSH1 0x1 DUP5 PUSH1 0xFF AND LT ISZERO DUP1 ISZERO PUSH2 0xC02 JUMPI POP PUSH1 0x8 DUP5 PUSH1 0xFF AND GT ISZERO JUMPDEST PUSH2 0xC4E JUMPI PUSH1 0x40 MLOAD PUSH3 0x461BCD PUSH1 0xE5 SHL DUP2 MSTORE PUSH1 0x20 PUSH1 0x4 DUP3 ADD MSTORE PUSH1 0x2 PUSH1 0x24 DUP3 ADD MSTORE PUSH32 0x2074000000000000000000000000000000000000000000000000000000000000 PUSH1 0x44 DUP3 ADD MSTORE PUSH1 0x64 ADD PUSH2 0x8CD JUMP JUMPDEST PUSH1 0xFF DUP5 AND PUSH1 0x0 SWAP1 DUP2 MSTORE PUSH1 0x7 PUSH1 0x20 MSTORE PUSH1 0x40 SWAP1 KECCAK256 SLOAD DUP4 LT PUSH2 0xCAF JUMPI PUSH1 0x40 MLOAD PUSH3 0x461BCD PUSH1 0xE5 SHL DUP2 MSTORE PUSH1 0x20 PUSH1 0x4 DUP3 ADD MSTORE PUSH1 0x2 PUSH1 0x24 DUP3 ADD MSTORE PUSH32 0x2069000000000000000000000000000000000000000000000000000000000000 PUSH1 0x44 DUP3 ADD MSTORE PUSH1 0x64 ADD PUSH2 0x8CD JUMP JUMPDEST PUSH1 0xFF DUP5 AND PUSH1 0x0 SWAP1 DUP2 MSTORE PUSH1 0x7 PUSH1 0x20 MSTORE PUSH1 0x40 DUP2 KECCAK256 DUP1 SLOAD DUP6 SWAP1 DUP2 LT PUSH2 0xCD3 JUMPI PUSH2 0xCD3 PUSH2 0x5A74 JUMP JUMPDEST PUSH1 0x0 SWAP2 DUP3 MSTORE PUSH1 0x20 SWAP2 DUP3 SWAP1 KECCAK256 PUSH1 0x40 DUP1 MLOAD PUSH1 0xA0 DUP2 ADD DUP3 MSTORE PUSH1 0x3 SWAP1 SWAP4 MUL SWAP1 SWAP2 ADD DUP1 SLOAD PUSH1 0xFF DUP1 DUP3 AND DUP1 DUP7 MSTORE PUSH2 0x100 DUP4 DIV DUP3 AND SWAP7 DUP7 ADD SWAP7 SWAP1 SWAP7 MSTORE PUSH3 0x10000 SWAP1 SWAP2 DIV DUP2 AND SWAP3 DUP5 ADD SWAP3 SWAP1 SWAP3 MSTORE PUSH1 0x1 DUP2 ADD SLOAD PUSH1 0x60 DUP5 ADD MSTORE PUSH1 0x2 ADD SLOAD PUSH1 0x80 DUP4 ADD MSTORE SWAP1 SWAP3 POP DUP9 AND EQ DUP1 ISZERO PUSH2 0xD46 JUMPI POP DUP6 PUSH1 0xFF AND DUP2 PUSH1 0x20 ADD MLOAD PUSH1 0xFF AND EQ JUMPDEST PUSH2 0xD92 JUMPI PUSH1 0x40 MLOAD PUSH3 0x461BCD PUSH1 0xE5 SHL DUP2 MSTORE PUSH1 0x20 PUSH1 0x4 DUP3 ADD MSTORE PUSH1 0x1 PUSH1 0x24 DUP3 ADD MSTORE PUSH32 0x6C00000000000000000000000000000000000000000000000000000000000000 PUSH1 0x44 DUP3 ADD MSTORE PUSH1 0x64 ADD PUSH2 0x8CD JUMP JUMPDEST PUSH1 0x1 DUP1 SLOAD PUSH1 0x60 DUP4 ADD MLOAD PUSH1 0x40 MLOAD PUSH4 0x3E5F2857 PUSH1 0xE0 SHL DUP2 MSTORE PUSH1 0xFF DUP1 DUP13 AND PUSH1 0x4 DUP4 ADD MSTORE DUP1 DUP12 AND PUSH1 0x24 DUP4 ADD MSTORE DUP10 AND PUSH1 0x44 DUP3 ADD MSTORE PUSH1 0x64 DUP2 ADD SWAP2 SWAP1 SWAP2 MSTORE PUSH1 0x84 DUP2 ADD SWAP3 SWAP1 SWAP3 MSTORE PUSH1 0x1 PUSH1 0x1 PUSH1 0xA0 SHL SUB AND SWAP1 PUSH4 0x3E5F2857 SWAP1 PUSH1 0xA4 ADD PUSH1 0x0 PUSH1 0x40 MLOAD DUP1 DUP4 SUB DUP2 PUSH1 0x0 DUP8 DUP1 EXTCODESIZE ISZERO DUP1 ISZERO PUSH2 0xDFE JUMPI PUSH1 0x0 DUP1 REVERT JUMPDEST POP GAS CALL ISZERO DUP1 ISZERO PUSH2 0xE12 JUMPI RETURNDATASIZE PUSH1 0x0 DUP1 RETURNDATACOPY RETURNDATASIZE PUSH1 0x0 REVERT JUMPDEST POP POP POP POP PUSH2 0xE20 DUP6 DUP6 PUSH2 0x37F9 JUMP JUMPDEST PUSH2 0xE2A DUP8 DUP8 PUSH2 0x3957 JUMP JUMPDEST POP POP POP PUSH2 0xB27 PUSH1 0x1 PUSH1 0x0 SSTORE JUMP JUMPDEST PUSH2 0xE3F PUSH2 0x37A0 JUMP JUMPDEST PUSH1 0x3 SLOAD PUSH1 0x40 MLOAD PUSH4 0x8A888953 PUSH1 0xE0 SHL DUP2 MSTORE PUSH1 0xFF DUP1 DUP10 AND PUSH1 0x4 DUP4 ADD MSTORE DUP8 AND PUSH1 0x24 DUP3 ADD MSTORE DUP8 SWAP2 DUP8 SWAP2 CALLER SWAP2 PUSH1 0x1 PUSH1 0x1 PUSH1 0xA0 SHL SUB AND SWAP1 PUSH4 0x8A888953 SWAP1 PUSH1 0x44 ADD PUSH1 0x20 PUSH1 0x40 MLOAD DUP1 DUP4 SUB DUP2 DUP7 GAS STATICCALL ISZERO DUP1 ISZERO PUSH2 0xE96 JUMPI RETURNDATASIZE PUSH1 0x0 DUP1 RETURNDATACOPY RETURNDATASIZE PUSH1 0x0 REVERT JUMPDEST POP POP POP POP PUSH1 0x40 MLOAD RETURNDATASIZE PUSH1 0x1F NOT PUSH1 0x1F DUP3 ADD AND DUP3 ADD DUP1 PUSH1 0x40 MSTORE POP DUP2 ADD SWAP1 PUSH2 0xEBA SWAP2 SWAP1 PUSH2 0x5B80 JUMP JUMPDEST PUSH1 0x1 PUSH1 0x1 PUSH1 0xA0 SHL SUB AND EQ PUSH2 0xEF4 JUMPI PUSH1 0x40 MLOAD PUSH3 0x461BCD PUSH1 0xE5 SHL DUP2 MSTORE PUSH1 0x20 PUSH1 0x4 DUP3 ADD MSTORE PUSH1 0x1 PUSH1 0x24 DUP3 ADD MSTORE PUSH1 0x6F PUSH1 0xF8 SHL PUSH1 0x44 DUP3 ADD MSTORE PUSH1 0x64 ADD PUSH2 0x8CD JUMP JUMPDEST PUSH1 0x1 SLOAD PUSH1 0x40 MLOAD PUSH32 0x4855735C00000000000000000000000000000000000000000000000000000000 DUP2 MSTORE PUSH1 0xFF DUP1 DUP12 AND PUSH1 0x4 DUP4 ADD MSTORE DUP10 AND PUSH1 0x24 DUP3 ADD MSTORE PUSH1 0x1 PUSH1 0x1 PUSH1 0xA0 SHL SUB SWAP1 SWAP2 AND SWAP1 PUSH4 0x4855735C SWAP1 PUSH1 0x44 ADD PUSH1 0x20 PUSH1 0x40 MLOAD DUP1 DUP4 SUB DUP2 DUP7 GAS STATICCALL ISZERO DUP1 ISZERO PUSH2 0xF60 JUMPI RETURNDATASIZE PUSH1 0x0 DUP1 RETURNDATACOPY RETURNDATASIZE PUSH1 0x0 REVERT JUMPDEST POP POP POP POP PUSH1 0x40 MLOAD RETURNDATASIZE PUSH1 0x1F NOT PUSH1 0x1F DUP3 ADD AND DUP3 ADD DUP1 PUSH1 0x40 MSTORE POP DUP2 ADD SWAP1 PUSH2 0xF84 SWAP2 SWAP1 PUSH2 0x5C75 JUMP JUMPDEST PUSH2 0xFD0 JUMPI PUSH1 0x40 MLOAD PUSH3 0x461BCD PUSH1 0xE5 SHL DUP2 MSTORE PUSH1 0x20 PUSH1 0x4 DUP3 ADD MSTORE PUSH1 0x1 PUSH1 0x24 DUP3 ADD MSTORE PUSH32 0x6D00000000000000000000000000000000000000000000000000000000000000 PUSH1 0x44 DUP3 ADD MSTORE PUSH1 0x64 ADD PUSH2 0x8CD JUMP JUMPDEST PUSH1 0x1 SLOAD PUSH1 0x40 MLOAD PUSH32 0x9C54E47100000000000000000000000000000000000000000000000000000000 DUP2 MSTORE PUSH1 0xFF DUP1 DUP10 AND PUSH1 0x4 DUP4 ADD MSTORE DUP8 AND PUSH1 0x24 DUP3 ADD MSTORE PUSH1 0x1 PUSH1 0x1 PUSH1 0xA0 SHL SUB SWAP1 SWAP2 AND SWAP1 PUSH4 0x9C54E471 SWAP1 PUSH1 0x44 ADD PUSH1 0x20 PUSH1 0x40 MLOAD DUP1 DUP4 SUB DUP2 DUP7 GAS STATICCALL ISZERO DUP1 ISZERO PUSH2 0x103C JUMPI RETURNDATASIZE PUSH1 0x0 DUP1 RETURNDATACOPY RETURNDATASIZE PUSH1 0x0 REVERT JUMPDEST POP POP POP POP PUSH1 0x40 MLOAD RETURNDATASIZE PUSH1 0x1F NOT PUSH1 0x1F DUP3 ADD AND DUP3 ADD DUP1 PUSH1 0x40 MSTORE POP DUP2 ADD SWAP1 PUSH2 0x1060 SWAP2 SWAP1 PUSH2 0x5C75 JUMP JUMPDEST ISZERO PUSH2 0x10AD JUMPI PUSH1 0x40 MLOAD PUSH3 0x461BCD PUSH1 0xE5 SHL DUP2 MSTORE PUSH1 0x20 PUSH1 0x4 DUP3 ADD MSTORE PUSH1 0x1 PUSH1 0x24 DUP3 ADD MSTORE PUSH32 0x6300000000000000000000000000000000000000000000000000000000000000 PUSH1 0x44 DUP3 ADD MSTORE PUSH1 0x64 ADD PUSH2 0x8CD JUMP JUMPDEST PUSH1 0x3 SLOAD PUSH1 0x40 MLOAD PUSH4 0x8A888953 PUSH1 0xE0 SHL DUP2 MSTORE PUSH1 0xFF DUP1 DUP10 AND PUSH1 0x4 DUP4 ADD MSTORE DUP8 AND PUSH1 0x24 DUP3 ADD MSTORE PUSH1 0x0 SWAP2 PUSH1 0x1 PUSH1 0x1 PUSH1 0xA0 SHL SUB AND SWAP1 PUSH4 0x8A888953 SWAP1 PUSH1 0x44 ADD PUSH1 0x20 PUSH1 0x40 MLOAD DUP1 DUP4 SUB DUP2 DUP7 GAS STATICCALL ISZERO DUP1 ISZERO PUSH2 0x1101 JUMPI RETURNDATASIZE PUSH1 0x0 DUP1 RETURNDATACOPY RETURNDATASIZE PUSH1 0x0 REVERT JUMPDEST POP POP POP POP PUSH1 0x40 MLOAD RETURNDATASIZE PUSH1 0x1F NOT PUSH1 0x1F DUP3 ADD AND DUP3 ADD DUP1 PUSH1 0x40 MSTORE POP DUP2 ADD SWAP1 PUSH2 0x1125 SWAP2 SWAP1 PUSH2 0x5B80 JUMP JUMPDEST SWAP1 POP PUSH1 0x1 PUSH1 0x1 PUSH1 0xA0 SHL SUB DUP2 AND PUSH2 0x117D JUMPI PUSH1 0x40 MLOAD PUSH3 0x461BCD PUSH1 0xE5 SHL DUP2 MSTORE PUSH1 0x20 PUSH1 0x4 DUP3 ADD MSTORE PUSH1 0x1 PUSH1 0x24 DUP3 ADD MSTORE PUSH32 0x7500000000000000000000000000000000000000000000000000000000000000 PUSH1 0x44 DUP3 ADD MSTORE PUSH1 0x64 ADD PUSH2 0x8CD JUMP JUMPDEST PUSH1 0x1 DUP6 PUSH1 0xFF AND LT ISZERO DUP1 ISZERO PUSH2 0x1195 JUMPI POP PUSH1 0x8 DUP6 PUSH1 0xFF AND GT ISZERO JUMPDEST PUSH2 0x11C5 JUMPI PUSH1 0x40 MLOAD PUSH3 0x461BCD PUSH1 0xE5 SHL DUP2 MSTORE PUSH1 0x20 PUSH1 0x4 DUP3 ADD MSTORE PUSH1 0x1 PUSH1 0x24 DUP3 ADD MSTORE PUSH1 0x1D PUSH1 0xFA SHL PUSH1 0x44 DUP3 ADD MSTORE PUSH1 0x64 ADD PUSH2 0x8CD JUMP JUMPDEST PUSH1 0x1E DUP5 LT ISZERO DUP1 ISZERO PUSH2 0x11D9 JUMPI POP PUSH3 0x186A0 DUP5 GT ISZERO JUMPDEST PUSH2 0x1225 JUMPI PUSH1 0x40 MLOAD PUSH3 0x461BCD PUSH1 0xE5 SHL DUP2 MSTORE PUSH1 0x20 PUSH1 0x4 DUP3 ADD MSTORE PUSH1 0x1 PUSH1 0x24 DUP3 ADD MSTORE PUSH32 0x6100000000000000000000000000000000000000000000000000000000000000 PUSH1 0x44 DUP3 ADD MSTORE PUSH1 0x64 ADD PUSH2 0x8CD JUMP JUMPDEST PUSH1 0x0 PUSH2 0x1231 DUP10 DUP9 PUSH2 0x39AC JUMP JUMPDEST PUSH2 0x123B DUP12 DUP11 PUSH2 0x39AC JUMP JUMPDEST PUSH2 0x1245 SWAP2 SWAP1 PUSH2 0x5C90 JUMP JUMPDEST SWAP1 POP PUSH1 0x0 DUP2 PUSH1 0xFF AND GT DUP1 ISZERO PUSH2 0x125E JUMPI POP PUSH1 0x26 DUP2 PUSH1 0xFF AND GT ISZERO JUMPDEST PUSH2 0x12AA JUMPI PUSH1 0x40 MLOAD PUSH3 0x461BCD PUSH1 0xE5 SHL DUP2 MSTORE PUSH1 0x20 PUSH1 0x4 DUP3 ADD MSTORE PUSH1 0x1 PUSH1 0x24 DUP3 ADD MSTORE PUSH32 0x6400000000000000000000000000000000000000000000000000000000000000 PUSH1 0x44 DUP3 ADD MSTORE PUSH1 0x64 ADD PUSH2 0x8CD JUMP JUMPDEST PUSH4 0x5F5E100 PUSH1 0x0 PUSH2 0x12BE PUSH1 0xFF DUP5 AND DUP4 PUSH2 0x5C23 JUMP JUMPDEST PUSH1 0x2 SLOAD PUSH1 0x40 MLOAD PUSH32 0x23B872DD00000000000000000000000000000000000000000000000000000000 DUP2 MSTORE CALLER PUSH1 0x4 DUP3 ADD MSTORE ADDRESS PUSH1 0x24 DUP3 ADD MSTORE PUSH1 0x44 DUP2 ADD DUP4 SWAP1 MSTORE SWAP2 SWAP3 POP PUSH1 0x1 PUSH1 0x1 PUSH1 0xA0 SHL SUB AND SWAP1 PUSH4 0x23B872DD SWAP1 PUSH1 0x64 ADD PUSH1 0x20 PUSH1 0x40 MLOAD DUP1 DUP4 SUB DUP2 PUSH1 0x0 DUP8 GAS CALL ISZERO DUP1 ISZERO PUSH2 0x132F JUMPI RETURNDATASIZE PUSH1 0x0 DUP1 RETURNDATACOPY RETURNDATASIZE PUSH1 0x0 REVERT JUMPDEST POP POP POP POP PUSH1 0x40 MLOAD RETURNDATASIZE PUSH1 0x1F NOT PUSH1 0x1F DUP3 ADD AND DUP3 ADD DUP1 PUSH1 0x40 MSTORE POP DUP2 ADD SWAP1 PUSH2 0x1353 SWAP2 SWAP1 PUSH2 0x5C75 JUMP JUMPDEST PUSH2 0x139F JUMPI PUSH1 0x40 MLOAD PUSH3 0x461BCD PUSH1 0xE5 SHL DUP2 MSTORE PUSH1 0x20 PUSH1 0x4 DUP3 ADD MSTORE PUSH1 0x1 PUSH1 0x24 DUP3 ADD MSTORE PUSH32 0x6600000000000000000000000000000000000000000000000000000000000000 PUSH1 0x44 DUP3 ADD MSTORE PUSH1 0x64 ADD PUSH2 0x8CD JUMP JUMPDEST PUSH1 0x2 SLOAD PUSH1 0x40 MLOAD PUSH32 0x42966C6800000000000000000000000000000000000000000000000000000000 DUP2 MSTORE PUSH1 0x4 DUP2 ADD DUP4 SWAP1 MSTORE PUSH1 0x1 PUSH1 0x1 PUSH1 0xA0 SHL SUB SWAP1 SWAP2 AND SWAP1 PUSH4 0x42966C68 SWAP1 PUSH1 0x24 ADD PUSH1 0x20 PUSH1 0x40 MLOAD DUP1 DUP4 SUB DUP2 PUSH1 0x0 DUP8 GAS CALL ISZERO DUP1 ISZERO PUSH2 0x1403 JUMPI RETURNDATASIZE PUSH1 0x0 DUP1 RETURNDATACOPY RETURNDATASIZE PUSH1 0x0 REVERT JUMPDEST POP POP POP POP PUSH1 0x40 MLOAD RETURNDATASIZE PUSH1 0x1F NOT PUSH1 0x1F DUP3 ADD AND DUP3 ADD DUP1 PUSH1 0x40 MSTORE POP DUP2 ADD SWAP1 PUSH2 0x1427 SWAP2 SWAP1 PUSH2 0x5C75 JUMP JUMPDEST PUSH2 0x1473 JUMPI PUSH1 0x40 MLOAD PUSH3 0x461BCD PUSH1 0xE5 SHL DUP2 MSTORE PUSH1 0x20 PUSH1 0x4 DUP3 ADD MSTORE PUSH1 0x1 PUSH1 0x24 DUP3 ADD MSTORE PUSH32 0x6200000000000000000000000000000000000000000000000000000000000000 PUSH1 0x44 DUP3 ADD MSTORE PUSH1 0x64 ADD PUSH2 0x8CD JUMP JUMPDEST PUSH1 0x0 PUSH1 0x1E PUSH2 0x1484 DUP10 PUSH1 0xFF DUP8 AND PUSH2 0x5C23 JUMP JUMPDEST PUSH2 0x148E SWAP2 SWAP1 PUSH2 0x5C3A JUMP JUMPDEST PUSH1 0x1 SLOAD SWAP1 SWAP2 POP PUSH1 0x1 PUSH1 0x1 PUSH1 0xA0 SHL SUB AND PUSH4 0x3E5F2857 DUP15 DUP15 DUP13 PUSH2 0x14AF DUP7 DUP15 PUSH2 0x5B03 JUMP JUMPDEST PUSH1 0x40 MLOAD PUSH32 0xFFFFFFFF00000000000000000000000000000000000000000000000000000000 PUSH1 0xE0 DUP8 SWAP1 SHL AND DUP2 MSTORE PUSH1 0xFF SWAP5 DUP6 AND PUSH1 0x4 DUP3 ADD MSTORE SWAP3 DUP5 AND PUSH1 0x24 DUP5 ADD MSTORE SWAP3 AND PUSH1 0x44 DUP3 ADD MSTORE PUSH1 0x64 DUP2 ADD SWAP2 SWAP1 SWAP2 MSTORE PUSH1 0x0 PUSH1 0x84 DUP3 ADD MSTORE PUSH1 0xA4 ADD PUSH1 0x0 PUSH1 0x40 MLOAD DUP1 DUP4 SUB DUP2 PUSH1 0x0 DUP8 DUP1 EXTCODESIZE ISZERO DUP1 ISZERO PUSH2 0x1520 JUMPI PUSH1 0x0 DUP1 REVERT JUMPDEST POP GAS CALL ISZERO DUP1 ISZERO PUSH2 0x1534 JUMPI RETURNDATASIZE PUSH1 0x0 DUP1 RETURNDATACOPY RETURNDATASIZE PUSH1 0x0 REVERT JUMPDEST POP POP PUSH1 0x1 DUP1 SLOAD PUSH1 0x40 MLOAD PUSH4 0x3E5F2857 PUSH1 0xE0 SHL DUP2 MSTORE PUSH1 0x1 PUSH1 0x1 PUSH1 0xA0 SHL SUB SWAP1 SWAP2 AND SWAP4 POP PUSH4 0x3E5F2857 SWAP3 POP PUSH2 0x1599 SWAP2 DUP16 SWAP2 DUP16 SWAP2 DUP16 SWAP2 DUP16 SWAP2 SWAP1 PUSH1 0x4 ADD PUSH1 0xFF SWAP6 DUP7 AND DUP2 MSTORE SWAP4 DUP6 AND PUSH1 0x20 DUP6 ADD MSTORE SWAP2 SWAP1 SWAP4 AND PUSH1 0x40 DUP4 ADD MSTORE PUSH1 0x60 DUP3 ADD SWAP3 SWAP1 SWAP3 MSTORE SWAP1 ISZERO ISZERO PUSH1 0x80 DUP3 ADD MSTORE PUSH1 0xA0 ADD SWAP1 JUMP JUMPDEST PUSH1 0x0 PUSH1 0x40 MLOAD DUP1 DUP4 SUB DUP2 PUSH1 0x0 DUP8 DUP1 EXTCODESIZE ISZERO DUP1 ISZERO PUSH2 0x15B3 JUMPI PUSH1 0x0 DUP1 REVERT JUMPDEST POP GAS CALL ISZERO DUP1 ISZERO PUSH2 0x15C7 JUMPI RETURNDATASIZE PUSH1 0x0 DUP1 RETURNDATACOPY RETURNDATASIZE PUSH1 0x0 REVERT JUMPDEST POP POP POP POP PUSH1 0x40 MLOAD DUP1 PUSH1 0x80 ADD PUSH1 0x40 MSTORE DUP1 DUP15 PUSH1 0xFF AND DUP2 MSTORE PUSH1 0x20 ADD DUP14 PUSH1 0xFF AND DUP2 MSTORE PUSH1 0x20 ADD DUP11 PUSH1 0xFF AND DUP2 MSTORE PUSH1 0x20 ADD DUP10 DUP2 MSTORE POP PUSH1 0x5 PUSH1 0x0 DUP14 PUSH1 0xFF AND PUSH1 0xFF AND DUP2 MSTORE PUSH1 0x20 ADD SWAP1 DUP2 MSTORE PUSH1 0x20 ADD PUSH1 0x0 KECCAK256 PUSH1 0x0 DUP13 PUSH1 0xFF AND PUSH1 0xFF AND DUP2 MSTORE PUSH1 0x20 ADD SWAP1 DUP2 MSTORE PUSH1 0x20 ADD PUSH1 0x0 KECCAK256 PUSH1 0x0 DUP3 ADD MLOAD DUP2 PUSH1 0x0 ADD PUSH1 0x0 PUSH2 0x100 EXP DUP2 SLOAD DUP2 PUSH1 0xFF MUL NOT AND SWAP1 DUP4 PUSH1 0xFF AND MUL OR SWAP1 SSTORE POP PUSH1 0x20 DUP3 ADD MLOAD DUP2 PUSH1 0x0 ADD PUSH1 0x1 PUSH2 0x100 EXP DUP2 SLOAD DUP2 PUSH1 0xFF MUL NOT AND SWAP1 DUP4 PUSH1 0xFF AND MUL OR SWAP1 SSTORE POP PUSH1 0x40 DUP3 ADD MLOAD DUP2 PUSH1 0x0 ADD PUSH1 0x2 PUSH2 0x100 EXP DUP2 SLOAD DUP2 PUSH1 0xFF MUL NOT AND SWAP1 DUP4 PUSH1 0xFF AND MUL OR SWAP1 SSTORE POP PUSH1 0x60 DUP3 ADD MLOAD DUP2 PUSH1 0x1 ADD SSTORE SWAP1 POP POP PUSH1 0x1 PUSH1 0x0 SWAP1 SLOAD SWAP1 PUSH2 0x100 EXP SWAP1 DIV PUSH1 0x1 PUSH1 0x1 PUSH1 0xA0 SHL SUB AND PUSH1 0x1 PUSH1 0x1 PUSH1 0xA0 SHL SUB AND PUSH4 0x9A4A2084 DUP13 DUP13 PUSH1 0x1 PUSH1 0x40 MLOAD DUP5 PUSH4 0xFFFFFFFF AND PUSH1 0xE0 SHL DUP2 MSTORE PUSH1 0x4 ADD PUSH2 0x16F4 SWAP4 SWAP3 SWAP2 SWAP1 PUSH1 0xFF SWAP4 DUP5 AND DUP2 MSTORE SWAP2 SWAP1 SWAP3 AND PUSH1 0x20 DUP3 ADD MSTORE SWAP1 ISZERO ISZERO PUSH1 0x40 DUP3 ADD MSTORE PUSH1 0x60 ADD SWAP1 JUMP JUMPDEST PUSH1 0x0 PUSH1 0x40 MLOAD DUP1 DUP4 SUB DUP2 PUSH1 0x0 DUP8 DUP1 EXTCODESIZE ISZERO DUP1 ISZERO PUSH2 0x170E JUMPI PUSH1 0x0 DUP1 REVERT JUMPDEST POP GAS CALL ISZERO DUP1 ISZERO PUSH2 0x1722 JUMPI RETURNDATASIZE PUSH1 0x0 DUP1 RETURNDATACOPY RETURNDATASIZE PUSH1 0x0 REVERT JUMPDEST POP POP POP POP DUP5 PUSH1 0x1 PUSH1 0x1 PUSH1 0xA0 SHL SUB AND CALLER PUSH1 0x1 PUSH1 0x1 PUSH1 0xA0 SHL SUB AND PUSH32 0xD8D0FFB785186AE5CFA3F64DC9E01D4100C899244F5A09749C62A7DDC76DC1A DUP16 DUP16 DUP16 DUP16 DUP16 PUSH1 0x40 MLOAD PUSH2 0x1798 SWAP6 SWAP5 SWAP4 SWAP3 SWAP2 SWAP1 PUSH1 0xFF SWAP6 DUP7 AND DUP2 MSTORE SWAP4 DUP6 AND PUSH1 0x20 DUP6 ADD MSTORE SWAP2 DUP5 AND PUSH1 0x40 DUP5 ADD MSTORE DUP4 AND PUSH1 0x60 DUP4 ADD MSTORE SWAP1 SWAP2 AND PUSH1 0x80 DUP3 ADD MSTORE PUSH1 0xA0 ADD SWAP1 JUMP JUMPDEST PUSH1 0x40 MLOAD DUP1 SWAP2 SUB SWAP1 LOG3 POP POP POP POP POP POP POP PUSH2 0x17B1 PUSH1 0x1 PUSH1 0x0 SSTORE JUMP JUMPDEST POP POP POP POP POP POP JUMP JUMPDEST PUSH2 0x17C1 PUSH2 0x37A0 JUMP JUMPDEST PUSH1 0x3 SLOAD PUSH1 0x40 MLOAD PUSH4 0x8A888953 PUSH1 0xE0 SHL DUP2 MSTORE PUSH1 0xFF DUP1 DUP8 AND PUSH1 0x4 DUP4 ADD MSTORE DUP6 AND PUSH1 0x24 DUP3 ADD MSTORE DUP6 SWAP2 DUP6 SWAP2 CALLER SWAP2 PUSH1 0x1 PUSH1 0x1 PUSH1 0xA0 SHL SUB AND SWAP1 PUSH4 0x8A888953 SWAP1 PUSH1 0x44 ADD PUSH1 0x20 PUSH1 0x40 MLOAD DUP1 DUP4 SUB DUP2 DUP7 GAS STATICCALL ISZERO DUP1 ISZERO PUSH2 0x1818 JUMPI RETURNDATASIZE PUSH1 0x0 DUP1 RETURNDATACOPY RETURNDATASIZE PUSH1 0x0 REVERT JUMPDEST POP POP POP POP PUSH1 0x40 MLOAD RETURNDATASIZE PUSH1 0x1F NOT PUSH1 0x1F DUP3 ADD AND DUP3 ADD DUP1 PUSH1 0x40 MSTORE POP DUP2 ADD SWAP1 PUSH2 0x183C SWAP2 SWAP1 PUSH2 0x5B80 JUMP JUMPDEST PUSH1 0x1 PUSH1 0x1 PUSH1 0xA0 SHL SUB AND EQ PUSH2 0x1876 JUMPI PUSH1 0x40 MLOAD PUSH3 0x461BCD PUSH1 0xE5 SHL DUP2 MSTORE PUSH1 0x20 PUSH1 0x4 DUP3 ADD MSTORE PUSH1 0x1 PUSH1 0x24 DUP3 ADD MSTORE PUSH1 0x6F PUSH1 0xF8 SHL PUSH1 0x44 DUP3 ADD MSTORE PUSH1 0x64 ADD PUSH2 0x8CD JUMP JUMPDEST PUSH1 0x3 SLOAD PUSH1 0x40 MLOAD PUSH4 0x8A888953 PUSH1 0xE0 SHL DUP2 MSTORE PUSH1 0xFF DUP1 DUP8 AND PUSH1 0x4 DUP4 ADD MSTORE DUP6 AND PUSH1 0x24 DUP3 ADD MSTORE PUSH1 0x0 SWAP2 PUSH1 0x1 PUSH1 0x1 PUSH1 0xA0 SHL SUB AND SWAP1 PUSH4 0x8A888953 SWAP1 PUSH1 0x44 ADD PUSH1 0x20 PUSH1 0x40 MLOAD DUP1 DUP4 SUB DUP2 DUP7 GAS STATICCALL ISZERO DUP1 ISZERO PUSH2 0x18CA JUMPI RETURNDATASIZE PUSH1 0x0 DUP1 RETURNDATACOPY RETURNDATASIZE PUSH1 0x0 REVERT JUMPDEST POP POP POP POP PUSH1 0x40 MLOAD RETURNDATASIZE PUSH1 0x1F NOT PUSH1 0x1F DUP3 ADD AND DUP3 ADD DUP1 PUSH1 0x40 MSTORE POP DUP2 ADD SWAP1 PUSH2 0x18EE SWAP2 SWAP1 PUSH2 0x5B80 JUMP JUMPDEST SWAP1 POP PUSH1 0x1 PUSH1 0x1 PUSH1 0xA0 SHL SUB DUP2 AND PUSH2 0x1946 JUMPI PUSH1 0x40 MLOAD PUSH3 0x461BCD PUSH1 0xE5 SHL DUP2 MSTORE PUSH1 0x20 PUSH1 0x4 DUP3 ADD MSTORE PUSH1 0x1 PUSH1 0x24 DUP3 ADD MSTORE PUSH32 0x6E00000000000000000000000000000000000000000000000000000000000000 PUSH1 0x44 DUP3 ADD MSTORE PUSH1 0x64 ADD PUSH2 0x8CD JUMP JUMPDEST PUSH2 0x1954 DUP8 DUP8 DUP8 DUP8 CALLER DUP7 PUSH2 0x39DD JUMP JUMPDEST PUSH2 0x195C PUSH2 0x538C JUMP JUMPDEST PUSH1 0xFF DUP9 DUP2 AND DUP1 DUP4 MSTORE DUP9 DUP3 AND PUSH1 0x20 DUP5 ADD DUP2 SWAP1 MSTORE DUP9 DUP4 AND PUSH1 0x40 DUP1 DUP7 ADD SWAP2 SWAP1 SWAP2 MSTORE SWAP3 DUP9 AND PUSH1 0x60 DUP6 ADD MSTORE PUSH1 0x1 SLOAD SWAP3 MLOAD PUSH32 0xBD63837800000000000000000000000000000000000000000000000000000000 DUP2 MSTORE PUSH1 0x4 DUP2 ADD SWAP3 SWAP1 SWAP3 MSTORE PUSH1 0x24 DUP3 ADD MSTORE PUSH1 0x1 PUSH1 0x1 PUSH1 0xA0 SHL SUB SWAP1 SWAP2 AND SWAP1 PUSH4 0xBD638378 SWAP1 PUSH1 0x44 ADD PUSH2 0x1E0 PUSH1 0x40 MLOAD DUP1 DUP4 SUB DUP2 DUP7 GAS STATICCALL ISZERO DUP1 ISZERO PUSH2 0x19EA JUMPI RETURNDATASIZE PUSH1 0x0 DUP1 RETURNDATACOPY RETURNDATASIZE PUSH1 0x0 REVERT JUMPDEST POP POP POP POP PUSH1 0x40 MLOAD RETURNDATASIZE PUSH1 0x1F NOT PUSH1 0x1F DUP3 ADD AND DUP3 ADD DUP1 PUSH1 0x40 MSTORE POP DUP2 ADD SWAP1 PUSH2 0x1A0E SWAP2 SWAP1 PUSH2 0x5CDE JUMP JUMPDEST PUSH1 0x80 DUP3 ADD MSTORE PUSH1 0x1 SLOAD PUSH1 0x40 MLOAD PUSH32 0xBD63837800000000000000000000000000000000000000000000000000000000 DUP2 MSTORE PUSH1 0xFF DUP1 DUP10 AND PUSH1 0x4 DUP4 ADD MSTORE DUP8 AND PUSH1 0x24 DUP3 ADD MSTORE PUSH1 0x1 PUSH1 0x1 PUSH1 0xA0 SHL SUB SWAP1 SWAP2 AND SWAP1 PUSH4 0xBD638378 SWAP1 PUSH1 0x44 ADD PUSH2 0x1E0 PUSH1 0x40 MLOAD DUP1 DUP4 SUB DUP2 DUP7 GAS STATICCALL ISZERO DUP1 ISZERO PUSH2 0x1A80 JUMPI RETURNDATASIZE PUSH1 0x0 DUP1 RETURNDATACOPY RETURNDATASIZE PUSH1 0x0 REVERT JUMPDEST POP POP POP POP PUSH1 0x40 MLOAD RETURNDATASIZE PUSH1 0x1F NOT PUSH1 0x1F DUP3 ADD AND DUP3 ADD DUP1 PUSH1 0x40 MSTORE POP DUP2 ADD SWAP1 PUSH2 0x1AA4 SWAP2 SWAP1 PUSH2 0x5CDE JUMP JUMPDEST PUSH1 0xA0 DUP3 ADD MSTORE PUSH1 0x80 DUP2 ADD MLOAD PUSH2 0x140 ADD MLOAD PUSH1 0xA GT ISZERO PUSH2 0x1B03 JUMPI PUSH1 0x40 MLOAD PUSH3 0x461BCD PUSH1 0xE5 SHL DUP2 MSTORE PUSH1 0x20 PUSH1 0x4 DUP3 ADD MSTORE PUSH1 0x8 PUSH1 0x24 DUP3 ADD MSTORE PUSH32 0x736F6C6469657273000000000000000000000000000000000000000000000000 PUSH1 0x44 DUP3 ADD MSTORE PUSH1 0x64 ADD PUSH2 0x8CD JUMP JUMPDEST PUSH1 0x0 PUSH2 0x1B0F DUP9 DUP8 PUSH2 0x39AC JUMP JUMPDEST PUSH2 0x1B19 DUP11 DUP10 PUSH2 0x39AC JUMP JUMPDEST PUSH2 0x1B23 SWAP2 SWAP1 PUSH2 0x5C90 JUMP JUMPDEST SWAP1 POP PUSH2 0x1B35 DUP10 DUP10 DUP4 DUP6 PUSH1 0x80 ADD MLOAD PUSH2 0x3E6A JUMP JUMPDEST PUSH2 0x1B49 DUP3 PUSH1 0x80 ADD MLOAD DUP4 PUSH1 0xA0 ADD MLOAD DUP10 DUP10 PUSH2 0x4178 JUMP JUMPDEST PUSH1 0xE0 DUP5 ADD MSTORE PUSH1 0xC0 DUP4 ADD MSTORE PUSH1 0x0 PUSH2 0x1B5E DUP4 PUSH2 0x42CC JUMP JUMPDEST SWAP1 POP PUSH1 0x0 DUP4 PUSH1 0xE0 ADD MLOAD DUP5 PUSH1 0xC0 ADD MLOAD GT ISZERO PUSH2 0x1B7E JUMPI PUSH2 0x1B7B DUP5 PUSH2 0x456E JUMP JUMPDEST SWAP1 POP JUMPDEST PUSH2 0x1B86 PUSH2 0x54E3 JUMP JUMPDEST DUP3 DUP2 MSTORE PUSH1 0x20 DUP2 ADD DUP3 SWAP1 MSTORE PUSH1 0xE0 DUP6 ADD MLOAD PUSH1 0xC0 DUP7 ADD MLOAD GT PUSH1 0x40 DUP3 ADD MSTORE PUSH2 0x1BAC DUP6 DUP3 CALLER DUP10 PUSH2 0x4726 JUMP JUMPDEST POP POP POP POP POP POP POP POP PUSH2 0xB27 PUSH1 0x1 PUSH1 0x0 SSTORE JUMP JUMPDEST PUSH1 0x40 DUP1 MLOAD PUSH1 0x80 DUP2 ADD DUP3 MSTORE PUSH1 0x0 DUP1 DUP3 MSTORE PUSH1 0x20 DUP3 ADD DUP2 SWAP1 MSTORE SWAP2 DUP2 ADD DUP3 SWAP1 MSTORE PUSH1 0x60 DUP2 ADD SWAP2 SWAP1 SWAP2 MSTORE PUSH1 0x3 SLOAD PUSH1 0x40 MLOAD PUSH4 0x8A888953 PUSH1 0xE0 SHL DUP2 MSTORE PUSH1 0xFF DUP1 DUP7 AND PUSH1 0x4 DUP4 ADD MSTORE DUP5 AND PUSH1 0x24 DUP3 ADD MSTORE DUP5 SWAP2 DUP5 SWAP2 CALLER SWAP2 PUSH1 0x1 PUSH1 0x1 PUSH1 0xA0 SHL SUB AND SWAP1 PUSH4 0x8A888953 SWAP1 PUSH1 0x44 ADD PUSH1 0x20 PUSH1 0x40 MLOAD DUP1 DUP4 SUB DUP2 DUP7 GAS STATICCALL ISZERO DUP1 ISZERO PUSH2 0x1C39 JUMPI RETURNDATASIZE PUSH1 0x0 DUP1 RETURNDATACOPY RETURNDATASIZE PUSH1 0x0 REVERT JUMPDEST POP POP POP POP PUSH1 0x40 MLOAD RETURNDATASIZE PUSH1 0x1F NOT PUSH1 0x1F DUP3 ADD AND DUP3 ADD DUP1 PUSH1 0x40 MSTORE POP DUP2 ADD SWAP1 PUSH2 0x1C5D SWAP2 SWAP1 PUSH2 0x5B80 JUMP JUMPDEST PUSH1 0x1 PUSH1 0x1 PUSH1 0xA0 SHL SUB AND EQ PUSH2 0x1C97 JUMPI PUSH1 0x40 MLOAD PUSH3 0x461BCD PUSH1 0xE5 SHL DUP2 MSTORE PUSH1 0x20 PUSH1 0x4 DUP3 ADD MSTORE PUSH1 0x1 PUSH1 0x24 DUP3 ADD MSTORE PUSH1 0x6F PUSH1 0xF8 SHL PUSH1 0x44 DUP3 ADD MSTORE PUSH1 0x64 ADD PUSH2 0x8CD JUMP JUMPDEST POP POP POP PUSH1 0xFF SWAP2 DUP3 AND PUSH1 0x0 SWAP1 DUP2 MSTORE PUSH1 0x5 PUSH1 0x20 SWAP1 DUP2 MSTORE PUSH1 0x40 DUP1 DUP4 KECCAK256 SWAP4 DUP6 AND DUP4 MSTORE SWAP3 DUP2 MSTORE SWAP1 DUP3 SWAP1 KECCAK256 DUP3 MLOAD PUSH1 0x80 DUP2 ADD DUP5 MSTORE DUP2 SLOAD DUP1 DUP7 AND DUP3 MSTORE PUSH2 0x100 DUP2 DIV DUP7 AND SWAP4 DUP3 ADD SWAP4 SWAP1 SWAP4 MSTORE PUSH3 0x10000 SWAP1 SWAP3 DIV SWAP1 SWAP4 AND SWAP2 DUP2 ADD SWAP2 SWAP1 SWAP2 MSTORE PUSH1 0x1 SWAP1 SWAP2 ADD SLOAD PUSH1 0x60 DUP3 ADD MSTORE SWAP1 JUMP JUMPDEST PUSH1 0x3 SLOAD PUSH1 0x40 MLOAD PUSH4 0x8A888953 PUSH1 0xE0 SHL DUP2 MSTORE PUSH1 0xFF DUP1 DUP6 AND PUSH1 0x4 DUP4 ADD MSTORE DUP4 AND PUSH1 0x24 DUP3 ADD MSTORE PUSH1 0x60 SWAP2 DUP5 SWAP2 DUP5 SWAP2 CALLER SWAP2 PUSH1 0x1 PUSH1 0x1 PUSH1 0xA0 SHL SUB SWAP1 SWAP2 AND SWAP1 PUSH4 0x8A888953 SWAP1 PUSH1 0x44 ADD PUSH1 0x20 PUSH1 0x40 MLOAD DUP1 DUP4 SUB DUP2 DUP7 GAS STATICCALL ISZERO DUP1 ISZERO PUSH2 0x1D54 JUMPI RETURNDATASIZE PUSH1 0x0 DUP1 RETURNDATACOPY RETURNDATASIZE PUSH1 0x0 REVERT JUMPDEST POP POP POP POP PUSH1 0x40 MLOAD RETURNDATASIZE PUSH1 0x1F NOT PUSH1 0x1F DUP3 ADD AND DUP3 ADD DUP1 PUSH1 0x40 MSTORE POP DUP2 ADD SWAP1 PUSH2 0x1D78 SWAP2 SWAP1 PUSH2 0x5B80 JUMP JUMPDEST PUSH1 0x1 PUSH1 0x1 PUSH1 0xA0 SHL SUB AND EQ PUSH2 0x1DB2 JUMPI PUSH1 0x40 MLOAD PUSH3 0x461BCD PUSH1 0xE5 SHL DUP2 MSTORE PUSH1 0x20 PUSH1 0x4 DUP3 ADD MSTORE PUSH1 0x1 PUSH1 0x24 DUP3 ADD MSTORE PUSH1 0x6F PUSH1 0xF8 SHL PUSH1 0x44 DUP3 ADD MSTORE PUSH1 0x64 ADD PUSH2 0x8CD JUMP JUMPDEST PUSH1 0xFF DUP5 AND PUSH1 0x8 DUP7 SWAP1 SHL PUSH2 0xFF00 AND OR PUSH1 0x0 DUP2 DUP2 MSTORE PUSH1 0xC PUSH1 0x20 MSTORE PUSH1 0x40 DUP2 KECCAK256 SWAP1 PUSH2 0x1DDC PUSH3 0x93A80 TIMESTAMP PUSH2 0x5A61 JUMP JUMPDEST DUP3 SLOAD SWAP1 SWAP2 POP PUSH1 0x0 SWAP1 JUMPDEST DUP1 ISZERO PUSH2 0x1E65 JUMPI DUP3 PUSH1 0xA DUP6 PUSH2 0x1DFA PUSH1 0x1 DUP6 PUSH2 0x5A61 JUMP JUMPDEST DUP2 SLOAD DUP2 LT PUSH2 0x1E0A JUMPI PUSH2 0x1E0A PUSH2 0x5A74 JUMP JUMPDEST SWAP1 PUSH1 0x0 MSTORE PUSH1 0x20 PUSH1 0x0 KECCAK256 ADD SLOAD DUP2 SLOAD DUP2 LT PUSH2 0x1E25 JUMPI PUSH2 0x1E25 PUSH2 0x5A74 JUMP JUMPDEST SWAP1 PUSH1 0x0 MSTORE PUSH1 0x20 PUSH1 0x0 KECCAK256 SWAP1 PUSH1 0xA MUL ADD PUSH1 0x1 ADD SLOAD LT PUSH2 0x1E4E JUMPI DUP2 PUSH2 0x1E46 DUP2 PUSH2 0x5AA3 JUMP JUMPDEST SWAP3 POP POP PUSH2 0x1E53 JUMP JUMPDEST PUSH2 0x1E65 JUMP JUMPDEST DUP1 PUSH2 0x1E5D DUP2 PUSH2 0x5ABD JUMP JUMPDEST SWAP2 POP POP PUSH2 0x1DE5 JUMP JUMPDEST POP PUSH1 0x0 DUP2 PUSH8 0xFFFFFFFFFFFFFFFF DUP2 GT ISZERO PUSH2 0x1E81 JUMPI PUSH2 0x1E81 PUSH2 0x5AD4 JUMP JUMPDEST PUSH1 0x40 MLOAD SWAP1 DUP1 DUP3 MSTORE DUP1 PUSH1 0x20 MUL PUSH1 0x20 ADD DUP3 ADD PUSH1 0x40 MSTORE DUP1 ISZERO PUSH2 0x1F2B JUMPI DUP2 PUSH1 0x20 ADD JUMPDEST PUSH2 0x1F18 PUSH1 0x40 MLOAD DUP1 PUSH2 0x1A0 ADD PUSH1 0x40 MSTORE DUP1 PUSH1 0x0 PUSH1 0xFF AND DUP2 MSTORE PUSH1 0x20 ADD PUSH1 0x0 PUSH1 0xFF AND DUP2 MSTORE PUSH1 0x20 ADD PUSH1 0x0 PUSH1 0xFF AND DUP2 MSTORE PUSH1 0x20 ADD PUSH1 0x0 PUSH1 0xFF AND DUP2 MSTORE PUSH1 0x20 ADD PUSH1 0x0 DUP2 MSTORE PUSH1 0x20 ADD PUSH1 0x0 ISZERO ISZERO DUP2 MSTORE PUSH1 0x20 ADD PUSH1 0x0 DUP2 MSTORE PUSH1 0x20 ADD PUSH1 0x0 DUP2 MSTORE PUSH1 0x20 ADD PUSH1 0x0 DUP2 MSTORE PUSH1 0x20 ADD PUSH1 0x0 DUP2 MSTORE PUSH1 0x20 ADD PUSH1 0x0 DUP2 MSTORE PUSH1 0x20 ADD PUSH1 0x0 DUP2 MSTORE PUSH1 0x20 ADD PUSH1 0x0 DUP2 MSTORE POP SWAP1 JUMP JUMPDEST DUP2 MSTORE PUSH1 0x20 ADD SWAP1 PUSH1 0x1 SWAP1 SUB SWAP1 DUP2 PUSH2 0x1E9F JUMPI SWAP1 POP JUMPDEST POP DUP5 SLOAD SWAP1 SWAP2 POP PUSH1 0x0 SWAP1 PUSH2 0x1F3F SWAP1 DUP5 SWAP1 PUSH2 0x5A61 JUMP JUMPDEST SWAP1 POP PUSH1 0x0 JUMPDEST DUP4 DUP2 LT ISZERO PUSH2 0x206F JUMPI PUSH1 0xA DUP7 PUSH2 0x1F59 DUP4 DUP6 PUSH2 0x5B03 JUMP JUMPDEST DUP2 SLOAD DUP2 LT PUSH2 0x1F69 JUMPI PUSH2 0x1F69 PUSH2 0x5A74 JUMP JUMPDEST SWAP1 PUSH1 0x0 MSTORE PUSH1 0x20 PUSH1 0x0 KECCAK256 ADD SLOAD DUP2 SLOAD DUP2 LT PUSH2 0x1F84 JUMPI PUSH2 0x1F84 PUSH2 0x5A74 JUMP JUMPDEST PUSH1 0x0 SWAP2 DUP3 MSTORE PUSH1 0x20 SWAP2 DUP3 SWAP1 KECCAK256 PUSH1 0x40 DUP1 MLOAD PUSH2 0x1A0 DUP2 ADD DUP3 MSTORE PUSH1 0xA SWAP1 SWAP4 MUL SWAP1 SWAP2 ADD DUP1 SLOAD PUSH1 0xFF DUP1 DUP3 AND DUP6 MSTORE PUSH2 0x100 DUP1 DUP4 DIV DUP3 AND SWAP7 DUP7 ADD SWAP7 SWAP1 SWAP7 MSTORE PUSH3 0x10000 DUP3 DIV DUP2 AND SWAP4 DUP6 ADD SWAP4 SWAP1 SWAP4 MSTORE PUSH4 0x1000000 SWAP1 DIV DUP3 AND PUSH1 0x60 DUP5 ADD MSTORE PUSH1 0x1 DUP2 ADD SLOAD PUSH1 0x80 DUP5 ADD MSTORE PUSH1 0x2 DUP2 ADD SLOAD SWAP1 SWAP2 AND ISZERO ISZERO PUSH1 0xA0 DUP4 ADD MSTORE PUSH1 0x3 DUP2 ADD SLOAD PUSH1 0xC0 DUP4 ADD MSTORE PUSH1 0x4 DUP2 ADD SLOAD PUSH1 0xE0 DUP4 ADD MSTORE PUSH1 0x5 DUP2 ADD SLOAD SWAP3 DUP3 ADD SWAP3 SWAP1 SWAP3 MSTORE PUSH1 0x6 DUP3 ADD SLOAD PUSH2 0x120 DUP3 ADD MSTORE PUSH1 0x7 DUP3 ADD SLOAD PUSH2 0x140 DUP3 ADD MSTORE PUSH1 0x8 DUP3 ADD SLOAD PUSH2 0x160 DUP3 ADD MSTORE PUSH1 0x9 SWAP1 SWAP2 ADD SLOAD PUSH2 0x180 DUP3 ADD MSTORE DUP4 MLOAD DUP5 SWAP1 DUP4 SWAP1 DUP2 LT PUSH2 0x2051 JUMPI PUSH2 0x2051 PUSH2 0x5A74 JUMP JUMPDEST PUSH1 0x20 MUL PUSH1 0x20 ADD ADD DUP2 SWAP1 MSTORE POP DUP1 DUP1 PUSH2 0x2067 SWAP1 PUSH2 0x5AA3 JUMP JUMPDEST SWAP2 POP POP PUSH2 0x1F44 JUMP JUMPDEST POP SWAP1 SWAP11 SWAP10 POP POP POP POP POP POP POP POP POP POP JUMP JUMPDEST PUSH2 0x2087 PUSH2 0x37A0 JUMP JUMPDEST PUSH1 0x3 SLOAD PUSH1 0x40 MLOAD PUSH4 0x8A888953 PUSH1 0xE0 SHL DUP2 MSTORE PUSH1 0xFF DUP1 DUP8 AND PUSH1 0x4 DUP4 ADD MSTORE DUP6 AND PUSH1 0x24 DUP3 ADD MSTORE DUP6 SWAP2 DUP6 SWAP2 CALLER SWAP2 PUSH1 0x1 PUSH1 0x1 PUSH1 0xA0 SHL SUB AND SWAP1 PUSH4 0x8A888953 SWAP1 PUSH1 0x44 ADD PUSH1 0x20 PUSH1 0x40 MLOAD DUP1 DUP4 SUB DUP2 DUP7 GAS STATICCALL ISZERO DUP1 ISZERO PUSH2 0x20DE JUMPI RETURNDATASIZE PUSH1 0x0 DUP1 RETURNDATACOPY RETURNDATASIZE PUSH1 0x0 REVERT JUMPDEST POP POP POP POP PUSH1 0x40 MLOAD RETURNDATASIZE PUSH1 0x1F NOT PUSH1 0x1F DUP3 ADD AND DUP3 ADD DUP1 PUSH1 0x40 MSTORE POP DUP2 ADD SWAP1 PUSH2 0x2102 SWAP2 SWAP1 PUSH2 0x5B80 JUMP JUMPDEST PUSH1 0x1 PUSH1 0x1 PUSH1 0xA0 SHL SUB AND EQ PUSH2 0x213C JUMPI PUSH1 0x40 MLOAD PUSH3 0x461BCD PUSH1 0xE5 SHL DUP2 MSTORE PUSH1 0x20 PUSH1 0x4 DUP3 ADD MSTORE PUSH1 0x1 PUSH1 0x24 DUP3 ADD MSTORE PUSH1 0x6F PUSH1 0xF8 SHL PUSH1 0x44 DUP3 ADD MSTORE PUSH1 0x64 ADD PUSH2 0x8CD JUMP JUMPDEST PUSH1 0x1 SLOAD PUSH1 0x40 MLOAD PUSH32 0x4855735C00000000000000000000000000000000000000000000000000000000 DUP2 MSTORE PUSH1 0xFF DUP1 DUP10 AND PUSH1 0x4 DUP4 ADD MSTORE DUP8 AND PUSH1 0x24 DUP3 ADD MSTORE PUSH1 0x1 PUSH1 0x1 PUSH1 0xA0 SHL SUB SWAP1 SWAP2 AND SWAP1 PUSH4 0x4855735C SWAP1 PUSH1 0x44 ADD PUSH1 0x20 PUSH1 0x40 MLOAD DUP1 DUP4 SUB DUP2 DUP7 GAS STATICCALL ISZERO DUP1 ISZERO PUSH2 0x21A8 JUMPI RETURNDATASIZE PUSH1 0x0 DUP1 RETURNDATACOPY RETURNDATASIZE PUSH1 0x0 REVERT JUMPDEST POP POP POP POP PUSH1 0x40 MLOAD RETURNDATASIZE PUSH1 0x1F NOT PUSH1 0x1F DUP3 ADD AND DUP3 ADD DUP1 PUSH1 0x40 MSTORE POP DUP2 ADD SWAP1 PUSH2 0x21CC SWAP2 SWAP1 PUSH2 0x5C75 JUMP JUMPDEST PUSH2 0x2218 JUMPI PUSH1 0x40 MLOAD PUSH3 0x461BCD PUSH1 0xE5 SHL DUP2 MSTORE PUSH1 0x20 PUSH1 0x4 DUP3 ADD MSTORE PUSH1 0x1 PUSH1 0x24 DUP3 ADD MSTORE PUSH32 0x6D00000000000000000000000000000000000000000000000000000000000000 PUSH1 0x44 DUP3 ADD MSTORE PUSH1 0x64 ADD PUSH2 0x8CD JUMP JUMPDEST PUSH1 0xFF DUP5 AND PUSH1 0x0 SWAP1 DUP2 MSTORE PUSH1 0x7 PUSH1 0x20 MSTORE PUSH1 0x40 SWAP1 KECCAK256 SLOAD DUP4 LT PUSH2 0x2279 JUMPI PUSH1 0x40 MLOAD PUSH3 0x461BCD PUSH1 0xE5 SHL DUP2 MSTORE PUSH1 0x20 PUSH1 0x4 DUP3 ADD MSTORE PUSH1 0x1 PUSH1 0x24 DUP3 ADD MSTORE PUSH32 0x6D00000000000000000000000000000000000000000000000000000000000000 PUSH1 0x44 DUP3 ADD MSTORE PUSH1 0x64 ADD PUSH2 0x8CD JUMP JUMPDEST PUSH1 0x1 DUP5 PUSH1 0xFF AND LT ISZERO DUP1 ISZERO PUSH2 0x2291 JUMPI POP PUSH1 0x8 DUP5 PUSH1 0xFF AND GT ISZERO JUMPDEST PUSH2 0x22C1 JUMPI PUSH1 0x40 MLOAD PUSH3 0x461BCD PUSH1 0xE5 SHL DUP2 MSTORE PUSH1 0x20 PUSH1 0x4 DUP3 ADD MSTORE PUSH1 0x1 PUSH1 0x24 DUP3 ADD MSTORE PUSH1 0x1D PUSH1 0xFA SHL PUSH1 0x44 DUP3 ADD MSTORE PUSH1 0x64 ADD PUSH2 0x8CD JUMP JUMPDEST PUSH1 0xFF DUP5 AND PUSH1 0x0 SWAP1 DUP2 MSTORE PUSH1 0x7 PUSH1 0x20 MSTORE PUSH1 0x40 DUP2 KECCAK256 DUP1 SLOAD DUP6 SWAP1 DUP2 LT PUSH2 0x22E5 JUMPI PUSH2 0x22E5 PUSH2 0x5A74 JUMP JUMPDEST PUSH1 0x0 SWAP2 DUP3 MSTORE PUSH1 0x20 DUP1 DUP4 KECCAK256 PUSH1 0x40 DUP1 MLOAD PUSH1 0xA0 DUP2 ADD DUP3 MSTORE PUSH1 0x3 SWAP5 DUP6 MUL SWAP1 SWAP3 ADD DUP1 SLOAD PUSH1 0xFF DUP1 DUP3 AND DUP1 DUP7 MSTORE PUSH2 0x100 DUP4 DIV DUP3 AND SWAP7 DUP7 ADD DUP8 SWAP1 MSTORE PUSH3 0x10000 SWAP1 SWAP3 DIV AND DUP5 DUP5 ADD MSTORE PUSH1 0x1 DUP3 ADD SLOAD PUSH1 0x60 DUP6 ADD DUP2 SWAP1 MSTORE PUSH1 0x2 SWAP1 SWAP3 ADD SLOAD PUSH1 0x80 DUP6 ADD DUP2 SWAP1 MSTORE SWAP6 SLOAD SWAP3 MLOAD PUSH4 0x8A888953 PUSH1 0xE0 SHL DUP2 MSTORE PUSH1 0x4 DUP2 ADD SWAP2 SWAP1 SWAP2 MSTORE PUSH1 0x24 DUP2 ADD SWAP5 SWAP1 SWAP5 MSTORE SWAP2 SWAP6 POP SWAP3 SWAP4 SWAP1 SWAP3 SWAP1 SWAP2 PUSH1 0x1 PUSH1 0x1 PUSH1 0xA0 SHL SUB SWAP1 SWAP2 AND SWAP1 PUSH4 0x8A888953 SWAP1 PUSH1 0x44 ADD PUSH1 0x20 PUSH1 0x40 MLOAD DUP1 DUP4 SUB DUP2 DUP7 GAS STATICCALL ISZERO DUP1 ISZERO PUSH2 0x2396 JUMPI RETURNDATASIZE PUSH1 0x0 DUP1 RETURNDATACOPY RETURNDATASIZE PUSH1 0x0 REVERT JUMPDEST POP POP POP POP PUSH1 0x40 MLOAD RETURNDATASIZE PUSH1 0x1F NOT PUSH1 0x1F DUP3 ADD AND DUP3 ADD DUP1 PUSH1 0x40 MSTORE POP DUP2 ADD SWAP1 PUSH2 0x23BA SWAP2 SWAP1 PUSH2 0x5B80 JUMP JUMPDEST SWAP1 POP PUSH1 0x1 PUSH1 0x1 PUSH1 0xA0 SHL SUB DUP2 AND PUSH2 0x2412 JUMPI PUSH1 0x40 MLOAD PUSH3 0x461BCD PUSH1 0xE5 SHL DUP2 MSTORE PUSH1 0x20 PUSH1 0x4 DUP3 ADD MSTORE PUSH1 0x1 PUSH1 0x24 DUP3 ADD MSTORE PUSH32 0x7500000000000000000000000000000000000000000000000000000000000000 PUSH1 0x44 DUP3 ADD MSTORE PUSH1 0x64 ADD PUSH2 0x8CD JUMP JUMPDEST PUSH1 0x0 PUSH1 0x6E PUSH2 0x2421 DUP6 PUSH1 0x64 PUSH2 0x5C23 JUMP JUMPDEST PUSH2 0x242B SWAP2 SWAP1 PUSH2 0x5C3A JUMP JUMPDEST SWAP1 POP PUSH1 0x0 PUSH2 0x2439 DUP3 DUP7 PUSH2 0x5A61 JUMP JUMPDEST PUSH1 0x2 SLOAD PUSH1 0x40 MLOAD PUSH32 0x23B872DD00000000000000000000000000000000000000000000000000000000 DUP2 MSTORE CALLER PUSH1 0x4 DUP3 ADD MSTORE ADDRESS PUSH1 0x24 DUP3 ADD MSTORE PUSH1 0x44 DUP2 ADD DUP9 SWAP1 MSTORE SWAP2 SWAP3 POP PUSH1 0x1 PUSH1 0x1 PUSH1 0xA0 SHL SUB AND SWAP1 PUSH4 0x23B872DD SWAP1 PUSH1 0x64 ADD PUSH1 0x20 PUSH1 0x40 MLOAD DUP1 DUP4 SUB DUP2 PUSH1 0x0 DUP8 GAS CALL ISZERO DUP1 ISZERO PUSH2 0x24AA JUMPI RETURNDATASIZE PUSH1 0x0 DUP1 RETURNDATACOPY RETURNDATASIZE PUSH1 0x0 REVERT JUMPDEST POP POP POP POP PUSH1 0x40 MLOAD RETURNDATASIZE PUSH1 0x1F NOT PUSH1 0x1F DUP3 ADD AND DUP3 ADD DUP1 PUSH1 0x40 MSTORE POP DUP2 ADD SWAP1 PUSH2 0x24CE SWAP2 SWAP1 PUSH2 0x5C75 JUMP JUMPDEST PUSH2 0x24FE JUMPI PUSH1 0x40 MLOAD PUSH3 0x461BCD PUSH1 0xE5 SHL DUP2 MSTORE PUSH1 0x20 PUSH1 0x4 DUP3 ADD MSTORE PUSH1 0x1 PUSH1 0x24 DUP3 ADD MSTORE PUSH1 0x1D PUSH1 0xFA SHL PUSH1 0x44 DUP3 ADD MSTORE PUSH1 0x64 ADD PUSH2 0x8CD JUMP JUMPDEST PUSH1 0x2 SLOAD PUSH1 0x40 MLOAD PUSH32 0xA9059CBB00000000000000000000000000000000000000000000000000000000 DUP2 MSTORE PUSH1 0x1 PUSH1 0x1 PUSH1 0xA0 SHL SUB DUP6 DUP2 AND PUSH1 0x4 DUP4 ADD MSTORE PUSH1 0x24 DUP3 ADD DUP6 SWAP1 MSTORE SWAP1 SWAP2 AND SWAP1 PUSH4 0xA9059CBB SWAP1 PUSH1 0x44 ADD PUSH1 0x20 PUSH1 0x40 MLOAD DUP1 DUP4 SUB DUP2 PUSH1 0x0 DUP8 GAS CALL ISZERO DUP1 ISZERO PUSH2 0x256A JUMPI RETURNDATASIZE PUSH1 0x0 DUP1 RETURNDATACOPY RETURNDATASIZE PUSH1 0x0 REVERT JUMPDEST POP POP POP POP PUSH1 0x40 MLOAD RETURNDATASIZE PUSH1 0x1F NOT PUSH1 0x1F DUP3 ADD AND DUP3 ADD DUP1 PUSH1 0x40 MSTORE POP DUP2 ADD SWAP1 PUSH2 0x258E SWAP2 SWAP1 PUSH2 0x5C75 JUMP JUMPDEST PUSH2 0x25BE JUMPI PUSH1 0x40 MLOAD PUSH3 0x461BCD PUSH1 0xE5 SHL DUP2 MSTORE PUSH1 0x20 PUSH1 0x4 DUP3 ADD MSTORE PUSH1 0x1 PUSH1 0x24 DUP3 ADD MSTORE PUSH1 0x1D PUSH1 0xFA SHL PUSH1 0x44 DUP3 ADD MSTORE PUSH1 0x64 ADD PUSH2 0x8CD JUMP JUMPDEST PUSH1 0x2 SLOAD PUSH1 0x40 MLOAD PUSH32 0x42966C6800000000000000000000000000000000000000000000000000000000 DUP2 MSTORE PUSH1 0x4 DUP2 ADD DUP4 SWAP1 MSTORE PUSH1 0x1 PUSH1 0x1 PUSH1 0xA0 SHL SUB SWAP1 SWAP2 AND SWAP1 PUSH4 0x42966C68 SWAP1 PUSH1 0x24 ADD PUSH1 0x20 PUSH1 0x40 MLOAD DUP1 DUP4 SUB DUP2 PUSH1 0x0 DUP8 GAS CALL ISZERO DUP1 ISZERO PUSH2 0x2622 JUMPI RETURNDATASIZE PUSH1 0x0 DUP1 RETURNDATACOPY RETURNDATASIZE PUSH1 0x0 REVERT JUMPDEST POP POP POP POP PUSH1 0x40 MLOAD RETURNDATASIZE PUSH1 0x1F NOT PUSH1 0x1F DUP3 ADD AND DUP3 ADD DUP1 PUSH1 0x40 MSTORE POP DUP2 ADD SWAP1 PUSH2 0x2646 SWAP2 SWAP1 PUSH2 0x5C75 JUMP JUMPDEST PUSH2 0x2692 JUMPI PUSH1 0x40 MLOAD PUSH3 0x461BCD PUSH1 0xE5 SHL DUP2 MSTORE PUSH1 0x20 PUSH1 0x4 DUP3 ADD MSTORE PUSH1 0x1 PUSH1 0x24 DUP3 ADD MSTORE PUSH32 0x6200000000000000000000000000000000000000000000000000000000000000 PUSH1 0x44 DUP3 ADD MSTORE PUSH1 0x64 ADD PUSH2 0x8CD JUMP JUMPDEST PUSH1 0x1 PUSH1 0x0 SWAP1 SLOAD SWAP1 PUSH2 0x100 EXP SWAP1 DIV PUSH1 0x1 PUSH1 0x1 PUSH1 0xA0 SHL SUB AND PUSH1 0x1 PUSH1 0x1 PUSH1 0xA0 SHL SUB AND PUSH4 0x3E5F2857 DUP14 DUP14 DUP14 DUP9 PUSH1 0x1 PUSH1 0x40 MLOAD DUP7 PUSH4 0xFFFFFFFF AND PUSH1 0xE0 SHL DUP2 MSTORE PUSH1 0x4 ADD PUSH2 0x2705 SWAP6 SWAP5 SWAP4 SWAP3 SWAP2 SWAP1 PUSH1 0xFF SWAP6 DUP7 AND DUP2 MSTORE SWAP4 DUP6 AND PUSH1 0x20 DUP6 ADD MSTORE SWAP2 SWAP1 SWAP4 AND PUSH1 0x40 DUP4 ADD MSTORE PUSH1 0x60 DUP3 ADD SWAP3 SWAP1 SWAP3 MSTORE SWAP1 ISZERO ISZERO PUSH1 0x80 DUP3 ADD MSTORE PUSH1 0xA0 ADD SWAP1 JUMP JUMPDEST PUSH1 0x0 PUSH1 0x40 MLOAD DUP1 DUP4 SUB DUP2 PUSH1 0x0 DUP8 DUP1 EXTCODESIZE ISZERO DUP1 ISZERO PUSH2 0x271F JUMPI PUSH1 0x0 DUP1 REVERT JUMPDEST POP GAS CALL ISZERO DUP1 ISZERO PUSH2 0x2733 JUMPI RETURNDATASIZE PUSH1 0x0 DUP1 RETURNDATACOPY RETURNDATASIZE PUSH1 0x0 REVERT JUMPDEST POP POP POP POP PUSH1 0xFF DUP11 AND PUSH1 0x0 SWAP1 DUP2 MSTORE PUSH1 0x7 PUSH1 0x20 MSTORE PUSH1 0x40 SWAP1 KECCAK256 DUP1 SLOAD PUSH2 0x2757 SWAP1 PUSH1 0x1 SWAP1 PUSH2 0x5A61 JUMP JUMPDEST DUP2 SLOAD DUP2 LT PUSH2 0x2767 JUMPI PUSH2 0x2767 PUSH2 0x5A74 JUMP JUMPDEST SWAP1 PUSH1 0x0 MSTORE PUSH1 0x20 PUSH1 0x0 KECCAK256 SWAP1 PUSH1 0x3 MUL ADD PUSH1 0x7 PUSH1 0x0 DUP13 PUSH1 0xFF AND PUSH1 0xFF AND DUP2 MSTORE PUSH1 0x20 ADD SWAP1 DUP2 MSTORE PUSH1 0x20 ADD PUSH1 0x0 KECCAK256 DUP11 DUP2 SLOAD DUP2 LT PUSH2 0x279F JUMPI PUSH2 0x279F PUSH2 0x5A74 JUMP JUMPDEST PUSH1 0x0 SWAP2 DUP3 MSTORE PUSH1 0x20 DUP1 DUP4 KECCAK256 DUP5 SLOAD PUSH1 0x3 SWAP1 SWAP4 MUL ADD DUP1 SLOAD PUSH1 0xFF NOT DUP2 AND PUSH1 0xFF SWAP5 DUP6 AND SWAP1 DUP2 OR DUP4 SSTORE DUP7 SLOAD PUSH2 0x100 SWAP1 DUP2 SWAP1 DIV DUP7 AND MUL PUSH2 0xFFFF NOT SWAP1 SWAP3 AND OR OR DUP1 DUP3 SSTORE DUP6 SLOAD PUSH3 0x10000 SWAP1 DUP2 SWAP1 DIV DUP6 AND MUL PUSH3 0xFF0000 NOT SWAP1 SWAP2 AND OR DUP2 SSTORE PUSH1 0x1 DUP1 DUP7 ADD SLOAD SWAP1 DUP3 ADD SSTORE PUSH1 0x2 SWAP5 DUP6 ADD SLOAD SWAP5 ADD SWAP4 SWAP1 SWAP4 SSTORE DUP13 AND DUP2 MSTORE PUSH1 0x7 SWAP1 SWAP2 MSTORE PUSH1 0x40 SWAP1 KECCAK256 DUP1 SLOAD DUP1 PUSH2 0x2824 JUMPI PUSH2 0x2824 PUSH2 0x5DAE JUMP JUMPDEST PUSH1 0x0 DUP3 DUP2 MSTORE PUSH1 0x20 DUP1 DUP3 KECCAK256 PUSH1 0x3 PUSH1 0x0 NOT SWAP1 SWAP5 ADD SWAP4 DUP5 MUL ADD DUP1 SLOAD PUSH32 0xFFFFFFFFFFFFFFFFFFFFFFFFFFFFFFFFFFFFFFFFFFFFFFFFFFFFFFFFFF000000 AND DUP2 SSTORE PUSH1 0x1 DUP2 ADD DUP4 SWAP1 SSTORE PUSH1 0x2 ADD SWAP2 SWAP1 SWAP2 SSTORE SWAP2 SSTORE DUP7 MLOAD SWAP1 DUP8 ADD MLOAD PUSH2 0x1BAC SWAP2 SWAP1 PUSH2 0x3957 JUMP JUMPDEST PUSH1 0x3 SLOAD PUSH1 0x40 MLOAD PUSH4 0x8A888953 PUSH1 0xE0 SHL DUP2 MSTORE PUSH1 0xFF DUP1 DUP8 AND PUSH1 0x4 DUP4 ADD MSTORE DUP6 AND PUSH1 0x24 DUP3 ADD MSTORE PUSH1 0x60 SWAP2 DUP7 SWAP2 DUP7 SWAP2 CALLER SWAP2 PUSH1 0x1 PUSH1 0x1 PUSH1 0xA0 SHL SUB SWAP1 SWAP2 AND SWAP1 PUSH4 0x8A888953 SWAP1 PUSH1 0x44 ADD PUSH1 0x20 PUSH1 0x40 MLOAD DUP1 DUP4 SUB DUP2 DUP7 GAS STATICCALL ISZERO DUP1 ISZERO PUSH2 0x28DC JUMPI RETURNDATASIZE PUSH1 0x0 DUP1 RETURNDATACOPY RETURNDATASIZE PUSH1 0x0 REVERT JUMPDEST POP POP POP POP PUSH1 0x40 MLOAD RETURNDATASIZE PUSH1 0x1F NOT PUSH1 0x1F DUP3 ADD AND DUP3 ADD DUP1 PUSH1 0x40 MSTORE POP DUP2 ADD SWAP1 PUSH2 0x2900 SWAP2 SWAP1 PUSH2 0x5B80 JUMP JUMPDEST PUSH1 0x1 PUSH1 0x1 PUSH1 0xA0 SHL SUB AND EQ PUSH2 0x293A JUMPI PUSH1 0x40 MLOAD PUSH3 0x461BCD PUSH1 0xE5 SHL DUP2 MSTORE PUSH1 0x20 PUSH1 0x4 DUP3 ADD MSTORE PUSH1 0x1 PUSH1 0x24 DUP3 ADD MSTORE PUSH1 0x6F PUSH1 0xF8 SHL PUSH1 0x44 DUP3 ADD MSTORE PUSH1 0x64 ADD PUSH2 0x8CD JUMP JUMPDEST DUP4 PUSH1 0x0 SUB PUSH2 0x2946 JUMPI TIMESTAMP SWAP4 POP JUMPDEST DUP4 DUP6 GT ISZERO PUSH2 0x2952 JUMPI SWAP3 SWAP4 SWAP3 JUMPDEST PUSH1 0xFF DUP7 AND PUSH1 0x8 DUP9 SWAP1 SHL PUSH2 0xFF00 AND OR PUSH1 0x0 DUP2 DUP2 MSTORE PUSH1 0xC PUSH1 0x20 MSTORE PUSH1 0x40 DUP2 KECCAK256 DUP1 SLOAD SWAP1 SWAP2 DUP2 SWAP1 SUB PUSH2 0x297D JUMPI POP PUSH1 0x1 JUMPDEST PUSH1 0x0 DUP2 JUMPDEST DUP1 ISZERO PUSH2 0x2A1E JUMPI PUSH1 0x0 PUSH1 0xA DUP6 PUSH2 0x2997 PUSH1 0x1 DUP6 PUSH2 0x5A61 JUMP JUMPDEST DUP2 SLOAD DUP2 LT PUSH2 0x29A7 JUMPI PUSH2 0x29A7 PUSH2 0x5A74 JUMP JUMPDEST SWAP1 PUSH1 0x0 MSTORE PUSH1 0x20 PUSH1 0x0 KECCAK256 ADD SLOAD DUP2 SLOAD DUP2 LT PUSH2 0x29C2 JUMPI PUSH2 0x29C2 PUSH2 0x5A74 JUMP JUMPDEST SWAP1 PUSH1 0x0 MSTORE PUSH1 0x20 PUSH1 0x0 KECCAK256 SWAP1 PUSH1 0xA MUL ADD PUSH1 0x1 ADD SLOAD SWAP1 POP DUP11 DUP2 LT ISZERO DUP1 ISZERO PUSH2 0x29E6 JUMPI POP DUP10 DUP2 GT ISZERO JUMPDEST ISZERO PUSH2 0x29FD JUMPI DUP3 PUSH2 0x29F5 DUP2 PUSH2 0x5AA3 JUMP JUMPDEST SWAP4 POP POP PUSH2 0x2A0B JUMP JUMPDEST DUP11 DUP2 LT ISZERO PUSH2 0x2A0B JUMPI POP PUSH2 0x2A1E JUMP JUMPDEST POP DUP1 PUSH2 0x2A16 DUP2 PUSH2 0x5ABD JUMP JUMPDEST SWAP2 POP POP PUSH2 0x2981 JUMP JUMPDEST POP DUP1 PUSH8 0xFFFFFFFFFFFFFFFF DUP2 GT ISZERO PUSH2 0x2A38 JUMPI PUSH2 0x2A38 PUSH2 0x5AD4 JUMP JUMPDEST PUSH1 0x40 MLOAD SWAP1 DUP1 DUP3 MSTORE DUP1 PUSH1 0x20 MUL PUSH1 0x20 ADD DUP3 ADD PUSH1 0x40 MSTORE DUP1 ISZERO PUSH2 0x2AE2 JUMPI DUP2 PUSH1 0x20 ADD JUMPDEST PUSH2 0x2ACF PUSH1 0x40 MLOAD DUP1 PUSH2 0x1A0 ADD PUSH1 0x40 MSTORE DUP1 PUSH1 0x0 PUSH1 0xFF AND DUP2 MSTORE PUSH1 0x20 ADD PUSH1 0x0 PUSH1 0xFF AND DUP2 MSTORE PUSH1 0x20 ADD PUSH1 0x0 PUSH1 0xFF AND DUP2 MSTORE PUSH1 0x20 ADD PUSH1 0x0 PUSH1 0xFF AND DUP2 MSTORE PUSH1 0x20 ADD PUSH1 0x0 DUP2 MSTORE PUSH1 0x20 ADD PUSH1 0x0 ISZERO ISZERO DUP2 MSTORE PUSH1 0x20 ADD PUSH1 0x0 DUP2 MSTORE PUSH1 0x20 ADD PUSH1 0x0 DUP2 MSTORE PUSH1 0x20 ADD PUSH1 0x0 DUP2 MSTORE PUSH1 0x20 ADD PUSH1 0x0 DUP2 MSTORE PUSH1 0x20 ADD PUSH1 0x0 DUP2 MSTORE PUSH1 0x20 ADD PUSH1 0x0 DUP2 MSTORE PUSH1 0x20 ADD PUSH1 0x0 DUP2 MSTORE POP SWAP1 JUMP JUMPDEST DUP2 MSTORE PUSH1 0x20 ADD SWAP1 PUSH1 0x1 SWAP1 SUB SWAP1 DUP2 PUSH2 0x2A56 JUMPI SWAP1 POP JUMPDEST POP SWAP7 POP PUSH1 0x0 PUSH2 0x2AF1 DUP3 DUP5 PUSH2 0x5A61 JUMP JUMPDEST SWAP1 POP PUSH1 0x0 JUMPDEST DUP3 DUP2 LT ISZERO PUSH2 0x2C21 JUMPI PUSH1 0xA DUP6 PUSH2 0x2B0B DUP4 DUP6 PUSH2 0x5B03 JUMP JUMPDEST DUP2 SLOAD DUP2 LT PUSH2 0x2B1B JUMPI PUSH2 0x2B1B PUSH2 0x5A74 JUMP JUMPDEST SWAP1 PUSH1 0x0 MSTORE PUSH1 0x20 PUSH1 0x0 KECCAK256 ADD SLOAD DUP2 SLOAD DUP2 LT PUSH2 0x2B36 JUMPI PUSH2 0x2B36 PUSH2 0x5A74 JUMP JUMPDEST PUSH1 0x0 SWAP2 DUP3 MSTORE PUSH1 0x20 SWAP2 DUP3 SWAP1 KECCAK256 PUSH1 0x40 DUP1 MLOAD PUSH2 0x1A0 DUP2 ADD DUP3 MSTORE PUSH1 0xA SWAP1 SWAP4 MUL SWAP1 SWAP2 ADD DUP1 SLOAD PUSH1 0xFF DUP1 DUP3 AND DUP6 MSTORE PUSH2 0x100 DUP1 DUP4 DIV DUP3 AND SWAP7 DUP7 ADD SWAP7 SWAP1 SWAP7 MSTORE PUSH3 0x10000 DUP3 DIV DUP2 AND SWAP4 DUP6 ADD SWAP4 SWAP1 SWAP4 MSTORE PUSH4 0x1000000 SWAP1 DIV DUP3 AND PUSH1 0x60 DUP5 ADD MSTORE PUSH1 0x1 DUP2 ADD SLOAD PUSH1 0x80 DUP5 ADD MSTORE PUSH1 0x2 DUP2 ADD SLOAD SWAP1 SWAP2 AND ISZERO ISZERO PUSH1 0xA0 DUP4 ADD MSTORE PUSH1 0x3 DUP2 ADD SLOAD PUSH1 0xC0 DUP4 ADD MSTORE PUSH1 0x4 DUP2 ADD SLOAD PUSH1 0xE0 DUP4 ADD MSTORE PUSH1 0x5 DUP2 ADD SLOAD SWAP3 DUP3 ADD SWAP3 SWAP1 SWAP3 MSTORE PUSH1 0x6 DUP3 ADD SLOAD PUSH2 0x120 DUP3 ADD MSTORE PUSH1 0x7 DUP3 ADD SLOAD PUSH2 0x140 DUP3 ADD MSTORE PUSH1 0x8 DUP3 ADD SLOAD PUSH2 0x160 DUP3 ADD MSTORE PUSH1 0x9 SWAP1 SWAP2 ADD SLOAD PUSH2 0x180 DUP3 ADD MSTORE DUP10 MLOAD DUP11 SWAP1 DUP4 SWAP1 DUP2 LT PUSH2 0x2C03 JUMPI PUSH2 0x2C03 PUSH2 0x5A74 JUMP JUMPDEST PUSH1 0x20 MUL PUSH1 0x20 ADD ADD DUP2 SWAP1 MSTORE POP DUP1 DUP1 PUSH2 0x2C19 SWAP1 PUSH2 0x5AA3 JUMP JUMPDEST SWAP2 POP POP PUSH2 0x2AF6 JUMP JUMPDEST POP POP POP POP POP POP POP POP SWAP5 SWAP4 POP POP POP POP JUMP JUMPDEST PUSH1 0x60 DUP1 DUP3 PUSH1 0x0 SUB PUSH2 0x2C40 JUMPI TIMESTAMP SWAP3 POP JUMPDEST DUP3 DUP5 GT ISZERO PUSH2 0x2C4C JUMPI SWAP2 SWAP3 SWAP2 JUMPDEST PUSH1 0xA SLOAD PUSH1 0x0 DUP2 SWAP1 SUB PUSH2 0x2C5C JUMPI POP PUSH1 0x1 JUMPDEST PUSH1 0x0 DUP2 JUMPDEST DUP1 ISZERO PUSH2 0x2CE1 JUMPI PUSH1 0x0 PUSH1 0xA PUSH2 0x2C75 PUSH1 0x1 DUP5 PUSH2 0x5A61 JUMP JUMPDEST DUP2 SLOAD DUP2 LT PUSH2 0x2C85 JUMPI PUSH2 0x2C85 PUSH2 0x5A74 JUMP JUMPDEST SWAP1 PUSH1 0x0 MSTORE PUSH1 0x20 PUSH1 0x0 KECCAK256 SWAP1 PUSH1 0xA MUL ADD PUSH1 0x1 ADD SLOAD SWAP1 POP DUP8 DUP2 LT ISZERO DUP1 ISZERO PUSH2 0x2CA9 JUMPI POP DUP7 DUP2 GT ISZERO JUMPDEST ISZERO PUSH2 0x2CC0 JUMPI DUP3 PUSH2 0x2CB8 DUP2 PUSH2 0x5AA3 JUMP JUMPDEST SWAP4 POP POP PUSH2 0x2CCE JUMP JUMPDEST DUP8 DUP2 LT ISZERO PUSH2 0x2CCE JUMPI POP PUSH2 0x2CE1 JUMP JUMPDEST POP DUP1 PUSH2 0x2CD9 DUP2 PUSH2 0x5ABD JUMP JUMPDEST SWAP2 POP POP PUSH2 0x2C60 JUMP JUMPDEST POP DUP1 PUSH8 0xFFFFFFFFFFFFFFFF DUP2 GT ISZERO PUSH2 0x2CFB JUMPI PUSH2 0x2CFB PUSH2 0x5AD4 JUMP JUMPDEST PUSH1 0x40 MLOAD SWAP1 DUP1 DUP3 MSTORE DUP1 PUSH1 0x20 MUL PUSH1 0x20 ADD DUP3 ADD PUSH1 0x40 MSTORE DUP1 ISZERO PUSH2 0x2D5B JUMPI DUP2 PUSH1 0x20 ADD JUMPDEST PUSH1 0x40 DUP1 MLOAD PUSH1 0xC0 DUP2 ADD DUP3 MSTORE PUSH1 0x0 DUP1 DUP3 MSTORE PUSH1 0x20 DUP1 DUP4 ADD DUP3 SWAP1 MSTORE SWAP3 DUP3 ADD DUP2 SWAP1 MSTORE PUSH1 0x60 DUP3 ADD DUP2 SWAP1 MSTORE PUSH1 0x80 DUP3 ADD DUP2 SWAP1 MSTORE PUSH1 0xA0 DUP3 ADD MSTORE DUP3 MSTORE PUSH1 0x0 NOT SWAP1 SWAP3 ADD SWAP2 ADD DUP2 PUSH2 0x2D19 JUMPI SWAP1 POP JUMPDEST POP SWAP4 POP DUP1 PUSH8 0xFFFFFFFFFFFFFFFF DUP2 GT ISZERO PUSH2 0x2D77 JUMPI PUSH2 0x2D77 PUSH2 0x5AD4 JUMP JUMPDEST PUSH1 0x40 MLOAD SWAP1 DUP1 DUP3 MSTORE DUP1 PUSH1 0x20 MUL PUSH1 0x20 ADD DUP3 ADD PUSH1 0x40 MSTORE DUP1 ISZERO PUSH2 0x2DBC JUMPI DUP2 PUSH1 0x20 ADD JUMPDEST PUSH1 0x40 DUP1 MLOAD DUP1 DUP3 ADD SWAP1 SWAP2 MSTORE PUSH1 0x60 DUP1 DUP3 MSTORE PUSH1 0x20 DUP3 ADD MSTORE DUP2 MSTORE PUSH1 0x20 ADD SWAP1 PUSH1 0x1 SWAP1 SUB SWAP1 DUP2 PUSH2 0x2D95 JUMPI SWAP1 POP JUMPDEST POP SWAP3 POP PUSH1 0x0 PUSH2 0x2DCB DUP3 DUP5 PUSH2 0x5A61 JUMP JUMPDEST SWAP1 POP PUSH1 0x0 JUMPDEST DUP3 DUP2 LT ISZERO PUSH2 0x30A8 JUMPI PUSH1 0x0 PUSH1 0xA PUSH2 0x2DE6 DUP4 DUP6 PUSH2 0x5B03 JUMP JUMPDEST DUP2 SLOAD DUP2 LT PUSH2 0x2DF6 JUMPI PUSH2 0x2DF6 PUSH2 0x5A74 JUMP JUMPDEST PUSH1 0x0 SWAP2 DUP3 MSTORE PUSH1 0x20 SWAP2 DUP3 SWAP1 KECCAK256 PUSH1 0x40 DUP1 MLOAD PUSH2 0x1A0 DUP2 ADD DUP3 MSTORE PUSH1 0xA SWAP1 SWAP4 MUL SWAP1 SWAP2 ADD DUP1 SLOAD PUSH1 0xFF DUP1 DUP3 AND DUP6 MSTORE PUSH2 0x100 DUP1 DUP4 DIV DUP3 AND DUP7 DUP9 ADD SWAP1 DUP2 MSTORE PUSH3 0x10000 DUP5 DIV DUP4 AND DUP8 DUP8 ADD SWAP1 DUP2 MSTORE PUSH4 0x1000000 SWAP1 SWAP5 DIV DUP4 AND PUSH1 0x60 DUP1 DUP10 ADD SWAP2 DUP3 MSTORE PUSH1 0x1 DUP8 ADD SLOAD PUSH1 0x80 DUP1 DUP12 ADD SWAP2 DUP3 MSTORE PUSH1 0x2 DUP10 ADD SLOAD DUP8 AND ISZERO ISZERO PUSH1 0xA0 DUP1 DUP14 ADD SWAP2 DUP3 MSTORE PUSH1 0x3 DUP12 ADD SLOAD PUSH1 0xC0 DUP1 DUP16 ADD SWAP2 SWAP1 SWAP2 MSTORE PUSH1 0x4 DUP13 ADD SLOAD PUSH1 0xE0 DUP16 ADD MSTORE PUSH1 0x5 DUP13 ADD SLOAD SWAP9 DUP15 ADD SWAP9 SWAP1 SWAP9 MSTORE PUSH1 0x6 DUP12 ADD SLOAD PUSH2 0x120 DUP15 ADD MSTORE PUSH1 0x7 DUP12 ADD SLOAD PUSH2 0x140 DUP15 ADD MSTORE PUSH1 0x8 DUP12 ADD SLOAD PUSH2 0x160 DUP15 ADD MSTORE PUSH1 0x9 SWAP1 SWAP11 ADD SLOAD PUSH2 0x180 DUP14 ADD MSTORE DUP11 MLOAD SWAP7 DUP8 ADD DUP12 MSTORE DUP12 MLOAD DUP9 AND DUP8 MSTORE SWAP5 MLOAD DUP8 AND SWAP12 DUP7 ADD SWAP12 SWAP1 SWAP12 MSTORE SWAP6 MLOAD DUP6 AND SWAP8 DUP5 ADD SWAP8 SWAP1 SWAP8 MSTORE MLOAD SWAP1 SWAP3 AND SWAP5 DUP2 ADD SWAP5 SWAP1 SWAP5 MSTORE SWAP1 MLOAD SWAP5 DUP4 ADD SWAP5 SWAP1 SWAP5 MSTORE SWAP3 MLOAD ISZERO ISZERO SWAP3 DUP2 ADD SWAP3 SWAP1 SWAP3 MSTORE DUP9 MLOAD SWAP1 SWAP3 POP DUP9 SWAP1 DUP5 SWAP1 DUP2 LT PUSH2 0x2F13 JUMPI PUSH2 0x2F13 PUSH2 0x5A74 JUMP JUMPDEST PUSH1 0x20 SWAP1 DUP2 MUL SWAP2 SWAP1 SWAP2 ADD ADD MSTORE PUSH1 0xB PUSH2 0x2F2A DUP4 DUP6 PUSH2 0x5B03 JUMP JUMPDEST DUP2 SLOAD DUP2 LT PUSH2 0x2F3A JUMPI PUSH2 0x2F3A PUSH2 0x5A74 JUMP JUMPDEST SWAP1 PUSH1 0x0 MSTORE PUSH1 0x20 PUSH1 0x0 KECCAK256 SWAP1 PUSH1 0x2 MUL ADD PUSH1 0x40 MLOAD DUP1 PUSH1 0x40 ADD PUSH1 0x40 MSTORE SWAP1 DUP2 PUSH1 0x0 DUP3 ADD DUP1 SLOAD PUSH2 0x2F63 SWAP1 PUSH2 0x5B16 JUMP JUMPDEST DUP1 PUSH1 0x1F ADD PUSH1 0x20 DUP1 SWAP2 DIV MUL PUSH1 0x20 ADD PUSH1 0x40 MLOAD SWAP1 DUP2 ADD PUSH1 0x40 MSTORE DUP1 SWAP3 SWAP2 SWAP1 DUP2 DUP2 MSTORE PUSH1 0x20 ADD DUP3 DUP1 SLOAD PUSH2 0x2F8F SWAP1 PUSH2 0x5B16 JUMP JUMPDEST DUP1 ISZERO PUSH2 0x2FDC JUMPI DUP1 PUSH1 0x1F LT PUSH2 0x2FB1 JUMPI PUSH2 0x100 DUP1 DUP4 SLOAD DIV MUL DUP4 MSTORE SWAP2 PUSH1 0x20 ADD SWAP2 PUSH2 0x2FDC JUMP JUMPDEST DUP3 ADD SWAP2 SWAP1 PUSH1 0x0 MSTORE PUSH1 0x20 PUSH1 0x0 KECCAK256 SWAP1 JUMPDEST DUP2 SLOAD DUP2 MSTORE SWAP1 PUSH1 0x1 ADD SWAP1 PUSH1 0x20 ADD DUP1 DUP4 GT PUSH2 0x2FBF JUMPI DUP3 SWAP1 SUB PUSH1 0x1F AND DUP3 ADD SWAP2 JUMPDEST POP POP POP POP POP DUP2 MSTORE PUSH1 0x20 ADD PUSH1 0x1 DUP3 ADD DUP1 SLOAD PUSH2 0x2FF5 SWAP1 PUSH2 0x5B16 JUMP JUMPDEST DUP1 PUSH1 0x1F ADD PUSH1 0x20 DUP1 SWAP2 DIV MUL PUSH1 0x20 ADD PUSH1 0x40 MLOAD SWAP1 DUP2 ADD PUSH1 0x40 MSTORE DUP1 SWAP3 SWAP2 SWAP1 DUP2 DUP2 MSTORE PUSH1 0x20 ADD DUP3 DUP1 SLOAD PUSH2 0x3021 SWAP1 PUSH2 0x5B16 JUMP JUMPDEST DUP1 ISZERO PUSH2 0x306E JUMPI DUP1 PUSH1 0x1F LT PUSH2 0x3043 JUMPI PUSH2 0x100 DUP1 DUP4 SLOAD DIV MUL DUP4 MSTORE SWAP2 PUSH1 0x20 ADD SWAP2 PUSH2 0x306E JUMP JUMPDEST DUP3 ADD SWAP2 SWAP1 PUSH1 0x0 MSTORE PUSH1 0x20 PUSH1 0x0 KECCAK256 SWAP1 JUMPDEST DUP2 SLOAD DUP2 MSTORE SWAP1 PUSH1 0x1 ADD SWAP1 PUSH1 0x20 ADD DUP1 DUP4 GT PUSH2 0x3051 JUMPI DUP3 SWAP1 SUB PUSH1 0x1F AND DUP3 ADD SWAP2 JUMPDEST POP POP POP POP POP DUP2 MSTORE POP POP DUP7 DUP4 DUP2 MLOAD DUP2 LT PUSH2 0x3089 JUMPI PUSH2 0x3089 PUSH2 0x5A74 JUMP JUMPDEST PUSH1 0x20 MUL PUSH1 0x20 ADD ADD DUP2 SWAP1 MSTORE POP POP DUP1 DUP1 PUSH2 0x30A0 SWAP1 PUSH2 0x5AA3 JUMP JUMPDEST SWAP2 POP POP PUSH2 0x2DD0 JUMP JUMPDEST POP POP POP POP SWAP3 POP SWAP3 SWAP1 POP JUMP JUMPDEST PUSH2 0x30BB PUSH2 0x37A0 JUMP JUMPDEST PUSH1 0x3 SLOAD PUSH1 0x40 MLOAD PUSH4 0x8A888953 PUSH1 0xE0 SHL DUP2 MSTORE PUSH1 0xFF DUP1 DUP9 AND PUSH1 0x4 DUP4 ADD MSTORE DUP7 AND PUSH1 0x24 DUP3 ADD MSTORE DUP7 SWAP2 DUP7 SWAP2 CALLER SWAP2 PUSH1 0x1 PUSH1 0x1 PUSH1 0xA0 SHL SUB AND SWAP1 PUSH4 0x8A888953 SWAP1 PUSH1 0x44 ADD PUSH1 0x20 PUSH1 0x40 MLOAD DUP1 DUP4 SUB DUP2 DUP7 GAS STATICCALL ISZERO DUP1 ISZERO PUSH2 0x3112 JUMPI RETURNDATASIZE PUSH1 0x0 DUP1 RETURNDATACOPY RETURNDATASIZE PUSH1 0x0 REVERT JUMPDEST POP POP POP POP PUSH1 0x40 MLOAD RETURNDATASIZE PUSH1 0x1F NOT PUSH1 0x1F DUP3 ADD AND DUP3 ADD DUP1 PUSH1 0x40 MSTORE POP DUP2 ADD SWAP1 PUSH2 0x3136 SWAP2 SWAP1 PUSH2 0x5B80 JUMP JUMPDEST PUSH1 0x1 PUSH1 0x1 PUSH1 0xA0 SHL SUB AND EQ PUSH2 0x3170 JUMPI PUSH1 0x40 MLOAD PUSH3 0x461BCD PUSH1 0xE5 SHL DUP2 MSTORE PUSH1 0x20 PUSH1 0x4 DUP3 ADD MSTORE PUSH1 0x1 PUSH1 0x24 DUP3 ADD MSTORE PUSH1 0x6F PUSH1 0xF8 SHL PUSH1 0x44 DUP3 ADD MSTORE PUSH1 0x64 ADD PUSH2 0x8CD JUMP JUMPDEST PUSH1 0x1 SLOAD PUSH1 0x40 MLOAD PUSH32 0x4855735C00000000000000000000000000000000000000000000000000000000 DUP2 MSTORE PUSH1 0xFF DUP1 DUP11 AND PUSH1 0x4 DUP4 ADD MSTORE DUP9 AND PUSH1 0x24 DUP3 ADD MSTORE PUSH1 0x1 PUSH1 0x1 PUSH1 0xA0 SHL SUB SWAP1 SWAP2 AND SWAP1 PUSH4 0x4855735C SWAP1 PUSH1 0x44 ADD PUSH1 0x20 PUSH1 0x40 MLOAD DUP1 DUP4 SUB DUP2 DUP7 GAS STATICCALL ISZERO DUP1 ISZERO PUSH2 0x31DC JUMPI RETURNDATASIZE PUSH1 0x0 DUP1 RETURNDATACOPY RETURNDATASIZE PUSH1 0x0 REVERT JUMPDEST POP POP POP POP PUSH1 0x40 MLOAD RETURNDATASIZE PUSH1 0x1F NOT PUSH1 0x1F DUP3 ADD AND DUP3 ADD DUP1 PUSH1 0x40 MSTORE POP DUP2 ADD SWAP1 PUSH2 0x3200 SWAP2 SWAP1 PUSH2 0x5C75 JUMP JUMPDEST PUSH2 0x324C JUMPI PUSH1 0x40 MLOAD PUSH3 0x461BCD PUSH1 0xE5 SHL DUP2 MSTORE PUSH1 0x20 PUSH1 0x4 DUP3 ADD MSTORE PUSH1 0x1 PUSH1 0x24 DUP3 ADD MSTORE PUSH32 0x6D00000000000000000000000000000000000000000000000000000000000000 PUSH1 0x44 DUP3 ADD MSTORE PUSH1 0x64 ADD PUSH2 0x8CD JUMP JUMPDEST PUSH3 0x989680 DUP4 LT ISZERO DUP1 ISZERO PUSH2 0x3265 JUMPI POP PUSH6 0x9184E72A000 DUP4 GT ISZERO JUMPDEST PUSH2 0x32B1 JUMPI PUSH1 0x40 MLOAD PUSH3 0x461BCD PUSH1 0xE5 SHL DUP2 MSTORE PUSH1 0x20 PUSH1 0x4 DUP3 ADD MSTORE PUSH1 0x1 PUSH1 0x24 DUP3 ADD MSTORE PUSH32 0x7000000000000000000000000000000000000000000000000000000000000000 PUSH1 0x44 DUP3 ADD MSTORE PUSH1 0x64 ADD PUSH2 0x8CD JUMP JUMPDEST PUSH1 0x1 DUP6 PUSH1 0xFF AND LT ISZERO DUP1 ISZERO PUSH2 0x32C9 JUMPI POP PUSH1 0x8 DUP6 PUSH1 0xFF AND GT ISZERO JUMPDEST PUSH2 0x32F9 JUMPI PUSH1 0x40 MLOAD PUSH3 0x461BCD PUSH1 0xE5 SHL DUP2 MSTORE PUSH1 0x20 PUSH1 0x4 DUP3 ADD MSTORE PUSH1 0x1 PUSH1 0x24 DUP3 ADD MSTORE PUSH1 0x1D PUSH1 0xFA SHL PUSH1 0x44 DUP3 ADD MSTORE PUSH1 0x64 ADD PUSH2 0x8CD JUMP JUMPDEST PUSH1 0x4 DUP6 PUSH1 0xFF AND GT PUSH2 0x336B JUMPI PUSH2 0x2710 DUP5 LT ISZERO DUP1 ISZERO PUSH2 0x331A JUMPI POP PUSH4 0x5F5E100 DUP5 GT ISZERO JUMPDEST PUSH2 0x3366 JUMPI PUSH1 0x40 MLOAD PUSH3 0x461BCD PUSH1 0xE5 SHL DUP2 MSTORE PUSH1 0x20 PUSH1 0x4 DUP3 ADD MSTORE PUSH1 0x1 PUSH1 0x24 DUP3 ADD MSTORE PUSH32 0x6100000000000000000000000000000000000000000000000000000000000000 PUSH1 0x44 DUP3 ADD MSTORE PUSH1 0x64 ADD PUSH2 0x8CD JUMP JUMPDEST PUSH2 0x33CA JUMP JUMPDEST PUSH1 0x64 DUP5 LT ISZERO DUP1 ISZERO PUSH2 0x337E JUMPI POP PUSH2 0x2710 DUP5 GT ISZERO JUMPDEST PUSH2 0x33CA JUMPI PUSH1 0x40 MLOAD PUSH3 0x461BCD PUSH1 0xE5 SHL DUP2 MSTORE PUSH1 0x20 PUSH1 0x4 DUP3 ADD MSTORE PUSH1 0x1 PUSH1 0x24 DUP3 ADD MSTORE PUSH32 0x6100000000000000000000000000000000000000000000000000000000000000 PUSH1 0x44 DUP3 ADD MSTORE PUSH1 0x64 ADD PUSH2 0x8CD JUMP JUMPDEST PUSH1 0x1 SLOAD PUSH1 0x40 MLOAD PUSH4 0x3E5F2857 PUSH1 0xE0 SHL DUP2 MSTORE PUSH1 0xFF DUP1 DUP11 AND PUSH1 0x4 DUP4 ADD MSTORE DUP1 DUP10 AND PUSH1 0x24 DUP4 ADD MSTORE DUP8 AND PUSH1 0x44 DUP3 ADD MSTORE PUSH1 0x64 DUP2 ADD DUP7 SWAP1 MSTORE PUSH1 0x0 PUSH1 0x84 DUP3 ADD MSTORE PUSH1 0x1 PUSH1 0x1 PUSH1 0xA0 SHL SUB SWAP1 SWAP2 AND SWAP1 PUSH4 0x3E5F2857 SWAP1 PUSH1 0xA4 ADD PUSH1 0x0 PUSH1 0x40 MLOAD DUP1 DUP4 SUB DUP2 PUSH1 0x0 DUP8 DUP1 EXTCODESIZE ISZERO DUP1 ISZERO PUSH2 0x3430 JUMPI PUSH1 0x0 DUP1 REVERT JUMPDEST POP GAS CALL ISZERO DUP1 ISZERO PUSH2 0x3444 JUMPI RETURNDATASIZE PUSH1 0x0 DUP1 RETURNDATACOPY RETURNDATASIZE PUSH1 0x0 REVERT JUMPDEST POP POP POP POP PUSH1 0x0 PUSH1 0xA DUP5 PUSH2 0x3457 SWAP2 SWAP1 PUSH2 0x5C3A JUMP JUMPDEST PUSH2 0x3461 SWAP1 DUP6 PUSH2 0x5B03 JUMP JUMPDEST SWAP1 POP PUSH2 0x346D DUP9 DUP9 PUSH2 0x4EB7 JUMP JUMPDEST PUSH1 0xFF DUP1 DUP8 AND PUSH1 0x0 DUP2 DUP2 MSTORE PUSH1 0x7 PUSH1 0x20 SWAP1 DUP2 MSTORE PUSH1 0x40 DUP1 DUP4 KECCAK256 DUP2 MLOAD PUSH1 0xA0 DUP2 ADD DUP4 MSTORE DUP15 DUP8 AND DUP2 MSTORE DUP14 DUP8 AND DUP2 DUP6 ADD SWAP1 DUP2 MSTORE SWAP3 DUP2 ADD SWAP6 DUP7 MSTORE PUSH1 0x60 DUP2 ADD DUP13 DUP2 MSTORE PUSH1 0x80 DUP3 ADD SWAP9 DUP10 MSTORE DUP3 SLOAD PUSH1 0x1 DUP2 DUP2 ADD DUP6 SSTORE SWAP4 DUP8 MSTORE SWAP5 SWAP1 SWAP6 KECCAK256 SWAP1 MLOAD PUSH1 0x3 SWAP1 SWAP5 MUL ADD DUP1 SLOAD SWAP3 MLOAD SWAP6 MLOAD DUP8 AND PUSH3 0x10000 MUL PUSH3 0xFF0000 NOT SWAP7 DUP9 AND PUSH2 0x100 MUL PUSH2 0xFFFF NOT SWAP1 SWAP5 AND SWAP5 SWAP1 SWAP8 AND SWAP4 SWAP1 SWAP4 OR SWAP2 SWAP1 SWAP2 OR SWAP4 SWAP1 SWAP4 AND SWAP4 SWAP1 SWAP4 OR DUP4 SSTORE MLOAD SWAP1 DUP3 ADD SSTORE SWAP1 MLOAD PUSH1 0x2 SWAP1 SWAP2 ADD SSTORE POP PUSH2 0x3515 SWAP1 POP PUSH1 0x1 PUSH1 0x0 SSTORE JUMP JUMPDEST POP POP POP POP POP JUMP JUMPDEST PUSH1 0x3 SLOAD PUSH1 0x40 MLOAD PUSH4 0x8A888953 PUSH1 0xE0 SHL DUP2 MSTORE PUSH1 0xFF DUP1 DUP7 AND PUSH1 0x4 DUP4 ADD MSTORE DUP5 AND PUSH1 0x24 DUP3 ADD MSTORE PUSH1 0x60 SWAP2 DUP6 SWAP2 DUP6 SWAP2 CALLER SWAP2 PUSH1 0x1 PUSH1 0x1 PUSH1 0xA0 SHL SUB SWAP1 SWAP2 AND SWAP1 PUSH4 0x8A888953 SWAP1 PUSH1 0x44 ADD PUSH1 0x20 PUSH1 0x40 MLOAD DUP1 DUP4 SUB DUP2 DUP7 GAS STATICCALL ISZERO DUP1 ISZERO PUSH2 0x3578 JUMPI RETURNDATASIZE PUSH1 0x0 DUP1 RETURNDATACOPY RETURNDATASIZE PUSH1 0x0 REVERT JUMPDEST POP POP POP POP PUSH1 0x40 MLOAD RETURNDATASIZE PUSH1 0x1F NOT PUSH1 0x1F DUP3 ADD AND DUP3 ADD DUP1 PUSH1 0x40 MSTORE POP DUP2 ADD SWAP1 PUSH2 0x359C SWAP2 SWAP1 PUSH2 0x5B80 JUMP JUMPDEST PUSH1 0x1 PUSH1 0x1 PUSH1 0xA0 SHL SUB AND EQ PUSH2 0x35D6 JUMPI PUSH1 0x40 MLOAD PUSH3 0x461BCD PUSH1 0xE5 SHL DUP2 MSTORE PUSH1 0x20 PUSH1 0x4 DUP3 ADD MSTORE PUSH1 0x1 PUSH1 0x24 DUP3 ADD MSTORE PUSH1 0x6F PUSH1 0xF8 SHL PUSH1 0x44 DUP3 ADD MSTORE PUSH1 0x64 ADD PUSH2 0x8CD JUMP JUMPDEST PUSH1 0x1 DUP5 PUSH1 0xFF AND LT ISZERO DUP1 ISZERO PUSH2 0x35EE JUMPI POP PUSH1 0x8 DUP5 PUSH1 0xFF AND GT ISZERO JUMPDEST PUSH2 0x361E JUMPI PUSH1 0x40 MLOAD PUSH3 0x461BCD PUSH1 0xE5 SHL DUP2 MSTORE PUSH1 0x20 PUSH1 0x4 DUP3 ADD MSTORE PUSH1 0x1 PUSH1 0x24 DUP3 ADD MSTORE PUSH1 0x1D PUSH1 0xFA SHL PUSH1 0x44 DUP3 ADD MSTORE PUSH1 0x64 ADD PUSH2 0x8CD JUMP JUMPDEST PUSH1 0x1 SLOAD PUSH1 0x40 MLOAD PUSH32 0x4855735C00000000000000000000000000000000000000000000000000000000 DUP2 MSTORE PUSH1 0xFF DUP1 DUP10 AND PUSH1 0x4 DUP4 ADD MSTORE DUP8 AND PUSH1 0x24 DUP3 ADD MSTORE PUSH1 0x1 PUSH1 0x1 PUSH1 0xA0 SHL SUB SWAP1 SWAP2 AND SWAP1 PUSH4 0x4855735C SWAP1 PUSH1 0x44 ADD PUSH1 0x20 PUSH1 0x40 MLOAD DUP1 DUP4 SUB DUP2 DUP7 GAS STATICCALL ISZERO DUP1 ISZERO PUSH2 0x368A JUMPI RETURNDATASIZE PUSH1 0x0 DUP1 RETURNDATACOPY RETURNDATASIZE PUSH1 0x0 REVERT JUMPDEST POP POP POP POP PUSH1 0x40 MLOAD RETURNDATASIZE PUSH1 0x1F NOT PUSH1 0x1F DUP3 ADD AND DUP3 ADD DUP1 PUSH1 0x40 MSTORE POP DUP2 ADD SWAP1 PUSH2 0x36AE SWAP2 SWAP1 PUSH2 0x5C75 JUMP JUMPDEST PUSH2 0x36FA JUMPI PUSH1 0x40 MLOAD PUSH3 0x461BCD PUSH1 0xE5 SHL DUP2 MSTORE PUSH1 0x20 PUSH1 0x4 DUP3 ADD MSTORE PUSH1 0x1 PUSH1 0x24 DUP3 ADD MSTORE PUSH32 0x6D00000000000000000000000000000000000000000000000000000000000000 PUSH1 0x44 DUP3 ADD MSTORE PUSH1 0x64 ADD PUSH2 0x8CD JUMP JUMPDEST PUSH1 0xFF DUP5 AND PUSH1 0x0 SWAP1 DUP2 MSTORE PUSH1 0x7 PUSH1 0x20 SWAP1 DUP2 MSTORE PUSH1 0x40 DUP1 DUP4 KECCAK256 DUP1 SLOAD DUP3 MLOAD DUP2 DUP6 MUL DUP2 ADD DUP6 ADD SWAP1 SWAP4 MSTORE DUP1 DUP4 MSTORE SWAP2 SWAP4 SWAP1 SWAP3 DUP5 ADD JUMPDEST DUP3 DUP3 LT ISZERO PUSH2 0x3791 JUMPI PUSH1 0x0 DUP5 DUP2 MSTORE PUSH1 0x20 SWAP1 DUP2 SWAP1 KECCAK256 PUSH1 0x40 DUP1 MLOAD PUSH1 0xA0 DUP2 ADD DUP3 MSTORE PUSH1 0x3 DUP7 MUL SWAP1 SWAP3 ADD DUP1 SLOAD PUSH1 0xFF DUP1 DUP3 AND DUP6 MSTORE PUSH2 0x100 DUP3 DIV DUP2 AND DUP6 DUP8 ADD MSTORE PUSH3 0x10000 SWAP1 SWAP2 DIV AND SWAP2 DUP4 ADD SWAP2 SWAP1 SWAP2 MSTORE PUSH1 0x1 DUP1 DUP3 ADD SLOAD PUSH1 0x60 DUP5 ADD MSTORE PUSH1 0x2 SWAP1 SWAP2 ADD SLOAD PUSH1 0x80 DUP4 ADD MSTORE SWAP1 DUP4 MSTORE SWAP1 SWAP3 ADD SWAP2 ADD PUSH2 0x3727 JUMP JUMPDEST POP POP POP POP SWAP3 POP POP POP SWAP4 SWAP3 POP POP POP JUMP JUMPDEST PUSH1 0x2 PUSH1 0x0 SLOAD SUB PUSH2 0x37F2 JUMPI PUSH1 0x40 MLOAD PUSH3 0x461BCD PUSH1 0xE5 SHL DUP2 MSTORE PUSH1 0x20 PUSH1 0x4 DUP3 ADD MSTORE PUSH1 0x1F PUSH1 0x24 DUP3 ADD MSTORE PUSH32 0x5265656E7472616E637947756172643A207265656E7472616E742063616C6C00 PUSH1 0x44 DUP3 ADD MSTORE PUSH1 0x64 ADD PUSH2 0x8CD JUMP JUMPDEST PUSH1 0x2 PUSH1 0x0 SSTORE JUMP JUMPDEST PUSH1 0xFF DUP3 AND PUSH1 0x0 SWAP1 DUP2 MSTORE PUSH1 0x7 PUSH1 0x20 MSTORE PUSH1 0x40 DUP2 KECCAK256 SLOAD PUSH2 0x3818 SWAP1 PUSH1 0x1 SWAP1 PUSH2 0x5A61 JUMP JUMPDEST SWAP1 POP DUP1 DUP3 EQ PUSH2 0x38E9 JUMPI PUSH1 0xFF DUP4 AND PUSH1 0x0 SWAP1 DUP2 MSTORE PUSH1 0x7 PUSH1 0x20 MSTORE PUSH1 0x40 SWAP1 KECCAK256 DUP1 SLOAD DUP3 SWAP1 DUP2 LT PUSH2 0x3845 JUMPI PUSH2 0x3845 PUSH2 0x5A74 JUMP JUMPDEST SWAP1 PUSH1 0x0 MSTORE PUSH1 0x20 PUSH1 0x0 KECCAK256 SWAP1 PUSH1 0x3 MUL ADD PUSH1 0x7 PUSH1 0x0 DUP6 PUSH1 0xFF AND PUSH1 0xFF AND DUP2 MSTORE PUSH1 0x20 ADD SWAP1 DUP2 MSTORE PUSH1 0x20 ADD PUSH1 0x0 KECCAK256 DUP4 DUP2 SLOAD DUP2 LT PUSH2 0x387D JUMPI PUSH2 0x387D PUSH2 0x5A74 JUMP JUMPDEST PUSH1 0x0 SWAP2 DUP3 MSTORE PUSH1 0x20 SWAP1 SWAP2 KECCAK256 DUP3 SLOAD PUSH1 0x3 SWAP1 SWAP3 MUL ADD DUP1 SLOAD PUSH1 0xFF SWAP3 DUP4 AND PUSH1 0xFF NOT DUP3 AND DUP2 OR DUP4 SSTORE DUP5 SLOAD PUSH2 0xFFFF NOT SWAP1 SWAP3 AND OR PUSH2 0x100 SWAP2 DUP3 SWAP1 DIV DUP5 AND SWAP1 SWAP2 MUL OR DUP1 DUP3 SSTORE DUP4 SLOAD PUSH3 0xFF0000 NOT SWAP1 SWAP2 AND PUSH3 0x10000 SWAP2 DUP3 SWAP1 DIV SWAP1 SWAP4 AND MUL SWAP2 SWAP1 SWAP2 OR DUP2 SSTORE PUSH1 0x1 DUP1 DUP4 ADD SLOAD SWAP1 DUP3 ADD SSTORE PUSH1 0x2 SWAP2 DUP3 ADD SLOAD SWAP2 ADD SSTORE JUMPDEST PUSH1 0xFF DUP4 AND PUSH1 0x0 SWAP1 DUP2 MSTORE PUSH1 0x7 PUSH1 0x20 MSTORE PUSH1 0x40 SWAP1 KECCAK256 DUP1 SLOAD DUP1 PUSH2 0x390A JUMPI PUSH2 0x390A PUSH2 0x5DAE JUMP JUMPDEST PUSH1 0x0 DUP3 DUP2 MSTORE PUSH1 0x20 DUP2 KECCAK256 PUSH1 0x3 PUSH1 0x0 NOT SWAP1 SWAP4 ADD SWAP3 DUP4 MUL ADD DUP1 SLOAD PUSH32 0xFFFFFFFFFFFFFFFFFFFFFFFFFFFFFFFFFFFFFFFFFFFFFFFFFFFFFFFFFF000000 AND DUP2 SSTORE PUSH1 0x1 DUP2 ADD DUP3 SWAP1 SSTORE PUSH1 0x2 ADD SSTORE SWAP1 SSTORE POP POP POP JUMP JUMPDEST PUSH1 0xFF DUP2 DUP2 AND PUSH1 0x8 DUP5 SWAP1 SHL PUSH2 0xFF00 AND OR PUSH1 0x0 DUP2 DUP2 MSTORE PUSH1 0x6 PUSH1 0x20 MSTORE PUSH1 0x40 SWAP1 KECCAK256 SLOAD SWAP1 SWAP2 AND ISZERO PUSH2 0x39A7 JUMPI PUSH2 0xFFFF DUP2 AND PUSH1 0x0 SWAP1 DUP2 MSTORE PUSH1 0x6 PUSH1 0x20 MSTORE PUSH1 0x40 SWAP1 KECCAK256 DUP1 SLOAD PUSH1 0xFF NOT DUP2 AND PUSH1 0xFF SWAP2 DUP3 AND PUSH1 0x0 NOT ADD SWAP1 SWAP2 AND OR SWAP1 SSTORE JUMPDEST POP POP POP JUMP JUMPDEST PUSH1 0x0 DUP2 PUSH1 0xFF AND DUP4 PUSH1 0xFF AND GT PUSH2 0x39CA JUMPI PUSH2 0x39C5 DUP4 DUP4 PUSH2 0x5DDD JUMP JUMPDEST PUSH2 0x39D4 JUMP JUMPDEST PUSH2 0x39D4 DUP3 DUP5 PUSH2 0x5DDD JUMP JUMPDEST SWAP1 POP JUMPDEST SWAP3 SWAP2 POP POP JUMP JUMPDEST DUP2 PUSH1 0x1 PUSH1 0x1 PUSH1 0xA0 SHL SUB AND DUP2 PUSH1 0x1 PUSH1 0x1 PUSH1 0xA0 SHL SUB AND SUB PUSH2 0x3A3E JUMPI PUSH1 0x40 MLOAD PUSH3 0x461BCD PUSH1 0xE5 SHL DUP2 MSTORE PUSH1 0x20 PUSH1 0x4 DUP3 ADD MSTORE PUSH1 0x1 PUSH1 0x24 DUP3 ADD MSTORE PUSH32 0x7900000000000000000000000000000000000000000000000000000000000000 PUSH1 0x44 DUP3 ADD MSTORE PUSH1 0x64 ADD PUSH2 0x8CD JUMP JUMPDEST PUSH1 0x4 DUP1 SLOAD PUSH1 0x40 MLOAD PUSH32 0x7AB9E7FE00000000000000000000000000000000000000000000000000000000 DUP2 MSTORE PUSH1 0xFF DUP1 DUP11 AND SWAP4 DUP3 ADD SWAP4 SWAP1 SWAP4 MSTORE SWAP2 DUP8 AND PUSH1 0x24 DUP4 ADD MSTORE PUSH1 0x0 SWAP2 PUSH1 0x1 PUSH1 0x1 PUSH1 0xA0 SHL SUB SWAP1 SWAP2 AND SWAP1 PUSH4 0x7AB9E7FE SWAP1 PUSH1 0x44 ADD PUSH1 0x20 PUSH1 0x40 MLOAD DUP1 DUP4 SUB DUP2 DUP7 GAS STATICCALL ISZERO DUP1 ISZERO PUSH2 0x3AB1 JUMPI RETURNDATASIZE PUSH1 0x0 DUP1 RETURNDATACOPY RETURNDATASIZE PUSH1 0x0 REVERT JUMPDEST POP POP POP POP PUSH1 0x40 MLOAD RETURNDATASIZE PUSH1 0x1F NOT PUSH1 0x1F DUP3 ADD AND DUP3 ADD DUP1 PUSH1 0x40 MSTORE POP DUP2 ADD SWAP1 PUSH2 0x3AD5 SWAP2 SWAP1 PUSH2 0x5DF6 JUMP JUMPDEST PUSH1 0x4 DUP1 SLOAD PUSH1 0x40 MLOAD PUSH32 0x7AB9E7FE00000000000000000000000000000000000000000000000000000000 DUP2 MSTORE PUSH1 0xFF DUP1 DUP11 AND SWAP4 DUP3 ADD SWAP4 SWAP1 SWAP4 MSTORE SWAP2 DUP8 AND PUSH1 0x24 DUP4 ADD MSTORE SWAP2 SWAP3 POP PUSH1 0x0 SWAP2 PUSH1 0x1 PUSH1 0x1 PUSH1 0xA0 SHL SUB AND SWAP1 PUSH4 0x7AB9E7FE SWAP1 PUSH1 0x44 ADD PUSH1 0x20 PUSH1 0x40 MLOAD DUP1 DUP4 SUB DUP2 DUP7 GAS STATICCALL ISZERO DUP1 ISZERO PUSH2 0x3B49 JUMPI RETURNDATASIZE PUSH1 0x0 DUP1 RETURNDATACOPY RETURNDATASIZE PUSH1 0x0 REVERT JUMPDEST POP POP POP POP PUSH1 0x40 MLOAD RETURNDATASIZE PUSH1 0x1F NOT PUSH1 0x1F DUP3 ADD AND DUP3 ADD DUP1 PUSH1 0x40 MSTORE POP DUP2 ADD SWAP1 PUSH2 0x3B6D SWAP2 SWAP1 PUSH2 0x5DF6 JUMP JUMPDEST SWAP1 POP PUSH2 0xFFFF DUP3 AND ISZERO DUP1 PUSH2 0x3B82 JUMPI POP PUSH2 0xFFFF DUP2 AND ISZERO JUMPDEST DUP1 PUSH2 0x3B95 JUMPI POP DUP1 PUSH2 0xFFFF AND DUP3 PUSH2 0xFFFF AND EQ ISZERO JUMPDEST PUSH2 0x3BE1 JUMPI PUSH1 0x40 MLOAD PUSH3 0x461BCD PUSH1 0xE5 SHL DUP2 MSTORE PUSH1 0x20 PUSH1 0x4 DUP3 ADD MSTORE PUSH1 0x1 PUSH1 0x24 DUP3 ADD MSTORE PUSH32 0x6300000000000000000000000000000000000000000000000000000000000000 PUSH1 0x44 DUP3 ADD MSTORE PUSH1 0x64 ADD PUSH2 0x8CD JUMP JUMPDEST PUSH1 0x0 PUSH2 0x3BED DUP9 DUP8 PUSH2 0x39AC JUMP JUMPDEST PUSH2 0x3BF7 DUP11 DUP10 PUSH2 0x39AC JUMP JUMPDEST PUSH2 0x3C01 SWAP2 SWAP1 PUSH2 0x5C90 JUMP JUMPDEST SWAP1 POP PUSH1 0x0 DUP2 PUSH1 0xFF AND GT DUP1 ISZERO PUSH2 0x3C1A JUMPI POP PUSH1 0x26 DUP2 PUSH1 0xFF AND GT ISZERO JUMPDEST PUSH2 0x3C68 JUMPI PUSH1 0x40 MLOAD PUSH3 0x461BCD PUSH1 0xE5 SHL DUP2 MSTORE PUSH1 0x4 ADD PUSH2 0x8CD SWAP1 PUSH1 0x20 DUP1 DUP3 MSTORE PUSH1 0x4 SWAP1 DUP3 ADD MSTORE PUSH32 0x2066617200000000000000000000000000000000000000000000000000000000 PUSH1 0x40 DUP3 ADD MSTORE PUSH1 0x60 ADD SWAP1 JUMP JUMPDEST PUSH1 0xFF DUP1 DUP11 AND PUSH1 0x0 SWAP1 DUP2 MSTORE PUSH1 0x8 PUSH1 0x20 SWAP1 DUP2 MSTORE PUSH1 0x40 DUP1 DUP4 KECCAK256 SWAP4 DUP13 AND DUP4 MSTORE SWAP3 SWAP1 MSTORE KECCAK256 SLOAD PUSH2 0x3C93 SWAP1 PUSH1 0x96 PUSH2 0x5B03 JUMP JUMPDEST PUSH1 0x1 SLOAD PUSH1 0x40 MLOAD PUSH32 0x41EDE44F00000000000000000000000000000000000000000000000000000000 DUP2 MSTORE PUSH1 0xFF DUP1 DUP14 AND PUSH1 0x4 DUP4 ADD MSTORE DUP12 AND PUSH1 0x24 DUP3 ADD MSTORE PUSH1 0x1 PUSH1 0x1 PUSH1 0xA0 SHL SUB SWAP1 SWAP2 AND SWAP1 PUSH4 0x41EDE44F SWAP1 PUSH1 0x44 ADD PUSH1 0x20 PUSH1 0x40 MLOAD DUP1 DUP4 SUB DUP2 DUP7 GAS STATICCALL ISZERO DUP1 ISZERO PUSH2 0x3CFF JUMPI RETURNDATASIZE PUSH1 0x0 DUP1 RETURNDATACOPY RETURNDATASIZE PUSH1 0x0 REVERT JUMPDEST POP POP POP POP PUSH1 0x40 MLOAD RETURNDATASIZE PUSH1 0x1F NOT PUSH1 0x1F DUP3 ADD AND DUP3 ADD DUP1 PUSH1 0x40 MSTORE POP DUP2 ADD SWAP1 PUSH2 0x3D23 SWAP2 SWAP1 PUSH2 0x5B9B JUMP JUMPDEST LT ISZERO PUSH2 0x3D55 JUMPI PUSH1 0x40 MLOAD PUSH3 0x461BCD PUSH1 0xE5 SHL DUP2 MSTORE PUSH1 0x20 PUSH1 0x4 DUP3 ADD MSTORE PUSH1 0x1 PUSH1 0x24 DUP3 ADD MSTORE PUSH1 0x1D PUSH1 0xFA SHL PUSH1 0x44 DUP3 ADD MSTORE PUSH1 0x64 ADD PUSH2 0x8CD JUMP JUMPDEST PUSH1 0xFF DUP1 DUP9 AND PUSH1 0x0 SWAP1 DUP2 MSTORE PUSH1 0x9 PUSH1 0x20 SWAP1 DUP2 MSTORE PUSH1 0x40 DUP1 DUP4 KECCAK256 SWAP4 DUP11 AND DUP4 MSTORE SWAP3 SWAP1 MSTORE KECCAK256 SLOAD PUSH2 0x3D81 SWAP1 PUSH2 0x12C PUSH2 0x5B03 JUMP JUMPDEST PUSH1 0x1 SLOAD PUSH1 0x40 MLOAD PUSH32 0x41EDE44F00000000000000000000000000000000000000000000000000000000 DUP2 MSTORE PUSH1 0xFF DUP1 DUP12 AND PUSH1 0x4 DUP4 ADD MSTORE DUP10 AND PUSH1 0x24 DUP3 ADD MSTORE PUSH1 0x1 PUSH1 0x1 PUSH1 0xA0 SHL SUB SWAP1 SWAP2 AND SWAP1 PUSH4 0x41EDE44F SWAP1 PUSH1 0x44 ADD PUSH1 0x20 PUSH1 0x40 MLOAD DUP1 DUP4 SUB DUP2 DUP7 GAS STATICCALL ISZERO DUP1 ISZERO PUSH2 0x3DED JUMPI RETURNDATASIZE PUSH1 0x0 DUP1 RETURNDATACOPY RETURNDATASIZE PUSH1 0x0 REVERT JUMPDEST POP POP POP POP PUSH1 0x40 MLOAD RETURNDATASIZE PUSH1 0x1F NOT PUSH1 0x1F DUP3 ADD AND DUP3 ADD DUP1 PUSH1 0x40 MSTORE POP DUP2 ADD SWAP1 PUSH2 0x3E11 SWAP2 SWAP1 PUSH2 0x5B9B JUMP JUMPDEST LT ISZERO PUSH2 0x3E5F JUMPI PUSH1 0x40 MLOAD PUSH3 0x461BCD PUSH1 0xE5 SHL DUP2 MSTORE PUSH1 0x20 PUSH1 0x4 DUP3 ADD MSTORE PUSH1 0x2 PUSH1 0x24 DUP3 ADD MSTORE PUSH32 0x6463000000000000000000000000000000000000000000000000000000000000 PUSH1 0x44 DUP3 ADD MSTORE PUSH1 0x64 ADD PUSH2 0x8CD JUMP JUMPDEST POP POP POP POP POP POP POP POP POP JUMP JUMPDEST PUSH1 0x0 DUP2 PUSH2 0x160 ADD MLOAD DUP3 PUSH2 0x140 ADD MLOAD PUSH2 0x3E82 SWAP2 SWAP1 PUSH2 0x5B03 JUMP JUMPDEST PUSH2 0x3E90 PUSH1 0xFF DUP6 AND PUSH1 0xA PUSH2 0x5C23 JUMP JUMPDEST PUSH2 0x3E9A SWAP2 SWAP1 PUSH2 0x5C23 JUMP JUMPDEST PUSH1 0x1 DUP1 SLOAD SWAP2 SWAP3 POP PUSH1 0x1 PUSH1 0x1 PUSH1 0xA0 SHL SUB SWAP1 SWAP2 AND SWAP1 PUSH4 0x3E5F2857 SWAP1 DUP8 SWAP1 DUP8 SWAP1 PUSH1 0x64 PUSH2 0x3EC4 DUP8 PUSH1 0x28 PUSH2 0x5C23 JUMP JUMPDEST PUSH2 0x3ECE SWAP2 SWAP1 PUSH2 0x5C3A JUMP JUMPDEST PUSH1 0x40 MLOAD PUSH32 0xFFFFFFFF00000000000000000000000000000000000000000000000000000000 PUSH1 0xE0 DUP8 SWAP1 SHL AND DUP2 MSTORE PUSH1 0xFF SWAP5 DUP6 AND PUSH1 0x4 DUP3 ADD MSTORE SWAP3 DUP5 AND PUSH1 0x24 DUP5 ADD MSTORE SWAP3 AND PUSH1 0x44 DUP3 ADD MSTORE PUSH1 0x64 DUP2 ADD SWAP2 SWAP1 SWAP2 MSTORE PUSH1 0x0 PUSH1 0x84 DUP3 ADD MSTORE PUSH1 0xA4 ADD PUSH1 0x0 PUSH1 0x40 MLOAD DUP1 DUP4 SUB DUP2 PUSH1 0x0 DUP8 DUP1 EXTCODESIZE ISZERO DUP1 ISZERO PUSH2 0x3F3F JUMPI PUSH1 0x0 DUP1 REVERT JUMPDEST POP GAS CALL ISZERO DUP1 ISZERO PUSH2 0x3F53 JUMPI RETURNDATASIZE PUSH1 0x0 DUP1 RETURNDATACOPY RETURNDATASIZE PUSH1 0x0 REVERT JUMPDEST POP POP PUSH1 0x1 SLOAD PUSH1 0x1 PUSH1 0x1 PUSH1 0xA0 SHL SUB AND SWAP2 POP PUSH4 0x3E5F2857 SWAP1 POP DUP7 DUP7 PUSH1 0x2 PUSH1 0x64 PUSH2 0x3F7B DUP8 PUSH1 0x1E PUSH2 0x5C23 JUMP JUMPDEST PUSH2 0x3F85 SWAP2 SWAP1 PUSH2 0x5C3A JUMP JUMPDEST PUSH1 0x40 MLOAD PUSH32 0xFFFFFFFF00000000000000000000000000000000000000000000000000000000 PUSH1 0xE0 DUP8 SWAP1 SHL AND DUP2 MSTORE PUSH1 0xFF SWAP5 DUP6 AND PUSH1 0x4 DUP3 ADD MSTORE SWAP3 DUP5 AND PUSH1 0x24 DUP5 ADD MSTORE SWAP3 AND PUSH1 0x44 DUP3 ADD MSTORE PUSH1 0x64 DUP2 ADD SWAP2 SWAP1 SWAP2 MSTORE PUSH1 0x0 PUSH1 0x84 DUP3 ADD MSTORE PUSH1 0xA4 ADD PUSH1 0x0 PUSH1 0x40 MLOAD DUP1 DUP4 SUB DUP2 PUSH1 0x0 DUP8 DUP1 EXTCODESIZE ISZERO DUP1 ISZERO PUSH2 0x3FF6 JUMPI PUSH1 0x0 DUP1 REVERT JUMPDEST POP GAS CALL ISZERO DUP1 ISZERO PUSH2 0x400A JUMPI RETURNDATASIZE PUSH1 0x0 DUP1 RETURNDATACOPY RETURNDATASIZE PUSH1 0x0 REVERT JUMPDEST POP POP PUSH1 0x1 SLOAD PUSH1 0x1 PUSH1 0x1 PUSH1 0xA0 SHL SUB AND SWAP2 POP PUSH4 0x3E5F2857 SWAP1 POP DUP7 DUP7 PUSH1 0x3 PUSH1 0x64 PUSH2 0x4032 DUP8 PUSH1 0x14 PUSH2 0x5C23 JUMP JUMPDEST PUSH2 0x403C SWAP2 SWAP1 PUSH2 0x5C3A JUMP JUMPDEST PUSH1 0x40 MLOAD PUSH32 0xFFFFFFFF00000000000000000000000000000000000000000000000000000000 PUSH1 0xE0 DUP8 SWAP1 SHL AND DUP2 MSTORE PUSH1 0xFF SWAP5 DUP6 AND PUSH1 0x4 DUP3 ADD MSTORE SWAP3 DUP5 AND PUSH1 0x24 DUP5 ADD MSTORE SWAP3 AND PUSH1 0x44 DUP3 ADD MSTORE PUSH1 0x64 DUP2 ADD SWAP2 SWAP1 SWAP2 MSTORE PUSH1 0x0 PUSH1 0x84 DUP3 ADD MSTORE PUSH1 0xA4 ADD PUSH1 0x0 PUSH1 0x40 MLOAD DUP1 DUP4 SUB DUP2 PUSH1 0x0 DUP8 DUP1 EXTCODESIZE ISZERO DUP1 ISZERO PUSH2 0x40AD JUMPI PUSH1 0x0 DUP1 REVERT JUMPDEST POP GAS CALL ISZERO DUP1 ISZERO PUSH2 0x40C1 JUMPI RETURNDATASIZE PUSH1 0x0 DUP1 RETURNDATACOPY RETURNDATASIZE PUSH1 0x0 REVERT JUMPDEST POP POP PUSH1 0x1 SLOAD PUSH1 0x1 PUSH1 0x1 PUSH1 0xA0 SHL SUB AND SWAP2 POP PUSH4 0x3E5F2857 SWAP1 POP DUP7 DUP7 PUSH1 0x4 PUSH1 0x64 PUSH2 0x40E9 DUP8 PUSH1 0xA PUSH2 0x5C23 JUMP JUMPDEST PUSH2 0x40F3 SWAP2 SWAP1 PUSH2 0x5C3A JUMP JUMPDEST PUSH1 0x40 MLOAD PUSH32 0xFFFFFFFF00000000000000000000000000000000000000000000000000000000 PUSH1 0xE0 DUP8 SWAP1 SHL AND DUP2 MSTORE PUSH1 0xFF SWAP5 DUP6 AND PUSH1 0x4 DUP3 ADD MSTORE SWAP3 DUP5 AND PUSH1 0x24 DUP5 ADD MSTORE SWAP3 AND PUSH1 0x44 DUP3 ADD MSTORE PUSH1 0x64 DUP2 ADD SWAP2 SWAP1 SWAP2 MSTORE PUSH1 0x0 PUSH1 0x84 DUP3 ADD MSTORE PUSH1 0xA4 ADD PUSH1 0x0 PUSH1 0x40 MLOAD DUP1 DUP4 SUB DUP2 PUSH1 0x0 DUP8 DUP1 EXTCODESIZE ISZERO DUP1 ISZERO PUSH2 0x4164 JUMPI PUSH1 0x0 DUP1 REVERT JUMPDEST POP GAS CALL ISZERO DUP1 ISZERO PUSH2 0x3E5F JUMPI RETURNDATASIZE PUSH1 0x0 DUP1 RETURNDATACOPY RETURNDATASIZE PUSH1 0x0 REVERT JUMPDEST PUSH1 0x1 SLOAD PUSH1 0x40 MLOAD PUSH32 0x2A490AE800000000000000000000000000000000000000000000000000000000 DUP2 MSTORE PUSH1 0xFF DUP1 DUP6 AND PUSH1 0x4 DUP4 ADD MSTORE DUP4 AND PUSH1 0x24 DUP3 ADD MSTORE PUSH1 0x0 SWAP2 DUP3 SWAP2 DUP3 SWAP2 PUSH1 0x1 PUSH1 0x1 PUSH1 0xA0 SHL SUB AND SWAP1 PUSH4 0x2A490AE8 SWAP1 PUSH1 0x44 ADD PUSH1 0x20 PUSH1 0x40 MLOAD DUP1 DUP4 SUB DUP2 DUP7 GAS STATICCALL ISZERO DUP1 ISZERO PUSH2 0x41E9 JUMPI RETURNDATASIZE PUSH1 0x0 DUP1 RETURNDATACOPY RETURNDATASIZE PUSH1 0x0 REVERT JUMPDEST POP POP POP POP PUSH1 0x40 MLOAD RETURNDATASIZE PUSH1 0x1F NOT PUSH1 0x1F DUP3 ADD AND DUP3 ADD DUP1 PUSH1 0x40 MSTORE POP DUP2 ADD SWAP1 PUSH2 0x420D SWAP2 SWAP1 PUSH2 0x5B9B JUMP JUMPDEST SWAP1 POP PUSH1 0x0 DUP8 PUSH1 0x80 ADD MLOAD PUSH2 0xFFFF AND DUP9 PUSH2 0x180 ADD MLOAD PUSH2 0xFFFF AND DUP10 PUSH2 0x160 ADD MLOAD DUP11 PUSH2 0x140 ADD MLOAD PUSH1 0x2 PUSH2 0x423C SWAP2 SWAP1 PUSH2 0x5C23 JUMP JUMPDEST PUSH2 0x4246 SWAP2 SWAP1 PUSH2 0x5B03 JUMP JUMPDEST PUSH2 0x4250 SWAP2 SWAP1 PUSH2 0x5B03 JUMP JUMPDEST PUSH2 0x425A SWAP2 SWAP1 PUSH2 0x5B03 JUMP JUMPDEST SWAP1 POP PUSH1 0x0 PUSH2 0x4269 DUP4 PUSH1 0x64 PUSH2 0x5C23 JUMP JUMPDEST DUP9 PUSH1 0x80 ADD MLOAD PUSH2 0xFFFF AND DUP10 PUSH2 0x1A0 ADD MLOAD PUSH2 0xFFFF AND DUP11 PUSH2 0x160 ADD MLOAD PUSH1 0x2 PUSH2 0x428E SWAP2 SWAP1 PUSH2 0x5C23 JUMP JUMPDEST DUP12 PUSH2 0x140 ADD MLOAD PUSH2 0x429E SWAP2 SWAP1 PUSH2 0x5B03 JUMP JUMPDEST PUSH2 0x42A8 SWAP2 SWAP1 PUSH2 0x5B03 JUMP JUMPDEST PUSH2 0x42B2 SWAP2 SWAP1 PUSH2 0x5B03 JUMP JUMPDEST PUSH2 0x42BC SWAP2 SWAP1 PUSH2 0x5B03 JUMP JUMPDEST SWAP2 SWAP10 SWAP2 SWAP9 POP SWAP1 SWAP7 POP POP POP POP POP POP POP JUMP JUMPDEST PUSH2 0x42F7 PUSH1 0x40 MLOAD DUP1 PUSH1 0x80 ADD PUSH1 0x40 MSTORE DUP1 PUSH1 0x0 DUP2 MSTORE PUSH1 0x20 ADD PUSH1 0x0 DUP2 MSTORE PUSH1 0x20 ADD PUSH1 0x0 DUP2 MSTORE PUSH1 0x20 ADD PUSH1 0x0 DUP2 MSTORE POP SWAP1 JUMP JUMPDEST PUSH1 0x0 PUSH2 0x4315 DUP4 PUSH1 0x80 ADD MLOAD DUP5 PUSH1 0xA0 ADD MLOAD DUP6 PUSH1 0xC0 ADD MLOAD DUP7 PUSH1 0xE0 ADD MLOAD PUSH2 0x4F52 JUMP JUMPDEST DUP1 MLOAD SWAP1 SWAP2 POP ISZERO PUSH2 0x43A6 JUMPI PUSH1 0x1 SLOAD DUP4 MLOAD PUSH1 0x20 DUP6 ADD MLOAD DUP4 MLOAD PUSH1 0x40 MLOAD PUSH4 0x3E5F2857 PUSH1 0xE0 SHL DUP2 MSTORE PUSH1 0xFF SWAP4 DUP5 AND PUSH1 0x4 DUP3 ADD MSTORE SWAP3 SWAP1 SWAP2 AND PUSH1 0x24 DUP4 ADD MSTORE PUSH1 0x9 PUSH1 0x44 DUP4 ADD MSTORE PUSH1 0x64 DUP3 ADD MSTORE PUSH1 0x0 PUSH1 0x84 DUP3 ADD MSTORE PUSH1 0x1 PUSH1 0x1 PUSH1 0xA0 SHL SUB SWAP1 SWAP2 AND SWAP1 PUSH4 0x3E5F2857 SWAP1 PUSH1 0xA4 ADD PUSH1 0x0 PUSH1 0x40 MLOAD DUP1 DUP4 SUB DUP2 PUSH1 0x0 DUP8 DUP1 EXTCODESIZE ISZERO DUP1 ISZERO PUSH2 0x438D JUMPI PUSH1 0x0 DUP1 REVERT JUMPDEST POP GAS CALL ISZERO DUP1 ISZERO PUSH2 0x43A1 JUMPI RETURNDATASIZE PUSH1 0x0 DUP1 RETURNDATACOPY RETURNDATASIZE PUSH1 0x0 REVERT JUMPDEST POP POP POP POP JUMPDEST PUSH1 0x20 DUP2 ADD MLOAD ISZERO PUSH2 0x443A JUMPI PUSH1 0x1 SLOAD DUP4 MLOAD PUSH1 0x20 DUP1 DUP7 ADD MLOAD SWAP1 DUP5 ADD MLOAD PUSH1 0x40 MLOAD PUSH4 0x3E5F2857 PUSH1 0xE0 SHL DUP2 MSTORE PUSH1 0xFF SWAP4 DUP5 AND PUSH1 0x4 DUP3 ADD MSTORE SWAP3 SWAP1 SWAP2 AND PUSH1 0x24 DUP4 ADD MSTORE PUSH1 0xA PUSH1 0x44 DUP4 ADD MSTORE PUSH1 0x64 DUP3 ADD MSTORE PUSH1 0x0 PUSH1 0x84 DUP3 ADD MSTORE PUSH1 0x1 PUSH1 0x1 PUSH1 0xA0 SHL SUB SWAP1 SWAP2 AND SWAP1 PUSH4 0x3E5F2857 SWAP1 PUSH1 0xA4 ADD PUSH1 0x0 PUSH1 0x40 MLOAD DUP1 DUP4 SUB DUP2 PUSH1 0x0 DUP8 DUP1 EXTCODESIZE ISZERO DUP1 ISZERO PUSH2 0x4421 JUMPI PUSH1 0x0 DUP1 REVERT JUMPDEST POP GAS CALL ISZERO DUP1 ISZERO PUSH2 0x4435 JUMPI RETURNDATASIZE PUSH1 0x0 DUP1 RETURNDATACOPY RETURNDATASIZE PUSH1 0x0 REVERT JUMPDEST POP POP POP POP JUMPDEST PUSH1 0x40 DUP2 ADD MLOAD ISZERO PUSH2 0x44D1 JUMPI PUSH1 0x1 SLOAD PUSH1 0x40 DUP5 DUP2 ADD MLOAD PUSH1 0x60 DUP7 ADD MLOAD DUP5 DUP4 ADD MLOAD SWAP3 MLOAD PUSH4 0x3E5F2857 PUSH1 0xE0 SHL DUP2 MSTORE PUSH1 0xFF SWAP3 DUP4 AND PUSH1 0x4 DUP3 ADD MSTORE SWAP2 AND PUSH1 0x24 DUP3 ADD MSTORE PUSH1 0x9 PUSH1 0x44 DUP3 ADD MSTORE PUSH1 0x64 DUP2 ADD SWAP2 SWAP1 SWAP2 MSTORE PUSH1 0x0 PUSH1 0x84 DUP3 ADD MSTORE PUSH1 0x1 PUSH1 0x1 PUSH1 0xA0 SHL SUB SWAP1 SWAP2 AND SWAP1 PUSH4 0x3E5F2857 SWAP1 PUSH1 0xA4 ADD PUSH1 0x0 PUSH1 0x40 MLOAD DUP1 DUP4 SUB DUP2 PUSH1 0x0 DUP8 DUP1 EXTCODESIZE ISZERO DUP1 ISZERO PUSH2 0x44B8 JUMPI PUSH1 0x0 DUP1 REVERT JUMPDEST POP GAS CALL ISZERO DUP1 ISZERO PUSH2 0x44CC JUMPI RETURNDATASIZE PUSH1 0x0 DUP1 RETURNDATACOPY RETURNDATASIZE PUSH1 0x0 REVERT JUMPDEST POP POP POP POP JUMPDEST PUSH1 0x60 DUP2 ADD MLOAD ISZERO PUSH2 0x39D7 JUMPI PUSH1 0x1 SLOAD PUSH1 0x40 DUP5 DUP2 ADD MLOAD PUSH1 0x60 DUP1 DUP8 ADD MLOAD SWAP1 DUP6 ADD MLOAD SWAP3 MLOAD PUSH4 0x3E5F2857 PUSH1 0xE0 SHL DUP2 MSTORE PUSH1 0xFF SWAP3 DUP4 AND PUSH1 0x4 DUP3 ADD MSTORE SWAP2 AND PUSH1 0x24 DUP3 ADD MSTORE PUSH1 0xA PUSH1 0x44 DUP3 ADD MSTORE PUSH1 0x64 DUP2 ADD SWAP2 SWAP1 SWAP2 MSTORE PUSH1 0x0 PUSH1 0x84 DUP3 ADD MSTORE PUSH1 0x1 PUSH1 0x1 PUSH1 0xA0 SHL SUB SWAP1 SWAP2 AND SWAP1 PUSH4 0x3E5F2857 SWAP1 PUSH1 0xA4 ADD PUSH1 0x0 PUSH1 0x40 MLOAD DUP1 DUP4 SUB DUP2 PUSH1 0x0 DUP8 DUP1 EXTCODESIZE ISZERO DUP1 ISZERO PUSH2 0x4550 JUMPI PUSH1 0x0 DUP1 REVERT JUMPDEST POP GAS CALL ISZERO DUP1 ISZERO PUSH2 0x4564 JUMPI RETURNDATASIZE PUSH1 0x0 DUP1 RETURNDATACOPY RETURNDATASIZE PUSH1 0x0 REVERT JUMPDEST POP POP POP POP SWAP3 SWAP2 POP POP JUMP JUMPDEST PUSH1 0x0 DUP1 DUP3 PUSH1 0xE0 ADD MLOAD DUP4 PUSH1 0xC0 ADD MLOAD GT PUSH2 0x4599 JUMPI DUP3 PUSH1 0xC0 ADD MLOAD DUP4 PUSH1 0xE0 ADD MLOAD PUSH2 0x4594 SWAP2 SWAP1 PUSH2 0x5A61 JUMP JUMPDEST PUSH2 0x45AD JUMP JUMPDEST DUP3 PUSH1 0xE0 ADD MLOAD DUP4 PUSH1 0xC0 ADD MLOAD PUSH2 0x45AD SWAP2 SWAP1 PUSH2 0x5A61 JUMP JUMPDEST SWAP1 POP PUSH1 0x0 DUP4 PUSH1 0xE0 ADD MLOAD DUP5 PUSH1 0xC0 ADD MLOAD PUSH2 0x45C5 SWAP2 SWAP1 PUSH2 0x5B03 JUMP JUMPDEST SWAP1 POP PUSH1 0x0 DUP2 GT PUSH2 0x4619 JUMPI PUSH1 0x40 MLOAD PUSH3 0x461BCD PUSH1 0xE5 SHL DUP2 MSTORE PUSH1 0x4 ADD PUSH2 0x8CD SWAP1 PUSH1 0x20 DUP1 DUP3 MSTORE PUSH1 0x4 SWAP1 DUP3 ADD MSTORE PUSH32 0x7A65726F00000000000000000000000000000000000000000000000000000000 PUSH1 0x40 DUP3 ADD MSTORE PUSH1 0x60 ADD SWAP1 JUMP JUMPDEST PUSH1 0x0 DUP2 PUSH2 0x4627 DUP5 PUSH1 0x64 PUSH2 0x5C23 JUMP JUMPDEST PUSH2 0x4631 SWAP2 SWAP1 PUSH2 0x5C3A JUMP JUMPDEST SWAP1 POP PUSH1 0x0 PUSH2 0x464C PUSH2 0x4643 DUP4 PUSH1 0x1E PUSH2 0x5B03 JUMP JUMPDEST PUSH1 0xA PUSH1 0x3C PUSH2 0x51EE JUMP JUMPDEST SWAP1 POP PUSH2 0x4676 PUSH1 0x1 DUP8 PUSH1 0xA0 ADD MLOAD PUSH1 0x0 ADD MLOAD DUP9 PUSH1 0x0 ADD MLOAD DUP10 PUSH1 0x20 ADD MLOAD DUP11 PUSH1 0x40 ADD MLOAD DUP12 PUSH1 0x60 ADD MLOAD DUP8 PUSH2 0x5218 JUMP JUMPDEST PUSH2 0x4680 SWAP1 DUP7 PUSH2 0x5B03 JUMP JUMPDEST SWAP5 POP PUSH2 0x46AA PUSH1 0x2 DUP8 PUSH1 0xA0 ADD MLOAD PUSH1 0x20 ADD MLOAD DUP9 PUSH1 0x0 ADD MLOAD DUP10 PUSH1 0x20 ADD MLOAD DUP11 PUSH1 0x40 ADD MLOAD DUP12 PUSH1 0x60 ADD MLOAD DUP8 PUSH2 0x5218 JUMP JUMPDEST PUSH2 0x46B4 SWAP1 DUP7 PUSH2 0x5B03 JUMP JUMPDEST SWAP5 POP PUSH2 0x46DE PUSH1 0x3 DUP8 PUSH1 0xA0 ADD MLOAD PUSH1 0x40 ADD MLOAD DUP9 PUSH1 0x0 ADD MLOAD DUP10 PUSH1 0x20 ADD MLOAD DUP11 PUSH1 0x40 ADD MLOAD DUP12 PUSH1 0x60 ADD MLOAD DUP8 PUSH2 0x5218 JUMP JUMPDEST PUSH2 0x46E8 SWAP1 DUP7 PUSH2 0x5B03 JUMP JUMPDEST SWAP5 POP PUSH2 0x4712 PUSH1 0x4 DUP8 PUSH1 0xA0 ADD MLOAD PUSH1 0x60 ADD MLOAD DUP9 PUSH1 0x0 ADD MLOAD DUP10 PUSH1 0x20 ADD MLOAD DUP11 PUSH1 0x40 ADD MLOAD DUP12 PUSH1 0x60 ADD MLOAD DUP8 PUSH2 0x5218 JUMP JUMPDEST PUSH2 0x471C SWAP1 DUP7 PUSH2 0x5B03 JUMP JUMPDEST SWAP7 SWAP6 POP POP POP POP POP POP JUMP JUMPDEST PUSH1 0x1 SLOAD DUP5 MLOAD PUSH1 0x20 DUP7 ADD MLOAD PUSH1 0x40 MLOAD PUSH32 0x41EDE44F00000000000000000000000000000000000000000000000000000000 DUP2 MSTORE PUSH1 0xFF SWAP3 DUP4 AND PUSH1 0x4 DUP3 ADD MSTORE SWAP2 AND PUSH1 0x24 DUP3 ADD MSTORE PUSH1 0x1 PUSH1 0x1 PUSH1 0xA0 SHL SUB SWAP1 SWAP2 AND SWAP1 PUSH4 0x41EDE44F SWAP1 PUSH1 0x44 ADD PUSH1 0x20 PUSH1 0x40 MLOAD DUP1 DUP4 SUB DUP2 DUP7 GAS STATICCALL ISZERO DUP1 ISZERO PUSH2 0x4799 JUMPI RETURNDATASIZE PUSH1 0x0 DUP1 RETURNDATACOPY RETURNDATASIZE PUSH1 0x0 REVERT JUMPDEST POP POP POP POP PUSH1 0x40 MLOAD RETURNDATASIZE PUSH1 0x1F NOT PUSH1 0x1F DUP3 ADD AND DUP3 ADD DUP1 PUSH1 0x40 MSTORE POP DUP2 ADD SWAP1 PUSH2 0x47BD SWAP2 SWAP1 PUSH2 0x5B9B JUMP JUMPDEST DUP5 MLOAD PUSH1 0xFF SWAP1 DUP2 AND PUSH1 0x0 SWAP1 DUP2 MSTORE PUSH1 0x8 PUSH1 0x20 SWAP1 DUP2 MSTORE PUSH1 0x40 DUP1 DUP4 KECCAK256 DUP3 DUP11 ADD MLOAD SWAP1 SWAP5 AND DUP4 MSTORE SWAP3 SWAP1 MSTORE DUP2 SWAP1 KECCAK256 SWAP2 SWAP1 SWAP2 SSTORE DUP4 ADD MLOAD ISZERO PUSH2 0x48B5 JUMPI PUSH1 0x1 SLOAD PUSH1 0x40 DUP6 DUP2 ADD MLOAD PUSH1 0x60 DUP8 ADD MLOAD SWAP2 MLOAD PUSH32 0x41EDE44F00000000000000000000000000000000000000000000000000000000 DUP2 MSTORE PUSH1 0xFF SWAP2 DUP3 AND PUSH1 0x4 DUP3 ADD MSTORE SWAP2 AND PUSH1 0x24 DUP3 ADD MSTORE PUSH1 0x1 PUSH1 0x1 PUSH1 0xA0 SHL SUB SWAP1 SWAP2 AND SWAP1 PUSH4 0x41EDE44F SWAP1 PUSH1 0x44 ADD PUSH1 0x20 PUSH1 0x40 MLOAD DUP1 DUP4 SUB DUP2 DUP7 GAS STATICCALL ISZERO DUP1 ISZERO PUSH2 0x4866 JUMPI RETURNDATASIZE PUSH1 0x0 DUP1 RETURNDATACOPY RETURNDATASIZE PUSH1 0x0 REVERT JUMPDEST POP POP POP POP PUSH1 0x40 MLOAD RETURNDATASIZE PUSH1 0x1F NOT PUSH1 0x1F DUP3 ADD AND DUP3 ADD DUP1 PUSH1 0x40 MSTORE POP DUP2 ADD SWAP1 PUSH2 0x488A SWAP2 SWAP1 PUSH2 0x5B9B JUMP JUMPDEST PUSH1 0x40 DUP1 DUP7 ADD MLOAD PUSH1 0xFF SWAP1 DUP2 AND PUSH1 0x0 SWAP1 DUP2 MSTORE PUSH1 0x9 PUSH1 0x20 SWAP1 DUP2 MSTORE DUP4 DUP3 KECCAK256 PUSH1 0x60 DUP11 ADD MLOAD SWAP1 SWAP4 AND DUP3 MSTORE SWAP2 SWAP1 SWAP2 MSTORE KECCAK256 SSTORE JUMPDEST PUSH1 0x1 SLOAD DUP5 MLOAD PUSH1 0x20 DUP7 ADD MLOAD PUSH1 0x40 MLOAD PUSH32 0x7659BC6000000000000000000000000000000000000000000000000000000000 DUP2 MSTORE PUSH1 0xFF SWAP3 DUP4 AND PUSH1 0x4 DUP3 ADD MSTORE SWAP2 AND PUSH1 0x24 DUP3 ADD MSTORE PUSH1 0x1 PUSH1 0x1 PUSH1 0xA0 SHL SUB SWAP1 SWAP2 AND SWAP1 PUSH4 0x7659BC60 SWAP1 PUSH1 0x44 ADD PUSH1 0x0 PUSH1 0x40 MLOAD DUP1 DUP4 SUB DUP2 PUSH1 0x0 DUP8 DUP1 EXTCODESIZE ISZERO DUP1 ISZERO PUSH2 0x4925 JUMPI PUSH1 0x0 DUP1 REVERT JUMPDEST POP GAS CALL ISZERO DUP1 ISZERO PUSH2 0x4939 JUMPI RETURNDATASIZE PUSH1 0x0 DUP1 RETURNDATACOPY RETURNDATASIZE PUSH1 0x0 REVERT JUMPDEST POP POP PUSH1 0x1 SLOAD PUSH1 0x40 DUP8 DUP2 ADD MLOAD PUSH1 0x60 DUP10 ADD MLOAD SWAP2 MLOAD PUSH32 0x7659BC6000000000000000000000000000000000000000000000000000000000 DUP2 MSTORE PUSH1 0xFF SWAP2 DUP3 AND PUSH1 0x4 DUP3 ADD MSTORE SWAP2 AND PUSH1 0x24 DUP3 ADD MSTORE PUSH1 0x1 PUSH1 0x1 PUSH1 0xA0 SHL SUB SWAP1 SWAP2 AND SWAP3 POP PUSH4 0x7659BC60 SWAP2 POP PUSH1 0x44 ADD PUSH1 0x0 PUSH1 0x40 MLOAD DUP1 DUP4 SUB DUP2 PUSH1 0x0 DUP8 DUP1 EXTCODESIZE ISZERO DUP1 ISZERO PUSH2 0x49B0 JUMPI PUSH1 0x0 DUP1 REVERT JUMPDEST POP GAS CALL ISZERO DUP1 ISZERO PUSH2 0x49C4 JUMPI RETURNDATASIZE PUSH1 0x0 DUP1 RETURNDATACOPY RETURNDATASIZE PUSH1 0x0 REVERT JUMPDEST POP POP POP PUSH1 0x40 DUP1 DUP6 ADD MLOAD PUSH1 0x4 DUP1 SLOAD DUP9 MLOAD PUSH1 0x20 DUP11 ADD MLOAD SWAP5 MLOAD PUSH32 0x9CEC519400000000000000000000000000000000000000000000000000000000 DUP2 MSTORE SWAP4 SWAP6 POP PUSH1 0x0 SWAP5 PUSH1 0x1 PUSH1 0x1 PUSH1 0xA0 SHL SUB SWAP1 SWAP3 AND SWAP4 PUSH4 0x9CEC5194 SWAP4 PUSH2 0x4A2F SWAP4 SWAP2 ADD PUSH1 0xFF SWAP3 DUP4 AND DUP2 MSTORE SWAP2 AND PUSH1 0x20 DUP3 ADD MSTORE PUSH1 0x40 ADD SWAP1 JUMP JUMPDEST PUSH1 0x0 PUSH1 0x40 MLOAD DUP1 DUP4 SUB DUP2 DUP7 GAS STATICCALL ISZERO DUP1 ISZERO PUSH2 0x4A4C JUMPI RETURNDATASIZE PUSH1 0x0 DUP1 RETURNDATACOPY RETURNDATASIZE PUSH1 0x0 REVERT JUMPDEST POP POP POP POP PUSH1 0x40 MLOAD RETURNDATASIZE PUSH1 0x0 DUP3 RETURNDATACOPY PUSH1 0x1F RETURNDATASIZE SWAP1 DUP2 ADD PUSH1 0x1F NOT AND DUP3 ADD PUSH1 0x40 MSTORE PUSH2 0x4A74 SWAP2 SWAP1 DUP2 ADD SWAP1 PUSH2 0x5E13 JUMP JUMPDEST PUSH1 0x4 DUP1 SLOAD PUSH1 0x40 DUP10 DUP2 ADD MLOAD PUSH1 0x60 DUP12 ADD MLOAD SWAP2 MLOAD PUSH32 0x9CEC519400000000000000000000000000000000000000000000000000000000 DUP2 MSTORE PUSH1 0xFF SWAP2 DUP3 AND SWAP5 DUP2 ADD SWAP5 SWAP1 SWAP5 MSTORE AND PUSH1 0x24 DUP4 ADD MSTORE SWAP2 SWAP3 POP PUSH1 0x0 SWAP2 PUSH1 0x1 PUSH1 0x1 PUSH1 0xA0 SHL SUB AND SWAP1 PUSH4 0x9CEC5194 SWAP1 PUSH1 0x44 ADD PUSH1 0x0 PUSH1 0x40 MLOAD DUP1 DUP4 SUB DUP2 DUP7 GAS STATICCALL ISZERO DUP1 ISZERO PUSH2 0x4AF0 JUMPI RETURNDATASIZE PUSH1 0x0 DUP1 RETURNDATACOPY RETURNDATASIZE PUSH1 0x0 REVERT JUMPDEST POP POP POP POP PUSH1 0x40 MLOAD RETURNDATASIZE PUSH1 0x0 DUP3 RETURNDATACOPY PUSH1 0x1F RETURNDATASIZE SWAP1 DUP2 ADD PUSH1 0x1F NOT AND DUP3 ADD PUSH1 0x40 MSTORE PUSH2 0x4B18 SWAP2 SWAP1 DUP2 ADD SWAP1 PUSH2 0x5E13 JUMP JUMPDEST SWAP1 POP PUSH1 0xA PUSH1 0x40 MLOAD DUP1 PUSH2 0x1A0 ADD PUSH1 0x40 MSTORE DUP1 DUP10 PUSH1 0x0 ADD MLOAD PUSH1 0xFF AND DUP2 MSTORE PUSH1 0x20 ADD DUP10 PUSH1 0x20 ADD MLOAD PUSH1 0xFF AND DUP2 MSTORE PUSH1 0x20 ADD DUP10 PUSH1 0x40 ADD MLOAD PUSH1 0xFF AND DUP2 MSTORE PUSH1 0x20 ADD DUP10 PUSH1 0x60 ADD MLOAD PUSH1 0xFF AND DUP2 MSTORE PUSH1 0x20 ADD TIMESTAMP DUP2 MSTORE PUSH1 0x20 ADD DUP9 PUSH1 0x40 ADD MLOAD ISZERO ISZERO DUP2 MSTORE PUSH1 0x20 ADD DUP10 PUSH1 0x80 ADD MLOAD PUSH2 0x160 ADD MLOAD DUP11 PUSH1 0x80 ADD MLOAD PUSH2 0x140 ADD MLOAD PUSH2 0x4B8C SWAP2 SWAP1 PUSH2 0x5B03 JUMP JUMPDEST DUP2 MSTORE DUP9 MLOAD PUSH1 0x20 DUP2 DUP2 ADD MLOAD SWAP2 MLOAD SWAP3 ADD SWAP2 PUSH2 0x4BA5 SWAP2 SWAP1 PUSH2 0x5B03 JUMP JUMPDEST DUP2 MSTORE PUSH1 0x20 ADD DUP10 PUSH1 0xC0 ADD MLOAD DUP2 MSTORE PUSH1 0x20 ADD DUP10 PUSH1 0xA0 ADD MLOAD PUSH2 0x160 ADD MLOAD DUP11 PUSH1 0xA0 ADD MLOAD PUSH2 0x140 ADD MLOAD PUSH2 0x4BD2 SWAP2 SWAP1 PUSH2 0x5B03 JUMP JUMPDEST DUP2 MSTORE PUSH1 0x20 ADD DUP9 PUSH1 0x0 ADD MLOAD PUSH1 0x60 ADD MLOAD DUP10 PUSH1 0x0 ADD MLOAD PUSH1 0x40 ADD MLOAD PUSH2 0x4BF3 SWAP2 SWAP1 PUSH2 0x5B03 JUMP JUMPDEST DUP2 MSTORE PUSH1 0xE0 DUP11 DUP2 ADD MLOAD PUSH1 0x20 DUP1 DUP5 ADD SWAP2 SWAP1 SWAP2 MSTORE DUP11 DUP2 ADD MLOAD PUSH1 0x40 SWAP4 DUP5 ADD MSTORE DUP5 SLOAD PUSH1 0x1 DUP1 DUP3 ADD DUP8 SSTORE PUSH1 0x0 SWAP7 DUP8 MSTORE DUP3 DUP8 KECCAK256 DUP7 MLOAD PUSH1 0xA SWAP1 SWAP4 MUL ADD DUP1 SLOAD DUP8 DUP6 ADD MLOAD DUP9 DUP9 ADD MLOAD PUSH1 0x60 DUP11 ADD MLOAD PUSH1 0xFF SWAP7 DUP8 AND PUSH2 0xFFFF NOT SWAP1 SWAP5 AND SWAP4 SWAP1 SWAP4 OR PUSH2 0x100 SWAP3 DUP8 AND DUP4 MUL OR PUSH32 0xFFFFFFFFFFFFFFFFFFFFFFFFFFFFFFFFFFFFFFFFFFFFFFFFFFFFFFFF0000FFFF AND PUSH3 0x10000 SWAP2 DUP8 AND SWAP2 SWAP1 SWAP2 MUL PUSH32 0xFFFFFFFFFFFFFFFFFFFFFFFFFFFFFFFFFFFFFFFFFFFFFFFFFFFFFFFF00FFFFFF AND OR PUSH4 0x1000000 SWAP6 SWAP1 SWAP3 AND SWAP5 SWAP1 SWAP5 MUL OR DUP2 SSTORE PUSH1 0x80 DUP8 ADD MLOAD DUP2 DUP4 ADD SSTORE PUSH1 0xA0 DUP8 ADD MLOAD PUSH1 0x2 DUP1 DUP4 ADD DUP1 SLOAD PUSH1 0xFF NOT AND SWAP3 ISZERO ISZERO SWAP3 SWAP1 SWAP3 OR SWAP1 SWAP2 SSTORE PUSH1 0xC0 DUP9 ADD MLOAD PUSH1 0x3 DUP4 ADD SSTORE SWAP5 DUP8 ADD MLOAD PUSH1 0x4 DUP3 ADD SSTORE SWAP2 DUP7 ADD MLOAD PUSH1 0x5 DUP4 ADD SSTORE PUSH2 0x120 DUP7 ADD MLOAD PUSH1 0x6 DUP4 ADD SSTORE PUSH2 0x140 DUP7 ADD MLOAD PUSH1 0x7 DUP4 ADD SSTORE PUSH2 0x160 DUP7 ADD MLOAD PUSH1 0x8 DUP4 ADD SSTORE PUSH2 0x180 SWAP1 SWAP6 ADD MLOAD PUSH1 0x9 SWAP1 SWAP2 ADD SSTORE DUP3 MLOAD DUP1 DUP5 ADD SWAP1 SWAP4 MSTORE DUP7 DUP4 MSTORE DUP3 ADD DUP6 SWAP1 MSTORE PUSH1 0xB DUP1 SLOAD SWAP4 DUP5 ADD DUP2 SSTORE SWAP1 SWAP4 MSTORE DUP1 MLOAD SWAP1 SWAP3 PUSH32 0x175B7A638427703F0DBE7BB9BBF987A2551717B34E79F33B5B1008D1FA01DB9 SWAP3 MUL SWAP2 SWAP1 SWAP2 ADD SWAP1 DUP2 SWAP1 PUSH2 0x4D70 SWAP1 DUP3 PUSH2 0x5EFB JUMP JUMPDEST POP PUSH1 0x20 DUP3 ADD MLOAD PUSH1 0x1 DUP3 ADD SWAP1 PUSH2 0x4D85 SWAP1 DUP3 PUSH2 0x5EFB JUMP JUMPDEST POP POP PUSH1 0xA SLOAD PUSH1 0x0 SWAP2 POP PUSH2 0x4D9A SWAP1 PUSH1 0x1 SWAP1 PUSH2 0x5A61 JUMP JUMPDEST SWAP1 POP PUSH1 0xC PUSH1 0x0 PUSH2 0x4DBE DUP11 PUSH1 0x0 ADD MLOAD DUP12 PUSH1 0x20 ADD MLOAD PUSH1 0xFF AND PUSH1 0x8 SWAP2 SWAP1 SWAP2 SHL PUSH2 0xFF00 AND OR SWAP1 JUMP JUMPDEST PUSH2 0xFFFF AND DUP2 MSTORE PUSH1 0x20 DUP1 DUP3 ADD SWAP3 SWAP1 SWAP3 MSTORE PUSH1 0x40 SWAP1 DUP2 ADD PUSH1 0x0 SWAP1 DUP2 KECCAK256 DUP1 SLOAD PUSH1 0x1 DUP2 ADD DUP3 SSTORE SWAP1 DUP3 MSTORE SWAP3 DUP2 KECCAK256 SWAP1 SWAP3 ADD DUP4 SWAP1 SSTORE DUP10 ADD MLOAD PUSH1 0x60 DUP11 ADD MLOAD PUSH1 0xC SWAP3 SWAP2 PUSH2 0x4E0C SWAP2 PUSH1 0xFF AND PUSH1 0x8 SWAP2 SWAP1 SWAP2 SHL PUSH2 0xFF00 AND OR SWAP1 JUMP JUMPDEST PUSH2 0xFFFF AND DUP2 MSTORE PUSH1 0x20 DUP1 DUP3 ADD SWAP3 SWAP1 SWAP3 MSTORE PUSH1 0x40 SWAP1 DUP2 ADD PUSH1 0x0 SWAP1 DUP2 KECCAK256 DUP1 SLOAD PUSH1 0x1 DUP2 ADD DUP3 SSTORE SWAP1 DUP3 MSTORE SWAP1 DUP4 SWAP1 KECCAK256 ADD DUP4 SWAP1 SSTORE DUP10 MLOAD DUP11 DUP4 ADD MLOAD DUP12 DUP4 ADD MLOAD PUSH1 0x60 DUP1 DUP15 ADD MLOAD DUP6 MLOAD PUSH1 0xFF SWAP6 DUP7 AND DUP2 MSTORE SWAP4 DUP6 AND SWAP7 DUP5 ADD SWAP7 SWAP1 SWAP7 MSTORE SWAP1 DUP4 AND DUP3 DUP6 ADD MSTORE SWAP2 SWAP1 SWAP4 AND SWAP1 DUP4 ADD MSTORE DUP6 ISZERO ISZERO PUSH1 0x80 DUP4 ADD MSTORE MLOAD PUSH1 0x1 PUSH1 0x1 PUSH1 0xA0 SHL SUB DUP8 DUP2 AND SWAP3 SWAP1 DUP10 AND SWAP2 PUSH32 0x47389018A4BFD5E1EF612F1FE9082CC3E3675BE36E77743A6BFAF0EA011D586F SWAP2 DUP2 SWAP1 SUB PUSH1 0xA0 ADD SWAP1 LOG3 POP POP POP POP POP POP POP POP JUMP JUMPDEST PUSH1 0xFF DUP2 DUP2 AND PUSH1 0x8 DUP5 SWAP1 SHL PUSH2 0xFF00 AND OR PUSH1 0x0 DUP2 DUP2 MSTORE PUSH1 0x6 PUSH1 0x20 MSTORE PUSH1 0x40 SWAP1 KECCAK256 SLOAD SWAP1 SWAP2 PUSH1 0x5 SWAP2 AND LT PUSH2 0x4F28 JUMPI PUSH1 0x40 MLOAD PUSH3 0x461BCD PUSH1 0xE5 SHL DUP2 MSTORE PUSH1 0x20 PUSH1 0x4 DUP3 ADD MSTORE PUSH1 0x1 PUSH1 0x24 DUP3 ADD MSTORE PUSH32 0x3500000000000000000000000000000000000000000000000000000000000000 PUSH1 0x44 DUP3 ADD MSTORE PUSH1 0x64 ADD PUSH2 0x8CD JUMP JUMPDEST PUSH2 0xFFFF AND PUSH1 0x0 SWAP1 DUP2 MSTORE PUSH1 0x6 PUSH1 0x20 MSTORE PUSH1 0x40 SWAP1 KECCAK256 DUP1 SLOAD PUSH1 0xFF DUP1 DUP3 AND PUSH1 0x1 ADD AND PUSH1 0xFF NOT SWAP1 SWAP2 AND OR SWAP1 SSTORE POP POP JUMP JUMPDEST PUSH2 0x4F7D PUSH1 0x40 MLOAD DUP1 PUSH1 0x80 ADD PUSH1 0x40 MSTORE DUP1 PUSH1 0x0 DUP2 MSTORE PUSH1 0x20 ADD PUSH1 0x0 DUP2 MSTORE PUSH1 0x20 ADD PUSH1 0x0 DUP2 MSTORE PUSH1 0x20 ADD PUSH1 0x0 DUP2 MSTORE POP SWAP1 JUMP JUMPDEST PUSH1 0x0 DUP3 DUP5 GT PUSH2 0x4F95 JUMPI PUSH2 0x4F90 DUP5 DUP5 PUSH2 0x5A61 JUMP JUMPDEST PUSH2 0x4F9F JUMP JUMPDEST PUSH2 0x4F9F DUP4 DUP6 PUSH2 0x5A61 JUMP JUMPDEST SWAP1 POP PUSH1 0x0 PUSH2 0x4FAD DUP5 DUP7 PUSH2 0x5B03 JUMP JUMPDEST SWAP1 POP PUSH1 0x0 DUP2 GT PUSH2 0x5001 JUMPI PUSH1 0x40 MLOAD PUSH3 0x461BCD PUSH1 0xE5 SHL DUP2 MSTORE PUSH1 0x4 ADD PUSH2 0x8CD SWAP1 PUSH1 0x20 DUP1 DUP3 MSTORE PUSH1 0x4 SWAP1 DUP3 ADD MSTORE PUSH32 0x7A65726F00000000000000000000000000000000000000000000000000000000 PUSH1 0x40 DUP3 ADD MSTORE PUSH1 0x60 ADD SWAP1 JUMP JUMPDEST PUSH1 0x0 DUP2 PUSH2 0x500F DUP5 PUSH1 0x64 PUSH2 0x5C23 JUMP JUMPDEST PUSH2 0x5019 SWAP2 SWAP1 PUSH2 0x5C3A JUMP JUMPDEST SWAP1 POP DUP5 DUP7 GT ISZERO PUSH2 0x5112 JUMPI PUSH1 0x64 PUSH2 0x504E PUSH1 0x2 PUSH2 0x5034 DUP5 DUP5 PUSH2 0x5A61 JUMP JUMPDEST PUSH2 0x503E SWAP2 SWAP1 PUSH2 0x5C3A JUMP JUMPDEST PUSH2 0x5049 SWAP1 PUSH1 0x19 PUSH2 0x5B03 JUMP JUMPDEST PUSH2 0x5350 JUMP JUMPDEST DUP10 PUSH2 0x140 ADD MLOAD PUSH2 0x505E SWAP2 SWAP1 PUSH2 0x5C23 JUMP JUMPDEST PUSH2 0x5068 SWAP2 SWAP1 PUSH2 0x5C3A JUMP JUMPDEST DUP5 MSTORE PUSH1 0x64 PUSH2 0x5090 PUSH1 0x4 PUSH2 0x507B DUP5 DUP5 PUSH2 0x5A61 JUMP JUMPDEST PUSH2 0x5085 SWAP2 SWAP1 PUSH2 0x5C3A JUMP JUMPDEST PUSH2 0x5049 SWAP1 PUSH1 0xA PUSH2 0x5B03 JUMP JUMPDEST DUP10 PUSH2 0x160 ADD MLOAD PUSH2 0x50A0 SWAP2 SWAP1 PUSH2 0x5C23 JUMP JUMPDEST PUSH2 0x50AA SWAP2 SWAP1 PUSH2 0x5C3A JUMP JUMPDEST PUSH1 0x20 DUP6 ADD MSTORE PUSH1 0x64 PUSH2 0x50BF PUSH2 0x5049 DUP4 PUSH1 0x32 PUSH2 0x5B03 JUMP JUMPDEST DUP9 PUSH2 0x140 ADD MLOAD PUSH2 0x50CF SWAP2 SWAP1 PUSH2 0x5C23 JUMP JUMPDEST PUSH2 0x50D9 SWAP2 SWAP1 PUSH2 0x5C3A JUMP JUMPDEST PUSH1 0x40 DUP6 ADD MSTORE PUSH1 0x64 PUSH2 0x50EE PUSH2 0x5049 DUP4 PUSH1 0x32 PUSH2 0x5B03 JUMP JUMPDEST DUP9 PUSH2 0x160 ADD MLOAD PUSH2 0x50FE SWAP2 SWAP1 PUSH2 0x5C23 JUMP JUMPDEST PUSH2 0x5108 SWAP2 SWAP1 PUSH2 0x5C3A JUMP JUMPDEST PUSH1 0x60 DUP6 ADD MSTORE PUSH2 0x51E3 JUMP JUMPDEST PUSH1 0x64 PUSH2 0x5122 PUSH2 0x5049 DUP4 PUSH1 0x32 PUSH2 0x5B03 JUMP JUMPDEST DUP10 PUSH2 0x140 ADD MLOAD PUSH2 0x5132 SWAP2 SWAP1 PUSH2 0x5C23 JUMP JUMPDEST PUSH2 0x513C SWAP2 SWAP1 PUSH2 0x5C3A JUMP JUMPDEST DUP5 MSTORE PUSH1 0x64 PUSH2 0x514E PUSH2 0x503E PUSH1 0x2 DUP5 PUSH2 0x5C3A JUMP JUMPDEST DUP10 PUSH2 0x160 ADD MLOAD PUSH2 0x515E SWAP2 SWAP1 PUSH2 0x5C23 JUMP JUMPDEST PUSH2 0x5168 SWAP2 SWAP1 PUSH2 0x5C3A JUMP JUMPDEST PUSH1 0x20 DUP6 ADD MSTORE PUSH1 0x64 PUSH2 0x5193 PUSH1 0x4 PUSH2 0x517E DUP5 DUP5 PUSH2 0x5A61 JUMP JUMPDEST PUSH2 0x5188 SWAP2 SWAP1 PUSH2 0x5C3A JUMP JUMPDEST PUSH2 0x5049 SWAP1 PUSH1 0xF PUSH2 0x5B03 JUMP JUMPDEST DUP9 PUSH2 0x140 ADD MLOAD PUSH2 0x51A3 SWAP2 SWAP1 PUSH2 0x5C23 JUMP JUMPDEST PUSH2 0x51AD SWAP2 SWAP1 PUSH2 0x5C3A JUMP JUMPDEST PUSH1 0x40 DUP6 ADD MSTORE PUSH1 0x64 PUSH2 0x51C3 PUSH1 0x4 PUSH2 0x507B DUP5 DUP5 PUSH2 0x5A61 JUMP JUMPDEST DUP9 PUSH2 0x160 ADD MLOAD PUSH2 0x51D3 SWAP2 SWAP1 PUSH2 0x5C23 JUMP JUMPDEST PUSH2 0x51DD SWAP2 SWAP1 PUSH2 0x5C3A JUMP JUMPDEST PUSH1 0x60 DUP6 ADD MSTORE JUMPDEST POP POP POP SWAP5 SWAP4 POP POP POP POP JUMP JUMPDEST PUSH1 0x0 DUP3 DUP5 LT ISZERO PUSH2 0x51FF JUMPI POP DUP2 PUSH2 0x5211 JUMP JUMPDEST DUP2 DUP5 GT ISZERO PUSH2 0x520E JUMPI POP DUP1 PUSH2 0x5211 JUMP JUMPDEST POP DUP3 JUMPDEST SWAP4 SWAP3 POP POP POP JUMP JUMPDEST PUSH1 0x0 PUSH1 0x1 DUP8 GT ISZERO PUSH2 0x5345 JUMPI PUSH1 0x0 PUSH1 0x64 PUSH2 0x5231 DUP5 DUP11 PUSH2 0x5C23 JUMP JUMPDEST PUSH2 0x523B SWAP2 SWAP1 PUSH2 0x5C3A JUMP JUMPDEST SWAP1 POP DUP1 ISZERO PUSH2 0x5343 JUMPI PUSH1 0x1 SLOAD PUSH1 0x40 MLOAD PUSH4 0x3E5F2857 PUSH1 0xE0 SHL DUP2 MSTORE PUSH1 0xFF DUP1 DUP9 AND PUSH1 0x4 DUP4 ADD MSTORE DUP1 DUP8 AND PUSH1 0x24 DUP4 ADD MSTORE DUP12 AND PUSH1 0x44 DUP3 ADD MSTORE PUSH1 0x64 DUP2 ADD DUP4 SWAP1 MSTORE PUSH1 0x0 PUSH1 0x84 DUP3 ADD MSTORE PUSH1 0x1 PUSH1 0x1 PUSH1 0xA0 SHL SUB SWAP1 SWAP2 AND SWAP1 PUSH4 0x3E5F2857 SWAP1 PUSH1 0xA4 ADD PUSH1 0x0 PUSH1 0x40 MLOAD DUP1 DUP4 SUB DUP2 PUSH1 0x0 DUP8 DUP1 EXTCODESIZE ISZERO DUP1 ISZERO PUSH2 0x52A9 JUMPI PUSH1 0x0 DUP1 REVERT JUMPDEST POP GAS CALL ISZERO DUP1 ISZERO PUSH2 0x52BD JUMPI RETURNDATASIZE PUSH1 0x0 DUP1 RETURNDATACOPY RETURNDATASIZE PUSH1 0x0 REVERT JUMPDEST POP POP PUSH1 0x1 DUP1 SLOAD PUSH1 0x40 MLOAD PUSH4 0x3E5F2857 PUSH1 0xE0 SHL DUP2 MSTORE PUSH1 0xFF DUP1 DUP14 AND PUSH1 0x4 DUP4 ADD MSTORE DUP1 DUP13 AND PUSH1 0x24 DUP4 ADD MSTORE DUP15 AND PUSH1 0x44 DUP3 ADD MSTORE PUSH1 0x64 DUP2 ADD DUP7 SWAP1 MSTORE PUSH1 0x84 DUP2 ADD SWAP3 SWAP1 SWAP3 MSTORE PUSH1 0x1 PUSH1 0x1 PUSH1 0xA0 SHL SUB AND SWAP3 POP PUSH4 0x3E5F2857 SWAP2 POP PUSH1 0xA4 ADD PUSH1 0x0 PUSH1 0x40 MLOAD DUP1 DUP4 SUB DUP2 PUSH1 0x0 DUP8 DUP1 EXTCODESIZE ISZERO DUP1 ISZERO PUSH2 0x5327 JUMPI PUSH1 0x0 DUP1 REVERT JUMPDEST POP GAS CALL ISZERO DUP1 ISZERO PUSH2 0x533B JUMPI RETURNDATASIZE PUSH1 0x0 DUP1 RETURNDATACOPY RETURNDATASIZE PUSH1 0x0 REVERT JUMPDEST POP POP POP POP DUP1 SWAP2 POP JUMPDEST POP JUMPDEST SWAP8 SWAP7 POP POP POP POP POP POP POP JUMP JUMPDEST PUSH1 0x0 PUSH2 0x39D7 PUSH2 0x5360 DUP4 PUSH1 0xA PUSH2 0x5367 JUMP JUMPDEST PUSH1 0x5A PUSH2 0x537D JUMP JUMPDEST PUSH1 0x0 DUP2 DUP4 GT PUSH2 0x5376 JUMPI DUP2 PUSH2 0x39D4 JUMP JUMPDEST POP SWAP1 SWAP2 SWAP1 POP JUMP JUMPDEST PUSH1 0x0 DUP2 DUP4 LT PUSH2 0x5376 JUMPI DUP2 PUSH2 0x39D4 JUMP JUMPDEST PUSH1 0x40 MLOAD DUP1 PUSH2 0x100 ADD PUSH1 0x40 MSTORE DUP1 PUSH1 0x0 PUSH1 0xFF AND DUP2 MSTORE PUSH1 0x20 ADD PUSH1 0x0 PUSH1 0xFF AND DUP2 MSTORE PUSH1 0x20 ADD PUSH1 0x0 PUSH1 0xFF AND DUP2 MSTORE PUSH1 0x20 ADD PUSH1 0x0 PUSH1 0xFF AND DUP2 MSTORE PUSH1 0x20 ADD PUSH2 0x5445 PUSH1 0x40 MLOAD DUP1 PUSH2 0x1E0 ADD PUSH1 0x40 MSTORE DUP1 PUSH1 0x0 DUP2 MSTORE PUSH1 0x20 ADD PUSH1 0x0 DUP2 MSTORE PUSH1 0x20 ADD PUSH1 0x0 DUP2 MSTORE PUSH1 0x20 ADD PUSH1 0x0 DUP2 MSTORE PUSH1 0x20 ADD PUSH1 0x0 PUSH2 0xFFFF AND DUP2 MSTORE PUSH1 0x20 ADD PUSH1 0x0 DUP2 MSTORE PUSH1 0x20 ADD PUSH1 0x0 DUP2 MSTORE PUSH1 0x20 ADD PUSH1 0x0 DUP2 MSTORE PUSH1 0x20 ADD PUSH1 0x0 DUP2 MSTORE PUSH1 0x20 ADD PUSH1 0x0 DUP2 MSTORE PUSH1 0x20 ADD PUSH1 0x0 DUP2 MSTORE PUSH1 0x20 ADD PUSH1 0x0 DUP2 MSTORE PUSH1 0x20 ADD PUSH1 0x0 PUSH2 0xFFFF AND DUP2 MSTORE PUSH1 0x20 ADD PUSH1 0x0 PUSH2 0xFFFF AND DUP2 MSTORE PUSH1 0x20 ADD PUSH1 0x0 DUP2 MSTORE POP SWAP1 JUMP JUMPDEST DUP2 MSTORE PUSH1 0x20 ADD PUSH2 0x54CF PUSH1 0x40 MLOAD DUP1 PUSH2 0x1E0 ADD PUSH1 0x40 MSTORE DUP1 PUSH1 0x0 DUP2 MSTORE PUSH1 0x20 ADD PUSH1 0x0 DUP2 MSTORE PUSH1 0x20 ADD PUSH1 0x0 DUP2 MSTORE PUSH1 0x20 ADD PUSH1 0x0 DUP2 MSTORE PUSH1 0x20 ADD PUSH1 0x0 PUSH2 0xFFFF AND DUP2 MSTORE PUSH1 0x20 ADD PUSH1 0x0 DUP2 MSTORE PUSH1 0x20 ADD PUSH1 0x0 DUP2 MSTORE PUSH1 0x20 ADD PUSH1 0x0 DUP2 MSTORE PUSH1 0x20 ADD PUSH1 0x0 DUP2 MSTORE PUSH1 0x20 ADD PUSH1 0x0 DUP2 MSTORE PUSH1 0x20 ADD PUSH1 0x0 DUP2 MSTORE PUSH1 0x20 ADD PUSH1 0x0 DUP2 MSTORE PUSH1 0x20 ADD PUSH1 0x0 PUSH2 0xFFFF AND DUP2 MSTORE PUSH1 0x20 ADD PUSH1 0x0 PUSH2 0xFFFF AND DUP2 MSTORE PUSH1 0x20 ADD PUSH1 0x0 DUP2 MSTORE POP SWAP1 JUMP JUMPDEST DUP2 MSTORE PUSH1 0x20 ADD PUSH1 0x0 DUP2 MSTORE PUSH1 0x20 ADD PUSH1 0x0 DUP2 MSTORE POP SWAP1 JUMP JUMPDEST PUSH1 0x40 MLOAD DUP1 PUSH1 0x60 ADD PUSH1 0x40 MSTORE DUP1 PUSH2 0x5519 PUSH1 0x40 MLOAD DUP1 PUSH1 0x80 ADD PUSH1 0x40 MSTORE DUP1 PUSH1 0x0 DUP2 MSTORE PUSH1 0x20 ADD PUSH1 0x0 DUP2 MSTORE PUSH1 0x20 ADD PUSH1 0x0 DUP2 MSTORE PUSH1 0x20 ADD PUSH1 0x0 DUP2 MSTORE POP SWAP1 JUMP JUMPDEST DUP2 MSTORE PUSH1 0x0 PUSH1 0x20 DUP3 ADD DUP2 SWAP1 MSTORE PUSH1 0x40 SWAP1 SWAP2 ADD MSTORE SWAP1 JUMP JUMPDEST PUSH1 0x0 JUMPDEST DUP4 DUP2 LT ISZERO PUSH2 0x5548 JUMPI DUP2 DUP2 ADD MLOAD DUP4 DUP3 ADD MSTORE PUSH1 0x20 ADD PUSH2 0x5530 JUMP JUMPDEST POP POP PUSH1 0x0 SWAP2 ADD MSTORE JUMP JUMPDEST PUSH1 0x0 DUP2 MLOAD DUP1 DUP5 MSTORE PUSH2 0x5569 DUP2 PUSH1 0x20 DUP7 ADD PUSH1 0x20 DUP7 ADD PUSH2 0x552D JUMP JUMPDEST PUSH1 0x1F ADD PUSH1 0x1F NOT AND SWAP3 SWAP1 SWAP3 ADD PUSH1 0x20 ADD SWAP3 SWAP2 POP POP JUMP JUMPDEST PUSH1 0x0 DUP2 MLOAD DUP1 DUP5 MSTORE PUSH1 0x20 DUP1 DUP6 ADD DUP1 DUP2 SWAP7 POP DUP4 PUSH1 0x5 SHL DUP2 ADD SWAP2 POP DUP3 DUP7 ADD PUSH1 0x0 JUMPDEST DUP6 DUP2 LT ISZERO PUSH2 0x55EB JUMPI DUP3 DUP5 SUB DUP10 MSTORE DUP2 MLOAD PUSH1 0x40 DUP2 MLOAD DUP2 DUP8 MSTORE PUSH2 0x55BD DUP3 DUP9 ADD DUP3 PUSH2 0x5551 JUMP JUMPDEST SWAP2 POP POP DUP7 DUP3 ADD MLOAD SWAP2 POP DUP6 DUP2 SUB DUP8 DUP8 ADD MSTORE PUSH2 0x55D7 DUP2 DUP4 PUSH2 0x5551 JUMP JUMPDEST SWAP11 DUP8 ADD SWAP11 SWAP6 POP POP POP SWAP1 DUP5 ADD SWAP1 PUSH1 0x1 ADD PUSH2 0x559B JUMP JUMPDEST POP SWAP2 SWAP8 SWAP7 POP POP POP POP POP POP POP JUMP JUMPDEST PUSH1 0x40 DUP1 DUP3 MSTORE DUP4 MLOAD DUP3 DUP3 ADD DUP2 SWAP1 MSTORE PUSH1 0x0 SWAP2 SWAP1 PUSH1 0x60 SWAP1 DUP2 DUP6 ADD SWAP1 PUSH1 0x20 DUP1 DUP10 ADD DUP7 JUMPDEST DUP4 DUP2 LT ISZERO PUSH2 0x566F JUMPI DUP2 MLOAD DUP1 MLOAD PUSH1 0xFF SWAP1 DUP2 AND DUP8 MSTORE DUP5 DUP3 ADD MLOAD DUP2 AND DUP6 DUP9 ADD MSTORE DUP9 DUP3 ADD MLOAD DUP2 AND DUP10 DUP9 ADD MSTORE DUP8 DUP3 ADD MLOAD AND DUP8 DUP8 ADD MSTORE PUSH1 0x80 DUP1 DUP3 ADD MLOAD SWAP1 DUP8 ADD MSTORE PUSH1 0xA0 SWAP1 DUP2 ADD MLOAD ISZERO ISZERO SWAP1 DUP7 ADD MSTORE PUSH1 0xC0 SWAP1 SWAP5 ADD SWAP4 SWAP1 DUP3 ADD SWAP1 PUSH1 0x1 ADD PUSH2 0x5617 JUMP JUMPDEST POP POP DUP7 DUP4 SUB SWAP1 DUP8 ADD MSTORE POP PUSH2 0x5345 DUP2 DUP8 PUSH2 0x557D JUMP JUMPDEST DUP1 CALLDATALOAD PUSH1 0xFF DUP2 AND DUP2 EQ PUSH2 0x5694 JUMPI PUSH1 0x0 DUP1 REVERT JUMPDEST SWAP2 SWAP1 POP JUMP JUMPDEST PUSH1 0x0 DUP1 PUSH1 0x0 DUP1 PUSH1 0x80 DUP6 DUP8 SUB SLT ISZERO PUSH2 0x56AF JUMPI PUSH1 0x0 DUP1 REVERT JUMPDEST PUSH2 0x56B8 DUP6 PUSH2 0x5683 JUMP JUMPDEST SWAP4 POP PUSH2 0x56C6 PUSH1 0x20 DUP7 ADD PUSH2 0x5683 JUMP JUMPDEST SWAP3 POP PUSH2 0x56D4 PUSH1 0x40 DUP7 ADD PUSH2 0x5683 JUMP JUMPDEST SWAP2 POP PUSH2 0x56E2 PUSH1 0x60 DUP7 ADD PUSH2 0x5683 JUMP JUMPDEST SWAP1 POP SWAP3 SWAP6 SWAP2 SWAP5 POP SWAP3 POP JUMP JUMPDEST PUSH2 0xFFFF DUP2 AND DUP2 EQ PUSH2 0x56FD JUMPI PUSH1 0x0 DUP1 REVERT JUMPDEST POP JUMP JUMPDEST PUSH1 0x0 PUSH1 0x20 DUP3 DUP5 SUB SLT ISZERO PUSH2 0x5712 JUMPI PUSH1 0x0 DUP1 REVERT JUMPDEST DUP2 CALLDATALOAD PUSH2 0x5211 DUP2 PUSH2 0x56ED JUMP JUMPDEST PUSH1 0x0 DUP1 PUSH1 0x0 DUP1 PUSH1 0x80 DUP6 DUP8 SUB SLT ISZERO PUSH2 0x5733 JUMPI PUSH1 0x0 DUP1 REVERT JUMPDEST PUSH2 0x573C DUP6 PUSH2 0x5683 JUMP JUMPDEST SWAP4 POP PUSH2 0x574A PUSH1 0x20 DUP7 ADD PUSH2 0x5683 JUMP JUMPDEST SWAP3 POP PUSH2 0x5758 PUSH1 0x40 DUP7 ADD PUSH2 0x5683 JUMP JUMPDEST SWAP4 SWAP7 SWAP3 SWAP6 POP SWAP3 SWAP4 PUSH1 0x60 ADD CALLDATALOAD SWAP3 POP POP JUMP JUMPDEST PUSH1 0x0 DUP1 PUSH1 0x0 DUP1 PUSH1 0x0 DUP1 PUSH1 0xC0 DUP8 DUP10 SUB SLT ISZERO PUSH2 0x5781 JUMPI PUSH1 0x0 DUP1 REVERT JUMPDEST PUSH2 0x578A DUP8 PUSH2 0x5683 JUMP JUMPDEST SWAP6 POP PUSH2 0x5798 PUSH1 0x20 DUP9 ADD PUSH2 0x5683 JUMP JUMPDEST SWAP5 POP PUSH2 0x57A6 PUSH1 0x40 DUP9 ADD PUSH2 0x5683 JUMP JUMPDEST SWAP4 POP PUSH2 0x57B4 PUSH1 0x60 DUP9 ADD PUSH2 0x5683 JUMP JUMPDEST SWAP3 POP PUSH2 0x57C2 PUSH1 0x80 DUP9 ADD PUSH2 0x5683 JUMP JUMPDEST SWAP2 POP PUSH1 0xA0 DUP8 ADD CALLDATALOAD SWAP1 POP SWAP3 SWAP6 POP SWAP3 SWAP6 POP SWAP3 SWAP6 JUMP JUMPDEST PUSH1 0x0 DUP1 PUSH1 0x40 DUP4 DUP6 SUB SLT ISZERO PUSH2 0x57E8 JUMPI PUSH1 0x0 DUP1 REVERT JUMPDEST PUSH2 0x57F1 DUP4 PUSH2 0x5683 JUMP JUMPDEST SWAP2 POP PUSH2 0x57FF PUSH1 0x20 DUP5 ADD PUSH2 0x5683 JUMP JUMPDEST SWAP1 POP SWAP3 POP SWAP3 SWAP1 POP JUMP JUMPDEST PUSH1 0x20 DUP1 DUP3 MSTORE DUP3 MLOAD DUP3 DUP3 ADD DUP2 SWAP1 MSTORE PUSH1 0x0 SWAP2 SWAP1 PUSH1 0x40 SWAP1 DUP2 DUP6 ADD SWAP1 DUP7 DUP5 ADD DUP6 JUMPDEST DUP3 DUP2 LT ISZERO PUSH2 0x55EB JUMPI DUP2 MLOAD DUP1 MLOAD PUSH1 0xFF SWAP1 DUP2 AND DUP7 MSTORE DUP8 DUP3 ADD MLOAD DUP2 AND DUP9 DUP8 ADD MSTORE DUP7 DUP3 ADD MLOAD DUP2 AND DUP8 DUP8 ADD MSTORE PUSH1 0x60 DUP1 DUP4 ADD MLOAD SWAP1 SWAP2 AND SWAP1 DUP7 ADD MSTORE PUSH1 0x80 DUP1 DUP3 ADD MLOAD SWAP1 DUP7 ADD MSTORE PUSH1 0xA0 DUP1 DUP3 ADD MLOAD ISZERO ISZERO SWAP1 DUP7 ADD MSTORE PUSH1 0xC0 DUP1 DUP3 ADD MLOAD SWAP1 DUP7 ADD MSTORE PUSH1 0xE0 DUP1 DUP3 ADD MLOAD SWAP1 DUP7 ADD MSTORE PUSH2 0x100 DUP1 DUP3 ADD MLOAD SWAP1 DUP7 ADD MSTORE PUSH2 0x120 DUP1 DUP3 ADD MLOAD SWAP1 DUP7 ADD MSTORE PUSH2 0x140 DUP1 DUP3 ADD MLOAD SWAP1 DUP7 ADD MSTORE PUSH2 0x160 DUP1 DUP3 ADD MLOAD SWAP1 DUP7 ADD MSTORE PUSH2 0x180 SWAP1 DUP2 ADD MLOAD SWAP1 DUP6 ADD MSTORE PUSH2 0x1A0 SWAP1 SWAP4 ADD SWAP3 SWAP1 DUP6 ADD SWAP1 PUSH1 0x1 ADD PUSH2 0x5825 JUMP JUMPDEST PUSH1 0x0 DUP1 PUSH1 0x0 DUP1 PUSH1 0x80 DUP6 DUP8 SUB SLT ISZERO PUSH2 0x58E3 JUMPI PUSH1 0x0 DUP1 REVERT JUMPDEST PUSH2 0x58EC DUP6 PUSH2 0x5683 JUMP JUMPDEST SWAP4 POP PUSH2 0x58FA PUSH1 0x20 DUP7 ADD PUSH2 0x5683 JUMP JUMPDEST SWAP4 SWAP7 SWAP4 SWAP6 POP POP POP POP PUSH1 0x40 DUP3 ADD CALLDATALOAD SWAP2 PUSH1 0x60 ADD CALLDATALOAD SWAP1 JUMP JUMPDEST PUSH1 0x0 DUP1 PUSH1 0x40 DUP4 DUP6 SUB SLT ISZERO PUSH2 0x5922 JUMPI PUSH1 0x0 DUP1 REVERT JUMPDEST POP POP DUP1 CALLDATALOAD SWAP3 PUSH1 0x20 SWAP1 SWAP2 ADD CALLDATALOAD SWAP2 POP JUMP JUMPDEST PUSH1 0x0 DUP1 PUSH1 0x0 DUP1 PUSH1 0x0 PUSH1 0xA0 DUP7 DUP9 SUB SLT ISZERO PUSH2 0x5949 JUMPI PUSH1 0x0 DUP1 REVERT JUMPDEST PUSH2 0x5952 DUP7 PUSH2 0x5683 JUMP JUMPDEST SWAP5 POP PUSH2 0x5960 PUSH1 0x20 DUP8 ADD PUSH2 0x5683 JUMP JUMPDEST SWAP4 POP PUSH2 0x596E PUSH1 0x40 DUP8 ADD PUSH2 0x5683 JUMP JUMPDEST SWAP5 SWAP8 SWAP4 SWAP7 POP SWAP4 SWAP5 PUSH1 0x60 DUP2 ADD CALLDATALOAD SWAP5 POP PUSH1 0x80 ADD CALLDATALOAD SWAP3 SWAP2 POP POP JUMP JUMPDEST PUSH1 0x0 DUP1 PUSH1 0x0 PUSH1 0x60 DUP5 DUP7 SUB SLT ISZERO PUSH2 0x599B JUMPI PUSH1 0x0 DUP1 REVERT JUMPDEST PUSH2 0x59A4 DUP5 PUSH2 0x5683 JUMP JUMPDEST SWAP3 POP PUSH2 0x59B2 PUSH1 0x20 DUP6 ADD PUSH2 0x5683 JUMP JUMPDEST SWAP2 POP PUSH2 0x59C0 PUSH1 0x40 DUP6 ADD PUSH2 0x5683 JUMP JUMPDEST SWAP1 POP SWAP3 POP SWAP3 POP SWAP3 JUMP JUMPDEST PUSH1 0x20 DUP1 DUP3 MSTORE DUP3 MLOAD DUP3 DUP3 ADD DUP2 SWAP1 MSTORE PUSH1 0x0 SWAP2 SWAP1 PUSH1 0x40 SWAP1 DUP2 DUP6 ADD SWAP1 DUP7 DUP5 ADD DUP6 JUMPDEST DUP3 DUP2 LT ISZERO PUSH2 0x55EB JUMPI DUP2 MLOAD DUP1 MLOAD PUSH1 0xFF SWAP1 DUP2 AND DUP7 MSTORE DUP8 DUP3 ADD MLOAD DUP2 AND DUP9 DUP8 ADD MSTORE DUP7 DUP3 ADD MLOAD AND DUP7 DUP7 ADD MSTORE PUSH1 0x60 DUP1 DUP3 ADD MLOAD SWAP1 DUP7 ADD MSTORE PUSH1 0x80 SWAP1 DUP2 ADD MLOAD SWAP1 DUP6 ADD MSTORE PUSH1 0xA0 SWAP1 SWAP4 ADD SWAP3 SWAP1 DUP6 ADD SWAP1 PUSH1 0x1 ADD PUSH2 0x59E6 JUMP JUMPDEST PUSH32 0x4E487B7100000000000000000000000000000000000000000000000000000000 PUSH1 0x0 MSTORE PUSH1 0x11 PUSH1 0x4 MSTORE PUSH1 0x24 PUSH1 0x0 REVERT JUMPDEST DUP2 DUP2 SUB DUP2 DUP2 GT ISZERO PUSH2 0x39D7 JUMPI PUSH2 0x39D7 PUSH2 0x5A32 JUMP JUMPDEST PUSH32 0x4E487B7100000000000000000000000000000000000000000000000000000000 PUSH1 0x0 MSTORE PUSH1 0x32 PUSH1 0x4 MSTORE PUSH1 0x24 PUSH1 0x0 REVERT JUMPDEST PUSH1 0x0 PUSH1 0x0 NOT DUP3 SUB PUSH2 0x5AB6 JUMPI PUSH2 0x5AB6 PUSH2 0x5A32 JUMP JUMPDEST POP PUSH1 0x1 ADD SWAP1 JUMP JUMPDEST PUSH1 0x0 DUP2 PUSH2 0x5ACC JUMPI PUSH2 0x5ACC PUSH2 0x5A32 JUMP JUMPDEST POP PUSH1 0x0 NOT ADD SWAP1 JUMP JUMPDEST PUSH32 0x4E487B7100000000000000000000000000000000000000000000000000000000 PUSH1 0x0 MSTORE PUSH1 0x41 PUSH1 0x4 MSTORE PUSH1 0x24 PUSH1 0x0 REVERT JUMPDEST DUP1 DUP3 ADD DUP1 DUP3 GT ISZERO PUSH2 0x39D7 JUMPI PUSH2 0x39D7 PUSH2 0x5A32 JUMP JUMPDEST PUSH1 0x1 DUP2 DUP2 SHR SWAP1 DUP3 AND DUP1 PUSH2 0x5B2A JUMPI PUSH1 0x7F DUP3 AND SWAP2 POP JUMPDEST PUSH1 0x20 DUP3 LT DUP2 SUB PUSH2 0x5B63 JUMPI PUSH32 0x4E487B7100000000000000000000000000000000000000000000000000000000 PUSH1 0x0 MSTORE PUSH1 0x22 PUSH1 0x4 MSTORE PUSH1 0x24 PUSH1 0x0 REVERT JUMPDEST POP SWAP2 SWAP1 POP JUMP JUMPDEST DUP1 MLOAD PUSH1 0x1 PUSH1 0x1 PUSH1 0xA0 SHL SUB DUP2 AND DUP2 EQ PUSH2 0x5694 JUMPI PUSH1 0x0 DUP1 REVERT JUMPDEST PUSH1 0x0 PUSH1 0x20 DUP3 DUP5 SUB SLT ISZERO PUSH2 0x5B92 JUMPI PUSH1 0x0 DUP1 REVERT JUMPDEST PUSH2 0x39D4 DUP3 PUSH2 0x5B69 JUMP JUMPDEST PUSH1 0x0 PUSH1 0x20 DUP3 DUP5 SUB SLT ISZERO PUSH2 0x5BAD JUMPI PUSH1 0x0 DUP1 REVERT JUMPDEST POP MLOAD SWAP2 SWAP1 POP JUMP JUMPDEST DUP1 MLOAD DUP1 ISZERO ISZERO DUP2 EQ PUSH2 0x5694 JUMPI PUSH1 0x0 DUP1 REVERT JUMPDEST PUSH1 0x0 DUP1 PUSH1 0x0 DUP1 PUSH1 0x0 DUP1 PUSH1 0xC0 DUP8 DUP10 SUB SLT ISZERO PUSH2 0x5BDD JUMPI PUSH1 0x0 DUP1 REVERT JUMPDEST PUSH2 0x5BE6 DUP8 PUSH2 0x5BB4 JUMP JUMPDEST SWAP6 POP PUSH2 0x5BF4 PUSH1 0x20 DUP9 ADD PUSH2 0x5B69 JUMP JUMPDEST SWAP5 POP PUSH2 0x5C02 PUSH1 0x40 DUP9 ADD PUSH2 0x5BB4 JUMP JUMPDEST SWAP4 POP PUSH1 0x60 DUP8 ADD MLOAD SWAP3 POP PUSH1 0x80 DUP8 ADD MLOAD SWAP2 POP PUSH1 0xA0 DUP8 ADD MLOAD SWAP1 POP SWAP3 SWAP6 POP SWAP3 SWAP6 POP SWAP3 SWAP6 JUMP JUMPDEST DUP1 DUP3 MUL DUP2 ISZERO DUP3 DUP3 DIV DUP5 EQ OR PUSH2 0x39D7 JUMPI PUSH2 0x39D7 PUSH2 0x5A32 JUMP JUMPDEST PUSH1 0x0 DUP3 PUSH2 0x5C70 JUMPI PUSH32 0x4E487B7100000000000000000000000000000000000000000000000000000000 PUSH1 0x0 MSTORE PUSH1 0x12 PUSH1 0x4 MSTORE PUSH1 0x24 PUSH1 0x0 REVERT JUMPDEST POP DIV SWAP1 JUMP JUMPDEST PUSH1 0x0 PUSH1 0x20 DUP3 DUP5 SUB SLT ISZERO PUSH2 0x5C87 JUMPI PUSH1 0x0 DUP1 REVERT JUMPDEST PUSH2 0x39D4 DUP3 PUSH2 0x5BB4 JUMP JUMPDEST PUSH1 0xFF DUP2 DUP2 AND DUP4 DUP3 AND ADD SWAP1 DUP2 GT ISZERO PUSH2 0x39D7 JUMPI PUSH2 0x39D7 PUSH2 0x5A32 JUMP JUMPDEST PUSH1 0x40 MLOAD PUSH2 0x1E0 DUP2 ADD PUSH8 0xFFFFFFFFFFFFFFFF DUP2 GT DUP3 DUP3 LT OR ISZERO PUSH2 0x5CCD JUMPI PUSH2 0x5CCD PUSH2 0x5AD4 JUMP JUMPDEST PUSH1 0x40 MSTORE SWAP1 JUMP JUMPDEST DUP1 MLOAD PUSH2 0x5694 DUP2 PUSH2 0x56ED JUMP JUMPDEST PUSH1 0x0 PUSH2 0x1E0 DUP3 DUP5 SUB SLT ISZERO PUSH2 0x5CF1 JUMPI PUSH1 0x0 DUP1 REVERT JUMPDEST PUSH2 0x5CF9 PUSH2 0x5CA9 JUMP JUMPDEST DUP3 MLOAD DUP2 MSTORE PUSH1 0x20 DUP4 ADD MLOAD PUSH1 0x20 DUP3 ADD MSTORE PUSH1 0x40 DUP4 ADD MLOAD PUSH1 0x40 DUP3 ADD MSTORE PUSH1 0x60 DUP4 ADD MLOAD PUSH1 0x60 DUP3 ADD MSTORE PUSH2 0x5D27 PUSH1 0x80 DUP5 ADD PUSH2 0x5CD3 JUMP JUMPDEST PUSH1 0x80 DUP3 ADD MSTORE PUSH1 0xA0 DUP4 DUP2 ADD MLOAD SWAP1 DUP3 ADD MSTORE PUSH1 0xC0 DUP1 DUP5 ADD MLOAD SWAP1 DUP3 ADD MSTORE PUSH1 0xE0 DUP1 DUP5 ADD MLOAD SWAP1 DUP3 ADD MSTORE PUSH2 0x100 DUP1 DUP5 ADD MLOAD SWAP1 DUP3 ADD MSTORE PUSH2 0x120 DUP1 DUP5 ADD MLOAD SWAP1 DUP3 ADD MSTORE PUSH2 0x140 DUP1 DUP5 ADD MLOAD SWAP1 DUP3 ADD MSTORE PUSH2 0x160 DUP1 DUP5 ADD MLOAD SWAP1 DUP3 ADD MSTORE PUSH2 0x180 PUSH2 0x5D84 DUP2 DUP6 ADD PUSH2 0x5CD3 JUMP JUMPDEST SWAP1 DUP3 ADD MSTORE PUSH2 0x1A0 PUSH2 0x5D96 DUP5 DUP3 ADD PUSH2 0x5CD3 JUMP JUMPDEST SWAP1 DUP3 ADD MSTORE PUSH2 0x1C0 SWAP3 DUP4 ADD MLOAD SWAP3 DUP2 ADD SWAP3 SWAP1 SWAP3 MSTORE POP SWAP2 SWAP1 POP JUMP JUMPDEST PUSH32 0x4E487B7100000000000000000000000000000000000000000000000000000000 PUSH1 0x0 MSTORE PUSH1 0x31 PUSH1 0x4 MSTORE PUSH1 0x24 PUSH1 0x0 REVERT JUMPDEST PUSH1 0xFF DUP3 DUP2 AND DUP3 DUP3 AND SUB SWAP1 DUP2 GT ISZERO PUSH2 0x39D7 JUMPI PUSH2 0x39D7 PUSH2 0x5A32 JUMP JUMPDEST PUSH1 0x0 PUSH1 0x20 DUP3 DUP5 SUB SLT ISZERO PUSH2 0x5E08 JUMPI PUSH1 0x0 DUP1 REVERT JUMPDEST DUP2 MLOAD PUSH2 0x5211 DUP2 PUSH2 0x56ED JUMP JUMPDEST PUSH1 0x0 PUSH1 0x20 DUP3 DUP5 SUB SLT ISZERO PUSH2 0x5E25 JUMPI PUSH1 0x0 DUP1 REVERT JUMPDEST DUP2 MLOAD PUSH8 0xFFFFFFFFFFFFFFFF DUP1 DUP3 GT ISZERO PUSH2 0x5E3D JUMPI PUSH1 0x0 DUP1 REVERT JUMPDEST DUP2 DUP5 ADD SWAP2 POP DUP5 PUSH1 0x1F DUP4 ADD SLT PUSH2 0x5E51 JUMPI PUSH1 0x0 DUP1 REVERT JUMPDEST DUP2 MLOAD DUP2 DUP2 GT ISZERO PUSH2 0x5E63 JUMPI PUSH2 0x5E63 PUSH2 0x5AD4 JUMP JUMPDEST PUSH1 0x40 MLOAD PUSH1 0x1F DUP3 ADD PUSH1 0x1F NOT SWAP1 DUP2 AND PUSH1 0x3F ADD AND DUP2 ADD SWAP1 DUP4 DUP3 GT DUP2 DUP4 LT OR ISZERO PUSH2 0x5E8B JUMPI PUSH2 0x5E8B PUSH2 0x5AD4 JUMP JUMPDEST DUP2 PUSH1 0x40 MSTORE DUP3 DUP2 MSTORE DUP8 PUSH1 0x20 DUP5 DUP8 ADD ADD GT ISZERO PUSH2 0x5EA4 JUMPI PUSH1 0x0 DUP1 REVERT JUMPDEST PUSH2 0x5345 DUP4 PUSH1 0x20 DUP4 ADD PUSH1 0x20 DUP9 ADD PUSH2 0x552D JUMP JUMPDEST PUSH1 0x1F DUP3 GT ISZERO PUSH2 0x39A7 JUMPI PUSH1 0x0 DUP2 DUP2 MSTORE PUSH1 0x20 DUP2 KECCAK256 PUSH1 0x1F DUP6 ADD PUSH1 0x5 SHR DUP2 ADD PUSH1 0x20 DUP7 LT ISZERO PUSH2 0x5EDC JUMPI POP DUP1 JUMPDEST PUSH1 0x1F DUP6 ADD PUSH1 0x5 SHR DUP3 ADD SWAP2 POP JUMPDEST DUP2 DUP2 LT ISZERO PUSH2 0x17B1 JUMPI DUP3 DUP2 SSTORE PUSH1 0x1 ADD PUSH2 0x5EE8 JUMP JUMPDEST DUP2 MLOAD PUSH8 0xFFFFFFFFFFFFFFFF DUP2 GT ISZERO PUSH2 0x5F15 JUMPI PUSH2 0x5F15 PUSH2 0x5AD4 JUMP JUMPDEST PUSH2 0x5F29 DUP2 PUSH2 0x5F23 DUP5 SLOAD PUSH2 0x5B16 JUMP JUMPDEST DUP5 PUSH2 0x5EB5 JUMP JUMPDEST PUSH1 0x20 DUP1 PUSH1 0x1F DUP4 GT PUSH1 0x1 DUP2 EQ PUSH2 0x5F5E JUMPI PUSH1 0x0 DUP5 ISZERO PUSH2 0x5F46 JUMPI POP DUP6 DUP4 ADD MLOAD JUMPDEST PUSH1 0x0 NOT PUSH1 0x3 DUP7 SWAP1 SHL SHR NOT AND PUSH1 0x1 DUP6 SWAP1 SHL OR DUP6 SSTORE PUSH2 0x17B1 JUMP JUMPDEST PUSH1 0x0 DUP6 DUP2 MSTORE PUSH1 0x20 DUP2 KECCAK256 PUSH1 0x1F NOT DUP7 AND SWAP2 JUMPDEST DUP3 DUP2 LT ISZERO PUSH2 0x5F8D JUMPI DUP9 DUP7 ADD MLOAD DUP3 SSTORE SWAP5 DUP5 ADD SWAP5 PUSH1 0x1 SWAP1 SWAP2 ADD SWAP1 DUP5 ADD PUSH2 0x5F6E JUMP JUMPDEST POP DUP6 DUP3 LT ISZERO PUSH2 0x5FAB JUMPI DUP8 DUP6 ADD MLOAD PUSH1 0x0 NOT PUSH1 0x3 DUP9 SWAP1 SHL PUSH1 0xF8 AND SHR NOT AND DUP2 SSTORE JUMPDEST POP POP POP POP POP PUSH1 0x1 SWAP1 DUP2 SHL ADD SWAP1 SSTORE POP JUMP INVALID LOG2 PUSH5 0x6970667358 0x22 SLT KECCAK256 PUSH7 0x8C3A66CAACF84E CALLCODE SHL PUSH25 0xCBC7AAD8681BE17A3D5AC3E16C279723C95B8AA11D64736F6C PUSH4 0x43000812 STOP CALLER "
		},
		"gasEstimates": {
			"creation": {
				"codeDepositCost": "4912200",
				"executionCost": "infinite",
				"totalCost": "infinite"
			},
			"external": {
				"ATTACK_COST_FACTOR()": "264",
				"activeListingsByTile(uint16)": "2606",
				"attackTile(uint8,uint8,uint8,uint8)": "infinite",
				"buyItem(uint8,uint8,uint8,uint256)": "infinite",
				"cancelListing(uint8,uint8,uint8,uint256)": "infinite",
				"clanContract()": "2370",
				"getListingsByResourceType(uint8,uint8,uint8)": "infinite",
				"getMyResourceMessage(uint8,uint8)": "infinite",
				"getRecentTileWars(uint8,uint8)": "infinite",
				"getRecentWarHistoryWithClans()": "infinite",
				"getTileWarsInRange(uint8,uint8,uint256,uint256)": "infinite",
				"getWarHistoryWithClansInRange(uint256,uint256)": "infinite",
				"lastAttackTurn(uint8,uint8)": "infinite",
				"lastDefenseTurn(uint8,uint8)": "infinite",
				"listItemForSale(uint8,uint8,uint8,uint256,uint256)": "infinite",
				"lopToken()": "2373",
				"maybeAutoListIfInactive(uint8,uint8,uint8,uint8)": "infinite",
				"sendResources(uint8,uint8,uint8,uint8,uint8,uint256)": "infinite",
				"theLand()": "2371",
				"tileMapPhaser()": "2394"
			},
			"internal": {
				"_absDiff(uint8,uint8)": "infinite",
				"_applySoldierLoss(struct MarketPlace.AttackContext memory)": "infinite",
				"_calculatePowers(struct ITheLand.TileDataResponse memory,struct ITheLand.TileDataResponse memory,uint8,uint8)": "infinite",
				"_calculateSoldierLosses(struct ITheLand.TileDataResponse memory,struct ITheLand.TileDataResponse memory,uint256,uint256)": "infinite",
				"_capBetween(uint256,uint256,uint256)": "92",
				"_capLossPercent(uint256)": "infinite",
				"_decListings(uint8,uint8)": "26578",
				"_finalizeAttack(struct MarketPlace.AttackContext memory,struct MarketPlace.BattleResult memory,address,address)": "infinite",
				"_incListings(uint8,uint8)": "infinite",
				"_max(uint256,uint256)": "65",
				"_min(uint256,uint256)": "65",
				"_payAttackResourceCost(uint8,uint8,uint8,struct ITheLand.TileDataResponse memory)": "infinite",
				"_removeListingAt(uint8,uint256)": "188796",
				"_stealOneResource(uint8,uint256,uint8,uint8,uint8,uint8,uint256)": "infinite",
				"_stealResources(struct MarketPlace.AttackContext memory)": "infinite",
				"_tileKey(uint8,uint8)": "infinite",
				"_validateAttack(uint8,uint8,uint8,uint8,address,address)": "infinite"
			}
		},
		"methodIdentifiers": {
			"ATTACK_COST_FACTOR()": "10ac4633",
			"activeListingsByTile(uint16)": "30378338",
			"attackTile(uint8,uint8,uint8,uint8)": "697e71d2",
			"buyItem(uint8,uint8,uint8,uint256)": "999a2f7a",
			"cancelListing(uint8,uint8,uint8,uint256)": "3a965c90",
			"clanContract()": "c49443ac",
			"getListingsByResourceType(uint8,uint8,uint8)": "efcb01ba",
			"getMyResourceMessage(uint8,uint8)": "77f8c951",
			"getRecentTileWars(uint8,uint8)": "823e9282",
			"getRecentWarHistoryWithClans()": "21f65c90",
			"getTileWarsInRange(uint8,uint8,uint256,uint256)": "ada680cf",
			"getWarHistoryWithClansInRange(uint256,uint256)": "c399c2b0",
			"lastAttackTurn(uint8,uint8)": "763540cd",
			"lastDefenseTurn(uint8,uint8)": "70d27e41",
			"listItemForSale(uint8,uint8,uint8,uint256,uint256)": "ca030079",
			"lopToken()": "0d67f59e",
			"maybeAutoListIfInactive(uint8,uint8,uint8,uint8)": "2c400cb7",
			"sendResources(uint8,uint8,uint8,uint8,uint8,uint256)": "54adac10",
			"theLand()": "b0d77774",
			"tileMapPhaser()": "4f264b03"
		}
	},
	"abi": [
		{
			"inputs": [
				{
					"internalType": "address",
					"name": "_theLand",
					"type": "address"
				},
				{
					"internalType": "address",
					"name": "_lopToken",
					"type": "address"
				},
				{
					"internalType": "address",
					"name": "_tileMapPhaser",
					"type": "address"
				},
				{
					"internalType": "address",
					"name": "_clanContract",
					"type": "address"
				}
			],
			"stateMutability": "nonpayable",
			"type": "constructor"
		},
		{
			"anonymous": false,
			"inputs": [
				{
					"indexed": true,
					"internalType": "address",
					"name": "sender",
					"type": "address"
				},
				{
					"indexed": false,
					"internalType": "uint8",
					"name": "senderX",
					"type": "uint8"
				},
				{
					"indexed": false,
					"internalType": "uint8",
					"name": "senderY",
					"type": "uint8"
				},
				{
					"indexed": true,
					"internalType": "address",
					"name": "receiver",
					"type": "address"
				},
				{
					"indexed": false,
					"internalType": "uint8",
					"name": "receiverX",
					"type": "uint8"
				},
				{
					"indexed": false,
					"internalType": "uint8",
					"name": "receiverY",
					"type": "uint8"
				},
				{
					"indexed": false,
					"internalType": "uint8",
					"name": "resourceType",
					"type": "uint8"
				}
			],
			"name": "ResourcesSent",
			"type": "event"
		},
		{
			"anonymous": false,
			"inputs": [
				{
					"indexed": true,
					"internalType": "address",
					"name": "attacker",
					"type": "address"
				},
				{
					"indexed": false,
					"internalType": "uint8",
					"name": "attackerX",
					"type": "uint8"
				},
				{
					"indexed": false,
					"internalType": "uint8",
					"name": "attackerY",
					"type": "uint8"
				},
				{
					"indexed": true,
					"internalType": "address",
					"name": "defender",
					"type": "address"
				},
				{
					"indexed": false,
					"internalType": "uint8",
					"name": "defenderX",
					"type": "uint8"
				},
				{
					"indexed": false,
					"internalType": "uint8",
					"name": "defenderY",
					"type": "uint8"
				},
				{
					"indexed": false,
					"internalType": "bool",
					"name": "attackerWon",
					"type": "bool"
				}
			],
			"name": "TileAttacked",
			"type": "event"
		},
		{
			"inputs": [],
			"name": "ATTACK_COST_FACTOR",
			"outputs": [
				{
					"internalType": "uint256",
					"name": "",
					"type": "uint256"
				}
			],
			"stateMutability": "view",
			"type": "function"
		},
		{
			"inputs": [
				{
					"internalType": "uint16",
					"name": "",
					"type": "uint16"
				}
			],
			"name": "activeListingsByTile",
			"outputs": [
				{
					"internalType": "uint8",
					"name": "",
					"type": "uint8"
				}
			],
			"stateMutability": "view",
			"type": "function"
		},
		{
			"inputs": [
				{
					"internalType": "uint8",
					"name": "ax",
					"type": "uint8"
				},
				{
					"internalType": "uint8",
					"name": "ay",
					"type": "uint8"
				},
				{
					"internalType": "uint8",
					"name": "dx",
					"type": "uint8"
				},
				{
					"internalType": "uint8",
					"name": "dy",
					"type": "uint8"
				}
			],
			"name": "attackTile",
			"outputs": [],
			"stateMutability": "nonpayable",
			"type": "function"
		},
		{
			"inputs": [
				{
					"internalType": "uint8",
					"name": "x",
					"type": "uint8"
				},
				{
					"internalType": "uint8",
					"name": "y",
					"type": "uint8"
				},
				{
					"internalType": "uint8",
					"name": "resourceType",
					"type": "uint8"
				},
				{
					"internalType": "uint256",
					"name": "index",
					"type": "uint256"
				}
			],
			"name": "buyItem",
			"outputs": [],
			"stateMutability": "nonpayable",
			"type": "function"
		},
		{
			"inputs": [
				{
					"internalType": "uint8",
					"name": "sellerX",
					"type": "uint8"
				},
				{
					"internalType": "uint8",
					"name": "sellerY",
					"type": "uint8"
				},
				{
					"internalType": "uint8",
					"name": "resourceType",
					"type": "uint8"
				},
				{
					"internalType": "uint256",
					"name": "index",
					"type": "uint256"
				}
			],
			"name": "cancelListing",
			"outputs": [],
			"stateMutability": "nonpayable",
			"type": "function"
		},
		{
			"inputs": [],
			"name": "clanContract",
			"outputs": [
				{
					"internalType": "contract IClan",
					"name": "",
					"type": "address"
				}
			],
			"stateMutability": "view",
			"type": "function"
		},
		{
			"inputs": [
				{
					"internalType": "uint8",
					"name": "x",
					"type": "uint8"
				},
				{
					"internalType": "uint8",
					"name": "y",
					"type": "uint8"
				},
				{
					"internalType": "uint8",
					"name": "resourceType",
					"type": "uint8"
				}
			],
			"name": "getListingsByResourceType",
			"outputs": [
				{
					"components": [
						{
							"internalType": "uint8",
							"name": "sellerX",
							"type": "uint8"
						},
						{
							"internalType": "uint8",
							"name": "sellerY",
							"type": "uint8"
						},
						{
							"internalType": "uint8",
							"name": "resourceType",
							"type": "uint8"
						},
						{
							"internalType": "uint256",
							"name": "amount",
							"type": "uint256"
						},
						{
							"internalType": "uint256",
							"name": "price",
							"type": "uint256"
						}
					],
					"internalType": "struct MarketPlace.MarketItem[]",
					"name": "",
					"type": "tuple[]"
				}
			],
			"stateMutability": "view",
			"type": "function"
		},
		{
			"inputs": [
				{
					"internalType": "uint8",
					"name": "x",
					"type": "uint8"
				},
				{
					"internalType": "uint8",
					"name": "y",
					"type": "uint8"
				}
			],
			"name": "getMyResourceMessage",
			"outputs": [
				{
					"components": [
						{
							"internalType": "uint8",
							"name": "fromX",
							"type": "uint8"
						},
						{
							"internalType": "uint8",
							"name": "fromY",
							"type": "uint8"
						},
						{
							"internalType": "uint8",
							"name": "resourceType",
							"type": "uint8"
						},
						{
							"internalType": "uint256",
							"name": "amount",
							"type": "uint256"
						}
					],
					"internalType": "struct MarketPlace.ResourceMessage",
					"name": "",
					"type": "tuple"
				}
			],
			"stateMutability": "view",
			"type": "function"
		},
		{
			"inputs": [
				{
					"internalType": "uint8",
					"name": "x",
					"type": "uint8"
				},
				{
					"internalType": "uint8",
					"name": "y",
					"type": "uint8"
				}
			],
			"name": "getRecentTileWars",
			"outputs": [
				{
					"components": [
						{
							"internalType": "uint8",
							"name": "attackerX",
							"type": "uint8"
						},
						{
							"internalType": "uint8",
							"name": "attackerY",
							"type": "uint8"
						},
						{
							"internalType": "uint8",
							"name": "defenderX",
							"type": "uint8"
						},
						{
							"internalType": "uint8",
							"name": "defenderY",
							"type": "uint8"
						},
						{
							"internalType": "uint256",
							"name": "timestamp",
							"type": "uint256"
						},
						{
							"internalType": "bool",
							"name": "attackerWon",
							"type": "bool"
						},
						{
							"internalType": "uint256",
							"name": "attackerSoldiers",
							"type": "uint256"
						},
						{
							"internalType": "uint256",
							"name": "attackerCasualties",
							"type": "uint256"
						},
						{
							"internalType": "uint256",
							"name": "attackerPower",
							"type": "uint256"
						},
						{
							"internalType": "uint256",
							"name": "defenderSoldiers",
							"type": "uint256"
						},
						{
							"internalType": "uint256",
							"name": "defenderCasualties",
							"type": "uint256"
						},
						{
							"internalType": "uint256",
							"name": "defenderPower",
							"type": "uint256"
						},
						{
							"internalType": "uint256",
							"name": "resourcesStolen",
							"type": "uint256"
						}
					],
					"internalType": "struct MarketPlace.WarRecord[]",
					"name": "",
					"type": "tuple[]"
				}
			],
			"stateMutability": "view",
			"type": "function"
		},
		{
			"inputs": [],
			"name": "getRecentWarHistoryWithClans",
			"outputs": [
				{
					"components": [
						{
							"internalType": "uint8",
							"name": "attackerX",
							"type": "uint8"
						},
						{
							"internalType": "uint8",
							"name": "attackerY",
							"type": "uint8"
						},
						{
							"internalType": "uint8",
							"name": "defenderX",
							"type": "uint8"
						},
						{
							"internalType": "uint8",
							"name": "defenderY",
							"type": "uint8"
						},
						{
							"internalType": "uint256",
							"name": "timestamp",
							"type": "uint256"
						},
						{
							"internalType": "bool",
							"name": "attackerWon",
							"type": "bool"
						}
					],
					"internalType": "struct MarketPlace.WarRecordPublic[]",
					"name": "recentWars",
					"type": "tuple[]"
				},
				{
					"components": [
						{
							"internalType": "string",
							"name": "attackerClanNam",
							"type": "string"
						},
						{
							"internalType": "string",
							"name": "defenderClanNam",
							"type": "string"
						}
					],
					"internalType": "struct MarketPlace.WarRecordClan[]",
					"name": "recentClans",
					"type": "tuple[]"
				}
			],
			"stateMutability": "view",
			"type": "function"
		},
		{
			"inputs": [
				{
					"internalType": "uint8",
					"name": "x",
					"type": "uint8"
				},
				{
					"internalType": "uint8",
					"name": "y",
					"type": "uint8"
				},
				{
					"internalType": "uint256",
					"name": "fromTs",
					"type": "uint256"
				},
				{
					"internalType": "uint256",
					"name": "toTs",
					"type": "uint256"
				}
			],
			"name": "getTileWarsInRange",
			"outputs": [
				{
					"components": [
						{
							"internalType": "uint8",
							"name": "attackerX",
							"type": "uint8"
						},
						{
							"internalType": "uint8",
							"name": "attackerY",
							"type": "uint8"
						},
						{
							"internalType": "uint8",
							"name": "defenderX",
							"type": "uint8"
						},
						{
							"internalType": "uint8",
							"name": "defenderY",
							"type": "uint8"
						},
						{
							"internalType": "uint256",
							"name": "timestamp",
							"type": "uint256"
						},
						{
							"internalType": "bool",
							"name": "attackerWon",
							"type": "bool"
						},
						{
							"internalType": "uint256",
							"name": "attackerSoldiers",
							"type": "uint256"
						},
						{
							"internalType": "uint256",
							"name": "attackerCasualties",
							"type": "uint256"
						},
						{
							"internalType": "uint256",
							"name": "attackerPower",
							"type": "uint256"
						},
						{
							"internalType": "uint256",
							"name": "defenderSoldiers",
							"type": "uint256"
						},
						{
							"internalType": "uint256",
							"name": "defenderCasualties",
							"type": "uint256"
						},
						{
							"internalType": "uint256",
							"name": "defenderPower",
							"type": "uint256"
						},
						{
							"internalType": "uint256",
							"name": "resourcesStolen",
							"type": "uint256"
						}
					],
					"internalType": "struct MarketPlace.WarRecord[]",
					"name": "wars",
					"type": "tuple[]"
				}
			],
			"stateMutability": "view",
			"type": "function"
		},
		{
			"inputs": [
				{
					"internalType": "uint256",
					"name": "fromTs",
					"type": "uint256"
				},
				{
					"internalType": "uint256",
					"name": "toTs",
					"type": "uint256"
				}
			],
			"name": "getWarHistoryWithClansInRange",
			"outputs": [
				{
					"components": [
						{
							"internalType": "uint8",
							"name": "attackerX",
							"type": "uint8"
						},
						{
							"internalType": "uint8",
							"name": "attackerY",
							"type": "uint8"
						},
						{
							"internalType": "uint8",
							"name": "defenderX",
							"type": "uint8"
						},
						{
							"internalType": "uint8",
							"name": "defenderY",
							"type": "uint8"
						},
						{
							"internalType": "uint256",
							"name": "timestamp",
							"type": "uint256"
						},
						{
							"internalType": "bool",
							"name": "attackerWon",
							"type": "bool"
						}
					],
					"internalType": "struct MarketPlace.WarRecordPublic[]",
					"name": "wars",
					"type": "tuple[]"
				},
				{
					"components": [
						{
							"internalType": "string",
							"name": "attackerClanNam",
							"type": "string"
						},
						{
							"internalType": "string",
							"name": "defenderClanNam",
							"type": "string"
						}
					],
					"internalType": "struct MarketPlace.WarRecordClan[]",
					"name": "clans",
					"type": "tuple[]"
				}
			],
			"stateMutability": "view",
			"type": "function"
		},
		{
			"inputs": [
				{
					"internalType": "uint8",
					"name": "",
					"type": "uint8"
				},
				{
					"internalType": "uint8",
					"name": "",
					"type": "uint8"
				}
			],
			"name": "lastAttackTurn",
			"outputs": [
				{
					"internalType": "uint256",
					"name": "",
					"type": "uint256"
				}
			],
			"stateMutability": "view",
			"type": "function"
		},
		{
			"inputs": [
				{
					"internalType": "uint8",
					"name": "",
					"type": "uint8"
				},
				{
					"internalType": "uint8",
					"name": "",
					"type": "uint8"
				}
			],
			"name": "lastDefenseTurn",
			"outputs": [
				{
					"internalType": "uint256",
					"name": "",
					"type": "uint256"
				}
			],
			"stateMutability": "view",
			"type": "function"
		},
		{
			"inputs": [
				{
					"internalType": "uint8",
					"name": "x",
					"type": "uint8"
				},
				{
					"internalType": "uint8",
					"name": "y",
					"type": "uint8"
				},
				{
					"internalType": "uint8",
					"name": "resourceType",
					"type": "uint8"
				},
				{
					"internalType": "uint256",
					"name": "amount",
					"type": "uint256"
				},
				{
					"internalType": "uint256",
					"name": "price",
					"type": "uint256"
				}
			],
			"name": "listItemForSale",
			"outputs": [],
			"stateMutability": "nonpayable",
			"type": "function"
		},
		{
			"inputs": [],
			"name": "lopToken",
			"outputs": [
				{
					"internalType": "contract IHarmLop",
					"name": "",
					"type": "address"
				}
			],
			"stateMutability": "view",
			"type": "function"
		},
		{
			"inputs": [
				{
					"internalType": "uint8",
					"name": "fromX",
					"type": "uint8"
				},
				{
					"internalType": "uint8",
					"name": "fromY",
					"type": "uint8"
				},
				{
					"internalType": "uint8",
					"name": "x",
					"type": "uint8"
				},
				{
					"internalType": "uint8",
					"name": "y",
					"type": "uint8"
				}
			],
			"name": "maybeAutoListIfInactive",
			"outputs": [],
			"stateMutability": "nonpayable",
			"type": "function"
		},
		{
			"inputs": [
				{
					"internalType": "uint8",
					"name": "fromX",
					"type": "uint8"
				},
				{
					"internalType": "uint8",
					"name": "fromY",
					"type": "uint8"
				},
				{
					"internalType": "uint8",
					"name": "toX",
					"type": "uint8"
				},
				{
					"internalType": "uint8",
					"name": "toY",
					"type": "uint8"
				},
				{
					"internalType": "uint8",
					"name": "resourceType",
					"type": "uint8"
				},
				{
					"internalType": "uint256",
					"name": "amount",
					"type": "uint256"
				}
			],
			"name": "sendResources",
			"outputs": [],
			"stateMutability": "nonpayable",
			"type": "function"
		},
		{
			"inputs": [],
			"name": "theLand",
			"outputs": [
				{
					"internalType": "contract ITheLand",
					"name": "",
					"type": "address"
				}
			],
			"stateMutability": "view",
			"type": "function"
		},
		{
			"inputs": [],
			"name": "tileMapPhaser",
			"outputs": [
				{
					"internalType": "contract ITileMapPhaser",
					"name": "",
					"type": "address"
				}
			],
			"stateMutability": "view",
			"type": "function"
		}
	]
}