{
	"data": {
		"bytecode": {
			"linkReferences": {},
			"object": "60806040523480156200001157600080fd5b5060405162004801380380620048018339810160408190526200003491620000a5565b600080546001600160a01b039586166001600160a01b031991821617909155600180549486169482169490941790935560028054928516928416929092179091556003805491909316911617905562000102565b80516001600160a01b0381168114620000a057600080fd5b919050565b60008060008060808587031215620000bc57600080fd5b620000c78562000088565b9350620000d76020860162000088565b9250620000e76040860162000088565b9150620000f76060860162000088565b905092959194509250565b6146ef80620001126000396000f3fe608060405234801561001057600080fd5b50600436106101505760003560e01c806354adac10116100cd5780638e9197b411610081578063b0d7777411610066578063b0d7777414610377578063c49443ac1461038a578063ca0300791461039d57600080fd5b80638e9197b414610351578063999a2f7a1461036457600080fd5b806370d27e41116100b257806370d27e41146102e8578063763540cd146103135780638972ae261461033e57600080fd5b806354adac10146102c0578063697e71d2146102d557600080fd5b80632456028b1161012457806340ca262a1161010957806340ca262a1461027a5780634b4d9f891461028d5780634f264b03146102ad57600080fd5b80632456028b146102335780633e6abf421461023b57600080fd5b806275c0791461015557806303c59f79146101dd5780630d67f59e146101f257806310ac46331461021d575b600080fd5b610168610163366004613fb7565b6103b0565b6040805160ff9e8f1681529c8e1660208e01529a8d169a8c019a909a529a90971660608a0152608089019590955292151560a088015260c087019190915260e08601526101008501526101208401526101408301526101608201929092526101808101919091526101a0015b60405180910390f35b6101e561042f565b6040516101d49190613fd0565b600154610205906001600160a01b031681565b6040516001600160a01b0390911681526020016101d4565b610225606481565b6040519081526020016101d4565b6101e56106a7565b61024e6102493660046140b4565b61079e565b604080516001600160a01b03909516855260ff90931660208501529183015260608201526080016101d4565b6101e56102883660046140f5565b610804565b6102a061029b366004614112565b610b34565b6040516101d4919061412f565b600254610205906001600160a01b031681565b6102d36102ce366004614192565b610c4b565b005b6102d36102e336600461420b565b611289565b6102256102f6366004614267565b600660209081526000928352604080842090915290825290205481565b610225610321366004614267565b600560209081526000928352604080842090915290825290205481565b6101e561034c3660046140f5565b6116f6565b61022561035f3660046142a0565b611950565b6102d36103723660046142be565b611981565b600054610205906001600160a01b031681565b600354610205906001600160a01b031681565b6102d36103ab36600461430f565b6121c1565b600781815481106103c057600080fd5b60009182526020909120600a9091020180546001820154600283015460038401546004850154600586015460068701546007880154600889015460099099015460ff808a169b506101008a0481169a620100008b0482169a63010000009004821699989091169695949392918d565b606060008061044162093a8042614399565b6007549091505b80156104ac5781600761045c600184614399565b8154811061046c5761046c6143ac565b90600052602060002090600a02016001015410610495578261048d816143db565b93505061049a565b6104ac565b806104a4816143f5565b915050610448565b5060008267ffffffffffffffff8111156104c8576104c861440c565b60405190808252806020026020018201604052801561057257816020015b61055f604051806101a00160405280600060ff168152602001600060ff168152602001600060ff168152602001600060ff16815260200160008152602001600015158152602001600081526020016000815260200160008152602001600081526020016000815260200160008152602001600081525090565b8152602001906001900390816104e65790505b509050600080846007805490506105899190614399565b90505b60075481101561069d57600781815481106105a9576105a96143ac565b6000918252602091829020604080516101a081018252600a909302909101805460ff80821685526101008083048216968601969096526201000082048116938501939093526301000000900482166060840152600181015460808401526002810154909116151560a0830152600381015460c0830152600481015460e0830152600581015492820192909252600682015461012082015260078201546101408201526008820154610160820152600990910154610180820152838361066d816143db565b94508151811061067f5761067f6143ac565b60200260200101819052508080610695906143db565b91505061058c565b5090949350505050565b60606007805480602002602001604051908101604052809291908181526020016000905b82821015610795576000848152602090819020604080516101a081018252600a8602909201805460ff808216855261010080830482168688015262010000830482169486019490945263010000009091048116606085015260018083015460808601526002830154909116151560a0850152600382015460c0850152600482015460e08501526005820154928401929092526006810154610120840152600781015461014084015260088101546101608401526009015461018083015290835290920191016106cb565b50505050905090565b600460205281600052604060002081815481106107ba57600080fd5b60009182526020909120600390910201805460018201546002909201546001600160a01b03821694507401000000000000000000000000000000000000000090910460ff16925084565b6001600160a01b038116600090815260086020908152604080832080548251818502810185019093528083526060949383018282801561086357602002820191906000526020600020905b81548152602001906001019080831161084f575b5050505050905060008062093a804261087c9190614399565b905060005b83518110156108ee5781600785838151811061089f5761089f6143ac565b6020026020010151815481106108b7576108b76143ac565b90600052602060002090600a020160010154106108dc57826108d8816143db565b9350505b806108e6816143db565b915050610881565b5060008267ffffffffffffffff81111561090a5761090a61440c565b6040519080825280602002602001820160405280156109b457816020015b6109a1604051806101a00160405280600060ff168152602001600060ff168152602001600060ff168152602001600060ff16815260200160008152602001600015158152602001600081526020016000815260200160008152602001600081526020016000815260200160008152602001600081525090565b8152602001906001900390816109285790505b5090506000805b8551811015610b28578360078783815181106109d9576109d96143ac565b6020026020010151815481106109f1576109f16143ac565b90600052602060002090600a02016001015410610b16576007868281518110610a1c57610a1c6143ac565b602002602001015181548110610a3457610a346143ac565b6000918252602091829020604080516101a081018252600a909302909101805460ff80821685526101008083048216968601969096526201000082048116938501939093526301000000900482166060840152600181015460808401526002810154909116151560a0830152600381015460c0830152600481015460e08301526005810154928201929092526006820154610120820152600782015461014082015260088201546101608201526009909101546101808201528383610af8816143db565b945081518110610b0a57610b0a6143ac565b60200260200101819052505b80610b20816143db565b9150506109bb565b50909695505050505050565b606060018260ff1610158015610b4e575060088260ff1611155b610b9f5760405162461bcd60e51b815260206004820152601560248201527f496e76616c6964207265736f757263652074797065000000000000000000000060448201526064015b60405180910390fd5b60ff8216600090815260046020908152604080832080548251818502810185019093528083529193909284015b82821015610c40576000848152602090819020604080516080810182526003860290920180546001600160a01b038116845274010000000000000000000000000000000000000000900460ff1683850152600180820154928401929092526002015460608301529083529092019101610bcc565b505050509050919050565b6002546040517f8a88895300000000000000000000000000000000000000000000000000000000815260ff8089166004830152871660248201528791879133916001600160a01b031690638a88895390604401602060405180830381865afa158015610cbb573d6000803e3d6000fd5b505050506040513d601f19601f82011682018060405250810190610cdf919061443b565b6001600160a01b031614610d355760405162461bcd60e51b815260206004820152601860248201527f596f7520646f206e6f74206f776e20746869732074696c6500000000000000006044820152606401610b96565b6002546040517f8a88895300000000000000000000000000000000000000000000000000000000815260ff8089166004830152871660248201526000916001600160a01b031690638a88895390604401602060405180830381865afa158015610da2573d6000803e3d6000fd5b505050506040513d601f19601f82011682018060405250810190610dc6919061443b565b90506001600160a01b038116610e1e5760405162461bcd60e51b815260206004820152601960248201527f5461726765742074696c6520697320756e6f63637570696564000000000000006044820152606401610b96565b60018560ff1610158015610e36575060088560ff1611155b610e825760405162461bcd60e51b815260206004820152601560248201527f496e76616c6964207265736f75726365207479706500000000000000000000006044820152606401610b96565b601e841015610ed35760405162461bcd60e51b815260206004820152601460248201527f416d6f756e74206d757374206265203e3d2033300000000000000000000000006044820152606401610b96565b6000610edf89886126c7565b610ee98b8a6126c7565b610ef39190614458565b905060008160ff16118015610f0c575060268160ff1611155b610f585760405162461bcd60e51b815260206004820152601060248201527f496e76616c69642064697374616e6365000000000000000000000000000000006044820152606401610b96565b6305f5e1006000610f6c60ff841683614471565b6001546040517f23b872dd000000000000000000000000000000000000000000000000000000008152336004820152306024820152604481018390529192506001600160a01b0316906323b872dd906064016020604051808303816000875af1158015610fdd573d6000803e3d6000fd5b505050506040513d601f19601f820116820180604052508101906110019190614488565b61104d5760405162461bcd60e51b815260206004820152601760248201527f4c4f5020666565207472616e73666572206661696c65640000000000000000006044820152606401610b96565b6001546040517f42966c68000000000000000000000000000000000000000000000000000000008152600481018390526001600160a01b03909116906342966c68906024016020604051808303816000875af11580156110b1573d6000803e3d6000fd5b505050506040513d601f19601f820116820180604052508101906110d59190614488565b6111215760405162461bcd60e51b815260206004820152600f60248201527f4c4f50206275726e206661696c656400000000000000000000000000000000006044820152606401610b96565b6000601e6111328960ff8716614471565b61113c91906144aa565b6000549091506001600160a01b0316633e5f28578e8e8c61115d868e6144e5565b6040517fffffffff0000000000000000000000000000000000000000000000000000000060e087901b16815260ff948516600482015292841660248401529216604482015260648101919091526000608482015260a401600060405180830381600087803b1580156111ce57600080fd5b505af11580156111e2573d6000803e3d6000fd5b5050600054604051633e5f285760e01b81526001600160a01b039091169250633e5f28579150611248908e908e908e908e9060019060040160ff958616815293851660208501529190931660408301526060820192909252901515608082015260a00190565b600060405180830381600087803b15801561126257600080fd5b505af1158015611276573d6000803e3d6000fd5b5050505050505050505050505050505050565b6002546040517f8a88895300000000000000000000000000000000000000000000000000000000815260ff8087166004830152851660248201528591859133916001600160a01b031690638a88895390604401602060405180830381865afa1580156112f9573d6000803e3d6000fd5b505050506040513d601f19601f8201168201806040525081019061131d919061443b565b6001600160a01b0316146113735760405162461bcd60e51b815260206004820152601860248201527f596f7520646f206e6f74206f776e20746869732074696c6500000000000000006044820152606401610b96565b6002546040517f8a88895300000000000000000000000000000000000000000000000000000000815260ff8087166004830152851660248201526000916001600160a01b031690638a88895390604401602060405180830381865afa1580156113e0573d6000803e3d6000fd5b505050506040513d601f19601f82011682018060405250810190611404919061443b565b90506001600160a01b03811661145c5760405162461bcd60e51b815260206004820152600b60248201527f4e6f20646566656e6465720000000000000000000000000000000000000000006044820152606401610b96565b61146a8787878733866126f8565b611472613e1a565b60ff88811680835288821660208401819052888316604080860191909152928816606085015260005492517fbd638378000000000000000000000000000000000000000000000000000000008152600481019290925260248201526001600160a01b039091169063bd638378906044016101e060405180830381865afa158015611500573d6000803e3d6000fd5b505050506040513d601f19601f82011682018060405250810190611524919061456b565b60808201526000546040517fbd63837800000000000000000000000000000000000000000000000000000000815260ff8089166004830152871660248201526001600160a01b039091169063bd638378906044016101e060405180830381865afa158015611596573d6000803e3d6000fd5b505050506040513d601f19601f820116820180604052508101906115ba919061456b565b60a082015260808101516101400151600a111561163f5760405162461bcd60e51b815260206004820152602d60248201527f4e656564206174206c65617374203130206f6666656e7369766520736f6c646960448201527f65727320746f2061747461636b000000000000000000000000000000000000006064820152608401610b96565b600061164b88876126c7565b6116558a896126c7565b61165f9190614458565b90506116718989838560800151612c06565b61168582608001518360a001518989612f0f565b60e084015260c0830152600061169a83613061565b905060008360e001518460c0015111156116ba576116b784613303565b90505b6116c2613f6d565b8281526020810182905260e085015160c08601511160408201526116e885823389613469565b505050505050505050505050565b6001600160a01b038116600090815260086020908152604080832080548251818502810185019093528083526060949383018282801561175557602002820191906000526020600020905b815481526020019060010190808311611741575b505050505090506000815167ffffffffffffffff8111156117785761177861440c565b60405190808252806020026020018201604052801561182257816020015b61180f604051806101a00160405280600060ff168152602001600060ff168152602001600060ff168152602001600060ff16815260200160008152602001600015158152602001600081526020016000815260200160008152602001600081526020016000815260200160008152602001600081525090565b8152602001906001900390816117965790505b50905060005b8251811015611948576007838281518110611845576118456143ac565b60200260200101518154811061185d5761185d6143ac565b6000918252602091829020604080516101a081018252600a909302909101805460ff80821685526101008083048216968601969096526201000082048116938501939093526301000000900482166060840152600181015460808401526002810154909116151560a0830152600381015460c0830152600481015460e0830152600581015492820192909252600682015461012082015260078201546101408201526008820154610160820152600990910154610180820152825183908390811061192a5761192a6143ac565b60200260200101819052508080611940906143db565b915050611828565b509392505050565b6008602052816000526040600020818154811061196c57600080fd5b90600052602060002001600091509150505481565b6002546040517f8a88895300000000000000000000000000000000000000000000000000000000815260ff8087166004830152851660248201528591859133916001600160a01b031690638a88895390604401602060405180830381865afa1580156119f1573d6000803e3d6000fd5b505050506040513d601f19601f82011682018060405250810190611a15919061443b565b6001600160a01b031614611a6b5760405162461bcd60e51b815260206004820152601860248201527f596f7520646f206e6f74206f776e20746869732074696c6500000000000000006044820152606401610b96565b6000546040517f5e75968e0000000000000000000000000000000000000000000000000000000081523360048201526001600160a01b0390911690635e75968e90602401602060405180830381865afa158015611acc573d6000803e3d6000fd5b505050506040513d601f19601f82011682018060405250810190611af09190614488565b611b3c5760405162461bcd60e51b815260206004820152601660248201527f596f75206d75737420686176652061204d61726b6574000000000000000000006044820152606401610b96565b60ff84166000908152600460205260409020548310611b9d5760405162461bcd60e51b815260206004820152600d60248201527f496e76616c696420696e646578000000000000000000000000000000000000006044820152606401610b96565b60018460ff1610158015611bb5575060088460ff1611155b611c015760405162461bcd60e51b815260206004820152601560248201527f496e76616c6964207265736f75726365207479706500000000000000000000006044820152606401610b96565b60ff84166000908152600460205260408120805485908110611c2557611c256143ac565b600091825260208083206040805160808101825260039490940290910180546001600160a01b0381168086527401000000000000000000000000000000000000000090910460ff1693850193909352600181015491840182905260020154606084018190529294509192606e611c9c856064614471565b611ca691906144aa565b90506000611cb48286614399565b6001546040517f23b872dd000000000000000000000000000000000000000000000000000000008152336004820152306024820152604481018890529192506001600160a01b0316906323b872dd906064016020604051808303816000875af1158015611d25573d6000803e3d6000fd5b505050506040513d601f19601f82011682018060405250810190611d499190614488565b611dbb5760405162461bcd60e51b815260206004820152602160248201527f546f6b656e207472616e7366657220746f20636f6e7472616374206661696c6560448201527f64000000000000000000000000000000000000000000000000000000000000006064820152608401610b96565b6001546040517fa9059cbb0000000000000000000000000000000000000000000000000000000081526001600160a01b038581166004830152602482018590529091169063a9059cbb906044016020604051808303816000875af1158015611e27573d6000803e3d6000fd5b505050506040513d601f19601f82011682018060405250810190611e4b9190614488565b611e975760405162461bcd60e51b815260206004820152601960248201527f5472616e7366657220746f2073656c6c6572206661696c6564000000000000006044820152606401610b96565b6001546040517f42966c68000000000000000000000000000000000000000000000000000000008152600481018390526001600160a01b03909116906342966c68906024016020604051808303816000875af1158015611efb573d6000803e3d6000fd5b505050506040513d601f19601f82011682018060405250810190611f1f9190614488565b611f6b5760405162461bcd60e51b815260206004820152600f60248201527f4c4f50206275726e206661696c656400000000000000000000000000000000006044820152606401610b96565b600054604051633e5f285760e01b815260ff808f166004830152808e1660248301528c16604482015260648101869052600160848201526001600160a01b0390911690633e5f28579060a401600060405180830381600087803b158015611fd157600080fd5b505af1158015611fe5573d6000803e3d6000fd5b5050505060ff8a166000908152600460205260409020805461200990600190614399565b81548110612019576120196143ac565b9060005260206000209060030201600460008c60ff1660ff1681526020019081526020016000208a81548110612051576120516143ac565b6000918252602080832084546003939093020180546001600160a01b039093167fffffffffffffffffffffffff000000000000000000000000000000000000000084168117825585547fffffffffffffffffffffff00000000000000000000000000000000000000000090941617740100000000000000000000000000000000000000009384900460ff908116909402178155600180860154908201556002948501549401939093558c1681526004909152604090208054806121165761211661463b565b60008281526020812060036000199093019283020180547fffffffffffffffffffffff0000000000000000000000000000000000000000001681556001810182905560020155905560405160ff8b16906001600160a01b0385169033907fcb8e9dce1a8c67703d11d2b78043345960bab3c035aa061005630270b28c89ec906121ab9089908b90918252602082015260400190565b60405180910390a4505050505050505050505050565b6002546040517f8a88895300000000000000000000000000000000000000000000000000000000815260ff8088166004830152861660248201528691869133916001600160a01b031690638a88895390604401602060405180830381865afa158015612231573d6000803e3d6000fd5b505050506040513d601f19601f82011682018060405250810190612255919061443b565b6001600160a01b0316146122ab5760405162461bcd60e51b815260206004820152601860248201527f596f7520646f206e6f74206f776e20746869732074696c6500000000000000006044820152606401610b96565b6000546040517f5e75968e0000000000000000000000000000000000000000000000000000000081523360048201526001600160a01b0390911690635e75968e90602401602060405180830381865afa15801561230c573d6000803e3d6000fd5b505050506040513d601f19601f820116820180604052508101906123309190614488565b61237c5760405162461bcd60e51b815260206004820152601660248201527f596f75206d75737420686176652061204d61726b6574000000000000000000006044820152606401610b96565b629896808310156123cf5760405162461bcd60e51b815260206004820152601e60248201527f5072696365206d7573742062652067726561746572207468616e2074656e00006044820152606401610b96565b60018560ff16101580156123e7575060088560ff1611155b6124335760405162461bcd60e51b815260206004820152601560248201527f496e76616c6964207265736f75726365207479706500000000000000000000006044820152606401610b96565b60048560ff16116124a557612710841015801561245457506305f5e1008411155b6124a05760405162461bcd60e51b815260206004820152601b60248201527f496e76616c696420616d6f756e7420666f72207265736f7572636500000000006044820152606401610b96565b61252a565b606484101580156124b857506127108411155b61252a5760405162461bcd60e51b815260206004820152602560248201527f496e76616c696420616d6f756e7420666f72206d696c6974617279206571756960448201527f706d656e740000000000000000000000000000000000000000000000000000006064820152608401610b96565b60008054604051633e5f285760e01b815260ff808b166004830152808a166024830152881660448201526064810187905260848101929092526001600160a01b031690633e5f28579060a401600060405180830381600087803b15801561259057600080fd5b505af11580156125a4573d6000803e3d6000fd5b505050506000600a846125b791906144aa565b6125c190856144e5565b60ff80881660008181526004602090815260408083208151608081018352338082528185018781528285018f8152606084018b8152855460018181018855968a5297909820935160039097029093018054915190991674010000000000000000000000000000000000000000027fffffffffffffffffffffff0000000000000000000000000000000000000000009091166001600160a01b0396909616959095179490941787555190860155915160029094019390935551929350917f9d2fa11e70f4c72f4275d772a6e09bbd83b3800a6b4f2351a7ac06df8db5169e906126b59089908990918252602082015260400190565b60405180910390a35050505050505050565b60008160ff168360ff16116126e5576126e0838361466a565b6126ef565b6126ef828461466a565b90505b92915050565b816001600160a01b0316816001600160a01b0316036127595760405162461bcd60e51b815260206004820152601560248201527f43616e27742061747461636b20796f757273656c6600000000000000000000006044820152606401610b96565b6003546040517f7ab9e7fe00000000000000000000000000000000000000000000000000000000815260ff8089166004830152871660248201526000916001600160a01b031690637ab9e7fe90604401602060405180830381865afa1580156127c6573d6000803e3d6000fd5b505050506040513d601f19601f820116820180604052508101906127ea9190614683565b6003546040517f7ab9e7fe00000000000000000000000000000000000000000000000000000000815260ff8089166004830152871660248201529192506000916001600160a01b0390911690637ab9e7fe90604401602060405180830381865afa15801561285c573d6000803e3d6000fd5b505050506040513d601f19601f820116820180604052508101906128809190614683565b905060ff82161580612893575060ff8116155b806128a457508060ff168260ff1614155b6129165760405162461bcd60e51b815260206004820152602760248201527f43616e6e6f742061747461636b2061206d656d626572206f6620796f7572206f60448201527f776e20636c616e000000000000000000000000000000000000000000000000006064820152608401610b96565b600061292288876126c7565b61292c8a896126c7565b6129369190614458565b905060008160ff1611801561294f575060268160ff1611155b61299b5760405162461bcd60e51b815260206004820152601b60248201527f54617267657420746f6f20666172206f722073616d652074696c6500000000006044820152606401610b96565b60ff808a166000908152600560209081526040808320938c16835292905220546129c79061012c6144e5565b6000546040517f41ede44f00000000000000000000000000000000000000000000000000000000815260ff808d1660048301528b1660248201526001600160a01b03909116906341ede44f90604401602060405180830381865afa158015612a33573d6000803e3d6000fd5b505050506040513d601f19601f82011682018060405250810190612a5791906146a0565b1015612acb5760405162461bcd60e51b815260206004820152602260248201527f4e6f7420656e6f756768207475726e732073696e6365206c617374206174746160448201527f636b0000000000000000000000000000000000000000000000000000000000006064820152608401610b96565b60ff8088166000908152600660209081526040808320938a1683529290522054612af79061012c6144e5565b6000546040517f41ede44f00000000000000000000000000000000000000000000000000000000815260ff808b166004830152891660248201526001600160a01b03909116906341ede44f90604401602060405180830381865afa158015612b63573d6000803e3d6000fd5b505050506040513d601f19601f82011682018060405250810190612b8791906146a0565b1015612bfb5760405162461bcd60e51b815260206004820152602560248201527f446566656e64657220697320756e64657220636f6f6c646f776e2070726f746560448201527f6374696f6e0000000000000000000000000000000000000000000000000000006064820152608401610b96565b505050505050505050565b6000816101600151826101400151612c1e91906144e5565b612c2c60ff85166064614471565b612c369190614471565b6000549091506001600160a01b0316633e5f2857868660016064612c5b876028614471565b612c6591906144aa565b6040517fffffffff0000000000000000000000000000000000000000000000000000000060e087901b16815260ff948516600482015292841660248401529216604482015260648101919091526000608482015260a401600060405180830381600087803b158015612cd657600080fd5b505af1158015612cea573d6000803e3d6000fd5b50506000546001600160a01b03169150633e5f28579050868660026064612d1287601e614471565b612d1c91906144aa565b6040517fffffffff0000000000000000000000000000000000000000000000000000000060e087901b16815260ff948516600482015292841660248401529216604482015260648101919091526000608482015260a401600060405180830381600087803b158015612d8d57600080fd5b505af1158015612da1573d6000803e3d6000fd5b50506000546001600160a01b03169150633e5f28579050868660036064612dc9876014614471565b612dd391906144aa565b6040517fffffffff0000000000000000000000000000000000000000000000000000000060e087901b16815260ff948516600482015292841660248401529216604482015260648101919091526000608482015260a401600060405180830381600087803b158015612e4457600080fd5b505af1158015612e58573d6000803e3d6000fd5b50506000546001600160a01b03169150633e5f28579050868660046064612e8087600a614471565b612e8a91906144aa565b6040517fffffffff0000000000000000000000000000000000000000000000000000000060e087901b16815260ff948516600482015292841660248401529216604482015260648101919091526000608482015260a401600060405180830381600087803b158015612efb57600080fd5b505af1158015612bfb573d6000803e3d6000fd5b600080546040517f2a490ae800000000000000000000000000000000000000000000000000000000815260ff808616600483015284166024820152829182916001600160a01b0390911690632a490ae890604401602060405180830381865afa158015612f80573d6000803e3d6000fd5b505050506040513d601f19601f82011682018060405250810190612fa491906146a0565b90506000876080015161ffff1688610180015160ff168961016001518a61014001516002612fd29190614471565b612fdc91906144e5565b612fe691906144e5565b612ff091906144e5565b90506000612fff836064614471565b886080015161ffff16896101a0015160ff168a610160015160026130239190614471565b8b610140015161303391906144e5565b61303d91906144e5565b61304791906144e5565b61305191906144e5565b9199919850909650505050505050565b61308c6040518060800160405280600081526020016000815260200160008152602001600081525090565b60006130aa83608001518460a001518560c001518660e00151613a3c565b80519091501561313b5760008054845160208601518451604051633e5f285760e01b815260ff938416600482015292909116602483015260096044830152606482015260848101929092526001600160a01b031690633e5f28579060a401600060405180830381600087803b15801561312257600080fd5b505af1158015613136573d6000803e3d6000fd5b505050505b6020810151156131cf5760008054845160208087015190850151604051633e5f285760e01b815260ff9384166004820152929091166024830152600a6044830152606482015260848101929092526001600160a01b031690633e5f28579060a401600060405180830381600087803b1580156131b657600080fd5b505af11580156131ca573d6000803e3d6000fd5b505050505b60408101511561326657600080546040858101516060870151858301519251633e5f285760e01b815260ff92831660048201529116602482015260096044820152606481019190915260848101929092526001600160a01b031690633e5f28579060a401600060405180830381600087803b15801561324d57600080fd5b505af1158015613261573d6000803e3d6000fd5b505050505b6060810151156126f25760008054604085810151606080880151908601519251633e5f285760e01b815260ff928316600482015291166024820152600a6044820152606481019190915260848101929092526001600160a01b031690633e5f28579060a401600060405180830381600087803b1580156132e557600080fd5b505af11580156132f9573d6000803e3d6000fd5b5050505092915050565b6000808260e001518360c001511161332e578260c001518360e001516133299190614399565b613342565b8260e001518360c001516133429190614399565b905060008360e001518460c0015161335a91906144e5565b905060008161336a846064614471565b61337491906144aa565b9050600061338f61338683601e6144e5565b600a603c613c86565b90506133b960018760a0015160000151886000015189602001518a604001518b6060015187613cb0565b6133c390866144e5565b94506133ed60028760a0015160200151886000015189602001518a604001518b6060015187613cb0565b6133f790866144e5565b945061342160038760a0015160400151886000015189602001518a604001518b6060015187613cb0565b61342b90866144e5565b945061345560048760a0015160600151886000015189602001518a604001518b6060015187613cb0565b61345f90866144e5565b9695505050505050565b600054845160208601516040517f41ede44f00000000000000000000000000000000000000000000000000000000815260ff9283166004820152911660248201526001600160a01b03909116906341ede44f90604401602060405180830381865afa1580156134dc573d6000803e3d6000fd5b505050506040513d601f19601f8201168201806040525081019061350091906146a0565b845160ff9081166000908152600560209081526040808320828a015185168452909152808220939093555482870151606088015193517f41ede44f00000000000000000000000000000000000000000000000000000000815290831660048201529290911660248301526001600160a01b0316906341ede44f90604401602060405180830381865afa15801561359a573d6000803e3d6000fd5b505050506040513d601f19601f820116820180604052508101906135be91906146a0565b60408581015160ff90811660009081526006602090815283822060608a0151841683528152838220949094555487519388015192517f7659bc600000000000000000000000000000000000000000000000000000000081529382166004850152911660248301526001600160a01b031690637659bc6090604401600060405180830381600087803b15801561365257600080fd5b505af1158015613666573d6000803e3d6000fd5b5050600054604087810151606089015191517f7659bc6000000000000000000000000000000000000000000000000000000000815260ff9182166004820152911660248201526001600160a01b039091169250637659bc609150604401600060405180830381600087803b1580156136dd57600080fd5b505af11580156136f1573d6000803e3d6000fd5b5050505060008460e001518560c001511190506007604051806101a00160405280876000015160ff168152602001876020015160ff168152602001876040015160ff168152602001876060015160ff168152602001428152602001866040015115158152602001876080015161016001518860800151610140015161377691906144e5565b81528651602081810151915192019161378f91906144e5565b81526020018760c0015181526020018760a0015161016001518860a0015161014001516137bc91906144e5565b81526020018660000151606001518760000151604001516137dd91906144e5565b815260e0888101516020808401919091528881015160409384015284546001808201875560009687528287208651600a909302018054878501518888015160608a015160ff9687167fffffffffffffffffffffffffffffffffffffffffffffffffffffffffffff0000909416939093176101009287168302177fffffffffffffffffffffffffffffffffffffffffffffffffffffffff0000ffff1662010000918716919091027fffffffffffffffffffffffffffffffffffffffffffffffffffffffff00ffffff16176301000000959092169490940217815560808701518183015560a08701516002820180547fffffffffffffffffffffffffffffffffffffffffffffffffffffffffffffff001691151591909117905560c087015160038201559386015160048501559085015160058401556101208501516006840155610140850151600780850191909155610160860151600880860191909155610180909601516009909401939093556001600160a01b0389168652939052922091546139679190614399565b81546001818101845560009384526020808520909201929092556001600160a01b038516835260089052604090912060075490916139a491614399565b8154600181018355600092835260209283902001558551868201516040808901516060808b0151835160ff96871681529486169685019690965290841691830191909152919092169082015281151560808201526001600160a01b0383811691908516907f47389018a4bfd5e1ef612f1fe9082cc3e3675be36e77743a6bfaf0ea011d586f9060a00160405180910390a35050505050565b613a676040518060800160405280600081526020016000815260200160008152602001600081525090565b6000828411613a7f57613a7a8484614399565b613a89565b613a898385614399565b90506000613a9784866144e5565b9050600081613aa7846064614471565b613ab191906144aa565b905084861115613baa576064613ae66002613acc8484614399565b613ad691906144aa565b613ae19060196144e5565b613dde565b896101400151613af69190614471565b613b0091906144aa565b84526064613b286004613b138484614399565b613b1d91906144aa565b613ae190600a6144e5565b896101600151613b389190614471565b613b4291906144aa565b60208501526064613b57613ae18360326144e5565b886101400151613b679190614471565b613b7191906144aa565b60408501526064613b86613ae18360326144e5565b886101600151613b969190614471565b613ba091906144aa565b6060850152613c7b565b6064613bba613ae18360326144e5565b896101400151613bca9190614471565b613bd491906144aa565b84526064613be6613ad66002846144aa565b896101600151613bf69190614471565b613c0091906144aa565b60208501526064613c2b6004613c168484614399565b613c2091906144aa565b613ae190600f6144e5565b886101400151613c3b9190614471565b613c4591906144aa565b60408501526064613c5b6004613b138484614399565b886101600151613c6b9190614471565b613c7591906144aa565b60608501525b505050949350505050565b600082841015613c97575081613ca9565b81841115613ca6575080613ca9565b50825b9392505050565b60006001871115613dd3576064613cc78389614471565b613cd191906144aa565b60008054604051633e5f285760e01b815260ff808916600483015280881660248301528c1660448201526064810184905260848101929092529192506001600160a01b0390911690633e5f28579060a401600060405180830381600087803b158015613d3c57600080fd5b505af1158015613d50573d6000803e3d6000fd5b5050600054604051633e5f285760e01b815260ff808b166004830152808a1660248301528c16604482015260648101859052600160848201526001600160a01b039091169250633e5f2857915060a401600060405180830381600087803b158015613dba57600080fd5b505af1158015613dce573d6000803e3d6000fd5b505050505b979650505050505050565b60006126f2613dee83600a613df5565b605a613e0b565b6000818311613e0457816126ef565b5090919050565b6000818310613e0457816126ef565b604051806101000160405280600060ff168152602001600060ff168152602001600060ff168152602001600060ff168152602001613ed1604051806101e0016040528060008152602001600081526020016000815260200160008152602001600061ffff16815260200160008152602001600081526020016000815260200160008152602001600081526020016000815260200160008152602001600060ff168152602001600060ff168152602001600081525090565b8152602001613f59604051806101e0016040528060008152602001600081526020016000815260200160008152602001600061ffff16815260200160008152602001600081526020016000815260200160008152602001600081526020016000815260200160008152602001600060ff168152602001600060ff168152602001600081525090565b815260200160008152602001600081525090565b6040518060600160405280613fa36040518060800160405280600081526020016000815260200160008152602001600081525090565b815260006020820181905260409091015290565b600060208284031215613fc957600080fd5b5035919050565b602080825282518282018190526000919060409081850190868401855b82811015614095578151805160ff90811686528782015181168887015286820151811687870152606080830151909116908601526080808201519086015260a08082015115159086015260c0808201519086015260e08082015190860152610100808201519086015261012080820151908601526101408082015190860152610160808201519086015261018090810151908501526101a09093019290850190600101613fed565b5091979650505050505050565b60ff811681146140b157600080fd5b50565b600080604083850312156140c757600080fd5b82356140d2816140a2565b946020939093013593505050565b6001600160a01b03811681146140b157600080fd5b60006020828403121561410757600080fd5b8135613ca9816140e0565b60006020828403121561412457600080fd5b8135613ca9816140a2565b602080825282518282018190526000919060409081850190868401855b8281101561409557815180516001600160a01b031685528681015160ff16878601528581015186860152606090810151908501526080909301929085019060010161414c565b60008060008060008060c087890312156141ab57600080fd5b86356141b6816140a2565b955060208701356141c6816140a2565b945060408701356141d6816140a2565b935060608701356141e6816140a2565b925060808701356141f6816140a2565b8092505060a087013590509295509295509295565b6000806000806080858703121561422157600080fd5b843561422c816140a2565b9350602085013561423c816140a2565b9250604085013561424c816140a2565b9150606085013561425c816140a2565b939692955090935050565b6000806040838503121561427a57600080fd5b8235614285816140a2565b91506020830135614295816140a2565b809150509250929050565b600080604083850312156142b357600080fd5b82356140d2816140e0565b600080600080608085870312156142d457600080fd5b84356142df816140a2565b935060208501356142ef816140a2565b925060408501356142ff816140a2565b9396929550929360600135925050565b600080600080600060a0868803121561432757600080fd5b8535614332816140a2565b94506020860135614342816140a2565b93506040860135614352816140a2565b94979396509394606081013594506080013592915050565b7f4e487b7100000000000000000000000000000000000000000000000000000000600052601160045260246000fd5b818103818111156126f2576126f261436a565b7f4e487b7100000000000000000000000000000000000000000000000000000000600052603260045260246000fd5b600060001982036143ee576143ee61436a565b5060010190565b6000816144045761440461436a565b506000190190565b7f4e487b7100000000000000000000000000000000000000000000000000000000600052604160045260246000fd5b60006020828403121561444d57600080fd5b8151613ca9816140e0565b60ff81811683821601908111156126f2576126f261436a565b80820281158282048414176126f2576126f261436a565b60006020828403121561449a57600080fd5b81518015158114613ca957600080fd5b6000826144e0577f4e487b7100000000000000000000000000000000000000000000000000000000600052601260045260246000fd5b500490565b808201808211156126f2576126f261436a565b6040516101e0810167ffffffffffffffff81118282101715614543577f4e487b7100000000000000000000000000000000000000000000000000000000600052604160045260246000fd5b60405290565b805161ffff8116811461455b57600080fd5b919050565b805161455b816140a2565b60006101e0828403121561457e57600080fd5b6145866144f8565b825181526020830151602082015260408301516040820152606083015160608201526145b460808401614549565b608082015260a0838101519082015260c0808401519082015260e080840151908201526101008084015190820152610120808401519082015261014080840151908201526101608084015190820152610180614611818501614560565b908201526101a0614623848201614560565b908201526101c0928301519281019290925250919050565b7f4e487b7100000000000000000000000000000000000000000000000000000000600052603160045260246000fd5b60ff82811682821603908111156126f2576126f261436a565b60006020828403121561469557600080fd5b8151613ca9816140a2565b6000602082840312156146b257600080fd5b505191905056fea2646970667358221220cd7572b8137d15a4dd231fe654144e674a756332dc6d749fbdf8ba7055f975c364736f6c63430008120033",
			"opcodes": "PUSH1 0x80 PUSH1 0x40 MSTORE CALLVALUE DUP1 ISZERO PUSH3 0x11 JUMPI PUSH1 0x0 DUP1 REVERT JUMPDEST POP PUSH1 0x40 MLOAD PUSH3 0x4801 CODESIZE SUB DUP1 PUSH3 0x4801 DUP4 CODECOPY DUP2 ADD PUSH1 0x40 DUP2 SWAP1 MSTORE PUSH3 0x34 SWAP2 PUSH3 0xA5 JUMP JUMPDEST PUSH1 0x0 DUP1 SLOAD PUSH1 0x1 PUSH1 0x1 PUSH1 0xA0 SHL SUB SWAP6 DUP7 AND PUSH1 0x1 PUSH1 0x1 PUSH1 0xA0 SHL SUB NOT SWAP2 DUP3 AND OR SWAP1 SWAP2 SSTORE PUSH1 0x1 DUP1 SLOAD SWAP5 DUP7 AND SWAP5 DUP3 AND SWAP5 SWAP1 SWAP5 OR SWAP1 SWAP4 SSTORE PUSH1 0x2 DUP1 SLOAD SWAP3 DUP6 AND SWAP3 DUP5 AND SWAP3 SWAP1 SWAP3 OR SWAP1 SWAP2 SSTORE PUSH1 0x3 DUP1 SLOAD SWAP2 SWAP1 SWAP4 AND SWAP2 AND OR SWAP1 SSTORE PUSH3 0x102 JUMP JUMPDEST DUP1 MLOAD PUSH1 0x1 PUSH1 0x1 PUSH1 0xA0 SHL SUB DUP2 AND DUP2 EQ PUSH3 0xA0 JUMPI PUSH1 0x0 DUP1 REVERT JUMPDEST SWAP2 SWAP1 POP JUMP JUMPDEST PUSH1 0x0 DUP1 PUSH1 0x0 DUP1 PUSH1 0x80 DUP6 DUP8 SUB SLT ISZERO PUSH3 0xBC JUMPI PUSH1 0x0 DUP1 REVERT JUMPDEST PUSH3 0xC7 DUP6 PUSH3 0x88 JUMP JUMPDEST SWAP4 POP PUSH3 0xD7 PUSH1 0x20 DUP7 ADD PUSH3 0x88 JUMP JUMPDEST SWAP3 POP PUSH3 0xE7 PUSH1 0x40 DUP7 ADD PUSH3 0x88 JUMP JUMPDEST SWAP2 POP PUSH3 0xF7 PUSH1 0x60 DUP7 ADD PUSH3 0x88 JUMP JUMPDEST SWAP1 POP SWAP3 SWAP6 SWAP2 SWAP5 POP SWAP3 POP JUMP JUMPDEST PUSH2 0x46EF DUP1 PUSH3 0x112 PUSH1 0x0 CODECOPY PUSH1 0x0 RETURN INVALID PUSH1 0x80 PUSH1 0x40 MSTORE CALLVALUE DUP1 ISZERO PUSH2 0x10 JUMPI PUSH1 0x0 DUP1 REVERT JUMPDEST POP PUSH1 0x4 CALLDATASIZE LT PUSH2 0x150 JUMPI PUSH1 0x0 CALLDATALOAD PUSH1 0xE0 SHR DUP1 PUSH4 0x54ADAC10 GT PUSH2 0xCD JUMPI DUP1 PUSH4 0x8E9197B4 GT PUSH2 0x81 JUMPI DUP1 PUSH4 0xB0D77774 GT PUSH2 0x66 JUMPI DUP1 PUSH4 0xB0D77774 EQ PUSH2 0x377 JUMPI DUP1 PUSH4 0xC49443AC EQ PUSH2 0x38A JUMPI DUP1 PUSH4 0xCA030079 EQ PUSH2 0x39D JUMPI PUSH1 0x0 DUP1 REVERT JUMPDEST DUP1 PUSH4 0x8E9197B4 EQ PUSH2 0x351 JUMPI DUP1 PUSH4 0x999A2F7A EQ PUSH2 0x364 JUMPI PUSH1 0x0 DUP1 REVERT JUMPDEST DUP1 PUSH4 0x70D27E41 GT PUSH2 0xB2 JUMPI DUP1 PUSH4 0x70D27E41 EQ PUSH2 0x2E8 JUMPI DUP1 PUSH4 0x763540CD EQ PUSH2 0x313 JUMPI DUP1 PUSH4 0x8972AE26 EQ PUSH2 0x33E JUMPI PUSH1 0x0 DUP1 REVERT JUMPDEST DUP1 PUSH4 0x54ADAC10 EQ PUSH2 0x2C0 JUMPI DUP1 PUSH4 0x697E71D2 EQ PUSH2 0x2D5 JUMPI PUSH1 0x0 DUP1 REVERT JUMPDEST DUP1 PUSH4 0x2456028B GT PUSH2 0x124 JUMPI DUP1 PUSH4 0x40CA262A GT PUSH2 0x109 JUMPI DUP1 PUSH4 0x40CA262A EQ PUSH2 0x27A JUMPI DUP1 PUSH4 0x4B4D9F89 EQ PUSH2 0x28D JUMPI DUP1 PUSH4 0x4F264B03 EQ PUSH2 0x2AD JUMPI PUSH1 0x0 DUP1 REVERT JUMPDEST DUP1 PUSH4 0x2456028B EQ PUSH2 0x233 JUMPI DUP1 PUSH4 0x3E6ABF42 EQ PUSH2 0x23B JUMPI PUSH1 0x0 DUP1 REVERT JUMPDEST DUP1 PUSH3 0x75C079 EQ PUSH2 0x155 JUMPI DUP1 PUSH4 0x3C59F79 EQ PUSH2 0x1DD JUMPI DUP1 PUSH4 0xD67F59E EQ PUSH2 0x1F2 JUMPI DUP1 PUSH4 0x10AC4633 EQ PUSH2 0x21D JUMPI JUMPDEST PUSH1 0x0 DUP1 REVERT JUMPDEST PUSH2 0x168 PUSH2 0x163 CALLDATASIZE PUSH1 0x4 PUSH2 0x3FB7 JUMP JUMPDEST PUSH2 0x3B0 JUMP JUMPDEST PUSH1 0x40 DUP1 MLOAD PUSH1 0xFF SWAP15 DUP16 AND DUP2 MSTORE SWAP13 DUP15 AND PUSH1 0x20 DUP15 ADD MSTORE SWAP11 DUP14 AND SWAP11 DUP13 ADD SWAP11 SWAP1 SWAP11 MSTORE SWAP11 SWAP1 SWAP8 AND PUSH1 0x60 DUP11 ADD MSTORE PUSH1 0x80 DUP10 ADD SWAP6 SWAP1 SWAP6 MSTORE SWAP3 ISZERO ISZERO PUSH1 0xA0 DUP9 ADD MSTORE PUSH1 0xC0 DUP8 ADD SWAP2 SWAP1 SWAP2 MSTORE PUSH1 0xE0 DUP7 ADD MSTORE PUSH2 0x100 DUP6 ADD MSTORE PUSH2 0x120 DUP5 ADD MSTORE PUSH2 0x140 DUP4 ADD MSTORE PUSH2 0x160 DUP3 ADD SWAP3 SWAP1 SWAP3 MSTORE PUSH2 0x180 DUP2 ADD SWAP2 SWAP1 SWAP2 MSTORE PUSH2 0x1A0 ADD JUMPDEST PUSH1 0x40 MLOAD DUP1 SWAP2 SUB SWAP1 RETURN JUMPDEST PUSH2 0x1E5 PUSH2 0x42F JUMP JUMPDEST PUSH1 0x40 MLOAD PUSH2 0x1D4 SWAP2 SWAP1 PUSH2 0x3FD0 JUMP JUMPDEST PUSH1 0x1 SLOAD PUSH2 0x205 SWAP1 PUSH1 0x1 PUSH1 0x1 PUSH1 0xA0 SHL SUB AND DUP2 JUMP JUMPDEST PUSH1 0x40 MLOAD PUSH1 0x1 PUSH1 0x1 PUSH1 0xA0 SHL SUB SWAP1 SWAP2 AND DUP2 MSTORE PUSH1 0x20 ADD PUSH2 0x1D4 JUMP JUMPDEST PUSH2 0x225 PUSH1 0x64 DUP2 JUMP JUMPDEST PUSH1 0x40 MLOAD SWAP1 DUP2 MSTORE PUSH1 0x20 ADD PUSH2 0x1D4 JUMP JUMPDEST PUSH2 0x1E5 PUSH2 0x6A7 JUMP JUMPDEST PUSH2 0x24E PUSH2 0x249 CALLDATASIZE PUSH1 0x4 PUSH2 0x40B4 JUMP JUMPDEST PUSH2 0x79E JUMP JUMPDEST PUSH1 0x40 DUP1 MLOAD PUSH1 0x1 PUSH1 0x1 PUSH1 0xA0 SHL SUB SWAP1 SWAP6 AND DUP6 MSTORE PUSH1 0xFF SWAP1 SWAP4 AND PUSH1 0x20 DUP6 ADD MSTORE SWAP2 DUP4 ADD MSTORE PUSH1 0x60 DUP3 ADD MSTORE PUSH1 0x80 ADD PUSH2 0x1D4 JUMP JUMPDEST PUSH2 0x1E5 PUSH2 0x288 CALLDATASIZE PUSH1 0x4 PUSH2 0x40F5 JUMP JUMPDEST PUSH2 0x804 JUMP JUMPDEST PUSH2 0x2A0 PUSH2 0x29B CALLDATASIZE PUSH1 0x4 PUSH2 0x4112 JUMP JUMPDEST PUSH2 0xB34 JUMP JUMPDEST PUSH1 0x40 MLOAD PUSH2 0x1D4 SWAP2 SWAP1 PUSH2 0x412F JUMP JUMPDEST PUSH1 0x2 SLOAD PUSH2 0x205 SWAP1 PUSH1 0x1 PUSH1 0x1 PUSH1 0xA0 SHL SUB AND DUP2 JUMP JUMPDEST PUSH2 0x2D3 PUSH2 0x2CE CALLDATASIZE PUSH1 0x4 PUSH2 0x4192 JUMP JUMPDEST PUSH2 0xC4B JUMP JUMPDEST STOP JUMPDEST PUSH2 0x2D3 PUSH2 0x2E3 CALLDATASIZE PUSH1 0x4 PUSH2 0x420B JUMP JUMPDEST PUSH2 0x1289 JUMP JUMPDEST PUSH2 0x225 PUSH2 0x2F6 CALLDATASIZE PUSH1 0x4 PUSH2 0x4267 JUMP JUMPDEST PUSH1 0x6 PUSH1 0x20 SWAP1 DUP2 MSTORE PUSH1 0x0 SWAP3 DUP4 MSTORE PUSH1 0x40 DUP1 DUP5 KECCAK256 SWAP1 SWAP2 MSTORE SWAP1 DUP3 MSTORE SWAP1 KECCAK256 SLOAD DUP2 JUMP JUMPDEST PUSH2 0x225 PUSH2 0x321 CALLDATASIZE PUSH1 0x4 PUSH2 0x4267 JUMP JUMPDEST PUSH1 0x5 PUSH1 0x20 SWAP1 DUP2 MSTORE PUSH1 0x0 SWAP3 DUP4 MSTORE PUSH1 0x40 DUP1 DUP5 KECCAK256 SWAP1 SWAP2 MSTORE SWAP1 DUP3 MSTORE SWAP1 KECCAK256 SLOAD DUP2 JUMP JUMPDEST PUSH2 0x1E5 PUSH2 0x34C CALLDATASIZE PUSH1 0x4 PUSH2 0x40F5 JUMP JUMPDEST PUSH2 0x16F6 JUMP JUMPDEST PUSH2 0x225 PUSH2 0x35F CALLDATASIZE PUSH1 0x4 PUSH2 0x42A0 JUMP JUMPDEST PUSH2 0x1950 JUMP JUMPDEST PUSH2 0x2D3 PUSH2 0x372 CALLDATASIZE PUSH1 0x4 PUSH2 0x42BE JUMP JUMPDEST PUSH2 0x1981 JUMP JUMPDEST PUSH1 0x0 SLOAD PUSH2 0x205 SWAP1 PUSH1 0x1 PUSH1 0x1 PUSH1 0xA0 SHL SUB AND DUP2 JUMP JUMPDEST PUSH1 0x3 SLOAD PUSH2 0x205 SWAP1 PUSH1 0x1 PUSH1 0x1 PUSH1 0xA0 SHL SUB AND DUP2 JUMP JUMPDEST PUSH2 0x2D3 PUSH2 0x3AB CALLDATASIZE PUSH1 0x4 PUSH2 0x430F JUMP JUMPDEST PUSH2 0x21C1 JUMP JUMPDEST PUSH1 0x7 DUP2 DUP2 SLOAD DUP2 LT PUSH2 0x3C0 JUMPI PUSH1 0x0 DUP1 REVERT JUMPDEST PUSH1 0x0 SWAP2 DUP3 MSTORE PUSH1 0x20 SWAP1 SWAP2 KECCAK256 PUSH1 0xA SWAP1 SWAP2 MUL ADD DUP1 SLOAD PUSH1 0x1 DUP3 ADD SLOAD PUSH1 0x2 DUP4 ADD SLOAD PUSH1 0x3 DUP5 ADD SLOAD PUSH1 0x4 DUP6 ADD SLOAD PUSH1 0x5 DUP7 ADD SLOAD PUSH1 0x6 DUP8 ADD SLOAD PUSH1 0x7 DUP9 ADD SLOAD PUSH1 0x8 DUP10 ADD SLOAD PUSH1 0x9 SWAP1 SWAP10 ADD SLOAD PUSH1 0xFF DUP1 DUP11 AND SWAP12 POP PUSH2 0x100 DUP11 DIV DUP2 AND SWAP11 PUSH3 0x10000 DUP12 DIV DUP3 AND SWAP11 PUSH4 0x1000000 SWAP1 DIV DUP3 AND SWAP10 SWAP9 SWAP1 SWAP2 AND SWAP7 SWAP6 SWAP5 SWAP4 SWAP3 SWAP2 DUP14 JUMP JUMPDEST PUSH1 0x60 PUSH1 0x0 DUP1 PUSH2 0x441 PUSH3 0x93A80 TIMESTAMP PUSH2 0x4399 JUMP JUMPDEST PUSH1 0x7 SLOAD SWAP1 SWAP2 POP JUMPDEST DUP1 ISZERO PUSH2 0x4AC JUMPI DUP2 PUSH1 0x7 PUSH2 0x45C PUSH1 0x1 DUP5 PUSH2 0x4399 JUMP JUMPDEST DUP2 SLOAD DUP2 LT PUSH2 0x46C JUMPI PUSH2 0x46C PUSH2 0x43AC JUMP JUMPDEST SWAP1 PUSH1 0x0 MSTORE PUSH1 0x20 PUSH1 0x0 KECCAK256 SWAP1 PUSH1 0xA MUL ADD PUSH1 0x1 ADD SLOAD LT PUSH2 0x495 JUMPI DUP3 PUSH2 0x48D DUP2 PUSH2 0x43DB JUMP JUMPDEST SWAP4 POP POP PUSH2 0x49A JUMP JUMPDEST PUSH2 0x4AC JUMP JUMPDEST DUP1 PUSH2 0x4A4 DUP2 PUSH2 0x43F5 JUMP JUMPDEST SWAP2 POP POP PUSH2 0x448 JUMP JUMPDEST POP PUSH1 0x0 DUP3 PUSH8 0xFFFFFFFFFFFFFFFF DUP2 GT ISZERO PUSH2 0x4C8 JUMPI PUSH2 0x4C8 PUSH2 0x440C JUMP JUMPDEST PUSH1 0x40 MLOAD SWAP1 DUP1 DUP3 MSTORE DUP1 PUSH1 0x20 MUL PUSH1 0x20 ADD DUP3 ADD PUSH1 0x40 MSTORE DUP1 ISZERO PUSH2 0x572 JUMPI DUP2 PUSH1 0x20 ADD JUMPDEST PUSH2 0x55F PUSH1 0x40 MLOAD DUP1 PUSH2 0x1A0 ADD PUSH1 0x40 MSTORE DUP1 PUSH1 0x0 PUSH1 0xFF AND DUP2 MSTORE PUSH1 0x20 ADD PUSH1 0x0 PUSH1 0xFF AND DUP2 MSTORE PUSH1 0x20 ADD PUSH1 0x0 PUSH1 0xFF AND DUP2 MSTORE PUSH1 0x20 ADD PUSH1 0x0 PUSH1 0xFF AND DUP2 MSTORE PUSH1 0x20 ADD PUSH1 0x0 DUP2 MSTORE PUSH1 0x20 ADD PUSH1 0x0 ISZERO ISZERO DUP2 MSTORE PUSH1 0x20 ADD PUSH1 0x0 DUP2 MSTORE PUSH1 0x20 ADD PUSH1 0x0 DUP2 MSTORE PUSH1 0x20 ADD PUSH1 0x0 DUP2 MSTORE PUSH1 0x20 ADD PUSH1 0x0 DUP2 MSTORE PUSH1 0x20 ADD PUSH1 0x0 DUP2 MSTORE PUSH1 0x20 ADD PUSH1 0x0 DUP2 MSTORE PUSH1 0x20 ADD PUSH1 0x0 DUP2 MSTORE POP SWAP1 JUMP JUMPDEST DUP2 MSTORE PUSH1 0x20 ADD SWAP1 PUSH1 0x1 SWAP1 SUB SWAP1 DUP2 PUSH2 0x4E6 JUMPI SWAP1 POP JUMPDEST POP SWAP1 POP PUSH1 0x0 DUP1 DUP5 PUSH1 0x7 DUP1 SLOAD SWAP1 POP PUSH2 0x589 SWAP2 SWAP1 PUSH2 0x4399 JUMP JUMPDEST SWAP1 POP JUMPDEST PUSH1 0x7 SLOAD DUP2 LT ISZERO PUSH2 0x69D JUMPI PUSH1 0x7 DUP2 DUP2 SLOAD DUP2 LT PUSH2 0x5A9 JUMPI PUSH2 0x5A9 PUSH2 0x43AC JUMP JUMPDEST PUSH1 0x0 SWAP2 DUP3 MSTORE PUSH1 0x20 SWAP2 DUP3 SWAP1 KECCAK256 PUSH1 0x40 DUP1 MLOAD PUSH2 0x1A0 DUP2 ADD DUP3 MSTORE PUSH1 0xA SWAP1 SWAP4 MUL SWAP1 SWAP2 ADD DUP1 SLOAD PUSH1 0xFF DUP1 DUP3 AND DUP6 MSTORE PUSH2 0x100 DUP1 DUP4 DIV DUP3 AND SWAP7 DUP7 ADD SWAP7 SWAP1 SWAP7 MSTORE PUSH3 0x10000 DUP3 DIV DUP2 AND SWAP4 DUP6 ADD SWAP4 SWAP1 SWAP4 MSTORE PUSH4 0x1000000 SWAP1 DIV DUP3 AND PUSH1 0x60 DUP5 ADD MSTORE PUSH1 0x1 DUP2 ADD SLOAD PUSH1 0x80 DUP5 ADD MSTORE PUSH1 0x2 DUP2 ADD SLOAD SWAP1 SWAP2 AND ISZERO ISZERO PUSH1 0xA0 DUP4 ADD MSTORE PUSH1 0x3 DUP2 ADD SLOAD PUSH1 0xC0 DUP4 ADD MSTORE PUSH1 0x4 DUP2 ADD SLOAD PUSH1 0xE0 DUP4 ADD MSTORE PUSH1 0x5 DUP2 ADD SLOAD SWAP3 DUP3 ADD SWAP3 SWAP1 SWAP3 MSTORE PUSH1 0x6 DUP3 ADD SLOAD PUSH2 0x120 DUP3 ADD MSTORE PUSH1 0x7 DUP3 ADD SLOAD PUSH2 0x140 DUP3 ADD MSTORE PUSH1 0x8 DUP3 ADD SLOAD PUSH2 0x160 DUP3 ADD MSTORE PUSH1 0x9 SWAP1 SWAP2 ADD SLOAD PUSH2 0x180 DUP3 ADD MSTORE DUP4 DUP4 PUSH2 0x66D DUP2 PUSH2 0x43DB JUMP JUMPDEST SWAP5 POP DUP2 MLOAD DUP2 LT PUSH2 0x67F JUMPI PUSH2 0x67F PUSH2 0x43AC JUMP JUMPDEST PUSH1 0x20 MUL PUSH1 0x20 ADD ADD DUP2 SWAP1 MSTORE POP DUP1 DUP1 PUSH2 0x695 SWAP1 PUSH2 0x43DB JUMP JUMPDEST SWAP2 POP POP PUSH2 0x58C JUMP JUMPDEST POP SWAP1 SWAP5 SWAP4 POP POP POP POP JUMP JUMPDEST PUSH1 0x60 PUSH1 0x7 DUP1 SLOAD DUP1 PUSH1 0x20 MUL PUSH1 0x20 ADD PUSH1 0x40 MLOAD SWAP1 DUP2 ADD PUSH1 0x40 MSTORE DUP1 SWAP3 SWAP2 SWAP1 DUP2 DUP2 MSTORE PUSH1 0x20 ADD PUSH1 0x0 SWAP1 JUMPDEST DUP3 DUP3 LT ISZERO PUSH2 0x795 JUMPI PUSH1 0x0 DUP5 DUP2 MSTORE PUSH1 0x20 SWAP1 DUP2 SWAP1 KECCAK256 PUSH1 0x40 DUP1 MLOAD PUSH2 0x1A0 DUP2 ADD DUP3 MSTORE PUSH1 0xA DUP7 MUL SWAP1 SWAP3 ADD DUP1 SLOAD PUSH1 0xFF DUP1 DUP3 AND DUP6 MSTORE PUSH2 0x100 DUP1 DUP4 DIV DUP3 AND DUP7 DUP9 ADD MSTORE PUSH3 0x10000 DUP4 DIV DUP3 AND SWAP5 DUP7 ADD SWAP5 SWAP1 SWAP5 MSTORE PUSH4 0x1000000 SWAP1 SWAP2 DIV DUP2 AND PUSH1 0x60 DUP6 ADD MSTORE PUSH1 0x1 DUP1 DUP4 ADD SLOAD PUSH1 0x80 DUP7 ADD MSTORE PUSH1 0x2 DUP4 ADD SLOAD SWAP1 SWAP2 AND ISZERO ISZERO PUSH1 0xA0 DUP6 ADD MSTORE PUSH1 0x3 DUP3 ADD SLOAD PUSH1 0xC0 DUP6 ADD MSTORE PUSH1 0x4 DUP3 ADD SLOAD PUSH1 0xE0 DUP6 ADD MSTORE PUSH1 0x5 DUP3 ADD SLOAD SWAP3 DUP5 ADD SWAP3 SWAP1 SWAP3 MSTORE PUSH1 0x6 DUP2 ADD SLOAD PUSH2 0x120 DUP5 ADD MSTORE PUSH1 0x7 DUP2 ADD SLOAD PUSH2 0x140 DUP5 ADD MSTORE PUSH1 0x8 DUP2 ADD SLOAD PUSH2 0x160 DUP5 ADD MSTORE PUSH1 0x9 ADD SLOAD PUSH2 0x180 DUP4 ADD MSTORE SWAP1 DUP4 MSTORE SWAP1 SWAP3 ADD SWAP2 ADD PUSH2 0x6CB JUMP JUMPDEST POP POP POP POP SWAP1 POP SWAP1 JUMP JUMPDEST PUSH1 0x4 PUSH1 0x20 MSTORE DUP2 PUSH1 0x0 MSTORE PUSH1 0x40 PUSH1 0x0 KECCAK256 DUP2 DUP2 SLOAD DUP2 LT PUSH2 0x7BA JUMPI PUSH1 0x0 DUP1 REVERT JUMPDEST PUSH1 0x0 SWAP2 DUP3 MSTORE PUSH1 0x20 SWAP1 SWAP2 KECCAK256 PUSH1 0x3 SWAP1 SWAP2 MUL ADD DUP1 SLOAD PUSH1 0x1 DUP3 ADD SLOAD PUSH1 0x2 SWAP1 SWAP3 ADD SLOAD PUSH1 0x1 PUSH1 0x1 PUSH1 0xA0 SHL SUB DUP3 AND SWAP5 POP PUSH21 0x10000000000000000000000000000000000000000 SWAP1 SWAP2 DIV PUSH1 0xFF AND SWAP3 POP DUP5 JUMP JUMPDEST PUSH1 0x1 PUSH1 0x1 PUSH1 0xA0 SHL SUB DUP2 AND PUSH1 0x0 SWAP1 DUP2 MSTORE PUSH1 0x8 PUSH1 0x20 SWAP1 DUP2 MSTORE PUSH1 0x40 DUP1 DUP4 KECCAK256 DUP1 SLOAD DUP3 MLOAD DUP2 DUP6 MUL DUP2 ADD DUP6 ADD SWAP1 SWAP4 MSTORE DUP1 DUP4 MSTORE PUSH1 0x60 SWAP5 SWAP4 DUP4 ADD DUP3 DUP3 DUP1 ISZERO PUSH2 0x863 JUMPI PUSH1 0x20 MUL DUP3 ADD SWAP2 SWAP1 PUSH1 0x0 MSTORE PUSH1 0x20 PUSH1 0x0 KECCAK256 SWAP1 JUMPDEST DUP2 SLOAD DUP2 MSTORE PUSH1 0x20 ADD SWAP1 PUSH1 0x1 ADD SWAP1 DUP1 DUP4 GT PUSH2 0x84F JUMPI JUMPDEST POP POP POP POP POP SWAP1 POP PUSH1 0x0 DUP1 PUSH3 0x93A80 TIMESTAMP PUSH2 0x87C SWAP2 SWAP1 PUSH2 0x4399 JUMP JUMPDEST SWAP1 POP PUSH1 0x0 JUMPDEST DUP4 MLOAD DUP2 LT ISZERO PUSH2 0x8EE JUMPI DUP2 PUSH1 0x7 DUP6 DUP4 DUP2 MLOAD DUP2 LT PUSH2 0x89F JUMPI PUSH2 0x89F PUSH2 0x43AC JUMP JUMPDEST PUSH1 0x20 MUL PUSH1 0x20 ADD ADD MLOAD DUP2 SLOAD DUP2 LT PUSH2 0x8B7 JUMPI PUSH2 0x8B7 PUSH2 0x43AC JUMP JUMPDEST SWAP1 PUSH1 0x0 MSTORE PUSH1 0x20 PUSH1 0x0 KECCAK256 SWAP1 PUSH1 0xA MUL ADD PUSH1 0x1 ADD SLOAD LT PUSH2 0x8DC JUMPI DUP3 PUSH2 0x8D8 DUP2 PUSH2 0x43DB JUMP JUMPDEST SWAP4 POP POP JUMPDEST DUP1 PUSH2 0x8E6 DUP2 PUSH2 0x43DB JUMP JUMPDEST SWAP2 POP POP PUSH2 0x881 JUMP JUMPDEST POP PUSH1 0x0 DUP3 PUSH8 0xFFFFFFFFFFFFFFFF DUP2 GT ISZERO PUSH2 0x90A JUMPI PUSH2 0x90A PUSH2 0x440C JUMP JUMPDEST PUSH1 0x40 MLOAD SWAP1 DUP1 DUP3 MSTORE DUP1 PUSH1 0x20 MUL PUSH1 0x20 ADD DUP3 ADD PUSH1 0x40 MSTORE DUP1 ISZERO PUSH2 0x9B4 JUMPI DUP2 PUSH1 0x20 ADD JUMPDEST PUSH2 0x9A1 PUSH1 0x40 MLOAD DUP1 PUSH2 0x1A0 ADD PUSH1 0x40 MSTORE DUP1 PUSH1 0x0 PUSH1 0xFF AND DUP2 MSTORE PUSH1 0x20 ADD PUSH1 0x0 PUSH1 0xFF AND DUP2 MSTORE PUSH1 0x20 ADD PUSH1 0x0 PUSH1 0xFF AND DUP2 MSTORE PUSH1 0x20 ADD PUSH1 0x0 PUSH1 0xFF AND DUP2 MSTORE PUSH1 0x20 ADD PUSH1 0x0 DUP2 MSTORE PUSH1 0x20 ADD PUSH1 0x0 ISZERO ISZERO DUP2 MSTORE PUSH1 0x20 ADD PUSH1 0x0 DUP2 MSTORE PUSH1 0x20 ADD PUSH1 0x0 DUP2 MSTORE PUSH1 0x20 ADD PUSH1 0x0 DUP2 MSTORE PUSH1 0x20 ADD PUSH1 0x0 DUP2 MSTORE PUSH1 0x20 ADD PUSH1 0x0 DUP2 MSTORE PUSH1 0x20 ADD PUSH1 0x0 DUP2 MSTORE PUSH1 0x20 ADD PUSH1 0x0 DUP2 MSTORE POP SWAP1 JUMP JUMPDEST DUP2 MSTORE PUSH1 0x20 ADD SWAP1 PUSH1 0x1 SWAP1 SUB SWAP1 DUP2 PUSH2 0x928 JUMPI SWAP1 POP JUMPDEST POP SWAP1 POP PUSH1 0x0 DUP1 JUMPDEST DUP6 MLOAD DUP2 LT ISZERO PUSH2 0xB28 JUMPI DUP4 PUSH1 0x7 DUP8 DUP4 DUP2 MLOAD DUP2 LT PUSH2 0x9D9 JUMPI PUSH2 0x9D9 PUSH2 0x43AC JUMP JUMPDEST PUSH1 0x20 MUL PUSH1 0x20 ADD ADD MLOAD DUP2 SLOAD DUP2 LT PUSH2 0x9F1 JUMPI PUSH2 0x9F1 PUSH2 0x43AC JUMP JUMPDEST SWAP1 PUSH1 0x0 MSTORE PUSH1 0x20 PUSH1 0x0 KECCAK256 SWAP1 PUSH1 0xA MUL ADD PUSH1 0x1 ADD SLOAD LT PUSH2 0xB16 JUMPI PUSH1 0x7 DUP7 DUP3 DUP2 MLOAD DUP2 LT PUSH2 0xA1C JUMPI PUSH2 0xA1C PUSH2 0x43AC JUMP JUMPDEST PUSH1 0x20 MUL PUSH1 0x20 ADD ADD MLOAD DUP2 SLOAD DUP2 LT PUSH2 0xA34 JUMPI PUSH2 0xA34 PUSH2 0x43AC JUMP JUMPDEST PUSH1 0x0 SWAP2 DUP3 MSTORE PUSH1 0x20 SWAP2 DUP3 SWAP1 KECCAK256 PUSH1 0x40 DUP1 MLOAD PUSH2 0x1A0 DUP2 ADD DUP3 MSTORE PUSH1 0xA SWAP1 SWAP4 MUL SWAP1 SWAP2 ADD DUP1 SLOAD PUSH1 0xFF DUP1 DUP3 AND DUP6 MSTORE PUSH2 0x100 DUP1 DUP4 DIV DUP3 AND SWAP7 DUP7 ADD SWAP7 SWAP1 SWAP7 MSTORE PUSH3 0x10000 DUP3 DIV DUP2 AND SWAP4 DUP6 ADD SWAP4 SWAP1 SWAP4 MSTORE PUSH4 0x1000000 SWAP1 DIV DUP3 AND PUSH1 0x60 DUP5 ADD MSTORE PUSH1 0x1 DUP2 ADD SLOAD PUSH1 0x80 DUP5 ADD MSTORE PUSH1 0x2 DUP2 ADD SLOAD SWAP1 SWAP2 AND ISZERO ISZERO PUSH1 0xA0 DUP4 ADD MSTORE PUSH1 0x3 DUP2 ADD SLOAD PUSH1 0xC0 DUP4 ADD MSTORE PUSH1 0x4 DUP2 ADD SLOAD PUSH1 0xE0 DUP4 ADD MSTORE PUSH1 0x5 DUP2 ADD SLOAD SWAP3 DUP3 ADD SWAP3 SWAP1 SWAP3 MSTORE PUSH1 0x6 DUP3 ADD SLOAD PUSH2 0x120 DUP3 ADD MSTORE PUSH1 0x7 DUP3 ADD SLOAD PUSH2 0x140 DUP3 ADD MSTORE PUSH1 0x8 DUP3 ADD SLOAD PUSH2 0x160 DUP3 ADD MSTORE PUSH1 0x9 SWAP1 SWAP2 ADD SLOAD PUSH2 0x180 DUP3 ADD MSTORE DUP4 DUP4 PUSH2 0xAF8 DUP2 PUSH2 0x43DB JUMP JUMPDEST SWAP5 POP DUP2 MLOAD DUP2 LT PUSH2 0xB0A JUMPI PUSH2 0xB0A PUSH2 0x43AC JUMP JUMPDEST PUSH1 0x20 MUL PUSH1 0x20 ADD ADD DUP2 SWAP1 MSTORE POP JUMPDEST DUP1 PUSH2 0xB20 DUP2 PUSH2 0x43DB JUMP JUMPDEST SWAP2 POP POP PUSH2 0x9BB JUMP JUMPDEST POP SWAP1 SWAP7 SWAP6 POP POP POP POP POP POP JUMP JUMPDEST PUSH1 0x60 PUSH1 0x1 DUP3 PUSH1 0xFF AND LT ISZERO DUP1 ISZERO PUSH2 0xB4E JUMPI POP PUSH1 0x8 DUP3 PUSH1 0xFF AND GT ISZERO JUMPDEST PUSH2 0xB9F JUMPI PUSH1 0x40 MLOAD PUSH3 0x461BCD PUSH1 0xE5 SHL DUP2 MSTORE PUSH1 0x20 PUSH1 0x4 DUP3 ADD MSTORE PUSH1 0x15 PUSH1 0x24 DUP3 ADD MSTORE PUSH32 0x496E76616C6964207265736F7572636520747970650000000000000000000000 PUSH1 0x44 DUP3 ADD MSTORE PUSH1 0x64 ADD JUMPDEST PUSH1 0x40 MLOAD DUP1 SWAP2 SUB SWAP1 REVERT JUMPDEST PUSH1 0xFF DUP3 AND PUSH1 0x0 SWAP1 DUP2 MSTORE PUSH1 0x4 PUSH1 0x20 SWAP1 DUP2 MSTORE PUSH1 0x40 DUP1 DUP4 KECCAK256 DUP1 SLOAD DUP3 MLOAD DUP2 DUP6 MUL DUP2 ADD DUP6 ADD SWAP1 SWAP4 MSTORE DUP1 DUP4 MSTORE SWAP2 SWAP4 SWAP1 SWAP3 DUP5 ADD JUMPDEST DUP3 DUP3 LT ISZERO PUSH2 0xC40 JUMPI PUSH1 0x0 DUP5 DUP2 MSTORE PUSH1 0x20 SWAP1 DUP2 SWAP1 KECCAK256 PUSH1 0x40 DUP1 MLOAD PUSH1 0x80 DUP2 ADD DUP3 MSTORE PUSH1 0x3 DUP7 MUL SWAP1 SWAP3 ADD DUP1 SLOAD PUSH1 0x1 PUSH1 0x1 PUSH1 0xA0 SHL SUB DUP2 AND DUP5 MSTORE PUSH21 0x10000000000000000000000000000000000000000 SWAP1 DIV PUSH1 0xFF AND DUP4 DUP6 ADD MSTORE PUSH1 0x1 DUP1 DUP3 ADD SLOAD SWAP3 DUP5 ADD SWAP3 SWAP1 SWAP3 MSTORE PUSH1 0x2 ADD SLOAD PUSH1 0x60 DUP4 ADD MSTORE SWAP1 DUP4 MSTORE SWAP1 SWAP3 ADD SWAP2 ADD PUSH2 0xBCC JUMP JUMPDEST POP POP POP POP SWAP1 POP SWAP2 SWAP1 POP JUMP JUMPDEST PUSH1 0x2 SLOAD PUSH1 0x40 MLOAD PUSH32 0x8A88895300000000000000000000000000000000000000000000000000000000 DUP2 MSTORE PUSH1 0xFF DUP1 DUP10 AND PUSH1 0x4 DUP4 ADD MSTORE DUP8 AND PUSH1 0x24 DUP3 ADD MSTORE DUP8 SWAP2 DUP8 SWAP2 CALLER SWAP2 PUSH1 0x1 PUSH1 0x1 PUSH1 0xA0 SHL SUB AND SWAP1 PUSH4 0x8A888953 SWAP1 PUSH1 0x44 ADD PUSH1 0x20 PUSH1 0x40 MLOAD DUP1 DUP4 SUB DUP2 DUP7 GAS STATICCALL ISZERO DUP1 ISZERO PUSH2 0xCBB JUMPI RETURNDATASIZE PUSH1 0x0 DUP1 RETURNDATACOPY RETURNDATASIZE PUSH1 0x0 REVERT JUMPDEST POP POP POP POP PUSH1 0x40 MLOAD RETURNDATASIZE PUSH1 0x1F NOT PUSH1 0x1F DUP3 ADD AND DUP3 ADD DUP1 PUSH1 0x40 MSTORE POP DUP2 ADD SWAP1 PUSH2 0xCDF SWAP2 SWAP1 PUSH2 0x443B JUMP JUMPDEST PUSH1 0x1 PUSH1 0x1 PUSH1 0xA0 SHL SUB AND EQ PUSH2 0xD35 JUMPI PUSH1 0x40 MLOAD PUSH3 0x461BCD PUSH1 0xE5 SHL DUP2 MSTORE PUSH1 0x20 PUSH1 0x4 DUP3 ADD MSTORE PUSH1 0x18 PUSH1 0x24 DUP3 ADD MSTORE PUSH32 0x596F7520646F206E6F74206F776E20746869732074696C650000000000000000 PUSH1 0x44 DUP3 ADD MSTORE PUSH1 0x64 ADD PUSH2 0xB96 JUMP JUMPDEST PUSH1 0x2 SLOAD PUSH1 0x40 MLOAD PUSH32 0x8A88895300000000000000000000000000000000000000000000000000000000 DUP2 MSTORE PUSH1 0xFF DUP1 DUP10 AND PUSH1 0x4 DUP4 ADD MSTORE DUP8 AND PUSH1 0x24 DUP3 ADD MSTORE PUSH1 0x0 SWAP2 PUSH1 0x1 PUSH1 0x1 PUSH1 0xA0 SHL SUB AND SWAP1 PUSH4 0x8A888953 SWAP1 PUSH1 0x44 ADD PUSH1 0x20 PUSH1 0x40 MLOAD DUP1 DUP4 SUB DUP2 DUP7 GAS STATICCALL ISZERO DUP1 ISZERO PUSH2 0xDA2 JUMPI RETURNDATASIZE PUSH1 0x0 DUP1 RETURNDATACOPY RETURNDATASIZE PUSH1 0x0 REVERT JUMPDEST POP POP POP POP PUSH1 0x40 MLOAD RETURNDATASIZE PUSH1 0x1F NOT PUSH1 0x1F DUP3 ADD AND DUP3 ADD DUP1 PUSH1 0x40 MSTORE POP DUP2 ADD SWAP1 PUSH2 0xDC6 SWAP2 SWAP1 PUSH2 0x443B JUMP JUMPDEST SWAP1 POP PUSH1 0x1 PUSH1 0x1 PUSH1 0xA0 SHL SUB DUP2 AND PUSH2 0xE1E JUMPI PUSH1 0x40 MLOAD PUSH3 0x461BCD PUSH1 0xE5 SHL DUP2 MSTORE PUSH1 0x20 PUSH1 0x4 DUP3 ADD MSTORE PUSH1 0x19 PUSH1 0x24 DUP3 ADD MSTORE PUSH32 0x5461726765742074696C6520697320756E6F6363757069656400000000000000 PUSH1 0x44 DUP3 ADD MSTORE PUSH1 0x64 ADD PUSH2 0xB96 JUMP JUMPDEST PUSH1 0x1 DUP6 PUSH1 0xFF AND LT ISZERO DUP1 ISZERO PUSH2 0xE36 JUMPI POP PUSH1 0x8 DUP6 PUSH1 0xFF AND GT ISZERO JUMPDEST PUSH2 0xE82 JUMPI PUSH1 0x40 MLOAD PUSH3 0x461BCD PUSH1 0xE5 SHL DUP2 MSTORE PUSH1 0x20 PUSH1 0x4 DUP3 ADD MSTORE PUSH1 0x15 PUSH1 0x24 DUP3 ADD MSTORE PUSH32 0x496E76616C6964207265736F7572636520747970650000000000000000000000 PUSH1 0x44 DUP3 ADD MSTORE PUSH1 0x64 ADD PUSH2 0xB96 JUMP JUMPDEST PUSH1 0x1E DUP5 LT ISZERO PUSH2 0xED3 JUMPI PUSH1 0x40 MLOAD PUSH3 0x461BCD PUSH1 0xE5 SHL DUP2 MSTORE PUSH1 0x20 PUSH1 0x4 DUP3 ADD MSTORE PUSH1 0x14 PUSH1 0x24 DUP3 ADD MSTORE PUSH32 0x416D6F756E74206D757374206265203E3D203330000000000000000000000000 PUSH1 0x44 DUP3 ADD MSTORE PUSH1 0x64 ADD PUSH2 0xB96 JUMP JUMPDEST PUSH1 0x0 PUSH2 0xEDF DUP10 DUP9 PUSH2 0x26C7 JUMP JUMPDEST PUSH2 0xEE9 DUP12 DUP11 PUSH2 0x26C7 JUMP JUMPDEST PUSH2 0xEF3 SWAP2 SWAP1 PUSH2 0x4458 JUMP JUMPDEST SWAP1 POP PUSH1 0x0 DUP2 PUSH1 0xFF AND GT DUP1 ISZERO PUSH2 0xF0C JUMPI POP PUSH1 0x26 DUP2 PUSH1 0xFF AND GT ISZERO JUMPDEST PUSH2 0xF58 JUMPI PUSH1 0x40 MLOAD PUSH3 0x461BCD PUSH1 0xE5 SHL DUP2 MSTORE PUSH1 0x20 PUSH1 0x4 DUP3 ADD MSTORE PUSH1 0x10 PUSH1 0x24 DUP3 ADD MSTORE PUSH32 0x496E76616C69642064697374616E636500000000000000000000000000000000 PUSH1 0x44 DUP3 ADD MSTORE PUSH1 0x64 ADD PUSH2 0xB96 JUMP JUMPDEST PUSH4 0x5F5E100 PUSH1 0x0 PUSH2 0xF6C PUSH1 0xFF DUP5 AND DUP4 PUSH2 0x4471 JUMP JUMPDEST PUSH1 0x1 SLOAD PUSH1 0x40 MLOAD PUSH32 0x23B872DD00000000000000000000000000000000000000000000000000000000 DUP2 MSTORE CALLER PUSH1 0x4 DUP3 ADD MSTORE ADDRESS PUSH1 0x24 DUP3 ADD MSTORE PUSH1 0x44 DUP2 ADD DUP4 SWAP1 MSTORE SWAP2 SWAP3 POP PUSH1 0x1 PUSH1 0x1 PUSH1 0xA0 SHL SUB AND SWAP1 PUSH4 0x23B872DD SWAP1 PUSH1 0x64 ADD PUSH1 0x20 PUSH1 0x40 MLOAD DUP1 DUP4 SUB DUP2 PUSH1 0x0 DUP8 GAS CALL ISZERO DUP1 ISZERO PUSH2 0xFDD JUMPI RETURNDATASIZE PUSH1 0x0 DUP1 RETURNDATACOPY RETURNDATASIZE PUSH1 0x0 REVERT JUMPDEST POP POP POP POP PUSH1 0x40 MLOAD RETURNDATASIZE PUSH1 0x1F NOT PUSH1 0x1F DUP3 ADD AND DUP3 ADD DUP1 PUSH1 0x40 MSTORE POP DUP2 ADD SWAP1 PUSH2 0x1001 SWAP2 SWAP1 PUSH2 0x4488 JUMP JUMPDEST PUSH2 0x104D JUMPI PUSH1 0x40 MLOAD PUSH3 0x461BCD PUSH1 0xE5 SHL DUP2 MSTORE PUSH1 0x20 PUSH1 0x4 DUP3 ADD MSTORE PUSH1 0x17 PUSH1 0x24 DUP3 ADD MSTORE PUSH32 0x4C4F5020666565207472616E73666572206661696C6564000000000000000000 PUSH1 0x44 DUP3 ADD MSTORE PUSH1 0x64 ADD PUSH2 0xB96 JUMP JUMPDEST PUSH1 0x1 SLOAD PUSH1 0x40 MLOAD PUSH32 0x42966C6800000000000000000000000000000000000000000000000000000000 DUP2 MSTORE PUSH1 0x4 DUP2 ADD DUP4 SWAP1 MSTORE PUSH1 0x1 PUSH1 0x1 PUSH1 0xA0 SHL SUB SWAP1 SWAP2 AND SWAP1 PUSH4 0x42966C68 SWAP1 PUSH1 0x24 ADD PUSH1 0x20 PUSH1 0x40 MLOAD DUP1 DUP4 SUB DUP2 PUSH1 0x0 DUP8 GAS CALL ISZERO DUP1 ISZERO PUSH2 0x10B1 JUMPI RETURNDATASIZE PUSH1 0x0 DUP1 RETURNDATACOPY RETURNDATASIZE PUSH1 0x0 REVERT JUMPDEST POP POP POP POP PUSH1 0x40 MLOAD RETURNDATASIZE PUSH1 0x1F NOT PUSH1 0x1F DUP3 ADD AND DUP3 ADD DUP1 PUSH1 0x40 MSTORE POP DUP2 ADD SWAP1 PUSH2 0x10D5 SWAP2 SWAP1 PUSH2 0x4488 JUMP JUMPDEST PUSH2 0x1121 JUMPI PUSH1 0x40 MLOAD PUSH3 0x461BCD PUSH1 0xE5 SHL DUP2 MSTORE PUSH1 0x20 PUSH1 0x4 DUP3 ADD MSTORE PUSH1 0xF PUSH1 0x24 DUP3 ADD MSTORE PUSH32 0x4C4F50206275726E206661696C65640000000000000000000000000000000000 PUSH1 0x44 DUP3 ADD MSTORE PUSH1 0x64 ADD PUSH2 0xB96 JUMP JUMPDEST PUSH1 0x0 PUSH1 0x1E PUSH2 0x1132 DUP10 PUSH1 0xFF DUP8 AND PUSH2 0x4471 JUMP JUMPDEST PUSH2 0x113C SWAP2 SWAP1 PUSH2 0x44AA JUMP JUMPDEST PUSH1 0x0 SLOAD SWAP1 SWAP2 POP PUSH1 0x1 PUSH1 0x1 PUSH1 0xA0 SHL SUB AND PUSH4 0x3E5F2857 DUP15 DUP15 DUP13 PUSH2 0x115D DUP7 DUP15 PUSH2 0x44E5 JUMP JUMPDEST PUSH1 0x40 MLOAD PUSH32 0xFFFFFFFF00000000000000000000000000000000000000000000000000000000 PUSH1 0xE0 DUP8 SWAP1 SHL AND DUP2 MSTORE PUSH1 0xFF SWAP5 DUP6 AND PUSH1 0x4 DUP3 ADD MSTORE SWAP3 DUP5 AND PUSH1 0x24 DUP5 ADD MSTORE SWAP3 AND PUSH1 0x44 DUP3 ADD MSTORE PUSH1 0x64 DUP2 ADD SWAP2 SWAP1 SWAP2 MSTORE PUSH1 0x0 PUSH1 0x84 DUP3 ADD MSTORE PUSH1 0xA4 ADD PUSH1 0x0 PUSH1 0x40 MLOAD DUP1 DUP4 SUB DUP2 PUSH1 0x0 DUP8 DUP1 EXTCODESIZE ISZERO DUP1 ISZERO PUSH2 0x11CE JUMPI PUSH1 0x0 DUP1 REVERT JUMPDEST POP GAS CALL ISZERO DUP1 ISZERO PUSH2 0x11E2 JUMPI RETURNDATASIZE PUSH1 0x0 DUP1 RETURNDATACOPY RETURNDATASIZE PUSH1 0x0 REVERT JUMPDEST POP POP PUSH1 0x0 SLOAD PUSH1 0x40 MLOAD PUSH4 0x3E5F2857 PUSH1 0xE0 SHL DUP2 MSTORE PUSH1 0x1 PUSH1 0x1 PUSH1 0xA0 SHL SUB SWAP1 SWAP2 AND SWAP3 POP PUSH4 0x3E5F2857 SWAP2 POP PUSH2 0x1248 SWAP1 DUP15 SWAP1 DUP15 SWAP1 DUP15 SWAP1 DUP15 SWAP1 PUSH1 0x1 SWAP1 PUSH1 0x4 ADD PUSH1 0xFF SWAP6 DUP7 AND DUP2 MSTORE SWAP4 DUP6 AND PUSH1 0x20 DUP6 ADD MSTORE SWAP2 SWAP1 SWAP4 AND PUSH1 0x40 DUP4 ADD MSTORE PUSH1 0x60 DUP3 ADD SWAP3 SWAP1 SWAP3 MSTORE SWAP1 ISZERO ISZERO PUSH1 0x80 DUP3 ADD MSTORE PUSH1 0xA0 ADD SWAP1 JUMP JUMPDEST PUSH1 0x0 PUSH1 0x40 MLOAD DUP1 DUP4 SUB DUP2 PUSH1 0x0 DUP8 DUP1 EXTCODESIZE ISZERO DUP1 ISZERO PUSH2 0x1262 JUMPI PUSH1 0x0 DUP1 REVERT JUMPDEST POP GAS CALL ISZERO DUP1 ISZERO PUSH2 0x1276 JUMPI RETURNDATASIZE PUSH1 0x0 DUP1 RETURNDATACOPY RETURNDATASIZE PUSH1 0x0 REVERT JUMPDEST POP POP POP POP POP POP POP POP POP POP POP POP POP POP POP POP POP JUMP JUMPDEST PUSH1 0x2 SLOAD PUSH1 0x40 MLOAD PUSH32 0x8A88895300000000000000000000000000000000000000000000000000000000 DUP2 MSTORE PUSH1 0xFF DUP1 DUP8 AND PUSH1 0x4 DUP4 ADD MSTORE DUP6 AND PUSH1 0x24 DUP3 ADD MSTORE DUP6 SWAP2 DUP6 SWAP2 CALLER SWAP2 PUSH1 0x1 PUSH1 0x1 PUSH1 0xA0 SHL SUB AND SWAP1 PUSH4 0x8A888953 SWAP1 PUSH1 0x44 ADD PUSH1 0x20 PUSH1 0x40 MLOAD DUP1 DUP4 SUB DUP2 DUP7 GAS STATICCALL ISZERO DUP1 ISZERO PUSH2 0x12F9 JUMPI RETURNDATASIZE PUSH1 0x0 DUP1 RETURNDATACOPY RETURNDATASIZE PUSH1 0x0 REVERT JUMPDEST POP POP POP POP PUSH1 0x40 MLOAD RETURNDATASIZE PUSH1 0x1F NOT PUSH1 0x1F DUP3 ADD AND DUP3 ADD DUP1 PUSH1 0x40 MSTORE POP DUP2 ADD SWAP1 PUSH2 0x131D SWAP2 SWAP1 PUSH2 0x443B JUMP JUMPDEST PUSH1 0x1 PUSH1 0x1 PUSH1 0xA0 SHL SUB AND EQ PUSH2 0x1373 JUMPI PUSH1 0x40 MLOAD PUSH3 0x461BCD PUSH1 0xE5 SHL DUP2 MSTORE PUSH1 0x20 PUSH1 0x4 DUP3 ADD MSTORE PUSH1 0x18 PUSH1 0x24 DUP3 ADD MSTORE PUSH32 0x596F7520646F206E6F74206F776E20746869732074696C650000000000000000 PUSH1 0x44 DUP3 ADD MSTORE PUSH1 0x64 ADD PUSH2 0xB96 JUMP JUMPDEST PUSH1 0x2 SLOAD PUSH1 0x40 MLOAD PUSH32 0x8A88895300000000000000000000000000000000000000000000000000000000 DUP2 MSTORE PUSH1 0xFF DUP1 DUP8 AND PUSH1 0x4 DUP4 ADD MSTORE DUP6 AND PUSH1 0x24 DUP3 ADD MSTORE PUSH1 0x0 SWAP2 PUSH1 0x1 PUSH1 0x1 PUSH1 0xA0 SHL SUB AND SWAP1 PUSH4 0x8A888953 SWAP1 PUSH1 0x44 ADD PUSH1 0x20 PUSH1 0x40 MLOAD DUP1 DUP4 SUB DUP2 DUP7 GAS STATICCALL ISZERO DUP1 ISZERO PUSH2 0x13E0 JUMPI RETURNDATASIZE PUSH1 0x0 DUP1 RETURNDATACOPY RETURNDATASIZE PUSH1 0x0 REVERT JUMPDEST POP POP POP POP PUSH1 0x40 MLOAD RETURNDATASIZE PUSH1 0x1F NOT PUSH1 0x1F DUP3 ADD AND DUP3 ADD DUP1 PUSH1 0x40 MSTORE POP DUP2 ADD SWAP1 PUSH2 0x1404 SWAP2 SWAP1 PUSH2 0x443B JUMP JUMPDEST SWAP1 POP PUSH1 0x1 PUSH1 0x1 PUSH1 0xA0 SHL SUB DUP2 AND PUSH2 0x145C JUMPI PUSH1 0x40 MLOAD PUSH3 0x461BCD PUSH1 0xE5 SHL DUP2 MSTORE PUSH1 0x20 PUSH1 0x4 DUP3 ADD MSTORE PUSH1 0xB PUSH1 0x24 DUP3 ADD MSTORE PUSH32 0x4E6F20646566656E646572000000000000000000000000000000000000000000 PUSH1 0x44 DUP3 ADD MSTORE PUSH1 0x64 ADD PUSH2 0xB96 JUMP JUMPDEST PUSH2 0x146A DUP8 DUP8 DUP8 DUP8 CALLER DUP7 PUSH2 0x26F8 JUMP JUMPDEST PUSH2 0x1472 PUSH2 0x3E1A JUMP JUMPDEST PUSH1 0xFF DUP9 DUP2 AND DUP1 DUP4 MSTORE DUP9 DUP3 AND PUSH1 0x20 DUP5 ADD DUP2 SWAP1 MSTORE DUP9 DUP4 AND PUSH1 0x40 DUP1 DUP7 ADD SWAP2 SWAP1 SWAP2 MSTORE SWAP3 DUP9 AND PUSH1 0x60 DUP6 ADD MSTORE PUSH1 0x0 SLOAD SWAP3 MLOAD PUSH32 0xBD63837800000000000000000000000000000000000000000000000000000000 DUP2 MSTORE PUSH1 0x4 DUP2 ADD SWAP3 SWAP1 SWAP3 MSTORE PUSH1 0x24 DUP3 ADD MSTORE PUSH1 0x1 PUSH1 0x1 PUSH1 0xA0 SHL SUB SWAP1 SWAP2 AND SWAP1 PUSH4 0xBD638378 SWAP1 PUSH1 0x44 ADD PUSH2 0x1E0 PUSH1 0x40 MLOAD DUP1 DUP4 SUB DUP2 DUP7 GAS STATICCALL ISZERO DUP1 ISZERO PUSH2 0x1500 JUMPI RETURNDATASIZE PUSH1 0x0 DUP1 RETURNDATACOPY RETURNDATASIZE PUSH1 0x0 REVERT JUMPDEST POP POP POP POP PUSH1 0x40 MLOAD RETURNDATASIZE PUSH1 0x1F NOT PUSH1 0x1F DUP3 ADD AND DUP3 ADD DUP1 PUSH1 0x40 MSTORE POP DUP2 ADD SWAP1 PUSH2 0x1524 SWAP2 SWAP1 PUSH2 0x456B JUMP JUMPDEST PUSH1 0x80 DUP3 ADD MSTORE PUSH1 0x0 SLOAD PUSH1 0x40 MLOAD PUSH32 0xBD63837800000000000000000000000000000000000000000000000000000000 DUP2 MSTORE PUSH1 0xFF DUP1 DUP10 AND PUSH1 0x4 DUP4 ADD MSTORE DUP8 AND PUSH1 0x24 DUP3 ADD MSTORE PUSH1 0x1 PUSH1 0x1 PUSH1 0xA0 SHL SUB SWAP1 SWAP2 AND SWAP1 PUSH4 0xBD638378 SWAP1 PUSH1 0x44 ADD PUSH2 0x1E0 PUSH1 0x40 MLOAD DUP1 DUP4 SUB DUP2 DUP7 GAS STATICCALL ISZERO DUP1 ISZERO PUSH2 0x1596 JUMPI RETURNDATASIZE PUSH1 0x0 DUP1 RETURNDATACOPY RETURNDATASIZE PUSH1 0x0 REVERT JUMPDEST POP POP POP POP PUSH1 0x40 MLOAD RETURNDATASIZE PUSH1 0x1F NOT PUSH1 0x1F DUP3 ADD AND DUP3 ADD DUP1 PUSH1 0x40 MSTORE POP DUP2 ADD SWAP1 PUSH2 0x15BA SWAP2 SWAP1 PUSH2 0x456B JUMP JUMPDEST PUSH1 0xA0 DUP3 ADD MSTORE PUSH1 0x80 DUP2 ADD MLOAD PUSH2 0x140 ADD MLOAD PUSH1 0xA GT ISZERO PUSH2 0x163F JUMPI PUSH1 0x40 MLOAD PUSH3 0x461BCD PUSH1 0xE5 SHL DUP2 MSTORE PUSH1 0x20 PUSH1 0x4 DUP3 ADD MSTORE PUSH1 0x2D PUSH1 0x24 DUP3 ADD MSTORE PUSH32 0x4E656564206174206C65617374203130206F6666656E7369766520736F6C6469 PUSH1 0x44 DUP3 ADD MSTORE PUSH32 0x65727320746F2061747461636B00000000000000000000000000000000000000 PUSH1 0x64 DUP3 ADD MSTORE PUSH1 0x84 ADD PUSH2 0xB96 JUMP JUMPDEST PUSH1 0x0 PUSH2 0x164B DUP9 DUP8 PUSH2 0x26C7 JUMP JUMPDEST PUSH2 0x1655 DUP11 DUP10 PUSH2 0x26C7 JUMP JUMPDEST PUSH2 0x165F SWAP2 SWAP1 PUSH2 0x4458 JUMP JUMPDEST SWAP1 POP PUSH2 0x1671 DUP10 DUP10 DUP4 DUP6 PUSH1 0x80 ADD MLOAD PUSH2 0x2C06 JUMP JUMPDEST PUSH2 0x1685 DUP3 PUSH1 0x80 ADD MLOAD DUP4 PUSH1 0xA0 ADD MLOAD DUP10 DUP10 PUSH2 0x2F0F JUMP JUMPDEST PUSH1 0xE0 DUP5 ADD MSTORE PUSH1 0xC0 DUP4 ADD MSTORE PUSH1 0x0 PUSH2 0x169A DUP4 PUSH2 0x3061 JUMP JUMPDEST SWAP1 POP PUSH1 0x0 DUP4 PUSH1 0xE0 ADD MLOAD DUP5 PUSH1 0xC0 ADD MLOAD GT ISZERO PUSH2 0x16BA JUMPI PUSH2 0x16B7 DUP5 PUSH2 0x3303 JUMP JUMPDEST SWAP1 POP JUMPDEST PUSH2 0x16C2 PUSH2 0x3F6D JUMP JUMPDEST DUP3 DUP2 MSTORE PUSH1 0x20 DUP2 ADD DUP3 SWAP1 MSTORE PUSH1 0xE0 DUP6 ADD MLOAD PUSH1 0xC0 DUP7 ADD MLOAD GT PUSH1 0x40 DUP3 ADD MSTORE PUSH2 0x16E8 DUP6 DUP3 CALLER DUP10 PUSH2 0x3469 JUMP JUMPDEST POP POP POP POP POP POP POP POP POP POP POP POP JUMP JUMPDEST PUSH1 0x1 PUSH1 0x1 PUSH1 0xA0 SHL SUB DUP2 AND PUSH1 0x0 SWAP1 DUP2 MSTORE PUSH1 0x8 PUSH1 0x20 SWAP1 DUP2 MSTORE PUSH1 0x40 DUP1 DUP4 KECCAK256 DUP1 SLOAD DUP3 MLOAD DUP2 DUP6 MUL DUP2 ADD DUP6 ADD SWAP1 SWAP4 MSTORE DUP1 DUP4 MSTORE PUSH1 0x60 SWAP5 SWAP4 DUP4 ADD DUP3 DUP3 DUP1 ISZERO PUSH2 0x1755 JUMPI PUSH1 0x20 MUL DUP3 ADD SWAP2 SWAP1 PUSH1 0x0 MSTORE PUSH1 0x20 PUSH1 0x0 KECCAK256 SWAP1 JUMPDEST DUP2 SLOAD DUP2 MSTORE PUSH1 0x20 ADD SWAP1 PUSH1 0x1 ADD SWAP1 DUP1 DUP4 GT PUSH2 0x1741 JUMPI JUMPDEST POP POP POP POP POP SWAP1 POP PUSH1 0x0 DUP2 MLOAD PUSH8 0xFFFFFFFFFFFFFFFF DUP2 GT ISZERO PUSH2 0x1778 JUMPI PUSH2 0x1778 PUSH2 0x440C JUMP JUMPDEST PUSH1 0x40 MLOAD SWAP1 DUP1 DUP3 MSTORE DUP1 PUSH1 0x20 MUL PUSH1 0x20 ADD DUP3 ADD PUSH1 0x40 MSTORE DUP1 ISZERO PUSH2 0x1822 JUMPI DUP2 PUSH1 0x20 ADD JUMPDEST PUSH2 0x180F PUSH1 0x40 MLOAD DUP1 PUSH2 0x1A0 ADD PUSH1 0x40 MSTORE DUP1 PUSH1 0x0 PUSH1 0xFF AND DUP2 MSTORE PUSH1 0x20 ADD PUSH1 0x0 PUSH1 0xFF AND DUP2 MSTORE PUSH1 0x20 ADD PUSH1 0x0 PUSH1 0xFF AND DUP2 MSTORE PUSH1 0x20 ADD PUSH1 0x0 PUSH1 0xFF AND DUP2 MSTORE PUSH1 0x20 ADD PUSH1 0x0 DUP2 MSTORE PUSH1 0x20 ADD PUSH1 0x0 ISZERO ISZERO DUP2 MSTORE PUSH1 0x20 ADD PUSH1 0x0 DUP2 MSTORE PUSH1 0x20 ADD PUSH1 0x0 DUP2 MSTORE PUSH1 0x20 ADD PUSH1 0x0 DUP2 MSTORE PUSH1 0x20 ADD PUSH1 0x0 DUP2 MSTORE PUSH1 0x20 ADD PUSH1 0x0 DUP2 MSTORE PUSH1 0x20 ADD PUSH1 0x0 DUP2 MSTORE PUSH1 0x20 ADD PUSH1 0x0 DUP2 MSTORE POP SWAP1 JUMP JUMPDEST DUP2 MSTORE PUSH1 0x20 ADD SWAP1 PUSH1 0x1 SWAP1 SUB SWAP1 DUP2 PUSH2 0x1796 JUMPI SWAP1 POP JUMPDEST POP SWAP1 POP PUSH1 0x0 JUMPDEST DUP3 MLOAD DUP2 LT ISZERO PUSH2 0x1948 JUMPI PUSH1 0x7 DUP4 DUP3 DUP2 MLOAD DUP2 LT PUSH2 0x1845 JUMPI PUSH2 0x1845 PUSH2 0x43AC JUMP JUMPDEST PUSH1 0x20 MUL PUSH1 0x20 ADD ADD MLOAD DUP2 SLOAD DUP2 LT PUSH2 0x185D JUMPI PUSH2 0x185D PUSH2 0x43AC JUMP JUMPDEST PUSH1 0x0 SWAP2 DUP3 MSTORE PUSH1 0x20 SWAP2 DUP3 SWAP1 KECCAK256 PUSH1 0x40 DUP1 MLOAD PUSH2 0x1A0 DUP2 ADD DUP3 MSTORE PUSH1 0xA SWAP1 SWAP4 MUL SWAP1 SWAP2 ADD DUP1 SLOAD PUSH1 0xFF DUP1 DUP3 AND DUP6 MSTORE PUSH2 0x100 DUP1 DUP4 DIV DUP3 AND SWAP7 DUP7 ADD SWAP7 SWAP1 SWAP7 MSTORE PUSH3 0x10000 DUP3 DIV DUP2 AND SWAP4 DUP6 ADD SWAP4 SWAP1 SWAP4 MSTORE PUSH4 0x1000000 SWAP1 DIV DUP3 AND PUSH1 0x60 DUP5 ADD MSTORE PUSH1 0x1 DUP2 ADD SLOAD PUSH1 0x80 DUP5 ADD MSTORE PUSH1 0x2 DUP2 ADD SLOAD SWAP1 SWAP2 AND ISZERO ISZERO PUSH1 0xA0 DUP4 ADD MSTORE PUSH1 0x3 DUP2 ADD SLOAD PUSH1 0xC0 DUP4 ADD MSTORE PUSH1 0x4 DUP2 ADD SLOAD PUSH1 0xE0 DUP4 ADD MSTORE PUSH1 0x5 DUP2 ADD SLOAD SWAP3 DUP3 ADD SWAP3 SWAP1 SWAP3 MSTORE PUSH1 0x6 DUP3 ADD SLOAD PUSH2 0x120 DUP3 ADD MSTORE PUSH1 0x7 DUP3 ADD SLOAD PUSH2 0x140 DUP3 ADD MSTORE PUSH1 0x8 DUP3 ADD SLOAD PUSH2 0x160 DUP3 ADD MSTORE PUSH1 0x9 SWAP1 SWAP2 ADD SLOAD PUSH2 0x180 DUP3 ADD MSTORE DUP3 MLOAD DUP4 SWAP1 DUP4 SWAP1 DUP2 LT PUSH2 0x192A JUMPI PUSH2 0x192A PUSH2 0x43AC JUMP JUMPDEST PUSH1 0x20 MUL PUSH1 0x20 ADD ADD DUP2 SWAP1 MSTORE POP DUP1 DUP1 PUSH2 0x1940 SWAP1 PUSH2 0x43DB JUMP JUMPDEST SWAP2 POP POP PUSH2 0x1828 JUMP JUMPDEST POP SWAP4 SWAP3 POP POP POP JUMP JUMPDEST PUSH1 0x8 PUSH1 0x20 MSTORE DUP2 PUSH1 0x0 MSTORE PUSH1 0x40 PUSH1 0x0 KECCAK256 DUP2 DUP2 SLOAD DUP2 LT PUSH2 0x196C JUMPI PUSH1 0x0 DUP1 REVERT JUMPDEST SWAP1 PUSH1 0x0 MSTORE PUSH1 0x20 PUSH1 0x0 KECCAK256 ADD PUSH1 0x0 SWAP2 POP SWAP2 POP POP SLOAD DUP2 JUMP JUMPDEST PUSH1 0x2 SLOAD PUSH1 0x40 MLOAD PUSH32 0x8A88895300000000000000000000000000000000000000000000000000000000 DUP2 MSTORE PUSH1 0xFF DUP1 DUP8 AND PUSH1 0x4 DUP4 ADD MSTORE DUP6 AND PUSH1 0x24 DUP3 ADD MSTORE DUP6 SWAP2 DUP6 SWAP2 CALLER SWAP2 PUSH1 0x1 PUSH1 0x1 PUSH1 0xA0 SHL SUB AND SWAP1 PUSH4 0x8A888953 SWAP1 PUSH1 0x44 ADD PUSH1 0x20 PUSH1 0x40 MLOAD DUP1 DUP4 SUB DUP2 DUP7 GAS STATICCALL ISZERO DUP1 ISZERO PUSH2 0x19F1 JUMPI RETURNDATASIZE PUSH1 0x0 DUP1 RETURNDATACOPY RETURNDATASIZE PUSH1 0x0 REVERT JUMPDEST POP POP POP POP PUSH1 0x40 MLOAD RETURNDATASIZE PUSH1 0x1F NOT PUSH1 0x1F DUP3 ADD AND DUP3 ADD DUP1 PUSH1 0x40 MSTORE POP DUP2 ADD SWAP1 PUSH2 0x1A15 SWAP2 SWAP1 PUSH2 0x443B JUMP JUMPDEST PUSH1 0x1 PUSH1 0x1 PUSH1 0xA0 SHL SUB AND EQ PUSH2 0x1A6B JUMPI PUSH1 0x40 MLOAD PUSH3 0x461BCD PUSH1 0xE5 SHL DUP2 MSTORE PUSH1 0x20 PUSH1 0x4 DUP3 ADD MSTORE PUSH1 0x18 PUSH1 0x24 DUP3 ADD MSTORE PUSH32 0x596F7520646F206E6F74206F776E20746869732074696C650000000000000000 PUSH1 0x44 DUP3 ADD MSTORE PUSH1 0x64 ADD PUSH2 0xB96 JUMP JUMPDEST PUSH1 0x0 SLOAD PUSH1 0x40 MLOAD PUSH32 0x5E75968E00000000000000000000000000000000000000000000000000000000 DUP2 MSTORE CALLER PUSH1 0x4 DUP3 ADD MSTORE PUSH1 0x1 PUSH1 0x1 PUSH1 0xA0 SHL SUB SWAP1 SWAP2 AND SWAP1 PUSH4 0x5E75968E SWAP1 PUSH1 0x24 ADD PUSH1 0x20 PUSH1 0x40 MLOAD DUP1 DUP4 SUB DUP2 DUP7 GAS STATICCALL ISZERO DUP1 ISZERO PUSH2 0x1ACC JUMPI RETURNDATASIZE PUSH1 0x0 DUP1 RETURNDATACOPY RETURNDATASIZE PUSH1 0x0 REVERT JUMPDEST POP POP POP POP PUSH1 0x40 MLOAD RETURNDATASIZE PUSH1 0x1F NOT PUSH1 0x1F DUP3 ADD AND DUP3 ADD DUP1 PUSH1 0x40 MSTORE POP DUP2 ADD SWAP1 PUSH2 0x1AF0 SWAP2 SWAP1 PUSH2 0x4488 JUMP JUMPDEST PUSH2 0x1B3C JUMPI PUSH1 0x40 MLOAD PUSH3 0x461BCD PUSH1 0xE5 SHL DUP2 MSTORE PUSH1 0x20 PUSH1 0x4 DUP3 ADD MSTORE PUSH1 0x16 PUSH1 0x24 DUP3 ADD MSTORE PUSH32 0x596F75206D75737420686176652061204D61726B657400000000000000000000 PUSH1 0x44 DUP3 ADD MSTORE PUSH1 0x64 ADD PUSH2 0xB96 JUMP JUMPDEST PUSH1 0xFF DUP5 AND PUSH1 0x0 SWAP1 DUP2 MSTORE PUSH1 0x4 PUSH1 0x20 MSTORE PUSH1 0x40 SWAP1 KECCAK256 SLOAD DUP4 LT PUSH2 0x1B9D JUMPI PUSH1 0x40 MLOAD PUSH3 0x461BCD PUSH1 0xE5 SHL DUP2 MSTORE PUSH1 0x20 PUSH1 0x4 DUP3 ADD MSTORE PUSH1 0xD PUSH1 0x24 DUP3 ADD MSTORE PUSH32 0x496E76616C696420696E64657800000000000000000000000000000000000000 PUSH1 0x44 DUP3 ADD MSTORE PUSH1 0x64 ADD PUSH2 0xB96 JUMP JUMPDEST PUSH1 0x1 DUP5 PUSH1 0xFF AND LT ISZERO DUP1 ISZERO PUSH2 0x1BB5 JUMPI POP PUSH1 0x8 DUP5 PUSH1 0xFF AND GT ISZERO JUMPDEST PUSH2 0x1C01 JUMPI PUSH1 0x40 MLOAD PUSH3 0x461BCD PUSH1 0xE5 SHL DUP2 MSTORE PUSH1 0x20 PUSH1 0x4 DUP3 ADD MSTORE PUSH1 0x15 PUSH1 0x24 DUP3 ADD MSTORE PUSH32 0x496E76616C6964207265736F7572636520747970650000000000000000000000 PUSH1 0x44 DUP3 ADD MSTORE PUSH1 0x64 ADD PUSH2 0xB96 JUMP JUMPDEST PUSH1 0xFF DUP5 AND PUSH1 0x0 SWAP1 DUP2 MSTORE PUSH1 0x4 PUSH1 0x20 MSTORE PUSH1 0x40 DUP2 KECCAK256 DUP1 SLOAD DUP6 SWAP1 DUP2 LT PUSH2 0x1C25 JUMPI PUSH2 0x1C25 PUSH2 0x43AC JUMP JUMPDEST PUSH1 0x0 SWAP2 DUP3 MSTORE PUSH1 0x20 DUP1 DUP4 KECCAK256 PUSH1 0x40 DUP1 MLOAD PUSH1 0x80 DUP2 ADD DUP3 MSTORE PUSH1 0x3 SWAP5 SWAP1 SWAP5 MUL SWAP1 SWAP2 ADD DUP1 SLOAD PUSH1 0x1 PUSH1 0x1 PUSH1 0xA0 SHL SUB DUP2 AND DUP1 DUP7 MSTORE PUSH21 0x10000000000000000000000000000000000000000 SWAP1 SWAP2 DIV PUSH1 0xFF AND SWAP4 DUP6 ADD SWAP4 SWAP1 SWAP4 MSTORE PUSH1 0x1 DUP2 ADD SLOAD SWAP2 DUP5 ADD DUP3 SWAP1 MSTORE PUSH1 0x2 ADD SLOAD PUSH1 0x60 DUP5 ADD DUP2 SWAP1 MSTORE SWAP3 SWAP5 POP SWAP2 SWAP3 PUSH1 0x6E PUSH2 0x1C9C DUP6 PUSH1 0x64 PUSH2 0x4471 JUMP JUMPDEST PUSH2 0x1CA6 SWAP2 SWAP1 PUSH2 0x44AA JUMP JUMPDEST SWAP1 POP PUSH1 0x0 PUSH2 0x1CB4 DUP3 DUP7 PUSH2 0x4399 JUMP JUMPDEST PUSH1 0x1 SLOAD PUSH1 0x40 MLOAD PUSH32 0x23B872DD00000000000000000000000000000000000000000000000000000000 DUP2 MSTORE CALLER PUSH1 0x4 DUP3 ADD MSTORE ADDRESS PUSH1 0x24 DUP3 ADD MSTORE PUSH1 0x44 DUP2 ADD DUP9 SWAP1 MSTORE SWAP2 SWAP3 POP PUSH1 0x1 PUSH1 0x1 PUSH1 0xA0 SHL SUB AND SWAP1 PUSH4 0x23B872DD SWAP1 PUSH1 0x64 ADD PUSH1 0x20 PUSH1 0x40 MLOAD DUP1 DUP4 SUB DUP2 PUSH1 0x0 DUP8 GAS CALL ISZERO DUP1 ISZERO PUSH2 0x1D25 JUMPI RETURNDATASIZE PUSH1 0x0 DUP1 RETURNDATACOPY RETURNDATASIZE PUSH1 0x0 REVERT JUMPDEST POP POP POP POP PUSH1 0x40 MLOAD RETURNDATASIZE PUSH1 0x1F NOT PUSH1 0x1F DUP3 ADD AND DUP3 ADD DUP1 PUSH1 0x40 MSTORE POP DUP2 ADD SWAP1 PUSH2 0x1D49 SWAP2 SWAP1 PUSH2 0x4488 JUMP JUMPDEST PUSH2 0x1DBB JUMPI PUSH1 0x40 MLOAD PUSH3 0x461BCD PUSH1 0xE5 SHL DUP2 MSTORE PUSH1 0x20 PUSH1 0x4 DUP3 ADD MSTORE PUSH1 0x21 PUSH1 0x24 DUP3 ADD MSTORE PUSH32 0x546F6B656E207472616E7366657220746F20636F6E7472616374206661696C65 PUSH1 0x44 DUP3 ADD MSTORE PUSH32 0x6400000000000000000000000000000000000000000000000000000000000000 PUSH1 0x64 DUP3 ADD MSTORE PUSH1 0x84 ADD PUSH2 0xB96 JUMP JUMPDEST PUSH1 0x1 SLOAD PUSH1 0x40 MLOAD PUSH32 0xA9059CBB00000000000000000000000000000000000000000000000000000000 DUP2 MSTORE PUSH1 0x1 PUSH1 0x1 PUSH1 0xA0 SHL SUB DUP6 DUP2 AND PUSH1 0x4 DUP4 ADD MSTORE PUSH1 0x24 DUP3 ADD DUP6 SWAP1 MSTORE SWAP1 SWAP2 AND SWAP1 PUSH4 0xA9059CBB SWAP1 PUSH1 0x44 ADD PUSH1 0x20 PUSH1 0x40 MLOAD DUP1 DUP4 SUB DUP2 PUSH1 0x0 DUP8 GAS CALL ISZERO DUP1 ISZERO PUSH2 0x1E27 JUMPI RETURNDATASIZE PUSH1 0x0 DUP1 RETURNDATACOPY RETURNDATASIZE PUSH1 0x0 REVERT JUMPDEST POP POP POP POP PUSH1 0x40 MLOAD RETURNDATASIZE PUSH1 0x1F NOT PUSH1 0x1F DUP3 ADD AND DUP3 ADD DUP1 PUSH1 0x40 MSTORE POP DUP2 ADD SWAP1 PUSH2 0x1E4B SWAP2 SWAP1 PUSH2 0x4488 JUMP JUMPDEST PUSH2 0x1E97 JUMPI PUSH1 0x40 MLOAD PUSH3 0x461BCD PUSH1 0xE5 SHL DUP2 MSTORE PUSH1 0x20 PUSH1 0x4 DUP3 ADD MSTORE PUSH1 0x19 PUSH1 0x24 DUP3 ADD MSTORE PUSH32 0x5472616E7366657220746F2073656C6C6572206661696C656400000000000000 PUSH1 0x44 DUP3 ADD MSTORE PUSH1 0x64 ADD PUSH2 0xB96 JUMP JUMPDEST PUSH1 0x1 SLOAD PUSH1 0x40 MLOAD PUSH32 0x42966C6800000000000000000000000000000000000000000000000000000000 DUP2 MSTORE PUSH1 0x4 DUP2 ADD DUP4 SWAP1 MSTORE PUSH1 0x1 PUSH1 0x1 PUSH1 0xA0 SHL SUB SWAP1 SWAP2 AND SWAP1 PUSH4 0x42966C68 SWAP1 PUSH1 0x24 ADD PUSH1 0x20 PUSH1 0x40 MLOAD DUP1 DUP4 SUB DUP2 PUSH1 0x0 DUP8 GAS CALL ISZERO DUP1 ISZERO PUSH2 0x1EFB JUMPI RETURNDATASIZE PUSH1 0x0 DUP1 RETURNDATACOPY RETURNDATASIZE PUSH1 0x0 REVERT JUMPDEST POP POP POP POP PUSH1 0x40 MLOAD RETURNDATASIZE PUSH1 0x1F NOT PUSH1 0x1F DUP3 ADD AND DUP3 ADD DUP1 PUSH1 0x40 MSTORE POP DUP2 ADD SWAP1 PUSH2 0x1F1F SWAP2 SWAP1 PUSH2 0x4488 JUMP JUMPDEST PUSH2 0x1F6B JUMPI PUSH1 0x40 MLOAD PUSH3 0x461BCD PUSH1 0xE5 SHL DUP2 MSTORE PUSH1 0x20 PUSH1 0x4 DUP3 ADD MSTORE PUSH1 0xF PUSH1 0x24 DUP3 ADD MSTORE PUSH32 0x4C4F50206275726E206661696C65640000000000000000000000000000000000 PUSH1 0x44 DUP3 ADD MSTORE PUSH1 0x64 ADD PUSH2 0xB96 JUMP JUMPDEST PUSH1 0x0 SLOAD PUSH1 0x40 MLOAD PUSH4 0x3E5F2857 PUSH1 0xE0 SHL DUP2 MSTORE PUSH1 0xFF DUP1 DUP16 AND PUSH1 0x4 DUP4 ADD MSTORE DUP1 DUP15 AND PUSH1 0x24 DUP4 ADD MSTORE DUP13 AND PUSH1 0x44 DUP3 ADD MSTORE PUSH1 0x64 DUP2 ADD DUP7 SWAP1 MSTORE PUSH1 0x1 PUSH1 0x84 DUP3 ADD MSTORE PUSH1 0x1 PUSH1 0x1 PUSH1 0xA0 SHL SUB SWAP1 SWAP2 AND SWAP1 PUSH4 0x3E5F2857 SWAP1 PUSH1 0xA4 ADD PUSH1 0x0 PUSH1 0x40 MLOAD DUP1 DUP4 SUB DUP2 PUSH1 0x0 DUP8 DUP1 EXTCODESIZE ISZERO DUP1 ISZERO PUSH2 0x1FD1 JUMPI PUSH1 0x0 DUP1 REVERT JUMPDEST POP GAS CALL ISZERO DUP1 ISZERO PUSH2 0x1FE5 JUMPI RETURNDATASIZE PUSH1 0x0 DUP1 RETURNDATACOPY RETURNDATASIZE PUSH1 0x0 REVERT JUMPDEST POP POP POP POP PUSH1 0xFF DUP11 AND PUSH1 0x0 SWAP1 DUP2 MSTORE PUSH1 0x4 PUSH1 0x20 MSTORE PUSH1 0x40 SWAP1 KECCAK256 DUP1 SLOAD PUSH2 0x2009 SWAP1 PUSH1 0x1 SWAP1 PUSH2 0x4399 JUMP JUMPDEST DUP2 SLOAD DUP2 LT PUSH2 0x2019 JUMPI PUSH2 0x2019 PUSH2 0x43AC JUMP JUMPDEST SWAP1 PUSH1 0x0 MSTORE PUSH1 0x20 PUSH1 0x0 KECCAK256 SWAP1 PUSH1 0x3 MUL ADD PUSH1 0x4 PUSH1 0x0 DUP13 PUSH1 0xFF AND PUSH1 0xFF AND DUP2 MSTORE PUSH1 0x20 ADD SWAP1 DUP2 MSTORE PUSH1 0x20 ADD PUSH1 0x0 KECCAK256 DUP11 DUP2 SLOAD DUP2 LT PUSH2 0x2051 JUMPI PUSH2 0x2051 PUSH2 0x43AC JUMP JUMPDEST PUSH1 0x0 SWAP2 DUP3 MSTORE PUSH1 0x20 DUP1 DUP4 KECCAK256 DUP5 SLOAD PUSH1 0x3 SWAP4 SWAP1 SWAP4 MUL ADD DUP1 SLOAD PUSH1 0x1 PUSH1 0x1 PUSH1 0xA0 SHL SUB SWAP1 SWAP4 AND PUSH32 0xFFFFFFFFFFFFFFFFFFFFFFFF0000000000000000000000000000000000000000 DUP5 AND DUP2 OR DUP3 SSTORE DUP6 SLOAD PUSH32 0xFFFFFFFFFFFFFFFFFFFFFF000000000000000000000000000000000000000000 SWAP1 SWAP5 AND OR PUSH21 0x10000000000000000000000000000000000000000 SWAP4 DUP5 SWAP1 DIV PUSH1 0xFF SWAP1 DUP2 AND SWAP1 SWAP5 MUL OR DUP2 SSTORE PUSH1 0x1 DUP1 DUP7 ADD SLOAD SWAP1 DUP3 ADD SSTORE PUSH1 0x2 SWAP5 DUP6 ADD SLOAD SWAP5 ADD SWAP4 SWAP1 SWAP4 SSTORE DUP13 AND DUP2 MSTORE PUSH1 0x4 SWAP1 SWAP2 MSTORE PUSH1 0x40 SWAP1 KECCAK256 DUP1 SLOAD DUP1 PUSH2 0x2116 JUMPI PUSH2 0x2116 PUSH2 0x463B JUMP JUMPDEST PUSH1 0x0 DUP3 DUP2 MSTORE PUSH1 0x20 DUP2 KECCAK256 PUSH1 0x3 PUSH1 0x0 NOT SWAP1 SWAP4 ADD SWAP3 DUP4 MUL ADD DUP1 SLOAD PUSH32 0xFFFFFFFFFFFFFFFFFFFFFF000000000000000000000000000000000000000000 AND DUP2 SSTORE PUSH1 0x1 DUP2 ADD DUP3 SWAP1 SSTORE PUSH1 0x2 ADD SSTORE SWAP1 SSTORE PUSH1 0x40 MLOAD PUSH1 0xFF DUP12 AND SWAP1 PUSH1 0x1 PUSH1 0x1 PUSH1 0xA0 SHL SUB DUP6 AND SWAP1 CALLER SWAP1 PUSH32 0xCB8E9DCE1A8C67703D11D2B78043345960BAB3C035AA061005630270B28C89EC SWAP1 PUSH2 0x21AB SWAP1 DUP10 SWAP1 DUP12 SWAP1 SWAP2 DUP3 MSTORE PUSH1 0x20 DUP3 ADD MSTORE PUSH1 0x40 ADD SWAP1 JUMP JUMPDEST PUSH1 0x40 MLOAD DUP1 SWAP2 SUB SWAP1 LOG4 POP POP POP POP POP POP POP POP POP POP POP POP JUMP JUMPDEST PUSH1 0x2 SLOAD PUSH1 0x40 MLOAD PUSH32 0x8A88895300000000000000000000000000000000000000000000000000000000 DUP2 MSTORE PUSH1 0xFF DUP1 DUP9 AND PUSH1 0x4 DUP4 ADD MSTORE DUP7 AND PUSH1 0x24 DUP3 ADD MSTORE DUP7 SWAP2 DUP7 SWAP2 CALLER SWAP2 PUSH1 0x1 PUSH1 0x1 PUSH1 0xA0 SHL SUB AND SWAP1 PUSH4 0x8A888953 SWAP1 PUSH1 0x44 ADD PUSH1 0x20 PUSH1 0x40 MLOAD DUP1 DUP4 SUB DUP2 DUP7 GAS STATICCALL ISZERO DUP1 ISZERO PUSH2 0x2231 JUMPI RETURNDATASIZE PUSH1 0x0 DUP1 RETURNDATACOPY RETURNDATASIZE PUSH1 0x0 REVERT JUMPDEST POP POP POP POP PUSH1 0x40 MLOAD RETURNDATASIZE PUSH1 0x1F NOT PUSH1 0x1F DUP3 ADD AND DUP3 ADD DUP1 PUSH1 0x40 MSTORE POP DUP2 ADD SWAP1 PUSH2 0x2255 SWAP2 SWAP1 PUSH2 0x443B JUMP JUMPDEST PUSH1 0x1 PUSH1 0x1 PUSH1 0xA0 SHL SUB AND EQ PUSH2 0x22AB JUMPI PUSH1 0x40 MLOAD PUSH3 0x461BCD PUSH1 0xE5 SHL DUP2 MSTORE PUSH1 0x20 PUSH1 0x4 DUP3 ADD MSTORE PUSH1 0x18 PUSH1 0x24 DUP3 ADD MSTORE PUSH32 0x596F7520646F206E6F74206F776E20746869732074696C650000000000000000 PUSH1 0x44 DUP3 ADD MSTORE PUSH1 0x64 ADD PUSH2 0xB96 JUMP JUMPDEST PUSH1 0x0 SLOAD PUSH1 0x40 MLOAD PUSH32 0x5E75968E00000000000000000000000000000000000000000000000000000000 DUP2 MSTORE CALLER PUSH1 0x4 DUP3 ADD MSTORE PUSH1 0x1 PUSH1 0x1 PUSH1 0xA0 SHL SUB SWAP1 SWAP2 AND SWAP1 PUSH4 0x5E75968E SWAP1 PUSH1 0x24 ADD PUSH1 0x20 PUSH1 0x40 MLOAD DUP1 DUP4 SUB DUP2 DUP7 GAS STATICCALL ISZERO DUP1 ISZERO PUSH2 0x230C JUMPI RETURNDATASIZE PUSH1 0x0 DUP1 RETURNDATACOPY RETURNDATASIZE PUSH1 0x0 REVERT JUMPDEST POP POP POP POP PUSH1 0x40 MLOAD RETURNDATASIZE PUSH1 0x1F NOT PUSH1 0x1F DUP3 ADD AND DUP3 ADD DUP1 PUSH1 0x40 MSTORE POP DUP2 ADD SWAP1 PUSH2 0x2330 SWAP2 SWAP1 PUSH2 0x4488 JUMP JUMPDEST PUSH2 0x237C JUMPI PUSH1 0x40 MLOAD PUSH3 0x461BCD PUSH1 0xE5 SHL DUP2 MSTORE PUSH1 0x20 PUSH1 0x4 DUP3 ADD MSTORE PUSH1 0x16 PUSH1 0x24 DUP3 ADD MSTORE PUSH32 0x596F75206D75737420686176652061204D61726B657400000000000000000000 PUSH1 0x44 DUP3 ADD MSTORE PUSH1 0x64 ADD PUSH2 0xB96 JUMP JUMPDEST PUSH3 0x989680 DUP4 LT ISZERO PUSH2 0x23CF JUMPI PUSH1 0x40 MLOAD PUSH3 0x461BCD PUSH1 0xE5 SHL DUP2 MSTORE PUSH1 0x20 PUSH1 0x4 DUP3 ADD MSTORE PUSH1 0x1E PUSH1 0x24 DUP3 ADD MSTORE PUSH32 0x5072696365206D7573742062652067726561746572207468616E2074656E0000 PUSH1 0x44 DUP3 ADD MSTORE PUSH1 0x64 ADD PUSH2 0xB96 JUMP JUMPDEST PUSH1 0x1 DUP6 PUSH1 0xFF AND LT ISZERO DUP1 ISZERO PUSH2 0x23E7 JUMPI POP PUSH1 0x8 DUP6 PUSH1 0xFF AND GT ISZERO JUMPDEST PUSH2 0x2433 JUMPI PUSH1 0x40 MLOAD PUSH3 0x461BCD PUSH1 0xE5 SHL DUP2 MSTORE PUSH1 0x20 PUSH1 0x4 DUP3 ADD MSTORE PUSH1 0x15 PUSH1 0x24 DUP3 ADD MSTORE PUSH32 0x496E76616C6964207265736F7572636520747970650000000000000000000000 PUSH1 0x44 DUP3 ADD MSTORE PUSH1 0x64 ADD PUSH2 0xB96 JUMP JUMPDEST PUSH1 0x4 DUP6 PUSH1 0xFF AND GT PUSH2 0x24A5 JUMPI PUSH2 0x2710 DUP5 LT ISZERO DUP1 ISZERO PUSH2 0x2454 JUMPI POP PUSH4 0x5F5E100 DUP5 GT ISZERO JUMPDEST PUSH2 0x24A0 JUMPI PUSH1 0x40 MLOAD PUSH3 0x461BCD PUSH1 0xE5 SHL DUP2 MSTORE PUSH1 0x20 PUSH1 0x4 DUP3 ADD MSTORE PUSH1 0x1B PUSH1 0x24 DUP3 ADD MSTORE PUSH32 0x496E76616C696420616D6F756E7420666F72207265736F757263650000000000 PUSH1 0x44 DUP3 ADD MSTORE PUSH1 0x64 ADD PUSH2 0xB96 JUMP JUMPDEST PUSH2 0x252A JUMP JUMPDEST PUSH1 0x64 DUP5 LT ISZERO DUP1 ISZERO PUSH2 0x24B8 JUMPI POP PUSH2 0x2710 DUP5 GT ISZERO JUMPDEST PUSH2 0x252A JUMPI PUSH1 0x40 MLOAD PUSH3 0x461BCD PUSH1 0xE5 SHL DUP2 MSTORE PUSH1 0x20 PUSH1 0x4 DUP3 ADD MSTORE PUSH1 0x25 PUSH1 0x24 DUP3 ADD MSTORE PUSH32 0x496E76616C696420616D6F756E7420666F72206D696C69746172792065717569 PUSH1 0x44 DUP3 ADD MSTORE PUSH32 0x706D656E74000000000000000000000000000000000000000000000000000000 PUSH1 0x64 DUP3 ADD MSTORE PUSH1 0x84 ADD PUSH2 0xB96 JUMP JUMPDEST PUSH1 0x0 DUP1 SLOAD PUSH1 0x40 MLOAD PUSH4 0x3E5F2857 PUSH1 0xE0 SHL DUP2 MSTORE PUSH1 0xFF DUP1 DUP12 AND PUSH1 0x4 DUP4 ADD MSTORE DUP1 DUP11 AND PUSH1 0x24 DUP4 ADD MSTORE DUP9 AND PUSH1 0x44 DUP3 ADD MSTORE PUSH1 0x64 DUP2 ADD DUP8 SWAP1 MSTORE PUSH1 0x84 DUP2 ADD SWAP3 SWAP1 SWAP3 MSTORE PUSH1 0x1 PUSH1 0x1 PUSH1 0xA0 SHL SUB AND SWAP1 PUSH4 0x3E5F2857 SWAP1 PUSH1 0xA4 ADD PUSH1 0x0 PUSH1 0x40 MLOAD DUP1 DUP4 SUB DUP2 PUSH1 0x0 DUP8 DUP1 EXTCODESIZE ISZERO DUP1 ISZERO PUSH2 0x2590 JUMPI PUSH1 0x0 DUP1 REVERT JUMPDEST POP GAS CALL ISZERO DUP1 ISZERO PUSH2 0x25A4 JUMPI RETURNDATASIZE PUSH1 0x0 DUP1 RETURNDATACOPY RETURNDATASIZE PUSH1 0x0 REVERT JUMPDEST POP POP POP POP PUSH1 0x0 PUSH1 0xA DUP5 PUSH2 0x25B7 SWAP2 SWAP1 PUSH2 0x44AA JUMP JUMPDEST PUSH2 0x25C1 SWAP1 DUP6 PUSH2 0x44E5 JUMP JUMPDEST PUSH1 0xFF DUP1 DUP9 AND PUSH1 0x0 DUP2 DUP2 MSTORE PUSH1 0x4 PUSH1 0x20 SWAP1 DUP2 MSTORE PUSH1 0x40 DUP1 DUP4 KECCAK256 DUP2 MLOAD PUSH1 0x80 DUP2 ADD DUP4 MSTORE CALLER DUP1 DUP3 MSTORE DUP2 DUP6 ADD DUP8 DUP2 MSTORE DUP3 DUP6 ADD DUP16 DUP2 MSTORE PUSH1 0x60 DUP5 ADD DUP12 DUP2 MSTORE DUP6 SLOAD PUSH1 0x1 DUP2 DUP2 ADD DUP9 SSTORE SWAP7 DUP11 MSTORE SWAP8 SWAP1 SWAP9 KECCAK256 SWAP4 MLOAD PUSH1 0x3 SWAP1 SWAP8 MUL SWAP1 SWAP4 ADD DUP1 SLOAD SWAP2 MLOAD SWAP1 SWAP10 AND PUSH21 0x10000000000000000000000000000000000000000 MUL PUSH32 0xFFFFFFFFFFFFFFFFFFFFFF000000000000000000000000000000000000000000 SWAP1 SWAP2 AND PUSH1 0x1 PUSH1 0x1 PUSH1 0xA0 SHL SUB SWAP7 SWAP1 SWAP7 AND SWAP6 SWAP1 SWAP6 OR SWAP5 SWAP1 SWAP5 OR DUP8 SSTORE MLOAD SWAP1 DUP7 ADD SSTORE SWAP2 MLOAD PUSH1 0x2 SWAP1 SWAP5 ADD SWAP4 SWAP1 SWAP4 SSTORE MLOAD SWAP3 SWAP4 POP SWAP2 PUSH32 0x9D2FA11E70F4C72F4275D772A6E09BBD83B3800A6B4F2351A7AC06DF8DB5169E SWAP1 PUSH2 0x26B5 SWAP1 DUP10 SWAP1 DUP10 SWAP1 SWAP2 DUP3 MSTORE PUSH1 0x20 DUP3 ADD MSTORE PUSH1 0x40 ADD SWAP1 JUMP JUMPDEST PUSH1 0x40 MLOAD DUP1 SWAP2 SUB SWAP1 LOG3 POP POP POP POP POP POP POP POP JUMP JUMPDEST PUSH1 0x0 DUP2 PUSH1 0xFF AND DUP4 PUSH1 0xFF AND GT PUSH2 0x26E5 JUMPI PUSH2 0x26E0 DUP4 DUP4 PUSH2 0x466A JUMP JUMPDEST PUSH2 0x26EF JUMP JUMPDEST PUSH2 0x26EF DUP3 DUP5 PUSH2 0x466A JUMP JUMPDEST SWAP1 POP JUMPDEST SWAP3 SWAP2 POP POP JUMP JUMPDEST DUP2 PUSH1 0x1 PUSH1 0x1 PUSH1 0xA0 SHL SUB AND DUP2 PUSH1 0x1 PUSH1 0x1 PUSH1 0xA0 SHL SUB AND SUB PUSH2 0x2759 JUMPI PUSH1 0x40 MLOAD PUSH3 0x461BCD PUSH1 0xE5 SHL DUP2 MSTORE PUSH1 0x20 PUSH1 0x4 DUP3 ADD MSTORE PUSH1 0x15 PUSH1 0x24 DUP3 ADD MSTORE PUSH32 0x43616E27742061747461636B20796F757273656C660000000000000000000000 PUSH1 0x44 DUP3 ADD MSTORE PUSH1 0x64 ADD PUSH2 0xB96 JUMP JUMPDEST PUSH1 0x3 SLOAD PUSH1 0x40 MLOAD PUSH32 0x7AB9E7FE00000000000000000000000000000000000000000000000000000000 DUP2 MSTORE PUSH1 0xFF DUP1 DUP10 AND PUSH1 0x4 DUP4 ADD MSTORE DUP8 AND PUSH1 0x24 DUP3 ADD MSTORE PUSH1 0x0 SWAP2 PUSH1 0x1 PUSH1 0x1 PUSH1 0xA0 SHL SUB AND SWAP1 PUSH4 0x7AB9E7FE SWAP1 PUSH1 0x44 ADD PUSH1 0x20 PUSH1 0x40 MLOAD DUP1 DUP4 SUB DUP2 DUP7 GAS STATICCALL ISZERO DUP1 ISZERO PUSH2 0x27C6 JUMPI RETURNDATASIZE PUSH1 0x0 DUP1 RETURNDATACOPY RETURNDATASIZE PUSH1 0x0 REVERT JUMPDEST POP POP POP POP PUSH1 0x40 MLOAD RETURNDATASIZE PUSH1 0x1F NOT PUSH1 0x1F DUP3 ADD AND DUP3 ADD DUP1 PUSH1 0x40 MSTORE POP DUP2 ADD SWAP1 PUSH2 0x27EA SWAP2 SWAP1 PUSH2 0x4683 JUMP JUMPDEST PUSH1 0x3 SLOAD PUSH1 0x40 MLOAD PUSH32 0x7AB9E7FE00000000000000000000000000000000000000000000000000000000 DUP2 MSTORE PUSH1 0xFF DUP1 DUP10 AND PUSH1 0x4 DUP4 ADD MSTORE DUP8 AND PUSH1 0x24 DUP3 ADD MSTORE SWAP2 SWAP3 POP PUSH1 0x0 SWAP2 PUSH1 0x1 PUSH1 0x1 PUSH1 0xA0 SHL SUB SWAP1 SWAP2 AND SWAP1 PUSH4 0x7AB9E7FE SWAP1 PUSH1 0x44 ADD PUSH1 0x20 PUSH1 0x40 MLOAD DUP1 DUP4 SUB DUP2 DUP7 GAS STATICCALL ISZERO DUP1 ISZERO PUSH2 0x285C JUMPI RETURNDATASIZE PUSH1 0x0 DUP1 RETURNDATACOPY RETURNDATASIZE PUSH1 0x0 REVERT JUMPDEST POP POP POP POP PUSH1 0x40 MLOAD RETURNDATASIZE PUSH1 0x1F NOT PUSH1 0x1F DUP3 ADD AND DUP3 ADD DUP1 PUSH1 0x40 MSTORE POP DUP2 ADD SWAP1 PUSH2 0x2880 SWAP2 SWAP1 PUSH2 0x4683 JUMP JUMPDEST SWAP1 POP PUSH1 0xFF DUP3 AND ISZERO DUP1 PUSH2 0x2893 JUMPI POP PUSH1 0xFF DUP2 AND ISZERO JUMPDEST DUP1 PUSH2 0x28A4 JUMPI POP DUP1 PUSH1 0xFF AND DUP3 PUSH1 0xFF AND EQ ISZERO JUMPDEST PUSH2 0x2916 JUMPI PUSH1 0x40 MLOAD PUSH3 0x461BCD PUSH1 0xE5 SHL DUP2 MSTORE PUSH1 0x20 PUSH1 0x4 DUP3 ADD MSTORE PUSH1 0x27 PUSH1 0x24 DUP3 ADD MSTORE PUSH32 0x43616E6E6F742061747461636B2061206D656D626572206F6620796F7572206F PUSH1 0x44 DUP3 ADD MSTORE PUSH32 0x776E20636C616E00000000000000000000000000000000000000000000000000 PUSH1 0x64 DUP3 ADD MSTORE PUSH1 0x84 ADD PUSH2 0xB96 JUMP JUMPDEST PUSH1 0x0 PUSH2 0x2922 DUP9 DUP8 PUSH2 0x26C7 JUMP JUMPDEST PUSH2 0x292C DUP11 DUP10 PUSH2 0x26C7 JUMP JUMPDEST PUSH2 0x2936 SWAP2 SWAP1 PUSH2 0x4458 JUMP JUMPDEST SWAP1 POP PUSH1 0x0 DUP2 PUSH1 0xFF AND GT DUP1 ISZERO PUSH2 0x294F JUMPI POP PUSH1 0x26 DUP2 PUSH1 0xFF AND GT ISZERO JUMPDEST PUSH2 0x299B JUMPI PUSH1 0x40 MLOAD PUSH3 0x461BCD PUSH1 0xE5 SHL DUP2 MSTORE PUSH1 0x20 PUSH1 0x4 DUP3 ADD MSTORE PUSH1 0x1B PUSH1 0x24 DUP3 ADD MSTORE PUSH32 0x54617267657420746F6F20666172206F722073616D652074696C650000000000 PUSH1 0x44 DUP3 ADD MSTORE PUSH1 0x64 ADD PUSH2 0xB96 JUMP JUMPDEST PUSH1 0xFF DUP1 DUP11 AND PUSH1 0x0 SWAP1 DUP2 MSTORE PUSH1 0x5 PUSH1 0x20 SWAP1 DUP2 MSTORE PUSH1 0x40 DUP1 DUP4 KECCAK256 SWAP4 DUP13 AND DUP4 MSTORE SWAP3 SWAP1 MSTORE KECCAK256 SLOAD PUSH2 0x29C7 SWAP1 PUSH2 0x12C PUSH2 0x44E5 JUMP JUMPDEST PUSH1 0x0 SLOAD PUSH1 0x40 MLOAD PUSH32 0x41EDE44F00000000000000000000000000000000000000000000000000000000 DUP2 MSTORE PUSH1 0xFF DUP1 DUP14 AND PUSH1 0x4 DUP4 ADD MSTORE DUP12 AND PUSH1 0x24 DUP3 ADD MSTORE PUSH1 0x1 PUSH1 0x1 PUSH1 0xA0 SHL SUB SWAP1 SWAP2 AND SWAP1 PUSH4 0x41EDE44F SWAP1 PUSH1 0x44 ADD PUSH1 0x20 PUSH1 0x40 MLOAD DUP1 DUP4 SUB DUP2 DUP7 GAS STATICCALL ISZERO DUP1 ISZERO PUSH2 0x2A33 JUMPI RETURNDATASIZE PUSH1 0x0 DUP1 RETURNDATACOPY RETURNDATASIZE PUSH1 0x0 REVERT JUMPDEST POP POP POP POP PUSH1 0x40 MLOAD RETURNDATASIZE PUSH1 0x1F NOT PUSH1 0x1F DUP3 ADD AND DUP3 ADD DUP1 PUSH1 0x40 MSTORE POP DUP2 ADD SWAP1 PUSH2 0x2A57 SWAP2 SWAP1 PUSH2 0x46A0 JUMP JUMPDEST LT ISZERO PUSH2 0x2ACB JUMPI PUSH1 0x40 MLOAD PUSH3 0x461BCD PUSH1 0xE5 SHL DUP2 MSTORE PUSH1 0x20 PUSH1 0x4 DUP3 ADD MSTORE PUSH1 0x22 PUSH1 0x24 DUP3 ADD MSTORE PUSH32 0x4E6F7420656E6F756768207475726E732073696E6365206C6173742061747461 PUSH1 0x44 DUP3 ADD MSTORE PUSH32 0x636B000000000000000000000000000000000000000000000000000000000000 PUSH1 0x64 DUP3 ADD MSTORE PUSH1 0x84 ADD PUSH2 0xB96 JUMP JUMPDEST PUSH1 0xFF DUP1 DUP9 AND PUSH1 0x0 SWAP1 DUP2 MSTORE PUSH1 0x6 PUSH1 0x20 SWAP1 DUP2 MSTORE PUSH1 0x40 DUP1 DUP4 KECCAK256 SWAP4 DUP11 AND DUP4 MSTORE SWAP3 SWAP1 MSTORE KECCAK256 SLOAD PUSH2 0x2AF7 SWAP1 PUSH2 0x12C PUSH2 0x44E5 JUMP JUMPDEST PUSH1 0x0 SLOAD PUSH1 0x40 MLOAD PUSH32 0x41EDE44F00000000000000000000000000000000000000000000000000000000 DUP2 MSTORE PUSH1 0xFF DUP1 DUP12 AND PUSH1 0x4 DUP4 ADD MSTORE DUP10 AND PUSH1 0x24 DUP3 ADD MSTORE PUSH1 0x1 PUSH1 0x1 PUSH1 0xA0 SHL SUB SWAP1 SWAP2 AND SWAP1 PUSH4 0x41EDE44F SWAP1 PUSH1 0x44 ADD PUSH1 0x20 PUSH1 0x40 MLOAD DUP1 DUP4 SUB DUP2 DUP7 GAS STATICCALL ISZERO DUP1 ISZERO PUSH2 0x2B63 JUMPI RETURNDATASIZE PUSH1 0x0 DUP1 RETURNDATACOPY RETURNDATASIZE PUSH1 0x0 REVERT JUMPDEST POP POP POP POP PUSH1 0x40 MLOAD RETURNDATASIZE PUSH1 0x1F NOT PUSH1 0x1F DUP3 ADD AND DUP3 ADD DUP1 PUSH1 0x40 MSTORE POP DUP2 ADD SWAP1 PUSH2 0x2B87 SWAP2 SWAP1 PUSH2 0x46A0 JUMP JUMPDEST LT ISZERO PUSH2 0x2BFB JUMPI PUSH1 0x40 MLOAD PUSH3 0x461BCD PUSH1 0xE5 SHL DUP2 MSTORE PUSH1 0x20 PUSH1 0x4 DUP3 ADD MSTORE PUSH1 0x25 PUSH1 0x24 DUP3 ADD MSTORE PUSH32 0x446566656E64657220697320756E64657220636F6F6C646F776E2070726F7465 PUSH1 0x44 DUP3 ADD MSTORE PUSH32 0x6374696F6E000000000000000000000000000000000000000000000000000000 PUSH1 0x64 DUP3 ADD MSTORE PUSH1 0x84 ADD PUSH2 0xB96 JUMP JUMPDEST POP POP POP POP POP POP POP POP POP JUMP JUMPDEST PUSH1 0x0 DUP2 PUSH2 0x160 ADD MLOAD DUP3 PUSH2 0x140 ADD MLOAD PUSH2 0x2C1E SWAP2 SWAP1 PUSH2 0x44E5 JUMP JUMPDEST PUSH2 0x2C2C PUSH1 0xFF DUP6 AND PUSH1 0x64 PUSH2 0x4471 JUMP JUMPDEST PUSH2 0x2C36 SWAP2 SWAP1 PUSH2 0x4471 JUMP JUMPDEST PUSH1 0x0 SLOAD SWAP1 SWAP2 POP PUSH1 0x1 PUSH1 0x1 PUSH1 0xA0 SHL SUB AND PUSH4 0x3E5F2857 DUP7 DUP7 PUSH1 0x1 PUSH1 0x64 PUSH2 0x2C5B DUP8 PUSH1 0x28 PUSH2 0x4471 JUMP JUMPDEST PUSH2 0x2C65 SWAP2 SWAP1 PUSH2 0x44AA JUMP JUMPDEST PUSH1 0x40 MLOAD PUSH32 0xFFFFFFFF00000000000000000000000000000000000000000000000000000000 PUSH1 0xE0 DUP8 SWAP1 SHL AND DUP2 MSTORE PUSH1 0xFF SWAP5 DUP6 AND PUSH1 0x4 DUP3 ADD MSTORE SWAP3 DUP5 AND PUSH1 0x24 DUP5 ADD MSTORE SWAP3 AND PUSH1 0x44 DUP3 ADD MSTORE PUSH1 0x64 DUP2 ADD SWAP2 SWAP1 SWAP2 MSTORE PUSH1 0x0 PUSH1 0x84 DUP3 ADD MSTORE PUSH1 0xA4 ADD PUSH1 0x0 PUSH1 0x40 MLOAD DUP1 DUP4 SUB DUP2 PUSH1 0x0 DUP8 DUP1 EXTCODESIZE ISZERO DUP1 ISZERO PUSH2 0x2CD6 JUMPI PUSH1 0x0 DUP1 REVERT JUMPDEST POP GAS CALL ISZERO DUP1 ISZERO PUSH2 0x2CEA JUMPI RETURNDATASIZE PUSH1 0x0 DUP1 RETURNDATACOPY RETURNDATASIZE PUSH1 0x0 REVERT JUMPDEST POP POP PUSH1 0x0 SLOAD PUSH1 0x1 PUSH1 0x1 PUSH1 0xA0 SHL SUB AND SWAP2 POP PUSH4 0x3E5F2857 SWAP1 POP DUP7 DUP7 PUSH1 0x2 PUSH1 0x64 PUSH2 0x2D12 DUP8 PUSH1 0x1E PUSH2 0x4471 JUMP JUMPDEST PUSH2 0x2D1C SWAP2 SWAP1 PUSH2 0x44AA JUMP JUMPDEST PUSH1 0x40 MLOAD PUSH32 0xFFFFFFFF00000000000000000000000000000000000000000000000000000000 PUSH1 0xE0 DUP8 SWAP1 SHL AND DUP2 MSTORE PUSH1 0xFF SWAP5 DUP6 AND PUSH1 0x4 DUP3 ADD MSTORE SWAP3 DUP5 AND PUSH1 0x24 DUP5 ADD MSTORE SWAP3 AND PUSH1 0x44 DUP3 ADD MSTORE PUSH1 0x64 DUP2 ADD SWAP2 SWAP1 SWAP2 MSTORE PUSH1 0x0 PUSH1 0x84 DUP3 ADD MSTORE PUSH1 0xA4 ADD PUSH1 0x0 PUSH1 0x40 MLOAD DUP1 DUP4 SUB DUP2 PUSH1 0x0 DUP8 DUP1 EXTCODESIZE ISZERO DUP1 ISZERO PUSH2 0x2D8D JUMPI PUSH1 0x0 DUP1 REVERT JUMPDEST POP GAS CALL ISZERO DUP1 ISZERO PUSH2 0x2DA1 JUMPI RETURNDATASIZE PUSH1 0x0 DUP1 RETURNDATACOPY RETURNDATASIZE PUSH1 0x0 REVERT JUMPDEST POP POP PUSH1 0x0 SLOAD PUSH1 0x1 PUSH1 0x1 PUSH1 0xA0 SHL SUB AND SWAP2 POP PUSH4 0x3E5F2857 SWAP1 POP DUP7 DUP7 PUSH1 0x3 PUSH1 0x64 PUSH2 0x2DC9 DUP8 PUSH1 0x14 PUSH2 0x4471 JUMP JUMPDEST PUSH2 0x2DD3 SWAP2 SWAP1 PUSH2 0x44AA JUMP JUMPDEST PUSH1 0x40 MLOAD PUSH32 0xFFFFFFFF00000000000000000000000000000000000000000000000000000000 PUSH1 0xE0 DUP8 SWAP1 SHL AND DUP2 MSTORE PUSH1 0xFF SWAP5 DUP6 AND PUSH1 0x4 DUP3 ADD MSTORE SWAP3 DUP5 AND PUSH1 0x24 DUP5 ADD MSTORE SWAP3 AND PUSH1 0x44 DUP3 ADD MSTORE PUSH1 0x64 DUP2 ADD SWAP2 SWAP1 SWAP2 MSTORE PUSH1 0x0 PUSH1 0x84 DUP3 ADD MSTORE PUSH1 0xA4 ADD PUSH1 0x0 PUSH1 0x40 MLOAD DUP1 DUP4 SUB DUP2 PUSH1 0x0 DUP8 DUP1 EXTCODESIZE ISZERO DUP1 ISZERO PUSH2 0x2E44 JUMPI PUSH1 0x0 DUP1 REVERT JUMPDEST POP GAS CALL ISZERO DUP1 ISZERO PUSH2 0x2E58 JUMPI RETURNDATASIZE PUSH1 0x0 DUP1 RETURNDATACOPY RETURNDATASIZE PUSH1 0x0 REVERT JUMPDEST POP POP PUSH1 0x0 SLOAD PUSH1 0x1 PUSH1 0x1 PUSH1 0xA0 SHL SUB AND SWAP2 POP PUSH4 0x3E5F2857 SWAP1 POP DUP7 DUP7 PUSH1 0x4 PUSH1 0x64 PUSH2 0x2E80 DUP8 PUSH1 0xA PUSH2 0x4471 JUMP JUMPDEST PUSH2 0x2E8A SWAP2 SWAP1 PUSH2 0x44AA JUMP JUMPDEST PUSH1 0x40 MLOAD PUSH32 0xFFFFFFFF00000000000000000000000000000000000000000000000000000000 PUSH1 0xE0 DUP8 SWAP1 SHL AND DUP2 MSTORE PUSH1 0xFF SWAP5 DUP6 AND PUSH1 0x4 DUP3 ADD MSTORE SWAP3 DUP5 AND PUSH1 0x24 DUP5 ADD MSTORE SWAP3 AND PUSH1 0x44 DUP3 ADD MSTORE PUSH1 0x64 DUP2 ADD SWAP2 SWAP1 SWAP2 MSTORE PUSH1 0x0 PUSH1 0x84 DUP3 ADD MSTORE PUSH1 0xA4 ADD PUSH1 0x0 PUSH1 0x40 MLOAD DUP1 DUP4 SUB DUP2 PUSH1 0x0 DUP8 DUP1 EXTCODESIZE ISZERO DUP1 ISZERO PUSH2 0x2EFB JUMPI PUSH1 0x0 DUP1 REVERT JUMPDEST POP GAS CALL ISZERO DUP1 ISZERO PUSH2 0x2BFB JUMPI RETURNDATASIZE PUSH1 0x0 DUP1 RETURNDATACOPY RETURNDATASIZE PUSH1 0x0 REVERT JUMPDEST PUSH1 0x0 DUP1 SLOAD PUSH1 0x40 MLOAD PUSH32 0x2A490AE800000000000000000000000000000000000000000000000000000000 DUP2 MSTORE PUSH1 0xFF DUP1 DUP7 AND PUSH1 0x4 DUP4 ADD MSTORE DUP5 AND PUSH1 0x24 DUP3 ADD MSTORE DUP3 SWAP2 DUP3 SWAP2 PUSH1 0x1 PUSH1 0x1 PUSH1 0xA0 SHL SUB SWAP1 SWAP2 AND SWAP1 PUSH4 0x2A490AE8 SWAP1 PUSH1 0x44 ADD PUSH1 0x20 PUSH1 0x40 MLOAD DUP1 DUP4 SUB DUP2 DUP7 GAS STATICCALL ISZERO DUP1 ISZERO PUSH2 0x2F80 JUMPI RETURNDATASIZE PUSH1 0x0 DUP1 RETURNDATACOPY RETURNDATASIZE PUSH1 0x0 REVERT JUMPDEST POP POP POP POP PUSH1 0x40 MLOAD RETURNDATASIZE PUSH1 0x1F NOT PUSH1 0x1F DUP3 ADD AND DUP3 ADD DUP1 PUSH1 0x40 MSTORE POP DUP2 ADD SWAP1 PUSH2 0x2FA4 SWAP2 SWAP1 PUSH2 0x46A0 JUMP JUMPDEST SWAP1 POP PUSH1 0x0 DUP8 PUSH1 0x80 ADD MLOAD PUSH2 0xFFFF AND DUP9 PUSH2 0x180 ADD MLOAD PUSH1 0xFF AND DUP10 PUSH2 0x160 ADD MLOAD DUP11 PUSH2 0x140 ADD MLOAD PUSH1 0x2 PUSH2 0x2FD2 SWAP2 SWAP1 PUSH2 0x4471 JUMP JUMPDEST PUSH2 0x2FDC SWAP2 SWAP1 PUSH2 0x44E5 JUMP JUMPDEST PUSH2 0x2FE6 SWAP2 SWAP1 PUSH2 0x44E5 JUMP JUMPDEST PUSH2 0x2FF0 SWAP2 SWAP1 PUSH2 0x44E5 JUMP JUMPDEST SWAP1 POP PUSH1 0x0 PUSH2 0x2FFF DUP4 PUSH1 0x64 PUSH2 0x4471 JUMP JUMPDEST DUP9 PUSH1 0x80 ADD MLOAD PUSH2 0xFFFF AND DUP10 PUSH2 0x1A0 ADD MLOAD PUSH1 0xFF AND DUP11 PUSH2 0x160 ADD MLOAD PUSH1 0x2 PUSH2 0x3023 SWAP2 SWAP1 PUSH2 0x4471 JUMP JUMPDEST DUP12 PUSH2 0x140 ADD MLOAD PUSH2 0x3033 SWAP2 SWAP1 PUSH2 0x44E5 JUMP JUMPDEST PUSH2 0x303D SWAP2 SWAP1 PUSH2 0x44E5 JUMP JUMPDEST PUSH2 0x3047 SWAP2 SWAP1 PUSH2 0x44E5 JUMP JUMPDEST PUSH2 0x3051 SWAP2 SWAP1 PUSH2 0x44E5 JUMP JUMPDEST SWAP2 SWAP10 SWAP2 SWAP9 POP SWAP1 SWAP7 POP POP POP POP POP POP POP JUMP JUMPDEST PUSH2 0x308C PUSH1 0x40 MLOAD DUP1 PUSH1 0x80 ADD PUSH1 0x40 MSTORE DUP1 PUSH1 0x0 DUP2 MSTORE PUSH1 0x20 ADD PUSH1 0x0 DUP2 MSTORE PUSH1 0x20 ADD PUSH1 0x0 DUP2 MSTORE PUSH1 0x20 ADD PUSH1 0x0 DUP2 MSTORE POP SWAP1 JUMP JUMPDEST PUSH1 0x0 PUSH2 0x30AA DUP4 PUSH1 0x80 ADD MLOAD DUP5 PUSH1 0xA0 ADD MLOAD DUP6 PUSH1 0xC0 ADD MLOAD DUP7 PUSH1 0xE0 ADD MLOAD PUSH2 0x3A3C JUMP JUMPDEST DUP1 MLOAD SWAP1 SWAP2 POP ISZERO PUSH2 0x313B JUMPI PUSH1 0x0 DUP1 SLOAD DUP5 MLOAD PUSH1 0x20 DUP7 ADD MLOAD DUP5 MLOAD PUSH1 0x40 MLOAD PUSH4 0x3E5F2857 PUSH1 0xE0 SHL DUP2 MSTORE PUSH1 0xFF SWAP4 DUP5 AND PUSH1 0x4 DUP3 ADD MSTORE SWAP3 SWAP1 SWAP2 AND PUSH1 0x24 DUP4 ADD MSTORE PUSH1 0x9 PUSH1 0x44 DUP4 ADD MSTORE PUSH1 0x64 DUP3 ADD MSTORE PUSH1 0x84 DUP2 ADD SWAP3 SWAP1 SWAP3 MSTORE PUSH1 0x1 PUSH1 0x1 PUSH1 0xA0 SHL SUB AND SWAP1 PUSH4 0x3E5F2857 SWAP1 PUSH1 0xA4 ADD PUSH1 0x0 PUSH1 0x40 MLOAD DUP1 DUP4 SUB DUP2 PUSH1 0x0 DUP8 DUP1 EXTCODESIZE ISZERO DUP1 ISZERO PUSH2 0x3122 JUMPI PUSH1 0x0 DUP1 REVERT JUMPDEST POP GAS CALL ISZERO DUP1 ISZERO PUSH2 0x3136 JUMPI RETURNDATASIZE PUSH1 0x0 DUP1 RETURNDATACOPY RETURNDATASIZE PUSH1 0x0 REVERT JUMPDEST POP POP POP POP JUMPDEST PUSH1 0x20 DUP2 ADD MLOAD ISZERO PUSH2 0x31CF JUMPI PUSH1 0x0 DUP1 SLOAD DUP5 MLOAD PUSH1 0x20 DUP1 DUP8 ADD MLOAD SWAP1 DUP6 ADD MLOAD PUSH1 0x40 MLOAD PUSH4 0x3E5F2857 PUSH1 0xE0 SHL DUP2 MSTORE PUSH1 0xFF SWAP4 DUP5 AND PUSH1 0x4 DUP3 ADD MSTORE SWAP3 SWAP1 SWAP2 AND PUSH1 0x24 DUP4 ADD MSTORE PUSH1 0xA PUSH1 0x44 DUP4 ADD MSTORE PUSH1 0x64 DUP3 ADD MSTORE PUSH1 0x84 DUP2 ADD SWAP3 SWAP1 SWAP3 MSTORE PUSH1 0x1 PUSH1 0x1 PUSH1 0xA0 SHL SUB AND SWAP1 PUSH4 0x3E5F2857 SWAP1 PUSH1 0xA4 ADD PUSH1 0x0 PUSH1 0x40 MLOAD DUP1 DUP4 SUB DUP2 PUSH1 0x0 DUP8 DUP1 EXTCODESIZE ISZERO DUP1 ISZERO PUSH2 0x31B6 JUMPI PUSH1 0x0 DUP1 REVERT JUMPDEST POP GAS CALL ISZERO DUP1 ISZERO PUSH2 0x31CA JUMPI RETURNDATASIZE PUSH1 0x0 DUP1 RETURNDATACOPY RETURNDATASIZE PUSH1 0x0 REVERT JUMPDEST POP POP POP POP JUMPDEST PUSH1 0x40 DUP2 ADD MLOAD ISZERO PUSH2 0x3266 JUMPI PUSH1 0x0 DUP1 SLOAD PUSH1 0x40 DUP6 DUP2 ADD MLOAD PUSH1 0x60 DUP8 ADD MLOAD DUP6 DUP4 ADD MLOAD SWAP3 MLOAD PUSH4 0x3E5F2857 PUSH1 0xE0 SHL DUP2 MSTORE PUSH1 0xFF SWAP3 DUP4 AND PUSH1 0x4 DUP3 ADD MSTORE SWAP2 AND PUSH1 0x24 DUP3 ADD MSTORE PUSH1 0x9 PUSH1 0x44 DUP3 ADD MSTORE PUSH1 0x64 DUP2 ADD SWAP2 SWAP1 SWAP2 MSTORE PUSH1 0x84 DUP2 ADD SWAP3 SWAP1 SWAP3 MSTORE PUSH1 0x1 PUSH1 0x1 PUSH1 0xA0 SHL SUB AND SWAP1 PUSH4 0x3E5F2857 SWAP1 PUSH1 0xA4 ADD PUSH1 0x0 PUSH1 0x40 MLOAD DUP1 DUP4 SUB DUP2 PUSH1 0x0 DUP8 DUP1 EXTCODESIZE ISZERO DUP1 ISZERO PUSH2 0x324D JUMPI PUSH1 0x0 DUP1 REVERT JUMPDEST POP GAS CALL ISZERO DUP1 ISZERO PUSH2 0x3261 JUMPI RETURNDATASIZE PUSH1 0x0 DUP1 RETURNDATACOPY RETURNDATASIZE PUSH1 0x0 REVERT JUMPDEST POP POP POP POP JUMPDEST PUSH1 0x60 DUP2 ADD MLOAD ISZERO PUSH2 0x26F2 JUMPI PUSH1 0x0 DUP1 SLOAD PUSH1 0x40 DUP6 DUP2 ADD MLOAD PUSH1 0x60 DUP1 DUP9 ADD MLOAD SWAP1 DUP7 ADD MLOAD SWAP3 MLOAD PUSH4 0x3E5F2857 PUSH1 0xE0 SHL DUP2 MSTORE PUSH1 0xFF SWAP3 DUP4 AND PUSH1 0x4 DUP3 ADD MSTORE SWAP2 AND PUSH1 0x24 DUP3 ADD MSTORE PUSH1 0xA PUSH1 0x44 DUP3 ADD MSTORE PUSH1 0x64 DUP2 ADD SWAP2 SWAP1 SWAP2 MSTORE PUSH1 0x84 DUP2 ADD SWAP3 SWAP1 SWAP3 MSTORE PUSH1 0x1 PUSH1 0x1 PUSH1 0xA0 SHL SUB AND SWAP1 PUSH4 0x3E5F2857 SWAP1 PUSH1 0xA4 ADD PUSH1 0x0 PUSH1 0x40 MLOAD DUP1 DUP4 SUB DUP2 PUSH1 0x0 DUP8 DUP1 EXTCODESIZE ISZERO DUP1 ISZERO PUSH2 0x32E5 JUMPI PUSH1 0x0 DUP1 REVERT JUMPDEST POP GAS CALL ISZERO DUP1 ISZERO PUSH2 0x32F9 JUMPI RETURNDATASIZE PUSH1 0x0 DUP1 RETURNDATACOPY RETURNDATASIZE PUSH1 0x0 REVERT JUMPDEST POP POP POP POP SWAP3 SWAP2 POP POP JUMP JUMPDEST PUSH1 0x0 DUP1 DUP3 PUSH1 0xE0 ADD MLOAD DUP4 PUSH1 0xC0 ADD MLOAD GT PUSH2 0x332E JUMPI DUP3 PUSH1 0xC0 ADD MLOAD DUP4 PUSH1 0xE0 ADD MLOAD PUSH2 0x3329 SWAP2 SWAP1 PUSH2 0x4399 JUMP JUMPDEST PUSH2 0x3342 JUMP JUMPDEST DUP3 PUSH1 0xE0 ADD MLOAD DUP4 PUSH1 0xC0 ADD MLOAD PUSH2 0x3342 SWAP2 SWAP1 PUSH2 0x4399 JUMP JUMPDEST SWAP1 POP PUSH1 0x0 DUP4 PUSH1 0xE0 ADD MLOAD DUP5 PUSH1 0xC0 ADD MLOAD PUSH2 0x335A SWAP2 SWAP1 PUSH2 0x44E5 JUMP JUMPDEST SWAP1 POP PUSH1 0x0 DUP2 PUSH2 0x336A DUP5 PUSH1 0x64 PUSH2 0x4471 JUMP JUMPDEST PUSH2 0x3374 SWAP2 SWAP1 PUSH2 0x44AA JUMP JUMPDEST SWAP1 POP PUSH1 0x0 PUSH2 0x338F PUSH2 0x3386 DUP4 PUSH1 0x1E PUSH2 0x44E5 JUMP JUMPDEST PUSH1 0xA PUSH1 0x3C PUSH2 0x3C86 JUMP JUMPDEST SWAP1 POP PUSH2 0x33B9 PUSH1 0x1 DUP8 PUSH1 0xA0 ADD MLOAD PUSH1 0x0 ADD MLOAD DUP9 PUSH1 0x0 ADD MLOAD DUP10 PUSH1 0x20 ADD MLOAD DUP11 PUSH1 0x40 ADD MLOAD DUP12 PUSH1 0x60 ADD MLOAD DUP8 PUSH2 0x3CB0 JUMP JUMPDEST PUSH2 0x33C3 SWAP1 DUP7 PUSH2 0x44E5 JUMP JUMPDEST SWAP5 POP PUSH2 0x33ED PUSH1 0x2 DUP8 PUSH1 0xA0 ADD MLOAD PUSH1 0x20 ADD MLOAD DUP9 PUSH1 0x0 ADD MLOAD DUP10 PUSH1 0x20 ADD MLOAD DUP11 PUSH1 0x40 ADD MLOAD DUP12 PUSH1 0x60 ADD MLOAD DUP8 PUSH2 0x3CB0 JUMP JUMPDEST PUSH2 0x33F7 SWAP1 DUP7 PUSH2 0x44E5 JUMP JUMPDEST SWAP5 POP PUSH2 0x3421 PUSH1 0x3 DUP8 PUSH1 0xA0 ADD MLOAD PUSH1 0x40 ADD MLOAD DUP9 PUSH1 0x0 ADD MLOAD DUP10 PUSH1 0x20 ADD MLOAD DUP11 PUSH1 0x40 ADD MLOAD DUP12 PUSH1 0x60 ADD MLOAD DUP8 PUSH2 0x3CB0 JUMP JUMPDEST PUSH2 0x342B SWAP1 DUP7 PUSH2 0x44E5 JUMP JUMPDEST SWAP5 POP PUSH2 0x3455 PUSH1 0x4 DUP8 PUSH1 0xA0 ADD MLOAD PUSH1 0x60 ADD MLOAD DUP9 PUSH1 0x0 ADD MLOAD DUP10 PUSH1 0x20 ADD MLOAD DUP11 PUSH1 0x40 ADD MLOAD DUP12 PUSH1 0x60 ADD MLOAD DUP8 PUSH2 0x3CB0 JUMP JUMPDEST PUSH2 0x345F SWAP1 DUP7 PUSH2 0x44E5 JUMP JUMPDEST SWAP7 SWAP6 POP POP POP POP POP POP JUMP JUMPDEST PUSH1 0x0 SLOAD DUP5 MLOAD PUSH1 0x20 DUP7 ADD MLOAD PUSH1 0x40 MLOAD PUSH32 0x41EDE44F00000000000000000000000000000000000000000000000000000000 DUP2 MSTORE PUSH1 0xFF SWAP3 DUP4 AND PUSH1 0x4 DUP3 ADD MSTORE SWAP2 AND PUSH1 0x24 DUP3 ADD MSTORE PUSH1 0x1 PUSH1 0x1 PUSH1 0xA0 SHL SUB SWAP1 SWAP2 AND SWAP1 PUSH4 0x41EDE44F SWAP1 PUSH1 0x44 ADD PUSH1 0x20 PUSH1 0x40 MLOAD DUP1 DUP4 SUB DUP2 DUP7 GAS STATICCALL ISZERO DUP1 ISZERO PUSH2 0x34DC JUMPI RETURNDATASIZE PUSH1 0x0 DUP1 RETURNDATACOPY RETURNDATASIZE PUSH1 0x0 REVERT JUMPDEST POP POP POP POP PUSH1 0x40 MLOAD RETURNDATASIZE PUSH1 0x1F NOT PUSH1 0x1F DUP3 ADD AND DUP3 ADD DUP1 PUSH1 0x40 MSTORE POP DUP2 ADD SWAP1 PUSH2 0x3500 SWAP2 SWAP1 PUSH2 0x46A0 JUMP JUMPDEST DUP5 MLOAD PUSH1 0xFF SWAP1 DUP2 AND PUSH1 0x0 SWAP1 DUP2 MSTORE PUSH1 0x5 PUSH1 0x20 SWAP1 DUP2 MSTORE PUSH1 0x40 DUP1 DUP4 KECCAK256 DUP3 DUP11 ADD MLOAD DUP6 AND DUP5 MSTORE SWAP1 SWAP2 MSTORE DUP1 DUP3 KECCAK256 SWAP4 SWAP1 SWAP4 SSTORE SLOAD DUP3 DUP8 ADD MLOAD PUSH1 0x60 DUP9 ADD MLOAD SWAP4 MLOAD PUSH32 0x41EDE44F00000000000000000000000000000000000000000000000000000000 DUP2 MSTORE SWAP1 DUP4 AND PUSH1 0x4 DUP3 ADD MSTORE SWAP3 SWAP1 SWAP2 AND PUSH1 0x24 DUP4 ADD MSTORE PUSH1 0x1 PUSH1 0x1 PUSH1 0xA0 SHL SUB AND SWAP1 PUSH4 0x41EDE44F SWAP1 PUSH1 0x44 ADD PUSH1 0x20 PUSH1 0x40 MLOAD DUP1 DUP4 SUB DUP2 DUP7 GAS STATICCALL ISZERO DUP1 ISZERO PUSH2 0x359A JUMPI RETURNDATASIZE PUSH1 0x0 DUP1 RETURNDATACOPY RETURNDATASIZE PUSH1 0x0 REVERT JUMPDEST POP POP POP POP PUSH1 0x40 MLOAD RETURNDATASIZE PUSH1 0x1F NOT PUSH1 0x1F DUP3 ADD AND DUP3 ADD DUP1 PUSH1 0x40 MSTORE POP DUP2 ADD SWAP1 PUSH2 0x35BE SWAP2 SWAP1 PUSH2 0x46A0 JUMP JUMPDEST PUSH1 0x40 DUP6 DUP2 ADD MLOAD PUSH1 0xFF SWAP1 DUP2 AND PUSH1 0x0 SWAP1 DUP2 MSTORE PUSH1 0x6 PUSH1 0x20 SWAP1 DUP2 MSTORE DUP4 DUP3 KECCAK256 PUSH1 0x60 DUP11 ADD MLOAD DUP5 AND DUP4 MSTORE DUP2 MSTORE DUP4 DUP3 KECCAK256 SWAP5 SWAP1 SWAP5 SSTORE SLOAD DUP8 MLOAD SWAP4 DUP9 ADD MLOAD SWAP3 MLOAD PUSH32 0x7659BC6000000000000000000000000000000000000000000000000000000000 DUP2 MSTORE SWAP4 DUP3 AND PUSH1 0x4 DUP6 ADD MSTORE SWAP2 AND PUSH1 0x24 DUP4 ADD MSTORE PUSH1 0x1 PUSH1 0x1 PUSH1 0xA0 SHL SUB AND SWAP1 PUSH4 0x7659BC60 SWAP1 PUSH1 0x44 ADD PUSH1 0x0 PUSH1 0x40 MLOAD DUP1 DUP4 SUB DUP2 PUSH1 0x0 DUP8 DUP1 EXTCODESIZE ISZERO DUP1 ISZERO PUSH2 0x3652 JUMPI PUSH1 0x0 DUP1 REVERT JUMPDEST POP GAS CALL ISZERO DUP1 ISZERO PUSH2 0x3666 JUMPI RETURNDATASIZE PUSH1 0x0 DUP1 RETURNDATACOPY RETURNDATASIZE PUSH1 0x0 REVERT JUMPDEST POP POP PUSH1 0x0 SLOAD PUSH1 0x40 DUP8 DUP2 ADD MLOAD PUSH1 0x60 DUP10 ADD MLOAD SWAP2 MLOAD PUSH32 0x7659BC6000000000000000000000000000000000000000000000000000000000 DUP2 MSTORE PUSH1 0xFF SWAP2 DUP3 AND PUSH1 0x4 DUP3 ADD MSTORE SWAP2 AND PUSH1 0x24 DUP3 ADD MSTORE PUSH1 0x1 PUSH1 0x1 PUSH1 0xA0 SHL SUB SWAP1 SWAP2 AND SWAP3 POP PUSH4 0x7659BC60 SWAP2 POP PUSH1 0x44 ADD PUSH1 0x0 PUSH1 0x40 MLOAD DUP1 DUP4 SUB DUP2 PUSH1 0x0 DUP8 DUP1 EXTCODESIZE ISZERO DUP1 ISZERO PUSH2 0x36DD JUMPI PUSH1 0x0 DUP1 REVERT JUMPDEST POP GAS CALL ISZERO DUP1 ISZERO PUSH2 0x36F1 JUMPI RETURNDATASIZE PUSH1 0x0 DUP1 RETURNDATACOPY RETURNDATASIZE PUSH1 0x0 REVERT JUMPDEST POP POP POP POP PUSH1 0x0 DUP5 PUSH1 0xE0 ADD MLOAD DUP6 PUSH1 0xC0 ADD MLOAD GT SWAP1 POP PUSH1 0x7 PUSH1 0x40 MLOAD DUP1 PUSH2 0x1A0 ADD PUSH1 0x40 MSTORE DUP1 DUP8 PUSH1 0x0 ADD MLOAD PUSH1 0xFF AND DUP2 MSTORE PUSH1 0x20 ADD DUP8 PUSH1 0x20 ADD MLOAD PUSH1 0xFF AND DUP2 MSTORE PUSH1 0x20 ADD DUP8 PUSH1 0x40 ADD MLOAD PUSH1 0xFF AND DUP2 MSTORE PUSH1 0x20 ADD DUP8 PUSH1 0x60 ADD MLOAD PUSH1 0xFF AND DUP2 MSTORE PUSH1 0x20 ADD TIMESTAMP DUP2 MSTORE PUSH1 0x20 ADD DUP7 PUSH1 0x40 ADD MLOAD ISZERO ISZERO DUP2 MSTORE PUSH1 0x20 ADD DUP8 PUSH1 0x80 ADD MLOAD PUSH2 0x160 ADD MLOAD DUP9 PUSH1 0x80 ADD MLOAD PUSH2 0x140 ADD MLOAD PUSH2 0x3776 SWAP2 SWAP1 PUSH2 0x44E5 JUMP JUMPDEST DUP2 MSTORE DUP7 MLOAD PUSH1 0x20 DUP2 DUP2 ADD MLOAD SWAP2 MLOAD SWAP3 ADD SWAP2 PUSH2 0x378F SWAP2 SWAP1 PUSH2 0x44E5 JUMP JUMPDEST DUP2 MSTORE PUSH1 0x20 ADD DUP8 PUSH1 0xC0 ADD MLOAD DUP2 MSTORE PUSH1 0x20 ADD DUP8 PUSH1 0xA0 ADD MLOAD PUSH2 0x160 ADD MLOAD DUP9 PUSH1 0xA0 ADD MLOAD PUSH2 0x140 ADD MLOAD PUSH2 0x37BC SWAP2 SWAP1 PUSH2 0x44E5 JUMP JUMPDEST DUP2 MSTORE PUSH1 0x20 ADD DUP7 PUSH1 0x0 ADD MLOAD PUSH1 0x60 ADD MLOAD DUP8 PUSH1 0x0 ADD MLOAD PUSH1 0x40 ADD MLOAD PUSH2 0x37DD SWAP2 SWAP1 PUSH2 0x44E5 JUMP JUMPDEST DUP2 MSTORE PUSH1 0xE0 DUP9 DUP2 ADD MLOAD PUSH1 0x20 DUP1 DUP5 ADD SWAP2 SWAP1 SWAP2 MSTORE DUP9 DUP2 ADD MLOAD PUSH1 0x40 SWAP4 DUP5 ADD MSTORE DUP5 SLOAD PUSH1 0x1 DUP1 DUP3 ADD DUP8 SSTORE PUSH1 0x0 SWAP7 DUP8 MSTORE DUP3 DUP8 KECCAK256 DUP7 MLOAD PUSH1 0xA SWAP1 SWAP4 MUL ADD DUP1 SLOAD DUP8 DUP6 ADD MLOAD DUP9 DUP9 ADD MLOAD PUSH1 0x60 DUP11 ADD MLOAD PUSH1 0xFF SWAP7 DUP8 AND PUSH32 0xFFFFFFFFFFFFFFFFFFFFFFFFFFFFFFFFFFFFFFFFFFFFFFFFFFFFFFFFFFFF0000 SWAP1 SWAP5 AND SWAP4 SWAP1 SWAP4 OR PUSH2 0x100 SWAP3 DUP8 AND DUP4 MUL OR PUSH32 0xFFFFFFFFFFFFFFFFFFFFFFFFFFFFFFFFFFFFFFFFFFFFFFFFFFFFFFFF0000FFFF AND PUSH3 0x10000 SWAP2 DUP8 AND SWAP2 SWAP1 SWAP2 MUL PUSH32 0xFFFFFFFFFFFFFFFFFFFFFFFFFFFFFFFFFFFFFFFFFFFFFFFFFFFFFFFF00FFFFFF AND OR PUSH4 0x1000000 SWAP6 SWAP1 SWAP3 AND SWAP5 SWAP1 SWAP5 MUL OR DUP2 SSTORE PUSH1 0x80 DUP8 ADD MLOAD DUP2 DUP4 ADD SSTORE PUSH1 0xA0 DUP8 ADD MLOAD PUSH1 0x2 DUP3 ADD DUP1 SLOAD PUSH32 0xFFFFFFFFFFFFFFFFFFFFFFFFFFFFFFFFFFFFFFFFFFFFFFFFFFFFFFFFFFFFFF00 AND SWAP2 ISZERO ISZERO SWAP2 SWAP1 SWAP2 OR SWAP1 SSTORE PUSH1 0xC0 DUP8 ADD MLOAD PUSH1 0x3 DUP3 ADD SSTORE SWAP4 DUP7 ADD MLOAD PUSH1 0x4 DUP6 ADD SSTORE SWAP1 DUP6 ADD MLOAD PUSH1 0x5 DUP5 ADD SSTORE PUSH2 0x120 DUP6 ADD MLOAD PUSH1 0x6 DUP5 ADD SSTORE PUSH2 0x140 DUP6 ADD MLOAD PUSH1 0x7 DUP1 DUP6 ADD SWAP2 SWAP1 SWAP2 SSTORE PUSH2 0x160 DUP7 ADD MLOAD PUSH1 0x8 DUP1 DUP7 ADD SWAP2 SWAP1 SWAP2 SSTORE PUSH2 0x180 SWAP1 SWAP7 ADD MLOAD PUSH1 0x9 SWAP1 SWAP5 ADD SWAP4 SWAP1 SWAP4 SSTORE PUSH1 0x1 PUSH1 0x1 PUSH1 0xA0 SHL SUB DUP10 AND DUP7 MSTORE SWAP4 SWAP1 MSTORE SWAP3 KECCAK256 SWAP2 SLOAD PUSH2 0x3967 SWAP2 SWAP1 PUSH2 0x4399 JUMP JUMPDEST DUP2 SLOAD PUSH1 0x1 DUP2 DUP2 ADD DUP5 SSTORE PUSH1 0x0 SWAP4 DUP5 MSTORE PUSH1 0x20 DUP1 DUP6 KECCAK256 SWAP1 SWAP3 ADD SWAP3 SWAP1 SWAP3 SSTORE PUSH1 0x1 PUSH1 0x1 PUSH1 0xA0 SHL SUB DUP6 AND DUP4 MSTORE PUSH1 0x8 SWAP1 MSTORE PUSH1 0x40 SWAP1 SWAP2 KECCAK256 PUSH1 0x7 SLOAD SWAP1 SWAP2 PUSH2 0x39A4 SWAP2 PUSH2 0x4399 JUMP JUMPDEST DUP2 SLOAD PUSH1 0x1 DUP2 ADD DUP4 SSTORE PUSH1 0x0 SWAP3 DUP4 MSTORE PUSH1 0x20 SWAP3 DUP4 SWAP1 KECCAK256 ADD SSTORE DUP6 MLOAD DUP7 DUP3 ADD MLOAD PUSH1 0x40 DUP1 DUP10 ADD MLOAD PUSH1 0x60 DUP1 DUP12 ADD MLOAD DUP4 MLOAD PUSH1 0xFF SWAP7 DUP8 AND DUP2 MSTORE SWAP5 DUP7 AND SWAP7 DUP6 ADD SWAP7 SWAP1 SWAP7 MSTORE SWAP1 DUP5 AND SWAP2 DUP4 ADD SWAP2 SWAP1 SWAP2 MSTORE SWAP2 SWAP1 SWAP3 AND SWAP1 DUP3 ADD MSTORE DUP2 ISZERO ISZERO PUSH1 0x80 DUP3 ADD MSTORE PUSH1 0x1 PUSH1 0x1 PUSH1 0xA0 SHL SUB DUP4 DUP2 AND SWAP2 SWAP1 DUP6 AND SWAP1 PUSH32 0x47389018A4BFD5E1EF612F1FE9082CC3E3675BE36E77743A6BFAF0EA011D586F SWAP1 PUSH1 0xA0 ADD PUSH1 0x40 MLOAD DUP1 SWAP2 SUB SWAP1 LOG3 POP POP POP POP POP JUMP JUMPDEST PUSH2 0x3A67 PUSH1 0x40 MLOAD DUP1 PUSH1 0x80 ADD PUSH1 0x40 MSTORE DUP1 PUSH1 0x0 DUP2 MSTORE PUSH1 0x20 ADD PUSH1 0x0 DUP2 MSTORE PUSH1 0x20 ADD PUSH1 0x0 DUP2 MSTORE PUSH1 0x20 ADD PUSH1 0x0 DUP2 MSTORE POP SWAP1 JUMP JUMPDEST PUSH1 0x0 DUP3 DUP5 GT PUSH2 0x3A7F JUMPI PUSH2 0x3A7A DUP5 DUP5 PUSH2 0x4399 JUMP JUMPDEST PUSH2 0x3A89 JUMP JUMPDEST PUSH2 0x3A89 DUP4 DUP6 PUSH2 0x4399 JUMP JUMPDEST SWAP1 POP PUSH1 0x0 PUSH2 0x3A97 DUP5 DUP7 PUSH2 0x44E5 JUMP JUMPDEST SWAP1 POP PUSH1 0x0 DUP2 PUSH2 0x3AA7 DUP5 PUSH1 0x64 PUSH2 0x4471 JUMP JUMPDEST PUSH2 0x3AB1 SWAP2 SWAP1 PUSH2 0x44AA JUMP JUMPDEST SWAP1 POP DUP5 DUP7 GT ISZERO PUSH2 0x3BAA JUMPI PUSH1 0x64 PUSH2 0x3AE6 PUSH1 0x2 PUSH2 0x3ACC DUP5 DUP5 PUSH2 0x4399 JUMP JUMPDEST PUSH2 0x3AD6 SWAP2 SWAP1 PUSH2 0x44AA JUMP JUMPDEST PUSH2 0x3AE1 SWAP1 PUSH1 0x19 PUSH2 0x44E5 JUMP JUMPDEST PUSH2 0x3DDE JUMP JUMPDEST DUP10 PUSH2 0x140 ADD MLOAD PUSH2 0x3AF6 SWAP2 SWAP1 PUSH2 0x4471 JUMP JUMPDEST PUSH2 0x3B00 SWAP2 SWAP1 PUSH2 0x44AA JUMP JUMPDEST DUP5 MSTORE PUSH1 0x64 PUSH2 0x3B28 PUSH1 0x4 PUSH2 0x3B13 DUP5 DUP5 PUSH2 0x4399 JUMP JUMPDEST PUSH2 0x3B1D SWAP2 SWAP1 PUSH2 0x44AA JUMP JUMPDEST PUSH2 0x3AE1 SWAP1 PUSH1 0xA PUSH2 0x44E5 JUMP JUMPDEST DUP10 PUSH2 0x160 ADD MLOAD PUSH2 0x3B38 SWAP2 SWAP1 PUSH2 0x4471 JUMP JUMPDEST PUSH2 0x3B42 SWAP2 SWAP1 PUSH2 0x44AA JUMP JUMPDEST PUSH1 0x20 DUP6 ADD MSTORE PUSH1 0x64 PUSH2 0x3B57 PUSH2 0x3AE1 DUP4 PUSH1 0x32 PUSH2 0x44E5 JUMP JUMPDEST DUP9 PUSH2 0x140 ADD MLOAD PUSH2 0x3B67 SWAP2 SWAP1 PUSH2 0x4471 JUMP JUMPDEST PUSH2 0x3B71 SWAP2 SWAP1 PUSH2 0x44AA JUMP JUMPDEST PUSH1 0x40 DUP6 ADD MSTORE PUSH1 0x64 PUSH2 0x3B86 PUSH2 0x3AE1 DUP4 PUSH1 0x32 PUSH2 0x44E5 JUMP JUMPDEST DUP9 PUSH2 0x160 ADD MLOAD PUSH2 0x3B96 SWAP2 SWAP1 PUSH2 0x4471 JUMP JUMPDEST PUSH2 0x3BA0 SWAP2 SWAP1 PUSH2 0x44AA JUMP JUMPDEST PUSH1 0x60 DUP6 ADD MSTORE PUSH2 0x3C7B JUMP JUMPDEST PUSH1 0x64 PUSH2 0x3BBA PUSH2 0x3AE1 DUP4 PUSH1 0x32 PUSH2 0x44E5 JUMP JUMPDEST DUP10 PUSH2 0x140 ADD MLOAD PUSH2 0x3BCA SWAP2 SWAP1 PUSH2 0x4471 JUMP JUMPDEST PUSH2 0x3BD4 SWAP2 SWAP1 PUSH2 0x44AA JUMP JUMPDEST DUP5 MSTORE PUSH1 0x64 PUSH2 0x3BE6 PUSH2 0x3AD6 PUSH1 0x2 DUP5 PUSH2 0x44AA JUMP JUMPDEST DUP10 PUSH2 0x160 ADD MLOAD PUSH2 0x3BF6 SWAP2 SWAP1 PUSH2 0x4471 JUMP JUMPDEST PUSH2 0x3C00 SWAP2 SWAP1 PUSH2 0x44AA JUMP JUMPDEST PUSH1 0x20 DUP6 ADD MSTORE PUSH1 0x64 PUSH2 0x3C2B PUSH1 0x4 PUSH2 0x3C16 DUP5 DUP5 PUSH2 0x4399 JUMP JUMPDEST PUSH2 0x3C20 SWAP2 SWAP1 PUSH2 0x44AA JUMP JUMPDEST PUSH2 0x3AE1 SWAP1 PUSH1 0xF PUSH2 0x44E5 JUMP JUMPDEST DUP9 PUSH2 0x140 ADD MLOAD PUSH2 0x3C3B SWAP2 SWAP1 PUSH2 0x4471 JUMP JUMPDEST PUSH2 0x3C45 SWAP2 SWAP1 PUSH2 0x44AA JUMP JUMPDEST PUSH1 0x40 DUP6 ADD MSTORE PUSH1 0x64 PUSH2 0x3C5B PUSH1 0x4 PUSH2 0x3B13 DUP5 DUP5 PUSH2 0x4399 JUMP JUMPDEST DUP9 PUSH2 0x160 ADD MLOAD PUSH2 0x3C6B SWAP2 SWAP1 PUSH2 0x4471 JUMP JUMPDEST PUSH2 0x3C75 SWAP2 SWAP1 PUSH2 0x44AA JUMP JUMPDEST PUSH1 0x60 DUP6 ADD MSTORE JUMPDEST POP POP POP SWAP5 SWAP4 POP POP POP POP JUMP JUMPDEST PUSH1 0x0 DUP3 DUP5 LT ISZERO PUSH2 0x3C97 JUMPI POP DUP2 PUSH2 0x3CA9 JUMP JUMPDEST DUP2 DUP5 GT ISZERO PUSH2 0x3CA6 JUMPI POP DUP1 PUSH2 0x3CA9 JUMP JUMPDEST POP DUP3 JUMPDEST SWAP4 SWAP3 POP POP POP JUMP JUMPDEST PUSH1 0x0 PUSH1 0x1 DUP8 GT ISZERO PUSH2 0x3DD3 JUMPI PUSH1 0x64 PUSH2 0x3CC7 DUP4 DUP10 PUSH2 0x4471 JUMP JUMPDEST PUSH2 0x3CD1 SWAP2 SWAP1 PUSH2 0x44AA JUMP JUMPDEST PUSH1 0x0 DUP1 SLOAD PUSH1 0x40 MLOAD PUSH4 0x3E5F2857 PUSH1 0xE0 SHL DUP2 MSTORE PUSH1 0xFF DUP1 DUP10 AND PUSH1 0x4 DUP4 ADD MSTORE DUP1 DUP9 AND PUSH1 0x24 DUP4 ADD MSTORE DUP13 AND PUSH1 0x44 DUP3 ADD MSTORE PUSH1 0x64 DUP2 ADD DUP5 SWAP1 MSTORE PUSH1 0x84 DUP2 ADD SWAP3 SWAP1 SWAP3 MSTORE SWAP2 SWAP3 POP PUSH1 0x1 PUSH1 0x1 PUSH1 0xA0 SHL SUB SWAP1 SWAP2 AND SWAP1 PUSH4 0x3E5F2857 SWAP1 PUSH1 0xA4 ADD PUSH1 0x0 PUSH1 0x40 MLOAD DUP1 DUP4 SUB DUP2 PUSH1 0x0 DUP8 DUP1 EXTCODESIZE ISZERO DUP1 ISZERO PUSH2 0x3D3C JUMPI PUSH1 0x0 DUP1 REVERT JUMPDEST POP GAS CALL ISZERO DUP1 ISZERO PUSH2 0x3D50 JUMPI RETURNDATASIZE PUSH1 0x0 DUP1 RETURNDATACOPY RETURNDATASIZE PUSH1 0x0 REVERT JUMPDEST POP POP PUSH1 0x0 SLOAD PUSH1 0x40 MLOAD PUSH4 0x3E5F2857 PUSH1 0xE0 SHL DUP2 MSTORE PUSH1 0xFF DUP1 DUP12 AND PUSH1 0x4 DUP4 ADD MSTORE DUP1 DUP11 AND PUSH1 0x24 DUP4 ADD MSTORE DUP13 AND PUSH1 0x44 DUP3 ADD MSTORE PUSH1 0x64 DUP2 ADD DUP6 SWAP1 MSTORE PUSH1 0x1 PUSH1 0x84 DUP3 ADD MSTORE PUSH1 0x1 PUSH1 0x1 PUSH1 0xA0 SHL SUB SWAP1 SWAP2 AND SWAP3 POP PUSH4 0x3E5F2857 SWAP2 POP PUSH1 0xA4 ADD PUSH1 0x0 PUSH1 0x40 MLOAD DUP1 DUP4 SUB DUP2 PUSH1 0x0 DUP8 DUP1 EXTCODESIZE ISZERO DUP1 ISZERO PUSH2 0x3DBA JUMPI PUSH1 0x0 DUP1 REVERT JUMPDEST POP GAS CALL ISZERO DUP1 ISZERO PUSH2 0x3DCE JUMPI RETURNDATASIZE PUSH1 0x0 DUP1 RETURNDATACOPY RETURNDATASIZE PUSH1 0x0 REVERT JUMPDEST POP POP POP POP JUMPDEST SWAP8 SWAP7 POP POP POP POP POP POP POP JUMP JUMPDEST PUSH1 0x0 PUSH2 0x26F2 PUSH2 0x3DEE DUP4 PUSH1 0xA PUSH2 0x3DF5 JUMP JUMPDEST PUSH1 0x5A PUSH2 0x3E0B JUMP JUMPDEST PUSH1 0x0 DUP2 DUP4 GT PUSH2 0x3E04 JUMPI DUP2 PUSH2 0x26EF JUMP JUMPDEST POP SWAP1 SWAP2 SWAP1 POP JUMP JUMPDEST PUSH1 0x0 DUP2 DUP4 LT PUSH2 0x3E04 JUMPI DUP2 PUSH2 0x26EF JUMP JUMPDEST PUSH1 0x40 MLOAD DUP1 PUSH2 0x100 ADD PUSH1 0x40 MSTORE DUP1 PUSH1 0x0 PUSH1 0xFF AND DUP2 MSTORE PUSH1 0x20 ADD PUSH1 0x0 PUSH1 0xFF AND DUP2 MSTORE PUSH1 0x20 ADD PUSH1 0x0 PUSH1 0xFF AND DUP2 MSTORE PUSH1 0x20 ADD PUSH1 0x0 PUSH1 0xFF AND DUP2 MSTORE PUSH1 0x20 ADD PUSH2 0x3ED1 PUSH1 0x40 MLOAD DUP1 PUSH2 0x1E0 ADD PUSH1 0x40 MSTORE DUP1 PUSH1 0x0 DUP2 MSTORE PUSH1 0x20 ADD PUSH1 0x0 DUP2 MSTORE PUSH1 0x20 ADD PUSH1 0x0 DUP2 MSTORE PUSH1 0x20 ADD PUSH1 0x0 DUP2 MSTORE PUSH1 0x20 ADD PUSH1 0x0 PUSH2 0xFFFF AND DUP2 MSTORE PUSH1 0x20 ADD PUSH1 0x0 DUP2 MSTORE PUSH1 0x20 ADD PUSH1 0x0 DUP2 MSTORE PUSH1 0x20 ADD PUSH1 0x0 DUP2 MSTORE PUSH1 0x20 ADD PUSH1 0x0 DUP2 MSTORE PUSH1 0x20 ADD PUSH1 0x0 DUP2 MSTORE PUSH1 0x20 ADD PUSH1 0x0 DUP2 MSTORE PUSH1 0x20 ADD PUSH1 0x0 DUP2 MSTORE PUSH1 0x20 ADD PUSH1 0x0 PUSH1 0xFF AND DUP2 MSTORE PUSH1 0x20 ADD PUSH1 0x0 PUSH1 0xFF AND DUP2 MSTORE PUSH1 0x20 ADD PUSH1 0x0 DUP2 MSTORE POP SWAP1 JUMP JUMPDEST DUP2 MSTORE PUSH1 0x20 ADD PUSH2 0x3F59 PUSH1 0x40 MLOAD DUP1 PUSH2 0x1E0 ADD PUSH1 0x40 MSTORE DUP1 PUSH1 0x0 DUP2 MSTORE PUSH1 0x20 ADD PUSH1 0x0 DUP2 MSTORE PUSH1 0x20 ADD PUSH1 0x0 DUP2 MSTORE PUSH1 0x20 ADD PUSH1 0x0 DUP2 MSTORE PUSH1 0x20 ADD PUSH1 0x0 PUSH2 0xFFFF AND DUP2 MSTORE PUSH1 0x20 ADD PUSH1 0x0 DUP2 MSTORE PUSH1 0x20 ADD PUSH1 0x0 DUP2 MSTORE PUSH1 0x20 ADD PUSH1 0x0 DUP2 MSTORE PUSH1 0x20 ADD PUSH1 0x0 DUP2 MSTORE PUSH1 0x20 ADD PUSH1 0x0 DUP2 MSTORE PUSH1 0x20 ADD PUSH1 0x0 DUP2 MSTORE PUSH1 0x20 ADD PUSH1 0x0 DUP2 MSTORE PUSH1 0x20 ADD PUSH1 0x0 PUSH1 0xFF AND DUP2 MSTORE PUSH1 0x20 ADD PUSH1 0x0 PUSH1 0xFF AND DUP2 MSTORE PUSH1 0x20 ADD PUSH1 0x0 DUP2 MSTORE POP SWAP1 JUMP JUMPDEST DUP2 MSTORE PUSH1 0x20 ADD PUSH1 0x0 DUP2 MSTORE PUSH1 0x20 ADD PUSH1 0x0 DUP2 MSTORE POP SWAP1 JUMP JUMPDEST PUSH1 0x40 MLOAD DUP1 PUSH1 0x60 ADD PUSH1 0x40 MSTORE DUP1 PUSH2 0x3FA3 PUSH1 0x40 MLOAD DUP1 PUSH1 0x80 ADD PUSH1 0x40 MSTORE DUP1 PUSH1 0x0 DUP2 MSTORE PUSH1 0x20 ADD PUSH1 0x0 DUP2 MSTORE PUSH1 0x20 ADD PUSH1 0x0 DUP2 MSTORE PUSH1 0x20 ADD PUSH1 0x0 DUP2 MSTORE POP SWAP1 JUMP JUMPDEST DUP2 MSTORE PUSH1 0x0 PUSH1 0x20 DUP3 ADD DUP2 SWAP1 MSTORE PUSH1 0x40 SWAP1 SWAP2 ADD MSTORE SWAP1 JUMP JUMPDEST PUSH1 0x0 PUSH1 0x20 DUP3 DUP5 SUB SLT ISZERO PUSH2 0x3FC9 JUMPI PUSH1 0x0 DUP1 REVERT JUMPDEST POP CALLDATALOAD SWAP2 SWAP1 POP JUMP JUMPDEST PUSH1 0x20 DUP1 DUP3 MSTORE DUP3 MLOAD DUP3 DUP3 ADD DUP2 SWAP1 MSTORE PUSH1 0x0 SWAP2 SWAP1 PUSH1 0x40 SWAP1 DUP2 DUP6 ADD SWAP1 DUP7 DUP5 ADD DUP6 JUMPDEST DUP3 DUP2 LT ISZERO PUSH2 0x4095 JUMPI DUP2 MLOAD DUP1 MLOAD PUSH1 0xFF SWAP1 DUP2 AND DUP7 MSTORE DUP8 DUP3 ADD MLOAD DUP2 AND DUP9 DUP8 ADD MSTORE DUP7 DUP3 ADD MLOAD DUP2 AND DUP8 DUP8 ADD MSTORE PUSH1 0x60 DUP1 DUP4 ADD MLOAD SWAP1 SWAP2 AND SWAP1 DUP7 ADD MSTORE PUSH1 0x80 DUP1 DUP3 ADD MLOAD SWAP1 DUP7 ADD MSTORE PUSH1 0xA0 DUP1 DUP3 ADD MLOAD ISZERO ISZERO SWAP1 DUP7 ADD MSTORE PUSH1 0xC0 DUP1 DUP3 ADD MLOAD SWAP1 DUP7 ADD MSTORE PUSH1 0xE0 DUP1 DUP3 ADD MLOAD SWAP1 DUP7 ADD MSTORE PUSH2 0x100 DUP1 DUP3 ADD MLOAD SWAP1 DUP7 ADD MSTORE PUSH2 0x120 DUP1 DUP3 ADD MLOAD SWAP1 DUP7 ADD MSTORE PUSH2 0x140 DUP1 DUP3 ADD MLOAD SWAP1 DUP7 ADD MSTORE PUSH2 0x160 DUP1 DUP3 ADD MLOAD SWAP1 DUP7 ADD MSTORE PUSH2 0x180 SWAP1 DUP2 ADD MLOAD SWAP1 DUP6 ADD MSTORE PUSH2 0x1A0 SWAP1 SWAP4 ADD SWAP3 SWAP1 DUP6 ADD SWAP1 PUSH1 0x1 ADD PUSH2 0x3FED JUMP JUMPDEST POP SWAP2 SWAP8 SWAP7 POP POP POP POP POP POP POP JUMP JUMPDEST PUSH1 0xFF DUP2 AND DUP2 EQ PUSH2 0x40B1 JUMPI PUSH1 0x0 DUP1 REVERT JUMPDEST POP JUMP JUMPDEST PUSH1 0x0 DUP1 PUSH1 0x40 DUP4 DUP6 SUB SLT ISZERO PUSH2 0x40C7 JUMPI PUSH1 0x0 DUP1 REVERT JUMPDEST DUP3 CALLDATALOAD PUSH2 0x40D2 DUP2 PUSH2 0x40A2 JUMP JUMPDEST SWAP5 PUSH1 0x20 SWAP4 SWAP1 SWAP4 ADD CALLDATALOAD SWAP4 POP POP POP JUMP JUMPDEST PUSH1 0x1 PUSH1 0x1 PUSH1 0xA0 SHL SUB DUP2 AND DUP2 EQ PUSH2 0x40B1 JUMPI PUSH1 0x0 DUP1 REVERT JUMPDEST PUSH1 0x0 PUSH1 0x20 DUP3 DUP5 SUB SLT ISZERO PUSH2 0x4107 JUMPI PUSH1 0x0 DUP1 REVERT JUMPDEST DUP2 CALLDATALOAD PUSH2 0x3CA9 DUP2 PUSH2 0x40E0 JUMP JUMPDEST PUSH1 0x0 PUSH1 0x20 DUP3 DUP5 SUB SLT ISZERO PUSH2 0x4124 JUMPI PUSH1 0x0 DUP1 REVERT JUMPDEST DUP2 CALLDATALOAD PUSH2 0x3CA9 DUP2 PUSH2 0x40A2 JUMP JUMPDEST PUSH1 0x20 DUP1 DUP3 MSTORE DUP3 MLOAD DUP3 DUP3 ADD DUP2 SWAP1 MSTORE PUSH1 0x0 SWAP2 SWAP1 PUSH1 0x40 SWAP1 DUP2 DUP6 ADD SWAP1 DUP7 DUP5 ADD DUP6 JUMPDEST DUP3 DUP2 LT ISZERO PUSH2 0x4095 JUMPI DUP2 MLOAD DUP1 MLOAD PUSH1 0x1 PUSH1 0x1 PUSH1 0xA0 SHL SUB AND DUP6 MSTORE DUP7 DUP2 ADD MLOAD PUSH1 0xFF AND DUP8 DUP7 ADD MSTORE DUP6 DUP2 ADD MLOAD DUP7 DUP7 ADD MSTORE PUSH1 0x60 SWAP1 DUP2 ADD MLOAD SWAP1 DUP6 ADD MSTORE PUSH1 0x80 SWAP1 SWAP4 ADD SWAP3 SWAP1 DUP6 ADD SWAP1 PUSH1 0x1 ADD PUSH2 0x414C JUMP JUMPDEST PUSH1 0x0 DUP1 PUSH1 0x0 DUP1 PUSH1 0x0 DUP1 PUSH1 0xC0 DUP8 DUP10 SUB SLT ISZERO PUSH2 0x41AB JUMPI PUSH1 0x0 DUP1 REVERT JUMPDEST DUP7 CALLDATALOAD PUSH2 0x41B6 DUP2 PUSH2 0x40A2 JUMP JUMPDEST SWAP6 POP PUSH1 0x20 DUP8 ADD CALLDATALOAD PUSH2 0x41C6 DUP2 PUSH2 0x40A2 JUMP JUMPDEST SWAP5 POP PUSH1 0x40 DUP8 ADD CALLDATALOAD PUSH2 0x41D6 DUP2 PUSH2 0x40A2 JUMP JUMPDEST SWAP4 POP PUSH1 0x60 DUP8 ADD CALLDATALOAD PUSH2 0x41E6 DUP2 PUSH2 0x40A2 JUMP JUMPDEST SWAP3 POP PUSH1 0x80 DUP8 ADD CALLDATALOAD PUSH2 0x41F6 DUP2 PUSH2 0x40A2 JUMP JUMPDEST DUP1 SWAP3 POP POP PUSH1 0xA0 DUP8 ADD CALLDATALOAD SWAP1 POP SWAP3 SWAP6 POP SWAP3 SWAP6 POP SWAP3 SWAP6 JUMP JUMPDEST PUSH1 0x0 DUP1 PUSH1 0x0 DUP1 PUSH1 0x80 DUP6 DUP8 SUB SLT ISZERO PUSH2 0x4221 JUMPI PUSH1 0x0 DUP1 REVERT JUMPDEST DUP5 CALLDATALOAD PUSH2 0x422C DUP2 PUSH2 0x40A2 JUMP JUMPDEST SWAP4 POP PUSH1 0x20 DUP6 ADD CALLDATALOAD PUSH2 0x423C DUP2 PUSH2 0x40A2 JUMP JUMPDEST SWAP3 POP PUSH1 0x40 DUP6 ADD CALLDATALOAD PUSH2 0x424C DUP2 PUSH2 0x40A2 JUMP JUMPDEST SWAP2 POP PUSH1 0x60 DUP6 ADD CALLDATALOAD PUSH2 0x425C DUP2 PUSH2 0x40A2 JUMP JUMPDEST SWAP4 SWAP7 SWAP3 SWAP6 POP SWAP1 SWAP4 POP POP JUMP JUMPDEST PUSH1 0x0 DUP1 PUSH1 0x40 DUP4 DUP6 SUB SLT ISZERO PUSH2 0x427A JUMPI PUSH1 0x0 DUP1 REVERT JUMPDEST DUP3 CALLDATALOAD PUSH2 0x4285 DUP2 PUSH2 0x40A2 JUMP JUMPDEST SWAP2 POP PUSH1 0x20 DUP4 ADD CALLDATALOAD PUSH2 0x4295 DUP2 PUSH2 0x40A2 JUMP JUMPDEST DUP1 SWAP2 POP POP SWAP3 POP SWAP3 SWAP1 POP JUMP JUMPDEST PUSH1 0x0 DUP1 PUSH1 0x40 DUP4 DUP6 SUB SLT ISZERO PUSH2 0x42B3 JUMPI PUSH1 0x0 DUP1 REVERT JUMPDEST DUP3 CALLDATALOAD PUSH2 0x40D2 DUP2 PUSH2 0x40E0 JUMP JUMPDEST PUSH1 0x0 DUP1 PUSH1 0x0 DUP1 PUSH1 0x80 DUP6 DUP8 SUB SLT ISZERO PUSH2 0x42D4 JUMPI PUSH1 0x0 DUP1 REVERT JUMPDEST DUP5 CALLDATALOAD PUSH2 0x42DF DUP2 PUSH2 0x40A2 JUMP JUMPDEST SWAP4 POP PUSH1 0x20 DUP6 ADD CALLDATALOAD PUSH2 0x42EF DUP2 PUSH2 0x40A2 JUMP JUMPDEST SWAP3 POP PUSH1 0x40 DUP6 ADD CALLDATALOAD PUSH2 0x42FF DUP2 PUSH2 0x40A2 JUMP JUMPDEST SWAP4 SWAP7 SWAP3 SWAP6 POP SWAP3 SWAP4 PUSH1 0x60 ADD CALLDATALOAD SWAP3 POP POP JUMP JUMPDEST PUSH1 0x0 DUP1 PUSH1 0x0 DUP1 PUSH1 0x0 PUSH1 0xA0 DUP7 DUP9 SUB SLT ISZERO PUSH2 0x4327 JUMPI PUSH1 0x0 DUP1 REVERT JUMPDEST DUP6 CALLDATALOAD PUSH2 0x4332 DUP2 PUSH2 0x40A2 JUMP JUMPDEST SWAP5 POP PUSH1 0x20 DUP7 ADD CALLDATALOAD PUSH2 0x4342 DUP2 PUSH2 0x40A2 JUMP JUMPDEST SWAP4 POP PUSH1 0x40 DUP7 ADD CALLDATALOAD PUSH2 0x4352 DUP2 PUSH2 0x40A2 JUMP JUMPDEST SWAP5 SWAP8 SWAP4 SWAP7 POP SWAP4 SWAP5 PUSH1 0x60 DUP2 ADD CALLDATALOAD SWAP5 POP PUSH1 0x80 ADD CALLDATALOAD SWAP3 SWAP2 POP POP JUMP JUMPDEST PUSH32 0x4E487B7100000000000000000000000000000000000000000000000000000000 PUSH1 0x0 MSTORE PUSH1 0x11 PUSH1 0x4 MSTORE PUSH1 0x24 PUSH1 0x0 REVERT JUMPDEST DUP2 DUP2 SUB DUP2 DUP2 GT ISZERO PUSH2 0x26F2 JUMPI PUSH2 0x26F2 PUSH2 0x436A JUMP JUMPDEST PUSH32 0x4E487B7100000000000000000000000000000000000000000000000000000000 PUSH1 0x0 MSTORE PUSH1 0x32 PUSH1 0x4 MSTORE PUSH1 0x24 PUSH1 0x0 REVERT JUMPDEST PUSH1 0x0 PUSH1 0x0 NOT DUP3 SUB PUSH2 0x43EE JUMPI PUSH2 0x43EE PUSH2 0x436A JUMP JUMPDEST POP PUSH1 0x1 ADD SWAP1 JUMP JUMPDEST PUSH1 0x0 DUP2 PUSH2 0x4404 JUMPI PUSH2 0x4404 PUSH2 0x436A JUMP JUMPDEST POP PUSH1 0x0 NOT ADD SWAP1 JUMP JUMPDEST PUSH32 0x4E487B7100000000000000000000000000000000000000000000000000000000 PUSH1 0x0 MSTORE PUSH1 0x41 PUSH1 0x4 MSTORE PUSH1 0x24 PUSH1 0x0 REVERT JUMPDEST PUSH1 0x0 PUSH1 0x20 DUP3 DUP5 SUB SLT ISZERO PUSH2 0x444D JUMPI PUSH1 0x0 DUP1 REVERT JUMPDEST DUP2 MLOAD PUSH2 0x3CA9 DUP2 PUSH2 0x40E0 JUMP JUMPDEST PUSH1 0xFF DUP2 DUP2 AND DUP4 DUP3 AND ADD SWAP1 DUP2 GT ISZERO PUSH2 0x26F2 JUMPI PUSH2 0x26F2 PUSH2 0x436A JUMP JUMPDEST DUP1 DUP3 MUL DUP2 ISZERO DUP3 DUP3 DIV DUP5 EQ OR PUSH2 0x26F2 JUMPI PUSH2 0x26F2 PUSH2 0x436A JUMP JUMPDEST PUSH1 0x0 PUSH1 0x20 DUP3 DUP5 SUB SLT ISZERO PUSH2 0x449A JUMPI PUSH1 0x0 DUP1 REVERT JUMPDEST DUP2 MLOAD DUP1 ISZERO ISZERO DUP2 EQ PUSH2 0x3CA9 JUMPI PUSH1 0x0 DUP1 REVERT JUMPDEST PUSH1 0x0 DUP3 PUSH2 0x44E0 JUMPI PUSH32 0x4E487B7100000000000000000000000000000000000000000000000000000000 PUSH1 0x0 MSTORE PUSH1 0x12 PUSH1 0x4 MSTORE PUSH1 0x24 PUSH1 0x0 REVERT JUMPDEST POP DIV SWAP1 JUMP JUMPDEST DUP1 DUP3 ADD DUP1 DUP3 GT ISZERO PUSH2 0x26F2 JUMPI PUSH2 0x26F2 PUSH2 0x436A JUMP JUMPDEST PUSH1 0x40 MLOAD PUSH2 0x1E0 DUP2 ADD PUSH8 0xFFFFFFFFFFFFFFFF DUP2 GT DUP3 DUP3 LT OR ISZERO PUSH2 0x4543 JUMPI PUSH32 0x4E487B7100000000000000000000000000000000000000000000000000000000 PUSH1 0x0 MSTORE PUSH1 0x41 PUSH1 0x4 MSTORE PUSH1 0x24 PUSH1 0x0 REVERT JUMPDEST PUSH1 0x40 MSTORE SWAP1 JUMP JUMPDEST DUP1 MLOAD PUSH2 0xFFFF DUP2 AND DUP2 EQ PUSH2 0x455B JUMPI PUSH1 0x0 DUP1 REVERT JUMPDEST SWAP2 SWAP1 POP JUMP JUMPDEST DUP1 MLOAD PUSH2 0x455B DUP2 PUSH2 0x40A2 JUMP JUMPDEST PUSH1 0x0 PUSH2 0x1E0 DUP3 DUP5 SUB SLT ISZERO PUSH2 0x457E JUMPI PUSH1 0x0 DUP1 REVERT JUMPDEST PUSH2 0x4586 PUSH2 0x44F8 JUMP JUMPDEST DUP3 MLOAD DUP2 MSTORE PUSH1 0x20 DUP4 ADD MLOAD PUSH1 0x20 DUP3 ADD MSTORE PUSH1 0x40 DUP4 ADD MLOAD PUSH1 0x40 DUP3 ADD MSTORE PUSH1 0x60 DUP4 ADD MLOAD PUSH1 0x60 DUP3 ADD MSTORE PUSH2 0x45B4 PUSH1 0x80 DUP5 ADD PUSH2 0x4549 JUMP JUMPDEST PUSH1 0x80 DUP3 ADD MSTORE PUSH1 0xA0 DUP4 DUP2 ADD MLOAD SWAP1 DUP3 ADD MSTORE PUSH1 0xC0 DUP1 DUP5 ADD MLOAD SWAP1 DUP3 ADD MSTORE PUSH1 0xE0 DUP1 DUP5 ADD MLOAD SWAP1 DUP3 ADD MSTORE PUSH2 0x100 DUP1 DUP5 ADD MLOAD SWAP1 DUP3 ADD MSTORE PUSH2 0x120 DUP1 DUP5 ADD MLOAD SWAP1 DUP3 ADD MSTORE PUSH2 0x140 DUP1 DUP5 ADD MLOAD SWAP1 DUP3 ADD MSTORE PUSH2 0x160 DUP1 DUP5 ADD MLOAD SWAP1 DUP3 ADD MSTORE PUSH2 0x180 PUSH2 0x4611 DUP2 DUP6 ADD PUSH2 0x4560 JUMP JUMPDEST SWAP1 DUP3 ADD MSTORE PUSH2 0x1A0 PUSH2 0x4623 DUP5 DUP3 ADD PUSH2 0x4560 JUMP JUMPDEST SWAP1 DUP3 ADD MSTORE PUSH2 0x1C0 SWAP3 DUP4 ADD MLOAD SWAP3 DUP2 ADD SWAP3 SWAP1 SWAP3 MSTORE POP SWAP2 SWAP1 POP JUMP JUMPDEST PUSH32 0x4E487B7100000000000000000000000000000000000000000000000000000000 PUSH1 0x0 MSTORE PUSH1 0x31 PUSH1 0x4 MSTORE PUSH1 0x24 PUSH1 0x0 REVERT JUMPDEST PUSH1 0xFF DUP3 DUP2 AND DUP3 DUP3 AND SUB SWAP1 DUP2 GT ISZERO PUSH2 0x26F2 JUMPI PUSH2 0x26F2 PUSH2 0x436A JUMP JUMPDEST PUSH1 0x0 PUSH1 0x20 DUP3 DUP5 SUB SLT ISZERO PUSH2 0x4695 JUMPI PUSH1 0x0 DUP1 REVERT JUMPDEST DUP2 MLOAD PUSH2 0x3CA9 DUP2 PUSH2 0x40A2 JUMP JUMPDEST PUSH1 0x0 PUSH1 0x20 DUP3 DUP5 SUB SLT ISZERO PUSH2 0x46B2 JUMPI PUSH1 0x0 DUP1 REVERT JUMPDEST POP MLOAD SWAP2 SWAP1 POP JUMP INVALID LOG2 PUSH5 0x6970667358 0x22 SLT KECCAK256 0xCD PUSH22 0x72B8137D15A4DD231FE654144E674A756332DC6D749F 0xBD 0xF8 0xBA PUSH17 0x55F975C364736F6C634300081200330000 "
		},
		"gasEstimates": {
			"creation": {
				"codeDepositCost": "3631800",
				"executionCost": "infinite",
				"totalCost": "infinite"
			},
			"external": {
				"ATTACK_COST_FACTOR()": "285",
				"attackTile(uint8,uint8,uint8,uint8)": "infinite",
				"buyItem(uint8,uint8,uint8,uint256)": "infinite",
				"clanContract()": "2403",
				"getAllPlayerWars(address)": "infinite",
				"getAllWarHistory()": "infinite",
				"getListingsByResourceType(uint8)": "infinite",
				"getRecentPlayerWars(address)": "infinite",
				"getRecentWarHistory()": "infinite",
				"lastAttackTurn(uint8,uint8)": "infinite",
				"lastDefenseTurn(uint8,uint8)": "infinite",
				"listItemForSale(uint8,uint8,uint8,uint256,uint256)": "infinite",
				"lopToken()": "2405",
				"marketListings(uint8,uint256)": "9155",
				"playerWars(address,uint256)": "4783",
				"sendResources(uint8,uint8,uint8,uint8,uint8,uint256)": "infinite",
				"theLand()": "2381",
				"tileMapPhaser()": "2426",
				"warHistory(uint256)": "23967"
			},
			"internal": {
				"_absDiff(uint8,uint8)": "infinite",
				"_applySoldierLoss(struct MarketPlace.AttackContext memory)": "infinite",
				"_calculatePowers(struct ITheLand.TileDataResponse memory,struct ITheLand.TileDataResponse memory,uint8,uint8)": "infinite",
				"_calculateSoldierLosses(struct ITheLand.TileDataResponse memory,struct ITheLand.TileDataResponse memory,uint256,uint256)": "infinite",
				"_capBetween(uint256,uint256,uint256)": "92",
				"_capLossPercent(uint256)": "infinite",
				"_finalizeAttack(struct MarketPlace.AttackContext memory,struct MarketPlace.BattleResult memory,address,address)": "infinite",
				"_max(uint256,uint256)": "65",
				"_min(uint256,uint256)": "65",
				"_payAttackResourceCost(uint8,uint8,uint8,struct ITheLand.TileDataResponse memory)": "infinite",
				"_stealOneResource(uint8,uint256,uint8,uint8,uint8,uint8,uint256)": "infinite",
				"_stealResources(struct MarketPlace.AttackContext memory)": "infinite",
				"_validateAttack(uint8,uint8,uint8,uint8,address,address)": "infinite"
			}
		},
		"methodIdentifiers": {
			"ATTACK_COST_FACTOR()": "10ac4633",
			"attackTile(uint8,uint8,uint8,uint8)": "697e71d2",
			"buyItem(uint8,uint8,uint8,uint256)": "999a2f7a",
			"clanContract()": "c49443ac",
			"getAllPlayerWars(address)": "8972ae26",
			"getAllWarHistory()": "2456028b",
			"getListingsByResourceType(uint8)": "4b4d9f89",
			"getRecentPlayerWars(address)": "40ca262a",
			"getRecentWarHistory()": "03c59f79",
			"lastAttackTurn(uint8,uint8)": "763540cd",
			"lastDefenseTurn(uint8,uint8)": "70d27e41",
			"listItemForSale(uint8,uint8,uint8,uint256,uint256)": "ca030079",
			"lopToken()": "0d67f59e",
			"marketListings(uint8,uint256)": "3e6abf42",
			"playerWars(address,uint256)": "8e9197b4",
			"sendResources(uint8,uint8,uint8,uint8,uint8,uint256)": "54adac10",
			"theLand()": "b0d77774",
			"tileMapPhaser()": "4f264b03",
			"warHistory(uint256)": "0075c079"
		}
	},
	"abi": [
		{
			"inputs": [
				{
					"internalType": "address",
					"name": "_theLand",
					"type": "address"
				},
				{
					"internalType": "address",
					"name": "_lopToken",
					"type": "address"
				},
				{
					"internalType": "address",
					"name": "_tileMapPhaser",
					"type": "address"
				},
				{
					"internalType": "address",
					"name": "_clanContract",
					"type": "address"
				}
			],
			"stateMutability": "nonpayable",
			"type": "constructor"
		},
		{
			"anonymous": false,
			"inputs": [
				{
					"indexed": true,
					"internalType": "address",
					"name": "seller",
					"type": "address"
				},
				{
					"indexed": true,
					"internalType": "uint8",
					"name": "resourceType",
					"type": "uint8"
				},
				{
					"indexed": false,
					"internalType": "uint256",
					"name": "amount",
					"type": "uint256"
				},
				{
					"indexed": false,
					"internalType": "uint256",
					"name": "price",
					"type": "uint256"
				}
			],
			"name": "ItemListed",
			"type": "event"
		},
		{
			"anonymous": false,
			"inputs": [
				{
					"indexed": true,
					"internalType": "address",
					"name": "buyer",
					"type": "address"
				},
				{
					"indexed": true,
					"internalType": "address",
					"name": "seller",
					"type": "address"
				},
				{
					"indexed": true,
					"internalType": "uint8",
					"name": "resourceType",
					"type": "uint8"
				},
				{
					"indexed": false,
					"internalType": "uint256",
					"name": "amount",
					"type": "uint256"
				},
				{
					"indexed": false,
					"internalType": "uint256",
					"name": "price",
					"type": "uint256"
				}
			],
			"name": "ItemPurchased",
			"type": "event"
		},
		{
			"anonymous": false,
			"inputs": [
				{
					"indexed": true,
					"internalType": "address",
					"name": "seller",
					"type": "address"
				},
				{
					"indexed": true,
					"internalType": "uint8",
					"name": "resourceType",
					"type": "uint8"
				},
				{
					"indexed": false,
					"internalType": "uint256",
					"name": "amount",
					"type": "uint256"
				}
			],
			"name": "ItemRemoved",
			"type": "event"
		},
		{
			"anonymous": false,
			"inputs": [
				{
					"indexed": true,
					"internalType": "address",
					"name": "attacker",
					"type": "address"
				},
				{
					"indexed": false,
					"internalType": "uint8",
					"name": "attackerX",
					"type": "uint8"
				},
				{
					"indexed": false,
					"internalType": "uint8",
					"name": "attackerY",
					"type": "uint8"
				},
				{
					"indexed": true,
					"internalType": "address",
					"name": "defender",
					"type": "address"
				},
				{
					"indexed": false,
					"internalType": "uint8",
					"name": "defenderX",
					"type": "uint8"
				},
				{
					"indexed": false,
					"internalType": "uint8",
					"name": "defenderY",
					"type": "uint8"
				},
				{
					"indexed": false,
					"internalType": "bool",
					"name": "attackerWon",
					"type": "bool"
				}
			],
			"name": "TileAttacked",
			"type": "event"
		},
		{
			"inputs": [],
			"name": "ATTACK_COST_FACTOR",
			"outputs": [
				{
					"internalType": "uint256",
					"name": "",
					"type": "uint256"
				}
			],
			"stateMutability": "view",
			"type": "function"
		},
		{
			"inputs": [
				{
					"internalType": "uint8",
					"name": "ax",
					"type": "uint8"
				},
				{
					"internalType": "uint8",
					"name": "ay",
					"type": "uint8"
				},
				{
					"internalType": "uint8",
					"name": "dx",
					"type": "uint8"
				},
				{
					"internalType": "uint8",
					"name": "dy",
					"type": "uint8"
				}
			],
			"name": "attackTile",
			"outputs": [],
			"stateMutability": "nonpayable",
			"type": "function"
		},
		{
			"inputs": [
				{
					"internalType": "uint8",
					"name": "x",
					"type": "uint8"
				},
				{
					"internalType": "uint8",
					"name": "y",
					"type": "uint8"
				},
				{
					"internalType": "uint8",
					"name": "resourceType",
					"type": "uint8"
				},
				{
					"internalType": "uint256",
					"name": "index",
					"type": "uint256"
				}
			],
			"name": "buyItem",
			"outputs": [],
			"stateMutability": "nonpayable",
			"type": "function"
		},
		{
			"inputs": [],
			"name": "clanContract",
			"outputs": [
				{
					"internalType": "contract IClan",
					"name": "",
					"type": "address"
				}
			],
			"stateMutability": "view",
			"type": "function"
		},
		{
			"inputs": [
				{
					"internalType": "address",
					"name": "player",
					"type": "address"
				}
			],
			"name": "getAllPlayerWars",
			"outputs": [
				{
					"components": [
						{
							"internalType": "uint8",
							"name": "attackerX",
							"type": "uint8"
						},
						{
							"internalType": "uint8",
							"name": "attackerY",
							"type": "uint8"
						},
						{
							"internalType": "uint8",
							"name": "defenderX",
							"type": "uint8"
						},
						{
							"internalType": "uint8",
							"name": "defenderY",
							"type": "uint8"
						},
						{
							"internalType": "uint256",
							"name": "timestamp",
							"type": "uint256"
						},
						{
							"internalType": "bool",
							"name": "attackerWon",
							"type": "bool"
						},
						{
							"internalType": "uint256",
							"name": "attackerSoldiers",
							"type": "uint256"
						},
						{
							"internalType": "uint256",
							"name": "attackerCasualties",
							"type": "uint256"
						},
						{
							"internalType": "uint256",
							"name": "attackerPower",
							"type": "uint256"
						},
						{
							"internalType": "uint256",
							"name": "defenderSoldiers",
							"type": "uint256"
						},
						{
							"internalType": "uint256",
							"name": "defenderCasualties",
							"type": "uint256"
						},
						{
							"internalType": "uint256",
							"name": "defenderPower",
							"type": "uint256"
						},
						{
							"internalType": "uint256",
							"name": "resourcesStolen",
							"type": "uint256"
						}
					],
					"internalType": "struct MarketPlace.WarRecord[]",
					"name": "",
					"type": "tuple[]"
				}
			],
			"stateMutability": "view",
			"type": "function"
		},
		{
			"inputs": [],
			"name": "getAllWarHistory",
			"outputs": [
				{
					"components": [
						{
							"internalType": "uint8",
							"name": "attackerX",
							"type": "uint8"
						},
						{
							"internalType": "uint8",
							"name": "attackerY",
							"type": "uint8"
						},
						{
							"internalType": "uint8",
							"name": "defenderX",
							"type": "uint8"
						},
						{
							"internalType": "uint8",
							"name": "defenderY",
							"type": "uint8"
						},
						{
							"internalType": "uint256",
							"name": "timestamp",
							"type": "uint256"
						},
						{
							"internalType": "bool",
							"name": "attackerWon",
							"type": "bool"
						},
						{
							"internalType": "uint256",
							"name": "attackerSoldiers",
							"type": "uint256"
						},
						{
							"internalType": "uint256",
							"name": "attackerCasualties",
							"type": "uint256"
						},
						{
							"internalType": "uint256",
							"name": "attackerPower",
							"type": "uint256"
						},
						{
							"internalType": "uint256",
							"name": "defenderSoldiers",
							"type": "uint256"
						},
						{
							"internalType": "uint256",
							"name": "defenderCasualties",
							"type": "uint256"
						},
						{
							"internalType": "uint256",
							"name": "defenderPower",
							"type": "uint256"
						},
						{
							"internalType": "uint256",
							"name": "resourcesStolen",
							"type": "uint256"
						}
					],
					"internalType": "struct MarketPlace.WarRecord[]",
					"name": "",
					"type": "tuple[]"
				}
			],
			"stateMutability": "view",
			"type": "function"
		},
		{
			"inputs": [
				{
					"internalType": "uint8",
					"name": "resourceType",
					"type": "uint8"
				}
			],
			"name": "getListingsByResourceType",
			"outputs": [
				{
					"components": [
						{
							"internalType": "address",
							"name": "seller",
							"type": "address"
						},
						{
							"internalType": "uint8",
							"name": "resourceType",
							"type": "uint8"
						},
						{
							"internalType": "uint256",
							"name": "amount",
							"type": "uint256"
						},
						{
							"internalType": "uint256",
							"name": "price",
							"type": "uint256"
						}
					],
					"internalType": "struct MarketPlace.MarketItem[]",
					"name": "",
					"type": "tuple[]"
				}
			],
			"stateMutability": "view",
			"type": "function"
		},
		{
			"inputs": [
				{
					"internalType": "address",
					"name": "player",
					"type": "address"
				}
			],
			"name": "getRecentPlayerWars",
			"outputs": [
				{
					"components": [
						{
							"internalType": "uint8",
							"name": "attackerX",
							"type": "uint8"
						},
						{
							"internalType": "uint8",
							"name": "attackerY",
							"type": "uint8"
						},
						{
							"internalType": "uint8",
							"name": "defenderX",
							"type": "uint8"
						},
						{
							"internalType": "uint8",
							"name": "defenderY",
							"type": "uint8"
						},
						{
							"internalType": "uint256",
							"name": "timestamp",
							"type": "uint256"
						},
						{
							"internalType": "bool",
							"name": "attackerWon",
							"type": "bool"
						},
						{
							"internalType": "uint256",
							"name": "attackerSoldiers",
							"type": "uint256"
						},
						{
							"internalType": "uint256",
							"name": "attackerCasualties",
							"type": "uint256"
						},
						{
							"internalType": "uint256",
							"name": "attackerPower",
							"type": "uint256"
						},
						{
							"internalType": "uint256",
							"name": "defenderSoldiers",
							"type": "uint256"
						},
						{
							"internalType": "uint256",
							"name": "defenderCasualties",
							"type": "uint256"
						},
						{
							"internalType": "uint256",
							"name": "defenderPower",
							"type": "uint256"
						},
						{
							"internalType": "uint256",
							"name": "resourcesStolen",
							"type": "uint256"
						}
					],
					"internalType": "struct MarketPlace.WarRecord[]",
					"name": "",
					"type": "tuple[]"
				}
			],
			"stateMutability": "view",
			"type": "function"
		},
		{
			"inputs": [],
			"name": "getRecentWarHistory",
			"outputs": [
				{
					"components": [
						{
							"internalType": "uint8",
							"name": "attackerX",
							"type": "uint8"
						},
						{
							"internalType": "uint8",
							"name": "attackerY",
							"type": "uint8"
						},
						{
							"internalType": "uint8",
							"name": "defenderX",
							"type": "uint8"
						},
						{
							"internalType": "uint8",
							"name": "defenderY",
							"type": "uint8"
						},
						{
							"internalType": "uint256",
							"name": "timestamp",
							"type": "uint256"
						},
						{
							"internalType": "bool",
							"name": "attackerWon",
							"type": "bool"
						},
						{
							"internalType": "uint256",
							"name": "attackerSoldiers",
							"type": "uint256"
						},
						{
							"internalType": "uint256",
							"name": "attackerCasualties",
							"type": "uint256"
						},
						{
							"internalType": "uint256",
							"name": "attackerPower",
							"type": "uint256"
						},
						{
							"internalType": "uint256",
							"name": "defenderSoldiers",
							"type": "uint256"
						},
						{
							"internalType": "uint256",
							"name": "defenderCasualties",
							"type": "uint256"
						},
						{
							"internalType": "uint256",
							"name": "defenderPower",
							"type": "uint256"
						},
						{
							"internalType": "uint256",
							"name": "resourcesStolen",
							"type": "uint256"
						}
					],
					"internalType": "struct MarketPlace.WarRecord[]",
					"name": "",
					"type": "tuple[]"
				}
			],
			"stateMutability": "view",
			"type": "function"
		},
		{
			"inputs": [
				{
					"internalType": "uint8",
					"name": "",
					"type": "uint8"
				},
				{
					"internalType": "uint8",
					"name": "",
					"type": "uint8"
				}
			],
			"name": "lastAttackTurn",
			"outputs": [
				{
					"internalType": "uint256",
					"name": "",
					"type": "uint256"
				}
			],
			"stateMutability": "view",
			"type": "function"
		},
		{
			"inputs": [
				{
					"internalType": "uint8",
					"name": "",
					"type": "uint8"
				},
				{
					"internalType": "uint8",
					"name": "",
					"type": "uint8"
				}
			],
			"name": "lastDefenseTurn",
			"outputs": [
				{
					"internalType": "uint256",
					"name": "",
					"type": "uint256"
				}
			],
			"stateMutability": "view",
			"type": "function"
		},
		{
			"inputs": [
				{
					"internalType": "uint8",
					"name": "x",
					"type": "uint8"
				},
				{
					"internalType": "uint8",
					"name": "y",
					"type": "uint8"
				},
				{
					"internalType": "uint8",
					"name": "resourceType",
					"type": "uint8"
				},
				{
					"internalType": "uint256",
					"name": "amount",
					"type": "uint256"
				},
				{
					"internalType": "uint256",
					"name": "price",
					"type": "uint256"
				}
			],
			"name": "listItemForSale",
			"outputs": [],
			"stateMutability": "nonpayable",
			"type": "function"
		},
		{
			"inputs": [],
			"name": "lopToken",
			"outputs": [
				{
					"internalType": "contract IHarmLop",
					"name": "",
					"type": "address"
				}
			],
			"stateMutability": "view",
			"type": "function"
		},
		{
			"inputs": [
				{
					"internalType": "uint8",
					"name": "",
					"type": "uint8"
				},
				{
					"internalType": "uint256",
					"name": "",
					"type": "uint256"
				}
			],
			"name": "marketListings",
			"outputs": [
				{
					"internalType": "address",
					"name": "seller",
					"type": "address"
				},
				{
					"internalType": "uint8",
					"name": "resourceType",
					"type": "uint8"
				},
				{
					"internalType": "uint256",
					"name": "amount",
					"type": "uint256"
				},
				{
					"internalType": "uint256",
					"name": "price",
					"type": "uint256"
				}
			],
			"stateMutability": "view",
			"type": "function"
		},
		{
			"inputs": [
				{
					"internalType": "address",
					"name": "",
					"type": "address"
				},
				{
					"internalType": "uint256",
					"name": "",
					"type": "uint256"
				}
			],
			"name": "playerWars",
			"outputs": [
				{
					"internalType": "uint256",
					"name": "",
					"type": "uint256"
				}
			],
			"stateMutability": "view",
			"type": "function"
		},
		{
			"inputs": [
				{
					"internalType": "uint8",
					"name": "fromX",
					"type": "uint8"
				},
				{
					"internalType": "uint8",
					"name": "fromY",
					"type": "uint8"
				},
				{
					"internalType": "uint8",
					"name": "toX",
					"type": "uint8"
				},
				{
					"internalType": "uint8",
					"name": "toY",
					"type": "uint8"
				},
				{
					"internalType": "uint8",
					"name": "resourceType",
					"type": "uint8"
				},
				{
					"internalType": "uint256",
					"name": "amount",
					"type": "uint256"
				}
			],
			"name": "sendResources",
			"outputs": [],
			"stateMutability": "nonpayable",
			"type": "function"
		},
		{
			"inputs": [],
			"name": "theLand",
			"outputs": [
				{
					"internalType": "contract ITheLand",
					"name": "",
					"type": "address"
				}
			],
			"stateMutability": "view",
			"type": "function"
		},
		{
			"inputs": [],
			"name": "tileMapPhaser",
			"outputs": [
				{
					"internalType": "contract ITileMapPhaser",
					"name": "",
					"type": "address"
				}
			],
			"stateMutability": "view",
			"type": "function"
		},
		{
			"inputs": [
				{
					"internalType": "uint256",
					"name": "",
					"type": "uint256"
				}
			],
			"name": "warHistory",
			"outputs": [
				{
					"internalType": "uint8",
					"name": "attackerX",
					"type": "uint8"
				},
				{
					"internalType": "uint8",
					"name": "attackerY",
					"type": "uint8"
				},
				{
					"internalType": "uint8",
					"name": "defenderX",
					"type": "uint8"
				},
				{
					"internalType": "uint8",
					"name": "defenderY",
					"type": "uint8"
				},
				{
					"internalType": "uint256",
					"name": "timestamp",
					"type": "uint256"
				},
				{
					"internalType": "bool",
					"name": "attackerWon",
					"type": "bool"
				},
				{
					"internalType": "uint256",
					"name": "attackerSoldiers",
					"type": "uint256"
				},
				{
					"internalType": "uint256",
					"name": "attackerCasualties",
					"type": "uint256"
				},
				{
					"internalType": "uint256",
					"name": "attackerPower",
					"type": "uint256"
				},
				{
					"internalType": "uint256",
					"name": "defenderSoldiers",
					"type": "uint256"
				},
				{
					"internalType": "uint256",
					"name": "defenderCasualties",
					"type": "uint256"
				},
				{
					"internalType": "uint256",
					"name": "defenderPower",
					"type": "uint256"
				},
				{
					"internalType": "uint256",
					"name": "resourcesStolen",
					"type": "uint256"
				}
			],
			"stateMutability": "view",
			"type": "function"
		}
	]
}