{
	"data": {
		"bytecode": {
			"linkReferences": {},
			"object": "60806040523480156200001157600080fd5b5060405162005845380380620058458339818101604052810190620000379190620001ae565b836000806101000a81548173ffffffffffffffffffffffffffffffffffffffff021916908373ffffffffffffffffffffffffffffffffffffffff16021790555082600160006101000a81548173ffffffffffffffffffffffffffffffffffffffff021916908373ffffffffffffffffffffffffffffffffffffffff16021790555081600260006101000a81548173ffffffffffffffffffffffffffffffffffffffff021916908373ffffffffffffffffffffffffffffffffffffffff16021790555080600360006101000a81548173ffffffffffffffffffffffffffffffffffffffff021916908373ffffffffffffffffffffffffffffffffffffffff1602179055505050505062000220565b600080fd5b600073ffffffffffffffffffffffffffffffffffffffff82169050919050565b6000620001768262000149565b9050919050565b620001888162000169565b81146200019457600080fd5b50565b600081519050620001a8816200017d565b92915050565b60008060008060808587031215620001cb57620001ca62000144565b5b6000620001db8782880162000197565b9450506020620001ee8782880162000197565b9350506040620002018782880162000197565b9250506060620002148782880162000197565b91505092959194509250565b61561580620002306000396000f3fe608060405234801561001057600080fd5b50600436106101155760003560e01c8063697e71d2116100a25780638e9197b4116100715780638e9197b41461032a578063999a2f7a1461035a578063b0d7777414610376578063c49443ac14610394578063ca030079146103b257610115565b8063697e71d21461027e57806370d27e411461029a578063763540cd146102ca5780638972ae26146102fa57610115565b80632456028b116100e95780632456028b146101af5780633e6abf42146101cd57806340ca262a146102005780634b4d9f89146102305780634f264b031461026057610115565b806275c0791461011a57806303c59f79146101555780630d67f59e1461017357806310ac463314610191575b600080fd5b610134600480360381019061012f9190613ae3565b6103ce565b60405161014c9c9b9a99989796959493929190613b56565b60405180910390f35b61015d610499565b60405161016a9190613de3565b60405180910390f35b61017b610714565b6040516101889190613e84565b60405180910390f35b61019961073a565b6040516101a69190613e9f565b60405180910390f35b6101b761073f565b6040516101c49190613de3565b60405180910390f35b6101e760048036038101906101e29190613ee6565b61089a565b6040516101f79493929190613f47565b60405180910390f35b61021a60048036038101906102159190613fb8565b610914565b6040516102279190613de3565b60405180910390f35b61024a60048036038101906102459190613fe5565b610c6b565b6040516102579190614125565b60405180910390f35b610268610dc1565b6040516102759190614168565b60405180910390f35b61029860048036038101906102939190614183565b610de7565b005b6102b460048036038101906102af91906141ea565b6117b2565b6040516102c19190613e9f565b60405180910390f35b6102e460048036038101906102df91906141ea565b6117d7565b6040516102f19190613e9f565b60405180910390f35b610314600480360381019061030f9190613fb8565b6117fc565b6040516103219190613de3565b60405180910390f35b610344600480360381019061033f919061422a565b611a74565b6040516103519190613e9f565b60405180910390f35b610374600480360381019061036f919061426a565b611aa5565b005b61037e6123d6565b60405161038b91906142f2565b60405180910390f35b61039c6123fa565b6040516103a9919061432e565b60405180910390f35b6103cc60048036038101906103c79190614349565b612420565b005b600781815481106103de57600080fd5b90600052602060002090600902016000915090508060000160009054906101000a900460ff16908060000160019054906101000a900460ff16908060000160029054906101000a900460ff16908060000160039054906101000a900460ff16908060010154908060020160009054906101000a900460ff16908060030154908060040154908060050160009054906101000a900460ff16908060060154908060070154908060080160009054906101000a900460ff1690508c565b606060008062093a80426104ad91906143f3565b9050600060078054905090505b6000811115610526578160076001836104d391906143f3565b815481106104e4576104e3614427565b5b9060005260206000209060090201600101541061050e57828061050690614456565b935050610513565b610526565b808061051e9061449e565b9150506104ba565b5060008267ffffffffffffffff811115610543576105426144c7565b5b60405190808252806020026020018201604052801561057c57816020015b610569613a29565b8152602001906001900390816105615790505b5090506000808460078054905061059391906143f3565b90505b60078054905081101561070957600781815481106105b7576105b6614427565b5b9060005260206000209060090201604051806101800160405290816000820160009054906101000a900460ff1660ff1660ff1681526020016000820160019054906101000a900460ff1660ff1660ff1681526020016000820160029054906101000a900460ff1660ff1660ff1681526020016000820160039054906101000a900460ff1660ff1660ff168152602001600182015481526020016002820160009054906101000a900460ff1615151515815260200160038201548152602001600482015481526020016005820160009054906101000a900460ff1660ff1660ff16815260200160068201548152602001600782015481526020016008820160009054906101000a900460ff1660ff1660ff16815250508383806106d890614456565b9450815181106106eb576106ea614427565b5b6020026020010181905250808061070190614456565b915050610596565b508194505050505090565b600160009054906101000a900473ffffffffffffffffffffffffffffffffffffffff1681565b600a81565b60606007805480602002602001604051908101604052809291908181526020016000905b828210156108915783829060005260206000209060090201604051806101800160405290816000820160009054906101000a900460ff1660ff1660ff1681526020016000820160019054906101000a900460ff1660ff1660ff1681526020016000820160029054906101000a900460ff1660ff1660ff1681526020016000820160039054906101000a900460ff1660ff1660ff168152602001600182015481526020016002820160009054906101000a900460ff1615151515815260200160038201548152602001600482015481526020016005820160009054906101000a900460ff1660ff1660ff16815260200160068201548152602001600782015481526020016008820160009054906101000a900460ff1660ff1660ff168152505081526020019060010190610763565b50505050905090565b600460205281600052604060002081815481106108b657600080fd5b9060005260206000209060030201600091509150508060000160009054906101000a900473ffffffffffffffffffffffffffffffffffffffff16908060000160149054906101000a900460ff16908060010154908060020154905084565b60606000600860008473ffffffffffffffffffffffffffffffffffffffff1673ffffffffffffffffffffffffffffffffffffffff1681526020019081526020016000208054806020026020016040519081016040528092919081815260200182805480156109a157602002820191906000526020600020905b81548152602001906001019080831161098d575b5050505050905060008062093a80426109ba91906143f3565b905060005b8351811015610a30578160078583815181106109de576109dd614427565b5b6020026020010151815481106109f7576109f6614427565b5b90600052602060002090600902016001015410610a1d578280610a1990614456565b9350505b8080610a2890614456565b9150506109bf565b5060008267ffffffffffffffff811115610a4d57610a4c6144c7565b5b604051908082528060200260200182016040528015610a8657816020015b610a73613a29565b815260200190600190039081610a6b5790505b5090506000805b8551811015610c5d57836007878381518110610aac57610aab614427565b5b602002602001015181548110610ac557610ac4614427565b5b90600052602060002090600902016001015410610c4a576007868281518110610af157610af0614427565b5b602002602001015181548110610b0a57610b09614427565b5b9060005260206000209060090201604051806101800160405290816000820160009054906101000a900460ff1660ff1660ff1681526020016000820160019054906101000a900460ff1660ff1660ff1681526020016000820160029054906101000a900460ff1660ff1660ff1681526020016000820160039054906101000a900460ff1660ff1660ff168152602001600182015481526020016002820160009054906101000a900460ff1615151515815260200160038201548152602001600482015481526020016005820160009054906101000a900460ff1660ff1660ff16815260200160068201548152602001600782015481526020016008820160009054906101000a900460ff1660ff1660ff1681525050838380610c2b90614456565b945081518110610c3e57610c3d614427565b5b60200260200101819052505b8080610c5590614456565b915050610a8d565b508195505050505050919050565b606060018260ff1610158015610c85575060088260ff1611155b610cc4576040517f08c379a0000000000000000000000000000000000000000000000000000000008152600401610cbb90614553565b60405180910390fd5b600460008360ff1660ff168152602001908152602001600020805480602002602001604051908101604052809291908181526020016000905b82821015610db657838290600052602060002090600302016040518060800160405290816000820160009054906101000a900473ffffffffffffffffffffffffffffffffffffffff1673ffffffffffffffffffffffffffffffffffffffff1673ffffffffffffffffffffffffffffffffffffffff1681526020016000820160149054906101000a900460ff1660ff1660ff1681526020016001820154815260200160028201548152505081526020019060010190610cfd565b505050509050919050565b600260009054906101000a900473ffffffffffffffffffffffffffffffffffffffff1681565b83833373ffffffffffffffffffffffffffffffffffffffff16600260009054906101000a900473ffffffffffffffffffffffffffffffffffffffff1673ffffffffffffffffffffffffffffffffffffffff16638a88895384846040518363ffffffff1660e01b8152600401610e5d929190614573565b602060405180830381865afa158015610e7a573d6000803e3d6000fd5b505050506040513d601f19601f82011682018060405250810190610e9e91906145b1565b73ffffffffffffffffffffffffffffffffffffffff1614610ef4576040517f08c379a0000000000000000000000000000000000000000000000000000000008152600401610eeb9061462a565b60405180910390fd5b6000600260009054906101000a900473ffffffffffffffffffffffffffffffffffffffff1673ffffffffffffffffffffffffffffffffffffffff16638a88895386866040518363ffffffff1660e01b8152600401610f53929190614573565b602060405180830381865afa158015610f70573d6000803e3d6000fd5b505050506040513d601f19601f82011682018060405250810190610f9491906145b1565b9050600073ffffffffffffffffffffffffffffffffffffffff168173ffffffffffffffffffffffffffffffffffffffff1603611005576040517f08c379a0000000000000000000000000000000000000000000000000000000008152600401610ffc90614696565b60405180910390fd5b611013878787873386612962565b60008060009054906101000a900473ffffffffffffffffffffffffffffffffffffffff1673ffffffffffffffffffffffffffffffffffffffff1663bd63837889896040518363ffffffff1660e01b8152600401611071929190614573565b6101e060405180830381865afa15801561108f573d6000803e3d6000fd5b505050506040513d601f19601f820116820180604052508101906110b391906148e0565b905060008060009054906101000a900473ffffffffffffffffffffffffffffffffffffffff1673ffffffffffffffffffffffffffffffffffffffff1663bd63837888886040518363ffffffff1660e01b8152600401611113929190614573565b6101e060405180830381865afa158015611131573d6000803e3d6000fd5b505050506040513d601f19601f8201168201806040525081019061115591906148e0565b905060006111638988612e32565b61116d8b8a612e32565b611177919061490e565b90506111858a8a8386612e67565b6000806111928585613156565b915091506111a48c8c8c8c898961320a565b808211156111ba576111b98c8c8c8c886134ea565b5b60008054906101000a900473ffffffffffffffffffffffffffffffffffffffff1673ffffffffffffffffffffffffffffffffffffffff166341ede44f8d8d6040518363ffffffff1660e01b8152600401611215929190614573565b602060405180830381865afa158015611232573d6000803e3d6000fd5b505050506040513d601f19601f820116820180604052508101906112569190614943565b600560008e60ff1660ff16815260200190815260200160002060008d60ff1660ff1681526020019081526020016000208190555060008054906101000a900473ffffffffffffffffffffffffffffffffffffffff1673ffffffffffffffffffffffffffffffffffffffff166341ede44f8b8b6040518363ffffffff1660e01b81526004016112e5929190614573565b602060405180830381865afa158015611302573d6000803e3d6000fd5b505050506040513d601f19601f820116820180604052508101906113269190614943565b600660008c60ff1660ff16815260200190815260200160002060008b60ff1660ff1681526020019081526020016000208190555060008054906101000a900473ffffffffffffffffffffffffffffffffffffffff1673ffffffffffffffffffffffffffffffffffffffff16637659bc608d8d6040518363ffffffff1660e01b81526004016113b5929190614573565b600060405180830381600087803b1580156113cf57600080fd5b505af11580156113e3573d6000803e3d6000fd5b5050505060008054906101000a900473ffffffffffffffffffffffffffffffffffffffff1673ffffffffffffffffffffffffffffffffffffffff16637659bc608b8b6040518363ffffffff1660e01b8152600401611442929190614573565b600060405180830381600087803b15801561145c57600080fd5b505af1158015611470573d6000803e3d6000fd5b505050506000818311905060076040518061018001604052808f60ff1681526020018e60ff1681526020018d60ff1681526020018c60ff16815260200142815260200183151581526020018861014001518152602001886101600151815260200188610180015160ff16815260200187610140015181526020018761016001518152602001876101a0015160ff16815250908060018154018082558091505060019003906000526020600020906009020160009091909190915060008201518160000160006101000a81548160ff021916908360ff16021790555060208201518160000160016101000a81548160ff021916908360ff16021790555060408201518160000160026101000a81548160ff021916908360ff16021790555060608201518160000160036101000a81548160ff021916908360ff1602179055506080820151816001015560a08201518160020160006101000a81548160ff02191690831515021790555060c0820151816003015560e082015181600401556101008201518160050160006101000a81548160ff021916908360ff160217905550610120820151816006015561014082015181600701556101608201518160080160006101000a81548160ff021916908360ff1602179055505050600860003373ffffffffffffffffffffffffffffffffffffffff1673ffffffffffffffffffffffffffffffffffffffff168152602001908152602001600020600160078054905061169991906143f3565b9080600181540180825580915050600190039060005260206000200160009091909190915055600860008873ffffffffffffffffffffffffffffffffffffffff1673ffffffffffffffffffffffffffffffffffffffff168152602001908152602001600020600160078054905061171091906143f3565b90806001815401808255809150506001900390600052602060002001600090919091909150558673ffffffffffffffffffffffffffffffffffffffff163373ffffffffffffffffffffffffffffffffffffffff167f47389018a4bfd5e1ef612f1fe9082cc3e3675be36e77743a6bfaf0ea011d586f8f8f8f8f8760405161179b959493929190614970565b60405180910390a350505050505050505050505050565b6006602052816000526040600020602052806000526040600020600091509150505481565b6005602052816000526040600020602052806000526040600020600091509150505481565b60606000600860008473ffffffffffffffffffffffffffffffffffffffff1673ffffffffffffffffffffffffffffffffffffffff16815260200190815260200160002080548060200260200160405190810160405280929190818152602001828054801561188957602002820191906000526020600020905b815481526020019060010190808311611875575b505050505090506000815167ffffffffffffffff8111156118ad576118ac6144c7565b5b6040519080825280602002602001820160405280156118e657816020015b6118d3613a29565b8152602001906001900390816118cb5790505b50905060005b8251811015611a6957600783828151811061190a57611909614427565b5b60200260200101518154811061192357611922614427565b5b9060005260206000209060090201604051806101800160405290816000820160009054906101000a900460ff1660ff1660ff1681526020016000820160019054906101000a900460ff1660ff1660ff1681526020016000820160029054906101000a900460ff1660ff1660ff1681526020016000820160039054906101000a900460ff1660ff1660ff168152602001600182015481526020016002820160009054906101000a900460ff1615151515815260200160038201548152602001600482015481526020016005820160009054906101000a900460ff1660ff1660ff16815260200160068201548152602001600782015481526020016008820160009054906101000a900460ff1660ff1660ff1681525050828281518110611a4b57611a4a614427565b5b60200260200101819052508080611a6190614456565b9150506118ec565b508092505050919050565b60086020528160005260406000208181548110611a9057600080fd5b90600052602060002001600091509150505481565b83833373ffffffffffffffffffffffffffffffffffffffff16600260009054906101000a900473ffffffffffffffffffffffffffffffffffffffff1673ffffffffffffffffffffffffffffffffffffffff16638a88895384846040518363ffffffff1660e01b8152600401611b1b929190614573565b602060405180830381865afa158015611b38573d6000803e3d6000fd5b505050506040513d601f19601f82011682018060405250810190611b5c91906145b1565b73ffffffffffffffffffffffffffffffffffffffff1614611bb2576040517f08c379a0000000000000000000000000000000000000000000000000000000008152600401611ba99061462a565b60405180910390fd5b60008054906101000a900473ffffffffffffffffffffffffffffffffffffffff1673ffffffffffffffffffffffffffffffffffffffff16635e75968e336040518263ffffffff1660e01b8152600401611c0b91906149c3565b602060405180830381865afa158015611c28573d6000803e3d6000fd5b505050506040513d601f19601f82011682018060405250810190611c4c9190614a0a565b611c8b576040517f08c379a0000000000000000000000000000000000000000000000000000000008152600401611c8290614a83565b60405180910390fd5b600460008560ff1660ff168152602001908152602001600020805490508310611ce9576040517f08c379a0000000000000000000000000000000000000000000000000000000008152600401611ce090614aef565b60405180910390fd5b60018460ff1610158015611d01575060088460ff1611155b611d40576040517f08c379a0000000000000000000000000000000000000000000000000000000008152600401611d3790614553565b60405180910390fd5b6000600460008660ff1660ff1681526020019081526020016000208481548110611d6d57611d6c614427565b5b90600052602060002090600302016040518060800160405290816000820160009054906101000a900473ffffffffffffffffffffffffffffffffffffffff1673ffffffffffffffffffffffffffffffffffffffff1673ffffffffffffffffffffffffffffffffffffffff1681526020016000820160149054906101000a900460ff1660ff1660ff1681526020016001820154815260200160028201548152505090506000816060015190506000826040015190506000836000015190506000606e606485611e3b9190614b0f565b611e459190614b80565b905060008185611e5591906143f3565b9050600160009054906101000a900473ffffffffffffffffffffffffffffffffffffffff1673ffffffffffffffffffffffffffffffffffffffff166323b872dd3330886040518463ffffffff1660e01b8152600401611eb693929190614bb1565b6020604051808303816000875af1158015611ed5573d6000803e3d6000fd5b505050506040513d601f19601f82011682018060405250810190611ef99190614a0a565b611f38576040517f08c379a0000000000000000000000000000000000000000000000000000000008152600401611f2f90614c5a565b60405180910390fd5b600160009054906101000a900473ffffffffffffffffffffffffffffffffffffffff1673ffffffffffffffffffffffffffffffffffffffff166323b872dd3085856040518463ffffffff1660e01b8152600401611f9793929190614bb1565b6020604051808303816000875af1158015611fb6573d6000803e3d6000fd5b505050506040513d601f19601f82011682018060405250810190611fda9190614a0a565b612019576040517f08c379a000000000000000000000000000000000000000000000000000000000815260040161201090614cc6565b60405180910390fd5b600160009054906101000a900473ffffffffffffffffffffffffffffffffffffffff1673ffffffffffffffffffffffffffffffffffffffff166342966c68826040518263ffffffff1660e01b81526004016120749190613e9f565b6020604051808303816000875af1158015612093573d6000803e3d6000fd5b505050506040513d601f19601f820116820180604052508101906120b79190614a0a565b6120f6576040517f08c379a00000000000000000000000000000000000000000000000000000000081526004016120ed90614d32565b60405180910390fd5b60008054906101000a900473ffffffffffffffffffffffffffffffffffffffff1673ffffffffffffffffffffffffffffffffffffffff16633e5f28578d8d8d8860016040518663ffffffff1660e01b8152600401612158959493929190614d52565b600060405180830381600087803b15801561217257600080fd5b505af1158015612186573d6000803e3d6000fd5b50505050600460008b60ff1660ff1681526020019081526020016000206001600460008d60ff1660ff168152602001908152602001600020805490506121cc91906143f3565b815481106121dd576121dc614427565b5b9060005260206000209060030201600460008c60ff1660ff1681526020019081526020016000208a8154811061221657612215614427565b5b90600052602060002090600302016000820160009054906101000a900473ffffffffffffffffffffffffffffffffffffffff168160000160006101000a81548173ffffffffffffffffffffffffffffffffffffffff021916908373ffffffffffffffffffffffffffffffffffffffff1602179055506000820160149054906101000a900460ff168160000160146101000a81548160ff021916908360ff1602179055506001820154816001015560028201548160020155905050600460008b60ff1660ff1681526020019081526020016000208054806122f9576122f8614da5565b5b6001900381819060005260206000209060030201600080820160006101000a81549073ffffffffffffffffffffffffffffffffffffffff02191690556000820160146101000a81549060ff021916905560018201600090556002820160009055505090558960ff168373ffffffffffffffffffffffffffffffffffffffff163373ffffffffffffffffffffffffffffffffffffffff167fcb8e9dce1a8c67703d11d2b78043345960bab3c035aa061005630270b28c89ec87896040516123c0929190614dd4565b60405180910390a4505050505050505050505050565b60008054906101000a900473ffffffffffffffffffffffffffffffffffffffff1681565b600360009054906101000a900473ffffffffffffffffffffffffffffffffffffffff1681565b84843373ffffffffffffffffffffffffffffffffffffffff16600260009054906101000a900473ffffffffffffffffffffffffffffffffffffffff1673ffffffffffffffffffffffffffffffffffffffff16638a88895384846040518363ffffffff1660e01b8152600401612496929190614573565b602060405180830381865afa1580156124b3573d6000803e3d6000fd5b505050506040513d601f19601f820116820180604052508101906124d791906145b1565b73ffffffffffffffffffffffffffffffffffffffff161461252d576040517f08c379a00000000000000000000000000000000000000000000000000000000081526004016125249061462a565b60405180910390fd5b60008054906101000a900473ffffffffffffffffffffffffffffffffffffffff1673ffffffffffffffffffffffffffffffffffffffff16635e75968e336040518263ffffffff1660e01b815260040161258691906149c3565b602060405180830381865afa1580156125a3573d6000803e3d6000fd5b505050506040513d601f19601f820116820180604052508101906125c79190614a0a565b612606576040517f08c379a00000000000000000000000000000000000000000000000000000000081526004016125fd90614a83565b60405180910390fd5b62989680831161264b576040517f08c379a000000000000000000000000000000000000000000000000000000000815260040161264290614e49565b60405180910390fd5b60018560ff1610158015612663575060088560ff1611155b6126a2576040517f08c379a000000000000000000000000000000000000000000000000000000000815260040161269990614553565b60405180910390fd5b60048560ff16116127075761271084101580156126c357506305f5e1008411155b612702576040517f08c379a00000000000000000000000000000000000000000000000000000000081526004016126f990614eb5565b60405180910390fd5b61275a565b6064841015801561271a57506127108411155b612759576040517f08c379a000000000000000000000000000000000000000000000000000000000815260040161275090614f47565b60405180910390fd5b5b60008054906101000a900473ffffffffffffffffffffffffffffffffffffffff1673ffffffffffffffffffffffffffffffffffffffff16633e5f28578888888860006040518663ffffffff1660e01b81526004016127bc959493929190614d52565b600060405180830381600087803b1580156127d657600080fd5b505af11580156127ea573d6000803e3d6000fd5b505050506000600a846127fd9190614b80565b846128089190614f67565b9050600460008760ff1660ff16815260200190815260200160002060405180608001604052803373ffffffffffffffffffffffffffffffffffffffff1681526020018860ff16815260200187815260200183815250908060018154018082558091505060019003906000526020600020906003020160009091909190915060008201518160000160006101000a81548173ffffffffffffffffffffffffffffffffffffffff021916908373ffffffffffffffffffffffffffffffffffffffff16021790555060208201518160000160146101000a81548160ff021916908360ff160217905550604082015181600101556060820151816002015550508560ff163373ffffffffffffffffffffffffffffffffffffffff167f9d2fa11e70f4c72f4275d772a6e09bbd83b3800a6b4f2351a7ac06df8db5169e8787604051612950929190614dd4565b60405180910390a35050505050505050565b8173ffffffffffffffffffffffffffffffffffffffff168173ffffffffffffffffffffffffffffffffffffffff16036129d0576040517f08c379a00000000000000000000000000000000000000000000000000000000081526004016129c790614fe7565b60405180910390fd5b6000600360009054906101000a900473ffffffffffffffffffffffffffffffffffffffff1673ffffffffffffffffffffffffffffffffffffffff16637ab9e7fe88886040518363ffffffff1660e01b8152600401612a2f929190614573565b602060405180830381865afa158015612a4c573d6000803e3d6000fd5b505050506040513d601f19601f82011682018060405250810190612a709190615007565b90506000600360009054906101000a900473ffffffffffffffffffffffffffffffffffffffff1673ffffffffffffffffffffffffffffffffffffffff16637ab9e7fe87876040518363ffffffff1660e01b8152600401612ad1929190614573565b602060405180830381865afa158015612aee573d6000803e3d6000fd5b505050506040513d601f19601f82011682018060405250810190612b129190615007565b905060008260ff161480612b29575060008160ff16145b80612b3a57508060ff168260ff1614155b612b79576040517f08c379a0000000000000000000000000000000000000000000000000000000008152600401612b70906150a6565b60405180910390fd5b6000612b858887612e32565b612b8f8a89612e32565b612b99919061490e565b905060008160ff16118015612bb2575060268160ff1611155b612bf1576040517f08c379a0000000000000000000000000000000000000000000000000000000008152600401612be890615112565b60405180910390fd5b61012c600560008b60ff1660ff16815260200190815260200160002060008a60ff1660ff16815260200190815260200160002054612c2f9190614f67565b60008054906101000a900473ffffffffffffffffffffffffffffffffffffffff1673ffffffffffffffffffffffffffffffffffffffff166341ede44f8b8b6040518363ffffffff1660e01b8152600401612c8a929190614573565b602060405180830381865afa158015612ca7573d6000803e3d6000fd5b505050506040513d601f19601f82011682018060405250810190612ccb9190614943565b1015612d0c576040517f08c379a0000000000000000000000000000000000000000000000000000000008152600401612d03906151a4565b60405180910390fd5b61012c600660008960ff1660ff16815260200190815260200160002060008860ff1660ff16815260200190815260200160002054612d4a9190614f67565b60008054906101000a900473ffffffffffffffffffffffffffffffffffffffff1673ffffffffffffffffffffffffffffffffffffffff166341ede44f89896040518363ffffffff1660e01b8152600401612da5929190614573565b602060405180830381865afa158015612dc2573d6000803e3d6000fd5b505050506040513d601f19601f82011682018060405250810190612de69190614943565b1015612e27576040517f08c379a0000000000000000000000000000000000000000000000000000000008152600401612e1e90615236565b60405180910390fd5b505050505050505050565b60008160ff168360ff1611612e52578282612e4d9190615256565b612e5f565b8183612e5e9190615256565b5b905092915050565b6000816101600151826101400151612e7f9190614f67565b8360ff16600a612e8f9190614b0f565b612e999190614b0f565b905060008054906101000a900473ffffffffffffffffffffffffffffffffffffffff1673ffffffffffffffffffffffffffffffffffffffff16633e5f2857868660016064602887612eea9190614b0f565b612ef49190614b80565b60006040518663ffffffff1660e01b8152600401612f169594939291906152c6565b600060405180830381600087803b158015612f3057600080fd5b505af1158015612f44573d6000803e3d6000fd5b5050505060008054906101000a900473ffffffffffffffffffffffffffffffffffffffff1673ffffffffffffffffffffffffffffffffffffffff16633e5f2857868660026064601e87612f979190614b0f565b612fa19190614b80565b60006040518663ffffffff1660e01b8152600401612fc3959493929190615354565b600060405180830381600087803b158015612fdd57600080fd5b505af1158015612ff1573d6000803e3d6000fd5b5050505060008054906101000a900473ffffffffffffffffffffffffffffffffffffffff1673ffffffffffffffffffffffffffffffffffffffff16633e5f28578686600360646014876130449190614b0f565b61304e9190614b80565b60006040518663ffffffff1660e01b81526004016130709594939291906153e2565b600060405180830381600087803b15801561308a57600080fd5b505af115801561309e573d6000803e3d6000fd5b5050505060008054906101000a900473ffffffffffffffffffffffffffffffffffffffff1673ffffffffffffffffffffffffffffffffffffffff16633e5f2857868660046064600a876130f19190614b0f565b6130fb9190614b80565b60006040518663ffffffff1660e01b815260040161311d959493929190615470565b600060405180830381600087803b15801561313757600080fd5b505af115801561314b573d6000803e3d6000fd5b505050505050505050565b6000806000600185610180015161316d919061490e565b60ff1660018661016001516131829190614b0f565b60028761014001516131949190614b0f565b61319e9190614f67565b6131a89190614f67565b905060006001856101a001516131be919061490e565b60ff1660028661016001516131d39190614b0f565b60018761014001516131e59190614b0f565b6131ef9190614f67565b6131f99190614f67565b905081819350935050509250929050565b6000600283610140015161321e9190614b80565b9050600060028461016001516132349190614b80565b90506000600284610140015161324a9190614b80565b9050600060028561016001516132609190614b80565b905060008411156133015760008054906101000a900473ffffffffffffffffffffffffffffffffffffffff1673ffffffffffffffffffffffffffffffffffffffff16633e5f28578b8b60098860006040518663ffffffff1660e01b81526004016132ce9594939291906154fe565b600060405180830381600087803b1580156132e857600080fd5b505af11580156132fc573d6000803e3d6000fd5b505050505b60008311156133a05760008054906101000a900473ffffffffffffffffffffffffffffffffffffffff1673ffffffffffffffffffffffffffffffffffffffff16633e5f28578b8b600a8760006040518663ffffffff1660e01b815260040161336d95949392919061558c565b600060405180830381600087803b15801561338757600080fd5b505af115801561339b573d6000803e3d6000fd5b505050505b600082111561343f5760008054906101000a900473ffffffffffffffffffffffffffffffffffffffff1673ffffffffffffffffffffffffffffffffffffffff16633e5f2857898960098660006040518663ffffffff1660e01b815260040161340c9594939291906154fe565b600060405180830381600087803b15801561342657600080fd5b505af115801561343a573d6000803e3d6000fd5b505050505b60008111156134de5760008054906101000a900473ffffffffffffffffffffffffffffffffffffffff1673ffffffffffffffffffffffffffffffffffffffff16633e5f28578989600a8560006040518663ffffffff1660e01b81526004016134ab95949392919061558c565b600060405180830381600087803b1580156134c557600080fd5b505af11580156134d9573d6000803e3d6000fd5b505050505b50505050505050505050565b6001816000015111156136385760006002826000015161350a9190614b80565b905060008054906101000a900473ffffffffffffffffffffffffffffffffffffffff1673ffffffffffffffffffffffffffffffffffffffff16633e5f2857858560018560006040518663ffffffff1660e01b815260040161356f9594939291906152c6565b600060405180830381600087803b15801561358957600080fd5b505af115801561359d573d6000803e3d6000fd5b5050505060008054906101000a900473ffffffffffffffffffffffffffffffffffffffff1673ffffffffffffffffffffffffffffffffffffffff16633e5f2857878760018560016040518663ffffffff1660e01b81526004016136049594939291906152c6565b600060405180830381600087803b15801561361e57600080fd5b505af1158015613632573d6000803e3d6000fd5b50505050505b600181602001511115613786576000600282602001516136589190614b80565b905060008054906101000a900473ffffffffffffffffffffffffffffffffffffffff1673ffffffffffffffffffffffffffffffffffffffff16633e5f2857858560028560006040518663ffffffff1660e01b81526004016136bd959493929190615354565b600060405180830381600087803b1580156136d757600080fd5b505af11580156136eb573d6000803e3d6000fd5b5050505060008054906101000a900473ffffffffffffffffffffffffffffffffffffffff1673ffffffffffffffffffffffffffffffffffffffff16633e5f2857878760028560016040518663ffffffff1660e01b8152600401613752959493929190615354565b600060405180830381600087803b15801561376c57600080fd5b505af1158015613780573d6000803e3d6000fd5b50505050505b6001816040015111156138d4576000600282604001516137a69190614b80565b905060008054906101000a900473ffffffffffffffffffffffffffffffffffffffff1673ffffffffffffffffffffffffffffffffffffffff16633e5f2857858560038560006040518663ffffffff1660e01b815260040161380b9594939291906153e2565b600060405180830381600087803b15801561382557600080fd5b505af1158015613839573d6000803e3d6000fd5b5050505060008054906101000a900473ffffffffffffffffffffffffffffffffffffffff1673ffffffffffffffffffffffffffffffffffffffff16633e5f2857878760038560016040518663ffffffff1660e01b81526004016138a09594939291906153e2565b600060405180830381600087803b1580156138ba57600080fd5b505af11580156138ce573d6000803e3d6000fd5b50505050505b600181606001511115613a22576000600282606001516138f49190614b80565b905060008054906101000a900473ffffffffffffffffffffffffffffffffffffffff1673ffffffffffffffffffffffffffffffffffffffff16633e5f2857858560048560006040518663ffffffff1660e01b8152600401613959959493929190615470565b600060405180830381600087803b15801561397357600080fd5b505af1158015613987573d6000803e3d6000fd5b5050505060008054906101000a900473ffffffffffffffffffffffffffffffffffffffff1673ffffffffffffffffffffffffffffffffffffffff16633e5f2857878760048560016040518663ffffffff1660e01b81526004016139ee959493929190615470565b600060405180830381600087803b158015613a0857600080fd5b505af1158015613a1c573d6000803e3d6000fd5b50505050505b5050505050565b604051806101800160405280600060ff168152602001600060ff168152602001600060ff168152602001600060ff168152602001600081526020016000151581526020016000815260200160008152602001600060ff1681526020016000815260200160008152602001600060ff1681525090565b6000604051905090565b600080fd5b6000819050919050565b613ac081613aad565b8114613acb57600080fd5b50565b600081359050613add81613ab7565b92915050565b600060208284031215613af957613af8613aa8565b5b6000613b0784828501613ace565b91505092915050565b600060ff82169050919050565b613b2681613b10565b82525050565b613b3581613aad565b82525050565b60008115159050919050565b613b5081613b3b565b82525050565b600061018082019050613b6c600083018f613b1d565b613b79602083018e613b1d565b613b86604083018d613b1d565b613b93606083018c613b1d565b613ba0608083018b613b2c565b613bad60a083018a613b47565b613bba60c0830189613b2c565b613bc760e0830188613b2c565b613bd5610100830187613b1d565b613be3610120830186613b2c565b613bf1610140830185613b2c565b613bff610160830184613b1d565b9d9c50505050505050505050505050565b600081519050919050565b600082825260208201905092915050565b6000819050602082019050919050565b613c4581613b10565b82525050565b613c5481613aad565b82525050565b613c6381613b3b565b82525050565b61018082016000820151613c806000850182613c3c565b506020820151613c936020850182613c3c565b506040820151613ca66040850182613c3c565b506060820151613cb96060850182613c3c565b506080820151613ccc6080850182613c4b565b5060a0820151613cdf60a0850182613c5a565b5060c0820151613cf260c0850182613c4b565b5060e0820151613d0560e0850182613c4b565b50610100820151613d1a610100850182613c3c565b50610120820151613d2f610120850182613c4b565b50610140820151613d44610140850182613c4b565b50610160820151613d59610160850182613c3c565b50505050565b6000613d6b8383613c69565b6101808301905092915050565b6000602082019050919050565b6000613d9082613c10565b613d9a8185613c1b565b9350613da583613c2c565b8060005b83811015613dd6578151613dbd8882613d5f565b9750613dc883613d78565b925050600181019050613da9565b5085935050505092915050565b60006020820190508181036000830152613dfd8184613d85565b905092915050565b600073ffffffffffffffffffffffffffffffffffffffff82169050919050565b6000819050919050565b6000613e4a613e45613e4084613e05565b613e25565b613e05565b9050919050565b6000613e5c82613e2f565b9050919050565b6000613e6e82613e51565b9050919050565b613e7e81613e63565b82525050565b6000602082019050613e996000830184613e75565b92915050565b6000602082019050613eb46000830184613b2c565b92915050565b613ec381613b10565b8114613ece57600080fd5b50565b600081359050613ee081613eba565b92915050565b60008060408385031215613efd57613efc613aa8565b5b6000613f0b85828601613ed1565b9250506020613f1c85828601613ace565b9150509250929050565b6000613f3182613e05565b9050919050565b613f4181613f26565b82525050565b6000608082019050613f5c6000830187613f38565b613f696020830186613b1d565b613f766040830185613b2c565b613f836060830184613b2c565b95945050505050565b613f9581613f26565b8114613fa057600080fd5b50565b600081359050613fb281613f8c565b92915050565b600060208284031215613fce57613fcd613aa8565b5b6000613fdc84828501613fa3565b91505092915050565b600060208284031215613ffb57613ffa613aa8565b5b600061400984828501613ed1565b91505092915050565b600081519050919050565b600082825260208201905092915050565b6000819050602082019050919050565b61404781613f26565b82525050565b608082016000820151614063600085018261403e565b5060208201516140766020850182613c3c565b5060408201516140896040850182613c4b565b50606082015161409c6060850182613c4b565b50505050565b60006140ae838361404d565b60808301905092915050565b6000602082019050919050565b60006140d282614012565b6140dc818561401d565b93506140e78361402e565b8060005b838110156141185781516140ff88826140a2565b975061410a836140ba565b9250506001810190506140eb565b5085935050505092915050565b6000602082019050818103600083015261413f81846140c7565b905092915050565b600061415282613e51565b9050919050565b61416281614147565b82525050565b600060208201905061417d6000830184614159565b92915050565b6000806000806080858703121561419d5761419c613aa8565b5b60006141ab87828801613ed1565b94505060206141bc87828801613ed1565b93505060406141cd87828801613ed1565b92505060606141de87828801613ed1565b91505092959194509250565b6000806040838503121561420157614200613aa8565b5b600061420f85828601613ed1565b925050602061422085828601613ed1565b9150509250929050565b6000806040838503121561424157614240613aa8565b5b600061424f85828601613fa3565b925050602061426085828601613ace565b9150509250929050565b6000806000806080858703121561428457614283613aa8565b5b600061429287828801613ed1565b94505060206142a387828801613ed1565b93505060406142b487828801613ed1565b92505060606142c587828801613ace565b91505092959194509250565b60006142dc82613e51565b9050919050565b6142ec816142d1565b82525050565b600060208201905061430760008301846142e3565b92915050565b600061431882613e51565b9050919050565b6143288161430d565b82525050565b6000602082019050614343600083018461431f565b92915050565b600080600080600060a0868803121561436557614364613aa8565b5b600061437388828901613ed1565b955050602061438488828901613ed1565b945050604061439588828901613ed1565b93505060606143a688828901613ace565b92505060806143b788828901613ace565b9150509295509295909350565b7f4e487b7100000000000000000000000000000000000000000000000000000000600052601160045260246000fd5b60006143fe82613aad565b915061440983613aad565b9250828203905081811115614421576144206143c4565b5b92915050565b7f4e487b7100000000000000000000000000000000000000000000000000000000600052603260045260246000fd5b600061446182613aad565b91507fffffffffffffffffffffffffffffffffffffffffffffffffffffffffffffffff8203614493576144926143c4565b5b600182019050919050565b60006144a982613aad565b9150600082036144bc576144bb6143c4565b5b600182039050919050565b7f4e487b7100000000000000000000000000000000000000000000000000000000600052604160045260246000fd5b600082825260208201905092915050565b7f496e76616c6964207265736f7572636520747970650000000000000000000000600082015250565b600061453d6015836144f6565b915061454882614507565b602082019050919050565b6000602082019050818103600083015261456c81614530565b9050919050565b60006040820190506145886000830185613b1d565b6145956020830184613b1d565b9392505050565b6000815190506145ab81613f8c565b92915050565b6000602082840312156145c7576145c6613aa8565b5b60006145d58482850161459c565b91505092915050565b7f596f7520646f206e6f74206f776e20746869732074696c650000000000000000600082015250565b60006146146018836144f6565b915061461f826145de565b602082019050919050565b6000602082019050818103600083015261464381614607565b9050919050565b7f4e6f20646566656e646572000000000000000000000000000000000000000000600082015250565b6000614680600b836144f6565b915061468b8261464a565b602082019050919050565b600060208201905081810360008301526146af81614673565b9050919050565b600080fd5b6000601f19601f8301169050919050565b6146d5826146bb565b810181811067ffffffffffffffff821117156146f4576146f36144c7565b5b80604052505050565b6000614707613a9e565b905061471382826146cc565b919050565b60008151905061472781613ab7565b92915050565b600061ffff82169050919050565b6147448161472d565b811461474f57600080fd5b50565b6000815190506147618161473b565b92915050565b60008151905061477681613eba565b92915050565b60006101e08284031215614793576147926146b6565b5b61479e6101e06146fd565b905060006147ae84828501614718565b60008301525060206147c284828501614718565b60208301525060406147d684828501614718565b60408301525060606147ea84828501614718565b60608301525060806147fe84828501614752565b60808301525060a061481284828501614718565b60a08301525060c061482684828501614718565b60c08301525060e061483a84828501614718565b60e08301525061010061484f84828501614718565b6101008301525061012061486584828501614718565b6101208301525061014061487b84828501614718565b6101408301525061016061489184828501614718565b610160830152506101806148a784828501614767565b610180830152506101a06148bd84828501614767565b6101a0830152506101c06148d384828501614718565b6101c08301525092915050565b60006101e082840312156148f7576148f6613aa8565b5b60006149058482850161477c565b91505092915050565b600061491982613b10565b915061492483613b10565b9250828201905060ff81111561493d5761493c6143c4565b5b92915050565b60006020828403121561495957614958613aa8565b5b600061496784828501614718565b91505092915050565b600060a0820190506149856000830188613b1d565b6149926020830187613b1d565b61499f6040830186613b1d565b6149ac6060830185613b1d565b6149b96080830184613b47565b9695505050505050565b60006020820190506149d86000830184613f38565b92915050565b6149e781613b3b565b81146149f257600080fd5b50565b600081519050614a04816149de565b92915050565b600060208284031215614a2057614a1f613aa8565b5b6000614a2e848285016149f5565b91505092915050565b7f596f75206d75737420686176652061204d61726b657400000000000000000000600082015250565b6000614a6d6016836144f6565b9150614a7882614a37565b602082019050919050565b60006020820190508181036000830152614a9c81614a60565b9050919050565b7f496e76616c696420696e64657800000000000000000000000000000000000000600082015250565b6000614ad9600d836144f6565b9150614ae482614aa3565b602082019050919050565b60006020820190508181036000830152614b0881614acc565b9050919050565b6000614b1a82613aad565b9150614b2583613aad565b9250828202614b3381613aad565b91508282048414831517614b4a57614b496143c4565b5b5092915050565b7f4e487b7100000000000000000000000000000000000000000000000000000000600052601260045260246000fd5b6000614b8b82613aad565b9150614b9683613aad565b925082614ba657614ba5614b51565b5b828204905092915050565b6000606082019050614bc66000830186613f38565b614bd36020830185613f38565b614be06040830184613b2c565b949350505050565b7f546f6b656e207472616e7366657220746f20636f6e7472616374206661696c6560008201527f6400000000000000000000000000000000000000000000000000000000000000602082015250565b6000614c446021836144f6565b9150614c4f82614be8565b604082019050919050565b60006020820190508181036000830152614c7381614c37565b9050919050565b7f5472616e7366657220746f2073656c6c6572206661696c656400000000000000600082015250565b6000614cb06019836144f6565b9150614cbb82614c7a565b602082019050919050565b60006020820190508181036000830152614cdf81614ca3565b9050919050565b7f4c4f50206275726e206661696c65640000000000000000000000000000000000600082015250565b6000614d1c600f836144f6565b9150614d2782614ce6565b602082019050919050565b60006020820190508181036000830152614d4b81614d0f565b9050919050565b600060a082019050614d676000830188613b1d565b614d746020830187613b1d565b614d816040830186613b1d565b614d8e6060830185613b2c565b614d9b6080830184613b47565b9695505050505050565b7f4e487b7100000000000000000000000000000000000000000000000000000000600052603160045260246000fd5b6000604082019050614de96000830185613b2c565b614df66020830184613b2c565b9392505050565b7f5072696365206d7573742062652067726561746572207468616e207a65726f00600082015250565b6000614e33601f836144f6565b9150614e3e82614dfd565b602082019050919050565b60006020820190508181036000830152614e6281614e26565b9050919050565b7f496e76616c696420616d6f756e7420666f72207265736f757263650000000000600082015250565b6000614e9f601b836144f6565b9150614eaa82614e69565b602082019050919050565b60006020820190508181036000830152614ece81614e92565b9050919050565b7f496e76616c696420616d6f756e7420666f72206d696c6974617279206571756960008201527f706d656e74000000000000000000000000000000000000000000000000000000602082015250565b6000614f316025836144f6565b9150614f3c82614ed5565b604082019050919050565b60006020820190508181036000830152614f6081614f24565b9050919050565b6000614f7282613aad565b9150614f7d83613aad565b9250828201905080821115614f9557614f946143c4565b5b92915050565b7f43616e27742061747461636b20796f757273656c660000000000000000000000600082015250565b6000614fd16015836144f6565b9150614fdc82614f9b565b602082019050919050565b6000602082019050818103600083015261500081614fc4565b9050919050565b60006020828403121561501d5761501c613aa8565b5b600061502b84828501614767565b91505092915050565b7f43616e6e6f742061747461636b2061206d656d626572206f6620796f7572206f60008201527f776e20636c616e00000000000000000000000000000000000000000000000000602082015250565b60006150906027836144f6565b915061509b82615034565b604082019050919050565b600060208201905081810360008301526150bf81615083565b9050919050565b7f54617267657420746f6f20666172206f722073616d652074696c650000000000600082015250565b60006150fc601b836144f6565b9150615107826150c6565b602082019050919050565b6000602082019050818103600083015261512b816150ef565b9050919050565b7f4e6f7420656e6f756768207475726e732073696e6365206c617374206174746160008201527f636b000000000000000000000000000000000000000000000000000000000000602082015250565b600061518e6022836144f6565b915061519982615132565b604082019050919050565b600060208201905081810360008301526151bd81615181565b9050919050565b7f446566656e64657220697320756e64657220636f6f6c646f776e2070726f746560008201527f6374696f6e000000000000000000000000000000000000000000000000000000602082015250565b60006152206025836144f6565b915061522b826151c4565b604082019050919050565b6000602082019050818103600083015261524f81615213565b9050919050565b600061526182613b10565b915061526c83613b10565b9250828203905060ff811115615285576152846143c4565b5b92915050565b6000819050919050565b60006152b06152ab6152a68461528b565b613e25565b613b10565b9050919050565b6152c081615295565b82525050565b600060a0820190506152db6000830188613b1d565b6152e86020830187613b1d565b6152f560408301866152b7565b6153026060830185613b2c565b61530f6080830184613b47565b9695505050505050565b6000819050919050565b600061533e61533961533484615319565b613e25565b613b10565b9050919050565b61534e81615323565b82525050565b600060a0820190506153696000830188613b1d565b6153766020830187613b1d565b6153836040830186615345565b6153906060830185613b2c565b61539d6080830184613b47565b9695505050505050565b6000819050919050565b60006153cc6153c76153c2846153a7565b613e25565b613b10565b9050919050565b6153dc816153b1565b82525050565b600060a0820190506153f76000830188613b1d565b6154046020830187613b1d565b61541160408301866153d3565b61541e6060830185613b2c565b61542b6080830184613b47565b9695505050505050565b6000819050919050565b600061545a61545561545084615435565b613e25565b613b10565b9050919050565b61546a8161543f565b82525050565b600060a0820190506154856000830188613b1d565b6154926020830187613b1d565b61549f6040830186615461565b6154ac6060830185613b2c565b6154b96080830184613b47565b9695505050505050565b6000819050919050565b60006154e86154e36154de846154c3565b613e25565b613b10565b9050919050565b6154f8816154cd565b82525050565b600060a0820190506155136000830188613b1d565b6155206020830187613b1d565b61552d60408301866154ef565b61553a6060830185613b2c565b6155476080830184613b47565b9695505050505050565b6000819050919050565b600061557661557161556c84615551565b613e25565b613b10565b9050919050565b6155868161555b565b82525050565b600060a0820190506155a16000830188613b1d565b6155ae6020830187613b1d565b6155bb604083018661557d565b6155c86060830185613b2c565b6155d56080830184613b47565b969550505050505056fea2646970667358221220eeebc4fb23c470ed2842294b3167d041fa86e28b19adf238b158da6ddbd131ee64736f6c63430008120033",
			"opcodes": "PUSH1 0x80 PUSH1 0x40 MSTORE CALLVALUE DUP1 ISZERO PUSH3 0x11 JUMPI PUSH1 0x0 DUP1 REVERT JUMPDEST POP PUSH1 0x40 MLOAD PUSH3 0x5845 CODESIZE SUB DUP1 PUSH3 0x5845 DUP4 CODECOPY DUP2 DUP2 ADD PUSH1 0x40 MSTORE DUP2 ADD SWAP1 PUSH3 0x37 SWAP2 SWAP1 PUSH3 0x1AE JUMP JUMPDEST DUP4 PUSH1 0x0 DUP1 PUSH2 0x100 EXP DUP2 SLOAD DUP2 PUSH20 0xFFFFFFFFFFFFFFFFFFFFFFFFFFFFFFFFFFFFFFFF MUL NOT AND SWAP1 DUP4 PUSH20 0xFFFFFFFFFFFFFFFFFFFFFFFFFFFFFFFFFFFFFFFF AND MUL OR SWAP1 SSTORE POP DUP3 PUSH1 0x1 PUSH1 0x0 PUSH2 0x100 EXP DUP2 SLOAD DUP2 PUSH20 0xFFFFFFFFFFFFFFFFFFFFFFFFFFFFFFFFFFFFFFFF MUL NOT AND SWAP1 DUP4 PUSH20 0xFFFFFFFFFFFFFFFFFFFFFFFFFFFFFFFFFFFFFFFF AND MUL OR SWAP1 SSTORE POP DUP2 PUSH1 0x2 PUSH1 0x0 PUSH2 0x100 EXP DUP2 SLOAD DUP2 PUSH20 0xFFFFFFFFFFFFFFFFFFFFFFFFFFFFFFFFFFFFFFFF MUL NOT AND SWAP1 DUP4 PUSH20 0xFFFFFFFFFFFFFFFFFFFFFFFFFFFFFFFFFFFFFFFF AND MUL OR SWAP1 SSTORE POP DUP1 PUSH1 0x3 PUSH1 0x0 PUSH2 0x100 EXP DUP2 SLOAD DUP2 PUSH20 0xFFFFFFFFFFFFFFFFFFFFFFFFFFFFFFFFFFFFFFFF MUL NOT AND SWAP1 DUP4 PUSH20 0xFFFFFFFFFFFFFFFFFFFFFFFFFFFFFFFFFFFFFFFF AND MUL OR SWAP1 SSTORE POP POP POP POP POP PUSH3 0x220 JUMP JUMPDEST PUSH1 0x0 DUP1 REVERT JUMPDEST PUSH1 0x0 PUSH20 0xFFFFFFFFFFFFFFFFFFFFFFFFFFFFFFFFFFFFFFFF DUP3 AND SWAP1 POP SWAP2 SWAP1 POP JUMP JUMPDEST PUSH1 0x0 PUSH3 0x176 DUP3 PUSH3 0x149 JUMP JUMPDEST SWAP1 POP SWAP2 SWAP1 POP JUMP JUMPDEST PUSH3 0x188 DUP2 PUSH3 0x169 JUMP JUMPDEST DUP2 EQ PUSH3 0x194 JUMPI PUSH1 0x0 DUP1 REVERT JUMPDEST POP JUMP JUMPDEST PUSH1 0x0 DUP2 MLOAD SWAP1 POP PUSH3 0x1A8 DUP2 PUSH3 0x17D JUMP JUMPDEST SWAP3 SWAP2 POP POP JUMP JUMPDEST PUSH1 0x0 DUP1 PUSH1 0x0 DUP1 PUSH1 0x80 DUP6 DUP8 SUB SLT ISZERO PUSH3 0x1CB JUMPI PUSH3 0x1CA PUSH3 0x144 JUMP JUMPDEST JUMPDEST PUSH1 0x0 PUSH3 0x1DB DUP8 DUP3 DUP9 ADD PUSH3 0x197 JUMP JUMPDEST SWAP5 POP POP PUSH1 0x20 PUSH3 0x1EE DUP8 DUP3 DUP9 ADD PUSH3 0x197 JUMP JUMPDEST SWAP4 POP POP PUSH1 0x40 PUSH3 0x201 DUP8 DUP3 DUP9 ADD PUSH3 0x197 JUMP JUMPDEST SWAP3 POP POP PUSH1 0x60 PUSH3 0x214 DUP8 DUP3 DUP9 ADD PUSH3 0x197 JUMP JUMPDEST SWAP2 POP POP SWAP3 SWAP6 SWAP2 SWAP5 POP SWAP3 POP JUMP JUMPDEST PUSH2 0x5615 DUP1 PUSH3 0x230 PUSH1 0x0 CODECOPY PUSH1 0x0 RETURN INVALID PUSH1 0x80 PUSH1 0x40 MSTORE CALLVALUE DUP1 ISZERO PUSH2 0x10 JUMPI PUSH1 0x0 DUP1 REVERT JUMPDEST POP PUSH1 0x4 CALLDATASIZE LT PUSH2 0x115 JUMPI PUSH1 0x0 CALLDATALOAD PUSH1 0xE0 SHR DUP1 PUSH4 0x697E71D2 GT PUSH2 0xA2 JUMPI DUP1 PUSH4 0x8E9197B4 GT PUSH2 0x71 JUMPI DUP1 PUSH4 0x8E9197B4 EQ PUSH2 0x32A JUMPI DUP1 PUSH4 0x999A2F7A EQ PUSH2 0x35A JUMPI DUP1 PUSH4 0xB0D77774 EQ PUSH2 0x376 JUMPI DUP1 PUSH4 0xC49443AC EQ PUSH2 0x394 JUMPI DUP1 PUSH4 0xCA030079 EQ PUSH2 0x3B2 JUMPI PUSH2 0x115 JUMP JUMPDEST DUP1 PUSH4 0x697E71D2 EQ PUSH2 0x27E JUMPI DUP1 PUSH4 0x70D27E41 EQ PUSH2 0x29A JUMPI DUP1 PUSH4 0x763540CD EQ PUSH2 0x2CA JUMPI DUP1 PUSH4 0x8972AE26 EQ PUSH2 0x2FA JUMPI PUSH2 0x115 JUMP JUMPDEST DUP1 PUSH4 0x2456028B GT PUSH2 0xE9 JUMPI DUP1 PUSH4 0x2456028B EQ PUSH2 0x1AF JUMPI DUP1 PUSH4 0x3E6ABF42 EQ PUSH2 0x1CD JUMPI DUP1 PUSH4 0x40CA262A EQ PUSH2 0x200 JUMPI DUP1 PUSH4 0x4B4D9F89 EQ PUSH2 0x230 JUMPI DUP1 PUSH4 0x4F264B03 EQ PUSH2 0x260 JUMPI PUSH2 0x115 JUMP JUMPDEST DUP1 PUSH3 0x75C079 EQ PUSH2 0x11A JUMPI DUP1 PUSH4 0x3C59F79 EQ PUSH2 0x155 JUMPI DUP1 PUSH4 0xD67F59E EQ PUSH2 0x173 JUMPI DUP1 PUSH4 0x10AC4633 EQ PUSH2 0x191 JUMPI JUMPDEST PUSH1 0x0 DUP1 REVERT JUMPDEST PUSH2 0x134 PUSH1 0x4 DUP1 CALLDATASIZE SUB DUP2 ADD SWAP1 PUSH2 0x12F SWAP2 SWAP1 PUSH2 0x3AE3 JUMP JUMPDEST PUSH2 0x3CE JUMP JUMPDEST PUSH1 0x40 MLOAD PUSH2 0x14C SWAP13 SWAP12 SWAP11 SWAP10 SWAP9 SWAP8 SWAP7 SWAP6 SWAP5 SWAP4 SWAP3 SWAP2 SWAP1 PUSH2 0x3B56 JUMP JUMPDEST PUSH1 0x40 MLOAD DUP1 SWAP2 SUB SWAP1 RETURN JUMPDEST PUSH2 0x15D PUSH2 0x499 JUMP JUMPDEST PUSH1 0x40 MLOAD PUSH2 0x16A SWAP2 SWAP1 PUSH2 0x3DE3 JUMP JUMPDEST PUSH1 0x40 MLOAD DUP1 SWAP2 SUB SWAP1 RETURN JUMPDEST PUSH2 0x17B PUSH2 0x714 JUMP JUMPDEST PUSH1 0x40 MLOAD PUSH2 0x188 SWAP2 SWAP1 PUSH2 0x3E84 JUMP JUMPDEST PUSH1 0x40 MLOAD DUP1 SWAP2 SUB SWAP1 RETURN JUMPDEST PUSH2 0x199 PUSH2 0x73A JUMP JUMPDEST PUSH1 0x40 MLOAD PUSH2 0x1A6 SWAP2 SWAP1 PUSH2 0x3E9F JUMP JUMPDEST PUSH1 0x40 MLOAD DUP1 SWAP2 SUB SWAP1 RETURN JUMPDEST PUSH2 0x1B7 PUSH2 0x73F JUMP JUMPDEST PUSH1 0x40 MLOAD PUSH2 0x1C4 SWAP2 SWAP1 PUSH2 0x3DE3 JUMP JUMPDEST PUSH1 0x40 MLOAD DUP1 SWAP2 SUB SWAP1 RETURN JUMPDEST PUSH2 0x1E7 PUSH1 0x4 DUP1 CALLDATASIZE SUB DUP2 ADD SWAP1 PUSH2 0x1E2 SWAP2 SWAP1 PUSH2 0x3EE6 JUMP JUMPDEST PUSH2 0x89A JUMP JUMPDEST PUSH1 0x40 MLOAD PUSH2 0x1F7 SWAP5 SWAP4 SWAP3 SWAP2 SWAP1 PUSH2 0x3F47 JUMP JUMPDEST PUSH1 0x40 MLOAD DUP1 SWAP2 SUB SWAP1 RETURN JUMPDEST PUSH2 0x21A PUSH1 0x4 DUP1 CALLDATASIZE SUB DUP2 ADD SWAP1 PUSH2 0x215 SWAP2 SWAP1 PUSH2 0x3FB8 JUMP JUMPDEST PUSH2 0x914 JUMP JUMPDEST PUSH1 0x40 MLOAD PUSH2 0x227 SWAP2 SWAP1 PUSH2 0x3DE3 JUMP JUMPDEST PUSH1 0x40 MLOAD DUP1 SWAP2 SUB SWAP1 RETURN JUMPDEST PUSH2 0x24A PUSH1 0x4 DUP1 CALLDATASIZE SUB DUP2 ADD SWAP1 PUSH2 0x245 SWAP2 SWAP1 PUSH2 0x3FE5 JUMP JUMPDEST PUSH2 0xC6B JUMP JUMPDEST PUSH1 0x40 MLOAD PUSH2 0x257 SWAP2 SWAP1 PUSH2 0x4125 JUMP JUMPDEST PUSH1 0x40 MLOAD DUP1 SWAP2 SUB SWAP1 RETURN JUMPDEST PUSH2 0x268 PUSH2 0xDC1 JUMP JUMPDEST PUSH1 0x40 MLOAD PUSH2 0x275 SWAP2 SWAP1 PUSH2 0x4168 JUMP JUMPDEST PUSH1 0x40 MLOAD DUP1 SWAP2 SUB SWAP1 RETURN JUMPDEST PUSH2 0x298 PUSH1 0x4 DUP1 CALLDATASIZE SUB DUP2 ADD SWAP1 PUSH2 0x293 SWAP2 SWAP1 PUSH2 0x4183 JUMP JUMPDEST PUSH2 0xDE7 JUMP JUMPDEST STOP JUMPDEST PUSH2 0x2B4 PUSH1 0x4 DUP1 CALLDATASIZE SUB DUP2 ADD SWAP1 PUSH2 0x2AF SWAP2 SWAP1 PUSH2 0x41EA JUMP JUMPDEST PUSH2 0x17B2 JUMP JUMPDEST PUSH1 0x40 MLOAD PUSH2 0x2C1 SWAP2 SWAP1 PUSH2 0x3E9F JUMP JUMPDEST PUSH1 0x40 MLOAD DUP1 SWAP2 SUB SWAP1 RETURN JUMPDEST PUSH2 0x2E4 PUSH1 0x4 DUP1 CALLDATASIZE SUB DUP2 ADD SWAP1 PUSH2 0x2DF SWAP2 SWAP1 PUSH2 0x41EA JUMP JUMPDEST PUSH2 0x17D7 JUMP JUMPDEST PUSH1 0x40 MLOAD PUSH2 0x2F1 SWAP2 SWAP1 PUSH2 0x3E9F JUMP JUMPDEST PUSH1 0x40 MLOAD DUP1 SWAP2 SUB SWAP1 RETURN JUMPDEST PUSH2 0x314 PUSH1 0x4 DUP1 CALLDATASIZE SUB DUP2 ADD SWAP1 PUSH2 0x30F SWAP2 SWAP1 PUSH2 0x3FB8 JUMP JUMPDEST PUSH2 0x17FC JUMP JUMPDEST PUSH1 0x40 MLOAD PUSH2 0x321 SWAP2 SWAP1 PUSH2 0x3DE3 JUMP JUMPDEST PUSH1 0x40 MLOAD DUP1 SWAP2 SUB SWAP1 RETURN JUMPDEST PUSH2 0x344 PUSH1 0x4 DUP1 CALLDATASIZE SUB DUP2 ADD SWAP1 PUSH2 0x33F SWAP2 SWAP1 PUSH2 0x422A JUMP JUMPDEST PUSH2 0x1A74 JUMP JUMPDEST PUSH1 0x40 MLOAD PUSH2 0x351 SWAP2 SWAP1 PUSH2 0x3E9F JUMP JUMPDEST PUSH1 0x40 MLOAD DUP1 SWAP2 SUB SWAP1 RETURN JUMPDEST PUSH2 0x374 PUSH1 0x4 DUP1 CALLDATASIZE SUB DUP2 ADD SWAP1 PUSH2 0x36F SWAP2 SWAP1 PUSH2 0x426A JUMP JUMPDEST PUSH2 0x1AA5 JUMP JUMPDEST STOP JUMPDEST PUSH2 0x37E PUSH2 0x23D6 JUMP JUMPDEST PUSH1 0x40 MLOAD PUSH2 0x38B SWAP2 SWAP1 PUSH2 0x42F2 JUMP JUMPDEST PUSH1 0x40 MLOAD DUP1 SWAP2 SUB SWAP1 RETURN JUMPDEST PUSH2 0x39C PUSH2 0x23FA JUMP JUMPDEST PUSH1 0x40 MLOAD PUSH2 0x3A9 SWAP2 SWAP1 PUSH2 0x432E JUMP JUMPDEST PUSH1 0x40 MLOAD DUP1 SWAP2 SUB SWAP1 RETURN JUMPDEST PUSH2 0x3CC PUSH1 0x4 DUP1 CALLDATASIZE SUB DUP2 ADD SWAP1 PUSH2 0x3C7 SWAP2 SWAP1 PUSH2 0x4349 JUMP JUMPDEST PUSH2 0x2420 JUMP JUMPDEST STOP JUMPDEST PUSH1 0x7 DUP2 DUP2 SLOAD DUP2 LT PUSH2 0x3DE JUMPI PUSH1 0x0 DUP1 REVERT JUMPDEST SWAP1 PUSH1 0x0 MSTORE PUSH1 0x20 PUSH1 0x0 KECCAK256 SWAP1 PUSH1 0x9 MUL ADD PUSH1 0x0 SWAP2 POP SWAP1 POP DUP1 PUSH1 0x0 ADD PUSH1 0x0 SWAP1 SLOAD SWAP1 PUSH2 0x100 EXP SWAP1 DIV PUSH1 0xFF AND SWAP1 DUP1 PUSH1 0x0 ADD PUSH1 0x1 SWAP1 SLOAD SWAP1 PUSH2 0x100 EXP SWAP1 DIV PUSH1 0xFF AND SWAP1 DUP1 PUSH1 0x0 ADD PUSH1 0x2 SWAP1 SLOAD SWAP1 PUSH2 0x100 EXP SWAP1 DIV PUSH1 0xFF AND SWAP1 DUP1 PUSH1 0x0 ADD PUSH1 0x3 SWAP1 SLOAD SWAP1 PUSH2 0x100 EXP SWAP1 DIV PUSH1 0xFF AND SWAP1 DUP1 PUSH1 0x1 ADD SLOAD SWAP1 DUP1 PUSH1 0x2 ADD PUSH1 0x0 SWAP1 SLOAD SWAP1 PUSH2 0x100 EXP SWAP1 DIV PUSH1 0xFF AND SWAP1 DUP1 PUSH1 0x3 ADD SLOAD SWAP1 DUP1 PUSH1 0x4 ADD SLOAD SWAP1 DUP1 PUSH1 0x5 ADD PUSH1 0x0 SWAP1 SLOAD SWAP1 PUSH2 0x100 EXP SWAP1 DIV PUSH1 0xFF AND SWAP1 DUP1 PUSH1 0x6 ADD SLOAD SWAP1 DUP1 PUSH1 0x7 ADD SLOAD SWAP1 DUP1 PUSH1 0x8 ADD PUSH1 0x0 SWAP1 SLOAD SWAP1 PUSH2 0x100 EXP SWAP1 DIV PUSH1 0xFF AND SWAP1 POP DUP13 JUMP JUMPDEST PUSH1 0x60 PUSH1 0x0 DUP1 PUSH3 0x93A80 TIMESTAMP PUSH2 0x4AD SWAP2 SWAP1 PUSH2 0x43F3 JUMP JUMPDEST SWAP1 POP PUSH1 0x0 PUSH1 0x7 DUP1 SLOAD SWAP1 POP SWAP1 POP JUMPDEST PUSH1 0x0 DUP2 GT ISZERO PUSH2 0x526 JUMPI DUP2 PUSH1 0x7 PUSH1 0x1 DUP4 PUSH2 0x4D3 SWAP2 SWAP1 PUSH2 0x43F3 JUMP JUMPDEST DUP2 SLOAD DUP2 LT PUSH2 0x4E4 JUMPI PUSH2 0x4E3 PUSH2 0x4427 JUMP JUMPDEST JUMPDEST SWAP1 PUSH1 0x0 MSTORE PUSH1 0x20 PUSH1 0x0 KECCAK256 SWAP1 PUSH1 0x9 MUL ADD PUSH1 0x1 ADD SLOAD LT PUSH2 0x50E JUMPI DUP3 DUP1 PUSH2 0x506 SWAP1 PUSH2 0x4456 JUMP JUMPDEST SWAP4 POP POP PUSH2 0x513 JUMP JUMPDEST PUSH2 0x526 JUMP JUMPDEST DUP1 DUP1 PUSH2 0x51E SWAP1 PUSH2 0x449E JUMP JUMPDEST SWAP2 POP POP PUSH2 0x4BA JUMP JUMPDEST POP PUSH1 0x0 DUP3 PUSH8 0xFFFFFFFFFFFFFFFF DUP2 GT ISZERO PUSH2 0x543 JUMPI PUSH2 0x542 PUSH2 0x44C7 JUMP JUMPDEST JUMPDEST PUSH1 0x40 MLOAD SWAP1 DUP1 DUP3 MSTORE DUP1 PUSH1 0x20 MUL PUSH1 0x20 ADD DUP3 ADD PUSH1 0x40 MSTORE DUP1 ISZERO PUSH2 0x57C JUMPI DUP2 PUSH1 0x20 ADD JUMPDEST PUSH2 0x569 PUSH2 0x3A29 JUMP JUMPDEST DUP2 MSTORE PUSH1 0x20 ADD SWAP1 PUSH1 0x1 SWAP1 SUB SWAP1 DUP2 PUSH2 0x561 JUMPI SWAP1 POP JUMPDEST POP SWAP1 POP PUSH1 0x0 DUP1 DUP5 PUSH1 0x7 DUP1 SLOAD SWAP1 POP PUSH2 0x593 SWAP2 SWAP1 PUSH2 0x43F3 JUMP JUMPDEST SWAP1 POP JUMPDEST PUSH1 0x7 DUP1 SLOAD SWAP1 POP DUP2 LT ISZERO PUSH2 0x709 JUMPI PUSH1 0x7 DUP2 DUP2 SLOAD DUP2 LT PUSH2 0x5B7 JUMPI PUSH2 0x5B6 PUSH2 0x4427 JUMP JUMPDEST JUMPDEST SWAP1 PUSH1 0x0 MSTORE PUSH1 0x20 PUSH1 0x0 KECCAK256 SWAP1 PUSH1 0x9 MUL ADD PUSH1 0x40 MLOAD DUP1 PUSH2 0x180 ADD PUSH1 0x40 MSTORE SWAP1 DUP2 PUSH1 0x0 DUP3 ADD PUSH1 0x0 SWAP1 SLOAD SWAP1 PUSH2 0x100 EXP SWAP1 DIV PUSH1 0xFF AND PUSH1 0xFF AND PUSH1 0xFF AND DUP2 MSTORE PUSH1 0x20 ADD PUSH1 0x0 DUP3 ADD PUSH1 0x1 SWAP1 SLOAD SWAP1 PUSH2 0x100 EXP SWAP1 DIV PUSH1 0xFF AND PUSH1 0xFF AND PUSH1 0xFF AND DUP2 MSTORE PUSH1 0x20 ADD PUSH1 0x0 DUP3 ADD PUSH1 0x2 SWAP1 SLOAD SWAP1 PUSH2 0x100 EXP SWAP1 DIV PUSH1 0xFF AND PUSH1 0xFF AND PUSH1 0xFF AND DUP2 MSTORE PUSH1 0x20 ADD PUSH1 0x0 DUP3 ADD PUSH1 0x3 SWAP1 SLOAD SWAP1 PUSH2 0x100 EXP SWAP1 DIV PUSH1 0xFF AND PUSH1 0xFF AND PUSH1 0xFF AND DUP2 MSTORE PUSH1 0x20 ADD PUSH1 0x1 DUP3 ADD SLOAD DUP2 MSTORE PUSH1 0x20 ADD PUSH1 0x2 DUP3 ADD PUSH1 0x0 SWAP1 SLOAD SWAP1 PUSH2 0x100 EXP SWAP1 DIV PUSH1 0xFF AND ISZERO ISZERO ISZERO ISZERO DUP2 MSTORE PUSH1 0x20 ADD PUSH1 0x3 DUP3 ADD SLOAD DUP2 MSTORE PUSH1 0x20 ADD PUSH1 0x4 DUP3 ADD SLOAD DUP2 MSTORE PUSH1 0x20 ADD PUSH1 0x5 DUP3 ADD PUSH1 0x0 SWAP1 SLOAD SWAP1 PUSH2 0x100 EXP SWAP1 DIV PUSH1 0xFF AND PUSH1 0xFF AND PUSH1 0xFF AND DUP2 MSTORE PUSH1 0x20 ADD PUSH1 0x6 DUP3 ADD SLOAD DUP2 MSTORE PUSH1 0x20 ADD PUSH1 0x7 DUP3 ADD SLOAD DUP2 MSTORE PUSH1 0x20 ADD PUSH1 0x8 DUP3 ADD PUSH1 0x0 SWAP1 SLOAD SWAP1 PUSH2 0x100 EXP SWAP1 DIV PUSH1 0xFF AND PUSH1 0xFF AND PUSH1 0xFF AND DUP2 MSTORE POP POP DUP4 DUP4 DUP1 PUSH2 0x6D8 SWAP1 PUSH2 0x4456 JUMP JUMPDEST SWAP5 POP DUP2 MLOAD DUP2 LT PUSH2 0x6EB JUMPI PUSH2 0x6EA PUSH2 0x4427 JUMP JUMPDEST JUMPDEST PUSH1 0x20 MUL PUSH1 0x20 ADD ADD DUP2 SWAP1 MSTORE POP DUP1 DUP1 PUSH2 0x701 SWAP1 PUSH2 0x4456 JUMP JUMPDEST SWAP2 POP POP PUSH2 0x596 JUMP JUMPDEST POP DUP2 SWAP5 POP POP POP POP POP SWAP1 JUMP JUMPDEST PUSH1 0x1 PUSH1 0x0 SWAP1 SLOAD SWAP1 PUSH2 0x100 EXP SWAP1 DIV PUSH20 0xFFFFFFFFFFFFFFFFFFFFFFFFFFFFFFFFFFFFFFFF AND DUP2 JUMP JUMPDEST PUSH1 0xA DUP2 JUMP JUMPDEST PUSH1 0x60 PUSH1 0x7 DUP1 SLOAD DUP1 PUSH1 0x20 MUL PUSH1 0x20 ADD PUSH1 0x40 MLOAD SWAP1 DUP2 ADD PUSH1 0x40 MSTORE DUP1 SWAP3 SWAP2 SWAP1 DUP2 DUP2 MSTORE PUSH1 0x20 ADD PUSH1 0x0 SWAP1 JUMPDEST DUP3 DUP3 LT ISZERO PUSH2 0x891 JUMPI DUP4 DUP3 SWAP1 PUSH1 0x0 MSTORE PUSH1 0x20 PUSH1 0x0 KECCAK256 SWAP1 PUSH1 0x9 MUL ADD PUSH1 0x40 MLOAD DUP1 PUSH2 0x180 ADD PUSH1 0x40 MSTORE SWAP1 DUP2 PUSH1 0x0 DUP3 ADD PUSH1 0x0 SWAP1 SLOAD SWAP1 PUSH2 0x100 EXP SWAP1 DIV PUSH1 0xFF AND PUSH1 0xFF AND PUSH1 0xFF AND DUP2 MSTORE PUSH1 0x20 ADD PUSH1 0x0 DUP3 ADD PUSH1 0x1 SWAP1 SLOAD SWAP1 PUSH2 0x100 EXP SWAP1 DIV PUSH1 0xFF AND PUSH1 0xFF AND PUSH1 0xFF AND DUP2 MSTORE PUSH1 0x20 ADD PUSH1 0x0 DUP3 ADD PUSH1 0x2 SWAP1 SLOAD SWAP1 PUSH2 0x100 EXP SWAP1 DIV PUSH1 0xFF AND PUSH1 0xFF AND PUSH1 0xFF AND DUP2 MSTORE PUSH1 0x20 ADD PUSH1 0x0 DUP3 ADD PUSH1 0x3 SWAP1 SLOAD SWAP1 PUSH2 0x100 EXP SWAP1 DIV PUSH1 0xFF AND PUSH1 0xFF AND PUSH1 0xFF AND DUP2 MSTORE PUSH1 0x20 ADD PUSH1 0x1 DUP3 ADD SLOAD DUP2 MSTORE PUSH1 0x20 ADD PUSH1 0x2 DUP3 ADD PUSH1 0x0 SWAP1 SLOAD SWAP1 PUSH2 0x100 EXP SWAP1 DIV PUSH1 0xFF AND ISZERO ISZERO ISZERO ISZERO DUP2 MSTORE PUSH1 0x20 ADD PUSH1 0x3 DUP3 ADD SLOAD DUP2 MSTORE PUSH1 0x20 ADD PUSH1 0x4 DUP3 ADD SLOAD DUP2 MSTORE PUSH1 0x20 ADD PUSH1 0x5 DUP3 ADD PUSH1 0x0 SWAP1 SLOAD SWAP1 PUSH2 0x100 EXP SWAP1 DIV PUSH1 0xFF AND PUSH1 0xFF AND PUSH1 0xFF AND DUP2 MSTORE PUSH1 0x20 ADD PUSH1 0x6 DUP3 ADD SLOAD DUP2 MSTORE PUSH1 0x20 ADD PUSH1 0x7 DUP3 ADD SLOAD DUP2 MSTORE PUSH1 0x20 ADD PUSH1 0x8 DUP3 ADD PUSH1 0x0 SWAP1 SLOAD SWAP1 PUSH2 0x100 EXP SWAP1 DIV PUSH1 0xFF AND PUSH1 0xFF AND PUSH1 0xFF AND DUP2 MSTORE POP POP DUP2 MSTORE PUSH1 0x20 ADD SWAP1 PUSH1 0x1 ADD SWAP1 PUSH2 0x763 JUMP JUMPDEST POP POP POP POP SWAP1 POP SWAP1 JUMP JUMPDEST PUSH1 0x4 PUSH1 0x20 MSTORE DUP2 PUSH1 0x0 MSTORE PUSH1 0x40 PUSH1 0x0 KECCAK256 DUP2 DUP2 SLOAD DUP2 LT PUSH2 0x8B6 JUMPI PUSH1 0x0 DUP1 REVERT JUMPDEST SWAP1 PUSH1 0x0 MSTORE PUSH1 0x20 PUSH1 0x0 KECCAK256 SWAP1 PUSH1 0x3 MUL ADD PUSH1 0x0 SWAP2 POP SWAP2 POP POP DUP1 PUSH1 0x0 ADD PUSH1 0x0 SWAP1 SLOAD SWAP1 PUSH2 0x100 EXP SWAP1 DIV PUSH20 0xFFFFFFFFFFFFFFFFFFFFFFFFFFFFFFFFFFFFFFFF AND SWAP1 DUP1 PUSH1 0x0 ADD PUSH1 0x14 SWAP1 SLOAD SWAP1 PUSH2 0x100 EXP SWAP1 DIV PUSH1 0xFF AND SWAP1 DUP1 PUSH1 0x1 ADD SLOAD SWAP1 DUP1 PUSH1 0x2 ADD SLOAD SWAP1 POP DUP5 JUMP JUMPDEST PUSH1 0x60 PUSH1 0x0 PUSH1 0x8 PUSH1 0x0 DUP5 PUSH20 0xFFFFFFFFFFFFFFFFFFFFFFFFFFFFFFFFFFFFFFFF AND PUSH20 0xFFFFFFFFFFFFFFFFFFFFFFFFFFFFFFFFFFFFFFFF AND DUP2 MSTORE PUSH1 0x20 ADD SWAP1 DUP2 MSTORE PUSH1 0x20 ADD PUSH1 0x0 KECCAK256 DUP1 SLOAD DUP1 PUSH1 0x20 MUL PUSH1 0x20 ADD PUSH1 0x40 MLOAD SWAP1 DUP2 ADD PUSH1 0x40 MSTORE DUP1 SWAP3 SWAP2 SWAP1 DUP2 DUP2 MSTORE PUSH1 0x20 ADD DUP3 DUP1 SLOAD DUP1 ISZERO PUSH2 0x9A1 JUMPI PUSH1 0x20 MUL DUP3 ADD SWAP2 SWAP1 PUSH1 0x0 MSTORE PUSH1 0x20 PUSH1 0x0 KECCAK256 SWAP1 JUMPDEST DUP2 SLOAD DUP2 MSTORE PUSH1 0x20 ADD SWAP1 PUSH1 0x1 ADD SWAP1 DUP1 DUP4 GT PUSH2 0x98D JUMPI JUMPDEST POP POP POP POP POP SWAP1 POP PUSH1 0x0 DUP1 PUSH3 0x93A80 TIMESTAMP PUSH2 0x9BA SWAP2 SWAP1 PUSH2 0x43F3 JUMP JUMPDEST SWAP1 POP PUSH1 0x0 JUMPDEST DUP4 MLOAD DUP2 LT ISZERO PUSH2 0xA30 JUMPI DUP2 PUSH1 0x7 DUP6 DUP4 DUP2 MLOAD DUP2 LT PUSH2 0x9DE JUMPI PUSH2 0x9DD PUSH2 0x4427 JUMP JUMPDEST JUMPDEST PUSH1 0x20 MUL PUSH1 0x20 ADD ADD MLOAD DUP2 SLOAD DUP2 LT PUSH2 0x9F7 JUMPI PUSH2 0x9F6 PUSH2 0x4427 JUMP JUMPDEST JUMPDEST SWAP1 PUSH1 0x0 MSTORE PUSH1 0x20 PUSH1 0x0 KECCAK256 SWAP1 PUSH1 0x9 MUL ADD PUSH1 0x1 ADD SLOAD LT PUSH2 0xA1D JUMPI DUP3 DUP1 PUSH2 0xA19 SWAP1 PUSH2 0x4456 JUMP JUMPDEST SWAP4 POP POP JUMPDEST DUP1 DUP1 PUSH2 0xA28 SWAP1 PUSH2 0x4456 JUMP JUMPDEST SWAP2 POP POP PUSH2 0x9BF JUMP JUMPDEST POP PUSH1 0x0 DUP3 PUSH8 0xFFFFFFFFFFFFFFFF DUP2 GT ISZERO PUSH2 0xA4D JUMPI PUSH2 0xA4C PUSH2 0x44C7 JUMP JUMPDEST JUMPDEST PUSH1 0x40 MLOAD SWAP1 DUP1 DUP3 MSTORE DUP1 PUSH1 0x20 MUL PUSH1 0x20 ADD DUP3 ADD PUSH1 0x40 MSTORE DUP1 ISZERO PUSH2 0xA86 JUMPI DUP2 PUSH1 0x20 ADD JUMPDEST PUSH2 0xA73 PUSH2 0x3A29 JUMP JUMPDEST DUP2 MSTORE PUSH1 0x20 ADD SWAP1 PUSH1 0x1 SWAP1 SUB SWAP1 DUP2 PUSH2 0xA6B JUMPI SWAP1 POP JUMPDEST POP SWAP1 POP PUSH1 0x0 DUP1 JUMPDEST DUP6 MLOAD DUP2 LT ISZERO PUSH2 0xC5D JUMPI DUP4 PUSH1 0x7 DUP8 DUP4 DUP2 MLOAD DUP2 LT PUSH2 0xAAC JUMPI PUSH2 0xAAB PUSH2 0x4427 JUMP JUMPDEST JUMPDEST PUSH1 0x20 MUL PUSH1 0x20 ADD ADD MLOAD DUP2 SLOAD DUP2 LT PUSH2 0xAC5 JUMPI PUSH2 0xAC4 PUSH2 0x4427 JUMP JUMPDEST JUMPDEST SWAP1 PUSH1 0x0 MSTORE PUSH1 0x20 PUSH1 0x0 KECCAK256 SWAP1 PUSH1 0x9 MUL ADD PUSH1 0x1 ADD SLOAD LT PUSH2 0xC4A JUMPI PUSH1 0x7 DUP7 DUP3 DUP2 MLOAD DUP2 LT PUSH2 0xAF1 JUMPI PUSH2 0xAF0 PUSH2 0x4427 JUMP JUMPDEST JUMPDEST PUSH1 0x20 MUL PUSH1 0x20 ADD ADD MLOAD DUP2 SLOAD DUP2 LT PUSH2 0xB0A JUMPI PUSH2 0xB09 PUSH2 0x4427 JUMP JUMPDEST JUMPDEST SWAP1 PUSH1 0x0 MSTORE PUSH1 0x20 PUSH1 0x0 KECCAK256 SWAP1 PUSH1 0x9 MUL ADD PUSH1 0x40 MLOAD DUP1 PUSH2 0x180 ADD PUSH1 0x40 MSTORE SWAP1 DUP2 PUSH1 0x0 DUP3 ADD PUSH1 0x0 SWAP1 SLOAD SWAP1 PUSH2 0x100 EXP SWAP1 DIV PUSH1 0xFF AND PUSH1 0xFF AND PUSH1 0xFF AND DUP2 MSTORE PUSH1 0x20 ADD PUSH1 0x0 DUP3 ADD PUSH1 0x1 SWAP1 SLOAD SWAP1 PUSH2 0x100 EXP SWAP1 DIV PUSH1 0xFF AND PUSH1 0xFF AND PUSH1 0xFF AND DUP2 MSTORE PUSH1 0x20 ADD PUSH1 0x0 DUP3 ADD PUSH1 0x2 SWAP1 SLOAD SWAP1 PUSH2 0x100 EXP SWAP1 DIV PUSH1 0xFF AND PUSH1 0xFF AND PUSH1 0xFF AND DUP2 MSTORE PUSH1 0x20 ADD PUSH1 0x0 DUP3 ADD PUSH1 0x3 SWAP1 SLOAD SWAP1 PUSH2 0x100 EXP SWAP1 DIV PUSH1 0xFF AND PUSH1 0xFF AND PUSH1 0xFF AND DUP2 MSTORE PUSH1 0x20 ADD PUSH1 0x1 DUP3 ADD SLOAD DUP2 MSTORE PUSH1 0x20 ADD PUSH1 0x2 DUP3 ADD PUSH1 0x0 SWAP1 SLOAD SWAP1 PUSH2 0x100 EXP SWAP1 DIV PUSH1 0xFF AND ISZERO ISZERO ISZERO ISZERO DUP2 MSTORE PUSH1 0x20 ADD PUSH1 0x3 DUP3 ADD SLOAD DUP2 MSTORE PUSH1 0x20 ADD PUSH1 0x4 DUP3 ADD SLOAD DUP2 MSTORE PUSH1 0x20 ADD PUSH1 0x5 DUP3 ADD PUSH1 0x0 SWAP1 SLOAD SWAP1 PUSH2 0x100 EXP SWAP1 DIV PUSH1 0xFF AND PUSH1 0xFF AND PUSH1 0xFF AND DUP2 MSTORE PUSH1 0x20 ADD PUSH1 0x6 DUP3 ADD SLOAD DUP2 MSTORE PUSH1 0x20 ADD PUSH1 0x7 DUP3 ADD SLOAD DUP2 MSTORE PUSH1 0x20 ADD PUSH1 0x8 DUP3 ADD PUSH1 0x0 SWAP1 SLOAD SWAP1 PUSH2 0x100 EXP SWAP1 DIV PUSH1 0xFF AND PUSH1 0xFF AND PUSH1 0xFF AND DUP2 MSTORE POP POP DUP4 DUP4 DUP1 PUSH2 0xC2B SWAP1 PUSH2 0x4456 JUMP JUMPDEST SWAP5 POP DUP2 MLOAD DUP2 LT PUSH2 0xC3E JUMPI PUSH2 0xC3D PUSH2 0x4427 JUMP JUMPDEST JUMPDEST PUSH1 0x20 MUL PUSH1 0x20 ADD ADD DUP2 SWAP1 MSTORE POP JUMPDEST DUP1 DUP1 PUSH2 0xC55 SWAP1 PUSH2 0x4456 JUMP JUMPDEST SWAP2 POP POP PUSH2 0xA8D JUMP JUMPDEST POP DUP2 SWAP6 POP POP POP POP POP POP SWAP2 SWAP1 POP JUMP JUMPDEST PUSH1 0x60 PUSH1 0x1 DUP3 PUSH1 0xFF AND LT ISZERO DUP1 ISZERO PUSH2 0xC85 JUMPI POP PUSH1 0x8 DUP3 PUSH1 0xFF AND GT ISZERO JUMPDEST PUSH2 0xCC4 JUMPI PUSH1 0x40 MLOAD PUSH32 0x8C379A000000000000000000000000000000000000000000000000000000000 DUP2 MSTORE PUSH1 0x4 ADD PUSH2 0xCBB SWAP1 PUSH2 0x4553 JUMP JUMPDEST PUSH1 0x40 MLOAD DUP1 SWAP2 SUB SWAP1 REVERT JUMPDEST PUSH1 0x4 PUSH1 0x0 DUP4 PUSH1 0xFF AND PUSH1 0xFF AND DUP2 MSTORE PUSH1 0x20 ADD SWAP1 DUP2 MSTORE PUSH1 0x20 ADD PUSH1 0x0 KECCAK256 DUP1 SLOAD DUP1 PUSH1 0x20 MUL PUSH1 0x20 ADD PUSH1 0x40 MLOAD SWAP1 DUP2 ADD PUSH1 0x40 MSTORE DUP1 SWAP3 SWAP2 SWAP1 DUP2 DUP2 MSTORE PUSH1 0x20 ADD PUSH1 0x0 SWAP1 JUMPDEST DUP3 DUP3 LT ISZERO PUSH2 0xDB6 JUMPI DUP4 DUP3 SWAP1 PUSH1 0x0 MSTORE PUSH1 0x20 PUSH1 0x0 KECCAK256 SWAP1 PUSH1 0x3 MUL ADD PUSH1 0x40 MLOAD DUP1 PUSH1 0x80 ADD PUSH1 0x40 MSTORE SWAP1 DUP2 PUSH1 0x0 DUP3 ADD PUSH1 0x0 SWAP1 SLOAD SWAP1 PUSH2 0x100 EXP SWAP1 DIV PUSH20 0xFFFFFFFFFFFFFFFFFFFFFFFFFFFFFFFFFFFFFFFF AND PUSH20 0xFFFFFFFFFFFFFFFFFFFFFFFFFFFFFFFFFFFFFFFF AND PUSH20 0xFFFFFFFFFFFFFFFFFFFFFFFFFFFFFFFFFFFFFFFF AND DUP2 MSTORE PUSH1 0x20 ADD PUSH1 0x0 DUP3 ADD PUSH1 0x14 SWAP1 SLOAD SWAP1 PUSH2 0x100 EXP SWAP1 DIV PUSH1 0xFF AND PUSH1 0xFF AND PUSH1 0xFF AND DUP2 MSTORE PUSH1 0x20 ADD PUSH1 0x1 DUP3 ADD SLOAD DUP2 MSTORE PUSH1 0x20 ADD PUSH1 0x2 DUP3 ADD SLOAD DUP2 MSTORE POP POP DUP2 MSTORE PUSH1 0x20 ADD SWAP1 PUSH1 0x1 ADD SWAP1 PUSH2 0xCFD JUMP JUMPDEST POP POP POP POP SWAP1 POP SWAP2 SWAP1 POP JUMP JUMPDEST PUSH1 0x2 PUSH1 0x0 SWAP1 SLOAD SWAP1 PUSH2 0x100 EXP SWAP1 DIV PUSH20 0xFFFFFFFFFFFFFFFFFFFFFFFFFFFFFFFFFFFFFFFF AND DUP2 JUMP JUMPDEST DUP4 DUP4 CALLER PUSH20 0xFFFFFFFFFFFFFFFFFFFFFFFFFFFFFFFFFFFFFFFF AND PUSH1 0x2 PUSH1 0x0 SWAP1 SLOAD SWAP1 PUSH2 0x100 EXP SWAP1 DIV PUSH20 0xFFFFFFFFFFFFFFFFFFFFFFFFFFFFFFFFFFFFFFFF AND PUSH20 0xFFFFFFFFFFFFFFFFFFFFFFFFFFFFFFFFFFFFFFFF AND PUSH4 0x8A888953 DUP5 DUP5 PUSH1 0x40 MLOAD DUP4 PUSH4 0xFFFFFFFF AND PUSH1 0xE0 SHL DUP2 MSTORE PUSH1 0x4 ADD PUSH2 0xE5D SWAP3 SWAP2 SWAP1 PUSH2 0x4573 JUMP JUMPDEST PUSH1 0x20 PUSH1 0x40 MLOAD DUP1 DUP4 SUB DUP2 DUP7 GAS STATICCALL ISZERO DUP1 ISZERO PUSH2 0xE7A JUMPI RETURNDATASIZE PUSH1 0x0 DUP1 RETURNDATACOPY RETURNDATASIZE PUSH1 0x0 REVERT JUMPDEST POP POP POP POP PUSH1 0x40 MLOAD RETURNDATASIZE PUSH1 0x1F NOT PUSH1 0x1F DUP3 ADD AND DUP3 ADD DUP1 PUSH1 0x40 MSTORE POP DUP2 ADD SWAP1 PUSH2 0xE9E SWAP2 SWAP1 PUSH2 0x45B1 JUMP JUMPDEST PUSH20 0xFFFFFFFFFFFFFFFFFFFFFFFFFFFFFFFFFFFFFFFF AND EQ PUSH2 0xEF4 JUMPI PUSH1 0x40 MLOAD PUSH32 0x8C379A000000000000000000000000000000000000000000000000000000000 DUP2 MSTORE PUSH1 0x4 ADD PUSH2 0xEEB SWAP1 PUSH2 0x462A JUMP JUMPDEST PUSH1 0x40 MLOAD DUP1 SWAP2 SUB SWAP1 REVERT JUMPDEST PUSH1 0x0 PUSH1 0x2 PUSH1 0x0 SWAP1 SLOAD SWAP1 PUSH2 0x100 EXP SWAP1 DIV PUSH20 0xFFFFFFFFFFFFFFFFFFFFFFFFFFFFFFFFFFFFFFFF AND PUSH20 0xFFFFFFFFFFFFFFFFFFFFFFFFFFFFFFFFFFFFFFFF AND PUSH4 0x8A888953 DUP7 DUP7 PUSH1 0x40 MLOAD DUP4 PUSH4 0xFFFFFFFF AND PUSH1 0xE0 SHL DUP2 MSTORE PUSH1 0x4 ADD PUSH2 0xF53 SWAP3 SWAP2 SWAP1 PUSH2 0x4573 JUMP JUMPDEST PUSH1 0x20 PUSH1 0x40 MLOAD DUP1 DUP4 SUB DUP2 DUP7 GAS STATICCALL ISZERO DUP1 ISZERO PUSH2 0xF70 JUMPI RETURNDATASIZE PUSH1 0x0 DUP1 RETURNDATACOPY RETURNDATASIZE PUSH1 0x0 REVERT JUMPDEST POP POP POP POP PUSH1 0x40 MLOAD RETURNDATASIZE PUSH1 0x1F NOT PUSH1 0x1F DUP3 ADD AND DUP3 ADD DUP1 PUSH1 0x40 MSTORE POP DUP2 ADD SWAP1 PUSH2 0xF94 SWAP2 SWAP1 PUSH2 0x45B1 JUMP JUMPDEST SWAP1 POP PUSH1 0x0 PUSH20 0xFFFFFFFFFFFFFFFFFFFFFFFFFFFFFFFFFFFFFFFF AND DUP2 PUSH20 0xFFFFFFFFFFFFFFFFFFFFFFFFFFFFFFFFFFFFFFFF AND SUB PUSH2 0x1005 JUMPI PUSH1 0x40 MLOAD PUSH32 0x8C379A000000000000000000000000000000000000000000000000000000000 DUP2 MSTORE PUSH1 0x4 ADD PUSH2 0xFFC SWAP1 PUSH2 0x4696 JUMP JUMPDEST PUSH1 0x40 MLOAD DUP1 SWAP2 SUB SWAP1 REVERT JUMPDEST PUSH2 0x1013 DUP8 DUP8 DUP8 DUP8 CALLER DUP7 PUSH2 0x2962 JUMP JUMPDEST PUSH1 0x0 DUP1 PUSH1 0x0 SWAP1 SLOAD SWAP1 PUSH2 0x100 EXP SWAP1 DIV PUSH20 0xFFFFFFFFFFFFFFFFFFFFFFFFFFFFFFFFFFFFFFFF AND PUSH20 0xFFFFFFFFFFFFFFFFFFFFFFFFFFFFFFFFFFFFFFFF AND PUSH4 0xBD638378 DUP10 DUP10 PUSH1 0x40 MLOAD DUP4 PUSH4 0xFFFFFFFF AND PUSH1 0xE0 SHL DUP2 MSTORE PUSH1 0x4 ADD PUSH2 0x1071 SWAP3 SWAP2 SWAP1 PUSH2 0x4573 JUMP JUMPDEST PUSH2 0x1E0 PUSH1 0x40 MLOAD DUP1 DUP4 SUB DUP2 DUP7 GAS STATICCALL ISZERO DUP1 ISZERO PUSH2 0x108F JUMPI RETURNDATASIZE PUSH1 0x0 DUP1 RETURNDATACOPY RETURNDATASIZE PUSH1 0x0 REVERT JUMPDEST POP POP POP POP PUSH1 0x40 MLOAD RETURNDATASIZE PUSH1 0x1F NOT PUSH1 0x1F DUP3 ADD AND DUP3 ADD DUP1 PUSH1 0x40 MSTORE POP DUP2 ADD SWAP1 PUSH2 0x10B3 SWAP2 SWAP1 PUSH2 0x48E0 JUMP JUMPDEST SWAP1 POP PUSH1 0x0 DUP1 PUSH1 0x0 SWAP1 SLOAD SWAP1 PUSH2 0x100 EXP SWAP1 DIV PUSH20 0xFFFFFFFFFFFFFFFFFFFFFFFFFFFFFFFFFFFFFFFF AND PUSH20 0xFFFFFFFFFFFFFFFFFFFFFFFFFFFFFFFFFFFFFFFF AND PUSH4 0xBD638378 DUP9 DUP9 PUSH1 0x40 MLOAD DUP4 PUSH4 0xFFFFFFFF AND PUSH1 0xE0 SHL DUP2 MSTORE PUSH1 0x4 ADD PUSH2 0x1113 SWAP3 SWAP2 SWAP1 PUSH2 0x4573 JUMP JUMPDEST PUSH2 0x1E0 PUSH1 0x40 MLOAD DUP1 DUP4 SUB DUP2 DUP7 GAS STATICCALL ISZERO DUP1 ISZERO PUSH2 0x1131 JUMPI RETURNDATASIZE PUSH1 0x0 DUP1 RETURNDATACOPY RETURNDATASIZE PUSH1 0x0 REVERT JUMPDEST POP POP POP POP PUSH1 0x40 MLOAD RETURNDATASIZE PUSH1 0x1F NOT PUSH1 0x1F DUP3 ADD AND DUP3 ADD DUP1 PUSH1 0x40 MSTORE POP DUP2 ADD SWAP1 PUSH2 0x1155 SWAP2 SWAP1 PUSH2 0x48E0 JUMP JUMPDEST SWAP1 POP PUSH1 0x0 PUSH2 0x1163 DUP10 DUP9 PUSH2 0x2E32 JUMP JUMPDEST PUSH2 0x116D DUP12 DUP11 PUSH2 0x2E32 JUMP JUMPDEST PUSH2 0x1177 SWAP2 SWAP1 PUSH2 0x490E JUMP JUMPDEST SWAP1 POP PUSH2 0x1185 DUP11 DUP11 DUP4 DUP7 PUSH2 0x2E67 JUMP JUMPDEST PUSH1 0x0 DUP1 PUSH2 0x1192 DUP6 DUP6 PUSH2 0x3156 JUMP JUMPDEST SWAP2 POP SWAP2 POP PUSH2 0x11A4 DUP13 DUP13 DUP13 DUP13 DUP10 DUP10 PUSH2 0x320A JUMP JUMPDEST DUP1 DUP3 GT ISZERO PUSH2 0x11BA JUMPI PUSH2 0x11B9 DUP13 DUP13 DUP13 DUP13 DUP9 PUSH2 0x34EA JUMP JUMPDEST JUMPDEST PUSH1 0x0 DUP1 SLOAD SWAP1 PUSH2 0x100 EXP SWAP1 DIV PUSH20 0xFFFFFFFFFFFFFFFFFFFFFFFFFFFFFFFFFFFFFFFF AND PUSH20 0xFFFFFFFFFFFFFFFFFFFFFFFFFFFFFFFFFFFFFFFF AND PUSH4 0x41EDE44F DUP14 DUP14 PUSH1 0x40 MLOAD DUP4 PUSH4 0xFFFFFFFF AND PUSH1 0xE0 SHL DUP2 MSTORE PUSH1 0x4 ADD PUSH2 0x1215 SWAP3 SWAP2 SWAP1 PUSH2 0x4573 JUMP JUMPDEST PUSH1 0x20 PUSH1 0x40 MLOAD DUP1 DUP4 SUB DUP2 DUP7 GAS STATICCALL ISZERO DUP1 ISZERO PUSH2 0x1232 JUMPI RETURNDATASIZE PUSH1 0x0 DUP1 RETURNDATACOPY RETURNDATASIZE PUSH1 0x0 REVERT JUMPDEST POP POP POP POP PUSH1 0x40 MLOAD RETURNDATASIZE PUSH1 0x1F NOT PUSH1 0x1F DUP3 ADD AND DUP3 ADD DUP1 PUSH1 0x40 MSTORE POP DUP2 ADD SWAP1 PUSH2 0x1256 SWAP2 SWAP1 PUSH2 0x4943 JUMP JUMPDEST PUSH1 0x5 PUSH1 0x0 DUP15 PUSH1 0xFF AND PUSH1 0xFF AND DUP2 MSTORE PUSH1 0x20 ADD SWAP1 DUP2 MSTORE PUSH1 0x20 ADD PUSH1 0x0 KECCAK256 PUSH1 0x0 DUP14 PUSH1 0xFF AND PUSH1 0xFF AND DUP2 MSTORE PUSH1 0x20 ADD SWAP1 DUP2 MSTORE PUSH1 0x20 ADD PUSH1 0x0 KECCAK256 DUP2 SWAP1 SSTORE POP PUSH1 0x0 DUP1 SLOAD SWAP1 PUSH2 0x100 EXP SWAP1 DIV PUSH20 0xFFFFFFFFFFFFFFFFFFFFFFFFFFFFFFFFFFFFFFFF AND PUSH20 0xFFFFFFFFFFFFFFFFFFFFFFFFFFFFFFFFFFFFFFFF AND PUSH4 0x41EDE44F DUP12 DUP12 PUSH1 0x40 MLOAD DUP4 PUSH4 0xFFFFFFFF AND PUSH1 0xE0 SHL DUP2 MSTORE PUSH1 0x4 ADD PUSH2 0x12E5 SWAP3 SWAP2 SWAP1 PUSH2 0x4573 JUMP JUMPDEST PUSH1 0x20 PUSH1 0x40 MLOAD DUP1 DUP4 SUB DUP2 DUP7 GAS STATICCALL ISZERO DUP1 ISZERO PUSH2 0x1302 JUMPI RETURNDATASIZE PUSH1 0x0 DUP1 RETURNDATACOPY RETURNDATASIZE PUSH1 0x0 REVERT JUMPDEST POP POP POP POP PUSH1 0x40 MLOAD RETURNDATASIZE PUSH1 0x1F NOT PUSH1 0x1F DUP3 ADD AND DUP3 ADD DUP1 PUSH1 0x40 MSTORE POP DUP2 ADD SWAP1 PUSH2 0x1326 SWAP2 SWAP1 PUSH2 0x4943 JUMP JUMPDEST PUSH1 0x6 PUSH1 0x0 DUP13 PUSH1 0xFF AND PUSH1 0xFF AND DUP2 MSTORE PUSH1 0x20 ADD SWAP1 DUP2 MSTORE PUSH1 0x20 ADD PUSH1 0x0 KECCAK256 PUSH1 0x0 DUP12 PUSH1 0xFF AND PUSH1 0xFF AND DUP2 MSTORE PUSH1 0x20 ADD SWAP1 DUP2 MSTORE PUSH1 0x20 ADD PUSH1 0x0 KECCAK256 DUP2 SWAP1 SSTORE POP PUSH1 0x0 DUP1 SLOAD SWAP1 PUSH2 0x100 EXP SWAP1 DIV PUSH20 0xFFFFFFFFFFFFFFFFFFFFFFFFFFFFFFFFFFFFFFFF AND PUSH20 0xFFFFFFFFFFFFFFFFFFFFFFFFFFFFFFFFFFFFFFFF AND PUSH4 0x7659BC60 DUP14 DUP14 PUSH1 0x40 MLOAD DUP4 PUSH4 0xFFFFFFFF AND PUSH1 0xE0 SHL DUP2 MSTORE PUSH1 0x4 ADD PUSH2 0x13B5 SWAP3 SWAP2 SWAP1 PUSH2 0x4573 JUMP JUMPDEST PUSH1 0x0 PUSH1 0x40 MLOAD DUP1 DUP4 SUB DUP2 PUSH1 0x0 DUP8 DUP1 EXTCODESIZE ISZERO DUP1 ISZERO PUSH2 0x13CF JUMPI PUSH1 0x0 DUP1 REVERT JUMPDEST POP GAS CALL ISZERO DUP1 ISZERO PUSH2 0x13E3 JUMPI RETURNDATASIZE PUSH1 0x0 DUP1 RETURNDATACOPY RETURNDATASIZE PUSH1 0x0 REVERT JUMPDEST POP POP POP POP PUSH1 0x0 DUP1 SLOAD SWAP1 PUSH2 0x100 EXP SWAP1 DIV PUSH20 0xFFFFFFFFFFFFFFFFFFFFFFFFFFFFFFFFFFFFFFFF AND PUSH20 0xFFFFFFFFFFFFFFFFFFFFFFFFFFFFFFFFFFFFFFFF AND PUSH4 0x7659BC60 DUP12 DUP12 PUSH1 0x40 MLOAD DUP4 PUSH4 0xFFFFFFFF AND PUSH1 0xE0 SHL DUP2 MSTORE PUSH1 0x4 ADD PUSH2 0x1442 SWAP3 SWAP2 SWAP1 PUSH2 0x4573 JUMP JUMPDEST PUSH1 0x0 PUSH1 0x40 MLOAD DUP1 DUP4 SUB DUP2 PUSH1 0x0 DUP8 DUP1 EXTCODESIZE ISZERO DUP1 ISZERO PUSH2 0x145C JUMPI PUSH1 0x0 DUP1 REVERT JUMPDEST POP GAS CALL ISZERO DUP1 ISZERO PUSH2 0x1470 JUMPI RETURNDATASIZE PUSH1 0x0 DUP1 RETURNDATACOPY RETURNDATASIZE PUSH1 0x0 REVERT JUMPDEST POP POP POP POP PUSH1 0x0 DUP2 DUP4 GT SWAP1 POP PUSH1 0x7 PUSH1 0x40 MLOAD DUP1 PUSH2 0x180 ADD PUSH1 0x40 MSTORE DUP1 DUP16 PUSH1 0xFF AND DUP2 MSTORE PUSH1 0x20 ADD DUP15 PUSH1 0xFF AND DUP2 MSTORE PUSH1 0x20 ADD DUP14 PUSH1 0xFF AND DUP2 MSTORE PUSH1 0x20 ADD DUP13 PUSH1 0xFF AND DUP2 MSTORE PUSH1 0x20 ADD TIMESTAMP DUP2 MSTORE PUSH1 0x20 ADD DUP4 ISZERO ISZERO DUP2 MSTORE PUSH1 0x20 ADD DUP9 PUSH2 0x140 ADD MLOAD DUP2 MSTORE PUSH1 0x20 ADD DUP9 PUSH2 0x160 ADD MLOAD DUP2 MSTORE PUSH1 0x20 ADD DUP9 PUSH2 0x180 ADD MLOAD PUSH1 0xFF AND DUP2 MSTORE PUSH1 0x20 ADD DUP8 PUSH2 0x140 ADD MLOAD DUP2 MSTORE PUSH1 0x20 ADD DUP8 PUSH2 0x160 ADD MLOAD DUP2 MSTORE PUSH1 0x20 ADD DUP8 PUSH2 0x1A0 ADD MLOAD PUSH1 0xFF AND DUP2 MSTORE POP SWAP1 DUP1 PUSH1 0x1 DUP2 SLOAD ADD DUP1 DUP3 SSTORE DUP1 SWAP2 POP POP PUSH1 0x1 SWAP1 SUB SWAP1 PUSH1 0x0 MSTORE PUSH1 0x20 PUSH1 0x0 KECCAK256 SWAP1 PUSH1 0x9 MUL ADD PUSH1 0x0 SWAP1 SWAP2 SWAP1 SWAP2 SWAP1 SWAP2 POP PUSH1 0x0 DUP3 ADD MLOAD DUP2 PUSH1 0x0 ADD PUSH1 0x0 PUSH2 0x100 EXP DUP2 SLOAD DUP2 PUSH1 0xFF MUL NOT AND SWAP1 DUP4 PUSH1 0xFF AND MUL OR SWAP1 SSTORE POP PUSH1 0x20 DUP3 ADD MLOAD DUP2 PUSH1 0x0 ADD PUSH1 0x1 PUSH2 0x100 EXP DUP2 SLOAD DUP2 PUSH1 0xFF MUL NOT AND SWAP1 DUP4 PUSH1 0xFF AND MUL OR SWAP1 SSTORE POP PUSH1 0x40 DUP3 ADD MLOAD DUP2 PUSH1 0x0 ADD PUSH1 0x2 PUSH2 0x100 EXP DUP2 SLOAD DUP2 PUSH1 0xFF MUL NOT AND SWAP1 DUP4 PUSH1 0xFF AND MUL OR SWAP1 SSTORE POP PUSH1 0x60 DUP3 ADD MLOAD DUP2 PUSH1 0x0 ADD PUSH1 0x3 PUSH2 0x100 EXP DUP2 SLOAD DUP2 PUSH1 0xFF MUL NOT AND SWAP1 DUP4 PUSH1 0xFF AND MUL OR SWAP1 SSTORE POP PUSH1 0x80 DUP3 ADD MLOAD DUP2 PUSH1 0x1 ADD SSTORE PUSH1 0xA0 DUP3 ADD MLOAD DUP2 PUSH1 0x2 ADD PUSH1 0x0 PUSH2 0x100 EXP DUP2 SLOAD DUP2 PUSH1 0xFF MUL NOT AND SWAP1 DUP4 ISZERO ISZERO MUL OR SWAP1 SSTORE POP PUSH1 0xC0 DUP3 ADD MLOAD DUP2 PUSH1 0x3 ADD SSTORE PUSH1 0xE0 DUP3 ADD MLOAD DUP2 PUSH1 0x4 ADD SSTORE PUSH2 0x100 DUP3 ADD MLOAD DUP2 PUSH1 0x5 ADD PUSH1 0x0 PUSH2 0x100 EXP DUP2 SLOAD DUP2 PUSH1 0xFF MUL NOT AND SWAP1 DUP4 PUSH1 0xFF AND MUL OR SWAP1 SSTORE POP PUSH2 0x120 DUP3 ADD MLOAD DUP2 PUSH1 0x6 ADD SSTORE PUSH2 0x140 DUP3 ADD MLOAD DUP2 PUSH1 0x7 ADD SSTORE PUSH2 0x160 DUP3 ADD MLOAD DUP2 PUSH1 0x8 ADD PUSH1 0x0 PUSH2 0x100 EXP DUP2 SLOAD DUP2 PUSH1 0xFF MUL NOT AND SWAP1 DUP4 PUSH1 0xFF AND MUL OR SWAP1 SSTORE POP POP POP PUSH1 0x8 PUSH1 0x0 CALLER PUSH20 0xFFFFFFFFFFFFFFFFFFFFFFFFFFFFFFFFFFFFFFFF AND PUSH20 0xFFFFFFFFFFFFFFFFFFFFFFFFFFFFFFFFFFFFFFFF AND DUP2 MSTORE PUSH1 0x20 ADD SWAP1 DUP2 MSTORE PUSH1 0x20 ADD PUSH1 0x0 KECCAK256 PUSH1 0x1 PUSH1 0x7 DUP1 SLOAD SWAP1 POP PUSH2 0x1699 SWAP2 SWAP1 PUSH2 0x43F3 JUMP JUMPDEST SWAP1 DUP1 PUSH1 0x1 DUP2 SLOAD ADD DUP1 DUP3 SSTORE DUP1 SWAP2 POP POP PUSH1 0x1 SWAP1 SUB SWAP1 PUSH1 0x0 MSTORE PUSH1 0x20 PUSH1 0x0 KECCAK256 ADD PUSH1 0x0 SWAP1 SWAP2 SWAP1 SWAP2 SWAP1 SWAP2 POP SSTORE PUSH1 0x8 PUSH1 0x0 DUP9 PUSH20 0xFFFFFFFFFFFFFFFFFFFFFFFFFFFFFFFFFFFFFFFF AND PUSH20 0xFFFFFFFFFFFFFFFFFFFFFFFFFFFFFFFFFFFFFFFF AND DUP2 MSTORE PUSH1 0x20 ADD SWAP1 DUP2 MSTORE PUSH1 0x20 ADD PUSH1 0x0 KECCAK256 PUSH1 0x1 PUSH1 0x7 DUP1 SLOAD SWAP1 POP PUSH2 0x1710 SWAP2 SWAP1 PUSH2 0x43F3 JUMP JUMPDEST SWAP1 DUP1 PUSH1 0x1 DUP2 SLOAD ADD DUP1 DUP3 SSTORE DUP1 SWAP2 POP POP PUSH1 0x1 SWAP1 SUB SWAP1 PUSH1 0x0 MSTORE PUSH1 0x20 PUSH1 0x0 KECCAK256 ADD PUSH1 0x0 SWAP1 SWAP2 SWAP1 SWAP2 SWAP1 SWAP2 POP SSTORE DUP7 PUSH20 0xFFFFFFFFFFFFFFFFFFFFFFFFFFFFFFFFFFFFFFFF AND CALLER PUSH20 0xFFFFFFFFFFFFFFFFFFFFFFFFFFFFFFFFFFFFFFFF AND PUSH32 0x47389018A4BFD5E1EF612F1FE9082CC3E3675BE36E77743A6BFAF0EA011D586F DUP16 DUP16 DUP16 DUP16 DUP8 PUSH1 0x40 MLOAD PUSH2 0x179B SWAP6 SWAP5 SWAP4 SWAP3 SWAP2 SWAP1 PUSH2 0x4970 JUMP JUMPDEST PUSH1 0x40 MLOAD DUP1 SWAP2 SUB SWAP1 LOG3 POP POP POP POP POP POP POP POP POP POP POP POP POP JUMP JUMPDEST PUSH1 0x6 PUSH1 0x20 MSTORE DUP2 PUSH1 0x0 MSTORE PUSH1 0x40 PUSH1 0x0 KECCAK256 PUSH1 0x20 MSTORE DUP1 PUSH1 0x0 MSTORE PUSH1 0x40 PUSH1 0x0 KECCAK256 PUSH1 0x0 SWAP2 POP SWAP2 POP POP SLOAD DUP2 JUMP JUMPDEST PUSH1 0x5 PUSH1 0x20 MSTORE DUP2 PUSH1 0x0 MSTORE PUSH1 0x40 PUSH1 0x0 KECCAK256 PUSH1 0x20 MSTORE DUP1 PUSH1 0x0 MSTORE PUSH1 0x40 PUSH1 0x0 KECCAK256 PUSH1 0x0 SWAP2 POP SWAP2 POP POP SLOAD DUP2 JUMP JUMPDEST PUSH1 0x60 PUSH1 0x0 PUSH1 0x8 PUSH1 0x0 DUP5 PUSH20 0xFFFFFFFFFFFFFFFFFFFFFFFFFFFFFFFFFFFFFFFF AND PUSH20 0xFFFFFFFFFFFFFFFFFFFFFFFFFFFFFFFFFFFFFFFF AND DUP2 MSTORE PUSH1 0x20 ADD SWAP1 DUP2 MSTORE PUSH1 0x20 ADD PUSH1 0x0 KECCAK256 DUP1 SLOAD DUP1 PUSH1 0x20 MUL PUSH1 0x20 ADD PUSH1 0x40 MLOAD SWAP1 DUP2 ADD PUSH1 0x40 MSTORE DUP1 SWAP3 SWAP2 SWAP1 DUP2 DUP2 MSTORE PUSH1 0x20 ADD DUP3 DUP1 SLOAD DUP1 ISZERO PUSH2 0x1889 JUMPI PUSH1 0x20 MUL DUP3 ADD SWAP2 SWAP1 PUSH1 0x0 MSTORE PUSH1 0x20 PUSH1 0x0 KECCAK256 SWAP1 JUMPDEST DUP2 SLOAD DUP2 MSTORE PUSH1 0x20 ADD SWAP1 PUSH1 0x1 ADD SWAP1 DUP1 DUP4 GT PUSH2 0x1875 JUMPI JUMPDEST POP POP POP POP POP SWAP1 POP PUSH1 0x0 DUP2 MLOAD PUSH8 0xFFFFFFFFFFFFFFFF DUP2 GT ISZERO PUSH2 0x18AD JUMPI PUSH2 0x18AC PUSH2 0x44C7 JUMP JUMPDEST JUMPDEST PUSH1 0x40 MLOAD SWAP1 DUP1 DUP3 MSTORE DUP1 PUSH1 0x20 MUL PUSH1 0x20 ADD DUP3 ADD PUSH1 0x40 MSTORE DUP1 ISZERO PUSH2 0x18E6 JUMPI DUP2 PUSH1 0x20 ADD JUMPDEST PUSH2 0x18D3 PUSH2 0x3A29 JUMP JUMPDEST DUP2 MSTORE PUSH1 0x20 ADD SWAP1 PUSH1 0x1 SWAP1 SUB SWAP1 DUP2 PUSH2 0x18CB JUMPI SWAP1 POP JUMPDEST POP SWAP1 POP PUSH1 0x0 JUMPDEST DUP3 MLOAD DUP2 LT ISZERO PUSH2 0x1A69 JUMPI PUSH1 0x7 DUP4 DUP3 DUP2 MLOAD DUP2 LT PUSH2 0x190A JUMPI PUSH2 0x1909 PUSH2 0x4427 JUMP JUMPDEST JUMPDEST PUSH1 0x20 MUL PUSH1 0x20 ADD ADD MLOAD DUP2 SLOAD DUP2 LT PUSH2 0x1923 JUMPI PUSH2 0x1922 PUSH2 0x4427 JUMP JUMPDEST JUMPDEST SWAP1 PUSH1 0x0 MSTORE PUSH1 0x20 PUSH1 0x0 KECCAK256 SWAP1 PUSH1 0x9 MUL ADD PUSH1 0x40 MLOAD DUP1 PUSH2 0x180 ADD PUSH1 0x40 MSTORE SWAP1 DUP2 PUSH1 0x0 DUP3 ADD PUSH1 0x0 SWAP1 SLOAD SWAP1 PUSH2 0x100 EXP SWAP1 DIV PUSH1 0xFF AND PUSH1 0xFF AND PUSH1 0xFF AND DUP2 MSTORE PUSH1 0x20 ADD PUSH1 0x0 DUP3 ADD PUSH1 0x1 SWAP1 SLOAD SWAP1 PUSH2 0x100 EXP SWAP1 DIV PUSH1 0xFF AND PUSH1 0xFF AND PUSH1 0xFF AND DUP2 MSTORE PUSH1 0x20 ADD PUSH1 0x0 DUP3 ADD PUSH1 0x2 SWAP1 SLOAD SWAP1 PUSH2 0x100 EXP SWAP1 DIV PUSH1 0xFF AND PUSH1 0xFF AND PUSH1 0xFF AND DUP2 MSTORE PUSH1 0x20 ADD PUSH1 0x0 DUP3 ADD PUSH1 0x3 SWAP1 SLOAD SWAP1 PUSH2 0x100 EXP SWAP1 DIV PUSH1 0xFF AND PUSH1 0xFF AND PUSH1 0xFF AND DUP2 MSTORE PUSH1 0x20 ADD PUSH1 0x1 DUP3 ADD SLOAD DUP2 MSTORE PUSH1 0x20 ADD PUSH1 0x2 DUP3 ADD PUSH1 0x0 SWAP1 SLOAD SWAP1 PUSH2 0x100 EXP SWAP1 DIV PUSH1 0xFF AND ISZERO ISZERO ISZERO ISZERO DUP2 MSTORE PUSH1 0x20 ADD PUSH1 0x3 DUP3 ADD SLOAD DUP2 MSTORE PUSH1 0x20 ADD PUSH1 0x4 DUP3 ADD SLOAD DUP2 MSTORE PUSH1 0x20 ADD PUSH1 0x5 DUP3 ADD PUSH1 0x0 SWAP1 SLOAD SWAP1 PUSH2 0x100 EXP SWAP1 DIV PUSH1 0xFF AND PUSH1 0xFF AND PUSH1 0xFF AND DUP2 MSTORE PUSH1 0x20 ADD PUSH1 0x6 DUP3 ADD SLOAD DUP2 MSTORE PUSH1 0x20 ADD PUSH1 0x7 DUP3 ADD SLOAD DUP2 MSTORE PUSH1 0x20 ADD PUSH1 0x8 DUP3 ADD PUSH1 0x0 SWAP1 SLOAD SWAP1 PUSH2 0x100 EXP SWAP1 DIV PUSH1 0xFF AND PUSH1 0xFF AND PUSH1 0xFF AND DUP2 MSTORE POP POP DUP3 DUP3 DUP2 MLOAD DUP2 LT PUSH2 0x1A4B JUMPI PUSH2 0x1A4A PUSH2 0x4427 JUMP JUMPDEST JUMPDEST PUSH1 0x20 MUL PUSH1 0x20 ADD ADD DUP2 SWAP1 MSTORE POP DUP1 DUP1 PUSH2 0x1A61 SWAP1 PUSH2 0x4456 JUMP JUMPDEST SWAP2 POP POP PUSH2 0x18EC JUMP JUMPDEST POP DUP1 SWAP3 POP POP POP SWAP2 SWAP1 POP JUMP JUMPDEST PUSH1 0x8 PUSH1 0x20 MSTORE DUP2 PUSH1 0x0 MSTORE PUSH1 0x40 PUSH1 0x0 KECCAK256 DUP2 DUP2 SLOAD DUP2 LT PUSH2 0x1A90 JUMPI PUSH1 0x0 DUP1 REVERT JUMPDEST SWAP1 PUSH1 0x0 MSTORE PUSH1 0x20 PUSH1 0x0 KECCAK256 ADD PUSH1 0x0 SWAP2 POP SWAP2 POP POP SLOAD DUP2 JUMP JUMPDEST DUP4 DUP4 CALLER PUSH20 0xFFFFFFFFFFFFFFFFFFFFFFFFFFFFFFFFFFFFFFFF AND PUSH1 0x2 PUSH1 0x0 SWAP1 SLOAD SWAP1 PUSH2 0x100 EXP SWAP1 DIV PUSH20 0xFFFFFFFFFFFFFFFFFFFFFFFFFFFFFFFFFFFFFFFF AND PUSH20 0xFFFFFFFFFFFFFFFFFFFFFFFFFFFFFFFFFFFFFFFF AND PUSH4 0x8A888953 DUP5 DUP5 PUSH1 0x40 MLOAD DUP4 PUSH4 0xFFFFFFFF AND PUSH1 0xE0 SHL DUP2 MSTORE PUSH1 0x4 ADD PUSH2 0x1B1B SWAP3 SWAP2 SWAP1 PUSH2 0x4573 JUMP JUMPDEST PUSH1 0x20 PUSH1 0x40 MLOAD DUP1 DUP4 SUB DUP2 DUP7 GAS STATICCALL ISZERO DUP1 ISZERO PUSH2 0x1B38 JUMPI RETURNDATASIZE PUSH1 0x0 DUP1 RETURNDATACOPY RETURNDATASIZE PUSH1 0x0 REVERT JUMPDEST POP POP POP POP PUSH1 0x40 MLOAD RETURNDATASIZE PUSH1 0x1F NOT PUSH1 0x1F DUP3 ADD AND DUP3 ADD DUP1 PUSH1 0x40 MSTORE POP DUP2 ADD SWAP1 PUSH2 0x1B5C SWAP2 SWAP1 PUSH2 0x45B1 JUMP JUMPDEST PUSH20 0xFFFFFFFFFFFFFFFFFFFFFFFFFFFFFFFFFFFFFFFF AND EQ PUSH2 0x1BB2 JUMPI PUSH1 0x40 MLOAD PUSH32 0x8C379A000000000000000000000000000000000000000000000000000000000 DUP2 MSTORE PUSH1 0x4 ADD PUSH2 0x1BA9 SWAP1 PUSH2 0x462A JUMP JUMPDEST PUSH1 0x40 MLOAD DUP1 SWAP2 SUB SWAP1 REVERT JUMPDEST PUSH1 0x0 DUP1 SLOAD SWAP1 PUSH2 0x100 EXP SWAP1 DIV PUSH20 0xFFFFFFFFFFFFFFFFFFFFFFFFFFFFFFFFFFFFFFFF AND PUSH20 0xFFFFFFFFFFFFFFFFFFFFFFFFFFFFFFFFFFFFFFFF AND PUSH4 0x5E75968E CALLER PUSH1 0x40 MLOAD DUP3 PUSH4 0xFFFFFFFF AND PUSH1 0xE0 SHL DUP2 MSTORE PUSH1 0x4 ADD PUSH2 0x1C0B SWAP2 SWAP1 PUSH2 0x49C3 JUMP JUMPDEST PUSH1 0x20 PUSH1 0x40 MLOAD DUP1 DUP4 SUB DUP2 DUP7 GAS STATICCALL ISZERO DUP1 ISZERO PUSH2 0x1C28 JUMPI RETURNDATASIZE PUSH1 0x0 DUP1 RETURNDATACOPY RETURNDATASIZE PUSH1 0x0 REVERT JUMPDEST POP POP POP POP PUSH1 0x40 MLOAD RETURNDATASIZE PUSH1 0x1F NOT PUSH1 0x1F DUP3 ADD AND DUP3 ADD DUP1 PUSH1 0x40 MSTORE POP DUP2 ADD SWAP1 PUSH2 0x1C4C SWAP2 SWAP1 PUSH2 0x4A0A JUMP JUMPDEST PUSH2 0x1C8B JUMPI PUSH1 0x40 MLOAD PUSH32 0x8C379A000000000000000000000000000000000000000000000000000000000 DUP2 MSTORE PUSH1 0x4 ADD PUSH2 0x1C82 SWAP1 PUSH2 0x4A83 JUMP JUMPDEST PUSH1 0x40 MLOAD DUP1 SWAP2 SUB SWAP1 REVERT JUMPDEST PUSH1 0x4 PUSH1 0x0 DUP6 PUSH1 0xFF AND PUSH1 0xFF AND DUP2 MSTORE PUSH1 0x20 ADD SWAP1 DUP2 MSTORE PUSH1 0x20 ADD PUSH1 0x0 KECCAK256 DUP1 SLOAD SWAP1 POP DUP4 LT PUSH2 0x1CE9 JUMPI PUSH1 0x40 MLOAD PUSH32 0x8C379A000000000000000000000000000000000000000000000000000000000 DUP2 MSTORE PUSH1 0x4 ADD PUSH2 0x1CE0 SWAP1 PUSH2 0x4AEF JUMP JUMPDEST PUSH1 0x40 MLOAD DUP1 SWAP2 SUB SWAP1 REVERT JUMPDEST PUSH1 0x1 DUP5 PUSH1 0xFF AND LT ISZERO DUP1 ISZERO PUSH2 0x1D01 JUMPI POP PUSH1 0x8 DUP5 PUSH1 0xFF AND GT ISZERO JUMPDEST PUSH2 0x1D40 JUMPI PUSH1 0x40 MLOAD PUSH32 0x8C379A000000000000000000000000000000000000000000000000000000000 DUP2 MSTORE PUSH1 0x4 ADD PUSH2 0x1D37 SWAP1 PUSH2 0x4553 JUMP JUMPDEST PUSH1 0x40 MLOAD DUP1 SWAP2 SUB SWAP1 REVERT JUMPDEST PUSH1 0x0 PUSH1 0x4 PUSH1 0x0 DUP7 PUSH1 0xFF AND PUSH1 0xFF AND DUP2 MSTORE PUSH1 0x20 ADD SWAP1 DUP2 MSTORE PUSH1 0x20 ADD PUSH1 0x0 KECCAK256 DUP5 DUP2 SLOAD DUP2 LT PUSH2 0x1D6D JUMPI PUSH2 0x1D6C PUSH2 0x4427 JUMP JUMPDEST JUMPDEST SWAP1 PUSH1 0x0 MSTORE PUSH1 0x20 PUSH1 0x0 KECCAK256 SWAP1 PUSH1 0x3 MUL ADD PUSH1 0x40 MLOAD DUP1 PUSH1 0x80 ADD PUSH1 0x40 MSTORE SWAP1 DUP2 PUSH1 0x0 DUP3 ADD PUSH1 0x0 SWAP1 SLOAD SWAP1 PUSH2 0x100 EXP SWAP1 DIV PUSH20 0xFFFFFFFFFFFFFFFFFFFFFFFFFFFFFFFFFFFFFFFF AND PUSH20 0xFFFFFFFFFFFFFFFFFFFFFFFFFFFFFFFFFFFFFFFF AND PUSH20 0xFFFFFFFFFFFFFFFFFFFFFFFFFFFFFFFFFFFFFFFF AND DUP2 MSTORE PUSH1 0x20 ADD PUSH1 0x0 DUP3 ADD PUSH1 0x14 SWAP1 SLOAD SWAP1 PUSH2 0x100 EXP SWAP1 DIV PUSH1 0xFF AND PUSH1 0xFF AND PUSH1 0xFF AND DUP2 MSTORE PUSH1 0x20 ADD PUSH1 0x1 DUP3 ADD SLOAD DUP2 MSTORE PUSH1 0x20 ADD PUSH1 0x2 DUP3 ADD SLOAD DUP2 MSTORE POP POP SWAP1 POP PUSH1 0x0 DUP2 PUSH1 0x60 ADD MLOAD SWAP1 POP PUSH1 0x0 DUP3 PUSH1 0x40 ADD MLOAD SWAP1 POP PUSH1 0x0 DUP4 PUSH1 0x0 ADD MLOAD SWAP1 POP PUSH1 0x0 PUSH1 0x6E PUSH1 0x64 DUP6 PUSH2 0x1E3B SWAP2 SWAP1 PUSH2 0x4B0F JUMP JUMPDEST PUSH2 0x1E45 SWAP2 SWAP1 PUSH2 0x4B80 JUMP JUMPDEST SWAP1 POP PUSH1 0x0 DUP2 DUP6 PUSH2 0x1E55 SWAP2 SWAP1 PUSH2 0x43F3 JUMP JUMPDEST SWAP1 POP PUSH1 0x1 PUSH1 0x0 SWAP1 SLOAD SWAP1 PUSH2 0x100 EXP SWAP1 DIV PUSH20 0xFFFFFFFFFFFFFFFFFFFFFFFFFFFFFFFFFFFFFFFF AND PUSH20 0xFFFFFFFFFFFFFFFFFFFFFFFFFFFFFFFFFFFFFFFF AND PUSH4 0x23B872DD CALLER ADDRESS DUP9 PUSH1 0x40 MLOAD DUP5 PUSH4 0xFFFFFFFF AND PUSH1 0xE0 SHL DUP2 MSTORE PUSH1 0x4 ADD PUSH2 0x1EB6 SWAP4 SWAP3 SWAP2 SWAP1 PUSH2 0x4BB1 JUMP JUMPDEST PUSH1 0x20 PUSH1 0x40 MLOAD DUP1 DUP4 SUB DUP2 PUSH1 0x0 DUP8 GAS CALL ISZERO DUP1 ISZERO PUSH2 0x1ED5 JUMPI RETURNDATASIZE PUSH1 0x0 DUP1 RETURNDATACOPY RETURNDATASIZE PUSH1 0x0 REVERT JUMPDEST POP POP POP POP PUSH1 0x40 MLOAD RETURNDATASIZE PUSH1 0x1F NOT PUSH1 0x1F DUP3 ADD AND DUP3 ADD DUP1 PUSH1 0x40 MSTORE POP DUP2 ADD SWAP1 PUSH2 0x1EF9 SWAP2 SWAP1 PUSH2 0x4A0A JUMP JUMPDEST PUSH2 0x1F38 JUMPI PUSH1 0x40 MLOAD PUSH32 0x8C379A000000000000000000000000000000000000000000000000000000000 DUP2 MSTORE PUSH1 0x4 ADD PUSH2 0x1F2F SWAP1 PUSH2 0x4C5A JUMP JUMPDEST PUSH1 0x40 MLOAD DUP1 SWAP2 SUB SWAP1 REVERT JUMPDEST PUSH1 0x1 PUSH1 0x0 SWAP1 SLOAD SWAP1 PUSH2 0x100 EXP SWAP1 DIV PUSH20 0xFFFFFFFFFFFFFFFFFFFFFFFFFFFFFFFFFFFFFFFF AND PUSH20 0xFFFFFFFFFFFFFFFFFFFFFFFFFFFFFFFFFFFFFFFF AND PUSH4 0x23B872DD ADDRESS DUP6 DUP6 PUSH1 0x40 MLOAD DUP5 PUSH4 0xFFFFFFFF AND PUSH1 0xE0 SHL DUP2 MSTORE PUSH1 0x4 ADD PUSH2 0x1F97 SWAP4 SWAP3 SWAP2 SWAP1 PUSH2 0x4BB1 JUMP JUMPDEST PUSH1 0x20 PUSH1 0x40 MLOAD DUP1 DUP4 SUB DUP2 PUSH1 0x0 DUP8 GAS CALL ISZERO DUP1 ISZERO PUSH2 0x1FB6 JUMPI RETURNDATASIZE PUSH1 0x0 DUP1 RETURNDATACOPY RETURNDATASIZE PUSH1 0x0 REVERT JUMPDEST POP POP POP POP PUSH1 0x40 MLOAD RETURNDATASIZE PUSH1 0x1F NOT PUSH1 0x1F DUP3 ADD AND DUP3 ADD DUP1 PUSH1 0x40 MSTORE POP DUP2 ADD SWAP1 PUSH2 0x1FDA SWAP2 SWAP1 PUSH2 0x4A0A JUMP JUMPDEST PUSH2 0x2019 JUMPI PUSH1 0x40 MLOAD PUSH32 0x8C379A000000000000000000000000000000000000000000000000000000000 DUP2 MSTORE PUSH1 0x4 ADD PUSH2 0x2010 SWAP1 PUSH2 0x4CC6 JUMP JUMPDEST PUSH1 0x40 MLOAD DUP1 SWAP2 SUB SWAP1 REVERT JUMPDEST PUSH1 0x1 PUSH1 0x0 SWAP1 SLOAD SWAP1 PUSH2 0x100 EXP SWAP1 DIV PUSH20 0xFFFFFFFFFFFFFFFFFFFFFFFFFFFFFFFFFFFFFFFF AND PUSH20 0xFFFFFFFFFFFFFFFFFFFFFFFFFFFFFFFFFFFFFFFF AND PUSH4 0x42966C68 DUP3 PUSH1 0x40 MLOAD DUP3 PUSH4 0xFFFFFFFF AND PUSH1 0xE0 SHL DUP2 MSTORE PUSH1 0x4 ADD PUSH2 0x2074 SWAP2 SWAP1 PUSH2 0x3E9F JUMP JUMPDEST PUSH1 0x20 PUSH1 0x40 MLOAD DUP1 DUP4 SUB DUP2 PUSH1 0x0 DUP8 GAS CALL ISZERO DUP1 ISZERO PUSH2 0x2093 JUMPI RETURNDATASIZE PUSH1 0x0 DUP1 RETURNDATACOPY RETURNDATASIZE PUSH1 0x0 REVERT JUMPDEST POP POP POP POP PUSH1 0x40 MLOAD RETURNDATASIZE PUSH1 0x1F NOT PUSH1 0x1F DUP3 ADD AND DUP3 ADD DUP1 PUSH1 0x40 MSTORE POP DUP2 ADD SWAP1 PUSH2 0x20B7 SWAP2 SWAP1 PUSH2 0x4A0A JUMP JUMPDEST PUSH2 0x20F6 JUMPI PUSH1 0x40 MLOAD PUSH32 0x8C379A000000000000000000000000000000000000000000000000000000000 DUP2 MSTORE PUSH1 0x4 ADD PUSH2 0x20ED SWAP1 PUSH2 0x4D32 JUMP JUMPDEST PUSH1 0x40 MLOAD DUP1 SWAP2 SUB SWAP1 REVERT JUMPDEST PUSH1 0x0 DUP1 SLOAD SWAP1 PUSH2 0x100 EXP SWAP1 DIV PUSH20 0xFFFFFFFFFFFFFFFFFFFFFFFFFFFFFFFFFFFFFFFF AND PUSH20 0xFFFFFFFFFFFFFFFFFFFFFFFFFFFFFFFFFFFFFFFF AND PUSH4 0x3E5F2857 DUP14 DUP14 DUP14 DUP9 PUSH1 0x1 PUSH1 0x40 MLOAD DUP7 PUSH4 0xFFFFFFFF AND PUSH1 0xE0 SHL DUP2 MSTORE PUSH1 0x4 ADD PUSH2 0x2158 SWAP6 SWAP5 SWAP4 SWAP3 SWAP2 SWAP1 PUSH2 0x4D52 JUMP JUMPDEST PUSH1 0x0 PUSH1 0x40 MLOAD DUP1 DUP4 SUB DUP2 PUSH1 0x0 DUP8 DUP1 EXTCODESIZE ISZERO DUP1 ISZERO PUSH2 0x2172 JUMPI PUSH1 0x0 DUP1 REVERT JUMPDEST POP GAS CALL ISZERO DUP1 ISZERO PUSH2 0x2186 JUMPI RETURNDATASIZE PUSH1 0x0 DUP1 RETURNDATACOPY RETURNDATASIZE PUSH1 0x0 REVERT JUMPDEST POP POP POP POP PUSH1 0x4 PUSH1 0x0 DUP12 PUSH1 0xFF AND PUSH1 0xFF AND DUP2 MSTORE PUSH1 0x20 ADD SWAP1 DUP2 MSTORE PUSH1 0x20 ADD PUSH1 0x0 KECCAK256 PUSH1 0x1 PUSH1 0x4 PUSH1 0x0 DUP14 PUSH1 0xFF AND PUSH1 0xFF AND DUP2 MSTORE PUSH1 0x20 ADD SWAP1 DUP2 MSTORE PUSH1 0x20 ADD PUSH1 0x0 KECCAK256 DUP1 SLOAD SWAP1 POP PUSH2 0x21CC SWAP2 SWAP1 PUSH2 0x43F3 JUMP JUMPDEST DUP2 SLOAD DUP2 LT PUSH2 0x21DD JUMPI PUSH2 0x21DC PUSH2 0x4427 JUMP JUMPDEST JUMPDEST SWAP1 PUSH1 0x0 MSTORE PUSH1 0x20 PUSH1 0x0 KECCAK256 SWAP1 PUSH1 0x3 MUL ADD PUSH1 0x4 PUSH1 0x0 DUP13 PUSH1 0xFF AND PUSH1 0xFF AND DUP2 MSTORE PUSH1 0x20 ADD SWAP1 DUP2 MSTORE PUSH1 0x20 ADD PUSH1 0x0 KECCAK256 DUP11 DUP2 SLOAD DUP2 LT PUSH2 0x2216 JUMPI PUSH2 0x2215 PUSH2 0x4427 JUMP JUMPDEST JUMPDEST SWAP1 PUSH1 0x0 MSTORE PUSH1 0x20 PUSH1 0x0 KECCAK256 SWAP1 PUSH1 0x3 MUL ADD PUSH1 0x0 DUP3 ADD PUSH1 0x0 SWAP1 SLOAD SWAP1 PUSH2 0x100 EXP SWAP1 DIV PUSH20 0xFFFFFFFFFFFFFFFFFFFFFFFFFFFFFFFFFFFFFFFF AND DUP2 PUSH1 0x0 ADD PUSH1 0x0 PUSH2 0x100 EXP DUP2 SLOAD DUP2 PUSH20 0xFFFFFFFFFFFFFFFFFFFFFFFFFFFFFFFFFFFFFFFF MUL NOT AND SWAP1 DUP4 PUSH20 0xFFFFFFFFFFFFFFFFFFFFFFFFFFFFFFFFFFFFFFFF AND MUL OR SWAP1 SSTORE POP PUSH1 0x0 DUP3 ADD PUSH1 0x14 SWAP1 SLOAD SWAP1 PUSH2 0x100 EXP SWAP1 DIV PUSH1 0xFF AND DUP2 PUSH1 0x0 ADD PUSH1 0x14 PUSH2 0x100 EXP DUP2 SLOAD DUP2 PUSH1 0xFF MUL NOT AND SWAP1 DUP4 PUSH1 0xFF AND MUL OR SWAP1 SSTORE POP PUSH1 0x1 DUP3 ADD SLOAD DUP2 PUSH1 0x1 ADD SSTORE PUSH1 0x2 DUP3 ADD SLOAD DUP2 PUSH1 0x2 ADD SSTORE SWAP1 POP POP PUSH1 0x4 PUSH1 0x0 DUP12 PUSH1 0xFF AND PUSH1 0xFF AND DUP2 MSTORE PUSH1 0x20 ADD SWAP1 DUP2 MSTORE PUSH1 0x20 ADD PUSH1 0x0 KECCAK256 DUP1 SLOAD DUP1 PUSH2 0x22F9 JUMPI PUSH2 0x22F8 PUSH2 0x4DA5 JUMP JUMPDEST JUMPDEST PUSH1 0x1 SWAP1 SUB DUP2 DUP2 SWAP1 PUSH1 0x0 MSTORE PUSH1 0x20 PUSH1 0x0 KECCAK256 SWAP1 PUSH1 0x3 MUL ADD PUSH1 0x0 DUP1 DUP3 ADD PUSH1 0x0 PUSH2 0x100 EXP DUP2 SLOAD SWAP1 PUSH20 0xFFFFFFFFFFFFFFFFFFFFFFFFFFFFFFFFFFFFFFFF MUL NOT AND SWAP1 SSTORE PUSH1 0x0 DUP3 ADD PUSH1 0x14 PUSH2 0x100 EXP DUP2 SLOAD SWAP1 PUSH1 0xFF MUL NOT AND SWAP1 SSTORE PUSH1 0x1 DUP3 ADD PUSH1 0x0 SWAP1 SSTORE PUSH1 0x2 DUP3 ADD PUSH1 0x0 SWAP1 SSTORE POP POP SWAP1 SSTORE DUP10 PUSH1 0xFF AND DUP4 PUSH20 0xFFFFFFFFFFFFFFFFFFFFFFFFFFFFFFFFFFFFFFFF AND CALLER PUSH20 0xFFFFFFFFFFFFFFFFFFFFFFFFFFFFFFFFFFFFFFFF AND PUSH32 0xCB8E9DCE1A8C67703D11D2B78043345960BAB3C035AA061005630270B28C89EC DUP8 DUP10 PUSH1 0x40 MLOAD PUSH2 0x23C0 SWAP3 SWAP2 SWAP1 PUSH2 0x4DD4 JUMP JUMPDEST PUSH1 0x40 MLOAD DUP1 SWAP2 SUB SWAP1 LOG4 POP POP POP POP POP POP POP POP POP POP POP POP JUMP JUMPDEST PUSH1 0x0 DUP1 SLOAD SWAP1 PUSH2 0x100 EXP SWAP1 DIV PUSH20 0xFFFFFFFFFFFFFFFFFFFFFFFFFFFFFFFFFFFFFFFF AND DUP2 JUMP JUMPDEST PUSH1 0x3 PUSH1 0x0 SWAP1 SLOAD SWAP1 PUSH2 0x100 EXP SWAP1 DIV PUSH20 0xFFFFFFFFFFFFFFFFFFFFFFFFFFFFFFFFFFFFFFFF AND DUP2 JUMP JUMPDEST DUP5 DUP5 CALLER PUSH20 0xFFFFFFFFFFFFFFFFFFFFFFFFFFFFFFFFFFFFFFFF AND PUSH1 0x2 PUSH1 0x0 SWAP1 SLOAD SWAP1 PUSH2 0x100 EXP SWAP1 DIV PUSH20 0xFFFFFFFFFFFFFFFFFFFFFFFFFFFFFFFFFFFFFFFF AND PUSH20 0xFFFFFFFFFFFFFFFFFFFFFFFFFFFFFFFFFFFFFFFF AND PUSH4 0x8A888953 DUP5 DUP5 PUSH1 0x40 MLOAD DUP4 PUSH4 0xFFFFFFFF AND PUSH1 0xE0 SHL DUP2 MSTORE PUSH1 0x4 ADD PUSH2 0x2496 SWAP3 SWAP2 SWAP1 PUSH2 0x4573 JUMP JUMPDEST PUSH1 0x20 PUSH1 0x40 MLOAD DUP1 DUP4 SUB DUP2 DUP7 GAS STATICCALL ISZERO DUP1 ISZERO PUSH2 0x24B3 JUMPI RETURNDATASIZE PUSH1 0x0 DUP1 RETURNDATACOPY RETURNDATASIZE PUSH1 0x0 REVERT JUMPDEST POP POP POP POP PUSH1 0x40 MLOAD RETURNDATASIZE PUSH1 0x1F NOT PUSH1 0x1F DUP3 ADD AND DUP3 ADD DUP1 PUSH1 0x40 MSTORE POP DUP2 ADD SWAP1 PUSH2 0x24D7 SWAP2 SWAP1 PUSH2 0x45B1 JUMP JUMPDEST PUSH20 0xFFFFFFFFFFFFFFFFFFFFFFFFFFFFFFFFFFFFFFFF AND EQ PUSH2 0x252D JUMPI PUSH1 0x40 MLOAD PUSH32 0x8C379A000000000000000000000000000000000000000000000000000000000 DUP2 MSTORE PUSH1 0x4 ADD PUSH2 0x2524 SWAP1 PUSH2 0x462A JUMP JUMPDEST PUSH1 0x40 MLOAD DUP1 SWAP2 SUB SWAP1 REVERT JUMPDEST PUSH1 0x0 DUP1 SLOAD SWAP1 PUSH2 0x100 EXP SWAP1 DIV PUSH20 0xFFFFFFFFFFFFFFFFFFFFFFFFFFFFFFFFFFFFFFFF AND PUSH20 0xFFFFFFFFFFFFFFFFFFFFFFFFFFFFFFFFFFFFFFFF AND PUSH4 0x5E75968E CALLER PUSH1 0x40 MLOAD DUP3 PUSH4 0xFFFFFFFF AND PUSH1 0xE0 SHL DUP2 MSTORE PUSH1 0x4 ADD PUSH2 0x2586 SWAP2 SWAP1 PUSH2 0x49C3 JUMP JUMPDEST PUSH1 0x20 PUSH1 0x40 MLOAD DUP1 DUP4 SUB DUP2 DUP7 GAS STATICCALL ISZERO DUP1 ISZERO PUSH2 0x25A3 JUMPI RETURNDATASIZE PUSH1 0x0 DUP1 RETURNDATACOPY RETURNDATASIZE PUSH1 0x0 REVERT JUMPDEST POP POP POP POP PUSH1 0x40 MLOAD RETURNDATASIZE PUSH1 0x1F NOT PUSH1 0x1F DUP3 ADD AND DUP3 ADD DUP1 PUSH1 0x40 MSTORE POP DUP2 ADD SWAP1 PUSH2 0x25C7 SWAP2 SWAP1 PUSH2 0x4A0A JUMP JUMPDEST PUSH2 0x2606 JUMPI PUSH1 0x40 MLOAD PUSH32 0x8C379A000000000000000000000000000000000000000000000000000000000 DUP2 MSTORE PUSH1 0x4 ADD PUSH2 0x25FD SWAP1 PUSH2 0x4A83 JUMP JUMPDEST PUSH1 0x40 MLOAD DUP1 SWAP2 SUB SWAP1 REVERT JUMPDEST PUSH3 0x989680 DUP4 GT PUSH2 0x264B JUMPI PUSH1 0x40 MLOAD PUSH32 0x8C379A000000000000000000000000000000000000000000000000000000000 DUP2 MSTORE PUSH1 0x4 ADD PUSH2 0x2642 SWAP1 PUSH2 0x4E49 JUMP JUMPDEST PUSH1 0x40 MLOAD DUP1 SWAP2 SUB SWAP1 REVERT JUMPDEST PUSH1 0x1 DUP6 PUSH1 0xFF AND LT ISZERO DUP1 ISZERO PUSH2 0x2663 JUMPI POP PUSH1 0x8 DUP6 PUSH1 0xFF AND GT ISZERO JUMPDEST PUSH2 0x26A2 JUMPI PUSH1 0x40 MLOAD PUSH32 0x8C379A000000000000000000000000000000000000000000000000000000000 DUP2 MSTORE PUSH1 0x4 ADD PUSH2 0x2699 SWAP1 PUSH2 0x4553 JUMP JUMPDEST PUSH1 0x40 MLOAD DUP1 SWAP2 SUB SWAP1 REVERT JUMPDEST PUSH1 0x4 DUP6 PUSH1 0xFF AND GT PUSH2 0x2707 JUMPI PUSH2 0x2710 DUP5 LT ISZERO DUP1 ISZERO PUSH2 0x26C3 JUMPI POP PUSH4 0x5F5E100 DUP5 GT ISZERO JUMPDEST PUSH2 0x2702 JUMPI PUSH1 0x40 MLOAD PUSH32 0x8C379A000000000000000000000000000000000000000000000000000000000 DUP2 MSTORE PUSH1 0x4 ADD PUSH2 0x26F9 SWAP1 PUSH2 0x4EB5 JUMP JUMPDEST PUSH1 0x40 MLOAD DUP1 SWAP2 SUB SWAP1 REVERT JUMPDEST PUSH2 0x275A JUMP JUMPDEST PUSH1 0x64 DUP5 LT ISZERO DUP1 ISZERO PUSH2 0x271A JUMPI POP PUSH2 0x2710 DUP5 GT ISZERO JUMPDEST PUSH2 0x2759 JUMPI PUSH1 0x40 MLOAD PUSH32 0x8C379A000000000000000000000000000000000000000000000000000000000 DUP2 MSTORE PUSH1 0x4 ADD PUSH2 0x2750 SWAP1 PUSH2 0x4F47 JUMP JUMPDEST PUSH1 0x40 MLOAD DUP1 SWAP2 SUB SWAP1 REVERT JUMPDEST JUMPDEST PUSH1 0x0 DUP1 SLOAD SWAP1 PUSH2 0x100 EXP SWAP1 DIV PUSH20 0xFFFFFFFFFFFFFFFFFFFFFFFFFFFFFFFFFFFFFFFF AND PUSH20 0xFFFFFFFFFFFFFFFFFFFFFFFFFFFFFFFFFFFFFFFF AND PUSH4 0x3E5F2857 DUP9 DUP9 DUP9 DUP9 PUSH1 0x0 PUSH1 0x40 MLOAD DUP7 PUSH4 0xFFFFFFFF AND PUSH1 0xE0 SHL DUP2 MSTORE PUSH1 0x4 ADD PUSH2 0x27BC SWAP6 SWAP5 SWAP4 SWAP3 SWAP2 SWAP1 PUSH2 0x4D52 JUMP JUMPDEST PUSH1 0x0 PUSH1 0x40 MLOAD DUP1 DUP4 SUB DUP2 PUSH1 0x0 DUP8 DUP1 EXTCODESIZE ISZERO DUP1 ISZERO PUSH2 0x27D6 JUMPI PUSH1 0x0 DUP1 REVERT JUMPDEST POP GAS CALL ISZERO DUP1 ISZERO PUSH2 0x27EA JUMPI RETURNDATASIZE PUSH1 0x0 DUP1 RETURNDATACOPY RETURNDATASIZE PUSH1 0x0 REVERT JUMPDEST POP POP POP POP PUSH1 0x0 PUSH1 0xA DUP5 PUSH2 0x27FD SWAP2 SWAP1 PUSH2 0x4B80 JUMP JUMPDEST DUP5 PUSH2 0x2808 SWAP2 SWAP1 PUSH2 0x4F67 JUMP JUMPDEST SWAP1 POP PUSH1 0x4 PUSH1 0x0 DUP8 PUSH1 0xFF AND PUSH1 0xFF AND DUP2 MSTORE PUSH1 0x20 ADD SWAP1 DUP2 MSTORE PUSH1 0x20 ADD PUSH1 0x0 KECCAK256 PUSH1 0x40 MLOAD DUP1 PUSH1 0x80 ADD PUSH1 0x40 MSTORE DUP1 CALLER PUSH20 0xFFFFFFFFFFFFFFFFFFFFFFFFFFFFFFFFFFFFFFFF AND DUP2 MSTORE PUSH1 0x20 ADD DUP9 PUSH1 0xFF AND DUP2 MSTORE PUSH1 0x20 ADD DUP8 DUP2 MSTORE PUSH1 0x20 ADD DUP4 DUP2 MSTORE POP SWAP1 DUP1 PUSH1 0x1 DUP2 SLOAD ADD DUP1 DUP3 SSTORE DUP1 SWAP2 POP POP PUSH1 0x1 SWAP1 SUB SWAP1 PUSH1 0x0 MSTORE PUSH1 0x20 PUSH1 0x0 KECCAK256 SWAP1 PUSH1 0x3 MUL ADD PUSH1 0x0 SWAP1 SWAP2 SWAP1 SWAP2 SWAP1 SWAP2 POP PUSH1 0x0 DUP3 ADD MLOAD DUP2 PUSH1 0x0 ADD PUSH1 0x0 PUSH2 0x100 EXP DUP2 SLOAD DUP2 PUSH20 0xFFFFFFFFFFFFFFFFFFFFFFFFFFFFFFFFFFFFFFFF MUL NOT AND SWAP1 DUP4 PUSH20 0xFFFFFFFFFFFFFFFFFFFFFFFFFFFFFFFFFFFFFFFF AND MUL OR SWAP1 SSTORE POP PUSH1 0x20 DUP3 ADD MLOAD DUP2 PUSH1 0x0 ADD PUSH1 0x14 PUSH2 0x100 EXP DUP2 SLOAD DUP2 PUSH1 0xFF MUL NOT AND SWAP1 DUP4 PUSH1 0xFF AND MUL OR SWAP1 SSTORE POP PUSH1 0x40 DUP3 ADD MLOAD DUP2 PUSH1 0x1 ADD SSTORE PUSH1 0x60 DUP3 ADD MLOAD DUP2 PUSH1 0x2 ADD SSTORE POP POP DUP6 PUSH1 0xFF AND CALLER PUSH20 0xFFFFFFFFFFFFFFFFFFFFFFFFFFFFFFFFFFFFFFFF AND PUSH32 0x9D2FA11E70F4C72F4275D772A6E09BBD83B3800A6B4F2351A7AC06DF8DB5169E DUP8 DUP8 PUSH1 0x40 MLOAD PUSH2 0x2950 SWAP3 SWAP2 SWAP1 PUSH2 0x4DD4 JUMP JUMPDEST PUSH1 0x40 MLOAD DUP1 SWAP2 SUB SWAP1 LOG3 POP POP POP POP POP POP POP POP JUMP JUMPDEST DUP2 PUSH20 0xFFFFFFFFFFFFFFFFFFFFFFFFFFFFFFFFFFFFFFFF AND DUP2 PUSH20 0xFFFFFFFFFFFFFFFFFFFFFFFFFFFFFFFFFFFFFFFF AND SUB PUSH2 0x29D0 JUMPI PUSH1 0x40 MLOAD PUSH32 0x8C379A000000000000000000000000000000000000000000000000000000000 DUP2 MSTORE PUSH1 0x4 ADD PUSH2 0x29C7 SWAP1 PUSH2 0x4FE7 JUMP JUMPDEST PUSH1 0x40 MLOAD DUP1 SWAP2 SUB SWAP1 REVERT JUMPDEST PUSH1 0x0 PUSH1 0x3 PUSH1 0x0 SWAP1 SLOAD SWAP1 PUSH2 0x100 EXP SWAP1 DIV PUSH20 0xFFFFFFFFFFFFFFFFFFFFFFFFFFFFFFFFFFFFFFFF AND PUSH20 0xFFFFFFFFFFFFFFFFFFFFFFFFFFFFFFFFFFFFFFFF AND PUSH4 0x7AB9E7FE DUP9 DUP9 PUSH1 0x40 MLOAD DUP4 PUSH4 0xFFFFFFFF AND PUSH1 0xE0 SHL DUP2 MSTORE PUSH1 0x4 ADD PUSH2 0x2A2F SWAP3 SWAP2 SWAP1 PUSH2 0x4573 JUMP JUMPDEST PUSH1 0x20 PUSH1 0x40 MLOAD DUP1 DUP4 SUB DUP2 DUP7 GAS STATICCALL ISZERO DUP1 ISZERO PUSH2 0x2A4C JUMPI RETURNDATASIZE PUSH1 0x0 DUP1 RETURNDATACOPY RETURNDATASIZE PUSH1 0x0 REVERT JUMPDEST POP POP POP POP PUSH1 0x40 MLOAD RETURNDATASIZE PUSH1 0x1F NOT PUSH1 0x1F DUP3 ADD AND DUP3 ADD DUP1 PUSH1 0x40 MSTORE POP DUP2 ADD SWAP1 PUSH2 0x2A70 SWAP2 SWAP1 PUSH2 0x5007 JUMP JUMPDEST SWAP1 POP PUSH1 0x0 PUSH1 0x3 PUSH1 0x0 SWAP1 SLOAD SWAP1 PUSH2 0x100 EXP SWAP1 DIV PUSH20 0xFFFFFFFFFFFFFFFFFFFFFFFFFFFFFFFFFFFFFFFF AND PUSH20 0xFFFFFFFFFFFFFFFFFFFFFFFFFFFFFFFFFFFFFFFF AND PUSH4 0x7AB9E7FE DUP8 DUP8 PUSH1 0x40 MLOAD DUP4 PUSH4 0xFFFFFFFF AND PUSH1 0xE0 SHL DUP2 MSTORE PUSH1 0x4 ADD PUSH2 0x2AD1 SWAP3 SWAP2 SWAP1 PUSH2 0x4573 JUMP JUMPDEST PUSH1 0x20 PUSH1 0x40 MLOAD DUP1 DUP4 SUB DUP2 DUP7 GAS STATICCALL ISZERO DUP1 ISZERO PUSH2 0x2AEE JUMPI RETURNDATASIZE PUSH1 0x0 DUP1 RETURNDATACOPY RETURNDATASIZE PUSH1 0x0 REVERT JUMPDEST POP POP POP POP PUSH1 0x40 MLOAD RETURNDATASIZE PUSH1 0x1F NOT PUSH1 0x1F DUP3 ADD AND DUP3 ADD DUP1 PUSH1 0x40 MSTORE POP DUP2 ADD SWAP1 PUSH2 0x2B12 SWAP2 SWAP1 PUSH2 0x5007 JUMP JUMPDEST SWAP1 POP PUSH1 0x0 DUP3 PUSH1 0xFF AND EQ DUP1 PUSH2 0x2B29 JUMPI POP PUSH1 0x0 DUP2 PUSH1 0xFF AND EQ JUMPDEST DUP1 PUSH2 0x2B3A JUMPI POP DUP1 PUSH1 0xFF AND DUP3 PUSH1 0xFF AND EQ ISZERO JUMPDEST PUSH2 0x2B79 JUMPI PUSH1 0x40 MLOAD PUSH32 0x8C379A000000000000000000000000000000000000000000000000000000000 DUP2 MSTORE PUSH1 0x4 ADD PUSH2 0x2B70 SWAP1 PUSH2 0x50A6 JUMP JUMPDEST PUSH1 0x40 MLOAD DUP1 SWAP2 SUB SWAP1 REVERT JUMPDEST PUSH1 0x0 PUSH2 0x2B85 DUP9 DUP8 PUSH2 0x2E32 JUMP JUMPDEST PUSH2 0x2B8F DUP11 DUP10 PUSH2 0x2E32 JUMP JUMPDEST PUSH2 0x2B99 SWAP2 SWAP1 PUSH2 0x490E JUMP JUMPDEST SWAP1 POP PUSH1 0x0 DUP2 PUSH1 0xFF AND GT DUP1 ISZERO PUSH2 0x2BB2 JUMPI POP PUSH1 0x26 DUP2 PUSH1 0xFF AND GT ISZERO JUMPDEST PUSH2 0x2BF1 JUMPI PUSH1 0x40 MLOAD PUSH32 0x8C379A000000000000000000000000000000000000000000000000000000000 DUP2 MSTORE PUSH1 0x4 ADD PUSH2 0x2BE8 SWAP1 PUSH2 0x5112 JUMP JUMPDEST PUSH1 0x40 MLOAD DUP1 SWAP2 SUB SWAP1 REVERT JUMPDEST PUSH2 0x12C PUSH1 0x5 PUSH1 0x0 DUP12 PUSH1 0xFF AND PUSH1 0xFF AND DUP2 MSTORE PUSH1 0x20 ADD SWAP1 DUP2 MSTORE PUSH1 0x20 ADD PUSH1 0x0 KECCAK256 PUSH1 0x0 DUP11 PUSH1 0xFF AND PUSH1 0xFF AND DUP2 MSTORE PUSH1 0x20 ADD SWAP1 DUP2 MSTORE PUSH1 0x20 ADD PUSH1 0x0 KECCAK256 SLOAD PUSH2 0x2C2F SWAP2 SWAP1 PUSH2 0x4F67 JUMP JUMPDEST PUSH1 0x0 DUP1 SLOAD SWAP1 PUSH2 0x100 EXP SWAP1 DIV PUSH20 0xFFFFFFFFFFFFFFFFFFFFFFFFFFFFFFFFFFFFFFFF AND PUSH20 0xFFFFFFFFFFFFFFFFFFFFFFFFFFFFFFFFFFFFFFFF AND PUSH4 0x41EDE44F DUP12 DUP12 PUSH1 0x40 MLOAD DUP4 PUSH4 0xFFFFFFFF AND PUSH1 0xE0 SHL DUP2 MSTORE PUSH1 0x4 ADD PUSH2 0x2C8A SWAP3 SWAP2 SWAP1 PUSH2 0x4573 JUMP JUMPDEST PUSH1 0x20 PUSH1 0x40 MLOAD DUP1 DUP4 SUB DUP2 DUP7 GAS STATICCALL ISZERO DUP1 ISZERO PUSH2 0x2CA7 JUMPI RETURNDATASIZE PUSH1 0x0 DUP1 RETURNDATACOPY RETURNDATASIZE PUSH1 0x0 REVERT JUMPDEST POP POP POP POP PUSH1 0x40 MLOAD RETURNDATASIZE PUSH1 0x1F NOT PUSH1 0x1F DUP3 ADD AND DUP3 ADD DUP1 PUSH1 0x40 MSTORE POP DUP2 ADD SWAP1 PUSH2 0x2CCB SWAP2 SWAP1 PUSH2 0x4943 JUMP JUMPDEST LT ISZERO PUSH2 0x2D0C JUMPI PUSH1 0x40 MLOAD PUSH32 0x8C379A000000000000000000000000000000000000000000000000000000000 DUP2 MSTORE PUSH1 0x4 ADD PUSH2 0x2D03 SWAP1 PUSH2 0x51A4 JUMP JUMPDEST PUSH1 0x40 MLOAD DUP1 SWAP2 SUB SWAP1 REVERT JUMPDEST PUSH2 0x12C PUSH1 0x6 PUSH1 0x0 DUP10 PUSH1 0xFF AND PUSH1 0xFF AND DUP2 MSTORE PUSH1 0x20 ADD SWAP1 DUP2 MSTORE PUSH1 0x20 ADD PUSH1 0x0 KECCAK256 PUSH1 0x0 DUP9 PUSH1 0xFF AND PUSH1 0xFF AND DUP2 MSTORE PUSH1 0x20 ADD SWAP1 DUP2 MSTORE PUSH1 0x20 ADD PUSH1 0x0 KECCAK256 SLOAD PUSH2 0x2D4A SWAP2 SWAP1 PUSH2 0x4F67 JUMP JUMPDEST PUSH1 0x0 DUP1 SLOAD SWAP1 PUSH2 0x100 EXP SWAP1 DIV PUSH20 0xFFFFFFFFFFFFFFFFFFFFFFFFFFFFFFFFFFFFFFFF AND PUSH20 0xFFFFFFFFFFFFFFFFFFFFFFFFFFFFFFFFFFFFFFFF AND PUSH4 0x41EDE44F DUP10 DUP10 PUSH1 0x40 MLOAD DUP4 PUSH4 0xFFFFFFFF AND PUSH1 0xE0 SHL DUP2 MSTORE PUSH1 0x4 ADD PUSH2 0x2DA5 SWAP3 SWAP2 SWAP1 PUSH2 0x4573 JUMP JUMPDEST PUSH1 0x20 PUSH1 0x40 MLOAD DUP1 DUP4 SUB DUP2 DUP7 GAS STATICCALL ISZERO DUP1 ISZERO PUSH2 0x2DC2 JUMPI RETURNDATASIZE PUSH1 0x0 DUP1 RETURNDATACOPY RETURNDATASIZE PUSH1 0x0 REVERT JUMPDEST POP POP POP POP PUSH1 0x40 MLOAD RETURNDATASIZE PUSH1 0x1F NOT PUSH1 0x1F DUP3 ADD AND DUP3 ADD DUP1 PUSH1 0x40 MSTORE POP DUP2 ADD SWAP1 PUSH2 0x2DE6 SWAP2 SWAP1 PUSH2 0x4943 JUMP JUMPDEST LT ISZERO PUSH2 0x2E27 JUMPI PUSH1 0x40 MLOAD PUSH32 0x8C379A000000000000000000000000000000000000000000000000000000000 DUP2 MSTORE PUSH1 0x4 ADD PUSH2 0x2E1E SWAP1 PUSH2 0x5236 JUMP JUMPDEST PUSH1 0x40 MLOAD DUP1 SWAP2 SUB SWAP1 REVERT JUMPDEST POP POP POP POP POP POP POP POP POP JUMP JUMPDEST PUSH1 0x0 DUP2 PUSH1 0xFF AND DUP4 PUSH1 0xFF AND GT PUSH2 0x2E52 JUMPI DUP3 DUP3 PUSH2 0x2E4D SWAP2 SWAP1 PUSH2 0x5256 JUMP JUMPDEST PUSH2 0x2E5F JUMP JUMPDEST DUP2 DUP4 PUSH2 0x2E5E SWAP2 SWAP1 PUSH2 0x5256 JUMP JUMPDEST JUMPDEST SWAP1 POP SWAP3 SWAP2 POP POP JUMP JUMPDEST PUSH1 0x0 DUP2 PUSH2 0x160 ADD MLOAD DUP3 PUSH2 0x140 ADD MLOAD PUSH2 0x2E7F SWAP2 SWAP1 PUSH2 0x4F67 JUMP JUMPDEST DUP4 PUSH1 0xFF AND PUSH1 0xA PUSH2 0x2E8F SWAP2 SWAP1 PUSH2 0x4B0F JUMP JUMPDEST PUSH2 0x2E99 SWAP2 SWAP1 PUSH2 0x4B0F JUMP JUMPDEST SWAP1 POP PUSH1 0x0 DUP1 SLOAD SWAP1 PUSH2 0x100 EXP SWAP1 DIV PUSH20 0xFFFFFFFFFFFFFFFFFFFFFFFFFFFFFFFFFFFFFFFF AND PUSH20 0xFFFFFFFFFFFFFFFFFFFFFFFFFFFFFFFFFFFFFFFF AND PUSH4 0x3E5F2857 DUP7 DUP7 PUSH1 0x1 PUSH1 0x64 PUSH1 0x28 DUP8 PUSH2 0x2EEA SWAP2 SWAP1 PUSH2 0x4B0F JUMP JUMPDEST PUSH2 0x2EF4 SWAP2 SWAP1 PUSH2 0x4B80 JUMP JUMPDEST PUSH1 0x0 PUSH1 0x40 MLOAD DUP7 PUSH4 0xFFFFFFFF AND PUSH1 0xE0 SHL DUP2 MSTORE PUSH1 0x4 ADD PUSH2 0x2F16 SWAP6 SWAP5 SWAP4 SWAP3 SWAP2 SWAP1 PUSH2 0x52C6 JUMP JUMPDEST PUSH1 0x0 PUSH1 0x40 MLOAD DUP1 DUP4 SUB DUP2 PUSH1 0x0 DUP8 DUP1 EXTCODESIZE ISZERO DUP1 ISZERO PUSH2 0x2F30 JUMPI PUSH1 0x0 DUP1 REVERT JUMPDEST POP GAS CALL ISZERO DUP1 ISZERO PUSH2 0x2F44 JUMPI RETURNDATASIZE PUSH1 0x0 DUP1 RETURNDATACOPY RETURNDATASIZE PUSH1 0x0 REVERT JUMPDEST POP POP POP POP PUSH1 0x0 DUP1 SLOAD SWAP1 PUSH2 0x100 EXP SWAP1 DIV PUSH20 0xFFFFFFFFFFFFFFFFFFFFFFFFFFFFFFFFFFFFFFFF AND PUSH20 0xFFFFFFFFFFFFFFFFFFFFFFFFFFFFFFFFFFFFFFFF AND PUSH4 0x3E5F2857 DUP7 DUP7 PUSH1 0x2 PUSH1 0x64 PUSH1 0x1E DUP8 PUSH2 0x2F97 SWAP2 SWAP1 PUSH2 0x4B0F JUMP JUMPDEST PUSH2 0x2FA1 SWAP2 SWAP1 PUSH2 0x4B80 JUMP JUMPDEST PUSH1 0x0 PUSH1 0x40 MLOAD DUP7 PUSH4 0xFFFFFFFF AND PUSH1 0xE0 SHL DUP2 MSTORE PUSH1 0x4 ADD PUSH2 0x2FC3 SWAP6 SWAP5 SWAP4 SWAP3 SWAP2 SWAP1 PUSH2 0x5354 JUMP JUMPDEST PUSH1 0x0 PUSH1 0x40 MLOAD DUP1 DUP4 SUB DUP2 PUSH1 0x0 DUP8 DUP1 EXTCODESIZE ISZERO DUP1 ISZERO PUSH2 0x2FDD JUMPI PUSH1 0x0 DUP1 REVERT JUMPDEST POP GAS CALL ISZERO DUP1 ISZERO PUSH2 0x2FF1 JUMPI RETURNDATASIZE PUSH1 0x0 DUP1 RETURNDATACOPY RETURNDATASIZE PUSH1 0x0 REVERT JUMPDEST POP POP POP POP PUSH1 0x0 DUP1 SLOAD SWAP1 PUSH2 0x100 EXP SWAP1 DIV PUSH20 0xFFFFFFFFFFFFFFFFFFFFFFFFFFFFFFFFFFFFFFFF AND PUSH20 0xFFFFFFFFFFFFFFFFFFFFFFFFFFFFFFFFFFFFFFFF AND PUSH4 0x3E5F2857 DUP7 DUP7 PUSH1 0x3 PUSH1 0x64 PUSH1 0x14 DUP8 PUSH2 0x3044 SWAP2 SWAP1 PUSH2 0x4B0F JUMP JUMPDEST PUSH2 0x304E SWAP2 SWAP1 PUSH2 0x4B80 JUMP JUMPDEST PUSH1 0x0 PUSH1 0x40 MLOAD DUP7 PUSH4 0xFFFFFFFF AND PUSH1 0xE0 SHL DUP2 MSTORE PUSH1 0x4 ADD PUSH2 0x3070 SWAP6 SWAP5 SWAP4 SWAP3 SWAP2 SWAP1 PUSH2 0x53E2 JUMP JUMPDEST PUSH1 0x0 PUSH1 0x40 MLOAD DUP1 DUP4 SUB DUP2 PUSH1 0x0 DUP8 DUP1 EXTCODESIZE ISZERO DUP1 ISZERO PUSH2 0x308A JUMPI PUSH1 0x0 DUP1 REVERT JUMPDEST POP GAS CALL ISZERO DUP1 ISZERO PUSH2 0x309E JUMPI RETURNDATASIZE PUSH1 0x0 DUP1 RETURNDATACOPY RETURNDATASIZE PUSH1 0x0 REVERT JUMPDEST POP POP POP POP PUSH1 0x0 DUP1 SLOAD SWAP1 PUSH2 0x100 EXP SWAP1 DIV PUSH20 0xFFFFFFFFFFFFFFFFFFFFFFFFFFFFFFFFFFFFFFFF AND PUSH20 0xFFFFFFFFFFFFFFFFFFFFFFFFFFFFFFFFFFFFFFFF AND PUSH4 0x3E5F2857 DUP7 DUP7 PUSH1 0x4 PUSH1 0x64 PUSH1 0xA DUP8 PUSH2 0x30F1 SWAP2 SWAP1 PUSH2 0x4B0F JUMP JUMPDEST PUSH2 0x30FB SWAP2 SWAP1 PUSH2 0x4B80 JUMP JUMPDEST PUSH1 0x0 PUSH1 0x40 MLOAD DUP7 PUSH4 0xFFFFFFFF AND PUSH1 0xE0 SHL DUP2 MSTORE PUSH1 0x4 ADD PUSH2 0x311D SWAP6 SWAP5 SWAP4 SWAP3 SWAP2 SWAP1 PUSH2 0x5470 JUMP JUMPDEST PUSH1 0x0 PUSH1 0x40 MLOAD DUP1 DUP4 SUB DUP2 PUSH1 0x0 DUP8 DUP1 EXTCODESIZE ISZERO DUP1 ISZERO PUSH2 0x3137 JUMPI PUSH1 0x0 DUP1 REVERT JUMPDEST POP GAS CALL ISZERO DUP1 ISZERO PUSH2 0x314B JUMPI RETURNDATASIZE PUSH1 0x0 DUP1 RETURNDATACOPY RETURNDATASIZE PUSH1 0x0 REVERT JUMPDEST POP POP POP POP POP POP POP POP POP JUMP JUMPDEST PUSH1 0x0 DUP1 PUSH1 0x0 PUSH1 0x1 DUP6 PUSH2 0x180 ADD MLOAD PUSH2 0x316D SWAP2 SWAP1 PUSH2 0x490E JUMP JUMPDEST PUSH1 0xFF AND PUSH1 0x1 DUP7 PUSH2 0x160 ADD MLOAD PUSH2 0x3182 SWAP2 SWAP1 PUSH2 0x4B0F JUMP JUMPDEST PUSH1 0x2 DUP8 PUSH2 0x140 ADD MLOAD PUSH2 0x3194 SWAP2 SWAP1 PUSH2 0x4B0F JUMP JUMPDEST PUSH2 0x319E SWAP2 SWAP1 PUSH2 0x4F67 JUMP JUMPDEST PUSH2 0x31A8 SWAP2 SWAP1 PUSH2 0x4F67 JUMP JUMPDEST SWAP1 POP PUSH1 0x0 PUSH1 0x1 DUP6 PUSH2 0x1A0 ADD MLOAD PUSH2 0x31BE SWAP2 SWAP1 PUSH2 0x490E JUMP JUMPDEST PUSH1 0xFF AND PUSH1 0x2 DUP7 PUSH2 0x160 ADD MLOAD PUSH2 0x31D3 SWAP2 SWAP1 PUSH2 0x4B0F JUMP JUMPDEST PUSH1 0x1 DUP8 PUSH2 0x140 ADD MLOAD PUSH2 0x31E5 SWAP2 SWAP1 PUSH2 0x4B0F JUMP JUMPDEST PUSH2 0x31EF SWAP2 SWAP1 PUSH2 0x4F67 JUMP JUMPDEST PUSH2 0x31F9 SWAP2 SWAP1 PUSH2 0x4F67 JUMP JUMPDEST SWAP1 POP DUP2 DUP2 SWAP4 POP SWAP4 POP POP POP SWAP3 POP SWAP3 SWAP1 POP JUMP JUMPDEST PUSH1 0x0 PUSH1 0x2 DUP4 PUSH2 0x140 ADD MLOAD PUSH2 0x321E SWAP2 SWAP1 PUSH2 0x4B80 JUMP JUMPDEST SWAP1 POP PUSH1 0x0 PUSH1 0x2 DUP5 PUSH2 0x160 ADD MLOAD PUSH2 0x3234 SWAP2 SWAP1 PUSH2 0x4B80 JUMP JUMPDEST SWAP1 POP PUSH1 0x0 PUSH1 0x2 DUP5 PUSH2 0x140 ADD MLOAD PUSH2 0x324A SWAP2 SWAP1 PUSH2 0x4B80 JUMP JUMPDEST SWAP1 POP PUSH1 0x0 PUSH1 0x2 DUP6 PUSH2 0x160 ADD MLOAD PUSH2 0x3260 SWAP2 SWAP1 PUSH2 0x4B80 JUMP JUMPDEST SWAP1 POP PUSH1 0x0 DUP5 GT ISZERO PUSH2 0x3301 JUMPI PUSH1 0x0 DUP1 SLOAD SWAP1 PUSH2 0x100 EXP SWAP1 DIV PUSH20 0xFFFFFFFFFFFFFFFFFFFFFFFFFFFFFFFFFFFFFFFF AND PUSH20 0xFFFFFFFFFFFFFFFFFFFFFFFFFFFFFFFFFFFFFFFF AND PUSH4 0x3E5F2857 DUP12 DUP12 PUSH1 0x9 DUP9 PUSH1 0x0 PUSH1 0x40 MLOAD DUP7 PUSH4 0xFFFFFFFF AND PUSH1 0xE0 SHL DUP2 MSTORE PUSH1 0x4 ADD PUSH2 0x32CE SWAP6 SWAP5 SWAP4 SWAP3 SWAP2 SWAP1 PUSH2 0x54FE JUMP JUMPDEST PUSH1 0x0 PUSH1 0x40 MLOAD DUP1 DUP4 SUB DUP2 PUSH1 0x0 DUP8 DUP1 EXTCODESIZE ISZERO DUP1 ISZERO PUSH2 0x32E8 JUMPI PUSH1 0x0 DUP1 REVERT JUMPDEST POP GAS CALL ISZERO DUP1 ISZERO PUSH2 0x32FC JUMPI RETURNDATASIZE PUSH1 0x0 DUP1 RETURNDATACOPY RETURNDATASIZE PUSH1 0x0 REVERT JUMPDEST POP POP POP POP JUMPDEST PUSH1 0x0 DUP4 GT ISZERO PUSH2 0x33A0 JUMPI PUSH1 0x0 DUP1 SLOAD SWAP1 PUSH2 0x100 EXP SWAP1 DIV PUSH20 0xFFFFFFFFFFFFFFFFFFFFFFFFFFFFFFFFFFFFFFFF AND PUSH20 0xFFFFFFFFFFFFFFFFFFFFFFFFFFFFFFFFFFFFFFFF AND PUSH4 0x3E5F2857 DUP12 DUP12 PUSH1 0xA DUP8 PUSH1 0x0 PUSH1 0x40 MLOAD DUP7 PUSH4 0xFFFFFFFF AND PUSH1 0xE0 SHL DUP2 MSTORE PUSH1 0x4 ADD PUSH2 0x336D SWAP6 SWAP5 SWAP4 SWAP3 SWAP2 SWAP1 PUSH2 0x558C JUMP JUMPDEST PUSH1 0x0 PUSH1 0x40 MLOAD DUP1 DUP4 SUB DUP2 PUSH1 0x0 DUP8 DUP1 EXTCODESIZE ISZERO DUP1 ISZERO PUSH2 0x3387 JUMPI PUSH1 0x0 DUP1 REVERT JUMPDEST POP GAS CALL ISZERO DUP1 ISZERO PUSH2 0x339B JUMPI RETURNDATASIZE PUSH1 0x0 DUP1 RETURNDATACOPY RETURNDATASIZE PUSH1 0x0 REVERT JUMPDEST POP POP POP POP JUMPDEST PUSH1 0x0 DUP3 GT ISZERO PUSH2 0x343F JUMPI PUSH1 0x0 DUP1 SLOAD SWAP1 PUSH2 0x100 EXP SWAP1 DIV PUSH20 0xFFFFFFFFFFFFFFFFFFFFFFFFFFFFFFFFFFFFFFFF AND PUSH20 0xFFFFFFFFFFFFFFFFFFFFFFFFFFFFFFFFFFFFFFFF AND PUSH4 0x3E5F2857 DUP10 DUP10 PUSH1 0x9 DUP7 PUSH1 0x0 PUSH1 0x40 MLOAD DUP7 PUSH4 0xFFFFFFFF AND PUSH1 0xE0 SHL DUP2 MSTORE PUSH1 0x4 ADD PUSH2 0x340C SWAP6 SWAP5 SWAP4 SWAP3 SWAP2 SWAP1 PUSH2 0x54FE JUMP JUMPDEST PUSH1 0x0 PUSH1 0x40 MLOAD DUP1 DUP4 SUB DUP2 PUSH1 0x0 DUP8 DUP1 EXTCODESIZE ISZERO DUP1 ISZERO PUSH2 0x3426 JUMPI PUSH1 0x0 DUP1 REVERT JUMPDEST POP GAS CALL ISZERO DUP1 ISZERO PUSH2 0x343A JUMPI RETURNDATASIZE PUSH1 0x0 DUP1 RETURNDATACOPY RETURNDATASIZE PUSH1 0x0 REVERT JUMPDEST POP POP POP POP JUMPDEST PUSH1 0x0 DUP2 GT ISZERO PUSH2 0x34DE JUMPI PUSH1 0x0 DUP1 SLOAD SWAP1 PUSH2 0x100 EXP SWAP1 DIV PUSH20 0xFFFFFFFFFFFFFFFFFFFFFFFFFFFFFFFFFFFFFFFF AND PUSH20 0xFFFFFFFFFFFFFFFFFFFFFFFFFFFFFFFFFFFFFFFF AND PUSH4 0x3E5F2857 DUP10 DUP10 PUSH1 0xA DUP6 PUSH1 0x0 PUSH1 0x40 MLOAD DUP7 PUSH4 0xFFFFFFFF AND PUSH1 0xE0 SHL DUP2 MSTORE PUSH1 0x4 ADD PUSH2 0x34AB SWAP6 SWAP5 SWAP4 SWAP3 SWAP2 SWAP1 PUSH2 0x558C JUMP JUMPDEST PUSH1 0x0 PUSH1 0x40 MLOAD DUP1 DUP4 SUB DUP2 PUSH1 0x0 DUP8 DUP1 EXTCODESIZE ISZERO DUP1 ISZERO PUSH2 0x34C5 JUMPI PUSH1 0x0 DUP1 REVERT JUMPDEST POP GAS CALL ISZERO DUP1 ISZERO PUSH2 0x34D9 JUMPI RETURNDATASIZE PUSH1 0x0 DUP1 RETURNDATACOPY RETURNDATASIZE PUSH1 0x0 REVERT JUMPDEST POP POP POP POP JUMPDEST POP POP POP POP POP POP POP POP POP POP JUMP JUMPDEST PUSH1 0x1 DUP2 PUSH1 0x0 ADD MLOAD GT ISZERO PUSH2 0x3638 JUMPI PUSH1 0x0 PUSH1 0x2 DUP3 PUSH1 0x0 ADD MLOAD PUSH2 0x350A SWAP2 SWAP1 PUSH2 0x4B80 JUMP JUMPDEST SWAP1 POP PUSH1 0x0 DUP1 SLOAD SWAP1 PUSH2 0x100 EXP SWAP1 DIV PUSH20 0xFFFFFFFFFFFFFFFFFFFFFFFFFFFFFFFFFFFFFFFF AND PUSH20 0xFFFFFFFFFFFFFFFFFFFFFFFFFFFFFFFFFFFFFFFF AND PUSH4 0x3E5F2857 DUP6 DUP6 PUSH1 0x1 DUP6 PUSH1 0x0 PUSH1 0x40 MLOAD DUP7 PUSH4 0xFFFFFFFF AND PUSH1 0xE0 SHL DUP2 MSTORE PUSH1 0x4 ADD PUSH2 0x356F SWAP6 SWAP5 SWAP4 SWAP3 SWAP2 SWAP1 PUSH2 0x52C6 JUMP JUMPDEST PUSH1 0x0 PUSH1 0x40 MLOAD DUP1 DUP4 SUB DUP2 PUSH1 0x0 DUP8 DUP1 EXTCODESIZE ISZERO DUP1 ISZERO PUSH2 0x3589 JUMPI PUSH1 0x0 DUP1 REVERT JUMPDEST POP GAS CALL ISZERO DUP1 ISZERO PUSH2 0x359D JUMPI RETURNDATASIZE PUSH1 0x0 DUP1 RETURNDATACOPY RETURNDATASIZE PUSH1 0x0 REVERT JUMPDEST POP POP POP POP PUSH1 0x0 DUP1 SLOAD SWAP1 PUSH2 0x100 EXP SWAP1 DIV PUSH20 0xFFFFFFFFFFFFFFFFFFFFFFFFFFFFFFFFFFFFFFFF AND PUSH20 0xFFFFFFFFFFFFFFFFFFFFFFFFFFFFFFFFFFFFFFFF AND PUSH4 0x3E5F2857 DUP8 DUP8 PUSH1 0x1 DUP6 PUSH1 0x1 PUSH1 0x40 MLOAD DUP7 PUSH4 0xFFFFFFFF AND PUSH1 0xE0 SHL DUP2 MSTORE PUSH1 0x4 ADD PUSH2 0x3604 SWAP6 SWAP5 SWAP4 SWAP3 SWAP2 SWAP1 PUSH2 0x52C6 JUMP JUMPDEST PUSH1 0x0 PUSH1 0x40 MLOAD DUP1 DUP4 SUB DUP2 PUSH1 0x0 DUP8 DUP1 EXTCODESIZE ISZERO DUP1 ISZERO PUSH2 0x361E JUMPI PUSH1 0x0 DUP1 REVERT JUMPDEST POP GAS CALL ISZERO DUP1 ISZERO PUSH2 0x3632 JUMPI RETURNDATASIZE PUSH1 0x0 DUP1 RETURNDATACOPY RETURNDATASIZE PUSH1 0x0 REVERT JUMPDEST POP POP POP POP POP JUMPDEST PUSH1 0x1 DUP2 PUSH1 0x20 ADD MLOAD GT ISZERO PUSH2 0x3786 JUMPI PUSH1 0x0 PUSH1 0x2 DUP3 PUSH1 0x20 ADD MLOAD PUSH2 0x3658 SWAP2 SWAP1 PUSH2 0x4B80 JUMP JUMPDEST SWAP1 POP PUSH1 0x0 DUP1 SLOAD SWAP1 PUSH2 0x100 EXP SWAP1 DIV PUSH20 0xFFFFFFFFFFFFFFFFFFFFFFFFFFFFFFFFFFFFFFFF AND PUSH20 0xFFFFFFFFFFFFFFFFFFFFFFFFFFFFFFFFFFFFFFFF AND PUSH4 0x3E5F2857 DUP6 DUP6 PUSH1 0x2 DUP6 PUSH1 0x0 PUSH1 0x40 MLOAD DUP7 PUSH4 0xFFFFFFFF AND PUSH1 0xE0 SHL DUP2 MSTORE PUSH1 0x4 ADD PUSH2 0x36BD SWAP6 SWAP5 SWAP4 SWAP3 SWAP2 SWAP1 PUSH2 0x5354 JUMP JUMPDEST PUSH1 0x0 PUSH1 0x40 MLOAD DUP1 DUP4 SUB DUP2 PUSH1 0x0 DUP8 DUP1 EXTCODESIZE ISZERO DUP1 ISZERO PUSH2 0x36D7 JUMPI PUSH1 0x0 DUP1 REVERT JUMPDEST POP GAS CALL ISZERO DUP1 ISZERO PUSH2 0x36EB JUMPI RETURNDATASIZE PUSH1 0x0 DUP1 RETURNDATACOPY RETURNDATASIZE PUSH1 0x0 REVERT JUMPDEST POP POP POP POP PUSH1 0x0 DUP1 SLOAD SWAP1 PUSH2 0x100 EXP SWAP1 DIV PUSH20 0xFFFFFFFFFFFFFFFFFFFFFFFFFFFFFFFFFFFFFFFF AND PUSH20 0xFFFFFFFFFFFFFFFFFFFFFFFFFFFFFFFFFFFFFFFF AND PUSH4 0x3E5F2857 DUP8 DUP8 PUSH1 0x2 DUP6 PUSH1 0x1 PUSH1 0x40 MLOAD DUP7 PUSH4 0xFFFFFFFF AND PUSH1 0xE0 SHL DUP2 MSTORE PUSH1 0x4 ADD PUSH2 0x3752 SWAP6 SWAP5 SWAP4 SWAP3 SWAP2 SWAP1 PUSH2 0x5354 JUMP JUMPDEST PUSH1 0x0 PUSH1 0x40 MLOAD DUP1 DUP4 SUB DUP2 PUSH1 0x0 DUP8 DUP1 EXTCODESIZE ISZERO DUP1 ISZERO PUSH2 0x376C JUMPI PUSH1 0x0 DUP1 REVERT JUMPDEST POP GAS CALL ISZERO DUP1 ISZERO PUSH2 0x3780 JUMPI RETURNDATASIZE PUSH1 0x0 DUP1 RETURNDATACOPY RETURNDATASIZE PUSH1 0x0 REVERT JUMPDEST POP POP POP POP POP JUMPDEST PUSH1 0x1 DUP2 PUSH1 0x40 ADD MLOAD GT ISZERO PUSH2 0x38D4 JUMPI PUSH1 0x0 PUSH1 0x2 DUP3 PUSH1 0x40 ADD MLOAD PUSH2 0x37A6 SWAP2 SWAP1 PUSH2 0x4B80 JUMP JUMPDEST SWAP1 POP PUSH1 0x0 DUP1 SLOAD SWAP1 PUSH2 0x100 EXP SWAP1 DIV PUSH20 0xFFFFFFFFFFFFFFFFFFFFFFFFFFFFFFFFFFFFFFFF AND PUSH20 0xFFFFFFFFFFFFFFFFFFFFFFFFFFFFFFFFFFFFFFFF AND PUSH4 0x3E5F2857 DUP6 DUP6 PUSH1 0x3 DUP6 PUSH1 0x0 PUSH1 0x40 MLOAD DUP7 PUSH4 0xFFFFFFFF AND PUSH1 0xE0 SHL DUP2 MSTORE PUSH1 0x4 ADD PUSH2 0x380B SWAP6 SWAP5 SWAP4 SWAP3 SWAP2 SWAP1 PUSH2 0x53E2 JUMP JUMPDEST PUSH1 0x0 PUSH1 0x40 MLOAD DUP1 DUP4 SUB DUP2 PUSH1 0x0 DUP8 DUP1 EXTCODESIZE ISZERO DUP1 ISZERO PUSH2 0x3825 JUMPI PUSH1 0x0 DUP1 REVERT JUMPDEST POP GAS CALL ISZERO DUP1 ISZERO PUSH2 0x3839 JUMPI RETURNDATASIZE PUSH1 0x0 DUP1 RETURNDATACOPY RETURNDATASIZE PUSH1 0x0 REVERT JUMPDEST POP POP POP POP PUSH1 0x0 DUP1 SLOAD SWAP1 PUSH2 0x100 EXP SWAP1 DIV PUSH20 0xFFFFFFFFFFFFFFFFFFFFFFFFFFFFFFFFFFFFFFFF AND PUSH20 0xFFFFFFFFFFFFFFFFFFFFFFFFFFFFFFFFFFFFFFFF AND PUSH4 0x3E5F2857 DUP8 DUP8 PUSH1 0x3 DUP6 PUSH1 0x1 PUSH1 0x40 MLOAD DUP7 PUSH4 0xFFFFFFFF AND PUSH1 0xE0 SHL DUP2 MSTORE PUSH1 0x4 ADD PUSH2 0x38A0 SWAP6 SWAP5 SWAP4 SWAP3 SWAP2 SWAP1 PUSH2 0x53E2 JUMP JUMPDEST PUSH1 0x0 PUSH1 0x40 MLOAD DUP1 DUP4 SUB DUP2 PUSH1 0x0 DUP8 DUP1 EXTCODESIZE ISZERO DUP1 ISZERO PUSH2 0x38BA JUMPI PUSH1 0x0 DUP1 REVERT JUMPDEST POP GAS CALL ISZERO DUP1 ISZERO PUSH2 0x38CE JUMPI RETURNDATASIZE PUSH1 0x0 DUP1 RETURNDATACOPY RETURNDATASIZE PUSH1 0x0 REVERT JUMPDEST POP POP POP POP POP JUMPDEST PUSH1 0x1 DUP2 PUSH1 0x60 ADD MLOAD GT ISZERO PUSH2 0x3A22 JUMPI PUSH1 0x0 PUSH1 0x2 DUP3 PUSH1 0x60 ADD MLOAD PUSH2 0x38F4 SWAP2 SWAP1 PUSH2 0x4B80 JUMP JUMPDEST SWAP1 POP PUSH1 0x0 DUP1 SLOAD SWAP1 PUSH2 0x100 EXP SWAP1 DIV PUSH20 0xFFFFFFFFFFFFFFFFFFFFFFFFFFFFFFFFFFFFFFFF AND PUSH20 0xFFFFFFFFFFFFFFFFFFFFFFFFFFFFFFFFFFFFFFFF AND PUSH4 0x3E5F2857 DUP6 DUP6 PUSH1 0x4 DUP6 PUSH1 0x0 PUSH1 0x40 MLOAD DUP7 PUSH4 0xFFFFFFFF AND PUSH1 0xE0 SHL DUP2 MSTORE PUSH1 0x4 ADD PUSH2 0x3959 SWAP6 SWAP5 SWAP4 SWAP3 SWAP2 SWAP1 PUSH2 0x5470 JUMP JUMPDEST PUSH1 0x0 PUSH1 0x40 MLOAD DUP1 DUP4 SUB DUP2 PUSH1 0x0 DUP8 DUP1 EXTCODESIZE ISZERO DUP1 ISZERO PUSH2 0x3973 JUMPI PUSH1 0x0 DUP1 REVERT JUMPDEST POP GAS CALL ISZERO DUP1 ISZERO PUSH2 0x3987 JUMPI RETURNDATASIZE PUSH1 0x0 DUP1 RETURNDATACOPY RETURNDATASIZE PUSH1 0x0 REVERT JUMPDEST POP POP POP POP PUSH1 0x0 DUP1 SLOAD SWAP1 PUSH2 0x100 EXP SWAP1 DIV PUSH20 0xFFFFFFFFFFFFFFFFFFFFFFFFFFFFFFFFFFFFFFFF AND PUSH20 0xFFFFFFFFFFFFFFFFFFFFFFFFFFFFFFFFFFFFFFFF AND PUSH4 0x3E5F2857 DUP8 DUP8 PUSH1 0x4 DUP6 PUSH1 0x1 PUSH1 0x40 MLOAD DUP7 PUSH4 0xFFFFFFFF AND PUSH1 0xE0 SHL DUP2 MSTORE PUSH1 0x4 ADD PUSH2 0x39EE SWAP6 SWAP5 SWAP4 SWAP3 SWAP2 SWAP1 PUSH2 0x5470 JUMP JUMPDEST PUSH1 0x0 PUSH1 0x40 MLOAD DUP1 DUP4 SUB DUP2 PUSH1 0x0 DUP8 DUP1 EXTCODESIZE ISZERO DUP1 ISZERO PUSH2 0x3A08 JUMPI PUSH1 0x0 DUP1 REVERT JUMPDEST POP GAS CALL ISZERO DUP1 ISZERO PUSH2 0x3A1C JUMPI RETURNDATASIZE PUSH1 0x0 DUP1 RETURNDATACOPY RETURNDATASIZE PUSH1 0x0 REVERT JUMPDEST POP POP POP POP POP JUMPDEST POP POP POP POP POP JUMP JUMPDEST PUSH1 0x40 MLOAD DUP1 PUSH2 0x180 ADD PUSH1 0x40 MSTORE DUP1 PUSH1 0x0 PUSH1 0xFF AND DUP2 MSTORE PUSH1 0x20 ADD PUSH1 0x0 PUSH1 0xFF AND DUP2 MSTORE PUSH1 0x20 ADD PUSH1 0x0 PUSH1 0xFF AND DUP2 MSTORE PUSH1 0x20 ADD PUSH1 0x0 PUSH1 0xFF AND DUP2 MSTORE PUSH1 0x20 ADD PUSH1 0x0 DUP2 MSTORE PUSH1 0x20 ADD PUSH1 0x0 ISZERO ISZERO DUP2 MSTORE PUSH1 0x20 ADD PUSH1 0x0 DUP2 MSTORE PUSH1 0x20 ADD PUSH1 0x0 DUP2 MSTORE PUSH1 0x20 ADD PUSH1 0x0 PUSH1 0xFF AND DUP2 MSTORE PUSH1 0x20 ADD PUSH1 0x0 DUP2 MSTORE PUSH1 0x20 ADD PUSH1 0x0 DUP2 MSTORE PUSH1 0x20 ADD PUSH1 0x0 PUSH1 0xFF AND DUP2 MSTORE POP SWAP1 JUMP JUMPDEST PUSH1 0x0 PUSH1 0x40 MLOAD SWAP1 POP SWAP1 JUMP JUMPDEST PUSH1 0x0 DUP1 REVERT JUMPDEST PUSH1 0x0 DUP2 SWAP1 POP SWAP2 SWAP1 POP JUMP JUMPDEST PUSH2 0x3AC0 DUP2 PUSH2 0x3AAD JUMP JUMPDEST DUP2 EQ PUSH2 0x3ACB JUMPI PUSH1 0x0 DUP1 REVERT JUMPDEST POP JUMP JUMPDEST PUSH1 0x0 DUP2 CALLDATALOAD SWAP1 POP PUSH2 0x3ADD DUP2 PUSH2 0x3AB7 JUMP JUMPDEST SWAP3 SWAP2 POP POP JUMP JUMPDEST PUSH1 0x0 PUSH1 0x20 DUP3 DUP5 SUB SLT ISZERO PUSH2 0x3AF9 JUMPI PUSH2 0x3AF8 PUSH2 0x3AA8 JUMP JUMPDEST JUMPDEST PUSH1 0x0 PUSH2 0x3B07 DUP5 DUP3 DUP6 ADD PUSH2 0x3ACE JUMP JUMPDEST SWAP2 POP POP SWAP3 SWAP2 POP POP JUMP JUMPDEST PUSH1 0x0 PUSH1 0xFF DUP3 AND SWAP1 POP SWAP2 SWAP1 POP JUMP JUMPDEST PUSH2 0x3B26 DUP2 PUSH2 0x3B10 JUMP JUMPDEST DUP3 MSTORE POP POP JUMP JUMPDEST PUSH2 0x3B35 DUP2 PUSH2 0x3AAD JUMP JUMPDEST DUP3 MSTORE POP POP JUMP JUMPDEST PUSH1 0x0 DUP2 ISZERO ISZERO SWAP1 POP SWAP2 SWAP1 POP JUMP JUMPDEST PUSH2 0x3B50 DUP2 PUSH2 0x3B3B JUMP JUMPDEST DUP3 MSTORE POP POP JUMP JUMPDEST PUSH1 0x0 PUSH2 0x180 DUP3 ADD SWAP1 POP PUSH2 0x3B6C PUSH1 0x0 DUP4 ADD DUP16 PUSH2 0x3B1D JUMP JUMPDEST PUSH2 0x3B79 PUSH1 0x20 DUP4 ADD DUP15 PUSH2 0x3B1D JUMP JUMPDEST PUSH2 0x3B86 PUSH1 0x40 DUP4 ADD DUP14 PUSH2 0x3B1D JUMP JUMPDEST PUSH2 0x3B93 PUSH1 0x60 DUP4 ADD DUP13 PUSH2 0x3B1D JUMP JUMPDEST PUSH2 0x3BA0 PUSH1 0x80 DUP4 ADD DUP12 PUSH2 0x3B2C JUMP JUMPDEST PUSH2 0x3BAD PUSH1 0xA0 DUP4 ADD DUP11 PUSH2 0x3B47 JUMP JUMPDEST PUSH2 0x3BBA PUSH1 0xC0 DUP4 ADD DUP10 PUSH2 0x3B2C JUMP JUMPDEST PUSH2 0x3BC7 PUSH1 0xE0 DUP4 ADD DUP9 PUSH2 0x3B2C JUMP JUMPDEST PUSH2 0x3BD5 PUSH2 0x100 DUP4 ADD DUP8 PUSH2 0x3B1D JUMP JUMPDEST PUSH2 0x3BE3 PUSH2 0x120 DUP4 ADD DUP7 PUSH2 0x3B2C JUMP JUMPDEST PUSH2 0x3BF1 PUSH2 0x140 DUP4 ADD DUP6 PUSH2 0x3B2C JUMP JUMPDEST PUSH2 0x3BFF PUSH2 0x160 DUP4 ADD DUP5 PUSH2 0x3B1D JUMP JUMPDEST SWAP14 SWAP13 POP POP POP POP POP POP POP POP POP POP POP POP POP JUMP JUMPDEST PUSH1 0x0 DUP2 MLOAD SWAP1 POP SWAP2 SWAP1 POP JUMP JUMPDEST PUSH1 0x0 DUP3 DUP3 MSTORE PUSH1 0x20 DUP3 ADD SWAP1 POP SWAP3 SWAP2 POP POP JUMP JUMPDEST PUSH1 0x0 DUP2 SWAP1 POP PUSH1 0x20 DUP3 ADD SWAP1 POP SWAP2 SWAP1 POP JUMP JUMPDEST PUSH2 0x3C45 DUP2 PUSH2 0x3B10 JUMP JUMPDEST DUP3 MSTORE POP POP JUMP JUMPDEST PUSH2 0x3C54 DUP2 PUSH2 0x3AAD JUMP JUMPDEST DUP3 MSTORE POP POP JUMP JUMPDEST PUSH2 0x3C63 DUP2 PUSH2 0x3B3B JUMP JUMPDEST DUP3 MSTORE POP POP JUMP JUMPDEST PUSH2 0x180 DUP3 ADD PUSH1 0x0 DUP3 ADD MLOAD PUSH2 0x3C80 PUSH1 0x0 DUP6 ADD DUP3 PUSH2 0x3C3C JUMP JUMPDEST POP PUSH1 0x20 DUP3 ADD MLOAD PUSH2 0x3C93 PUSH1 0x20 DUP6 ADD DUP3 PUSH2 0x3C3C JUMP JUMPDEST POP PUSH1 0x40 DUP3 ADD MLOAD PUSH2 0x3CA6 PUSH1 0x40 DUP6 ADD DUP3 PUSH2 0x3C3C JUMP JUMPDEST POP PUSH1 0x60 DUP3 ADD MLOAD PUSH2 0x3CB9 PUSH1 0x60 DUP6 ADD DUP3 PUSH2 0x3C3C JUMP JUMPDEST POP PUSH1 0x80 DUP3 ADD MLOAD PUSH2 0x3CCC PUSH1 0x80 DUP6 ADD DUP3 PUSH2 0x3C4B JUMP JUMPDEST POP PUSH1 0xA0 DUP3 ADD MLOAD PUSH2 0x3CDF PUSH1 0xA0 DUP6 ADD DUP3 PUSH2 0x3C5A JUMP JUMPDEST POP PUSH1 0xC0 DUP3 ADD MLOAD PUSH2 0x3CF2 PUSH1 0xC0 DUP6 ADD DUP3 PUSH2 0x3C4B JUMP JUMPDEST POP PUSH1 0xE0 DUP3 ADD MLOAD PUSH2 0x3D05 PUSH1 0xE0 DUP6 ADD DUP3 PUSH2 0x3C4B JUMP JUMPDEST POP PUSH2 0x100 DUP3 ADD MLOAD PUSH2 0x3D1A PUSH2 0x100 DUP6 ADD DUP3 PUSH2 0x3C3C JUMP JUMPDEST POP PUSH2 0x120 DUP3 ADD MLOAD PUSH2 0x3D2F PUSH2 0x120 DUP6 ADD DUP3 PUSH2 0x3C4B JUMP JUMPDEST POP PUSH2 0x140 DUP3 ADD MLOAD PUSH2 0x3D44 PUSH2 0x140 DUP6 ADD DUP3 PUSH2 0x3C4B JUMP JUMPDEST POP PUSH2 0x160 DUP3 ADD MLOAD PUSH2 0x3D59 PUSH2 0x160 DUP6 ADD DUP3 PUSH2 0x3C3C JUMP JUMPDEST POP POP POP POP JUMP JUMPDEST PUSH1 0x0 PUSH2 0x3D6B DUP4 DUP4 PUSH2 0x3C69 JUMP JUMPDEST PUSH2 0x180 DUP4 ADD SWAP1 POP SWAP3 SWAP2 POP POP JUMP JUMPDEST PUSH1 0x0 PUSH1 0x20 DUP3 ADD SWAP1 POP SWAP2 SWAP1 POP JUMP JUMPDEST PUSH1 0x0 PUSH2 0x3D90 DUP3 PUSH2 0x3C10 JUMP JUMPDEST PUSH2 0x3D9A DUP2 DUP6 PUSH2 0x3C1B JUMP JUMPDEST SWAP4 POP PUSH2 0x3DA5 DUP4 PUSH2 0x3C2C JUMP JUMPDEST DUP1 PUSH1 0x0 JUMPDEST DUP4 DUP2 LT ISZERO PUSH2 0x3DD6 JUMPI DUP2 MLOAD PUSH2 0x3DBD DUP9 DUP3 PUSH2 0x3D5F JUMP JUMPDEST SWAP8 POP PUSH2 0x3DC8 DUP4 PUSH2 0x3D78 JUMP JUMPDEST SWAP3 POP POP PUSH1 0x1 DUP2 ADD SWAP1 POP PUSH2 0x3DA9 JUMP JUMPDEST POP DUP6 SWAP4 POP POP POP POP SWAP3 SWAP2 POP POP JUMP JUMPDEST PUSH1 0x0 PUSH1 0x20 DUP3 ADD SWAP1 POP DUP2 DUP2 SUB PUSH1 0x0 DUP4 ADD MSTORE PUSH2 0x3DFD DUP2 DUP5 PUSH2 0x3D85 JUMP JUMPDEST SWAP1 POP SWAP3 SWAP2 POP POP JUMP JUMPDEST PUSH1 0x0 PUSH20 0xFFFFFFFFFFFFFFFFFFFFFFFFFFFFFFFFFFFFFFFF DUP3 AND SWAP1 POP SWAP2 SWAP1 POP JUMP JUMPDEST PUSH1 0x0 DUP2 SWAP1 POP SWAP2 SWAP1 POP JUMP JUMPDEST PUSH1 0x0 PUSH2 0x3E4A PUSH2 0x3E45 PUSH2 0x3E40 DUP5 PUSH2 0x3E05 JUMP JUMPDEST PUSH2 0x3E25 JUMP JUMPDEST PUSH2 0x3E05 JUMP JUMPDEST SWAP1 POP SWAP2 SWAP1 POP JUMP JUMPDEST PUSH1 0x0 PUSH2 0x3E5C DUP3 PUSH2 0x3E2F JUMP JUMPDEST SWAP1 POP SWAP2 SWAP1 POP JUMP JUMPDEST PUSH1 0x0 PUSH2 0x3E6E DUP3 PUSH2 0x3E51 JUMP JUMPDEST SWAP1 POP SWAP2 SWAP1 POP JUMP JUMPDEST PUSH2 0x3E7E DUP2 PUSH2 0x3E63 JUMP JUMPDEST DUP3 MSTORE POP POP JUMP JUMPDEST PUSH1 0x0 PUSH1 0x20 DUP3 ADD SWAP1 POP PUSH2 0x3E99 PUSH1 0x0 DUP4 ADD DUP5 PUSH2 0x3E75 JUMP JUMPDEST SWAP3 SWAP2 POP POP JUMP JUMPDEST PUSH1 0x0 PUSH1 0x20 DUP3 ADD SWAP1 POP PUSH2 0x3EB4 PUSH1 0x0 DUP4 ADD DUP5 PUSH2 0x3B2C JUMP JUMPDEST SWAP3 SWAP2 POP POP JUMP JUMPDEST PUSH2 0x3EC3 DUP2 PUSH2 0x3B10 JUMP JUMPDEST DUP2 EQ PUSH2 0x3ECE JUMPI PUSH1 0x0 DUP1 REVERT JUMPDEST POP JUMP JUMPDEST PUSH1 0x0 DUP2 CALLDATALOAD SWAP1 POP PUSH2 0x3EE0 DUP2 PUSH2 0x3EBA JUMP JUMPDEST SWAP3 SWAP2 POP POP JUMP JUMPDEST PUSH1 0x0 DUP1 PUSH1 0x40 DUP4 DUP6 SUB SLT ISZERO PUSH2 0x3EFD JUMPI PUSH2 0x3EFC PUSH2 0x3AA8 JUMP JUMPDEST JUMPDEST PUSH1 0x0 PUSH2 0x3F0B DUP6 DUP3 DUP7 ADD PUSH2 0x3ED1 JUMP JUMPDEST SWAP3 POP POP PUSH1 0x20 PUSH2 0x3F1C DUP6 DUP3 DUP7 ADD PUSH2 0x3ACE JUMP JUMPDEST SWAP2 POP POP SWAP3 POP SWAP3 SWAP1 POP JUMP JUMPDEST PUSH1 0x0 PUSH2 0x3F31 DUP3 PUSH2 0x3E05 JUMP JUMPDEST SWAP1 POP SWAP2 SWAP1 POP JUMP JUMPDEST PUSH2 0x3F41 DUP2 PUSH2 0x3F26 JUMP JUMPDEST DUP3 MSTORE POP POP JUMP JUMPDEST PUSH1 0x0 PUSH1 0x80 DUP3 ADD SWAP1 POP PUSH2 0x3F5C PUSH1 0x0 DUP4 ADD DUP8 PUSH2 0x3F38 JUMP JUMPDEST PUSH2 0x3F69 PUSH1 0x20 DUP4 ADD DUP7 PUSH2 0x3B1D JUMP JUMPDEST PUSH2 0x3F76 PUSH1 0x40 DUP4 ADD DUP6 PUSH2 0x3B2C JUMP JUMPDEST PUSH2 0x3F83 PUSH1 0x60 DUP4 ADD DUP5 PUSH2 0x3B2C JUMP JUMPDEST SWAP6 SWAP5 POP POP POP POP POP JUMP JUMPDEST PUSH2 0x3F95 DUP2 PUSH2 0x3F26 JUMP JUMPDEST DUP2 EQ PUSH2 0x3FA0 JUMPI PUSH1 0x0 DUP1 REVERT JUMPDEST POP JUMP JUMPDEST PUSH1 0x0 DUP2 CALLDATALOAD SWAP1 POP PUSH2 0x3FB2 DUP2 PUSH2 0x3F8C JUMP JUMPDEST SWAP3 SWAP2 POP POP JUMP JUMPDEST PUSH1 0x0 PUSH1 0x20 DUP3 DUP5 SUB SLT ISZERO PUSH2 0x3FCE JUMPI PUSH2 0x3FCD PUSH2 0x3AA8 JUMP JUMPDEST JUMPDEST PUSH1 0x0 PUSH2 0x3FDC DUP5 DUP3 DUP6 ADD PUSH2 0x3FA3 JUMP JUMPDEST SWAP2 POP POP SWAP3 SWAP2 POP POP JUMP JUMPDEST PUSH1 0x0 PUSH1 0x20 DUP3 DUP5 SUB SLT ISZERO PUSH2 0x3FFB JUMPI PUSH2 0x3FFA PUSH2 0x3AA8 JUMP JUMPDEST JUMPDEST PUSH1 0x0 PUSH2 0x4009 DUP5 DUP3 DUP6 ADD PUSH2 0x3ED1 JUMP JUMPDEST SWAP2 POP POP SWAP3 SWAP2 POP POP JUMP JUMPDEST PUSH1 0x0 DUP2 MLOAD SWAP1 POP SWAP2 SWAP1 POP JUMP JUMPDEST PUSH1 0x0 DUP3 DUP3 MSTORE PUSH1 0x20 DUP3 ADD SWAP1 POP SWAP3 SWAP2 POP POP JUMP JUMPDEST PUSH1 0x0 DUP2 SWAP1 POP PUSH1 0x20 DUP3 ADD SWAP1 POP SWAP2 SWAP1 POP JUMP JUMPDEST PUSH2 0x4047 DUP2 PUSH2 0x3F26 JUMP JUMPDEST DUP3 MSTORE POP POP JUMP JUMPDEST PUSH1 0x80 DUP3 ADD PUSH1 0x0 DUP3 ADD MLOAD PUSH2 0x4063 PUSH1 0x0 DUP6 ADD DUP3 PUSH2 0x403E JUMP JUMPDEST POP PUSH1 0x20 DUP3 ADD MLOAD PUSH2 0x4076 PUSH1 0x20 DUP6 ADD DUP3 PUSH2 0x3C3C JUMP JUMPDEST POP PUSH1 0x40 DUP3 ADD MLOAD PUSH2 0x4089 PUSH1 0x40 DUP6 ADD DUP3 PUSH2 0x3C4B JUMP JUMPDEST POP PUSH1 0x60 DUP3 ADD MLOAD PUSH2 0x409C PUSH1 0x60 DUP6 ADD DUP3 PUSH2 0x3C4B JUMP JUMPDEST POP POP POP POP JUMP JUMPDEST PUSH1 0x0 PUSH2 0x40AE DUP4 DUP4 PUSH2 0x404D JUMP JUMPDEST PUSH1 0x80 DUP4 ADD SWAP1 POP SWAP3 SWAP2 POP POP JUMP JUMPDEST PUSH1 0x0 PUSH1 0x20 DUP3 ADD SWAP1 POP SWAP2 SWAP1 POP JUMP JUMPDEST PUSH1 0x0 PUSH2 0x40D2 DUP3 PUSH2 0x4012 JUMP JUMPDEST PUSH2 0x40DC DUP2 DUP6 PUSH2 0x401D JUMP JUMPDEST SWAP4 POP PUSH2 0x40E7 DUP4 PUSH2 0x402E JUMP JUMPDEST DUP1 PUSH1 0x0 JUMPDEST DUP4 DUP2 LT ISZERO PUSH2 0x4118 JUMPI DUP2 MLOAD PUSH2 0x40FF DUP9 DUP3 PUSH2 0x40A2 JUMP JUMPDEST SWAP8 POP PUSH2 0x410A DUP4 PUSH2 0x40BA JUMP JUMPDEST SWAP3 POP POP PUSH1 0x1 DUP2 ADD SWAP1 POP PUSH2 0x40EB JUMP JUMPDEST POP DUP6 SWAP4 POP POP POP POP SWAP3 SWAP2 POP POP JUMP JUMPDEST PUSH1 0x0 PUSH1 0x20 DUP3 ADD SWAP1 POP DUP2 DUP2 SUB PUSH1 0x0 DUP4 ADD MSTORE PUSH2 0x413F DUP2 DUP5 PUSH2 0x40C7 JUMP JUMPDEST SWAP1 POP SWAP3 SWAP2 POP POP JUMP JUMPDEST PUSH1 0x0 PUSH2 0x4152 DUP3 PUSH2 0x3E51 JUMP JUMPDEST SWAP1 POP SWAP2 SWAP1 POP JUMP JUMPDEST PUSH2 0x4162 DUP2 PUSH2 0x4147 JUMP JUMPDEST DUP3 MSTORE POP POP JUMP JUMPDEST PUSH1 0x0 PUSH1 0x20 DUP3 ADD SWAP1 POP PUSH2 0x417D PUSH1 0x0 DUP4 ADD DUP5 PUSH2 0x4159 JUMP JUMPDEST SWAP3 SWAP2 POP POP JUMP JUMPDEST PUSH1 0x0 DUP1 PUSH1 0x0 DUP1 PUSH1 0x80 DUP6 DUP8 SUB SLT ISZERO PUSH2 0x419D JUMPI PUSH2 0x419C PUSH2 0x3AA8 JUMP JUMPDEST JUMPDEST PUSH1 0x0 PUSH2 0x41AB DUP8 DUP3 DUP9 ADD PUSH2 0x3ED1 JUMP JUMPDEST SWAP5 POP POP PUSH1 0x20 PUSH2 0x41BC DUP8 DUP3 DUP9 ADD PUSH2 0x3ED1 JUMP JUMPDEST SWAP4 POP POP PUSH1 0x40 PUSH2 0x41CD DUP8 DUP3 DUP9 ADD PUSH2 0x3ED1 JUMP JUMPDEST SWAP3 POP POP PUSH1 0x60 PUSH2 0x41DE DUP8 DUP3 DUP9 ADD PUSH2 0x3ED1 JUMP JUMPDEST SWAP2 POP POP SWAP3 SWAP6 SWAP2 SWAP5 POP SWAP3 POP JUMP JUMPDEST PUSH1 0x0 DUP1 PUSH1 0x40 DUP4 DUP6 SUB SLT ISZERO PUSH2 0x4201 JUMPI PUSH2 0x4200 PUSH2 0x3AA8 JUMP JUMPDEST JUMPDEST PUSH1 0x0 PUSH2 0x420F DUP6 DUP3 DUP7 ADD PUSH2 0x3ED1 JUMP JUMPDEST SWAP3 POP POP PUSH1 0x20 PUSH2 0x4220 DUP6 DUP3 DUP7 ADD PUSH2 0x3ED1 JUMP JUMPDEST SWAP2 POP POP SWAP3 POP SWAP3 SWAP1 POP JUMP JUMPDEST PUSH1 0x0 DUP1 PUSH1 0x40 DUP4 DUP6 SUB SLT ISZERO PUSH2 0x4241 JUMPI PUSH2 0x4240 PUSH2 0x3AA8 JUMP JUMPDEST JUMPDEST PUSH1 0x0 PUSH2 0x424F DUP6 DUP3 DUP7 ADD PUSH2 0x3FA3 JUMP JUMPDEST SWAP3 POP POP PUSH1 0x20 PUSH2 0x4260 DUP6 DUP3 DUP7 ADD PUSH2 0x3ACE JUMP JUMPDEST SWAP2 POP POP SWAP3 POP SWAP3 SWAP1 POP JUMP JUMPDEST PUSH1 0x0 DUP1 PUSH1 0x0 DUP1 PUSH1 0x80 DUP6 DUP8 SUB SLT ISZERO PUSH2 0x4284 JUMPI PUSH2 0x4283 PUSH2 0x3AA8 JUMP JUMPDEST JUMPDEST PUSH1 0x0 PUSH2 0x4292 DUP8 DUP3 DUP9 ADD PUSH2 0x3ED1 JUMP JUMPDEST SWAP5 POP POP PUSH1 0x20 PUSH2 0x42A3 DUP8 DUP3 DUP9 ADD PUSH2 0x3ED1 JUMP JUMPDEST SWAP4 POP POP PUSH1 0x40 PUSH2 0x42B4 DUP8 DUP3 DUP9 ADD PUSH2 0x3ED1 JUMP JUMPDEST SWAP3 POP POP PUSH1 0x60 PUSH2 0x42C5 DUP8 DUP3 DUP9 ADD PUSH2 0x3ACE JUMP JUMPDEST SWAP2 POP POP SWAP3 SWAP6 SWAP2 SWAP5 POP SWAP3 POP JUMP JUMPDEST PUSH1 0x0 PUSH2 0x42DC DUP3 PUSH2 0x3E51 JUMP JUMPDEST SWAP1 POP SWAP2 SWAP1 POP JUMP JUMPDEST PUSH2 0x42EC DUP2 PUSH2 0x42D1 JUMP JUMPDEST DUP3 MSTORE POP POP JUMP JUMPDEST PUSH1 0x0 PUSH1 0x20 DUP3 ADD SWAP1 POP PUSH2 0x4307 PUSH1 0x0 DUP4 ADD DUP5 PUSH2 0x42E3 JUMP JUMPDEST SWAP3 SWAP2 POP POP JUMP JUMPDEST PUSH1 0x0 PUSH2 0x4318 DUP3 PUSH2 0x3E51 JUMP JUMPDEST SWAP1 POP SWAP2 SWAP1 POP JUMP JUMPDEST PUSH2 0x4328 DUP2 PUSH2 0x430D JUMP JUMPDEST DUP3 MSTORE POP POP JUMP JUMPDEST PUSH1 0x0 PUSH1 0x20 DUP3 ADD SWAP1 POP PUSH2 0x4343 PUSH1 0x0 DUP4 ADD DUP5 PUSH2 0x431F JUMP JUMPDEST SWAP3 SWAP2 POP POP JUMP JUMPDEST PUSH1 0x0 DUP1 PUSH1 0x0 DUP1 PUSH1 0x0 PUSH1 0xA0 DUP7 DUP9 SUB SLT ISZERO PUSH2 0x4365 JUMPI PUSH2 0x4364 PUSH2 0x3AA8 JUMP JUMPDEST JUMPDEST PUSH1 0x0 PUSH2 0x4373 DUP9 DUP3 DUP10 ADD PUSH2 0x3ED1 JUMP JUMPDEST SWAP6 POP POP PUSH1 0x20 PUSH2 0x4384 DUP9 DUP3 DUP10 ADD PUSH2 0x3ED1 JUMP JUMPDEST SWAP5 POP POP PUSH1 0x40 PUSH2 0x4395 DUP9 DUP3 DUP10 ADD PUSH2 0x3ED1 JUMP JUMPDEST SWAP4 POP POP PUSH1 0x60 PUSH2 0x43A6 DUP9 DUP3 DUP10 ADD PUSH2 0x3ACE JUMP JUMPDEST SWAP3 POP POP PUSH1 0x80 PUSH2 0x43B7 DUP9 DUP3 DUP10 ADD PUSH2 0x3ACE JUMP JUMPDEST SWAP2 POP POP SWAP3 SWAP6 POP SWAP3 SWAP6 SWAP1 SWAP4 POP JUMP JUMPDEST PUSH32 0x4E487B7100000000000000000000000000000000000000000000000000000000 PUSH1 0x0 MSTORE PUSH1 0x11 PUSH1 0x4 MSTORE PUSH1 0x24 PUSH1 0x0 REVERT JUMPDEST PUSH1 0x0 PUSH2 0x43FE DUP3 PUSH2 0x3AAD JUMP JUMPDEST SWAP2 POP PUSH2 0x4409 DUP4 PUSH2 0x3AAD JUMP JUMPDEST SWAP3 POP DUP3 DUP3 SUB SWAP1 POP DUP2 DUP2 GT ISZERO PUSH2 0x4421 JUMPI PUSH2 0x4420 PUSH2 0x43C4 JUMP JUMPDEST JUMPDEST SWAP3 SWAP2 POP POP JUMP JUMPDEST PUSH32 0x4E487B7100000000000000000000000000000000000000000000000000000000 PUSH1 0x0 MSTORE PUSH1 0x32 PUSH1 0x4 MSTORE PUSH1 0x24 PUSH1 0x0 REVERT JUMPDEST PUSH1 0x0 PUSH2 0x4461 DUP3 PUSH2 0x3AAD JUMP JUMPDEST SWAP2 POP PUSH32 0xFFFFFFFFFFFFFFFFFFFFFFFFFFFFFFFFFFFFFFFFFFFFFFFFFFFFFFFFFFFFFFFF DUP3 SUB PUSH2 0x4493 JUMPI PUSH2 0x4492 PUSH2 0x43C4 JUMP JUMPDEST JUMPDEST PUSH1 0x1 DUP3 ADD SWAP1 POP SWAP2 SWAP1 POP JUMP JUMPDEST PUSH1 0x0 PUSH2 0x44A9 DUP3 PUSH2 0x3AAD JUMP JUMPDEST SWAP2 POP PUSH1 0x0 DUP3 SUB PUSH2 0x44BC JUMPI PUSH2 0x44BB PUSH2 0x43C4 JUMP JUMPDEST JUMPDEST PUSH1 0x1 DUP3 SUB SWAP1 POP SWAP2 SWAP1 POP JUMP JUMPDEST PUSH32 0x4E487B7100000000000000000000000000000000000000000000000000000000 PUSH1 0x0 MSTORE PUSH1 0x41 PUSH1 0x4 MSTORE PUSH1 0x24 PUSH1 0x0 REVERT JUMPDEST PUSH1 0x0 DUP3 DUP3 MSTORE PUSH1 0x20 DUP3 ADD SWAP1 POP SWAP3 SWAP2 POP POP JUMP JUMPDEST PUSH32 0x496E76616C6964207265736F7572636520747970650000000000000000000000 PUSH1 0x0 DUP3 ADD MSTORE POP JUMP JUMPDEST PUSH1 0x0 PUSH2 0x453D PUSH1 0x15 DUP4 PUSH2 0x44F6 JUMP JUMPDEST SWAP2 POP PUSH2 0x4548 DUP3 PUSH2 0x4507 JUMP JUMPDEST PUSH1 0x20 DUP3 ADD SWAP1 POP SWAP2 SWAP1 POP JUMP JUMPDEST PUSH1 0x0 PUSH1 0x20 DUP3 ADD SWAP1 POP DUP2 DUP2 SUB PUSH1 0x0 DUP4 ADD MSTORE PUSH2 0x456C DUP2 PUSH2 0x4530 JUMP JUMPDEST SWAP1 POP SWAP2 SWAP1 POP JUMP JUMPDEST PUSH1 0x0 PUSH1 0x40 DUP3 ADD SWAP1 POP PUSH2 0x4588 PUSH1 0x0 DUP4 ADD DUP6 PUSH2 0x3B1D JUMP JUMPDEST PUSH2 0x4595 PUSH1 0x20 DUP4 ADD DUP5 PUSH2 0x3B1D JUMP JUMPDEST SWAP4 SWAP3 POP POP POP JUMP JUMPDEST PUSH1 0x0 DUP2 MLOAD SWAP1 POP PUSH2 0x45AB DUP2 PUSH2 0x3F8C JUMP JUMPDEST SWAP3 SWAP2 POP POP JUMP JUMPDEST PUSH1 0x0 PUSH1 0x20 DUP3 DUP5 SUB SLT ISZERO PUSH2 0x45C7 JUMPI PUSH2 0x45C6 PUSH2 0x3AA8 JUMP JUMPDEST JUMPDEST PUSH1 0x0 PUSH2 0x45D5 DUP5 DUP3 DUP6 ADD PUSH2 0x459C JUMP JUMPDEST SWAP2 POP POP SWAP3 SWAP2 POP POP JUMP JUMPDEST PUSH32 0x596F7520646F206E6F74206F776E20746869732074696C650000000000000000 PUSH1 0x0 DUP3 ADD MSTORE POP JUMP JUMPDEST PUSH1 0x0 PUSH2 0x4614 PUSH1 0x18 DUP4 PUSH2 0x44F6 JUMP JUMPDEST SWAP2 POP PUSH2 0x461F DUP3 PUSH2 0x45DE JUMP JUMPDEST PUSH1 0x20 DUP3 ADD SWAP1 POP SWAP2 SWAP1 POP JUMP JUMPDEST PUSH1 0x0 PUSH1 0x20 DUP3 ADD SWAP1 POP DUP2 DUP2 SUB PUSH1 0x0 DUP4 ADD MSTORE PUSH2 0x4643 DUP2 PUSH2 0x4607 JUMP JUMPDEST SWAP1 POP SWAP2 SWAP1 POP JUMP JUMPDEST PUSH32 0x4E6F20646566656E646572000000000000000000000000000000000000000000 PUSH1 0x0 DUP3 ADD MSTORE POP JUMP JUMPDEST PUSH1 0x0 PUSH2 0x4680 PUSH1 0xB DUP4 PUSH2 0x44F6 JUMP JUMPDEST SWAP2 POP PUSH2 0x468B DUP3 PUSH2 0x464A JUMP JUMPDEST PUSH1 0x20 DUP3 ADD SWAP1 POP SWAP2 SWAP1 POP JUMP JUMPDEST PUSH1 0x0 PUSH1 0x20 DUP3 ADD SWAP1 POP DUP2 DUP2 SUB PUSH1 0x0 DUP4 ADD MSTORE PUSH2 0x46AF DUP2 PUSH2 0x4673 JUMP JUMPDEST SWAP1 POP SWAP2 SWAP1 POP JUMP JUMPDEST PUSH1 0x0 DUP1 REVERT JUMPDEST PUSH1 0x0 PUSH1 0x1F NOT PUSH1 0x1F DUP4 ADD AND SWAP1 POP SWAP2 SWAP1 POP JUMP JUMPDEST PUSH2 0x46D5 DUP3 PUSH2 0x46BB JUMP JUMPDEST DUP2 ADD DUP2 DUP2 LT PUSH8 0xFFFFFFFFFFFFFFFF DUP3 GT OR ISZERO PUSH2 0x46F4 JUMPI PUSH2 0x46F3 PUSH2 0x44C7 JUMP JUMPDEST JUMPDEST DUP1 PUSH1 0x40 MSTORE POP POP POP JUMP JUMPDEST PUSH1 0x0 PUSH2 0x4707 PUSH2 0x3A9E JUMP JUMPDEST SWAP1 POP PUSH2 0x4713 DUP3 DUP3 PUSH2 0x46CC JUMP JUMPDEST SWAP2 SWAP1 POP JUMP JUMPDEST PUSH1 0x0 DUP2 MLOAD SWAP1 POP PUSH2 0x4727 DUP2 PUSH2 0x3AB7 JUMP JUMPDEST SWAP3 SWAP2 POP POP JUMP JUMPDEST PUSH1 0x0 PUSH2 0xFFFF DUP3 AND SWAP1 POP SWAP2 SWAP1 POP JUMP JUMPDEST PUSH2 0x4744 DUP2 PUSH2 0x472D JUMP JUMPDEST DUP2 EQ PUSH2 0x474F JUMPI PUSH1 0x0 DUP1 REVERT JUMPDEST POP JUMP JUMPDEST PUSH1 0x0 DUP2 MLOAD SWAP1 POP PUSH2 0x4761 DUP2 PUSH2 0x473B JUMP JUMPDEST SWAP3 SWAP2 POP POP JUMP JUMPDEST PUSH1 0x0 DUP2 MLOAD SWAP1 POP PUSH2 0x4776 DUP2 PUSH2 0x3EBA JUMP JUMPDEST SWAP3 SWAP2 POP POP JUMP JUMPDEST PUSH1 0x0 PUSH2 0x1E0 DUP3 DUP5 SUB SLT ISZERO PUSH2 0x4793 JUMPI PUSH2 0x4792 PUSH2 0x46B6 JUMP JUMPDEST JUMPDEST PUSH2 0x479E PUSH2 0x1E0 PUSH2 0x46FD JUMP JUMPDEST SWAP1 POP PUSH1 0x0 PUSH2 0x47AE DUP5 DUP3 DUP6 ADD PUSH2 0x4718 JUMP JUMPDEST PUSH1 0x0 DUP4 ADD MSTORE POP PUSH1 0x20 PUSH2 0x47C2 DUP5 DUP3 DUP6 ADD PUSH2 0x4718 JUMP JUMPDEST PUSH1 0x20 DUP4 ADD MSTORE POP PUSH1 0x40 PUSH2 0x47D6 DUP5 DUP3 DUP6 ADD PUSH2 0x4718 JUMP JUMPDEST PUSH1 0x40 DUP4 ADD MSTORE POP PUSH1 0x60 PUSH2 0x47EA DUP5 DUP3 DUP6 ADD PUSH2 0x4718 JUMP JUMPDEST PUSH1 0x60 DUP4 ADD MSTORE POP PUSH1 0x80 PUSH2 0x47FE DUP5 DUP3 DUP6 ADD PUSH2 0x4752 JUMP JUMPDEST PUSH1 0x80 DUP4 ADD MSTORE POP PUSH1 0xA0 PUSH2 0x4812 DUP5 DUP3 DUP6 ADD PUSH2 0x4718 JUMP JUMPDEST PUSH1 0xA0 DUP4 ADD MSTORE POP PUSH1 0xC0 PUSH2 0x4826 DUP5 DUP3 DUP6 ADD PUSH2 0x4718 JUMP JUMPDEST PUSH1 0xC0 DUP4 ADD MSTORE POP PUSH1 0xE0 PUSH2 0x483A DUP5 DUP3 DUP6 ADD PUSH2 0x4718 JUMP JUMPDEST PUSH1 0xE0 DUP4 ADD MSTORE POP PUSH2 0x100 PUSH2 0x484F DUP5 DUP3 DUP6 ADD PUSH2 0x4718 JUMP JUMPDEST PUSH2 0x100 DUP4 ADD MSTORE POP PUSH2 0x120 PUSH2 0x4865 DUP5 DUP3 DUP6 ADD PUSH2 0x4718 JUMP JUMPDEST PUSH2 0x120 DUP4 ADD MSTORE POP PUSH2 0x140 PUSH2 0x487B DUP5 DUP3 DUP6 ADD PUSH2 0x4718 JUMP JUMPDEST PUSH2 0x140 DUP4 ADD MSTORE POP PUSH2 0x160 PUSH2 0x4891 DUP5 DUP3 DUP6 ADD PUSH2 0x4718 JUMP JUMPDEST PUSH2 0x160 DUP4 ADD MSTORE POP PUSH2 0x180 PUSH2 0x48A7 DUP5 DUP3 DUP6 ADD PUSH2 0x4767 JUMP JUMPDEST PUSH2 0x180 DUP4 ADD MSTORE POP PUSH2 0x1A0 PUSH2 0x48BD DUP5 DUP3 DUP6 ADD PUSH2 0x4767 JUMP JUMPDEST PUSH2 0x1A0 DUP4 ADD MSTORE POP PUSH2 0x1C0 PUSH2 0x48D3 DUP5 DUP3 DUP6 ADD PUSH2 0x4718 JUMP JUMPDEST PUSH2 0x1C0 DUP4 ADD MSTORE POP SWAP3 SWAP2 POP POP JUMP JUMPDEST PUSH1 0x0 PUSH2 0x1E0 DUP3 DUP5 SUB SLT ISZERO PUSH2 0x48F7 JUMPI PUSH2 0x48F6 PUSH2 0x3AA8 JUMP JUMPDEST JUMPDEST PUSH1 0x0 PUSH2 0x4905 DUP5 DUP3 DUP6 ADD PUSH2 0x477C JUMP JUMPDEST SWAP2 POP POP SWAP3 SWAP2 POP POP JUMP JUMPDEST PUSH1 0x0 PUSH2 0x4919 DUP3 PUSH2 0x3B10 JUMP JUMPDEST SWAP2 POP PUSH2 0x4924 DUP4 PUSH2 0x3B10 JUMP JUMPDEST SWAP3 POP DUP3 DUP3 ADD SWAP1 POP PUSH1 0xFF DUP2 GT ISZERO PUSH2 0x493D JUMPI PUSH2 0x493C PUSH2 0x43C4 JUMP JUMPDEST JUMPDEST SWAP3 SWAP2 POP POP JUMP JUMPDEST PUSH1 0x0 PUSH1 0x20 DUP3 DUP5 SUB SLT ISZERO PUSH2 0x4959 JUMPI PUSH2 0x4958 PUSH2 0x3AA8 JUMP JUMPDEST JUMPDEST PUSH1 0x0 PUSH2 0x4967 DUP5 DUP3 DUP6 ADD PUSH2 0x4718 JUMP JUMPDEST SWAP2 POP POP SWAP3 SWAP2 POP POP JUMP JUMPDEST PUSH1 0x0 PUSH1 0xA0 DUP3 ADD SWAP1 POP PUSH2 0x4985 PUSH1 0x0 DUP4 ADD DUP9 PUSH2 0x3B1D JUMP JUMPDEST PUSH2 0x4992 PUSH1 0x20 DUP4 ADD DUP8 PUSH2 0x3B1D JUMP JUMPDEST PUSH2 0x499F PUSH1 0x40 DUP4 ADD DUP7 PUSH2 0x3B1D JUMP JUMPDEST PUSH2 0x49AC PUSH1 0x60 DUP4 ADD DUP6 PUSH2 0x3B1D JUMP JUMPDEST PUSH2 0x49B9 PUSH1 0x80 DUP4 ADD DUP5 PUSH2 0x3B47 JUMP JUMPDEST SWAP7 SWAP6 POP POP POP POP POP POP JUMP JUMPDEST PUSH1 0x0 PUSH1 0x20 DUP3 ADD SWAP1 POP PUSH2 0x49D8 PUSH1 0x0 DUP4 ADD DUP5 PUSH2 0x3F38 JUMP JUMPDEST SWAP3 SWAP2 POP POP JUMP JUMPDEST PUSH2 0x49E7 DUP2 PUSH2 0x3B3B JUMP JUMPDEST DUP2 EQ PUSH2 0x49F2 JUMPI PUSH1 0x0 DUP1 REVERT JUMPDEST POP JUMP JUMPDEST PUSH1 0x0 DUP2 MLOAD SWAP1 POP PUSH2 0x4A04 DUP2 PUSH2 0x49DE JUMP JUMPDEST SWAP3 SWAP2 POP POP JUMP JUMPDEST PUSH1 0x0 PUSH1 0x20 DUP3 DUP5 SUB SLT ISZERO PUSH2 0x4A20 JUMPI PUSH2 0x4A1F PUSH2 0x3AA8 JUMP JUMPDEST JUMPDEST PUSH1 0x0 PUSH2 0x4A2E DUP5 DUP3 DUP6 ADD PUSH2 0x49F5 JUMP JUMPDEST SWAP2 POP POP SWAP3 SWAP2 POP POP JUMP JUMPDEST PUSH32 0x596F75206D75737420686176652061204D61726B657400000000000000000000 PUSH1 0x0 DUP3 ADD MSTORE POP JUMP JUMPDEST PUSH1 0x0 PUSH2 0x4A6D PUSH1 0x16 DUP4 PUSH2 0x44F6 JUMP JUMPDEST SWAP2 POP PUSH2 0x4A78 DUP3 PUSH2 0x4A37 JUMP JUMPDEST PUSH1 0x20 DUP3 ADD SWAP1 POP SWAP2 SWAP1 POP JUMP JUMPDEST PUSH1 0x0 PUSH1 0x20 DUP3 ADD SWAP1 POP DUP2 DUP2 SUB PUSH1 0x0 DUP4 ADD MSTORE PUSH2 0x4A9C DUP2 PUSH2 0x4A60 JUMP JUMPDEST SWAP1 POP SWAP2 SWAP1 POP JUMP JUMPDEST PUSH32 0x496E76616C696420696E64657800000000000000000000000000000000000000 PUSH1 0x0 DUP3 ADD MSTORE POP JUMP JUMPDEST PUSH1 0x0 PUSH2 0x4AD9 PUSH1 0xD DUP4 PUSH2 0x44F6 JUMP JUMPDEST SWAP2 POP PUSH2 0x4AE4 DUP3 PUSH2 0x4AA3 JUMP JUMPDEST PUSH1 0x20 DUP3 ADD SWAP1 POP SWAP2 SWAP1 POP JUMP JUMPDEST PUSH1 0x0 PUSH1 0x20 DUP3 ADD SWAP1 POP DUP2 DUP2 SUB PUSH1 0x0 DUP4 ADD MSTORE PUSH2 0x4B08 DUP2 PUSH2 0x4ACC JUMP JUMPDEST SWAP1 POP SWAP2 SWAP1 POP JUMP JUMPDEST PUSH1 0x0 PUSH2 0x4B1A DUP3 PUSH2 0x3AAD JUMP JUMPDEST SWAP2 POP PUSH2 0x4B25 DUP4 PUSH2 0x3AAD JUMP JUMPDEST SWAP3 POP DUP3 DUP3 MUL PUSH2 0x4B33 DUP2 PUSH2 0x3AAD JUMP JUMPDEST SWAP2 POP DUP3 DUP3 DIV DUP5 EQ DUP4 ISZERO OR PUSH2 0x4B4A JUMPI PUSH2 0x4B49 PUSH2 0x43C4 JUMP JUMPDEST JUMPDEST POP SWAP3 SWAP2 POP POP JUMP JUMPDEST PUSH32 0x4E487B7100000000000000000000000000000000000000000000000000000000 PUSH1 0x0 MSTORE PUSH1 0x12 PUSH1 0x4 MSTORE PUSH1 0x24 PUSH1 0x0 REVERT JUMPDEST PUSH1 0x0 PUSH2 0x4B8B DUP3 PUSH2 0x3AAD JUMP JUMPDEST SWAP2 POP PUSH2 0x4B96 DUP4 PUSH2 0x3AAD JUMP JUMPDEST SWAP3 POP DUP3 PUSH2 0x4BA6 JUMPI PUSH2 0x4BA5 PUSH2 0x4B51 JUMP JUMPDEST JUMPDEST DUP3 DUP3 DIV SWAP1 POP SWAP3 SWAP2 POP POP JUMP JUMPDEST PUSH1 0x0 PUSH1 0x60 DUP3 ADD SWAP1 POP PUSH2 0x4BC6 PUSH1 0x0 DUP4 ADD DUP7 PUSH2 0x3F38 JUMP JUMPDEST PUSH2 0x4BD3 PUSH1 0x20 DUP4 ADD DUP6 PUSH2 0x3F38 JUMP JUMPDEST PUSH2 0x4BE0 PUSH1 0x40 DUP4 ADD DUP5 PUSH2 0x3B2C JUMP JUMPDEST SWAP5 SWAP4 POP POP POP POP JUMP JUMPDEST PUSH32 0x546F6B656E207472616E7366657220746F20636F6E7472616374206661696C65 PUSH1 0x0 DUP3 ADD MSTORE PUSH32 0x6400000000000000000000000000000000000000000000000000000000000000 PUSH1 0x20 DUP3 ADD MSTORE POP JUMP JUMPDEST PUSH1 0x0 PUSH2 0x4C44 PUSH1 0x21 DUP4 PUSH2 0x44F6 JUMP JUMPDEST SWAP2 POP PUSH2 0x4C4F DUP3 PUSH2 0x4BE8 JUMP JUMPDEST PUSH1 0x40 DUP3 ADD SWAP1 POP SWAP2 SWAP1 POP JUMP JUMPDEST PUSH1 0x0 PUSH1 0x20 DUP3 ADD SWAP1 POP DUP2 DUP2 SUB PUSH1 0x0 DUP4 ADD MSTORE PUSH2 0x4C73 DUP2 PUSH2 0x4C37 JUMP JUMPDEST SWAP1 POP SWAP2 SWAP1 POP JUMP JUMPDEST PUSH32 0x5472616E7366657220746F2073656C6C6572206661696C656400000000000000 PUSH1 0x0 DUP3 ADD MSTORE POP JUMP JUMPDEST PUSH1 0x0 PUSH2 0x4CB0 PUSH1 0x19 DUP4 PUSH2 0x44F6 JUMP JUMPDEST SWAP2 POP PUSH2 0x4CBB DUP3 PUSH2 0x4C7A JUMP JUMPDEST PUSH1 0x20 DUP3 ADD SWAP1 POP SWAP2 SWAP1 POP JUMP JUMPDEST PUSH1 0x0 PUSH1 0x20 DUP3 ADD SWAP1 POP DUP2 DUP2 SUB PUSH1 0x0 DUP4 ADD MSTORE PUSH2 0x4CDF DUP2 PUSH2 0x4CA3 JUMP JUMPDEST SWAP1 POP SWAP2 SWAP1 POP JUMP JUMPDEST PUSH32 0x4C4F50206275726E206661696C65640000000000000000000000000000000000 PUSH1 0x0 DUP3 ADD MSTORE POP JUMP JUMPDEST PUSH1 0x0 PUSH2 0x4D1C PUSH1 0xF DUP4 PUSH2 0x44F6 JUMP JUMPDEST SWAP2 POP PUSH2 0x4D27 DUP3 PUSH2 0x4CE6 JUMP JUMPDEST PUSH1 0x20 DUP3 ADD SWAP1 POP SWAP2 SWAP1 POP JUMP JUMPDEST PUSH1 0x0 PUSH1 0x20 DUP3 ADD SWAP1 POP DUP2 DUP2 SUB PUSH1 0x0 DUP4 ADD MSTORE PUSH2 0x4D4B DUP2 PUSH2 0x4D0F JUMP JUMPDEST SWAP1 POP SWAP2 SWAP1 POP JUMP JUMPDEST PUSH1 0x0 PUSH1 0xA0 DUP3 ADD SWAP1 POP PUSH2 0x4D67 PUSH1 0x0 DUP4 ADD DUP9 PUSH2 0x3B1D JUMP JUMPDEST PUSH2 0x4D74 PUSH1 0x20 DUP4 ADD DUP8 PUSH2 0x3B1D JUMP JUMPDEST PUSH2 0x4D81 PUSH1 0x40 DUP4 ADD DUP7 PUSH2 0x3B1D JUMP JUMPDEST PUSH2 0x4D8E PUSH1 0x60 DUP4 ADD DUP6 PUSH2 0x3B2C JUMP JUMPDEST PUSH2 0x4D9B PUSH1 0x80 DUP4 ADD DUP5 PUSH2 0x3B47 JUMP JUMPDEST SWAP7 SWAP6 POP POP POP POP POP POP JUMP JUMPDEST PUSH32 0x4E487B7100000000000000000000000000000000000000000000000000000000 PUSH1 0x0 MSTORE PUSH1 0x31 PUSH1 0x4 MSTORE PUSH1 0x24 PUSH1 0x0 REVERT JUMPDEST PUSH1 0x0 PUSH1 0x40 DUP3 ADD SWAP1 POP PUSH2 0x4DE9 PUSH1 0x0 DUP4 ADD DUP6 PUSH2 0x3B2C JUMP JUMPDEST PUSH2 0x4DF6 PUSH1 0x20 DUP4 ADD DUP5 PUSH2 0x3B2C JUMP JUMPDEST SWAP4 SWAP3 POP POP POP JUMP JUMPDEST PUSH32 0x5072696365206D7573742062652067726561746572207468616E207A65726F00 PUSH1 0x0 DUP3 ADD MSTORE POP JUMP JUMPDEST PUSH1 0x0 PUSH2 0x4E33 PUSH1 0x1F DUP4 PUSH2 0x44F6 JUMP JUMPDEST SWAP2 POP PUSH2 0x4E3E DUP3 PUSH2 0x4DFD JUMP JUMPDEST PUSH1 0x20 DUP3 ADD SWAP1 POP SWAP2 SWAP1 POP JUMP JUMPDEST PUSH1 0x0 PUSH1 0x20 DUP3 ADD SWAP1 POP DUP2 DUP2 SUB PUSH1 0x0 DUP4 ADD MSTORE PUSH2 0x4E62 DUP2 PUSH2 0x4E26 JUMP JUMPDEST SWAP1 POP SWAP2 SWAP1 POP JUMP JUMPDEST PUSH32 0x496E76616C696420616D6F756E7420666F72207265736F757263650000000000 PUSH1 0x0 DUP3 ADD MSTORE POP JUMP JUMPDEST PUSH1 0x0 PUSH2 0x4E9F PUSH1 0x1B DUP4 PUSH2 0x44F6 JUMP JUMPDEST SWAP2 POP PUSH2 0x4EAA DUP3 PUSH2 0x4E69 JUMP JUMPDEST PUSH1 0x20 DUP3 ADD SWAP1 POP SWAP2 SWAP1 POP JUMP JUMPDEST PUSH1 0x0 PUSH1 0x20 DUP3 ADD SWAP1 POP DUP2 DUP2 SUB PUSH1 0x0 DUP4 ADD MSTORE PUSH2 0x4ECE DUP2 PUSH2 0x4E92 JUMP JUMPDEST SWAP1 POP SWAP2 SWAP1 POP JUMP JUMPDEST PUSH32 0x496E76616C696420616D6F756E7420666F72206D696C69746172792065717569 PUSH1 0x0 DUP3 ADD MSTORE PUSH32 0x706D656E74000000000000000000000000000000000000000000000000000000 PUSH1 0x20 DUP3 ADD MSTORE POP JUMP JUMPDEST PUSH1 0x0 PUSH2 0x4F31 PUSH1 0x25 DUP4 PUSH2 0x44F6 JUMP JUMPDEST SWAP2 POP PUSH2 0x4F3C DUP3 PUSH2 0x4ED5 JUMP JUMPDEST PUSH1 0x40 DUP3 ADD SWAP1 POP SWAP2 SWAP1 POP JUMP JUMPDEST PUSH1 0x0 PUSH1 0x20 DUP3 ADD SWAP1 POP DUP2 DUP2 SUB PUSH1 0x0 DUP4 ADD MSTORE PUSH2 0x4F60 DUP2 PUSH2 0x4F24 JUMP JUMPDEST SWAP1 POP SWAP2 SWAP1 POP JUMP JUMPDEST PUSH1 0x0 PUSH2 0x4F72 DUP3 PUSH2 0x3AAD JUMP JUMPDEST SWAP2 POP PUSH2 0x4F7D DUP4 PUSH2 0x3AAD JUMP JUMPDEST SWAP3 POP DUP3 DUP3 ADD SWAP1 POP DUP1 DUP3 GT ISZERO PUSH2 0x4F95 JUMPI PUSH2 0x4F94 PUSH2 0x43C4 JUMP JUMPDEST JUMPDEST SWAP3 SWAP2 POP POP JUMP JUMPDEST PUSH32 0x43616E27742061747461636B20796F757273656C660000000000000000000000 PUSH1 0x0 DUP3 ADD MSTORE POP JUMP JUMPDEST PUSH1 0x0 PUSH2 0x4FD1 PUSH1 0x15 DUP4 PUSH2 0x44F6 JUMP JUMPDEST SWAP2 POP PUSH2 0x4FDC DUP3 PUSH2 0x4F9B JUMP JUMPDEST PUSH1 0x20 DUP3 ADD SWAP1 POP SWAP2 SWAP1 POP JUMP JUMPDEST PUSH1 0x0 PUSH1 0x20 DUP3 ADD SWAP1 POP DUP2 DUP2 SUB PUSH1 0x0 DUP4 ADD MSTORE PUSH2 0x5000 DUP2 PUSH2 0x4FC4 JUMP JUMPDEST SWAP1 POP SWAP2 SWAP1 POP JUMP JUMPDEST PUSH1 0x0 PUSH1 0x20 DUP3 DUP5 SUB SLT ISZERO PUSH2 0x501D JUMPI PUSH2 0x501C PUSH2 0x3AA8 JUMP JUMPDEST JUMPDEST PUSH1 0x0 PUSH2 0x502B DUP5 DUP3 DUP6 ADD PUSH2 0x4767 JUMP JUMPDEST SWAP2 POP POP SWAP3 SWAP2 POP POP JUMP JUMPDEST PUSH32 0x43616E6E6F742061747461636B2061206D656D626572206F6620796F7572206F PUSH1 0x0 DUP3 ADD MSTORE PUSH32 0x776E20636C616E00000000000000000000000000000000000000000000000000 PUSH1 0x20 DUP3 ADD MSTORE POP JUMP JUMPDEST PUSH1 0x0 PUSH2 0x5090 PUSH1 0x27 DUP4 PUSH2 0x44F6 JUMP JUMPDEST SWAP2 POP PUSH2 0x509B DUP3 PUSH2 0x5034 JUMP JUMPDEST PUSH1 0x40 DUP3 ADD SWAP1 POP SWAP2 SWAP1 POP JUMP JUMPDEST PUSH1 0x0 PUSH1 0x20 DUP3 ADD SWAP1 POP DUP2 DUP2 SUB PUSH1 0x0 DUP4 ADD MSTORE PUSH2 0x50BF DUP2 PUSH2 0x5083 JUMP JUMPDEST SWAP1 POP SWAP2 SWAP1 POP JUMP JUMPDEST PUSH32 0x54617267657420746F6F20666172206F722073616D652074696C650000000000 PUSH1 0x0 DUP3 ADD MSTORE POP JUMP JUMPDEST PUSH1 0x0 PUSH2 0x50FC PUSH1 0x1B DUP4 PUSH2 0x44F6 JUMP JUMPDEST SWAP2 POP PUSH2 0x5107 DUP3 PUSH2 0x50C6 JUMP JUMPDEST PUSH1 0x20 DUP3 ADD SWAP1 POP SWAP2 SWAP1 POP JUMP JUMPDEST PUSH1 0x0 PUSH1 0x20 DUP3 ADD SWAP1 POP DUP2 DUP2 SUB PUSH1 0x0 DUP4 ADD MSTORE PUSH2 0x512B DUP2 PUSH2 0x50EF JUMP JUMPDEST SWAP1 POP SWAP2 SWAP1 POP JUMP JUMPDEST PUSH32 0x4E6F7420656E6F756768207475726E732073696E6365206C6173742061747461 PUSH1 0x0 DUP3 ADD MSTORE PUSH32 0x636B000000000000000000000000000000000000000000000000000000000000 PUSH1 0x20 DUP3 ADD MSTORE POP JUMP JUMPDEST PUSH1 0x0 PUSH2 0x518E PUSH1 0x22 DUP4 PUSH2 0x44F6 JUMP JUMPDEST SWAP2 POP PUSH2 0x5199 DUP3 PUSH2 0x5132 JUMP JUMPDEST PUSH1 0x40 DUP3 ADD SWAP1 POP SWAP2 SWAP1 POP JUMP JUMPDEST PUSH1 0x0 PUSH1 0x20 DUP3 ADD SWAP1 POP DUP2 DUP2 SUB PUSH1 0x0 DUP4 ADD MSTORE PUSH2 0x51BD DUP2 PUSH2 0x5181 JUMP JUMPDEST SWAP1 POP SWAP2 SWAP1 POP JUMP JUMPDEST PUSH32 0x446566656E64657220697320756E64657220636F6F6C646F776E2070726F7465 PUSH1 0x0 DUP3 ADD MSTORE PUSH32 0x6374696F6E000000000000000000000000000000000000000000000000000000 PUSH1 0x20 DUP3 ADD MSTORE POP JUMP JUMPDEST PUSH1 0x0 PUSH2 0x5220 PUSH1 0x25 DUP4 PUSH2 0x44F6 JUMP JUMPDEST SWAP2 POP PUSH2 0x522B DUP3 PUSH2 0x51C4 JUMP JUMPDEST PUSH1 0x40 DUP3 ADD SWAP1 POP SWAP2 SWAP1 POP JUMP JUMPDEST PUSH1 0x0 PUSH1 0x20 DUP3 ADD SWAP1 POP DUP2 DUP2 SUB PUSH1 0x0 DUP4 ADD MSTORE PUSH2 0x524F DUP2 PUSH2 0x5213 JUMP JUMPDEST SWAP1 POP SWAP2 SWAP1 POP JUMP JUMPDEST PUSH1 0x0 PUSH2 0x5261 DUP3 PUSH2 0x3B10 JUMP JUMPDEST SWAP2 POP PUSH2 0x526C DUP4 PUSH2 0x3B10 JUMP JUMPDEST SWAP3 POP DUP3 DUP3 SUB SWAP1 POP PUSH1 0xFF DUP2 GT ISZERO PUSH2 0x5285 JUMPI PUSH2 0x5284 PUSH2 0x43C4 JUMP JUMPDEST JUMPDEST SWAP3 SWAP2 POP POP JUMP JUMPDEST PUSH1 0x0 DUP2 SWAP1 POP SWAP2 SWAP1 POP JUMP JUMPDEST PUSH1 0x0 PUSH2 0x52B0 PUSH2 0x52AB PUSH2 0x52A6 DUP5 PUSH2 0x528B JUMP JUMPDEST PUSH2 0x3E25 JUMP JUMPDEST PUSH2 0x3B10 JUMP JUMPDEST SWAP1 POP SWAP2 SWAP1 POP JUMP JUMPDEST PUSH2 0x52C0 DUP2 PUSH2 0x5295 JUMP JUMPDEST DUP3 MSTORE POP POP JUMP JUMPDEST PUSH1 0x0 PUSH1 0xA0 DUP3 ADD SWAP1 POP PUSH2 0x52DB PUSH1 0x0 DUP4 ADD DUP9 PUSH2 0x3B1D JUMP JUMPDEST PUSH2 0x52E8 PUSH1 0x20 DUP4 ADD DUP8 PUSH2 0x3B1D JUMP JUMPDEST PUSH2 0x52F5 PUSH1 0x40 DUP4 ADD DUP7 PUSH2 0x52B7 JUMP JUMPDEST PUSH2 0x5302 PUSH1 0x60 DUP4 ADD DUP6 PUSH2 0x3B2C JUMP JUMPDEST PUSH2 0x530F PUSH1 0x80 DUP4 ADD DUP5 PUSH2 0x3B47 JUMP JUMPDEST SWAP7 SWAP6 POP POP POP POP POP POP JUMP JUMPDEST PUSH1 0x0 DUP2 SWAP1 POP SWAP2 SWAP1 POP JUMP JUMPDEST PUSH1 0x0 PUSH2 0x533E PUSH2 0x5339 PUSH2 0x5334 DUP5 PUSH2 0x5319 JUMP JUMPDEST PUSH2 0x3E25 JUMP JUMPDEST PUSH2 0x3B10 JUMP JUMPDEST SWAP1 POP SWAP2 SWAP1 POP JUMP JUMPDEST PUSH2 0x534E DUP2 PUSH2 0x5323 JUMP JUMPDEST DUP3 MSTORE POP POP JUMP JUMPDEST PUSH1 0x0 PUSH1 0xA0 DUP3 ADD SWAP1 POP PUSH2 0x5369 PUSH1 0x0 DUP4 ADD DUP9 PUSH2 0x3B1D JUMP JUMPDEST PUSH2 0x5376 PUSH1 0x20 DUP4 ADD DUP8 PUSH2 0x3B1D JUMP JUMPDEST PUSH2 0x5383 PUSH1 0x40 DUP4 ADD DUP7 PUSH2 0x5345 JUMP JUMPDEST PUSH2 0x5390 PUSH1 0x60 DUP4 ADD DUP6 PUSH2 0x3B2C JUMP JUMPDEST PUSH2 0x539D PUSH1 0x80 DUP4 ADD DUP5 PUSH2 0x3B47 JUMP JUMPDEST SWAP7 SWAP6 POP POP POP POP POP POP JUMP JUMPDEST PUSH1 0x0 DUP2 SWAP1 POP SWAP2 SWAP1 POP JUMP JUMPDEST PUSH1 0x0 PUSH2 0x53CC PUSH2 0x53C7 PUSH2 0x53C2 DUP5 PUSH2 0x53A7 JUMP JUMPDEST PUSH2 0x3E25 JUMP JUMPDEST PUSH2 0x3B10 JUMP JUMPDEST SWAP1 POP SWAP2 SWAP1 POP JUMP JUMPDEST PUSH2 0x53DC DUP2 PUSH2 0x53B1 JUMP JUMPDEST DUP3 MSTORE POP POP JUMP JUMPDEST PUSH1 0x0 PUSH1 0xA0 DUP3 ADD SWAP1 POP PUSH2 0x53F7 PUSH1 0x0 DUP4 ADD DUP9 PUSH2 0x3B1D JUMP JUMPDEST PUSH2 0x5404 PUSH1 0x20 DUP4 ADD DUP8 PUSH2 0x3B1D JUMP JUMPDEST PUSH2 0x5411 PUSH1 0x40 DUP4 ADD DUP7 PUSH2 0x53D3 JUMP JUMPDEST PUSH2 0x541E PUSH1 0x60 DUP4 ADD DUP6 PUSH2 0x3B2C JUMP JUMPDEST PUSH2 0x542B PUSH1 0x80 DUP4 ADD DUP5 PUSH2 0x3B47 JUMP JUMPDEST SWAP7 SWAP6 POP POP POP POP POP POP JUMP JUMPDEST PUSH1 0x0 DUP2 SWAP1 POP SWAP2 SWAP1 POP JUMP JUMPDEST PUSH1 0x0 PUSH2 0x545A PUSH2 0x5455 PUSH2 0x5450 DUP5 PUSH2 0x5435 JUMP JUMPDEST PUSH2 0x3E25 JUMP JUMPDEST PUSH2 0x3B10 JUMP JUMPDEST SWAP1 POP SWAP2 SWAP1 POP JUMP JUMPDEST PUSH2 0x546A DUP2 PUSH2 0x543F JUMP JUMPDEST DUP3 MSTORE POP POP JUMP JUMPDEST PUSH1 0x0 PUSH1 0xA0 DUP3 ADD SWAP1 POP PUSH2 0x5485 PUSH1 0x0 DUP4 ADD DUP9 PUSH2 0x3B1D JUMP JUMPDEST PUSH2 0x5492 PUSH1 0x20 DUP4 ADD DUP8 PUSH2 0x3B1D JUMP JUMPDEST PUSH2 0x549F PUSH1 0x40 DUP4 ADD DUP7 PUSH2 0x5461 JUMP JUMPDEST PUSH2 0x54AC PUSH1 0x60 DUP4 ADD DUP6 PUSH2 0x3B2C JUMP JUMPDEST PUSH2 0x54B9 PUSH1 0x80 DUP4 ADD DUP5 PUSH2 0x3B47 JUMP JUMPDEST SWAP7 SWAP6 POP POP POP POP POP POP JUMP JUMPDEST PUSH1 0x0 DUP2 SWAP1 POP SWAP2 SWAP1 POP JUMP JUMPDEST PUSH1 0x0 PUSH2 0x54E8 PUSH2 0x54E3 PUSH2 0x54DE DUP5 PUSH2 0x54C3 JUMP JUMPDEST PUSH2 0x3E25 JUMP JUMPDEST PUSH2 0x3B10 JUMP JUMPDEST SWAP1 POP SWAP2 SWAP1 POP JUMP JUMPDEST PUSH2 0x54F8 DUP2 PUSH2 0x54CD JUMP JUMPDEST DUP3 MSTORE POP POP JUMP JUMPDEST PUSH1 0x0 PUSH1 0xA0 DUP3 ADD SWAP1 POP PUSH2 0x5513 PUSH1 0x0 DUP4 ADD DUP9 PUSH2 0x3B1D JUMP JUMPDEST PUSH2 0x5520 PUSH1 0x20 DUP4 ADD DUP8 PUSH2 0x3B1D JUMP JUMPDEST PUSH2 0x552D PUSH1 0x40 DUP4 ADD DUP7 PUSH2 0x54EF JUMP JUMPDEST PUSH2 0x553A PUSH1 0x60 DUP4 ADD DUP6 PUSH2 0x3B2C JUMP JUMPDEST PUSH2 0x5547 PUSH1 0x80 DUP4 ADD DUP5 PUSH2 0x3B47 JUMP JUMPDEST SWAP7 SWAP6 POP POP POP POP POP POP JUMP JUMPDEST PUSH1 0x0 DUP2 SWAP1 POP SWAP2 SWAP1 POP JUMP JUMPDEST PUSH1 0x0 PUSH2 0x5576 PUSH2 0x5571 PUSH2 0x556C DUP5 PUSH2 0x5551 JUMP JUMPDEST PUSH2 0x3E25 JUMP JUMPDEST PUSH2 0x3B10 JUMP JUMPDEST SWAP1 POP SWAP2 SWAP1 POP JUMP JUMPDEST PUSH2 0x5586 DUP2 PUSH2 0x555B JUMP JUMPDEST DUP3 MSTORE POP POP JUMP JUMPDEST PUSH1 0x0 PUSH1 0xA0 DUP3 ADD SWAP1 POP PUSH2 0x55A1 PUSH1 0x0 DUP4 ADD DUP9 PUSH2 0x3B1D JUMP JUMPDEST PUSH2 0x55AE PUSH1 0x20 DUP4 ADD DUP8 PUSH2 0x3B1D JUMP JUMPDEST PUSH2 0x55BB PUSH1 0x40 DUP4 ADD DUP7 PUSH2 0x557D JUMP JUMPDEST PUSH2 0x55C8 PUSH1 0x60 DUP4 ADD DUP6 PUSH2 0x3B2C JUMP JUMPDEST PUSH2 0x55D5 PUSH1 0x80 DUP4 ADD DUP5 PUSH2 0x3B47 JUMP JUMPDEST SWAP7 SWAP6 POP POP POP POP POP POP JUMP INVALID LOG2 PUSH5 0x6970667358 0x22 SLT KECCAK256 0xEE 0xEB 0xC4 0xFB 0x23 0xC4 PUSH17 0xED2842294B3167D041FA86E28B19ADF238 0xB1 PC 0xDA PUSH14 0xDBD131EE64736F6C634300081200 CALLER "
		},
		"gasEstimates": {
			"creation": {
				"codeDepositCost": "4407400",
				"executionCost": "infinite",
				"totalCost": "infinite"
			},
			"external": {
				"ATTACK_COST_FACTOR()": "419",
				"attackTile(uint8,uint8,uint8,uint8)": "infinite",
				"buyItem(uint8,uint8,uint8,uint256)": "infinite",
				"clanContract()": "infinite",
				"getAllPlayerWars(address)": "infinite",
				"getAllWarHistory()": "infinite",
				"getListingsByResourceType(uint8)": "infinite",
				"getRecentPlayerWars(address)": "infinite",
				"getRecentWarHistory()": "infinite",
				"lastAttackTurn(uint8,uint8)": "infinite",
				"lastDefenseTurn(uint8,uint8)": "infinite",
				"listItemForSale(uint8,uint8,uint8,uint256,uint256)": "infinite",
				"lopToken()": "infinite",
				"marketListings(uint8,uint256)": "infinite",
				"playerWars(address,uint256)": "infinite",
				"theLand()": "infinite",
				"tileMapPhaser()": "infinite",
				"warHistory(uint256)": "infinite"
			},
			"internal": {
				"_absDiff(uint8,uint8)": "infinite",
				"_applySoldierLoss(uint8,uint8,uint8,uint8,struct ITheLand.TileDataResponse memory,struct ITheLand.TileDataResponse memory)": "infinite",
				"_calculatePowers(struct ITheLand.TileDataResponse memory,struct ITheLand.TileDataResponse memory)": "infinite",
				"_payAttackResourceCost(uint8,uint8,uint8,struct ITheLand.TileDataResponse memory)": "infinite",
				"_stealResources(uint8,uint8,uint8,uint8,struct ITheLand.TileDataResponse memory)": "infinite",
				"_validateAttack(uint8,uint8,uint8,uint8,address,address)": "infinite"
			}
		},
		"methodIdentifiers": {
			"ATTACK_COST_FACTOR()": "10ac4633",
			"attackTile(uint8,uint8,uint8,uint8)": "697e71d2",
			"buyItem(uint8,uint8,uint8,uint256)": "999a2f7a",
			"clanContract()": "c49443ac",
			"getAllPlayerWars(address)": "8972ae26",
			"getAllWarHistory()": "2456028b",
			"getListingsByResourceType(uint8)": "4b4d9f89",
			"getRecentPlayerWars(address)": "40ca262a",
			"getRecentWarHistory()": "03c59f79",
			"lastAttackTurn(uint8,uint8)": "763540cd",
			"lastDefenseTurn(uint8,uint8)": "70d27e41",
			"listItemForSale(uint8,uint8,uint8,uint256,uint256)": "ca030079",
			"lopToken()": "0d67f59e",
			"marketListings(uint8,uint256)": "3e6abf42",
			"playerWars(address,uint256)": "8e9197b4",
			"theLand()": "b0d77774",
			"tileMapPhaser()": "4f264b03",
			"warHistory(uint256)": "0075c079"
		}
	},
	"abi": [
		{
			"inputs": [
				{
					"internalType": "address",
					"name": "_theLand",
					"type": "address"
				},
				{
					"internalType": "address",
					"name": "_lopToken",
					"type": "address"
				},
				{
					"internalType": "address",
					"name": "_tileMapPhaser",
					"type": "address"
				},
				{
					"internalType": "address",
					"name": "_clanContract",
					"type": "address"
				}
			],
			"stateMutability": "nonpayable",
			"type": "constructor"
		},
		{
			"anonymous": false,
			"inputs": [
				{
					"indexed": true,
					"internalType": "address",
					"name": "seller",
					"type": "address"
				},
				{
					"indexed": true,
					"internalType": "uint8",
					"name": "resourceType",
					"type": "uint8"
				},
				{
					"indexed": false,
					"internalType": "uint256",
					"name": "amount",
					"type": "uint256"
				},
				{
					"indexed": false,
					"internalType": "uint256",
					"name": "price",
					"type": "uint256"
				}
			],
			"name": "ItemListed",
			"type": "event"
		},
		{
			"anonymous": false,
			"inputs": [
				{
					"indexed": true,
					"internalType": "address",
					"name": "buyer",
					"type": "address"
				},
				{
					"indexed": true,
					"internalType": "address",
					"name": "seller",
					"type": "address"
				},
				{
					"indexed": true,
					"internalType": "uint8",
					"name": "resourceType",
					"type": "uint8"
				},
				{
					"indexed": false,
					"internalType": "uint256",
					"name": "amount",
					"type": "uint256"
				},
				{
					"indexed": false,
					"internalType": "uint256",
					"name": "price",
					"type": "uint256"
				}
			],
			"name": "ItemPurchased",
			"type": "event"
		},
		{
			"anonymous": false,
			"inputs": [
				{
					"indexed": true,
					"internalType": "address",
					"name": "seller",
					"type": "address"
				},
				{
					"indexed": true,
					"internalType": "uint8",
					"name": "resourceType",
					"type": "uint8"
				},
				{
					"indexed": false,
					"internalType": "uint256",
					"name": "amount",
					"type": "uint256"
				}
			],
			"name": "ItemRemoved",
			"type": "event"
		},
		{
			"anonymous": false,
			"inputs": [
				{
					"indexed": true,
					"internalType": "address",
					"name": "attacker",
					"type": "address"
				},
				{
					"indexed": false,
					"internalType": "uint8",
					"name": "attackerX",
					"type": "uint8"
				},
				{
					"indexed": false,
					"internalType": "uint8",
					"name": "attackerY",
					"type": "uint8"
				},
				{
					"indexed": true,
					"internalType": "address",
					"name": "defender",
					"type": "address"
				},
				{
					"indexed": false,
					"internalType": "uint8",
					"name": "defenderX",
					"type": "uint8"
				},
				{
					"indexed": false,
					"internalType": "uint8",
					"name": "defenderY",
					"type": "uint8"
				},
				{
					"indexed": false,
					"internalType": "bool",
					"name": "attackerWon",
					"type": "bool"
				}
			],
			"name": "TileAttacked",
			"type": "event"
		},
		{
			"inputs": [],
			"name": "ATTACK_COST_FACTOR",
			"outputs": [
				{
					"internalType": "uint256",
					"name": "",
					"type": "uint256"
				}
			],
			"stateMutability": "view",
			"type": "function"
		},
		{
			"inputs": [
				{
					"internalType": "uint8",
					"name": "ax",
					"type": "uint8"
				},
				{
					"internalType": "uint8",
					"name": "ay",
					"type": "uint8"
				},
				{
					"internalType": "uint8",
					"name": "dx",
					"type": "uint8"
				},
				{
					"internalType": "uint8",
					"name": "dy",
					"type": "uint8"
				}
			],
			"name": "attackTile",
			"outputs": [],
			"stateMutability": "nonpayable",
			"type": "function"
		},
		{
			"inputs": [
				{
					"internalType": "uint8",
					"name": "x",
					"type": "uint8"
				},
				{
					"internalType": "uint8",
					"name": "y",
					"type": "uint8"
				},
				{
					"internalType": "uint8",
					"name": "resourceType",
					"type": "uint8"
				},
				{
					"internalType": "uint256",
					"name": "index",
					"type": "uint256"
				}
			],
			"name": "buyItem",
			"outputs": [],
			"stateMutability": "nonpayable",
			"type": "function"
		},
		{
			"inputs": [],
			"name": "clanContract",
			"outputs": [
				{
					"internalType": "contract IClan",
					"name": "",
					"type": "address"
				}
			],
			"stateMutability": "view",
			"type": "function"
		},
		{
			"inputs": [
				{
					"internalType": "address",
					"name": "player",
					"type": "address"
				}
			],
			"name": "getAllPlayerWars",
			"outputs": [
				{
					"components": [
						{
							"internalType": "uint8",
							"name": "attackerX",
							"type": "uint8"
						},
						{
							"internalType": "uint8",
							"name": "attackerY",
							"type": "uint8"
						},
						{
							"internalType": "uint8",
							"name": "defenderX",
							"type": "uint8"
						},
						{
							"internalType": "uint8",
							"name": "defenderY",
							"type": "uint8"
						},
						{
							"internalType": "uint256",
							"name": "timestamp",
							"type": "uint256"
						},
						{
							"internalType": "bool",
							"name": "attackerWon",
							"type": "bool"
						},
						{
							"internalType": "uint256",
							"name": "atkOffSoldier",
							"type": "uint256"
						},
						{
							"internalType": "uint256",
							"name": "atkDefSoldier",
							"type": "uint256"
						},
						{
							"internalType": "uint8",
							"name": "atkTech",
							"type": "uint8"
						},
						{
							"internalType": "uint256",
							"name": "defOffSoldier",
							"type": "uint256"
						},
						{
							"internalType": "uint256",
							"name": "defDefSoldier",
							"type": "uint256"
						},
						{
							"internalType": "uint8",
							"name": "defTech",
							"type": "uint8"
						}
					],
					"internalType": "struct MarketPlace.WarRecord[]",
					"name": "",
					"type": "tuple[]"
				}
			],
			"stateMutability": "view",
			"type": "function"
		},
		{
			"inputs": [],
			"name": "getAllWarHistory",
			"outputs": [
				{
					"components": [
						{
							"internalType": "uint8",
							"name": "attackerX",
							"type": "uint8"
						},
						{
							"internalType": "uint8",
							"name": "attackerY",
							"type": "uint8"
						},
						{
							"internalType": "uint8",
							"name": "defenderX",
							"type": "uint8"
						},
						{
							"internalType": "uint8",
							"name": "defenderY",
							"type": "uint8"
						},
						{
							"internalType": "uint256",
							"name": "timestamp",
							"type": "uint256"
						},
						{
							"internalType": "bool",
							"name": "attackerWon",
							"type": "bool"
						},
						{
							"internalType": "uint256",
							"name": "atkOffSoldier",
							"type": "uint256"
						},
						{
							"internalType": "uint256",
							"name": "atkDefSoldier",
							"type": "uint256"
						},
						{
							"internalType": "uint8",
							"name": "atkTech",
							"type": "uint8"
						},
						{
							"internalType": "uint256",
							"name": "defOffSoldier",
							"type": "uint256"
						},
						{
							"internalType": "uint256",
							"name": "defDefSoldier",
							"type": "uint256"
						},
						{
							"internalType": "uint8",
							"name": "defTech",
							"type": "uint8"
						}
					],
					"internalType": "struct MarketPlace.WarRecord[]",
					"name": "",
					"type": "tuple[]"
				}
			],
			"stateMutability": "view",
			"type": "function"
		},
		{
			"inputs": [
				{
					"internalType": "uint8",
					"name": "resourceType",
					"type": "uint8"
				}
			],
			"name": "getListingsByResourceType",
			"outputs": [
				{
					"components": [
						{
							"internalType": "address",
							"name": "seller",
							"type": "address"
						},
						{
							"internalType": "uint8",
							"name": "resourceType",
							"type": "uint8"
						},
						{
							"internalType": "uint256",
							"name": "amount",
							"type": "uint256"
						},
						{
							"internalType": "uint256",
							"name": "price",
							"type": "uint256"
						}
					],
					"internalType": "struct MarketPlace.MarketItem[]",
					"name": "",
					"type": "tuple[]"
				}
			],
			"stateMutability": "view",
			"type": "function"
		},
		{
			"inputs": [
				{
					"internalType": "address",
					"name": "player",
					"type": "address"
				}
			],
			"name": "getRecentPlayerWars",
			"outputs": [
				{
					"components": [
						{
							"internalType": "uint8",
							"name": "attackerX",
							"type": "uint8"
						},
						{
							"internalType": "uint8",
							"name": "attackerY",
							"type": "uint8"
						},
						{
							"internalType": "uint8",
							"name": "defenderX",
							"type": "uint8"
						},
						{
							"internalType": "uint8",
							"name": "defenderY",
							"type": "uint8"
						},
						{
							"internalType": "uint256",
							"name": "timestamp",
							"type": "uint256"
						},
						{
							"internalType": "bool",
							"name": "attackerWon",
							"type": "bool"
						},
						{
							"internalType": "uint256",
							"name": "atkOffSoldier",
							"type": "uint256"
						},
						{
							"internalType": "uint256",
							"name": "atkDefSoldier",
							"type": "uint256"
						},
						{
							"internalType": "uint8",
							"name": "atkTech",
							"type": "uint8"
						},
						{
							"internalType": "uint256",
							"name": "defOffSoldier",
							"type": "uint256"
						},
						{
							"internalType": "uint256",
							"name": "defDefSoldier",
							"type": "uint256"
						},
						{
							"internalType": "uint8",
							"name": "defTech",
							"type": "uint8"
						}
					],
					"internalType": "struct MarketPlace.WarRecord[]",
					"name": "",
					"type": "tuple[]"
				}
			],
			"stateMutability": "view",
			"type": "function"
		},
		{
			"inputs": [],
			"name": "getRecentWarHistory",
			"outputs": [
				{
					"components": [
						{
							"internalType": "uint8",
							"name": "attackerX",
							"type": "uint8"
						},
						{
							"internalType": "uint8",
							"name": "attackerY",
							"type": "uint8"
						},
						{
							"internalType": "uint8",
							"name": "defenderX",
							"type": "uint8"
						},
						{
							"internalType": "uint8",
							"name": "defenderY",
							"type": "uint8"
						},
						{
							"internalType": "uint256",
							"name": "timestamp",
							"type": "uint256"
						},
						{
							"internalType": "bool",
							"name": "attackerWon",
							"type": "bool"
						},
						{
							"internalType": "uint256",
							"name": "atkOffSoldier",
							"type": "uint256"
						},
						{
							"internalType": "uint256",
							"name": "atkDefSoldier",
							"type": "uint256"
						},
						{
							"internalType": "uint8",
							"name": "atkTech",
							"type": "uint8"
						},
						{
							"internalType": "uint256",
							"name": "defOffSoldier",
							"type": "uint256"
						},
						{
							"internalType": "uint256",
							"name": "defDefSoldier",
							"type": "uint256"
						},
						{
							"internalType": "uint8",
							"name": "defTech",
							"type": "uint8"
						}
					],
					"internalType": "struct MarketPlace.WarRecord[]",
					"name": "",
					"type": "tuple[]"
				}
			],
			"stateMutability": "view",
			"type": "function"
		},
		{
			"inputs": [
				{
					"internalType": "uint8",
					"name": "",
					"type": "uint8"
				},
				{
					"internalType": "uint8",
					"name": "",
					"type": "uint8"
				}
			],
			"name": "lastAttackTurn",
			"outputs": [
				{
					"internalType": "uint256",
					"name": "",
					"type": "uint256"
				}
			],
			"stateMutability": "view",
			"type": "function"
		},
		{
			"inputs": [
				{
					"internalType": "uint8",
					"name": "",
					"type": "uint8"
				},
				{
					"internalType": "uint8",
					"name": "",
					"type": "uint8"
				}
			],
			"name": "lastDefenseTurn",
			"outputs": [
				{
					"internalType": "uint256",
					"name": "",
					"type": "uint256"
				}
			],
			"stateMutability": "view",
			"type": "function"
		},
		{
			"inputs": [
				{
					"internalType": "uint8",
					"name": "x",
					"type": "uint8"
				},
				{
					"internalType": "uint8",
					"name": "y",
					"type": "uint8"
				},
				{
					"internalType": "uint8",
					"name": "resourceType",
					"type": "uint8"
				},
				{
					"internalType": "uint256",
					"name": "amount",
					"type": "uint256"
				},
				{
					"internalType": "uint256",
					"name": "price",
					"type": "uint256"
				}
			],
			"name": "listItemForSale",
			"outputs": [],
			"stateMutability": "nonpayable",
			"type": "function"
		},
		{
			"inputs": [],
			"name": "lopToken",
			"outputs": [
				{
					"internalType": "contract IHarmLop",
					"name": "",
					"type": "address"
				}
			],
			"stateMutability": "view",
			"type": "function"
		},
		{
			"inputs": [
				{
					"internalType": "uint8",
					"name": "",
					"type": "uint8"
				},
				{
					"internalType": "uint256",
					"name": "",
					"type": "uint256"
				}
			],
			"name": "marketListings",
			"outputs": [
				{
					"internalType": "address",
					"name": "seller",
					"type": "address"
				},
				{
					"internalType": "uint8",
					"name": "resourceType",
					"type": "uint8"
				},
				{
					"internalType": "uint256",
					"name": "amount",
					"type": "uint256"
				},
				{
					"internalType": "uint256",
					"name": "price",
					"type": "uint256"
				}
			],
			"stateMutability": "view",
			"type": "function"
		},
		{
			"inputs": [
				{
					"internalType": "address",
					"name": "",
					"type": "address"
				},
				{
					"internalType": "uint256",
					"name": "",
					"type": "uint256"
				}
			],
			"name": "playerWars",
			"outputs": [
				{
					"internalType": "uint256",
					"name": "",
					"type": "uint256"
				}
			],
			"stateMutability": "view",
			"type": "function"
		},
		{
			"inputs": [],
			"name": "theLand",
			"outputs": [
				{
					"internalType": "contract ITheLand",
					"name": "",
					"type": "address"
				}
			],
			"stateMutability": "view",
			"type": "function"
		},
		{
			"inputs": [],
			"name": "tileMapPhaser",
			"outputs": [
				{
					"internalType": "contract ITileMapPhaser",
					"name": "",
					"type": "address"
				}
			],
			"stateMutability": "view",
			"type": "function"
		},
		{
			"inputs": [
				{
					"internalType": "uint256",
					"name": "",
					"type": "uint256"
				}
			],
			"name": "warHistory",
			"outputs": [
				{
					"internalType": "uint8",
					"name": "attackerX",
					"type": "uint8"
				},
				{
					"internalType": "uint8",
					"name": "attackerY",
					"type": "uint8"
				},
				{
					"internalType": "uint8",
					"name": "defenderX",
					"type": "uint8"
				},
				{
					"internalType": "uint8",
					"name": "defenderY",
					"type": "uint8"
				},
				{
					"internalType": "uint256",
					"name": "timestamp",
					"type": "uint256"
				},
				{
					"internalType": "bool",
					"name": "attackerWon",
					"type": "bool"
				},
				{
					"internalType": "uint256",
					"name": "atkOffSoldier",
					"type": "uint256"
				},
				{
					"internalType": "uint256",
					"name": "atkDefSoldier",
					"type": "uint256"
				},
				{
					"internalType": "uint8",
					"name": "atkTech",
					"type": "uint8"
				},
				{
					"internalType": "uint256",
					"name": "defOffSoldier",
					"type": "uint256"
				},
				{
					"internalType": "uint256",
					"name": "defDefSoldier",
					"type": "uint256"
				},
				{
					"internalType": "uint8",
					"name": "defTech",
					"type": "uint8"
				}
			],
			"stateMutability": "view",
			"type": "function"
		}
	]
}