{
	"data": {
		"bytecode": {
			"linkReferences": {},
			"object": "60806040523480156200001157600080fd5b50604051620060e6380380620060e68339810160408190526200003491620000aa565b6001600081905580546001600160a01b039586166001600160a01b031991821617909155600280549486169482169490941790935560038054928516928416929092179091556004805491909316911617905562000107565b80516001600160a01b0381168114620000a557600080fd5b919050565b60008060008060808587031215620000c157600080fd5b620000cc856200008d565b9350620000dc602086016200008d565b9250620000ec604086016200008d565b9150620000fc606086016200008d565b905092959194509250565b615fcf80620001176000396000f3fe608060405234801561001057600080fd5b506004361061016c5760003560e01c8063763540cd116100cd578063b0d7777411610081578063c49443ac11610066578063c49443ac14610379578063ca0300791461038c578063efcb01ba1461039f57600080fd5b8063b0d7777414610353578063c399c2b01461036657600080fd5b8063823e9282116100b2578063823e92821461030d578063999a2f7a1461032d578063ada680cf1461034057600080fd5b8063763540cd1461028e57806377f8c951146102b957600080fd5b80633a965c901161012457806354adac101161010957806354adac101461023d578063697e71d21461025057806370d27e411461026357600080fd5b80633a965c90146102175780634f264b031461022a57600080fd5b806321f65c901161015557806321f65c90146101b75780632c400cb7146101cd57806330378338146101e257600080fd5b80630d67f59e1461017157806310ac4633146101a1575b600080fd5b600254610184906001600160a01b031681565b6040516001600160a01b0390911681526020015b60405180910390f35b6101a9600a81565b604051908152602001610198565b6101bf6103bf565b6040516101989291906155c9565b6101e06101db36600461566a565b610814565b005b6102056101f03660046156d1565b60066020526000908152604090205460ff1681565b60405160ff9091168152602001610198565b6101e06102253660046156ee565b610b97565b600354610184906001600160a01b031681565b6101e061024b366004615739565b610e92565b6101e061025e36600461566a565b611800565b6101a96102713660046157a6565b600960209081526000928352604080842090915290825290205481565b6101a961029c3660046157a6565b600860209081526000928352604080842090915290825290205481565b6102cc6102c73660046157a6565b611bf1565b6040516101989190600060808201905060ff835116825260ff602084015116602083015260ff60408401511660408301526060830151606083015292915050565b61032061031b3660046157a6565b611d17565b60405161019891906157d9565b6101e061033b3660046156ee565b61208a565b61032061034e3660046158ab565b612889565b600154610184906001600160a01b031681565b6101bf6103743660046158ed565b612c26565b600454610184906001600160a01b031681565b6101e061039a36600461590f565b6130a8565b6103b26103ad366004615964565b6134fb565b60405161019891906159a7565b60608060006103d162093a8042615a3f565b600a549091506000905b801561043f5782600a6103ef600184615a3f565b815481106103ff576103ff615a52565b90600052602060002090600a02016001015410610428578161042081615a81565b92505061042d565b61043f565b8061043781615a9b565b9150506103db565b508067ffffffffffffffff81111561045957610459615ab2565b6040519080825280602002602001820160405280156104b957816020015b6040805160c08101825260008082526020808301829052928201819052606082018190526080820181905260a082015282526000199092019101816104775790505b5093508067ffffffffffffffff8111156104d5576104d5615ab2565b60405190808252806020026020018201604052801561051a57816020015b60408051808201909152606080825260208201528152602001906001900390816104f35790505b50600a5490935060009061052f908390615a3f565b905060005b8281101561080c576000600a61054a8385615ae1565b8154811061055a5761055a615a52565b6000918252602091829020604080516101a081018252600a909302909101805460ff80821685526101008083048216868801908152620100008404831687870190815263010000009094048316606080890191825260018701546080808b0191825260028901548716151560a0808d0191825260038b015460c0808f019190915260048c015460e08f015260058c0154988e019890985260068b01546101208e015260078b01546101408e015260088b01546101608e01526009909a01546101808d01528a519687018b528b5188168752945187169b86019b909b52955185169784019790975251909216948101949094529051948301949094529251151592810192909252885190925088908490811061067757610677615a52565b6020908102919091010152600b61068e8385615ae1565b8154811061069e5761069e615a52565b90600052602060002090600202016040518060400160405290816000820180546106c790615af4565b80601f01602080910402602001604051908101604052809291908181526020018280546106f390615af4565b80156107405780601f1061071557610100808354040283529160200191610740565b820191906000526020600020905b81548152906001019060200180831161072357829003601f168201915b5050505050815260200160018201805461075990615af4565b80601f016020809104026020016040519081016040528092919081815260200182805461078590615af4565b80156107d25780601f106107a7576101008083540402835291602001916107d2565b820191906000526020600020905b8154815290600101906020018083116107b557829003601f168201915b5050505050815250508683815181106107ed576107ed615a52565b602002602001018190525050808061080490615a81565b915050610534565b505050509091565b61081c61376b565b600354604051638a88895360e01b815260ff8087166004830152851660248201528591859133916001600160a01b031690638a88895390604401602060405180830381865afa158015610873573d6000803e3d6000fd5b505050506040513d601f19601f820116820180604052508101906108979190615b5e565b6001600160a01b0316146108bd57604051627bba6360e01b815260040160405180910390fd5b6001546040517f4173f9e900000000000000000000000000000000000000000000000000000000815260ff8087166004830152851660248201526000916001600160a01b031690634173f9e990604401602060405180830381865afa15801561092a573d6000803e3d6000fd5b505050506040513d601f19601f8201168201806040525081019061094e9190615b79565b90508060000361095f57506368acf9005b6276a70061096d8242615a3f565b10156109a5576040517f62b75b9d00000000000000000000000000000000000000000000000000000000815260040160405180910390fd5b6003546040517f8a3d7cdc00000000000000000000000000000000000000000000000000000000815260ff878116600483015286166024820152600091829182916001600160a01b031690638a3d7cdc9060440160c060405180830381865afa158015610a16573d6000803e3d6000fd5b505050506040513d601f19601f82011682018060405250810190610a3a9190615ba2565b95505050935050925082610a7a576040517f3fa8fc1300000000000000000000000000000000000000000000000000000000815260040160405180910390fd5b8115610ab2576040517f26ab946c00000000000000000000000000000000000000000000000000000000815260040160405180910390fd5b60006064610ac183605a615c01565b610acb9190615c18565b90506298968064e8d4a5100081831015610ae3578192505b80831115610aef578092505b6003546040517fd855e7e100000000000000000000000000000000000000000000000000000000815260ff808e1660048301528c16602482015260016044820152606481018590526001600160a01b039091169063d855e7e190608401600060405180830381600087803b158015610b6657600080fd5b505af1158015610b7a573d6000803e3d6000fd5b50505050505050505050505050610b916001600055565b50505050565b610b9f61376b565b600354604051638a88895360e01b815260ff8087166004830152851660248201528591859133916001600160a01b031690638a88895390604401602060405180830381865afa158015610bf6573d6000803e3d6000fd5b505050506040513d601f19601f82011682018060405250810190610c1a9190615b5e565b6001600160a01b031614610c4057604051627bba6360e01b815260040160405180910390fd5b60018460ff1610158015610c58575060088460ff1611155b610ca95760405162461bcd60e51b815260206004820152600260248201527f207400000000000000000000000000000000000000000000000000000000000060448201526064015b60405180910390fd5b60ff84166000908152600760205260409020548310610d0a5760405162461bcd60e51b815260206004820152600260248201527f20690000000000000000000000000000000000000000000000000000000000006044820152606401610ca0565b60ff84166000908152600760205260408120805485908110610d2e57610d2e615a52565b60009182526020918290206040805160a0810182526003909302909101805460ff808216808652610100830482169686019690965262010000909104811692840192909252600181015460608401526002015460808301529092508816148015610da157508560ff16816020015160ff16145b610ded5760405162461bcd60e51b815260206004820152600160248201527f6c000000000000000000000000000000000000000000000000000000000000006044820152606401610ca0565b610df785856137cb565b610e018787613929565b600180546060830151604051633e5f285760e01b815260ff808c166004830152808b16602483015289166044820152606481019190915260848101929092526001600160a01b031690633e5f28579060a401600060405180830381600087803b158015610e6d57600080fd5b505af1158015610e81573d6000803e3d6000fd5b50505050505050610b916001600055565b610e9a61376b565b600354604051638a88895360e01b815260ff8089166004830152871660248201528791879133916001600160a01b031690638a88895390604401602060405180830381865afa158015610ef1573d6000803e3d6000fd5b505050506040513d601f19601f82011682018060405250810190610f159190615b5e565b6001600160a01b031614610f3b57604051627bba6360e01b815260040160405180910390fd5b6001546040517f4855735c00000000000000000000000000000000000000000000000000000000815260ff808b166004830152891660248201526001600160a01b0390911690634855735c90604401602060405180830381865afa158015610fa7573d6000803e3d6000fd5b505050506040513d601f19601f82011682018060405250810190610fcb9190615c53565b6110175760405162461bcd60e51b815260206004820152600160248201527f6d000000000000000000000000000000000000000000000000000000000000006044820152606401610ca0565b6001546040517f9c54e47100000000000000000000000000000000000000000000000000000000815260ff8089166004830152871660248201526001600160a01b0390911690639c54e47190604401602060405180830381865afa158015611083573d6000803e3d6000fd5b505050506040513d601f19601f820116820180604052508101906110a79190615c53565b156110f45760405162461bcd60e51b815260206004820152600160248201527f63000000000000000000000000000000000000000000000000000000000000006044820152606401610ca0565b600354604051638a88895360e01b815260ff8089166004830152871660248201526000916001600160a01b031690638a88895390604401602060405180830381865afa158015611148573d6000803e3d6000fd5b505050506040513d601f19601f8201168201806040525081019061116c9190615b5e565b90506001600160a01b0381166111c45760405162461bcd60e51b815260206004820152600160248201527f75000000000000000000000000000000000000000000000000000000000000006044820152606401610ca0565b60018560ff16101580156111dc575060088560ff1611155b61120c5760405162461bcd60e51b81526020600482015260016024820152601d60fa1b6044820152606401610ca0565b601e84101580156112205750620186a08411155b61126c5760405162461bcd60e51b815260206004820152600160248201527f61000000000000000000000000000000000000000000000000000000000000006044820152606401610ca0565b6000611278898861397e565b6112828b8a61397e565b61128c9190615c6e565b905060008160ff161180156112a5575060268160ff1611155b6112f15760405162461bcd60e51b815260206004820152600160248201527f64000000000000000000000000000000000000000000000000000000000000006044820152606401610ca0565b6305f5e100600061130560ff841683615c01565b6002546040517f23b872dd000000000000000000000000000000000000000000000000000000008152336004820152306024820152604481018390529192506001600160a01b0316906323b872dd906064016020604051808303816000875af1158015611376573d6000803e3d6000fd5b505050506040513d601f19601f8201168201806040525081019061139a9190615c53565b6113e65760405162461bcd60e51b815260206004820152600160248201527f66000000000000000000000000000000000000000000000000000000000000006044820152606401610ca0565b6002546040517f42966c68000000000000000000000000000000000000000000000000000000008152600481018390526001600160a01b03909116906342966c68906024016020604051808303816000875af115801561144a573d6000803e3d6000fd5b505050506040513d601f19601f8201168201806040525081019061146e9190615c53565b6114ba5760405162461bcd60e51b815260206004820152600160248201527f62000000000000000000000000000000000000000000000000000000000000006044820152606401610ca0565b6000601e6114cb8960ff8716615c01565b6114d59190615c18565b6001549091506001600160a01b0316633e5f28578e8e8c6114f6868e615ae1565b6040517fffffffff0000000000000000000000000000000000000000000000000000000060e087901b16815260ff948516600482015292841660248401529216604482015260648101919091526000608482015260a401600060405180830381600087803b15801561156757600080fd5b505af115801561157b573d6000803e3d6000fd5b505060018054604051633e5f285760e01b81526001600160a01b039091169350633e5f285792506115e0918f918f918f918f919060040160ff958616815293851660208501529190931660408301526060820192909252901515608082015260a00190565b600060405180830381600087803b1580156115fa57600080fd5b505af115801561160e573d6000803e3d6000fd5b5050505060405180608001604052808e60ff1681526020018d60ff1681526020018a60ff16815260200189815250600560008d60ff1660ff16815260200190815260200160002060008c60ff1660ff16815260200190815260200160002060008201518160000160006101000a81548160ff021916908360ff16021790555060208201518160000160016101000a81548160ff021916908360ff16021790555060408201518160000160026101000a81548160ff021916908360ff16021790555060608201518160010155905050600160009054906101000a90046001600160a01b03166001600160a01b0316639a4a20848c8c60016040518463ffffffff1660e01b815260040161173b9392919060ff9384168152919092166020820152901515604082015260600190565b600060405180830381600087803b15801561175557600080fd5b505af1158015611769573d6000803e3d6000fd5b50505050846001600160a01b0316336001600160a01b03167f0d8d0ffb785186ae5cfa3f64dc9e01d4100c899244f5a09749c62a7ddc76dc1a8f8f8f8f8f6040516117df95949392919060ff95861681529385166020850152918416604084015283166060830152909116608082015260a00190565b60405180910390a3505050505050506117f86001600055565b505050505050565b61180861376b565b600354604051638a88895360e01b815260ff8087166004830152851660248201528591859133916001600160a01b031690638a88895390604401602060405180830381865afa15801561185f573d6000803e3d6000fd5b505050506040513d601f19601f820116820180604052508101906118839190615b5e565b6001600160a01b0316146118a957604051627bba6360e01b815260040160405180910390fd5b600354604051638a88895360e01b815260ff8087166004830152851660248201526000916001600160a01b031690638a88895390604401602060405180830381865afa1580156118fd573d6000803e3d6000fd5b505050506040513d601f19601f820116820180604052508101906119219190615b5e565b90506001600160a01b0381166119795760405162461bcd60e51b815260206004820152600160248201527f6e000000000000000000000000000000000000000000000000000000000000006044820152606401610ca0565b6119878787878733866139af565b61198f61535a565b60ff88811680835288821660208401819052888316604080860191909152928816606085015260015492517fbd638378000000000000000000000000000000000000000000000000000000008152600481019290925260248201526001600160a01b039091169063bd638378906044016101e060405180830381865afa158015611a1d573d6000803e3d6000fd5b505050506040513d601f19601f82011682018060405250810190611a419190615cbc565b60808201526001546040517fbd63837800000000000000000000000000000000000000000000000000000000815260ff8089166004830152871660248201526001600160a01b039091169063bd638378906044016101e060405180830381865afa158015611ab3573d6000803e3d6000fd5b505050506040513d601f19601f82011682018060405250810190611ad79190615cbc565b60a082015260808101516101400151600a1115611b365760405162461bcd60e51b815260206004820152600160248201527f73000000000000000000000000000000000000000000000000000000000000006044820152606401610ca0565b6000611b42888761397e565b611b4c8a8961397e565b611b569190615c6e565b9050611b688989838560800151613e3c565b611b7c82608001518360a00151898961414a565b60e084015260c08301526000611b918361429e565b905060008360e001518460c001511115611bb157611bae84614540565b90505b611bb96154b1565b8281526020810182905260e085015160c0860151116040820152611bdf858233896146f6565b5050505050505050610b916001600055565b604080516080810182526000808252602082018190529181018290526060810191909152600354604051638a88895360e01b815260ff8086166004830152841660248201528491849133916001600160a01b031690638a88895390604401602060405180830381865afa158015611c6c573d6000803e3d6000fd5b505050506040513d601f19601f82011682018060405250810190611c909190615b5e565b6001600160a01b031614611cb657604051627bba6360e01b815260040160405180910390fd5b50505060ff918216600090815260056020908152604080832093851683529281529082902082516080810184528154808616825261010081048616938201939093526201000090920490931691810191909152600190910154606082015290565b600354604051638a88895360e01b815260ff8085166004830152831660248201526060918491849133916001600160a01b0390911690638a88895390604401602060405180830381865afa158015611d73573d6000803e3d6000fd5b505050506040513d601f19601f82011682018060405250810190611d979190615b5e565b6001600160a01b031614611dbd57604051627bba6360e01b815260040160405180910390fd5b60ff8416600886901b61ff0016176000818152600c6020526040812090611de762093a8042615a3f565b82549091506000905b8015611e705782600a85611e05600185615a3f565b81548110611e1557611e15615a52565b906000526020600020015481548110611e3057611e30615a52565b90600052602060002090600a02016001015410611e595781611e5181615a81565b925050611e5e565b611e70565b80611e6881615a9b565b915050611df0565b5060008167ffffffffffffffff811115611e8c57611e8c615ab2565b604051908082528060200260200182016040528015611f3657816020015b611f23604051806101a00160405280600060ff168152602001600060ff168152602001600060ff168152602001600060ff16815260200160008152602001600015158152602001600081526020016000815260200160008152602001600081526020016000815260200160008152602001600081525090565b815260200190600190039081611eaa5790505b508454909150600090611f4a908490615a3f565b905060005b8381101561207a57600a86611f648385615ae1565b81548110611f7457611f74615a52565b906000526020600020015481548110611f8f57611f8f615a52565b6000918252602091829020604080516101a081018252600a909302909101805460ff80821685526101008083048216968601969096526201000082048116938501939093526301000000900482166060840152600181015460808401526002810154909116151560a0830152600381015460c0830152600481015460e0830152600581015492820192909252600682015461012082015260078201546101408201526008820154610160820152600990910154610180820152835184908390811061205c5761205c615a52565b6020026020010181905250808061207290615a81565b915050611f4f565b50909a9950505050505050505050565b61209261376b565b600354604051638a88895360e01b815260ff8087166004830152851660248201528591859133916001600160a01b031690638a88895390604401602060405180830381865afa1580156120e9573d6000803e3d6000fd5b505050506040513d601f19601f8201168201806040525081019061210d9190615b5e565b6001600160a01b03161461213357604051627bba6360e01b815260040160405180910390fd5b6001546040517f4855735c00000000000000000000000000000000000000000000000000000000815260ff8089166004830152871660248201526001600160a01b0390911690634855735c90604401602060405180830381865afa15801561219f573d6000803e3d6000fd5b505050506040513d601f19601f820116820180604052508101906121c39190615c53565b61220f5760405162461bcd60e51b815260206004820152600160248201527f6d000000000000000000000000000000000000000000000000000000000000006044820152606401610ca0565b60ff841660009081526007602052604090205483106122705760405162461bcd60e51b815260206004820152600160248201527f6d000000000000000000000000000000000000000000000000000000000000006044820152606401610ca0565b60018460ff1610158015612288575060088460ff1611155b6122b85760405162461bcd60e51b81526020600482015260016024820152601d60fa1b6044820152606401610ca0565b60ff841660009081526007602052604081208054859081106122dc576122dc615a52565b600091825260208083206040805160a0810182526003948502909201805460ff808216808652610100830482169686018790526201000090920416848401526001820154606085018190526002909201546080850181905295549251638a88895360e01b8152600481019190915260248101949094529195509293909290916001600160a01b0390911690638a88895390604401602060405180830381865afa15801561238d573d6000803e3d6000fd5b505050506040513d601f19601f820116820180604052508101906123b19190615b5e565b90506001600160a01b0381166124095760405162461bcd60e51b815260206004820152600160248201527f75000000000000000000000000000000000000000000000000000000000000006044820152606401610ca0565b6000606e612418856064615c01565b6124229190615c18565b905060006124308286615a3f565b6002546040517f23b872dd000000000000000000000000000000000000000000000000000000008152336004820152306024820152604481018890529192506001600160a01b0316906323b872dd906064016020604051808303816000875af11580156124a1573d6000803e3d6000fd5b505050506040513d601f19601f820116820180604052508101906124c59190615c53565b6124f55760405162461bcd60e51b81526020600482015260016024820152601d60fa1b6044820152606401610ca0565b6002546040517fa9059cbb0000000000000000000000000000000000000000000000000000000081526001600160a01b038581166004830152602482018590529091169063a9059cbb906044016020604051808303816000875af1158015612561573d6000803e3d6000fd5b505050506040513d601f19601f820116820180604052508101906125859190615c53565b6125b55760405162461bcd60e51b81526020600482015260016024820152601d60fa1b6044820152606401610ca0565b6002546040517f42966c68000000000000000000000000000000000000000000000000000000008152600481018390526001600160a01b03909116906342966c68906024016020604051808303816000875af1158015612619573d6000803e3d6000fd5b505050506040513d601f19601f8201168201806040525081019061263d9190615c53565b6126895760405162461bcd60e51b815260206004820152600160248201527f62000000000000000000000000000000000000000000000000000000000000006044820152606401610ca0565b60ff8a16600090815260076020526040902080546126a990600190615a3f565b815481106126b9576126b9615a52565b9060005260206000209060030201600760008c60ff1660ff1681526020019081526020016000208a815481106126f1576126f1615a52565b600091825260208083208454600390930201805460ff19811660ff948516908117835586546101009081900486160261ffff1990921617178082558554620100009081900485160262ff000019909116178155600180860154908201556002948501549401939093558c16815260079091526040902080548061277657612776615d8c565b6000828152602080822060036000199094019384020180547fffffffffffffffffffffffffffffffffffffffffffffffffffffffffff000000168155600181018390556002019190915591558651908701516127d29190613929565b600160009054906101000a90046001600160a01b03166001600160a01b0316633e5f28578d8d8d8860016040518663ffffffff1660e01b815260040161284595949392919060ff958616815293851660208501529190931660408301526060820192909252901515608082015260a00190565b600060405180830381600087803b15801561285f57600080fd5b505af1158015612873573d6000803e3d6000fd5b505050505050505050505050610b916001600055565b600354604051638a88895360e01b815260ff8087166004830152851660248201526060918691869133916001600160a01b0390911690638a88895390604401602060405180830381865afa1580156128e5573d6000803e3d6000fd5b505050506040513d601f19601f820116820180604052508101906129099190615b5e565b6001600160a01b03161461292f57604051627bba6360e01b815260040160405180910390fd5b8360000361293b574293505b83851115612947579293925b60ff8616600888901b61ff0016176000818152600c6020526040812080549091819003612972575060015b6000815b8015612a13576000600a8561298c600185615a3f565b8154811061299c5761299c615a52565b9060005260206000200154815481106129b7576129b7615a52565b90600052602060002090600a02016001015490508a81101580156129db5750898111155b156129f257826129ea81615a81565b935050612a00565b8a811015612a005750612a13565b5080612a0b81615a9b565b915050612976565b508067ffffffffffffffff811115612a2d57612a2d615ab2565b604051908082528060200260200182016040528015612ad757816020015b612ac4604051806101a00160405280600060ff168152602001600060ff168152602001600060ff168152602001600060ff16815260200160008152602001600015158152602001600081526020016000815260200160008152602001600081526020016000815260200160008152602001600081525090565b815260200190600190039081612a4b5790505b5096506000612ae68284615a3f565b905060005b82811015612c1657600a85612b008385615ae1565b81548110612b1057612b10615a52565b906000526020600020015481548110612b2b57612b2b615a52565b6000918252602091829020604080516101a081018252600a909302909101805460ff80821685526101008083048216968601969096526201000082048116938501939093526301000000900482166060840152600181015460808401526002810154909116151560a0830152600381015460c0830152600481015460e083015260058101549282019290925260068201546101208201526007820154610140820152600882015461016082015260099091015461018082015289518a9083908110612bf857612bf8615a52565b60200260200101819052508080612c0e90615a81565b915050612aeb565b5050505050505050949350505050565b60608082600003612c35574292505b82841115612c41579192915b600a546000819003612c51575060015b6000815b8015612cd6576000600a612c6a600184615a3f565b81548110612c7a57612c7a615a52565b90600052602060002090600a0201600101549050878110158015612c9e5750868111155b15612cb55782612cad81615a81565b935050612cc3565b87811015612cc35750612cd6565b5080612cce81615a9b565b915050612c55565b508067ffffffffffffffff811115612cf057612cf0615ab2565b604051908082528060200260200182016040528015612d5057816020015b6040805160c08101825260008082526020808301829052928201819052606082018190526080820181905260a08201528252600019909201910181612d0e5790505b5093508067ffffffffffffffff811115612d6c57612d6c615ab2565b604051908082528060200260200182016040528015612db157816020015b6040805180820190915260608082526020820152815260200190600190039081612d8a5790505b5092506000612dc08284615a3f565b905060005b8281101561309d576000600a612ddb8385615ae1565b81548110612deb57612deb615a52565b6000918252602091829020604080516101a081018252600a909302909101805460ff80821685526101008083048216868801908152620100008404831687870190815263010000009094048316606080890191825260018701546080808b0191825260028901548716151560a0808d0191825260038b015460c0808f019190915260048c015460e08f015260058c0154988e019890985260068b01546101208e015260078b01546101408e015260088b01546101608e01526009909a01546101808d01528a519687018b528b5188168752945187169b86019b909b529551851697840197909752519092169481019490945290519483019490945292511515928101929092528851909250889084908110612f0857612f08615a52565b6020908102919091010152600b612f1f8385615ae1565b81548110612f2f57612f2f615a52565b9060005260206000209060020201604051806040016040529081600082018054612f5890615af4565b80601f0160208091040260200160405190810160405280929190818152602001828054612f8490615af4565b8015612fd15780601f10612fa657610100808354040283529160200191612fd1565b820191906000526020600020905b815481529060010190602001808311612fb457829003601f168201915b50505050508152602001600182018054612fea90615af4565b80601f016020809104026020016040519081016040528092919081815260200182805461301690615af4565b80156130635780601f1061303857610100808354040283529160200191613063565b820191906000526020600020905b81548152906001019060200180831161304657829003601f168201915b50505050508152505086838151811061307e5761307e615a52565b602002602001018190525050808061309590615a81565b915050612dc5565b505050509250929050565b6130b061376b565b600354604051638a88895360e01b815260ff8088166004830152861660248201528691869133916001600160a01b031690638a88895390604401602060405180830381865afa158015613107573d6000803e3d6000fd5b505050506040513d601f19601f8201168201806040525081019061312b9190615b5e565b6001600160a01b03161461315157604051627bba6360e01b815260040160405180910390fd5b6001546040517f4855735c00000000000000000000000000000000000000000000000000000000815260ff808a166004830152881660248201526001600160a01b0390911690634855735c90604401602060405180830381865afa1580156131bd573d6000803e3d6000fd5b505050506040513d601f19601f820116820180604052508101906131e19190615c53565b61322d5760405162461bcd60e51b815260206004820152600160248201527f6d000000000000000000000000000000000000000000000000000000000000006044820152606401610ca0565b62989680831015801561324657506509184e72a0008311155b6132925760405162461bcd60e51b815260206004820152600160248201527f70000000000000000000000000000000000000000000000000000000000000006044820152606401610ca0565b60018560ff16101580156132aa575060088560ff1611155b6132da5760405162461bcd60e51b81526020600482015260016024820152601d60fa1b6044820152606401610ca0565b60048560ff161161334c5761271084101580156132fb57506305f5e1008411155b6133475760405162461bcd60e51b815260206004820152600160248201527f61000000000000000000000000000000000000000000000000000000000000006044820152606401610ca0565b6133ab565b6064841015801561335f57506127108411155b6133ab5760405162461bcd60e51b815260206004820152600160248201527f61000000000000000000000000000000000000000000000000000000000000006044820152606401610ca0565b6133b58787614e87565b600154604051633e5f285760e01b815260ff808a16600483015280891660248301528716604482015260648101869052600060848201526001600160a01b0390911690633e5f28579060a401600060405180830381600087803b15801561341b57600080fd5b505af115801561342f573d6000803e3d6000fd5b505050506000600a846134429190615c18565b61344c9085615ae1565b60ff8088166000818152600760209081526040808320815160a0810183528f871681528e8716818501908152928101958652606081018d8152608082019889528254600181810185559387529490952090516003909402018054925195518716620100000262ff0000199688166101000261ffff199094169490971693909317919091179390931693909317835551908201559051600290910155506134f491506137c49050565b5050505050565b600354604051638a88895360e01b815260ff8086166004830152841660248201526060918591859133916001600160a01b0390911690638a88895390604401602060405180830381865afa158015613557573d6000803e3d6000fd5b505050506040513d601f19601f8201168201806040525081019061357b9190615b5e565b6001600160a01b0316146135a157604051627bba6360e01b815260040160405180910390fd5b60018460ff16101580156135b9575060088460ff1611155b6135e95760405162461bcd60e51b81526020600482015260016024820152601d60fa1b6044820152606401610ca0565b6001546040517f4855735c00000000000000000000000000000000000000000000000000000000815260ff8089166004830152871660248201526001600160a01b0390911690634855735c90604401602060405180830381865afa158015613655573d6000803e3d6000fd5b505050506040513d601f19601f820116820180604052508101906136799190615c53565b6136c55760405162461bcd60e51b815260206004820152600160248201527f6d000000000000000000000000000000000000000000000000000000000000006044820152606401610ca0565b60ff8416600090815260076020908152604080832080548251818502810185019093528083529193909284015b8282101561375c5760008481526020908190206040805160a08101825260038602909201805460ff808216855261010082048116858701526201000090910416918301919091526001808201546060840152600290910154608083015290835290920191016136f2565b50505050925050509392505050565b6002600054036137bd5760405162461bcd60e51b815260206004820152601f60248201527f5265656e7472616e637947756172643a207265656e7472616e742063616c6c006044820152606401610ca0565b6002600055565b6001600055565b60ff82166000908152600760205260408120546137ea90600190615a3f565b90508082146138bb5760ff8316600090815260076020526040902080548290811061381757613817615a52565b9060005260206000209060030201600760008560ff1660ff168152602001908152602001600020838154811061384f5761384f615a52565b600091825260209091208254600390920201805460ff92831660ff19821681178355845461ffff199092161761010091829004841690910217808255835462ff000019909116620100009182900490931602919091178155600180830154908201556002918201549101555b60ff831660009081526007602052604090208054806138dc576138dc615d8c565b60008281526020812060036000199093019283020180547fffffffffffffffffffffffffffffffffffffffffffffffffffffffffff00000016815560018101829055600201559055505050565b60ff818116600884901b61ff001617600081815260066020526040902054909116156139795761ffff81166000908152600660205260409020805460ff19811660ff918216600019019091161790555b505050565b60008160ff168360ff161161399c576139978383615dbb565b6139a6565b6139a68284615dbb565b90505b92915050565b816001600160a01b0316816001600160a01b031603613a105760405162461bcd60e51b815260206004820152600160248201527f79000000000000000000000000000000000000000000000000000000000000006044820152606401610ca0565b600480546040517f7ab9e7fe00000000000000000000000000000000000000000000000000000000815260ff808a169382019390935291871660248301526000916001600160a01b0390911690637ab9e7fe90604401602060405180830381865afa158015613a83573d6000803e3d6000fd5b505050506040513d601f19601f82011682018060405250810190613aa79190615dd4565b600480546040517f7ab9e7fe00000000000000000000000000000000000000000000000000000000815260ff808a169382019390935291871660248301529192506000916001600160a01b031690637ab9e7fe90604401602060405180830381865afa158015613b1b573d6000803e3d6000fd5b505050506040513d601f19601f82011682018060405250810190613b3f9190615dd4565b905061ffff82161580613b54575061ffff8116155b80613b6757508061ffff168261ffff1614155b613bb35760405162461bcd60e51b815260206004820152600160248201527f63000000000000000000000000000000000000000000000000000000000000006044820152606401610ca0565b6000613bbf888761397e565b613bc98a8961397e565b613bd39190615c6e565b905060008160ff16118015613bec575060268160ff1611155b613c3a5760405162461bcd60e51b8152600401610ca09060208082526004908201527f2066617200000000000000000000000000000000000000000000000000000000604082015260600190565b60ff808a166000908152600860209081526040808320938c1683529290522054613c65906096615ae1565b6001546040517f41ede44f00000000000000000000000000000000000000000000000000000000815260ff808d1660048301528b1660248201526001600160a01b03909116906341ede44f90604401602060405180830381865afa158015613cd1573d6000803e3d6000fd5b505050506040513d601f19601f82011682018060405250810190613cf59190615b79565b1015613d275760405162461bcd60e51b81526020600482015260016024820152601d60fa1b6044820152606401610ca0565b60ff8088166000908152600960209081526040808320938a1683529290522054613d539061012c615ae1565b6001546040517f41ede44f00000000000000000000000000000000000000000000000000000000815260ff808b166004830152891660248201526001600160a01b03909116906341ede44f90604401602060405180830381865afa158015613dbf573d6000803e3d6000fd5b505050506040513d601f19601f82011682018060405250810190613de39190615b79565b1015613e315760405162461bcd60e51b815260206004820152600260248201527f64630000000000000000000000000000000000000000000000000000000000006044820152606401610ca0565b505050505050505050565b6000816101600151826101400151613e549190615ae1565b613e6260ff8516600a615c01565b613e6c9190615c01565b600180549192506001600160a01b0390911690633e5f285790879087906064613e96876028615c01565b613ea09190615c18565b6040517fffffffff0000000000000000000000000000000000000000000000000000000060e087901b16815260ff948516600482015292841660248401529216604482015260648101919091526000608482015260a401600060405180830381600087803b158015613f1157600080fd5b505af1158015613f25573d6000803e3d6000fd5b50506001546001600160a01b03169150633e5f28579050868660026064613f4d87601e615c01565b613f579190615c18565b6040517fffffffff0000000000000000000000000000000000000000000000000000000060e087901b16815260ff948516600482015292841660248401529216604482015260648101919091526000608482015260a401600060405180830381600087803b158015613fc857600080fd5b505af1158015613fdc573d6000803e3d6000fd5b50506001546001600160a01b03169150633e5f28579050868660036064614004876014615c01565b61400e9190615c18565b6040517fffffffff0000000000000000000000000000000000000000000000000000000060e087901b16815260ff948516600482015292841660248401529216604482015260648101919091526000608482015260a401600060405180830381600087803b15801561407f57600080fd5b505af1158015614093573d6000803e3d6000fd5b50506001546001600160a01b03169150633e5f285790508686600460646140bb87600a615c01565b6140c59190615c18565b6040517fffffffff0000000000000000000000000000000000000000000000000000000060e087901b16815260ff948516600482015292841660248401529216604482015260648101919091526000608482015260a401600060405180830381600087803b15801561413657600080fd5b505af1158015613e31573d6000803e3d6000fd5b6001546040517f2a490ae800000000000000000000000000000000000000000000000000000000815260ff808516600483015283166024820152600091829182916001600160a01b031690632a490ae890604401602060405180830381865afa1580156141bb573d6000803e3d6000fd5b505050506040513d601f19601f820116820180604052508101906141df9190615b79565b90506000876080015161ffff1688610180015161ffff168961016001518a6101400151600261420e9190615c01565b6142189190615ae1565b6142229190615ae1565b61422c9190615ae1565b9050600061423b836064615c01565b886080015161ffff16896101a0015161ffff168a610160015160026142609190615c01565b8b61014001516142709190615ae1565b61427a9190615ae1565b6142849190615ae1565b61428e9190615ae1565b9199919850909650505050505050565b6142c96040518060800160405280600081526020016000815260200160008152602001600081525090565b60006142e783608001518460a001518560c001518660e00151614f22565b80519091501561437857600154835160208501518351604051633e5f285760e01b815260ff9384166004820152929091166024830152600960448301526064820152600060848201526001600160a01b0390911690633e5f28579060a401600060405180830381600087803b15801561435f57600080fd5b505af1158015614373573d6000803e3d6000fd5b505050505b60208101511561440c57600154835160208086015190840151604051633e5f285760e01b815260ff9384166004820152929091166024830152600a60448301526064820152600060848201526001600160a01b0390911690633e5f28579060a401600060405180830381600087803b1580156143f357600080fd5b505af1158015614407573d6000803e3d6000fd5b505050505b6040810151156144a3576001546040848101516060860151848301519251633e5f285760e01b815260ff928316600482015291166024820152600960448201526064810191909152600060848201526001600160a01b0390911690633e5f28579060a401600060405180830381600087803b15801561448a57600080fd5b505af115801561449e573d6000803e3d6000fd5b505050505b6060810151156139a957600154604084810151606080870151908501519251633e5f285760e01b815260ff928316600482015291166024820152600a60448201526064810191909152600060848201526001600160a01b0390911690633e5f28579060a401600060405180830381600087803b15801561452257600080fd5b505af1158015614536573d6000803e3d6000fd5b5050505092915050565b6000808260e001518360c001511161456b578260c001518360e001516145669190615a3f565b61457f565b8260e001518360c0015161457f9190615a3f565b905060008360e001518460c001516145979190615ae1565b9050600081116145e95760405162461bcd60e51b815260206004820152600160248201527f7a000000000000000000000000000000000000000000000000000000000000006044820152606401610ca0565b6000816145f7846064615c01565b6146019190615c18565b9050600061461c61461383601e615ae1565b600a603c6151bc565b905061464660018760a0015160000151886000015189602001518a604001518b60600151876151e6565b6146509086615ae1565b945061467a60028760a0015160200151886000015189602001518a604001518b60600151876151e6565b6146849086615ae1565b94506146ae60038760a0015160400151886000015189602001518a604001518b60600151876151e6565b6146b89086615ae1565b94506146e260048760a0015160600151886000015189602001518a604001518b60600151876151e6565b6146ec9086615ae1565b9695505050505050565b600154845160208601516040517f41ede44f00000000000000000000000000000000000000000000000000000000815260ff9283166004820152911660248201526001600160a01b03909116906341ede44f90604401602060405180830381865afa158015614769573d6000803e3d6000fd5b505050506040513d601f19601f8201168201806040525081019061478d9190615b79565b845160ff9081166000908152600860209081526040808320828a01519094168352929052819020919091558301511561488557600154604085810151606087015191517f41ede44f00000000000000000000000000000000000000000000000000000000815260ff9182166004820152911660248201526001600160a01b03909116906341ede44f90604401602060405180830381865afa158015614836573d6000803e3d6000fd5b505050506040513d601f19601f8201168201806040525081019061485a9190615b79565b60408086015160ff90811660009081526009602090815283822060608a015190931682529190915220555b600154845160208601516040517f7659bc6000000000000000000000000000000000000000000000000000000000815260ff9283166004820152911660248201526001600160a01b0390911690637659bc6090604401600060405180830381600087803b1580156148f557600080fd5b505af1158015614909573d6000803e3d6000fd5b5050600154604087810151606089015191517f7659bc6000000000000000000000000000000000000000000000000000000000815260ff9182166004820152911660248201526001600160a01b039091169250637659bc609150604401600060405180830381600087803b15801561498057600080fd5b505af1158015614994573d6000803e3d6000fd5b50505060408085015160048054885160208a015194517f9cec51940000000000000000000000000000000000000000000000000000000081529395506000946001600160a01b0390921693639cec5194936149ff93910160ff92831681529116602082015260400190565b600060405180830381865afa158015614a1c573d6000803e3d6000fd5b505050506040513d6000823e601f3d908101601f19168201604052614a449190810190615df1565b6004805460408981015160608b015191517f9cec519400000000000000000000000000000000000000000000000000000000815260ff918216948101949094521660248301529192506000916001600160a01b031690639cec519490604401600060405180830381865afa158015614ac0573d6000803e3d6000fd5b505050506040513d6000823e601f3d908101601f19168201604052614ae89190810190615df1565b9050600a604051806101a00160405280896000015160ff168152602001896020015160ff168152602001896040015160ff168152602001896060015160ff168152602001428152602001886040015115158152602001896080015161016001518a608001516101400151614b5c9190615ae1565b815288516020818101519151920191614b759190615ae1565b81526020018960c0015181526020018960a0015161016001518a60a001516101400151614ba29190615ae1565b8152602001886000015160600151896000015160400151614bc39190615ae1565b815260e08a8101516020808401919091528a81015160409384015284546001808201875560009687528287208651600a909302018054878501518888015160608a015160ff96871661ffff19909416939093176101009287168302177fffffffffffffffffffffffffffffffffffffffffffffffffffffffff0000ffff1662010000918716919091027fffffffffffffffffffffffffffffffffffffffffffffffffffffffff00ffffff16176301000000959092169490940217815560808701518183015560a08701516002808301805460ff19169215159290921790915560c088015160038301559487015160048201559186015160058301556101208601516006830155610140860151600783015561016086015160088301556101809095015160099091015582518084019093528683528201859052600b80549384018155909352805190927f0175b7a638427703f0dbe7bb9bbf987a2551717b34e79f33b5b1008d1fa01db9920291909101908190614d409082615ed9565b5060208201516001820190614d559082615ed9565b5050600a5460009150614d6a90600190615a3f565b9050600c6000614d8e8a600001518b6020015160ff1660089190911b61ff00161790565b61ffff16815260208082019290925260409081016000908120805460018101825590825292812090920183905589015160608a0151600c9291614ddc9160ff1660089190911b61ff00161790565b61ffff168152602080820192909252604090810160009081208054600181018255908252908390200183905589518a8301518b8301516060808e0151855160ff9586168152938516968401969096529083168285015291909316908301528515156080830152516001600160a01b0387811692908916917f47389018a4bfd5e1ef612f1fe9082cc3e3675be36e77743a6bfaf0ea011d586f9181900360a00190a35050505050505050565b60ff818116600884901b61ff00161760008181526006602052604090205490916005911610614ef85760405162461bcd60e51b815260206004820152600160248201527f35000000000000000000000000000000000000000000000000000000000000006044820152606401610ca0565b61ffff166000908152600660205260409020805460ff8082166001011660ff199091161790555050565b614f4d6040518060800160405280600081526020016000815260200160008152602001600081525090565b6000828411614f6557614f608484615a3f565b614f6f565b614f6f8385615a3f565b90506000614f7d8486615ae1565b905060008111614fcf5760405162461bcd60e51b815260206004820152600160248201527f7a000000000000000000000000000000000000000000000000000000000000006044820152606401610ca0565b600081614fdd846064615c01565b614fe79190615c18565b9050848611156150e057606461501c60026150028484615a3f565b61500c9190615c18565b615017906019615ae1565b61531e565b89610140015161502c9190615c01565b6150369190615c18565b8452606461505e60046150498484615a3f565b6150539190615c18565b61501790600a615ae1565b89610160015161506e9190615c01565b6150789190615c18565b6020850152606461508d615017836032615ae1565b88610140015161509d9190615c01565b6150a79190615c18565b604085015260646150bc615017836032615ae1565b8861016001516150cc9190615c01565b6150d69190615c18565b60608501526151b1565b60646150f0615017836032615ae1565b8961014001516151009190615c01565b61510a9190615c18565b8452606461511c61500c600284615c18565b89610160015161512c9190615c01565b6151369190615c18565b60208501526064615161600461514c8484615a3f565b6151569190615c18565b61501790600f615ae1565b8861014001516151719190615c01565b61517b9190615c18565b6040850152606461519160046150498484615a3f565b8861016001516151a19190615c01565b6151ab9190615c18565b60608501525b505050949350505050565b6000828410156151cd5750816151df565b818411156151dc5750806151df565b50825b9392505050565b6000600187111561531357600060646151ff848a615c01565b6152099190615c18565b9050801561531157600154604051633e5f285760e01b815260ff808816600483015280871660248301528b16604482015260648101839052600060848201526001600160a01b0390911690633e5f28579060a401600060405180830381600087803b15801561527757600080fd5b505af115801561528b573d6000803e3d6000fd5b505060018054604051633e5f285760e01b815260ff808d166004830152808c1660248301528e1660448201526064810186905260848101929092526001600160a01b03169250633e5f2857915060a401600060405180830381600087803b1580156152f557600080fd5b505af1158015615309573d6000803e3d6000fd5b505050508091505b505b979650505050505050565b60006139a961532e83600a615335565b605a61534b565b600081831161534457816139a6565b5090919050565b600081831061534457816139a6565b604051806101000160405280600060ff168152602001600060ff168152602001600060ff168152602001600060ff168152602001615413604051806101e0016040528060008152602001600081526020016000815260200160008152602001600061ffff16815260200160008152602001600081526020016000815260200160008152602001600081526020016000815260200160008152602001600061ffff168152602001600061ffff168152602001600081525090565b815260200161549d604051806101e0016040528060008152602001600081526020016000815260200160008152602001600061ffff16815260200160008152602001600081526020016000815260200160008152602001600081526020016000815260200160008152602001600061ffff168152602001600061ffff168152602001600081525090565b815260200160008152602001600081525090565b60405180606001604052806154e76040518060800160405280600081526020016000815260200160008152602001600081525090565b815260006020820181905260409091015290565b60005b838110156155165781810151838201526020016154fe565b50506000910152565b600081518084526155378160208601602086016154fb565b601f01601f19169290920160200192915050565b600082825180855260208086019550808260051b84010181860160005b848110156155bc57601f1986840301895281516040815181865261558e8287018261551f565b915050858201519150848103868601526155a8818361551f565b9a86019a9450505090830190600101615568565b5090979650505050505050565b6040808252835182820181905260009190606090818501906020808901865b83811015615640578151805160ff908116875284820151811685880152888201518116898801528782015116878701526080808201519087015260a09081015115159086015260c090940193908201906001016155e8565b50508683039087015250615313818761554b565b803560ff8116811461566557600080fd5b919050565b6000806000806080858703121561568057600080fd5b61568985615654565b935061569760208601615654565b92506156a560408601615654565b91506156b360608601615654565b905092959194509250565b61ffff811681146156ce57600080fd5b50565b6000602082840312156156e357600080fd5b81356151df816156be565b6000806000806080858703121561570457600080fd5b61570d85615654565b935061571b60208601615654565b925061572960408601615654565b9396929550929360600135925050565b60008060008060008060c0878903121561575257600080fd5b61575b87615654565b955061576960208801615654565b945061577760408801615654565b935061578560608801615654565b925061579360808801615654565b915060a087013590509295509295509295565b600080604083850312156157b957600080fd5b6157c283615654565b91506157d060208401615654565b90509250929050565b602080825282518282018190526000919060409081850190868401855b8281101561589e578151805160ff90811686528782015181168887015286820151811687870152606080830151909116908601526080808201519086015260a08082015115159086015260c0808201519086015260e08082015190860152610100808201519086015261012080820151908601526101408082015190860152610160808201519086015261018090810151908501526101a090930192908501906001016157f6565b5091979650505050505050565b600080600080608085870312156158c157600080fd5b6158ca85615654565b93506158d860208601615654565b93969395505050506040820135916060013590565b6000806040838503121561590057600080fd5b50508035926020909101359150565b600080600080600060a0868803121561592757600080fd5b61593086615654565b945061593e60208701615654565b935061594c60408701615654565b94979396509394606081013594506080013592915050565b60008060006060848603121561597957600080fd5b61598284615654565b925061599060208501615654565b915061599e60408501615654565b90509250925092565b602080825282518282018190526000919060409081850190868401855b8281101561589e578151805160ff908116865287820151811688870152868201511686860152606080820151908601526080908101519085015260a090930192908501906001016159c4565b7f4e487b7100000000000000000000000000000000000000000000000000000000600052601160045260246000fd5b818103818111156139a9576139a9615a10565b7f4e487b7100000000000000000000000000000000000000000000000000000000600052603260045260246000fd5b60006000198203615a9457615a94615a10565b5060010190565b600081615aaa57615aaa615a10565b506000190190565b7f4e487b7100000000000000000000000000000000000000000000000000000000600052604160045260246000fd5b808201808211156139a9576139a9615a10565b600181811c90821680615b0857607f821691505b602082108103615b41577f4e487b7100000000000000000000000000000000000000000000000000000000600052602260045260246000fd5b50919050565b80516001600160a01b038116811461566557600080fd5b600060208284031215615b7057600080fd5b6139a682615b47565b600060208284031215615b8b57600080fd5b5051919050565b8051801515811461566557600080fd5b60008060008060008060c08789031215615bbb57600080fd5b615bc487615b92565b9550615bd260208801615b47565b9450615be060408801615b92565b9350606087015192506080870151915060a087015190509295509295509295565b80820281158282048414176139a9576139a9615a10565b600082615c4e577f4e487b7100000000000000000000000000000000000000000000000000000000600052601260045260246000fd5b500490565b600060208284031215615c6557600080fd5b6139a682615b92565b60ff81811683821601908111156139a9576139a9615a10565b6040516101e0810167ffffffffffffffff81118282101715615cab57615cab615ab2565b60405290565b8051615665816156be565b60006101e08284031215615ccf57600080fd5b615cd7615c87565b82518152602083015160208201526040830151604082015260608301516060820152615d0560808401615cb1565b608082015260a0838101519082015260c0808401519082015260e080840151908201526101008084015190820152610120808401519082015261014080840151908201526101608084015190820152610180615d62818501615cb1565b908201526101a0615d74848201615cb1565b908201526101c0928301519281019290925250919050565b7f4e487b7100000000000000000000000000000000000000000000000000000000600052603160045260246000fd5b60ff82811682821603908111156139a9576139a9615a10565b600060208284031215615de657600080fd5b81516151df816156be565b600060208284031215615e0357600080fd5b815167ffffffffffffffff80821115615e1b57600080fd5b818401915084601f830112615e2f57600080fd5b815181811115615e4157615e41615ab2565b604051601f8201601f19908116603f01168101908382118183101715615e6957615e69615ab2565b81604052828152876020848701011115615e8257600080fd5b6153138360208301602088016154fb565b601f82111561397957600081815260208120601f850160051c81016020861015615eba5750805b601f850160051c820191505b818110156117f857828155600101615ec6565b815167ffffffffffffffff811115615ef357615ef3615ab2565b615f0781615f018454615af4565b84615e93565b602080601f831160018114615f3c5760008415615f245750858301515b600019600386901b1c1916600185901b1785556117f8565b600085815260208120601f198616915b82811015615f6b57888601518255948401946001909101908401615f4c565b5085821015615f895787850151600019600388901b60f8161c191681555b5050505050600190811b0190555056fea26469706673582212209a42406b407f1a11c5ddaa2cd1e8e271f6aa1858879025aa3902e0a03be332f864736f6c63430008120033",
			"opcodes": "PUSH1 0x80 PUSH1 0x40 MSTORE CALLVALUE DUP1 ISZERO PUSH3 0x11 JUMPI PUSH1 0x0 DUP1 REVERT JUMPDEST POP PUSH1 0x40 MLOAD PUSH3 0x60E6 CODESIZE SUB DUP1 PUSH3 0x60E6 DUP4 CODECOPY DUP2 ADD PUSH1 0x40 DUP2 SWAP1 MSTORE PUSH3 0x34 SWAP2 PUSH3 0xAA JUMP JUMPDEST PUSH1 0x1 PUSH1 0x0 DUP2 SWAP1 SSTORE DUP1 SLOAD PUSH1 0x1 PUSH1 0x1 PUSH1 0xA0 SHL SUB SWAP6 DUP7 AND PUSH1 0x1 PUSH1 0x1 PUSH1 0xA0 SHL SUB NOT SWAP2 DUP3 AND OR SWAP1 SWAP2 SSTORE PUSH1 0x2 DUP1 SLOAD SWAP5 DUP7 AND SWAP5 DUP3 AND SWAP5 SWAP1 SWAP5 OR SWAP1 SWAP4 SSTORE PUSH1 0x3 DUP1 SLOAD SWAP3 DUP6 AND SWAP3 DUP5 AND SWAP3 SWAP1 SWAP3 OR SWAP1 SWAP2 SSTORE PUSH1 0x4 DUP1 SLOAD SWAP2 SWAP1 SWAP4 AND SWAP2 AND OR SWAP1 SSTORE PUSH3 0x107 JUMP JUMPDEST DUP1 MLOAD PUSH1 0x1 PUSH1 0x1 PUSH1 0xA0 SHL SUB DUP2 AND DUP2 EQ PUSH3 0xA5 JUMPI PUSH1 0x0 DUP1 REVERT JUMPDEST SWAP2 SWAP1 POP JUMP JUMPDEST PUSH1 0x0 DUP1 PUSH1 0x0 DUP1 PUSH1 0x80 DUP6 DUP8 SUB SLT ISZERO PUSH3 0xC1 JUMPI PUSH1 0x0 DUP1 REVERT JUMPDEST PUSH3 0xCC DUP6 PUSH3 0x8D JUMP JUMPDEST SWAP4 POP PUSH3 0xDC PUSH1 0x20 DUP7 ADD PUSH3 0x8D JUMP JUMPDEST SWAP3 POP PUSH3 0xEC PUSH1 0x40 DUP7 ADD PUSH3 0x8D JUMP JUMPDEST SWAP2 POP PUSH3 0xFC PUSH1 0x60 DUP7 ADD PUSH3 0x8D JUMP JUMPDEST SWAP1 POP SWAP3 SWAP6 SWAP2 SWAP5 POP SWAP3 POP JUMP JUMPDEST PUSH2 0x5FCF DUP1 PUSH3 0x117 PUSH1 0x0 CODECOPY PUSH1 0x0 RETURN INVALID PUSH1 0x80 PUSH1 0x40 MSTORE CALLVALUE DUP1 ISZERO PUSH2 0x10 JUMPI PUSH1 0x0 DUP1 REVERT JUMPDEST POP PUSH1 0x4 CALLDATASIZE LT PUSH2 0x16C JUMPI PUSH1 0x0 CALLDATALOAD PUSH1 0xE0 SHR DUP1 PUSH4 0x763540CD GT PUSH2 0xCD JUMPI DUP1 PUSH4 0xB0D77774 GT PUSH2 0x81 JUMPI DUP1 PUSH4 0xC49443AC GT PUSH2 0x66 JUMPI DUP1 PUSH4 0xC49443AC EQ PUSH2 0x379 JUMPI DUP1 PUSH4 0xCA030079 EQ PUSH2 0x38C JUMPI DUP1 PUSH4 0xEFCB01BA EQ PUSH2 0x39F JUMPI PUSH1 0x0 DUP1 REVERT JUMPDEST DUP1 PUSH4 0xB0D77774 EQ PUSH2 0x353 JUMPI DUP1 PUSH4 0xC399C2B0 EQ PUSH2 0x366 JUMPI PUSH1 0x0 DUP1 REVERT JUMPDEST DUP1 PUSH4 0x823E9282 GT PUSH2 0xB2 JUMPI DUP1 PUSH4 0x823E9282 EQ PUSH2 0x30D JUMPI DUP1 PUSH4 0x999A2F7A EQ PUSH2 0x32D JUMPI DUP1 PUSH4 0xADA680CF EQ PUSH2 0x340 JUMPI PUSH1 0x0 DUP1 REVERT JUMPDEST DUP1 PUSH4 0x763540CD EQ PUSH2 0x28E JUMPI DUP1 PUSH4 0x77F8C951 EQ PUSH2 0x2B9 JUMPI PUSH1 0x0 DUP1 REVERT JUMPDEST DUP1 PUSH4 0x3A965C90 GT PUSH2 0x124 JUMPI DUP1 PUSH4 0x54ADAC10 GT PUSH2 0x109 JUMPI DUP1 PUSH4 0x54ADAC10 EQ PUSH2 0x23D JUMPI DUP1 PUSH4 0x697E71D2 EQ PUSH2 0x250 JUMPI DUP1 PUSH4 0x70D27E41 EQ PUSH2 0x263 JUMPI PUSH1 0x0 DUP1 REVERT JUMPDEST DUP1 PUSH4 0x3A965C90 EQ PUSH2 0x217 JUMPI DUP1 PUSH4 0x4F264B03 EQ PUSH2 0x22A JUMPI PUSH1 0x0 DUP1 REVERT JUMPDEST DUP1 PUSH4 0x21F65C90 GT PUSH2 0x155 JUMPI DUP1 PUSH4 0x21F65C90 EQ PUSH2 0x1B7 JUMPI DUP1 PUSH4 0x2C400CB7 EQ PUSH2 0x1CD JUMPI DUP1 PUSH4 0x30378338 EQ PUSH2 0x1E2 JUMPI PUSH1 0x0 DUP1 REVERT JUMPDEST DUP1 PUSH4 0xD67F59E EQ PUSH2 0x171 JUMPI DUP1 PUSH4 0x10AC4633 EQ PUSH2 0x1A1 JUMPI JUMPDEST PUSH1 0x0 DUP1 REVERT JUMPDEST PUSH1 0x2 SLOAD PUSH2 0x184 SWAP1 PUSH1 0x1 PUSH1 0x1 PUSH1 0xA0 SHL SUB AND DUP2 JUMP JUMPDEST PUSH1 0x40 MLOAD PUSH1 0x1 PUSH1 0x1 PUSH1 0xA0 SHL SUB SWAP1 SWAP2 AND DUP2 MSTORE PUSH1 0x20 ADD JUMPDEST PUSH1 0x40 MLOAD DUP1 SWAP2 SUB SWAP1 RETURN JUMPDEST PUSH2 0x1A9 PUSH1 0xA DUP2 JUMP JUMPDEST PUSH1 0x40 MLOAD SWAP1 DUP2 MSTORE PUSH1 0x20 ADD PUSH2 0x198 JUMP JUMPDEST PUSH2 0x1BF PUSH2 0x3BF JUMP JUMPDEST PUSH1 0x40 MLOAD PUSH2 0x198 SWAP3 SWAP2 SWAP1 PUSH2 0x55C9 JUMP JUMPDEST PUSH2 0x1E0 PUSH2 0x1DB CALLDATASIZE PUSH1 0x4 PUSH2 0x566A JUMP JUMPDEST PUSH2 0x814 JUMP JUMPDEST STOP JUMPDEST PUSH2 0x205 PUSH2 0x1F0 CALLDATASIZE PUSH1 0x4 PUSH2 0x56D1 JUMP JUMPDEST PUSH1 0x6 PUSH1 0x20 MSTORE PUSH1 0x0 SWAP1 DUP2 MSTORE PUSH1 0x40 SWAP1 KECCAK256 SLOAD PUSH1 0xFF AND DUP2 JUMP JUMPDEST PUSH1 0x40 MLOAD PUSH1 0xFF SWAP1 SWAP2 AND DUP2 MSTORE PUSH1 0x20 ADD PUSH2 0x198 JUMP JUMPDEST PUSH2 0x1E0 PUSH2 0x225 CALLDATASIZE PUSH1 0x4 PUSH2 0x56EE JUMP JUMPDEST PUSH2 0xB97 JUMP JUMPDEST PUSH1 0x3 SLOAD PUSH2 0x184 SWAP1 PUSH1 0x1 PUSH1 0x1 PUSH1 0xA0 SHL SUB AND DUP2 JUMP JUMPDEST PUSH2 0x1E0 PUSH2 0x24B CALLDATASIZE PUSH1 0x4 PUSH2 0x5739 JUMP JUMPDEST PUSH2 0xE92 JUMP JUMPDEST PUSH2 0x1E0 PUSH2 0x25E CALLDATASIZE PUSH1 0x4 PUSH2 0x566A JUMP JUMPDEST PUSH2 0x1800 JUMP JUMPDEST PUSH2 0x1A9 PUSH2 0x271 CALLDATASIZE PUSH1 0x4 PUSH2 0x57A6 JUMP JUMPDEST PUSH1 0x9 PUSH1 0x20 SWAP1 DUP2 MSTORE PUSH1 0x0 SWAP3 DUP4 MSTORE PUSH1 0x40 DUP1 DUP5 KECCAK256 SWAP1 SWAP2 MSTORE SWAP1 DUP3 MSTORE SWAP1 KECCAK256 SLOAD DUP2 JUMP JUMPDEST PUSH2 0x1A9 PUSH2 0x29C CALLDATASIZE PUSH1 0x4 PUSH2 0x57A6 JUMP JUMPDEST PUSH1 0x8 PUSH1 0x20 SWAP1 DUP2 MSTORE PUSH1 0x0 SWAP3 DUP4 MSTORE PUSH1 0x40 DUP1 DUP5 KECCAK256 SWAP1 SWAP2 MSTORE SWAP1 DUP3 MSTORE SWAP1 KECCAK256 SLOAD DUP2 JUMP JUMPDEST PUSH2 0x2CC PUSH2 0x2C7 CALLDATASIZE PUSH1 0x4 PUSH2 0x57A6 JUMP JUMPDEST PUSH2 0x1BF1 JUMP JUMPDEST PUSH1 0x40 MLOAD PUSH2 0x198 SWAP2 SWAP1 PUSH1 0x0 PUSH1 0x80 DUP3 ADD SWAP1 POP PUSH1 0xFF DUP4 MLOAD AND DUP3 MSTORE PUSH1 0xFF PUSH1 0x20 DUP5 ADD MLOAD AND PUSH1 0x20 DUP4 ADD MSTORE PUSH1 0xFF PUSH1 0x40 DUP5 ADD MLOAD AND PUSH1 0x40 DUP4 ADD MSTORE PUSH1 0x60 DUP4 ADD MLOAD PUSH1 0x60 DUP4 ADD MSTORE SWAP3 SWAP2 POP POP JUMP JUMPDEST PUSH2 0x320 PUSH2 0x31B CALLDATASIZE PUSH1 0x4 PUSH2 0x57A6 JUMP JUMPDEST PUSH2 0x1D17 JUMP JUMPDEST PUSH1 0x40 MLOAD PUSH2 0x198 SWAP2 SWAP1 PUSH2 0x57D9 JUMP JUMPDEST PUSH2 0x1E0 PUSH2 0x33B CALLDATASIZE PUSH1 0x4 PUSH2 0x56EE JUMP JUMPDEST PUSH2 0x208A JUMP JUMPDEST PUSH2 0x320 PUSH2 0x34E CALLDATASIZE PUSH1 0x4 PUSH2 0x58AB JUMP JUMPDEST PUSH2 0x2889 JUMP JUMPDEST PUSH1 0x1 SLOAD PUSH2 0x184 SWAP1 PUSH1 0x1 PUSH1 0x1 PUSH1 0xA0 SHL SUB AND DUP2 JUMP JUMPDEST PUSH2 0x1BF PUSH2 0x374 CALLDATASIZE PUSH1 0x4 PUSH2 0x58ED JUMP JUMPDEST PUSH2 0x2C26 JUMP JUMPDEST PUSH1 0x4 SLOAD PUSH2 0x184 SWAP1 PUSH1 0x1 PUSH1 0x1 PUSH1 0xA0 SHL SUB AND DUP2 JUMP JUMPDEST PUSH2 0x1E0 PUSH2 0x39A CALLDATASIZE PUSH1 0x4 PUSH2 0x590F JUMP JUMPDEST PUSH2 0x30A8 JUMP JUMPDEST PUSH2 0x3B2 PUSH2 0x3AD CALLDATASIZE PUSH1 0x4 PUSH2 0x5964 JUMP JUMPDEST PUSH2 0x34FB JUMP JUMPDEST PUSH1 0x40 MLOAD PUSH2 0x198 SWAP2 SWAP1 PUSH2 0x59A7 JUMP JUMPDEST PUSH1 0x60 DUP1 PUSH1 0x0 PUSH2 0x3D1 PUSH3 0x93A80 TIMESTAMP PUSH2 0x5A3F JUMP JUMPDEST PUSH1 0xA SLOAD SWAP1 SWAP2 POP PUSH1 0x0 SWAP1 JUMPDEST DUP1 ISZERO PUSH2 0x43F JUMPI DUP3 PUSH1 0xA PUSH2 0x3EF PUSH1 0x1 DUP5 PUSH2 0x5A3F JUMP JUMPDEST DUP2 SLOAD DUP2 LT PUSH2 0x3FF JUMPI PUSH2 0x3FF PUSH2 0x5A52 JUMP JUMPDEST SWAP1 PUSH1 0x0 MSTORE PUSH1 0x20 PUSH1 0x0 KECCAK256 SWAP1 PUSH1 0xA MUL ADD PUSH1 0x1 ADD SLOAD LT PUSH2 0x428 JUMPI DUP2 PUSH2 0x420 DUP2 PUSH2 0x5A81 JUMP JUMPDEST SWAP3 POP POP PUSH2 0x42D JUMP JUMPDEST PUSH2 0x43F JUMP JUMPDEST DUP1 PUSH2 0x437 DUP2 PUSH2 0x5A9B JUMP JUMPDEST SWAP2 POP POP PUSH2 0x3DB JUMP JUMPDEST POP DUP1 PUSH8 0xFFFFFFFFFFFFFFFF DUP2 GT ISZERO PUSH2 0x459 JUMPI PUSH2 0x459 PUSH2 0x5AB2 JUMP JUMPDEST PUSH1 0x40 MLOAD SWAP1 DUP1 DUP3 MSTORE DUP1 PUSH1 0x20 MUL PUSH1 0x20 ADD DUP3 ADD PUSH1 0x40 MSTORE DUP1 ISZERO PUSH2 0x4B9 JUMPI DUP2 PUSH1 0x20 ADD JUMPDEST PUSH1 0x40 DUP1 MLOAD PUSH1 0xC0 DUP2 ADD DUP3 MSTORE PUSH1 0x0 DUP1 DUP3 MSTORE PUSH1 0x20 DUP1 DUP4 ADD DUP3 SWAP1 MSTORE SWAP3 DUP3 ADD DUP2 SWAP1 MSTORE PUSH1 0x60 DUP3 ADD DUP2 SWAP1 MSTORE PUSH1 0x80 DUP3 ADD DUP2 SWAP1 MSTORE PUSH1 0xA0 DUP3 ADD MSTORE DUP3 MSTORE PUSH1 0x0 NOT SWAP1 SWAP3 ADD SWAP2 ADD DUP2 PUSH2 0x477 JUMPI SWAP1 POP JUMPDEST POP SWAP4 POP DUP1 PUSH8 0xFFFFFFFFFFFFFFFF DUP2 GT ISZERO PUSH2 0x4D5 JUMPI PUSH2 0x4D5 PUSH2 0x5AB2 JUMP JUMPDEST PUSH1 0x40 MLOAD SWAP1 DUP1 DUP3 MSTORE DUP1 PUSH1 0x20 MUL PUSH1 0x20 ADD DUP3 ADD PUSH1 0x40 MSTORE DUP1 ISZERO PUSH2 0x51A JUMPI DUP2 PUSH1 0x20 ADD JUMPDEST PUSH1 0x40 DUP1 MLOAD DUP1 DUP3 ADD SWAP1 SWAP2 MSTORE PUSH1 0x60 DUP1 DUP3 MSTORE PUSH1 0x20 DUP3 ADD MSTORE DUP2 MSTORE PUSH1 0x20 ADD SWAP1 PUSH1 0x1 SWAP1 SUB SWAP1 DUP2 PUSH2 0x4F3 JUMPI SWAP1 POP JUMPDEST POP PUSH1 0xA SLOAD SWAP1 SWAP4 POP PUSH1 0x0 SWAP1 PUSH2 0x52F SWAP1 DUP4 SWAP1 PUSH2 0x5A3F JUMP JUMPDEST SWAP1 POP PUSH1 0x0 JUMPDEST DUP3 DUP2 LT ISZERO PUSH2 0x80C JUMPI PUSH1 0x0 PUSH1 0xA PUSH2 0x54A DUP4 DUP6 PUSH2 0x5AE1 JUMP JUMPDEST DUP2 SLOAD DUP2 LT PUSH2 0x55A JUMPI PUSH2 0x55A PUSH2 0x5A52 JUMP JUMPDEST PUSH1 0x0 SWAP2 DUP3 MSTORE PUSH1 0x20 SWAP2 DUP3 SWAP1 KECCAK256 PUSH1 0x40 DUP1 MLOAD PUSH2 0x1A0 DUP2 ADD DUP3 MSTORE PUSH1 0xA SWAP1 SWAP4 MUL SWAP1 SWAP2 ADD DUP1 SLOAD PUSH1 0xFF DUP1 DUP3 AND DUP6 MSTORE PUSH2 0x100 DUP1 DUP4 DIV DUP3 AND DUP7 DUP9 ADD SWAP1 DUP2 MSTORE PUSH3 0x10000 DUP5 DIV DUP4 AND DUP8 DUP8 ADD SWAP1 DUP2 MSTORE PUSH4 0x1000000 SWAP1 SWAP5 DIV DUP4 AND PUSH1 0x60 DUP1 DUP10 ADD SWAP2 DUP3 MSTORE PUSH1 0x1 DUP8 ADD SLOAD PUSH1 0x80 DUP1 DUP12 ADD SWAP2 DUP3 MSTORE PUSH1 0x2 DUP10 ADD SLOAD DUP8 AND ISZERO ISZERO PUSH1 0xA0 DUP1 DUP14 ADD SWAP2 DUP3 MSTORE PUSH1 0x3 DUP12 ADD SLOAD PUSH1 0xC0 DUP1 DUP16 ADD SWAP2 SWAP1 SWAP2 MSTORE PUSH1 0x4 DUP13 ADD SLOAD PUSH1 0xE0 DUP16 ADD MSTORE PUSH1 0x5 DUP13 ADD SLOAD SWAP9 DUP15 ADD SWAP9 SWAP1 SWAP9 MSTORE PUSH1 0x6 DUP12 ADD SLOAD PUSH2 0x120 DUP15 ADD MSTORE PUSH1 0x7 DUP12 ADD SLOAD PUSH2 0x140 DUP15 ADD MSTORE PUSH1 0x8 DUP12 ADD SLOAD PUSH2 0x160 DUP15 ADD MSTORE PUSH1 0x9 SWAP1 SWAP11 ADD SLOAD PUSH2 0x180 DUP14 ADD MSTORE DUP11 MLOAD SWAP7 DUP8 ADD DUP12 MSTORE DUP12 MLOAD DUP9 AND DUP8 MSTORE SWAP5 MLOAD DUP8 AND SWAP12 DUP7 ADD SWAP12 SWAP1 SWAP12 MSTORE SWAP6 MLOAD DUP6 AND SWAP8 DUP5 ADD SWAP8 SWAP1 SWAP8 MSTORE MLOAD SWAP1 SWAP3 AND SWAP5 DUP2 ADD SWAP5 SWAP1 SWAP5 MSTORE SWAP1 MLOAD SWAP5 DUP4 ADD SWAP5 SWAP1 SWAP5 MSTORE SWAP3 MLOAD ISZERO ISZERO SWAP3 DUP2 ADD SWAP3 SWAP1 SWAP3 MSTORE DUP9 MLOAD SWAP1 SWAP3 POP DUP9 SWAP1 DUP5 SWAP1 DUP2 LT PUSH2 0x677 JUMPI PUSH2 0x677 PUSH2 0x5A52 JUMP JUMPDEST PUSH1 0x20 SWAP1 DUP2 MUL SWAP2 SWAP1 SWAP2 ADD ADD MSTORE PUSH1 0xB PUSH2 0x68E DUP4 DUP6 PUSH2 0x5AE1 JUMP JUMPDEST DUP2 SLOAD DUP2 LT PUSH2 0x69E JUMPI PUSH2 0x69E PUSH2 0x5A52 JUMP JUMPDEST SWAP1 PUSH1 0x0 MSTORE PUSH1 0x20 PUSH1 0x0 KECCAK256 SWAP1 PUSH1 0x2 MUL ADD PUSH1 0x40 MLOAD DUP1 PUSH1 0x40 ADD PUSH1 0x40 MSTORE SWAP1 DUP2 PUSH1 0x0 DUP3 ADD DUP1 SLOAD PUSH2 0x6C7 SWAP1 PUSH2 0x5AF4 JUMP JUMPDEST DUP1 PUSH1 0x1F ADD PUSH1 0x20 DUP1 SWAP2 DIV MUL PUSH1 0x20 ADD PUSH1 0x40 MLOAD SWAP1 DUP2 ADD PUSH1 0x40 MSTORE DUP1 SWAP3 SWAP2 SWAP1 DUP2 DUP2 MSTORE PUSH1 0x20 ADD DUP3 DUP1 SLOAD PUSH2 0x6F3 SWAP1 PUSH2 0x5AF4 JUMP JUMPDEST DUP1 ISZERO PUSH2 0x740 JUMPI DUP1 PUSH1 0x1F LT PUSH2 0x715 JUMPI PUSH2 0x100 DUP1 DUP4 SLOAD DIV MUL DUP4 MSTORE SWAP2 PUSH1 0x20 ADD SWAP2 PUSH2 0x740 JUMP JUMPDEST DUP3 ADD SWAP2 SWAP1 PUSH1 0x0 MSTORE PUSH1 0x20 PUSH1 0x0 KECCAK256 SWAP1 JUMPDEST DUP2 SLOAD DUP2 MSTORE SWAP1 PUSH1 0x1 ADD SWAP1 PUSH1 0x20 ADD DUP1 DUP4 GT PUSH2 0x723 JUMPI DUP3 SWAP1 SUB PUSH1 0x1F AND DUP3 ADD SWAP2 JUMPDEST POP POP POP POP POP DUP2 MSTORE PUSH1 0x20 ADD PUSH1 0x1 DUP3 ADD DUP1 SLOAD PUSH2 0x759 SWAP1 PUSH2 0x5AF4 JUMP JUMPDEST DUP1 PUSH1 0x1F ADD PUSH1 0x20 DUP1 SWAP2 DIV MUL PUSH1 0x20 ADD PUSH1 0x40 MLOAD SWAP1 DUP2 ADD PUSH1 0x40 MSTORE DUP1 SWAP3 SWAP2 SWAP1 DUP2 DUP2 MSTORE PUSH1 0x20 ADD DUP3 DUP1 SLOAD PUSH2 0x785 SWAP1 PUSH2 0x5AF4 JUMP JUMPDEST DUP1 ISZERO PUSH2 0x7D2 JUMPI DUP1 PUSH1 0x1F LT PUSH2 0x7A7 JUMPI PUSH2 0x100 DUP1 DUP4 SLOAD DIV MUL DUP4 MSTORE SWAP2 PUSH1 0x20 ADD SWAP2 PUSH2 0x7D2 JUMP JUMPDEST DUP3 ADD SWAP2 SWAP1 PUSH1 0x0 MSTORE PUSH1 0x20 PUSH1 0x0 KECCAK256 SWAP1 JUMPDEST DUP2 SLOAD DUP2 MSTORE SWAP1 PUSH1 0x1 ADD SWAP1 PUSH1 0x20 ADD DUP1 DUP4 GT PUSH2 0x7B5 JUMPI DUP3 SWAP1 SUB PUSH1 0x1F AND DUP3 ADD SWAP2 JUMPDEST POP POP POP POP POP DUP2 MSTORE POP POP DUP7 DUP4 DUP2 MLOAD DUP2 LT PUSH2 0x7ED JUMPI PUSH2 0x7ED PUSH2 0x5A52 JUMP JUMPDEST PUSH1 0x20 MUL PUSH1 0x20 ADD ADD DUP2 SWAP1 MSTORE POP POP DUP1 DUP1 PUSH2 0x804 SWAP1 PUSH2 0x5A81 JUMP JUMPDEST SWAP2 POP POP PUSH2 0x534 JUMP JUMPDEST POP POP POP POP SWAP1 SWAP2 JUMP JUMPDEST PUSH2 0x81C PUSH2 0x376B JUMP JUMPDEST PUSH1 0x3 SLOAD PUSH1 0x40 MLOAD PUSH4 0x8A888953 PUSH1 0xE0 SHL DUP2 MSTORE PUSH1 0xFF DUP1 DUP8 AND PUSH1 0x4 DUP4 ADD MSTORE DUP6 AND PUSH1 0x24 DUP3 ADD MSTORE DUP6 SWAP2 DUP6 SWAP2 CALLER SWAP2 PUSH1 0x1 PUSH1 0x1 PUSH1 0xA0 SHL SUB AND SWAP1 PUSH4 0x8A888953 SWAP1 PUSH1 0x44 ADD PUSH1 0x20 PUSH1 0x40 MLOAD DUP1 DUP4 SUB DUP2 DUP7 GAS STATICCALL ISZERO DUP1 ISZERO PUSH2 0x873 JUMPI RETURNDATASIZE PUSH1 0x0 DUP1 RETURNDATACOPY RETURNDATASIZE PUSH1 0x0 REVERT JUMPDEST POP POP POP POP PUSH1 0x40 MLOAD RETURNDATASIZE PUSH1 0x1F NOT PUSH1 0x1F DUP3 ADD AND DUP3 ADD DUP1 PUSH1 0x40 MSTORE POP DUP2 ADD SWAP1 PUSH2 0x897 SWAP2 SWAP1 PUSH2 0x5B5E JUMP JUMPDEST PUSH1 0x1 PUSH1 0x1 PUSH1 0xA0 SHL SUB AND EQ PUSH2 0x8BD JUMPI PUSH1 0x40 MLOAD PUSH3 0x7BBA63 PUSH1 0xE0 SHL DUP2 MSTORE PUSH1 0x4 ADD PUSH1 0x40 MLOAD DUP1 SWAP2 SUB SWAP1 REVERT JUMPDEST PUSH1 0x1 SLOAD PUSH1 0x40 MLOAD PUSH32 0x4173F9E900000000000000000000000000000000000000000000000000000000 DUP2 MSTORE PUSH1 0xFF DUP1 DUP8 AND PUSH1 0x4 DUP4 ADD MSTORE DUP6 AND PUSH1 0x24 DUP3 ADD MSTORE PUSH1 0x0 SWAP2 PUSH1 0x1 PUSH1 0x1 PUSH1 0xA0 SHL SUB AND SWAP1 PUSH4 0x4173F9E9 SWAP1 PUSH1 0x44 ADD PUSH1 0x20 PUSH1 0x40 MLOAD DUP1 DUP4 SUB DUP2 DUP7 GAS STATICCALL ISZERO DUP1 ISZERO PUSH2 0x92A JUMPI RETURNDATASIZE PUSH1 0x0 DUP1 RETURNDATACOPY RETURNDATASIZE PUSH1 0x0 REVERT JUMPDEST POP POP POP POP PUSH1 0x40 MLOAD RETURNDATASIZE PUSH1 0x1F NOT PUSH1 0x1F DUP3 ADD AND DUP3 ADD DUP1 PUSH1 0x40 MSTORE POP DUP2 ADD SWAP1 PUSH2 0x94E SWAP2 SWAP1 PUSH2 0x5B79 JUMP JUMPDEST SWAP1 POP DUP1 PUSH1 0x0 SUB PUSH2 0x95F JUMPI POP PUSH4 0x68ACF900 JUMPDEST PUSH3 0x76A700 PUSH2 0x96D DUP3 TIMESTAMP PUSH2 0x5A3F JUMP JUMPDEST LT ISZERO PUSH2 0x9A5 JUMPI PUSH1 0x40 MLOAD PUSH32 0x62B75B9D00000000000000000000000000000000000000000000000000000000 DUP2 MSTORE PUSH1 0x4 ADD PUSH1 0x40 MLOAD DUP1 SWAP2 SUB SWAP1 REVERT JUMPDEST PUSH1 0x3 SLOAD PUSH1 0x40 MLOAD PUSH32 0x8A3D7CDC00000000000000000000000000000000000000000000000000000000 DUP2 MSTORE PUSH1 0xFF DUP8 DUP2 AND PUSH1 0x4 DUP4 ADD MSTORE DUP7 AND PUSH1 0x24 DUP3 ADD MSTORE PUSH1 0x0 SWAP2 DUP3 SWAP2 DUP3 SWAP2 PUSH1 0x1 PUSH1 0x1 PUSH1 0xA0 SHL SUB AND SWAP1 PUSH4 0x8A3D7CDC SWAP1 PUSH1 0x44 ADD PUSH1 0xC0 PUSH1 0x40 MLOAD DUP1 DUP4 SUB DUP2 DUP7 GAS STATICCALL ISZERO DUP1 ISZERO PUSH2 0xA16 JUMPI RETURNDATASIZE PUSH1 0x0 DUP1 RETURNDATACOPY RETURNDATASIZE PUSH1 0x0 REVERT JUMPDEST POP POP POP POP PUSH1 0x40 MLOAD RETURNDATASIZE PUSH1 0x1F NOT PUSH1 0x1F DUP3 ADD AND DUP3 ADD DUP1 PUSH1 0x40 MSTORE POP DUP2 ADD SWAP1 PUSH2 0xA3A SWAP2 SWAP1 PUSH2 0x5BA2 JUMP JUMPDEST SWAP6 POP POP POP SWAP4 POP POP SWAP3 POP DUP3 PUSH2 0xA7A JUMPI PUSH1 0x40 MLOAD PUSH32 0x3FA8FC1300000000000000000000000000000000000000000000000000000000 DUP2 MSTORE PUSH1 0x4 ADD PUSH1 0x40 MLOAD DUP1 SWAP2 SUB SWAP1 REVERT JUMPDEST DUP2 ISZERO PUSH2 0xAB2 JUMPI PUSH1 0x40 MLOAD PUSH32 0x26AB946C00000000000000000000000000000000000000000000000000000000 DUP2 MSTORE PUSH1 0x4 ADD PUSH1 0x40 MLOAD DUP1 SWAP2 SUB SWAP1 REVERT JUMPDEST PUSH1 0x0 PUSH1 0x64 PUSH2 0xAC1 DUP4 PUSH1 0x5A PUSH2 0x5C01 JUMP JUMPDEST PUSH2 0xACB SWAP2 SWAP1 PUSH2 0x5C18 JUMP JUMPDEST SWAP1 POP PUSH3 0x989680 PUSH5 0xE8D4A51000 DUP2 DUP4 LT ISZERO PUSH2 0xAE3 JUMPI DUP2 SWAP3 POP JUMPDEST DUP1 DUP4 GT ISZERO PUSH2 0xAEF JUMPI DUP1 SWAP3 POP JUMPDEST PUSH1 0x3 SLOAD PUSH1 0x40 MLOAD PUSH32 0xD855E7E100000000000000000000000000000000000000000000000000000000 DUP2 MSTORE PUSH1 0xFF DUP1 DUP15 AND PUSH1 0x4 DUP4 ADD MSTORE DUP13 AND PUSH1 0x24 DUP3 ADD MSTORE PUSH1 0x1 PUSH1 0x44 DUP3 ADD MSTORE PUSH1 0x64 DUP2 ADD DUP6 SWAP1 MSTORE PUSH1 0x1 PUSH1 0x1 PUSH1 0xA0 SHL SUB SWAP1 SWAP2 AND SWAP1 PUSH4 0xD855E7E1 SWAP1 PUSH1 0x84 ADD PUSH1 0x0 PUSH1 0x40 MLOAD DUP1 DUP4 SUB DUP2 PUSH1 0x0 DUP8 DUP1 EXTCODESIZE ISZERO DUP1 ISZERO PUSH2 0xB66 JUMPI PUSH1 0x0 DUP1 REVERT JUMPDEST POP GAS CALL ISZERO DUP1 ISZERO PUSH2 0xB7A JUMPI RETURNDATASIZE PUSH1 0x0 DUP1 RETURNDATACOPY RETURNDATASIZE PUSH1 0x0 REVERT JUMPDEST POP POP POP POP POP POP POP POP POP POP POP POP POP PUSH2 0xB91 PUSH1 0x1 PUSH1 0x0 SSTORE JUMP JUMPDEST POP POP POP POP JUMP JUMPDEST PUSH2 0xB9F PUSH2 0x376B JUMP JUMPDEST PUSH1 0x3 SLOAD PUSH1 0x40 MLOAD PUSH4 0x8A888953 PUSH1 0xE0 SHL DUP2 MSTORE PUSH1 0xFF DUP1 DUP8 AND PUSH1 0x4 DUP4 ADD MSTORE DUP6 AND PUSH1 0x24 DUP3 ADD MSTORE DUP6 SWAP2 DUP6 SWAP2 CALLER SWAP2 PUSH1 0x1 PUSH1 0x1 PUSH1 0xA0 SHL SUB AND SWAP1 PUSH4 0x8A888953 SWAP1 PUSH1 0x44 ADD PUSH1 0x20 PUSH1 0x40 MLOAD DUP1 DUP4 SUB DUP2 DUP7 GAS STATICCALL ISZERO DUP1 ISZERO PUSH2 0xBF6 JUMPI RETURNDATASIZE PUSH1 0x0 DUP1 RETURNDATACOPY RETURNDATASIZE PUSH1 0x0 REVERT JUMPDEST POP POP POP POP PUSH1 0x40 MLOAD RETURNDATASIZE PUSH1 0x1F NOT PUSH1 0x1F DUP3 ADD AND DUP3 ADD DUP1 PUSH1 0x40 MSTORE POP DUP2 ADD SWAP1 PUSH2 0xC1A SWAP2 SWAP1 PUSH2 0x5B5E JUMP JUMPDEST PUSH1 0x1 PUSH1 0x1 PUSH1 0xA0 SHL SUB AND EQ PUSH2 0xC40 JUMPI PUSH1 0x40 MLOAD PUSH3 0x7BBA63 PUSH1 0xE0 SHL DUP2 MSTORE PUSH1 0x4 ADD PUSH1 0x40 MLOAD DUP1 SWAP2 SUB SWAP1 REVERT JUMPDEST PUSH1 0x1 DUP5 PUSH1 0xFF AND LT ISZERO DUP1 ISZERO PUSH2 0xC58 JUMPI POP PUSH1 0x8 DUP5 PUSH1 0xFF AND GT ISZERO JUMPDEST PUSH2 0xCA9 JUMPI PUSH1 0x40 MLOAD PUSH3 0x461BCD PUSH1 0xE5 SHL DUP2 MSTORE PUSH1 0x20 PUSH1 0x4 DUP3 ADD MSTORE PUSH1 0x2 PUSH1 0x24 DUP3 ADD MSTORE PUSH32 0x2074000000000000000000000000000000000000000000000000000000000000 PUSH1 0x44 DUP3 ADD MSTORE PUSH1 0x64 ADD JUMPDEST PUSH1 0x40 MLOAD DUP1 SWAP2 SUB SWAP1 REVERT JUMPDEST PUSH1 0xFF DUP5 AND PUSH1 0x0 SWAP1 DUP2 MSTORE PUSH1 0x7 PUSH1 0x20 MSTORE PUSH1 0x40 SWAP1 KECCAK256 SLOAD DUP4 LT PUSH2 0xD0A JUMPI PUSH1 0x40 MLOAD PUSH3 0x461BCD PUSH1 0xE5 SHL DUP2 MSTORE PUSH1 0x20 PUSH1 0x4 DUP3 ADD MSTORE PUSH1 0x2 PUSH1 0x24 DUP3 ADD MSTORE PUSH32 0x2069000000000000000000000000000000000000000000000000000000000000 PUSH1 0x44 DUP3 ADD MSTORE PUSH1 0x64 ADD PUSH2 0xCA0 JUMP JUMPDEST PUSH1 0xFF DUP5 AND PUSH1 0x0 SWAP1 DUP2 MSTORE PUSH1 0x7 PUSH1 0x20 MSTORE PUSH1 0x40 DUP2 KECCAK256 DUP1 SLOAD DUP6 SWAP1 DUP2 LT PUSH2 0xD2E JUMPI PUSH2 0xD2E PUSH2 0x5A52 JUMP JUMPDEST PUSH1 0x0 SWAP2 DUP3 MSTORE PUSH1 0x20 SWAP2 DUP3 SWAP1 KECCAK256 PUSH1 0x40 DUP1 MLOAD PUSH1 0xA0 DUP2 ADD DUP3 MSTORE PUSH1 0x3 SWAP1 SWAP4 MUL SWAP1 SWAP2 ADD DUP1 SLOAD PUSH1 0xFF DUP1 DUP3 AND DUP1 DUP7 MSTORE PUSH2 0x100 DUP4 DIV DUP3 AND SWAP7 DUP7 ADD SWAP7 SWAP1 SWAP7 MSTORE PUSH3 0x10000 SWAP1 SWAP2 DIV DUP2 AND SWAP3 DUP5 ADD SWAP3 SWAP1 SWAP3 MSTORE PUSH1 0x1 DUP2 ADD SLOAD PUSH1 0x60 DUP5 ADD MSTORE PUSH1 0x2 ADD SLOAD PUSH1 0x80 DUP4 ADD MSTORE SWAP1 SWAP3 POP DUP9 AND EQ DUP1 ISZERO PUSH2 0xDA1 JUMPI POP DUP6 PUSH1 0xFF AND DUP2 PUSH1 0x20 ADD MLOAD PUSH1 0xFF AND EQ JUMPDEST PUSH2 0xDED JUMPI PUSH1 0x40 MLOAD PUSH3 0x461BCD PUSH1 0xE5 SHL DUP2 MSTORE PUSH1 0x20 PUSH1 0x4 DUP3 ADD MSTORE PUSH1 0x1 PUSH1 0x24 DUP3 ADD MSTORE PUSH32 0x6C00000000000000000000000000000000000000000000000000000000000000 PUSH1 0x44 DUP3 ADD MSTORE PUSH1 0x64 ADD PUSH2 0xCA0 JUMP JUMPDEST PUSH2 0xDF7 DUP6 DUP6 PUSH2 0x37CB JUMP JUMPDEST PUSH2 0xE01 DUP8 DUP8 PUSH2 0x3929 JUMP JUMPDEST PUSH1 0x1 DUP1 SLOAD PUSH1 0x60 DUP4 ADD MLOAD PUSH1 0x40 MLOAD PUSH4 0x3E5F2857 PUSH1 0xE0 SHL DUP2 MSTORE PUSH1 0xFF DUP1 DUP13 AND PUSH1 0x4 DUP4 ADD MSTORE DUP1 DUP12 AND PUSH1 0x24 DUP4 ADD MSTORE DUP10 AND PUSH1 0x44 DUP3 ADD MSTORE PUSH1 0x64 DUP2 ADD SWAP2 SWAP1 SWAP2 MSTORE PUSH1 0x84 DUP2 ADD SWAP3 SWAP1 SWAP3 MSTORE PUSH1 0x1 PUSH1 0x1 PUSH1 0xA0 SHL SUB AND SWAP1 PUSH4 0x3E5F2857 SWAP1 PUSH1 0xA4 ADD PUSH1 0x0 PUSH1 0x40 MLOAD DUP1 DUP4 SUB DUP2 PUSH1 0x0 DUP8 DUP1 EXTCODESIZE ISZERO DUP1 ISZERO PUSH2 0xE6D JUMPI PUSH1 0x0 DUP1 REVERT JUMPDEST POP GAS CALL ISZERO DUP1 ISZERO PUSH2 0xE81 JUMPI RETURNDATASIZE PUSH1 0x0 DUP1 RETURNDATACOPY RETURNDATASIZE PUSH1 0x0 REVERT JUMPDEST POP POP POP POP POP POP POP PUSH2 0xB91 PUSH1 0x1 PUSH1 0x0 SSTORE JUMP JUMPDEST PUSH2 0xE9A PUSH2 0x376B JUMP JUMPDEST PUSH1 0x3 SLOAD PUSH1 0x40 MLOAD PUSH4 0x8A888953 PUSH1 0xE0 SHL DUP2 MSTORE PUSH1 0xFF DUP1 DUP10 AND PUSH1 0x4 DUP4 ADD MSTORE DUP8 AND PUSH1 0x24 DUP3 ADD MSTORE DUP8 SWAP2 DUP8 SWAP2 CALLER SWAP2 PUSH1 0x1 PUSH1 0x1 PUSH1 0xA0 SHL SUB AND SWAP1 PUSH4 0x8A888953 SWAP1 PUSH1 0x44 ADD PUSH1 0x20 PUSH1 0x40 MLOAD DUP1 DUP4 SUB DUP2 DUP7 GAS STATICCALL ISZERO DUP1 ISZERO PUSH2 0xEF1 JUMPI RETURNDATASIZE PUSH1 0x0 DUP1 RETURNDATACOPY RETURNDATASIZE PUSH1 0x0 REVERT JUMPDEST POP POP POP POP PUSH1 0x40 MLOAD RETURNDATASIZE PUSH1 0x1F NOT PUSH1 0x1F DUP3 ADD AND DUP3 ADD DUP1 PUSH1 0x40 MSTORE POP DUP2 ADD SWAP1 PUSH2 0xF15 SWAP2 SWAP1 PUSH2 0x5B5E JUMP JUMPDEST PUSH1 0x1 PUSH1 0x1 PUSH1 0xA0 SHL SUB AND EQ PUSH2 0xF3B JUMPI PUSH1 0x40 MLOAD PUSH3 0x7BBA63 PUSH1 0xE0 SHL DUP2 MSTORE PUSH1 0x4 ADD PUSH1 0x40 MLOAD DUP1 SWAP2 SUB SWAP1 REVERT JUMPDEST PUSH1 0x1 SLOAD PUSH1 0x40 MLOAD PUSH32 0x4855735C00000000000000000000000000000000000000000000000000000000 DUP2 MSTORE PUSH1 0xFF DUP1 DUP12 AND PUSH1 0x4 DUP4 ADD MSTORE DUP10 AND PUSH1 0x24 DUP3 ADD MSTORE PUSH1 0x1 PUSH1 0x1 PUSH1 0xA0 SHL SUB SWAP1 SWAP2 AND SWAP1 PUSH4 0x4855735C SWAP1 PUSH1 0x44 ADD PUSH1 0x20 PUSH1 0x40 MLOAD DUP1 DUP4 SUB DUP2 DUP7 GAS STATICCALL ISZERO DUP1 ISZERO PUSH2 0xFA7 JUMPI RETURNDATASIZE PUSH1 0x0 DUP1 RETURNDATACOPY RETURNDATASIZE PUSH1 0x0 REVERT JUMPDEST POP POP POP POP PUSH1 0x40 MLOAD RETURNDATASIZE PUSH1 0x1F NOT PUSH1 0x1F DUP3 ADD AND DUP3 ADD DUP1 PUSH1 0x40 MSTORE POP DUP2 ADD SWAP1 PUSH2 0xFCB SWAP2 SWAP1 PUSH2 0x5C53 JUMP JUMPDEST PUSH2 0x1017 JUMPI PUSH1 0x40 MLOAD PUSH3 0x461BCD PUSH1 0xE5 SHL DUP2 MSTORE PUSH1 0x20 PUSH1 0x4 DUP3 ADD MSTORE PUSH1 0x1 PUSH1 0x24 DUP3 ADD MSTORE PUSH32 0x6D00000000000000000000000000000000000000000000000000000000000000 PUSH1 0x44 DUP3 ADD MSTORE PUSH1 0x64 ADD PUSH2 0xCA0 JUMP JUMPDEST PUSH1 0x1 SLOAD PUSH1 0x40 MLOAD PUSH32 0x9C54E47100000000000000000000000000000000000000000000000000000000 DUP2 MSTORE PUSH1 0xFF DUP1 DUP10 AND PUSH1 0x4 DUP4 ADD MSTORE DUP8 AND PUSH1 0x24 DUP3 ADD MSTORE PUSH1 0x1 PUSH1 0x1 PUSH1 0xA0 SHL SUB SWAP1 SWAP2 AND SWAP1 PUSH4 0x9C54E471 SWAP1 PUSH1 0x44 ADD PUSH1 0x20 PUSH1 0x40 MLOAD DUP1 DUP4 SUB DUP2 DUP7 GAS STATICCALL ISZERO DUP1 ISZERO PUSH2 0x1083 JUMPI RETURNDATASIZE PUSH1 0x0 DUP1 RETURNDATACOPY RETURNDATASIZE PUSH1 0x0 REVERT JUMPDEST POP POP POP POP PUSH1 0x40 MLOAD RETURNDATASIZE PUSH1 0x1F NOT PUSH1 0x1F DUP3 ADD AND DUP3 ADD DUP1 PUSH1 0x40 MSTORE POP DUP2 ADD SWAP1 PUSH2 0x10A7 SWAP2 SWAP1 PUSH2 0x5C53 JUMP JUMPDEST ISZERO PUSH2 0x10F4 JUMPI PUSH1 0x40 MLOAD PUSH3 0x461BCD PUSH1 0xE5 SHL DUP2 MSTORE PUSH1 0x20 PUSH1 0x4 DUP3 ADD MSTORE PUSH1 0x1 PUSH1 0x24 DUP3 ADD MSTORE PUSH32 0x6300000000000000000000000000000000000000000000000000000000000000 PUSH1 0x44 DUP3 ADD MSTORE PUSH1 0x64 ADD PUSH2 0xCA0 JUMP JUMPDEST PUSH1 0x3 SLOAD PUSH1 0x40 MLOAD PUSH4 0x8A888953 PUSH1 0xE0 SHL DUP2 MSTORE PUSH1 0xFF DUP1 DUP10 AND PUSH1 0x4 DUP4 ADD MSTORE DUP8 AND PUSH1 0x24 DUP3 ADD MSTORE PUSH1 0x0 SWAP2 PUSH1 0x1 PUSH1 0x1 PUSH1 0xA0 SHL SUB AND SWAP1 PUSH4 0x8A888953 SWAP1 PUSH1 0x44 ADD PUSH1 0x20 PUSH1 0x40 MLOAD DUP1 DUP4 SUB DUP2 DUP7 GAS STATICCALL ISZERO DUP1 ISZERO PUSH2 0x1148 JUMPI RETURNDATASIZE PUSH1 0x0 DUP1 RETURNDATACOPY RETURNDATASIZE PUSH1 0x0 REVERT JUMPDEST POP POP POP POP PUSH1 0x40 MLOAD RETURNDATASIZE PUSH1 0x1F NOT PUSH1 0x1F DUP3 ADD AND DUP3 ADD DUP1 PUSH1 0x40 MSTORE POP DUP2 ADD SWAP1 PUSH2 0x116C SWAP2 SWAP1 PUSH2 0x5B5E JUMP JUMPDEST SWAP1 POP PUSH1 0x1 PUSH1 0x1 PUSH1 0xA0 SHL SUB DUP2 AND PUSH2 0x11C4 JUMPI PUSH1 0x40 MLOAD PUSH3 0x461BCD PUSH1 0xE5 SHL DUP2 MSTORE PUSH1 0x20 PUSH1 0x4 DUP3 ADD MSTORE PUSH1 0x1 PUSH1 0x24 DUP3 ADD MSTORE PUSH32 0x7500000000000000000000000000000000000000000000000000000000000000 PUSH1 0x44 DUP3 ADD MSTORE PUSH1 0x64 ADD PUSH2 0xCA0 JUMP JUMPDEST PUSH1 0x1 DUP6 PUSH1 0xFF AND LT ISZERO DUP1 ISZERO PUSH2 0x11DC JUMPI POP PUSH1 0x8 DUP6 PUSH1 0xFF AND GT ISZERO JUMPDEST PUSH2 0x120C JUMPI PUSH1 0x40 MLOAD PUSH3 0x461BCD PUSH1 0xE5 SHL DUP2 MSTORE PUSH1 0x20 PUSH1 0x4 DUP3 ADD MSTORE PUSH1 0x1 PUSH1 0x24 DUP3 ADD MSTORE PUSH1 0x1D PUSH1 0xFA SHL PUSH1 0x44 DUP3 ADD MSTORE PUSH1 0x64 ADD PUSH2 0xCA0 JUMP JUMPDEST PUSH1 0x1E DUP5 LT ISZERO DUP1 ISZERO PUSH2 0x1220 JUMPI POP PUSH3 0x186A0 DUP5 GT ISZERO JUMPDEST PUSH2 0x126C JUMPI PUSH1 0x40 MLOAD PUSH3 0x461BCD PUSH1 0xE5 SHL DUP2 MSTORE PUSH1 0x20 PUSH1 0x4 DUP3 ADD MSTORE PUSH1 0x1 PUSH1 0x24 DUP3 ADD MSTORE PUSH32 0x6100000000000000000000000000000000000000000000000000000000000000 PUSH1 0x44 DUP3 ADD MSTORE PUSH1 0x64 ADD PUSH2 0xCA0 JUMP JUMPDEST PUSH1 0x0 PUSH2 0x1278 DUP10 DUP9 PUSH2 0x397E JUMP JUMPDEST PUSH2 0x1282 DUP12 DUP11 PUSH2 0x397E JUMP JUMPDEST PUSH2 0x128C SWAP2 SWAP1 PUSH2 0x5C6E JUMP JUMPDEST SWAP1 POP PUSH1 0x0 DUP2 PUSH1 0xFF AND GT DUP1 ISZERO PUSH2 0x12A5 JUMPI POP PUSH1 0x26 DUP2 PUSH1 0xFF AND GT ISZERO JUMPDEST PUSH2 0x12F1 JUMPI PUSH1 0x40 MLOAD PUSH3 0x461BCD PUSH1 0xE5 SHL DUP2 MSTORE PUSH1 0x20 PUSH1 0x4 DUP3 ADD MSTORE PUSH1 0x1 PUSH1 0x24 DUP3 ADD MSTORE PUSH32 0x6400000000000000000000000000000000000000000000000000000000000000 PUSH1 0x44 DUP3 ADD MSTORE PUSH1 0x64 ADD PUSH2 0xCA0 JUMP JUMPDEST PUSH4 0x5F5E100 PUSH1 0x0 PUSH2 0x1305 PUSH1 0xFF DUP5 AND DUP4 PUSH2 0x5C01 JUMP JUMPDEST PUSH1 0x2 SLOAD PUSH1 0x40 MLOAD PUSH32 0x23B872DD00000000000000000000000000000000000000000000000000000000 DUP2 MSTORE CALLER PUSH1 0x4 DUP3 ADD MSTORE ADDRESS PUSH1 0x24 DUP3 ADD MSTORE PUSH1 0x44 DUP2 ADD DUP4 SWAP1 MSTORE SWAP2 SWAP3 POP PUSH1 0x1 PUSH1 0x1 PUSH1 0xA0 SHL SUB AND SWAP1 PUSH4 0x23B872DD SWAP1 PUSH1 0x64 ADD PUSH1 0x20 PUSH1 0x40 MLOAD DUP1 DUP4 SUB DUP2 PUSH1 0x0 DUP8 GAS CALL ISZERO DUP1 ISZERO PUSH2 0x1376 JUMPI RETURNDATASIZE PUSH1 0x0 DUP1 RETURNDATACOPY RETURNDATASIZE PUSH1 0x0 REVERT JUMPDEST POP POP POP POP PUSH1 0x40 MLOAD RETURNDATASIZE PUSH1 0x1F NOT PUSH1 0x1F DUP3 ADD AND DUP3 ADD DUP1 PUSH1 0x40 MSTORE POP DUP2 ADD SWAP1 PUSH2 0x139A SWAP2 SWAP1 PUSH2 0x5C53 JUMP JUMPDEST PUSH2 0x13E6 JUMPI PUSH1 0x40 MLOAD PUSH3 0x461BCD PUSH1 0xE5 SHL DUP2 MSTORE PUSH1 0x20 PUSH1 0x4 DUP3 ADD MSTORE PUSH1 0x1 PUSH1 0x24 DUP3 ADD MSTORE PUSH32 0x6600000000000000000000000000000000000000000000000000000000000000 PUSH1 0x44 DUP3 ADD MSTORE PUSH1 0x64 ADD PUSH2 0xCA0 JUMP JUMPDEST PUSH1 0x2 SLOAD PUSH1 0x40 MLOAD PUSH32 0x42966C6800000000000000000000000000000000000000000000000000000000 DUP2 MSTORE PUSH1 0x4 DUP2 ADD DUP4 SWAP1 MSTORE PUSH1 0x1 PUSH1 0x1 PUSH1 0xA0 SHL SUB SWAP1 SWAP2 AND SWAP1 PUSH4 0x42966C68 SWAP1 PUSH1 0x24 ADD PUSH1 0x20 PUSH1 0x40 MLOAD DUP1 DUP4 SUB DUP2 PUSH1 0x0 DUP8 GAS CALL ISZERO DUP1 ISZERO PUSH2 0x144A JUMPI RETURNDATASIZE PUSH1 0x0 DUP1 RETURNDATACOPY RETURNDATASIZE PUSH1 0x0 REVERT JUMPDEST POP POP POP POP PUSH1 0x40 MLOAD RETURNDATASIZE PUSH1 0x1F NOT PUSH1 0x1F DUP3 ADD AND DUP3 ADD DUP1 PUSH1 0x40 MSTORE POP DUP2 ADD SWAP1 PUSH2 0x146E SWAP2 SWAP1 PUSH2 0x5C53 JUMP JUMPDEST PUSH2 0x14BA JUMPI PUSH1 0x40 MLOAD PUSH3 0x461BCD PUSH1 0xE5 SHL DUP2 MSTORE PUSH1 0x20 PUSH1 0x4 DUP3 ADD MSTORE PUSH1 0x1 PUSH1 0x24 DUP3 ADD MSTORE PUSH32 0x6200000000000000000000000000000000000000000000000000000000000000 PUSH1 0x44 DUP3 ADD MSTORE PUSH1 0x64 ADD PUSH2 0xCA0 JUMP JUMPDEST PUSH1 0x0 PUSH1 0x1E PUSH2 0x14CB DUP10 PUSH1 0xFF DUP8 AND PUSH2 0x5C01 JUMP JUMPDEST PUSH2 0x14D5 SWAP2 SWAP1 PUSH2 0x5C18 JUMP JUMPDEST PUSH1 0x1 SLOAD SWAP1 SWAP2 POP PUSH1 0x1 PUSH1 0x1 PUSH1 0xA0 SHL SUB AND PUSH4 0x3E5F2857 DUP15 DUP15 DUP13 PUSH2 0x14F6 DUP7 DUP15 PUSH2 0x5AE1 JUMP JUMPDEST PUSH1 0x40 MLOAD PUSH32 0xFFFFFFFF00000000000000000000000000000000000000000000000000000000 PUSH1 0xE0 DUP8 SWAP1 SHL AND DUP2 MSTORE PUSH1 0xFF SWAP5 DUP6 AND PUSH1 0x4 DUP3 ADD MSTORE SWAP3 DUP5 AND PUSH1 0x24 DUP5 ADD MSTORE SWAP3 AND PUSH1 0x44 DUP3 ADD MSTORE PUSH1 0x64 DUP2 ADD SWAP2 SWAP1 SWAP2 MSTORE PUSH1 0x0 PUSH1 0x84 DUP3 ADD MSTORE PUSH1 0xA4 ADD PUSH1 0x0 PUSH1 0x40 MLOAD DUP1 DUP4 SUB DUP2 PUSH1 0x0 DUP8 DUP1 EXTCODESIZE ISZERO DUP1 ISZERO PUSH2 0x1567 JUMPI PUSH1 0x0 DUP1 REVERT JUMPDEST POP GAS CALL ISZERO DUP1 ISZERO PUSH2 0x157B JUMPI RETURNDATASIZE PUSH1 0x0 DUP1 RETURNDATACOPY RETURNDATASIZE PUSH1 0x0 REVERT JUMPDEST POP POP PUSH1 0x1 DUP1 SLOAD PUSH1 0x40 MLOAD PUSH4 0x3E5F2857 PUSH1 0xE0 SHL DUP2 MSTORE PUSH1 0x1 PUSH1 0x1 PUSH1 0xA0 SHL SUB SWAP1 SWAP2 AND SWAP4 POP PUSH4 0x3E5F2857 SWAP3 POP PUSH2 0x15E0 SWAP2 DUP16 SWAP2 DUP16 SWAP2 DUP16 SWAP2 DUP16 SWAP2 SWAP1 PUSH1 0x4 ADD PUSH1 0xFF SWAP6 DUP7 AND DUP2 MSTORE SWAP4 DUP6 AND PUSH1 0x20 DUP6 ADD MSTORE SWAP2 SWAP1 SWAP4 AND PUSH1 0x40 DUP4 ADD MSTORE PUSH1 0x60 DUP3 ADD SWAP3 SWAP1 SWAP3 MSTORE SWAP1 ISZERO ISZERO PUSH1 0x80 DUP3 ADD MSTORE PUSH1 0xA0 ADD SWAP1 JUMP JUMPDEST PUSH1 0x0 PUSH1 0x40 MLOAD DUP1 DUP4 SUB DUP2 PUSH1 0x0 DUP8 DUP1 EXTCODESIZE ISZERO DUP1 ISZERO PUSH2 0x15FA JUMPI PUSH1 0x0 DUP1 REVERT JUMPDEST POP GAS CALL ISZERO DUP1 ISZERO PUSH2 0x160E JUMPI RETURNDATASIZE PUSH1 0x0 DUP1 RETURNDATACOPY RETURNDATASIZE PUSH1 0x0 REVERT JUMPDEST POP POP POP POP PUSH1 0x40 MLOAD DUP1 PUSH1 0x80 ADD PUSH1 0x40 MSTORE DUP1 DUP15 PUSH1 0xFF AND DUP2 MSTORE PUSH1 0x20 ADD DUP14 PUSH1 0xFF AND DUP2 MSTORE PUSH1 0x20 ADD DUP11 PUSH1 0xFF AND DUP2 MSTORE PUSH1 0x20 ADD DUP10 DUP2 MSTORE POP PUSH1 0x5 PUSH1 0x0 DUP14 PUSH1 0xFF AND PUSH1 0xFF AND DUP2 MSTORE PUSH1 0x20 ADD SWAP1 DUP2 MSTORE PUSH1 0x20 ADD PUSH1 0x0 KECCAK256 PUSH1 0x0 DUP13 PUSH1 0xFF AND PUSH1 0xFF AND DUP2 MSTORE PUSH1 0x20 ADD SWAP1 DUP2 MSTORE PUSH1 0x20 ADD PUSH1 0x0 KECCAK256 PUSH1 0x0 DUP3 ADD MLOAD DUP2 PUSH1 0x0 ADD PUSH1 0x0 PUSH2 0x100 EXP DUP2 SLOAD DUP2 PUSH1 0xFF MUL NOT AND SWAP1 DUP4 PUSH1 0xFF AND MUL OR SWAP1 SSTORE POP PUSH1 0x20 DUP3 ADD MLOAD DUP2 PUSH1 0x0 ADD PUSH1 0x1 PUSH2 0x100 EXP DUP2 SLOAD DUP2 PUSH1 0xFF MUL NOT AND SWAP1 DUP4 PUSH1 0xFF AND MUL OR SWAP1 SSTORE POP PUSH1 0x40 DUP3 ADD MLOAD DUP2 PUSH1 0x0 ADD PUSH1 0x2 PUSH2 0x100 EXP DUP2 SLOAD DUP2 PUSH1 0xFF MUL NOT AND SWAP1 DUP4 PUSH1 0xFF AND MUL OR SWAP1 SSTORE POP PUSH1 0x60 DUP3 ADD MLOAD DUP2 PUSH1 0x1 ADD SSTORE SWAP1 POP POP PUSH1 0x1 PUSH1 0x0 SWAP1 SLOAD SWAP1 PUSH2 0x100 EXP SWAP1 DIV PUSH1 0x1 PUSH1 0x1 PUSH1 0xA0 SHL SUB AND PUSH1 0x1 PUSH1 0x1 PUSH1 0xA0 SHL SUB AND PUSH4 0x9A4A2084 DUP13 DUP13 PUSH1 0x1 PUSH1 0x40 MLOAD DUP5 PUSH4 0xFFFFFFFF AND PUSH1 0xE0 SHL DUP2 MSTORE PUSH1 0x4 ADD PUSH2 0x173B SWAP4 SWAP3 SWAP2 SWAP1 PUSH1 0xFF SWAP4 DUP5 AND DUP2 MSTORE SWAP2 SWAP1 SWAP3 AND PUSH1 0x20 DUP3 ADD MSTORE SWAP1 ISZERO ISZERO PUSH1 0x40 DUP3 ADD MSTORE PUSH1 0x60 ADD SWAP1 JUMP JUMPDEST PUSH1 0x0 PUSH1 0x40 MLOAD DUP1 DUP4 SUB DUP2 PUSH1 0x0 DUP8 DUP1 EXTCODESIZE ISZERO DUP1 ISZERO PUSH2 0x1755 JUMPI PUSH1 0x0 DUP1 REVERT JUMPDEST POP GAS CALL ISZERO DUP1 ISZERO PUSH2 0x1769 JUMPI RETURNDATASIZE PUSH1 0x0 DUP1 RETURNDATACOPY RETURNDATASIZE PUSH1 0x0 REVERT JUMPDEST POP POP POP POP DUP5 PUSH1 0x1 PUSH1 0x1 PUSH1 0xA0 SHL SUB AND CALLER PUSH1 0x1 PUSH1 0x1 PUSH1 0xA0 SHL SUB AND PUSH32 0xD8D0FFB785186AE5CFA3F64DC9E01D4100C899244F5A09749C62A7DDC76DC1A DUP16 DUP16 DUP16 DUP16 DUP16 PUSH1 0x40 MLOAD PUSH2 0x17DF SWAP6 SWAP5 SWAP4 SWAP3 SWAP2 SWAP1 PUSH1 0xFF SWAP6 DUP7 AND DUP2 MSTORE SWAP4 DUP6 AND PUSH1 0x20 DUP6 ADD MSTORE SWAP2 DUP5 AND PUSH1 0x40 DUP5 ADD MSTORE DUP4 AND PUSH1 0x60 DUP4 ADD MSTORE SWAP1 SWAP2 AND PUSH1 0x80 DUP3 ADD MSTORE PUSH1 0xA0 ADD SWAP1 JUMP JUMPDEST PUSH1 0x40 MLOAD DUP1 SWAP2 SUB SWAP1 LOG3 POP POP POP POP POP POP POP PUSH2 0x17F8 PUSH1 0x1 PUSH1 0x0 SSTORE JUMP JUMPDEST POP POP POP POP POP POP JUMP JUMPDEST PUSH2 0x1808 PUSH2 0x376B JUMP JUMPDEST PUSH1 0x3 SLOAD PUSH1 0x40 MLOAD PUSH4 0x8A888953 PUSH1 0xE0 SHL DUP2 MSTORE PUSH1 0xFF DUP1 DUP8 AND PUSH1 0x4 DUP4 ADD MSTORE DUP6 AND PUSH1 0x24 DUP3 ADD MSTORE DUP6 SWAP2 DUP6 SWAP2 CALLER SWAP2 PUSH1 0x1 PUSH1 0x1 PUSH1 0xA0 SHL SUB AND SWAP1 PUSH4 0x8A888953 SWAP1 PUSH1 0x44 ADD PUSH1 0x20 PUSH1 0x40 MLOAD DUP1 DUP4 SUB DUP2 DUP7 GAS STATICCALL ISZERO DUP1 ISZERO PUSH2 0x185F JUMPI RETURNDATASIZE PUSH1 0x0 DUP1 RETURNDATACOPY RETURNDATASIZE PUSH1 0x0 REVERT JUMPDEST POP POP POP POP PUSH1 0x40 MLOAD RETURNDATASIZE PUSH1 0x1F NOT PUSH1 0x1F DUP3 ADD AND DUP3 ADD DUP1 PUSH1 0x40 MSTORE POP DUP2 ADD SWAP1 PUSH2 0x1883 SWAP2 SWAP1 PUSH2 0x5B5E JUMP JUMPDEST PUSH1 0x1 PUSH1 0x1 PUSH1 0xA0 SHL SUB AND EQ PUSH2 0x18A9 JUMPI PUSH1 0x40 MLOAD PUSH3 0x7BBA63 PUSH1 0xE0 SHL DUP2 MSTORE PUSH1 0x4 ADD PUSH1 0x40 MLOAD DUP1 SWAP2 SUB SWAP1 REVERT JUMPDEST PUSH1 0x3 SLOAD PUSH1 0x40 MLOAD PUSH4 0x8A888953 PUSH1 0xE0 SHL DUP2 MSTORE PUSH1 0xFF DUP1 DUP8 AND PUSH1 0x4 DUP4 ADD MSTORE DUP6 AND PUSH1 0x24 DUP3 ADD MSTORE PUSH1 0x0 SWAP2 PUSH1 0x1 PUSH1 0x1 PUSH1 0xA0 SHL SUB AND SWAP1 PUSH4 0x8A888953 SWAP1 PUSH1 0x44 ADD PUSH1 0x20 PUSH1 0x40 MLOAD DUP1 DUP4 SUB DUP2 DUP7 GAS STATICCALL ISZERO DUP1 ISZERO PUSH2 0x18FD JUMPI RETURNDATASIZE PUSH1 0x0 DUP1 RETURNDATACOPY RETURNDATASIZE PUSH1 0x0 REVERT JUMPDEST POP POP POP POP PUSH1 0x40 MLOAD RETURNDATASIZE PUSH1 0x1F NOT PUSH1 0x1F DUP3 ADD AND DUP3 ADD DUP1 PUSH1 0x40 MSTORE POP DUP2 ADD SWAP1 PUSH2 0x1921 SWAP2 SWAP1 PUSH2 0x5B5E JUMP JUMPDEST SWAP1 POP PUSH1 0x1 PUSH1 0x1 PUSH1 0xA0 SHL SUB DUP2 AND PUSH2 0x1979 JUMPI PUSH1 0x40 MLOAD PUSH3 0x461BCD PUSH1 0xE5 SHL DUP2 MSTORE PUSH1 0x20 PUSH1 0x4 DUP3 ADD MSTORE PUSH1 0x1 PUSH1 0x24 DUP3 ADD MSTORE PUSH32 0x6E00000000000000000000000000000000000000000000000000000000000000 PUSH1 0x44 DUP3 ADD MSTORE PUSH1 0x64 ADD PUSH2 0xCA0 JUMP JUMPDEST PUSH2 0x1987 DUP8 DUP8 DUP8 DUP8 CALLER DUP7 PUSH2 0x39AF JUMP JUMPDEST PUSH2 0x198F PUSH2 0x535A JUMP JUMPDEST PUSH1 0xFF DUP9 DUP2 AND DUP1 DUP4 MSTORE DUP9 DUP3 AND PUSH1 0x20 DUP5 ADD DUP2 SWAP1 MSTORE DUP9 DUP4 AND PUSH1 0x40 DUP1 DUP7 ADD SWAP2 SWAP1 SWAP2 MSTORE SWAP3 DUP9 AND PUSH1 0x60 DUP6 ADD MSTORE PUSH1 0x1 SLOAD SWAP3 MLOAD PUSH32 0xBD63837800000000000000000000000000000000000000000000000000000000 DUP2 MSTORE PUSH1 0x4 DUP2 ADD SWAP3 SWAP1 SWAP3 MSTORE PUSH1 0x24 DUP3 ADD MSTORE PUSH1 0x1 PUSH1 0x1 PUSH1 0xA0 SHL SUB SWAP1 SWAP2 AND SWAP1 PUSH4 0xBD638378 SWAP1 PUSH1 0x44 ADD PUSH2 0x1E0 PUSH1 0x40 MLOAD DUP1 DUP4 SUB DUP2 DUP7 GAS STATICCALL ISZERO DUP1 ISZERO PUSH2 0x1A1D JUMPI RETURNDATASIZE PUSH1 0x0 DUP1 RETURNDATACOPY RETURNDATASIZE PUSH1 0x0 REVERT JUMPDEST POP POP POP POP PUSH1 0x40 MLOAD RETURNDATASIZE PUSH1 0x1F NOT PUSH1 0x1F DUP3 ADD AND DUP3 ADD DUP1 PUSH1 0x40 MSTORE POP DUP2 ADD SWAP1 PUSH2 0x1A41 SWAP2 SWAP1 PUSH2 0x5CBC JUMP JUMPDEST PUSH1 0x80 DUP3 ADD MSTORE PUSH1 0x1 SLOAD PUSH1 0x40 MLOAD PUSH32 0xBD63837800000000000000000000000000000000000000000000000000000000 DUP2 MSTORE PUSH1 0xFF DUP1 DUP10 AND PUSH1 0x4 DUP4 ADD MSTORE DUP8 AND PUSH1 0x24 DUP3 ADD MSTORE PUSH1 0x1 PUSH1 0x1 PUSH1 0xA0 SHL SUB SWAP1 SWAP2 AND SWAP1 PUSH4 0xBD638378 SWAP1 PUSH1 0x44 ADD PUSH2 0x1E0 PUSH1 0x40 MLOAD DUP1 DUP4 SUB DUP2 DUP7 GAS STATICCALL ISZERO DUP1 ISZERO PUSH2 0x1AB3 JUMPI RETURNDATASIZE PUSH1 0x0 DUP1 RETURNDATACOPY RETURNDATASIZE PUSH1 0x0 REVERT JUMPDEST POP POP POP POP PUSH1 0x40 MLOAD RETURNDATASIZE PUSH1 0x1F NOT PUSH1 0x1F DUP3 ADD AND DUP3 ADD DUP1 PUSH1 0x40 MSTORE POP DUP2 ADD SWAP1 PUSH2 0x1AD7 SWAP2 SWAP1 PUSH2 0x5CBC JUMP JUMPDEST PUSH1 0xA0 DUP3 ADD MSTORE PUSH1 0x80 DUP2 ADD MLOAD PUSH2 0x140 ADD MLOAD PUSH1 0xA GT ISZERO PUSH2 0x1B36 JUMPI PUSH1 0x40 MLOAD PUSH3 0x461BCD PUSH1 0xE5 SHL DUP2 MSTORE PUSH1 0x20 PUSH1 0x4 DUP3 ADD MSTORE PUSH1 0x1 PUSH1 0x24 DUP3 ADD MSTORE PUSH32 0x7300000000000000000000000000000000000000000000000000000000000000 PUSH1 0x44 DUP3 ADD MSTORE PUSH1 0x64 ADD PUSH2 0xCA0 JUMP JUMPDEST PUSH1 0x0 PUSH2 0x1B42 DUP9 DUP8 PUSH2 0x397E JUMP JUMPDEST PUSH2 0x1B4C DUP11 DUP10 PUSH2 0x397E JUMP JUMPDEST PUSH2 0x1B56 SWAP2 SWAP1 PUSH2 0x5C6E JUMP JUMPDEST SWAP1 POP PUSH2 0x1B68 DUP10 DUP10 DUP4 DUP6 PUSH1 0x80 ADD MLOAD PUSH2 0x3E3C JUMP JUMPDEST PUSH2 0x1B7C DUP3 PUSH1 0x80 ADD MLOAD DUP4 PUSH1 0xA0 ADD MLOAD DUP10 DUP10 PUSH2 0x414A JUMP JUMPDEST PUSH1 0xE0 DUP5 ADD MSTORE PUSH1 0xC0 DUP4 ADD MSTORE PUSH1 0x0 PUSH2 0x1B91 DUP4 PUSH2 0x429E JUMP JUMPDEST SWAP1 POP PUSH1 0x0 DUP4 PUSH1 0xE0 ADD MLOAD DUP5 PUSH1 0xC0 ADD MLOAD GT ISZERO PUSH2 0x1BB1 JUMPI PUSH2 0x1BAE DUP5 PUSH2 0x4540 JUMP JUMPDEST SWAP1 POP JUMPDEST PUSH2 0x1BB9 PUSH2 0x54B1 JUMP JUMPDEST DUP3 DUP2 MSTORE PUSH1 0x20 DUP2 ADD DUP3 SWAP1 MSTORE PUSH1 0xE0 DUP6 ADD MLOAD PUSH1 0xC0 DUP7 ADD MLOAD GT PUSH1 0x40 DUP3 ADD MSTORE PUSH2 0x1BDF DUP6 DUP3 CALLER DUP10 PUSH2 0x46F6 JUMP JUMPDEST POP POP POP POP POP POP POP POP PUSH2 0xB91 PUSH1 0x1 PUSH1 0x0 SSTORE JUMP JUMPDEST PUSH1 0x40 DUP1 MLOAD PUSH1 0x80 DUP2 ADD DUP3 MSTORE PUSH1 0x0 DUP1 DUP3 MSTORE PUSH1 0x20 DUP3 ADD DUP2 SWAP1 MSTORE SWAP2 DUP2 ADD DUP3 SWAP1 MSTORE PUSH1 0x60 DUP2 ADD SWAP2 SWAP1 SWAP2 MSTORE PUSH1 0x3 SLOAD PUSH1 0x40 MLOAD PUSH4 0x8A888953 PUSH1 0xE0 SHL DUP2 MSTORE PUSH1 0xFF DUP1 DUP7 AND PUSH1 0x4 DUP4 ADD MSTORE DUP5 AND PUSH1 0x24 DUP3 ADD MSTORE DUP5 SWAP2 DUP5 SWAP2 CALLER SWAP2 PUSH1 0x1 PUSH1 0x1 PUSH1 0xA0 SHL SUB AND SWAP1 PUSH4 0x8A888953 SWAP1 PUSH1 0x44 ADD PUSH1 0x20 PUSH1 0x40 MLOAD DUP1 DUP4 SUB DUP2 DUP7 GAS STATICCALL ISZERO DUP1 ISZERO PUSH2 0x1C6C JUMPI RETURNDATASIZE PUSH1 0x0 DUP1 RETURNDATACOPY RETURNDATASIZE PUSH1 0x0 REVERT JUMPDEST POP POP POP POP PUSH1 0x40 MLOAD RETURNDATASIZE PUSH1 0x1F NOT PUSH1 0x1F DUP3 ADD AND DUP3 ADD DUP1 PUSH1 0x40 MSTORE POP DUP2 ADD SWAP1 PUSH2 0x1C90 SWAP2 SWAP1 PUSH2 0x5B5E JUMP JUMPDEST PUSH1 0x1 PUSH1 0x1 PUSH1 0xA0 SHL SUB AND EQ PUSH2 0x1CB6 JUMPI PUSH1 0x40 MLOAD PUSH3 0x7BBA63 PUSH1 0xE0 SHL DUP2 MSTORE PUSH1 0x4 ADD PUSH1 0x40 MLOAD DUP1 SWAP2 SUB SWAP1 REVERT JUMPDEST POP POP POP PUSH1 0xFF SWAP2 DUP3 AND PUSH1 0x0 SWAP1 DUP2 MSTORE PUSH1 0x5 PUSH1 0x20 SWAP1 DUP2 MSTORE PUSH1 0x40 DUP1 DUP4 KECCAK256 SWAP4 DUP6 AND DUP4 MSTORE SWAP3 DUP2 MSTORE SWAP1 DUP3 SWAP1 KECCAK256 DUP3 MLOAD PUSH1 0x80 DUP2 ADD DUP5 MSTORE DUP2 SLOAD DUP1 DUP7 AND DUP3 MSTORE PUSH2 0x100 DUP2 DIV DUP7 AND SWAP4 DUP3 ADD SWAP4 SWAP1 SWAP4 MSTORE PUSH3 0x10000 SWAP1 SWAP3 DIV SWAP1 SWAP4 AND SWAP2 DUP2 ADD SWAP2 SWAP1 SWAP2 MSTORE PUSH1 0x1 SWAP1 SWAP2 ADD SLOAD PUSH1 0x60 DUP3 ADD MSTORE SWAP1 JUMP JUMPDEST PUSH1 0x3 SLOAD PUSH1 0x40 MLOAD PUSH4 0x8A888953 PUSH1 0xE0 SHL DUP2 MSTORE PUSH1 0xFF DUP1 DUP6 AND PUSH1 0x4 DUP4 ADD MSTORE DUP4 AND PUSH1 0x24 DUP3 ADD MSTORE PUSH1 0x60 SWAP2 DUP5 SWAP2 DUP5 SWAP2 CALLER SWAP2 PUSH1 0x1 PUSH1 0x1 PUSH1 0xA0 SHL SUB SWAP1 SWAP2 AND SWAP1 PUSH4 0x8A888953 SWAP1 PUSH1 0x44 ADD PUSH1 0x20 PUSH1 0x40 MLOAD DUP1 DUP4 SUB DUP2 DUP7 GAS STATICCALL ISZERO DUP1 ISZERO PUSH2 0x1D73 JUMPI RETURNDATASIZE PUSH1 0x0 DUP1 RETURNDATACOPY RETURNDATASIZE PUSH1 0x0 REVERT JUMPDEST POP POP POP POP PUSH1 0x40 MLOAD RETURNDATASIZE PUSH1 0x1F NOT PUSH1 0x1F DUP3 ADD AND DUP3 ADD DUP1 PUSH1 0x40 MSTORE POP DUP2 ADD SWAP1 PUSH2 0x1D97 SWAP2 SWAP1 PUSH2 0x5B5E JUMP JUMPDEST PUSH1 0x1 PUSH1 0x1 PUSH1 0xA0 SHL SUB AND EQ PUSH2 0x1DBD JUMPI PUSH1 0x40 MLOAD PUSH3 0x7BBA63 PUSH1 0xE0 SHL DUP2 MSTORE PUSH1 0x4 ADD PUSH1 0x40 MLOAD DUP1 SWAP2 SUB SWAP1 REVERT JUMPDEST PUSH1 0xFF DUP5 AND PUSH1 0x8 DUP7 SWAP1 SHL PUSH2 0xFF00 AND OR PUSH1 0x0 DUP2 DUP2 MSTORE PUSH1 0xC PUSH1 0x20 MSTORE PUSH1 0x40 DUP2 KECCAK256 SWAP1 PUSH2 0x1DE7 PUSH3 0x93A80 TIMESTAMP PUSH2 0x5A3F JUMP JUMPDEST DUP3 SLOAD SWAP1 SWAP2 POP PUSH1 0x0 SWAP1 JUMPDEST DUP1 ISZERO PUSH2 0x1E70 JUMPI DUP3 PUSH1 0xA DUP6 PUSH2 0x1E05 PUSH1 0x1 DUP6 PUSH2 0x5A3F JUMP JUMPDEST DUP2 SLOAD DUP2 LT PUSH2 0x1E15 JUMPI PUSH2 0x1E15 PUSH2 0x5A52 JUMP JUMPDEST SWAP1 PUSH1 0x0 MSTORE PUSH1 0x20 PUSH1 0x0 KECCAK256 ADD SLOAD DUP2 SLOAD DUP2 LT PUSH2 0x1E30 JUMPI PUSH2 0x1E30 PUSH2 0x5A52 JUMP JUMPDEST SWAP1 PUSH1 0x0 MSTORE PUSH1 0x20 PUSH1 0x0 KECCAK256 SWAP1 PUSH1 0xA MUL ADD PUSH1 0x1 ADD SLOAD LT PUSH2 0x1E59 JUMPI DUP2 PUSH2 0x1E51 DUP2 PUSH2 0x5A81 JUMP JUMPDEST SWAP3 POP POP PUSH2 0x1E5E JUMP JUMPDEST PUSH2 0x1E70 JUMP JUMPDEST DUP1 PUSH2 0x1E68 DUP2 PUSH2 0x5A9B JUMP JUMPDEST SWAP2 POP POP PUSH2 0x1DF0 JUMP JUMPDEST POP PUSH1 0x0 DUP2 PUSH8 0xFFFFFFFFFFFFFFFF DUP2 GT ISZERO PUSH2 0x1E8C JUMPI PUSH2 0x1E8C PUSH2 0x5AB2 JUMP JUMPDEST PUSH1 0x40 MLOAD SWAP1 DUP1 DUP3 MSTORE DUP1 PUSH1 0x20 MUL PUSH1 0x20 ADD DUP3 ADD PUSH1 0x40 MSTORE DUP1 ISZERO PUSH2 0x1F36 JUMPI DUP2 PUSH1 0x20 ADD JUMPDEST PUSH2 0x1F23 PUSH1 0x40 MLOAD DUP1 PUSH2 0x1A0 ADD PUSH1 0x40 MSTORE DUP1 PUSH1 0x0 PUSH1 0xFF AND DUP2 MSTORE PUSH1 0x20 ADD PUSH1 0x0 PUSH1 0xFF AND DUP2 MSTORE PUSH1 0x20 ADD PUSH1 0x0 PUSH1 0xFF AND DUP2 MSTORE PUSH1 0x20 ADD PUSH1 0x0 PUSH1 0xFF AND DUP2 MSTORE PUSH1 0x20 ADD PUSH1 0x0 DUP2 MSTORE PUSH1 0x20 ADD PUSH1 0x0 ISZERO ISZERO DUP2 MSTORE PUSH1 0x20 ADD PUSH1 0x0 DUP2 MSTORE PUSH1 0x20 ADD PUSH1 0x0 DUP2 MSTORE PUSH1 0x20 ADD PUSH1 0x0 DUP2 MSTORE PUSH1 0x20 ADD PUSH1 0x0 DUP2 MSTORE PUSH1 0x20 ADD PUSH1 0x0 DUP2 MSTORE PUSH1 0x20 ADD PUSH1 0x0 DUP2 MSTORE PUSH1 0x20 ADD PUSH1 0x0 DUP2 MSTORE POP SWAP1 JUMP JUMPDEST DUP2 MSTORE PUSH1 0x20 ADD SWAP1 PUSH1 0x1 SWAP1 SUB SWAP1 DUP2 PUSH2 0x1EAA JUMPI SWAP1 POP JUMPDEST POP DUP5 SLOAD SWAP1 SWAP2 POP PUSH1 0x0 SWAP1 PUSH2 0x1F4A SWAP1 DUP5 SWAP1 PUSH2 0x5A3F JUMP JUMPDEST SWAP1 POP PUSH1 0x0 JUMPDEST DUP4 DUP2 LT ISZERO PUSH2 0x207A JUMPI PUSH1 0xA DUP7 PUSH2 0x1F64 DUP4 DUP6 PUSH2 0x5AE1 JUMP JUMPDEST DUP2 SLOAD DUP2 LT PUSH2 0x1F74 JUMPI PUSH2 0x1F74 PUSH2 0x5A52 JUMP JUMPDEST SWAP1 PUSH1 0x0 MSTORE PUSH1 0x20 PUSH1 0x0 KECCAK256 ADD SLOAD DUP2 SLOAD DUP2 LT PUSH2 0x1F8F JUMPI PUSH2 0x1F8F PUSH2 0x5A52 JUMP JUMPDEST PUSH1 0x0 SWAP2 DUP3 MSTORE PUSH1 0x20 SWAP2 DUP3 SWAP1 KECCAK256 PUSH1 0x40 DUP1 MLOAD PUSH2 0x1A0 DUP2 ADD DUP3 MSTORE PUSH1 0xA SWAP1 SWAP4 MUL SWAP1 SWAP2 ADD DUP1 SLOAD PUSH1 0xFF DUP1 DUP3 AND DUP6 MSTORE PUSH2 0x100 DUP1 DUP4 DIV DUP3 AND SWAP7 DUP7 ADD SWAP7 SWAP1 SWAP7 MSTORE PUSH3 0x10000 DUP3 DIV DUP2 AND SWAP4 DUP6 ADD SWAP4 SWAP1 SWAP4 MSTORE PUSH4 0x1000000 SWAP1 DIV DUP3 AND PUSH1 0x60 DUP5 ADD MSTORE PUSH1 0x1 DUP2 ADD SLOAD PUSH1 0x80 DUP5 ADD MSTORE PUSH1 0x2 DUP2 ADD SLOAD SWAP1 SWAP2 AND ISZERO ISZERO PUSH1 0xA0 DUP4 ADD MSTORE PUSH1 0x3 DUP2 ADD SLOAD PUSH1 0xC0 DUP4 ADD MSTORE PUSH1 0x4 DUP2 ADD SLOAD PUSH1 0xE0 DUP4 ADD MSTORE PUSH1 0x5 DUP2 ADD SLOAD SWAP3 DUP3 ADD SWAP3 SWAP1 SWAP3 MSTORE PUSH1 0x6 DUP3 ADD SLOAD PUSH2 0x120 DUP3 ADD MSTORE PUSH1 0x7 DUP3 ADD SLOAD PUSH2 0x140 DUP3 ADD MSTORE PUSH1 0x8 DUP3 ADD SLOAD PUSH2 0x160 DUP3 ADD MSTORE PUSH1 0x9 SWAP1 SWAP2 ADD SLOAD PUSH2 0x180 DUP3 ADD MSTORE DUP4 MLOAD DUP5 SWAP1 DUP4 SWAP1 DUP2 LT PUSH2 0x205C JUMPI PUSH2 0x205C PUSH2 0x5A52 JUMP JUMPDEST PUSH1 0x20 MUL PUSH1 0x20 ADD ADD DUP2 SWAP1 MSTORE POP DUP1 DUP1 PUSH2 0x2072 SWAP1 PUSH2 0x5A81 JUMP JUMPDEST SWAP2 POP POP PUSH2 0x1F4F JUMP JUMPDEST POP SWAP1 SWAP11 SWAP10 POP POP POP POP POP POP POP POP POP POP JUMP JUMPDEST PUSH2 0x2092 PUSH2 0x376B JUMP JUMPDEST PUSH1 0x3 SLOAD PUSH1 0x40 MLOAD PUSH4 0x8A888953 PUSH1 0xE0 SHL DUP2 MSTORE PUSH1 0xFF DUP1 DUP8 AND PUSH1 0x4 DUP4 ADD MSTORE DUP6 AND PUSH1 0x24 DUP3 ADD MSTORE DUP6 SWAP2 DUP6 SWAP2 CALLER SWAP2 PUSH1 0x1 PUSH1 0x1 PUSH1 0xA0 SHL SUB AND SWAP1 PUSH4 0x8A888953 SWAP1 PUSH1 0x44 ADD PUSH1 0x20 PUSH1 0x40 MLOAD DUP1 DUP4 SUB DUP2 DUP7 GAS STATICCALL ISZERO DUP1 ISZERO PUSH2 0x20E9 JUMPI RETURNDATASIZE PUSH1 0x0 DUP1 RETURNDATACOPY RETURNDATASIZE PUSH1 0x0 REVERT JUMPDEST POP POP POP POP PUSH1 0x40 MLOAD RETURNDATASIZE PUSH1 0x1F NOT PUSH1 0x1F DUP3 ADD AND DUP3 ADD DUP1 PUSH1 0x40 MSTORE POP DUP2 ADD SWAP1 PUSH2 0x210D SWAP2 SWAP1 PUSH2 0x5B5E JUMP JUMPDEST PUSH1 0x1 PUSH1 0x1 PUSH1 0xA0 SHL SUB AND EQ PUSH2 0x2133 JUMPI PUSH1 0x40 MLOAD PUSH3 0x7BBA63 PUSH1 0xE0 SHL DUP2 MSTORE PUSH1 0x4 ADD PUSH1 0x40 MLOAD DUP1 SWAP2 SUB SWAP1 REVERT JUMPDEST PUSH1 0x1 SLOAD PUSH1 0x40 MLOAD PUSH32 0x4855735C00000000000000000000000000000000000000000000000000000000 DUP2 MSTORE PUSH1 0xFF DUP1 DUP10 AND PUSH1 0x4 DUP4 ADD MSTORE DUP8 AND PUSH1 0x24 DUP3 ADD MSTORE PUSH1 0x1 PUSH1 0x1 PUSH1 0xA0 SHL SUB SWAP1 SWAP2 AND SWAP1 PUSH4 0x4855735C SWAP1 PUSH1 0x44 ADD PUSH1 0x20 PUSH1 0x40 MLOAD DUP1 DUP4 SUB DUP2 DUP7 GAS STATICCALL ISZERO DUP1 ISZERO PUSH2 0x219F JUMPI RETURNDATASIZE PUSH1 0x0 DUP1 RETURNDATACOPY RETURNDATASIZE PUSH1 0x0 REVERT JUMPDEST POP POP POP POP PUSH1 0x40 MLOAD RETURNDATASIZE PUSH1 0x1F NOT PUSH1 0x1F DUP3 ADD AND DUP3 ADD DUP1 PUSH1 0x40 MSTORE POP DUP2 ADD SWAP1 PUSH2 0x21C3 SWAP2 SWAP1 PUSH2 0x5C53 JUMP JUMPDEST PUSH2 0x220F JUMPI PUSH1 0x40 MLOAD PUSH3 0x461BCD PUSH1 0xE5 SHL DUP2 MSTORE PUSH1 0x20 PUSH1 0x4 DUP3 ADD MSTORE PUSH1 0x1 PUSH1 0x24 DUP3 ADD MSTORE PUSH32 0x6D00000000000000000000000000000000000000000000000000000000000000 PUSH1 0x44 DUP3 ADD MSTORE PUSH1 0x64 ADD PUSH2 0xCA0 JUMP JUMPDEST PUSH1 0xFF DUP5 AND PUSH1 0x0 SWAP1 DUP2 MSTORE PUSH1 0x7 PUSH1 0x20 MSTORE PUSH1 0x40 SWAP1 KECCAK256 SLOAD DUP4 LT PUSH2 0x2270 JUMPI PUSH1 0x40 MLOAD PUSH3 0x461BCD PUSH1 0xE5 SHL DUP2 MSTORE PUSH1 0x20 PUSH1 0x4 DUP3 ADD MSTORE PUSH1 0x1 PUSH1 0x24 DUP3 ADD MSTORE PUSH32 0x6D00000000000000000000000000000000000000000000000000000000000000 PUSH1 0x44 DUP3 ADD MSTORE PUSH1 0x64 ADD PUSH2 0xCA0 JUMP JUMPDEST PUSH1 0x1 DUP5 PUSH1 0xFF AND LT ISZERO DUP1 ISZERO PUSH2 0x2288 JUMPI POP PUSH1 0x8 DUP5 PUSH1 0xFF AND GT ISZERO JUMPDEST PUSH2 0x22B8 JUMPI PUSH1 0x40 MLOAD PUSH3 0x461BCD PUSH1 0xE5 SHL DUP2 MSTORE PUSH1 0x20 PUSH1 0x4 DUP3 ADD MSTORE PUSH1 0x1 PUSH1 0x24 DUP3 ADD MSTORE PUSH1 0x1D PUSH1 0xFA SHL PUSH1 0x44 DUP3 ADD MSTORE PUSH1 0x64 ADD PUSH2 0xCA0 JUMP JUMPDEST PUSH1 0xFF DUP5 AND PUSH1 0x0 SWAP1 DUP2 MSTORE PUSH1 0x7 PUSH1 0x20 MSTORE PUSH1 0x40 DUP2 KECCAK256 DUP1 SLOAD DUP6 SWAP1 DUP2 LT PUSH2 0x22DC JUMPI PUSH2 0x22DC PUSH2 0x5A52 JUMP JUMPDEST PUSH1 0x0 SWAP2 DUP3 MSTORE PUSH1 0x20 DUP1 DUP4 KECCAK256 PUSH1 0x40 DUP1 MLOAD PUSH1 0xA0 DUP2 ADD DUP3 MSTORE PUSH1 0x3 SWAP5 DUP6 MUL SWAP1 SWAP3 ADD DUP1 SLOAD PUSH1 0xFF DUP1 DUP3 AND DUP1 DUP7 MSTORE PUSH2 0x100 DUP4 DIV DUP3 AND SWAP7 DUP7 ADD DUP8 SWAP1 MSTORE PUSH3 0x10000 SWAP1 SWAP3 DIV AND DUP5 DUP5 ADD MSTORE PUSH1 0x1 DUP3 ADD SLOAD PUSH1 0x60 DUP6 ADD DUP2 SWAP1 MSTORE PUSH1 0x2 SWAP1 SWAP3 ADD SLOAD PUSH1 0x80 DUP6 ADD DUP2 SWAP1 MSTORE SWAP6 SLOAD SWAP3 MLOAD PUSH4 0x8A888953 PUSH1 0xE0 SHL DUP2 MSTORE PUSH1 0x4 DUP2 ADD SWAP2 SWAP1 SWAP2 MSTORE PUSH1 0x24 DUP2 ADD SWAP5 SWAP1 SWAP5 MSTORE SWAP2 SWAP6 POP SWAP3 SWAP4 SWAP1 SWAP3 SWAP1 SWAP2 PUSH1 0x1 PUSH1 0x1 PUSH1 0xA0 SHL SUB SWAP1 SWAP2 AND SWAP1 PUSH4 0x8A888953 SWAP1 PUSH1 0x44 ADD PUSH1 0x20 PUSH1 0x40 MLOAD DUP1 DUP4 SUB DUP2 DUP7 GAS STATICCALL ISZERO DUP1 ISZERO PUSH2 0x238D JUMPI RETURNDATASIZE PUSH1 0x0 DUP1 RETURNDATACOPY RETURNDATASIZE PUSH1 0x0 REVERT JUMPDEST POP POP POP POP PUSH1 0x40 MLOAD RETURNDATASIZE PUSH1 0x1F NOT PUSH1 0x1F DUP3 ADD AND DUP3 ADD DUP1 PUSH1 0x40 MSTORE POP DUP2 ADD SWAP1 PUSH2 0x23B1 SWAP2 SWAP1 PUSH2 0x5B5E JUMP JUMPDEST SWAP1 POP PUSH1 0x1 PUSH1 0x1 PUSH1 0xA0 SHL SUB DUP2 AND PUSH2 0x2409 JUMPI PUSH1 0x40 MLOAD PUSH3 0x461BCD PUSH1 0xE5 SHL DUP2 MSTORE PUSH1 0x20 PUSH1 0x4 DUP3 ADD MSTORE PUSH1 0x1 PUSH1 0x24 DUP3 ADD MSTORE PUSH32 0x7500000000000000000000000000000000000000000000000000000000000000 PUSH1 0x44 DUP3 ADD MSTORE PUSH1 0x64 ADD PUSH2 0xCA0 JUMP JUMPDEST PUSH1 0x0 PUSH1 0x6E PUSH2 0x2418 DUP6 PUSH1 0x64 PUSH2 0x5C01 JUMP JUMPDEST PUSH2 0x2422 SWAP2 SWAP1 PUSH2 0x5C18 JUMP JUMPDEST SWAP1 POP PUSH1 0x0 PUSH2 0x2430 DUP3 DUP7 PUSH2 0x5A3F JUMP JUMPDEST PUSH1 0x2 SLOAD PUSH1 0x40 MLOAD PUSH32 0x23B872DD00000000000000000000000000000000000000000000000000000000 DUP2 MSTORE CALLER PUSH1 0x4 DUP3 ADD MSTORE ADDRESS PUSH1 0x24 DUP3 ADD MSTORE PUSH1 0x44 DUP2 ADD DUP9 SWAP1 MSTORE SWAP2 SWAP3 POP PUSH1 0x1 PUSH1 0x1 PUSH1 0xA0 SHL SUB AND SWAP1 PUSH4 0x23B872DD SWAP1 PUSH1 0x64 ADD PUSH1 0x20 PUSH1 0x40 MLOAD DUP1 DUP4 SUB DUP2 PUSH1 0x0 DUP8 GAS CALL ISZERO DUP1 ISZERO PUSH2 0x24A1 JUMPI RETURNDATASIZE PUSH1 0x0 DUP1 RETURNDATACOPY RETURNDATASIZE PUSH1 0x0 REVERT JUMPDEST POP POP POP POP PUSH1 0x40 MLOAD RETURNDATASIZE PUSH1 0x1F NOT PUSH1 0x1F DUP3 ADD AND DUP3 ADD DUP1 PUSH1 0x40 MSTORE POP DUP2 ADD SWAP1 PUSH2 0x24C5 SWAP2 SWAP1 PUSH2 0x5C53 JUMP JUMPDEST PUSH2 0x24F5 JUMPI PUSH1 0x40 MLOAD PUSH3 0x461BCD PUSH1 0xE5 SHL DUP2 MSTORE PUSH1 0x20 PUSH1 0x4 DUP3 ADD MSTORE PUSH1 0x1 PUSH1 0x24 DUP3 ADD MSTORE PUSH1 0x1D PUSH1 0xFA SHL PUSH1 0x44 DUP3 ADD MSTORE PUSH1 0x64 ADD PUSH2 0xCA0 JUMP JUMPDEST PUSH1 0x2 SLOAD PUSH1 0x40 MLOAD PUSH32 0xA9059CBB00000000000000000000000000000000000000000000000000000000 DUP2 MSTORE PUSH1 0x1 PUSH1 0x1 PUSH1 0xA0 SHL SUB DUP6 DUP2 AND PUSH1 0x4 DUP4 ADD MSTORE PUSH1 0x24 DUP3 ADD DUP6 SWAP1 MSTORE SWAP1 SWAP2 AND SWAP1 PUSH4 0xA9059CBB SWAP1 PUSH1 0x44 ADD PUSH1 0x20 PUSH1 0x40 MLOAD DUP1 DUP4 SUB DUP2 PUSH1 0x0 DUP8 GAS CALL ISZERO DUP1 ISZERO PUSH2 0x2561 JUMPI RETURNDATASIZE PUSH1 0x0 DUP1 RETURNDATACOPY RETURNDATASIZE PUSH1 0x0 REVERT JUMPDEST POP POP POP POP PUSH1 0x40 MLOAD RETURNDATASIZE PUSH1 0x1F NOT PUSH1 0x1F DUP3 ADD AND DUP3 ADD DUP1 PUSH1 0x40 MSTORE POP DUP2 ADD SWAP1 PUSH2 0x2585 SWAP2 SWAP1 PUSH2 0x5C53 JUMP JUMPDEST PUSH2 0x25B5 JUMPI PUSH1 0x40 MLOAD PUSH3 0x461BCD PUSH1 0xE5 SHL DUP2 MSTORE PUSH1 0x20 PUSH1 0x4 DUP3 ADD MSTORE PUSH1 0x1 PUSH1 0x24 DUP3 ADD MSTORE PUSH1 0x1D PUSH1 0xFA SHL PUSH1 0x44 DUP3 ADD MSTORE PUSH1 0x64 ADD PUSH2 0xCA0 JUMP JUMPDEST PUSH1 0x2 SLOAD PUSH1 0x40 MLOAD PUSH32 0x42966C6800000000000000000000000000000000000000000000000000000000 DUP2 MSTORE PUSH1 0x4 DUP2 ADD DUP4 SWAP1 MSTORE PUSH1 0x1 PUSH1 0x1 PUSH1 0xA0 SHL SUB SWAP1 SWAP2 AND SWAP1 PUSH4 0x42966C68 SWAP1 PUSH1 0x24 ADD PUSH1 0x20 PUSH1 0x40 MLOAD DUP1 DUP4 SUB DUP2 PUSH1 0x0 DUP8 GAS CALL ISZERO DUP1 ISZERO PUSH2 0x2619 JUMPI RETURNDATASIZE PUSH1 0x0 DUP1 RETURNDATACOPY RETURNDATASIZE PUSH1 0x0 REVERT JUMPDEST POP POP POP POP PUSH1 0x40 MLOAD RETURNDATASIZE PUSH1 0x1F NOT PUSH1 0x1F DUP3 ADD AND DUP3 ADD DUP1 PUSH1 0x40 MSTORE POP DUP2 ADD SWAP1 PUSH2 0x263D SWAP2 SWAP1 PUSH2 0x5C53 JUMP JUMPDEST PUSH2 0x2689 JUMPI PUSH1 0x40 MLOAD PUSH3 0x461BCD PUSH1 0xE5 SHL DUP2 MSTORE PUSH1 0x20 PUSH1 0x4 DUP3 ADD MSTORE PUSH1 0x1 PUSH1 0x24 DUP3 ADD MSTORE PUSH32 0x6200000000000000000000000000000000000000000000000000000000000000 PUSH1 0x44 DUP3 ADD MSTORE PUSH1 0x64 ADD PUSH2 0xCA0 JUMP JUMPDEST PUSH1 0xFF DUP11 AND PUSH1 0x0 SWAP1 DUP2 MSTORE PUSH1 0x7 PUSH1 0x20 MSTORE PUSH1 0x40 SWAP1 KECCAK256 DUP1 SLOAD PUSH2 0x26A9 SWAP1 PUSH1 0x1 SWAP1 PUSH2 0x5A3F JUMP JUMPDEST DUP2 SLOAD DUP2 LT PUSH2 0x26B9 JUMPI PUSH2 0x26B9 PUSH2 0x5A52 JUMP JUMPDEST SWAP1 PUSH1 0x0 MSTORE PUSH1 0x20 PUSH1 0x0 KECCAK256 SWAP1 PUSH1 0x3 MUL ADD PUSH1 0x7 PUSH1 0x0 DUP13 PUSH1 0xFF AND PUSH1 0xFF AND DUP2 MSTORE PUSH1 0x20 ADD SWAP1 DUP2 MSTORE PUSH1 0x20 ADD PUSH1 0x0 KECCAK256 DUP11 DUP2 SLOAD DUP2 LT PUSH2 0x26F1 JUMPI PUSH2 0x26F1 PUSH2 0x5A52 JUMP JUMPDEST PUSH1 0x0 SWAP2 DUP3 MSTORE PUSH1 0x20 DUP1 DUP4 KECCAK256 DUP5 SLOAD PUSH1 0x3 SWAP1 SWAP4 MUL ADD DUP1 SLOAD PUSH1 0xFF NOT DUP2 AND PUSH1 0xFF SWAP5 DUP6 AND SWAP1 DUP2 OR DUP4 SSTORE DUP7 SLOAD PUSH2 0x100 SWAP1 DUP2 SWAP1 DIV DUP7 AND MUL PUSH2 0xFFFF NOT SWAP1 SWAP3 AND OR OR DUP1 DUP3 SSTORE DUP6 SLOAD PUSH3 0x10000 SWAP1 DUP2 SWAP1 DIV DUP6 AND MUL PUSH3 0xFF0000 NOT SWAP1 SWAP2 AND OR DUP2 SSTORE PUSH1 0x1 DUP1 DUP7 ADD SLOAD SWAP1 DUP3 ADD SSTORE PUSH1 0x2 SWAP5 DUP6 ADD SLOAD SWAP5 ADD SWAP4 SWAP1 SWAP4 SSTORE DUP13 AND DUP2 MSTORE PUSH1 0x7 SWAP1 SWAP2 MSTORE PUSH1 0x40 SWAP1 KECCAK256 DUP1 SLOAD DUP1 PUSH2 0x2776 JUMPI PUSH2 0x2776 PUSH2 0x5D8C JUMP JUMPDEST PUSH1 0x0 DUP3 DUP2 MSTORE PUSH1 0x20 DUP1 DUP3 KECCAK256 PUSH1 0x3 PUSH1 0x0 NOT SWAP1 SWAP5 ADD SWAP4 DUP5 MUL ADD DUP1 SLOAD PUSH32 0xFFFFFFFFFFFFFFFFFFFFFFFFFFFFFFFFFFFFFFFFFFFFFFFFFFFFFFFFFF000000 AND DUP2 SSTORE PUSH1 0x1 DUP2 ADD DUP4 SWAP1 SSTORE PUSH1 0x2 ADD SWAP2 SWAP1 SWAP2 SSTORE SWAP2 SSTORE DUP7 MLOAD SWAP1 DUP8 ADD MLOAD PUSH2 0x27D2 SWAP2 SWAP1 PUSH2 0x3929 JUMP JUMPDEST PUSH1 0x1 PUSH1 0x0 SWAP1 SLOAD SWAP1 PUSH2 0x100 EXP SWAP1 DIV PUSH1 0x1 PUSH1 0x1 PUSH1 0xA0 SHL SUB AND PUSH1 0x1 PUSH1 0x1 PUSH1 0xA0 SHL SUB AND PUSH4 0x3E5F2857 DUP14 DUP14 DUP14 DUP9 PUSH1 0x1 PUSH1 0x40 MLOAD DUP7 PUSH4 0xFFFFFFFF AND PUSH1 0xE0 SHL DUP2 MSTORE PUSH1 0x4 ADD PUSH2 0x2845 SWAP6 SWAP5 SWAP4 SWAP3 SWAP2 SWAP1 PUSH1 0xFF SWAP6 DUP7 AND DUP2 MSTORE SWAP4 DUP6 AND PUSH1 0x20 DUP6 ADD MSTORE SWAP2 SWAP1 SWAP4 AND PUSH1 0x40 DUP4 ADD MSTORE PUSH1 0x60 DUP3 ADD SWAP3 SWAP1 SWAP3 MSTORE SWAP1 ISZERO ISZERO PUSH1 0x80 DUP3 ADD MSTORE PUSH1 0xA0 ADD SWAP1 JUMP JUMPDEST PUSH1 0x0 PUSH1 0x40 MLOAD DUP1 DUP4 SUB DUP2 PUSH1 0x0 DUP8 DUP1 EXTCODESIZE ISZERO DUP1 ISZERO PUSH2 0x285F JUMPI PUSH1 0x0 DUP1 REVERT JUMPDEST POP GAS CALL ISZERO DUP1 ISZERO PUSH2 0x2873 JUMPI RETURNDATASIZE PUSH1 0x0 DUP1 RETURNDATACOPY RETURNDATASIZE PUSH1 0x0 REVERT JUMPDEST POP POP POP POP POP POP POP POP POP POP POP POP PUSH2 0xB91 PUSH1 0x1 PUSH1 0x0 SSTORE JUMP JUMPDEST PUSH1 0x3 SLOAD PUSH1 0x40 MLOAD PUSH4 0x8A888953 PUSH1 0xE0 SHL DUP2 MSTORE PUSH1 0xFF DUP1 DUP8 AND PUSH1 0x4 DUP4 ADD MSTORE DUP6 AND PUSH1 0x24 DUP3 ADD MSTORE PUSH1 0x60 SWAP2 DUP7 SWAP2 DUP7 SWAP2 CALLER SWAP2 PUSH1 0x1 PUSH1 0x1 PUSH1 0xA0 SHL SUB SWAP1 SWAP2 AND SWAP1 PUSH4 0x8A888953 SWAP1 PUSH1 0x44 ADD PUSH1 0x20 PUSH1 0x40 MLOAD DUP1 DUP4 SUB DUP2 DUP7 GAS STATICCALL ISZERO DUP1 ISZERO PUSH2 0x28E5 JUMPI RETURNDATASIZE PUSH1 0x0 DUP1 RETURNDATACOPY RETURNDATASIZE PUSH1 0x0 REVERT JUMPDEST POP POP POP POP PUSH1 0x40 MLOAD RETURNDATASIZE PUSH1 0x1F NOT PUSH1 0x1F DUP3 ADD AND DUP3 ADD DUP1 PUSH1 0x40 MSTORE POP DUP2 ADD SWAP1 PUSH2 0x2909 SWAP2 SWAP1 PUSH2 0x5B5E JUMP JUMPDEST PUSH1 0x1 PUSH1 0x1 PUSH1 0xA0 SHL SUB AND EQ PUSH2 0x292F JUMPI PUSH1 0x40 MLOAD PUSH3 0x7BBA63 PUSH1 0xE0 SHL DUP2 MSTORE PUSH1 0x4 ADD PUSH1 0x40 MLOAD DUP1 SWAP2 SUB SWAP1 REVERT JUMPDEST DUP4 PUSH1 0x0 SUB PUSH2 0x293B JUMPI TIMESTAMP SWAP4 POP JUMPDEST DUP4 DUP6 GT ISZERO PUSH2 0x2947 JUMPI SWAP3 SWAP4 SWAP3 JUMPDEST PUSH1 0xFF DUP7 AND PUSH1 0x8 DUP9 SWAP1 SHL PUSH2 0xFF00 AND OR PUSH1 0x0 DUP2 DUP2 MSTORE PUSH1 0xC PUSH1 0x20 MSTORE PUSH1 0x40 DUP2 KECCAK256 DUP1 SLOAD SWAP1 SWAP2 DUP2 SWAP1 SUB PUSH2 0x2972 JUMPI POP PUSH1 0x1 JUMPDEST PUSH1 0x0 DUP2 JUMPDEST DUP1 ISZERO PUSH2 0x2A13 JUMPI PUSH1 0x0 PUSH1 0xA DUP6 PUSH2 0x298C PUSH1 0x1 DUP6 PUSH2 0x5A3F JUMP JUMPDEST DUP2 SLOAD DUP2 LT PUSH2 0x299C JUMPI PUSH2 0x299C PUSH2 0x5A52 JUMP JUMPDEST SWAP1 PUSH1 0x0 MSTORE PUSH1 0x20 PUSH1 0x0 KECCAK256 ADD SLOAD DUP2 SLOAD DUP2 LT PUSH2 0x29B7 JUMPI PUSH2 0x29B7 PUSH2 0x5A52 JUMP JUMPDEST SWAP1 PUSH1 0x0 MSTORE PUSH1 0x20 PUSH1 0x0 KECCAK256 SWAP1 PUSH1 0xA MUL ADD PUSH1 0x1 ADD SLOAD SWAP1 POP DUP11 DUP2 LT ISZERO DUP1 ISZERO PUSH2 0x29DB JUMPI POP DUP10 DUP2 GT ISZERO JUMPDEST ISZERO PUSH2 0x29F2 JUMPI DUP3 PUSH2 0x29EA DUP2 PUSH2 0x5A81 JUMP JUMPDEST SWAP4 POP POP PUSH2 0x2A00 JUMP JUMPDEST DUP11 DUP2 LT ISZERO PUSH2 0x2A00 JUMPI POP PUSH2 0x2A13 JUMP JUMPDEST POP DUP1 PUSH2 0x2A0B DUP2 PUSH2 0x5A9B JUMP JUMPDEST SWAP2 POP POP PUSH2 0x2976 JUMP JUMPDEST POP DUP1 PUSH8 0xFFFFFFFFFFFFFFFF DUP2 GT ISZERO PUSH2 0x2A2D JUMPI PUSH2 0x2A2D PUSH2 0x5AB2 JUMP JUMPDEST PUSH1 0x40 MLOAD SWAP1 DUP1 DUP3 MSTORE DUP1 PUSH1 0x20 MUL PUSH1 0x20 ADD DUP3 ADD PUSH1 0x40 MSTORE DUP1 ISZERO PUSH2 0x2AD7 JUMPI DUP2 PUSH1 0x20 ADD JUMPDEST PUSH2 0x2AC4 PUSH1 0x40 MLOAD DUP1 PUSH2 0x1A0 ADD PUSH1 0x40 MSTORE DUP1 PUSH1 0x0 PUSH1 0xFF AND DUP2 MSTORE PUSH1 0x20 ADD PUSH1 0x0 PUSH1 0xFF AND DUP2 MSTORE PUSH1 0x20 ADD PUSH1 0x0 PUSH1 0xFF AND DUP2 MSTORE PUSH1 0x20 ADD PUSH1 0x0 PUSH1 0xFF AND DUP2 MSTORE PUSH1 0x20 ADD PUSH1 0x0 DUP2 MSTORE PUSH1 0x20 ADD PUSH1 0x0 ISZERO ISZERO DUP2 MSTORE PUSH1 0x20 ADD PUSH1 0x0 DUP2 MSTORE PUSH1 0x20 ADD PUSH1 0x0 DUP2 MSTORE PUSH1 0x20 ADD PUSH1 0x0 DUP2 MSTORE PUSH1 0x20 ADD PUSH1 0x0 DUP2 MSTORE PUSH1 0x20 ADD PUSH1 0x0 DUP2 MSTORE PUSH1 0x20 ADD PUSH1 0x0 DUP2 MSTORE PUSH1 0x20 ADD PUSH1 0x0 DUP2 MSTORE POP SWAP1 JUMP JUMPDEST DUP2 MSTORE PUSH1 0x20 ADD SWAP1 PUSH1 0x1 SWAP1 SUB SWAP1 DUP2 PUSH2 0x2A4B JUMPI SWAP1 POP JUMPDEST POP SWAP7 POP PUSH1 0x0 PUSH2 0x2AE6 DUP3 DUP5 PUSH2 0x5A3F JUMP JUMPDEST SWAP1 POP PUSH1 0x0 JUMPDEST DUP3 DUP2 LT ISZERO PUSH2 0x2C16 JUMPI PUSH1 0xA DUP6 PUSH2 0x2B00 DUP4 DUP6 PUSH2 0x5AE1 JUMP JUMPDEST DUP2 SLOAD DUP2 LT PUSH2 0x2B10 JUMPI PUSH2 0x2B10 PUSH2 0x5A52 JUMP JUMPDEST SWAP1 PUSH1 0x0 MSTORE PUSH1 0x20 PUSH1 0x0 KECCAK256 ADD SLOAD DUP2 SLOAD DUP2 LT PUSH2 0x2B2B JUMPI PUSH2 0x2B2B PUSH2 0x5A52 JUMP JUMPDEST PUSH1 0x0 SWAP2 DUP3 MSTORE PUSH1 0x20 SWAP2 DUP3 SWAP1 KECCAK256 PUSH1 0x40 DUP1 MLOAD PUSH2 0x1A0 DUP2 ADD DUP3 MSTORE PUSH1 0xA SWAP1 SWAP4 MUL SWAP1 SWAP2 ADD DUP1 SLOAD PUSH1 0xFF DUP1 DUP3 AND DUP6 MSTORE PUSH2 0x100 DUP1 DUP4 DIV DUP3 AND SWAP7 DUP7 ADD SWAP7 SWAP1 SWAP7 MSTORE PUSH3 0x10000 DUP3 DIV DUP2 AND SWAP4 DUP6 ADD SWAP4 SWAP1 SWAP4 MSTORE PUSH4 0x1000000 SWAP1 DIV DUP3 AND PUSH1 0x60 DUP5 ADD MSTORE PUSH1 0x1 DUP2 ADD SLOAD PUSH1 0x80 DUP5 ADD MSTORE PUSH1 0x2 DUP2 ADD SLOAD SWAP1 SWAP2 AND ISZERO ISZERO PUSH1 0xA0 DUP4 ADD MSTORE PUSH1 0x3 DUP2 ADD SLOAD PUSH1 0xC0 DUP4 ADD MSTORE PUSH1 0x4 DUP2 ADD SLOAD PUSH1 0xE0 DUP4 ADD MSTORE PUSH1 0x5 DUP2 ADD SLOAD SWAP3 DUP3 ADD SWAP3 SWAP1 SWAP3 MSTORE PUSH1 0x6 DUP3 ADD SLOAD PUSH2 0x120 DUP3 ADD MSTORE PUSH1 0x7 DUP3 ADD SLOAD PUSH2 0x140 DUP3 ADD MSTORE PUSH1 0x8 DUP3 ADD SLOAD PUSH2 0x160 DUP3 ADD MSTORE PUSH1 0x9 SWAP1 SWAP2 ADD SLOAD PUSH2 0x180 DUP3 ADD MSTORE DUP10 MLOAD DUP11 SWAP1 DUP4 SWAP1 DUP2 LT PUSH2 0x2BF8 JUMPI PUSH2 0x2BF8 PUSH2 0x5A52 JUMP JUMPDEST PUSH1 0x20 MUL PUSH1 0x20 ADD ADD DUP2 SWAP1 MSTORE POP DUP1 DUP1 PUSH2 0x2C0E SWAP1 PUSH2 0x5A81 JUMP JUMPDEST SWAP2 POP POP PUSH2 0x2AEB JUMP JUMPDEST POP POP POP POP POP POP POP POP SWAP5 SWAP4 POP POP POP POP JUMP JUMPDEST PUSH1 0x60 DUP1 DUP3 PUSH1 0x0 SUB PUSH2 0x2C35 JUMPI TIMESTAMP SWAP3 POP JUMPDEST DUP3 DUP5 GT ISZERO PUSH2 0x2C41 JUMPI SWAP2 SWAP3 SWAP2 JUMPDEST PUSH1 0xA SLOAD PUSH1 0x0 DUP2 SWAP1 SUB PUSH2 0x2C51 JUMPI POP PUSH1 0x1 JUMPDEST PUSH1 0x0 DUP2 JUMPDEST DUP1 ISZERO PUSH2 0x2CD6 JUMPI PUSH1 0x0 PUSH1 0xA PUSH2 0x2C6A PUSH1 0x1 DUP5 PUSH2 0x5A3F JUMP JUMPDEST DUP2 SLOAD DUP2 LT PUSH2 0x2C7A JUMPI PUSH2 0x2C7A PUSH2 0x5A52 JUMP JUMPDEST SWAP1 PUSH1 0x0 MSTORE PUSH1 0x20 PUSH1 0x0 KECCAK256 SWAP1 PUSH1 0xA MUL ADD PUSH1 0x1 ADD SLOAD SWAP1 POP DUP8 DUP2 LT ISZERO DUP1 ISZERO PUSH2 0x2C9E JUMPI POP DUP7 DUP2 GT ISZERO JUMPDEST ISZERO PUSH2 0x2CB5 JUMPI DUP3 PUSH2 0x2CAD DUP2 PUSH2 0x5A81 JUMP JUMPDEST SWAP4 POP POP PUSH2 0x2CC3 JUMP JUMPDEST DUP8 DUP2 LT ISZERO PUSH2 0x2CC3 JUMPI POP PUSH2 0x2CD6 JUMP JUMPDEST POP DUP1 PUSH2 0x2CCE DUP2 PUSH2 0x5A9B JUMP JUMPDEST SWAP2 POP POP PUSH2 0x2C55 JUMP JUMPDEST POP DUP1 PUSH8 0xFFFFFFFFFFFFFFFF DUP2 GT ISZERO PUSH2 0x2CF0 JUMPI PUSH2 0x2CF0 PUSH2 0x5AB2 JUMP JUMPDEST PUSH1 0x40 MLOAD SWAP1 DUP1 DUP3 MSTORE DUP1 PUSH1 0x20 MUL PUSH1 0x20 ADD DUP3 ADD PUSH1 0x40 MSTORE DUP1 ISZERO PUSH2 0x2D50 JUMPI DUP2 PUSH1 0x20 ADD JUMPDEST PUSH1 0x40 DUP1 MLOAD PUSH1 0xC0 DUP2 ADD DUP3 MSTORE PUSH1 0x0 DUP1 DUP3 MSTORE PUSH1 0x20 DUP1 DUP4 ADD DUP3 SWAP1 MSTORE SWAP3 DUP3 ADD DUP2 SWAP1 MSTORE PUSH1 0x60 DUP3 ADD DUP2 SWAP1 MSTORE PUSH1 0x80 DUP3 ADD DUP2 SWAP1 MSTORE PUSH1 0xA0 DUP3 ADD MSTORE DUP3 MSTORE PUSH1 0x0 NOT SWAP1 SWAP3 ADD SWAP2 ADD DUP2 PUSH2 0x2D0E JUMPI SWAP1 POP JUMPDEST POP SWAP4 POP DUP1 PUSH8 0xFFFFFFFFFFFFFFFF DUP2 GT ISZERO PUSH2 0x2D6C JUMPI PUSH2 0x2D6C PUSH2 0x5AB2 JUMP JUMPDEST PUSH1 0x40 MLOAD SWAP1 DUP1 DUP3 MSTORE DUP1 PUSH1 0x20 MUL PUSH1 0x20 ADD DUP3 ADD PUSH1 0x40 MSTORE DUP1 ISZERO PUSH2 0x2DB1 JUMPI DUP2 PUSH1 0x20 ADD JUMPDEST PUSH1 0x40 DUP1 MLOAD DUP1 DUP3 ADD SWAP1 SWAP2 MSTORE PUSH1 0x60 DUP1 DUP3 MSTORE PUSH1 0x20 DUP3 ADD MSTORE DUP2 MSTORE PUSH1 0x20 ADD SWAP1 PUSH1 0x1 SWAP1 SUB SWAP1 DUP2 PUSH2 0x2D8A JUMPI SWAP1 POP JUMPDEST POP SWAP3 POP PUSH1 0x0 PUSH2 0x2DC0 DUP3 DUP5 PUSH2 0x5A3F JUMP JUMPDEST SWAP1 POP PUSH1 0x0 JUMPDEST DUP3 DUP2 LT ISZERO PUSH2 0x309D JUMPI PUSH1 0x0 PUSH1 0xA PUSH2 0x2DDB DUP4 DUP6 PUSH2 0x5AE1 JUMP JUMPDEST DUP2 SLOAD DUP2 LT PUSH2 0x2DEB JUMPI PUSH2 0x2DEB PUSH2 0x5A52 JUMP JUMPDEST PUSH1 0x0 SWAP2 DUP3 MSTORE PUSH1 0x20 SWAP2 DUP3 SWAP1 KECCAK256 PUSH1 0x40 DUP1 MLOAD PUSH2 0x1A0 DUP2 ADD DUP3 MSTORE PUSH1 0xA SWAP1 SWAP4 MUL SWAP1 SWAP2 ADD DUP1 SLOAD PUSH1 0xFF DUP1 DUP3 AND DUP6 MSTORE PUSH2 0x100 DUP1 DUP4 DIV DUP3 AND DUP7 DUP9 ADD SWAP1 DUP2 MSTORE PUSH3 0x10000 DUP5 DIV DUP4 AND DUP8 DUP8 ADD SWAP1 DUP2 MSTORE PUSH4 0x1000000 SWAP1 SWAP5 DIV DUP4 AND PUSH1 0x60 DUP1 DUP10 ADD SWAP2 DUP3 MSTORE PUSH1 0x1 DUP8 ADD SLOAD PUSH1 0x80 DUP1 DUP12 ADD SWAP2 DUP3 MSTORE PUSH1 0x2 DUP10 ADD SLOAD DUP8 AND ISZERO ISZERO PUSH1 0xA0 DUP1 DUP14 ADD SWAP2 DUP3 MSTORE PUSH1 0x3 DUP12 ADD SLOAD PUSH1 0xC0 DUP1 DUP16 ADD SWAP2 SWAP1 SWAP2 MSTORE PUSH1 0x4 DUP13 ADD SLOAD PUSH1 0xE0 DUP16 ADD MSTORE PUSH1 0x5 DUP13 ADD SLOAD SWAP9 DUP15 ADD SWAP9 SWAP1 SWAP9 MSTORE PUSH1 0x6 DUP12 ADD SLOAD PUSH2 0x120 DUP15 ADD MSTORE PUSH1 0x7 DUP12 ADD SLOAD PUSH2 0x140 DUP15 ADD MSTORE PUSH1 0x8 DUP12 ADD SLOAD PUSH2 0x160 DUP15 ADD MSTORE PUSH1 0x9 SWAP1 SWAP11 ADD SLOAD PUSH2 0x180 DUP14 ADD MSTORE DUP11 MLOAD SWAP7 DUP8 ADD DUP12 MSTORE DUP12 MLOAD DUP9 AND DUP8 MSTORE SWAP5 MLOAD DUP8 AND SWAP12 DUP7 ADD SWAP12 SWAP1 SWAP12 MSTORE SWAP6 MLOAD DUP6 AND SWAP8 DUP5 ADD SWAP8 SWAP1 SWAP8 MSTORE MLOAD SWAP1 SWAP3 AND SWAP5 DUP2 ADD SWAP5 SWAP1 SWAP5 MSTORE SWAP1 MLOAD SWAP5 DUP4 ADD SWAP5 SWAP1 SWAP5 MSTORE SWAP3 MLOAD ISZERO ISZERO SWAP3 DUP2 ADD SWAP3 SWAP1 SWAP3 MSTORE DUP9 MLOAD SWAP1 SWAP3 POP DUP9 SWAP1 DUP5 SWAP1 DUP2 LT PUSH2 0x2F08 JUMPI PUSH2 0x2F08 PUSH2 0x5A52 JUMP JUMPDEST PUSH1 0x20 SWAP1 DUP2 MUL SWAP2 SWAP1 SWAP2 ADD ADD MSTORE PUSH1 0xB PUSH2 0x2F1F DUP4 DUP6 PUSH2 0x5AE1 JUMP JUMPDEST DUP2 SLOAD DUP2 LT PUSH2 0x2F2F JUMPI PUSH2 0x2F2F PUSH2 0x5A52 JUMP JUMPDEST SWAP1 PUSH1 0x0 MSTORE PUSH1 0x20 PUSH1 0x0 KECCAK256 SWAP1 PUSH1 0x2 MUL ADD PUSH1 0x40 MLOAD DUP1 PUSH1 0x40 ADD PUSH1 0x40 MSTORE SWAP1 DUP2 PUSH1 0x0 DUP3 ADD DUP1 SLOAD PUSH2 0x2F58 SWAP1 PUSH2 0x5AF4 JUMP JUMPDEST DUP1 PUSH1 0x1F ADD PUSH1 0x20 DUP1 SWAP2 DIV MUL PUSH1 0x20 ADD PUSH1 0x40 MLOAD SWAP1 DUP2 ADD PUSH1 0x40 MSTORE DUP1 SWAP3 SWAP2 SWAP1 DUP2 DUP2 MSTORE PUSH1 0x20 ADD DUP3 DUP1 SLOAD PUSH2 0x2F84 SWAP1 PUSH2 0x5AF4 JUMP JUMPDEST DUP1 ISZERO PUSH2 0x2FD1 JUMPI DUP1 PUSH1 0x1F LT PUSH2 0x2FA6 JUMPI PUSH2 0x100 DUP1 DUP4 SLOAD DIV MUL DUP4 MSTORE SWAP2 PUSH1 0x20 ADD SWAP2 PUSH2 0x2FD1 JUMP JUMPDEST DUP3 ADD SWAP2 SWAP1 PUSH1 0x0 MSTORE PUSH1 0x20 PUSH1 0x0 KECCAK256 SWAP1 JUMPDEST DUP2 SLOAD DUP2 MSTORE SWAP1 PUSH1 0x1 ADD SWAP1 PUSH1 0x20 ADD DUP1 DUP4 GT PUSH2 0x2FB4 JUMPI DUP3 SWAP1 SUB PUSH1 0x1F AND DUP3 ADD SWAP2 JUMPDEST POP POP POP POP POP DUP2 MSTORE PUSH1 0x20 ADD PUSH1 0x1 DUP3 ADD DUP1 SLOAD PUSH2 0x2FEA SWAP1 PUSH2 0x5AF4 JUMP JUMPDEST DUP1 PUSH1 0x1F ADD PUSH1 0x20 DUP1 SWAP2 DIV MUL PUSH1 0x20 ADD PUSH1 0x40 MLOAD SWAP1 DUP2 ADD PUSH1 0x40 MSTORE DUP1 SWAP3 SWAP2 SWAP1 DUP2 DUP2 MSTORE PUSH1 0x20 ADD DUP3 DUP1 SLOAD PUSH2 0x3016 SWAP1 PUSH2 0x5AF4 JUMP JUMPDEST DUP1 ISZERO PUSH2 0x3063 JUMPI DUP1 PUSH1 0x1F LT PUSH2 0x3038 JUMPI PUSH2 0x100 DUP1 DUP4 SLOAD DIV MUL DUP4 MSTORE SWAP2 PUSH1 0x20 ADD SWAP2 PUSH2 0x3063 JUMP JUMPDEST DUP3 ADD SWAP2 SWAP1 PUSH1 0x0 MSTORE PUSH1 0x20 PUSH1 0x0 KECCAK256 SWAP1 JUMPDEST DUP2 SLOAD DUP2 MSTORE SWAP1 PUSH1 0x1 ADD SWAP1 PUSH1 0x20 ADD DUP1 DUP4 GT PUSH2 0x3046 JUMPI DUP3 SWAP1 SUB PUSH1 0x1F AND DUP3 ADD SWAP2 JUMPDEST POP POP POP POP POP DUP2 MSTORE POP POP DUP7 DUP4 DUP2 MLOAD DUP2 LT PUSH2 0x307E JUMPI PUSH2 0x307E PUSH2 0x5A52 JUMP JUMPDEST PUSH1 0x20 MUL PUSH1 0x20 ADD ADD DUP2 SWAP1 MSTORE POP POP DUP1 DUP1 PUSH2 0x3095 SWAP1 PUSH2 0x5A81 JUMP JUMPDEST SWAP2 POP POP PUSH2 0x2DC5 JUMP JUMPDEST POP POP POP POP SWAP3 POP SWAP3 SWAP1 POP JUMP JUMPDEST PUSH2 0x30B0 PUSH2 0x376B JUMP JUMPDEST PUSH1 0x3 SLOAD PUSH1 0x40 MLOAD PUSH4 0x8A888953 PUSH1 0xE0 SHL DUP2 MSTORE PUSH1 0xFF DUP1 DUP9 AND PUSH1 0x4 DUP4 ADD MSTORE DUP7 AND PUSH1 0x24 DUP3 ADD MSTORE DUP7 SWAP2 DUP7 SWAP2 CALLER SWAP2 PUSH1 0x1 PUSH1 0x1 PUSH1 0xA0 SHL SUB AND SWAP1 PUSH4 0x8A888953 SWAP1 PUSH1 0x44 ADD PUSH1 0x20 PUSH1 0x40 MLOAD DUP1 DUP4 SUB DUP2 DUP7 GAS STATICCALL ISZERO DUP1 ISZERO PUSH2 0x3107 JUMPI RETURNDATASIZE PUSH1 0x0 DUP1 RETURNDATACOPY RETURNDATASIZE PUSH1 0x0 REVERT JUMPDEST POP POP POP POP PUSH1 0x40 MLOAD RETURNDATASIZE PUSH1 0x1F NOT PUSH1 0x1F DUP3 ADD AND DUP3 ADD DUP1 PUSH1 0x40 MSTORE POP DUP2 ADD SWAP1 PUSH2 0x312B SWAP2 SWAP1 PUSH2 0x5B5E JUMP JUMPDEST PUSH1 0x1 PUSH1 0x1 PUSH1 0xA0 SHL SUB AND EQ PUSH2 0x3151 JUMPI PUSH1 0x40 MLOAD PUSH3 0x7BBA63 PUSH1 0xE0 SHL DUP2 MSTORE PUSH1 0x4 ADD PUSH1 0x40 MLOAD DUP1 SWAP2 SUB SWAP1 REVERT JUMPDEST PUSH1 0x1 SLOAD PUSH1 0x40 MLOAD PUSH32 0x4855735C00000000000000000000000000000000000000000000000000000000 DUP2 MSTORE PUSH1 0xFF DUP1 DUP11 AND PUSH1 0x4 DUP4 ADD MSTORE DUP9 AND PUSH1 0x24 DUP3 ADD MSTORE PUSH1 0x1 PUSH1 0x1 PUSH1 0xA0 SHL SUB SWAP1 SWAP2 AND SWAP1 PUSH4 0x4855735C SWAP1 PUSH1 0x44 ADD PUSH1 0x20 PUSH1 0x40 MLOAD DUP1 DUP4 SUB DUP2 DUP7 GAS STATICCALL ISZERO DUP1 ISZERO PUSH2 0x31BD JUMPI RETURNDATASIZE PUSH1 0x0 DUP1 RETURNDATACOPY RETURNDATASIZE PUSH1 0x0 REVERT JUMPDEST POP POP POP POP PUSH1 0x40 MLOAD RETURNDATASIZE PUSH1 0x1F NOT PUSH1 0x1F DUP3 ADD AND DUP3 ADD DUP1 PUSH1 0x40 MSTORE POP DUP2 ADD SWAP1 PUSH2 0x31E1 SWAP2 SWAP1 PUSH2 0x5C53 JUMP JUMPDEST PUSH2 0x322D JUMPI PUSH1 0x40 MLOAD PUSH3 0x461BCD PUSH1 0xE5 SHL DUP2 MSTORE PUSH1 0x20 PUSH1 0x4 DUP3 ADD MSTORE PUSH1 0x1 PUSH1 0x24 DUP3 ADD MSTORE PUSH32 0x6D00000000000000000000000000000000000000000000000000000000000000 PUSH1 0x44 DUP3 ADD MSTORE PUSH1 0x64 ADD PUSH2 0xCA0 JUMP JUMPDEST PUSH3 0x989680 DUP4 LT ISZERO DUP1 ISZERO PUSH2 0x3246 JUMPI POP PUSH6 0x9184E72A000 DUP4 GT ISZERO JUMPDEST PUSH2 0x3292 JUMPI PUSH1 0x40 MLOAD PUSH3 0x461BCD PUSH1 0xE5 SHL DUP2 MSTORE PUSH1 0x20 PUSH1 0x4 DUP3 ADD MSTORE PUSH1 0x1 PUSH1 0x24 DUP3 ADD MSTORE PUSH32 0x7000000000000000000000000000000000000000000000000000000000000000 PUSH1 0x44 DUP3 ADD MSTORE PUSH1 0x64 ADD PUSH2 0xCA0 JUMP JUMPDEST PUSH1 0x1 DUP6 PUSH1 0xFF AND LT ISZERO DUP1 ISZERO PUSH2 0x32AA JUMPI POP PUSH1 0x8 DUP6 PUSH1 0xFF AND GT ISZERO JUMPDEST PUSH2 0x32DA JUMPI PUSH1 0x40 MLOAD PUSH3 0x461BCD PUSH1 0xE5 SHL DUP2 MSTORE PUSH1 0x20 PUSH1 0x4 DUP3 ADD MSTORE PUSH1 0x1 PUSH1 0x24 DUP3 ADD MSTORE PUSH1 0x1D PUSH1 0xFA SHL PUSH1 0x44 DUP3 ADD MSTORE PUSH1 0x64 ADD PUSH2 0xCA0 JUMP JUMPDEST PUSH1 0x4 DUP6 PUSH1 0xFF AND GT PUSH2 0x334C JUMPI PUSH2 0x2710 DUP5 LT ISZERO DUP1 ISZERO PUSH2 0x32FB JUMPI POP PUSH4 0x5F5E100 DUP5 GT ISZERO JUMPDEST PUSH2 0x3347 JUMPI PUSH1 0x40 MLOAD PUSH3 0x461BCD PUSH1 0xE5 SHL DUP2 MSTORE PUSH1 0x20 PUSH1 0x4 DUP3 ADD MSTORE PUSH1 0x1 PUSH1 0x24 DUP3 ADD MSTORE PUSH32 0x6100000000000000000000000000000000000000000000000000000000000000 PUSH1 0x44 DUP3 ADD MSTORE PUSH1 0x64 ADD PUSH2 0xCA0 JUMP JUMPDEST PUSH2 0x33AB JUMP JUMPDEST PUSH1 0x64 DUP5 LT ISZERO DUP1 ISZERO PUSH2 0x335F JUMPI POP PUSH2 0x2710 DUP5 GT ISZERO JUMPDEST PUSH2 0x33AB JUMPI PUSH1 0x40 MLOAD PUSH3 0x461BCD PUSH1 0xE5 SHL DUP2 MSTORE PUSH1 0x20 PUSH1 0x4 DUP3 ADD MSTORE PUSH1 0x1 PUSH1 0x24 DUP3 ADD MSTORE PUSH32 0x6100000000000000000000000000000000000000000000000000000000000000 PUSH1 0x44 DUP3 ADD MSTORE PUSH1 0x64 ADD PUSH2 0xCA0 JUMP JUMPDEST PUSH2 0x33B5 DUP8 DUP8 PUSH2 0x4E87 JUMP JUMPDEST PUSH1 0x1 SLOAD PUSH1 0x40 MLOAD PUSH4 0x3E5F2857 PUSH1 0xE0 SHL DUP2 MSTORE PUSH1 0xFF DUP1 DUP11 AND PUSH1 0x4 DUP4 ADD MSTORE DUP1 DUP10 AND PUSH1 0x24 DUP4 ADD MSTORE DUP8 AND PUSH1 0x44 DUP3 ADD MSTORE PUSH1 0x64 DUP2 ADD DUP7 SWAP1 MSTORE PUSH1 0x0 PUSH1 0x84 DUP3 ADD MSTORE PUSH1 0x1 PUSH1 0x1 PUSH1 0xA0 SHL SUB SWAP1 SWAP2 AND SWAP1 PUSH4 0x3E5F2857 SWAP1 PUSH1 0xA4 ADD PUSH1 0x0 PUSH1 0x40 MLOAD DUP1 DUP4 SUB DUP2 PUSH1 0x0 DUP8 DUP1 EXTCODESIZE ISZERO DUP1 ISZERO PUSH2 0x341B JUMPI PUSH1 0x0 DUP1 REVERT JUMPDEST POP GAS CALL ISZERO DUP1 ISZERO PUSH2 0x342F JUMPI RETURNDATASIZE PUSH1 0x0 DUP1 RETURNDATACOPY RETURNDATASIZE PUSH1 0x0 REVERT JUMPDEST POP POP POP POP PUSH1 0x0 PUSH1 0xA DUP5 PUSH2 0x3442 SWAP2 SWAP1 PUSH2 0x5C18 JUMP JUMPDEST PUSH2 0x344C SWAP1 DUP6 PUSH2 0x5AE1 JUMP JUMPDEST PUSH1 0xFF DUP1 DUP9 AND PUSH1 0x0 DUP2 DUP2 MSTORE PUSH1 0x7 PUSH1 0x20 SWAP1 DUP2 MSTORE PUSH1 0x40 DUP1 DUP4 KECCAK256 DUP2 MLOAD PUSH1 0xA0 DUP2 ADD DUP4 MSTORE DUP16 DUP8 AND DUP2 MSTORE DUP15 DUP8 AND DUP2 DUP6 ADD SWAP1 DUP2 MSTORE SWAP3 DUP2 ADD SWAP6 DUP7 MSTORE PUSH1 0x60 DUP2 ADD DUP14 DUP2 MSTORE PUSH1 0x80 DUP3 ADD SWAP9 DUP10 MSTORE DUP3 SLOAD PUSH1 0x1 DUP2 DUP2 ADD DUP6 SSTORE SWAP4 DUP8 MSTORE SWAP5 SWAP1 SWAP6 KECCAK256 SWAP1 MLOAD PUSH1 0x3 SWAP1 SWAP5 MUL ADD DUP1 SLOAD SWAP3 MLOAD SWAP6 MLOAD DUP8 AND PUSH3 0x10000 MUL PUSH3 0xFF0000 NOT SWAP7 DUP9 AND PUSH2 0x100 MUL PUSH2 0xFFFF NOT SWAP1 SWAP5 AND SWAP5 SWAP1 SWAP8 AND SWAP4 SWAP1 SWAP4 OR SWAP2 SWAP1 SWAP2 OR SWAP4 SWAP1 SWAP4 AND SWAP4 SWAP1 SWAP4 OR DUP4 SSTORE MLOAD SWAP1 DUP3 ADD SSTORE SWAP1 MLOAD PUSH1 0x2 SWAP1 SWAP2 ADD SSTORE POP PUSH2 0x34F4 SWAP2 POP PUSH2 0x37C4 SWAP1 POP JUMP JUMPDEST POP POP POP POP POP JUMP JUMPDEST PUSH1 0x3 SLOAD PUSH1 0x40 MLOAD PUSH4 0x8A888953 PUSH1 0xE0 SHL DUP2 MSTORE PUSH1 0xFF DUP1 DUP7 AND PUSH1 0x4 DUP4 ADD MSTORE DUP5 AND PUSH1 0x24 DUP3 ADD MSTORE PUSH1 0x60 SWAP2 DUP6 SWAP2 DUP6 SWAP2 CALLER SWAP2 PUSH1 0x1 PUSH1 0x1 PUSH1 0xA0 SHL SUB SWAP1 SWAP2 AND SWAP1 PUSH4 0x8A888953 SWAP1 PUSH1 0x44 ADD PUSH1 0x20 PUSH1 0x40 MLOAD DUP1 DUP4 SUB DUP2 DUP7 GAS STATICCALL ISZERO DUP1 ISZERO PUSH2 0x3557 JUMPI RETURNDATASIZE PUSH1 0x0 DUP1 RETURNDATACOPY RETURNDATASIZE PUSH1 0x0 REVERT JUMPDEST POP POP POP POP PUSH1 0x40 MLOAD RETURNDATASIZE PUSH1 0x1F NOT PUSH1 0x1F DUP3 ADD AND DUP3 ADD DUP1 PUSH1 0x40 MSTORE POP DUP2 ADD SWAP1 PUSH2 0x357B SWAP2 SWAP1 PUSH2 0x5B5E JUMP JUMPDEST PUSH1 0x1 PUSH1 0x1 PUSH1 0xA0 SHL SUB AND EQ PUSH2 0x35A1 JUMPI PUSH1 0x40 MLOAD PUSH3 0x7BBA63 PUSH1 0xE0 SHL DUP2 MSTORE PUSH1 0x4 ADD PUSH1 0x40 MLOAD DUP1 SWAP2 SUB SWAP1 REVERT JUMPDEST PUSH1 0x1 DUP5 PUSH1 0xFF AND LT ISZERO DUP1 ISZERO PUSH2 0x35B9 JUMPI POP PUSH1 0x8 DUP5 PUSH1 0xFF AND GT ISZERO JUMPDEST PUSH2 0x35E9 JUMPI PUSH1 0x40 MLOAD PUSH3 0x461BCD PUSH1 0xE5 SHL DUP2 MSTORE PUSH1 0x20 PUSH1 0x4 DUP3 ADD MSTORE PUSH1 0x1 PUSH1 0x24 DUP3 ADD MSTORE PUSH1 0x1D PUSH1 0xFA SHL PUSH1 0x44 DUP3 ADD MSTORE PUSH1 0x64 ADD PUSH2 0xCA0 JUMP JUMPDEST PUSH1 0x1 SLOAD PUSH1 0x40 MLOAD PUSH32 0x4855735C00000000000000000000000000000000000000000000000000000000 DUP2 MSTORE PUSH1 0xFF DUP1 DUP10 AND PUSH1 0x4 DUP4 ADD MSTORE DUP8 AND PUSH1 0x24 DUP3 ADD MSTORE PUSH1 0x1 PUSH1 0x1 PUSH1 0xA0 SHL SUB SWAP1 SWAP2 AND SWAP1 PUSH4 0x4855735C SWAP1 PUSH1 0x44 ADD PUSH1 0x20 PUSH1 0x40 MLOAD DUP1 DUP4 SUB DUP2 DUP7 GAS STATICCALL ISZERO DUP1 ISZERO PUSH2 0x3655 JUMPI RETURNDATASIZE PUSH1 0x0 DUP1 RETURNDATACOPY RETURNDATASIZE PUSH1 0x0 REVERT JUMPDEST POP POP POP POP PUSH1 0x40 MLOAD RETURNDATASIZE PUSH1 0x1F NOT PUSH1 0x1F DUP3 ADD AND DUP3 ADD DUP1 PUSH1 0x40 MSTORE POP DUP2 ADD SWAP1 PUSH2 0x3679 SWAP2 SWAP1 PUSH2 0x5C53 JUMP JUMPDEST PUSH2 0x36C5 JUMPI PUSH1 0x40 MLOAD PUSH3 0x461BCD PUSH1 0xE5 SHL DUP2 MSTORE PUSH1 0x20 PUSH1 0x4 DUP3 ADD MSTORE PUSH1 0x1 PUSH1 0x24 DUP3 ADD MSTORE PUSH32 0x6D00000000000000000000000000000000000000000000000000000000000000 PUSH1 0x44 DUP3 ADD MSTORE PUSH1 0x64 ADD PUSH2 0xCA0 JUMP JUMPDEST PUSH1 0xFF DUP5 AND PUSH1 0x0 SWAP1 DUP2 MSTORE PUSH1 0x7 PUSH1 0x20 SWAP1 DUP2 MSTORE PUSH1 0x40 DUP1 DUP4 KECCAK256 DUP1 SLOAD DUP3 MLOAD DUP2 DUP6 MUL DUP2 ADD DUP6 ADD SWAP1 SWAP4 MSTORE DUP1 DUP4 MSTORE SWAP2 SWAP4 SWAP1 SWAP3 DUP5 ADD JUMPDEST DUP3 DUP3 LT ISZERO PUSH2 0x375C JUMPI PUSH1 0x0 DUP5 DUP2 MSTORE PUSH1 0x20 SWAP1 DUP2 SWAP1 KECCAK256 PUSH1 0x40 DUP1 MLOAD PUSH1 0xA0 DUP2 ADD DUP3 MSTORE PUSH1 0x3 DUP7 MUL SWAP1 SWAP3 ADD DUP1 SLOAD PUSH1 0xFF DUP1 DUP3 AND DUP6 MSTORE PUSH2 0x100 DUP3 DIV DUP2 AND DUP6 DUP8 ADD MSTORE PUSH3 0x10000 SWAP1 SWAP2 DIV AND SWAP2 DUP4 ADD SWAP2 SWAP1 SWAP2 MSTORE PUSH1 0x1 DUP1 DUP3 ADD SLOAD PUSH1 0x60 DUP5 ADD MSTORE PUSH1 0x2 SWAP1 SWAP2 ADD SLOAD PUSH1 0x80 DUP4 ADD MSTORE SWAP1 DUP4 MSTORE SWAP1 SWAP3 ADD SWAP2 ADD PUSH2 0x36F2 JUMP JUMPDEST POP POP POP POP SWAP3 POP POP POP SWAP4 SWAP3 POP POP POP JUMP JUMPDEST PUSH1 0x2 PUSH1 0x0 SLOAD SUB PUSH2 0x37BD JUMPI PUSH1 0x40 MLOAD PUSH3 0x461BCD PUSH1 0xE5 SHL DUP2 MSTORE PUSH1 0x20 PUSH1 0x4 DUP3 ADD MSTORE PUSH1 0x1F PUSH1 0x24 DUP3 ADD MSTORE PUSH32 0x5265656E7472616E637947756172643A207265656E7472616E742063616C6C00 PUSH1 0x44 DUP3 ADD MSTORE PUSH1 0x64 ADD PUSH2 0xCA0 JUMP JUMPDEST PUSH1 0x2 PUSH1 0x0 SSTORE JUMP JUMPDEST PUSH1 0x1 PUSH1 0x0 SSTORE JUMP JUMPDEST PUSH1 0xFF DUP3 AND PUSH1 0x0 SWAP1 DUP2 MSTORE PUSH1 0x7 PUSH1 0x20 MSTORE PUSH1 0x40 DUP2 KECCAK256 SLOAD PUSH2 0x37EA SWAP1 PUSH1 0x1 SWAP1 PUSH2 0x5A3F JUMP JUMPDEST SWAP1 POP DUP1 DUP3 EQ PUSH2 0x38BB JUMPI PUSH1 0xFF DUP4 AND PUSH1 0x0 SWAP1 DUP2 MSTORE PUSH1 0x7 PUSH1 0x20 MSTORE PUSH1 0x40 SWAP1 KECCAK256 DUP1 SLOAD DUP3 SWAP1 DUP2 LT PUSH2 0x3817 JUMPI PUSH2 0x3817 PUSH2 0x5A52 JUMP JUMPDEST SWAP1 PUSH1 0x0 MSTORE PUSH1 0x20 PUSH1 0x0 KECCAK256 SWAP1 PUSH1 0x3 MUL ADD PUSH1 0x7 PUSH1 0x0 DUP6 PUSH1 0xFF AND PUSH1 0xFF AND DUP2 MSTORE PUSH1 0x20 ADD SWAP1 DUP2 MSTORE PUSH1 0x20 ADD PUSH1 0x0 KECCAK256 DUP4 DUP2 SLOAD DUP2 LT PUSH2 0x384F JUMPI PUSH2 0x384F PUSH2 0x5A52 JUMP JUMPDEST PUSH1 0x0 SWAP2 DUP3 MSTORE PUSH1 0x20 SWAP1 SWAP2 KECCAK256 DUP3 SLOAD PUSH1 0x3 SWAP1 SWAP3 MUL ADD DUP1 SLOAD PUSH1 0xFF SWAP3 DUP4 AND PUSH1 0xFF NOT DUP3 AND DUP2 OR DUP4 SSTORE DUP5 SLOAD PUSH2 0xFFFF NOT SWAP1 SWAP3 AND OR PUSH2 0x100 SWAP2 DUP3 SWAP1 DIV DUP5 AND SWAP1 SWAP2 MUL OR DUP1 DUP3 SSTORE DUP4 SLOAD PUSH3 0xFF0000 NOT SWAP1 SWAP2 AND PUSH3 0x10000 SWAP2 DUP3 SWAP1 DIV SWAP1 SWAP4 AND MUL SWAP2 SWAP1 SWAP2 OR DUP2 SSTORE PUSH1 0x1 DUP1 DUP4 ADD SLOAD SWAP1 DUP3 ADD SSTORE PUSH1 0x2 SWAP2 DUP3 ADD SLOAD SWAP2 ADD SSTORE JUMPDEST PUSH1 0xFF DUP4 AND PUSH1 0x0 SWAP1 DUP2 MSTORE PUSH1 0x7 PUSH1 0x20 MSTORE PUSH1 0x40 SWAP1 KECCAK256 DUP1 SLOAD DUP1 PUSH2 0x38DC JUMPI PUSH2 0x38DC PUSH2 0x5D8C JUMP JUMPDEST PUSH1 0x0 DUP3 DUP2 MSTORE PUSH1 0x20 DUP2 KECCAK256 PUSH1 0x3 PUSH1 0x0 NOT SWAP1 SWAP4 ADD SWAP3 DUP4 MUL ADD DUP1 SLOAD PUSH32 0xFFFFFFFFFFFFFFFFFFFFFFFFFFFFFFFFFFFFFFFFFFFFFFFFFFFFFFFFFF000000 AND DUP2 SSTORE PUSH1 0x1 DUP2 ADD DUP3 SWAP1 SSTORE PUSH1 0x2 ADD SSTORE SWAP1 SSTORE POP POP POP JUMP JUMPDEST PUSH1 0xFF DUP2 DUP2 AND PUSH1 0x8 DUP5 SWAP1 SHL PUSH2 0xFF00 AND OR PUSH1 0x0 DUP2 DUP2 MSTORE PUSH1 0x6 PUSH1 0x20 MSTORE PUSH1 0x40 SWAP1 KECCAK256 SLOAD SWAP1 SWAP2 AND ISZERO PUSH2 0x3979 JUMPI PUSH2 0xFFFF DUP2 AND PUSH1 0x0 SWAP1 DUP2 MSTORE PUSH1 0x6 PUSH1 0x20 MSTORE PUSH1 0x40 SWAP1 KECCAK256 DUP1 SLOAD PUSH1 0xFF NOT DUP2 AND PUSH1 0xFF SWAP2 DUP3 AND PUSH1 0x0 NOT ADD SWAP1 SWAP2 AND OR SWAP1 SSTORE JUMPDEST POP POP POP JUMP JUMPDEST PUSH1 0x0 DUP2 PUSH1 0xFF AND DUP4 PUSH1 0xFF AND GT PUSH2 0x399C JUMPI PUSH2 0x3997 DUP4 DUP4 PUSH2 0x5DBB JUMP JUMPDEST PUSH2 0x39A6 JUMP JUMPDEST PUSH2 0x39A6 DUP3 DUP5 PUSH2 0x5DBB JUMP JUMPDEST SWAP1 POP JUMPDEST SWAP3 SWAP2 POP POP JUMP JUMPDEST DUP2 PUSH1 0x1 PUSH1 0x1 PUSH1 0xA0 SHL SUB AND DUP2 PUSH1 0x1 PUSH1 0x1 PUSH1 0xA0 SHL SUB AND SUB PUSH2 0x3A10 JUMPI PUSH1 0x40 MLOAD PUSH3 0x461BCD PUSH1 0xE5 SHL DUP2 MSTORE PUSH1 0x20 PUSH1 0x4 DUP3 ADD MSTORE PUSH1 0x1 PUSH1 0x24 DUP3 ADD MSTORE PUSH32 0x7900000000000000000000000000000000000000000000000000000000000000 PUSH1 0x44 DUP3 ADD MSTORE PUSH1 0x64 ADD PUSH2 0xCA0 JUMP JUMPDEST PUSH1 0x4 DUP1 SLOAD PUSH1 0x40 MLOAD PUSH32 0x7AB9E7FE00000000000000000000000000000000000000000000000000000000 DUP2 MSTORE PUSH1 0xFF DUP1 DUP11 AND SWAP4 DUP3 ADD SWAP4 SWAP1 SWAP4 MSTORE SWAP2 DUP8 AND PUSH1 0x24 DUP4 ADD MSTORE PUSH1 0x0 SWAP2 PUSH1 0x1 PUSH1 0x1 PUSH1 0xA0 SHL SUB SWAP1 SWAP2 AND SWAP1 PUSH4 0x7AB9E7FE SWAP1 PUSH1 0x44 ADD PUSH1 0x20 PUSH1 0x40 MLOAD DUP1 DUP4 SUB DUP2 DUP7 GAS STATICCALL ISZERO DUP1 ISZERO PUSH2 0x3A83 JUMPI RETURNDATASIZE PUSH1 0x0 DUP1 RETURNDATACOPY RETURNDATASIZE PUSH1 0x0 REVERT JUMPDEST POP POP POP POP PUSH1 0x40 MLOAD RETURNDATASIZE PUSH1 0x1F NOT PUSH1 0x1F DUP3 ADD AND DUP3 ADD DUP1 PUSH1 0x40 MSTORE POP DUP2 ADD SWAP1 PUSH2 0x3AA7 SWAP2 SWAP1 PUSH2 0x5DD4 JUMP JUMPDEST PUSH1 0x4 DUP1 SLOAD PUSH1 0x40 MLOAD PUSH32 0x7AB9E7FE00000000000000000000000000000000000000000000000000000000 DUP2 MSTORE PUSH1 0xFF DUP1 DUP11 AND SWAP4 DUP3 ADD SWAP4 SWAP1 SWAP4 MSTORE SWAP2 DUP8 AND PUSH1 0x24 DUP4 ADD MSTORE SWAP2 SWAP3 POP PUSH1 0x0 SWAP2 PUSH1 0x1 PUSH1 0x1 PUSH1 0xA0 SHL SUB AND SWAP1 PUSH4 0x7AB9E7FE SWAP1 PUSH1 0x44 ADD PUSH1 0x20 PUSH1 0x40 MLOAD DUP1 DUP4 SUB DUP2 DUP7 GAS STATICCALL ISZERO DUP1 ISZERO PUSH2 0x3B1B JUMPI RETURNDATASIZE PUSH1 0x0 DUP1 RETURNDATACOPY RETURNDATASIZE PUSH1 0x0 REVERT JUMPDEST POP POP POP POP PUSH1 0x40 MLOAD RETURNDATASIZE PUSH1 0x1F NOT PUSH1 0x1F DUP3 ADD AND DUP3 ADD DUP1 PUSH1 0x40 MSTORE POP DUP2 ADD SWAP1 PUSH2 0x3B3F SWAP2 SWAP1 PUSH2 0x5DD4 JUMP JUMPDEST SWAP1 POP PUSH2 0xFFFF DUP3 AND ISZERO DUP1 PUSH2 0x3B54 JUMPI POP PUSH2 0xFFFF DUP2 AND ISZERO JUMPDEST DUP1 PUSH2 0x3B67 JUMPI POP DUP1 PUSH2 0xFFFF AND DUP3 PUSH2 0xFFFF AND EQ ISZERO JUMPDEST PUSH2 0x3BB3 JUMPI PUSH1 0x40 MLOAD PUSH3 0x461BCD PUSH1 0xE5 SHL DUP2 MSTORE PUSH1 0x20 PUSH1 0x4 DUP3 ADD MSTORE PUSH1 0x1 PUSH1 0x24 DUP3 ADD MSTORE PUSH32 0x6300000000000000000000000000000000000000000000000000000000000000 PUSH1 0x44 DUP3 ADD MSTORE PUSH1 0x64 ADD PUSH2 0xCA0 JUMP JUMPDEST PUSH1 0x0 PUSH2 0x3BBF DUP9 DUP8 PUSH2 0x397E JUMP JUMPDEST PUSH2 0x3BC9 DUP11 DUP10 PUSH2 0x397E JUMP JUMPDEST PUSH2 0x3BD3 SWAP2 SWAP1 PUSH2 0x5C6E JUMP JUMPDEST SWAP1 POP PUSH1 0x0 DUP2 PUSH1 0xFF AND GT DUP1 ISZERO PUSH2 0x3BEC JUMPI POP PUSH1 0x26 DUP2 PUSH1 0xFF AND GT ISZERO JUMPDEST PUSH2 0x3C3A JUMPI PUSH1 0x40 MLOAD PUSH3 0x461BCD PUSH1 0xE5 SHL DUP2 MSTORE PUSH1 0x4 ADD PUSH2 0xCA0 SWAP1 PUSH1 0x20 DUP1 DUP3 MSTORE PUSH1 0x4 SWAP1 DUP3 ADD MSTORE PUSH32 0x2066617200000000000000000000000000000000000000000000000000000000 PUSH1 0x40 DUP3 ADD MSTORE PUSH1 0x60 ADD SWAP1 JUMP JUMPDEST PUSH1 0xFF DUP1 DUP11 AND PUSH1 0x0 SWAP1 DUP2 MSTORE PUSH1 0x8 PUSH1 0x20 SWAP1 DUP2 MSTORE PUSH1 0x40 DUP1 DUP4 KECCAK256 SWAP4 DUP13 AND DUP4 MSTORE SWAP3 SWAP1 MSTORE KECCAK256 SLOAD PUSH2 0x3C65 SWAP1 PUSH1 0x96 PUSH2 0x5AE1 JUMP JUMPDEST PUSH1 0x1 SLOAD PUSH1 0x40 MLOAD PUSH32 0x41EDE44F00000000000000000000000000000000000000000000000000000000 DUP2 MSTORE PUSH1 0xFF DUP1 DUP14 AND PUSH1 0x4 DUP4 ADD MSTORE DUP12 AND PUSH1 0x24 DUP3 ADD MSTORE PUSH1 0x1 PUSH1 0x1 PUSH1 0xA0 SHL SUB SWAP1 SWAP2 AND SWAP1 PUSH4 0x41EDE44F SWAP1 PUSH1 0x44 ADD PUSH1 0x20 PUSH1 0x40 MLOAD DUP1 DUP4 SUB DUP2 DUP7 GAS STATICCALL ISZERO DUP1 ISZERO PUSH2 0x3CD1 JUMPI RETURNDATASIZE PUSH1 0x0 DUP1 RETURNDATACOPY RETURNDATASIZE PUSH1 0x0 REVERT JUMPDEST POP POP POP POP PUSH1 0x40 MLOAD RETURNDATASIZE PUSH1 0x1F NOT PUSH1 0x1F DUP3 ADD AND DUP3 ADD DUP1 PUSH1 0x40 MSTORE POP DUP2 ADD SWAP1 PUSH2 0x3CF5 SWAP2 SWAP1 PUSH2 0x5B79 JUMP JUMPDEST LT ISZERO PUSH2 0x3D27 JUMPI PUSH1 0x40 MLOAD PUSH3 0x461BCD PUSH1 0xE5 SHL DUP2 MSTORE PUSH1 0x20 PUSH1 0x4 DUP3 ADD MSTORE PUSH1 0x1 PUSH1 0x24 DUP3 ADD MSTORE PUSH1 0x1D PUSH1 0xFA SHL PUSH1 0x44 DUP3 ADD MSTORE PUSH1 0x64 ADD PUSH2 0xCA0 JUMP JUMPDEST PUSH1 0xFF DUP1 DUP9 AND PUSH1 0x0 SWAP1 DUP2 MSTORE PUSH1 0x9 PUSH1 0x20 SWAP1 DUP2 MSTORE PUSH1 0x40 DUP1 DUP4 KECCAK256 SWAP4 DUP11 AND DUP4 MSTORE SWAP3 SWAP1 MSTORE KECCAK256 SLOAD PUSH2 0x3D53 SWAP1 PUSH2 0x12C PUSH2 0x5AE1 JUMP JUMPDEST PUSH1 0x1 SLOAD PUSH1 0x40 MLOAD PUSH32 0x41EDE44F00000000000000000000000000000000000000000000000000000000 DUP2 MSTORE PUSH1 0xFF DUP1 DUP12 AND PUSH1 0x4 DUP4 ADD MSTORE DUP10 AND PUSH1 0x24 DUP3 ADD MSTORE PUSH1 0x1 PUSH1 0x1 PUSH1 0xA0 SHL SUB SWAP1 SWAP2 AND SWAP1 PUSH4 0x41EDE44F SWAP1 PUSH1 0x44 ADD PUSH1 0x20 PUSH1 0x40 MLOAD DUP1 DUP4 SUB DUP2 DUP7 GAS STATICCALL ISZERO DUP1 ISZERO PUSH2 0x3DBF JUMPI RETURNDATASIZE PUSH1 0x0 DUP1 RETURNDATACOPY RETURNDATASIZE PUSH1 0x0 REVERT JUMPDEST POP POP POP POP PUSH1 0x40 MLOAD RETURNDATASIZE PUSH1 0x1F NOT PUSH1 0x1F DUP3 ADD AND DUP3 ADD DUP1 PUSH1 0x40 MSTORE POP DUP2 ADD SWAP1 PUSH2 0x3DE3 SWAP2 SWAP1 PUSH2 0x5B79 JUMP JUMPDEST LT ISZERO PUSH2 0x3E31 JUMPI PUSH1 0x40 MLOAD PUSH3 0x461BCD PUSH1 0xE5 SHL DUP2 MSTORE PUSH1 0x20 PUSH1 0x4 DUP3 ADD MSTORE PUSH1 0x2 PUSH1 0x24 DUP3 ADD MSTORE PUSH32 0x6463000000000000000000000000000000000000000000000000000000000000 PUSH1 0x44 DUP3 ADD MSTORE PUSH1 0x64 ADD PUSH2 0xCA0 JUMP JUMPDEST POP POP POP POP POP POP POP POP POP JUMP JUMPDEST PUSH1 0x0 DUP2 PUSH2 0x160 ADD MLOAD DUP3 PUSH2 0x140 ADD MLOAD PUSH2 0x3E54 SWAP2 SWAP1 PUSH2 0x5AE1 JUMP JUMPDEST PUSH2 0x3E62 PUSH1 0xFF DUP6 AND PUSH1 0xA PUSH2 0x5C01 JUMP JUMPDEST PUSH2 0x3E6C SWAP2 SWAP1 PUSH2 0x5C01 JUMP JUMPDEST PUSH1 0x1 DUP1 SLOAD SWAP2 SWAP3 POP PUSH1 0x1 PUSH1 0x1 PUSH1 0xA0 SHL SUB SWAP1 SWAP2 AND SWAP1 PUSH4 0x3E5F2857 SWAP1 DUP8 SWAP1 DUP8 SWAP1 PUSH1 0x64 PUSH2 0x3E96 DUP8 PUSH1 0x28 PUSH2 0x5C01 JUMP JUMPDEST PUSH2 0x3EA0 SWAP2 SWAP1 PUSH2 0x5C18 JUMP JUMPDEST PUSH1 0x40 MLOAD PUSH32 0xFFFFFFFF00000000000000000000000000000000000000000000000000000000 PUSH1 0xE0 DUP8 SWAP1 SHL AND DUP2 MSTORE PUSH1 0xFF SWAP5 DUP6 AND PUSH1 0x4 DUP3 ADD MSTORE SWAP3 DUP5 AND PUSH1 0x24 DUP5 ADD MSTORE SWAP3 AND PUSH1 0x44 DUP3 ADD MSTORE PUSH1 0x64 DUP2 ADD SWAP2 SWAP1 SWAP2 MSTORE PUSH1 0x0 PUSH1 0x84 DUP3 ADD MSTORE PUSH1 0xA4 ADD PUSH1 0x0 PUSH1 0x40 MLOAD DUP1 DUP4 SUB DUP2 PUSH1 0x0 DUP8 DUP1 EXTCODESIZE ISZERO DUP1 ISZERO PUSH2 0x3F11 JUMPI PUSH1 0x0 DUP1 REVERT JUMPDEST POP GAS CALL ISZERO DUP1 ISZERO PUSH2 0x3F25 JUMPI RETURNDATASIZE PUSH1 0x0 DUP1 RETURNDATACOPY RETURNDATASIZE PUSH1 0x0 REVERT JUMPDEST POP POP PUSH1 0x1 SLOAD PUSH1 0x1 PUSH1 0x1 PUSH1 0xA0 SHL SUB AND SWAP2 POP PUSH4 0x3E5F2857 SWAP1 POP DUP7 DUP7 PUSH1 0x2 PUSH1 0x64 PUSH2 0x3F4D DUP8 PUSH1 0x1E PUSH2 0x5C01 JUMP JUMPDEST PUSH2 0x3F57 SWAP2 SWAP1 PUSH2 0x5C18 JUMP JUMPDEST PUSH1 0x40 MLOAD PUSH32 0xFFFFFFFF00000000000000000000000000000000000000000000000000000000 PUSH1 0xE0 DUP8 SWAP1 SHL AND DUP2 MSTORE PUSH1 0xFF SWAP5 DUP6 AND PUSH1 0x4 DUP3 ADD MSTORE SWAP3 DUP5 AND PUSH1 0x24 DUP5 ADD MSTORE SWAP3 AND PUSH1 0x44 DUP3 ADD MSTORE PUSH1 0x64 DUP2 ADD SWAP2 SWAP1 SWAP2 MSTORE PUSH1 0x0 PUSH1 0x84 DUP3 ADD MSTORE PUSH1 0xA4 ADD PUSH1 0x0 PUSH1 0x40 MLOAD DUP1 DUP4 SUB DUP2 PUSH1 0x0 DUP8 DUP1 EXTCODESIZE ISZERO DUP1 ISZERO PUSH2 0x3FC8 JUMPI PUSH1 0x0 DUP1 REVERT JUMPDEST POP GAS CALL ISZERO DUP1 ISZERO PUSH2 0x3FDC JUMPI RETURNDATASIZE PUSH1 0x0 DUP1 RETURNDATACOPY RETURNDATASIZE PUSH1 0x0 REVERT JUMPDEST POP POP PUSH1 0x1 SLOAD PUSH1 0x1 PUSH1 0x1 PUSH1 0xA0 SHL SUB AND SWAP2 POP PUSH4 0x3E5F2857 SWAP1 POP DUP7 DUP7 PUSH1 0x3 PUSH1 0x64 PUSH2 0x4004 DUP8 PUSH1 0x14 PUSH2 0x5C01 JUMP JUMPDEST PUSH2 0x400E SWAP2 SWAP1 PUSH2 0x5C18 JUMP JUMPDEST PUSH1 0x40 MLOAD PUSH32 0xFFFFFFFF00000000000000000000000000000000000000000000000000000000 PUSH1 0xE0 DUP8 SWAP1 SHL AND DUP2 MSTORE PUSH1 0xFF SWAP5 DUP6 AND PUSH1 0x4 DUP3 ADD MSTORE SWAP3 DUP5 AND PUSH1 0x24 DUP5 ADD MSTORE SWAP3 AND PUSH1 0x44 DUP3 ADD MSTORE PUSH1 0x64 DUP2 ADD SWAP2 SWAP1 SWAP2 MSTORE PUSH1 0x0 PUSH1 0x84 DUP3 ADD MSTORE PUSH1 0xA4 ADD PUSH1 0x0 PUSH1 0x40 MLOAD DUP1 DUP4 SUB DUP2 PUSH1 0x0 DUP8 DUP1 EXTCODESIZE ISZERO DUP1 ISZERO PUSH2 0x407F JUMPI PUSH1 0x0 DUP1 REVERT JUMPDEST POP GAS CALL ISZERO DUP1 ISZERO PUSH2 0x4093 JUMPI RETURNDATASIZE PUSH1 0x0 DUP1 RETURNDATACOPY RETURNDATASIZE PUSH1 0x0 REVERT JUMPDEST POP POP PUSH1 0x1 SLOAD PUSH1 0x1 PUSH1 0x1 PUSH1 0xA0 SHL SUB AND SWAP2 POP PUSH4 0x3E5F2857 SWAP1 POP DUP7 DUP7 PUSH1 0x4 PUSH1 0x64 PUSH2 0x40BB DUP8 PUSH1 0xA PUSH2 0x5C01 JUMP JUMPDEST PUSH2 0x40C5 SWAP2 SWAP1 PUSH2 0x5C18 JUMP JUMPDEST PUSH1 0x40 MLOAD PUSH32 0xFFFFFFFF00000000000000000000000000000000000000000000000000000000 PUSH1 0xE0 DUP8 SWAP1 SHL AND DUP2 MSTORE PUSH1 0xFF SWAP5 DUP6 AND PUSH1 0x4 DUP3 ADD MSTORE SWAP3 DUP5 AND PUSH1 0x24 DUP5 ADD MSTORE SWAP3 AND PUSH1 0x44 DUP3 ADD MSTORE PUSH1 0x64 DUP2 ADD SWAP2 SWAP1 SWAP2 MSTORE PUSH1 0x0 PUSH1 0x84 DUP3 ADD MSTORE PUSH1 0xA4 ADD PUSH1 0x0 PUSH1 0x40 MLOAD DUP1 DUP4 SUB DUP2 PUSH1 0x0 DUP8 DUP1 EXTCODESIZE ISZERO DUP1 ISZERO PUSH2 0x4136 JUMPI PUSH1 0x0 DUP1 REVERT JUMPDEST POP GAS CALL ISZERO DUP1 ISZERO PUSH2 0x3E31 JUMPI RETURNDATASIZE PUSH1 0x0 DUP1 RETURNDATACOPY RETURNDATASIZE PUSH1 0x0 REVERT JUMPDEST PUSH1 0x1 SLOAD PUSH1 0x40 MLOAD PUSH32 0x2A490AE800000000000000000000000000000000000000000000000000000000 DUP2 MSTORE PUSH1 0xFF DUP1 DUP6 AND PUSH1 0x4 DUP4 ADD MSTORE DUP4 AND PUSH1 0x24 DUP3 ADD MSTORE PUSH1 0x0 SWAP2 DUP3 SWAP2 DUP3 SWAP2 PUSH1 0x1 PUSH1 0x1 PUSH1 0xA0 SHL SUB AND SWAP1 PUSH4 0x2A490AE8 SWAP1 PUSH1 0x44 ADD PUSH1 0x20 PUSH1 0x40 MLOAD DUP1 DUP4 SUB DUP2 DUP7 GAS STATICCALL ISZERO DUP1 ISZERO PUSH2 0x41BB JUMPI RETURNDATASIZE PUSH1 0x0 DUP1 RETURNDATACOPY RETURNDATASIZE PUSH1 0x0 REVERT JUMPDEST POP POP POP POP PUSH1 0x40 MLOAD RETURNDATASIZE PUSH1 0x1F NOT PUSH1 0x1F DUP3 ADD AND DUP3 ADD DUP1 PUSH1 0x40 MSTORE POP DUP2 ADD SWAP1 PUSH2 0x41DF SWAP2 SWAP1 PUSH2 0x5B79 JUMP JUMPDEST SWAP1 POP PUSH1 0x0 DUP8 PUSH1 0x80 ADD MLOAD PUSH2 0xFFFF AND DUP9 PUSH2 0x180 ADD MLOAD PUSH2 0xFFFF AND DUP10 PUSH2 0x160 ADD MLOAD DUP11 PUSH2 0x140 ADD MLOAD PUSH1 0x2 PUSH2 0x420E SWAP2 SWAP1 PUSH2 0x5C01 JUMP JUMPDEST PUSH2 0x4218 SWAP2 SWAP1 PUSH2 0x5AE1 JUMP JUMPDEST PUSH2 0x4222 SWAP2 SWAP1 PUSH2 0x5AE1 JUMP JUMPDEST PUSH2 0x422C SWAP2 SWAP1 PUSH2 0x5AE1 JUMP JUMPDEST SWAP1 POP PUSH1 0x0 PUSH2 0x423B DUP4 PUSH1 0x64 PUSH2 0x5C01 JUMP JUMPDEST DUP9 PUSH1 0x80 ADD MLOAD PUSH2 0xFFFF AND DUP10 PUSH2 0x1A0 ADD MLOAD PUSH2 0xFFFF AND DUP11 PUSH2 0x160 ADD MLOAD PUSH1 0x2 PUSH2 0x4260 SWAP2 SWAP1 PUSH2 0x5C01 JUMP JUMPDEST DUP12 PUSH2 0x140 ADD MLOAD PUSH2 0x4270 SWAP2 SWAP1 PUSH2 0x5AE1 JUMP JUMPDEST PUSH2 0x427A SWAP2 SWAP1 PUSH2 0x5AE1 JUMP JUMPDEST PUSH2 0x4284 SWAP2 SWAP1 PUSH2 0x5AE1 JUMP JUMPDEST PUSH2 0x428E SWAP2 SWAP1 PUSH2 0x5AE1 JUMP JUMPDEST SWAP2 SWAP10 SWAP2 SWAP9 POP SWAP1 SWAP7 POP POP POP POP POP POP POP JUMP JUMPDEST PUSH2 0x42C9 PUSH1 0x40 MLOAD DUP1 PUSH1 0x80 ADD PUSH1 0x40 MSTORE DUP1 PUSH1 0x0 DUP2 MSTORE PUSH1 0x20 ADD PUSH1 0x0 DUP2 MSTORE PUSH1 0x20 ADD PUSH1 0x0 DUP2 MSTORE PUSH1 0x20 ADD PUSH1 0x0 DUP2 MSTORE POP SWAP1 JUMP JUMPDEST PUSH1 0x0 PUSH2 0x42E7 DUP4 PUSH1 0x80 ADD MLOAD DUP5 PUSH1 0xA0 ADD MLOAD DUP6 PUSH1 0xC0 ADD MLOAD DUP7 PUSH1 0xE0 ADD MLOAD PUSH2 0x4F22 JUMP JUMPDEST DUP1 MLOAD SWAP1 SWAP2 POP ISZERO PUSH2 0x4378 JUMPI PUSH1 0x1 SLOAD DUP4 MLOAD PUSH1 0x20 DUP6 ADD MLOAD DUP4 MLOAD PUSH1 0x40 MLOAD PUSH4 0x3E5F2857 PUSH1 0xE0 SHL DUP2 MSTORE PUSH1 0xFF SWAP4 DUP5 AND PUSH1 0x4 DUP3 ADD MSTORE SWAP3 SWAP1 SWAP2 AND PUSH1 0x24 DUP4 ADD MSTORE PUSH1 0x9 PUSH1 0x44 DUP4 ADD MSTORE PUSH1 0x64 DUP3 ADD MSTORE PUSH1 0x0 PUSH1 0x84 DUP3 ADD MSTORE PUSH1 0x1 PUSH1 0x1 PUSH1 0xA0 SHL SUB SWAP1 SWAP2 AND SWAP1 PUSH4 0x3E5F2857 SWAP1 PUSH1 0xA4 ADD PUSH1 0x0 PUSH1 0x40 MLOAD DUP1 DUP4 SUB DUP2 PUSH1 0x0 DUP8 DUP1 EXTCODESIZE ISZERO DUP1 ISZERO PUSH2 0x435F JUMPI PUSH1 0x0 DUP1 REVERT JUMPDEST POP GAS CALL ISZERO DUP1 ISZERO PUSH2 0x4373 JUMPI RETURNDATASIZE PUSH1 0x0 DUP1 RETURNDATACOPY RETURNDATASIZE PUSH1 0x0 REVERT JUMPDEST POP POP POP POP JUMPDEST PUSH1 0x20 DUP2 ADD MLOAD ISZERO PUSH2 0x440C JUMPI PUSH1 0x1 SLOAD DUP4 MLOAD PUSH1 0x20 DUP1 DUP7 ADD MLOAD SWAP1 DUP5 ADD MLOAD PUSH1 0x40 MLOAD PUSH4 0x3E5F2857 PUSH1 0xE0 SHL DUP2 MSTORE PUSH1 0xFF SWAP4 DUP5 AND PUSH1 0x4 DUP3 ADD MSTORE SWAP3 SWAP1 SWAP2 AND PUSH1 0x24 DUP4 ADD MSTORE PUSH1 0xA PUSH1 0x44 DUP4 ADD MSTORE PUSH1 0x64 DUP3 ADD MSTORE PUSH1 0x0 PUSH1 0x84 DUP3 ADD MSTORE PUSH1 0x1 PUSH1 0x1 PUSH1 0xA0 SHL SUB SWAP1 SWAP2 AND SWAP1 PUSH4 0x3E5F2857 SWAP1 PUSH1 0xA4 ADD PUSH1 0x0 PUSH1 0x40 MLOAD DUP1 DUP4 SUB DUP2 PUSH1 0x0 DUP8 DUP1 EXTCODESIZE ISZERO DUP1 ISZERO PUSH2 0x43F3 JUMPI PUSH1 0x0 DUP1 REVERT JUMPDEST POP GAS CALL ISZERO DUP1 ISZERO PUSH2 0x4407 JUMPI RETURNDATASIZE PUSH1 0x0 DUP1 RETURNDATACOPY RETURNDATASIZE PUSH1 0x0 REVERT JUMPDEST POP POP POP POP JUMPDEST PUSH1 0x40 DUP2 ADD MLOAD ISZERO PUSH2 0x44A3 JUMPI PUSH1 0x1 SLOAD PUSH1 0x40 DUP5 DUP2 ADD MLOAD PUSH1 0x60 DUP7 ADD MLOAD DUP5 DUP4 ADD MLOAD SWAP3 MLOAD PUSH4 0x3E5F2857 PUSH1 0xE0 SHL DUP2 MSTORE PUSH1 0xFF SWAP3 DUP4 AND PUSH1 0x4 DUP3 ADD MSTORE SWAP2 AND PUSH1 0x24 DUP3 ADD MSTORE PUSH1 0x9 PUSH1 0x44 DUP3 ADD MSTORE PUSH1 0x64 DUP2 ADD SWAP2 SWAP1 SWAP2 MSTORE PUSH1 0x0 PUSH1 0x84 DUP3 ADD MSTORE PUSH1 0x1 PUSH1 0x1 PUSH1 0xA0 SHL SUB SWAP1 SWAP2 AND SWAP1 PUSH4 0x3E5F2857 SWAP1 PUSH1 0xA4 ADD PUSH1 0x0 PUSH1 0x40 MLOAD DUP1 DUP4 SUB DUP2 PUSH1 0x0 DUP8 DUP1 EXTCODESIZE ISZERO DUP1 ISZERO PUSH2 0x448A JUMPI PUSH1 0x0 DUP1 REVERT JUMPDEST POP GAS CALL ISZERO DUP1 ISZERO PUSH2 0x449E JUMPI RETURNDATASIZE PUSH1 0x0 DUP1 RETURNDATACOPY RETURNDATASIZE PUSH1 0x0 REVERT JUMPDEST POP POP POP POP JUMPDEST PUSH1 0x60 DUP2 ADD MLOAD ISZERO PUSH2 0x39A9 JUMPI PUSH1 0x1 SLOAD PUSH1 0x40 DUP5 DUP2 ADD MLOAD PUSH1 0x60 DUP1 DUP8 ADD MLOAD SWAP1 DUP6 ADD MLOAD SWAP3 MLOAD PUSH4 0x3E5F2857 PUSH1 0xE0 SHL DUP2 MSTORE PUSH1 0xFF SWAP3 DUP4 AND PUSH1 0x4 DUP3 ADD MSTORE SWAP2 AND PUSH1 0x24 DUP3 ADD MSTORE PUSH1 0xA PUSH1 0x44 DUP3 ADD MSTORE PUSH1 0x64 DUP2 ADD SWAP2 SWAP1 SWAP2 MSTORE PUSH1 0x0 PUSH1 0x84 DUP3 ADD MSTORE PUSH1 0x1 PUSH1 0x1 PUSH1 0xA0 SHL SUB SWAP1 SWAP2 AND SWAP1 PUSH4 0x3E5F2857 SWAP1 PUSH1 0xA4 ADD PUSH1 0x0 PUSH1 0x40 MLOAD DUP1 DUP4 SUB DUP2 PUSH1 0x0 DUP8 DUP1 EXTCODESIZE ISZERO DUP1 ISZERO PUSH2 0x4522 JUMPI PUSH1 0x0 DUP1 REVERT JUMPDEST POP GAS CALL ISZERO DUP1 ISZERO PUSH2 0x4536 JUMPI RETURNDATASIZE PUSH1 0x0 DUP1 RETURNDATACOPY RETURNDATASIZE PUSH1 0x0 REVERT JUMPDEST POP POP POP POP SWAP3 SWAP2 POP POP JUMP JUMPDEST PUSH1 0x0 DUP1 DUP3 PUSH1 0xE0 ADD MLOAD DUP4 PUSH1 0xC0 ADD MLOAD GT PUSH2 0x456B JUMPI DUP3 PUSH1 0xC0 ADD MLOAD DUP4 PUSH1 0xE0 ADD MLOAD PUSH2 0x4566 SWAP2 SWAP1 PUSH2 0x5A3F JUMP JUMPDEST PUSH2 0x457F JUMP JUMPDEST DUP3 PUSH1 0xE0 ADD MLOAD DUP4 PUSH1 0xC0 ADD MLOAD PUSH2 0x457F SWAP2 SWAP1 PUSH2 0x5A3F JUMP JUMPDEST SWAP1 POP PUSH1 0x0 DUP4 PUSH1 0xE0 ADD MLOAD DUP5 PUSH1 0xC0 ADD MLOAD PUSH2 0x4597 SWAP2 SWAP1 PUSH2 0x5AE1 JUMP JUMPDEST SWAP1 POP PUSH1 0x0 DUP2 GT PUSH2 0x45E9 JUMPI PUSH1 0x40 MLOAD PUSH3 0x461BCD PUSH1 0xE5 SHL DUP2 MSTORE PUSH1 0x20 PUSH1 0x4 DUP3 ADD MSTORE PUSH1 0x1 PUSH1 0x24 DUP3 ADD MSTORE PUSH32 0x7A00000000000000000000000000000000000000000000000000000000000000 PUSH1 0x44 DUP3 ADD MSTORE PUSH1 0x64 ADD PUSH2 0xCA0 JUMP JUMPDEST PUSH1 0x0 DUP2 PUSH2 0x45F7 DUP5 PUSH1 0x64 PUSH2 0x5C01 JUMP JUMPDEST PUSH2 0x4601 SWAP2 SWAP1 PUSH2 0x5C18 JUMP JUMPDEST SWAP1 POP PUSH1 0x0 PUSH2 0x461C PUSH2 0x4613 DUP4 PUSH1 0x1E PUSH2 0x5AE1 JUMP JUMPDEST PUSH1 0xA PUSH1 0x3C PUSH2 0x51BC JUMP JUMPDEST SWAP1 POP PUSH2 0x4646 PUSH1 0x1 DUP8 PUSH1 0xA0 ADD MLOAD PUSH1 0x0 ADD MLOAD DUP9 PUSH1 0x0 ADD MLOAD DUP10 PUSH1 0x20 ADD MLOAD DUP11 PUSH1 0x40 ADD MLOAD DUP12 PUSH1 0x60 ADD MLOAD DUP8 PUSH2 0x51E6 JUMP JUMPDEST PUSH2 0x4650 SWAP1 DUP7 PUSH2 0x5AE1 JUMP JUMPDEST SWAP5 POP PUSH2 0x467A PUSH1 0x2 DUP8 PUSH1 0xA0 ADD MLOAD PUSH1 0x20 ADD MLOAD DUP9 PUSH1 0x0 ADD MLOAD DUP10 PUSH1 0x20 ADD MLOAD DUP11 PUSH1 0x40 ADD MLOAD DUP12 PUSH1 0x60 ADD MLOAD DUP8 PUSH2 0x51E6 JUMP JUMPDEST PUSH2 0x4684 SWAP1 DUP7 PUSH2 0x5AE1 JUMP JUMPDEST SWAP5 POP PUSH2 0x46AE PUSH1 0x3 DUP8 PUSH1 0xA0 ADD MLOAD PUSH1 0x40 ADD MLOAD DUP9 PUSH1 0x0 ADD MLOAD DUP10 PUSH1 0x20 ADD MLOAD DUP11 PUSH1 0x40 ADD MLOAD DUP12 PUSH1 0x60 ADD MLOAD DUP8 PUSH2 0x51E6 JUMP JUMPDEST PUSH2 0x46B8 SWAP1 DUP7 PUSH2 0x5AE1 JUMP JUMPDEST SWAP5 POP PUSH2 0x46E2 PUSH1 0x4 DUP8 PUSH1 0xA0 ADD MLOAD PUSH1 0x60 ADD MLOAD DUP9 PUSH1 0x0 ADD MLOAD DUP10 PUSH1 0x20 ADD MLOAD DUP11 PUSH1 0x40 ADD MLOAD DUP12 PUSH1 0x60 ADD MLOAD DUP8 PUSH2 0x51E6 JUMP JUMPDEST PUSH2 0x46EC SWAP1 DUP7 PUSH2 0x5AE1 JUMP JUMPDEST SWAP7 SWAP6 POP POP POP POP POP POP JUMP JUMPDEST PUSH1 0x1 SLOAD DUP5 MLOAD PUSH1 0x20 DUP7 ADD MLOAD PUSH1 0x40 MLOAD PUSH32 0x41EDE44F00000000000000000000000000000000000000000000000000000000 DUP2 MSTORE PUSH1 0xFF SWAP3 DUP4 AND PUSH1 0x4 DUP3 ADD MSTORE SWAP2 AND PUSH1 0x24 DUP3 ADD MSTORE PUSH1 0x1 PUSH1 0x1 PUSH1 0xA0 SHL SUB SWAP1 SWAP2 AND SWAP1 PUSH4 0x41EDE44F SWAP1 PUSH1 0x44 ADD PUSH1 0x20 PUSH1 0x40 MLOAD DUP1 DUP4 SUB DUP2 DUP7 GAS STATICCALL ISZERO DUP1 ISZERO PUSH2 0x4769 JUMPI RETURNDATASIZE PUSH1 0x0 DUP1 RETURNDATACOPY RETURNDATASIZE PUSH1 0x0 REVERT JUMPDEST POP POP POP POP PUSH1 0x40 MLOAD RETURNDATASIZE PUSH1 0x1F NOT PUSH1 0x1F DUP3 ADD AND DUP3 ADD DUP1 PUSH1 0x40 MSTORE POP DUP2 ADD SWAP1 PUSH2 0x478D SWAP2 SWAP1 PUSH2 0x5B79 JUMP JUMPDEST DUP5 MLOAD PUSH1 0xFF SWAP1 DUP2 AND PUSH1 0x0 SWAP1 DUP2 MSTORE PUSH1 0x8 PUSH1 0x20 SWAP1 DUP2 MSTORE PUSH1 0x40 DUP1 DUP4 KECCAK256 DUP3 DUP11 ADD MLOAD SWAP1 SWAP5 AND DUP4 MSTORE SWAP3 SWAP1 MSTORE DUP2 SWAP1 KECCAK256 SWAP2 SWAP1 SWAP2 SSTORE DUP4 ADD MLOAD ISZERO PUSH2 0x4885 JUMPI PUSH1 0x1 SLOAD PUSH1 0x40 DUP6 DUP2 ADD MLOAD PUSH1 0x60 DUP8 ADD MLOAD SWAP2 MLOAD PUSH32 0x41EDE44F00000000000000000000000000000000000000000000000000000000 DUP2 MSTORE PUSH1 0xFF SWAP2 DUP3 AND PUSH1 0x4 DUP3 ADD MSTORE SWAP2 AND PUSH1 0x24 DUP3 ADD MSTORE PUSH1 0x1 PUSH1 0x1 PUSH1 0xA0 SHL SUB SWAP1 SWAP2 AND SWAP1 PUSH4 0x41EDE44F SWAP1 PUSH1 0x44 ADD PUSH1 0x20 PUSH1 0x40 MLOAD DUP1 DUP4 SUB DUP2 DUP7 GAS STATICCALL ISZERO DUP1 ISZERO PUSH2 0x4836 JUMPI RETURNDATASIZE PUSH1 0x0 DUP1 RETURNDATACOPY RETURNDATASIZE PUSH1 0x0 REVERT JUMPDEST POP POP POP POP PUSH1 0x40 MLOAD RETURNDATASIZE PUSH1 0x1F NOT PUSH1 0x1F DUP3 ADD AND DUP3 ADD DUP1 PUSH1 0x40 MSTORE POP DUP2 ADD SWAP1 PUSH2 0x485A SWAP2 SWAP1 PUSH2 0x5B79 JUMP JUMPDEST PUSH1 0x40 DUP1 DUP7 ADD MLOAD PUSH1 0xFF SWAP1 DUP2 AND PUSH1 0x0 SWAP1 DUP2 MSTORE PUSH1 0x9 PUSH1 0x20 SWAP1 DUP2 MSTORE DUP4 DUP3 KECCAK256 PUSH1 0x60 DUP11 ADD MLOAD SWAP1 SWAP4 AND DUP3 MSTORE SWAP2 SWAP1 SWAP2 MSTORE KECCAK256 SSTORE JUMPDEST PUSH1 0x1 SLOAD DUP5 MLOAD PUSH1 0x20 DUP7 ADD MLOAD PUSH1 0x40 MLOAD PUSH32 0x7659BC6000000000000000000000000000000000000000000000000000000000 DUP2 MSTORE PUSH1 0xFF SWAP3 DUP4 AND PUSH1 0x4 DUP3 ADD MSTORE SWAP2 AND PUSH1 0x24 DUP3 ADD MSTORE PUSH1 0x1 PUSH1 0x1 PUSH1 0xA0 SHL SUB SWAP1 SWAP2 AND SWAP1 PUSH4 0x7659BC60 SWAP1 PUSH1 0x44 ADD PUSH1 0x0 PUSH1 0x40 MLOAD DUP1 DUP4 SUB DUP2 PUSH1 0x0 DUP8 DUP1 EXTCODESIZE ISZERO DUP1 ISZERO PUSH2 0x48F5 JUMPI PUSH1 0x0 DUP1 REVERT JUMPDEST POP GAS CALL ISZERO DUP1 ISZERO PUSH2 0x4909 JUMPI RETURNDATASIZE PUSH1 0x0 DUP1 RETURNDATACOPY RETURNDATASIZE PUSH1 0x0 REVERT JUMPDEST POP POP PUSH1 0x1 SLOAD PUSH1 0x40 DUP8 DUP2 ADD MLOAD PUSH1 0x60 DUP10 ADD MLOAD SWAP2 MLOAD PUSH32 0x7659BC6000000000000000000000000000000000000000000000000000000000 DUP2 MSTORE PUSH1 0xFF SWAP2 DUP3 AND PUSH1 0x4 DUP3 ADD MSTORE SWAP2 AND PUSH1 0x24 DUP3 ADD MSTORE PUSH1 0x1 PUSH1 0x1 PUSH1 0xA0 SHL SUB SWAP1 SWAP2 AND SWAP3 POP PUSH4 0x7659BC60 SWAP2 POP PUSH1 0x44 ADD PUSH1 0x0 PUSH1 0x40 MLOAD DUP1 DUP4 SUB DUP2 PUSH1 0x0 DUP8 DUP1 EXTCODESIZE ISZERO DUP1 ISZERO PUSH2 0x4980 JUMPI PUSH1 0x0 DUP1 REVERT JUMPDEST POP GAS CALL ISZERO DUP1 ISZERO PUSH2 0x4994 JUMPI RETURNDATASIZE PUSH1 0x0 DUP1 RETURNDATACOPY RETURNDATASIZE PUSH1 0x0 REVERT JUMPDEST POP POP POP PUSH1 0x40 DUP1 DUP6 ADD MLOAD PUSH1 0x4 DUP1 SLOAD DUP9 MLOAD PUSH1 0x20 DUP11 ADD MLOAD SWAP5 MLOAD PUSH32 0x9CEC519400000000000000000000000000000000000000000000000000000000 DUP2 MSTORE SWAP4 SWAP6 POP PUSH1 0x0 SWAP5 PUSH1 0x1 PUSH1 0x1 PUSH1 0xA0 SHL SUB SWAP1 SWAP3 AND SWAP4 PUSH4 0x9CEC5194 SWAP4 PUSH2 0x49FF SWAP4 SWAP2 ADD PUSH1 0xFF SWAP3 DUP4 AND DUP2 MSTORE SWAP2 AND PUSH1 0x20 DUP3 ADD MSTORE PUSH1 0x40 ADD SWAP1 JUMP JUMPDEST PUSH1 0x0 PUSH1 0x40 MLOAD DUP1 DUP4 SUB DUP2 DUP7 GAS STATICCALL ISZERO DUP1 ISZERO PUSH2 0x4A1C JUMPI RETURNDATASIZE PUSH1 0x0 DUP1 RETURNDATACOPY RETURNDATASIZE PUSH1 0x0 REVERT JUMPDEST POP POP POP POP PUSH1 0x40 MLOAD RETURNDATASIZE PUSH1 0x0 DUP3 RETURNDATACOPY PUSH1 0x1F RETURNDATASIZE SWAP1 DUP2 ADD PUSH1 0x1F NOT AND DUP3 ADD PUSH1 0x40 MSTORE PUSH2 0x4A44 SWAP2 SWAP1 DUP2 ADD SWAP1 PUSH2 0x5DF1 JUMP JUMPDEST PUSH1 0x4 DUP1 SLOAD PUSH1 0x40 DUP10 DUP2 ADD MLOAD PUSH1 0x60 DUP12 ADD MLOAD SWAP2 MLOAD PUSH32 0x9CEC519400000000000000000000000000000000000000000000000000000000 DUP2 MSTORE PUSH1 0xFF SWAP2 DUP3 AND SWAP5 DUP2 ADD SWAP5 SWAP1 SWAP5 MSTORE AND PUSH1 0x24 DUP4 ADD MSTORE SWAP2 SWAP3 POP PUSH1 0x0 SWAP2 PUSH1 0x1 PUSH1 0x1 PUSH1 0xA0 SHL SUB AND SWAP1 PUSH4 0x9CEC5194 SWAP1 PUSH1 0x44 ADD PUSH1 0x0 PUSH1 0x40 MLOAD DUP1 DUP4 SUB DUP2 DUP7 GAS STATICCALL ISZERO DUP1 ISZERO PUSH2 0x4AC0 JUMPI RETURNDATASIZE PUSH1 0x0 DUP1 RETURNDATACOPY RETURNDATASIZE PUSH1 0x0 REVERT JUMPDEST POP POP POP POP PUSH1 0x40 MLOAD RETURNDATASIZE PUSH1 0x0 DUP3 RETURNDATACOPY PUSH1 0x1F RETURNDATASIZE SWAP1 DUP2 ADD PUSH1 0x1F NOT AND DUP3 ADD PUSH1 0x40 MSTORE PUSH2 0x4AE8 SWAP2 SWAP1 DUP2 ADD SWAP1 PUSH2 0x5DF1 JUMP JUMPDEST SWAP1 POP PUSH1 0xA PUSH1 0x40 MLOAD DUP1 PUSH2 0x1A0 ADD PUSH1 0x40 MSTORE DUP1 DUP10 PUSH1 0x0 ADD MLOAD PUSH1 0xFF AND DUP2 MSTORE PUSH1 0x20 ADD DUP10 PUSH1 0x20 ADD MLOAD PUSH1 0xFF AND DUP2 MSTORE PUSH1 0x20 ADD DUP10 PUSH1 0x40 ADD MLOAD PUSH1 0xFF AND DUP2 MSTORE PUSH1 0x20 ADD DUP10 PUSH1 0x60 ADD MLOAD PUSH1 0xFF AND DUP2 MSTORE PUSH1 0x20 ADD TIMESTAMP DUP2 MSTORE PUSH1 0x20 ADD DUP9 PUSH1 0x40 ADD MLOAD ISZERO ISZERO DUP2 MSTORE PUSH1 0x20 ADD DUP10 PUSH1 0x80 ADD MLOAD PUSH2 0x160 ADD MLOAD DUP11 PUSH1 0x80 ADD MLOAD PUSH2 0x140 ADD MLOAD PUSH2 0x4B5C SWAP2 SWAP1 PUSH2 0x5AE1 JUMP JUMPDEST DUP2 MSTORE DUP9 MLOAD PUSH1 0x20 DUP2 DUP2 ADD MLOAD SWAP2 MLOAD SWAP3 ADD SWAP2 PUSH2 0x4B75 SWAP2 SWAP1 PUSH2 0x5AE1 JUMP JUMPDEST DUP2 MSTORE PUSH1 0x20 ADD DUP10 PUSH1 0xC0 ADD MLOAD DUP2 MSTORE PUSH1 0x20 ADD DUP10 PUSH1 0xA0 ADD MLOAD PUSH2 0x160 ADD MLOAD DUP11 PUSH1 0xA0 ADD MLOAD PUSH2 0x140 ADD MLOAD PUSH2 0x4BA2 SWAP2 SWAP1 PUSH2 0x5AE1 JUMP JUMPDEST DUP2 MSTORE PUSH1 0x20 ADD DUP9 PUSH1 0x0 ADD MLOAD PUSH1 0x60 ADD MLOAD DUP10 PUSH1 0x0 ADD MLOAD PUSH1 0x40 ADD MLOAD PUSH2 0x4BC3 SWAP2 SWAP1 PUSH2 0x5AE1 JUMP JUMPDEST DUP2 MSTORE PUSH1 0xE0 DUP11 DUP2 ADD MLOAD PUSH1 0x20 DUP1 DUP5 ADD SWAP2 SWAP1 SWAP2 MSTORE DUP11 DUP2 ADD MLOAD PUSH1 0x40 SWAP4 DUP5 ADD MSTORE DUP5 SLOAD PUSH1 0x1 DUP1 DUP3 ADD DUP8 SSTORE PUSH1 0x0 SWAP7 DUP8 MSTORE DUP3 DUP8 KECCAK256 DUP7 MLOAD PUSH1 0xA SWAP1 SWAP4 MUL ADD DUP1 SLOAD DUP8 DUP6 ADD MLOAD DUP9 DUP9 ADD MLOAD PUSH1 0x60 DUP11 ADD MLOAD PUSH1 0xFF SWAP7 DUP8 AND PUSH2 0xFFFF NOT SWAP1 SWAP5 AND SWAP4 SWAP1 SWAP4 OR PUSH2 0x100 SWAP3 DUP8 AND DUP4 MUL OR PUSH32 0xFFFFFFFFFFFFFFFFFFFFFFFFFFFFFFFFFFFFFFFFFFFFFFFFFFFFFFFF0000FFFF AND PUSH3 0x10000 SWAP2 DUP8 AND SWAP2 SWAP1 SWAP2 MUL PUSH32 0xFFFFFFFFFFFFFFFFFFFFFFFFFFFFFFFFFFFFFFFFFFFFFFFFFFFFFFFF00FFFFFF AND OR PUSH4 0x1000000 SWAP6 SWAP1 SWAP3 AND SWAP5 SWAP1 SWAP5 MUL OR DUP2 SSTORE PUSH1 0x80 DUP8 ADD MLOAD DUP2 DUP4 ADD SSTORE PUSH1 0xA0 DUP8 ADD MLOAD PUSH1 0x2 DUP1 DUP4 ADD DUP1 SLOAD PUSH1 0xFF NOT AND SWAP3 ISZERO ISZERO SWAP3 SWAP1 SWAP3 OR SWAP1 SWAP2 SSTORE PUSH1 0xC0 DUP9 ADD MLOAD PUSH1 0x3 DUP4 ADD SSTORE SWAP5 DUP8 ADD MLOAD PUSH1 0x4 DUP3 ADD SSTORE SWAP2 DUP7 ADD MLOAD PUSH1 0x5 DUP4 ADD SSTORE PUSH2 0x120 DUP7 ADD MLOAD PUSH1 0x6 DUP4 ADD SSTORE PUSH2 0x140 DUP7 ADD MLOAD PUSH1 0x7 DUP4 ADD SSTORE PUSH2 0x160 DUP7 ADD MLOAD PUSH1 0x8 DUP4 ADD SSTORE PUSH2 0x180 SWAP1 SWAP6 ADD MLOAD PUSH1 0x9 SWAP1 SWAP2 ADD SSTORE DUP3 MLOAD DUP1 DUP5 ADD SWAP1 SWAP4 MSTORE DUP7 DUP4 MSTORE DUP3 ADD DUP6 SWAP1 MSTORE PUSH1 0xB DUP1 SLOAD SWAP4 DUP5 ADD DUP2 SSTORE SWAP1 SWAP4 MSTORE DUP1 MLOAD SWAP1 SWAP3 PUSH32 0x175B7A638427703F0DBE7BB9BBF987A2551717B34E79F33B5B1008D1FA01DB9 SWAP3 MUL SWAP2 SWAP1 SWAP2 ADD SWAP1 DUP2 SWAP1 PUSH2 0x4D40 SWAP1 DUP3 PUSH2 0x5ED9 JUMP JUMPDEST POP PUSH1 0x20 DUP3 ADD MLOAD PUSH1 0x1 DUP3 ADD SWAP1 PUSH2 0x4D55 SWAP1 DUP3 PUSH2 0x5ED9 JUMP JUMPDEST POP POP PUSH1 0xA SLOAD PUSH1 0x0 SWAP2 POP PUSH2 0x4D6A SWAP1 PUSH1 0x1 SWAP1 PUSH2 0x5A3F JUMP JUMPDEST SWAP1 POP PUSH1 0xC PUSH1 0x0 PUSH2 0x4D8E DUP11 PUSH1 0x0 ADD MLOAD DUP12 PUSH1 0x20 ADD MLOAD PUSH1 0xFF AND PUSH1 0x8 SWAP2 SWAP1 SWAP2 SHL PUSH2 0xFF00 AND OR SWAP1 JUMP JUMPDEST PUSH2 0xFFFF AND DUP2 MSTORE PUSH1 0x20 DUP1 DUP3 ADD SWAP3 SWAP1 SWAP3 MSTORE PUSH1 0x40 SWAP1 DUP2 ADD PUSH1 0x0 SWAP1 DUP2 KECCAK256 DUP1 SLOAD PUSH1 0x1 DUP2 ADD DUP3 SSTORE SWAP1 DUP3 MSTORE SWAP3 DUP2 KECCAK256 SWAP1 SWAP3 ADD DUP4 SWAP1 SSTORE DUP10 ADD MLOAD PUSH1 0x60 DUP11 ADD MLOAD PUSH1 0xC SWAP3 SWAP2 PUSH2 0x4DDC SWAP2 PUSH1 0xFF AND PUSH1 0x8 SWAP2 SWAP1 SWAP2 SHL PUSH2 0xFF00 AND OR SWAP1 JUMP JUMPDEST PUSH2 0xFFFF AND DUP2 MSTORE PUSH1 0x20 DUP1 DUP3 ADD SWAP3 SWAP1 SWAP3 MSTORE PUSH1 0x40 SWAP1 DUP2 ADD PUSH1 0x0 SWAP1 DUP2 KECCAK256 DUP1 SLOAD PUSH1 0x1 DUP2 ADD DUP3 SSTORE SWAP1 DUP3 MSTORE SWAP1 DUP4 SWAP1 KECCAK256 ADD DUP4 SWAP1 SSTORE DUP10 MLOAD DUP11 DUP4 ADD MLOAD DUP12 DUP4 ADD MLOAD PUSH1 0x60 DUP1 DUP15 ADD MLOAD DUP6 MLOAD PUSH1 0xFF SWAP6 DUP7 AND DUP2 MSTORE SWAP4 DUP6 AND SWAP7 DUP5 ADD SWAP7 SWAP1 SWAP7 MSTORE SWAP1 DUP4 AND DUP3 DUP6 ADD MSTORE SWAP2 SWAP1 SWAP4 AND SWAP1 DUP4 ADD MSTORE DUP6 ISZERO ISZERO PUSH1 0x80 DUP4 ADD MSTORE MLOAD PUSH1 0x1 PUSH1 0x1 PUSH1 0xA0 SHL SUB DUP8 DUP2 AND SWAP3 SWAP1 DUP10 AND SWAP2 PUSH32 0x47389018A4BFD5E1EF612F1FE9082CC3E3675BE36E77743A6BFAF0EA011D586F SWAP2 DUP2 SWAP1 SUB PUSH1 0xA0 ADD SWAP1 LOG3 POP POP POP POP POP POP POP POP JUMP JUMPDEST PUSH1 0xFF DUP2 DUP2 AND PUSH1 0x8 DUP5 SWAP1 SHL PUSH2 0xFF00 AND OR PUSH1 0x0 DUP2 DUP2 MSTORE PUSH1 0x6 PUSH1 0x20 MSTORE PUSH1 0x40 SWAP1 KECCAK256 SLOAD SWAP1 SWAP2 PUSH1 0x5 SWAP2 AND LT PUSH2 0x4EF8 JUMPI PUSH1 0x40 MLOAD PUSH3 0x461BCD PUSH1 0xE5 SHL DUP2 MSTORE PUSH1 0x20 PUSH1 0x4 DUP3 ADD MSTORE PUSH1 0x1 PUSH1 0x24 DUP3 ADD MSTORE PUSH32 0x3500000000000000000000000000000000000000000000000000000000000000 PUSH1 0x44 DUP3 ADD MSTORE PUSH1 0x64 ADD PUSH2 0xCA0 JUMP JUMPDEST PUSH2 0xFFFF AND PUSH1 0x0 SWAP1 DUP2 MSTORE PUSH1 0x6 PUSH1 0x20 MSTORE PUSH1 0x40 SWAP1 KECCAK256 DUP1 SLOAD PUSH1 0xFF DUP1 DUP3 AND PUSH1 0x1 ADD AND PUSH1 0xFF NOT SWAP1 SWAP2 AND OR SWAP1 SSTORE POP POP JUMP JUMPDEST PUSH2 0x4F4D PUSH1 0x40 MLOAD DUP1 PUSH1 0x80 ADD PUSH1 0x40 MSTORE DUP1 PUSH1 0x0 DUP2 MSTORE PUSH1 0x20 ADD PUSH1 0x0 DUP2 MSTORE PUSH1 0x20 ADD PUSH1 0x0 DUP2 MSTORE PUSH1 0x20 ADD PUSH1 0x0 DUP2 MSTORE POP SWAP1 JUMP JUMPDEST PUSH1 0x0 DUP3 DUP5 GT PUSH2 0x4F65 JUMPI PUSH2 0x4F60 DUP5 DUP5 PUSH2 0x5A3F JUMP JUMPDEST PUSH2 0x4F6F JUMP JUMPDEST PUSH2 0x4F6F DUP4 DUP6 PUSH2 0x5A3F JUMP JUMPDEST SWAP1 POP PUSH1 0x0 PUSH2 0x4F7D DUP5 DUP7 PUSH2 0x5AE1 JUMP JUMPDEST SWAP1 POP PUSH1 0x0 DUP2 GT PUSH2 0x4FCF JUMPI PUSH1 0x40 MLOAD PUSH3 0x461BCD PUSH1 0xE5 SHL DUP2 MSTORE PUSH1 0x20 PUSH1 0x4 DUP3 ADD MSTORE PUSH1 0x1 PUSH1 0x24 DUP3 ADD MSTORE PUSH32 0x7A00000000000000000000000000000000000000000000000000000000000000 PUSH1 0x44 DUP3 ADD MSTORE PUSH1 0x64 ADD PUSH2 0xCA0 JUMP JUMPDEST PUSH1 0x0 DUP2 PUSH2 0x4FDD DUP5 PUSH1 0x64 PUSH2 0x5C01 JUMP JUMPDEST PUSH2 0x4FE7 SWAP2 SWAP1 PUSH2 0x5C18 JUMP JUMPDEST SWAP1 POP DUP5 DUP7 GT ISZERO PUSH2 0x50E0 JUMPI PUSH1 0x64 PUSH2 0x501C PUSH1 0x2 PUSH2 0x5002 DUP5 DUP5 PUSH2 0x5A3F JUMP JUMPDEST PUSH2 0x500C SWAP2 SWAP1 PUSH2 0x5C18 JUMP JUMPDEST PUSH2 0x5017 SWAP1 PUSH1 0x19 PUSH2 0x5AE1 JUMP JUMPDEST PUSH2 0x531E JUMP JUMPDEST DUP10 PUSH2 0x140 ADD MLOAD PUSH2 0x502C SWAP2 SWAP1 PUSH2 0x5C01 JUMP JUMPDEST PUSH2 0x5036 SWAP2 SWAP1 PUSH2 0x5C18 JUMP JUMPDEST DUP5 MSTORE PUSH1 0x64 PUSH2 0x505E PUSH1 0x4 PUSH2 0x5049 DUP5 DUP5 PUSH2 0x5A3F JUMP JUMPDEST PUSH2 0x5053 SWAP2 SWAP1 PUSH2 0x5C18 JUMP JUMPDEST PUSH2 0x5017 SWAP1 PUSH1 0xA PUSH2 0x5AE1 JUMP JUMPDEST DUP10 PUSH2 0x160 ADD MLOAD PUSH2 0x506E SWAP2 SWAP1 PUSH2 0x5C01 JUMP JUMPDEST PUSH2 0x5078 SWAP2 SWAP1 PUSH2 0x5C18 JUMP JUMPDEST PUSH1 0x20 DUP6 ADD MSTORE PUSH1 0x64 PUSH2 0x508D PUSH2 0x5017 DUP4 PUSH1 0x32 PUSH2 0x5AE1 JUMP JUMPDEST DUP9 PUSH2 0x140 ADD MLOAD PUSH2 0x509D SWAP2 SWAP1 PUSH2 0x5C01 JUMP JUMPDEST PUSH2 0x50A7 SWAP2 SWAP1 PUSH2 0x5C18 JUMP JUMPDEST PUSH1 0x40 DUP6 ADD MSTORE PUSH1 0x64 PUSH2 0x50BC PUSH2 0x5017 DUP4 PUSH1 0x32 PUSH2 0x5AE1 JUMP JUMPDEST DUP9 PUSH2 0x160 ADD MLOAD PUSH2 0x50CC SWAP2 SWAP1 PUSH2 0x5C01 JUMP JUMPDEST PUSH2 0x50D6 SWAP2 SWAP1 PUSH2 0x5C18 JUMP JUMPDEST PUSH1 0x60 DUP6 ADD MSTORE PUSH2 0x51B1 JUMP JUMPDEST PUSH1 0x64 PUSH2 0x50F0 PUSH2 0x5017 DUP4 PUSH1 0x32 PUSH2 0x5AE1 JUMP JUMPDEST DUP10 PUSH2 0x140 ADD MLOAD PUSH2 0x5100 SWAP2 SWAP1 PUSH2 0x5C01 JUMP JUMPDEST PUSH2 0x510A SWAP2 SWAP1 PUSH2 0x5C18 JUMP JUMPDEST DUP5 MSTORE PUSH1 0x64 PUSH2 0x511C PUSH2 0x500C PUSH1 0x2 DUP5 PUSH2 0x5C18 JUMP JUMPDEST DUP10 PUSH2 0x160 ADD MLOAD PUSH2 0x512C SWAP2 SWAP1 PUSH2 0x5C01 JUMP JUMPDEST PUSH2 0x5136 SWAP2 SWAP1 PUSH2 0x5C18 JUMP JUMPDEST PUSH1 0x20 DUP6 ADD MSTORE PUSH1 0x64 PUSH2 0x5161 PUSH1 0x4 PUSH2 0x514C DUP5 DUP5 PUSH2 0x5A3F JUMP JUMPDEST PUSH2 0x5156 SWAP2 SWAP1 PUSH2 0x5C18 JUMP JUMPDEST PUSH2 0x5017 SWAP1 PUSH1 0xF PUSH2 0x5AE1 JUMP JUMPDEST DUP9 PUSH2 0x140 ADD MLOAD PUSH2 0x5171 SWAP2 SWAP1 PUSH2 0x5C01 JUMP JUMPDEST PUSH2 0x517B SWAP2 SWAP1 PUSH2 0x5C18 JUMP JUMPDEST PUSH1 0x40 DUP6 ADD MSTORE PUSH1 0x64 PUSH2 0x5191 PUSH1 0x4 PUSH2 0x5049 DUP5 DUP5 PUSH2 0x5A3F JUMP JUMPDEST DUP9 PUSH2 0x160 ADD MLOAD PUSH2 0x51A1 SWAP2 SWAP1 PUSH2 0x5C01 JUMP JUMPDEST PUSH2 0x51AB SWAP2 SWAP1 PUSH2 0x5C18 JUMP JUMPDEST PUSH1 0x60 DUP6 ADD MSTORE JUMPDEST POP POP POP SWAP5 SWAP4 POP POP POP POP JUMP JUMPDEST PUSH1 0x0 DUP3 DUP5 LT ISZERO PUSH2 0x51CD JUMPI POP DUP2 PUSH2 0x51DF JUMP JUMPDEST DUP2 DUP5 GT ISZERO PUSH2 0x51DC JUMPI POP DUP1 PUSH2 0x51DF JUMP JUMPDEST POP DUP3 JUMPDEST SWAP4 SWAP3 POP POP POP JUMP JUMPDEST PUSH1 0x0 PUSH1 0x1 DUP8 GT ISZERO PUSH2 0x5313 JUMPI PUSH1 0x0 PUSH1 0x64 PUSH2 0x51FF DUP5 DUP11 PUSH2 0x5C01 JUMP JUMPDEST PUSH2 0x5209 SWAP2 SWAP1 PUSH2 0x5C18 JUMP JUMPDEST SWAP1 POP DUP1 ISZERO PUSH2 0x5311 JUMPI PUSH1 0x1 SLOAD PUSH1 0x40 MLOAD PUSH4 0x3E5F2857 PUSH1 0xE0 SHL DUP2 MSTORE PUSH1 0xFF DUP1 DUP9 AND PUSH1 0x4 DUP4 ADD MSTORE DUP1 DUP8 AND PUSH1 0x24 DUP4 ADD MSTORE DUP12 AND PUSH1 0x44 DUP3 ADD MSTORE PUSH1 0x64 DUP2 ADD DUP4 SWAP1 MSTORE PUSH1 0x0 PUSH1 0x84 DUP3 ADD MSTORE PUSH1 0x1 PUSH1 0x1 PUSH1 0xA0 SHL SUB SWAP1 SWAP2 AND SWAP1 PUSH4 0x3E5F2857 SWAP1 PUSH1 0xA4 ADD PUSH1 0x0 PUSH1 0x40 MLOAD DUP1 DUP4 SUB DUP2 PUSH1 0x0 DUP8 DUP1 EXTCODESIZE ISZERO DUP1 ISZERO PUSH2 0x5277 JUMPI PUSH1 0x0 DUP1 REVERT JUMPDEST POP GAS CALL ISZERO DUP1 ISZERO PUSH2 0x528B JUMPI RETURNDATASIZE PUSH1 0x0 DUP1 RETURNDATACOPY RETURNDATASIZE PUSH1 0x0 REVERT JUMPDEST POP POP PUSH1 0x1 DUP1 SLOAD PUSH1 0x40 MLOAD PUSH4 0x3E5F2857 PUSH1 0xE0 SHL DUP2 MSTORE PUSH1 0xFF DUP1 DUP14 AND PUSH1 0x4 DUP4 ADD MSTORE DUP1 DUP13 AND PUSH1 0x24 DUP4 ADD MSTORE DUP15 AND PUSH1 0x44 DUP3 ADD MSTORE PUSH1 0x64 DUP2 ADD DUP7 SWAP1 MSTORE PUSH1 0x84 DUP2 ADD SWAP3 SWAP1 SWAP3 MSTORE PUSH1 0x1 PUSH1 0x1 PUSH1 0xA0 SHL SUB AND SWAP3 POP PUSH4 0x3E5F2857 SWAP2 POP PUSH1 0xA4 ADD PUSH1 0x0 PUSH1 0x40 MLOAD DUP1 DUP4 SUB DUP2 PUSH1 0x0 DUP8 DUP1 EXTCODESIZE ISZERO DUP1 ISZERO PUSH2 0x52F5 JUMPI PUSH1 0x0 DUP1 REVERT JUMPDEST POP GAS CALL ISZERO DUP1 ISZERO PUSH2 0x5309 JUMPI RETURNDATASIZE PUSH1 0x0 DUP1 RETURNDATACOPY RETURNDATASIZE PUSH1 0x0 REVERT JUMPDEST POP POP POP POP DUP1 SWAP2 POP JUMPDEST POP JUMPDEST SWAP8 SWAP7 POP POP POP POP POP POP POP JUMP JUMPDEST PUSH1 0x0 PUSH2 0x39A9 PUSH2 0x532E DUP4 PUSH1 0xA PUSH2 0x5335 JUMP JUMPDEST PUSH1 0x5A PUSH2 0x534B JUMP JUMPDEST PUSH1 0x0 DUP2 DUP4 GT PUSH2 0x5344 JUMPI DUP2 PUSH2 0x39A6 JUMP JUMPDEST POP SWAP1 SWAP2 SWAP1 POP JUMP JUMPDEST PUSH1 0x0 DUP2 DUP4 LT PUSH2 0x5344 JUMPI DUP2 PUSH2 0x39A6 JUMP JUMPDEST PUSH1 0x40 MLOAD DUP1 PUSH2 0x100 ADD PUSH1 0x40 MSTORE DUP1 PUSH1 0x0 PUSH1 0xFF AND DUP2 MSTORE PUSH1 0x20 ADD PUSH1 0x0 PUSH1 0xFF AND DUP2 MSTORE PUSH1 0x20 ADD PUSH1 0x0 PUSH1 0xFF AND DUP2 MSTORE PUSH1 0x20 ADD PUSH1 0x0 PUSH1 0xFF AND DUP2 MSTORE PUSH1 0x20 ADD PUSH2 0x5413 PUSH1 0x40 MLOAD DUP1 PUSH2 0x1E0 ADD PUSH1 0x40 MSTORE DUP1 PUSH1 0x0 DUP2 MSTORE PUSH1 0x20 ADD PUSH1 0x0 DUP2 MSTORE PUSH1 0x20 ADD PUSH1 0x0 DUP2 MSTORE PUSH1 0x20 ADD PUSH1 0x0 DUP2 MSTORE PUSH1 0x20 ADD PUSH1 0x0 PUSH2 0xFFFF AND DUP2 MSTORE PUSH1 0x20 ADD PUSH1 0x0 DUP2 MSTORE PUSH1 0x20 ADD PUSH1 0x0 DUP2 MSTORE PUSH1 0x20 ADD PUSH1 0x0 DUP2 MSTORE PUSH1 0x20 ADD PUSH1 0x0 DUP2 MSTORE PUSH1 0x20 ADD PUSH1 0x0 DUP2 MSTORE PUSH1 0x20 ADD PUSH1 0x0 DUP2 MSTORE PUSH1 0x20 ADD PUSH1 0x0 DUP2 MSTORE PUSH1 0x20 ADD PUSH1 0x0 PUSH2 0xFFFF AND DUP2 MSTORE PUSH1 0x20 ADD PUSH1 0x0 PUSH2 0xFFFF AND DUP2 MSTORE PUSH1 0x20 ADD PUSH1 0x0 DUP2 MSTORE POP SWAP1 JUMP JUMPDEST DUP2 MSTORE PUSH1 0x20 ADD PUSH2 0x549D PUSH1 0x40 MLOAD DUP1 PUSH2 0x1E0 ADD PUSH1 0x40 MSTORE DUP1 PUSH1 0x0 DUP2 MSTORE PUSH1 0x20 ADD PUSH1 0x0 DUP2 MSTORE PUSH1 0x20 ADD PUSH1 0x0 DUP2 MSTORE PUSH1 0x20 ADD PUSH1 0x0 DUP2 MSTORE PUSH1 0x20 ADD PUSH1 0x0 PUSH2 0xFFFF AND DUP2 MSTORE PUSH1 0x20 ADD PUSH1 0x0 DUP2 MSTORE PUSH1 0x20 ADD PUSH1 0x0 DUP2 MSTORE PUSH1 0x20 ADD PUSH1 0x0 DUP2 MSTORE PUSH1 0x20 ADD PUSH1 0x0 DUP2 MSTORE PUSH1 0x20 ADD PUSH1 0x0 DUP2 MSTORE PUSH1 0x20 ADD PUSH1 0x0 DUP2 MSTORE PUSH1 0x20 ADD PUSH1 0x0 DUP2 MSTORE PUSH1 0x20 ADD PUSH1 0x0 PUSH2 0xFFFF AND DUP2 MSTORE PUSH1 0x20 ADD PUSH1 0x0 PUSH2 0xFFFF AND DUP2 MSTORE PUSH1 0x20 ADD PUSH1 0x0 DUP2 MSTORE POP SWAP1 JUMP JUMPDEST DUP2 MSTORE PUSH1 0x20 ADD PUSH1 0x0 DUP2 MSTORE PUSH1 0x20 ADD PUSH1 0x0 DUP2 MSTORE POP SWAP1 JUMP JUMPDEST PUSH1 0x40 MLOAD DUP1 PUSH1 0x60 ADD PUSH1 0x40 MSTORE DUP1 PUSH2 0x54E7 PUSH1 0x40 MLOAD DUP1 PUSH1 0x80 ADD PUSH1 0x40 MSTORE DUP1 PUSH1 0x0 DUP2 MSTORE PUSH1 0x20 ADD PUSH1 0x0 DUP2 MSTORE PUSH1 0x20 ADD PUSH1 0x0 DUP2 MSTORE PUSH1 0x20 ADD PUSH1 0x0 DUP2 MSTORE POP SWAP1 JUMP JUMPDEST DUP2 MSTORE PUSH1 0x0 PUSH1 0x20 DUP3 ADD DUP2 SWAP1 MSTORE PUSH1 0x40 SWAP1 SWAP2 ADD MSTORE SWAP1 JUMP JUMPDEST PUSH1 0x0 JUMPDEST DUP4 DUP2 LT ISZERO PUSH2 0x5516 JUMPI DUP2 DUP2 ADD MLOAD DUP4 DUP3 ADD MSTORE PUSH1 0x20 ADD PUSH2 0x54FE JUMP JUMPDEST POP POP PUSH1 0x0 SWAP2 ADD MSTORE JUMP JUMPDEST PUSH1 0x0 DUP2 MLOAD DUP1 DUP5 MSTORE PUSH2 0x5537 DUP2 PUSH1 0x20 DUP7 ADD PUSH1 0x20 DUP7 ADD PUSH2 0x54FB JUMP JUMPDEST PUSH1 0x1F ADD PUSH1 0x1F NOT AND SWAP3 SWAP1 SWAP3 ADD PUSH1 0x20 ADD SWAP3 SWAP2 POP POP JUMP JUMPDEST PUSH1 0x0 DUP3 DUP3 MLOAD DUP1 DUP6 MSTORE PUSH1 0x20 DUP1 DUP7 ADD SWAP6 POP DUP1 DUP3 PUSH1 0x5 SHL DUP5 ADD ADD DUP2 DUP7 ADD PUSH1 0x0 JUMPDEST DUP5 DUP2 LT ISZERO PUSH2 0x55BC JUMPI PUSH1 0x1F NOT DUP7 DUP5 SUB ADD DUP10 MSTORE DUP2 MLOAD PUSH1 0x40 DUP2 MLOAD DUP2 DUP7 MSTORE PUSH2 0x558E DUP3 DUP8 ADD DUP3 PUSH2 0x551F JUMP JUMPDEST SWAP2 POP POP DUP6 DUP3 ADD MLOAD SWAP2 POP DUP5 DUP2 SUB DUP7 DUP7 ADD MSTORE PUSH2 0x55A8 DUP2 DUP4 PUSH2 0x551F JUMP JUMPDEST SWAP11 DUP7 ADD SWAP11 SWAP5 POP POP POP SWAP1 DUP4 ADD SWAP1 PUSH1 0x1 ADD PUSH2 0x5568 JUMP JUMPDEST POP SWAP1 SWAP8 SWAP7 POP POP POP POP POP POP POP JUMP JUMPDEST PUSH1 0x40 DUP1 DUP3 MSTORE DUP4 MLOAD DUP3 DUP3 ADD DUP2 SWAP1 MSTORE PUSH1 0x0 SWAP2 SWAP1 PUSH1 0x60 SWAP1 DUP2 DUP6 ADD SWAP1 PUSH1 0x20 DUP1 DUP10 ADD DUP7 JUMPDEST DUP4 DUP2 LT ISZERO PUSH2 0x5640 JUMPI DUP2 MLOAD DUP1 MLOAD PUSH1 0xFF SWAP1 DUP2 AND DUP8 MSTORE DUP5 DUP3 ADD MLOAD DUP2 AND DUP6 DUP9 ADD MSTORE DUP9 DUP3 ADD MLOAD DUP2 AND DUP10 DUP9 ADD MSTORE DUP8 DUP3 ADD MLOAD AND DUP8 DUP8 ADD MSTORE PUSH1 0x80 DUP1 DUP3 ADD MLOAD SWAP1 DUP8 ADD MSTORE PUSH1 0xA0 SWAP1 DUP2 ADD MLOAD ISZERO ISZERO SWAP1 DUP7 ADD MSTORE PUSH1 0xC0 SWAP1 SWAP5 ADD SWAP4 SWAP1 DUP3 ADD SWAP1 PUSH1 0x1 ADD PUSH2 0x55E8 JUMP JUMPDEST POP POP DUP7 DUP4 SUB SWAP1 DUP8 ADD MSTORE POP PUSH2 0x5313 DUP2 DUP8 PUSH2 0x554B JUMP JUMPDEST DUP1 CALLDATALOAD PUSH1 0xFF DUP2 AND DUP2 EQ PUSH2 0x5665 JUMPI PUSH1 0x0 DUP1 REVERT JUMPDEST SWAP2 SWAP1 POP JUMP JUMPDEST PUSH1 0x0 DUP1 PUSH1 0x0 DUP1 PUSH1 0x80 DUP6 DUP8 SUB SLT ISZERO PUSH2 0x5680 JUMPI PUSH1 0x0 DUP1 REVERT JUMPDEST PUSH2 0x5689 DUP6 PUSH2 0x5654 JUMP JUMPDEST SWAP4 POP PUSH2 0x5697 PUSH1 0x20 DUP7 ADD PUSH2 0x5654 JUMP JUMPDEST SWAP3 POP PUSH2 0x56A5 PUSH1 0x40 DUP7 ADD PUSH2 0x5654 JUMP JUMPDEST SWAP2 POP PUSH2 0x56B3 PUSH1 0x60 DUP7 ADD PUSH2 0x5654 JUMP JUMPDEST SWAP1 POP SWAP3 SWAP6 SWAP2 SWAP5 POP SWAP3 POP JUMP JUMPDEST PUSH2 0xFFFF DUP2 AND DUP2 EQ PUSH2 0x56CE JUMPI PUSH1 0x0 DUP1 REVERT JUMPDEST POP JUMP JUMPDEST PUSH1 0x0 PUSH1 0x20 DUP3 DUP5 SUB SLT ISZERO PUSH2 0x56E3 JUMPI PUSH1 0x0 DUP1 REVERT JUMPDEST DUP2 CALLDATALOAD PUSH2 0x51DF DUP2 PUSH2 0x56BE JUMP JUMPDEST PUSH1 0x0 DUP1 PUSH1 0x0 DUP1 PUSH1 0x80 DUP6 DUP8 SUB SLT ISZERO PUSH2 0x5704 JUMPI PUSH1 0x0 DUP1 REVERT JUMPDEST PUSH2 0x570D DUP6 PUSH2 0x5654 JUMP JUMPDEST SWAP4 POP PUSH2 0x571B PUSH1 0x20 DUP7 ADD PUSH2 0x5654 JUMP JUMPDEST SWAP3 POP PUSH2 0x5729 PUSH1 0x40 DUP7 ADD PUSH2 0x5654 JUMP JUMPDEST SWAP4 SWAP7 SWAP3 SWAP6 POP SWAP3 SWAP4 PUSH1 0x60 ADD CALLDATALOAD SWAP3 POP POP JUMP JUMPDEST PUSH1 0x0 DUP1 PUSH1 0x0 DUP1 PUSH1 0x0 DUP1 PUSH1 0xC0 DUP8 DUP10 SUB SLT ISZERO PUSH2 0x5752 JUMPI PUSH1 0x0 DUP1 REVERT JUMPDEST PUSH2 0x575B DUP8 PUSH2 0x5654 JUMP JUMPDEST SWAP6 POP PUSH2 0x5769 PUSH1 0x20 DUP9 ADD PUSH2 0x5654 JUMP JUMPDEST SWAP5 POP PUSH2 0x5777 PUSH1 0x40 DUP9 ADD PUSH2 0x5654 JUMP JUMPDEST SWAP4 POP PUSH2 0x5785 PUSH1 0x60 DUP9 ADD PUSH2 0x5654 JUMP JUMPDEST SWAP3 POP PUSH2 0x5793 PUSH1 0x80 DUP9 ADD PUSH2 0x5654 JUMP JUMPDEST SWAP2 POP PUSH1 0xA0 DUP8 ADD CALLDATALOAD SWAP1 POP SWAP3 SWAP6 POP SWAP3 SWAP6 POP SWAP3 SWAP6 JUMP JUMPDEST PUSH1 0x0 DUP1 PUSH1 0x40 DUP4 DUP6 SUB SLT ISZERO PUSH2 0x57B9 JUMPI PUSH1 0x0 DUP1 REVERT JUMPDEST PUSH2 0x57C2 DUP4 PUSH2 0x5654 JUMP JUMPDEST SWAP2 POP PUSH2 0x57D0 PUSH1 0x20 DUP5 ADD PUSH2 0x5654 JUMP JUMPDEST SWAP1 POP SWAP3 POP SWAP3 SWAP1 POP JUMP JUMPDEST PUSH1 0x20 DUP1 DUP3 MSTORE DUP3 MLOAD DUP3 DUP3 ADD DUP2 SWAP1 MSTORE PUSH1 0x0 SWAP2 SWAP1 PUSH1 0x40 SWAP1 DUP2 DUP6 ADD SWAP1 DUP7 DUP5 ADD DUP6 JUMPDEST DUP3 DUP2 LT ISZERO PUSH2 0x589E JUMPI DUP2 MLOAD DUP1 MLOAD PUSH1 0xFF SWAP1 DUP2 AND DUP7 MSTORE DUP8 DUP3 ADD MLOAD DUP2 AND DUP9 DUP8 ADD MSTORE DUP7 DUP3 ADD MLOAD DUP2 AND DUP8 DUP8 ADD MSTORE PUSH1 0x60 DUP1 DUP4 ADD MLOAD SWAP1 SWAP2 AND SWAP1 DUP7 ADD MSTORE PUSH1 0x80 DUP1 DUP3 ADD MLOAD SWAP1 DUP7 ADD MSTORE PUSH1 0xA0 DUP1 DUP3 ADD MLOAD ISZERO ISZERO SWAP1 DUP7 ADD MSTORE PUSH1 0xC0 DUP1 DUP3 ADD MLOAD SWAP1 DUP7 ADD MSTORE PUSH1 0xE0 DUP1 DUP3 ADD MLOAD SWAP1 DUP7 ADD MSTORE PUSH2 0x100 DUP1 DUP3 ADD MLOAD SWAP1 DUP7 ADD MSTORE PUSH2 0x120 DUP1 DUP3 ADD MLOAD SWAP1 DUP7 ADD MSTORE PUSH2 0x140 DUP1 DUP3 ADD MLOAD SWAP1 DUP7 ADD MSTORE PUSH2 0x160 DUP1 DUP3 ADD MLOAD SWAP1 DUP7 ADD MSTORE PUSH2 0x180 SWAP1 DUP2 ADD MLOAD SWAP1 DUP6 ADD MSTORE PUSH2 0x1A0 SWAP1 SWAP4 ADD SWAP3 SWAP1 DUP6 ADD SWAP1 PUSH1 0x1 ADD PUSH2 0x57F6 JUMP JUMPDEST POP SWAP2 SWAP8 SWAP7 POP POP POP POP POP POP POP JUMP JUMPDEST PUSH1 0x0 DUP1 PUSH1 0x0 DUP1 PUSH1 0x80 DUP6 DUP8 SUB SLT ISZERO PUSH2 0x58C1 JUMPI PUSH1 0x0 DUP1 REVERT JUMPDEST PUSH2 0x58CA DUP6 PUSH2 0x5654 JUMP JUMPDEST SWAP4 POP PUSH2 0x58D8 PUSH1 0x20 DUP7 ADD PUSH2 0x5654 JUMP JUMPDEST SWAP4 SWAP7 SWAP4 SWAP6 POP POP POP POP PUSH1 0x40 DUP3 ADD CALLDATALOAD SWAP2 PUSH1 0x60 ADD CALLDATALOAD SWAP1 JUMP JUMPDEST PUSH1 0x0 DUP1 PUSH1 0x40 DUP4 DUP6 SUB SLT ISZERO PUSH2 0x5900 JUMPI PUSH1 0x0 DUP1 REVERT JUMPDEST POP POP DUP1 CALLDATALOAD SWAP3 PUSH1 0x20 SWAP1 SWAP2 ADD CALLDATALOAD SWAP2 POP JUMP JUMPDEST PUSH1 0x0 DUP1 PUSH1 0x0 DUP1 PUSH1 0x0 PUSH1 0xA0 DUP7 DUP9 SUB SLT ISZERO PUSH2 0x5927 JUMPI PUSH1 0x0 DUP1 REVERT JUMPDEST PUSH2 0x5930 DUP7 PUSH2 0x5654 JUMP JUMPDEST SWAP5 POP PUSH2 0x593E PUSH1 0x20 DUP8 ADD PUSH2 0x5654 JUMP JUMPDEST SWAP4 POP PUSH2 0x594C PUSH1 0x40 DUP8 ADD PUSH2 0x5654 JUMP JUMPDEST SWAP5 SWAP8 SWAP4 SWAP7 POP SWAP4 SWAP5 PUSH1 0x60 DUP2 ADD CALLDATALOAD SWAP5 POP PUSH1 0x80 ADD CALLDATALOAD SWAP3 SWAP2 POP POP JUMP JUMPDEST PUSH1 0x0 DUP1 PUSH1 0x0 PUSH1 0x60 DUP5 DUP7 SUB SLT ISZERO PUSH2 0x5979 JUMPI PUSH1 0x0 DUP1 REVERT JUMPDEST PUSH2 0x5982 DUP5 PUSH2 0x5654 JUMP JUMPDEST SWAP3 POP PUSH2 0x5990 PUSH1 0x20 DUP6 ADD PUSH2 0x5654 JUMP JUMPDEST SWAP2 POP PUSH2 0x599E PUSH1 0x40 DUP6 ADD PUSH2 0x5654 JUMP JUMPDEST SWAP1 POP SWAP3 POP SWAP3 POP SWAP3 JUMP JUMPDEST PUSH1 0x20 DUP1 DUP3 MSTORE DUP3 MLOAD DUP3 DUP3 ADD DUP2 SWAP1 MSTORE PUSH1 0x0 SWAP2 SWAP1 PUSH1 0x40 SWAP1 DUP2 DUP6 ADD SWAP1 DUP7 DUP5 ADD DUP6 JUMPDEST DUP3 DUP2 LT ISZERO PUSH2 0x589E JUMPI DUP2 MLOAD DUP1 MLOAD PUSH1 0xFF SWAP1 DUP2 AND DUP7 MSTORE DUP8 DUP3 ADD MLOAD DUP2 AND DUP9 DUP8 ADD MSTORE DUP7 DUP3 ADD MLOAD AND DUP7 DUP7 ADD MSTORE PUSH1 0x60 DUP1 DUP3 ADD MLOAD SWAP1 DUP7 ADD MSTORE PUSH1 0x80 SWAP1 DUP2 ADD MLOAD SWAP1 DUP6 ADD MSTORE PUSH1 0xA0 SWAP1 SWAP4 ADD SWAP3 SWAP1 DUP6 ADD SWAP1 PUSH1 0x1 ADD PUSH2 0x59C4 JUMP JUMPDEST PUSH32 0x4E487B7100000000000000000000000000000000000000000000000000000000 PUSH1 0x0 MSTORE PUSH1 0x11 PUSH1 0x4 MSTORE PUSH1 0x24 PUSH1 0x0 REVERT JUMPDEST DUP2 DUP2 SUB DUP2 DUP2 GT ISZERO PUSH2 0x39A9 JUMPI PUSH2 0x39A9 PUSH2 0x5A10 JUMP JUMPDEST PUSH32 0x4E487B7100000000000000000000000000000000000000000000000000000000 PUSH1 0x0 MSTORE PUSH1 0x32 PUSH1 0x4 MSTORE PUSH1 0x24 PUSH1 0x0 REVERT JUMPDEST PUSH1 0x0 PUSH1 0x0 NOT DUP3 SUB PUSH2 0x5A94 JUMPI PUSH2 0x5A94 PUSH2 0x5A10 JUMP JUMPDEST POP PUSH1 0x1 ADD SWAP1 JUMP JUMPDEST PUSH1 0x0 DUP2 PUSH2 0x5AAA JUMPI PUSH2 0x5AAA PUSH2 0x5A10 JUMP JUMPDEST POP PUSH1 0x0 NOT ADD SWAP1 JUMP JUMPDEST PUSH32 0x4E487B7100000000000000000000000000000000000000000000000000000000 PUSH1 0x0 MSTORE PUSH1 0x41 PUSH1 0x4 MSTORE PUSH1 0x24 PUSH1 0x0 REVERT JUMPDEST DUP1 DUP3 ADD DUP1 DUP3 GT ISZERO PUSH2 0x39A9 JUMPI PUSH2 0x39A9 PUSH2 0x5A10 JUMP JUMPDEST PUSH1 0x1 DUP2 DUP2 SHR SWAP1 DUP3 AND DUP1 PUSH2 0x5B08 JUMPI PUSH1 0x7F DUP3 AND SWAP2 POP JUMPDEST PUSH1 0x20 DUP3 LT DUP2 SUB PUSH2 0x5B41 JUMPI PUSH32 0x4E487B7100000000000000000000000000000000000000000000000000000000 PUSH1 0x0 MSTORE PUSH1 0x22 PUSH1 0x4 MSTORE PUSH1 0x24 PUSH1 0x0 REVERT JUMPDEST POP SWAP2 SWAP1 POP JUMP JUMPDEST DUP1 MLOAD PUSH1 0x1 PUSH1 0x1 PUSH1 0xA0 SHL SUB DUP2 AND DUP2 EQ PUSH2 0x5665 JUMPI PUSH1 0x0 DUP1 REVERT JUMPDEST PUSH1 0x0 PUSH1 0x20 DUP3 DUP5 SUB SLT ISZERO PUSH2 0x5B70 JUMPI PUSH1 0x0 DUP1 REVERT JUMPDEST PUSH2 0x39A6 DUP3 PUSH2 0x5B47 JUMP JUMPDEST PUSH1 0x0 PUSH1 0x20 DUP3 DUP5 SUB SLT ISZERO PUSH2 0x5B8B JUMPI PUSH1 0x0 DUP1 REVERT JUMPDEST POP MLOAD SWAP2 SWAP1 POP JUMP JUMPDEST DUP1 MLOAD DUP1 ISZERO ISZERO DUP2 EQ PUSH2 0x5665 JUMPI PUSH1 0x0 DUP1 REVERT JUMPDEST PUSH1 0x0 DUP1 PUSH1 0x0 DUP1 PUSH1 0x0 DUP1 PUSH1 0xC0 DUP8 DUP10 SUB SLT ISZERO PUSH2 0x5BBB JUMPI PUSH1 0x0 DUP1 REVERT JUMPDEST PUSH2 0x5BC4 DUP8 PUSH2 0x5B92 JUMP JUMPDEST SWAP6 POP PUSH2 0x5BD2 PUSH1 0x20 DUP9 ADD PUSH2 0x5B47 JUMP JUMPDEST SWAP5 POP PUSH2 0x5BE0 PUSH1 0x40 DUP9 ADD PUSH2 0x5B92 JUMP JUMPDEST SWAP4 POP PUSH1 0x60 DUP8 ADD MLOAD SWAP3 POP PUSH1 0x80 DUP8 ADD MLOAD SWAP2 POP PUSH1 0xA0 DUP8 ADD MLOAD SWAP1 POP SWAP3 SWAP6 POP SWAP3 SWAP6 POP SWAP3 SWAP6 JUMP JUMPDEST DUP1 DUP3 MUL DUP2 ISZERO DUP3 DUP3 DIV DUP5 EQ OR PUSH2 0x39A9 JUMPI PUSH2 0x39A9 PUSH2 0x5A10 JUMP JUMPDEST PUSH1 0x0 DUP3 PUSH2 0x5C4E JUMPI PUSH32 0x4E487B7100000000000000000000000000000000000000000000000000000000 PUSH1 0x0 MSTORE PUSH1 0x12 PUSH1 0x4 MSTORE PUSH1 0x24 PUSH1 0x0 REVERT JUMPDEST POP DIV SWAP1 JUMP JUMPDEST PUSH1 0x0 PUSH1 0x20 DUP3 DUP5 SUB SLT ISZERO PUSH2 0x5C65 JUMPI PUSH1 0x0 DUP1 REVERT JUMPDEST PUSH2 0x39A6 DUP3 PUSH2 0x5B92 JUMP JUMPDEST PUSH1 0xFF DUP2 DUP2 AND DUP4 DUP3 AND ADD SWAP1 DUP2 GT ISZERO PUSH2 0x39A9 JUMPI PUSH2 0x39A9 PUSH2 0x5A10 JUMP JUMPDEST PUSH1 0x40 MLOAD PUSH2 0x1E0 DUP2 ADD PUSH8 0xFFFFFFFFFFFFFFFF DUP2 GT DUP3 DUP3 LT OR ISZERO PUSH2 0x5CAB JUMPI PUSH2 0x5CAB PUSH2 0x5AB2 JUMP JUMPDEST PUSH1 0x40 MSTORE SWAP1 JUMP JUMPDEST DUP1 MLOAD PUSH2 0x5665 DUP2 PUSH2 0x56BE JUMP JUMPDEST PUSH1 0x0 PUSH2 0x1E0 DUP3 DUP5 SUB SLT ISZERO PUSH2 0x5CCF JUMPI PUSH1 0x0 DUP1 REVERT JUMPDEST PUSH2 0x5CD7 PUSH2 0x5C87 JUMP JUMPDEST DUP3 MLOAD DUP2 MSTORE PUSH1 0x20 DUP4 ADD MLOAD PUSH1 0x20 DUP3 ADD MSTORE PUSH1 0x40 DUP4 ADD MLOAD PUSH1 0x40 DUP3 ADD MSTORE PUSH1 0x60 DUP4 ADD MLOAD PUSH1 0x60 DUP3 ADD MSTORE PUSH2 0x5D05 PUSH1 0x80 DUP5 ADD PUSH2 0x5CB1 JUMP JUMPDEST PUSH1 0x80 DUP3 ADD MSTORE PUSH1 0xA0 DUP4 DUP2 ADD MLOAD SWAP1 DUP3 ADD MSTORE PUSH1 0xC0 DUP1 DUP5 ADD MLOAD SWAP1 DUP3 ADD MSTORE PUSH1 0xE0 DUP1 DUP5 ADD MLOAD SWAP1 DUP3 ADD MSTORE PUSH2 0x100 DUP1 DUP5 ADD MLOAD SWAP1 DUP3 ADD MSTORE PUSH2 0x120 DUP1 DUP5 ADD MLOAD SWAP1 DUP3 ADD MSTORE PUSH2 0x140 DUP1 DUP5 ADD MLOAD SWAP1 DUP3 ADD MSTORE PUSH2 0x160 DUP1 DUP5 ADD MLOAD SWAP1 DUP3 ADD MSTORE PUSH2 0x180 PUSH2 0x5D62 DUP2 DUP6 ADD PUSH2 0x5CB1 JUMP JUMPDEST SWAP1 DUP3 ADD MSTORE PUSH2 0x1A0 PUSH2 0x5D74 DUP5 DUP3 ADD PUSH2 0x5CB1 JUMP JUMPDEST SWAP1 DUP3 ADD MSTORE PUSH2 0x1C0 SWAP3 DUP4 ADD MLOAD SWAP3 DUP2 ADD SWAP3 SWAP1 SWAP3 MSTORE POP SWAP2 SWAP1 POP JUMP JUMPDEST PUSH32 0x4E487B7100000000000000000000000000000000000000000000000000000000 PUSH1 0x0 MSTORE PUSH1 0x31 PUSH1 0x4 MSTORE PUSH1 0x24 PUSH1 0x0 REVERT JUMPDEST PUSH1 0xFF DUP3 DUP2 AND DUP3 DUP3 AND SUB SWAP1 DUP2 GT ISZERO PUSH2 0x39A9 JUMPI PUSH2 0x39A9 PUSH2 0x5A10 JUMP JUMPDEST PUSH1 0x0 PUSH1 0x20 DUP3 DUP5 SUB SLT ISZERO PUSH2 0x5DE6 JUMPI PUSH1 0x0 DUP1 REVERT JUMPDEST DUP2 MLOAD PUSH2 0x51DF DUP2 PUSH2 0x56BE JUMP JUMPDEST PUSH1 0x0 PUSH1 0x20 DUP3 DUP5 SUB SLT ISZERO PUSH2 0x5E03 JUMPI PUSH1 0x0 DUP1 REVERT JUMPDEST DUP2 MLOAD PUSH8 0xFFFFFFFFFFFFFFFF DUP1 DUP3 GT ISZERO PUSH2 0x5E1B JUMPI PUSH1 0x0 DUP1 REVERT JUMPDEST DUP2 DUP5 ADD SWAP2 POP DUP5 PUSH1 0x1F DUP4 ADD SLT PUSH2 0x5E2F JUMPI PUSH1 0x0 DUP1 REVERT JUMPDEST DUP2 MLOAD DUP2 DUP2 GT ISZERO PUSH2 0x5E41 JUMPI PUSH2 0x5E41 PUSH2 0x5AB2 JUMP JUMPDEST PUSH1 0x40 MLOAD PUSH1 0x1F DUP3 ADD PUSH1 0x1F NOT SWAP1 DUP2 AND PUSH1 0x3F ADD AND DUP2 ADD SWAP1 DUP4 DUP3 GT DUP2 DUP4 LT OR ISZERO PUSH2 0x5E69 JUMPI PUSH2 0x5E69 PUSH2 0x5AB2 JUMP JUMPDEST DUP2 PUSH1 0x40 MSTORE DUP3 DUP2 MSTORE DUP8 PUSH1 0x20 DUP5 DUP8 ADD ADD GT ISZERO PUSH2 0x5E82 JUMPI PUSH1 0x0 DUP1 REVERT JUMPDEST PUSH2 0x5313 DUP4 PUSH1 0x20 DUP4 ADD PUSH1 0x20 DUP9 ADD PUSH2 0x54FB JUMP JUMPDEST PUSH1 0x1F DUP3 GT ISZERO PUSH2 0x3979 JUMPI PUSH1 0x0 DUP2 DUP2 MSTORE PUSH1 0x20 DUP2 KECCAK256 PUSH1 0x1F DUP6 ADD PUSH1 0x5 SHR DUP2 ADD PUSH1 0x20 DUP7 LT ISZERO PUSH2 0x5EBA JUMPI POP DUP1 JUMPDEST PUSH1 0x1F DUP6 ADD PUSH1 0x5 SHR DUP3 ADD SWAP2 POP JUMPDEST DUP2 DUP2 LT ISZERO PUSH2 0x17F8 JUMPI DUP3 DUP2 SSTORE PUSH1 0x1 ADD PUSH2 0x5EC6 JUMP JUMPDEST DUP2 MLOAD PUSH8 0xFFFFFFFFFFFFFFFF DUP2 GT ISZERO PUSH2 0x5EF3 JUMPI PUSH2 0x5EF3 PUSH2 0x5AB2 JUMP JUMPDEST PUSH2 0x5F07 DUP2 PUSH2 0x5F01 DUP5 SLOAD PUSH2 0x5AF4 JUMP JUMPDEST DUP5 PUSH2 0x5E93 JUMP JUMPDEST PUSH1 0x20 DUP1 PUSH1 0x1F DUP4 GT PUSH1 0x1 DUP2 EQ PUSH2 0x5F3C JUMPI PUSH1 0x0 DUP5 ISZERO PUSH2 0x5F24 JUMPI POP DUP6 DUP4 ADD MLOAD JUMPDEST PUSH1 0x0 NOT PUSH1 0x3 DUP7 SWAP1 SHL SHR NOT AND PUSH1 0x1 DUP6 SWAP1 SHL OR DUP6 SSTORE PUSH2 0x17F8 JUMP JUMPDEST PUSH1 0x0 DUP6 DUP2 MSTORE PUSH1 0x20 DUP2 KECCAK256 PUSH1 0x1F NOT DUP7 AND SWAP2 JUMPDEST DUP3 DUP2 LT ISZERO PUSH2 0x5F6B JUMPI DUP9 DUP7 ADD MLOAD DUP3 SSTORE SWAP5 DUP5 ADD SWAP5 PUSH1 0x1 SWAP1 SWAP2 ADD SWAP1 DUP5 ADD PUSH2 0x5F4C JUMP JUMPDEST POP DUP6 DUP3 LT ISZERO PUSH2 0x5F89 JUMPI DUP8 DUP6 ADD MLOAD PUSH1 0x0 NOT PUSH1 0x3 DUP9 SWAP1 SHL PUSH1 0xF8 AND SHR NOT AND DUP2 SSTORE JUMPDEST POP POP POP POP POP PUSH1 0x1 SWAP1 DUP2 SHL ADD SWAP1 SSTORE POP JUMP INVALID LOG2 PUSH5 0x6970667358 0x22 SLT KECCAK256 SWAP11 TIMESTAMP BLOCKHASH PUSH12 0x407F1A11C5DDAA2CD1E8E271 0xF6 0xAA XOR PC DUP8 SWAP1 0x25 0xAA CODECOPY MUL 0xE0 LOG0 EXTCODESIZE 0xE3 ORIGIN 0xF8 PUSH5 0x736F6C6343 STOP ADDMOD SLT STOP CALLER "
		},
		"gasEstimates": {
			"creation": {
				"codeDepositCost": "4905400",
				"executionCost": "infinite",
				"totalCost": "infinite"
			},
			"external": {
				"ATTACK_COST_FACTOR()": "264",
				"activeListingsByTile(uint16)": "2606",
				"attackTile(uint8,uint8,uint8,uint8)": "infinite",
				"buyItem(uint8,uint8,uint8,uint256)": "infinite",
				"cancelListing(uint8,uint8,uint8,uint256)": "infinite",
				"clanContract()": "2370",
				"getListingsByResourceType(uint8,uint8,uint8)": "infinite",
				"getMyResourceMessage(uint8,uint8)": "infinite",
				"getRecentTileWars(uint8,uint8)": "infinite",
				"getRecentWarHistoryWithClans()": "infinite",
				"getTileWarsInRange(uint8,uint8,uint256,uint256)": "infinite",
				"getWarHistoryWithClansInRange(uint256,uint256)": "infinite",
				"lastAttackTurn(uint8,uint8)": "infinite",
				"lastDefenseTurn(uint8,uint8)": "infinite",
				"listItemForSale(uint8,uint8,uint8,uint256,uint256)": "infinite",
				"lopToken()": "2373",
				"maybeAutoListIfInactive(uint8,uint8,uint8,uint8)": "infinite",
				"sendResources(uint8,uint8,uint8,uint8,uint8,uint256)": "infinite",
				"theLand()": "2371",
				"tileMapPhaser()": "2394"
			},
			"internal": {
				"_absDiff(uint8,uint8)": "infinite",
				"_applySoldierLoss(struct MarketPlace.AttackContext memory)": "infinite",
				"_calculatePowers(struct ITheLand.TileDataResponse memory,struct ITheLand.TileDataResponse memory,uint8,uint8)": "infinite",
				"_calculateSoldierLosses(struct ITheLand.TileDataResponse memory,struct ITheLand.TileDataResponse memory,uint256,uint256)": "infinite",
				"_capBetween(uint256,uint256,uint256)": "92",
				"_capLossPercent(uint256)": "infinite",
				"_decListings(uint8,uint8)": "26578",
				"_finalizeAttack(struct MarketPlace.AttackContext memory,struct MarketPlace.BattleResult memory,address,address)": "infinite",
				"_incListings(uint8,uint8)": "infinite",
				"_max(uint256,uint256)": "65",
				"_min(uint256,uint256)": "65",
				"_payAttackResourceCost(uint8,uint8,uint8,struct ITheLand.TileDataResponse memory)": "infinite",
				"_removeListingAt(uint8,uint256)": "188796",
				"_stealOneResource(uint8,uint256,uint8,uint8,uint8,uint8,uint256)": "infinite",
				"_stealResources(struct MarketPlace.AttackContext memory)": "infinite",
				"_tileKey(uint8,uint8)": "infinite",
				"_validateAttack(uint8,uint8,uint8,uint8,address,address)": "infinite"
			}
		},
		"methodIdentifiers": {
			"ATTACK_COST_FACTOR()": "10ac4633",
			"activeListingsByTile(uint16)": "30378338",
			"attackTile(uint8,uint8,uint8,uint8)": "697e71d2",
			"buyItem(uint8,uint8,uint8,uint256)": "999a2f7a",
			"cancelListing(uint8,uint8,uint8,uint256)": "3a965c90",
			"clanContract()": "c49443ac",
			"getListingsByResourceType(uint8,uint8,uint8)": "efcb01ba",
			"getMyResourceMessage(uint8,uint8)": "77f8c951",
			"getRecentTileWars(uint8,uint8)": "823e9282",
			"getRecentWarHistoryWithClans()": "21f65c90",
			"getTileWarsInRange(uint8,uint8,uint256,uint256)": "ada680cf",
			"getWarHistoryWithClansInRange(uint256,uint256)": "c399c2b0",
			"lastAttackTurn(uint8,uint8)": "763540cd",
			"lastDefenseTurn(uint8,uint8)": "70d27e41",
			"listItemForSale(uint8,uint8,uint8,uint256,uint256)": "ca030079",
			"lopToken()": "0d67f59e",
			"maybeAutoListIfInactive(uint8,uint8,uint8,uint8)": "2c400cb7",
			"sendResources(uint8,uint8,uint8,uint8,uint8,uint256)": "54adac10",
			"theLand()": "b0d77774",
			"tileMapPhaser()": "4f264b03"
		}
	},
	"abi": [
		{
			"inputs": [
				{
					"internalType": "address",
					"name": "_theLand",
					"type": "address"
				},
				{
					"internalType": "address",
					"name": "_lopToken",
					"type": "address"
				},
				{
					"internalType": "address",
					"name": "_tileMapPhaser",
					"type": "address"
				},
				{
					"internalType": "address",
					"name": "_clanContract",
					"type": "address"
				}
			],
			"stateMutability": "nonpayable",
			"type": "constructor"
		},
		{
			"inputs": [],
			"name": "ErrOwnsTile",
			"type": "error"
		},
		{
			"inputs": [],
			"name": "TargetAlreadyOnSale",
			"type": "error"
		},
		{
			"inputs": [],
			"name": "TargetRecentlyActive",
			"type": "error"
		},
		{
			"inputs": [],
			"name": "TargetUnoccupied",
			"type": "error"
		},
		{
			"anonymous": false,
			"inputs": [
				{
					"indexed": true,
					"internalType": "address",
					"name": "sender",
					"type": "address"
				},
				{
					"indexed": false,
					"internalType": "uint8",
					"name": "senderX",
					"type": "uint8"
				},
				{
					"indexed": false,
					"internalType": "uint8",
					"name": "senderY",
					"type": "uint8"
				},
				{
					"indexed": true,
					"internalType": "address",
					"name": "receiver",
					"type": "address"
				},
				{
					"indexed": false,
					"internalType": "uint8",
					"name": "receiverX",
					"type": "uint8"
				},
				{
					"indexed": false,
					"internalType": "uint8",
					"name": "receiverY",
					"type": "uint8"
				},
				{
					"indexed": false,
					"internalType": "uint8",
					"name": "resourceType",
					"type": "uint8"
				}
			],
			"name": "ResourcesSent",
			"type": "event"
		},
		{
			"anonymous": false,
			"inputs": [
				{
					"indexed": true,
					"internalType": "address",
					"name": "attacker",
					"type": "address"
				},
				{
					"indexed": false,
					"internalType": "uint8",
					"name": "attackerX",
					"type": "uint8"
				},
				{
					"indexed": false,
					"internalType": "uint8",
					"name": "attackerY",
					"type": "uint8"
				},
				{
					"indexed": true,
					"internalType": "address",
					"name": "defender",
					"type": "address"
				},
				{
					"indexed": false,
					"internalType": "uint8",
					"name": "defenderX",
					"type": "uint8"
				},
				{
					"indexed": false,
					"internalType": "uint8",
					"name": "defenderY",
					"type": "uint8"
				},
				{
					"indexed": false,
					"internalType": "bool",
					"name": "attackerWon",
					"type": "bool"
				}
			],
			"name": "TileAttacked",
			"type": "event"
		},
		{
			"inputs": [],
			"name": "ATTACK_COST_FACTOR",
			"outputs": [
				{
					"internalType": "uint256",
					"name": "",
					"type": "uint256"
				}
			],
			"stateMutability": "view",
			"type": "function"
		},
		{
			"inputs": [
				{
					"internalType": "uint16",
					"name": "",
					"type": "uint16"
				}
			],
			"name": "activeListingsByTile",
			"outputs": [
				{
					"internalType": "uint8",
					"name": "",
					"type": "uint8"
				}
			],
			"stateMutability": "view",
			"type": "function"
		},
		{
			"inputs": [
				{
					"internalType": "uint8",
					"name": "ax",
					"type": "uint8"
				},
				{
					"internalType": "uint8",
					"name": "ay",
					"type": "uint8"
				},
				{
					"internalType": "uint8",
					"name": "dx",
					"type": "uint8"
				},
				{
					"internalType": "uint8",
					"name": "dy",
					"type": "uint8"
				}
			],
			"name": "attackTile",
			"outputs": [],
			"stateMutability": "nonpayable",
			"type": "function"
		},
		{
			"inputs": [
				{
					"internalType": "uint8",
					"name": "x",
					"type": "uint8"
				},
				{
					"internalType": "uint8",
					"name": "y",
					"type": "uint8"
				},
				{
					"internalType": "uint8",
					"name": "resourceType",
					"type": "uint8"
				},
				{
					"internalType": "uint256",
					"name": "index",
					"type": "uint256"
				}
			],
			"name": "buyItem",
			"outputs": [],
			"stateMutability": "nonpayable",
			"type": "function"
		},
		{
			"inputs": [
				{
					"internalType": "uint8",
					"name": "sellerX",
					"type": "uint8"
				},
				{
					"internalType": "uint8",
					"name": "sellerY",
					"type": "uint8"
				},
				{
					"internalType": "uint8",
					"name": "resourceType",
					"type": "uint8"
				},
				{
					"internalType": "uint256",
					"name": "index",
					"type": "uint256"
				}
			],
			"name": "cancelListing",
			"outputs": [],
			"stateMutability": "nonpayable",
			"type": "function"
		},
		{
			"inputs": [],
			"name": "clanContract",
			"outputs": [
				{
					"internalType": "contract IClan",
					"name": "",
					"type": "address"
				}
			],
			"stateMutability": "view",
			"type": "function"
		},
		{
			"inputs": [
				{
					"internalType": "uint8",
					"name": "x",
					"type": "uint8"
				},
				{
					"internalType": "uint8",
					"name": "y",
					"type": "uint8"
				},
				{
					"internalType": "uint8",
					"name": "resourceType",
					"type": "uint8"
				}
			],
			"name": "getListingsByResourceType",
			"outputs": [
				{
					"components": [
						{
							"internalType": "uint8",
							"name": "sellerX",
							"type": "uint8"
						},
						{
							"internalType": "uint8",
							"name": "sellerY",
							"type": "uint8"
						},
						{
							"internalType": "uint8",
							"name": "resourceType",
							"type": "uint8"
						},
						{
							"internalType": "uint256",
							"name": "amount",
							"type": "uint256"
						},
						{
							"internalType": "uint256",
							"name": "price",
							"type": "uint256"
						}
					],
					"internalType": "struct MarketPlace.MarketItem[]",
					"name": "",
					"type": "tuple[]"
				}
			],
			"stateMutability": "view",
			"type": "function"
		},
		{
			"inputs": [
				{
					"internalType": "uint8",
					"name": "x",
					"type": "uint8"
				},
				{
					"internalType": "uint8",
					"name": "y",
					"type": "uint8"
				}
			],
			"name": "getMyResourceMessage",
			"outputs": [
				{
					"components": [
						{
							"internalType": "uint8",
							"name": "fromX",
							"type": "uint8"
						},
						{
							"internalType": "uint8",
							"name": "fromY",
							"type": "uint8"
						},
						{
							"internalType": "uint8",
							"name": "resourceType",
							"type": "uint8"
						},
						{
							"internalType": "uint256",
							"name": "amount",
							"type": "uint256"
						}
					],
					"internalType": "struct MarketPlace.ResourceMessage",
					"name": "",
					"type": "tuple"
				}
			],
			"stateMutability": "view",
			"type": "function"
		},
		{
			"inputs": [
				{
					"internalType": "uint8",
					"name": "x",
					"type": "uint8"
				},
				{
					"internalType": "uint8",
					"name": "y",
					"type": "uint8"
				}
			],
			"name": "getRecentTileWars",
			"outputs": [
				{
					"components": [
						{
							"internalType": "uint8",
							"name": "attackerX",
							"type": "uint8"
						},
						{
							"internalType": "uint8",
							"name": "attackerY",
							"type": "uint8"
						},
						{
							"internalType": "uint8",
							"name": "defenderX",
							"type": "uint8"
						},
						{
							"internalType": "uint8",
							"name": "defenderY",
							"type": "uint8"
						},
						{
							"internalType": "uint256",
							"name": "timestamp",
							"type": "uint256"
						},
						{
							"internalType": "bool",
							"name": "attackerWon",
							"type": "bool"
						},
						{
							"internalType": "uint256",
							"name": "attackerSoldiers",
							"type": "uint256"
						},
						{
							"internalType": "uint256",
							"name": "attackerCasualties",
							"type": "uint256"
						},
						{
							"internalType": "uint256",
							"name": "attackerPower",
							"type": "uint256"
						},
						{
							"internalType": "uint256",
							"name": "defenderSoldiers",
							"type": "uint256"
						},
						{
							"internalType": "uint256",
							"name": "defenderCasualties",
							"type": "uint256"
						},
						{
							"internalType": "uint256",
							"name": "defenderPower",
							"type": "uint256"
						},
						{
							"internalType": "uint256",
							"name": "resourcesStolen",
							"type": "uint256"
						}
					],
					"internalType": "struct MarketPlace.WarRecord[]",
					"name": "",
					"type": "tuple[]"
				}
			],
			"stateMutability": "view",
			"type": "function"
		},
		{
			"inputs": [],
			"name": "getRecentWarHistoryWithClans",
			"outputs": [
				{
					"components": [
						{
							"internalType": "uint8",
							"name": "attackerX",
							"type": "uint8"
						},
						{
							"internalType": "uint8",
							"name": "attackerY",
							"type": "uint8"
						},
						{
							"internalType": "uint8",
							"name": "defenderX",
							"type": "uint8"
						},
						{
							"internalType": "uint8",
							"name": "defenderY",
							"type": "uint8"
						},
						{
							"internalType": "uint256",
							"name": "timestamp",
							"type": "uint256"
						},
						{
							"internalType": "bool",
							"name": "attackerWon",
							"type": "bool"
						}
					],
					"internalType": "struct MarketPlace.WarRecordPublic[]",
					"name": "recentWars",
					"type": "tuple[]"
				},
				{
					"components": [
						{
							"internalType": "string",
							"name": "attackerClanNam",
							"type": "string"
						},
						{
							"internalType": "string",
							"name": "defenderClanNam",
							"type": "string"
						}
					],
					"internalType": "struct MarketPlace.WarRecordClan[]",
					"name": "recentClans",
					"type": "tuple[]"
				}
			],
			"stateMutability": "view",
			"type": "function"
		},
		{
			"inputs": [
				{
					"internalType": "uint8",
					"name": "x",
					"type": "uint8"
				},
				{
					"internalType": "uint8",
					"name": "y",
					"type": "uint8"
				},
				{
					"internalType": "uint256",
					"name": "fromTs",
					"type": "uint256"
				},
				{
					"internalType": "uint256",
					"name": "toTs",
					"type": "uint256"
				}
			],
			"name": "getTileWarsInRange",
			"outputs": [
				{
					"components": [
						{
							"internalType": "uint8",
							"name": "attackerX",
							"type": "uint8"
						},
						{
							"internalType": "uint8",
							"name": "attackerY",
							"type": "uint8"
						},
						{
							"internalType": "uint8",
							"name": "defenderX",
							"type": "uint8"
						},
						{
							"internalType": "uint8",
							"name": "defenderY",
							"type": "uint8"
						},
						{
							"internalType": "uint256",
							"name": "timestamp",
							"type": "uint256"
						},
						{
							"internalType": "bool",
							"name": "attackerWon",
							"type": "bool"
						},
						{
							"internalType": "uint256",
							"name": "attackerSoldiers",
							"type": "uint256"
						},
						{
							"internalType": "uint256",
							"name": "attackerCasualties",
							"type": "uint256"
						},
						{
							"internalType": "uint256",
							"name": "attackerPower",
							"type": "uint256"
						},
						{
							"internalType": "uint256",
							"name": "defenderSoldiers",
							"type": "uint256"
						},
						{
							"internalType": "uint256",
							"name": "defenderCasualties",
							"type": "uint256"
						},
						{
							"internalType": "uint256",
							"name": "defenderPower",
							"type": "uint256"
						},
						{
							"internalType": "uint256",
							"name": "resourcesStolen",
							"type": "uint256"
						}
					],
					"internalType": "struct MarketPlace.WarRecord[]",
					"name": "wars",
					"type": "tuple[]"
				}
			],
			"stateMutability": "view",
			"type": "function"
		},
		{
			"inputs": [
				{
					"internalType": "uint256",
					"name": "fromTs",
					"type": "uint256"
				},
				{
					"internalType": "uint256",
					"name": "toTs",
					"type": "uint256"
				}
			],
			"name": "getWarHistoryWithClansInRange",
			"outputs": [
				{
					"components": [
						{
							"internalType": "uint8",
							"name": "attackerX",
							"type": "uint8"
						},
						{
							"internalType": "uint8",
							"name": "attackerY",
							"type": "uint8"
						},
						{
							"internalType": "uint8",
							"name": "defenderX",
							"type": "uint8"
						},
						{
							"internalType": "uint8",
							"name": "defenderY",
							"type": "uint8"
						},
						{
							"internalType": "uint256",
							"name": "timestamp",
							"type": "uint256"
						},
						{
							"internalType": "bool",
							"name": "attackerWon",
							"type": "bool"
						}
					],
					"internalType": "struct MarketPlace.WarRecordPublic[]",
					"name": "wars",
					"type": "tuple[]"
				},
				{
					"components": [
						{
							"internalType": "string",
							"name": "attackerClanNam",
							"type": "string"
						},
						{
							"internalType": "string",
							"name": "defenderClanNam",
							"type": "string"
						}
					],
					"internalType": "struct MarketPlace.WarRecordClan[]",
					"name": "clans",
					"type": "tuple[]"
				}
			],
			"stateMutability": "view",
			"type": "function"
		},
		{
			"inputs": [
				{
					"internalType": "uint8",
					"name": "",
					"type": "uint8"
				},
				{
					"internalType": "uint8",
					"name": "",
					"type": "uint8"
				}
			],
			"name": "lastAttackTurn",
			"outputs": [
				{
					"internalType": "uint256",
					"name": "",
					"type": "uint256"
				}
			],
			"stateMutability": "view",
			"type": "function"
		},
		{
			"inputs": [
				{
					"internalType": "uint8",
					"name": "",
					"type": "uint8"
				},
				{
					"internalType": "uint8",
					"name": "",
					"type": "uint8"
				}
			],
			"name": "lastDefenseTurn",
			"outputs": [
				{
					"internalType": "uint256",
					"name": "",
					"type": "uint256"
				}
			],
			"stateMutability": "view",
			"type": "function"
		},
		{
			"inputs": [
				{
					"internalType": "uint8",
					"name": "x",
					"type": "uint8"
				},
				{
					"internalType": "uint8",
					"name": "y",
					"type": "uint8"
				},
				{
					"internalType": "uint8",
					"name": "resourceType",
					"type": "uint8"
				},
				{
					"internalType": "uint256",
					"name": "amount",
					"type": "uint256"
				},
				{
					"internalType": "uint256",
					"name": "price",
					"type": "uint256"
				}
			],
			"name": "listItemForSale",
			"outputs": [],
			"stateMutability": "nonpayable",
			"type": "function"
		},
		{
			"inputs": [],
			"name": "lopToken",
			"outputs": [
				{
					"internalType": "contract IHarmLop",
					"name": "",
					"type": "address"
				}
			],
			"stateMutability": "view",
			"type": "function"
		},
		{
			"inputs": [
				{
					"internalType": "uint8",
					"name": "fromX",
					"type": "uint8"
				},
				{
					"internalType": "uint8",
					"name": "fromY",
					"type": "uint8"
				},
				{
					"internalType": "uint8",
					"name": "x",
					"type": "uint8"
				},
				{
					"internalType": "uint8",
					"name": "y",
					"type": "uint8"
				}
			],
			"name": "maybeAutoListIfInactive",
			"outputs": [],
			"stateMutability": "nonpayable",
			"type": "function"
		},
		{
			"inputs": [
				{
					"internalType": "uint8",
					"name": "fromX",
					"type": "uint8"
				},
				{
					"internalType": "uint8",
					"name": "fromY",
					"type": "uint8"
				},
				{
					"internalType": "uint8",
					"name": "toX",
					"type": "uint8"
				},
				{
					"internalType": "uint8",
					"name": "toY",
					"type": "uint8"
				},
				{
					"internalType": "uint8",
					"name": "resourceType",
					"type": "uint8"
				},
				{
					"internalType": "uint256",
					"name": "amount",
					"type": "uint256"
				}
			],
			"name": "sendResources",
			"outputs": [],
			"stateMutability": "nonpayable",
			"type": "function"
		},
		{
			"inputs": [],
			"name": "theLand",
			"outputs": [
				{
					"internalType": "contract ITheLand",
					"name": "",
					"type": "address"
				}
			],
			"stateMutability": "view",
			"type": "function"
		},
		{
			"inputs": [],
			"name": "tileMapPhaser",
			"outputs": [
				{
					"internalType": "contract ITileMapPhaser",
					"name": "",
					"type": "address"
				}
			],
			"stateMutability": "view",
			"type": "function"
		}
	]
}