{
	"data": {
		"bytecode": {
			"linkReferences": {},
			"object": "60806040523480156200001157600080fd5b5060405162005598380380620055988339810160408190526200003491620000a5565b600080546001600160a01b039586166001600160a01b031991821617909155600180549486169482169490941790935560028054928516928416929092179091556003805491909316911617905562000102565b80516001600160a01b0381168114620000a057600080fd5b919050565b60008060008060808587031215620000bc57600080fd5b620000c78562000088565b9350620000d76020860162000088565b9250620000e76040860162000088565b9150620000f76060860162000088565b905092959194509250565b61548680620001126000396000f3fe608060405234801561001057600080fd5b50600436106101765760003560e01c8063697e71d2116100d8578063b0d777741161008c578063e450909a11610066578063e450909a146103d8578063f721ba5914610452578063fdff05bb1461047357600080fd5b8063b0d777741461039f578063c49443ac146103b2578063ca030079146103c557600080fd5b8063763540cd116100bd578063763540cd14610341578063823e92821461036c578063999a2f7a1461038c57600080fd5b8063697e71d21461030357806370d27e411461031657600080fd5b806321f65c901161012f5780634b4d9f89116101145780634b4d9f89146102bb5780634f264b03146102db57806354adac10146102ee57600080fd5b806321f65c901461026d5780633e6abf421461027557600080fd5b80630a3c826c116101605780630a3c826c146102195780630d67f59e1461023a57806310ac46331461026557600080fd5b806275c0791461017b578063092b1e1614610203575b600080fd5b61018e610189366004614a5e565b610486565b6040805160ff9e8f1681529c8e1660208e01529a8d169a8c019a909a529a90971660608a0152608089019590955292151560a088015260c087019190915260e08601526101008501526101208401526101408301526101608201929092526101808101919091526101a0015b60405180910390f35b61020b610505565b6040516101fa929190614b90565b61022c610227366004614c38565b6108b0565b6040519081526020016101fa565b60015461024d906001600160a01b031681565b6040516001600160a01b0390911681526020016101fa565b61022c606481565b61020b6108e1565b610288610283366004614c73565b610d2d565b6040805160ff9687168152948616602086015292909416918301919091526060820152608081019190915260a0016101fa565b6102ce6102c9366004614c91565b610d85565b6040516101fa9190614cae565b60025461024d906001600160a01b031681565b6103016102fc366004614d24565b610e92565b005b610301610311366004614d9d565b611757565b61022c610324366004614df9565b600760209081526000928352604080842090915290825290205481565b61022c61034f366004614df9565b600660209081526000928352604080842090915290825290205481565b61037f61037a366004614df9565b611b92565b6040516101fa9190614e32565b61030161039a366004614e45565b611e62565b60005461024d906001600160a01b031681565b60035461024d906001600160a01b031681565b6103016103d3366004614e96565b612751565b6104236103e6366004614df9565b60046020908152600092835260408084209091529082529020805460019091015460ff808316926101008104821692620100009091049091169084565b6040516101fa949392919060ff9485168152928416602084015292166040820152606081019190915260800190565b610465610460366004614a5e565b612c4f565b6040516101fa929190614ef1565b61037f610481366004614df9565b612d93565b6008818154811061049657600080fd5b60009182526020909120600a9091020180546001820154600283015460038401546004850154600586015460068701546007880154600889015460099099015460ff808a169b506101008a0481169a620100008b0482169a63010000009004821699989091169695949392918d565b60085460609081908067ffffffffffffffff81111561052657610526614f1f565b6040519080825280602002602001820160405280156105d057816020015b6105bd604051806101a00160405280600060ff168152602001600060ff168152602001600060ff168152602001600060ff16815260200160008152602001600015158152602001600081526020016000815260200160008152602001600081526020016000815260200160008152602001600081525090565b8152602001906001900390816105445790505b5092508067ffffffffffffffff8111156105ec576105ec614f1f565b60405190808252806020026020018201604052801561063157816020015b604080518082019091526060808252602082015281526020019060019003908161060a5790505b50915060005b818110156108aa576008818154811061065257610652614f4e565b6000918252602091829020604080516101a081018252600a909302909101805460ff80821685526101008083048216968601969096526201000082048116938501939093526301000000900482166060840152600181015460808401526002810154909116151560a0830152600381015460c0830152600481015460e0830152600581015492820192909252600682015461012082015260078201546101408201526008820154610160820152600990910154610180820152845185908390811061071f5761071f614f4e565b60200260200101819052506009818154811061073d5761073d614f4e565b906000526020600020906002020160405180604001604052908160008201805461076690614f7d565b80601f016020809104026020016040519081016040528092919081815260200182805461079290614f7d565b80156107df5780601f106107b4576101008083540402835291602001916107df565b820191906000526020600020905b8154815290600101906020018083116107c257829003601f168201915b505050505081526020016001820180546107f890614f7d565b80601f016020809104026020016040519081016040528092919081815260200182805461082490614f7d565b80156108715780601f1061084657610100808354040283529160200191610871565b820191906000526020600020905b81548152906001019060200180831161085457829003601f168201915b50505050508152505083828151811061088c5761088c614f4e565b602002602001018190525080806108a290614fff565b915050610637565b50509091565b600a60205281600052604060002081815481106108cc57600080fd5b90600052602060002001600091509150505481565b60608060006108f362093a8042615019565b6008549091506000905b801561096157826008610911600184615019565b8154811061092157610921614f4e565b90600052602060002090600a0201600101541061094a578161094281614fff565b92505061094f565b610961565b806109598161502c565b9150506108fd565b508067ffffffffffffffff81111561097b5761097b614f1f565b604051908082528060200260200182016040528015610a2557816020015b610a12604051806101a00160405280600060ff168152602001600060ff168152602001600060ff168152602001600060ff16815260200160008152602001600015158152602001600081526020016000815260200160008152602001600081526020016000815260200160008152602001600081525090565b8152602001906001900390816109995790505b5093508067ffffffffffffffff811115610a4157610a41614f1f565b604051908082528060200260200182016040528015610a8657816020015b6040805180820190915260608082526020820152815260200190600190039081610a5f5790505b50600854909350600090610a9b908390615019565b905060005b82811015610d25576008610ab48284615043565b81548110610ac457610ac4614f4e565b6000918252602091829020604080516101a081018252600a909302909101805460ff80821685526101008083048216968601969096526201000082048116938501939093526301000000900482166060840152600181015460808401526002810154909116151560a0830152600381015460c0830152600481015460e08301526005810154928201929092526006820154610120820152600782015461014082015260088201546101608201526009909101546101808201528651879083908110610b9157610b91614f4e565b60209081029190910101526009610ba88284615043565b81548110610bb857610bb8614f4e565b9060005260206000209060020201604051806040016040529081600082018054610be190614f7d565b80601f0160208091040260200160405190810160405280929190818152602001828054610c0d90614f7d565b8015610c5a5780601f10610c2f57610100808354040283529160200191610c5a565b820191906000526020600020905b815481529060010190602001808311610c3d57829003601f168201915b50505050508152602001600182018054610c7390614f7d565b80601f0160208091040260200160405190810160405280929190818152602001828054610c9f90614f7d565b8015610cec5780601f10610cc157610100808354040283529160200191610cec565b820191906000526020600020905b815481529060010190602001808311610ccf57829003601f168201915b505050505081525050858281518110610d0757610d07614f4e565b60200260200101819052508080610d1d90614fff565b915050610aa0565b505050509091565b60056020528160005260406000208181548110610d4957600080fd5b600091825260209091206003909102018054600182015460029092015460ff808316955061010083048116945062010000909204909116919085565b606060018260ff1610158015610d9f575060088260ff1611155b610df05760405162461bcd60e51b815260206004820152601560248201527f496e76616c6964207265736f757263652074797065000000000000000000000060448201526064015b60405180910390fd5b60ff8216600090815260056020908152604080832080548251818502810185019093528083529193909284015b82821015610e875760008481526020908190206040805160a08101825260038602909201805460ff80821685526101008204811685870152620100009091041691830191909152600180820154606084015260029091015460808301529083529092019101610e1d565b505050509050919050565b600254604051638a88895360e01b815260ff8089166004830152871660248201528791879133916001600160a01b031690638a88895390604401602060405180830381865afa158015610ee9573d6000803e3d6000fd5b505050506040513d601f19601f82011682018060405250810190610f0d9190615056565b6001600160a01b031614610f635760405162461bcd60e51b815260206004820152601860248201527f596f7520646f206e6f74206f776e20746869732074696c6500000000000000006044820152606401610de7565b6000546040517f4855735c00000000000000000000000000000000000000000000000000000000815260ff808b166004830152891660248201526001600160a01b0390911690634855735c90604401602060405180830381865afa158015610fcf573d6000803e3d6000fd5b505050506040513d601f19601f82011682018060405250810190610ff3919061507f565b61103f5760405162461bcd60e51b815260206004820152601660248201527f596f75206d75737420686176652061204d61726b6574000000000000000000006044820152606401610de7565b600254604051638a88895360e01b815260ff8089166004830152871660248201526000916001600160a01b031690638a88895390604401602060405180830381865afa158015611093573d6000803e3d6000fd5b505050506040513d601f19601f820116820180604052508101906110b79190615056565b90506001600160a01b03811661110f5760405162461bcd60e51b815260206004820152601960248201527f5461726765742074696c6520697320756e6f63637570696564000000000000006044820152606401610de7565b60018560ff1610158015611127575060088560ff1611155b6111735760405162461bcd60e51b815260206004820152601560248201527f496e76616c6964207265736f75726365207479706500000000000000000000006044820152606401610de7565b601e8410156111c45760405162461bcd60e51b815260206004820152601460248201527f416d6f756e74206d757374206265203e3d2033300000000000000000000000006044820152606401610de7565b60006111d08988612fab565b6111da8b8a612fab565b6111e491906150a1565b905060008160ff161180156111fd575060268160ff1611155b6112495760405162461bcd60e51b815260206004820152601060248201527f496e76616c69642064697374616e6365000000000000000000000000000000006044820152606401610de7565b6305f5e100600061125d60ff8416836150ba565b6001546040517f23b872dd000000000000000000000000000000000000000000000000000000008152336004820152306024820152604481018390529192506001600160a01b0316906323b872dd906064016020604051808303816000875af11580156112ce573d6000803e3d6000fd5b505050506040513d601f19601f820116820180604052508101906112f2919061507f565b61133e5760405162461bcd60e51b815260206004820152601760248201527f4c4f5020666565207472616e73666572206661696c65640000000000000000006044820152606401610de7565b6001546040517f42966c68000000000000000000000000000000000000000000000000000000008152600481018390526001600160a01b03909116906342966c68906024016020604051808303816000875af11580156113a2573d6000803e3d6000fd5b505050506040513d601f19601f820116820180604052508101906113c6919061507f565b6114125760405162461bcd60e51b815260206004820152600f60248201527f4c4f50206275726e206661696c656400000000000000000000000000000000006044820152606401610de7565b6000601e6114238960ff87166150ba565b61142d91906150d1565b6000549091506001600160a01b0316633e5f28578e8e8c61144e868e615043565b6040517fffffffff0000000000000000000000000000000000000000000000000000000060e087901b16815260ff948516600482015292841660248401529216604482015260648101919091526000608482015260a401600060405180830381600087803b1580156114bf57600080fd5b505af11580156114d3573d6000803e3d6000fd5b5050600054604051633e5f285760e01b81526001600160a01b039091169250633e5f28579150611539908e908e908e908e9060019060040160ff958616815293851660208501529190931660408301526060820192909252901515608082015260a00190565b600060405180830381600087803b15801561155357600080fd5b505af1158015611567573d6000803e3d6000fd5b5050505060405180608001604052808e60ff1681526020018d60ff1681526020018a60ff16815260200189815250600460008d60ff1660ff16815260200190815260200160002060008c60ff1660ff16815260200190815260200160002060008201518160000160006101000a81548160ff021916908360ff16021790555060208201518160000160016101000a81548160ff021916908360ff16021790555060408201518160000160026101000a81548160ff021916908360ff1602179055506060820151816001015590505060008054906101000a90046001600160a01b03166001600160a01b0316639a4a20848c8c60016040518463ffffffff1660e01b81526004016116929392919060ff9384168152919092166020820152901515604082015260600190565b600060405180830381600087803b1580156116ac57600080fd5b505af11580156116c0573d6000803e3d6000fd5b50505050846001600160a01b0316336001600160a01b03167e67dfeea804f8fe6061721d87a7e3fc301838c6abdad26d1b988b904984fa668f8f8f8f8f8f6040516117409695949392919060ff9687168152948616602086015292851660408501529084166060840152909216608082015260a081019190915260c00190565b60405180910390a350505050505050505050505050565b600254604051638a88895360e01b815260ff8087166004830152851660248201528591859133916001600160a01b031690638a88895390604401602060405180830381865afa1580156117ae573d6000803e3d6000fd5b505050506040513d601f19601f820116820180604052508101906117d29190615056565b6001600160a01b0316146118285760405162461bcd60e51b815260206004820152601860248201527f596f7520646f206e6f74206f776e20746869732074696c6500000000000000006044820152606401610de7565b600254604051638a88895360e01b815260ff8087166004830152851660248201526000916001600160a01b031690638a88895390604401602060405180830381865afa15801561187c573d6000803e3d6000fd5b505050506040513d601f19601f820116820180604052508101906118a09190615056565b90506001600160a01b0381166118f85760405162461bcd60e51b815260206004820152600b60248201527f4e6f20646566656e6465720000000000000000000000000000000000000000006044820152606401610de7565b611906878787873386612fda565b61190e6148c1565b60ff88811680835288821660208401819052888316604080860191909152928816606085015260005492517fbd638378000000000000000000000000000000000000000000000000000000008152600481019290925260248201526001600160a01b039091169063bd638378906044016101e060405180830381865afa15801561199c573d6000803e3d6000fd5b505050506040513d601f19601f820116820180604052508101906119c09190615151565b60808201526000546040517fbd63837800000000000000000000000000000000000000000000000000000000815260ff8089166004830152871660248201526001600160a01b039091169063bd638378906044016101e060405180830381865afa158015611a32573d6000803e3d6000fd5b505050506040513d601f19601f82011682018060405250810190611a569190615151565b60a082015260808101516101400151600a1115611adb5760405162461bcd60e51b815260206004820152602d60248201527f4e656564206174206c65617374203130206f6666656e7369766520736f6c646960448201527f65727320746f2061747461636b000000000000000000000000000000000000006064820152608401610de7565b6000611ae78887612fab565b611af18a89612fab565b611afb91906150a1565b9050611b0d89898385608001516134e7565b611b2182608001518360a0015189896137f0565b60e084015260c08301526000611b3683613942565b905060008360e001518460c001511115611b5657611b5384613be4565b90505b611b5e614a14565b8281526020810182905260e085015160c0860151116040820152611b8485823389613d4a565b505050505050505050505050565b60ff8116600883901b61ff0016176000818152600a6020526040812060609291611bbf62093a8042615019565b82549091506000905b8015611c485782600885611bdd600185615019565b81548110611bed57611bed614f4e565b906000526020600020015481548110611c0857611c08614f4e565b90600052602060002090600a02016001015410611c315781611c2981614fff565b925050611c36565b611c48565b80611c408161502c565b915050611bc8565b5060008167ffffffffffffffff811115611c6457611c64614f1f565b604051908082528060200260200182016040528015611d0e57816020015b611cfb604051806101a00160405280600060ff168152602001600060ff168152602001600060ff168152602001600060ff16815260200160008152602001600015158152602001600081526020016000815260200160008152602001600081526020016000815260200160008152602001600081525090565b815260200190600190039081611c825790505b508454909150600090611d22908490615019565b905060005b83811015611e5257600886611d3c8385615043565b81548110611d4c57611d4c614f4e565b906000526020600020015481548110611d6757611d67614f4e565b6000918252602091829020604080516101a081018252600a909302909101805460ff80821685526101008083048216968601969096526201000082048116938501939093526301000000900482166060840152600181015460808401526002810154909116151560a0830152600381015460c0830152600481015460e08301526005810154928201929092526006820154610120820152600782015461014082015260088201546101608201526009909101546101808201528351849083908110611e3457611e34614f4e565b60200260200101819052508080611e4a90614fff565b915050611d27565b5090955050505050505b92915050565b600254604051638a88895360e01b815260ff8087166004830152851660248201528591859133916001600160a01b031690638a88895390604401602060405180830381865afa158015611eb9573d6000803e3d6000fd5b505050506040513d601f19601f82011682018060405250810190611edd9190615056565b6001600160a01b031614611f335760405162461bcd60e51b815260206004820152601860248201527f596f7520646f206e6f74206f776e20746869732074696c6500000000000000006044820152606401610de7565b6000546040517f4855735c00000000000000000000000000000000000000000000000000000000815260ff8089166004830152871660248201526001600160a01b0390911690634855735c90604401602060405180830381865afa158015611f9f573d6000803e3d6000fd5b505050506040513d601f19601f82011682018060405250810190611fc3919061507f565b61200f5760405162461bcd60e51b815260206004820152601660248201527f596f75206d75737420686176652061204d61726b6574000000000000000000006044820152606401610de7565b60ff841660009081526005602052604090205483106120705760405162461bcd60e51b815260206004820152600d60248201527f496e76616c696420696e646578000000000000000000000000000000000000006044820152606401610de7565b60018460ff1610158015612088575060088460ff1611155b6120d45760405162461bcd60e51b815260206004820152601560248201527f496e76616c6964207265736f75726365207479706500000000000000000000006044820152606401610de7565b60ff841660009081526005602052604081208054859081106120f8576120f8614f4e565b600091825260208083206040805160a081018252600394909402909101805460ff808216808752610100830482169587018690526201000090920416858401526001820154606086018190526002928301546080870181905292549351638a88895360e01b8152600481019290925260248201949094529395509391926001600160a01b0390911690638a88895390604401602060405180830381865afa1580156121a7573d6000803e3d6000fd5b505050506040513d601f19601f820116820180604052508101906121cb9190615056565b90506001600160a01b0381166122235760405162461bcd60e51b815260206004820152601360248201527f53656c6c65722074696c6520756e6f776e6564000000000000000000000000006044820152606401610de7565b6000606e6122328560646150ba565b61223c91906150d1565b9050600061224a8286615019565b6001546040517f23b872dd000000000000000000000000000000000000000000000000000000008152336004820152306024820152604481018890529192506001600160a01b0316906323b872dd906064016020604051808303816000875af11580156122bb573d6000803e3d6000fd5b505050506040513d601f19601f820116820180604052508101906122df919061507f565b6123515760405162461bcd60e51b815260206004820152602160248201527f546f6b656e207472616e7366657220746f20636f6e7472616374206661696c6560448201527f64000000000000000000000000000000000000000000000000000000000000006064820152608401610de7565b6001546040517fa9059cbb0000000000000000000000000000000000000000000000000000000081526001600160a01b038581166004830152602482018590529091169063a9059cbb906044016020604051808303816000875af11580156123bd573d6000803e3d6000fd5b505050506040513d601f19601f820116820180604052508101906123e1919061507f565b61242d5760405162461bcd60e51b815260206004820152601960248201527f5472616e7366657220746f2073656c6c6572206661696c6564000000000000006044820152606401610de7565b6001546040517f42966c68000000000000000000000000000000000000000000000000000000008152600481018390526001600160a01b03909116906342966c68906024016020604051808303816000875af1158015612491573d6000803e3d6000fd5b505050506040513d601f19601f820116820180604052508101906124b5919061507f565b6125015760405162461bcd60e51b815260206004820152600f60248201527f4c4f50206275726e206661696c656400000000000000000000000000000000006044820152606401610de7565b600054604051633e5f285760e01b815260ff808f166004830152808e1660248301528c16604482015260648101869052600160848201526001600160a01b0390911690633e5f28579060a401600060405180830381600087803b15801561256757600080fd5b505af115801561257b573d6000803e3d6000fd5b5050505060ff8a166000908152600560205260409020805461259f90600190615019565b815481106125af576125af614f4e565b9060005260206000209060030201600560008c60ff1660ff1681526020019081526020016000208a815481106125e7576125e7614f4e565b60009182526020808320845460039093020180547fffffffffffffffffffffffffffffffffffffffffffffffffffffffffffffff00811660ff948516908117835586546101009081900486160261ffff199092161717808255855462010000908190048516027fffffffffffffffffffffffffffffffffffffffffffffffffffffffffff00ffff909116178155600180860154908201556002948501549401939093558c1681526005909152604090208054806126a6576126a6615221565b60008281526020812060036000199093019283020180547fffffffffffffffffffffffffffffffffffffffffffffffffffffffffff0000001681556001810182905560020155905560405160ff8b16906001600160a01b0385169033907fcb8e9dce1a8c67703d11d2b78043345960bab3c035aa061005630270b28c89ec9061273b9089908b90918252602082015260400190565b60405180910390a4505050505050505050505050565b600254604051638a88895360e01b815260ff8088166004830152861660248201528691869133916001600160a01b031690638a88895390604401602060405180830381865afa1580156127a8573d6000803e3d6000fd5b505050506040513d601f19601f820116820180604052508101906127cc9190615056565b6001600160a01b0316146128225760405162461bcd60e51b815260206004820152601860248201527f596f7520646f206e6f74206f776e20746869732074696c6500000000000000006044820152606401610de7565b6000546040517f4855735c00000000000000000000000000000000000000000000000000000000815260ff808a166004830152881660248201526001600160a01b0390911690634855735c90604401602060405180830381865afa15801561288e573d6000803e3d6000fd5b505050506040513d601f19601f820116820180604052508101906128b2919061507f565b6128fe5760405162461bcd60e51b815260206004820152601660248201527f596f75206d75737420686176652061204d61726b6574000000000000000000006044820152606401610de7565b629896808310156129515760405162461bcd60e51b815260206004820152601e60248201527f5072696365206d7573742062652067726561746572207468616e2074656e00006044820152606401610de7565b60018560ff1610158015612969575060088560ff1611155b6129b55760405162461bcd60e51b815260206004820152601560248201527f496e76616c6964207265736f75726365207479706500000000000000000000006044820152606401610de7565b60048560ff1611612a275761271084101580156129d657506305f5e1008411155b612a225760405162461bcd60e51b815260206004820152601b60248201527f496e76616c696420616d6f756e7420666f72207265736f7572636500000000006044820152606401610de7565b612aac565b60648410158015612a3a57506127108411155b612aac5760405162461bcd60e51b815260206004820152602560248201527f496e76616c696420616d6f756e7420666f72206d696c6974617279206571756960448201527f706d656e740000000000000000000000000000000000000000000000000000006064820152608401610de7565b60008054604051633e5f285760e01b815260ff808b166004830152808a166024830152881660448201526064810187905260848101929092526001600160a01b031690633e5f28579060a401600060405180830381600087803b158015612b1257600080fd5b505af1158015612b26573d6000803e3d6000fd5b505050506000600a84612b3991906150d1565b612b439085615043565b60ff8088166000818152600560209081526040808320815160a0810183528f871681528e8716818501908152818401878152606083018f8152608084018b8152855460018181018855968a5297909820935160039097029093018054925191518a1662010000027fffffffffffffffffffffffffffffffffffffffffffffffffffffffffff00ffff928b166101000261ffff1990941697909a16969096179190911716969096178355945194820194909455905160029091015590519192509033907f9d2fa11e70f4c72f4275d772a6e09bbd83b3800a6b4f2351a7ac06df8db5169e90612c3d9089908990918252602082015260400190565b60405180910390a35050505050505050565b60098181548110612c5f57600080fd5b9060005260206000209060020201600091509050806000018054612c8290614f7d565b80601f0160208091040260200160405190810160405280929190818152602001828054612cae90614f7d565b8015612cfb5780601f10612cd057610100808354040283529160200191612cfb565b820191906000526020600020905b815481529060010190602001808311612cde57829003601f168201915b505050505090806001018054612d1090614f7d565b80601f0160208091040260200160405190810160405280929190818152602001828054612d3c90614f7d565b8015612d895780601f10612d5e57610100808354040283529160200191612d89565b820191906000526020600020905b815481529060010190602001808311612d6c57829003601f168201915b5050505050905082565b60ff8116600883901b61ff0016176000818152600a602052604081208054606093929067ffffffffffffffff811115612dce57612dce614f1f565b604051908082528060200260200182016040528015612e7857816020015b612e65604051806101a00160405280600060ff168152602001600060ff168152602001600060ff168152602001600060ff16815260200160008152602001600015158152602001600081526020016000815260200160008152602001600081526020016000815260200160008152602001600081525090565b815260200190600190039081612dec5790505b50905060005b8254811015612fa1576008838281548110612e9b57612e9b614f4e565b906000526020600020015481548110612eb657612eb6614f4e565b6000918252602091829020604080516101a081018252600a909302909101805460ff80821685526101008083048216968601969096526201000082048116938501939093526301000000900482166060840152600181015460808401526002810154909116151560a0830152600381015460c0830152600481015460e08301526005810154928201929092526006820154610120820152600782015461014082015260088201546101608201526009909101546101808201528251839083908110612f8357612f83614f4e565b60200260200101819052508080612f9990614fff565b915050612e7e565b5095945050505050565b60008160ff168360ff1611612fc957612fc48383615250565b612fd3565b612fd38284615250565b9392505050565b816001600160a01b0316816001600160a01b03160361303b5760405162461bcd60e51b815260206004820152601560248201527f43616e27742061747461636b20796f757273656c6600000000000000000000006044820152606401610de7565b6003546040517f7ab9e7fe00000000000000000000000000000000000000000000000000000000815260ff8089166004830152871660248201526000916001600160a01b031690637ab9e7fe90604401602060405180830381865afa1580156130a8573d6000803e3d6000fd5b505050506040513d601f19601f820116820180604052508101906130cc9190615269565b6003546040517f7ab9e7fe00000000000000000000000000000000000000000000000000000000815260ff8089166004830152871660248201529192506000916001600160a01b0390911690637ab9e7fe90604401602060405180830381865afa15801561313e573d6000803e3d6000fd5b505050506040513d601f19601f820116820180604052508101906131629190615269565b905060ff82161580613175575060ff8116155b8061318657508060ff168260ff1614155b6131f85760405162461bcd60e51b815260206004820152602760248201527f43616e6e6f742061747461636b2061206d656d626572206f6620796f7572206f60448201527f776e20636c616e000000000000000000000000000000000000000000000000006064820152608401610de7565b60006132048887612fab565b61320e8a89612fab565b61321891906150a1565b905060008160ff16118015613231575060268160ff1611155b61327d5760405162461bcd60e51b815260206004820152601b60248201527f54617267657420746f6f20666172206f722073616d652074696c6500000000006044820152606401610de7565b60ff808a166000908152600660209081526040808320938c16835292905220546132a8906096615043565b6000546040517f41ede44f00000000000000000000000000000000000000000000000000000000815260ff808d1660048301528b1660248201526001600160a01b03909116906341ede44f90604401602060405180830381865afa158015613314573d6000803e3d6000fd5b505050506040513d601f19601f820116820180604052508101906133389190615286565b10156133ac5760405162461bcd60e51b815260206004820152602260248201527f4e6f7420656e6f756768207475726e732073696e6365206c617374206174746160448201527f636b0000000000000000000000000000000000000000000000000000000000006064820152608401610de7565b60ff8088166000908152600760209081526040808320938a16835292905220546133d89061012c615043565b6000546040517f41ede44f00000000000000000000000000000000000000000000000000000000815260ff808b166004830152891660248201526001600160a01b03909116906341ede44f90604401602060405180830381865afa158015613444573d6000803e3d6000fd5b505050506040513d601f19601f820116820180604052508101906134689190615286565b10156134dc5760405162461bcd60e51b815260206004820152602560248201527f446566656e64657220697320756e64657220636f6f6c646f776e2070726f746560448201527f6374696f6e0000000000000000000000000000000000000000000000000000006064820152608401610de7565b505050505050505050565b60008161016001518261014001516134ff9190615043565b61350d60ff851660646150ba565b61351791906150ba565b6000549091506001600160a01b0316633e5f285786866001606461353c8760286150ba565b61354691906150d1565b6040517fffffffff0000000000000000000000000000000000000000000000000000000060e087901b16815260ff948516600482015292841660248401529216604482015260648101919091526000608482015260a401600060405180830381600087803b1580156135b757600080fd5b505af11580156135cb573d6000803e3d6000fd5b50506000546001600160a01b03169150633e5f285790508686600260646135f387601e6150ba565b6135fd91906150d1565b6040517fffffffff0000000000000000000000000000000000000000000000000000000060e087901b16815260ff948516600482015292841660248401529216604482015260648101919091526000608482015260a401600060405180830381600087803b15801561366e57600080fd5b505af1158015613682573d6000803e3d6000fd5b50506000546001600160a01b03169150633e5f285790508686600360646136aa8760146150ba565b6136b491906150d1565b6040517fffffffff0000000000000000000000000000000000000000000000000000000060e087901b16815260ff948516600482015292841660248401529216604482015260648101919091526000608482015260a401600060405180830381600087803b15801561372557600080fd5b505af1158015613739573d6000803e3d6000fd5b50506000546001600160a01b03169150633e5f2857905086866004606461376187600a6150ba565b61376b91906150d1565b6040517fffffffff0000000000000000000000000000000000000000000000000000000060e087901b16815260ff948516600482015292841660248401529216604482015260648101919091526000608482015260a401600060405180830381600087803b1580156137dc57600080fd5b505af11580156134dc573d6000803e3d6000fd5b600080546040517f2a490ae800000000000000000000000000000000000000000000000000000000815260ff808616600483015284166024820152829182916001600160a01b0390911690632a490ae890604401602060405180830381865afa158015613861573d6000803e3d6000fd5b505050506040513d601f19601f820116820180604052508101906138859190615286565b90506000876080015161ffff1688610180015160ff168961016001518a610140015160026138b391906150ba565b6138bd9190615043565b6138c79190615043565b6138d19190615043565b905060006138e08360646150ba565b886080015161ffff16896101a0015160ff168a6101600151600261390491906150ba565b8b61014001516139149190615043565b61391e9190615043565b6139289190615043565b6139329190615043565b9199919850909650505050505050565b61396d6040518060800160405280600081526020016000815260200160008152602001600081525090565b600061398b83608001518460a001518560c001518660e001516144e5565b805190915015613a1c5760008054845160208601518451604051633e5f285760e01b815260ff938416600482015292909116602483015260096044830152606482015260848101929092526001600160a01b031690633e5f28579060a401600060405180830381600087803b158015613a0357600080fd5b505af1158015613a17573d6000803e3d6000fd5b505050505b602081015115613ab05760008054845160208087015190850151604051633e5f285760e01b815260ff9384166004820152929091166024830152600a6044830152606482015260848101929092526001600160a01b031690633e5f28579060a401600060405180830381600087803b158015613a9757600080fd5b505af1158015613aab573d6000803e3d6000fd5b505050505b604081015115613b4757600080546040858101516060870151858301519251633e5f285760e01b815260ff92831660048201529116602482015260096044820152606481019190915260848101929092526001600160a01b031690633e5f28579060a401600060405180830381600087803b158015613b2e57600080fd5b505af1158015613b42573d6000803e3d6000fd5b505050505b606081015115611e5c5760008054604085810151606080880151908601519251633e5f285760e01b815260ff928316600482015291166024820152600a6044820152606481019190915260848101929092526001600160a01b031690633e5f28579060a401600060405180830381600087803b158015613bc657600080fd5b505af1158015613bda573d6000803e3d6000fd5b5050505092915050565b6000808260e001518360c0015111613c0f578260c001518360e00151613c0a9190615019565b613c23565b8260e001518360c00151613c239190615019565b905060008360e001518460c00151613c3b9190615043565b9050600081613c4b8460646150ba565b613c5591906150d1565b90506000613c70613c6783601e615043565b600a603c61472f565b9050613c9a60018760a0015160000151886000015189602001518a604001518b6060015187614757565b613ca49086615043565b9450613cce60028760a0015160200151886000015189602001518a604001518b6060015187614757565b613cd89086615043565b9450613d0260038760a0015160400151886000015189602001518a604001518b6060015187614757565b613d0c9086615043565b9450613d3660048760a0015160600151886000015189602001518a604001518b6060015187614757565b613d409086615043565b9695505050505050565b600054845160208601516040517f41ede44f00000000000000000000000000000000000000000000000000000000815260ff9283166004820152911660248201526001600160a01b03909116906341ede44f90604401602060405180830381865afa158015613dbd573d6000803e3d6000fd5b505050506040513d601f19601f82011682018060405250810190613de19190615286565b845160ff9081166000908152600660209081526040808320828a015190941683529290528190209190915583015115613ed957600054604085810151606087015191517f41ede44f00000000000000000000000000000000000000000000000000000000815260ff9182166004820152911660248201526001600160a01b03909116906341ede44f90604401602060405180830381865afa158015613e8a573d6000803e3d6000fd5b505050506040513d601f19601f82011682018060405250810190613eae9190615286565b60408086015160ff90811660009081526007602090815283822060608a015190931682529190915220555b600054845160208601516040517f7659bc6000000000000000000000000000000000000000000000000000000000815260ff9283166004820152911660248201526001600160a01b0390911690637659bc6090604401600060405180830381600087803b158015613f4957600080fd5b505af1158015613f5d573d6000803e3d6000fd5b5050600054604087810151606089015191517f7659bc6000000000000000000000000000000000000000000000000000000000815260ff9182166004820152911660248201526001600160a01b039091169250637659bc609150604401600060405180830381600087803b158015613fd457600080fd5b505af1158015613fe8573d6000803e3d6000fd5b505050506040838101516003548651602088015193517f9cec519400000000000000000000000000000000000000000000000000000000815260ff91821660048201529316602484015290916000916001600160a01b031690639cec519490604401600060405180830381865afa158015614067573d6000803e3d6000fd5b505050506040513d6000823e601f3d908101601f1916820160405261408f919081019061529f565b60035460408881015160608a015191517f9cec519400000000000000000000000000000000000000000000000000000000815260ff9182166004820152911660248201529192506000916001600160a01b0390911690639cec519490604401600060405180830381865afa15801561410b573d6000803e3d6000fd5b505050506040513d6000823e601f3d908101601f19168201604052614133919081019061529f565b90506008604051806101a00160405280896000015160ff168152602001896020015160ff168152602001896040015160ff168152602001896060015160ff168152602001428152602001886040015115158152602001896080015161016001518a6080015161014001516141a79190615043565b8152885160208181015191519201916141c09190615043565b81526020018960c0015181526020018960a0015161016001518a60a0015161014001516141ed9190615043565b815260200188600001516060015189600001516040015161420e9190615043565b815260e08a8101516020808401919091528a81015160409384015284546001808201875560009687528287208651600a909302018054878501518888015160608a015160ff96871661ffff19909416939093176101009287168302177fffffffffffffffffffffffffffffffffffffffffffffffffffffffff0000ffff1662010000918716919091027fffffffffffffffffffffffffffffffffffffffffffffffffffffffff00ffffff16176301000000959092169490940217815560808701518183015560a0870151600280830180547fffffffffffffffffffffffffffffffffffffffffffffffffffffffffffffff00169215159290921790915560c0880151600383015594870151600482015591860151600583015561012086015160068301556101408601516007830155610160860151600883015561018090950151600991820155835180850190945287845290830186905280549384018155909352805190927f6e1540171b6c0c960b71a7020d9f60077f6af931a8bbf590da0223dacf75c7af9202919091019081906143a89082615390565b50602082015160018201906143bd9082615390565b5050600854600091506143d290600190615019565b9050600a60006143f68a600001518b6020015160ff1660089190911b61ff00161790565b61ffff16815260208082019290925260409081016000908120805460018101825590825292812090920183905589015160608a0151600a92916144449160ff1660089190911b61ff00161790565b61ffff168152602080820192909252604090810160009081208054600181018255908252908390200183905589518a8301518b8301516060808e0151855160ff9586168152938516968401969096529083169382019390935292169082015284151560808201526001600160a01b0386811691908816907f47389018a4bfd5e1ef612f1fe9082cc3e3675be36e77743a6bfaf0ea011d586f9060a001612c3d565b6145106040518060800160405280600081526020016000815260200160008152602001600081525090565b6000828411614528576145238484615019565b614532565b6145328385615019565b905060006145408486615043565b90506000816145508460646150ba565b61455a91906150d1565b90508486111561465357606461458f60026145758484615019565b61457f91906150d1565b61458a906019615043565b614885565b89610140015161459f91906150ba565b6145a991906150d1565b845260646145d160046145bc8484615019565b6145c691906150d1565b61458a90600a615043565b8961016001516145e191906150ba565b6145eb91906150d1565b6020850152606461460061458a836032615043565b88610140015161461091906150ba565b61461a91906150d1565b6040850152606461462f61458a836032615043565b88610160015161463f91906150ba565b61464991906150d1565b6060850152614724565b606461466361458a836032615043565b89610140015161467391906150ba565b61467d91906150d1565b8452606461468f61457f6002846150d1565b89610160015161469f91906150ba565b6146a991906150d1565b602085015260646146d460046146bf8484615019565b6146c991906150d1565b61458a90600f615043565b8861014001516146e491906150ba565b6146ee91906150d1565b6040850152606461470460046145bc8484615019565b88610160015161471491906150ba565b61471e91906150d1565b60608501525b505050949350505050565b600082841015614740575081612fd3565b8184111561474f575080612fd3565b509192915050565b6000600187111561487a57606461476e83896150ba565b61477891906150d1565b60008054604051633e5f285760e01b815260ff808916600483015280881660248301528c1660448201526064810184905260848101929092529192506001600160a01b0390911690633e5f28579060a401600060405180830381600087803b1580156147e357600080fd5b505af11580156147f7573d6000803e3d6000fd5b5050600054604051633e5f285760e01b815260ff808b166004830152808a1660248301528c16604482015260648101859052600160848201526001600160a01b039091169250633e5f2857915060a401600060405180830381600087803b15801561486157600080fd5b505af1158015614875573d6000803e3d6000fd5b505050505b979650505050505050565b6000611e5c61489583600a61489c565b605a6148b2565b60008183116148ab5781612fd3565b5090919050565b60008183106148ab5781612fd3565b604051806101000160405280600060ff168152602001600060ff168152602001600060ff168152602001600060ff168152602001614978604051806101e0016040528060008152602001600081526020016000815260200160008152602001600061ffff16815260200160008152602001600081526020016000815260200160008152602001600081526020016000815260200160008152602001600060ff168152602001600060ff168152602001600081525090565b8152602001614a00604051806101e0016040528060008152602001600081526020016000815260200160008152602001600061ffff16815260200160008152602001600081526020016000815260200160008152602001600081526020016000815260200160008152602001600060ff168152602001600060ff168152602001600081525090565b815260200160008152602001600081525090565b6040518060600160405280614a4a6040518060800160405280600081526020016000815260200160008152602001600081525090565b815260006020820181905260409091015290565b600060208284031215614a7057600080fd5b5035919050565b600081518084526020808501945080840160005b83811015614b35578151805160ff9081168952848201518116858a01526040808301518216908a0152606080830151909116908901526080808201519089015260a08082015115159089015260c0808201519089015260e08082015190890152610100808201519089015261012080820151908901526101408082015190890152610160808201519089015261018090810151908801526101a09096019590820190600101614a8b565b509495945050505050565b60005b83811015614b5b578181015183820152602001614b43565b50506000910152565b60008151808452614b7c816020860160208601614b40565b601f01601f19169290920160200192915050565b60006040808352614ba381840186614a77565b6020848203818601528186518084528284019150828160051b85010183890160005b83811015614c1557601f1987840301855281518051898552614be98a860182614b64565b91880151858303868a0152919050614c018183614b64565b968801969450505090850190600101614bc5565b50909a9950505050505050505050565b61ffff81168114614c3557600080fd5b50565b60008060408385031215614c4b57600080fd5b8235614c5681614c25565b946020939093013593505050565b60ff81168114614c3557600080fd5b60008060408385031215614c8657600080fd5b8235614c5681614c64565b600060208284031215614ca357600080fd5b8135612fd381614c64565b602080825282518282018190526000919060409081850190868401855b82811015614d17578151805160ff908116865287820151811688870152868201511686860152606080820151908601526080908101519085015260a09093019290850190600101614ccb565b5091979650505050505050565b60008060008060008060c08789031215614d3d57600080fd5b8635614d4881614c64565b95506020870135614d5881614c64565b94506040870135614d6881614c64565b93506060870135614d7881614c64565b92506080870135614d8881614c64565b8092505060a087013590509295509295509295565b60008060008060808587031215614db357600080fd5b8435614dbe81614c64565b93506020850135614dce81614c64565b92506040850135614dde81614c64565b91506060850135614dee81614c64565b939692955090935050565b60008060408385031215614e0c57600080fd5b8235614e1781614c64565b91506020830135614e2781614c64565b809150509250929050565b602081526000612fd36020830184614a77565b60008060008060808587031215614e5b57600080fd5b8435614e6681614c64565b93506020850135614e7681614c64565b92506040850135614e8681614c64565b9396929550929360600135925050565b600080600080600060a08688031215614eae57600080fd5b8535614eb981614c64565b94506020860135614ec981614c64565b93506040860135614ed981614c64565b94979396509394606081013594506080013592915050565b604081526000614f046040830185614b64565b8281036020840152614f168185614b64565b95945050505050565b7f4e487b7100000000000000000000000000000000000000000000000000000000600052604160045260246000fd5b7f4e487b7100000000000000000000000000000000000000000000000000000000600052603260045260246000fd5b600181811c90821680614f9157607f821691505b602082108103614fca577f4e487b7100000000000000000000000000000000000000000000000000000000600052602260045260246000fd5b50919050565b7f4e487b7100000000000000000000000000000000000000000000000000000000600052601160045260246000fd5b6000600019820361501257615012614fd0565b5060010190565b81810381811115611e5c57611e5c614fd0565b60008161503b5761503b614fd0565b506000190190565b80820180821115611e5c57611e5c614fd0565b60006020828403121561506857600080fd5b81516001600160a01b0381168114612fd357600080fd5b60006020828403121561509157600080fd5b81518015158114612fd357600080fd5b60ff8181168382160190811115611e5c57611e5c614fd0565b8082028115828204841417611e5c57611e5c614fd0565b600082615107577f4e487b7100000000000000000000000000000000000000000000000000000000600052601260045260246000fd5b500490565b6040516101e0810167ffffffffffffffff8111828210171561513057615130614f1f565b60405290565b805161514181614c25565b919050565b805161514181614c64565b60006101e0828403121561516457600080fd5b61516c61510c565b8251815260208301516020820152604083015160408201526060830151606082015261519a60808401615136565b608082015260a0838101519082015260c0808401519082015260e0808401519082015261010080840151908201526101208084015190820152610140808401519082015261016080840151908201526101806151f7818501615146565b908201526101a0615209848201615146565b908201526101c0928301519281019290925250919050565b7f4e487b7100000000000000000000000000000000000000000000000000000000600052603160045260246000fd5b60ff8281168282160390811115611e5c57611e5c614fd0565b60006020828403121561527b57600080fd5b8151612fd381614c64565b60006020828403121561529857600080fd5b5051919050565b6000602082840312156152b157600080fd5b815167ffffffffffffffff808211156152c957600080fd5b818401915084601f8301126152dd57600080fd5b8151818111156152ef576152ef614f1f565b604051601f8201601f19908116603f0116810190838211818310171561531757615317614f1f565b8160405282815287602084870101111561533057600080fd5b61487a836020830160208801614b40565b601f82111561538b57600081815260208120601f850160051c810160208610156153685750805b601f850160051c820191505b8181101561538757828155600101615374565b5050505b505050565b815167ffffffffffffffff8111156153aa576153aa614f1f565b6153be816153b88454614f7d565b84615341565b602080601f8311600181146153f357600084156153db5750858301515b600019600386901b1c1916600185901b178555615387565b600085815260208120601f198616915b8281101561542257888601518255948401946001909101908401615403565b50858210156154405787850151600019600388901b60f8161c191681555b5050505050600190811b0190555056fea26469706673582212200b1533d2a4c40399e1cb04627dedf83649724aeb11d0170675bf4080bccd2c7d64736f6c63430008120033",
			"opcodes": "PUSH1 0x80 PUSH1 0x40 MSTORE CALLVALUE DUP1 ISZERO PUSH3 0x11 JUMPI PUSH1 0x0 DUP1 REVERT JUMPDEST POP PUSH1 0x40 MLOAD PUSH3 0x5598 CODESIZE SUB DUP1 PUSH3 0x5598 DUP4 CODECOPY DUP2 ADD PUSH1 0x40 DUP2 SWAP1 MSTORE PUSH3 0x34 SWAP2 PUSH3 0xA5 JUMP JUMPDEST PUSH1 0x0 DUP1 SLOAD PUSH1 0x1 PUSH1 0x1 PUSH1 0xA0 SHL SUB SWAP6 DUP7 AND PUSH1 0x1 PUSH1 0x1 PUSH1 0xA0 SHL SUB NOT SWAP2 DUP3 AND OR SWAP1 SWAP2 SSTORE PUSH1 0x1 DUP1 SLOAD SWAP5 DUP7 AND SWAP5 DUP3 AND SWAP5 SWAP1 SWAP5 OR SWAP1 SWAP4 SSTORE PUSH1 0x2 DUP1 SLOAD SWAP3 DUP6 AND SWAP3 DUP5 AND SWAP3 SWAP1 SWAP3 OR SWAP1 SWAP2 SSTORE PUSH1 0x3 DUP1 SLOAD SWAP2 SWAP1 SWAP4 AND SWAP2 AND OR SWAP1 SSTORE PUSH3 0x102 JUMP JUMPDEST DUP1 MLOAD PUSH1 0x1 PUSH1 0x1 PUSH1 0xA0 SHL SUB DUP2 AND DUP2 EQ PUSH3 0xA0 JUMPI PUSH1 0x0 DUP1 REVERT JUMPDEST SWAP2 SWAP1 POP JUMP JUMPDEST PUSH1 0x0 DUP1 PUSH1 0x0 DUP1 PUSH1 0x80 DUP6 DUP8 SUB SLT ISZERO PUSH3 0xBC JUMPI PUSH1 0x0 DUP1 REVERT JUMPDEST PUSH3 0xC7 DUP6 PUSH3 0x88 JUMP JUMPDEST SWAP4 POP PUSH3 0xD7 PUSH1 0x20 DUP7 ADD PUSH3 0x88 JUMP JUMPDEST SWAP3 POP PUSH3 0xE7 PUSH1 0x40 DUP7 ADD PUSH3 0x88 JUMP JUMPDEST SWAP2 POP PUSH3 0xF7 PUSH1 0x60 DUP7 ADD PUSH3 0x88 JUMP JUMPDEST SWAP1 POP SWAP3 SWAP6 SWAP2 SWAP5 POP SWAP3 POP JUMP JUMPDEST PUSH2 0x5486 DUP1 PUSH3 0x112 PUSH1 0x0 CODECOPY PUSH1 0x0 RETURN INVALID PUSH1 0x80 PUSH1 0x40 MSTORE CALLVALUE DUP1 ISZERO PUSH2 0x10 JUMPI PUSH1 0x0 DUP1 REVERT JUMPDEST POP PUSH1 0x4 CALLDATASIZE LT PUSH2 0x176 JUMPI PUSH1 0x0 CALLDATALOAD PUSH1 0xE0 SHR DUP1 PUSH4 0x697E71D2 GT PUSH2 0xD8 JUMPI DUP1 PUSH4 0xB0D77774 GT PUSH2 0x8C JUMPI DUP1 PUSH4 0xE450909A GT PUSH2 0x66 JUMPI DUP1 PUSH4 0xE450909A EQ PUSH2 0x3D8 JUMPI DUP1 PUSH4 0xF721BA59 EQ PUSH2 0x452 JUMPI DUP1 PUSH4 0xFDFF05BB EQ PUSH2 0x473 JUMPI PUSH1 0x0 DUP1 REVERT JUMPDEST DUP1 PUSH4 0xB0D77774 EQ PUSH2 0x39F JUMPI DUP1 PUSH4 0xC49443AC EQ PUSH2 0x3B2 JUMPI DUP1 PUSH4 0xCA030079 EQ PUSH2 0x3C5 JUMPI PUSH1 0x0 DUP1 REVERT JUMPDEST DUP1 PUSH4 0x763540CD GT PUSH2 0xBD JUMPI DUP1 PUSH4 0x763540CD EQ PUSH2 0x341 JUMPI DUP1 PUSH4 0x823E9282 EQ PUSH2 0x36C JUMPI DUP1 PUSH4 0x999A2F7A EQ PUSH2 0x38C JUMPI PUSH1 0x0 DUP1 REVERT JUMPDEST DUP1 PUSH4 0x697E71D2 EQ PUSH2 0x303 JUMPI DUP1 PUSH4 0x70D27E41 EQ PUSH2 0x316 JUMPI PUSH1 0x0 DUP1 REVERT JUMPDEST DUP1 PUSH4 0x21F65C90 GT PUSH2 0x12F JUMPI DUP1 PUSH4 0x4B4D9F89 GT PUSH2 0x114 JUMPI DUP1 PUSH4 0x4B4D9F89 EQ PUSH2 0x2BB JUMPI DUP1 PUSH4 0x4F264B03 EQ PUSH2 0x2DB JUMPI DUP1 PUSH4 0x54ADAC10 EQ PUSH2 0x2EE JUMPI PUSH1 0x0 DUP1 REVERT JUMPDEST DUP1 PUSH4 0x21F65C90 EQ PUSH2 0x26D JUMPI DUP1 PUSH4 0x3E6ABF42 EQ PUSH2 0x275 JUMPI PUSH1 0x0 DUP1 REVERT JUMPDEST DUP1 PUSH4 0xA3C826C GT PUSH2 0x160 JUMPI DUP1 PUSH4 0xA3C826C EQ PUSH2 0x219 JUMPI DUP1 PUSH4 0xD67F59E EQ PUSH2 0x23A JUMPI DUP1 PUSH4 0x10AC4633 EQ PUSH2 0x265 JUMPI PUSH1 0x0 DUP1 REVERT JUMPDEST DUP1 PUSH3 0x75C079 EQ PUSH2 0x17B JUMPI DUP1 PUSH4 0x92B1E16 EQ PUSH2 0x203 JUMPI JUMPDEST PUSH1 0x0 DUP1 REVERT JUMPDEST PUSH2 0x18E PUSH2 0x189 CALLDATASIZE PUSH1 0x4 PUSH2 0x4A5E JUMP JUMPDEST PUSH2 0x486 JUMP JUMPDEST PUSH1 0x40 DUP1 MLOAD PUSH1 0xFF SWAP15 DUP16 AND DUP2 MSTORE SWAP13 DUP15 AND PUSH1 0x20 DUP15 ADD MSTORE SWAP11 DUP14 AND SWAP11 DUP13 ADD SWAP11 SWAP1 SWAP11 MSTORE SWAP11 SWAP1 SWAP8 AND PUSH1 0x60 DUP11 ADD MSTORE PUSH1 0x80 DUP10 ADD SWAP6 SWAP1 SWAP6 MSTORE SWAP3 ISZERO ISZERO PUSH1 0xA0 DUP9 ADD MSTORE PUSH1 0xC0 DUP8 ADD SWAP2 SWAP1 SWAP2 MSTORE PUSH1 0xE0 DUP7 ADD MSTORE PUSH2 0x100 DUP6 ADD MSTORE PUSH2 0x120 DUP5 ADD MSTORE PUSH2 0x140 DUP4 ADD MSTORE PUSH2 0x160 DUP3 ADD SWAP3 SWAP1 SWAP3 MSTORE PUSH2 0x180 DUP2 ADD SWAP2 SWAP1 SWAP2 MSTORE PUSH2 0x1A0 ADD JUMPDEST PUSH1 0x40 MLOAD DUP1 SWAP2 SUB SWAP1 RETURN JUMPDEST PUSH2 0x20B PUSH2 0x505 JUMP JUMPDEST PUSH1 0x40 MLOAD PUSH2 0x1FA SWAP3 SWAP2 SWAP1 PUSH2 0x4B90 JUMP JUMPDEST PUSH2 0x22C PUSH2 0x227 CALLDATASIZE PUSH1 0x4 PUSH2 0x4C38 JUMP JUMPDEST PUSH2 0x8B0 JUMP JUMPDEST PUSH1 0x40 MLOAD SWAP1 DUP2 MSTORE PUSH1 0x20 ADD PUSH2 0x1FA JUMP JUMPDEST PUSH1 0x1 SLOAD PUSH2 0x24D SWAP1 PUSH1 0x1 PUSH1 0x1 PUSH1 0xA0 SHL SUB AND DUP2 JUMP JUMPDEST PUSH1 0x40 MLOAD PUSH1 0x1 PUSH1 0x1 PUSH1 0xA0 SHL SUB SWAP1 SWAP2 AND DUP2 MSTORE PUSH1 0x20 ADD PUSH2 0x1FA JUMP JUMPDEST PUSH2 0x22C PUSH1 0x64 DUP2 JUMP JUMPDEST PUSH2 0x20B PUSH2 0x8E1 JUMP JUMPDEST PUSH2 0x288 PUSH2 0x283 CALLDATASIZE PUSH1 0x4 PUSH2 0x4C73 JUMP JUMPDEST PUSH2 0xD2D JUMP JUMPDEST PUSH1 0x40 DUP1 MLOAD PUSH1 0xFF SWAP7 DUP8 AND DUP2 MSTORE SWAP5 DUP7 AND PUSH1 0x20 DUP7 ADD MSTORE SWAP3 SWAP1 SWAP5 AND SWAP2 DUP4 ADD SWAP2 SWAP1 SWAP2 MSTORE PUSH1 0x60 DUP3 ADD MSTORE PUSH1 0x80 DUP2 ADD SWAP2 SWAP1 SWAP2 MSTORE PUSH1 0xA0 ADD PUSH2 0x1FA JUMP JUMPDEST PUSH2 0x2CE PUSH2 0x2C9 CALLDATASIZE PUSH1 0x4 PUSH2 0x4C91 JUMP JUMPDEST PUSH2 0xD85 JUMP JUMPDEST PUSH1 0x40 MLOAD PUSH2 0x1FA SWAP2 SWAP1 PUSH2 0x4CAE JUMP JUMPDEST PUSH1 0x2 SLOAD PUSH2 0x24D SWAP1 PUSH1 0x1 PUSH1 0x1 PUSH1 0xA0 SHL SUB AND DUP2 JUMP JUMPDEST PUSH2 0x301 PUSH2 0x2FC CALLDATASIZE PUSH1 0x4 PUSH2 0x4D24 JUMP JUMPDEST PUSH2 0xE92 JUMP JUMPDEST STOP JUMPDEST PUSH2 0x301 PUSH2 0x311 CALLDATASIZE PUSH1 0x4 PUSH2 0x4D9D JUMP JUMPDEST PUSH2 0x1757 JUMP JUMPDEST PUSH2 0x22C PUSH2 0x324 CALLDATASIZE PUSH1 0x4 PUSH2 0x4DF9 JUMP JUMPDEST PUSH1 0x7 PUSH1 0x20 SWAP1 DUP2 MSTORE PUSH1 0x0 SWAP3 DUP4 MSTORE PUSH1 0x40 DUP1 DUP5 KECCAK256 SWAP1 SWAP2 MSTORE SWAP1 DUP3 MSTORE SWAP1 KECCAK256 SLOAD DUP2 JUMP JUMPDEST PUSH2 0x22C PUSH2 0x34F CALLDATASIZE PUSH1 0x4 PUSH2 0x4DF9 JUMP JUMPDEST PUSH1 0x6 PUSH1 0x20 SWAP1 DUP2 MSTORE PUSH1 0x0 SWAP3 DUP4 MSTORE PUSH1 0x40 DUP1 DUP5 KECCAK256 SWAP1 SWAP2 MSTORE SWAP1 DUP3 MSTORE SWAP1 KECCAK256 SLOAD DUP2 JUMP JUMPDEST PUSH2 0x37F PUSH2 0x37A CALLDATASIZE PUSH1 0x4 PUSH2 0x4DF9 JUMP JUMPDEST PUSH2 0x1B92 JUMP JUMPDEST PUSH1 0x40 MLOAD PUSH2 0x1FA SWAP2 SWAP1 PUSH2 0x4E32 JUMP JUMPDEST PUSH2 0x301 PUSH2 0x39A CALLDATASIZE PUSH1 0x4 PUSH2 0x4E45 JUMP JUMPDEST PUSH2 0x1E62 JUMP JUMPDEST PUSH1 0x0 SLOAD PUSH2 0x24D SWAP1 PUSH1 0x1 PUSH1 0x1 PUSH1 0xA0 SHL SUB AND DUP2 JUMP JUMPDEST PUSH1 0x3 SLOAD PUSH2 0x24D SWAP1 PUSH1 0x1 PUSH1 0x1 PUSH1 0xA0 SHL SUB AND DUP2 JUMP JUMPDEST PUSH2 0x301 PUSH2 0x3D3 CALLDATASIZE PUSH1 0x4 PUSH2 0x4E96 JUMP JUMPDEST PUSH2 0x2751 JUMP JUMPDEST PUSH2 0x423 PUSH2 0x3E6 CALLDATASIZE PUSH1 0x4 PUSH2 0x4DF9 JUMP JUMPDEST PUSH1 0x4 PUSH1 0x20 SWAP1 DUP2 MSTORE PUSH1 0x0 SWAP3 DUP4 MSTORE PUSH1 0x40 DUP1 DUP5 KECCAK256 SWAP1 SWAP2 MSTORE SWAP1 DUP3 MSTORE SWAP1 KECCAK256 DUP1 SLOAD PUSH1 0x1 SWAP1 SWAP2 ADD SLOAD PUSH1 0xFF DUP1 DUP4 AND SWAP3 PUSH2 0x100 DUP2 DIV DUP3 AND SWAP3 PUSH3 0x10000 SWAP1 SWAP2 DIV SWAP1 SWAP2 AND SWAP1 DUP5 JUMP JUMPDEST PUSH1 0x40 MLOAD PUSH2 0x1FA SWAP5 SWAP4 SWAP3 SWAP2 SWAP1 PUSH1 0xFF SWAP5 DUP6 AND DUP2 MSTORE SWAP3 DUP5 AND PUSH1 0x20 DUP5 ADD MSTORE SWAP3 AND PUSH1 0x40 DUP3 ADD MSTORE PUSH1 0x60 DUP2 ADD SWAP2 SWAP1 SWAP2 MSTORE PUSH1 0x80 ADD SWAP1 JUMP JUMPDEST PUSH2 0x465 PUSH2 0x460 CALLDATASIZE PUSH1 0x4 PUSH2 0x4A5E JUMP JUMPDEST PUSH2 0x2C4F JUMP JUMPDEST PUSH1 0x40 MLOAD PUSH2 0x1FA SWAP3 SWAP2 SWAP1 PUSH2 0x4EF1 JUMP JUMPDEST PUSH2 0x37F PUSH2 0x481 CALLDATASIZE PUSH1 0x4 PUSH2 0x4DF9 JUMP JUMPDEST PUSH2 0x2D93 JUMP JUMPDEST PUSH1 0x8 DUP2 DUP2 SLOAD DUP2 LT PUSH2 0x496 JUMPI PUSH1 0x0 DUP1 REVERT JUMPDEST PUSH1 0x0 SWAP2 DUP3 MSTORE PUSH1 0x20 SWAP1 SWAP2 KECCAK256 PUSH1 0xA SWAP1 SWAP2 MUL ADD DUP1 SLOAD PUSH1 0x1 DUP3 ADD SLOAD PUSH1 0x2 DUP4 ADD SLOAD PUSH1 0x3 DUP5 ADD SLOAD PUSH1 0x4 DUP6 ADD SLOAD PUSH1 0x5 DUP7 ADD SLOAD PUSH1 0x6 DUP8 ADD SLOAD PUSH1 0x7 DUP9 ADD SLOAD PUSH1 0x8 DUP10 ADD SLOAD PUSH1 0x9 SWAP1 SWAP10 ADD SLOAD PUSH1 0xFF DUP1 DUP11 AND SWAP12 POP PUSH2 0x100 DUP11 DIV DUP2 AND SWAP11 PUSH3 0x10000 DUP12 DIV DUP3 AND SWAP11 PUSH4 0x1000000 SWAP1 DIV DUP3 AND SWAP10 SWAP9 SWAP1 SWAP2 AND SWAP7 SWAP6 SWAP5 SWAP4 SWAP3 SWAP2 DUP14 JUMP JUMPDEST PUSH1 0x8 SLOAD PUSH1 0x60 SWAP1 DUP2 SWAP1 DUP1 PUSH8 0xFFFFFFFFFFFFFFFF DUP2 GT ISZERO PUSH2 0x526 JUMPI PUSH2 0x526 PUSH2 0x4F1F JUMP JUMPDEST PUSH1 0x40 MLOAD SWAP1 DUP1 DUP3 MSTORE DUP1 PUSH1 0x20 MUL PUSH1 0x20 ADD DUP3 ADD PUSH1 0x40 MSTORE DUP1 ISZERO PUSH2 0x5D0 JUMPI DUP2 PUSH1 0x20 ADD JUMPDEST PUSH2 0x5BD PUSH1 0x40 MLOAD DUP1 PUSH2 0x1A0 ADD PUSH1 0x40 MSTORE DUP1 PUSH1 0x0 PUSH1 0xFF AND DUP2 MSTORE PUSH1 0x20 ADD PUSH1 0x0 PUSH1 0xFF AND DUP2 MSTORE PUSH1 0x20 ADD PUSH1 0x0 PUSH1 0xFF AND DUP2 MSTORE PUSH1 0x20 ADD PUSH1 0x0 PUSH1 0xFF AND DUP2 MSTORE PUSH1 0x20 ADD PUSH1 0x0 DUP2 MSTORE PUSH1 0x20 ADD PUSH1 0x0 ISZERO ISZERO DUP2 MSTORE PUSH1 0x20 ADD PUSH1 0x0 DUP2 MSTORE PUSH1 0x20 ADD PUSH1 0x0 DUP2 MSTORE PUSH1 0x20 ADD PUSH1 0x0 DUP2 MSTORE PUSH1 0x20 ADD PUSH1 0x0 DUP2 MSTORE PUSH1 0x20 ADD PUSH1 0x0 DUP2 MSTORE PUSH1 0x20 ADD PUSH1 0x0 DUP2 MSTORE PUSH1 0x20 ADD PUSH1 0x0 DUP2 MSTORE POP SWAP1 JUMP JUMPDEST DUP2 MSTORE PUSH1 0x20 ADD SWAP1 PUSH1 0x1 SWAP1 SUB SWAP1 DUP2 PUSH2 0x544 JUMPI SWAP1 POP JUMPDEST POP SWAP3 POP DUP1 PUSH8 0xFFFFFFFFFFFFFFFF DUP2 GT ISZERO PUSH2 0x5EC JUMPI PUSH2 0x5EC PUSH2 0x4F1F JUMP JUMPDEST PUSH1 0x40 MLOAD SWAP1 DUP1 DUP3 MSTORE DUP1 PUSH1 0x20 MUL PUSH1 0x20 ADD DUP3 ADD PUSH1 0x40 MSTORE DUP1 ISZERO PUSH2 0x631 JUMPI DUP2 PUSH1 0x20 ADD JUMPDEST PUSH1 0x40 DUP1 MLOAD DUP1 DUP3 ADD SWAP1 SWAP2 MSTORE PUSH1 0x60 DUP1 DUP3 MSTORE PUSH1 0x20 DUP3 ADD MSTORE DUP2 MSTORE PUSH1 0x20 ADD SWAP1 PUSH1 0x1 SWAP1 SUB SWAP1 DUP2 PUSH2 0x60A JUMPI SWAP1 POP JUMPDEST POP SWAP2 POP PUSH1 0x0 JUMPDEST DUP2 DUP2 LT ISZERO PUSH2 0x8AA JUMPI PUSH1 0x8 DUP2 DUP2 SLOAD DUP2 LT PUSH2 0x652 JUMPI PUSH2 0x652 PUSH2 0x4F4E JUMP JUMPDEST PUSH1 0x0 SWAP2 DUP3 MSTORE PUSH1 0x20 SWAP2 DUP3 SWAP1 KECCAK256 PUSH1 0x40 DUP1 MLOAD PUSH2 0x1A0 DUP2 ADD DUP3 MSTORE PUSH1 0xA SWAP1 SWAP4 MUL SWAP1 SWAP2 ADD DUP1 SLOAD PUSH1 0xFF DUP1 DUP3 AND DUP6 MSTORE PUSH2 0x100 DUP1 DUP4 DIV DUP3 AND SWAP7 DUP7 ADD SWAP7 SWAP1 SWAP7 MSTORE PUSH3 0x10000 DUP3 DIV DUP2 AND SWAP4 DUP6 ADD SWAP4 SWAP1 SWAP4 MSTORE PUSH4 0x1000000 SWAP1 DIV DUP3 AND PUSH1 0x60 DUP5 ADD MSTORE PUSH1 0x1 DUP2 ADD SLOAD PUSH1 0x80 DUP5 ADD MSTORE PUSH1 0x2 DUP2 ADD SLOAD SWAP1 SWAP2 AND ISZERO ISZERO PUSH1 0xA0 DUP4 ADD MSTORE PUSH1 0x3 DUP2 ADD SLOAD PUSH1 0xC0 DUP4 ADD MSTORE PUSH1 0x4 DUP2 ADD SLOAD PUSH1 0xE0 DUP4 ADD MSTORE PUSH1 0x5 DUP2 ADD SLOAD SWAP3 DUP3 ADD SWAP3 SWAP1 SWAP3 MSTORE PUSH1 0x6 DUP3 ADD SLOAD PUSH2 0x120 DUP3 ADD MSTORE PUSH1 0x7 DUP3 ADD SLOAD PUSH2 0x140 DUP3 ADD MSTORE PUSH1 0x8 DUP3 ADD SLOAD PUSH2 0x160 DUP3 ADD MSTORE PUSH1 0x9 SWAP1 SWAP2 ADD SLOAD PUSH2 0x180 DUP3 ADD MSTORE DUP5 MLOAD DUP6 SWAP1 DUP4 SWAP1 DUP2 LT PUSH2 0x71F JUMPI PUSH2 0x71F PUSH2 0x4F4E JUMP JUMPDEST PUSH1 0x20 MUL PUSH1 0x20 ADD ADD DUP2 SWAP1 MSTORE POP PUSH1 0x9 DUP2 DUP2 SLOAD DUP2 LT PUSH2 0x73D JUMPI PUSH2 0x73D PUSH2 0x4F4E JUMP JUMPDEST SWAP1 PUSH1 0x0 MSTORE PUSH1 0x20 PUSH1 0x0 KECCAK256 SWAP1 PUSH1 0x2 MUL ADD PUSH1 0x40 MLOAD DUP1 PUSH1 0x40 ADD PUSH1 0x40 MSTORE SWAP1 DUP2 PUSH1 0x0 DUP3 ADD DUP1 SLOAD PUSH2 0x766 SWAP1 PUSH2 0x4F7D JUMP JUMPDEST DUP1 PUSH1 0x1F ADD PUSH1 0x20 DUP1 SWAP2 DIV MUL PUSH1 0x20 ADD PUSH1 0x40 MLOAD SWAP1 DUP2 ADD PUSH1 0x40 MSTORE DUP1 SWAP3 SWAP2 SWAP1 DUP2 DUP2 MSTORE PUSH1 0x20 ADD DUP3 DUP1 SLOAD PUSH2 0x792 SWAP1 PUSH2 0x4F7D JUMP JUMPDEST DUP1 ISZERO PUSH2 0x7DF JUMPI DUP1 PUSH1 0x1F LT PUSH2 0x7B4 JUMPI PUSH2 0x100 DUP1 DUP4 SLOAD DIV MUL DUP4 MSTORE SWAP2 PUSH1 0x20 ADD SWAP2 PUSH2 0x7DF JUMP JUMPDEST DUP3 ADD SWAP2 SWAP1 PUSH1 0x0 MSTORE PUSH1 0x20 PUSH1 0x0 KECCAK256 SWAP1 JUMPDEST DUP2 SLOAD DUP2 MSTORE SWAP1 PUSH1 0x1 ADD SWAP1 PUSH1 0x20 ADD DUP1 DUP4 GT PUSH2 0x7C2 JUMPI DUP3 SWAP1 SUB PUSH1 0x1F AND DUP3 ADD SWAP2 JUMPDEST POP POP POP POP POP DUP2 MSTORE PUSH1 0x20 ADD PUSH1 0x1 DUP3 ADD DUP1 SLOAD PUSH2 0x7F8 SWAP1 PUSH2 0x4F7D JUMP JUMPDEST DUP1 PUSH1 0x1F ADD PUSH1 0x20 DUP1 SWAP2 DIV MUL PUSH1 0x20 ADD PUSH1 0x40 MLOAD SWAP1 DUP2 ADD PUSH1 0x40 MSTORE DUP1 SWAP3 SWAP2 SWAP1 DUP2 DUP2 MSTORE PUSH1 0x20 ADD DUP3 DUP1 SLOAD PUSH2 0x824 SWAP1 PUSH2 0x4F7D JUMP JUMPDEST DUP1 ISZERO PUSH2 0x871 JUMPI DUP1 PUSH1 0x1F LT PUSH2 0x846 JUMPI PUSH2 0x100 DUP1 DUP4 SLOAD DIV MUL DUP4 MSTORE SWAP2 PUSH1 0x20 ADD SWAP2 PUSH2 0x871 JUMP JUMPDEST DUP3 ADD SWAP2 SWAP1 PUSH1 0x0 MSTORE PUSH1 0x20 PUSH1 0x0 KECCAK256 SWAP1 JUMPDEST DUP2 SLOAD DUP2 MSTORE SWAP1 PUSH1 0x1 ADD SWAP1 PUSH1 0x20 ADD DUP1 DUP4 GT PUSH2 0x854 JUMPI DUP3 SWAP1 SUB PUSH1 0x1F AND DUP3 ADD SWAP2 JUMPDEST POP POP POP POP POP DUP2 MSTORE POP POP DUP4 DUP3 DUP2 MLOAD DUP2 LT PUSH2 0x88C JUMPI PUSH2 0x88C PUSH2 0x4F4E JUMP JUMPDEST PUSH1 0x20 MUL PUSH1 0x20 ADD ADD DUP2 SWAP1 MSTORE POP DUP1 DUP1 PUSH2 0x8A2 SWAP1 PUSH2 0x4FFF JUMP JUMPDEST SWAP2 POP POP PUSH2 0x637 JUMP JUMPDEST POP POP SWAP1 SWAP2 JUMP JUMPDEST PUSH1 0xA PUSH1 0x20 MSTORE DUP2 PUSH1 0x0 MSTORE PUSH1 0x40 PUSH1 0x0 KECCAK256 DUP2 DUP2 SLOAD DUP2 LT PUSH2 0x8CC JUMPI PUSH1 0x0 DUP1 REVERT JUMPDEST SWAP1 PUSH1 0x0 MSTORE PUSH1 0x20 PUSH1 0x0 KECCAK256 ADD PUSH1 0x0 SWAP2 POP SWAP2 POP POP SLOAD DUP2 JUMP JUMPDEST PUSH1 0x60 DUP1 PUSH1 0x0 PUSH2 0x8F3 PUSH3 0x93A80 TIMESTAMP PUSH2 0x5019 JUMP JUMPDEST PUSH1 0x8 SLOAD SWAP1 SWAP2 POP PUSH1 0x0 SWAP1 JUMPDEST DUP1 ISZERO PUSH2 0x961 JUMPI DUP3 PUSH1 0x8 PUSH2 0x911 PUSH1 0x1 DUP5 PUSH2 0x5019 JUMP JUMPDEST DUP2 SLOAD DUP2 LT PUSH2 0x921 JUMPI PUSH2 0x921 PUSH2 0x4F4E JUMP JUMPDEST SWAP1 PUSH1 0x0 MSTORE PUSH1 0x20 PUSH1 0x0 KECCAK256 SWAP1 PUSH1 0xA MUL ADD PUSH1 0x1 ADD SLOAD LT PUSH2 0x94A JUMPI DUP2 PUSH2 0x942 DUP2 PUSH2 0x4FFF JUMP JUMPDEST SWAP3 POP POP PUSH2 0x94F JUMP JUMPDEST PUSH2 0x961 JUMP JUMPDEST DUP1 PUSH2 0x959 DUP2 PUSH2 0x502C JUMP JUMPDEST SWAP2 POP POP PUSH2 0x8FD JUMP JUMPDEST POP DUP1 PUSH8 0xFFFFFFFFFFFFFFFF DUP2 GT ISZERO PUSH2 0x97B JUMPI PUSH2 0x97B PUSH2 0x4F1F JUMP JUMPDEST PUSH1 0x40 MLOAD SWAP1 DUP1 DUP3 MSTORE DUP1 PUSH1 0x20 MUL PUSH1 0x20 ADD DUP3 ADD PUSH1 0x40 MSTORE DUP1 ISZERO PUSH2 0xA25 JUMPI DUP2 PUSH1 0x20 ADD JUMPDEST PUSH2 0xA12 PUSH1 0x40 MLOAD DUP1 PUSH2 0x1A0 ADD PUSH1 0x40 MSTORE DUP1 PUSH1 0x0 PUSH1 0xFF AND DUP2 MSTORE PUSH1 0x20 ADD PUSH1 0x0 PUSH1 0xFF AND DUP2 MSTORE PUSH1 0x20 ADD PUSH1 0x0 PUSH1 0xFF AND DUP2 MSTORE PUSH1 0x20 ADD PUSH1 0x0 PUSH1 0xFF AND DUP2 MSTORE PUSH1 0x20 ADD PUSH1 0x0 DUP2 MSTORE PUSH1 0x20 ADD PUSH1 0x0 ISZERO ISZERO DUP2 MSTORE PUSH1 0x20 ADD PUSH1 0x0 DUP2 MSTORE PUSH1 0x20 ADD PUSH1 0x0 DUP2 MSTORE PUSH1 0x20 ADD PUSH1 0x0 DUP2 MSTORE PUSH1 0x20 ADD PUSH1 0x0 DUP2 MSTORE PUSH1 0x20 ADD PUSH1 0x0 DUP2 MSTORE PUSH1 0x20 ADD PUSH1 0x0 DUP2 MSTORE PUSH1 0x20 ADD PUSH1 0x0 DUP2 MSTORE POP SWAP1 JUMP JUMPDEST DUP2 MSTORE PUSH1 0x20 ADD SWAP1 PUSH1 0x1 SWAP1 SUB SWAP1 DUP2 PUSH2 0x999 JUMPI SWAP1 POP JUMPDEST POP SWAP4 POP DUP1 PUSH8 0xFFFFFFFFFFFFFFFF DUP2 GT ISZERO PUSH2 0xA41 JUMPI PUSH2 0xA41 PUSH2 0x4F1F JUMP JUMPDEST PUSH1 0x40 MLOAD SWAP1 DUP1 DUP3 MSTORE DUP1 PUSH1 0x20 MUL PUSH1 0x20 ADD DUP3 ADD PUSH1 0x40 MSTORE DUP1 ISZERO PUSH2 0xA86 JUMPI DUP2 PUSH1 0x20 ADD JUMPDEST PUSH1 0x40 DUP1 MLOAD DUP1 DUP3 ADD SWAP1 SWAP2 MSTORE PUSH1 0x60 DUP1 DUP3 MSTORE PUSH1 0x20 DUP3 ADD MSTORE DUP2 MSTORE PUSH1 0x20 ADD SWAP1 PUSH1 0x1 SWAP1 SUB SWAP1 DUP2 PUSH2 0xA5F JUMPI SWAP1 POP JUMPDEST POP PUSH1 0x8 SLOAD SWAP1 SWAP4 POP PUSH1 0x0 SWAP1 PUSH2 0xA9B SWAP1 DUP4 SWAP1 PUSH2 0x5019 JUMP JUMPDEST SWAP1 POP PUSH1 0x0 JUMPDEST DUP3 DUP2 LT ISZERO PUSH2 0xD25 JUMPI PUSH1 0x8 PUSH2 0xAB4 DUP3 DUP5 PUSH2 0x5043 JUMP JUMPDEST DUP2 SLOAD DUP2 LT PUSH2 0xAC4 JUMPI PUSH2 0xAC4 PUSH2 0x4F4E JUMP JUMPDEST PUSH1 0x0 SWAP2 DUP3 MSTORE PUSH1 0x20 SWAP2 DUP3 SWAP1 KECCAK256 PUSH1 0x40 DUP1 MLOAD PUSH2 0x1A0 DUP2 ADD DUP3 MSTORE PUSH1 0xA SWAP1 SWAP4 MUL SWAP1 SWAP2 ADD DUP1 SLOAD PUSH1 0xFF DUP1 DUP3 AND DUP6 MSTORE PUSH2 0x100 DUP1 DUP4 DIV DUP3 AND SWAP7 DUP7 ADD SWAP7 SWAP1 SWAP7 MSTORE PUSH3 0x10000 DUP3 DIV DUP2 AND SWAP4 DUP6 ADD SWAP4 SWAP1 SWAP4 MSTORE PUSH4 0x1000000 SWAP1 DIV DUP3 AND PUSH1 0x60 DUP5 ADD MSTORE PUSH1 0x1 DUP2 ADD SLOAD PUSH1 0x80 DUP5 ADD MSTORE PUSH1 0x2 DUP2 ADD SLOAD SWAP1 SWAP2 AND ISZERO ISZERO PUSH1 0xA0 DUP4 ADD MSTORE PUSH1 0x3 DUP2 ADD SLOAD PUSH1 0xC0 DUP4 ADD MSTORE PUSH1 0x4 DUP2 ADD SLOAD PUSH1 0xE0 DUP4 ADD MSTORE PUSH1 0x5 DUP2 ADD SLOAD SWAP3 DUP3 ADD SWAP3 SWAP1 SWAP3 MSTORE PUSH1 0x6 DUP3 ADD SLOAD PUSH2 0x120 DUP3 ADD MSTORE PUSH1 0x7 DUP3 ADD SLOAD PUSH2 0x140 DUP3 ADD MSTORE PUSH1 0x8 DUP3 ADD SLOAD PUSH2 0x160 DUP3 ADD MSTORE PUSH1 0x9 SWAP1 SWAP2 ADD SLOAD PUSH2 0x180 DUP3 ADD MSTORE DUP7 MLOAD DUP8 SWAP1 DUP4 SWAP1 DUP2 LT PUSH2 0xB91 JUMPI PUSH2 0xB91 PUSH2 0x4F4E JUMP JUMPDEST PUSH1 0x20 SWAP1 DUP2 MUL SWAP2 SWAP1 SWAP2 ADD ADD MSTORE PUSH1 0x9 PUSH2 0xBA8 DUP3 DUP5 PUSH2 0x5043 JUMP JUMPDEST DUP2 SLOAD DUP2 LT PUSH2 0xBB8 JUMPI PUSH2 0xBB8 PUSH2 0x4F4E JUMP JUMPDEST SWAP1 PUSH1 0x0 MSTORE PUSH1 0x20 PUSH1 0x0 KECCAK256 SWAP1 PUSH1 0x2 MUL ADD PUSH1 0x40 MLOAD DUP1 PUSH1 0x40 ADD PUSH1 0x40 MSTORE SWAP1 DUP2 PUSH1 0x0 DUP3 ADD DUP1 SLOAD PUSH2 0xBE1 SWAP1 PUSH2 0x4F7D JUMP JUMPDEST DUP1 PUSH1 0x1F ADD PUSH1 0x20 DUP1 SWAP2 DIV MUL PUSH1 0x20 ADD PUSH1 0x40 MLOAD SWAP1 DUP2 ADD PUSH1 0x40 MSTORE DUP1 SWAP3 SWAP2 SWAP1 DUP2 DUP2 MSTORE PUSH1 0x20 ADD DUP3 DUP1 SLOAD PUSH2 0xC0D SWAP1 PUSH2 0x4F7D JUMP JUMPDEST DUP1 ISZERO PUSH2 0xC5A JUMPI DUP1 PUSH1 0x1F LT PUSH2 0xC2F JUMPI PUSH2 0x100 DUP1 DUP4 SLOAD DIV MUL DUP4 MSTORE SWAP2 PUSH1 0x20 ADD SWAP2 PUSH2 0xC5A JUMP JUMPDEST DUP3 ADD SWAP2 SWAP1 PUSH1 0x0 MSTORE PUSH1 0x20 PUSH1 0x0 KECCAK256 SWAP1 JUMPDEST DUP2 SLOAD DUP2 MSTORE SWAP1 PUSH1 0x1 ADD SWAP1 PUSH1 0x20 ADD DUP1 DUP4 GT PUSH2 0xC3D JUMPI DUP3 SWAP1 SUB PUSH1 0x1F AND DUP3 ADD SWAP2 JUMPDEST POP POP POP POP POP DUP2 MSTORE PUSH1 0x20 ADD PUSH1 0x1 DUP3 ADD DUP1 SLOAD PUSH2 0xC73 SWAP1 PUSH2 0x4F7D JUMP JUMPDEST DUP1 PUSH1 0x1F ADD PUSH1 0x20 DUP1 SWAP2 DIV MUL PUSH1 0x20 ADD PUSH1 0x40 MLOAD SWAP1 DUP2 ADD PUSH1 0x40 MSTORE DUP1 SWAP3 SWAP2 SWAP1 DUP2 DUP2 MSTORE PUSH1 0x20 ADD DUP3 DUP1 SLOAD PUSH2 0xC9F SWAP1 PUSH2 0x4F7D JUMP JUMPDEST DUP1 ISZERO PUSH2 0xCEC JUMPI DUP1 PUSH1 0x1F LT PUSH2 0xCC1 JUMPI PUSH2 0x100 DUP1 DUP4 SLOAD DIV MUL DUP4 MSTORE SWAP2 PUSH1 0x20 ADD SWAP2 PUSH2 0xCEC JUMP JUMPDEST DUP3 ADD SWAP2 SWAP1 PUSH1 0x0 MSTORE PUSH1 0x20 PUSH1 0x0 KECCAK256 SWAP1 JUMPDEST DUP2 SLOAD DUP2 MSTORE SWAP1 PUSH1 0x1 ADD SWAP1 PUSH1 0x20 ADD DUP1 DUP4 GT PUSH2 0xCCF JUMPI DUP3 SWAP1 SUB PUSH1 0x1F AND DUP3 ADD SWAP2 JUMPDEST POP POP POP POP POP DUP2 MSTORE POP POP DUP6 DUP3 DUP2 MLOAD DUP2 LT PUSH2 0xD07 JUMPI PUSH2 0xD07 PUSH2 0x4F4E JUMP JUMPDEST PUSH1 0x20 MUL PUSH1 0x20 ADD ADD DUP2 SWAP1 MSTORE POP DUP1 DUP1 PUSH2 0xD1D SWAP1 PUSH2 0x4FFF JUMP JUMPDEST SWAP2 POP POP PUSH2 0xAA0 JUMP JUMPDEST POP POP POP POP SWAP1 SWAP2 JUMP JUMPDEST PUSH1 0x5 PUSH1 0x20 MSTORE DUP2 PUSH1 0x0 MSTORE PUSH1 0x40 PUSH1 0x0 KECCAK256 DUP2 DUP2 SLOAD DUP2 LT PUSH2 0xD49 JUMPI PUSH1 0x0 DUP1 REVERT JUMPDEST PUSH1 0x0 SWAP2 DUP3 MSTORE PUSH1 0x20 SWAP1 SWAP2 KECCAK256 PUSH1 0x3 SWAP1 SWAP2 MUL ADD DUP1 SLOAD PUSH1 0x1 DUP3 ADD SLOAD PUSH1 0x2 SWAP1 SWAP3 ADD SLOAD PUSH1 0xFF DUP1 DUP4 AND SWAP6 POP PUSH2 0x100 DUP4 DIV DUP2 AND SWAP5 POP PUSH3 0x10000 SWAP1 SWAP3 DIV SWAP1 SWAP2 AND SWAP2 SWAP1 DUP6 JUMP JUMPDEST PUSH1 0x60 PUSH1 0x1 DUP3 PUSH1 0xFF AND LT ISZERO DUP1 ISZERO PUSH2 0xD9F JUMPI POP PUSH1 0x8 DUP3 PUSH1 0xFF AND GT ISZERO JUMPDEST PUSH2 0xDF0 JUMPI PUSH1 0x40 MLOAD PUSH3 0x461BCD PUSH1 0xE5 SHL DUP2 MSTORE PUSH1 0x20 PUSH1 0x4 DUP3 ADD MSTORE PUSH1 0x15 PUSH1 0x24 DUP3 ADD MSTORE PUSH32 0x496E76616C6964207265736F7572636520747970650000000000000000000000 PUSH1 0x44 DUP3 ADD MSTORE PUSH1 0x64 ADD JUMPDEST PUSH1 0x40 MLOAD DUP1 SWAP2 SUB SWAP1 REVERT JUMPDEST PUSH1 0xFF DUP3 AND PUSH1 0x0 SWAP1 DUP2 MSTORE PUSH1 0x5 PUSH1 0x20 SWAP1 DUP2 MSTORE PUSH1 0x40 DUP1 DUP4 KECCAK256 DUP1 SLOAD DUP3 MLOAD DUP2 DUP6 MUL DUP2 ADD DUP6 ADD SWAP1 SWAP4 MSTORE DUP1 DUP4 MSTORE SWAP2 SWAP4 SWAP1 SWAP3 DUP5 ADD JUMPDEST DUP3 DUP3 LT ISZERO PUSH2 0xE87 JUMPI PUSH1 0x0 DUP5 DUP2 MSTORE PUSH1 0x20 SWAP1 DUP2 SWAP1 KECCAK256 PUSH1 0x40 DUP1 MLOAD PUSH1 0xA0 DUP2 ADD DUP3 MSTORE PUSH1 0x3 DUP7 MUL SWAP1 SWAP3 ADD DUP1 SLOAD PUSH1 0xFF DUP1 DUP3 AND DUP6 MSTORE PUSH2 0x100 DUP3 DIV DUP2 AND DUP6 DUP8 ADD MSTORE PUSH3 0x10000 SWAP1 SWAP2 DIV AND SWAP2 DUP4 ADD SWAP2 SWAP1 SWAP2 MSTORE PUSH1 0x1 DUP1 DUP3 ADD SLOAD PUSH1 0x60 DUP5 ADD MSTORE PUSH1 0x2 SWAP1 SWAP2 ADD SLOAD PUSH1 0x80 DUP4 ADD MSTORE SWAP1 DUP4 MSTORE SWAP1 SWAP3 ADD SWAP2 ADD PUSH2 0xE1D JUMP JUMPDEST POP POP POP POP SWAP1 POP SWAP2 SWAP1 POP JUMP JUMPDEST PUSH1 0x2 SLOAD PUSH1 0x40 MLOAD PUSH4 0x8A888953 PUSH1 0xE0 SHL DUP2 MSTORE PUSH1 0xFF DUP1 DUP10 AND PUSH1 0x4 DUP4 ADD MSTORE DUP8 AND PUSH1 0x24 DUP3 ADD MSTORE DUP8 SWAP2 DUP8 SWAP2 CALLER SWAP2 PUSH1 0x1 PUSH1 0x1 PUSH1 0xA0 SHL SUB AND SWAP1 PUSH4 0x8A888953 SWAP1 PUSH1 0x44 ADD PUSH1 0x20 PUSH1 0x40 MLOAD DUP1 DUP4 SUB DUP2 DUP7 GAS STATICCALL ISZERO DUP1 ISZERO PUSH2 0xEE9 JUMPI RETURNDATASIZE PUSH1 0x0 DUP1 RETURNDATACOPY RETURNDATASIZE PUSH1 0x0 REVERT JUMPDEST POP POP POP POP PUSH1 0x40 MLOAD RETURNDATASIZE PUSH1 0x1F NOT PUSH1 0x1F DUP3 ADD AND DUP3 ADD DUP1 PUSH1 0x40 MSTORE POP DUP2 ADD SWAP1 PUSH2 0xF0D SWAP2 SWAP1 PUSH2 0x5056 JUMP JUMPDEST PUSH1 0x1 PUSH1 0x1 PUSH1 0xA0 SHL SUB AND EQ PUSH2 0xF63 JUMPI PUSH1 0x40 MLOAD PUSH3 0x461BCD PUSH1 0xE5 SHL DUP2 MSTORE PUSH1 0x20 PUSH1 0x4 DUP3 ADD MSTORE PUSH1 0x18 PUSH1 0x24 DUP3 ADD MSTORE PUSH32 0x596F7520646F206E6F74206F776E20746869732074696C650000000000000000 PUSH1 0x44 DUP3 ADD MSTORE PUSH1 0x64 ADD PUSH2 0xDE7 JUMP JUMPDEST PUSH1 0x0 SLOAD PUSH1 0x40 MLOAD PUSH32 0x4855735C00000000000000000000000000000000000000000000000000000000 DUP2 MSTORE PUSH1 0xFF DUP1 DUP12 AND PUSH1 0x4 DUP4 ADD MSTORE DUP10 AND PUSH1 0x24 DUP3 ADD MSTORE PUSH1 0x1 PUSH1 0x1 PUSH1 0xA0 SHL SUB SWAP1 SWAP2 AND SWAP1 PUSH4 0x4855735C SWAP1 PUSH1 0x44 ADD PUSH1 0x20 PUSH1 0x40 MLOAD DUP1 DUP4 SUB DUP2 DUP7 GAS STATICCALL ISZERO DUP1 ISZERO PUSH2 0xFCF JUMPI RETURNDATASIZE PUSH1 0x0 DUP1 RETURNDATACOPY RETURNDATASIZE PUSH1 0x0 REVERT JUMPDEST POP POP POP POP PUSH1 0x40 MLOAD RETURNDATASIZE PUSH1 0x1F NOT PUSH1 0x1F DUP3 ADD AND DUP3 ADD DUP1 PUSH1 0x40 MSTORE POP DUP2 ADD SWAP1 PUSH2 0xFF3 SWAP2 SWAP1 PUSH2 0x507F JUMP JUMPDEST PUSH2 0x103F JUMPI PUSH1 0x40 MLOAD PUSH3 0x461BCD PUSH1 0xE5 SHL DUP2 MSTORE PUSH1 0x20 PUSH1 0x4 DUP3 ADD MSTORE PUSH1 0x16 PUSH1 0x24 DUP3 ADD MSTORE PUSH32 0x596F75206D75737420686176652061204D61726B657400000000000000000000 PUSH1 0x44 DUP3 ADD MSTORE PUSH1 0x64 ADD PUSH2 0xDE7 JUMP JUMPDEST PUSH1 0x2 SLOAD PUSH1 0x40 MLOAD PUSH4 0x8A888953 PUSH1 0xE0 SHL DUP2 MSTORE PUSH1 0xFF DUP1 DUP10 AND PUSH1 0x4 DUP4 ADD MSTORE DUP8 AND PUSH1 0x24 DUP3 ADD MSTORE PUSH1 0x0 SWAP2 PUSH1 0x1 PUSH1 0x1 PUSH1 0xA0 SHL SUB AND SWAP1 PUSH4 0x8A888953 SWAP1 PUSH1 0x44 ADD PUSH1 0x20 PUSH1 0x40 MLOAD DUP1 DUP4 SUB DUP2 DUP7 GAS STATICCALL ISZERO DUP1 ISZERO PUSH2 0x1093 JUMPI RETURNDATASIZE PUSH1 0x0 DUP1 RETURNDATACOPY RETURNDATASIZE PUSH1 0x0 REVERT JUMPDEST POP POP POP POP PUSH1 0x40 MLOAD RETURNDATASIZE PUSH1 0x1F NOT PUSH1 0x1F DUP3 ADD AND DUP3 ADD DUP1 PUSH1 0x40 MSTORE POP DUP2 ADD SWAP1 PUSH2 0x10B7 SWAP2 SWAP1 PUSH2 0x5056 JUMP JUMPDEST SWAP1 POP PUSH1 0x1 PUSH1 0x1 PUSH1 0xA0 SHL SUB DUP2 AND PUSH2 0x110F JUMPI PUSH1 0x40 MLOAD PUSH3 0x461BCD PUSH1 0xE5 SHL DUP2 MSTORE PUSH1 0x20 PUSH1 0x4 DUP3 ADD MSTORE PUSH1 0x19 PUSH1 0x24 DUP3 ADD MSTORE PUSH32 0x5461726765742074696C6520697320756E6F6363757069656400000000000000 PUSH1 0x44 DUP3 ADD MSTORE PUSH1 0x64 ADD PUSH2 0xDE7 JUMP JUMPDEST PUSH1 0x1 DUP6 PUSH1 0xFF AND LT ISZERO DUP1 ISZERO PUSH2 0x1127 JUMPI POP PUSH1 0x8 DUP6 PUSH1 0xFF AND GT ISZERO JUMPDEST PUSH2 0x1173 JUMPI PUSH1 0x40 MLOAD PUSH3 0x461BCD PUSH1 0xE5 SHL DUP2 MSTORE PUSH1 0x20 PUSH1 0x4 DUP3 ADD MSTORE PUSH1 0x15 PUSH1 0x24 DUP3 ADD MSTORE PUSH32 0x496E76616C6964207265736F7572636520747970650000000000000000000000 PUSH1 0x44 DUP3 ADD MSTORE PUSH1 0x64 ADD PUSH2 0xDE7 JUMP JUMPDEST PUSH1 0x1E DUP5 LT ISZERO PUSH2 0x11C4 JUMPI PUSH1 0x40 MLOAD PUSH3 0x461BCD PUSH1 0xE5 SHL DUP2 MSTORE PUSH1 0x20 PUSH1 0x4 DUP3 ADD MSTORE PUSH1 0x14 PUSH1 0x24 DUP3 ADD MSTORE PUSH32 0x416D6F756E74206D757374206265203E3D203330000000000000000000000000 PUSH1 0x44 DUP3 ADD MSTORE PUSH1 0x64 ADD PUSH2 0xDE7 JUMP JUMPDEST PUSH1 0x0 PUSH2 0x11D0 DUP10 DUP9 PUSH2 0x2FAB JUMP JUMPDEST PUSH2 0x11DA DUP12 DUP11 PUSH2 0x2FAB JUMP JUMPDEST PUSH2 0x11E4 SWAP2 SWAP1 PUSH2 0x50A1 JUMP JUMPDEST SWAP1 POP PUSH1 0x0 DUP2 PUSH1 0xFF AND GT DUP1 ISZERO PUSH2 0x11FD JUMPI POP PUSH1 0x26 DUP2 PUSH1 0xFF AND GT ISZERO JUMPDEST PUSH2 0x1249 JUMPI PUSH1 0x40 MLOAD PUSH3 0x461BCD PUSH1 0xE5 SHL DUP2 MSTORE PUSH1 0x20 PUSH1 0x4 DUP3 ADD MSTORE PUSH1 0x10 PUSH1 0x24 DUP3 ADD MSTORE PUSH32 0x496E76616C69642064697374616E636500000000000000000000000000000000 PUSH1 0x44 DUP3 ADD MSTORE PUSH1 0x64 ADD PUSH2 0xDE7 JUMP JUMPDEST PUSH4 0x5F5E100 PUSH1 0x0 PUSH2 0x125D PUSH1 0xFF DUP5 AND DUP4 PUSH2 0x50BA JUMP JUMPDEST PUSH1 0x1 SLOAD PUSH1 0x40 MLOAD PUSH32 0x23B872DD00000000000000000000000000000000000000000000000000000000 DUP2 MSTORE CALLER PUSH1 0x4 DUP3 ADD MSTORE ADDRESS PUSH1 0x24 DUP3 ADD MSTORE PUSH1 0x44 DUP2 ADD DUP4 SWAP1 MSTORE SWAP2 SWAP3 POP PUSH1 0x1 PUSH1 0x1 PUSH1 0xA0 SHL SUB AND SWAP1 PUSH4 0x23B872DD SWAP1 PUSH1 0x64 ADD PUSH1 0x20 PUSH1 0x40 MLOAD DUP1 DUP4 SUB DUP2 PUSH1 0x0 DUP8 GAS CALL ISZERO DUP1 ISZERO PUSH2 0x12CE JUMPI RETURNDATASIZE PUSH1 0x0 DUP1 RETURNDATACOPY RETURNDATASIZE PUSH1 0x0 REVERT JUMPDEST POP POP POP POP PUSH1 0x40 MLOAD RETURNDATASIZE PUSH1 0x1F NOT PUSH1 0x1F DUP3 ADD AND DUP3 ADD DUP1 PUSH1 0x40 MSTORE POP DUP2 ADD SWAP1 PUSH2 0x12F2 SWAP2 SWAP1 PUSH2 0x507F JUMP JUMPDEST PUSH2 0x133E JUMPI PUSH1 0x40 MLOAD PUSH3 0x461BCD PUSH1 0xE5 SHL DUP2 MSTORE PUSH1 0x20 PUSH1 0x4 DUP3 ADD MSTORE PUSH1 0x17 PUSH1 0x24 DUP3 ADD MSTORE PUSH32 0x4C4F5020666565207472616E73666572206661696C6564000000000000000000 PUSH1 0x44 DUP3 ADD MSTORE PUSH1 0x64 ADD PUSH2 0xDE7 JUMP JUMPDEST PUSH1 0x1 SLOAD PUSH1 0x40 MLOAD PUSH32 0x42966C6800000000000000000000000000000000000000000000000000000000 DUP2 MSTORE PUSH1 0x4 DUP2 ADD DUP4 SWAP1 MSTORE PUSH1 0x1 PUSH1 0x1 PUSH1 0xA0 SHL SUB SWAP1 SWAP2 AND SWAP1 PUSH4 0x42966C68 SWAP1 PUSH1 0x24 ADD PUSH1 0x20 PUSH1 0x40 MLOAD DUP1 DUP4 SUB DUP2 PUSH1 0x0 DUP8 GAS CALL ISZERO DUP1 ISZERO PUSH2 0x13A2 JUMPI RETURNDATASIZE PUSH1 0x0 DUP1 RETURNDATACOPY RETURNDATASIZE PUSH1 0x0 REVERT JUMPDEST POP POP POP POP PUSH1 0x40 MLOAD RETURNDATASIZE PUSH1 0x1F NOT PUSH1 0x1F DUP3 ADD AND DUP3 ADD DUP1 PUSH1 0x40 MSTORE POP DUP2 ADD SWAP1 PUSH2 0x13C6 SWAP2 SWAP1 PUSH2 0x507F JUMP JUMPDEST PUSH2 0x1412 JUMPI PUSH1 0x40 MLOAD PUSH3 0x461BCD PUSH1 0xE5 SHL DUP2 MSTORE PUSH1 0x20 PUSH1 0x4 DUP3 ADD MSTORE PUSH1 0xF PUSH1 0x24 DUP3 ADD MSTORE PUSH32 0x4C4F50206275726E206661696C65640000000000000000000000000000000000 PUSH1 0x44 DUP3 ADD MSTORE PUSH1 0x64 ADD PUSH2 0xDE7 JUMP JUMPDEST PUSH1 0x0 PUSH1 0x1E PUSH2 0x1423 DUP10 PUSH1 0xFF DUP8 AND PUSH2 0x50BA JUMP JUMPDEST PUSH2 0x142D SWAP2 SWAP1 PUSH2 0x50D1 JUMP JUMPDEST PUSH1 0x0 SLOAD SWAP1 SWAP2 POP PUSH1 0x1 PUSH1 0x1 PUSH1 0xA0 SHL SUB AND PUSH4 0x3E5F2857 DUP15 DUP15 DUP13 PUSH2 0x144E DUP7 DUP15 PUSH2 0x5043 JUMP JUMPDEST PUSH1 0x40 MLOAD PUSH32 0xFFFFFFFF00000000000000000000000000000000000000000000000000000000 PUSH1 0xE0 DUP8 SWAP1 SHL AND DUP2 MSTORE PUSH1 0xFF SWAP5 DUP6 AND PUSH1 0x4 DUP3 ADD MSTORE SWAP3 DUP5 AND PUSH1 0x24 DUP5 ADD MSTORE SWAP3 AND PUSH1 0x44 DUP3 ADD MSTORE PUSH1 0x64 DUP2 ADD SWAP2 SWAP1 SWAP2 MSTORE PUSH1 0x0 PUSH1 0x84 DUP3 ADD MSTORE PUSH1 0xA4 ADD PUSH1 0x0 PUSH1 0x40 MLOAD DUP1 DUP4 SUB DUP2 PUSH1 0x0 DUP8 DUP1 EXTCODESIZE ISZERO DUP1 ISZERO PUSH2 0x14BF JUMPI PUSH1 0x0 DUP1 REVERT JUMPDEST POP GAS CALL ISZERO DUP1 ISZERO PUSH2 0x14D3 JUMPI RETURNDATASIZE PUSH1 0x0 DUP1 RETURNDATACOPY RETURNDATASIZE PUSH1 0x0 REVERT JUMPDEST POP POP PUSH1 0x0 SLOAD PUSH1 0x40 MLOAD PUSH4 0x3E5F2857 PUSH1 0xE0 SHL DUP2 MSTORE PUSH1 0x1 PUSH1 0x1 PUSH1 0xA0 SHL SUB SWAP1 SWAP2 AND SWAP3 POP PUSH4 0x3E5F2857 SWAP2 POP PUSH2 0x1539 SWAP1 DUP15 SWAP1 DUP15 SWAP1 DUP15 SWAP1 DUP15 SWAP1 PUSH1 0x1 SWAP1 PUSH1 0x4 ADD PUSH1 0xFF SWAP6 DUP7 AND DUP2 MSTORE SWAP4 DUP6 AND PUSH1 0x20 DUP6 ADD MSTORE SWAP2 SWAP1 SWAP4 AND PUSH1 0x40 DUP4 ADD MSTORE PUSH1 0x60 DUP3 ADD SWAP3 SWAP1 SWAP3 MSTORE SWAP1 ISZERO ISZERO PUSH1 0x80 DUP3 ADD MSTORE PUSH1 0xA0 ADD SWAP1 JUMP JUMPDEST PUSH1 0x0 PUSH1 0x40 MLOAD DUP1 DUP4 SUB DUP2 PUSH1 0x0 DUP8 DUP1 EXTCODESIZE ISZERO DUP1 ISZERO PUSH2 0x1553 JUMPI PUSH1 0x0 DUP1 REVERT JUMPDEST POP GAS CALL ISZERO DUP1 ISZERO PUSH2 0x1567 JUMPI RETURNDATASIZE PUSH1 0x0 DUP1 RETURNDATACOPY RETURNDATASIZE PUSH1 0x0 REVERT JUMPDEST POP POP POP POP PUSH1 0x40 MLOAD DUP1 PUSH1 0x80 ADD PUSH1 0x40 MSTORE DUP1 DUP15 PUSH1 0xFF AND DUP2 MSTORE PUSH1 0x20 ADD DUP14 PUSH1 0xFF AND DUP2 MSTORE PUSH1 0x20 ADD DUP11 PUSH1 0xFF AND DUP2 MSTORE PUSH1 0x20 ADD DUP10 DUP2 MSTORE POP PUSH1 0x4 PUSH1 0x0 DUP14 PUSH1 0xFF AND PUSH1 0xFF AND DUP2 MSTORE PUSH1 0x20 ADD SWAP1 DUP2 MSTORE PUSH1 0x20 ADD PUSH1 0x0 KECCAK256 PUSH1 0x0 DUP13 PUSH1 0xFF AND PUSH1 0xFF AND DUP2 MSTORE PUSH1 0x20 ADD SWAP1 DUP2 MSTORE PUSH1 0x20 ADD PUSH1 0x0 KECCAK256 PUSH1 0x0 DUP3 ADD MLOAD DUP2 PUSH1 0x0 ADD PUSH1 0x0 PUSH2 0x100 EXP DUP2 SLOAD DUP2 PUSH1 0xFF MUL NOT AND SWAP1 DUP4 PUSH1 0xFF AND MUL OR SWAP1 SSTORE POP PUSH1 0x20 DUP3 ADD MLOAD DUP2 PUSH1 0x0 ADD PUSH1 0x1 PUSH2 0x100 EXP DUP2 SLOAD DUP2 PUSH1 0xFF MUL NOT AND SWAP1 DUP4 PUSH1 0xFF AND MUL OR SWAP1 SSTORE POP PUSH1 0x40 DUP3 ADD MLOAD DUP2 PUSH1 0x0 ADD PUSH1 0x2 PUSH2 0x100 EXP DUP2 SLOAD DUP2 PUSH1 0xFF MUL NOT AND SWAP1 DUP4 PUSH1 0xFF AND MUL OR SWAP1 SSTORE POP PUSH1 0x60 DUP3 ADD MLOAD DUP2 PUSH1 0x1 ADD SSTORE SWAP1 POP POP PUSH1 0x0 DUP1 SLOAD SWAP1 PUSH2 0x100 EXP SWAP1 DIV PUSH1 0x1 PUSH1 0x1 PUSH1 0xA0 SHL SUB AND PUSH1 0x1 PUSH1 0x1 PUSH1 0xA0 SHL SUB AND PUSH4 0x9A4A2084 DUP13 DUP13 PUSH1 0x1 PUSH1 0x40 MLOAD DUP5 PUSH4 0xFFFFFFFF AND PUSH1 0xE0 SHL DUP2 MSTORE PUSH1 0x4 ADD PUSH2 0x1692 SWAP4 SWAP3 SWAP2 SWAP1 PUSH1 0xFF SWAP4 DUP5 AND DUP2 MSTORE SWAP2 SWAP1 SWAP3 AND PUSH1 0x20 DUP3 ADD MSTORE SWAP1 ISZERO ISZERO PUSH1 0x40 DUP3 ADD MSTORE PUSH1 0x60 ADD SWAP1 JUMP JUMPDEST PUSH1 0x0 PUSH1 0x40 MLOAD DUP1 DUP4 SUB DUP2 PUSH1 0x0 DUP8 DUP1 EXTCODESIZE ISZERO DUP1 ISZERO PUSH2 0x16AC JUMPI PUSH1 0x0 DUP1 REVERT JUMPDEST POP GAS CALL ISZERO DUP1 ISZERO PUSH2 0x16C0 JUMPI RETURNDATASIZE PUSH1 0x0 DUP1 RETURNDATACOPY RETURNDATASIZE PUSH1 0x0 REVERT JUMPDEST POP POP POP POP DUP5 PUSH1 0x1 PUSH1 0x1 PUSH1 0xA0 SHL SUB AND CALLER PUSH1 0x1 PUSH1 0x1 PUSH1 0xA0 SHL SUB AND PUSH31 0x67DFEEA804F8FE6061721D87A7E3FC301838C6ABDAD26D1B988B904984FA66 DUP16 DUP16 DUP16 DUP16 DUP16 DUP16 PUSH1 0x40 MLOAD PUSH2 0x1740 SWAP7 SWAP6 SWAP5 SWAP4 SWAP3 SWAP2 SWAP1 PUSH1 0xFF SWAP7 DUP8 AND DUP2 MSTORE SWAP5 DUP7 AND PUSH1 0x20 DUP7 ADD MSTORE SWAP3 DUP6 AND PUSH1 0x40 DUP6 ADD MSTORE SWAP1 DUP5 AND PUSH1 0x60 DUP5 ADD MSTORE SWAP1 SWAP3 AND PUSH1 0x80 DUP3 ADD MSTORE PUSH1 0xA0 DUP2 ADD SWAP2 SWAP1 SWAP2 MSTORE PUSH1 0xC0 ADD SWAP1 JUMP JUMPDEST PUSH1 0x40 MLOAD DUP1 SWAP2 SUB SWAP1 LOG3 POP POP POP POP POP POP POP POP POP POP POP POP POP JUMP JUMPDEST PUSH1 0x2 SLOAD PUSH1 0x40 MLOAD PUSH4 0x8A888953 PUSH1 0xE0 SHL DUP2 MSTORE PUSH1 0xFF DUP1 DUP8 AND PUSH1 0x4 DUP4 ADD MSTORE DUP6 AND PUSH1 0x24 DUP3 ADD MSTORE DUP6 SWAP2 DUP6 SWAP2 CALLER SWAP2 PUSH1 0x1 PUSH1 0x1 PUSH1 0xA0 SHL SUB AND SWAP1 PUSH4 0x8A888953 SWAP1 PUSH1 0x44 ADD PUSH1 0x20 PUSH1 0x40 MLOAD DUP1 DUP4 SUB DUP2 DUP7 GAS STATICCALL ISZERO DUP1 ISZERO PUSH2 0x17AE JUMPI RETURNDATASIZE PUSH1 0x0 DUP1 RETURNDATACOPY RETURNDATASIZE PUSH1 0x0 REVERT JUMPDEST POP POP POP POP PUSH1 0x40 MLOAD RETURNDATASIZE PUSH1 0x1F NOT PUSH1 0x1F DUP3 ADD AND DUP3 ADD DUP1 PUSH1 0x40 MSTORE POP DUP2 ADD SWAP1 PUSH2 0x17D2 SWAP2 SWAP1 PUSH2 0x5056 JUMP JUMPDEST PUSH1 0x1 PUSH1 0x1 PUSH1 0xA0 SHL SUB AND EQ PUSH2 0x1828 JUMPI PUSH1 0x40 MLOAD PUSH3 0x461BCD PUSH1 0xE5 SHL DUP2 MSTORE PUSH1 0x20 PUSH1 0x4 DUP3 ADD MSTORE PUSH1 0x18 PUSH1 0x24 DUP3 ADD MSTORE PUSH32 0x596F7520646F206E6F74206F776E20746869732074696C650000000000000000 PUSH1 0x44 DUP3 ADD MSTORE PUSH1 0x64 ADD PUSH2 0xDE7 JUMP JUMPDEST PUSH1 0x2 SLOAD PUSH1 0x40 MLOAD PUSH4 0x8A888953 PUSH1 0xE0 SHL DUP2 MSTORE PUSH1 0xFF DUP1 DUP8 AND PUSH1 0x4 DUP4 ADD MSTORE DUP6 AND PUSH1 0x24 DUP3 ADD MSTORE PUSH1 0x0 SWAP2 PUSH1 0x1 PUSH1 0x1 PUSH1 0xA0 SHL SUB AND SWAP1 PUSH4 0x8A888953 SWAP1 PUSH1 0x44 ADD PUSH1 0x20 PUSH1 0x40 MLOAD DUP1 DUP4 SUB DUP2 DUP7 GAS STATICCALL ISZERO DUP1 ISZERO PUSH2 0x187C JUMPI RETURNDATASIZE PUSH1 0x0 DUP1 RETURNDATACOPY RETURNDATASIZE PUSH1 0x0 REVERT JUMPDEST POP POP POP POP PUSH1 0x40 MLOAD RETURNDATASIZE PUSH1 0x1F NOT PUSH1 0x1F DUP3 ADD AND DUP3 ADD DUP1 PUSH1 0x40 MSTORE POP DUP2 ADD SWAP1 PUSH2 0x18A0 SWAP2 SWAP1 PUSH2 0x5056 JUMP JUMPDEST SWAP1 POP PUSH1 0x1 PUSH1 0x1 PUSH1 0xA0 SHL SUB DUP2 AND PUSH2 0x18F8 JUMPI PUSH1 0x40 MLOAD PUSH3 0x461BCD PUSH1 0xE5 SHL DUP2 MSTORE PUSH1 0x20 PUSH1 0x4 DUP3 ADD MSTORE PUSH1 0xB PUSH1 0x24 DUP3 ADD MSTORE PUSH32 0x4E6F20646566656E646572000000000000000000000000000000000000000000 PUSH1 0x44 DUP3 ADD MSTORE PUSH1 0x64 ADD PUSH2 0xDE7 JUMP JUMPDEST PUSH2 0x1906 DUP8 DUP8 DUP8 DUP8 CALLER DUP7 PUSH2 0x2FDA JUMP JUMPDEST PUSH2 0x190E PUSH2 0x48C1 JUMP JUMPDEST PUSH1 0xFF DUP9 DUP2 AND DUP1 DUP4 MSTORE DUP9 DUP3 AND PUSH1 0x20 DUP5 ADD DUP2 SWAP1 MSTORE DUP9 DUP4 AND PUSH1 0x40 DUP1 DUP7 ADD SWAP2 SWAP1 SWAP2 MSTORE SWAP3 DUP9 AND PUSH1 0x60 DUP6 ADD MSTORE PUSH1 0x0 SLOAD SWAP3 MLOAD PUSH32 0xBD63837800000000000000000000000000000000000000000000000000000000 DUP2 MSTORE PUSH1 0x4 DUP2 ADD SWAP3 SWAP1 SWAP3 MSTORE PUSH1 0x24 DUP3 ADD MSTORE PUSH1 0x1 PUSH1 0x1 PUSH1 0xA0 SHL SUB SWAP1 SWAP2 AND SWAP1 PUSH4 0xBD638378 SWAP1 PUSH1 0x44 ADD PUSH2 0x1E0 PUSH1 0x40 MLOAD DUP1 DUP4 SUB DUP2 DUP7 GAS STATICCALL ISZERO DUP1 ISZERO PUSH2 0x199C JUMPI RETURNDATASIZE PUSH1 0x0 DUP1 RETURNDATACOPY RETURNDATASIZE PUSH1 0x0 REVERT JUMPDEST POP POP POP POP PUSH1 0x40 MLOAD RETURNDATASIZE PUSH1 0x1F NOT PUSH1 0x1F DUP3 ADD AND DUP3 ADD DUP1 PUSH1 0x40 MSTORE POP DUP2 ADD SWAP1 PUSH2 0x19C0 SWAP2 SWAP1 PUSH2 0x5151 JUMP JUMPDEST PUSH1 0x80 DUP3 ADD MSTORE PUSH1 0x0 SLOAD PUSH1 0x40 MLOAD PUSH32 0xBD63837800000000000000000000000000000000000000000000000000000000 DUP2 MSTORE PUSH1 0xFF DUP1 DUP10 AND PUSH1 0x4 DUP4 ADD MSTORE DUP8 AND PUSH1 0x24 DUP3 ADD MSTORE PUSH1 0x1 PUSH1 0x1 PUSH1 0xA0 SHL SUB SWAP1 SWAP2 AND SWAP1 PUSH4 0xBD638378 SWAP1 PUSH1 0x44 ADD PUSH2 0x1E0 PUSH1 0x40 MLOAD DUP1 DUP4 SUB DUP2 DUP7 GAS STATICCALL ISZERO DUP1 ISZERO PUSH2 0x1A32 JUMPI RETURNDATASIZE PUSH1 0x0 DUP1 RETURNDATACOPY RETURNDATASIZE PUSH1 0x0 REVERT JUMPDEST POP POP POP POP PUSH1 0x40 MLOAD RETURNDATASIZE PUSH1 0x1F NOT PUSH1 0x1F DUP3 ADD AND DUP3 ADD DUP1 PUSH1 0x40 MSTORE POP DUP2 ADD SWAP1 PUSH2 0x1A56 SWAP2 SWAP1 PUSH2 0x5151 JUMP JUMPDEST PUSH1 0xA0 DUP3 ADD MSTORE PUSH1 0x80 DUP2 ADD MLOAD PUSH2 0x140 ADD MLOAD PUSH1 0xA GT ISZERO PUSH2 0x1ADB JUMPI PUSH1 0x40 MLOAD PUSH3 0x461BCD PUSH1 0xE5 SHL DUP2 MSTORE PUSH1 0x20 PUSH1 0x4 DUP3 ADD MSTORE PUSH1 0x2D PUSH1 0x24 DUP3 ADD MSTORE PUSH32 0x4E656564206174206C65617374203130206F6666656E7369766520736F6C6469 PUSH1 0x44 DUP3 ADD MSTORE PUSH32 0x65727320746F2061747461636B00000000000000000000000000000000000000 PUSH1 0x64 DUP3 ADD MSTORE PUSH1 0x84 ADD PUSH2 0xDE7 JUMP JUMPDEST PUSH1 0x0 PUSH2 0x1AE7 DUP9 DUP8 PUSH2 0x2FAB JUMP JUMPDEST PUSH2 0x1AF1 DUP11 DUP10 PUSH2 0x2FAB JUMP JUMPDEST PUSH2 0x1AFB SWAP2 SWAP1 PUSH2 0x50A1 JUMP JUMPDEST SWAP1 POP PUSH2 0x1B0D DUP10 DUP10 DUP4 DUP6 PUSH1 0x80 ADD MLOAD PUSH2 0x34E7 JUMP JUMPDEST PUSH2 0x1B21 DUP3 PUSH1 0x80 ADD MLOAD DUP4 PUSH1 0xA0 ADD MLOAD DUP10 DUP10 PUSH2 0x37F0 JUMP JUMPDEST PUSH1 0xE0 DUP5 ADD MSTORE PUSH1 0xC0 DUP4 ADD MSTORE PUSH1 0x0 PUSH2 0x1B36 DUP4 PUSH2 0x3942 JUMP JUMPDEST SWAP1 POP PUSH1 0x0 DUP4 PUSH1 0xE0 ADD MLOAD DUP5 PUSH1 0xC0 ADD MLOAD GT ISZERO PUSH2 0x1B56 JUMPI PUSH2 0x1B53 DUP5 PUSH2 0x3BE4 JUMP JUMPDEST SWAP1 POP JUMPDEST PUSH2 0x1B5E PUSH2 0x4A14 JUMP JUMPDEST DUP3 DUP2 MSTORE PUSH1 0x20 DUP2 ADD DUP3 SWAP1 MSTORE PUSH1 0xE0 DUP6 ADD MLOAD PUSH1 0xC0 DUP7 ADD MLOAD GT PUSH1 0x40 DUP3 ADD MSTORE PUSH2 0x1B84 DUP6 DUP3 CALLER DUP10 PUSH2 0x3D4A JUMP JUMPDEST POP POP POP POP POP POP POP POP POP POP POP POP JUMP JUMPDEST PUSH1 0xFF DUP2 AND PUSH1 0x8 DUP4 SWAP1 SHL PUSH2 0xFF00 AND OR PUSH1 0x0 DUP2 DUP2 MSTORE PUSH1 0xA PUSH1 0x20 MSTORE PUSH1 0x40 DUP2 KECCAK256 PUSH1 0x60 SWAP3 SWAP2 PUSH2 0x1BBF PUSH3 0x93A80 TIMESTAMP PUSH2 0x5019 JUMP JUMPDEST DUP3 SLOAD SWAP1 SWAP2 POP PUSH1 0x0 SWAP1 JUMPDEST DUP1 ISZERO PUSH2 0x1C48 JUMPI DUP3 PUSH1 0x8 DUP6 PUSH2 0x1BDD PUSH1 0x1 DUP6 PUSH2 0x5019 JUMP JUMPDEST DUP2 SLOAD DUP2 LT PUSH2 0x1BED JUMPI PUSH2 0x1BED PUSH2 0x4F4E JUMP JUMPDEST SWAP1 PUSH1 0x0 MSTORE PUSH1 0x20 PUSH1 0x0 KECCAK256 ADD SLOAD DUP2 SLOAD DUP2 LT PUSH2 0x1C08 JUMPI PUSH2 0x1C08 PUSH2 0x4F4E JUMP JUMPDEST SWAP1 PUSH1 0x0 MSTORE PUSH1 0x20 PUSH1 0x0 KECCAK256 SWAP1 PUSH1 0xA MUL ADD PUSH1 0x1 ADD SLOAD LT PUSH2 0x1C31 JUMPI DUP2 PUSH2 0x1C29 DUP2 PUSH2 0x4FFF JUMP JUMPDEST SWAP3 POP POP PUSH2 0x1C36 JUMP JUMPDEST PUSH2 0x1C48 JUMP JUMPDEST DUP1 PUSH2 0x1C40 DUP2 PUSH2 0x502C JUMP JUMPDEST SWAP2 POP POP PUSH2 0x1BC8 JUMP JUMPDEST POP PUSH1 0x0 DUP2 PUSH8 0xFFFFFFFFFFFFFFFF DUP2 GT ISZERO PUSH2 0x1C64 JUMPI PUSH2 0x1C64 PUSH2 0x4F1F JUMP JUMPDEST PUSH1 0x40 MLOAD SWAP1 DUP1 DUP3 MSTORE DUP1 PUSH1 0x20 MUL PUSH1 0x20 ADD DUP3 ADD PUSH1 0x40 MSTORE DUP1 ISZERO PUSH2 0x1D0E JUMPI DUP2 PUSH1 0x20 ADD JUMPDEST PUSH2 0x1CFB PUSH1 0x40 MLOAD DUP1 PUSH2 0x1A0 ADD PUSH1 0x40 MSTORE DUP1 PUSH1 0x0 PUSH1 0xFF AND DUP2 MSTORE PUSH1 0x20 ADD PUSH1 0x0 PUSH1 0xFF AND DUP2 MSTORE PUSH1 0x20 ADD PUSH1 0x0 PUSH1 0xFF AND DUP2 MSTORE PUSH1 0x20 ADD PUSH1 0x0 PUSH1 0xFF AND DUP2 MSTORE PUSH1 0x20 ADD PUSH1 0x0 DUP2 MSTORE PUSH1 0x20 ADD PUSH1 0x0 ISZERO ISZERO DUP2 MSTORE PUSH1 0x20 ADD PUSH1 0x0 DUP2 MSTORE PUSH1 0x20 ADD PUSH1 0x0 DUP2 MSTORE PUSH1 0x20 ADD PUSH1 0x0 DUP2 MSTORE PUSH1 0x20 ADD PUSH1 0x0 DUP2 MSTORE PUSH1 0x20 ADD PUSH1 0x0 DUP2 MSTORE PUSH1 0x20 ADD PUSH1 0x0 DUP2 MSTORE PUSH1 0x20 ADD PUSH1 0x0 DUP2 MSTORE POP SWAP1 JUMP JUMPDEST DUP2 MSTORE PUSH1 0x20 ADD SWAP1 PUSH1 0x1 SWAP1 SUB SWAP1 DUP2 PUSH2 0x1C82 JUMPI SWAP1 POP JUMPDEST POP DUP5 SLOAD SWAP1 SWAP2 POP PUSH1 0x0 SWAP1 PUSH2 0x1D22 SWAP1 DUP5 SWAP1 PUSH2 0x5019 JUMP JUMPDEST SWAP1 POP PUSH1 0x0 JUMPDEST DUP4 DUP2 LT ISZERO PUSH2 0x1E52 JUMPI PUSH1 0x8 DUP7 PUSH2 0x1D3C DUP4 DUP6 PUSH2 0x5043 JUMP JUMPDEST DUP2 SLOAD DUP2 LT PUSH2 0x1D4C JUMPI PUSH2 0x1D4C PUSH2 0x4F4E JUMP JUMPDEST SWAP1 PUSH1 0x0 MSTORE PUSH1 0x20 PUSH1 0x0 KECCAK256 ADD SLOAD DUP2 SLOAD DUP2 LT PUSH2 0x1D67 JUMPI PUSH2 0x1D67 PUSH2 0x4F4E JUMP JUMPDEST PUSH1 0x0 SWAP2 DUP3 MSTORE PUSH1 0x20 SWAP2 DUP3 SWAP1 KECCAK256 PUSH1 0x40 DUP1 MLOAD PUSH2 0x1A0 DUP2 ADD DUP3 MSTORE PUSH1 0xA SWAP1 SWAP4 MUL SWAP1 SWAP2 ADD DUP1 SLOAD PUSH1 0xFF DUP1 DUP3 AND DUP6 MSTORE PUSH2 0x100 DUP1 DUP4 DIV DUP3 AND SWAP7 DUP7 ADD SWAP7 SWAP1 SWAP7 MSTORE PUSH3 0x10000 DUP3 DIV DUP2 AND SWAP4 DUP6 ADD SWAP4 SWAP1 SWAP4 MSTORE PUSH4 0x1000000 SWAP1 DIV DUP3 AND PUSH1 0x60 DUP5 ADD MSTORE PUSH1 0x1 DUP2 ADD SLOAD PUSH1 0x80 DUP5 ADD MSTORE PUSH1 0x2 DUP2 ADD SLOAD SWAP1 SWAP2 AND ISZERO ISZERO PUSH1 0xA0 DUP4 ADD MSTORE PUSH1 0x3 DUP2 ADD SLOAD PUSH1 0xC0 DUP4 ADD MSTORE PUSH1 0x4 DUP2 ADD SLOAD PUSH1 0xE0 DUP4 ADD MSTORE PUSH1 0x5 DUP2 ADD SLOAD SWAP3 DUP3 ADD SWAP3 SWAP1 SWAP3 MSTORE PUSH1 0x6 DUP3 ADD SLOAD PUSH2 0x120 DUP3 ADD MSTORE PUSH1 0x7 DUP3 ADD SLOAD PUSH2 0x140 DUP3 ADD MSTORE PUSH1 0x8 DUP3 ADD SLOAD PUSH2 0x160 DUP3 ADD MSTORE PUSH1 0x9 SWAP1 SWAP2 ADD SLOAD PUSH2 0x180 DUP3 ADD MSTORE DUP4 MLOAD DUP5 SWAP1 DUP4 SWAP1 DUP2 LT PUSH2 0x1E34 JUMPI PUSH2 0x1E34 PUSH2 0x4F4E JUMP JUMPDEST PUSH1 0x20 MUL PUSH1 0x20 ADD ADD DUP2 SWAP1 MSTORE POP DUP1 DUP1 PUSH2 0x1E4A SWAP1 PUSH2 0x4FFF JUMP JUMPDEST SWAP2 POP POP PUSH2 0x1D27 JUMP JUMPDEST POP SWAP1 SWAP6 POP POP POP POP POP POP JUMPDEST SWAP3 SWAP2 POP POP JUMP JUMPDEST PUSH1 0x2 SLOAD PUSH1 0x40 MLOAD PUSH4 0x8A888953 PUSH1 0xE0 SHL DUP2 MSTORE PUSH1 0xFF DUP1 DUP8 AND PUSH1 0x4 DUP4 ADD MSTORE DUP6 AND PUSH1 0x24 DUP3 ADD MSTORE DUP6 SWAP2 DUP6 SWAP2 CALLER SWAP2 PUSH1 0x1 PUSH1 0x1 PUSH1 0xA0 SHL SUB AND SWAP1 PUSH4 0x8A888953 SWAP1 PUSH1 0x44 ADD PUSH1 0x20 PUSH1 0x40 MLOAD DUP1 DUP4 SUB DUP2 DUP7 GAS STATICCALL ISZERO DUP1 ISZERO PUSH2 0x1EB9 JUMPI RETURNDATASIZE PUSH1 0x0 DUP1 RETURNDATACOPY RETURNDATASIZE PUSH1 0x0 REVERT JUMPDEST POP POP POP POP PUSH1 0x40 MLOAD RETURNDATASIZE PUSH1 0x1F NOT PUSH1 0x1F DUP3 ADD AND DUP3 ADD DUP1 PUSH1 0x40 MSTORE POP DUP2 ADD SWAP1 PUSH2 0x1EDD SWAP2 SWAP1 PUSH2 0x5056 JUMP JUMPDEST PUSH1 0x1 PUSH1 0x1 PUSH1 0xA0 SHL SUB AND EQ PUSH2 0x1F33 JUMPI PUSH1 0x40 MLOAD PUSH3 0x461BCD PUSH1 0xE5 SHL DUP2 MSTORE PUSH1 0x20 PUSH1 0x4 DUP3 ADD MSTORE PUSH1 0x18 PUSH1 0x24 DUP3 ADD MSTORE PUSH32 0x596F7520646F206E6F74206F776E20746869732074696C650000000000000000 PUSH1 0x44 DUP3 ADD MSTORE PUSH1 0x64 ADD PUSH2 0xDE7 JUMP JUMPDEST PUSH1 0x0 SLOAD PUSH1 0x40 MLOAD PUSH32 0x4855735C00000000000000000000000000000000000000000000000000000000 DUP2 MSTORE PUSH1 0xFF DUP1 DUP10 AND PUSH1 0x4 DUP4 ADD MSTORE DUP8 AND PUSH1 0x24 DUP3 ADD MSTORE PUSH1 0x1 PUSH1 0x1 PUSH1 0xA0 SHL SUB SWAP1 SWAP2 AND SWAP1 PUSH4 0x4855735C SWAP1 PUSH1 0x44 ADD PUSH1 0x20 PUSH1 0x40 MLOAD DUP1 DUP4 SUB DUP2 DUP7 GAS STATICCALL ISZERO DUP1 ISZERO PUSH2 0x1F9F JUMPI RETURNDATASIZE PUSH1 0x0 DUP1 RETURNDATACOPY RETURNDATASIZE PUSH1 0x0 REVERT JUMPDEST POP POP POP POP PUSH1 0x40 MLOAD RETURNDATASIZE PUSH1 0x1F NOT PUSH1 0x1F DUP3 ADD AND DUP3 ADD DUP1 PUSH1 0x40 MSTORE POP DUP2 ADD SWAP1 PUSH2 0x1FC3 SWAP2 SWAP1 PUSH2 0x507F JUMP JUMPDEST PUSH2 0x200F JUMPI PUSH1 0x40 MLOAD PUSH3 0x461BCD PUSH1 0xE5 SHL DUP2 MSTORE PUSH1 0x20 PUSH1 0x4 DUP3 ADD MSTORE PUSH1 0x16 PUSH1 0x24 DUP3 ADD MSTORE PUSH32 0x596F75206D75737420686176652061204D61726B657400000000000000000000 PUSH1 0x44 DUP3 ADD MSTORE PUSH1 0x64 ADD PUSH2 0xDE7 JUMP JUMPDEST PUSH1 0xFF DUP5 AND PUSH1 0x0 SWAP1 DUP2 MSTORE PUSH1 0x5 PUSH1 0x20 MSTORE PUSH1 0x40 SWAP1 KECCAK256 SLOAD DUP4 LT PUSH2 0x2070 JUMPI PUSH1 0x40 MLOAD PUSH3 0x461BCD PUSH1 0xE5 SHL DUP2 MSTORE PUSH1 0x20 PUSH1 0x4 DUP3 ADD MSTORE PUSH1 0xD PUSH1 0x24 DUP3 ADD MSTORE PUSH32 0x496E76616C696420696E64657800000000000000000000000000000000000000 PUSH1 0x44 DUP3 ADD MSTORE PUSH1 0x64 ADD PUSH2 0xDE7 JUMP JUMPDEST PUSH1 0x1 DUP5 PUSH1 0xFF AND LT ISZERO DUP1 ISZERO PUSH2 0x2088 JUMPI POP PUSH1 0x8 DUP5 PUSH1 0xFF AND GT ISZERO JUMPDEST PUSH2 0x20D4 JUMPI PUSH1 0x40 MLOAD PUSH3 0x461BCD PUSH1 0xE5 SHL DUP2 MSTORE PUSH1 0x20 PUSH1 0x4 DUP3 ADD MSTORE PUSH1 0x15 PUSH1 0x24 DUP3 ADD MSTORE PUSH32 0x496E76616C6964207265736F7572636520747970650000000000000000000000 PUSH1 0x44 DUP3 ADD MSTORE PUSH1 0x64 ADD PUSH2 0xDE7 JUMP JUMPDEST PUSH1 0xFF DUP5 AND PUSH1 0x0 SWAP1 DUP2 MSTORE PUSH1 0x5 PUSH1 0x20 MSTORE PUSH1 0x40 DUP2 KECCAK256 DUP1 SLOAD DUP6 SWAP1 DUP2 LT PUSH2 0x20F8 JUMPI PUSH2 0x20F8 PUSH2 0x4F4E JUMP JUMPDEST PUSH1 0x0 SWAP2 DUP3 MSTORE PUSH1 0x20 DUP1 DUP4 KECCAK256 PUSH1 0x40 DUP1 MLOAD PUSH1 0xA0 DUP2 ADD DUP3 MSTORE PUSH1 0x3 SWAP5 SWAP1 SWAP5 MUL SWAP1 SWAP2 ADD DUP1 SLOAD PUSH1 0xFF DUP1 DUP3 AND DUP1 DUP8 MSTORE PUSH2 0x100 DUP4 DIV DUP3 AND SWAP6 DUP8 ADD DUP7 SWAP1 MSTORE PUSH3 0x10000 SWAP1 SWAP3 DIV AND DUP6 DUP5 ADD MSTORE PUSH1 0x1 DUP3 ADD SLOAD PUSH1 0x60 DUP7 ADD DUP2 SWAP1 MSTORE PUSH1 0x2 SWAP3 DUP4 ADD SLOAD PUSH1 0x80 DUP8 ADD DUP2 SWAP1 MSTORE SWAP3 SLOAD SWAP4 MLOAD PUSH4 0x8A888953 PUSH1 0xE0 SHL DUP2 MSTORE PUSH1 0x4 DUP2 ADD SWAP3 SWAP1 SWAP3 MSTORE PUSH1 0x24 DUP3 ADD SWAP5 SWAP1 SWAP5 MSTORE SWAP4 SWAP6 POP SWAP4 SWAP2 SWAP3 PUSH1 0x1 PUSH1 0x1 PUSH1 0xA0 SHL SUB SWAP1 SWAP2 AND SWAP1 PUSH4 0x8A888953 SWAP1 PUSH1 0x44 ADD PUSH1 0x20 PUSH1 0x40 MLOAD DUP1 DUP4 SUB DUP2 DUP7 GAS STATICCALL ISZERO DUP1 ISZERO PUSH2 0x21A7 JUMPI RETURNDATASIZE PUSH1 0x0 DUP1 RETURNDATACOPY RETURNDATASIZE PUSH1 0x0 REVERT JUMPDEST POP POP POP POP PUSH1 0x40 MLOAD RETURNDATASIZE PUSH1 0x1F NOT PUSH1 0x1F DUP3 ADD AND DUP3 ADD DUP1 PUSH1 0x40 MSTORE POP DUP2 ADD SWAP1 PUSH2 0x21CB SWAP2 SWAP1 PUSH2 0x5056 JUMP JUMPDEST SWAP1 POP PUSH1 0x1 PUSH1 0x1 PUSH1 0xA0 SHL SUB DUP2 AND PUSH2 0x2223 JUMPI PUSH1 0x40 MLOAD PUSH3 0x461BCD PUSH1 0xE5 SHL DUP2 MSTORE PUSH1 0x20 PUSH1 0x4 DUP3 ADD MSTORE PUSH1 0x13 PUSH1 0x24 DUP3 ADD MSTORE PUSH32 0x53656C6C65722074696C6520756E6F776E656400000000000000000000000000 PUSH1 0x44 DUP3 ADD MSTORE PUSH1 0x64 ADD PUSH2 0xDE7 JUMP JUMPDEST PUSH1 0x0 PUSH1 0x6E PUSH2 0x2232 DUP6 PUSH1 0x64 PUSH2 0x50BA JUMP JUMPDEST PUSH2 0x223C SWAP2 SWAP1 PUSH2 0x50D1 JUMP JUMPDEST SWAP1 POP PUSH1 0x0 PUSH2 0x224A DUP3 DUP7 PUSH2 0x5019 JUMP JUMPDEST PUSH1 0x1 SLOAD PUSH1 0x40 MLOAD PUSH32 0x23B872DD00000000000000000000000000000000000000000000000000000000 DUP2 MSTORE CALLER PUSH1 0x4 DUP3 ADD MSTORE ADDRESS PUSH1 0x24 DUP3 ADD MSTORE PUSH1 0x44 DUP2 ADD DUP9 SWAP1 MSTORE SWAP2 SWAP3 POP PUSH1 0x1 PUSH1 0x1 PUSH1 0xA0 SHL SUB AND SWAP1 PUSH4 0x23B872DD SWAP1 PUSH1 0x64 ADD PUSH1 0x20 PUSH1 0x40 MLOAD DUP1 DUP4 SUB DUP2 PUSH1 0x0 DUP8 GAS CALL ISZERO DUP1 ISZERO PUSH2 0x22BB JUMPI RETURNDATASIZE PUSH1 0x0 DUP1 RETURNDATACOPY RETURNDATASIZE PUSH1 0x0 REVERT JUMPDEST POP POP POP POP PUSH1 0x40 MLOAD RETURNDATASIZE PUSH1 0x1F NOT PUSH1 0x1F DUP3 ADD AND DUP3 ADD DUP1 PUSH1 0x40 MSTORE POP DUP2 ADD SWAP1 PUSH2 0x22DF SWAP2 SWAP1 PUSH2 0x507F JUMP JUMPDEST PUSH2 0x2351 JUMPI PUSH1 0x40 MLOAD PUSH3 0x461BCD PUSH1 0xE5 SHL DUP2 MSTORE PUSH1 0x20 PUSH1 0x4 DUP3 ADD MSTORE PUSH1 0x21 PUSH1 0x24 DUP3 ADD MSTORE PUSH32 0x546F6B656E207472616E7366657220746F20636F6E7472616374206661696C65 PUSH1 0x44 DUP3 ADD MSTORE PUSH32 0x6400000000000000000000000000000000000000000000000000000000000000 PUSH1 0x64 DUP3 ADD MSTORE PUSH1 0x84 ADD PUSH2 0xDE7 JUMP JUMPDEST PUSH1 0x1 SLOAD PUSH1 0x40 MLOAD PUSH32 0xA9059CBB00000000000000000000000000000000000000000000000000000000 DUP2 MSTORE PUSH1 0x1 PUSH1 0x1 PUSH1 0xA0 SHL SUB DUP6 DUP2 AND PUSH1 0x4 DUP4 ADD MSTORE PUSH1 0x24 DUP3 ADD DUP6 SWAP1 MSTORE SWAP1 SWAP2 AND SWAP1 PUSH4 0xA9059CBB SWAP1 PUSH1 0x44 ADD PUSH1 0x20 PUSH1 0x40 MLOAD DUP1 DUP4 SUB DUP2 PUSH1 0x0 DUP8 GAS CALL ISZERO DUP1 ISZERO PUSH2 0x23BD JUMPI RETURNDATASIZE PUSH1 0x0 DUP1 RETURNDATACOPY RETURNDATASIZE PUSH1 0x0 REVERT JUMPDEST POP POP POP POP PUSH1 0x40 MLOAD RETURNDATASIZE PUSH1 0x1F NOT PUSH1 0x1F DUP3 ADD AND DUP3 ADD DUP1 PUSH1 0x40 MSTORE POP DUP2 ADD SWAP1 PUSH2 0x23E1 SWAP2 SWAP1 PUSH2 0x507F JUMP JUMPDEST PUSH2 0x242D JUMPI PUSH1 0x40 MLOAD PUSH3 0x461BCD PUSH1 0xE5 SHL DUP2 MSTORE PUSH1 0x20 PUSH1 0x4 DUP3 ADD MSTORE PUSH1 0x19 PUSH1 0x24 DUP3 ADD MSTORE PUSH32 0x5472616E7366657220746F2073656C6C6572206661696C656400000000000000 PUSH1 0x44 DUP3 ADD MSTORE PUSH1 0x64 ADD PUSH2 0xDE7 JUMP JUMPDEST PUSH1 0x1 SLOAD PUSH1 0x40 MLOAD PUSH32 0x42966C6800000000000000000000000000000000000000000000000000000000 DUP2 MSTORE PUSH1 0x4 DUP2 ADD DUP4 SWAP1 MSTORE PUSH1 0x1 PUSH1 0x1 PUSH1 0xA0 SHL SUB SWAP1 SWAP2 AND SWAP1 PUSH4 0x42966C68 SWAP1 PUSH1 0x24 ADD PUSH1 0x20 PUSH1 0x40 MLOAD DUP1 DUP4 SUB DUP2 PUSH1 0x0 DUP8 GAS CALL ISZERO DUP1 ISZERO PUSH2 0x2491 JUMPI RETURNDATASIZE PUSH1 0x0 DUP1 RETURNDATACOPY RETURNDATASIZE PUSH1 0x0 REVERT JUMPDEST POP POP POP POP PUSH1 0x40 MLOAD RETURNDATASIZE PUSH1 0x1F NOT PUSH1 0x1F DUP3 ADD AND DUP3 ADD DUP1 PUSH1 0x40 MSTORE POP DUP2 ADD SWAP1 PUSH2 0x24B5 SWAP2 SWAP1 PUSH2 0x507F JUMP JUMPDEST PUSH2 0x2501 JUMPI PUSH1 0x40 MLOAD PUSH3 0x461BCD PUSH1 0xE5 SHL DUP2 MSTORE PUSH1 0x20 PUSH1 0x4 DUP3 ADD MSTORE PUSH1 0xF PUSH1 0x24 DUP3 ADD MSTORE PUSH32 0x4C4F50206275726E206661696C65640000000000000000000000000000000000 PUSH1 0x44 DUP3 ADD MSTORE PUSH1 0x64 ADD PUSH2 0xDE7 JUMP JUMPDEST PUSH1 0x0 SLOAD PUSH1 0x40 MLOAD PUSH4 0x3E5F2857 PUSH1 0xE0 SHL DUP2 MSTORE PUSH1 0xFF DUP1 DUP16 AND PUSH1 0x4 DUP4 ADD MSTORE DUP1 DUP15 AND PUSH1 0x24 DUP4 ADD MSTORE DUP13 AND PUSH1 0x44 DUP3 ADD MSTORE PUSH1 0x64 DUP2 ADD DUP7 SWAP1 MSTORE PUSH1 0x1 PUSH1 0x84 DUP3 ADD MSTORE PUSH1 0x1 PUSH1 0x1 PUSH1 0xA0 SHL SUB SWAP1 SWAP2 AND SWAP1 PUSH4 0x3E5F2857 SWAP1 PUSH1 0xA4 ADD PUSH1 0x0 PUSH1 0x40 MLOAD DUP1 DUP4 SUB DUP2 PUSH1 0x0 DUP8 DUP1 EXTCODESIZE ISZERO DUP1 ISZERO PUSH2 0x2567 JUMPI PUSH1 0x0 DUP1 REVERT JUMPDEST POP GAS CALL ISZERO DUP1 ISZERO PUSH2 0x257B JUMPI RETURNDATASIZE PUSH1 0x0 DUP1 RETURNDATACOPY RETURNDATASIZE PUSH1 0x0 REVERT JUMPDEST POP POP POP POP PUSH1 0xFF DUP11 AND PUSH1 0x0 SWAP1 DUP2 MSTORE PUSH1 0x5 PUSH1 0x20 MSTORE PUSH1 0x40 SWAP1 KECCAK256 DUP1 SLOAD PUSH2 0x259F SWAP1 PUSH1 0x1 SWAP1 PUSH2 0x5019 JUMP JUMPDEST DUP2 SLOAD DUP2 LT PUSH2 0x25AF JUMPI PUSH2 0x25AF PUSH2 0x4F4E JUMP JUMPDEST SWAP1 PUSH1 0x0 MSTORE PUSH1 0x20 PUSH1 0x0 KECCAK256 SWAP1 PUSH1 0x3 MUL ADD PUSH1 0x5 PUSH1 0x0 DUP13 PUSH1 0xFF AND PUSH1 0xFF AND DUP2 MSTORE PUSH1 0x20 ADD SWAP1 DUP2 MSTORE PUSH1 0x20 ADD PUSH1 0x0 KECCAK256 DUP11 DUP2 SLOAD DUP2 LT PUSH2 0x25E7 JUMPI PUSH2 0x25E7 PUSH2 0x4F4E JUMP JUMPDEST PUSH1 0x0 SWAP2 DUP3 MSTORE PUSH1 0x20 DUP1 DUP4 KECCAK256 DUP5 SLOAD PUSH1 0x3 SWAP1 SWAP4 MUL ADD DUP1 SLOAD PUSH32 0xFFFFFFFFFFFFFFFFFFFFFFFFFFFFFFFFFFFFFFFFFFFFFFFFFFFFFFFFFFFFFF00 DUP2 AND PUSH1 0xFF SWAP5 DUP6 AND SWAP1 DUP2 OR DUP4 SSTORE DUP7 SLOAD PUSH2 0x100 SWAP1 DUP2 SWAP1 DIV DUP7 AND MUL PUSH2 0xFFFF NOT SWAP1 SWAP3 AND OR OR DUP1 DUP3 SSTORE DUP6 SLOAD PUSH3 0x10000 SWAP1 DUP2 SWAP1 DIV DUP6 AND MUL PUSH32 0xFFFFFFFFFFFFFFFFFFFFFFFFFFFFFFFFFFFFFFFFFFFFFFFFFFFFFFFFFF00FFFF SWAP1 SWAP2 AND OR DUP2 SSTORE PUSH1 0x1 DUP1 DUP7 ADD SLOAD SWAP1 DUP3 ADD SSTORE PUSH1 0x2 SWAP5 DUP6 ADD SLOAD SWAP5 ADD SWAP4 SWAP1 SWAP4 SSTORE DUP13 AND DUP2 MSTORE PUSH1 0x5 SWAP1 SWAP2 MSTORE PUSH1 0x40 SWAP1 KECCAK256 DUP1 SLOAD DUP1 PUSH2 0x26A6 JUMPI PUSH2 0x26A6 PUSH2 0x5221 JUMP JUMPDEST PUSH1 0x0 DUP3 DUP2 MSTORE PUSH1 0x20 DUP2 KECCAK256 PUSH1 0x3 PUSH1 0x0 NOT SWAP1 SWAP4 ADD SWAP3 DUP4 MUL ADD DUP1 SLOAD PUSH32 0xFFFFFFFFFFFFFFFFFFFFFFFFFFFFFFFFFFFFFFFFFFFFFFFFFFFFFFFFFF000000 AND DUP2 SSTORE PUSH1 0x1 DUP2 ADD DUP3 SWAP1 SSTORE PUSH1 0x2 ADD SSTORE SWAP1 SSTORE PUSH1 0x40 MLOAD PUSH1 0xFF DUP12 AND SWAP1 PUSH1 0x1 PUSH1 0x1 PUSH1 0xA0 SHL SUB DUP6 AND SWAP1 CALLER SWAP1 PUSH32 0xCB8E9DCE1A8C67703D11D2B78043345960BAB3C035AA061005630270B28C89EC SWAP1 PUSH2 0x273B SWAP1 DUP10 SWAP1 DUP12 SWAP1 SWAP2 DUP3 MSTORE PUSH1 0x20 DUP3 ADD MSTORE PUSH1 0x40 ADD SWAP1 JUMP JUMPDEST PUSH1 0x40 MLOAD DUP1 SWAP2 SUB SWAP1 LOG4 POP POP POP POP POP POP POP POP POP POP POP POP JUMP JUMPDEST PUSH1 0x2 SLOAD PUSH1 0x40 MLOAD PUSH4 0x8A888953 PUSH1 0xE0 SHL DUP2 MSTORE PUSH1 0xFF DUP1 DUP9 AND PUSH1 0x4 DUP4 ADD MSTORE DUP7 AND PUSH1 0x24 DUP3 ADD MSTORE DUP7 SWAP2 DUP7 SWAP2 CALLER SWAP2 PUSH1 0x1 PUSH1 0x1 PUSH1 0xA0 SHL SUB AND SWAP1 PUSH4 0x8A888953 SWAP1 PUSH1 0x44 ADD PUSH1 0x20 PUSH1 0x40 MLOAD DUP1 DUP4 SUB DUP2 DUP7 GAS STATICCALL ISZERO DUP1 ISZERO PUSH2 0x27A8 JUMPI RETURNDATASIZE PUSH1 0x0 DUP1 RETURNDATACOPY RETURNDATASIZE PUSH1 0x0 REVERT JUMPDEST POP POP POP POP PUSH1 0x40 MLOAD RETURNDATASIZE PUSH1 0x1F NOT PUSH1 0x1F DUP3 ADD AND DUP3 ADD DUP1 PUSH1 0x40 MSTORE POP DUP2 ADD SWAP1 PUSH2 0x27CC SWAP2 SWAP1 PUSH2 0x5056 JUMP JUMPDEST PUSH1 0x1 PUSH1 0x1 PUSH1 0xA0 SHL SUB AND EQ PUSH2 0x2822 JUMPI PUSH1 0x40 MLOAD PUSH3 0x461BCD PUSH1 0xE5 SHL DUP2 MSTORE PUSH1 0x20 PUSH1 0x4 DUP3 ADD MSTORE PUSH1 0x18 PUSH1 0x24 DUP3 ADD MSTORE PUSH32 0x596F7520646F206E6F74206F776E20746869732074696C650000000000000000 PUSH1 0x44 DUP3 ADD MSTORE PUSH1 0x64 ADD PUSH2 0xDE7 JUMP JUMPDEST PUSH1 0x0 SLOAD PUSH1 0x40 MLOAD PUSH32 0x4855735C00000000000000000000000000000000000000000000000000000000 DUP2 MSTORE PUSH1 0xFF DUP1 DUP11 AND PUSH1 0x4 DUP4 ADD MSTORE DUP9 AND PUSH1 0x24 DUP3 ADD MSTORE PUSH1 0x1 PUSH1 0x1 PUSH1 0xA0 SHL SUB SWAP1 SWAP2 AND SWAP1 PUSH4 0x4855735C SWAP1 PUSH1 0x44 ADD PUSH1 0x20 PUSH1 0x40 MLOAD DUP1 DUP4 SUB DUP2 DUP7 GAS STATICCALL ISZERO DUP1 ISZERO PUSH2 0x288E JUMPI RETURNDATASIZE PUSH1 0x0 DUP1 RETURNDATACOPY RETURNDATASIZE PUSH1 0x0 REVERT JUMPDEST POP POP POP POP PUSH1 0x40 MLOAD RETURNDATASIZE PUSH1 0x1F NOT PUSH1 0x1F DUP3 ADD AND DUP3 ADD DUP1 PUSH1 0x40 MSTORE POP DUP2 ADD SWAP1 PUSH2 0x28B2 SWAP2 SWAP1 PUSH2 0x507F JUMP JUMPDEST PUSH2 0x28FE JUMPI PUSH1 0x40 MLOAD PUSH3 0x461BCD PUSH1 0xE5 SHL DUP2 MSTORE PUSH1 0x20 PUSH1 0x4 DUP3 ADD MSTORE PUSH1 0x16 PUSH1 0x24 DUP3 ADD MSTORE PUSH32 0x596F75206D75737420686176652061204D61726B657400000000000000000000 PUSH1 0x44 DUP3 ADD MSTORE PUSH1 0x64 ADD PUSH2 0xDE7 JUMP JUMPDEST PUSH3 0x989680 DUP4 LT ISZERO PUSH2 0x2951 JUMPI PUSH1 0x40 MLOAD PUSH3 0x461BCD PUSH1 0xE5 SHL DUP2 MSTORE PUSH1 0x20 PUSH1 0x4 DUP3 ADD MSTORE PUSH1 0x1E PUSH1 0x24 DUP3 ADD MSTORE PUSH32 0x5072696365206D7573742062652067726561746572207468616E2074656E0000 PUSH1 0x44 DUP3 ADD MSTORE PUSH1 0x64 ADD PUSH2 0xDE7 JUMP JUMPDEST PUSH1 0x1 DUP6 PUSH1 0xFF AND LT ISZERO DUP1 ISZERO PUSH2 0x2969 JUMPI POP PUSH1 0x8 DUP6 PUSH1 0xFF AND GT ISZERO JUMPDEST PUSH2 0x29B5 JUMPI PUSH1 0x40 MLOAD PUSH3 0x461BCD PUSH1 0xE5 SHL DUP2 MSTORE PUSH1 0x20 PUSH1 0x4 DUP3 ADD MSTORE PUSH1 0x15 PUSH1 0x24 DUP3 ADD MSTORE PUSH32 0x496E76616C6964207265736F7572636520747970650000000000000000000000 PUSH1 0x44 DUP3 ADD MSTORE PUSH1 0x64 ADD PUSH2 0xDE7 JUMP JUMPDEST PUSH1 0x4 DUP6 PUSH1 0xFF AND GT PUSH2 0x2A27 JUMPI PUSH2 0x2710 DUP5 LT ISZERO DUP1 ISZERO PUSH2 0x29D6 JUMPI POP PUSH4 0x5F5E100 DUP5 GT ISZERO JUMPDEST PUSH2 0x2A22 JUMPI PUSH1 0x40 MLOAD PUSH3 0x461BCD PUSH1 0xE5 SHL DUP2 MSTORE PUSH1 0x20 PUSH1 0x4 DUP3 ADD MSTORE PUSH1 0x1B PUSH1 0x24 DUP3 ADD MSTORE PUSH32 0x496E76616C696420616D6F756E7420666F72207265736F757263650000000000 PUSH1 0x44 DUP3 ADD MSTORE PUSH1 0x64 ADD PUSH2 0xDE7 JUMP JUMPDEST PUSH2 0x2AAC JUMP JUMPDEST PUSH1 0x64 DUP5 LT ISZERO DUP1 ISZERO PUSH2 0x2A3A JUMPI POP PUSH2 0x2710 DUP5 GT ISZERO JUMPDEST PUSH2 0x2AAC JUMPI PUSH1 0x40 MLOAD PUSH3 0x461BCD PUSH1 0xE5 SHL DUP2 MSTORE PUSH1 0x20 PUSH1 0x4 DUP3 ADD MSTORE PUSH1 0x25 PUSH1 0x24 DUP3 ADD MSTORE PUSH32 0x496E76616C696420616D6F756E7420666F72206D696C69746172792065717569 PUSH1 0x44 DUP3 ADD MSTORE PUSH32 0x706D656E74000000000000000000000000000000000000000000000000000000 PUSH1 0x64 DUP3 ADD MSTORE PUSH1 0x84 ADD PUSH2 0xDE7 JUMP JUMPDEST PUSH1 0x0 DUP1 SLOAD PUSH1 0x40 MLOAD PUSH4 0x3E5F2857 PUSH1 0xE0 SHL DUP2 MSTORE PUSH1 0xFF DUP1 DUP12 AND PUSH1 0x4 DUP4 ADD MSTORE DUP1 DUP11 AND PUSH1 0x24 DUP4 ADD MSTORE DUP9 AND PUSH1 0x44 DUP3 ADD MSTORE PUSH1 0x64 DUP2 ADD DUP8 SWAP1 MSTORE PUSH1 0x84 DUP2 ADD SWAP3 SWAP1 SWAP3 MSTORE PUSH1 0x1 PUSH1 0x1 PUSH1 0xA0 SHL SUB AND SWAP1 PUSH4 0x3E5F2857 SWAP1 PUSH1 0xA4 ADD PUSH1 0x0 PUSH1 0x40 MLOAD DUP1 DUP4 SUB DUP2 PUSH1 0x0 DUP8 DUP1 EXTCODESIZE ISZERO DUP1 ISZERO PUSH2 0x2B12 JUMPI PUSH1 0x0 DUP1 REVERT JUMPDEST POP GAS CALL ISZERO DUP1 ISZERO PUSH2 0x2B26 JUMPI RETURNDATASIZE PUSH1 0x0 DUP1 RETURNDATACOPY RETURNDATASIZE PUSH1 0x0 REVERT JUMPDEST POP POP POP POP PUSH1 0x0 PUSH1 0xA DUP5 PUSH2 0x2B39 SWAP2 SWAP1 PUSH2 0x50D1 JUMP JUMPDEST PUSH2 0x2B43 SWAP1 DUP6 PUSH2 0x5043 JUMP JUMPDEST PUSH1 0xFF DUP1 DUP9 AND PUSH1 0x0 DUP2 DUP2 MSTORE PUSH1 0x5 PUSH1 0x20 SWAP1 DUP2 MSTORE PUSH1 0x40 DUP1 DUP4 KECCAK256 DUP2 MLOAD PUSH1 0xA0 DUP2 ADD DUP4 MSTORE DUP16 DUP8 AND DUP2 MSTORE DUP15 DUP8 AND DUP2 DUP6 ADD SWAP1 DUP2 MSTORE DUP2 DUP5 ADD DUP8 DUP2 MSTORE PUSH1 0x60 DUP4 ADD DUP16 DUP2 MSTORE PUSH1 0x80 DUP5 ADD DUP12 DUP2 MSTORE DUP6 SLOAD PUSH1 0x1 DUP2 DUP2 ADD DUP9 SSTORE SWAP7 DUP11 MSTORE SWAP8 SWAP1 SWAP9 KECCAK256 SWAP4 MLOAD PUSH1 0x3 SWAP1 SWAP8 MUL SWAP1 SWAP4 ADD DUP1 SLOAD SWAP3 MLOAD SWAP2 MLOAD DUP11 AND PUSH3 0x10000 MUL PUSH32 0xFFFFFFFFFFFFFFFFFFFFFFFFFFFFFFFFFFFFFFFFFFFFFFFFFFFFFFFFFF00FFFF SWAP3 DUP12 AND PUSH2 0x100 MUL PUSH2 0xFFFF NOT SWAP1 SWAP5 AND SWAP8 SWAP1 SWAP11 AND SWAP7 SWAP1 SWAP7 OR SWAP2 SWAP1 SWAP2 OR AND SWAP7 SWAP1 SWAP7 OR DUP4 SSTORE SWAP5 MLOAD SWAP5 DUP3 ADD SWAP5 SWAP1 SWAP5 SSTORE SWAP1 MLOAD PUSH1 0x2 SWAP1 SWAP2 ADD SSTORE SWAP1 MLOAD SWAP2 SWAP3 POP SWAP1 CALLER SWAP1 PUSH32 0x9D2FA11E70F4C72F4275D772A6E09BBD83B3800A6B4F2351A7AC06DF8DB5169E SWAP1 PUSH2 0x2C3D SWAP1 DUP10 SWAP1 DUP10 SWAP1 SWAP2 DUP3 MSTORE PUSH1 0x20 DUP3 ADD MSTORE PUSH1 0x40 ADD SWAP1 JUMP JUMPDEST PUSH1 0x40 MLOAD DUP1 SWAP2 SUB SWAP1 LOG3 POP POP POP POP POP POP POP POP JUMP JUMPDEST PUSH1 0x9 DUP2 DUP2 SLOAD DUP2 LT PUSH2 0x2C5F JUMPI PUSH1 0x0 DUP1 REVERT JUMPDEST SWAP1 PUSH1 0x0 MSTORE PUSH1 0x20 PUSH1 0x0 KECCAK256 SWAP1 PUSH1 0x2 MUL ADD PUSH1 0x0 SWAP2 POP SWAP1 POP DUP1 PUSH1 0x0 ADD DUP1 SLOAD PUSH2 0x2C82 SWAP1 PUSH2 0x4F7D JUMP JUMPDEST DUP1 PUSH1 0x1F ADD PUSH1 0x20 DUP1 SWAP2 DIV MUL PUSH1 0x20 ADD PUSH1 0x40 MLOAD SWAP1 DUP2 ADD PUSH1 0x40 MSTORE DUP1 SWAP3 SWAP2 SWAP1 DUP2 DUP2 MSTORE PUSH1 0x20 ADD DUP3 DUP1 SLOAD PUSH2 0x2CAE SWAP1 PUSH2 0x4F7D JUMP JUMPDEST DUP1 ISZERO PUSH2 0x2CFB JUMPI DUP1 PUSH1 0x1F LT PUSH2 0x2CD0 JUMPI PUSH2 0x100 DUP1 DUP4 SLOAD DIV MUL DUP4 MSTORE SWAP2 PUSH1 0x20 ADD SWAP2 PUSH2 0x2CFB JUMP JUMPDEST DUP3 ADD SWAP2 SWAP1 PUSH1 0x0 MSTORE PUSH1 0x20 PUSH1 0x0 KECCAK256 SWAP1 JUMPDEST DUP2 SLOAD DUP2 MSTORE SWAP1 PUSH1 0x1 ADD SWAP1 PUSH1 0x20 ADD DUP1 DUP4 GT PUSH2 0x2CDE JUMPI DUP3 SWAP1 SUB PUSH1 0x1F AND DUP3 ADD SWAP2 JUMPDEST POP POP POP POP POP SWAP1 DUP1 PUSH1 0x1 ADD DUP1 SLOAD PUSH2 0x2D10 SWAP1 PUSH2 0x4F7D JUMP JUMPDEST DUP1 PUSH1 0x1F ADD PUSH1 0x20 DUP1 SWAP2 DIV MUL PUSH1 0x20 ADD PUSH1 0x40 MLOAD SWAP1 DUP2 ADD PUSH1 0x40 MSTORE DUP1 SWAP3 SWAP2 SWAP1 DUP2 DUP2 MSTORE PUSH1 0x20 ADD DUP3 DUP1 SLOAD PUSH2 0x2D3C SWAP1 PUSH2 0x4F7D JUMP JUMPDEST DUP1 ISZERO PUSH2 0x2D89 JUMPI DUP1 PUSH1 0x1F LT PUSH2 0x2D5E JUMPI PUSH2 0x100 DUP1 DUP4 SLOAD DIV MUL DUP4 MSTORE SWAP2 PUSH1 0x20 ADD SWAP2 PUSH2 0x2D89 JUMP JUMPDEST DUP3 ADD SWAP2 SWAP1 PUSH1 0x0 MSTORE PUSH1 0x20 PUSH1 0x0 KECCAK256 SWAP1 JUMPDEST DUP2 SLOAD DUP2 MSTORE SWAP1 PUSH1 0x1 ADD SWAP1 PUSH1 0x20 ADD DUP1 DUP4 GT PUSH2 0x2D6C JUMPI DUP3 SWAP1 SUB PUSH1 0x1F AND DUP3 ADD SWAP2 JUMPDEST POP POP POP POP POP SWAP1 POP DUP3 JUMP JUMPDEST PUSH1 0xFF DUP2 AND PUSH1 0x8 DUP4 SWAP1 SHL PUSH2 0xFF00 AND OR PUSH1 0x0 DUP2 DUP2 MSTORE PUSH1 0xA PUSH1 0x20 MSTORE PUSH1 0x40 DUP2 KECCAK256 DUP1 SLOAD PUSH1 0x60 SWAP4 SWAP3 SWAP1 PUSH8 0xFFFFFFFFFFFFFFFF DUP2 GT ISZERO PUSH2 0x2DCE JUMPI PUSH2 0x2DCE PUSH2 0x4F1F JUMP JUMPDEST PUSH1 0x40 MLOAD SWAP1 DUP1 DUP3 MSTORE DUP1 PUSH1 0x20 MUL PUSH1 0x20 ADD DUP3 ADD PUSH1 0x40 MSTORE DUP1 ISZERO PUSH2 0x2E78 JUMPI DUP2 PUSH1 0x20 ADD JUMPDEST PUSH2 0x2E65 PUSH1 0x40 MLOAD DUP1 PUSH2 0x1A0 ADD PUSH1 0x40 MSTORE DUP1 PUSH1 0x0 PUSH1 0xFF AND DUP2 MSTORE PUSH1 0x20 ADD PUSH1 0x0 PUSH1 0xFF AND DUP2 MSTORE PUSH1 0x20 ADD PUSH1 0x0 PUSH1 0xFF AND DUP2 MSTORE PUSH1 0x20 ADD PUSH1 0x0 PUSH1 0xFF AND DUP2 MSTORE PUSH1 0x20 ADD PUSH1 0x0 DUP2 MSTORE PUSH1 0x20 ADD PUSH1 0x0 ISZERO ISZERO DUP2 MSTORE PUSH1 0x20 ADD PUSH1 0x0 DUP2 MSTORE PUSH1 0x20 ADD PUSH1 0x0 DUP2 MSTORE PUSH1 0x20 ADD PUSH1 0x0 DUP2 MSTORE PUSH1 0x20 ADD PUSH1 0x0 DUP2 MSTORE PUSH1 0x20 ADD PUSH1 0x0 DUP2 MSTORE PUSH1 0x20 ADD PUSH1 0x0 DUP2 MSTORE PUSH1 0x20 ADD PUSH1 0x0 DUP2 MSTORE POP SWAP1 JUMP JUMPDEST DUP2 MSTORE PUSH1 0x20 ADD SWAP1 PUSH1 0x1 SWAP1 SUB SWAP1 DUP2 PUSH2 0x2DEC JUMPI SWAP1 POP JUMPDEST POP SWAP1 POP PUSH1 0x0 JUMPDEST DUP3 SLOAD DUP2 LT ISZERO PUSH2 0x2FA1 JUMPI PUSH1 0x8 DUP4 DUP3 DUP2 SLOAD DUP2 LT PUSH2 0x2E9B JUMPI PUSH2 0x2E9B PUSH2 0x4F4E JUMP JUMPDEST SWAP1 PUSH1 0x0 MSTORE PUSH1 0x20 PUSH1 0x0 KECCAK256 ADD SLOAD DUP2 SLOAD DUP2 LT PUSH2 0x2EB6 JUMPI PUSH2 0x2EB6 PUSH2 0x4F4E JUMP JUMPDEST PUSH1 0x0 SWAP2 DUP3 MSTORE PUSH1 0x20 SWAP2 DUP3 SWAP1 KECCAK256 PUSH1 0x40 DUP1 MLOAD PUSH2 0x1A0 DUP2 ADD DUP3 MSTORE PUSH1 0xA SWAP1 SWAP4 MUL SWAP1 SWAP2 ADD DUP1 SLOAD PUSH1 0xFF DUP1 DUP3 AND DUP6 MSTORE PUSH2 0x100 DUP1 DUP4 DIV DUP3 AND SWAP7 DUP7 ADD SWAP7 SWAP1 SWAP7 MSTORE PUSH3 0x10000 DUP3 DIV DUP2 AND SWAP4 DUP6 ADD SWAP4 SWAP1 SWAP4 MSTORE PUSH4 0x1000000 SWAP1 DIV DUP3 AND PUSH1 0x60 DUP5 ADD MSTORE PUSH1 0x1 DUP2 ADD SLOAD PUSH1 0x80 DUP5 ADD MSTORE PUSH1 0x2 DUP2 ADD SLOAD SWAP1 SWAP2 AND ISZERO ISZERO PUSH1 0xA0 DUP4 ADD MSTORE PUSH1 0x3 DUP2 ADD SLOAD PUSH1 0xC0 DUP4 ADD MSTORE PUSH1 0x4 DUP2 ADD SLOAD PUSH1 0xE0 DUP4 ADD MSTORE PUSH1 0x5 DUP2 ADD SLOAD SWAP3 DUP3 ADD SWAP3 SWAP1 SWAP3 MSTORE PUSH1 0x6 DUP3 ADD SLOAD PUSH2 0x120 DUP3 ADD MSTORE PUSH1 0x7 DUP3 ADD SLOAD PUSH2 0x140 DUP3 ADD MSTORE PUSH1 0x8 DUP3 ADD SLOAD PUSH2 0x160 DUP3 ADD MSTORE PUSH1 0x9 SWAP1 SWAP2 ADD SLOAD PUSH2 0x180 DUP3 ADD MSTORE DUP3 MLOAD DUP4 SWAP1 DUP4 SWAP1 DUP2 LT PUSH2 0x2F83 JUMPI PUSH2 0x2F83 PUSH2 0x4F4E JUMP JUMPDEST PUSH1 0x20 MUL PUSH1 0x20 ADD ADD DUP2 SWAP1 MSTORE POP DUP1 DUP1 PUSH2 0x2F99 SWAP1 PUSH2 0x4FFF JUMP JUMPDEST SWAP2 POP POP PUSH2 0x2E7E JUMP JUMPDEST POP SWAP6 SWAP5 POP POP POP POP POP JUMP JUMPDEST PUSH1 0x0 DUP2 PUSH1 0xFF AND DUP4 PUSH1 0xFF AND GT PUSH2 0x2FC9 JUMPI PUSH2 0x2FC4 DUP4 DUP4 PUSH2 0x5250 JUMP JUMPDEST PUSH2 0x2FD3 JUMP JUMPDEST PUSH2 0x2FD3 DUP3 DUP5 PUSH2 0x5250 JUMP JUMPDEST SWAP4 SWAP3 POP POP POP JUMP JUMPDEST DUP2 PUSH1 0x1 PUSH1 0x1 PUSH1 0xA0 SHL SUB AND DUP2 PUSH1 0x1 PUSH1 0x1 PUSH1 0xA0 SHL SUB AND SUB PUSH2 0x303B JUMPI PUSH1 0x40 MLOAD PUSH3 0x461BCD PUSH1 0xE5 SHL DUP2 MSTORE PUSH1 0x20 PUSH1 0x4 DUP3 ADD MSTORE PUSH1 0x15 PUSH1 0x24 DUP3 ADD MSTORE PUSH32 0x43616E27742061747461636B20796F757273656C660000000000000000000000 PUSH1 0x44 DUP3 ADD MSTORE PUSH1 0x64 ADD PUSH2 0xDE7 JUMP JUMPDEST PUSH1 0x3 SLOAD PUSH1 0x40 MLOAD PUSH32 0x7AB9E7FE00000000000000000000000000000000000000000000000000000000 DUP2 MSTORE PUSH1 0xFF DUP1 DUP10 AND PUSH1 0x4 DUP4 ADD MSTORE DUP8 AND PUSH1 0x24 DUP3 ADD MSTORE PUSH1 0x0 SWAP2 PUSH1 0x1 PUSH1 0x1 PUSH1 0xA0 SHL SUB AND SWAP1 PUSH4 0x7AB9E7FE SWAP1 PUSH1 0x44 ADD PUSH1 0x20 PUSH1 0x40 MLOAD DUP1 DUP4 SUB DUP2 DUP7 GAS STATICCALL ISZERO DUP1 ISZERO PUSH2 0x30A8 JUMPI RETURNDATASIZE PUSH1 0x0 DUP1 RETURNDATACOPY RETURNDATASIZE PUSH1 0x0 REVERT JUMPDEST POP POP POP POP PUSH1 0x40 MLOAD RETURNDATASIZE PUSH1 0x1F NOT PUSH1 0x1F DUP3 ADD AND DUP3 ADD DUP1 PUSH1 0x40 MSTORE POP DUP2 ADD SWAP1 PUSH2 0x30CC SWAP2 SWAP1 PUSH2 0x5269 JUMP JUMPDEST PUSH1 0x3 SLOAD PUSH1 0x40 MLOAD PUSH32 0x7AB9E7FE00000000000000000000000000000000000000000000000000000000 DUP2 MSTORE PUSH1 0xFF DUP1 DUP10 AND PUSH1 0x4 DUP4 ADD MSTORE DUP8 AND PUSH1 0x24 DUP3 ADD MSTORE SWAP2 SWAP3 POP PUSH1 0x0 SWAP2 PUSH1 0x1 PUSH1 0x1 PUSH1 0xA0 SHL SUB SWAP1 SWAP2 AND SWAP1 PUSH4 0x7AB9E7FE SWAP1 PUSH1 0x44 ADD PUSH1 0x20 PUSH1 0x40 MLOAD DUP1 DUP4 SUB DUP2 DUP7 GAS STATICCALL ISZERO DUP1 ISZERO PUSH2 0x313E JUMPI RETURNDATASIZE PUSH1 0x0 DUP1 RETURNDATACOPY RETURNDATASIZE PUSH1 0x0 REVERT JUMPDEST POP POP POP POP PUSH1 0x40 MLOAD RETURNDATASIZE PUSH1 0x1F NOT PUSH1 0x1F DUP3 ADD AND DUP3 ADD DUP1 PUSH1 0x40 MSTORE POP DUP2 ADD SWAP1 PUSH2 0x3162 SWAP2 SWAP1 PUSH2 0x5269 JUMP JUMPDEST SWAP1 POP PUSH1 0xFF DUP3 AND ISZERO DUP1 PUSH2 0x3175 JUMPI POP PUSH1 0xFF DUP2 AND ISZERO JUMPDEST DUP1 PUSH2 0x3186 JUMPI POP DUP1 PUSH1 0xFF AND DUP3 PUSH1 0xFF AND EQ ISZERO JUMPDEST PUSH2 0x31F8 JUMPI PUSH1 0x40 MLOAD PUSH3 0x461BCD PUSH1 0xE5 SHL DUP2 MSTORE PUSH1 0x20 PUSH1 0x4 DUP3 ADD MSTORE PUSH1 0x27 PUSH1 0x24 DUP3 ADD MSTORE PUSH32 0x43616E6E6F742061747461636B2061206D656D626572206F6620796F7572206F PUSH1 0x44 DUP3 ADD MSTORE PUSH32 0x776E20636C616E00000000000000000000000000000000000000000000000000 PUSH1 0x64 DUP3 ADD MSTORE PUSH1 0x84 ADD PUSH2 0xDE7 JUMP JUMPDEST PUSH1 0x0 PUSH2 0x3204 DUP9 DUP8 PUSH2 0x2FAB JUMP JUMPDEST PUSH2 0x320E DUP11 DUP10 PUSH2 0x2FAB JUMP JUMPDEST PUSH2 0x3218 SWAP2 SWAP1 PUSH2 0x50A1 JUMP JUMPDEST SWAP1 POP PUSH1 0x0 DUP2 PUSH1 0xFF AND GT DUP1 ISZERO PUSH2 0x3231 JUMPI POP PUSH1 0x26 DUP2 PUSH1 0xFF AND GT ISZERO JUMPDEST PUSH2 0x327D JUMPI PUSH1 0x40 MLOAD PUSH3 0x461BCD PUSH1 0xE5 SHL DUP2 MSTORE PUSH1 0x20 PUSH1 0x4 DUP3 ADD MSTORE PUSH1 0x1B PUSH1 0x24 DUP3 ADD MSTORE PUSH32 0x54617267657420746F6F20666172206F722073616D652074696C650000000000 PUSH1 0x44 DUP3 ADD MSTORE PUSH1 0x64 ADD PUSH2 0xDE7 JUMP JUMPDEST PUSH1 0xFF DUP1 DUP11 AND PUSH1 0x0 SWAP1 DUP2 MSTORE PUSH1 0x6 PUSH1 0x20 SWAP1 DUP2 MSTORE PUSH1 0x40 DUP1 DUP4 KECCAK256 SWAP4 DUP13 AND DUP4 MSTORE SWAP3 SWAP1 MSTORE KECCAK256 SLOAD PUSH2 0x32A8 SWAP1 PUSH1 0x96 PUSH2 0x5043 JUMP JUMPDEST PUSH1 0x0 SLOAD PUSH1 0x40 MLOAD PUSH32 0x41EDE44F00000000000000000000000000000000000000000000000000000000 DUP2 MSTORE PUSH1 0xFF DUP1 DUP14 AND PUSH1 0x4 DUP4 ADD MSTORE DUP12 AND PUSH1 0x24 DUP3 ADD MSTORE PUSH1 0x1 PUSH1 0x1 PUSH1 0xA0 SHL SUB SWAP1 SWAP2 AND SWAP1 PUSH4 0x41EDE44F SWAP1 PUSH1 0x44 ADD PUSH1 0x20 PUSH1 0x40 MLOAD DUP1 DUP4 SUB DUP2 DUP7 GAS STATICCALL ISZERO DUP1 ISZERO PUSH2 0x3314 JUMPI RETURNDATASIZE PUSH1 0x0 DUP1 RETURNDATACOPY RETURNDATASIZE PUSH1 0x0 REVERT JUMPDEST POP POP POP POP PUSH1 0x40 MLOAD RETURNDATASIZE PUSH1 0x1F NOT PUSH1 0x1F DUP3 ADD AND DUP3 ADD DUP1 PUSH1 0x40 MSTORE POP DUP2 ADD SWAP1 PUSH2 0x3338 SWAP2 SWAP1 PUSH2 0x5286 JUMP JUMPDEST LT ISZERO PUSH2 0x33AC JUMPI PUSH1 0x40 MLOAD PUSH3 0x461BCD PUSH1 0xE5 SHL DUP2 MSTORE PUSH1 0x20 PUSH1 0x4 DUP3 ADD MSTORE PUSH1 0x22 PUSH1 0x24 DUP3 ADD MSTORE PUSH32 0x4E6F7420656E6F756768207475726E732073696E6365206C6173742061747461 PUSH1 0x44 DUP3 ADD MSTORE PUSH32 0x636B000000000000000000000000000000000000000000000000000000000000 PUSH1 0x64 DUP3 ADD MSTORE PUSH1 0x84 ADD PUSH2 0xDE7 JUMP JUMPDEST PUSH1 0xFF DUP1 DUP9 AND PUSH1 0x0 SWAP1 DUP2 MSTORE PUSH1 0x7 PUSH1 0x20 SWAP1 DUP2 MSTORE PUSH1 0x40 DUP1 DUP4 KECCAK256 SWAP4 DUP11 AND DUP4 MSTORE SWAP3 SWAP1 MSTORE KECCAK256 SLOAD PUSH2 0x33D8 SWAP1 PUSH2 0x12C PUSH2 0x5043 JUMP JUMPDEST PUSH1 0x0 SLOAD PUSH1 0x40 MLOAD PUSH32 0x41EDE44F00000000000000000000000000000000000000000000000000000000 DUP2 MSTORE PUSH1 0xFF DUP1 DUP12 AND PUSH1 0x4 DUP4 ADD MSTORE DUP10 AND PUSH1 0x24 DUP3 ADD MSTORE PUSH1 0x1 PUSH1 0x1 PUSH1 0xA0 SHL SUB SWAP1 SWAP2 AND SWAP1 PUSH4 0x41EDE44F SWAP1 PUSH1 0x44 ADD PUSH1 0x20 PUSH1 0x40 MLOAD DUP1 DUP4 SUB DUP2 DUP7 GAS STATICCALL ISZERO DUP1 ISZERO PUSH2 0x3444 JUMPI RETURNDATASIZE PUSH1 0x0 DUP1 RETURNDATACOPY RETURNDATASIZE PUSH1 0x0 REVERT JUMPDEST POP POP POP POP PUSH1 0x40 MLOAD RETURNDATASIZE PUSH1 0x1F NOT PUSH1 0x1F DUP3 ADD AND DUP3 ADD DUP1 PUSH1 0x40 MSTORE POP DUP2 ADD SWAP1 PUSH2 0x3468 SWAP2 SWAP1 PUSH2 0x5286 JUMP JUMPDEST LT ISZERO PUSH2 0x34DC JUMPI PUSH1 0x40 MLOAD PUSH3 0x461BCD PUSH1 0xE5 SHL DUP2 MSTORE PUSH1 0x20 PUSH1 0x4 DUP3 ADD MSTORE PUSH1 0x25 PUSH1 0x24 DUP3 ADD MSTORE PUSH32 0x446566656E64657220697320756E64657220636F6F6C646F776E2070726F7465 PUSH1 0x44 DUP3 ADD MSTORE PUSH32 0x6374696F6E000000000000000000000000000000000000000000000000000000 PUSH1 0x64 DUP3 ADD MSTORE PUSH1 0x84 ADD PUSH2 0xDE7 JUMP JUMPDEST POP POP POP POP POP POP POP POP POP JUMP JUMPDEST PUSH1 0x0 DUP2 PUSH2 0x160 ADD MLOAD DUP3 PUSH2 0x140 ADD MLOAD PUSH2 0x34FF SWAP2 SWAP1 PUSH2 0x5043 JUMP JUMPDEST PUSH2 0x350D PUSH1 0xFF DUP6 AND PUSH1 0x64 PUSH2 0x50BA JUMP JUMPDEST PUSH2 0x3517 SWAP2 SWAP1 PUSH2 0x50BA JUMP JUMPDEST PUSH1 0x0 SLOAD SWAP1 SWAP2 POP PUSH1 0x1 PUSH1 0x1 PUSH1 0xA0 SHL SUB AND PUSH4 0x3E5F2857 DUP7 DUP7 PUSH1 0x1 PUSH1 0x64 PUSH2 0x353C DUP8 PUSH1 0x28 PUSH2 0x50BA JUMP JUMPDEST PUSH2 0x3546 SWAP2 SWAP1 PUSH2 0x50D1 JUMP JUMPDEST PUSH1 0x40 MLOAD PUSH32 0xFFFFFFFF00000000000000000000000000000000000000000000000000000000 PUSH1 0xE0 DUP8 SWAP1 SHL AND DUP2 MSTORE PUSH1 0xFF SWAP5 DUP6 AND PUSH1 0x4 DUP3 ADD MSTORE SWAP3 DUP5 AND PUSH1 0x24 DUP5 ADD MSTORE SWAP3 AND PUSH1 0x44 DUP3 ADD MSTORE PUSH1 0x64 DUP2 ADD SWAP2 SWAP1 SWAP2 MSTORE PUSH1 0x0 PUSH1 0x84 DUP3 ADD MSTORE PUSH1 0xA4 ADD PUSH1 0x0 PUSH1 0x40 MLOAD DUP1 DUP4 SUB DUP2 PUSH1 0x0 DUP8 DUP1 EXTCODESIZE ISZERO DUP1 ISZERO PUSH2 0x35B7 JUMPI PUSH1 0x0 DUP1 REVERT JUMPDEST POP GAS CALL ISZERO DUP1 ISZERO PUSH2 0x35CB JUMPI RETURNDATASIZE PUSH1 0x0 DUP1 RETURNDATACOPY RETURNDATASIZE PUSH1 0x0 REVERT JUMPDEST POP POP PUSH1 0x0 SLOAD PUSH1 0x1 PUSH1 0x1 PUSH1 0xA0 SHL SUB AND SWAP2 POP PUSH4 0x3E5F2857 SWAP1 POP DUP7 DUP7 PUSH1 0x2 PUSH1 0x64 PUSH2 0x35F3 DUP8 PUSH1 0x1E PUSH2 0x50BA JUMP JUMPDEST PUSH2 0x35FD SWAP2 SWAP1 PUSH2 0x50D1 JUMP JUMPDEST PUSH1 0x40 MLOAD PUSH32 0xFFFFFFFF00000000000000000000000000000000000000000000000000000000 PUSH1 0xE0 DUP8 SWAP1 SHL AND DUP2 MSTORE PUSH1 0xFF SWAP5 DUP6 AND PUSH1 0x4 DUP3 ADD MSTORE SWAP3 DUP5 AND PUSH1 0x24 DUP5 ADD MSTORE SWAP3 AND PUSH1 0x44 DUP3 ADD MSTORE PUSH1 0x64 DUP2 ADD SWAP2 SWAP1 SWAP2 MSTORE PUSH1 0x0 PUSH1 0x84 DUP3 ADD MSTORE PUSH1 0xA4 ADD PUSH1 0x0 PUSH1 0x40 MLOAD DUP1 DUP4 SUB DUP2 PUSH1 0x0 DUP8 DUP1 EXTCODESIZE ISZERO DUP1 ISZERO PUSH2 0x366E JUMPI PUSH1 0x0 DUP1 REVERT JUMPDEST POP GAS CALL ISZERO DUP1 ISZERO PUSH2 0x3682 JUMPI RETURNDATASIZE PUSH1 0x0 DUP1 RETURNDATACOPY RETURNDATASIZE PUSH1 0x0 REVERT JUMPDEST POP POP PUSH1 0x0 SLOAD PUSH1 0x1 PUSH1 0x1 PUSH1 0xA0 SHL SUB AND SWAP2 POP PUSH4 0x3E5F2857 SWAP1 POP DUP7 DUP7 PUSH1 0x3 PUSH1 0x64 PUSH2 0x36AA DUP8 PUSH1 0x14 PUSH2 0x50BA JUMP JUMPDEST PUSH2 0x36B4 SWAP2 SWAP1 PUSH2 0x50D1 JUMP JUMPDEST PUSH1 0x40 MLOAD PUSH32 0xFFFFFFFF00000000000000000000000000000000000000000000000000000000 PUSH1 0xE0 DUP8 SWAP1 SHL AND DUP2 MSTORE PUSH1 0xFF SWAP5 DUP6 AND PUSH1 0x4 DUP3 ADD MSTORE SWAP3 DUP5 AND PUSH1 0x24 DUP5 ADD MSTORE SWAP3 AND PUSH1 0x44 DUP3 ADD MSTORE PUSH1 0x64 DUP2 ADD SWAP2 SWAP1 SWAP2 MSTORE PUSH1 0x0 PUSH1 0x84 DUP3 ADD MSTORE PUSH1 0xA4 ADD PUSH1 0x0 PUSH1 0x40 MLOAD DUP1 DUP4 SUB DUP2 PUSH1 0x0 DUP8 DUP1 EXTCODESIZE ISZERO DUP1 ISZERO PUSH2 0x3725 JUMPI PUSH1 0x0 DUP1 REVERT JUMPDEST POP GAS CALL ISZERO DUP1 ISZERO PUSH2 0x3739 JUMPI RETURNDATASIZE PUSH1 0x0 DUP1 RETURNDATACOPY RETURNDATASIZE PUSH1 0x0 REVERT JUMPDEST POP POP PUSH1 0x0 SLOAD PUSH1 0x1 PUSH1 0x1 PUSH1 0xA0 SHL SUB AND SWAP2 POP PUSH4 0x3E5F2857 SWAP1 POP DUP7 DUP7 PUSH1 0x4 PUSH1 0x64 PUSH2 0x3761 DUP8 PUSH1 0xA PUSH2 0x50BA JUMP JUMPDEST PUSH2 0x376B SWAP2 SWAP1 PUSH2 0x50D1 JUMP JUMPDEST PUSH1 0x40 MLOAD PUSH32 0xFFFFFFFF00000000000000000000000000000000000000000000000000000000 PUSH1 0xE0 DUP8 SWAP1 SHL AND DUP2 MSTORE PUSH1 0xFF SWAP5 DUP6 AND PUSH1 0x4 DUP3 ADD MSTORE SWAP3 DUP5 AND PUSH1 0x24 DUP5 ADD MSTORE SWAP3 AND PUSH1 0x44 DUP3 ADD MSTORE PUSH1 0x64 DUP2 ADD SWAP2 SWAP1 SWAP2 MSTORE PUSH1 0x0 PUSH1 0x84 DUP3 ADD MSTORE PUSH1 0xA4 ADD PUSH1 0x0 PUSH1 0x40 MLOAD DUP1 DUP4 SUB DUP2 PUSH1 0x0 DUP8 DUP1 EXTCODESIZE ISZERO DUP1 ISZERO PUSH2 0x37DC JUMPI PUSH1 0x0 DUP1 REVERT JUMPDEST POP GAS CALL ISZERO DUP1 ISZERO PUSH2 0x34DC JUMPI RETURNDATASIZE PUSH1 0x0 DUP1 RETURNDATACOPY RETURNDATASIZE PUSH1 0x0 REVERT JUMPDEST PUSH1 0x0 DUP1 SLOAD PUSH1 0x40 MLOAD PUSH32 0x2A490AE800000000000000000000000000000000000000000000000000000000 DUP2 MSTORE PUSH1 0xFF DUP1 DUP7 AND PUSH1 0x4 DUP4 ADD MSTORE DUP5 AND PUSH1 0x24 DUP3 ADD MSTORE DUP3 SWAP2 DUP3 SWAP2 PUSH1 0x1 PUSH1 0x1 PUSH1 0xA0 SHL SUB SWAP1 SWAP2 AND SWAP1 PUSH4 0x2A490AE8 SWAP1 PUSH1 0x44 ADD PUSH1 0x20 PUSH1 0x40 MLOAD DUP1 DUP4 SUB DUP2 DUP7 GAS STATICCALL ISZERO DUP1 ISZERO PUSH2 0x3861 JUMPI RETURNDATASIZE PUSH1 0x0 DUP1 RETURNDATACOPY RETURNDATASIZE PUSH1 0x0 REVERT JUMPDEST POP POP POP POP PUSH1 0x40 MLOAD RETURNDATASIZE PUSH1 0x1F NOT PUSH1 0x1F DUP3 ADD AND DUP3 ADD DUP1 PUSH1 0x40 MSTORE POP DUP2 ADD SWAP1 PUSH2 0x3885 SWAP2 SWAP1 PUSH2 0x5286 JUMP JUMPDEST SWAP1 POP PUSH1 0x0 DUP8 PUSH1 0x80 ADD MLOAD PUSH2 0xFFFF AND DUP9 PUSH2 0x180 ADD MLOAD PUSH1 0xFF AND DUP10 PUSH2 0x160 ADD MLOAD DUP11 PUSH2 0x140 ADD MLOAD PUSH1 0x2 PUSH2 0x38B3 SWAP2 SWAP1 PUSH2 0x50BA JUMP JUMPDEST PUSH2 0x38BD SWAP2 SWAP1 PUSH2 0x5043 JUMP JUMPDEST PUSH2 0x38C7 SWAP2 SWAP1 PUSH2 0x5043 JUMP JUMPDEST PUSH2 0x38D1 SWAP2 SWAP1 PUSH2 0x5043 JUMP JUMPDEST SWAP1 POP PUSH1 0x0 PUSH2 0x38E0 DUP4 PUSH1 0x64 PUSH2 0x50BA JUMP JUMPDEST DUP9 PUSH1 0x80 ADD MLOAD PUSH2 0xFFFF AND DUP10 PUSH2 0x1A0 ADD MLOAD PUSH1 0xFF AND DUP11 PUSH2 0x160 ADD MLOAD PUSH1 0x2 PUSH2 0x3904 SWAP2 SWAP1 PUSH2 0x50BA JUMP JUMPDEST DUP12 PUSH2 0x140 ADD MLOAD PUSH2 0x3914 SWAP2 SWAP1 PUSH2 0x5043 JUMP JUMPDEST PUSH2 0x391E SWAP2 SWAP1 PUSH2 0x5043 JUMP JUMPDEST PUSH2 0x3928 SWAP2 SWAP1 PUSH2 0x5043 JUMP JUMPDEST PUSH2 0x3932 SWAP2 SWAP1 PUSH2 0x5043 JUMP JUMPDEST SWAP2 SWAP10 SWAP2 SWAP9 POP SWAP1 SWAP7 POP POP POP POP POP POP POP JUMP JUMPDEST PUSH2 0x396D PUSH1 0x40 MLOAD DUP1 PUSH1 0x80 ADD PUSH1 0x40 MSTORE DUP1 PUSH1 0x0 DUP2 MSTORE PUSH1 0x20 ADD PUSH1 0x0 DUP2 MSTORE PUSH1 0x20 ADD PUSH1 0x0 DUP2 MSTORE PUSH1 0x20 ADD PUSH1 0x0 DUP2 MSTORE POP SWAP1 JUMP JUMPDEST PUSH1 0x0 PUSH2 0x398B DUP4 PUSH1 0x80 ADD MLOAD DUP5 PUSH1 0xA0 ADD MLOAD DUP6 PUSH1 0xC0 ADD MLOAD DUP7 PUSH1 0xE0 ADD MLOAD PUSH2 0x44E5 JUMP JUMPDEST DUP1 MLOAD SWAP1 SWAP2 POP ISZERO PUSH2 0x3A1C JUMPI PUSH1 0x0 DUP1 SLOAD DUP5 MLOAD PUSH1 0x20 DUP7 ADD MLOAD DUP5 MLOAD PUSH1 0x40 MLOAD PUSH4 0x3E5F2857 PUSH1 0xE0 SHL DUP2 MSTORE PUSH1 0xFF SWAP4 DUP5 AND PUSH1 0x4 DUP3 ADD MSTORE SWAP3 SWAP1 SWAP2 AND PUSH1 0x24 DUP4 ADD MSTORE PUSH1 0x9 PUSH1 0x44 DUP4 ADD MSTORE PUSH1 0x64 DUP3 ADD MSTORE PUSH1 0x84 DUP2 ADD SWAP3 SWAP1 SWAP3 MSTORE PUSH1 0x1 PUSH1 0x1 PUSH1 0xA0 SHL SUB AND SWAP1 PUSH4 0x3E5F2857 SWAP1 PUSH1 0xA4 ADD PUSH1 0x0 PUSH1 0x40 MLOAD DUP1 DUP4 SUB DUP2 PUSH1 0x0 DUP8 DUP1 EXTCODESIZE ISZERO DUP1 ISZERO PUSH2 0x3A03 JUMPI PUSH1 0x0 DUP1 REVERT JUMPDEST POP GAS CALL ISZERO DUP1 ISZERO PUSH2 0x3A17 JUMPI RETURNDATASIZE PUSH1 0x0 DUP1 RETURNDATACOPY RETURNDATASIZE PUSH1 0x0 REVERT JUMPDEST POP POP POP POP JUMPDEST PUSH1 0x20 DUP2 ADD MLOAD ISZERO PUSH2 0x3AB0 JUMPI PUSH1 0x0 DUP1 SLOAD DUP5 MLOAD PUSH1 0x20 DUP1 DUP8 ADD MLOAD SWAP1 DUP6 ADD MLOAD PUSH1 0x40 MLOAD PUSH4 0x3E5F2857 PUSH1 0xE0 SHL DUP2 MSTORE PUSH1 0xFF SWAP4 DUP5 AND PUSH1 0x4 DUP3 ADD MSTORE SWAP3 SWAP1 SWAP2 AND PUSH1 0x24 DUP4 ADD MSTORE PUSH1 0xA PUSH1 0x44 DUP4 ADD MSTORE PUSH1 0x64 DUP3 ADD MSTORE PUSH1 0x84 DUP2 ADD SWAP3 SWAP1 SWAP3 MSTORE PUSH1 0x1 PUSH1 0x1 PUSH1 0xA0 SHL SUB AND SWAP1 PUSH4 0x3E5F2857 SWAP1 PUSH1 0xA4 ADD PUSH1 0x0 PUSH1 0x40 MLOAD DUP1 DUP4 SUB DUP2 PUSH1 0x0 DUP8 DUP1 EXTCODESIZE ISZERO DUP1 ISZERO PUSH2 0x3A97 JUMPI PUSH1 0x0 DUP1 REVERT JUMPDEST POP GAS CALL ISZERO DUP1 ISZERO PUSH2 0x3AAB JUMPI RETURNDATASIZE PUSH1 0x0 DUP1 RETURNDATACOPY RETURNDATASIZE PUSH1 0x0 REVERT JUMPDEST POP POP POP POP JUMPDEST PUSH1 0x40 DUP2 ADD MLOAD ISZERO PUSH2 0x3B47 JUMPI PUSH1 0x0 DUP1 SLOAD PUSH1 0x40 DUP6 DUP2 ADD MLOAD PUSH1 0x60 DUP8 ADD MLOAD DUP6 DUP4 ADD MLOAD SWAP3 MLOAD PUSH4 0x3E5F2857 PUSH1 0xE0 SHL DUP2 MSTORE PUSH1 0xFF SWAP3 DUP4 AND PUSH1 0x4 DUP3 ADD MSTORE SWAP2 AND PUSH1 0x24 DUP3 ADD MSTORE PUSH1 0x9 PUSH1 0x44 DUP3 ADD MSTORE PUSH1 0x64 DUP2 ADD SWAP2 SWAP1 SWAP2 MSTORE PUSH1 0x84 DUP2 ADD SWAP3 SWAP1 SWAP3 MSTORE PUSH1 0x1 PUSH1 0x1 PUSH1 0xA0 SHL SUB AND SWAP1 PUSH4 0x3E5F2857 SWAP1 PUSH1 0xA4 ADD PUSH1 0x0 PUSH1 0x40 MLOAD DUP1 DUP4 SUB DUP2 PUSH1 0x0 DUP8 DUP1 EXTCODESIZE ISZERO DUP1 ISZERO PUSH2 0x3B2E JUMPI PUSH1 0x0 DUP1 REVERT JUMPDEST POP GAS CALL ISZERO DUP1 ISZERO PUSH2 0x3B42 JUMPI RETURNDATASIZE PUSH1 0x0 DUP1 RETURNDATACOPY RETURNDATASIZE PUSH1 0x0 REVERT JUMPDEST POP POP POP POP JUMPDEST PUSH1 0x60 DUP2 ADD MLOAD ISZERO PUSH2 0x1E5C JUMPI PUSH1 0x0 DUP1 SLOAD PUSH1 0x40 DUP6 DUP2 ADD MLOAD PUSH1 0x60 DUP1 DUP9 ADD MLOAD SWAP1 DUP7 ADD MLOAD SWAP3 MLOAD PUSH4 0x3E5F2857 PUSH1 0xE0 SHL DUP2 MSTORE PUSH1 0xFF SWAP3 DUP4 AND PUSH1 0x4 DUP3 ADD MSTORE SWAP2 AND PUSH1 0x24 DUP3 ADD MSTORE PUSH1 0xA PUSH1 0x44 DUP3 ADD MSTORE PUSH1 0x64 DUP2 ADD SWAP2 SWAP1 SWAP2 MSTORE PUSH1 0x84 DUP2 ADD SWAP3 SWAP1 SWAP3 MSTORE PUSH1 0x1 PUSH1 0x1 PUSH1 0xA0 SHL SUB AND SWAP1 PUSH4 0x3E5F2857 SWAP1 PUSH1 0xA4 ADD PUSH1 0x0 PUSH1 0x40 MLOAD DUP1 DUP4 SUB DUP2 PUSH1 0x0 DUP8 DUP1 EXTCODESIZE ISZERO DUP1 ISZERO PUSH2 0x3BC6 JUMPI PUSH1 0x0 DUP1 REVERT JUMPDEST POP GAS CALL ISZERO DUP1 ISZERO PUSH2 0x3BDA JUMPI RETURNDATASIZE PUSH1 0x0 DUP1 RETURNDATACOPY RETURNDATASIZE PUSH1 0x0 REVERT JUMPDEST POP POP POP POP SWAP3 SWAP2 POP POP JUMP JUMPDEST PUSH1 0x0 DUP1 DUP3 PUSH1 0xE0 ADD MLOAD DUP4 PUSH1 0xC0 ADD MLOAD GT PUSH2 0x3C0F JUMPI DUP3 PUSH1 0xC0 ADD MLOAD DUP4 PUSH1 0xE0 ADD MLOAD PUSH2 0x3C0A SWAP2 SWAP1 PUSH2 0x5019 JUMP JUMPDEST PUSH2 0x3C23 JUMP JUMPDEST DUP3 PUSH1 0xE0 ADD MLOAD DUP4 PUSH1 0xC0 ADD MLOAD PUSH2 0x3C23 SWAP2 SWAP1 PUSH2 0x5019 JUMP JUMPDEST SWAP1 POP PUSH1 0x0 DUP4 PUSH1 0xE0 ADD MLOAD DUP5 PUSH1 0xC0 ADD MLOAD PUSH2 0x3C3B SWAP2 SWAP1 PUSH2 0x5043 JUMP JUMPDEST SWAP1 POP PUSH1 0x0 DUP2 PUSH2 0x3C4B DUP5 PUSH1 0x64 PUSH2 0x50BA JUMP JUMPDEST PUSH2 0x3C55 SWAP2 SWAP1 PUSH2 0x50D1 JUMP JUMPDEST SWAP1 POP PUSH1 0x0 PUSH2 0x3C70 PUSH2 0x3C67 DUP4 PUSH1 0x1E PUSH2 0x5043 JUMP JUMPDEST PUSH1 0xA PUSH1 0x3C PUSH2 0x472F JUMP JUMPDEST SWAP1 POP PUSH2 0x3C9A PUSH1 0x1 DUP8 PUSH1 0xA0 ADD MLOAD PUSH1 0x0 ADD MLOAD DUP9 PUSH1 0x0 ADD MLOAD DUP10 PUSH1 0x20 ADD MLOAD DUP11 PUSH1 0x40 ADD MLOAD DUP12 PUSH1 0x60 ADD MLOAD DUP8 PUSH2 0x4757 JUMP JUMPDEST PUSH2 0x3CA4 SWAP1 DUP7 PUSH2 0x5043 JUMP JUMPDEST SWAP5 POP PUSH2 0x3CCE PUSH1 0x2 DUP8 PUSH1 0xA0 ADD MLOAD PUSH1 0x20 ADD MLOAD DUP9 PUSH1 0x0 ADD MLOAD DUP10 PUSH1 0x20 ADD MLOAD DUP11 PUSH1 0x40 ADD MLOAD DUP12 PUSH1 0x60 ADD MLOAD DUP8 PUSH2 0x4757 JUMP JUMPDEST PUSH2 0x3CD8 SWAP1 DUP7 PUSH2 0x5043 JUMP JUMPDEST SWAP5 POP PUSH2 0x3D02 PUSH1 0x3 DUP8 PUSH1 0xA0 ADD MLOAD PUSH1 0x40 ADD MLOAD DUP9 PUSH1 0x0 ADD MLOAD DUP10 PUSH1 0x20 ADD MLOAD DUP11 PUSH1 0x40 ADD MLOAD DUP12 PUSH1 0x60 ADD MLOAD DUP8 PUSH2 0x4757 JUMP JUMPDEST PUSH2 0x3D0C SWAP1 DUP7 PUSH2 0x5043 JUMP JUMPDEST SWAP5 POP PUSH2 0x3D36 PUSH1 0x4 DUP8 PUSH1 0xA0 ADD MLOAD PUSH1 0x60 ADD MLOAD DUP9 PUSH1 0x0 ADD MLOAD DUP10 PUSH1 0x20 ADD MLOAD DUP11 PUSH1 0x40 ADD MLOAD DUP12 PUSH1 0x60 ADD MLOAD DUP8 PUSH2 0x4757 JUMP JUMPDEST PUSH2 0x3D40 SWAP1 DUP7 PUSH2 0x5043 JUMP JUMPDEST SWAP7 SWAP6 POP POP POP POP POP POP JUMP JUMPDEST PUSH1 0x0 SLOAD DUP5 MLOAD PUSH1 0x20 DUP7 ADD MLOAD PUSH1 0x40 MLOAD PUSH32 0x41EDE44F00000000000000000000000000000000000000000000000000000000 DUP2 MSTORE PUSH1 0xFF SWAP3 DUP4 AND PUSH1 0x4 DUP3 ADD MSTORE SWAP2 AND PUSH1 0x24 DUP3 ADD MSTORE PUSH1 0x1 PUSH1 0x1 PUSH1 0xA0 SHL SUB SWAP1 SWAP2 AND SWAP1 PUSH4 0x41EDE44F SWAP1 PUSH1 0x44 ADD PUSH1 0x20 PUSH1 0x40 MLOAD DUP1 DUP4 SUB DUP2 DUP7 GAS STATICCALL ISZERO DUP1 ISZERO PUSH2 0x3DBD JUMPI RETURNDATASIZE PUSH1 0x0 DUP1 RETURNDATACOPY RETURNDATASIZE PUSH1 0x0 REVERT JUMPDEST POP POP POP POP PUSH1 0x40 MLOAD RETURNDATASIZE PUSH1 0x1F NOT PUSH1 0x1F DUP3 ADD AND DUP3 ADD DUP1 PUSH1 0x40 MSTORE POP DUP2 ADD SWAP1 PUSH2 0x3DE1 SWAP2 SWAP1 PUSH2 0x5286 JUMP JUMPDEST DUP5 MLOAD PUSH1 0xFF SWAP1 DUP2 AND PUSH1 0x0 SWAP1 DUP2 MSTORE PUSH1 0x6 PUSH1 0x20 SWAP1 DUP2 MSTORE PUSH1 0x40 DUP1 DUP4 KECCAK256 DUP3 DUP11 ADD MLOAD SWAP1 SWAP5 AND DUP4 MSTORE SWAP3 SWAP1 MSTORE DUP2 SWAP1 KECCAK256 SWAP2 SWAP1 SWAP2 SSTORE DUP4 ADD MLOAD ISZERO PUSH2 0x3ED9 JUMPI PUSH1 0x0 SLOAD PUSH1 0x40 DUP6 DUP2 ADD MLOAD PUSH1 0x60 DUP8 ADD MLOAD SWAP2 MLOAD PUSH32 0x41EDE44F00000000000000000000000000000000000000000000000000000000 DUP2 MSTORE PUSH1 0xFF SWAP2 DUP3 AND PUSH1 0x4 DUP3 ADD MSTORE SWAP2 AND PUSH1 0x24 DUP3 ADD MSTORE PUSH1 0x1 PUSH1 0x1 PUSH1 0xA0 SHL SUB SWAP1 SWAP2 AND SWAP1 PUSH4 0x41EDE44F SWAP1 PUSH1 0x44 ADD PUSH1 0x20 PUSH1 0x40 MLOAD DUP1 DUP4 SUB DUP2 DUP7 GAS STATICCALL ISZERO DUP1 ISZERO PUSH2 0x3E8A JUMPI RETURNDATASIZE PUSH1 0x0 DUP1 RETURNDATACOPY RETURNDATASIZE PUSH1 0x0 REVERT JUMPDEST POP POP POP POP PUSH1 0x40 MLOAD RETURNDATASIZE PUSH1 0x1F NOT PUSH1 0x1F DUP3 ADD AND DUP3 ADD DUP1 PUSH1 0x40 MSTORE POP DUP2 ADD SWAP1 PUSH2 0x3EAE SWAP2 SWAP1 PUSH2 0x5286 JUMP JUMPDEST PUSH1 0x40 DUP1 DUP7 ADD MLOAD PUSH1 0xFF SWAP1 DUP2 AND PUSH1 0x0 SWAP1 DUP2 MSTORE PUSH1 0x7 PUSH1 0x20 SWAP1 DUP2 MSTORE DUP4 DUP3 KECCAK256 PUSH1 0x60 DUP11 ADD MLOAD SWAP1 SWAP4 AND DUP3 MSTORE SWAP2 SWAP1 SWAP2 MSTORE KECCAK256 SSTORE JUMPDEST PUSH1 0x0 SLOAD DUP5 MLOAD PUSH1 0x20 DUP7 ADD MLOAD PUSH1 0x40 MLOAD PUSH32 0x7659BC6000000000000000000000000000000000000000000000000000000000 DUP2 MSTORE PUSH1 0xFF SWAP3 DUP4 AND PUSH1 0x4 DUP3 ADD MSTORE SWAP2 AND PUSH1 0x24 DUP3 ADD MSTORE PUSH1 0x1 PUSH1 0x1 PUSH1 0xA0 SHL SUB SWAP1 SWAP2 AND SWAP1 PUSH4 0x7659BC60 SWAP1 PUSH1 0x44 ADD PUSH1 0x0 PUSH1 0x40 MLOAD DUP1 DUP4 SUB DUP2 PUSH1 0x0 DUP8 DUP1 EXTCODESIZE ISZERO DUP1 ISZERO PUSH2 0x3F49 JUMPI PUSH1 0x0 DUP1 REVERT JUMPDEST POP GAS CALL ISZERO DUP1 ISZERO PUSH2 0x3F5D JUMPI RETURNDATASIZE PUSH1 0x0 DUP1 RETURNDATACOPY RETURNDATASIZE PUSH1 0x0 REVERT JUMPDEST POP POP PUSH1 0x0 SLOAD PUSH1 0x40 DUP8 DUP2 ADD MLOAD PUSH1 0x60 DUP10 ADD MLOAD SWAP2 MLOAD PUSH32 0x7659BC6000000000000000000000000000000000000000000000000000000000 DUP2 MSTORE PUSH1 0xFF SWAP2 DUP3 AND PUSH1 0x4 DUP3 ADD MSTORE SWAP2 AND PUSH1 0x24 DUP3 ADD MSTORE PUSH1 0x1 PUSH1 0x1 PUSH1 0xA0 SHL SUB SWAP1 SWAP2 AND SWAP3 POP PUSH4 0x7659BC60 SWAP2 POP PUSH1 0x44 ADD PUSH1 0x0 PUSH1 0x40 MLOAD DUP1 DUP4 SUB DUP2 PUSH1 0x0 DUP8 DUP1 EXTCODESIZE ISZERO DUP1 ISZERO PUSH2 0x3FD4 JUMPI PUSH1 0x0 DUP1 REVERT JUMPDEST POP GAS CALL ISZERO DUP1 ISZERO PUSH2 0x3FE8 JUMPI RETURNDATASIZE PUSH1 0x0 DUP1 RETURNDATACOPY RETURNDATASIZE PUSH1 0x0 REVERT JUMPDEST POP POP POP POP PUSH1 0x40 DUP4 DUP2 ADD MLOAD PUSH1 0x3 SLOAD DUP7 MLOAD PUSH1 0x20 DUP9 ADD MLOAD SWAP4 MLOAD PUSH32 0x9CEC519400000000000000000000000000000000000000000000000000000000 DUP2 MSTORE PUSH1 0xFF SWAP2 DUP3 AND PUSH1 0x4 DUP3 ADD MSTORE SWAP4 AND PUSH1 0x24 DUP5 ADD MSTORE SWAP1 SWAP2 PUSH1 0x0 SWAP2 PUSH1 0x1 PUSH1 0x1 PUSH1 0xA0 SHL SUB AND SWAP1 PUSH4 0x9CEC5194 SWAP1 PUSH1 0x44 ADD PUSH1 0x0 PUSH1 0x40 MLOAD DUP1 DUP4 SUB DUP2 DUP7 GAS STATICCALL ISZERO DUP1 ISZERO PUSH2 0x4067 JUMPI RETURNDATASIZE PUSH1 0x0 DUP1 RETURNDATACOPY RETURNDATASIZE PUSH1 0x0 REVERT JUMPDEST POP POP POP POP PUSH1 0x40 MLOAD RETURNDATASIZE PUSH1 0x0 DUP3 RETURNDATACOPY PUSH1 0x1F RETURNDATASIZE SWAP1 DUP2 ADD PUSH1 0x1F NOT AND DUP3 ADD PUSH1 0x40 MSTORE PUSH2 0x408F SWAP2 SWAP1 DUP2 ADD SWAP1 PUSH2 0x529F JUMP JUMPDEST PUSH1 0x3 SLOAD PUSH1 0x40 DUP9 DUP2 ADD MLOAD PUSH1 0x60 DUP11 ADD MLOAD SWAP2 MLOAD PUSH32 0x9CEC519400000000000000000000000000000000000000000000000000000000 DUP2 MSTORE PUSH1 0xFF SWAP2 DUP3 AND PUSH1 0x4 DUP3 ADD MSTORE SWAP2 AND PUSH1 0x24 DUP3 ADD MSTORE SWAP2 SWAP3 POP PUSH1 0x0 SWAP2 PUSH1 0x1 PUSH1 0x1 PUSH1 0xA0 SHL SUB SWAP1 SWAP2 AND SWAP1 PUSH4 0x9CEC5194 SWAP1 PUSH1 0x44 ADD PUSH1 0x0 PUSH1 0x40 MLOAD DUP1 DUP4 SUB DUP2 DUP7 GAS STATICCALL ISZERO DUP1 ISZERO PUSH2 0x410B JUMPI RETURNDATASIZE PUSH1 0x0 DUP1 RETURNDATACOPY RETURNDATASIZE PUSH1 0x0 REVERT JUMPDEST POP POP POP POP PUSH1 0x40 MLOAD RETURNDATASIZE PUSH1 0x0 DUP3 RETURNDATACOPY PUSH1 0x1F RETURNDATASIZE SWAP1 DUP2 ADD PUSH1 0x1F NOT AND DUP3 ADD PUSH1 0x40 MSTORE PUSH2 0x4133 SWAP2 SWAP1 DUP2 ADD SWAP1 PUSH2 0x529F JUMP JUMPDEST SWAP1 POP PUSH1 0x8 PUSH1 0x40 MLOAD DUP1 PUSH2 0x1A0 ADD PUSH1 0x40 MSTORE DUP1 DUP10 PUSH1 0x0 ADD MLOAD PUSH1 0xFF AND DUP2 MSTORE PUSH1 0x20 ADD DUP10 PUSH1 0x20 ADD MLOAD PUSH1 0xFF AND DUP2 MSTORE PUSH1 0x20 ADD DUP10 PUSH1 0x40 ADD MLOAD PUSH1 0xFF AND DUP2 MSTORE PUSH1 0x20 ADD DUP10 PUSH1 0x60 ADD MLOAD PUSH1 0xFF AND DUP2 MSTORE PUSH1 0x20 ADD TIMESTAMP DUP2 MSTORE PUSH1 0x20 ADD DUP9 PUSH1 0x40 ADD MLOAD ISZERO ISZERO DUP2 MSTORE PUSH1 0x20 ADD DUP10 PUSH1 0x80 ADD MLOAD PUSH2 0x160 ADD MLOAD DUP11 PUSH1 0x80 ADD MLOAD PUSH2 0x140 ADD MLOAD PUSH2 0x41A7 SWAP2 SWAP1 PUSH2 0x5043 JUMP JUMPDEST DUP2 MSTORE DUP9 MLOAD PUSH1 0x20 DUP2 DUP2 ADD MLOAD SWAP2 MLOAD SWAP3 ADD SWAP2 PUSH2 0x41C0 SWAP2 SWAP1 PUSH2 0x5043 JUMP JUMPDEST DUP2 MSTORE PUSH1 0x20 ADD DUP10 PUSH1 0xC0 ADD MLOAD DUP2 MSTORE PUSH1 0x20 ADD DUP10 PUSH1 0xA0 ADD MLOAD PUSH2 0x160 ADD MLOAD DUP11 PUSH1 0xA0 ADD MLOAD PUSH2 0x140 ADD MLOAD PUSH2 0x41ED SWAP2 SWAP1 PUSH2 0x5043 JUMP JUMPDEST DUP2 MSTORE PUSH1 0x20 ADD DUP9 PUSH1 0x0 ADD MLOAD PUSH1 0x60 ADD MLOAD DUP10 PUSH1 0x0 ADD MLOAD PUSH1 0x40 ADD MLOAD PUSH2 0x420E SWAP2 SWAP1 PUSH2 0x5043 JUMP JUMPDEST DUP2 MSTORE PUSH1 0xE0 DUP11 DUP2 ADD MLOAD PUSH1 0x20 DUP1 DUP5 ADD SWAP2 SWAP1 SWAP2 MSTORE DUP11 DUP2 ADD MLOAD PUSH1 0x40 SWAP4 DUP5 ADD MSTORE DUP5 SLOAD PUSH1 0x1 DUP1 DUP3 ADD DUP8 SSTORE PUSH1 0x0 SWAP7 DUP8 MSTORE DUP3 DUP8 KECCAK256 DUP7 MLOAD PUSH1 0xA SWAP1 SWAP4 MUL ADD DUP1 SLOAD DUP8 DUP6 ADD MLOAD DUP9 DUP9 ADD MLOAD PUSH1 0x60 DUP11 ADD MLOAD PUSH1 0xFF SWAP7 DUP8 AND PUSH2 0xFFFF NOT SWAP1 SWAP5 AND SWAP4 SWAP1 SWAP4 OR PUSH2 0x100 SWAP3 DUP8 AND DUP4 MUL OR PUSH32 0xFFFFFFFFFFFFFFFFFFFFFFFFFFFFFFFFFFFFFFFFFFFFFFFFFFFFFFFF0000FFFF AND PUSH3 0x10000 SWAP2 DUP8 AND SWAP2 SWAP1 SWAP2 MUL PUSH32 0xFFFFFFFFFFFFFFFFFFFFFFFFFFFFFFFFFFFFFFFFFFFFFFFFFFFFFFFF00FFFFFF AND OR PUSH4 0x1000000 SWAP6 SWAP1 SWAP3 AND SWAP5 SWAP1 SWAP5 MUL OR DUP2 SSTORE PUSH1 0x80 DUP8 ADD MLOAD DUP2 DUP4 ADD SSTORE PUSH1 0xA0 DUP8 ADD MLOAD PUSH1 0x2 DUP1 DUP4 ADD DUP1 SLOAD PUSH32 0xFFFFFFFFFFFFFFFFFFFFFFFFFFFFFFFFFFFFFFFFFFFFFFFFFFFFFFFFFFFFFF00 AND SWAP3 ISZERO ISZERO SWAP3 SWAP1 SWAP3 OR SWAP1 SWAP2 SSTORE PUSH1 0xC0 DUP9 ADD MLOAD PUSH1 0x3 DUP4 ADD SSTORE SWAP5 DUP8 ADD MLOAD PUSH1 0x4 DUP3 ADD SSTORE SWAP2 DUP7 ADD MLOAD PUSH1 0x5 DUP4 ADD SSTORE PUSH2 0x120 DUP7 ADD MLOAD PUSH1 0x6 DUP4 ADD SSTORE PUSH2 0x140 DUP7 ADD MLOAD PUSH1 0x7 DUP4 ADD SSTORE PUSH2 0x160 DUP7 ADD MLOAD PUSH1 0x8 DUP4 ADD SSTORE PUSH2 0x180 SWAP1 SWAP6 ADD MLOAD PUSH1 0x9 SWAP2 DUP3 ADD SSTORE DUP4 MLOAD DUP1 DUP6 ADD SWAP1 SWAP5 MSTORE DUP8 DUP5 MSTORE SWAP1 DUP4 ADD DUP7 SWAP1 MSTORE DUP1 SLOAD SWAP4 DUP5 ADD DUP2 SSTORE SWAP1 SWAP4 MSTORE DUP1 MLOAD SWAP1 SWAP3 PUSH32 0x6E1540171B6C0C960B71A7020D9F60077F6AF931A8BBF590DA0223DACF75C7AF SWAP3 MUL SWAP2 SWAP1 SWAP2 ADD SWAP1 DUP2 SWAP1 PUSH2 0x43A8 SWAP1 DUP3 PUSH2 0x5390 JUMP JUMPDEST POP PUSH1 0x20 DUP3 ADD MLOAD PUSH1 0x1 DUP3 ADD SWAP1 PUSH2 0x43BD SWAP1 DUP3 PUSH2 0x5390 JUMP JUMPDEST POP POP PUSH1 0x8 SLOAD PUSH1 0x0 SWAP2 POP PUSH2 0x43D2 SWAP1 PUSH1 0x1 SWAP1 PUSH2 0x5019 JUMP JUMPDEST SWAP1 POP PUSH1 0xA PUSH1 0x0 PUSH2 0x43F6 DUP11 PUSH1 0x0 ADD MLOAD DUP12 PUSH1 0x20 ADD MLOAD PUSH1 0xFF AND PUSH1 0x8 SWAP2 SWAP1 SWAP2 SHL PUSH2 0xFF00 AND OR SWAP1 JUMP JUMPDEST PUSH2 0xFFFF AND DUP2 MSTORE PUSH1 0x20 DUP1 DUP3 ADD SWAP3 SWAP1 SWAP3 MSTORE PUSH1 0x40 SWAP1 DUP2 ADD PUSH1 0x0 SWAP1 DUP2 KECCAK256 DUP1 SLOAD PUSH1 0x1 DUP2 ADD DUP3 SSTORE SWAP1 DUP3 MSTORE SWAP3 DUP2 KECCAK256 SWAP1 SWAP3 ADD DUP4 SWAP1 SSTORE DUP10 ADD MLOAD PUSH1 0x60 DUP11 ADD MLOAD PUSH1 0xA SWAP3 SWAP2 PUSH2 0x4444 SWAP2 PUSH1 0xFF AND PUSH1 0x8 SWAP2 SWAP1 SWAP2 SHL PUSH2 0xFF00 AND OR SWAP1 JUMP JUMPDEST PUSH2 0xFFFF AND DUP2 MSTORE PUSH1 0x20 DUP1 DUP3 ADD SWAP3 SWAP1 SWAP3 MSTORE PUSH1 0x40 SWAP1 DUP2 ADD PUSH1 0x0 SWAP1 DUP2 KECCAK256 DUP1 SLOAD PUSH1 0x1 DUP2 ADD DUP3 SSTORE SWAP1 DUP3 MSTORE SWAP1 DUP4 SWAP1 KECCAK256 ADD DUP4 SWAP1 SSTORE DUP10 MLOAD DUP11 DUP4 ADD MLOAD DUP12 DUP4 ADD MLOAD PUSH1 0x60 DUP1 DUP15 ADD MLOAD DUP6 MLOAD PUSH1 0xFF SWAP6 DUP7 AND DUP2 MSTORE SWAP4 DUP6 AND SWAP7 DUP5 ADD SWAP7 SWAP1 SWAP7 MSTORE SWAP1 DUP4 AND SWAP4 DUP3 ADD SWAP4 SWAP1 SWAP4 MSTORE SWAP3 AND SWAP1 DUP3 ADD MSTORE DUP5 ISZERO ISZERO PUSH1 0x80 DUP3 ADD MSTORE PUSH1 0x1 PUSH1 0x1 PUSH1 0xA0 SHL SUB DUP7 DUP2 AND SWAP2 SWAP1 DUP9 AND SWAP1 PUSH32 0x47389018A4BFD5E1EF612F1FE9082CC3E3675BE36E77743A6BFAF0EA011D586F SWAP1 PUSH1 0xA0 ADD PUSH2 0x2C3D JUMP JUMPDEST PUSH2 0x4510 PUSH1 0x40 MLOAD DUP1 PUSH1 0x80 ADD PUSH1 0x40 MSTORE DUP1 PUSH1 0x0 DUP2 MSTORE PUSH1 0x20 ADD PUSH1 0x0 DUP2 MSTORE PUSH1 0x20 ADD PUSH1 0x0 DUP2 MSTORE PUSH1 0x20 ADD PUSH1 0x0 DUP2 MSTORE POP SWAP1 JUMP JUMPDEST PUSH1 0x0 DUP3 DUP5 GT PUSH2 0x4528 JUMPI PUSH2 0x4523 DUP5 DUP5 PUSH2 0x5019 JUMP JUMPDEST PUSH2 0x4532 JUMP JUMPDEST PUSH2 0x4532 DUP4 DUP6 PUSH2 0x5019 JUMP JUMPDEST SWAP1 POP PUSH1 0x0 PUSH2 0x4540 DUP5 DUP7 PUSH2 0x5043 JUMP JUMPDEST SWAP1 POP PUSH1 0x0 DUP2 PUSH2 0x4550 DUP5 PUSH1 0x64 PUSH2 0x50BA JUMP JUMPDEST PUSH2 0x455A SWAP2 SWAP1 PUSH2 0x50D1 JUMP JUMPDEST SWAP1 POP DUP5 DUP7 GT ISZERO PUSH2 0x4653 JUMPI PUSH1 0x64 PUSH2 0x458F PUSH1 0x2 PUSH2 0x4575 DUP5 DUP5 PUSH2 0x5019 JUMP JUMPDEST PUSH2 0x457F SWAP2 SWAP1 PUSH2 0x50D1 JUMP JUMPDEST PUSH2 0x458A SWAP1 PUSH1 0x19 PUSH2 0x5043 JUMP JUMPDEST PUSH2 0x4885 JUMP JUMPDEST DUP10 PUSH2 0x140 ADD MLOAD PUSH2 0x459F SWAP2 SWAP1 PUSH2 0x50BA JUMP JUMPDEST PUSH2 0x45A9 SWAP2 SWAP1 PUSH2 0x50D1 JUMP JUMPDEST DUP5 MSTORE PUSH1 0x64 PUSH2 0x45D1 PUSH1 0x4 PUSH2 0x45BC DUP5 DUP5 PUSH2 0x5019 JUMP JUMPDEST PUSH2 0x45C6 SWAP2 SWAP1 PUSH2 0x50D1 JUMP JUMPDEST PUSH2 0x458A SWAP1 PUSH1 0xA PUSH2 0x5043 JUMP JUMPDEST DUP10 PUSH2 0x160 ADD MLOAD PUSH2 0x45E1 SWAP2 SWAP1 PUSH2 0x50BA JUMP JUMPDEST PUSH2 0x45EB SWAP2 SWAP1 PUSH2 0x50D1 JUMP JUMPDEST PUSH1 0x20 DUP6 ADD MSTORE PUSH1 0x64 PUSH2 0x4600 PUSH2 0x458A DUP4 PUSH1 0x32 PUSH2 0x5043 JUMP JUMPDEST DUP9 PUSH2 0x140 ADD MLOAD PUSH2 0x4610 SWAP2 SWAP1 PUSH2 0x50BA JUMP JUMPDEST PUSH2 0x461A SWAP2 SWAP1 PUSH2 0x50D1 JUMP JUMPDEST PUSH1 0x40 DUP6 ADD MSTORE PUSH1 0x64 PUSH2 0x462F PUSH2 0x458A DUP4 PUSH1 0x32 PUSH2 0x5043 JUMP JUMPDEST DUP9 PUSH2 0x160 ADD MLOAD PUSH2 0x463F SWAP2 SWAP1 PUSH2 0x50BA JUMP JUMPDEST PUSH2 0x4649 SWAP2 SWAP1 PUSH2 0x50D1 JUMP JUMPDEST PUSH1 0x60 DUP6 ADD MSTORE PUSH2 0x4724 JUMP JUMPDEST PUSH1 0x64 PUSH2 0x4663 PUSH2 0x458A DUP4 PUSH1 0x32 PUSH2 0x5043 JUMP JUMPDEST DUP10 PUSH2 0x140 ADD MLOAD PUSH2 0x4673 SWAP2 SWAP1 PUSH2 0x50BA JUMP JUMPDEST PUSH2 0x467D SWAP2 SWAP1 PUSH2 0x50D1 JUMP JUMPDEST DUP5 MSTORE PUSH1 0x64 PUSH2 0x468F PUSH2 0x457F PUSH1 0x2 DUP5 PUSH2 0x50D1 JUMP JUMPDEST DUP10 PUSH2 0x160 ADD MLOAD PUSH2 0x469F SWAP2 SWAP1 PUSH2 0x50BA JUMP JUMPDEST PUSH2 0x46A9 SWAP2 SWAP1 PUSH2 0x50D1 JUMP JUMPDEST PUSH1 0x20 DUP6 ADD MSTORE PUSH1 0x64 PUSH2 0x46D4 PUSH1 0x4 PUSH2 0x46BF DUP5 DUP5 PUSH2 0x5019 JUMP JUMPDEST PUSH2 0x46C9 SWAP2 SWAP1 PUSH2 0x50D1 JUMP JUMPDEST PUSH2 0x458A SWAP1 PUSH1 0xF PUSH2 0x5043 JUMP JUMPDEST DUP9 PUSH2 0x140 ADD MLOAD PUSH2 0x46E4 SWAP2 SWAP1 PUSH2 0x50BA JUMP JUMPDEST PUSH2 0x46EE SWAP2 SWAP1 PUSH2 0x50D1 JUMP JUMPDEST PUSH1 0x40 DUP6 ADD MSTORE PUSH1 0x64 PUSH2 0x4704 PUSH1 0x4 PUSH2 0x45BC DUP5 DUP5 PUSH2 0x5019 JUMP JUMPDEST DUP9 PUSH2 0x160 ADD MLOAD PUSH2 0x4714 SWAP2 SWAP1 PUSH2 0x50BA JUMP JUMPDEST PUSH2 0x471E SWAP2 SWAP1 PUSH2 0x50D1 JUMP JUMPDEST PUSH1 0x60 DUP6 ADD MSTORE JUMPDEST POP POP POP SWAP5 SWAP4 POP POP POP POP JUMP JUMPDEST PUSH1 0x0 DUP3 DUP5 LT ISZERO PUSH2 0x4740 JUMPI POP DUP2 PUSH2 0x2FD3 JUMP JUMPDEST DUP2 DUP5 GT ISZERO PUSH2 0x474F JUMPI POP DUP1 PUSH2 0x2FD3 JUMP JUMPDEST POP SWAP2 SWAP3 SWAP2 POP POP JUMP JUMPDEST PUSH1 0x0 PUSH1 0x1 DUP8 GT ISZERO PUSH2 0x487A JUMPI PUSH1 0x64 PUSH2 0x476E DUP4 DUP10 PUSH2 0x50BA JUMP JUMPDEST PUSH2 0x4778 SWAP2 SWAP1 PUSH2 0x50D1 JUMP JUMPDEST PUSH1 0x0 DUP1 SLOAD PUSH1 0x40 MLOAD PUSH4 0x3E5F2857 PUSH1 0xE0 SHL DUP2 MSTORE PUSH1 0xFF DUP1 DUP10 AND PUSH1 0x4 DUP4 ADD MSTORE DUP1 DUP9 AND PUSH1 0x24 DUP4 ADD MSTORE DUP13 AND PUSH1 0x44 DUP3 ADD MSTORE PUSH1 0x64 DUP2 ADD DUP5 SWAP1 MSTORE PUSH1 0x84 DUP2 ADD SWAP3 SWAP1 SWAP3 MSTORE SWAP2 SWAP3 POP PUSH1 0x1 PUSH1 0x1 PUSH1 0xA0 SHL SUB SWAP1 SWAP2 AND SWAP1 PUSH4 0x3E5F2857 SWAP1 PUSH1 0xA4 ADD PUSH1 0x0 PUSH1 0x40 MLOAD DUP1 DUP4 SUB DUP2 PUSH1 0x0 DUP8 DUP1 EXTCODESIZE ISZERO DUP1 ISZERO PUSH2 0x47E3 JUMPI PUSH1 0x0 DUP1 REVERT JUMPDEST POP GAS CALL ISZERO DUP1 ISZERO PUSH2 0x47F7 JUMPI RETURNDATASIZE PUSH1 0x0 DUP1 RETURNDATACOPY RETURNDATASIZE PUSH1 0x0 REVERT JUMPDEST POP POP PUSH1 0x0 SLOAD PUSH1 0x40 MLOAD PUSH4 0x3E5F2857 PUSH1 0xE0 SHL DUP2 MSTORE PUSH1 0xFF DUP1 DUP12 AND PUSH1 0x4 DUP4 ADD MSTORE DUP1 DUP11 AND PUSH1 0x24 DUP4 ADD MSTORE DUP13 AND PUSH1 0x44 DUP3 ADD MSTORE PUSH1 0x64 DUP2 ADD DUP6 SWAP1 MSTORE PUSH1 0x1 PUSH1 0x84 DUP3 ADD MSTORE PUSH1 0x1 PUSH1 0x1 PUSH1 0xA0 SHL SUB SWAP1 SWAP2 AND SWAP3 POP PUSH4 0x3E5F2857 SWAP2 POP PUSH1 0xA4 ADD PUSH1 0x0 PUSH1 0x40 MLOAD DUP1 DUP4 SUB DUP2 PUSH1 0x0 DUP8 DUP1 EXTCODESIZE ISZERO DUP1 ISZERO PUSH2 0x4861 JUMPI PUSH1 0x0 DUP1 REVERT JUMPDEST POP GAS CALL ISZERO DUP1 ISZERO PUSH2 0x4875 JUMPI RETURNDATASIZE PUSH1 0x0 DUP1 RETURNDATACOPY RETURNDATASIZE PUSH1 0x0 REVERT JUMPDEST POP POP POP POP JUMPDEST SWAP8 SWAP7 POP POP POP POP POP POP POP JUMP JUMPDEST PUSH1 0x0 PUSH2 0x1E5C PUSH2 0x4895 DUP4 PUSH1 0xA PUSH2 0x489C JUMP JUMPDEST PUSH1 0x5A PUSH2 0x48B2 JUMP JUMPDEST PUSH1 0x0 DUP2 DUP4 GT PUSH2 0x48AB JUMPI DUP2 PUSH2 0x2FD3 JUMP JUMPDEST POP SWAP1 SWAP2 SWAP1 POP JUMP JUMPDEST PUSH1 0x0 DUP2 DUP4 LT PUSH2 0x48AB JUMPI DUP2 PUSH2 0x2FD3 JUMP JUMPDEST PUSH1 0x40 MLOAD DUP1 PUSH2 0x100 ADD PUSH1 0x40 MSTORE DUP1 PUSH1 0x0 PUSH1 0xFF AND DUP2 MSTORE PUSH1 0x20 ADD PUSH1 0x0 PUSH1 0xFF AND DUP2 MSTORE PUSH1 0x20 ADD PUSH1 0x0 PUSH1 0xFF AND DUP2 MSTORE PUSH1 0x20 ADD PUSH1 0x0 PUSH1 0xFF AND DUP2 MSTORE PUSH1 0x20 ADD PUSH2 0x4978 PUSH1 0x40 MLOAD DUP1 PUSH2 0x1E0 ADD PUSH1 0x40 MSTORE DUP1 PUSH1 0x0 DUP2 MSTORE PUSH1 0x20 ADD PUSH1 0x0 DUP2 MSTORE PUSH1 0x20 ADD PUSH1 0x0 DUP2 MSTORE PUSH1 0x20 ADD PUSH1 0x0 DUP2 MSTORE PUSH1 0x20 ADD PUSH1 0x0 PUSH2 0xFFFF AND DUP2 MSTORE PUSH1 0x20 ADD PUSH1 0x0 DUP2 MSTORE PUSH1 0x20 ADD PUSH1 0x0 DUP2 MSTORE PUSH1 0x20 ADD PUSH1 0x0 DUP2 MSTORE PUSH1 0x20 ADD PUSH1 0x0 DUP2 MSTORE PUSH1 0x20 ADD PUSH1 0x0 DUP2 MSTORE PUSH1 0x20 ADD PUSH1 0x0 DUP2 MSTORE PUSH1 0x20 ADD PUSH1 0x0 DUP2 MSTORE PUSH1 0x20 ADD PUSH1 0x0 PUSH1 0xFF AND DUP2 MSTORE PUSH1 0x20 ADD PUSH1 0x0 PUSH1 0xFF AND DUP2 MSTORE PUSH1 0x20 ADD PUSH1 0x0 DUP2 MSTORE POP SWAP1 JUMP JUMPDEST DUP2 MSTORE PUSH1 0x20 ADD PUSH2 0x4A00 PUSH1 0x40 MLOAD DUP1 PUSH2 0x1E0 ADD PUSH1 0x40 MSTORE DUP1 PUSH1 0x0 DUP2 MSTORE PUSH1 0x20 ADD PUSH1 0x0 DUP2 MSTORE PUSH1 0x20 ADD PUSH1 0x0 DUP2 MSTORE PUSH1 0x20 ADD PUSH1 0x0 DUP2 MSTORE PUSH1 0x20 ADD PUSH1 0x0 PUSH2 0xFFFF AND DUP2 MSTORE PUSH1 0x20 ADD PUSH1 0x0 DUP2 MSTORE PUSH1 0x20 ADD PUSH1 0x0 DUP2 MSTORE PUSH1 0x20 ADD PUSH1 0x0 DUP2 MSTORE PUSH1 0x20 ADD PUSH1 0x0 DUP2 MSTORE PUSH1 0x20 ADD PUSH1 0x0 DUP2 MSTORE PUSH1 0x20 ADD PUSH1 0x0 DUP2 MSTORE PUSH1 0x20 ADD PUSH1 0x0 DUP2 MSTORE PUSH1 0x20 ADD PUSH1 0x0 PUSH1 0xFF AND DUP2 MSTORE PUSH1 0x20 ADD PUSH1 0x0 PUSH1 0xFF AND DUP2 MSTORE PUSH1 0x20 ADD PUSH1 0x0 DUP2 MSTORE POP SWAP1 JUMP JUMPDEST DUP2 MSTORE PUSH1 0x20 ADD PUSH1 0x0 DUP2 MSTORE PUSH1 0x20 ADD PUSH1 0x0 DUP2 MSTORE POP SWAP1 JUMP JUMPDEST PUSH1 0x40 MLOAD DUP1 PUSH1 0x60 ADD PUSH1 0x40 MSTORE DUP1 PUSH2 0x4A4A PUSH1 0x40 MLOAD DUP1 PUSH1 0x80 ADD PUSH1 0x40 MSTORE DUP1 PUSH1 0x0 DUP2 MSTORE PUSH1 0x20 ADD PUSH1 0x0 DUP2 MSTORE PUSH1 0x20 ADD PUSH1 0x0 DUP2 MSTORE PUSH1 0x20 ADD PUSH1 0x0 DUP2 MSTORE POP SWAP1 JUMP JUMPDEST DUP2 MSTORE PUSH1 0x0 PUSH1 0x20 DUP3 ADD DUP2 SWAP1 MSTORE PUSH1 0x40 SWAP1 SWAP2 ADD MSTORE SWAP1 JUMP JUMPDEST PUSH1 0x0 PUSH1 0x20 DUP3 DUP5 SUB SLT ISZERO PUSH2 0x4A70 JUMPI PUSH1 0x0 DUP1 REVERT JUMPDEST POP CALLDATALOAD SWAP2 SWAP1 POP JUMP JUMPDEST PUSH1 0x0 DUP2 MLOAD DUP1 DUP5 MSTORE PUSH1 0x20 DUP1 DUP6 ADD SWAP5 POP DUP1 DUP5 ADD PUSH1 0x0 JUMPDEST DUP4 DUP2 LT ISZERO PUSH2 0x4B35 JUMPI DUP2 MLOAD DUP1 MLOAD PUSH1 0xFF SWAP1 DUP2 AND DUP10 MSTORE DUP5 DUP3 ADD MLOAD DUP2 AND DUP6 DUP11 ADD MSTORE PUSH1 0x40 DUP1 DUP4 ADD MLOAD DUP3 AND SWAP1 DUP11 ADD MSTORE PUSH1 0x60 DUP1 DUP4 ADD MLOAD SWAP1 SWAP2 AND SWAP1 DUP10 ADD MSTORE PUSH1 0x80 DUP1 DUP3 ADD MLOAD SWAP1 DUP10 ADD MSTORE PUSH1 0xA0 DUP1 DUP3 ADD MLOAD ISZERO ISZERO SWAP1 DUP10 ADD MSTORE PUSH1 0xC0 DUP1 DUP3 ADD MLOAD SWAP1 DUP10 ADD MSTORE PUSH1 0xE0 DUP1 DUP3 ADD MLOAD SWAP1 DUP10 ADD MSTORE PUSH2 0x100 DUP1 DUP3 ADD MLOAD SWAP1 DUP10 ADD MSTORE PUSH2 0x120 DUP1 DUP3 ADD MLOAD SWAP1 DUP10 ADD MSTORE PUSH2 0x140 DUP1 DUP3 ADD MLOAD SWAP1 DUP10 ADD MSTORE PUSH2 0x160 DUP1 DUP3 ADD MLOAD SWAP1 DUP10 ADD MSTORE PUSH2 0x180 SWAP1 DUP2 ADD MLOAD SWAP1 DUP9 ADD MSTORE PUSH2 0x1A0 SWAP1 SWAP7 ADD SWAP6 SWAP1 DUP3 ADD SWAP1 PUSH1 0x1 ADD PUSH2 0x4A8B JUMP JUMPDEST POP SWAP5 SWAP6 SWAP5 POP POP POP POP POP JUMP JUMPDEST PUSH1 0x0 JUMPDEST DUP4 DUP2 LT ISZERO PUSH2 0x4B5B JUMPI DUP2 DUP2 ADD MLOAD DUP4 DUP3 ADD MSTORE PUSH1 0x20 ADD PUSH2 0x4B43 JUMP JUMPDEST POP POP PUSH1 0x0 SWAP2 ADD MSTORE JUMP JUMPDEST PUSH1 0x0 DUP2 MLOAD DUP1 DUP5 MSTORE PUSH2 0x4B7C DUP2 PUSH1 0x20 DUP7 ADD PUSH1 0x20 DUP7 ADD PUSH2 0x4B40 JUMP JUMPDEST PUSH1 0x1F ADD PUSH1 0x1F NOT AND SWAP3 SWAP1 SWAP3 ADD PUSH1 0x20 ADD SWAP3 SWAP2 POP POP JUMP JUMPDEST PUSH1 0x0 PUSH1 0x40 DUP1 DUP4 MSTORE PUSH2 0x4BA3 DUP2 DUP5 ADD DUP7 PUSH2 0x4A77 JUMP JUMPDEST PUSH1 0x20 DUP5 DUP3 SUB DUP2 DUP7 ADD MSTORE DUP2 DUP7 MLOAD DUP1 DUP5 MSTORE DUP3 DUP5 ADD SWAP2 POP DUP3 DUP2 PUSH1 0x5 SHL DUP6 ADD ADD DUP4 DUP10 ADD PUSH1 0x0 JUMPDEST DUP4 DUP2 LT ISZERO PUSH2 0x4C15 JUMPI PUSH1 0x1F NOT DUP8 DUP5 SUB ADD DUP6 MSTORE DUP2 MLOAD DUP1 MLOAD DUP10 DUP6 MSTORE PUSH2 0x4BE9 DUP11 DUP7 ADD DUP3 PUSH2 0x4B64 JUMP JUMPDEST SWAP2 DUP9 ADD MLOAD DUP6 DUP4 SUB DUP7 DUP11 ADD MSTORE SWAP2 SWAP1 POP PUSH2 0x4C01 DUP2 DUP4 PUSH2 0x4B64 JUMP JUMPDEST SWAP7 DUP9 ADD SWAP7 SWAP5 POP POP POP SWAP1 DUP6 ADD SWAP1 PUSH1 0x1 ADD PUSH2 0x4BC5 JUMP JUMPDEST POP SWAP1 SWAP11 SWAP10 POP POP POP POP POP POP POP POP POP POP JUMP JUMPDEST PUSH2 0xFFFF DUP2 AND DUP2 EQ PUSH2 0x4C35 JUMPI PUSH1 0x0 DUP1 REVERT JUMPDEST POP JUMP JUMPDEST PUSH1 0x0 DUP1 PUSH1 0x40 DUP4 DUP6 SUB SLT ISZERO PUSH2 0x4C4B JUMPI PUSH1 0x0 DUP1 REVERT JUMPDEST DUP3 CALLDATALOAD PUSH2 0x4C56 DUP2 PUSH2 0x4C25 JUMP JUMPDEST SWAP5 PUSH1 0x20 SWAP4 SWAP1 SWAP4 ADD CALLDATALOAD SWAP4 POP POP POP JUMP JUMPDEST PUSH1 0xFF DUP2 AND DUP2 EQ PUSH2 0x4C35 JUMPI PUSH1 0x0 DUP1 REVERT JUMPDEST PUSH1 0x0 DUP1 PUSH1 0x40 DUP4 DUP6 SUB SLT ISZERO PUSH2 0x4C86 JUMPI PUSH1 0x0 DUP1 REVERT JUMPDEST DUP3 CALLDATALOAD PUSH2 0x4C56 DUP2 PUSH2 0x4C64 JUMP JUMPDEST PUSH1 0x0 PUSH1 0x20 DUP3 DUP5 SUB SLT ISZERO PUSH2 0x4CA3 JUMPI PUSH1 0x0 DUP1 REVERT JUMPDEST DUP2 CALLDATALOAD PUSH2 0x2FD3 DUP2 PUSH2 0x4C64 JUMP JUMPDEST PUSH1 0x20 DUP1 DUP3 MSTORE DUP3 MLOAD DUP3 DUP3 ADD DUP2 SWAP1 MSTORE PUSH1 0x0 SWAP2 SWAP1 PUSH1 0x40 SWAP1 DUP2 DUP6 ADD SWAP1 DUP7 DUP5 ADD DUP6 JUMPDEST DUP3 DUP2 LT ISZERO PUSH2 0x4D17 JUMPI DUP2 MLOAD DUP1 MLOAD PUSH1 0xFF SWAP1 DUP2 AND DUP7 MSTORE DUP8 DUP3 ADD MLOAD DUP2 AND DUP9 DUP8 ADD MSTORE DUP7 DUP3 ADD MLOAD AND DUP7 DUP7 ADD MSTORE PUSH1 0x60 DUP1 DUP3 ADD MLOAD SWAP1 DUP7 ADD MSTORE PUSH1 0x80 SWAP1 DUP2 ADD MLOAD SWAP1 DUP6 ADD MSTORE PUSH1 0xA0 SWAP1 SWAP4 ADD SWAP3 SWAP1 DUP6 ADD SWAP1 PUSH1 0x1 ADD PUSH2 0x4CCB JUMP JUMPDEST POP SWAP2 SWAP8 SWAP7 POP POP POP POP POP POP POP JUMP JUMPDEST PUSH1 0x0 DUP1 PUSH1 0x0 DUP1 PUSH1 0x0 DUP1 PUSH1 0xC0 DUP8 DUP10 SUB SLT ISZERO PUSH2 0x4D3D JUMPI PUSH1 0x0 DUP1 REVERT JUMPDEST DUP7 CALLDATALOAD PUSH2 0x4D48 DUP2 PUSH2 0x4C64 JUMP JUMPDEST SWAP6 POP PUSH1 0x20 DUP8 ADD CALLDATALOAD PUSH2 0x4D58 DUP2 PUSH2 0x4C64 JUMP JUMPDEST SWAP5 POP PUSH1 0x40 DUP8 ADD CALLDATALOAD PUSH2 0x4D68 DUP2 PUSH2 0x4C64 JUMP JUMPDEST SWAP4 POP PUSH1 0x60 DUP8 ADD CALLDATALOAD PUSH2 0x4D78 DUP2 PUSH2 0x4C64 JUMP JUMPDEST SWAP3 POP PUSH1 0x80 DUP8 ADD CALLDATALOAD PUSH2 0x4D88 DUP2 PUSH2 0x4C64 JUMP JUMPDEST DUP1 SWAP3 POP POP PUSH1 0xA0 DUP8 ADD CALLDATALOAD SWAP1 POP SWAP3 SWAP6 POP SWAP3 SWAP6 POP SWAP3 SWAP6 JUMP JUMPDEST PUSH1 0x0 DUP1 PUSH1 0x0 DUP1 PUSH1 0x80 DUP6 DUP8 SUB SLT ISZERO PUSH2 0x4DB3 JUMPI PUSH1 0x0 DUP1 REVERT JUMPDEST DUP5 CALLDATALOAD PUSH2 0x4DBE DUP2 PUSH2 0x4C64 JUMP JUMPDEST SWAP4 POP PUSH1 0x20 DUP6 ADD CALLDATALOAD PUSH2 0x4DCE DUP2 PUSH2 0x4C64 JUMP JUMPDEST SWAP3 POP PUSH1 0x40 DUP6 ADD CALLDATALOAD PUSH2 0x4DDE DUP2 PUSH2 0x4C64 JUMP JUMPDEST SWAP2 POP PUSH1 0x60 DUP6 ADD CALLDATALOAD PUSH2 0x4DEE DUP2 PUSH2 0x4C64 JUMP JUMPDEST SWAP4 SWAP7 SWAP3 SWAP6 POP SWAP1 SWAP4 POP POP JUMP JUMPDEST PUSH1 0x0 DUP1 PUSH1 0x40 DUP4 DUP6 SUB SLT ISZERO PUSH2 0x4E0C JUMPI PUSH1 0x0 DUP1 REVERT JUMPDEST DUP3 CALLDATALOAD PUSH2 0x4E17 DUP2 PUSH2 0x4C64 JUMP JUMPDEST SWAP2 POP PUSH1 0x20 DUP4 ADD CALLDATALOAD PUSH2 0x4E27 DUP2 PUSH2 0x4C64 JUMP JUMPDEST DUP1 SWAP2 POP POP SWAP3 POP SWAP3 SWAP1 POP JUMP JUMPDEST PUSH1 0x20 DUP2 MSTORE PUSH1 0x0 PUSH2 0x2FD3 PUSH1 0x20 DUP4 ADD DUP5 PUSH2 0x4A77 JUMP JUMPDEST PUSH1 0x0 DUP1 PUSH1 0x0 DUP1 PUSH1 0x80 DUP6 DUP8 SUB SLT ISZERO PUSH2 0x4E5B JUMPI PUSH1 0x0 DUP1 REVERT JUMPDEST DUP5 CALLDATALOAD PUSH2 0x4E66 DUP2 PUSH2 0x4C64 JUMP JUMPDEST SWAP4 POP PUSH1 0x20 DUP6 ADD CALLDATALOAD PUSH2 0x4E76 DUP2 PUSH2 0x4C64 JUMP JUMPDEST SWAP3 POP PUSH1 0x40 DUP6 ADD CALLDATALOAD PUSH2 0x4E86 DUP2 PUSH2 0x4C64 JUMP JUMPDEST SWAP4 SWAP7 SWAP3 SWAP6 POP SWAP3 SWAP4 PUSH1 0x60 ADD CALLDATALOAD SWAP3 POP POP JUMP JUMPDEST PUSH1 0x0 DUP1 PUSH1 0x0 DUP1 PUSH1 0x0 PUSH1 0xA0 DUP7 DUP9 SUB SLT ISZERO PUSH2 0x4EAE JUMPI PUSH1 0x0 DUP1 REVERT JUMPDEST DUP6 CALLDATALOAD PUSH2 0x4EB9 DUP2 PUSH2 0x4C64 JUMP JUMPDEST SWAP5 POP PUSH1 0x20 DUP7 ADD CALLDATALOAD PUSH2 0x4EC9 DUP2 PUSH2 0x4C64 JUMP JUMPDEST SWAP4 POP PUSH1 0x40 DUP7 ADD CALLDATALOAD PUSH2 0x4ED9 DUP2 PUSH2 0x4C64 JUMP JUMPDEST SWAP5 SWAP8 SWAP4 SWAP7 POP SWAP4 SWAP5 PUSH1 0x60 DUP2 ADD CALLDATALOAD SWAP5 POP PUSH1 0x80 ADD CALLDATALOAD SWAP3 SWAP2 POP POP JUMP JUMPDEST PUSH1 0x40 DUP2 MSTORE PUSH1 0x0 PUSH2 0x4F04 PUSH1 0x40 DUP4 ADD DUP6 PUSH2 0x4B64 JUMP JUMPDEST DUP3 DUP2 SUB PUSH1 0x20 DUP5 ADD MSTORE PUSH2 0x4F16 DUP2 DUP6 PUSH2 0x4B64 JUMP JUMPDEST SWAP6 SWAP5 POP POP POP POP POP JUMP JUMPDEST PUSH32 0x4E487B7100000000000000000000000000000000000000000000000000000000 PUSH1 0x0 MSTORE PUSH1 0x41 PUSH1 0x4 MSTORE PUSH1 0x24 PUSH1 0x0 REVERT JUMPDEST PUSH32 0x4E487B7100000000000000000000000000000000000000000000000000000000 PUSH1 0x0 MSTORE PUSH1 0x32 PUSH1 0x4 MSTORE PUSH1 0x24 PUSH1 0x0 REVERT JUMPDEST PUSH1 0x1 DUP2 DUP2 SHR SWAP1 DUP3 AND DUP1 PUSH2 0x4F91 JUMPI PUSH1 0x7F DUP3 AND SWAP2 POP JUMPDEST PUSH1 0x20 DUP3 LT DUP2 SUB PUSH2 0x4FCA JUMPI PUSH32 0x4E487B7100000000000000000000000000000000000000000000000000000000 PUSH1 0x0 MSTORE PUSH1 0x22 PUSH1 0x4 MSTORE PUSH1 0x24 PUSH1 0x0 REVERT JUMPDEST POP SWAP2 SWAP1 POP JUMP JUMPDEST PUSH32 0x4E487B7100000000000000000000000000000000000000000000000000000000 PUSH1 0x0 MSTORE PUSH1 0x11 PUSH1 0x4 MSTORE PUSH1 0x24 PUSH1 0x0 REVERT JUMPDEST PUSH1 0x0 PUSH1 0x0 NOT DUP3 SUB PUSH2 0x5012 JUMPI PUSH2 0x5012 PUSH2 0x4FD0 JUMP JUMPDEST POP PUSH1 0x1 ADD SWAP1 JUMP JUMPDEST DUP2 DUP2 SUB DUP2 DUP2 GT ISZERO PUSH2 0x1E5C JUMPI PUSH2 0x1E5C PUSH2 0x4FD0 JUMP JUMPDEST PUSH1 0x0 DUP2 PUSH2 0x503B JUMPI PUSH2 0x503B PUSH2 0x4FD0 JUMP JUMPDEST POP PUSH1 0x0 NOT ADD SWAP1 JUMP JUMPDEST DUP1 DUP3 ADD DUP1 DUP3 GT ISZERO PUSH2 0x1E5C JUMPI PUSH2 0x1E5C PUSH2 0x4FD0 JUMP JUMPDEST PUSH1 0x0 PUSH1 0x20 DUP3 DUP5 SUB SLT ISZERO PUSH2 0x5068 JUMPI PUSH1 0x0 DUP1 REVERT JUMPDEST DUP2 MLOAD PUSH1 0x1 PUSH1 0x1 PUSH1 0xA0 SHL SUB DUP2 AND DUP2 EQ PUSH2 0x2FD3 JUMPI PUSH1 0x0 DUP1 REVERT JUMPDEST PUSH1 0x0 PUSH1 0x20 DUP3 DUP5 SUB SLT ISZERO PUSH2 0x5091 JUMPI PUSH1 0x0 DUP1 REVERT JUMPDEST DUP2 MLOAD DUP1 ISZERO ISZERO DUP2 EQ PUSH2 0x2FD3 JUMPI PUSH1 0x0 DUP1 REVERT JUMPDEST PUSH1 0xFF DUP2 DUP2 AND DUP4 DUP3 AND ADD SWAP1 DUP2 GT ISZERO PUSH2 0x1E5C JUMPI PUSH2 0x1E5C PUSH2 0x4FD0 JUMP JUMPDEST DUP1 DUP3 MUL DUP2 ISZERO DUP3 DUP3 DIV DUP5 EQ OR PUSH2 0x1E5C JUMPI PUSH2 0x1E5C PUSH2 0x4FD0 JUMP JUMPDEST PUSH1 0x0 DUP3 PUSH2 0x5107 JUMPI PUSH32 0x4E487B7100000000000000000000000000000000000000000000000000000000 PUSH1 0x0 MSTORE PUSH1 0x12 PUSH1 0x4 MSTORE PUSH1 0x24 PUSH1 0x0 REVERT JUMPDEST POP DIV SWAP1 JUMP JUMPDEST PUSH1 0x40 MLOAD PUSH2 0x1E0 DUP2 ADD PUSH8 0xFFFFFFFFFFFFFFFF DUP2 GT DUP3 DUP3 LT OR ISZERO PUSH2 0x5130 JUMPI PUSH2 0x5130 PUSH2 0x4F1F JUMP JUMPDEST PUSH1 0x40 MSTORE SWAP1 JUMP JUMPDEST DUP1 MLOAD PUSH2 0x5141 DUP2 PUSH2 0x4C25 JUMP JUMPDEST SWAP2 SWAP1 POP JUMP JUMPDEST DUP1 MLOAD PUSH2 0x5141 DUP2 PUSH2 0x4C64 JUMP JUMPDEST PUSH1 0x0 PUSH2 0x1E0 DUP3 DUP5 SUB SLT ISZERO PUSH2 0x5164 JUMPI PUSH1 0x0 DUP1 REVERT JUMPDEST PUSH2 0x516C PUSH2 0x510C JUMP JUMPDEST DUP3 MLOAD DUP2 MSTORE PUSH1 0x20 DUP4 ADD MLOAD PUSH1 0x20 DUP3 ADD MSTORE PUSH1 0x40 DUP4 ADD MLOAD PUSH1 0x40 DUP3 ADD MSTORE PUSH1 0x60 DUP4 ADD MLOAD PUSH1 0x60 DUP3 ADD MSTORE PUSH2 0x519A PUSH1 0x80 DUP5 ADD PUSH2 0x5136 JUMP JUMPDEST PUSH1 0x80 DUP3 ADD MSTORE PUSH1 0xA0 DUP4 DUP2 ADD MLOAD SWAP1 DUP3 ADD MSTORE PUSH1 0xC0 DUP1 DUP5 ADD MLOAD SWAP1 DUP3 ADD MSTORE PUSH1 0xE0 DUP1 DUP5 ADD MLOAD SWAP1 DUP3 ADD MSTORE PUSH2 0x100 DUP1 DUP5 ADD MLOAD SWAP1 DUP3 ADD MSTORE PUSH2 0x120 DUP1 DUP5 ADD MLOAD SWAP1 DUP3 ADD MSTORE PUSH2 0x140 DUP1 DUP5 ADD MLOAD SWAP1 DUP3 ADD MSTORE PUSH2 0x160 DUP1 DUP5 ADD MLOAD SWAP1 DUP3 ADD MSTORE PUSH2 0x180 PUSH2 0x51F7 DUP2 DUP6 ADD PUSH2 0x5146 JUMP JUMPDEST SWAP1 DUP3 ADD MSTORE PUSH2 0x1A0 PUSH2 0x5209 DUP5 DUP3 ADD PUSH2 0x5146 JUMP JUMPDEST SWAP1 DUP3 ADD MSTORE PUSH2 0x1C0 SWAP3 DUP4 ADD MLOAD SWAP3 DUP2 ADD SWAP3 SWAP1 SWAP3 MSTORE POP SWAP2 SWAP1 POP JUMP JUMPDEST PUSH32 0x4E487B7100000000000000000000000000000000000000000000000000000000 PUSH1 0x0 MSTORE PUSH1 0x31 PUSH1 0x4 MSTORE PUSH1 0x24 PUSH1 0x0 REVERT JUMPDEST PUSH1 0xFF DUP3 DUP2 AND DUP3 DUP3 AND SUB SWAP1 DUP2 GT ISZERO PUSH2 0x1E5C JUMPI PUSH2 0x1E5C PUSH2 0x4FD0 JUMP JUMPDEST PUSH1 0x0 PUSH1 0x20 DUP3 DUP5 SUB SLT ISZERO PUSH2 0x527B JUMPI PUSH1 0x0 DUP1 REVERT JUMPDEST DUP2 MLOAD PUSH2 0x2FD3 DUP2 PUSH2 0x4C64 JUMP JUMPDEST PUSH1 0x0 PUSH1 0x20 DUP3 DUP5 SUB SLT ISZERO PUSH2 0x5298 JUMPI PUSH1 0x0 DUP1 REVERT JUMPDEST POP MLOAD SWAP2 SWAP1 POP JUMP JUMPDEST PUSH1 0x0 PUSH1 0x20 DUP3 DUP5 SUB SLT ISZERO PUSH2 0x52B1 JUMPI PUSH1 0x0 DUP1 REVERT JUMPDEST DUP2 MLOAD PUSH8 0xFFFFFFFFFFFFFFFF DUP1 DUP3 GT ISZERO PUSH2 0x52C9 JUMPI PUSH1 0x0 DUP1 REVERT JUMPDEST DUP2 DUP5 ADD SWAP2 POP DUP5 PUSH1 0x1F DUP4 ADD SLT PUSH2 0x52DD JUMPI PUSH1 0x0 DUP1 REVERT JUMPDEST DUP2 MLOAD DUP2 DUP2 GT ISZERO PUSH2 0x52EF JUMPI PUSH2 0x52EF PUSH2 0x4F1F JUMP JUMPDEST PUSH1 0x40 MLOAD PUSH1 0x1F DUP3 ADD PUSH1 0x1F NOT SWAP1 DUP2 AND PUSH1 0x3F ADD AND DUP2 ADD SWAP1 DUP4 DUP3 GT DUP2 DUP4 LT OR ISZERO PUSH2 0x5317 JUMPI PUSH2 0x5317 PUSH2 0x4F1F JUMP JUMPDEST DUP2 PUSH1 0x40 MSTORE DUP3 DUP2 MSTORE DUP8 PUSH1 0x20 DUP5 DUP8 ADD ADD GT ISZERO PUSH2 0x5330 JUMPI PUSH1 0x0 DUP1 REVERT JUMPDEST PUSH2 0x487A DUP4 PUSH1 0x20 DUP4 ADD PUSH1 0x20 DUP9 ADD PUSH2 0x4B40 JUMP JUMPDEST PUSH1 0x1F DUP3 GT ISZERO PUSH2 0x538B JUMPI PUSH1 0x0 DUP2 DUP2 MSTORE PUSH1 0x20 DUP2 KECCAK256 PUSH1 0x1F DUP6 ADD PUSH1 0x5 SHR DUP2 ADD PUSH1 0x20 DUP7 LT ISZERO PUSH2 0x5368 JUMPI POP DUP1 JUMPDEST PUSH1 0x1F DUP6 ADD PUSH1 0x5 SHR DUP3 ADD SWAP2 POP JUMPDEST DUP2 DUP2 LT ISZERO PUSH2 0x5387 JUMPI DUP3 DUP2 SSTORE PUSH1 0x1 ADD PUSH2 0x5374 JUMP JUMPDEST POP POP POP JUMPDEST POP POP POP JUMP JUMPDEST DUP2 MLOAD PUSH8 0xFFFFFFFFFFFFFFFF DUP2 GT ISZERO PUSH2 0x53AA JUMPI PUSH2 0x53AA PUSH2 0x4F1F JUMP JUMPDEST PUSH2 0x53BE DUP2 PUSH2 0x53B8 DUP5 SLOAD PUSH2 0x4F7D JUMP JUMPDEST DUP5 PUSH2 0x5341 JUMP JUMPDEST PUSH1 0x20 DUP1 PUSH1 0x1F DUP4 GT PUSH1 0x1 DUP2 EQ PUSH2 0x53F3 JUMPI PUSH1 0x0 DUP5 ISZERO PUSH2 0x53DB JUMPI POP DUP6 DUP4 ADD MLOAD JUMPDEST PUSH1 0x0 NOT PUSH1 0x3 DUP7 SWAP1 SHL SHR NOT AND PUSH1 0x1 DUP6 SWAP1 SHL OR DUP6 SSTORE PUSH2 0x5387 JUMP JUMPDEST PUSH1 0x0 DUP6 DUP2 MSTORE PUSH1 0x20 DUP2 KECCAK256 PUSH1 0x1F NOT DUP7 AND SWAP2 JUMPDEST DUP3 DUP2 LT ISZERO PUSH2 0x5422 JUMPI DUP9 DUP7 ADD MLOAD DUP3 SSTORE SWAP5 DUP5 ADD SWAP5 PUSH1 0x1 SWAP1 SWAP2 ADD SWAP1 DUP5 ADD PUSH2 0x5403 JUMP JUMPDEST POP DUP6 DUP3 LT ISZERO PUSH2 0x5440 JUMPI DUP8 DUP6 ADD MLOAD PUSH1 0x0 NOT PUSH1 0x3 DUP9 SWAP1 SHL PUSH1 0xF8 AND SHR NOT AND DUP2 SSTORE JUMPDEST POP POP POP POP POP PUSH1 0x1 SWAP1 DUP2 SHL ADD SWAP1 SSTORE POP JUMP INVALID LOG2 PUSH5 0x6970667358 0x22 SLT KECCAK256 SIGNEXTEND ISZERO CALLER 0xD2 LOG4 0xC4 SUB SWAP10 0xE1 0xCB DIV PUSH3 0x7DEDF8 CALLDATASIZE 0x49 PUSH19 0x4AEB11D0170675BF4080BCCD2C7D64736F6C63 NUMBER STOP ADDMOD SLT STOP CALLER "
		},
		"gasEstimates": {
			"creation": {
				"codeDepositCost": "4327600",
				"executionCost": "infinite",
				"totalCost": "infinite"
			},
			"external": {
				"ATTACK_COST_FACTOR()": "285",
				"attackTile(uint8,uint8,uint8,uint8)": "infinite",
				"buyItem(uint8,uint8,uint8,uint256)": "infinite",
				"clanContract()": "2404",
				"getAllTileWars(uint8,uint8)": "infinite",
				"getAllWarHistoryWithClans()": "infinite",
				"getListingsByResourceType(uint8)": "infinite",
				"getRecentTileWars(uint8,uint8)": "infinite",
				"getRecentWarHistoryWithClans()": "infinite",
				"lastAttackTurn(uint8,uint8)": "infinite",
				"lastDefenseTurn(uint8,uint8)": "infinite",
				"listItemForSale(uint8,uint8,uint8,uint256,uint256)": "infinite",
				"lopToken()": "2405",
				"marketListings(uint8,uint256)": "9202",
				"resourceMessages(uint8,uint8)": "infinite",
				"sendResources(uint8,uint8,uint8,uint8,uint8,uint256)": "infinite",
				"theLand()": "2382",
				"tileMapPhaser()": "2404",
				"tileWars(uint16,uint256)": "4772",
				"warHistory(uint256)": "23990",
				"warHistoryClan(uint256)": "infinite"
			},
			"internal": {
				"_absDiff(uint8,uint8)": "154",
				"_applySoldierLoss(struct MarketPlace.AttackContext memory)": "infinite",
				"_calculatePowers(struct ITheLand.TileDataResponse memory,struct ITheLand.TileDataResponse memory,uint8,uint8)": "infinite",
				"_calculateSoldierLosses(struct ITheLand.TileDataResponse memory,struct ITheLand.TileDataResponse memory,uint256,uint256)": "infinite",
				"_capBetween(uint256,uint256,uint256)": "92",
				"_capLossPercent(uint256)": "infinite",
				"_finalizeAttack(struct MarketPlace.AttackContext memory,struct MarketPlace.BattleResult memory,address,address)": "infinite",
				"_max(uint256,uint256)": "61",
				"_min(uint256,uint256)": "61",
				"_payAttackResourceCost(uint8,uint8,uint8,struct ITheLand.TileDataResponse memory)": "infinite",
				"_stealOneResource(uint8,uint256,uint8,uint8,uint8,uint8,uint256)": "infinite",
				"_stealResources(struct MarketPlace.AttackContext memory)": "infinite",
				"_tileKey(uint8,uint8)": "infinite",
				"_validateAttack(uint8,uint8,uint8,uint8,address,address)": "infinite"
			}
		},
		"methodIdentifiers": {
			"ATTACK_COST_FACTOR()": "10ac4633",
			"attackTile(uint8,uint8,uint8,uint8)": "697e71d2",
			"buyItem(uint8,uint8,uint8,uint256)": "999a2f7a",
			"clanContract()": "c49443ac",
			"getAllTileWars(uint8,uint8)": "fdff05bb",
			"getAllWarHistoryWithClans()": "092b1e16",
			"getListingsByResourceType(uint8)": "4b4d9f89",
			"getRecentTileWars(uint8,uint8)": "823e9282",
			"getRecentWarHistoryWithClans()": "21f65c90",
			"lastAttackTurn(uint8,uint8)": "763540cd",
			"lastDefenseTurn(uint8,uint8)": "70d27e41",
			"listItemForSale(uint8,uint8,uint8,uint256,uint256)": "ca030079",
			"lopToken()": "0d67f59e",
			"marketListings(uint8,uint256)": "3e6abf42",
			"resourceMessages(uint8,uint8)": "e450909a",
			"sendResources(uint8,uint8,uint8,uint8,uint8,uint256)": "54adac10",
			"theLand()": "b0d77774",
			"tileMapPhaser()": "4f264b03",
			"tileWars(uint16,uint256)": "0a3c826c",
			"warHistory(uint256)": "0075c079",
			"warHistoryClan(uint256)": "f721ba59"
		}
	},
	"abi": [
		{
			"inputs": [
				{
					"internalType": "address",
					"name": "_theLand",
					"type": "address"
				},
				{
					"internalType": "address",
					"name": "_lopToken",
					"type": "address"
				},
				{
					"internalType": "address",
					"name": "_tileMapPhaser",
					"type": "address"
				},
				{
					"internalType": "address",
					"name": "_clanContract",
					"type": "address"
				}
			],
			"stateMutability": "nonpayable",
			"type": "constructor"
		},
		{
			"anonymous": false,
			"inputs": [
				{
					"indexed": true,
					"internalType": "address",
					"name": "seller",
					"type": "address"
				},
				{
					"indexed": true,
					"internalType": "uint8",
					"name": "resourceType",
					"type": "uint8"
				},
				{
					"indexed": false,
					"internalType": "uint256",
					"name": "amount",
					"type": "uint256"
				},
				{
					"indexed": false,
					"internalType": "uint256",
					"name": "price",
					"type": "uint256"
				}
			],
			"name": "ItemListed",
			"type": "event"
		},
		{
			"anonymous": false,
			"inputs": [
				{
					"indexed": true,
					"internalType": "address",
					"name": "buyer",
					"type": "address"
				},
				{
					"indexed": true,
					"internalType": "address",
					"name": "seller",
					"type": "address"
				},
				{
					"indexed": true,
					"internalType": "uint8",
					"name": "resourceType",
					"type": "uint8"
				},
				{
					"indexed": false,
					"internalType": "uint256",
					"name": "amount",
					"type": "uint256"
				},
				{
					"indexed": false,
					"internalType": "uint256",
					"name": "price",
					"type": "uint256"
				}
			],
			"name": "ItemPurchased",
			"type": "event"
		},
		{
			"anonymous": false,
			"inputs": [
				{
					"indexed": true,
					"internalType": "address",
					"name": "seller",
					"type": "address"
				},
				{
					"indexed": true,
					"internalType": "uint8",
					"name": "resourceType",
					"type": "uint8"
				},
				{
					"indexed": false,
					"internalType": "uint256",
					"name": "amount",
					"type": "uint256"
				}
			],
			"name": "ItemRemoved",
			"type": "event"
		},
		{
			"anonymous": false,
			"inputs": [
				{
					"indexed": true,
					"internalType": "address",
					"name": "sender",
					"type": "address"
				},
				{
					"indexed": false,
					"internalType": "uint8",
					"name": "senderX",
					"type": "uint8"
				},
				{
					"indexed": false,
					"internalType": "uint8",
					"name": "senderY",
					"type": "uint8"
				},
				{
					"indexed": true,
					"internalType": "address",
					"name": "receiver",
					"type": "address"
				},
				{
					"indexed": false,
					"internalType": "uint8",
					"name": "receiverX",
					"type": "uint8"
				},
				{
					"indexed": false,
					"internalType": "uint8",
					"name": "receiverY",
					"type": "uint8"
				},
				{
					"indexed": false,
					"internalType": "uint8",
					"name": "resourceType",
					"type": "uint8"
				},
				{
					"indexed": false,
					"internalType": "uint256",
					"name": "amount",
					"type": "uint256"
				}
			],
			"name": "ResourcesSent",
			"type": "event"
		},
		{
			"anonymous": false,
			"inputs": [
				{
					"indexed": true,
					"internalType": "address",
					"name": "attacker",
					"type": "address"
				},
				{
					"indexed": false,
					"internalType": "uint8",
					"name": "attackerX",
					"type": "uint8"
				},
				{
					"indexed": false,
					"internalType": "uint8",
					"name": "attackerY",
					"type": "uint8"
				},
				{
					"indexed": true,
					"internalType": "address",
					"name": "defender",
					"type": "address"
				},
				{
					"indexed": false,
					"internalType": "uint8",
					"name": "defenderX",
					"type": "uint8"
				},
				{
					"indexed": false,
					"internalType": "uint8",
					"name": "defenderY",
					"type": "uint8"
				},
				{
					"indexed": false,
					"internalType": "bool",
					"name": "attackerWon",
					"type": "bool"
				}
			],
			"name": "TileAttacked",
			"type": "event"
		},
		{
			"inputs": [],
			"name": "ATTACK_COST_FACTOR",
			"outputs": [
				{
					"internalType": "uint256",
					"name": "",
					"type": "uint256"
				}
			],
			"stateMutability": "view",
			"type": "function"
		},
		{
			"inputs": [
				{
					"internalType": "uint8",
					"name": "ax",
					"type": "uint8"
				},
				{
					"internalType": "uint8",
					"name": "ay",
					"type": "uint8"
				},
				{
					"internalType": "uint8",
					"name": "dx",
					"type": "uint8"
				},
				{
					"internalType": "uint8",
					"name": "dy",
					"type": "uint8"
				}
			],
			"name": "attackTile",
			"outputs": [],
			"stateMutability": "nonpayable",
			"type": "function"
		},
		{
			"inputs": [
				{
					"internalType": "uint8",
					"name": "x",
					"type": "uint8"
				},
				{
					"internalType": "uint8",
					"name": "y",
					"type": "uint8"
				},
				{
					"internalType": "uint8",
					"name": "resourceType",
					"type": "uint8"
				},
				{
					"internalType": "uint256",
					"name": "index",
					"type": "uint256"
				}
			],
			"name": "buyItem",
			"outputs": [],
			"stateMutability": "nonpayable",
			"type": "function"
		},
		{
			"inputs": [],
			"name": "clanContract",
			"outputs": [
				{
					"internalType": "contract IClan",
					"name": "",
					"type": "address"
				}
			],
			"stateMutability": "view",
			"type": "function"
		},
		{
			"inputs": [
				{
					"internalType": "uint8",
					"name": "x",
					"type": "uint8"
				},
				{
					"internalType": "uint8",
					"name": "y",
					"type": "uint8"
				}
			],
			"name": "getAllTileWars",
			"outputs": [
				{
					"components": [
						{
							"internalType": "uint8",
							"name": "attackerX",
							"type": "uint8"
						},
						{
							"internalType": "uint8",
							"name": "attackerY",
							"type": "uint8"
						},
						{
							"internalType": "uint8",
							"name": "defenderX",
							"type": "uint8"
						},
						{
							"internalType": "uint8",
							"name": "defenderY",
							"type": "uint8"
						},
						{
							"internalType": "uint256",
							"name": "timestamp",
							"type": "uint256"
						},
						{
							"internalType": "bool",
							"name": "attackerWon",
							"type": "bool"
						},
						{
							"internalType": "uint256",
							"name": "attackerSoldiers",
							"type": "uint256"
						},
						{
							"internalType": "uint256",
							"name": "attackerCasualties",
							"type": "uint256"
						},
						{
							"internalType": "uint256",
							"name": "attackerPower",
							"type": "uint256"
						},
						{
							"internalType": "uint256",
							"name": "defenderSoldiers",
							"type": "uint256"
						},
						{
							"internalType": "uint256",
							"name": "defenderCasualties",
							"type": "uint256"
						},
						{
							"internalType": "uint256",
							"name": "defenderPower",
							"type": "uint256"
						},
						{
							"internalType": "uint256",
							"name": "resourcesStolen",
							"type": "uint256"
						}
					],
					"internalType": "struct MarketPlace.WarRecord[]",
					"name": "",
					"type": "tuple[]"
				}
			],
			"stateMutability": "view",
			"type": "function"
		},
		{
			"inputs": [],
			"name": "getAllWarHistoryWithClans",
			"outputs": [
				{
					"components": [
						{
							"internalType": "uint8",
							"name": "attackerX",
							"type": "uint8"
						},
						{
							"internalType": "uint8",
							"name": "attackerY",
							"type": "uint8"
						},
						{
							"internalType": "uint8",
							"name": "defenderX",
							"type": "uint8"
						},
						{
							"internalType": "uint8",
							"name": "defenderY",
							"type": "uint8"
						},
						{
							"internalType": "uint256",
							"name": "timestamp",
							"type": "uint256"
						},
						{
							"internalType": "bool",
							"name": "attackerWon",
							"type": "bool"
						},
						{
							"internalType": "uint256",
							"name": "attackerSoldiers",
							"type": "uint256"
						},
						{
							"internalType": "uint256",
							"name": "attackerCasualties",
							"type": "uint256"
						},
						{
							"internalType": "uint256",
							"name": "attackerPower",
							"type": "uint256"
						},
						{
							"internalType": "uint256",
							"name": "defenderSoldiers",
							"type": "uint256"
						},
						{
							"internalType": "uint256",
							"name": "defenderCasualties",
							"type": "uint256"
						},
						{
							"internalType": "uint256",
							"name": "defenderPower",
							"type": "uint256"
						},
						{
							"internalType": "uint256",
							"name": "resourcesStolen",
							"type": "uint256"
						}
					],
					"internalType": "struct MarketPlace.WarRecord[]",
					"name": "allWars",
					"type": "tuple[]"
				},
				{
					"components": [
						{
							"internalType": "string",
							"name": "attackerClanNam",
							"type": "string"
						},
						{
							"internalType": "string",
							"name": "defenderClanNam",
							"type": "string"
						}
					],
					"internalType": "struct MarketPlace.WarRecordClan[]",
					"name": "allClans",
					"type": "tuple[]"
				}
			],
			"stateMutability": "view",
			"type": "function"
		},
		{
			"inputs": [
				{
					"internalType": "uint8",
					"name": "resourceType",
					"type": "uint8"
				}
			],
			"name": "getListingsByResourceType",
			"outputs": [
				{
					"components": [
						{
							"internalType": "uint8",
							"name": "sellerX",
							"type": "uint8"
						},
						{
							"internalType": "uint8",
							"name": "sellerY",
							"type": "uint8"
						},
						{
							"internalType": "uint8",
							"name": "resourceType",
							"type": "uint8"
						},
						{
							"internalType": "uint256",
							"name": "amount",
							"type": "uint256"
						},
						{
							"internalType": "uint256",
							"name": "price",
							"type": "uint256"
						}
					],
					"internalType": "struct MarketPlace.MarketItem[]",
					"name": "",
					"type": "tuple[]"
				}
			],
			"stateMutability": "view",
			"type": "function"
		},
		{
			"inputs": [
				{
					"internalType": "uint8",
					"name": "x",
					"type": "uint8"
				},
				{
					"internalType": "uint8",
					"name": "y",
					"type": "uint8"
				}
			],
			"name": "getRecentTileWars",
			"outputs": [
				{
					"components": [
						{
							"internalType": "uint8",
							"name": "attackerX",
							"type": "uint8"
						},
						{
							"internalType": "uint8",
							"name": "attackerY",
							"type": "uint8"
						},
						{
							"internalType": "uint8",
							"name": "defenderX",
							"type": "uint8"
						},
						{
							"internalType": "uint8",
							"name": "defenderY",
							"type": "uint8"
						},
						{
							"internalType": "uint256",
							"name": "timestamp",
							"type": "uint256"
						},
						{
							"internalType": "bool",
							"name": "attackerWon",
							"type": "bool"
						},
						{
							"internalType": "uint256",
							"name": "attackerSoldiers",
							"type": "uint256"
						},
						{
							"internalType": "uint256",
							"name": "attackerCasualties",
							"type": "uint256"
						},
						{
							"internalType": "uint256",
							"name": "attackerPower",
							"type": "uint256"
						},
						{
							"internalType": "uint256",
							"name": "defenderSoldiers",
							"type": "uint256"
						},
						{
							"internalType": "uint256",
							"name": "defenderCasualties",
							"type": "uint256"
						},
						{
							"internalType": "uint256",
							"name": "defenderPower",
							"type": "uint256"
						},
						{
							"internalType": "uint256",
							"name": "resourcesStolen",
							"type": "uint256"
						}
					],
					"internalType": "struct MarketPlace.WarRecord[]",
					"name": "",
					"type": "tuple[]"
				}
			],
			"stateMutability": "view",
			"type": "function"
		},
		{
			"inputs": [],
			"name": "getRecentWarHistoryWithClans",
			"outputs": [
				{
					"components": [
						{
							"internalType": "uint8",
							"name": "attackerX",
							"type": "uint8"
						},
						{
							"internalType": "uint8",
							"name": "attackerY",
							"type": "uint8"
						},
						{
							"internalType": "uint8",
							"name": "defenderX",
							"type": "uint8"
						},
						{
							"internalType": "uint8",
							"name": "defenderY",
							"type": "uint8"
						},
						{
							"internalType": "uint256",
							"name": "timestamp",
							"type": "uint256"
						},
						{
							"internalType": "bool",
							"name": "attackerWon",
							"type": "bool"
						},
						{
							"internalType": "uint256",
							"name": "attackerSoldiers",
							"type": "uint256"
						},
						{
							"internalType": "uint256",
							"name": "attackerCasualties",
							"type": "uint256"
						},
						{
							"internalType": "uint256",
							"name": "attackerPower",
							"type": "uint256"
						},
						{
							"internalType": "uint256",
							"name": "defenderSoldiers",
							"type": "uint256"
						},
						{
							"internalType": "uint256",
							"name": "defenderCasualties",
							"type": "uint256"
						},
						{
							"internalType": "uint256",
							"name": "defenderPower",
							"type": "uint256"
						},
						{
							"internalType": "uint256",
							"name": "resourcesStolen",
							"type": "uint256"
						}
					],
					"internalType": "struct MarketPlace.WarRecord[]",
					"name": "recentWars",
					"type": "tuple[]"
				},
				{
					"components": [
						{
							"internalType": "string",
							"name": "attackerClanNam",
							"type": "string"
						},
						{
							"internalType": "string",
							"name": "defenderClanNam",
							"type": "string"
						}
					],
					"internalType": "struct MarketPlace.WarRecordClan[]",
					"name": "recentClans",
					"type": "tuple[]"
				}
			],
			"stateMutability": "view",
			"type": "function"
		},
		{
			"inputs": [
				{
					"internalType": "uint8",
					"name": "",
					"type": "uint8"
				},
				{
					"internalType": "uint8",
					"name": "",
					"type": "uint8"
				}
			],
			"name": "lastAttackTurn",
			"outputs": [
				{
					"internalType": "uint256",
					"name": "",
					"type": "uint256"
				}
			],
			"stateMutability": "view",
			"type": "function"
		},
		{
			"inputs": [
				{
					"internalType": "uint8",
					"name": "",
					"type": "uint8"
				},
				{
					"internalType": "uint8",
					"name": "",
					"type": "uint8"
				}
			],
			"name": "lastDefenseTurn",
			"outputs": [
				{
					"internalType": "uint256",
					"name": "",
					"type": "uint256"
				}
			],
			"stateMutability": "view",
			"type": "function"
		},
		{
			"inputs": [
				{
					"internalType": "uint8",
					"name": "x",
					"type": "uint8"
				},
				{
					"internalType": "uint8",
					"name": "y",
					"type": "uint8"
				},
				{
					"internalType": "uint8",
					"name": "resourceType",
					"type": "uint8"
				},
				{
					"internalType": "uint256",
					"name": "amount",
					"type": "uint256"
				},
				{
					"internalType": "uint256",
					"name": "price",
					"type": "uint256"
				}
			],
			"name": "listItemForSale",
			"outputs": [],
			"stateMutability": "nonpayable",
			"type": "function"
		},
		{
			"inputs": [],
			"name": "lopToken",
			"outputs": [
				{
					"internalType": "contract IHarmLop",
					"name": "",
					"type": "address"
				}
			],
			"stateMutability": "view",
			"type": "function"
		},
		{
			"inputs": [
				{
					"internalType": "uint8",
					"name": "",
					"type": "uint8"
				},
				{
					"internalType": "uint256",
					"name": "",
					"type": "uint256"
				}
			],
			"name": "marketListings",
			"outputs": [
				{
					"internalType": "uint8",
					"name": "sellerX",
					"type": "uint8"
				},
				{
					"internalType": "uint8",
					"name": "sellerY",
					"type": "uint8"
				},
				{
					"internalType": "uint8",
					"name": "resourceType",
					"type": "uint8"
				},
				{
					"internalType": "uint256",
					"name": "amount",
					"type": "uint256"
				},
				{
					"internalType": "uint256",
					"name": "price",
					"type": "uint256"
				}
			],
			"stateMutability": "view",
			"type": "function"
		},
		{
			"inputs": [
				{
					"internalType": "uint8",
					"name": "",
					"type": "uint8"
				},
				{
					"internalType": "uint8",
					"name": "",
					"type": "uint8"
				}
			],
			"name": "resourceMessages",
			"outputs": [
				{
					"internalType": "uint8",
					"name": "fromX",
					"type": "uint8"
				},
				{
					"internalType": "uint8",
					"name": "fromY",
					"type": "uint8"
				},
				{
					"internalType": "uint8",
					"name": "resourceType",
					"type": "uint8"
				},
				{
					"internalType": "uint256",
					"name": "amount",
					"type": "uint256"
				}
			],
			"stateMutability": "view",
			"type": "function"
		},
		{
			"inputs": [
				{
					"internalType": "uint8",
					"name": "fromX",
					"type": "uint8"
				},
				{
					"internalType": "uint8",
					"name": "fromY",
					"type": "uint8"
				},
				{
					"internalType": "uint8",
					"name": "toX",
					"type": "uint8"
				},
				{
					"internalType": "uint8",
					"name": "toY",
					"type": "uint8"
				},
				{
					"internalType": "uint8",
					"name": "resourceType",
					"type": "uint8"
				},
				{
					"internalType": "uint256",
					"name": "amount",
					"type": "uint256"
				}
			],
			"name": "sendResources",
			"outputs": [],
			"stateMutability": "nonpayable",
			"type": "function"
		},
		{
			"inputs": [],
			"name": "theLand",
			"outputs": [
				{
					"internalType": "contract ITheLand",
					"name": "",
					"type": "address"
				}
			],
			"stateMutability": "view",
			"type": "function"
		},
		{
			"inputs": [],
			"name": "tileMapPhaser",
			"outputs": [
				{
					"internalType": "contract ITileMapPhaser",
					"name": "",
					"type": "address"
				}
			],
			"stateMutability": "view",
			"type": "function"
		},
		{
			"inputs": [
				{
					"internalType": "uint16",
					"name": "",
					"type": "uint16"
				},
				{
					"internalType": "uint256",
					"name": "",
					"type": "uint256"
				}
			],
			"name": "tileWars",
			"outputs": [
				{
					"internalType": "uint256",
					"name": "",
					"type": "uint256"
				}
			],
			"stateMutability": "view",
			"type": "function"
		},
		{
			"inputs": [
				{
					"internalType": "uint256",
					"name": "",
					"type": "uint256"
				}
			],
			"name": "warHistory",
			"outputs": [
				{
					"internalType": "uint8",
					"name": "attackerX",
					"type": "uint8"
				},
				{
					"internalType": "uint8",
					"name": "attackerY",
					"type": "uint8"
				},
				{
					"internalType": "uint8",
					"name": "defenderX",
					"type": "uint8"
				},
				{
					"internalType": "uint8",
					"name": "defenderY",
					"type": "uint8"
				},
				{
					"internalType": "uint256",
					"name": "timestamp",
					"type": "uint256"
				},
				{
					"internalType": "bool",
					"name": "attackerWon",
					"type": "bool"
				},
				{
					"internalType": "uint256",
					"name": "attackerSoldiers",
					"type": "uint256"
				},
				{
					"internalType": "uint256",
					"name": "attackerCasualties",
					"type": "uint256"
				},
				{
					"internalType": "uint256",
					"name": "attackerPower",
					"type": "uint256"
				},
				{
					"internalType": "uint256",
					"name": "defenderSoldiers",
					"type": "uint256"
				},
				{
					"internalType": "uint256",
					"name": "defenderCasualties",
					"type": "uint256"
				},
				{
					"internalType": "uint256",
					"name": "defenderPower",
					"type": "uint256"
				},
				{
					"internalType": "uint256",
					"name": "resourcesStolen",
					"type": "uint256"
				}
			],
			"stateMutability": "view",
			"type": "function"
		},
		{
			"inputs": [
				{
					"internalType": "uint256",
					"name": "",
					"type": "uint256"
				}
			],
			"name": "warHistoryClan",
			"outputs": [
				{
					"internalType": "string",
					"name": "attackerClanNam",
					"type": "string"
				},
				{
					"internalType": "string",
					"name": "defenderClanNam",
					"type": "string"
				}
			],
			"stateMutability": "view",
			"type": "function"
		}
	]
}