{
	"data": {
		"bytecode": {
			"linkReferences": {},
			"object": "6078608081905260a0819052606460c081905260b460e081905260088390556009839055600a829055600b8190556096610100819052610120819052610140839052610190610160819052600c829055600d829055600e849055600f8190556101808590526101a08390526101c084905261012c6101e0819052601095909555601192909255601283905560139390935561020083905260c861022081905261024083905260fa6102608190526014859055601582905560168490556017556102808290526102a08190526102c08490526102e083905260188290556019819055601a849055601b839055610380604052610300829052610320819052610340849052610360839052601c91909155601d55601e91909155601f553480156200012757600080fd5b50604051620043cd380380620043cd8339810160408190526200014a9162000760565b600080546001600160a01b0319166001600160a01b03831617815560408051608080820183526104d8808352610c8060208085019182526105a0858701908152610370606080880182815260018b52602280865298517fe39b43e4224876d80510ac9d8f190663bcce357e28a4aec26f3bf2e600bb40ec5594517fe39b43e4224876d80510ac9d8f190663bcce357e28a4aec26f3bf2e600bb40ed5591517fe39b43e4224876d80510ac9d8f190663bcce357e28a4aec26f3bf2e600bb40ee5592517fe39b43e4224876d80510ac9d8f190663bcce357e28a4aec26f3bf2e600bb40ef5586518086018852610514808252610bb8828501908152828a0191825261038483850190815260028c5289865292517f52978eb6718a0ed733b71dbb3c4781d6da146a41523832713c09679420d0cac555517f52978eb6718a0ed733b71dbb3c4781d6da146a41523832713c09679420d0cac655517f52978eb6718a0ed733b71dbb3c4781d6da146a41523832713c09679420d0cac755517f52978eb6718a0ed733b71dbb3c4781d6da146a41523832713c09679420d0cac855865180860188526106e081526110688184019081526107a8828a0190815261052883850190815260038c5289865292517f3f1c07aec4ba487306d5d4faaa1d9deb5d8db1e41c6130041b740cb07487a5975590517f3f1c07aec4ba487306d5d4faaa1d9deb5d8db1e41c6130041b740cb07487a59855517f3f1c07aec4ba487306d5d4faaa1d9deb5d8db1e41c6130041b740cb07487a59955517f3f1c07aec4ba487306d5d4faaa1d9deb5d8db1e41c6130041b740cb07487a59a5586518086018852848152610af08184019081528189019586526103ac82840190815260048b5288855291517fd7343ae3d2c16eacc7c893fad12c1ec38efa5751e5cb5741a848035a232aa5e855517fd7343ae3d2c16eacc7c893fad12c1ec38efa5751e5cb5741a848035a232aa5e95593517fd7343ae3d2c16eacc7c893fad12c1ec38efa5751e5cb5741a848035a232aa5ea5592517fd7343ae3d2c16eacc7c893fad12c1ec38efa5751e5cb5741a848035a232aa5eb558551808501875261019081526104108183019081526101c282890190815260e683870190815260058b5288855292517f7936fc421e3565b4d3dbcb3877e96699375ad835c0ef9d9615e712c52b84dd4a5590517f7936fc421e3565b4d3dbcb3877e96699375ad835c0ef9d9615e712c52b84dd4b55517f7936fc421e3565b4d3dbcb3877e96699375ad835c0ef9d9615e712c52b84dd4c55517f7936fc421e3565b4d3dbcb3877e96699375ad835c0ef9d9615e712c52b84dd4d55855180850187526105b4808252610c3082840190815282890191825282860194855260068a5287845291517ff8f21fb2982efe3a31ec241138d71e8537db6190870e16a264135221fd47ca725590517ff8f21fb2982efe3a31ec241138d71e8537db6190870e16a264135221fd47ca7355517ff8f21fb2982efe3a31ec241138d71e8537db6190870e16a264135221fd47ca745590517ff8f21fb2982efe3a31ec241138d71e8537db6190870e16a264135221fd47ca755584518084018652610adc8152611900818301908152612fa882880190815261092483860190815260078a5287855292517fbb8a2f0ac13b9baa5e84ca5eb0be8970e3ab8ded6b76a62c4f70de103e57e8b95590517fbb8a2f0ac13b9baa5e84ca5eb0be8970e3ab8ded6b76a62c4f70de103e57e8ba55517fbb8a2f0ac13b9baa5e84ca5eb0be8970e3ab8ded6b76a62c4f70de103e57e8bb55517fbb8a2f0ac13b9baa5e84ca5eb0be8970e3ab8ded6b76a62c4f70de103e57e8bc55845192830185526106908352610e60838201908152610758958401958652610550928401928352600890965292909252517f5e00771a5085b4c5e233dc09115168874841c99f1dfe99703953d33b7f3b63425591517f5e00771a5085b4c5e233dc09115168874841c99f1dfe99703953d33b7f3b634355517f5e00771a5085b4c5e233dc09115168874841c99f1dfe99703953d33b7f3b634455517f5e00771a5085b4c5e233dc09115168874841c99f1dfe99703953d33b7f3b63455550600680546001600160a01b0319163317905562000792565b6000602082840312156200077357600080fd5b81516001600160a01b03811681146200078b57600080fd5b9392505050565b613c2b80620007a26000396000f3fe608060405234801561001057600080fd5b506004361061025c5760003560e01c80638c87fa4f11610145578063daa17f49116100bd578063e9dd65831161008c578063f89d757111610071578063f89d7571146106f5578063f9c6445414610708578063fae926121461071e57600080fd5b8063e9dd6583146106cf578063f3245254146106e257600080fd5b8063daa17f491461067e578063dd4b466b14610691578063decc1bbf146106a4578063e3198e08146106ac57600080fd5b8063a596b64511610114578063bdc7da8e116100f9578063bdc7da8e14610620578063be9a263c14610629578063c1712d571461064957600080fd5b8063a596b645146105ea578063bd6383781461060057600080fd5b80638c87fa4f1461047d5780638da5cb5b146104935780639b562df2146104a6578063a2f9cc5b1461059b57600080fd5b8063537e8f49116101d8578063620a9a99116101a75780637cca26d91161018c5780637cca26d914610429578063800bfa271461043c578063887aca721461045257600080fd5b8063620a9a99146104005780637659bc601461041657600080fd5b8063537e8f49146103715780635d219d5f146103a75780635e75968e146103ba57806360b76b52146103ed57600080fd5b8063351662e41161022f57806341ede44f1161021457806341ede44f146103005780634274b164146103335780634f264b031461034657600080fd5b8063351662e4146102da5780633e5f2857146102ed57600080fd5b806307722bc2146102615780630ee22f31146102765780632a490ae8146102895780632ef78865146102af575b600080fd5b61027461026f3660046135c1565b610731565b005b610274610284366004613612565b6109dd565b61029c610297366004613683565b610f5f565b6040519081526020015b60405180910390f35b61029c6102bd366004613683565b600560209081526000928352604080842090915290825290205481565b6102746102e83660046136bc565b610f76565b6102746102fb366004613707565b6114ca565b61029c61030e366004613683565b60ff918216600090815260026020908152604080832093909416825291909152205490565b6102746103413660046135c1565b611b5c565b600054610359906001600160a01b031681565b6040516001600160a01b0390911681526020016102a6565b6014546015546016546017546103879392919084565b6040805194855260208501939093529183015260608201526080016102a6565b6102746103b536600461377b565b611de8565b6103dd6103c836600461377b565b60046020526000908152604090205460ff1681565b60405190151581526020016102a6565b6102746103fb36600461379f565b611e62565b600854600954600a54600b546103879392919084565b610274610424366004613683565b6120f7565b600154610359906001600160a01b031681565b6010546011546012546013546103879392919084565b61029c610460366004613683565b600260209081526000928352604080842090915290825290205481565b600c54600d54600e54600f546103879392919084565b600654610359906001600160a01b031681565b6105876104b4366004613683565b6020808052600092835260408084208252918352918190208151608080820184528254825260018301548286015260028301548285015260038301546060808401919091526004840154600585015460068601546007870154885160c081018a52600889015481526009890154818c0152600a890154818b0152600b89015495810195909552600c88015495850195909552600d87015460a08501528751808901909852600e87015460ff8082168a526101009091041698880198909852600f90950154939661ffff9182169691169388565b6040516102a69897969594939291906137fb565b6105d86105a936600461379f565b602160209081526000948552604080862082529385528385208152918452828420909152825290205460ff1681565b60405160ff90911681526020016102a6565b601854601954601a54601b546103879392919084565b61061361060e366004613683565b61217e565b6040516102a691906138b7565b61029c6103e881565b61063c610637366004613683565b6122d2565b6040516102a69190613973565b6103876106573660046139d8565b60226020526000908152604090208054600182015460028301546003909301549192909184565b600754610359906001600160a01b031681565b61027461069f366004613683565b61245c565b6105d8600981565b6103dd6106ba36600461377b565b60036020526000908152604090205460ff1681565b6102746106dd3660046139f5565b6125cd565b61029c6106f0366004613683565b612b9e565b6102746107033660046135c1565b612d3b565b601c54601d54601e54601f546103879392919084565b61027461072c36600461377b565b613180565b600054604051638a88895360e01b815260ff8087166004830152851660248201528591859133916001600160a01b031690638a88895390604401602060405180830381865afa158015610788573d6000803e3d6000fd5b505050506040513d601f19601f820116820180604052508101906107ac9190613a1c565b6001600160a01b0316146107ed5760405162461bcd60e51b815260206004820152600360248201526237bbb760e91b60448201526064015b60405180910390fd5b6000831161083d5760405162461bcd60e51b815260206004820152600160248201527f7a0000000000000000000000000000000000000000000000000000000000000060448201526064016107e4565b8360ff166001148061085257508360ff166002145b61089e5760405162461bcd60e51b815260206004820152600160248201527f740000000000000000000000000000000000000000000000000000000000000060448201526064016107e4565b60006108ac878760016131fa565b9050600081116108fe5760405162461bcd60e51b815260206004820152600160248201527f610000000000000000000000000000000000000000000000000000000000000060448201526064016107e4565b60008560ff1660011461091257600c610915565b60085b604080516080810182528254815260018301546020820152600283015491810191909152600390910154606082015290506109538888838886613295565b8560ff1660010361099b5760ff808916600090815260208080526040808320938b1683529290529081206008018054879290610990908490613a68565b909155506109d39050565b60ff808916600090815260208080526040808320938b16835292905290812060090180548792906109cd908490613a68565b90915550505b5050505050505050565b600054604051638a88895360e01b815260ff8088166004830152861660248201528691869133916001600160a01b031690638a88895390604401602060405180830381865afa158015610a34573d6000803e3d6000fd5b505050506040513d601f19601f82011682018060405250810190610a589190613a1c565b6001600160a01b031614610a945760405162461bcd60e51b815260206004820152600360248201526237bbb760e91b60448201526064016107e4565b8484600960ff8316108015610aac5750600960ff8216105b610af85760405162461bcd60e51b815260206004820152600560248201527f636f6f726400000000000000000000000000000000000000000000000000000060448201526064016107e4565b8660ff166004148015610b0e57508560ff166004145b15610b5b5760405162461bcd60e51b815260206004820152600160248201527f630000000000000000000000000000000000000000000000000000000000000060448201526064016107e4565b60ff808a1660009081526021602090815260408083208c8516845282528083208b8516845282528083208a85168452909152902054168015610bdf5760405162461bcd60e51b815260206004820152600160248201527f650000000000000000000000000000000000000000000000000000000000000060448201526064016107e4565b8560ff16600303610c6257610bf68a8a60036131fa565b15610c435760405162461bcd60e51b815260206004820152600160248201527f630000000000000000000000000000000000000000000000000000000000000060448201526064016107e4565b336000908152600360205260409020805460ff19166001179055610ce1565b8560ff16600603610ce157610c798a8a60066131fa565b15610cc65760405162461bcd60e51b815260206004820152600160248201527f6d0000000000000000000000000000000000000000000000000000000000000060448201526064016107e4565b336000908152600460205260409020805460ff191660011790555b60ff808716600090815260226020908152604080832081516080810183528154815260018201548185015260028201548184015260039091015460608201528e85168452828052818420948e168452939091529020815181541015610d885760405162461bcd60e51b815260206004820152600160248201527f660000000000000000000000000000000000000000000000000000000000000060448201526064016107e4565b602082015160018201541015610de05760405162461bcd60e51b815260206004820152600160248201527f770000000000000000000000000000000000000000000000000000000000000060448201526064016107e4565b604082015160028201541015610e385760405162461bcd60e51b815260206004820152600160248201527f730000000000000000000000000000000000000000000000000000000000000060448201526064016107e4565b606082015160038201541015610e905760405162461bcd60e51b815260206004820152600160248201527f690000000000000000000000000000000000000000000000000000000000000060448201526064016107e4565b815181548290600090610ea4908490613a7b565b90915550506020820151600182018054600090610ec2908490613a7b565b90915550506040820151600282018054600090610ee0908490613a7b565b90915550506060820151600382018054600090610efe908490613a7b565b909155505060ff8c811660009081526021602090815260408083208f8516845282528083208e8516845282528083208d851684529091529020805460ff1916918a16919091179055610f51818d8d613502565b505050505050505050505050565b6000610f6d838360076131fa565b90505b92915050565b600054604051638a88895360e01b815260ff8086166004830152841660248201528491849133916001600160a01b031690638a88895390604401602060405180830381865afa158015610fcd573d6000803e3d6000fd5b505050506040513d601f19601f82011682018060405250810190610ff19190613a1c565b6001600160a01b03161461102d5760405162461bcd60e51b815260206004820152600360248201526237bbb760e91b60448201526064016107e4565b60ff8086166000908152602080805260408083208885168452909152812091606090861660010361109e575050600e81015460408051808201909152600d81527f6f6666656e736976655465636800000000000000000000000000000000000000602082015260ff9091169061113d565b8560ff166002036110f3575050600e81015460408051808201909152600d81527f646566656e736976655465636800000000000000000000000000000000000000602082015261010090910460ff169061113d565b60405162461bcd60e51b81526004016107e49060208082526004908201527f7479706500000000000000000000000000000000000000000000000000000000604082015260600190565b6127108260ff1611156111925760405162461bcd60e51b815260206004820152600160248201527f6c0000000000000000000000000000000000000000000000000000000000000060448201526064016107e4565b60006111a0898960086131fa565b9050600081116111f25760405162461bcd60e51b815260206004820152600160248201527f770000000000000000000000000000000000000000000000000000000000000060448201526064016107e4565b60006111ff846001613a8e565b61120d9060ff166002613aa7565b905060008261121d83608c613aa7565b6112279190613aed565b9050600083611237846078613aa7565b6112419190613aed565b90506000846112518560b4613aa7565b61125b9190613aed565b905060008561126b866078613aa7565b6112759190613aed565b89549091508411156112c95760405162461bcd60e51b815260206004820152600160248201527f660000000000000000000000000000000000000000000000000000000000000060448201526064016107e4565b600189015483111561131d5760405162461bcd60e51b815260206004820152600160248201527f770000000000000000000000000000000000000000000000000000000000000060448201526064016107e4565b60028901548211156113715760405162461bcd60e51b815260206004820152600160248201527f730000000000000000000000000000000000000000000000000000000000000060448201526064016107e4565b60038901548111156113c55760405162461bcd60e51b815260206004820152600160248201527f690000000000000000000000000000000000000000000000000000000000000060448201526064016107e4565b885484908a906000906113d9908490613a7b565b90915550506001890180548491906000906113f5908490613a7b565b9091555050600289018054839190600090611411908490613a7b565b909155505060038901805482919060009061142d908490613a7b565b909155505060ff8c1660010361147057600e8901805460ff1690600061145283613b01565b91906101000a81548160ff021916908360ff160217905550506114af565b8b60ff166002036114af57600e89018054610100900460ff1690600161149583613b01565b91906101000a81548160ff021916908360ff160217905550505b6114ba898f8f613502565b5050505050505050505050505050565b6007546001600160a01b031633146115245760405162461bcd60e51b815260206004820152600160248201527f610000000000000000000000000000000000000000000000000000000000000060448201526064016107e4565b60ff808616600090815260208080526040808320888516845290915290209084166001036115d657811561157157805483908290600090611566908490613a68565b90915550611b499050565b80548311156115c25760405162461bcd60e51b815260206004820152600160248201527f660000000000000000000000000000000000000000000000000000000000000060448201526064016107e4565b805483908290600090611566908490613a7b565b8360ff166002036116695781156115fe57828160000160010160008282546115669190613a68565b60018101548311156116525760405162461bcd60e51b815260206004820152600160248201527f770000000000000000000000000000000000000000000000000000000000000060448201526064016107e4565b828160000160010160008282546115669190613a7b565b8360ff166003036116fc57811561169157828160000160020160008282546115669190613a68565b60028101548311156116e55760405162461bcd60e51b815260206004820152600160248201527f730000000000000000000000000000000000000000000000000000000000000060448201526064016107e4565b828160000160020160008282546115669190613a7b565b8360ff1660040361178f57811561172457828160000160030160008282546115669190613a68565b60038101548311156117785760405162461bcd60e51b815260206004820152600160248201527f690000000000000000000000000000000000000000000000000000000000000060448201526064016107e4565b828160000160030160008282546115669190613a7b565b8360ff166005036118225781156117b757828160080160000160008282546115669190613a68565b600881015483111561180b5760405162461bcd60e51b815260206004820152600260248201527f6f6100000000000000000000000000000000000000000000000000000000000060448201526064016107e4565b828160080160000160008282546115669190613a7b565b8360ff166006036118b557811561184a57828160080160010160008282546115669190613a68565b600981015483111561189e5760405162461bcd60e51b815260206004820152600260248201527f646100000000000000000000000000000000000000000000000000000000000060448201526064016107e4565b828160080160010160008282546115669190613a7b565b8360ff166007036119485781156118dd57828160080160020160008282546115669190613a68565b600a8101548311156119315760405162461bcd60e51b815260206004820152600260248201527f6f7700000000000000000000000000000000000000000000000000000000000060448201526064016107e4565b828160080160020160008282546115669190613a7b565b8360ff166008036119db57811561197057828160080160030160008282546115669190613a68565b600b8101548311156119c45760405162461bcd60e51b815260206004820152600260248201527f647700000000000000000000000000000000000000000000000000000000000060448201526064016107e4565b828160080160030160008282546115669190613a7b565b8360ff16600903611a6e578115611a0357828160080160040160008282546115669190613a68565b600c810154831115611a575760405162461bcd60e51b815260206004820152600260248201527f6f7300000000000000000000000000000000000000000000000000000000000060448201526064016107e4565b828160080160040160008282546115669190613a7b565b8360ff16600a03611b01578115611a9657828160080160050160008282546115669190613a68565b600d810154831115611aea5760405162461bcd60e51b815260206004820152600260248201527f647300000000000000000000000000000000000000000000000000000000000060448201526064016107e4565b828160080160050160008282546115669190613a7b565b60405162461bcd60e51b815260206004820152600160248201527f740000000000000000000000000000000000000000000000000000000000000060448201526064016107e4565b611b54818787613502565b505050505050565b600054604051638a88895360e01b815260ff8087166004830152851660248201528591859133916001600160a01b031690638a88895390604401602060405180830381865afa158015611bb3573d6000803e3d6000fd5b505050506040513d601f19601f82011682018060405250810190611bd79190613a1c565b6001600160a01b031614611c135760405162461bcd60e51b815260206004820152600360248201526237bbb760e91b60448201526064016107e4565b60008311611c635760405162461bcd60e51b815260206004820152600160248201527f7a0000000000000000000000000000000000000000000000000000000000000060448201526064016107e4565b8360ff1660011480611c7857508360ff166002145b611cc45760405162461bcd60e51b815260206004820152600160248201527f740000000000000000000000000000000000000000000000000000000000000060448201526064016107e4565b6000611cd2878760026131fa565b905060008111611d245760405162461bcd60e51b815260206004820152600260248201527f627300000000000000000000000000000000000000000000000000000000000060448201526064016107e4565b60008560ff16600114611d38576014611d3b565b60105b60408051608081018252825481526001830154602082015260028301549181019190915260039091015460608201529050611d798888838886613295565b8560ff16600103611db65760ff808916600090815260208080526040808320938b168352929052908120600a018054879290610990908490613a68565b60ff808916600090815260208080526040808320938b168352929052908120600b0180548792906109cd908490613a68565b6006546001600160a01b03163314611e285760405162461bcd60e51b815260206004820152600360248201526237bbb760e91b60448201526064016107e4565b600180547fffffffffffffffffffffffff0000000000000000000000000000000000000000166001600160a01b0392909216919091179055565b600054604051638a88895360e01b815260ff8087166004830152851660248201528591859133916001600160a01b031690638a88895390604401602060405180830381865afa158015611eb9573d6000803e3d6000fd5b505050506040513d601f19601f82011682018060405250810190611edd9190613a1c565b6001600160a01b031614611f195760405162461bcd60e51b815260206004820152600360248201526237bbb760e91b60448201526064016107e4565b8383600960ff8316108015611f315750600960ff8216105b611f7d5760405162461bcd60e51b815260206004820152600560248201527f636f6f726400000000000000000000000000000000000000000000000000000060448201526064016107e4565b8560ff166004148015611f9357508460ff166004145b15611fe05760405162461bcd60e51b815260206004820152600160248201527f630000000000000000000000000000000000000000000000000000000000000060448201526064016107e4565b60ff80891660009081526021602090815260408083208b8516845282528083208a8516845282528083208985168452909152812054909116908190036120685760405162461bcd60e51b815260206004820152600160248201527f6e0000000000000000000000000000000000000000000000000000000000000060448201526064016107e4565b8060ff1660030361208f57336000908152600360205260409020805460ff191690556120b2565b8060ff166006036120b257336000908152600460205260409020805460ff191690555b50505060ff958616600090815260216020908152604080832097891683529681528682209588168252948552858120939096168652505090529020805460ff19169055565b6007546001600160a01b031633146121515760405162461bcd60e51b815260206004820152600160248201527f610000000000000000000000000000000000000000000000000000000000000060448201526064016107e4565b60ff808316600090815260208080526040808320938516835292905220612179818484613502565b505050565b612201604051806101e0016040528060008152602001600081526020016000815260200160008152602001600061ffff16815260200160008152602001600081526020016000815260200160008152602001600081526020016000815260200160008152602001600060ff168152602001600060ff168152602001600081525090565b5060ff91821660009081526020808052604080832093851683529281529082902082516101e0810184528154815260018201549281019290925260028101549282019290925260038201546060820152600482015461ffff166080820152600582015460a0820152600882015460c0820152600982015460e0820152600a82015461010080830191909152600b830154610120830152600c830154610140830152600d830154610160830152600e830154808516610180840152049092166101a0830152600f01546101c082015290565b6122da613562565b600054604051638a88895360e01b815260ff8086166004830152841660248201528491849133916001600160a01b031690638a88895390604401602060405180830381865afa158015612331573d6000803e3d6000fd5b505050506040513d601f19601f820116820180604052508101906123559190613a1c565b6001600160a01b0316146123915760405162461bcd60e51b815260206004820152600360248201526237bbb760e91b60448201526064016107e4565b612399613562565b60005b600960ff821610156124505760005b600960ff8216101561243d5760ff80891660009081526021602090815260408083208b8516845282528083208685168085529083528184208686168552909252909120549091169084906009811061240557612405613b20565b60200201518260ff166009811061241e5761241e613b20565b60ff90921660209290920201528061243581613b01565b9150506123ab565b508061244881613b01565b91505061239c565b5092505b505092915050565b600054604051638a88895360e01b815260ff8085166004830152831660248201528391839133916001600160a01b031690638a88895390604401602060405180830381865afa1580156124b3573d6000803e3d6000fd5b505050506040513d601f19601f820116820180604052508101906124d79190613a1c565b6001600160a01b0316146125135760405162461bcd60e51b815260206004820152600360248201526237bbb760e91b60448201526064016107e4565b60ff8085166000908152602080805260408083209387168352929052908120600701546125409042613a7b565b61254b90603c613aa7565b60ff8087166000908152602080805260408083209389168352929052206006015461257a919061ffff16613a68565b9050610258811161258b578061258f565b6102585b60ff9586166000908152602080805260408083209790981682529590955294909320600601805461ffff191661ffff90951694909417909355505050565b600054604051638a88895360e01b815260ff8085166004830152831660248201528391839133916001600160a01b031690638a88895390604401602060405180830381865afa158015612624573d6000803e3d6000fd5b505050506040513d601f19601f820116820180604052508101906126489190613a1c565b6001600160a01b0316146126845760405162461bcd60e51b815260206004820152600360248201526237bbb760e91b60448201526064016107e4565b60008561ffff16116126d85760405162461bcd60e51b815260206004820152600160248201527f300000000000000000000000000000000000000000000000000000000000000060448201526064016107e4565b6126e2848461245c565b60ff8085166000908152602080805260408083209387168352929052206006015461ffff808716911610156127595760405162461bcd60e51b815260206004820152600160248201527f740000000000000000000000000000000000000000000000000000000000000060448201526064016107e4565b60ff80851660009081526020808052604080832093871683529290522060050154612786906103e8613a7b565b8561ffff1611156127c15760ff808516600090815260208080526040808320938716835292905220600501546127be906103e8613a7b565b94505b60ff808516600090815260208080526040808320938716835292905220600601546127f190869061ffff16613b4f565b60ff858116600090815260208080526040808320938816835292905290812060068101805461ffff191661ffff94909416939093179092554260079092019190915561283f858560056131fa565b905061284c600182613a68565b6001546040517f2a2026a900000000000000000000000000000000000000000000000000000000815260ff8089166004830152871660248201529192506000916001600160a01b0390911690632a2026a990604401602060405180830381865afa1580156128be573d6000803e3d6000fd5b505050506040513d601f19601f820116820180604052508101906128e29190613b71565b60ff8088166000908152602080805260408083208a85168452909152902091925082166001036129375761291a8361ffff8a16613aa7565b8154829060009061292c908490613a68565b909155506129c49050565b8160ff16600203612964576129508361ffff8a16613aa7565b60018201805460009061292c908490613a68565b8160ff166003036129915761297d8361ffff8a16613aa7565b60028201805460009061292c908490613a68565b8160ff166004036129c4576129aa8361ffff8a16613aa7565b6003820180546000906129be908490613a68565b90915550505b6129d28361ffff8a16613aa7565b815482906000906129e4908490613a68565b909155506129f890508361ffff8a16613aa7565b600182018054600090612a0c908490613a68565b90915550612a2090508361ffff8a16613aa7565b600282018054600090612a34908490613a68565b90915550612a4890508361ffff8a16613aa7565b600382018054600090612a5c908490613a68565b925050819055508761ffff16816005016000828254612a7b9190613a68565b90915550506005810154600090612a95906103e890613aed565b90506103e8826005016000828254612aad9190613b8e565b90915550506004820154600090612ac990839061ffff16613ba2565b90506101f48161ffff161115612aef5760048301805461ffff19166101f4179055612b03565b60048301805461ffff191661ffff83161790555b612b0e838a8a613502565b60ff808a166000908152600260209081526040808320938c168352929052908120805461ffff8d169290612b43908490613a68565b90915550506040805161ffff8c16815260ff8b811660208301528a1681830152905133917fbb5b4f7847476e1912e2b57d030b0e491d0d72b2ef256cceea9daa41f40f5d18919081900360600190a250505050505050505050565b60008054604051638a88895360e01b815260ff8086166004830152841660248201528491849133916001600160a01b031690638a88895390604401602060405180830381865afa158015612bf6573d6000803e3d6000fd5b505050506040513d601f19601f82011682018060405250810190612c1a9190613a1c565b6001600160a01b031614612c565760405162461bcd60e51b815260206004820152600360248201526237bbb760e91b60448201526064016107e4565b60ff8086166000908152602080805260408083209388168352929052206007015461025890612c859042613a7b565b612c9090603c613aa7565b60ff808816600090815260208080526040808320938a1683529290522060060154612cbf919061ffff16613a68565b1115612ccf576102589250612454565b60ff80861660009081526020808052604080832093881683529290522060070154612cfa9042613a7b565b612d0590603c613aa7565b60ff80871660009081526020808052604080832093891683529290522060060154612d34919061ffff16613a68565b9250612454565b600054604051638a88895360e01b815260ff8087166004830152851660248201528591859133916001600160a01b031690638a88895390604401602060405180830381865afa158015612d92573d6000803e3d6000fd5b505050506040513d601f19601f82011682018060405250810190612db69190613a1c565b6001600160a01b031614612df25760405162461bcd60e51b815260206004820152600360248201526237bbb760e91b60448201526064016107e4565b60008311612e425760405162461bcd60e51b815260206004820152600160248201527f7a0000000000000000000000000000000000000000000000000000000000000060448201526064016107e4565b8360ff1660011480612e5757508360ff166002145b612ea35760405162461bcd60e51b815260206004820152600160248201527f740000000000000000000000000000000000000000000000000000000000000060448201526064016107e4565b6000612eb1878760046131fa565b905060008111612f035760405162461bcd60e51b815260206004820152600160248201527f700000000000000000000000000000000000000000000000000000000000000060448201526064016107e4565b60008560ff16600114612f1757601c612f1a565b60185b60408051608081018252825481526001830154602082015260028301549181019190915260039091015460608201529050612f588888838886613295565b60ff8089166000908152602080805260408083208b85168452909152902060080190871660010361307d578054861115612fd45760405162461bcd60e51b815260206004820152600260248201527f6f6100000000000000000000000000000000000000000000000000000000000060448201526064016107e4565b85816002015410156130285760405162461bcd60e51b815260206004820152600260248201527f6f7700000000000000000000000000000000000000000000000000000000000060448201526064016107e4565b8581600001600082825461303c9190613a7b565b92505081905550858160020160008282546130579190613a7b565b92505081905550858160040160008282546130729190613a68565b909155506131759050565b85816001015410156130d15760405162461bcd60e51b815260206004820152600260248201527f646100000000000000000000000000000000000000000000000000000000000060448201526064016107e4565b85816003015410156131255760405162461bcd60e51b815260206004820152600260248201527f647700000000000000000000000000000000000000000000000000000000000060448201526064016107e4565b858160010160008282546131399190613a7b565b92505081905550858160030160008282546131549190613a7b565b925050819055508581600501600082825461316f9190613a68565b90915550505b505050505050505050565b6006546001600160a01b031633146131c05760405162461bcd60e51b815260206004820152600360248201526237bbb760e91b60448201526064016107e4565b600780547fffffffffffffffffffffffff0000000000000000000000000000000000000000166001600160a01b0392909216919091179055565b600080805b600960ff8216101561328c5760005b600960ff821610156132795760ff87811660009081526021602090815260408083208a851684528252808320868516845282528083208585168452909152902054818716911603613267578261326381613bbd565b9350505b8061327181613b01565b91505061320e565b508061328481613b01565b9150506131ff565b50949350505050565b60ff8086166000908152602080805260408083209388168352929052908120845190919083906132c6908690613aa7565b6132d09190613aed565b90506000838587602001516132e59190613aa7565b6132ef9190613aed565b90506000848688604001516133049190613aa7565b61330e9190613aed565b90506000858789606001516133239190613aa7565b61332d9190613aed565b85549091508411156133815760405162461bcd60e51b815260206004820152600160248201527f660000000000000000000000000000000000000000000000000000000000000060448201526064016107e4565b60018501548311156133d55760405162461bcd60e51b815260206004820152600160248201527f770000000000000000000000000000000000000000000000000000000000000060448201526064016107e4565b60028501548211156134295760405162461bcd60e51b815260206004820152600160248201527f730000000000000000000000000000000000000000000000000000000000000060448201526064016107e4565b600385015481111561347d5760405162461bcd60e51b815260206004820152600160248201527f690000000000000000000000000000000000000000000000000000000000000060448201526064016107e4565b845484908690600090613491908490613a7b565b90915550506001850180548491906000906134ad908490613a7b565b90915550506002850180548391906000906134c9908490613a7b565b90915550506003850180548291906000906134e5908490613a7b565b909155506134f69050858b8b613502565b50505050505050505050565b6003830154600284015460018501548554600093929161352191613a68565b61352b9190613a68565b6135359190613a68565b600f9094018490555060ff9182166000908152600560209081526040808320939094168252919091522055565b6040518061012001604052806009905b61357a613590565b8152602001906001900390816135725790505090565b6040518061012001604052806009906020820280368337509192915050565b60ff811681146135be57600080fd5b50565b600080600080608085870312156135d757600080fd5b84356135e2816135af565b935060208501356135f2816135af565b92506040850135613602816135af565b9396929550929360600135925050565b600080600080600060a0868803121561362a57600080fd5b8535613635816135af565b94506020860135613645816135af565b93506040860135613655816135af565b92506060860135613665816135af565b91506080860135613675816135af565b809150509295509295909350565b6000806040838503121561369657600080fd5b82356136a1816135af565b915060208301356136b1816135af565b809150509250929050565b6000806000606084860312156136d157600080fd5b83356136dc816135af565b925060208401356136ec816135af565b915060408401356136fc816135af565b809150509250925092565b600080600080600060a0868803121561371f57600080fd5b853561372a816135af565b9450602086013561373a816135af565b9350604086013561374a816135af565b9250606086013591506080860135801515811461367557600080fd5b6001600160a01b03811681146135be57600080fd5b60006020828403121561378d57600080fd5b813561379881613766565b9392505050565b600080600080608085870312156137b557600080fd5b84356137c0816135af565b935060208501356137d0816135af565b925060408501356137e0816135af565b915060608501356137f0816135af565b939692955090935050565b6000610220820190508951825260208a0151602083015260408a0151604083015260608a0151606083015261ffff808a1660808401528860a084015280881660c0840152508560e08301528451610100830152602085015161012083015260408501516101408301526060850151610160830152608085015161018083015260a08501516101a08301526138a36101c0830185805160ff908116835260209182015116910152565b826102008301529998505050505050505050565b60006101e0820190508251825260208301516020830152604083015160408301526060830151606083015260808301516138f7608084018261ffff169052565b5060a0838101519083015260c0808401519083015260e0808401519083015261010080840151908301526101208084015190830152610140808401519083015261016080840151908301526101808084015160ff81168285015250506101a08381015160ff81168483015250506101c092830151919092015290565b610a20810181836000805b600980821061398d57506139ce565b835185845b838110156139b357825160ff16825260209283019290910190600101613992565b5050506101209490940193506020929092019160010161397e565b5050505092915050565b6000602082840312156139ea57600080fd5b8135613798816135af565b600080600060608486031215613a0a57600080fd5b833561ffff811681146136dc57600080fd5b600060208284031215613a2e57600080fd5b815161379881613766565b7f4e487b7100000000000000000000000000000000000000000000000000000000600052601160045260246000fd5b80820180821115610f7057610f70613a39565b81810381811115610f7057610f70613a39565b60ff8181168382160190811115610f7057610f70613a39565b8082028115828204841417610f7057610f70613a39565b7f4e487b7100000000000000000000000000000000000000000000000000000000600052601260045260246000fd5b600082613afc57613afc613abe565b500490565b600060ff821660ff8103613b1757613b17613a39565b60010192915050565b7f4e487b7100000000000000000000000000000000000000000000000000000000600052603260045260246000fd5b61ffff828116828216039080821115613b6a57613b6a613a39565b5092915050565b600060208284031215613b8357600080fd5b8151613798816135af565b600082613b9d57613b9d613abe565b500690565b61ffff818116838216019080821115613b6a57613b6a613a39565b60007fffffffffffffffffffffffffffffffffffffffffffffffffffffffffffffffff8203613bee57613bee613a39565b506001019056fea264697066735822122075142aaa45aeaaf109e333a998dc910f69049eb6e97dc693a018cbca6a9a43da64736f6c63430008120033",
			"opcodes": "PUSH1 0x78 PUSH1 0x80 DUP2 SWAP1 MSTORE PUSH1 0xA0 DUP2 SWAP1 MSTORE PUSH1 0x64 PUSH1 0xC0 DUP2 SWAP1 MSTORE PUSH1 0xB4 PUSH1 0xE0 DUP2 SWAP1 MSTORE PUSH1 0x8 DUP4 SWAP1 SSTORE PUSH1 0x9 DUP4 SWAP1 SSTORE PUSH1 0xA DUP3 SWAP1 SSTORE PUSH1 0xB DUP2 SWAP1 SSTORE PUSH1 0x96 PUSH2 0x100 DUP2 SWAP1 MSTORE PUSH2 0x120 DUP2 SWAP1 MSTORE PUSH2 0x140 DUP4 SWAP1 MSTORE PUSH2 0x190 PUSH2 0x160 DUP2 SWAP1 MSTORE PUSH1 0xC DUP3 SWAP1 SSTORE PUSH1 0xD DUP3 SWAP1 SSTORE PUSH1 0xE DUP5 SWAP1 SSTORE PUSH1 0xF DUP2 SWAP1 SSTORE PUSH2 0x180 DUP6 SWAP1 MSTORE PUSH2 0x1A0 DUP4 SWAP1 MSTORE PUSH2 0x1C0 DUP5 SWAP1 MSTORE PUSH2 0x12C PUSH2 0x1E0 DUP2 SWAP1 MSTORE PUSH1 0x10 SWAP6 SWAP1 SWAP6 SSTORE PUSH1 0x11 SWAP3 SWAP1 SWAP3 SSTORE PUSH1 0x12 DUP4 SWAP1 SSTORE PUSH1 0x13 SWAP4 SWAP1 SWAP4 SSTORE PUSH2 0x200 DUP4 SWAP1 MSTORE PUSH1 0xC8 PUSH2 0x220 DUP2 SWAP1 MSTORE PUSH2 0x240 DUP4 SWAP1 MSTORE PUSH1 0xFA PUSH2 0x260 DUP2 SWAP1 MSTORE PUSH1 0x14 DUP6 SWAP1 SSTORE PUSH1 0x15 DUP3 SWAP1 SSTORE PUSH1 0x16 DUP5 SWAP1 SSTORE PUSH1 0x17 SSTORE PUSH2 0x280 DUP3 SWAP1 MSTORE PUSH2 0x2A0 DUP2 SWAP1 MSTORE PUSH2 0x2C0 DUP5 SWAP1 MSTORE PUSH2 0x2E0 DUP4 SWAP1 MSTORE PUSH1 0x18 DUP3 SWAP1 SSTORE PUSH1 0x19 DUP2 SWAP1 SSTORE PUSH1 0x1A DUP5 SWAP1 SSTORE PUSH1 0x1B DUP4 SWAP1 SSTORE PUSH2 0x380 PUSH1 0x40 MSTORE PUSH2 0x300 DUP3 SWAP1 MSTORE PUSH2 0x320 DUP2 SWAP1 MSTORE PUSH2 0x340 DUP5 SWAP1 MSTORE PUSH2 0x360 DUP4 SWAP1 MSTORE PUSH1 0x1C SWAP2 SWAP1 SWAP2 SSTORE PUSH1 0x1D SSTORE PUSH1 0x1E SWAP2 SWAP1 SWAP2 SSTORE PUSH1 0x1F SSTORE CALLVALUE DUP1 ISZERO PUSH3 0x127 JUMPI PUSH1 0x0 DUP1 REVERT JUMPDEST POP PUSH1 0x40 MLOAD PUSH3 0x43CD CODESIZE SUB DUP1 PUSH3 0x43CD DUP4 CODECOPY DUP2 ADD PUSH1 0x40 DUP2 SWAP1 MSTORE PUSH3 0x14A SWAP2 PUSH3 0x760 JUMP JUMPDEST PUSH1 0x0 DUP1 SLOAD PUSH1 0x1 PUSH1 0x1 PUSH1 0xA0 SHL SUB NOT AND PUSH1 0x1 PUSH1 0x1 PUSH1 0xA0 SHL SUB DUP4 AND OR DUP2 SSTORE PUSH1 0x40 DUP1 MLOAD PUSH1 0x80 DUP1 DUP3 ADD DUP4 MSTORE PUSH2 0x4D8 DUP1 DUP4 MSTORE PUSH2 0xC80 PUSH1 0x20 DUP1 DUP6 ADD SWAP2 DUP3 MSTORE PUSH2 0x5A0 DUP6 DUP8 ADD SWAP1 DUP2 MSTORE PUSH2 0x370 PUSH1 0x60 DUP1 DUP9 ADD DUP3 DUP2 MSTORE PUSH1 0x1 DUP12 MSTORE PUSH1 0x22 DUP1 DUP7 MSTORE SWAP9 MLOAD PUSH32 0xE39B43E4224876D80510AC9D8F190663BCCE357E28A4AEC26F3BF2E600BB40EC SSTORE SWAP5 MLOAD PUSH32 0xE39B43E4224876D80510AC9D8F190663BCCE357E28A4AEC26F3BF2E600BB40ED SSTORE SWAP2 MLOAD PUSH32 0xE39B43E4224876D80510AC9D8F190663BCCE357E28A4AEC26F3BF2E600BB40EE SSTORE SWAP3 MLOAD PUSH32 0xE39B43E4224876D80510AC9D8F190663BCCE357E28A4AEC26F3BF2E600BB40EF SSTORE DUP7 MLOAD DUP1 DUP7 ADD DUP9 MSTORE PUSH2 0x514 DUP1 DUP3 MSTORE PUSH2 0xBB8 DUP3 DUP6 ADD SWAP1 DUP2 MSTORE DUP3 DUP11 ADD SWAP2 DUP3 MSTORE PUSH2 0x384 DUP4 DUP6 ADD SWAP1 DUP2 MSTORE PUSH1 0x2 DUP13 MSTORE DUP10 DUP7 MSTORE SWAP3 MLOAD PUSH32 0x52978EB6718A0ED733B71DBB3C4781D6DA146A41523832713C09679420D0CAC5 SSTORE MLOAD PUSH32 0x52978EB6718A0ED733B71DBB3C4781D6DA146A41523832713C09679420D0CAC6 SSTORE MLOAD PUSH32 0x52978EB6718A0ED733B71DBB3C4781D6DA146A41523832713C09679420D0CAC7 SSTORE MLOAD PUSH32 0x52978EB6718A0ED733B71DBB3C4781D6DA146A41523832713C09679420D0CAC8 SSTORE DUP7 MLOAD DUP1 DUP7 ADD DUP9 MSTORE PUSH2 0x6E0 DUP2 MSTORE PUSH2 0x1068 DUP2 DUP5 ADD SWAP1 DUP2 MSTORE PUSH2 0x7A8 DUP3 DUP11 ADD SWAP1 DUP2 MSTORE PUSH2 0x528 DUP4 DUP6 ADD SWAP1 DUP2 MSTORE PUSH1 0x3 DUP13 MSTORE DUP10 DUP7 MSTORE SWAP3 MLOAD PUSH32 0x3F1C07AEC4BA487306D5D4FAAA1D9DEB5D8DB1E41C6130041B740CB07487A597 SSTORE SWAP1 MLOAD PUSH32 0x3F1C07AEC4BA487306D5D4FAAA1D9DEB5D8DB1E41C6130041B740CB07487A598 SSTORE MLOAD PUSH32 0x3F1C07AEC4BA487306D5D4FAAA1D9DEB5D8DB1E41C6130041B740CB07487A599 SSTORE MLOAD PUSH32 0x3F1C07AEC4BA487306D5D4FAAA1D9DEB5D8DB1E41C6130041B740CB07487A59A SSTORE DUP7 MLOAD DUP1 DUP7 ADD DUP9 MSTORE DUP5 DUP2 MSTORE PUSH2 0xAF0 DUP2 DUP5 ADD SWAP1 DUP2 MSTORE DUP2 DUP10 ADD SWAP6 DUP7 MSTORE PUSH2 0x3AC DUP3 DUP5 ADD SWAP1 DUP2 MSTORE PUSH1 0x4 DUP12 MSTORE DUP9 DUP6 MSTORE SWAP2 MLOAD PUSH32 0xD7343AE3D2C16EACC7C893FAD12C1EC38EFA5751E5CB5741A848035A232AA5E8 SSTORE MLOAD PUSH32 0xD7343AE3D2C16EACC7C893FAD12C1EC38EFA5751E5CB5741A848035A232AA5E9 SSTORE SWAP4 MLOAD PUSH32 0xD7343AE3D2C16EACC7C893FAD12C1EC38EFA5751E5CB5741A848035A232AA5EA SSTORE SWAP3 MLOAD PUSH32 0xD7343AE3D2C16EACC7C893FAD12C1EC38EFA5751E5CB5741A848035A232AA5EB SSTORE DUP6 MLOAD DUP1 DUP6 ADD DUP8 MSTORE PUSH2 0x190 DUP2 MSTORE PUSH2 0x410 DUP2 DUP4 ADD SWAP1 DUP2 MSTORE PUSH2 0x1C2 DUP3 DUP10 ADD SWAP1 DUP2 MSTORE PUSH1 0xE6 DUP4 DUP8 ADD SWAP1 DUP2 MSTORE PUSH1 0x5 DUP12 MSTORE DUP9 DUP6 MSTORE SWAP3 MLOAD PUSH32 0x7936FC421E3565B4D3DBCB3877E96699375AD835C0EF9D9615E712C52B84DD4A SSTORE SWAP1 MLOAD PUSH32 0x7936FC421E3565B4D3DBCB3877E96699375AD835C0EF9D9615E712C52B84DD4B SSTORE MLOAD PUSH32 0x7936FC421E3565B4D3DBCB3877E96699375AD835C0EF9D9615E712C52B84DD4C SSTORE MLOAD PUSH32 0x7936FC421E3565B4D3DBCB3877E96699375AD835C0EF9D9615E712C52B84DD4D SSTORE DUP6 MLOAD DUP1 DUP6 ADD DUP8 MSTORE PUSH2 0x5B4 DUP1 DUP3 MSTORE PUSH2 0xC30 DUP3 DUP5 ADD SWAP1 DUP2 MSTORE DUP3 DUP10 ADD SWAP2 DUP3 MSTORE DUP3 DUP7 ADD SWAP5 DUP6 MSTORE PUSH1 0x6 DUP11 MSTORE DUP8 DUP5 MSTORE SWAP2 MLOAD PUSH32 0xF8F21FB2982EFE3A31EC241138D71E8537DB6190870E16A264135221FD47CA72 SSTORE SWAP1 MLOAD PUSH32 0xF8F21FB2982EFE3A31EC241138D71E8537DB6190870E16A264135221FD47CA73 SSTORE MLOAD PUSH32 0xF8F21FB2982EFE3A31EC241138D71E8537DB6190870E16A264135221FD47CA74 SSTORE SWAP1 MLOAD PUSH32 0xF8F21FB2982EFE3A31EC241138D71E8537DB6190870E16A264135221FD47CA75 SSTORE DUP5 MLOAD DUP1 DUP5 ADD DUP7 MSTORE PUSH2 0xADC DUP2 MSTORE PUSH2 0x1900 DUP2 DUP4 ADD SWAP1 DUP2 MSTORE PUSH2 0x2FA8 DUP3 DUP9 ADD SWAP1 DUP2 MSTORE PUSH2 0x924 DUP4 DUP7 ADD SWAP1 DUP2 MSTORE PUSH1 0x7 DUP11 MSTORE DUP8 DUP6 MSTORE SWAP3 MLOAD PUSH32 0xBB8A2F0AC13B9BAA5E84CA5EB0BE8970E3AB8DED6B76A62C4F70DE103E57E8B9 SSTORE SWAP1 MLOAD PUSH32 0xBB8A2F0AC13B9BAA5E84CA5EB0BE8970E3AB8DED6B76A62C4F70DE103E57E8BA SSTORE MLOAD PUSH32 0xBB8A2F0AC13B9BAA5E84CA5EB0BE8970E3AB8DED6B76A62C4F70DE103E57E8BB SSTORE MLOAD PUSH32 0xBB8A2F0AC13B9BAA5E84CA5EB0BE8970E3AB8DED6B76A62C4F70DE103E57E8BC SSTORE DUP5 MLOAD SWAP3 DUP4 ADD DUP6 MSTORE PUSH2 0x690 DUP4 MSTORE PUSH2 0xE60 DUP4 DUP3 ADD SWAP1 DUP2 MSTORE PUSH2 0x758 SWAP6 DUP5 ADD SWAP6 DUP7 MSTORE PUSH2 0x550 SWAP3 DUP5 ADD SWAP3 DUP4 MSTORE PUSH1 0x8 SWAP1 SWAP7 MSTORE SWAP3 SWAP1 SWAP3 MSTORE MLOAD PUSH32 0x5E00771A5085B4C5E233DC09115168874841C99F1DFE99703953D33B7F3B6342 SSTORE SWAP2 MLOAD PUSH32 0x5E00771A5085B4C5E233DC09115168874841C99F1DFE99703953D33B7F3B6343 SSTORE MLOAD PUSH32 0x5E00771A5085B4C5E233DC09115168874841C99F1DFE99703953D33B7F3B6344 SSTORE MLOAD PUSH32 0x5E00771A5085B4C5E233DC09115168874841C99F1DFE99703953D33B7F3B6345 SSTORE POP PUSH1 0x6 DUP1 SLOAD PUSH1 0x1 PUSH1 0x1 PUSH1 0xA0 SHL SUB NOT AND CALLER OR SWAP1 SSTORE PUSH3 0x792 JUMP JUMPDEST PUSH1 0x0 PUSH1 0x20 DUP3 DUP5 SUB SLT ISZERO PUSH3 0x773 JUMPI PUSH1 0x0 DUP1 REVERT JUMPDEST DUP2 MLOAD PUSH1 0x1 PUSH1 0x1 PUSH1 0xA0 SHL SUB DUP2 AND DUP2 EQ PUSH3 0x78B JUMPI PUSH1 0x0 DUP1 REVERT JUMPDEST SWAP4 SWAP3 POP POP POP JUMP JUMPDEST PUSH2 0x3C2B DUP1 PUSH3 0x7A2 PUSH1 0x0 CODECOPY PUSH1 0x0 RETURN INVALID PUSH1 0x80 PUSH1 0x40 MSTORE CALLVALUE DUP1 ISZERO PUSH2 0x10 JUMPI PUSH1 0x0 DUP1 REVERT JUMPDEST POP PUSH1 0x4 CALLDATASIZE LT PUSH2 0x25C JUMPI PUSH1 0x0 CALLDATALOAD PUSH1 0xE0 SHR DUP1 PUSH4 0x8C87FA4F GT PUSH2 0x145 JUMPI DUP1 PUSH4 0xDAA17F49 GT PUSH2 0xBD JUMPI DUP1 PUSH4 0xE9DD6583 GT PUSH2 0x8C JUMPI DUP1 PUSH4 0xF89D7571 GT PUSH2 0x71 JUMPI DUP1 PUSH4 0xF89D7571 EQ PUSH2 0x6F5 JUMPI DUP1 PUSH4 0xF9C64454 EQ PUSH2 0x708 JUMPI DUP1 PUSH4 0xFAE92612 EQ PUSH2 0x71E JUMPI PUSH1 0x0 DUP1 REVERT JUMPDEST DUP1 PUSH4 0xE9DD6583 EQ PUSH2 0x6CF JUMPI DUP1 PUSH4 0xF3245254 EQ PUSH2 0x6E2 JUMPI PUSH1 0x0 DUP1 REVERT JUMPDEST DUP1 PUSH4 0xDAA17F49 EQ PUSH2 0x67E JUMPI DUP1 PUSH4 0xDD4B466B EQ PUSH2 0x691 JUMPI DUP1 PUSH4 0xDECC1BBF EQ PUSH2 0x6A4 JUMPI DUP1 PUSH4 0xE3198E08 EQ PUSH2 0x6AC JUMPI PUSH1 0x0 DUP1 REVERT JUMPDEST DUP1 PUSH4 0xA596B645 GT PUSH2 0x114 JUMPI DUP1 PUSH4 0xBDC7DA8E GT PUSH2 0xF9 JUMPI DUP1 PUSH4 0xBDC7DA8E EQ PUSH2 0x620 JUMPI DUP1 PUSH4 0xBE9A263C EQ PUSH2 0x629 JUMPI DUP1 PUSH4 0xC1712D57 EQ PUSH2 0x649 JUMPI PUSH1 0x0 DUP1 REVERT JUMPDEST DUP1 PUSH4 0xA596B645 EQ PUSH2 0x5EA JUMPI DUP1 PUSH4 0xBD638378 EQ PUSH2 0x600 JUMPI PUSH1 0x0 DUP1 REVERT JUMPDEST DUP1 PUSH4 0x8C87FA4F EQ PUSH2 0x47D JUMPI DUP1 PUSH4 0x8DA5CB5B EQ PUSH2 0x493 JUMPI DUP1 PUSH4 0x9B562DF2 EQ PUSH2 0x4A6 JUMPI DUP1 PUSH4 0xA2F9CC5B EQ PUSH2 0x59B JUMPI PUSH1 0x0 DUP1 REVERT JUMPDEST DUP1 PUSH4 0x537E8F49 GT PUSH2 0x1D8 JUMPI DUP1 PUSH4 0x620A9A99 GT PUSH2 0x1A7 JUMPI DUP1 PUSH4 0x7CCA26D9 GT PUSH2 0x18C JUMPI DUP1 PUSH4 0x7CCA26D9 EQ PUSH2 0x429 JUMPI DUP1 PUSH4 0x800BFA27 EQ PUSH2 0x43C JUMPI DUP1 PUSH4 0x887ACA72 EQ PUSH2 0x452 JUMPI PUSH1 0x0 DUP1 REVERT JUMPDEST DUP1 PUSH4 0x620A9A99 EQ PUSH2 0x400 JUMPI DUP1 PUSH4 0x7659BC60 EQ PUSH2 0x416 JUMPI PUSH1 0x0 DUP1 REVERT JUMPDEST DUP1 PUSH4 0x537E8F49 EQ PUSH2 0x371 JUMPI DUP1 PUSH4 0x5D219D5F EQ PUSH2 0x3A7 JUMPI DUP1 PUSH4 0x5E75968E EQ PUSH2 0x3BA JUMPI DUP1 PUSH4 0x60B76B52 EQ PUSH2 0x3ED JUMPI PUSH1 0x0 DUP1 REVERT JUMPDEST DUP1 PUSH4 0x351662E4 GT PUSH2 0x22F JUMPI DUP1 PUSH4 0x41EDE44F GT PUSH2 0x214 JUMPI DUP1 PUSH4 0x41EDE44F EQ PUSH2 0x300 JUMPI DUP1 PUSH4 0x4274B164 EQ PUSH2 0x333 JUMPI DUP1 PUSH4 0x4F264B03 EQ PUSH2 0x346 JUMPI PUSH1 0x0 DUP1 REVERT JUMPDEST DUP1 PUSH4 0x351662E4 EQ PUSH2 0x2DA JUMPI DUP1 PUSH4 0x3E5F2857 EQ PUSH2 0x2ED JUMPI PUSH1 0x0 DUP1 REVERT JUMPDEST DUP1 PUSH4 0x7722BC2 EQ PUSH2 0x261 JUMPI DUP1 PUSH4 0xEE22F31 EQ PUSH2 0x276 JUMPI DUP1 PUSH4 0x2A490AE8 EQ PUSH2 0x289 JUMPI DUP1 PUSH4 0x2EF78865 EQ PUSH2 0x2AF JUMPI JUMPDEST PUSH1 0x0 DUP1 REVERT JUMPDEST PUSH2 0x274 PUSH2 0x26F CALLDATASIZE PUSH1 0x4 PUSH2 0x35C1 JUMP JUMPDEST PUSH2 0x731 JUMP JUMPDEST STOP JUMPDEST PUSH2 0x274 PUSH2 0x284 CALLDATASIZE PUSH1 0x4 PUSH2 0x3612 JUMP JUMPDEST PUSH2 0x9DD JUMP JUMPDEST PUSH2 0x29C PUSH2 0x297 CALLDATASIZE PUSH1 0x4 PUSH2 0x3683 JUMP JUMPDEST PUSH2 0xF5F JUMP JUMPDEST PUSH1 0x40 MLOAD SWAP1 DUP2 MSTORE PUSH1 0x20 ADD JUMPDEST PUSH1 0x40 MLOAD DUP1 SWAP2 SUB SWAP1 RETURN JUMPDEST PUSH2 0x29C PUSH2 0x2BD CALLDATASIZE PUSH1 0x4 PUSH2 0x3683 JUMP JUMPDEST PUSH1 0x5 PUSH1 0x20 SWAP1 DUP2 MSTORE PUSH1 0x0 SWAP3 DUP4 MSTORE PUSH1 0x40 DUP1 DUP5 KECCAK256 SWAP1 SWAP2 MSTORE SWAP1 DUP3 MSTORE SWAP1 KECCAK256 SLOAD DUP2 JUMP JUMPDEST PUSH2 0x274 PUSH2 0x2E8 CALLDATASIZE PUSH1 0x4 PUSH2 0x36BC JUMP JUMPDEST PUSH2 0xF76 JUMP JUMPDEST PUSH2 0x274 PUSH2 0x2FB CALLDATASIZE PUSH1 0x4 PUSH2 0x3707 JUMP JUMPDEST PUSH2 0x14CA JUMP JUMPDEST PUSH2 0x29C PUSH2 0x30E CALLDATASIZE PUSH1 0x4 PUSH2 0x3683 JUMP JUMPDEST PUSH1 0xFF SWAP2 DUP3 AND PUSH1 0x0 SWAP1 DUP2 MSTORE PUSH1 0x2 PUSH1 0x20 SWAP1 DUP2 MSTORE PUSH1 0x40 DUP1 DUP4 KECCAK256 SWAP4 SWAP1 SWAP5 AND DUP3 MSTORE SWAP2 SWAP1 SWAP2 MSTORE KECCAK256 SLOAD SWAP1 JUMP JUMPDEST PUSH2 0x274 PUSH2 0x341 CALLDATASIZE PUSH1 0x4 PUSH2 0x35C1 JUMP JUMPDEST PUSH2 0x1B5C JUMP JUMPDEST PUSH1 0x0 SLOAD PUSH2 0x359 SWAP1 PUSH1 0x1 PUSH1 0x1 PUSH1 0xA0 SHL SUB AND DUP2 JUMP JUMPDEST PUSH1 0x40 MLOAD PUSH1 0x1 PUSH1 0x1 PUSH1 0xA0 SHL SUB SWAP1 SWAP2 AND DUP2 MSTORE PUSH1 0x20 ADD PUSH2 0x2A6 JUMP JUMPDEST PUSH1 0x14 SLOAD PUSH1 0x15 SLOAD PUSH1 0x16 SLOAD PUSH1 0x17 SLOAD PUSH2 0x387 SWAP4 SWAP3 SWAP2 SWAP1 DUP5 JUMP JUMPDEST PUSH1 0x40 DUP1 MLOAD SWAP5 DUP6 MSTORE PUSH1 0x20 DUP6 ADD SWAP4 SWAP1 SWAP4 MSTORE SWAP2 DUP4 ADD MSTORE PUSH1 0x60 DUP3 ADD MSTORE PUSH1 0x80 ADD PUSH2 0x2A6 JUMP JUMPDEST PUSH2 0x274 PUSH2 0x3B5 CALLDATASIZE PUSH1 0x4 PUSH2 0x377B JUMP JUMPDEST PUSH2 0x1DE8 JUMP JUMPDEST PUSH2 0x3DD PUSH2 0x3C8 CALLDATASIZE PUSH1 0x4 PUSH2 0x377B JUMP JUMPDEST PUSH1 0x4 PUSH1 0x20 MSTORE PUSH1 0x0 SWAP1 DUP2 MSTORE PUSH1 0x40 SWAP1 KECCAK256 SLOAD PUSH1 0xFF AND DUP2 JUMP JUMPDEST PUSH1 0x40 MLOAD SWAP1 ISZERO ISZERO DUP2 MSTORE PUSH1 0x20 ADD PUSH2 0x2A6 JUMP JUMPDEST PUSH2 0x274 PUSH2 0x3FB CALLDATASIZE PUSH1 0x4 PUSH2 0x379F JUMP JUMPDEST PUSH2 0x1E62 JUMP JUMPDEST PUSH1 0x8 SLOAD PUSH1 0x9 SLOAD PUSH1 0xA SLOAD PUSH1 0xB SLOAD PUSH2 0x387 SWAP4 SWAP3 SWAP2 SWAP1 DUP5 JUMP JUMPDEST PUSH2 0x274 PUSH2 0x424 CALLDATASIZE PUSH1 0x4 PUSH2 0x3683 JUMP JUMPDEST PUSH2 0x20F7 JUMP JUMPDEST PUSH1 0x1 SLOAD PUSH2 0x359 SWAP1 PUSH1 0x1 PUSH1 0x1 PUSH1 0xA0 SHL SUB AND DUP2 JUMP JUMPDEST PUSH1 0x10 SLOAD PUSH1 0x11 SLOAD PUSH1 0x12 SLOAD PUSH1 0x13 SLOAD PUSH2 0x387 SWAP4 SWAP3 SWAP2 SWAP1 DUP5 JUMP JUMPDEST PUSH2 0x29C PUSH2 0x460 CALLDATASIZE PUSH1 0x4 PUSH2 0x3683 JUMP JUMPDEST PUSH1 0x2 PUSH1 0x20 SWAP1 DUP2 MSTORE PUSH1 0x0 SWAP3 DUP4 MSTORE PUSH1 0x40 DUP1 DUP5 KECCAK256 SWAP1 SWAP2 MSTORE SWAP1 DUP3 MSTORE SWAP1 KECCAK256 SLOAD DUP2 JUMP JUMPDEST PUSH1 0xC SLOAD PUSH1 0xD SLOAD PUSH1 0xE SLOAD PUSH1 0xF SLOAD PUSH2 0x387 SWAP4 SWAP3 SWAP2 SWAP1 DUP5 JUMP JUMPDEST PUSH1 0x6 SLOAD PUSH2 0x359 SWAP1 PUSH1 0x1 PUSH1 0x1 PUSH1 0xA0 SHL SUB AND DUP2 JUMP JUMPDEST PUSH2 0x587 PUSH2 0x4B4 CALLDATASIZE PUSH1 0x4 PUSH2 0x3683 JUMP JUMPDEST PUSH1 0x20 DUP1 DUP1 MSTORE PUSH1 0x0 SWAP3 DUP4 MSTORE PUSH1 0x40 DUP1 DUP5 KECCAK256 DUP3 MSTORE SWAP2 DUP4 MSTORE SWAP2 DUP2 SWAP1 KECCAK256 DUP2 MLOAD PUSH1 0x80 DUP1 DUP3 ADD DUP5 MSTORE DUP3 SLOAD DUP3 MSTORE PUSH1 0x1 DUP4 ADD SLOAD DUP3 DUP7 ADD MSTORE PUSH1 0x2 DUP4 ADD SLOAD DUP3 DUP6 ADD MSTORE PUSH1 0x3 DUP4 ADD SLOAD PUSH1 0x60 DUP1 DUP5 ADD SWAP2 SWAP1 SWAP2 MSTORE PUSH1 0x4 DUP5 ADD SLOAD PUSH1 0x5 DUP6 ADD SLOAD PUSH1 0x6 DUP7 ADD SLOAD PUSH1 0x7 DUP8 ADD SLOAD DUP9 MLOAD PUSH1 0xC0 DUP2 ADD DUP11 MSTORE PUSH1 0x8 DUP10 ADD SLOAD DUP2 MSTORE PUSH1 0x9 DUP10 ADD SLOAD DUP2 DUP13 ADD MSTORE PUSH1 0xA DUP10 ADD SLOAD DUP2 DUP12 ADD MSTORE PUSH1 0xB DUP10 ADD SLOAD SWAP6 DUP2 ADD SWAP6 SWAP1 SWAP6 MSTORE PUSH1 0xC DUP9 ADD SLOAD SWAP6 DUP6 ADD SWAP6 SWAP1 SWAP6 MSTORE PUSH1 0xD DUP8 ADD SLOAD PUSH1 0xA0 DUP6 ADD MSTORE DUP8 MLOAD DUP1 DUP10 ADD SWAP1 SWAP9 MSTORE PUSH1 0xE DUP8 ADD SLOAD PUSH1 0xFF DUP1 DUP3 AND DUP11 MSTORE PUSH2 0x100 SWAP1 SWAP2 DIV AND SWAP9 DUP9 ADD SWAP9 SWAP1 SWAP9 MSTORE PUSH1 0xF SWAP1 SWAP6 ADD SLOAD SWAP4 SWAP7 PUSH2 0xFFFF SWAP2 DUP3 AND SWAP7 SWAP2 AND SWAP4 DUP9 JUMP JUMPDEST PUSH1 0x40 MLOAD PUSH2 0x2A6 SWAP9 SWAP8 SWAP7 SWAP6 SWAP5 SWAP4 SWAP3 SWAP2 SWAP1 PUSH2 0x37FB JUMP JUMPDEST PUSH2 0x5D8 PUSH2 0x5A9 CALLDATASIZE PUSH1 0x4 PUSH2 0x379F JUMP JUMPDEST PUSH1 0x21 PUSH1 0x20 SWAP1 DUP2 MSTORE PUSH1 0x0 SWAP5 DUP6 MSTORE PUSH1 0x40 DUP1 DUP7 KECCAK256 DUP3 MSTORE SWAP4 DUP6 MSTORE DUP4 DUP6 KECCAK256 DUP2 MSTORE SWAP2 DUP5 MSTORE DUP3 DUP5 KECCAK256 SWAP1 SWAP2 MSTORE DUP3 MSTORE SWAP1 KECCAK256 SLOAD PUSH1 0xFF AND DUP2 JUMP JUMPDEST PUSH1 0x40 MLOAD PUSH1 0xFF SWAP1 SWAP2 AND DUP2 MSTORE PUSH1 0x20 ADD PUSH2 0x2A6 JUMP JUMPDEST PUSH1 0x18 SLOAD PUSH1 0x19 SLOAD PUSH1 0x1A SLOAD PUSH1 0x1B SLOAD PUSH2 0x387 SWAP4 SWAP3 SWAP2 SWAP1 DUP5 JUMP JUMPDEST PUSH2 0x613 PUSH2 0x60E CALLDATASIZE PUSH1 0x4 PUSH2 0x3683 JUMP JUMPDEST PUSH2 0x217E JUMP JUMPDEST PUSH1 0x40 MLOAD PUSH2 0x2A6 SWAP2 SWAP1 PUSH2 0x38B7 JUMP JUMPDEST PUSH2 0x29C PUSH2 0x3E8 DUP2 JUMP JUMPDEST PUSH2 0x63C PUSH2 0x637 CALLDATASIZE PUSH1 0x4 PUSH2 0x3683 JUMP JUMPDEST PUSH2 0x22D2 JUMP JUMPDEST PUSH1 0x40 MLOAD PUSH2 0x2A6 SWAP2 SWAP1 PUSH2 0x3973 JUMP JUMPDEST PUSH2 0x387 PUSH2 0x657 CALLDATASIZE PUSH1 0x4 PUSH2 0x39D8 JUMP JUMPDEST PUSH1 0x22 PUSH1 0x20 MSTORE PUSH1 0x0 SWAP1 DUP2 MSTORE PUSH1 0x40 SWAP1 KECCAK256 DUP1 SLOAD PUSH1 0x1 DUP3 ADD SLOAD PUSH1 0x2 DUP4 ADD SLOAD PUSH1 0x3 SWAP1 SWAP4 ADD SLOAD SWAP2 SWAP3 SWAP1 SWAP2 DUP5 JUMP JUMPDEST PUSH1 0x7 SLOAD PUSH2 0x359 SWAP1 PUSH1 0x1 PUSH1 0x1 PUSH1 0xA0 SHL SUB AND DUP2 JUMP JUMPDEST PUSH2 0x274 PUSH2 0x69F CALLDATASIZE PUSH1 0x4 PUSH2 0x3683 JUMP JUMPDEST PUSH2 0x245C JUMP JUMPDEST PUSH2 0x5D8 PUSH1 0x9 DUP2 JUMP JUMPDEST PUSH2 0x3DD PUSH2 0x6BA CALLDATASIZE PUSH1 0x4 PUSH2 0x377B JUMP JUMPDEST PUSH1 0x3 PUSH1 0x20 MSTORE PUSH1 0x0 SWAP1 DUP2 MSTORE PUSH1 0x40 SWAP1 KECCAK256 SLOAD PUSH1 0xFF AND DUP2 JUMP JUMPDEST PUSH2 0x274 PUSH2 0x6DD CALLDATASIZE PUSH1 0x4 PUSH2 0x39F5 JUMP JUMPDEST PUSH2 0x25CD JUMP JUMPDEST PUSH2 0x29C PUSH2 0x6F0 CALLDATASIZE PUSH1 0x4 PUSH2 0x3683 JUMP JUMPDEST PUSH2 0x2B9E JUMP JUMPDEST PUSH2 0x274 PUSH2 0x703 CALLDATASIZE PUSH1 0x4 PUSH2 0x35C1 JUMP JUMPDEST PUSH2 0x2D3B JUMP JUMPDEST PUSH1 0x1C SLOAD PUSH1 0x1D SLOAD PUSH1 0x1E SLOAD PUSH1 0x1F SLOAD PUSH2 0x387 SWAP4 SWAP3 SWAP2 SWAP1 DUP5 JUMP JUMPDEST PUSH2 0x274 PUSH2 0x72C CALLDATASIZE PUSH1 0x4 PUSH2 0x377B JUMP JUMPDEST PUSH2 0x3180 JUMP JUMPDEST PUSH1 0x0 SLOAD PUSH1 0x40 MLOAD PUSH4 0x8A888953 PUSH1 0xE0 SHL DUP2 MSTORE PUSH1 0xFF DUP1 DUP8 AND PUSH1 0x4 DUP4 ADD MSTORE DUP6 AND PUSH1 0x24 DUP3 ADD MSTORE DUP6 SWAP2 DUP6 SWAP2 CALLER SWAP2 PUSH1 0x1 PUSH1 0x1 PUSH1 0xA0 SHL SUB AND SWAP1 PUSH4 0x8A888953 SWAP1 PUSH1 0x44 ADD PUSH1 0x20 PUSH1 0x40 MLOAD DUP1 DUP4 SUB DUP2 DUP7 GAS STATICCALL ISZERO DUP1 ISZERO PUSH2 0x788 JUMPI RETURNDATASIZE PUSH1 0x0 DUP1 RETURNDATACOPY RETURNDATASIZE PUSH1 0x0 REVERT JUMPDEST POP POP POP POP PUSH1 0x40 MLOAD RETURNDATASIZE PUSH1 0x1F NOT PUSH1 0x1F DUP3 ADD AND DUP3 ADD DUP1 PUSH1 0x40 MSTORE POP DUP2 ADD SWAP1 PUSH2 0x7AC SWAP2 SWAP1 PUSH2 0x3A1C JUMP JUMPDEST PUSH1 0x1 PUSH1 0x1 PUSH1 0xA0 SHL SUB AND EQ PUSH2 0x7ED JUMPI PUSH1 0x40 MLOAD PUSH3 0x461BCD PUSH1 0xE5 SHL DUP2 MSTORE PUSH1 0x20 PUSH1 0x4 DUP3 ADD MSTORE PUSH1 0x3 PUSH1 0x24 DUP3 ADD MSTORE PUSH3 0x37BBB7 PUSH1 0xE9 SHL PUSH1 0x44 DUP3 ADD MSTORE PUSH1 0x64 ADD JUMPDEST PUSH1 0x40 MLOAD DUP1 SWAP2 SUB SWAP1 REVERT JUMPDEST PUSH1 0x0 DUP4 GT PUSH2 0x83D JUMPI PUSH1 0x40 MLOAD PUSH3 0x461BCD PUSH1 0xE5 SHL DUP2 MSTORE PUSH1 0x20 PUSH1 0x4 DUP3 ADD MSTORE PUSH1 0x1 PUSH1 0x24 DUP3 ADD MSTORE PUSH32 0x7A00000000000000000000000000000000000000000000000000000000000000 PUSH1 0x44 DUP3 ADD MSTORE PUSH1 0x64 ADD PUSH2 0x7E4 JUMP JUMPDEST DUP4 PUSH1 0xFF AND PUSH1 0x1 EQ DUP1 PUSH2 0x852 JUMPI POP DUP4 PUSH1 0xFF AND PUSH1 0x2 EQ JUMPDEST PUSH2 0x89E JUMPI PUSH1 0x40 MLOAD PUSH3 0x461BCD PUSH1 0xE5 SHL DUP2 MSTORE PUSH1 0x20 PUSH1 0x4 DUP3 ADD MSTORE PUSH1 0x1 PUSH1 0x24 DUP3 ADD MSTORE PUSH32 0x7400000000000000000000000000000000000000000000000000000000000000 PUSH1 0x44 DUP3 ADD MSTORE PUSH1 0x64 ADD PUSH2 0x7E4 JUMP JUMPDEST PUSH1 0x0 PUSH2 0x8AC DUP8 DUP8 PUSH1 0x1 PUSH2 0x31FA JUMP JUMPDEST SWAP1 POP PUSH1 0x0 DUP2 GT PUSH2 0x8FE JUMPI PUSH1 0x40 MLOAD PUSH3 0x461BCD PUSH1 0xE5 SHL DUP2 MSTORE PUSH1 0x20 PUSH1 0x4 DUP3 ADD MSTORE PUSH1 0x1 PUSH1 0x24 DUP3 ADD MSTORE PUSH32 0x6100000000000000000000000000000000000000000000000000000000000000 PUSH1 0x44 DUP3 ADD MSTORE PUSH1 0x64 ADD PUSH2 0x7E4 JUMP JUMPDEST PUSH1 0x0 DUP6 PUSH1 0xFF AND PUSH1 0x1 EQ PUSH2 0x912 JUMPI PUSH1 0xC PUSH2 0x915 JUMP JUMPDEST PUSH1 0x8 JUMPDEST PUSH1 0x40 DUP1 MLOAD PUSH1 0x80 DUP2 ADD DUP3 MSTORE DUP3 SLOAD DUP2 MSTORE PUSH1 0x1 DUP4 ADD SLOAD PUSH1 0x20 DUP3 ADD MSTORE PUSH1 0x2 DUP4 ADD SLOAD SWAP2 DUP2 ADD SWAP2 SWAP1 SWAP2 MSTORE PUSH1 0x3 SWAP1 SWAP2 ADD SLOAD PUSH1 0x60 DUP3 ADD MSTORE SWAP1 POP PUSH2 0x953 DUP9 DUP9 DUP4 DUP9 DUP7 PUSH2 0x3295 JUMP JUMPDEST DUP6 PUSH1 0xFF AND PUSH1 0x1 SUB PUSH2 0x99B JUMPI PUSH1 0xFF DUP1 DUP10 AND PUSH1 0x0 SWAP1 DUP2 MSTORE PUSH1 0x20 DUP1 DUP1 MSTORE PUSH1 0x40 DUP1 DUP4 KECCAK256 SWAP4 DUP12 AND DUP4 MSTORE SWAP3 SWAP1 MSTORE SWAP1 DUP2 KECCAK256 PUSH1 0x8 ADD DUP1 SLOAD DUP8 SWAP3 SWAP1 PUSH2 0x990 SWAP1 DUP5 SWAP1 PUSH2 0x3A68 JUMP JUMPDEST SWAP1 SWAP2 SSTORE POP PUSH2 0x9D3 SWAP1 POP JUMP JUMPDEST PUSH1 0xFF DUP1 DUP10 AND PUSH1 0x0 SWAP1 DUP2 MSTORE PUSH1 0x20 DUP1 DUP1 MSTORE PUSH1 0x40 DUP1 DUP4 KECCAK256 SWAP4 DUP12 AND DUP4 MSTORE SWAP3 SWAP1 MSTORE SWAP1 DUP2 KECCAK256 PUSH1 0x9 ADD DUP1 SLOAD DUP8 SWAP3 SWAP1 PUSH2 0x9CD SWAP1 DUP5 SWAP1 PUSH2 0x3A68 JUMP JUMPDEST SWAP1 SWAP2 SSTORE POP POP JUMPDEST POP POP POP POP POP POP POP POP JUMP JUMPDEST PUSH1 0x0 SLOAD PUSH1 0x40 MLOAD PUSH4 0x8A888953 PUSH1 0xE0 SHL DUP2 MSTORE PUSH1 0xFF DUP1 DUP9 AND PUSH1 0x4 DUP4 ADD MSTORE DUP7 AND PUSH1 0x24 DUP3 ADD MSTORE DUP7 SWAP2 DUP7 SWAP2 CALLER SWAP2 PUSH1 0x1 PUSH1 0x1 PUSH1 0xA0 SHL SUB AND SWAP1 PUSH4 0x8A888953 SWAP1 PUSH1 0x44 ADD PUSH1 0x20 PUSH1 0x40 MLOAD DUP1 DUP4 SUB DUP2 DUP7 GAS STATICCALL ISZERO DUP1 ISZERO PUSH2 0xA34 JUMPI RETURNDATASIZE PUSH1 0x0 DUP1 RETURNDATACOPY RETURNDATASIZE PUSH1 0x0 REVERT JUMPDEST POP POP POP POP PUSH1 0x40 MLOAD RETURNDATASIZE PUSH1 0x1F NOT PUSH1 0x1F DUP3 ADD AND DUP3 ADD DUP1 PUSH1 0x40 MSTORE POP DUP2 ADD SWAP1 PUSH2 0xA58 SWAP2 SWAP1 PUSH2 0x3A1C JUMP JUMPDEST PUSH1 0x1 PUSH1 0x1 PUSH1 0xA0 SHL SUB AND EQ PUSH2 0xA94 JUMPI PUSH1 0x40 MLOAD PUSH3 0x461BCD PUSH1 0xE5 SHL DUP2 MSTORE PUSH1 0x20 PUSH1 0x4 DUP3 ADD MSTORE PUSH1 0x3 PUSH1 0x24 DUP3 ADD MSTORE PUSH3 0x37BBB7 PUSH1 0xE9 SHL PUSH1 0x44 DUP3 ADD MSTORE PUSH1 0x64 ADD PUSH2 0x7E4 JUMP JUMPDEST DUP5 DUP5 PUSH1 0x9 PUSH1 0xFF DUP4 AND LT DUP1 ISZERO PUSH2 0xAAC JUMPI POP PUSH1 0x9 PUSH1 0xFF DUP3 AND LT JUMPDEST PUSH2 0xAF8 JUMPI PUSH1 0x40 MLOAD PUSH3 0x461BCD PUSH1 0xE5 SHL DUP2 MSTORE PUSH1 0x20 PUSH1 0x4 DUP3 ADD MSTORE PUSH1 0x5 PUSH1 0x24 DUP3 ADD MSTORE PUSH32 0x636F6F7264000000000000000000000000000000000000000000000000000000 PUSH1 0x44 DUP3 ADD MSTORE PUSH1 0x64 ADD PUSH2 0x7E4 JUMP JUMPDEST DUP7 PUSH1 0xFF AND PUSH1 0x4 EQ DUP1 ISZERO PUSH2 0xB0E JUMPI POP DUP6 PUSH1 0xFF AND PUSH1 0x4 EQ JUMPDEST ISZERO PUSH2 0xB5B JUMPI PUSH1 0x40 MLOAD PUSH3 0x461BCD PUSH1 0xE5 SHL DUP2 MSTORE PUSH1 0x20 PUSH1 0x4 DUP3 ADD MSTORE PUSH1 0x1 PUSH1 0x24 DUP3 ADD MSTORE PUSH32 0x6300000000000000000000000000000000000000000000000000000000000000 PUSH1 0x44 DUP3 ADD MSTORE PUSH1 0x64 ADD PUSH2 0x7E4 JUMP JUMPDEST PUSH1 0xFF DUP1 DUP11 AND PUSH1 0x0 SWAP1 DUP2 MSTORE PUSH1 0x21 PUSH1 0x20 SWAP1 DUP2 MSTORE PUSH1 0x40 DUP1 DUP4 KECCAK256 DUP13 DUP6 AND DUP5 MSTORE DUP3 MSTORE DUP1 DUP4 KECCAK256 DUP12 DUP6 AND DUP5 MSTORE DUP3 MSTORE DUP1 DUP4 KECCAK256 DUP11 DUP6 AND DUP5 MSTORE SWAP1 SWAP2 MSTORE SWAP1 KECCAK256 SLOAD AND DUP1 ISZERO PUSH2 0xBDF JUMPI PUSH1 0x40 MLOAD PUSH3 0x461BCD PUSH1 0xE5 SHL DUP2 MSTORE PUSH1 0x20 PUSH1 0x4 DUP3 ADD MSTORE PUSH1 0x1 PUSH1 0x24 DUP3 ADD MSTORE PUSH32 0x6500000000000000000000000000000000000000000000000000000000000000 PUSH1 0x44 DUP3 ADD MSTORE PUSH1 0x64 ADD PUSH2 0x7E4 JUMP JUMPDEST DUP6 PUSH1 0xFF AND PUSH1 0x3 SUB PUSH2 0xC62 JUMPI PUSH2 0xBF6 DUP11 DUP11 PUSH1 0x3 PUSH2 0x31FA JUMP JUMPDEST ISZERO PUSH2 0xC43 JUMPI PUSH1 0x40 MLOAD PUSH3 0x461BCD PUSH1 0xE5 SHL DUP2 MSTORE PUSH1 0x20 PUSH1 0x4 DUP3 ADD MSTORE PUSH1 0x1 PUSH1 0x24 DUP3 ADD MSTORE PUSH32 0x6300000000000000000000000000000000000000000000000000000000000000 PUSH1 0x44 DUP3 ADD MSTORE PUSH1 0x64 ADD PUSH2 0x7E4 JUMP JUMPDEST CALLER PUSH1 0x0 SWAP1 DUP2 MSTORE PUSH1 0x3 PUSH1 0x20 MSTORE PUSH1 0x40 SWAP1 KECCAK256 DUP1 SLOAD PUSH1 0xFF NOT AND PUSH1 0x1 OR SWAP1 SSTORE PUSH2 0xCE1 JUMP JUMPDEST DUP6 PUSH1 0xFF AND PUSH1 0x6 SUB PUSH2 0xCE1 JUMPI PUSH2 0xC79 DUP11 DUP11 PUSH1 0x6 PUSH2 0x31FA JUMP JUMPDEST ISZERO PUSH2 0xCC6 JUMPI PUSH1 0x40 MLOAD PUSH3 0x461BCD PUSH1 0xE5 SHL DUP2 MSTORE PUSH1 0x20 PUSH1 0x4 DUP3 ADD MSTORE PUSH1 0x1 PUSH1 0x24 DUP3 ADD MSTORE PUSH32 0x6D00000000000000000000000000000000000000000000000000000000000000 PUSH1 0x44 DUP3 ADD MSTORE PUSH1 0x64 ADD PUSH2 0x7E4 JUMP JUMPDEST CALLER PUSH1 0x0 SWAP1 DUP2 MSTORE PUSH1 0x4 PUSH1 0x20 MSTORE PUSH1 0x40 SWAP1 KECCAK256 DUP1 SLOAD PUSH1 0xFF NOT AND PUSH1 0x1 OR SWAP1 SSTORE JUMPDEST PUSH1 0xFF DUP1 DUP8 AND PUSH1 0x0 SWAP1 DUP2 MSTORE PUSH1 0x22 PUSH1 0x20 SWAP1 DUP2 MSTORE PUSH1 0x40 DUP1 DUP4 KECCAK256 DUP2 MLOAD PUSH1 0x80 DUP2 ADD DUP4 MSTORE DUP2 SLOAD DUP2 MSTORE PUSH1 0x1 DUP3 ADD SLOAD DUP2 DUP6 ADD MSTORE PUSH1 0x2 DUP3 ADD SLOAD DUP2 DUP5 ADD MSTORE PUSH1 0x3 SWAP1 SWAP2 ADD SLOAD PUSH1 0x60 DUP3 ADD MSTORE DUP15 DUP6 AND DUP5 MSTORE DUP3 DUP1 MSTORE DUP2 DUP5 KECCAK256 SWAP5 DUP15 AND DUP5 MSTORE SWAP4 SWAP1 SWAP2 MSTORE SWAP1 KECCAK256 DUP2 MLOAD DUP2 SLOAD LT ISZERO PUSH2 0xD88 JUMPI PUSH1 0x40 MLOAD PUSH3 0x461BCD PUSH1 0xE5 SHL DUP2 MSTORE PUSH1 0x20 PUSH1 0x4 DUP3 ADD MSTORE PUSH1 0x1 PUSH1 0x24 DUP3 ADD MSTORE PUSH32 0x6600000000000000000000000000000000000000000000000000000000000000 PUSH1 0x44 DUP3 ADD MSTORE PUSH1 0x64 ADD PUSH2 0x7E4 JUMP JUMPDEST PUSH1 0x20 DUP3 ADD MLOAD PUSH1 0x1 DUP3 ADD SLOAD LT ISZERO PUSH2 0xDE0 JUMPI PUSH1 0x40 MLOAD PUSH3 0x461BCD PUSH1 0xE5 SHL DUP2 MSTORE PUSH1 0x20 PUSH1 0x4 DUP3 ADD MSTORE PUSH1 0x1 PUSH1 0x24 DUP3 ADD MSTORE PUSH32 0x7700000000000000000000000000000000000000000000000000000000000000 PUSH1 0x44 DUP3 ADD MSTORE PUSH1 0x64 ADD PUSH2 0x7E4 JUMP JUMPDEST PUSH1 0x40 DUP3 ADD MLOAD PUSH1 0x2 DUP3 ADD SLOAD LT ISZERO PUSH2 0xE38 JUMPI PUSH1 0x40 MLOAD PUSH3 0x461BCD PUSH1 0xE5 SHL DUP2 MSTORE PUSH1 0x20 PUSH1 0x4 DUP3 ADD MSTORE PUSH1 0x1 PUSH1 0x24 DUP3 ADD MSTORE PUSH32 0x7300000000000000000000000000000000000000000000000000000000000000 PUSH1 0x44 DUP3 ADD MSTORE PUSH1 0x64 ADD PUSH2 0x7E4 JUMP JUMPDEST PUSH1 0x60 DUP3 ADD MLOAD PUSH1 0x3 DUP3 ADD SLOAD LT ISZERO PUSH2 0xE90 JUMPI PUSH1 0x40 MLOAD PUSH3 0x461BCD PUSH1 0xE5 SHL DUP2 MSTORE PUSH1 0x20 PUSH1 0x4 DUP3 ADD MSTORE PUSH1 0x1 PUSH1 0x24 DUP3 ADD MSTORE PUSH32 0x6900000000000000000000000000000000000000000000000000000000000000 PUSH1 0x44 DUP3 ADD MSTORE PUSH1 0x64 ADD PUSH2 0x7E4 JUMP JUMPDEST DUP2 MLOAD DUP2 SLOAD DUP3 SWAP1 PUSH1 0x0 SWAP1 PUSH2 0xEA4 SWAP1 DUP5 SWAP1 PUSH2 0x3A7B JUMP JUMPDEST SWAP1 SWAP2 SSTORE POP POP PUSH1 0x20 DUP3 ADD MLOAD PUSH1 0x1 DUP3 ADD DUP1 SLOAD PUSH1 0x0 SWAP1 PUSH2 0xEC2 SWAP1 DUP5 SWAP1 PUSH2 0x3A7B JUMP JUMPDEST SWAP1 SWAP2 SSTORE POP POP PUSH1 0x40 DUP3 ADD MLOAD PUSH1 0x2 DUP3 ADD DUP1 SLOAD PUSH1 0x0 SWAP1 PUSH2 0xEE0 SWAP1 DUP5 SWAP1 PUSH2 0x3A7B JUMP JUMPDEST SWAP1 SWAP2 SSTORE POP POP PUSH1 0x60 DUP3 ADD MLOAD PUSH1 0x3 DUP3 ADD DUP1 SLOAD PUSH1 0x0 SWAP1 PUSH2 0xEFE SWAP1 DUP5 SWAP1 PUSH2 0x3A7B JUMP JUMPDEST SWAP1 SWAP2 SSTORE POP POP PUSH1 0xFF DUP13 DUP2 AND PUSH1 0x0 SWAP1 DUP2 MSTORE PUSH1 0x21 PUSH1 0x20 SWAP1 DUP2 MSTORE PUSH1 0x40 DUP1 DUP4 KECCAK256 DUP16 DUP6 AND DUP5 MSTORE DUP3 MSTORE DUP1 DUP4 KECCAK256 DUP15 DUP6 AND DUP5 MSTORE DUP3 MSTORE DUP1 DUP4 KECCAK256 DUP14 DUP6 AND DUP5 MSTORE SWAP1 SWAP2 MSTORE SWAP1 KECCAK256 DUP1 SLOAD PUSH1 0xFF NOT AND SWAP2 DUP11 AND SWAP2 SWAP1 SWAP2 OR SWAP1 SSTORE PUSH2 0xF51 DUP2 DUP14 DUP14 PUSH2 0x3502 JUMP JUMPDEST POP POP POP POP POP POP POP POP POP POP POP POP JUMP JUMPDEST PUSH1 0x0 PUSH2 0xF6D DUP4 DUP4 PUSH1 0x7 PUSH2 0x31FA JUMP JUMPDEST SWAP1 POP JUMPDEST SWAP3 SWAP2 POP POP JUMP JUMPDEST PUSH1 0x0 SLOAD PUSH1 0x40 MLOAD PUSH4 0x8A888953 PUSH1 0xE0 SHL DUP2 MSTORE PUSH1 0xFF DUP1 DUP7 AND PUSH1 0x4 DUP4 ADD MSTORE DUP5 AND PUSH1 0x24 DUP3 ADD MSTORE DUP5 SWAP2 DUP5 SWAP2 CALLER SWAP2 PUSH1 0x1 PUSH1 0x1 PUSH1 0xA0 SHL SUB AND SWAP1 PUSH4 0x8A888953 SWAP1 PUSH1 0x44 ADD PUSH1 0x20 PUSH1 0x40 MLOAD DUP1 DUP4 SUB DUP2 DUP7 GAS STATICCALL ISZERO DUP1 ISZERO PUSH2 0xFCD JUMPI RETURNDATASIZE PUSH1 0x0 DUP1 RETURNDATACOPY RETURNDATASIZE PUSH1 0x0 REVERT JUMPDEST POP POP POP POP PUSH1 0x40 MLOAD RETURNDATASIZE PUSH1 0x1F NOT PUSH1 0x1F DUP3 ADD AND DUP3 ADD DUP1 PUSH1 0x40 MSTORE POP DUP2 ADD SWAP1 PUSH2 0xFF1 SWAP2 SWAP1 PUSH2 0x3A1C JUMP JUMPDEST PUSH1 0x1 PUSH1 0x1 PUSH1 0xA0 SHL SUB AND EQ PUSH2 0x102D JUMPI PUSH1 0x40 MLOAD PUSH3 0x461BCD PUSH1 0xE5 SHL DUP2 MSTORE PUSH1 0x20 PUSH1 0x4 DUP3 ADD MSTORE PUSH1 0x3 PUSH1 0x24 DUP3 ADD MSTORE PUSH3 0x37BBB7 PUSH1 0xE9 SHL PUSH1 0x44 DUP3 ADD MSTORE PUSH1 0x64 ADD PUSH2 0x7E4 JUMP JUMPDEST PUSH1 0xFF DUP1 DUP7 AND PUSH1 0x0 SWAP1 DUP2 MSTORE PUSH1 0x20 DUP1 DUP1 MSTORE PUSH1 0x40 DUP1 DUP4 KECCAK256 DUP9 DUP6 AND DUP5 MSTORE SWAP1 SWAP2 MSTORE DUP2 KECCAK256 SWAP2 PUSH1 0x60 SWAP1 DUP7 AND PUSH1 0x1 SUB PUSH2 0x109E JUMPI POP POP PUSH1 0xE DUP2 ADD SLOAD PUSH1 0x40 DUP1 MLOAD DUP1 DUP3 ADD SWAP1 SWAP2 MSTORE PUSH1 0xD DUP2 MSTORE PUSH32 0x6F6666656E736976655465636800000000000000000000000000000000000000 PUSH1 0x20 DUP3 ADD MSTORE PUSH1 0xFF SWAP1 SWAP2 AND SWAP1 PUSH2 0x113D JUMP JUMPDEST DUP6 PUSH1 0xFF AND PUSH1 0x2 SUB PUSH2 0x10F3 JUMPI POP POP PUSH1 0xE DUP2 ADD SLOAD PUSH1 0x40 DUP1 MLOAD DUP1 DUP3 ADD SWAP1 SWAP2 MSTORE PUSH1 0xD DUP2 MSTORE PUSH32 0x646566656E736976655465636800000000000000000000000000000000000000 PUSH1 0x20 DUP3 ADD MSTORE PUSH2 0x100 SWAP1 SWAP2 DIV PUSH1 0xFF AND SWAP1 PUSH2 0x113D JUMP JUMPDEST PUSH1 0x40 MLOAD PUSH3 0x461BCD PUSH1 0xE5 SHL DUP2 MSTORE PUSH1 0x4 ADD PUSH2 0x7E4 SWAP1 PUSH1 0x20 DUP1 DUP3 MSTORE PUSH1 0x4 SWAP1 DUP3 ADD MSTORE PUSH32 0x7479706500000000000000000000000000000000000000000000000000000000 PUSH1 0x40 DUP3 ADD MSTORE PUSH1 0x60 ADD SWAP1 JUMP JUMPDEST PUSH2 0x2710 DUP3 PUSH1 0xFF AND GT ISZERO PUSH2 0x1192 JUMPI PUSH1 0x40 MLOAD PUSH3 0x461BCD PUSH1 0xE5 SHL DUP2 MSTORE PUSH1 0x20 PUSH1 0x4 DUP3 ADD MSTORE PUSH1 0x1 PUSH1 0x24 DUP3 ADD MSTORE PUSH32 0x6C00000000000000000000000000000000000000000000000000000000000000 PUSH1 0x44 DUP3 ADD MSTORE PUSH1 0x64 ADD PUSH2 0x7E4 JUMP JUMPDEST PUSH1 0x0 PUSH2 0x11A0 DUP10 DUP10 PUSH1 0x8 PUSH2 0x31FA JUMP JUMPDEST SWAP1 POP PUSH1 0x0 DUP2 GT PUSH2 0x11F2 JUMPI PUSH1 0x40 MLOAD PUSH3 0x461BCD PUSH1 0xE5 SHL DUP2 MSTORE PUSH1 0x20 PUSH1 0x4 DUP3 ADD MSTORE PUSH1 0x1 PUSH1 0x24 DUP3 ADD MSTORE PUSH32 0x7700000000000000000000000000000000000000000000000000000000000000 PUSH1 0x44 DUP3 ADD MSTORE PUSH1 0x64 ADD PUSH2 0x7E4 JUMP JUMPDEST PUSH1 0x0 PUSH2 0x11FF DUP5 PUSH1 0x1 PUSH2 0x3A8E JUMP JUMPDEST PUSH2 0x120D SWAP1 PUSH1 0xFF AND PUSH1 0x2 PUSH2 0x3AA7 JUMP JUMPDEST SWAP1 POP PUSH1 0x0 DUP3 PUSH2 0x121D DUP4 PUSH1 0x8C PUSH2 0x3AA7 JUMP JUMPDEST PUSH2 0x1227 SWAP2 SWAP1 PUSH2 0x3AED JUMP JUMPDEST SWAP1 POP PUSH1 0x0 DUP4 PUSH2 0x1237 DUP5 PUSH1 0x78 PUSH2 0x3AA7 JUMP JUMPDEST PUSH2 0x1241 SWAP2 SWAP1 PUSH2 0x3AED JUMP JUMPDEST SWAP1 POP PUSH1 0x0 DUP5 PUSH2 0x1251 DUP6 PUSH1 0xB4 PUSH2 0x3AA7 JUMP JUMPDEST PUSH2 0x125B SWAP2 SWAP1 PUSH2 0x3AED JUMP JUMPDEST SWAP1 POP PUSH1 0x0 DUP6 PUSH2 0x126B DUP7 PUSH1 0x78 PUSH2 0x3AA7 JUMP JUMPDEST PUSH2 0x1275 SWAP2 SWAP1 PUSH2 0x3AED JUMP JUMPDEST DUP10 SLOAD SWAP1 SWAP2 POP DUP5 GT ISZERO PUSH2 0x12C9 JUMPI PUSH1 0x40 MLOAD PUSH3 0x461BCD PUSH1 0xE5 SHL DUP2 MSTORE PUSH1 0x20 PUSH1 0x4 DUP3 ADD MSTORE PUSH1 0x1 PUSH1 0x24 DUP3 ADD MSTORE PUSH32 0x6600000000000000000000000000000000000000000000000000000000000000 PUSH1 0x44 DUP3 ADD MSTORE PUSH1 0x64 ADD PUSH2 0x7E4 JUMP JUMPDEST PUSH1 0x1 DUP10 ADD SLOAD DUP4 GT ISZERO PUSH2 0x131D JUMPI PUSH1 0x40 MLOAD PUSH3 0x461BCD PUSH1 0xE5 SHL DUP2 MSTORE PUSH1 0x20 PUSH1 0x4 DUP3 ADD MSTORE PUSH1 0x1 PUSH1 0x24 DUP3 ADD MSTORE PUSH32 0x7700000000000000000000000000000000000000000000000000000000000000 PUSH1 0x44 DUP3 ADD MSTORE PUSH1 0x64 ADD PUSH2 0x7E4 JUMP JUMPDEST PUSH1 0x2 DUP10 ADD SLOAD DUP3 GT ISZERO PUSH2 0x1371 JUMPI PUSH1 0x40 MLOAD PUSH3 0x461BCD PUSH1 0xE5 SHL DUP2 MSTORE PUSH1 0x20 PUSH1 0x4 DUP3 ADD MSTORE PUSH1 0x1 PUSH1 0x24 DUP3 ADD MSTORE PUSH32 0x7300000000000000000000000000000000000000000000000000000000000000 PUSH1 0x44 DUP3 ADD MSTORE PUSH1 0x64 ADD PUSH2 0x7E4 JUMP JUMPDEST PUSH1 0x3 DUP10 ADD SLOAD DUP2 GT ISZERO PUSH2 0x13C5 JUMPI PUSH1 0x40 MLOAD PUSH3 0x461BCD PUSH1 0xE5 SHL DUP2 MSTORE PUSH1 0x20 PUSH1 0x4 DUP3 ADD MSTORE PUSH1 0x1 PUSH1 0x24 DUP3 ADD MSTORE PUSH32 0x6900000000000000000000000000000000000000000000000000000000000000 PUSH1 0x44 DUP3 ADD MSTORE PUSH1 0x64 ADD PUSH2 0x7E4 JUMP JUMPDEST DUP9 SLOAD DUP5 SWAP1 DUP11 SWAP1 PUSH1 0x0 SWAP1 PUSH2 0x13D9 SWAP1 DUP5 SWAP1 PUSH2 0x3A7B JUMP JUMPDEST SWAP1 SWAP2 SSTORE POP POP PUSH1 0x1 DUP10 ADD DUP1 SLOAD DUP5 SWAP2 SWAP1 PUSH1 0x0 SWAP1 PUSH2 0x13F5 SWAP1 DUP5 SWAP1 PUSH2 0x3A7B JUMP JUMPDEST SWAP1 SWAP2 SSTORE POP POP PUSH1 0x2 DUP10 ADD DUP1 SLOAD DUP4 SWAP2 SWAP1 PUSH1 0x0 SWAP1 PUSH2 0x1411 SWAP1 DUP5 SWAP1 PUSH2 0x3A7B JUMP JUMPDEST SWAP1 SWAP2 SSTORE POP POP PUSH1 0x3 DUP10 ADD DUP1 SLOAD DUP3 SWAP2 SWAP1 PUSH1 0x0 SWAP1 PUSH2 0x142D SWAP1 DUP5 SWAP1 PUSH2 0x3A7B JUMP JUMPDEST SWAP1 SWAP2 SSTORE POP POP PUSH1 0xFF DUP13 AND PUSH1 0x1 SUB PUSH2 0x1470 JUMPI PUSH1 0xE DUP10 ADD DUP1 SLOAD PUSH1 0xFF AND SWAP1 PUSH1 0x0 PUSH2 0x1452 DUP4 PUSH2 0x3B01 JUMP JUMPDEST SWAP2 SWAP1 PUSH2 0x100 EXP DUP2 SLOAD DUP2 PUSH1 0xFF MUL NOT AND SWAP1 DUP4 PUSH1 0xFF AND MUL OR SWAP1 SSTORE POP POP PUSH2 0x14AF JUMP JUMPDEST DUP12 PUSH1 0xFF AND PUSH1 0x2 SUB PUSH2 0x14AF JUMPI PUSH1 0xE DUP10 ADD DUP1 SLOAD PUSH2 0x100 SWAP1 DIV PUSH1 0xFF AND SWAP1 PUSH1 0x1 PUSH2 0x1495 DUP4 PUSH2 0x3B01 JUMP JUMPDEST SWAP2 SWAP1 PUSH2 0x100 EXP DUP2 SLOAD DUP2 PUSH1 0xFF MUL NOT AND SWAP1 DUP4 PUSH1 0xFF AND MUL OR SWAP1 SSTORE POP POP JUMPDEST PUSH2 0x14BA DUP10 DUP16 DUP16 PUSH2 0x3502 JUMP JUMPDEST POP POP POP POP POP POP POP POP POP POP POP POP POP POP JUMP JUMPDEST PUSH1 0x7 SLOAD PUSH1 0x1 PUSH1 0x1 PUSH1 0xA0 SHL SUB AND CALLER EQ PUSH2 0x1524 JUMPI PUSH1 0x40 MLOAD PUSH3 0x461BCD PUSH1 0xE5 SHL DUP2 MSTORE PUSH1 0x20 PUSH1 0x4 DUP3 ADD MSTORE PUSH1 0x1 PUSH1 0x24 DUP3 ADD MSTORE PUSH32 0x6100000000000000000000000000000000000000000000000000000000000000 PUSH1 0x44 DUP3 ADD MSTORE PUSH1 0x64 ADD PUSH2 0x7E4 JUMP JUMPDEST PUSH1 0xFF DUP1 DUP7 AND PUSH1 0x0 SWAP1 DUP2 MSTORE PUSH1 0x20 DUP1 DUP1 MSTORE PUSH1 0x40 DUP1 DUP4 KECCAK256 DUP9 DUP6 AND DUP5 MSTORE SWAP1 SWAP2 MSTORE SWAP1 KECCAK256 SWAP1 DUP5 AND PUSH1 0x1 SUB PUSH2 0x15D6 JUMPI DUP2 ISZERO PUSH2 0x1571 JUMPI DUP1 SLOAD DUP4 SWAP1 DUP3 SWAP1 PUSH1 0x0 SWAP1 PUSH2 0x1566 SWAP1 DUP5 SWAP1 PUSH2 0x3A68 JUMP JUMPDEST SWAP1 SWAP2 SSTORE POP PUSH2 0x1B49 SWAP1 POP JUMP JUMPDEST DUP1 SLOAD DUP4 GT ISZERO PUSH2 0x15C2 JUMPI PUSH1 0x40 MLOAD PUSH3 0x461BCD PUSH1 0xE5 SHL DUP2 MSTORE PUSH1 0x20 PUSH1 0x4 DUP3 ADD MSTORE PUSH1 0x1 PUSH1 0x24 DUP3 ADD MSTORE PUSH32 0x6600000000000000000000000000000000000000000000000000000000000000 PUSH1 0x44 DUP3 ADD MSTORE PUSH1 0x64 ADD PUSH2 0x7E4 JUMP JUMPDEST DUP1 SLOAD DUP4 SWAP1 DUP3 SWAP1 PUSH1 0x0 SWAP1 PUSH2 0x1566 SWAP1 DUP5 SWAP1 PUSH2 0x3A7B JUMP JUMPDEST DUP4 PUSH1 0xFF AND PUSH1 0x2 SUB PUSH2 0x1669 JUMPI DUP2 ISZERO PUSH2 0x15FE JUMPI DUP3 DUP2 PUSH1 0x0 ADD PUSH1 0x1 ADD PUSH1 0x0 DUP3 DUP3 SLOAD PUSH2 0x1566 SWAP2 SWAP1 PUSH2 0x3A68 JUMP JUMPDEST PUSH1 0x1 DUP2 ADD SLOAD DUP4 GT ISZERO PUSH2 0x1652 JUMPI PUSH1 0x40 MLOAD PUSH3 0x461BCD PUSH1 0xE5 SHL DUP2 MSTORE PUSH1 0x20 PUSH1 0x4 DUP3 ADD MSTORE PUSH1 0x1 PUSH1 0x24 DUP3 ADD MSTORE PUSH32 0x7700000000000000000000000000000000000000000000000000000000000000 PUSH1 0x44 DUP3 ADD MSTORE PUSH1 0x64 ADD PUSH2 0x7E4 JUMP JUMPDEST DUP3 DUP2 PUSH1 0x0 ADD PUSH1 0x1 ADD PUSH1 0x0 DUP3 DUP3 SLOAD PUSH2 0x1566 SWAP2 SWAP1 PUSH2 0x3A7B JUMP JUMPDEST DUP4 PUSH1 0xFF AND PUSH1 0x3 SUB PUSH2 0x16FC JUMPI DUP2 ISZERO PUSH2 0x1691 JUMPI DUP3 DUP2 PUSH1 0x0 ADD PUSH1 0x2 ADD PUSH1 0x0 DUP3 DUP3 SLOAD PUSH2 0x1566 SWAP2 SWAP1 PUSH2 0x3A68 JUMP JUMPDEST PUSH1 0x2 DUP2 ADD SLOAD DUP4 GT ISZERO PUSH2 0x16E5 JUMPI PUSH1 0x40 MLOAD PUSH3 0x461BCD PUSH1 0xE5 SHL DUP2 MSTORE PUSH1 0x20 PUSH1 0x4 DUP3 ADD MSTORE PUSH1 0x1 PUSH1 0x24 DUP3 ADD MSTORE PUSH32 0x7300000000000000000000000000000000000000000000000000000000000000 PUSH1 0x44 DUP3 ADD MSTORE PUSH1 0x64 ADD PUSH2 0x7E4 JUMP JUMPDEST DUP3 DUP2 PUSH1 0x0 ADD PUSH1 0x2 ADD PUSH1 0x0 DUP3 DUP3 SLOAD PUSH2 0x1566 SWAP2 SWAP1 PUSH2 0x3A7B JUMP JUMPDEST DUP4 PUSH1 0xFF AND PUSH1 0x4 SUB PUSH2 0x178F JUMPI DUP2 ISZERO PUSH2 0x1724 JUMPI DUP3 DUP2 PUSH1 0x0 ADD PUSH1 0x3 ADD PUSH1 0x0 DUP3 DUP3 SLOAD PUSH2 0x1566 SWAP2 SWAP1 PUSH2 0x3A68 JUMP JUMPDEST PUSH1 0x3 DUP2 ADD SLOAD DUP4 GT ISZERO PUSH2 0x1778 JUMPI PUSH1 0x40 MLOAD PUSH3 0x461BCD PUSH1 0xE5 SHL DUP2 MSTORE PUSH1 0x20 PUSH1 0x4 DUP3 ADD MSTORE PUSH1 0x1 PUSH1 0x24 DUP3 ADD MSTORE PUSH32 0x6900000000000000000000000000000000000000000000000000000000000000 PUSH1 0x44 DUP3 ADD MSTORE PUSH1 0x64 ADD PUSH2 0x7E4 JUMP JUMPDEST DUP3 DUP2 PUSH1 0x0 ADD PUSH1 0x3 ADD PUSH1 0x0 DUP3 DUP3 SLOAD PUSH2 0x1566 SWAP2 SWAP1 PUSH2 0x3A7B JUMP JUMPDEST DUP4 PUSH1 0xFF AND PUSH1 0x5 SUB PUSH2 0x1822 JUMPI DUP2 ISZERO PUSH2 0x17B7 JUMPI DUP3 DUP2 PUSH1 0x8 ADD PUSH1 0x0 ADD PUSH1 0x0 DUP3 DUP3 SLOAD PUSH2 0x1566 SWAP2 SWAP1 PUSH2 0x3A68 JUMP JUMPDEST PUSH1 0x8 DUP2 ADD SLOAD DUP4 GT ISZERO PUSH2 0x180B JUMPI PUSH1 0x40 MLOAD PUSH3 0x461BCD PUSH1 0xE5 SHL DUP2 MSTORE PUSH1 0x20 PUSH1 0x4 DUP3 ADD MSTORE PUSH1 0x2 PUSH1 0x24 DUP3 ADD MSTORE PUSH32 0x6F61000000000000000000000000000000000000000000000000000000000000 PUSH1 0x44 DUP3 ADD MSTORE PUSH1 0x64 ADD PUSH2 0x7E4 JUMP JUMPDEST DUP3 DUP2 PUSH1 0x8 ADD PUSH1 0x0 ADD PUSH1 0x0 DUP3 DUP3 SLOAD PUSH2 0x1566 SWAP2 SWAP1 PUSH2 0x3A7B JUMP JUMPDEST DUP4 PUSH1 0xFF AND PUSH1 0x6 SUB PUSH2 0x18B5 JUMPI DUP2 ISZERO PUSH2 0x184A JUMPI DUP3 DUP2 PUSH1 0x8 ADD PUSH1 0x1 ADD PUSH1 0x0 DUP3 DUP3 SLOAD PUSH2 0x1566 SWAP2 SWAP1 PUSH2 0x3A68 JUMP JUMPDEST PUSH1 0x9 DUP2 ADD SLOAD DUP4 GT ISZERO PUSH2 0x189E JUMPI PUSH1 0x40 MLOAD PUSH3 0x461BCD PUSH1 0xE5 SHL DUP2 MSTORE PUSH1 0x20 PUSH1 0x4 DUP3 ADD MSTORE PUSH1 0x2 PUSH1 0x24 DUP3 ADD MSTORE PUSH32 0x6461000000000000000000000000000000000000000000000000000000000000 PUSH1 0x44 DUP3 ADD MSTORE PUSH1 0x64 ADD PUSH2 0x7E4 JUMP JUMPDEST DUP3 DUP2 PUSH1 0x8 ADD PUSH1 0x1 ADD PUSH1 0x0 DUP3 DUP3 SLOAD PUSH2 0x1566 SWAP2 SWAP1 PUSH2 0x3A7B JUMP JUMPDEST DUP4 PUSH1 0xFF AND PUSH1 0x7 SUB PUSH2 0x1948 JUMPI DUP2 ISZERO PUSH2 0x18DD JUMPI DUP3 DUP2 PUSH1 0x8 ADD PUSH1 0x2 ADD PUSH1 0x0 DUP3 DUP3 SLOAD PUSH2 0x1566 SWAP2 SWAP1 PUSH2 0x3A68 JUMP JUMPDEST PUSH1 0xA DUP2 ADD SLOAD DUP4 GT ISZERO PUSH2 0x1931 JUMPI PUSH1 0x40 MLOAD PUSH3 0x461BCD PUSH1 0xE5 SHL DUP2 MSTORE PUSH1 0x20 PUSH1 0x4 DUP3 ADD MSTORE PUSH1 0x2 PUSH1 0x24 DUP3 ADD MSTORE PUSH32 0x6F77000000000000000000000000000000000000000000000000000000000000 PUSH1 0x44 DUP3 ADD MSTORE PUSH1 0x64 ADD PUSH2 0x7E4 JUMP JUMPDEST DUP3 DUP2 PUSH1 0x8 ADD PUSH1 0x2 ADD PUSH1 0x0 DUP3 DUP3 SLOAD PUSH2 0x1566 SWAP2 SWAP1 PUSH2 0x3A7B JUMP JUMPDEST DUP4 PUSH1 0xFF AND PUSH1 0x8 SUB PUSH2 0x19DB JUMPI DUP2 ISZERO PUSH2 0x1970 JUMPI DUP3 DUP2 PUSH1 0x8 ADD PUSH1 0x3 ADD PUSH1 0x0 DUP3 DUP3 SLOAD PUSH2 0x1566 SWAP2 SWAP1 PUSH2 0x3A68 JUMP JUMPDEST PUSH1 0xB DUP2 ADD SLOAD DUP4 GT ISZERO PUSH2 0x19C4 JUMPI PUSH1 0x40 MLOAD PUSH3 0x461BCD PUSH1 0xE5 SHL DUP2 MSTORE PUSH1 0x20 PUSH1 0x4 DUP3 ADD MSTORE PUSH1 0x2 PUSH1 0x24 DUP3 ADD MSTORE PUSH32 0x6477000000000000000000000000000000000000000000000000000000000000 PUSH1 0x44 DUP3 ADD MSTORE PUSH1 0x64 ADD PUSH2 0x7E4 JUMP JUMPDEST DUP3 DUP2 PUSH1 0x8 ADD PUSH1 0x3 ADD PUSH1 0x0 DUP3 DUP3 SLOAD PUSH2 0x1566 SWAP2 SWAP1 PUSH2 0x3A7B JUMP JUMPDEST DUP4 PUSH1 0xFF AND PUSH1 0x9 SUB PUSH2 0x1A6E JUMPI DUP2 ISZERO PUSH2 0x1A03 JUMPI DUP3 DUP2 PUSH1 0x8 ADD PUSH1 0x4 ADD PUSH1 0x0 DUP3 DUP3 SLOAD PUSH2 0x1566 SWAP2 SWAP1 PUSH2 0x3A68 JUMP JUMPDEST PUSH1 0xC DUP2 ADD SLOAD DUP4 GT ISZERO PUSH2 0x1A57 JUMPI PUSH1 0x40 MLOAD PUSH3 0x461BCD PUSH1 0xE5 SHL DUP2 MSTORE PUSH1 0x20 PUSH1 0x4 DUP3 ADD MSTORE PUSH1 0x2 PUSH1 0x24 DUP3 ADD MSTORE PUSH32 0x6F73000000000000000000000000000000000000000000000000000000000000 PUSH1 0x44 DUP3 ADD MSTORE PUSH1 0x64 ADD PUSH2 0x7E4 JUMP JUMPDEST DUP3 DUP2 PUSH1 0x8 ADD PUSH1 0x4 ADD PUSH1 0x0 DUP3 DUP3 SLOAD PUSH2 0x1566 SWAP2 SWAP1 PUSH2 0x3A7B JUMP JUMPDEST DUP4 PUSH1 0xFF AND PUSH1 0xA SUB PUSH2 0x1B01 JUMPI DUP2 ISZERO PUSH2 0x1A96 JUMPI DUP3 DUP2 PUSH1 0x8 ADD PUSH1 0x5 ADD PUSH1 0x0 DUP3 DUP3 SLOAD PUSH2 0x1566 SWAP2 SWAP1 PUSH2 0x3A68 JUMP JUMPDEST PUSH1 0xD DUP2 ADD SLOAD DUP4 GT ISZERO PUSH2 0x1AEA JUMPI PUSH1 0x40 MLOAD PUSH3 0x461BCD PUSH1 0xE5 SHL DUP2 MSTORE PUSH1 0x20 PUSH1 0x4 DUP3 ADD MSTORE PUSH1 0x2 PUSH1 0x24 DUP3 ADD MSTORE PUSH32 0x6473000000000000000000000000000000000000000000000000000000000000 PUSH1 0x44 DUP3 ADD MSTORE PUSH1 0x64 ADD PUSH2 0x7E4 JUMP JUMPDEST DUP3 DUP2 PUSH1 0x8 ADD PUSH1 0x5 ADD PUSH1 0x0 DUP3 DUP3 SLOAD PUSH2 0x1566 SWAP2 SWAP1 PUSH2 0x3A7B JUMP JUMPDEST PUSH1 0x40 MLOAD PUSH3 0x461BCD PUSH1 0xE5 SHL DUP2 MSTORE PUSH1 0x20 PUSH1 0x4 DUP3 ADD MSTORE PUSH1 0x1 PUSH1 0x24 DUP3 ADD MSTORE PUSH32 0x7400000000000000000000000000000000000000000000000000000000000000 PUSH1 0x44 DUP3 ADD MSTORE PUSH1 0x64 ADD PUSH2 0x7E4 JUMP JUMPDEST PUSH2 0x1B54 DUP2 DUP8 DUP8 PUSH2 0x3502 JUMP JUMPDEST POP POP POP POP POP POP JUMP JUMPDEST PUSH1 0x0 SLOAD PUSH1 0x40 MLOAD PUSH4 0x8A888953 PUSH1 0xE0 SHL DUP2 MSTORE PUSH1 0xFF DUP1 DUP8 AND PUSH1 0x4 DUP4 ADD MSTORE DUP6 AND PUSH1 0x24 DUP3 ADD MSTORE DUP6 SWAP2 DUP6 SWAP2 CALLER SWAP2 PUSH1 0x1 PUSH1 0x1 PUSH1 0xA0 SHL SUB AND SWAP1 PUSH4 0x8A888953 SWAP1 PUSH1 0x44 ADD PUSH1 0x20 PUSH1 0x40 MLOAD DUP1 DUP4 SUB DUP2 DUP7 GAS STATICCALL ISZERO DUP1 ISZERO PUSH2 0x1BB3 JUMPI RETURNDATASIZE PUSH1 0x0 DUP1 RETURNDATACOPY RETURNDATASIZE PUSH1 0x0 REVERT JUMPDEST POP POP POP POP PUSH1 0x40 MLOAD RETURNDATASIZE PUSH1 0x1F NOT PUSH1 0x1F DUP3 ADD AND DUP3 ADD DUP1 PUSH1 0x40 MSTORE POP DUP2 ADD SWAP1 PUSH2 0x1BD7 SWAP2 SWAP1 PUSH2 0x3A1C JUMP JUMPDEST PUSH1 0x1 PUSH1 0x1 PUSH1 0xA0 SHL SUB AND EQ PUSH2 0x1C13 JUMPI PUSH1 0x40 MLOAD PUSH3 0x461BCD PUSH1 0xE5 SHL DUP2 MSTORE PUSH1 0x20 PUSH1 0x4 DUP3 ADD MSTORE PUSH1 0x3 PUSH1 0x24 DUP3 ADD MSTORE PUSH3 0x37BBB7 PUSH1 0xE9 SHL PUSH1 0x44 DUP3 ADD MSTORE PUSH1 0x64 ADD PUSH2 0x7E4 JUMP JUMPDEST PUSH1 0x0 DUP4 GT PUSH2 0x1C63 JUMPI PUSH1 0x40 MLOAD PUSH3 0x461BCD PUSH1 0xE5 SHL DUP2 MSTORE PUSH1 0x20 PUSH1 0x4 DUP3 ADD MSTORE PUSH1 0x1 PUSH1 0x24 DUP3 ADD MSTORE PUSH32 0x7A00000000000000000000000000000000000000000000000000000000000000 PUSH1 0x44 DUP3 ADD MSTORE PUSH1 0x64 ADD PUSH2 0x7E4 JUMP JUMPDEST DUP4 PUSH1 0xFF AND PUSH1 0x1 EQ DUP1 PUSH2 0x1C78 JUMPI POP DUP4 PUSH1 0xFF AND PUSH1 0x2 EQ JUMPDEST PUSH2 0x1CC4 JUMPI PUSH1 0x40 MLOAD PUSH3 0x461BCD PUSH1 0xE5 SHL DUP2 MSTORE PUSH1 0x20 PUSH1 0x4 DUP3 ADD MSTORE PUSH1 0x1 PUSH1 0x24 DUP3 ADD MSTORE PUSH32 0x7400000000000000000000000000000000000000000000000000000000000000 PUSH1 0x44 DUP3 ADD MSTORE PUSH1 0x64 ADD PUSH2 0x7E4 JUMP JUMPDEST PUSH1 0x0 PUSH2 0x1CD2 DUP8 DUP8 PUSH1 0x2 PUSH2 0x31FA JUMP JUMPDEST SWAP1 POP PUSH1 0x0 DUP2 GT PUSH2 0x1D24 JUMPI PUSH1 0x40 MLOAD PUSH3 0x461BCD PUSH1 0xE5 SHL DUP2 MSTORE PUSH1 0x20 PUSH1 0x4 DUP3 ADD MSTORE PUSH1 0x2 PUSH1 0x24 DUP3 ADD MSTORE PUSH32 0x6273000000000000000000000000000000000000000000000000000000000000 PUSH1 0x44 DUP3 ADD MSTORE PUSH1 0x64 ADD PUSH2 0x7E4 JUMP JUMPDEST PUSH1 0x0 DUP6 PUSH1 0xFF AND PUSH1 0x1 EQ PUSH2 0x1D38 JUMPI PUSH1 0x14 PUSH2 0x1D3B JUMP JUMPDEST PUSH1 0x10 JUMPDEST PUSH1 0x40 DUP1 MLOAD PUSH1 0x80 DUP2 ADD DUP3 MSTORE DUP3 SLOAD DUP2 MSTORE PUSH1 0x1 DUP4 ADD SLOAD PUSH1 0x20 DUP3 ADD MSTORE PUSH1 0x2 DUP4 ADD SLOAD SWAP2 DUP2 ADD SWAP2 SWAP1 SWAP2 MSTORE PUSH1 0x3 SWAP1 SWAP2 ADD SLOAD PUSH1 0x60 DUP3 ADD MSTORE SWAP1 POP PUSH2 0x1D79 DUP9 DUP9 DUP4 DUP9 DUP7 PUSH2 0x3295 JUMP JUMPDEST DUP6 PUSH1 0xFF AND PUSH1 0x1 SUB PUSH2 0x1DB6 JUMPI PUSH1 0xFF DUP1 DUP10 AND PUSH1 0x0 SWAP1 DUP2 MSTORE PUSH1 0x20 DUP1 DUP1 MSTORE PUSH1 0x40 DUP1 DUP4 KECCAK256 SWAP4 DUP12 AND DUP4 MSTORE SWAP3 SWAP1 MSTORE SWAP1 DUP2 KECCAK256 PUSH1 0xA ADD DUP1 SLOAD DUP8 SWAP3 SWAP1 PUSH2 0x990 SWAP1 DUP5 SWAP1 PUSH2 0x3A68 JUMP JUMPDEST PUSH1 0xFF DUP1 DUP10 AND PUSH1 0x0 SWAP1 DUP2 MSTORE PUSH1 0x20 DUP1 DUP1 MSTORE PUSH1 0x40 DUP1 DUP4 KECCAK256 SWAP4 DUP12 AND DUP4 MSTORE SWAP3 SWAP1 MSTORE SWAP1 DUP2 KECCAK256 PUSH1 0xB ADD DUP1 SLOAD DUP8 SWAP3 SWAP1 PUSH2 0x9CD SWAP1 DUP5 SWAP1 PUSH2 0x3A68 JUMP JUMPDEST PUSH1 0x6 SLOAD PUSH1 0x1 PUSH1 0x1 PUSH1 0xA0 SHL SUB AND CALLER EQ PUSH2 0x1E28 JUMPI PUSH1 0x40 MLOAD PUSH3 0x461BCD PUSH1 0xE5 SHL DUP2 MSTORE PUSH1 0x20 PUSH1 0x4 DUP3 ADD MSTORE PUSH1 0x3 PUSH1 0x24 DUP3 ADD MSTORE PUSH3 0x37BBB7 PUSH1 0xE9 SHL PUSH1 0x44 DUP3 ADD MSTORE PUSH1 0x64 ADD PUSH2 0x7E4 JUMP JUMPDEST PUSH1 0x1 DUP1 SLOAD PUSH32 0xFFFFFFFFFFFFFFFFFFFFFFFF0000000000000000000000000000000000000000 AND PUSH1 0x1 PUSH1 0x1 PUSH1 0xA0 SHL SUB SWAP3 SWAP1 SWAP3 AND SWAP2 SWAP1 SWAP2 OR SWAP1 SSTORE JUMP JUMPDEST PUSH1 0x0 SLOAD PUSH1 0x40 MLOAD PUSH4 0x8A888953 PUSH1 0xE0 SHL DUP2 MSTORE PUSH1 0xFF DUP1 DUP8 AND PUSH1 0x4 DUP4 ADD MSTORE DUP6 AND PUSH1 0x24 DUP3 ADD MSTORE DUP6 SWAP2 DUP6 SWAP2 CALLER SWAP2 PUSH1 0x1 PUSH1 0x1 PUSH1 0xA0 SHL SUB AND SWAP1 PUSH4 0x8A888953 SWAP1 PUSH1 0x44 ADD PUSH1 0x20 PUSH1 0x40 MLOAD DUP1 DUP4 SUB DUP2 DUP7 GAS STATICCALL ISZERO DUP1 ISZERO PUSH2 0x1EB9 JUMPI RETURNDATASIZE PUSH1 0x0 DUP1 RETURNDATACOPY RETURNDATASIZE PUSH1 0x0 REVERT JUMPDEST POP POP POP POP PUSH1 0x40 MLOAD RETURNDATASIZE PUSH1 0x1F NOT PUSH1 0x1F DUP3 ADD AND DUP3 ADD DUP1 PUSH1 0x40 MSTORE POP DUP2 ADD SWAP1 PUSH2 0x1EDD SWAP2 SWAP1 PUSH2 0x3A1C JUMP JUMPDEST PUSH1 0x1 PUSH1 0x1 PUSH1 0xA0 SHL SUB AND EQ PUSH2 0x1F19 JUMPI PUSH1 0x40 MLOAD PUSH3 0x461BCD PUSH1 0xE5 SHL DUP2 MSTORE PUSH1 0x20 PUSH1 0x4 DUP3 ADD MSTORE PUSH1 0x3 PUSH1 0x24 DUP3 ADD MSTORE PUSH3 0x37BBB7 PUSH1 0xE9 SHL PUSH1 0x44 DUP3 ADD MSTORE PUSH1 0x64 ADD PUSH2 0x7E4 JUMP JUMPDEST DUP4 DUP4 PUSH1 0x9 PUSH1 0xFF DUP4 AND LT DUP1 ISZERO PUSH2 0x1F31 JUMPI POP PUSH1 0x9 PUSH1 0xFF DUP3 AND LT JUMPDEST PUSH2 0x1F7D JUMPI PUSH1 0x40 MLOAD PUSH3 0x461BCD PUSH1 0xE5 SHL DUP2 MSTORE PUSH1 0x20 PUSH1 0x4 DUP3 ADD MSTORE PUSH1 0x5 PUSH1 0x24 DUP3 ADD MSTORE PUSH32 0x636F6F7264000000000000000000000000000000000000000000000000000000 PUSH1 0x44 DUP3 ADD MSTORE PUSH1 0x64 ADD PUSH2 0x7E4 JUMP JUMPDEST DUP6 PUSH1 0xFF AND PUSH1 0x4 EQ DUP1 ISZERO PUSH2 0x1F93 JUMPI POP DUP5 PUSH1 0xFF AND PUSH1 0x4 EQ JUMPDEST ISZERO PUSH2 0x1FE0 JUMPI PUSH1 0x40 MLOAD PUSH3 0x461BCD PUSH1 0xE5 SHL DUP2 MSTORE PUSH1 0x20 PUSH1 0x4 DUP3 ADD MSTORE PUSH1 0x1 PUSH1 0x24 DUP3 ADD MSTORE PUSH32 0x6300000000000000000000000000000000000000000000000000000000000000 PUSH1 0x44 DUP3 ADD MSTORE PUSH1 0x64 ADD PUSH2 0x7E4 JUMP JUMPDEST PUSH1 0xFF DUP1 DUP10 AND PUSH1 0x0 SWAP1 DUP2 MSTORE PUSH1 0x21 PUSH1 0x20 SWAP1 DUP2 MSTORE PUSH1 0x40 DUP1 DUP4 KECCAK256 DUP12 DUP6 AND DUP5 MSTORE DUP3 MSTORE DUP1 DUP4 KECCAK256 DUP11 DUP6 AND DUP5 MSTORE DUP3 MSTORE DUP1 DUP4 KECCAK256 DUP10 DUP6 AND DUP5 MSTORE SWAP1 SWAP2 MSTORE DUP2 KECCAK256 SLOAD SWAP1 SWAP2 AND SWAP1 DUP2 SWAP1 SUB PUSH2 0x2068 JUMPI PUSH1 0x40 MLOAD PUSH3 0x461BCD PUSH1 0xE5 SHL DUP2 MSTORE PUSH1 0x20 PUSH1 0x4 DUP3 ADD MSTORE PUSH1 0x1 PUSH1 0x24 DUP3 ADD MSTORE PUSH32 0x6E00000000000000000000000000000000000000000000000000000000000000 PUSH1 0x44 DUP3 ADD MSTORE PUSH1 0x64 ADD PUSH2 0x7E4 JUMP JUMPDEST DUP1 PUSH1 0xFF AND PUSH1 0x3 SUB PUSH2 0x208F JUMPI CALLER PUSH1 0x0 SWAP1 DUP2 MSTORE PUSH1 0x3 PUSH1 0x20 MSTORE PUSH1 0x40 SWAP1 KECCAK256 DUP1 SLOAD PUSH1 0xFF NOT AND SWAP1 SSTORE PUSH2 0x20B2 JUMP JUMPDEST DUP1 PUSH1 0xFF AND PUSH1 0x6 SUB PUSH2 0x20B2 JUMPI CALLER PUSH1 0x0 SWAP1 DUP2 MSTORE PUSH1 0x4 PUSH1 0x20 MSTORE PUSH1 0x40 SWAP1 KECCAK256 DUP1 SLOAD PUSH1 0xFF NOT AND SWAP1 SSTORE JUMPDEST POP POP POP PUSH1 0xFF SWAP6 DUP7 AND PUSH1 0x0 SWAP1 DUP2 MSTORE PUSH1 0x21 PUSH1 0x20 SWAP1 DUP2 MSTORE PUSH1 0x40 DUP1 DUP4 KECCAK256 SWAP8 DUP10 AND DUP4 MSTORE SWAP7 DUP2 MSTORE DUP7 DUP3 KECCAK256 SWAP6 DUP9 AND DUP3 MSTORE SWAP5 DUP6 MSTORE DUP6 DUP2 KECCAK256 SWAP4 SWAP1 SWAP7 AND DUP7 MSTORE POP POP SWAP1 MSTORE SWAP1 KECCAK256 DUP1 SLOAD PUSH1 0xFF NOT AND SWAP1 SSTORE JUMP JUMPDEST PUSH1 0x7 SLOAD PUSH1 0x1 PUSH1 0x1 PUSH1 0xA0 SHL SUB AND CALLER EQ PUSH2 0x2151 JUMPI PUSH1 0x40 MLOAD PUSH3 0x461BCD PUSH1 0xE5 SHL DUP2 MSTORE PUSH1 0x20 PUSH1 0x4 DUP3 ADD MSTORE PUSH1 0x1 PUSH1 0x24 DUP3 ADD MSTORE PUSH32 0x6100000000000000000000000000000000000000000000000000000000000000 PUSH1 0x44 DUP3 ADD MSTORE PUSH1 0x64 ADD PUSH2 0x7E4 JUMP JUMPDEST PUSH1 0xFF DUP1 DUP4 AND PUSH1 0x0 SWAP1 DUP2 MSTORE PUSH1 0x20 DUP1 DUP1 MSTORE PUSH1 0x40 DUP1 DUP4 KECCAK256 SWAP4 DUP6 AND DUP4 MSTORE SWAP3 SWAP1 MSTORE KECCAK256 PUSH2 0x2179 DUP2 DUP5 DUP5 PUSH2 0x3502 JUMP JUMPDEST POP POP POP JUMP JUMPDEST PUSH2 0x2201 PUSH1 0x40 MLOAD DUP1 PUSH2 0x1E0 ADD PUSH1 0x40 MSTORE DUP1 PUSH1 0x0 DUP2 MSTORE PUSH1 0x20 ADD PUSH1 0x0 DUP2 MSTORE PUSH1 0x20 ADD PUSH1 0x0 DUP2 MSTORE PUSH1 0x20 ADD PUSH1 0x0 DUP2 MSTORE PUSH1 0x20 ADD PUSH1 0x0 PUSH2 0xFFFF AND DUP2 MSTORE PUSH1 0x20 ADD PUSH1 0x0 DUP2 MSTORE PUSH1 0x20 ADD PUSH1 0x0 DUP2 MSTORE PUSH1 0x20 ADD PUSH1 0x0 DUP2 MSTORE PUSH1 0x20 ADD PUSH1 0x0 DUP2 MSTORE PUSH1 0x20 ADD PUSH1 0x0 DUP2 MSTORE PUSH1 0x20 ADD PUSH1 0x0 DUP2 MSTORE PUSH1 0x20 ADD PUSH1 0x0 DUP2 MSTORE PUSH1 0x20 ADD PUSH1 0x0 PUSH1 0xFF AND DUP2 MSTORE PUSH1 0x20 ADD PUSH1 0x0 PUSH1 0xFF AND DUP2 MSTORE PUSH1 0x20 ADD PUSH1 0x0 DUP2 MSTORE POP SWAP1 JUMP JUMPDEST POP PUSH1 0xFF SWAP2 DUP3 AND PUSH1 0x0 SWAP1 DUP2 MSTORE PUSH1 0x20 DUP1 DUP1 MSTORE PUSH1 0x40 DUP1 DUP4 KECCAK256 SWAP4 DUP6 AND DUP4 MSTORE SWAP3 DUP2 MSTORE SWAP1 DUP3 SWAP1 KECCAK256 DUP3 MLOAD PUSH2 0x1E0 DUP2 ADD DUP5 MSTORE DUP2 SLOAD DUP2 MSTORE PUSH1 0x1 DUP3 ADD SLOAD SWAP3 DUP2 ADD SWAP3 SWAP1 SWAP3 MSTORE PUSH1 0x2 DUP2 ADD SLOAD SWAP3 DUP3 ADD SWAP3 SWAP1 SWAP3 MSTORE PUSH1 0x3 DUP3 ADD SLOAD PUSH1 0x60 DUP3 ADD MSTORE PUSH1 0x4 DUP3 ADD SLOAD PUSH2 0xFFFF AND PUSH1 0x80 DUP3 ADD MSTORE PUSH1 0x5 DUP3 ADD SLOAD PUSH1 0xA0 DUP3 ADD MSTORE PUSH1 0x8 DUP3 ADD SLOAD PUSH1 0xC0 DUP3 ADD MSTORE PUSH1 0x9 DUP3 ADD SLOAD PUSH1 0xE0 DUP3 ADD MSTORE PUSH1 0xA DUP3 ADD SLOAD PUSH2 0x100 DUP1 DUP4 ADD SWAP2 SWAP1 SWAP2 MSTORE PUSH1 0xB DUP4 ADD SLOAD PUSH2 0x120 DUP4 ADD MSTORE PUSH1 0xC DUP4 ADD SLOAD PUSH2 0x140 DUP4 ADD MSTORE PUSH1 0xD DUP4 ADD SLOAD PUSH2 0x160 DUP4 ADD MSTORE PUSH1 0xE DUP4 ADD SLOAD DUP1 DUP6 AND PUSH2 0x180 DUP5 ADD MSTORE DIV SWAP1 SWAP3 AND PUSH2 0x1A0 DUP4 ADD MSTORE PUSH1 0xF ADD SLOAD PUSH2 0x1C0 DUP3 ADD MSTORE SWAP1 JUMP JUMPDEST PUSH2 0x22DA PUSH2 0x3562 JUMP JUMPDEST PUSH1 0x0 SLOAD PUSH1 0x40 MLOAD PUSH4 0x8A888953 PUSH1 0xE0 SHL DUP2 MSTORE PUSH1 0xFF DUP1 DUP7 AND PUSH1 0x4 DUP4 ADD MSTORE DUP5 AND PUSH1 0x24 DUP3 ADD MSTORE DUP5 SWAP2 DUP5 SWAP2 CALLER SWAP2 PUSH1 0x1 PUSH1 0x1 PUSH1 0xA0 SHL SUB AND SWAP1 PUSH4 0x8A888953 SWAP1 PUSH1 0x44 ADD PUSH1 0x20 PUSH1 0x40 MLOAD DUP1 DUP4 SUB DUP2 DUP7 GAS STATICCALL ISZERO DUP1 ISZERO PUSH2 0x2331 JUMPI RETURNDATASIZE PUSH1 0x0 DUP1 RETURNDATACOPY RETURNDATASIZE PUSH1 0x0 REVERT JUMPDEST POP POP POP POP PUSH1 0x40 MLOAD RETURNDATASIZE PUSH1 0x1F NOT PUSH1 0x1F DUP3 ADD AND DUP3 ADD DUP1 PUSH1 0x40 MSTORE POP DUP2 ADD SWAP1 PUSH2 0x2355 SWAP2 SWAP1 PUSH2 0x3A1C JUMP JUMPDEST PUSH1 0x1 PUSH1 0x1 PUSH1 0xA0 SHL SUB AND EQ PUSH2 0x2391 JUMPI PUSH1 0x40 MLOAD PUSH3 0x461BCD PUSH1 0xE5 SHL DUP2 MSTORE PUSH1 0x20 PUSH1 0x4 DUP3 ADD MSTORE PUSH1 0x3 PUSH1 0x24 DUP3 ADD MSTORE PUSH3 0x37BBB7 PUSH1 0xE9 SHL PUSH1 0x44 DUP3 ADD MSTORE PUSH1 0x64 ADD PUSH2 0x7E4 JUMP JUMPDEST PUSH2 0x2399 PUSH2 0x3562 JUMP JUMPDEST PUSH1 0x0 JUMPDEST PUSH1 0x9 PUSH1 0xFF DUP3 AND LT ISZERO PUSH2 0x2450 JUMPI PUSH1 0x0 JUMPDEST PUSH1 0x9 PUSH1 0xFF DUP3 AND LT ISZERO PUSH2 0x243D JUMPI PUSH1 0xFF DUP1 DUP10 AND PUSH1 0x0 SWAP1 DUP2 MSTORE PUSH1 0x21 PUSH1 0x20 SWAP1 DUP2 MSTORE PUSH1 0x40 DUP1 DUP4 KECCAK256 DUP12 DUP6 AND DUP5 MSTORE DUP3 MSTORE DUP1 DUP4 KECCAK256 DUP7 DUP6 AND DUP1 DUP6 MSTORE SWAP1 DUP4 MSTORE DUP2 DUP5 KECCAK256 DUP7 DUP7 AND DUP6 MSTORE SWAP1 SWAP3 MSTORE SWAP1 SWAP2 KECCAK256 SLOAD SWAP1 SWAP2 AND SWAP1 DUP5 SWAP1 PUSH1 0x9 DUP2 LT PUSH2 0x2405 JUMPI PUSH2 0x2405 PUSH2 0x3B20 JUMP JUMPDEST PUSH1 0x20 MUL ADD MLOAD DUP3 PUSH1 0xFF AND PUSH1 0x9 DUP2 LT PUSH2 0x241E JUMPI PUSH2 0x241E PUSH2 0x3B20 JUMP JUMPDEST PUSH1 0xFF SWAP1 SWAP3 AND PUSH1 0x20 SWAP3 SWAP1 SWAP3 MUL ADD MSTORE DUP1 PUSH2 0x2435 DUP2 PUSH2 0x3B01 JUMP JUMPDEST SWAP2 POP POP PUSH2 0x23AB JUMP JUMPDEST POP DUP1 PUSH2 0x2448 DUP2 PUSH2 0x3B01 JUMP JUMPDEST SWAP2 POP POP PUSH2 0x239C JUMP JUMPDEST POP SWAP3 POP JUMPDEST POP POP SWAP3 SWAP2 POP POP JUMP JUMPDEST PUSH1 0x0 SLOAD PUSH1 0x40 MLOAD PUSH4 0x8A888953 PUSH1 0xE0 SHL DUP2 MSTORE PUSH1 0xFF DUP1 DUP6 AND PUSH1 0x4 DUP4 ADD MSTORE DUP4 AND PUSH1 0x24 DUP3 ADD MSTORE DUP4 SWAP2 DUP4 SWAP2 CALLER SWAP2 PUSH1 0x1 PUSH1 0x1 PUSH1 0xA0 SHL SUB AND SWAP1 PUSH4 0x8A888953 SWAP1 PUSH1 0x44 ADD PUSH1 0x20 PUSH1 0x40 MLOAD DUP1 DUP4 SUB DUP2 DUP7 GAS STATICCALL ISZERO DUP1 ISZERO PUSH2 0x24B3 JUMPI RETURNDATASIZE PUSH1 0x0 DUP1 RETURNDATACOPY RETURNDATASIZE PUSH1 0x0 REVERT JUMPDEST POP POP POP POP PUSH1 0x40 MLOAD RETURNDATASIZE PUSH1 0x1F NOT PUSH1 0x1F DUP3 ADD AND DUP3 ADD DUP1 PUSH1 0x40 MSTORE POP DUP2 ADD SWAP1 PUSH2 0x24D7 SWAP2 SWAP1 PUSH2 0x3A1C JUMP JUMPDEST PUSH1 0x1 PUSH1 0x1 PUSH1 0xA0 SHL SUB AND EQ PUSH2 0x2513 JUMPI PUSH1 0x40 MLOAD PUSH3 0x461BCD PUSH1 0xE5 SHL DUP2 MSTORE PUSH1 0x20 PUSH1 0x4 DUP3 ADD MSTORE PUSH1 0x3 PUSH1 0x24 DUP3 ADD MSTORE PUSH3 0x37BBB7 PUSH1 0xE9 SHL PUSH1 0x44 DUP3 ADD MSTORE PUSH1 0x64 ADD PUSH2 0x7E4 JUMP JUMPDEST PUSH1 0xFF DUP1 DUP6 AND PUSH1 0x0 SWAP1 DUP2 MSTORE PUSH1 0x20 DUP1 DUP1 MSTORE PUSH1 0x40 DUP1 DUP4 KECCAK256 SWAP4 DUP8 AND DUP4 MSTORE SWAP3 SWAP1 MSTORE SWAP1 DUP2 KECCAK256 PUSH1 0x7 ADD SLOAD PUSH2 0x2540 SWAP1 TIMESTAMP PUSH2 0x3A7B JUMP JUMPDEST PUSH2 0x254B SWAP1 PUSH1 0x3C PUSH2 0x3AA7 JUMP JUMPDEST PUSH1 0xFF DUP1 DUP8 AND PUSH1 0x0 SWAP1 DUP2 MSTORE PUSH1 0x20 DUP1 DUP1 MSTORE PUSH1 0x40 DUP1 DUP4 KECCAK256 SWAP4 DUP10 AND DUP4 MSTORE SWAP3 SWAP1 MSTORE KECCAK256 PUSH1 0x6 ADD SLOAD PUSH2 0x257A SWAP2 SWAP1 PUSH2 0xFFFF AND PUSH2 0x3A68 JUMP JUMPDEST SWAP1 POP PUSH2 0x258 DUP2 GT PUSH2 0x258B JUMPI DUP1 PUSH2 0x258F JUMP JUMPDEST PUSH2 0x258 JUMPDEST PUSH1 0xFF SWAP6 DUP7 AND PUSH1 0x0 SWAP1 DUP2 MSTORE PUSH1 0x20 DUP1 DUP1 MSTORE PUSH1 0x40 DUP1 DUP4 KECCAK256 SWAP8 SWAP1 SWAP9 AND DUP3 MSTORE SWAP6 SWAP1 SWAP6 MSTORE SWAP5 SWAP1 SWAP4 KECCAK256 PUSH1 0x6 ADD DUP1 SLOAD PUSH2 0xFFFF NOT AND PUSH2 0xFFFF SWAP1 SWAP6 AND SWAP5 SWAP1 SWAP5 OR SWAP1 SWAP4 SSTORE POP POP POP JUMP JUMPDEST PUSH1 0x0 SLOAD PUSH1 0x40 MLOAD PUSH4 0x8A888953 PUSH1 0xE0 SHL DUP2 MSTORE PUSH1 0xFF DUP1 DUP6 AND PUSH1 0x4 DUP4 ADD MSTORE DUP4 AND PUSH1 0x24 DUP3 ADD MSTORE DUP4 SWAP2 DUP4 SWAP2 CALLER SWAP2 PUSH1 0x1 PUSH1 0x1 PUSH1 0xA0 SHL SUB AND SWAP1 PUSH4 0x8A888953 SWAP1 PUSH1 0x44 ADD PUSH1 0x20 PUSH1 0x40 MLOAD DUP1 DUP4 SUB DUP2 DUP7 GAS STATICCALL ISZERO DUP1 ISZERO PUSH2 0x2624 JUMPI RETURNDATASIZE PUSH1 0x0 DUP1 RETURNDATACOPY RETURNDATASIZE PUSH1 0x0 REVERT JUMPDEST POP POP POP POP PUSH1 0x40 MLOAD RETURNDATASIZE PUSH1 0x1F NOT PUSH1 0x1F DUP3 ADD AND DUP3 ADD DUP1 PUSH1 0x40 MSTORE POP DUP2 ADD SWAP1 PUSH2 0x2648 SWAP2 SWAP1 PUSH2 0x3A1C JUMP JUMPDEST PUSH1 0x1 PUSH1 0x1 PUSH1 0xA0 SHL SUB AND EQ PUSH2 0x2684 JUMPI PUSH1 0x40 MLOAD PUSH3 0x461BCD PUSH1 0xE5 SHL DUP2 MSTORE PUSH1 0x20 PUSH1 0x4 DUP3 ADD MSTORE PUSH1 0x3 PUSH1 0x24 DUP3 ADD MSTORE PUSH3 0x37BBB7 PUSH1 0xE9 SHL PUSH1 0x44 DUP3 ADD MSTORE PUSH1 0x64 ADD PUSH2 0x7E4 JUMP JUMPDEST PUSH1 0x0 DUP6 PUSH2 0xFFFF AND GT PUSH2 0x26D8 JUMPI PUSH1 0x40 MLOAD PUSH3 0x461BCD PUSH1 0xE5 SHL DUP2 MSTORE PUSH1 0x20 PUSH1 0x4 DUP3 ADD MSTORE PUSH1 0x1 PUSH1 0x24 DUP3 ADD MSTORE PUSH32 0x3000000000000000000000000000000000000000000000000000000000000000 PUSH1 0x44 DUP3 ADD MSTORE PUSH1 0x64 ADD PUSH2 0x7E4 JUMP JUMPDEST PUSH2 0x26E2 DUP5 DUP5 PUSH2 0x245C JUMP JUMPDEST PUSH1 0xFF DUP1 DUP6 AND PUSH1 0x0 SWAP1 DUP2 MSTORE PUSH1 0x20 DUP1 DUP1 MSTORE PUSH1 0x40 DUP1 DUP4 KECCAK256 SWAP4 DUP8 AND DUP4 MSTORE SWAP3 SWAP1 MSTORE KECCAK256 PUSH1 0x6 ADD SLOAD PUSH2 0xFFFF DUP1 DUP8 AND SWAP2 AND LT ISZERO PUSH2 0x2759 JUMPI PUSH1 0x40 MLOAD PUSH3 0x461BCD PUSH1 0xE5 SHL DUP2 MSTORE PUSH1 0x20 PUSH1 0x4 DUP3 ADD MSTORE PUSH1 0x1 PUSH1 0x24 DUP3 ADD MSTORE PUSH32 0x7400000000000000000000000000000000000000000000000000000000000000 PUSH1 0x44 DUP3 ADD MSTORE PUSH1 0x64 ADD PUSH2 0x7E4 JUMP JUMPDEST PUSH1 0xFF DUP1 DUP6 AND PUSH1 0x0 SWAP1 DUP2 MSTORE PUSH1 0x20 DUP1 DUP1 MSTORE PUSH1 0x40 DUP1 DUP4 KECCAK256 SWAP4 DUP8 AND DUP4 MSTORE SWAP3 SWAP1 MSTORE KECCAK256 PUSH1 0x5 ADD SLOAD PUSH2 0x2786 SWAP1 PUSH2 0x3E8 PUSH2 0x3A7B JUMP JUMPDEST DUP6 PUSH2 0xFFFF AND GT ISZERO PUSH2 0x27C1 JUMPI PUSH1 0xFF DUP1 DUP6 AND PUSH1 0x0 SWAP1 DUP2 MSTORE PUSH1 0x20 DUP1 DUP1 MSTORE PUSH1 0x40 DUP1 DUP4 KECCAK256 SWAP4 DUP8 AND DUP4 MSTORE SWAP3 SWAP1 MSTORE KECCAK256 PUSH1 0x5 ADD SLOAD PUSH2 0x27BE SWAP1 PUSH2 0x3E8 PUSH2 0x3A7B JUMP JUMPDEST SWAP5 POP JUMPDEST PUSH1 0xFF DUP1 DUP6 AND PUSH1 0x0 SWAP1 DUP2 MSTORE PUSH1 0x20 DUP1 DUP1 MSTORE PUSH1 0x40 DUP1 DUP4 KECCAK256 SWAP4 DUP8 AND DUP4 MSTORE SWAP3 SWAP1 MSTORE KECCAK256 PUSH1 0x6 ADD SLOAD PUSH2 0x27F1 SWAP1 DUP7 SWAP1 PUSH2 0xFFFF AND PUSH2 0x3B4F JUMP JUMPDEST PUSH1 0xFF DUP6 DUP2 AND PUSH1 0x0 SWAP1 DUP2 MSTORE PUSH1 0x20 DUP1 DUP1 MSTORE PUSH1 0x40 DUP1 DUP4 KECCAK256 SWAP4 DUP9 AND DUP4 MSTORE SWAP3 SWAP1 MSTORE SWAP1 DUP2 KECCAK256 PUSH1 0x6 DUP2 ADD DUP1 SLOAD PUSH2 0xFFFF NOT AND PUSH2 0xFFFF SWAP5 SWAP1 SWAP5 AND SWAP4 SWAP1 SWAP4 OR SWAP1 SWAP3 SSTORE TIMESTAMP PUSH1 0x7 SWAP1 SWAP3 ADD SWAP2 SWAP1 SWAP2 SSTORE PUSH2 0x283F DUP6 DUP6 PUSH1 0x5 PUSH2 0x31FA JUMP JUMPDEST SWAP1 POP PUSH2 0x284C PUSH1 0x1 DUP3 PUSH2 0x3A68 JUMP JUMPDEST PUSH1 0x1 SLOAD PUSH1 0x40 MLOAD PUSH32 0x2A2026A900000000000000000000000000000000000000000000000000000000 DUP2 MSTORE PUSH1 0xFF DUP1 DUP10 AND PUSH1 0x4 DUP4 ADD MSTORE DUP8 AND PUSH1 0x24 DUP3 ADD MSTORE SWAP2 SWAP3 POP PUSH1 0x0 SWAP2 PUSH1 0x1 PUSH1 0x1 PUSH1 0xA0 SHL SUB SWAP1 SWAP2 AND SWAP1 PUSH4 0x2A2026A9 SWAP1 PUSH1 0x44 ADD PUSH1 0x20 PUSH1 0x40 MLOAD DUP1 DUP4 SUB DUP2 DUP7 GAS STATICCALL ISZERO DUP1 ISZERO PUSH2 0x28BE JUMPI RETURNDATASIZE PUSH1 0x0 DUP1 RETURNDATACOPY RETURNDATASIZE PUSH1 0x0 REVERT JUMPDEST POP POP POP POP PUSH1 0x40 MLOAD RETURNDATASIZE PUSH1 0x1F NOT PUSH1 0x1F DUP3 ADD AND DUP3 ADD DUP1 PUSH1 0x40 MSTORE POP DUP2 ADD SWAP1 PUSH2 0x28E2 SWAP2 SWAP1 PUSH2 0x3B71 JUMP JUMPDEST PUSH1 0xFF DUP1 DUP9 AND PUSH1 0x0 SWAP1 DUP2 MSTORE PUSH1 0x20 DUP1 DUP1 MSTORE PUSH1 0x40 DUP1 DUP4 KECCAK256 DUP11 DUP6 AND DUP5 MSTORE SWAP1 SWAP2 MSTORE SWAP1 KECCAK256 SWAP2 SWAP3 POP DUP3 AND PUSH1 0x1 SUB PUSH2 0x2937 JUMPI PUSH2 0x291A DUP4 PUSH2 0xFFFF DUP11 AND PUSH2 0x3AA7 JUMP JUMPDEST DUP2 SLOAD DUP3 SWAP1 PUSH1 0x0 SWAP1 PUSH2 0x292C SWAP1 DUP5 SWAP1 PUSH2 0x3A68 JUMP JUMPDEST SWAP1 SWAP2 SSTORE POP PUSH2 0x29C4 SWAP1 POP JUMP JUMPDEST DUP2 PUSH1 0xFF AND PUSH1 0x2 SUB PUSH2 0x2964 JUMPI PUSH2 0x2950 DUP4 PUSH2 0xFFFF DUP11 AND PUSH2 0x3AA7 JUMP JUMPDEST PUSH1 0x1 DUP3 ADD DUP1 SLOAD PUSH1 0x0 SWAP1 PUSH2 0x292C SWAP1 DUP5 SWAP1 PUSH2 0x3A68 JUMP JUMPDEST DUP2 PUSH1 0xFF AND PUSH1 0x3 SUB PUSH2 0x2991 JUMPI PUSH2 0x297D DUP4 PUSH2 0xFFFF DUP11 AND PUSH2 0x3AA7 JUMP JUMPDEST PUSH1 0x2 DUP3 ADD DUP1 SLOAD PUSH1 0x0 SWAP1 PUSH2 0x292C SWAP1 DUP5 SWAP1 PUSH2 0x3A68 JUMP JUMPDEST DUP2 PUSH1 0xFF AND PUSH1 0x4 SUB PUSH2 0x29C4 JUMPI PUSH2 0x29AA DUP4 PUSH2 0xFFFF DUP11 AND PUSH2 0x3AA7 JUMP JUMPDEST PUSH1 0x3 DUP3 ADD DUP1 SLOAD PUSH1 0x0 SWAP1 PUSH2 0x29BE SWAP1 DUP5 SWAP1 PUSH2 0x3A68 JUMP JUMPDEST SWAP1 SWAP2 SSTORE POP POP JUMPDEST PUSH2 0x29D2 DUP4 PUSH2 0xFFFF DUP11 AND PUSH2 0x3AA7 JUMP JUMPDEST DUP2 SLOAD DUP3 SWAP1 PUSH1 0x0 SWAP1 PUSH2 0x29E4 SWAP1 DUP5 SWAP1 PUSH2 0x3A68 JUMP JUMPDEST SWAP1 SWAP2 SSTORE POP PUSH2 0x29F8 SWAP1 POP DUP4 PUSH2 0xFFFF DUP11 AND PUSH2 0x3AA7 JUMP JUMPDEST PUSH1 0x1 DUP3 ADD DUP1 SLOAD PUSH1 0x0 SWAP1 PUSH2 0x2A0C SWAP1 DUP5 SWAP1 PUSH2 0x3A68 JUMP JUMPDEST SWAP1 SWAP2 SSTORE POP PUSH2 0x2A20 SWAP1 POP DUP4 PUSH2 0xFFFF DUP11 AND PUSH2 0x3AA7 JUMP JUMPDEST PUSH1 0x2 DUP3 ADD DUP1 SLOAD PUSH1 0x0 SWAP1 PUSH2 0x2A34 SWAP1 DUP5 SWAP1 PUSH2 0x3A68 JUMP JUMPDEST SWAP1 SWAP2 SSTORE POP PUSH2 0x2A48 SWAP1 POP DUP4 PUSH2 0xFFFF DUP11 AND PUSH2 0x3AA7 JUMP JUMPDEST PUSH1 0x3 DUP3 ADD DUP1 SLOAD PUSH1 0x0 SWAP1 PUSH2 0x2A5C SWAP1 DUP5 SWAP1 PUSH2 0x3A68 JUMP JUMPDEST SWAP3 POP POP DUP2 SWAP1 SSTORE POP DUP8 PUSH2 0xFFFF AND DUP2 PUSH1 0x5 ADD PUSH1 0x0 DUP3 DUP3 SLOAD PUSH2 0x2A7B SWAP2 SWAP1 PUSH2 0x3A68 JUMP JUMPDEST SWAP1 SWAP2 SSTORE POP POP PUSH1 0x5 DUP2 ADD SLOAD PUSH1 0x0 SWAP1 PUSH2 0x2A95 SWAP1 PUSH2 0x3E8 SWAP1 PUSH2 0x3AED JUMP JUMPDEST SWAP1 POP PUSH2 0x3E8 DUP3 PUSH1 0x5 ADD PUSH1 0x0 DUP3 DUP3 SLOAD PUSH2 0x2AAD SWAP2 SWAP1 PUSH2 0x3B8E JUMP JUMPDEST SWAP1 SWAP2 SSTORE POP POP PUSH1 0x4 DUP3 ADD SLOAD PUSH1 0x0 SWAP1 PUSH2 0x2AC9 SWAP1 DUP4 SWAP1 PUSH2 0xFFFF AND PUSH2 0x3BA2 JUMP JUMPDEST SWAP1 POP PUSH2 0x1F4 DUP2 PUSH2 0xFFFF AND GT ISZERO PUSH2 0x2AEF JUMPI PUSH1 0x4 DUP4 ADD DUP1 SLOAD PUSH2 0xFFFF NOT AND PUSH2 0x1F4 OR SWAP1 SSTORE PUSH2 0x2B03 JUMP JUMPDEST PUSH1 0x4 DUP4 ADD DUP1 SLOAD PUSH2 0xFFFF NOT AND PUSH2 0xFFFF DUP4 AND OR SWAP1 SSTORE JUMPDEST PUSH2 0x2B0E DUP4 DUP11 DUP11 PUSH2 0x3502 JUMP JUMPDEST PUSH1 0xFF DUP1 DUP11 AND PUSH1 0x0 SWAP1 DUP2 MSTORE PUSH1 0x2 PUSH1 0x20 SWAP1 DUP2 MSTORE PUSH1 0x40 DUP1 DUP4 KECCAK256 SWAP4 DUP13 AND DUP4 MSTORE SWAP3 SWAP1 MSTORE SWAP1 DUP2 KECCAK256 DUP1 SLOAD PUSH2 0xFFFF DUP14 AND SWAP3 SWAP1 PUSH2 0x2B43 SWAP1 DUP5 SWAP1 PUSH2 0x3A68 JUMP JUMPDEST SWAP1 SWAP2 SSTORE POP POP PUSH1 0x40 DUP1 MLOAD PUSH2 0xFFFF DUP13 AND DUP2 MSTORE PUSH1 0xFF DUP12 DUP2 AND PUSH1 0x20 DUP4 ADD MSTORE DUP11 AND DUP2 DUP4 ADD MSTORE SWAP1 MLOAD CALLER SWAP2 PUSH32 0xBB5B4F7847476E1912E2B57D030B0E491D0D72B2EF256CCEEA9DAA41F40F5D18 SWAP2 SWAP1 DUP2 SWAP1 SUB PUSH1 0x60 ADD SWAP1 LOG2 POP POP POP POP POP POP POP POP POP POP JUMP JUMPDEST PUSH1 0x0 DUP1 SLOAD PUSH1 0x40 MLOAD PUSH4 0x8A888953 PUSH1 0xE0 SHL DUP2 MSTORE PUSH1 0xFF DUP1 DUP7 AND PUSH1 0x4 DUP4 ADD MSTORE DUP5 AND PUSH1 0x24 DUP3 ADD MSTORE DUP5 SWAP2 DUP5 SWAP2 CALLER SWAP2 PUSH1 0x1 PUSH1 0x1 PUSH1 0xA0 SHL SUB AND SWAP1 PUSH4 0x8A888953 SWAP1 PUSH1 0x44 ADD PUSH1 0x20 PUSH1 0x40 MLOAD DUP1 DUP4 SUB DUP2 DUP7 GAS STATICCALL ISZERO DUP1 ISZERO PUSH2 0x2BF6 JUMPI RETURNDATASIZE PUSH1 0x0 DUP1 RETURNDATACOPY RETURNDATASIZE PUSH1 0x0 REVERT JUMPDEST POP POP POP POP PUSH1 0x40 MLOAD RETURNDATASIZE PUSH1 0x1F NOT PUSH1 0x1F DUP3 ADD AND DUP3 ADD DUP1 PUSH1 0x40 MSTORE POP DUP2 ADD SWAP1 PUSH2 0x2C1A SWAP2 SWAP1 PUSH2 0x3A1C JUMP JUMPDEST PUSH1 0x1 PUSH1 0x1 PUSH1 0xA0 SHL SUB AND EQ PUSH2 0x2C56 JUMPI PUSH1 0x40 MLOAD PUSH3 0x461BCD PUSH1 0xE5 SHL DUP2 MSTORE PUSH1 0x20 PUSH1 0x4 DUP3 ADD MSTORE PUSH1 0x3 PUSH1 0x24 DUP3 ADD MSTORE PUSH3 0x37BBB7 PUSH1 0xE9 SHL PUSH1 0x44 DUP3 ADD MSTORE PUSH1 0x64 ADD PUSH2 0x7E4 JUMP JUMPDEST PUSH1 0xFF DUP1 DUP7 AND PUSH1 0x0 SWAP1 DUP2 MSTORE PUSH1 0x20 DUP1 DUP1 MSTORE PUSH1 0x40 DUP1 DUP4 KECCAK256 SWAP4 DUP9 AND DUP4 MSTORE SWAP3 SWAP1 MSTORE KECCAK256 PUSH1 0x7 ADD SLOAD PUSH2 0x258 SWAP1 PUSH2 0x2C85 SWAP1 TIMESTAMP PUSH2 0x3A7B JUMP JUMPDEST PUSH2 0x2C90 SWAP1 PUSH1 0x3C PUSH2 0x3AA7 JUMP JUMPDEST PUSH1 0xFF DUP1 DUP9 AND PUSH1 0x0 SWAP1 DUP2 MSTORE PUSH1 0x20 DUP1 DUP1 MSTORE PUSH1 0x40 DUP1 DUP4 KECCAK256 SWAP4 DUP11 AND DUP4 MSTORE SWAP3 SWAP1 MSTORE KECCAK256 PUSH1 0x6 ADD SLOAD PUSH2 0x2CBF SWAP2 SWAP1 PUSH2 0xFFFF AND PUSH2 0x3A68 JUMP JUMPDEST GT ISZERO PUSH2 0x2CCF JUMPI PUSH2 0x258 SWAP3 POP PUSH2 0x2454 JUMP JUMPDEST PUSH1 0xFF DUP1 DUP7 AND PUSH1 0x0 SWAP1 DUP2 MSTORE PUSH1 0x20 DUP1 DUP1 MSTORE PUSH1 0x40 DUP1 DUP4 KECCAK256 SWAP4 DUP9 AND DUP4 MSTORE SWAP3 SWAP1 MSTORE KECCAK256 PUSH1 0x7 ADD SLOAD PUSH2 0x2CFA SWAP1 TIMESTAMP PUSH2 0x3A7B JUMP JUMPDEST PUSH2 0x2D05 SWAP1 PUSH1 0x3C PUSH2 0x3AA7 JUMP JUMPDEST PUSH1 0xFF DUP1 DUP8 AND PUSH1 0x0 SWAP1 DUP2 MSTORE PUSH1 0x20 DUP1 DUP1 MSTORE PUSH1 0x40 DUP1 DUP4 KECCAK256 SWAP4 DUP10 AND DUP4 MSTORE SWAP3 SWAP1 MSTORE KECCAK256 PUSH1 0x6 ADD SLOAD PUSH2 0x2D34 SWAP2 SWAP1 PUSH2 0xFFFF AND PUSH2 0x3A68 JUMP JUMPDEST SWAP3 POP PUSH2 0x2454 JUMP JUMPDEST PUSH1 0x0 SLOAD PUSH1 0x40 MLOAD PUSH4 0x8A888953 PUSH1 0xE0 SHL DUP2 MSTORE PUSH1 0xFF DUP1 DUP8 AND PUSH1 0x4 DUP4 ADD MSTORE DUP6 AND PUSH1 0x24 DUP3 ADD MSTORE DUP6 SWAP2 DUP6 SWAP2 CALLER SWAP2 PUSH1 0x1 PUSH1 0x1 PUSH1 0xA0 SHL SUB AND SWAP1 PUSH4 0x8A888953 SWAP1 PUSH1 0x44 ADD PUSH1 0x20 PUSH1 0x40 MLOAD DUP1 DUP4 SUB DUP2 DUP7 GAS STATICCALL ISZERO DUP1 ISZERO PUSH2 0x2D92 JUMPI RETURNDATASIZE PUSH1 0x0 DUP1 RETURNDATACOPY RETURNDATASIZE PUSH1 0x0 REVERT JUMPDEST POP POP POP POP PUSH1 0x40 MLOAD RETURNDATASIZE PUSH1 0x1F NOT PUSH1 0x1F DUP3 ADD AND DUP3 ADD DUP1 PUSH1 0x40 MSTORE POP DUP2 ADD SWAP1 PUSH2 0x2DB6 SWAP2 SWAP1 PUSH2 0x3A1C JUMP JUMPDEST PUSH1 0x1 PUSH1 0x1 PUSH1 0xA0 SHL SUB AND EQ PUSH2 0x2DF2 JUMPI PUSH1 0x40 MLOAD PUSH3 0x461BCD PUSH1 0xE5 SHL DUP2 MSTORE PUSH1 0x20 PUSH1 0x4 DUP3 ADD MSTORE PUSH1 0x3 PUSH1 0x24 DUP3 ADD MSTORE PUSH3 0x37BBB7 PUSH1 0xE9 SHL PUSH1 0x44 DUP3 ADD MSTORE PUSH1 0x64 ADD PUSH2 0x7E4 JUMP JUMPDEST PUSH1 0x0 DUP4 GT PUSH2 0x2E42 JUMPI PUSH1 0x40 MLOAD PUSH3 0x461BCD PUSH1 0xE5 SHL DUP2 MSTORE PUSH1 0x20 PUSH1 0x4 DUP3 ADD MSTORE PUSH1 0x1 PUSH1 0x24 DUP3 ADD MSTORE PUSH32 0x7A00000000000000000000000000000000000000000000000000000000000000 PUSH1 0x44 DUP3 ADD MSTORE PUSH1 0x64 ADD PUSH2 0x7E4 JUMP JUMPDEST DUP4 PUSH1 0xFF AND PUSH1 0x1 EQ DUP1 PUSH2 0x2E57 JUMPI POP DUP4 PUSH1 0xFF AND PUSH1 0x2 EQ JUMPDEST PUSH2 0x2EA3 JUMPI PUSH1 0x40 MLOAD PUSH3 0x461BCD PUSH1 0xE5 SHL DUP2 MSTORE PUSH1 0x20 PUSH1 0x4 DUP3 ADD MSTORE PUSH1 0x1 PUSH1 0x24 DUP3 ADD MSTORE PUSH32 0x7400000000000000000000000000000000000000000000000000000000000000 PUSH1 0x44 DUP3 ADD MSTORE PUSH1 0x64 ADD PUSH2 0x7E4 JUMP JUMPDEST PUSH1 0x0 PUSH2 0x2EB1 DUP8 DUP8 PUSH1 0x4 PUSH2 0x31FA JUMP JUMPDEST SWAP1 POP PUSH1 0x0 DUP2 GT PUSH2 0x2F03 JUMPI PUSH1 0x40 MLOAD PUSH3 0x461BCD PUSH1 0xE5 SHL DUP2 MSTORE PUSH1 0x20 PUSH1 0x4 DUP3 ADD MSTORE PUSH1 0x1 PUSH1 0x24 DUP3 ADD MSTORE PUSH32 0x7000000000000000000000000000000000000000000000000000000000000000 PUSH1 0x44 DUP3 ADD MSTORE PUSH1 0x64 ADD PUSH2 0x7E4 JUMP JUMPDEST PUSH1 0x0 DUP6 PUSH1 0xFF AND PUSH1 0x1 EQ PUSH2 0x2F17 JUMPI PUSH1 0x1C PUSH2 0x2F1A JUMP JUMPDEST PUSH1 0x18 JUMPDEST PUSH1 0x40 DUP1 MLOAD PUSH1 0x80 DUP2 ADD DUP3 MSTORE DUP3 SLOAD DUP2 MSTORE PUSH1 0x1 DUP4 ADD SLOAD PUSH1 0x20 DUP3 ADD MSTORE PUSH1 0x2 DUP4 ADD SLOAD SWAP2 DUP2 ADD SWAP2 SWAP1 SWAP2 MSTORE PUSH1 0x3 SWAP1 SWAP2 ADD SLOAD PUSH1 0x60 DUP3 ADD MSTORE SWAP1 POP PUSH2 0x2F58 DUP9 DUP9 DUP4 DUP9 DUP7 PUSH2 0x3295 JUMP JUMPDEST PUSH1 0xFF DUP1 DUP10 AND PUSH1 0x0 SWAP1 DUP2 MSTORE PUSH1 0x20 DUP1 DUP1 MSTORE PUSH1 0x40 DUP1 DUP4 KECCAK256 DUP12 DUP6 AND DUP5 MSTORE SWAP1 SWAP2 MSTORE SWAP1 KECCAK256 PUSH1 0x8 ADD SWAP1 DUP8 AND PUSH1 0x1 SUB PUSH2 0x307D JUMPI DUP1 SLOAD DUP7 GT ISZERO PUSH2 0x2FD4 JUMPI PUSH1 0x40 MLOAD PUSH3 0x461BCD PUSH1 0xE5 SHL DUP2 MSTORE PUSH1 0x20 PUSH1 0x4 DUP3 ADD MSTORE PUSH1 0x2 PUSH1 0x24 DUP3 ADD MSTORE PUSH32 0x6F61000000000000000000000000000000000000000000000000000000000000 PUSH1 0x44 DUP3 ADD MSTORE PUSH1 0x64 ADD PUSH2 0x7E4 JUMP JUMPDEST DUP6 DUP2 PUSH1 0x2 ADD SLOAD LT ISZERO PUSH2 0x3028 JUMPI PUSH1 0x40 MLOAD PUSH3 0x461BCD PUSH1 0xE5 SHL DUP2 MSTORE PUSH1 0x20 PUSH1 0x4 DUP3 ADD MSTORE PUSH1 0x2 PUSH1 0x24 DUP3 ADD MSTORE PUSH32 0x6F77000000000000000000000000000000000000000000000000000000000000 PUSH1 0x44 DUP3 ADD MSTORE PUSH1 0x64 ADD PUSH2 0x7E4 JUMP JUMPDEST DUP6 DUP2 PUSH1 0x0 ADD PUSH1 0x0 DUP3 DUP3 SLOAD PUSH2 0x303C SWAP2 SWAP1 PUSH2 0x3A7B JUMP JUMPDEST SWAP3 POP POP DUP2 SWAP1 SSTORE POP DUP6 DUP2 PUSH1 0x2 ADD PUSH1 0x0 DUP3 DUP3 SLOAD PUSH2 0x3057 SWAP2 SWAP1 PUSH2 0x3A7B JUMP JUMPDEST SWAP3 POP POP DUP2 SWAP1 SSTORE POP DUP6 DUP2 PUSH1 0x4 ADD PUSH1 0x0 DUP3 DUP3 SLOAD PUSH2 0x3072 SWAP2 SWAP1 PUSH2 0x3A68 JUMP JUMPDEST SWAP1 SWAP2 SSTORE POP PUSH2 0x3175 SWAP1 POP JUMP JUMPDEST DUP6 DUP2 PUSH1 0x1 ADD SLOAD LT ISZERO PUSH2 0x30D1 JUMPI PUSH1 0x40 MLOAD PUSH3 0x461BCD PUSH1 0xE5 SHL DUP2 MSTORE PUSH1 0x20 PUSH1 0x4 DUP3 ADD MSTORE PUSH1 0x2 PUSH1 0x24 DUP3 ADD MSTORE PUSH32 0x6461000000000000000000000000000000000000000000000000000000000000 PUSH1 0x44 DUP3 ADD MSTORE PUSH1 0x64 ADD PUSH2 0x7E4 JUMP JUMPDEST DUP6 DUP2 PUSH1 0x3 ADD SLOAD LT ISZERO PUSH2 0x3125 JUMPI PUSH1 0x40 MLOAD PUSH3 0x461BCD PUSH1 0xE5 SHL DUP2 MSTORE PUSH1 0x20 PUSH1 0x4 DUP3 ADD MSTORE PUSH1 0x2 PUSH1 0x24 DUP3 ADD MSTORE PUSH32 0x6477000000000000000000000000000000000000000000000000000000000000 PUSH1 0x44 DUP3 ADD MSTORE PUSH1 0x64 ADD PUSH2 0x7E4 JUMP JUMPDEST DUP6 DUP2 PUSH1 0x1 ADD PUSH1 0x0 DUP3 DUP3 SLOAD PUSH2 0x3139 SWAP2 SWAP1 PUSH2 0x3A7B JUMP JUMPDEST SWAP3 POP POP DUP2 SWAP1 SSTORE POP DUP6 DUP2 PUSH1 0x3 ADD PUSH1 0x0 DUP3 DUP3 SLOAD PUSH2 0x3154 SWAP2 SWAP1 PUSH2 0x3A7B JUMP JUMPDEST SWAP3 POP POP DUP2 SWAP1 SSTORE POP DUP6 DUP2 PUSH1 0x5 ADD PUSH1 0x0 DUP3 DUP3 SLOAD PUSH2 0x316F SWAP2 SWAP1 PUSH2 0x3A68 JUMP JUMPDEST SWAP1 SWAP2 SSTORE POP POP JUMPDEST POP POP POP POP POP POP POP POP POP JUMP JUMPDEST PUSH1 0x6 SLOAD PUSH1 0x1 PUSH1 0x1 PUSH1 0xA0 SHL SUB AND CALLER EQ PUSH2 0x31C0 JUMPI PUSH1 0x40 MLOAD PUSH3 0x461BCD PUSH1 0xE5 SHL DUP2 MSTORE PUSH1 0x20 PUSH1 0x4 DUP3 ADD MSTORE PUSH1 0x3 PUSH1 0x24 DUP3 ADD MSTORE PUSH3 0x37BBB7 PUSH1 0xE9 SHL PUSH1 0x44 DUP3 ADD MSTORE PUSH1 0x64 ADD PUSH2 0x7E4 JUMP JUMPDEST PUSH1 0x7 DUP1 SLOAD PUSH32 0xFFFFFFFFFFFFFFFFFFFFFFFF0000000000000000000000000000000000000000 AND PUSH1 0x1 PUSH1 0x1 PUSH1 0xA0 SHL SUB SWAP3 SWAP1 SWAP3 AND SWAP2 SWAP1 SWAP2 OR SWAP1 SSTORE JUMP JUMPDEST PUSH1 0x0 DUP1 DUP1 JUMPDEST PUSH1 0x9 PUSH1 0xFF DUP3 AND LT ISZERO PUSH2 0x328C JUMPI PUSH1 0x0 JUMPDEST PUSH1 0x9 PUSH1 0xFF DUP3 AND LT ISZERO PUSH2 0x3279 JUMPI PUSH1 0xFF DUP8 DUP2 AND PUSH1 0x0 SWAP1 DUP2 MSTORE PUSH1 0x21 PUSH1 0x20 SWAP1 DUP2 MSTORE PUSH1 0x40 DUP1 DUP4 KECCAK256 DUP11 DUP6 AND DUP5 MSTORE DUP3 MSTORE DUP1 DUP4 KECCAK256 DUP7 DUP6 AND DUP5 MSTORE DUP3 MSTORE DUP1 DUP4 KECCAK256 DUP6 DUP6 AND DUP5 MSTORE SWAP1 SWAP2 MSTORE SWAP1 KECCAK256 SLOAD DUP2 DUP8 AND SWAP2 AND SUB PUSH2 0x3267 JUMPI DUP3 PUSH2 0x3263 DUP2 PUSH2 0x3BBD JUMP JUMPDEST SWAP4 POP POP JUMPDEST DUP1 PUSH2 0x3271 DUP2 PUSH2 0x3B01 JUMP JUMPDEST SWAP2 POP POP PUSH2 0x320E JUMP JUMPDEST POP DUP1 PUSH2 0x3284 DUP2 PUSH2 0x3B01 JUMP JUMPDEST SWAP2 POP POP PUSH2 0x31FF JUMP JUMPDEST POP SWAP5 SWAP4 POP POP POP POP JUMP JUMPDEST PUSH1 0xFF DUP1 DUP7 AND PUSH1 0x0 SWAP1 DUP2 MSTORE PUSH1 0x20 DUP1 DUP1 MSTORE PUSH1 0x40 DUP1 DUP4 KECCAK256 SWAP4 DUP9 AND DUP4 MSTORE SWAP3 SWAP1 MSTORE SWAP1 DUP2 KECCAK256 DUP5 MLOAD SWAP1 SWAP2 SWAP1 DUP4 SWAP1 PUSH2 0x32C6 SWAP1 DUP7 SWAP1 PUSH2 0x3AA7 JUMP JUMPDEST PUSH2 0x32D0 SWAP2 SWAP1 PUSH2 0x3AED JUMP JUMPDEST SWAP1 POP PUSH1 0x0 DUP4 DUP6 DUP8 PUSH1 0x20 ADD MLOAD PUSH2 0x32E5 SWAP2 SWAP1 PUSH2 0x3AA7 JUMP JUMPDEST PUSH2 0x32EF SWAP2 SWAP1 PUSH2 0x3AED JUMP JUMPDEST SWAP1 POP PUSH1 0x0 DUP5 DUP7 DUP9 PUSH1 0x40 ADD MLOAD PUSH2 0x3304 SWAP2 SWAP1 PUSH2 0x3AA7 JUMP JUMPDEST PUSH2 0x330E SWAP2 SWAP1 PUSH2 0x3AED JUMP JUMPDEST SWAP1 POP PUSH1 0x0 DUP6 DUP8 DUP10 PUSH1 0x60 ADD MLOAD PUSH2 0x3323 SWAP2 SWAP1 PUSH2 0x3AA7 JUMP JUMPDEST PUSH2 0x332D SWAP2 SWAP1 PUSH2 0x3AED JUMP JUMPDEST DUP6 SLOAD SWAP1 SWAP2 POP DUP5 GT ISZERO PUSH2 0x3381 JUMPI PUSH1 0x40 MLOAD PUSH3 0x461BCD PUSH1 0xE5 SHL DUP2 MSTORE PUSH1 0x20 PUSH1 0x4 DUP3 ADD MSTORE PUSH1 0x1 PUSH1 0x24 DUP3 ADD MSTORE PUSH32 0x6600000000000000000000000000000000000000000000000000000000000000 PUSH1 0x44 DUP3 ADD MSTORE PUSH1 0x64 ADD PUSH2 0x7E4 JUMP JUMPDEST PUSH1 0x1 DUP6 ADD SLOAD DUP4 GT ISZERO PUSH2 0x33D5 JUMPI PUSH1 0x40 MLOAD PUSH3 0x461BCD PUSH1 0xE5 SHL DUP2 MSTORE PUSH1 0x20 PUSH1 0x4 DUP3 ADD MSTORE PUSH1 0x1 PUSH1 0x24 DUP3 ADD MSTORE PUSH32 0x7700000000000000000000000000000000000000000000000000000000000000 PUSH1 0x44 DUP3 ADD MSTORE PUSH1 0x64 ADD PUSH2 0x7E4 JUMP JUMPDEST PUSH1 0x2 DUP6 ADD SLOAD DUP3 GT ISZERO PUSH2 0x3429 JUMPI PUSH1 0x40 MLOAD PUSH3 0x461BCD PUSH1 0xE5 SHL DUP2 MSTORE PUSH1 0x20 PUSH1 0x4 DUP3 ADD MSTORE PUSH1 0x1 PUSH1 0x24 DUP3 ADD MSTORE PUSH32 0x7300000000000000000000000000000000000000000000000000000000000000 PUSH1 0x44 DUP3 ADD MSTORE PUSH1 0x64 ADD PUSH2 0x7E4 JUMP JUMPDEST PUSH1 0x3 DUP6 ADD SLOAD DUP2 GT ISZERO PUSH2 0x347D JUMPI PUSH1 0x40 MLOAD PUSH3 0x461BCD PUSH1 0xE5 SHL DUP2 MSTORE PUSH1 0x20 PUSH1 0x4 DUP3 ADD MSTORE PUSH1 0x1 PUSH1 0x24 DUP3 ADD MSTORE PUSH32 0x6900000000000000000000000000000000000000000000000000000000000000 PUSH1 0x44 DUP3 ADD MSTORE PUSH1 0x64 ADD PUSH2 0x7E4 JUMP JUMPDEST DUP5 SLOAD DUP5 SWAP1 DUP7 SWAP1 PUSH1 0x0 SWAP1 PUSH2 0x3491 SWAP1 DUP5 SWAP1 PUSH2 0x3A7B JUMP JUMPDEST SWAP1 SWAP2 SSTORE POP POP PUSH1 0x1 DUP6 ADD DUP1 SLOAD DUP5 SWAP2 SWAP1 PUSH1 0x0 SWAP1 PUSH2 0x34AD SWAP1 DUP5 SWAP1 PUSH2 0x3A7B JUMP JUMPDEST SWAP1 SWAP2 SSTORE POP POP PUSH1 0x2 DUP6 ADD DUP1 SLOAD DUP4 SWAP2 SWAP1 PUSH1 0x0 SWAP1 PUSH2 0x34C9 SWAP1 DUP5 SWAP1 PUSH2 0x3A7B JUMP JUMPDEST SWAP1 SWAP2 SSTORE POP POP PUSH1 0x3 DUP6 ADD DUP1 SLOAD DUP3 SWAP2 SWAP1 PUSH1 0x0 SWAP1 PUSH2 0x34E5 SWAP1 DUP5 SWAP1 PUSH2 0x3A7B JUMP JUMPDEST SWAP1 SWAP2 SSTORE POP PUSH2 0x34F6 SWAP1 POP DUP6 DUP12 DUP12 PUSH2 0x3502 JUMP JUMPDEST POP POP POP POP POP POP POP POP POP POP JUMP JUMPDEST PUSH1 0x3 DUP4 ADD SLOAD PUSH1 0x2 DUP5 ADD SLOAD PUSH1 0x1 DUP6 ADD SLOAD DUP6 SLOAD PUSH1 0x0 SWAP4 SWAP3 SWAP2 PUSH2 0x3521 SWAP2 PUSH2 0x3A68 JUMP JUMPDEST PUSH2 0x352B SWAP2 SWAP1 PUSH2 0x3A68 JUMP JUMPDEST PUSH2 0x3535 SWAP2 SWAP1 PUSH2 0x3A68 JUMP JUMPDEST PUSH1 0xF SWAP1 SWAP5 ADD DUP5 SWAP1 SSTORE POP PUSH1 0xFF SWAP2 DUP3 AND PUSH1 0x0 SWAP1 DUP2 MSTORE PUSH1 0x5 PUSH1 0x20 SWAP1 DUP2 MSTORE PUSH1 0x40 DUP1 DUP4 KECCAK256 SWAP4 SWAP1 SWAP5 AND DUP3 MSTORE SWAP2 SWAP1 SWAP2 MSTORE KECCAK256 SSTORE JUMP JUMPDEST PUSH1 0x40 MLOAD DUP1 PUSH2 0x120 ADD PUSH1 0x40 MSTORE DUP1 PUSH1 0x9 SWAP1 JUMPDEST PUSH2 0x357A PUSH2 0x3590 JUMP JUMPDEST DUP2 MSTORE PUSH1 0x20 ADD SWAP1 PUSH1 0x1 SWAP1 SUB SWAP1 DUP2 PUSH2 0x3572 JUMPI SWAP1 POP POP SWAP1 JUMP JUMPDEST PUSH1 0x40 MLOAD DUP1 PUSH2 0x120 ADD PUSH1 0x40 MSTORE DUP1 PUSH1 0x9 SWAP1 PUSH1 0x20 DUP3 MUL DUP1 CALLDATASIZE DUP4 CALLDATACOPY POP SWAP2 SWAP3 SWAP2 POP POP JUMP JUMPDEST PUSH1 0xFF DUP2 AND DUP2 EQ PUSH2 0x35BE JUMPI PUSH1 0x0 DUP1 REVERT JUMPDEST POP JUMP JUMPDEST PUSH1 0x0 DUP1 PUSH1 0x0 DUP1 PUSH1 0x80 DUP6 DUP8 SUB SLT ISZERO PUSH2 0x35D7 JUMPI PUSH1 0x0 DUP1 REVERT JUMPDEST DUP5 CALLDATALOAD PUSH2 0x35E2 DUP2 PUSH2 0x35AF JUMP JUMPDEST SWAP4 POP PUSH1 0x20 DUP6 ADD CALLDATALOAD PUSH2 0x35F2 DUP2 PUSH2 0x35AF JUMP JUMPDEST SWAP3 POP PUSH1 0x40 DUP6 ADD CALLDATALOAD PUSH2 0x3602 DUP2 PUSH2 0x35AF JUMP JUMPDEST SWAP4 SWAP7 SWAP3 SWAP6 POP SWAP3 SWAP4 PUSH1 0x60 ADD CALLDATALOAD SWAP3 POP POP JUMP JUMPDEST PUSH1 0x0 DUP1 PUSH1 0x0 DUP1 PUSH1 0x0 PUSH1 0xA0 DUP7 DUP9 SUB SLT ISZERO PUSH2 0x362A JUMPI PUSH1 0x0 DUP1 REVERT JUMPDEST DUP6 CALLDATALOAD PUSH2 0x3635 DUP2 PUSH2 0x35AF JUMP JUMPDEST SWAP5 POP PUSH1 0x20 DUP7 ADD CALLDATALOAD PUSH2 0x3645 DUP2 PUSH2 0x35AF JUMP JUMPDEST SWAP4 POP PUSH1 0x40 DUP7 ADD CALLDATALOAD PUSH2 0x3655 DUP2 PUSH2 0x35AF JUMP JUMPDEST SWAP3 POP PUSH1 0x60 DUP7 ADD CALLDATALOAD PUSH2 0x3665 DUP2 PUSH2 0x35AF JUMP JUMPDEST SWAP2 POP PUSH1 0x80 DUP7 ADD CALLDATALOAD PUSH2 0x3675 DUP2 PUSH2 0x35AF JUMP JUMPDEST DUP1 SWAP2 POP POP SWAP3 SWAP6 POP SWAP3 SWAP6 SWAP1 SWAP4 POP JUMP JUMPDEST PUSH1 0x0 DUP1 PUSH1 0x40 DUP4 DUP6 SUB SLT ISZERO PUSH2 0x3696 JUMPI PUSH1 0x0 DUP1 REVERT JUMPDEST DUP3 CALLDATALOAD PUSH2 0x36A1 DUP2 PUSH2 0x35AF JUMP JUMPDEST SWAP2 POP PUSH1 0x20 DUP4 ADD CALLDATALOAD PUSH2 0x36B1 DUP2 PUSH2 0x35AF JUMP JUMPDEST DUP1 SWAP2 POP POP SWAP3 POP SWAP3 SWAP1 POP JUMP JUMPDEST PUSH1 0x0 DUP1 PUSH1 0x0 PUSH1 0x60 DUP5 DUP7 SUB SLT ISZERO PUSH2 0x36D1 JUMPI PUSH1 0x0 DUP1 REVERT JUMPDEST DUP4 CALLDATALOAD PUSH2 0x36DC DUP2 PUSH2 0x35AF JUMP JUMPDEST SWAP3 POP PUSH1 0x20 DUP5 ADD CALLDATALOAD PUSH2 0x36EC DUP2 PUSH2 0x35AF JUMP JUMPDEST SWAP2 POP PUSH1 0x40 DUP5 ADD CALLDATALOAD PUSH2 0x36FC DUP2 PUSH2 0x35AF JUMP JUMPDEST DUP1 SWAP2 POP POP SWAP3 POP SWAP3 POP SWAP3 JUMP JUMPDEST PUSH1 0x0 DUP1 PUSH1 0x0 DUP1 PUSH1 0x0 PUSH1 0xA0 DUP7 DUP9 SUB SLT ISZERO PUSH2 0x371F JUMPI PUSH1 0x0 DUP1 REVERT JUMPDEST DUP6 CALLDATALOAD PUSH2 0x372A DUP2 PUSH2 0x35AF JUMP JUMPDEST SWAP5 POP PUSH1 0x20 DUP7 ADD CALLDATALOAD PUSH2 0x373A DUP2 PUSH2 0x35AF JUMP JUMPDEST SWAP4 POP PUSH1 0x40 DUP7 ADD CALLDATALOAD PUSH2 0x374A DUP2 PUSH2 0x35AF JUMP JUMPDEST SWAP3 POP PUSH1 0x60 DUP7 ADD CALLDATALOAD SWAP2 POP PUSH1 0x80 DUP7 ADD CALLDATALOAD DUP1 ISZERO ISZERO DUP2 EQ PUSH2 0x3675 JUMPI PUSH1 0x0 DUP1 REVERT JUMPDEST PUSH1 0x1 PUSH1 0x1 PUSH1 0xA0 SHL SUB DUP2 AND DUP2 EQ PUSH2 0x35BE JUMPI PUSH1 0x0 DUP1 REVERT JUMPDEST PUSH1 0x0 PUSH1 0x20 DUP3 DUP5 SUB SLT ISZERO PUSH2 0x378D JUMPI PUSH1 0x0 DUP1 REVERT JUMPDEST DUP2 CALLDATALOAD PUSH2 0x3798 DUP2 PUSH2 0x3766 JUMP JUMPDEST SWAP4 SWAP3 POP POP POP JUMP JUMPDEST PUSH1 0x0 DUP1 PUSH1 0x0 DUP1 PUSH1 0x80 DUP6 DUP8 SUB SLT ISZERO PUSH2 0x37B5 JUMPI PUSH1 0x0 DUP1 REVERT JUMPDEST DUP5 CALLDATALOAD PUSH2 0x37C0 DUP2 PUSH2 0x35AF JUMP JUMPDEST SWAP4 POP PUSH1 0x20 DUP6 ADD CALLDATALOAD PUSH2 0x37D0 DUP2 PUSH2 0x35AF JUMP JUMPDEST SWAP3 POP PUSH1 0x40 DUP6 ADD CALLDATALOAD PUSH2 0x37E0 DUP2 PUSH2 0x35AF JUMP JUMPDEST SWAP2 POP PUSH1 0x60 DUP6 ADD CALLDATALOAD PUSH2 0x37F0 DUP2 PUSH2 0x35AF JUMP JUMPDEST SWAP4 SWAP7 SWAP3 SWAP6 POP SWAP1 SWAP4 POP POP JUMP JUMPDEST PUSH1 0x0 PUSH2 0x220 DUP3 ADD SWAP1 POP DUP10 MLOAD DUP3 MSTORE PUSH1 0x20 DUP11 ADD MLOAD PUSH1 0x20 DUP4 ADD MSTORE PUSH1 0x40 DUP11 ADD MLOAD PUSH1 0x40 DUP4 ADD MSTORE PUSH1 0x60 DUP11 ADD MLOAD PUSH1 0x60 DUP4 ADD MSTORE PUSH2 0xFFFF DUP1 DUP11 AND PUSH1 0x80 DUP5 ADD MSTORE DUP9 PUSH1 0xA0 DUP5 ADD MSTORE DUP1 DUP9 AND PUSH1 0xC0 DUP5 ADD MSTORE POP DUP6 PUSH1 0xE0 DUP4 ADD MSTORE DUP5 MLOAD PUSH2 0x100 DUP4 ADD MSTORE PUSH1 0x20 DUP6 ADD MLOAD PUSH2 0x120 DUP4 ADD MSTORE PUSH1 0x40 DUP6 ADD MLOAD PUSH2 0x140 DUP4 ADD MSTORE PUSH1 0x60 DUP6 ADD MLOAD PUSH2 0x160 DUP4 ADD MSTORE PUSH1 0x80 DUP6 ADD MLOAD PUSH2 0x180 DUP4 ADD MSTORE PUSH1 0xA0 DUP6 ADD MLOAD PUSH2 0x1A0 DUP4 ADD MSTORE PUSH2 0x38A3 PUSH2 0x1C0 DUP4 ADD DUP6 DUP1 MLOAD PUSH1 0xFF SWAP1 DUP2 AND DUP4 MSTORE PUSH1 0x20 SWAP2 DUP3 ADD MLOAD AND SWAP2 ADD MSTORE JUMP JUMPDEST DUP3 PUSH2 0x200 DUP4 ADD MSTORE SWAP10 SWAP9 POP POP POP POP POP POP POP POP POP JUMP JUMPDEST PUSH1 0x0 PUSH2 0x1E0 DUP3 ADD SWAP1 POP DUP3 MLOAD DUP3 MSTORE PUSH1 0x20 DUP4 ADD MLOAD PUSH1 0x20 DUP4 ADD MSTORE PUSH1 0x40 DUP4 ADD MLOAD PUSH1 0x40 DUP4 ADD MSTORE PUSH1 0x60 DUP4 ADD MLOAD PUSH1 0x60 DUP4 ADD MSTORE PUSH1 0x80 DUP4 ADD MLOAD PUSH2 0x38F7 PUSH1 0x80 DUP5 ADD DUP3 PUSH2 0xFFFF AND SWAP1 MSTORE JUMP JUMPDEST POP PUSH1 0xA0 DUP4 DUP2 ADD MLOAD SWAP1 DUP4 ADD MSTORE PUSH1 0xC0 DUP1 DUP5 ADD MLOAD SWAP1 DUP4 ADD MSTORE PUSH1 0xE0 DUP1 DUP5 ADD MLOAD SWAP1 DUP4 ADD MSTORE PUSH2 0x100 DUP1 DUP5 ADD MLOAD SWAP1 DUP4 ADD MSTORE PUSH2 0x120 DUP1 DUP5 ADD MLOAD SWAP1 DUP4 ADD MSTORE PUSH2 0x140 DUP1 DUP5 ADD MLOAD SWAP1 DUP4 ADD MSTORE PUSH2 0x160 DUP1 DUP5 ADD MLOAD SWAP1 DUP4 ADD MSTORE PUSH2 0x180 DUP1 DUP5 ADD MLOAD PUSH1 0xFF DUP2 AND DUP3 DUP6 ADD MSTORE POP POP PUSH2 0x1A0 DUP4 DUP2 ADD MLOAD PUSH1 0xFF DUP2 AND DUP5 DUP4 ADD MSTORE POP POP PUSH2 0x1C0 SWAP3 DUP4 ADD MLOAD SWAP2 SWAP1 SWAP3 ADD MSTORE SWAP1 JUMP JUMPDEST PUSH2 0xA20 DUP2 ADD DUP2 DUP4 PUSH1 0x0 DUP1 JUMPDEST PUSH1 0x9 DUP1 DUP3 LT PUSH2 0x398D JUMPI POP PUSH2 0x39CE JUMP JUMPDEST DUP4 MLOAD DUP6 DUP5 JUMPDEST DUP4 DUP2 LT ISZERO PUSH2 0x39B3 JUMPI DUP3 MLOAD PUSH1 0xFF AND DUP3 MSTORE PUSH1 0x20 SWAP3 DUP4 ADD SWAP3 SWAP1 SWAP2 ADD SWAP1 PUSH1 0x1 ADD PUSH2 0x3992 JUMP JUMPDEST POP POP POP PUSH2 0x120 SWAP5 SWAP1 SWAP5 ADD SWAP4 POP PUSH1 0x20 SWAP3 SWAP1 SWAP3 ADD SWAP2 PUSH1 0x1 ADD PUSH2 0x397E JUMP JUMPDEST POP POP POP POP SWAP3 SWAP2 POP POP JUMP JUMPDEST PUSH1 0x0 PUSH1 0x20 DUP3 DUP5 SUB SLT ISZERO PUSH2 0x39EA JUMPI PUSH1 0x0 DUP1 REVERT JUMPDEST DUP2 CALLDATALOAD PUSH2 0x3798 DUP2 PUSH2 0x35AF JUMP JUMPDEST PUSH1 0x0 DUP1 PUSH1 0x0 PUSH1 0x60 DUP5 DUP7 SUB SLT ISZERO PUSH2 0x3A0A JUMPI PUSH1 0x0 DUP1 REVERT JUMPDEST DUP4 CALLDATALOAD PUSH2 0xFFFF DUP2 AND DUP2 EQ PUSH2 0x36DC JUMPI PUSH1 0x0 DUP1 REVERT JUMPDEST PUSH1 0x0 PUSH1 0x20 DUP3 DUP5 SUB SLT ISZERO PUSH2 0x3A2E JUMPI PUSH1 0x0 DUP1 REVERT JUMPDEST DUP2 MLOAD PUSH2 0x3798 DUP2 PUSH2 0x3766 JUMP JUMPDEST PUSH32 0x4E487B7100000000000000000000000000000000000000000000000000000000 PUSH1 0x0 MSTORE PUSH1 0x11 PUSH1 0x4 MSTORE PUSH1 0x24 PUSH1 0x0 REVERT JUMPDEST DUP1 DUP3 ADD DUP1 DUP3 GT ISZERO PUSH2 0xF70 JUMPI PUSH2 0xF70 PUSH2 0x3A39 JUMP JUMPDEST DUP2 DUP2 SUB DUP2 DUP2 GT ISZERO PUSH2 0xF70 JUMPI PUSH2 0xF70 PUSH2 0x3A39 JUMP JUMPDEST PUSH1 0xFF DUP2 DUP2 AND DUP4 DUP3 AND ADD SWAP1 DUP2 GT ISZERO PUSH2 0xF70 JUMPI PUSH2 0xF70 PUSH2 0x3A39 JUMP JUMPDEST DUP1 DUP3 MUL DUP2 ISZERO DUP3 DUP3 DIV DUP5 EQ OR PUSH2 0xF70 JUMPI PUSH2 0xF70 PUSH2 0x3A39 JUMP JUMPDEST PUSH32 0x4E487B7100000000000000000000000000000000000000000000000000000000 PUSH1 0x0 MSTORE PUSH1 0x12 PUSH1 0x4 MSTORE PUSH1 0x24 PUSH1 0x0 REVERT JUMPDEST PUSH1 0x0 DUP3 PUSH2 0x3AFC JUMPI PUSH2 0x3AFC PUSH2 0x3ABE JUMP JUMPDEST POP DIV SWAP1 JUMP JUMPDEST PUSH1 0x0 PUSH1 0xFF DUP3 AND PUSH1 0xFF DUP2 SUB PUSH2 0x3B17 JUMPI PUSH2 0x3B17 PUSH2 0x3A39 JUMP JUMPDEST PUSH1 0x1 ADD SWAP3 SWAP2 POP POP JUMP JUMPDEST PUSH32 0x4E487B7100000000000000000000000000000000000000000000000000000000 PUSH1 0x0 MSTORE PUSH1 0x32 PUSH1 0x4 MSTORE PUSH1 0x24 PUSH1 0x0 REVERT JUMPDEST PUSH2 0xFFFF DUP3 DUP2 AND DUP3 DUP3 AND SUB SWAP1 DUP1 DUP3 GT ISZERO PUSH2 0x3B6A JUMPI PUSH2 0x3B6A PUSH2 0x3A39 JUMP JUMPDEST POP SWAP3 SWAP2 POP POP JUMP JUMPDEST PUSH1 0x0 PUSH1 0x20 DUP3 DUP5 SUB SLT ISZERO PUSH2 0x3B83 JUMPI PUSH1 0x0 DUP1 REVERT JUMPDEST DUP2 MLOAD PUSH2 0x3798 DUP2 PUSH2 0x35AF JUMP JUMPDEST PUSH1 0x0 DUP3 PUSH2 0x3B9D JUMPI PUSH2 0x3B9D PUSH2 0x3ABE JUMP JUMPDEST POP MOD SWAP1 JUMP JUMPDEST PUSH2 0xFFFF DUP2 DUP2 AND DUP4 DUP3 AND ADD SWAP1 DUP1 DUP3 GT ISZERO PUSH2 0x3B6A JUMPI PUSH2 0x3B6A PUSH2 0x3A39 JUMP JUMPDEST PUSH1 0x0 PUSH32 0xFFFFFFFFFFFFFFFFFFFFFFFFFFFFFFFFFFFFFFFFFFFFFFFFFFFFFFFFFFFFFFFF DUP3 SUB PUSH2 0x3BEE JUMPI PUSH2 0x3BEE PUSH2 0x3A39 JUMP JUMPDEST POP PUSH1 0x1 ADD SWAP1 JUMP INVALID LOG2 PUSH5 0x6970667358 0x22 SLT KECCAK256 PUSH22 0x142AAA45AEAAF109E333A998DC910F69049EB6E97DC6 SWAP4 LOG0 XOR 0xCB 0xCA PUSH11 0x9A43DA64736F6C63430008 SLT STOP CALLER "
		},
		"gasEstimates": {
			"creation": {
				"codeDepositCost": "3080600",
				"executionCost": "infinite",
				"totalCost": "infinite"
			},
			"external": {
				"_clan()": "2404",
				"adjustTileResources(uint8,uint8,uint8,uint256,bool)": "infinite",
				"baseDefensiveArmorCost()": "8719",
				"baseDefensiveSoldierCost()": "8761",
				"baseDefensiveWeaponCost()": "8719",
				"baseOffensiveArmorCost()": "8741",
				"baseOffensiveSoldierCost()": "8741",
				"baseOffensiveWeaponCost()": "8762",
				"buildingCosts(uint8)": "9014",
				"calcTurn(uint8,uint8)": "infinite",
				"createSoldier(uint8,uint8,uint8,uint256)": "infinite",
				"demolishBuilding(uint8,uint8,uint8,uint8)": "infinite",
				"getAllBuildings(uint8,uint8)": "infinite",
				"getTileData(uint8,uint8)": "infinite",
				"getTotalTurnsUsedByTile(uint8,uint8)": "infinite",
				"getTowerCount(uint8,uint8)": "infinite",
				"getTurn(uint8,uint8)": "infinite",
				"hasClanHall(address)": "2636",
				"hasMarket(address)": "2615",
				"interiorMapSize()": "293",
				"interiorMaps(uint8,uint8,uint8,uint8)": "infinite",
				"marketplaceAddress()": "2382",
				"owner()": "2405",
				"placeBuilding(uint8,uint8,uint8,uint8,uint8)": "infinite",
				"pointsByCoords(uint8,uint8)": "infinite",
				"produceArmor(uint8,uint8,uint8,uint256)": "infinite",
				"produceWeapon(uint8,uint8,uint8,uint256)": "infinite",
				"recalculatePointsAfterAttack(uint8,uint8)": "infinite",
				"setClanAddress(address)": "26758",
				"setMarketAddress(address)": "26800",
				"tileMapPhaser()": "2449",
				"tiles(uint8,uint8)": "infinite",
				"totalTurnsUsedByTile(uint8,uint8)": "infinite",
				"turnsPerLevel()": "251",
				"upgradeTech(uint8,uint8,uint8)": "infinite",
				"useTurns(uint16,uint8,uint8)": "infinite"
			},
			"internal": {
				"_initializeBuildingCosts()": "infinite",
				"_recalculatePoints(struct TheLand.TileData storage pointer,uint8,uint8)": "infinite",
				"applyProductionCost(uint8,uint8,struct TheLand.Resources memory,uint256,uint256)": "infinite",
				"countBuildings(uint8,uint8,uint8)": "infinite"
			}
		},
		"methodIdentifiers": {
			"_clan()": "7cca26d9",
			"adjustTileResources(uint8,uint8,uint8,uint256,bool)": "3e5f2857",
			"baseDefensiveArmorCost()": "8c87fa4f",
			"baseDefensiveSoldierCost()": "f9c64454",
			"baseDefensiveWeaponCost()": "537e8f49",
			"baseOffensiveArmorCost()": "620a9a99",
			"baseOffensiveSoldierCost()": "a596b645",
			"baseOffensiveWeaponCost()": "800bfa27",
			"buildingCosts(uint8)": "c1712d57",
			"calcTurn(uint8,uint8)": "dd4b466b",
			"createSoldier(uint8,uint8,uint8,uint256)": "f89d7571",
			"demolishBuilding(uint8,uint8,uint8,uint8)": "60b76b52",
			"getAllBuildings(uint8,uint8)": "be9a263c",
			"getTileData(uint8,uint8)": "bd638378",
			"getTotalTurnsUsedByTile(uint8,uint8)": "41ede44f",
			"getTowerCount(uint8,uint8)": "2a490ae8",
			"getTurn(uint8,uint8)": "f3245254",
			"hasClanHall(address)": "e3198e08",
			"hasMarket(address)": "5e75968e",
			"interiorMapSize()": "decc1bbf",
			"interiorMaps(uint8,uint8,uint8,uint8)": "a2f9cc5b",
			"marketplaceAddress()": "daa17f49",
			"owner()": "8da5cb5b",
			"placeBuilding(uint8,uint8,uint8,uint8,uint8)": "0ee22f31",
			"pointsByCoords(uint8,uint8)": "2ef78865",
			"produceArmor(uint8,uint8,uint8,uint256)": "07722bc2",
			"produceWeapon(uint8,uint8,uint8,uint256)": "4274b164",
			"recalculatePointsAfterAttack(uint8,uint8)": "7659bc60",
			"setClanAddress(address)": "5d219d5f",
			"setMarketAddress(address)": "fae92612",
			"tileMapPhaser()": "4f264b03",
			"tiles(uint8,uint8)": "9b562df2",
			"totalTurnsUsedByTile(uint8,uint8)": "887aca72",
			"turnsPerLevel()": "bdc7da8e",
			"upgradeTech(uint8,uint8,uint8)": "351662e4",
			"useTurns(uint16,uint8,uint8)": "e9dd6583"
		}
	},
	"abi": [
		{
			"inputs": [
				{
					"internalType": "address",
					"name": "_tileMapPhaser",
					"type": "address"
				}
			],
			"stateMutability": "nonpayable",
			"type": "constructor"
		},
		{
			"anonymous": false,
			"inputs": [
				{
					"indexed": true,
					"internalType": "address",
					"name": "user",
					"type": "address"
				},
				{
					"indexed": false,
					"internalType": "uint256",
					"name": "turnsUsed",
					"type": "uint256"
				},
				{
					"indexed": false,
					"internalType": "uint8",
					"name": "x",
					"type": "uint8"
				},
				{
					"indexed": false,
					"internalType": "uint8",
					"name": "y",
					"type": "uint8"
				}
			],
			"name": "TurnsUsed",
			"type": "event"
		},
		{
			"inputs": [],
			"name": "_clan",
			"outputs": [
				{
					"internalType": "contract IClan",
					"name": "",
					"type": "address"
				}
			],
			"stateMutability": "view",
			"type": "function"
		},
		{
			"inputs": [
				{
					"internalType": "uint8",
					"name": "x",
					"type": "uint8"
				},
				{
					"internalType": "uint8",
					"name": "y",
					"type": "uint8"
				},
				{
					"internalType": "uint8",
					"name": "resourceType",
					"type": "uint8"
				},
				{
					"internalType": "uint256",
					"name": "amount",
					"type": "uint256"
				},
				{
					"internalType": "bool",
					"name": "isAdding",
					"type": "bool"
				}
			],
			"name": "adjustTileResources",
			"outputs": [],
			"stateMutability": "nonpayable",
			"type": "function"
		},
		{
			"inputs": [],
			"name": "baseDefensiveArmorCost",
			"outputs": [
				{
					"internalType": "uint256",
					"name": "food",
					"type": "uint256"
				},
				{
					"internalType": "uint256",
					"name": "wood",
					"type": "uint256"
				},
				{
					"internalType": "uint256",
					"name": "stone",
					"type": "uint256"
				},
				{
					"internalType": "uint256",
					"name": "iron",
					"type": "uint256"
				}
			],
			"stateMutability": "view",
			"type": "function"
		},
		{
			"inputs": [],
			"name": "baseDefensiveSoldierCost",
			"outputs": [
				{
					"internalType": "uint256",
					"name": "food",
					"type": "uint256"
				},
				{
					"internalType": "uint256",
					"name": "wood",
					"type": "uint256"
				},
				{
					"internalType": "uint256",
					"name": "stone",
					"type": "uint256"
				},
				{
					"internalType": "uint256",
					"name": "iron",
					"type": "uint256"
				}
			],
			"stateMutability": "view",
			"type": "function"
		},
		{
			"inputs": [],
			"name": "baseDefensiveWeaponCost",
			"outputs": [
				{
					"internalType": "uint256",
					"name": "food",
					"type": "uint256"
				},
				{
					"internalType": "uint256",
					"name": "wood",
					"type": "uint256"
				},
				{
					"internalType": "uint256",
					"name": "stone",
					"type": "uint256"
				},
				{
					"internalType": "uint256",
					"name": "iron",
					"type": "uint256"
				}
			],
			"stateMutability": "view",
			"type": "function"
		},
		{
			"inputs": [],
			"name": "baseOffensiveArmorCost",
			"outputs": [
				{
					"internalType": "uint256",
					"name": "food",
					"type": "uint256"
				},
				{
					"internalType": "uint256",
					"name": "wood",
					"type": "uint256"
				},
				{
					"internalType": "uint256",
					"name": "stone",
					"type": "uint256"
				},
				{
					"internalType": "uint256",
					"name": "iron",
					"type": "uint256"
				}
			],
			"stateMutability": "view",
			"type": "function"
		},
		{
			"inputs": [],
			"name": "baseOffensiveSoldierCost",
			"outputs": [
				{
					"internalType": "uint256",
					"name": "food",
					"type": "uint256"
				},
				{
					"internalType": "uint256",
					"name": "wood",
					"type": "uint256"
				},
				{
					"internalType": "uint256",
					"name": "stone",
					"type": "uint256"
				},
				{
					"internalType": "uint256",
					"name": "iron",
					"type": "uint256"
				}
			],
			"stateMutability": "view",
			"type": "function"
		},
		{
			"inputs": [],
			"name": "baseOffensiveWeaponCost",
			"outputs": [
				{
					"internalType": "uint256",
					"name": "food",
					"type": "uint256"
				},
				{
					"internalType": "uint256",
					"name": "wood",
					"type": "uint256"
				},
				{
					"internalType": "uint256",
					"name": "stone",
					"type": "uint256"
				},
				{
					"internalType": "uint256",
					"name": "iron",
					"type": "uint256"
				}
			],
			"stateMutability": "view",
			"type": "function"
		},
		{
			"inputs": [
				{
					"internalType": "uint8",
					"name": "",
					"type": "uint8"
				}
			],
			"name": "buildingCosts",
			"outputs": [
				{
					"internalType": "uint256",
					"name": "food",
					"type": "uint256"
				},
				{
					"internalType": "uint256",
					"name": "wood",
					"type": "uint256"
				},
				{
					"internalType": "uint256",
					"name": "stone",
					"type": "uint256"
				},
				{
					"internalType": "uint256",
					"name": "iron",
					"type": "uint256"
				}
			],
			"stateMutability": "view",
			"type": "function"
		},
		{
			"inputs": [
				{
					"internalType": "uint8",
					"name": "mainX",
					"type": "uint8"
				},
				{
					"internalType": "uint8",
					"name": "mainY",
					"type": "uint8"
				}
			],
			"name": "calcTurn",
			"outputs": [],
			"stateMutability": "nonpayable",
			"type": "function"
		},
		{
			"inputs": [
				{
					"internalType": "uint8",
					"name": "mainX",
					"type": "uint8"
				},
				{
					"internalType": "uint8",
					"name": "mainY",
					"type": "uint8"
				},
				{
					"internalType": "uint8",
					"name": "soldierType",
					"type": "uint8"
				},
				{
					"internalType": "uint256",
					"name": "quantity",
					"type": "uint256"
				}
			],
			"name": "createSoldier",
			"outputs": [],
			"stateMutability": "nonpayable",
			"type": "function"
		},
		{
			"inputs": [
				{
					"internalType": "uint8",
					"name": "mainX",
					"type": "uint8"
				},
				{
					"internalType": "uint8",
					"name": "mainY",
					"type": "uint8"
				},
				{
					"internalType": "uint8",
					"name": "interiorX",
					"type": "uint8"
				},
				{
					"internalType": "uint8",
					"name": "interiorY",
					"type": "uint8"
				}
			],
			"name": "demolishBuilding",
			"outputs": [],
			"stateMutability": "nonpayable",
			"type": "function"
		},
		{
			"inputs": [
				{
					"internalType": "uint8",
					"name": "mainX",
					"type": "uint8"
				},
				{
					"internalType": "uint8",
					"name": "mainY",
					"type": "uint8"
				}
			],
			"name": "getAllBuildings",
			"outputs": [
				{
					"internalType": "uint8[9][9]",
					"name": "",
					"type": "uint8[9][9]"
				}
			],
			"stateMutability": "view",
			"type": "function"
		},
		{
			"inputs": [
				{
					"internalType": "uint8",
					"name": "x",
					"type": "uint8"
				},
				{
					"internalType": "uint8",
					"name": "y",
					"type": "uint8"
				}
			],
			"name": "getTileData",
			"outputs": [
				{
					"components": [
						{
							"internalType": "uint256",
							"name": "food",
							"type": "uint256"
						},
						{
							"internalType": "uint256",
							"name": "wood",
							"type": "uint256"
						},
						{
							"internalType": "uint256",
							"name": "stone",
							"type": "uint256"
						},
						{
							"internalType": "uint256",
							"name": "iron",
							"type": "uint256"
						},
						{
							"internalType": "uint16",
							"name": "level",
							"type": "uint16"
						},
						{
							"internalType": "uint256",
							"name": "accumulatedTurns",
							"type": "uint256"
						},
						{
							"internalType": "uint256",
							"name": "offensiveArmor",
							"type": "uint256"
						},
						{
							"internalType": "uint256",
							"name": "defensiveArmor",
							"type": "uint256"
						},
						{
							"internalType": "uint256",
							"name": "offensiveWeapon",
							"type": "uint256"
						},
						{
							"internalType": "uint256",
							"name": "defensiveWeapon",
							"type": "uint256"
						},
						{
							"internalType": "uint256",
							"name": "offensiveSoldier",
							"type": "uint256"
						},
						{
							"internalType": "uint256",
							"name": "defensiveSoldier",
							"type": "uint256"
						},
						{
							"internalType": "uint8",
							"name": "offensiveTech",
							"type": "uint8"
						},
						{
							"internalType": "uint8",
							"name": "defensiveTech",
							"type": "uint8"
						},
						{
							"internalType": "uint256",
							"name": "points",
							"type": "uint256"
						}
					],
					"internalType": "struct TheLand.TileDataResponse",
					"name": "",
					"type": "tuple"
				}
			],
			"stateMutability": "view",
			"type": "function"
		},
		{
			"inputs": [
				{
					"internalType": "uint8",
					"name": "x",
					"type": "uint8"
				},
				{
					"internalType": "uint8",
					"name": "y",
					"type": "uint8"
				}
			],
			"name": "getTotalTurnsUsedByTile",
			"outputs": [
				{
					"internalType": "uint256",
					"name": "",
					"type": "uint256"
				}
			],
			"stateMutability": "view",
			"type": "function"
		},
		{
			"inputs": [
				{
					"internalType": "uint8",
					"name": "mainX",
					"type": "uint8"
				},
				{
					"internalType": "uint8",
					"name": "mainY",
					"type": "uint8"
				}
			],
			"name": "getTowerCount",
			"outputs": [
				{
					"internalType": "uint256",
					"name": "",
					"type": "uint256"
				}
			],
			"stateMutability": "view",
			"type": "function"
		},
		{
			"inputs": [
				{
					"internalType": "uint8",
					"name": "mainX",
					"type": "uint8"
				},
				{
					"internalType": "uint8",
					"name": "mainY",
					"type": "uint8"
				}
			],
			"name": "getTurn",
			"outputs": [
				{
					"internalType": "uint256",
					"name": "",
					"type": "uint256"
				}
			],
			"stateMutability": "view",
			"type": "function"
		},
		{
			"inputs": [
				{
					"internalType": "address",
					"name": "",
					"type": "address"
				}
			],
			"name": "hasClanHall",
			"outputs": [
				{
					"internalType": "bool",
					"name": "",
					"type": "bool"
				}
			],
			"stateMutability": "view",
			"type": "function"
		},
		{
			"inputs": [
				{
					"internalType": "address",
					"name": "",
					"type": "address"
				}
			],
			"name": "hasMarket",
			"outputs": [
				{
					"internalType": "bool",
					"name": "",
					"type": "bool"
				}
			],
			"stateMutability": "view",
			"type": "function"
		},
		{
			"inputs": [],
			"name": "interiorMapSize",
			"outputs": [
				{
					"internalType": "uint8",
					"name": "",
					"type": "uint8"
				}
			],
			"stateMutability": "view",
			"type": "function"
		},
		{
			"inputs": [
				{
					"internalType": "uint8",
					"name": "",
					"type": "uint8"
				},
				{
					"internalType": "uint8",
					"name": "",
					"type": "uint8"
				},
				{
					"internalType": "uint8",
					"name": "",
					"type": "uint8"
				},
				{
					"internalType": "uint8",
					"name": "",
					"type": "uint8"
				}
			],
			"name": "interiorMaps",
			"outputs": [
				{
					"internalType": "uint8",
					"name": "",
					"type": "uint8"
				}
			],
			"stateMutability": "view",
			"type": "function"
		},
		{
			"inputs": [],
			"name": "marketplaceAddress",
			"outputs": [
				{
					"internalType": "address",
					"name": "",
					"type": "address"
				}
			],
			"stateMutability": "view",
			"type": "function"
		},
		{
			"inputs": [],
			"name": "owner",
			"outputs": [
				{
					"internalType": "address",
					"name": "",
					"type": "address"
				}
			],
			"stateMutability": "view",
			"type": "function"
		},
		{
			"inputs": [
				{
					"internalType": "uint8",
					"name": "mainX",
					"type": "uint8"
				},
				{
					"internalType": "uint8",
					"name": "mainY",
					"type": "uint8"
				},
				{
					"internalType": "uint8",
					"name": "interiorX",
					"type": "uint8"
				},
				{
					"internalType": "uint8",
					"name": "interiorY",
					"type": "uint8"
				},
				{
					"internalType": "uint8",
					"name": "buildingType",
					"type": "uint8"
				}
			],
			"name": "placeBuilding",
			"outputs": [],
			"stateMutability": "nonpayable",
			"type": "function"
		},
		{
			"inputs": [
				{
					"internalType": "uint8",
					"name": "",
					"type": "uint8"
				},
				{
					"internalType": "uint8",
					"name": "",
					"type": "uint8"
				}
			],
			"name": "pointsByCoords",
			"outputs": [
				{
					"internalType": "uint256",
					"name": "",
					"type": "uint256"
				}
			],
			"stateMutability": "view",
			"type": "function"
		},
		{
			"inputs": [
				{
					"internalType": "uint8",
					"name": "mainX",
					"type": "uint8"
				},
				{
					"internalType": "uint8",
					"name": "mainY",
					"type": "uint8"
				},
				{
					"internalType": "uint8",
					"name": "armorType",
					"type": "uint8"
				},
				{
					"internalType": "uint256",
					"name": "quantity",
					"type": "uint256"
				}
			],
			"name": "produceArmor",
			"outputs": [],
			"stateMutability": "nonpayable",
			"type": "function"
		},
		{
			"inputs": [
				{
					"internalType": "uint8",
					"name": "mainX",
					"type": "uint8"
				},
				{
					"internalType": "uint8",
					"name": "mainY",
					"type": "uint8"
				},
				{
					"internalType": "uint8",
					"name": "weaponType",
					"type": "uint8"
				},
				{
					"internalType": "uint256",
					"name": "quantity",
					"type": "uint256"
				}
			],
			"name": "produceWeapon",
			"outputs": [],
			"stateMutability": "nonpayable",
			"type": "function"
		},
		{
			"inputs": [
				{
					"internalType": "uint8",
					"name": "x",
					"type": "uint8"
				},
				{
					"internalType": "uint8",
					"name": "y",
					"type": "uint8"
				}
			],
			"name": "recalculatePointsAfterAttack",
			"outputs": [],
			"stateMutability": "nonpayable",
			"type": "function"
		},
		{
			"inputs": [
				{
					"internalType": "address",
					"name": "_clanAddress",
					"type": "address"
				}
			],
			"name": "setClanAddress",
			"outputs": [],
			"stateMutability": "nonpayable",
			"type": "function"
		},
		{
			"inputs": [
				{
					"internalType": "address",
					"name": "_market",
					"type": "address"
				}
			],
			"name": "setMarketAddress",
			"outputs": [],
			"stateMutability": "nonpayable",
			"type": "function"
		},
		{
			"inputs": [],
			"name": "tileMapPhaser",
			"outputs": [
				{
					"internalType": "contract ITileMapPhaser",
					"name": "",
					"type": "address"
				}
			],
			"stateMutability": "view",
			"type": "function"
		},
		{
			"inputs": [
				{
					"internalType": "uint8",
					"name": "",
					"type": "uint8"
				},
				{
					"internalType": "uint8",
					"name": "",
					"type": "uint8"
				}
			],
			"name": "tiles",
			"outputs": [
				{
					"components": [
						{
							"internalType": "uint256",
							"name": "food",
							"type": "uint256"
						},
						{
							"internalType": "uint256",
							"name": "wood",
							"type": "uint256"
						},
						{
							"internalType": "uint256",
							"name": "stone",
							"type": "uint256"
						},
						{
							"internalType": "uint256",
							"name": "iron",
							"type": "uint256"
						}
					],
					"internalType": "struct TheLand.Resources",
					"name": "resources",
					"type": "tuple"
				},
				{
					"internalType": "uint16",
					"name": "level",
					"type": "uint16"
				},
				{
					"internalType": "uint256",
					"name": "accumulatedTurns",
					"type": "uint256"
				},
				{
					"internalType": "uint16",
					"name": "turns",
					"type": "uint16"
				},
				{
					"internalType": "uint256",
					"name": "start",
					"type": "uint256"
				},
				{
					"components": [
						{
							"internalType": "uint256",
							"name": "offensiveArmor",
							"type": "uint256"
						},
						{
							"internalType": "uint256",
							"name": "defensiveArmor",
							"type": "uint256"
						},
						{
							"internalType": "uint256",
							"name": "offensiveWeapon",
							"type": "uint256"
						},
						{
							"internalType": "uint256",
							"name": "defensiveWeapon",
							"type": "uint256"
						},
						{
							"internalType": "uint256",
							"name": "offensiveSoldier",
							"type": "uint256"
						},
						{
							"internalType": "uint256",
							"name": "defensiveSoldier",
							"type": "uint256"
						}
					],
					"internalType": "struct TheLand.Military",
					"name": "military",
					"type": "tuple"
				},
				{
					"components": [
						{
							"internalType": "uint8",
							"name": "offensiveTech",
							"type": "uint8"
						},
						{
							"internalType": "uint8",
							"name": "defensiveTech",
							"type": "uint8"
						}
					],
					"internalType": "struct TheLand.TechLevels",
					"name": "techLevels",
					"type": "tuple"
				},
				{
					"internalType": "uint256",
					"name": "points",
					"type": "uint256"
				}
			],
			"stateMutability": "view",
			"type": "function"
		},
		{
			"inputs": [
				{
					"internalType": "uint8",
					"name": "",
					"type": "uint8"
				},
				{
					"internalType": "uint8",
					"name": "",
					"type": "uint8"
				}
			],
			"name": "totalTurnsUsedByTile",
			"outputs": [
				{
					"internalType": "uint256",
					"name": "",
					"type": "uint256"
				}
			],
			"stateMutability": "view",
			"type": "function"
		},
		{
			"inputs": [],
			"name": "turnsPerLevel",
			"outputs": [
				{
					"internalType": "uint256",
					"name": "",
					"type": "uint256"
				}
			],
			"stateMutability": "view",
			"type": "function"
		},
		{
			"inputs": [
				{
					"internalType": "uint8",
					"name": "x",
					"type": "uint8"
				},
				{
					"internalType": "uint8",
					"name": "y",
					"type": "uint8"
				},
				{
					"internalType": "uint8",
					"name": "techType",
					"type": "uint8"
				}
			],
			"name": "upgradeTech",
			"outputs": [],
			"stateMutability": "nonpayable",
			"type": "function"
		},
		{
			"inputs": [
				{
					"internalType": "uint16",
					"name": "turns",
					"type": "uint16"
				},
				{
					"internalType": "uint8",
					"name": "x",
					"type": "uint8"
				},
				{
					"internalType": "uint8",
					"name": "y",
					"type": "uint8"
				}
			],
			"name": "useTurns",
			"outputs": [],
			"stateMutability": "nonpayable",
			"type": "function"
		}
	]
}