{
	"data": {
		"bytecode": {
			"linkReferences": {},
			"object": "67016345785d8a0000600355620f42406004556078608081905260a0819052606460c081905260b460e0819052600f839055601083905560118290556012819055609661010081905261012081905261014083905261019061016081905260138290556014829055601584905560168190556101808590526101a08390526101c084905261012c6101e08190526017959095556018929092556019839055601a9390935561020083905260c861022081905261024083905260fa610260819052601b859055601c829055601d849055601e556102808290526102a08190526102c08490526102e0839052601f8290556020819055602184905560228390556103806040526103008290526103208190526103408490526103608390526023919091556024556025919091556026553480156200013a57600080fd5b50604051620052b7380380620052b78339810160408190526200015d916200079d565b600180546001600160a01b039384166001600160a01b031991821617825560408051608080820183526104d8808352610c8060208085019182526105a0858701908152610370606080880182815260009b8c52602980865298517f6e777cacfc4ad3a3cac3b8e17ccbbe9f6893bdc61d89783315eee44e3959da215594517f6e777cacfc4ad3a3cac3b8e17ccbbe9f6893bdc61d89783315eee44e3959da225591517f6e777cacfc4ad3a3cac3b8e17ccbbe9f6893bdc61d89783315eee44e3959da235592517f6e777cacfc4ad3a3cac3b8e17ccbbe9f6893bdc61d89783315eee44e3959da245586518086018852610514808252610bb8828501908152828a0191825261038483850190815260028d5289865292517f0e7ad7371109721849e84e0aa8f38c7e2d52987cf4198b383fc809a992a35e2f55517f0e7ad7371109721849e84e0aa8f38c7e2d52987cf4198b383fc809a992a35e3055517f0e7ad7371109721849e84e0aa8f38c7e2d52987cf4198b383fc809a992a35e3155517f0e7ad7371109721849e84e0aa8f38c7e2d52987cf4198b383fc809a992a35e3255865180860188526106e081526110688184019081526107a8828a0190815261052883850190815260038d5289865292517fd183863b3c0bf41d16900072a0fb18fc55924f70979571eeaf4ae275fe9bd7a85590517fd183863b3c0bf41d16900072a0fb18fc55924f70979571eeaf4ae275fe9bd7a955517fd183863b3c0bf41d16900072a0fb18fc55924f70979571eeaf4ae275fe9bd7aa55517fd183863b3c0bf41d16900072a0fb18fc55924f70979571eeaf4ae275fe9bd7ab5586518086018852848152610af08184019081528189019586526103ac82840190815260048c5288855291517fc0697d2f1fce52aa225d0458a7b27ad1956d52964cfd4c2be7f9306a6f1400ef55517fc0697d2f1fce52aa225d0458a7b27ad1956d52964cfd4c2be7f9306a6f1400f05593517fc0697d2f1fce52aa225d0458a7b27ad1956d52964cfd4c2be7f9306a6f1400f15592517fc0697d2f1fce52aa225d0458a7b27ad1956d52964cfd4c2be7f9306a6f1400f2558551808501875261019081526104108183019081526101c282890190815260e68387019081526005808d5289865293517f101e69429c70f0e5bdf1ca2519786bb700a226052b30ab320372e4d9b3d6148a5591517f101e69429c70f0e5bdf1ca2519786bb700a226052b30ab320372e4d9b3d6148b55517f101e69429c70f0e5bdf1ca2519786bb700a226052b30ab320372e4d9b3d6148c55517f101e69429c70f0e5bdf1ca2519786bb700a226052b30ab320372e4d9b3d6148d55865180860188526105b4808252610c30828501908152828a0191825282870195865260068c5288855291517fc04cd9b44512fe9491abee65458f1e4f47328079fb141482406872aee2a9dadc5590517fc04cd9b44512fe9491abee65458f1e4f47328079fb141482406872aee2a9dadd55517fc04cd9b44512fe9491abee65458f1e4f47328079fb141482406872aee2a9dade5591517fc04cd9b44512fe9491abee65458f1e4f47328079fb141482406872aee2a9dadf5585518085018752610adc8152611900818301908152612fa882890190815261092483870190815260078c5288855292517f3e9630cde5c31505c0e768288943c411ac318108355f25e62097bfde2e170d095590517f3e9630cde5c31505c0e768288943c411ac318108355f25e62097bfde2e170d0a55517f3e9630cde5c31505c0e768288943c411ac318108355f25e62097bfde2e170d0b55517f3e9630cde5c31505c0e768288943c411ac318108355f25e62097bfde2e170d0c55855193840186526106908452610e608482019081526107589685019687526105509385019384526008895294905291517fb8c34d5b978521102a376ad401fcc53fb292b93ba791cf9bac84eddf8307bc7a5591517fb8c34d5b978521102a376ad401fcc53fb292b93ba791cf9bac84eddf8307bc7b5591517fb8c34d5b978521102a376ad401fcc53fb292b93ba791cf9bac84eddf8307bc7c55517fb8c34d5b978521102a376ad401fcc53fb292b93ba791cf9bac84eddf8307bc7d55600c80548316331790558254939094169216919091179055429055620007d5565b80516001600160a01b03811681146200079857600080fd5b919050565b60008060408385031215620007b157600080fd5b620007bc8362000780565b9150620007cc6020840162000780565b90509250929050565b614ad280620007e56000396000f3fe6080604052600436106103085760003560e01c80637659bc601161019a578063be9a263c116100e1578063decc1bbf1161008a578063f89d757111610064578063f89d757114610acb578063f9c6445414610aeb578063fae9261214610b0e57600080fd5b8063decc1bbf14610a83578063e9dd658314610a98578063f324525414610aab57600080fd5b8063daa17f49116100bb578063daa17f4914610a2d578063dd4b466b14610a4d578063de8ca33a14610a6d57600080fd5b8063be9a263c14610983578063c1712d57146109b0578063ccd5e491146109f257600080fd5b80639a4a208411610143578063a596b6451161011d578063a596b6451461091d578063bd63837814610940578063bdc7da8e1461096d57600080fd5b80639a4a20841461079d5780639b562df2146107bd578063a2f9cc5b146108c157600080fd5b8063887aca7211610174578063887aca72146107225780638c87fa4f1461075a5780638da5cb5b1461077d57600080fd5b80637659bc60146106bf5780637cca26d9146106df578063800bfa27146106ff57600080fd5b80633e5f28571161025e578063537e8f4911610207578063620a9a99116101e1578063620a9a991461066657806365af3a2f146106895780637502bad41461069f57600080fd5b8063537e8f49146105e35780635d219d5f1461062657806360b76b521461064657600080fd5b8063428967da11610238578063428967da1461056e5780634855735c146105845780634f264b03146105c357600080fd5b80633e5f2857146104ee57806341ede44f1461050e5780634274b1641461054e57600080fd5b80631acc55ea116102c05780632ef788651161029a5780632ef788651461045b57806333b95ee014610493578063351662e4146104ce57600080fd5b80631acc55ea146103f757806321b74ea7146104175780632a490ae81461043b57600080fd5b80630d67f59e116102f15780630d67f59e1461037f5780630df7b41a146103b75780630ee22f31146103d757600080fd5b806302cd77e61461030d57806307722bc21461035d575b600080fd5b34801561031957600080fd5b50610348610328366004614337565b600960209081526000928352604080842090915290825290205460ff1681565b60405190151581526020015b60405180910390f35b34801561036957600080fd5b5061037d610378366004614370565b610b2e565b005b34801561038b57600080fd5b5060005461039f906001600160a01b031681565b6040516001600160a01b039091168152602001610354565b3480156103c357600080fd5b5061037d6103d23660046143d6565b610dde565b3480156103e357600080fd5b5061037d6103f23660046143f3565b610e58565b34801561040357600080fd5b50610348610412366004614337565b6113fb565b34801561042357600080fd5b5061042d60035481565b604051908152602001610354565b34801561044757600080fd5b5061042d610456366004614337565b611424565b34801561046757600080fd5b5061042d610476366004614337565b600a60209081526000928352604080842090915290825290205481565b34801561049f57600080fd5b506103486104ae366004614337565b600860209081526000928352604080842090915290825290205460ff1681565b3480156104da57600080fd5b5061037d6104e9366004614464565b611439565b3480156104fa57600080fd5b5061037d6105093660046144bd565b61198f565b34801561051a57600080fd5b5061042d610529366004614337565b60ff918216600090815260076020908152604080832093909416825291909152205490565b34801561055a57600080fd5b5061037d610569366004614370565b612023565b34801561057a57600080fd5b5061042d60045481565b34801561059057600080fd5b5061034861059f366004614337565b60ff9182166000908152600960209081526040808320938516835292905220541690565b3480156105cf57600080fd5b5060015461039f906001600160a01b031681565b3480156105ef57600080fd5b50601b54601c54601d54601e546106069392919084565b604080519485526020850193909352918301526060820152608001610354565b34801561063257600080fd5b5061037d6106413660046143d6565b6122b3565b34801561065257600080fd5b5061037d610661366004614517565b61232d565b34801561067257600080fd5b50600f546010546011546012546106069392919084565b34801561069557600080fd5b5061042d60055481565b3480156106ab57600080fd5b50600e5461039f906001600160a01b031681565b3480156106cb57600080fd5b5061037d6106da366004614337565b6125e2565b3480156106eb57600080fd5b5060025461039f906001600160a01b031681565b34801561070b57600080fd5b50601754601854601954601a546106069392919084565b34801561072e57600080fd5b5061042d61073d366004614337565b600760209081526000928352604080842090915290825290205481565b34801561076657600080fd5b506013546014546015546016546106069392919084565b34801561078957600080fd5b50600c5461039f906001600160a01b031681565b3480156107a957600080fd5b5061037d6107b8366004614573565b61266b565b3480156107c957600080fd5b506108ad6107d8366004614337565b60276020908152600092835260408084208252918352918190208151608080820184528254825260018301548286015260028301548285015260038301546060808401919091526004840154600585015460068601546007870154885160c081018a52600889015481526009890154818c0152600a890154818b0152600b89015495810195909552600c88015495850195909552600d87015460a08501528751808901909852600e87015460ff8082168a526101009091041698880198909852600f90950154939661ffff9182169691169388565b6040516103549897969594939291906145b3565b3480156108cd57600080fd5b5061090b6108dc366004614517565b602860209081526000948552604080862082529385528385208152918452828420909152825290205460ff1681565b60405160ff9091168152602001610354565b34801561092957600080fd5b50601f546020546021546022546106069392919084565b34801561094c57600080fd5b5061096061095b366004614337565b6126f9565b604051610354919061466f565b34801561097957600080fd5b5061042d6103e881565b34801561098f57600080fd5b506109a361099e366004614337565b61284f565b604051610354919061472b565b3480156109bc57600080fd5b506106066109cb366004614790565b60296020526000908152604090208054600182015460028301546003909301549192909184565b3480156109fe57600080fd5b50610348610a0d366004614337565b600b60209081526000928352604080842090915290825290205460ff1681565b348015610a3957600080fd5b50600d5461039f906001600160a01b031681565b348015610a5957600080fd5b5061037d610a68366004614337565b6129d9565b348015610a7957600080fd5b5061042d60065481565b348015610a8f57600080fd5b5061090b600981565b61037d610aa63660046147ad565b612b50565b348015610ab757600080fd5b5061042d610ac6366004614337565b613347565b348015610ad757600080fd5b5061037d610ae6366004614370565b6134f0565b348015610af757600080fd5b506023546024546025546026546106069392919084565b348015610b1a57600080fd5b5061037d610b293660046143d6565b613937565b600154604051638a88895360e01b815260ff8087166004830152851660248201528591859133916001600160a01b031690638a88895390604401602060405180830381865afa158015610b85573d6000803e3d6000fd5b505050506040513d601f19601f82011682018060405250810190610ba991906147d4565b6001600160a01b031614610bea5760405162461bcd60e51b815260206004820152600360248201526237bbb760e91b60448201526064015b60405180910390fd5b60008311610c3a5760405162461bcd60e51b815260206004820152600160248201527f7a000000000000000000000000000000000000000000000000000000000000006044820152606401610be1565b8360ff1660011480610c4f57508360ff166002145b610c9b5760405162461bcd60e51b815260206004820152600160248201527f74000000000000000000000000000000000000000000000000000000000000006044820152606401610be1565b6000610ca9878760016139b1565b905060008111610cfb5760405162461bcd60e51b815260206004820152600160248201527f61000000000000000000000000000000000000000000000000000000000000006044820152606401610be1565b60008560ff16600114610d0f576013610d12565b600f5b60408051608081018252825481526001830154602082015260028301549181019190915260039091015460608201529050610d508888838886613a4c565b8560ff16600103610d9a5760ff8089166000908152602760209081526040808320938b1683529290529081206008018054879290610d8f908490614820565b90915550610dd49050565b60ff8089166000908152602760209081526040808320938b1683529290529081206009018054879290610dce908490614820565b90915550505b5050505050505050565b600c546001600160a01b03163314610e1e5760405162461bcd60e51b815260206004820152600360248201526237bbb760e91b6044820152606401610be1565b600e80547fffffffffffffffffffffffff0000000000000000000000000000000000000000166001600160a01b0392909216919091179055565b600154604051638a88895360e01b815260ff8088166004830152861660248201528691869133916001600160a01b031690638a88895390604401602060405180830381865afa158015610eaf573d6000803e3d6000fd5b505050506040513d601f19601f82011682018060405250810190610ed391906147d4565b6001600160a01b031614610f0f5760405162461bcd60e51b815260206004820152600360248201526237bbb760e91b6044820152606401610be1565b8484600960ff8316108015610f275750600960ff8216105b610f735760405162461bcd60e51b815260206004820152600560248201527f636f6f72640000000000000000000000000000000000000000000000000000006044820152606401610be1565b8660ff166004148015610f8957508560ff166004145b15610fd65760405162461bcd60e51b815260206004820152600160248201527f63000000000000000000000000000000000000000000000000000000000000006044820152606401610be1565b60ff808a1660009081526028602090815260408083208c8516845282528083208b8516845282528083208a8516845290915290205416801561105a5760405162461bcd60e51b815260206004820152600160248201527f65000000000000000000000000000000000000000000000000000000000000006044820152606401610be1565b8560ff166003036110ed576110718a8a60036139b1565b156110be5760405162461bcd60e51b815260206004820152600160248201527f63000000000000000000000000000000000000000000000000000000000000006044820152606401610be1565b60ff808b166000908152600860209081526040808320938d16835292905220805460ff1916600117905561117c565b8560ff1660060361117c576111048a8a60066139b1565b156111515760405162461bcd60e51b815260206004820152600160248201527f6d000000000000000000000000000000000000000000000000000000000000006044820152606401610be1565b60ff808b166000908152600960209081526040808320938d16835292905220805460ff191660011790555b60ff808716600090815260296020908152604080832081516080810183528154815260018201548185015260028201548184015260039091015460608201528e8516845260278352818420948e1684529390915290208151815410156112245760405162461bcd60e51b815260206004820152600160248201527f66000000000000000000000000000000000000000000000000000000000000006044820152606401610be1565b60208201516001820154101561127c5760405162461bcd60e51b815260206004820152600160248201527f77000000000000000000000000000000000000000000000000000000000000006044820152606401610be1565b6040820151600282015410156112d45760405162461bcd60e51b815260206004820152600160248201527f73000000000000000000000000000000000000000000000000000000000000006044820152606401610be1565b60608201516003820154101561132c5760405162461bcd60e51b815260206004820152600160248201527f69000000000000000000000000000000000000000000000000000000000000006044820152606401610be1565b815181548290600090611340908490614833565b9091555050602082015160018201805460009061135e908490614833565b9091555050604082015160028201805460009061137c908490614833565b9091555050606082015160038201805460009061139a908490614833565b909155505060ff8c811660009081526028602090815260408083208f8516845282528083208e8516845282528083208d851684529091529020805460ff1916918a169190911790556113ed818d8d613cbb565b505050505050505050505050565b60ff80831660009081526008602090815260408083208585168452909152902054165b92915050565b6000611432838360076139b1565b9392505050565b600154604051638a88895360e01b815260ff8086166004830152841660248201528491849133916001600160a01b031690638a88895390604401602060405180830381865afa158015611490573d6000803e3d6000fd5b505050506040513d601f19601f820116820180604052508101906114b491906147d4565b6001600160a01b0316146114f05760405162461bcd60e51b815260206004820152600360248201526237bbb760e91b6044820152606401610be1565b60ff808616600090815260276020908152604080832088851684529091528120916060908616600103611563575050600e81015460408051808201909152600d81527f6f6666656e736976655465636800000000000000000000000000000000000000602082015260ff90911690611602565b8560ff166002036115b8575050600e81015460408051808201909152600d81527f646566656e736976655465636800000000000000000000000000000000000000602082015261010090910460ff1690611602565b60405162461bcd60e51b8152600401610be19060208082526004908201527f7479706500000000000000000000000000000000000000000000000000000000604082015260600190565b6127108260ff1611156116575760405162461bcd60e51b815260206004820152600160248201527f6c000000000000000000000000000000000000000000000000000000000000006044820152606401610be1565b6000611665898960086139b1565b9050600081116116b75760405162461bcd60e51b815260206004820152600160248201527f77000000000000000000000000000000000000000000000000000000000000006044820152606401610be1565b60006116c4846001614846565b6116d29060ff16600261485f565b90506000826116e283608c61485f565b6116ec91906148a5565b90506000836116fc84607861485f565b61170691906148a5565b90506000846117168560b461485f565b61172091906148a5565b905060008561173086607861485f565b61173a91906148a5565b895490915084111561178e5760405162461bcd60e51b815260206004820152600160248201527f66000000000000000000000000000000000000000000000000000000000000006044820152606401610be1565b60018901548311156117e25760405162461bcd60e51b815260206004820152600160248201527f77000000000000000000000000000000000000000000000000000000000000006044820152606401610be1565b60028901548211156118365760405162461bcd60e51b815260206004820152600160248201527f73000000000000000000000000000000000000000000000000000000000000006044820152606401610be1565b600389015481111561188a5760405162461bcd60e51b815260206004820152600160248201527f69000000000000000000000000000000000000000000000000000000000000006044820152606401610be1565b885484908a9060009061189e908490614833565b90915550506001890180548491906000906118ba908490614833565b90915550506002890180548391906000906118d6908490614833565b90915550506003890180548291906000906118f2908490614833565b909155505060ff8c1660010361193557600e8901805460ff16906000611917836148b9565b91906101000a81548160ff021916908360ff16021790555050611974565b8b60ff1660020361197457600e89018054610100900460ff1690600161195a836148b9565b91906101000a81548160ff021916908360ff160217905550505b61197f898f8f613cbb565b5050505050505050505050505050565b600d546001600160a01b031633146119e95760405162461bcd60e51b815260206004820152600160248201527f61000000000000000000000000000000000000000000000000000000000000006044820152606401610be1565b60ff808616600090815260276020908152604080832088851684529091529020908416600103611a9d578115611a3857805483908290600090611a2d908490614820565b909155506120109050565b8054831115611a895760405162461bcd60e51b815260206004820152600160248201527f66000000000000000000000000000000000000000000000000000000000000006044820152606401610be1565b805483908290600090611a2d908490614833565b8360ff16600203611b30578115611ac55782816000016001016000828254611a2d9190614820565b6001810154831115611b195760405162461bcd60e51b815260206004820152600160248201527f77000000000000000000000000000000000000000000000000000000000000006044820152606401610be1565b82816000016001016000828254611a2d9190614833565b8360ff16600303611bc3578115611b585782816000016002016000828254611a2d9190614820565b6002810154831115611bac5760405162461bcd60e51b815260206004820152600160248201527f73000000000000000000000000000000000000000000000000000000000000006044820152606401610be1565b82816000016002016000828254611a2d9190614833565b8360ff16600403611c56578115611beb5782816000016003016000828254611a2d9190614820565b6003810154831115611c3f5760405162461bcd60e51b815260206004820152600160248201527f69000000000000000000000000000000000000000000000000000000000000006044820152606401610be1565b82816000016003016000828254611a2d9190614833565b8360ff16600503611ce9578115611c7e5782816008016000016000828254611a2d9190614820565b6008810154831115611cd25760405162461bcd60e51b815260206004820152600260248201527f6f610000000000000000000000000000000000000000000000000000000000006044820152606401610be1565b82816008016000016000828254611a2d9190614833565b8360ff16600603611d7c578115611d115782816008016001016000828254611a2d9190614820565b6009810154831115611d655760405162461bcd60e51b815260206004820152600260248201527f64610000000000000000000000000000000000000000000000000000000000006044820152606401610be1565b82816008016001016000828254611a2d9190614833565b8360ff16600703611e0f578115611da45782816008016002016000828254611a2d9190614820565b600a810154831115611df85760405162461bcd60e51b815260206004820152600260248201527f6f770000000000000000000000000000000000000000000000000000000000006044820152606401610be1565b82816008016002016000828254611a2d9190614833565b8360ff16600803611ea2578115611e375782816008016003016000828254611a2d9190614820565b600b810154831115611e8b5760405162461bcd60e51b815260206004820152600260248201527f64770000000000000000000000000000000000000000000000000000000000006044820152606401610be1565b82816008016003016000828254611a2d9190614833565b8360ff16600903611f35578115611eca5782816008016004016000828254611a2d9190614820565b600c810154831115611f1e5760405162461bcd60e51b815260206004820152600260248201527f6f730000000000000000000000000000000000000000000000000000000000006044820152606401610be1565b82816008016004016000828254611a2d9190614833565b8360ff16600a03611fc8578115611f5d5782816008016005016000828254611a2d9190614820565b600d810154831115611fb15760405162461bcd60e51b815260206004820152600260248201527f64730000000000000000000000000000000000000000000000000000000000006044820152606401610be1565b82816008016005016000828254611a2d9190614833565b60405162461bcd60e51b815260206004820152600160248201527f74000000000000000000000000000000000000000000000000000000000000006044820152606401610be1565b61201b818787613cbb565b505050505050565b600154604051638a88895360e01b815260ff8087166004830152851660248201528591859133916001600160a01b031690638a88895390604401602060405180830381865afa15801561207a573d6000803e3d6000fd5b505050506040513d601f19601f8201168201806040525081019061209e91906147d4565b6001600160a01b0316146120da5760405162461bcd60e51b815260206004820152600360248201526237bbb760e91b6044820152606401610be1565b6000831161212a5760405162461bcd60e51b815260206004820152600160248201527f7a000000000000000000000000000000000000000000000000000000000000006044820152606401610be1565b8360ff166001148061213f57508360ff166002145b61218b5760405162461bcd60e51b815260206004820152600160248201527f74000000000000000000000000000000000000000000000000000000000000006044820152606401610be1565b6000612199878760026139b1565b9050600081116121eb5760405162461bcd60e51b815260206004820152600260248201527f62730000000000000000000000000000000000000000000000000000000000006044820152606401610be1565b60008560ff166001146121ff57601b612202565b60175b604080516080810182528254815260018301546020820152600283015491810191909152600390910154606082015290506122408888838886613a4c565b8560ff1660010361227f5760ff8089166000908152602760209081526040808320938b168352929052908120600a018054879290610d8f908490614820565b60ff8089166000908152602760209081526040808320938b168352929052908120600b018054879290610dce908490614820565b600c546001600160a01b031633146122f35760405162461bcd60e51b815260206004820152600360248201526237bbb760e91b6044820152606401610be1565b600280547fffffffffffffffffffffffff0000000000000000000000000000000000000000166001600160a01b0392909216919091179055565b600154604051638a88895360e01b815260ff8087166004830152851660248201528591859133916001600160a01b031690638a88895390604401602060405180830381865afa158015612384573d6000803e3d6000fd5b505050506040513d601f19601f820116820180604052508101906123a891906147d4565b6001600160a01b0316146123e45760405162461bcd60e51b815260206004820152600360248201526237bbb760e91b6044820152606401610be1565b8383600960ff83161080156123fc5750600960ff8216105b6124485760405162461bcd60e51b815260206004820152600560248201527f636f6f72640000000000000000000000000000000000000000000000000000006044820152606401610be1565b8560ff16600414801561245e57508460ff166004145b156124ab5760405162461bcd60e51b815260206004820152600160248201527f63000000000000000000000000000000000000000000000000000000000000006044820152606401610be1565b60ff80891660009081526028602090815260408083208b8516845282528083208a8516845282528083208985168452909152812054909116908190036125335760405162461bcd60e51b815260206004820152600160248201527f6e000000000000000000000000000000000000000000000000000000000000006044820152606401610be1565b8060ff1660030361256a5760ff808a166000908152600860209081526040808320938c16835292905220805460ff1916905561259d565b8060ff1660060361259d5760ff808a166000908152600960209081526040808320938c16835292905220805460ff191690555b50505060ff958616600090815260286020908152604080832097891683529681528682209588168252948552858120939096168652505090529020805460ff19169055565b600d546001600160a01b0316331461263c5760405162461bcd60e51b815260206004820152600160248201527f61000000000000000000000000000000000000000000000000000000000000006044820152606401610be1565b60ff8083166000908152602760209081526040808320938516835292905220612666818484613cbb565b505050565b600d546001600160a01b031633146126c55760405162461bcd60e51b815260206004820152600160248201527f61000000000000000000000000000000000000000000000000000000000000006044820152606401610be1565b60ff9283166000908152600b6020908152604080832094909516825292909252919020805460ff1916911515919091179055565b61277c604051806101e0016040528060008152602001600081526020016000815260200160008152602001600061ffff16815260200160008152602001600081526020016000815260200160008152602001600081526020016000815260200160008152602001600060ff168152602001600060ff168152602001600081525090565b5060ff918216600090815260276020908152604080832093851683529281529082902082516101e0810184528154815260018201549281019290925260028101549282019290925260038201546060820152600482015461ffff166080820152600582015460a0820152600882015460c0820152600982015460e0820152600a82015461010080830191909152600b830154610120830152600c830154610140830152600d830154610160830152600e830154808516610180840152049092166101a0830152600f01546101c082015290565b6128576142ba565b600154604051638a88895360e01b815260ff8086166004830152841660248201528491849133916001600160a01b031690638a88895390604401602060405180830381865afa1580156128ae573d6000803e3d6000fd5b505050506040513d601f19601f820116820180604052508101906128d291906147d4565b6001600160a01b03161461290e5760405162461bcd60e51b815260206004820152600360248201526237bbb760e91b6044820152606401610be1565b6129166142ba565b60005b600960ff821610156129cd5760005b600960ff821610156129ba5760ff80891660009081526028602090815260408083208b85168452825280832086851680855290835281842086861685529092529091205490911690849060098110612982576129826148d8565b60200201518260ff166009811061299b5761299b6148d8565b60ff9092166020929092020152806129b2816148b9565b915050612928565b50806129c5816148b9565b915050612919565b5092505b505092915050565b600154604051638a88895360e01b815260ff8085166004830152831660248201528391839133916001600160a01b031690638a88895390604401602060405180830381865afa158015612a30573d6000803e3d6000fd5b505050506040513d601f19601f82011682018060405250810190612a5491906147d4565b6001600160a01b031614612a905760405162461bcd60e51b815260206004820152600360248201526237bbb760e91b6044820152606401610be1565b60ff8085166000908152602760209081526040808320938716835292905290812060070154612abf9042614833565b612aca90603c61485f565b60ff808716600090815260276020908152604080832093891683529290522060060154612afb919061ffff16614820565b90506102588111612b0c5780612b10565b6102585b60ff95861660009081526027602090815260408083209790981682529590955294909320600601805461ffff191661ffff90951694909417909355505050565b600154604051638a88895360e01b815260ff8085166004830152831660248201528391839133916001600160a01b031690638a88895390604401602060405180830381865afa158015612ba7573d6000803e3d6000fd5b505050506040513d601f19601f82011682018060405250810190612bcb91906147d4565b6001600160a01b031614612c075760405162461bcd60e51b815260206004820152600360248201526237bbb760e91b6044820152606401610be1565b60008561ffff1611612c5b5760405162461bcd60e51b815260206004820152600160248201527f30000000000000000000000000000000000000000000000000000000000000006044820152606401610be1565b6003543414612cac5760405162461bcd60e51b815260206004820152600760248201527f62616420666565000000000000000000000000000000000000000000000000006044820152606401610be1565b600e546001600160a01b0316612d045760405162461bcd60e51b815260206004820152600d60248201527f6578747261206e6f7420736574000000000000000000000000000000000000006044820152606401610be1565b612d0e84846129d9565b60ff80851660009081526027602090815260408083209387168352929052206006015461ffff80871691161015612d875760405162461bcd60e51b815260206004820152600160248201527f74000000000000000000000000000000000000000000000000000000000000006044820152606401610be1565b60ff808516600090815260276020908152604080832093871683529290522060050154612db6906103e8614833565b8561ffff161115612df35760ff808516600090815260276020908152604080832093871683529290522060050154612df0906103e8614833565b94505b60ff808516600090815260276020908152604080832093871683529290522060060154612e2590869061ffff16614907565b60ff8581166000908152602760209081526040808320938816835292905290812060068101805461ffff191661ffff949094169390931790925542600790920191909155612e75858560056139b1565b9050612e82600182614820565b6002546040517f2a2026a900000000000000000000000000000000000000000000000000000000815260ff8089166004830152871660248201529192506000916001600160a01b0390911690632a2026a990604401602060405180830381865afa158015612ef4573d6000803e3d6000fd5b505050506040513d601f19601f82011682018060405250810190612f189190614929565b60ff80881660009081526027602090815260408083208a8516845290915290209192508216600103612f6f57612f528361ffff8a1661485f565b81548290600090612f64908490614820565b90915550612ffc9050565b8160ff16600203612f9c57612f888361ffff8a1661485f565b600182018054600090612f64908490614820565b8160ff16600303612fc957612fb58361ffff8a1661485f565b600282018054600090612f64908490614820565b8160ff16600403612ffc57612fe28361ffff8a1661485f565b600382018054600090612ff6908490614820565b90915550505b61300a8361ffff8a1661485f565b8154829060009061301c908490614820565b9091555061303090508361ffff8a1661485f565b600182018054600090613044908490614820565b9091555061305890508361ffff8a1661485f565b60028201805460009061306c908490614820565b9091555061308090508361ffff8a1661485f565b600382018054600090613094908490614820565b925050819055508761ffff168160050160008282546130b39190614820565b909155505060058101546000906130cd906103e8906148a5565b90506103e88260050160008282546130e59190614946565b9091555050600482015460009061310190839061ffff1661495a565b90506101f48161ffff1611156131275760048301805461ffff19166101f417905561313b565b60048301805461ffff191661ffff83161790555b613146838a8a613cbb565b60ff808a166000908152600760209081526040808320938c168352929052908120805461ffff8d16929061317b908490614820565b909155505060ff808a166000908152600b60209081526040808320938c16835292905220805460ff191690556040805161ffff8c16815260ff808c1660208301528a169181019190915233907fbb5b4f7847476e1912e2b57d030b0e491d0d72b2ef256cceea9daa41f40f5d189060600160405180910390a26131fe3433613d1b565b600080613209614075565b9092509050811561332457600081836004548f61ffff1661322a919061485f565b613234919061485f565b61323e91906148a5565b600080546040517fa9059cbb0000000000000000000000000000000000000000000000000000000081523360048201526024810184905292935090916001600160a01b039091169063a9059cbb906044016020604051808303816000875af11580156132ae573d6000803e3d6000fd5b505050506040513d601f19601f820116820180604052508101906132d29190614975565b9050806133215760405162461bcd60e51b815260206004820152601a60248201527f4c4f5020726577617264207472616e73666572206661696c65640000000000006044820152606401610be1565b50505b6006805490600061333483614992565b9190505550505050505050505050505050565b600154604051638a88895360e01b815260ff8085166004830152831660248201526000918491849133916001600160a01b0390911690638a88895390604401602060405180830381865afa1580156133a3573d6000803e3d6000fd5b505050506040513d601f19601f820116820180604052508101906133c791906147d4565b6001600160a01b0316146134035760405162461bcd60e51b815260206004820152600360248201526237bbb760e91b6044820152606401610be1565b60ff808616600090815260276020908152604080832093881683529290522060070154610258906134349042614833565b61343f90603c61485f565b60ff8088166000908152602760209081526040808320938a1683529290522060060154613470919061ffff16614820565b11156134805761025892506129d1565b60ff8086166000908152602760209081526040808320938816835292905220600701546134ad9042614833565b6134b890603c61485f565b60ff8087166000908152602760209081526040808320938916835292905220600601546134e9919061ffff16614820565b92506129d1565b600154604051638a88895360e01b815260ff8087166004830152851660248201528591859133916001600160a01b031690638a88895390604401602060405180830381865afa158015613547573d6000803e3d6000fd5b505050506040513d601f19601f8201168201806040525081019061356b91906147d4565b6001600160a01b0316146135a75760405162461bcd60e51b815260206004820152600360248201526237bbb760e91b6044820152606401610be1565b600083116135f75760405162461bcd60e51b815260206004820152600160248201527f7a000000000000000000000000000000000000000000000000000000000000006044820152606401610be1565b8360ff166001148061360c57508360ff166002145b6136585760405162461bcd60e51b815260206004820152600160248201527f74000000000000000000000000000000000000000000000000000000000000006044820152606401610be1565b6000613666878760046139b1565b9050600081116136b85760405162461bcd60e51b815260206004820152600160248201527f70000000000000000000000000000000000000000000000000000000000000006044820152606401610be1565b60008560ff166001146136cc5760236136cf565b601f5b6040805160808101825282548152600183015460208201526002830154918101919091526003909101546060820152905061370d8888838886613a4c565b60ff80891660009081526027602090815260408083208b85168452909152902060080190871660010361383457805486111561378b5760405162461bcd60e51b815260206004820152600260248201527f6f610000000000000000000000000000000000000000000000000000000000006044820152606401610be1565b85816002015410156137df5760405162461bcd60e51b815260206004820152600260248201527f6f770000000000000000000000000000000000000000000000000000000000006044820152606401610be1565b858160000160008282546137f39190614833565b925050819055508581600201600082825461380e9190614833565b92505081905550858160040160008282546138299190614820565b9091555061392c9050565b85816001015410156138885760405162461bcd60e51b815260206004820152600260248201527f64610000000000000000000000000000000000000000000000000000000000006044820152606401610be1565b85816003015410156138dc5760405162461bcd60e51b815260206004820152600260248201527f64770000000000000000000000000000000000000000000000000000000000006044820152606401610be1565b858160010160008282546138f09190614833565b925050819055508581600301600082825461390b9190614833565b92505081905550858160050160008282546139269190614820565b90915550505b505050505050505050565b600c546001600160a01b031633146139775760405162461bcd60e51b815260206004820152600360248201526237bbb760e91b6044820152606401610be1565b600d80547fffffffffffffffffffffffff0000000000000000000000000000000000000000166001600160a01b0392909216919091179055565b600080805b600960ff82161015613a435760005b600960ff82161015613a305760ff87811660009081526028602090815260408083208a851684528252808320868516845282528083208585168452909152902054818716911603613a1e5782613a1a81614992565b9350505b80613a28816148b9565b9150506139c5565b5080613a3b816148b9565b9150506139b6565b50949350505050565b60ff8086166000908152602760209081526040808320938816835292905290812084519091908390613a7f90869061485f565b613a8991906148a5565b9050600083858760200151613a9e919061485f565b613aa891906148a5565b9050600084868860400151613abd919061485f565b613ac791906148a5565b9050600085878960600151613adc919061485f565b613ae691906148a5565b8554909150841115613b3a5760405162461bcd60e51b815260206004820152600160248201527f66000000000000000000000000000000000000000000000000000000000000006044820152606401610be1565b6001850154831115613b8e5760405162461bcd60e51b815260206004820152600160248201527f77000000000000000000000000000000000000000000000000000000000000006044820152606401610be1565b6002850154821115613be25760405162461bcd60e51b815260206004820152600160248201527f73000000000000000000000000000000000000000000000000000000000000006044820152606401610be1565b6003850154811115613c365760405162461bcd60e51b815260206004820152600160248201527f69000000000000000000000000000000000000000000000000000000000000006044820152606401610be1565b845484908690600090613c4a908490614833565b9091555050600185018054849190600090613c66908490614833565b9091555050600285018054839190600090613c82908490614833565b9091555050600385018054829190600090613c9e908490614833565b90915550613caf9050858b8b613cbb565b50505050505050505050565b60038301546002840154600185015485546000939291613cda91614820565b613ce49190614820565b613cee9190614820565b600f9094018490555060ff9182166000908152600a60209081526040808320939094168252919091522055565b6001546040517f4a9fefc70000000000000000000000000000000000000000000000000000000081526001600160a01b0383811660048301526000921690634a9fefc790602401602060405180830381865afa158015613d7f573d6000803e3d6000fd5b505050506040513d601f19601f82011682018060405250810190613da391906147d4565b9050613dad6142e8565b600080806000613dbb6140cc565b92509250925082858580613dce90614992565b965060058110613de057613de06148d8565b6001600160a01b039092166020929092020152818585613dff81614992565b965060058110613e1157613e116148d8565b6001600160a01b039092166020929092020152808585613e3081614992565b965060058110613e4257613e426148d8565b6001600160a01b039283166020919091029190910152600e54168585613e6781614992565b965060058110613e7957613e796148d8565b6001600160a01b039092166020929092020152858585613e9881614992565b965060058110613eaa57613eaa6148d8565b6001600160a01b0390921660209290920201526000613ec9858a6148a5565b90506000805b86811015613fb0576000888260058110613eeb57613eeb6148d8565b60200201516001600160a01b03168460405160006040518083038185875af1925050503d8060008114613f3a576040519150601f19603f3d011682016040523d82523d6000602084013e613f3f565b606091505b5050905080613f905760405162461bcd60e51b815260206004820152600160248201527f73000000000000000000000000000000000000000000000000000000000000006044820152606401610be1565b613f9a8484614820565b9250508080613fa890614992565b915050613ecf565b506000613fbd828c614833565b9050801561406857600e546040516000916001600160a01b03169083908381818185875af1925050503d8060008114614012576040519150601f19603f3d011682016040523d82523d6000602084013e614017565b606091505b50509050806113ed5760405162461bcd60e51b815260206004820152600160248201527f72000000000000000000000000000000000000000000000000000000000000006044820152606401610be1565b5050505050505050505050565b6000806000614082614278565b9050600581106140985750600092600192509050565b806000036140ac5750600292600192509050565b60016140b88183614833565b6140c3906002614a90565b92509250509091565b60008060008060008060005b60148160ff16101561426f5760005b60148160ff16101561425c5760ff8083166000908152600a6020908152604080832093851683529290529081205490819003614123575061424a565b600154604051638a88895360e01b815260ff8086166004830152841660248201526000916001600160a01b031690638a88895390604401602060405180830381865afa158015614177573d6000803e3d6000fd5b505050506040513d601f19601f8201168201806040525081019061419b91906147d4565b90506001600160a01b0381166141b257505061424a565b868211156141c95798979650949392508488614247565b85821180156141ea5750896001600160a01b0316816001600160a01b031614155b156141fc579796509392508387614247565b848211801561421d5750896001600160a01b0316816001600160a01b031614155b801561423b5750886001600160a01b0316816001600160a01b031614155b15614247578194508097505b50505b80614254816148b9565b9150506140e7565b5080614267816148b9565b9150506140d8565b50505050909192565b60006005546000148061428c575060055442105b15614298575060001990565b6301e13380600554426142ab9190614833565b6142b591906148a5565b905090565b6040518061012001604052806009905b6142d2614306565b8152602001906001900390816142ca5790505090565b6040518060a001604052806005906020820280368337509192915050565b6040518061012001604052806009906020820280368337509192915050565b60ff8116811461433457600080fd5b50565b6000806040838503121561434a57600080fd5b823561435581614325565b9150602083013561436581614325565b809150509250929050565b6000806000806080858703121561438657600080fd5b843561439181614325565b935060208501356143a181614325565b925060408501356143b181614325565b9396929550929360600135925050565b6001600160a01b038116811461433457600080fd5b6000602082840312156143e857600080fd5b8135611432816143c1565b600080600080600060a0868803121561440b57600080fd5b853561441681614325565b9450602086013561442681614325565b9350604086013561443681614325565b9250606086013561444681614325565b9150608086013561445681614325565b809150509295509295909350565b60008060006060848603121561447957600080fd5b833561448481614325565b9250602084013561449481614325565b915060408401356144a481614325565b809150509250925092565b801515811461433457600080fd5b600080600080600060a086880312156144d557600080fd5b85356144e081614325565b945060208601356144f081614325565b9350604086013561450081614325565b9250606086013591506080860135614456816144af565b6000806000806080858703121561452d57600080fd5b843561453881614325565b9350602085013561454881614325565b9250604085013561455881614325565b9150606085013561456881614325565b939692955090935050565b60008060006060848603121561458857600080fd5b833561459381614325565b925060208401356145a381614325565b915060408401356144a4816144af565b6000610220820190508951825260208a0151602083015260408a0151604083015260608a0151606083015261ffff808a1660808401528860a084015280881660c0840152508560e08301528451610100830152602085015161012083015260408501516101408301526060850151610160830152608085015161018083015260a08501516101a083015261465b6101c0830185805160ff908116835260209182015116910152565b826102008301529998505050505050505050565b60006101e0820190508251825260208301516020830152604083015160408301526060830151606083015260808301516146af608084018261ffff169052565b5060a0838101519083015260c0808401519083015260e0808401519083015261010080840151908301526101208084015190830152610140808401519083015261016080840151908301526101808084015160ff81168285015250506101a08381015160ff81168483015250506101c092830151919092015290565b610a20810181836000805b60098082106147455750614786565b835185845b8381101561476b57825160ff1682526020928301929091019060010161474a565b50505061012094909401935060209290920191600101614736565b5050505092915050565b6000602082840312156147a257600080fd5b813561143281614325565b6000806000606084860312156147c257600080fd5b833561ffff8116811461448457600080fd5b6000602082840312156147e657600080fd5b8151611432816143c1565b7f4e487b7100000000000000000000000000000000000000000000000000000000600052601160045260246000fd5b8082018082111561141e5761141e6147f1565b8181038181111561141e5761141e6147f1565b60ff818116838216019081111561141e5761141e6147f1565b808202811582820484141761141e5761141e6147f1565b7f4e487b7100000000000000000000000000000000000000000000000000000000600052601260045260246000fd5b6000826148b4576148b4614876565b500490565b600060ff821660ff81036148cf576148cf6147f1565b60010192915050565b7f4e487b7100000000000000000000000000000000000000000000000000000000600052603260045260246000fd5b61ffff828116828216039080821115614922576149226147f1565b5092915050565b60006020828403121561493b57600080fd5b815161143281614325565b60008261495557614955614876565b500690565b61ffff818116838216019080821115614922576149226147f1565b60006020828403121561498757600080fd5b8151611432816144af565b600060001982036149a5576149a56147f1565b5060010190565b600181815b808511156149e75781600019048211156149cd576149cd6147f1565b808516156149da57918102915b93841c93908002906149b1565b509250929050565b6000826149fe5750600161141e565b81614a0b5750600061141e565b8160018114614a215760028114614a2b57614a47565b600191505061141e565b60ff841115614a3c57614a3c6147f1565b50506001821b61141e565b5060208310610133831016604e8410600b8410161715614a6a575081810a61141e565b614a7483836149ac565b8060001904821115614a8857614a886147f1565b029392505050565b600061143283836149ef56fea26469706673582212206fd1a4f08b59804c0c74fd4f129c84d82b86db0fe4018495b8ebf3d6fa79b28a64736f6c63430008120033",
			"opcodes": "PUSH8 0x16345785D8A0000 PUSH1 0x3 SSTORE PUSH3 0xF4240 PUSH1 0x4 SSTORE PUSH1 0x78 PUSH1 0x80 DUP2 SWAP1 MSTORE PUSH1 0xA0 DUP2 SWAP1 MSTORE PUSH1 0x64 PUSH1 0xC0 DUP2 SWAP1 MSTORE PUSH1 0xB4 PUSH1 0xE0 DUP2 SWAP1 MSTORE PUSH1 0xF DUP4 SWAP1 SSTORE PUSH1 0x10 DUP4 SWAP1 SSTORE PUSH1 0x11 DUP3 SWAP1 SSTORE PUSH1 0x12 DUP2 SWAP1 SSTORE PUSH1 0x96 PUSH2 0x100 DUP2 SWAP1 MSTORE PUSH2 0x120 DUP2 SWAP1 MSTORE PUSH2 0x140 DUP4 SWAP1 MSTORE PUSH2 0x190 PUSH2 0x160 DUP2 SWAP1 MSTORE PUSH1 0x13 DUP3 SWAP1 SSTORE PUSH1 0x14 DUP3 SWAP1 SSTORE PUSH1 0x15 DUP5 SWAP1 SSTORE PUSH1 0x16 DUP2 SWAP1 SSTORE PUSH2 0x180 DUP6 SWAP1 MSTORE PUSH2 0x1A0 DUP4 SWAP1 MSTORE PUSH2 0x1C0 DUP5 SWAP1 MSTORE PUSH2 0x12C PUSH2 0x1E0 DUP2 SWAP1 MSTORE PUSH1 0x17 SWAP6 SWAP1 SWAP6 SSTORE PUSH1 0x18 SWAP3 SWAP1 SWAP3 SSTORE PUSH1 0x19 DUP4 SWAP1 SSTORE PUSH1 0x1A SWAP4 SWAP1 SWAP4 SSTORE PUSH2 0x200 DUP4 SWAP1 MSTORE PUSH1 0xC8 PUSH2 0x220 DUP2 SWAP1 MSTORE PUSH2 0x240 DUP4 SWAP1 MSTORE PUSH1 0xFA PUSH2 0x260 DUP2 SWAP1 MSTORE PUSH1 0x1B DUP6 SWAP1 SSTORE PUSH1 0x1C DUP3 SWAP1 SSTORE PUSH1 0x1D DUP5 SWAP1 SSTORE PUSH1 0x1E SSTORE PUSH2 0x280 DUP3 SWAP1 MSTORE PUSH2 0x2A0 DUP2 SWAP1 MSTORE PUSH2 0x2C0 DUP5 SWAP1 MSTORE PUSH2 0x2E0 DUP4 SWAP1 MSTORE PUSH1 0x1F DUP3 SWAP1 SSTORE PUSH1 0x20 DUP2 SWAP1 SSTORE PUSH1 0x21 DUP5 SWAP1 SSTORE PUSH1 0x22 DUP4 SWAP1 SSTORE PUSH2 0x380 PUSH1 0x40 MSTORE PUSH2 0x300 DUP3 SWAP1 MSTORE PUSH2 0x320 DUP2 SWAP1 MSTORE PUSH2 0x340 DUP5 SWAP1 MSTORE PUSH2 0x360 DUP4 SWAP1 MSTORE PUSH1 0x23 SWAP2 SWAP1 SWAP2 SSTORE PUSH1 0x24 SSTORE PUSH1 0x25 SWAP2 SWAP1 SWAP2 SSTORE PUSH1 0x26 SSTORE CALLVALUE DUP1 ISZERO PUSH3 0x13A JUMPI PUSH1 0x0 DUP1 REVERT JUMPDEST POP PUSH1 0x40 MLOAD PUSH3 0x52B7 CODESIZE SUB DUP1 PUSH3 0x52B7 DUP4 CODECOPY DUP2 ADD PUSH1 0x40 DUP2 SWAP1 MSTORE PUSH3 0x15D SWAP2 PUSH3 0x79D JUMP JUMPDEST PUSH1 0x1 DUP1 SLOAD PUSH1 0x1 PUSH1 0x1 PUSH1 0xA0 SHL SUB SWAP4 DUP5 AND PUSH1 0x1 PUSH1 0x1 PUSH1 0xA0 SHL SUB NOT SWAP2 DUP3 AND OR DUP3 SSTORE PUSH1 0x40 DUP1 MLOAD PUSH1 0x80 DUP1 DUP3 ADD DUP4 MSTORE PUSH2 0x4D8 DUP1 DUP4 MSTORE PUSH2 0xC80 PUSH1 0x20 DUP1 DUP6 ADD SWAP2 DUP3 MSTORE PUSH2 0x5A0 DUP6 DUP8 ADD SWAP1 DUP2 MSTORE PUSH2 0x370 PUSH1 0x60 DUP1 DUP9 ADD DUP3 DUP2 MSTORE PUSH1 0x0 SWAP12 DUP13 MSTORE PUSH1 0x29 DUP1 DUP7 MSTORE SWAP9 MLOAD PUSH32 0x6E777CACFC4AD3A3CAC3B8E17CCBBE9F6893BDC61D89783315EEE44E3959DA21 SSTORE SWAP5 MLOAD PUSH32 0x6E777CACFC4AD3A3CAC3B8E17CCBBE9F6893BDC61D89783315EEE44E3959DA22 SSTORE SWAP2 MLOAD PUSH32 0x6E777CACFC4AD3A3CAC3B8E17CCBBE9F6893BDC61D89783315EEE44E3959DA23 SSTORE SWAP3 MLOAD PUSH32 0x6E777CACFC4AD3A3CAC3B8E17CCBBE9F6893BDC61D89783315EEE44E3959DA24 SSTORE DUP7 MLOAD DUP1 DUP7 ADD DUP9 MSTORE PUSH2 0x514 DUP1 DUP3 MSTORE PUSH2 0xBB8 DUP3 DUP6 ADD SWAP1 DUP2 MSTORE DUP3 DUP11 ADD SWAP2 DUP3 MSTORE PUSH2 0x384 DUP4 DUP6 ADD SWAP1 DUP2 MSTORE PUSH1 0x2 DUP14 MSTORE DUP10 DUP7 MSTORE SWAP3 MLOAD PUSH32 0xE7AD7371109721849E84E0AA8F38C7E2D52987CF4198B383FC809A992A35E2F SSTORE MLOAD PUSH32 0xE7AD7371109721849E84E0AA8F38C7E2D52987CF4198B383FC809A992A35E30 SSTORE MLOAD PUSH32 0xE7AD7371109721849E84E0AA8F38C7E2D52987CF4198B383FC809A992A35E31 SSTORE MLOAD PUSH32 0xE7AD7371109721849E84E0AA8F38C7E2D52987CF4198B383FC809A992A35E32 SSTORE DUP7 MLOAD DUP1 DUP7 ADD DUP9 MSTORE PUSH2 0x6E0 DUP2 MSTORE PUSH2 0x1068 DUP2 DUP5 ADD SWAP1 DUP2 MSTORE PUSH2 0x7A8 DUP3 DUP11 ADD SWAP1 DUP2 MSTORE PUSH2 0x528 DUP4 DUP6 ADD SWAP1 DUP2 MSTORE PUSH1 0x3 DUP14 MSTORE DUP10 DUP7 MSTORE SWAP3 MLOAD PUSH32 0xD183863B3C0BF41D16900072A0FB18FC55924F70979571EEAF4AE275FE9BD7A8 SSTORE SWAP1 MLOAD PUSH32 0xD183863B3C0BF41D16900072A0FB18FC55924F70979571EEAF4AE275FE9BD7A9 SSTORE MLOAD PUSH32 0xD183863B3C0BF41D16900072A0FB18FC55924F70979571EEAF4AE275FE9BD7AA SSTORE MLOAD PUSH32 0xD183863B3C0BF41D16900072A0FB18FC55924F70979571EEAF4AE275FE9BD7AB SSTORE DUP7 MLOAD DUP1 DUP7 ADD DUP9 MSTORE DUP5 DUP2 MSTORE PUSH2 0xAF0 DUP2 DUP5 ADD SWAP1 DUP2 MSTORE DUP2 DUP10 ADD SWAP6 DUP7 MSTORE PUSH2 0x3AC DUP3 DUP5 ADD SWAP1 DUP2 MSTORE PUSH1 0x4 DUP13 MSTORE DUP9 DUP6 MSTORE SWAP2 MLOAD PUSH32 0xC0697D2F1FCE52AA225D0458A7B27AD1956D52964CFD4C2BE7F9306A6F1400EF SSTORE MLOAD PUSH32 0xC0697D2F1FCE52AA225D0458A7B27AD1956D52964CFD4C2BE7F9306A6F1400F0 SSTORE SWAP4 MLOAD PUSH32 0xC0697D2F1FCE52AA225D0458A7B27AD1956D52964CFD4C2BE7F9306A6F1400F1 SSTORE SWAP3 MLOAD PUSH32 0xC0697D2F1FCE52AA225D0458A7B27AD1956D52964CFD4C2BE7F9306A6F1400F2 SSTORE DUP6 MLOAD DUP1 DUP6 ADD DUP8 MSTORE PUSH2 0x190 DUP2 MSTORE PUSH2 0x410 DUP2 DUP4 ADD SWAP1 DUP2 MSTORE PUSH2 0x1C2 DUP3 DUP10 ADD SWAP1 DUP2 MSTORE PUSH1 0xE6 DUP4 DUP8 ADD SWAP1 DUP2 MSTORE PUSH1 0x5 DUP1 DUP14 MSTORE DUP10 DUP7 MSTORE SWAP4 MLOAD PUSH32 0x101E69429C70F0E5BDF1CA2519786BB700A226052B30AB320372E4D9B3D6148A SSTORE SWAP2 MLOAD PUSH32 0x101E69429C70F0E5BDF1CA2519786BB700A226052B30AB320372E4D9B3D6148B SSTORE MLOAD PUSH32 0x101E69429C70F0E5BDF1CA2519786BB700A226052B30AB320372E4D9B3D6148C SSTORE MLOAD PUSH32 0x101E69429C70F0E5BDF1CA2519786BB700A226052B30AB320372E4D9B3D6148D SSTORE DUP7 MLOAD DUP1 DUP7 ADD DUP9 MSTORE PUSH2 0x5B4 DUP1 DUP3 MSTORE PUSH2 0xC30 DUP3 DUP6 ADD SWAP1 DUP2 MSTORE DUP3 DUP11 ADD SWAP2 DUP3 MSTORE DUP3 DUP8 ADD SWAP6 DUP7 MSTORE PUSH1 0x6 DUP13 MSTORE DUP9 DUP6 MSTORE SWAP2 MLOAD PUSH32 0xC04CD9B44512FE9491ABEE65458F1E4F47328079FB141482406872AEE2A9DADC SSTORE SWAP1 MLOAD PUSH32 0xC04CD9B44512FE9491ABEE65458F1E4F47328079FB141482406872AEE2A9DADD SSTORE MLOAD PUSH32 0xC04CD9B44512FE9491ABEE65458F1E4F47328079FB141482406872AEE2A9DADE SSTORE SWAP2 MLOAD PUSH32 0xC04CD9B44512FE9491ABEE65458F1E4F47328079FB141482406872AEE2A9DADF SSTORE DUP6 MLOAD DUP1 DUP6 ADD DUP8 MSTORE PUSH2 0xADC DUP2 MSTORE PUSH2 0x1900 DUP2 DUP4 ADD SWAP1 DUP2 MSTORE PUSH2 0x2FA8 DUP3 DUP10 ADD SWAP1 DUP2 MSTORE PUSH2 0x924 DUP4 DUP8 ADD SWAP1 DUP2 MSTORE PUSH1 0x7 DUP13 MSTORE DUP9 DUP6 MSTORE SWAP3 MLOAD PUSH32 0x3E9630CDE5C31505C0E768288943C411AC318108355F25E62097BFDE2E170D09 SSTORE SWAP1 MLOAD PUSH32 0x3E9630CDE5C31505C0E768288943C411AC318108355F25E62097BFDE2E170D0A SSTORE MLOAD PUSH32 0x3E9630CDE5C31505C0E768288943C411AC318108355F25E62097BFDE2E170D0B SSTORE MLOAD PUSH32 0x3E9630CDE5C31505C0E768288943C411AC318108355F25E62097BFDE2E170D0C SSTORE DUP6 MLOAD SWAP4 DUP5 ADD DUP7 MSTORE PUSH2 0x690 DUP5 MSTORE PUSH2 0xE60 DUP5 DUP3 ADD SWAP1 DUP2 MSTORE PUSH2 0x758 SWAP7 DUP6 ADD SWAP7 DUP8 MSTORE PUSH2 0x550 SWAP4 DUP6 ADD SWAP4 DUP5 MSTORE PUSH1 0x8 DUP10 MSTORE SWAP5 SWAP1 MSTORE SWAP2 MLOAD PUSH32 0xB8C34D5B978521102A376AD401FCC53FB292B93BA791CF9BAC84EDDF8307BC7A SSTORE SWAP2 MLOAD PUSH32 0xB8C34D5B978521102A376AD401FCC53FB292B93BA791CF9BAC84EDDF8307BC7B SSTORE SWAP2 MLOAD PUSH32 0xB8C34D5B978521102A376AD401FCC53FB292B93BA791CF9BAC84EDDF8307BC7C SSTORE MLOAD PUSH32 0xB8C34D5B978521102A376AD401FCC53FB292B93BA791CF9BAC84EDDF8307BC7D SSTORE PUSH1 0xC DUP1 SLOAD DUP4 AND CALLER OR SWAP1 SSTORE DUP3 SLOAD SWAP4 SWAP1 SWAP5 AND SWAP3 AND SWAP2 SWAP1 SWAP2 OR SWAP1 SSTORE TIMESTAMP SWAP1 SSTORE PUSH3 0x7D5 JUMP JUMPDEST DUP1 MLOAD PUSH1 0x1 PUSH1 0x1 PUSH1 0xA0 SHL SUB DUP2 AND DUP2 EQ PUSH3 0x798 JUMPI PUSH1 0x0 DUP1 REVERT JUMPDEST SWAP2 SWAP1 POP JUMP JUMPDEST PUSH1 0x0 DUP1 PUSH1 0x40 DUP4 DUP6 SUB SLT ISZERO PUSH3 0x7B1 JUMPI PUSH1 0x0 DUP1 REVERT JUMPDEST PUSH3 0x7BC DUP4 PUSH3 0x780 JUMP JUMPDEST SWAP2 POP PUSH3 0x7CC PUSH1 0x20 DUP5 ADD PUSH3 0x780 JUMP JUMPDEST SWAP1 POP SWAP3 POP SWAP3 SWAP1 POP JUMP JUMPDEST PUSH2 0x4AD2 DUP1 PUSH3 0x7E5 PUSH1 0x0 CODECOPY PUSH1 0x0 RETURN INVALID PUSH1 0x80 PUSH1 0x40 MSTORE PUSH1 0x4 CALLDATASIZE LT PUSH2 0x308 JUMPI PUSH1 0x0 CALLDATALOAD PUSH1 0xE0 SHR DUP1 PUSH4 0x7659BC60 GT PUSH2 0x19A JUMPI DUP1 PUSH4 0xBE9A263C GT PUSH2 0xE1 JUMPI DUP1 PUSH4 0xDECC1BBF GT PUSH2 0x8A JUMPI DUP1 PUSH4 0xF89D7571 GT PUSH2 0x64 JUMPI DUP1 PUSH4 0xF89D7571 EQ PUSH2 0xACB JUMPI DUP1 PUSH4 0xF9C64454 EQ PUSH2 0xAEB JUMPI DUP1 PUSH4 0xFAE92612 EQ PUSH2 0xB0E JUMPI PUSH1 0x0 DUP1 REVERT JUMPDEST DUP1 PUSH4 0xDECC1BBF EQ PUSH2 0xA83 JUMPI DUP1 PUSH4 0xE9DD6583 EQ PUSH2 0xA98 JUMPI DUP1 PUSH4 0xF3245254 EQ PUSH2 0xAAB JUMPI PUSH1 0x0 DUP1 REVERT JUMPDEST DUP1 PUSH4 0xDAA17F49 GT PUSH2 0xBB JUMPI DUP1 PUSH4 0xDAA17F49 EQ PUSH2 0xA2D JUMPI DUP1 PUSH4 0xDD4B466B EQ PUSH2 0xA4D JUMPI DUP1 PUSH4 0xDE8CA33A EQ PUSH2 0xA6D JUMPI PUSH1 0x0 DUP1 REVERT JUMPDEST DUP1 PUSH4 0xBE9A263C EQ PUSH2 0x983 JUMPI DUP1 PUSH4 0xC1712D57 EQ PUSH2 0x9B0 JUMPI DUP1 PUSH4 0xCCD5E491 EQ PUSH2 0x9F2 JUMPI PUSH1 0x0 DUP1 REVERT JUMPDEST DUP1 PUSH4 0x9A4A2084 GT PUSH2 0x143 JUMPI DUP1 PUSH4 0xA596B645 GT PUSH2 0x11D JUMPI DUP1 PUSH4 0xA596B645 EQ PUSH2 0x91D JUMPI DUP1 PUSH4 0xBD638378 EQ PUSH2 0x940 JUMPI DUP1 PUSH4 0xBDC7DA8E EQ PUSH2 0x96D JUMPI PUSH1 0x0 DUP1 REVERT JUMPDEST DUP1 PUSH4 0x9A4A2084 EQ PUSH2 0x79D JUMPI DUP1 PUSH4 0x9B562DF2 EQ PUSH2 0x7BD JUMPI DUP1 PUSH4 0xA2F9CC5B EQ PUSH2 0x8C1 JUMPI PUSH1 0x0 DUP1 REVERT JUMPDEST DUP1 PUSH4 0x887ACA72 GT PUSH2 0x174 JUMPI DUP1 PUSH4 0x887ACA72 EQ PUSH2 0x722 JUMPI DUP1 PUSH4 0x8C87FA4F EQ PUSH2 0x75A JUMPI DUP1 PUSH4 0x8DA5CB5B EQ PUSH2 0x77D JUMPI PUSH1 0x0 DUP1 REVERT JUMPDEST DUP1 PUSH4 0x7659BC60 EQ PUSH2 0x6BF JUMPI DUP1 PUSH4 0x7CCA26D9 EQ PUSH2 0x6DF JUMPI DUP1 PUSH4 0x800BFA27 EQ PUSH2 0x6FF JUMPI PUSH1 0x0 DUP1 REVERT JUMPDEST DUP1 PUSH4 0x3E5F2857 GT PUSH2 0x25E JUMPI DUP1 PUSH4 0x537E8F49 GT PUSH2 0x207 JUMPI DUP1 PUSH4 0x620A9A99 GT PUSH2 0x1E1 JUMPI DUP1 PUSH4 0x620A9A99 EQ PUSH2 0x666 JUMPI DUP1 PUSH4 0x65AF3A2F EQ PUSH2 0x689 JUMPI DUP1 PUSH4 0x7502BAD4 EQ PUSH2 0x69F JUMPI PUSH1 0x0 DUP1 REVERT JUMPDEST DUP1 PUSH4 0x537E8F49 EQ PUSH2 0x5E3 JUMPI DUP1 PUSH4 0x5D219D5F EQ PUSH2 0x626 JUMPI DUP1 PUSH4 0x60B76B52 EQ PUSH2 0x646 JUMPI PUSH1 0x0 DUP1 REVERT JUMPDEST DUP1 PUSH4 0x428967DA GT PUSH2 0x238 JUMPI DUP1 PUSH4 0x428967DA EQ PUSH2 0x56E JUMPI DUP1 PUSH4 0x4855735C EQ PUSH2 0x584 JUMPI DUP1 PUSH4 0x4F264B03 EQ PUSH2 0x5C3 JUMPI PUSH1 0x0 DUP1 REVERT JUMPDEST DUP1 PUSH4 0x3E5F2857 EQ PUSH2 0x4EE JUMPI DUP1 PUSH4 0x41EDE44F EQ PUSH2 0x50E JUMPI DUP1 PUSH4 0x4274B164 EQ PUSH2 0x54E JUMPI PUSH1 0x0 DUP1 REVERT JUMPDEST DUP1 PUSH4 0x1ACC55EA GT PUSH2 0x2C0 JUMPI DUP1 PUSH4 0x2EF78865 GT PUSH2 0x29A JUMPI DUP1 PUSH4 0x2EF78865 EQ PUSH2 0x45B JUMPI DUP1 PUSH4 0x33B95EE0 EQ PUSH2 0x493 JUMPI DUP1 PUSH4 0x351662E4 EQ PUSH2 0x4CE JUMPI PUSH1 0x0 DUP1 REVERT JUMPDEST DUP1 PUSH4 0x1ACC55EA EQ PUSH2 0x3F7 JUMPI DUP1 PUSH4 0x21B74EA7 EQ PUSH2 0x417 JUMPI DUP1 PUSH4 0x2A490AE8 EQ PUSH2 0x43B JUMPI PUSH1 0x0 DUP1 REVERT JUMPDEST DUP1 PUSH4 0xD67F59E GT PUSH2 0x2F1 JUMPI DUP1 PUSH4 0xD67F59E EQ PUSH2 0x37F JUMPI DUP1 PUSH4 0xDF7B41A EQ PUSH2 0x3B7 JUMPI DUP1 PUSH4 0xEE22F31 EQ PUSH2 0x3D7 JUMPI PUSH1 0x0 DUP1 REVERT JUMPDEST DUP1 PUSH4 0x2CD77E6 EQ PUSH2 0x30D JUMPI DUP1 PUSH4 0x7722BC2 EQ PUSH2 0x35D JUMPI JUMPDEST PUSH1 0x0 DUP1 REVERT JUMPDEST CALLVALUE DUP1 ISZERO PUSH2 0x319 JUMPI PUSH1 0x0 DUP1 REVERT JUMPDEST POP PUSH2 0x348 PUSH2 0x328 CALLDATASIZE PUSH1 0x4 PUSH2 0x4337 JUMP JUMPDEST PUSH1 0x9 PUSH1 0x20 SWAP1 DUP2 MSTORE PUSH1 0x0 SWAP3 DUP4 MSTORE PUSH1 0x40 DUP1 DUP5 KECCAK256 SWAP1 SWAP2 MSTORE SWAP1 DUP3 MSTORE SWAP1 KECCAK256 SLOAD PUSH1 0xFF AND DUP2 JUMP JUMPDEST PUSH1 0x40 MLOAD SWAP1 ISZERO ISZERO DUP2 MSTORE PUSH1 0x20 ADD JUMPDEST PUSH1 0x40 MLOAD DUP1 SWAP2 SUB SWAP1 RETURN JUMPDEST CALLVALUE DUP1 ISZERO PUSH2 0x369 JUMPI PUSH1 0x0 DUP1 REVERT JUMPDEST POP PUSH2 0x37D PUSH2 0x378 CALLDATASIZE PUSH1 0x4 PUSH2 0x4370 JUMP JUMPDEST PUSH2 0xB2E JUMP JUMPDEST STOP JUMPDEST CALLVALUE DUP1 ISZERO PUSH2 0x38B JUMPI PUSH1 0x0 DUP1 REVERT JUMPDEST POP PUSH1 0x0 SLOAD PUSH2 0x39F SWAP1 PUSH1 0x1 PUSH1 0x1 PUSH1 0xA0 SHL SUB AND DUP2 JUMP JUMPDEST PUSH1 0x40 MLOAD PUSH1 0x1 PUSH1 0x1 PUSH1 0xA0 SHL SUB SWAP1 SWAP2 AND DUP2 MSTORE PUSH1 0x20 ADD PUSH2 0x354 JUMP JUMPDEST CALLVALUE DUP1 ISZERO PUSH2 0x3C3 JUMPI PUSH1 0x0 DUP1 REVERT JUMPDEST POP PUSH2 0x37D PUSH2 0x3D2 CALLDATASIZE PUSH1 0x4 PUSH2 0x43D6 JUMP JUMPDEST PUSH2 0xDDE JUMP JUMPDEST CALLVALUE DUP1 ISZERO PUSH2 0x3E3 JUMPI PUSH1 0x0 DUP1 REVERT JUMPDEST POP PUSH2 0x37D PUSH2 0x3F2 CALLDATASIZE PUSH1 0x4 PUSH2 0x43F3 JUMP JUMPDEST PUSH2 0xE58 JUMP JUMPDEST CALLVALUE DUP1 ISZERO PUSH2 0x403 JUMPI PUSH1 0x0 DUP1 REVERT JUMPDEST POP PUSH2 0x348 PUSH2 0x412 CALLDATASIZE PUSH1 0x4 PUSH2 0x4337 JUMP JUMPDEST PUSH2 0x13FB JUMP JUMPDEST CALLVALUE DUP1 ISZERO PUSH2 0x423 JUMPI PUSH1 0x0 DUP1 REVERT JUMPDEST POP PUSH2 0x42D PUSH1 0x3 SLOAD DUP2 JUMP JUMPDEST PUSH1 0x40 MLOAD SWAP1 DUP2 MSTORE PUSH1 0x20 ADD PUSH2 0x354 JUMP JUMPDEST CALLVALUE DUP1 ISZERO PUSH2 0x447 JUMPI PUSH1 0x0 DUP1 REVERT JUMPDEST POP PUSH2 0x42D PUSH2 0x456 CALLDATASIZE PUSH1 0x4 PUSH2 0x4337 JUMP JUMPDEST PUSH2 0x1424 JUMP JUMPDEST CALLVALUE DUP1 ISZERO PUSH2 0x467 JUMPI PUSH1 0x0 DUP1 REVERT JUMPDEST POP PUSH2 0x42D PUSH2 0x476 CALLDATASIZE PUSH1 0x4 PUSH2 0x4337 JUMP JUMPDEST PUSH1 0xA PUSH1 0x20 SWAP1 DUP2 MSTORE PUSH1 0x0 SWAP3 DUP4 MSTORE PUSH1 0x40 DUP1 DUP5 KECCAK256 SWAP1 SWAP2 MSTORE SWAP1 DUP3 MSTORE SWAP1 KECCAK256 SLOAD DUP2 JUMP JUMPDEST CALLVALUE DUP1 ISZERO PUSH2 0x49F JUMPI PUSH1 0x0 DUP1 REVERT JUMPDEST POP PUSH2 0x348 PUSH2 0x4AE CALLDATASIZE PUSH1 0x4 PUSH2 0x4337 JUMP JUMPDEST PUSH1 0x8 PUSH1 0x20 SWAP1 DUP2 MSTORE PUSH1 0x0 SWAP3 DUP4 MSTORE PUSH1 0x40 DUP1 DUP5 KECCAK256 SWAP1 SWAP2 MSTORE SWAP1 DUP3 MSTORE SWAP1 KECCAK256 SLOAD PUSH1 0xFF AND DUP2 JUMP JUMPDEST CALLVALUE DUP1 ISZERO PUSH2 0x4DA JUMPI PUSH1 0x0 DUP1 REVERT JUMPDEST POP PUSH2 0x37D PUSH2 0x4E9 CALLDATASIZE PUSH1 0x4 PUSH2 0x4464 JUMP JUMPDEST PUSH2 0x1439 JUMP JUMPDEST CALLVALUE DUP1 ISZERO PUSH2 0x4FA JUMPI PUSH1 0x0 DUP1 REVERT JUMPDEST POP PUSH2 0x37D PUSH2 0x509 CALLDATASIZE PUSH1 0x4 PUSH2 0x44BD JUMP JUMPDEST PUSH2 0x198F JUMP JUMPDEST CALLVALUE DUP1 ISZERO PUSH2 0x51A JUMPI PUSH1 0x0 DUP1 REVERT JUMPDEST POP PUSH2 0x42D PUSH2 0x529 CALLDATASIZE PUSH1 0x4 PUSH2 0x4337 JUMP JUMPDEST PUSH1 0xFF SWAP2 DUP3 AND PUSH1 0x0 SWAP1 DUP2 MSTORE PUSH1 0x7 PUSH1 0x20 SWAP1 DUP2 MSTORE PUSH1 0x40 DUP1 DUP4 KECCAK256 SWAP4 SWAP1 SWAP5 AND DUP3 MSTORE SWAP2 SWAP1 SWAP2 MSTORE KECCAK256 SLOAD SWAP1 JUMP JUMPDEST CALLVALUE DUP1 ISZERO PUSH2 0x55A JUMPI PUSH1 0x0 DUP1 REVERT JUMPDEST POP PUSH2 0x37D PUSH2 0x569 CALLDATASIZE PUSH1 0x4 PUSH2 0x4370 JUMP JUMPDEST PUSH2 0x2023 JUMP JUMPDEST CALLVALUE DUP1 ISZERO PUSH2 0x57A JUMPI PUSH1 0x0 DUP1 REVERT JUMPDEST POP PUSH2 0x42D PUSH1 0x4 SLOAD DUP2 JUMP JUMPDEST CALLVALUE DUP1 ISZERO PUSH2 0x590 JUMPI PUSH1 0x0 DUP1 REVERT JUMPDEST POP PUSH2 0x348 PUSH2 0x59F CALLDATASIZE PUSH1 0x4 PUSH2 0x4337 JUMP JUMPDEST PUSH1 0xFF SWAP2 DUP3 AND PUSH1 0x0 SWAP1 DUP2 MSTORE PUSH1 0x9 PUSH1 0x20 SWAP1 DUP2 MSTORE PUSH1 0x40 DUP1 DUP4 KECCAK256 SWAP4 DUP6 AND DUP4 MSTORE SWAP3 SWAP1 MSTORE KECCAK256 SLOAD AND SWAP1 JUMP JUMPDEST CALLVALUE DUP1 ISZERO PUSH2 0x5CF JUMPI PUSH1 0x0 DUP1 REVERT JUMPDEST POP PUSH1 0x1 SLOAD PUSH2 0x39F SWAP1 PUSH1 0x1 PUSH1 0x1 PUSH1 0xA0 SHL SUB AND DUP2 JUMP JUMPDEST CALLVALUE DUP1 ISZERO PUSH2 0x5EF JUMPI PUSH1 0x0 DUP1 REVERT JUMPDEST POP PUSH1 0x1B SLOAD PUSH1 0x1C SLOAD PUSH1 0x1D SLOAD PUSH1 0x1E SLOAD PUSH2 0x606 SWAP4 SWAP3 SWAP2 SWAP1 DUP5 JUMP JUMPDEST PUSH1 0x40 DUP1 MLOAD SWAP5 DUP6 MSTORE PUSH1 0x20 DUP6 ADD SWAP4 SWAP1 SWAP4 MSTORE SWAP2 DUP4 ADD MSTORE PUSH1 0x60 DUP3 ADD MSTORE PUSH1 0x80 ADD PUSH2 0x354 JUMP JUMPDEST CALLVALUE DUP1 ISZERO PUSH2 0x632 JUMPI PUSH1 0x0 DUP1 REVERT JUMPDEST POP PUSH2 0x37D PUSH2 0x641 CALLDATASIZE PUSH1 0x4 PUSH2 0x43D6 JUMP JUMPDEST PUSH2 0x22B3 JUMP JUMPDEST CALLVALUE DUP1 ISZERO PUSH2 0x652 JUMPI PUSH1 0x0 DUP1 REVERT JUMPDEST POP PUSH2 0x37D PUSH2 0x661 CALLDATASIZE PUSH1 0x4 PUSH2 0x4517 JUMP JUMPDEST PUSH2 0x232D JUMP JUMPDEST CALLVALUE DUP1 ISZERO PUSH2 0x672 JUMPI PUSH1 0x0 DUP1 REVERT JUMPDEST POP PUSH1 0xF SLOAD PUSH1 0x10 SLOAD PUSH1 0x11 SLOAD PUSH1 0x12 SLOAD PUSH2 0x606 SWAP4 SWAP3 SWAP2 SWAP1 DUP5 JUMP JUMPDEST CALLVALUE DUP1 ISZERO PUSH2 0x695 JUMPI PUSH1 0x0 DUP1 REVERT JUMPDEST POP PUSH2 0x42D PUSH1 0x5 SLOAD DUP2 JUMP JUMPDEST CALLVALUE DUP1 ISZERO PUSH2 0x6AB JUMPI PUSH1 0x0 DUP1 REVERT JUMPDEST POP PUSH1 0xE SLOAD PUSH2 0x39F SWAP1 PUSH1 0x1 PUSH1 0x1 PUSH1 0xA0 SHL SUB AND DUP2 JUMP JUMPDEST CALLVALUE DUP1 ISZERO PUSH2 0x6CB JUMPI PUSH1 0x0 DUP1 REVERT JUMPDEST POP PUSH2 0x37D PUSH2 0x6DA CALLDATASIZE PUSH1 0x4 PUSH2 0x4337 JUMP JUMPDEST PUSH2 0x25E2 JUMP JUMPDEST CALLVALUE DUP1 ISZERO PUSH2 0x6EB JUMPI PUSH1 0x0 DUP1 REVERT JUMPDEST POP PUSH1 0x2 SLOAD PUSH2 0x39F SWAP1 PUSH1 0x1 PUSH1 0x1 PUSH1 0xA0 SHL SUB AND DUP2 JUMP JUMPDEST CALLVALUE DUP1 ISZERO PUSH2 0x70B JUMPI PUSH1 0x0 DUP1 REVERT JUMPDEST POP PUSH1 0x17 SLOAD PUSH1 0x18 SLOAD PUSH1 0x19 SLOAD PUSH1 0x1A SLOAD PUSH2 0x606 SWAP4 SWAP3 SWAP2 SWAP1 DUP5 JUMP JUMPDEST CALLVALUE DUP1 ISZERO PUSH2 0x72E JUMPI PUSH1 0x0 DUP1 REVERT JUMPDEST POP PUSH2 0x42D PUSH2 0x73D CALLDATASIZE PUSH1 0x4 PUSH2 0x4337 JUMP JUMPDEST PUSH1 0x7 PUSH1 0x20 SWAP1 DUP2 MSTORE PUSH1 0x0 SWAP3 DUP4 MSTORE PUSH1 0x40 DUP1 DUP5 KECCAK256 SWAP1 SWAP2 MSTORE SWAP1 DUP3 MSTORE SWAP1 KECCAK256 SLOAD DUP2 JUMP JUMPDEST CALLVALUE DUP1 ISZERO PUSH2 0x766 JUMPI PUSH1 0x0 DUP1 REVERT JUMPDEST POP PUSH1 0x13 SLOAD PUSH1 0x14 SLOAD PUSH1 0x15 SLOAD PUSH1 0x16 SLOAD PUSH2 0x606 SWAP4 SWAP3 SWAP2 SWAP1 DUP5 JUMP JUMPDEST CALLVALUE DUP1 ISZERO PUSH2 0x789 JUMPI PUSH1 0x0 DUP1 REVERT JUMPDEST POP PUSH1 0xC SLOAD PUSH2 0x39F SWAP1 PUSH1 0x1 PUSH1 0x1 PUSH1 0xA0 SHL SUB AND DUP2 JUMP JUMPDEST CALLVALUE DUP1 ISZERO PUSH2 0x7A9 JUMPI PUSH1 0x0 DUP1 REVERT JUMPDEST POP PUSH2 0x37D PUSH2 0x7B8 CALLDATASIZE PUSH1 0x4 PUSH2 0x4573 JUMP JUMPDEST PUSH2 0x266B JUMP JUMPDEST CALLVALUE DUP1 ISZERO PUSH2 0x7C9 JUMPI PUSH1 0x0 DUP1 REVERT JUMPDEST POP PUSH2 0x8AD PUSH2 0x7D8 CALLDATASIZE PUSH1 0x4 PUSH2 0x4337 JUMP JUMPDEST PUSH1 0x27 PUSH1 0x20 SWAP1 DUP2 MSTORE PUSH1 0x0 SWAP3 DUP4 MSTORE PUSH1 0x40 DUP1 DUP5 KECCAK256 DUP3 MSTORE SWAP2 DUP4 MSTORE SWAP2 DUP2 SWAP1 KECCAK256 DUP2 MLOAD PUSH1 0x80 DUP1 DUP3 ADD DUP5 MSTORE DUP3 SLOAD DUP3 MSTORE PUSH1 0x1 DUP4 ADD SLOAD DUP3 DUP7 ADD MSTORE PUSH1 0x2 DUP4 ADD SLOAD DUP3 DUP6 ADD MSTORE PUSH1 0x3 DUP4 ADD SLOAD PUSH1 0x60 DUP1 DUP5 ADD SWAP2 SWAP1 SWAP2 MSTORE PUSH1 0x4 DUP5 ADD SLOAD PUSH1 0x5 DUP6 ADD SLOAD PUSH1 0x6 DUP7 ADD SLOAD PUSH1 0x7 DUP8 ADD SLOAD DUP9 MLOAD PUSH1 0xC0 DUP2 ADD DUP11 MSTORE PUSH1 0x8 DUP10 ADD SLOAD DUP2 MSTORE PUSH1 0x9 DUP10 ADD SLOAD DUP2 DUP13 ADD MSTORE PUSH1 0xA DUP10 ADD SLOAD DUP2 DUP12 ADD MSTORE PUSH1 0xB DUP10 ADD SLOAD SWAP6 DUP2 ADD SWAP6 SWAP1 SWAP6 MSTORE PUSH1 0xC DUP9 ADD SLOAD SWAP6 DUP6 ADD SWAP6 SWAP1 SWAP6 MSTORE PUSH1 0xD DUP8 ADD SLOAD PUSH1 0xA0 DUP6 ADD MSTORE DUP8 MLOAD DUP1 DUP10 ADD SWAP1 SWAP9 MSTORE PUSH1 0xE DUP8 ADD SLOAD PUSH1 0xFF DUP1 DUP3 AND DUP11 MSTORE PUSH2 0x100 SWAP1 SWAP2 DIV AND SWAP9 DUP9 ADD SWAP9 SWAP1 SWAP9 MSTORE PUSH1 0xF SWAP1 SWAP6 ADD SLOAD SWAP4 SWAP7 PUSH2 0xFFFF SWAP2 DUP3 AND SWAP7 SWAP2 AND SWAP4 DUP9 JUMP JUMPDEST PUSH1 0x40 MLOAD PUSH2 0x354 SWAP9 SWAP8 SWAP7 SWAP6 SWAP5 SWAP4 SWAP3 SWAP2 SWAP1 PUSH2 0x45B3 JUMP JUMPDEST CALLVALUE DUP1 ISZERO PUSH2 0x8CD JUMPI PUSH1 0x0 DUP1 REVERT JUMPDEST POP PUSH2 0x90B PUSH2 0x8DC CALLDATASIZE PUSH1 0x4 PUSH2 0x4517 JUMP JUMPDEST PUSH1 0x28 PUSH1 0x20 SWAP1 DUP2 MSTORE PUSH1 0x0 SWAP5 DUP6 MSTORE PUSH1 0x40 DUP1 DUP7 KECCAK256 DUP3 MSTORE SWAP4 DUP6 MSTORE DUP4 DUP6 KECCAK256 DUP2 MSTORE SWAP2 DUP5 MSTORE DUP3 DUP5 KECCAK256 SWAP1 SWAP2 MSTORE DUP3 MSTORE SWAP1 KECCAK256 SLOAD PUSH1 0xFF AND DUP2 JUMP JUMPDEST PUSH1 0x40 MLOAD PUSH1 0xFF SWAP1 SWAP2 AND DUP2 MSTORE PUSH1 0x20 ADD PUSH2 0x354 JUMP JUMPDEST CALLVALUE DUP1 ISZERO PUSH2 0x929 JUMPI PUSH1 0x0 DUP1 REVERT JUMPDEST POP PUSH1 0x1F SLOAD PUSH1 0x20 SLOAD PUSH1 0x21 SLOAD PUSH1 0x22 SLOAD PUSH2 0x606 SWAP4 SWAP3 SWAP2 SWAP1 DUP5 JUMP JUMPDEST CALLVALUE DUP1 ISZERO PUSH2 0x94C JUMPI PUSH1 0x0 DUP1 REVERT JUMPDEST POP PUSH2 0x960 PUSH2 0x95B CALLDATASIZE PUSH1 0x4 PUSH2 0x4337 JUMP JUMPDEST PUSH2 0x26F9 JUMP JUMPDEST PUSH1 0x40 MLOAD PUSH2 0x354 SWAP2 SWAP1 PUSH2 0x466F JUMP JUMPDEST CALLVALUE DUP1 ISZERO PUSH2 0x979 JUMPI PUSH1 0x0 DUP1 REVERT JUMPDEST POP PUSH2 0x42D PUSH2 0x3E8 DUP2 JUMP JUMPDEST CALLVALUE DUP1 ISZERO PUSH2 0x98F JUMPI PUSH1 0x0 DUP1 REVERT JUMPDEST POP PUSH2 0x9A3 PUSH2 0x99E CALLDATASIZE PUSH1 0x4 PUSH2 0x4337 JUMP JUMPDEST PUSH2 0x284F JUMP JUMPDEST PUSH1 0x40 MLOAD PUSH2 0x354 SWAP2 SWAP1 PUSH2 0x472B JUMP JUMPDEST CALLVALUE DUP1 ISZERO PUSH2 0x9BC JUMPI PUSH1 0x0 DUP1 REVERT JUMPDEST POP PUSH2 0x606 PUSH2 0x9CB CALLDATASIZE PUSH1 0x4 PUSH2 0x4790 JUMP JUMPDEST PUSH1 0x29 PUSH1 0x20 MSTORE PUSH1 0x0 SWAP1 DUP2 MSTORE PUSH1 0x40 SWAP1 KECCAK256 DUP1 SLOAD PUSH1 0x1 DUP3 ADD SLOAD PUSH1 0x2 DUP4 ADD SLOAD PUSH1 0x3 SWAP1 SWAP4 ADD SLOAD SWAP2 SWAP3 SWAP1 SWAP2 DUP5 JUMP JUMPDEST CALLVALUE DUP1 ISZERO PUSH2 0x9FE JUMPI PUSH1 0x0 DUP1 REVERT JUMPDEST POP PUSH2 0x348 PUSH2 0xA0D CALLDATASIZE PUSH1 0x4 PUSH2 0x4337 JUMP JUMPDEST PUSH1 0xB PUSH1 0x20 SWAP1 DUP2 MSTORE PUSH1 0x0 SWAP3 DUP4 MSTORE PUSH1 0x40 DUP1 DUP5 KECCAK256 SWAP1 SWAP2 MSTORE SWAP1 DUP3 MSTORE SWAP1 KECCAK256 SLOAD PUSH1 0xFF AND DUP2 JUMP JUMPDEST CALLVALUE DUP1 ISZERO PUSH2 0xA39 JUMPI PUSH1 0x0 DUP1 REVERT JUMPDEST POP PUSH1 0xD SLOAD PUSH2 0x39F SWAP1 PUSH1 0x1 PUSH1 0x1 PUSH1 0xA0 SHL SUB AND DUP2 JUMP JUMPDEST CALLVALUE DUP1 ISZERO PUSH2 0xA59 JUMPI PUSH1 0x0 DUP1 REVERT JUMPDEST POP PUSH2 0x37D PUSH2 0xA68 CALLDATASIZE PUSH1 0x4 PUSH2 0x4337 JUMP JUMPDEST PUSH2 0x29D9 JUMP JUMPDEST CALLVALUE DUP1 ISZERO PUSH2 0xA79 JUMPI PUSH1 0x0 DUP1 REVERT JUMPDEST POP PUSH2 0x42D PUSH1 0x6 SLOAD DUP2 JUMP JUMPDEST CALLVALUE DUP1 ISZERO PUSH2 0xA8F JUMPI PUSH1 0x0 DUP1 REVERT JUMPDEST POP PUSH2 0x90B PUSH1 0x9 DUP2 JUMP JUMPDEST PUSH2 0x37D PUSH2 0xAA6 CALLDATASIZE PUSH1 0x4 PUSH2 0x47AD JUMP JUMPDEST PUSH2 0x2B50 JUMP JUMPDEST CALLVALUE DUP1 ISZERO PUSH2 0xAB7 JUMPI PUSH1 0x0 DUP1 REVERT JUMPDEST POP PUSH2 0x42D PUSH2 0xAC6 CALLDATASIZE PUSH1 0x4 PUSH2 0x4337 JUMP JUMPDEST PUSH2 0x3347 JUMP JUMPDEST CALLVALUE DUP1 ISZERO PUSH2 0xAD7 JUMPI PUSH1 0x0 DUP1 REVERT JUMPDEST POP PUSH2 0x37D PUSH2 0xAE6 CALLDATASIZE PUSH1 0x4 PUSH2 0x4370 JUMP JUMPDEST PUSH2 0x34F0 JUMP JUMPDEST CALLVALUE DUP1 ISZERO PUSH2 0xAF7 JUMPI PUSH1 0x0 DUP1 REVERT JUMPDEST POP PUSH1 0x23 SLOAD PUSH1 0x24 SLOAD PUSH1 0x25 SLOAD PUSH1 0x26 SLOAD PUSH2 0x606 SWAP4 SWAP3 SWAP2 SWAP1 DUP5 JUMP JUMPDEST CALLVALUE DUP1 ISZERO PUSH2 0xB1A JUMPI PUSH1 0x0 DUP1 REVERT JUMPDEST POP PUSH2 0x37D PUSH2 0xB29 CALLDATASIZE PUSH1 0x4 PUSH2 0x43D6 JUMP JUMPDEST PUSH2 0x3937 JUMP JUMPDEST PUSH1 0x1 SLOAD PUSH1 0x40 MLOAD PUSH4 0x8A888953 PUSH1 0xE0 SHL DUP2 MSTORE PUSH1 0xFF DUP1 DUP8 AND PUSH1 0x4 DUP4 ADD MSTORE DUP6 AND PUSH1 0x24 DUP3 ADD MSTORE DUP6 SWAP2 DUP6 SWAP2 CALLER SWAP2 PUSH1 0x1 PUSH1 0x1 PUSH1 0xA0 SHL SUB AND SWAP1 PUSH4 0x8A888953 SWAP1 PUSH1 0x44 ADD PUSH1 0x20 PUSH1 0x40 MLOAD DUP1 DUP4 SUB DUP2 DUP7 GAS STATICCALL ISZERO DUP1 ISZERO PUSH2 0xB85 JUMPI RETURNDATASIZE PUSH1 0x0 DUP1 RETURNDATACOPY RETURNDATASIZE PUSH1 0x0 REVERT JUMPDEST POP POP POP POP PUSH1 0x40 MLOAD RETURNDATASIZE PUSH1 0x1F NOT PUSH1 0x1F DUP3 ADD AND DUP3 ADD DUP1 PUSH1 0x40 MSTORE POP DUP2 ADD SWAP1 PUSH2 0xBA9 SWAP2 SWAP1 PUSH2 0x47D4 JUMP JUMPDEST PUSH1 0x1 PUSH1 0x1 PUSH1 0xA0 SHL SUB AND EQ PUSH2 0xBEA JUMPI PUSH1 0x40 MLOAD PUSH3 0x461BCD PUSH1 0xE5 SHL DUP2 MSTORE PUSH1 0x20 PUSH1 0x4 DUP3 ADD MSTORE PUSH1 0x3 PUSH1 0x24 DUP3 ADD MSTORE PUSH3 0x37BBB7 PUSH1 0xE9 SHL PUSH1 0x44 DUP3 ADD MSTORE PUSH1 0x64 ADD JUMPDEST PUSH1 0x40 MLOAD DUP1 SWAP2 SUB SWAP1 REVERT JUMPDEST PUSH1 0x0 DUP4 GT PUSH2 0xC3A JUMPI PUSH1 0x40 MLOAD PUSH3 0x461BCD PUSH1 0xE5 SHL DUP2 MSTORE PUSH1 0x20 PUSH1 0x4 DUP3 ADD MSTORE PUSH1 0x1 PUSH1 0x24 DUP3 ADD MSTORE PUSH32 0x7A00000000000000000000000000000000000000000000000000000000000000 PUSH1 0x44 DUP3 ADD MSTORE PUSH1 0x64 ADD PUSH2 0xBE1 JUMP JUMPDEST DUP4 PUSH1 0xFF AND PUSH1 0x1 EQ DUP1 PUSH2 0xC4F JUMPI POP DUP4 PUSH1 0xFF AND PUSH1 0x2 EQ JUMPDEST PUSH2 0xC9B JUMPI PUSH1 0x40 MLOAD PUSH3 0x461BCD PUSH1 0xE5 SHL DUP2 MSTORE PUSH1 0x20 PUSH1 0x4 DUP3 ADD MSTORE PUSH1 0x1 PUSH1 0x24 DUP3 ADD MSTORE PUSH32 0x7400000000000000000000000000000000000000000000000000000000000000 PUSH1 0x44 DUP3 ADD MSTORE PUSH1 0x64 ADD PUSH2 0xBE1 JUMP JUMPDEST PUSH1 0x0 PUSH2 0xCA9 DUP8 DUP8 PUSH1 0x1 PUSH2 0x39B1 JUMP JUMPDEST SWAP1 POP PUSH1 0x0 DUP2 GT PUSH2 0xCFB JUMPI PUSH1 0x40 MLOAD PUSH3 0x461BCD PUSH1 0xE5 SHL DUP2 MSTORE PUSH1 0x20 PUSH1 0x4 DUP3 ADD MSTORE PUSH1 0x1 PUSH1 0x24 DUP3 ADD MSTORE PUSH32 0x6100000000000000000000000000000000000000000000000000000000000000 PUSH1 0x44 DUP3 ADD MSTORE PUSH1 0x64 ADD PUSH2 0xBE1 JUMP JUMPDEST PUSH1 0x0 DUP6 PUSH1 0xFF AND PUSH1 0x1 EQ PUSH2 0xD0F JUMPI PUSH1 0x13 PUSH2 0xD12 JUMP JUMPDEST PUSH1 0xF JUMPDEST PUSH1 0x40 DUP1 MLOAD PUSH1 0x80 DUP2 ADD DUP3 MSTORE DUP3 SLOAD DUP2 MSTORE PUSH1 0x1 DUP4 ADD SLOAD PUSH1 0x20 DUP3 ADD MSTORE PUSH1 0x2 DUP4 ADD SLOAD SWAP2 DUP2 ADD SWAP2 SWAP1 SWAP2 MSTORE PUSH1 0x3 SWAP1 SWAP2 ADD SLOAD PUSH1 0x60 DUP3 ADD MSTORE SWAP1 POP PUSH2 0xD50 DUP9 DUP9 DUP4 DUP9 DUP7 PUSH2 0x3A4C JUMP JUMPDEST DUP6 PUSH1 0xFF AND PUSH1 0x1 SUB PUSH2 0xD9A JUMPI PUSH1 0xFF DUP1 DUP10 AND PUSH1 0x0 SWAP1 DUP2 MSTORE PUSH1 0x27 PUSH1 0x20 SWAP1 DUP2 MSTORE PUSH1 0x40 DUP1 DUP4 KECCAK256 SWAP4 DUP12 AND DUP4 MSTORE SWAP3 SWAP1 MSTORE SWAP1 DUP2 KECCAK256 PUSH1 0x8 ADD DUP1 SLOAD DUP8 SWAP3 SWAP1 PUSH2 0xD8F SWAP1 DUP5 SWAP1 PUSH2 0x4820 JUMP JUMPDEST SWAP1 SWAP2 SSTORE POP PUSH2 0xDD4 SWAP1 POP JUMP JUMPDEST PUSH1 0xFF DUP1 DUP10 AND PUSH1 0x0 SWAP1 DUP2 MSTORE PUSH1 0x27 PUSH1 0x20 SWAP1 DUP2 MSTORE PUSH1 0x40 DUP1 DUP4 KECCAK256 SWAP4 DUP12 AND DUP4 MSTORE SWAP3 SWAP1 MSTORE SWAP1 DUP2 KECCAK256 PUSH1 0x9 ADD DUP1 SLOAD DUP8 SWAP3 SWAP1 PUSH2 0xDCE SWAP1 DUP5 SWAP1 PUSH2 0x4820 JUMP JUMPDEST SWAP1 SWAP2 SSTORE POP POP JUMPDEST POP POP POP POP POP POP POP POP JUMP JUMPDEST PUSH1 0xC SLOAD PUSH1 0x1 PUSH1 0x1 PUSH1 0xA0 SHL SUB AND CALLER EQ PUSH2 0xE1E JUMPI PUSH1 0x40 MLOAD PUSH3 0x461BCD PUSH1 0xE5 SHL DUP2 MSTORE PUSH1 0x20 PUSH1 0x4 DUP3 ADD MSTORE PUSH1 0x3 PUSH1 0x24 DUP3 ADD MSTORE PUSH3 0x37BBB7 PUSH1 0xE9 SHL PUSH1 0x44 DUP3 ADD MSTORE PUSH1 0x64 ADD PUSH2 0xBE1 JUMP JUMPDEST PUSH1 0xE DUP1 SLOAD PUSH32 0xFFFFFFFFFFFFFFFFFFFFFFFF0000000000000000000000000000000000000000 AND PUSH1 0x1 PUSH1 0x1 PUSH1 0xA0 SHL SUB SWAP3 SWAP1 SWAP3 AND SWAP2 SWAP1 SWAP2 OR SWAP1 SSTORE JUMP JUMPDEST PUSH1 0x1 SLOAD PUSH1 0x40 MLOAD PUSH4 0x8A888953 PUSH1 0xE0 SHL DUP2 MSTORE PUSH1 0xFF DUP1 DUP9 AND PUSH1 0x4 DUP4 ADD MSTORE DUP7 AND PUSH1 0x24 DUP3 ADD MSTORE DUP7 SWAP2 DUP7 SWAP2 CALLER SWAP2 PUSH1 0x1 PUSH1 0x1 PUSH1 0xA0 SHL SUB AND SWAP1 PUSH4 0x8A888953 SWAP1 PUSH1 0x44 ADD PUSH1 0x20 PUSH1 0x40 MLOAD DUP1 DUP4 SUB DUP2 DUP7 GAS STATICCALL ISZERO DUP1 ISZERO PUSH2 0xEAF JUMPI RETURNDATASIZE PUSH1 0x0 DUP1 RETURNDATACOPY RETURNDATASIZE PUSH1 0x0 REVERT JUMPDEST POP POP POP POP PUSH1 0x40 MLOAD RETURNDATASIZE PUSH1 0x1F NOT PUSH1 0x1F DUP3 ADD AND DUP3 ADD DUP1 PUSH1 0x40 MSTORE POP DUP2 ADD SWAP1 PUSH2 0xED3 SWAP2 SWAP1 PUSH2 0x47D4 JUMP JUMPDEST PUSH1 0x1 PUSH1 0x1 PUSH1 0xA0 SHL SUB AND EQ PUSH2 0xF0F JUMPI PUSH1 0x40 MLOAD PUSH3 0x461BCD PUSH1 0xE5 SHL DUP2 MSTORE PUSH1 0x20 PUSH1 0x4 DUP3 ADD MSTORE PUSH1 0x3 PUSH1 0x24 DUP3 ADD MSTORE PUSH3 0x37BBB7 PUSH1 0xE9 SHL PUSH1 0x44 DUP3 ADD MSTORE PUSH1 0x64 ADD PUSH2 0xBE1 JUMP JUMPDEST DUP5 DUP5 PUSH1 0x9 PUSH1 0xFF DUP4 AND LT DUP1 ISZERO PUSH2 0xF27 JUMPI POP PUSH1 0x9 PUSH1 0xFF DUP3 AND LT JUMPDEST PUSH2 0xF73 JUMPI PUSH1 0x40 MLOAD PUSH3 0x461BCD PUSH1 0xE5 SHL DUP2 MSTORE PUSH1 0x20 PUSH1 0x4 DUP3 ADD MSTORE PUSH1 0x5 PUSH1 0x24 DUP3 ADD MSTORE PUSH32 0x636F6F7264000000000000000000000000000000000000000000000000000000 PUSH1 0x44 DUP3 ADD MSTORE PUSH1 0x64 ADD PUSH2 0xBE1 JUMP JUMPDEST DUP7 PUSH1 0xFF AND PUSH1 0x4 EQ DUP1 ISZERO PUSH2 0xF89 JUMPI POP DUP6 PUSH1 0xFF AND PUSH1 0x4 EQ JUMPDEST ISZERO PUSH2 0xFD6 JUMPI PUSH1 0x40 MLOAD PUSH3 0x461BCD PUSH1 0xE5 SHL DUP2 MSTORE PUSH1 0x20 PUSH1 0x4 DUP3 ADD MSTORE PUSH1 0x1 PUSH1 0x24 DUP3 ADD MSTORE PUSH32 0x6300000000000000000000000000000000000000000000000000000000000000 PUSH1 0x44 DUP3 ADD MSTORE PUSH1 0x64 ADD PUSH2 0xBE1 JUMP JUMPDEST PUSH1 0xFF DUP1 DUP11 AND PUSH1 0x0 SWAP1 DUP2 MSTORE PUSH1 0x28 PUSH1 0x20 SWAP1 DUP2 MSTORE PUSH1 0x40 DUP1 DUP4 KECCAK256 DUP13 DUP6 AND DUP5 MSTORE DUP3 MSTORE DUP1 DUP4 KECCAK256 DUP12 DUP6 AND DUP5 MSTORE DUP3 MSTORE DUP1 DUP4 KECCAK256 DUP11 DUP6 AND DUP5 MSTORE SWAP1 SWAP2 MSTORE SWAP1 KECCAK256 SLOAD AND DUP1 ISZERO PUSH2 0x105A JUMPI PUSH1 0x40 MLOAD PUSH3 0x461BCD PUSH1 0xE5 SHL DUP2 MSTORE PUSH1 0x20 PUSH1 0x4 DUP3 ADD MSTORE PUSH1 0x1 PUSH1 0x24 DUP3 ADD MSTORE PUSH32 0x6500000000000000000000000000000000000000000000000000000000000000 PUSH1 0x44 DUP3 ADD MSTORE PUSH1 0x64 ADD PUSH2 0xBE1 JUMP JUMPDEST DUP6 PUSH1 0xFF AND PUSH1 0x3 SUB PUSH2 0x10ED JUMPI PUSH2 0x1071 DUP11 DUP11 PUSH1 0x3 PUSH2 0x39B1 JUMP JUMPDEST ISZERO PUSH2 0x10BE JUMPI PUSH1 0x40 MLOAD PUSH3 0x461BCD PUSH1 0xE5 SHL DUP2 MSTORE PUSH1 0x20 PUSH1 0x4 DUP3 ADD MSTORE PUSH1 0x1 PUSH1 0x24 DUP3 ADD MSTORE PUSH32 0x6300000000000000000000000000000000000000000000000000000000000000 PUSH1 0x44 DUP3 ADD MSTORE PUSH1 0x64 ADD PUSH2 0xBE1 JUMP JUMPDEST PUSH1 0xFF DUP1 DUP12 AND PUSH1 0x0 SWAP1 DUP2 MSTORE PUSH1 0x8 PUSH1 0x20 SWAP1 DUP2 MSTORE PUSH1 0x40 DUP1 DUP4 KECCAK256 SWAP4 DUP14 AND DUP4 MSTORE SWAP3 SWAP1 MSTORE KECCAK256 DUP1 SLOAD PUSH1 0xFF NOT AND PUSH1 0x1 OR SWAP1 SSTORE PUSH2 0x117C JUMP JUMPDEST DUP6 PUSH1 0xFF AND PUSH1 0x6 SUB PUSH2 0x117C JUMPI PUSH2 0x1104 DUP11 DUP11 PUSH1 0x6 PUSH2 0x39B1 JUMP JUMPDEST ISZERO PUSH2 0x1151 JUMPI PUSH1 0x40 MLOAD PUSH3 0x461BCD PUSH1 0xE5 SHL DUP2 MSTORE PUSH1 0x20 PUSH1 0x4 DUP3 ADD MSTORE PUSH1 0x1 PUSH1 0x24 DUP3 ADD MSTORE PUSH32 0x6D00000000000000000000000000000000000000000000000000000000000000 PUSH1 0x44 DUP3 ADD MSTORE PUSH1 0x64 ADD PUSH2 0xBE1 JUMP JUMPDEST PUSH1 0xFF DUP1 DUP12 AND PUSH1 0x0 SWAP1 DUP2 MSTORE PUSH1 0x9 PUSH1 0x20 SWAP1 DUP2 MSTORE PUSH1 0x40 DUP1 DUP4 KECCAK256 SWAP4 DUP14 AND DUP4 MSTORE SWAP3 SWAP1 MSTORE KECCAK256 DUP1 SLOAD PUSH1 0xFF NOT AND PUSH1 0x1 OR SWAP1 SSTORE JUMPDEST PUSH1 0xFF DUP1 DUP8 AND PUSH1 0x0 SWAP1 DUP2 MSTORE PUSH1 0x29 PUSH1 0x20 SWAP1 DUP2 MSTORE PUSH1 0x40 DUP1 DUP4 KECCAK256 DUP2 MLOAD PUSH1 0x80 DUP2 ADD DUP4 MSTORE DUP2 SLOAD DUP2 MSTORE PUSH1 0x1 DUP3 ADD SLOAD DUP2 DUP6 ADD MSTORE PUSH1 0x2 DUP3 ADD SLOAD DUP2 DUP5 ADD MSTORE PUSH1 0x3 SWAP1 SWAP2 ADD SLOAD PUSH1 0x60 DUP3 ADD MSTORE DUP15 DUP6 AND DUP5 MSTORE PUSH1 0x27 DUP4 MSTORE DUP2 DUP5 KECCAK256 SWAP5 DUP15 AND DUP5 MSTORE SWAP4 SWAP1 SWAP2 MSTORE SWAP1 KECCAK256 DUP2 MLOAD DUP2 SLOAD LT ISZERO PUSH2 0x1224 JUMPI PUSH1 0x40 MLOAD PUSH3 0x461BCD PUSH1 0xE5 SHL DUP2 MSTORE PUSH1 0x20 PUSH1 0x4 DUP3 ADD MSTORE PUSH1 0x1 PUSH1 0x24 DUP3 ADD MSTORE PUSH32 0x6600000000000000000000000000000000000000000000000000000000000000 PUSH1 0x44 DUP3 ADD MSTORE PUSH1 0x64 ADD PUSH2 0xBE1 JUMP JUMPDEST PUSH1 0x20 DUP3 ADD MLOAD PUSH1 0x1 DUP3 ADD SLOAD LT ISZERO PUSH2 0x127C JUMPI PUSH1 0x40 MLOAD PUSH3 0x461BCD PUSH1 0xE5 SHL DUP2 MSTORE PUSH1 0x20 PUSH1 0x4 DUP3 ADD MSTORE PUSH1 0x1 PUSH1 0x24 DUP3 ADD MSTORE PUSH32 0x7700000000000000000000000000000000000000000000000000000000000000 PUSH1 0x44 DUP3 ADD MSTORE PUSH1 0x64 ADD PUSH2 0xBE1 JUMP JUMPDEST PUSH1 0x40 DUP3 ADD MLOAD PUSH1 0x2 DUP3 ADD SLOAD LT ISZERO PUSH2 0x12D4 JUMPI PUSH1 0x40 MLOAD PUSH3 0x461BCD PUSH1 0xE5 SHL DUP2 MSTORE PUSH1 0x20 PUSH1 0x4 DUP3 ADD MSTORE PUSH1 0x1 PUSH1 0x24 DUP3 ADD MSTORE PUSH32 0x7300000000000000000000000000000000000000000000000000000000000000 PUSH1 0x44 DUP3 ADD MSTORE PUSH1 0x64 ADD PUSH2 0xBE1 JUMP JUMPDEST PUSH1 0x60 DUP3 ADD MLOAD PUSH1 0x3 DUP3 ADD SLOAD LT ISZERO PUSH2 0x132C JUMPI PUSH1 0x40 MLOAD PUSH3 0x461BCD PUSH1 0xE5 SHL DUP2 MSTORE PUSH1 0x20 PUSH1 0x4 DUP3 ADD MSTORE PUSH1 0x1 PUSH1 0x24 DUP3 ADD MSTORE PUSH32 0x6900000000000000000000000000000000000000000000000000000000000000 PUSH1 0x44 DUP3 ADD MSTORE PUSH1 0x64 ADD PUSH2 0xBE1 JUMP JUMPDEST DUP2 MLOAD DUP2 SLOAD DUP3 SWAP1 PUSH1 0x0 SWAP1 PUSH2 0x1340 SWAP1 DUP5 SWAP1 PUSH2 0x4833 JUMP JUMPDEST SWAP1 SWAP2 SSTORE POP POP PUSH1 0x20 DUP3 ADD MLOAD PUSH1 0x1 DUP3 ADD DUP1 SLOAD PUSH1 0x0 SWAP1 PUSH2 0x135E SWAP1 DUP5 SWAP1 PUSH2 0x4833 JUMP JUMPDEST SWAP1 SWAP2 SSTORE POP POP PUSH1 0x40 DUP3 ADD MLOAD PUSH1 0x2 DUP3 ADD DUP1 SLOAD PUSH1 0x0 SWAP1 PUSH2 0x137C SWAP1 DUP5 SWAP1 PUSH2 0x4833 JUMP JUMPDEST SWAP1 SWAP2 SSTORE POP POP PUSH1 0x60 DUP3 ADD MLOAD PUSH1 0x3 DUP3 ADD DUP1 SLOAD PUSH1 0x0 SWAP1 PUSH2 0x139A SWAP1 DUP5 SWAP1 PUSH2 0x4833 JUMP JUMPDEST SWAP1 SWAP2 SSTORE POP POP PUSH1 0xFF DUP13 DUP2 AND PUSH1 0x0 SWAP1 DUP2 MSTORE PUSH1 0x28 PUSH1 0x20 SWAP1 DUP2 MSTORE PUSH1 0x40 DUP1 DUP4 KECCAK256 DUP16 DUP6 AND DUP5 MSTORE DUP3 MSTORE DUP1 DUP4 KECCAK256 DUP15 DUP6 AND DUP5 MSTORE DUP3 MSTORE DUP1 DUP4 KECCAK256 DUP14 DUP6 AND DUP5 MSTORE SWAP1 SWAP2 MSTORE SWAP1 KECCAK256 DUP1 SLOAD PUSH1 0xFF NOT AND SWAP2 DUP11 AND SWAP2 SWAP1 SWAP2 OR SWAP1 SSTORE PUSH2 0x13ED DUP2 DUP14 DUP14 PUSH2 0x3CBB JUMP JUMPDEST POP POP POP POP POP POP POP POP POP POP POP POP JUMP JUMPDEST PUSH1 0xFF DUP1 DUP4 AND PUSH1 0x0 SWAP1 DUP2 MSTORE PUSH1 0x8 PUSH1 0x20 SWAP1 DUP2 MSTORE PUSH1 0x40 DUP1 DUP4 KECCAK256 DUP6 DUP6 AND DUP5 MSTORE SWAP1 SWAP2 MSTORE SWAP1 KECCAK256 SLOAD AND JUMPDEST SWAP3 SWAP2 POP POP JUMP JUMPDEST PUSH1 0x0 PUSH2 0x1432 DUP4 DUP4 PUSH1 0x7 PUSH2 0x39B1 JUMP JUMPDEST SWAP4 SWAP3 POP POP POP JUMP JUMPDEST PUSH1 0x1 SLOAD PUSH1 0x40 MLOAD PUSH4 0x8A888953 PUSH1 0xE0 SHL DUP2 MSTORE PUSH1 0xFF DUP1 DUP7 AND PUSH1 0x4 DUP4 ADD MSTORE DUP5 AND PUSH1 0x24 DUP3 ADD MSTORE DUP5 SWAP2 DUP5 SWAP2 CALLER SWAP2 PUSH1 0x1 PUSH1 0x1 PUSH1 0xA0 SHL SUB AND SWAP1 PUSH4 0x8A888953 SWAP1 PUSH1 0x44 ADD PUSH1 0x20 PUSH1 0x40 MLOAD DUP1 DUP4 SUB DUP2 DUP7 GAS STATICCALL ISZERO DUP1 ISZERO PUSH2 0x1490 JUMPI RETURNDATASIZE PUSH1 0x0 DUP1 RETURNDATACOPY RETURNDATASIZE PUSH1 0x0 REVERT JUMPDEST POP POP POP POP PUSH1 0x40 MLOAD RETURNDATASIZE PUSH1 0x1F NOT PUSH1 0x1F DUP3 ADD AND DUP3 ADD DUP1 PUSH1 0x40 MSTORE POP DUP2 ADD SWAP1 PUSH2 0x14B4 SWAP2 SWAP1 PUSH2 0x47D4 JUMP JUMPDEST PUSH1 0x1 PUSH1 0x1 PUSH1 0xA0 SHL SUB AND EQ PUSH2 0x14F0 JUMPI PUSH1 0x40 MLOAD PUSH3 0x461BCD PUSH1 0xE5 SHL DUP2 MSTORE PUSH1 0x20 PUSH1 0x4 DUP3 ADD MSTORE PUSH1 0x3 PUSH1 0x24 DUP3 ADD MSTORE PUSH3 0x37BBB7 PUSH1 0xE9 SHL PUSH1 0x44 DUP3 ADD MSTORE PUSH1 0x64 ADD PUSH2 0xBE1 JUMP JUMPDEST PUSH1 0xFF DUP1 DUP7 AND PUSH1 0x0 SWAP1 DUP2 MSTORE PUSH1 0x27 PUSH1 0x20 SWAP1 DUP2 MSTORE PUSH1 0x40 DUP1 DUP4 KECCAK256 DUP9 DUP6 AND DUP5 MSTORE SWAP1 SWAP2 MSTORE DUP2 KECCAK256 SWAP2 PUSH1 0x60 SWAP1 DUP7 AND PUSH1 0x1 SUB PUSH2 0x1563 JUMPI POP POP PUSH1 0xE DUP2 ADD SLOAD PUSH1 0x40 DUP1 MLOAD DUP1 DUP3 ADD SWAP1 SWAP2 MSTORE PUSH1 0xD DUP2 MSTORE PUSH32 0x6F6666656E736976655465636800000000000000000000000000000000000000 PUSH1 0x20 DUP3 ADD MSTORE PUSH1 0xFF SWAP1 SWAP2 AND SWAP1 PUSH2 0x1602 JUMP JUMPDEST DUP6 PUSH1 0xFF AND PUSH1 0x2 SUB PUSH2 0x15B8 JUMPI POP POP PUSH1 0xE DUP2 ADD SLOAD PUSH1 0x40 DUP1 MLOAD DUP1 DUP3 ADD SWAP1 SWAP2 MSTORE PUSH1 0xD DUP2 MSTORE PUSH32 0x646566656E736976655465636800000000000000000000000000000000000000 PUSH1 0x20 DUP3 ADD MSTORE PUSH2 0x100 SWAP1 SWAP2 DIV PUSH1 0xFF AND SWAP1 PUSH2 0x1602 JUMP JUMPDEST PUSH1 0x40 MLOAD PUSH3 0x461BCD PUSH1 0xE5 SHL DUP2 MSTORE PUSH1 0x4 ADD PUSH2 0xBE1 SWAP1 PUSH1 0x20 DUP1 DUP3 MSTORE PUSH1 0x4 SWAP1 DUP3 ADD MSTORE PUSH32 0x7479706500000000000000000000000000000000000000000000000000000000 PUSH1 0x40 DUP3 ADD MSTORE PUSH1 0x60 ADD SWAP1 JUMP JUMPDEST PUSH2 0x2710 DUP3 PUSH1 0xFF AND GT ISZERO PUSH2 0x1657 JUMPI PUSH1 0x40 MLOAD PUSH3 0x461BCD PUSH1 0xE5 SHL DUP2 MSTORE PUSH1 0x20 PUSH1 0x4 DUP3 ADD MSTORE PUSH1 0x1 PUSH1 0x24 DUP3 ADD MSTORE PUSH32 0x6C00000000000000000000000000000000000000000000000000000000000000 PUSH1 0x44 DUP3 ADD MSTORE PUSH1 0x64 ADD PUSH2 0xBE1 JUMP JUMPDEST PUSH1 0x0 PUSH2 0x1665 DUP10 DUP10 PUSH1 0x8 PUSH2 0x39B1 JUMP JUMPDEST SWAP1 POP PUSH1 0x0 DUP2 GT PUSH2 0x16B7 JUMPI PUSH1 0x40 MLOAD PUSH3 0x461BCD PUSH1 0xE5 SHL DUP2 MSTORE PUSH1 0x20 PUSH1 0x4 DUP3 ADD MSTORE PUSH1 0x1 PUSH1 0x24 DUP3 ADD MSTORE PUSH32 0x7700000000000000000000000000000000000000000000000000000000000000 PUSH1 0x44 DUP3 ADD MSTORE PUSH1 0x64 ADD PUSH2 0xBE1 JUMP JUMPDEST PUSH1 0x0 PUSH2 0x16C4 DUP5 PUSH1 0x1 PUSH2 0x4846 JUMP JUMPDEST PUSH2 0x16D2 SWAP1 PUSH1 0xFF AND PUSH1 0x2 PUSH2 0x485F JUMP JUMPDEST SWAP1 POP PUSH1 0x0 DUP3 PUSH2 0x16E2 DUP4 PUSH1 0x8C PUSH2 0x485F JUMP JUMPDEST PUSH2 0x16EC SWAP2 SWAP1 PUSH2 0x48A5 JUMP JUMPDEST SWAP1 POP PUSH1 0x0 DUP4 PUSH2 0x16FC DUP5 PUSH1 0x78 PUSH2 0x485F JUMP JUMPDEST PUSH2 0x1706 SWAP2 SWAP1 PUSH2 0x48A5 JUMP JUMPDEST SWAP1 POP PUSH1 0x0 DUP5 PUSH2 0x1716 DUP6 PUSH1 0xB4 PUSH2 0x485F JUMP JUMPDEST PUSH2 0x1720 SWAP2 SWAP1 PUSH2 0x48A5 JUMP JUMPDEST SWAP1 POP PUSH1 0x0 DUP6 PUSH2 0x1730 DUP7 PUSH1 0x78 PUSH2 0x485F JUMP JUMPDEST PUSH2 0x173A SWAP2 SWAP1 PUSH2 0x48A5 JUMP JUMPDEST DUP10 SLOAD SWAP1 SWAP2 POP DUP5 GT ISZERO PUSH2 0x178E JUMPI PUSH1 0x40 MLOAD PUSH3 0x461BCD PUSH1 0xE5 SHL DUP2 MSTORE PUSH1 0x20 PUSH1 0x4 DUP3 ADD MSTORE PUSH1 0x1 PUSH1 0x24 DUP3 ADD MSTORE PUSH32 0x6600000000000000000000000000000000000000000000000000000000000000 PUSH1 0x44 DUP3 ADD MSTORE PUSH1 0x64 ADD PUSH2 0xBE1 JUMP JUMPDEST PUSH1 0x1 DUP10 ADD SLOAD DUP4 GT ISZERO PUSH2 0x17E2 JUMPI PUSH1 0x40 MLOAD PUSH3 0x461BCD PUSH1 0xE5 SHL DUP2 MSTORE PUSH1 0x20 PUSH1 0x4 DUP3 ADD MSTORE PUSH1 0x1 PUSH1 0x24 DUP3 ADD MSTORE PUSH32 0x7700000000000000000000000000000000000000000000000000000000000000 PUSH1 0x44 DUP3 ADD MSTORE PUSH1 0x64 ADD PUSH2 0xBE1 JUMP JUMPDEST PUSH1 0x2 DUP10 ADD SLOAD DUP3 GT ISZERO PUSH2 0x1836 JUMPI PUSH1 0x40 MLOAD PUSH3 0x461BCD PUSH1 0xE5 SHL DUP2 MSTORE PUSH1 0x20 PUSH1 0x4 DUP3 ADD MSTORE PUSH1 0x1 PUSH1 0x24 DUP3 ADD MSTORE PUSH32 0x7300000000000000000000000000000000000000000000000000000000000000 PUSH1 0x44 DUP3 ADD MSTORE PUSH1 0x64 ADD PUSH2 0xBE1 JUMP JUMPDEST PUSH1 0x3 DUP10 ADD SLOAD DUP2 GT ISZERO PUSH2 0x188A JUMPI PUSH1 0x40 MLOAD PUSH3 0x461BCD PUSH1 0xE5 SHL DUP2 MSTORE PUSH1 0x20 PUSH1 0x4 DUP3 ADD MSTORE PUSH1 0x1 PUSH1 0x24 DUP3 ADD MSTORE PUSH32 0x6900000000000000000000000000000000000000000000000000000000000000 PUSH1 0x44 DUP3 ADD MSTORE PUSH1 0x64 ADD PUSH2 0xBE1 JUMP JUMPDEST DUP9 SLOAD DUP5 SWAP1 DUP11 SWAP1 PUSH1 0x0 SWAP1 PUSH2 0x189E SWAP1 DUP5 SWAP1 PUSH2 0x4833 JUMP JUMPDEST SWAP1 SWAP2 SSTORE POP POP PUSH1 0x1 DUP10 ADD DUP1 SLOAD DUP5 SWAP2 SWAP1 PUSH1 0x0 SWAP1 PUSH2 0x18BA SWAP1 DUP5 SWAP1 PUSH2 0x4833 JUMP JUMPDEST SWAP1 SWAP2 SSTORE POP POP PUSH1 0x2 DUP10 ADD DUP1 SLOAD DUP4 SWAP2 SWAP1 PUSH1 0x0 SWAP1 PUSH2 0x18D6 SWAP1 DUP5 SWAP1 PUSH2 0x4833 JUMP JUMPDEST SWAP1 SWAP2 SSTORE POP POP PUSH1 0x3 DUP10 ADD DUP1 SLOAD DUP3 SWAP2 SWAP1 PUSH1 0x0 SWAP1 PUSH2 0x18F2 SWAP1 DUP5 SWAP1 PUSH2 0x4833 JUMP JUMPDEST SWAP1 SWAP2 SSTORE POP POP PUSH1 0xFF DUP13 AND PUSH1 0x1 SUB PUSH2 0x1935 JUMPI PUSH1 0xE DUP10 ADD DUP1 SLOAD PUSH1 0xFF AND SWAP1 PUSH1 0x0 PUSH2 0x1917 DUP4 PUSH2 0x48B9 JUMP JUMPDEST SWAP2 SWAP1 PUSH2 0x100 EXP DUP2 SLOAD DUP2 PUSH1 0xFF MUL NOT AND SWAP1 DUP4 PUSH1 0xFF AND MUL OR SWAP1 SSTORE POP POP PUSH2 0x1974 JUMP JUMPDEST DUP12 PUSH1 0xFF AND PUSH1 0x2 SUB PUSH2 0x1974 JUMPI PUSH1 0xE DUP10 ADD DUP1 SLOAD PUSH2 0x100 SWAP1 DIV PUSH1 0xFF AND SWAP1 PUSH1 0x1 PUSH2 0x195A DUP4 PUSH2 0x48B9 JUMP JUMPDEST SWAP2 SWAP1 PUSH2 0x100 EXP DUP2 SLOAD DUP2 PUSH1 0xFF MUL NOT AND SWAP1 DUP4 PUSH1 0xFF AND MUL OR SWAP1 SSTORE POP POP JUMPDEST PUSH2 0x197F DUP10 DUP16 DUP16 PUSH2 0x3CBB JUMP JUMPDEST POP POP POP POP POP POP POP POP POP POP POP POP POP POP JUMP JUMPDEST PUSH1 0xD SLOAD PUSH1 0x1 PUSH1 0x1 PUSH1 0xA0 SHL SUB AND CALLER EQ PUSH2 0x19E9 JUMPI PUSH1 0x40 MLOAD PUSH3 0x461BCD PUSH1 0xE5 SHL DUP2 MSTORE PUSH1 0x20 PUSH1 0x4 DUP3 ADD MSTORE PUSH1 0x1 PUSH1 0x24 DUP3 ADD MSTORE PUSH32 0x6100000000000000000000000000000000000000000000000000000000000000 PUSH1 0x44 DUP3 ADD MSTORE PUSH1 0x64 ADD PUSH2 0xBE1 JUMP JUMPDEST PUSH1 0xFF DUP1 DUP7 AND PUSH1 0x0 SWAP1 DUP2 MSTORE PUSH1 0x27 PUSH1 0x20 SWAP1 DUP2 MSTORE PUSH1 0x40 DUP1 DUP4 KECCAK256 DUP9 DUP6 AND DUP5 MSTORE SWAP1 SWAP2 MSTORE SWAP1 KECCAK256 SWAP1 DUP5 AND PUSH1 0x1 SUB PUSH2 0x1A9D JUMPI DUP2 ISZERO PUSH2 0x1A38 JUMPI DUP1 SLOAD DUP4 SWAP1 DUP3 SWAP1 PUSH1 0x0 SWAP1 PUSH2 0x1A2D SWAP1 DUP5 SWAP1 PUSH2 0x4820 JUMP JUMPDEST SWAP1 SWAP2 SSTORE POP PUSH2 0x2010 SWAP1 POP JUMP JUMPDEST DUP1 SLOAD DUP4 GT ISZERO PUSH2 0x1A89 JUMPI PUSH1 0x40 MLOAD PUSH3 0x461BCD PUSH1 0xE5 SHL DUP2 MSTORE PUSH1 0x20 PUSH1 0x4 DUP3 ADD MSTORE PUSH1 0x1 PUSH1 0x24 DUP3 ADD MSTORE PUSH32 0x6600000000000000000000000000000000000000000000000000000000000000 PUSH1 0x44 DUP3 ADD MSTORE PUSH1 0x64 ADD PUSH2 0xBE1 JUMP JUMPDEST DUP1 SLOAD DUP4 SWAP1 DUP3 SWAP1 PUSH1 0x0 SWAP1 PUSH2 0x1A2D SWAP1 DUP5 SWAP1 PUSH2 0x4833 JUMP JUMPDEST DUP4 PUSH1 0xFF AND PUSH1 0x2 SUB PUSH2 0x1B30 JUMPI DUP2 ISZERO PUSH2 0x1AC5 JUMPI DUP3 DUP2 PUSH1 0x0 ADD PUSH1 0x1 ADD PUSH1 0x0 DUP3 DUP3 SLOAD PUSH2 0x1A2D SWAP2 SWAP1 PUSH2 0x4820 JUMP JUMPDEST PUSH1 0x1 DUP2 ADD SLOAD DUP4 GT ISZERO PUSH2 0x1B19 JUMPI PUSH1 0x40 MLOAD PUSH3 0x461BCD PUSH1 0xE5 SHL DUP2 MSTORE PUSH1 0x20 PUSH1 0x4 DUP3 ADD MSTORE PUSH1 0x1 PUSH1 0x24 DUP3 ADD MSTORE PUSH32 0x7700000000000000000000000000000000000000000000000000000000000000 PUSH1 0x44 DUP3 ADD MSTORE PUSH1 0x64 ADD PUSH2 0xBE1 JUMP JUMPDEST DUP3 DUP2 PUSH1 0x0 ADD PUSH1 0x1 ADD PUSH1 0x0 DUP3 DUP3 SLOAD PUSH2 0x1A2D SWAP2 SWAP1 PUSH2 0x4833 JUMP JUMPDEST DUP4 PUSH1 0xFF AND PUSH1 0x3 SUB PUSH2 0x1BC3 JUMPI DUP2 ISZERO PUSH2 0x1B58 JUMPI DUP3 DUP2 PUSH1 0x0 ADD PUSH1 0x2 ADD PUSH1 0x0 DUP3 DUP3 SLOAD PUSH2 0x1A2D SWAP2 SWAP1 PUSH2 0x4820 JUMP JUMPDEST PUSH1 0x2 DUP2 ADD SLOAD DUP4 GT ISZERO PUSH2 0x1BAC JUMPI PUSH1 0x40 MLOAD PUSH3 0x461BCD PUSH1 0xE5 SHL DUP2 MSTORE PUSH1 0x20 PUSH1 0x4 DUP3 ADD MSTORE PUSH1 0x1 PUSH1 0x24 DUP3 ADD MSTORE PUSH32 0x7300000000000000000000000000000000000000000000000000000000000000 PUSH1 0x44 DUP3 ADD MSTORE PUSH1 0x64 ADD PUSH2 0xBE1 JUMP JUMPDEST DUP3 DUP2 PUSH1 0x0 ADD PUSH1 0x2 ADD PUSH1 0x0 DUP3 DUP3 SLOAD PUSH2 0x1A2D SWAP2 SWAP1 PUSH2 0x4833 JUMP JUMPDEST DUP4 PUSH1 0xFF AND PUSH1 0x4 SUB PUSH2 0x1C56 JUMPI DUP2 ISZERO PUSH2 0x1BEB JUMPI DUP3 DUP2 PUSH1 0x0 ADD PUSH1 0x3 ADD PUSH1 0x0 DUP3 DUP3 SLOAD PUSH2 0x1A2D SWAP2 SWAP1 PUSH2 0x4820 JUMP JUMPDEST PUSH1 0x3 DUP2 ADD SLOAD DUP4 GT ISZERO PUSH2 0x1C3F JUMPI PUSH1 0x40 MLOAD PUSH3 0x461BCD PUSH1 0xE5 SHL DUP2 MSTORE PUSH1 0x20 PUSH1 0x4 DUP3 ADD MSTORE PUSH1 0x1 PUSH1 0x24 DUP3 ADD MSTORE PUSH32 0x6900000000000000000000000000000000000000000000000000000000000000 PUSH1 0x44 DUP3 ADD MSTORE PUSH1 0x64 ADD PUSH2 0xBE1 JUMP JUMPDEST DUP3 DUP2 PUSH1 0x0 ADD PUSH1 0x3 ADD PUSH1 0x0 DUP3 DUP3 SLOAD PUSH2 0x1A2D SWAP2 SWAP1 PUSH2 0x4833 JUMP JUMPDEST DUP4 PUSH1 0xFF AND PUSH1 0x5 SUB PUSH2 0x1CE9 JUMPI DUP2 ISZERO PUSH2 0x1C7E JUMPI DUP3 DUP2 PUSH1 0x8 ADD PUSH1 0x0 ADD PUSH1 0x0 DUP3 DUP3 SLOAD PUSH2 0x1A2D SWAP2 SWAP1 PUSH2 0x4820 JUMP JUMPDEST PUSH1 0x8 DUP2 ADD SLOAD DUP4 GT ISZERO PUSH2 0x1CD2 JUMPI PUSH1 0x40 MLOAD PUSH3 0x461BCD PUSH1 0xE5 SHL DUP2 MSTORE PUSH1 0x20 PUSH1 0x4 DUP3 ADD MSTORE PUSH1 0x2 PUSH1 0x24 DUP3 ADD MSTORE PUSH32 0x6F61000000000000000000000000000000000000000000000000000000000000 PUSH1 0x44 DUP3 ADD MSTORE PUSH1 0x64 ADD PUSH2 0xBE1 JUMP JUMPDEST DUP3 DUP2 PUSH1 0x8 ADD PUSH1 0x0 ADD PUSH1 0x0 DUP3 DUP3 SLOAD PUSH2 0x1A2D SWAP2 SWAP1 PUSH2 0x4833 JUMP JUMPDEST DUP4 PUSH1 0xFF AND PUSH1 0x6 SUB PUSH2 0x1D7C JUMPI DUP2 ISZERO PUSH2 0x1D11 JUMPI DUP3 DUP2 PUSH1 0x8 ADD PUSH1 0x1 ADD PUSH1 0x0 DUP3 DUP3 SLOAD PUSH2 0x1A2D SWAP2 SWAP1 PUSH2 0x4820 JUMP JUMPDEST PUSH1 0x9 DUP2 ADD SLOAD DUP4 GT ISZERO PUSH2 0x1D65 JUMPI PUSH1 0x40 MLOAD PUSH3 0x461BCD PUSH1 0xE5 SHL DUP2 MSTORE PUSH1 0x20 PUSH1 0x4 DUP3 ADD MSTORE PUSH1 0x2 PUSH1 0x24 DUP3 ADD MSTORE PUSH32 0x6461000000000000000000000000000000000000000000000000000000000000 PUSH1 0x44 DUP3 ADD MSTORE PUSH1 0x64 ADD PUSH2 0xBE1 JUMP JUMPDEST DUP3 DUP2 PUSH1 0x8 ADD PUSH1 0x1 ADD PUSH1 0x0 DUP3 DUP3 SLOAD PUSH2 0x1A2D SWAP2 SWAP1 PUSH2 0x4833 JUMP JUMPDEST DUP4 PUSH1 0xFF AND PUSH1 0x7 SUB PUSH2 0x1E0F JUMPI DUP2 ISZERO PUSH2 0x1DA4 JUMPI DUP3 DUP2 PUSH1 0x8 ADD PUSH1 0x2 ADD PUSH1 0x0 DUP3 DUP3 SLOAD PUSH2 0x1A2D SWAP2 SWAP1 PUSH2 0x4820 JUMP JUMPDEST PUSH1 0xA DUP2 ADD SLOAD DUP4 GT ISZERO PUSH2 0x1DF8 JUMPI PUSH1 0x40 MLOAD PUSH3 0x461BCD PUSH1 0xE5 SHL DUP2 MSTORE PUSH1 0x20 PUSH1 0x4 DUP3 ADD MSTORE PUSH1 0x2 PUSH1 0x24 DUP3 ADD MSTORE PUSH32 0x6F77000000000000000000000000000000000000000000000000000000000000 PUSH1 0x44 DUP3 ADD MSTORE PUSH1 0x64 ADD PUSH2 0xBE1 JUMP JUMPDEST DUP3 DUP2 PUSH1 0x8 ADD PUSH1 0x2 ADD PUSH1 0x0 DUP3 DUP3 SLOAD PUSH2 0x1A2D SWAP2 SWAP1 PUSH2 0x4833 JUMP JUMPDEST DUP4 PUSH1 0xFF AND PUSH1 0x8 SUB PUSH2 0x1EA2 JUMPI DUP2 ISZERO PUSH2 0x1E37 JUMPI DUP3 DUP2 PUSH1 0x8 ADD PUSH1 0x3 ADD PUSH1 0x0 DUP3 DUP3 SLOAD PUSH2 0x1A2D SWAP2 SWAP1 PUSH2 0x4820 JUMP JUMPDEST PUSH1 0xB DUP2 ADD SLOAD DUP4 GT ISZERO PUSH2 0x1E8B JUMPI PUSH1 0x40 MLOAD PUSH3 0x461BCD PUSH1 0xE5 SHL DUP2 MSTORE PUSH1 0x20 PUSH1 0x4 DUP3 ADD MSTORE PUSH1 0x2 PUSH1 0x24 DUP3 ADD MSTORE PUSH32 0x6477000000000000000000000000000000000000000000000000000000000000 PUSH1 0x44 DUP3 ADD MSTORE PUSH1 0x64 ADD PUSH2 0xBE1 JUMP JUMPDEST DUP3 DUP2 PUSH1 0x8 ADD PUSH1 0x3 ADD PUSH1 0x0 DUP3 DUP3 SLOAD PUSH2 0x1A2D SWAP2 SWAP1 PUSH2 0x4833 JUMP JUMPDEST DUP4 PUSH1 0xFF AND PUSH1 0x9 SUB PUSH2 0x1F35 JUMPI DUP2 ISZERO PUSH2 0x1ECA JUMPI DUP3 DUP2 PUSH1 0x8 ADD PUSH1 0x4 ADD PUSH1 0x0 DUP3 DUP3 SLOAD PUSH2 0x1A2D SWAP2 SWAP1 PUSH2 0x4820 JUMP JUMPDEST PUSH1 0xC DUP2 ADD SLOAD DUP4 GT ISZERO PUSH2 0x1F1E JUMPI PUSH1 0x40 MLOAD PUSH3 0x461BCD PUSH1 0xE5 SHL DUP2 MSTORE PUSH1 0x20 PUSH1 0x4 DUP3 ADD MSTORE PUSH1 0x2 PUSH1 0x24 DUP3 ADD MSTORE PUSH32 0x6F73000000000000000000000000000000000000000000000000000000000000 PUSH1 0x44 DUP3 ADD MSTORE PUSH1 0x64 ADD PUSH2 0xBE1 JUMP JUMPDEST DUP3 DUP2 PUSH1 0x8 ADD PUSH1 0x4 ADD PUSH1 0x0 DUP3 DUP3 SLOAD PUSH2 0x1A2D SWAP2 SWAP1 PUSH2 0x4833 JUMP JUMPDEST DUP4 PUSH1 0xFF AND PUSH1 0xA SUB PUSH2 0x1FC8 JUMPI DUP2 ISZERO PUSH2 0x1F5D JUMPI DUP3 DUP2 PUSH1 0x8 ADD PUSH1 0x5 ADD PUSH1 0x0 DUP3 DUP3 SLOAD PUSH2 0x1A2D SWAP2 SWAP1 PUSH2 0x4820 JUMP JUMPDEST PUSH1 0xD DUP2 ADD SLOAD DUP4 GT ISZERO PUSH2 0x1FB1 JUMPI PUSH1 0x40 MLOAD PUSH3 0x461BCD PUSH1 0xE5 SHL DUP2 MSTORE PUSH1 0x20 PUSH1 0x4 DUP3 ADD MSTORE PUSH1 0x2 PUSH1 0x24 DUP3 ADD MSTORE PUSH32 0x6473000000000000000000000000000000000000000000000000000000000000 PUSH1 0x44 DUP3 ADD MSTORE PUSH1 0x64 ADD PUSH2 0xBE1 JUMP JUMPDEST DUP3 DUP2 PUSH1 0x8 ADD PUSH1 0x5 ADD PUSH1 0x0 DUP3 DUP3 SLOAD PUSH2 0x1A2D SWAP2 SWAP1 PUSH2 0x4833 JUMP JUMPDEST PUSH1 0x40 MLOAD PUSH3 0x461BCD PUSH1 0xE5 SHL DUP2 MSTORE PUSH1 0x20 PUSH1 0x4 DUP3 ADD MSTORE PUSH1 0x1 PUSH1 0x24 DUP3 ADD MSTORE PUSH32 0x7400000000000000000000000000000000000000000000000000000000000000 PUSH1 0x44 DUP3 ADD MSTORE PUSH1 0x64 ADD PUSH2 0xBE1 JUMP JUMPDEST PUSH2 0x201B DUP2 DUP8 DUP8 PUSH2 0x3CBB JUMP JUMPDEST POP POP POP POP POP POP JUMP JUMPDEST PUSH1 0x1 SLOAD PUSH1 0x40 MLOAD PUSH4 0x8A888953 PUSH1 0xE0 SHL DUP2 MSTORE PUSH1 0xFF DUP1 DUP8 AND PUSH1 0x4 DUP4 ADD MSTORE DUP6 AND PUSH1 0x24 DUP3 ADD MSTORE DUP6 SWAP2 DUP6 SWAP2 CALLER SWAP2 PUSH1 0x1 PUSH1 0x1 PUSH1 0xA0 SHL SUB AND SWAP1 PUSH4 0x8A888953 SWAP1 PUSH1 0x44 ADD PUSH1 0x20 PUSH1 0x40 MLOAD DUP1 DUP4 SUB DUP2 DUP7 GAS STATICCALL ISZERO DUP1 ISZERO PUSH2 0x207A JUMPI RETURNDATASIZE PUSH1 0x0 DUP1 RETURNDATACOPY RETURNDATASIZE PUSH1 0x0 REVERT JUMPDEST POP POP POP POP PUSH1 0x40 MLOAD RETURNDATASIZE PUSH1 0x1F NOT PUSH1 0x1F DUP3 ADD AND DUP3 ADD DUP1 PUSH1 0x40 MSTORE POP DUP2 ADD SWAP1 PUSH2 0x209E SWAP2 SWAP1 PUSH2 0x47D4 JUMP JUMPDEST PUSH1 0x1 PUSH1 0x1 PUSH1 0xA0 SHL SUB AND EQ PUSH2 0x20DA JUMPI PUSH1 0x40 MLOAD PUSH3 0x461BCD PUSH1 0xE5 SHL DUP2 MSTORE PUSH1 0x20 PUSH1 0x4 DUP3 ADD MSTORE PUSH1 0x3 PUSH1 0x24 DUP3 ADD MSTORE PUSH3 0x37BBB7 PUSH1 0xE9 SHL PUSH1 0x44 DUP3 ADD MSTORE PUSH1 0x64 ADD PUSH2 0xBE1 JUMP JUMPDEST PUSH1 0x0 DUP4 GT PUSH2 0x212A JUMPI PUSH1 0x40 MLOAD PUSH3 0x461BCD PUSH1 0xE5 SHL DUP2 MSTORE PUSH1 0x20 PUSH1 0x4 DUP3 ADD MSTORE PUSH1 0x1 PUSH1 0x24 DUP3 ADD MSTORE PUSH32 0x7A00000000000000000000000000000000000000000000000000000000000000 PUSH1 0x44 DUP3 ADD MSTORE PUSH1 0x64 ADD PUSH2 0xBE1 JUMP JUMPDEST DUP4 PUSH1 0xFF AND PUSH1 0x1 EQ DUP1 PUSH2 0x213F JUMPI POP DUP4 PUSH1 0xFF AND PUSH1 0x2 EQ JUMPDEST PUSH2 0x218B JUMPI PUSH1 0x40 MLOAD PUSH3 0x461BCD PUSH1 0xE5 SHL DUP2 MSTORE PUSH1 0x20 PUSH1 0x4 DUP3 ADD MSTORE PUSH1 0x1 PUSH1 0x24 DUP3 ADD MSTORE PUSH32 0x7400000000000000000000000000000000000000000000000000000000000000 PUSH1 0x44 DUP3 ADD MSTORE PUSH1 0x64 ADD PUSH2 0xBE1 JUMP JUMPDEST PUSH1 0x0 PUSH2 0x2199 DUP8 DUP8 PUSH1 0x2 PUSH2 0x39B1 JUMP JUMPDEST SWAP1 POP PUSH1 0x0 DUP2 GT PUSH2 0x21EB JUMPI PUSH1 0x40 MLOAD PUSH3 0x461BCD PUSH1 0xE5 SHL DUP2 MSTORE PUSH1 0x20 PUSH1 0x4 DUP3 ADD MSTORE PUSH1 0x2 PUSH1 0x24 DUP3 ADD MSTORE PUSH32 0x6273000000000000000000000000000000000000000000000000000000000000 PUSH1 0x44 DUP3 ADD MSTORE PUSH1 0x64 ADD PUSH2 0xBE1 JUMP JUMPDEST PUSH1 0x0 DUP6 PUSH1 0xFF AND PUSH1 0x1 EQ PUSH2 0x21FF JUMPI PUSH1 0x1B PUSH2 0x2202 JUMP JUMPDEST PUSH1 0x17 JUMPDEST PUSH1 0x40 DUP1 MLOAD PUSH1 0x80 DUP2 ADD DUP3 MSTORE DUP3 SLOAD DUP2 MSTORE PUSH1 0x1 DUP4 ADD SLOAD PUSH1 0x20 DUP3 ADD MSTORE PUSH1 0x2 DUP4 ADD SLOAD SWAP2 DUP2 ADD SWAP2 SWAP1 SWAP2 MSTORE PUSH1 0x3 SWAP1 SWAP2 ADD SLOAD PUSH1 0x60 DUP3 ADD MSTORE SWAP1 POP PUSH2 0x2240 DUP9 DUP9 DUP4 DUP9 DUP7 PUSH2 0x3A4C JUMP JUMPDEST DUP6 PUSH1 0xFF AND PUSH1 0x1 SUB PUSH2 0x227F JUMPI PUSH1 0xFF DUP1 DUP10 AND PUSH1 0x0 SWAP1 DUP2 MSTORE PUSH1 0x27 PUSH1 0x20 SWAP1 DUP2 MSTORE PUSH1 0x40 DUP1 DUP4 KECCAK256 SWAP4 DUP12 AND DUP4 MSTORE SWAP3 SWAP1 MSTORE SWAP1 DUP2 KECCAK256 PUSH1 0xA ADD DUP1 SLOAD DUP8 SWAP3 SWAP1 PUSH2 0xD8F SWAP1 DUP5 SWAP1 PUSH2 0x4820 JUMP JUMPDEST PUSH1 0xFF DUP1 DUP10 AND PUSH1 0x0 SWAP1 DUP2 MSTORE PUSH1 0x27 PUSH1 0x20 SWAP1 DUP2 MSTORE PUSH1 0x40 DUP1 DUP4 KECCAK256 SWAP4 DUP12 AND DUP4 MSTORE SWAP3 SWAP1 MSTORE SWAP1 DUP2 KECCAK256 PUSH1 0xB ADD DUP1 SLOAD DUP8 SWAP3 SWAP1 PUSH2 0xDCE SWAP1 DUP5 SWAP1 PUSH2 0x4820 JUMP JUMPDEST PUSH1 0xC SLOAD PUSH1 0x1 PUSH1 0x1 PUSH1 0xA0 SHL SUB AND CALLER EQ PUSH2 0x22F3 JUMPI PUSH1 0x40 MLOAD PUSH3 0x461BCD PUSH1 0xE5 SHL DUP2 MSTORE PUSH1 0x20 PUSH1 0x4 DUP3 ADD MSTORE PUSH1 0x3 PUSH1 0x24 DUP3 ADD MSTORE PUSH3 0x37BBB7 PUSH1 0xE9 SHL PUSH1 0x44 DUP3 ADD MSTORE PUSH1 0x64 ADD PUSH2 0xBE1 JUMP JUMPDEST PUSH1 0x2 DUP1 SLOAD PUSH32 0xFFFFFFFFFFFFFFFFFFFFFFFF0000000000000000000000000000000000000000 AND PUSH1 0x1 PUSH1 0x1 PUSH1 0xA0 SHL SUB SWAP3 SWAP1 SWAP3 AND SWAP2 SWAP1 SWAP2 OR SWAP1 SSTORE JUMP JUMPDEST PUSH1 0x1 SLOAD PUSH1 0x40 MLOAD PUSH4 0x8A888953 PUSH1 0xE0 SHL DUP2 MSTORE PUSH1 0xFF DUP1 DUP8 AND PUSH1 0x4 DUP4 ADD MSTORE DUP6 AND PUSH1 0x24 DUP3 ADD MSTORE DUP6 SWAP2 DUP6 SWAP2 CALLER SWAP2 PUSH1 0x1 PUSH1 0x1 PUSH1 0xA0 SHL SUB AND SWAP1 PUSH4 0x8A888953 SWAP1 PUSH1 0x44 ADD PUSH1 0x20 PUSH1 0x40 MLOAD DUP1 DUP4 SUB DUP2 DUP7 GAS STATICCALL ISZERO DUP1 ISZERO PUSH2 0x2384 JUMPI RETURNDATASIZE PUSH1 0x0 DUP1 RETURNDATACOPY RETURNDATASIZE PUSH1 0x0 REVERT JUMPDEST POP POP POP POP PUSH1 0x40 MLOAD RETURNDATASIZE PUSH1 0x1F NOT PUSH1 0x1F DUP3 ADD AND DUP3 ADD DUP1 PUSH1 0x40 MSTORE POP DUP2 ADD SWAP1 PUSH2 0x23A8 SWAP2 SWAP1 PUSH2 0x47D4 JUMP JUMPDEST PUSH1 0x1 PUSH1 0x1 PUSH1 0xA0 SHL SUB AND EQ PUSH2 0x23E4 JUMPI PUSH1 0x40 MLOAD PUSH3 0x461BCD PUSH1 0xE5 SHL DUP2 MSTORE PUSH1 0x20 PUSH1 0x4 DUP3 ADD MSTORE PUSH1 0x3 PUSH1 0x24 DUP3 ADD MSTORE PUSH3 0x37BBB7 PUSH1 0xE9 SHL PUSH1 0x44 DUP3 ADD MSTORE PUSH1 0x64 ADD PUSH2 0xBE1 JUMP JUMPDEST DUP4 DUP4 PUSH1 0x9 PUSH1 0xFF DUP4 AND LT DUP1 ISZERO PUSH2 0x23FC JUMPI POP PUSH1 0x9 PUSH1 0xFF DUP3 AND LT JUMPDEST PUSH2 0x2448 JUMPI PUSH1 0x40 MLOAD PUSH3 0x461BCD PUSH1 0xE5 SHL DUP2 MSTORE PUSH1 0x20 PUSH1 0x4 DUP3 ADD MSTORE PUSH1 0x5 PUSH1 0x24 DUP3 ADD MSTORE PUSH32 0x636F6F7264000000000000000000000000000000000000000000000000000000 PUSH1 0x44 DUP3 ADD MSTORE PUSH1 0x64 ADD PUSH2 0xBE1 JUMP JUMPDEST DUP6 PUSH1 0xFF AND PUSH1 0x4 EQ DUP1 ISZERO PUSH2 0x245E JUMPI POP DUP5 PUSH1 0xFF AND PUSH1 0x4 EQ JUMPDEST ISZERO PUSH2 0x24AB JUMPI PUSH1 0x40 MLOAD PUSH3 0x461BCD PUSH1 0xE5 SHL DUP2 MSTORE PUSH1 0x20 PUSH1 0x4 DUP3 ADD MSTORE PUSH1 0x1 PUSH1 0x24 DUP3 ADD MSTORE PUSH32 0x6300000000000000000000000000000000000000000000000000000000000000 PUSH1 0x44 DUP3 ADD MSTORE PUSH1 0x64 ADD PUSH2 0xBE1 JUMP JUMPDEST PUSH1 0xFF DUP1 DUP10 AND PUSH1 0x0 SWAP1 DUP2 MSTORE PUSH1 0x28 PUSH1 0x20 SWAP1 DUP2 MSTORE PUSH1 0x40 DUP1 DUP4 KECCAK256 DUP12 DUP6 AND DUP5 MSTORE DUP3 MSTORE DUP1 DUP4 KECCAK256 DUP11 DUP6 AND DUP5 MSTORE DUP3 MSTORE DUP1 DUP4 KECCAK256 DUP10 DUP6 AND DUP5 MSTORE SWAP1 SWAP2 MSTORE DUP2 KECCAK256 SLOAD SWAP1 SWAP2 AND SWAP1 DUP2 SWAP1 SUB PUSH2 0x2533 JUMPI PUSH1 0x40 MLOAD PUSH3 0x461BCD PUSH1 0xE5 SHL DUP2 MSTORE PUSH1 0x20 PUSH1 0x4 DUP3 ADD MSTORE PUSH1 0x1 PUSH1 0x24 DUP3 ADD MSTORE PUSH32 0x6E00000000000000000000000000000000000000000000000000000000000000 PUSH1 0x44 DUP3 ADD MSTORE PUSH1 0x64 ADD PUSH2 0xBE1 JUMP JUMPDEST DUP1 PUSH1 0xFF AND PUSH1 0x3 SUB PUSH2 0x256A JUMPI PUSH1 0xFF DUP1 DUP11 AND PUSH1 0x0 SWAP1 DUP2 MSTORE PUSH1 0x8 PUSH1 0x20 SWAP1 DUP2 MSTORE PUSH1 0x40 DUP1 DUP4 KECCAK256 SWAP4 DUP13 AND DUP4 MSTORE SWAP3 SWAP1 MSTORE KECCAK256 DUP1 SLOAD PUSH1 0xFF NOT AND SWAP1 SSTORE PUSH2 0x259D JUMP JUMPDEST DUP1 PUSH1 0xFF AND PUSH1 0x6 SUB PUSH2 0x259D JUMPI PUSH1 0xFF DUP1 DUP11 AND PUSH1 0x0 SWAP1 DUP2 MSTORE PUSH1 0x9 PUSH1 0x20 SWAP1 DUP2 MSTORE PUSH1 0x40 DUP1 DUP4 KECCAK256 SWAP4 DUP13 AND DUP4 MSTORE SWAP3 SWAP1 MSTORE KECCAK256 DUP1 SLOAD PUSH1 0xFF NOT AND SWAP1 SSTORE JUMPDEST POP POP POP PUSH1 0xFF SWAP6 DUP7 AND PUSH1 0x0 SWAP1 DUP2 MSTORE PUSH1 0x28 PUSH1 0x20 SWAP1 DUP2 MSTORE PUSH1 0x40 DUP1 DUP4 KECCAK256 SWAP8 DUP10 AND DUP4 MSTORE SWAP7 DUP2 MSTORE DUP7 DUP3 KECCAK256 SWAP6 DUP9 AND DUP3 MSTORE SWAP5 DUP6 MSTORE DUP6 DUP2 KECCAK256 SWAP4 SWAP1 SWAP7 AND DUP7 MSTORE POP POP SWAP1 MSTORE SWAP1 KECCAK256 DUP1 SLOAD PUSH1 0xFF NOT AND SWAP1 SSTORE JUMP JUMPDEST PUSH1 0xD SLOAD PUSH1 0x1 PUSH1 0x1 PUSH1 0xA0 SHL SUB AND CALLER EQ PUSH2 0x263C JUMPI PUSH1 0x40 MLOAD PUSH3 0x461BCD PUSH1 0xE5 SHL DUP2 MSTORE PUSH1 0x20 PUSH1 0x4 DUP3 ADD MSTORE PUSH1 0x1 PUSH1 0x24 DUP3 ADD MSTORE PUSH32 0x6100000000000000000000000000000000000000000000000000000000000000 PUSH1 0x44 DUP3 ADD MSTORE PUSH1 0x64 ADD PUSH2 0xBE1 JUMP JUMPDEST PUSH1 0xFF DUP1 DUP4 AND PUSH1 0x0 SWAP1 DUP2 MSTORE PUSH1 0x27 PUSH1 0x20 SWAP1 DUP2 MSTORE PUSH1 0x40 DUP1 DUP4 KECCAK256 SWAP4 DUP6 AND DUP4 MSTORE SWAP3 SWAP1 MSTORE KECCAK256 PUSH2 0x2666 DUP2 DUP5 DUP5 PUSH2 0x3CBB JUMP JUMPDEST POP POP POP JUMP JUMPDEST PUSH1 0xD SLOAD PUSH1 0x1 PUSH1 0x1 PUSH1 0xA0 SHL SUB AND CALLER EQ PUSH2 0x26C5 JUMPI PUSH1 0x40 MLOAD PUSH3 0x461BCD PUSH1 0xE5 SHL DUP2 MSTORE PUSH1 0x20 PUSH1 0x4 DUP3 ADD MSTORE PUSH1 0x1 PUSH1 0x24 DUP3 ADD MSTORE PUSH32 0x6100000000000000000000000000000000000000000000000000000000000000 PUSH1 0x44 DUP3 ADD MSTORE PUSH1 0x64 ADD PUSH2 0xBE1 JUMP JUMPDEST PUSH1 0xFF SWAP3 DUP4 AND PUSH1 0x0 SWAP1 DUP2 MSTORE PUSH1 0xB PUSH1 0x20 SWAP1 DUP2 MSTORE PUSH1 0x40 DUP1 DUP4 KECCAK256 SWAP5 SWAP1 SWAP6 AND DUP3 MSTORE SWAP3 SWAP1 SWAP3 MSTORE SWAP2 SWAP1 KECCAK256 DUP1 SLOAD PUSH1 0xFF NOT AND SWAP2 ISZERO ISZERO SWAP2 SWAP1 SWAP2 OR SWAP1 SSTORE JUMP JUMPDEST PUSH2 0x277C PUSH1 0x40 MLOAD DUP1 PUSH2 0x1E0 ADD PUSH1 0x40 MSTORE DUP1 PUSH1 0x0 DUP2 MSTORE PUSH1 0x20 ADD PUSH1 0x0 DUP2 MSTORE PUSH1 0x20 ADD PUSH1 0x0 DUP2 MSTORE PUSH1 0x20 ADD PUSH1 0x0 DUP2 MSTORE PUSH1 0x20 ADD PUSH1 0x0 PUSH2 0xFFFF AND DUP2 MSTORE PUSH1 0x20 ADD PUSH1 0x0 DUP2 MSTORE PUSH1 0x20 ADD PUSH1 0x0 DUP2 MSTORE PUSH1 0x20 ADD PUSH1 0x0 DUP2 MSTORE PUSH1 0x20 ADD PUSH1 0x0 DUP2 MSTORE PUSH1 0x20 ADD PUSH1 0x0 DUP2 MSTORE PUSH1 0x20 ADD PUSH1 0x0 DUP2 MSTORE PUSH1 0x20 ADD PUSH1 0x0 DUP2 MSTORE PUSH1 0x20 ADD PUSH1 0x0 PUSH1 0xFF AND DUP2 MSTORE PUSH1 0x20 ADD PUSH1 0x0 PUSH1 0xFF AND DUP2 MSTORE PUSH1 0x20 ADD PUSH1 0x0 DUP2 MSTORE POP SWAP1 JUMP JUMPDEST POP PUSH1 0xFF SWAP2 DUP3 AND PUSH1 0x0 SWAP1 DUP2 MSTORE PUSH1 0x27 PUSH1 0x20 SWAP1 DUP2 MSTORE PUSH1 0x40 DUP1 DUP4 KECCAK256 SWAP4 DUP6 AND DUP4 MSTORE SWAP3 DUP2 MSTORE SWAP1 DUP3 SWAP1 KECCAK256 DUP3 MLOAD PUSH2 0x1E0 DUP2 ADD DUP5 MSTORE DUP2 SLOAD DUP2 MSTORE PUSH1 0x1 DUP3 ADD SLOAD SWAP3 DUP2 ADD SWAP3 SWAP1 SWAP3 MSTORE PUSH1 0x2 DUP2 ADD SLOAD SWAP3 DUP3 ADD SWAP3 SWAP1 SWAP3 MSTORE PUSH1 0x3 DUP3 ADD SLOAD PUSH1 0x60 DUP3 ADD MSTORE PUSH1 0x4 DUP3 ADD SLOAD PUSH2 0xFFFF AND PUSH1 0x80 DUP3 ADD MSTORE PUSH1 0x5 DUP3 ADD SLOAD PUSH1 0xA0 DUP3 ADD MSTORE PUSH1 0x8 DUP3 ADD SLOAD PUSH1 0xC0 DUP3 ADD MSTORE PUSH1 0x9 DUP3 ADD SLOAD PUSH1 0xE0 DUP3 ADD MSTORE PUSH1 0xA DUP3 ADD SLOAD PUSH2 0x100 DUP1 DUP4 ADD SWAP2 SWAP1 SWAP2 MSTORE PUSH1 0xB DUP4 ADD SLOAD PUSH2 0x120 DUP4 ADD MSTORE PUSH1 0xC DUP4 ADD SLOAD PUSH2 0x140 DUP4 ADD MSTORE PUSH1 0xD DUP4 ADD SLOAD PUSH2 0x160 DUP4 ADD MSTORE PUSH1 0xE DUP4 ADD SLOAD DUP1 DUP6 AND PUSH2 0x180 DUP5 ADD MSTORE DIV SWAP1 SWAP3 AND PUSH2 0x1A0 DUP4 ADD MSTORE PUSH1 0xF ADD SLOAD PUSH2 0x1C0 DUP3 ADD MSTORE SWAP1 JUMP JUMPDEST PUSH2 0x2857 PUSH2 0x42BA JUMP JUMPDEST PUSH1 0x1 SLOAD PUSH1 0x40 MLOAD PUSH4 0x8A888953 PUSH1 0xE0 SHL DUP2 MSTORE PUSH1 0xFF DUP1 DUP7 AND PUSH1 0x4 DUP4 ADD MSTORE DUP5 AND PUSH1 0x24 DUP3 ADD MSTORE DUP5 SWAP2 DUP5 SWAP2 CALLER SWAP2 PUSH1 0x1 PUSH1 0x1 PUSH1 0xA0 SHL SUB AND SWAP1 PUSH4 0x8A888953 SWAP1 PUSH1 0x44 ADD PUSH1 0x20 PUSH1 0x40 MLOAD DUP1 DUP4 SUB DUP2 DUP7 GAS STATICCALL ISZERO DUP1 ISZERO PUSH2 0x28AE JUMPI RETURNDATASIZE PUSH1 0x0 DUP1 RETURNDATACOPY RETURNDATASIZE PUSH1 0x0 REVERT JUMPDEST POP POP POP POP PUSH1 0x40 MLOAD RETURNDATASIZE PUSH1 0x1F NOT PUSH1 0x1F DUP3 ADD AND DUP3 ADD DUP1 PUSH1 0x40 MSTORE POP DUP2 ADD SWAP1 PUSH2 0x28D2 SWAP2 SWAP1 PUSH2 0x47D4 JUMP JUMPDEST PUSH1 0x1 PUSH1 0x1 PUSH1 0xA0 SHL SUB AND EQ PUSH2 0x290E JUMPI PUSH1 0x40 MLOAD PUSH3 0x461BCD PUSH1 0xE5 SHL DUP2 MSTORE PUSH1 0x20 PUSH1 0x4 DUP3 ADD MSTORE PUSH1 0x3 PUSH1 0x24 DUP3 ADD MSTORE PUSH3 0x37BBB7 PUSH1 0xE9 SHL PUSH1 0x44 DUP3 ADD MSTORE PUSH1 0x64 ADD PUSH2 0xBE1 JUMP JUMPDEST PUSH2 0x2916 PUSH2 0x42BA JUMP JUMPDEST PUSH1 0x0 JUMPDEST PUSH1 0x9 PUSH1 0xFF DUP3 AND LT ISZERO PUSH2 0x29CD JUMPI PUSH1 0x0 JUMPDEST PUSH1 0x9 PUSH1 0xFF DUP3 AND LT ISZERO PUSH2 0x29BA JUMPI PUSH1 0xFF DUP1 DUP10 AND PUSH1 0x0 SWAP1 DUP2 MSTORE PUSH1 0x28 PUSH1 0x20 SWAP1 DUP2 MSTORE PUSH1 0x40 DUP1 DUP4 KECCAK256 DUP12 DUP6 AND DUP5 MSTORE DUP3 MSTORE DUP1 DUP4 KECCAK256 DUP7 DUP6 AND DUP1 DUP6 MSTORE SWAP1 DUP4 MSTORE DUP2 DUP5 KECCAK256 DUP7 DUP7 AND DUP6 MSTORE SWAP1 SWAP3 MSTORE SWAP1 SWAP2 KECCAK256 SLOAD SWAP1 SWAP2 AND SWAP1 DUP5 SWAP1 PUSH1 0x9 DUP2 LT PUSH2 0x2982 JUMPI PUSH2 0x2982 PUSH2 0x48D8 JUMP JUMPDEST PUSH1 0x20 MUL ADD MLOAD DUP3 PUSH1 0xFF AND PUSH1 0x9 DUP2 LT PUSH2 0x299B JUMPI PUSH2 0x299B PUSH2 0x48D8 JUMP JUMPDEST PUSH1 0xFF SWAP1 SWAP3 AND PUSH1 0x20 SWAP3 SWAP1 SWAP3 MUL ADD MSTORE DUP1 PUSH2 0x29B2 DUP2 PUSH2 0x48B9 JUMP JUMPDEST SWAP2 POP POP PUSH2 0x2928 JUMP JUMPDEST POP DUP1 PUSH2 0x29C5 DUP2 PUSH2 0x48B9 JUMP JUMPDEST SWAP2 POP POP PUSH2 0x2919 JUMP JUMPDEST POP SWAP3 POP JUMPDEST POP POP SWAP3 SWAP2 POP POP JUMP JUMPDEST PUSH1 0x1 SLOAD PUSH1 0x40 MLOAD PUSH4 0x8A888953 PUSH1 0xE0 SHL DUP2 MSTORE PUSH1 0xFF DUP1 DUP6 AND PUSH1 0x4 DUP4 ADD MSTORE DUP4 AND PUSH1 0x24 DUP3 ADD MSTORE DUP4 SWAP2 DUP4 SWAP2 CALLER SWAP2 PUSH1 0x1 PUSH1 0x1 PUSH1 0xA0 SHL SUB AND SWAP1 PUSH4 0x8A888953 SWAP1 PUSH1 0x44 ADD PUSH1 0x20 PUSH1 0x40 MLOAD DUP1 DUP4 SUB DUP2 DUP7 GAS STATICCALL ISZERO DUP1 ISZERO PUSH2 0x2A30 JUMPI RETURNDATASIZE PUSH1 0x0 DUP1 RETURNDATACOPY RETURNDATASIZE PUSH1 0x0 REVERT JUMPDEST POP POP POP POP PUSH1 0x40 MLOAD RETURNDATASIZE PUSH1 0x1F NOT PUSH1 0x1F DUP3 ADD AND DUP3 ADD DUP1 PUSH1 0x40 MSTORE POP DUP2 ADD SWAP1 PUSH2 0x2A54 SWAP2 SWAP1 PUSH2 0x47D4 JUMP JUMPDEST PUSH1 0x1 PUSH1 0x1 PUSH1 0xA0 SHL SUB AND EQ PUSH2 0x2A90 JUMPI PUSH1 0x40 MLOAD PUSH3 0x461BCD PUSH1 0xE5 SHL DUP2 MSTORE PUSH1 0x20 PUSH1 0x4 DUP3 ADD MSTORE PUSH1 0x3 PUSH1 0x24 DUP3 ADD MSTORE PUSH3 0x37BBB7 PUSH1 0xE9 SHL PUSH1 0x44 DUP3 ADD MSTORE PUSH1 0x64 ADD PUSH2 0xBE1 JUMP JUMPDEST PUSH1 0xFF DUP1 DUP6 AND PUSH1 0x0 SWAP1 DUP2 MSTORE PUSH1 0x27 PUSH1 0x20 SWAP1 DUP2 MSTORE PUSH1 0x40 DUP1 DUP4 KECCAK256 SWAP4 DUP8 AND DUP4 MSTORE SWAP3 SWAP1 MSTORE SWAP1 DUP2 KECCAK256 PUSH1 0x7 ADD SLOAD PUSH2 0x2ABF SWAP1 TIMESTAMP PUSH2 0x4833 JUMP JUMPDEST PUSH2 0x2ACA SWAP1 PUSH1 0x3C PUSH2 0x485F JUMP JUMPDEST PUSH1 0xFF DUP1 DUP8 AND PUSH1 0x0 SWAP1 DUP2 MSTORE PUSH1 0x27 PUSH1 0x20 SWAP1 DUP2 MSTORE PUSH1 0x40 DUP1 DUP4 KECCAK256 SWAP4 DUP10 AND DUP4 MSTORE SWAP3 SWAP1 MSTORE KECCAK256 PUSH1 0x6 ADD SLOAD PUSH2 0x2AFB SWAP2 SWAP1 PUSH2 0xFFFF AND PUSH2 0x4820 JUMP JUMPDEST SWAP1 POP PUSH2 0x258 DUP2 GT PUSH2 0x2B0C JUMPI DUP1 PUSH2 0x2B10 JUMP JUMPDEST PUSH2 0x258 JUMPDEST PUSH1 0xFF SWAP6 DUP7 AND PUSH1 0x0 SWAP1 DUP2 MSTORE PUSH1 0x27 PUSH1 0x20 SWAP1 DUP2 MSTORE PUSH1 0x40 DUP1 DUP4 KECCAK256 SWAP8 SWAP1 SWAP9 AND DUP3 MSTORE SWAP6 SWAP1 SWAP6 MSTORE SWAP5 SWAP1 SWAP4 KECCAK256 PUSH1 0x6 ADD DUP1 SLOAD PUSH2 0xFFFF NOT AND PUSH2 0xFFFF SWAP1 SWAP6 AND SWAP5 SWAP1 SWAP5 OR SWAP1 SWAP4 SSTORE POP POP POP JUMP JUMPDEST PUSH1 0x1 SLOAD PUSH1 0x40 MLOAD PUSH4 0x8A888953 PUSH1 0xE0 SHL DUP2 MSTORE PUSH1 0xFF DUP1 DUP6 AND PUSH1 0x4 DUP4 ADD MSTORE DUP4 AND PUSH1 0x24 DUP3 ADD MSTORE DUP4 SWAP2 DUP4 SWAP2 CALLER SWAP2 PUSH1 0x1 PUSH1 0x1 PUSH1 0xA0 SHL SUB AND SWAP1 PUSH4 0x8A888953 SWAP1 PUSH1 0x44 ADD PUSH1 0x20 PUSH1 0x40 MLOAD DUP1 DUP4 SUB DUP2 DUP7 GAS STATICCALL ISZERO DUP1 ISZERO PUSH2 0x2BA7 JUMPI RETURNDATASIZE PUSH1 0x0 DUP1 RETURNDATACOPY RETURNDATASIZE PUSH1 0x0 REVERT JUMPDEST POP POP POP POP PUSH1 0x40 MLOAD RETURNDATASIZE PUSH1 0x1F NOT PUSH1 0x1F DUP3 ADD AND DUP3 ADD DUP1 PUSH1 0x40 MSTORE POP DUP2 ADD SWAP1 PUSH2 0x2BCB SWAP2 SWAP1 PUSH2 0x47D4 JUMP JUMPDEST PUSH1 0x1 PUSH1 0x1 PUSH1 0xA0 SHL SUB AND EQ PUSH2 0x2C07 JUMPI PUSH1 0x40 MLOAD PUSH3 0x461BCD PUSH1 0xE5 SHL DUP2 MSTORE PUSH1 0x20 PUSH1 0x4 DUP3 ADD MSTORE PUSH1 0x3 PUSH1 0x24 DUP3 ADD MSTORE PUSH3 0x37BBB7 PUSH1 0xE9 SHL PUSH1 0x44 DUP3 ADD MSTORE PUSH1 0x64 ADD PUSH2 0xBE1 JUMP JUMPDEST PUSH1 0x0 DUP6 PUSH2 0xFFFF AND GT PUSH2 0x2C5B JUMPI PUSH1 0x40 MLOAD PUSH3 0x461BCD PUSH1 0xE5 SHL DUP2 MSTORE PUSH1 0x20 PUSH1 0x4 DUP3 ADD MSTORE PUSH1 0x1 PUSH1 0x24 DUP3 ADD MSTORE PUSH32 0x3000000000000000000000000000000000000000000000000000000000000000 PUSH1 0x44 DUP3 ADD MSTORE PUSH1 0x64 ADD PUSH2 0xBE1 JUMP JUMPDEST PUSH1 0x3 SLOAD CALLVALUE EQ PUSH2 0x2CAC JUMPI PUSH1 0x40 MLOAD PUSH3 0x461BCD PUSH1 0xE5 SHL DUP2 MSTORE PUSH1 0x20 PUSH1 0x4 DUP3 ADD MSTORE PUSH1 0x7 PUSH1 0x24 DUP3 ADD MSTORE PUSH32 0x6261642066656500000000000000000000000000000000000000000000000000 PUSH1 0x44 DUP3 ADD MSTORE PUSH1 0x64 ADD PUSH2 0xBE1 JUMP JUMPDEST PUSH1 0xE SLOAD PUSH1 0x1 PUSH1 0x1 PUSH1 0xA0 SHL SUB AND PUSH2 0x2D04 JUMPI PUSH1 0x40 MLOAD PUSH3 0x461BCD PUSH1 0xE5 SHL DUP2 MSTORE PUSH1 0x20 PUSH1 0x4 DUP3 ADD MSTORE PUSH1 0xD PUSH1 0x24 DUP3 ADD MSTORE PUSH32 0x6578747261206E6F742073657400000000000000000000000000000000000000 PUSH1 0x44 DUP3 ADD MSTORE PUSH1 0x64 ADD PUSH2 0xBE1 JUMP JUMPDEST PUSH2 0x2D0E DUP5 DUP5 PUSH2 0x29D9 JUMP JUMPDEST PUSH1 0xFF DUP1 DUP6 AND PUSH1 0x0 SWAP1 DUP2 MSTORE PUSH1 0x27 PUSH1 0x20 SWAP1 DUP2 MSTORE PUSH1 0x40 DUP1 DUP4 KECCAK256 SWAP4 DUP8 AND DUP4 MSTORE SWAP3 SWAP1 MSTORE KECCAK256 PUSH1 0x6 ADD SLOAD PUSH2 0xFFFF DUP1 DUP8 AND SWAP2 AND LT ISZERO PUSH2 0x2D87 JUMPI PUSH1 0x40 MLOAD PUSH3 0x461BCD PUSH1 0xE5 SHL DUP2 MSTORE PUSH1 0x20 PUSH1 0x4 DUP3 ADD MSTORE PUSH1 0x1 PUSH1 0x24 DUP3 ADD MSTORE PUSH32 0x7400000000000000000000000000000000000000000000000000000000000000 PUSH1 0x44 DUP3 ADD MSTORE PUSH1 0x64 ADD PUSH2 0xBE1 JUMP JUMPDEST PUSH1 0xFF DUP1 DUP6 AND PUSH1 0x0 SWAP1 DUP2 MSTORE PUSH1 0x27 PUSH1 0x20 SWAP1 DUP2 MSTORE PUSH1 0x40 DUP1 DUP4 KECCAK256 SWAP4 DUP8 AND DUP4 MSTORE SWAP3 SWAP1 MSTORE KECCAK256 PUSH1 0x5 ADD SLOAD PUSH2 0x2DB6 SWAP1 PUSH2 0x3E8 PUSH2 0x4833 JUMP JUMPDEST DUP6 PUSH2 0xFFFF AND GT ISZERO PUSH2 0x2DF3 JUMPI PUSH1 0xFF DUP1 DUP6 AND PUSH1 0x0 SWAP1 DUP2 MSTORE PUSH1 0x27 PUSH1 0x20 SWAP1 DUP2 MSTORE PUSH1 0x40 DUP1 DUP4 KECCAK256 SWAP4 DUP8 AND DUP4 MSTORE SWAP3 SWAP1 MSTORE KECCAK256 PUSH1 0x5 ADD SLOAD PUSH2 0x2DF0 SWAP1 PUSH2 0x3E8 PUSH2 0x4833 JUMP JUMPDEST SWAP5 POP JUMPDEST PUSH1 0xFF DUP1 DUP6 AND PUSH1 0x0 SWAP1 DUP2 MSTORE PUSH1 0x27 PUSH1 0x20 SWAP1 DUP2 MSTORE PUSH1 0x40 DUP1 DUP4 KECCAK256 SWAP4 DUP8 AND DUP4 MSTORE SWAP3 SWAP1 MSTORE KECCAK256 PUSH1 0x6 ADD SLOAD PUSH2 0x2E25 SWAP1 DUP7 SWAP1 PUSH2 0xFFFF AND PUSH2 0x4907 JUMP JUMPDEST PUSH1 0xFF DUP6 DUP2 AND PUSH1 0x0 SWAP1 DUP2 MSTORE PUSH1 0x27 PUSH1 0x20 SWAP1 DUP2 MSTORE PUSH1 0x40 DUP1 DUP4 KECCAK256 SWAP4 DUP9 AND DUP4 MSTORE SWAP3 SWAP1 MSTORE SWAP1 DUP2 KECCAK256 PUSH1 0x6 DUP2 ADD DUP1 SLOAD PUSH2 0xFFFF NOT AND PUSH2 0xFFFF SWAP5 SWAP1 SWAP5 AND SWAP4 SWAP1 SWAP4 OR SWAP1 SWAP3 SSTORE TIMESTAMP PUSH1 0x7 SWAP1 SWAP3 ADD SWAP2 SWAP1 SWAP2 SSTORE PUSH2 0x2E75 DUP6 DUP6 PUSH1 0x5 PUSH2 0x39B1 JUMP JUMPDEST SWAP1 POP PUSH2 0x2E82 PUSH1 0x1 DUP3 PUSH2 0x4820 JUMP JUMPDEST PUSH1 0x2 SLOAD PUSH1 0x40 MLOAD PUSH32 0x2A2026A900000000000000000000000000000000000000000000000000000000 DUP2 MSTORE PUSH1 0xFF DUP1 DUP10 AND PUSH1 0x4 DUP4 ADD MSTORE DUP8 AND PUSH1 0x24 DUP3 ADD MSTORE SWAP2 SWAP3 POP PUSH1 0x0 SWAP2 PUSH1 0x1 PUSH1 0x1 PUSH1 0xA0 SHL SUB SWAP1 SWAP2 AND SWAP1 PUSH4 0x2A2026A9 SWAP1 PUSH1 0x44 ADD PUSH1 0x20 PUSH1 0x40 MLOAD DUP1 DUP4 SUB DUP2 DUP7 GAS STATICCALL ISZERO DUP1 ISZERO PUSH2 0x2EF4 JUMPI RETURNDATASIZE PUSH1 0x0 DUP1 RETURNDATACOPY RETURNDATASIZE PUSH1 0x0 REVERT JUMPDEST POP POP POP POP PUSH1 0x40 MLOAD RETURNDATASIZE PUSH1 0x1F NOT PUSH1 0x1F DUP3 ADD AND DUP3 ADD DUP1 PUSH1 0x40 MSTORE POP DUP2 ADD SWAP1 PUSH2 0x2F18 SWAP2 SWAP1 PUSH2 0x4929 JUMP JUMPDEST PUSH1 0xFF DUP1 DUP9 AND PUSH1 0x0 SWAP1 DUP2 MSTORE PUSH1 0x27 PUSH1 0x20 SWAP1 DUP2 MSTORE PUSH1 0x40 DUP1 DUP4 KECCAK256 DUP11 DUP6 AND DUP5 MSTORE SWAP1 SWAP2 MSTORE SWAP1 KECCAK256 SWAP2 SWAP3 POP DUP3 AND PUSH1 0x1 SUB PUSH2 0x2F6F JUMPI PUSH2 0x2F52 DUP4 PUSH2 0xFFFF DUP11 AND PUSH2 0x485F JUMP JUMPDEST DUP2 SLOAD DUP3 SWAP1 PUSH1 0x0 SWAP1 PUSH2 0x2F64 SWAP1 DUP5 SWAP1 PUSH2 0x4820 JUMP JUMPDEST SWAP1 SWAP2 SSTORE POP PUSH2 0x2FFC SWAP1 POP JUMP JUMPDEST DUP2 PUSH1 0xFF AND PUSH1 0x2 SUB PUSH2 0x2F9C JUMPI PUSH2 0x2F88 DUP4 PUSH2 0xFFFF DUP11 AND PUSH2 0x485F JUMP JUMPDEST PUSH1 0x1 DUP3 ADD DUP1 SLOAD PUSH1 0x0 SWAP1 PUSH2 0x2F64 SWAP1 DUP5 SWAP1 PUSH2 0x4820 JUMP JUMPDEST DUP2 PUSH1 0xFF AND PUSH1 0x3 SUB PUSH2 0x2FC9 JUMPI PUSH2 0x2FB5 DUP4 PUSH2 0xFFFF DUP11 AND PUSH2 0x485F JUMP JUMPDEST PUSH1 0x2 DUP3 ADD DUP1 SLOAD PUSH1 0x0 SWAP1 PUSH2 0x2F64 SWAP1 DUP5 SWAP1 PUSH2 0x4820 JUMP JUMPDEST DUP2 PUSH1 0xFF AND PUSH1 0x4 SUB PUSH2 0x2FFC JUMPI PUSH2 0x2FE2 DUP4 PUSH2 0xFFFF DUP11 AND PUSH2 0x485F JUMP JUMPDEST PUSH1 0x3 DUP3 ADD DUP1 SLOAD PUSH1 0x0 SWAP1 PUSH2 0x2FF6 SWAP1 DUP5 SWAP1 PUSH2 0x4820 JUMP JUMPDEST SWAP1 SWAP2 SSTORE POP POP JUMPDEST PUSH2 0x300A DUP4 PUSH2 0xFFFF DUP11 AND PUSH2 0x485F JUMP JUMPDEST DUP2 SLOAD DUP3 SWAP1 PUSH1 0x0 SWAP1 PUSH2 0x301C SWAP1 DUP5 SWAP1 PUSH2 0x4820 JUMP JUMPDEST SWAP1 SWAP2 SSTORE POP PUSH2 0x3030 SWAP1 POP DUP4 PUSH2 0xFFFF DUP11 AND PUSH2 0x485F JUMP JUMPDEST PUSH1 0x1 DUP3 ADD DUP1 SLOAD PUSH1 0x0 SWAP1 PUSH2 0x3044 SWAP1 DUP5 SWAP1 PUSH2 0x4820 JUMP JUMPDEST SWAP1 SWAP2 SSTORE POP PUSH2 0x3058 SWAP1 POP DUP4 PUSH2 0xFFFF DUP11 AND PUSH2 0x485F JUMP JUMPDEST PUSH1 0x2 DUP3 ADD DUP1 SLOAD PUSH1 0x0 SWAP1 PUSH2 0x306C SWAP1 DUP5 SWAP1 PUSH2 0x4820 JUMP JUMPDEST SWAP1 SWAP2 SSTORE POP PUSH2 0x3080 SWAP1 POP DUP4 PUSH2 0xFFFF DUP11 AND PUSH2 0x485F JUMP JUMPDEST PUSH1 0x3 DUP3 ADD DUP1 SLOAD PUSH1 0x0 SWAP1 PUSH2 0x3094 SWAP1 DUP5 SWAP1 PUSH2 0x4820 JUMP JUMPDEST SWAP3 POP POP DUP2 SWAP1 SSTORE POP DUP8 PUSH2 0xFFFF AND DUP2 PUSH1 0x5 ADD PUSH1 0x0 DUP3 DUP3 SLOAD PUSH2 0x30B3 SWAP2 SWAP1 PUSH2 0x4820 JUMP JUMPDEST SWAP1 SWAP2 SSTORE POP POP PUSH1 0x5 DUP2 ADD SLOAD PUSH1 0x0 SWAP1 PUSH2 0x30CD SWAP1 PUSH2 0x3E8 SWAP1 PUSH2 0x48A5 JUMP JUMPDEST SWAP1 POP PUSH2 0x3E8 DUP3 PUSH1 0x5 ADD PUSH1 0x0 DUP3 DUP3 SLOAD PUSH2 0x30E5 SWAP2 SWAP1 PUSH2 0x4946 JUMP JUMPDEST SWAP1 SWAP2 SSTORE POP POP PUSH1 0x4 DUP3 ADD SLOAD PUSH1 0x0 SWAP1 PUSH2 0x3101 SWAP1 DUP4 SWAP1 PUSH2 0xFFFF AND PUSH2 0x495A JUMP JUMPDEST SWAP1 POP PUSH2 0x1F4 DUP2 PUSH2 0xFFFF AND GT ISZERO PUSH2 0x3127 JUMPI PUSH1 0x4 DUP4 ADD DUP1 SLOAD PUSH2 0xFFFF NOT AND PUSH2 0x1F4 OR SWAP1 SSTORE PUSH2 0x313B JUMP JUMPDEST PUSH1 0x4 DUP4 ADD DUP1 SLOAD PUSH2 0xFFFF NOT AND PUSH2 0xFFFF DUP4 AND OR SWAP1 SSTORE JUMPDEST PUSH2 0x3146 DUP4 DUP11 DUP11 PUSH2 0x3CBB JUMP JUMPDEST PUSH1 0xFF DUP1 DUP11 AND PUSH1 0x0 SWAP1 DUP2 MSTORE PUSH1 0x7 PUSH1 0x20 SWAP1 DUP2 MSTORE PUSH1 0x40 DUP1 DUP4 KECCAK256 SWAP4 DUP13 AND DUP4 MSTORE SWAP3 SWAP1 MSTORE SWAP1 DUP2 KECCAK256 DUP1 SLOAD PUSH2 0xFFFF DUP14 AND SWAP3 SWAP1 PUSH2 0x317B SWAP1 DUP5 SWAP1 PUSH2 0x4820 JUMP JUMPDEST SWAP1 SWAP2 SSTORE POP POP PUSH1 0xFF DUP1 DUP11 AND PUSH1 0x0 SWAP1 DUP2 MSTORE PUSH1 0xB PUSH1 0x20 SWAP1 DUP2 MSTORE PUSH1 0x40 DUP1 DUP4 KECCAK256 SWAP4 DUP13 AND DUP4 MSTORE SWAP3 SWAP1 MSTORE KECCAK256 DUP1 SLOAD PUSH1 0xFF NOT AND SWAP1 SSTORE PUSH1 0x40 DUP1 MLOAD PUSH2 0xFFFF DUP13 AND DUP2 MSTORE PUSH1 0xFF DUP1 DUP13 AND PUSH1 0x20 DUP4 ADD MSTORE DUP11 AND SWAP2 DUP2 ADD SWAP2 SWAP1 SWAP2 MSTORE CALLER SWAP1 PUSH32 0xBB5B4F7847476E1912E2B57D030B0E491D0D72B2EF256CCEEA9DAA41F40F5D18 SWAP1 PUSH1 0x60 ADD PUSH1 0x40 MLOAD DUP1 SWAP2 SUB SWAP1 LOG2 PUSH2 0x31FE CALLVALUE CALLER PUSH2 0x3D1B JUMP JUMPDEST PUSH1 0x0 DUP1 PUSH2 0x3209 PUSH2 0x4075 JUMP JUMPDEST SWAP1 SWAP3 POP SWAP1 POP DUP2 ISZERO PUSH2 0x3324 JUMPI PUSH1 0x0 DUP2 DUP4 PUSH1 0x4 SLOAD DUP16 PUSH2 0xFFFF AND PUSH2 0x322A SWAP2 SWAP1 PUSH2 0x485F JUMP JUMPDEST PUSH2 0x3234 SWAP2 SWAP1 PUSH2 0x485F JUMP JUMPDEST PUSH2 0x323E SWAP2 SWAP1 PUSH2 0x48A5 JUMP JUMPDEST PUSH1 0x0 DUP1 SLOAD PUSH1 0x40 MLOAD PUSH32 0xA9059CBB00000000000000000000000000000000000000000000000000000000 DUP2 MSTORE CALLER PUSH1 0x4 DUP3 ADD MSTORE PUSH1 0x24 DUP2 ADD DUP5 SWAP1 MSTORE SWAP3 SWAP4 POP SWAP1 SWAP2 PUSH1 0x1 PUSH1 0x1 PUSH1 0xA0 SHL SUB SWAP1 SWAP2 AND SWAP1 PUSH4 0xA9059CBB SWAP1 PUSH1 0x44 ADD PUSH1 0x20 PUSH1 0x40 MLOAD DUP1 DUP4 SUB DUP2 PUSH1 0x0 DUP8 GAS CALL ISZERO DUP1 ISZERO PUSH2 0x32AE JUMPI RETURNDATASIZE PUSH1 0x0 DUP1 RETURNDATACOPY RETURNDATASIZE PUSH1 0x0 REVERT JUMPDEST POP POP POP POP PUSH1 0x40 MLOAD RETURNDATASIZE PUSH1 0x1F NOT PUSH1 0x1F DUP3 ADD AND DUP3 ADD DUP1 PUSH1 0x40 MSTORE POP DUP2 ADD SWAP1 PUSH2 0x32D2 SWAP2 SWAP1 PUSH2 0x4975 JUMP JUMPDEST SWAP1 POP DUP1 PUSH2 0x3321 JUMPI PUSH1 0x40 MLOAD PUSH3 0x461BCD PUSH1 0xE5 SHL DUP2 MSTORE PUSH1 0x20 PUSH1 0x4 DUP3 ADD MSTORE PUSH1 0x1A PUSH1 0x24 DUP3 ADD MSTORE PUSH32 0x4C4F5020726577617264207472616E73666572206661696C6564000000000000 PUSH1 0x44 DUP3 ADD MSTORE PUSH1 0x64 ADD PUSH2 0xBE1 JUMP JUMPDEST POP POP JUMPDEST PUSH1 0x6 DUP1 SLOAD SWAP1 PUSH1 0x0 PUSH2 0x3334 DUP4 PUSH2 0x4992 JUMP JUMPDEST SWAP2 SWAP1 POP SSTORE POP POP POP POP POP POP POP POP POP POP POP POP POP JUMP JUMPDEST PUSH1 0x1 SLOAD PUSH1 0x40 MLOAD PUSH4 0x8A888953 PUSH1 0xE0 SHL DUP2 MSTORE PUSH1 0xFF DUP1 DUP6 AND PUSH1 0x4 DUP4 ADD MSTORE DUP4 AND PUSH1 0x24 DUP3 ADD MSTORE PUSH1 0x0 SWAP2 DUP5 SWAP2 DUP5 SWAP2 CALLER SWAP2 PUSH1 0x1 PUSH1 0x1 PUSH1 0xA0 SHL SUB SWAP1 SWAP2 AND SWAP1 PUSH4 0x8A888953 SWAP1 PUSH1 0x44 ADD PUSH1 0x20 PUSH1 0x40 MLOAD DUP1 DUP4 SUB DUP2 DUP7 GAS STATICCALL ISZERO DUP1 ISZERO PUSH2 0x33A3 JUMPI RETURNDATASIZE PUSH1 0x0 DUP1 RETURNDATACOPY RETURNDATASIZE PUSH1 0x0 REVERT JUMPDEST POP POP POP POP PUSH1 0x40 MLOAD RETURNDATASIZE PUSH1 0x1F NOT PUSH1 0x1F DUP3 ADD AND DUP3 ADD DUP1 PUSH1 0x40 MSTORE POP DUP2 ADD SWAP1 PUSH2 0x33C7 SWAP2 SWAP1 PUSH2 0x47D4 JUMP JUMPDEST PUSH1 0x1 PUSH1 0x1 PUSH1 0xA0 SHL SUB AND EQ PUSH2 0x3403 JUMPI PUSH1 0x40 MLOAD PUSH3 0x461BCD PUSH1 0xE5 SHL DUP2 MSTORE PUSH1 0x20 PUSH1 0x4 DUP3 ADD MSTORE PUSH1 0x3 PUSH1 0x24 DUP3 ADD MSTORE PUSH3 0x37BBB7 PUSH1 0xE9 SHL PUSH1 0x44 DUP3 ADD MSTORE PUSH1 0x64 ADD PUSH2 0xBE1 JUMP JUMPDEST PUSH1 0xFF DUP1 DUP7 AND PUSH1 0x0 SWAP1 DUP2 MSTORE PUSH1 0x27 PUSH1 0x20 SWAP1 DUP2 MSTORE PUSH1 0x40 DUP1 DUP4 KECCAK256 SWAP4 DUP9 AND DUP4 MSTORE SWAP3 SWAP1 MSTORE KECCAK256 PUSH1 0x7 ADD SLOAD PUSH2 0x258 SWAP1 PUSH2 0x3434 SWAP1 TIMESTAMP PUSH2 0x4833 JUMP JUMPDEST PUSH2 0x343F SWAP1 PUSH1 0x3C PUSH2 0x485F JUMP JUMPDEST PUSH1 0xFF DUP1 DUP9 AND PUSH1 0x0 SWAP1 DUP2 MSTORE PUSH1 0x27 PUSH1 0x20 SWAP1 DUP2 MSTORE PUSH1 0x40 DUP1 DUP4 KECCAK256 SWAP4 DUP11 AND DUP4 MSTORE SWAP3 SWAP1 MSTORE KECCAK256 PUSH1 0x6 ADD SLOAD PUSH2 0x3470 SWAP2 SWAP1 PUSH2 0xFFFF AND PUSH2 0x4820 JUMP JUMPDEST GT ISZERO PUSH2 0x3480 JUMPI PUSH2 0x258 SWAP3 POP PUSH2 0x29D1 JUMP JUMPDEST PUSH1 0xFF DUP1 DUP7 AND PUSH1 0x0 SWAP1 DUP2 MSTORE PUSH1 0x27 PUSH1 0x20 SWAP1 DUP2 MSTORE PUSH1 0x40 DUP1 DUP4 KECCAK256 SWAP4 DUP9 AND DUP4 MSTORE SWAP3 SWAP1 MSTORE KECCAK256 PUSH1 0x7 ADD SLOAD PUSH2 0x34AD SWAP1 TIMESTAMP PUSH2 0x4833 JUMP JUMPDEST PUSH2 0x34B8 SWAP1 PUSH1 0x3C PUSH2 0x485F JUMP JUMPDEST PUSH1 0xFF DUP1 DUP8 AND PUSH1 0x0 SWAP1 DUP2 MSTORE PUSH1 0x27 PUSH1 0x20 SWAP1 DUP2 MSTORE PUSH1 0x40 DUP1 DUP4 KECCAK256 SWAP4 DUP10 AND DUP4 MSTORE SWAP3 SWAP1 MSTORE KECCAK256 PUSH1 0x6 ADD SLOAD PUSH2 0x34E9 SWAP2 SWAP1 PUSH2 0xFFFF AND PUSH2 0x4820 JUMP JUMPDEST SWAP3 POP PUSH2 0x29D1 JUMP JUMPDEST PUSH1 0x1 SLOAD PUSH1 0x40 MLOAD PUSH4 0x8A888953 PUSH1 0xE0 SHL DUP2 MSTORE PUSH1 0xFF DUP1 DUP8 AND PUSH1 0x4 DUP4 ADD MSTORE DUP6 AND PUSH1 0x24 DUP3 ADD MSTORE DUP6 SWAP2 DUP6 SWAP2 CALLER SWAP2 PUSH1 0x1 PUSH1 0x1 PUSH1 0xA0 SHL SUB AND SWAP1 PUSH4 0x8A888953 SWAP1 PUSH1 0x44 ADD PUSH1 0x20 PUSH1 0x40 MLOAD DUP1 DUP4 SUB DUP2 DUP7 GAS STATICCALL ISZERO DUP1 ISZERO PUSH2 0x3547 JUMPI RETURNDATASIZE PUSH1 0x0 DUP1 RETURNDATACOPY RETURNDATASIZE PUSH1 0x0 REVERT JUMPDEST POP POP POP POP PUSH1 0x40 MLOAD RETURNDATASIZE PUSH1 0x1F NOT PUSH1 0x1F DUP3 ADD AND DUP3 ADD DUP1 PUSH1 0x40 MSTORE POP DUP2 ADD SWAP1 PUSH2 0x356B SWAP2 SWAP1 PUSH2 0x47D4 JUMP JUMPDEST PUSH1 0x1 PUSH1 0x1 PUSH1 0xA0 SHL SUB AND EQ PUSH2 0x35A7 JUMPI PUSH1 0x40 MLOAD PUSH3 0x461BCD PUSH1 0xE5 SHL DUP2 MSTORE PUSH1 0x20 PUSH1 0x4 DUP3 ADD MSTORE PUSH1 0x3 PUSH1 0x24 DUP3 ADD MSTORE PUSH3 0x37BBB7 PUSH1 0xE9 SHL PUSH1 0x44 DUP3 ADD MSTORE PUSH1 0x64 ADD PUSH2 0xBE1 JUMP JUMPDEST PUSH1 0x0 DUP4 GT PUSH2 0x35F7 JUMPI PUSH1 0x40 MLOAD PUSH3 0x461BCD PUSH1 0xE5 SHL DUP2 MSTORE PUSH1 0x20 PUSH1 0x4 DUP3 ADD MSTORE PUSH1 0x1 PUSH1 0x24 DUP3 ADD MSTORE PUSH32 0x7A00000000000000000000000000000000000000000000000000000000000000 PUSH1 0x44 DUP3 ADD MSTORE PUSH1 0x64 ADD PUSH2 0xBE1 JUMP JUMPDEST DUP4 PUSH1 0xFF AND PUSH1 0x1 EQ DUP1 PUSH2 0x360C JUMPI POP DUP4 PUSH1 0xFF AND PUSH1 0x2 EQ JUMPDEST PUSH2 0x3658 JUMPI PUSH1 0x40 MLOAD PUSH3 0x461BCD PUSH1 0xE5 SHL DUP2 MSTORE PUSH1 0x20 PUSH1 0x4 DUP3 ADD MSTORE PUSH1 0x1 PUSH1 0x24 DUP3 ADD MSTORE PUSH32 0x7400000000000000000000000000000000000000000000000000000000000000 PUSH1 0x44 DUP3 ADD MSTORE PUSH1 0x64 ADD PUSH2 0xBE1 JUMP JUMPDEST PUSH1 0x0 PUSH2 0x3666 DUP8 DUP8 PUSH1 0x4 PUSH2 0x39B1 JUMP JUMPDEST SWAP1 POP PUSH1 0x0 DUP2 GT PUSH2 0x36B8 JUMPI PUSH1 0x40 MLOAD PUSH3 0x461BCD PUSH1 0xE5 SHL DUP2 MSTORE PUSH1 0x20 PUSH1 0x4 DUP3 ADD MSTORE PUSH1 0x1 PUSH1 0x24 DUP3 ADD MSTORE PUSH32 0x7000000000000000000000000000000000000000000000000000000000000000 PUSH1 0x44 DUP3 ADD MSTORE PUSH1 0x64 ADD PUSH2 0xBE1 JUMP JUMPDEST PUSH1 0x0 DUP6 PUSH1 0xFF AND PUSH1 0x1 EQ PUSH2 0x36CC JUMPI PUSH1 0x23 PUSH2 0x36CF JUMP JUMPDEST PUSH1 0x1F JUMPDEST PUSH1 0x40 DUP1 MLOAD PUSH1 0x80 DUP2 ADD DUP3 MSTORE DUP3 SLOAD DUP2 MSTORE PUSH1 0x1 DUP4 ADD SLOAD PUSH1 0x20 DUP3 ADD MSTORE PUSH1 0x2 DUP4 ADD SLOAD SWAP2 DUP2 ADD SWAP2 SWAP1 SWAP2 MSTORE PUSH1 0x3 SWAP1 SWAP2 ADD SLOAD PUSH1 0x60 DUP3 ADD MSTORE SWAP1 POP PUSH2 0x370D DUP9 DUP9 DUP4 DUP9 DUP7 PUSH2 0x3A4C JUMP JUMPDEST PUSH1 0xFF DUP1 DUP10 AND PUSH1 0x0 SWAP1 DUP2 MSTORE PUSH1 0x27 PUSH1 0x20 SWAP1 DUP2 MSTORE PUSH1 0x40 DUP1 DUP4 KECCAK256 DUP12 DUP6 AND DUP5 MSTORE SWAP1 SWAP2 MSTORE SWAP1 KECCAK256 PUSH1 0x8 ADD SWAP1 DUP8 AND PUSH1 0x1 SUB PUSH2 0x3834 JUMPI DUP1 SLOAD DUP7 GT ISZERO PUSH2 0x378B JUMPI PUSH1 0x40 MLOAD PUSH3 0x461BCD PUSH1 0xE5 SHL DUP2 MSTORE PUSH1 0x20 PUSH1 0x4 DUP3 ADD MSTORE PUSH1 0x2 PUSH1 0x24 DUP3 ADD MSTORE PUSH32 0x6F61000000000000000000000000000000000000000000000000000000000000 PUSH1 0x44 DUP3 ADD MSTORE PUSH1 0x64 ADD PUSH2 0xBE1 JUMP JUMPDEST DUP6 DUP2 PUSH1 0x2 ADD SLOAD LT ISZERO PUSH2 0x37DF JUMPI PUSH1 0x40 MLOAD PUSH3 0x461BCD PUSH1 0xE5 SHL DUP2 MSTORE PUSH1 0x20 PUSH1 0x4 DUP3 ADD MSTORE PUSH1 0x2 PUSH1 0x24 DUP3 ADD MSTORE PUSH32 0x6F77000000000000000000000000000000000000000000000000000000000000 PUSH1 0x44 DUP3 ADD MSTORE PUSH1 0x64 ADD PUSH2 0xBE1 JUMP JUMPDEST DUP6 DUP2 PUSH1 0x0 ADD PUSH1 0x0 DUP3 DUP3 SLOAD PUSH2 0x37F3 SWAP2 SWAP1 PUSH2 0x4833 JUMP JUMPDEST SWAP3 POP POP DUP2 SWAP1 SSTORE POP DUP6 DUP2 PUSH1 0x2 ADD PUSH1 0x0 DUP3 DUP3 SLOAD PUSH2 0x380E SWAP2 SWAP1 PUSH2 0x4833 JUMP JUMPDEST SWAP3 POP POP DUP2 SWAP1 SSTORE POP DUP6 DUP2 PUSH1 0x4 ADD PUSH1 0x0 DUP3 DUP3 SLOAD PUSH2 0x3829 SWAP2 SWAP1 PUSH2 0x4820 JUMP JUMPDEST SWAP1 SWAP2 SSTORE POP PUSH2 0x392C SWAP1 POP JUMP JUMPDEST DUP6 DUP2 PUSH1 0x1 ADD SLOAD LT ISZERO PUSH2 0x3888 JUMPI PUSH1 0x40 MLOAD PUSH3 0x461BCD PUSH1 0xE5 SHL DUP2 MSTORE PUSH1 0x20 PUSH1 0x4 DUP3 ADD MSTORE PUSH1 0x2 PUSH1 0x24 DUP3 ADD MSTORE PUSH32 0x6461000000000000000000000000000000000000000000000000000000000000 PUSH1 0x44 DUP3 ADD MSTORE PUSH1 0x64 ADD PUSH2 0xBE1 JUMP JUMPDEST DUP6 DUP2 PUSH1 0x3 ADD SLOAD LT ISZERO PUSH2 0x38DC JUMPI PUSH1 0x40 MLOAD PUSH3 0x461BCD PUSH1 0xE5 SHL DUP2 MSTORE PUSH1 0x20 PUSH1 0x4 DUP3 ADD MSTORE PUSH1 0x2 PUSH1 0x24 DUP3 ADD MSTORE PUSH32 0x6477000000000000000000000000000000000000000000000000000000000000 PUSH1 0x44 DUP3 ADD MSTORE PUSH1 0x64 ADD PUSH2 0xBE1 JUMP JUMPDEST DUP6 DUP2 PUSH1 0x1 ADD PUSH1 0x0 DUP3 DUP3 SLOAD PUSH2 0x38F0 SWAP2 SWAP1 PUSH2 0x4833 JUMP JUMPDEST SWAP3 POP POP DUP2 SWAP1 SSTORE POP DUP6 DUP2 PUSH1 0x3 ADD PUSH1 0x0 DUP3 DUP3 SLOAD PUSH2 0x390B SWAP2 SWAP1 PUSH2 0x4833 JUMP JUMPDEST SWAP3 POP POP DUP2 SWAP1 SSTORE POP DUP6 DUP2 PUSH1 0x5 ADD PUSH1 0x0 DUP3 DUP3 SLOAD PUSH2 0x3926 SWAP2 SWAP1 PUSH2 0x4820 JUMP JUMPDEST SWAP1 SWAP2 SSTORE POP POP JUMPDEST POP POP POP POP POP POP POP POP POP JUMP JUMPDEST PUSH1 0xC SLOAD PUSH1 0x1 PUSH1 0x1 PUSH1 0xA0 SHL SUB AND CALLER EQ PUSH2 0x3977 JUMPI PUSH1 0x40 MLOAD PUSH3 0x461BCD PUSH1 0xE5 SHL DUP2 MSTORE PUSH1 0x20 PUSH1 0x4 DUP3 ADD MSTORE PUSH1 0x3 PUSH1 0x24 DUP3 ADD MSTORE PUSH3 0x37BBB7 PUSH1 0xE9 SHL PUSH1 0x44 DUP3 ADD MSTORE PUSH1 0x64 ADD PUSH2 0xBE1 JUMP JUMPDEST PUSH1 0xD DUP1 SLOAD PUSH32 0xFFFFFFFFFFFFFFFFFFFFFFFF0000000000000000000000000000000000000000 AND PUSH1 0x1 PUSH1 0x1 PUSH1 0xA0 SHL SUB SWAP3 SWAP1 SWAP3 AND SWAP2 SWAP1 SWAP2 OR SWAP1 SSTORE JUMP JUMPDEST PUSH1 0x0 DUP1 DUP1 JUMPDEST PUSH1 0x9 PUSH1 0xFF DUP3 AND LT ISZERO PUSH2 0x3A43 JUMPI PUSH1 0x0 JUMPDEST PUSH1 0x9 PUSH1 0xFF DUP3 AND LT ISZERO PUSH2 0x3A30 JUMPI PUSH1 0xFF DUP8 DUP2 AND PUSH1 0x0 SWAP1 DUP2 MSTORE PUSH1 0x28 PUSH1 0x20 SWAP1 DUP2 MSTORE PUSH1 0x40 DUP1 DUP4 KECCAK256 DUP11 DUP6 AND DUP5 MSTORE DUP3 MSTORE DUP1 DUP4 KECCAK256 DUP7 DUP6 AND DUP5 MSTORE DUP3 MSTORE DUP1 DUP4 KECCAK256 DUP6 DUP6 AND DUP5 MSTORE SWAP1 SWAP2 MSTORE SWAP1 KECCAK256 SLOAD DUP2 DUP8 AND SWAP2 AND SUB PUSH2 0x3A1E JUMPI DUP3 PUSH2 0x3A1A DUP2 PUSH2 0x4992 JUMP JUMPDEST SWAP4 POP POP JUMPDEST DUP1 PUSH2 0x3A28 DUP2 PUSH2 0x48B9 JUMP JUMPDEST SWAP2 POP POP PUSH2 0x39C5 JUMP JUMPDEST POP DUP1 PUSH2 0x3A3B DUP2 PUSH2 0x48B9 JUMP JUMPDEST SWAP2 POP POP PUSH2 0x39B6 JUMP JUMPDEST POP SWAP5 SWAP4 POP POP POP POP JUMP JUMPDEST PUSH1 0xFF DUP1 DUP7 AND PUSH1 0x0 SWAP1 DUP2 MSTORE PUSH1 0x27 PUSH1 0x20 SWAP1 DUP2 MSTORE PUSH1 0x40 DUP1 DUP4 KECCAK256 SWAP4 DUP9 AND DUP4 MSTORE SWAP3 SWAP1 MSTORE SWAP1 DUP2 KECCAK256 DUP5 MLOAD SWAP1 SWAP2 SWAP1 DUP4 SWAP1 PUSH2 0x3A7F SWAP1 DUP7 SWAP1 PUSH2 0x485F JUMP JUMPDEST PUSH2 0x3A89 SWAP2 SWAP1 PUSH2 0x48A5 JUMP JUMPDEST SWAP1 POP PUSH1 0x0 DUP4 DUP6 DUP8 PUSH1 0x20 ADD MLOAD PUSH2 0x3A9E SWAP2 SWAP1 PUSH2 0x485F JUMP JUMPDEST PUSH2 0x3AA8 SWAP2 SWAP1 PUSH2 0x48A5 JUMP JUMPDEST SWAP1 POP PUSH1 0x0 DUP5 DUP7 DUP9 PUSH1 0x40 ADD MLOAD PUSH2 0x3ABD SWAP2 SWAP1 PUSH2 0x485F JUMP JUMPDEST PUSH2 0x3AC7 SWAP2 SWAP1 PUSH2 0x48A5 JUMP JUMPDEST SWAP1 POP PUSH1 0x0 DUP6 DUP8 DUP10 PUSH1 0x60 ADD MLOAD PUSH2 0x3ADC SWAP2 SWAP1 PUSH2 0x485F JUMP JUMPDEST PUSH2 0x3AE6 SWAP2 SWAP1 PUSH2 0x48A5 JUMP JUMPDEST DUP6 SLOAD SWAP1 SWAP2 POP DUP5 GT ISZERO PUSH2 0x3B3A JUMPI PUSH1 0x40 MLOAD PUSH3 0x461BCD PUSH1 0xE5 SHL DUP2 MSTORE PUSH1 0x20 PUSH1 0x4 DUP3 ADD MSTORE PUSH1 0x1 PUSH1 0x24 DUP3 ADD MSTORE PUSH32 0x6600000000000000000000000000000000000000000000000000000000000000 PUSH1 0x44 DUP3 ADD MSTORE PUSH1 0x64 ADD PUSH2 0xBE1 JUMP JUMPDEST PUSH1 0x1 DUP6 ADD SLOAD DUP4 GT ISZERO PUSH2 0x3B8E JUMPI PUSH1 0x40 MLOAD PUSH3 0x461BCD PUSH1 0xE5 SHL DUP2 MSTORE PUSH1 0x20 PUSH1 0x4 DUP3 ADD MSTORE PUSH1 0x1 PUSH1 0x24 DUP3 ADD MSTORE PUSH32 0x7700000000000000000000000000000000000000000000000000000000000000 PUSH1 0x44 DUP3 ADD MSTORE PUSH1 0x64 ADD PUSH2 0xBE1 JUMP JUMPDEST PUSH1 0x2 DUP6 ADD SLOAD DUP3 GT ISZERO PUSH2 0x3BE2 JUMPI PUSH1 0x40 MLOAD PUSH3 0x461BCD PUSH1 0xE5 SHL DUP2 MSTORE PUSH1 0x20 PUSH1 0x4 DUP3 ADD MSTORE PUSH1 0x1 PUSH1 0x24 DUP3 ADD MSTORE PUSH32 0x7300000000000000000000000000000000000000000000000000000000000000 PUSH1 0x44 DUP3 ADD MSTORE PUSH1 0x64 ADD PUSH2 0xBE1 JUMP JUMPDEST PUSH1 0x3 DUP6 ADD SLOAD DUP2 GT ISZERO PUSH2 0x3C36 JUMPI PUSH1 0x40 MLOAD PUSH3 0x461BCD PUSH1 0xE5 SHL DUP2 MSTORE PUSH1 0x20 PUSH1 0x4 DUP3 ADD MSTORE PUSH1 0x1 PUSH1 0x24 DUP3 ADD MSTORE PUSH32 0x6900000000000000000000000000000000000000000000000000000000000000 PUSH1 0x44 DUP3 ADD MSTORE PUSH1 0x64 ADD PUSH2 0xBE1 JUMP JUMPDEST DUP5 SLOAD DUP5 SWAP1 DUP7 SWAP1 PUSH1 0x0 SWAP1 PUSH2 0x3C4A SWAP1 DUP5 SWAP1 PUSH2 0x4833 JUMP JUMPDEST SWAP1 SWAP2 SSTORE POP POP PUSH1 0x1 DUP6 ADD DUP1 SLOAD DUP5 SWAP2 SWAP1 PUSH1 0x0 SWAP1 PUSH2 0x3C66 SWAP1 DUP5 SWAP1 PUSH2 0x4833 JUMP JUMPDEST SWAP1 SWAP2 SSTORE POP POP PUSH1 0x2 DUP6 ADD DUP1 SLOAD DUP4 SWAP2 SWAP1 PUSH1 0x0 SWAP1 PUSH2 0x3C82 SWAP1 DUP5 SWAP1 PUSH2 0x4833 JUMP JUMPDEST SWAP1 SWAP2 SSTORE POP POP PUSH1 0x3 DUP6 ADD DUP1 SLOAD DUP3 SWAP2 SWAP1 PUSH1 0x0 SWAP1 PUSH2 0x3C9E SWAP1 DUP5 SWAP1 PUSH2 0x4833 JUMP JUMPDEST SWAP1 SWAP2 SSTORE POP PUSH2 0x3CAF SWAP1 POP DUP6 DUP12 DUP12 PUSH2 0x3CBB JUMP JUMPDEST POP POP POP POP POP POP POP POP POP POP JUMP JUMPDEST PUSH1 0x3 DUP4 ADD SLOAD PUSH1 0x2 DUP5 ADD SLOAD PUSH1 0x1 DUP6 ADD SLOAD DUP6 SLOAD PUSH1 0x0 SWAP4 SWAP3 SWAP2 PUSH2 0x3CDA SWAP2 PUSH2 0x4820 JUMP JUMPDEST PUSH2 0x3CE4 SWAP2 SWAP1 PUSH2 0x4820 JUMP JUMPDEST PUSH2 0x3CEE SWAP2 SWAP1 PUSH2 0x4820 JUMP JUMPDEST PUSH1 0xF SWAP1 SWAP5 ADD DUP5 SWAP1 SSTORE POP PUSH1 0xFF SWAP2 DUP3 AND PUSH1 0x0 SWAP1 DUP2 MSTORE PUSH1 0xA PUSH1 0x20 SWAP1 DUP2 MSTORE PUSH1 0x40 DUP1 DUP4 KECCAK256 SWAP4 SWAP1 SWAP5 AND DUP3 MSTORE SWAP2 SWAP1 SWAP2 MSTORE KECCAK256 SSTORE JUMP JUMPDEST PUSH1 0x1 SLOAD PUSH1 0x40 MLOAD PUSH32 0x4A9FEFC700000000000000000000000000000000000000000000000000000000 DUP2 MSTORE PUSH1 0x1 PUSH1 0x1 PUSH1 0xA0 SHL SUB DUP4 DUP2 AND PUSH1 0x4 DUP4 ADD MSTORE PUSH1 0x0 SWAP3 AND SWAP1 PUSH4 0x4A9FEFC7 SWAP1 PUSH1 0x24 ADD PUSH1 0x20 PUSH1 0x40 MLOAD DUP1 DUP4 SUB DUP2 DUP7 GAS STATICCALL ISZERO DUP1 ISZERO PUSH2 0x3D7F JUMPI RETURNDATASIZE PUSH1 0x0 DUP1 RETURNDATACOPY RETURNDATASIZE PUSH1 0x0 REVERT JUMPDEST POP POP POP POP PUSH1 0x40 MLOAD RETURNDATASIZE PUSH1 0x1F NOT PUSH1 0x1F DUP3 ADD AND DUP3 ADD DUP1 PUSH1 0x40 MSTORE POP DUP2 ADD SWAP1 PUSH2 0x3DA3 SWAP2 SWAP1 PUSH2 0x47D4 JUMP JUMPDEST SWAP1 POP PUSH2 0x3DAD PUSH2 0x42E8 JUMP JUMPDEST PUSH1 0x0 DUP1 DUP1 PUSH1 0x0 PUSH2 0x3DBB PUSH2 0x40CC JUMP JUMPDEST SWAP3 POP SWAP3 POP SWAP3 POP DUP3 DUP6 DUP6 DUP1 PUSH2 0x3DCE SWAP1 PUSH2 0x4992 JUMP JUMPDEST SWAP7 POP PUSH1 0x5 DUP2 LT PUSH2 0x3DE0 JUMPI PUSH2 0x3DE0 PUSH2 0x48D8 JUMP JUMPDEST PUSH1 0x1 PUSH1 0x1 PUSH1 0xA0 SHL SUB SWAP1 SWAP3 AND PUSH1 0x20 SWAP3 SWAP1 SWAP3 MUL ADD MSTORE DUP2 DUP6 DUP6 PUSH2 0x3DFF DUP2 PUSH2 0x4992 JUMP JUMPDEST SWAP7 POP PUSH1 0x5 DUP2 LT PUSH2 0x3E11 JUMPI PUSH2 0x3E11 PUSH2 0x48D8 JUMP JUMPDEST PUSH1 0x1 PUSH1 0x1 PUSH1 0xA0 SHL SUB SWAP1 SWAP3 AND PUSH1 0x20 SWAP3 SWAP1 SWAP3 MUL ADD MSTORE DUP1 DUP6 DUP6 PUSH2 0x3E30 DUP2 PUSH2 0x4992 JUMP JUMPDEST SWAP7 POP PUSH1 0x5 DUP2 LT PUSH2 0x3E42 JUMPI PUSH2 0x3E42 PUSH2 0x48D8 JUMP JUMPDEST PUSH1 0x1 PUSH1 0x1 PUSH1 0xA0 SHL SUB SWAP3 DUP4 AND PUSH1 0x20 SWAP2 SWAP1 SWAP2 MUL SWAP2 SWAP1 SWAP2 ADD MSTORE PUSH1 0xE SLOAD AND DUP6 DUP6 PUSH2 0x3E67 DUP2 PUSH2 0x4992 JUMP JUMPDEST SWAP7 POP PUSH1 0x5 DUP2 LT PUSH2 0x3E79 JUMPI PUSH2 0x3E79 PUSH2 0x48D8 JUMP JUMPDEST PUSH1 0x1 PUSH1 0x1 PUSH1 0xA0 SHL SUB SWAP1 SWAP3 AND PUSH1 0x20 SWAP3 SWAP1 SWAP3 MUL ADD MSTORE DUP6 DUP6 DUP6 PUSH2 0x3E98 DUP2 PUSH2 0x4992 JUMP JUMPDEST SWAP7 POP PUSH1 0x5 DUP2 LT PUSH2 0x3EAA JUMPI PUSH2 0x3EAA PUSH2 0x48D8 JUMP JUMPDEST PUSH1 0x1 PUSH1 0x1 PUSH1 0xA0 SHL SUB SWAP1 SWAP3 AND PUSH1 0x20 SWAP3 SWAP1 SWAP3 MUL ADD MSTORE PUSH1 0x0 PUSH2 0x3EC9 DUP6 DUP11 PUSH2 0x48A5 JUMP JUMPDEST SWAP1 POP PUSH1 0x0 DUP1 JUMPDEST DUP7 DUP2 LT ISZERO PUSH2 0x3FB0 JUMPI PUSH1 0x0 DUP9 DUP3 PUSH1 0x5 DUP2 LT PUSH2 0x3EEB JUMPI PUSH2 0x3EEB PUSH2 0x48D8 JUMP JUMPDEST PUSH1 0x20 MUL ADD MLOAD PUSH1 0x1 PUSH1 0x1 PUSH1 0xA0 SHL SUB AND DUP5 PUSH1 0x40 MLOAD PUSH1 0x0 PUSH1 0x40 MLOAD DUP1 DUP4 SUB DUP2 DUP6 DUP8 GAS CALL SWAP3 POP POP POP RETURNDATASIZE DUP1 PUSH1 0x0 DUP2 EQ PUSH2 0x3F3A JUMPI PUSH1 0x40 MLOAD SWAP2 POP PUSH1 0x1F NOT PUSH1 0x3F RETURNDATASIZE ADD AND DUP3 ADD PUSH1 0x40 MSTORE RETURNDATASIZE DUP3 MSTORE RETURNDATASIZE PUSH1 0x0 PUSH1 0x20 DUP5 ADD RETURNDATACOPY PUSH2 0x3F3F JUMP JUMPDEST PUSH1 0x60 SWAP2 POP JUMPDEST POP POP SWAP1 POP DUP1 PUSH2 0x3F90 JUMPI PUSH1 0x40 MLOAD PUSH3 0x461BCD PUSH1 0xE5 SHL DUP2 MSTORE PUSH1 0x20 PUSH1 0x4 DUP3 ADD MSTORE PUSH1 0x1 PUSH1 0x24 DUP3 ADD MSTORE PUSH32 0x7300000000000000000000000000000000000000000000000000000000000000 PUSH1 0x44 DUP3 ADD MSTORE PUSH1 0x64 ADD PUSH2 0xBE1 JUMP JUMPDEST PUSH2 0x3F9A DUP5 DUP5 PUSH2 0x4820 JUMP JUMPDEST SWAP3 POP POP DUP1 DUP1 PUSH2 0x3FA8 SWAP1 PUSH2 0x4992 JUMP JUMPDEST SWAP2 POP POP PUSH2 0x3ECF JUMP JUMPDEST POP PUSH1 0x0 PUSH2 0x3FBD DUP3 DUP13 PUSH2 0x4833 JUMP JUMPDEST SWAP1 POP DUP1 ISZERO PUSH2 0x4068 JUMPI PUSH1 0xE SLOAD PUSH1 0x40 MLOAD PUSH1 0x0 SWAP2 PUSH1 0x1 PUSH1 0x1 PUSH1 0xA0 SHL SUB AND SWAP1 DUP4 SWAP1 DUP4 DUP2 DUP2 DUP2 DUP6 DUP8 GAS CALL SWAP3 POP POP POP RETURNDATASIZE DUP1 PUSH1 0x0 DUP2 EQ PUSH2 0x4012 JUMPI PUSH1 0x40 MLOAD SWAP2 POP PUSH1 0x1F NOT PUSH1 0x3F RETURNDATASIZE ADD AND DUP3 ADD PUSH1 0x40 MSTORE RETURNDATASIZE DUP3 MSTORE RETURNDATASIZE PUSH1 0x0 PUSH1 0x20 DUP5 ADD RETURNDATACOPY PUSH2 0x4017 JUMP JUMPDEST PUSH1 0x60 SWAP2 POP JUMPDEST POP POP SWAP1 POP DUP1 PUSH2 0x13ED JUMPI PUSH1 0x40 MLOAD PUSH3 0x461BCD PUSH1 0xE5 SHL DUP2 MSTORE PUSH1 0x20 PUSH1 0x4 DUP3 ADD MSTORE PUSH1 0x1 PUSH1 0x24 DUP3 ADD MSTORE PUSH32 0x7200000000000000000000000000000000000000000000000000000000000000 PUSH1 0x44 DUP3 ADD MSTORE PUSH1 0x64 ADD PUSH2 0xBE1 JUMP JUMPDEST POP POP POP POP POP POP POP POP POP POP POP JUMP JUMPDEST PUSH1 0x0 DUP1 PUSH1 0x0 PUSH2 0x4082 PUSH2 0x4278 JUMP JUMPDEST SWAP1 POP PUSH1 0x5 DUP2 LT PUSH2 0x4098 JUMPI POP PUSH1 0x0 SWAP3 PUSH1 0x1 SWAP3 POP SWAP1 POP JUMP JUMPDEST DUP1 PUSH1 0x0 SUB PUSH2 0x40AC JUMPI POP PUSH1 0x2 SWAP3 PUSH1 0x1 SWAP3 POP SWAP1 POP JUMP JUMPDEST PUSH1 0x1 PUSH2 0x40B8 DUP2 DUP4 PUSH2 0x4833 JUMP JUMPDEST PUSH2 0x40C3 SWAP1 PUSH1 0x2 PUSH2 0x4A90 JUMP JUMPDEST SWAP3 POP SWAP3 POP POP SWAP1 SWAP2 JUMP JUMPDEST PUSH1 0x0 DUP1 PUSH1 0x0 DUP1 PUSH1 0x0 DUP1 PUSH1 0x0 JUMPDEST PUSH1 0x14 DUP2 PUSH1 0xFF AND LT ISZERO PUSH2 0x426F JUMPI PUSH1 0x0 JUMPDEST PUSH1 0x14 DUP2 PUSH1 0xFF AND LT ISZERO PUSH2 0x425C JUMPI PUSH1 0xFF DUP1 DUP4 AND PUSH1 0x0 SWAP1 DUP2 MSTORE PUSH1 0xA PUSH1 0x20 SWAP1 DUP2 MSTORE PUSH1 0x40 DUP1 DUP4 KECCAK256 SWAP4 DUP6 AND DUP4 MSTORE SWAP3 SWAP1 MSTORE SWAP1 DUP2 KECCAK256 SLOAD SWAP1 DUP2 SWAP1 SUB PUSH2 0x4123 JUMPI POP PUSH2 0x424A JUMP JUMPDEST PUSH1 0x1 SLOAD PUSH1 0x40 MLOAD PUSH4 0x8A888953 PUSH1 0xE0 SHL DUP2 MSTORE PUSH1 0xFF DUP1 DUP7 AND PUSH1 0x4 DUP4 ADD MSTORE DUP5 AND PUSH1 0x24 DUP3 ADD MSTORE PUSH1 0x0 SWAP2 PUSH1 0x1 PUSH1 0x1 PUSH1 0xA0 SHL SUB AND SWAP1 PUSH4 0x8A888953 SWAP1 PUSH1 0x44 ADD PUSH1 0x20 PUSH1 0x40 MLOAD DUP1 DUP4 SUB DUP2 DUP7 GAS STATICCALL ISZERO DUP1 ISZERO PUSH2 0x4177 JUMPI RETURNDATASIZE PUSH1 0x0 DUP1 RETURNDATACOPY RETURNDATASIZE PUSH1 0x0 REVERT JUMPDEST POP POP POP POP PUSH1 0x40 MLOAD RETURNDATASIZE PUSH1 0x1F NOT PUSH1 0x1F DUP3 ADD AND DUP3 ADD DUP1 PUSH1 0x40 MSTORE POP DUP2 ADD SWAP1 PUSH2 0x419B SWAP2 SWAP1 PUSH2 0x47D4 JUMP JUMPDEST SWAP1 POP PUSH1 0x1 PUSH1 0x1 PUSH1 0xA0 SHL SUB DUP2 AND PUSH2 0x41B2 JUMPI POP POP PUSH2 0x424A JUMP JUMPDEST DUP7 DUP3 GT ISZERO PUSH2 0x41C9 JUMPI SWAP9 SWAP8 SWAP7 POP SWAP5 SWAP4 SWAP3 POP DUP5 DUP9 PUSH2 0x4247 JUMP JUMPDEST DUP6 DUP3 GT DUP1 ISZERO PUSH2 0x41EA JUMPI POP DUP10 PUSH1 0x1 PUSH1 0x1 PUSH1 0xA0 SHL SUB AND DUP2 PUSH1 0x1 PUSH1 0x1 PUSH1 0xA0 SHL SUB AND EQ ISZERO JUMPDEST ISZERO PUSH2 0x41FC JUMPI SWAP8 SWAP7 POP SWAP4 SWAP3 POP DUP4 DUP8 PUSH2 0x4247 JUMP JUMPDEST DUP5 DUP3 GT DUP1 ISZERO PUSH2 0x421D JUMPI POP DUP10 PUSH1 0x1 PUSH1 0x1 PUSH1 0xA0 SHL SUB AND DUP2 PUSH1 0x1 PUSH1 0x1 PUSH1 0xA0 SHL SUB AND EQ ISZERO JUMPDEST DUP1 ISZERO PUSH2 0x423B JUMPI POP DUP9 PUSH1 0x1 PUSH1 0x1 PUSH1 0xA0 SHL SUB AND DUP2 PUSH1 0x1 PUSH1 0x1 PUSH1 0xA0 SHL SUB AND EQ ISZERO JUMPDEST ISZERO PUSH2 0x4247 JUMPI DUP2 SWAP5 POP DUP1 SWAP8 POP JUMPDEST POP POP JUMPDEST DUP1 PUSH2 0x4254 DUP2 PUSH2 0x48B9 JUMP JUMPDEST SWAP2 POP POP PUSH2 0x40E7 JUMP JUMPDEST POP DUP1 PUSH2 0x4267 DUP2 PUSH2 0x48B9 JUMP JUMPDEST SWAP2 POP POP PUSH2 0x40D8 JUMP JUMPDEST POP POP POP POP SWAP1 SWAP2 SWAP3 JUMP JUMPDEST PUSH1 0x0 PUSH1 0x5 SLOAD PUSH1 0x0 EQ DUP1 PUSH2 0x428C JUMPI POP PUSH1 0x5 SLOAD TIMESTAMP LT JUMPDEST ISZERO PUSH2 0x4298 JUMPI POP PUSH1 0x0 NOT SWAP1 JUMP JUMPDEST PUSH4 0x1E13380 PUSH1 0x5 SLOAD TIMESTAMP PUSH2 0x42AB SWAP2 SWAP1 PUSH2 0x4833 JUMP JUMPDEST PUSH2 0x42B5 SWAP2 SWAP1 PUSH2 0x48A5 JUMP JUMPDEST SWAP1 POP SWAP1 JUMP JUMPDEST PUSH1 0x40 MLOAD DUP1 PUSH2 0x120 ADD PUSH1 0x40 MSTORE DUP1 PUSH1 0x9 SWAP1 JUMPDEST PUSH2 0x42D2 PUSH2 0x4306 JUMP JUMPDEST DUP2 MSTORE PUSH1 0x20 ADD SWAP1 PUSH1 0x1 SWAP1 SUB SWAP1 DUP2 PUSH2 0x42CA JUMPI SWAP1 POP POP SWAP1 JUMP JUMPDEST PUSH1 0x40 MLOAD DUP1 PUSH1 0xA0 ADD PUSH1 0x40 MSTORE DUP1 PUSH1 0x5 SWAP1 PUSH1 0x20 DUP3 MUL DUP1 CALLDATASIZE DUP4 CALLDATACOPY POP SWAP2 SWAP3 SWAP2 POP POP JUMP JUMPDEST PUSH1 0x40 MLOAD DUP1 PUSH2 0x120 ADD PUSH1 0x40 MSTORE DUP1 PUSH1 0x9 SWAP1 PUSH1 0x20 DUP3 MUL DUP1 CALLDATASIZE DUP4 CALLDATACOPY POP SWAP2 SWAP3 SWAP2 POP POP JUMP JUMPDEST PUSH1 0xFF DUP2 AND DUP2 EQ PUSH2 0x4334 JUMPI PUSH1 0x0 DUP1 REVERT JUMPDEST POP JUMP JUMPDEST PUSH1 0x0 DUP1 PUSH1 0x40 DUP4 DUP6 SUB SLT ISZERO PUSH2 0x434A JUMPI PUSH1 0x0 DUP1 REVERT JUMPDEST DUP3 CALLDATALOAD PUSH2 0x4355 DUP2 PUSH2 0x4325 JUMP JUMPDEST SWAP2 POP PUSH1 0x20 DUP4 ADD CALLDATALOAD PUSH2 0x4365 DUP2 PUSH2 0x4325 JUMP JUMPDEST DUP1 SWAP2 POP POP SWAP3 POP SWAP3 SWAP1 POP JUMP JUMPDEST PUSH1 0x0 DUP1 PUSH1 0x0 DUP1 PUSH1 0x80 DUP6 DUP8 SUB SLT ISZERO PUSH2 0x4386 JUMPI PUSH1 0x0 DUP1 REVERT JUMPDEST DUP5 CALLDATALOAD PUSH2 0x4391 DUP2 PUSH2 0x4325 JUMP JUMPDEST SWAP4 POP PUSH1 0x20 DUP6 ADD CALLDATALOAD PUSH2 0x43A1 DUP2 PUSH2 0x4325 JUMP JUMPDEST SWAP3 POP PUSH1 0x40 DUP6 ADD CALLDATALOAD PUSH2 0x43B1 DUP2 PUSH2 0x4325 JUMP JUMPDEST SWAP4 SWAP7 SWAP3 SWAP6 POP SWAP3 SWAP4 PUSH1 0x60 ADD CALLDATALOAD SWAP3 POP POP JUMP JUMPDEST PUSH1 0x1 PUSH1 0x1 PUSH1 0xA0 SHL SUB DUP2 AND DUP2 EQ PUSH2 0x4334 JUMPI PUSH1 0x0 DUP1 REVERT JUMPDEST PUSH1 0x0 PUSH1 0x20 DUP3 DUP5 SUB SLT ISZERO PUSH2 0x43E8 JUMPI PUSH1 0x0 DUP1 REVERT JUMPDEST DUP2 CALLDATALOAD PUSH2 0x1432 DUP2 PUSH2 0x43C1 JUMP JUMPDEST PUSH1 0x0 DUP1 PUSH1 0x0 DUP1 PUSH1 0x0 PUSH1 0xA0 DUP7 DUP9 SUB SLT ISZERO PUSH2 0x440B JUMPI PUSH1 0x0 DUP1 REVERT JUMPDEST DUP6 CALLDATALOAD PUSH2 0x4416 DUP2 PUSH2 0x4325 JUMP JUMPDEST SWAP5 POP PUSH1 0x20 DUP7 ADD CALLDATALOAD PUSH2 0x4426 DUP2 PUSH2 0x4325 JUMP JUMPDEST SWAP4 POP PUSH1 0x40 DUP7 ADD CALLDATALOAD PUSH2 0x4436 DUP2 PUSH2 0x4325 JUMP JUMPDEST SWAP3 POP PUSH1 0x60 DUP7 ADD CALLDATALOAD PUSH2 0x4446 DUP2 PUSH2 0x4325 JUMP JUMPDEST SWAP2 POP PUSH1 0x80 DUP7 ADD CALLDATALOAD PUSH2 0x4456 DUP2 PUSH2 0x4325 JUMP JUMPDEST DUP1 SWAP2 POP POP SWAP3 SWAP6 POP SWAP3 SWAP6 SWAP1 SWAP4 POP JUMP JUMPDEST PUSH1 0x0 DUP1 PUSH1 0x0 PUSH1 0x60 DUP5 DUP7 SUB SLT ISZERO PUSH2 0x4479 JUMPI PUSH1 0x0 DUP1 REVERT JUMPDEST DUP4 CALLDATALOAD PUSH2 0x4484 DUP2 PUSH2 0x4325 JUMP JUMPDEST SWAP3 POP PUSH1 0x20 DUP5 ADD CALLDATALOAD PUSH2 0x4494 DUP2 PUSH2 0x4325 JUMP JUMPDEST SWAP2 POP PUSH1 0x40 DUP5 ADD CALLDATALOAD PUSH2 0x44A4 DUP2 PUSH2 0x4325 JUMP JUMPDEST DUP1 SWAP2 POP POP SWAP3 POP SWAP3 POP SWAP3 JUMP JUMPDEST DUP1 ISZERO ISZERO DUP2 EQ PUSH2 0x4334 JUMPI PUSH1 0x0 DUP1 REVERT JUMPDEST PUSH1 0x0 DUP1 PUSH1 0x0 DUP1 PUSH1 0x0 PUSH1 0xA0 DUP7 DUP9 SUB SLT ISZERO PUSH2 0x44D5 JUMPI PUSH1 0x0 DUP1 REVERT JUMPDEST DUP6 CALLDATALOAD PUSH2 0x44E0 DUP2 PUSH2 0x4325 JUMP JUMPDEST SWAP5 POP PUSH1 0x20 DUP7 ADD CALLDATALOAD PUSH2 0x44F0 DUP2 PUSH2 0x4325 JUMP JUMPDEST SWAP4 POP PUSH1 0x40 DUP7 ADD CALLDATALOAD PUSH2 0x4500 DUP2 PUSH2 0x4325 JUMP JUMPDEST SWAP3 POP PUSH1 0x60 DUP7 ADD CALLDATALOAD SWAP2 POP PUSH1 0x80 DUP7 ADD CALLDATALOAD PUSH2 0x4456 DUP2 PUSH2 0x44AF JUMP JUMPDEST PUSH1 0x0 DUP1 PUSH1 0x0 DUP1 PUSH1 0x80 DUP6 DUP8 SUB SLT ISZERO PUSH2 0x452D JUMPI PUSH1 0x0 DUP1 REVERT JUMPDEST DUP5 CALLDATALOAD PUSH2 0x4538 DUP2 PUSH2 0x4325 JUMP JUMPDEST SWAP4 POP PUSH1 0x20 DUP6 ADD CALLDATALOAD PUSH2 0x4548 DUP2 PUSH2 0x4325 JUMP JUMPDEST SWAP3 POP PUSH1 0x40 DUP6 ADD CALLDATALOAD PUSH2 0x4558 DUP2 PUSH2 0x4325 JUMP JUMPDEST SWAP2 POP PUSH1 0x60 DUP6 ADD CALLDATALOAD PUSH2 0x4568 DUP2 PUSH2 0x4325 JUMP JUMPDEST SWAP4 SWAP7 SWAP3 SWAP6 POP SWAP1 SWAP4 POP POP JUMP JUMPDEST PUSH1 0x0 DUP1 PUSH1 0x0 PUSH1 0x60 DUP5 DUP7 SUB SLT ISZERO PUSH2 0x4588 JUMPI PUSH1 0x0 DUP1 REVERT JUMPDEST DUP4 CALLDATALOAD PUSH2 0x4593 DUP2 PUSH2 0x4325 JUMP JUMPDEST SWAP3 POP PUSH1 0x20 DUP5 ADD CALLDATALOAD PUSH2 0x45A3 DUP2 PUSH2 0x4325 JUMP JUMPDEST SWAP2 POP PUSH1 0x40 DUP5 ADD CALLDATALOAD PUSH2 0x44A4 DUP2 PUSH2 0x44AF JUMP JUMPDEST PUSH1 0x0 PUSH2 0x220 DUP3 ADD SWAP1 POP DUP10 MLOAD DUP3 MSTORE PUSH1 0x20 DUP11 ADD MLOAD PUSH1 0x20 DUP4 ADD MSTORE PUSH1 0x40 DUP11 ADD MLOAD PUSH1 0x40 DUP4 ADD MSTORE PUSH1 0x60 DUP11 ADD MLOAD PUSH1 0x60 DUP4 ADD MSTORE PUSH2 0xFFFF DUP1 DUP11 AND PUSH1 0x80 DUP5 ADD MSTORE DUP9 PUSH1 0xA0 DUP5 ADD MSTORE DUP1 DUP9 AND PUSH1 0xC0 DUP5 ADD MSTORE POP DUP6 PUSH1 0xE0 DUP4 ADD MSTORE DUP5 MLOAD PUSH2 0x100 DUP4 ADD MSTORE PUSH1 0x20 DUP6 ADD MLOAD PUSH2 0x120 DUP4 ADD MSTORE PUSH1 0x40 DUP6 ADD MLOAD PUSH2 0x140 DUP4 ADD MSTORE PUSH1 0x60 DUP6 ADD MLOAD PUSH2 0x160 DUP4 ADD MSTORE PUSH1 0x80 DUP6 ADD MLOAD PUSH2 0x180 DUP4 ADD MSTORE PUSH1 0xA0 DUP6 ADD MLOAD PUSH2 0x1A0 DUP4 ADD MSTORE PUSH2 0x465B PUSH2 0x1C0 DUP4 ADD DUP6 DUP1 MLOAD PUSH1 0xFF SWAP1 DUP2 AND DUP4 MSTORE PUSH1 0x20 SWAP2 DUP3 ADD MLOAD AND SWAP2 ADD MSTORE JUMP JUMPDEST DUP3 PUSH2 0x200 DUP4 ADD MSTORE SWAP10 SWAP9 POP POP POP POP POP POP POP POP POP JUMP JUMPDEST PUSH1 0x0 PUSH2 0x1E0 DUP3 ADD SWAP1 POP DUP3 MLOAD DUP3 MSTORE PUSH1 0x20 DUP4 ADD MLOAD PUSH1 0x20 DUP4 ADD MSTORE PUSH1 0x40 DUP4 ADD MLOAD PUSH1 0x40 DUP4 ADD MSTORE PUSH1 0x60 DUP4 ADD MLOAD PUSH1 0x60 DUP4 ADD MSTORE PUSH1 0x80 DUP4 ADD MLOAD PUSH2 0x46AF PUSH1 0x80 DUP5 ADD DUP3 PUSH2 0xFFFF AND SWAP1 MSTORE JUMP JUMPDEST POP PUSH1 0xA0 DUP4 DUP2 ADD MLOAD SWAP1 DUP4 ADD MSTORE PUSH1 0xC0 DUP1 DUP5 ADD MLOAD SWAP1 DUP4 ADD MSTORE PUSH1 0xE0 DUP1 DUP5 ADD MLOAD SWAP1 DUP4 ADD MSTORE PUSH2 0x100 DUP1 DUP5 ADD MLOAD SWAP1 DUP4 ADD MSTORE PUSH2 0x120 DUP1 DUP5 ADD MLOAD SWAP1 DUP4 ADD MSTORE PUSH2 0x140 DUP1 DUP5 ADD MLOAD SWAP1 DUP4 ADD MSTORE PUSH2 0x160 DUP1 DUP5 ADD MLOAD SWAP1 DUP4 ADD MSTORE PUSH2 0x180 DUP1 DUP5 ADD MLOAD PUSH1 0xFF DUP2 AND DUP3 DUP6 ADD MSTORE POP POP PUSH2 0x1A0 DUP4 DUP2 ADD MLOAD PUSH1 0xFF DUP2 AND DUP5 DUP4 ADD MSTORE POP POP PUSH2 0x1C0 SWAP3 DUP4 ADD MLOAD SWAP2 SWAP1 SWAP3 ADD MSTORE SWAP1 JUMP JUMPDEST PUSH2 0xA20 DUP2 ADD DUP2 DUP4 PUSH1 0x0 DUP1 JUMPDEST PUSH1 0x9 DUP1 DUP3 LT PUSH2 0x4745 JUMPI POP PUSH2 0x4786 JUMP JUMPDEST DUP4 MLOAD DUP6 DUP5 JUMPDEST DUP4 DUP2 LT ISZERO PUSH2 0x476B JUMPI DUP3 MLOAD PUSH1 0xFF AND DUP3 MSTORE PUSH1 0x20 SWAP3 DUP4 ADD SWAP3 SWAP1 SWAP2 ADD SWAP1 PUSH1 0x1 ADD PUSH2 0x474A JUMP JUMPDEST POP POP POP PUSH2 0x120 SWAP5 SWAP1 SWAP5 ADD SWAP4 POP PUSH1 0x20 SWAP3 SWAP1 SWAP3 ADD SWAP2 PUSH1 0x1 ADD PUSH2 0x4736 JUMP JUMPDEST POP POP POP POP SWAP3 SWAP2 POP POP JUMP JUMPDEST PUSH1 0x0 PUSH1 0x20 DUP3 DUP5 SUB SLT ISZERO PUSH2 0x47A2 JUMPI PUSH1 0x0 DUP1 REVERT JUMPDEST DUP2 CALLDATALOAD PUSH2 0x1432 DUP2 PUSH2 0x4325 JUMP JUMPDEST PUSH1 0x0 DUP1 PUSH1 0x0 PUSH1 0x60 DUP5 DUP7 SUB SLT ISZERO PUSH2 0x47C2 JUMPI PUSH1 0x0 DUP1 REVERT JUMPDEST DUP4 CALLDATALOAD PUSH2 0xFFFF DUP2 AND DUP2 EQ PUSH2 0x4484 JUMPI PUSH1 0x0 DUP1 REVERT JUMPDEST PUSH1 0x0 PUSH1 0x20 DUP3 DUP5 SUB SLT ISZERO PUSH2 0x47E6 JUMPI PUSH1 0x0 DUP1 REVERT JUMPDEST DUP2 MLOAD PUSH2 0x1432 DUP2 PUSH2 0x43C1 JUMP JUMPDEST PUSH32 0x4E487B7100000000000000000000000000000000000000000000000000000000 PUSH1 0x0 MSTORE PUSH1 0x11 PUSH1 0x4 MSTORE PUSH1 0x24 PUSH1 0x0 REVERT JUMPDEST DUP1 DUP3 ADD DUP1 DUP3 GT ISZERO PUSH2 0x141E JUMPI PUSH2 0x141E PUSH2 0x47F1 JUMP JUMPDEST DUP2 DUP2 SUB DUP2 DUP2 GT ISZERO PUSH2 0x141E JUMPI PUSH2 0x141E PUSH2 0x47F1 JUMP JUMPDEST PUSH1 0xFF DUP2 DUP2 AND DUP4 DUP3 AND ADD SWAP1 DUP2 GT ISZERO PUSH2 0x141E JUMPI PUSH2 0x141E PUSH2 0x47F1 JUMP JUMPDEST DUP1 DUP3 MUL DUP2 ISZERO DUP3 DUP3 DIV DUP5 EQ OR PUSH2 0x141E JUMPI PUSH2 0x141E PUSH2 0x47F1 JUMP JUMPDEST PUSH32 0x4E487B7100000000000000000000000000000000000000000000000000000000 PUSH1 0x0 MSTORE PUSH1 0x12 PUSH1 0x4 MSTORE PUSH1 0x24 PUSH1 0x0 REVERT JUMPDEST PUSH1 0x0 DUP3 PUSH2 0x48B4 JUMPI PUSH2 0x48B4 PUSH2 0x4876 JUMP JUMPDEST POP DIV SWAP1 JUMP JUMPDEST PUSH1 0x0 PUSH1 0xFF DUP3 AND PUSH1 0xFF DUP2 SUB PUSH2 0x48CF JUMPI PUSH2 0x48CF PUSH2 0x47F1 JUMP JUMPDEST PUSH1 0x1 ADD SWAP3 SWAP2 POP POP JUMP JUMPDEST PUSH32 0x4E487B7100000000000000000000000000000000000000000000000000000000 PUSH1 0x0 MSTORE PUSH1 0x32 PUSH1 0x4 MSTORE PUSH1 0x24 PUSH1 0x0 REVERT JUMPDEST PUSH2 0xFFFF DUP3 DUP2 AND DUP3 DUP3 AND SUB SWAP1 DUP1 DUP3 GT ISZERO PUSH2 0x4922 JUMPI PUSH2 0x4922 PUSH2 0x47F1 JUMP JUMPDEST POP SWAP3 SWAP2 POP POP JUMP JUMPDEST PUSH1 0x0 PUSH1 0x20 DUP3 DUP5 SUB SLT ISZERO PUSH2 0x493B JUMPI PUSH1 0x0 DUP1 REVERT JUMPDEST DUP2 MLOAD PUSH2 0x1432 DUP2 PUSH2 0x4325 JUMP JUMPDEST PUSH1 0x0 DUP3 PUSH2 0x4955 JUMPI PUSH2 0x4955 PUSH2 0x4876 JUMP JUMPDEST POP MOD SWAP1 JUMP JUMPDEST PUSH2 0xFFFF DUP2 DUP2 AND DUP4 DUP3 AND ADD SWAP1 DUP1 DUP3 GT ISZERO PUSH2 0x4922 JUMPI PUSH2 0x4922 PUSH2 0x47F1 JUMP JUMPDEST PUSH1 0x0 PUSH1 0x20 DUP3 DUP5 SUB SLT ISZERO PUSH2 0x4987 JUMPI PUSH1 0x0 DUP1 REVERT JUMPDEST DUP2 MLOAD PUSH2 0x1432 DUP2 PUSH2 0x44AF JUMP JUMPDEST PUSH1 0x0 PUSH1 0x0 NOT DUP3 SUB PUSH2 0x49A5 JUMPI PUSH2 0x49A5 PUSH2 0x47F1 JUMP JUMPDEST POP PUSH1 0x1 ADD SWAP1 JUMP JUMPDEST PUSH1 0x1 DUP2 DUP2 JUMPDEST DUP1 DUP6 GT ISZERO PUSH2 0x49E7 JUMPI DUP2 PUSH1 0x0 NOT DIV DUP3 GT ISZERO PUSH2 0x49CD JUMPI PUSH2 0x49CD PUSH2 0x47F1 JUMP JUMPDEST DUP1 DUP6 AND ISZERO PUSH2 0x49DA JUMPI SWAP2 DUP2 MUL SWAP2 JUMPDEST SWAP4 DUP5 SHR SWAP4 SWAP1 DUP1 MUL SWAP1 PUSH2 0x49B1 JUMP JUMPDEST POP SWAP3 POP SWAP3 SWAP1 POP JUMP JUMPDEST PUSH1 0x0 DUP3 PUSH2 0x49FE JUMPI POP PUSH1 0x1 PUSH2 0x141E JUMP JUMPDEST DUP2 PUSH2 0x4A0B JUMPI POP PUSH1 0x0 PUSH2 0x141E JUMP JUMPDEST DUP2 PUSH1 0x1 DUP2 EQ PUSH2 0x4A21 JUMPI PUSH1 0x2 DUP2 EQ PUSH2 0x4A2B JUMPI PUSH2 0x4A47 JUMP JUMPDEST PUSH1 0x1 SWAP2 POP POP PUSH2 0x141E JUMP JUMPDEST PUSH1 0xFF DUP5 GT ISZERO PUSH2 0x4A3C JUMPI PUSH2 0x4A3C PUSH2 0x47F1 JUMP JUMPDEST POP POP PUSH1 0x1 DUP3 SHL PUSH2 0x141E JUMP JUMPDEST POP PUSH1 0x20 DUP4 LT PUSH2 0x133 DUP4 LT AND PUSH1 0x4E DUP5 LT PUSH1 0xB DUP5 LT AND OR ISZERO PUSH2 0x4A6A JUMPI POP DUP2 DUP2 EXP PUSH2 0x141E JUMP JUMPDEST PUSH2 0x4A74 DUP4 DUP4 PUSH2 0x49AC JUMP JUMPDEST DUP1 PUSH1 0x0 NOT DIV DUP3 GT ISZERO PUSH2 0x4A88 JUMPI PUSH2 0x4A88 PUSH2 0x47F1 JUMP JUMPDEST MUL SWAP4 SWAP3 POP POP POP JUMP JUMPDEST PUSH1 0x0 PUSH2 0x1432 DUP4 DUP4 PUSH2 0x49EF JUMP INVALID LOG2 PUSH5 0x6970667358 0x22 SLT KECCAK256 PUSH16 0xD1A4F08B59804C0C74FD4F129C84D82B DUP7 0xDB 0xF 0xE4 ADD DUP5 SWAP6 0xB8 0xEB RETURN 0xD6 STATICCALL PUSH26 0xB28A64736F6C6343000812003300000000000000000000000000 "
		},
		"gasEstimates": {
			"creation": {
				"codeDepositCost": "3830800",
				"executionCost": "infinite",
				"totalCost": "infinite"
			},
			"external": {
				"TXCounter()": "2406",
				"_clan()": "2428",
				"adjustTileResources(uint8,uint8,uint8,uint256,bool)": "infinite",
				"baseDefensiveArmorCost()": "8763",
				"baseDefensiveSoldierCost()": "8761",
				"baseDefensiveWeaponCost()": "8741",
				"baseOffensiveArmorCost()": "8740",
				"baseOffensiveSoldierCost()": "8740",
				"baseOffensiveWeaponCost()": "8786",
				"buildingCosts(uint8)": "8993",
				"calcTurn(uint8,uint8)": "infinite",
				"createSoldier(uint8,uint8,uint8,uint256)": "infinite",
				"demolishBuilding(uint8,uint8,uint8,uint8)": "infinite",
				"extraFeeRecipient()": "2448",
				"getAllBuildings(uint8,uint8)": "infinite",
				"getTileData(uint8,uint8)": "infinite",
				"getTotalTurnsUsedByTile(uint8,uint8)": "infinite",
				"getTowerCount(uint8,uint8)": "infinite",
				"getTurn(uint8,uint8)": "infinite",
				"hasClanHallAt(uint8,uint8)": "infinite",
				"hasClanHallAtCoord(uint8,uint8)": "infinite",
				"hasMarketAt(uint8,uint8)": "infinite",
				"hasMarketAtCoord(uint8,uint8)": "infinite",
				"interiorMapSize()": "271",
				"interiorMaps(uint8,uint8,uint8,uint8)": "infinite",
				"lopToken()": "2406",
				"marketplaceAddress()": "2404",
				"owner()": "2449",
				"placeBuilding(uint8,uint8,uint8,uint8,uint8)": "infinite",
				"pointsByCoords(uint8,uint8)": "infinite",
				"produceArmor(uint8,uint8,uint8,uint256)": "infinite",
				"produceWeapon(uint8,uint8,uint8,uint256)": "infinite",
				"recalculatePointsAfterAttack(uint8,uint8)": "infinite",
				"resourceMessage(uint8,uint8)": "infinite",
				"rewardUnit()": "2363",
				"rewardsStart()": "2384",
				"setClanAddress(address)": "26780",
				"setExtraFeeReceiver(address)": "26781",
				"setMarketAddress(address)": "26800",
				"setResourceMessageFlag(uint8,uint8,bool)": "infinite",
				"tileMapPhaser()": "2449",
				"tiles(uint8,uint8)": "infinite",
				"totalTurnsUsedByTile(uint8,uint8)": "infinite",
				"turnFeeWei()": "2386",
				"turnsPerLevel()": "306",
				"upgradeTech(uint8,uint8,uint8)": "infinite",
				"useTurns(uint16,uint8,uint8)": "infinite"
			},
			"internal": {
				"_currentYearIndex()": "6516",
				"_distributeNativeFee(uint256,address)": "infinite",
				"_initializeBuildingCosts()": "infinite",
				"_recalculatePoints(struct TheLand.TileData storage pointer,uint8,uint8)": "infinite",
				"_rewardMultiplier()": "infinite",
				"_setResourceMessageFlag(uint8,uint8,bool)": "infinite",
				"_top3Owners()": "infinite",
				"applyProductionCost(uint8,uint8,struct TheLand.Resources memory,uint256,uint256)": "infinite",
				"countBuildings(uint8,uint8,uint8)": "infinite"
			}
		},
		"methodIdentifiers": {
			"TXCounter()": "de8ca33a",
			"_clan()": "7cca26d9",
			"adjustTileResources(uint8,uint8,uint8,uint256,bool)": "3e5f2857",
			"baseDefensiveArmorCost()": "8c87fa4f",
			"baseDefensiveSoldierCost()": "f9c64454",
			"baseDefensiveWeaponCost()": "537e8f49",
			"baseOffensiveArmorCost()": "620a9a99",
			"baseOffensiveSoldierCost()": "a596b645",
			"baseOffensiveWeaponCost()": "800bfa27",
			"buildingCosts(uint8)": "c1712d57",
			"calcTurn(uint8,uint8)": "dd4b466b",
			"createSoldier(uint8,uint8,uint8,uint256)": "f89d7571",
			"demolishBuilding(uint8,uint8,uint8,uint8)": "60b76b52",
			"extraFeeRecipient()": "7502bad4",
			"getAllBuildings(uint8,uint8)": "be9a263c",
			"getTileData(uint8,uint8)": "bd638378",
			"getTotalTurnsUsedByTile(uint8,uint8)": "41ede44f",
			"getTowerCount(uint8,uint8)": "2a490ae8",
			"getTurn(uint8,uint8)": "f3245254",
			"hasClanHallAt(uint8,uint8)": "33b95ee0",
			"hasClanHallAtCoord(uint8,uint8)": "1acc55ea",
			"hasMarketAt(uint8,uint8)": "02cd77e6",
			"hasMarketAtCoord(uint8,uint8)": "4855735c",
			"interiorMapSize()": "decc1bbf",
			"interiorMaps(uint8,uint8,uint8,uint8)": "a2f9cc5b",
			"lopToken()": "0d67f59e",
			"marketplaceAddress()": "daa17f49",
			"owner()": "8da5cb5b",
			"placeBuilding(uint8,uint8,uint8,uint8,uint8)": "0ee22f31",
			"pointsByCoords(uint8,uint8)": "2ef78865",
			"produceArmor(uint8,uint8,uint8,uint256)": "07722bc2",
			"produceWeapon(uint8,uint8,uint8,uint256)": "4274b164",
			"recalculatePointsAfterAttack(uint8,uint8)": "7659bc60",
			"resourceMessage(uint8,uint8)": "ccd5e491",
			"rewardUnit()": "428967da",
			"rewardsStart()": "65af3a2f",
			"setClanAddress(address)": "5d219d5f",
			"setExtraFeeReceiver(address)": "0df7b41a",
			"setMarketAddress(address)": "fae92612",
			"setResourceMessageFlag(uint8,uint8,bool)": "9a4a2084",
			"tileMapPhaser()": "4f264b03",
			"tiles(uint8,uint8)": "9b562df2",
			"totalTurnsUsedByTile(uint8,uint8)": "887aca72",
			"turnFeeWei()": "21b74ea7",
			"turnsPerLevel()": "bdc7da8e",
			"upgradeTech(uint8,uint8,uint8)": "351662e4",
			"useTurns(uint16,uint8,uint8)": "e9dd6583"
		}
	},
	"abi": [
		{
			"inputs": [
				{
					"internalType": "address",
					"name": "_tileMapPhaser",
					"type": "address"
				},
				{
					"internalType": "address",
					"name": "_lopToken",
					"type": "address"
				}
			],
			"stateMutability": "nonpayable",
			"type": "constructor"
		},
		{
			"anonymous": false,
			"inputs": [
				{
					"indexed": true,
					"internalType": "address",
					"name": "user",
					"type": "address"
				},
				{
					"indexed": false,
					"internalType": "uint256",
					"name": "turnsUsed",
					"type": "uint256"
				},
				{
					"indexed": false,
					"internalType": "uint8",
					"name": "x",
					"type": "uint8"
				},
				{
					"indexed": false,
					"internalType": "uint8",
					"name": "y",
					"type": "uint8"
				}
			],
			"name": "TurnsUsed",
			"type": "event"
		},
		{
			"inputs": [],
			"name": "TXCounter",
			"outputs": [
				{
					"internalType": "uint256",
					"name": "",
					"type": "uint256"
				}
			],
			"stateMutability": "view",
			"type": "function"
		},
		{
			"inputs": [],
			"name": "_clan",
			"outputs": [
				{
					"internalType": "contract IClan",
					"name": "",
					"type": "address"
				}
			],
			"stateMutability": "view",
			"type": "function"
		},
		{
			"inputs": [
				{
					"internalType": "uint8",
					"name": "x",
					"type": "uint8"
				},
				{
					"internalType": "uint8",
					"name": "y",
					"type": "uint8"
				},
				{
					"internalType": "uint8",
					"name": "resourceType",
					"type": "uint8"
				},
				{
					"internalType": "uint256",
					"name": "amount",
					"type": "uint256"
				},
				{
					"internalType": "bool",
					"name": "isAdding",
					"type": "bool"
				}
			],
			"name": "adjustTileResources",
			"outputs": [],
			"stateMutability": "nonpayable",
			"type": "function"
		},
		{
			"inputs": [],
			"name": "baseDefensiveArmorCost",
			"outputs": [
				{
					"internalType": "uint256",
					"name": "food",
					"type": "uint256"
				},
				{
					"internalType": "uint256",
					"name": "wood",
					"type": "uint256"
				},
				{
					"internalType": "uint256",
					"name": "stone",
					"type": "uint256"
				},
				{
					"internalType": "uint256",
					"name": "iron",
					"type": "uint256"
				}
			],
			"stateMutability": "view",
			"type": "function"
		},
		{
			"inputs": [],
			"name": "baseDefensiveSoldierCost",
			"outputs": [
				{
					"internalType": "uint256",
					"name": "food",
					"type": "uint256"
				},
				{
					"internalType": "uint256",
					"name": "wood",
					"type": "uint256"
				},
				{
					"internalType": "uint256",
					"name": "stone",
					"type": "uint256"
				},
				{
					"internalType": "uint256",
					"name": "iron",
					"type": "uint256"
				}
			],
			"stateMutability": "view",
			"type": "function"
		},
		{
			"inputs": [],
			"name": "baseDefensiveWeaponCost",
			"outputs": [
				{
					"internalType": "uint256",
					"name": "food",
					"type": "uint256"
				},
				{
					"internalType": "uint256",
					"name": "wood",
					"type": "uint256"
				},
				{
					"internalType": "uint256",
					"name": "stone",
					"type": "uint256"
				},
				{
					"internalType": "uint256",
					"name": "iron",
					"type": "uint256"
				}
			],
			"stateMutability": "view",
			"type": "function"
		},
		{
			"inputs": [],
			"name": "baseOffensiveArmorCost",
			"outputs": [
				{
					"internalType": "uint256",
					"name": "food",
					"type": "uint256"
				},
				{
					"internalType": "uint256",
					"name": "wood",
					"type": "uint256"
				},
				{
					"internalType": "uint256",
					"name": "stone",
					"type": "uint256"
				},
				{
					"internalType": "uint256",
					"name": "iron",
					"type": "uint256"
				}
			],
			"stateMutability": "view",
			"type": "function"
		},
		{
			"inputs": [],
			"name": "baseOffensiveSoldierCost",
			"outputs": [
				{
					"internalType": "uint256",
					"name": "food",
					"type": "uint256"
				},
				{
					"internalType": "uint256",
					"name": "wood",
					"type": "uint256"
				},
				{
					"internalType": "uint256",
					"name": "stone",
					"type": "uint256"
				},
				{
					"internalType": "uint256",
					"name": "iron",
					"type": "uint256"
				}
			],
			"stateMutability": "view",
			"type": "function"
		},
		{
			"inputs": [],
			"name": "baseOffensiveWeaponCost",
			"outputs": [
				{
					"internalType": "uint256",
					"name": "food",
					"type": "uint256"
				},
				{
					"internalType": "uint256",
					"name": "wood",
					"type": "uint256"
				},
				{
					"internalType": "uint256",
					"name": "stone",
					"type": "uint256"
				},
				{
					"internalType": "uint256",
					"name": "iron",
					"type": "uint256"
				}
			],
			"stateMutability": "view",
			"type": "function"
		},
		{
			"inputs": [
				{
					"internalType": "uint8",
					"name": "",
					"type": "uint8"
				}
			],
			"name": "buildingCosts",
			"outputs": [
				{
					"internalType": "uint256",
					"name": "food",
					"type": "uint256"
				},
				{
					"internalType": "uint256",
					"name": "wood",
					"type": "uint256"
				},
				{
					"internalType": "uint256",
					"name": "stone",
					"type": "uint256"
				},
				{
					"internalType": "uint256",
					"name": "iron",
					"type": "uint256"
				}
			],
			"stateMutability": "view",
			"type": "function"
		},
		{
			"inputs": [
				{
					"internalType": "uint8",
					"name": "mainX",
					"type": "uint8"
				},
				{
					"internalType": "uint8",
					"name": "mainY",
					"type": "uint8"
				}
			],
			"name": "calcTurn",
			"outputs": [],
			"stateMutability": "nonpayable",
			"type": "function"
		},
		{
			"inputs": [
				{
					"internalType": "uint8",
					"name": "mainX",
					"type": "uint8"
				},
				{
					"internalType": "uint8",
					"name": "mainY",
					"type": "uint8"
				},
				{
					"internalType": "uint8",
					"name": "soldierType",
					"type": "uint8"
				},
				{
					"internalType": "uint256",
					"name": "quantity",
					"type": "uint256"
				}
			],
			"name": "createSoldier",
			"outputs": [],
			"stateMutability": "nonpayable",
			"type": "function"
		},
		{
			"inputs": [
				{
					"internalType": "uint8",
					"name": "mainX",
					"type": "uint8"
				},
				{
					"internalType": "uint8",
					"name": "mainY",
					"type": "uint8"
				},
				{
					"internalType": "uint8",
					"name": "interiorX",
					"type": "uint8"
				},
				{
					"internalType": "uint8",
					"name": "interiorY",
					"type": "uint8"
				}
			],
			"name": "demolishBuilding",
			"outputs": [],
			"stateMutability": "nonpayable",
			"type": "function"
		},
		{
			"inputs": [],
			"name": "extraFeeRecipient",
			"outputs": [
				{
					"internalType": "address",
					"name": "",
					"type": "address"
				}
			],
			"stateMutability": "view",
			"type": "function"
		},
		{
			"inputs": [
				{
					"internalType": "uint8",
					"name": "mainX",
					"type": "uint8"
				},
				{
					"internalType": "uint8",
					"name": "mainY",
					"type": "uint8"
				}
			],
			"name": "getAllBuildings",
			"outputs": [
				{
					"internalType": "uint8[9][9]",
					"name": "",
					"type": "uint8[9][9]"
				}
			],
			"stateMutability": "view",
			"type": "function"
		},
		{
			"inputs": [
				{
					"internalType": "uint8",
					"name": "x",
					"type": "uint8"
				},
				{
					"internalType": "uint8",
					"name": "y",
					"type": "uint8"
				}
			],
			"name": "getTileData",
			"outputs": [
				{
					"components": [
						{
							"internalType": "uint256",
							"name": "food",
							"type": "uint256"
						},
						{
							"internalType": "uint256",
							"name": "wood",
							"type": "uint256"
						},
						{
							"internalType": "uint256",
							"name": "stone",
							"type": "uint256"
						},
						{
							"internalType": "uint256",
							"name": "iron",
							"type": "uint256"
						},
						{
							"internalType": "uint16",
							"name": "level",
							"type": "uint16"
						},
						{
							"internalType": "uint256",
							"name": "accumulatedTurns",
							"type": "uint256"
						},
						{
							"internalType": "uint256",
							"name": "offensiveArmor",
							"type": "uint256"
						},
						{
							"internalType": "uint256",
							"name": "defensiveArmor",
							"type": "uint256"
						},
						{
							"internalType": "uint256",
							"name": "offensiveWeapon",
							"type": "uint256"
						},
						{
							"internalType": "uint256",
							"name": "defensiveWeapon",
							"type": "uint256"
						},
						{
							"internalType": "uint256",
							"name": "offensiveSoldier",
							"type": "uint256"
						},
						{
							"internalType": "uint256",
							"name": "defensiveSoldier",
							"type": "uint256"
						},
						{
							"internalType": "uint8",
							"name": "offensiveTech",
							"type": "uint8"
						},
						{
							"internalType": "uint8",
							"name": "defensiveTech",
							"type": "uint8"
						},
						{
							"internalType": "uint256",
							"name": "points",
							"type": "uint256"
						}
					],
					"internalType": "struct TheLand.TileDataResponse",
					"name": "",
					"type": "tuple"
				}
			],
			"stateMutability": "view",
			"type": "function"
		},
		{
			"inputs": [
				{
					"internalType": "uint8",
					"name": "x",
					"type": "uint8"
				},
				{
					"internalType": "uint8",
					"name": "y",
					"type": "uint8"
				}
			],
			"name": "getTotalTurnsUsedByTile",
			"outputs": [
				{
					"internalType": "uint256",
					"name": "",
					"type": "uint256"
				}
			],
			"stateMutability": "view",
			"type": "function"
		},
		{
			"inputs": [
				{
					"internalType": "uint8",
					"name": "mainX",
					"type": "uint8"
				},
				{
					"internalType": "uint8",
					"name": "mainY",
					"type": "uint8"
				}
			],
			"name": "getTowerCount",
			"outputs": [
				{
					"internalType": "uint256",
					"name": "",
					"type": "uint256"
				}
			],
			"stateMutability": "view",
			"type": "function"
		},
		{
			"inputs": [
				{
					"internalType": "uint8",
					"name": "mainX",
					"type": "uint8"
				},
				{
					"internalType": "uint8",
					"name": "mainY",
					"type": "uint8"
				}
			],
			"name": "getTurn",
			"outputs": [
				{
					"internalType": "uint256",
					"name": "",
					"type": "uint256"
				}
			],
			"stateMutability": "view",
			"type": "function"
		},
		{
			"inputs": [
				{
					"internalType": "uint8",
					"name": "",
					"type": "uint8"
				},
				{
					"internalType": "uint8",
					"name": "",
					"type": "uint8"
				}
			],
			"name": "hasClanHallAt",
			"outputs": [
				{
					"internalType": "bool",
					"name": "",
					"type": "bool"
				}
			],
			"stateMutability": "view",
			"type": "function"
		},
		{
			"inputs": [
				{
					"internalType": "uint8",
					"name": "x",
					"type": "uint8"
				},
				{
					"internalType": "uint8",
					"name": "y",
					"type": "uint8"
				}
			],
			"name": "hasClanHallAtCoord",
			"outputs": [
				{
					"internalType": "bool",
					"name": "",
					"type": "bool"
				}
			],
			"stateMutability": "view",
			"type": "function"
		},
		{
			"inputs": [
				{
					"internalType": "uint8",
					"name": "",
					"type": "uint8"
				},
				{
					"internalType": "uint8",
					"name": "",
					"type": "uint8"
				}
			],
			"name": "hasMarketAt",
			"outputs": [
				{
					"internalType": "bool",
					"name": "",
					"type": "bool"
				}
			],
			"stateMutability": "view",
			"type": "function"
		},
		{
			"inputs": [
				{
					"internalType": "uint8",
					"name": "x",
					"type": "uint8"
				},
				{
					"internalType": "uint8",
					"name": "y",
					"type": "uint8"
				}
			],
			"name": "hasMarketAtCoord",
			"outputs": [
				{
					"internalType": "bool",
					"name": "",
					"type": "bool"
				}
			],
			"stateMutability": "view",
			"type": "function"
		},
		{
			"inputs": [],
			"name": "interiorMapSize",
			"outputs": [
				{
					"internalType": "uint8",
					"name": "",
					"type": "uint8"
				}
			],
			"stateMutability": "view",
			"type": "function"
		},
		{
			"inputs": [
				{
					"internalType": "uint8",
					"name": "",
					"type": "uint8"
				},
				{
					"internalType": "uint8",
					"name": "",
					"type": "uint8"
				},
				{
					"internalType": "uint8",
					"name": "",
					"type": "uint8"
				},
				{
					"internalType": "uint8",
					"name": "",
					"type": "uint8"
				}
			],
			"name": "interiorMaps",
			"outputs": [
				{
					"internalType": "uint8",
					"name": "",
					"type": "uint8"
				}
			],
			"stateMutability": "view",
			"type": "function"
		},
		{
			"inputs": [],
			"name": "lopToken",
			"outputs": [
				{
					"internalType": "contract IHarmLop",
					"name": "",
					"type": "address"
				}
			],
			"stateMutability": "view",
			"type": "function"
		},
		{
			"inputs": [],
			"name": "marketplaceAddress",
			"outputs": [
				{
					"internalType": "address",
					"name": "",
					"type": "address"
				}
			],
			"stateMutability": "view",
			"type": "function"
		},
		{
			"inputs": [],
			"name": "owner",
			"outputs": [
				{
					"internalType": "address",
					"name": "",
					"type": "address"
				}
			],
			"stateMutability": "view",
			"type": "function"
		},
		{
			"inputs": [
				{
					"internalType": "uint8",
					"name": "mainX",
					"type": "uint8"
				},
				{
					"internalType": "uint8",
					"name": "mainY",
					"type": "uint8"
				},
				{
					"internalType": "uint8",
					"name": "interiorX",
					"type": "uint8"
				},
				{
					"internalType": "uint8",
					"name": "interiorY",
					"type": "uint8"
				},
				{
					"internalType": "uint8",
					"name": "buildingType",
					"type": "uint8"
				}
			],
			"name": "placeBuilding",
			"outputs": [],
			"stateMutability": "nonpayable",
			"type": "function"
		},
		{
			"inputs": [
				{
					"internalType": "uint8",
					"name": "",
					"type": "uint8"
				},
				{
					"internalType": "uint8",
					"name": "",
					"type": "uint8"
				}
			],
			"name": "pointsByCoords",
			"outputs": [
				{
					"internalType": "uint256",
					"name": "",
					"type": "uint256"
				}
			],
			"stateMutability": "view",
			"type": "function"
		},
		{
			"inputs": [
				{
					"internalType": "uint8",
					"name": "mainX",
					"type": "uint8"
				},
				{
					"internalType": "uint8",
					"name": "mainY",
					"type": "uint8"
				},
				{
					"internalType": "uint8",
					"name": "armorType",
					"type": "uint8"
				},
				{
					"internalType": "uint256",
					"name": "quantity",
					"type": "uint256"
				}
			],
			"name": "produceArmor",
			"outputs": [],
			"stateMutability": "nonpayable",
			"type": "function"
		},
		{
			"inputs": [
				{
					"internalType": "uint8",
					"name": "mainX",
					"type": "uint8"
				},
				{
					"internalType": "uint8",
					"name": "mainY",
					"type": "uint8"
				},
				{
					"internalType": "uint8",
					"name": "weaponType",
					"type": "uint8"
				},
				{
					"internalType": "uint256",
					"name": "quantity",
					"type": "uint256"
				}
			],
			"name": "produceWeapon",
			"outputs": [],
			"stateMutability": "nonpayable",
			"type": "function"
		},
		{
			"inputs": [
				{
					"internalType": "uint8",
					"name": "x",
					"type": "uint8"
				},
				{
					"internalType": "uint8",
					"name": "y",
					"type": "uint8"
				}
			],
			"name": "recalculatePointsAfterAttack",
			"outputs": [],
			"stateMutability": "nonpayable",
			"type": "function"
		},
		{
			"inputs": [
				{
					"internalType": "uint8",
					"name": "",
					"type": "uint8"
				},
				{
					"internalType": "uint8",
					"name": "",
					"type": "uint8"
				}
			],
			"name": "resourceMessage",
			"outputs": [
				{
					"internalType": "bool",
					"name": "",
					"type": "bool"
				}
			],
			"stateMutability": "view",
			"type": "function"
		},
		{
			"inputs": [],
			"name": "rewardUnit",
			"outputs": [
				{
					"internalType": "uint256",
					"name": "",
					"type": "uint256"
				}
			],
			"stateMutability": "view",
			"type": "function"
		},
		{
			"inputs": [],
			"name": "rewardsStart",
			"outputs": [
				{
					"internalType": "uint256",
					"name": "",
					"type": "uint256"
				}
			],
			"stateMutability": "view",
			"type": "function"
		},
		{
			"inputs": [
				{
					"internalType": "address",
					"name": "_clanAddress",
					"type": "address"
				}
			],
			"name": "setClanAddress",
			"outputs": [],
			"stateMutability": "nonpayable",
			"type": "function"
		},
		{
			"inputs": [
				{
					"internalType": "address",
					"name": "_address",
					"type": "address"
				}
			],
			"name": "setExtraFeeReceiver",
			"outputs": [],
			"stateMutability": "nonpayable",
			"type": "function"
		},
		{
			"inputs": [
				{
					"internalType": "address",
					"name": "_market",
					"type": "address"
				}
			],
			"name": "setMarketAddress",
			"outputs": [],
			"stateMutability": "nonpayable",
			"type": "function"
		},
		{
			"inputs": [
				{
					"internalType": "uint8",
					"name": "x",
					"type": "uint8"
				},
				{
					"internalType": "uint8",
					"name": "y",
					"type": "uint8"
				},
				{
					"internalType": "bool",
					"name": "value",
					"type": "bool"
				}
			],
			"name": "setResourceMessageFlag",
			"outputs": [],
			"stateMutability": "nonpayable",
			"type": "function"
		},
		{
			"inputs": [],
			"name": "tileMapPhaser",
			"outputs": [
				{
					"internalType": "contract ITileMapPhaser",
					"name": "",
					"type": "address"
				}
			],
			"stateMutability": "view",
			"type": "function"
		},
		{
			"inputs": [
				{
					"internalType": "uint8",
					"name": "",
					"type": "uint8"
				},
				{
					"internalType": "uint8",
					"name": "",
					"type": "uint8"
				}
			],
			"name": "tiles",
			"outputs": [
				{
					"components": [
						{
							"internalType": "uint256",
							"name": "food",
							"type": "uint256"
						},
						{
							"internalType": "uint256",
							"name": "wood",
							"type": "uint256"
						},
						{
							"internalType": "uint256",
							"name": "stone",
							"type": "uint256"
						},
						{
							"internalType": "uint256",
							"name": "iron",
							"type": "uint256"
						}
					],
					"internalType": "struct TheLand.Resources",
					"name": "resources",
					"type": "tuple"
				},
				{
					"internalType": "uint16",
					"name": "level",
					"type": "uint16"
				},
				{
					"internalType": "uint256",
					"name": "accumulatedTurns",
					"type": "uint256"
				},
				{
					"internalType": "uint16",
					"name": "turns",
					"type": "uint16"
				},
				{
					"internalType": "uint256",
					"name": "start",
					"type": "uint256"
				},
				{
					"components": [
						{
							"internalType": "uint256",
							"name": "offensiveArmor",
							"type": "uint256"
						},
						{
							"internalType": "uint256",
							"name": "defensiveArmor",
							"type": "uint256"
						},
						{
							"internalType": "uint256",
							"name": "offensiveWeapon",
							"type": "uint256"
						},
						{
							"internalType": "uint256",
							"name": "defensiveWeapon",
							"type": "uint256"
						},
						{
							"internalType": "uint256",
							"name": "offensiveSoldier",
							"type": "uint256"
						},
						{
							"internalType": "uint256",
							"name": "defensiveSoldier",
							"type": "uint256"
						}
					],
					"internalType": "struct TheLand.Military",
					"name": "military",
					"type": "tuple"
				},
				{
					"components": [
						{
							"internalType": "uint8",
							"name": "offensiveTech",
							"type": "uint8"
						},
						{
							"internalType": "uint8",
							"name": "defensiveTech",
							"type": "uint8"
						}
					],
					"internalType": "struct TheLand.TechLevels",
					"name": "techLevels",
					"type": "tuple"
				},
				{
					"internalType": "uint256",
					"name": "points",
					"type": "uint256"
				}
			],
			"stateMutability": "view",
			"type": "function"
		},
		{
			"inputs": [
				{
					"internalType": "uint8",
					"name": "",
					"type": "uint8"
				},
				{
					"internalType": "uint8",
					"name": "",
					"type": "uint8"
				}
			],
			"name": "totalTurnsUsedByTile",
			"outputs": [
				{
					"internalType": "uint256",
					"name": "",
					"type": "uint256"
				}
			],
			"stateMutability": "view",
			"type": "function"
		},
		{
			"inputs": [],
			"name": "turnFeeWei",
			"outputs": [
				{
					"internalType": "uint256",
					"name": "",
					"type": "uint256"
				}
			],
			"stateMutability": "view",
			"type": "function"
		},
		{
			"inputs": [],
			"name": "turnsPerLevel",
			"outputs": [
				{
					"internalType": "uint256",
					"name": "",
					"type": "uint256"
				}
			],
			"stateMutability": "view",
			"type": "function"
		},
		{
			"inputs": [
				{
					"internalType": "uint8",
					"name": "x",
					"type": "uint8"
				},
				{
					"internalType": "uint8",
					"name": "y",
					"type": "uint8"
				},
				{
					"internalType": "uint8",
					"name": "techType",
					"type": "uint8"
				}
			],
			"name": "upgradeTech",
			"outputs": [],
			"stateMutability": "nonpayable",
			"type": "function"
		},
		{
			"inputs": [
				{
					"internalType": "uint16",
					"name": "turns",
					"type": "uint16"
				},
				{
					"internalType": "uint8",
					"name": "x",
					"type": "uint8"
				},
				{
					"internalType": "uint8",
					"name": "y",
					"type": "uint8"
				}
			],
			"name": "useTurns",
			"outputs": [],
			"stateMutability": "payable",
			"type": "function"
		}
	]
}