{
	"data": {
		"bytecode": {
			"linkReferences": {},
			"object": "6080604052604051806102800160405280604051806102800160405280600460ff168152602001600460ff168152602001600460ff168152602001600460ff168152602001600460ff168152602001600460ff168152602001600360ff168152602001600360ff168152602001600360ff168152602001600360ff168152602001600360ff168152602001600360ff168152602001600260ff168152602001600260ff168152602001600160ff168152602001600260ff168152602001600260ff168152602001600260ff168152602001600260ff168152602001600260ff168152508152602001604051806102800160405280600460ff168152602001600460ff168152602001600460ff168152602001600460ff168152602001600460ff168152602001600460ff168152602001600460ff168152602001600360ff168152602001600360ff168152602001600360ff168152602001600360ff168152602001600360ff168152602001600260ff168152602001600160ff168152602001600160ff168152602001600260ff168152602001600260ff168152602001600260ff168152602001600260ff168152602001600260ff168152508152602001604051806102800160405280600460ff168152602001600460ff168152602001600460ff168152602001600460ff168152602001600460ff168152602001600460ff168152602001600460ff168152602001600460ff168152602001600360ff168152602001600360ff168152602001600360ff168152602001600360ff168152602001600260ff168152602001600260ff168152602001600160ff168152602001600160ff168152602001600260ff168152602001600260ff168152602001600260ff168152602001600260ff168152508152602001604051806102800160405280600460ff168152602001600460ff168152602001600460ff168152602001600460ff168152602001600460ff168152602001600460ff168152602001600460ff168152602001600460ff168152602001600360ff168152602001600360ff168152602001600360ff168152602001600360ff168152602001600360ff168152602001600160ff168152602001600160ff168152602001600160ff168152602001600260ff168152602001600260ff168152602001600260ff168152602001600260ff168152508152602001604051806102800160405280600360ff168152602001600360ff168152602001600360ff168152602001600360ff168152602001600360ff168152602001600360ff168152602001600360ff168152602001600360ff168152602001600360ff168152602001600360ff168152602001600360ff168152602001600360ff168152602001600160ff168152602001600160ff168152602001600160ff168152602001600160ff168152602001600260ff168152602001600260ff168152602001600260ff168152602001600260ff168152508152602001604051806102800160405280600360ff168152602001600360ff168152602001600360ff168152602001600360ff168152602001600360ff168152602001600360ff168152602001600360ff168152602001600360ff168152602001600360ff168152602001600360ff168152602001600360ff168152602001600360ff168152602001600160ff168152602001600160ff168152602001600160ff168152602001600160ff168152602001600260ff168152602001600260ff168152602001600260ff168152602001600260ff168152508152602001604051806102800160405280600360ff168152602001600360ff168152602001600360ff168152602001600360ff168152602001600360ff168152602001600360ff168152602001600360ff168152602001600360ff168152602001600360ff168152602001600360ff168152602001600360ff168152602001600360ff168152602001600160ff168152602001600160ff168152602001600160ff168152602001600160ff168152602001600160ff168152602001600160ff168152602001600160ff168152602001600160ff168152508152602001604051806102800160405280600360ff168152602001600360ff168152602001600360ff168152602001600160ff168152602001600360ff168152602001600360ff168152602001600360ff168152602001600360ff168152602001600360ff168152602001600360ff168152602001600360ff168152602001600160ff168152602001600260ff168152602001600260ff168152602001600260ff168152602001600260ff168152602001600160ff168152602001600160ff168152602001600160ff168152602001600160ff168152508152602001604051806102800160405280600360ff168152602001600360ff168152602001600360ff168152602001600160ff168152602001600160ff168152602001600260ff168152602001600260ff168152602001600260ff168152602001600260ff168152602001600260ff168152602001600260ff168152602001600160ff168152602001600260ff168152602001600260ff168152602001600260ff168152602001600260ff168152602001600260ff168152602001600260ff168152602001600260ff168152602001600160ff168152508152602001604051806102800160405280600160ff168152602001600260ff168152602001600260ff168152602001600160ff168152602001600260ff168152602001600260ff168152602001600260ff168152602001600260ff168152602001600260ff168152602001600260ff168152602001600260ff168152602001600160ff168152602001600260ff168152602001600260ff168152602001600260ff168152602001600260ff168152602001600260ff168152602001600260ff168152602001600260ff168152602001600160ff168152508152602001604051806102800160405280600260ff168152602001600260ff168152602001600160ff168152602001600160ff168152602001600260ff168152602001600260ff168152602001600260ff168152602001600260ff168152602001600260ff168152602001600260ff168152602001600160ff168152602001600160ff168152602001600260ff168152602001600260ff168152602001600260ff168152602001600260ff168152602001600260ff168152602001600260ff168152602001600160ff168152602001600160ff168152508152602001604051806102800160405280600360ff168152602001600360ff168152602001600360ff168152602001600260ff168152602001600160ff168152602001600260ff168152602001600260ff168152602001600260ff168152602001600260ff168152602001600260ff168152602001600160ff168152602001600260ff168152602001600260ff168152602001600260ff168152602001600260ff168152602001600160ff168152602001600160ff168152602001600160ff168152602001600160ff168152602001600160ff168152508152602001604051806102800160405280600360ff168152602001600360ff168152602001600360ff168152602001600360ff168152602001600160ff168152602001600160ff168152602001600260ff168152602001600260ff168152602001600260ff168152602001600260ff168152602001600160ff168152602001600160ff168152602001600260ff168152602001600260ff168152602001600260ff168152602001600160ff168152602001600160ff168152602001600160ff168152602001600160ff168152602001600160ff168152508152602001604051806102800160405280600360ff168152602001600360ff168152602001600360ff168152602001600360ff168152602001600360ff168152602001600160ff168152602001600260ff168152602001600260ff168152602001600260ff168152602001600260ff168152602001600160ff168152602001600160ff168152602001600160ff168152602001600260ff168152602001600260ff168152602001600260ff168152602001600260ff168152602001600160ff168152602001600160ff168152602001600160ff168152508152602001604051806102800160405280600360ff168152602001600360ff168152602001600360ff168152602001600360ff168152602001600360ff168152602001600260ff168152602001600260ff168152602001600260ff168152602001600360ff168152602001600360ff168152602001600260ff168152602001600260ff168152602001600160ff168152602001600260ff168152602001600260ff168152602001600260ff168152602001600260ff168152602001600160ff168152602001600160ff168152602001600160ff168152508152602001604051806102800160405280600260ff168152602001600260ff168152602001600260ff168152602001600160ff168152602001600160ff168152602001600160ff168152602001600160ff168152602001600160ff168152602001600360ff168152602001600360ff168152602001600360ff168152602001600360ff168152602001600160ff168152602001600160ff168152602001600260ff168152602001600260ff168152602001600260ff168152602001600160ff168152602001600160ff168152602001600160ff168152508152602001604051806102800160405280600260ff168152602001600260ff168152602001600260ff168152602001600260ff168152602001600260ff168152602001600260ff168152602001600160ff168152602001600160ff168152602001600360ff168152602001600360ff168152602001600360ff168152602001600360ff168152602001600160ff168152602001600160ff168152602001600160ff168152602001600160ff168152602001600360ff168152602001600360ff168152602001600260ff168152602001600260ff168152508152602001604051806102800160405280600260ff168152602001600260ff168152602001600260ff168152602001600260ff168152602001600260ff168152602001600260ff168152602001600260ff168152602001600160ff168152602001600360ff168152602001600360ff168152602001600360ff168152602001600360ff168152602001600160ff168152602001600160ff168152602001600160ff168152602001600160ff168152602001600360ff168152602001600360ff168152602001600260ff168152602001600260ff168152508152602001604051806102800160405280600260ff168152602001600260ff168152602001600260ff168152602001600260ff168152602001600260ff168152602001600260ff168152602001600260ff168152602001600160ff168152602001600160ff168152602001600260ff168152602001600260ff168152602001600160ff168152602001600160ff168152602001600260ff168152602001600260ff168152602001600160ff168152602001600360ff168152602001600360ff168152602001600260ff168152602001600260ff168152508152602001604051806102800160405280600260ff168152602001600260ff168152602001600260ff168152602001600260ff168152602001600260ff168152602001600260ff168152602001600260ff168152602001600160ff168152602001600160ff168152602001600160ff168152602001600160ff168152602001600160ff168152602001600160ff168152602001600160ff168152602001600160ff168152602001600360ff168152602001600360ff168152602001600360ff168152602001600260ff168152602001600260ff168152508152506003906014620010ec92919062001167565b50348015620010fa57600080fd5b506040516200330738038062003307833981810160405281019062001120919062001315565b806000806101000a81548173ffffffffffffffffffffffffffffffffffffffff021916908373ffffffffffffffffffffffffffffffffffffffff1602179055505062001347565b8260148101928215620011a9579160200282015b82811115620011a85782518290601462001197929190620011bc565b50916020019190600101906200117b565b5b509050620011b891906200125d565b5090565b826014601f016020900481019282156200124a5791602002820160005b838211156200121957835183826101000a81548160ff021916908360ff1602179055509260200192600101602081600001049283019260010302620011d9565b8015620012485782816101000a81549060ff021916905560010160208160000104928301926001030262001219565b505b50905062001259919062001285565b5090565b5b80821115620012815760008181620012779190620012a4565b506001016200125e565b5090565b5b80821115620012a057600081600090555060010162001286565b5090565b5060009055565b600080fd5b600073ffffffffffffffffffffffffffffffffffffffff82169050919050565b6000620012dd82620012b0565b9050919050565b620012ef81620012d0565b8114620012fb57600080fd5b50565b6000815190506200130f81620012e4565b92915050565b6000602082840312156200132e576200132d620012ab565b5b60006200133e84828501620012fe565b91505092915050565b611fb080620013576000396000f3fe608060405234801561001057600080fd5b50600436106100ea5760003560e01c8063bdc7da8e1161008c578063dd4b466b11610066578063dd4b466b1461027f578063decc1bbf1461029b578063e9dd6583146102b9578063f3245254146102d5576100ea565b8063bdc7da8e14610213578063be9a263c14610231578063cc06c35914610261576100ea565b8063a2f9cc5b116100c8578063a2f9cc5b14610160578063afed933a14610190578063bc9955a2146101ae578063bd638378146101de576100ea565b80630ee22f31146100ef5780634f264b031461010b5780639b562df214610129575b600080fd5b61010960048036038101906101049190611499565b610305565b005b6101136105a6565b6040516101209190611593565b60405180910390f35b610143600480360381019061013e91906115ae565b6105ca565b604051610157989796959493929190611624565b60405180910390f35b61017a600480360381019061017591906116a2565b61063b565b6040516101879190611718565b60405180910390f35b610198610684565b6040516101a59190611718565b60405180910390f35b6101c860048036038101906101c3919061175f565b610689565b6040516101d59190611718565b60405180910390f35b6101f860048036038101906101f391906115ae565b6106c5565b60405161020a9695949392919061179f565b60405180910390f35b61021b610745565b6040516102289190611800565b60405180910390f35b61024b600480360381019061024691906115ae565b61074b565b6040516102589190611963565b60405180910390f35b61026961096b565b604051610276919061197f565b60405180910390f35b610299600480360381019061029491906115ae565b610971565b005b6102a3610b81565b6040516102b09190611718565b60405180910390f35b6102d360048036038101906102ce91906119c6565b610b86565b005b6102ef60048036038101906102ea91906115ae565b6111ab565b6040516102fc9190611800565b60405180910390f35b84843373ffffffffffffffffffffffffffffffffffffffff1660008054906101000a900473ffffffffffffffffffffffffffffffffffffffff1673ffffffffffffffffffffffffffffffffffffffff16638a88895384846040518363ffffffff1660e01b8152600401610379929190611a19565b602060405180830381865afa158015610396573d6000803e3d6000fd5b505050506040513d601f19601f820116820180604052508101906103ba9190611a80565b73ffffffffffffffffffffffffffffffffffffffff1614610410576040517f08c379a000000000000000000000000000000000000000000000000000000000815260040161040790611b0a565b60405180910390fd5b8484600960ff168260ff1610801561042e5750600960ff168160ff16105b61046d576040517f08c379a000000000000000000000000000000000000000000000000000000000815260040161046490611b9c565b60405180910390fd5b6000600260008b60ff1660ff16815260200190815260200160002060008a60ff1660ff16815260200190815260200160002060008960ff1660ff16815260200190815260200160002060008860ff1660ff16815260200190815260200160002060009054906101000a900460ff16905060008160ff1614610523576040517f08c379a000000000000000000000000000000000000000000000000000000000815260040161051a90611c2e565b60405180910390fd5b85600260008c60ff1660ff16815260200190815260200160002060008b60ff1660ff16815260200190815260200160002060008a60ff1660ff16815260200190815260200160002060008960ff1660ff16815260200190815260200160002060006101000a81548160ff021916908360ff16021790555050505050505050505050565b60008054906101000a900473ffffffffffffffffffffffffffffffffffffffff1681565b6001602052816000526040600020602052806000526040600020600091509150508060000154908060010154908060020154908060030154908060040160009054906101000a900461ffff16908060050154908060060160009054906101000a900461ffff16908060070154905088565b600260205283600052604060002060205282600052604060002060205281600052604060002060205280600052604060002060009350935050509054906101000a900460ff1681565b601481565b6003826014811061069957600080fd5b0181601481106106a857600080fd5b60209182820401919006915091509054906101000a900460ff1681565b6000806000806000806000600160008a60ff1660ff16815260200190815260200160002060008960ff1660ff168152602001908152602001600020905080600001548160010154826002015483600301548460040160009054906101000a900461ffff168560050154965096509650965096509650509295509295509295565b6103e881565b61075361140a565b82823373ffffffffffffffffffffffffffffffffffffffff1660008054906101000a900473ffffffffffffffffffffffffffffffffffffffff1673ffffffffffffffffffffffffffffffffffffffff16638a88895384846040518363ffffffff1660e01b81526004016107c7929190611a19565b602060405180830381865afa1580156107e4573d6000803e3d6000fd5b505050506040513d601f19601f820116820180604052508101906108089190611a80565b73ffffffffffffffffffffffffffffffffffffffff161461085e576040517f08c379a000000000000000000000000000000000000000000000000000000000815260040161085590611b0a565b60405180910390fd5b61086661140a565b60005b600960ff168160ff16101561095e5760005b600960ff168160ff16101561094a57600260008960ff1660ff16815260200190815260200160002060008860ff1660ff16815260200190815260200160002060008360ff1660ff16815260200190815260200160002060008260ff1660ff16815260200190815260200160002060009054906101000a900460ff16838360ff166009811061090c5761090b611c4e565b5b60200201518260ff166009811061092657610925611c4e565b5b602002019060ff16908160ff1681525050808061094290611cac565b91505061087b565b50808061095690611cac565b915050610869565b5080935050505092915050565b6101f481565b81813373ffffffffffffffffffffffffffffffffffffffff1660008054906101000a900473ffffffffffffffffffffffffffffffffffffffff1673ffffffffffffffffffffffffffffffffffffffff16638a88895384846040518363ffffffff1660e01b81526004016109e5929190611a19565b602060405180830381865afa158015610a02573d6000803e3d6000fd5b505050506040513d601f19601f82011682018060405250810190610a269190611a80565b73ffffffffffffffffffffffffffffffffffffffff1614610a7c576040517f08c379a0000000000000000000000000000000000000000000000000000000008152600401610a7390611b0a565b60405180910390fd5b600060018060008760ff1660ff16815260200190815260200160002060008660ff1660ff1681526020019081526020016000206007015442610abe9190611cd5565b610ac89190611d38565b600160008760ff1660ff16815260200190815260200160002060008660ff1660ff16815260200190815260200160002060060160009054906101000a900461ffff1661ffff16610b189190611d69565b90506102588111610b295780610b2d565b6102585b600160008760ff1660ff16815260200190815260200160002060008660ff1660ff16815260200190815260200160002060060160006101000a81548161ffff021916908361ffff1602179055505050505050565b600981565b81813373ffffffffffffffffffffffffffffffffffffffff1660008054906101000a900473ffffffffffffffffffffffffffffffffffffffff1673ffffffffffffffffffffffffffffffffffffffff16638a88895384846040518363ffffffff1660e01b8152600401610bfa929190611a19565b602060405180830381865afa158015610c17573d6000803e3d6000fd5b505050506040513d601f19601f82011682018060405250810190610c3b9190611a80565b73ffffffffffffffffffffffffffffffffffffffff1614610c91576040517f08c379a0000000000000000000000000000000000000000000000000000000008152600401610c8890611b0a565b60405180910390fd5b60008561ffff1611610cd8576040517f08c379a0000000000000000000000000000000000000000000000000000000008152600401610ccf90611de9565b60405180910390fd5b610ce28484610971565b8461ffff16600160008660ff1660ff16815260200190815260200160002060008560ff1660ff16815260200190815260200160002060060160009054906101000a900461ffff1661ffff161015610d6e576040517f08c379a0000000000000000000000000000000000000000000000000000000008152600401610d6590611e55565b60405180910390fd5b600160008560ff1660ff16815260200190815260200160002060008460ff1660ff168152602001908152602001600020600501546103e8610daf9190611cd5565b8561ffff161115610dfe57600160008560ff1660ff16815260200190815260200160002060008460ff1660ff168152602001908152602001600020600501546103e8610dfb9190611cd5565b94505b84600160008660ff1660ff16815260200190815260200160002060008560ff1660ff16815260200190815260200160002060060160009054906101000a900461ffff16610e4b9190611e75565b600160008660ff1660ff16815260200190815260200160002060008560ff1660ff16815260200190815260200160002060060160006101000a81548161ffff021916908361ffff16021790555042600160008660ff1660ff16815260200190815260200160002060008560ff1660ff16815260200190815260200160002060070181905550600060038560ff1660148110610ee957610ee8611c4e565b5b018460ff1660148110610eff57610efe611c4e565b5b602091828204019190069054906101000a900460ff1690506000600160008760ff1660ff16815260200190815260200160002060008660ff1660ff168152602001908152602001600020905060018260ff1603610f7a578661ffff16816000016000828254610f6e9190611d69565b92505081905550611006565b60028260ff1603610fa9578661ffff16816001016000828254610f9d9190611d69565b92505081905550611005565b60038260ff1603610fd8578661ffff16816002016000828254610fcc9190611d69565b92505081905550611004565b60048260ff1603611003578661ffff16816003016000828254610ffb9190611d69565b925050819055505b5b5b5b8661ffff1681600001600082825461101e9190611d69565b925050819055508661ffff1681600101600082825461103d9190611d69565b925050819055508661ffff1681600201600082825461105c9190611d69565b925050819055508661ffff1681600301600082825461107b9190611d69565b925050819055508661ffff1681600501600082825461109a9190611d69565b9250508190555060006103e882600501546110b59190611d38565b90506103e88260050160008282546110cd9190611eab565b925050819055506000818360040160009054906101000a900461ffff166110f49190611edc565b90506101f461ffff168161ffff16111561112e576101f48360040160006101000a81548161ffff021916908361ffff16021790555061114e565b808360040160006101000a81548161ffff021916908361ffff1602179055505b3373ffffffffffffffffffffffffffffffffffffffff167fbb5b4f7847476e1912e2b57d030b0e491d0d72b2ef256cceea9daa41f40f5d188a8a8a60405161119893929190611f43565b60405180910390a2505050505050505050565b600082823373ffffffffffffffffffffffffffffffffffffffff1660008054906101000a900473ffffffffffffffffffffffffffffffffffffffff1673ffffffffffffffffffffffffffffffffffffffff16638a88895384846040518363ffffffff1660e01b8152600401611221929190611a19565b602060405180830381865afa15801561123e573d6000803e3d6000fd5b505050506040513d601f19601f820116820180604052508101906112629190611a80565b73ffffffffffffffffffffffffffffffffffffffff16146112b8576040517f08c379a00000000000000000000000000000000000000000000000000000000081526004016112af90611b0a565b60405180910390fd5b61025860018060008860ff1660ff16815260200190815260200160002060008760ff1660ff16815260200190815260200160002060070154426112fb9190611cd5565b6113059190611d38565b600160008860ff1660ff16815260200190815260200160002060008760ff1660ff16815260200190815260200160002060060160009054906101000a900461ffff1661ffff166113559190611d69565b1115611365576102589250611402565b60018060008760ff1660ff16815260200190815260200160002060008660ff1660ff16815260200190815260200160002060070154426113a59190611cd5565b6113af9190611d38565b600160008760ff1660ff16815260200190815260200160002060008660ff1660ff16815260200190815260200160002060060160009054906101000a900461ffff1661ffff166113ff9190611d69565b92505b505092915050565b6040518061012001604052806009905b611422611438565b81526020019060019003908161141a5790505090565b604051806101200160405280600990602082028036833780820191505090505090565b600080fd5b600060ff82169050919050565b61147681611460565b811461148157600080fd5b50565b6000813590506114938161146d565b92915050565b600080600080600060a086880312156114b5576114b461145b565b5b60006114c388828901611484565b95505060206114d488828901611484565b94505060406114e588828901611484565b93505060606114f688828901611484565b925050608061150788828901611484565b9150509295509295909350565b600073ffffffffffffffffffffffffffffffffffffffff82169050919050565b6000819050919050565b600061155961155461154f84611514565b611534565b611514565b9050919050565b600061156b8261153e565b9050919050565b600061157d82611560565b9050919050565b61158d81611572565b82525050565b60006020820190506115a86000830184611584565b92915050565b600080604083850312156115c5576115c461145b565b5b60006115d385828601611484565b92505060206115e485828601611484565b9150509250929050565b6000819050919050565b611601816115ee565b82525050565b600061ffff82169050919050565b61161e81611607565b82525050565b60006101008201905061163a600083018b6115f8565b611647602083018a6115f8565b61165460408301896115f8565b61166160608301886115f8565b61166e6080830187611615565b61167b60a08301866115f8565b61168860c0830185611615565b61169560e08301846115f8565b9998505050505050505050565b600080600080608085870312156116bc576116bb61145b565b5b60006116ca87828801611484565b94505060206116db87828801611484565b93505060406116ec87828801611484565b92505060606116fd87828801611484565b91505092959194509250565b61171281611460565b82525050565b600060208201905061172d6000830184611709565b92915050565b61173c816115ee565b811461174757600080fd5b50565b60008135905061175981611733565b92915050565b600080604083850312156117765761177561145b565b5b60006117848582860161174a565b92505060206117958582860161174a565b9150509250929050565b600060c0820190506117b460008301896115f8565b6117c160208301886115f8565b6117ce60408301876115f8565b6117db60608301866115f8565b6117e86080830185611615565b6117f560a08301846115f8565b979650505050505050565b600060208201905061181560008301846115f8565b92915050565b600060099050919050565b600081905092915050565b6000819050919050565b600060099050919050565b600081905092915050565b6000819050919050565b61186481611460565b82525050565b6000611876838361185b565b60208301905092915050565b6000602082019050919050565b6118988161183b565b6118a28184611846565b92506118ad82611851565b8060005b838110156118de5781516118c5878261186a565b96506118d083611882565b9250506001810190506118b1565b505050505050565b60006118f2838361188f565b6101208301905092915050565b6000602082019050919050565b6119158161181b565b61191f8184611826565b925061192a82611831565b8060005b8381101561195b57815161194287826118e6565b965061194d836118ff565b92505060018101905061192e565b505050505050565b6000610a2082019050611979600083018461190c565b92915050565b60006020820190506119946000830184611615565b92915050565b6119a381611607565b81146119ae57600080fd5b50565b6000813590506119c08161199a565b92915050565b6000806000606084860312156119df576119de61145b565b5b60006119ed868287016119b1565b93505060206119fe86828701611484565b9250506040611a0f86828701611484565b9150509250925092565b6000604082019050611a2e6000830185611709565b611a3b6020830184611709565b9392505050565b6000611a4d82611514565b9050919050565b611a5d81611a42565b8114611a6857600080fd5b50565b600081519050611a7a81611a54565b92915050565b600060208284031215611a9657611a9561145b565b5b6000611aa484828501611a6b565b91505092915050565b600082825260208201905092915050565b7f596f7520646f206e6f74206f776e20746869732074696c650000000000000000600082015250565b6000611af4601883611aad565b9150611aff82611abe565b602082019050919050565b60006020820190508181036000830152611b2381611ae7565b9050919050565b7f496e76616c696420696e746572696f722074696c6520636f6f7264696e61746560008201527f7300000000000000000000000000000000000000000000000000000000000000602082015250565b6000611b86602183611aad565b9150611b9182611b2a565b604082019050919050565b60006020820190508181036000830152611bb581611b79565b9050919050565b7f41206275696c64696e6720616c726561647920657869737473206f6e2074686960008201527f732074696c650000000000000000000000000000000000000000000000000000602082015250565b6000611c18602683611aad565b9150611c2382611bbc565b604082019050919050565b60006020820190508181036000830152611c4781611c0b565b9050919050565b7f4e487b7100000000000000000000000000000000000000000000000000000000600052603260045260246000fd5b7f4e487b7100000000000000000000000000000000000000000000000000000000600052601160045260246000fd5b6000611cb782611460565b915060ff8203611cca57611cc9611c7d565b5b600182019050919050565b6000611ce0826115ee565b9150611ceb836115ee565b9250828203905081811115611d0357611d02611c7d565b5b92915050565b7f4e487b7100000000000000000000000000000000000000000000000000000000600052601260045260246000fd5b6000611d43826115ee565b9150611d4e836115ee565b925082611d5e57611d5d611d09565b5b828204905092915050565b6000611d74826115ee565b9150611d7f836115ee565b9250828201905080821115611d9757611d96611c7d565b5b92915050565b7f5475726e73206d7573742062652067726561746572207468616e203000000000600082015250565b6000611dd3601c83611aad565b9150611dde82611d9d565b602082019050919050565b60006020820190508181036000830152611e0281611dc6565b9050919050565b7f5475726e58000000000000000000000000000000000000000000000000000000600082015250565b6000611e3f600583611aad565b9150611e4a82611e09565b602082019050919050565b60006020820190508181036000830152611e6e81611e32565b9050919050565b6000611e8082611607565b9150611e8b83611607565b9250828203905061ffff811115611ea557611ea4611c7d565b5b92915050565b6000611eb6826115ee565b9150611ec1836115ee565b925082611ed157611ed0611d09565b5b828206905092915050565b6000611ee782611607565b9150611ef283611607565b9250828201905061ffff811115611f0c57611f0b611c7d565b5b92915050565b6000611f2d611f28611f2384611607565b611534565b6115ee565b9050919050565b611f3d81611f12565b82525050565b6000606082019050611f586000830186611f34565b611f656020830185611709565b611f726040830184611709565b94935050505056fea26469706673582212202448dbcfa4a3801a0f3fda2a525ff32998610483ff18cf90ed1acac0f623321264736f6c63430008120033",
			"opcodes": "PUSH1 0x80 PUSH1 0x40 MSTORE PUSH1 0x40 MLOAD DUP1 PUSH2 0x280 ADD PUSH1 0x40 MSTORE DUP1 PUSH1 0x40 MLOAD DUP1 PUSH2 0x280 ADD PUSH1 0x40 MSTORE DUP1 PUSH1 0x4 PUSH1 0xFF AND DUP2 MSTORE PUSH1 0x20 ADD PUSH1 0x4 PUSH1 0xFF AND DUP2 MSTORE PUSH1 0x20 ADD PUSH1 0x4 PUSH1 0xFF AND DUP2 MSTORE PUSH1 0x20 ADD PUSH1 0x4 PUSH1 0xFF AND DUP2 MSTORE PUSH1 0x20 ADD PUSH1 0x4 PUSH1 0xFF AND DUP2 MSTORE PUSH1 0x20 ADD PUSH1 0x4 PUSH1 0xFF AND DUP2 MSTORE PUSH1 0x20 ADD PUSH1 0x3 PUSH1 0xFF AND DUP2 MSTORE PUSH1 0x20 ADD PUSH1 0x3 PUSH1 0xFF AND DUP2 MSTORE PUSH1 0x20 ADD PUSH1 0x3 PUSH1 0xFF AND DUP2 MSTORE PUSH1 0x20 ADD PUSH1 0x3 PUSH1 0xFF AND DUP2 MSTORE PUSH1 0x20 ADD PUSH1 0x3 PUSH1 0xFF AND DUP2 MSTORE PUSH1 0x20 ADD PUSH1 0x3 PUSH1 0xFF AND DUP2 MSTORE PUSH1 0x20 ADD PUSH1 0x2 PUSH1 0xFF AND DUP2 MSTORE PUSH1 0x20 ADD PUSH1 0x2 PUSH1 0xFF AND DUP2 MSTORE PUSH1 0x20 ADD PUSH1 0x1 PUSH1 0xFF AND DUP2 MSTORE PUSH1 0x20 ADD PUSH1 0x2 PUSH1 0xFF AND DUP2 MSTORE PUSH1 0x20 ADD PUSH1 0x2 PUSH1 0xFF AND DUP2 MSTORE PUSH1 0x20 ADD PUSH1 0x2 PUSH1 0xFF AND DUP2 MSTORE PUSH1 0x20 ADD PUSH1 0x2 PUSH1 0xFF AND DUP2 MSTORE PUSH1 0x20 ADD PUSH1 0x2 PUSH1 0xFF AND DUP2 MSTORE POP DUP2 MSTORE PUSH1 0x20 ADD PUSH1 0x40 MLOAD DUP1 PUSH2 0x280 ADD PUSH1 0x40 MSTORE DUP1 PUSH1 0x4 PUSH1 0xFF AND DUP2 MSTORE PUSH1 0x20 ADD PUSH1 0x4 PUSH1 0xFF AND DUP2 MSTORE PUSH1 0x20 ADD PUSH1 0x4 PUSH1 0xFF AND DUP2 MSTORE PUSH1 0x20 ADD PUSH1 0x4 PUSH1 0xFF AND DUP2 MSTORE PUSH1 0x20 ADD PUSH1 0x4 PUSH1 0xFF AND DUP2 MSTORE PUSH1 0x20 ADD PUSH1 0x4 PUSH1 0xFF AND DUP2 MSTORE PUSH1 0x20 ADD PUSH1 0x4 PUSH1 0xFF AND DUP2 MSTORE PUSH1 0x20 ADD PUSH1 0x3 PUSH1 0xFF AND DUP2 MSTORE PUSH1 0x20 ADD PUSH1 0x3 PUSH1 0xFF AND DUP2 MSTORE PUSH1 0x20 ADD PUSH1 0x3 PUSH1 0xFF AND DUP2 MSTORE PUSH1 0x20 ADD PUSH1 0x3 PUSH1 0xFF AND DUP2 MSTORE PUSH1 0x20 ADD PUSH1 0x3 PUSH1 0xFF AND DUP2 MSTORE PUSH1 0x20 ADD PUSH1 0x2 PUSH1 0xFF AND DUP2 MSTORE PUSH1 0x20 ADD PUSH1 0x1 PUSH1 0xFF AND DUP2 MSTORE PUSH1 0x20 ADD PUSH1 0x1 PUSH1 0xFF AND DUP2 MSTORE PUSH1 0x20 ADD PUSH1 0x2 PUSH1 0xFF AND DUP2 MSTORE PUSH1 0x20 ADD PUSH1 0x2 PUSH1 0xFF AND DUP2 MSTORE PUSH1 0x20 ADD PUSH1 0x2 PUSH1 0xFF AND DUP2 MSTORE PUSH1 0x20 ADD PUSH1 0x2 PUSH1 0xFF AND DUP2 MSTORE PUSH1 0x20 ADD PUSH1 0x2 PUSH1 0xFF AND DUP2 MSTORE POP DUP2 MSTORE PUSH1 0x20 ADD PUSH1 0x40 MLOAD DUP1 PUSH2 0x280 ADD PUSH1 0x40 MSTORE DUP1 PUSH1 0x4 PUSH1 0xFF AND DUP2 MSTORE PUSH1 0x20 ADD PUSH1 0x4 PUSH1 0xFF AND DUP2 MSTORE PUSH1 0x20 ADD PUSH1 0x4 PUSH1 0xFF AND DUP2 MSTORE PUSH1 0x20 ADD PUSH1 0x4 PUSH1 0xFF AND DUP2 MSTORE PUSH1 0x20 ADD PUSH1 0x4 PUSH1 0xFF AND DUP2 MSTORE PUSH1 0x20 ADD PUSH1 0x4 PUSH1 0xFF AND DUP2 MSTORE PUSH1 0x20 ADD PUSH1 0x4 PUSH1 0xFF AND DUP2 MSTORE PUSH1 0x20 ADD PUSH1 0x4 PUSH1 0xFF AND DUP2 MSTORE PUSH1 0x20 ADD PUSH1 0x3 PUSH1 0xFF AND DUP2 MSTORE PUSH1 0x20 ADD PUSH1 0x3 PUSH1 0xFF AND DUP2 MSTORE PUSH1 0x20 ADD PUSH1 0x3 PUSH1 0xFF AND DUP2 MSTORE PUSH1 0x20 ADD PUSH1 0x3 PUSH1 0xFF AND DUP2 MSTORE PUSH1 0x20 ADD PUSH1 0x2 PUSH1 0xFF AND DUP2 MSTORE PUSH1 0x20 ADD PUSH1 0x2 PUSH1 0xFF AND DUP2 MSTORE PUSH1 0x20 ADD PUSH1 0x1 PUSH1 0xFF AND DUP2 MSTORE PUSH1 0x20 ADD PUSH1 0x1 PUSH1 0xFF AND DUP2 MSTORE PUSH1 0x20 ADD PUSH1 0x2 PUSH1 0xFF AND DUP2 MSTORE PUSH1 0x20 ADD PUSH1 0x2 PUSH1 0xFF AND DUP2 MSTORE PUSH1 0x20 ADD PUSH1 0x2 PUSH1 0xFF AND DUP2 MSTORE PUSH1 0x20 ADD PUSH1 0x2 PUSH1 0xFF AND DUP2 MSTORE POP DUP2 MSTORE PUSH1 0x20 ADD PUSH1 0x40 MLOAD DUP1 PUSH2 0x280 ADD PUSH1 0x40 MSTORE DUP1 PUSH1 0x4 PUSH1 0xFF AND DUP2 MSTORE PUSH1 0x20 ADD PUSH1 0x4 PUSH1 0xFF AND DUP2 MSTORE PUSH1 0x20 ADD PUSH1 0x4 PUSH1 0xFF AND DUP2 MSTORE PUSH1 0x20 ADD PUSH1 0x4 PUSH1 0xFF AND DUP2 MSTORE PUSH1 0x20 ADD PUSH1 0x4 PUSH1 0xFF AND DUP2 MSTORE PUSH1 0x20 ADD PUSH1 0x4 PUSH1 0xFF AND DUP2 MSTORE PUSH1 0x20 ADD PUSH1 0x4 PUSH1 0xFF AND DUP2 MSTORE PUSH1 0x20 ADD PUSH1 0x4 PUSH1 0xFF AND DUP2 MSTORE PUSH1 0x20 ADD PUSH1 0x3 PUSH1 0xFF AND DUP2 MSTORE PUSH1 0x20 ADD PUSH1 0x3 PUSH1 0xFF AND DUP2 MSTORE PUSH1 0x20 ADD PUSH1 0x3 PUSH1 0xFF AND DUP2 MSTORE PUSH1 0x20 ADD PUSH1 0x3 PUSH1 0xFF AND DUP2 MSTORE PUSH1 0x20 ADD PUSH1 0x3 PUSH1 0xFF AND DUP2 MSTORE PUSH1 0x20 ADD PUSH1 0x1 PUSH1 0xFF AND DUP2 MSTORE PUSH1 0x20 ADD PUSH1 0x1 PUSH1 0xFF AND DUP2 MSTORE PUSH1 0x20 ADD PUSH1 0x1 PUSH1 0xFF AND DUP2 MSTORE PUSH1 0x20 ADD PUSH1 0x2 PUSH1 0xFF AND DUP2 MSTORE PUSH1 0x20 ADD PUSH1 0x2 PUSH1 0xFF AND DUP2 MSTORE PUSH1 0x20 ADD PUSH1 0x2 PUSH1 0xFF AND DUP2 MSTORE PUSH1 0x20 ADD PUSH1 0x2 PUSH1 0xFF AND DUP2 MSTORE POP DUP2 MSTORE PUSH1 0x20 ADD PUSH1 0x40 MLOAD DUP1 PUSH2 0x280 ADD PUSH1 0x40 MSTORE DUP1 PUSH1 0x3 PUSH1 0xFF AND DUP2 MSTORE PUSH1 0x20 ADD PUSH1 0x3 PUSH1 0xFF AND DUP2 MSTORE PUSH1 0x20 ADD PUSH1 0x3 PUSH1 0xFF AND DUP2 MSTORE PUSH1 0x20 ADD PUSH1 0x3 PUSH1 0xFF AND DUP2 MSTORE PUSH1 0x20 ADD PUSH1 0x3 PUSH1 0xFF AND DUP2 MSTORE PUSH1 0x20 ADD PUSH1 0x3 PUSH1 0xFF AND DUP2 MSTORE PUSH1 0x20 ADD PUSH1 0x3 PUSH1 0xFF AND DUP2 MSTORE PUSH1 0x20 ADD PUSH1 0x3 PUSH1 0xFF AND DUP2 MSTORE PUSH1 0x20 ADD PUSH1 0x3 PUSH1 0xFF AND DUP2 MSTORE PUSH1 0x20 ADD PUSH1 0x3 PUSH1 0xFF AND DUP2 MSTORE PUSH1 0x20 ADD PUSH1 0x3 PUSH1 0xFF AND DUP2 MSTORE PUSH1 0x20 ADD PUSH1 0x3 PUSH1 0xFF AND DUP2 MSTORE PUSH1 0x20 ADD PUSH1 0x1 PUSH1 0xFF AND DUP2 MSTORE PUSH1 0x20 ADD PUSH1 0x1 PUSH1 0xFF AND DUP2 MSTORE PUSH1 0x20 ADD PUSH1 0x1 PUSH1 0xFF AND DUP2 MSTORE PUSH1 0x20 ADD PUSH1 0x1 PUSH1 0xFF AND DUP2 MSTORE PUSH1 0x20 ADD PUSH1 0x2 PUSH1 0xFF AND DUP2 MSTORE PUSH1 0x20 ADD PUSH1 0x2 PUSH1 0xFF AND DUP2 MSTORE PUSH1 0x20 ADD PUSH1 0x2 PUSH1 0xFF AND DUP2 MSTORE PUSH1 0x20 ADD PUSH1 0x2 PUSH1 0xFF AND DUP2 MSTORE POP DUP2 MSTORE PUSH1 0x20 ADD PUSH1 0x40 MLOAD DUP1 PUSH2 0x280 ADD PUSH1 0x40 MSTORE DUP1 PUSH1 0x3 PUSH1 0xFF AND DUP2 MSTORE PUSH1 0x20 ADD PUSH1 0x3 PUSH1 0xFF AND DUP2 MSTORE PUSH1 0x20 ADD PUSH1 0x3 PUSH1 0xFF AND DUP2 MSTORE PUSH1 0x20 ADD PUSH1 0x3 PUSH1 0xFF AND DUP2 MSTORE PUSH1 0x20 ADD PUSH1 0x3 PUSH1 0xFF AND DUP2 MSTORE PUSH1 0x20 ADD PUSH1 0x3 PUSH1 0xFF AND DUP2 MSTORE PUSH1 0x20 ADD PUSH1 0x3 PUSH1 0xFF AND DUP2 MSTORE PUSH1 0x20 ADD PUSH1 0x3 PUSH1 0xFF AND DUP2 MSTORE PUSH1 0x20 ADD PUSH1 0x3 PUSH1 0xFF AND DUP2 MSTORE PUSH1 0x20 ADD PUSH1 0x3 PUSH1 0xFF AND DUP2 MSTORE PUSH1 0x20 ADD PUSH1 0x3 PUSH1 0xFF AND DUP2 MSTORE PUSH1 0x20 ADD PUSH1 0x3 PUSH1 0xFF AND DUP2 MSTORE PUSH1 0x20 ADD PUSH1 0x1 PUSH1 0xFF AND DUP2 MSTORE PUSH1 0x20 ADD PUSH1 0x1 PUSH1 0xFF AND DUP2 MSTORE PUSH1 0x20 ADD PUSH1 0x1 PUSH1 0xFF AND DUP2 MSTORE PUSH1 0x20 ADD PUSH1 0x1 PUSH1 0xFF AND DUP2 MSTORE PUSH1 0x20 ADD PUSH1 0x2 PUSH1 0xFF AND DUP2 MSTORE PUSH1 0x20 ADD PUSH1 0x2 PUSH1 0xFF AND DUP2 MSTORE PUSH1 0x20 ADD PUSH1 0x2 PUSH1 0xFF AND DUP2 MSTORE PUSH1 0x20 ADD PUSH1 0x2 PUSH1 0xFF AND DUP2 MSTORE POP DUP2 MSTORE PUSH1 0x20 ADD PUSH1 0x40 MLOAD DUP1 PUSH2 0x280 ADD PUSH1 0x40 MSTORE DUP1 PUSH1 0x3 PUSH1 0xFF AND DUP2 MSTORE PUSH1 0x20 ADD PUSH1 0x3 PUSH1 0xFF AND DUP2 MSTORE PUSH1 0x20 ADD PUSH1 0x3 PUSH1 0xFF AND DUP2 MSTORE PUSH1 0x20 ADD PUSH1 0x3 PUSH1 0xFF AND DUP2 MSTORE PUSH1 0x20 ADD PUSH1 0x3 PUSH1 0xFF AND DUP2 MSTORE PUSH1 0x20 ADD PUSH1 0x3 PUSH1 0xFF AND DUP2 MSTORE PUSH1 0x20 ADD PUSH1 0x3 PUSH1 0xFF AND DUP2 MSTORE PUSH1 0x20 ADD PUSH1 0x3 PUSH1 0xFF AND DUP2 MSTORE PUSH1 0x20 ADD PUSH1 0x3 PUSH1 0xFF AND DUP2 MSTORE PUSH1 0x20 ADD PUSH1 0x3 PUSH1 0xFF AND DUP2 MSTORE PUSH1 0x20 ADD PUSH1 0x3 PUSH1 0xFF AND DUP2 MSTORE PUSH1 0x20 ADD PUSH1 0x3 PUSH1 0xFF AND DUP2 MSTORE PUSH1 0x20 ADD PUSH1 0x1 PUSH1 0xFF AND DUP2 MSTORE PUSH1 0x20 ADD PUSH1 0x1 PUSH1 0xFF AND DUP2 MSTORE PUSH1 0x20 ADD PUSH1 0x1 PUSH1 0xFF AND DUP2 MSTORE PUSH1 0x20 ADD PUSH1 0x1 PUSH1 0xFF AND DUP2 MSTORE PUSH1 0x20 ADD PUSH1 0x1 PUSH1 0xFF AND DUP2 MSTORE PUSH1 0x20 ADD PUSH1 0x1 PUSH1 0xFF AND DUP2 MSTORE PUSH1 0x20 ADD PUSH1 0x1 PUSH1 0xFF AND DUP2 MSTORE PUSH1 0x20 ADD PUSH1 0x1 PUSH1 0xFF AND DUP2 MSTORE POP DUP2 MSTORE PUSH1 0x20 ADD PUSH1 0x40 MLOAD DUP1 PUSH2 0x280 ADD PUSH1 0x40 MSTORE DUP1 PUSH1 0x3 PUSH1 0xFF AND DUP2 MSTORE PUSH1 0x20 ADD PUSH1 0x3 PUSH1 0xFF AND DUP2 MSTORE PUSH1 0x20 ADD PUSH1 0x3 PUSH1 0xFF AND DUP2 MSTORE PUSH1 0x20 ADD PUSH1 0x1 PUSH1 0xFF AND DUP2 MSTORE PUSH1 0x20 ADD PUSH1 0x3 PUSH1 0xFF AND DUP2 MSTORE PUSH1 0x20 ADD PUSH1 0x3 PUSH1 0xFF AND DUP2 MSTORE PUSH1 0x20 ADD PUSH1 0x3 PUSH1 0xFF AND DUP2 MSTORE PUSH1 0x20 ADD PUSH1 0x3 PUSH1 0xFF AND DUP2 MSTORE PUSH1 0x20 ADD PUSH1 0x3 PUSH1 0xFF AND DUP2 MSTORE PUSH1 0x20 ADD PUSH1 0x3 PUSH1 0xFF AND DUP2 MSTORE PUSH1 0x20 ADD PUSH1 0x3 PUSH1 0xFF AND DUP2 MSTORE PUSH1 0x20 ADD PUSH1 0x1 PUSH1 0xFF AND DUP2 MSTORE PUSH1 0x20 ADD PUSH1 0x2 PUSH1 0xFF AND DUP2 MSTORE PUSH1 0x20 ADD PUSH1 0x2 PUSH1 0xFF AND DUP2 MSTORE PUSH1 0x20 ADD PUSH1 0x2 PUSH1 0xFF AND DUP2 MSTORE PUSH1 0x20 ADD PUSH1 0x2 PUSH1 0xFF AND DUP2 MSTORE PUSH1 0x20 ADD PUSH1 0x1 PUSH1 0xFF AND DUP2 MSTORE PUSH1 0x20 ADD PUSH1 0x1 PUSH1 0xFF AND DUP2 MSTORE PUSH1 0x20 ADD PUSH1 0x1 PUSH1 0xFF AND DUP2 MSTORE PUSH1 0x20 ADD PUSH1 0x1 PUSH1 0xFF AND DUP2 MSTORE POP DUP2 MSTORE PUSH1 0x20 ADD PUSH1 0x40 MLOAD DUP1 PUSH2 0x280 ADD PUSH1 0x40 MSTORE DUP1 PUSH1 0x3 PUSH1 0xFF AND DUP2 MSTORE PUSH1 0x20 ADD PUSH1 0x3 PUSH1 0xFF AND DUP2 MSTORE PUSH1 0x20 ADD PUSH1 0x3 PUSH1 0xFF AND DUP2 MSTORE PUSH1 0x20 ADD PUSH1 0x1 PUSH1 0xFF AND DUP2 MSTORE PUSH1 0x20 ADD PUSH1 0x1 PUSH1 0xFF AND DUP2 MSTORE PUSH1 0x20 ADD PUSH1 0x2 PUSH1 0xFF AND DUP2 MSTORE PUSH1 0x20 ADD PUSH1 0x2 PUSH1 0xFF AND DUP2 MSTORE PUSH1 0x20 ADD PUSH1 0x2 PUSH1 0xFF AND DUP2 MSTORE PUSH1 0x20 ADD PUSH1 0x2 PUSH1 0xFF AND DUP2 MSTORE PUSH1 0x20 ADD PUSH1 0x2 PUSH1 0xFF AND DUP2 MSTORE PUSH1 0x20 ADD PUSH1 0x2 PUSH1 0xFF AND DUP2 MSTORE PUSH1 0x20 ADD PUSH1 0x1 PUSH1 0xFF AND DUP2 MSTORE PUSH1 0x20 ADD PUSH1 0x2 PUSH1 0xFF AND DUP2 MSTORE PUSH1 0x20 ADD PUSH1 0x2 PUSH1 0xFF AND DUP2 MSTORE PUSH1 0x20 ADD PUSH1 0x2 PUSH1 0xFF AND DUP2 MSTORE PUSH1 0x20 ADD PUSH1 0x2 PUSH1 0xFF AND DUP2 MSTORE PUSH1 0x20 ADD PUSH1 0x2 PUSH1 0xFF AND DUP2 MSTORE PUSH1 0x20 ADD PUSH1 0x2 PUSH1 0xFF AND DUP2 MSTORE PUSH1 0x20 ADD PUSH1 0x2 PUSH1 0xFF AND DUP2 MSTORE PUSH1 0x20 ADD PUSH1 0x1 PUSH1 0xFF AND DUP2 MSTORE POP DUP2 MSTORE PUSH1 0x20 ADD PUSH1 0x40 MLOAD DUP1 PUSH2 0x280 ADD PUSH1 0x40 MSTORE DUP1 PUSH1 0x1 PUSH1 0xFF AND DUP2 MSTORE PUSH1 0x20 ADD PUSH1 0x2 PUSH1 0xFF AND DUP2 MSTORE PUSH1 0x20 ADD PUSH1 0x2 PUSH1 0xFF AND DUP2 MSTORE PUSH1 0x20 ADD PUSH1 0x1 PUSH1 0xFF AND DUP2 MSTORE PUSH1 0x20 ADD PUSH1 0x2 PUSH1 0xFF AND DUP2 MSTORE PUSH1 0x20 ADD PUSH1 0x2 PUSH1 0xFF AND DUP2 MSTORE PUSH1 0x20 ADD PUSH1 0x2 PUSH1 0xFF AND DUP2 MSTORE PUSH1 0x20 ADD PUSH1 0x2 PUSH1 0xFF AND DUP2 MSTORE PUSH1 0x20 ADD PUSH1 0x2 PUSH1 0xFF AND DUP2 MSTORE PUSH1 0x20 ADD PUSH1 0x2 PUSH1 0xFF AND DUP2 MSTORE PUSH1 0x20 ADD PUSH1 0x2 PUSH1 0xFF AND DUP2 MSTORE PUSH1 0x20 ADD PUSH1 0x1 PUSH1 0xFF AND DUP2 MSTORE PUSH1 0x20 ADD PUSH1 0x2 PUSH1 0xFF AND DUP2 MSTORE PUSH1 0x20 ADD PUSH1 0x2 PUSH1 0xFF AND DUP2 MSTORE PUSH1 0x20 ADD PUSH1 0x2 PUSH1 0xFF AND DUP2 MSTORE PUSH1 0x20 ADD PUSH1 0x2 PUSH1 0xFF AND DUP2 MSTORE PUSH1 0x20 ADD PUSH1 0x2 PUSH1 0xFF AND DUP2 MSTORE PUSH1 0x20 ADD PUSH1 0x2 PUSH1 0xFF AND DUP2 MSTORE PUSH1 0x20 ADD PUSH1 0x2 PUSH1 0xFF AND DUP2 MSTORE PUSH1 0x20 ADD PUSH1 0x1 PUSH1 0xFF AND DUP2 MSTORE POP DUP2 MSTORE PUSH1 0x20 ADD PUSH1 0x40 MLOAD DUP1 PUSH2 0x280 ADD PUSH1 0x40 MSTORE DUP1 PUSH1 0x2 PUSH1 0xFF AND DUP2 MSTORE PUSH1 0x20 ADD PUSH1 0x2 PUSH1 0xFF AND DUP2 MSTORE PUSH1 0x20 ADD PUSH1 0x1 PUSH1 0xFF AND DUP2 MSTORE PUSH1 0x20 ADD PUSH1 0x1 PUSH1 0xFF AND DUP2 MSTORE PUSH1 0x20 ADD PUSH1 0x2 PUSH1 0xFF AND DUP2 MSTORE PUSH1 0x20 ADD PUSH1 0x2 PUSH1 0xFF AND DUP2 MSTORE PUSH1 0x20 ADD PUSH1 0x2 PUSH1 0xFF AND DUP2 MSTORE PUSH1 0x20 ADD PUSH1 0x2 PUSH1 0xFF AND DUP2 MSTORE PUSH1 0x20 ADD PUSH1 0x2 PUSH1 0xFF AND DUP2 MSTORE PUSH1 0x20 ADD PUSH1 0x2 PUSH1 0xFF AND DUP2 MSTORE PUSH1 0x20 ADD PUSH1 0x1 PUSH1 0xFF AND DUP2 MSTORE PUSH1 0x20 ADD PUSH1 0x1 PUSH1 0xFF AND DUP2 MSTORE PUSH1 0x20 ADD PUSH1 0x2 PUSH1 0xFF AND DUP2 MSTORE PUSH1 0x20 ADD PUSH1 0x2 PUSH1 0xFF AND DUP2 MSTORE PUSH1 0x20 ADD PUSH1 0x2 PUSH1 0xFF AND DUP2 MSTORE PUSH1 0x20 ADD PUSH1 0x2 PUSH1 0xFF AND DUP2 MSTORE PUSH1 0x20 ADD PUSH1 0x2 PUSH1 0xFF AND DUP2 MSTORE PUSH1 0x20 ADD PUSH1 0x2 PUSH1 0xFF AND DUP2 MSTORE PUSH1 0x20 ADD PUSH1 0x1 PUSH1 0xFF AND DUP2 MSTORE PUSH1 0x20 ADD PUSH1 0x1 PUSH1 0xFF AND DUP2 MSTORE POP DUP2 MSTORE PUSH1 0x20 ADD PUSH1 0x40 MLOAD DUP1 PUSH2 0x280 ADD PUSH1 0x40 MSTORE DUP1 PUSH1 0x3 PUSH1 0xFF AND DUP2 MSTORE PUSH1 0x20 ADD PUSH1 0x3 PUSH1 0xFF AND DUP2 MSTORE PUSH1 0x20 ADD PUSH1 0x3 PUSH1 0xFF AND DUP2 MSTORE PUSH1 0x20 ADD PUSH1 0x2 PUSH1 0xFF AND DUP2 MSTORE PUSH1 0x20 ADD PUSH1 0x1 PUSH1 0xFF AND DUP2 MSTORE PUSH1 0x20 ADD PUSH1 0x2 PUSH1 0xFF AND DUP2 MSTORE PUSH1 0x20 ADD PUSH1 0x2 PUSH1 0xFF AND DUP2 MSTORE PUSH1 0x20 ADD PUSH1 0x2 PUSH1 0xFF AND DUP2 MSTORE PUSH1 0x20 ADD PUSH1 0x2 PUSH1 0xFF AND DUP2 MSTORE PUSH1 0x20 ADD PUSH1 0x2 PUSH1 0xFF AND DUP2 MSTORE PUSH1 0x20 ADD PUSH1 0x1 PUSH1 0xFF AND DUP2 MSTORE PUSH1 0x20 ADD PUSH1 0x2 PUSH1 0xFF AND DUP2 MSTORE PUSH1 0x20 ADD PUSH1 0x2 PUSH1 0xFF AND DUP2 MSTORE PUSH1 0x20 ADD PUSH1 0x2 PUSH1 0xFF AND DUP2 MSTORE PUSH1 0x20 ADD PUSH1 0x2 PUSH1 0xFF AND DUP2 MSTORE PUSH1 0x20 ADD PUSH1 0x1 PUSH1 0xFF AND DUP2 MSTORE PUSH1 0x20 ADD PUSH1 0x1 PUSH1 0xFF AND DUP2 MSTORE PUSH1 0x20 ADD PUSH1 0x1 PUSH1 0xFF AND DUP2 MSTORE PUSH1 0x20 ADD PUSH1 0x1 PUSH1 0xFF AND DUP2 MSTORE PUSH1 0x20 ADD PUSH1 0x1 PUSH1 0xFF AND DUP2 MSTORE POP DUP2 MSTORE PUSH1 0x20 ADD PUSH1 0x40 MLOAD DUP1 PUSH2 0x280 ADD PUSH1 0x40 MSTORE DUP1 PUSH1 0x3 PUSH1 0xFF AND DUP2 MSTORE PUSH1 0x20 ADD PUSH1 0x3 PUSH1 0xFF AND DUP2 MSTORE PUSH1 0x20 ADD PUSH1 0x3 PUSH1 0xFF AND DUP2 MSTORE PUSH1 0x20 ADD PUSH1 0x3 PUSH1 0xFF AND DUP2 MSTORE PUSH1 0x20 ADD PUSH1 0x1 PUSH1 0xFF AND DUP2 MSTORE PUSH1 0x20 ADD PUSH1 0x1 PUSH1 0xFF AND DUP2 MSTORE PUSH1 0x20 ADD PUSH1 0x2 PUSH1 0xFF AND DUP2 MSTORE PUSH1 0x20 ADD PUSH1 0x2 PUSH1 0xFF AND DUP2 MSTORE PUSH1 0x20 ADD PUSH1 0x2 PUSH1 0xFF AND DUP2 MSTORE PUSH1 0x20 ADD PUSH1 0x2 PUSH1 0xFF AND DUP2 MSTORE PUSH1 0x20 ADD PUSH1 0x1 PUSH1 0xFF AND DUP2 MSTORE PUSH1 0x20 ADD PUSH1 0x1 PUSH1 0xFF AND DUP2 MSTORE PUSH1 0x20 ADD PUSH1 0x2 PUSH1 0xFF AND DUP2 MSTORE PUSH1 0x20 ADD PUSH1 0x2 PUSH1 0xFF AND DUP2 MSTORE PUSH1 0x20 ADD PUSH1 0x2 PUSH1 0xFF AND DUP2 MSTORE PUSH1 0x20 ADD PUSH1 0x1 PUSH1 0xFF AND DUP2 MSTORE PUSH1 0x20 ADD PUSH1 0x1 PUSH1 0xFF AND DUP2 MSTORE PUSH1 0x20 ADD PUSH1 0x1 PUSH1 0xFF AND DUP2 MSTORE PUSH1 0x20 ADD PUSH1 0x1 PUSH1 0xFF AND DUP2 MSTORE PUSH1 0x20 ADD PUSH1 0x1 PUSH1 0xFF AND DUP2 MSTORE POP DUP2 MSTORE PUSH1 0x20 ADD PUSH1 0x40 MLOAD DUP1 PUSH2 0x280 ADD PUSH1 0x40 MSTORE DUP1 PUSH1 0x3 PUSH1 0xFF AND DUP2 MSTORE PUSH1 0x20 ADD PUSH1 0x3 PUSH1 0xFF AND DUP2 MSTORE PUSH1 0x20 ADD PUSH1 0x3 PUSH1 0xFF AND DUP2 MSTORE PUSH1 0x20 ADD PUSH1 0x3 PUSH1 0xFF AND DUP2 MSTORE PUSH1 0x20 ADD PUSH1 0x3 PUSH1 0xFF AND DUP2 MSTORE PUSH1 0x20 ADD PUSH1 0x1 PUSH1 0xFF AND DUP2 MSTORE PUSH1 0x20 ADD PUSH1 0x2 PUSH1 0xFF AND DUP2 MSTORE PUSH1 0x20 ADD PUSH1 0x2 PUSH1 0xFF AND DUP2 MSTORE PUSH1 0x20 ADD PUSH1 0x2 PUSH1 0xFF AND DUP2 MSTORE PUSH1 0x20 ADD PUSH1 0x2 PUSH1 0xFF AND DUP2 MSTORE PUSH1 0x20 ADD PUSH1 0x1 PUSH1 0xFF AND DUP2 MSTORE PUSH1 0x20 ADD PUSH1 0x1 PUSH1 0xFF AND DUP2 MSTORE PUSH1 0x20 ADD PUSH1 0x1 PUSH1 0xFF AND DUP2 MSTORE PUSH1 0x20 ADD PUSH1 0x2 PUSH1 0xFF AND DUP2 MSTORE PUSH1 0x20 ADD PUSH1 0x2 PUSH1 0xFF AND DUP2 MSTORE PUSH1 0x20 ADD PUSH1 0x2 PUSH1 0xFF AND DUP2 MSTORE PUSH1 0x20 ADD PUSH1 0x2 PUSH1 0xFF AND DUP2 MSTORE PUSH1 0x20 ADD PUSH1 0x1 PUSH1 0xFF AND DUP2 MSTORE PUSH1 0x20 ADD PUSH1 0x1 PUSH1 0xFF AND DUP2 MSTORE PUSH1 0x20 ADD PUSH1 0x1 PUSH1 0xFF AND DUP2 MSTORE POP DUP2 MSTORE PUSH1 0x20 ADD PUSH1 0x40 MLOAD DUP1 PUSH2 0x280 ADD PUSH1 0x40 MSTORE DUP1 PUSH1 0x3 PUSH1 0xFF AND DUP2 MSTORE PUSH1 0x20 ADD PUSH1 0x3 PUSH1 0xFF AND DUP2 MSTORE PUSH1 0x20 ADD PUSH1 0x3 PUSH1 0xFF AND DUP2 MSTORE PUSH1 0x20 ADD PUSH1 0x3 PUSH1 0xFF AND DUP2 MSTORE PUSH1 0x20 ADD PUSH1 0x3 PUSH1 0xFF AND DUP2 MSTORE PUSH1 0x20 ADD PUSH1 0x2 PUSH1 0xFF AND DUP2 MSTORE PUSH1 0x20 ADD PUSH1 0x2 PUSH1 0xFF AND DUP2 MSTORE PUSH1 0x20 ADD PUSH1 0x2 PUSH1 0xFF AND DUP2 MSTORE PUSH1 0x20 ADD PUSH1 0x3 PUSH1 0xFF AND DUP2 MSTORE PUSH1 0x20 ADD PUSH1 0x3 PUSH1 0xFF AND DUP2 MSTORE PUSH1 0x20 ADD PUSH1 0x2 PUSH1 0xFF AND DUP2 MSTORE PUSH1 0x20 ADD PUSH1 0x2 PUSH1 0xFF AND DUP2 MSTORE PUSH1 0x20 ADD PUSH1 0x1 PUSH1 0xFF AND DUP2 MSTORE PUSH1 0x20 ADD PUSH1 0x2 PUSH1 0xFF AND DUP2 MSTORE PUSH1 0x20 ADD PUSH1 0x2 PUSH1 0xFF AND DUP2 MSTORE PUSH1 0x20 ADD PUSH1 0x2 PUSH1 0xFF AND DUP2 MSTORE PUSH1 0x20 ADD PUSH1 0x2 PUSH1 0xFF AND DUP2 MSTORE PUSH1 0x20 ADD PUSH1 0x1 PUSH1 0xFF AND DUP2 MSTORE PUSH1 0x20 ADD PUSH1 0x1 PUSH1 0xFF AND DUP2 MSTORE PUSH1 0x20 ADD PUSH1 0x1 PUSH1 0xFF AND DUP2 MSTORE POP DUP2 MSTORE PUSH1 0x20 ADD PUSH1 0x40 MLOAD DUP1 PUSH2 0x280 ADD PUSH1 0x40 MSTORE DUP1 PUSH1 0x2 PUSH1 0xFF AND DUP2 MSTORE PUSH1 0x20 ADD PUSH1 0x2 PUSH1 0xFF AND DUP2 MSTORE PUSH1 0x20 ADD PUSH1 0x2 PUSH1 0xFF AND DUP2 MSTORE PUSH1 0x20 ADD PUSH1 0x1 PUSH1 0xFF AND DUP2 MSTORE PUSH1 0x20 ADD PUSH1 0x1 PUSH1 0xFF AND DUP2 MSTORE PUSH1 0x20 ADD PUSH1 0x1 PUSH1 0xFF AND DUP2 MSTORE PUSH1 0x20 ADD PUSH1 0x1 PUSH1 0xFF AND DUP2 MSTORE PUSH1 0x20 ADD PUSH1 0x1 PUSH1 0xFF AND DUP2 MSTORE PUSH1 0x20 ADD PUSH1 0x3 PUSH1 0xFF AND DUP2 MSTORE PUSH1 0x20 ADD PUSH1 0x3 PUSH1 0xFF AND DUP2 MSTORE PUSH1 0x20 ADD PUSH1 0x3 PUSH1 0xFF AND DUP2 MSTORE PUSH1 0x20 ADD PUSH1 0x3 PUSH1 0xFF AND DUP2 MSTORE PUSH1 0x20 ADD PUSH1 0x1 PUSH1 0xFF AND DUP2 MSTORE PUSH1 0x20 ADD PUSH1 0x1 PUSH1 0xFF AND DUP2 MSTORE PUSH1 0x20 ADD PUSH1 0x2 PUSH1 0xFF AND DUP2 MSTORE PUSH1 0x20 ADD PUSH1 0x2 PUSH1 0xFF AND DUP2 MSTORE PUSH1 0x20 ADD PUSH1 0x2 PUSH1 0xFF AND DUP2 MSTORE PUSH1 0x20 ADD PUSH1 0x1 PUSH1 0xFF AND DUP2 MSTORE PUSH1 0x20 ADD PUSH1 0x1 PUSH1 0xFF AND DUP2 MSTORE PUSH1 0x20 ADD PUSH1 0x1 PUSH1 0xFF AND DUP2 MSTORE POP DUP2 MSTORE PUSH1 0x20 ADD PUSH1 0x40 MLOAD DUP1 PUSH2 0x280 ADD PUSH1 0x40 MSTORE DUP1 PUSH1 0x2 PUSH1 0xFF AND DUP2 MSTORE PUSH1 0x20 ADD PUSH1 0x2 PUSH1 0xFF AND DUP2 MSTORE PUSH1 0x20 ADD PUSH1 0x2 PUSH1 0xFF AND DUP2 MSTORE PUSH1 0x20 ADD PUSH1 0x2 PUSH1 0xFF AND DUP2 MSTORE PUSH1 0x20 ADD PUSH1 0x2 PUSH1 0xFF AND DUP2 MSTORE PUSH1 0x20 ADD PUSH1 0x2 PUSH1 0xFF AND DUP2 MSTORE PUSH1 0x20 ADD PUSH1 0x1 PUSH1 0xFF AND DUP2 MSTORE PUSH1 0x20 ADD PUSH1 0x1 PUSH1 0xFF AND DUP2 MSTORE PUSH1 0x20 ADD PUSH1 0x3 PUSH1 0xFF AND DUP2 MSTORE PUSH1 0x20 ADD PUSH1 0x3 PUSH1 0xFF AND DUP2 MSTORE PUSH1 0x20 ADD PUSH1 0x3 PUSH1 0xFF AND DUP2 MSTORE PUSH1 0x20 ADD PUSH1 0x3 PUSH1 0xFF AND DUP2 MSTORE PUSH1 0x20 ADD PUSH1 0x1 PUSH1 0xFF AND DUP2 MSTORE PUSH1 0x20 ADD PUSH1 0x1 PUSH1 0xFF AND DUP2 MSTORE PUSH1 0x20 ADD PUSH1 0x1 PUSH1 0xFF AND DUP2 MSTORE PUSH1 0x20 ADD PUSH1 0x1 PUSH1 0xFF AND DUP2 MSTORE PUSH1 0x20 ADD PUSH1 0x3 PUSH1 0xFF AND DUP2 MSTORE PUSH1 0x20 ADD PUSH1 0x3 PUSH1 0xFF AND DUP2 MSTORE PUSH1 0x20 ADD PUSH1 0x2 PUSH1 0xFF AND DUP2 MSTORE PUSH1 0x20 ADD PUSH1 0x2 PUSH1 0xFF AND DUP2 MSTORE POP DUP2 MSTORE PUSH1 0x20 ADD PUSH1 0x40 MLOAD DUP1 PUSH2 0x280 ADD PUSH1 0x40 MSTORE DUP1 PUSH1 0x2 PUSH1 0xFF AND DUP2 MSTORE PUSH1 0x20 ADD PUSH1 0x2 PUSH1 0xFF AND DUP2 MSTORE PUSH1 0x20 ADD PUSH1 0x2 PUSH1 0xFF AND DUP2 MSTORE PUSH1 0x20 ADD PUSH1 0x2 PUSH1 0xFF AND DUP2 MSTORE PUSH1 0x20 ADD PUSH1 0x2 PUSH1 0xFF AND DUP2 MSTORE PUSH1 0x20 ADD PUSH1 0x2 PUSH1 0xFF AND DUP2 MSTORE PUSH1 0x20 ADD PUSH1 0x2 PUSH1 0xFF AND DUP2 MSTORE PUSH1 0x20 ADD PUSH1 0x1 PUSH1 0xFF AND DUP2 MSTORE PUSH1 0x20 ADD PUSH1 0x3 PUSH1 0xFF AND DUP2 MSTORE PUSH1 0x20 ADD PUSH1 0x3 PUSH1 0xFF AND DUP2 MSTORE PUSH1 0x20 ADD PUSH1 0x3 PUSH1 0xFF AND DUP2 MSTORE PUSH1 0x20 ADD PUSH1 0x3 PUSH1 0xFF AND DUP2 MSTORE PUSH1 0x20 ADD PUSH1 0x1 PUSH1 0xFF AND DUP2 MSTORE PUSH1 0x20 ADD PUSH1 0x1 PUSH1 0xFF AND DUP2 MSTORE PUSH1 0x20 ADD PUSH1 0x1 PUSH1 0xFF AND DUP2 MSTORE PUSH1 0x20 ADD PUSH1 0x1 PUSH1 0xFF AND DUP2 MSTORE PUSH1 0x20 ADD PUSH1 0x3 PUSH1 0xFF AND DUP2 MSTORE PUSH1 0x20 ADD PUSH1 0x3 PUSH1 0xFF AND DUP2 MSTORE PUSH1 0x20 ADD PUSH1 0x2 PUSH1 0xFF AND DUP2 MSTORE PUSH1 0x20 ADD PUSH1 0x2 PUSH1 0xFF AND DUP2 MSTORE POP DUP2 MSTORE PUSH1 0x20 ADD PUSH1 0x40 MLOAD DUP1 PUSH2 0x280 ADD PUSH1 0x40 MSTORE DUP1 PUSH1 0x2 PUSH1 0xFF AND DUP2 MSTORE PUSH1 0x20 ADD PUSH1 0x2 PUSH1 0xFF AND DUP2 MSTORE PUSH1 0x20 ADD PUSH1 0x2 PUSH1 0xFF AND DUP2 MSTORE PUSH1 0x20 ADD PUSH1 0x2 PUSH1 0xFF AND DUP2 MSTORE PUSH1 0x20 ADD PUSH1 0x2 PUSH1 0xFF AND DUP2 MSTORE PUSH1 0x20 ADD PUSH1 0x2 PUSH1 0xFF AND DUP2 MSTORE PUSH1 0x20 ADD PUSH1 0x2 PUSH1 0xFF AND DUP2 MSTORE PUSH1 0x20 ADD PUSH1 0x1 PUSH1 0xFF AND DUP2 MSTORE PUSH1 0x20 ADD PUSH1 0x1 PUSH1 0xFF AND DUP2 MSTORE PUSH1 0x20 ADD PUSH1 0x2 PUSH1 0xFF AND DUP2 MSTORE PUSH1 0x20 ADD PUSH1 0x2 PUSH1 0xFF AND DUP2 MSTORE PUSH1 0x20 ADD PUSH1 0x1 PUSH1 0xFF AND DUP2 MSTORE PUSH1 0x20 ADD PUSH1 0x1 PUSH1 0xFF AND DUP2 MSTORE PUSH1 0x20 ADD PUSH1 0x2 PUSH1 0xFF AND DUP2 MSTORE PUSH1 0x20 ADD PUSH1 0x2 PUSH1 0xFF AND DUP2 MSTORE PUSH1 0x20 ADD PUSH1 0x1 PUSH1 0xFF AND DUP2 MSTORE PUSH1 0x20 ADD PUSH1 0x3 PUSH1 0xFF AND DUP2 MSTORE PUSH1 0x20 ADD PUSH1 0x3 PUSH1 0xFF AND DUP2 MSTORE PUSH1 0x20 ADD PUSH1 0x2 PUSH1 0xFF AND DUP2 MSTORE PUSH1 0x20 ADD PUSH1 0x2 PUSH1 0xFF AND DUP2 MSTORE POP DUP2 MSTORE PUSH1 0x20 ADD PUSH1 0x40 MLOAD DUP1 PUSH2 0x280 ADD PUSH1 0x40 MSTORE DUP1 PUSH1 0x2 PUSH1 0xFF AND DUP2 MSTORE PUSH1 0x20 ADD PUSH1 0x2 PUSH1 0xFF AND DUP2 MSTORE PUSH1 0x20 ADD PUSH1 0x2 PUSH1 0xFF AND DUP2 MSTORE PUSH1 0x20 ADD PUSH1 0x2 PUSH1 0xFF AND DUP2 MSTORE PUSH1 0x20 ADD PUSH1 0x2 PUSH1 0xFF AND DUP2 MSTORE PUSH1 0x20 ADD PUSH1 0x2 PUSH1 0xFF AND DUP2 MSTORE PUSH1 0x20 ADD PUSH1 0x2 PUSH1 0xFF AND DUP2 MSTORE PUSH1 0x20 ADD PUSH1 0x1 PUSH1 0xFF AND DUP2 MSTORE PUSH1 0x20 ADD PUSH1 0x1 PUSH1 0xFF AND DUP2 MSTORE PUSH1 0x20 ADD PUSH1 0x1 PUSH1 0xFF AND DUP2 MSTORE PUSH1 0x20 ADD PUSH1 0x1 PUSH1 0xFF AND DUP2 MSTORE PUSH1 0x20 ADD PUSH1 0x1 PUSH1 0xFF AND DUP2 MSTORE PUSH1 0x20 ADD PUSH1 0x1 PUSH1 0xFF AND DUP2 MSTORE PUSH1 0x20 ADD PUSH1 0x1 PUSH1 0xFF AND DUP2 MSTORE PUSH1 0x20 ADD PUSH1 0x1 PUSH1 0xFF AND DUP2 MSTORE PUSH1 0x20 ADD PUSH1 0x3 PUSH1 0xFF AND DUP2 MSTORE PUSH1 0x20 ADD PUSH1 0x3 PUSH1 0xFF AND DUP2 MSTORE PUSH1 0x20 ADD PUSH1 0x3 PUSH1 0xFF AND DUP2 MSTORE PUSH1 0x20 ADD PUSH1 0x2 PUSH1 0xFF AND DUP2 MSTORE PUSH1 0x20 ADD PUSH1 0x2 PUSH1 0xFF AND DUP2 MSTORE POP DUP2 MSTORE POP PUSH1 0x3 SWAP1 PUSH1 0x14 PUSH3 0x10EC SWAP3 SWAP2 SWAP1 PUSH3 0x1167 JUMP JUMPDEST POP CALLVALUE DUP1 ISZERO PUSH3 0x10FA JUMPI PUSH1 0x0 DUP1 REVERT JUMPDEST POP PUSH1 0x40 MLOAD PUSH3 0x3307 CODESIZE SUB DUP1 PUSH3 0x3307 DUP4 CODECOPY DUP2 DUP2 ADD PUSH1 0x40 MSTORE DUP2 ADD SWAP1 PUSH3 0x1120 SWAP2 SWAP1 PUSH3 0x1315 JUMP JUMPDEST DUP1 PUSH1 0x0 DUP1 PUSH2 0x100 EXP DUP2 SLOAD DUP2 PUSH20 0xFFFFFFFFFFFFFFFFFFFFFFFFFFFFFFFFFFFFFFFF MUL NOT AND SWAP1 DUP4 PUSH20 0xFFFFFFFFFFFFFFFFFFFFFFFFFFFFFFFFFFFFFFFF AND MUL OR SWAP1 SSTORE POP POP PUSH3 0x1347 JUMP JUMPDEST DUP3 PUSH1 0x14 DUP2 ADD SWAP3 DUP3 ISZERO PUSH3 0x11A9 JUMPI SWAP2 PUSH1 0x20 MUL DUP3 ADD JUMPDEST DUP3 DUP2 GT ISZERO PUSH3 0x11A8 JUMPI DUP3 MLOAD DUP3 SWAP1 PUSH1 0x14 PUSH3 0x1197 SWAP3 SWAP2 SWAP1 PUSH3 0x11BC JUMP JUMPDEST POP SWAP2 PUSH1 0x20 ADD SWAP2 SWAP1 PUSH1 0x1 ADD SWAP1 PUSH3 0x117B JUMP JUMPDEST JUMPDEST POP SWAP1 POP PUSH3 0x11B8 SWAP2 SWAP1 PUSH3 0x125D JUMP JUMPDEST POP SWAP1 JUMP JUMPDEST DUP3 PUSH1 0x14 PUSH1 0x1F ADD PUSH1 0x20 SWAP1 DIV DUP2 ADD SWAP3 DUP3 ISZERO PUSH3 0x124A JUMPI SWAP2 PUSH1 0x20 MUL DUP3 ADD PUSH1 0x0 JUMPDEST DUP4 DUP3 GT ISZERO PUSH3 0x1219 JUMPI DUP4 MLOAD DUP4 DUP3 PUSH2 0x100 EXP DUP2 SLOAD DUP2 PUSH1 0xFF MUL NOT AND SWAP1 DUP4 PUSH1 0xFF AND MUL OR SWAP1 SSTORE POP SWAP3 PUSH1 0x20 ADD SWAP3 PUSH1 0x1 ADD PUSH1 0x20 DUP2 PUSH1 0x0 ADD DIV SWAP3 DUP4 ADD SWAP3 PUSH1 0x1 SUB MUL PUSH3 0x11D9 JUMP JUMPDEST DUP1 ISZERO PUSH3 0x1248 JUMPI DUP3 DUP2 PUSH2 0x100 EXP DUP2 SLOAD SWAP1 PUSH1 0xFF MUL NOT AND SWAP1 SSTORE PUSH1 0x1 ADD PUSH1 0x20 DUP2 PUSH1 0x0 ADD DIV SWAP3 DUP4 ADD SWAP3 PUSH1 0x1 SUB MUL PUSH3 0x1219 JUMP JUMPDEST POP JUMPDEST POP SWAP1 POP PUSH3 0x1259 SWAP2 SWAP1 PUSH3 0x1285 JUMP JUMPDEST POP SWAP1 JUMP JUMPDEST JUMPDEST DUP1 DUP3 GT ISZERO PUSH3 0x1281 JUMPI PUSH1 0x0 DUP2 DUP2 PUSH3 0x1277 SWAP2 SWAP1 PUSH3 0x12A4 JUMP JUMPDEST POP PUSH1 0x1 ADD PUSH3 0x125E JUMP JUMPDEST POP SWAP1 JUMP JUMPDEST JUMPDEST DUP1 DUP3 GT ISZERO PUSH3 0x12A0 JUMPI PUSH1 0x0 DUP2 PUSH1 0x0 SWAP1 SSTORE POP PUSH1 0x1 ADD PUSH3 0x1286 JUMP JUMPDEST POP SWAP1 JUMP JUMPDEST POP PUSH1 0x0 SWAP1 SSTORE JUMP JUMPDEST PUSH1 0x0 DUP1 REVERT JUMPDEST PUSH1 0x0 PUSH20 0xFFFFFFFFFFFFFFFFFFFFFFFFFFFFFFFFFFFFFFFF DUP3 AND SWAP1 POP SWAP2 SWAP1 POP JUMP JUMPDEST PUSH1 0x0 PUSH3 0x12DD DUP3 PUSH3 0x12B0 JUMP JUMPDEST SWAP1 POP SWAP2 SWAP1 POP JUMP JUMPDEST PUSH3 0x12EF DUP2 PUSH3 0x12D0 JUMP JUMPDEST DUP2 EQ PUSH3 0x12FB JUMPI PUSH1 0x0 DUP1 REVERT JUMPDEST POP JUMP JUMPDEST PUSH1 0x0 DUP2 MLOAD SWAP1 POP PUSH3 0x130F DUP2 PUSH3 0x12E4 JUMP JUMPDEST SWAP3 SWAP2 POP POP JUMP JUMPDEST PUSH1 0x0 PUSH1 0x20 DUP3 DUP5 SUB SLT ISZERO PUSH3 0x132E JUMPI PUSH3 0x132D PUSH3 0x12AB JUMP JUMPDEST JUMPDEST PUSH1 0x0 PUSH3 0x133E DUP5 DUP3 DUP6 ADD PUSH3 0x12FE JUMP JUMPDEST SWAP2 POP POP SWAP3 SWAP2 POP POP JUMP JUMPDEST PUSH2 0x1FB0 DUP1 PUSH3 0x1357 PUSH1 0x0 CODECOPY PUSH1 0x0 RETURN INVALID PUSH1 0x80 PUSH1 0x40 MSTORE CALLVALUE DUP1 ISZERO PUSH2 0x10 JUMPI PUSH1 0x0 DUP1 REVERT JUMPDEST POP PUSH1 0x4 CALLDATASIZE LT PUSH2 0xEA JUMPI PUSH1 0x0 CALLDATALOAD PUSH1 0xE0 SHR DUP1 PUSH4 0xBDC7DA8E GT PUSH2 0x8C JUMPI DUP1 PUSH4 0xDD4B466B GT PUSH2 0x66 JUMPI DUP1 PUSH4 0xDD4B466B EQ PUSH2 0x27F JUMPI DUP1 PUSH4 0xDECC1BBF EQ PUSH2 0x29B JUMPI DUP1 PUSH4 0xE9DD6583 EQ PUSH2 0x2B9 JUMPI DUP1 PUSH4 0xF3245254 EQ PUSH2 0x2D5 JUMPI PUSH2 0xEA JUMP JUMPDEST DUP1 PUSH4 0xBDC7DA8E EQ PUSH2 0x213 JUMPI DUP1 PUSH4 0xBE9A263C EQ PUSH2 0x231 JUMPI DUP1 PUSH4 0xCC06C359 EQ PUSH2 0x261 JUMPI PUSH2 0xEA JUMP JUMPDEST DUP1 PUSH4 0xA2F9CC5B GT PUSH2 0xC8 JUMPI DUP1 PUSH4 0xA2F9CC5B EQ PUSH2 0x160 JUMPI DUP1 PUSH4 0xAFED933A EQ PUSH2 0x190 JUMPI DUP1 PUSH4 0xBC9955A2 EQ PUSH2 0x1AE JUMPI DUP1 PUSH4 0xBD638378 EQ PUSH2 0x1DE JUMPI PUSH2 0xEA JUMP JUMPDEST DUP1 PUSH4 0xEE22F31 EQ PUSH2 0xEF JUMPI DUP1 PUSH4 0x4F264B03 EQ PUSH2 0x10B JUMPI DUP1 PUSH4 0x9B562DF2 EQ PUSH2 0x129 JUMPI JUMPDEST PUSH1 0x0 DUP1 REVERT JUMPDEST PUSH2 0x109 PUSH1 0x4 DUP1 CALLDATASIZE SUB DUP2 ADD SWAP1 PUSH2 0x104 SWAP2 SWAP1 PUSH2 0x1499 JUMP JUMPDEST PUSH2 0x305 JUMP JUMPDEST STOP JUMPDEST PUSH2 0x113 PUSH2 0x5A6 JUMP JUMPDEST PUSH1 0x40 MLOAD PUSH2 0x120 SWAP2 SWAP1 PUSH2 0x1593 JUMP JUMPDEST PUSH1 0x40 MLOAD DUP1 SWAP2 SUB SWAP1 RETURN JUMPDEST PUSH2 0x143 PUSH1 0x4 DUP1 CALLDATASIZE SUB DUP2 ADD SWAP1 PUSH2 0x13E SWAP2 SWAP1 PUSH2 0x15AE JUMP JUMPDEST PUSH2 0x5CA JUMP JUMPDEST PUSH1 0x40 MLOAD PUSH2 0x157 SWAP9 SWAP8 SWAP7 SWAP6 SWAP5 SWAP4 SWAP3 SWAP2 SWAP1 PUSH2 0x1624 JUMP JUMPDEST PUSH1 0x40 MLOAD DUP1 SWAP2 SUB SWAP1 RETURN JUMPDEST PUSH2 0x17A PUSH1 0x4 DUP1 CALLDATASIZE SUB DUP2 ADD SWAP1 PUSH2 0x175 SWAP2 SWAP1 PUSH2 0x16A2 JUMP JUMPDEST PUSH2 0x63B JUMP JUMPDEST PUSH1 0x40 MLOAD PUSH2 0x187 SWAP2 SWAP1 PUSH2 0x1718 JUMP JUMPDEST PUSH1 0x40 MLOAD DUP1 SWAP2 SUB SWAP1 RETURN JUMPDEST PUSH2 0x198 PUSH2 0x684 JUMP JUMPDEST PUSH1 0x40 MLOAD PUSH2 0x1A5 SWAP2 SWAP1 PUSH2 0x1718 JUMP JUMPDEST PUSH1 0x40 MLOAD DUP1 SWAP2 SUB SWAP1 RETURN JUMPDEST PUSH2 0x1C8 PUSH1 0x4 DUP1 CALLDATASIZE SUB DUP2 ADD SWAP1 PUSH2 0x1C3 SWAP2 SWAP1 PUSH2 0x175F JUMP JUMPDEST PUSH2 0x689 JUMP JUMPDEST PUSH1 0x40 MLOAD PUSH2 0x1D5 SWAP2 SWAP1 PUSH2 0x1718 JUMP JUMPDEST PUSH1 0x40 MLOAD DUP1 SWAP2 SUB SWAP1 RETURN JUMPDEST PUSH2 0x1F8 PUSH1 0x4 DUP1 CALLDATASIZE SUB DUP2 ADD SWAP1 PUSH2 0x1F3 SWAP2 SWAP1 PUSH2 0x15AE JUMP JUMPDEST PUSH2 0x6C5 JUMP JUMPDEST PUSH1 0x40 MLOAD PUSH2 0x20A SWAP7 SWAP6 SWAP5 SWAP4 SWAP3 SWAP2 SWAP1 PUSH2 0x179F JUMP JUMPDEST PUSH1 0x40 MLOAD DUP1 SWAP2 SUB SWAP1 RETURN JUMPDEST PUSH2 0x21B PUSH2 0x745 JUMP JUMPDEST PUSH1 0x40 MLOAD PUSH2 0x228 SWAP2 SWAP1 PUSH2 0x1800 JUMP JUMPDEST PUSH1 0x40 MLOAD DUP1 SWAP2 SUB SWAP1 RETURN JUMPDEST PUSH2 0x24B PUSH1 0x4 DUP1 CALLDATASIZE SUB DUP2 ADD SWAP1 PUSH2 0x246 SWAP2 SWAP1 PUSH2 0x15AE JUMP JUMPDEST PUSH2 0x74B JUMP JUMPDEST PUSH1 0x40 MLOAD PUSH2 0x258 SWAP2 SWAP1 PUSH2 0x1963 JUMP JUMPDEST PUSH1 0x40 MLOAD DUP1 SWAP2 SUB SWAP1 RETURN JUMPDEST PUSH2 0x269 PUSH2 0x96B JUMP JUMPDEST PUSH1 0x40 MLOAD PUSH2 0x276 SWAP2 SWAP1 PUSH2 0x197F JUMP JUMPDEST PUSH1 0x40 MLOAD DUP1 SWAP2 SUB SWAP1 RETURN JUMPDEST PUSH2 0x299 PUSH1 0x4 DUP1 CALLDATASIZE SUB DUP2 ADD SWAP1 PUSH2 0x294 SWAP2 SWAP1 PUSH2 0x15AE JUMP JUMPDEST PUSH2 0x971 JUMP JUMPDEST STOP JUMPDEST PUSH2 0x2A3 PUSH2 0xB81 JUMP JUMPDEST PUSH1 0x40 MLOAD PUSH2 0x2B0 SWAP2 SWAP1 PUSH2 0x1718 JUMP JUMPDEST PUSH1 0x40 MLOAD DUP1 SWAP2 SUB SWAP1 RETURN JUMPDEST PUSH2 0x2D3 PUSH1 0x4 DUP1 CALLDATASIZE SUB DUP2 ADD SWAP1 PUSH2 0x2CE SWAP2 SWAP1 PUSH2 0x19C6 JUMP JUMPDEST PUSH2 0xB86 JUMP JUMPDEST STOP JUMPDEST PUSH2 0x2EF PUSH1 0x4 DUP1 CALLDATASIZE SUB DUP2 ADD SWAP1 PUSH2 0x2EA SWAP2 SWAP1 PUSH2 0x15AE JUMP JUMPDEST PUSH2 0x11AB JUMP JUMPDEST PUSH1 0x40 MLOAD PUSH2 0x2FC SWAP2 SWAP1 PUSH2 0x1800 JUMP JUMPDEST PUSH1 0x40 MLOAD DUP1 SWAP2 SUB SWAP1 RETURN JUMPDEST DUP5 DUP5 CALLER PUSH20 0xFFFFFFFFFFFFFFFFFFFFFFFFFFFFFFFFFFFFFFFF AND PUSH1 0x0 DUP1 SLOAD SWAP1 PUSH2 0x100 EXP SWAP1 DIV PUSH20 0xFFFFFFFFFFFFFFFFFFFFFFFFFFFFFFFFFFFFFFFF AND PUSH20 0xFFFFFFFFFFFFFFFFFFFFFFFFFFFFFFFFFFFFFFFF AND PUSH4 0x8A888953 DUP5 DUP5 PUSH1 0x40 MLOAD DUP4 PUSH4 0xFFFFFFFF AND PUSH1 0xE0 SHL DUP2 MSTORE PUSH1 0x4 ADD PUSH2 0x379 SWAP3 SWAP2 SWAP1 PUSH2 0x1A19 JUMP JUMPDEST PUSH1 0x20 PUSH1 0x40 MLOAD DUP1 DUP4 SUB DUP2 DUP7 GAS STATICCALL ISZERO DUP1 ISZERO PUSH2 0x396 JUMPI RETURNDATASIZE PUSH1 0x0 DUP1 RETURNDATACOPY RETURNDATASIZE PUSH1 0x0 REVERT JUMPDEST POP POP POP POP PUSH1 0x40 MLOAD RETURNDATASIZE PUSH1 0x1F NOT PUSH1 0x1F DUP3 ADD AND DUP3 ADD DUP1 PUSH1 0x40 MSTORE POP DUP2 ADD SWAP1 PUSH2 0x3BA SWAP2 SWAP1 PUSH2 0x1A80 JUMP JUMPDEST PUSH20 0xFFFFFFFFFFFFFFFFFFFFFFFFFFFFFFFFFFFFFFFF AND EQ PUSH2 0x410 JUMPI PUSH1 0x40 MLOAD PUSH32 0x8C379A000000000000000000000000000000000000000000000000000000000 DUP2 MSTORE PUSH1 0x4 ADD PUSH2 0x407 SWAP1 PUSH2 0x1B0A JUMP JUMPDEST PUSH1 0x40 MLOAD DUP1 SWAP2 SUB SWAP1 REVERT JUMPDEST DUP5 DUP5 PUSH1 0x9 PUSH1 0xFF AND DUP3 PUSH1 0xFF AND LT DUP1 ISZERO PUSH2 0x42E JUMPI POP PUSH1 0x9 PUSH1 0xFF AND DUP2 PUSH1 0xFF AND LT JUMPDEST PUSH2 0x46D JUMPI PUSH1 0x40 MLOAD PUSH32 0x8C379A000000000000000000000000000000000000000000000000000000000 DUP2 MSTORE PUSH1 0x4 ADD PUSH2 0x464 SWAP1 PUSH2 0x1B9C JUMP JUMPDEST PUSH1 0x40 MLOAD DUP1 SWAP2 SUB SWAP1 REVERT JUMPDEST PUSH1 0x0 PUSH1 0x2 PUSH1 0x0 DUP12 PUSH1 0xFF AND PUSH1 0xFF AND DUP2 MSTORE PUSH1 0x20 ADD SWAP1 DUP2 MSTORE PUSH1 0x20 ADD PUSH1 0x0 KECCAK256 PUSH1 0x0 DUP11 PUSH1 0xFF AND PUSH1 0xFF AND DUP2 MSTORE PUSH1 0x20 ADD SWAP1 DUP2 MSTORE PUSH1 0x20 ADD PUSH1 0x0 KECCAK256 PUSH1 0x0 DUP10 PUSH1 0xFF AND PUSH1 0xFF AND DUP2 MSTORE PUSH1 0x20 ADD SWAP1 DUP2 MSTORE PUSH1 0x20 ADD PUSH1 0x0 KECCAK256 PUSH1 0x0 DUP9 PUSH1 0xFF AND PUSH1 0xFF AND DUP2 MSTORE PUSH1 0x20 ADD SWAP1 DUP2 MSTORE PUSH1 0x20 ADD PUSH1 0x0 KECCAK256 PUSH1 0x0 SWAP1 SLOAD SWAP1 PUSH2 0x100 EXP SWAP1 DIV PUSH1 0xFF AND SWAP1 POP PUSH1 0x0 DUP2 PUSH1 0xFF AND EQ PUSH2 0x523 JUMPI PUSH1 0x40 MLOAD PUSH32 0x8C379A000000000000000000000000000000000000000000000000000000000 DUP2 MSTORE PUSH1 0x4 ADD PUSH2 0x51A SWAP1 PUSH2 0x1C2E JUMP JUMPDEST PUSH1 0x40 MLOAD DUP1 SWAP2 SUB SWAP1 REVERT JUMPDEST DUP6 PUSH1 0x2 PUSH1 0x0 DUP13 PUSH1 0xFF AND PUSH1 0xFF AND DUP2 MSTORE PUSH1 0x20 ADD SWAP1 DUP2 MSTORE PUSH1 0x20 ADD PUSH1 0x0 KECCAK256 PUSH1 0x0 DUP12 PUSH1 0xFF AND PUSH1 0xFF AND DUP2 MSTORE PUSH1 0x20 ADD SWAP1 DUP2 MSTORE PUSH1 0x20 ADD PUSH1 0x0 KECCAK256 PUSH1 0x0 DUP11 PUSH1 0xFF AND PUSH1 0xFF AND DUP2 MSTORE PUSH1 0x20 ADD SWAP1 DUP2 MSTORE PUSH1 0x20 ADD PUSH1 0x0 KECCAK256 PUSH1 0x0 DUP10 PUSH1 0xFF AND PUSH1 0xFF AND DUP2 MSTORE PUSH1 0x20 ADD SWAP1 DUP2 MSTORE PUSH1 0x20 ADD PUSH1 0x0 KECCAK256 PUSH1 0x0 PUSH2 0x100 EXP DUP2 SLOAD DUP2 PUSH1 0xFF MUL NOT AND SWAP1 DUP4 PUSH1 0xFF AND MUL OR SWAP1 SSTORE POP POP POP POP POP POP POP POP POP POP POP JUMP JUMPDEST PUSH1 0x0 DUP1 SLOAD SWAP1 PUSH2 0x100 EXP SWAP1 DIV PUSH20 0xFFFFFFFFFFFFFFFFFFFFFFFFFFFFFFFFFFFFFFFF AND DUP2 JUMP JUMPDEST PUSH1 0x1 PUSH1 0x20 MSTORE DUP2 PUSH1 0x0 MSTORE PUSH1 0x40 PUSH1 0x0 KECCAK256 PUSH1 0x20 MSTORE DUP1 PUSH1 0x0 MSTORE PUSH1 0x40 PUSH1 0x0 KECCAK256 PUSH1 0x0 SWAP2 POP SWAP2 POP POP DUP1 PUSH1 0x0 ADD SLOAD SWAP1 DUP1 PUSH1 0x1 ADD SLOAD SWAP1 DUP1 PUSH1 0x2 ADD SLOAD SWAP1 DUP1 PUSH1 0x3 ADD SLOAD SWAP1 DUP1 PUSH1 0x4 ADD PUSH1 0x0 SWAP1 SLOAD SWAP1 PUSH2 0x100 EXP SWAP1 DIV PUSH2 0xFFFF AND SWAP1 DUP1 PUSH1 0x5 ADD SLOAD SWAP1 DUP1 PUSH1 0x6 ADD PUSH1 0x0 SWAP1 SLOAD SWAP1 PUSH2 0x100 EXP SWAP1 DIV PUSH2 0xFFFF AND SWAP1 DUP1 PUSH1 0x7 ADD SLOAD SWAP1 POP DUP9 JUMP JUMPDEST PUSH1 0x2 PUSH1 0x20 MSTORE DUP4 PUSH1 0x0 MSTORE PUSH1 0x40 PUSH1 0x0 KECCAK256 PUSH1 0x20 MSTORE DUP3 PUSH1 0x0 MSTORE PUSH1 0x40 PUSH1 0x0 KECCAK256 PUSH1 0x20 MSTORE DUP2 PUSH1 0x0 MSTORE PUSH1 0x40 PUSH1 0x0 KECCAK256 PUSH1 0x20 MSTORE DUP1 PUSH1 0x0 MSTORE PUSH1 0x40 PUSH1 0x0 KECCAK256 PUSH1 0x0 SWAP4 POP SWAP4 POP POP POP SWAP1 SLOAD SWAP1 PUSH2 0x100 EXP SWAP1 DIV PUSH1 0xFF AND DUP2 JUMP JUMPDEST PUSH1 0x14 DUP2 JUMP JUMPDEST PUSH1 0x3 DUP3 PUSH1 0x14 DUP2 LT PUSH2 0x699 JUMPI PUSH1 0x0 DUP1 REVERT JUMPDEST ADD DUP2 PUSH1 0x14 DUP2 LT PUSH2 0x6A8 JUMPI PUSH1 0x0 DUP1 REVERT JUMPDEST PUSH1 0x20 SWAP2 DUP3 DUP3 DIV ADD SWAP2 SWAP1 MOD SWAP2 POP SWAP2 POP SWAP1 SLOAD SWAP1 PUSH2 0x100 EXP SWAP1 DIV PUSH1 0xFF AND DUP2 JUMP JUMPDEST PUSH1 0x0 DUP1 PUSH1 0x0 DUP1 PUSH1 0x0 DUP1 PUSH1 0x0 PUSH1 0x1 PUSH1 0x0 DUP11 PUSH1 0xFF AND PUSH1 0xFF AND DUP2 MSTORE PUSH1 0x20 ADD SWAP1 DUP2 MSTORE PUSH1 0x20 ADD PUSH1 0x0 KECCAK256 PUSH1 0x0 DUP10 PUSH1 0xFF AND PUSH1 0xFF AND DUP2 MSTORE PUSH1 0x20 ADD SWAP1 DUP2 MSTORE PUSH1 0x20 ADD PUSH1 0x0 KECCAK256 SWAP1 POP DUP1 PUSH1 0x0 ADD SLOAD DUP2 PUSH1 0x1 ADD SLOAD DUP3 PUSH1 0x2 ADD SLOAD DUP4 PUSH1 0x3 ADD SLOAD DUP5 PUSH1 0x4 ADD PUSH1 0x0 SWAP1 SLOAD SWAP1 PUSH2 0x100 EXP SWAP1 DIV PUSH2 0xFFFF AND DUP6 PUSH1 0x5 ADD SLOAD SWAP7 POP SWAP7 POP SWAP7 POP SWAP7 POP SWAP7 POP SWAP7 POP POP SWAP3 SWAP6 POP SWAP3 SWAP6 POP SWAP3 SWAP6 JUMP JUMPDEST PUSH2 0x3E8 DUP2 JUMP JUMPDEST PUSH2 0x753 PUSH2 0x140A JUMP JUMPDEST DUP3 DUP3 CALLER PUSH20 0xFFFFFFFFFFFFFFFFFFFFFFFFFFFFFFFFFFFFFFFF AND PUSH1 0x0 DUP1 SLOAD SWAP1 PUSH2 0x100 EXP SWAP1 DIV PUSH20 0xFFFFFFFFFFFFFFFFFFFFFFFFFFFFFFFFFFFFFFFF AND PUSH20 0xFFFFFFFFFFFFFFFFFFFFFFFFFFFFFFFFFFFFFFFF AND PUSH4 0x8A888953 DUP5 DUP5 PUSH1 0x40 MLOAD DUP4 PUSH4 0xFFFFFFFF AND PUSH1 0xE0 SHL DUP2 MSTORE PUSH1 0x4 ADD PUSH2 0x7C7 SWAP3 SWAP2 SWAP1 PUSH2 0x1A19 JUMP JUMPDEST PUSH1 0x20 PUSH1 0x40 MLOAD DUP1 DUP4 SUB DUP2 DUP7 GAS STATICCALL ISZERO DUP1 ISZERO PUSH2 0x7E4 JUMPI RETURNDATASIZE PUSH1 0x0 DUP1 RETURNDATACOPY RETURNDATASIZE PUSH1 0x0 REVERT JUMPDEST POP POP POP POP PUSH1 0x40 MLOAD RETURNDATASIZE PUSH1 0x1F NOT PUSH1 0x1F DUP3 ADD AND DUP3 ADD DUP1 PUSH1 0x40 MSTORE POP DUP2 ADD SWAP1 PUSH2 0x808 SWAP2 SWAP1 PUSH2 0x1A80 JUMP JUMPDEST PUSH20 0xFFFFFFFFFFFFFFFFFFFFFFFFFFFFFFFFFFFFFFFF AND EQ PUSH2 0x85E JUMPI PUSH1 0x40 MLOAD PUSH32 0x8C379A000000000000000000000000000000000000000000000000000000000 DUP2 MSTORE PUSH1 0x4 ADD PUSH2 0x855 SWAP1 PUSH2 0x1B0A JUMP JUMPDEST PUSH1 0x40 MLOAD DUP1 SWAP2 SUB SWAP1 REVERT JUMPDEST PUSH2 0x866 PUSH2 0x140A JUMP JUMPDEST PUSH1 0x0 JUMPDEST PUSH1 0x9 PUSH1 0xFF AND DUP2 PUSH1 0xFF AND LT ISZERO PUSH2 0x95E JUMPI PUSH1 0x0 JUMPDEST PUSH1 0x9 PUSH1 0xFF AND DUP2 PUSH1 0xFF AND LT ISZERO PUSH2 0x94A JUMPI PUSH1 0x2 PUSH1 0x0 DUP10 PUSH1 0xFF AND PUSH1 0xFF AND DUP2 MSTORE PUSH1 0x20 ADD SWAP1 DUP2 MSTORE PUSH1 0x20 ADD PUSH1 0x0 KECCAK256 PUSH1 0x0 DUP9 PUSH1 0xFF AND PUSH1 0xFF AND DUP2 MSTORE PUSH1 0x20 ADD SWAP1 DUP2 MSTORE PUSH1 0x20 ADD PUSH1 0x0 KECCAK256 PUSH1 0x0 DUP4 PUSH1 0xFF AND PUSH1 0xFF AND DUP2 MSTORE PUSH1 0x20 ADD SWAP1 DUP2 MSTORE PUSH1 0x20 ADD PUSH1 0x0 KECCAK256 PUSH1 0x0 DUP3 PUSH1 0xFF AND PUSH1 0xFF AND DUP2 MSTORE PUSH1 0x20 ADD SWAP1 DUP2 MSTORE PUSH1 0x20 ADD PUSH1 0x0 KECCAK256 PUSH1 0x0 SWAP1 SLOAD SWAP1 PUSH2 0x100 EXP SWAP1 DIV PUSH1 0xFF AND DUP4 DUP4 PUSH1 0xFF AND PUSH1 0x9 DUP2 LT PUSH2 0x90C JUMPI PUSH2 0x90B PUSH2 0x1C4E JUMP JUMPDEST JUMPDEST PUSH1 0x20 MUL ADD MLOAD DUP3 PUSH1 0xFF AND PUSH1 0x9 DUP2 LT PUSH2 0x926 JUMPI PUSH2 0x925 PUSH2 0x1C4E JUMP JUMPDEST JUMPDEST PUSH1 0x20 MUL ADD SWAP1 PUSH1 0xFF AND SWAP1 DUP2 PUSH1 0xFF AND DUP2 MSTORE POP POP DUP1 DUP1 PUSH2 0x942 SWAP1 PUSH2 0x1CAC JUMP JUMPDEST SWAP2 POP POP PUSH2 0x87B JUMP JUMPDEST POP DUP1 DUP1 PUSH2 0x956 SWAP1 PUSH2 0x1CAC JUMP JUMPDEST SWAP2 POP POP PUSH2 0x869 JUMP JUMPDEST POP DUP1 SWAP4 POP POP POP POP SWAP3 SWAP2 POP POP JUMP JUMPDEST PUSH2 0x1F4 DUP2 JUMP JUMPDEST DUP2 DUP2 CALLER PUSH20 0xFFFFFFFFFFFFFFFFFFFFFFFFFFFFFFFFFFFFFFFF AND PUSH1 0x0 DUP1 SLOAD SWAP1 PUSH2 0x100 EXP SWAP1 DIV PUSH20 0xFFFFFFFFFFFFFFFFFFFFFFFFFFFFFFFFFFFFFFFF AND PUSH20 0xFFFFFFFFFFFFFFFFFFFFFFFFFFFFFFFFFFFFFFFF AND PUSH4 0x8A888953 DUP5 DUP5 PUSH1 0x40 MLOAD DUP4 PUSH4 0xFFFFFFFF AND PUSH1 0xE0 SHL DUP2 MSTORE PUSH1 0x4 ADD PUSH2 0x9E5 SWAP3 SWAP2 SWAP1 PUSH2 0x1A19 JUMP JUMPDEST PUSH1 0x20 PUSH1 0x40 MLOAD DUP1 DUP4 SUB DUP2 DUP7 GAS STATICCALL ISZERO DUP1 ISZERO PUSH2 0xA02 JUMPI RETURNDATASIZE PUSH1 0x0 DUP1 RETURNDATACOPY RETURNDATASIZE PUSH1 0x0 REVERT JUMPDEST POP POP POP POP PUSH1 0x40 MLOAD RETURNDATASIZE PUSH1 0x1F NOT PUSH1 0x1F DUP3 ADD AND DUP3 ADD DUP1 PUSH1 0x40 MSTORE POP DUP2 ADD SWAP1 PUSH2 0xA26 SWAP2 SWAP1 PUSH2 0x1A80 JUMP JUMPDEST PUSH20 0xFFFFFFFFFFFFFFFFFFFFFFFFFFFFFFFFFFFFFFFF AND EQ PUSH2 0xA7C JUMPI PUSH1 0x40 MLOAD PUSH32 0x8C379A000000000000000000000000000000000000000000000000000000000 DUP2 MSTORE PUSH1 0x4 ADD PUSH2 0xA73 SWAP1 PUSH2 0x1B0A JUMP JUMPDEST PUSH1 0x40 MLOAD DUP1 SWAP2 SUB SWAP1 REVERT JUMPDEST PUSH1 0x0 PUSH1 0x1 DUP1 PUSH1 0x0 DUP8 PUSH1 0xFF AND PUSH1 0xFF AND DUP2 MSTORE PUSH1 0x20 ADD SWAP1 DUP2 MSTORE PUSH1 0x20 ADD PUSH1 0x0 KECCAK256 PUSH1 0x0 DUP7 PUSH1 0xFF AND PUSH1 0xFF AND DUP2 MSTORE PUSH1 0x20 ADD SWAP1 DUP2 MSTORE PUSH1 0x20 ADD PUSH1 0x0 KECCAK256 PUSH1 0x7 ADD SLOAD TIMESTAMP PUSH2 0xABE SWAP2 SWAP1 PUSH2 0x1CD5 JUMP JUMPDEST PUSH2 0xAC8 SWAP2 SWAP1 PUSH2 0x1D38 JUMP JUMPDEST PUSH1 0x1 PUSH1 0x0 DUP8 PUSH1 0xFF AND PUSH1 0xFF AND DUP2 MSTORE PUSH1 0x20 ADD SWAP1 DUP2 MSTORE PUSH1 0x20 ADD PUSH1 0x0 KECCAK256 PUSH1 0x0 DUP7 PUSH1 0xFF AND PUSH1 0xFF AND DUP2 MSTORE PUSH1 0x20 ADD SWAP1 DUP2 MSTORE PUSH1 0x20 ADD PUSH1 0x0 KECCAK256 PUSH1 0x6 ADD PUSH1 0x0 SWAP1 SLOAD SWAP1 PUSH2 0x100 EXP SWAP1 DIV PUSH2 0xFFFF AND PUSH2 0xFFFF AND PUSH2 0xB18 SWAP2 SWAP1 PUSH2 0x1D69 JUMP JUMPDEST SWAP1 POP PUSH2 0x258 DUP2 GT PUSH2 0xB29 JUMPI DUP1 PUSH2 0xB2D JUMP JUMPDEST PUSH2 0x258 JUMPDEST PUSH1 0x1 PUSH1 0x0 DUP8 PUSH1 0xFF AND PUSH1 0xFF AND DUP2 MSTORE PUSH1 0x20 ADD SWAP1 DUP2 MSTORE PUSH1 0x20 ADD PUSH1 0x0 KECCAK256 PUSH1 0x0 DUP7 PUSH1 0xFF AND PUSH1 0xFF AND DUP2 MSTORE PUSH1 0x20 ADD SWAP1 DUP2 MSTORE PUSH1 0x20 ADD PUSH1 0x0 KECCAK256 PUSH1 0x6 ADD PUSH1 0x0 PUSH2 0x100 EXP DUP2 SLOAD DUP2 PUSH2 0xFFFF MUL NOT AND SWAP1 DUP4 PUSH2 0xFFFF AND MUL OR SWAP1 SSTORE POP POP POP POP POP POP JUMP JUMPDEST PUSH1 0x9 DUP2 JUMP JUMPDEST DUP2 DUP2 CALLER PUSH20 0xFFFFFFFFFFFFFFFFFFFFFFFFFFFFFFFFFFFFFFFF AND PUSH1 0x0 DUP1 SLOAD SWAP1 PUSH2 0x100 EXP SWAP1 DIV PUSH20 0xFFFFFFFFFFFFFFFFFFFFFFFFFFFFFFFFFFFFFFFF AND PUSH20 0xFFFFFFFFFFFFFFFFFFFFFFFFFFFFFFFFFFFFFFFF AND PUSH4 0x8A888953 DUP5 DUP5 PUSH1 0x40 MLOAD DUP4 PUSH4 0xFFFFFFFF AND PUSH1 0xE0 SHL DUP2 MSTORE PUSH1 0x4 ADD PUSH2 0xBFA SWAP3 SWAP2 SWAP1 PUSH2 0x1A19 JUMP JUMPDEST PUSH1 0x20 PUSH1 0x40 MLOAD DUP1 DUP4 SUB DUP2 DUP7 GAS STATICCALL ISZERO DUP1 ISZERO PUSH2 0xC17 JUMPI RETURNDATASIZE PUSH1 0x0 DUP1 RETURNDATACOPY RETURNDATASIZE PUSH1 0x0 REVERT JUMPDEST POP POP POP POP PUSH1 0x40 MLOAD RETURNDATASIZE PUSH1 0x1F NOT PUSH1 0x1F DUP3 ADD AND DUP3 ADD DUP1 PUSH1 0x40 MSTORE POP DUP2 ADD SWAP1 PUSH2 0xC3B SWAP2 SWAP1 PUSH2 0x1A80 JUMP JUMPDEST PUSH20 0xFFFFFFFFFFFFFFFFFFFFFFFFFFFFFFFFFFFFFFFF AND EQ PUSH2 0xC91 JUMPI PUSH1 0x40 MLOAD PUSH32 0x8C379A000000000000000000000000000000000000000000000000000000000 DUP2 MSTORE PUSH1 0x4 ADD PUSH2 0xC88 SWAP1 PUSH2 0x1B0A JUMP JUMPDEST PUSH1 0x40 MLOAD DUP1 SWAP2 SUB SWAP1 REVERT JUMPDEST PUSH1 0x0 DUP6 PUSH2 0xFFFF AND GT PUSH2 0xCD8 JUMPI PUSH1 0x40 MLOAD PUSH32 0x8C379A000000000000000000000000000000000000000000000000000000000 DUP2 MSTORE PUSH1 0x4 ADD PUSH2 0xCCF SWAP1 PUSH2 0x1DE9 JUMP JUMPDEST PUSH1 0x40 MLOAD DUP1 SWAP2 SUB SWAP1 REVERT JUMPDEST PUSH2 0xCE2 DUP5 DUP5 PUSH2 0x971 JUMP JUMPDEST DUP5 PUSH2 0xFFFF AND PUSH1 0x1 PUSH1 0x0 DUP7 PUSH1 0xFF AND PUSH1 0xFF AND DUP2 MSTORE PUSH1 0x20 ADD SWAP1 DUP2 MSTORE PUSH1 0x20 ADD PUSH1 0x0 KECCAK256 PUSH1 0x0 DUP6 PUSH1 0xFF AND PUSH1 0xFF AND DUP2 MSTORE PUSH1 0x20 ADD SWAP1 DUP2 MSTORE PUSH1 0x20 ADD PUSH1 0x0 KECCAK256 PUSH1 0x6 ADD PUSH1 0x0 SWAP1 SLOAD SWAP1 PUSH2 0x100 EXP SWAP1 DIV PUSH2 0xFFFF AND PUSH2 0xFFFF AND LT ISZERO PUSH2 0xD6E JUMPI PUSH1 0x40 MLOAD PUSH32 0x8C379A000000000000000000000000000000000000000000000000000000000 DUP2 MSTORE PUSH1 0x4 ADD PUSH2 0xD65 SWAP1 PUSH2 0x1E55 JUMP JUMPDEST PUSH1 0x40 MLOAD DUP1 SWAP2 SUB SWAP1 REVERT JUMPDEST PUSH1 0x1 PUSH1 0x0 DUP6 PUSH1 0xFF AND PUSH1 0xFF AND DUP2 MSTORE PUSH1 0x20 ADD SWAP1 DUP2 MSTORE PUSH1 0x20 ADD PUSH1 0x0 KECCAK256 PUSH1 0x0 DUP5 PUSH1 0xFF AND PUSH1 0xFF AND DUP2 MSTORE PUSH1 0x20 ADD SWAP1 DUP2 MSTORE PUSH1 0x20 ADD PUSH1 0x0 KECCAK256 PUSH1 0x5 ADD SLOAD PUSH2 0x3E8 PUSH2 0xDAF SWAP2 SWAP1 PUSH2 0x1CD5 JUMP JUMPDEST DUP6 PUSH2 0xFFFF AND GT ISZERO PUSH2 0xDFE JUMPI PUSH1 0x1 PUSH1 0x0 DUP6 PUSH1 0xFF AND PUSH1 0xFF AND DUP2 MSTORE PUSH1 0x20 ADD SWAP1 DUP2 MSTORE PUSH1 0x20 ADD PUSH1 0x0 KECCAK256 PUSH1 0x0 DUP5 PUSH1 0xFF AND PUSH1 0xFF AND DUP2 MSTORE PUSH1 0x20 ADD SWAP1 DUP2 MSTORE PUSH1 0x20 ADD PUSH1 0x0 KECCAK256 PUSH1 0x5 ADD SLOAD PUSH2 0x3E8 PUSH2 0xDFB SWAP2 SWAP1 PUSH2 0x1CD5 JUMP JUMPDEST SWAP5 POP JUMPDEST DUP5 PUSH1 0x1 PUSH1 0x0 DUP7 PUSH1 0xFF AND PUSH1 0xFF AND DUP2 MSTORE PUSH1 0x20 ADD SWAP1 DUP2 MSTORE PUSH1 0x20 ADD PUSH1 0x0 KECCAK256 PUSH1 0x0 DUP6 PUSH1 0xFF AND PUSH1 0xFF AND DUP2 MSTORE PUSH1 0x20 ADD SWAP1 DUP2 MSTORE PUSH1 0x20 ADD PUSH1 0x0 KECCAK256 PUSH1 0x6 ADD PUSH1 0x0 SWAP1 SLOAD SWAP1 PUSH2 0x100 EXP SWAP1 DIV PUSH2 0xFFFF AND PUSH2 0xE4B SWAP2 SWAP1 PUSH2 0x1E75 JUMP JUMPDEST PUSH1 0x1 PUSH1 0x0 DUP7 PUSH1 0xFF AND PUSH1 0xFF AND DUP2 MSTORE PUSH1 0x20 ADD SWAP1 DUP2 MSTORE PUSH1 0x20 ADD PUSH1 0x0 KECCAK256 PUSH1 0x0 DUP6 PUSH1 0xFF AND PUSH1 0xFF AND DUP2 MSTORE PUSH1 0x20 ADD SWAP1 DUP2 MSTORE PUSH1 0x20 ADD PUSH1 0x0 KECCAK256 PUSH1 0x6 ADD PUSH1 0x0 PUSH2 0x100 EXP DUP2 SLOAD DUP2 PUSH2 0xFFFF MUL NOT AND SWAP1 DUP4 PUSH2 0xFFFF AND MUL OR SWAP1 SSTORE POP TIMESTAMP PUSH1 0x1 PUSH1 0x0 DUP7 PUSH1 0xFF AND PUSH1 0xFF AND DUP2 MSTORE PUSH1 0x20 ADD SWAP1 DUP2 MSTORE PUSH1 0x20 ADD PUSH1 0x0 KECCAK256 PUSH1 0x0 DUP6 PUSH1 0xFF AND PUSH1 0xFF AND DUP2 MSTORE PUSH1 0x20 ADD SWAP1 DUP2 MSTORE PUSH1 0x20 ADD PUSH1 0x0 KECCAK256 PUSH1 0x7 ADD DUP2 SWAP1 SSTORE POP PUSH1 0x0 PUSH1 0x3 DUP6 PUSH1 0xFF AND PUSH1 0x14 DUP2 LT PUSH2 0xEE9 JUMPI PUSH2 0xEE8 PUSH2 0x1C4E JUMP JUMPDEST JUMPDEST ADD DUP5 PUSH1 0xFF AND PUSH1 0x14 DUP2 LT PUSH2 0xEFF JUMPI PUSH2 0xEFE PUSH2 0x1C4E JUMP JUMPDEST JUMPDEST PUSH1 0x20 SWAP2 DUP3 DUP3 DIV ADD SWAP2 SWAP1 MOD SWAP1 SLOAD SWAP1 PUSH2 0x100 EXP SWAP1 DIV PUSH1 0xFF AND SWAP1 POP PUSH1 0x0 PUSH1 0x1 PUSH1 0x0 DUP8 PUSH1 0xFF AND PUSH1 0xFF AND DUP2 MSTORE PUSH1 0x20 ADD SWAP1 DUP2 MSTORE PUSH1 0x20 ADD PUSH1 0x0 KECCAK256 PUSH1 0x0 DUP7 PUSH1 0xFF AND PUSH1 0xFF AND DUP2 MSTORE PUSH1 0x20 ADD SWAP1 DUP2 MSTORE PUSH1 0x20 ADD PUSH1 0x0 KECCAK256 SWAP1 POP PUSH1 0x1 DUP3 PUSH1 0xFF AND SUB PUSH2 0xF7A JUMPI DUP7 PUSH2 0xFFFF AND DUP2 PUSH1 0x0 ADD PUSH1 0x0 DUP3 DUP3 SLOAD PUSH2 0xF6E SWAP2 SWAP1 PUSH2 0x1D69 JUMP JUMPDEST SWAP3 POP POP DUP2 SWAP1 SSTORE POP PUSH2 0x1006 JUMP JUMPDEST PUSH1 0x2 DUP3 PUSH1 0xFF AND SUB PUSH2 0xFA9 JUMPI DUP7 PUSH2 0xFFFF AND DUP2 PUSH1 0x1 ADD PUSH1 0x0 DUP3 DUP3 SLOAD PUSH2 0xF9D SWAP2 SWAP1 PUSH2 0x1D69 JUMP JUMPDEST SWAP3 POP POP DUP2 SWAP1 SSTORE POP PUSH2 0x1005 JUMP JUMPDEST PUSH1 0x3 DUP3 PUSH1 0xFF AND SUB PUSH2 0xFD8 JUMPI DUP7 PUSH2 0xFFFF AND DUP2 PUSH1 0x2 ADD PUSH1 0x0 DUP3 DUP3 SLOAD PUSH2 0xFCC SWAP2 SWAP1 PUSH2 0x1D69 JUMP JUMPDEST SWAP3 POP POP DUP2 SWAP1 SSTORE POP PUSH2 0x1004 JUMP JUMPDEST PUSH1 0x4 DUP3 PUSH1 0xFF AND SUB PUSH2 0x1003 JUMPI DUP7 PUSH2 0xFFFF AND DUP2 PUSH1 0x3 ADD PUSH1 0x0 DUP3 DUP3 SLOAD PUSH2 0xFFB SWAP2 SWAP1 PUSH2 0x1D69 JUMP JUMPDEST SWAP3 POP POP DUP2 SWAP1 SSTORE POP JUMPDEST JUMPDEST JUMPDEST JUMPDEST DUP7 PUSH2 0xFFFF AND DUP2 PUSH1 0x0 ADD PUSH1 0x0 DUP3 DUP3 SLOAD PUSH2 0x101E SWAP2 SWAP1 PUSH2 0x1D69 JUMP JUMPDEST SWAP3 POP POP DUP2 SWAP1 SSTORE POP DUP7 PUSH2 0xFFFF AND DUP2 PUSH1 0x1 ADD PUSH1 0x0 DUP3 DUP3 SLOAD PUSH2 0x103D SWAP2 SWAP1 PUSH2 0x1D69 JUMP JUMPDEST SWAP3 POP POP DUP2 SWAP1 SSTORE POP DUP7 PUSH2 0xFFFF AND DUP2 PUSH1 0x2 ADD PUSH1 0x0 DUP3 DUP3 SLOAD PUSH2 0x105C SWAP2 SWAP1 PUSH2 0x1D69 JUMP JUMPDEST SWAP3 POP POP DUP2 SWAP1 SSTORE POP DUP7 PUSH2 0xFFFF AND DUP2 PUSH1 0x3 ADD PUSH1 0x0 DUP3 DUP3 SLOAD PUSH2 0x107B SWAP2 SWAP1 PUSH2 0x1D69 JUMP JUMPDEST SWAP3 POP POP DUP2 SWAP1 SSTORE POP DUP7 PUSH2 0xFFFF AND DUP2 PUSH1 0x5 ADD PUSH1 0x0 DUP3 DUP3 SLOAD PUSH2 0x109A SWAP2 SWAP1 PUSH2 0x1D69 JUMP JUMPDEST SWAP3 POP POP DUP2 SWAP1 SSTORE POP PUSH1 0x0 PUSH2 0x3E8 DUP3 PUSH1 0x5 ADD SLOAD PUSH2 0x10B5 SWAP2 SWAP1 PUSH2 0x1D38 JUMP JUMPDEST SWAP1 POP PUSH2 0x3E8 DUP3 PUSH1 0x5 ADD PUSH1 0x0 DUP3 DUP3 SLOAD PUSH2 0x10CD SWAP2 SWAP1 PUSH2 0x1EAB JUMP JUMPDEST SWAP3 POP POP DUP2 SWAP1 SSTORE POP PUSH1 0x0 DUP2 DUP4 PUSH1 0x4 ADD PUSH1 0x0 SWAP1 SLOAD SWAP1 PUSH2 0x100 EXP SWAP1 DIV PUSH2 0xFFFF AND PUSH2 0x10F4 SWAP2 SWAP1 PUSH2 0x1EDC JUMP JUMPDEST SWAP1 POP PUSH2 0x1F4 PUSH2 0xFFFF AND DUP2 PUSH2 0xFFFF AND GT ISZERO PUSH2 0x112E JUMPI PUSH2 0x1F4 DUP4 PUSH1 0x4 ADD PUSH1 0x0 PUSH2 0x100 EXP DUP2 SLOAD DUP2 PUSH2 0xFFFF MUL NOT AND SWAP1 DUP4 PUSH2 0xFFFF AND MUL OR SWAP1 SSTORE POP PUSH2 0x114E JUMP JUMPDEST DUP1 DUP4 PUSH1 0x4 ADD PUSH1 0x0 PUSH2 0x100 EXP DUP2 SLOAD DUP2 PUSH2 0xFFFF MUL NOT AND SWAP1 DUP4 PUSH2 0xFFFF AND MUL OR SWAP1 SSTORE POP JUMPDEST CALLER PUSH20 0xFFFFFFFFFFFFFFFFFFFFFFFFFFFFFFFFFFFFFFFF AND PUSH32 0xBB5B4F7847476E1912E2B57D030B0E491D0D72B2EF256CCEEA9DAA41F40F5D18 DUP11 DUP11 DUP11 PUSH1 0x40 MLOAD PUSH2 0x1198 SWAP4 SWAP3 SWAP2 SWAP1 PUSH2 0x1F43 JUMP JUMPDEST PUSH1 0x40 MLOAD DUP1 SWAP2 SUB SWAP1 LOG2 POP POP POP POP POP POP POP POP POP JUMP JUMPDEST PUSH1 0x0 DUP3 DUP3 CALLER PUSH20 0xFFFFFFFFFFFFFFFFFFFFFFFFFFFFFFFFFFFFFFFF AND PUSH1 0x0 DUP1 SLOAD SWAP1 PUSH2 0x100 EXP SWAP1 DIV PUSH20 0xFFFFFFFFFFFFFFFFFFFFFFFFFFFFFFFFFFFFFFFF AND PUSH20 0xFFFFFFFFFFFFFFFFFFFFFFFFFFFFFFFFFFFFFFFF AND PUSH4 0x8A888953 DUP5 DUP5 PUSH1 0x40 MLOAD DUP4 PUSH4 0xFFFFFFFF AND PUSH1 0xE0 SHL DUP2 MSTORE PUSH1 0x4 ADD PUSH2 0x1221 SWAP3 SWAP2 SWAP1 PUSH2 0x1A19 JUMP JUMPDEST PUSH1 0x20 PUSH1 0x40 MLOAD DUP1 DUP4 SUB DUP2 DUP7 GAS STATICCALL ISZERO DUP1 ISZERO PUSH2 0x123E JUMPI RETURNDATASIZE PUSH1 0x0 DUP1 RETURNDATACOPY RETURNDATASIZE PUSH1 0x0 REVERT JUMPDEST POP POP POP POP PUSH1 0x40 MLOAD RETURNDATASIZE PUSH1 0x1F NOT PUSH1 0x1F DUP3 ADD AND DUP3 ADD DUP1 PUSH1 0x40 MSTORE POP DUP2 ADD SWAP1 PUSH2 0x1262 SWAP2 SWAP1 PUSH2 0x1A80 JUMP JUMPDEST PUSH20 0xFFFFFFFFFFFFFFFFFFFFFFFFFFFFFFFFFFFFFFFF AND EQ PUSH2 0x12B8 JUMPI PUSH1 0x40 MLOAD PUSH32 0x8C379A000000000000000000000000000000000000000000000000000000000 DUP2 MSTORE PUSH1 0x4 ADD PUSH2 0x12AF SWAP1 PUSH2 0x1B0A JUMP JUMPDEST PUSH1 0x40 MLOAD DUP1 SWAP2 SUB SWAP1 REVERT JUMPDEST PUSH2 0x258 PUSH1 0x1 DUP1 PUSH1 0x0 DUP9 PUSH1 0xFF AND PUSH1 0xFF AND DUP2 MSTORE PUSH1 0x20 ADD SWAP1 DUP2 MSTORE PUSH1 0x20 ADD PUSH1 0x0 KECCAK256 PUSH1 0x0 DUP8 PUSH1 0xFF AND PUSH1 0xFF AND DUP2 MSTORE PUSH1 0x20 ADD SWAP1 DUP2 MSTORE PUSH1 0x20 ADD PUSH1 0x0 KECCAK256 PUSH1 0x7 ADD SLOAD TIMESTAMP PUSH2 0x12FB SWAP2 SWAP1 PUSH2 0x1CD5 JUMP JUMPDEST PUSH2 0x1305 SWAP2 SWAP1 PUSH2 0x1D38 JUMP JUMPDEST PUSH1 0x1 PUSH1 0x0 DUP9 PUSH1 0xFF AND PUSH1 0xFF AND DUP2 MSTORE PUSH1 0x20 ADD SWAP1 DUP2 MSTORE PUSH1 0x20 ADD PUSH1 0x0 KECCAK256 PUSH1 0x0 DUP8 PUSH1 0xFF AND PUSH1 0xFF AND DUP2 MSTORE PUSH1 0x20 ADD SWAP1 DUP2 MSTORE PUSH1 0x20 ADD PUSH1 0x0 KECCAK256 PUSH1 0x6 ADD PUSH1 0x0 SWAP1 SLOAD SWAP1 PUSH2 0x100 EXP SWAP1 DIV PUSH2 0xFFFF AND PUSH2 0xFFFF AND PUSH2 0x1355 SWAP2 SWAP1 PUSH2 0x1D69 JUMP JUMPDEST GT ISZERO PUSH2 0x1365 JUMPI PUSH2 0x258 SWAP3 POP PUSH2 0x1402 JUMP JUMPDEST PUSH1 0x1 DUP1 PUSH1 0x0 DUP8 PUSH1 0xFF AND PUSH1 0xFF AND DUP2 MSTORE PUSH1 0x20 ADD SWAP1 DUP2 MSTORE PUSH1 0x20 ADD PUSH1 0x0 KECCAK256 PUSH1 0x0 DUP7 PUSH1 0xFF AND PUSH1 0xFF AND DUP2 MSTORE PUSH1 0x20 ADD SWAP1 DUP2 MSTORE PUSH1 0x20 ADD PUSH1 0x0 KECCAK256 PUSH1 0x7 ADD SLOAD TIMESTAMP PUSH2 0x13A5 SWAP2 SWAP1 PUSH2 0x1CD5 JUMP JUMPDEST PUSH2 0x13AF SWAP2 SWAP1 PUSH2 0x1D38 JUMP JUMPDEST PUSH1 0x1 PUSH1 0x0 DUP8 PUSH1 0xFF AND PUSH1 0xFF AND DUP2 MSTORE PUSH1 0x20 ADD SWAP1 DUP2 MSTORE PUSH1 0x20 ADD PUSH1 0x0 KECCAK256 PUSH1 0x0 DUP7 PUSH1 0xFF AND PUSH1 0xFF AND DUP2 MSTORE PUSH1 0x20 ADD SWAP1 DUP2 MSTORE PUSH1 0x20 ADD PUSH1 0x0 KECCAK256 PUSH1 0x6 ADD PUSH1 0x0 SWAP1 SLOAD SWAP1 PUSH2 0x100 EXP SWAP1 DIV PUSH2 0xFFFF AND PUSH2 0xFFFF AND PUSH2 0x13FF SWAP2 SWAP1 PUSH2 0x1D69 JUMP JUMPDEST SWAP3 POP JUMPDEST POP POP SWAP3 SWAP2 POP POP JUMP JUMPDEST PUSH1 0x40 MLOAD DUP1 PUSH2 0x120 ADD PUSH1 0x40 MSTORE DUP1 PUSH1 0x9 SWAP1 JUMPDEST PUSH2 0x1422 PUSH2 0x1438 JUMP JUMPDEST DUP2 MSTORE PUSH1 0x20 ADD SWAP1 PUSH1 0x1 SWAP1 SUB SWAP1 DUP2 PUSH2 0x141A JUMPI SWAP1 POP POP SWAP1 JUMP JUMPDEST PUSH1 0x40 MLOAD DUP1 PUSH2 0x120 ADD PUSH1 0x40 MSTORE DUP1 PUSH1 0x9 SWAP1 PUSH1 0x20 DUP3 MUL DUP1 CALLDATASIZE DUP4 CALLDATACOPY DUP1 DUP3 ADD SWAP2 POP POP SWAP1 POP POP SWAP1 JUMP JUMPDEST PUSH1 0x0 DUP1 REVERT JUMPDEST PUSH1 0x0 PUSH1 0xFF DUP3 AND SWAP1 POP SWAP2 SWAP1 POP JUMP JUMPDEST PUSH2 0x1476 DUP2 PUSH2 0x1460 JUMP JUMPDEST DUP2 EQ PUSH2 0x1481 JUMPI PUSH1 0x0 DUP1 REVERT JUMPDEST POP JUMP JUMPDEST PUSH1 0x0 DUP2 CALLDATALOAD SWAP1 POP PUSH2 0x1493 DUP2 PUSH2 0x146D JUMP JUMPDEST SWAP3 SWAP2 POP POP JUMP JUMPDEST PUSH1 0x0 DUP1 PUSH1 0x0 DUP1 PUSH1 0x0 PUSH1 0xA0 DUP7 DUP9 SUB SLT ISZERO PUSH2 0x14B5 JUMPI PUSH2 0x14B4 PUSH2 0x145B JUMP JUMPDEST JUMPDEST PUSH1 0x0 PUSH2 0x14C3 DUP9 DUP3 DUP10 ADD PUSH2 0x1484 JUMP JUMPDEST SWAP6 POP POP PUSH1 0x20 PUSH2 0x14D4 DUP9 DUP3 DUP10 ADD PUSH2 0x1484 JUMP JUMPDEST SWAP5 POP POP PUSH1 0x40 PUSH2 0x14E5 DUP9 DUP3 DUP10 ADD PUSH2 0x1484 JUMP JUMPDEST SWAP4 POP POP PUSH1 0x60 PUSH2 0x14F6 DUP9 DUP3 DUP10 ADD PUSH2 0x1484 JUMP JUMPDEST SWAP3 POP POP PUSH1 0x80 PUSH2 0x1507 DUP9 DUP3 DUP10 ADD PUSH2 0x1484 JUMP JUMPDEST SWAP2 POP POP SWAP3 SWAP6 POP SWAP3 SWAP6 SWAP1 SWAP4 POP JUMP JUMPDEST PUSH1 0x0 PUSH20 0xFFFFFFFFFFFFFFFFFFFFFFFFFFFFFFFFFFFFFFFF DUP3 AND SWAP1 POP SWAP2 SWAP1 POP JUMP JUMPDEST PUSH1 0x0 DUP2 SWAP1 POP SWAP2 SWAP1 POP JUMP JUMPDEST PUSH1 0x0 PUSH2 0x1559 PUSH2 0x1554 PUSH2 0x154F DUP5 PUSH2 0x1514 JUMP JUMPDEST PUSH2 0x1534 JUMP JUMPDEST PUSH2 0x1514 JUMP JUMPDEST SWAP1 POP SWAP2 SWAP1 POP JUMP JUMPDEST PUSH1 0x0 PUSH2 0x156B DUP3 PUSH2 0x153E JUMP JUMPDEST SWAP1 POP SWAP2 SWAP1 POP JUMP JUMPDEST PUSH1 0x0 PUSH2 0x157D DUP3 PUSH2 0x1560 JUMP JUMPDEST SWAP1 POP SWAP2 SWAP1 POP JUMP JUMPDEST PUSH2 0x158D DUP2 PUSH2 0x1572 JUMP JUMPDEST DUP3 MSTORE POP POP JUMP JUMPDEST PUSH1 0x0 PUSH1 0x20 DUP3 ADD SWAP1 POP PUSH2 0x15A8 PUSH1 0x0 DUP4 ADD DUP5 PUSH2 0x1584 JUMP JUMPDEST SWAP3 SWAP2 POP POP JUMP JUMPDEST PUSH1 0x0 DUP1 PUSH1 0x40 DUP4 DUP6 SUB SLT ISZERO PUSH2 0x15C5 JUMPI PUSH2 0x15C4 PUSH2 0x145B JUMP JUMPDEST JUMPDEST PUSH1 0x0 PUSH2 0x15D3 DUP6 DUP3 DUP7 ADD PUSH2 0x1484 JUMP JUMPDEST SWAP3 POP POP PUSH1 0x20 PUSH2 0x15E4 DUP6 DUP3 DUP7 ADD PUSH2 0x1484 JUMP JUMPDEST SWAP2 POP POP SWAP3 POP SWAP3 SWAP1 POP JUMP JUMPDEST PUSH1 0x0 DUP2 SWAP1 POP SWAP2 SWAP1 POP JUMP JUMPDEST PUSH2 0x1601 DUP2 PUSH2 0x15EE JUMP JUMPDEST DUP3 MSTORE POP POP JUMP JUMPDEST PUSH1 0x0 PUSH2 0xFFFF DUP3 AND SWAP1 POP SWAP2 SWAP1 POP JUMP JUMPDEST PUSH2 0x161E DUP2 PUSH2 0x1607 JUMP JUMPDEST DUP3 MSTORE POP POP JUMP JUMPDEST PUSH1 0x0 PUSH2 0x100 DUP3 ADD SWAP1 POP PUSH2 0x163A PUSH1 0x0 DUP4 ADD DUP12 PUSH2 0x15F8 JUMP JUMPDEST PUSH2 0x1647 PUSH1 0x20 DUP4 ADD DUP11 PUSH2 0x15F8 JUMP JUMPDEST PUSH2 0x1654 PUSH1 0x40 DUP4 ADD DUP10 PUSH2 0x15F8 JUMP JUMPDEST PUSH2 0x1661 PUSH1 0x60 DUP4 ADD DUP9 PUSH2 0x15F8 JUMP JUMPDEST PUSH2 0x166E PUSH1 0x80 DUP4 ADD DUP8 PUSH2 0x1615 JUMP JUMPDEST PUSH2 0x167B PUSH1 0xA0 DUP4 ADD DUP7 PUSH2 0x15F8 JUMP JUMPDEST PUSH2 0x1688 PUSH1 0xC0 DUP4 ADD DUP6 PUSH2 0x1615 JUMP JUMPDEST PUSH2 0x1695 PUSH1 0xE0 DUP4 ADD DUP5 PUSH2 0x15F8 JUMP JUMPDEST SWAP10 SWAP9 POP POP POP POP POP POP POP POP POP JUMP JUMPDEST PUSH1 0x0 DUP1 PUSH1 0x0 DUP1 PUSH1 0x80 DUP6 DUP8 SUB SLT ISZERO PUSH2 0x16BC JUMPI PUSH2 0x16BB PUSH2 0x145B JUMP JUMPDEST JUMPDEST PUSH1 0x0 PUSH2 0x16CA DUP8 DUP3 DUP9 ADD PUSH2 0x1484 JUMP JUMPDEST SWAP5 POP POP PUSH1 0x20 PUSH2 0x16DB DUP8 DUP3 DUP9 ADD PUSH2 0x1484 JUMP JUMPDEST SWAP4 POP POP PUSH1 0x40 PUSH2 0x16EC DUP8 DUP3 DUP9 ADD PUSH2 0x1484 JUMP JUMPDEST SWAP3 POP POP PUSH1 0x60 PUSH2 0x16FD DUP8 DUP3 DUP9 ADD PUSH2 0x1484 JUMP JUMPDEST SWAP2 POP POP SWAP3 SWAP6 SWAP2 SWAP5 POP SWAP3 POP JUMP JUMPDEST PUSH2 0x1712 DUP2 PUSH2 0x1460 JUMP JUMPDEST DUP3 MSTORE POP POP JUMP JUMPDEST PUSH1 0x0 PUSH1 0x20 DUP3 ADD SWAP1 POP PUSH2 0x172D PUSH1 0x0 DUP4 ADD DUP5 PUSH2 0x1709 JUMP JUMPDEST SWAP3 SWAP2 POP POP JUMP JUMPDEST PUSH2 0x173C DUP2 PUSH2 0x15EE JUMP JUMPDEST DUP2 EQ PUSH2 0x1747 JUMPI PUSH1 0x0 DUP1 REVERT JUMPDEST POP JUMP JUMPDEST PUSH1 0x0 DUP2 CALLDATALOAD SWAP1 POP PUSH2 0x1759 DUP2 PUSH2 0x1733 JUMP JUMPDEST SWAP3 SWAP2 POP POP JUMP JUMPDEST PUSH1 0x0 DUP1 PUSH1 0x40 DUP4 DUP6 SUB SLT ISZERO PUSH2 0x1776 JUMPI PUSH2 0x1775 PUSH2 0x145B JUMP JUMPDEST JUMPDEST PUSH1 0x0 PUSH2 0x1784 DUP6 DUP3 DUP7 ADD PUSH2 0x174A JUMP JUMPDEST SWAP3 POP POP PUSH1 0x20 PUSH2 0x1795 DUP6 DUP3 DUP7 ADD PUSH2 0x174A JUMP JUMPDEST SWAP2 POP POP SWAP3 POP SWAP3 SWAP1 POP JUMP JUMPDEST PUSH1 0x0 PUSH1 0xC0 DUP3 ADD SWAP1 POP PUSH2 0x17B4 PUSH1 0x0 DUP4 ADD DUP10 PUSH2 0x15F8 JUMP JUMPDEST PUSH2 0x17C1 PUSH1 0x20 DUP4 ADD DUP9 PUSH2 0x15F8 JUMP JUMPDEST PUSH2 0x17CE PUSH1 0x40 DUP4 ADD DUP8 PUSH2 0x15F8 JUMP JUMPDEST PUSH2 0x17DB PUSH1 0x60 DUP4 ADD DUP7 PUSH2 0x15F8 JUMP JUMPDEST PUSH2 0x17E8 PUSH1 0x80 DUP4 ADD DUP6 PUSH2 0x1615 JUMP JUMPDEST PUSH2 0x17F5 PUSH1 0xA0 DUP4 ADD DUP5 PUSH2 0x15F8 JUMP JUMPDEST SWAP8 SWAP7 POP POP POP POP POP POP POP JUMP JUMPDEST PUSH1 0x0 PUSH1 0x20 DUP3 ADD SWAP1 POP PUSH2 0x1815 PUSH1 0x0 DUP4 ADD DUP5 PUSH2 0x15F8 JUMP JUMPDEST SWAP3 SWAP2 POP POP JUMP JUMPDEST PUSH1 0x0 PUSH1 0x9 SWAP1 POP SWAP2 SWAP1 POP JUMP JUMPDEST PUSH1 0x0 DUP2 SWAP1 POP SWAP3 SWAP2 POP POP JUMP JUMPDEST PUSH1 0x0 DUP2 SWAP1 POP SWAP2 SWAP1 POP JUMP JUMPDEST PUSH1 0x0 PUSH1 0x9 SWAP1 POP SWAP2 SWAP1 POP JUMP JUMPDEST PUSH1 0x0 DUP2 SWAP1 POP SWAP3 SWAP2 POP POP JUMP JUMPDEST PUSH1 0x0 DUP2 SWAP1 POP SWAP2 SWAP1 POP JUMP JUMPDEST PUSH2 0x1864 DUP2 PUSH2 0x1460 JUMP JUMPDEST DUP3 MSTORE POP POP JUMP JUMPDEST PUSH1 0x0 PUSH2 0x1876 DUP4 DUP4 PUSH2 0x185B JUMP JUMPDEST PUSH1 0x20 DUP4 ADD SWAP1 POP SWAP3 SWAP2 POP POP JUMP JUMPDEST PUSH1 0x0 PUSH1 0x20 DUP3 ADD SWAP1 POP SWAP2 SWAP1 POP JUMP JUMPDEST PUSH2 0x1898 DUP2 PUSH2 0x183B JUMP JUMPDEST PUSH2 0x18A2 DUP2 DUP5 PUSH2 0x1846 JUMP JUMPDEST SWAP3 POP PUSH2 0x18AD DUP3 PUSH2 0x1851 JUMP JUMPDEST DUP1 PUSH1 0x0 JUMPDEST DUP4 DUP2 LT ISZERO PUSH2 0x18DE JUMPI DUP2 MLOAD PUSH2 0x18C5 DUP8 DUP3 PUSH2 0x186A JUMP JUMPDEST SWAP7 POP PUSH2 0x18D0 DUP4 PUSH2 0x1882 JUMP JUMPDEST SWAP3 POP POP PUSH1 0x1 DUP2 ADD SWAP1 POP PUSH2 0x18B1 JUMP JUMPDEST POP POP POP POP POP POP JUMP JUMPDEST PUSH1 0x0 PUSH2 0x18F2 DUP4 DUP4 PUSH2 0x188F JUMP JUMPDEST PUSH2 0x120 DUP4 ADD SWAP1 POP SWAP3 SWAP2 POP POP JUMP JUMPDEST PUSH1 0x0 PUSH1 0x20 DUP3 ADD SWAP1 POP SWAP2 SWAP1 POP JUMP JUMPDEST PUSH2 0x1915 DUP2 PUSH2 0x181B JUMP JUMPDEST PUSH2 0x191F DUP2 DUP5 PUSH2 0x1826 JUMP JUMPDEST SWAP3 POP PUSH2 0x192A DUP3 PUSH2 0x1831 JUMP JUMPDEST DUP1 PUSH1 0x0 JUMPDEST DUP4 DUP2 LT ISZERO PUSH2 0x195B JUMPI DUP2 MLOAD PUSH2 0x1942 DUP8 DUP3 PUSH2 0x18E6 JUMP JUMPDEST SWAP7 POP PUSH2 0x194D DUP4 PUSH2 0x18FF JUMP JUMPDEST SWAP3 POP POP PUSH1 0x1 DUP2 ADD SWAP1 POP PUSH2 0x192E JUMP JUMPDEST POP POP POP POP POP POP JUMP JUMPDEST PUSH1 0x0 PUSH2 0xA20 DUP3 ADD SWAP1 POP PUSH2 0x1979 PUSH1 0x0 DUP4 ADD DUP5 PUSH2 0x190C JUMP JUMPDEST SWAP3 SWAP2 POP POP JUMP JUMPDEST PUSH1 0x0 PUSH1 0x20 DUP3 ADD SWAP1 POP PUSH2 0x1994 PUSH1 0x0 DUP4 ADD DUP5 PUSH2 0x1615 JUMP JUMPDEST SWAP3 SWAP2 POP POP JUMP JUMPDEST PUSH2 0x19A3 DUP2 PUSH2 0x1607 JUMP JUMPDEST DUP2 EQ PUSH2 0x19AE JUMPI PUSH1 0x0 DUP1 REVERT JUMPDEST POP JUMP JUMPDEST PUSH1 0x0 DUP2 CALLDATALOAD SWAP1 POP PUSH2 0x19C0 DUP2 PUSH2 0x199A JUMP JUMPDEST SWAP3 SWAP2 POP POP JUMP JUMPDEST PUSH1 0x0 DUP1 PUSH1 0x0 PUSH1 0x60 DUP5 DUP7 SUB SLT ISZERO PUSH2 0x19DF JUMPI PUSH2 0x19DE PUSH2 0x145B JUMP JUMPDEST JUMPDEST PUSH1 0x0 PUSH2 0x19ED DUP7 DUP3 DUP8 ADD PUSH2 0x19B1 JUMP JUMPDEST SWAP4 POP POP PUSH1 0x20 PUSH2 0x19FE DUP7 DUP3 DUP8 ADD PUSH2 0x1484 JUMP JUMPDEST SWAP3 POP POP PUSH1 0x40 PUSH2 0x1A0F DUP7 DUP3 DUP8 ADD PUSH2 0x1484 JUMP JUMPDEST SWAP2 POP POP SWAP3 POP SWAP3 POP SWAP3 JUMP JUMPDEST PUSH1 0x0 PUSH1 0x40 DUP3 ADD SWAP1 POP PUSH2 0x1A2E PUSH1 0x0 DUP4 ADD DUP6 PUSH2 0x1709 JUMP JUMPDEST PUSH2 0x1A3B PUSH1 0x20 DUP4 ADD DUP5 PUSH2 0x1709 JUMP JUMPDEST SWAP4 SWAP3 POP POP POP JUMP JUMPDEST PUSH1 0x0 PUSH2 0x1A4D DUP3 PUSH2 0x1514 JUMP JUMPDEST SWAP1 POP SWAP2 SWAP1 POP JUMP JUMPDEST PUSH2 0x1A5D DUP2 PUSH2 0x1A42 JUMP JUMPDEST DUP2 EQ PUSH2 0x1A68 JUMPI PUSH1 0x0 DUP1 REVERT JUMPDEST POP JUMP JUMPDEST PUSH1 0x0 DUP2 MLOAD SWAP1 POP PUSH2 0x1A7A DUP2 PUSH2 0x1A54 JUMP JUMPDEST SWAP3 SWAP2 POP POP JUMP JUMPDEST PUSH1 0x0 PUSH1 0x20 DUP3 DUP5 SUB SLT ISZERO PUSH2 0x1A96 JUMPI PUSH2 0x1A95 PUSH2 0x145B JUMP JUMPDEST JUMPDEST PUSH1 0x0 PUSH2 0x1AA4 DUP5 DUP3 DUP6 ADD PUSH2 0x1A6B JUMP JUMPDEST SWAP2 POP POP SWAP3 SWAP2 POP POP JUMP JUMPDEST PUSH1 0x0 DUP3 DUP3 MSTORE PUSH1 0x20 DUP3 ADD SWAP1 POP SWAP3 SWAP2 POP POP JUMP JUMPDEST PUSH32 0x596F7520646F206E6F74206F776E20746869732074696C650000000000000000 PUSH1 0x0 DUP3 ADD MSTORE POP JUMP JUMPDEST PUSH1 0x0 PUSH2 0x1AF4 PUSH1 0x18 DUP4 PUSH2 0x1AAD JUMP JUMPDEST SWAP2 POP PUSH2 0x1AFF DUP3 PUSH2 0x1ABE JUMP JUMPDEST PUSH1 0x20 DUP3 ADD SWAP1 POP SWAP2 SWAP1 POP JUMP JUMPDEST PUSH1 0x0 PUSH1 0x20 DUP3 ADD SWAP1 POP DUP2 DUP2 SUB PUSH1 0x0 DUP4 ADD MSTORE PUSH2 0x1B23 DUP2 PUSH2 0x1AE7 JUMP JUMPDEST SWAP1 POP SWAP2 SWAP1 POP JUMP JUMPDEST PUSH32 0x496E76616C696420696E746572696F722074696C6520636F6F7264696E617465 PUSH1 0x0 DUP3 ADD MSTORE PUSH32 0x7300000000000000000000000000000000000000000000000000000000000000 PUSH1 0x20 DUP3 ADD MSTORE POP JUMP JUMPDEST PUSH1 0x0 PUSH2 0x1B86 PUSH1 0x21 DUP4 PUSH2 0x1AAD JUMP JUMPDEST SWAP2 POP PUSH2 0x1B91 DUP3 PUSH2 0x1B2A JUMP JUMPDEST PUSH1 0x40 DUP3 ADD SWAP1 POP SWAP2 SWAP1 POP JUMP JUMPDEST PUSH1 0x0 PUSH1 0x20 DUP3 ADD SWAP1 POP DUP2 DUP2 SUB PUSH1 0x0 DUP4 ADD MSTORE PUSH2 0x1BB5 DUP2 PUSH2 0x1B79 JUMP JUMPDEST SWAP1 POP SWAP2 SWAP1 POP JUMP JUMPDEST PUSH32 0x41206275696C64696E6720616C726561647920657869737473206F6E20746869 PUSH1 0x0 DUP3 ADD MSTORE PUSH32 0x732074696C650000000000000000000000000000000000000000000000000000 PUSH1 0x20 DUP3 ADD MSTORE POP JUMP JUMPDEST PUSH1 0x0 PUSH2 0x1C18 PUSH1 0x26 DUP4 PUSH2 0x1AAD JUMP JUMPDEST SWAP2 POP PUSH2 0x1C23 DUP3 PUSH2 0x1BBC JUMP JUMPDEST PUSH1 0x40 DUP3 ADD SWAP1 POP SWAP2 SWAP1 POP JUMP JUMPDEST PUSH1 0x0 PUSH1 0x20 DUP3 ADD SWAP1 POP DUP2 DUP2 SUB PUSH1 0x0 DUP4 ADD MSTORE PUSH2 0x1C47 DUP2 PUSH2 0x1C0B JUMP JUMPDEST SWAP1 POP SWAP2 SWAP1 POP JUMP JUMPDEST PUSH32 0x4E487B7100000000000000000000000000000000000000000000000000000000 PUSH1 0x0 MSTORE PUSH1 0x32 PUSH1 0x4 MSTORE PUSH1 0x24 PUSH1 0x0 REVERT JUMPDEST PUSH32 0x4E487B7100000000000000000000000000000000000000000000000000000000 PUSH1 0x0 MSTORE PUSH1 0x11 PUSH1 0x4 MSTORE PUSH1 0x24 PUSH1 0x0 REVERT JUMPDEST PUSH1 0x0 PUSH2 0x1CB7 DUP3 PUSH2 0x1460 JUMP JUMPDEST SWAP2 POP PUSH1 0xFF DUP3 SUB PUSH2 0x1CCA JUMPI PUSH2 0x1CC9 PUSH2 0x1C7D JUMP JUMPDEST JUMPDEST PUSH1 0x1 DUP3 ADD SWAP1 POP SWAP2 SWAP1 POP JUMP JUMPDEST PUSH1 0x0 PUSH2 0x1CE0 DUP3 PUSH2 0x15EE JUMP JUMPDEST SWAP2 POP PUSH2 0x1CEB DUP4 PUSH2 0x15EE JUMP JUMPDEST SWAP3 POP DUP3 DUP3 SUB SWAP1 POP DUP2 DUP2 GT ISZERO PUSH2 0x1D03 JUMPI PUSH2 0x1D02 PUSH2 0x1C7D JUMP JUMPDEST JUMPDEST SWAP3 SWAP2 POP POP JUMP JUMPDEST PUSH32 0x4E487B7100000000000000000000000000000000000000000000000000000000 PUSH1 0x0 MSTORE PUSH1 0x12 PUSH1 0x4 MSTORE PUSH1 0x24 PUSH1 0x0 REVERT JUMPDEST PUSH1 0x0 PUSH2 0x1D43 DUP3 PUSH2 0x15EE JUMP JUMPDEST SWAP2 POP PUSH2 0x1D4E DUP4 PUSH2 0x15EE JUMP JUMPDEST SWAP3 POP DUP3 PUSH2 0x1D5E JUMPI PUSH2 0x1D5D PUSH2 0x1D09 JUMP JUMPDEST JUMPDEST DUP3 DUP3 DIV SWAP1 POP SWAP3 SWAP2 POP POP JUMP JUMPDEST PUSH1 0x0 PUSH2 0x1D74 DUP3 PUSH2 0x15EE JUMP JUMPDEST SWAP2 POP PUSH2 0x1D7F DUP4 PUSH2 0x15EE JUMP JUMPDEST SWAP3 POP DUP3 DUP3 ADD SWAP1 POP DUP1 DUP3 GT ISZERO PUSH2 0x1D97 JUMPI PUSH2 0x1D96 PUSH2 0x1C7D JUMP JUMPDEST JUMPDEST SWAP3 SWAP2 POP POP JUMP JUMPDEST PUSH32 0x5475726E73206D7573742062652067726561746572207468616E203000000000 PUSH1 0x0 DUP3 ADD MSTORE POP JUMP JUMPDEST PUSH1 0x0 PUSH2 0x1DD3 PUSH1 0x1C DUP4 PUSH2 0x1AAD JUMP JUMPDEST SWAP2 POP PUSH2 0x1DDE DUP3 PUSH2 0x1D9D JUMP JUMPDEST PUSH1 0x20 DUP3 ADD SWAP1 POP SWAP2 SWAP1 POP JUMP JUMPDEST PUSH1 0x0 PUSH1 0x20 DUP3 ADD SWAP1 POP DUP2 DUP2 SUB PUSH1 0x0 DUP4 ADD MSTORE PUSH2 0x1E02 DUP2 PUSH2 0x1DC6 JUMP JUMPDEST SWAP1 POP SWAP2 SWAP1 POP JUMP JUMPDEST PUSH32 0x5475726E58000000000000000000000000000000000000000000000000000000 PUSH1 0x0 DUP3 ADD MSTORE POP JUMP JUMPDEST PUSH1 0x0 PUSH2 0x1E3F PUSH1 0x5 DUP4 PUSH2 0x1AAD JUMP JUMPDEST SWAP2 POP PUSH2 0x1E4A DUP3 PUSH2 0x1E09 JUMP JUMPDEST PUSH1 0x20 DUP3 ADD SWAP1 POP SWAP2 SWAP1 POP JUMP JUMPDEST PUSH1 0x0 PUSH1 0x20 DUP3 ADD SWAP1 POP DUP2 DUP2 SUB PUSH1 0x0 DUP4 ADD MSTORE PUSH2 0x1E6E DUP2 PUSH2 0x1E32 JUMP JUMPDEST SWAP1 POP SWAP2 SWAP1 POP JUMP JUMPDEST PUSH1 0x0 PUSH2 0x1E80 DUP3 PUSH2 0x1607 JUMP JUMPDEST SWAP2 POP PUSH2 0x1E8B DUP4 PUSH2 0x1607 JUMP JUMPDEST SWAP3 POP DUP3 DUP3 SUB SWAP1 POP PUSH2 0xFFFF DUP2 GT ISZERO PUSH2 0x1EA5 JUMPI PUSH2 0x1EA4 PUSH2 0x1C7D JUMP JUMPDEST JUMPDEST SWAP3 SWAP2 POP POP JUMP JUMPDEST PUSH1 0x0 PUSH2 0x1EB6 DUP3 PUSH2 0x15EE JUMP JUMPDEST SWAP2 POP PUSH2 0x1EC1 DUP4 PUSH2 0x15EE JUMP JUMPDEST SWAP3 POP DUP3 PUSH2 0x1ED1 JUMPI PUSH2 0x1ED0 PUSH2 0x1D09 JUMP JUMPDEST JUMPDEST DUP3 DUP3 MOD SWAP1 POP SWAP3 SWAP2 POP POP JUMP JUMPDEST PUSH1 0x0 PUSH2 0x1EE7 DUP3 PUSH2 0x1607 JUMP JUMPDEST SWAP2 POP PUSH2 0x1EF2 DUP4 PUSH2 0x1607 JUMP JUMPDEST SWAP3 POP DUP3 DUP3 ADD SWAP1 POP PUSH2 0xFFFF DUP2 GT ISZERO PUSH2 0x1F0C JUMPI PUSH2 0x1F0B PUSH2 0x1C7D JUMP JUMPDEST JUMPDEST SWAP3 SWAP2 POP POP JUMP JUMPDEST PUSH1 0x0 PUSH2 0x1F2D PUSH2 0x1F28 PUSH2 0x1F23 DUP5 PUSH2 0x1607 JUMP JUMPDEST PUSH2 0x1534 JUMP JUMPDEST PUSH2 0x15EE JUMP JUMPDEST SWAP1 POP SWAP2 SWAP1 POP JUMP JUMPDEST PUSH2 0x1F3D DUP2 PUSH2 0x1F12 JUMP JUMPDEST DUP3 MSTORE POP POP JUMP JUMPDEST PUSH1 0x0 PUSH1 0x60 DUP3 ADD SWAP1 POP PUSH2 0x1F58 PUSH1 0x0 DUP4 ADD DUP7 PUSH2 0x1F34 JUMP JUMPDEST PUSH2 0x1F65 PUSH1 0x20 DUP4 ADD DUP6 PUSH2 0x1709 JUMP JUMPDEST PUSH2 0x1F72 PUSH1 0x40 DUP4 ADD DUP5 PUSH2 0x1709 JUMP JUMPDEST SWAP5 SWAP4 POP POP POP POP JUMP INVALID LOG2 PUSH5 0x6970667358 0x22 SLT KECCAK256 0x24 BASEFEE 0xDB 0xCF LOG4 LOG3 DUP1 BYTE 0xF EXTCODEHASH 0xDA 0x2A MSTORE 0x5F RETURN 0x29 SWAP9 PUSH2 0x483 SELFDESTRUCT XOR 0xCF SWAP1 0xED BYTE 0xCA 0xC0 0xF6 0x23 ORIGIN SLT PUSH5 0x736F6C6343 STOP ADDMOD SLT STOP CALLER "
		},
		"gasEstimates": {
			"creation": {
				"codeDepositCost": "1622400",
				"executionCost": "infinite",
				"totalCost": "infinite"
			},
			"external": {
				"bonuses(uint256,uint256)": "infinite",
				"calcTurn(uint8,uint8)": "infinite",
				"getAllBuildings(uint8,uint8)": "infinite",
				"getTileData(uint8,uint8)": "infinite",
				"getTurn(uint8,uint8)": "infinite",
				"interiorMapSize()": "379",
				"interiorMaps(uint8,uint8,uint8,uint8)": "infinite",
				"mainMapSize()": "380",
				"maxLevel()": "402",
				"placeBuilding(uint8,uint8,uint8,uint8,uint8)": "infinite",
				"tileMapPhaser()": "infinite",
				"tiles(uint8,uint8)": "infinite",
				"turnsPerLevel()": "352",
				"useTurns(uint16,uint8,uint8)": "infinite"
			}
		},
		"methodIdentifiers": {
			"bonuses(uint256,uint256)": "bc9955a2",
			"calcTurn(uint8,uint8)": "dd4b466b",
			"getAllBuildings(uint8,uint8)": "be9a263c",
			"getTileData(uint8,uint8)": "bd638378",
			"getTurn(uint8,uint8)": "f3245254",
			"interiorMapSize()": "decc1bbf",
			"interiorMaps(uint8,uint8,uint8,uint8)": "a2f9cc5b",
			"mainMapSize()": "afed933a",
			"maxLevel()": "cc06c359",
			"placeBuilding(uint8,uint8,uint8,uint8,uint8)": "0ee22f31",
			"tileMapPhaser()": "4f264b03",
			"tiles(uint8,uint8)": "9b562df2",
			"turnsPerLevel()": "bdc7da8e",
			"useTurns(uint16,uint8,uint8)": "e9dd6583"
		}
	},
	"abi": [
		{
			"inputs": [
				{
					"internalType": "address",
					"name": "_tileMapPhaser",
					"type": "address"
				}
			],
			"stateMutability": "nonpayable",
			"type": "constructor"
		},
		{
			"anonymous": false,
			"inputs": [
				{
					"indexed": true,
					"internalType": "address",
					"name": "user",
					"type": "address"
				},
				{
					"indexed": false,
					"internalType": "uint256",
					"name": "turnsUsed",
					"type": "uint256"
				},
				{
					"indexed": false,
					"internalType": "uint8",
					"name": "x",
					"type": "uint8"
				},
				{
					"indexed": false,
					"internalType": "uint8",
					"name": "y",
					"type": "uint8"
				}
			],
			"name": "TurnsUsed",
			"type": "event"
		},
		{
			"inputs": [
				{
					"internalType": "uint256",
					"name": "",
					"type": "uint256"
				},
				{
					"internalType": "uint256",
					"name": "",
					"type": "uint256"
				}
			],
			"name": "bonuses",
			"outputs": [
				{
					"internalType": "uint8",
					"name": "",
					"type": "uint8"
				}
			],
			"stateMutability": "view",
			"type": "function"
		},
		{
			"inputs": [
				{
					"internalType": "uint8",
					"name": "mainX",
					"type": "uint8"
				},
				{
					"internalType": "uint8",
					"name": "mainY",
					"type": "uint8"
				}
			],
			"name": "calcTurn",
			"outputs": [],
			"stateMutability": "nonpayable",
			"type": "function"
		},
		{
			"inputs": [
				{
					"internalType": "uint8",
					"name": "mainX",
					"type": "uint8"
				},
				{
					"internalType": "uint8",
					"name": "mainY",
					"type": "uint8"
				}
			],
			"name": "getAllBuildings",
			"outputs": [
				{
					"internalType": "uint8[9][9]",
					"name": "",
					"type": "uint8[9][9]"
				}
			],
			"stateMutability": "view",
			"type": "function"
		},
		{
			"inputs": [
				{
					"internalType": "uint8",
					"name": "x",
					"type": "uint8"
				},
				{
					"internalType": "uint8",
					"name": "y",
					"type": "uint8"
				}
			],
			"name": "getTileData",
			"outputs": [
				{
					"internalType": "uint256",
					"name": "food",
					"type": "uint256"
				},
				{
					"internalType": "uint256",
					"name": "wood",
					"type": "uint256"
				},
				{
					"internalType": "uint256",
					"name": "stone",
					"type": "uint256"
				},
				{
					"internalType": "uint256",
					"name": "iron",
					"type": "uint256"
				},
				{
					"internalType": "uint16",
					"name": "level",
					"type": "uint16"
				},
				{
					"internalType": "uint256",
					"name": "accumulatedTurns",
					"type": "uint256"
				}
			],
			"stateMutability": "view",
			"type": "function"
		},
		{
			"inputs": [
				{
					"internalType": "uint8",
					"name": "mainX",
					"type": "uint8"
				},
				{
					"internalType": "uint8",
					"name": "mainY",
					"type": "uint8"
				}
			],
			"name": "getTurn",
			"outputs": [
				{
					"internalType": "uint256",
					"name": "",
					"type": "uint256"
				}
			],
			"stateMutability": "view",
			"type": "function"
		},
		{
			"inputs": [],
			"name": "interiorMapSize",
			"outputs": [
				{
					"internalType": "uint8",
					"name": "",
					"type": "uint8"
				}
			],
			"stateMutability": "view",
			"type": "function"
		},
		{
			"inputs": [
				{
					"internalType": "uint8",
					"name": "",
					"type": "uint8"
				},
				{
					"internalType": "uint8",
					"name": "",
					"type": "uint8"
				},
				{
					"internalType": "uint8",
					"name": "",
					"type": "uint8"
				},
				{
					"internalType": "uint8",
					"name": "",
					"type": "uint8"
				}
			],
			"name": "interiorMaps",
			"outputs": [
				{
					"internalType": "uint8",
					"name": "",
					"type": "uint8"
				}
			],
			"stateMutability": "view",
			"type": "function"
		},
		{
			"inputs": [],
			"name": "mainMapSize",
			"outputs": [
				{
					"internalType": "uint8",
					"name": "",
					"type": "uint8"
				}
			],
			"stateMutability": "view",
			"type": "function"
		},
		{
			"inputs": [],
			"name": "maxLevel",
			"outputs": [
				{
					"internalType": "uint16",
					"name": "",
					"type": "uint16"
				}
			],
			"stateMutability": "view",
			"type": "function"
		},
		{
			"inputs": [
				{
					"internalType": "uint8",
					"name": "mainX",
					"type": "uint8"
				},
				{
					"internalType": "uint8",
					"name": "mainY",
					"type": "uint8"
				},
				{
					"internalType": "uint8",
					"name": "interiorX",
					"type": "uint8"
				},
				{
					"internalType": "uint8",
					"name": "interiorY",
					"type": "uint8"
				},
				{
					"internalType": "uint8",
					"name": "buildingType",
					"type": "uint8"
				}
			],
			"name": "placeBuilding",
			"outputs": [],
			"stateMutability": "nonpayable",
			"type": "function"
		},
		{
			"inputs": [],
			"name": "tileMapPhaser",
			"outputs": [
				{
					"internalType": "contract ITileMapPhaser",
					"name": "",
					"type": "address"
				}
			],
			"stateMutability": "view",
			"type": "function"
		},
		{
			"inputs": [
				{
					"internalType": "uint8",
					"name": "",
					"type": "uint8"
				},
				{
					"internalType": "uint8",
					"name": "",
					"type": "uint8"
				}
			],
			"name": "tiles",
			"outputs": [
				{
					"internalType": "uint256",
					"name": "food",
					"type": "uint256"
				},
				{
					"internalType": "uint256",
					"name": "wood",
					"type": "uint256"
				},
				{
					"internalType": "uint256",
					"name": "stone",
					"type": "uint256"
				},
				{
					"internalType": "uint256",
					"name": "iron",
					"type": "uint256"
				},
				{
					"internalType": "uint16",
					"name": "level",
					"type": "uint16"
				},
				{
					"internalType": "uint256",
					"name": "accumulatedTurns",
					"type": "uint256"
				},
				{
					"internalType": "uint16",
					"name": "turns",
					"type": "uint16"
				},
				{
					"internalType": "uint256",
					"name": "start",
					"type": "uint256"
				}
			],
			"stateMutability": "view",
			"type": "function"
		},
		{
			"inputs": [],
			"name": "turnsPerLevel",
			"outputs": [
				{
					"internalType": "uint256",
					"name": "",
					"type": "uint256"
				}
			],
			"stateMutability": "view",
			"type": "function"
		},
		{
			"inputs": [
				{
					"internalType": "uint16",
					"name": "turns",
					"type": "uint16"
				},
				{
					"internalType": "uint8",
					"name": "x",
					"type": "uint8"
				},
				{
					"internalType": "uint8",
					"name": "y",
					"type": "uint8"
				}
			],
			"name": "useTurns",
			"outputs": [],
			"stateMutability": "nonpayable",
			"type": "function"
		}
	]
}