{
	"data": {
		"bytecode": {
			"linkReferences": {},
			"object": "67016345785d8a0000600355620f42406004556078608081905260a0819052606460c081905260b460e0819052600e839055600f83905560108290556011819055609661010081905261012081905261014083905261019061016081905260128290556013829055601484905560158190556101808590526101a08390526101c084905261012c6101e0819052601695909555601792909255601883905560199390935561020083905260c861022081905261024083905260fa610260819052601a859055601b829055601c849055601d556102808290526102a08190526102c08490526102e0839052601e829055601f819055602084905560218390556103806040526103008290526103208190526103408490526103608390526022919091556023556024919091556025553480156200013a57600080fd5b50604051620046bd380380620046bd8339810160408190526200015d916200079d565b600180546001600160a01b039384166001600160a01b031991821617825560408051608080820183526104d8808352610c8060208085019182526105a0858701908152610370606080880182815260009b8c52602880865298517f97f6617e72684f128d84ea8b55c40e794b94716acf5a4e8c39cb395494fddcca5594517f97f6617e72684f128d84ea8b55c40e794b94716acf5a4e8c39cb395494fddccb5591517f97f6617e72684f128d84ea8b55c40e794b94716acf5a4e8c39cb395494fddccc5592517f97f6617e72684f128d84ea8b55c40e794b94716acf5a4e8c39cb395494fddccd5586518086018852610514808252610bb8828501908152828a0191825261038483850190815260028d5289865292517fd713ae4f394bfd6aef7af01a08d49ae9377aec9e97dc14f4e41ccaf8d3c793d955517fd713ae4f394bfd6aef7af01a08d49ae9377aec9e97dc14f4e41ccaf8d3c793da55517fd713ae4f394bfd6aef7af01a08d49ae9377aec9e97dc14f4e41ccaf8d3c793db55517fd713ae4f394bfd6aef7af01a08d49ae9377aec9e97dc14f4e41ccaf8d3c793dc55865180860188526106e081526110688184019081526107a8828a0190815261052883850190815260038d5289865292517f3f50dde501a9b05e7f0bb523c05938f828ffde895f79e7850caa71d6b6b0ddfe5590517f3f50dde501a9b05e7f0bb523c05938f828ffde895f79e7850caa71d6b6b0ddff55517f3f50dde501a9b05e7f0bb523c05938f828ffde895f79e7850caa71d6b6b0de0055517f3f50dde501a9b05e7f0bb523c05938f828ffde895f79e7850caa71d6b6b0de015586518086018852848152610af08184019081528189019586526103ac82840190815260048c5288855291517faf472ff38e00d97287b8802d6df9764e3df1e30429b273f820dab6fa8fd9861a55517faf472ff38e00d97287b8802d6df9764e3df1e30429b273f820dab6fa8fd9861b5593517faf472ff38e00d97287b8802d6df9764e3df1e30429b273f820dab6fa8fd9861c5592517faf472ff38e00d97287b8802d6df9764e3df1e30429b273f820dab6fa8fd9861d558551808501875261019081526104108183019081526101c282890190815260e68387019081526005808d5289865293517fad2c3458fdeba7d1a6efe90e102f2f97ac2c2f37f670557f48cde22585c44d625591517fad2c3458fdeba7d1a6efe90e102f2f97ac2c2f37f670557f48cde22585c44d6355517fad2c3458fdeba7d1a6efe90e102f2f97ac2c2f37f670557f48cde22585c44d6455517fad2c3458fdeba7d1a6efe90e102f2f97ac2c2f37f670557f48cde22585c44d6555865180860188526105b4808252610c30828501908152828a0191825282870195865260068c5288855291517f104fda3f4172dc288e1e3d643a196e7a8d4cfc4f58a33701373ce416a364cdf55590517f104fda3f4172dc288e1e3d643a196e7a8d4cfc4f58a33701373ce416a364cdf655517f104fda3f4172dc288e1e3d643a196e7a8d4cfc4f58a33701373ce416a364cdf75591517f104fda3f4172dc288e1e3d643a196e7a8d4cfc4f58a33701373ce416a364cdf85585518085018752610adc8152611900818301908152612fa882890190815261092483870190815260078c5288855292517feeb7dafa255979dc6b55855cba04e5b42bd868e86965dda728e52178b587f0cd5590517feeb7dafa255979dc6b55855cba04e5b42bd868e86965dda728e52178b587f0ce55517feeb7dafa255979dc6b55855cba04e5b42bd868e86965dda728e52178b587f0cf55517feeb7dafa255979dc6b55855cba04e5b42bd868e86965dda728e52178b587f0d055855193840186526106908452610e608482019081526107589685019687526105509385019384526008895294905291517fc7b050ed9348380d353d0746f1c9f2f7406f6fb132f62acddc53f159d8483fb15591517fc7b050ed9348380d353d0746f1c9f2f7406f6fb132f62acddc53f159d8483fb25591517fc7b050ed9348380d353d0746f1c9f2f7406f6fb132f62acddc53f159d8483fb355517fc7b050ed9348380d353d0746f1c9f2f7406f6fb132f62acddc53f159d8483fb455600b80548316331790558254939094169216919091179055429055620007d5565b80516001600160a01b03811681146200079857600080fd5b919050565b60008060408385031215620007b157600080fd5b620007bc8362000780565b9150620007cc6020840162000780565b90509250929050565b613ed880620007e56000396000f3fe6080604052600436106102675760003560e01c8063800bfa2711610144578063c1712d57116100b6578063e3198e081161007a578063e3198e081461093c578063e9dd65831461096c578063f32452541461097f578063f89d75711461099f578063f9c64454146109bf578063fae92612146109e257600080fd5b8063c1712d571461086a578063ccd5e491146108ac578063daa17f49146108e7578063dd4b466b14610907578063decc1bbf1461092757600080fd5b80639b562df2116101085780639b562df214610677578063a2f9cc5b1461077b578063a596b645146107d7578063bd638378146107fa578063bdc7da8e14610827578063be9a263c1461083d57600080fd5b8063800bfa27146105b9578063887aca72146105dc5780638c87fa4f146106145780638da5cb5b146106375780639a4a20841461065757600080fd5b8063428967da116101dd57806360b76b52116101a157806360b76b5214610500578063620a9a991461052057806365af3a2f146105435780637502bad4146105595780637659bc60146105795780637cca26d91461059957600080fd5b8063428967da146104275780634f264b031461043d578063537e8f491461045d5780635d219d5f146104a05780635e75968e146104c057600080fd5b80632a490ae81161022f5780632a490ae81461032f5780632ef788651461034f578063351662e4146103875780633e5f2857146103a757806341ede44f146103c75780634274b1641461040757600080fd5b806307722bc21461026c5780630d67f59e1461028e5780630df7b41a146102cb5780630ee22f31146102eb57806321b74ea71461030b575b600080fd5b34801561027857600080fd5b5061028c61028736600461368d565b610a02565b005b34801561029a57600080fd5b506000546102ae906001600160a01b031681565b6040516001600160a01b0390911681526020015b60405180910390f35b3480156102d757600080fd5b5061028c6102e63660046136f3565b610c10565b3480156102f757600080fd5b5061028c610306366004613717565b610c5c565b34801561031757600080fd5b5061032160035481565b6040519081526020016102c2565b34801561033b57600080fd5b5061032161034a366004613788565b611059565b34801561035b57600080fd5b5061032161036a366004613788565b600960209081526000928352604080842090915290825290205481565b34801561039357600080fd5b5061028c6103a23660046137c1565b611070565b3480156103b357600080fd5b5061028c6103c236600461381a565b61146b565b3480156103d357600080fd5b506103216103e2366004613788565b60ff918216600090815260066020908152604080832093909416825291909152205490565b34801561041357600080fd5b5061028c61042236600461368d565b61193d565b34801561043357600080fd5b5061032160045481565b34801561044957600080fd5b506001546102ae906001600160a01b031681565b34801561046957600080fd5b50601a54601b54601c54601d546104809392919084565b6040805194855260208501939093529183015260608201526080016102c2565b3480156104ac57600080fd5b5061028c6104bb3660046136f3565b611b3c565b3480156104cc57600080fd5b506104f06104db3660046136f3565b60086020526000908152604090205460ff1681565b60405190151581526020016102c2565b34801561050c57600080fd5b5061028c61051b366004613874565b611b88565b34801561052c57600080fd5b50600e54600f546010546011546104809392919084565b34801561054f57600080fd5b5061032160055481565b34801561056557600080fd5b50600d546102ae906001600160a01b031681565b34801561058557600080fd5b5061028c610594366004613788565b611da3565b3480156105a557600080fd5b506002546102ae906001600160a01b031681565b3480156105c557600080fd5b506016546017546018546019546104809392919084565b3480156105e857600080fd5b506103216105f7366004613788565b600660209081526000928352604080842090915290825290205481565b34801561062057600080fd5b506012546013546014546015546104809392919084565b34801561064357600080fd5b50600b546102ae906001600160a01b031681565b34801561066357600080fd5b5061028c6106723660046138d0565b611dfc565b34801561068357600080fd5b50610767610692366004613788565b60266020908152600092835260408084208252918352918190208151608080820184528254825260018301548286015260028301548285015260038301546060808401919091526004840154600585015460068601546007870154885160c081018a52600889015481526009890154818c0152600a890154818b0152600b89015495810195909552600c88015495850195909552600d87015460a08501528751808901909852600e87015460ff8082168a526101009091041698880198909852600f90950154939661ffff9182169691169388565b6040516102c2989796959493929190613910565b34801561078757600080fd5b506107c5610796366004613874565b602760209081526000948552604080862082529385528385208152918452828420909152825290205460ff1681565b60405160ff90911681526020016102c2565b3480156107e357600080fd5b50601e54601f546020546021546104809392919084565b34801561080657600080fd5b5061081a610815366004613788565b611e5a565b6040516102c291906139cc565b34801561083357600080fd5b506103216103e881565b34801561084957600080fd5b5061085d610858366004613788565b611fb0565b6040516102c29190613a88565b34801561087657600080fd5b50610480610885366004613aed565b60286020526000908152604090208054600182015460028301546003909301549192909184565b3480156108b857600080fd5b506104f06108c7366004613788565b600a60209081526000928352604080842090915290825290205460ff1681565b3480156108f357600080fd5b50600c546102ae906001600160a01b031681565b34801561091357600080fd5b5061028c610922366004613788565b612124565b34801561093357600080fd5b506107c5600981565b34801561094857600080fd5b506104f06109573660046136f3565b60076020526000908152604090205460ff1681565b61028c61097a366004613b0a565b612285565b34801561098b57600080fd5b5061032161099a366004613788565b61297e565b3480156109ab57600080fd5b5061028c6109ba36600461368d565b612b11565b3480156109cb57600080fd5b506022546023546024546025546104809392919084565b3480156109ee57600080fd5b5061028c6109fd3660046136f3565b612e5a565b600154604051638a88895360e01b815260ff8087166004830152851660248201528591859133916001600160a01b031690638a88895390604401602060405180830381865afa158015610a59573d6000803e3d6000fd5b505050506040513d601f19601f82011682018060405250810190610a7d9190613b31565b6001600160a01b031614610aac5760405162461bcd60e51b8152600401610aa390613b4e565b60405180910390fd5b60008311610acc5760405162461bcd60e51b8152600401610aa390613b6b565b8360ff1660011480610ae157508360ff166002145b610afd5760405162461bcd60e51b8152600401610aa390613b86565b6000610b0b87876001612ea6565b905060008111610b2d5760405162461bcd60e51b8152600401610aa390613ba1565b60008560ff16600114610b41576012610b44565b600e5b60408051608081018252825481526001830154602082015260028301549181019190915260039091015460608201529050610b828888838886612f41565b8560ff16600103610bcc5760ff8089166000908152602660209081526040808320938b1683529290529081206008018054879290610bc1908490613bd2565b90915550610c069050565b60ff8089166000908152602660209081526040808320938b1683529290529081206009018054879290610c00908490613bd2565b90915550505b5050505050505050565b600b546001600160a01b03163314610c3a5760405162461bcd60e51b8152600401610aa390613b4e565b600d80546001600160a01b0319166001600160a01b0392909216919091179055565b600154604051638a88895360e01b815260ff8088166004830152861660248201528691869133916001600160a01b031690638a88895390604401602060405180830381865afa158015610cb3573d6000803e3d6000fd5b505050506040513d601f19601f82011682018060405250810190610cd79190613b31565b6001600160a01b031614610cfd5760405162461bcd60e51b8152600401610aa390613b4e565b8484600960ff8316108015610d155750600960ff8216105b610d495760405162461bcd60e51b815260206004820152600560248201526418dbdbdc9960da1b6044820152606401610aa3565b8660ff166004148015610d5f57508560ff166004145b15610d7c5760405162461bcd60e51b8152600401610aa390613be5565b60ff808a1660009081526027602090815260408083208c8516845282528083208b8516845282528083208a85168452909152902054168015610de45760405162461bcd60e51b81526020600482015260016024820152606560f81b6044820152606401610aa3565b8560ff16600303610e3757610dfb8a8a6003612ea6565b15610e185760405162461bcd60e51b8152600401610aa390613be5565b336000908152600760205260409020805460ff19166001179055610e9a565b8560ff16600603610e9a57610e4e8a8a6006612ea6565b15610e7f5760405162461bcd60e51b81526020600482015260016024820152606d60f81b6044820152606401610aa3565b336000908152600860205260409020805460ff191660011790555b60ff808716600090815260286020908152604080832081516080810183528154815260018201548185015260028201548184015260039091015460608201528e8516845260268352818420948e168452939091529020815181541015610f125760405162461bcd60e51b8152600401610aa390613c00565b602082015160018201541015610f3a5760405162461bcd60e51b8152600401610aa390613c1b565b604082015160028201541015610f625760405162461bcd60e51b8152600401610aa390613c36565b606082015160038201541015610f8a5760405162461bcd60e51b8152600401610aa390613c51565b815181548290600090610f9e908490613c6c565b90915550506020820151600182018054600090610fbc908490613c6c565b90915550506040820151600282018054600090610fda908490613c6c565b90915550506060820151600382018054600090610ff8908490613c6c565b909155505060ff8c811660009081526027602090815260408083208f8516845282528083208e8516845282528083208d851684529091529020805460ff1916918a1691909117905561104b818d8d6130f0565b505050505050505050505050565b600061106783836007612ea6565b90505b92915050565b600154604051638a88895360e01b815260ff8086166004830152841660248201528491849133916001600160a01b031690638a88895390604401602060405180830381865afa1580156110c7573d6000803e3d6000fd5b505050506040513d601f19601f820116820180604052508101906110eb9190613b31565b6001600160a01b0316146111115760405162461bcd60e51b8152600401610aa390613b4e565b60ff808616600090815260266020908152604080832088851684529091528120916060908616600103611174575050600e81015460408051808201909152600d81526c0decccccadce6d2eccaa8cac6d609b1b602082015260ff909116906111ea565b8560ff166002036111b9575050600e81015460408051808201909152600d81526c0c8cacccadce6d2eccaa8cac6d609b1b602082015261010090910460ff16906111ea565b60405162461bcd60e51b8152600401610aa3906020808252600490820152637479706560e01b604082015260600190565b6127108260ff1611156112235760405162461bcd60e51b81526020600482015260016024820152601b60fa1b6044820152606401610aa3565b600061123189896008612ea6565b9050600081116112535760405162461bcd60e51b8152600401610aa390613c1b565b6000611260846001613c7f565b61126e9060ff166002613c98565b905060008261127e83608c613c98565b6112889190613cc5565b9050600083611298846078613c98565b6112a29190613cc5565b90506000846112b28560b4613c98565b6112bc9190613cc5565b90506000856112cc866078613c98565b6112d69190613cc5565b89549091508411156112fa5760405162461bcd60e51b8152600401610aa390613c00565b600189015483111561131e5760405162461bcd60e51b8152600401610aa390613c1b565b60028901548211156113425760405162461bcd60e51b8152600401610aa390613c36565b60038901548111156113665760405162461bcd60e51b8152600401610aa390613c51565b885484908a9060009061137a908490613c6c565b9091555050600189018054849190600090611396908490613c6c565b90915550506002890180548391906000906113b2908490613c6c565b90915550506003890180548291906000906113ce908490613c6c565b909155505060ff8c1660010361141157600e8901805460ff169060006113f383613cd9565b91906101000a81548160ff021916908360ff16021790555050611450565b8b60ff1660020361145057600e89018054610100900460ff1690600161143683613cd9565b91906101000a81548160ff021916908360ff160217905550505b61145b898f8f6130f0565b5050505050505050505050505050565b600c546001600160a01b031633146114955760405162461bcd60e51b8152600401610aa390613ba1565b60ff8086166000908152602660209081526040808320888516845290915290209084166001036115195781156114e4578054839082906000906114d9908490613bd2565b9091555061192a9050565b80548311156115055760405162461bcd60e51b8152600401610aa390613c00565b8054839082906000906114d9908490613c6c565b8360ff1660020361157c57811561154157828160000160010160008282546114d99190613bd2565b60018101548311156115655760405162461bcd60e51b8152600401610aa390613c1b565b828160000160010160008282546114d99190613c6c565b8360ff166003036115df5781156115a457828160000160020160008282546114d99190613bd2565b60028101548311156115c85760405162461bcd60e51b8152600401610aa390613c36565b828160000160020160008282546114d99190613c6c565b8360ff1660040361164257811561160757828160000160030160008282546114d99190613bd2565b600381015483111561162b5760405162461bcd60e51b8152600401610aa390613c51565b828160000160030160008282546114d99190613c6c565b8360ff166005036116ba57811561166a57828160080160000160008282546114d99190613bd2565b60088101548311156116a35760405162461bcd60e51b81526020600482015260026024820152616f6160f01b6044820152606401610aa3565b828160080160000160008282546114d99190613c6c565b8360ff166006036117325781156116e257828160080160010160008282546114d99190613bd2565b600981015483111561171b5760405162461bcd60e51b8152602060048201526002602482015261646160f01b6044820152606401610aa3565b828160080160010160008282546114d99190613c6c565b8360ff166007036117aa57811561175a57828160080160020160008282546114d99190613bd2565b600a8101548311156117935760405162461bcd60e51b81526020600482015260026024820152616f7760f01b6044820152606401610aa3565b828160080160020160008282546114d99190613c6c565b8360ff166008036118225781156117d257828160080160030160008282546114d99190613bd2565b600b81015483111561180b5760405162461bcd60e51b8152602060048201526002602482015261647760f01b6044820152606401610aa3565b828160080160030160008282546114d99190613c6c565b8360ff1660090361189a57811561184a57828160080160040160008282546114d99190613bd2565b600c8101548311156118835760405162461bcd60e51b81526020600482015260026024820152616f7360f01b6044820152606401610aa3565b828160080160040160008282546114d99190613c6c565b8360ff16600a036119125781156118c257828160080160050160008282546114d99190613bd2565b600d8101548311156118fb5760405162461bcd60e51b8152602060048201526002602482015261647360f01b6044820152606401610aa3565b828160080160050160008282546114d99190613c6c565b60405162461bcd60e51b8152600401610aa390613b86565b6119358187876130f0565b505050505050565b600154604051638a88895360e01b815260ff8087166004830152851660248201528591859133916001600160a01b031690638a88895390604401602060405180830381865afa158015611994573d6000803e3d6000fd5b505050506040513d601f19601f820116820180604052508101906119b89190613b31565b6001600160a01b0316146119de5760405162461bcd60e51b8152600401610aa390613b4e565b600083116119fe5760405162461bcd60e51b8152600401610aa390613b6b565b8360ff1660011480611a1357508360ff166002145b611a2f5760405162461bcd60e51b8152600401610aa390613b86565b6000611a3d87876002612ea6565b905060008111611a745760405162461bcd60e51b8152602060048201526002602482015261627360f01b6044820152606401610aa3565b60008560ff16600114611a8857601a611a8b565b60165b60408051608081018252825481526001830154602082015260028301549181019190915260039091015460608201529050611ac98888838886612f41565b8560ff16600103611b085760ff8089166000908152602660209081526040808320938b168352929052908120600a018054879290610bc1908490613bd2565b60ff8089166000908152602660209081526040808320938b168352929052908120600b018054879290610c00908490613bd2565b600b546001600160a01b03163314611b665760405162461bcd60e51b8152600401610aa390613b4e565b600280546001600160a01b0319166001600160a01b0392909216919091179055565b600154604051638a88895360e01b815260ff8087166004830152851660248201528591859133916001600160a01b031690638a88895390604401602060405180830381865afa158015611bdf573d6000803e3d6000fd5b505050506040513d601f19601f82011682018060405250810190611c039190613b31565b6001600160a01b031614611c295760405162461bcd60e51b8152600401610aa390613b4e565b8383600960ff8316108015611c415750600960ff8216105b611c755760405162461bcd60e51b815260206004820152600560248201526418dbdbdc9960da1b6044820152606401610aa3565b8560ff166004148015611c8b57508460ff166004145b15611ca85760405162461bcd60e51b8152600401610aa390613be5565b60ff80891660009081526027602090815260408083208b8516845282528083208a851684528252808320898516845290915281205490911690819003611d145760405162461bcd60e51b81526020600482015260016024820152603760f91b6044820152606401610aa3565b8060ff16600303611d3b57336000908152600760205260409020805460ff19169055611d5e565b8060ff16600603611d5e57336000908152600860205260409020805460ff191690555b50505060ff958616600090815260276020908152604080832097891683529681528682209588168252948552858120939096168652505090529020805460ff19169055565b600c546001600160a01b03163314611dcd5760405162461bcd60e51b8152600401610aa390613ba1565b60ff8083166000908152602660209081526040808320938516835292905220611df78184846130f0565b505050565b600c546001600160a01b03163314611e265760405162461bcd60e51b8152600401610aa390613ba1565b60ff9283166000908152600a6020908152604080832094909516825292909252919020805460ff1916911515919091179055565b611edd604051806101e0016040528060008152602001600081526020016000815260200160008152602001600061ffff16815260200160008152602001600081526020016000815260200160008152602001600081526020016000815260200160008152602001600060ff168152602001600060ff168152602001600081525090565b5060ff918216600090815260266020908152604080832093851683529281529082902082516101e0810184528154815260018201549281019290925260028101549282019290925260038201546060820152600482015461ffff166080820152600582015460a0820152600882015460c0820152600982015460e0820152600a82015461010080830191909152600b830154610120830152600c830154610140830152600d830154610160830152600e830154808516610180840152049092166101a0830152600f01546101c082015290565b611fb8613610565b600154604051638a88895360e01b815260ff8086166004830152841660248201528491849133916001600160a01b031690638a88895390604401602060405180830381865afa15801561200f573d6000803e3d6000fd5b505050506040513d601f19601f820116820180604052508101906120339190613b31565b6001600160a01b0316146120595760405162461bcd60e51b8152600401610aa390613b4e565b612061613610565b60005b600960ff821610156121185760005b600960ff821610156121055760ff80891660009081526027602090815260408083208b851684528252808320868516808552908352818420868616855290925290912054909116908490600981106120cd576120cd613cf8565b60200201518260ff16600981106120e6576120e6613cf8565b60ff9092166020929092020152806120fd81613cd9565b915050612073565b508061211081613cd9565b915050612064565b5092505b505092915050565b600154604051638a88895360e01b815260ff8085166004830152831660248201528391839133916001600160a01b031690638a88895390604401602060405180830381865afa15801561217b573d6000803e3d6000fd5b505050506040513d601f19601f8201168201806040525081019061219f9190613b31565b6001600160a01b0316146121c55760405162461bcd60e51b8152600401610aa390613b4e565b60ff80851660009081526026602090815260408083209387168352929052908120600701546121f49042613c6c565b6121ff90603c613c98565b60ff808716600090815260266020908152604080832093891683529290522060060154612230919061ffff16613bd2565b905061025881116122415780612245565b6102585b60ff95861660009081526026602090815260408083209790981682529590955294909320600601805461ffff191661ffff90951694909417909355505050565b600154604051638a88895360e01b815260ff8085166004830152831660248201528391839133916001600160a01b031690638a88895390604401602060405180830381865afa1580156122dc573d6000803e3d6000fd5b505050506040513d601f19601f820116820180604052508101906123009190613b31565b6001600160a01b0316146123265760405162461bcd60e51b8152600401610aa390613b4e565b60008561ffff161161235e5760405162461bcd60e51b81526020600482015260016024820152600360fc1b6044820152606401610aa3565b60035434146123995760405162461bcd60e51b81526020600482015260076024820152666261642066656560c81b6044820152606401610aa3565b600d546001600160a01b03166123e15760405162461bcd60e51b815260206004820152600d60248201526c195e1d1c98481b9bdd081cd95d609a1b6044820152606401610aa3565b6123eb8484612124565b60ff80851660009081526026602090815260408083209387168352929052206006015461ffff808716911610156124345760405162461bcd60e51b8152600401610aa390613b86565b60ff808516600090815260266020908152604080832093871683529290522060050154612463906103e8613c6c565b8561ffff1611156124a05760ff80851660009081526026602090815260408083209387168352929052206005015461249d906103e8613c6c565b94505b60ff8085166000908152602660209081526040808320938716835292905220600601546124d290869061ffff16613d0e565b60ff8581166000908152602660209081526040808320938816835292905290812060068101805461ffff191661ffff94909416939093179092554260079092019190915561252285856005612ea6565b905061252f600182613bd2565b600254604051632a2026a960e01b815260ff8089166004830152871660248201529192506000916001600160a01b0390911690632a2026a990604401602060405180830381865afa158015612588573d6000803e3d6000fd5b505050506040513d601f19601f820116820180604052508101906125ac9190613d30565b60ff80881660009081526026602090815260408083208a8516845290915290209192508216600103612603576125e68361ffff8a16613c98565b815482906000906125f8908490613bd2565b909155506126909050565b8160ff166002036126305761261c8361ffff8a16613c98565b6001820180546000906125f8908490613bd2565b8160ff1660030361265d576126498361ffff8a16613c98565b6002820180546000906125f8908490613bd2565b8160ff16600403612690576126768361ffff8a16613c98565b60038201805460009061268a908490613bd2565b90915550505b61269e8361ffff8a16613c98565b815482906000906126b0908490613bd2565b909155506126c490508361ffff8a16613c98565b6001820180546000906126d8908490613bd2565b909155506126ec90508361ffff8a16613c98565b600282018054600090612700908490613bd2565b9091555061271490508361ffff8a16613c98565b600382018054600090612728908490613bd2565b925050819055508761ffff168160050160008282546127479190613bd2565b90915550506005810154600090612761906103e890613cc5565b90506103e88260050160008282546127799190613d4d565b9091555050600482015460009061279590839061ffff16613d61565b90506101f48161ffff1611156127bb5760048301805461ffff19166101f41790556127cf565b60048301805461ffff191661ffff83161790555b6127da838a8a6130f0565b60ff808a166000908152600660209081526040808320938c168352929052908120805461ffff8d16929061280f908490613bd2565b90915550612821905089896000611e26565b6040805161ffff8c16815260ff8b811660208301528a1681830152905133917fbb5b4f7847476e1912e2b57d030b0e491d0d72b2ef256cceea9daa41f40f5d18919081900360600190a261287434613150565b60008061287f6133cb565b9092509050811561104b57600081836004548f61ffff166128a09190613c98565b6128aa9190613c98565b6128b49190613cc5565b6000805460405163a9059cbb60e01b81523360048201526024810184905292935090916001600160a01b039091169063a9059cbb906044016020604051808303816000875af115801561290b573d6000803e3d6000fd5b505050506040513d601f19601f8201168201806040525081019061292f9190613d7c565b90508061145b5760405162461bcd60e51b815260206004820152601a60248201527f4c4f5020726577617264207472616e73666572206661696c65640000000000006044820152606401610aa3565b600154604051638a88895360e01b815260ff8085166004830152831660248201526000918491849133916001600160a01b0390911690638a88895390604401602060405180830381865afa1580156129da573d6000803e3d6000fd5b505050506040513d601f19601f820116820180604052508101906129fe9190613b31565b6001600160a01b031614612a245760405162461bcd60e51b8152600401610aa390613b4e565b60ff80861660009081526026602090815260408083209388168352929052206007015461025890612a559042613c6c565b612a6090603c613c98565b60ff8088166000908152602660209081526040808320938a1683529290522060060154612a91919061ffff16613bd2565b1115612aa157610258925061211c565b60ff808616600090815260266020908152604080832093881683529290522060070154612ace9042613c6c565b612ad990603c613c98565b60ff808716600090815260266020908152604080832093891683529290522060060154612b0a919061ffff16613bd2565b925061211c565b600154604051638a88895360e01b815260ff8087166004830152851660248201528591859133916001600160a01b031690638a88895390604401602060405180830381865afa158015612b68573d6000803e3d6000fd5b505050506040513d601f19601f82011682018060405250810190612b8c9190613b31565b6001600160a01b031614612bb25760405162461bcd60e51b8152600401610aa390613b4e565b60008311612bd25760405162461bcd60e51b8152600401610aa390613b6b565b8360ff1660011480612be757508360ff166002145b612c035760405162461bcd60e51b8152600401610aa390613b86565b6000612c1187876004612ea6565b905060008111612c475760405162461bcd60e51b81526020600482015260016024820152600760fc1b6044820152606401610aa3565b60008560ff16600114612c5b576022612c5e565b601e5b60408051608081018252825481526001830154602082015260028301549181019190915260039091015460608201529050612c9c8888838886612f41565b60ff80891660009081526026602090815260408083208b851684529091529020600801908716600103612d8d578054861115612cff5760405162461bcd60e51b81526020600482015260026024820152616f6160f01b6044820152606401610aa3565b8581600201541015612d385760405162461bcd60e51b81526020600482015260026024820152616f7760f01b6044820152606401610aa3565b85816000016000828254612d4c9190613c6c565b9250508190555085816002016000828254612d679190613c6c565b9250508190555085816004016000828254612d829190613bd2565b90915550612e4f9050565b8581600101541015612dc65760405162461bcd60e51b8152602060048201526002602482015261646160f01b6044820152606401610aa3565b8581600301541015612dff5760405162461bcd60e51b8152602060048201526002602482015261647760f01b6044820152606401610aa3565b85816001016000828254612e139190613c6c565b9250508190555085816003016000828254612e2e9190613c6c565b9250508190555085816005016000828254612e499190613bd2565b90915550505b505050505050505050565b600b546001600160a01b03163314612e845760405162461bcd60e51b8152600401610aa390613b4e565b600c80546001600160a01b0319166001600160a01b0392909216919091179055565b600080805b600960ff82161015612f385760005b600960ff82161015612f255760ff87811660009081526027602090815260408083208a851684528252808320868516845282528083208585168452909152902054818716911603612f135782612f0f81613d99565b9350505b80612f1d81613cd9565b915050612eba565b5080612f3081613cd9565b915050612eab565b50949350505050565b60ff8086166000908152602660209081526040808320938816835292905290812084519091908390612f74908690613c98565b612f7e9190613cc5565b9050600083858760200151612f939190613c98565b612f9d9190613cc5565b9050600084868860400151612fb29190613c98565b612fbc9190613cc5565b9050600085878960600151612fd19190613c98565b612fdb9190613cc5565b8554909150841115612fff5760405162461bcd60e51b8152600401610aa390613c00565b60018501548311156130235760405162461bcd60e51b8152600401610aa390613c1b565b60028501548211156130475760405162461bcd60e51b8152600401610aa390613c36565b600385015481111561306b5760405162461bcd60e51b8152600401610aa390613c51565b84548490869060009061307f908490613c6c565b909155505060018501805484919060009061309b908490613c6c565b90915550506002850180548391906000906130b7908490613c6c565b90915550506003850180548291906000906130d3908490613c6c565b909155506130e49050858b8b6130f0565b50505050505050505050565b6003830154600284015460018501548554600093929161310f91613bd2565b6131199190613bd2565b6131239190613bd2565b600f9094018490555060ff9182166000908152600960209081526040808320939094168252919091522055565b61315861363e565b600080806000613166613422565b919450925090506001600160a01b038316156131ae5782858561318881613d99565b96506004811061319a5761319a613cf8565b6001600160a01b0390921660209290920201525b6001600160a01b038216156131ef578185856131c981613d99565b9650600481106131db576131db613cf8565b6001600160a01b0390921660209290920201525b6001600160a01b038116156132305780858561320a81613d99565b96506004811061321c5761321c613cf8565b6001600160a01b0390921660209290920201525b600d546001600160a01b0316858561324781613d99565b96506004811061325957613259613cf8565b6001600160a01b03909216602092909202015260006132788588613cc5565b90506000805b8681101561332f57600088826004811061329a5761329a613cf8565b60200201516001600160a01b03168460405160006040518083038185875af1925050503d80600081146132e9576040519150601f19603f3d011682016040523d82523d6000602084013e6132ee565b606091505b505090508061330f5760405162461bcd60e51b8152600401610aa390613c36565b6133198484613bd2565b925050808061332790613d99565b91505061327e565b50600061333c828a613c6c565b90508015612e4f57600d546040516000916001600160a01b03169083908381818185875af1925050503d8060008114613391576040519150601f19603f3d011682016040523d82523d6000602084013e613396565b606091505b50509050806130e45760405162461bcd60e51b81526020600482015260016024820152603960f91b6044820152606401610aa3565b60008060006133d86135ce565b9050600581106133ee5750600092600192509050565b806000036134025750600292600192509050565b600161340e8183613c6c565b613419906002613e96565b92509250509091565b60008060008060008060005b60148160ff1610156135c55760005b60148160ff1610156135b25760ff80831660009081526009602090815260408083209385168352929052908120549081900361347957506135a0565b600154604051638a88895360e01b815260ff8086166004830152841660248201526000916001600160a01b031690638a88895390604401602060405180830381865afa1580156134cd573d6000803e3d6000fd5b505050506040513d601f19601f820116820180604052508101906134f19190613b31565b90506001600160a01b0381166135085750506135a0565b8682111561351f579897965094939250848861359d565b85821180156135405750896001600160a01b0316816001600160a01b031614155b1561355257979650939250838761359d565b84821180156135735750896001600160a01b0316816001600160a01b031614155b80156135915750886001600160a01b0316816001600160a01b031614155b1561359d578194508097505b50505b806135aa81613cd9565b91505061343d565b50806135bd81613cd9565b91505061342e565b50505050909192565b6000600554600014806135e2575060055442105b156135ee575060001990565b6301e13380600554426136019190613c6c565b61360b9190613cc5565b905090565b6040518061012001604052806009905b61362861365c565b8152602001906001900390816136205790505090565b60405180608001604052806004906020820280368337509192915050565b6040518061012001604052806009906020820280368337509192915050565b60ff8116811461368a57600080fd5b50565b600080600080608085870312156136a357600080fd5b84356136ae8161367b565b935060208501356136be8161367b565b925060408501356136ce8161367b565b9396929550929360600135925050565b6001600160a01b038116811461368a57600080fd5b60006020828403121561370557600080fd5b8135613710816136de565b9392505050565b600080600080600060a0868803121561372f57600080fd5b853561373a8161367b565b9450602086013561374a8161367b565b9350604086013561375a8161367b565b9250606086013561376a8161367b565b9150608086013561377a8161367b565b809150509295509295909350565b6000806040838503121561379b57600080fd5b82356137a68161367b565b915060208301356137b68161367b565b809150509250929050565b6000806000606084860312156137d657600080fd5b83356137e18161367b565b925060208401356137f18161367b565b915060408401356138018161367b565b809150509250925092565b801515811461368a57600080fd5b600080600080600060a0868803121561383257600080fd5b853561383d8161367b565b9450602086013561384d8161367b565b9350604086013561385d8161367b565b925060608601359150608086013561377a8161380c565b6000806000806080858703121561388a57600080fd5b84356138958161367b565b935060208501356138a58161367b565b925060408501356138b58161367b565b915060608501356138c58161367b565b939692955090935050565b6000806000606084860312156138e557600080fd5b83356138f08161367b565b925060208401356139008161367b565b915060408401356138018161380c565b6000610220820190508951825260208a0151602083015260408a0151604083015260608a0151606083015261ffff808a1660808401528860a084015280881660c0840152508560e08301528451610100830152602085015161012083015260408501516101408301526060850151610160830152608085015161018083015260a08501516101a08301526139b86101c0830185805160ff908116835260209182015116910152565b826102008301529998505050505050505050565b60006101e082019050825182526020830151602083015260408301516040830152606083015160608301526080830151613a0c608084018261ffff169052565b5060a0838101519083015260c0808401519083015260e0808401519083015261010080840151908301526101208084015190830152610140808401519083015261016080840151908301526101808084015160ff81168285015250506101a08381015160ff81168483015250506101c092830151919092015290565b610a20810181836000805b6009808210613aa25750613ae3565b835185845b83811015613ac857825160ff16825260209283019290910190600101613aa7565b50505061012094909401935060209290920191600101613a93565b5050505092915050565b600060208284031215613aff57600080fd5b81356137108161367b565b600080600060608486031215613b1f57600080fd5b833561ffff811681146137e157600080fd5b600060208284031215613b4357600080fd5b8151613710816136de565b60208082526003908201526237bbb760e91b604082015260600190565b6020808252600190820152603d60f91b604082015260600190565b6020808252600190820152601d60fa1b604082015260600190565b6020808252600190820152606160f81b604082015260600190565b634e487b7160e01b600052601160045260246000fd5b8082018082111561106a5761106a613bbc565b6020808252600190820152606360f81b604082015260600190565b6020808252600190820152603360f91b604082015260600190565b6020808252600190820152607760f81b604082015260600190565b6020808252600190820152607360f81b604082015260600190565b6020808252600190820152606960f81b604082015260600190565b8181038181111561106a5761106a613bbc565b60ff818116838216019081111561106a5761106a613bbc565b808202811582820484141761106a5761106a613bbc565b634e487b7160e01b600052601260045260246000fd5b600082613cd457613cd4613caf565b500490565b600060ff821660ff8103613cef57613cef613bbc565b60010192915050565b634e487b7160e01b600052603260045260246000fd5b61ffff828116828216039080821115613d2957613d29613bbc565b5092915050565b600060208284031215613d4257600080fd5b81516137108161367b565b600082613d5c57613d5c613caf565b500690565b61ffff818116838216019080821115613d2957613d29613bbc565b600060208284031215613d8e57600080fd5b81516137108161380c565b600060018201613dab57613dab613bbc565b5060010190565b600181815b80851115613ded578160001904821115613dd357613dd3613bbc565b80851615613de057918102915b93841c9390800290613db7565b509250929050565b600082613e045750600161106a565b81613e115750600061106a565b8160018114613e275760028114613e3157613e4d565b600191505061106a565b60ff841115613e4257613e42613bbc565b50506001821b61106a565b5060208310610133831016604e8410600b8410161715613e70575081810a61106a565b613e7a8383613db2565b8060001904821115613e8e57613e8e613bbc565b029392505050565b60006110678383613df556fea26469706673582212205f3da8d78f0b579cdbbdb06e44f3527936f18cec8f817311000f82ac3529909f64736f6c63430008120033",
			"opcodes": "PUSH8 0x16345785D8A0000 PUSH1 0x3 SSTORE PUSH3 0xF4240 PUSH1 0x4 SSTORE PUSH1 0x78 PUSH1 0x80 DUP2 SWAP1 MSTORE PUSH1 0xA0 DUP2 SWAP1 MSTORE PUSH1 0x64 PUSH1 0xC0 DUP2 SWAP1 MSTORE PUSH1 0xB4 PUSH1 0xE0 DUP2 SWAP1 MSTORE PUSH1 0xE DUP4 SWAP1 SSTORE PUSH1 0xF DUP4 SWAP1 SSTORE PUSH1 0x10 DUP3 SWAP1 SSTORE PUSH1 0x11 DUP2 SWAP1 SSTORE PUSH1 0x96 PUSH2 0x100 DUP2 SWAP1 MSTORE PUSH2 0x120 DUP2 SWAP1 MSTORE PUSH2 0x140 DUP4 SWAP1 MSTORE PUSH2 0x190 PUSH2 0x160 DUP2 SWAP1 MSTORE PUSH1 0x12 DUP3 SWAP1 SSTORE PUSH1 0x13 DUP3 SWAP1 SSTORE PUSH1 0x14 DUP5 SWAP1 SSTORE PUSH1 0x15 DUP2 SWAP1 SSTORE PUSH2 0x180 DUP6 SWAP1 MSTORE PUSH2 0x1A0 DUP4 SWAP1 MSTORE PUSH2 0x1C0 DUP5 SWAP1 MSTORE PUSH2 0x12C PUSH2 0x1E0 DUP2 SWAP1 MSTORE PUSH1 0x16 SWAP6 SWAP1 SWAP6 SSTORE PUSH1 0x17 SWAP3 SWAP1 SWAP3 SSTORE PUSH1 0x18 DUP4 SWAP1 SSTORE PUSH1 0x19 SWAP4 SWAP1 SWAP4 SSTORE PUSH2 0x200 DUP4 SWAP1 MSTORE PUSH1 0xC8 PUSH2 0x220 DUP2 SWAP1 MSTORE PUSH2 0x240 DUP4 SWAP1 MSTORE PUSH1 0xFA PUSH2 0x260 DUP2 SWAP1 MSTORE PUSH1 0x1A DUP6 SWAP1 SSTORE PUSH1 0x1B DUP3 SWAP1 SSTORE PUSH1 0x1C DUP5 SWAP1 SSTORE PUSH1 0x1D SSTORE PUSH2 0x280 DUP3 SWAP1 MSTORE PUSH2 0x2A0 DUP2 SWAP1 MSTORE PUSH2 0x2C0 DUP5 SWAP1 MSTORE PUSH2 0x2E0 DUP4 SWAP1 MSTORE PUSH1 0x1E DUP3 SWAP1 SSTORE PUSH1 0x1F DUP2 SWAP1 SSTORE PUSH1 0x20 DUP5 SWAP1 SSTORE PUSH1 0x21 DUP4 SWAP1 SSTORE PUSH2 0x380 PUSH1 0x40 MSTORE PUSH2 0x300 DUP3 SWAP1 MSTORE PUSH2 0x320 DUP2 SWAP1 MSTORE PUSH2 0x340 DUP5 SWAP1 MSTORE PUSH2 0x360 DUP4 SWAP1 MSTORE PUSH1 0x22 SWAP2 SWAP1 SWAP2 SSTORE PUSH1 0x23 SSTORE PUSH1 0x24 SWAP2 SWAP1 SWAP2 SSTORE PUSH1 0x25 SSTORE CALLVALUE DUP1 ISZERO PUSH3 0x13A JUMPI PUSH1 0x0 DUP1 REVERT JUMPDEST POP PUSH1 0x40 MLOAD PUSH3 0x46BD CODESIZE SUB DUP1 PUSH3 0x46BD DUP4 CODECOPY DUP2 ADD PUSH1 0x40 DUP2 SWAP1 MSTORE PUSH3 0x15D SWAP2 PUSH3 0x79D JUMP JUMPDEST PUSH1 0x1 DUP1 SLOAD PUSH1 0x1 PUSH1 0x1 PUSH1 0xA0 SHL SUB SWAP4 DUP5 AND PUSH1 0x1 PUSH1 0x1 PUSH1 0xA0 SHL SUB NOT SWAP2 DUP3 AND OR DUP3 SSTORE PUSH1 0x40 DUP1 MLOAD PUSH1 0x80 DUP1 DUP3 ADD DUP4 MSTORE PUSH2 0x4D8 DUP1 DUP4 MSTORE PUSH2 0xC80 PUSH1 0x20 DUP1 DUP6 ADD SWAP2 DUP3 MSTORE PUSH2 0x5A0 DUP6 DUP8 ADD SWAP1 DUP2 MSTORE PUSH2 0x370 PUSH1 0x60 DUP1 DUP9 ADD DUP3 DUP2 MSTORE PUSH1 0x0 SWAP12 DUP13 MSTORE PUSH1 0x28 DUP1 DUP7 MSTORE SWAP9 MLOAD PUSH32 0x97F6617E72684F128D84EA8B55C40E794B94716ACF5A4E8C39CB395494FDDCCA SSTORE SWAP5 MLOAD PUSH32 0x97F6617E72684F128D84EA8B55C40E794B94716ACF5A4E8C39CB395494FDDCCB SSTORE SWAP2 MLOAD PUSH32 0x97F6617E72684F128D84EA8B55C40E794B94716ACF5A4E8C39CB395494FDDCCC SSTORE SWAP3 MLOAD PUSH32 0x97F6617E72684F128D84EA8B55C40E794B94716ACF5A4E8C39CB395494FDDCCD SSTORE DUP7 MLOAD DUP1 DUP7 ADD DUP9 MSTORE PUSH2 0x514 DUP1 DUP3 MSTORE PUSH2 0xBB8 DUP3 DUP6 ADD SWAP1 DUP2 MSTORE DUP3 DUP11 ADD SWAP2 DUP3 MSTORE PUSH2 0x384 DUP4 DUP6 ADD SWAP1 DUP2 MSTORE PUSH1 0x2 DUP14 MSTORE DUP10 DUP7 MSTORE SWAP3 MLOAD PUSH32 0xD713AE4F394BFD6AEF7AF01A08D49AE9377AEC9E97DC14F4E41CCAF8D3C793D9 SSTORE MLOAD PUSH32 0xD713AE4F394BFD6AEF7AF01A08D49AE9377AEC9E97DC14F4E41CCAF8D3C793DA SSTORE MLOAD PUSH32 0xD713AE4F394BFD6AEF7AF01A08D49AE9377AEC9E97DC14F4E41CCAF8D3C793DB SSTORE MLOAD PUSH32 0xD713AE4F394BFD6AEF7AF01A08D49AE9377AEC9E97DC14F4E41CCAF8D3C793DC SSTORE DUP7 MLOAD DUP1 DUP7 ADD DUP9 MSTORE PUSH2 0x6E0 DUP2 MSTORE PUSH2 0x1068 DUP2 DUP5 ADD SWAP1 DUP2 MSTORE PUSH2 0x7A8 DUP3 DUP11 ADD SWAP1 DUP2 MSTORE PUSH2 0x528 DUP4 DUP6 ADD SWAP1 DUP2 MSTORE PUSH1 0x3 DUP14 MSTORE DUP10 DUP7 MSTORE SWAP3 MLOAD PUSH32 0x3F50DDE501A9B05E7F0BB523C05938F828FFDE895F79E7850CAA71D6B6B0DDFE SSTORE SWAP1 MLOAD PUSH32 0x3F50DDE501A9B05E7F0BB523C05938F828FFDE895F79E7850CAA71D6B6B0DDFF SSTORE MLOAD PUSH32 0x3F50DDE501A9B05E7F0BB523C05938F828FFDE895F79E7850CAA71D6B6B0DE00 SSTORE MLOAD PUSH32 0x3F50DDE501A9B05E7F0BB523C05938F828FFDE895F79E7850CAA71D6B6B0DE01 SSTORE DUP7 MLOAD DUP1 DUP7 ADD DUP9 MSTORE DUP5 DUP2 MSTORE PUSH2 0xAF0 DUP2 DUP5 ADD SWAP1 DUP2 MSTORE DUP2 DUP10 ADD SWAP6 DUP7 MSTORE PUSH2 0x3AC DUP3 DUP5 ADD SWAP1 DUP2 MSTORE PUSH1 0x4 DUP13 MSTORE DUP9 DUP6 MSTORE SWAP2 MLOAD PUSH32 0xAF472FF38E00D97287B8802D6DF9764E3DF1E30429B273F820DAB6FA8FD9861A SSTORE MLOAD PUSH32 0xAF472FF38E00D97287B8802D6DF9764E3DF1E30429B273F820DAB6FA8FD9861B SSTORE SWAP4 MLOAD PUSH32 0xAF472FF38E00D97287B8802D6DF9764E3DF1E30429B273F820DAB6FA8FD9861C SSTORE SWAP3 MLOAD PUSH32 0xAF472FF38E00D97287B8802D6DF9764E3DF1E30429B273F820DAB6FA8FD9861D SSTORE DUP6 MLOAD DUP1 DUP6 ADD DUP8 MSTORE PUSH2 0x190 DUP2 MSTORE PUSH2 0x410 DUP2 DUP4 ADD SWAP1 DUP2 MSTORE PUSH2 0x1C2 DUP3 DUP10 ADD SWAP1 DUP2 MSTORE PUSH1 0xE6 DUP4 DUP8 ADD SWAP1 DUP2 MSTORE PUSH1 0x5 DUP1 DUP14 MSTORE DUP10 DUP7 MSTORE SWAP4 MLOAD PUSH32 0xAD2C3458FDEBA7D1A6EFE90E102F2F97AC2C2F37F670557F48CDE22585C44D62 SSTORE SWAP2 MLOAD PUSH32 0xAD2C3458FDEBA7D1A6EFE90E102F2F97AC2C2F37F670557F48CDE22585C44D63 SSTORE MLOAD PUSH32 0xAD2C3458FDEBA7D1A6EFE90E102F2F97AC2C2F37F670557F48CDE22585C44D64 SSTORE MLOAD PUSH32 0xAD2C3458FDEBA7D1A6EFE90E102F2F97AC2C2F37F670557F48CDE22585C44D65 SSTORE DUP7 MLOAD DUP1 DUP7 ADD DUP9 MSTORE PUSH2 0x5B4 DUP1 DUP3 MSTORE PUSH2 0xC30 DUP3 DUP6 ADD SWAP1 DUP2 MSTORE DUP3 DUP11 ADD SWAP2 DUP3 MSTORE DUP3 DUP8 ADD SWAP6 DUP7 MSTORE PUSH1 0x6 DUP13 MSTORE DUP9 DUP6 MSTORE SWAP2 MLOAD PUSH32 0x104FDA3F4172DC288E1E3D643A196E7A8D4CFC4F58A33701373CE416A364CDF5 SSTORE SWAP1 MLOAD PUSH32 0x104FDA3F4172DC288E1E3D643A196E7A8D4CFC4F58A33701373CE416A364CDF6 SSTORE MLOAD PUSH32 0x104FDA3F4172DC288E1E3D643A196E7A8D4CFC4F58A33701373CE416A364CDF7 SSTORE SWAP2 MLOAD PUSH32 0x104FDA3F4172DC288E1E3D643A196E7A8D4CFC4F58A33701373CE416A364CDF8 SSTORE DUP6 MLOAD DUP1 DUP6 ADD DUP8 MSTORE PUSH2 0xADC DUP2 MSTORE PUSH2 0x1900 DUP2 DUP4 ADD SWAP1 DUP2 MSTORE PUSH2 0x2FA8 DUP3 DUP10 ADD SWAP1 DUP2 MSTORE PUSH2 0x924 DUP4 DUP8 ADD SWAP1 DUP2 MSTORE PUSH1 0x7 DUP13 MSTORE DUP9 DUP6 MSTORE SWAP3 MLOAD PUSH32 0xEEB7DAFA255979DC6B55855CBA04E5B42BD868E86965DDA728E52178B587F0CD SSTORE SWAP1 MLOAD PUSH32 0xEEB7DAFA255979DC6B55855CBA04E5B42BD868E86965DDA728E52178B587F0CE SSTORE MLOAD PUSH32 0xEEB7DAFA255979DC6B55855CBA04E5B42BD868E86965DDA728E52178B587F0CF SSTORE MLOAD PUSH32 0xEEB7DAFA255979DC6B55855CBA04E5B42BD868E86965DDA728E52178B587F0D0 SSTORE DUP6 MLOAD SWAP4 DUP5 ADD DUP7 MSTORE PUSH2 0x690 DUP5 MSTORE PUSH2 0xE60 DUP5 DUP3 ADD SWAP1 DUP2 MSTORE PUSH2 0x758 SWAP7 DUP6 ADD SWAP7 DUP8 MSTORE PUSH2 0x550 SWAP4 DUP6 ADD SWAP4 DUP5 MSTORE PUSH1 0x8 DUP10 MSTORE SWAP5 SWAP1 MSTORE SWAP2 MLOAD PUSH32 0xC7B050ED9348380D353D0746F1C9F2F7406F6FB132F62ACDDC53F159D8483FB1 SSTORE SWAP2 MLOAD PUSH32 0xC7B050ED9348380D353D0746F1C9F2F7406F6FB132F62ACDDC53F159D8483FB2 SSTORE SWAP2 MLOAD PUSH32 0xC7B050ED9348380D353D0746F1C9F2F7406F6FB132F62ACDDC53F159D8483FB3 SSTORE MLOAD PUSH32 0xC7B050ED9348380D353D0746F1C9F2F7406F6FB132F62ACDDC53F159D8483FB4 SSTORE PUSH1 0xB DUP1 SLOAD DUP4 AND CALLER OR SWAP1 SSTORE DUP3 SLOAD SWAP4 SWAP1 SWAP5 AND SWAP3 AND SWAP2 SWAP1 SWAP2 OR SWAP1 SSTORE TIMESTAMP SWAP1 SSTORE PUSH3 0x7D5 JUMP JUMPDEST DUP1 MLOAD PUSH1 0x1 PUSH1 0x1 PUSH1 0xA0 SHL SUB DUP2 AND DUP2 EQ PUSH3 0x798 JUMPI PUSH1 0x0 DUP1 REVERT JUMPDEST SWAP2 SWAP1 POP JUMP JUMPDEST PUSH1 0x0 DUP1 PUSH1 0x40 DUP4 DUP6 SUB SLT ISZERO PUSH3 0x7B1 JUMPI PUSH1 0x0 DUP1 REVERT JUMPDEST PUSH3 0x7BC DUP4 PUSH3 0x780 JUMP JUMPDEST SWAP2 POP PUSH3 0x7CC PUSH1 0x20 DUP5 ADD PUSH3 0x780 JUMP JUMPDEST SWAP1 POP SWAP3 POP SWAP3 SWAP1 POP JUMP JUMPDEST PUSH2 0x3ED8 DUP1 PUSH3 0x7E5 PUSH1 0x0 CODECOPY PUSH1 0x0 RETURN INVALID PUSH1 0x80 PUSH1 0x40 MSTORE PUSH1 0x4 CALLDATASIZE LT PUSH2 0x267 JUMPI PUSH1 0x0 CALLDATALOAD PUSH1 0xE0 SHR DUP1 PUSH4 0x800BFA27 GT PUSH2 0x144 JUMPI DUP1 PUSH4 0xC1712D57 GT PUSH2 0xB6 JUMPI DUP1 PUSH4 0xE3198E08 GT PUSH2 0x7A JUMPI DUP1 PUSH4 0xE3198E08 EQ PUSH2 0x93C JUMPI DUP1 PUSH4 0xE9DD6583 EQ PUSH2 0x96C JUMPI DUP1 PUSH4 0xF3245254 EQ PUSH2 0x97F JUMPI DUP1 PUSH4 0xF89D7571 EQ PUSH2 0x99F JUMPI DUP1 PUSH4 0xF9C64454 EQ PUSH2 0x9BF JUMPI DUP1 PUSH4 0xFAE92612 EQ PUSH2 0x9E2 JUMPI PUSH1 0x0 DUP1 REVERT JUMPDEST DUP1 PUSH4 0xC1712D57 EQ PUSH2 0x86A JUMPI DUP1 PUSH4 0xCCD5E491 EQ PUSH2 0x8AC JUMPI DUP1 PUSH4 0xDAA17F49 EQ PUSH2 0x8E7 JUMPI DUP1 PUSH4 0xDD4B466B EQ PUSH2 0x907 JUMPI DUP1 PUSH4 0xDECC1BBF EQ PUSH2 0x927 JUMPI PUSH1 0x0 DUP1 REVERT JUMPDEST DUP1 PUSH4 0x9B562DF2 GT PUSH2 0x108 JUMPI DUP1 PUSH4 0x9B562DF2 EQ PUSH2 0x677 JUMPI DUP1 PUSH4 0xA2F9CC5B EQ PUSH2 0x77B JUMPI DUP1 PUSH4 0xA596B645 EQ PUSH2 0x7D7 JUMPI DUP1 PUSH4 0xBD638378 EQ PUSH2 0x7FA JUMPI DUP1 PUSH4 0xBDC7DA8E EQ PUSH2 0x827 JUMPI DUP1 PUSH4 0xBE9A263C EQ PUSH2 0x83D JUMPI PUSH1 0x0 DUP1 REVERT JUMPDEST DUP1 PUSH4 0x800BFA27 EQ PUSH2 0x5B9 JUMPI DUP1 PUSH4 0x887ACA72 EQ PUSH2 0x5DC JUMPI DUP1 PUSH4 0x8C87FA4F EQ PUSH2 0x614 JUMPI DUP1 PUSH4 0x8DA5CB5B EQ PUSH2 0x637 JUMPI DUP1 PUSH4 0x9A4A2084 EQ PUSH2 0x657 JUMPI PUSH1 0x0 DUP1 REVERT JUMPDEST DUP1 PUSH4 0x428967DA GT PUSH2 0x1DD JUMPI DUP1 PUSH4 0x60B76B52 GT PUSH2 0x1A1 JUMPI DUP1 PUSH4 0x60B76B52 EQ PUSH2 0x500 JUMPI DUP1 PUSH4 0x620A9A99 EQ PUSH2 0x520 JUMPI DUP1 PUSH4 0x65AF3A2F EQ PUSH2 0x543 JUMPI DUP1 PUSH4 0x7502BAD4 EQ PUSH2 0x559 JUMPI DUP1 PUSH4 0x7659BC60 EQ PUSH2 0x579 JUMPI DUP1 PUSH4 0x7CCA26D9 EQ PUSH2 0x599 JUMPI PUSH1 0x0 DUP1 REVERT JUMPDEST DUP1 PUSH4 0x428967DA EQ PUSH2 0x427 JUMPI DUP1 PUSH4 0x4F264B03 EQ PUSH2 0x43D JUMPI DUP1 PUSH4 0x537E8F49 EQ PUSH2 0x45D JUMPI DUP1 PUSH4 0x5D219D5F EQ PUSH2 0x4A0 JUMPI DUP1 PUSH4 0x5E75968E EQ PUSH2 0x4C0 JUMPI PUSH1 0x0 DUP1 REVERT JUMPDEST DUP1 PUSH4 0x2A490AE8 GT PUSH2 0x22F JUMPI DUP1 PUSH4 0x2A490AE8 EQ PUSH2 0x32F JUMPI DUP1 PUSH4 0x2EF78865 EQ PUSH2 0x34F JUMPI DUP1 PUSH4 0x351662E4 EQ PUSH2 0x387 JUMPI DUP1 PUSH4 0x3E5F2857 EQ PUSH2 0x3A7 JUMPI DUP1 PUSH4 0x41EDE44F EQ PUSH2 0x3C7 JUMPI DUP1 PUSH4 0x4274B164 EQ PUSH2 0x407 JUMPI PUSH1 0x0 DUP1 REVERT JUMPDEST DUP1 PUSH4 0x7722BC2 EQ PUSH2 0x26C JUMPI DUP1 PUSH4 0xD67F59E EQ PUSH2 0x28E JUMPI DUP1 PUSH4 0xDF7B41A EQ PUSH2 0x2CB JUMPI DUP1 PUSH4 0xEE22F31 EQ PUSH2 0x2EB JUMPI DUP1 PUSH4 0x21B74EA7 EQ PUSH2 0x30B JUMPI JUMPDEST PUSH1 0x0 DUP1 REVERT JUMPDEST CALLVALUE DUP1 ISZERO PUSH2 0x278 JUMPI PUSH1 0x0 DUP1 REVERT JUMPDEST POP PUSH2 0x28C PUSH2 0x287 CALLDATASIZE PUSH1 0x4 PUSH2 0x368D JUMP JUMPDEST PUSH2 0xA02 JUMP JUMPDEST STOP JUMPDEST CALLVALUE DUP1 ISZERO PUSH2 0x29A JUMPI PUSH1 0x0 DUP1 REVERT JUMPDEST POP PUSH1 0x0 SLOAD PUSH2 0x2AE SWAP1 PUSH1 0x1 PUSH1 0x1 PUSH1 0xA0 SHL SUB AND DUP2 JUMP JUMPDEST PUSH1 0x40 MLOAD PUSH1 0x1 PUSH1 0x1 PUSH1 0xA0 SHL SUB SWAP1 SWAP2 AND DUP2 MSTORE PUSH1 0x20 ADD JUMPDEST PUSH1 0x40 MLOAD DUP1 SWAP2 SUB SWAP1 RETURN JUMPDEST CALLVALUE DUP1 ISZERO PUSH2 0x2D7 JUMPI PUSH1 0x0 DUP1 REVERT JUMPDEST POP PUSH2 0x28C PUSH2 0x2E6 CALLDATASIZE PUSH1 0x4 PUSH2 0x36F3 JUMP JUMPDEST PUSH2 0xC10 JUMP JUMPDEST CALLVALUE DUP1 ISZERO PUSH2 0x2F7 JUMPI PUSH1 0x0 DUP1 REVERT JUMPDEST POP PUSH2 0x28C PUSH2 0x306 CALLDATASIZE PUSH1 0x4 PUSH2 0x3717 JUMP JUMPDEST PUSH2 0xC5C JUMP JUMPDEST CALLVALUE DUP1 ISZERO PUSH2 0x317 JUMPI PUSH1 0x0 DUP1 REVERT JUMPDEST POP PUSH2 0x321 PUSH1 0x3 SLOAD DUP2 JUMP JUMPDEST PUSH1 0x40 MLOAD SWAP1 DUP2 MSTORE PUSH1 0x20 ADD PUSH2 0x2C2 JUMP JUMPDEST CALLVALUE DUP1 ISZERO PUSH2 0x33B JUMPI PUSH1 0x0 DUP1 REVERT JUMPDEST POP PUSH2 0x321 PUSH2 0x34A CALLDATASIZE PUSH1 0x4 PUSH2 0x3788 JUMP JUMPDEST PUSH2 0x1059 JUMP JUMPDEST CALLVALUE DUP1 ISZERO PUSH2 0x35B JUMPI PUSH1 0x0 DUP1 REVERT JUMPDEST POP PUSH2 0x321 PUSH2 0x36A CALLDATASIZE PUSH1 0x4 PUSH2 0x3788 JUMP JUMPDEST PUSH1 0x9 PUSH1 0x20 SWAP1 DUP2 MSTORE PUSH1 0x0 SWAP3 DUP4 MSTORE PUSH1 0x40 DUP1 DUP5 KECCAK256 SWAP1 SWAP2 MSTORE SWAP1 DUP3 MSTORE SWAP1 KECCAK256 SLOAD DUP2 JUMP JUMPDEST CALLVALUE DUP1 ISZERO PUSH2 0x393 JUMPI PUSH1 0x0 DUP1 REVERT JUMPDEST POP PUSH2 0x28C PUSH2 0x3A2 CALLDATASIZE PUSH1 0x4 PUSH2 0x37C1 JUMP JUMPDEST PUSH2 0x1070 JUMP JUMPDEST CALLVALUE DUP1 ISZERO PUSH2 0x3B3 JUMPI PUSH1 0x0 DUP1 REVERT JUMPDEST POP PUSH2 0x28C PUSH2 0x3C2 CALLDATASIZE PUSH1 0x4 PUSH2 0x381A JUMP JUMPDEST PUSH2 0x146B JUMP JUMPDEST CALLVALUE DUP1 ISZERO PUSH2 0x3D3 JUMPI PUSH1 0x0 DUP1 REVERT JUMPDEST POP PUSH2 0x321 PUSH2 0x3E2 CALLDATASIZE PUSH1 0x4 PUSH2 0x3788 JUMP JUMPDEST PUSH1 0xFF SWAP2 DUP3 AND PUSH1 0x0 SWAP1 DUP2 MSTORE PUSH1 0x6 PUSH1 0x20 SWAP1 DUP2 MSTORE PUSH1 0x40 DUP1 DUP4 KECCAK256 SWAP4 SWAP1 SWAP5 AND DUP3 MSTORE SWAP2 SWAP1 SWAP2 MSTORE KECCAK256 SLOAD SWAP1 JUMP JUMPDEST CALLVALUE DUP1 ISZERO PUSH2 0x413 JUMPI PUSH1 0x0 DUP1 REVERT JUMPDEST POP PUSH2 0x28C PUSH2 0x422 CALLDATASIZE PUSH1 0x4 PUSH2 0x368D JUMP JUMPDEST PUSH2 0x193D JUMP JUMPDEST CALLVALUE DUP1 ISZERO PUSH2 0x433 JUMPI PUSH1 0x0 DUP1 REVERT JUMPDEST POP PUSH2 0x321 PUSH1 0x4 SLOAD DUP2 JUMP JUMPDEST CALLVALUE DUP1 ISZERO PUSH2 0x449 JUMPI PUSH1 0x0 DUP1 REVERT JUMPDEST POP PUSH1 0x1 SLOAD PUSH2 0x2AE SWAP1 PUSH1 0x1 PUSH1 0x1 PUSH1 0xA0 SHL SUB AND DUP2 JUMP JUMPDEST CALLVALUE DUP1 ISZERO PUSH2 0x469 JUMPI PUSH1 0x0 DUP1 REVERT JUMPDEST POP PUSH1 0x1A SLOAD PUSH1 0x1B SLOAD PUSH1 0x1C SLOAD PUSH1 0x1D SLOAD PUSH2 0x480 SWAP4 SWAP3 SWAP2 SWAP1 DUP5 JUMP JUMPDEST PUSH1 0x40 DUP1 MLOAD SWAP5 DUP6 MSTORE PUSH1 0x20 DUP6 ADD SWAP4 SWAP1 SWAP4 MSTORE SWAP2 DUP4 ADD MSTORE PUSH1 0x60 DUP3 ADD MSTORE PUSH1 0x80 ADD PUSH2 0x2C2 JUMP JUMPDEST CALLVALUE DUP1 ISZERO PUSH2 0x4AC JUMPI PUSH1 0x0 DUP1 REVERT JUMPDEST POP PUSH2 0x28C PUSH2 0x4BB CALLDATASIZE PUSH1 0x4 PUSH2 0x36F3 JUMP JUMPDEST PUSH2 0x1B3C JUMP JUMPDEST CALLVALUE DUP1 ISZERO PUSH2 0x4CC JUMPI PUSH1 0x0 DUP1 REVERT JUMPDEST POP PUSH2 0x4F0 PUSH2 0x4DB CALLDATASIZE PUSH1 0x4 PUSH2 0x36F3 JUMP JUMPDEST PUSH1 0x8 PUSH1 0x20 MSTORE PUSH1 0x0 SWAP1 DUP2 MSTORE PUSH1 0x40 SWAP1 KECCAK256 SLOAD PUSH1 0xFF AND DUP2 JUMP JUMPDEST PUSH1 0x40 MLOAD SWAP1 ISZERO ISZERO DUP2 MSTORE PUSH1 0x20 ADD PUSH2 0x2C2 JUMP JUMPDEST CALLVALUE DUP1 ISZERO PUSH2 0x50C JUMPI PUSH1 0x0 DUP1 REVERT JUMPDEST POP PUSH2 0x28C PUSH2 0x51B CALLDATASIZE PUSH1 0x4 PUSH2 0x3874 JUMP JUMPDEST PUSH2 0x1B88 JUMP JUMPDEST CALLVALUE DUP1 ISZERO PUSH2 0x52C JUMPI PUSH1 0x0 DUP1 REVERT JUMPDEST POP PUSH1 0xE SLOAD PUSH1 0xF SLOAD PUSH1 0x10 SLOAD PUSH1 0x11 SLOAD PUSH2 0x480 SWAP4 SWAP3 SWAP2 SWAP1 DUP5 JUMP JUMPDEST CALLVALUE DUP1 ISZERO PUSH2 0x54F JUMPI PUSH1 0x0 DUP1 REVERT JUMPDEST POP PUSH2 0x321 PUSH1 0x5 SLOAD DUP2 JUMP JUMPDEST CALLVALUE DUP1 ISZERO PUSH2 0x565 JUMPI PUSH1 0x0 DUP1 REVERT JUMPDEST POP PUSH1 0xD SLOAD PUSH2 0x2AE SWAP1 PUSH1 0x1 PUSH1 0x1 PUSH1 0xA0 SHL SUB AND DUP2 JUMP JUMPDEST CALLVALUE DUP1 ISZERO PUSH2 0x585 JUMPI PUSH1 0x0 DUP1 REVERT JUMPDEST POP PUSH2 0x28C PUSH2 0x594 CALLDATASIZE PUSH1 0x4 PUSH2 0x3788 JUMP JUMPDEST PUSH2 0x1DA3 JUMP JUMPDEST CALLVALUE DUP1 ISZERO PUSH2 0x5A5 JUMPI PUSH1 0x0 DUP1 REVERT JUMPDEST POP PUSH1 0x2 SLOAD PUSH2 0x2AE SWAP1 PUSH1 0x1 PUSH1 0x1 PUSH1 0xA0 SHL SUB AND DUP2 JUMP JUMPDEST CALLVALUE DUP1 ISZERO PUSH2 0x5C5 JUMPI PUSH1 0x0 DUP1 REVERT JUMPDEST POP PUSH1 0x16 SLOAD PUSH1 0x17 SLOAD PUSH1 0x18 SLOAD PUSH1 0x19 SLOAD PUSH2 0x480 SWAP4 SWAP3 SWAP2 SWAP1 DUP5 JUMP JUMPDEST CALLVALUE DUP1 ISZERO PUSH2 0x5E8 JUMPI PUSH1 0x0 DUP1 REVERT JUMPDEST POP PUSH2 0x321 PUSH2 0x5F7 CALLDATASIZE PUSH1 0x4 PUSH2 0x3788 JUMP JUMPDEST PUSH1 0x6 PUSH1 0x20 SWAP1 DUP2 MSTORE PUSH1 0x0 SWAP3 DUP4 MSTORE PUSH1 0x40 DUP1 DUP5 KECCAK256 SWAP1 SWAP2 MSTORE SWAP1 DUP3 MSTORE SWAP1 KECCAK256 SLOAD DUP2 JUMP JUMPDEST CALLVALUE DUP1 ISZERO PUSH2 0x620 JUMPI PUSH1 0x0 DUP1 REVERT JUMPDEST POP PUSH1 0x12 SLOAD PUSH1 0x13 SLOAD PUSH1 0x14 SLOAD PUSH1 0x15 SLOAD PUSH2 0x480 SWAP4 SWAP3 SWAP2 SWAP1 DUP5 JUMP JUMPDEST CALLVALUE DUP1 ISZERO PUSH2 0x643 JUMPI PUSH1 0x0 DUP1 REVERT JUMPDEST POP PUSH1 0xB SLOAD PUSH2 0x2AE SWAP1 PUSH1 0x1 PUSH1 0x1 PUSH1 0xA0 SHL SUB AND DUP2 JUMP JUMPDEST CALLVALUE DUP1 ISZERO PUSH2 0x663 JUMPI PUSH1 0x0 DUP1 REVERT JUMPDEST POP PUSH2 0x28C PUSH2 0x672 CALLDATASIZE PUSH1 0x4 PUSH2 0x38D0 JUMP JUMPDEST PUSH2 0x1DFC JUMP JUMPDEST CALLVALUE DUP1 ISZERO PUSH2 0x683 JUMPI PUSH1 0x0 DUP1 REVERT JUMPDEST POP PUSH2 0x767 PUSH2 0x692 CALLDATASIZE PUSH1 0x4 PUSH2 0x3788 JUMP JUMPDEST PUSH1 0x26 PUSH1 0x20 SWAP1 DUP2 MSTORE PUSH1 0x0 SWAP3 DUP4 MSTORE PUSH1 0x40 DUP1 DUP5 KECCAK256 DUP3 MSTORE SWAP2 DUP4 MSTORE SWAP2 DUP2 SWAP1 KECCAK256 DUP2 MLOAD PUSH1 0x80 DUP1 DUP3 ADD DUP5 MSTORE DUP3 SLOAD DUP3 MSTORE PUSH1 0x1 DUP4 ADD SLOAD DUP3 DUP7 ADD MSTORE PUSH1 0x2 DUP4 ADD SLOAD DUP3 DUP6 ADD MSTORE PUSH1 0x3 DUP4 ADD SLOAD PUSH1 0x60 DUP1 DUP5 ADD SWAP2 SWAP1 SWAP2 MSTORE PUSH1 0x4 DUP5 ADD SLOAD PUSH1 0x5 DUP6 ADD SLOAD PUSH1 0x6 DUP7 ADD SLOAD PUSH1 0x7 DUP8 ADD SLOAD DUP9 MLOAD PUSH1 0xC0 DUP2 ADD DUP11 MSTORE PUSH1 0x8 DUP10 ADD SLOAD DUP2 MSTORE PUSH1 0x9 DUP10 ADD SLOAD DUP2 DUP13 ADD MSTORE PUSH1 0xA DUP10 ADD SLOAD DUP2 DUP12 ADD MSTORE PUSH1 0xB DUP10 ADD SLOAD SWAP6 DUP2 ADD SWAP6 SWAP1 SWAP6 MSTORE PUSH1 0xC DUP9 ADD SLOAD SWAP6 DUP6 ADD SWAP6 SWAP1 SWAP6 MSTORE PUSH1 0xD DUP8 ADD SLOAD PUSH1 0xA0 DUP6 ADD MSTORE DUP8 MLOAD DUP1 DUP10 ADD SWAP1 SWAP9 MSTORE PUSH1 0xE DUP8 ADD SLOAD PUSH1 0xFF DUP1 DUP3 AND DUP11 MSTORE PUSH2 0x100 SWAP1 SWAP2 DIV AND SWAP9 DUP9 ADD SWAP9 SWAP1 SWAP9 MSTORE PUSH1 0xF SWAP1 SWAP6 ADD SLOAD SWAP4 SWAP7 PUSH2 0xFFFF SWAP2 DUP3 AND SWAP7 SWAP2 AND SWAP4 DUP9 JUMP JUMPDEST PUSH1 0x40 MLOAD PUSH2 0x2C2 SWAP9 SWAP8 SWAP7 SWAP6 SWAP5 SWAP4 SWAP3 SWAP2 SWAP1 PUSH2 0x3910 JUMP JUMPDEST CALLVALUE DUP1 ISZERO PUSH2 0x787 JUMPI PUSH1 0x0 DUP1 REVERT JUMPDEST POP PUSH2 0x7C5 PUSH2 0x796 CALLDATASIZE PUSH1 0x4 PUSH2 0x3874 JUMP JUMPDEST PUSH1 0x27 PUSH1 0x20 SWAP1 DUP2 MSTORE PUSH1 0x0 SWAP5 DUP6 MSTORE PUSH1 0x40 DUP1 DUP7 KECCAK256 DUP3 MSTORE SWAP4 DUP6 MSTORE DUP4 DUP6 KECCAK256 DUP2 MSTORE SWAP2 DUP5 MSTORE DUP3 DUP5 KECCAK256 SWAP1 SWAP2 MSTORE DUP3 MSTORE SWAP1 KECCAK256 SLOAD PUSH1 0xFF AND DUP2 JUMP JUMPDEST PUSH1 0x40 MLOAD PUSH1 0xFF SWAP1 SWAP2 AND DUP2 MSTORE PUSH1 0x20 ADD PUSH2 0x2C2 JUMP JUMPDEST CALLVALUE DUP1 ISZERO PUSH2 0x7E3 JUMPI PUSH1 0x0 DUP1 REVERT JUMPDEST POP PUSH1 0x1E SLOAD PUSH1 0x1F SLOAD PUSH1 0x20 SLOAD PUSH1 0x21 SLOAD PUSH2 0x480 SWAP4 SWAP3 SWAP2 SWAP1 DUP5 JUMP JUMPDEST CALLVALUE DUP1 ISZERO PUSH2 0x806 JUMPI PUSH1 0x0 DUP1 REVERT JUMPDEST POP PUSH2 0x81A PUSH2 0x815 CALLDATASIZE PUSH1 0x4 PUSH2 0x3788 JUMP JUMPDEST PUSH2 0x1E5A JUMP JUMPDEST PUSH1 0x40 MLOAD PUSH2 0x2C2 SWAP2 SWAP1 PUSH2 0x39CC JUMP JUMPDEST CALLVALUE DUP1 ISZERO PUSH2 0x833 JUMPI PUSH1 0x0 DUP1 REVERT JUMPDEST POP PUSH2 0x321 PUSH2 0x3E8 DUP2 JUMP JUMPDEST CALLVALUE DUP1 ISZERO PUSH2 0x849 JUMPI PUSH1 0x0 DUP1 REVERT JUMPDEST POP PUSH2 0x85D PUSH2 0x858 CALLDATASIZE PUSH1 0x4 PUSH2 0x3788 JUMP JUMPDEST PUSH2 0x1FB0 JUMP JUMPDEST PUSH1 0x40 MLOAD PUSH2 0x2C2 SWAP2 SWAP1 PUSH2 0x3A88 JUMP JUMPDEST CALLVALUE DUP1 ISZERO PUSH2 0x876 JUMPI PUSH1 0x0 DUP1 REVERT JUMPDEST POP PUSH2 0x480 PUSH2 0x885 CALLDATASIZE PUSH1 0x4 PUSH2 0x3AED JUMP JUMPDEST PUSH1 0x28 PUSH1 0x20 MSTORE PUSH1 0x0 SWAP1 DUP2 MSTORE PUSH1 0x40 SWAP1 KECCAK256 DUP1 SLOAD PUSH1 0x1 DUP3 ADD SLOAD PUSH1 0x2 DUP4 ADD SLOAD PUSH1 0x3 SWAP1 SWAP4 ADD SLOAD SWAP2 SWAP3 SWAP1 SWAP2 DUP5 JUMP JUMPDEST CALLVALUE DUP1 ISZERO PUSH2 0x8B8 JUMPI PUSH1 0x0 DUP1 REVERT JUMPDEST POP PUSH2 0x4F0 PUSH2 0x8C7 CALLDATASIZE PUSH1 0x4 PUSH2 0x3788 JUMP JUMPDEST PUSH1 0xA PUSH1 0x20 SWAP1 DUP2 MSTORE PUSH1 0x0 SWAP3 DUP4 MSTORE PUSH1 0x40 DUP1 DUP5 KECCAK256 SWAP1 SWAP2 MSTORE SWAP1 DUP3 MSTORE SWAP1 KECCAK256 SLOAD PUSH1 0xFF AND DUP2 JUMP JUMPDEST CALLVALUE DUP1 ISZERO PUSH2 0x8F3 JUMPI PUSH1 0x0 DUP1 REVERT JUMPDEST POP PUSH1 0xC SLOAD PUSH2 0x2AE SWAP1 PUSH1 0x1 PUSH1 0x1 PUSH1 0xA0 SHL SUB AND DUP2 JUMP JUMPDEST CALLVALUE DUP1 ISZERO PUSH2 0x913 JUMPI PUSH1 0x0 DUP1 REVERT JUMPDEST POP PUSH2 0x28C PUSH2 0x922 CALLDATASIZE PUSH1 0x4 PUSH2 0x3788 JUMP JUMPDEST PUSH2 0x2124 JUMP JUMPDEST CALLVALUE DUP1 ISZERO PUSH2 0x933 JUMPI PUSH1 0x0 DUP1 REVERT JUMPDEST POP PUSH2 0x7C5 PUSH1 0x9 DUP2 JUMP JUMPDEST CALLVALUE DUP1 ISZERO PUSH2 0x948 JUMPI PUSH1 0x0 DUP1 REVERT JUMPDEST POP PUSH2 0x4F0 PUSH2 0x957 CALLDATASIZE PUSH1 0x4 PUSH2 0x36F3 JUMP JUMPDEST PUSH1 0x7 PUSH1 0x20 MSTORE PUSH1 0x0 SWAP1 DUP2 MSTORE PUSH1 0x40 SWAP1 KECCAK256 SLOAD PUSH1 0xFF AND DUP2 JUMP JUMPDEST PUSH2 0x28C PUSH2 0x97A CALLDATASIZE PUSH1 0x4 PUSH2 0x3B0A JUMP JUMPDEST PUSH2 0x2285 JUMP JUMPDEST CALLVALUE DUP1 ISZERO PUSH2 0x98B JUMPI PUSH1 0x0 DUP1 REVERT JUMPDEST POP PUSH2 0x321 PUSH2 0x99A CALLDATASIZE PUSH1 0x4 PUSH2 0x3788 JUMP JUMPDEST PUSH2 0x297E JUMP JUMPDEST CALLVALUE DUP1 ISZERO PUSH2 0x9AB JUMPI PUSH1 0x0 DUP1 REVERT JUMPDEST POP PUSH2 0x28C PUSH2 0x9BA CALLDATASIZE PUSH1 0x4 PUSH2 0x368D JUMP JUMPDEST PUSH2 0x2B11 JUMP JUMPDEST CALLVALUE DUP1 ISZERO PUSH2 0x9CB JUMPI PUSH1 0x0 DUP1 REVERT JUMPDEST POP PUSH1 0x22 SLOAD PUSH1 0x23 SLOAD PUSH1 0x24 SLOAD PUSH1 0x25 SLOAD PUSH2 0x480 SWAP4 SWAP3 SWAP2 SWAP1 DUP5 JUMP JUMPDEST CALLVALUE DUP1 ISZERO PUSH2 0x9EE JUMPI PUSH1 0x0 DUP1 REVERT JUMPDEST POP PUSH2 0x28C PUSH2 0x9FD CALLDATASIZE PUSH1 0x4 PUSH2 0x36F3 JUMP JUMPDEST PUSH2 0x2E5A JUMP JUMPDEST PUSH1 0x1 SLOAD PUSH1 0x40 MLOAD PUSH4 0x8A888953 PUSH1 0xE0 SHL DUP2 MSTORE PUSH1 0xFF DUP1 DUP8 AND PUSH1 0x4 DUP4 ADD MSTORE DUP6 AND PUSH1 0x24 DUP3 ADD MSTORE DUP6 SWAP2 DUP6 SWAP2 CALLER SWAP2 PUSH1 0x1 PUSH1 0x1 PUSH1 0xA0 SHL SUB AND SWAP1 PUSH4 0x8A888953 SWAP1 PUSH1 0x44 ADD PUSH1 0x20 PUSH1 0x40 MLOAD DUP1 DUP4 SUB DUP2 DUP7 GAS STATICCALL ISZERO DUP1 ISZERO PUSH2 0xA59 JUMPI RETURNDATASIZE PUSH1 0x0 DUP1 RETURNDATACOPY RETURNDATASIZE PUSH1 0x0 REVERT JUMPDEST POP POP POP POP PUSH1 0x40 MLOAD RETURNDATASIZE PUSH1 0x1F NOT PUSH1 0x1F DUP3 ADD AND DUP3 ADD DUP1 PUSH1 0x40 MSTORE POP DUP2 ADD SWAP1 PUSH2 0xA7D SWAP2 SWAP1 PUSH2 0x3B31 JUMP JUMPDEST PUSH1 0x1 PUSH1 0x1 PUSH1 0xA0 SHL SUB AND EQ PUSH2 0xAAC JUMPI PUSH1 0x40 MLOAD PUSH3 0x461BCD PUSH1 0xE5 SHL DUP2 MSTORE PUSH1 0x4 ADD PUSH2 0xAA3 SWAP1 PUSH2 0x3B4E JUMP JUMPDEST PUSH1 0x40 MLOAD DUP1 SWAP2 SUB SWAP1 REVERT JUMPDEST PUSH1 0x0 DUP4 GT PUSH2 0xACC JUMPI PUSH1 0x40 MLOAD PUSH3 0x461BCD PUSH1 0xE5 SHL DUP2 MSTORE PUSH1 0x4 ADD PUSH2 0xAA3 SWAP1 PUSH2 0x3B6B JUMP JUMPDEST DUP4 PUSH1 0xFF AND PUSH1 0x1 EQ DUP1 PUSH2 0xAE1 JUMPI POP DUP4 PUSH1 0xFF AND PUSH1 0x2 EQ JUMPDEST PUSH2 0xAFD JUMPI PUSH1 0x40 MLOAD PUSH3 0x461BCD PUSH1 0xE5 SHL DUP2 MSTORE PUSH1 0x4 ADD PUSH2 0xAA3 SWAP1 PUSH2 0x3B86 JUMP JUMPDEST PUSH1 0x0 PUSH2 0xB0B DUP8 DUP8 PUSH1 0x1 PUSH2 0x2EA6 JUMP JUMPDEST SWAP1 POP PUSH1 0x0 DUP2 GT PUSH2 0xB2D JUMPI PUSH1 0x40 MLOAD PUSH3 0x461BCD PUSH1 0xE5 SHL DUP2 MSTORE PUSH1 0x4 ADD PUSH2 0xAA3 SWAP1 PUSH2 0x3BA1 JUMP JUMPDEST PUSH1 0x0 DUP6 PUSH1 0xFF AND PUSH1 0x1 EQ PUSH2 0xB41 JUMPI PUSH1 0x12 PUSH2 0xB44 JUMP JUMPDEST PUSH1 0xE JUMPDEST PUSH1 0x40 DUP1 MLOAD PUSH1 0x80 DUP2 ADD DUP3 MSTORE DUP3 SLOAD DUP2 MSTORE PUSH1 0x1 DUP4 ADD SLOAD PUSH1 0x20 DUP3 ADD MSTORE PUSH1 0x2 DUP4 ADD SLOAD SWAP2 DUP2 ADD SWAP2 SWAP1 SWAP2 MSTORE PUSH1 0x3 SWAP1 SWAP2 ADD SLOAD PUSH1 0x60 DUP3 ADD MSTORE SWAP1 POP PUSH2 0xB82 DUP9 DUP9 DUP4 DUP9 DUP7 PUSH2 0x2F41 JUMP JUMPDEST DUP6 PUSH1 0xFF AND PUSH1 0x1 SUB PUSH2 0xBCC JUMPI PUSH1 0xFF DUP1 DUP10 AND PUSH1 0x0 SWAP1 DUP2 MSTORE PUSH1 0x26 PUSH1 0x20 SWAP1 DUP2 MSTORE PUSH1 0x40 DUP1 DUP4 KECCAK256 SWAP4 DUP12 AND DUP4 MSTORE SWAP3 SWAP1 MSTORE SWAP1 DUP2 KECCAK256 PUSH1 0x8 ADD DUP1 SLOAD DUP8 SWAP3 SWAP1 PUSH2 0xBC1 SWAP1 DUP5 SWAP1 PUSH2 0x3BD2 JUMP JUMPDEST SWAP1 SWAP2 SSTORE POP PUSH2 0xC06 SWAP1 POP JUMP JUMPDEST PUSH1 0xFF DUP1 DUP10 AND PUSH1 0x0 SWAP1 DUP2 MSTORE PUSH1 0x26 PUSH1 0x20 SWAP1 DUP2 MSTORE PUSH1 0x40 DUP1 DUP4 KECCAK256 SWAP4 DUP12 AND DUP4 MSTORE SWAP3 SWAP1 MSTORE SWAP1 DUP2 KECCAK256 PUSH1 0x9 ADD DUP1 SLOAD DUP8 SWAP3 SWAP1 PUSH2 0xC00 SWAP1 DUP5 SWAP1 PUSH2 0x3BD2 JUMP JUMPDEST SWAP1 SWAP2 SSTORE POP POP JUMPDEST POP POP POP POP POP POP POP POP JUMP JUMPDEST PUSH1 0xB SLOAD PUSH1 0x1 PUSH1 0x1 PUSH1 0xA0 SHL SUB AND CALLER EQ PUSH2 0xC3A JUMPI PUSH1 0x40 MLOAD PUSH3 0x461BCD PUSH1 0xE5 SHL DUP2 MSTORE PUSH1 0x4 ADD PUSH2 0xAA3 SWAP1 PUSH2 0x3B4E JUMP JUMPDEST PUSH1 0xD DUP1 SLOAD PUSH1 0x1 PUSH1 0x1 PUSH1 0xA0 SHL SUB NOT AND PUSH1 0x1 PUSH1 0x1 PUSH1 0xA0 SHL SUB SWAP3 SWAP1 SWAP3 AND SWAP2 SWAP1 SWAP2 OR SWAP1 SSTORE JUMP JUMPDEST PUSH1 0x1 SLOAD PUSH1 0x40 MLOAD PUSH4 0x8A888953 PUSH1 0xE0 SHL DUP2 MSTORE PUSH1 0xFF DUP1 DUP9 AND PUSH1 0x4 DUP4 ADD MSTORE DUP7 AND PUSH1 0x24 DUP3 ADD MSTORE DUP7 SWAP2 DUP7 SWAP2 CALLER SWAP2 PUSH1 0x1 PUSH1 0x1 PUSH1 0xA0 SHL SUB AND SWAP1 PUSH4 0x8A888953 SWAP1 PUSH1 0x44 ADD PUSH1 0x20 PUSH1 0x40 MLOAD DUP1 DUP4 SUB DUP2 DUP7 GAS STATICCALL ISZERO DUP1 ISZERO PUSH2 0xCB3 JUMPI RETURNDATASIZE PUSH1 0x0 DUP1 RETURNDATACOPY RETURNDATASIZE PUSH1 0x0 REVERT JUMPDEST POP POP POP POP PUSH1 0x40 MLOAD RETURNDATASIZE PUSH1 0x1F NOT PUSH1 0x1F DUP3 ADD AND DUP3 ADD DUP1 PUSH1 0x40 MSTORE POP DUP2 ADD SWAP1 PUSH2 0xCD7 SWAP2 SWAP1 PUSH2 0x3B31 JUMP JUMPDEST PUSH1 0x1 PUSH1 0x1 PUSH1 0xA0 SHL SUB AND EQ PUSH2 0xCFD JUMPI PUSH1 0x40 MLOAD PUSH3 0x461BCD PUSH1 0xE5 SHL DUP2 MSTORE PUSH1 0x4 ADD PUSH2 0xAA3 SWAP1 PUSH2 0x3B4E JUMP JUMPDEST DUP5 DUP5 PUSH1 0x9 PUSH1 0xFF DUP4 AND LT DUP1 ISZERO PUSH2 0xD15 JUMPI POP PUSH1 0x9 PUSH1 0xFF DUP3 AND LT JUMPDEST PUSH2 0xD49 JUMPI PUSH1 0x40 MLOAD PUSH3 0x461BCD PUSH1 0xE5 SHL DUP2 MSTORE PUSH1 0x20 PUSH1 0x4 DUP3 ADD MSTORE PUSH1 0x5 PUSH1 0x24 DUP3 ADD MSTORE PUSH5 0x18DBDBDC99 PUSH1 0xDA SHL PUSH1 0x44 DUP3 ADD MSTORE PUSH1 0x64 ADD PUSH2 0xAA3 JUMP JUMPDEST DUP7 PUSH1 0xFF AND PUSH1 0x4 EQ DUP1 ISZERO PUSH2 0xD5F JUMPI POP DUP6 PUSH1 0xFF AND PUSH1 0x4 EQ JUMPDEST ISZERO PUSH2 0xD7C JUMPI PUSH1 0x40 MLOAD PUSH3 0x461BCD PUSH1 0xE5 SHL DUP2 MSTORE PUSH1 0x4 ADD PUSH2 0xAA3 SWAP1 PUSH2 0x3BE5 JUMP JUMPDEST PUSH1 0xFF DUP1 DUP11 AND PUSH1 0x0 SWAP1 DUP2 MSTORE PUSH1 0x27 PUSH1 0x20 SWAP1 DUP2 MSTORE PUSH1 0x40 DUP1 DUP4 KECCAK256 DUP13 DUP6 AND DUP5 MSTORE DUP3 MSTORE DUP1 DUP4 KECCAK256 DUP12 DUP6 AND DUP5 MSTORE DUP3 MSTORE DUP1 DUP4 KECCAK256 DUP11 DUP6 AND DUP5 MSTORE SWAP1 SWAP2 MSTORE SWAP1 KECCAK256 SLOAD AND DUP1 ISZERO PUSH2 0xDE4 JUMPI PUSH1 0x40 MLOAD PUSH3 0x461BCD PUSH1 0xE5 SHL DUP2 MSTORE PUSH1 0x20 PUSH1 0x4 DUP3 ADD MSTORE PUSH1 0x1 PUSH1 0x24 DUP3 ADD MSTORE PUSH1 0x65 PUSH1 0xF8 SHL PUSH1 0x44 DUP3 ADD MSTORE PUSH1 0x64 ADD PUSH2 0xAA3 JUMP JUMPDEST DUP6 PUSH1 0xFF AND PUSH1 0x3 SUB PUSH2 0xE37 JUMPI PUSH2 0xDFB DUP11 DUP11 PUSH1 0x3 PUSH2 0x2EA6 JUMP JUMPDEST ISZERO PUSH2 0xE18 JUMPI PUSH1 0x40 MLOAD PUSH3 0x461BCD PUSH1 0xE5 SHL DUP2 MSTORE PUSH1 0x4 ADD PUSH2 0xAA3 SWAP1 PUSH2 0x3BE5 JUMP JUMPDEST CALLER PUSH1 0x0 SWAP1 DUP2 MSTORE PUSH1 0x7 PUSH1 0x20 MSTORE PUSH1 0x40 SWAP1 KECCAK256 DUP1 SLOAD PUSH1 0xFF NOT AND PUSH1 0x1 OR SWAP1 SSTORE PUSH2 0xE9A JUMP JUMPDEST DUP6 PUSH1 0xFF AND PUSH1 0x6 SUB PUSH2 0xE9A JUMPI PUSH2 0xE4E DUP11 DUP11 PUSH1 0x6 PUSH2 0x2EA6 JUMP JUMPDEST ISZERO PUSH2 0xE7F JUMPI PUSH1 0x40 MLOAD PUSH3 0x461BCD PUSH1 0xE5 SHL DUP2 MSTORE PUSH1 0x20 PUSH1 0x4 DUP3 ADD MSTORE PUSH1 0x1 PUSH1 0x24 DUP3 ADD MSTORE PUSH1 0x6D PUSH1 0xF8 SHL PUSH1 0x44 DUP3 ADD MSTORE PUSH1 0x64 ADD PUSH2 0xAA3 JUMP JUMPDEST CALLER PUSH1 0x0 SWAP1 DUP2 MSTORE PUSH1 0x8 PUSH1 0x20 MSTORE PUSH1 0x40 SWAP1 KECCAK256 DUP1 SLOAD PUSH1 0xFF NOT AND PUSH1 0x1 OR SWAP1 SSTORE JUMPDEST PUSH1 0xFF DUP1 DUP8 AND PUSH1 0x0 SWAP1 DUP2 MSTORE PUSH1 0x28 PUSH1 0x20 SWAP1 DUP2 MSTORE PUSH1 0x40 DUP1 DUP4 KECCAK256 DUP2 MLOAD PUSH1 0x80 DUP2 ADD DUP4 MSTORE DUP2 SLOAD DUP2 MSTORE PUSH1 0x1 DUP3 ADD SLOAD DUP2 DUP6 ADD MSTORE PUSH1 0x2 DUP3 ADD SLOAD DUP2 DUP5 ADD MSTORE PUSH1 0x3 SWAP1 SWAP2 ADD SLOAD PUSH1 0x60 DUP3 ADD MSTORE DUP15 DUP6 AND DUP5 MSTORE PUSH1 0x26 DUP4 MSTORE DUP2 DUP5 KECCAK256 SWAP5 DUP15 AND DUP5 MSTORE SWAP4 SWAP1 SWAP2 MSTORE SWAP1 KECCAK256 DUP2 MLOAD DUP2 SLOAD LT ISZERO PUSH2 0xF12 JUMPI PUSH1 0x40 MLOAD PUSH3 0x461BCD PUSH1 0xE5 SHL DUP2 MSTORE PUSH1 0x4 ADD PUSH2 0xAA3 SWAP1 PUSH2 0x3C00 JUMP JUMPDEST PUSH1 0x20 DUP3 ADD MLOAD PUSH1 0x1 DUP3 ADD SLOAD LT ISZERO PUSH2 0xF3A JUMPI PUSH1 0x40 MLOAD PUSH3 0x461BCD PUSH1 0xE5 SHL DUP2 MSTORE PUSH1 0x4 ADD PUSH2 0xAA3 SWAP1 PUSH2 0x3C1B JUMP JUMPDEST PUSH1 0x40 DUP3 ADD MLOAD PUSH1 0x2 DUP3 ADD SLOAD LT ISZERO PUSH2 0xF62 JUMPI PUSH1 0x40 MLOAD PUSH3 0x461BCD PUSH1 0xE5 SHL DUP2 MSTORE PUSH1 0x4 ADD PUSH2 0xAA3 SWAP1 PUSH2 0x3C36 JUMP JUMPDEST PUSH1 0x60 DUP3 ADD MLOAD PUSH1 0x3 DUP3 ADD SLOAD LT ISZERO PUSH2 0xF8A JUMPI PUSH1 0x40 MLOAD PUSH3 0x461BCD PUSH1 0xE5 SHL DUP2 MSTORE PUSH1 0x4 ADD PUSH2 0xAA3 SWAP1 PUSH2 0x3C51 JUMP JUMPDEST DUP2 MLOAD DUP2 SLOAD DUP3 SWAP1 PUSH1 0x0 SWAP1 PUSH2 0xF9E SWAP1 DUP5 SWAP1 PUSH2 0x3C6C JUMP JUMPDEST SWAP1 SWAP2 SSTORE POP POP PUSH1 0x20 DUP3 ADD MLOAD PUSH1 0x1 DUP3 ADD DUP1 SLOAD PUSH1 0x0 SWAP1 PUSH2 0xFBC SWAP1 DUP5 SWAP1 PUSH2 0x3C6C JUMP JUMPDEST SWAP1 SWAP2 SSTORE POP POP PUSH1 0x40 DUP3 ADD MLOAD PUSH1 0x2 DUP3 ADD DUP1 SLOAD PUSH1 0x0 SWAP1 PUSH2 0xFDA SWAP1 DUP5 SWAP1 PUSH2 0x3C6C JUMP JUMPDEST SWAP1 SWAP2 SSTORE POP POP PUSH1 0x60 DUP3 ADD MLOAD PUSH1 0x3 DUP3 ADD DUP1 SLOAD PUSH1 0x0 SWAP1 PUSH2 0xFF8 SWAP1 DUP5 SWAP1 PUSH2 0x3C6C JUMP JUMPDEST SWAP1 SWAP2 SSTORE POP POP PUSH1 0xFF DUP13 DUP2 AND PUSH1 0x0 SWAP1 DUP2 MSTORE PUSH1 0x27 PUSH1 0x20 SWAP1 DUP2 MSTORE PUSH1 0x40 DUP1 DUP4 KECCAK256 DUP16 DUP6 AND DUP5 MSTORE DUP3 MSTORE DUP1 DUP4 KECCAK256 DUP15 DUP6 AND DUP5 MSTORE DUP3 MSTORE DUP1 DUP4 KECCAK256 DUP14 DUP6 AND DUP5 MSTORE SWAP1 SWAP2 MSTORE SWAP1 KECCAK256 DUP1 SLOAD PUSH1 0xFF NOT AND SWAP2 DUP11 AND SWAP2 SWAP1 SWAP2 OR SWAP1 SSTORE PUSH2 0x104B DUP2 DUP14 DUP14 PUSH2 0x30F0 JUMP JUMPDEST POP POP POP POP POP POP POP POP POP POP POP POP JUMP JUMPDEST PUSH1 0x0 PUSH2 0x1067 DUP4 DUP4 PUSH1 0x7 PUSH2 0x2EA6 JUMP JUMPDEST SWAP1 POP JUMPDEST SWAP3 SWAP2 POP POP JUMP JUMPDEST PUSH1 0x1 SLOAD PUSH1 0x40 MLOAD PUSH4 0x8A888953 PUSH1 0xE0 SHL DUP2 MSTORE PUSH1 0xFF DUP1 DUP7 AND PUSH1 0x4 DUP4 ADD MSTORE DUP5 AND PUSH1 0x24 DUP3 ADD MSTORE DUP5 SWAP2 DUP5 SWAP2 CALLER SWAP2 PUSH1 0x1 PUSH1 0x1 PUSH1 0xA0 SHL SUB AND SWAP1 PUSH4 0x8A888953 SWAP1 PUSH1 0x44 ADD PUSH1 0x20 PUSH1 0x40 MLOAD DUP1 DUP4 SUB DUP2 DUP7 GAS STATICCALL ISZERO DUP1 ISZERO PUSH2 0x10C7 JUMPI RETURNDATASIZE PUSH1 0x0 DUP1 RETURNDATACOPY RETURNDATASIZE PUSH1 0x0 REVERT JUMPDEST POP POP POP POP PUSH1 0x40 MLOAD RETURNDATASIZE PUSH1 0x1F NOT PUSH1 0x1F DUP3 ADD AND DUP3 ADD DUP1 PUSH1 0x40 MSTORE POP DUP2 ADD SWAP1 PUSH2 0x10EB SWAP2 SWAP1 PUSH2 0x3B31 JUMP JUMPDEST PUSH1 0x1 PUSH1 0x1 PUSH1 0xA0 SHL SUB AND EQ PUSH2 0x1111 JUMPI PUSH1 0x40 MLOAD PUSH3 0x461BCD PUSH1 0xE5 SHL DUP2 MSTORE PUSH1 0x4 ADD PUSH2 0xAA3 SWAP1 PUSH2 0x3B4E JUMP JUMPDEST PUSH1 0xFF DUP1 DUP7 AND PUSH1 0x0 SWAP1 DUP2 MSTORE PUSH1 0x26 PUSH1 0x20 SWAP1 DUP2 MSTORE PUSH1 0x40 DUP1 DUP4 KECCAK256 DUP9 DUP6 AND DUP5 MSTORE SWAP1 SWAP2 MSTORE DUP2 KECCAK256 SWAP2 PUSH1 0x60 SWAP1 DUP7 AND PUSH1 0x1 SUB PUSH2 0x1174 JUMPI POP POP PUSH1 0xE DUP2 ADD SLOAD PUSH1 0x40 DUP1 MLOAD DUP1 DUP3 ADD SWAP1 SWAP2 MSTORE PUSH1 0xD DUP2 MSTORE PUSH13 0xDECCCCCADCE6D2ECCAA8CAC6D PUSH1 0x9B SHL PUSH1 0x20 DUP3 ADD MSTORE PUSH1 0xFF SWAP1 SWAP2 AND SWAP1 PUSH2 0x11EA JUMP JUMPDEST DUP6 PUSH1 0xFF AND PUSH1 0x2 SUB PUSH2 0x11B9 JUMPI POP POP PUSH1 0xE DUP2 ADD SLOAD PUSH1 0x40 DUP1 MLOAD DUP1 DUP3 ADD SWAP1 SWAP2 MSTORE PUSH1 0xD DUP2 MSTORE PUSH13 0xC8CACCCADCE6D2ECCAA8CAC6D PUSH1 0x9B SHL PUSH1 0x20 DUP3 ADD MSTORE PUSH2 0x100 SWAP1 SWAP2 DIV PUSH1 0xFF AND SWAP1 PUSH2 0x11EA JUMP JUMPDEST PUSH1 0x40 MLOAD PUSH3 0x461BCD PUSH1 0xE5 SHL DUP2 MSTORE PUSH1 0x4 ADD PUSH2 0xAA3 SWAP1 PUSH1 0x20 DUP1 DUP3 MSTORE PUSH1 0x4 SWAP1 DUP3 ADD MSTORE PUSH4 0x74797065 PUSH1 0xE0 SHL PUSH1 0x40 DUP3 ADD MSTORE PUSH1 0x60 ADD SWAP1 JUMP JUMPDEST PUSH2 0x2710 DUP3 PUSH1 0xFF AND GT ISZERO PUSH2 0x1223 JUMPI PUSH1 0x40 MLOAD PUSH3 0x461BCD PUSH1 0xE5 SHL DUP2 MSTORE PUSH1 0x20 PUSH1 0x4 DUP3 ADD MSTORE PUSH1 0x1 PUSH1 0x24 DUP3 ADD MSTORE PUSH1 0x1B PUSH1 0xFA SHL PUSH1 0x44 DUP3 ADD MSTORE PUSH1 0x64 ADD PUSH2 0xAA3 JUMP JUMPDEST PUSH1 0x0 PUSH2 0x1231 DUP10 DUP10 PUSH1 0x8 PUSH2 0x2EA6 JUMP JUMPDEST SWAP1 POP PUSH1 0x0 DUP2 GT PUSH2 0x1253 JUMPI PUSH1 0x40 MLOAD PUSH3 0x461BCD PUSH1 0xE5 SHL DUP2 MSTORE PUSH1 0x4 ADD PUSH2 0xAA3 SWAP1 PUSH2 0x3C1B JUMP JUMPDEST PUSH1 0x0 PUSH2 0x1260 DUP5 PUSH1 0x1 PUSH2 0x3C7F JUMP JUMPDEST PUSH2 0x126E SWAP1 PUSH1 0xFF AND PUSH1 0x2 PUSH2 0x3C98 JUMP JUMPDEST SWAP1 POP PUSH1 0x0 DUP3 PUSH2 0x127E DUP4 PUSH1 0x8C PUSH2 0x3C98 JUMP JUMPDEST PUSH2 0x1288 SWAP2 SWAP1 PUSH2 0x3CC5 JUMP JUMPDEST SWAP1 POP PUSH1 0x0 DUP4 PUSH2 0x1298 DUP5 PUSH1 0x78 PUSH2 0x3C98 JUMP JUMPDEST PUSH2 0x12A2 SWAP2 SWAP1 PUSH2 0x3CC5 JUMP JUMPDEST SWAP1 POP PUSH1 0x0 DUP5 PUSH2 0x12B2 DUP6 PUSH1 0xB4 PUSH2 0x3C98 JUMP JUMPDEST PUSH2 0x12BC SWAP2 SWAP1 PUSH2 0x3CC5 JUMP JUMPDEST SWAP1 POP PUSH1 0x0 DUP6 PUSH2 0x12CC DUP7 PUSH1 0x78 PUSH2 0x3C98 JUMP JUMPDEST PUSH2 0x12D6 SWAP2 SWAP1 PUSH2 0x3CC5 JUMP JUMPDEST DUP10 SLOAD SWAP1 SWAP2 POP DUP5 GT ISZERO PUSH2 0x12FA JUMPI PUSH1 0x40 MLOAD PUSH3 0x461BCD PUSH1 0xE5 SHL DUP2 MSTORE PUSH1 0x4 ADD PUSH2 0xAA3 SWAP1 PUSH2 0x3C00 JUMP JUMPDEST PUSH1 0x1 DUP10 ADD SLOAD DUP4 GT ISZERO PUSH2 0x131E JUMPI PUSH1 0x40 MLOAD PUSH3 0x461BCD PUSH1 0xE5 SHL DUP2 MSTORE PUSH1 0x4 ADD PUSH2 0xAA3 SWAP1 PUSH2 0x3C1B JUMP JUMPDEST PUSH1 0x2 DUP10 ADD SLOAD DUP3 GT ISZERO PUSH2 0x1342 JUMPI PUSH1 0x40 MLOAD PUSH3 0x461BCD PUSH1 0xE5 SHL DUP2 MSTORE PUSH1 0x4 ADD PUSH2 0xAA3 SWAP1 PUSH2 0x3C36 JUMP JUMPDEST PUSH1 0x3 DUP10 ADD SLOAD DUP2 GT ISZERO PUSH2 0x1366 JUMPI PUSH1 0x40 MLOAD PUSH3 0x461BCD PUSH1 0xE5 SHL DUP2 MSTORE PUSH1 0x4 ADD PUSH2 0xAA3 SWAP1 PUSH2 0x3C51 JUMP JUMPDEST DUP9 SLOAD DUP5 SWAP1 DUP11 SWAP1 PUSH1 0x0 SWAP1 PUSH2 0x137A SWAP1 DUP5 SWAP1 PUSH2 0x3C6C JUMP JUMPDEST SWAP1 SWAP2 SSTORE POP POP PUSH1 0x1 DUP10 ADD DUP1 SLOAD DUP5 SWAP2 SWAP1 PUSH1 0x0 SWAP1 PUSH2 0x1396 SWAP1 DUP5 SWAP1 PUSH2 0x3C6C JUMP JUMPDEST SWAP1 SWAP2 SSTORE POP POP PUSH1 0x2 DUP10 ADD DUP1 SLOAD DUP4 SWAP2 SWAP1 PUSH1 0x0 SWAP1 PUSH2 0x13B2 SWAP1 DUP5 SWAP1 PUSH2 0x3C6C JUMP JUMPDEST SWAP1 SWAP2 SSTORE POP POP PUSH1 0x3 DUP10 ADD DUP1 SLOAD DUP3 SWAP2 SWAP1 PUSH1 0x0 SWAP1 PUSH2 0x13CE SWAP1 DUP5 SWAP1 PUSH2 0x3C6C JUMP JUMPDEST SWAP1 SWAP2 SSTORE POP POP PUSH1 0xFF DUP13 AND PUSH1 0x1 SUB PUSH2 0x1411 JUMPI PUSH1 0xE DUP10 ADD DUP1 SLOAD PUSH1 0xFF AND SWAP1 PUSH1 0x0 PUSH2 0x13F3 DUP4 PUSH2 0x3CD9 JUMP JUMPDEST SWAP2 SWAP1 PUSH2 0x100 EXP DUP2 SLOAD DUP2 PUSH1 0xFF MUL NOT AND SWAP1 DUP4 PUSH1 0xFF AND MUL OR SWAP1 SSTORE POP POP PUSH2 0x1450 JUMP JUMPDEST DUP12 PUSH1 0xFF AND PUSH1 0x2 SUB PUSH2 0x1450 JUMPI PUSH1 0xE DUP10 ADD DUP1 SLOAD PUSH2 0x100 SWAP1 DIV PUSH1 0xFF AND SWAP1 PUSH1 0x1 PUSH2 0x1436 DUP4 PUSH2 0x3CD9 JUMP JUMPDEST SWAP2 SWAP1 PUSH2 0x100 EXP DUP2 SLOAD DUP2 PUSH1 0xFF MUL NOT AND SWAP1 DUP4 PUSH1 0xFF AND MUL OR SWAP1 SSTORE POP POP JUMPDEST PUSH2 0x145B DUP10 DUP16 DUP16 PUSH2 0x30F0 JUMP JUMPDEST POP POP POP POP POP POP POP POP POP POP POP POP POP POP JUMP JUMPDEST PUSH1 0xC SLOAD PUSH1 0x1 PUSH1 0x1 PUSH1 0xA0 SHL SUB AND CALLER EQ PUSH2 0x1495 JUMPI PUSH1 0x40 MLOAD PUSH3 0x461BCD PUSH1 0xE5 SHL DUP2 MSTORE PUSH1 0x4 ADD PUSH2 0xAA3 SWAP1 PUSH2 0x3BA1 JUMP JUMPDEST PUSH1 0xFF DUP1 DUP7 AND PUSH1 0x0 SWAP1 DUP2 MSTORE PUSH1 0x26 PUSH1 0x20 SWAP1 DUP2 MSTORE PUSH1 0x40 DUP1 DUP4 KECCAK256 DUP9 DUP6 AND DUP5 MSTORE SWAP1 SWAP2 MSTORE SWAP1 KECCAK256 SWAP1 DUP5 AND PUSH1 0x1 SUB PUSH2 0x1519 JUMPI DUP2 ISZERO PUSH2 0x14E4 JUMPI DUP1 SLOAD DUP4 SWAP1 DUP3 SWAP1 PUSH1 0x0 SWAP1 PUSH2 0x14D9 SWAP1 DUP5 SWAP1 PUSH2 0x3BD2 JUMP JUMPDEST SWAP1 SWAP2 SSTORE POP PUSH2 0x192A SWAP1 POP JUMP JUMPDEST DUP1 SLOAD DUP4 GT ISZERO PUSH2 0x1505 JUMPI PUSH1 0x40 MLOAD PUSH3 0x461BCD PUSH1 0xE5 SHL DUP2 MSTORE PUSH1 0x4 ADD PUSH2 0xAA3 SWAP1 PUSH2 0x3C00 JUMP JUMPDEST DUP1 SLOAD DUP4 SWAP1 DUP3 SWAP1 PUSH1 0x0 SWAP1 PUSH2 0x14D9 SWAP1 DUP5 SWAP1 PUSH2 0x3C6C JUMP JUMPDEST DUP4 PUSH1 0xFF AND PUSH1 0x2 SUB PUSH2 0x157C JUMPI DUP2 ISZERO PUSH2 0x1541 JUMPI DUP3 DUP2 PUSH1 0x0 ADD PUSH1 0x1 ADD PUSH1 0x0 DUP3 DUP3 SLOAD PUSH2 0x14D9 SWAP2 SWAP1 PUSH2 0x3BD2 JUMP JUMPDEST PUSH1 0x1 DUP2 ADD SLOAD DUP4 GT ISZERO PUSH2 0x1565 JUMPI PUSH1 0x40 MLOAD PUSH3 0x461BCD PUSH1 0xE5 SHL DUP2 MSTORE PUSH1 0x4 ADD PUSH2 0xAA3 SWAP1 PUSH2 0x3C1B JUMP JUMPDEST DUP3 DUP2 PUSH1 0x0 ADD PUSH1 0x1 ADD PUSH1 0x0 DUP3 DUP3 SLOAD PUSH2 0x14D9 SWAP2 SWAP1 PUSH2 0x3C6C JUMP JUMPDEST DUP4 PUSH1 0xFF AND PUSH1 0x3 SUB PUSH2 0x15DF JUMPI DUP2 ISZERO PUSH2 0x15A4 JUMPI DUP3 DUP2 PUSH1 0x0 ADD PUSH1 0x2 ADD PUSH1 0x0 DUP3 DUP3 SLOAD PUSH2 0x14D9 SWAP2 SWAP1 PUSH2 0x3BD2 JUMP JUMPDEST PUSH1 0x2 DUP2 ADD SLOAD DUP4 GT ISZERO PUSH2 0x15C8 JUMPI PUSH1 0x40 MLOAD PUSH3 0x461BCD PUSH1 0xE5 SHL DUP2 MSTORE PUSH1 0x4 ADD PUSH2 0xAA3 SWAP1 PUSH2 0x3C36 JUMP JUMPDEST DUP3 DUP2 PUSH1 0x0 ADD PUSH1 0x2 ADD PUSH1 0x0 DUP3 DUP3 SLOAD PUSH2 0x14D9 SWAP2 SWAP1 PUSH2 0x3C6C JUMP JUMPDEST DUP4 PUSH1 0xFF AND PUSH1 0x4 SUB PUSH2 0x1642 JUMPI DUP2 ISZERO PUSH2 0x1607 JUMPI DUP3 DUP2 PUSH1 0x0 ADD PUSH1 0x3 ADD PUSH1 0x0 DUP3 DUP3 SLOAD PUSH2 0x14D9 SWAP2 SWAP1 PUSH2 0x3BD2 JUMP JUMPDEST PUSH1 0x3 DUP2 ADD SLOAD DUP4 GT ISZERO PUSH2 0x162B JUMPI PUSH1 0x40 MLOAD PUSH3 0x461BCD PUSH1 0xE5 SHL DUP2 MSTORE PUSH1 0x4 ADD PUSH2 0xAA3 SWAP1 PUSH2 0x3C51 JUMP JUMPDEST DUP3 DUP2 PUSH1 0x0 ADD PUSH1 0x3 ADD PUSH1 0x0 DUP3 DUP3 SLOAD PUSH2 0x14D9 SWAP2 SWAP1 PUSH2 0x3C6C JUMP JUMPDEST DUP4 PUSH1 0xFF AND PUSH1 0x5 SUB PUSH2 0x16BA JUMPI DUP2 ISZERO PUSH2 0x166A JUMPI DUP3 DUP2 PUSH1 0x8 ADD PUSH1 0x0 ADD PUSH1 0x0 DUP3 DUP3 SLOAD PUSH2 0x14D9 SWAP2 SWAP1 PUSH2 0x3BD2 JUMP JUMPDEST PUSH1 0x8 DUP2 ADD SLOAD DUP4 GT ISZERO PUSH2 0x16A3 JUMPI PUSH1 0x40 MLOAD PUSH3 0x461BCD PUSH1 0xE5 SHL DUP2 MSTORE PUSH1 0x20 PUSH1 0x4 DUP3 ADD MSTORE PUSH1 0x2 PUSH1 0x24 DUP3 ADD MSTORE PUSH2 0x6F61 PUSH1 0xF0 SHL PUSH1 0x44 DUP3 ADD MSTORE PUSH1 0x64 ADD PUSH2 0xAA3 JUMP JUMPDEST DUP3 DUP2 PUSH1 0x8 ADD PUSH1 0x0 ADD PUSH1 0x0 DUP3 DUP3 SLOAD PUSH2 0x14D9 SWAP2 SWAP1 PUSH2 0x3C6C JUMP JUMPDEST DUP4 PUSH1 0xFF AND PUSH1 0x6 SUB PUSH2 0x1732 JUMPI DUP2 ISZERO PUSH2 0x16E2 JUMPI DUP3 DUP2 PUSH1 0x8 ADD PUSH1 0x1 ADD PUSH1 0x0 DUP3 DUP3 SLOAD PUSH2 0x14D9 SWAP2 SWAP1 PUSH2 0x3BD2 JUMP JUMPDEST PUSH1 0x9 DUP2 ADD SLOAD DUP4 GT ISZERO PUSH2 0x171B JUMPI PUSH1 0x40 MLOAD PUSH3 0x461BCD PUSH1 0xE5 SHL DUP2 MSTORE PUSH1 0x20 PUSH1 0x4 DUP3 ADD MSTORE PUSH1 0x2 PUSH1 0x24 DUP3 ADD MSTORE PUSH2 0x6461 PUSH1 0xF0 SHL PUSH1 0x44 DUP3 ADD MSTORE PUSH1 0x64 ADD PUSH2 0xAA3 JUMP JUMPDEST DUP3 DUP2 PUSH1 0x8 ADD PUSH1 0x1 ADD PUSH1 0x0 DUP3 DUP3 SLOAD PUSH2 0x14D9 SWAP2 SWAP1 PUSH2 0x3C6C JUMP JUMPDEST DUP4 PUSH1 0xFF AND PUSH1 0x7 SUB PUSH2 0x17AA JUMPI DUP2 ISZERO PUSH2 0x175A JUMPI DUP3 DUP2 PUSH1 0x8 ADD PUSH1 0x2 ADD PUSH1 0x0 DUP3 DUP3 SLOAD PUSH2 0x14D9 SWAP2 SWAP1 PUSH2 0x3BD2 JUMP JUMPDEST PUSH1 0xA DUP2 ADD SLOAD DUP4 GT ISZERO PUSH2 0x1793 JUMPI PUSH1 0x40 MLOAD PUSH3 0x461BCD PUSH1 0xE5 SHL DUP2 MSTORE PUSH1 0x20 PUSH1 0x4 DUP3 ADD MSTORE PUSH1 0x2 PUSH1 0x24 DUP3 ADD MSTORE PUSH2 0x6F77 PUSH1 0xF0 SHL PUSH1 0x44 DUP3 ADD MSTORE PUSH1 0x64 ADD PUSH2 0xAA3 JUMP JUMPDEST DUP3 DUP2 PUSH1 0x8 ADD PUSH1 0x2 ADD PUSH1 0x0 DUP3 DUP3 SLOAD PUSH2 0x14D9 SWAP2 SWAP1 PUSH2 0x3C6C JUMP JUMPDEST DUP4 PUSH1 0xFF AND PUSH1 0x8 SUB PUSH2 0x1822 JUMPI DUP2 ISZERO PUSH2 0x17D2 JUMPI DUP3 DUP2 PUSH1 0x8 ADD PUSH1 0x3 ADD PUSH1 0x0 DUP3 DUP3 SLOAD PUSH2 0x14D9 SWAP2 SWAP1 PUSH2 0x3BD2 JUMP JUMPDEST PUSH1 0xB DUP2 ADD SLOAD DUP4 GT ISZERO PUSH2 0x180B JUMPI PUSH1 0x40 MLOAD PUSH3 0x461BCD PUSH1 0xE5 SHL DUP2 MSTORE PUSH1 0x20 PUSH1 0x4 DUP3 ADD MSTORE PUSH1 0x2 PUSH1 0x24 DUP3 ADD MSTORE PUSH2 0x6477 PUSH1 0xF0 SHL PUSH1 0x44 DUP3 ADD MSTORE PUSH1 0x64 ADD PUSH2 0xAA3 JUMP JUMPDEST DUP3 DUP2 PUSH1 0x8 ADD PUSH1 0x3 ADD PUSH1 0x0 DUP3 DUP3 SLOAD PUSH2 0x14D9 SWAP2 SWAP1 PUSH2 0x3C6C JUMP JUMPDEST DUP4 PUSH1 0xFF AND PUSH1 0x9 SUB PUSH2 0x189A JUMPI DUP2 ISZERO PUSH2 0x184A JUMPI DUP3 DUP2 PUSH1 0x8 ADD PUSH1 0x4 ADD PUSH1 0x0 DUP3 DUP3 SLOAD PUSH2 0x14D9 SWAP2 SWAP1 PUSH2 0x3BD2 JUMP JUMPDEST PUSH1 0xC DUP2 ADD SLOAD DUP4 GT ISZERO PUSH2 0x1883 JUMPI PUSH1 0x40 MLOAD PUSH3 0x461BCD PUSH1 0xE5 SHL DUP2 MSTORE PUSH1 0x20 PUSH1 0x4 DUP3 ADD MSTORE PUSH1 0x2 PUSH1 0x24 DUP3 ADD MSTORE PUSH2 0x6F73 PUSH1 0xF0 SHL PUSH1 0x44 DUP3 ADD MSTORE PUSH1 0x64 ADD PUSH2 0xAA3 JUMP JUMPDEST DUP3 DUP2 PUSH1 0x8 ADD PUSH1 0x4 ADD PUSH1 0x0 DUP3 DUP3 SLOAD PUSH2 0x14D9 SWAP2 SWAP1 PUSH2 0x3C6C JUMP JUMPDEST DUP4 PUSH1 0xFF AND PUSH1 0xA SUB PUSH2 0x1912 JUMPI DUP2 ISZERO PUSH2 0x18C2 JUMPI DUP3 DUP2 PUSH1 0x8 ADD PUSH1 0x5 ADD PUSH1 0x0 DUP3 DUP3 SLOAD PUSH2 0x14D9 SWAP2 SWAP1 PUSH2 0x3BD2 JUMP JUMPDEST PUSH1 0xD DUP2 ADD SLOAD DUP4 GT ISZERO PUSH2 0x18FB JUMPI PUSH1 0x40 MLOAD PUSH3 0x461BCD PUSH1 0xE5 SHL DUP2 MSTORE PUSH1 0x20 PUSH1 0x4 DUP3 ADD MSTORE PUSH1 0x2 PUSH1 0x24 DUP3 ADD MSTORE PUSH2 0x6473 PUSH1 0xF0 SHL PUSH1 0x44 DUP3 ADD MSTORE PUSH1 0x64 ADD PUSH2 0xAA3 JUMP JUMPDEST DUP3 DUP2 PUSH1 0x8 ADD PUSH1 0x5 ADD PUSH1 0x0 DUP3 DUP3 SLOAD PUSH2 0x14D9 SWAP2 SWAP1 PUSH2 0x3C6C JUMP JUMPDEST PUSH1 0x40 MLOAD PUSH3 0x461BCD PUSH1 0xE5 SHL DUP2 MSTORE PUSH1 0x4 ADD PUSH2 0xAA3 SWAP1 PUSH2 0x3B86 JUMP JUMPDEST PUSH2 0x1935 DUP2 DUP8 DUP8 PUSH2 0x30F0 JUMP JUMPDEST POP POP POP POP POP POP JUMP JUMPDEST PUSH1 0x1 SLOAD PUSH1 0x40 MLOAD PUSH4 0x8A888953 PUSH1 0xE0 SHL DUP2 MSTORE PUSH1 0xFF DUP1 DUP8 AND PUSH1 0x4 DUP4 ADD MSTORE DUP6 AND PUSH1 0x24 DUP3 ADD MSTORE DUP6 SWAP2 DUP6 SWAP2 CALLER SWAP2 PUSH1 0x1 PUSH1 0x1 PUSH1 0xA0 SHL SUB AND SWAP1 PUSH4 0x8A888953 SWAP1 PUSH1 0x44 ADD PUSH1 0x20 PUSH1 0x40 MLOAD DUP1 DUP4 SUB DUP2 DUP7 GAS STATICCALL ISZERO DUP1 ISZERO PUSH2 0x1994 JUMPI RETURNDATASIZE PUSH1 0x0 DUP1 RETURNDATACOPY RETURNDATASIZE PUSH1 0x0 REVERT JUMPDEST POP POP POP POP PUSH1 0x40 MLOAD RETURNDATASIZE PUSH1 0x1F NOT PUSH1 0x1F DUP3 ADD AND DUP3 ADD DUP1 PUSH1 0x40 MSTORE POP DUP2 ADD SWAP1 PUSH2 0x19B8 SWAP2 SWAP1 PUSH2 0x3B31 JUMP JUMPDEST PUSH1 0x1 PUSH1 0x1 PUSH1 0xA0 SHL SUB AND EQ PUSH2 0x19DE JUMPI PUSH1 0x40 MLOAD PUSH3 0x461BCD PUSH1 0xE5 SHL DUP2 MSTORE PUSH1 0x4 ADD PUSH2 0xAA3 SWAP1 PUSH2 0x3B4E JUMP JUMPDEST PUSH1 0x0 DUP4 GT PUSH2 0x19FE JUMPI PUSH1 0x40 MLOAD PUSH3 0x461BCD PUSH1 0xE5 SHL DUP2 MSTORE PUSH1 0x4 ADD PUSH2 0xAA3 SWAP1 PUSH2 0x3B6B JUMP JUMPDEST DUP4 PUSH1 0xFF AND PUSH1 0x1 EQ DUP1 PUSH2 0x1A13 JUMPI POP DUP4 PUSH1 0xFF AND PUSH1 0x2 EQ JUMPDEST PUSH2 0x1A2F JUMPI PUSH1 0x40 MLOAD PUSH3 0x461BCD PUSH1 0xE5 SHL DUP2 MSTORE PUSH1 0x4 ADD PUSH2 0xAA3 SWAP1 PUSH2 0x3B86 JUMP JUMPDEST PUSH1 0x0 PUSH2 0x1A3D DUP8 DUP8 PUSH1 0x2 PUSH2 0x2EA6 JUMP JUMPDEST SWAP1 POP PUSH1 0x0 DUP2 GT PUSH2 0x1A74 JUMPI PUSH1 0x40 MLOAD PUSH3 0x461BCD PUSH1 0xE5 SHL DUP2 MSTORE PUSH1 0x20 PUSH1 0x4 DUP3 ADD MSTORE PUSH1 0x2 PUSH1 0x24 DUP3 ADD MSTORE PUSH2 0x6273 PUSH1 0xF0 SHL PUSH1 0x44 DUP3 ADD MSTORE PUSH1 0x64 ADD PUSH2 0xAA3 JUMP JUMPDEST PUSH1 0x0 DUP6 PUSH1 0xFF AND PUSH1 0x1 EQ PUSH2 0x1A88 JUMPI PUSH1 0x1A PUSH2 0x1A8B JUMP JUMPDEST PUSH1 0x16 JUMPDEST PUSH1 0x40 DUP1 MLOAD PUSH1 0x80 DUP2 ADD DUP3 MSTORE DUP3 SLOAD DUP2 MSTORE PUSH1 0x1 DUP4 ADD SLOAD PUSH1 0x20 DUP3 ADD MSTORE PUSH1 0x2 DUP4 ADD SLOAD SWAP2 DUP2 ADD SWAP2 SWAP1 SWAP2 MSTORE PUSH1 0x3 SWAP1 SWAP2 ADD SLOAD PUSH1 0x60 DUP3 ADD MSTORE SWAP1 POP PUSH2 0x1AC9 DUP9 DUP9 DUP4 DUP9 DUP7 PUSH2 0x2F41 JUMP JUMPDEST DUP6 PUSH1 0xFF AND PUSH1 0x1 SUB PUSH2 0x1B08 JUMPI PUSH1 0xFF DUP1 DUP10 AND PUSH1 0x0 SWAP1 DUP2 MSTORE PUSH1 0x26 PUSH1 0x20 SWAP1 DUP2 MSTORE PUSH1 0x40 DUP1 DUP4 KECCAK256 SWAP4 DUP12 AND DUP4 MSTORE SWAP3 SWAP1 MSTORE SWAP1 DUP2 KECCAK256 PUSH1 0xA ADD DUP1 SLOAD DUP8 SWAP3 SWAP1 PUSH2 0xBC1 SWAP1 DUP5 SWAP1 PUSH2 0x3BD2 JUMP JUMPDEST PUSH1 0xFF DUP1 DUP10 AND PUSH1 0x0 SWAP1 DUP2 MSTORE PUSH1 0x26 PUSH1 0x20 SWAP1 DUP2 MSTORE PUSH1 0x40 DUP1 DUP4 KECCAK256 SWAP4 DUP12 AND DUP4 MSTORE SWAP3 SWAP1 MSTORE SWAP1 DUP2 KECCAK256 PUSH1 0xB ADD DUP1 SLOAD DUP8 SWAP3 SWAP1 PUSH2 0xC00 SWAP1 DUP5 SWAP1 PUSH2 0x3BD2 JUMP JUMPDEST PUSH1 0xB SLOAD PUSH1 0x1 PUSH1 0x1 PUSH1 0xA0 SHL SUB AND CALLER EQ PUSH2 0x1B66 JUMPI PUSH1 0x40 MLOAD PUSH3 0x461BCD PUSH1 0xE5 SHL DUP2 MSTORE PUSH1 0x4 ADD PUSH2 0xAA3 SWAP1 PUSH2 0x3B4E JUMP JUMPDEST PUSH1 0x2 DUP1 SLOAD PUSH1 0x1 PUSH1 0x1 PUSH1 0xA0 SHL SUB NOT AND PUSH1 0x1 PUSH1 0x1 PUSH1 0xA0 SHL SUB SWAP3 SWAP1 SWAP3 AND SWAP2 SWAP1 SWAP2 OR SWAP1 SSTORE JUMP JUMPDEST PUSH1 0x1 SLOAD PUSH1 0x40 MLOAD PUSH4 0x8A888953 PUSH1 0xE0 SHL DUP2 MSTORE PUSH1 0xFF DUP1 DUP8 AND PUSH1 0x4 DUP4 ADD MSTORE DUP6 AND PUSH1 0x24 DUP3 ADD MSTORE DUP6 SWAP2 DUP6 SWAP2 CALLER SWAP2 PUSH1 0x1 PUSH1 0x1 PUSH1 0xA0 SHL SUB AND SWAP1 PUSH4 0x8A888953 SWAP1 PUSH1 0x44 ADD PUSH1 0x20 PUSH1 0x40 MLOAD DUP1 DUP4 SUB DUP2 DUP7 GAS STATICCALL ISZERO DUP1 ISZERO PUSH2 0x1BDF JUMPI RETURNDATASIZE PUSH1 0x0 DUP1 RETURNDATACOPY RETURNDATASIZE PUSH1 0x0 REVERT JUMPDEST POP POP POP POP PUSH1 0x40 MLOAD RETURNDATASIZE PUSH1 0x1F NOT PUSH1 0x1F DUP3 ADD AND DUP3 ADD DUP1 PUSH1 0x40 MSTORE POP DUP2 ADD SWAP1 PUSH2 0x1C03 SWAP2 SWAP1 PUSH2 0x3B31 JUMP JUMPDEST PUSH1 0x1 PUSH1 0x1 PUSH1 0xA0 SHL SUB AND EQ PUSH2 0x1C29 JUMPI PUSH1 0x40 MLOAD PUSH3 0x461BCD PUSH1 0xE5 SHL DUP2 MSTORE PUSH1 0x4 ADD PUSH2 0xAA3 SWAP1 PUSH2 0x3B4E JUMP JUMPDEST DUP4 DUP4 PUSH1 0x9 PUSH1 0xFF DUP4 AND LT DUP1 ISZERO PUSH2 0x1C41 JUMPI POP PUSH1 0x9 PUSH1 0xFF DUP3 AND LT JUMPDEST PUSH2 0x1C75 JUMPI PUSH1 0x40 MLOAD PUSH3 0x461BCD PUSH1 0xE5 SHL DUP2 MSTORE PUSH1 0x20 PUSH1 0x4 DUP3 ADD MSTORE PUSH1 0x5 PUSH1 0x24 DUP3 ADD MSTORE PUSH5 0x18DBDBDC99 PUSH1 0xDA SHL PUSH1 0x44 DUP3 ADD MSTORE PUSH1 0x64 ADD PUSH2 0xAA3 JUMP JUMPDEST DUP6 PUSH1 0xFF AND PUSH1 0x4 EQ DUP1 ISZERO PUSH2 0x1C8B JUMPI POP DUP5 PUSH1 0xFF AND PUSH1 0x4 EQ JUMPDEST ISZERO PUSH2 0x1CA8 JUMPI PUSH1 0x40 MLOAD PUSH3 0x461BCD PUSH1 0xE5 SHL DUP2 MSTORE PUSH1 0x4 ADD PUSH2 0xAA3 SWAP1 PUSH2 0x3BE5 JUMP JUMPDEST PUSH1 0xFF DUP1 DUP10 AND PUSH1 0x0 SWAP1 DUP2 MSTORE PUSH1 0x27 PUSH1 0x20 SWAP1 DUP2 MSTORE PUSH1 0x40 DUP1 DUP4 KECCAK256 DUP12 DUP6 AND DUP5 MSTORE DUP3 MSTORE DUP1 DUP4 KECCAK256 DUP11 DUP6 AND DUP5 MSTORE DUP3 MSTORE DUP1 DUP4 KECCAK256 DUP10 DUP6 AND DUP5 MSTORE SWAP1 SWAP2 MSTORE DUP2 KECCAK256 SLOAD SWAP1 SWAP2 AND SWAP1 DUP2 SWAP1 SUB PUSH2 0x1D14 JUMPI PUSH1 0x40 MLOAD PUSH3 0x461BCD PUSH1 0xE5 SHL DUP2 MSTORE PUSH1 0x20 PUSH1 0x4 DUP3 ADD MSTORE PUSH1 0x1 PUSH1 0x24 DUP3 ADD MSTORE PUSH1 0x37 PUSH1 0xF9 SHL PUSH1 0x44 DUP3 ADD MSTORE PUSH1 0x64 ADD PUSH2 0xAA3 JUMP JUMPDEST DUP1 PUSH1 0xFF AND PUSH1 0x3 SUB PUSH2 0x1D3B JUMPI CALLER PUSH1 0x0 SWAP1 DUP2 MSTORE PUSH1 0x7 PUSH1 0x20 MSTORE PUSH1 0x40 SWAP1 KECCAK256 DUP1 SLOAD PUSH1 0xFF NOT AND SWAP1 SSTORE PUSH2 0x1D5E JUMP JUMPDEST DUP1 PUSH1 0xFF AND PUSH1 0x6 SUB PUSH2 0x1D5E JUMPI CALLER PUSH1 0x0 SWAP1 DUP2 MSTORE PUSH1 0x8 PUSH1 0x20 MSTORE PUSH1 0x40 SWAP1 KECCAK256 DUP1 SLOAD PUSH1 0xFF NOT AND SWAP1 SSTORE JUMPDEST POP POP POP PUSH1 0xFF SWAP6 DUP7 AND PUSH1 0x0 SWAP1 DUP2 MSTORE PUSH1 0x27 PUSH1 0x20 SWAP1 DUP2 MSTORE PUSH1 0x40 DUP1 DUP4 KECCAK256 SWAP8 DUP10 AND DUP4 MSTORE SWAP7 DUP2 MSTORE DUP7 DUP3 KECCAK256 SWAP6 DUP9 AND DUP3 MSTORE SWAP5 DUP6 MSTORE DUP6 DUP2 KECCAK256 SWAP4 SWAP1 SWAP7 AND DUP7 MSTORE POP POP SWAP1 MSTORE SWAP1 KECCAK256 DUP1 SLOAD PUSH1 0xFF NOT AND SWAP1 SSTORE JUMP JUMPDEST PUSH1 0xC SLOAD PUSH1 0x1 PUSH1 0x1 PUSH1 0xA0 SHL SUB AND CALLER EQ PUSH2 0x1DCD JUMPI PUSH1 0x40 MLOAD PUSH3 0x461BCD PUSH1 0xE5 SHL DUP2 MSTORE PUSH1 0x4 ADD PUSH2 0xAA3 SWAP1 PUSH2 0x3BA1 JUMP JUMPDEST PUSH1 0xFF DUP1 DUP4 AND PUSH1 0x0 SWAP1 DUP2 MSTORE PUSH1 0x26 PUSH1 0x20 SWAP1 DUP2 MSTORE PUSH1 0x40 DUP1 DUP4 KECCAK256 SWAP4 DUP6 AND DUP4 MSTORE SWAP3 SWAP1 MSTORE KECCAK256 PUSH2 0x1DF7 DUP2 DUP5 DUP5 PUSH2 0x30F0 JUMP JUMPDEST POP POP POP JUMP JUMPDEST PUSH1 0xC SLOAD PUSH1 0x1 PUSH1 0x1 PUSH1 0xA0 SHL SUB AND CALLER EQ PUSH2 0x1E26 JUMPI PUSH1 0x40 MLOAD PUSH3 0x461BCD PUSH1 0xE5 SHL DUP2 MSTORE PUSH1 0x4 ADD PUSH2 0xAA3 SWAP1 PUSH2 0x3BA1 JUMP JUMPDEST PUSH1 0xFF SWAP3 DUP4 AND PUSH1 0x0 SWAP1 DUP2 MSTORE PUSH1 0xA PUSH1 0x20 SWAP1 DUP2 MSTORE PUSH1 0x40 DUP1 DUP4 KECCAK256 SWAP5 SWAP1 SWAP6 AND DUP3 MSTORE SWAP3 SWAP1 SWAP3 MSTORE SWAP2 SWAP1 KECCAK256 DUP1 SLOAD PUSH1 0xFF NOT AND SWAP2 ISZERO ISZERO SWAP2 SWAP1 SWAP2 OR SWAP1 SSTORE JUMP JUMPDEST PUSH2 0x1EDD PUSH1 0x40 MLOAD DUP1 PUSH2 0x1E0 ADD PUSH1 0x40 MSTORE DUP1 PUSH1 0x0 DUP2 MSTORE PUSH1 0x20 ADD PUSH1 0x0 DUP2 MSTORE PUSH1 0x20 ADD PUSH1 0x0 DUP2 MSTORE PUSH1 0x20 ADD PUSH1 0x0 DUP2 MSTORE PUSH1 0x20 ADD PUSH1 0x0 PUSH2 0xFFFF AND DUP2 MSTORE PUSH1 0x20 ADD PUSH1 0x0 DUP2 MSTORE PUSH1 0x20 ADD PUSH1 0x0 DUP2 MSTORE PUSH1 0x20 ADD PUSH1 0x0 DUP2 MSTORE PUSH1 0x20 ADD PUSH1 0x0 DUP2 MSTORE PUSH1 0x20 ADD PUSH1 0x0 DUP2 MSTORE PUSH1 0x20 ADD PUSH1 0x0 DUP2 MSTORE PUSH1 0x20 ADD PUSH1 0x0 DUP2 MSTORE PUSH1 0x20 ADD PUSH1 0x0 PUSH1 0xFF AND DUP2 MSTORE PUSH1 0x20 ADD PUSH1 0x0 PUSH1 0xFF AND DUP2 MSTORE PUSH1 0x20 ADD PUSH1 0x0 DUP2 MSTORE POP SWAP1 JUMP JUMPDEST POP PUSH1 0xFF SWAP2 DUP3 AND PUSH1 0x0 SWAP1 DUP2 MSTORE PUSH1 0x26 PUSH1 0x20 SWAP1 DUP2 MSTORE PUSH1 0x40 DUP1 DUP4 KECCAK256 SWAP4 DUP6 AND DUP4 MSTORE SWAP3 DUP2 MSTORE SWAP1 DUP3 SWAP1 KECCAK256 DUP3 MLOAD PUSH2 0x1E0 DUP2 ADD DUP5 MSTORE DUP2 SLOAD DUP2 MSTORE PUSH1 0x1 DUP3 ADD SLOAD SWAP3 DUP2 ADD SWAP3 SWAP1 SWAP3 MSTORE PUSH1 0x2 DUP2 ADD SLOAD SWAP3 DUP3 ADD SWAP3 SWAP1 SWAP3 MSTORE PUSH1 0x3 DUP3 ADD SLOAD PUSH1 0x60 DUP3 ADD MSTORE PUSH1 0x4 DUP3 ADD SLOAD PUSH2 0xFFFF AND PUSH1 0x80 DUP3 ADD MSTORE PUSH1 0x5 DUP3 ADD SLOAD PUSH1 0xA0 DUP3 ADD MSTORE PUSH1 0x8 DUP3 ADD SLOAD PUSH1 0xC0 DUP3 ADD MSTORE PUSH1 0x9 DUP3 ADD SLOAD PUSH1 0xE0 DUP3 ADD MSTORE PUSH1 0xA DUP3 ADD SLOAD PUSH2 0x100 DUP1 DUP4 ADD SWAP2 SWAP1 SWAP2 MSTORE PUSH1 0xB DUP4 ADD SLOAD PUSH2 0x120 DUP4 ADD MSTORE PUSH1 0xC DUP4 ADD SLOAD PUSH2 0x140 DUP4 ADD MSTORE PUSH1 0xD DUP4 ADD SLOAD PUSH2 0x160 DUP4 ADD MSTORE PUSH1 0xE DUP4 ADD SLOAD DUP1 DUP6 AND PUSH2 0x180 DUP5 ADD MSTORE DIV SWAP1 SWAP3 AND PUSH2 0x1A0 DUP4 ADD MSTORE PUSH1 0xF ADD SLOAD PUSH2 0x1C0 DUP3 ADD MSTORE SWAP1 JUMP JUMPDEST PUSH2 0x1FB8 PUSH2 0x3610 JUMP JUMPDEST PUSH1 0x1 SLOAD PUSH1 0x40 MLOAD PUSH4 0x8A888953 PUSH1 0xE0 SHL DUP2 MSTORE PUSH1 0xFF DUP1 DUP7 AND PUSH1 0x4 DUP4 ADD MSTORE DUP5 AND PUSH1 0x24 DUP3 ADD MSTORE DUP5 SWAP2 DUP5 SWAP2 CALLER SWAP2 PUSH1 0x1 PUSH1 0x1 PUSH1 0xA0 SHL SUB AND SWAP1 PUSH4 0x8A888953 SWAP1 PUSH1 0x44 ADD PUSH1 0x20 PUSH1 0x40 MLOAD DUP1 DUP4 SUB DUP2 DUP7 GAS STATICCALL ISZERO DUP1 ISZERO PUSH2 0x200F JUMPI RETURNDATASIZE PUSH1 0x0 DUP1 RETURNDATACOPY RETURNDATASIZE PUSH1 0x0 REVERT JUMPDEST POP POP POP POP PUSH1 0x40 MLOAD RETURNDATASIZE PUSH1 0x1F NOT PUSH1 0x1F DUP3 ADD AND DUP3 ADD DUP1 PUSH1 0x40 MSTORE POP DUP2 ADD SWAP1 PUSH2 0x2033 SWAP2 SWAP1 PUSH2 0x3B31 JUMP JUMPDEST PUSH1 0x1 PUSH1 0x1 PUSH1 0xA0 SHL SUB AND EQ PUSH2 0x2059 JUMPI PUSH1 0x40 MLOAD PUSH3 0x461BCD PUSH1 0xE5 SHL DUP2 MSTORE PUSH1 0x4 ADD PUSH2 0xAA3 SWAP1 PUSH2 0x3B4E JUMP JUMPDEST PUSH2 0x2061 PUSH2 0x3610 JUMP JUMPDEST PUSH1 0x0 JUMPDEST PUSH1 0x9 PUSH1 0xFF DUP3 AND LT ISZERO PUSH2 0x2118 JUMPI PUSH1 0x0 JUMPDEST PUSH1 0x9 PUSH1 0xFF DUP3 AND LT ISZERO PUSH2 0x2105 JUMPI PUSH1 0xFF DUP1 DUP10 AND PUSH1 0x0 SWAP1 DUP2 MSTORE PUSH1 0x27 PUSH1 0x20 SWAP1 DUP2 MSTORE PUSH1 0x40 DUP1 DUP4 KECCAK256 DUP12 DUP6 AND DUP5 MSTORE DUP3 MSTORE DUP1 DUP4 KECCAK256 DUP7 DUP6 AND DUP1 DUP6 MSTORE SWAP1 DUP4 MSTORE DUP2 DUP5 KECCAK256 DUP7 DUP7 AND DUP6 MSTORE SWAP1 SWAP3 MSTORE SWAP1 SWAP2 KECCAK256 SLOAD SWAP1 SWAP2 AND SWAP1 DUP5 SWAP1 PUSH1 0x9 DUP2 LT PUSH2 0x20CD JUMPI PUSH2 0x20CD PUSH2 0x3CF8 JUMP JUMPDEST PUSH1 0x20 MUL ADD MLOAD DUP3 PUSH1 0xFF AND PUSH1 0x9 DUP2 LT PUSH2 0x20E6 JUMPI PUSH2 0x20E6 PUSH2 0x3CF8 JUMP JUMPDEST PUSH1 0xFF SWAP1 SWAP3 AND PUSH1 0x20 SWAP3 SWAP1 SWAP3 MUL ADD MSTORE DUP1 PUSH2 0x20FD DUP2 PUSH2 0x3CD9 JUMP JUMPDEST SWAP2 POP POP PUSH2 0x2073 JUMP JUMPDEST POP DUP1 PUSH2 0x2110 DUP2 PUSH2 0x3CD9 JUMP JUMPDEST SWAP2 POP POP PUSH2 0x2064 JUMP JUMPDEST POP SWAP3 POP JUMPDEST POP POP SWAP3 SWAP2 POP POP JUMP JUMPDEST PUSH1 0x1 SLOAD PUSH1 0x40 MLOAD PUSH4 0x8A888953 PUSH1 0xE0 SHL DUP2 MSTORE PUSH1 0xFF DUP1 DUP6 AND PUSH1 0x4 DUP4 ADD MSTORE DUP4 AND PUSH1 0x24 DUP3 ADD MSTORE DUP4 SWAP2 DUP4 SWAP2 CALLER SWAP2 PUSH1 0x1 PUSH1 0x1 PUSH1 0xA0 SHL SUB AND SWAP1 PUSH4 0x8A888953 SWAP1 PUSH1 0x44 ADD PUSH1 0x20 PUSH1 0x40 MLOAD DUP1 DUP4 SUB DUP2 DUP7 GAS STATICCALL ISZERO DUP1 ISZERO PUSH2 0x217B JUMPI RETURNDATASIZE PUSH1 0x0 DUP1 RETURNDATACOPY RETURNDATASIZE PUSH1 0x0 REVERT JUMPDEST POP POP POP POP PUSH1 0x40 MLOAD RETURNDATASIZE PUSH1 0x1F NOT PUSH1 0x1F DUP3 ADD AND DUP3 ADD DUP1 PUSH1 0x40 MSTORE POP DUP2 ADD SWAP1 PUSH2 0x219F SWAP2 SWAP1 PUSH2 0x3B31 JUMP JUMPDEST PUSH1 0x1 PUSH1 0x1 PUSH1 0xA0 SHL SUB AND EQ PUSH2 0x21C5 JUMPI PUSH1 0x40 MLOAD PUSH3 0x461BCD PUSH1 0xE5 SHL DUP2 MSTORE PUSH1 0x4 ADD PUSH2 0xAA3 SWAP1 PUSH2 0x3B4E JUMP JUMPDEST PUSH1 0xFF DUP1 DUP6 AND PUSH1 0x0 SWAP1 DUP2 MSTORE PUSH1 0x26 PUSH1 0x20 SWAP1 DUP2 MSTORE PUSH1 0x40 DUP1 DUP4 KECCAK256 SWAP4 DUP8 AND DUP4 MSTORE SWAP3 SWAP1 MSTORE SWAP1 DUP2 KECCAK256 PUSH1 0x7 ADD SLOAD PUSH2 0x21F4 SWAP1 TIMESTAMP PUSH2 0x3C6C JUMP JUMPDEST PUSH2 0x21FF SWAP1 PUSH1 0x3C PUSH2 0x3C98 JUMP JUMPDEST PUSH1 0xFF DUP1 DUP8 AND PUSH1 0x0 SWAP1 DUP2 MSTORE PUSH1 0x26 PUSH1 0x20 SWAP1 DUP2 MSTORE PUSH1 0x40 DUP1 DUP4 KECCAK256 SWAP4 DUP10 AND DUP4 MSTORE SWAP3 SWAP1 MSTORE KECCAK256 PUSH1 0x6 ADD SLOAD PUSH2 0x2230 SWAP2 SWAP1 PUSH2 0xFFFF AND PUSH2 0x3BD2 JUMP JUMPDEST SWAP1 POP PUSH2 0x258 DUP2 GT PUSH2 0x2241 JUMPI DUP1 PUSH2 0x2245 JUMP JUMPDEST PUSH2 0x258 JUMPDEST PUSH1 0xFF SWAP6 DUP7 AND PUSH1 0x0 SWAP1 DUP2 MSTORE PUSH1 0x26 PUSH1 0x20 SWAP1 DUP2 MSTORE PUSH1 0x40 DUP1 DUP4 KECCAK256 SWAP8 SWAP1 SWAP9 AND DUP3 MSTORE SWAP6 SWAP1 SWAP6 MSTORE SWAP5 SWAP1 SWAP4 KECCAK256 PUSH1 0x6 ADD DUP1 SLOAD PUSH2 0xFFFF NOT AND PUSH2 0xFFFF SWAP1 SWAP6 AND SWAP5 SWAP1 SWAP5 OR SWAP1 SWAP4 SSTORE POP POP POP JUMP JUMPDEST PUSH1 0x1 SLOAD PUSH1 0x40 MLOAD PUSH4 0x8A888953 PUSH1 0xE0 SHL DUP2 MSTORE PUSH1 0xFF DUP1 DUP6 AND PUSH1 0x4 DUP4 ADD MSTORE DUP4 AND PUSH1 0x24 DUP3 ADD MSTORE DUP4 SWAP2 DUP4 SWAP2 CALLER SWAP2 PUSH1 0x1 PUSH1 0x1 PUSH1 0xA0 SHL SUB AND SWAP1 PUSH4 0x8A888953 SWAP1 PUSH1 0x44 ADD PUSH1 0x20 PUSH1 0x40 MLOAD DUP1 DUP4 SUB DUP2 DUP7 GAS STATICCALL ISZERO DUP1 ISZERO PUSH2 0x22DC JUMPI RETURNDATASIZE PUSH1 0x0 DUP1 RETURNDATACOPY RETURNDATASIZE PUSH1 0x0 REVERT JUMPDEST POP POP POP POP PUSH1 0x40 MLOAD RETURNDATASIZE PUSH1 0x1F NOT PUSH1 0x1F DUP3 ADD AND DUP3 ADD DUP1 PUSH1 0x40 MSTORE POP DUP2 ADD SWAP1 PUSH2 0x2300 SWAP2 SWAP1 PUSH2 0x3B31 JUMP JUMPDEST PUSH1 0x1 PUSH1 0x1 PUSH1 0xA0 SHL SUB AND EQ PUSH2 0x2326 JUMPI PUSH1 0x40 MLOAD PUSH3 0x461BCD PUSH1 0xE5 SHL DUP2 MSTORE PUSH1 0x4 ADD PUSH2 0xAA3 SWAP1 PUSH2 0x3B4E JUMP JUMPDEST PUSH1 0x0 DUP6 PUSH2 0xFFFF AND GT PUSH2 0x235E JUMPI PUSH1 0x40 MLOAD PUSH3 0x461BCD PUSH1 0xE5 SHL DUP2 MSTORE PUSH1 0x20 PUSH1 0x4 DUP3 ADD MSTORE PUSH1 0x1 PUSH1 0x24 DUP3 ADD MSTORE PUSH1 0x3 PUSH1 0xFC SHL PUSH1 0x44 DUP3 ADD MSTORE PUSH1 0x64 ADD PUSH2 0xAA3 JUMP JUMPDEST PUSH1 0x3 SLOAD CALLVALUE EQ PUSH2 0x2399 JUMPI PUSH1 0x40 MLOAD PUSH3 0x461BCD PUSH1 0xE5 SHL DUP2 MSTORE PUSH1 0x20 PUSH1 0x4 DUP3 ADD MSTORE PUSH1 0x7 PUSH1 0x24 DUP3 ADD MSTORE PUSH7 0x62616420666565 PUSH1 0xC8 SHL PUSH1 0x44 DUP3 ADD MSTORE PUSH1 0x64 ADD PUSH2 0xAA3 JUMP JUMPDEST PUSH1 0xD SLOAD PUSH1 0x1 PUSH1 0x1 PUSH1 0xA0 SHL SUB AND PUSH2 0x23E1 JUMPI PUSH1 0x40 MLOAD PUSH3 0x461BCD PUSH1 0xE5 SHL DUP2 MSTORE PUSH1 0x20 PUSH1 0x4 DUP3 ADD MSTORE PUSH1 0xD PUSH1 0x24 DUP3 ADD MSTORE PUSH13 0x195E1D1C98481B9BDD081CD95D PUSH1 0x9A SHL PUSH1 0x44 DUP3 ADD MSTORE PUSH1 0x64 ADD PUSH2 0xAA3 JUMP JUMPDEST PUSH2 0x23EB DUP5 DUP5 PUSH2 0x2124 JUMP JUMPDEST PUSH1 0xFF DUP1 DUP6 AND PUSH1 0x0 SWAP1 DUP2 MSTORE PUSH1 0x26 PUSH1 0x20 SWAP1 DUP2 MSTORE PUSH1 0x40 DUP1 DUP4 KECCAK256 SWAP4 DUP8 AND DUP4 MSTORE SWAP3 SWAP1 MSTORE KECCAK256 PUSH1 0x6 ADD SLOAD PUSH2 0xFFFF DUP1 DUP8 AND SWAP2 AND LT ISZERO PUSH2 0x2434 JUMPI PUSH1 0x40 MLOAD PUSH3 0x461BCD PUSH1 0xE5 SHL DUP2 MSTORE PUSH1 0x4 ADD PUSH2 0xAA3 SWAP1 PUSH2 0x3B86 JUMP JUMPDEST PUSH1 0xFF DUP1 DUP6 AND PUSH1 0x0 SWAP1 DUP2 MSTORE PUSH1 0x26 PUSH1 0x20 SWAP1 DUP2 MSTORE PUSH1 0x40 DUP1 DUP4 KECCAK256 SWAP4 DUP8 AND DUP4 MSTORE SWAP3 SWAP1 MSTORE KECCAK256 PUSH1 0x5 ADD SLOAD PUSH2 0x2463 SWAP1 PUSH2 0x3E8 PUSH2 0x3C6C JUMP JUMPDEST DUP6 PUSH2 0xFFFF AND GT ISZERO PUSH2 0x24A0 JUMPI PUSH1 0xFF DUP1 DUP6 AND PUSH1 0x0 SWAP1 DUP2 MSTORE PUSH1 0x26 PUSH1 0x20 SWAP1 DUP2 MSTORE PUSH1 0x40 DUP1 DUP4 KECCAK256 SWAP4 DUP8 AND DUP4 MSTORE SWAP3 SWAP1 MSTORE KECCAK256 PUSH1 0x5 ADD SLOAD PUSH2 0x249D SWAP1 PUSH2 0x3E8 PUSH2 0x3C6C JUMP JUMPDEST SWAP5 POP JUMPDEST PUSH1 0xFF DUP1 DUP6 AND PUSH1 0x0 SWAP1 DUP2 MSTORE PUSH1 0x26 PUSH1 0x20 SWAP1 DUP2 MSTORE PUSH1 0x40 DUP1 DUP4 KECCAK256 SWAP4 DUP8 AND DUP4 MSTORE SWAP3 SWAP1 MSTORE KECCAK256 PUSH1 0x6 ADD SLOAD PUSH2 0x24D2 SWAP1 DUP7 SWAP1 PUSH2 0xFFFF AND PUSH2 0x3D0E JUMP JUMPDEST PUSH1 0xFF DUP6 DUP2 AND PUSH1 0x0 SWAP1 DUP2 MSTORE PUSH1 0x26 PUSH1 0x20 SWAP1 DUP2 MSTORE PUSH1 0x40 DUP1 DUP4 KECCAK256 SWAP4 DUP9 AND DUP4 MSTORE SWAP3 SWAP1 MSTORE SWAP1 DUP2 KECCAK256 PUSH1 0x6 DUP2 ADD DUP1 SLOAD PUSH2 0xFFFF NOT AND PUSH2 0xFFFF SWAP5 SWAP1 SWAP5 AND SWAP4 SWAP1 SWAP4 OR SWAP1 SWAP3 SSTORE TIMESTAMP PUSH1 0x7 SWAP1 SWAP3 ADD SWAP2 SWAP1 SWAP2 SSTORE PUSH2 0x2522 DUP6 DUP6 PUSH1 0x5 PUSH2 0x2EA6 JUMP JUMPDEST SWAP1 POP PUSH2 0x252F PUSH1 0x1 DUP3 PUSH2 0x3BD2 JUMP JUMPDEST PUSH1 0x2 SLOAD PUSH1 0x40 MLOAD PUSH4 0x2A2026A9 PUSH1 0xE0 SHL DUP2 MSTORE PUSH1 0xFF DUP1 DUP10 AND PUSH1 0x4 DUP4 ADD MSTORE DUP8 AND PUSH1 0x24 DUP3 ADD MSTORE SWAP2 SWAP3 POP PUSH1 0x0 SWAP2 PUSH1 0x1 PUSH1 0x1 PUSH1 0xA0 SHL SUB SWAP1 SWAP2 AND SWAP1 PUSH4 0x2A2026A9 SWAP1 PUSH1 0x44 ADD PUSH1 0x20 PUSH1 0x40 MLOAD DUP1 DUP4 SUB DUP2 DUP7 GAS STATICCALL ISZERO DUP1 ISZERO PUSH2 0x2588 JUMPI RETURNDATASIZE PUSH1 0x0 DUP1 RETURNDATACOPY RETURNDATASIZE PUSH1 0x0 REVERT JUMPDEST POP POP POP POP PUSH1 0x40 MLOAD RETURNDATASIZE PUSH1 0x1F NOT PUSH1 0x1F DUP3 ADD AND DUP3 ADD DUP1 PUSH1 0x40 MSTORE POP DUP2 ADD SWAP1 PUSH2 0x25AC SWAP2 SWAP1 PUSH2 0x3D30 JUMP JUMPDEST PUSH1 0xFF DUP1 DUP9 AND PUSH1 0x0 SWAP1 DUP2 MSTORE PUSH1 0x26 PUSH1 0x20 SWAP1 DUP2 MSTORE PUSH1 0x40 DUP1 DUP4 KECCAK256 DUP11 DUP6 AND DUP5 MSTORE SWAP1 SWAP2 MSTORE SWAP1 KECCAK256 SWAP2 SWAP3 POP DUP3 AND PUSH1 0x1 SUB PUSH2 0x2603 JUMPI PUSH2 0x25E6 DUP4 PUSH2 0xFFFF DUP11 AND PUSH2 0x3C98 JUMP JUMPDEST DUP2 SLOAD DUP3 SWAP1 PUSH1 0x0 SWAP1 PUSH2 0x25F8 SWAP1 DUP5 SWAP1 PUSH2 0x3BD2 JUMP JUMPDEST SWAP1 SWAP2 SSTORE POP PUSH2 0x2690 SWAP1 POP JUMP JUMPDEST DUP2 PUSH1 0xFF AND PUSH1 0x2 SUB PUSH2 0x2630 JUMPI PUSH2 0x261C DUP4 PUSH2 0xFFFF DUP11 AND PUSH2 0x3C98 JUMP JUMPDEST PUSH1 0x1 DUP3 ADD DUP1 SLOAD PUSH1 0x0 SWAP1 PUSH2 0x25F8 SWAP1 DUP5 SWAP1 PUSH2 0x3BD2 JUMP JUMPDEST DUP2 PUSH1 0xFF AND PUSH1 0x3 SUB PUSH2 0x265D JUMPI PUSH2 0x2649 DUP4 PUSH2 0xFFFF DUP11 AND PUSH2 0x3C98 JUMP JUMPDEST PUSH1 0x2 DUP3 ADD DUP1 SLOAD PUSH1 0x0 SWAP1 PUSH2 0x25F8 SWAP1 DUP5 SWAP1 PUSH2 0x3BD2 JUMP JUMPDEST DUP2 PUSH1 0xFF AND PUSH1 0x4 SUB PUSH2 0x2690 JUMPI PUSH2 0x2676 DUP4 PUSH2 0xFFFF DUP11 AND PUSH2 0x3C98 JUMP JUMPDEST PUSH1 0x3 DUP3 ADD DUP1 SLOAD PUSH1 0x0 SWAP1 PUSH2 0x268A SWAP1 DUP5 SWAP1 PUSH2 0x3BD2 JUMP JUMPDEST SWAP1 SWAP2 SSTORE POP POP JUMPDEST PUSH2 0x269E DUP4 PUSH2 0xFFFF DUP11 AND PUSH2 0x3C98 JUMP JUMPDEST DUP2 SLOAD DUP3 SWAP1 PUSH1 0x0 SWAP1 PUSH2 0x26B0 SWAP1 DUP5 SWAP1 PUSH2 0x3BD2 JUMP JUMPDEST SWAP1 SWAP2 SSTORE POP PUSH2 0x26C4 SWAP1 POP DUP4 PUSH2 0xFFFF DUP11 AND PUSH2 0x3C98 JUMP JUMPDEST PUSH1 0x1 DUP3 ADD DUP1 SLOAD PUSH1 0x0 SWAP1 PUSH2 0x26D8 SWAP1 DUP5 SWAP1 PUSH2 0x3BD2 JUMP JUMPDEST SWAP1 SWAP2 SSTORE POP PUSH2 0x26EC SWAP1 POP DUP4 PUSH2 0xFFFF DUP11 AND PUSH2 0x3C98 JUMP JUMPDEST PUSH1 0x2 DUP3 ADD DUP1 SLOAD PUSH1 0x0 SWAP1 PUSH2 0x2700 SWAP1 DUP5 SWAP1 PUSH2 0x3BD2 JUMP JUMPDEST SWAP1 SWAP2 SSTORE POP PUSH2 0x2714 SWAP1 POP DUP4 PUSH2 0xFFFF DUP11 AND PUSH2 0x3C98 JUMP JUMPDEST PUSH1 0x3 DUP3 ADD DUP1 SLOAD PUSH1 0x0 SWAP1 PUSH2 0x2728 SWAP1 DUP5 SWAP1 PUSH2 0x3BD2 JUMP JUMPDEST SWAP3 POP POP DUP2 SWAP1 SSTORE POP DUP8 PUSH2 0xFFFF AND DUP2 PUSH1 0x5 ADD PUSH1 0x0 DUP3 DUP3 SLOAD PUSH2 0x2747 SWAP2 SWAP1 PUSH2 0x3BD2 JUMP JUMPDEST SWAP1 SWAP2 SSTORE POP POP PUSH1 0x5 DUP2 ADD SLOAD PUSH1 0x0 SWAP1 PUSH2 0x2761 SWAP1 PUSH2 0x3E8 SWAP1 PUSH2 0x3CC5 JUMP JUMPDEST SWAP1 POP PUSH2 0x3E8 DUP3 PUSH1 0x5 ADD PUSH1 0x0 DUP3 DUP3 SLOAD PUSH2 0x2779 SWAP2 SWAP1 PUSH2 0x3D4D JUMP JUMPDEST SWAP1 SWAP2 SSTORE POP POP PUSH1 0x4 DUP3 ADD SLOAD PUSH1 0x0 SWAP1 PUSH2 0x2795 SWAP1 DUP4 SWAP1 PUSH2 0xFFFF AND PUSH2 0x3D61 JUMP JUMPDEST SWAP1 POP PUSH2 0x1F4 DUP2 PUSH2 0xFFFF AND GT ISZERO PUSH2 0x27BB JUMPI PUSH1 0x4 DUP4 ADD DUP1 SLOAD PUSH2 0xFFFF NOT AND PUSH2 0x1F4 OR SWAP1 SSTORE PUSH2 0x27CF JUMP JUMPDEST PUSH1 0x4 DUP4 ADD DUP1 SLOAD PUSH2 0xFFFF NOT AND PUSH2 0xFFFF DUP4 AND OR SWAP1 SSTORE JUMPDEST PUSH2 0x27DA DUP4 DUP11 DUP11 PUSH2 0x30F0 JUMP JUMPDEST PUSH1 0xFF DUP1 DUP11 AND PUSH1 0x0 SWAP1 DUP2 MSTORE PUSH1 0x6 PUSH1 0x20 SWAP1 DUP2 MSTORE PUSH1 0x40 DUP1 DUP4 KECCAK256 SWAP4 DUP13 AND DUP4 MSTORE SWAP3 SWAP1 MSTORE SWAP1 DUP2 KECCAK256 DUP1 SLOAD PUSH2 0xFFFF DUP14 AND SWAP3 SWAP1 PUSH2 0x280F SWAP1 DUP5 SWAP1 PUSH2 0x3BD2 JUMP JUMPDEST SWAP1 SWAP2 SSTORE POP PUSH2 0x2821 SWAP1 POP DUP10 DUP10 PUSH1 0x0 PUSH2 0x1E26 JUMP JUMPDEST PUSH1 0x40 DUP1 MLOAD PUSH2 0xFFFF DUP13 AND DUP2 MSTORE PUSH1 0xFF DUP12 DUP2 AND PUSH1 0x20 DUP4 ADD MSTORE DUP11 AND DUP2 DUP4 ADD MSTORE SWAP1 MLOAD CALLER SWAP2 PUSH32 0xBB5B4F7847476E1912E2B57D030B0E491D0D72B2EF256CCEEA9DAA41F40F5D18 SWAP2 SWAP1 DUP2 SWAP1 SUB PUSH1 0x60 ADD SWAP1 LOG2 PUSH2 0x2874 CALLVALUE PUSH2 0x3150 JUMP JUMPDEST PUSH1 0x0 DUP1 PUSH2 0x287F PUSH2 0x33CB JUMP JUMPDEST SWAP1 SWAP3 POP SWAP1 POP DUP2 ISZERO PUSH2 0x104B JUMPI PUSH1 0x0 DUP2 DUP4 PUSH1 0x4 SLOAD DUP16 PUSH2 0xFFFF AND PUSH2 0x28A0 SWAP2 SWAP1 PUSH2 0x3C98 JUMP JUMPDEST PUSH2 0x28AA SWAP2 SWAP1 PUSH2 0x3C98 JUMP JUMPDEST PUSH2 0x28B4 SWAP2 SWAP1 PUSH2 0x3CC5 JUMP JUMPDEST PUSH1 0x0 DUP1 SLOAD PUSH1 0x40 MLOAD PUSH4 0xA9059CBB PUSH1 0xE0 SHL DUP2 MSTORE CALLER PUSH1 0x4 DUP3 ADD MSTORE PUSH1 0x24 DUP2 ADD DUP5 SWAP1 MSTORE SWAP3 SWAP4 POP SWAP1 SWAP2 PUSH1 0x1 PUSH1 0x1 PUSH1 0xA0 SHL SUB SWAP1 SWAP2 AND SWAP1 PUSH4 0xA9059CBB SWAP1 PUSH1 0x44 ADD PUSH1 0x20 PUSH1 0x40 MLOAD DUP1 DUP4 SUB DUP2 PUSH1 0x0 DUP8 GAS CALL ISZERO DUP1 ISZERO PUSH2 0x290B JUMPI RETURNDATASIZE PUSH1 0x0 DUP1 RETURNDATACOPY RETURNDATASIZE PUSH1 0x0 REVERT JUMPDEST POP POP POP POP PUSH1 0x40 MLOAD RETURNDATASIZE PUSH1 0x1F NOT PUSH1 0x1F DUP3 ADD AND DUP3 ADD DUP1 PUSH1 0x40 MSTORE POP DUP2 ADD SWAP1 PUSH2 0x292F SWAP2 SWAP1 PUSH2 0x3D7C JUMP JUMPDEST SWAP1 POP DUP1 PUSH2 0x145B JUMPI PUSH1 0x40 MLOAD PUSH3 0x461BCD PUSH1 0xE5 SHL DUP2 MSTORE PUSH1 0x20 PUSH1 0x4 DUP3 ADD MSTORE PUSH1 0x1A PUSH1 0x24 DUP3 ADD MSTORE PUSH32 0x4C4F5020726577617264207472616E73666572206661696C6564000000000000 PUSH1 0x44 DUP3 ADD MSTORE PUSH1 0x64 ADD PUSH2 0xAA3 JUMP JUMPDEST PUSH1 0x1 SLOAD PUSH1 0x40 MLOAD PUSH4 0x8A888953 PUSH1 0xE0 SHL DUP2 MSTORE PUSH1 0xFF DUP1 DUP6 AND PUSH1 0x4 DUP4 ADD MSTORE DUP4 AND PUSH1 0x24 DUP3 ADD MSTORE PUSH1 0x0 SWAP2 DUP5 SWAP2 DUP5 SWAP2 CALLER SWAP2 PUSH1 0x1 PUSH1 0x1 PUSH1 0xA0 SHL SUB SWAP1 SWAP2 AND SWAP1 PUSH4 0x8A888953 SWAP1 PUSH1 0x44 ADD PUSH1 0x20 PUSH1 0x40 MLOAD DUP1 DUP4 SUB DUP2 DUP7 GAS STATICCALL ISZERO DUP1 ISZERO PUSH2 0x29DA JUMPI RETURNDATASIZE PUSH1 0x0 DUP1 RETURNDATACOPY RETURNDATASIZE PUSH1 0x0 REVERT JUMPDEST POP POP POP POP PUSH1 0x40 MLOAD RETURNDATASIZE PUSH1 0x1F NOT PUSH1 0x1F DUP3 ADD AND DUP3 ADD DUP1 PUSH1 0x40 MSTORE POP DUP2 ADD SWAP1 PUSH2 0x29FE SWAP2 SWAP1 PUSH2 0x3B31 JUMP JUMPDEST PUSH1 0x1 PUSH1 0x1 PUSH1 0xA0 SHL SUB AND EQ PUSH2 0x2A24 JUMPI PUSH1 0x40 MLOAD PUSH3 0x461BCD PUSH1 0xE5 SHL DUP2 MSTORE PUSH1 0x4 ADD PUSH2 0xAA3 SWAP1 PUSH2 0x3B4E JUMP JUMPDEST PUSH1 0xFF DUP1 DUP7 AND PUSH1 0x0 SWAP1 DUP2 MSTORE PUSH1 0x26 PUSH1 0x20 SWAP1 DUP2 MSTORE PUSH1 0x40 DUP1 DUP4 KECCAK256 SWAP4 DUP9 AND DUP4 MSTORE SWAP3 SWAP1 MSTORE KECCAK256 PUSH1 0x7 ADD SLOAD PUSH2 0x258 SWAP1 PUSH2 0x2A55 SWAP1 TIMESTAMP PUSH2 0x3C6C JUMP JUMPDEST PUSH2 0x2A60 SWAP1 PUSH1 0x3C PUSH2 0x3C98 JUMP JUMPDEST PUSH1 0xFF DUP1 DUP9 AND PUSH1 0x0 SWAP1 DUP2 MSTORE PUSH1 0x26 PUSH1 0x20 SWAP1 DUP2 MSTORE PUSH1 0x40 DUP1 DUP4 KECCAK256 SWAP4 DUP11 AND DUP4 MSTORE SWAP3 SWAP1 MSTORE KECCAK256 PUSH1 0x6 ADD SLOAD PUSH2 0x2A91 SWAP2 SWAP1 PUSH2 0xFFFF AND PUSH2 0x3BD2 JUMP JUMPDEST GT ISZERO PUSH2 0x2AA1 JUMPI PUSH2 0x258 SWAP3 POP PUSH2 0x211C JUMP JUMPDEST PUSH1 0xFF DUP1 DUP7 AND PUSH1 0x0 SWAP1 DUP2 MSTORE PUSH1 0x26 PUSH1 0x20 SWAP1 DUP2 MSTORE PUSH1 0x40 DUP1 DUP4 KECCAK256 SWAP4 DUP9 AND DUP4 MSTORE SWAP3 SWAP1 MSTORE KECCAK256 PUSH1 0x7 ADD SLOAD PUSH2 0x2ACE SWAP1 TIMESTAMP PUSH2 0x3C6C JUMP JUMPDEST PUSH2 0x2AD9 SWAP1 PUSH1 0x3C PUSH2 0x3C98 JUMP JUMPDEST PUSH1 0xFF DUP1 DUP8 AND PUSH1 0x0 SWAP1 DUP2 MSTORE PUSH1 0x26 PUSH1 0x20 SWAP1 DUP2 MSTORE PUSH1 0x40 DUP1 DUP4 KECCAK256 SWAP4 DUP10 AND DUP4 MSTORE SWAP3 SWAP1 MSTORE KECCAK256 PUSH1 0x6 ADD SLOAD PUSH2 0x2B0A SWAP2 SWAP1 PUSH2 0xFFFF AND PUSH2 0x3BD2 JUMP JUMPDEST SWAP3 POP PUSH2 0x211C JUMP JUMPDEST PUSH1 0x1 SLOAD PUSH1 0x40 MLOAD PUSH4 0x8A888953 PUSH1 0xE0 SHL DUP2 MSTORE PUSH1 0xFF DUP1 DUP8 AND PUSH1 0x4 DUP4 ADD MSTORE DUP6 AND PUSH1 0x24 DUP3 ADD MSTORE DUP6 SWAP2 DUP6 SWAP2 CALLER SWAP2 PUSH1 0x1 PUSH1 0x1 PUSH1 0xA0 SHL SUB AND SWAP1 PUSH4 0x8A888953 SWAP1 PUSH1 0x44 ADD PUSH1 0x20 PUSH1 0x40 MLOAD DUP1 DUP4 SUB DUP2 DUP7 GAS STATICCALL ISZERO DUP1 ISZERO PUSH2 0x2B68 JUMPI RETURNDATASIZE PUSH1 0x0 DUP1 RETURNDATACOPY RETURNDATASIZE PUSH1 0x0 REVERT JUMPDEST POP POP POP POP PUSH1 0x40 MLOAD RETURNDATASIZE PUSH1 0x1F NOT PUSH1 0x1F DUP3 ADD AND DUP3 ADD DUP1 PUSH1 0x40 MSTORE POP DUP2 ADD SWAP1 PUSH2 0x2B8C SWAP2 SWAP1 PUSH2 0x3B31 JUMP JUMPDEST PUSH1 0x1 PUSH1 0x1 PUSH1 0xA0 SHL SUB AND EQ PUSH2 0x2BB2 JUMPI PUSH1 0x40 MLOAD PUSH3 0x461BCD PUSH1 0xE5 SHL DUP2 MSTORE PUSH1 0x4 ADD PUSH2 0xAA3 SWAP1 PUSH2 0x3B4E JUMP JUMPDEST PUSH1 0x0 DUP4 GT PUSH2 0x2BD2 JUMPI PUSH1 0x40 MLOAD PUSH3 0x461BCD PUSH1 0xE5 SHL DUP2 MSTORE PUSH1 0x4 ADD PUSH2 0xAA3 SWAP1 PUSH2 0x3B6B JUMP JUMPDEST DUP4 PUSH1 0xFF AND PUSH1 0x1 EQ DUP1 PUSH2 0x2BE7 JUMPI POP DUP4 PUSH1 0xFF AND PUSH1 0x2 EQ JUMPDEST PUSH2 0x2C03 JUMPI PUSH1 0x40 MLOAD PUSH3 0x461BCD PUSH1 0xE5 SHL DUP2 MSTORE PUSH1 0x4 ADD PUSH2 0xAA3 SWAP1 PUSH2 0x3B86 JUMP JUMPDEST PUSH1 0x0 PUSH2 0x2C11 DUP8 DUP8 PUSH1 0x4 PUSH2 0x2EA6 JUMP JUMPDEST SWAP1 POP PUSH1 0x0 DUP2 GT PUSH2 0x2C47 JUMPI PUSH1 0x40 MLOAD PUSH3 0x461BCD PUSH1 0xE5 SHL DUP2 MSTORE PUSH1 0x20 PUSH1 0x4 DUP3 ADD MSTORE PUSH1 0x1 PUSH1 0x24 DUP3 ADD MSTORE PUSH1 0x7 PUSH1 0xFC SHL PUSH1 0x44 DUP3 ADD MSTORE PUSH1 0x64 ADD PUSH2 0xAA3 JUMP JUMPDEST PUSH1 0x0 DUP6 PUSH1 0xFF AND PUSH1 0x1 EQ PUSH2 0x2C5B JUMPI PUSH1 0x22 PUSH2 0x2C5E JUMP JUMPDEST PUSH1 0x1E JUMPDEST PUSH1 0x40 DUP1 MLOAD PUSH1 0x80 DUP2 ADD DUP3 MSTORE DUP3 SLOAD DUP2 MSTORE PUSH1 0x1 DUP4 ADD SLOAD PUSH1 0x20 DUP3 ADD MSTORE PUSH1 0x2 DUP4 ADD SLOAD SWAP2 DUP2 ADD SWAP2 SWAP1 SWAP2 MSTORE PUSH1 0x3 SWAP1 SWAP2 ADD SLOAD PUSH1 0x60 DUP3 ADD MSTORE SWAP1 POP PUSH2 0x2C9C DUP9 DUP9 DUP4 DUP9 DUP7 PUSH2 0x2F41 JUMP JUMPDEST PUSH1 0xFF DUP1 DUP10 AND PUSH1 0x0 SWAP1 DUP2 MSTORE PUSH1 0x26 PUSH1 0x20 SWAP1 DUP2 MSTORE PUSH1 0x40 DUP1 DUP4 KECCAK256 DUP12 DUP6 AND DUP5 MSTORE SWAP1 SWAP2 MSTORE SWAP1 KECCAK256 PUSH1 0x8 ADD SWAP1 DUP8 AND PUSH1 0x1 SUB PUSH2 0x2D8D JUMPI DUP1 SLOAD DUP7 GT ISZERO PUSH2 0x2CFF JUMPI PUSH1 0x40 MLOAD PUSH3 0x461BCD PUSH1 0xE5 SHL DUP2 MSTORE PUSH1 0x20 PUSH1 0x4 DUP3 ADD MSTORE PUSH1 0x2 PUSH1 0x24 DUP3 ADD MSTORE PUSH2 0x6F61 PUSH1 0xF0 SHL PUSH1 0x44 DUP3 ADD MSTORE PUSH1 0x64 ADD PUSH2 0xAA3 JUMP JUMPDEST DUP6 DUP2 PUSH1 0x2 ADD SLOAD LT ISZERO PUSH2 0x2D38 JUMPI PUSH1 0x40 MLOAD PUSH3 0x461BCD PUSH1 0xE5 SHL DUP2 MSTORE PUSH1 0x20 PUSH1 0x4 DUP3 ADD MSTORE PUSH1 0x2 PUSH1 0x24 DUP3 ADD MSTORE PUSH2 0x6F77 PUSH1 0xF0 SHL PUSH1 0x44 DUP3 ADD MSTORE PUSH1 0x64 ADD PUSH2 0xAA3 JUMP JUMPDEST DUP6 DUP2 PUSH1 0x0 ADD PUSH1 0x0 DUP3 DUP3 SLOAD PUSH2 0x2D4C SWAP2 SWAP1 PUSH2 0x3C6C JUMP JUMPDEST SWAP3 POP POP DUP2 SWAP1 SSTORE POP DUP6 DUP2 PUSH1 0x2 ADD PUSH1 0x0 DUP3 DUP3 SLOAD PUSH2 0x2D67 SWAP2 SWAP1 PUSH2 0x3C6C JUMP JUMPDEST SWAP3 POP POP DUP2 SWAP1 SSTORE POP DUP6 DUP2 PUSH1 0x4 ADD PUSH1 0x0 DUP3 DUP3 SLOAD PUSH2 0x2D82 SWAP2 SWAP1 PUSH2 0x3BD2 JUMP JUMPDEST SWAP1 SWAP2 SSTORE POP PUSH2 0x2E4F SWAP1 POP JUMP JUMPDEST DUP6 DUP2 PUSH1 0x1 ADD SLOAD LT ISZERO PUSH2 0x2DC6 JUMPI PUSH1 0x40 MLOAD PUSH3 0x461BCD PUSH1 0xE5 SHL DUP2 MSTORE PUSH1 0x20 PUSH1 0x4 DUP3 ADD MSTORE PUSH1 0x2 PUSH1 0x24 DUP3 ADD MSTORE PUSH2 0x6461 PUSH1 0xF0 SHL PUSH1 0x44 DUP3 ADD MSTORE PUSH1 0x64 ADD PUSH2 0xAA3 JUMP JUMPDEST DUP6 DUP2 PUSH1 0x3 ADD SLOAD LT ISZERO PUSH2 0x2DFF JUMPI PUSH1 0x40 MLOAD PUSH3 0x461BCD PUSH1 0xE5 SHL DUP2 MSTORE PUSH1 0x20 PUSH1 0x4 DUP3 ADD MSTORE PUSH1 0x2 PUSH1 0x24 DUP3 ADD MSTORE PUSH2 0x6477 PUSH1 0xF0 SHL PUSH1 0x44 DUP3 ADD MSTORE PUSH1 0x64 ADD PUSH2 0xAA3 JUMP JUMPDEST DUP6 DUP2 PUSH1 0x1 ADD PUSH1 0x0 DUP3 DUP3 SLOAD PUSH2 0x2E13 SWAP2 SWAP1 PUSH2 0x3C6C JUMP JUMPDEST SWAP3 POP POP DUP2 SWAP1 SSTORE POP DUP6 DUP2 PUSH1 0x3 ADD PUSH1 0x0 DUP3 DUP3 SLOAD PUSH2 0x2E2E SWAP2 SWAP1 PUSH2 0x3C6C JUMP JUMPDEST SWAP3 POP POP DUP2 SWAP1 SSTORE POP DUP6 DUP2 PUSH1 0x5 ADD PUSH1 0x0 DUP3 DUP3 SLOAD PUSH2 0x2E49 SWAP2 SWAP1 PUSH2 0x3BD2 JUMP JUMPDEST SWAP1 SWAP2 SSTORE POP POP JUMPDEST POP POP POP POP POP POP POP POP POP JUMP JUMPDEST PUSH1 0xB SLOAD PUSH1 0x1 PUSH1 0x1 PUSH1 0xA0 SHL SUB AND CALLER EQ PUSH2 0x2E84 JUMPI PUSH1 0x40 MLOAD PUSH3 0x461BCD PUSH1 0xE5 SHL DUP2 MSTORE PUSH1 0x4 ADD PUSH2 0xAA3 SWAP1 PUSH2 0x3B4E JUMP JUMPDEST PUSH1 0xC DUP1 SLOAD PUSH1 0x1 PUSH1 0x1 PUSH1 0xA0 SHL SUB NOT AND PUSH1 0x1 PUSH1 0x1 PUSH1 0xA0 SHL SUB SWAP3 SWAP1 SWAP3 AND SWAP2 SWAP1 SWAP2 OR SWAP1 SSTORE JUMP JUMPDEST PUSH1 0x0 DUP1 DUP1 JUMPDEST PUSH1 0x9 PUSH1 0xFF DUP3 AND LT ISZERO PUSH2 0x2F38 JUMPI PUSH1 0x0 JUMPDEST PUSH1 0x9 PUSH1 0xFF DUP3 AND LT ISZERO PUSH2 0x2F25 JUMPI PUSH1 0xFF DUP8 DUP2 AND PUSH1 0x0 SWAP1 DUP2 MSTORE PUSH1 0x27 PUSH1 0x20 SWAP1 DUP2 MSTORE PUSH1 0x40 DUP1 DUP4 KECCAK256 DUP11 DUP6 AND DUP5 MSTORE DUP3 MSTORE DUP1 DUP4 KECCAK256 DUP7 DUP6 AND DUP5 MSTORE DUP3 MSTORE DUP1 DUP4 KECCAK256 DUP6 DUP6 AND DUP5 MSTORE SWAP1 SWAP2 MSTORE SWAP1 KECCAK256 SLOAD DUP2 DUP8 AND SWAP2 AND SUB PUSH2 0x2F13 JUMPI DUP3 PUSH2 0x2F0F DUP2 PUSH2 0x3D99 JUMP JUMPDEST SWAP4 POP POP JUMPDEST DUP1 PUSH2 0x2F1D DUP2 PUSH2 0x3CD9 JUMP JUMPDEST SWAP2 POP POP PUSH2 0x2EBA JUMP JUMPDEST POP DUP1 PUSH2 0x2F30 DUP2 PUSH2 0x3CD9 JUMP JUMPDEST SWAP2 POP POP PUSH2 0x2EAB JUMP JUMPDEST POP SWAP5 SWAP4 POP POP POP POP JUMP JUMPDEST PUSH1 0xFF DUP1 DUP7 AND PUSH1 0x0 SWAP1 DUP2 MSTORE PUSH1 0x26 PUSH1 0x20 SWAP1 DUP2 MSTORE PUSH1 0x40 DUP1 DUP4 KECCAK256 SWAP4 DUP9 AND DUP4 MSTORE SWAP3 SWAP1 MSTORE SWAP1 DUP2 KECCAK256 DUP5 MLOAD SWAP1 SWAP2 SWAP1 DUP4 SWAP1 PUSH2 0x2F74 SWAP1 DUP7 SWAP1 PUSH2 0x3C98 JUMP JUMPDEST PUSH2 0x2F7E SWAP2 SWAP1 PUSH2 0x3CC5 JUMP JUMPDEST SWAP1 POP PUSH1 0x0 DUP4 DUP6 DUP8 PUSH1 0x20 ADD MLOAD PUSH2 0x2F93 SWAP2 SWAP1 PUSH2 0x3C98 JUMP JUMPDEST PUSH2 0x2F9D SWAP2 SWAP1 PUSH2 0x3CC5 JUMP JUMPDEST SWAP1 POP PUSH1 0x0 DUP5 DUP7 DUP9 PUSH1 0x40 ADD MLOAD PUSH2 0x2FB2 SWAP2 SWAP1 PUSH2 0x3C98 JUMP JUMPDEST PUSH2 0x2FBC SWAP2 SWAP1 PUSH2 0x3CC5 JUMP JUMPDEST SWAP1 POP PUSH1 0x0 DUP6 DUP8 DUP10 PUSH1 0x60 ADD MLOAD PUSH2 0x2FD1 SWAP2 SWAP1 PUSH2 0x3C98 JUMP JUMPDEST PUSH2 0x2FDB SWAP2 SWAP1 PUSH2 0x3CC5 JUMP JUMPDEST DUP6 SLOAD SWAP1 SWAP2 POP DUP5 GT ISZERO PUSH2 0x2FFF JUMPI PUSH1 0x40 MLOAD PUSH3 0x461BCD PUSH1 0xE5 SHL DUP2 MSTORE PUSH1 0x4 ADD PUSH2 0xAA3 SWAP1 PUSH2 0x3C00 JUMP JUMPDEST PUSH1 0x1 DUP6 ADD SLOAD DUP4 GT ISZERO PUSH2 0x3023 JUMPI PUSH1 0x40 MLOAD PUSH3 0x461BCD PUSH1 0xE5 SHL DUP2 MSTORE PUSH1 0x4 ADD PUSH2 0xAA3 SWAP1 PUSH2 0x3C1B JUMP JUMPDEST PUSH1 0x2 DUP6 ADD SLOAD DUP3 GT ISZERO PUSH2 0x3047 JUMPI PUSH1 0x40 MLOAD PUSH3 0x461BCD PUSH1 0xE5 SHL DUP2 MSTORE PUSH1 0x4 ADD PUSH2 0xAA3 SWAP1 PUSH2 0x3C36 JUMP JUMPDEST PUSH1 0x3 DUP6 ADD SLOAD DUP2 GT ISZERO PUSH2 0x306B JUMPI PUSH1 0x40 MLOAD PUSH3 0x461BCD PUSH1 0xE5 SHL DUP2 MSTORE PUSH1 0x4 ADD PUSH2 0xAA3 SWAP1 PUSH2 0x3C51 JUMP JUMPDEST DUP5 SLOAD DUP5 SWAP1 DUP7 SWAP1 PUSH1 0x0 SWAP1 PUSH2 0x307F SWAP1 DUP5 SWAP1 PUSH2 0x3C6C JUMP JUMPDEST SWAP1 SWAP2 SSTORE POP POP PUSH1 0x1 DUP6 ADD DUP1 SLOAD DUP5 SWAP2 SWAP1 PUSH1 0x0 SWAP1 PUSH2 0x309B SWAP1 DUP5 SWAP1 PUSH2 0x3C6C JUMP JUMPDEST SWAP1 SWAP2 SSTORE POP POP PUSH1 0x2 DUP6 ADD DUP1 SLOAD DUP4 SWAP2 SWAP1 PUSH1 0x0 SWAP1 PUSH2 0x30B7 SWAP1 DUP5 SWAP1 PUSH2 0x3C6C JUMP JUMPDEST SWAP1 SWAP2 SSTORE POP POP PUSH1 0x3 DUP6 ADD DUP1 SLOAD DUP3 SWAP2 SWAP1 PUSH1 0x0 SWAP1 PUSH2 0x30D3 SWAP1 DUP5 SWAP1 PUSH2 0x3C6C JUMP JUMPDEST SWAP1 SWAP2 SSTORE POP PUSH2 0x30E4 SWAP1 POP DUP6 DUP12 DUP12 PUSH2 0x30F0 JUMP JUMPDEST POP POP POP POP POP POP POP POP POP POP JUMP JUMPDEST PUSH1 0x3 DUP4 ADD SLOAD PUSH1 0x2 DUP5 ADD SLOAD PUSH1 0x1 DUP6 ADD SLOAD DUP6 SLOAD PUSH1 0x0 SWAP4 SWAP3 SWAP2 PUSH2 0x310F SWAP2 PUSH2 0x3BD2 JUMP JUMPDEST PUSH2 0x3119 SWAP2 SWAP1 PUSH2 0x3BD2 JUMP JUMPDEST PUSH2 0x3123 SWAP2 SWAP1 PUSH2 0x3BD2 JUMP JUMPDEST PUSH1 0xF SWAP1 SWAP5 ADD DUP5 SWAP1 SSTORE POP PUSH1 0xFF SWAP2 DUP3 AND PUSH1 0x0 SWAP1 DUP2 MSTORE PUSH1 0x9 PUSH1 0x20 SWAP1 DUP2 MSTORE PUSH1 0x40 DUP1 DUP4 KECCAK256 SWAP4 SWAP1 SWAP5 AND DUP3 MSTORE SWAP2 SWAP1 SWAP2 MSTORE KECCAK256 SSTORE JUMP JUMPDEST PUSH2 0x3158 PUSH2 0x363E JUMP JUMPDEST PUSH1 0x0 DUP1 DUP1 PUSH1 0x0 PUSH2 0x3166 PUSH2 0x3422 JUMP JUMPDEST SWAP2 SWAP5 POP SWAP3 POP SWAP1 POP PUSH1 0x1 PUSH1 0x1 PUSH1 0xA0 SHL SUB DUP4 AND ISZERO PUSH2 0x31AE JUMPI DUP3 DUP6 DUP6 PUSH2 0x3188 DUP2 PUSH2 0x3D99 JUMP JUMPDEST SWAP7 POP PUSH1 0x4 DUP2 LT PUSH2 0x319A JUMPI PUSH2 0x319A PUSH2 0x3CF8 JUMP JUMPDEST PUSH1 0x1 PUSH1 0x1 PUSH1 0xA0 SHL SUB SWAP1 SWAP3 AND PUSH1 0x20 SWAP3 SWAP1 SWAP3 MUL ADD MSTORE JUMPDEST PUSH1 0x1 PUSH1 0x1 PUSH1 0xA0 SHL SUB DUP3 AND ISZERO PUSH2 0x31EF JUMPI DUP2 DUP6 DUP6 PUSH2 0x31C9 DUP2 PUSH2 0x3D99 JUMP JUMPDEST SWAP7 POP PUSH1 0x4 DUP2 LT PUSH2 0x31DB JUMPI PUSH2 0x31DB PUSH2 0x3CF8 JUMP JUMPDEST PUSH1 0x1 PUSH1 0x1 PUSH1 0xA0 SHL SUB SWAP1 SWAP3 AND PUSH1 0x20 SWAP3 SWAP1 SWAP3 MUL ADD MSTORE JUMPDEST PUSH1 0x1 PUSH1 0x1 PUSH1 0xA0 SHL SUB DUP2 AND ISZERO PUSH2 0x3230 JUMPI DUP1 DUP6 DUP6 PUSH2 0x320A DUP2 PUSH2 0x3D99 JUMP JUMPDEST SWAP7 POP PUSH1 0x4 DUP2 LT PUSH2 0x321C JUMPI PUSH2 0x321C PUSH2 0x3CF8 JUMP JUMPDEST PUSH1 0x1 PUSH1 0x1 PUSH1 0xA0 SHL SUB SWAP1 SWAP3 AND PUSH1 0x20 SWAP3 SWAP1 SWAP3 MUL ADD MSTORE JUMPDEST PUSH1 0xD SLOAD PUSH1 0x1 PUSH1 0x1 PUSH1 0xA0 SHL SUB AND DUP6 DUP6 PUSH2 0x3247 DUP2 PUSH2 0x3D99 JUMP JUMPDEST SWAP7 POP PUSH1 0x4 DUP2 LT PUSH2 0x3259 JUMPI PUSH2 0x3259 PUSH2 0x3CF8 JUMP JUMPDEST PUSH1 0x1 PUSH1 0x1 PUSH1 0xA0 SHL SUB SWAP1 SWAP3 AND PUSH1 0x20 SWAP3 SWAP1 SWAP3 MUL ADD MSTORE PUSH1 0x0 PUSH2 0x3278 DUP6 DUP9 PUSH2 0x3CC5 JUMP JUMPDEST SWAP1 POP PUSH1 0x0 DUP1 JUMPDEST DUP7 DUP2 LT ISZERO PUSH2 0x332F JUMPI PUSH1 0x0 DUP9 DUP3 PUSH1 0x4 DUP2 LT PUSH2 0x329A JUMPI PUSH2 0x329A PUSH2 0x3CF8 JUMP JUMPDEST PUSH1 0x20 MUL ADD MLOAD PUSH1 0x1 PUSH1 0x1 PUSH1 0xA0 SHL SUB AND DUP5 PUSH1 0x40 MLOAD PUSH1 0x0 PUSH1 0x40 MLOAD DUP1 DUP4 SUB DUP2 DUP6 DUP8 GAS CALL SWAP3 POP POP POP RETURNDATASIZE DUP1 PUSH1 0x0 DUP2 EQ PUSH2 0x32E9 JUMPI PUSH1 0x40 MLOAD SWAP2 POP PUSH1 0x1F NOT PUSH1 0x3F RETURNDATASIZE ADD AND DUP3 ADD PUSH1 0x40 MSTORE RETURNDATASIZE DUP3 MSTORE RETURNDATASIZE PUSH1 0x0 PUSH1 0x20 DUP5 ADD RETURNDATACOPY PUSH2 0x32EE JUMP JUMPDEST PUSH1 0x60 SWAP2 POP JUMPDEST POP POP SWAP1 POP DUP1 PUSH2 0x330F JUMPI PUSH1 0x40 MLOAD PUSH3 0x461BCD PUSH1 0xE5 SHL DUP2 MSTORE PUSH1 0x4 ADD PUSH2 0xAA3 SWAP1 PUSH2 0x3C36 JUMP JUMPDEST PUSH2 0x3319 DUP5 DUP5 PUSH2 0x3BD2 JUMP JUMPDEST SWAP3 POP POP DUP1 DUP1 PUSH2 0x3327 SWAP1 PUSH2 0x3D99 JUMP JUMPDEST SWAP2 POP POP PUSH2 0x327E JUMP JUMPDEST POP PUSH1 0x0 PUSH2 0x333C DUP3 DUP11 PUSH2 0x3C6C JUMP JUMPDEST SWAP1 POP DUP1 ISZERO PUSH2 0x2E4F JUMPI PUSH1 0xD SLOAD PUSH1 0x40 MLOAD PUSH1 0x0 SWAP2 PUSH1 0x1 PUSH1 0x1 PUSH1 0xA0 SHL SUB AND SWAP1 DUP4 SWAP1 DUP4 DUP2 DUP2 DUP2 DUP6 DUP8 GAS CALL SWAP3 POP POP POP RETURNDATASIZE DUP1 PUSH1 0x0 DUP2 EQ PUSH2 0x3391 JUMPI PUSH1 0x40 MLOAD SWAP2 POP PUSH1 0x1F NOT PUSH1 0x3F RETURNDATASIZE ADD AND DUP3 ADD PUSH1 0x40 MSTORE RETURNDATASIZE DUP3 MSTORE RETURNDATASIZE PUSH1 0x0 PUSH1 0x20 DUP5 ADD RETURNDATACOPY PUSH2 0x3396 JUMP JUMPDEST PUSH1 0x60 SWAP2 POP JUMPDEST POP POP SWAP1 POP DUP1 PUSH2 0x30E4 JUMPI PUSH1 0x40 MLOAD PUSH3 0x461BCD PUSH1 0xE5 SHL DUP2 MSTORE PUSH1 0x20 PUSH1 0x4 DUP3 ADD MSTORE PUSH1 0x1 PUSH1 0x24 DUP3 ADD MSTORE PUSH1 0x39 PUSH1 0xF9 SHL PUSH1 0x44 DUP3 ADD MSTORE PUSH1 0x64 ADD PUSH2 0xAA3 JUMP JUMPDEST PUSH1 0x0 DUP1 PUSH1 0x0 PUSH2 0x33D8 PUSH2 0x35CE JUMP JUMPDEST SWAP1 POP PUSH1 0x5 DUP2 LT PUSH2 0x33EE JUMPI POP PUSH1 0x0 SWAP3 PUSH1 0x1 SWAP3 POP SWAP1 POP JUMP JUMPDEST DUP1 PUSH1 0x0 SUB PUSH2 0x3402 JUMPI POP PUSH1 0x2 SWAP3 PUSH1 0x1 SWAP3 POP SWAP1 POP JUMP JUMPDEST PUSH1 0x1 PUSH2 0x340E DUP2 DUP4 PUSH2 0x3C6C JUMP JUMPDEST PUSH2 0x3419 SWAP1 PUSH1 0x2 PUSH2 0x3E96 JUMP JUMPDEST SWAP3 POP SWAP3 POP POP SWAP1 SWAP2 JUMP JUMPDEST PUSH1 0x0 DUP1 PUSH1 0x0 DUP1 PUSH1 0x0 DUP1 PUSH1 0x0 JUMPDEST PUSH1 0x14 DUP2 PUSH1 0xFF AND LT ISZERO PUSH2 0x35C5 JUMPI PUSH1 0x0 JUMPDEST PUSH1 0x14 DUP2 PUSH1 0xFF AND LT ISZERO PUSH2 0x35B2 JUMPI PUSH1 0xFF DUP1 DUP4 AND PUSH1 0x0 SWAP1 DUP2 MSTORE PUSH1 0x9 PUSH1 0x20 SWAP1 DUP2 MSTORE PUSH1 0x40 DUP1 DUP4 KECCAK256 SWAP4 DUP6 AND DUP4 MSTORE SWAP3 SWAP1 MSTORE SWAP1 DUP2 KECCAK256 SLOAD SWAP1 DUP2 SWAP1 SUB PUSH2 0x3479 JUMPI POP PUSH2 0x35A0 JUMP JUMPDEST PUSH1 0x1 SLOAD PUSH1 0x40 MLOAD PUSH4 0x8A888953 PUSH1 0xE0 SHL DUP2 MSTORE PUSH1 0xFF DUP1 DUP7 AND PUSH1 0x4 DUP4 ADD MSTORE DUP5 AND PUSH1 0x24 DUP3 ADD MSTORE PUSH1 0x0 SWAP2 PUSH1 0x1 PUSH1 0x1 PUSH1 0xA0 SHL SUB AND SWAP1 PUSH4 0x8A888953 SWAP1 PUSH1 0x44 ADD PUSH1 0x20 PUSH1 0x40 MLOAD DUP1 DUP4 SUB DUP2 DUP7 GAS STATICCALL ISZERO DUP1 ISZERO PUSH2 0x34CD JUMPI RETURNDATASIZE PUSH1 0x0 DUP1 RETURNDATACOPY RETURNDATASIZE PUSH1 0x0 REVERT JUMPDEST POP POP POP POP PUSH1 0x40 MLOAD RETURNDATASIZE PUSH1 0x1F NOT PUSH1 0x1F DUP3 ADD AND DUP3 ADD DUP1 PUSH1 0x40 MSTORE POP DUP2 ADD SWAP1 PUSH2 0x34F1 SWAP2 SWAP1 PUSH2 0x3B31 JUMP JUMPDEST SWAP1 POP PUSH1 0x1 PUSH1 0x1 PUSH1 0xA0 SHL SUB DUP2 AND PUSH2 0x3508 JUMPI POP POP PUSH2 0x35A0 JUMP JUMPDEST DUP7 DUP3 GT ISZERO PUSH2 0x351F JUMPI SWAP9 SWAP8 SWAP7 POP SWAP5 SWAP4 SWAP3 POP DUP5 DUP9 PUSH2 0x359D JUMP JUMPDEST DUP6 DUP3 GT DUP1 ISZERO PUSH2 0x3540 JUMPI POP DUP10 PUSH1 0x1 PUSH1 0x1 PUSH1 0xA0 SHL SUB AND DUP2 PUSH1 0x1 PUSH1 0x1 PUSH1 0xA0 SHL SUB AND EQ ISZERO JUMPDEST ISZERO PUSH2 0x3552 JUMPI SWAP8 SWAP7 POP SWAP4 SWAP3 POP DUP4 DUP8 PUSH2 0x359D JUMP JUMPDEST DUP5 DUP3 GT DUP1 ISZERO PUSH2 0x3573 JUMPI POP DUP10 PUSH1 0x1 PUSH1 0x1 PUSH1 0xA0 SHL SUB AND DUP2 PUSH1 0x1 PUSH1 0x1 PUSH1 0xA0 SHL SUB AND EQ ISZERO JUMPDEST DUP1 ISZERO PUSH2 0x3591 JUMPI POP DUP9 PUSH1 0x1 PUSH1 0x1 PUSH1 0xA0 SHL SUB AND DUP2 PUSH1 0x1 PUSH1 0x1 PUSH1 0xA0 SHL SUB AND EQ ISZERO JUMPDEST ISZERO PUSH2 0x359D JUMPI DUP2 SWAP5 POP DUP1 SWAP8 POP JUMPDEST POP POP JUMPDEST DUP1 PUSH2 0x35AA DUP2 PUSH2 0x3CD9 JUMP JUMPDEST SWAP2 POP POP PUSH2 0x343D JUMP JUMPDEST POP DUP1 PUSH2 0x35BD DUP2 PUSH2 0x3CD9 JUMP JUMPDEST SWAP2 POP POP PUSH2 0x342E JUMP JUMPDEST POP POP POP POP SWAP1 SWAP2 SWAP3 JUMP JUMPDEST PUSH1 0x0 PUSH1 0x5 SLOAD PUSH1 0x0 EQ DUP1 PUSH2 0x35E2 JUMPI POP PUSH1 0x5 SLOAD TIMESTAMP LT JUMPDEST ISZERO PUSH2 0x35EE JUMPI POP PUSH1 0x0 NOT SWAP1 JUMP JUMPDEST PUSH4 0x1E13380 PUSH1 0x5 SLOAD TIMESTAMP PUSH2 0x3601 SWAP2 SWAP1 PUSH2 0x3C6C JUMP JUMPDEST PUSH2 0x360B SWAP2 SWAP1 PUSH2 0x3CC5 JUMP JUMPDEST SWAP1 POP SWAP1 JUMP JUMPDEST PUSH1 0x40 MLOAD DUP1 PUSH2 0x120 ADD PUSH1 0x40 MSTORE DUP1 PUSH1 0x9 SWAP1 JUMPDEST PUSH2 0x3628 PUSH2 0x365C JUMP JUMPDEST DUP2 MSTORE PUSH1 0x20 ADD SWAP1 PUSH1 0x1 SWAP1 SUB SWAP1 DUP2 PUSH2 0x3620 JUMPI SWAP1 POP POP SWAP1 JUMP JUMPDEST PUSH1 0x40 MLOAD DUP1 PUSH1 0x80 ADD PUSH1 0x40 MSTORE DUP1 PUSH1 0x4 SWAP1 PUSH1 0x20 DUP3 MUL DUP1 CALLDATASIZE DUP4 CALLDATACOPY POP SWAP2 SWAP3 SWAP2 POP POP JUMP JUMPDEST PUSH1 0x40 MLOAD DUP1 PUSH2 0x120 ADD PUSH1 0x40 MSTORE DUP1 PUSH1 0x9 SWAP1 PUSH1 0x20 DUP3 MUL DUP1 CALLDATASIZE DUP4 CALLDATACOPY POP SWAP2 SWAP3 SWAP2 POP POP JUMP JUMPDEST PUSH1 0xFF DUP2 AND DUP2 EQ PUSH2 0x368A JUMPI PUSH1 0x0 DUP1 REVERT JUMPDEST POP JUMP JUMPDEST PUSH1 0x0 DUP1 PUSH1 0x0 DUP1 PUSH1 0x80 DUP6 DUP8 SUB SLT ISZERO PUSH2 0x36A3 JUMPI PUSH1 0x0 DUP1 REVERT JUMPDEST DUP5 CALLDATALOAD PUSH2 0x36AE DUP2 PUSH2 0x367B JUMP JUMPDEST SWAP4 POP PUSH1 0x20 DUP6 ADD CALLDATALOAD PUSH2 0x36BE DUP2 PUSH2 0x367B JUMP JUMPDEST SWAP3 POP PUSH1 0x40 DUP6 ADD CALLDATALOAD PUSH2 0x36CE DUP2 PUSH2 0x367B JUMP JUMPDEST SWAP4 SWAP7 SWAP3 SWAP6 POP SWAP3 SWAP4 PUSH1 0x60 ADD CALLDATALOAD SWAP3 POP POP JUMP JUMPDEST PUSH1 0x1 PUSH1 0x1 PUSH1 0xA0 SHL SUB DUP2 AND DUP2 EQ PUSH2 0x368A JUMPI PUSH1 0x0 DUP1 REVERT JUMPDEST PUSH1 0x0 PUSH1 0x20 DUP3 DUP5 SUB SLT ISZERO PUSH2 0x3705 JUMPI PUSH1 0x0 DUP1 REVERT JUMPDEST DUP2 CALLDATALOAD PUSH2 0x3710 DUP2 PUSH2 0x36DE JUMP JUMPDEST SWAP4 SWAP3 POP POP POP JUMP JUMPDEST PUSH1 0x0 DUP1 PUSH1 0x0 DUP1 PUSH1 0x0 PUSH1 0xA0 DUP7 DUP9 SUB SLT ISZERO PUSH2 0x372F JUMPI PUSH1 0x0 DUP1 REVERT JUMPDEST DUP6 CALLDATALOAD PUSH2 0x373A DUP2 PUSH2 0x367B JUMP JUMPDEST SWAP5 POP PUSH1 0x20 DUP7 ADD CALLDATALOAD PUSH2 0x374A DUP2 PUSH2 0x367B JUMP JUMPDEST SWAP4 POP PUSH1 0x40 DUP7 ADD CALLDATALOAD PUSH2 0x375A DUP2 PUSH2 0x367B JUMP JUMPDEST SWAP3 POP PUSH1 0x60 DUP7 ADD CALLDATALOAD PUSH2 0x376A DUP2 PUSH2 0x367B JUMP JUMPDEST SWAP2 POP PUSH1 0x80 DUP7 ADD CALLDATALOAD PUSH2 0x377A DUP2 PUSH2 0x367B JUMP JUMPDEST DUP1 SWAP2 POP POP SWAP3 SWAP6 POP SWAP3 SWAP6 SWAP1 SWAP4 POP JUMP JUMPDEST PUSH1 0x0 DUP1 PUSH1 0x40 DUP4 DUP6 SUB SLT ISZERO PUSH2 0x379B JUMPI PUSH1 0x0 DUP1 REVERT JUMPDEST DUP3 CALLDATALOAD PUSH2 0x37A6 DUP2 PUSH2 0x367B JUMP JUMPDEST SWAP2 POP PUSH1 0x20 DUP4 ADD CALLDATALOAD PUSH2 0x37B6 DUP2 PUSH2 0x367B JUMP JUMPDEST DUP1 SWAP2 POP POP SWAP3 POP SWAP3 SWAP1 POP JUMP JUMPDEST PUSH1 0x0 DUP1 PUSH1 0x0 PUSH1 0x60 DUP5 DUP7 SUB SLT ISZERO PUSH2 0x37D6 JUMPI PUSH1 0x0 DUP1 REVERT JUMPDEST DUP4 CALLDATALOAD PUSH2 0x37E1 DUP2 PUSH2 0x367B JUMP JUMPDEST SWAP3 POP PUSH1 0x20 DUP5 ADD CALLDATALOAD PUSH2 0x37F1 DUP2 PUSH2 0x367B JUMP JUMPDEST SWAP2 POP PUSH1 0x40 DUP5 ADD CALLDATALOAD PUSH2 0x3801 DUP2 PUSH2 0x367B JUMP JUMPDEST DUP1 SWAP2 POP POP SWAP3 POP SWAP3 POP SWAP3 JUMP JUMPDEST DUP1 ISZERO ISZERO DUP2 EQ PUSH2 0x368A JUMPI PUSH1 0x0 DUP1 REVERT JUMPDEST PUSH1 0x0 DUP1 PUSH1 0x0 DUP1 PUSH1 0x0 PUSH1 0xA0 DUP7 DUP9 SUB SLT ISZERO PUSH2 0x3832 JUMPI PUSH1 0x0 DUP1 REVERT JUMPDEST DUP6 CALLDATALOAD PUSH2 0x383D DUP2 PUSH2 0x367B JUMP JUMPDEST SWAP5 POP PUSH1 0x20 DUP7 ADD CALLDATALOAD PUSH2 0x384D DUP2 PUSH2 0x367B JUMP JUMPDEST SWAP4 POP PUSH1 0x40 DUP7 ADD CALLDATALOAD PUSH2 0x385D DUP2 PUSH2 0x367B JUMP JUMPDEST SWAP3 POP PUSH1 0x60 DUP7 ADD CALLDATALOAD SWAP2 POP PUSH1 0x80 DUP7 ADD CALLDATALOAD PUSH2 0x377A DUP2 PUSH2 0x380C JUMP JUMPDEST PUSH1 0x0 DUP1 PUSH1 0x0 DUP1 PUSH1 0x80 DUP6 DUP8 SUB SLT ISZERO PUSH2 0x388A JUMPI PUSH1 0x0 DUP1 REVERT JUMPDEST DUP5 CALLDATALOAD PUSH2 0x3895 DUP2 PUSH2 0x367B JUMP JUMPDEST SWAP4 POP PUSH1 0x20 DUP6 ADD CALLDATALOAD PUSH2 0x38A5 DUP2 PUSH2 0x367B JUMP JUMPDEST SWAP3 POP PUSH1 0x40 DUP6 ADD CALLDATALOAD PUSH2 0x38B5 DUP2 PUSH2 0x367B JUMP JUMPDEST SWAP2 POP PUSH1 0x60 DUP6 ADD CALLDATALOAD PUSH2 0x38C5 DUP2 PUSH2 0x367B JUMP JUMPDEST SWAP4 SWAP7 SWAP3 SWAP6 POP SWAP1 SWAP4 POP POP JUMP JUMPDEST PUSH1 0x0 DUP1 PUSH1 0x0 PUSH1 0x60 DUP5 DUP7 SUB SLT ISZERO PUSH2 0x38E5 JUMPI PUSH1 0x0 DUP1 REVERT JUMPDEST DUP4 CALLDATALOAD PUSH2 0x38F0 DUP2 PUSH2 0x367B JUMP JUMPDEST SWAP3 POP PUSH1 0x20 DUP5 ADD CALLDATALOAD PUSH2 0x3900 DUP2 PUSH2 0x367B JUMP JUMPDEST SWAP2 POP PUSH1 0x40 DUP5 ADD CALLDATALOAD PUSH2 0x3801 DUP2 PUSH2 0x380C JUMP JUMPDEST PUSH1 0x0 PUSH2 0x220 DUP3 ADD SWAP1 POP DUP10 MLOAD DUP3 MSTORE PUSH1 0x20 DUP11 ADD MLOAD PUSH1 0x20 DUP4 ADD MSTORE PUSH1 0x40 DUP11 ADD MLOAD PUSH1 0x40 DUP4 ADD MSTORE PUSH1 0x60 DUP11 ADD MLOAD PUSH1 0x60 DUP4 ADD MSTORE PUSH2 0xFFFF DUP1 DUP11 AND PUSH1 0x80 DUP5 ADD MSTORE DUP9 PUSH1 0xA0 DUP5 ADD MSTORE DUP1 DUP9 AND PUSH1 0xC0 DUP5 ADD MSTORE POP DUP6 PUSH1 0xE0 DUP4 ADD MSTORE DUP5 MLOAD PUSH2 0x100 DUP4 ADD MSTORE PUSH1 0x20 DUP6 ADD MLOAD PUSH2 0x120 DUP4 ADD MSTORE PUSH1 0x40 DUP6 ADD MLOAD PUSH2 0x140 DUP4 ADD MSTORE PUSH1 0x60 DUP6 ADD MLOAD PUSH2 0x160 DUP4 ADD MSTORE PUSH1 0x80 DUP6 ADD MLOAD PUSH2 0x180 DUP4 ADD MSTORE PUSH1 0xA0 DUP6 ADD MLOAD PUSH2 0x1A0 DUP4 ADD MSTORE PUSH2 0x39B8 PUSH2 0x1C0 DUP4 ADD DUP6 DUP1 MLOAD PUSH1 0xFF SWAP1 DUP2 AND DUP4 MSTORE PUSH1 0x20 SWAP2 DUP3 ADD MLOAD AND SWAP2 ADD MSTORE JUMP JUMPDEST DUP3 PUSH2 0x200 DUP4 ADD MSTORE SWAP10 SWAP9 POP POP POP POP POP POP POP POP POP JUMP JUMPDEST PUSH1 0x0 PUSH2 0x1E0 DUP3 ADD SWAP1 POP DUP3 MLOAD DUP3 MSTORE PUSH1 0x20 DUP4 ADD MLOAD PUSH1 0x20 DUP4 ADD MSTORE PUSH1 0x40 DUP4 ADD MLOAD PUSH1 0x40 DUP4 ADD MSTORE PUSH1 0x60 DUP4 ADD MLOAD PUSH1 0x60 DUP4 ADD MSTORE PUSH1 0x80 DUP4 ADD MLOAD PUSH2 0x3A0C PUSH1 0x80 DUP5 ADD DUP3 PUSH2 0xFFFF AND SWAP1 MSTORE JUMP JUMPDEST POP PUSH1 0xA0 DUP4 DUP2 ADD MLOAD SWAP1 DUP4 ADD MSTORE PUSH1 0xC0 DUP1 DUP5 ADD MLOAD SWAP1 DUP4 ADD MSTORE PUSH1 0xE0 DUP1 DUP5 ADD MLOAD SWAP1 DUP4 ADD MSTORE PUSH2 0x100 DUP1 DUP5 ADD MLOAD SWAP1 DUP4 ADD MSTORE PUSH2 0x120 DUP1 DUP5 ADD MLOAD SWAP1 DUP4 ADD MSTORE PUSH2 0x140 DUP1 DUP5 ADD MLOAD SWAP1 DUP4 ADD MSTORE PUSH2 0x160 DUP1 DUP5 ADD MLOAD SWAP1 DUP4 ADD MSTORE PUSH2 0x180 DUP1 DUP5 ADD MLOAD PUSH1 0xFF DUP2 AND DUP3 DUP6 ADD MSTORE POP POP PUSH2 0x1A0 DUP4 DUP2 ADD MLOAD PUSH1 0xFF DUP2 AND DUP5 DUP4 ADD MSTORE POP POP PUSH2 0x1C0 SWAP3 DUP4 ADD MLOAD SWAP2 SWAP1 SWAP3 ADD MSTORE SWAP1 JUMP JUMPDEST PUSH2 0xA20 DUP2 ADD DUP2 DUP4 PUSH1 0x0 DUP1 JUMPDEST PUSH1 0x9 DUP1 DUP3 LT PUSH2 0x3AA2 JUMPI POP PUSH2 0x3AE3 JUMP JUMPDEST DUP4 MLOAD DUP6 DUP5 JUMPDEST DUP4 DUP2 LT ISZERO PUSH2 0x3AC8 JUMPI DUP3 MLOAD PUSH1 0xFF AND DUP3 MSTORE PUSH1 0x20 SWAP3 DUP4 ADD SWAP3 SWAP1 SWAP2 ADD SWAP1 PUSH1 0x1 ADD PUSH2 0x3AA7 JUMP JUMPDEST POP POP POP PUSH2 0x120 SWAP5 SWAP1 SWAP5 ADD SWAP4 POP PUSH1 0x20 SWAP3 SWAP1 SWAP3 ADD SWAP2 PUSH1 0x1 ADD PUSH2 0x3A93 JUMP JUMPDEST POP POP POP POP SWAP3 SWAP2 POP POP JUMP JUMPDEST PUSH1 0x0 PUSH1 0x20 DUP3 DUP5 SUB SLT ISZERO PUSH2 0x3AFF JUMPI PUSH1 0x0 DUP1 REVERT JUMPDEST DUP2 CALLDATALOAD PUSH2 0x3710 DUP2 PUSH2 0x367B JUMP JUMPDEST PUSH1 0x0 DUP1 PUSH1 0x0 PUSH1 0x60 DUP5 DUP7 SUB SLT ISZERO PUSH2 0x3B1F JUMPI PUSH1 0x0 DUP1 REVERT JUMPDEST DUP4 CALLDATALOAD PUSH2 0xFFFF DUP2 AND DUP2 EQ PUSH2 0x37E1 JUMPI PUSH1 0x0 DUP1 REVERT JUMPDEST PUSH1 0x0 PUSH1 0x20 DUP3 DUP5 SUB SLT ISZERO PUSH2 0x3B43 JUMPI PUSH1 0x0 DUP1 REVERT JUMPDEST DUP2 MLOAD PUSH2 0x3710 DUP2 PUSH2 0x36DE JUMP JUMPDEST PUSH1 0x20 DUP1 DUP3 MSTORE PUSH1 0x3 SWAP1 DUP3 ADD MSTORE PUSH3 0x37BBB7 PUSH1 0xE9 SHL PUSH1 0x40 DUP3 ADD MSTORE PUSH1 0x60 ADD SWAP1 JUMP JUMPDEST PUSH1 0x20 DUP1 DUP3 MSTORE PUSH1 0x1 SWAP1 DUP3 ADD MSTORE PUSH1 0x3D PUSH1 0xF9 SHL PUSH1 0x40 DUP3 ADD MSTORE PUSH1 0x60 ADD SWAP1 JUMP JUMPDEST PUSH1 0x20 DUP1 DUP3 MSTORE PUSH1 0x1 SWAP1 DUP3 ADD MSTORE PUSH1 0x1D PUSH1 0xFA SHL PUSH1 0x40 DUP3 ADD MSTORE PUSH1 0x60 ADD SWAP1 JUMP JUMPDEST PUSH1 0x20 DUP1 DUP3 MSTORE PUSH1 0x1 SWAP1 DUP3 ADD MSTORE PUSH1 0x61 PUSH1 0xF8 SHL PUSH1 0x40 DUP3 ADD MSTORE PUSH1 0x60 ADD SWAP1 JUMP JUMPDEST PUSH4 0x4E487B71 PUSH1 0xE0 SHL PUSH1 0x0 MSTORE PUSH1 0x11 PUSH1 0x4 MSTORE PUSH1 0x24 PUSH1 0x0 REVERT JUMPDEST DUP1 DUP3 ADD DUP1 DUP3 GT ISZERO PUSH2 0x106A JUMPI PUSH2 0x106A PUSH2 0x3BBC JUMP JUMPDEST PUSH1 0x20 DUP1 DUP3 MSTORE PUSH1 0x1 SWAP1 DUP3 ADD MSTORE PUSH1 0x63 PUSH1 0xF8 SHL PUSH1 0x40 DUP3 ADD MSTORE PUSH1 0x60 ADD SWAP1 JUMP JUMPDEST PUSH1 0x20 DUP1 DUP3 MSTORE PUSH1 0x1 SWAP1 DUP3 ADD MSTORE PUSH1 0x33 PUSH1 0xF9 SHL PUSH1 0x40 DUP3 ADD MSTORE PUSH1 0x60 ADD SWAP1 JUMP JUMPDEST PUSH1 0x20 DUP1 DUP3 MSTORE PUSH1 0x1 SWAP1 DUP3 ADD MSTORE PUSH1 0x77 PUSH1 0xF8 SHL PUSH1 0x40 DUP3 ADD MSTORE PUSH1 0x60 ADD SWAP1 JUMP JUMPDEST PUSH1 0x20 DUP1 DUP3 MSTORE PUSH1 0x1 SWAP1 DUP3 ADD MSTORE PUSH1 0x73 PUSH1 0xF8 SHL PUSH1 0x40 DUP3 ADD MSTORE PUSH1 0x60 ADD SWAP1 JUMP JUMPDEST PUSH1 0x20 DUP1 DUP3 MSTORE PUSH1 0x1 SWAP1 DUP3 ADD MSTORE PUSH1 0x69 PUSH1 0xF8 SHL PUSH1 0x40 DUP3 ADD MSTORE PUSH1 0x60 ADD SWAP1 JUMP JUMPDEST DUP2 DUP2 SUB DUP2 DUP2 GT ISZERO PUSH2 0x106A JUMPI PUSH2 0x106A PUSH2 0x3BBC JUMP JUMPDEST PUSH1 0xFF DUP2 DUP2 AND DUP4 DUP3 AND ADD SWAP1 DUP2 GT ISZERO PUSH2 0x106A JUMPI PUSH2 0x106A PUSH2 0x3BBC JUMP JUMPDEST DUP1 DUP3 MUL DUP2 ISZERO DUP3 DUP3 DIV DUP5 EQ OR PUSH2 0x106A JUMPI PUSH2 0x106A PUSH2 0x3BBC JUMP JUMPDEST PUSH4 0x4E487B71 PUSH1 0xE0 SHL PUSH1 0x0 MSTORE PUSH1 0x12 PUSH1 0x4 MSTORE PUSH1 0x24 PUSH1 0x0 REVERT JUMPDEST PUSH1 0x0 DUP3 PUSH2 0x3CD4 JUMPI PUSH2 0x3CD4 PUSH2 0x3CAF JUMP JUMPDEST POP DIV SWAP1 JUMP JUMPDEST PUSH1 0x0 PUSH1 0xFF DUP3 AND PUSH1 0xFF DUP2 SUB PUSH2 0x3CEF JUMPI PUSH2 0x3CEF PUSH2 0x3BBC JUMP JUMPDEST PUSH1 0x1 ADD SWAP3 SWAP2 POP POP JUMP JUMPDEST PUSH4 0x4E487B71 PUSH1 0xE0 SHL PUSH1 0x0 MSTORE PUSH1 0x32 PUSH1 0x4 MSTORE PUSH1 0x24 PUSH1 0x0 REVERT JUMPDEST PUSH2 0xFFFF DUP3 DUP2 AND DUP3 DUP3 AND SUB SWAP1 DUP1 DUP3 GT ISZERO PUSH2 0x3D29 JUMPI PUSH2 0x3D29 PUSH2 0x3BBC JUMP JUMPDEST POP SWAP3 SWAP2 POP POP JUMP JUMPDEST PUSH1 0x0 PUSH1 0x20 DUP3 DUP5 SUB SLT ISZERO PUSH2 0x3D42 JUMPI PUSH1 0x0 DUP1 REVERT JUMPDEST DUP2 MLOAD PUSH2 0x3710 DUP2 PUSH2 0x367B JUMP JUMPDEST PUSH1 0x0 DUP3 PUSH2 0x3D5C JUMPI PUSH2 0x3D5C PUSH2 0x3CAF JUMP JUMPDEST POP MOD SWAP1 JUMP JUMPDEST PUSH2 0xFFFF DUP2 DUP2 AND DUP4 DUP3 AND ADD SWAP1 DUP1 DUP3 GT ISZERO PUSH2 0x3D29 JUMPI PUSH2 0x3D29 PUSH2 0x3BBC JUMP JUMPDEST PUSH1 0x0 PUSH1 0x20 DUP3 DUP5 SUB SLT ISZERO PUSH2 0x3D8E JUMPI PUSH1 0x0 DUP1 REVERT JUMPDEST DUP2 MLOAD PUSH2 0x3710 DUP2 PUSH2 0x380C JUMP JUMPDEST PUSH1 0x0 PUSH1 0x1 DUP3 ADD PUSH2 0x3DAB JUMPI PUSH2 0x3DAB PUSH2 0x3BBC JUMP JUMPDEST POP PUSH1 0x1 ADD SWAP1 JUMP JUMPDEST PUSH1 0x1 DUP2 DUP2 JUMPDEST DUP1 DUP6 GT ISZERO PUSH2 0x3DED JUMPI DUP2 PUSH1 0x0 NOT DIV DUP3 GT ISZERO PUSH2 0x3DD3 JUMPI PUSH2 0x3DD3 PUSH2 0x3BBC JUMP JUMPDEST DUP1 DUP6 AND ISZERO PUSH2 0x3DE0 JUMPI SWAP2 DUP2 MUL SWAP2 JUMPDEST SWAP4 DUP5 SHR SWAP4 SWAP1 DUP1 MUL SWAP1 PUSH2 0x3DB7 JUMP JUMPDEST POP SWAP3 POP SWAP3 SWAP1 POP JUMP JUMPDEST PUSH1 0x0 DUP3 PUSH2 0x3E04 JUMPI POP PUSH1 0x1 PUSH2 0x106A JUMP JUMPDEST DUP2 PUSH2 0x3E11 JUMPI POP PUSH1 0x0 PUSH2 0x106A JUMP JUMPDEST DUP2 PUSH1 0x1 DUP2 EQ PUSH2 0x3E27 JUMPI PUSH1 0x2 DUP2 EQ PUSH2 0x3E31 JUMPI PUSH2 0x3E4D JUMP JUMPDEST PUSH1 0x1 SWAP2 POP POP PUSH2 0x106A JUMP JUMPDEST PUSH1 0xFF DUP5 GT ISZERO PUSH2 0x3E42 JUMPI PUSH2 0x3E42 PUSH2 0x3BBC JUMP JUMPDEST POP POP PUSH1 0x1 DUP3 SHL PUSH2 0x106A JUMP JUMPDEST POP PUSH1 0x20 DUP4 LT PUSH2 0x133 DUP4 LT AND PUSH1 0x4E DUP5 LT PUSH1 0xB DUP5 LT AND OR ISZERO PUSH2 0x3E70 JUMPI POP DUP2 DUP2 EXP PUSH2 0x106A JUMP JUMPDEST PUSH2 0x3E7A DUP4 DUP4 PUSH2 0x3DB2 JUMP JUMPDEST DUP1 PUSH1 0x0 NOT DIV DUP3 GT ISZERO PUSH2 0x3E8E JUMPI PUSH2 0x3E8E PUSH2 0x3BBC JUMP JUMPDEST MUL SWAP4 SWAP3 POP POP POP JUMP JUMPDEST PUSH1 0x0 PUSH2 0x1067 DUP4 DUP4 PUSH2 0x3DF5 JUMP INVALID LOG2 PUSH5 0x6970667358 0x22 SLT KECCAK256 0x5F RETURNDATASIZE 0xA8 0xD7 DUP16 SIGNEXTEND JUMPI SWAP13 0xDB 0xBD 0xB0 PUSH15 0x44F3527936F18CEC8F817311000F82 0xAC CALLDATALOAD 0x29 SWAP1 SWAP16 PUSH5 0x736F6C6343 STOP ADDMOD SLT STOP CALLER "
		},
		"gasEstimates": {
			"creation": {
				"codeDepositCost": "3217600",
				"executionCost": "infinite",
				"totalCost": "infinite"
			},
			"external": {
				"_clan()": "2481",
				"adjustTileResources(uint8,uint8,uint8,uint256,bool)": "infinite",
				"baseDefensiveArmorCost()": "8763",
				"baseDefensiveSoldierCost()": "8805",
				"baseDefensiveWeaponCost()": "8763",
				"baseOffensiveArmorCost()": "8740",
				"baseOffensiveSoldierCost()": "8762",
				"baseOffensiveWeaponCost()": "8719",
				"buildingCosts(uint8)": "8948",
				"calcTurn(uint8,uint8)": "infinite",
				"createSoldier(uint8,uint8,uint8,uint256)": "infinite",
				"demolishBuilding(uint8,uint8,uint8,uint8)": "infinite",
				"extraFeeRecipient()": "2437",
				"getAllBuildings(uint8,uint8)": "infinite",
				"getTileData(uint8,uint8)": "infinite",
				"getTotalTurnsUsedByTile(uint8,uint8)": "infinite",
				"getTowerCount(uint8,uint8)": "infinite",
				"getTurn(uint8,uint8)": "infinite",
				"hasClanHall(address)": "2569",
				"hasMarket(address)": "2659",
				"interiorMapSize()": "337",
				"interiorMaps(uint8,uint8,uint8,uint8)": "infinite",
				"lopToken()": "2395",
				"marketplaceAddress()": "2415",
				"owner()": "2438",
				"placeBuilding(uint8,uint8,uint8,uint8,uint8)": "infinite",
				"pointsByCoords(uint8,uint8)": "infinite",
				"produceArmor(uint8,uint8,uint8,uint256)": "infinite",
				"produceWeapon(uint8,uint8,uint8,uint256)": "infinite",
				"recalculatePointsAfterAttack(uint8,uint8)": "infinite",
				"resourceMessage(uint8,uint8)": "infinite",
				"rewardUnit()": "2341",
				"rewardsStart()": "2384",
				"setClanAddress(address)": "26817",
				"setExtraFeeReceiver(address)": "26796",
				"setMarketAddress(address)": "26859",
				"setResourceMessageFlag(uint8,uint8,bool)": "infinite",
				"tileMapPhaser()": "2394",
				"tiles(uint8,uint8)": "infinite",
				"totalTurnsUsedByTile(uint8,uint8)": "infinite",
				"turnFeeWei()": "2430",
				"turnsPerLevel()": "328",
				"upgradeTech(uint8,uint8,uint8)": "infinite",
				"useTurns(uint16,uint8,uint8)": "infinite"
			},
			"internal": {
				"_currentYearIndex()": "6516",
				"_distributeNativeFee(uint256)": "infinite",
				"_initializeBuildingCosts()": "infinite",
				"_recalculatePoints(struct TheLand.TileData storage pointer,uint8,uint8)": "infinite",
				"_rewardMultiplier()": "infinite",
				"_setResourceMessageFlag(uint8,uint8,bool)": "infinite",
				"_top3Owners()": "infinite",
				"applyProductionCost(uint8,uint8,struct TheLand.Resources memory,uint256,uint256)": "infinite",
				"countBuildings(uint8,uint8,uint8)": "infinite"
			}
		},
		"methodIdentifiers": {
			"_clan()": "7cca26d9",
			"adjustTileResources(uint8,uint8,uint8,uint256,bool)": "3e5f2857",
			"baseDefensiveArmorCost()": "8c87fa4f",
			"baseDefensiveSoldierCost()": "f9c64454",
			"baseDefensiveWeaponCost()": "537e8f49",
			"baseOffensiveArmorCost()": "620a9a99",
			"baseOffensiveSoldierCost()": "a596b645",
			"baseOffensiveWeaponCost()": "800bfa27",
			"buildingCosts(uint8)": "c1712d57",
			"calcTurn(uint8,uint8)": "dd4b466b",
			"createSoldier(uint8,uint8,uint8,uint256)": "f89d7571",
			"demolishBuilding(uint8,uint8,uint8,uint8)": "60b76b52",
			"extraFeeRecipient()": "7502bad4",
			"getAllBuildings(uint8,uint8)": "be9a263c",
			"getTileData(uint8,uint8)": "bd638378",
			"getTotalTurnsUsedByTile(uint8,uint8)": "41ede44f",
			"getTowerCount(uint8,uint8)": "2a490ae8",
			"getTurn(uint8,uint8)": "f3245254",
			"hasClanHall(address)": "e3198e08",
			"hasMarket(address)": "5e75968e",
			"interiorMapSize()": "decc1bbf",
			"interiorMaps(uint8,uint8,uint8,uint8)": "a2f9cc5b",
			"lopToken()": "0d67f59e",
			"marketplaceAddress()": "daa17f49",
			"owner()": "8da5cb5b",
			"placeBuilding(uint8,uint8,uint8,uint8,uint8)": "0ee22f31",
			"pointsByCoords(uint8,uint8)": "2ef78865",
			"produceArmor(uint8,uint8,uint8,uint256)": "07722bc2",
			"produceWeapon(uint8,uint8,uint8,uint256)": "4274b164",
			"recalculatePointsAfterAttack(uint8,uint8)": "7659bc60",
			"resourceMessage(uint8,uint8)": "ccd5e491",
			"rewardUnit()": "428967da",
			"rewardsStart()": "65af3a2f",
			"setClanAddress(address)": "5d219d5f",
			"setExtraFeeReceiver(address)": "0df7b41a",
			"setMarketAddress(address)": "fae92612",
			"setResourceMessageFlag(uint8,uint8,bool)": "9a4a2084",
			"tileMapPhaser()": "4f264b03",
			"tiles(uint8,uint8)": "9b562df2",
			"totalTurnsUsedByTile(uint8,uint8)": "887aca72",
			"turnFeeWei()": "21b74ea7",
			"turnsPerLevel()": "bdc7da8e",
			"upgradeTech(uint8,uint8,uint8)": "351662e4",
			"useTurns(uint16,uint8,uint8)": "e9dd6583"
		}
	},
	"abi": [
		{
			"inputs": [
				{
					"internalType": "address",
					"name": "_tileMapPhaser",
					"type": "address"
				},
				{
					"internalType": "address",
					"name": "_lopToken",
					"type": "address"
				}
			],
			"stateMutability": "nonpayable",
			"type": "constructor"
		},
		{
			"anonymous": false,
			"inputs": [
				{
					"indexed": true,
					"internalType": "address",
					"name": "user",
					"type": "address"
				},
				{
					"indexed": false,
					"internalType": "uint256",
					"name": "turnsUsed",
					"type": "uint256"
				},
				{
					"indexed": false,
					"internalType": "uint8",
					"name": "x",
					"type": "uint8"
				},
				{
					"indexed": false,
					"internalType": "uint8",
					"name": "y",
					"type": "uint8"
				}
			],
			"name": "TurnsUsed",
			"type": "event"
		},
		{
			"inputs": [],
			"name": "_clan",
			"outputs": [
				{
					"internalType": "contract IClan",
					"name": "",
					"type": "address"
				}
			],
			"stateMutability": "view",
			"type": "function"
		},
		{
			"inputs": [
				{
					"internalType": "uint8",
					"name": "x",
					"type": "uint8"
				},
				{
					"internalType": "uint8",
					"name": "y",
					"type": "uint8"
				},
				{
					"internalType": "uint8",
					"name": "resourceType",
					"type": "uint8"
				},
				{
					"internalType": "uint256",
					"name": "amount",
					"type": "uint256"
				},
				{
					"internalType": "bool",
					"name": "isAdding",
					"type": "bool"
				}
			],
			"name": "adjustTileResources",
			"outputs": [],
			"stateMutability": "nonpayable",
			"type": "function"
		},
		{
			"inputs": [],
			"name": "baseDefensiveArmorCost",
			"outputs": [
				{
					"internalType": "uint256",
					"name": "food",
					"type": "uint256"
				},
				{
					"internalType": "uint256",
					"name": "wood",
					"type": "uint256"
				},
				{
					"internalType": "uint256",
					"name": "stone",
					"type": "uint256"
				},
				{
					"internalType": "uint256",
					"name": "iron",
					"type": "uint256"
				}
			],
			"stateMutability": "view",
			"type": "function"
		},
		{
			"inputs": [],
			"name": "baseDefensiveSoldierCost",
			"outputs": [
				{
					"internalType": "uint256",
					"name": "food",
					"type": "uint256"
				},
				{
					"internalType": "uint256",
					"name": "wood",
					"type": "uint256"
				},
				{
					"internalType": "uint256",
					"name": "stone",
					"type": "uint256"
				},
				{
					"internalType": "uint256",
					"name": "iron",
					"type": "uint256"
				}
			],
			"stateMutability": "view",
			"type": "function"
		},
		{
			"inputs": [],
			"name": "baseDefensiveWeaponCost",
			"outputs": [
				{
					"internalType": "uint256",
					"name": "food",
					"type": "uint256"
				},
				{
					"internalType": "uint256",
					"name": "wood",
					"type": "uint256"
				},
				{
					"internalType": "uint256",
					"name": "stone",
					"type": "uint256"
				},
				{
					"internalType": "uint256",
					"name": "iron",
					"type": "uint256"
				}
			],
			"stateMutability": "view",
			"type": "function"
		},
		{
			"inputs": [],
			"name": "baseOffensiveArmorCost",
			"outputs": [
				{
					"internalType": "uint256",
					"name": "food",
					"type": "uint256"
				},
				{
					"internalType": "uint256",
					"name": "wood",
					"type": "uint256"
				},
				{
					"internalType": "uint256",
					"name": "stone",
					"type": "uint256"
				},
				{
					"internalType": "uint256",
					"name": "iron",
					"type": "uint256"
				}
			],
			"stateMutability": "view",
			"type": "function"
		},
		{
			"inputs": [],
			"name": "baseOffensiveSoldierCost",
			"outputs": [
				{
					"internalType": "uint256",
					"name": "food",
					"type": "uint256"
				},
				{
					"internalType": "uint256",
					"name": "wood",
					"type": "uint256"
				},
				{
					"internalType": "uint256",
					"name": "stone",
					"type": "uint256"
				},
				{
					"internalType": "uint256",
					"name": "iron",
					"type": "uint256"
				}
			],
			"stateMutability": "view",
			"type": "function"
		},
		{
			"inputs": [],
			"name": "baseOffensiveWeaponCost",
			"outputs": [
				{
					"internalType": "uint256",
					"name": "food",
					"type": "uint256"
				},
				{
					"internalType": "uint256",
					"name": "wood",
					"type": "uint256"
				},
				{
					"internalType": "uint256",
					"name": "stone",
					"type": "uint256"
				},
				{
					"internalType": "uint256",
					"name": "iron",
					"type": "uint256"
				}
			],
			"stateMutability": "view",
			"type": "function"
		},
		{
			"inputs": [
				{
					"internalType": "uint8",
					"name": "",
					"type": "uint8"
				}
			],
			"name": "buildingCosts",
			"outputs": [
				{
					"internalType": "uint256",
					"name": "food",
					"type": "uint256"
				},
				{
					"internalType": "uint256",
					"name": "wood",
					"type": "uint256"
				},
				{
					"internalType": "uint256",
					"name": "stone",
					"type": "uint256"
				},
				{
					"internalType": "uint256",
					"name": "iron",
					"type": "uint256"
				}
			],
			"stateMutability": "view",
			"type": "function"
		},
		{
			"inputs": [
				{
					"internalType": "uint8",
					"name": "mainX",
					"type": "uint8"
				},
				{
					"internalType": "uint8",
					"name": "mainY",
					"type": "uint8"
				}
			],
			"name": "calcTurn",
			"outputs": [],
			"stateMutability": "nonpayable",
			"type": "function"
		},
		{
			"inputs": [
				{
					"internalType": "uint8",
					"name": "mainX",
					"type": "uint8"
				},
				{
					"internalType": "uint8",
					"name": "mainY",
					"type": "uint8"
				},
				{
					"internalType": "uint8",
					"name": "soldierType",
					"type": "uint8"
				},
				{
					"internalType": "uint256",
					"name": "quantity",
					"type": "uint256"
				}
			],
			"name": "createSoldier",
			"outputs": [],
			"stateMutability": "nonpayable",
			"type": "function"
		},
		{
			"inputs": [
				{
					"internalType": "uint8",
					"name": "mainX",
					"type": "uint8"
				},
				{
					"internalType": "uint8",
					"name": "mainY",
					"type": "uint8"
				},
				{
					"internalType": "uint8",
					"name": "interiorX",
					"type": "uint8"
				},
				{
					"internalType": "uint8",
					"name": "interiorY",
					"type": "uint8"
				}
			],
			"name": "demolishBuilding",
			"outputs": [],
			"stateMutability": "nonpayable",
			"type": "function"
		},
		{
			"inputs": [],
			"name": "extraFeeRecipient",
			"outputs": [
				{
					"internalType": "address",
					"name": "",
					"type": "address"
				}
			],
			"stateMutability": "view",
			"type": "function"
		},
		{
			"inputs": [
				{
					"internalType": "uint8",
					"name": "mainX",
					"type": "uint8"
				},
				{
					"internalType": "uint8",
					"name": "mainY",
					"type": "uint8"
				}
			],
			"name": "getAllBuildings",
			"outputs": [
				{
					"internalType": "uint8[9][9]",
					"name": "",
					"type": "uint8[9][9]"
				}
			],
			"stateMutability": "view",
			"type": "function"
		},
		{
			"inputs": [
				{
					"internalType": "uint8",
					"name": "x",
					"type": "uint8"
				},
				{
					"internalType": "uint8",
					"name": "y",
					"type": "uint8"
				}
			],
			"name": "getTileData",
			"outputs": [
				{
					"components": [
						{
							"internalType": "uint256",
							"name": "food",
							"type": "uint256"
						},
						{
							"internalType": "uint256",
							"name": "wood",
							"type": "uint256"
						},
						{
							"internalType": "uint256",
							"name": "stone",
							"type": "uint256"
						},
						{
							"internalType": "uint256",
							"name": "iron",
							"type": "uint256"
						},
						{
							"internalType": "uint16",
							"name": "level",
							"type": "uint16"
						},
						{
							"internalType": "uint256",
							"name": "accumulatedTurns",
							"type": "uint256"
						},
						{
							"internalType": "uint256",
							"name": "offensiveArmor",
							"type": "uint256"
						},
						{
							"internalType": "uint256",
							"name": "defensiveArmor",
							"type": "uint256"
						},
						{
							"internalType": "uint256",
							"name": "offensiveWeapon",
							"type": "uint256"
						},
						{
							"internalType": "uint256",
							"name": "defensiveWeapon",
							"type": "uint256"
						},
						{
							"internalType": "uint256",
							"name": "offensiveSoldier",
							"type": "uint256"
						},
						{
							"internalType": "uint256",
							"name": "defensiveSoldier",
							"type": "uint256"
						},
						{
							"internalType": "uint8",
							"name": "offensiveTech",
							"type": "uint8"
						},
						{
							"internalType": "uint8",
							"name": "defensiveTech",
							"type": "uint8"
						},
						{
							"internalType": "uint256",
							"name": "points",
							"type": "uint256"
						}
					],
					"internalType": "struct TheLand.TileDataResponse",
					"name": "",
					"type": "tuple"
				}
			],
			"stateMutability": "view",
			"type": "function"
		},
		{
			"inputs": [
				{
					"internalType": "uint8",
					"name": "x",
					"type": "uint8"
				},
				{
					"internalType": "uint8",
					"name": "y",
					"type": "uint8"
				}
			],
			"name": "getTotalTurnsUsedByTile",
			"outputs": [
				{
					"internalType": "uint256",
					"name": "",
					"type": "uint256"
				}
			],
			"stateMutability": "view",
			"type": "function"
		},
		{
			"inputs": [
				{
					"internalType": "uint8",
					"name": "mainX",
					"type": "uint8"
				},
				{
					"internalType": "uint8",
					"name": "mainY",
					"type": "uint8"
				}
			],
			"name": "getTowerCount",
			"outputs": [
				{
					"internalType": "uint256",
					"name": "",
					"type": "uint256"
				}
			],
			"stateMutability": "view",
			"type": "function"
		},
		{
			"inputs": [
				{
					"internalType": "uint8",
					"name": "mainX",
					"type": "uint8"
				},
				{
					"internalType": "uint8",
					"name": "mainY",
					"type": "uint8"
				}
			],
			"name": "getTurn",
			"outputs": [
				{
					"internalType": "uint256",
					"name": "",
					"type": "uint256"
				}
			],
			"stateMutability": "view",
			"type": "function"
		},
		{
			"inputs": [
				{
					"internalType": "address",
					"name": "",
					"type": "address"
				}
			],
			"name": "hasClanHall",
			"outputs": [
				{
					"internalType": "bool",
					"name": "",
					"type": "bool"
				}
			],
			"stateMutability": "view",
			"type": "function"
		},
		{
			"inputs": [
				{
					"internalType": "address",
					"name": "",
					"type": "address"
				}
			],
			"name": "hasMarket",
			"outputs": [
				{
					"internalType": "bool",
					"name": "",
					"type": "bool"
				}
			],
			"stateMutability": "view",
			"type": "function"
		},
		{
			"inputs": [],
			"name": "interiorMapSize",
			"outputs": [
				{
					"internalType": "uint8",
					"name": "",
					"type": "uint8"
				}
			],
			"stateMutability": "view",
			"type": "function"
		},
		{
			"inputs": [
				{
					"internalType": "uint8",
					"name": "",
					"type": "uint8"
				},
				{
					"internalType": "uint8",
					"name": "",
					"type": "uint8"
				},
				{
					"internalType": "uint8",
					"name": "",
					"type": "uint8"
				},
				{
					"internalType": "uint8",
					"name": "",
					"type": "uint8"
				}
			],
			"name": "interiorMaps",
			"outputs": [
				{
					"internalType": "uint8",
					"name": "",
					"type": "uint8"
				}
			],
			"stateMutability": "view",
			"type": "function"
		},
		{
			"inputs": [],
			"name": "lopToken",
			"outputs": [
				{
					"internalType": "contract IHarmLop",
					"name": "",
					"type": "address"
				}
			],
			"stateMutability": "view",
			"type": "function"
		},
		{
			"inputs": [],
			"name": "marketplaceAddress",
			"outputs": [
				{
					"internalType": "address",
					"name": "",
					"type": "address"
				}
			],
			"stateMutability": "view",
			"type": "function"
		},
		{
			"inputs": [],
			"name": "owner",
			"outputs": [
				{
					"internalType": "address",
					"name": "",
					"type": "address"
				}
			],
			"stateMutability": "view",
			"type": "function"
		},
		{
			"inputs": [
				{
					"internalType": "uint8",
					"name": "mainX",
					"type": "uint8"
				},
				{
					"internalType": "uint8",
					"name": "mainY",
					"type": "uint8"
				},
				{
					"internalType": "uint8",
					"name": "interiorX",
					"type": "uint8"
				},
				{
					"internalType": "uint8",
					"name": "interiorY",
					"type": "uint8"
				},
				{
					"internalType": "uint8",
					"name": "buildingType",
					"type": "uint8"
				}
			],
			"name": "placeBuilding",
			"outputs": [],
			"stateMutability": "nonpayable",
			"type": "function"
		},
		{
			"inputs": [
				{
					"internalType": "uint8",
					"name": "",
					"type": "uint8"
				},
				{
					"internalType": "uint8",
					"name": "",
					"type": "uint8"
				}
			],
			"name": "pointsByCoords",
			"outputs": [
				{
					"internalType": "uint256",
					"name": "",
					"type": "uint256"
				}
			],
			"stateMutability": "view",
			"type": "function"
		},
		{
			"inputs": [
				{
					"internalType": "uint8",
					"name": "mainX",
					"type": "uint8"
				},
				{
					"internalType": "uint8",
					"name": "mainY",
					"type": "uint8"
				},
				{
					"internalType": "uint8",
					"name": "armorType",
					"type": "uint8"
				},
				{
					"internalType": "uint256",
					"name": "quantity",
					"type": "uint256"
				}
			],
			"name": "produceArmor",
			"outputs": [],
			"stateMutability": "nonpayable",
			"type": "function"
		},
		{
			"inputs": [
				{
					"internalType": "uint8",
					"name": "mainX",
					"type": "uint8"
				},
				{
					"internalType": "uint8",
					"name": "mainY",
					"type": "uint8"
				},
				{
					"internalType": "uint8",
					"name": "weaponType",
					"type": "uint8"
				},
				{
					"internalType": "uint256",
					"name": "quantity",
					"type": "uint256"
				}
			],
			"name": "produceWeapon",
			"outputs": [],
			"stateMutability": "nonpayable",
			"type": "function"
		},
		{
			"inputs": [
				{
					"internalType": "uint8",
					"name": "x",
					"type": "uint8"
				},
				{
					"internalType": "uint8",
					"name": "y",
					"type": "uint8"
				}
			],
			"name": "recalculatePointsAfterAttack",
			"outputs": [],
			"stateMutability": "nonpayable",
			"type": "function"
		},
		{
			"inputs": [
				{
					"internalType": "uint8",
					"name": "",
					"type": "uint8"
				},
				{
					"internalType": "uint8",
					"name": "",
					"type": "uint8"
				}
			],
			"name": "resourceMessage",
			"outputs": [
				{
					"internalType": "bool",
					"name": "",
					"type": "bool"
				}
			],
			"stateMutability": "view",
			"type": "function"
		},
		{
			"inputs": [],
			"name": "rewardUnit",
			"outputs": [
				{
					"internalType": "uint256",
					"name": "",
					"type": "uint256"
				}
			],
			"stateMutability": "view",
			"type": "function"
		},
		{
			"inputs": [],
			"name": "rewardsStart",
			"outputs": [
				{
					"internalType": "uint256",
					"name": "",
					"type": "uint256"
				}
			],
			"stateMutability": "view",
			"type": "function"
		},
		{
			"inputs": [
				{
					"internalType": "address",
					"name": "_clanAddress",
					"type": "address"
				}
			],
			"name": "setClanAddress",
			"outputs": [],
			"stateMutability": "nonpayable",
			"type": "function"
		},
		{
			"inputs": [
				{
					"internalType": "address",
					"name": "_address",
					"type": "address"
				}
			],
			"name": "setExtraFeeReceiver",
			"outputs": [],
			"stateMutability": "nonpayable",
			"type": "function"
		},
		{
			"inputs": [
				{
					"internalType": "address",
					"name": "_market",
					"type": "address"
				}
			],
			"name": "setMarketAddress",
			"outputs": [],
			"stateMutability": "nonpayable",
			"type": "function"
		},
		{
			"inputs": [
				{
					"internalType": "uint8",
					"name": "x",
					"type": "uint8"
				},
				{
					"internalType": "uint8",
					"name": "y",
					"type": "uint8"
				},
				{
					"internalType": "bool",
					"name": "value",
					"type": "bool"
				}
			],
			"name": "setResourceMessageFlag",
			"outputs": [],
			"stateMutability": "nonpayable",
			"type": "function"
		},
		{
			"inputs": [],
			"name": "tileMapPhaser",
			"outputs": [
				{
					"internalType": "contract ITileMapPhaser",
					"name": "",
					"type": "address"
				}
			],
			"stateMutability": "view",
			"type": "function"
		},
		{
			"inputs": [
				{
					"internalType": "uint8",
					"name": "",
					"type": "uint8"
				},
				{
					"internalType": "uint8",
					"name": "",
					"type": "uint8"
				}
			],
			"name": "tiles",
			"outputs": [
				{
					"components": [
						{
							"internalType": "uint256",
							"name": "food",
							"type": "uint256"
						},
						{
							"internalType": "uint256",
							"name": "wood",
							"type": "uint256"
						},
						{
							"internalType": "uint256",
							"name": "stone",
							"type": "uint256"
						},
						{
							"internalType": "uint256",
							"name": "iron",
							"type": "uint256"
						}
					],
					"internalType": "struct TheLand.Resources",
					"name": "resources",
					"type": "tuple"
				},
				{
					"internalType": "uint16",
					"name": "level",
					"type": "uint16"
				},
				{
					"internalType": "uint256",
					"name": "accumulatedTurns",
					"type": "uint256"
				},
				{
					"internalType": "uint16",
					"name": "turns",
					"type": "uint16"
				},
				{
					"internalType": "uint256",
					"name": "start",
					"type": "uint256"
				},
				{
					"components": [
						{
							"internalType": "uint256",
							"name": "offensiveArmor",
							"type": "uint256"
						},
						{
							"internalType": "uint256",
							"name": "defensiveArmor",
							"type": "uint256"
						},
						{
							"internalType": "uint256",
							"name": "offensiveWeapon",
							"type": "uint256"
						},
						{
							"internalType": "uint256",
							"name": "defensiveWeapon",
							"type": "uint256"
						},
						{
							"internalType": "uint256",
							"name": "offensiveSoldier",
							"type": "uint256"
						},
						{
							"internalType": "uint256",
							"name": "defensiveSoldier",
							"type": "uint256"
						}
					],
					"internalType": "struct TheLand.Military",
					"name": "military",
					"type": "tuple"
				},
				{
					"components": [
						{
							"internalType": "uint8",
							"name": "offensiveTech",
							"type": "uint8"
						},
						{
							"internalType": "uint8",
							"name": "defensiveTech",
							"type": "uint8"
						}
					],
					"internalType": "struct TheLand.TechLevels",
					"name": "techLevels",
					"type": "tuple"
				},
				{
					"internalType": "uint256",
					"name": "points",
					"type": "uint256"
				}
			],
			"stateMutability": "view",
			"type": "function"
		},
		{
			"inputs": [
				{
					"internalType": "uint8",
					"name": "",
					"type": "uint8"
				},
				{
					"internalType": "uint8",
					"name": "",
					"type": "uint8"
				}
			],
			"name": "totalTurnsUsedByTile",
			"outputs": [
				{
					"internalType": "uint256",
					"name": "",
					"type": "uint256"
				}
			],
			"stateMutability": "view",
			"type": "function"
		},
		{
			"inputs": [],
			"name": "turnFeeWei",
			"outputs": [
				{
					"internalType": "uint256",
					"name": "",
					"type": "uint256"
				}
			],
			"stateMutability": "view",
			"type": "function"
		},
		{
			"inputs": [],
			"name": "turnsPerLevel",
			"outputs": [
				{
					"internalType": "uint256",
					"name": "",
					"type": "uint256"
				}
			],
			"stateMutability": "view",
			"type": "function"
		},
		{
			"inputs": [
				{
					"internalType": "uint8",
					"name": "x",
					"type": "uint8"
				},
				{
					"internalType": "uint8",
					"name": "y",
					"type": "uint8"
				},
				{
					"internalType": "uint8",
					"name": "techType",
					"type": "uint8"
				}
			],
			"name": "upgradeTech",
			"outputs": [],
			"stateMutability": "nonpayable",
			"type": "function"
		},
		{
			"inputs": [
				{
					"internalType": "uint16",
					"name": "turns",
					"type": "uint16"
				},
				{
					"internalType": "uint8",
					"name": "x",
					"type": "uint8"
				},
				{
					"internalType": "uint8",
					"name": "y",
					"type": "uint8"
				}
			],
			"name": "useTurns",
			"outputs": [],
			"stateMutability": "payable",
			"type": "function"
		}
	]
}