{
	"data": {
		"bytecode": {
			"linkReferences": {},
			"object": "6080604052604051806080016040528060328152602001601e815260200160148152602001600a815250600160008201518160000155602082015181600101556040820151816002015560608201518160030155505060405180608001604052806028815260200160148152602001601e8152602001600f8152506005600082015181600001556020820151816001015560408201518160020155606082015181600301555050604051806080016040528060328152602001601e815260200160148152602001600a815250600960008201518160000155602082015181600101556040820151816002015560608201518160030155505060405180608001604052806028815260200160148152602001601e8152602001600f815250600d600082015181600001556020820151816001015560408201518160020155606082015181600301555050604051806102800160405280604051806102800160405280600460ff168152602001600460ff168152602001600460ff168152602001600460ff168152602001600460ff168152602001600460ff168152602001600360ff168152602001600360ff168152602001600360ff168152602001600360ff168152602001600360ff168152602001600360ff168152602001600260ff168152602001600260ff168152602001600160ff168152602001600260ff168152602001600260ff168152602001600260ff168152602001600260ff168152602001600260ff168152508152602001604051806102800160405280600460ff168152602001600460ff168152602001600460ff168152602001600460ff168152602001600460ff168152602001600460ff168152602001600460ff168152602001600360ff168152602001600360ff168152602001600360ff168152602001600360ff168152602001600360ff168152602001600260ff168152602001600160ff168152602001600160ff168152602001600260ff168152602001600260ff168152602001600260ff168152602001600260ff168152602001600260ff168152508152602001604051806102800160405280600460ff168152602001600460ff168152602001600460ff168152602001600460ff168152602001600460ff168152602001600460ff168152602001600460ff168152602001600460ff168152602001600360ff168152602001600360ff168152602001600360ff168152602001600360ff168152602001600260ff168152602001600260ff168152602001600160ff168152602001600160ff168152602001600260ff168152602001600260ff168152602001600260ff168152602001600260ff168152508152602001604051806102800160405280600460ff168152602001600460ff168152602001600460ff168152602001600460ff168152602001600460ff168152602001600460ff168152602001600460ff168152602001600460ff168152602001600360ff168152602001600360ff168152602001600360ff168152602001600360ff168152602001600360ff168152602001600160ff168152602001600160ff168152602001600160ff168152602001600260ff168152602001600260ff168152602001600260ff168152602001600260ff168152508152602001604051806102800160405280600360ff168152602001600360ff168152602001600360ff168152602001600360ff168152602001600360ff168152602001600360ff168152602001600360ff168152602001600360ff168152602001600360ff168152602001600360ff168152602001600360ff168152602001600360ff168152602001600160ff168152602001600160ff168152602001600160ff168152602001600160ff168152602001600260ff168152602001600260ff168152602001600260ff168152602001600260ff168152508152602001604051806102800160405280600360ff168152602001600360ff168152602001600360ff168152602001600360ff168152602001600360ff168152602001600360ff168152602001600360ff168152602001600360ff168152602001600360ff168152602001600360ff168152602001600360ff168152602001600360ff168152602001600160ff168152602001600160ff168152602001600160ff168152602001600160ff168152602001600260ff168152602001600260ff168152602001600260ff168152602001600260ff168152508152602001604051806102800160405280600360ff168152602001600360ff168152602001600360ff168152602001600360ff168152602001600360ff168152602001600360ff168152602001600360ff168152602001600360ff168152602001600360ff168152602001600360ff168152602001600360ff168152602001600360ff168152602001600160ff168152602001600160ff168152602001600160ff168152602001600160ff168152602001600160ff168152602001600160ff168152602001600160ff168152602001600160ff168152508152602001604051806102800160405280600360ff168152602001600360ff168152602001600360ff168152602001600160ff168152602001600360ff168152602001600360ff168152602001600360ff168152602001600360ff168152602001600360ff168152602001600360ff168152602001600360ff168152602001600160ff168152602001600260ff168152602001600260ff168152602001600260ff168152602001600260ff168152602001600160ff168152602001600160ff168152602001600160ff168152602001600160ff168152508152602001604051806102800160405280600360ff168152602001600360ff168152602001600360ff168152602001600160ff168152602001600160ff168152602001600260ff168152602001600260ff168152602001600260ff168152602001600260ff168152602001600260ff168152602001600260ff168152602001600160ff168152602001600260ff168152602001600260ff168152602001600260ff168152602001600260ff168152602001600260ff168152602001600260ff168152602001600260ff168152602001600160ff168152508152602001604051806102800160405280600160ff168152602001600260ff168152602001600260ff168152602001600160ff168152602001600260ff168152602001600260ff168152602001600260ff168152602001600260ff168152602001600260ff168152602001600260ff168152602001600260ff168152602001600160ff168152602001600260ff168152602001600260ff168152602001600260ff168152602001600260ff168152602001600260ff168152602001600260ff168152602001600260ff168152602001600160ff168152508152602001604051806102800160405280600260ff168152602001600260ff168152602001600160ff168152602001600160ff168152602001600260ff168152602001600260ff168152602001600260ff168152602001600260ff168152602001600260ff168152602001600260ff168152602001600160ff168152602001600160ff168152602001600260ff168152602001600260ff168152602001600260ff168152602001600260ff168152602001600260ff168152602001600260ff168152602001600160ff168152602001600160ff168152508152602001604051806102800160405280600360ff168152602001600360ff168152602001600360ff168152602001600260ff168152602001600160ff168152602001600260ff168152602001600260ff168152602001600260ff168152602001600260ff168152602001600260ff168152602001600160ff168152602001600260ff168152602001600260ff168152602001600260ff168152602001600260ff168152602001600160ff168152602001600160ff168152602001600160ff168152602001600160ff168152602001600160ff168152508152602001604051806102800160405280600360ff168152602001600360ff168152602001600360ff168152602001600360ff168152602001600160ff168152602001600160ff168152602001600260ff168152602001600260ff168152602001600260ff168152602001600260ff168152602001600160ff168152602001600160ff168152602001600260ff168152602001600260ff168152602001600260ff168152602001600160ff168152602001600160ff168152602001600160ff168152602001600160ff168152602001600160ff168152508152602001604051806102800160405280600360ff168152602001600360ff168152602001600360ff168152602001600360ff168152602001600360ff168152602001600160ff168152602001600260ff168152602001600260ff168152602001600260ff168152602001600260ff168152602001600160ff168152602001600160ff168152602001600160ff168152602001600260ff168152602001600260ff168152602001600260ff168152602001600260ff168152602001600160ff168152602001600160ff168152602001600160ff168152508152602001604051806102800160405280600360ff168152602001600360ff168152602001600360ff168152602001600360ff168152602001600360ff168152602001600260ff168152602001600260ff168152602001600260ff168152602001600360ff168152602001600360ff168152602001600260ff168152602001600260ff168152602001600160ff168152602001600260ff168152602001600260ff168152602001600260ff168152602001600260ff168152602001600160ff168152602001600160ff168152602001600160ff168152508152602001604051806102800160405280600260ff168152602001600260ff168152602001600260ff168152602001600160ff168152602001600160ff168152602001600160ff168152602001600160ff168152602001600160ff168152602001600360ff168152602001600360ff168152602001600360ff168152602001600360ff168152602001600160ff168152602001600160ff168152602001600260ff168152602001600260ff168152602001600260ff168152602001600160ff168152602001600160ff168152602001600160ff168152508152602001604051806102800160405280600260ff168152602001600260ff168152602001600260ff168152602001600260ff168152602001600260ff168152602001600260ff168152602001600160ff168152602001600160ff168152602001600360ff168152602001600360ff168152602001600360ff168152602001600360ff168152602001600160ff168152602001600160ff168152602001600160ff168152602001600160ff168152602001600360ff168152602001600360ff168152602001600260ff168152602001600260ff168152508152602001604051806102800160405280600260ff168152602001600260ff168152602001600260ff168152602001600260ff168152602001600260ff168152602001600260ff168152602001600260ff168152602001600160ff168152602001600360ff168152602001600360ff168152602001600360ff168152602001600360ff168152602001600160ff168152602001600160ff168152602001600160ff168152602001600160ff168152602001600360ff168152602001600360ff168152602001600260ff168152602001600260ff168152508152602001604051806102800160405280600260ff168152602001600260ff168152602001600260ff168152602001600260ff168152602001600260ff168152602001600260ff168152602001600260ff168152602001600160ff168152602001600160ff168152602001600260ff168152602001600260ff168152602001600160ff168152602001600160ff168152602001600260ff168152602001600260ff168152602001600160ff168152602001600360ff168152602001600360ff168152602001600260ff168152602001600260ff168152508152602001604051806102800160405280600260ff168152602001600260ff168152602001600260ff168152602001600260ff168152602001600260ff168152602001600260ff168152602001600260ff168152602001600160ff168152602001600160ff168152602001600160ff168152602001600160ff168152602001600160ff168152602001600160ff168152602001600160ff168152602001600160ff168152602001600360ff168152602001600360ff168152602001600360ff168152602001600260ff168152602001600260ff16815250815250601490601462001230929190620015fb565b503480156200123e57600080fd5b5060405162004cd138038062004cd18339818101604052810190620012649190620017a9565b806000806101000a81548173ffffffffffffffffffffffffffffffffffffffff021916908373ffffffffffffffffffffffffffffffffffffffff160217905550620012b4620012bb60201b60201c565b50620017db565b60405180608001604052806064815260200160328152602001601e8152602001601481525060136000600160ff16815260200190815260200160002060008201518160000155602082015181600101556040820151816002015560608201518160030155905050604051806080016040528060c881526020016064815260200160328152602001602881525060136000600260ff16815260200190815260200160002060008201518160000155602082015181600101556040820151816002015560608201518160030155905050604051806080016040528061012c81526020016064815260200160328152602001602881525060136000600360ff16815260200190815260200160002060008201518160000155602082015181600101556040820151816002015560608201518160030155905050604051806080016040528061019081526020016064815260200160328152602001602881525060136000600460ff1681526020019081526020016000206000820151816000015560208201518160010155604082015181600201556060820151816003015590505060405180608001604052806101f481526020016064815260200160328152602001602881525060136000600560ff16815260200190815260200160002060008201518160000155602082015181600101556040820151816002015560608201518160030155905050604051806080016040528061025881526020016064815260200160328152602001602881525060136000600660ff1681526020019081526020016000206000820151816000015560208201518160010155604082015181600201556060820151816003015590505060405180608001604052806102bc81526020016064815260200160328152602001602881525060136000600760ff16815260200190815260200160002060008201518160000155602082015181600101556040820151816002015560608201518160030155905050604051806080016040528061032081526020016064815260200160328152602001602881525060136000600860ff16815260200190815260200160002060008201518160000155602082015181600101556040820151816002015560608201518160030155905050565b82601481019282156200163d579160200282015b828111156200163c578251829060146200162b92919062001650565b50916020019190600101906200160f565b5b5090506200164c9190620016f1565b5090565b826014601f01602090048101928215620016de5791602002820160005b83821115620016ad57835183826101000a81548160ff021916908360ff16021790555092602001926001016020816000010492830192600103026200166d565b8015620016dc5782816101000a81549060ff0219169055600101602081600001049283019260010302620016ad565b505b509050620016ed919062001719565b5090565b5b808211156200171557600081816200170b919062001738565b50600101620016f2565b5090565b5b80821115620017345760008160009055506001016200171a565b5090565b5060009055565b600080fd5b600073ffffffffffffffffffffffffffffffffffffffff82169050919050565b6000620017718262001744565b9050919050565b620017838162001764565b81146200178f57600080fd5b50565b600081519050620017a38162001778565b92915050565b600060208284031215620017c257620017c16200173f565b5b6000620017d28482850162001792565b91505092915050565b6134e680620017eb6000396000f3fe608060405234801561001057600080fd5b50600436106101375760003560e01c8063afed933a116100b8578063c1712d571161007c578063c1712d5714610372578063cc06c359146103a5578063dd4b466b146103c3578063decc1bbf146103df578063e9dd6583146103fd578063f32452541461041957610137565b8063afed933a1461029d578063bc9955a2146102bb578063bd638378146102eb578063bdc7da8e14610324578063be9a263c1461034257610137565b8063620a9a99116100ff578063620a9a99146101cf578063800bfa27146101f05780638c87fa4f146102115780639b562df214610232578063a2f9cc5b1461026d57610137565b806307722bc21461013c5780630ee22f31146101585780634274b164146101745780634f264b0314610190578063537e8f49146101ae575b600080fd5b610156600480360381019061015191906124eb565b610449565b005b610172600480360381019061016d9190612552565b6109ef565b005b61018e600480360381019061018991906124eb565b610ebe565b005b610198611464565b6040516101a5919061264c565b60405180910390f35b6101b6611488565b6040516101c69493929190612676565b60405180910390f35b6101d76114a6565b6040516101e79493929190612676565b60405180910390f35b6101f86114c4565b6040516102089493929190612676565b60405180910390f35b6102196114e2565b6040516102299493929190612676565b60405180910390f35b61024c600480360381019061024791906126bb565b611500565b6040516102649c9b9a99989796959493929190612718565b60405180910390f35b610287600480360381019061028291906127d2565b611589565b6040516102949190612848565b60405180910390f35b6102a56115d2565b6040516102b29190612848565b60405180910390f35b6102d560048036038101906102d09190612863565b6115d7565b6040516102e29190612848565b60405180910390f35b610305600480360381019061030091906126bb565b611613565b60405161031b9a999897969594939291906128a3565b60405180910390f35b61032c6116ba565b604051610339919061293f565b60405180910390f35b61035c600480360381019061035791906126bb565b6116c0565b6040516103699190612aa2565b60405180910390f35b61038c60048036038101906103879190612abe565b6118e0565b60405161039c9493929190612676565b60405180910390f35b6103ad611910565b6040516103ba9190612aeb565b60405180910390f35b6103dd60048036038101906103d891906126bb565b611916565b005b6103e7611b27565b6040516103f49190612848565b60405180910390f35b61041760048036038101906104129190612b32565b611b2c565b005b610433600480360381019061042e91906126bb565b6121c5565b604051610440919061293f565b60405180910390f35b83833373ffffffffffffffffffffffffffffffffffffffff1660008054906101000a900473ffffffffffffffffffffffffffffffffffffffff1673ffffffffffffffffffffffffffffffffffffffff16638a88895384846040518363ffffffff1660e01b81526004016104bd929190612b85565b602060405180830381865afa1580156104da573d6000803e3d6000fd5b505050506040513d601f19601f820116820180604052508101906104fe9190612bec565b73ffffffffffffffffffffffffffffffffffffffff1614610554576040517f08c379a000000000000000000000000000000000000000000000000000000000815260040161054b90612c76565b60405180910390fd5b60008311610597576040517f08c379a000000000000000000000000000000000000000000000000000000000815260040161058e90612d08565b60405180910390fd5b60018460ff1614806105ac575060028460ff16145b6105eb576040517f08c379a00000000000000000000000000000000000000000000000000000000081526004016105e290612d74565b60405180910390fd5b6000600190506000805b600960ff168160ff1610156106c45760005b600960ff168160ff1610156106b0578360ff16601260008c60ff1660ff16815260200190815260200160002060008b60ff1660ff16815260200190815260200160002060008460ff1660ff16815260200190815260200160002060008360ff1660ff16815260200190815260200160002060009054906101000a900460ff1660ff160361069d57828061069990612dc3565b9350505b80806106a890612e0b565b915050610607565b5080806106bc90612e0b565b9150506105f5565b5060008111610708576040517f08c379a00000000000000000000000000000000000000000000000000000000081526004016106ff90612ea6565b60405180910390fd5b6000601160008a60ff1660ff16815260200190815260200160002060008960ff1660ff1681526020019081526020016000209050600060018860ff1614610750576005610753565b60015b604051806080016040529081600082015481526020016001820154815260200160028201548152602001600382015481525050905060008388836000015161079b9190612ec6565b6107a59190612f37565b90506000848984602001516107ba9190612ec6565b6107c49190612f37565b90506000858a85604001516107d99190612ec6565b6107e39190612f37565b90506000868b86606001516107f89190612ec6565b6108029190612f37565b9050838660000154101561084b576040517f08c379a000000000000000000000000000000000000000000000000000000000815260040161084290612fb4565b60405180910390fd5b8286600101541015610892576040517f08c379a000000000000000000000000000000000000000000000000000000000815260040161088990613020565b60405180910390fd5b81866002015410156108d9576040517f08c379a00000000000000000000000000000000000000000000000000000000081526004016108d09061308c565b60405180910390fd5b8086600301541015610920576040517f08c379a0000000000000000000000000000000000000000000000000000000008152600401610917906130f8565b60405180910390fd5b838660000160008282546109349190613118565b925050819055508286600101600082825461094f9190613118565b925050819055508186600201600082825461096a9190613118565b92505081905550808660030160008282546109859190613118565b9250508190555060018c60ff16036109b7578a8660080160008282546109ab919061314c565b925050819055506109df565b60028c60ff16036109de578a8660090160008282546109d6919061314c565b925050819055505b5b5050505050505050505050505050565b84843373ffffffffffffffffffffffffffffffffffffffff1660008054906101000a900473ffffffffffffffffffffffffffffffffffffffff1673ffffffffffffffffffffffffffffffffffffffff16638a88895384846040518363ffffffff1660e01b8152600401610a63929190612b85565b602060405180830381865afa158015610a80573d6000803e3d6000fd5b505050506040513d601f19601f82011682018060405250810190610aa49190612bec565b73ffffffffffffffffffffffffffffffffffffffff1614610afa576040517f08c379a0000000000000000000000000000000000000000000000000000000008152600401610af190612c76565b60405180910390fd5b8484600960ff168260ff16108015610b185750600960ff168160ff16105b610b57576040517f08c379a0000000000000000000000000000000000000000000000000000000008152600401610b4e906131f2565b60405180910390fd5b6000601260008b60ff1660ff16815260200190815260200160002060008a60ff1660ff16815260200190815260200160002060008960ff1660ff16815260200190815260200160002060008860ff1660ff16815260200190815260200160002060009054906101000a900460ff16905060008160ff1614610c0d576040517f08c379a0000000000000000000000000000000000000000000000000000000008152600401610c0490613284565b60405180910390fd5b6000601360008860ff1660ff16815260200190815260200160002060405180608001604052908160008201548152602001600182015481526020016002820154815260200160038201548152505090506000601160008d60ff1660ff16815260200190815260200160002060008c60ff1660ff1681526020019081526020016000209050816000015181600001541015610cdc576040517f08c379a0000000000000000000000000000000000000000000000000000000008152600401610cd390612fb4565b60405180910390fd5b816020015181600101541015610d27576040517f08c379a0000000000000000000000000000000000000000000000000000000008152600401610d1e90613020565b60405180910390fd5b816040015181600201541015610d72576040517f08c379a0000000000000000000000000000000000000000000000000000000008152600401610d699061308c565b60405180910390fd5b816060015181600301541015610dbd576040517f08c379a0000000000000000000000000000000000000000000000000000000008152600401610db4906130f8565b60405180910390fd5b8160000151816000016000828254610dd59190613118565b925050819055508160200151816001016000828254610df49190613118565b925050819055508160400151816002016000828254610e139190613118565b925050819055508160600151816003016000828254610e329190613118565b9250508190555087601260008e60ff1660ff16815260200190815260200160002060008d60ff1660ff16815260200190815260200160002060008c60ff1660ff16815260200190815260200160002060008b60ff1660ff16815260200190815260200160002060006101000a81548160ff021916908360ff160217905550505050505050505050505050565b83833373ffffffffffffffffffffffffffffffffffffffff1660008054906101000a900473ffffffffffffffffffffffffffffffffffffffff1673ffffffffffffffffffffffffffffffffffffffff16638a88895384846040518363ffffffff1660e01b8152600401610f32929190612b85565b602060405180830381865afa158015610f4f573d6000803e3d6000fd5b505050506040513d601f19601f82011682018060405250810190610f739190612bec565b73ffffffffffffffffffffffffffffffffffffffff1614610fc9576040517f08c379a0000000000000000000000000000000000000000000000000000000008152600401610fc090612c76565b60405180910390fd5b6000831161100c576040517f08c379a000000000000000000000000000000000000000000000000000000000815260040161100390612d08565b60405180910390fd5b60018460ff161480611021575060028460ff16145b611060576040517f08c379a000000000000000000000000000000000000000000000000000000000815260040161105790612d74565b60405180910390fd5b6000600290506000805b600960ff168160ff1610156111395760005b600960ff168160ff161015611125578360ff16601260008c60ff1660ff16815260200190815260200160002060008b60ff1660ff16815260200190815260200160002060008460ff1660ff16815260200190815260200160002060008360ff1660ff16815260200190815260200160002060009054906101000a900460ff1660ff160361111257828061110e90612dc3565b9350505b808061111d90612e0b565b91505061107c565b50808061113190612e0b565b91505061106a565b506000811161117d576040517f08c379a000000000000000000000000000000000000000000000000000000000815260040161117490612ea6565b60405180910390fd5b6000601160008a60ff1660ff16815260200190815260200160002060008960ff1660ff1681526020019081526020016000209050600060018860ff16146111c557600d6111c8565b60095b60405180608001604052908160008201548152602001600182015481526020016002820154815260200160038201548152505090506000838883600001516112109190612ec6565b61121a9190612f37565b905060008489846020015161122f9190612ec6565b6112399190612f37565b90506000858a856040015161124e9190612ec6565b6112589190612f37565b90506000868b866060015161126d9190612ec6565b6112779190612f37565b905083866000015410156112c0576040517f08c379a00000000000000000000000000000000000000000000000000000000081526004016112b790612fb4565b60405180910390fd5b8286600101541015611307576040517f08c379a00000000000000000000000000000000000000000000000000000000081526004016112fe90613020565b60405180910390fd5b818660020154101561134e576040517f08c379a00000000000000000000000000000000000000000000000000000000081526004016113459061308c565b60405180910390fd5b8086600301541015611395576040517f08c379a000000000000000000000000000000000000000000000000000000000815260040161138c906130f8565b60405180910390fd5b838660000160008282546113a99190613118565b92505081905550828660010160008282546113c49190613118565b92505081905550818660020160008282546113df9190613118565b92505081905550808660030160008282546113fa9190613118565b9250508190555060018c60ff160361142c578a86600a016000828254611420919061314c565b92505081905550611454565b60028c60ff1603611453578a86600b01600082825461144b919061314c565b925050819055505b5b5050505050505050505050505050565b60008054906101000a900473ffffffffffffffffffffffffffffffffffffffff1681565b600d8060000154908060010154908060020154908060030154905084565b60018060000154908060010154908060020154908060030154905084565b60098060000154908060010154908060020154908060030154905084565b60058060000154908060010154908060020154908060030154905084565b6011602052816000526040600020602052806000526040600020600091509150508060000154908060010154908060020154908060030154908060040160009054906101000a900461ffff16908060050154908060060160009054906101000a900461ffff169080600701549080600801549080600901549080600a01549080600b015490508c565b601260205283600052604060002060205282600052604060002060205281600052604060002060205280600052604060002060009350935050509054906101000a900460ff1681565b601481565b601482601481106115e757600080fd5b0181601481106115f657600080fd5b60209182820401919006915091509054906101000a900460ff1681565b6000806000806000806000806000806000601160008e60ff1660ff16815260200190815260200160002060008d60ff1660ff168152602001908152602001600020905080600001548160010154826002015483600301548460040160009054906101000a900461ffff1685600501548660080154876009015488600a015489600b01549a509a509a509a509a509a509a509a509a509a50509295989b9194979a5092959850565b6103e881565b6116c8612426565b82823373ffffffffffffffffffffffffffffffffffffffff1660008054906101000a900473ffffffffffffffffffffffffffffffffffffffff1673ffffffffffffffffffffffffffffffffffffffff16638a88895384846040518363ffffffff1660e01b815260040161173c929190612b85565b602060405180830381865afa158015611759573d6000803e3d6000fd5b505050506040513d601f19601f8201168201806040525081019061177d9190612bec565b73ffffffffffffffffffffffffffffffffffffffff16146117d3576040517f08c379a00000000000000000000000000000000000000000000000000000000081526004016117ca90612c76565b60405180910390fd5b6117db612426565b60005b600960ff168160ff1610156118d35760005b600960ff168160ff1610156118bf57601260008960ff1660ff16815260200190815260200160002060008860ff1660ff16815260200190815260200160002060008360ff1660ff16815260200190815260200160002060008260ff1660ff16815260200190815260200160002060009054906101000a900460ff16838360ff1660098110611881576118806132a4565b5b60200201518260ff166009811061189b5761189a6132a4565b5b602002019060ff16908160ff168152505080806118b790612e0b565b9150506117f0565b5080806118cb90612e0b565b9150506117de565b5080935050505092915050565b60136020528060005260406000206000915090508060000154908060010154908060020154908060030154905084565b6101f481565b81813373ffffffffffffffffffffffffffffffffffffffff1660008054906101000a900473ffffffffffffffffffffffffffffffffffffffff1673ffffffffffffffffffffffffffffffffffffffff16638a88895384846040518363ffffffff1660e01b815260040161198a929190612b85565b602060405180830381865afa1580156119a7573d6000803e3d6000fd5b505050506040513d601f19601f820116820180604052508101906119cb9190612bec565b73ffffffffffffffffffffffffffffffffffffffff1614611a21576040517f08c379a0000000000000000000000000000000000000000000000000000000008152600401611a1890612c76565b60405180910390fd5b60006001601160008760ff1660ff16815260200190815260200160002060008660ff1660ff1681526020019081526020016000206007015442611a649190613118565b611a6e9190612f37565b601160008760ff1660ff16815260200190815260200160002060008660ff1660ff16815260200190815260200160002060060160009054906101000a900461ffff1661ffff16611abe919061314c565b90506102588111611acf5780611ad3565b6102585b601160008760ff1660ff16815260200190815260200160002060008660ff1660ff16815260200190815260200160002060060160006101000a81548161ffff021916908361ffff1602179055505050505050565b600981565b81813373ffffffffffffffffffffffffffffffffffffffff1660008054906101000a900473ffffffffffffffffffffffffffffffffffffffff1673ffffffffffffffffffffffffffffffffffffffff16638a88895384846040518363ffffffff1660e01b8152600401611ba0929190612b85565b602060405180830381865afa158015611bbd573d6000803e3d6000fd5b505050506040513d601f19601f82011682018060405250810190611be19190612bec565b73ffffffffffffffffffffffffffffffffffffffff1614611c37576040517f08c379a0000000000000000000000000000000000000000000000000000000008152600401611c2e90612c76565b60405180910390fd5b60008561ffff1611611c7e576040517f08c379a0000000000000000000000000000000000000000000000000000000008152600401611c759061331f565b60405180910390fd5b611c888484611916565b8461ffff16601160008660ff1660ff16815260200190815260200160002060008560ff1660ff16815260200190815260200160002060060160009054906101000a900461ffff1661ffff161015611d14576040517f08c379a0000000000000000000000000000000000000000000000000000000008152600401611d0b9061338b565b60405180910390fd5b601160008560ff1660ff16815260200190815260200160002060008460ff1660ff168152602001908152602001600020600501546103e8611d559190613118565b8561ffff161115611da457601160008560ff1660ff16815260200190815260200160002060008460ff1660ff168152602001908152602001600020600501546103e8611da19190613118565b94505b84601160008660ff1660ff16815260200190815260200160002060008560ff1660ff16815260200190815260200160002060060160009054906101000a900461ffff16611df191906133ab565b601160008660ff1660ff16815260200190815260200160002060008560ff1660ff16815260200190815260200160002060060160006101000a81548161ffff021916908361ffff16021790555042601160008660ff1660ff16815260200190815260200160002060008560ff1660ff16815260200190815260200160002060070181905550600060148560ff1660148110611e8f57611e8e6132a4565b5b018460ff1660148110611ea557611ea46132a4565b5b602091828204019190069054906101000a900460ff1690506000601160008760ff1660ff16815260200190815260200160002060008660ff1660ff168152602001908152602001600020905060018260ff1603611f20578661ffff16816000016000828254611f14919061314c565b92505081905550611fac565b60028260ff1603611f4f578661ffff16816001016000828254611f43919061314c565b92505081905550611fab565b60038260ff1603611f7e578661ffff16816002016000828254611f72919061314c565b92505081905550611faa565b60048260ff1603611fa9578661ffff16816003016000828254611fa1919061314c565b925050819055505b5b5b5b8060040160009054906101000a900461ffff1687611fca91906133e1565b61ffff16816000016000828254611fe1919061314c565b925050819055508060040160009054906101000a900461ffff168761200691906133e1565b61ffff1681600101600082825461201d919061314c565b925050819055508060040160009054906101000a900461ffff168761204291906133e1565b61ffff16816002016000828254612059919061314c565b925050819055508060040160009054906101000a900461ffff168761207e91906133e1565b61ffff16816003016000828254612095919061314c565b925050819055508661ffff168160050160008282546120b4919061314c565b9250508190555060006103e882600501546120cf9190612f37565b90506103e88260050160008282546120e79190613417565b925050819055506000818360040160009054906101000a900461ffff1661210e91906133e1565b90506101f461ffff168161ffff161115612148576101f48360040160006101000a81548161ffff021916908361ffff160217905550612168565b808360040160006101000a81548161ffff021916908361ffff1602179055505b3373ffffffffffffffffffffffffffffffffffffffff167fbb5b4f7847476e1912e2b57d030b0e491d0d72b2ef256cceea9daa41f40f5d188a8a8a6040516121b293929190613479565b60405180910390a2505050505050505050565b600082823373ffffffffffffffffffffffffffffffffffffffff1660008054906101000a900473ffffffffffffffffffffffffffffffffffffffff1673ffffffffffffffffffffffffffffffffffffffff16638a88895384846040518363ffffffff1660e01b815260040161223b929190612b85565b602060405180830381865afa158015612258573d6000803e3d6000fd5b505050506040513d601f19601f8201168201806040525081019061227c9190612bec565b73ffffffffffffffffffffffffffffffffffffffff16146122d2576040517f08c379a00000000000000000000000000000000000000000000000000000000081526004016122c990612c76565b60405180910390fd5b6102586001601160008860ff1660ff16815260200190815260200160002060008760ff1660ff16815260200190815260200160002060070154426123169190613118565b6123209190612f37565b601160008860ff1660ff16815260200190815260200160002060008760ff1660ff16815260200190815260200160002060060160009054906101000a900461ffff1661ffff16612370919061314c565b111561238057610258925061241e565b6001601160008760ff1660ff16815260200190815260200160002060008660ff1660ff16815260200190815260200160002060070154426123c19190613118565b6123cb9190612f37565b601160008760ff1660ff16815260200190815260200160002060008660ff1660ff16815260200190815260200160002060060160009054906101000a900461ffff1661ffff1661241b919061314c565b92505b505092915050565b6040518061012001604052806009905b61243e612454565b8152602001906001900390816124365790505090565b604051806101200160405280600990602082028036833780820191505090505090565b600080fd5b600060ff82169050919050565b6124928161247c565b811461249d57600080fd5b50565b6000813590506124af81612489565b92915050565b6000819050919050565b6124c8816124b5565b81146124d357600080fd5b50565b6000813590506124e5816124bf565b92915050565b6000806000806080858703121561250557612504612477565b5b6000612513878288016124a0565b9450506020612524878288016124a0565b9350506040612535878288016124a0565b9250506060612546878288016124d6565b91505092959194509250565b600080600080600060a0868803121561256e5761256d612477565b5b600061257c888289016124a0565b955050602061258d888289016124a0565b945050604061259e888289016124a0565b93505060606125af888289016124a0565b92505060806125c0888289016124a0565b9150509295509295909350565b600073ffffffffffffffffffffffffffffffffffffffff82169050919050565b6000819050919050565b600061261261260d612608846125cd565b6125ed565b6125cd565b9050919050565b6000612624826125f7565b9050919050565b600061263682612619565b9050919050565b6126468161262b565b82525050565b6000602082019050612661600083018461263d565b92915050565b612670816124b5565b82525050565b600060808201905061268b6000830187612667565b6126986020830186612667565b6126a56040830185612667565b6126b26060830184612667565b95945050505050565b600080604083850312156126d2576126d1612477565b5b60006126e0858286016124a0565b92505060206126f1858286016124a0565b9150509250929050565b600061ffff82169050919050565b612712816126fb565b82525050565b60006101808201905061272e600083018f612667565b61273b602083018e612667565b612748604083018d612667565b612755606083018c612667565b612762608083018b612709565b61276f60a083018a612667565b61277c60c0830189612709565b61278960e0830188612667565b612797610100830187612667565b6127a5610120830186612667565b6127b3610140830185612667565b6127c1610160830184612667565b9d9c50505050505050505050505050565b600080600080608085870312156127ec576127eb612477565b5b60006127fa878288016124a0565b945050602061280b878288016124a0565b935050604061281c878288016124a0565b925050606061282d878288016124a0565b91505092959194509250565b6128428161247c565b82525050565b600060208201905061285d6000830184612839565b92915050565b6000806040838503121561287a57612879612477565b5b6000612888858286016124d6565b9250506020612899858286016124d6565b9150509250929050565b6000610140820190506128b9600083018d612667565b6128c6602083018c612667565b6128d3604083018b612667565b6128e0606083018a612667565b6128ed6080830189612709565b6128fa60a0830188612667565b61290760c0830187612667565b61291460e0830186612667565b612922610100830185612667565b612930610120830184612667565b9b9a5050505050505050505050565b60006020820190506129546000830184612667565b92915050565b600060099050919050565b600081905092915050565b6000819050919050565b600060099050919050565b600081905092915050565b6000819050919050565b6129a38161247c565b82525050565b60006129b5838361299a565b60208301905092915050565b6000602082019050919050565b6129d78161297a565b6129e18184612985565b92506129ec82612990565b8060005b83811015612a1d578151612a0487826129a9565b9650612a0f836129c1565b9250506001810190506129f0565b505050505050565b6000612a3183836129ce565b6101208301905092915050565b6000602082019050919050565b612a548161295a565b612a5e8184612965565b9250612a6982612970565b8060005b83811015612a9a578151612a818782612a25565b9650612a8c83612a3e565b925050600181019050612a6d565b505050505050565b6000610a2082019050612ab86000830184612a4b565b92915050565b600060208284031215612ad457612ad3612477565b5b6000612ae2848285016124a0565b91505092915050565b6000602082019050612b006000830184612709565b92915050565b612b0f816126fb565b8114612b1a57600080fd5b50565b600081359050612b2c81612b06565b92915050565b600080600060608486031215612b4b57612b4a612477565b5b6000612b5986828701612b1d565b9350506020612b6a868287016124a0565b9250506040612b7b868287016124a0565b9150509250925092565b6000604082019050612b9a6000830185612839565b612ba76020830184612839565b9392505050565b6000612bb9826125cd565b9050919050565b612bc981612bae565b8114612bd457600080fd5b50565b600081519050612be681612bc0565b92915050565b600060208284031215612c0257612c01612477565b5b6000612c1084828501612bd7565b91505092915050565b600082825260208201905092915050565b7f596f7520646f206e6f74206f776e20746869732074696c650000000000000000600082015250565b6000612c60601883612c19565b9150612c6b82612c2a565b602082019050919050565b60006020820190508181036000830152612c8f81612c53565b9050919050565b7f5175616e74697479206d7573742062652067726561746572207468616e207a6560008201527f726f000000000000000000000000000000000000000000000000000000000000602082015250565b6000612cf2602283612c19565b9150612cfd82612c96565b604082019050919050565b60006020820190508181036000830152612d2181612ce5565b9050919050565b7f496e76616c69642061726d6f7220747970650000000000000000000000000000600082015250565b6000612d5e601283612c19565b9150612d6982612d28565b602082019050919050565b60006020820190508181036000830152612d8d81612d51565b9050919050565b7f4e487b7100000000000000000000000000000000000000000000000000000000600052601160045260246000fd5b6000612dce826124b5565b91507fffffffffffffffffffffffffffffffffffffffffffffffffffffffffffffffff8203612e0057612dff612d94565b5b600182019050919050565b6000612e168261247c565b915060ff8203612e2957612e28612d94565b5b600182019050919050565b7f4e6f2061726d6f7279206275696c64696e6720666f756e64206f6e207468697360008201527f2074696c65000000000000000000000000000000000000000000000000000000602082015250565b6000612e90602583612c19565b9150612e9b82612e34565b604082019050919050565b60006020820190508181036000830152612ebf81612e83565b9050919050565b6000612ed1826124b5565b9150612edc836124b5565b9250828202612eea816124b5565b91508282048414831517612f0157612f00612d94565b5b5092915050565b7f4e487b7100000000000000000000000000000000000000000000000000000000600052601260045260246000fd5b6000612f42826124b5565b9150612f4d836124b5565b925082612f5d57612f5c612f08565b5b828204905092915050565b7f4e6f7420656e6f75676820666f6f640000000000000000000000000000000000600082015250565b6000612f9e600f83612c19565b9150612fa982612f68565b602082019050919050565b60006020820190508181036000830152612fcd81612f91565b9050919050565b7f4e6f7420656e6f75676820776f6f640000000000000000000000000000000000600082015250565b600061300a600f83612c19565b915061301582612fd4565b602082019050919050565b6000602082019050818103600083015261303981612ffd565b9050919050565b7f4e6f7420656e6f7567682073746f6e6500000000000000000000000000000000600082015250565b6000613076601083612c19565b915061308182613040565b602082019050919050565b600060208201905081810360008301526130a581613069565b9050919050565b7f4e6f7420656e6f7567682069726f6e0000000000000000000000000000000000600082015250565b60006130e2600f83612c19565b91506130ed826130ac565b602082019050919050565b60006020820190508181036000830152613111816130d5565b9050919050565b6000613123826124b5565b915061312e836124b5565b925082820390508181111561314657613145612d94565b5b92915050565b6000613157826124b5565b9150613162836124b5565b925082820190508082111561317a57613179612d94565b5b92915050565b7f496e76616c696420696e746572696f722074696c6520636f6f7264696e61746560008201527f7300000000000000000000000000000000000000000000000000000000000000602082015250565b60006131dc602183612c19565b91506131e782613180565b604082019050919050565b6000602082019050818103600083015261320b816131cf565b9050919050565b7f41206275696c64696e6720616c726561647920657869737473206f6e2074686960008201527f732074696c650000000000000000000000000000000000000000000000000000602082015250565b600061326e602683612c19565b915061327982613212565b604082019050919050565b6000602082019050818103600083015261329d81613261565b9050919050565b7f4e487b7100000000000000000000000000000000000000000000000000000000600052603260045260246000fd5b7f5475726e73206d7573742062652067726561746572207468616e203000000000600082015250565b6000613309601c83612c19565b9150613314826132d3565b602082019050919050565b60006020820190508181036000830152613338816132fc565b9050919050565b7f5475726e58000000000000000000000000000000000000000000000000000000600082015250565b6000613375600583612c19565b91506133808261333f565b602082019050919050565b600060208201905081810360008301526133a481613368565b9050919050565b60006133b6826126fb565b91506133c1836126fb565b9250828203905061ffff8111156133db576133da612d94565b5b92915050565b60006133ec826126fb565b91506133f7836126fb565b9250828201905061ffff81111561341157613410612d94565b5b92915050565b6000613422826124b5565b915061342d836124b5565b92508261343d5761343c612f08565b5b828206905092915050565b600061346361345e613459846126fb565b6125ed565b6124b5565b9050919050565b61347381613448565b82525050565b600060608201905061348e600083018661346a565b61349b6020830185612839565b6134a86040830184612839565b94935050505056fea2646970667358221220c39c5d6fb352505b1e90c7c65afb68c1ca32d9bf395f009355241f5b3e2c9a2464736f6c63430008120033",
			"opcodes": "PUSH1 0x80 PUSH1 0x40 MSTORE PUSH1 0x40 MLOAD DUP1 PUSH1 0x80 ADD PUSH1 0x40 MSTORE DUP1 PUSH1 0x32 DUP2 MSTORE PUSH1 0x20 ADD PUSH1 0x1E DUP2 MSTORE PUSH1 0x20 ADD PUSH1 0x14 DUP2 MSTORE PUSH1 0x20 ADD PUSH1 0xA DUP2 MSTORE POP PUSH1 0x1 PUSH1 0x0 DUP3 ADD MLOAD DUP2 PUSH1 0x0 ADD SSTORE PUSH1 0x20 DUP3 ADD MLOAD DUP2 PUSH1 0x1 ADD SSTORE PUSH1 0x40 DUP3 ADD MLOAD DUP2 PUSH1 0x2 ADD SSTORE PUSH1 0x60 DUP3 ADD MLOAD DUP2 PUSH1 0x3 ADD SSTORE POP POP PUSH1 0x40 MLOAD DUP1 PUSH1 0x80 ADD PUSH1 0x40 MSTORE DUP1 PUSH1 0x28 DUP2 MSTORE PUSH1 0x20 ADD PUSH1 0x14 DUP2 MSTORE PUSH1 0x20 ADD PUSH1 0x1E DUP2 MSTORE PUSH1 0x20 ADD PUSH1 0xF DUP2 MSTORE POP PUSH1 0x5 PUSH1 0x0 DUP3 ADD MLOAD DUP2 PUSH1 0x0 ADD SSTORE PUSH1 0x20 DUP3 ADD MLOAD DUP2 PUSH1 0x1 ADD SSTORE PUSH1 0x40 DUP3 ADD MLOAD DUP2 PUSH1 0x2 ADD SSTORE PUSH1 0x60 DUP3 ADD MLOAD DUP2 PUSH1 0x3 ADD SSTORE POP POP PUSH1 0x40 MLOAD DUP1 PUSH1 0x80 ADD PUSH1 0x40 MSTORE DUP1 PUSH1 0x32 DUP2 MSTORE PUSH1 0x20 ADD PUSH1 0x1E DUP2 MSTORE PUSH1 0x20 ADD PUSH1 0x14 DUP2 MSTORE PUSH1 0x20 ADD PUSH1 0xA DUP2 MSTORE POP PUSH1 0x9 PUSH1 0x0 DUP3 ADD MLOAD DUP2 PUSH1 0x0 ADD SSTORE PUSH1 0x20 DUP3 ADD MLOAD DUP2 PUSH1 0x1 ADD SSTORE PUSH1 0x40 DUP3 ADD MLOAD DUP2 PUSH1 0x2 ADD SSTORE PUSH1 0x60 DUP3 ADD MLOAD DUP2 PUSH1 0x3 ADD SSTORE POP POP PUSH1 0x40 MLOAD DUP1 PUSH1 0x80 ADD PUSH1 0x40 MSTORE DUP1 PUSH1 0x28 DUP2 MSTORE PUSH1 0x20 ADD PUSH1 0x14 DUP2 MSTORE PUSH1 0x20 ADD PUSH1 0x1E DUP2 MSTORE PUSH1 0x20 ADD PUSH1 0xF DUP2 MSTORE POP PUSH1 0xD PUSH1 0x0 DUP3 ADD MLOAD DUP2 PUSH1 0x0 ADD SSTORE PUSH1 0x20 DUP3 ADD MLOAD DUP2 PUSH1 0x1 ADD SSTORE PUSH1 0x40 DUP3 ADD MLOAD DUP2 PUSH1 0x2 ADD SSTORE PUSH1 0x60 DUP3 ADD MLOAD DUP2 PUSH1 0x3 ADD SSTORE POP POP PUSH1 0x40 MLOAD DUP1 PUSH2 0x280 ADD PUSH1 0x40 MSTORE DUP1 PUSH1 0x40 MLOAD DUP1 PUSH2 0x280 ADD PUSH1 0x40 MSTORE DUP1 PUSH1 0x4 PUSH1 0xFF AND DUP2 MSTORE PUSH1 0x20 ADD PUSH1 0x4 PUSH1 0xFF AND DUP2 MSTORE PUSH1 0x20 ADD PUSH1 0x4 PUSH1 0xFF AND DUP2 MSTORE PUSH1 0x20 ADD PUSH1 0x4 PUSH1 0xFF AND DUP2 MSTORE PUSH1 0x20 ADD PUSH1 0x4 PUSH1 0xFF AND DUP2 MSTORE PUSH1 0x20 ADD PUSH1 0x4 PUSH1 0xFF AND DUP2 MSTORE PUSH1 0x20 ADD PUSH1 0x3 PUSH1 0xFF AND DUP2 MSTORE PUSH1 0x20 ADD PUSH1 0x3 PUSH1 0xFF AND DUP2 MSTORE PUSH1 0x20 ADD PUSH1 0x3 PUSH1 0xFF AND DUP2 MSTORE PUSH1 0x20 ADD PUSH1 0x3 PUSH1 0xFF AND DUP2 MSTORE PUSH1 0x20 ADD PUSH1 0x3 PUSH1 0xFF AND DUP2 MSTORE PUSH1 0x20 ADD PUSH1 0x3 PUSH1 0xFF AND DUP2 MSTORE PUSH1 0x20 ADD PUSH1 0x2 PUSH1 0xFF AND DUP2 MSTORE PUSH1 0x20 ADD PUSH1 0x2 PUSH1 0xFF AND DUP2 MSTORE PUSH1 0x20 ADD PUSH1 0x1 PUSH1 0xFF AND DUP2 MSTORE PUSH1 0x20 ADD PUSH1 0x2 PUSH1 0xFF AND DUP2 MSTORE PUSH1 0x20 ADD PUSH1 0x2 PUSH1 0xFF AND DUP2 MSTORE PUSH1 0x20 ADD PUSH1 0x2 PUSH1 0xFF AND DUP2 MSTORE PUSH1 0x20 ADD PUSH1 0x2 PUSH1 0xFF AND DUP2 MSTORE PUSH1 0x20 ADD PUSH1 0x2 PUSH1 0xFF AND DUP2 MSTORE POP DUP2 MSTORE PUSH1 0x20 ADD PUSH1 0x40 MLOAD DUP1 PUSH2 0x280 ADD PUSH1 0x40 MSTORE DUP1 PUSH1 0x4 PUSH1 0xFF AND DUP2 MSTORE PUSH1 0x20 ADD PUSH1 0x4 PUSH1 0xFF AND DUP2 MSTORE PUSH1 0x20 ADD PUSH1 0x4 PUSH1 0xFF AND DUP2 MSTORE PUSH1 0x20 ADD PUSH1 0x4 PUSH1 0xFF AND DUP2 MSTORE PUSH1 0x20 ADD PUSH1 0x4 PUSH1 0xFF AND DUP2 MSTORE PUSH1 0x20 ADD PUSH1 0x4 PUSH1 0xFF AND DUP2 MSTORE PUSH1 0x20 ADD PUSH1 0x4 PUSH1 0xFF AND DUP2 MSTORE PUSH1 0x20 ADD PUSH1 0x3 PUSH1 0xFF AND DUP2 MSTORE PUSH1 0x20 ADD PUSH1 0x3 PUSH1 0xFF AND DUP2 MSTORE PUSH1 0x20 ADD PUSH1 0x3 PUSH1 0xFF AND DUP2 MSTORE PUSH1 0x20 ADD PUSH1 0x3 PUSH1 0xFF AND DUP2 MSTORE PUSH1 0x20 ADD PUSH1 0x3 PUSH1 0xFF AND DUP2 MSTORE PUSH1 0x20 ADD PUSH1 0x2 PUSH1 0xFF AND DUP2 MSTORE PUSH1 0x20 ADD PUSH1 0x1 PUSH1 0xFF AND DUP2 MSTORE PUSH1 0x20 ADD PUSH1 0x1 PUSH1 0xFF AND DUP2 MSTORE PUSH1 0x20 ADD PUSH1 0x2 PUSH1 0xFF AND DUP2 MSTORE PUSH1 0x20 ADD PUSH1 0x2 PUSH1 0xFF AND DUP2 MSTORE PUSH1 0x20 ADD PUSH1 0x2 PUSH1 0xFF AND DUP2 MSTORE PUSH1 0x20 ADD PUSH1 0x2 PUSH1 0xFF AND DUP2 MSTORE PUSH1 0x20 ADD PUSH1 0x2 PUSH1 0xFF AND DUP2 MSTORE POP DUP2 MSTORE PUSH1 0x20 ADD PUSH1 0x40 MLOAD DUP1 PUSH2 0x280 ADD PUSH1 0x40 MSTORE DUP1 PUSH1 0x4 PUSH1 0xFF AND DUP2 MSTORE PUSH1 0x20 ADD PUSH1 0x4 PUSH1 0xFF AND DUP2 MSTORE PUSH1 0x20 ADD PUSH1 0x4 PUSH1 0xFF AND DUP2 MSTORE PUSH1 0x20 ADD PUSH1 0x4 PUSH1 0xFF AND DUP2 MSTORE PUSH1 0x20 ADD PUSH1 0x4 PUSH1 0xFF AND DUP2 MSTORE PUSH1 0x20 ADD PUSH1 0x4 PUSH1 0xFF AND DUP2 MSTORE PUSH1 0x20 ADD PUSH1 0x4 PUSH1 0xFF AND DUP2 MSTORE PUSH1 0x20 ADD PUSH1 0x4 PUSH1 0xFF AND DUP2 MSTORE PUSH1 0x20 ADD PUSH1 0x3 PUSH1 0xFF AND DUP2 MSTORE PUSH1 0x20 ADD PUSH1 0x3 PUSH1 0xFF AND DUP2 MSTORE PUSH1 0x20 ADD PUSH1 0x3 PUSH1 0xFF AND DUP2 MSTORE PUSH1 0x20 ADD PUSH1 0x3 PUSH1 0xFF AND DUP2 MSTORE PUSH1 0x20 ADD PUSH1 0x2 PUSH1 0xFF AND DUP2 MSTORE PUSH1 0x20 ADD PUSH1 0x2 PUSH1 0xFF AND DUP2 MSTORE PUSH1 0x20 ADD PUSH1 0x1 PUSH1 0xFF AND DUP2 MSTORE PUSH1 0x20 ADD PUSH1 0x1 PUSH1 0xFF AND DUP2 MSTORE PUSH1 0x20 ADD PUSH1 0x2 PUSH1 0xFF AND DUP2 MSTORE PUSH1 0x20 ADD PUSH1 0x2 PUSH1 0xFF AND DUP2 MSTORE PUSH1 0x20 ADD PUSH1 0x2 PUSH1 0xFF AND DUP2 MSTORE PUSH1 0x20 ADD PUSH1 0x2 PUSH1 0xFF AND DUP2 MSTORE POP DUP2 MSTORE PUSH1 0x20 ADD PUSH1 0x40 MLOAD DUP1 PUSH2 0x280 ADD PUSH1 0x40 MSTORE DUP1 PUSH1 0x4 PUSH1 0xFF AND DUP2 MSTORE PUSH1 0x20 ADD PUSH1 0x4 PUSH1 0xFF AND DUP2 MSTORE PUSH1 0x20 ADD PUSH1 0x4 PUSH1 0xFF AND DUP2 MSTORE PUSH1 0x20 ADD PUSH1 0x4 PUSH1 0xFF AND DUP2 MSTORE PUSH1 0x20 ADD PUSH1 0x4 PUSH1 0xFF AND DUP2 MSTORE PUSH1 0x20 ADD PUSH1 0x4 PUSH1 0xFF AND DUP2 MSTORE PUSH1 0x20 ADD PUSH1 0x4 PUSH1 0xFF AND DUP2 MSTORE PUSH1 0x20 ADD PUSH1 0x4 PUSH1 0xFF AND DUP2 MSTORE PUSH1 0x20 ADD PUSH1 0x3 PUSH1 0xFF AND DUP2 MSTORE PUSH1 0x20 ADD PUSH1 0x3 PUSH1 0xFF AND DUP2 MSTORE PUSH1 0x20 ADD PUSH1 0x3 PUSH1 0xFF AND DUP2 MSTORE PUSH1 0x20 ADD PUSH1 0x3 PUSH1 0xFF AND DUP2 MSTORE PUSH1 0x20 ADD PUSH1 0x3 PUSH1 0xFF AND DUP2 MSTORE PUSH1 0x20 ADD PUSH1 0x1 PUSH1 0xFF AND DUP2 MSTORE PUSH1 0x20 ADD PUSH1 0x1 PUSH1 0xFF AND DUP2 MSTORE PUSH1 0x20 ADD PUSH1 0x1 PUSH1 0xFF AND DUP2 MSTORE PUSH1 0x20 ADD PUSH1 0x2 PUSH1 0xFF AND DUP2 MSTORE PUSH1 0x20 ADD PUSH1 0x2 PUSH1 0xFF AND DUP2 MSTORE PUSH1 0x20 ADD PUSH1 0x2 PUSH1 0xFF AND DUP2 MSTORE PUSH1 0x20 ADD PUSH1 0x2 PUSH1 0xFF AND DUP2 MSTORE POP DUP2 MSTORE PUSH1 0x20 ADD PUSH1 0x40 MLOAD DUP1 PUSH2 0x280 ADD PUSH1 0x40 MSTORE DUP1 PUSH1 0x3 PUSH1 0xFF AND DUP2 MSTORE PUSH1 0x20 ADD PUSH1 0x3 PUSH1 0xFF AND DUP2 MSTORE PUSH1 0x20 ADD PUSH1 0x3 PUSH1 0xFF AND DUP2 MSTORE PUSH1 0x20 ADD PUSH1 0x3 PUSH1 0xFF AND DUP2 MSTORE PUSH1 0x20 ADD PUSH1 0x3 PUSH1 0xFF AND DUP2 MSTORE PUSH1 0x20 ADD PUSH1 0x3 PUSH1 0xFF AND DUP2 MSTORE PUSH1 0x20 ADD PUSH1 0x3 PUSH1 0xFF AND DUP2 MSTORE PUSH1 0x20 ADD PUSH1 0x3 PUSH1 0xFF AND DUP2 MSTORE PUSH1 0x20 ADD PUSH1 0x3 PUSH1 0xFF AND DUP2 MSTORE PUSH1 0x20 ADD PUSH1 0x3 PUSH1 0xFF AND DUP2 MSTORE PUSH1 0x20 ADD PUSH1 0x3 PUSH1 0xFF AND DUP2 MSTORE PUSH1 0x20 ADD PUSH1 0x3 PUSH1 0xFF AND DUP2 MSTORE PUSH1 0x20 ADD PUSH1 0x1 PUSH1 0xFF AND DUP2 MSTORE PUSH1 0x20 ADD PUSH1 0x1 PUSH1 0xFF AND DUP2 MSTORE PUSH1 0x20 ADD PUSH1 0x1 PUSH1 0xFF AND DUP2 MSTORE PUSH1 0x20 ADD PUSH1 0x1 PUSH1 0xFF AND DUP2 MSTORE PUSH1 0x20 ADD PUSH1 0x2 PUSH1 0xFF AND DUP2 MSTORE PUSH1 0x20 ADD PUSH1 0x2 PUSH1 0xFF AND DUP2 MSTORE PUSH1 0x20 ADD PUSH1 0x2 PUSH1 0xFF AND DUP2 MSTORE PUSH1 0x20 ADD PUSH1 0x2 PUSH1 0xFF AND DUP2 MSTORE POP DUP2 MSTORE PUSH1 0x20 ADD PUSH1 0x40 MLOAD DUP1 PUSH2 0x280 ADD PUSH1 0x40 MSTORE DUP1 PUSH1 0x3 PUSH1 0xFF AND DUP2 MSTORE PUSH1 0x20 ADD PUSH1 0x3 PUSH1 0xFF AND DUP2 MSTORE PUSH1 0x20 ADD PUSH1 0x3 PUSH1 0xFF AND DUP2 MSTORE PUSH1 0x20 ADD PUSH1 0x3 PUSH1 0xFF AND DUP2 MSTORE PUSH1 0x20 ADD PUSH1 0x3 PUSH1 0xFF AND DUP2 MSTORE PUSH1 0x20 ADD PUSH1 0x3 PUSH1 0xFF AND DUP2 MSTORE PUSH1 0x20 ADD PUSH1 0x3 PUSH1 0xFF AND DUP2 MSTORE PUSH1 0x20 ADD PUSH1 0x3 PUSH1 0xFF AND DUP2 MSTORE PUSH1 0x20 ADD PUSH1 0x3 PUSH1 0xFF AND DUP2 MSTORE PUSH1 0x20 ADD PUSH1 0x3 PUSH1 0xFF AND DUP2 MSTORE PUSH1 0x20 ADD PUSH1 0x3 PUSH1 0xFF AND DUP2 MSTORE PUSH1 0x20 ADD PUSH1 0x3 PUSH1 0xFF AND DUP2 MSTORE PUSH1 0x20 ADD PUSH1 0x1 PUSH1 0xFF AND DUP2 MSTORE PUSH1 0x20 ADD PUSH1 0x1 PUSH1 0xFF AND DUP2 MSTORE PUSH1 0x20 ADD PUSH1 0x1 PUSH1 0xFF AND DUP2 MSTORE PUSH1 0x20 ADD PUSH1 0x1 PUSH1 0xFF AND DUP2 MSTORE PUSH1 0x20 ADD PUSH1 0x2 PUSH1 0xFF AND DUP2 MSTORE PUSH1 0x20 ADD PUSH1 0x2 PUSH1 0xFF AND DUP2 MSTORE PUSH1 0x20 ADD PUSH1 0x2 PUSH1 0xFF AND DUP2 MSTORE PUSH1 0x20 ADD PUSH1 0x2 PUSH1 0xFF AND DUP2 MSTORE POP DUP2 MSTORE PUSH1 0x20 ADD PUSH1 0x40 MLOAD DUP1 PUSH2 0x280 ADD PUSH1 0x40 MSTORE DUP1 PUSH1 0x3 PUSH1 0xFF AND DUP2 MSTORE PUSH1 0x20 ADD PUSH1 0x3 PUSH1 0xFF AND DUP2 MSTORE PUSH1 0x20 ADD PUSH1 0x3 PUSH1 0xFF AND DUP2 MSTORE PUSH1 0x20 ADD PUSH1 0x3 PUSH1 0xFF AND DUP2 MSTORE PUSH1 0x20 ADD PUSH1 0x3 PUSH1 0xFF AND DUP2 MSTORE PUSH1 0x20 ADD PUSH1 0x3 PUSH1 0xFF AND DUP2 MSTORE PUSH1 0x20 ADD PUSH1 0x3 PUSH1 0xFF AND DUP2 MSTORE PUSH1 0x20 ADD PUSH1 0x3 PUSH1 0xFF AND DUP2 MSTORE PUSH1 0x20 ADD PUSH1 0x3 PUSH1 0xFF AND DUP2 MSTORE PUSH1 0x20 ADD PUSH1 0x3 PUSH1 0xFF AND DUP2 MSTORE PUSH1 0x20 ADD PUSH1 0x3 PUSH1 0xFF AND DUP2 MSTORE PUSH1 0x20 ADD PUSH1 0x3 PUSH1 0xFF AND DUP2 MSTORE PUSH1 0x20 ADD PUSH1 0x1 PUSH1 0xFF AND DUP2 MSTORE PUSH1 0x20 ADD PUSH1 0x1 PUSH1 0xFF AND DUP2 MSTORE PUSH1 0x20 ADD PUSH1 0x1 PUSH1 0xFF AND DUP2 MSTORE PUSH1 0x20 ADD PUSH1 0x1 PUSH1 0xFF AND DUP2 MSTORE PUSH1 0x20 ADD PUSH1 0x1 PUSH1 0xFF AND DUP2 MSTORE PUSH1 0x20 ADD PUSH1 0x1 PUSH1 0xFF AND DUP2 MSTORE PUSH1 0x20 ADD PUSH1 0x1 PUSH1 0xFF AND DUP2 MSTORE PUSH1 0x20 ADD PUSH1 0x1 PUSH1 0xFF AND DUP2 MSTORE POP DUP2 MSTORE PUSH1 0x20 ADD PUSH1 0x40 MLOAD DUP1 PUSH2 0x280 ADD PUSH1 0x40 MSTORE DUP1 PUSH1 0x3 PUSH1 0xFF AND DUP2 MSTORE PUSH1 0x20 ADD PUSH1 0x3 PUSH1 0xFF AND DUP2 MSTORE PUSH1 0x20 ADD PUSH1 0x3 PUSH1 0xFF AND DUP2 MSTORE PUSH1 0x20 ADD PUSH1 0x1 PUSH1 0xFF AND DUP2 MSTORE PUSH1 0x20 ADD PUSH1 0x3 PUSH1 0xFF AND DUP2 MSTORE PUSH1 0x20 ADD PUSH1 0x3 PUSH1 0xFF AND DUP2 MSTORE PUSH1 0x20 ADD PUSH1 0x3 PUSH1 0xFF AND DUP2 MSTORE PUSH1 0x20 ADD PUSH1 0x3 PUSH1 0xFF AND DUP2 MSTORE PUSH1 0x20 ADD PUSH1 0x3 PUSH1 0xFF AND DUP2 MSTORE PUSH1 0x20 ADD PUSH1 0x3 PUSH1 0xFF AND DUP2 MSTORE PUSH1 0x20 ADD PUSH1 0x3 PUSH1 0xFF AND DUP2 MSTORE PUSH1 0x20 ADD PUSH1 0x1 PUSH1 0xFF AND DUP2 MSTORE PUSH1 0x20 ADD PUSH1 0x2 PUSH1 0xFF AND DUP2 MSTORE PUSH1 0x20 ADD PUSH1 0x2 PUSH1 0xFF AND DUP2 MSTORE PUSH1 0x20 ADD PUSH1 0x2 PUSH1 0xFF AND DUP2 MSTORE PUSH1 0x20 ADD PUSH1 0x2 PUSH1 0xFF AND DUP2 MSTORE PUSH1 0x20 ADD PUSH1 0x1 PUSH1 0xFF AND DUP2 MSTORE PUSH1 0x20 ADD PUSH1 0x1 PUSH1 0xFF AND DUP2 MSTORE PUSH1 0x20 ADD PUSH1 0x1 PUSH1 0xFF AND DUP2 MSTORE PUSH1 0x20 ADD PUSH1 0x1 PUSH1 0xFF AND DUP2 MSTORE POP DUP2 MSTORE PUSH1 0x20 ADD PUSH1 0x40 MLOAD DUP1 PUSH2 0x280 ADD PUSH1 0x40 MSTORE DUP1 PUSH1 0x3 PUSH1 0xFF AND DUP2 MSTORE PUSH1 0x20 ADD PUSH1 0x3 PUSH1 0xFF AND DUP2 MSTORE PUSH1 0x20 ADD PUSH1 0x3 PUSH1 0xFF AND DUP2 MSTORE PUSH1 0x20 ADD PUSH1 0x1 PUSH1 0xFF AND DUP2 MSTORE PUSH1 0x20 ADD PUSH1 0x1 PUSH1 0xFF AND DUP2 MSTORE PUSH1 0x20 ADD PUSH1 0x2 PUSH1 0xFF AND DUP2 MSTORE PUSH1 0x20 ADD PUSH1 0x2 PUSH1 0xFF AND DUP2 MSTORE PUSH1 0x20 ADD PUSH1 0x2 PUSH1 0xFF AND DUP2 MSTORE PUSH1 0x20 ADD PUSH1 0x2 PUSH1 0xFF AND DUP2 MSTORE PUSH1 0x20 ADD PUSH1 0x2 PUSH1 0xFF AND DUP2 MSTORE PUSH1 0x20 ADD PUSH1 0x2 PUSH1 0xFF AND DUP2 MSTORE PUSH1 0x20 ADD PUSH1 0x1 PUSH1 0xFF AND DUP2 MSTORE PUSH1 0x20 ADD PUSH1 0x2 PUSH1 0xFF AND DUP2 MSTORE PUSH1 0x20 ADD PUSH1 0x2 PUSH1 0xFF AND DUP2 MSTORE PUSH1 0x20 ADD PUSH1 0x2 PUSH1 0xFF AND DUP2 MSTORE PUSH1 0x20 ADD PUSH1 0x2 PUSH1 0xFF AND DUP2 MSTORE PUSH1 0x20 ADD PUSH1 0x2 PUSH1 0xFF AND DUP2 MSTORE PUSH1 0x20 ADD PUSH1 0x2 PUSH1 0xFF AND DUP2 MSTORE PUSH1 0x20 ADD PUSH1 0x2 PUSH1 0xFF AND DUP2 MSTORE PUSH1 0x20 ADD PUSH1 0x1 PUSH1 0xFF AND DUP2 MSTORE POP DUP2 MSTORE PUSH1 0x20 ADD PUSH1 0x40 MLOAD DUP1 PUSH2 0x280 ADD PUSH1 0x40 MSTORE DUP1 PUSH1 0x1 PUSH1 0xFF AND DUP2 MSTORE PUSH1 0x20 ADD PUSH1 0x2 PUSH1 0xFF AND DUP2 MSTORE PUSH1 0x20 ADD PUSH1 0x2 PUSH1 0xFF AND DUP2 MSTORE PUSH1 0x20 ADD PUSH1 0x1 PUSH1 0xFF AND DUP2 MSTORE PUSH1 0x20 ADD PUSH1 0x2 PUSH1 0xFF AND DUP2 MSTORE PUSH1 0x20 ADD PUSH1 0x2 PUSH1 0xFF AND DUP2 MSTORE PUSH1 0x20 ADD PUSH1 0x2 PUSH1 0xFF AND DUP2 MSTORE PUSH1 0x20 ADD PUSH1 0x2 PUSH1 0xFF AND DUP2 MSTORE PUSH1 0x20 ADD PUSH1 0x2 PUSH1 0xFF AND DUP2 MSTORE PUSH1 0x20 ADD PUSH1 0x2 PUSH1 0xFF AND DUP2 MSTORE PUSH1 0x20 ADD PUSH1 0x2 PUSH1 0xFF AND DUP2 MSTORE PUSH1 0x20 ADD PUSH1 0x1 PUSH1 0xFF AND DUP2 MSTORE PUSH1 0x20 ADD PUSH1 0x2 PUSH1 0xFF AND DUP2 MSTORE PUSH1 0x20 ADD PUSH1 0x2 PUSH1 0xFF AND DUP2 MSTORE PUSH1 0x20 ADD PUSH1 0x2 PUSH1 0xFF AND DUP2 MSTORE PUSH1 0x20 ADD PUSH1 0x2 PUSH1 0xFF AND DUP2 MSTORE PUSH1 0x20 ADD PUSH1 0x2 PUSH1 0xFF AND DUP2 MSTORE PUSH1 0x20 ADD PUSH1 0x2 PUSH1 0xFF AND DUP2 MSTORE PUSH1 0x20 ADD PUSH1 0x2 PUSH1 0xFF AND DUP2 MSTORE PUSH1 0x20 ADD PUSH1 0x1 PUSH1 0xFF AND DUP2 MSTORE POP DUP2 MSTORE PUSH1 0x20 ADD PUSH1 0x40 MLOAD DUP1 PUSH2 0x280 ADD PUSH1 0x40 MSTORE DUP1 PUSH1 0x2 PUSH1 0xFF AND DUP2 MSTORE PUSH1 0x20 ADD PUSH1 0x2 PUSH1 0xFF AND DUP2 MSTORE PUSH1 0x20 ADD PUSH1 0x1 PUSH1 0xFF AND DUP2 MSTORE PUSH1 0x20 ADD PUSH1 0x1 PUSH1 0xFF AND DUP2 MSTORE PUSH1 0x20 ADD PUSH1 0x2 PUSH1 0xFF AND DUP2 MSTORE PUSH1 0x20 ADD PUSH1 0x2 PUSH1 0xFF AND DUP2 MSTORE PUSH1 0x20 ADD PUSH1 0x2 PUSH1 0xFF AND DUP2 MSTORE PUSH1 0x20 ADD PUSH1 0x2 PUSH1 0xFF AND DUP2 MSTORE PUSH1 0x20 ADD PUSH1 0x2 PUSH1 0xFF AND DUP2 MSTORE PUSH1 0x20 ADD PUSH1 0x2 PUSH1 0xFF AND DUP2 MSTORE PUSH1 0x20 ADD PUSH1 0x1 PUSH1 0xFF AND DUP2 MSTORE PUSH1 0x20 ADD PUSH1 0x1 PUSH1 0xFF AND DUP2 MSTORE PUSH1 0x20 ADD PUSH1 0x2 PUSH1 0xFF AND DUP2 MSTORE PUSH1 0x20 ADD PUSH1 0x2 PUSH1 0xFF AND DUP2 MSTORE PUSH1 0x20 ADD PUSH1 0x2 PUSH1 0xFF AND DUP2 MSTORE PUSH1 0x20 ADD PUSH1 0x2 PUSH1 0xFF AND DUP2 MSTORE PUSH1 0x20 ADD PUSH1 0x2 PUSH1 0xFF AND DUP2 MSTORE PUSH1 0x20 ADD PUSH1 0x2 PUSH1 0xFF AND DUP2 MSTORE PUSH1 0x20 ADD PUSH1 0x1 PUSH1 0xFF AND DUP2 MSTORE PUSH1 0x20 ADD PUSH1 0x1 PUSH1 0xFF AND DUP2 MSTORE POP DUP2 MSTORE PUSH1 0x20 ADD PUSH1 0x40 MLOAD DUP1 PUSH2 0x280 ADD PUSH1 0x40 MSTORE DUP1 PUSH1 0x3 PUSH1 0xFF AND DUP2 MSTORE PUSH1 0x20 ADD PUSH1 0x3 PUSH1 0xFF AND DUP2 MSTORE PUSH1 0x20 ADD PUSH1 0x3 PUSH1 0xFF AND DUP2 MSTORE PUSH1 0x20 ADD PUSH1 0x2 PUSH1 0xFF AND DUP2 MSTORE PUSH1 0x20 ADD PUSH1 0x1 PUSH1 0xFF AND DUP2 MSTORE PUSH1 0x20 ADD PUSH1 0x2 PUSH1 0xFF AND DUP2 MSTORE PUSH1 0x20 ADD PUSH1 0x2 PUSH1 0xFF AND DUP2 MSTORE PUSH1 0x20 ADD PUSH1 0x2 PUSH1 0xFF AND DUP2 MSTORE PUSH1 0x20 ADD PUSH1 0x2 PUSH1 0xFF AND DUP2 MSTORE PUSH1 0x20 ADD PUSH1 0x2 PUSH1 0xFF AND DUP2 MSTORE PUSH1 0x20 ADD PUSH1 0x1 PUSH1 0xFF AND DUP2 MSTORE PUSH1 0x20 ADD PUSH1 0x2 PUSH1 0xFF AND DUP2 MSTORE PUSH1 0x20 ADD PUSH1 0x2 PUSH1 0xFF AND DUP2 MSTORE PUSH1 0x20 ADD PUSH1 0x2 PUSH1 0xFF AND DUP2 MSTORE PUSH1 0x20 ADD PUSH1 0x2 PUSH1 0xFF AND DUP2 MSTORE PUSH1 0x20 ADD PUSH1 0x1 PUSH1 0xFF AND DUP2 MSTORE PUSH1 0x20 ADD PUSH1 0x1 PUSH1 0xFF AND DUP2 MSTORE PUSH1 0x20 ADD PUSH1 0x1 PUSH1 0xFF AND DUP2 MSTORE PUSH1 0x20 ADD PUSH1 0x1 PUSH1 0xFF AND DUP2 MSTORE PUSH1 0x20 ADD PUSH1 0x1 PUSH1 0xFF AND DUP2 MSTORE POP DUP2 MSTORE PUSH1 0x20 ADD PUSH1 0x40 MLOAD DUP1 PUSH2 0x280 ADD PUSH1 0x40 MSTORE DUP1 PUSH1 0x3 PUSH1 0xFF AND DUP2 MSTORE PUSH1 0x20 ADD PUSH1 0x3 PUSH1 0xFF AND DUP2 MSTORE PUSH1 0x20 ADD PUSH1 0x3 PUSH1 0xFF AND DUP2 MSTORE PUSH1 0x20 ADD PUSH1 0x3 PUSH1 0xFF AND DUP2 MSTORE PUSH1 0x20 ADD PUSH1 0x1 PUSH1 0xFF AND DUP2 MSTORE PUSH1 0x20 ADD PUSH1 0x1 PUSH1 0xFF AND DUP2 MSTORE PUSH1 0x20 ADD PUSH1 0x2 PUSH1 0xFF AND DUP2 MSTORE PUSH1 0x20 ADD PUSH1 0x2 PUSH1 0xFF AND DUP2 MSTORE PUSH1 0x20 ADD PUSH1 0x2 PUSH1 0xFF AND DUP2 MSTORE PUSH1 0x20 ADD PUSH1 0x2 PUSH1 0xFF AND DUP2 MSTORE PUSH1 0x20 ADD PUSH1 0x1 PUSH1 0xFF AND DUP2 MSTORE PUSH1 0x20 ADD PUSH1 0x1 PUSH1 0xFF AND DUP2 MSTORE PUSH1 0x20 ADD PUSH1 0x2 PUSH1 0xFF AND DUP2 MSTORE PUSH1 0x20 ADD PUSH1 0x2 PUSH1 0xFF AND DUP2 MSTORE PUSH1 0x20 ADD PUSH1 0x2 PUSH1 0xFF AND DUP2 MSTORE PUSH1 0x20 ADD PUSH1 0x1 PUSH1 0xFF AND DUP2 MSTORE PUSH1 0x20 ADD PUSH1 0x1 PUSH1 0xFF AND DUP2 MSTORE PUSH1 0x20 ADD PUSH1 0x1 PUSH1 0xFF AND DUP2 MSTORE PUSH1 0x20 ADD PUSH1 0x1 PUSH1 0xFF AND DUP2 MSTORE PUSH1 0x20 ADD PUSH1 0x1 PUSH1 0xFF AND DUP2 MSTORE POP DUP2 MSTORE PUSH1 0x20 ADD PUSH1 0x40 MLOAD DUP1 PUSH2 0x280 ADD PUSH1 0x40 MSTORE DUP1 PUSH1 0x3 PUSH1 0xFF AND DUP2 MSTORE PUSH1 0x20 ADD PUSH1 0x3 PUSH1 0xFF AND DUP2 MSTORE PUSH1 0x20 ADD PUSH1 0x3 PUSH1 0xFF AND DUP2 MSTORE PUSH1 0x20 ADD PUSH1 0x3 PUSH1 0xFF AND DUP2 MSTORE PUSH1 0x20 ADD PUSH1 0x3 PUSH1 0xFF AND DUP2 MSTORE PUSH1 0x20 ADD PUSH1 0x1 PUSH1 0xFF AND DUP2 MSTORE PUSH1 0x20 ADD PUSH1 0x2 PUSH1 0xFF AND DUP2 MSTORE PUSH1 0x20 ADD PUSH1 0x2 PUSH1 0xFF AND DUP2 MSTORE PUSH1 0x20 ADD PUSH1 0x2 PUSH1 0xFF AND DUP2 MSTORE PUSH1 0x20 ADD PUSH1 0x2 PUSH1 0xFF AND DUP2 MSTORE PUSH1 0x20 ADD PUSH1 0x1 PUSH1 0xFF AND DUP2 MSTORE PUSH1 0x20 ADD PUSH1 0x1 PUSH1 0xFF AND DUP2 MSTORE PUSH1 0x20 ADD PUSH1 0x1 PUSH1 0xFF AND DUP2 MSTORE PUSH1 0x20 ADD PUSH1 0x2 PUSH1 0xFF AND DUP2 MSTORE PUSH1 0x20 ADD PUSH1 0x2 PUSH1 0xFF AND DUP2 MSTORE PUSH1 0x20 ADD PUSH1 0x2 PUSH1 0xFF AND DUP2 MSTORE PUSH1 0x20 ADD PUSH1 0x2 PUSH1 0xFF AND DUP2 MSTORE PUSH1 0x20 ADD PUSH1 0x1 PUSH1 0xFF AND DUP2 MSTORE PUSH1 0x20 ADD PUSH1 0x1 PUSH1 0xFF AND DUP2 MSTORE PUSH1 0x20 ADD PUSH1 0x1 PUSH1 0xFF AND DUP2 MSTORE POP DUP2 MSTORE PUSH1 0x20 ADD PUSH1 0x40 MLOAD DUP1 PUSH2 0x280 ADD PUSH1 0x40 MSTORE DUP1 PUSH1 0x3 PUSH1 0xFF AND DUP2 MSTORE PUSH1 0x20 ADD PUSH1 0x3 PUSH1 0xFF AND DUP2 MSTORE PUSH1 0x20 ADD PUSH1 0x3 PUSH1 0xFF AND DUP2 MSTORE PUSH1 0x20 ADD PUSH1 0x3 PUSH1 0xFF AND DUP2 MSTORE PUSH1 0x20 ADD PUSH1 0x3 PUSH1 0xFF AND DUP2 MSTORE PUSH1 0x20 ADD PUSH1 0x2 PUSH1 0xFF AND DUP2 MSTORE PUSH1 0x20 ADD PUSH1 0x2 PUSH1 0xFF AND DUP2 MSTORE PUSH1 0x20 ADD PUSH1 0x2 PUSH1 0xFF AND DUP2 MSTORE PUSH1 0x20 ADD PUSH1 0x3 PUSH1 0xFF AND DUP2 MSTORE PUSH1 0x20 ADD PUSH1 0x3 PUSH1 0xFF AND DUP2 MSTORE PUSH1 0x20 ADD PUSH1 0x2 PUSH1 0xFF AND DUP2 MSTORE PUSH1 0x20 ADD PUSH1 0x2 PUSH1 0xFF AND DUP2 MSTORE PUSH1 0x20 ADD PUSH1 0x1 PUSH1 0xFF AND DUP2 MSTORE PUSH1 0x20 ADD PUSH1 0x2 PUSH1 0xFF AND DUP2 MSTORE PUSH1 0x20 ADD PUSH1 0x2 PUSH1 0xFF AND DUP2 MSTORE PUSH1 0x20 ADD PUSH1 0x2 PUSH1 0xFF AND DUP2 MSTORE PUSH1 0x20 ADD PUSH1 0x2 PUSH1 0xFF AND DUP2 MSTORE PUSH1 0x20 ADD PUSH1 0x1 PUSH1 0xFF AND DUP2 MSTORE PUSH1 0x20 ADD PUSH1 0x1 PUSH1 0xFF AND DUP2 MSTORE PUSH1 0x20 ADD PUSH1 0x1 PUSH1 0xFF AND DUP2 MSTORE POP DUP2 MSTORE PUSH1 0x20 ADD PUSH1 0x40 MLOAD DUP1 PUSH2 0x280 ADD PUSH1 0x40 MSTORE DUP1 PUSH1 0x2 PUSH1 0xFF AND DUP2 MSTORE PUSH1 0x20 ADD PUSH1 0x2 PUSH1 0xFF AND DUP2 MSTORE PUSH1 0x20 ADD PUSH1 0x2 PUSH1 0xFF AND DUP2 MSTORE PUSH1 0x20 ADD PUSH1 0x1 PUSH1 0xFF AND DUP2 MSTORE PUSH1 0x20 ADD PUSH1 0x1 PUSH1 0xFF AND DUP2 MSTORE PUSH1 0x20 ADD PUSH1 0x1 PUSH1 0xFF AND DUP2 MSTORE PUSH1 0x20 ADD PUSH1 0x1 PUSH1 0xFF AND DUP2 MSTORE PUSH1 0x20 ADD PUSH1 0x1 PUSH1 0xFF AND DUP2 MSTORE PUSH1 0x20 ADD PUSH1 0x3 PUSH1 0xFF AND DUP2 MSTORE PUSH1 0x20 ADD PUSH1 0x3 PUSH1 0xFF AND DUP2 MSTORE PUSH1 0x20 ADD PUSH1 0x3 PUSH1 0xFF AND DUP2 MSTORE PUSH1 0x20 ADD PUSH1 0x3 PUSH1 0xFF AND DUP2 MSTORE PUSH1 0x20 ADD PUSH1 0x1 PUSH1 0xFF AND DUP2 MSTORE PUSH1 0x20 ADD PUSH1 0x1 PUSH1 0xFF AND DUP2 MSTORE PUSH1 0x20 ADD PUSH1 0x2 PUSH1 0xFF AND DUP2 MSTORE PUSH1 0x20 ADD PUSH1 0x2 PUSH1 0xFF AND DUP2 MSTORE PUSH1 0x20 ADD PUSH1 0x2 PUSH1 0xFF AND DUP2 MSTORE PUSH1 0x20 ADD PUSH1 0x1 PUSH1 0xFF AND DUP2 MSTORE PUSH1 0x20 ADD PUSH1 0x1 PUSH1 0xFF AND DUP2 MSTORE PUSH1 0x20 ADD PUSH1 0x1 PUSH1 0xFF AND DUP2 MSTORE POP DUP2 MSTORE PUSH1 0x20 ADD PUSH1 0x40 MLOAD DUP1 PUSH2 0x280 ADD PUSH1 0x40 MSTORE DUP1 PUSH1 0x2 PUSH1 0xFF AND DUP2 MSTORE PUSH1 0x20 ADD PUSH1 0x2 PUSH1 0xFF AND DUP2 MSTORE PUSH1 0x20 ADD PUSH1 0x2 PUSH1 0xFF AND DUP2 MSTORE PUSH1 0x20 ADD PUSH1 0x2 PUSH1 0xFF AND DUP2 MSTORE PUSH1 0x20 ADD PUSH1 0x2 PUSH1 0xFF AND DUP2 MSTORE PUSH1 0x20 ADD PUSH1 0x2 PUSH1 0xFF AND DUP2 MSTORE PUSH1 0x20 ADD PUSH1 0x1 PUSH1 0xFF AND DUP2 MSTORE PUSH1 0x20 ADD PUSH1 0x1 PUSH1 0xFF AND DUP2 MSTORE PUSH1 0x20 ADD PUSH1 0x3 PUSH1 0xFF AND DUP2 MSTORE PUSH1 0x20 ADD PUSH1 0x3 PUSH1 0xFF AND DUP2 MSTORE PUSH1 0x20 ADD PUSH1 0x3 PUSH1 0xFF AND DUP2 MSTORE PUSH1 0x20 ADD PUSH1 0x3 PUSH1 0xFF AND DUP2 MSTORE PUSH1 0x20 ADD PUSH1 0x1 PUSH1 0xFF AND DUP2 MSTORE PUSH1 0x20 ADD PUSH1 0x1 PUSH1 0xFF AND DUP2 MSTORE PUSH1 0x20 ADD PUSH1 0x1 PUSH1 0xFF AND DUP2 MSTORE PUSH1 0x20 ADD PUSH1 0x1 PUSH1 0xFF AND DUP2 MSTORE PUSH1 0x20 ADD PUSH1 0x3 PUSH1 0xFF AND DUP2 MSTORE PUSH1 0x20 ADD PUSH1 0x3 PUSH1 0xFF AND DUP2 MSTORE PUSH1 0x20 ADD PUSH1 0x2 PUSH1 0xFF AND DUP2 MSTORE PUSH1 0x20 ADD PUSH1 0x2 PUSH1 0xFF AND DUP2 MSTORE POP DUP2 MSTORE PUSH1 0x20 ADD PUSH1 0x40 MLOAD DUP1 PUSH2 0x280 ADD PUSH1 0x40 MSTORE DUP1 PUSH1 0x2 PUSH1 0xFF AND DUP2 MSTORE PUSH1 0x20 ADD PUSH1 0x2 PUSH1 0xFF AND DUP2 MSTORE PUSH1 0x20 ADD PUSH1 0x2 PUSH1 0xFF AND DUP2 MSTORE PUSH1 0x20 ADD PUSH1 0x2 PUSH1 0xFF AND DUP2 MSTORE PUSH1 0x20 ADD PUSH1 0x2 PUSH1 0xFF AND DUP2 MSTORE PUSH1 0x20 ADD PUSH1 0x2 PUSH1 0xFF AND DUP2 MSTORE PUSH1 0x20 ADD PUSH1 0x2 PUSH1 0xFF AND DUP2 MSTORE PUSH1 0x20 ADD PUSH1 0x1 PUSH1 0xFF AND DUP2 MSTORE PUSH1 0x20 ADD PUSH1 0x3 PUSH1 0xFF AND DUP2 MSTORE PUSH1 0x20 ADD PUSH1 0x3 PUSH1 0xFF AND DUP2 MSTORE PUSH1 0x20 ADD PUSH1 0x3 PUSH1 0xFF AND DUP2 MSTORE PUSH1 0x20 ADD PUSH1 0x3 PUSH1 0xFF AND DUP2 MSTORE PUSH1 0x20 ADD PUSH1 0x1 PUSH1 0xFF AND DUP2 MSTORE PUSH1 0x20 ADD PUSH1 0x1 PUSH1 0xFF AND DUP2 MSTORE PUSH1 0x20 ADD PUSH1 0x1 PUSH1 0xFF AND DUP2 MSTORE PUSH1 0x20 ADD PUSH1 0x1 PUSH1 0xFF AND DUP2 MSTORE PUSH1 0x20 ADD PUSH1 0x3 PUSH1 0xFF AND DUP2 MSTORE PUSH1 0x20 ADD PUSH1 0x3 PUSH1 0xFF AND DUP2 MSTORE PUSH1 0x20 ADD PUSH1 0x2 PUSH1 0xFF AND DUP2 MSTORE PUSH1 0x20 ADD PUSH1 0x2 PUSH1 0xFF AND DUP2 MSTORE POP DUP2 MSTORE PUSH1 0x20 ADD PUSH1 0x40 MLOAD DUP1 PUSH2 0x280 ADD PUSH1 0x40 MSTORE DUP1 PUSH1 0x2 PUSH1 0xFF AND DUP2 MSTORE PUSH1 0x20 ADD PUSH1 0x2 PUSH1 0xFF AND DUP2 MSTORE PUSH1 0x20 ADD PUSH1 0x2 PUSH1 0xFF AND DUP2 MSTORE PUSH1 0x20 ADD PUSH1 0x2 PUSH1 0xFF AND DUP2 MSTORE PUSH1 0x20 ADD PUSH1 0x2 PUSH1 0xFF AND DUP2 MSTORE PUSH1 0x20 ADD PUSH1 0x2 PUSH1 0xFF AND DUP2 MSTORE PUSH1 0x20 ADD PUSH1 0x2 PUSH1 0xFF AND DUP2 MSTORE PUSH1 0x20 ADD PUSH1 0x1 PUSH1 0xFF AND DUP2 MSTORE PUSH1 0x20 ADD PUSH1 0x1 PUSH1 0xFF AND DUP2 MSTORE PUSH1 0x20 ADD PUSH1 0x2 PUSH1 0xFF AND DUP2 MSTORE PUSH1 0x20 ADD PUSH1 0x2 PUSH1 0xFF AND DUP2 MSTORE PUSH1 0x20 ADD PUSH1 0x1 PUSH1 0xFF AND DUP2 MSTORE PUSH1 0x20 ADD PUSH1 0x1 PUSH1 0xFF AND DUP2 MSTORE PUSH1 0x20 ADD PUSH1 0x2 PUSH1 0xFF AND DUP2 MSTORE PUSH1 0x20 ADD PUSH1 0x2 PUSH1 0xFF AND DUP2 MSTORE PUSH1 0x20 ADD PUSH1 0x1 PUSH1 0xFF AND DUP2 MSTORE PUSH1 0x20 ADD PUSH1 0x3 PUSH1 0xFF AND DUP2 MSTORE PUSH1 0x20 ADD PUSH1 0x3 PUSH1 0xFF AND DUP2 MSTORE PUSH1 0x20 ADD PUSH1 0x2 PUSH1 0xFF AND DUP2 MSTORE PUSH1 0x20 ADD PUSH1 0x2 PUSH1 0xFF AND DUP2 MSTORE POP DUP2 MSTORE PUSH1 0x20 ADD PUSH1 0x40 MLOAD DUP1 PUSH2 0x280 ADD PUSH1 0x40 MSTORE DUP1 PUSH1 0x2 PUSH1 0xFF AND DUP2 MSTORE PUSH1 0x20 ADD PUSH1 0x2 PUSH1 0xFF AND DUP2 MSTORE PUSH1 0x20 ADD PUSH1 0x2 PUSH1 0xFF AND DUP2 MSTORE PUSH1 0x20 ADD PUSH1 0x2 PUSH1 0xFF AND DUP2 MSTORE PUSH1 0x20 ADD PUSH1 0x2 PUSH1 0xFF AND DUP2 MSTORE PUSH1 0x20 ADD PUSH1 0x2 PUSH1 0xFF AND DUP2 MSTORE PUSH1 0x20 ADD PUSH1 0x2 PUSH1 0xFF AND DUP2 MSTORE PUSH1 0x20 ADD PUSH1 0x1 PUSH1 0xFF AND DUP2 MSTORE PUSH1 0x20 ADD PUSH1 0x1 PUSH1 0xFF AND DUP2 MSTORE PUSH1 0x20 ADD PUSH1 0x1 PUSH1 0xFF AND DUP2 MSTORE PUSH1 0x20 ADD PUSH1 0x1 PUSH1 0xFF AND DUP2 MSTORE PUSH1 0x20 ADD PUSH1 0x1 PUSH1 0xFF AND DUP2 MSTORE PUSH1 0x20 ADD PUSH1 0x1 PUSH1 0xFF AND DUP2 MSTORE PUSH1 0x20 ADD PUSH1 0x1 PUSH1 0xFF AND DUP2 MSTORE PUSH1 0x20 ADD PUSH1 0x1 PUSH1 0xFF AND DUP2 MSTORE PUSH1 0x20 ADD PUSH1 0x3 PUSH1 0xFF AND DUP2 MSTORE PUSH1 0x20 ADD PUSH1 0x3 PUSH1 0xFF AND DUP2 MSTORE PUSH1 0x20 ADD PUSH1 0x3 PUSH1 0xFF AND DUP2 MSTORE PUSH1 0x20 ADD PUSH1 0x2 PUSH1 0xFF AND DUP2 MSTORE PUSH1 0x20 ADD PUSH1 0x2 PUSH1 0xFF AND DUP2 MSTORE POP DUP2 MSTORE POP PUSH1 0x14 SWAP1 PUSH1 0x14 PUSH3 0x1230 SWAP3 SWAP2 SWAP1 PUSH3 0x15FB JUMP JUMPDEST POP CALLVALUE DUP1 ISZERO PUSH3 0x123E JUMPI PUSH1 0x0 DUP1 REVERT JUMPDEST POP PUSH1 0x40 MLOAD PUSH3 0x4CD1 CODESIZE SUB DUP1 PUSH3 0x4CD1 DUP4 CODECOPY DUP2 DUP2 ADD PUSH1 0x40 MSTORE DUP2 ADD SWAP1 PUSH3 0x1264 SWAP2 SWAP1 PUSH3 0x17A9 JUMP JUMPDEST DUP1 PUSH1 0x0 DUP1 PUSH2 0x100 EXP DUP2 SLOAD DUP2 PUSH20 0xFFFFFFFFFFFFFFFFFFFFFFFFFFFFFFFFFFFFFFFF MUL NOT AND SWAP1 DUP4 PUSH20 0xFFFFFFFFFFFFFFFFFFFFFFFFFFFFFFFFFFFFFFFF AND MUL OR SWAP1 SSTORE POP PUSH3 0x12B4 PUSH3 0x12BB PUSH1 0x20 SHL PUSH1 0x20 SHR JUMP JUMPDEST POP PUSH3 0x17DB JUMP JUMPDEST PUSH1 0x40 MLOAD DUP1 PUSH1 0x80 ADD PUSH1 0x40 MSTORE DUP1 PUSH1 0x64 DUP2 MSTORE PUSH1 0x20 ADD PUSH1 0x32 DUP2 MSTORE PUSH1 0x20 ADD PUSH1 0x1E DUP2 MSTORE PUSH1 0x20 ADD PUSH1 0x14 DUP2 MSTORE POP PUSH1 0x13 PUSH1 0x0 PUSH1 0x1 PUSH1 0xFF AND DUP2 MSTORE PUSH1 0x20 ADD SWAP1 DUP2 MSTORE PUSH1 0x20 ADD PUSH1 0x0 KECCAK256 PUSH1 0x0 DUP3 ADD MLOAD DUP2 PUSH1 0x0 ADD SSTORE PUSH1 0x20 DUP3 ADD MLOAD DUP2 PUSH1 0x1 ADD SSTORE PUSH1 0x40 DUP3 ADD MLOAD DUP2 PUSH1 0x2 ADD SSTORE PUSH1 0x60 DUP3 ADD MLOAD DUP2 PUSH1 0x3 ADD SSTORE SWAP1 POP POP PUSH1 0x40 MLOAD DUP1 PUSH1 0x80 ADD PUSH1 0x40 MSTORE DUP1 PUSH1 0xC8 DUP2 MSTORE PUSH1 0x20 ADD PUSH1 0x64 DUP2 MSTORE PUSH1 0x20 ADD PUSH1 0x32 DUP2 MSTORE PUSH1 0x20 ADD PUSH1 0x28 DUP2 MSTORE POP PUSH1 0x13 PUSH1 0x0 PUSH1 0x2 PUSH1 0xFF AND DUP2 MSTORE PUSH1 0x20 ADD SWAP1 DUP2 MSTORE PUSH1 0x20 ADD PUSH1 0x0 KECCAK256 PUSH1 0x0 DUP3 ADD MLOAD DUP2 PUSH1 0x0 ADD SSTORE PUSH1 0x20 DUP3 ADD MLOAD DUP2 PUSH1 0x1 ADD SSTORE PUSH1 0x40 DUP3 ADD MLOAD DUP2 PUSH1 0x2 ADD SSTORE PUSH1 0x60 DUP3 ADD MLOAD DUP2 PUSH1 0x3 ADD SSTORE SWAP1 POP POP PUSH1 0x40 MLOAD DUP1 PUSH1 0x80 ADD PUSH1 0x40 MSTORE DUP1 PUSH2 0x12C DUP2 MSTORE PUSH1 0x20 ADD PUSH1 0x64 DUP2 MSTORE PUSH1 0x20 ADD PUSH1 0x32 DUP2 MSTORE PUSH1 0x20 ADD PUSH1 0x28 DUP2 MSTORE POP PUSH1 0x13 PUSH1 0x0 PUSH1 0x3 PUSH1 0xFF AND DUP2 MSTORE PUSH1 0x20 ADD SWAP1 DUP2 MSTORE PUSH1 0x20 ADD PUSH1 0x0 KECCAK256 PUSH1 0x0 DUP3 ADD MLOAD DUP2 PUSH1 0x0 ADD SSTORE PUSH1 0x20 DUP3 ADD MLOAD DUP2 PUSH1 0x1 ADD SSTORE PUSH1 0x40 DUP3 ADD MLOAD DUP2 PUSH1 0x2 ADD SSTORE PUSH1 0x60 DUP3 ADD MLOAD DUP2 PUSH1 0x3 ADD SSTORE SWAP1 POP POP PUSH1 0x40 MLOAD DUP1 PUSH1 0x80 ADD PUSH1 0x40 MSTORE DUP1 PUSH2 0x190 DUP2 MSTORE PUSH1 0x20 ADD PUSH1 0x64 DUP2 MSTORE PUSH1 0x20 ADD PUSH1 0x32 DUP2 MSTORE PUSH1 0x20 ADD PUSH1 0x28 DUP2 MSTORE POP PUSH1 0x13 PUSH1 0x0 PUSH1 0x4 PUSH1 0xFF AND DUP2 MSTORE PUSH1 0x20 ADD SWAP1 DUP2 MSTORE PUSH1 0x20 ADD PUSH1 0x0 KECCAK256 PUSH1 0x0 DUP3 ADD MLOAD DUP2 PUSH1 0x0 ADD SSTORE PUSH1 0x20 DUP3 ADD MLOAD DUP2 PUSH1 0x1 ADD SSTORE PUSH1 0x40 DUP3 ADD MLOAD DUP2 PUSH1 0x2 ADD SSTORE PUSH1 0x60 DUP3 ADD MLOAD DUP2 PUSH1 0x3 ADD SSTORE SWAP1 POP POP PUSH1 0x40 MLOAD DUP1 PUSH1 0x80 ADD PUSH1 0x40 MSTORE DUP1 PUSH2 0x1F4 DUP2 MSTORE PUSH1 0x20 ADD PUSH1 0x64 DUP2 MSTORE PUSH1 0x20 ADD PUSH1 0x32 DUP2 MSTORE PUSH1 0x20 ADD PUSH1 0x28 DUP2 MSTORE POP PUSH1 0x13 PUSH1 0x0 PUSH1 0x5 PUSH1 0xFF AND DUP2 MSTORE PUSH1 0x20 ADD SWAP1 DUP2 MSTORE PUSH1 0x20 ADD PUSH1 0x0 KECCAK256 PUSH1 0x0 DUP3 ADD MLOAD DUP2 PUSH1 0x0 ADD SSTORE PUSH1 0x20 DUP3 ADD MLOAD DUP2 PUSH1 0x1 ADD SSTORE PUSH1 0x40 DUP3 ADD MLOAD DUP2 PUSH1 0x2 ADD SSTORE PUSH1 0x60 DUP3 ADD MLOAD DUP2 PUSH1 0x3 ADD SSTORE SWAP1 POP POP PUSH1 0x40 MLOAD DUP1 PUSH1 0x80 ADD PUSH1 0x40 MSTORE DUP1 PUSH2 0x258 DUP2 MSTORE PUSH1 0x20 ADD PUSH1 0x64 DUP2 MSTORE PUSH1 0x20 ADD PUSH1 0x32 DUP2 MSTORE PUSH1 0x20 ADD PUSH1 0x28 DUP2 MSTORE POP PUSH1 0x13 PUSH1 0x0 PUSH1 0x6 PUSH1 0xFF AND DUP2 MSTORE PUSH1 0x20 ADD SWAP1 DUP2 MSTORE PUSH1 0x20 ADD PUSH1 0x0 KECCAK256 PUSH1 0x0 DUP3 ADD MLOAD DUP2 PUSH1 0x0 ADD SSTORE PUSH1 0x20 DUP3 ADD MLOAD DUP2 PUSH1 0x1 ADD SSTORE PUSH1 0x40 DUP3 ADD MLOAD DUP2 PUSH1 0x2 ADD SSTORE PUSH1 0x60 DUP3 ADD MLOAD DUP2 PUSH1 0x3 ADD SSTORE SWAP1 POP POP PUSH1 0x40 MLOAD DUP1 PUSH1 0x80 ADD PUSH1 0x40 MSTORE DUP1 PUSH2 0x2BC DUP2 MSTORE PUSH1 0x20 ADD PUSH1 0x64 DUP2 MSTORE PUSH1 0x20 ADD PUSH1 0x32 DUP2 MSTORE PUSH1 0x20 ADD PUSH1 0x28 DUP2 MSTORE POP PUSH1 0x13 PUSH1 0x0 PUSH1 0x7 PUSH1 0xFF AND DUP2 MSTORE PUSH1 0x20 ADD SWAP1 DUP2 MSTORE PUSH1 0x20 ADD PUSH1 0x0 KECCAK256 PUSH1 0x0 DUP3 ADD MLOAD DUP2 PUSH1 0x0 ADD SSTORE PUSH1 0x20 DUP3 ADD MLOAD DUP2 PUSH1 0x1 ADD SSTORE PUSH1 0x40 DUP3 ADD MLOAD DUP2 PUSH1 0x2 ADD SSTORE PUSH1 0x60 DUP3 ADD MLOAD DUP2 PUSH1 0x3 ADD SSTORE SWAP1 POP POP PUSH1 0x40 MLOAD DUP1 PUSH1 0x80 ADD PUSH1 0x40 MSTORE DUP1 PUSH2 0x320 DUP2 MSTORE PUSH1 0x20 ADD PUSH1 0x64 DUP2 MSTORE PUSH1 0x20 ADD PUSH1 0x32 DUP2 MSTORE PUSH1 0x20 ADD PUSH1 0x28 DUP2 MSTORE POP PUSH1 0x13 PUSH1 0x0 PUSH1 0x8 PUSH1 0xFF AND DUP2 MSTORE PUSH1 0x20 ADD SWAP1 DUP2 MSTORE PUSH1 0x20 ADD PUSH1 0x0 KECCAK256 PUSH1 0x0 DUP3 ADD MLOAD DUP2 PUSH1 0x0 ADD SSTORE PUSH1 0x20 DUP3 ADD MLOAD DUP2 PUSH1 0x1 ADD SSTORE PUSH1 0x40 DUP3 ADD MLOAD DUP2 PUSH1 0x2 ADD SSTORE PUSH1 0x60 DUP3 ADD MLOAD DUP2 PUSH1 0x3 ADD SSTORE SWAP1 POP POP JUMP JUMPDEST DUP3 PUSH1 0x14 DUP2 ADD SWAP3 DUP3 ISZERO PUSH3 0x163D JUMPI SWAP2 PUSH1 0x20 MUL DUP3 ADD JUMPDEST DUP3 DUP2 GT ISZERO PUSH3 0x163C JUMPI DUP3 MLOAD DUP3 SWAP1 PUSH1 0x14 PUSH3 0x162B SWAP3 SWAP2 SWAP1 PUSH3 0x1650 JUMP JUMPDEST POP SWAP2 PUSH1 0x20 ADD SWAP2 SWAP1 PUSH1 0x1 ADD SWAP1 PUSH3 0x160F JUMP JUMPDEST JUMPDEST POP SWAP1 POP PUSH3 0x164C SWAP2 SWAP1 PUSH3 0x16F1 JUMP JUMPDEST POP SWAP1 JUMP JUMPDEST DUP3 PUSH1 0x14 PUSH1 0x1F ADD PUSH1 0x20 SWAP1 DIV DUP2 ADD SWAP3 DUP3 ISZERO PUSH3 0x16DE JUMPI SWAP2 PUSH1 0x20 MUL DUP3 ADD PUSH1 0x0 JUMPDEST DUP4 DUP3 GT ISZERO PUSH3 0x16AD JUMPI DUP4 MLOAD DUP4 DUP3 PUSH2 0x100 EXP DUP2 SLOAD DUP2 PUSH1 0xFF MUL NOT AND SWAP1 DUP4 PUSH1 0xFF AND MUL OR SWAP1 SSTORE POP SWAP3 PUSH1 0x20 ADD SWAP3 PUSH1 0x1 ADD PUSH1 0x20 DUP2 PUSH1 0x0 ADD DIV SWAP3 DUP4 ADD SWAP3 PUSH1 0x1 SUB MUL PUSH3 0x166D JUMP JUMPDEST DUP1 ISZERO PUSH3 0x16DC JUMPI DUP3 DUP2 PUSH2 0x100 EXP DUP2 SLOAD SWAP1 PUSH1 0xFF MUL NOT AND SWAP1 SSTORE PUSH1 0x1 ADD PUSH1 0x20 DUP2 PUSH1 0x0 ADD DIV SWAP3 DUP4 ADD SWAP3 PUSH1 0x1 SUB MUL PUSH3 0x16AD JUMP JUMPDEST POP JUMPDEST POP SWAP1 POP PUSH3 0x16ED SWAP2 SWAP1 PUSH3 0x1719 JUMP JUMPDEST POP SWAP1 JUMP JUMPDEST JUMPDEST DUP1 DUP3 GT ISZERO PUSH3 0x1715 JUMPI PUSH1 0x0 DUP2 DUP2 PUSH3 0x170B SWAP2 SWAP1 PUSH3 0x1738 JUMP JUMPDEST POP PUSH1 0x1 ADD PUSH3 0x16F2 JUMP JUMPDEST POP SWAP1 JUMP JUMPDEST JUMPDEST DUP1 DUP3 GT ISZERO PUSH3 0x1734 JUMPI PUSH1 0x0 DUP2 PUSH1 0x0 SWAP1 SSTORE POP PUSH1 0x1 ADD PUSH3 0x171A JUMP JUMPDEST POP SWAP1 JUMP JUMPDEST POP PUSH1 0x0 SWAP1 SSTORE JUMP JUMPDEST PUSH1 0x0 DUP1 REVERT JUMPDEST PUSH1 0x0 PUSH20 0xFFFFFFFFFFFFFFFFFFFFFFFFFFFFFFFFFFFFFFFF DUP3 AND SWAP1 POP SWAP2 SWAP1 POP JUMP JUMPDEST PUSH1 0x0 PUSH3 0x1771 DUP3 PUSH3 0x1744 JUMP JUMPDEST SWAP1 POP SWAP2 SWAP1 POP JUMP JUMPDEST PUSH3 0x1783 DUP2 PUSH3 0x1764 JUMP JUMPDEST DUP2 EQ PUSH3 0x178F JUMPI PUSH1 0x0 DUP1 REVERT JUMPDEST POP JUMP JUMPDEST PUSH1 0x0 DUP2 MLOAD SWAP1 POP PUSH3 0x17A3 DUP2 PUSH3 0x1778 JUMP JUMPDEST SWAP3 SWAP2 POP POP JUMP JUMPDEST PUSH1 0x0 PUSH1 0x20 DUP3 DUP5 SUB SLT ISZERO PUSH3 0x17C2 JUMPI PUSH3 0x17C1 PUSH3 0x173F JUMP JUMPDEST JUMPDEST PUSH1 0x0 PUSH3 0x17D2 DUP5 DUP3 DUP6 ADD PUSH3 0x1792 JUMP JUMPDEST SWAP2 POP POP SWAP3 SWAP2 POP POP JUMP JUMPDEST PUSH2 0x34E6 DUP1 PUSH3 0x17EB PUSH1 0x0 CODECOPY PUSH1 0x0 RETURN INVALID PUSH1 0x80 PUSH1 0x40 MSTORE CALLVALUE DUP1 ISZERO PUSH2 0x10 JUMPI PUSH1 0x0 DUP1 REVERT JUMPDEST POP PUSH1 0x4 CALLDATASIZE LT PUSH2 0x137 JUMPI PUSH1 0x0 CALLDATALOAD PUSH1 0xE0 SHR DUP1 PUSH4 0xAFED933A GT PUSH2 0xB8 JUMPI DUP1 PUSH4 0xC1712D57 GT PUSH2 0x7C JUMPI DUP1 PUSH4 0xC1712D57 EQ PUSH2 0x372 JUMPI DUP1 PUSH4 0xCC06C359 EQ PUSH2 0x3A5 JUMPI DUP1 PUSH4 0xDD4B466B EQ PUSH2 0x3C3 JUMPI DUP1 PUSH4 0xDECC1BBF EQ PUSH2 0x3DF JUMPI DUP1 PUSH4 0xE9DD6583 EQ PUSH2 0x3FD JUMPI DUP1 PUSH4 0xF3245254 EQ PUSH2 0x419 JUMPI PUSH2 0x137 JUMP JUMPDEST DUP1 PUSH4 0xAFED933A EQ PUSH2 0x29D JUMPI DUP1 PUSH4 0xBC9955A2 EQ PUSH2 0x2BB JUMPI DUP1 PUSH4 0xBD638378 EQ PUSH2 0x2EB JUMPI DUP1 PUSH4 0xBDC7DA8E EQ PUSH2 0x324 JUMPI DUP1 PUSH4 0xBE9A263C EQ PUSH2 0x342 JUMPI PUSH2 0x137 JUMP JUMPDEST DUP1 PUSH4 0x620A9A99 GT PUSH2 0xFF JUMPI DUP1 PUSH4 0x620A9A99 EQ PUSH2 0x1CF JUMPI DUP1 PUSH4 0x800BFA27 EQ PUSH2 0x1F0 JUMPI DUP1 PUSH4 0x8C87FA4F EQ PUSH2 0x211 JUMPI DUP1 PUSH4 0x9B562DF2 EQ PUSH2 0x232 JUMPI DUP1 PUSH4 0xA2F9CC5B EQ PUSH2 0x26D JUMPI PUSH2 0x137 JUMP JUMPDEST DUP1 PUSH4 0x7722BC2 EQ PUSH2 0x13C JUMPI DUP1 PUSH4 0xEE22F31 EQ PUSH2 0x158 JUMPI DUP1 PUSH4 0x4274B164 EQ PUSH2 0x174 JUMPI DUP1 PUSH4 0x4F264B03 EQ PUSH2 0x190 JUMPI DUP1 PUSH4 0x537E8F49 EQ PUSH2 0x1AE JUMPI JUMPDEST PUSH1 0x0 DUP1 REVERT JUMPDEST PUSH2 0x156 PUSH1 0x4 DUP1 CALLDATASIZE SUB DUP2 ADD SWAP1 PUSH2 0x151 SWAP2 SWAP1 PUSH2 0x24EB JUMP JUMPDEST PUSH2 0x449 JUMP JUMPDEST STOP JUMPDEST PUSH2 0x172 PUSH1 0x4 DUP1 CALLDATASIZE SUB DUP2 ADD SWAP1 PUSH2 0x16D SWAP2 SWAP1 PUSH2 0x2552 JUMP JUMPDEST PUSH2 0x9EF JUMP JUMPDEST STOP JUMPDEST PUSH2 0x18E PUSH1 0x4 DUP1 CALLDATASIZE SUB DUP2 ADD SWAP1 PUSH2 0x189 SWAP2 SWAP1 PUSH2 0x24EB JUMP JUMPDEST PUSH2 0xEBE JUMP JUMPDEST STOP JUMPDEST PUSH2 0x198 PUSH2 0x1464 JUMP JUMPDEST PUSH1 0x40 MLOAD PUSH2 0x1A5 SWAP2 SWAP1 PUSH2 0x264C JUMP JUMPDEST PUSH1 0x40 MLOAD DUP1 SWAP2 SUB SWAP1 RETURN JUMPDEST PUSH2 0x1B6 PUSH2 0x1488 JUMP JUMPDEST PUSH1 0x40 MLOAD PUSH2 0x1C6 SWAP5 SWAP4 SWAP3 SWAP2 SWAP1 PUSH2 0x2676 JUMP JUMPDEST PUSH1 0x40 MLOAD DUP1 SWAP2 SUB SWAP1 RETURN JUMPDEST PUSH2 0x1D7 PUSH2 0x14A6 JUMP JUMPDEST PUSH1 0x40 MLOAD PUSH2 0x1E7 SWAP5 SWAP4 SWAP3 SWAP2 SWAP1 PUSH2 0x2676 JUMP JUMPDEST PUSH1 0x40 MLOAD DUP1 SWAP2 SUB SWAP1 RETURN JUMPDEST PUSH2 0x1F8 PUSH2 0x14C4 JUMP JUMPDEST PUSH1 0x40 MLOAD PUSH2 0x208 SWAP5 SWAP4 SWAP3 SWAP2 SWAP1 PUSH2 0x2676 JUMP JUMPDEST PUSH1 0x40 MLOAD DUP1 SWAP2 SUB SWAP1 RETURN JUMPDEST PUSH2 0x219 PUSH2 0x14E2 JUMP JUMPDEST PUSH1 0x40 MLOAD PUSH2 0x229 SWAP5 SWAP4 SWAP3 SWAP2 SWAP1 PUSH2 0x2676 JUMP JUMPDEST PUSH1 0x40 MLOAD DUP1 SWAP2 SUB SWAP1 RETURN JUMPDEST PUSH2 0x24C PUSH1 0x4 DUP1 CALLDATASIZE SUB DUP2 ADD SWAP1 PUSH2 0x247 SWAP2 SWAP1 PUSH2 0x26BB JUMP JUMPDEST PUSH2 0x1500 JUMP JUMPDEST PUSH1 0x40 MLOAD PUSH2 0x264 SWAP13 SWAP12 SWAP11 SWAP10 SWAP9 SWAP8 SWAP7 SWAP6 SWAP5 SWAP4 SWAP3 SWAP2 SWAP1 PUSH2 0x2718 JUMP JUMPDEST PUSH1 0x40 MLOAD DUP1 SWAP2 SUB SWAP1 RETURN JUMPDEST PUSH2 0x287 PUSH1 0x4 DUP1 CALLDATASIZE SUB DUP2 ADD SWAP1 PUSH2 0x282 SWAP2 SWAP1 PUSH2 0x27D2 JUMP JUMPDEST PUSH2 0x1589 JUMP JUMPDEST PUSH1 0x40 MLOAD PUSH2 0x294 SWAP2 SWAP1 PUSH2 0x2848 JUMP JUMPDEST PUSH1 0x40 MLOAD DUP1 SWAP2 SUB SWAP1 RETURN JUMPDEST PUSH2 0x2A5 PUSH2 0x15D2 JUMP JUMPDEST PUSH1 0x40 MLOAD PUSH2 0x2B2 SWAP2 SWAP1 PUSH2 0x2848 JUMP JUMPDEST PUSH1 0x40 MLOAD DUP1 SWAP2 SUB SWAP1 RETURN JUMPDEST PUSH2 0x2D5 PUSH1 0x4 DUP1 CALLDATASIZE SUB DUP2 ADD SWAP1 PUSH2 0x2D0 SWAP2 SWAP1 PUSH2 0x2863 JUMP JUMPDEST PUSH2 0x15D7 JUMP JUMPDEST PUSH1 0x40 MLOAD PUSH2 0x2E2 SWAP2 SWAP1 PUSH2 0x2848 JUMP JUMPDEST PUSH1 0x40 MLOAD DUP1 SWAP2 SUB SWAP1 RETURN JUMPDEST PUSH2 0x305 PUSH1 0x4 DUP1 CALLDATASIZE SUB DUP2 ADD SWAP1 PUSH2 0x300 SWAP2 SWAP1 PUSH2 0x26BB JUMP JUMPDEST PUSH2 0x1613 JUMP JUMPDEST PUSH1 0x40 MLOAD PUSH2 0x31B SWAP11 SWAP10 SWAP9 SWAP8 SWAP7 SWAP6 SWAP5 SWAP4 SWAP3 SWAP2 SWAP1 PUSH2 0x28A3 JUMP JUMPDEST PUSH1 0x40 MLOAD DUP1 SWAP2 SUB SWAP1 RETURN JUMPDEST PUSH2 0x32C PUSH2 0x16BA JUMP JUMPDEST PUSH1 0x40 MLOAD PUSH2 0x339 SWAP2 SWAP1 PUSH2 0x293F JUMP JUMPDEST PUSH1 0x40 MLOAD DUP1 SWAP2 SUB SWAP1 RETURN JUMPDEST PUSH2 0x35C PUSH1 0x4 DUP1 CALLDATASIZE SUB DUP2 ADD SWAP1 PUSH2 0x357 SWAP2 SWAP1 PUSH2 0x26BB JUMP JUMPDEST PUSH2 0x16C0 JUMP JUMPDEST PUSH1 0x40 MLOAD PUSH2 0x369 SWAP2 SWAP1 PUSH2 0x2AA2 JUMP JUMPDEST PUSH1 0x40 MLOAD DUP1 SWAP2 SUB SWAP1 RETURN JUMPDEST PUSH2 0x38C PUSH1 0x4 DUP1 CALLDATASIZE SUB DUP2 ADD SWAP1 PUSH2 0x387 SWAP2 SWAP1 PUSH2 0x2ABE JUMP JUMPDEST PUSH2 0x18E0 JUMP JUMPDEST PUSH1 0x40 MLOAD PUSH2 0x39C SWAP5 SWAP4 SWAP3 SWAP2 SWAP1 PUSH2 0x2676 JUMP JUMPDEST PUSH1 0x40 MLOAD DUP1 SWAP2 SUB SWAP1 RETURN JUMPDEST PUSH2 0x3AD PUSH2 0x1910 JUMP JUMPDEST PUSH1 0x40 MLOAD PUSH2 0x3BA SWAP2 SWAP1 PUSH2 0x2AEB JUMP JUMPDEST PUSH1 0x40 MLOAD DUP1 SWAP2 SUB SWAP1 RETURN JUMPDEST PUSH2 0x3DD PUSH1 0x4 DUP1 CALLDATASIZE SUB DUP2 ADD SWAP1 PUSH2 0x3D8 SWAP2 SWAP1 PUSH2 0x26BB JUMP JUMPDEST PUSH2 0x1916 JUMP JUMPDEST STOP JUMPDEST PUSH2 0x3E7 PUSH2 0x1B27 JUMP JUMPDEST PUSH1 0x40 MLOAD PUSH2 0x3F4 SWAP2 SWAP1 PUSH2 0x2848 JUMP JUMPDEST PUSH1 0x40 MLOAD DUP1 SWAP2 SUB SWAP1 RETURN JUMPDEST PUSH2 0x417 PUSH1 0x4 DUP1 CALLDATASIZE SUB DUP2 ADD SWAP1 PUSH2 0x412 SWAP2 SWAP1 PUSH2 0x2B32 JUMP JUMPDEST PUSH2 0x1B2C JUMP JUMPDEST STOP JUMPDEST PUSH2 0x433 PUSH1 0x4 DUP1 CALLDATASIZE SUB DUP2 ADD SWAP1 PUSH2 0x42E SWAP2 SWAP1 PUSH2 0x26BB JUMP JUMPDEST PUSH2 0x21C5 JUMP JUMPDEST PUSH1 0x40 MLOAD PUSH2 0x440 SWAP2 SWAP1 PUSH2 0x293F JUMP JUMPDEST PUSH1 0x40 MLOAD DUP1 SWAP2 SUB SWAP1 RETURN JUMPDEST DUP4 DUP4 CALLER PUSH20 0xFFFFFFFFFFFFFFFFFFFFFFFFFFFFFFFFFFFFFFFF AND PUSH1 0x0 DUP1 SLOAD SWAP1 PUSH2 0x100 EXP SWAP1 DIV PUSH20 0xFFFFFFFFFFFFFFFFFFFFFFFFFFFFFFFFFFFFFFFF AND PUSH20 0xFFFFFFFFFFFFFFFFFFFFFFFFFFFFFFFFFFFFFFFF AND PUSH4 0x8A888953 DUP5 DUP5 PUSH1 0x40 MLOAD DUP4 PUSH4 0xFFFFFFFF AND PUSH1 0xE0 SHL DUP2 MSTORE PUSH1 0x4 ADD PUSH2 0x4BD SWAP3 SWAP2 SWAP1 PUSH2 0x2B85 JUMP JUMPDEST PUSH1 0x20 PUSH1 0x40 MLOAD DUP1 DUP4 SUB DUP2 DUP7 GAS STATICCALL ISZERO DUP1 ISZERO PUSH2 0x4DA JUMPI RETURNDATASIZE PUSH1 0x0 DUP1 RETURNDATACOPY RETURNDATASIZE PUSH1 0x0 REVERT JUMPDEST POP POP POP POP PUSH1 0x40 MLOAD RETURNDATASIZE PUSH1 0x1F NOT PUSH1 0x1F DUP3 ADD AND DUP3 ADD DUP1 PUSH1 0x40 MSTORE POP DUP2 ADD SWAP1 PUSH2 0x4FE SWAP2 SWAP1 PUSH2 0x2BEC JUMP JUMPDEST PUSH20 0xFFFFFFFFFFFFFFFFFFFFFFFFFFFFFFFFFFFFFFFF AND EQ PUSH2 0x554 JUMPI PUSH1 0x40 MLOAD PUSH32 0x8C379A000000000000000000000000000000000000000000000000000000000 DUP2 MSTORE PUSH1 0x4 ADD PUSH2 0x54B SWAP1 PUSH2 0x2C76 JUMP JUMPDEST PUSH1 0x40 MLOAD DUP1 SWAP2 SUB SWAP1 REVERT JUMPDEST PUSH1 0x0 DUP4 GT PUSH2 0x597 JUMPI PUSH1 0x40 MLOAD PUSH32 0x8C379A000000000000000000000000000000000000000000000000000000000 DUP2 MSTORE PUSH1 0x4 ADD PUSH2 0x58E SWAP1 PUSH2 0x2D08 JUMP JUMPDEST PUSH1 0x40 MLOAD DUP1 SWAP2 SUB SWAP1 REVERT JUMPDEST PUSH1 0x1 DUP5 PUSH1 0xFF AND EQ DUP1 PUSH2 0x5AC JUMPI POP PUSH1 0x2 DUP5 PUSH1 0xFF AND EQ JUMPDEST PUSH2 0x5EB JUMPI PUSH1 0x40 MLOAD PUSH32 0x8C379A000000000000000000000000000000000000000000000000000000000 DUP2 MSTORE PUSH1 0x4 ADD PUSH2 0x5E2 SWAP1 PUSH2 0x2D74 JUMP JUMPDEST PUSH1 0x40 MLOAD DUP1 SWAP2 SUB SWAP1 REVERT JUMPDEST PUSH1 0x0 PUSH1 0x1 SWAP1 POP PUSH1 0x0 DUP1 JUMPDEST PUSH1 0x9 PUSH1 0xFF AND DUP2 PUSH1 0xFF AND LT ISZERO PUSH2 0x6C4 JUMPI PUSH1 0x0 JUMPDEST PUSH1 0x9 PUSH1 0xFF AND DUP2 PUSH1 0xFF AND LT ISZERO PUSH2 0x6B0 JUMPI DUP4 PUSH1 0xFF AND PUSH1 0x12 PUSH1 0x0 DUP13 PUSH1 0xFF AND PUSH1 0xFF AND DUP2 MSTORE PUSH1 0x20 ADD SWAP1 DUP2 MSTORE PUSH1 0x20 ADD PUSH1 0x0 KECCAK256 PUSH1 0x0 DUP12 PUSH1 0xFF AND PUSH1 0xFF AND DUP2 MSTORE PUSH1 0x20 ADD SWAP1 DUP2 MSTORE PUSH1 0x20 ADD PUSH1 0x0 KECCAK256 PUSH1 0x0 DUP5 PUSH1 0xFF AND PUSH1 0xFF AND DUP2 MSTORE PUSH1 0x20 ADD SWAP1 DUP2 MSTORE PUSH1 0x20 ADD PUSH1 0x0 KECCAK256 PUSH1 0x0 DUP4 PUSH1 0xFF AND PUSH1 0xFF AND DUP2 MSTORE PUSH1 0x20 ADD SWAP1 DUP2 MSTORE PUSH1 0x20 ADD PUSH1 0x0 KECCAK256 PUSH1 0x0 SWAP1 SLOAD SWAP1 PUSH2 0x100 EXP SWAP1 DIV PUSH1 0xFF AND PUSH1 0xFF AND SUB PUSH2 0x69D JUMPI DUP3 DUP1 PUSH2 0x699 SWAP1 PUSH2 0x2DC3 JUMP JUMPDEST SWAP4 POP POP JUMPDEST DUP1 DUP1 PUSH2 0x6A8 SWAP1 PUSH2 0x2E0B JUMP JUMPDEST SWAP2 POP POP PUSH2 0x607 JUMP JUMPDEST POP DUP1 DUP1 PUSH2 0x6BC SWAP1 PUSH2 0x2E0B JUMP JUMPDEST SWAP2 POP POP PUSH2 0x5F5 JUMP JUMPDEST POP PUSH1 0x0 DUP2 GT PUSH2 0x708 JUMPI PUSH1 0x40 MLOAD PUSH32 0x8C379A000000000000000000000000000000000000000000000000000000000 DUP2 MSTORE PUSH1 0x4 ADD PUSH2 0x6FF SWAP1 PUSH2 0x2EA6 JUMP JUMPDEST PUSH1 0x40 MLOAD DUP1 SWAP2 SUB SWAP1 REVERT JUMPDEST PUSH1 0x0 PUSH1 0x11 PUSH1 0x0 DUP11 PUSH1 0xFF AND PUSH1 0xFF AND DUP2 MSTORE PUSH1 0x20 ADD SWAP1 DUP2 MSTORE PUSH1 0x20 ADD PUSH1 0x0 KECCAK256 PUSH1 0x0 DUP10 PUSH1 0xFF AND PUSH1 0xFF AND DUP2 MSTORE PUSH1 0x20 ADD SWAP1 DUP2 MSTORE PUSH1 0x20 ADD PUSH1 0x0 KECCAK256 SWAP1 POP PUSH1 0x0 PUSH1 0x1 DUP9 PUSH1 0xFF AND EQ PUSH2 0x750 JUMPI PUSH1 0x5 PUSH2 0x753 JUMP JUMPDEST PUSH1 0x1 JUMPDEST PUSH1 0x40 MLOAD DUP1 PUSH1 0x80 ADD PUSH1 0x40 MSTORE SWAP1 DUP2 PUSH1 0x0 DUP3 ADD SLOAD DUP2 MSTORE PUSH1 0x20 ADD PUSH1 0x1 DUP3 ADD SLOAD DUP2 MSTORE PUSH1 0x20 ADD PUSH1 0x2 DUP3 ADD SLOAD DUP2 MSTORE PUSH1 0x20 ADD PUSH1 0x3 DUP3 ADD SLOAD DUP2 MSTORE POP POP SWAP1 POP PUSH1 0x0 DUP4 DUP9 DUP4 PUSH1 0x0 ADD MLOAD PUSH2 0x79B SWAP2 SWAP1 PUSH2 0x2EC6 JUMP JUMPDEST PUSH2 0x7A5 SWAP2 SWAP1 PUSH2 0x2F37 JUMP JUMPDEST SWAP1 POP PUSH1 0x0 DUP5 DUP10 DUP5 PUSH1 0x20 ADD MLOAD PUSH2 0x7BA SWAP2 SWAP1 PUSH2 0x2EC6 JUMP JUMPDEST PUSH2 0x7C4 SWAP2 SWAP1 PUSH2 0x2F37 JUMP JUMPDEST SWAP1 POP PUSH1 0x0 DUP6 DUP11 DUP6 PUSH1 0x40 ADD MLOAD PUSH2 0x7D9 SWAP2 SWAP1 PUSH2 0x2EC6 JUMP JUMPDEST PUSH2 0x7E3 SWAP2 SWAP1 PUSH2 0x2F37 JUMP JUMPDEST SWAP1 POP PUSH1 0x0 DUP7 DUP12 DUP7 PUSH1 0x60 ADD MLOAD PUSH2 0x7F8 SWAP2 SWAP1 PUSH2 0x2EC6 JUMP JUMPDEST PUSH2 0x802 SWAP2 SWAP1 PUSH2 0x2F37 JUMP JUMPDEST SWAP1 POP DUP4 DUP7 PUSH1 0x0 ADD SLOAD LT ISZERO PUSH2 0x84B JUMPI PUSH1 0x40 MLOAD PUSH32 0x8C379A000000000000000000000000000000000000000000000000000000000 DUP2 MSTORE PUSH1 0x4 ADD PUSH2 0x842 SWAP1 PUSH2 0x2FB4 JUMP JUMPDEST PUSH1 0x40 MLOAD DUP1 SWAP2 SUB SWAP1 REVERT JUMPDEST DUP3 DUP7 PUSH1 0x1 ADD SLOAD LT ISZERO PUSH2 0x892 JUMPI PUSH1 0x40 MLOAD PUSH32 0x8C379A000000000000000000000000000000000000000000000000000000000 DUP2 MSTORE PUSH1 0x4 ADD PUSH2 0x889 SWAP1 PUSH2 0x3020 JUMP JUMPDEST PUSH1 0x40 MLOAD DUP1 SWAP2 SUB SWAP1 REVERT JUMPDEST DUP2 DUP7 PUSH1 0x2 ADD SLOAD LT ISZERO PUSH2 0x8D9 JUMPI PUSH1 0x40 MLOAD PUSH32 0x8C379A000000000000000000000000000000000000000000000000000000000 DUP2 MSTORE PUSH1 0x4 ADD PUSH2 0x8D0 SWAP1 PUSH2 0x308C JUMP JUMPDEST PUSH1 0x40 MLOAD DUP1 SWAP2 SUB SWAP1 REVERT JUMPDEST DUP1 DUP7 PUSH1 0x3 ADD SLOAD LT ISZERO PUSH2 0x920 JUMPI PUSH1 0x40 MLOAD PUSH32 0x8C379A000000000000000000000000000000000000000000000000000000000 DUP2 MSTORE PUSH1 0x4 ADD PUSH2 0x917 SWAP1 PUSH2 0x30F8 JUMP JUMPDEST PUSH1 0x40 MLOAD DUP1 SWAP2 SUB SWAP1 REVERT JUMPDEST DUP4 DUP7 PUSH1 0x0 ADD PUSH1 0x0 DUP3 DUP3 SLOAD PUSH2 0x934 SWAP2 SWAP1 PUSH2 0x3118 JUMP JUMPDEST SWAP3 POP POP DUP2 SWAP1 SSTORE POP DUP3 DUP7 PUSH1 0x1 ADD PUSH1 0x0 DUP3 DUP3 SLOAD PUSH2 0x94F SWAP2 SWAP1 PUSH2 0x3118 JUMP JUMPDEST SWAP3 POP POP DUP2 SWAP1 SSTORE POP DUP2 DUP7 PUSH1 0x2 ADD PUSH1 0x0 DUP3 DUP3 SLOAD PUSH2 0x96A SWAP2 SWAP1 PUSH2 0x3118 JUMP JUMPDEST SWAP3 POP POP DUP2 SWAP1 SSTORE POP DUP1 DUP7 PUSH1 0x3 ADD PUSH1 0x0 DUP3 DUP3 SLOAD PUSH2 0x985 SWAP2 SWAP1 PUSH2 0x3118 JUMP JUMPDEST SWAP3 POP POP DUP2 SWAP1 SSTORE POP PUSH1 0x1 DUP13 PUSH1 0xFF AND SUB PUSH2 0x9B7 JUMPI DUP11 DUP7 PUSH1 0x8 ADD PUSH1 0x0 DUP3 DUP3 SLOAD PUSH2 0x9AB SWAP2 SWAP1 PUSH2 0x314C JUMP JUMPDEST SWAP3 POP POP DUP2 SWAP1 SSTORE POP PUSH2 0x9DF JUMP JUMPDEST PUSH1 0x2 DUP13 PUSH1 0xFF AND SUB PUSH2 0x9DE JUMPI DUP11 DUP7 PUSH1 0x9 ADD PUSH1 0x0 DUP3 DUP3 SLOAD PUSH2 0x9D6 SWAP2 SWAP1 PUSH2 0x314C JUMP JUMPDEST SWAP3 POP POP DUP2 SWAP1 SSTORE POP JUMPDEST JUMPDEST POP POP POP POP POP POP POP POP POP POP POP POP POP POP JUMP JUMPDEST DUP5 DUP5 CALLER PUSH20 0xFFFFFFFFFFFFFFFFFFFFFFFFFFFFFFFFFFFFFFFF AND PUSH1 0x0 DUP1 SLOAD SWAP1 PUSH2 0x100 EXP SWAP1 DIV PUSH20 0xFFFFFFFFFFFFFFFFFFFFFFFFFFFFFFFFFFFFFFFF AND PUSH20 0xFFFFFFFFFFFFFFFFFFFFFFFFFFFFFFFFFFFFFFFF AND PUSH4 0x8A888953 DUP5 DUP5 PUSH1 0x40 MLOAD DUP4 PUSH4 0xFFFFFFFF AND PUSH1 0xE0 SHL DUP2 MSTORE PUSH1 0x4 ADD PUSH2 0xA63 SWAP3 SWAP2 SWAP1 PUSH2 0x2B85 JUMP JUMPDEST PUSH1 0x20 PUSH1 0x40 MLOAD DUP1 DUP4 SUB DUP2 DUP7 GAS STATICCALL ISZERO DUP1 ISZERO PUSH2 0xA80 JUMPI RETURNDATASIZE PUSH1 0x0 DUP1 RETURNDATACOPY RETURNDATASIZE PUSH1 0x0 REVERT JUMPDEST POP POP POP POP PUSH1 0x40 MLOAD RETURNDATASIZE PUSH1 0x1F NOT PUSH1 0x1F DUP3 ADD AND DUP3 ADD DUP1 PUSH1 0x40 MSTORE POP DUP2 ADD SWAP1 PUSH2 0xAA4 SWAP2 SWAP1 PUSH2 0x2BEC JUMP JUMPDEST PUSH20 0xFFFFFFFFFFFFFFFFFFFFFFFFFFFFFFFFFFFFFFFF AND EQ PUSH2 0xAFA JUMPI PUSH1 0x40 MLOAD PUSH32 0x8C379A000000000000000000000000000000000000000000000000000000000 DUP2 MSTORE PUSH1 0x4 ADD PUSH2 0xAF1 SWAP1 PUSH2 0x2C76 JUMP JUMPDEST PUSH1 0x40 MLOAD DUP1 SWAP2 SUB SWAP1 REVERT JUMPDEST DUP5 DUP5 PUSH1 0x9 PUSH1 0xFF AND DUP3 PUSH1 0xFF AND LT DUP1 ISZERO PUSH2 0xB18 JUMPI POP PUSH1 0x9 PUSH1 0xFF AND DUP2 PUSH1 0xFF AND LT JUMPDEST PUSH2 0xB57 JUMPI PUSH1 0x40 MLOAD PUSH32 0x8C379A000000000000000000000000000000000000000000000000000000000 DUP2 MSTORE PUSH1 0x4 ADD PUSH2 0xB4E SWAP1 PUSH2 0x31F2 JUMP JUMPDEST PUSH1 0x40 MLOAD DUP1 SWAP2 SUB SWAP1 REVERT JUMPDEST PUSH1 0x0 PUSH1 0x12 PUSH1 0x0 DUP12 PUSH1 0xFF AND PUSH1 0xFF AND DUP2 MSTORE PUSH1 0x20 ADD SWAP1 DUP2 MSTORE PUSH1 0x20 ADD PUSH1 0x0 KECCAK256 PUSH1 0x0 DUP11 PUSH1 0xFF AND PUSH1 0xFF AND DUP2 MSTORE PUSH1 0x20 ADD SWAP1 DUP2 MSTORE PUSH1 0x20 ADD PUSH1 0x0 KECCAK256 PUSH1 0x0 DUP10 PUSH1 0xFF AND PUSH1 0xFF AND DUP2 MSTORE PUSH1 0x20 ADD SWAP1 DUP2 MSTORE PUSH1 0x20 ADD PUSH1 0x0 KECCAK256 PUSH1 0x0 DUP9 PUSH1 0xFF AND PUSH1 0xFF AND DUP2 MSTORE PUSH1 0x20 ADD SWAP1 DUP2 MSTORE PUSH1 0x20 ADD PUSH1 0x0 KECCAK256 PUSH1 0x0 SWAP1 SLOAD SWAP1 PUSH2 0x100 EXP SWAP1 DIV PUSH1 0xFF AND SWAP1 POP PUSH1 0x0 DUP2 PUSH1 0xFF AND EQ PUSH2 0xC0D JUMPI PUSH1 0x40 MLOAD PUSH32 0x8C379A000000000000000000000000000000000000000000000000000000000 DUP2 MSTORE PUSH1 0x4 ADD PUSH2 0xC04 SWAP1 PUSH2 0x3284 JUMP JUMPDEST PUSH1 0x40 MLOAD DUP1 SWAP2 SUB SWAP1 REVERT JUMPDEST PUSH1 0x0 PUSH1 0x13 PUSH1 0x0 DUP9 PUSH1 0xFF AND PUSH1 0xFF AND DUP2 MSTORE PUSH1 0x20 ADD SWAP1 DUP2 MSTORE PUSH1 0x20 ADD PUSH1 0x0 KECCAK256 PUSH1 0x40 MLOAD DUP1 PUSH1 0x80 ADD PUSH1 0x40 MSTORE SWAP1 DUP2 PUSH1 0x0 DUP3 ADD SLOAD DUP2 MSTORE PUSH1 0x20 ADD PUSH1 0x1 DUP3 ADD SLOAD DUP2 MSTORE PUSH1 0x20 ADD PUSH1 0x2 DUP3 ADD SLOAD DUP2 MSTORE PUSH1 0x20 ADD PUSH1 0x3 DUP3 ADD SLOAD DUP2 MSTORE POP POP SWAP1 POP PUSH1 0x0 PUSH1 0x11 PUSH1 0x0 DUP14 PUSH1 0xFF AND PUSH1 0xFF AND DUP2 MSTORE PUSH1 0x20 ADD SWAP1 DUP2 MSTORE PUSH1 0x20 ADD PUSH1 0x0 KECCAK256 PUSH1 0x0 DUP13 PUSH1 0xFF AND PUSH1 0xFF AND DUP2 MSTORE PUSH1 0x20 ADD SWAP1 DUP2 MSTORE PUSH1 0x20 ADD PUSH1 0x0 KECCAK256 SWAP1 POP DUP2 PUSH1 0x0 ADD MLOAD DUP2 PUSH1 0x0 ADD SLOAD LT ISZERO PUSH2 0xCDC JUMPI PUSH1 0x40 MLOAD PUSH32 0x8C379A000000000000000000000000000000000000000000000000000000000 DUP2 MSTORE PUSH1 0x4 ADD PUSH2 0xCD3 SWAP1 PUSH2 0x2FB4 JUMP JUMPDEST PUSH1 0x40 MLOAD DUP1 SWAP2 SUB SWAP1 REVERT JUMPDEST DUP2 PUSH1 0x20 ADD MLOAD DUP2 PUSH1 0x1 ADD SLOAD LT ISZERO PUSH2 0xD27 JUMPI PUSH1 0x40 MLOAD PUSH32 0x8C379A000000000000000000000000000000000000000000000000000000000 DUP2 MSTORE PUSH1 0x4 ADD PUSH2 0xD1E SWAP1 PUSH2 0x3020 JUMP JUMPDEST PUSH1 0x40 MLOAD DUP1 SWAP2 SUB SWAP1 REVERT JUMPDEST DUP2 PUSH1 0x40 ADD MLOAD DUP2 PUSH1 0x2 ADD SLOAD LT ISZERO PUSH2 0xD72 JUMPI PUSH1 0x40 MLOAD PUSH32 0x8C379A000000000000000000000000000000000000000000000000000000000 DUP2 MSTORE PUSH1 0x4 ADD PUSH2 0xD69 SWAP1 PUSH2 0x308C JUMP JUMPDEST PUSH1 0x40 MLOAD DUP1 SWAP2 SUB SWAP1 REVERT JUMPDEST DUP2 PUSH1 0x60 ADD MLOAD DUP2 PUSH1 0x3 ADD SLOAD LT ISZERO PUSH2 0xDBD JUMPI PUSH1 0x40 MLOAD PUSH32 0x8C379A000000000000000000000000000000000000000000000000000000000 DUP2 MSTORE PUSH1 0x4 ADD PUSH2 0xDB4 SWAP1 PUSH2 0x30F8 JUMP JUMPDEST PUSH1 0x40 MLOAD DUP1 SWAP2 SUB SWAP1 REVERT JUMPDEST DUP2 PUSH1 0x0 ADD MLOAD DUP2 PUSH1 0x0 ADD PUSH1 0x0 DUP3 DUP3 SLOAD PUSH2 0xDD5 SWAP2 SWAP1 PUSH2 0x3118 JUMP JUMPDEST SWAP3 POP POP DUP2 SWAP1 SSTORE POP DUP2 PUSH1 0x20 ADD MLOAD DUP2 PUSH1 0x1 ADD PUSH1 0x0 DUP3 DUP3 SLOAD PUSH2 0xDF4 SWAP2 SWAP1 PUSH2 0x3118 JUMP JUMPDEST SWAP3 POP POP DUP2 SWAP1 SSTORE POP DUP2 PUSH1 0x40 ADD MLOAD DUP2 PUSH1 0x2 ADD PUSH1 0x0 DUP3 DUP3 SLOAD PUSH2 0xE13 SWAP2 SWAP1 PUSH2 0x3118 JUMP JUMPDEST SWAP3 POP POP DUP2 SWAP1 SSTORE POP DUP2 PUSH1 0x60 ADD MLOAD DUP2 PUSH1 0x3 ADD PUSH1 0x0 DUP3 DUP3 SLOAD PUSH2 0xE32 SWAP2 SWAP1 PUSH2 0x3118 JUMP JUMPDEST SWAP3 POP POP DUP2 SWAP1 SSTORE POP DUP8 PUSH1 0x12 PUSH1 0x0 DUP15 PUSH1 0xFF AND PUSH1 0xFF AND DUP2 MSTORE PUSH1 0x20 ADD SWAP1 DUP2 MSTORE PUSH1 0x20 ADD PUSH1 0x0 KECCAK256 PUSH1 0x0 DUP14 PUSH1 0xFF AND PUSH1 0xFF AND DUP2 MSTORE PUSH1 0x20 ADD SWAP1 DUP2 MSTORE PUSH1 0x20 ADD PUSH1 0x0 KECCAK256 PUSH1 0x0 DUP13 PUSH1 0xFF AND PUSH1 0xFF AND DUP2 MSTORE PUSH1 0x20 ADD SWAP1 DUP2 MSTORE PUSH1 0x20 ADD PUSH1 0x0 KECCAK256 PUSH1 0x0 DUP12 PUSH1 0xFF AND PUSH1 0xFF AND DUP2 MSTORE PUSH1 0x20 ADD SWAP1 DUP2 MSTORE PUSH1 0x20 ADD PUSH1 0x0 KECCAK256 PUSH1 0x0 PUSH2 0x100 EXP DUP2 SLOAD DUP2 PUSH1 0xFF MUL NOT AND SWAP1 DUP4 PUSH1 0xFF AND MUL OR SWAP1 SSTORE POP POP POP POP POP POP POP POP POP POP POP POP POP JUMP JUMPDEST DUP4 DUP4 CALLER PUSH20 0xFFFFFFFFFFFFFFFFFFFFFFFFFFFFFFFFFFFFFFFF AND PUSH1 0x0 DUP1 SLOAD SWAP1 PUSH2 0x100 EXP SWAP1 DIV PUSH20 0xFFFFFFFFFFFFFFFFFFFFFFFFFFFFFFFFFFFFFFFF AND PUSH20 0xFFFFFFFFFFFFFFFFFFFFFFFFFFFFFFFFFFFFFFFF AND PUSH4 0x8A888953 DUP5 DUP5 PUSH1 0x40 MLOAD DUP4 PUSH4 0xFFFFFFFF AND PUSH1 0xE0 SHL DUP2 MSTORE PUSH1 0x4 ADD PUSH2 0xF32 SWAP3 SWAP2 SWAP1 PUSH2 0x2B85 JUMP JUMPDEST PUSH1 0x20 PUSH1 0x40 MLOAD DUP1 DUP4 SUB DUP2 DUP7 GAS STATICCALL ISZERO DUP1 ISZERO PUSH2 0xF4F JUMPI RETURNDATASIZE PUSH1 0x0 DUP1 RETURNDATACOPY RETURNDATASIZE PUSH1 0x0 REVERT JUMPDEST POP POP POP POP PUSH1 0x40 MLOAD RETURNDATASIZE PUSH1 0x1F NOT PUSH1 0x1F DUP3 ADD AND DUP3 ADD DUP1 PUSH1 0x40 MSTORE POP DUP2 ADD SWAP1 PUSH2 0xF73 SWAP2 SWAP1 PUSH2 0x2BEC JUMP JUMPDEST PUSH20 0xFFFFFFFFFFFFFFFFFFFFFFFFFFFFFFFFFFFFFFFF AND EQ PUSH2 0xFC9 JUMPI PUSH1 0x40 MLOAD PUSH32 0x8C379A000000000000000000000000000000000000000000000000000000000 DUP2 MSTORE PUSH1 0x4 ADD PUSH2 0xFC0 SWAP1 PUSH2 0x2C76 JUMP JUMPDEST PUSH1 0x40 MLOAD DUP1 SWAP2 SUB SWAP1 REVERT JUMPDEST PUSH1 0x0 DUP4 GT PUSH2 0x100C JUMPI PUSH1 0x40 MLOAD PUSH32 0x8C379A000000000000000000000000000000000000000000000000000000000 DUP2 MSTORE PUSH1 0x4 ADD PUSH2 0x1003 SWAP1 PUSH2 0x2D08 JUMP JUMPDEST PUSH1 0x40 MLOAD DUP1 SWAP2 SUB SWAP1 REVERT JUMPDEST PUSH1 0x1 DUP5 PUSH1 0xFF AND EQ DUP1 PUSH2 0x1021 JUMPI POP PUSH1 0x2 DUP5 PUSH1 0xFF AND EQ JUMPDEST PUSH2 0x1060 JUMPI PUSH1 0x40 MLOAD PUSH32 0x8C379A000000000000000000000000000000000000000000000000000000000 DUP2 MSTORE PUSH1 0x4 ADD PUSH2 0x1057 SWAP1 PUSH2 0x2D74 JUMP JUMPDEST PUSH1 0x40 MLOAD DUP1 SWAP2 SUB SWAP1 REVERT JUMPDEST PUSH1 0x0 PUSH1 0x2 SWAP1 POP PUSH1 0x0 DUP1 JUMPDEST PUSH1 0x9 PUSH1 0xFF AND DUP2 PUSH1 0xFF AND LT ISZERO PUSH2 0x1139 JUMPI PUSH1 0x0 JUMPDEST PUSH1 0x9 PUSH1 0xFF AND DUP2 PUSH1 0xFF AND LT ISZERO PUSH2 0x1125 JUMPI DUP4 PUSH1 0xFF AND PUSH1 0x12 PUSH1 0x0 DUP13 PUSH1 0xFF AND PUSH1 0xFF AND DUP2 MSTORE PUSH1 0x20 ADD SWAP1 DUP2 MSTORE PUSH1 0x20 ADD PUSH1 0x0 KECCAK256 PUSH1 0x0 DUP12 PUSH1 0xFF AND PUSH1 0xFF AND DUP2 MSTORE PUSH1 0x20 ADD SWAP1 DUP2 MSTORE PUSH1 0x20 ADD PUSH1 0x0 KECCAK256 PUSH1 0x0 DUP5 PUSH1 0xFF AND PUSH1 0xFF AND DUP2 MSTORE PUSH1 0x20 ADD SWAP1 DUP2 MSTORE PUSH1 0x20 ADD PUSH1 0x0 KECCAK256 PUSH1 0x0 DUP4 PUSH1 0xFF AND PUSH1 0xFF AND DUP2 MSTORE PUSH1 0x20 ADD SWAP1 DUP2 MSTORE PUSH1 0x20 ADD PUSH1 0x0 KECCAK256 PUSH1 0x0 SWAP1 SLOAD SWAP1 PUSH2 0x100 EXP SWAP1 DIV PUSH1 0xFF AND PUSH1 0xFF AND SUB PUSH2 0x1112 JUMPI DUP3 DUP1 PUSH2 0x110E SWAP1 PUSH2 0x2DC3 JUMP JUMPDEST SWAP4 POP POP JUMPDEST DUP1 DUP1 PUSH2 0x111D SWAP1 PUSH2 0x2E0B JUMP JUMPDEST SWAP2 POP POP PUSH2 0x107C JUMP JUMPDEST POP DUP1 DUP1 PUSH2 0x1131 SWAP1 PUSH2 0x2E0B JUMP JUMPDEST SWAP2 POP POP PUSH2 0x106A JUMP JUMPDEST POP PUSH1 0x0 DUP2 GT PUSH2 0x117D JUMPI PUSH1 0x40 MLOAD PUSH32 0x8C379A000000000000000000000000000000000000000000000000000000000 DUP2 MSTORE PUSH1 0x4 ADD PUSH2 0x1174 SWAP1 PUSH2 0x2EA6 JUMP JUMPDEST PUSH1 0x40 MLOAD DUP1 SWAP2 SUB SWAP1 REVERT JUMPDEST PUSH1 0x0 PUSH1 0x11 PUSH1 0x0 DUP11 PUSH1 0xFF AND PUSH1 0xFF AND DUP2 MSTORE PUSH1 0x20 ADD SWAP1 DUP2 MSTORE PUSH1 0x20 ADD PUSH1 0x0 KECCAK256 PUSH1 0x0 DUP10 PUSH1 0xFF AND PUSH1 0xFF AND DUP2 MSTORE PUSH1 0x20 ADD SWAP1 DUP2 MSTORE PUSH1 0x20 ADD PUSH1 0x0 KECCAK256 SWAP1 POP PUSH1 0x0 PUSH1 0x1 DUP9 PUSH1 0xFF AND EQ PUSH2 0x11C5 JUMPI PUSH1 0xD PUSH2 0x11C8 JUMP JUMPDEST PUSH1 0x9 JUMPDEST PUSH1 0x40 MLOAD DUP1 PUSH1 0x80 ADD PUSH1 0x40 MSTORE SWAP1 DUP2 PUSH1 0x0 DUP3 ADD SLOAD DUP2 MSTORE PUSH1 0x20 ADD PUSH1 0x1 DUP3 ADD SLOAD DUP2 MSTORE PUSH1 0x20 ADD PUSH1 0x2 DUP3 ADD SLOAD DUP2 MSTORE PUSH1 0x20 ADD PUSH1 0x3 DUP3 ADD SLOAD DUP2 MSTORE POP POP SWAP1 POP PUSH1 0x0 DUP4 DUP9 DUP4 PUSH1 0x0 ADD MLOAD PUSH2 0x1210 SWAP2 SWAP1 PUSH2 0x2EC6 JUMP JUMPDEST PUSH2 0x121A SWAP2 SWAP1 PUSH2 0x2F37 JUMP JUMPDEST SWAP1 POP PUSH1 0x0 DUP5 DUP10 DUP5 PUSH1 0x20 ADD MLOAD PUSH2 0x122F SWAP2 SWAP1 PUSH2 0x2EC6 JUMP JUMPDEST PUSH2 0x1239 SWAP2 SWAP1 PUSH2 0x2F37 JUMP JUMPDEST SWAP1 POP PUSH1 0x0 DUP6 DUP11 DUP6 PUSH1 0x40 ADD MLOAD PUSH2 0x124E SWAP2 SWAP1 PUSH2 0x2EC6 JUMP JUMPDEST PUSH2 0x1258 SWAP2 SWAP1 PUSH2 0x2F37 JUMP JUMPDEST SWAP1 POP PUSH1 0x0 DUP7 DUP12 DUP7 PUSH1 0x60 ADD MLOAD PUSH2 0x126D SWAP2 SWAP1 PUSH2 0x2EC6 JUMP JUMPDEST PUSH2 0x1277 SWAP2 SWAP1 PUSH2 0x2F37 JUMP JUMPDEST SWAP1 POP DUP4 DUP7 PUSH1 0x0 ADD SLOAD LT ISZERO PUSH2 0x12C0 JUMPI PUSH1 0x40 MLOAD PUSH32 0x8C379A000000000000000000000000000000000000000000000000000000000 DUP2 MSTORE PUSH1 0x4 ADD PUSH2 0x12B7 SWAP1 PUSH2 0x2FB4 JUMP JUMPDEST PUSH1 0x40 MLOAD DUP1 SWAP2 SUB SWAP1 REVERT JUMPDEST DUP3 DUP7 PUSH1 0x1 ADD SLOAD LT ISZERO PUSH2 0x1307 JUMPI PUSH1 0x40 MLOAD PUSH32 0x8C379A000000000000000000000000000000000000000000000000000000000 DUP2 MSTORE PUSH1 0x4 ADD PUSH2 0x12FE SWAP1 PUSH2 0x3020 JUMP JUMPDEST PUSH1 0x40 MLOAD DUP1 SWAP2 SUB SWAP1 REVERT JUMPDEST DUP2 DUP7 PUSH1 0x2 ADD SLOAD LT ISZERO PUSH2 0x134E JUMPI PUSH1 0x40 MLOAD PUSH32 0x8C379A000000000000000000000000000000000000000000000000000000000 DUP2 MSTORE PUSH1 0x4 ADD PUSH2 0x1345 SWAP1 PUSH2 0x308C JUMP JUMPDEST PUSH1 0x40 MLOAD DUP1 SWAP2 SUB SWAP1 REVERT JUMPDEST DUP1 DUP7 PUSH1 0x3 ADD SLOAD LT ISZERO PUSH2 0x1395 JUMPI PUSH1 0x40 MLOAD PUSH32 0x8C379A000000000000000000000000000000000000000000000000000000000 DUP2 MSTORE PUSH1 0x4 ADD PUSH2 0x138C SWAP1 PUSH2 0x30F8 JUMP JUMPDEST PUSH1 0x40 MLOAD DUP1 SWAP2 SUB SWAP1 REVERT JUMPDEST DUP4 DUP7 PUSH1 0x0 ADD PUSH1 0x0 DUP3 DUP3 SLOAD PUSH2 0x13A9 SWAP2 SWAP1 PUSH2 0x3118 JUMP JUMPDEST SWAP3 POP POP DUP2 SWAP1 SSTORE POP DUP3 DUP7 PUSH1 0x1 ADD PUSH1 0x0 DUP3 DUP3 SLOAD PUSH2 0x13C4 SWAP2 SWAP1 PUSH2 0x3118 JUMP JUMPDEST SWAP3 POP POP DUP2 SWAP1 SSTORE POP DUP2 DUP7 PUSH1 0x2 ADD PUSH1 0x0 DUP3 DUP3 SLOAD PUSH2 0x13DF SWAP2 SWAP1 PUSH2 0x3118 JUMP JUMPDEST SWAP3 POP POP DUP2 SWAP1 SSTORE POP DUP1 DUP7 PUSH1 0x3 ADD PUSH1 0x0 DUP3 DUP3 SLOAD PUSH2 0x13FA SWAP2 SWAP1 PUSH2 0x3118 JUMP JUMPDEST SWAP3 POP POP DUP2 SWAP1 SSTORE POP PUSH1 0x1 DUP13 PUSH1 0xFF AND SUB PUSH2 0x142C JUMPI DUP11 DUP7 PUSH1 0xA ADD PUSH1 0x0 DUP3 DUP3 SLOAD PUSH2 0x1420 SWAP2 SWAP1 PUSH2 0x314C JUMP JUMPDEST SWAP3 POP POP DUP2 SWAP1 SSTORE POP PUSH2 0x1454 JUMP JUMPDEST PUSH1 0x2 DUP13 PUSH1 0xFF AND SUB PUSH2 0x1453 JUMPI DUP11 DUP7 PUSH1 0xB ADD PUSH1 0x0 DUP3 DUP3 SLOAD PUSH2 0x144B SWAP2 SWAP1 PUSH2 0x314C JUMP JUMPDEST SWAP3 POP POP DUP2 SWAP1 SSTORE POP JUMPDEST JUMPDEST POP POP POP POP POP POP POP POP POP POP POP POP POP POP JUMP JUMPDEST PUSH1 0x0 DUP1 SLOAD SWAP1 PUSH2 0x100 EXP SWAP1 DIV PUSH20 0xFFFFFFFFFFFFFFFFFFFFFFFFFFFFFFFFFFFFFFFF AND DUP2 JUMP JUMPDEST PUSH1 0xD DUP1 PUSH1 0x0 ADD SLOAD SWAP1 DUP1 PUSH1 0x1 ADD SLOAD SWAP1 DUP1 PUSH1 0x2 ADD SLOAD SWAP1 DUP1 PUSH1 0x3 ADD SLOAD SWAP1 POP DUP5 JUMP JUMPDEST PUSH1 0x1 DUP1 PUSH1 0x0 ADD SLOAD SWAP1 DUP1 PUSH1 0x1 ADD SLOAD SWAP1 DUP1 PUSH1 0x2 ADD SLOAD SWAP1 DUP1 PUSH1 0x3 ADD SLOAD SWAP1 POP DUP5 JUMP JUMPDEST PUSH1 0x9 DUP1 PUSH1 0x0 ADD SLOAD SWAP1 DUP1 PUSH1 0x1 ADD SLOAD SWAP1 DUP1 PUSH1 0x2 ADD SLOAD SWAP1 DUP1 PUSH1 0x3 ADD SLOAD SWAP1 POP DUP5 JUMP JUMPDEST PUSH1 0x5 DUP1 PUSH1 0x0 ADD SLOAD SWAP1 DUP1 PUSH1 0x1 ADD SLOAD SWAP1 DUP1 PUSH1 0x2 ADD SLOAD SWAP1 DUP1 PUSH1 0x3 ADD SLOAD SWAP1 POP DUP5 JUMP JUMPDEST PUSH1 0x11 PUSH1 0x20 MSTORE DUP2 PUSH1 0x0 MSTORE PUSH1 0x40 PUSH1 0x0 KECCAK256 PUSH1 0x20 MSTORE DUP1 PUSH1 0x0 MSTORE PUSH1 0x40 PUSH1 0x0 KECCAK256 PUSH1 0x0 SWAP2 POP SWAP2 POP POP DUP1 PUSH1 0x0 ADD SLOAD SWAP1 DUP1 PUSH1 0x1 ADD SLOAD SWAP1 DUP1 PUSH1 0x2 ADD SLOAD SWAP1 DUP1 PUSH1 0x3 ADD SLOAD SWAP1 DUP1 PUSH1 0x4 ADD PUSH1 0x0 SWAP1 SLOAD SWAP1 PUSH2 0x100 EXP SWAP1 DIV PUSH2 0xFFFF AND SWAP1 DUP1 PUSH1 0x5 ADD SLOAD SWAP1 DUP1 PUSH1 0x6 ADD PUSH1 0x0 SWAP1 SLOAD SWAP1 PUSH2 0x100 EXP SWAP1 DIV PUSH2 0xFFFF AND SWAP1 DUP1 PUSH1 0x7 ADD SLOAD SWAP1 DUP1 PUSH1 0x8 ADD SLOAD SWAP1 DUP1 PUSH1 0x9 ADD SLOAD SWAP1 DUP1 PUSH1 0xA ADD SLOAD SWAP1 DUP1 PUSH1 0xB ADD SLOAD SWAP1 POP DUP13 JUMP JUMPDEST PUSH1 0x12 PUSH1 0x20 MSTORE DUP4 PUSH1 0x0 MSTORE PUSH1 0x40 PUSH1 0x0 KECCAK256 PUSH1 0x20 MSTORE DUP3 PUSH1 0x0 MSTORE PUSH1 0x40 PUSH1 0x0 KECCAK256 PUSH1 0x20 MSTORE DUP2 PUSH1 0x0 MSTORE PUSH1 0x40 PUSH1 0x0 KECCAK256 PUSH1 0x20 MSTORE DUP1 PUSH1 0x0 MSTORE PUSH1 0x40 PUSH1 0x0 KECCAK256 PUSH1 0x0 SWAP4 POP SWAP4 POP POP POP SWAP1 SLOAD SWAP1 PUSH2 0x100 EXP SWAP1 DIV PUSH1 0xFF AND DUP2 JUMP JUMPDEST PUSH1 0x14 DUP2 JUMP JUMPDEST PUSH1 0x14 DUP3 PUSH1 0x14 DUP2 LT PUSH2 0x15E7 JUMPI PUSH1 0x0 DUP1 REVERT JUMPDEST ADD DUP2 PUSH1 0x14 DUP2 LT PUSH2 0x15F6 JUMPI PUSH1 0x0 DUP1 REVERT JUMPDEST PUSH1 0x20 SWAP2 DUP3 DUP3 DIV ADD SWAP2 SWAP1 MOD SWAP2 POP SWAP2 POP SWAP1 SLOAD SWAP1 PUSH2 0x100 EXP SWAP1 DIV PUSH1 0xFF AND DUP2 JUMP JUMPDEST PUSH1 0x0 DUP1 PUSH1 0x0 DUP1 PUSH1 0x0 DUP1 PUSH1 0x0 DUP1 PUSH1 0x0 DUP1 PUSH1 0x0 PUSH1 0x11 PUSH1 0x0 DUP15 PUSH1 0xFF AND PUSH1 0xFF AND DUP2 MSTORE PUSH1 0x20 ADD SWAP1 DUP2 MSTORE PUSH1 0x20 ADD PUSH1 0x0 KECCAK256 PUSH1 0x0 DUP14 PUSH1 0xFF AND PUSH1 0xFF AND DUP2 MSTORE PUSH1 0x20 ADD SWAP1 DUP2 MSTORE PUSH1 0x20 ADD PUSH1 0x0 KECCAK256 SWAP1 POP DUP1 PUSH1 0x0 ADD SLOAD DUP2 PUSH1 0x1 ADD SLOAD DUP3 PUSH1 0x2 ADD SLOAD DUP4 PUSH1 0x3 ADD SLOAD DUP5 PUSH1 0x4 ADD PUSH1 0x0 SWAP1 SLOAD SWAP1 PUSH2 0x100 EXP SWAP1 DIV PUSH2 0xFFFF AND DUP6 PUSH1 0x5 ADD SLOAD DUP7 PUSH1 0x8 ADD SLOAD DUP8 PUSH1 0x9 ADD SLOAD DUP9 PUSH1 0xA ADD SLOAD DUP10 PUSH1 0xB ADD SLOAD SWAP11 POP SWAP11 POP SWAP11 POP SWAP11 POP SWAP11 POP SWAP11 POP SWAP11 POP SWAP11 POP SWAP11 POP SWAP11 POP POP SWAP3 SWAP6 SWAP9 SWAP12 SWAP2 SWAP5 SWAP8 SWAP11 POP SWAP3 SWAP6 SWAP9 POP JUMP JUMPDEST PUSH2 0x3E8 DUP2 JUMP JUMPDEST PUSH2 0x16C8 PUSH2 0x2426 JUMP JUMPDEST DUP3 DUP3 CALLER PUSH20 0xFFFFFFFFFFFFFFFFFFFFFFFFFFFFFFFFFFFFFFFF AND PUSH1 0x0 DUP1 SLOAD SWAP1 PUSH2 0x100 EXP SWAP1 DIV PUSH20 0xFFFFFFFFFFFFFFFFFFFFFFFFFFFFFFFFFFFFFFFF AND PUSH20 0xFFFFFFFFFFFFFFFFFFFFFFFFFFFFFFFFFFFFFFFF AND PUSH4 0x8A888953 DUP5 DUP5 PUSH1 0x40 MLOAD DUP4 PUSH4 0xFFFFFFFF AND PUSH1 0xE0 SHL DUP2 MSTORE PUSH1 0x4 ADD PUSH2 0x173C SWAP3 SWAP2 SWAP1 PUSH2 0x2B85 JUMP JUMPDEST PUSH1 0x20 PUSH1 0x40 MLOAD DUP1 DUP4 SUB DUP2 DUP7 GAS STATICCALL ISZERO DUP1 ISZERO PUSH2 0x1759 JUMPI RETURNDATASIZE PUSH1 0x0 DUP1 RETURNDATACOPY RETURNDATASIZE PUSH1 0x0 REVERT JUMPDEST POP POP POP POP PUSH1 0x40 MLOAD RETURNDATASIZE PUSH1 0x1F NOT PUSH1 0x1F DUP3 ADD AND DUP3 ADD DUP1 PUSH1 0x40 MSTORE POP DUP2 ADD SWAP1 PUSH2 0x177D SWAP2 SWAP1 PUSH2 0x2BEC JUMP JUMPDEST PUSH20 0xFFFFFFFFFFFFFFFFFFFFFFFFFFFFFFFFFFFFFFFF AND EQ PUSH2 0x17D3 JUMPI PUSH1 0x40 MLOAD PUSH32 0x8C379A000000000000000000000000000000000000000000000000000000000 DUP2 MSTORE PUSH1 0x4 ADD PUSH2 0x17CA SWAP1 PUSH2 0x2C76 JUMP JUMPDEST PUSH1 0x40 MLOAD DUP1 SWAP2 SUB SWAP1 REVERT JUMPDEST PUSH2 0x17DB PUSH2 0x2426 JUMP JUMPDEST PUSH1 0x0 JUMPDEST PUSH1 0x9 PUSH1 0xFF AND DUP2 PUSH1 0xFF AND LT ISZERO PUSH2 0x18D3 JUMPI PUSH1 0x0 JUMPDEST PUSH1 0x9 PUSH1 0xFF AND DUP2 PUSH1 0xFF AND LT ISZERO PUSH2 0x18BF JUMPI PUSH1 0x12 PUSH1 0x0 DUP10 PUSH1 0xFF AND PUSH1 0xFF AND DUP2 MSTORE PUSH1 0x20 ADD SWAP1 DUP2 MSTORE PUSH1 0x20 ADD PUSH1 0x0 KECCAK256 PUSH1 0x0 DUP9 PUSH1 0xFF AND PUSH1 0xFF AND DUP2 MSTORE PUSH1 0x20 ADD SWAP1 DUP2 MSTORE PUSH1 0x20 ADD PUSH1 0x0 KECCAK256 PUSH1 0x0 DUP4 PUSH1 0xFF AND PUSH1 0xFF AND DUP2 MSTORE PUSH1 0x20 ADD SWAP1 DUP2 MSTORE PUSH1 0x20 ADD PUSH1 0x0 KECCAK256 PUSH1 0x0 DUP3 PUSH1 0xFF AND PUSH1 0xFF AND DUP2 MSTORE PUSH1 0x20 ADD SWAP1 DUP2 MSTORE PUSH1 0x20 ADD PUSH1 0x0 KECCAK256 PUSH1 0x0 SWAP1 SLOAD SWAP1 PUSH2 0x100 EXP SWAP1 DIV PUSH1 0xFF AND DUP4 DUP4 PUSH1 0xFF AND PUSH1 0x9 DUP2 LT PUSH2 0x1881 JUMPI PUSH2 0x1880 PUSH2 0x32A4 JUMP JUMPDEST JUMPDEST PUSH1 0x20 MUL ADD MLOAD DUP3 PUSH1 0xFF AND PUSH1 0x9 DUP2 LT PUSH2 0x189B JUMPI PUSH2 0x189A PUSH2 0x32A4 JUMP JUMPDEST JUMPDEST PUSH1 0x20 MUL ADD SWAP1 PUSH1 0xFF AND SWAP1 DUP2 PUSH1 0xFF AND DUP2 MSTORE POP POP DUP1 DUP1 PUSH2 0x18B7 SWAP1 PUSH2 0x2E0B JUMP JUMPDEST SWAP2 POP POP PUSH2 0x17F0 JUMP JUMPDEST POP DUP1 DUP1 PUSH2 0x18CB SWAP1 PUSH2 0x2E0B JUMP JUMPDEST SWAP2 POP POP PUSH2 0x17DE JUMP JUMPDEST POP DUP1 SWAP4 POP POP POP POP SWAP3 SWAP2 POP POP JUMP JUMPDEST PUSH1 0x13 PUSH1 0x20 MSTORE DUP1 PUSH1 0x0 MSTORE PUSH1 0x40 PUSH1 0x0 KECCAK256 PUSH1 0x0 SWAP2 POP SWAP1 POP DUP1 PUSH1 0x0 ADD SLOAD SWAP1 DUP1 PUSH1 0x1 ADD SLOAD SWAP1 DUP1 PUSH1 0x2 ADD SLOAD SWAP1 DUP1 PUSH1 0x3 ADD SLOAD SWAP1 POP DUP5 JUMP JUMPDEST PUSH2 0x1F4 DUP2 JUMP JUMPDEST DUP2 DUP2 CALLER PUSH20 0xFFFFFFFFFFFFFFFFFFFFFFFFFFFFFFFFFFFFFFFF AND PUSH1 0x0 DUP1 SLOAD SWAP1 PUSH2 0x100 EXP SWAP1 DIV PUSH20 0xFFFFFFFFFFFFFFFFFFFFFFFFFFFFFFFFFFFFFFFF AND PUSH20 0xFFFFFFFFFFFFFFFFFFFFFFFFFFFFFFFFFFFFFFFF AND PUSH4 0x8A888953 DUP5 DUP5 PUSH1 0x40 MLOAD DUP4 PUSH4 0xFFFFFFFF AND PUSH1 0xE0 SHL DUP2 MSTORE PUSH1 0x4 ADD PUSH2 0x198A SWAP3 SWAP2 SWAP1 PUSH2 0x2B85 JUMP JUMPDEST PUSH1 0x20 PUSH1 0x40 MLOAD DUP1 DUP4 SUB DUP2 DUP7 GAS STATICCALL ISZERO DUP1 ISZERO PUSH2 0x19A7 JUMPI RETURNDATASIZE PUSH1 0x0 DUP1 RETURNDATACOPY RETURNDATASIZE PUSH1 0x0 REVERT JUMPDEST POP POP POP POP PUSH1 0x40 MLOAD RETURNDATASIZE PUSH1 0x1F NOT PUSH1 0x1F DUP3 ADD AND DUP3 ADD DUP1 PUSH1 0x40 MSTORE POP DUP2 ADD SWAP1 PUSH2 0x19CB SWAP2 SWAP1 PUSH2 0x2BEC JUMP JUMPDEST PUSH20 0xFFFFFFFFFFFFFFFFFFFFFFFFFFFFFFFFFFFFFFFF AND EQ PUSH2 0x1A21 JUMPI PUSH1 0x40 MLOAD PUSH32 0x8C379A000000000000000000000000000000000000000000000000000000000 DUP2 MSTORE PUSH1 0x4 ADD PUSH2 0x1A18 SWAP1 PUSH2 0x2C76 JUMP JUMPDEST PUSH1 0x40 MLOAD DUP1 SWAP2 SUB SWAP1 REVERT JUMPDEST PUSH1 0x0 PUSH1 0x1 PUSH1 0x11 PUSH1 0x0 DUP8 PUSH1 0xFF AND PUSH1 0xFF AND DUP2 MSTORE PUSH1 0x20 ADD SWAP1 DUP2 MSTORE PUSH1 0x20 ADD PUSH1 0x0 KECCAK256 PUSH1 0x0 DUP7 PUSH1 0xFF AND PUSH1 0xFF AND DUP2 MSTORE PUSH1 0x20 ADD SWAP1 DUP2 MSTORE PUSH1 0x20 ADD PUSH1 0x0 KECCAK256 PUSH1 0x7 ADD SLOAD TIMESTAMP PUSH2 0x1A64 SWAP2 SWAP1 PUSH2 0x3118 JUMP JUMPDEST PUSH2 0x1A6E SWAP2 SWAP1 PUSH2 0x2F37 JUMP JUMPDEST PUSH1 0x11 PUSH1 0x0 DUP8 PUSH1 0xFF AND PUSH1 0xFF AND DUP2 MSTORE PUSH1 0x20 ADD SWAP1 DUP2 MSTORE PUSH1 0x20 ADD PUSH1 0x0 KECCAK256 PUSH1 0x0 DUP7 PUSH1 0xFF AND PUSH1 0xFF AND DUP2 MSTORE PUSH1 0x20 ADD SWAP1 DUP2 MSTORE PUSH1 0x20 ADD PUSH1 0x0 KECCAK256 PUSH1 0x6 ADD PUSH1 0x0 SWAP1 SLOAD SWAP1 PUSH2 0x100 EXP SWAP1 DIV PUSH2 0xFFFF AND PUSH2 0xFFFF AND PUSH2 0x1ABE SWAP2 SWAP1 PUSH2 0x314C JUMP JUMPDEST SWAP1 POP PUSH2 0x258 DUP2 GT PUSH2 0x1ACF JUMPI DUP1 PUSH2 0x1AD3 JUMP JUMPDEST PUSH2 0x258 JUMPDEST PUSH1 0x11 PUSH1 0x0 DUP8 PUSH1 0xFF AND PUSH1 0xFF AND DUP2 MSTORE PUSH1 0x20 ADD SWAP1 DUP2 MSTORE PUSH1 0x20 ADD PUSH1 0x0 KECCAK256 PUSH1 0x0 DUP7 PUSH1 0xFF AND PUSH1 0xFF AND DUP2 MSTORE PUSH1 0x20 ADD SWAP1 DUP2 MSTORE PUSH1 0x20 ADD PUSH1 0x0 KECCAK256 PUSH1 0x6 ADD PUSH1 0x0 PUSH2 0x100 EXP DUP2 SLOAD DUP2 PUSH2 0xFFFF MUL NOT AND SWAP1 DUP4 PUSH2 0xFFFF AND MUL OR SWAP1 SSTORE POP POP POP POP POP POP JUMP JUMPDEST PUSH1 0x9 DUP2 JUMP JUMPDEST DUP2 DUP2 CALLER PUSH20 0xFFFFFFFFFFFFFFFFFFFFFFFFFFFFFFFFFFFFFFFF AND PUSH1 0x0 DUP1 SLOAD SWAP1 PUSH2 0x100 EXP SWAP1 DIV PUSH20 0xFFFFFFFFFFFFFFFFFFFFFFFFFFFFFFFFFFFFFFFF AND PUSH20 0xFFFFFFFFFFFFFFFFFFFFFFFFFFFFFFFFFFFFFFFF AND PUSH4 0x8A888953 DUP5 DUP5 PUSH1 0x40 MLOAD DUP4 PUSH4 0xFFFFFFFF AND PUSH1 0xE0 SHL DUP2 MSTORE PUSH1 0x4 ADD PUSH2 0x1BA0 SWAP3 SWAP2 SWAP1 PUSH2 0x2B85 JUMP JUMPDEST PUSH1 0x20 PUSH1 0x40 MLOAD DUP1 DUP4 SUB DUP2 DUP7 GAS STATICCALL ISZERO DUP1 ISZERO PUSH2 0x1BBD JUMPI RETURNDATASIZE PUSH1 0x0 DUP1 RETURNDATACOPY RETURNDATASIZE PUSH1 0x0 REVERT JUMPDEST POP POP POP POP PUSH1 0x40 MLOAD RETURNDATASIZE PUSH1 0x1F NOT PUSH1 0x1F DUP3 ADD AND DUP3 ADD DUP1 PUSH1 0x40 MSTORE POP DUP2 ADD SWAP1 PUSH2 0x1BE1 SWAP2 SWAP1 PUSH2 0x2BEC JUMP JUMPDEST PUSH20 0xFFFFFFFFFFFFFFFFFFFFFFFFFFFFFFFFFFFFFFFF AND EQ PUSH2 0x1C37 JUMPI PUSH1 0x40 MLOAD PUSH32 0x8C379A000000000000000000000000000000000000000000000000000000000 DUP2 MSTORE PUSH1 0x4 ADD PUSH2 0x1C2E SWAP1 PUSH2 0x2C76 JUMP JUMPDEST PUSH1 0x40 MLOAD DUP1 SWAP2 SUB SWAP1 REVERT JUMPDEST PUSH1 0x0 DUP6 PUSH2 0xFFFF AND GT PUSH2 0x1C7E JUMPI PUSH1 0x40 MLOAD PUSH32 0x8C379A000000000000000000000000000000000000000000000000000000000 DUP2 MSTORE PUSH1 0x4 ADD PUSH2 0x1C75 SWAP1 PUSH2 0x331F JUMP JUMPDEST PUSH1 0x40 MLOAD DUP1 SWAP2 SUB SWAP1 REVERT JUMPDEST PUSH2 0x1C88 DUP5 DUP5 PUSH2 0x1916 JUMP JUMPDEST DUP5 PUSH2 0xFFFF AND PUSH1 0x11 PUSH1 0x0 DUP7 PUSH1 0xFF AND PUSH1 0xFF AND DUP2 MSTORE PUSH1 0x20 ADD SWAP1 DUP2 MSTORE PUSH1 0x20 ADD PUSH1 0x0 KECCAK256 PUSH1 0x0 DUP6 PUSH1 0xFF AND PUSH1 0xFF AND DUP2 MSTORE PUSH1 0x20 ADD SWAP1 DUP2 MSTORE PUSH1 0x20 ADD PUSH1 0x0 KECCAK256 PUSH1 0x6 ADD PUSH1 0x0 SWAP1 SLOAD SWAP1 PUSH2 0x100 EXP SWAP1 DIV PUSH2 0xFFFF AND PUSH2 0xFFFF AND LT ISZERO PUSH2 0x1D14 JUMPI PUSH1 0x40 MLOAD PUSH32 0x8C379A000000000000000000000000000000000000000000000000000000000 DUP2 MSTORE PUSH1 0x4 ADD PUSH2 0x1D0B SWAP1 PUSH2 0x338B JUMP JUMPDEST PUSH1 0x40 MLOAD DUP1 SWAP2 SUB SWAP1 REVERT JUMPDEST PUSH1 0x11 PUSH1 0x0 DUP6 PUSH1 0xFF AND PUSH1 0xFF AND DUP2 MSTORE PUSH1 0x20 ADD SWAP1 DUP2 MSTORE PUSH1 0x20 ADD PUSH1 0x0 KECCAK256 PUSH1 0x0 DUP5 PUSH1 0xFF AND PUSH1 0xFF AND DUP2 MSTORE PUSH1 0x20 ADD SWAP1 DUP2 MSTORE PUSH1 0x20 ADD PUSH1 0x0 KECCAK256 PUSH1 0x5 ADD SLOAD PUSH2 0x3E8 PUSH2 0x1D55 SWAP2 SWAP1 PUSH2 0x3118 JUMP JUMPDEST DUP6 PUSH2 0xFFFF AND GT ISZERO PUSH2 0x1DA4 JUMPI PUSH1 0x11 PUSH1 0x0 DUP6 PUSH1 0xFF AND PUSH1 0xFF AND DUP2 MSTORE PUSH1 0x20 ADD SWAP1 DUP2 MSTORE PUSH1 0x20 ADD PUSH1 0x0 KECCAK256 PUSH1 0x0 DUP5 PUSH1 0xFF AND PUSH1 0xFF AND DUP2 MSTORE PUSH1 0x20 ADD SWAP1 DUP2 MSTORE PUSH1 0x20 ADD PUSH1 0x0 KECCAK256 PUSH1 0x5 ADD SLOAD PUSH2 0x3E8 PUSH2 0x1DA1 SWAP2 SWAP1 PUSH2 0x3118 JUMP JUMPDEST SWAP5 POP JUMPDEST DUP5 PUSH1 0x11 PUSH1 0x0 DUP7 PUSH1 0xFF AND PUSH1 0xFF AND DUP2 MSTORE PUSH1 0x20 ADD SWAP1 DUP2 MSTORE PUSH1 0x20 ADD PUSH1 0x0 KECCAK256 PUSH1 0x0 DUP6 PUSH1 0xFF AND PUSH1 0xFF AND DUP2 MSTORE PUSH1 0x20 ADD SWAP1 DUP2 MSTORE PUSH1 0x20 ADD PUSH1 0x0 KECCAK256 PUSH1 0x6 ADD PUSH1 0x0 SWAP1 SLOAD SWAP1 PUSH2 0x100 EXP SWAP1 DIV PUSH2 0xFFFF AND PUSH2 0x1DF1 SWAP2 SWAP1 PUSH2 0x33AB JUMP JUMPDEST PUSH1 0x11 PUSH1 0x0 DUP7 PUSH1 0xFF AND PUSH1 0xFF AND DUP2 MSTORE PUSH1 0x20 ADD SWAP1 DUP2 MSTORE PUSH1 0x20 ADD PUSH1 0x0 KECCAK256 PUSH1 0x0 DUP6 PUSH1 0xFF AND PUSH1 0xFF AND DUP2 MSTORE PUSH1 0x20 ADD SWAP1 DUP2 MSTORE PUSH1 0x20 ADD PUSH1 0x0 KECCAK256 PUSH1 0x6 ADD PUSH1 0x0 PUSH2 0x100 EXP DUP2 SLOAD DUP2 PUSH2 0xFFFF MUL NOT AND SWAP1 DUP4 PUSH2 0xFFFF AND MUL OR SWAP1 SSTORE POP TIMESTAMP PUSH1 0x11 PUSH1 0x0 DUP7 PUSH1 0xFF AND PUSH1 0xFF AND DUP2 MSTORE PUSH1 0x20 ADD SWAP1 DUP2 MSTORE PUSH1 0x20 ADD PUSH1 0x0 KECCAK256 PUSH1 0x0 DUP6 PUSH1 0xFF AND PUSH1 0xFF AND DUP2 MSTORE PUSH1 0x20 ADD SWAP1 DUP2 MSTORE PUSH1 0x20 ADD PUSH1 0x0 KECCAK256 PUSH1 0x7 ADD DUP2 SWAP1 SSTORE POP PUSH1 0x0 PUSH1 0x14 DUP6 PUSH1 0xFF AND PUSH1 0x14 DUP2 LT PUSH2 0x1E8F JUMPI PUSH2 0x1E8E PUSH2 0x32A4 JUMP JUMPDEST JUMPDEST ADD DUP5 PUSH1 0xFF AND PUSH1 0x14 DUP2 LT PUSH2 0x1EA5 JUMPI PUSH2 0x1EA4 PUSH2 0x32A4 JUMP JUMPDEST JUMPDEST PUSH1 0x20 SWAP2 DUP3 DUP3 DIV ADD SWAP2 SWAP1 MOD SWAP1 SLOAD SWAP1 PUSH2 0x100 EXP SWAP1 DIV PUSH1 0xFF AND SWAP1 POP PUSH1 0x0 PUSH1 0x11 PUSH1 0x0 DUP8 PUSH1 0xFF AND PUSH1 0xFF AND DUP2 MSTORE PUSH1 0x20 ADD SWAP1 DUP2 MSTORE PUSH1 0x20 ADD PUSH1 0x0 KECCAK256 PUSH1 0x0 DUP7 PUSH1 0xFF AND PUSH1 0xFF AND DUP2 MSTORE PUSH1 0x20 ADD SWAP1 DUP2 MSTORE PUSH1 0x20 ADD PUSH1 0x0 KECCAK256 SWAP1 POP PUSH1 0x1 DUP3 PUSH1 0xFF AND SUB PUSH2 0x1F20 JUMPI DUP7 PUSH2 0xFFFF AND DUP2 PUSH1 0x0 ADD PUSH1 0x0 DUP3 DUP3 SLOAD PUSH2 0x1F14 SWAP2 SWAP1 PUSH2 0x314C JUMP JUMPDEST SWAP3 POP POP DUP2 SWAP1 SSTORE POP PUSH2 0x1FAC JUMP JUMPDEST PUSH1 0x2 DUP3 PUSH1 0xFF AND SUB PUSH2 0x1F4F JUMPI DUP7 PUSH2 0xFFFF AND DUP2 PUSH1 0x1 ADD PUSH1 0x0 DUP3 DUP3 SLOAD PUSH2 0x1F43 SWAP2 SWAP1 PUSH2 0x314C JUMP JUMPDEST SWAP3 POP POP DUP2 SWAP1 SSTORE POP PUSH2 0x1FAB JUMP JUMPDEST PUSH1 0x3 DUP3 PUSH1 0xFF AND SUB PUSH2 0x1F7E JUMPI DUP7 PUSH2 0xFFFF AND DUP2 PUSH1 0x2 ADD PUSH1 0x0 DUP3 DUP3 SLOAD PUSH2 0x1F72 SWAP2 SWAP1 PUSH2 0x314C JUMP JUMPDEST SWAP3 POP POP DUP2 SWAP1 SSTORE POP PUSH2 0x1FAA JUMP JUMPDEST PUSH1 0x4 DUP3 PUSH1 0xFF AND SUB PUSH2 0x1FA9 JUMPI DUP7 PUSH2 0xFFFF AND DUP2 PUSH1 0x3 ADD PUSH1 0x0 DUP3 DUP3 SLOAD PUSH2 0x1FA1 SWAP2 SWAP1 PUSH2 0x314C JUMP JUMPDEST SWAP3 POP POP DUP2 SWAP1 SSTORE POP JUMPDEST JUMPDEST JUMPDEST JUMPDEST DUP1 PUSH1 0x4 ADD PUSH1 0x0 SWAP1 SLOAD SWAP1 PUSH2 0x100 EXP SWAP1 DIV PUSH2 0xFFFF AND DUP8 PUSH2 0x1FCA SWAP2 SWAP1 PUSH2 0x33E1 JUMP JUMPDEST PUSH2 0xFFFF AND DUP2 PUSH1 0x0 ADD PUSH1 0x0 DUP3 DUP3 SLOAD PUSH2 0x1FE1 SWAP2 SWAP1 PUSH2 0x314C JUMP JUMPDEST SWAP3 POP POP DUP2 SWAP1 SSTORE POP DUP1 PUSH1 0x4 ADD PUSH1 0x0 SWAP1 SLOAD SWAP1 PUSH2 0x100 EXP SWAP1 DIV PUSH2 0xFFFF AND DUP8 PUSH2 0x2006 SWAP2 SWAP1 PUSH2 0x33E1 JUMP JUMPDEST PUSH2 0xFFFF AND DUP2 PUSH1 0x1 ADD PUSH1 0x0 DUP3 DUP3 SLOAD PUSH2 0x201D SWAP2 SWAP1 PUSH2 0x314C JUMP JUMPDEST SWAP3 POP POP DUP2 SWAP1 SSTORE POP DUP1 PUSH1 0x4 ADD PUSH1 0x0 SWAP1 SLOAD SWAP1 PUSH2 0x100 EXP SWAP1 DIV PUSH2 0xFFFF AND DUP8 PUSH2 0x2042 SWAP2 SWAP1 PUSH2 0x33E1 JUMP JUMPDEST PUSH2 0xFFFF AND DUP2 PUSH1 0x2 ADD PUSH1 0x0 DUP3 DUP3 SLOAD PUSH2 0x2059 SWAP2 SWAP1 PUSH2 0x314C JUMP JUMPDEST SWAP3 POP POP DUP2 SWAP1 SSTORE POP DUP1 PUSH1 0x4 ADD PUSH1 0x0 SWAP1 SLOAD SWAP1 PUSH2 0x100 EXP SWAP1 DIV PUSH2 0xFFFF AND DUP8 PUSH2 0x207E SWAP2 SWAP1 PUSH2 0x33E1 JUMP JUMPDEST PUSH2 0xFFFF AND DUP2 PUSH1 0x3 ADD PUSH1 0x0 DUP3 DUP3 SLOAD PUSH2 0x2095 SWAP2 SWAP1 PUSH2 0x314C JUMP JUMPDEST SWAP3 POP POP DUP2 SWAP1 SSTORE POP DUP7 PUSH2 0xFFFF AND DUP2 PUSH1 0x5 ADD PUSH1 0x0 DUP3 DUP3 SLOAD PUSH2 0x20B4 SWAP2 SWAP1 PUSH2 0x314C JUMP JUMPDEST SWAP3 POP POP DUP2 SWAP1 SSTORE POP PUSH1 0x0 PUSH2 0x3E8 DUP3 PUSH1 0x5 ADD SLOAD PUSH2 0x20CF SWAP2 SWAP1 PUSH2 0x2F37 JUMP JUMPDEST SWAP1 POP PUSH2 0x3E8 DUP3 PUSH1 0x5 ADD PUSH1 0x0 DUP3 DUP3 SLOAD PUSH2 0x20E7 SWAP2 SWAP1 PUSH2 0x3417 JUMP JUMPDEST SWAP3 POP POP DUP2 SWAP1 SSTORE POP PUSH1 0x0 DUP2 DUP4 PUSH1 0x4 ADD PUSH1 0x0 SWAP1 SLOAD SWAP1 PUSH2 0x100 EXP SWAP1 DIV PUSH2 0xFFFF AND PUSH2 0x210E SWAP2 SWAP1 PUSH2 0x33E1 JUMP JUMPDEST SWAP1 POP PUSH2 0x1F4 PUSH2 0xFFFF AND DUP2 PUSH2 0xFFFF AND GT ISZERO PUSH2 0x2148 JUMPI PUSH2 0x1F4 DUP4 PUSH1 0x4 ADD PUSH1 0x0 PUSH2 0x100 EXP DUP2 SLOAD DUP2 PUSH2 0xFFFF MUL NOT AND SWAP1 DUP4 PUSH2 0xFFFF AND MUL OR SWAP1 SSTORE POP PUSH2 0x2168 JUMP JUMPDEST DUP1 DUP4 PUSH1 0x4 ADD PUSH1 0x0 PUSH2 0x100 EXP DUP2 SLOAD DUP2 PUSH2 0xFFFF MUL NOT AND SWAP1 DUP4 PUSH2 0xFFFF AND MUL OR SWAP1 SSTORE POP JUMPDEST CALLER PUSH20 0xFFFFFFFFFFFFFFFFFFFFFFFFFFFFFFFFFFFFFFFF AND PUSH32 0xBB5B4F7847476E1912E2B57D030B0E491D0D72B2EF256CCEEA9DAA41F40F5D18 DUP11 DUP11 DUP11 PUSH1 0x40 MLOAD PUSH2 0x21B2 SWAP4 SWAP3 SWAP2 SWAP1 PUSH2 0x3479 JUMP JUMPDEST PUSH1 0x40 MLOAD DUP1 SWAP2 SUB SWAP1 LOG2 POP POP POP POP POP POP POP POP POP JUMP JUMPDEST PUSH1 0x0 DUP3 DUP3 CALLER PUSH20 0xFFFFFFFFFFFFFFFFFFFFFFFFFFFFFFFFFFFFFFFF AND PUSH1 0x0 DUP1 SLOAD SWAP1 PUSH2 0x100 EXP SWAP1 DIV PUSH20 0xFFFFFFFFFFFFFFFFFFFFFFFFFFFFFFFFFFFFFFFF AND PUSH20 0xFFFFFFFFFFFFFFFFFFFFFFFFFFFFFFFFFFFFFFFF AND PUSH4 0x8A888953 DUP5 DUP5 PUSH1 0x40 MLOAD DUP4 PUSH4 0xFFFFFFFF AND PUSH1 0xE0 SHL DUP2 MSTORE PUSH1 0x4 ADD PUSH2 0x223B SWAP3 SWAP2 SWAP1 PUSH2 0x2B85 JUMP JUMPDEST PUSH1 0x20 PUSH1 0x40 MLOAD DUP1 DUP4 SUB DUP2 DUP7 GAS STATICCALL ISZERO DUP1 ISZERO PUSH2 0x2258 JUMPI RETURNDATASIZE PUSH1 0x0 DUP1 RETURNDATACOPY RETURNDATASIZE PUSH1 0x0 REVERT JUMPDEST POP POP POP POP PUSH1 0x40 MLOAD RETURNDATASIZE PUSH1 0x1F NOT PUSH1 0x1F DUP3 ADD AND DUP3 ADD DUP1 PUSH1 0x40 MSTORE POP DUP2 ADD SWAP1 PUSH2 0x227C SWAP2 SWAP1 PUSH2 0x2BEC JUMP JUMPDEST PUSH20 0xFFFFFFFFFFFFFFFFFFFFFFFFFFFFFFFFFFFFFFFF AND EQ PUSH2 0x22D2 JUMPI PUSH1 0x40 MLOAD PUSH32 0x8C379A000000000000000000000000000000000000000000000000000000000 DUP2 MSTORE PUSH1 0x4 ADD PUSH2 0x22C9 SWAP1 PUSH2 0x2C76 JUMP JUMPDEST PUSH1 0x40 MLOAD DUP1 SWAP2 SUB SWAP1 REVERT JUMPDEST PUSH2 0x258 PUSH1 0x1 PUSH1 0x11 PUSH1 0x0 DUP9 PUSH1 0xFF AND PUSH1 0xFF AND DUP2 MSTORE PUSH1 0x20 ADD SWAP1 DUP2 MSTORE PUSH1 0x20 ADD PUSH1 0x0 KECCAK256 PUSH1 0x0 DUP8 PUSH1 0xFF AND PUSH1 0xFF AND DUP2 MSTORE PUSH1 0x20 ADD SWAP1 DUP2 MSTORE PUSH1 0x20 ADD PUSH1 0x0 KECCAK256 PUSH1 0x7 ADD SLOAD TIMESTAMP PUSH2 0x2316 SWAP2 SWAP1 PUSH2 0x3118 JUMP JUMPDEST PUSH2 0x2320 SWAP2 SWAP1 PUSH2 0x2F37 JUMP JUMPDEST PUSH1 0x11 PUSH1 0x0 DUP9 PUSH1 0xFF AND PUSH1 0xFF AND DUP2 MSTORE PUSH1 0x20 ADD SWAP1 DUP2 MSTORE PUSH1 0x20 ADD PUSH1 0x0 KECCAK256 PUSH1 0x0 DUP8 PUSH1 0xFF AND PUSH1 0xFF AND DUP2 MSTORE PUSH1 0x20 ADD SWAP1 DUP2 MSTORE PUSH1 0x20 ADD PUSH1 0x0 KECCAK256 PUSH1 0x6 ADD PUSH1 0x0 SWAP1 SLOAD SWAP1 PUSH2 0x100 EXP SWAP1 DIV PUSH2 0xFFFF AND PUSH2 0xFFFF AND PUSH2 0x2370 SWAP2 SWAP1 PUSH2 0x314C JUMP JUMPDEST GT ISZERO PUSH2 0x2380 JUMPI PUSH2 0x258 SWAP3 POP PUSH2 0x241E JUMP JUMPDEST PUSH1 0x1 PUSH1 0x11 PUSH1 0x0 DUP8 PUSH1 0xFF AND PUSH1 0xFF AND DUP2 MSTORE PUSH1 0x20 ADD SWAP1 DUP2 MSTORE PUSH1 0x20 ADD PUSH1 0x0 KECCAK256 PUSH1 0x0 DUP7 PUSH1 0xFF AND PUSH1 0xFF AND DUP2 MSTORE PUSH1 0x20 ADD SWAP1 DUP2 MSTORE PUSH1 0x20 ADD PUSH1 0x0 KECCAK256 PUSH1 0x7 ADD SLOAD TIMESTAMP PUSH2 0x23C1 SWAP2 SWAP1 PUSH2 0x3118 JUMP JUMPDEST PUSH2 0x23CB SWAP2 SWAP1 PUSH2 0x2F37 JUMP JUMPDEST PUSH1 0x11 PUSH1 0x0 DUP8 PUSH1 0xFF AND PUSH1 0xFF AND DUP2 MSTORE PUSH1 0x20 ADD SWAP1 DUP2 MSTORE PUSH1 0x20 ADD PUSH1 0x0 KECCAK256 PUSH1 0x0 DUP7 PUSH1 0xFF AND PUSH1 0xFF AND DUP2 MSTORE PUSH1 0x20 ADD SWAP1 DUP2 MSTORE PUSH1 0x20 ADD PUSH1 0x0 KECCAK256 PUSH1 0x6 ADD PUSH1 0x0 SWAP1 SLOAD SWAP1 PUSH2 0x100 EXP SWAP1 DIV PUSH2 0xFFFF AND PUSH2 0xFFFF AND PUSH2 0x241B SWAP2 SWAP1 PUSH2 0x314C JUMP JUMPDEST SWAP3 POP JUMPDEST POP POP SWAP3 SWAP2 POP POP JUMP JUMPDEST PUSH1 0x40 MLOAD DUP1 PUSH2 0x120 ADD PUSH1 0x40 MSTORE DUP1 PUSH1 0x9 SWAP1 JUMPDEST PUSH2 0x243E PUSH2 0x2454 JUMP JUMPDEST DUP2 MSTORE PUSH1 0x20 ADD SWAP1 PUSH1 0x1 SWAP1 SUB SWAP1 DUP2 PUSH2 0x2436 JUMPI SWAP1 POP POP SWAP1 JUMP JUMPDEST PUSH1 0x40 MLOAD DUP1 PUSH2 0x120 ADD PUSH1 0x40 MSTORE DUP1 PUSH1 0x9 SWAP1 PUSH1 0x20 DUP3 MUL DUP1 CALLDATASIZE DUP4 CALLDATACOPY DUP1 DUP3 ADD SWAP2 POP POP SWAP1 POP POP SWAP1 JUMP JUMPDEST PUSH1 0x0 DUP1 REVERT JUMPDEST PUSH1 0x0 PUSH1 0xFF DUP3 AND SWAP1 POP SWAP2 SWAP1 POP JUMP JUMPDEST PUSH2 0x2492 DUP2 PUSH2 0x247C JUMP JUMPDEST DUP2 EQ PUSH2 0x249D JUMPI PUSH1 0x0 DUP1 REVERT JUMPDEST POP JUMP JUMPDEST PUSH1 0x0 DUP2 CALLDATALOAD SWAP1 POP PUSH2 0x24AF DUP2 PUSH2 0x2489 JUMP JUMPDEST SWAP3 SWAP2 POP POP JUMP JUMPDEST PUSH1 0x0 DUP2 SWAP1 POP SWAP2 SWAP1 POP JUMP JUMPDEST PUSH2 0x24C8 DUP2 PUSH2 0x24B5 JUMP JUMPDEST DUP2 EQ PUSH2 0x24D3 JUMPI PUSH1 0x0 DUP1 REVERT JUMPDEST POP JUMP JUMPDEST PUSH1 0x0 DUP2 CALLDATALOAD SWAP1 POP PUSH2 0x24E5 DUP2 PUSH2 0x24BF JUMP JUMPDEST SWAP3 SWAP2 POP POP JUMP JUMPDEST PUSH1 0x0 DUP1 PUSH1 0x0 DUP1 PUSH1 0x80 DUP6 DUP8 SUB SLT ISZERO PUSH2 0x2505 JUMPI PUSH2 0x2504 PUSH2 0x2477 JUMP JUMPDEST JUMPDEST PUSH1 0x0 PUSH2 0x2513 DUP8 DUP3 DUP9 ADD PUSH2 0x24A0 JUMP JUMPDEST SWAP5 POP POP PUSH1 0x20 PUSH2 0x2524 DUP8 DUP3 DUP9 ADD PUSH2 0x24A0 JUMP JUMPDEST SWAP4 POP POP PUSH1 0x40 PUSH2 0x2535 DUP8 DUP3 DUP9 ADD PUSH2 0x24A0 JUMP JUMPDEST SWAP3 POP POP PUSH1 0x60 PUSH2 0x2546 DUP8 DUP3 DUP9 ADD PUSH2 0x24D6 JUMP JUMPDEST SWAP2 POP POP SWAP3 SWAP6 SWAP2 SWAP5 POP SWAP3 POP JUMP JUMPDEST PUSH1 0x0 DUP1 PUSH1 0x0 DUP1 PUSH1 0x0 PUSH1 0xA0 DUP7 DUP9 SUB SLT ISZERO PUSH2 0x256E JUMPI PUSH2 0x256D PUSH2 0x2477 JUMP JUMPDEST JUMPDEST PUSH1 0x0 PUSH2 0x257C DUP9 DUP3 DUP10 ADD PUSH2 0x24A0 JUMP JUMPDEST SWAP6 POP POP PUSH1 0x20 PUSH2 0x258D DUP9 DUP3 DUP10 ADD PUSH2 0x24A0 JUMP JUMPDEST SWAP5 POP POP PUSH1 0x40 PUSH2 0x259E DUP9 DUP3 DUP10 ADD PUSH2 0x24A0 JUMP JUMPDEST SWAP4 POP POP PUSH1 0x60 PUSH2 0x25AF DUP9 DUP3 DUP10 ADD PUSH2 0x24A0 JUMP JUMPDEST SWAP3 POP POP PUSH1 0x80 PUSH2 0x25C0 DUP9 DUP3 DUP10 ADD PUSH2 0x24A0 JUMP JUMPDEST SWAP2 POP POP SWAP3 SWAP6 POP SWAP3 SWAP6 SWAP1 SWAP4 POP JUMP JUMPDEST PUSH1 0x0 PUSH20 0xFFFFFFFFFFFFFFFFFFFFFFFFFFFFFFFFFFFFFFFF DUP3 AND SWAP1 POP SWAP2 SWAP1 POP JUMP JUMPDEST PUSH1 0x0 DUP2 SWAP1 POP SWAP2 SWAP1 POP JUMP JUMPDEST PUSH1 0x0 PUSH2 0x2612 PUSH2 0x260D PUSH2 0x2608 DUP5 PUSH2 0x25CD JUMP JUMPDEST PUSH2 0x25ED JUMP JUMPDEST PUSH2 0x25CD JUMP JUMPDEST SWAP1 POP SWAP2 SWAP1 POP JUMP JUMPDEST PUSH1 0x0 PUSH2 0x2624 DUP3 PUSH2 0x25F7 JUMP JUMPDEST SWAP1 POP SWAP2 SWAP1 POP JUMP JUMPDEST PUSH1 0x0 PUSH2 0x2636 DUP3 PUSH2 0x2619 JUMP JUMPDEST SWAP1 POP SWAP2 SWAP1 POP JUMP JUMPDEST PUSH2 0x2646 DUP2 PUSH2 0x262B JUMP JUMPDEST DUP3 MSTORE POP POP JUMP JUMPDEST PUSH1 0x0 PUSH1 0x20 DUP3 ADD SWAP1 POP PUSH2 0x2661 PUSH1 0x0 DUP4 ADD DUP5 PUSH2 0x263D JUMP JUMPDEST SWAP3 SWAP2 POP POP JUMP JUMPDEST PUSH2 0x2670 DUP2 PUSH2 0x24B5 JUMP JUMPDEST DUP3 MSTORE POP POP JUMP JUMPDEST PUSH1 0x0 PUSH1 0x80 DUP3 ADD SWAP1 POP PUSH2 0x268B PUSH1 0x0 DUP4 ADD DUP8 PUSH2 0x2667 JUMP JUMPDEST PUSH2 0x2698 PUSH1 0x20 DUP4 ADD DUP7 PUSH2 0x2667 JUMP JUMPDEST PUSH2 0x26A5 PUSH1 0x40 DUP4 ADD DUP6 PUSH2 0x2667 JUMP JUMPDEST PUSH2 0x26B2 PUSH1 0x60 DUP4 ADD DUP5 PUSH2 0x2667 JUMP JUMPDEST SWAP6 SWAP5 POP POP POP POP POP JUMP JUMPDEST PUSH1 0x0 DUP1 PUSH1 0x40 DUP4 DUP6 SUB SLT ISZERO PUSH2 0x26D2 JUMPI PUSH2 0x26D1 PUSH2 0x2477 JUMP JUMPDEST JUMPDEST PUSH1 0x0 PUSH2 0x26E0 DUP6 DUP3 DUP7 ADD PUSH2 0x24A0 JUMP JUMPDEST SWAP3 POP POP PUSH1 0x20 PUSH2 0x26F1 DUP6 DUP3 DUP7 ADD PUSH2 0x24A0 JUMP JUMPDEST SWAP2 POP POP SWAP3 POP SWAP3 SWAP1 POP JUMP JUMPDEST PUSH1 0x0 PUSH2 0xFFFF DUP3 AND SWAP1 POP SWAP2 SWAP1 POP JUMP JUMPDEST PUSH2 0x2712 DUP2 PUSH2 0x26FB JUMP JUMPDEST DUP3 MSTORE POP POP JUMP JUMPDEST PUSH1 0x0 PUSH2 0x180 DUP3 ADD SWAP1 POP PUSH2 0x272E PUSH1 0x0 DUP4 ADD DUP16 PUSH2 0x2667 JUMP JUMPDEST PUSH2 0x273B PUSH1 0x20 DUP4 ADD DUP15 PUSH2 0x2667 JUMP JUMPDEST PUSH2 0x2748 PUSH1 0x40 DUP4 ADD DUP14 PUSH2 0x2667 JUMP JUMPDEST PUSH2 0x2755 PUSH1 0x60 DUP4 ADD DUP13 PUSH2 0x2667 JUMP JUMPDEST PUSH2 0x2762 PUSH1 0x80 DUP4 ADD DUP12 PUSH2 0x2709 JUMP JUMPDEST PUSH2 0x276F PUSH1 0xA0 DUP4 ADD DUP11 PUSH2 0x2667 JUMP JUMPDEST PUSH2 0x277C PUSH1 0xC0 DUP4 ADD DUP10 PUSH2 0x2709 JUMP JUMPDEST PUSH2 0x2789 PUSH1 0xE0 DUP4 ADD DUP9 PUSH2 0x2667 JUMP JUMPDEST PUSH2 0x2797 PUSH2 0x100 DUP4 ADD DUP8 PUSH2 0x2667 JUMP JUMPDEST PUSH2 0x27A5 PUSH2 0x120 DUP4 ADD DUP7 PUSH2 0x2667 JUMP JUMPDEST PUSH2 0x27B3 PUSH2 0x140 DUP4 ADD DUP6 PUSH2 0x2667 JUMP JUMPDEST PUSH2 0x27C1 PUSH2 0x160 DUP4 ADD DUP5 PUSH2 0x2667 JUMP JUMPDEST SWAP14 SWAP13 POP POP POP POP POP POP POP POP POP POP POP POP POP JUMP JUMPDEST PUSH1 0x0 DUP1 PUSH1 0x0 DUP1 PUSH1 0x80 DUP6 DUP8 SUB SLT ISZERO PUSH2 0x27EC JUMPI PUSH2 0x27EB PUSH2 0x2477 JUMP JUMPDEST JUMPDEST PUSH1 0x0 PUSH2 0x27FA DUP8 DUP3 DUP9 ADD PUSH2 0x24A0 JUMP JUMPDEST SWAP5 POP POP PUSH1 0x20 PUSH2 0x280B DUP8 DUP3 DUP9 ADD PUSH2 0x24A0 JUMP JUMPDEST SWAP4 POP POP PUSH1 0x40 PUSH2 0x281C DUP8 DUP3 DUP9 ADD PUSH2 0x24A0 JUMP JUMPDEST SWAP3 POP POP PUSH1 0x60 PUSH2 0x282D DUP8 DUP3 DUP9 ADD PUSH2 0x24A0 JUMP JUMPDEST SWAP2 POP POP SWAP3 SWAP6 SWAP2 SWAP5 POP SWAP3 POP JUMP JUMPDEST PUSH2 0x2842 DUP2 PUSH2 0x247C JUMP JUMPDEST DUP3 MSTORE POP POP JUMP JUMPDEST PUSH1 0x0 PUSH1 0x20 DUP3 ADD SWAP1 POP PUSH2 0x285D PUSH1 0x0 DUP4 ADD DUP5 PUSH2 0x2839 JUMP JUMPDEST SWAP3 SWAP2 POP POP JUMP JUMPDEST PUSH1 0x0 DUP1 PUSH1 0x40 DUP4 DUP6 SUB SLT ISZERO PUSH2 0x287A JUMPI PUSH2 0x2879 PUSH2 0x2477 JUMP JUMPDEST JUMPDEST PUSH1 0x0 PUSH2 0x2888 DUP6 DUP3 DUP7 ADD PUSH2 0x24D6 JUMP JUMPDEST SWAP3 POP POP PUSH1 0x20 PUSH2 0x2899 DUP6 DUP3 DUP7 ADD PUSH2 0x24D6 JUMP JUMPDEST SWAP2 POP POP SWAP3 POP SWAP3 SWAP1 POP JUMP JUMPDEST PUSH1 0x0 PUSH2 0x140 DUP3 ADD SWAP1 POP PUSH2 0x28B9 PUSH1 0x0 DUP4 ADD DUP14 PUSH2 0x2667 JUMP JUMPDEST PUSH2 0x28C6 PUSH1 0x20 DUP4 ADD DUP13 PUSH2 0x2667 JUMP JUMPDEST PUSH2 0x28D3 PUSH1 0x40 DUP4 ADD DUP12 PUSH2 0x2667 JUMP JUMPDEST PUSH2 0x28E0 PUSH1 0x60 DUP4 ADD DUP11 PUSH2 0x2667 JUMP JUMPDEST PUSH2 0x28ED PUSH1 0x80 DUP4 ADD DUP10 PUSH2 0x2709 JUMP JUMPDEST PUSH2 0x28FA PUSH1 0xA0 DUP4 ADD DUP9 PUSH2 0x2667 JUMP JUMPDEST PUSH2 0x2907 PUSH1 0xC0 DUP4 ADD DUP8 PUSH2 0x2667 JUMP JUMPDEST PUSH2 0x2914 PUSH1 0xE0 DUP4 ADD DUP7 PUSH2 0x2667 JUMP JUMPDEST PUSH2 0x2922 PUSH2 0x100 DUP4 ADD DUP6 PUSH2 0x2667 JUMP JUMPDEST PUSH2 0x2930 PUSH2 0x120 DUP4 ADD DUP5 PUSH2 0x2667 JUMP JUMPDEST SWAP12 SWAP11 POP POP POP POP POP POP POP POP POP POP POP JUMP JUMPDEST PUSH1 0x0 PUSH1 0x20 DUP3 ADD SWAP1 POP PUSH2 0x2954 PUSH1 0x0 DUP4 ADD DUP5 PUSH2 0x2667 JUMP JUMPDEST SWAP3 SWAP2 POP POP JUMP JUMPDEST PUSH1 0x0 PUSH1 0x9 SWAP1 POP SWAP2 SWAP1 POP JUMP JUMPDEST PUSH1 0x0 DUP2 SWAP1 POP SWAP3 SWAP2 POP POP JUMP JUMPDEST PUSH1 0x0 DUP2 SWAP1 POP SWAP2 SWAP1 POP JUMP JUMPDEST PUSH1 0x0 PUSH1 0x9 SWAP1 POP SWAP2 SWAP1 POP JUMP JUMPDEST PUSH1 0x0 DUP2 SWAP1 POP SWAP3 SWAP2 POP POP JUMP JUMPDEST PUSH1 0x0 DUP2 SWAP1 POP SWAP2 SWAP1 POP JUMP JUMPDEST PUSH2 0x29A3 DUP2 PUSH2 0x247C JUMP JUMPDEST DUP3 MSTORE POP POP JUMP JUMPDEST PUSH1 0x0 PUSH2 0x29B5 DUP4 DUP4 PUSH2 0x299A JUMP JUMPDEST PUSH1 0x20 DUP4 ADD SWAP1 POP SWAP3 SWAP2 POP POP JUMP JUMPDEST PUSH1 0x0 PUSH1 0x20 DUP3 ADD SWAP1 POP SWAP2 SWAP1 POP JUMP JUMPDEST PUSH2 0x29D7 DUP2 PUSH2 0x297A JUMP JUMPDEST PUSH2 0x29E1 DUP2 DUP5 PUSH2 0x2985 JUMP JUMPDEST SWAP3 POP PUSH2 0x29EC DUP3 PUSH2 0x2990 JUMP JUMPDEST DUP1 PUSH1 0x0 JUMPDEST DUP4 DUP2 LT ISZERO PUSH2 0x2A1D JUMPI DUP2 MLOAD PUSH2 0x2A04 DUP8 DUP3 PUSH2 0x29A9 JUMP JUMPDEST SWAP7 POP PUSH2 0x2A0F DUP4 PUSH2 0x29C1 JUMP JUMPDEST SWAP3 POP POP PUSH1 0x1 DUP2 ADD SWAP1 POP PUSH2 0x29F0 JUMP JUMPDEST POP POP POP POP POP POP JUMP JUMPDEST PUSH1 0x0 PUSH2 0x2A31 DUP4 DUP4 PUSH2 0x29CE JUMP JUMPDEST PUSH2 0x120 DUP4 ADD SWAP1 POP SWAP3 SWAP2 POP POP JUMP JUMPDEST PUSH1 0x0 PUSH1 0x20 DUP3 ADD SWAP1 POP SWAP2 SWAP1 POP JUMP JUMPDEST PUSH2 0x2A54 DUP2 PUSH2 0x295A JUMP JUMPDEST PUSH2 0x2A5E DUP2 DUP5 PUSH2 0x2965 JUMP JUMPDEST SWAP3 POP PUSH2 0x2A69 DUP3 PUSH2 0x2970 JUMP JUMPDEST DUP1 PUSH1 0x0 JUMPDEST DUP4 DUP2 LT ISZERO PUSH2 0x2A9A JUMPI DUP2 MLOAD PUSH2 0x2A81 DUP8 DUP3 PUSH2 0x2A25 JUMP JUMPDEST SWAP7 POP PUSH2 0x2A8C DUP4 PUSH2 0x2A3E JUMP JUMPDEST SWAP3 POP POP PUSH1 0x1 DUP2 ADD SWAP1 POP PUSH2 0x2A6D JUMP JUMPDEST POP POP POP POP POP POP JUMP JUMPDEST PUSH1 0x0 PUSH2 0xA20 DUP3 ADD SWAP1 POP PUSH2 0x2AB8 PUSH1 0x0 DUP4 ADD DUP5 PUSH2 0x2A4B JUMP JUMPDEST SWAP3 SWAP2 POP POP JUMP JUMPDEST PUSH1 0x0 PUSH1 0x20 DUP3 DUP5 SUB SLT ISZERO PUSH2 0x2AD4 JUMPI PUSH2 0x2AD3 PUSH2 0x2477 JUMP JUMPDEST JUMPDEST PUSH1 0x0 PUSH2 0x2AE2 DUP5 DUP3 DUP6 ADD PUSH2 0x24A0 JUMP JUMPDEST SWAP2 POP POP SWAP3 SWAP2 POP POP JUMP JUMPDEST PUSH1 0x0 PUSH1 0x20 DUP3 ADD SWAP1 POP PUSH2 0x2B00 PUSH1 0x0 DUP4 ADD DUP5 PUSH2 0x2709 JUMP JUMPDEST SWAP3 SWAP2 POP POP JUMP JUMPDEST PUSH2 0x2B0F DUP2 PUSH2 0x26FB JUMP JUMPDEST DUP2 EQ PUSH2 0x2B1A JUMPI PUSH1 0x0 DUP1 REVERT JUMPDEST POP JUMP JUMPDEST PUSH1 0x0 DUP2 CALLDATALOAD SWAP1 POP PUSH2 0x2B2C DUP2 PUSH2 0x2B06 JUMP JUMPDEST SWAP3 SWAP2 POP POP JUMP JUMPDEST PUSH1 0x0 DUP1 PUSH1 0x0 PUSH1 0x60 DUP5 DUP7 SUB SLT ISZERO PUSH2 0x2B4B JUMPI PUSH2 0x2B4A PUSH2 0x2477 JUMP JUMPDEST JUMPDEST PUSH1 0x0 PUSH2 0x2B59 DUP7 DUP3 DUP8 ADD PUSH2 0x2B1D JUMP JUMPDEST SWAP4 POP POP PUSH1 0x20 PUSH2 0x2B6A DUP7 DUP3 DUP8 ADD PUSH2 0x24A0 JUMP JUMPDEST SWAP3 POP POP PUSH1 0x40 PUSH2 0x2B7B DUP7 DUP3 DUP8 ADD PUSH2 0x24A0 JUMP JUMPDEST SWAP2 POP POP SWAP3 POP SWAP3 POP SWAP3 JUMP JUMPDEST PUSH1 0x0 PUSH1 0x40 DUP3 ADD SWAP1 POP PUSH2 0x2B9A PUSH1 0x0 DUP4 ADD DUP6 PUSH2 0x2839 JUMP JUMPDEST PUSH2 0x2BA7 PUSH1 0x20 DUP4 ADD DUP5 PUSH2 0x2839 JUMP JUMPDEST SWAP4 SWAP3 POP POP POP JUMP JUMPDEST PUSH1 0x0 PUSH2 0x2BB9 DUP3 PUSH2 0x25CD JUMP JUMPDEST SWAP1 POP SWAP2 SWAP1 POP JUMP JUMPDEST PUSH2 0x2BC9 DUP2 PUSH2 0x2BAE JUMP JUMPDEST DUP2 EQ PUSH2 0x2BD4 JUMPI PUSH1 0x0 DUP1 REVERT JUMPDEST POP JUMP JUMPDEST PUSH1 0x0 DUP2 MLOAD SWAP1 POP PUSH2 0x2BE6 DUP2 PUSH2 0x2BC0 JUMP JUMPDEST SWAP3 SWAP2 POP POP JUMP JUMPDEST PUSH1 0x0 PUSH1 0x20 DUP3 DUP5 SUB SLT ISZERO PUSH2 0x2C02 JUMPI PUSH2 0x2C01 PUSH2 0x2477 JUMP JUMPDEST JUMPDEST PUSH1 0x0 PUSH2 0x2C10 DUP5 DUP3 DUP6 ADD PUSH2 0x2BD7 JUMP JUMPDEST SWAP2 POP POP SWAP3 SWAP2 POP POP JUMP JUMPDEST PUSH1 0x0 DUP3 DUP3 MSTORE PUSH1 0x20 DUP3 ADD SWAP1 POP SWAP3 SWAP2 POP POP JUMP JUMPDEST PUSH32 0x596F7520646F206E6F74206F776E20746869732074696C650000000000000000 PUSH1 0x0 DUP3 ADD MSTORE POP JUMP JUMPDEST PUSH1 0x0 PUSH2 0x2C60 PUSH1 0x18 DUP4 PUSH2 0x2C19 JUMP JUMPDEST SWAP2 POP PUSH2 0x2C6B DUP3 PUSH2 0x2C2A JUMP JUMPDEST PUSH1 0x20 DUP3 ADD SWAP1 POP SWAP2 SWAP1 POP JUMP JUMPDEST PUSH1 0x0 PUSH1 0x20 DUP3 ADD SWAP1 POP DUP2 DUP2 SUB PUSH1 0x0 DUP4 ADD MSTORE PUSH2 0x2C8F DUP2 PUSH2 0x2C53 JUMP JUMPDEST SWAP1 POP SWAP2 SWAP1 POP JUMP JUMPDEST PUSH32 0x5175616E74697479206D7573742062652067726561746572207468616E207A65 PUSH1 0x0 DUP3 ADD MSTORE PUSH32 0x726F000000000000000000000000000000000000000000000000000000000000 PUSH1 0x20 DUP3 ADD MSTORE POP JUMP JUMPDEST PUSH1 0x0 PUSH2 0x2CF2 PUSH1 0x22 DUP4 PUSH2 0x2C19 JUMP JUMPDEST SWAP2 POP PUSH2 0x2CFD DUP3 PUSH2 0x2C96 JUMP JUMPDEST PUSH1 0x40 DUP3 ADD SWAP1 POP SWAP2 SWAP1 POP JUMP JUMPDEST PUSH1 0x0 PUSH1 0x20 DUP3 ADD SWAP1 POP DUP2 DUP2 SUB PUSH1 0x0 DUP4 ADD MSTORE PUSH2 0x2D21 DUP2 PUSH2 0x2CE5 JUMP JUMPDEST SWAP1 POP SWAP2 SWAP1 POP JUMP JUMPDEST PUSH32 0x496E76616C69642061726D6F7220747970650000000000000000000000000000 PUSH1 0x0 DUP3 ADD MSTORE POP JUMP JUMPDEST PUSH1 0x0 PUSH2 0x2D5E PUSH1 0x12 DUP4 PUSH2 0x2C19 JUMP JUMPDEST SWAP2 POP PUSH2 0x2D69 DUP3 PUSH2 0x2D28 JUMP JUMPDEST PUSH1 0x20 DUP3 ADD SWAP1 POP SWAP2 SWAP1 POP JUMP JUMPDEST PUSH1 0x0 PUSH1 0x20 DUP3 ADD SWAP1 POP DUP2 DUP2 SUB PUSH1 0x0 DUP4 ADD MSTORE PUSH2 0x2D8D DUP2 PUSH2 0x2D51 JUMP JUMPDEST SWAP1 POP SWAP2 SWAP1 POP JUMP JUMPDEST PUSH32 0x4E487B7100000000000000000000000000000000000000000000000000000000 PUSH1 0x0 MSTORE PUSH1 0x11 PUSH1 0x4 MSTORE PUSH1 0x24 PUSH1 0x0 REVERT JUMPDEST PUSH1 0x0 PUSH2 0x2DCE DUP3 PUSH2 0x24B5 JUMP JUMPDEST SWAP2 POP PUSH32 0xFFFFFFFFFFFFFFFFFFFFFFFFFFFFFFFFFFFFFFFFFFFFFFFFFFFFFFFFFFFFFFFF DUP3 SUB PUSH2 0x2E00 JUMPI PUSH2 0x2DFF PUSH2 0x2D94 JUMP JUMPDEST JUMPDEST PUSH1 0x1 DUP3 ADD SWAP1 POP SWAP2 SWAP1 POP JUMP JUMPDEST PUSH1 0x0 PUSH2 0x2E16 DUP3 PUSH2 0x247C JUMP JUMPDEST SWAP2 POP PUSH1 0xFF DUP3 SUB PUSH2 0x2E29 JUMPI PUSH2 0x2E28 PUSH2 0x2D94 JUMP JUMPDEST JUMPDEST PUSH1 0x1 DUP3 ADD SWAP1 POP SWAP2 SWAP1 POP JUMP JUMPDEST PUSH32 0x4E6F2061726D6F7279206275696C64696E6720666F756E64206F6E2074686973 PUSH1 0x0 DUP3 ADD MSTORE PUSH32 0x2074696C65000000000000000000000000000000000000000000000000000000 PUSH1 0x20 DUP3 ADD MSTORE POP JUMP JUMPDEST PUSH1 0x0 PUSH2 0x2E90 PUSH1 0x25 DUP4 PUSH2 0x2C19 JUMP JUMPDEST SWAP2 POP PUSH2 0x2E9B DUP3 PUSH2 0x2E34 JUMP JUMPDEST PUSH1 0x40 DUP3 ADD SWAP1 POP SWAP2 SWAP1 POP JUMP JUMPDEST PUSH1 0x0 PUSH1 0x20 DUP3 ADD SWAP1 POP DUP2 DUP2 SUB PUSH1 0x0 DUP4 ADD MSTORE PUSH2 0x2EBF DUP2 PUSH2 0x2E83 JUMP JUMPDEST SWAP1 POP SWAP2 SWAP1 POP JUMP JUMPDEST PUSH1 0x0 PUSH2 0x2ED1 DUP3 PUSH2 0x24B5 JUMP JUMPDEST SWAP2 POP PUSH2 0x2EDC DUP4 PUSH2 0x24B5 JUMP JUMPDEST SWAP3 POP DUP3 DUP3 MUL PUSH2 0x2EEA DUP2 PUSH2 0x24B5 JUMP JUMPDEST SWAP2 POP DUP3 DUP3 DIV DUP5 EQ DUP4 ISZERO OR PUSH2 0x2F01 JUMPI PUSH2 0x2F00 PUSH2 0x2D94 JUMP JUMPDEST JUMPDEST POP SWAP3 SWAP2 POP POP JUMP JUMPDEST PUSH32 0x4E487B7100000000000000000000000000000000000000000000000000000000 PUSH1 0x0 MSTORE PUSH1 0x12 PUSH1 0x4 MSTORE PUSH1 0x24 PUSH1 0x0 REVERT JUMPDEST PUSH1 0x0 PUSH2 0x2F42 DUP3 PUSH2 0x24B5 JUMP JUMPDEST SWAP2 POP PUSH2 0x2F4D DUP4 PUSH2 0x24B5 JUMP JUMPDEST SWAP3 POP DUP3 PUSH2 0x2F5D JUMPI PUSH2 0x2F5C PUSH2 0x2F08 JUMP JUMPDEST JUMPDEST DUP3 DUP3 DIV SWAP1 POP SWAP3 SWAP2 POP POP JUMP JUMPDEST PUSH32 0x4E6F7420656E6F75676820666F6F640000000000000000000000000000000000 PUSH1 0x0 DUP3 ADD MSTORE POP JUMP JUMPDEST PUSH1 0x0 PUSH2 0x2F9E PUSH1 0xF DUP4 PUSH2 0x2C19 JUMP JUMPDEST SWAP2 POP PUSH2 0x2FA9 DUP3 PUSH2 0x2F68 JUMP JUMPDEST PUSH1 0x20 DUP3 ADD SWAP1 POP SWAP2 SWAP1 POP JUMP JUMPDEST PUSH1 0x0 PUSH1 0x20 DUP3 ADD SWAP1 POP DUP2 DUP2 SUB PUSH1 0x0 DUP4 ADD MSTORE PUSH2 0x2FCD DUP2 PUSH2 0x2F91 JUMP JUMPDEST SWAP1 POP SWAP2 SWAP1 POP JUMP JUMPDEST PUSH32 0x4E6F7420656E6F75676820776F6F640000000000000000000000000000000000 PUSH1 0x0 DUP3 ADD MSTORE POP JUMP JUMPDEST PUSH1 0x0 PUSH2 0x300A PUSH1 0xF DUP4 PUSH2 0x2C19 JUMP JUMPDEST SWAP2 POP PUSH2 0x3015 DUP3 PUSH2 0x2FD4 JUMP JUMPDEST PUSH1 0x20 DUP3 ADD SWAP1 POP SWAP2 SWAP1 POP JUMP JUMPDEST PUSH1 0x0 PUSH1 0x20 DUP3 ADD SWAP1 POP DUP2 DUP2 SUB PUSH1 0x0 DUP4 ADD MSTORE PUSH2 0x3039 DUP2 PUSH2 0x2FFD JUMP JUMPDEST SWAP1 POP SWAP2 SWAP1 POP JUMP JUMPDEST PUSH32 0x4E6F7420656E6F7567682073746F6E6500000000000000000000000000000000 PUSH1 0x0 DUP3 ADD MSTORE POP JUMP JUMPDEST PUSH1 0x0 PUSH2 0x3076 PUSH1 0x10 DUP4 PUSH2 0x2C19 JUMP JUMPDEST SWAP2 POP PUSH2 0x3081 DUP3 PUSH2 0x3040 JUMP JUMPDEST PUSH1 0x20 DUP3 ADD SWAP1 POP SWAP2 SWAP1 POP JUMP JUMPDEST PUSH1 0x0 PUSH1 0x20 DUP3 ADD SWAP1 POP DUP2 DUP2 SUB PUSH1 0x0 DUP4 ADD MSTORE PUSH2 0x30A5 DUP2 PUSH2 0x3069 JUMP JUMPDEST SWAP1 POP SWAP2 SWAP1 POP JUMP JUMPDEST PUSH32 0x4E6F7420656E6F7567682069726F6E0000000000000000000000000000000000 PUSH1 0x0 DUP3 ADD MSTORE POP JUMP JUMPDEST PUSH1 0x0 PUSH2 0x30E2 PUSH1 0xF DUP4 PUSH2 0x2C19 JUMP JUMPDEST SWAP2 POP PUSH2 0x30ED DUP3 PUSH2 0x30AC JUMP JUMPDEST PUSH1 0x20 DUP3 ADD SWAP1 POP SWAP2 SWAP1 POP JUMP JUMPDEST PUSH1 0x0 PUSH1 0x20 DUP3 ADD SWAP1 POP DUP2 DUP2 SUB PUSH1 0x0 DUP4 ADD MSTORE PUSH2 0x3111 DUP2 PUSH2 0x30D5 JUMP JUMPDEST SWAP1 POP SWAP2 SWAP1 POP JUMP JUMPDEST PUSH1 0x0 PUSH2 0x3123 DUP3 PUSH2 0x24B5 JUMP JUMPDEST SWAP2 POP PUSH2 0x312E DUP4 PUSH2 0x24B5 JUMP JUMPDEST SWAP3 POP DUP3 DUP3 SUB SWAP1 POP DUP2 DUP2 GT ISZERO PUSH2 0x3146 JUMPI PUSH2 0x3145 PUSH2 0x2D94 JUMP JUMPDEST JUMPDEST SWAP3 SWAP2 POP POP JUMP JUMPDEST PUSH1 0x0 PUSH2 0x3157 DUP3 PUSH2 0x24B5 JUMP JUMPDEST SWAP2 POP PUSH2 0x3162 DUP4 PUSH2 0x24B5 JUMP JUMPDEST SWAP3 POP DUP3 DUP3 ADD SWAP1 POP DUP1 DUP3 GT ISZERO PUSH2 0x317A JUMPI PUSH2 0x3179 PUSH2 0x2D94 JUMP JUMPDEST JUMPDEST SWAP3 SWAP2 POP POP JUMP JUMPDEST PUSH32 0x496E76616C696420696E746572696F722074696C6520636F6F7264696E617465 PUSH1 0x0 DUP3 ADD MSTORE PUSH32 0x7300000000000000000000000000000000000000000000000000000000000000 PUSH1 0x20 DUP3 ADD MSTORE POP JUMP JUMPDEST PUSH1 0x0 PUSH2 0x31DC PUSH1 0x21 DUP4 PUSH2 0x2C19 JUMP JUMPDEST SWAP2 POP PUSH2 0x31E7 DUP3 PUSH2 0x3180 JUMP JUMPDEST PUSH1 0x40 DUP3 ADD SWAP1 POP SWAP2 SWAP1 POP JUMP JUMPDEST PUSH1 0x0 PUSH1 0x20 DUP3 ADD SWAP1 POP DUP2 DUP2 SUB PUSH1 0x0 DUP4 ADD MSTORE PUSH2 0x320B DUP2 PUSH2 0x31CF JUMP JUMPDEST SWAP1 POP SWAP2 SWAP1 POP JUMP JUMPDEST PUSH32 0x41206275696C64696E6720616C726561647920657869737473206F6E20746869 PUSH1 0x0 DUP3 ADD MSTORE PUSH32 0x732074696C650000000000000000000000000000000000000000000000000000 PUSH1 0x20 DUP3 ADD MSTORE POP JUMP JUMPDEST PUSH1 0x0 PUSH2 0x326E PUSH1 0x26 DUP4 PUSH2 0x2C19 JUMP JUMPDEST SWAP2 POP PUSH2 0x3279 DUP3 PUSH2 0x3212 JUMP JUMPDEST PUSH1 0x40 DUP3 ADD SWAP1 POP SWAP2 SWAP1 POP JUMP JUMPDEST PUSH1 0x0 PUSH1 0x20 DUP3 ADD SWAP1 POP DUP2 DUP2 SUB PUSH1 0x0 DUP4 ADD MSTORE PUSH2 0x329D DUP2 PUSH2 0x3261 JUMP JUMPDEST SWAP1 POP SWAP2 SWAP1 POP JUMP JUMPDEST PUSH32 0x4E487B7100000000000000000000000000000000000000000000000000000000 PUSH1 0x0 MSTORE PUSH1 0x32 PUSH1 0x4 MSTORE PUSH1 0x24 PUSH1 0x0 REVERT JUMPDEST PUSH32 0x5475726E73206D7573742062652067726561746572207468616E203000000000 PUSH1 0x0 DUP3 ADD MSTORE POP JUMP JUMPDEST PUSH1 0x0 PUSH2 0x3309 PUSH1 0x1C DUP4 PUSH2 0x2C19 JUMP JUMPDEST SWAP2 POP PUSH2 0x3314 DUP3 PUSH2 0x32D3 JUMP JUMPDEST PUSH1 0x20 DUP3 ADD SWAP1 POP SWAP2 SWAP1 POP JUMP JUMPDEST PUSH1 0x0 PUSH1 0x20 DUP3 ADD SWAP1 POP DUP2 DUP2 SUB PUSH1 0x0 DUP4 ADD MSTORE PUSH2 0x3338 DUP2 PUSH2 0x32FC JUMP JUMPDEST SWAP1 POP SWAP2 SWAP1 POP JUMP JUMPDEST PUSH32 0x5475726E58000000000000000000000000000000000000000000000000000000 PUSH1 0x0 DUP3 ADD MSTORE POP JUMP JUMPDEST PUSH1 0x0 PUSH2 0x3375 PUSH1 0x5 DUP4 PUSH2 0x2C19 JUMP JUMPDEST SWAP2 POP PUSH2 0x3380 DUP3 PUSH2 0x333F JUMP JUMPDEST PUSH1 0x20 DUP3 ADD SWAP1 POP SWAP2 SWAP1 POP JUMP JUMPDEST PUSH1 0x0 PUSH1 0x20 DUP3 ADD SWAP1 POP DUP2 DUP2 SUB PUSH1 0x0 DUP4 ADD MSTORE PUSH2 0x33A4 DUP2 PUSH2 0x3368 JUMP JUMPDEST SWAP1 POP SWAP2 SWAP1 POP JUMP JUMPDEST PUSH1 0x0 PUSH2 0x33B6 DUP3 PUSH2 0x26FB JUMP JUMPDEST SWAP2 POP PUSH2 0x33C1 DUP4 PUSH2 0x26FB JUMP JUMPDEST SWAP3 POP DUP3 DUP3 SUB SWAP1 POP PUSH2 0xFFFF DUP2 GT ISZERO PUSH2 0x33DB JUMPI PUSH2 0x33DA PUSH2 0x2D94 JUMP JUMPDEST JUMPDEST SWAP3 SWAP2 POP POP JUMP JUMPDEST PUSH1 0x0 PUSH2 0x33EC DUP3 PUSH2 0x26FB JUMP JUMPDEST SWAP2 POP PUSH2 0x33F7 DUP4 PUSH2 0x26FB JUMP JUMPDEST SWAP3 POP DUP3 DUP3 ADD SWAP1 POP PUSH2 0xFFFF DUP2 GT ISZERO PUSH2 0x3411 JUMPI PUSH2 0x3410 PUSH2 0x2D94 JUMP JUMPDEST JUMPDEST SWAP3 SWAP2 POP POP JUMP JUMPDEST PUSH1 0x0 PUSH2 0x3422 DUP3 PUSH2 0x24B5 JUMP JUMPDEST SWAP2 POP PUSH2 0x342D DUP4 PUSH2 0x24B5 JUMP JUMPDEST SWAP3 POP DUP3 PUSH2 0x343D JUMPI PUSH2 0x343C PUSH2 0x2F08 JUMP JUMPDEST JUMPDEST DUP3 DUP3 MOD SWAP1 POP SWAP3 SWAP2 POP POP JUMP JUMPDEST PUSH1 0x0 PUSH2 0x3463 PUSH2 0x345E PUSH2 0x3459 DUP5 PUSH2 0x26FB JUMP JUMPDEST PUSH2 0x25ED JUMP JUMPDEST PUSH2 0x24B5 JUMP JUMPDEST SWAP1 POP SWAP2 SWAP1 POP JUMP JUMPDEST PUSH2 0x3473 DUP2 PUSH2 0x3448 JUMP JUMPDEST DUP3 MSTORE POP POP JUMP JUMPDEST PUSH1 0x0 PUSH1 0x60 DUP3 ADD SWAP1 POP PUSH2 0x348E PUSH1 0x0 DUP4 ADD DUP7 PUSH2 0x346A JUMP JUMPDEST PUSH2 0x349B PUSH1 0x20 DUP4 ADD DUP6 PUSH2 0x2839 JUMP JUMPDEST PUSH2 0x34A8 PUSH1 0x40 DUP4 ADD DUP5 PUSH2 0x2839 JUMP JUMPDEST SWAP5 SWAP4 POP POP POP POP JUMP INVALID LOG2 PUSH5 0x6970667358 0x22 SLT KECCAK256 0xC3 SWAP13 0x5D PUSH16 0xB352505B1E90C7C65AFB68C1CA32D9BF CODECOPY 0x5F STOP SWAP4 SSTORE 0x24 0x1F JUMPDEST RETURNDATACOPY 0x2C SWAP11 0x24 PUSH5 0x736F6C6343 STOP ADDMOD SLT STOP CALLER "
		},
		"gasEstimates": {
			"creation": {
				"codeDepositCost": "2708400",
				"executionCost": "infinite",
				"totalCost": "infinite"
			},
			"external": {
				"baseDefensiveArmorCost()": "infinite",
				"baseDefensiveWeaponCost()": "infinite",
				"baseOffensiveArmorCost()": "infinite",
				"baseOffensiveWeaponCost()": "infinite",
				"bonuses(uint256,uint256)": "infinite",
				"buildingCosts(uint8)": "infinite",
				"calcTurn(uint8,uint8)": "infinite",
				"getAllBuildings(uint8,uint8)": "infinite",
				"getTileData(uint8,uint8)": "infinite",
				"getTurn(uint8,uint8)": "infinite",
				"interiorMapSize()": "423",
				"interiorMaps(uint8,uint8,uint8,uint8)": "infinite",
				"mainMapSize()": "358",
				"maxLevel()": "379",
				"placeBuilding(uint8,uint8,uint8,uint8,uint8)": "infinite",
				"produceArmor(uint8,uint8,uint8,uint256)": "infinite",
				"produceWeapon(uint8,uint8,uint8,uint256)": "infinite",
				"tileMapPhaser()": "infinite",
				"tiles(uint8,uint8)": "infinite",
				"turnsPerLevel()": "418",
				"useTurns(uint16,uint8,uint8)": "infinite"
			},
			"internal": {
				"_initializeBuildingCosts()": "infinite"
			}
		},
		"methodIdentifiers": {
			"baseDefensiveArmorCost()": "8c87fa4f",
			"baseDefensiveWeaponCost()": "537e8f49",
			"baseOffensiveArmorCost()": "620a9a99",
			"baseOffensiveWeaponCost()": "800bfa27",
			"bonuses(uint256,uint256)": "bc9955a2",
			"buildingCosts(uint8)": "c1712d57",
			"calcTurn(uint8,uint8)": "dd4b466b",
			"getAllBuildings(uint8,uint8)": "be9a263c",
			"getTileData(uint8,uint8)": "bd638378",
			"getTurn(uint8,uint8)": "f3245254",
			"interiorMapSize()": "decc1bbf",
			"interiorMaps(uint8,uint8,uint8,uint8)": "a2f9cc5b",
			"mainMapSize()": "afed933a",
			"maxLevel()": "cc06c359",
			"placeBuilding(uint8,uint8,uint8,uint8,uint8)": "0ee22f31",
			"produceArmor(uint8,uint8,uint8,uint256)": "07722bc2",
			"produceWeapon(uint8,uint8,uint8,uint256)": "4274b164",
			"tileMapPhaser()": "4f264b03",
			"tiles(uint8,uint8)": "9b562df2",
			"turnsPerLevel()": "bdc7da8e",
			"useTurns(uint16,uint8,uint8)": "e9dd6583"
		}
	},
	"abi": [
		{
			"inputs": [
				{
					"internalType": "address",
					"name": "_tileMapPhaser",
					"type": "address"
				}
			],
			"stateMutability": "nonpayable",
			"type": "constructor"
		},
		{
			"anonymous": false,
			"inputs": [
				{
					"indexed": true,
					"internalType": "address",
					"name": "user",
					"type": "address"
				},
				{
					"indexed": false,
					"internalType": "uint256",
					"name": "turnsUsed",
					"type": "uint256"
				},
				{
					"indexed": false,
					"internalType": "uint8",
					"name": "x",
					"type": "uint8"
				},
				{
					"indexed": false,
					"internalType": "uint8",
					"name": "y",
					"type": "uint8"
				}
			],
			"name": "TurnsUsed",
			"type": "event"
		},
		{
			"inputs": [],
			"name": "baseDefensiveArmorCost",
			"outputs": [
				{
					"internalType": "uint256",
					"name": "food",
					"type": "uint256"
				},
				{
					"internalType": "uint256",
					"name": "wood",
					"type": "uint256"
				},
				{
					"internalType": "uint256",
					"name": "stone",
					"type": "uint256"
				},
				{
					"internalType": "uint256",
					"name": "iron",
					"type": "uint256"
				}
			],
			"stateMutability": "view",
			"type": "function"
		},
		{
			"inputs": [],
			"name": "baseDefensiveWeaponCost",
			"outputs": [
				{
					"internalType": "uint256",
					"name": "food",
					"type": "uint256"
				},
				{
					"internalType": "uint256",
					"name": "wood",
					"type": "uint256"
				},
				{
					"internalType": "uint256",
					"name": "stone",
					"type": "uint256"
				},
				{
					"internalType": "uint256",
					"name": "iron",
					"type": "uint256"
				}
			],
			"stateMutability": "view",
			"type": "function"
		},
		{
			"inputs": [],
			"name": "baseOffensiveArmorCost",
			"outputs": [
				{
					"internalType": "uint256",
					"name": "food",
					"type": "uint256"
				},
				{
					"internalType": "uint256",
					"name": "wood",
					"type": "uint256"
				},
				{
					"internalType": "uint256",
					"name": "stone",
					"type": "uint256"
				},
				{
					"internalType": "uint256",
					"name": "iron",
					"type": "uint256"
				}
			],
			"stateMutability": "view",
			"type": "function"
		},
		{
			"inputs": [],
			"name": "baseOffensiveWeaponCost",
			"outputs": [
				{
					"internalType": "uint256",
					"name": "food",
					"type": "uint256"
				},
				{
					"internalType": "uint256",
					"name": "wood",
					"type": "uint256"
				},
				{
					"internalType": "uint256",
					"name": "stone",
					"type": "uint256"
				},
				{
					"internalType": "uint256",
					"name": "iron",
					"type": "uint256"
				}
			],
			"stateMutability": "view",
			"type": "function"
		},
		{
			"inputs": [
				{
					"internalType": "uint256",
					"name": "",
					"type": "uint256"
				},
				{
					"internalType": "uint256",
					"name": "",
					"type": "uint256"
				}
			],
			"name": "bonuses",
			"outputs": [
				{
					"internalType": "uint8",
					"name": "",
					"type": "uint8"
				}
			],
			"stateMutability": "view",
			"type": "function"
		},
		{
			"inputs": [
				{
					"internalType": "uint8",
					"name": "",
					"type": "uint8"
				}
			],
			"name": "buildingCosts",
			"outputs": [
				{
					"internalType": "uint256",
					"name": "food",
					"type": "uint256"
				},
				{
					"internalType": "uint256",
					"name": "wood",
					"type": "uint256"
				},
				{
					"internalType": "uint256",
					"name": "stone",
					"type": "uint256"
				},
				{
					"internalType": "uint256",
					"name": "iron",
					"type": "uint256"
				}
			],
			"stateMutability": "view",
			"type": "function"
		},
		{
			"inputs": [
				{
					"internalType": "uint8",
					"name": "mainX",
					"type": "uint8"
				},
				{
					"internalType": "uint8",
					"name": "mainY",
					"type": "uint8"
				}
			],
			"name": "calcTurn",
			"outputs": [],
			"stateMutability": "nonpayable",
			"type": "function"
		},
		{
			"inputs": [
				{
					"internalType": "uint8",
					"name": "mainX",
					"type": "uint8"
				},
				{
					"internalType": "uint8",
					"name": "mainY",
					"type": "uint8"
				}
			],
			"name": "getAllBuildings",
			"outputs": [
				{
					"internalType": "uint8[9][9]",
					"name": "",
					"type": "uint8[9][9]"
				}
			],
			"stateMutability": "view",
			"type": "function"
		},
		{
			"inputs": [
				{
					"internalType": "uint8",
					"name": "x",
					"type": "uint8"
				},
				{
					"internalType": "uint8",
					"name": "y",
					"type": "uint8"
				}
			],
			"name": "getTileData",
			"outputs": [
				{
					"internalType": "uint256",
					"name": "food",
					"type": "uint256"
				},
				{
					"internalType": "uint256",
					"name": "wood",
					"type": "uint256"
				},
				{
					"internalType": "uint256",
					"name": "stone",
					"type": "uint256"
				},
				{
					"internalType": "uint256",
					"name": "iron",
					"type": "uint256"
				},
				{
					"internalType": "uint16",
					"name": "level",
					"type": "uint16"
				},
				{
					"internalType": "uint256",
					"name": "accumulatedTurns",
					"type": "uint256"
				},
				{
					"internalType": "uint256",
					"name": "offensiveArmor",
					"type": "uint256"
				},
				{
					"internalType": "uint256",
					"name": "defensiveArmor",
					"type": "uint256"
				},
				{
					"internalType": "uint256",
					"name": "offensiveWeapon",
					"type": "uint256"
				},
				{
					"internalType": "uint256",
					"name": "defensiveWeapon",
					"type": "uint256"
				}
			],
			"stateMutability": "view",
			"type": "function"
		},
		{
			"inputs": [
				{
					"internalType": "uint8",
					"name": "mainX",
					"type": "uint8"
				},
				{
					"internalType": "uint8",
					"name": "mainY",
					"type": "uint8"
				}
			],
			"name": "getTurn",
			"outputs": [
				{
					"internalType": "uint256",
					"name": "",
					"type": "uint256"
				}
			],
			"stateMutability": "view",
			"type": "function"
		},
		{
			"inputs": [],
			"name": "interiorMapSize",
			"outputs": [
				{
					"internalType": "uint8",
					"name": "",
					"type": "uint8"
				}
			],
			"stateMutability": "view",
			"type": "function"
		},
		{
			"inputs": [
				{
					"internalType": "uint8",
					"name": "",
					"type": "uint8"
				},
				{
					"internalType": "uint8",
					"name": "",
					"type": "uint8"
				},
				{
					"internalType": "uint8",
					"name": "",
					"type": "uint8"
				},
				{
					"internalType": "uint8",
					"name": "",
					"type": "uint8"
				}
			],
			"name": "interiorMaps",
			"outputs": [
				{
					"internalType": "uint8",
					"name": "",
					"type": "uint8"
				}
			],
			"stateMutability": "view",
			"type": "function"
		},
		{
			"inputs": [],
			"name": "mainMapSize",
			"outputs": [
				{
					"internalType": "uint8",
					"name": "",
					"type": "uint8"
				}
			],
			"stateMutability": "view",
			"type": "function"
		},
		{
			"inputs": [],
			"name": "maxLevel",
			"outputs": [
				{
					"internalType": "uint16",
					"name": "",
					"type": "uint16"
				}
			],
			"stateMutability": "view",
			"type": "function"
		},
		{
			"inputs": [
				{
					"internalType": "uint8",
					"name": "mainX",
					"type": "uint8"
				},
				{
					"internalType": "uint8",
					"name": "mainY",
					"type": "uint8"
				},
				{
					"internalType": "uint8",
					"name": "interiorX",
					"type": "uint8"
				},
				{
					"internalType": "uint8",
					"name": "interiorY",
					"type": "uint8"
				},
				{
					"internalType": "uint8",
					"name": "buildingType",
					"type": "uint8"
				}
			],
			"name": "placeBuilding",
			"outputs": [],
			"stateMutability": "nonpayable",
			"type": "function"
		},
		{
			"inputs": [
				{
					"internalType": "uint8",
					"name": "mainX",
					"type": "uint8"
				},
				{
					"internalType": "uint8",
					"name": "mainY",
					"type": "uint8"
				},
				{
					"internalType": "uint8",
					"name": "armorType",
					"type": "uint8"
				},
				{
					"internalType": "uint256",
					"name": "quantity",
					"type": "uint256"
				}
			],
			"name": "produceArmor",
			"outputs": [],
			"stateMutability": "nonpayable",
			"type": "function"
		},
		{
			"inputs": [
				{
					"internalType": "uint8",
					"name": "mainX",
					"type": "uint8"
				},
				{
					"internalType": "uint8",
					"name": "mainY",
					"type": "uint8"
				},
				{
					"internalType": "uint8",
					"name": "weaponType",
					"type": "uint8"
				},
				{
					"internalType": "uint256",
					"name": "quantity",
					"type": "uint256"
				}
			],
			"name": "produceWeapon",
			"outputs": [],
			"stateMutability": "nonpayable",
			"type": "function"
		},
		{
			"inputs": [],
			"name": "tileMapPhaser",
			"outputs": [
				{
					"internalType": "contract ITileMapPhaser",
					"name": "",
					"type": "address"
				}
			],
			"stateMutability": "view",
			"type": "function"
		},
		{
			"inputs": [
				{
					"internalType": "uint8",
					"name": "",
					"type": "uint8"
				},
				{
					"internalType": "uint8",
					"name": "",
					"type": "uint8"
				}
			],
			"name": "tiles",
			"outputs": [
				{
					"internalType": "uint256",
					"name": "food",
					"type": "uint256"
				},
				{
					"internalType": "uint256",
					"name": "wood",
					"type": "uint256"
				},
				{
					"internalType": "uint256",
					"name": "stone",
					"type": "uint256"
				},
				{
					"internalType": "uint256",
					"name": "iron",
					"type": "uint256"
				},
				{
					"internalType": "uint16",
					"name": "level",
					"type": "uint16"
				},
				{
					"internalType": "uint256",
					"name": "accumulatedTurns",
					"type": "uint256"
				},
				{
					"internalType": "uint16",
					"name": "turns",
					"type": "uint16"
				},
				{
					"internalType": "uint256",
					"name": "start",
					"type": "uint256"
				},
				{
					"internalType": "uint256",
					"name": "offensiveArmor",
					"type": "uint256"
				},
				{
					"internalType": "uint256",
					"name": "defensiveArmor",
					"type": "uint256"
				},
				{
					"internalType": "uint256",
					"name": "offensiveWeapon",
					"type": "uint256"
				},
				{
					"internalType": "uint256",
					"name": "defensiveWeapon",
					"type": "uint256"
				}
			],
			"stateMutability": "view",
			"type": "function"
		},
		{
			"inputs": [],
			"name": "turnsPerLevel",
			"outputs": [
				{
					"internalType": "uint256",
					"name": "",
					"type": "uint256"
				}
			],
			"stateMutability": "view",
			"type": "function"
		},
		{
			"inputs": [
				{
					"internalType": "uint16",
					"name": "turns",
					"type": "uint16"
				},
				{
					"internalType": "uint8",
					"name": "x",
					"type": "uint8"
				},
				{
					"internalType": "uint8",
					"name": "y",
					"type": "uint8"
				}
			],
			"name": "useTurns",
			"outputs": [],
			"stateMutability": "nonpayable",
			"type": "function"
		}
	]
}