{
	"data": {
		"bytecode": {
			"linkReferences": {},
			"object": "6080604052604051806080016040528060328152602001601e815260200160148152602001600a815250600360008201518160000155602082015181600101556040820151816002015560608201518160030155505060405180608001604052806028815260200160148152602001601e8152602001600f8152506007600082015181600001556020820151816001015560408201518160020155606082015181600301555050604051806080016040528060328152602001601e815260200160148152602001600a815250600b60008201518160000155602082015181600101556040820151816002015560608201518160030155505060405180608001604052806028815260200160148152602001601e8152602001600f815250600f6000820151816000015560208201518160010155604082015181600201556060820151816003015550506040518060800160405280603c8152602001603c8152602001603c8152602001603c81525060136000820151816000015560208201518160010155604082015181600201556060820151816003015550506040518060800160405280603c8152602001603c8152602001603c8152602001603c8152506017600082015181600001556020820151816001015560408201518160020155606082015181600301555050604051806102800160405280604051806102800160405280600460ff168152602001600460ff168152602001600460ff168152602001600460ff168152602001600460ff168152602001600460ff168152602001600360ff168152602001600360ff168152602001600360ff168152602001600360ff168152602001600360ff168152602001600360ff168152602001600260ff168152602001600260ff168152602001600160ff168152602001600260ff168152602001600260ff168152602001600260ff168152602001600260ff168152602001600260ff168152508152602001604051806102800160405280600460ff168152602001600460ff168152602001600460ff168152602001600460ff168152602001600460ff168152602001600460ff168152602001600460ff168152602001600360ff168152602001600360ff168152602001600360ff168152602001600360ff168152602001600360ff168152602001600260ff168152602001600160ff168152602001600160ff168152602001600260ff168152602001600260ff168152602001600260ff168152602001600260ff168152602001600260ff168152508152602001604051806102800160405280600460ff168152602001600460ff168152602001600460ff168152602001600460ff168152602001600460ff168152602001600460ff168152602001600460ff168152602001600460ff168152602001600360ff168152602001600360ff168152602001600360ff168152602001600360ff168152602001600260ff168152602001600260ff168152602001600160ff168152602001600160ff168152602001600260ff168152602001600260ff168152602001600260ff168152602001600260ff168152508152602001604051806102800160405280600460ff168152602001600460ff168152602001600460ff168152602001600460ff168152602001600460ff168152602001600460ff168152602001600460ff168152602001600460ff168152602001600360ff168152602001600360ff168152602001600360ff168152602001600360ff168152602001600360ff168152602001600160ff168152602001600160ff168152602001600160ff168152602001600260ff168152602001600260ff168152602001600260ff168152602001600260ff168152508152602001604051806102800160405280600360ff168152602001600360ff168152602001600360ff168152602001600360ff168152602001600360ff168152602001600360ff168152602001600360ff168152602001600360ff168152602001600360ff168152602001600360ff168152602001600360ff168152602001600360ff168152602001600160ff168152602001600160ff168152602001600160ff168152602001600160ff168152602001600260ff168152602001600260ff168152602001600260ff168152602001600260ff168152508152602001604051806102800160405280600360ff168152602001600360ff168152602001600360ff168152602001600360ff168152602001600360ff168152602001600360ff168152602001600360ff168152602001600360ff168152602001600360ff168152602001600360ff168152602001600360ff168152602001600360ff168152602001600160ff168152602001600160ff168152602001600160ff168152602001600160ff168152602001600260ff168152602001600260ff168152602001600260ff168152602001600260ff168152508152602001604051806102800160405280600360ff168152602001600360ff168152602001600360ff168152602001600360ff168152602001600360ff168152602001600360ff168152602001600360ff168152602001600360ff168152602001600360ff168152602001600360ff168152602001600360ff168152602001600360ff168152602001600160ff168152602001600160ff168152602001600160ff168152602001600160ff168152602001600160ff168152602001600160ff168152602001600160ff168152602001600160ff168152508152602001604051806102800160405280600360ff168152602001600360ff168152602001600360ff168152602001600160ff168152602001600360ff168152602001600360ff168152602001600360ff168152602001600360ff168152602001600360ff168152602001600360ff168152602001600360ff168152602001600160ff168152602001600260ff168152602001600260ff168152602001600260ff168152602001600260ff168152602001600160ff168152602001600160ff168152602001600160ff168152602001600160ff168152508152602001604051806102800160405280600360ff168152602001600360ff168152602001600360ff168152602001600160ff168152602001600160ff168152602001600260ff168152602001600260ff168152602001600260ff168152602001600260ff168152602001600260ff168152602001600260ff168152602001600160ff168152602001600260ff168152602001600260ff168152602001600260ff168152602001600260ff168152602001600260ff168152602001600260ff168152602001600260ff168152602001600160ff168152508152602001604051806102800160405280600160ff168152602001600260ff168152602001600260ff168152602001600160ff168152602001600260ff168152602001600260ff168152602001600260ff168152602001600260ff168152602001600260ff168152602001600260ff168152602001600260ff168152602001600160ff168152602001600260ff168152602001600260ff168152602001600260ff168152602001600260ff168152602001600260ff168152602001600260ff168152602001600260ff168152602001600160ff168152508152602001604051806102800160405280600260ff168152602001600260ff168152602001600160ff168152602001600160ff168152602001600260ff168152602001600260ff168152602001600260ff168152602001600260ff168152602001600260ff168152602001600260ff168152602001600160ff168152602001600160ff168152602001600260ff168152602001600260ff168152602001600260ff168152602001600260ff168152602001600260ff168152602001600260ff168152602001600160ff168152602001600160ff168152508152602001604051806102800160405280600360ff168152602001600360ff168152602001600360ff168152602001600260ff168152602001600160ff168152602001600260ff168152602001600260ff168152602001600260ff168152602001600260ff168152602001600260ff168152602001600160ff168152602001600260ff168152602001600260ff168152602001600260ff168152602001600260ff168152602001600160ff168152602001600160ff168152602001600160ff168152602001600160ff168152602001600160ff168152508152602001604051806102800160405280600360ff168152602001600360ff168152602001600360ff168152602001600360ff168152602001600160ff168152602001600160ff168152602001600260ff168152602001600260ff168152602001600260ff168152602001600260ff168152602001600160ff168152602001600160ff168152602001600260ff168152602001600260ff168152602001600260ff168152602001600160ff168152602001600160ff168152602001600160ff168152602001600160ff168152602001600160ff168152508152602001604051806102800160405280600360ff168152602001600360ff168152602001600360ff168152602001600360ff168152602001600360ff168152602001600160ff168152602001600260ff168152602001600260ff168152602001600260ff168152602001600260ff168152602001600160ff168152602001600160ff168152602001600160ff168152602001600260ff168152602001600260ff168152602001600260ff168152602001600260ff168152602001600160ff168152602001600160ff168152602001600160ff168152508152602001604051806102800160405280600360ff168152602001600360ff168152602001600360ff168152602001600360ff168152602001600360ff168152602001600260ff168152602001600260ff168152602001600260ff168152602001600360ff168152602001600360ff168152602001600260ff168152602001600260ff168152602001600160ff168152602001600260ff168152602001600260ff168152602001600260ff168152602001600260ff168152602001600160ff168152602001600160ff168152602001600160ff168152508152602001604051806102800160405280600260ff168152602001600260ff168152602001600260ff168152602001600160ff168152602001600160ff168152602001600160ff168152602001600160ff168152602001600160ff168152602001600360ff168152602001600360ff168152602001600360ff168152602001600360ff168152602001600160ff168152602001600160ff168152602001600260ff168152602001600260ff168152602001600260ff168152602001600160ff168152602001600160ff168152602001600160ff168152508152602001604051806102800160405280600260ff168152602001600260ff168152602001600260ff168152602001600260ff168152602001600260ff168152602001600260ff168152602001600160ff168152602001600160ff168152602001600360ff168152602001600360ff168152602001600360ff168152602001600360ff168152602001600160ff168152602001600160ff168152602001600160ff168152602001600160ff168152602001600360ff168152602001600360ff168152602001600260ff168152602001600260ff168152508152602001604051806102800160405280600260ff168152602001600260ff168152602001600260ff168152602001600260ff168152602001600260ff168152602001600260ff168152602001600260ff168152602001600160ff168152602001600360ff168152602001600360ff168152602001600360ff168152602001600360ff168152602001600160ff168152602001600160ff168152602001600160ff168152602001600160ff168152602001600360ff168152602001600360ff168152602001600260ff168152602001600260ff168152508152602001604051806102800160405280600260ff168152602001600260ff168152602001600260ff168152602001600260ff168152602001600260ff168152602001600260ff168152602001600260ff168152602001600160ff168152602001600160ff168152602001600260ff168152602001600260ff168152602001600160ff168152602001600160ff168152602001600260ff168152602001600260ff168152602001600160ff168152602001600360ff168152602001600360ff168152602001600260ff168152602001600260ff168152508152602001604051806102800160405280600260ff168152602001600260ff168152602001600260ff168152602001600260ff168152602001600260ff168152602001600260ff168152602001600260ff168152602001600160ff168152602001600160ff168152602001600160ff168152602001600160ff168152602001600160ff168152602001600160ff168152602001600160ff168152602001600160ff168152602001600360ff168152602001600360ff168152602001600360ff168152602001600260ff168152602001600260ff16815250815250601e906014620012d2929190620016de565b50348015620012e057600080fd5b506040516200684d3803806200684d83398181016040528101906200130691906200188c565b806000806101000a81548173ffffffffffffffffffffffffffffffffffffffff021916908373ffffffffffffffffffffffffffffffffffffffff160217905550620013566200139e60201b60201c565b33600160006101000a81548173ffffffffffffffffffffffffffffffffffffffff021916908373ffffffffffffffffffffffffffffffffffffffff16021790555050620018be565b60405180608001604052806064815260200160328152602001601e81526020016014815250601d6000600160ff16815260200190815260200160002060008201518160000155602082015181600101556040820151816002015560608201518160030155905050604051806080016040528060c8815260200160648152602001603281526020016028815250601d6000600260ff16815260200190815260200160002060008201518160000155602082015181600101556040820151816002015560608201518160030155905050604051806080016040528061012c815260200160648152602001603281526020016028815250601d6000600360ff168152602001908152602001600020600082015181600001556020820151816001015560408201518160020155606082015181600301559050506040518060800160405280610190815260200160648152602001603281526020016028815250601d6000600460ff1681526020019081526020016000206000820151816000015560208201518160010155604082015181600201556060820151816003015590505060405180608001604052806101f4815260200160648152602001603281526020016028815250601d6000600560ff168152602001908152602001600020600082015181600001556020820151816001015560408201518160020155606082015181600301559050506040518060800160405280610258815260200160648152602001603281526020016028815250601d6000600660ff1681526020019081526020016000206000820151816000015560208201518160010155604082015181600201556060820151816003015590505060405180608001604052806102bc815260200160648152602001603281526020016028815250601d6000600760ff168152602001908152602001600020600082015181600001556020820151816001015560408201518160020155606082015181600301559050506040518060800160405280610320815260200160648152602001603281526020016028815250601d6000600860ff16815260200190815260200160002060008201518160000155602082015181600101556040820151816002015560608201518160030155905050565b826014810192821562001720579160200282015b828111156200171f578251829060146200170e92919062001733565b5091602001919060010190620016f2565b5b5090506200172f9190620017d4565b5090565b826014601f01602090048101928215620017c15791602002820160005b838211156200179057835183826101000a81548160ff021916908360ff160217905550926020019260010160208160000104928301926001030262001750565b8015620017bf5782816101000a81549060ff021916905560010160208160000104928301926001030262001790565b505b509050620017d09190620017fc565b5090565b5b80821115620017f85760008181620017ee91906200181b565b50600101620017d5565b5090565b5b8082111562001817576000816000905550600101620017fd565b5090565b5060009055565b600080fd5b600073ffffffffffffffffffffffffffffffffffffffff82169050919050565b6000620018548262001827565b9050919050565b620018668162001847565b81146200187257600080fd5b50565b60008151905062001886816200185b565b92915050565b600060208284031215620018a557620018a462001822565b5b6000620018b58482850162001875565b91505092915050565b614f7f80620018ce6000396000f3fe608060405234801561001057600080fd5b50600436106101cf5760003560e01c8063afed933a11610104578063daa17f49116100a2578063f324525411610071578063f324525414610539578063f89d757114610569578063f9c6445414610585578063fae92612146105a6576101cf565b8063daa17f49146104c5578063dd4b466b146104e3578063decc1bbf146104ff578063e9dd65831461051d576101cf565b8063bdc7da8e116100de578063bdc7da8e14610426578063be9a263c14610444578063c1712d5714610474578063cc06c359146104a7576101cf565b8063afed933a146103a8578063bc9955a2146103c6578063bd638378146103f6576101cf565b8063620a9a99116101715780638da5cb5b1161014b5780638da5cb5b146103025780639b562df214610320578063a2f9cc5b14610357578063a596b64514610387576101cf565b8063620a9a991461029f578063800bfa27146102c05780638c87fa4f146102e1576101cf565b80633e5f2857116101ad5780633e5f2857146102285780634274b164146102445780634f264b0314610260578063537e8f491461027e576101cf565b806307722bc2146101d45780630ee22f31146101f0578063351662e41461020c575b600080fd5b6101ee60048036038101906101e991906135fd565b6105c2565b005b61020a60048036038101906102059190613664565b6108c5565b005b610226600480360381019061022191906136df565b610db5565b005b610242600480360381019061023d919061376a565b6113c0565b005b61025e600480360381019061025991906135fd565b611748565b005b610268611a4b565b6040516102759190613864565b60405180910390f35b610286611a6f565b604051610296949392919061388e565b60405180910390f35b6102a7611a8d565b6040516102b7949392919061388e565b60405180910390f35b6102c8611aab565b6040516102d8949392919061388e565b60405180910390f35b6102e9611ac9565b6040516102f9949392919061388e565b60405180910390f35b61030a611ae7565b60405161031791906138f4565b60405180910390f35b61033a6004803603810190610335919061390f565b611b0d565b60405161034e989796959493929190613a89565b60405180910390f35b610371600480360381019061036c9190613b0a565b611c3a565b60405161037e9190613b80565b60405180910390f35b61038f611c83565b60405161039f949392919061388e565b60405180910390f35b6103b0611ca1565b6040516103bd9190613b80565b60405180910390f35b6103e060048036038101906103db9190613b9b565b611ca6565b6040516103ed9190613b80565b60405180910390f35b610410600480360381019061040b919061390f565b611ce2565b60405161041d9190613d1f565b60405180910390f35b61042e611e1d565b60405161043b9190613d3b565b60405180910390f35b61045e6004803603810190610459919061390f565b611e23565b60405161046b9190613e8f565b60405180910390f35b61048e60048036038101906104899190613eab565b612043565b60405161049e949392919061388e565b60405180910390f35b6104af612073565b6040516104bc9190613ed8565b60405180910390f35b6104cd612079565b6040516104da91906138f4565b60405180910390f35b6104fd60048036038101906104f8919061390f565b61209f565b005b6105076122b0565b6040516105149190613b80565b60405180910390f35b61053760048036038101906105329190613f1f565b6122b5565b005b610553600480360381019061054e919061390f565b612973565b6040516105609190613d3b565b60405180910390f35b610583600480360381019061057e91906135fd565b612bd4565b005b61058d613033565b60405161059d949392919061388e565b60405180910390f35b6105c060048036038101906105bb9190613f9e565b613051565b005b83833373ffffffffffffffffffffffffffffffffffffffff1660008054906101000a900473ffffffffffffffffffffffffffffffffffffffff1673ffffffffffffffffffffffffffffffffffffffff16638a88895384846040518363ffffffff1660e01b8152600401610636929190613fcb565b602060405180830381865afa158015610653573d6000803e3d6000fd5b505050506040513d601f19601f820116820180604052508101906106779190614009565b73ffffffffffffffffffffffffffffffffffffffff16146106cd576040517f08c379a00000000000000000000000000000000000000000000000000000000081526004016106c490614093565b60405180910390fd5b60008311610710576040517f08c379a000000000000000000000000000000000000000000000000000000000815260040161070790614125565b60405180910390fd5b60018460ff161480610725575060028460ff16145b610764576040517f08c379a000000000000000000000000000000000000000000000000000000000815260040161075b90614191565b60405180910390fd5b600061077287876001613125565b9050600081116107b7576040517f08c379a00000000000000000000000000000000000000000000000000000000081526004016107ae906141fd565b60405180910390fd5b600060018660ff16146107cb5760076107ce565b60035b6040518060800160405290816000820154815260200160018201548152602001600282015481526020016003820154815250509050610810888883888661320a565b60018660ff160361086d5784601b60008a60ff1660ff16815260200190815260200160002060008960ff1660ff1681526020019081526020016000206008016000016000828254610861919061424c565b925050819055506108bb565b84601b60008a60ff1660ff16815260200190815260200160002060008960ff1660ff16815260200190815260200160002060080160010160008282546108b3919061424c565b925050819055505b5050505050505050565b84843373ffffffffffffffffffffffffffffffffffffffff1660008054906101000a900473ffffffffffffffffffffffffffffffffffffffff1673ffffffffffffffffffffffffffffffffffffffff16638a88895384846040518363ffffffff1660e01b8152600401610939929190613fcb565b602060405180830381865afa158015610956573d6000803e3d6000fd5b505050506040513d601f19601f8201168201806040525081019061097a9190614009565b73ffffffffffffffffffffffffffffffffffffffff16146109d0576040517f08c379a00000000000000000000000000000000000000000000000000000000081526004016109c790614093565b60405180910390fd5b8484600960ff168260ff161080156109ee5750600960ff168160ff16105b610a2d576040517f08c379a0000000000000000000000000000000000000000000000000000000008152600401610a24906142f2565b60405180910390fd5b6000601c60008b60ff1660ff16815260200190815260200160002060008a60ff1660ff16815260200190815260200160002060008960ff1660ff16815260200190815260200160002060008860ff1660ff16815260200190815260200160002060009054906101000a900460ff16905060008160ff1614610ae3576040517f08c379a0000000000000000000000000000000000000000000000000000000008152600401610ada90614384565b60405180910390fd5b6000601d60008860ff1660ff16815260200190815260200160002060405180608001604052908160008201548152602001600182015481526020016002820154815260200160038201548152505090506000601b60008d60ff1660ff16815260200190815260200160002060008c60ff1660ff1681526020019081526020016000209050816000015181600001600001541015610bb5576040517f08c379a0000000000000000000000000000000000000000000000000000000008152600401610bac906143f0565b60405180910390fd5b816020015181600001600101541015610c03576040517f08c379a0000000000000000000000000000000000000000000000000000000008152600401610bfa9061445c565b60405180910390fd5b816040015181600001600201541015610c51576040517f08c379a0000000000000000000000000000000000000000000000000000000008152600401610c48906144c8565b60405180910390fd5b816060015181600001600301541015610c9f576040517f08c379a0000000000000000000000000000000000000000000000000000000008152600401610c9690614534565b60405180910390fd5b8160000151816000016000016000828254610cba9190614554565b925050819055508160200151816000016001016000828254610cdc9190614554565b925050819055508160400151816000016002016000828254610cfe9190614554565b925050819055508160600151816000016003016000828254610d209190614554565b9250508190555087601c60008e60ff1660ff16815260200190815260200160002060008d60ff1660ff16815260200190815260200160002060008c60ff1660ff16815260200190815260200160002060008b60ff1660ff16815260200190815260200160002060006101000a81548160ff021916908360ff160217905550610da78161346f565b505050505050505050505050565b82823373ffffffffffffffffffffffffffffffffffffffff1660008054906101000a900473ffffffffffffffffffffffffffffffffffffffff1673ffffffffffffffffffffffffffffffffffffffff16638a88895384846040518363ffffffff1660e01b8152600401610e29929190613fcb565b602060405180830381865afa158015610e46573d6000803e3d6000fd5b505050506040513d601f19601f82011682018060405250810190610e6a9190614009565b73ffffffffffffffffffffffffffffffffffffffff1614610ec0576040517f08c379a0000000000000000000000000000000000000000000000000000000008152600401610eb790614093565b60405180910390fd5b6000601b60008760ff1660ff16815260200190815260200160002060008660ff1660ff16815260200190815260200160002090506000606060018660ff1603610f575782600e0160000160009054906101000a900460ff1691506040518060400160405280600d81526020017f6f6666656e7369766554656368000000000000000000000000000000000000008152509050610ff2565b60028660ff1603610fb65782600e0160000160019054906101000a900460ff1691506040518060400160405280600d81526020017f646566656e7369766554656368000000000000000000000000000000000000008152509050610ff1565b6040517f08c379a0000000000000000000000000000000000000000000000000000000008152600401610fe8906145d4565b60405180910390fd5b5b6127108260ff1610611039576040517f08c379a000000000000000000000000000000000000000000000000000000000815260040161103090614640565b60405180910390fd5b600061104789896008613125565b90506000811161108c576040517f08c379a0000000000000000000000000000000000000000000000000000000008152600401611083906146ac565b60405180910390fd5b600060018461109b91906146cc565b60ff1690506000828260646110b09190614701565b6110ba9190614772565b90506000838360506110cc9190614701565b6110d69190614772565b905060008484603c6110e89190614701565b6110f29190614772565b90506000858560326111049190614701565b61110e9190614772565b9050838960000160000154101561115a576040517f08c379a0000000000000000000000000000000000000000000000000000000008152600401611151906143f0565b60405180910390fd5b82896000016001015410156111a4576040517f08c379a000000000000000000000000000000000000000000000000000000000815260040161119b9061445c565b60405180910390fd5b81896000016002015410156111ee576040517f08c379a00000000000000000000000000000000000000000000000000000000081526004016111e5906144c8565b60405180910390fd5b8089600001600301541015611238576040517f08c379a000000000000000000000000000000000000000000000000000000000815260040161122f90614534565b60405180910390fd5b8389600001600001600082825461124f9190614554565b925050819055508289600001600101600082825461126d9190614554565b925050819055508189600001600201600082825461128b9190614554565b92505081905550808960000160030160008282546112a99190614554565b9250508190555060018c60ff16036112fd5788600e01600001600081819054906101000a900460ff16809291906112df906147a3565b91906101000a81548160ff021916908360ff16021790555050611347565b60028c60ff16036113465788600e01600001600181819054906101000a900460ff168092919061132c906147a3565b91906101000a81548160ff021916908360ff160217905550505b5b6113508961346f565b3373ffffffffffffffffffffffffffffffffffffffff167f01b40e22b681742e8c019020323cbf2c320ce33c4d5d3adc9bb39466bd06cccd8f8f8a60018d61139891906146cc565b6040516113a8949392919061484b565b60405180910390a25050505050505050505050505050565b600260009054906101000a900473ffffffffffffffffffffffffffffffffffffffff1673ffffffffffffffffffffffffffffffffffffffff163373ffffffffffffffffffffffffffffffffffffffff1614611450576040517f08c379a0000000000000000000000000000000000000000000000000000000008152600401611447906148e3565b60405180910390fd5b6000601b60008760ff1660ff16815260200190815260200160002060008660ff1660ff168152602001908152602001600020905060018460ff16036114da57816114b657828160000160000160008282546114ab9190614554565b9250508190556114d4565b828160000160000160008282546114cd919061424c565b9250508190555b50611737565b60028460ff1603611530578161150c57828160000160010160008282546115019190614554565b92505081905561152a565b82816000016001016000828254611523919061424c565b9250508190555b50611736565b60038460ff1603611586578161156257828160000160020160008282546115579190614554565b925050819055611580565b82816000016002016000828254611579919061424c565b9250508190555b50611735565b60048460ff16036115dc57816115b857828160000160030160008282546115ad9190614554565b9250508190556115d6565b828160000160030160008282546115cf919061424c565b9250508190555b50611734565b60058460ff1603611632578161160e57828160080160000160008282546116039190614554565b92505081905561162c565b82816008016000016000828254611625919061424c565b9250508190555b50611733565b60068460ff1603611688578161166457828160080160010160008282546116599190614554565b925050819055611682565b8281600801600101600082825461167b919061424c565b9250508190555b50611732565b60078460ff16036116de57816116ba57828160080160020160008282546116af9190614554565b9250508190556116d8565b828160080160020160008282546116d1919061424c565b9250508190555b50611731565b60088460ff1603611730578161171057828160080160030160008282546117059190614554565b92505081905561172e565b82816008016003016000828254611727919061424c565b9250508190555b505b5b5b5b5b5b5b5b6117408161346f565b505050505050565b83833373ffffffffffffffffffffffffffffffffffffffff1660008054906101000a900473ffffffffffffffffffffffffffffffffffffffff1673ffffffffffffffffffffffffffffffffffffffff16638a88895384846040518363ffffffff1660e01b81526004016117bc929190613fcb565b602060405180830381865afa1580156117d9573d6000803e3d6000fd5b505050506040513d601f19601f820116820180604052508101906117fd9190614009565b73ffffffffffffffffffffffffffffffffffffffff1614611853576040517f08c379a000000000000000000000000000000000000000000000000000000000815260040161184a90614093565b60405180910390fd5b60008311611896576040517f08c379a000000000000000000000000000000000000000000000000000000000815260040161188d90614125565b60405180910390fd5b60018460ff1614806118ab575060028460ff16145b6118ea576040517f08c379a00000000000000000000000000000000000000000000000000000000081526004016118e19061494f565b60405180910390fd5b60006118f887876002613125565b90506000811161193d576040517f08c379a0000000000000000000000000000000000000000000000000000000008152600401611934906149bb565b60405180910390fd5b600060018660ff161461195157600f611954565b600b5b6040518060800160405290816000820154815260200160018201548152602001600282015481526020016003820154815250509050611996888883888661320a565b60018660ff16036119f35784601b60008a60ff1660ff16815260200190815260200160002060008960ff1660ff16815260200190815260200160002060080160020160008282546119e7919061424c565b92505081905550611a41565b84601b60008a60ff1660ff16815260200190815260200160002060008960ff1660ff1681526020019081526020016000206008016003016000828254611a39919061424c565b925050819055505b5050505050505050565b60008054906101000a900473ffffffffffffffffffffffffffffffffffffffff1681565b600f8060000154908060010154908060020154908060030154905084565b60038060000154908060010154908060020154908060030154905084565b600b8060000154908060010154908060020154908060030154905084565b60078060000154908060010154908060020154908060030154905084565b600160009054906101000a900473ffffffffffffffffffffffffffffffffffffffff1681565b601b6020528160005260406000206020528060005260406000206000915091505080600001604051806080016040529081600082015481526020016001820154815260200160028201548152602001600382015481525050908060040160009054906101000a900461ffff16908060050154908060060160009054906101000a900461ffff1690806007015490806008016040518060c001604052908160008201548152602001600182015481526020016002820154815260200160038201548152602001600482015481526020016005820154815250509080600e016040518060400160405290816000820160009054906101000a900460ff1660ff1660ff1681526020016000820160019054906101000a900460ff1660ff1660ff16815250509080600f0154905088565b601c60205283600052604060002060205282600052604060002060205281600052604060002060205280600052604060002060009350935050509054906101000a900460ff1681565b60138060000154908060010154908060020154908060030154905084565b601481565b601e8260148110611cb657600080fd5b018160148110611cc557600080fd5b60209182820401919006915091509054906101000a900460ff1681565b611cea6134b8565b6000601b60008560ff1660ff16815260200190815260200160002060008460ff1660ff1681526020019081526020016000209050604051806101e00160405280826000016000015481526020018260000160010154815260200182600001600201548152602001826000016003015481526020018260040160009054906101000a900461ffff1661ffff1681526020018260050154815260200182600801600001548152602001826008016001015481526020018260080160020154815260200182600801600301548152602001826008016004015481526020018260080160050154815260200182600e0160000160009054906101000a900460ff1660ff16815260200182600e0160000160019054906101000a900460ff1660ff16815260200182600f015481525091505092915050565b6103e881565b611e2b613538565b82823373ffffffffffffffffffffffffffffffffffffffff1660008054906101000a900473ffffffffffffffffffffffffffffffffffffffff1673ffffffffffffffffffffffffffffffffffffffff16638a88895384846040518363ffffffff1660e01b8152600401611e9f929190613fcb565b602060405180830381865afa158015611ebc573d6000803e3d6000fd5b505050506040513d601f19601f82011682018060405250810190611ee09190614009565b73ffffffffffffffffffffffffffffffffffffffff1614611f36576040517f08c379a0000000000000000000000000000000000000000000000000000000008152600401611f2d90614093565b60405180910390fd5b611f3e613538565b60005b600960ff168160ff1610156120365760005b600960ff168160ff16101561202257601c60008960ff1660ff16815260200190815260200160002060008860ff1660ff16815260200190815260200160002060008360ff1660ff16815260200190815260200160002060008260ff1660ff16815260200190815260200160002060009054906101000a900460ff16838360ff1660098110611fe457611fe36149db565b5b60200201518260ff1660098110611ffe57611ffd6149db565b5b602002019060ff16908160ff1681525050808061201a906147a3565b915050611f53565b50808061202e906147a3565b915050611f41565b5080935050505092915050565b601d6020528060005260406000206000915090508060000154908060010154908060020154908060030154905084565b6101f481565b600260009054906101000a900473ffffffffffffffffffffffffffffffffffffffff1681565b81813373ffffffffffffffffffffffffffffffffffffffff1660008054906101000a900473ffffffffffffffffffffffffffffffffffffffff1673ffffffffffffffffffffffffffffffffffffffff16638a88895384846040518363ffffffff1660e01b8152600401612113929190613fcb565b602060405180830381865afa158015612130573d6000803e3d6000fd5b505050506040513d601f19601f820116820180604052508101906121549190614009565b73ffffffffffffffffffffffffffffffffffffffff16146121aa576040517f08c379a00000000000000000000000000000000000000000000000000000000081526004016121a190614093565b60405180910390fd5b60006001601b60008760ff1660ff16815260200190815260200160002060008660ff1660ff16815260200190815260200160002060070154426121ed9190614554565b6121f79190614772565b601b60008760ff1660ff16815260200190815260200160002060008660ff1660ff16815260200190815260200160002060060160009054906101000a900461ffff1661ffff16612247919061424c565b90506102588111612258578061225c565b6102585b601b60008760ff1660ff16815260200190815260200160002060008660ff1660ff16815260200190815260200160002060060160006101000a81548161ffff021916908361ffff1602179055505050505050565b600981565b81813373ffffffffffffffffffffffffffffffffffffffff1660008054906101000a900473ffffffffffffffffffffffffffffffffffffffff1673ffffffffffffffffffffffffffffffffffffffff16638a88895384846040518363ffffffff1660e01b8152600401612329929190613fcb565b602060405180830381865afa158015612346573d6000803e3d6000fd5b505050506040513d601f19601f8201168201806040525081019061236a9190614009565b73ffffffffffffffffffffffffffffffffffffffff16146123c0576040517f08c379a00000000000000000000000000000000000000000000000000000000081526004016123b790614093565b60405180910390fd5b60008561ffff1611612407576040517f08c379a00000000000000000000000000000000000000000000000000000000081526004016123fe90614a56565b60405180910390fd5b612411848461209f565b8461ffff16601b60008660ff1660ff16815260200190815260200160002060008560ff1660ff16815260200190815260200160002060060160009054906101000a900461ffff1661ffff16101561249d576040517f08c379a000000000000000000000000000000000000000000000000000000000815260040161249490614ac2565b60405180910390fd5b601b60008560ff1660ff16815260200190815260200160002060008460ff1660ff168152602001908152602001600020600501546103e86124de9190614554565b8561ffff16111561252d57601b60008560ff1660ff16815260200190815260200160002060008460ff1660ff168152602001908152602001600020600501546103e861252a9190614554565b94505b84601b60008660ff1660ff16815260200190815260200160002060008560ff1660ff16815260200190815260200160002060060160009054906101000a900461ffff1661257a9190614ae2565b601b60008660ff1660ff16815260200190815260200160002060008560ff1660ff16815260200190815260200160002060060160006101000a81548161ffff021916908361ffff16021790555042601b60008660ff1660ff16815260200190815260200160002060008560ff1660ff16815260200190815260200160002060070181905550600061260d85856005613125565b905060018161261c919061424c565b90506000601e8660ff1660148110612637576126366149db565b5b018560ff166014811061264d5761264c6149db565b5b602091828204019190069054906101000a900460ff1690506000601b60008860ff1660ff16815260200190815260200160002060008760ff1660ff168152602001908152602001600020905060018260ff16036126d657828861ffff166126b49190614701565b8160000160000160008282546126ca919061424c565b9250508190555061278c565b60028260ff160361271357828861ffff166126f19190614701565b816000016001016000828254612707919061424c565b9250508190555061278b565b60038260ff160361275057828861ffff1661272e9190614701565b816000016002016000828254612744919061424c565b9250508190555061278a565b60048260ff160361278957828861ffff1661276b9190614701565b816000016003016000828254612781919061424c565b925050819055505b5b5b5b828861ffff1661279c9190614701565b8160000160000160008282546127b2919061424c565b92505081905550828861ffff166127c99190614701565b8160000160010160008282546127df919061424c565b92505081905550828861ffff166127f69190614701565b81600001600201600082825461280c919061424c565b92505081905550828861ffff166128239190614701565b816000016003016000828254612839919061424c565b925050819055508761ffff16816005016000828254612858919061424c565b9250508190555060006103e882600501546128739190614772565b90506103e882600501600082825461288b9190614b18565b925050819055506000818360040160009054906101000a900461ffff166128b29190614b49565b90506101f461ffff168161ffff1611156128ec576101f48360040160006101000a81548161ffff021916908361ffff16021790555061290c565b808360040160006101000a81548161ffff021916908361ffff1602179055505b6129158361346f565b3373ffffffffffffffffffffffffffffffffffffffff167fbb5b4f7847476e1912e2b57d030b0e491d0d72b2ef256cceea9daa41f40f5d188b8b8b60405161295f93929190614bb0565b60405180910390a250505050505050505050565b600082823373ffffffffffffffffffffffffffffffffffffffff1660008054906101000a900473ffffffffffffffffffffffffffffffffffffffff1673ffffffffffffffffffffffffffffffffffffffff16638a88895384846040518363ffffffff1660e01b81526004016129e9929190613fcb565b602060405180830381865afa158015612a06573d6000803e3d6000fd5b505050506040513d601f19601f82011682018060405250810190612a2a9190614009565b73ffffffffffffffffffffffffffffffffffffffff1614612a80576040517f08c379a0000000000000000000000000000000000000000000000000000000008152600401612a7790614093565b60405180910390fd5b6102586001601b60008860ff1660ff16815260200190815260200160002060008760ff1660ff1681526020019081526020016000206007015442612ac49190614554565b612ace9190614772565b601b60008860ff1660ff16815260200190815260200160002060008760ff1660ff16815260200190815260200160002060060160009054906101000a900461ffff1661ffff16612b1e919061424c565b1115612b2e576102589250612bcc565b6001601b60008760ff1660ff16815260200190815260200160002060008660ff1660ff1681526020019081526020016000206007015442612b6f9190614554565b612b799190614772565b601b60008760ff1660ff16815260200190815260200160002060008660ff1660ff16815260200190815260200160002060060160009054906101000a900461ffff1661ffff16612bc9919061424c565b92505b505092915050565b83833373ffffffffffffffffffffffffffffffffffffffff1660008054906101000a900473ffffffffffffffffffffffffffffffffffffffff1673ffffffffffffffffffffffffffffffffffffffff16638a88895384846040518363ffffffff1660e01b8152600401612c48929190613fcb565b602060405180830381865afa158015612c65573d6000803e3d6000fd5b505050506040513d601f19601f82011682018060405250810190612c899190614009565b73ffffffffffffffffffffffffffffffffffffffff1614612cdf576040517f08c379a0000000000000000000000000000000000000000000000000000000008152600401612cd690614093565b60405180910390fd5b60008311612d22576040517f08c379a0000000000000000000000000000000000000000000000000000000008152600401612d1990614125565b60405180910390fd5b60018460ff161480612d37575060028460ff16145b612d76576040517f08c379a0000000000000000000000000000000000000000000000000000000008152600401612d6d90614c33565b60405180910390fd5b6000612d8487876004613125565b905060008111612dc9576040517f08c379a0000000000000000000000000000000000000000000000000000000008152600401612dc090614cc5565b60405180910390fd5b600060018660ff1614612ddd576017612de0565b60135b6040518060800160405290816000820154815260200160018201548152602001600282015481526020016003820154815250509050612e22888883888661320a565b6000601b60008a60ff1660ff16815260200190815260200160002060008960ff1660ff168152602001908152602001600020600801905060018760ff1603612f48578581600001541015612eab576040517f08c379a0000000000000000000000000000000000000000000000000000000008152600401612ea290614d31565b60405180910390fd5b8581600201541015612ef2576040517f08c379a0000000000000000000000000000000000000000000000000000000008152600401612ee990614d9d565b60405180910390fd5b85816000016000828254612f069190614554565b9250508190555085816002016000828254612f219190614554565b9250508190555085816004016000828254612f3c919061424c565b92505081905550613028565b8581600101541015612f8f576040517f08c379a0000000000000000000000000000000000000000000000000000000008152600401612f8690614e09565b60405180910390fd5b8581600301541015612fd6576040517f08c379a0000000000000000000000000000000000000000000000000000000008152600401612fcd90614e75565b60405180910390fd5b85816001016000828254612fea9190614554565b92505081905550858160030160008282546130059190614554565b9250508190555085816005016000828254613020919061424c565b925050819055505b505050505050505050565b60178060000154908060010154908060020154908060030154905084565b600160009054906101000a900473ffffffffffffffffffffffffffffffffffffffff1673ffffffffffffffffffffffffffffffffffffffff163373ffffffffffffffffffffffffffffffffffffffff16146130e1576040517f08c379a00000000000000000000000000000000000000000000000000000000081526004016130d890614ee1565b60405180910390fd5b80600260006101000a81548173ffffffffffffffffffffffffffffffffffffffff021916908373ffffffffffffffffffffffffffffffffffffffff16021790555050565b6000806000905060005b600960ff168160ff1610156131fe5760005b600960ff168160ff1610156131ea578460ff16601c60008960ff1660ff16815260200190815260200160002060008860ff1660ff16815260200190815260200160002060008460ff1660ff16815260200190815260200160002060008360ff1660ff16815260200190815260200160002060009054906101000a900460ff1660ff16036131d75782806131d390614f01565b9350505b80806131e2906147a3565b915050613141565b5080806131f6906147a3565b91505061312f565b50809150509392505050565b6000601b60008760ff1660ff16815260200190815260200160002060008660ff1660ff16815260200190815260200160002090506000828486600001516132519190614701565b61325b9190614772565b90506000838587602001516132709190614701565b61327a9190614772565b905060008486886040015161328f9190614701565b6132999190614772565b90506000858789606001516132ae9190614701565b6132b89190614772565b90508385600001600001541015613304576040517f08c379a00000000000000000000000000000000000000000000000000000000081526004016132fb906143f0565b60405180910390fd5b828560000160010154101561334e576040517f08c379a00000000000000000000000000000000000000000000000000000000081526004016133459061445c565b60405180910390fd5b8185600001600201541015613398576040517f08c379a000000000000000000000000000000000000000000000000000000000815260040161338f906144c8565b60405180910390fd5b80856000016003015410156133e2576040517f08c379a00000000000000000000000000000000000000000000000000000000081526004016133d990614534565b60405180910390fd5b838560000160000160008282546133f99190614554565b92505081905550828560000160010160008282546134179190614554565b92505081905550818560000160020160008282546134359190614554565b92505081905550808560000160030160008282546134539190614554565b925050819055506134638561346f565b50505050505050505050565b8060000160030154816000016002015482600001600101548360000160000154613499919061424c565b6134a3919061424c565b6134ad919061424c565b81600f018190555050565b604051806101e0016040528060008152602001600081526020016000815260200160008152602001600061ffff16815260200160008152602001600081526020016000815260200160008152602001600081526020016000815260200160008152602001600060ff168152602001600060ff168152602001600081525090565b6040518061012001604052806009905b613550613566565b8152602001906001900390816135485790505090565b604051806101200160405280600990602082028036833780820191505090505090565b600080fd5b600060ff82169050919050565b6135a48161358e565b81146135af57600080fd5b50565b6000813590506135c18161359b565b92915050565b6000819050919050565b6135da816135c7565b81146135e557600080fd5b50565b6000813590506135f7816135d1565b92915050565b6000806000806080858703121561361757613616613589565b5b6000613625878288016135b2565b9450506020613636878288016135b2565b9350506040613647878288016135b2565b9250506060613658878288016135e8565b91505092959194509250565b600080600080600060a086880312156136805761367f613589565b5b600061368e888289016135b2565b955050602061369f888289016135b2565b94505060406136b0888289016135b2565b93505060606136c1888289016135b2565b92505060806136d2888289016135b2565b9150509295509295909350565b6000806000606084860312156136f8576136f7613589565b5b6000613706868287016135b2565b9350506020613717868287016135b2565b9250506040613728868287016135b2565b9150509250925092565b60008115159050919050565b61374781613732565b811461375257600080fd5b50565b6000813590506137648161373e565b92915050565b600080600080600060a0868803121561378657613785613589565b5b6000613794888289016135b2565b95505060206137a5888289016135b2565b94505060406137b6888289016135b2565b93505060606137c7888289016135e8565b92505060806137d888828901613755565b9150509295509295909350565b600073ffffffffffffffffffffffffffffffffffffffff82169050919050565b6000819050919050565b600061382a613825613820846137e5565b613805565b6137e5565b9050919050565b600061383c8261380f565b9050919050565b600061384e82613831565b9050919050565b61385e81613843565b82525050565b60006020820190506138796000830184613855565b92915050565b613888816135c7565b82525050565b60006080820190506138a3600083018761387f565b6138b0602083018661387f565b6138bd604083018561387f565b6138ca606083018461387f565b95945050505050565b60006138de826137e5565b9050919050565b6138ee816138d3565b82525050565b600060208201905061390960008301846138e5565b92915050565b6000806040838503121561392657613925613589565b5b6000613934858286016135b2565b9250506020613945858286016135b2565b9150509250929050565b613958816135c7565b82525050565b608082016000820151613974600085018261394f565b506020820151613987602085018261394f565b50604082015161399a604085018261394f565b5060608201516139ad606085018261394f565b50505050565b600061ffff82169050919050565b6139ca816139b3565b82525050565b60c0820160008201516139e6600085018261394f565b5060208201516139f9602085018261394f565b506040820151613a0c604085018261394f565b506060820151613a1f606085018261394f565b506080820151613a32608085018261394f565b5060a0820151613a4560a085018261394f565b50505050565b613a548161358e565b82525050565b604082016000820151613a706000850182613a4b565b506020820151613a836020850182613a4b565b50505050565b600061022082019050613a9f600083018b61395e565b613aac608083018a6139c1565b613ab960a083018961387f565b613ac660c08301886139c1565b613ad360e083018761387f565b613ae16101008301866139d0565b613aef6101c0830185613a5a565b613afd61020083018461387f565b9998505050505050505050565b60008060008060808587031215613b2457613b23613589565b5b6000613b32878288016135b2565b9450506020613b43878288016135b2565b9350506040613b54878288016135b2565b9250506060613b65878288016135b2565b91505092959194509250565b613b7a8161358e565b82525050565b6000602082019050613b956000830184613b71565b92915050565b60008060408385031215613bb257613bb1613589565b5b6000613bc0858286016135e8565b9250506020613bd1858286016135e8565b9150509250929050565b613be4816139b3565b82525050565b6101e082016000820151613c01600085018261394f565b506020820151613c14602085018261394f565b506040820151613c27604085018261394f565b506060820151613c3a606085018261394f565b506080820151613c4d6080850182613bdb565b5060a0820151613c6060a085018261394f565b5060c0820151613c7360c085018261394f565b5060e0820151613c8660e085018261394f565b50610100820151613c9b61010085018261394f565b50610120820151613cb061012085018261394f565b50610140820151613cc561014085018261394f565b50610160820151613cda61016085018261394f565b50610180820151613cef610180850182613a4b565b506101a0820151613d046101a0850182613a4b565b506101c0820151613d196101c085018261394f565b50505050565b60006101e082019050613d356000830184613bea565b92915050565b6000602082019050613d50600083018461387f565b92915050565b600060099050919050565b600081905092915050565b6000819050919050565b600060099050919050565b600081905092915050565b6000819050919050565b6000613da28383613a4b565b60208301905092915050565b6000602082019050919050565b613dc481613d76565b613dce8184613d81565b9250613dd982613d8c565b8060005b83811015613e0a578151613df18782613d96565b9650613dfc83613dae565b925050600181019050613ddd565b505050505050565b6000613e1e8383613dbb565b6101208301905092915050565b6000602082019050919050565b613e4181613d56565b613e4b8184613d61565b9250613e5682613d6c565b8060005b83811015613e87578151613e6e8782613e12565b9650613e7983613e2b565b925050600181019050613e5a565b505050505050565b6000610a2082019050613ea56000830184613e38565b92915050565b600060208284031215613ec157613ec0613589565b5b6000613ecf848285016135b2565b91505092915050565b6000602082019050613eed60008301846139c1565b92915050565b613efc816139b3565b8114613f0757600080fd5b50565b600081359050613f1981613ef3565b92915050565b600080600060608486031215613f3857613f37613589565b5b6000613f4686828701613f0a565b9350506020613f57868287016135b2565b9250506040613f68868287016135b2565b9150509250925092565b613f7b816138d3565b8114613f8657600080fd5b50565b600081359050613f9881613f72565b92915050565b600060208284031215613fb457613fb3613589565b5b6000613fc284828501613f89565b91505092915050565b6000604082019050613fe06000830185613b71565b613fed6020830184613b71565b9392505050565b60008151905061400381613f72565b92915050565b60006020828403121561401f5761401e613589565b5b600061402d84828501613ff4565b91505092915050565b600082825260208201905092915050565b7f596f7520646f206e6f74206f776e20746869732074696c650000000000000000600082015250565b600061407d601883614036565b915061408882614047565b602082019050919050565b600060208201905081810360008301526140ac81614070565b9050919050565b7f5175616e74697479206d7573742062652067726561746572207468616e207a6560008201527f726f000000000000000000000000000000000000000000000000000000000000602082015250565b600061410f602283614036565b915061411a826140b3565b604082019050919050565b6000602082019050818103600083015261413e81614102565b9050919050565b7f496e76616c69642061726d6f7220747970650000000000000000000000000000600082015250565b600061417b601283614036565b915061418682614145565b602082019050919050565b600060208201905081810360008301526141aa8161416e565b9050919050565b7f4e6f2061726d6f727920666f756e64206f6e20746869732074696c6500000000600082015250565b60006141e7601c83614036565b91506141f2826141b1565b602082019050919050565b60006020820190508181036000830152614216816141da565b9050919050565b7f4e487b7100000000000000000000000000000000000000000000000000000000600052601160045260246000fd5b6000614257826135c7565b9150614262836135c7565b925082820190508082111561427a5761427961421d565b5b92915050565b7f496e76616c696420696e746572696f722074696c6520636f6f7264696e61746560008201527f7300000000000000000000000000000000000000000000000000000000000000602082015250565b60006142dc602183614036565b91506142e782614280565b604082019050919050565b6000602082019050818103600083015261430b816142cf565b9050919050565b7f41206275696c64696e6720616c726561647920657869737473206f6e2074686960008201527f732074696c650000000000000000000000000000000000000000000000000000602082015250565b600061436e602683614036565b915061437982614312565b604082019050919050565b6000602082019050818103600083015261439d81614361565b9050919050565b7f4e6f7420656e6f75676820666f6f640000000000000000000000000000000000600082015250565b60006143da600f83614036565b91506143e5826143a4565b602082019050919050565b60006020820190508181036000830152614409816143cd565b9050919050565b7f4e6f7420656e6f75676820776f6f640000000000000000000000000000000000600082015250565b6000614446600f83614036565b915061445182614410565b602082019050919050565b6000602082019050818103600083015261447581614439565b9050919050565b7f4e6f7420656e6f7567682073746f6e6500000000000000000000000000000000600082015250565b60006144b2601083614036565b91506144bd8261447c565b602082019050919050565b600060208201905081810360008301526144e1816144a5565b9050919050565b7f4e6f7420656e6f7567682069726f6e0000000000000000000000000000000000600082015250565b600061451e600f83614036565b9150614529826144e8565b602082019050919050565b6000602082019050818103600083015261454d81614511565b9050919050565b600061455f826135c7565b915061456a836135c7565b92508282039050818111156145825761458161421d565b5b92915050565b7f496e76616c696420746563682074797065000000000000000000000000000000600082015250565b60006145be601183614036565b91506145c982614588565b602082019050919050565b600060208201905081810360008301526145ed816145b1565b9050919050565b7f5465636820697320616c7265616479206174206d6178206c6576656c00000000600082015250565b600061462a601c83614036565b9150614635826145f4565b602082019050919050565b600060208201905081810360008301526146598161461d565b9050919050565b7f4e6f20776f726b73686f7020666f756e64206f6e20746869732074696c650000600082015250565b6000614696601e83614036565b91506146a182614660565b602082019050919050565b600060208201905081810360008301526146c581614689565b9050919050565b60006146d78261358e565b91506146e28361358e565b9250828201905060ff8111156146fb576146fa61421d565b5b92915050565b600061470c826135c7565b9150614717836135c7565b9250828202614725816135c7565b9150828204841483151761473c5761473b61421d565b5b5092915050565b7f4e487b7100000000000000000000000000000000000000000000000000000000600052601260045260246000fd5b600061477d826135c7565b9150614788836135c7565b92508261479857614797614743565b5b828204905092915050565b60006147ae8261358e565b915060ff82036147c1576147c061421d565b5b600182019050919050565b600081519050919050565b60005b838110156147f55780820151818401526020810190506147da565b60008484015250505050565b6000601f19601f8301169050919050565b600061481d826147cc565b6148278185614036565b93506148378185602086016147d7565b61484081614801565b840191505092915050565b60006080820190506148606000830187613b71565b61486d6020830186613b71565b818103604083015261487f8185614812565b905061488e6060830184613b71565b95945050505050565b7f556e617574686f72697a65642061636365737300000000000000000000000000600082015250565b60006148cd601383614036565b91506148d882614897565b602082019050919050565b600060208201905081810360008301526148fc816148c0565b9050919050565b7f496e76616c696420776561706f6e207479706500000000000000000000000000600082015250565b6000614939601383614036565b915061494482614903565b602082019050919050565b600060208201905081810360008301526149688161492c565b9050919050565b7f4e6f20626c61636b736d69746820666f756e64206f6e20746869732074696c65600082015250565b60006149a5602083614036565b91506149b08261496f565b602082019050919050565b600060208201905081810360008301526149d481614998565b9050919050565b7f4e487b7100000000000000000000000000000000000000000000000000000000600052603260045260246000fd5b7f5475726e73206d7573742062652067726561746572207468616e203000000000600082015250565b6000614a40601c83614036565b9150614a4b82614a0a565b602082019050919050565b60006020820190508181036000830152614a6f81614a33565b9050919050565b7f5475726e58000000000000000000000000000000000000000000000000000000600082015250565b6000614aac600583614036565b9150614ab782614a76565b602082019050919050565b60006020820190508181036000830152614adb81614a9f565b9050919050565b6000614aed826139b3565b9150614af8836139b3565b9250828203905061ffff811115614b1257614b1161421d565b5b92915050565b6000614b23826135c7565b9150614b2e836135c7565b925082614b3e57614b3d614743565b5b828206905092915050565b6000614b54826139b3565b9150614b5f836139b3565b9250828201905061ffff811115614b7957614b7861421d565b5b92915050565b6000614b9a614b95614b90846139b3565b613805565b6135c7565b9050919050565b614baa81614b7f565b82525050565b6000606082019050614bc56000830186614ba1565b614bd26020830185613b71565b614bdf6040830184613b71565b949350505050565b7f496e76616c696420736f6c646965722074797065000000000000000000000000600082015250565b6000614c1d601483614036565b9150614c2882614be7565b602082019050919050565b60006020820190508181036000830152614c4c81614c10565b9050919050565b7f4e6f204669676874696e672050697420666f756e64206f6e207468697320746960008201527f6c65000000000000000000000000000000000000000000000000000000000000602082015250565b6000614caf602283614036565b9150614cba82614c53565b604082019050919050565b60006020820190508181036000830152614cde81614ca2565b9050919050565b7f4e6f7420656e6f756768206f6666656e736976652061726d6f72000000000000600082015250565b6000614d1b601a83614036565b9150614d2682614ce5565b602082019050919050565b60006020820190508181036000830152614d4a81614d0e565b9050919050565b7f4e6f7420656e6f756768206f6666656e7369766520776561706f6e7300000000600082015250565b6000614d87601c83614036565b9150614d9282614d51565b602082019050919050565b60006020820190508181036000830152614db681614d7a565b9050919050565b7f4e6f7420656e6f75676820646566656e736976652061726d6f72000000000000600082015250565b6000614df3601a83614036565b9150614dfe82614dbd565b602082019050919050565b60006020820190508181036000830152614e2281614de6565b9050919050565b7f4e6f7420656e6f75676820646566656e7369766520776561706f6e7300000000600082015250565b6000614e5f601c83614036565b9150614e6a82614e29565b602082019050919050565b60006020820190508181036000830152614e8e81614e52565b9050919050565b7f43616c6c6572206973206e6f7420746865206f776e6572000000000000000000600082015250565b6000614ecb601783614036565b9150614ed682614e95565b602082019050919050565b60006020820190508181036000830152614efa81614ebe565b9050919050565b6000614f0c826135c7565b91507fffffffffffffffffffffffffffffffffffffffffffffffffffffffffffffffff8203614f3e57614f3d61421d565b5b60018201905091905056fea2646970667358221220f70554d77cd728b2d1e86b44feef2790bc82fec1d954b81efa27487924d8ac8164736f6c63430008120033",
			"opcodes": "PUSH1 0x80 PUSH1 0x40 MSTORE PUSH1 0x40 MLOAD DUP1 PUSH1 0x80 ADD PUSH1 0x40 MSTORE DUP1 PUSH1 0x32 DUP2 MSTORE PUSH1 0x20 ADD PUSH1 0x1E DUP2 MSTORE PUSH1 0x20 ADD PUSH1 0x14 DUP2 MSTORE PUSH1 0x20 ADD PUSH1 0xA DUP2 MSTORE POP PUSH1 0x3 PUSH1 0x0 DUP3 ADD MLOAD DUP2 PUSH1 0x0 ADD SSTORE PUSH1 0x20 DUP3 ADD MLOAD DUP2 PUSH1 0x1 ADD SSTORE PUSH1 0x40 DUP3 ADD MLOAD DUP2 PUSH1 0x2 ADD SSTORE PUSH1 0x60 DUP3 ADD MLOAD DUP2 PUSH1 0x3 ADD SSTORE POP POP PUSH1 0x40 MLOAD DUP1 PUSH1 0x80 ADD PUSH1 0x40 MSTORE DUP1 PUSH1 0x28 DUP2 MSTORE PUSH1 0x20 ADD PUSH1 0x14 DUP2 MSTORE PUSH1 0x20 ADD PUSH1 0x1E DUP2 MSTORE PUSH1 0x20 ADD PUSH1 0xF DUP2 MSTORE POP PUSH1 0x7 PUSH1 0x0 DUP3 ADD MLOAD DUP2 PUSH1 0x0 ADD SSTORE PUSH1 0x20 DUP3 ADD MLOAD DUP2 PUSH1 0x1 ADD SSTORE PUSH1 0x40 DUP3 ADD MLOAD DUP2 PUSH1 0x2 ADD SSTORE PUSH1 0x60 DUP3 ADD MLOAD DUP2 PUSH1 0x3 ADD SSTORE POP POP PUSH1 0x40 MLOAD DUP1 PUSH1 0x80 ADD PUSH1 0x40 MSTORE DUP1 PUSH1 0x32 DUP2 MSTORE PUSH1 0x20 ADD PUSH1 0x1E DUP2 MSTORE PUSH1 0x20 ADD PUSH1 0x14 DUP2 MSTORE PUSH1 0x20 ADD PUSH1 0xA DUP2 MSTORE POP PUSH1 0xB PUSH1 0x0 DUP3 ADD MLOAD DUP2 PUSH1 0x0 ADD SSTORE PUSH1 0x20 DUP3 ADD MLOAD DUP2 PUSH1 0x1 ADD SSTORE PUSH1 0x40 DUP3 ADD MLOAD DUP2 PUSH1 0x2 ADD SSTORE PUSH1 0x60 DUP3 ADD MLOAD DUP2 PUSH1 0x3 ADD SSTORE POP POP PUSH1 0x40 MLOAD DUP1 PUSH1 0x80 ADD PUSH1 0x40 MSTORE DUP1 PUSH1 0x28 DUP2 MSTORE PUSH1 0x20 ADD PUSH1 0x14 DUP2 MSTORE PUSH1 0x20 ADD PUSH1 0x1E DUP2 MSTORE PUSH1 0x20 ADD PUSH1 0xF DUP2 MSTORE POP PUSH1 0xF PUSH1 0x0 DUP3 ADD MLOAD DUP2 PUSH1 0x0 ADD SSTORE PUSH1 0x20 DUP3 ADD MLOAD DUP2 PUSH1 0x1 ADD SSTORE PUSH1 0x40 DUP3 ADD MLOAD DUP2 PUSH1 0x2 ADD SSTORE PUSH1 0x60 DUP3 ADD MLOAD DUP2 PUSH1 0x3 ADD SSTORE POP POP PUSH1 0x40 MLOAD DUP1 PUSH1 0x80 ADD PUSH1 0x40 MSTORE DUP1 PUSH1 0x3C DUP2 MSTORE PUSH1 0x20 ADD PUSH1 0x3C DUP2 MSTORE PUSH1 0x20 ADD PUSH1 0x3C DUP2 MSTORE PUSH1 0x20 ADD PUSH1 0x3C DUP2 MSTORE POP PUSH1 0x13 PUSH1 0x0 DUP3 ADD MLOAD DUP2 PUSH1 0x0 ADD SSTORE PUSH1 0x20 DUP3 ADD MLOAD DUP2 PUSH1 0x1 ADD SSTORE PUSH1 0x40 DUP3 ADD MLOAD DUP2 PUSH1 0x2 ADD SSTORE PUSH1 0x60 DUP3 ADD MLOAD DUP2 PUSH1 0x3 ADD SSTORE POP POP PUSH1 0x40 MLOAD DUP1 PUSH1 0x80 ADD PUSH1 0x40 MSTORE DUP1 PUSH1 0x3C DUP2 MSTORE PUSH1 0x20 ADD PUSH1 0x3C DUP2 MSTORE PUSH1 0x20 ADD PUSH1 0x3C DUP2 MSTORE PUSH1 0x20 ADD PUSH1 0x3C DUP2 MSTORE POP PUSH1 0x17 PUSH1 0x0 DUP3 ADD MLOAD DUP2 PUSH1 0x0 ADD SSTORE PUSH1 0x20 DUP3 ADD MLOAD DUP2 PUSH1 0x1 ADD SSTORE PUSH1 0x40 DUP3 ADD MLOAD DUP2 PUSH1 0x2 ADD SSTORE PUSH1 0x60 DUP3 ADD MLOAD DUP2 PUSH1 0x3 ADD SSTORE POP POP PUSH1 0x40 MLOAD DUP1 PUSH2 0x280 ADD PUSH1 0x40 MSTORE DUP1 PUSH1 0x40 MLOAD DUP1 PUSH2 0x280 ADD PUSH1 0x40 MSTORE DUP1 PUSH1 0x4 PUSH1 0xFF AND DUP2 MSTORE PUSH1 0x20 ADD PUSH1 0x4 PUSH1 0xFF AND DUP2 MSTORE PUSH1 0x20 ADD PUSH1 0x4 PUSH1 0xFF AND DUP2 MSTORE PUSH1 0x20 ADD PUSH1 0x4 PUSH1 0xFF AND DUP2 MSTORE PUSH1 0x20 ADD PUSH1 0x4 PUSH1 0xFF AND DUP2 MSTORE PUSH1 0x20 ADD PUSH1 0x4 PUSH1 0xFF AND DUP2 MSTORE PUSH1 0x20 ADD PUSH1 0x3 PUSH1 0xFF AND DUP2 MSTORE PUSH1 0x20 ADD PUSH1 0x3 PUSH1 0xFF AND DUP2 MSTORE PUSH1 0x20 ADD PUSH1 0x3 PUSH1 0xFF AND DUP2 MSTORE PUSH1 0x20 ADD PUSH1 0x3 PUSH1 0xFF AND DUP2 MSTORE PUSH1 0x20 ADD PUSH1 0x3 PUSH1 0xFF AND DUP2 MSTORE PUSH1 0x20 ADD PUSH1 0x3 PUSH1 0xFF AND DUP2 MSTORE PUSH1 0x20 ADD PUSH1 0x2 PUSH1 0xFF AND DUP2 MSTORE PUSH1 0x20 ADD PUSH1 0x2 PUSH1 0xFF AND DUP2 MSTORE PUSH1 0x20 ADD PUSH1 0x1 PUSH1 0xFF AND DUP2 MSTORE PUSH1 0x20 ADD PUSH1 0x2 PUSH1 0xFF AND DUP2 MSTORE PUSH1 0x20 ADD PUSH1 0x2 PUSH1 0xFF AND DUP2 MSTORE PUSH1 0x20 ADD PUSH1 0x2 PUSH1 0xFF AND DUP2 MSTORE PUSH1 0x20 ADD PUSH1 0x2 PUSH1 0xFF AND DUP2 MSTORE PUSH1 0x20 ADD PUSH1 0x2 PUSH1 0xFF AND DUP2 MSTORE POP DUP2 MSTORE PUSH1 0x20 ADD PUSH1 0x40 MLOAD DUP1 PUSH2 0x280 ADD PUSH1 0x40 MSTORE DUP1 PUSH1 0x4 PUSH1 0xFF AND DUP2 MSTORE PUSH1 0x20 ADD PUSH1 0x4 PUSH1 0xFF AND DUP2 MSTORE PUSH1 0x20 ADD PUSH1 0x4 PUSH1 0xFF AND DUP2 MSTORE PUSH1 0x20 ADD PUSH1 0x4 PUSH1 0xFF AND DUP2 MSTORE PUSH1 0x20 ADD PUSH1 0x4 PUSH1 0xFF AND DUP2 MSTORE PUSH1 0x20 ADD PUSH1 0x4 PUSH1 0xFF AND DUP2 MSTORE PUSH1 0x20 ADD PUSH1 0x4 PUSH1 0xFF AND DUP2 MSTORE PUSH1 0x20 ADD PUSH1 0x3 PUSH1 0xFF AND DUP2 MSTORE PUSH1 0x20 ADD PUSH1 0x3 PUSH1 0xFF AND DUP2 MSTORE PUSH1 0x20 ADD PUSH1 0x3 PUSH1 0xFF AND DUP2 MSTORE PUSH1 0x20 ADD PUSH1 0x3 PUSH1 0xFF AND DUP2 MSTORE PUSH1 0x20 ADD PUSH1 0x3 PUSH1 0xFF AND DUP2 MSTORE PUSH1 0x20 ADD PUSH1 0x2 PUSH1 0xFF AND DUP2 MSTORE PUSH1 0x20 ADD PUSH1 0x1 PUSH1 0xFF AND DUP2 MSTORE PUSH1 0x20 ADD PUSH1 0x1 PUSH1 0xFF AND DUP2 MSTORE PUSH1 0x20 ADD PUSH1 0x2 PUSH1 0xFF AND DUP2 MSTORE PUSH1 0x20 ADD PUSH1 0x2 PUSH1 0xFF AND DUP2 MSTORE PUSH1 0x20 ADD PUSH1 0x2 PUSH1 0xFF AND DUP2 MSTORE PUSH1 0x20 ADD PUSH1 0x2 PUSH1 0xFF AND DUP2 MSTORE PUSH1 0x20 ADD PUSH1 0x2 PUSH1 0xFF AND DUP2 MSTORE POP DUP2 MSTORE PUSH1 0x20 ADD PUSH1 0x40 MLOAD DUP1 PUSH2 0x280 ADD PUSH1 0x40 MSTORE DUP1 PUSH1 0x4 PUSH1 0xFF AND DUP2 MSTORE PUSH1 0x20 ADD PUSH1 0x4 PUSH1 0xFF AND DUP2 MSTORE PUSH1 0x20 ADD PUSH1 0x4 PUSH1 0xFF AND DUP2 MSTORE PUSH1 0x20 ADD PUSH1 0x4 PUSH1 0xFF AND DUP2 MSTORE PUSH1 0x20 ADD PUSH1 0x4 PUSH1 0xFF AND DUP2 MSTORE PUSH1 0x20 ADD PUSH1 0x4 PUSH1 0xFF AND DUP2 MSTORE PUSH1 0x20 ADD PUSH1 0x4 PUSH1 0xFF AND DUP2 MSTORE PUSH1 0x20 ADD PUSH1 0x4 PUSH1 0xFF AND DUP2 MSTORE PUSH1 0x20 ADD PUSH1 0x3 PUSH1 0xFF AND DUP2 MSTORE PUSH1 0x20 ADD PUSH1 0x3 PUSH1 0xFF AND DUP2 MSTORE PUSH1 0x20 ADD PUSH1 0x3 PUSH1 0xFF AND DUP2 MSTORE PUSH1 0x20 ADD PUSH1 0x3 PUSH1 0xFF AND DUP2 MSTORE PUSH1 0x20 ADD PUSH1 0x2 PUSH1 0xFF AND DUP2 MSTORE PUSH1 0x20 ADD PUSH1 0x2 PUSH1 0xFF AND DUP2 MSTORE PUSH1 0x20 ADD PUSH1 0x1 PUSH1 0xFF AND DUP2 MSTORE PUSH1 0x20 ADD PUSH1 0x1 PUSH1 0xFF AND DUP2 MSTORE PUSH1 0x20 ADD PUSH1 0x2 PUSH1 0xFF AND DUP2 MSTORE PUSH1 0x20 ADD PUSH1 0x2 PUSH1 0xFF AND DUP2 MSTORE PUSH1 0x20 ADD PUSH1 0x2 PUSH1 0xFF AND DUP2 MSTORE PUSH1 0x20 ADD PUSH1 0x2 PUSH1 0xFF AND DUP2 MSTORE POP DUP2 MSTORE PUSH1 0x20 ADD PUSH1 0x40 MLOAD DUP1 PUSH2 0x280 ADD PUSH1 0x40 MSTORE DUP1 PUSH1 0x4 PUSH1 0xFF AND DUP2 MSTORE PUSH1 0x20 ADD PUSH1 0x4 PUSH1 0xFF AND DUP2 MSTORE PUSH1 0x20 ADD PUSH1 0x4 PUSH1 0xFF AND DUP2 MSTORE PUSH1 0x20 ADD PUSH1 0x4 PUSH1 0xFF AND DUP2 MSTORE PUSH1 0x20 ADD PUSH1 0x4 PUSH1 0xFF AND DUP2 MSTORE PUSH1 0x20 ADD PUSH1 0x4 PUSH1 0xFF AND DUP2 MSTORE PUSH1 0x20 ADD PUSH1 0x4 PUSH1 0xFF AND DUP2 MSTORE PUSH1 0x20 ADD PUSH1 0x4 PUSH1 0xFF AND DUP2 MSTORE PUSH1 0x20 ADD PUSH1 0x3 PUSH1 0xFF AND DUP2 MSTORE PUSH1 0x20 ADD PUSH1 0x3 PUSH1 0xFF AND DUP2 MSTORE PUSH1 0x20 ADD PUSH1 0x3 PUSH1 0xFF AND DUP2 MSTORE PUSH1 0x20 ADD PUSH1 0x3 PUSH1 0xFF AND DUP2 MSTORE PUSH1 0x20 ADD PUSH1 0x3 PUSH1 0xFF AND DUP2 MSTORE PUSH1 0x20 ADD PUSH1 0x1 PUSH1 0xFF AND DUP2 MSTORE PUSH1 0x20 ADD PUSH1 0x1 PUSH1 0xFF AND DUP2 MSTORE PUSH1 0x20 ADD PUSH1 0x1 PUSH1 0xFF AND DUP2 MSTORE PUSH1 0x20 ADD PUSH1 0x2 PUSH1 0xFF AND DUP2 MSTORE PUSH1 0x20 ADD PUSH1 0x2 PUSH1 0xFF AND DUP2 MSTORE PUSH1 0x20 ADD PUSH1 0x2 PUSH1 0xFF AND DUP2 MSTORE PUSH1 0x20 ADD PUSH1 0x2 PUSH1 0xFF AND DUP2 MSTORE POP DUP2 MSTORE PUSH1 0x20 ADD PUSH1 0x40 MLOAD DUP1 PUSH2 0x280 ADD PUSH1 0x40 MSTORE DUP1 PUSH1 0x3 PUSH1 0xFF AND DUP2 MSTORE PUSH1 0x20 ADD PUSH1 0x3 PUSH1 0xFF AND DUP2 MSTORE PUSH1 0x20 ADD PUSH1 0x3 PUSH1 0xFF AND DUP2 MSTORE PUSH1 0x20 ADD PUSH1 0x3 PUSH1 0xFF AND DUP2 MSTORE PUSH1 0x20 ADD PUSH1 0x3 PUSH1 0xFF AND DUP2 MSTORE PUSH1 0x20 ADD PUSH1 0x3 PUSH1 0xFF AND DUP2 MSTORE PUSH1 0x20 ADD PUSH1 0x3 PUSH1 0xFF AND DUP2 MSTORE PUSH1 0x20 ADD PUSH1 0x3 PUSH1 0xFF AND DUP2 MSTORE PUSH1 0x20 ADD PUSH1 0x3 PUSH1 0xFF AND DUP2 MSTORE PUSH1 0x20 ADD PUSH1 0x3 PUSH1 0xFF AND DUP2 MSTORE PUSH1 0x20 ADD PUSH1 0x3 PUSH1 0xFF AND DUP2 MSTORE PUSH1 0x20 ADD PUSH1 0x3 PUSH1 0xFF AND DUP2 MSTORE PUSH1 0x20 ADD PUSH1 0x1 PUSH1 0xFF AND DUP2 MSTORE PUSH1 0x20 ADD PUSH1 0x1 PUSH1 0xFF AND DUP2 MSTORE PUSH1 0x20 ADD PUSH1 0x1 PUSH1 0xFF AND DUP2 MSTORE PUSH1 0x20 ADD PUSH1 0x1 PUSH1 0xFF AND DUP2 MSTORE PUSH1 0x20 ADD PUSH1 0x2 PUSH1 0xFF AND DUP2 MSTORE PUSH1 0x20 ADD PUSH1 0x2 PUSH1 0xFF AND DUP2 MSTORE PUSH1 0x20 ADD PUSH1 0x2 PUSH1 0xFF AND DUP2 MSTORE PUSH1 0x20 ADD PUSH1 0x2 PUSH1 0xFF AND DUP2 MSTORE POP DUP2 MSTORE PUSH1 0x20 ADD PUSH1 0x40 MLOAD DUP1 PUSH2 0x280 ADD PUSH1 0x40 MSTORE DUP1 PUSH1 0x3 PUSH1 0xFF AND DUP2 MSTORE PUSH1 0x20 ADD PUSH1 0x3 PUSH1 0xFF AND DUP2 MSTORE PUSH1 0x20 ADD PUSH1 0x3 PUSH1 0xFF AND DUP2 MSTORE PUSH1 0x20 ADD PUSH1 0x3 PUSH1 0xFF AND DUP2 MSTORE PUSH1 0x20 ADD PUSH1 0x3 PUSH1 0xFF AND DUP2 MSTORE PUSH1 0x20 ADD PUSH1 0x3 PUSH1 0xFF AND DUP2 MSTORE PUSH1 0x20 ADD PUSH1 0x3 PUSH1 0xFF AND DUP2 MSTORE PUSH1 0x20 ADD PUSH1 0x3 PUSH1 0xFF AND DUP2 MSTORE PUSH1 0x20 ADD PUSH1 0x3 PUSH1 0xFF AND DUP2 MSTORE PUSH1 0x20 ADD PUSH1 0x3 PUSH1 0xFF AND DUP2 MSTORE PUSH1 0x20 ADD PUSH1 0x3 PUSH1 0xFF AND DUP2 MSTORE PUSH1 0x20 ADD PUSH1 0x3 PUSH1 0xFF AND DUP2 MSTORE PUSH1 0x20 ADD PUSH1 0x1 PUSH1 0xFF AND DUP2 MSTORE PUSH1 0x20 ADD PUSH1 0x1 PUSH1 0xFF AND DUP2 MSTORE PUSH1 0x20 ADD PUSH1 0x1 PUSH1 0xFF AND DUP2 MSTORE PUSH1 0x20 ADD PUSH1 0x1 PUSH1 0xFF AND DUP2 MSTORE PUSH1 0x20 ADD PUSH1 0x2 PUSH1 0xFF AND DUP2 MSTORE PUSH1 0x20 ADD PUSH1 0x2 PUSH1 0xFF AND DUP2 MSTORE PUSH1 0x20 ADD PUSH1 0x2 PUSH1 0xFF AND DUP2 MSTORE PUSH1 0x20 ADD PUSH1 0x2 PUSH1 0xFF AND DUP2 MSTORE POP DUP2 MSTORE PUSH1 0x20 ADD PUSH1 0x40 MLOAD DUP1 PUSH2 0x280 ADD PUSH1 0x40 MSTORE DUP1 PUSH1 0x3 PUSH1 0xFF AND DUP2 MSTORE PUSH1 0x20 ADD PUSH1 0x3 PUSH1 0xFF AND DUP2 MSTORE PUSH1 0x20 ADD PUSH1 0x3 PUSH1 0xFF AND DUP2 MSTORE PUSH1 0x20 ADD PUSH1 0x3 PUSH1 0xFF AND DUP2 MSTORE PUSH1 0x20 ADD PUSH1 0x3 PUSH1 0xFF AND DUP2 MSTORE PUSH1 0x20 ADD PUSH1 0x3 PUSH1 0xFF AND DUP2 MSTORE PUSH1 0x20 ADD PUSH1 0x3 PUSH1 0xFF AND DUP2 MSTORE PUSH1 0x20 ADD PUSH1 0x3 PUSH1 0xFF AND DUP2 MSTORE PUSH1 0x20 ADD PUSH1 0x3 PUSH1 0xFF AND DUP2 MSTORE PUSH1 0x20 ADD PUSH1 0x3 PUSH1 0xFF AND DUP2 MSTORE PUSH1 0x20 ADD PUSH1 0x3 PUSH1 0xFF AND DUP2 MSTORE PUSH1 0x20 ADD PUSH1 0x3 PUSH1 0xFF AND DUP2 MSTORE PUSH1 0x20 ADD PUSH1 0x1 PUSH1 0xFF AND DUP2 MSTORE PUSH1 0x20 ADD PUSH1 0x1 PUSH1 0xFF AND DUP2 MSTORE PUSH1 0x20 ADD PUSH1 0x1 PUSH1 0xFF AND DUP2 MSTORE PUSH1 0x20 ADD PUSH1 0x1 PUSH1 0xFF AND DUP2 MSTORE PUSH1 0x20 ADD PUSH1 0x1 PUSH1 0xFF AND DUP2 MSTORE PUSH1 0x20 ADD PUSH1 0x1 PUSH1 0xFF AND DUP2 MSTORE PUSH1 0x20 ADD PUSH1 0x1 PUSH1 0xFF AND DUP2 MSTORE PUSH1 0x20 ADD PUSH1 0x1 PUSH1 0xFF AND DUP2 MSTORE POP DUP2 MSTORE PUSH1 0x20 ADD PUSH1 0x40 MLOAD DUP1 PUSH2 0x280 ADD PUSH1 0x40 MSTORE DUP1 PUSH1 0x3 PUSH1 0xFF AND DUP2 MSTORE PUSH1 0x20 ADD PUSH1 0x3 PUSH1 0xFF AND DUP2 MSTORE PUSH1 0x20 ADD PUSH1 0x3 PUSH1 0xFF AND DUP2 MSTORE PUSH1 0x20 ADD PUSH1 0x1 PUSH1 0xFF AND DUP2 MSTORE PUSH1 0x20 ADD PUSH1 0x3 PUSH1 0xFF AND DUP2 MSTORE PUSH1 0x20 ADD PUSH1 0x3 PUSH1 0xFF AND DUP2 MSTORE PUSH1 0x20 ADD PUSH1 0x3 PUSH1 0xFF AND DUP2 MSTORE PUSH1 0x20 ADD PUSH1 0x3 PUSH1 0xFF AND DUP2 MSTORE PUSH1 0x20 ADD PUSH1 0x3 PUSH1 0xFF AND DUP2 MSTORE PUSH1 0x20 ADD PUSH1 0x3 PUSH1 0xFF AND DUP2 MSTORE PUSH1 0x20 ADD PUSH1 0x3 PUSH1 0xFF AND DUP2 MSTORE PUSH1 0x20 ADD PUSH1 0x1 PUSH1 0xFF AND DUP2 MSTORE PUSH1 0x20 ADD PUSH1 0x2 PUSH1 0xFF AND DUP2 MSTORE PUSH1 0x20 ADD PUSH1 0x2 PUSH1 0xFF AND DUP2 MSTORE PUSH1 0x20 ADD PUSH1 0x2 PUSH1 0xFF AND DUP2 MSTORE PUSH1 0x20 ADD PUSH1 0x2 PUSH1 0xFF AND DUP2 MSTORE PUSH1 0x20 ADD PUSH1 0x1 PUSH1 0xFF AND DUP2 MSTORE PUSH1 0x20 ADD PUSH1 0x1 PUSH1 0xFF AND DUP2 MSTORE PUSH1 0x20 ADD PUSH1 0x1 PUSH1 0xFF AND DUP2 MSTORE PUSH1 0x20 ADD PUSH1 0x1 PUSH1 0xFF AND DUP2 MSTORE POP DUP2 MSTORE PUSH1 0x20 ADD PUSH1 0x40 MLOAD DUP1 PUSH2 0x280 ADD PUSH1 0x40 MSTORE DUP1 PUSH1 0x3 PUSH1 0xFF AND DUP2 MSTORE PUSH1 0x20 ADD PUSH1 0x3 PUSH1 0xFF AND DUP2 MSTORE PUSH1 0x20 ADD PUSH1 0x3 PUSH1 0xFF AND DUP2 MSTORE PUSH1 0x20 ADD PUSH1 0x1 PUSH1 0xFF AND DUP2 MSTORE PUSH1 0x20 ADD PUSH1 0x1 PUSH1 0xFF AND DUP2 MSTORE PUSH1 0x20 ADD PUSH1 0x2 PUSH1 0xFF AND DUP2 MSTORE PUSH1 0x20 ADD PUSH1 0x2 PUSH1 0xFF AND DUP2 MSTORE PUSH1 0x20 ADD PUSH1 0x2 PUSH1 0xFF AND DUP2 MSTORE PUSH1 0x20 ADD PUSH1 0x2 PUSH1 0xFF AND DUP2 MSTORE PUSH1 0x20 ADD PUSH1 0x2 PUSH1 0xFF AND DUP2 MSTORE PUSH1 0x20 ADD PUSH1 0x2 PUSH1 0xFF AND DUP2 MSTORE PUSH1 0x20 ADD PUSH1 0x1 PUSH1 0xFF AND DUP2 MSTORE PUSH1 0x20 ADD PUSH1 0x2 PUSH1 0xFF AND DUP2 MSTORE PUSH1 0x20 ADD PUSH1 0x2 PUSH1 0xFF AND DUP2 MSTORE PUSH1 0x20 ADD PUSH1 0x2 PUSH1 0xFF AND DUP2 MSTORE PUSH1 0x20 ADD PUSH1 0x2 PUSH1 0xFF AND DUP2 MSTORE PUSH1 0x20 ADD PUSH1 0x2 PUSH1 0xFF AND DUP2 MSTORE PUSH1 0x20 ADD PUSH1 0x2 PUSH1 0xFF AND DUP2 MSTORE PUSH1 0x20 ADD PUSH1 0x2 PUSH1 0xFF AND DUP2 MSTORE PUSH1 0x20 ADD PUSH1 0x1 PUSH1 0xFF AND DUP2 MSTORE POP DUP2 MSTORE PUSH1 0x20 ADD PUSH1 0x40 MLOAD DUP1 PUSH2 0x280 ADD PUSH1 0x40 MSTORE DUP1 PUSH1 0x1 PUSH1 0xFF AND DUP2 MSTORE PUSH1 0x20 ADD PUSH1 0x2 PUSH1 0xFF AND DUP2 MSTORE PUSH1 0x20 ADD PUSH1 0x2 PUSH1 0xFF AND DUP2 MSTORE PUSH1 0x20 ADD PUSH1 0x1 PUSH1 0xFF AND DUP2 MSTORE PUSH1 0x20 ADD PUSH1 0x2 PUSH1 0xFF AND DUP2 MSTORE PUSH1 0x20 ADD PUSH1 0x2 PUSH1 0xFF AND DUP2 MSTORE PUSH1 0x20 ADD PUSH1 0x2 PUSH1 0xFF AND DUP2 MSTORE PUSH1 0x20 ADD PUSH1 0x2 PUSH1 0xFF AND DUP2 MSTORE PUSH1 0x20 ADD PUSH1 0x2 PUSH1 0xFF AND DUP2 MSTORE PUSH1 0x20 ADD PUSH1 0x2 PUSH1 0xFF AND DUP2 MSTORE PUSH1 0x20 ADD PUSH1 0x2 PUSH1 0xFF AND DUP2 MSTORE PUSH1 0x20 ADD PUSH1 0x1 PUSH1 0xFF AND DUP2 MSTORE PUSH1 0x20 ADD PUSH1 0x2 PUSH1 0xFF AND DUP2 MSTORE PUSH1 0x20 ADD PUSH1 0x2 PUSH1 0xFF AND DUP2 MSTORE PUSH1 0x20 ADD PUSH1 0x2 PUSH1 0xFF AND DUP2 MSTORE PUSH1 0x20 ADD PUSH1 0x2 PUSH1 0xFF AND DUP2 MSTORE PUSH1 0x20 ADD PUSH1 0x2 PUSH1 0xFF AND DUP2 MSTORE PUSH1 0x20 ADD PUSH1 0x2 PUSH1 0xFF AND DUP2 MSTORE PUSH1 0x20 ADD PUSH1 0x2 PUSH1 0xFF AND DUP2 MSTORE PUSH1 0x20 ADD PUSH1 0x1 PUSH1 0xFF AND DUP2 MSTORE POP DUP2 MSTORE PUSH1 0x20 ADD PUSH1 0x40 MLOAD DUP1 PUSH2 0x280 ADD PUSH1 0x40 MSTORE DUP1 PUSH1 0x2 PUSH1 0xFF AND DUP2 MSTORE PUSH1 0x20 ADD PUSH1 0x2 PUSH1 0xFF AND DUP2 MSTORE PUSH1 0x20 ADD PUSH1 0x1 PUSH1 0xFF AND DUP2 MSTORE PUSH1 0x20 ADD PUSH1 0x1 PUSH1 0xFF AND DUP2 MSTORE PUSH1 0x20 ADD PUSH1 0x2 PUSH1 0xFF AND DUP2 MSTORE PUSH1 0x20 ADD PUSH1 0x2 PUSH1 0xFF AND DUP2 MSTORE PUSH1 0x20 ADD PUSH1 0x2 PUSH1 0xFF AND DUP2 MSTORE PUSH1 0x20 ADD PUSH1 0x2 PUSH1 0xFF AND DUP2 MSTORE PUSH1 0x20 ADD PUSH1 0x2 PUSH1 0xFF AND DUP2 MSTORE PUSH1 0x20 ADD PUSH1 0x2 PUSH1 0xFF AND DUP2 MSTORE PUSH1 0x20 ADD PUSH1 0x1 PUSH1 0xFF AND DUP2 MSTORE PUSH1 0x20 ADD PUSH1 0x1 PUSH1 0xFF AND DUP2 MSTORE PUSH1 0x20 ADD PUSH1 0x2 PUSH1 0xFF AND DUP2 MSTORE PUSH1 0x20 ADD PUSH1 0x2 PUSH1 0xFF AND DUP2 MSTORE PUSH1 0x20 ADD PUSH1 0x2 PUSH1 0xFF AND DUP2 MSTORE PUSH1 0x20 ADD PUSH1 0x2 PUSH1 0xFF AND DUP2 MSTORE PUSH1 0x20 ADD PUSH1 0x2 PUSH1 0xFF AND DUP2 MSTORE PUSH1 0x20 ADD PUSH1 0x2 PUSH1 0xFF AND DUP2 MSTORE PUSH1 0x20 ADD PUSH1 0x1 PUSH1 0xFF AND DUP2 MSTORE PUSH1 0x20 ADD PUSH1 0x1 PUSH1 0xFF AND DUP2 MSTORE POP DUP2 MSTORE PUSH1 0x20 ADD PUSH1 0x40 MLOAD DUP1 PUSH2 0x280 ADD PUSH1 0x40 MSTORE DUP1 PUSH1 0x3 PUSH1 0xFF AND DUP2 MSTORE PUSH1 0x20 ADD PUSH1 0x3 PUSH1 0xFF AND DUP2 MSTORE PUSH1 0x20 ADD PUSH1 0x3 PUSH1 0xFF AND DUP2 MSTORE PUSH1 0x20 ADD PUSH1 0x2 PUSH1 0xFF AND DUP2 MSTORE PUSH1 0x20 ADD PUSH1 0x1 PUSH1 0xFF AND DUP2 MSTORE PUSH1 0x20 ADD PUSH1 0x2 PUSH1 0xFF AND DUP2 MSTORE PUSH1 0x20 ADD PUSH1 0x2 PUSH1 0xFF AND DUP2 MSTORE PUSH1 0x20 ADD PUSH1 0x2 PUSH1 0xFF AND DUP2 MSTORE PUSH1 0x20 ADD PUSH1 0x2 PUSH1 0xFF AND DUP2 MSTORE PUSH1 0x20 ADD PUSH1 0x2 PUSH1 0xFF AND DUP2 MSTORE PUSH1 0x20 ADD PUSH1 0x1 PUSH1 0xFF AND DUP2 MSTORE PUSH1 0x20 ADD PUSH1 0x2 PUSH1 0xFF AND DUP2 MSTORE PUSH1 0x20 ADD PUSH1 0x2 PUSH1 0xFF AND DUP2 MSTORE PUSH1 0x20 ADD PUSH1 0x2 PUSH1 0xFF AND DUP2 MSTORE PUSH1 0x20 ADD PUSH1 0x2 PUSH1 0xFF AND DUP2 MSTORE PUSH1 0x20 ADD PUSH1 0x1 PUSH1 0xFF AND DUP2 MSTORE PUSH1 0x20 ADD PUSH1 0x1 PUSH1 0xFF AND DUP2 MSTORE PUSH1 0x20 ADD PUSH1 0x1 PUSH1 0xFF AND DUP2 MSTORE PUSH1 0x20 ADD PUSH1 0x1 PUSH1 0xFF AND DUP2 MSTORE PUSH1 0x20 ADD PUSH1 0x1 PUSH1 0xFF AND DUP2 MSTORE POP DUP2 MSTORE PUSH1 0x20 ADD PUSH1 0x40 MLOAD DUP1 PUSH2 0x280 ADD PUSH1 0x40 MSTORE DUP1 PUSH1 0x3 PUSH1 0xFF AND DUP2 MSTORE PUSH1 0x20 ADD PUSH1 0x3 PUSH1 0xFF AND DUP2 MSTORE PUSH1 0x20 ADD PUSH1 0x3 PUSH1 0xFF AND DUP2 MSTORE PUSH1 0x20 ADD PUSH1 0x3 PUSH1 0xFF AND DUP2 MSTORE PUSH1 0x20 ADD PUSH1 0x1 PUSH1 0xFF AND DUP2 MSTORE PUSH1 0x20 ADD PUSH1 0x1 PUSH1 0xFF AND DUP2 MSTORE PUSH1 0x20 ADD PUSH1 0x2 PUSH1 0xFF AND DUP2 MSTORE PUSH1 0x20 ADD PUSH1 0x2 PUSH1 0xFF AND DUP2 MSTORE PUSH1 0x20 ADD PUSH1 0x2 PUSH1 0xFF AND DUP2 MSTORE PUSH1 0x20 ADD PUSH1 0x2 PUSH1 0xFF AND DUP2 MSTORE PUSH1 0x20 ADD PUSH1 0x1 PUSH1 0xFF AND DUP2 MSTORE PUSH1 0x20 ADD PUSH1 0x1 PUSH1 0xFF AND DUP2 MSTORE PUSH1 0x20 ADD PUSH1 0x2 PUSH1 0xFF AND DUP2 MSTORE PUSH1 0x20 ADD PUSH1 0x2 PUSH1 0xFF AND DUP2 MSTORE PUSH1 0x20 ADD PUSH1 0x2 PUSH1 0xFF AND DUP2 MSTORE PUSH1 0x20 ADD PUSH1 0x1 PUSH1 0xFF AND DUP2 MSTORE PUSH1 0x20 ADD PUSH1 0x1 PUSH1 0xFF AND DUP2 MSTORE PUSH1 0x20 ADD PUSH1 0x1 PUSH1 0xFF AND DUP2 MSTORE PUSH1 0x20 ADD PUSH1 0x1 PUSH1 0xFF AND DUP2 MSTORE PUSH1 0x20 ADD PUSH1 0x1 PUSH1 0xFF AND DUP2 MSTORE POP DUP2 MSTORE PUSH1 0x20 ADD PUSH1 0x40 MLOAD DUP1 PUSH2 0x280 ADD PUSH1 0x40 MSTORE DUP1 PUSH1 0x3 PUSH1 0xFF AND DUP2 MSTORE PUSH1 0x20 ADD PUSH1 0x3 PUSH1 0xFF AND DUP2 MSTORE PUSH1 0x20 ADD PUSH1 0x3 PUSH1 0xFF AND DUP2 MSTORE PUSH1 0x20 ADD PUSH1 0x3 PUSH1 0xFF AND DUP2 MSTORE PUSH1 0x20 ADD PUSH1 0x3 PUSH1 0xFF AND DUP2 MSTORE PUSH1 0x20 ADD PUSH1 0x1 PUSH1 0xFF AND DUP2 MSTORE PUSH1 0x20 ADD PUSH1 0x2 PUSH1 0xFF AND DUP2 MSTORE PUSH1 0x20 ADD PUSH1 0x2 PUSH1 0xFF AND DUP2 MSTORE PUSH1 0x20 ADD PUSH1 0x2 PUSH1 0xFF AND DUP2 MSTORE PUSH1 0x20 ADD PUSH1 0x2 PUSH1 0xFF AND DUP2 MSTORE PUSH1 0x20 ADD PUSH1 0x1 PUSH1 0xFF AND DUP2 MSTORE PUSH1 0x20 ADD PUSH1 0x1 PUSH1 0xFF AND DUP2 MSTORE PUSH1 0x20 ADD PUSH1 0x1 PUSH1 0xFF AND DUP2 MSTORE PUSH1 0x20 ADD PUSH1 0x2 PUSH1 0xFF AND DUP2 MSTORE PUSH1 0x20 ADD PUSH1 0x2 PUSH1 0xFF AND DUP2 MSTORE PUSH1 0x20 ADD PUSH1 0x2 PUSH1 0xFF AND DUP2 MSTORE PUSH1 0x20 ADD PUSH1 0x2 PUSH1 0xFF AND DUP2 MSTORE PUSH1 0x20 ADD PUSH1 0x1 PUSH1 0xFF AND DUP2 MSTORE PUSH1 0x20 ADD PUSH1 0x1 PUSH1 0xFF AND DUP2 MSTORE PUSH1 0x20 ADD PUSH1 0x1 PUSH1 0xFF AND DUP2 MSTORE POP DUP2 MSTORE PUSH1 0x20 ADD PUSH1 0x40 MLOAD DUP1 PUSH2 0x280 ADD PUSH1 0x40 MSTORE DUP1 PUSH1 0x3 PUSH1 0xFF AND DUP2 MSTORE PUSH1 0x20 ADD PUSH1 0x3 PUSH1 0xFF AND DUP2 MSTORE PUSH1 0x20 ADD PUSH1 0x3 PUSH1 0xFF AND DUP2 MSTORE PUSH1 0x20 ADD PUSH1 0x3 PUSH1 0xFF AND DUP2 MSTORE PUSH1 0x20 ADD PUSH1 0x3 PUSH1 0xFF AND DUP2 MSTORE PUSH1 0x20 ADD PUSH1 0x2 PUSH1 0xFF AND DUP2 MSTORE PUSH1 0x20 ADD PUSH1 0x2 PUSH1 0xFF AND DUP2 MSTORE PUSH1 0x20 ADD PUSH1 0x2 PUSH1 0xFF AND DUP2 MSTORE PUSH1 0x20 ADD PUSH1 0x3 PUSH1 0xFF AND DUP2 MSTORE PUSH1 0x20 ADD PUSH1 0x3 PUSH1 0xFF AND DUP2 MSTORE PUSH1 0x20 ADD PUSH1 0x2 PUSH1 0xFF AND DUP2 MSTORE PUSH1 0x20 ADD PUSH1 0x2 PUSH1 0xFF AND DUP2 MSTORE PUSH1 0x20 ADD PUSH1 0x1 PUSH1 0xFF AND DUP2 MSTORE PUSH1 0x20 ADD PUSH1 0x2 PUSH1 0xFF AND DUP2 MSTORE PUSH1 0x20 ADD PUSH1 0x2 PUSH1 0xFF AND DUP2 MSTORE PUSH1 0x20 ADD PUSH1 0x2 PUSH1 0xFF AND DUP2 MSTORE PUSH1 0x20 ADD PUSH1 0x2 PUSH1 0xFF AND DUP2 MSTORE PUSH1 0x20 ADD PUSH1 0x1 PUSH1 0xFF AND DUP2 MSTORE PUSH1 0x20 ADD PUSH1 0x1 PUSH1 0xFF AND DUP2 MSTORE PUSH1 0x20 ADD PUSH1 0x1 PUSH1 0xFF AND DUP2 MSTORE POP DUP2 MSTORE PUSH1 0x20 ADD PUSH1 0x40 MLOAD DUP1 PUSH2 0x280 ADD PUSH1 0x40 MSTORE DUP1 PUSH1 0x2 PUSH1 0xFF AND DUP2 MSTORE PUSH1 0x20 ADD PUSH1 0x2 PUSH1 0xFF AND DUP2 MSTORE PUSH1 0x20 ADD PUSH1 0x2 PUSH1 0xFF AND DUP2 MSTORE PUSH1 0x20 ADD PUSH1 0x1 PUSH1 0xFF AND DUP2 MSTORE PUSH1 0x20 ADD PUSH1 0x1 PUSH1 0xFF AND DUP2 MSTORE PUSH1 0x20 ADD PUSH1 0x1 PUSH1 0xFF AND DUP2 MSTORE PUSH1 0x20 ADD PUSH1 0x1 PUSH1 0xFF AND DUP2 MSTORE PUSH1 0x20 ADD PUSH1 0x1 PUSH1 0xFF AND DUP2 MSTORE PUSH1 0x20 ADD PUSH1 0x3 PUSH1 0xFF AND DUP2 MSTORE PUSH1 0x20 ADD PUSH1 0x3 PUSH1 0xFF AND DUP2 MSTORE PUSH1 0x20 ADD PUSH1 0x3 PUSH1 0xFF AND DUP2 MSTORE PUSH1 0x20 ADD PUSH1 0x3 PUSH1 0xFF AND DUP2 MSTORE PUSH1 0x20 ADD PUSH1 0x1 PUSH1 0xFF AND DUP2 MSTORE PUSH1 0x20 ADD PUSH1 0x1 PUSH1 0xFF AND DUP2 MSTORE PUSH1 0x20 ADD PUSH1 0x2 PUSH1 0xFF AND DUP2 MSTORE PUSH1 0x20 ADD PUSH1 0x2 PUSH1 0xFF AND DUP2 MSTORE PUSH1 0x20 ADD PUSH1 0x2 PUSH1 0xFF AND DUP2 MSTORE PUSH1 0x20 ADD PUSH1 0x1 PUSH1 0xFF AND DUP2 MSTORE PUSH1 0x20 ADD PUSH1 0x1 PUSH1 0xFF AND DUP2 MSTORE PUSH1 0x20 ADD PUSH1 0x1 PUSH1 0xFF AND DUP2 MSTORE POP DUP2 MSTORE PUSH1 0x20 ADD PUSH1 0x40 MLOAD DUP1 PUSH2 0x280 ADD PUSH1 0x40 MSTORE DUP1 PUSH1 0x2 PUSH1 0xFF AND DUP2 MSTORE PUSH1 0x20 ADD PUSH1 0x2 PUSH1 0xFF AND DUP2 MSTORE PUSH1 0x20 ADD PUSH1 0x2 PUSH1 0xFF AND DUP2 MSTORE PUSH1 0x20 ADD PUSH1 0x2 PUSH1 0xFF AND DUP2 MSTORE PUSH1 0x20 ADD PUSH1 0x2 PUSH1 0xFF AND DUP2 MSTORE PUSH1 0x20 ADD PUSH1 0x2 PUSH1 0xFF AND DUP2 MSTORE PUSH1 0x20 ADD PUSH1 0x1 PUSH1 0xFF AND DUP2 MSTORE PUSH1 0x20 ADD PUSH1 0x1 PUSH1 0xFF AND DUP2 MSTORE PUSH1 0x20 ADD PUSH1 0x3 PUSH1 0xFF AND DUP2 MSTORE PUSH1 0x20 ADD PUSH1 0x3 PUSH1 0xFF AND DUP2 MSTORE PUSH1 0x20 ADD PUSH1 0x3 PUSH1 0xFF AND DUP2 MSTORE PUSH1 0x20 ADD PUSH1 0x3 PUSH1 0xFF AND DUP2 MSTORE PUSH1 0x20 ADD PUSH1 0x1 PUSH1 0xFF AND DUP2 MSTORE PUSH1 0x20 ADD PUSH1 0x1 PUSH1 0xFF AND DUP2 MSTORE PUSH1 0x20 ADD PUSH1 0x1 PUSH1 0xFF AND DUP2 MSTORE PUSH1 0x20 ADD PUSH1 0x1 PUSH1 0xFF AND DUP2 MSTORE PUSH1 0x20 ADD PUSH1 0x3 PUSH1 0xFF AND DUP2 MSTORE PUSH1 0x20 ADD PUSH1 0x3 PUSH1 0xFF AND DUP2 MSTORE PUSH1 0x20 ADD PUSH1 0x2 PUSH1 0xFF AND DUP2 MSTORE PUSH1 0x20 ADD PUSH1 0x2 PUSH1 0xFF AND DUP2 MSTORE POP DUP2 MSTORE PUSH1 0x20 ADD PUSH1 0x40 MLOAD DUP1 PUSH2 0x280 ADD PUSH1 0x40 MSTORE DUP1 PUSH1 0x2 PUSH1 0xFF AND DUP2 MSTORE PUSH1 0x20 ADD PUSH1 0x2 PUSH1 0xFF AND DUP2 MSTORE PUSH1 0x20 ADD PUSH1 0x2 PUSH1 0xFF AND DUP2 MSTORE PUSH1 0x20 ADD PUSH1 0x2 PUSH1 0xFF AND DUP2 MSTORE PUSH1 0x20 ADD PUSH1 0x2 PUSH1 0xFF AND DUP2 MSTORE PUSH1 0x20 ADD PUSH1 0x2 PUSH1 0xFF AND DUP2 MSTORE PUSH1 0x20 ADD PUSH1 0x2 PUSH1 0xFF AND DUP2 MSTORE PUSH1 0x20 ADD PUSH1 0x1 PUSH1 0xFF AND DUP2 MSTORE PUSH1 0x20 ADD PUSH1 0x3 PUSH1 0xFF AND DUP2 MSTORE PUSH1 0x20 ADD PUSH1 0x3 PUSH1 0xFF AND DUP2 MSTORE PUSH1 0x20 ADD PUSH1 0x3 PUSH1 0xFF AND DUP2 MSTORE PUSH1 0x20 ADD PUSH1 0x3 PUSH1 0xFF AND DUP2 MSTORE PUSH1 0x20 ADD PUSH1 0x1 PUSH1 0xFF AND DUP2 MSTORE PUSH1 0x20 ADD PUSH1 0x1 PUSH1 0xFF AND DUP2 MSTORE PUSH1 0x20 ADD PUSH1 0x1 PUSH1 0xFF AND DUP2 MSTORE PUSH1 0x20 ADD PUSH1 0x1 PUSH1 0xFF AND DUP2 MSTORE PUSH1 0x20 ADD PUSH1 0x3 PUSH1 0xFF AND DUP2 MSTORE PUSH1 0x20 ADD PUSH1 0x3 PUSH1 0xFF AND DUP2 MSTORE PUSH1 0x20 ADD PUSH1 0x2 PUSH1 0xFF AND DUP2 MSTORE PUSH1 0x20 ADD PUSH1 0x2 PUSH1 0xFF AND DUP2 MSTORE POP DUP2 MSTORE PUSH1 0x20 ADD PUSH1 0x40 MLOAD DUP1 PUSH2 0x280 ADD PUSH1 0x40 MSTORE DUP1 PUSH1 0x2 PUSH1 0xFF AND DUP2 MSTORE PUSH1 0x20 ADD PUSH1 0x2 PUSH1 0xFF AND DUP2 MSTORE PUSH1 0x20 ADD PUSH1 0x2 PUSH1 0xFF AND DUP2 MSTORE PUSH1 0x20 ADD PUSH1 0x2 PUSH1 0xFF AND DUP2 MSTORE PUSH1 0x20 ADD PUSH1 0x2 PUSH1 0xFF AND DUP2 MSTORE PUSH1 0x20 ADD PUSH1 0x2 PUSH1 0xFF AND DUP2 MSTORE PUSH1 0x20 ADD PUSH1 0x2 PUSH1 0xFF AND DUP2 MSTORE PUSH1 0x20 ADD PUSH1 0x1 PUSH1 0xFF AND DUP2 MSTORE PUSH1 0x20 ADD PUSH1 0x1 PUSH1 0xFF AND DUP2 MSTORE PUSH1 0x20 ADD PUSH1 0x2 PUSH1 0xFF AND DUP2 MSTORE PUSH1 0x20 ADD PUSH1 0x2 PUSH1 0xFF AND DUP2 MSTORE PUSH1 0x20 ADD PUSH1 0x1 PUSH1 0xFF AND DUP2 MSTORE PUSH1 0x20 ADD PUSH1 0x1 PUSH1 0xFF AND DUP2 MSTORE PUSH1 0x20 ADD PUSH1 0x2 PUSH1 0xFF AND DUP2 MSTORE PUSH1 0x20 ADD PUSH1 0x2 PUSH1 0xFF AND DUP2 MSTORE PUSH1 0x20 ADD PUSH1 0x1 PUSH1 0xFF AND DUP2 MSTORE PUSH1 0x20 ADD PUSH1 0x3 PUSH1 0xFF AND DUP2 MSTORE PUSH1 0x20 ADD PUSH1 0x3 PUSH1 0xFF AND DUP2 MSTORE PUSH1 0x20 ADD PUSH1 0x2 PUSH1 0xFF AND DUP2 MSTORE PUSH1 0x20 ADD PUSH1 0x2 PUSH1 0xFF AND DUP2 MSTORE POP DUP2 MSTORE PUSH1 0x20 ADD PUSH1 0x40 MLOAD DUP1 PUSH2 0x280 ADD PUSH1 0x40 MSTORE DUP1 PUSH1 0x2 PUSH1 0xFF AND DUP2 MSTORE PUSH1 0x20 ADD PUSH1 0x2 PUSH1 0xFF AND DUP2 MSTORE PUSH1 0x20 ADD PUSH1 0x2 PUSH1 0xFF AND DUP2 MSTORE PUSH1 0x20 ADD PUSH1 0x2 PUSH1 0xFF AND DUP2 MSTORE PUSH1 0x20 ADD PUSH1 0x2 PUSH1 0xFF AND DUP2 MSTORE PUSH1 0x20 ADD PUSH1 0x2 PUSH1 0xFF AND DUP2 MSTORE PUSH1 0x20 ADD PUSH1 0x2 PUSH1 0xFF AND DUP2 MSTORE PUSH1 0x20 ADD PUSH1 0x1 PUSH1 0xFF AND DUP2 MSTORE PUSH1 0x20 ADD PUSH1 0x1 PUSH1 0xFF AND DUP2 MSTORE PUSH1 0x20 ADD PUSH1 0x1 PUSH1 0xFF AND DUP2 MSTORE PUSH1 0x20 ADD PUSH1 0x1 PUSH1 0xFF AND DUP2 MSTORE PUSH1 0x20 ADD PUSH1 0x1 PUSH1 0xFF AND DUP2 MSTORE PUSH1 0x20 ADD PUSH1 0x1 PUSH1 0xFF AND DUP2 MSTORE PUSH1 0x20 ADD PUSH1 0x1 PUSH1 0xFF AND DUP2 MSTORE PUSH1 0x20 ADD PUSH1 0x1 PUSH1 0xFF AND DUP2 MSTORE PUSH1 0x20 ADD PUSH1 0x3 PUSH1 0xFF AND DUP2 MSTORE PUSH1 0x20 ADD PUSH1 0x3 PUSH1 0xFF AND DUP2 MSTORE PUSH1 0x20 ADD PUSH1 0x3 PUSH1 0xFF AND DUP2 MSTORE PUSH1 0x20 ADD PUSH1 0x2 PUSH1 0xFF AND DUP2 MSTORE PUSH1 0x20 ADD PUSH1 0x2 PUSH1 0xFF AND DUP2 MSTORE POP DUP2 MSTORE POP PUSH1 0x1E SWAP1 PUSH1 0x14 PUSH3 0x12D2 SWAP3 SWAP2 SWAP1 PUSH3 0x16DE JUMP JUMPDEST POP CALLVALUE DUP1 ISZERO PUSH3 0x12E0 JUMPI PUSH1 0x0 DUP1 REVERT JUMPDEST POP PUSH1 0x40 MLOAD PUSH3 0x684D CODESIZE SUB DUP1 PUSH3 0x684D DUP4 CODECOPY DUP2 DUP2 ADD PUSH1 0x40 MSTORE DUP2 ADD SWAP1 PUSH3 0x1306 SWAP2 SWAP1 PUSH3 0x188C JUMP JUMPDEST DUP1 PUSH1 0x0 DUP1 PUSH2 0x100 EXP DUP2 SLOAD DUP2 PUSH20 0xFFFFFFFFFFFFFFFFFFFFFFFFFFFFFFFFFFFFFFFF MUL NOT AND SWAP1 DUP4 PUSH20 0xFFFFFFFFFFFFFFFFFFFFFFFFFFFFFFFFFFFFFFFF AND MUL OR SWAP1 SSTORE POP PUSH3 0x1356 PUSH3 0x139E PUSH1 0x20 SHL PUSH1 0x20 SHR JUMP JUMPDEST CALLER PUSH1 0x1 PUSH1 0x0 PUSH2 0x100 EXP DUP2 SLOAD DUP2 PUSH20 0xFFFFFFFFFFFFFFFFFFFFFFFFFFFFFFFFFFFFFFFF MUL NOT AND SWAP1 DUP4 PUSH20 0xFFFFFFFFFFFFFFFFFFFFFFFFFFFFFFFFFFFFFFFF AND MUL OR SWAP1 SSTORE POP POP PUSH3 0x18BE JUMP JUMPDEST PUSH1 0x40 MLOAD DUP1 PUSH1 0x80 ADD PUSH1 0x40 MSTORE DUP1 PUSH1 0x64 DUP2 MSTORE PUSH1 0x20 ADD PUSH1 0x32 DUP2 MSTORE PUSH1 0x20 ADD PUSH1 0x1E DUP2 MSTORE PUSH1 0x20 ADD PUSH1 0x14 DUP2 MSTORE POP PUSH1 0x1D PUSH1 0x0 PUSH1 0x1 PUSH1 0xFF AND DUP2 MSTORE PUSH1 0x20 ADD SWAP1 DUP2 MSTORE PUSH1 0x20 ADD PUSH1 0x0 KECCAK256 PUSH1 0x0 DUP3 ADD MLOAD DUP2 PUSH1 0x0 ADD SSTORE PUSH1 0x20 DUP3 ADD MLOAD DUP2 PUSH1 0x1 ADD SSTORE PUSH1 0x40 DUP3 ADD MLOAD DUP2 PUSH1 0x2 ADD SSTORE PUSH1 0x60 DUP3 ADD MLOAD DUP2 PUSH1 0x3 ADD SSTORE SWAP1 POP POP PUSH1 0x40 MLOAD DUP1 PUSH1 0x80 ADD PUSH1 0x40 MSTORE DUP1 PUSH1 0xC8 DUP2 MSTORE PUSH1 0x20 ADD PUSH1 0x64 DUP2 MSTORE PUSH1 0x20 ADD PUSH1 0x32 DUP2 MSTORE PUSH1 0x20 ADD PUSH1 0x28 DUP2 MSTORE POP PUSH1 0x1D PUSH1 0x0 PUSH1 0x2 PUSH1 0xFF AND DUP2 MSTORE PUSH1 0x20 ADD SWAP1 DUP2 MSTORE PUSH1 0x20 ADD PUSH1 0x0 KECCAK256 PUSH1 0x0 DUP3 ADD MLOAD DUP2 PUSH1 0x0 ADD SSTORE PUSH1 0x20 DUP3 ADD MLOAD DUP2 PUSH1 0x1 ADD SSTORE PUSH1 0x40 DUP3 ADD MLOAD DUP2 PUSH1 0x2 ADD SSTORE PUSH1 0x60 DUP3 ADD MLOAD DUP2 PUSH1 0x3 ADD SSTORE SWAP1 POP POP PUSH1 0x40 MLOAD DUP1 PUSH1 0x80 ADD PUSH1 0x40 MSTORE DUP1 PUSH2 0x12C DUP2 MSTORE PUSH1 0x20 ADD PUSH1 0x64 DUP2 MSTORE PUSH1 0x20 ADD PUSH1 0x32 DUP2 MSTORE PUSH1 0x20 ADD PUSH1 0x28 DUP2 MSTORE POP PUSH1 0x1D PUSH1 0x0 PUSH1 0x3 PUSH1 0xFF AND DUP2 MSTORE PUSH1 0x20 ADD SWAP1 DUP2 MSTORE PUSH1 0x20 ADD PUSH1 0x0 KECCAK256 PUSH1 0x0 DUP3 ADD MLOAD DUP2 PUSH1 0x0 ADD SSTORE PUSH1 0x20 DUP3 ADD MLOAD DUP2 PUSH1 0x1 ADD SSTORE PUSH1 0x40 DUP3 ADD MLOAD DUP2 PUSH1 0x2 ADD SSTORE PUSH1 0x60 DUP3 ADD MLOAD DUP2 PUSH1 0x3 ADD SSTORE SWAP1 POP POP PUSH1 0x40 MLOAD DUP1 PUSH1 0x80 ADD PUSH1 0x40 MSTORE DUP1 PUSH2 0x190 DUP2 MSTORE PUSH1 0x20 ADD PUSH1 0x64 DUP2 MSTORE PUSH1 0x20 ADD PUSH1 0x32 DUP2 MSTORE PUSH1 0x20 ADD PUSH1 0x28 DUP2 MSTORE POP PUSH1 0x1D PUSH1 0x0 PUSH1 0x4 PUSH1 0xFF AND DUP2 MSTORE PUSH1 0x20 ADD SWAP1 DUP2 MSTORE PUSH1 0x20 ADD PUSH1 0x0 KECCAK256 PUSH1 0x0 DUP3 ADD MLOAD DUP2 PUSH1 0x0 ADD SSTORE PUSH1 0x20 DUP3 ADD MLOAD DUP2 PUSH1 0x1 ADD SSTORE PUSH1 0x40 DUP3 ADD MLOAD DUP2 PUSH1 0x2 ADD SSTORE PUSH1 0x60 DUP3 ADD MLOAD DUP2 PUSH1 0x3 ADD SSTORE SWAP1 POP POP PUSH1 0x40 MLOAD DUP1 PUSH1 0x80 ADD PUSH1 0x40 MSTORE DUP1 PUSH2 0x1F4 DUP2 MSTORE PUSH1 0x20 ADD PUSH1 0x64 DUP2 MSTORE PUSH1 0x20 ADD PUSH1 0x32 DUP2 MSTORE PUSH1 0x20 ADD PUSH1 0x28 DUP2 MSTORE POP PUSH1 0x1D PUSH1 0x0 PUSH1 0x5 PUSH1 0xFF AND DUP2 MSTORE PUSH1 0x20 ADD SWAP1 DUP2 MSTORE PUSH1 0x20 ADD PUSH1 0x0 KECCAK256 PUSH1 0x0 DUP3 ADD MLOAD DUP2 PUSH1 0x0 ADD SSTORE PUSH1 0x20 DUP3 ADD MLOAD DUP2 PUSH1 0x1 ADD SSTORE PUSH1 0x40 DUP3 ADD MLOAD DUP2 PUSH1 0x2 ADD SSTORE PUSH1 0x60 DUP3 ADD MLOAD DUP2 PUSH1 0x3 ADD SSTORE SWAP1 POP POP PUSH1 0x40 MLOAD DUP1 PUSH1 0x80 ADD PUSH1 0x40 MSTORE DUP1 PUSH2 0x258 DUP2 MSTORE PUSH1 0x20 ADD PUSH1 0x64 DUP2 MSTORE PUSH1 0x20 ADD PUSH1 0x32 DUP2 MSTORE PUSH1 0x20 ADD PUSH1 0x28 DUP2 MSTORE POP PUSH1 0x1D PUSH1 0x0 PUSH1 0x6 PUSH1 0xFF AND DUP2 MSTORE PUSH1 0x20 ADD SWAP1 DUP2 MSTORE PUSH1 0x20 ADD PUSH1 0x0 KECCAK256 PUSH1 0x0 DUP3 ADD MLOAD DUP2 PUSH1 0x0 ADD SSTORE PUSH1 0x20 DUP3 ADD MLOAD DUP2 PUSH1 0x1 ADD SSTORE PUSH1 0x40 DUP3 ADD MLOAD DUP2 PUSH1 0x2 ADD SSTORE PUSH1 0x60 DUP3 ADD MLOAD DUP2 PUSH1 0x3 ADD SSTORE SWAP1 POP POP PUSH1 0x40 MLOAD DUP1 PUSH1 0x80 ADD PUSH1 0x40 MSTORE DUP1 PUSH2 0x2BC DUP2 MSTORE PUSH1 0x20 ADD PUSH1 0x64 DUP2 MSTORE PUSH1 0x20 ADD PUSH1 0x32 DUP2 MSTORE PUSH1 0x20 ADD PUSH1 0x28 DUP2 MSTORE POP PUSH1 0x1D PUSH1 0x0 PUSH1 0x7 PUSH1 0xFF AND DUP2 MSTORE PUSH1 0x20 ADD SWAP1 DUP2 MSTORE PUSH1 0x20 ADD PUSH1 0x0 KECCAK256 PUSH1 0x0 DUP3 ADD MLOAD DUP2 PUSH1 0x0 ADD SSTORE PUSH1 0x20 DUP3 ADD MLOAD DUP2 PUSH1 0x1 ADD SSTORE PUSH1 0x40 DUP3 ADD MLOAD DUP2 PUSH1 0x2 ADD SSTORE PUSH1 0x60 DUP3 ADD MLOAD DUP2 PUSH1 0x3 ADD SSTORE SWAP1 POP POP PUSH1 0x40 MLOAD DUP1 PUSH1 0x80 ADD PUSH1 0x40 MSTORE DUP1 PUSH2 0x320 DUP2 MSTORE PUSH1 0x20 ADD PUSH1 0x64 DUP2 MSTORE PUSH1 0x20 ADD PUSH1 0x32 DUP2 MSTORE PUSH1 0x20 ADD PUSH1 0x28 DUP2 MSTORE POP PUSH1 0x1D PUSH1 0x0 PUSH1 0x8 PUSH1 0xFF AND DUP2 MSTORE PUSH1 0x20 ADD SWAP1 DUP2 MSTORE PUSH1 0x20 ADD PUSH1 0x0 KECCAK256 PUSH1 0x0 DUP3 ADD MLOAD DUP2 PUSH1 0x0 ADD SSTORE PUSH1 0x20 DUP3 ADD MLOAD DUP2 PUSH1 0x1 ADD SSTORE PUSH1 0x40 DUP3 ADD MLOAD DUP2 PUSH1 0x2 ADD SSTORE PUSH1 0x60 DUP3 ADD MLOAD DUP2 PUSH1 0x3 ADD SSTORE SWAP1 POP POP JUMP JUMPDEST DUP3 PUSH1 0x14 DUP2 ADD SWAP3 DUP3 ISZERO PUSH3 0x1720 JUMPI SWAP2 PUSH1 0x20 MUL DUP3 ADD JUMPDEST DUP3 DUP2 GT ISZERO PUSH3 0x171F JUMPI DUP3 MLOAD DUP3 SWAP1 PUSH1 0x14 PUSH3 0x170E SWAP3 SWAP2 SWAP1 PUSH3 0x1733 JUMP JUMPDEST POP SWAP2 PUSH1 0x20 ADD SWAP2 SWAP1 PUSH1 0x1 ADD SWAP1 PUSH3 0x16F2 JUMP JUMPDEST JUMPDEST POP SWAP1 POP PUSH3 0x172F SWAP2 SWAP1 PUSH3 0x17D4 JUMP JUMPDEST POP SWAP1 JUMP JUMPDEST DUP3 PUSH1 0x14 PUSH1 0x1F ADD PUSH1 0x20 SWAP1 DIV DUP2 ADD SWAP3 DUP3 ISZERO PUSH3 0x17C1 JUMPI SWAP2 PUSH1 0x20 MUL DUP3 ADD PUSH1 0x0 JUMPDEST DUP4 DUP3 GT ISZERO PUSH3 0x1790 JUMPI DUP4 MLOAD DUP4 DUP3 PUSH2 0x100 EXP DUP2 SLOAD DUP2 PUSH1 0xFF MUL NOT AND SWAP1 DUP4 PUSH1 0xFF AND MUL OR SWAP1 SSTORE POP SWAP3 PUSH1 0x20 ADD SWAP3 PUSH1 0x1 ADD PUSH1 0x20 DUP2 PUSH1 0x0 ADD DIV SWAP3 DUP4 ADD SWAP3 PUSH1 0x1 SUB MUL PUSH3 0x1750 JUMP JUMPDEST DUP1 ISZERO PUSH3 0x17BF JUMPI DUP3 DUP2 PUSH2 0x100 EXP DUP2 SLOAD SWAP1 PUSH1 0xFF MUL NOT AND SWAP1 SSTORE PUSH1 0x1 ADD PUSH1 0x20 DUP2 PUSH1 0x0 ADD DIV SWAP3 DUP4 ADD SWAP3 PUSH1 0x1 SUB MUL PUSH3 0x1790 JUMP JUMPDEST POP JUMPDEST POP SWAP1 POP PUSH3 0x17D0 SWAP2 SWAP1 PUSH3 0x17FC JUMP JUMPDEST POP SWAP1 JUMP JUMPDEST JUMPDEST DUP1 DUP3 GT ISZERO PUSH3 0x17F8 JUMPI PUSH1 0x0 DUP2 DUP2 PUSH3 0x17EE SWAP2 SWAP1 PUSH3 0x181B JUMP JUMPDEST POP PUSH1 0x1 ADD PUSH3 0x17D5 JUMP JUMPDEST POP SWAP1 JUMP JUMPDEST JUMPDEST DUP1 DUP3 GT ISZERO PUSH3 0x1817 JUMPI PUSH1 0x0 DUP2 PUSH1 0x0 SWAP1 SSTORE POP PUSH1 0x1 ADD PUSH3 0x17FD JUMP JUMPDEST POP SWAP1 JUMP JUMPDEST POP PUSH1 0x0 SWAP1 SSTORE JUMP JUMPDEST PUSH1 0x0 DUP1 REVERT JUMPDEST PUSH1 0x0 PUSH20 0xFFFFFFFFFFFFFFFFFFFFFFFFFFFFFFFFFFFFFFFF DUP3 AND SWAP1 POP SWAP2 SWAP1 POP JUMP JUMPDEST PUSH1 0x0 PUSH3 0x1854 DUP3 PUSH3 0x1827 JUMP JUMPDEST SWAP1 POP SWAP2 SWAP1 POP JUMP JUMPDEST PUSH3 0x1866 DUP2 PUSH3 0x1847 JUMP JUMPDEST DUP2 EQ PUSH3 0x1872 JUMPI PUSH1 0x0 DUP1 REVERT JUMPDEST POP JUMP JUMPDEST PUSH1 0x0 DUP2 MLOAD SWAP1 POP PUSH3 0x1886 DUP2 PUSH3 0x185B JUMP JUMPDEST SWAP3 SWAP2 POP POP JUMP JUMPDEST PUSH1 0x0 PUSH1 0x20 DUP3 DUP5 SUB SLT ISZERO PUSH3 0x18A5 JUMPI PUSH3 0x18A4 PUSH3 0x1822 JUMP JUMPDEST JUMPDEST PUSH1 0x0 PUSH3 0x18B5 DUP5 DUP3 DUP6 ADD PUSH3 0x1875 JUMP JUMPDEST SWAP2 POP POP SWAP3 SWAP2 POP POP JUMP JUMPDEST PUSH2 0x4F7F DUP1 PUSH3 0x18CE PUSH1 0x0 CODECOPY PUSH1 0x0 RETURN INVALID PUSH1 0x80 PUSH1 0x40 MSTORE CALLVALUE DUP1 ISZERO PUSH2 0x10 JUMPI PUSH1 0x0 DUP1 REVERT JUMPDEST POP PUSH1 0x4 CALLDATASIZE LT PUSH2 0x1CF JUMPI PUSH1 0x0 CALLDATALOAD PUSH1 0xE0 SHR DUP1 PUSH4 0xAFED933A GT PUSH2 0x104 JUMPI DUP1 PUSH4 0xDAA17F49 GT PUSH2 0xA2 JUMPI DUP1 PUSH4 0xF3245254 GT PUSH2 0x71 JUMPI DUP1 PUSH4 0xF3245254 EQ PUSH2 0x539 JUMPI DUP1 PUSH4 0xF89D7571 EQ PUSH2 0x569 JUMPI DUP1 PUSH4 0xF9C64454 EQ PUSH2 0x585 JUMPI DUP1 PUSH4 0xFAE92612 EQ PUSH2 0x5A6 JUMPI PUSH2 0x1CF JUMP JUMPDEST DUP1 PUSH4 0xDAA17F49 EQ PUSH2 0x4C5 JUMPI DUP1 PUSH4 0xDD4B466B EQ PUSH2 0x4E3 JUMPI DUP1 PUSH4 0xDECC1BBF EQ PUSH2 0x4FF JUMPI DUP1 PUSH4 0xE9DD6583 EQ PUSH2 0x51D JUMPI PUSH2 0x1CF JUMP JUMPDEST DUP1 PUSH4 0xBDC7DA8E GT PUSH2 0xDE JUMPI DUP1 PUSH4 0xBDC7DA8E EQ PUSH2 0x426 JUMPI DUP1 PUSH4 0xBE9A263C EQ PUSH2 0x444 JUMPI DUP1 PUSH4 0xC1712D57 EQ PUSH2 0x474 JUMPI DUP1 PUSH4 0xCC06C359 EQ PUSH2 0x4A7 JUMPI PUSH2 0x1CF JUMP JUMPDEST DUP1 PUSH4 0xAFED933A EQ PUSH2 0x3A8 JUMPI DUP1 PUSH4 0xBC9955A2 EQ PUSH2 0x3C6 JUMPI DUP1 PUSH4 0xBD638378 EQ PUSH2 0x3F6 JUMPI PUSH2 0x1CF JUMP JUMPDEST DUP1 PUSH4 0x620A9A99 GT PUSH2 0x171 JUMPI DUP1 PUSH4 0x8DA5CB5B GT PUSH2 0x14B JUMPI DUP1 PUSH4 0x8DA5CB5B EQ PUSH2 0x302 JUMPI DUP1 PUSH4 0x9B562DF2 EQ PUSH2 0x320 JUMPI DUP1 PUSH4 0xA2F9CC5B EQ PUSH2 0x357 JUMPI DUP1 PUSH4 0xA596B645 EQ PUSH2 0x387 JUMPI PUSH2 0x1CF JUMP JUMPDEST DUP1 PUSH4 0x620A9A99 EQ PUSH2 0x29F JUMPI DUP1 PUSH4 0x800BFA27 EQ PUSH2 0x2C0 JUMPI DUP1 PUSH4 0x8C87FA4F EQ PUSH2 0x2E1 JUMPI PUSH2 0x1CF JUMP JUMPDEST DUP1 PUSH4 0x3E5F2857 GT PUSH2 0x1AD JUMPI DUP1 PUSH4 0x3E5F2857 EQ PUSH2 0x228 JUMPI DUP1 PUSH4 0x4274B164 EQ PUSH2 0x244 JUMPI DUP1 PUSH4 0x4F264B03 EQ PUSH2 0x260 JUMPI DUP1 PUSH4 0x537E8F49 EQ PUSH2 0x27E JUMPI PUSH2 0x1CF JUMP JUMPDEST DUP1 PUSH4 0x7722BC2 EQ PUSH2 0x1D4 JUMPI DUP1 PUSH4 0xEE22F31 EQ PUSH2 0x1F0 JUMPI DUP1 PUSH4 0x351662E4 EQ PUSH2 0x20C JUMPI JUMPDEST PUSH1 0x0 DUP1 REVERT JUMPDEST PUSH2 0x1EE PUSH1 0x4 DUP1 CALLDATASIZE SUB DUP2 ADD SWAP1 PUSH2 0x1E9 SWAP2 SWAP1 PUSH2 0x35FD JUMP JUMPDEST PUSH2 0x5C2 JUMP JUMPDEST STOP JUMPDEST PUSH2 0x20A PUSH1 0x4 DUP1 CALLDATASIZE SUB DUP2 ADD SWAP1 PUSH2 0x205 SWAP2 SWAP1 PUSH2 0x3664 JUMP JUMPDEST PUSH2 0x8C5 JUMP JUMPDEST STOP JUMPDEST PUSH2 0x226 PUSH1 0x4 DUP1 CALLDATASIZE SUB DUP2 ADD SWAP1 PUSH2 0x221 SWAP2 SWAP1 PUSH2 0x36DF JUMP JUMPDEST PUSH2 0xDB5 JUMP JUMPDEST STOP JUMPDEST PUSH2 0x242 PUSH1 0x4 DUP1 CALLDATASIZE SUB DUP2 ADD SWAP1 PUSH2 0x23D SWAP2 SWAP1 PUSH2 0x376A JUMP JUMPDEST PUSH2 0x13C0 JUMP JUMPDEST STOP JUMPDEST PUSH2 0x25E PUSH1 0x4 DUP1 CALLDATASIZE SUB DUP2 ADD SWAP1 PUSH2 0x259 SWAP2 SWAP1 PUSH2 0x35FD JUMP JUMPDEST PUSH2 0x1748 JUMP JUMPDEST STOP JUMPDEST PUSH2 0x268 PUSH2 0x1A4B JUMP JUMPDEST PUSH1 0x40 MLOAD PUSH2 0x275 SWAP2 SWAP1 PUSH2 0x3864 JUMP JUMPDEST PUSH1 0x40 MLOAD DUP1 SWAP2 SUB SWAP1 RETURN JUMPDEST PUSH2 0x286 PUSH2 0x1A6F JUMP JUMPDEST PUSH1 0x40 MLOAD PUSH2 0x296 SWAP5 SWAP4 SWAP3 SWAP2 SWAP1 PUSH2 0x388E JUMP JUMPDEST PUSH1 0x40 MLOAD DUP1 SWAP2 SUB SWAP1 RETURN JUMPDEST PUSH2 0x2A7 PUSH2 0x1A8D JUMP JUMPDEST PUSH1 0x40 MLOAD PUSH2 0x2B7 SWAP5 SWAP4 SWAP3 SWAP2 SWAP1 PUSH2 0x388E JUMP JUMPDEST PUSH1 0x40 MLOAD DUP1 SWAP2 SUB SWAP1 RETURN JUMPDEST PUSH2 0x2C8 PUSH2 0x1AAB JUMP JUMPDEST PUSH1 0x40 MLOAD PUSH2 0x2D8 SWAP5 SWAP4 SWAP3 SWAP2 SWAP1 PUSH2 0x388E JUMP JUMPDEST PUSH1 0x40 MLOAD DUP1 SWAP2 SUB SWAP1 RETURN JUMPDEST PUSH2 0x2E9 PUSH2 0x1AC9 JUMP JUMPDEST PUSH1 0x40 MLOAD PUSH2 0x2F9 SWAP5 SWAP4 SWAP3 SWAP2 SWAP1 PUSH2 0x388E JUMP JUMPDEST PUSH1 0x40 MLOAD DUP1 SWAP2 SUB SWAP1 RETURN JUMPDEST PUSH2 0x30A PUSH2 0x1AE7 JUMP JUMPDEST PUSH1 0x40 MLOAD PUSH2 0x317 SWAP2 SWAP1 PUSH2 0x38F4 JUMP JUMPDEST PUSH1 0x40 MLOAD DUP1 SWAP2 SUB SWAP1 RETURN JUMPDEST PUSH2 0x33A PUSH1 0x4 DUP1 CALLDATASIZE SUB DUP2 ADD SWAP1 PUSH2 0x335 SWAP2 SWAP1 PUSH2 0x390F JUMP JUMPDEST PUSH2 0x1B0D JUMP JUMPDEST PUSH1 0x40 MLOAD PUSH2 0x34E SWAP9 SWAP8 SWAP7 SWAP6 SWAP5 SWAP4 SWAP3 SWAP2 SWAP1 PUSH2 0x3A89 JUMP JUMPDEST PUSH1 0x40 MLOAD DUP1 SWAP2 SUB SWAP1 RETURN JUMPDEST PUSH2 0x371 PUSH1 0x4 DUP1 CALLDATASIZE SUB DUP2 ADD SWAP1 PUSH2 0x36C SWAP2 SWAP1 PUSH2 0x3B0A JUMP JUMPDEST PUSH2 0x1C3A JUMP JUMPDEST PUSH1 0x40 MLOAD PUSH2 0x37E SWAP2 SWAP1 PUSH2 0x3B80 JUMP JUMPDEST PUSH1 0x40 MLOAD DUP1 SWAP2 SUB SWAP1 RETURN JUMPDEST PUSH2 0x38F PUSH2 0x1C83 JUMP JUMPDEST PUSH1 0x40 MLOAD PUSH2 0x39F SWAP5 SWAP4 SWAP3 SWAP2 SWAP1 PUSH2 0x388E JUMP JUMPDEST PUSH1 0x40 MLOAD DUP1 SWAP2 SUB SWAP1 RETURN JUMPDEST PUSH2 0x3B0 PUSH2 0x1CA1 JUMP JUMPDEST PUSH1 0x40 MLOAD PUSH2 0x3BD SWAP2 SWAP1 PUSH2 0x3B80 JUMP JUMPDEST PUSH1 0x40 MLOAD DUP1 SWAP2 SUB SWAP1 RETURN JUMPDEST PUSH2 0x3E0 PUSH1 0x4 DUP1 CALLDATASIZE SUB DUP2 ADD SWAP1 PUSH2 0x3DB SWAP2 SWAP1 PUSH2 0x3B9B JUMP JUMPDEST PUSH2 0x1CA6 JUMP JUMPDEST PUSH1 0x40 MLOAD PUSH2 0x3ED SWAP2 SWAP1 PUSH2 0x3B80 JUMP JUMPDEST PUSH1 0x40 MLOAD DUP1 SWAP2 SUB SWAP1 RETURN JUMPDEST PUSH2 0x410 PUSH1 0x4 DUP1 CALLDATASIZE SUB DUP2 ADD SWAP1 PUSH2 0x40B SWAP2 SWAP1 PUSH2 0x390F JUMP JUMPDEST PUSH2 0x1CE2 JUMP JUMPDEST PUSH1 0x40 MLOAD PUSH2 0x41D SWAP2 SWAP1 PUSH2 0x3D1F JUMP JUMPDEST PUSH1 0x40 MLOAD DUP1 SWAP2 SUB SWAP1 RETURN JUMPDEST PUSH2 0x42E PUSH2 0x1E1D JUMP JUMPDEST PUSH1 0x40 MLOAD PUSH2 0x43B SWAP2 SWAP1 PUSH2 0x3D3B JUMP JUMPDEST PUSH1 0x40 MLOAD DUP1 SWAP2 SUB SWAP1 RETURN JUMPDEST PUSH2 0x45E PUSH1 0x4 DUP1 CALLDATASIZE SUB DUP2 ADD SWAP1 PUSH2 0x459 SWAP2 SWAP1 PUSH2 0x390F JUMP JUMPDEST PUSH2 0x1E23 JUMP JUMPDEST PUSH1 0x40 MLOAD PUSH2 0x46B SWAP2 SWAP1 PUSH2 0x3E8F JUMP JUMPDEST PUSH1 0x40 MLOAD DUP1 SWAP2 SUB SWAP1 RETURN JUMPDEST PUSH2 0x48E PUSH1 0x4 DUP1 CALLDATASIZE SUB DUP2 ADD SWAP1 PUSH2 0x489 SWAP2 SWAP1 PUSH2 0x3EAB JUMP JUMPDEST PUSH2 0x2043 JUMP JUMPDEST PUSH1 0x40 MLOAD PUSH2 0x49E SWAP5 SWAP4 SWAP3 SWAP2 SWAP1 PUSH2 0x388E JUMP JUMPDEST PUSH1 0x40 MLOAD DUP1 SWAP2 SUB SWAP1 RETURN JUMPDEST PUSH2 0x4AF PUSH2 0x2073 JUMP JUMPDEST PUSH1 0x40 MLOAD PUSH2 0x4BC SWAP2 SWAP1 PUSH2 0x3ED8 JUMP JUMPDEST PUSH1 0x40 MLOAD DUP1 SWAP2 SUB SWAP1 RETURN JUMPDEST PUSH2 0x4CD PUSH2 0x2079 JUMP JUMPDEST PUSH1 0x40 MLOAD PUSH2 0x4DA SWAP2 SWAP1 PUSH2 0x38F4 JUMP JUMPDEST PUSH1 0x40 MLOAD DUP1 SWAP2 SUB SWAP1 RETURN JUMPDEST PUSH2 0x4FD PUSH1 0x4 DUP1 CALLDATASIZE SUB DUP2 ADD SWAP1 PUSH2 0x4F8 SWAP2 SWAP1 PUSH2 0x390F JUMP JUMPDEST PUSH2 0x209F JUMP JUMPDEST STOP JUMPDEST PUSH2 0x507 PUSH2 0x22B0 JUMP JUMPDEST PUSH1 0x40 MLOAD PUSH2 0x514 SWAP2 SWAP1 PUSH2 0x3B80 JUMP JUMPDEST PUSH1 0x40 MLOAD DUP1 SWAP2 SUB SWAP1 RETURN JUMPDEST PUSH2 0x537 PUSH1 0x4 DUP1 CALLDATASIZE SUB DUP2 ADD SWAP1 PUSH2 0x532 SWAP2 SWAP1 PUSH2 0x3F1F JUMP JUMPDEST PUSH2 0x22B5 JUMP JUMPDEST STOP JUMPDEST PUSH2 0x553 PUSH1 0x4 DUP1 CALLDATASIZE SUB DUP2 ADD SWAP1 PUSH2 0x54E SWAP2 SWAP1 PUSH2 0x390F JUMP JUMPDEST PUSH2 0x2973 JUMP JUMPDEST PUSH1 0x40 MLOAD PUSH2 0x560 SWAP2 SWAP1 PUSH2 0x3D3B JUMP JUMPDEST PUSH1 0x40 MLOAD DUP1 SWAP2 SUB SWAP1 RETURN JUMPDEST PUSH2 0x583 PUSH1 0x4 DUP1 CALLDATASIZE SUB DUP2 ADD SWAP1 PUSH2 0x57E SWAP2 SWAP1 PUSH2 0x35FD JUMP JUMPDEST PUSH2 0x2BD4 JUMP JUMPDEST STOP JUMPDEST PUSH2 0x58D PUSH2 0x3033 JUMP JUMPDEST PUSH1 0x40 MLOAD PUSH2 0x59D SWAP5 SWAP4 SWAP3 SWAP2 SWAP1 PUSH2 0x388E JUMP JUMPDEST PUSH1 0x40 MLOAD DUP1 SWAP2 SUB SWAP1 RETURN JUMPDEST PUSH2 0x5C0 PUSH1 0x4 DUP1 CALLDATASIZE SUB DUP2 ADD SWAP1 PUSH2 0x5BB SWAP2 SWAP1 PUSH2 0x3F9E JUMP JUMPDEST PUSH2 0x3051 JUMP JUMPDEST STOP JUMPDEST DUP4 DUP4 CALLER PUSH20 0xFFFFFFFFFFFFFFFFFFFFFFFFFFFFFFFFFFFFFFFF AND PUSH1 0x0 DUP1 SLOAD SWAP1 PUSH2 0x100 EXP SWAP1 DIV PUSH20 0xFFFFFFFFFFFFFFFFFFFFFFFFFFFFFFFFFFFFFFFF AND PUSH20 0xFFFFFFFFFFFFFFFFFFFFFFFFFFFFFFFFFFFFFFFF AND PUSH4 0x8A888953 DUP5 DUP5 PUSH1 0x40 MLOAD DUP4 PUSH4 0xFFFFFFFF AND PUSH1 0xE0 SHL DUP2 MSTORE PUSH1 0x4 ADD PUSH2 0x636 SWAP3 SWAP2 SWAP1 PUSH2 0x3FCB JUMP JUMPDEST PUSH1 0x20 PUSH1 0x40 MLOAD DUP1 DUP4 SUB DUP2 DUP7 GAS STATICCALL ISZERO DUP1 ISZERO PUSH2 0x653 JUMPI RETURNDATASIZE PUSH1 0x0 DUP1 RETURNDATACOPY RETURNDATASIZE PUSH1 0x0 REVERT JUMPDEST POP POP POP POP PUSH1 0x40 MLOAD RETURNDATASIZE PUSH1 0x1F NOT PUSH1 0x1F DUP3 ADD AND DUP3 ADD DUP1 PUSH1 0x40 MSTORE POP DUP2 ADD SWAP1 PUSH2 0x677 SWAP2 SWAP1 PUSH2 0x4009 JUMP JUMPDEST PUSH20 0xFFFFFFFFFFFFFFFFFFFFFFFFFFFFFFFFFFFFFFFF AND EQ PUSH2 0x6CD JUMPI PUSH1 0x40 MLOAD PUSH32 0x8C379A000000000000000000000000000000000000000000000000000000000 DUP2 MSTORE PUSH1 0x4 ADD PUSH2 0x6C4 SWAP1 PUSH2 0x4093 JUMP JUMPDEST PUSH1 0x40 MLOAD DUP1 SWAP2 SUB SWAP1 REVERT JUMPDEST PUSH1 0x0 DUP4 GT PUSH2 0x710 JUMPI PUSH1 0x40 MLOAD PUSH32 0x8C379A000000000000000000000000000000000000000000000000000000000 DUP2 MSTORE PUSH1 0x4 ADD PUSH2 0x707 SWAP1 PUSH2 0x4125 JUMP JUMPDEST PUSH1 0x40 MLOAD DUP1 SWAP2 SUB SWAP1 REVERT JUMPDEST PUSH1 0x1 DUP5 PUSH1 0xFF AND EQ DUP1 PUSH2 0x725 JUMPI POP PUSH1 0x2 DUP5 PUSH1 0xFF AND EQ JUMPDEST PUSH2 0x764 JUMPI PUSH1 0x40 MLOAD PUSH32 0x8C379A000000000000000000000000000000000000000000000000000000000 DUP2 MSTORE PUSH1 0x4 ADD PUSH2 0x75B SWAP1 PUSH2 0x4191 JUMP JUMPDEST PUSH1 0x40 MLOAD DUP1 SWAP2 SUB SWAP1 REVERT JUMPDEST PUSH1 0x0 PUSH2 0x772 DUP8 DUP8 PUSH1 0x1 PUSH2 0x3125 JUMP JUMPDEST SWAP1 POP PUSH1 0x0 DUP2 GT PUSH2 0x7B7 JUMPI PUSH1 0x40 MLOAD PUSH32 0x8C379A000000000000000000000000000000000000000000000000000000000 DUP2 MSTORE PUSH1 0x4 ADD PUSH2 0x7AE SWAP1 PUSH2 0x41FD JUMP JUMPDEST PUSH1 0x40 MLOAD DUP1 SWAP2 SUB SWAP1 REVERT JUMPDEST PUSH1 0x0 PUSH1 0x1 DUP7 PUSH1 0xFF AND EQ PUSH2 0x7CB JUMPI PUSH1 0x7 PUSH2 0x7CE JUMP JUMPDEST PUSH1 0x3 JUMPDEST PUSH1 0x40 MLOAD DUP1 PUSH1 0x80 ADD PUSH1 0x40 MSTORE SWAP1 DUP2 PUSH1 0x0 DUP3 ADD SLOAD DUP2 MSTORE PUSH1 0x20 ADD PUSH1 0x1 DUP3 ADD SLOAD DUP2 MSTORE PUSH1 0x20 ADD PUSH1 0x2 DUP3 ADD SLOAD DUP2 MSTORE PUSH1 0x20 ADD PUSH1 0x3 DUP3 ADD SLOAD DUP2 MSTORE POP POP SWAP1 POP PUSH2 0x810 DUP9 DUP9 DUP4 DUP9 DUP7 PUSH2 0x320A JUMP JUMPDEST PUSH1 0x1 DUP7 PUSH1 0xFF AND SUB PUSH2 0x86D JUMPI DUP5 PUSH1 0x1B PUSH1 0x0 DUP11 PUSH1 0xFF AND PUSH1 0xFF AND DUP2 MSTORE PUSH1 0x20 ADD SWAP1 DUP2 MSTORE PUSH1 0x20 ADD PUSH1 0x0 KECCAK256 PUSH1 0x0 DUP10 PUSH1 0xFF AND PUSH1 0xFF AND DUP2 MSTORE PUSH1 0x20 ADD SWAP1 DUP2 MSTORE PUSH1 0x20 ADD PUSH1 0x0 KECCAK256 PUSH1 0x8 ADD PUSH1 0x0 ADD PUSH1 0x0 DUP3 DUP3 SLOAD PUSH2 0x861 SWAP2 SWAP1 PUSH2 0x424C JUMP JUMPDEST SWAP3 POP POP DUP2 SWAP1 SSTORE POP PUSH2 0x8BB JUMP JUMPDEST DUP5 PUSH1 0x1B PUSH1 0x0 DUP11 PUSH1 0xFF AND PUSH1 0xFF AND DUP2 MSTORE PUSH1 0x20 ADD SWAP1 DUP2 MSTORE PUSH1 0x20 ADD PUSH1 0x0 KECCAK256 PUSH1 0x0 DUP10 PUSH1 0xFF AND PUSH1 0xFF AND DUP2 MSTORE PUSH1 0x20 ADD SWAP1 DUP2 MSTORE PUSH1 0x20 ADD PUSH1 0x0 KECCAK256 PUSH1 0x8 ADD PUSH1 0x1 ADD PUSH1 0x0 DUP3 DUP3 SLOAD PUSH2 0x8B3 SWAP2 SWAP1 PUSH2 0x424C JUMP JUMPDEST SWAP3 POP POP DUP2 SWAP1 SSTORE POP JUMPDEST POP POP POP POP POP POP POP POP JUMP JUMPDEST DUP5 DUP5 CALLER PUSH20 0xFFFFFFFFFFFFFFFFFFFFFFFFFFFFFFFFFFFFFFFF AND PUSH1 0x0 DUP1 SLOAD SWAP1 PUSH2 0x100 EXP SWAP1 DIV PUSH20 0xFFFFFFFFFFFFFFFFFFFFFFFFFFFFFFFFFFFFFFFF AND PUSH20 0xFFFFFFFFFFFFFFFFFFFFFFFFFFFFFFFFFFFFFFFF AND PUSH4 0x8A888953 DUP5 DUP5 PUSH1 0x40 MLOAD DUP4 PUSH4 0xFFFFFFFF AND PUSH1 0xE0 SHL DUP2 MSTORE PUSH1 0x4 ADD PUSH2 0x939 SWAP3 SWAP2 SWAP1 PUSH2 0x3FCB JUMP JUMPDEST PUSH1 0x20 PUSH1 0x40 MLOAD DUP1 DUP4 SUB DUP2 DUP7 GAS STATICCALL ISZERO DUP1 ISZERO PUSH2 0x956 JUMPI RETURNDATASIZE PUSH1 0x0 DUP1 RETURNDATACOPY RETURNDATASIZE PUSH1 0x0 REVERT JUMPDEST POP POP POP POP PUSH1 0x40 MLOAD RETURNDATASIZE PUSH1 0x1F NOT PUSH1 0x1F DUP3 ADD AND DUP3 ADD DUP1 PUSH1 0x40 MSTORE POP DUP2 ADD SWAP1 PUSH2 0x97A SWAP2 SWAP1 PUSH2 0x4009 JUMP JUMPDEST PUSH20 0xFFFFFFFFFFFFFFFFFFFFFFFFFFFFFFFFFFFFFFFF AND EQ PUSH2 0x9D0 JUMPI PUSH1 0x40 MLOAD PUSH32 0x8C379A000000000000000000000000000000000000000000000000000000000 DUP2 MSTORE PUSH1 0x4 ADD PUSH2 0x9C7 SWAP1 PUSH2 0x4093 JUMP JUMPDEST PUSH1 0x40 MLOAD DUP1 SWAP2 SUB SWAP1 REVERT JUMPDEST DUP5 DUP5 PUSH1 0x9 PUSH1 0xFF AND DUP3 PUSH1 0xFF AND LT DUP1 ISZERO PUSH2 0x9EE JUMPI POP PUSH1 0x9 PUSH1 0xFF AND DUP2 PUSH1 0xFF AND LT JUMPDEST PUSH2 0xA2D JUMPI PUSH1 0x40 MLOAD PUSH32 0x8C379A000000000000000000000000000000000000000000000000000000000 DUP2 MSTORE PUSH1 0x4 ADD PUSH2 0xA24 SWAP1 PUSH2 0x42F2 JUMP JUMPDEST PUSH1 0x40 MLOAD DUP1 SWAP2 SUB SWAP1 REVERT JUMPDEST PUSH1 0x0 PUSH1 0x1C PUSH1 0x0 DUP12 PUSH1 0xFF AND PUSH1 0xFF AND DUP2 MSTORE PUSH1 0x20 ADD SWAP1 DUP2 MSTORE PUSH1 0x20 ADD PUSH1 0x0 KECCAK256 PUSH1 0x0 DUP11 PUSH1 0xFF AND PUSH1 0xFF AND DUP2 MSTORE PUSH1 0x20 ADD SWAP1 DUP2 MSTORE PUSH1 0x20 ADD PUSH1 0x0 KECCAK256 PUSH1 0x0 DUP10 PUSH1 0xFF AND PUSH1 0xFF AND DUP2 MSTORE PUSH1 0x20 ADD SWAP1 DUP2 MSTORE PUSH1 0x20 ADD PUSH1 0x0 KECCAK256 PUSH1 0x0 DUP9 PUSH1 0xFF AND PUSH1 0xFF AND DUP2 MSTORE PUSH1 0x20 ADD SWAP1 DUP2 MSTORE PUSH1 0x20 ADD PUSH1 0x0 KECCAK256 PUSH1 0x0 SWAP1 SLOAD SWAP1 PUSH2 0x100 EXP SWAP1 DIV PUSH1 0xFF AND SWAP1 POP PUSH1 0x0 DUP2 PUSH1 0xFF AND EQ PUSH2 0xAE3 JUMPI PUSH1 0x40 MLOAD PUSH32 0x8C379A000000000000000000000000000000000000000000000000000000000 DUP2 MSTORE PUSH1 0x4 ADD PUSH2 0xADA SWAP1 PUSH2 0x4384 JUMP JUMPDEST PUSH1 0x40 MLOAD DUP1 SWAP2 SUB SWAP1 REVERT JUMPDEST PUSH1 0x0 PUSH1 0x1D PUSH1 0x0 DUP9 PUSH1 0xFF AND PUSH1 0xFF AND DUP2 MSTORE PUSH1 0x20 ADD SWAP1 DUP2 MSTORE PUSH1 0x20 ADD PUSH1 0x0 KECCAK256 PUSH1 0x40 MLOAD DUP1 PUSH1 0x80 ADD PUSH1 0x40 MSTORE SWAP1 DUP2 PUSH1 0x0 DUP3 ADD SLOAD DUP2 MSTORE PUSH1 0x20 ADD PUSH1 0x1 DUP3 ADD SLOAD DUP2 MSTORE PUSH1 0x20 ADD PUSH1 0x2 DUP3 ADD SLOAD DUP2 MSTORE PUSH1 0x20 ADD PUSH1 0x3 DUP3 ADD SLOAD DUP2 MSTORE POP POP SWAP1 POP PUSH1 0x0 PUSH1 0x1B PUSH1 0x0 DUP14 PUSH1 0xFF AND PUSH1 0xFF AND DUP2 MSTORE PUSH1 0x20 ADD SWAP1 DUP2 MSTORE PUSH1 0x20 ADD PUSH1 0x0 KECCAK256 PUSH1 0x0 DUP13 PUSH1 0xFF AND PUSH1 0xFF AND DUP2 MSTORE PUSH1 0x20 ADD SWAP1 DUP2 MSTORE PUSH1 0x20 ADD PUSH1 0x0 KECCAK256 SWAP1 POP DUP2 PUSH1 0x0 ADD MLOAD DUP2 PUSH1 0x0 ADD PUSH1 0x0 ADD SLOAD LT ISZERO PUSH2 0xBB5 JUMPI PUSH1 0x40 MLOAD PUSH32 0x8C379A000000000000000000000000000000000000000000000000000000000 DUP2 MSTORE PUSH1 0x4 ADD PUSH2 0xBAC SWAP1 PUSH2 0x43F0 JUMP JUMPDEST PUSH1 0x40 MLOAD DUP1 SWAP2 SUB SWAP1 REVERT JUMPDEST DUP2 PUSH1 0x20 ADD MLOAD DUP2 PUSH1 0x0 ADD PUSH1 0x1 ADD SLOAD LT ISZERO PUSH2 0xC03 JUMPI PUSH1 0x40 MLOAD PUSH32 0x8C379A000000000000000000000000000000000000000000000000000000000 DUP2 MSTORE PUSH1 0x4 ADD PUSH2 0xBFA SWAP1 PUSH2 0x445C JUMP JUMPDEST PUSH1 0x40 MLOAD DUP1 SWAP2 SUB SWAP1 REVERT JUMPDEST DUP2 PUSH1 0x40 ADD MLOAD DUP2 PUSH1 0x0 ADD PUSH1 0x2 ADD SLOAD LT ISZERO PUSH2 0xC51 JUMPI PUSH1 0x40 MLOAD PUSH32 0x8C379A000000000000000000000000000000000000000000000000000000000 DUP2 MSTORE PUSH1 0x4 ADD PUSH2 0xC48 SWAP1 PUSH2 0x44C8 JUMP JUMPDEST PUSH1 0x40 MLOAD DUP1 SWAP2 SUB SWAP1 REVERT JUMPDEST DUP2 PUSH1 0x60 ADD MLOAD DUP2 PUSH1 0x0 ADD PUSH1 0x3 ADD SLOAD LT ISZERO PUSH2 0xC9F JUMPI PUSH1 0x40 MLOAD PUSH32 0x8C379A000000000000000000000000000000000000000000000000000000000 DUP2 MSTORE PUSH1 0x4 ADD PUSH2 0xC96 SWAP1 PUSH2 0x4534 JUMP JUMPDEST PUSH1 0x40 MLOAD DUP1 SWAP2 SUB SWAP1 REVERT JUMPDEST DUP2 PUSH1 0x0 ADD MLOAD DUP2 PUSH1 0x0 ADD PUSH1 0x0 ADD PUSH1 0x0 DUP3 DUP3 SLOAD PUSH2 0xCBA SWAP2 SWAP1 PUSH2 0x4554 JUMP JUMPDEST SWAP3 POP POP DUP2 SWAP1 SSTORE POP DUP2 PUSH1 0x20 ADD MLOAD DUP2 PUSH1 0x0 ADD PUSH1 0x1 ADD PUSH1 0x0 DUP3 DUP3 SLOAD PUSH2 0xCDC SWAP2 SWAP1 PUSH2 0x4554 JUMP JUMPDEST SWAP3 POP POP DUP2 SWAP1 SSTORE POP DUP2 PUSH1 0x40 ADD MLOAD DUP2 PUSH1 0x0 ADD PUSH1 0x2 ADD PUSH1 0x0 DUP3 DUP3 SLOAD PUSH2 0xCFE SWAP2 SWAP1 PUSH2 0x4554 JUMP JUMPDEST SWAP3 POP POP DUP2 SWAP1 SSTORE POP DUP2 PUSH1 0x60 ADD MLOAD DUP2 PUSH1 0x0 ADD PUSH1 0x3 ADD PUSH1 0x0 DUP3 DUP3 SLOAD PUSH2 0xD20 SWAP2 SWAP1 PUSH2 0x4554 JUMP JUMPDEST SWAP3 POP POP DUP2 SWAP1 SSTORE POP DUP8 PUSH1 0x1C PUSH1 0x0 DUP15 PUSH1 0xFF AND PUSH1 0xFF AND DUP2 MSTORE PUSH1 0x20 ADD SWAP1 DUP2 MSTORE PUSH1 0x20 ADD PUSH1 0x0 KECCAK256 PUSH1 0x0 DUP14 PUSH1 0xFF AND PUSH1 0xFF AND DUP2 MSTORE PUSH1 0x20 ADD SWAP1 DUP2 MSTORE PUSH1 0x20 ADD PUSH1 0x0 KECCAK256 PUSH1 0x0 DUP13 PUSH1 0xFF AND PUSH1 0xFF AND DUP2 MSTORE PUSH1 0x20 ADD SWAP1 DUP2 MSTORE PUSH1 0x20 ADD PUSH1 0x0 KECCAK256 PUSH1 0x0 DUP12 PUSH1 0xFF AND PUSH1 0xFF AND DUP2 MSTORE PUSH1 0x20 ADD SWAP1 DUP2 MSTORE PUSH1 0x20 ADD PUSH1 0x0 KECCAK256 PUSH1 0x0 PUSH2 0x100 EXP DUP2 SLOAD DUP2 PUSH1 0xFF MUL NOT AND SWAP1 DUP4 PUSH1 0xFF AND MUL OR SWAP1 SSTORE POP PUSH2 0xDA7 DUP2 PUSH2 0x346F JUMP JUMPDEST POP POP POP POP POP POP POP POP POP POP POP POP JUMP JUMPDEST DUP3 DUP3 CALLER PUSH20 0xFFFFFFFFFFFFFFFFFFFFFFFFFFFFFFFFFFFFFFFF AND PUSH1 0x0 DUP1 SLOAD SWAP1 PUSH2 0x100 EXP SWAP1 DIV PUSH20 0xFFFFFFFFFFFFFFFFFFFFFFFFFFFFFFFFFFFFFFFF AND PUSH20 0xFFFFFFFFFFFFFFFFFFFFFFFFFFFFFFFFFFFFFFFF AND PUSH4 0x8A888953 DUP5 DUP5 PUSH1 0x40 MLOAD DUP4 PUSH4 0xFFFFFFFF AND PUSH1 0xE0 SHL DUP2 MSTORE PUSH1 0x4 ADD PUSH2 0xE29 SWAP3 SWAP2 SWAP1 PUSH2 0x3FCB JUMP JUMPDEST PUSH1 0x20 PUSH1 0x40 MLOAD DUP1 DUP4 SUB DUP2 DUP7 GAS STATICCALL ISZERO DUP1 ISZERO PUSH2 0xE46 JUMPI RETURNDATASIZE PUSH1 0x0 DUP1 RETURNDATACOPY RETURNDATASIZE PUSH1 0x0 REVERT JUMPDEST POP POP POP POP PUSH1 0x40 MLOAD RETURNDATASIZE PUSH1 0x1F NOT PUSH1 0x1F DUP3 ADD AND DUP3 ADD DUP1 PUSH1 0x40 MSTORE POP DUP2 ADD SWAP1 PUSH2 0xE6A SWAP2 SWAP1 PUSH2 0x4009 JUMP JUMPDEST PUSH20 0xFFFFFFFFFFFFFFFFFFFFFFFFFFFFFFFFFFFFFFFF AND EQ PUSH2 0xEC0 JUMPI PUSH1 0x40 MLOAD PUSH32 0x8C379A000000000000000000000000000000000000000000000000000000000 DUP2 MSTORE PUSH1 0x4 ADD PUSH2 0xEB7 SWAP1 PUSH2 0x4093 JUMP JUMPDEST PUSH1 0x40 MLOAD DUP1 SWAP2 SUB SWAP1 REVERT JUMPDEST PUSH1 0x0 PUSH1 0x1B PUSH1 0x0 DUP8 PUSH1 0xFF AND PUSH1 0xFF AND DUP2 MSTORE PUSH1 0x20 ADD SWAP1 DUP2 MSTORE PUSH1 0x20 ADD PUSH1 0x0 KECCAK256 PUSH1 0x0 DUP7 PUSH1 0xFF AND PUSH1 0xFF AND DUP2 MSTORE PUSH1 0x20 ADD SWAP1 DUP2 MSTORE PUSH1 0x20 ADD PUSH1 0x0 KECCAK256 SWAP1 POP PUSH1 0x0 PUSH1 0x60 PUSH1 0x1 DUP7 PUSH1 0xFF AND SUB PUSH2 0xF57 JUMPI DUP3 PUSH1 0xE ADD PUSH1 0x0 ADD PUSH1 0x0 SWAP1 SLOAD SWAP1 PUSH2 0x100 EXP SWAP1 DIV PUSH1 0xFF AND SWAP2 POP PUSH1 0x40 MLOAD DUP1 PUSH1 0x40 ADD PUSH1 0x40 MSTORE DUP1 PUSH1 0xD DUP2 MSTORE PUSH1 0x20 ADD PUSH32 0x6F6666656E736976655465636800000000000000000000000000000000000000 DUP2 MSTORE POP SWAP1 POP PUSH2 0xFF2 JUMP JUMPDEST PUSH1 0x2 DUP7 PUSH1 0xFF AND SUB PUSH2 0xFB6 JUMPI DUP3 PUSH1 0xE ADD PUSH1 0x0 ADD PUSH1 0x1 SWAP1 SLOAD SWAP1 PUSH2 0x100 EXP SWAP1 DIV PUSH1 0xFF AND SWAP2 POP PUSH1 0x40 MLOAD DUP1 PUSH1 0x40 ADD PUSH1 0x40 MSTORE DUP1 PUSH1 0xD DUP2 MSTORE PUSH1 0x20 ADD PUSH32 0x646566656E736976655465636800000000000000000000000000000000000000 DUP2 MSTORE POP SWAP1 POP PUSH2 0xFF1 JUMP JUMPDEST PUSH1 0x40 MLOAD PUSH32 0x8C379A000000000000000000000000000000000000000000000000000000000 DUP2 MSTORE PUSH1 0x4 ADD PUSH2 0xFE8 SWAP1 PUSH2 0x45D4 JUMP JUMPDEST PUSH1 0x40 MLOAD DUP1 SWAP2 SUB SWAP1 REVERT JUMPDEST JUMPDEST PUSH2 0x2710 DUP3 PUSH1 0xFF AND LT PUSH2 0x1039 JUMPI PUSH1 0x40 MLOAD PUSH32 0x8C379A000000000000000000000000000000000000000000000000000000000 DUP2 MSTORE PUSH1 0x4 ADD PUSH2 0x1030 SWAP1 PUSH2 0x4640 JUMP JUMPDEST PUSH1 0x40 MLOAD DUP1 SWAP2 SUB SWAP1 REVERT JUMPDEST PUSH1 0x0 PUSH2 0x1047 DUP10 DUP10 PUSH1 0x8 PUSH2 0x3125 JUMP JUMPDEST SWAP1 POP PUSH1 0x0 DUP2 GT PUSH2 0x108C JUMPI PUSH1 0x40 MLOAD PUSH32 0x8C379A000000000000000000000000000000000000000000000000000000000 DUP2 MSTORE PUSH1 0x4 ADD PUSH2 0x1083 SWAP1 PUSH2 0x46AC JUMP JUMPDEST PUSH1 0x40 MLOAD DUP1 SWAP2 SUB SWAP1 REVERT JUMPDEST PUSH1 0x0 PUSH1 0x1 DUP5 PUSH2 0x109B SWAP2 SWAP1 PUSH2 0x46CC JUMP JUMPDEST PUSH1 0xFF AND SWAP1 POP PUSH1 0x0 DUP3 DUP3 PUSH1 0x64 PUSH2 0x10B0 SWAP2 SWAP1 PUSH2 0x4701 JUMP JUMPDEST PUSH2 0x10BA SWAP2 SWAP1 PUSH2 0x4772 JUMP JUMPDEST SWAP1 POP PUSH1 0x0 DUP4 DUP4 PUSH1 0x50 PUSH2 0x10CC SWAP2 SWAP1 PUSH2 0x4701 JUMP JUMPDEST PUSH2 0x10D6 SWAP2 SWAP1 PUSH2 0x4772 JUMP JUMPDEST SWAP1 POP PUSH1 0x0 DUP5 DUP5 PUSH1 0x3C PUSH2 0x10E8 SWAP2 SWAP1 PUSH2 0x4701 JUMP JUMPDEST PUSH2 0x10F2 SWAP2 SWAP1 PUSH2 0x4772 JUMP JUMPDEST SWAP1 POP PUSH1 0x0 DUP6 DUP6 PUSH1 0x32 PUSH2 0x1104 SWAP2 SWAP1 PUSH2 0x4701 JUMP JUMPDEST PUSH2 0x110E SWAP2 SWAP1 PUSH2 0x4772 JUMP JUMPDEST SWAP1 POP DUP4 DUP10 PUSH1 0x0 ADD PUSH1 0x0 ADD SLOAD LT ISZERO PUSH2 0x115A JUMPI PUSH1 0x40 MLOAD PUSH32 0x8C379A000000000000000000000000000000000000000000000000000000000 DUP2 MSTORE PUSH1 0x4 ADD PUSH2 0x1151 SWAP1 PUSH2 0x43F0 JUMP JUMPDEST PUSH1 0x40 MLOAD DUP1 SWAP2 SUB SWAP1 REVERT JUMPDEST DUP3 DUP10 PUSH1 0x0 ADD PUSH1 0x1 ADD SLOAD LT ISZERO PUSH2 0x11A4 JUMPI PUSH1 0x40 MLOAD PUSH32 0x8C379A000000000000000000000000000000000000000000000000000000000 DUP2 MSTORE PUSH1 0x4 ADD PUSH2 0x119B SWAP1 PUSH2 0x445C JUMP JUMPDEST PUSH1 0x40 MLOAD DUP1 SWAP2 SUB SWAP1 REVERT JUMPDEST DUP2 DUP10 PUSH1 0x0 ADD PUSH1 0x2 ADD SLOAD LT ISZERO PUSH2 0x11EE JUMPI PUSH1 0x40 MLOAD PUSH32 0x8C379A000000000000000000000000000000000000000000000000000000000 DUP2 MSTORE PUSH1 0x4 ADD PUSH2 0x11E5 SWAP1 PUSH2 0x44C8 JUMP JUMPDEST PUSH1 0x40 MLOAD DUP1 SWAP2 SUB SWAP1 REVERT JUMPDEST DUP1 DUP10 PUSH1 0x0 ADD PUSH1 0x3 ADD SLOAD LT ISZERO PUSH2 0x1238 JUMPI PUSH1 0x40 MLOAD PUSH32 0x8C379A000000000000000000000000000000000000000000000000000000000 DUP2 MSTORE PUSH1 0x4 ADD PUSH2 0x122F SWAP1 PUSH2 0x4534 JUMP JUMPDEST PUSH1 0x40 MLOAD DUP1 SWAP2 SUB SWAP1 REVERT JUMPDEST DUP4 DUP10 PUSH1 0x0 ADD PUSH1 0x0 ADD PUSH1 0x0 DUP3 DUP3 SLOAD PUSH2 0x124F SWAP2 SWAP1 PUSH2 0x4554 JUMP JUMPDEST SWAP3 POP POP DUP2 SWAP1 SSTORE POP DUP3 DUP10 PUSH1 0x0 ADD PUSH1 0x1 ADD PUSH1 0x0 DUP3 DUP3 SLOAD PUSH2 0x126D SWAP2 SWAP1 PUSH2 0x4554 JUMP JUMPDEST SWAP3 POP POP DUP2 SWAP1 SSTORE POP DUP2 DUP10 PUSH1 0x0 ADD PUSH1 0x2 ADD PUSH1 0x0 DUP3 DUP3 SLOAD PUSH2 0x128B SWAP2 SWAP1 PUSH2 0x4554 JUMP JUMPDEST SWAP3 POP POP DUP2 SWAP1 SSTORE POP DUP1 DUP10 PUSH1 0x0 ADD PUSH1 0x3 ADD PUSH1 0x0 DUP3 DUP3 SLOAD PUSH2 0x12A9 SWAP2 SWAP1 PUSH2 0x4554 JUMP JUMPDEST SWAP3 POP POP DUP2 SWAP1 SSTORE POP PUSH1 0x1 DUP13 PUSH1 0xFF AND SUB PUSH2 0x12FD JUMPI DUP9 PUSH1 0xE ADD PUSH1 0x0 ADD PUSH1 0x0 DUP2 DUP2 SWAP1 SLOAD SWAP1 PUSH2 0x100 EXP SWAP1 DIV PUSH1 0xFF AND DUP1 SWAP3 SWAP2 SWAP1 PUSH2 0x12DF SWAP1 PUSH2 0x47A3 JUMP JUMPDEST SWAP2 SWAP1 PUSH2 0x100 EXP DUP2 SLOAD DUP2 PUSH1 0xFF MUL NOT AND SWAP1 DUP4 PUSH1 0xFF AND MUL OR SWAP1 SSTORE POP POP PUSH2 0x1347 JUMP JUMPDEST PUSH1 0x2 DUP13 PUSH1 0xFF AND SUB PUSH2 0x1346 JUMPI DUP9 PUSH1 0xE ADD PUSH1 0x0 ADD PUSH1 0x1 DUP2 DUP2 SWAP1 SLOAD SWAP1 PUSH2 0x100 EXP SWAP1 DIV PUSH1 0xFF AND DUP1 SWAP3 SWAP2 SWAP1 PUSH2 0x132C SWAP1 PUSH2 0x47A3 JUMP JUMPDEST SWAP2 SWAP1 PUSH2 0x100 EXP DUP2 SLOAD DUP2 PUSH1 0xFF MUL NOT AND SWAP1 DUP4 PUSH1 0xFF AND MUL OR SWAP1 SSTORE POP POP JUMPDEST JUMPDEST PUSH2 0x1350 DUP10 PUSH2 0x346F JUMP JUMPDEST CALLER PUSH20 0xFFFFFFFFFFFFFFFFFFFFFFFFFFFFFFFFFFFFFFFF AND PUSH32 0x1B40E22B681742E8C019020323CBF2C320CE33C4D5D3ADC9BB39466BD06CCCD DUP16 DUP16 DUP11 PUSH1 0x1 DUP14 PUSH2 0x1398 SWAP2 SWAP1 PUSH2 0x46CC JUMP JUMPDEST PUSH1 0x40 MLOAD PUSH2 0x13A8 SWAP5 SWAP4 SWAP3 SWAP2 SWAP1 PUSH2 0x484B JUMP JUMPDEST PUSH1 0x40 MLOAD DUP1 SWAP2 SUB SWAP1 LOG2 POP POP POP POP POP POP POP POP POP POP POP POP POP POP JUMP JUMPDEST PUSH1 0x2 PUSH1 0x0 SWAP1 SLOAD SWAP1 PUSH2 0x100 EXP SWAP1 DIV PUSH20 0xFFFFFFFFFFFFFFFFFFFFFFFFFFFFFFFFFFFFFFFF AND PUSH20 0xFFFFFFFFFFFFFFFFFFFFFFFFFFFFFFFFFFFFFFFF AND CALLER PUSH20 0xFFFFFFFFFFFFFFFFFFFFFFFFFFFFFFFFFFFFFFFF AND EQ PUSH2 0x1450 JUMPI PUSH1 0x40 MLOAD PUSH32 0x8C379A000000000000000000000000000000000000000000000000000000000 DUP2 MSTORE PUSH1 0x4 ADD PUSH2 0x1447 SWAP1 PUSH2 0x48E3 JUMP JUMPDEST PUSH1 0x40 MLOAD DUP1 SWAP2 SUB SWAP1 REVERT JUMPDEST PUSH1 0x0 PUSH1 0x1B PUSH1 0x0 DUP8 PUSH1 0xFF AND PUSH1 0xFF AND DUP2 MSTORE PUSH1 0x20 ADD SWAP1 DUP2 MSTORE PUSH1 0x20 ADD PUSH1 0x0 KECCAK256 PUSH1 0x0 DUP7 PUSH1 0xFF AND PUSH1 0xFF AND DUP2 MSTORE PUSH1 0x20 ADD SWAP1 DUP2 MSTORE PUSH1 0x20 ADD PUSH1 0x0 KECCAK256 SWAP1 POP PUSH1 0x1 DUP5 PUSH1 0xFF AND SUB PUSH2 0x14DA JUMPI DUP2 PUSH2 0x14B6 JUMPI DUP3 DUP2 PUSH1 0x0 ADD PUSH1 0x0 ADD PUSH1 0x0 DUP3 DUP3 SLOAD PUSH2 0x14AB SWAP2 SWAP1 PUSH2 0x4554 JUMP JUMPDEST SWAP3 POP POP DUP2 SWAP1 SSTORE PUSH2 0x14D4 JUMP JUMPDEST DUP3 DUP2 PUSH1 0x0 ADD PUSH1 0x0 ADD PUSH1 0x0 DUP3 DUP3 SLOAD PUSH2 0x14CD SWAP2 SWAP1 PUSH2 0x424C JUMP JUMPDEST SWAP3 POP POP DUP2 SWAP1 SSTORE JUMPDEST POP PUSH2 0x1737 JUMP JUMPDEST PUSH1 0x2 DUP5 PUSH1 0xFF AND SUB PUSH2 0x1530 JUMPI DUP2 PUSH2 0x150C JUMPI DUP3 DUP2 PUSH1 0x0 ADD PUSH1 0x1 ADD PUSH1 0x0 DUP3 DUP3 SLOAD PUSH2 0x1501 SWAP2 SWAP1 PUSH2 0x4554 JUMP JUMPDEST SWAP3 POP POP DUP2 SWAP1 SSTORE PUSH2 0x152A JUMP JUMPDEST DUP3 DUP2 PUSH1 0x0 ADD PUSH1 0x1 ADD PUSH1 0x0 DUP3 DUP3 SLOAD PUSH2 0x1523 SWAP2 SWAP1 PUSH2 0x424C JUMP JUMPDEST SWAP3 POP POP DUP2 SWAP1 SSTORE JUMPDEST POP PUSH2 0x1736 JUMP JUMPDEST PUSH1 0x3 DUP5 PUSH1 0xFF AND SUB PUSH2 0x1586 JUMPI DUP2 PUSH2 0x1562 JUMPI DUP3 DUP2 PUSH1 0x0 ADD PUSH1 0x2 ADD PUSH1 0x0 DUP3 DUP3 SLOAD PUSH2 0x1557 SWAP2 SWAP1 PUSH2 0x4554 JUMP JUMPDEST SWAP3 POP POP DUP2 SWAP1 SSTORE PUSH2 0x1580 JUMP JUMPDEST DUP3 DUP2 PUSH1 0x0 ADD PUSH1 0x2 ADD PUSH1 0x0 DUP3 DUP3 SLOAD PUSH2 0x1579 SWAP2 SWAP1 PUSH2 0x424C JUMP JUMPDEST SWAP3 POP POP DUP2 SWAP1 SSTORE JUMPDEST POP PUSH2 0x1735 JUMP JUMPDEST PUSH1 0x4 DUP5 PUSH1 0xFF AND SUB PUSH2 0x15DC JUMPI DUP2 PUSH2 0x15B8 JUMPI DUP3 DUP2 PUSH1 0x0 ADD PUSH1 0x3 ADD PUSH1 0x0 DUP3 DUP3 SLOAD PUSH2 0x15AD SWAP2 SWAP1 PUSH2 0x4554 JUMP JUMPDEST SWAP3 POP POP DUP2 SWAP1 SSTORE PUSH2 0x15D6 JUMP JUMPDEST DUP3 DUP2 PUSH1 0x0 ADD PUSH1 0x3 ADD PUSH1 0x0 DUP3 DUP3 SLOAD PUSH2 0x15CF SWAP2 SWAP1 PUSH2 0x424C JUMP JUMPDEST SWAP3 POP POP DUP2 SWAP1 SSTORE JUMPDEST POP PUSH2 0x1734 JUMP JUMPDEST PUSH1 0x5 DUP5 PUSH1 0xFF AND SUB PUSH2 0x1632 JUMPI DUP2 PUSH2 0x160E JUMPI DUP3 DUP2 PUSH1 0x8 ADD PUSH1 0x0 ADD PUSH1 0x0 DUP3 DUP3 SLOAD PUSH2 0x1603 SWAP2 SWAP1 PUSH2 0x4554 JUMP JUMPDEST SWAP3 POP POP DUP2 SWAP1 SSTORE PUSH2 0x162C JUMP JUMPDEST DUP3 DUP2 PUSH1 0x8 ADD PUSH1 0x0 ADD PUSH1 0x0 DUP3 DUP3 SLOAD PUSH2 0x1625 SWAP2 SWAP1 PUSH2 0x424C JUMP JUMPDEST SWAP3 POP POP DUP2 SWAP1 SSTORE JUMPDEST POP PUSH2 0x1733 JUMP JUMPDEST PUSH1 0x6 DUP5 PUSH1 0xFF AND SUB PUSH2 0x1688 JUMPI DUP2 PUSH2 0x1664 JUMPI DUP3 DUP2 PUSH1 0x8 ADD PUSH1 0x1 ADD PUSH1 0x0 DUP3 DUP3 SLOAD PUSH2 0x1659 SWAP2 SWAP1 PUSH2 0x4554 JUMP JUMPDEST SWAP3 POP POP DUP2 SWAP1 SSTORE PUSH2 0x1682 JUMP JUMPDEST DUP3 DUP2 PUSH1 0x8 ADD PUSH1 0x1 ADD PUSH1 0x0 DUP3 DUP3 SLOAD PUSH2 0x167B SWAP2 SWAP1 PUSH2 0x424C JUMP JUMPDEST SWAP3 POP POP DUP2 SWAP1 SSTORE JUMPDEST POP PUSH2 0x1732 JUMP JUMPDEST PUSH1 0x7 DUP5 PUSH1 0xFF AND SUB PUSH2 0x16DE JUMPI DUP2 PUSH2 0x16BA JUMPI DUP3 DUP2 PUSH1 0x8 ADD PUSH1 0x2 ADD PUSH1 0x0 DUP3 DUP3 SLOAD PUSH2 0x16AF SWAP2 SWAP1 PUSH2 0x4554 JUMP JUMPDEST SWAP3 POP POP DUP2 SWAP1 SSTORE PUSH2 0x16D8 JUMP JUMPDEST DUP3 DUP2 PUSH1 0x8 ADD PUSH1 0x2 ADD PUSH1 0x0 DUP3 DUP3 SLOAD PUSH2 0x16D1 SWAP2 SWAP1 PUSH2 0x424C JUMP JUMPDEST SWAP3 POP POP DUP2 SWAP1 SSTORE JUMPDEST POP PUSH2 0x1731 JUMP JUMPDEST PUSH1 0x8 DUP5 PUSH1 0xFF AND SUB PUSH2 0x1730 JUMPI DUP2 PUSH2 0x1710 JUMPI DUP3 DUP2 PUSH1 0x8 ADD PUSH1 0x3 ADD PUSH1 0x0 DUP3 DUP3 SLOAD PUSH2 0x1705 SWAP2 SWAP1 PUSH2 0x4554 JUMP JUMPDEST SWAP3 POP POP DUP2 SWAP1 SSTORE PUSH2 0x172E JUMP JUMPDEST DUP3 DUP2 PUSH1 0x8 ADD PUSH1 0x3 ADD PUSH1 0x0 DUP3 DUP3 SLOAD PUSH2 0x1727 SWAP2 SWAP1 PUSH2 0x424C JUMP JUMPDEST SWAP3 POP POP DUP2 SWAP1 SSTORE JUMPDEST POP JUMPDEST JUMPDEST JUMPDEST JUMPDEST JUMPDEST JUMPDEST JUMPDEST JUMPDEST PUSH2 0x1740 DUP2 PUSH2 0x346F JUMP JUMPDEST POP POP POP POP POP POP JUMP JUMPDEST DUP4 DUP4 CALLER PUSH20 0xFFFFFFFFFFFFFFFFFFFFFFFFFFFFFFFFFFFFFFFF AND PUSH1 0x0 DUP1 SLOAD SWAP1 PUSH2 0x100 EXP SWAP1 DIV PUSH20 0xFFFFFFFFFFFFFFFFFFFFFFFFFFFFFFFFFFFFFFFF AND PUSH20 0xFFFFFFFFFFFFFFFFFFFFFFFFFFFFFFFFFFFFFFFF AND PUSH4 0x8A888953 DUP5 DUP5 PUSH1 0x40 MLOAD DUP4 PUSH4 0xFFFFFFFF AND PUSH1 0xE0 SHL DUP2 MSTORE PUSH1 0x4 ADD PUSH2 0x17BC SWAP3 SWAP2 SWAP1 PUSH2 0x3FCB JUMP JUMPDEST PUSH1 0x20 PUSH1 0x40 MLOAD DUP1 DUP4 SUB DUP2 DUP7 GAS STATICCALL ISZERO DUP1 ISZERO PUSH2 0x17D9 JUMPI RETURNDATASIZE PUSH1 0x0 DUP1 RETURNDATACOPY RETURNDATASIZE PUSH1 0x0 REVERT JUMPDEST POP POP POP POP PUSH1 0x40 MLOAD RETURNDATASIZE PUSH1 0x1F NOT PUSH1 0x1F DUP3 ADD AND DUP3 ADD DUP1 PUSH1 0x40 MSTORE POP DUP2 ADD SWAP1 PUSH2 0x17FD SWAP2 SWAP1 PUSH2 0x4009 JUMP JUMPDEST PUSH20 0xFFFFFFFFFFFFFFFFFFFFFFFFFFFFFFFFFFFFFFFF AND EQ PUSH2 0x1853 JUMPI PUSH1 0x40 MLOAD PUSH32 0x8C379A000000000000000000000000000000000000000000000000000000000 DUP2 MSTORE PUSH1 0x4 ADD PUSH2 0x184A SWAP1 PUSH2 0x4093 JUMP JUMPDEST PUSH1 0x40 MLOAD DUP1 SWAP2 SUB SWAP1 REVERT JUMPDEST PUSH1 0x0 DUP4 GT PUSH2 0x1896 JUMPI PUSH1 0x40 MLOAD PUSH32 0x8C379A000000000000000000000000000000000000000000000000000000000 DUP2 MSTORE PUSH1 0x4 ADD PUSH2 0x188D SWAP1 PUSH2 0x4125 JUMP JUMPDEST PUSH1 0x40 MLOAD DUP1 SWAP2 SUB SWAP1 REVERT JUMPDEST PUSH1 0x1 DUP5 PUSH1 0xFF AND EQ DUP1 PUSH2 0x18AB JUMPI POP PUSH1 0x2 DUP5 PUSH1 0xFF AND EQ JUMPDEST PUSH2 0x18EA JUMPI PUSH1 0x40 MLOAD PUSH32 0x8C379A000000000000000000000000000000000000000000000000000000000 DUP2 MSTORE PUSH1 0x4 ADD PUSH2 0x18E1 SWAP1 PUSH2 0x494F JUMP JUMPDEST PUSH1 0x40 MLOAD DUP1 SWAP2 SUB SWAP1 REVERT JUMPDEST PUSH1 0x0 PUSH2 0x18F8 DUP8 DUP8 PUSH1 0x2 PUSH2 0x3125 JUMP JUMPDEST SWAP1 POP PUSH1 0x0 DUP2 GT PUSH2 0x193D JUMPI PUSH1 0x40 MLOAD PUSH32 0x8C379A000000000000000000000000000000000000000000000000000000000 DUP2 MSTORE PUSH1 0x4 ADD PUSH2 0x1934 SWAP1 PUSH2 0x49BB JUMP JUMPDEST PUSH1 0x40 MLOAD DUP1 SWAP2 SUB SWAP1 REVERT JUMPDEST PUSH1 0x0 PUSH1 0x1 DUP7 PUSH1 0xFF AND EQ PUSH2 0x1951 JUMPI PUSH1 0xF PUSH2 0x1954 JUMP JUMPDEST PUSH1 0xB JUMPDEST PUSH1 0x40 MLOAD DUP1 PUSH1 0x80 ADD PUSH1 0x40 MSTORE SWAP1 DUP2 PUSH1 0x0 DUP3 ADD SLOAD DUP2 MSTORE PUSH1 0x20 ADD PUSH1 0x1 DUP3 ADD SLOAD DUP2 MSTORE PUSH1 0x20 ADD PUSH1 0x2 DUP3 ADD SLOAD DUP2 MSTORE PUSH1 0x20 ADD PUSH1 0x3 DUP3 ADD SLOAD DUP2 MSTORE POP POP SWAP1 POP PUSH2 0x1996 DUP9 DUP9 DUP4 DUP9 DUP7 PUSH2 0x320A JUMP JUMPDEST PUSH1 0x1 DUP7 PUSH1 0xFF AND SUB PUSH2 0x19F3 JUMPI DUP5 PUSH1 0x1B PUSH1 0x0 DUP11 PUSH1 0xFF AND PUSH1 0xFF AND DUP2 MSTORE PUSH1 0x20 ADD SWAP1 DUP2 MSTORE PUSH1 0x20 ADD PUSH1 0x0 KECCAK256 PUSH1 0x0 DUP10 PUSH1 0xFF AND PUSH1 0xFF AND DUP2 MSTORE PUSH1 0x20 ADD SWAP1 DUP2 MSTORE PUSH1 0x20 ADD PUSH1 0x0 KECCAK256 PUSH1 0x8 ADD PUSH1 0x2 ADD PUSH1 0x0 DUP3 DUP3 SLOAD PUSH2 0x19E7 SWAP2 SWAP1 PUSH2 0x424C JUMP JUMPDEST SWAP3 POP POP DUP2 SWAP1 SSTORE POP PUSH2 0x1A41 JUMP JUMPDEST DUP5 PUSH1 0x1B PUSH1 0x0 DUP11 PUSH1 0xFF AND PUSH1 0xFF AND DUP2 MSTORE PUSH1 0x20 ADD SWAP1 DUP2 MSTORE PUSH1 0x20 ADD PUSH1 0x0 KECCAK256 PUSH1 0x0 DUP10 PUSH1 0xFF AND PUSH1 0xFF AND DUP2 MSTORE PUSH1 0x20 ADD SWAP1 DUP2 MSTORE PUSH1 0x20 ADD PUSH1 0x0 KECCAK256 PUSH1 0x8 ADD PUSH1 0x3 ADD PUSH1 0x0 DUP3 DUP3 SLOAD PUSH2 0x1A39 SWAP2 SWAP1 PUSH2 0x424C JUMP JUMPDEST SWAP3 POP POP DUP2 SWAP1 SSTORE POP JUMPDEST POP POP POP POP POP POP POP POP JUMP JUMPDEST PUSH1 0x0 DUP1 SLOAD SWAP1 PUSH2 0x100 EXP SWAP1 DIV PUSH20 0xFFFFFFFFFFFFFFFFFFFFFFFFFFFFFFFFFFFFFFFF AND DUP2 JUMP JUMPDEST PUSH1 0xF DUP1 PUSH1 0x0 ADD SLOAD SWAP1 DUP1 PUSH1 0x1 ADD SLOAD SWAP1 DUP1 PUSH1 0x2 ADD SLOAD SWAP1 DUP1 PUSH1 0x3 ADD SLOAD SWAP1 POP DUP5 JUMP JUMPDEST PUSH1 0x3 DUP1 PUSH1 0x0 ADD SLOAD SWAP1 DUP1 PUSH1 0x1 ADD SLOAD SWAP1 DUP1 PUSH1 0x2 ADD SLOAD SWAP1 DUP1 PUSH1 0x3 ADD SLOAD SWAP1 POP DUP5 JUMP JUMPDEST PUSH1 0xB DUP1 PUSH1 0x0 ADD SLOAD SWAP1 DUP1 PUSH1 0x1 ADD SLOAD SWAP1 DUP1 PUSH1 0x2 ADD SLOAD SWAP1 DUP1 PUSH1 0x3 ADD SLOAD SWAP1 POP DUP5 JUMP JUMPDEST PUSH1 0x7 DUP1 PUSH1 0x0 ADD SLOAD SWAP1 DUP1 PUSH1 0x1 ADD SLOAD SWAP1 DUP1 PUSH1 0x2 ADD SLOAD SWAP1 DUP1 PUSH1 0x3 ADD SLOAD SWAP1 POP DUP5 JUMP JUMPDEST PUSH1 0x1 PUSH1 0x0 SWAP1 SLOAD SWAP1 PUSH2 0x100 EXP SWAP1 DIV PUSH20 0xFFFFFFFFFFFFFFFFFFFFFFFFFFFFFFFFFFFFFFFF AND DUP2 JUMP JUMPDEST PUSH1 0x1B PUSH1 0x20 MSTORE DUP2 PUSH1 0x0 MSTORE PUSH1 0x40 PUSH1 0x0 KECCAK256 PUSH1 0x20 MSTORE DUP1 PUSH1 0x0 MSTORE PUSH1 0x40 PUSH1 0x0 KECCAK256 PUSH1 0x0 SWAP2 POP SWAP2 POP POP DUP1 PUSH1 0x0 ADD PUSH1 0x40 MLOAD DUP1 PUSH1 0x80 ADD PUSH1 0x40 MSTORE SWAP1 DUP2 PUSH1 0x0 DUP3 ADD SLOAD DUP2 MSTORE PUSH1 0x20 ADD PUSH1 0x1 DUP3 ADD SLOAD DUP2 MSTORE PUSH1 0x20 ADD PUSH1 0x2 DUP3 ADD SLOAD DUP2 MSTORE PUSH1 0x20 ADD PUSH1 0x3 DUP3 ADD SLOAD DUP2 MSTORE POP POP SWAP1 DUP1 PUSH1 0x4 ADD PUSH1 0x0 SWAP1 SLOAD SWAP1 PUSH2 0x100 EXP SWAP1 DIV PUSH2 0xFFFF AND SWAP1 DUP1 PUSH1 0x5 ADD SLOAD SWAP1 DUP1 PUSH1 0x6 ADD PUSH1 0x0 SWAP1 SLOAD SWAP1 PUSH2 0x100 EXP SWAP1 DIV PUSH2 0xFFFF AND SWAP1 DUP1 PUSH1 0x7 ADD SLOAD SWAP1 DUP1 PUSH1 0x8 ADD PUSH1 0x40 MLOAD DUP1 PUSH1 0xC0 ADD PUSH1 0x40 MSTORE SWAP1 DUP2 PUSH1 0x0 DUP3 ADD SLOAD DUP2 MSTORE PUSH1 0x20 ADD PUSH1 0x1 DUP3 ADD SLOAD DUP2 MSTORE PUSH1 0x20 ADD PUSH1 0x2 DUP3 ADD SLOAD DUP2 MSTORE PUSH1 0x20 ADD PUSH1 0x3 DUP3 ADD SLOAD DUP2 MSTORE PUSH1 0x20 ADD PUSH1 0x4 DUP3 ADD SLOAD DUP2 MSTORE PUSH1 0x20 ADD PUSH1 0x5 DUP3 ADD SLOAD DUP2 MSTORE POP POP SWAP1 DUP1 PUSH1 0xE ADD PUSH1 0x40 MLOAD DUP1 PUSH1 0x40 ADD PUSH1 0x40 MSTORE SWAP1 DUP2 PUSH1 0x0 DUP3 ADD PUSH1 0x0 SWAP1 SLOAD SWAP1 PUSH2 0x100 EXP SWAP1 DIV PUSH1 0xFF AND PUSH1 0xFF AND PUSH1 0xFF AND DUP2 MSTORE PUSH1 0x20 ADD PUSH1 0x0 DUP3 ADD PUSH1 0x1 SWAP1 SLOAD SWAP1 PUSH2 0x100 EXP SWAP1 DIV PUSH1 0xFF AND PUSH1 0xFF AND PUSH1 0xFF AND DUP2 MSTORE POP POP SWAP1 DUP1 PUSH1 0xF ADD SLOAD SWAP1 POP DUP9 JUMP JUMPDEST PUSH1 0x1C PUSH1 0x20 MSTORE DUP4 PUSH1 0x0 MSTORE PUSH1 0x40 PUSH1 0x0 KECCAK256 PUSH1 0x20 MSTORE DUP3 PUSH1 0x0 MSTORE PUSH1 0x40 PUSH1 0x0 KECCAK256 PUSH1 0x20 MSTORE DUP2 PUSH1 0x0 MSTORE PUSH1 0x40 PUSH1 0x0 KECCAK256 PUSH1 0x20 MSTORE DUP1 PUSH1 0x0 MSTORE PUSH1 0x40 PUSH1 0x0 KECCAK256 PUSH1 0x0 SWAP4 POP SWAP4 POP POP POP SWAP1 SLOAD SWAP1 PUSH2 0x100 EXP SWAP1 DIV PUSH1 0xFF AND DUP2 JUMP JUMPDEST PUSH1 0x13 DUP1 PUSH1 0x0 ADD SLOAD SWAP1 DUP1 PUSH1 0x1 ADD SLOAD SWAP1 DUP1 PUSH1 0x2 ADD SLOAD SWAP1 DUP1 PUSH1 0x3 ADD SLOAD SWAP1 POP DUP5 JUMP JUMPDEST PUSH1 0x14 DUP2 JUMP JUMPDEST PUSH1 0x1E DUP3 PUSH1 0x14 DUP2 LT PUSH2 0x1CB6 JUMPI PUSH1 0x0 DUP1 REVERT JUMPDEST ADD DUP2 PUSH1 0x14 DUP2 LT PUSH2 0x1CC5 JUMPI PUSH1 0x0 DUP1 REVERT JUMPDEST PUSH1 0x20 SWAP2 DUP3 DUP3 DIV ADD SWAP2 SWAP1 MOD SWAP2 POP SWAP2 POP SWAP1 SLOAD SWAP1 PUSH2 0x100 EXP SWAP1 DIV PUSH1 0xFF AND DUP2 JUMP JUMPDEST PUSH2 0x1CEA PUSH2 0x34B8 JUMP JUMPDEST PUSH1 0x0 PUSH1 0x1B PUSH1 0x0 DUP6 PUSH1 0xFF AND PUSH1 0xFF AND DUP2 MSTORE PUSH1 0x20 ADD SWAP1 DUP2 MSTORE PUSH1 0x20 ADD PUSH1 0x0 KECCAK256 PUSH1 0x0 DUP5 PUSH1 0xFF AND PUSH1 0xFF AND DUP2 MSTORE PUSH1 0x20 ADD SWAP1 DUP2 MSTORE PUSH1 0x20 ADD PUSH1 0x0 KECCAK256 SWAP1 POP PUSH1 0x40 MLOAD DUP1 PUSH2 0x1E0 ADD PUSH1 0x40 MSTORE DUP1 DUP3 PUSH1 0x0 ADD PUSH1 0x0 ADD SLOAD DUP2 MSTORE PUSH1 0x20 ADD DUP3 PUSH1 0x0 ADD PUSH1 0x1 ADD SLOAD DUP2 MSTORE PUSH1 0x20 ADD DUP3 PUSH1 0x0 ADD PUSH1 0x2 ADD SLOAD DUP2 MSTORE PUSH1 0x20 ADD DUP3 PUSH1 0x0 ADD PUSH1 0x3 ADD SLOAD DUP2 MSTORE PUSH1 0x20 ADD DUP3 PUSH1 0x4 ADD PUSH1 0x0 SWAP1 SLOAD SWAP1 PUSH2 0x100 EXP SWAP1 DIV PUSH2 0xFFFF AND PUSH2 0xFFFF AND DUP2 MSTORE PUSH1 0x20 ADD DUP3 PUSH1 0x5 ADD SLOAD DUP2 MSTORE PUSH1 0x20 ADD DUP3 PUSH1 0x8 ADD PUSH1 0x0 ADD SLOAD DUP2 MSTORE PUSH1 0x20 ADD DUP3 PUSH1 0x8 ADD PUSH1 0x1 ADD SLOAD DUP2 MSTORE PUSH1 0x20 ADD DUP3 PUSH1 0x8 ADD PUSH1 0x2 ADD SLOAD DUP2 MSTORE PUSH1 0x20 ADD DUP3 PUSH1 0x8 ADD PUSH1 0x3 ADD SLOAD DUP2 MSTORE PUSH1 0x20 ADD DUP3 PUSH1 0x8 ADD PUSH1 0x4 ADD SLOAD DUP2 MSTORE PUSH1 0x20 ADD DUP3 PUSH1 0x8 ADD PUSH1 0x5 ADD SLOAD DUP2 MSTORE PUSH1 0x20 ADD DUP3 PUSH1 0xE ADD PUSH1 0x0 ADD PUSH1 0x0 SWAP1 SLOAD SWAP1 PUSH2 0x100 EXP SWAP1 DIV PUSH1 0xFF AND PUSH1 0xFF AND DUP2 MSTORE PUSH1 0x20 ADD DUP3 PUSH1 0xE ADD PUSH1 0x0 ADD PUSH1 0x1 SWAP1 SLOAD SWAP1 PUSH2 0x100 EXP SWAP1 DIV PUSH1 0xFF AND PUSH1 0xFF AND DUP2 MSTORE PUSH1 0x20 ADD DUP3 PUSH1 0xF ADD SLOAD DUP2 MSTORE POP SWAP2 POP POP SWAP3 SWAP2 POP POP JUMP JUMPDEST PUSH2 0x3E8 DUP2 JUMP JUMPDEST PUSH2 0x1E2B PUSH2 0x3538 JUMP JUMPDEST DUP3 DUP3 CALLER PUSH20 0xFFFFFFFFFFFFFFFFFFFFFFFFFFFFFFFFFFFFFFFF AND PUSH1 0x0 DUP1 SLOAD SWAP1 PUSH2 0x100 EXP SWAP1 DIV PUSH20 0xFFFFFFFFFFFFFFFFFFFFFFFFFFFFFFFFFFFFFFFF AND PUSH20 0xFFFFFFFFFFFFFFFFFFFFFFFFFFFFFFFFFFFFFFFF AND PUSH4 0x8A888953 DUP5 DUP5 PUSH1 0x40 MLOAD DUP4 PUSH4 0xFFFFFFFF AND PUSH1 0xE0 SHL DUP2 MSTORE PUSH1 0x4 ADD PUSH2 0x1E9F SWAP3 SWAP2 SWAP1 PUSH2 0x3FCB JUMP JUMPDEST PUSH1 0x20 PUSH1 0x40 MLOAD DUP1 DUP4 SUB DUP2 DUP7 GAS STATICCALL ISZERO DUP1 ISZERO PUSH2 0x1EBC JUMPI RETURNDATASIZE PUSH1 0x0 DUP1 RETURNDATACOPY RETURNDATASIZE PUSH1 0x0 REVERT JUMPDEST POP POP POP POP PUSH1 0x40 MLOAD RETURNDATASIZE PUSH1 0x1F NOT PUSH1 0x1F DUP3 ADD AND DUP3 ADD DUP1 PUSH1 0x40 MSTORE POP DUP2 ADD SWAP1 PUSH2 0x1EE0 SWAP2 SWAP1 PUSH2 0x4009 JUMP JUMPDEST PUSH20 0xFFFFFFFFFFFFFFFFFFFFFFFFFFFFFFFFFFFFFFFF AND EQ PUSH2 0x1F36 JUMPI PUSH1 0x40 MLOAD PUSH32 0x8C379A000000000000000000000000000000000000000000000000000000000 DUP2 MSTORE PUSH1 0x4 ADD PUSH2 0x1F2D SWAP1 PUSH2 0x4093 JUMP JUMPDEST PUSH1 0x40 MLOAD DUP1 SWAP2 SUB SWAP1 REVERT JUMPDEST PUSH2 0x1F3E PUSH2 0x3538 JUMP JUMPDEST PUSH1 0x0 JUMPDEST PUSH1 0x9 PUSH1 0xFF AND DUP2 PUSH1 0xFF AND LT ISZERO PUSH2 0x2036 JUMPI PUSH1 0x0 JUMPDEST PUSH1 0x9 PUSH1 0xFF AND DUP2 PUSH1 0xFF AND LT ISZERO PUSH2 0x2022 JUMPI PUSH1 0x1C PUSH1 0x0 DUP10 PUSH1 0xFF AND PUSH1 0xFF AND DUP2 MSTORE PUSH1 0x20 ADD SWAP1 DUP2 MSTORE PUSH1 0x20 ADD PUSH1 0x0 KECCAK256 PUSH1 0x0 DUP9 PUSH1 0xFF AND PUSH1 0xFF AND DUP2 MSTORE PUSH1 0x20 ADD SWAP1 DUP2 MSTORE PUSH1 0x20 ADD PUSH1 0x0 KECCAK256 PUSH1 0x0 DUP4 PUSH1 0xFF AND PUSH1 0xFF AND DUP2 MSTORE PUSH1 0x20 ADD SWAP1 DUP2 MSTORE PUSH1 0x20 ADD PUSH1 0x0 KECCAK256 PUSH1 0x0 DUP3 PUSH1 0xFF AND PUSH1 0xFF AND DUP2 MSTORE PUSH1 0x20 ADD SWAP1 DUP2 MSTORE PUSH1 0x20 ADD PUSH1 0x0 KECCAK256 PUSH1 0x0 SWAP1 SLOAD SWAP1 PUSH2 0x100 EXP SWAP1 DIV PUSH1 0xFF AND DUP4 DUP4 PUSH1 0xFF AND PUSH1 0x9 DUP2 LT PUSH2 0x1FE4 JUMPI PUSH2 0x1FE3 PUSH2 0x49DB JUMP JUMPDEST JUMPDEST PUSH1 0x20 MUL ADD MLOAD DUP3 PUSH1 0xFF AND PUSH1 0x9 DUP2 LT PUSH2 0x1FFE JUMPI PUSH2 0x1FFD PUSH2 0x49DB JUMP JUMPDEST JUMPDEST PUSH1 0x20 MUL ADD SWAP1 PUSH1 0xFF AND SWAP1 DUP2 PUSH1 0xFF AND DUP2 MSTORE POP POP DUP1 DUP1 PUSH2 0x201A SWAP1 PUSH2 0x47A3 JUMP JUMPDEST SWAP2 POP POP PUSH2 0x1F53 JUMP JUMPDEST POP DUP1 DUP1 PUSH2 0x202E SWAP1 PUSH2 0x47A3 JUMP JUMPDEST SWAP2 POP POP PUSH2 0x1F41 JUMP JUMPDEST POP DUP1 SWAP4 POP POP POP POP SWAP3 SWAP2 POP POP JUMP JUMPDEST PUSH1 0x1D PUSH1 0x20 MSTORE DUP1 PUSH1 0x0 MSTORE PUSH1 0x40 PUSH1 0x0 KECCAK256 PUSH1 0x0 SWAP2 POP SWAP1 POP DUP1 PUSH1 0x0 ADD SLOAD SWAP1 DUP1 PUSH1 0x1 ADD SLOAD SWAP1 DUP1 PUSH1 0x2 ADD SLOAD SWAP1 DUP1 PUSH1 0x3 ADD SLOAD SWAP1 POP DUP5 JUMP JUMPDEST PUSH2 0x1F4 DUP2 JUMP JUMPDEST PUSH1 0x2 PUSH1 0x0 SWAP1 SLOAD SWAP1 PUSH2 0x100 EXP SWAP1 DIV PUSH20 0xFFFFFFFFFFFFFFFFFFFFFFFFFFFFFFFFFFFFFFFF AND DUP2 JUMP JUMPDEST DUP2 DUP2 CALLER PUSH20 0xFFFFFFFFFFFFFFFFFFFFFFFFFFFFFFFFFFFFFFFF AND PUSH1 0x0 DUP1 SLOAD SWAP1 PUSH2 0x100 EXP SWAP1 DIV PUSH20 0xFFFFFFFFFFFFFFFFFFFFFFFFFFFFFFFFFFFFFFFF AND PUSH20 0xFFFFFFFFFFFFFFFFFFFFFFFFFFFFFFFFFFFFFFFF AND PUSH4 0x8A888953 DUP5 DUP5 PUSH1 0x40 MLOAD DUP4 PUSH4 0xFFFFFFFF AND PUSH1 0xE0 SHL DUP2 MSTORE PUSH1 0x4 ADD PUSH2 0x2113 SWAP3 SWAP2 SWAP1 PUSH2 0x3FCB JUMP JUMPDEST PUSH1 0x20 PUSH1 0x40 MLOAD DUP1 DUP4 SUB DUP2 DUP7 GAS STATICCALL ISZERO DUP1 ISZERO PUSH2 0x2130 JUMPI RETURNDATASIZE PUSH1 0x0 DUP1 RETURNDATACOPY RETURNDATASIZE PUSH1 0x0 REVERT JUMPDEST POP POP POP POP PUSH1 0x40 MLOAD RETURNDATASIZE PUSH1 0x1F NOT PUSH1 0x1F DUP3 ADD AND DUP3 ADD DUP1 PUSH1 0x40 MSTORE POP DUP2 ADD SWAP1 PUSH2 0x2154 SWAP2 SWAP1 PUSH2 0x4009 JUMP JUMPDEST PUSH20 0xFFFFFFFFFFFFFFFFFFFFFFFFFFFFFFFFFFFFFFFF AND EQ PUSH2 0x21AA JUMPI PUSH1 0x40 MLOAD PUSH32 0x8C379A000000000000000000000000000000000000000000000000000000000 DUP2 MSTORE PUSH1 0x4 ADD PUSH2 0x21A1 SWAP1 PUSH2 0x4093 JUMP JUMPDEST PUSH1 0x40 MLOAD DUP1 SWAP2 SUB SWAP1 REVERT JUMPDEST PUSH1 0x0 PUSH1 0x1 PUSH1 0x1B PUSH1 0x0 DUP8 PUSH1 0xFF AND PUSH1 0xFF AND DUP2 MSTORE PUSH1 0x20 ADD SWAP1 DUP2 MSTORE PUSH1 0x20 ADD PUSH1 0x0 KECCAK256 PUSH1 0x0 DUP7 PUSH1 0xFF AND PUSH1 0xFF AND DUP2 MSTORE PUSH1 0x20 ADD SWAP1 DUP2 MSTORE PUSH1 0x20 ADD PUSH1 0x0 KECCAK256 PUSH1 0x7 ADD SLOAD TIMESTAMP PUSH2 0x21ED SWAP2 SWAP1 PUSH2 0x4554 JUMP JUMPDEST PUSH2 0x21F7 SWAP2 SWAP1 PUSH2 0x4772 JUMP JUMPDEST PUSH1 0x1B PUSH1 0x0 DUP8 PUSH1 0xFF AND PUSH1 0xFF AND DUP2 MSTORE PUSH1 0x20 ADD SWAP1 DUP2 MSTORE PUSH1 0x20 ADD PUSH1 0x0 KECCAK256 PUSH1 0x0 DUP7 PUSH1 0xFF AND PUSH1 0xFF AND DUP2 MSTORE PUSH1 0x20 ADD SWAP1 DUP2 MSTORE PUSH1 0x20 ADD PUSH1 0x0 KECCAK256 PUSH1 0x6 ADD PUSH1 0x0 SWAP1 SLOAD SWAP1 PUSH2 0x100 EXP SWAP1 DIV PUSH2 0xFFFF AND PUSH2 0xFFFF AND PUSH2 0x2247 SWAP2 SWAP1 PUSH2 0x424C JUMP JUMPDEST SWAP1 POP PUSH2 0x258 DUP2 GT PUSH2 0x2258 JUMPI DUP1 PUSH2 0x225C JUMP JUMPDEST PUSH2 0x258 JUMPDEST PUSH1 0x1B PUSH1 0x0 DUP8 PUSH1 0xFF AND PUSH1 0xFF AND DUP2 MSTORE PUSH1 0x20 ADD SWAP1 DUP2 MSTORE PUSH1 0x20 ADD PUSH1 0x0 KECCAK256 PUSH1 0x0 DUP7 PUSH1 0xFF AND PUSH1 0xFF AND DUP2 MSTORE PUSH1 0x20 ADD SWAP1 DUP2 MSTORE PUSH1 0x20 ADD PUSH1 0x0 KECCAK256 PUSH1 0x6 ADD PUSH1 0x0 PUSH2 0x100 EXP DUP2 SLOAD DUP2 PUSH2 0xFFFF MUL NOT AND SWAP1 DUP4 PUSH2 0xFFFF AND MUL OR SWAP1 SSTORE POP POP POP POP POP POP JUMP JUMPDEST PUSH1 0x9 DUP2 JUMP JUMPDEST DUP2 DUP2 CALLER PUSH20 0xFFFFFFFFFFFFFFFFFFFFFFFFFFFFFFFFFFFFFFFF AND PUSH1 0x0 DUP1 SLOAD SWAP1 PUSH2 0x100 EXP SWAP1 DIV PUSH20 0xFFFFFFFFFFFFFFFFFFFFFFFFFFFFFFFFFFFFFFFF AND PUSH20 0xFFFFFFFFFFFFFFFFFFFFFFFFFFFFFFFFFFFFFFFF AND PUSH4 0x8A888953 DUP5 DUP5 PUSH1 0x40 MLOAD DUP4 PUSH4 0xFFFFFFFF AND PUSH1 0xE0 SHL DUP2 MSTORE PUSH1 0x4 ADD PUSH2 0x2329 SWAP3 SWAP2 SWAP1 PUSH2 0x3FCB JUMP JUMPDEST PUSH1 0x20 PUSH1 0x40 MLOAD DUP1 DUP4 SUB DUP2 DUP7 GAS STATICCALL ISZERO DUP1 ISZERO PUSH2 0x2346 JUMPI RETURNDATASIZE PUSH1 0x0 DUP1 RETURNDATACOPY RETURNDATASIZE PUSH1 0x0 REVERT JUMPDEST POP POP POP POP PUSH1 0x40 MLOAD RETURNDATASIZE PUSH1 0x1F NOT PUSH1 0x1F DUP3 ADD AND DUP3 ADD DUP1 PUSH1 0x40 MSTORE POP DUP2 ADD SWAP1 PUSH2 0x236A SWAP2 SWAP1 PUSH2 0x4009 JUMP JUMPDEST PUSH20 0xFFFFFFFFFFFFFFFFFFFFFFFFFFFFFFFFFFFFFFFF AND EQ PUSH2 0x23C0 JUMPI PUSH1 0x40 MLOAD PUSH32 0x8C379A000000000000000000000000000000000000000000000000000000000 DUP2 MSTORE PUSH1 0x4 ADD PUSH2 0x23B7 SWAP1 PUSH2 0x4093 JUMP JUMPDEST PUSH1 0x40 MLOAD DUP1 SWAP2 SUB SWAP1 REVERT JUMPDEST PUSH1 0x0 DUP6 PUSH2 0xFFFF AND GT PUSH2 0x2407 JUMPI PUSH1 0x40 MLOAD PUSH32 0x8C379A000000000000000000000000000000000000000000000000000000000 DUP2 MSTORE PUSH1 0x4 ADD PUSH2 0x23FE SWAP1 PUSH2 0x4A56 JUMP JUMPDEST PUSH1 0x40 MLOAD DUP1 SWAP2 SUB SWAP1 REVERT JUMPDEST PUSH2 0x2411 DUP5 DUP5 PUSH2 0x209F JUMP JUMPDEST DUP5 PUSH2 0xFFFF AND PUSH1 0x1B PUSH1 0x0 DUP7 PUSH1 0xFF AND PUSH1 0xFF AND DUP2 MSTORE PUSH1 0x20 ADD SWAP1 DUP2 MSTORE PUSH1 0x20 ADD PUSH1 0x0 KECCAK256 PUSH1 0x0 DUP6 PUSH1 0xFF AND PUSH1 0xFF AND DUP2 MSTORE PUSH1 0x20 ADD SWAP1 DUP2 MSTORE PUSH1 0x20 ADD PUSH1 0x0 KECCAK256 PUSH1 0x6 ADD PUSH1 0x0 SWAP1 SLOAD SWAP1 PUSH2 0x100 EXP SWAP1 DIV PUSH2 0xFFFF AND PUSH2 0xFFFF AND LT ISZERO PUSH2 0x249D JUMPI PUSH1 0x40 MLOAD PUSH32 0x8C379A000000000000000000000000000000000000000000000000000000000 DUP2 MSTORE PUSH1 0x4 ADD PUSH2 0x2494 SWAP1 PUSH2 0x4AC2 JUMP JUMPDEST PUSH1 0x40 MLOAD DUP1 SWAP2 SUB SWAP1 REVERT JUMPDEST PUSH1 0x1B PUSH1 0x0 DUP6 PUSH1 0xFF AND PUSH1 0xFF AND DUP2 MSTORE PUSH1 0x20 ADD SWAP1 DUP2 MSTORE PUSH1 0x20 ADD PUSH1 0x0 KECCAK256 PUSH1 0x0 DUP5 PUSH1 0xFF AND PUSH1 0xFF AND DUP2 MSTORE PUSH1 0x20 ADD SWAP1 DUP2 MSTORE PUSH1 0x20 ADD PUSH1 0x0 KECCAK256 PUSH1 0x5 ADD SLOAD PUSH2 0x3E8 PUSH2 0x24DE SWAP2 SWAP1 PUSH2 0x4554 JUMP JUMPDEST DUP6 PUSH2 0xFFFF AND GT ISZERO PUSH2 0x252D JUMPI PUSH1 0x1B PUSH1 0x0 DUP6 PUSH1 0xFF AND PUSH1 0xFF AND DUP2 MSTORE PUSH1 0x20 ADD SWAP1 DUP2 MSTORE PUSH1 0x20 ADD PUSH1 0x0 KECCAK256 PUSH1 0x0 DUP5 PUSH1 0xFF AND PUSH1 0xFF AND DUP2 MSTORE PUSH1 0x20 ADD SWAP1 DUP2 MSTORE PUSH1 0x20 ADD PUSH1 0x0 KECCAK256 PUSH1 0x5 ADD SLOAD PUSH2 0x3E8 PUSH2 0x252A SWAP2 SWAP1 PUSH2 0x4554 JUMP JUMPDEST SWAP5 POP JUMPDEST DUP5 PUSH1 0x1B PUSH1 0x0 DUP7 PUSH1 0xFF AND PUSH1 0xFF AND DUP2 MSTORE PUSH1 0x20 ADD SWAP1 DUP2 MSTORE PUSH1 0x20 ADD PUSH1 0x0 KECCAK256 PUSH1 0x0 DUP6 PUSH1 0xFF AND PUSH1 0xFF AND DUP2 MSTORE PUSH1 0x20 ADD SWAP1 DUP2 MSTORE PUSH1 0x20 ADD PUSH1 0x0 KECCAK256 PUSH1 0x6 ADD PUSH1 0x0 SWAP1 SLOAD SWAP1 PUSH2 0x100 EXP SWAP1 DIV PUSH2 0xFFFF AND PUSH2 0x257A SWAP2 SWAP1 PUSH2 0x4AE2 JUMP JUMPDEST PUSH1 0x1B PUSH1 0x0 DUP7 PUSH1 0xFF AND PUSH1 0xFF AND DUP2 MSTORE PUSH1 0x20 ADD SWAP1 DUP2 MSTORE PUSH1 0x20 ADD PUSH1 0x0 KECCAK256 PUSH1 0x0 DUP6 PUSH1 0xFF AND PUSH1 0xFF AND DUP2 MSTORE PUSH1 0x20 ADD SWAP1 DUP2 MSTORE PUSH1 0x20 ADD PUSH1 0x0 KECCAK256 PUSH1 0x6 ADD PUSH1 0x0 PUSH2 0x100 EXP DUP2 SLOAD DUP2 PUSH2 0xFFFF MUL NOT AND SWAP1 DUP4 PUSH2 0xFFFF AND MUL OR SWAP1 SSTORE POP TIMESTAMP PUSH1 0x1B PUSH1 0x0 DUP7 PUSH1 0xFF AND PUSH1 0xFF AND DUP2 MSTORE PUSH1 0x20 ADD SWAP1 DUP2 MSTORE PUSH1 0x20 ADD PUSH1 0x0 KECCAK256 PUSH1 0x0 DUP6 PUSH1 0xFF AND PUSH1 0xFF AND DUP2 MSTORE PUSH1 0x20 ADD SWAP1 DUP2 MSTORE PUSH1 0x20 ADD PUSH1 0x0 KECCAK256 PUSH1 0x7 ADD DUP2 SWAP1 SSTORE POP PUSH1 0x0 PUSH2 0x260D DUP6 DUP6 PUSH1 0x5 PUSH2 0x3125 JUMP JUMPDEST SWAP1 POP PUSH1 0x1 DUP2 PUSH2 0x261C SWAP2 SWAP1 PUSH2 0x424C JUMP JUMPDEST SWAP1 POP PUSH1 0x0 PUSH1 0x1E DUP7 PUSH1 0xFF AND PUSH1 0x14 DUP2 LT PUSH2 0x2637 JUMPI PUSH2 0x2636 PUSH2 0x49DB JUMP JUMPDEST JUMPDEST ADD DUP6 PUSH1 0xFF AND PUSH1 0x14 DUP2 LT PUSH2 0x264D JUMPI PUSH2 0x264C PUSH2 0x49DB JUMP JUMPDEST JUMPDEST PUSH1 0x20 SWAP2 DUP3 DUP3 DIV ADD SWAP2 SWAP1 MOD SWAP1 SLOAD SWAP1 PUSH2 0x100 EXP SWAP1 DIV PUSH1 0xFF AND SWAP1 POP PUSH1 0x0 PUSH1 0x1B PUSH1 0x0 DUP9 PUSH1 0xFF AND PUSH1 0xFF AND DUP2 MSTORE PUSH1 0x20 ADD SWAP1 DUP2 MSTORE PUSH1 0x20 ADD PUSH1 0x0 KECCAK256 PUSH1 0x0 DUP8 PUSH1 0xFF AND PUSH1 0xFF AND DUP2 MSTORE PUSH1 0x20 ADD SWAP1 DUP2 MSTORE PUSH1 0x20 ADD PUSH1 0x0 KECCAK256 SWAP1 POP PUSH1 0x1 DUP3 PUSH1 0xFF AND SUB PUSH2 0x26D6 JUMPI DUP3 DUP9 PUSH2 0xFFFF AND PUSH2 0x26B4 SWAP2 SWAP1 PUSH2 0x4701 JUMP JUMPDEST DUP2 PUSH1 0x0 ADD PUSH1 0x0 ADD PUSH1 0x0 DUP3 DUP3 SLOAD PUSH2 0x26CA SWAP2 SWAP1 PUSH2 0x424C JUMP JUMPDEST SWAP3 POP POP DUP2 SWAP1 SSTORE POP PUSH2 0x278C JUMP JUMPDEST PUSH1 0x2 DUP3 PUSH1 0xFF AND SUB PUSH2 0x2713 JUMPI DUP3 DUP9 PUSH2 0xFFFF AND PUSH2 0x26F1 SWAP2 SWAP1 PUSH2 0x4701 JUMP JUMPDEST DUP2 PUSH1 0x0 ADD PUSH1 0x1 ADD PUSH1 0x0 DUP3 DUP3 SLOAD PUSH2 0x2707 SWAP2 SWAP1 PUSH2 0x424C JUMP JUMPDEST SWAP3 POP POP DUP2 SWAP1 SSTORE POP PUSH2 0x278B JUMP JUMPDEST PUSH1 0x3 DUP3 PUSH1 0xFF AND SUB PUSH2 0x2750 JUMPI DUP3 DUP9 PUSH2 0xFFFF AND PUSH2 0x272E SWAP2 SWAP1 PUSH2 0x4701 JUMP JUMPDEST DUP2 PUSH1 0x0 ADD PUSH1 0x2 ADD PUSH1 0x0 DUP3 DUP3 SLOAD PUSH2 0x2744 SWAP2 SWAP1 PUSH2 0x424C JUMP JUMPDEST SWAP3 POP POP DUP2 SWAP1 SSTORE POP PUSH2 0x278A JUMP JUMPDEST PUSH1 0x4 DUP3 PUSH1 0xFF AND SUB PUSH2 0x2789 JUMPI DUP3 DUP9 PUSH2 0xFFFF AND PUSH2 0x276B SWAP2 SWAP1 PUSH2 0x4701 JUMP JUMPDEST DUP2 PUSH1 0x0 ADD PUSH1 0x3 ADD PUSH1 0x0 DUP3 DUP3 SLOAD PUSH2 0x2781 SWAP2 SWAP1 PUSH2 0x424C JUMP JUMPDEST SWAP3 POP POP DUP2 SWAP1 SSTORE POP JUMPDEST JUMPDEST JUMPDEST JUMPDEST DUP3 DUP9 PUSH2 0xFFFF AND PUSH2 0x279C SWAP2 SWAP1 PUSH2 0x4701 JUMP JUMPDEST DUP2 PUSH1 0x0 ADD PUSH1 0x0 ADD PUSH1 0x0 DUP3 DUP3 SLOAD PUSH2 0x27B2 SWAP2 SWAP1 PUSH2 0x424C JUMP JUMPDEST SWAP3 POP POP DUP2 SWAP1 SSTORE POP DUP3 DUP9 PUSH2 0xFFFF AND PUSH2 0x27C9 SWAP2 SWAP1 PUSH2 0x4701 JUMP JUMPDEST DUP2 PUSH1 0x0 ADD PUSH1 0x1 ADD PUSH1 0x0 DUP3 DUP3 SLOAD PUSH2 0x27DF SWAP2 SWAP1 PUSH2 0x424C JUMP JUMPDEST SWAP3 POP POP DUP2 SWAP1 SSTORE POP DUP3 DUP9 PUSH2 0xFFFF AND PUSH2 0x27F6 SWAP2 SWAP1 PUSH2 0x4701 JUMP JUMPDEST DUP2 PUSH1 0x0 ADD PUSH1 0x2 ADD PUSH1 0x0 DUP3 DUP3 SLOAD PUSH2 0x280C SWAP2 SWAP1 PUSH2 0x424C JUMP JUMPDEST SWAP3 POP POP DUP2 SWAP1 SSTORE POP DUP3 DUP9 PUSH2 0xFFFF AND PUSH2 0x2823 SWAP2 SWAP1 PUSH2 0x4701 JUMP JUMPDEST DUP2 PUSH1 0x0 ADD PUSH1 0x3 ADD PUSH1 0x0 DUP3 DUP3 SLOAD PUSH2 0x2839 SWAP2 SWAP1 PUSH2 0x424C JUMP JUMPDEST SWAP3 POP POP DUP2 SWAP1 SSTORE POP DUP8 PUSH2 0xFFFF AND DUP2 PUSH1 0x5 ADD PUSH1 0x0 DUP3 DUP3 SLOAD PUSH2 0x2858 SWAP2 SWAP1 PUSH2 0x424C JUMP JUMPDEST SWAP3 POP POP DUP2 SWAP1 SSTORE POP PUSH1 0x0 PUSH2 0x3E8 DUP3 PUSH1 0x5 ADD SLOAD PUSH2 0x2873 SWAP2 SWAP1 PUSH2 0x4772 JUMP JUMPDEST SWAP1 POP PUSH2 0x3E8 DUP3 PUSH1 0x5 ADD PUSH1 0x0 DUP3 DUP3 SLOAD PUSH2 0x288B SWAP2 SWAP1 PUSH2 0x4B18 JUMP JUMPDEST SWAP3 POP POP DUP2 SWAP1 SSTORE POP PUSH1 0x0 DUP2 DUP4 PUSH1 0x4 ADD PUSH1 0x0 SWAP1 SLOAD SWAP1 PUSH2 0x100 EXP SWAP1 DIV PUSH2 0xFFFF AND PUSH2 0x28B2 SWAP2 SWAP1 PUSH2 0x4B49 JUMP JUMPDEST SWAP1 POP PUSH2 0x1F4 PUSH2 0xFFFF AND DUP2 PUSH2 0xFFFF AND GT ISZERO PUSH2 0x28EC JUMPI PUSH2 0x1F4 DUP4 PUSH1 0x4 ADD PUSH1 0x0 PUSH2 0x100 EXP DUP2 SLOAD DUP2 PUSH2 0xFFFF MUL NOT AND SWAP1 DUP4 PUSH2 0xFFFF AND MUL OR SWAP1 SSTORE POP PUSH2 0x290C JUMP JUMPDEST DUP1 DUP4 PUSH1 0x4 ADD PUSH1 0x0 PUSH2 0x100 EXP DUP2 SLOAD DUP2 PUSH2 0xFFFF MUL NOT AND SWAP1 DUP4 PUSH2 0xFFFF AND MUL OR SWAP1 SSTORE POP JUMPDEST PUSH2 0x2915 DUP4 PUSH2 0x346F JUMP JUMPDEST CALLER PUSH20 0xFFFFFFFFFFFFFFFFFFFFFFFFFFFFFFFFFFFFFFFF AND PUSH32 0xBB5B4F7847476E1912E2B57D030B0E491D0D72B2EF256CCEEA9DAA41F40F5D18 DUP12 DUP12 DUP12 PUSH1 0x40 MLOAD PUSH2 0x295F SWAP4 SWAP3 SWAP2 SWAP1 PUSH2 0x4BB0 JUMP JUMPDEST PUSH1 0x40 MLOAD DUP1 SWAP2 SUB SWAP1 LOG2 POP POP POP POP POP POP POP POP POP POP JUMP JUMPDEST PUSH1 0x0 DUP3 DUP3 CALLER PUSH20 0xFFFFFFFFFFFFFFFFFFFFFFFFFFFFFFFFFFFFFFFF AND PUSH1 0x0 DUP1 SLOAD SWAP1 PUSH2 0x100 EXP SWAP1 DIV PUSH20 0xFFFFFFFFFFFFFFFFFFFFFFFFFFFFFFFFFFFFFFFF AND PUSH20 0xFFFFFFFFFFFFFFFFFFFFFFFFFFFFFFFFFFFFFFFF AND PUSH4 0x8A888953 DUP5 DUP5 PUSH1 0x40 MLOAD DUP4 PUSH4 0xFFFFFFFF AND PUSH1 0xE0 SHL DUP2 MSTORE PUSH1 0x4 ADD PUSH2 0x29E9 SWAP3 SWAP2 SWAP1 PUSH2 0x3FCB JUMP JUMPDEST PUSH1 0x20 PUSH1 0x40 MLOAD DUP1 DUP4 SUB DUP2 DUP7 GAS STATICCALL ISZERO DUP1 ISZERO PUSH2 0x2A06 JUMPI RETURNDATASIZE PUSH1 0x0 DUP1 RETURNDATACOPY RETURNDATASIZE PUSH1 0x0 REVERT JUMPDEST POP POP POP POP PUSH1 0x40 MLOAD RETURNDATASIZE PUSH1 0x1F NOT PUSH1 0x1F DUP3 ADD AND DUP3 ADD DUP1 PUSH1 0x40 MSTORE POP DUP2 ADD SWAP1 PUSH2 0x2A2A SWAP2 SWAP1 PUSH2 0x4009 JUMP JUMPDEST PUSH20 0xFFFFFFFFFFFFFFFFFFFFFFFFFFFFFFFFFFFFFFFF AND EQ PUSH2 0x2A80 JUMPI PUSH1 0x40 MLOAD PUSH32 0x8C379A000000000000000000000000000000000000000000000000000000000 DUP2 MSTORE PUSH1 0x4 ADD PUSH2 0x2A77 SWAP1 PUSH2 0x4093 JUMP JUMPDEST PUSH1 0x40 MLOAD DUP1 SWAP2 SUB SWAP1 REVERT JUMPDEST PUSH2 0x258 PUSH1 0x1 PUSH1 0x1B PUSH1 0x0 DUP9 PUSH1 0xFF AND PUSH1 0xFF AND DUP2 MSTORE PUSH1 0x20 ADD SWAP1 DUP2 MSTORE PUSH1 0x20 ADD PUSH1 0x0 KECCAK256 PUSH1 0x0 DUP8 PUSH1 0xFF AND PUSH1 0xFF AND DUP2 MSTORE PUSH1 0x20 ADD SWAP1 DUP2 MSTORE PUSH1 0x20 ADD PUSH1 0x0 KECCAK256 PUSH1 0x7 ADD SLOAD TIMESTAMP PUSH2 0x2AC4 SWAP2 SWAP1 PUSH2 0x4554 JUMP JUMPDEST PUSH2 0x2ACE SWAP2 SWAP1 PUSH2 0x4772 JUMP JUMPDEST PUSH1 0x1B PUSH1 0x0 DUP9 PUSH1 0xFF AND PUSH1 0xFF AND DUP2 MSTORE PUSH1 0x20 ADD SWAP1 DUP2 MSTORE PUSH1 0x20 ADD PUSH1 0x0 KECCAK256 PUSH1 0x0 DUP8 PUSH1 0xFF AND PUSH1 0xFF AND DUP2 MSTORE PUSH1 0x20 ADD SWAP1 DUP2 MSTORE PUSH1 0x20 ADD PUSH1 0x0 KECCAK256 PUSH1 0x6 ADD PUSH1 0x0 SWAP1 SLOAD SWAP1 PUSH2 0x100 EXP SWAP1 DIV PUSH2 0xFFFF AND PUSH2 0xFFFF AND PUSH2 0x2B1E SWAP2 SWAP1 PUSH2 0x424C JUMP JUMPDEST GT ISZERO PUSH2 0x2B2E JUMPI PUSH2 0x258 SWAP3 POP PUSH2 0x2BCC JUMP JUMPDEST PUSH1 0x1 PUSH1 0x1B PUSH1 0x0 DUP8 PUSH1 0xFF AND PUSH1 0xFF AND DUP2 MSTORE PUSH1 0x20 ADD SWAP1 DUP2 MSTORE PUSH1 0x20 ADD PUSH1 0x0 KECCAK256 PUSH1 0x0 DUP7 PUSH1 0xFF AND PUSH1 0xFF AND DUP2 MSTORE PUSH1 0x20 ADD SWAP1 DUP2 MSTORE PUSH1 0x20 ADD PUSH1 0x0 KECCAK256 PUSH1 0x7 ADD SLOAD TIMESTAMP PUSH2 0x2B6F SWAP2 SWAP1 PUSH2 0x4554 JUMP JUMPDEST PUSH2 0x2B79 SWAP2 SWAP1 PUSH2 0x4772 JUMP JUMPDEST PUSH1 0x1B PUSH1 0x0 DUP8 PUSH1 0xFF AND PUSH1 0xFF AND DUP2 MSTORE PUSH1 0x20 ADD SWAP1 DUP2 MSTORE PUSH1 0x20 ADD PUSH1 0x0 KECCAK256 PUSH1 0x0 DUP7 PUSH1 0xFF AND PUSH1 0xFF AND DUP2 MSTORE PUSH1 0x20 ADD SWAP1 DUP2 MSTORE PUSH1 0x20 ADD PUSH1 0x0 KECCAK256 PUSH1 0x6 ADD PUSH1 0x0 SWAP1 SLOAD SWAP1 PUSH2 0x100 EXP SWAP1 DIV PUSH2 0xFFFF AND PUSH2 0xFFFF AND PUSH2 0x2BC9 SWAP2 SWAP1 PUSH2 0x424C JUMP JUMPDEST SWAP3 POP JUMPDEST POP POP SWAP3 SWAP2 POP POP JUMP JUMPDEST DUP4 DUP4 CALLER PUSH20 0xFFFFFFFFFFFFFFFFFFFFFFFFFFFFFFFFFFFFFFFF AND PUSH1 0x0 DUP1 SLOAD SWAP1 PUSH2 0x100 EXP SWAP1 DIV PUSH20 0xFFFFFFFFFFFFFFFFFFFFFFFFFFFFFFFFFFFFFFFF AND PUSH20 0xFFFFFFFFFFFFFFFFFFFFFFFFFFFFFFFFFFFFFFFF AND PUSH4 0x8A888953 DUP5 DUP5 PUSH1 0x40 MLOAD DUP4 PUSH4 0xFFFFFFFF AND PUSH1 0xE0 SHL DUP2 MSTORE PUSH1 0x4 ADD PUSH2 0x2C48 SWAP3 SWAP2 SWAP1 PUSH2 0x3FCB JUMP JUMPDEST PUSH1 0x20 PUSH1 0x40 MLOAD DUP1 DUP4 SUB DUP2 DUP7 GAS STATICCALL ISZERO DUP1 ISZERO PUSH2 0x2C65 JUMPI RETURNDATASIZE PUSH1 0x0 DUP1 RETURNDATACOPY RETURNDATASIZE PUSH1 0x0 REVERT JUMPDEST POP POP POP POP PUSH1 0x40 MLOAD RETURNDATASIZE PUSH1 0x1F NOT PUSH1 0x1F DUP3 ADD AND DUP3 ADD DUP1 PUSH1 0x40 MSTORE POP DUP2 ADD SWAP1 PUSH2 0x2C89 SWAP2 SWAP1 PUSH2 0x4009 JUMP JUMPDEST PUSH20 0xFFFFFFFFFFFFFFFFFFFFFFFFFFFFFFFFFFFFFFFF AND EQ PUSH2 0x2CDF JUMPI PUSH1 0x40 MLOAD PUSH32 0x8C379A000000000000000000000000000000000000000000000000000000000 DUP2 MSTORE PUSH1 0x4 ADD PUSH2 0x2CD6 SWAP1 PUSH2 0x4093 JUMP JUMPDEST PUSH1 0x40 MLOAD DUP1 SWAP2 SUB SWAP1 REVERT JUMPDEST PUSH1 0x0 DUP4 GT PUSH2 0x2D22 JUMPI PUSH1 0x40 MLOAD PUSH32 0x8C379A000000000000000000000000000000000000000000000000000000000 DUP2 MSTORE PUSH1 0x4 ADD PUSH2 0x2D19 SWAP1 PUSH2 0x4125 JUMP JUMPDEST PUSH1 0x40 MLOAD DUP1 SWAP2 SUB SWAP1 REVERT JUMPDEST PUSH1 0x1 DUP5 PUSH1 0xFF AND EQ DUP1 PUSH2 0x2D37 JUMPI POP PUSH1 0x2 DUP5 PUSH1 0xFF AND EQ JUMPDEST PUSH2 0x2D76 JUMPI PUSH1 0x40 MLOAD PUSH32 0x8C379A000000000000000000000000000000000000000000000000000000000 DUP2 MSTORE PUSH1 0x4 ADD PUSH2 0x2D6D SWAP1 PUSH2 0x4C33 JUMP JUMPDEST PUSH1 0x40 MLOAD DUP1 SWAP2 SUB SWAP1 REVERT JUMPDEST PUSH1 0x0 PUSH2 0x2D84 DUP8 DUP8 PUSH1 0x4 PUSH2 0x3125 JUMP JUMPDEST SWAP1 POP PUSH1 0x0 DUP2 GT PUSH2 0x2DC9 JUMPI PUSH1 0x40 MLOAD PUSH32 0x8C379A000000000000000000000000000000000000000000000000000000000 DUP2 MSTORE PUSH1 0x4 ADD PUSH2 0x2DC0 SWAP1 PUSH2 0x4CC5 JUMP JUMPDEST PUSH1 0x40 MLOAD DUP1 SWAP2 SUB SWAP1 REVERT JUMPDEST PUSH1 0x0 PUSH1 0x1 DUP7 PUSH1 0xFF AND EQ PUSH2 0x2DDD JUMPI PUSH1 0x17 PUSH2 0x2DE0 JUMP JUMPDEST PUSH1 0x13 JUMPDEST PUSH1 0x40 MLOAD DUP1 PUSH1 0x80 ADD PUSH1 0x40 MSTORE SWAP1 DUP2 PUSH1 0x0 DUP3 ADD SLOAD DUP2 MSTORE PUSH1 0x20 ADD PUSH1 0x1 DUP3 ADD SLOAD DUP2 MSTORE PUSH1 0x20 ADD PUSH1 0x2 DUP3 ADD SLOAD DUP2 MSTORE PUSH1 0x20 ADD PUSH1 0x3 DUP3 ADD SLOAD DUP2 MSTORE POP POP SWAP1 POP PUSH2 0x2E22 DUP9 DUP9 DUP4 DUP9 DUP7 PUSH2 0x320A JUMP JUMPDEST PUSH1 0x0 PUSH1 0x1B PUSH1 0x0 DUP11 PUSH1 0xFF AND PUSH1 0xFF AND DUP2 MSTORE PUSH1 0x20 ADD SWAP1 DUP2 MSTORE PUSH1 0x20 ADD PUSH1 0x0 KECCAK256 PUSH1 0x0 DUP10 PUSH1 0xFF AND PUSH1 0xFF AND DUP2 MSTORE PUSH1 0x20 ADD SWAP1 DUP2 MSTORE PUSH1 0x20 ADD PUSH1 0x0 KECCAK256 PUSH1 0x8 ADD SWAP1 POP PUSH1 0x1 DUP8 PUSH1 0xFF AND SUB PUSH2 0x2F48 JUMPI DUP6 DUP2 PUSH1 0x0 ADD SLOAD LT ISZERO PUSH2 0x2EAB JUMPI PUSH1 0x40 MLOAD PUSH32 0x8C379A000000000000000000000000000000000000000000000000000000000 DUP2 MSTORE PUSH1 0x4 ADD PUSH2 0x2EA2 SWAP1 PUSH2 0x4D31 JUMP JUMPDEST PUSH1 0x40 MLOAD DUP1 SWAP2 SUB SWAP1 REVERT JUMPDEST DUP6 DUP2 PUSH1 0x2 ADD SLOAD LT ISZERO PUSH2 0x2EF2 JUMPI PUSH1 0x40 MLOAD PUSH32 0x8C379A000000000000000000000000000000000000000000000000000000000 DUP2 MSTORE PUSH1 0x4 ADD PUSH2 0x2EE9 SWAP1 PUSH2 0x4D9D JUMP JUMPDEST PUSH1 0x40 MLOAD DUP1 SWAP2 SUB SWAP1 REVERT JUMPDEST DUP6 DUP2 PUSH1 0x0 ADD PUSH1 0x0 DUP3 DUP3 SLOAD PUSH2 0x2F06 SWAP2 SWAP1 PUSH2 0x4554 JUMP JUMPDEST SWAP3 POP POP DUP2 SWAP1 SSTORE POP DUP6 DUP2 PUSH1 0x2 ADD PUSH1 0x0 DUP3 DUP3 SLOAD PUSH2 0x2F21 SWAP2 SWAP1 PUSH2 0x4554 JUMP JUMPDEST SWAP3 POP POP DUP2 SWAP1 SSTORE POP DUP6 DUP2 PUSH1 0x4 ADD PUSH1 0x0 DUP3 DUP3 SLOAD PUSH2 0x2F3C SWAP2 SWAP1 PUSH2 0x424C JUMP JUMPDEST SWAP3 POP POP DUP2 SWAP1 SSTORE POP PUSH2 0x3028 JUMP JUMPDEST DUP6 DUP2 PUSH1 0x1 ADD SLOAD LT ISZERO PUSH2 0x2F8F JUMPI PUSH1 0x40 MLOAD PUSH32 0x8C379A000000000000000000000000000000000000000000000000000000000 DUP2 MSTORE PUSH1 0x4 ADD PUSH2 0x2F86 SWAP1 PUSH2 0x4E09 JUMP JUMPDEST PUSH1 0x40 MLOAD DUP1 SWAP2 SUB SWAP1 REVERT JUMPDEST DUP6 DUP2 PUSH1 0x3 ADD SLOAD LT ISZERO PUSH2 0x2FD6 JUMPI PUSH1 0x40 MLOAD PUSH32 0x8C379A000000000000000000000000000000000000000000000000000000000 DUP2 MSTORE PUSH1 0x4 ADD PUSH2 0x2FCD SWAP1 PUSH2 0x4E75 JUMP JUMPDEST PUSH1 0x40 MLOAD DUP1 SWAP2 SUB SWAP1 REVERT JUMPDEST DUP6 DUP2 PUSH1 0x1 ADD PUSH1 0x0 DUP3 DUP3 SLOAD PUSH2 0x2FEA SWAP2 SWAP1 PUSH2 0x4554 JUMP JUMPDEST SWAP3 POP POP DUP2 SWAP1 SSTORE POP DUP6 DUP2 PUSH1 0x3 ADD PUSH1 0x0 DUP3 DUP3 SLOAD PUSH2 0x3005 SWAP2 SWAP1 PUSH2 0x4554 JUMP JUMPDEST SWAP3 POP POP DUP2 SWAP1 SSTORE POP DUP6 DUP2 PUSH1 0x5 ADD PUSH1 0x0 DUP3 DUP3 SLOAD PUSH2 0x3020 SWAP2 SWAP1 PUSH2 0x424C JUMP JUMPDEST SWAP3 POP POP DUP2 SWAP1 SSTORE POP JUMPDEST POP POP POP POP POP POP POP POP POP JUMP JUMPDEST PUSH1 0x17 DUP1 PUSH1 0x0 ADD SLOAD SWAP1 DUP1 PUSH1 0x1 ADD SLOAD SWAP1 DUP1 PUSH1 0x2 ADD SLOAD SWAP1 DUP1 PUSH1 0x3 ADD SLOAD SWAP1 POP DUP5 JUMP JUMPDEST PUSH1 0x1 PUSH1 0x0 SWAP1 SLOAD SWAP1 PUSH2 0x100 EXP SWAP1 DIV PUSH20 0xFFFFFFFFFFFFFFFFFFFFFFFFFFFFFFFFFFFFFFFF AND PUSH20 0xFFFFFFFFFFFFFFFFFFFFFFFFFFFFFFFFFFFFFFFF AND CALLER PUSH20 0xFFFFFFFFFFFFFFFFFFFFFFFFFFFFFFFFFFFFFFFF AND EQ PUSH2 0x30E1 JUMPI PUSH1 0x40 MLOAD PUSH32 0x8C379A000000000000000000000000000000000000000000000000000000000 DUP2 MSTORE PUSH1 0x4 ADD PUSH2 0x30D8 SWAP1 PUSH2 0x4EE1 JUMP JUMPDEST PUSH1 0x40 MLOAD DUP1 SWAP2 SUB SWAP1 REVERT JUMPDEST DUP1 PUSH1 0x2 PUSH1 0x0 PUSH2 0x100 EXP DUP2 SLOAD DUP2 PUSH20 0xFFFFFFFFFFFFFFFFFFFFFFFFFFFFFFFFFFFFFFFF MUL NOT AND SWAP1 DUP4 PUSH20 0xFFFFFFFFFFFFFFFFFFFFFFFFFFFFFFFFFFFFFFFF AND MUL OR SWAP1 SSTORE POP POP JUMP JUMPDEST PUSH1 0x0 DUP1 PUSH1 0x0 SWAP1 POP PUSH1 0x0 JUMPDEST PUSH1 0x9 PUSH1 0xFF AND DUP2 PUSH1 0xFF AND LT ISZERO PUSH2 0x31FE JUMPI PUSH1 0x0 JUMPDEST PUSH1 0x9 PUSH1 0xFF AND DUP2 PUSH1 0xFF AND LT ISZERO PUSH2 0x31EA JUMPI DUP5 PUSH1 0xFF AND PUSH1 0x1C PUSH1 0x0 DUP10 PUSH1 0xFF AND PUSH1 0xFF AND DUP2 MSTORE PUSH1 0x20 ADD SWAP1 DUP2 MSTORE PUSH1 0x20 ADD PUSH1 0x0 KECCAK256 PUSH1 0x0 DUP9 PUSH1 0xFF AND PUSH1 0xFF AND DUP2 MSTORE PUSH1 0x20 ADD SWAP1 DUP2 MSTORE PUSH1 0x20 ADD PUSH1 0x0 KECCAK256 PUSH1 0x0 DUP5 PUSH1 0xFF AND PUSH1 0xFF AND DUP2 MSTORE PUSH1 0x20 ADD SWAP1 DUP2 MSTORE PUSH1 0x20 ADD PUSH1 0x0 KECCAK256 PUSH1 0x0 DUP4 PUSH1 0xFF AND PUSH1 0xFF AND DUP2 MSTORE PUSH1 0x20 ADD SWAP1 DUP2 MSTORE PUSH1 0x20 ADD PUSH1 0x0 KECCAK256 PUSH1 0x0 SWAP1 SLOAD SWAP1 PUSH2 0x100 EXP SWAP1 DIV PUSH1 0xFF AND PUSH1 0xFF AND SUB PUSH2 0x31D7 JUMPI DUP3 DUP1 PUSH2 0x31D3 SWAP1 PUSH2 0x4F01 JUMP JUMPDEST SWAP4 POP POP JUMPDEST DUP1 DUP1 PUSH2 0x31E2 SWAP1 PUSH2 0x47A3 JUMP JUMPDEST SWAP2 POP POP PUSH2 0x3141 JUMP JUMPDEST POP DUP1 DUP1 PUSH2 0x31F6 SWAP1 PUSH2 0x47A3 JUMP JUMPDEST SWAP2 POP POP PUSH2 0x312F JUMP JUMPDEST POP DUP1 SWAP2 POP POP SWAP4 SWAP3 POP POP POP JUMP JUMPDEST PUSH1 0x0 PUSH1 0x1B PUSH1 0x0 DUP8 PUSH1 0xFF AND PUSH1 0xFF AND DUP2 MSTORE PUSH1 0x20 ADD SWAP1 DUP2 MSTORE PUSH1 0x20 ADD PUSH1 0x0 KECCAK256 PUSH1 0x0 DUP7 PUSH1 0xFF AND PUSH1 0xFF AND DUP2 MSTORE PUSH1 0x20 ADD SWAP1 DUP2 MSTORE PUSH1 0x20 ADD PUSH1 0x0 KECCAK256 SWAP1 POP PUSH1 0x0 DUP3 DUP5 DUP7 PUSH1 0x0 ADD MLOAD PUSH2 0x3251 SWAP2 SWAP1 PUSH2 0x4701 JUMP JUMPDEST PUSH2 0x325B SWAP2 SWAP1 PUSH2 0x4772 JUMP JUMPDEST SWAP1 POP PUSH1 0x0 DUP4 DUP6 DUP8 PUSH1 0x20 ADD MLOAD PUSH2 0x3270 SWAP2 SWAP1 PUSH2 0x4701 JUMP JUMPDEST PUSH2 0x327A SWAP2 SWAP1 PUSH2 0x4772 JUMP JUMPDEST SWAP1 POP PUSH1 0x0 DUP5 DUP7 DUP9 PUSH1 0x40 ADD MLOAD PUSH2 0x328F SWAP2 SWAP1 PUSH2 0x4701 JUMP JUMPDEST PUSH2 0x3299 SWAP2 SWAP1 PUSH2 0x4772 JUMP JUMPDEST SWAP1 POP PUSH1 0x0 DUP6 DUP8 DUP10 PUSH1 0x60 ADD MLOAD PUSH2 0x32AE SWAP2 SWAP1 PUSH2 0x4701 JUMP JUMPDEST PUSH2 0x32B8 SWAP2 SWAP1 PUSH2 0x4772 JUMP JUMPDEST SWAP1 POP DUP4 DUP6 PUSH1 0x0 ADD PUSH1 0x0 ADD SLOAD LT ISZERO PUSH2 0x3304 JUMPI PUSH1 0x40 MLOAD PUSH32 0x8C379A000000000000000000000000000000000000000000000000000000000 DUP2 MSTORE PUSH1 0x4 ADD PUSH2 0x32FB SWAP1 PUSH2 0x43F0 JUMP JUMPDEST PUSH1 0x40 MLOAD DUP1 SWAP2 SUB SWAP1 REVERT JUMPDEST DUP3 DUP6 PUSH1 0x0 ADD PUSH1 0x1 ADD SLOAD LT ISZERO PUSH2 0x334E JUMPI PUSH1 0x40 MLOAD PUSH32 0x8C379A000000000000000000000000000000000000000000000000000000000 DUP2 MSTORE PUSH1 0x4 ADD PUSH2 0x3345 SWAP1 PUSH2 0x445C JUMP JUMPDEST PUSH1 0x40 MLOAD DUP1 SWAP2 SUB SWAP1 REVERT JUMPDEST DUP2 DUP6 PUSH1 0x0 ADD PUSH1 0x2 ADD SLOAD LT ISZERO PUSH2 0x3398 JUMPI PUSH1 0x40 MLOAD PUSH32 0x8C379A000000000000000000000000000000000000000000000000000000000 DUP2 MSTORE PUSH1 0x4 ADD PUSH2 0x338F SWAP1 PUSH2 0x44C8 JUMP JUMPDEST PUSH1 0x40 MLOAD DUP1 SWAP2 SUB SWAP1 REVERT JUMPDEST DUP1 DUP6 PUSH1 0x0 ADD PUSH1 0x3 ADD SLOAD LT ISZERO PUSH2 0x33E2 JUMPI PUSH1 0x40 MLOAD PUSH32 0x8C379A000000000000000000000000000000000000000000000000000000000 DUP2 MSTORE PUSH1 0x4 ADD PUSH2 0x33D9 SWAP1 PUSH2 0x4534 JUMP JUMPDEST PUSH1 0x40 MLOAD DUP1 SWAP2 SUB SWAP1 REVERT JUMPDEST DUP4 DUP6 PUSH1 0x0 ADD PUSH1 0x0 ADD PUSH1 0x0 DUP3 DUP3 SLOAD PUSH2 0x33F9 SWAP2 SWAP1 PUSH2 0x4554 JUMP JUMPDEST SWAP3 POP POP DUP2 SWAP1 SSTORE POP DUP3 DUP6 PUSH1 0x0 ADD PUSH1 0x1 ADD PUSH1 0x0 DUP3 DUP3 SLOAD PUSH2 0x3417 SWAP2 SWAP1 PUSH2 0x4554 JUMP JUMPDEST SWAP3 POP POP DUP2 SWAP1 SSTORE POP DUP2 DUP6 PUSH1 0x0 ADD PUSH1 0x2 ADD PUSH1 0x0 DUP3 DUP3 SLOAD PUSH2 0x3435 SWAP2 SWAP1 PUSH2 0x4554 JUMP JUMPDEST SWAP3 POP POP DUP2 SWAP1 SSTORE POP DUP1 DUP6 PUSH1 0x0 ADD PUSH1 0x3 ADD PUSH1 0x0 DUP3 DUP3 SLOAD PUSH2 0x3453 SWAP2 SWAP1 PUSH2 0x4554 JUMP JUMPDEST SWAP3 POP POP DUP2 SWAP1 SSTORE POP PUSH2 0x3463 DUP6 PUSH2 0x346F JUMP JUMPDEST POP POP POP POP POP POP POP POP POP POP JUMP JUMPDEST DUP1 PUSH1 0x0 ADD PUSH1 0x3 ADD SLOAD DUP2 PUSH1 0x0 ADD PUSH1 0x2 ADD SLOAD DUP3 PUSH1 0x0 ADD PUSH1 0x1 ADD SLOAD DUP4 PUSH1 0x0 ADD PUSH1 0x0 ADD SLOAD PUSH2 0x3499 SWAP2 SWAP1 PUSH2 0x424C JUMP JUMPDEST PUSH2 0x34A3 SWAP2 SWAP1 PUSH2 0x424C JUMP JUMPDEST PUSH2 0x34AD SWAP2 SWAP1 PUSH2 0x424C JUMP JUMPDEST DUP2 PUSH1 0xF ADD DUP2 SWAP1 SSTORE POP POP JUMP JUMPDEST PUSH1 0x40 MLOAD DUP1 PUSH2 0x1E0 ADD PUSH1 0x40 MSTORE DUP1 PUSH1 0x0 DUP2 MSTORE PUSH1 0x20 ADD PUSH1 0x0 DUP2 MSTORE PUSH1 0x20 ADD PUSH1 0x0 DUP2 MSTORE PUSH1 0x20 ADD PUSH1 0x0 DUP2 MSTORE PUSH1 0x20 ADD PUSH1 0x0 PUSH2 0xFFFF AND DUP2 MSTORE PUSH1 0x20 ADD PUSH1 0x0 DUP2 MSTORE PUSH1 0x20 ADD PUSH1 0x0 DUP2 MSTORE PUSH1 0x20 ADD PUSH1 0x0 DUP2 MSTORE PUSH1 0x20 ADD PUSH1 0x0 DUP2 MSTORE PUSH1 0x20 ADD PUSH1 0x0 DUP2 MSTORE PUSH1 0x20 ADD PUSH1 0x0 DUP2 MSTORE PUSH1 0x20 ADD PUSH1 0x0 DUP2 MSTORE PUSH1 0x20 ADD PUSH1 0x0 PUSH1 0xFF AND DUP2 MSTORE PUSH1 0x20 ADD PUSH1 0x0 PUSH1 0xFF AND DUP2 MSTORE PUSH1 0x20 ADD PUSH1 0x0 DUP2 MSTORE POP SWAP1 JUMP JUMPDEST PUSH1 0x40 MLOAD DUP1 PUSH2 0x120 ADD PUSH1 0x40 MSTORE DUP1 PUSH1 0x9 SWAP1 JUMPDEST PUSH2 0x3550 PUSH2 0x3566 JUMP JUMPDEST DUP2 MSTORE PUSH1 0x20 ADD SWAP1 PUSH1 0x1 SWAP1 SUB SWAP1 DUP2 PUSH2 0x3548 JUMPI SWAP1 POP POP SWAP1 JUMP JUMPDEST PUSH1 0x40 MLOAD DUP1 PUSH2 0x120 ADD PUSH1 0x40 MSTORE DUP1 PUSH1 0x9 SWAP1 PUSH1 0x20 DUP3 MUL DUP1 CALLDATASIZE DUP4 CALLDATACOPY DUP1 DUP3 ADD SWAP2 POP POP SWAP1 POP POP SWAP1 JUMP JUMPDEST PUSH1 0x0 DUP1 REVERT JUMPDEST PUSH1 0x0 PUSH1 0xFF DUP3 AND SWAP1 POP SWAP2 SWAP1 POP JUMP JUMPDEST PUSH2 0x35A4 DUP2 PUSH2 0x358E JUMP JUMPDEST DUP2 EQ PUSH2 0x35AF JUMPI PUSH1 0x0 DUP1 REVERT JUMPDEST POP JUMP JUMPDEST PUSH1 0x0 DUP2 CALLDATALOAD SWAP1 POP PUSH2 0x35C1 DUP2 PUSH2 0x359B JUMP JUMPDEST SWAP3 SWAP2 POP POP JUMP JUMPDEST PUSH1 0x0 DUP2 SWAP1 POP SWAP2 SWAP1 POP JUMP JUMPDEST PUSH2 0x35DA DUP2 PUSH2 0x35C7 JUMP JUMPDEST DUP2 EQ PUSH2 0x35E5 JUMPI PUSH1 0x0 DUP1 REVERT JUMPDEST POP JUMP JUMPDEST PUSH1 0x0 DUP2 CALLDATALOAD SWAP1 POP PUSH2 0x35F7 DUP2 PUSH2 0x35D1 JUMP JUMPDEST SWAP3 SWAP2 POP POP JUMP JUMPDEST PUSH1 0x0 DUP1 PUSH1 0x0 DUP1 PUSH1 0x80 DUP6 DUP8 SUB SLT ISZERO PUSH2 0x3617 JUMPI PUSH2 0x3616 PUSH2 0x3589 JUMP JUMPDEST JUMPDEST PUSH1 0x0 PUSH2 0x3625 DUP8 DUP3 DUP9 ADD PUSH2 0x35B2 JUMP JUMPDEST SWAP5 POP POP PUSH1 0x20 PUSH2 0x3636 DUP8 DUP3 DUP9 ADD PUSH2 0x35B2 JUMP JUMPDEST SWAP4 POP POP PUSH1 0x40 PUSH2 0x3647 DUP8 DUP3 DUP9 ADD PUSH2 0x35B2 JUMP JUMPDEST SWAP3 POP POP PUSH1 0x60 PUSH2 0x3658 DUP8 DUP3 DUP9 ADD PUSH2 0x35E8 JUMP JUMPDEST SWAP2 POP POP SWAP3 SWAP6 SWAP2 SWAP5 POP SWAP3 POP JUMP JUMPDEST PUSH1 0x0 DUP1 PUSH1 0x0 DUP1 PUSH1 0x0 PUSH1 0xA0 DUP7 DUP9 SUB SLT ISZERO PUSH2 0x3680 JUMPI PUSH2 0x367F PUSH2 0x3589 JUMP JUMPDEST JUMPDEST PUSH1 0x0 PUSH2 0x368E DUP9 DUP3 DUP10 ADD PUSH2 0x35B2 JUMP JUMPDEST SWAP6 POP POP PUSH1 0x20 PUSH2 0x369F DUP9 DUP3 DUP10 ADD PUSH2 0x35B2 JUMP JUMPDEST SWAP5 POP POP PUSH1 0x40 PUSH2 0x36B0 DUP9 DUP3 DUP10 ADD PUSH2 0x35B2 JUMP JUMPDEST SWAP4 POP POP PUSH1 0x60 PUSH2 0x36C1 DUP9 DUP3 DUP10 ADD PUSH2 0x35B2 JUMP JUMPDEST SWAP3 POP POP PUSH1 0x80 PUSH2 0x36D2 DUP9 DUP3 DUP10 ADD PUSH2 0x35B2 JUMP JUMPDEST SWAP2 POP POP SWAP3 SWAP6 POP SWAP3 SWAP6 SWAP1 SWAP4 POP JUMP JUMPDEST PUSH1 0x0 DUP1 PUSH1 0x0 PUSH1 0x60 DUP5 DUP7 SUB SLT ISZERO PUSH2 0x36F8 JUMPI PUSH2 0x36F7 PUSH2 0x3589 JUMP JUMPDEST JUMPDEST PUSH1 0x0 PUSH2 0x3706 DUP7 DUP3 DUP8 ADD PUSH2 0x35B2 JUMP JUMPDEST SWAP4 POP POP PUSH1 0x20 PUSH2 0x3717 DUP7 DUP3 DUP8 ADD PUSH2 0x35B2 JUMP JUMPDEST SWAP3 POP POP PUSH1 0x40 PUSH2 0x3728 DUP7 DUP3 DUP8 ADD PUSH2 0x35B2 JUMP JUMPDEST SWAP2 POP POP SWAP3 POP SWAP3 POP SWAP3 JUMP JUMPDEST PUSH1 0x0 DUP2 ISZERO ISZERO SWAP1 POP SWAP2 SWAP1 POP JUMP JUMPDEST PUSH2 0x3747 DUP2 PUSH2 0x3732 JUMP JUMPDEST DUP2 EQ PUSH2 0x3752 JUMPI PUSH1 0x0 DUP1 REVERT JUMPDEST POP JUMP JUMPDEST PUSH1 0x0 DUP2 CALLDATALOAD SWAP1 POP PUSH2 0x3764 DUP2 PUSH2 0x373E JUMP JUMPDEST SWAP3 SWAP2 POP POP JUMP JUMPDEST PUSH1 0x0 DUP1 PUSH1 0x0 DUP1 PUSH1 0x0 PUSH1 0xA0 DUP7 DUP9 SUB SLT ISZERO PUSH2 0x3786 JUMPI PUSH2 0x3785 PUSH2 0x3589 JUMP JUMPDEST JUMPDEST PUSH1 0x0 PUSH2 0x3794 DUP9 DUP3 DUP10 ADD PUSH2 0x35B2 JUMP JUMPDEST SWAP6 POP POP PUSH1 0x20 PUSH2 0x37A5 DUP9 DUP3 DUP10 ADD PUSH2 0x35B2 JUMP JUMPDEST SWAP5 POP POP PUSH1 0x40 PUSH2 0x37B6 DUP9 DUP3 DUP10 ADD PUSH2 0x35B2 JUMP JUMPDEST SWAP4 POP POP PUSH1 0x60 PUSH2 0x37C7 DUP9 DUP3 DUP10 ADD PUSH2 0x35E8 JUMP JUMPDEST SWAP3 POP POP PUSH1 0x80 PUSH2 0x37D8 DUP9 DUP3 DUP10 ADD PUSH2 0x3755 JUMP JUMPDEST SWAP2 POP POP SWAP3 SWAP6 POP SWAP3 SWAP6 SWAP1 SWAP4 POP JUMP JUMPDEST PUSH1 0x0 PUSH20 0xFFFFFFFFFFFFFFFFFFFFFFFFFFFFFFFFFFFFFFFF DUP3 AND SWAP1 POP SWAP2 SWAP1 POP JUMP JUMPDEST PUSH1 0x0 DUP2 SWAP1 POP SWAP2 SWAP1 POP JUMP JUMPDEST PUSH1 0x0 PUSH2 0x382A PUSH2 0x3825 PUSH2 0x3820 DUP5 PUSH2 0x37E5 JUMP JUMPDEST PUSH2 0x3805 JUMP JUMPDEST PUSH2 0x37E5 JUMP JUMPDEST SWAP1 POP SWAP2 SWAP1 POP JUMP JUMPDEST PUSH1 0x0 PUSH2 0x383C DUP3 PUSH2 0x380F JUMP JUMPDEST SWAP1 POP SWAP2 SWAP1 POP JUMP JUMPDEST PUSH1 0x0 PUSH2 0x384E DUP3 PUSH2 0x3831 JUMP JUMPDEST SWAP1 POP SWAP2 SWAP1 POP JUMP JUMPDEST PUSH2 0x385E DUP2 PUSH2 0x3843 JUMP JUMPDEST DUP3 MSTORE POP POP JUMP JUMPDEST PUSH1 0x0 PUSH1 0x20 DUP3 ADD SWAP1 POP PUSH2 0x3879 PUSH1 0x0 DUP4 ADD DUP5 PUSH2 0x3855 JUMP JUMPDEST SWAP3 SWAP2 POP POP JUMP JUMPDEST PUSH2 0x3888 DUP2 PUSH2 0x35C7 JUMP JUMPDEST DUP3 MSTORE POP POP JUMP JUMPDEST PUSH1 0x0 PUSH1 0x80 DUP3 ADD SWAP1 POP PUSH2 0x38A3 PUSH1 0x0 DUP4 ADD DUP8 PUSH2 0x387F JUMP JUMPDEST PUSH2 0x38B0 PUSH1 0x20 DUP4 ADD DUP7 PUSH2 0x387F JUMP JUMPDEST PUSH2 0x38BD PUSH1 0x40 DUP4 ADD DUP6 PUSH2 0x387F JUMP JUMPDEST PUSH2 0x38CA PUSH1 0x60 DUP4 ADD DUP5 PUSH2 0x387F JUMP JUMPDEST SWAP6 SWAP5 POP POP POP POP POP JUMP JUMPDEST PUSH1 0x0 PUSH2 0x38DE DUP3 PUSH2 0x37E5 JUMP JUMPDEST SWAP1 POP SWAP2 SWAP1 POP JUMP JUMPDEST PUSH2 0x38EE DUP2 PUSH2 0x38D3 JUMP JUMPDEST DUP3 MSTORE POP POP JUMP JUMPDEST PUSH1 0x0 PUSH1 0x20 DUP3 ADD SWAP1 POP PUSH2 0x3909 PUSH1 0x0 DUP4 ADD DUP5 PUSH2 0x38E5 JUMP JUMPDEST SWAP3 SWAP2 POP POP JUMP JUMPDEST PUSH1 0x0 DUP1 PUSH1 0x40 DUP4 DUP6 SUB SLT ISZERO PUSH2 0x3926 JUMPI PUSH2 0x3925 PUSH2 0x3589 JUMP JUMPDEST JUMPDEST PUSH1 0x0 PUSH2 0x3934 DUP6 DUP3 DUP7 ADD PUSH2 0x35B2 JUMP JUMPDEST SWAP3 POP POP PUSH1 0x20 PUSH2 0x3945 DUP6 DUP3 DUP7 ADD PUSH2 0x35B2 JUMP JUMPDEST SWAP2 POP POP SWAP3 POP SWAP3 SWAP1 POP JUMP JUMPDEST PUSH2 0x3958 DUP2 PUSH2 0x35C7 JUMP JUMPDEST DUP3 MSTORE POP POP JUMP JUMPDEST PUSH1 0x80 DUP3 ADD PUSH1 0x0 DUP3 ADD MLOAD PUSH2 0x3974 PUSH1 0x0 DUP6 ADD DUP3 PUSH2 0x394F JUMP JUMPDEST POP PUSH1 0x20 DUP3 ADD MLOAD PUSH2 0x3987 PUSH1 0x20 DUP6 ADD DUP3 PUSH2 0x394F JUMP JUMPDEST POP PUSH1 0x40 DUP3 ADD MLOAD PUSH2 0x399A PUSH1 0x40 DUP6 ADD DUP3 PUSH2 0x394F JUMP JUMPDEST POP PUSH1 0x60 DUP3 ADD MLOAD PUSH2 0x39AD PUSH1 0x60 DUP6 ADD DUP3 PUSH2 0x394F JUMP JUMPDEST POP POP POP POP JUMP JUMPDEST PUSH1 0x0 PUSH2 0xFFFF DUP3 AND SWAP1 POP SWAP2 SWAP1 POP JUMP JUMPDEST PUSH2 0x39CA DUP2 PUSH2 0x39B3 JUMP JUMPDEST DUP3 MSTORE POP POP JUMP JUMPDEST PUSH1 0xC0 DUP3 ADD PUSH1 0x0 DUP3 ADD MLOAD PUSH2 0x39E6 PUSH1 0x0 DUP6 ADD DUP3 PUSH2 0x394F JUMP JUMPDEST POP PUSH1 0x20 DUP3 ADD MLOAD PUSH2 0x39F9 PUSH1 0x20 DUP6 ADD DUP3 PUSH2 0x394F JUMP JUMPDEST POP PUSH1 0x40 DUP3 ADD MLOAD PUSH2 0x3A0C PUSH1 0x40 DUP6 ADD DUP3 PUSH2 0x394F JUMP JUMPDEST POP PUSH1 0x60 DUP3 ADD MLOAD PUSH2 0x3A1F PUSH1 0x60 DUP6 ADD DUP3 PUSH2 0x394F JUMP JUMPDEST POP PUSH1 0x80 DUP3 ADD MLOAD PUSH2 0x3A32 PUSH1 0x80 DUP6 ADD DUP3 PUSH2 0x394F JUMP JUMPDEST POP PUSH1 0xA0 DUP3 ADD MLOAD PUSH2 0x3A45 PUSH1 0xA0 DUP6 ADD DUP3 PUSH2 0x394F JUMP JUMPDEST POP POP POP POP JUMP JUMPDEST PUSH2 0x3A54 DUP2 PUSH2 0x358E JUMP JUMPDEST DUP3 MSTORE POP POP JUMP JUMPDEST PUSH1 0x40 DUP3 ADD PUSH1 0x0 DUP3 ADD MLOAD PUSH2 0x3A70 PUSH1 0x0 DUP6 ADD DUP3 PUSH2 0x3A4B JUMP JUMPDEST POP PUSH1 0x20 DUP3 ADD MLOAD PUSH2 0x3A83 PUSH1 0x20 DUP6 ADD DUP3 PUSH2 0x3A4B JUMP JUMPDEST POP POP POP POP JUMP JUMPDEST PUSH1 0x0 PUSH2 0x220 DUP3 ADD SWAP1 POP PUSH2 0x3A9F PUSH1 0x0 DUP4 ADD DUP12 PUSH2 0x395E JUMP JUMPDEST PUSH2 0x3AAC PUSH1 0x80 DUP4 ADD DUP11 PUSH2 0x39C1 JUMP JUMPDEST PUSH2 0x3AB9 PUSH1 0xA0 DUP4 ADD DUP10 PUSH2 0x387F JUMP JUMPDEST PUSH2 0x3AC6 PUSH1 0xC0 DUP4 ADD DUP9 PUSH2 0x39C1 JUMP JUMPDEST PUSH2 0x3AD3 PUSH1 0xE0 DUP4 ADD DUP8 PUSH2 0x387F JUMP JUMPDEST PUSH2 0x3AE1 PUSH2 0x100 DUP4 ADD DUP7 PUSH2 0x39D0 JUMP JUMPDEST PUSH2 0x3AEF PUSH2 0x1C0 DUP4 ADD DUP6 PUSH2 0x3A5A JUMP JUMPDEST PUSH2 0x3AFD PUSH2 0x200 DUP4 ADD DUP5 PUSH2 0x387F JUMP JUMPDEST SWAP10 SWAP9 POP POP POP POP POP POP POP POP POP JUMP JUMPDEST PUSH1 0x0 DUP1 PUSH1 0x0 DUP1 PUSH1 0x80 DUP6 DUP8 SUB SLT ISZERO PUSH2 0x3B24 JUMPI PUSH2 0x3B23 PUSH2 0x3589 JUMP JUMPDEST JUMPDEST PUSH1 0x0 PUSH2 0x3B32 DUP8 DUP3 DUP9 ADD PUSH2 0x35B2 JUMP JUMPDEST SWAP5 POP POP PUSH1 0x20 PUSH2 0x3B43 DUP8 DUP3 DUP9 ADD PUSH2 0x35B2 JUMP JUMPDEST SWAP4 POP POP PUSH1 0x40 PUSH2 0x3B54 DUP8 DUP3 DUP9 ADD PUSH2 0x35B2 JUMP JUMPDEST SWAP3 POP POP PUSH1 0x60 PUSH2 0x3B65 DUP8 DUP3 DUP9 ADD PUSH2 0x35B2 JUMP JUMPDEST SWAP2 POP POP SWAP3 SWAP6 SWAP2 SWAP5 POP SWAP3 POP JUMP JUMPDEST PUSH2 0x3B7A DUP2 PUSH2 0x358E JUMP JUMPDEST DUP3 MSTORE POP POP JUMP JUMPDEST PUSH1 0x0 PUSH1 0x20 DUP3 ADD SWAP1 POP PUSH2 0x3B95 PUSH1 0x0 DUP4 ADD DUP5 PUSH2 0x3B71 JUMP JUMPDEST SWAP3 SWAP2 POP POP JUMP JUMPDEST PUSH1 0x0 DUP1 PUSH1 0x40 DUP4 DUP6 SUB SLT ISZERO PUSH2 0x3BB2 JUMPI PUSH2 0x3BB1 PUSH2 0x3589 JUMP JUMPDEST JUMPDEST PUSH1 0x0 PUSH2 0x3BC0 DUP6 DUP3 DUP7 ADD PUSH2 0x35E8 JUMP JUMPDEST SWAP3 POP POP PUSH1 0x20 PUSH2 0x3BD1 DUP6 DUP3 DUP7 ADD PUSH2 0x35E8 JUMP JUMPDEST SWAP2 POP POP SWAP3 POP SWAP3 SWAP1 POP JUMP JUMPDEST PUSH2 0x3BE4 DUP2 PUSH2 0x39B3 JUMP JUMPDEST DUP3 MSTORE POP POP JUMP JUMPDEST PUSH2 0x1E0 DUP3 ADD PUSH1 0x0 DUP3 ADD MLOAD PUSH2 0x3C01 PUSH1 0x0 DUP6 ADD DUP3 PUSH2 0x394F JUMP JUMPDEST POP PUSH1 0x20 DUP3 ADD MLOAD PUSH2 0x3C14 PUSH1 0x20 DUP6 ADD DUP3 PUSH2 0x394F JUMP JUMPDEST POP PUSH1 0x40 DUP3 ADD MLOAD PUSH2 0x3C27 PUSH1 0x40 DUP6 ADD DUP3 PUSH2 0x394F JUMP JUMPDEST POP PUSH1 0x60 DUP3 ADD MLOAD PUSH2 0x3C3A PUSH1 0x60 DUP6 ADD DUP3 PUSH2 0x394F JUMP JUMPDEST POP PUSH1 0x80 DUP3 ADD MLOAD PUSH2 0x3C4D PUSH1 0x80 DUP6 ADD DUP3 PUSH2 0x3BDB JUMP JUMPDEST POP PUSH1 0xA0 DUP3 ADD MLOAD PUSH2 0x3C60 PUSH1 0xA0 DUP6 ADD DUP3 PUSH2 0x394F JUMP JUMPDEST POP PUSH1 0xC0 DUP3 ADD MLOAD PUSH2 0x3C73 PUSH1 0xC0 DUP6 ADD DUP3 PUSH2 0x394F JUMP JUMPDEST POP PUSH1 0xE0 DUP3 ADD MLOAD PUSH2 0x3C86 PUSH1 0xE0 DUP6 ADD DUP3 PUSH2 0x394F JUMP JUMPDEST POP PUSH2 0x100 DUP3 ADD MLOAD PUSH2 0x3C9B PUSH2 0x100 DUP6 ADD DUP3 PUSH2 0x394F JUMP JUMPDEST POP PUSH2 0x120 DUP3 ADD MLOAD PUSH2 0x3CB0 PUSH2 0x120 DUP6 ADD DUP3 PUSH2 0x394F JUMP JUMPDEST POP PUSH2 0x140 DUP3 ADD MLOAD PUSH2 0x3CC5 PUSH2 0x140 DUP6 ADD DUP3 PUSH2 0x394F JUMP JUMPDEST POP PUSH2 0x160 DUP3 ADD MLOAD PUSH2 0x3CDA PUSH2 0x160 DUP6 ADD DUP3 PUSH2 0x394F JUMP JUMPDEST POP PUSH2 0x180 DUP3 ADD MLOAD PUSH2 0x3CEF PUSH2 0x180 DUP6 ADD DUP3 PUSH2 0x3A4B JUMP JUMPDEST POP PUSH2 0x1A0 DUP3 ADD MLOAD PUSH2 0x3D04 PUSH2 0x1A0 DUP6 ADD DUP3 PUSH2 0x3A4B JUMP JUMPDEST POP PUSH2 0x1C0 DUP3 ADD MLOAD PUSH2 0x3D19 PUSH2 0x1C0 DUP6 ADD DUP3 PUSH2 0x394F JUMP JUMPDEST POP POP POP POP JUMP JUMPDEST PUSH1 0x0 PUSH2 0x1E0 DUP3 ADD SWAP1 POP PUSH2 0x3D35 PUSH1 0x0 DUP4 ADD DUP5 PUSH2 0x3BEA JUMP JUMPDEST SWAP3 SWAP2 POP POP JUMP JUMPDEST PUSH1 0x0 PUSH1 0x20 DUP3 ADD SWAP1 POP PUSH2 0x3D50 PUSH1 0x0 DUP4 ADD DUP5 PUSH2 0x387F JUMP JUMPDEST SWAP3 SWAP2 POP POP JUMP JUMPDEST PUSH1 0x0 PUSH1 0x9 SWAP1 POP SWAP2 SWAP1 POP JUMP JUMPDEST PUSH1 0x0 DUP2 SWAP1 POP SWAP3 SWAP2 POP POP JUMP JUMPDEST PUSH1 0x0 DUP2 SWAP1 POP SWAP2 SWAP1 POP JUMP JUMPDEST PUSH1 0x0 PUSH1 0x9 SWAP1 POP SWAP2 SWAP1 POP JUMP JUMPDEST PUSH1 0x0 DUP2 SWAP1 POP SWAP3 SWAP2 POP POP JUMP JUMPDEST PUSH1 0x0 DUP2 SWAP1 POP SWAP2 SWAP1 POP JUMP JUMPDEST PUSH1 0x0 PUSH2 0x3DA2 DUP4 DUP4 PUSH2 0x3A4B JUMP JUMPDEST PUSH1 0x20 DUP4 ADD SWAP1 POP SWAP3 SWAP2 POP POP JUMP JUMPDEST PUSH1 0x0 PUSH1 0x20 DUP3 ADD SWAP1 POP SWAP2 SWAP1 POP JUMP JUMPDEST PUSH2 0x3DC4 DUP2 PUSH2 0x3D76 JUMP JUMPDEST PUSH2 0x3DCE DUP2 DUP5 PUSH2 0x3D81 JUMP JUMPDEST SWAP3 POP PUSH2 0x3DD9 DUP3 PUSH2 0x3D8C JUMP JUMPDEST DUP1 PUSH1 0x0 JUMPDEST DUP4 DUP2 LT ISZERO PUSH2 0x3E0A JUMPI DUP2 MLOAD PUSH2 0x3DF1 DUP8 DUP3 PUSH2 0x3D96 JUMP JUMPDEST SWAP7 POP PUSH2 0x3DFC DUP4 PUSH2 0x3DAE JUMP JUMPDEST SWAP3 POP POP PUSH1 0x1 DUP2 ADD SWAP1 POP PUSH2 0x3DDD JUMP JUMPDEST POP POP POP POP POP POP JUMP JUMPDEST PUSH1 0x0 PUSH2 0x3E1E DUP4 DUP4 PUSH2 0x3DBB JUMP JUMPDEST PUSH2 0x120 DUP4 ADD SWAP1 POP SWAP3 SWAP2 POP POP JUMP JUMPDEST PUSH1 0x0 PUSH1 0x20 DUP3 ADD SWAP1 POP SWAP2 SWAP1 POP JUMP JUMPDEST PUSH2 0x3E41 DUP2 PUSH2 0x3D56 JUMP JUMPDEST PUSH2 0x3E4B DUP2 DUP5 PUSH2 0x3D61 JUMP JUMPDEST SWAP3 POP PUSH2 0x3E56 DUP3 PUSH2 0x3D6C JUMP JUMPDEST DUP1 PUSH1 0x0 JUMPDEST DUP4 DUP2 LT ISZERO PUSH2 0x3E87 JUMPI DUP2 MLOAD PUSH2 0x3E6E DUP8 DUP3 PUSH2 0x3E12 JUMP JUMPDEST SWAP7 POP PUSH2 0x3E79 DUP4 PUSH2 0x3E2B JUMP JUMPDEST SWAP3 POP POP PUSH1 0x1 DUP2 ADD SWAP1 POP PUSH2 0x3E5A JUMP JUMPDEST POP POP POP POP POP POP JUMP JUMPDEST PUSH1 0x0 PUSH2 0xA20 DUP3 ADD SWAP1 POP PUSH2 0x3EA5 PUSH1 0x0 DUP4 ADD DUP5 PUSH2 0x3E38 JUMP JUMPDEST SWAP3 SWAP2 POP POP JUMP JUMPDEST PUSH1 0x0 PUSH1 0x20 DUP3 DUP5 SUB SLT ISZERO PUSH2 0x3EC1 JUMPI PUSH2 0x3EC0 PUSH2 0x3589 JUMP JUMPDEST JUMPDEST PUSH1 0x0 PUSH2 0x3ECF DUP5 DUP3 DUP6 ADD PUSH2 0x35B2 JUMP JUMPDEST SWAP2 POP POP SWAP3 SWAP2 POP POP JUMP JUMPDEST PUSH1 0x0 PUSH1 0x20 DUP3 ADD SWAP1 POP PUSH2 0x3EED PUSH1 0x0 DUP4 ADD DUP5 PUSH2 0x39C1 JUMP JUMPDEST SWAP3 SWAP2 POP POP JUMP JUMPDEST PUSH2 0x3EFC DUP2 PUSH2 0x39B3 JUMP JUMPDEST DUP2 EQ PUSH2 0x3F07 JUMPI PUSH1 0x0 DUP1 REVERT JUMPDEST POP JUMP JUMPDEST PUSH1 0x0 DUP2 CALLDATALOAD SWAP1 POP PUSH2 0x3F19 DUP2 PUSH2 0x3EF3 JUMP JUMPDEST SWAP3 SWAP2 POP POP JUMP JUMPDEST PUSH1 0x0 DUP1 PUSH1 0x0 PUSH1 0x60 DUP5 DUP7 SUB SLT ISZERO PUSH2 0x3F38 JUMPI PUSH2 0x3F37 PUSH2 0x3589 JUMP JUMPDEST JUMPDEST PUSH1 0x0 PUSH2 0x3F46 DUP7 DUP3 DUP8 ADD PUSH2 0x3F0A JUMP JUMPDEST SWAP4 POP POP PUSH1 0x20 PUSH2 0x3F57 DUP7 DUP3 DUP8 ADD PUSH2 0x35B2 JUMP JUMPDEST SWAP3 POP POP PUSH1 0x40 PUSH2 0x3F68 DUP7 DUP3 DUP8 ADD PUSH2 0x35B2 JUMP JUMPDEST SWAP2 POP POP SWAP3 POP SWAP3 POP SWAP3 JUMP JUMPDEST PUSH2 0x3F7B DUP2 PUSH2 0x38D3 JUMP JUMPDEST DUP2 EQ PUSH2 0x3F86 JUMPI PUSH1 0x0 DUP1 REVERT JUMPDEST POP JUMP JUMPDEST PUSH1 0x0 DUP2 CALLDATALOAD SWAP1 POP PUSH2 0x3F98 DUP2 PUSH2 0x3F72 JUMP JUMPDEST SWAP3 SWAP2 POP POP JUMP JUMPDEST PUSH1 0x0 PUSH1 0x20 DUP3 DUP5 SUB SLT ISZERO PUSH2 0x3FB4 JUMPI PUSH2 0x3FB3 PUSH2 0x3589 JUMP JUMPDEST JUMPDEST PUSH1 0x0 PUSH2 0x3FC2 DUP5 DUP3 DUP6 ADD PUSH2 0x3F89 JUMP JUMPDEST SWAP2 POP POP SWAP3 SWAP2 POP POP JUMP JUMPDEST PUSH1 0x0 PUSH1 0x40 DUP3 ADD SWAP1 POP PUSH2 0x3FE0 PUSH1 0x0 DUP4 ADD DUP6 PUSH2 0x3B71 JUMP JUMPDEST PUSH2 0x3FED PUSH1 0x20 DUP4 ADD DUP5 PUSH2 0x3B71 JUMP JUMPDEST SWAP4 SWAP3 POP POP POP JUMP JUMPDEST PUSH1 0x0 DUP2 MLOAD SWAP1 POP PUSH2 0x4003 DUP2 PUSH2 0x3F72 JUMP JUMPDEST SWAP3 SWAP2 POP POP JUMP JUMPDEST PUSH1 0x0 PUSH1 0x20 DUP3 DUP5 SUB SLT ISZERO PUSH2 0x401F JUMPI PUSH2 0x401E PUSH2 0x3589 JUMP JUMPDEST JUMPDEST PUSH1 0x0 PUSH2 0x402D DUP5 DUP3 DUP6 ADD PUSH2 0x3FF4 JUMP JUMPDEST SWAP2 POP POP SWAP3 SWAP2 POP POP JUMP JUMPDEST PUSH1 0x0 DUP3 DUP3 MSTORE PUSH1 0x20 DUP3 ADD SWAP1 POP SWAP3 SWAP2 POP POP JUMP JUMPDEST PUSH32 0x596F7520646F206E6F74206F776E20746869732074696C650000000000000000 PUSH1 0x0 DUP3 ADD MSTORE POP JUMP JUMPDEST PUSH1 0x0 PUSH2 0x407D PUSH1 0x18 DUP4 PUSH2 0x4036 JUMP JUMPDEST SWAP2 POP PUSH2 0x4088 DUP3 PUSH2 0x4047 JUMP JUMPDEST PUSH1 0x20 DUP3 ADD SWAP1 POP SWAP2 SWAP1 POP JUMP JUMPDEST PUSH1 0x0 PUSH1 0x20 DUP3 ADD SWAP1 POP DUP2 DUP2 SUB PUSH1 0x0 DUP4 ADD MSTORE PUSH2 0x40AC DUP2 PUSH2 0x4070 JUMP JUMPDEST SWAP1 POP SWAP2 SWAP1 POP JUMP JUMPDEST PUSH32 0x5175616E74697479206D7573742062652067726561746572207468616E207A65 PUSH1 0x0 DUP3 ADD MSTORE PUSH32 0x726F000000000000000000000000000000000000000000000000000000000000 PUSH1 0x20 DUP3 ADD MSTORE POP JUMP JUMPDEST PUSH1 0x0 PUSH2 0x410F PUSH1 0x22 DUP4 PUSH2 0x4036 JUMP JUMPDEST SWAP2 POP PUSH2 0x411A DUP3 PUSH2 0x40B3 JUMP JUMPDEST PUSH1 0x40 DUP3 ADD SWAP1 POP SWAP2 SWAP1 POP JUMP JUMPDEST PUSH1 0x0 PUSH1 0x20 DUP3 ADD SWAP1 POP DUP2 DUP2 SUB PUSH1 0x0 DUP4 ADD MSTORE PUSH2 0x413E DUP2 PUSH2 0x4102 JUMP JUMPDEST SWAP1 POP SWAP2 SWAP1 POP JUMP JUMPDEST PUSH32 0x496E76616C69642061726D6F7220747970650000000000000000000000000000 PUSH1 0x0 DUP3 ADD MSTORE POP JUMP JUMPDEST PUSH1 0x0 PUSH2 0x417B PUSH1 0x12 DUP4 PUSH2 0x4036 JUMP JUMPDEST SWAP2 POP PUSH2 0x4186 DUP3 PUSH2 0x4145 JUMP JUMPDEST PUSH1 0x20 DUP3 ADD SWAP1 POP SWAP2 SWAP1 POP JUMP JUMPDEST PUSH1 0x0 PUSH1 0x20 DUP3 ADD SWAP1 POP DUP2 DUP2 SUB PUSH1 0x0 DUP4 ADD MSTORE PUSH2 0x41AA DUP2 PUSH2 0x416E JUMP JUMPDEST SWAP1 POP SWAP2 SWAP1 POP JUMP JUMPDEST PUSH32 0x4E6F2061726D6F727920666F756E64206F6E20746869732074696C6500000000 PUSH1 0x0 DUP3 ADD MSTORE POP JUMP JUMPDEST PUSH1 0x0 PUSH2 0x41E7 PUSH1 0x1C DUP4 PUSH2 0x4036 JUMP JUMPDEST SWAP2 POP PUSH2 0x41F2 DUP3 PUSH2 0x41B1 JUMP JUMPDEST PUSH1 0x20 DUP3 ADD SWAP1 POP SWAP2 SWAP1 POP JUMP JUMPDEST PUSH1 0x0 PUSH1 0x20 DUP3 ADD SWAP1 POP DUP2 DUP2 SUB PUSH1 0x0 DUP4 ADD MSTORE PUSH2 0x4216 DUP2 PUSH2 0x41DA JUMP JUMPDEST SWAP1 POP SWAP2 SWAP1 POP JUMP JUMPDEST PUSH32 0x4E487B7100000000000000000000000000000000000000000000000000000000 PUSH1 0x0 MSTORE PUSH1 0x11 PUSH1 0x4 MSTORE PUSH1 0x24 PUSH1 0x0 REVERT JUMPDEST PUSH1 0x0 PUSH2 0x4257 DUP3 PUSH2 0x35C7 JUMP JUMPDEST SWAP2 POP PUSH2 0x4262 DUP4 PUSH2 0x35C7 JUMP JUMPDEST SWAP3 POP DUP3 DUP3 ADD SWAP1 POP DUP1 DUP3 GT ISZERO PUSH2 0x427A JUMPI PUSH2 0x4279 PUSH2 0x421D JUMP JUMPDEST JUMPDEST SWAP3 SWAP2 POP POP JUMP JUMPDEST PUSH32 0x496E76616C696420696E746572696F722074696C6520636F6F7264696E617465 PUSH1 0x0 DUP3 ADD MSTORE PUSH32 0x7300000000000000000000000000000000000000000000000000000000000000 PUSH1 0x20 DUP3 ADD MSTORE POP JUMP JUMPDEST PUSH1 0x0 PUSH2 0x42DC PUSH1 0x21 DUP4 PUSH2 0x4036 JUMP JUMPDEST SWAP2 POP PUSH2 0x42E7 DUP3 PUSH2 0x4280 JUMP JUMPDEST PUSH1 0x40 DUP3 ADD SWAP1 POP SWAP2 SWAP1 POP JUMP JUMPDEST PUSH1 0x0 PUSH1 0x20 DUP3 ADD SWAP1 POP DUP2 DUP2 SUB PUSH1 0x0 DUP4 ADD MSTORE PUSH2 0x430B DUP2 PUSH2 0x42CF JUMP JUMPDEST SWAP1 POP SWAP2 SWAP1 POP JUMP JUMPDEST PUSH32 0x41206275696C64696E6720616C726561647920657869737473206F6E20746869 PUSH1 0x0 DUP3 ADD MSTORE PUSH32 0x732074696C650000000000000000000000000000000000000000000000000000 PUSH1 0x20 DUP3 ADD MSTORE POP JUMP JUMPDEST PUSH1 0x0 PUSH2 0x436E PUSH1 0x26 DUP4 PUSH2 0x4036 JUMP JUMPDEST SWAP2 POP PUSH2 0x4379 DUP3 PUSH2 0x4312 JUMP JUMPDEST PUSH1 0x40 DUP3 ADD SWAP1 POP SWAP2 SWAP1 POP JUMP JUMPDEST PUSH1 0x0 PUSH1 0x20 DUP3 ADD SWAP1 POP DUP2 DUP2 SUB PUSH1 0x0 DUP4 ADD MSTORE PUSH2 0x439D DUP2 PUSH2 0x4361 JUMP JUMPDEST SWAP1 POP SWAP2 SWAP1 POP JUMP JUMPDEST PUSH32 0x4E6F7420656E6F75676820666F6F640000000000000000000000000000000000 PUSH1 0x0 DUP3 ADD MSTORE POP JUMP JUMPDEST PUSH1 0x0 PUSH2 0x43DA PUSH1 0xF DUP4 PUSH2 0x4036 JUMP JUMPDEST SWAP2 POP PUSH2 0x43E5 DUP3 PUSH2 0x43A4 JUMP JUMPDEST PUSH1 0x20 DUP3 ADD SWAP1 POP SWAP2 SWAP1 POP JUMP JUMPDEST PUSH1 0x0 PUSH1 0x20 DUP3 ADD SWAP1 POP DUP2 DUP2 SUB PUSH1 0x0 DUP4 ADD MSTORE PUSH2 0x4409 DUP2 PUSH2 0x43CD JUMP JUMPDEST SWAP1 POP SWAP2 SWAP1 POP JUMP JUMPDEST PUSH32 0x4E6F7420656E6F75676820776F6F640000000000000000000000000000000000 PUSH1 0x0 DUP3 ADD MSTORE POP JUMP JUMPDEST PUSH1 0x0 PUSH2 0x4446 PUSH1 0xF DUP4 PUSH2 0x4036 JUMP JUMPDEST SWAP2 POP PUSH2 0x4451 DUP3 PUSH2 0x4410 JUMP JUMPDEST PUSH1 0x20 DUP3 ADD SWAP1 POP SWAP2 SWAP1 POP JUMP JUMPDEST PUSH1 0x0 PUSH1 0x20 DUP3 ADD SWAP1 POP DUP2 DUP2 SUB PUSH1 0x0 DUP4 ADD MSTORE PUSH2 0x4475 DUP2 PUSH2 0x4439 JUMP JUMPDEST SWAP1 POP SWAP2 SWAP1 POP JUMP JUMPDEST PUSH32 0x4E6F7420656E6F7567682073746F6E6500000000000000000000000000000000 PUSH1 0x0 DUP3 ADD MSTORE POP JUMP JUMPDEST PUSH1 0x0 PUSH2 0x44B2 PUSH1 0x10 DUP4 PUSH2 0x4036 JUMP JUMPDEST SWAP2 POP PUSH2 0x44BD DUP3 PUSH2 0x447C JUMP JUMPDEST PUSH1 0x20 DUP3 ADD SWAP1 POP SWAP2 SWAP1 POP JUMP JUMPDEST PUSH1 0x0 PUSH1 0x20 DUP3 ADD SWAP1 POP DUP2 DUP2 SUB PUSH1 0x0 DUP4 ADD MSTORE PUSH2 0x44E1 DUP2 PUSH2 0x44A5 JUMP JUMPDEST SWAP1 POP SWAP2 SWAP1 POP JUMP JUMPDEST PUSH32 0x4E6F7420656E6F7567682069726F6E0000000000000000000000000000000000 PUSH1 0x0 DUP3 ADD MSTORE POP JUMP JUMPDEST PUSH1 0x0 PUSH2 0x451E PUSH1 0xF DUP4 PUSH2 0x4036 JUMP JUMPDEST SWAP2 POP PUSH2 0x4529 DUP3 PUSH2 0x44E8 JUMP JUMPDEST PUSH1 0x20 DUP3 ADD SWAP1 POP SWAP2 SWAP1 POP JUMP JUMPDEST PUSH1 0x0 PUSH1 0x20 DUP3 ADD SWAP1 POP DUP2 DUP2 SUB PUSH1 0x0 DUP4 ADD MSTORE PUSH2 0x454D DUP2 PUSH2 0x4511 JUMP JUMPDEST SWAP1 POP SWAP2 SWAP1 POP JUMP JUMPDEST PUSH1 0x0 PUSH2 0x455F DUP3 PUSH2 0x35C7 JUMP JUMPDEST SWAP2 POP PUSH2 0x456A DUP4 PUSH2 0x35C7 JUMP JUMPDEST SWAP3 POP DUP3 DUP3 SUB SWAP1 POP DUP2 DUP2 GT ISZERO PUSH2 0x4582 JUMPI PUSH2 0x4581 PUSH2 0x421D JUMP JUMPDEST JUMPDEST SWAP3 SWAP2 POP POP JUMP JUMPDEST PUSH32 0x496E76616C696420746563682074797065000000000000000000000000000000 PUSH1 0x0 DUP3 ADD MSTORE POP JUMP JUMPDEST PUSH1 0x0 PUSH2 0x45BE PUSH1 0x11 DUP4 PUSH2 0x4036 JUMP JUMPDEST SWAP2 POP PUSH2 0x45C9 DUP3 PUSH2 0x4588 JUMP JUMPDEST PUSH1 0x20 DUP3 ADD SWAP1 POP SWAP2 SWAP1 POP JUMP JUMPDEST PUSH1 0x0 PUSH1 0x20 DUP3 ADD SWAP1 POP DUP2 DUP2 SUB PUSH1 0x0 DUP4 ADD MSTORE PUSH2 0x45ED DUP2 PUSH2 0x45B1 JUMP JUMPDEST SWAP1 POP SWAP2 SWAP1 POP JUMP JUMPDEST PUSH32 0x5465636820697320616C7265616479206174206D6178206C6576656C00000000 PUSH1 0x0 DUP3 ADD MSTORE POP JUMP JUMPDEST PUSH1 0x0 PUSH2 0x462A PUSH1 0x1C DUP4 PUSH2 0x4036 JUMP JUMPDEST SWAP2 POP PUSH2 0x4635 DUP3 PUSH2 0x45F4 JUMP JUMPDEST PUSH1 0x20 DUP3 ADD SWAP1 POP SWAP2 SWAP1 POP JUMP JUMPDEST PUSH1 0x0 PUSH1 0x20 DUP3 ADD SWAP1 POP DUP2 DUP2 SUB PUSH1 0x0 DUP4 ADD MSTORE PUSH2 0x4659 DUP2 PUSH2 0x461D JUMP JUMPDEST SWAP1 POP SWAP2 SWAP1 POP JUMP JUMPDEST PUSH32 0x4E6F20776F726B73686F7020666F756E64206F6E20746869732074696C650000 PUSH1 0x0 DUP3 ADD MSTORE POP JUMP JUMPDEST PUSH1 0x0 PUSH2 0x4696 PUSH1 0x1E DUP4 PUSH2 0x4036 JUMP JUMPDEST SWAP2 POP PUSH2 0x46A1 DUP3 PUSH2 0x4660 JUMP JUMPDEST PUSH1 0x20 DUP3 ADD SWAP1 POP SWAP2 SWAP1 POP JUMP JUMPDEST PUSH1 0x0 PUSH1 0x20 DUP3 ADD SWAP1 POP DUP2 DUP2 SUB PUSH1 0x0 DUP4 ADD MSTORE PUSH2 0x46C5 DUP2 PUSH2 0x4689 JUMP JUMPDEST SWAP1 POP SWAP2 SWAP1 POP JUMP JUMPDEST PUSH1 0x0 PUSH2 0x46D7 DUP3 PUSH2 0x358E JUMP JUMPDEST SWAP2 POP PUSH2 0x46E2 DUP4 PUSH2 0x358E JUMP JUMPDEST SWAP3 POP DUP3 DUP3 ADD SWAP1 POP PUSH1 0xFF DUP2 GT ISZERO PUSH2 0x46FB JUMPI PUSH2 0x46FA PUSH2 0x421D JUMP JUMPDEST JUMPDEST SWAP3 SWAP2 POP POP JUMP JUMPDEST PUSH1 0x0 PUSH2 0x470C DUP3 PUSH2 0x35C7 JUMP JUMPDEST SWAP2 POP PUSH2 0x4717 DUP4 PUSH2 0x35C7 JUMP JUMPDEST SWAP3 POP DUP3 DUP3 MUL PUSH2 0x4725 DUP2 PUSH2 0x35C7 JUMP JUMPDEST SWAP2 POP DUP3 DUP3 DIV DUP5 EQ DUP4 ISZERO OR PUSH2 0x473C JUMPI PUSH2 0x473B PUSH2 0x421D JUMP JUMPDEST JUMPDEST POP SWAP3 SWAP2 POP POP JUMP JUMPDEST PUSH32 0x4E487B7100000000000000000000000000000000000000000000000000000000 PUSH1 0x0 MSTORE PUSH1 0x12 PUSH1 0x4 MSTORE PUSH1 0x24 PUSH1 0x0 REVERT JUMPDEST PUSH1 0x0 PUSH2 0x477D DUP3 PUSH2 0x35C7 JUMP JUMPDEST SWAP2 POP PUSH2 0x4788 DUP4 PUSH2 0x35C7 JUMP JUMPDEST SWAP3 POP DUP3 PUSH2 0x4798 JUMPI PUSH2 0x4797 PUSH2 0x4743 JUMP JUMPDEST JUMPDEST DUP3 DUP3 DIV SWAP1 POP SWAP3 SWAP2 POP POP JUMP JUMPDEST PUSH1 0x0 PUSH2 0x47AE DUP3 PUSH2 0x358E JUMP JUMPDEST SWAP2 POP PUSH1 0xFF DUP3 SUB PUSH2 0x47C1 JUMPI PUSH2 0x47C0 PUSH2 0x421D JUMP JUMPDEST JUMPDEST PUSH1 0x1 DUP3 ADD SWAP1 POP SWAP2 SWAP1 POP JUMP JUMPDEST PUSH1 0x0 DUP2 MLOAD SWAP1 POP SWAP2 SWAP1 POP JUMP JUMPDEST PUSH1 0x0 JUMPDEST DUP4 DUP2 LT ISZERO PUSH2 0x47F5 JUMPI DUP1 DUP3 ADD MLOAD DUP2 DUP5 ADD MSTORE PUSH1 0x20 DUP2 ADD SWAP1 POP PUSH2 0x47DA JUMP JUMPDEST PUSH1 0x0 DUP5 DUP5 ADD MSTORE POP POP POP POP JUMP JUMPDEST PUSH1 0x0 PUSH1 0x1F NOT PUSH1 0x1F DUP4 ADD AND SWAP1 POP SWAP2 SWAP1 POP JUMP JUMPDEST PUSH1 0x0 PUSH2 0x481D DUP3 PUSH2 0x47CC JUMP JUMPDEST PUSH2 0x4827 DUP2 DUP6 PUSH2 0x4036 JUMP JUMPDEST SWAP4 POP PUSH2 0x4837 DUP2 DUP6 PUSH1 0x20 DUP7 ADD PUSH2 0x47D7 JUMP JUMPDEST PUSH2 0x4840 DUP2 PUSH2 0x4801 JUMP JUMPDEST DUP5 ADD SWAP2 POP POP SWAP3 SWAP2 POP POP JUMP JUMPDEST PUSH1 0x0 PUSH1 0x80 DUP3 ADD SWAP1 POP PUSH2 0x4860 PUSH1 0x0 DUP4 ADD DUP8 PUSH2 0x3B71 JUMP JUMPDEST PUSH2 0x486D PUSH1 0x20 DUP4 ADD DUP7 PUSH2 0x3B71 JUMP JUMPDEST DUP2 DUP2 SUB PUSH1 0x40 DUP4 ADD MSTORE PUSH2 0x487F DUP2 DUP6 PUSH2 0x4812 JUMP JUMPDEST SWAP1 POP PUSH2 0x488E PUSH1 0x60 DUP4 ADD DUP5 PUSH2 0x3B71 JUMP JUMPDEST SWAP6 SWAP5 POP POP POP POP POP JUMP JUMPDEST PUSH32 0x556E617574686F72697A65642061636365737300000000000000000000000000 PUSH1 0x0 DUP3 ADD MSTORE POP JUMP JUMPDEST PUSH1 0x0 PUSH2 0x48CD PUSH1 0x13 DUP4 PUSH2 0x4036 JUMP JUMPDEST SWAP2 POP PUSH2 0x48D8 DUP3 PUSH2 0x4897 JUMP JUMPDEST PUSH1 0x20 DUP3 ADD SWAP1 POP SWAP2 SWAP1 POP JUMP JUMPDEST PUSH1 0x0 PUSH1 0x20 DUP3 ADD SWAP1 POP DUP2 DUP2 SUB PUSH1 0x0 DUP4 ADD MSTORE PUSH2 0x48FC DUP2 PUSH2 0x48C0 JUMP JUMPDEST SWAP1 POP SWAP2 SWAP1 POP JUMP JUMPDEST PUSH32 0x496E76616C696420776561706F6E207479706500000000000000000000000000 PUSH1 0x0 DUP3 ADD MSTORE POP JUMP JUMPDEST PUSH1 0x0 PUSH2 0x4939 PUSH1 0x13 DUP4 PUSH2 0x4036 JUMP JUMPDEST SWAP2 POP PUSH2 0x4944 DUP3 PUSH2 0x4903 JUMP JUMPDEST PUSH1 0x20 DUP3 ADD SWAP1 POP SWAP2 SWAP1 POP JUMP JUMPDEST PUSH1 0x0 PUSH1 0x20 DUP3 ADD SWAP1 POP DUP2 DUP2 SUB PUSH1 0x0 DUP4 ADD MSTORE PUSH2 0x4968 DUP2 PUSH2 0x492C JUMP JUMPDEST SWAP1 POP SWAP2 SWAP1 POP JUMP JUMPDEST PUSH32 0x4E6F20626C61636B736D69746820666F756E64206F6E20746869732074696C65 PUSH1 0x0 DUP3 ADD MSTORE POP JUMP JUMPDEST PUSH1 0x0 PUSH2 0x49A5 PUSH1 0x20 DUP4 PUSH2 0x4036 JUMP JUMPDEST SWAP2 POP PUSH2 0x49B0 DUP3 PUSH2 0x496F JUMP JUMPDEST PUSH1 0x20 DUP3 ADD SWAP1 POP SWAP2 SWAP1 POP JUMP JUMPDEST PUSH1 0x0 PUSH1 0x20 DUP3 ADD SWAP1 POP DUP2 DUP2 SUB PUSH1 0x0 DUP4 ADD MSTORE PUSH2 0x49D4 DUP2 PUSH2 0x4998 JUMP JUMPDEST SWAP1 POP SWAP2 SWAP1 POP JUMP JUMPDEST PUSH32 0x4E487B7100000000000000000000000000000000000000000000000000000000 PUSH1 0x0 MSTORE PUSH1 0x32 PUSH1 0x4 MSTORE PUSH1 0x24 PUSH1 0x0 REVERT JUMPDEST PUSH32 0x5475726E73206D7573742062652067726561746572207468616E203000000000 PUSH1 0x0 DUP3 ADD MSTORE POP JUMP JUMPDEST PUSH1 0x0 PUSH2 0x4A40 PUSH1 0x1C DUP4 PUSH2 0x4036 JUMP JUMPDEST SWAP2 POP PUSH2 0x4A4B DUP3 PUSH2 0x4A0A JUMP JUMPDEST PUSH1 0x20 DUP3 ADD SWAP1 POP SWAP2 SWAP1 POP JUMP JUMPDEST PUSH1 0x0 PUSH1 0x20 DUP3 ADD SWAP1 POP DUP2 DUP2 SUB PUSH1 0x0 DUP4 ADD MSTORE PUSH2 0x4A6F DUP2 PUSH2 0x4A33 JUMP JUMPDEST SWAP1 POP SWAP2 SWAP1 POP JUMP JUMPDEST PUSH32 0x5475726E58000000000000000000000000000000000000000000000000000000 PUSH1 0x0 DUP3 ADD MSTORE POP JUMP JUMPDEST PUSH1 0x0 PUSH2 0x4AAC PUSH1 0x5 DUP4 PUSH2 0x4036 JUMP JUMPDEST SWAP2 POP PUSH2 0x4AB7 DUP3 PUSH2 0x4A76 JUMP JUMPDEST PUSH1 0x20 DUP3 ADD SWAP1 POP SWAP2 SWAP1 POP JUMP JUMPDEST PUSH1 0x0 PUSH1 0x20 DUP3 ADD SWAP1 POP DUP2 DUP2 SUB PUSH1 0x0 DUP4 ADD MSTORE PUSH2 0x4ADB DUP2 PUSH2 0x4A9F JUMP JUMPDEST SWAP1 POP SWAP2 SWAP1 POP JUMP JUMPDEST PUSH1 0x0 PUSH2 0x4AED DUP3 PUSH2 0x39B3 JUMP JUMPDEST SWAP2 POP PUSH2 0x4AF8 DUP4 PUSH2 0x39B3 JUMP JUMPDEST SWAP3 POP DUP3 DUP3 SUB SWAP1 POP PUSH2 0xFFFF DUP2 GT ISZERO PUSH2 0x4B12 JUMPI PUSH2 0x4B11 PUSH2 0x421D JUMP JUMPDEST JUMPDEST SWAP3 SWAP2 POP POP JUMP JUMPDEST PUSH1 0x0 PUSH2 0x4B23 DUP3 PUSH2 0x35C7 JUMP JUMPDEST SWAP2 POP PUSH2 0x4B2E DUP4 PUSH2 0x35C7 JUMP JUMPDEST SWAP3 POP DUP3 PUSH2 0x4B3E JUMPI PUSH2 0x4B3D PUSH2 0x4743 JUMP JUMPDEST JUMPDEST DUP3 DUP3 MOD SWAP1 POP SWAP3 SWAP2 POP POP JUMP JUMPDEST PUSH1 0x0 PUSH2 0x4B54 DUP3 PUSH2 0x39B3 JUMP JUMPDEST SWAP2 POP PUSH2 0x4B5F DUP4 PUSH2 0x39B3 JUMP JUMPDEST SWAP3 POP DUP3 DUP3 ADD SWAP1 POP PUSH2 0xFFFF DUP2 GT ISZERO PUSH2 0x4B79 JUMPI PUSH2 0x4B78 PUSH2 0x421D JUMP JUMPDEST JUMPDEST SWAP3 SWAP2 POP POP JUMP JUMPDEST PUSH1 0x0 PUSH2 0x4B9A PUSH2 0x4B95 PUSH2 0x4B90 DUP5 PUSH2 0x39B3 JUMP JUMPDEST PUSH2 0x3805 JUMP JUMPDEST PUSH2 0x35C7 JUMP JUMPDEST SWAP1 POP SWAP2 SWAP1 POP JUMP JUMPDEST PUSH2 0x4BAA DUP2 PUSH2 0x4B7F JUMP JUMPDEST DUP3 MSTORE POP POP JUMP JUMPDEST PUSH1 0x0 PUSH1 0x60 DUP3 ADD SWAP1 POP PUSH2 0x4BC5 PUSH1 0x0 DUP4 ADD DUP7 PUSH2 0x4BA1 JUMP JUMPDEST PUSH2 0x4BD2 PUSH1 0x20 DUP4 ADD DUP6 PUSH2 0x3B71 JUMP JUMPDEST PUSH2 0x4BDF PUSH1 0x40 DUP4 ADD DUP5 PUSH2 0x3B71 JUMP JUMPDEST SWAP5 SWAP4 POP POP POP POP JUMP JUMPDEST PUSH32 0x496E76616C696420736F6C646965722074797065000000000000000000000000 PUSH1 0x0 DUP3 ADD MSTORE POP JUMP JUMPDEST PUSH1 0x0 PUSH2 0x4C1D PUSH1 0x14 DUP4 PUSH2 0x4036 JUMP JUMPDEST SWAP2 POP PUSH2 0x4C28 DUP3 PUSH2 0x4BE7 JUMP JUMPDEST PUSH1 0x20 DUP3 ADD SWAP1 POP SWAP2 SWAP1 POP JUMP JUMPDEST PUSH1 0x0 PUSH1 0x20 DUP3 ADD SWAP1 POP DUP2 DUP2 SUB PUSH1 0x0 DUP4 ADD MSTORE PUSH2 0x4C4C DUP2 PUSH2 0x4C10 JUMP JUMPDEST SWAP1 POP SWAP2 SWAP1 POP JUMP JUMPDEST PUSH32 0x4E6F204669676874696E672050697420666F756E64206F6E2074686973207469 PUSH1 0x0 DUP3 ADD MSTORE PUSH32 0x6C65000000000000000000000000000000000000000000000000000000000000 PUSH1 0x20 DUP3 ADD MSTORE POP JUMP JUMPDEST PUSH1 0x0 PUSH2 0x4CAF PUSH1 0x22 DUP4 PUSH2 0x4036 JUMP JUMPDEST SWAP2 POP PUSH2 0x4CBA DUP3 PUSH2 0x4C53 JUMP JUMPDEST PUSH1 0x40 DUP3 ADD SWAP1 POP SWAP2 SWAP1 POP JUMP JUMPDEST PUSH1 0x0 PUSH1 0x20 DUP3 ADD SWAP1 POP DUP2 DUP2 SUB PUSH1 0x0 DUP4 ADD MSTORE PUSH2 0x4CDE DUP2 PUSH2 0x4CA2 JUMP JUMPDEST SWAP1 POP SWAP2 SWAP1 POP JUMP JUMPDEST PUSH32 0x4E6F7420656E6F756768206F6666656E736976652061726D6F72000000000000 PUSH1 0x0 DUP3 ADD MSTORE POP JUMP JUMPDEST PUSH1 0x0 PUSH2 0x4D1B PUSH1 0x1A DUP4 PUSH2 0x4036 JUMP JUMPDEST SWAP2 POP PUSH2 0x4D26 DUP3 PUSH2 0x4CE5 JUMP JUMPDEST PUSH1 0x20 DUP3 ADD SWAP1 POP SWAP2 SWAP1 POP JUMP JUMPDEST PUSH1 0x0 PUSH1 0x20 DUP3 ADD SWAP1 POP DUP2 DUP2 SUB PUSH1 0x0 DUP4 ADD MSTORE PUSH2 0x4D4A DUP2 PUSH2 0x4D0E JUMP JUMPDEST SWAP1 POP SWAP2 SWAP1 POP JUMP JUMPDEST PUSH32 0x4E6F7420656E6F756768206F6666656E7369766520776561706F6E7300000000 PUSH1 0x0 DUP3 ADD MSTORE POP JUMP JUMPDEST PUSH1 0x0 PUSH2 0x4D87 PUSH1 0x1C DUP4 PUSH2 0x4036 JUMP JUMPDEST SWAP2 POP PUSH2 0x4D92 DUP3 PUSH2 0x4D51 JUMP JUMPDEST PUSH1 0x20 DUP3 ADD SWAP1 POP SWAP2 SWAP1 POP JUMP JUMPDEST PUSH1 0x0 PUSH1 0x20 DUP3 ADD SWAP1 POP DUP2 DUP2 SUB PUSH1 0x0 DUP4 ADD MSTORE PUSH2 0x4DB6 DUP2 PUSH2 0x4D7A JUMP JUMPDEST SWAP1 POP SWAP2 SWAP1 POP JUMP JUMPDEST PUSH32 0x4E6F7420656E6F75676820646566656E736976652061726D6F72000000000000 PUSH1 0x0 DUP3 ADD MSTORE POP JUMP JUMPDEST PUSH1 0x0 PUSH2 0x4DF3 PUSH1 0x1A DUP4 PUSH2 0x4036 JUMP JUMPDEST SWAP2 POP PUSH2 0x4DFE DUP3 PUSH2 0x4DBD JUMP JUMPDEST PUSH1 0x20 DUP3 ADD SWAP1 POP SWAP2 SWAP1 POP JUMP JUMPDEST PUSH1 0x0 PUSH1 0x20 DUP3 ADD SWAP1 POP DUP2 DUP2 SUB PUSH1 0x0 DUP4 ADD MSTORE PUSH2 0x4E22 DUP2 PUSH2 0x4DE6 JUMP JUMPDEST SWAP1 POP SWAP2 SWAP1 POP JUMP JUMPDEST PUSH32 0x4E6F7420656E6F75676820646566656E7369766520776561706F6E7300000000 PUSH1 0x0 DUP3 ADD MSTORE POP JUMP JUMPDEST PUSH1 0x0 PUSH2 0x4E5F PUSH1 0x1C DUP4 PUSH2 0x4036 JUMP JUMPDEST SWAP2 POP PUSH2 0x4E6A DUP3 PUSH2 0x4E29 JUMP JUMPDEST PUSH1 0x20 DUP3 ADD SWAP1 POP SWAP2 SWAP1 POP JUMP JUMPDEST PUSH1 0x0 PUSH1 0x20 DUP3 ADD SWAP1 POP DUP2 DUP2 SUB PUSH1 0x0 DUP4 ADD MSTORE PUSH2 0x4E8E DUP2 PUSH2 0x4E52 JUMP JUMPDEST SWAP1 POP SWAP2 SWAP1 POP JUMP JUMPDEST PUSH32 0x43616C6C6572206973206E6F7420746865206F776E6572000000000000000000 PUSH1 0x0 DUP3 ADD MSTORE POP JUMP JUMPDEST PUSH1 0x0 PUSH2 0x4ECB PUSH1 0x17 DUP4 PUSH2 0x4036 JUMP JUMPDEST SWAP2 POP PUSH2 0x4ED6 DUP3 PUSH2 0x4E95 JUMP JUMPDEST PUSH1 0x20 DUP3 ADD SWAP1 POP SWAP2 SWAP1 POP JUMP JUMPDEST PUSH1 0x0 PUSH1 0x20 DUP3 ADD SWAP1 POP DUP2 DUP2 SUB PUSH1 0x0 DUP4 ADD MSTORE PUSH2 0x4EFA DUP2 PUSH2 0x4EBE JUMP JUMPDEST SWAP1 POP SWAP2 SWAP1 POP JUMP JUMPDEST PUSH1 0x0 PUSH2 0x4F0C DUP3 PUSH2 0x35C7 JUMP JUMPDEST SWAP2 POP PUSH32 0xFFFFFFFFFFFFFFFFFFFFFFFFFFFFFFFFFFFFFFFFFFFFFFFFFFFFFFFFFFFFFFFF DUP3 SUB PUSH2 0x4F3E JUMPI PUSH2 0x4F3D PUSH2 0x421D JUMP JUMPDEST JUMPDEST PUSH1 0x1 DUP3 ADD SWAP1 POP SWAP2 SWAP1 POP JUMP INVALID LOG2 PUSH5 0x6970667358 0x22 SLT KECCAK256 0xF7 SDIV SLOAD 0xD7 PUSH29 0xD728B2D1E86B44FEEF2790BC82FEC1D954B81EFA27487924D8AC816473 PUSH16 0x6C634300081200330000000000000000 "
		},
		"gasEstimates": {
			"creation": {
				"codeDepositCost": "4070200",
				"executionCost": "infinite",
				"totalCost": "infinite"
			},
			"external": {
				"adjustTileResources(uint8,uint8,uint8,uint256,bool)": "infinite",
				"baseDefensiveArmorCost()": "infinite",
				"baseDefensiveSoldierCost()": "infinite",
				"baseDefensiveWeaponCost()": "infinite",
				"baseOffensiveArmorCost()": "infinite",
				"baseOffensiveSoldierCost()": "infinite",
				"baseOffensiveWeaponCost()": "infinite",
				"bonuses(uint256,uint256)": "infinite",
				"buildingCosts(uint8)": "infinite",
				"calcTurn(uint8,uint8)": "infinite",
				"createSoldier(uint8,uint8,uint8,uint256)": "infinite",
				"getAllBuildings(uint8,uint8)": "infinite",
				"getTileData(uint8,uint8)": "infinite",
				"getTurn(uint8,uint8)": "infinite",
				"interiorMapSize()": "424",
				"interiorMaps(uint8,uint8,uint8,uint8)": "infinite",
				"mainMapSize()": "381",
				"marketplaceAddress()": "2559",
				"maxLevel()": "446",
				"owner()": "2559",
				"placeBuilding(uint8,uint8,uint8,uint8,uint8)": "infinite",
				"produceArmor(uint8,uint8,uint8,uint256)": "infinite",
				"produceWeapon(uint8,uint8,uint8,uint256)": "infinite",
				"setMarketAddress(address)": "27002",
				"tileMapPhaser()": "infinite",
				"tiles(uint8,uint8)": "infinite",
				"turnsPerLevel()": "374",
				"upgradeTech(uint8,uint8,uint8)": "infinite",
				"useTurns(uint16,uint8,uint8)": "infinite"
			},
			"internal": {
				"_initializeBuildingCosts()": "infinite",
				"_recalculatePoints(struct TheLand.TileData storage pointer)": "infinite",
				"applyProductionCost(uint8,uint8,struct TheLand.Resources memory,uint256,uint256)": "infinite",
				"countBuildings(uint8,uint8,uint8)": "infinite"
			}
		},
		"methodIdentifiers": {
			"adjustTileResources(uint8,uint8,uint8,uint256,bool)": "3e5f2857",
			"baseDefensiveArmorCost()": "8c87fa4f",
			"baseDefensiveSoldierCost()": "f9c64454",
			"baseDefensiveWeaponCost()": "537e8f49",
			"baseOffensiveArmorCost()": "620a9a99",
			"baseOffensiveSoldierCost()": "a596b645",
			"baseOffensiveWeaponCost()": "800bfa27",
			"bonuses(uint256,uint256)": "bc9955a2",
			"buildingCosts(uint8)": "c1712d57",
			"calcTurn(uint8,uint8)": "dd4b466b",
			"createSoldier(uint8,uint8,uint8,uint256)": "f89d7571",
			"getAllBuildings(uint8,uint8)": "be9a263c",
			"getTileData(uint8,uint8)": "bd638378",
			"getTurn(uint8,uint8)": "f3245254",
			"interiorMapSize()": "decc1bbf",
			"interiorMaps(uint8,uint8,uint8,uint8)": "a2f9cc5b",
			"mainMapSize()": "afed933a",
			"marketplaceAddress()": "daa17f49",
			"maxLevel()": "cc06c359",
			"owner()": "8da5cb5b",
			"placeBuilding(uint8,uint8,uint8,uint8,uint8)": "0ee22f31",
			"produceArmor(uint8,uint8,uint8,uint256)": "07722bc2",
			"produceWeapon(uint8,uint8,uint8,uint256)": "4274b164",
			"setMarketAddress(address)": "fae92612",
			"tileMapPhaser()": "4f264b03",
			"tiles(uint8,uint8)": "9b562df2",
			"turnsPerLevel()": "bdc7da8e",
			"upgradeTech(uint8,uint8,uint8)": "351662e4",
			"useTurns(uint16,uint8,uint8)": "e9dd6583"
		}
	},
	"abi": [
		{
			"inputs": [
				{
					"internalType": "address",
					"name": "_tileMapPhaser",
					"type": "address"
				}
			],
			"stateMutability": "nonpayable",
			"type": "constructor"
		},
		{
			"anonymous": false,
			"inputs": [
				{
					"indexed": true,
					"internalType": "address",
					"name": "user",
					"type": "address"
				},
				{
					"indexed": false,
					"internalType": "uint8",
					"name": "x",
					"type": "uint8"
				},
				{
					"indexed": false,
					"internalType": "uint8",
					"name": "y",
					"type": "uint8"
				},
				{
					"indexed": false,
					"internalType": "string",
					"name": "techType",
					"type": "string"
				},
				{
					"indexed": false,
					"internalType": "uint8",
					"name": "newLevel",
					"type": "uint8"
				}
			],
			"name": "TechUpgraded",
			"type": "event"
		},
		{
			"anonymous": false,
			"inputs": [
				{
					"indexed": true,
					"internalType": "address",
					"name": "user",
					"type": "address"
				},
				{
					"indexed": false,
					"internalType": "uint256",
					"name": "turnsUsed",
					"type": "uint256"
				},
				{
					"indexed": false,
					"internalType": "uint8",
					"name": "x",
					"type": "uint8"
				},
				{
					"indexed": false,
					"internalType": "uint8",
					"name": "y",
					"type": "uint8"
				}
			],
			"name": "TurnsUsed",
			"type": "event"
		},
		{
			"inputs": [
				{
					"internalType": "uint8",
					"name": "x",
					"type": "uint8"
				},
				{
					"internalType": "uint8",
					"name": "y",
					"type": "uint8"
				},
				{
					"internalType": "uint8",
					"name": "resourceType",
					"type": "uint8"
				},
				{
					"internalType": "uint256",
					"name": "amount",
					"type": "uint256"
				},
				{
					"internalType": "bool",
					"name": "isAdding",
					"type": "bool"
				}
			],
			"name": "adjustTileResources",
			"outputs": [],
			"stateMutability": "nonpayable",
			"type": "function"
		},
		{
			"inputs": [],
			"name": "baseDefensiveArmorCost",
			"outputs": [
				{
					"internalType": "uint256",
					"name": "food",
					"type": "uint256"
				},
				{
					"internalType": "uint256",
					"name": "wood",
					"type": "uint256"
				},
				{
					"internalType": "uint256",
					"name": "stone",
					"type": "uint256"
				},
				{
					"internalType": "uint256",
					"name": "iron",
					"type": "uint256"
				}
			],
			"stateMutability": "view",
			"type": "function"
		},
		{
			"inputs": [],
			"name": "baseDefensiveSoldierCost",
			"outputs": [
				{
					"internalType": "uint256",
					"name": "food",
					"type": "uint256"
				},
				{
					"internalType": "uint256",
					"name": "wood",
					"type": "uint256"
				},
				{
					"internalType": "uint256",
					"name": "stone",
					"type": "uint256"
				},
				{
					"internalType": "uint256",
					"name": "iron",
					"type": "uint256"
				}
			],
			"stateMutability": "view",
			"type": "function"
		},
		{
			"inputs": [],
			"name": "baseDefensiveWeaponCost",
			"outputs": [
				{
					"internalType": "uint256",
					"name": "food",
					"type": "uint256"
				},
				{
					"internalType": "uint256",
					"name": "wood",
					"type": "uint256"
				},
				{
					"internalType": "uint256",
					"name": "stone",
					"type": "uint256"
				},
				{
					"internalType": "uint256",
					"name": "iron",
					"type": "uint256"
				}
			],
			"stateMutability": "view",
			"type": "function"
		},
		{
			"inputs": [],
			"name": "baseOffensiveArmorCost",
			"outputs": [
				{
					"internalType": "uint256",
					"name": "food",
					"type": "uint256"
				},
				{
					"internalType": "uint256",
					"name": "wood",
					"type": "uint256"
				},
				{
					"internalType": "uint256",
					"name": "stone",
					"type": "uint256"
				},
				{
					"internalType": "uint256",
					"name": "iron",
					"type": "uint256"
				}
			],
			"stateMutability": "view",
			"type": "function"
		},
		{
			"inputs": [],
			"name": "baseOffensiveSoldierCost",
			"outputs": [
				{
					"internalType": "uint256",
					"name": "food",
					"type": "uint256"
				},
				{
					"internalType": "uint256",
					"name": "wood",
					"type": "uint256"
				},
				{
					"internalType": "uint256",
					"name": "stone",
					"type": "uint256"
				},
				{
					"internalType": "uint256",
					"name": "iron",
					"type": "uint256"
				}
			],
			"stateMutability": "view",
			"type": "function"
		},
		{
			"inputs": [],
			"name": "baseOffensiveWeaponCost",
			"outputs": [
				{
					"internalType": "uint256",
					"name": "food",
					"type": "uint256"
				},
				{
					"internalType": "uint256",
					"name": "wood",
					"type": "uint256"
				},
				{
					"internalType": "uint256",
					"name": "stone",
					"type": "uint256"
				},
				{
					"internalType": "uint256",
					"name": "iron",
					"type": "uint256"
				}
			],
			"stateMutability": "view",
			"type": "function"
		},
		{
			"inputs": [
				{
					"internalType": "uint256",
					"name": "",
					"type": "uint256"
				},
				{
					"internalType": "uint256",
					"name": "",
					"type": "uint256"
				}
			],
			"name": "bonuses",
			"outputs": [
				{
					"internalType": "uint8",
					"name": "",
					"type": "uint8"
				}
			],
			"stateMutability": "view",
			"type": "function"
		},
		{
			"inputs": [
				{
					"internalType": "uint8",
					"name": "",
					"type": "uint8"
				}
			],
			"name": "buildingCosts",
			"outputs": [
				{
					"internalType": "uint256",
					"name": "food",
					"type": "uint256"
				},
				{
					"internalType": "uint256",
					"name": "wood",
					"type": "uint256"
				},
				{
					"internalType": "uint256",
					"name": "stone",
					"type": "uint256"
				},
				{
					"internalType": "uint256",
					"name": "iron",
					"type": "uint256"
				}
			],
			"stateMutability": "view",
			"type": "function"
		},
		{
			"inputs": [
				{
					"internalType": "uint8",
					"name": "mainX",
					"type": "uint8"
				},
				{
					"internalType": "uint8",
					"name": "mainY",
					"type": "uint8"
				}
			],
			"name": "calcTurn",
			"outputs": [],
			"stateMutability": "nonpayable",
			"type": "function"
		},
		{
			"inputs": [
				{
					"internalType": "uint8",
					"name": "mainX",
					"type": "uint8"
				},
				{
					"internalType": "uint8",
					"name": "mainY",
					"type": "uint8"
				},
				{
					"internalType": "uint8",
					"name": "soldierType",
					"type": "uint8"
				},
				{
					"internalType": "uint256",
					"name": "quantity",
					"type": "uint256"
				}
			],
			"name": "createSoldier",
			"outputs": [],
			"stateMutability": "nonpayable",
			"type": "function"
		},
		{
			"inputs": [
				{
					"internalType": "uint8",
					"name": "mainX",
					"type": "uint8"
				},
				{
					"internalType": "uint8",
					"name": "mainY",
					"type": "uint8"
				}
			],
			"name": "getAllBuildings",
			"outputs": [
				{
					"internalType": "uint8[9][9]",
					"name": "",
					"type": "uint8[9][9]"
				}
			],
			"stateMutability": "view",
			"type": "function"
		},
		{
			"inputs": [
				{
					"internalType": "uint8",
					"name": "x",
					"type": "uint8"
				},
				{
					"internalType": "uint8",
					"name": "y",
					"type": "uint8"
				}
			],
			"name": "getTileData",
			"outputs": [
				{
					"components": [
						{
							"internalType": "uint256",
							"name": "food",
							"type": "uint256"
						},
						{
							"internalType": "uint256",
							"name": "wood",
							"type": "uint256"
						},
						{
							"internalType": "uint256",
							"name": "stone",
							"type": "uint256"
						},
						{
							"internalType": "uint256",
							"name": "iron",
							"type": "uint256"
						},
						{
							"internalType": "uint16",
							"name": "level",
							"type": "uint16"
						},
						{
							"internalType": "uint256",
							"name": "accumulatedTurns",
							"type": "uint256"
						},
						{
							"internalType": "uint256",
							"name": "offensiveArmor",
							"type": "uint256"
						},
						{
							"internalType": "uint256",
							"name": "defensiveArmor",
							"type": "uint256"
						},
						{
							"internalType": "uint256",
							"name": "offensiveWeapon",
							"type": "uint256"
						},
						{
							"internalType": "uint256",
							"name": "defensiveWeapon",
							"type": "uint256"
						},
						{
							"internalType": "uint256",
							"name": "offensiveSoldier",
							"type": "uint256"
						},
						{
							"internalType": "uint256",
							"name": "defensiveSoldier",
							"type": "uint256"
						},
						{
							"internalType": "uint8",
							"name": "offensiveTech",
							"type": "uint8"
						},
						{
							"internalType": "uint8",
							"name": "defensiveTech",
							"type": "uint8"
						},
						{
							"internalType": "uint256",
							"name": "points",
							"type": "uint256"
						}
					],
					"internalType": "struct TheLand.TileDataResponse",
					"name": "",
					"type": "tuple"
				}
			],
			"stateMutability": "view",
			"type": "function"
		},
		{
			"inputs": [
				{
					"internalType": "uint8",
					"name": "mainX",
					"type": "uint8"
				},
				{
					"internalType": "uint8",
					"name": "mainY",
					"type": "uint8"
				}
			],
			"name": "getTurn",
			"outputs": [
				{
					"internalType": "uint256",
					"name": "",
					"type": "uint256"
				}
			],
			"stateMutability": "view",
			"type": "function"
		},
		{
			"inputs": [],
			"name": "interiorMapSize",
			"outputs": [
				{
					"internalType": "uint8",
					"name": "",
					"type": "uint8"
				}
			],
			"stateMutability": "view",
			"type": "function"
		},
		{
			"inputs": [
				{
					"internalType": "uint8",
					"name": "",
					"type": "uint8"
				},
				{
					"internalType": "uint8",
					"name": "",
					"type": "uint8"
				},
				{
					"internalType": "uint8",
					"name": "",
					"type": "uint8"
				},
				{
					"internalType": "uint8",
					"name": "",
					"type": "uint8"
				}
			],
			"name": "interiorMaps",
			"outputs": [
				{
					"internalType": "uint8",
					"name": "",
					"type": "uint8"
				}
			],
			"stateMutability": "view",
			"type": "function"
		},
		{
			"inputs": [],
			"name": "mainMapSize",
			"outputs": [
				{
					"internalType": "uint8",
					"name": "",
					"type": "uint8"
				}
			],
			"stateMutability": "view",
			"type": "function"
		},
		{
			"inputs": [],
			"name": "marketplaceAddress",
			"outputs": [
				{
					"internalType": "address",
					"name": "",
					"type": "address"
				}
			],
			"stateMutability": "view",
			"type": "function"
		},
		{
			"inputs": [],
			"name": "maxLevel",
			"outputs": [
				{
					"internalType": "uint16",
					"name": "",
					"type": "uint16"
				}
			],
			"stateMutability": "view",
			"type": "function"
		},
		{
			"inputs": [],
			"name": "owner",
			"outputs": [
				{
					"internalType": "address",
					"name": "",
					"type": "address"
				}
			],
			"stateMutability": "view",
			"type": "function"
		},
		{
			"inputs": [
				{
					"internalType": "uint8",
					"name": "mainX",
					"type": "uint8"
				},
				{
					"internalType": "uint8",
					"name": "mainY",
					"type": "uint8"
				},
				{
					"internalType": "uint8",
					"name": "interiorX",
					"type": "uint8"
				},
				{
					"internalType": "uint8",
					"name": "interiorY",
					"type": "uint8"
				},
				{
					"internalType": "uint8",
					"name": "buildingType",
					"type": "uint8"
				}
			],
			"name": "placeBuilding",
			"outputs": [],
			"stateMutability": "nonpayable",
			"type": "function"
		},
		{
			"inputs": [
				{
					"internalType": "uint8",
					"name": "mainX",
					"type": "uint8"
				},
				{
					"internalType": "uint8",
					"name": "mainY",
					"type": "uint8"
				},
				{
					"internalType": "uint8",
					"name": "armorType",
					"type": "uint8"
				},
				{
					"internalType": "uint256",
					"name": "quantity",
					"type": "uint256"
				}
			],
			"name": "produceArmor",
			"outputs": [],
			"stateMutability": "nonpayable",
			"type": "function"
		},
		{
			"inputs": [
				{
					"internalType": "uint8",
					"name": "mainX",
					"type": "uint8"
				},
				{
					"internalType": "uint8",
					"name": "mainY",
					"type": "uint8"
				},
				{
					"internalType": "uint8",
					"name": "weaponType",
					"type": "uint8"
				},
				{
					"internalType": "uint256",
					"name": "quantity",
					"type": "uint256"
				}
			],
			"name": "produceWeapon",
			"outputs": [],
			"stateMutability": "nonpayable",
			"type": "function"
		},
		{
			"inputs": [
				{
					"internalType": "address",
					"name": "_market",
					"type": "address"
				}
			],
			"name": "setMarketAddress",
			"outputs": [],
			"stateMutability": "nonpayable",
			"type": "function"
		},
		{
			"inputs": [],
			"name": "tileMapPhaser",
			"outputs": [
				{
					"internalType": "contract ITileMapPhaser",
					"name": "",
					"type": "address"
				}
			],
			"stateMutability": "view",
			"type": "function"
		},
		{
			"inputs": [
				{
					"internalType": "uint8",
					"name": "",
					"type": "uint8"
				},
				{
					"internalType": "uint8",
					"name": "",
					"type": "uint8"
				}
			],
			"name": "tiles",
			"outputs": [
				{
					"components": [
						{
							"internalType": "uint256",
							"name": "food",
							"type": "uint256"
						},
						{
							"internalType": "uint256",
							"name": "wood",
							"type": "uint256"
						},
						{
							"internalType": "uint256",
							"name": "stone",
							"type": "uint256"
						},
						{
							"internalType": "uint256",
							"name": "iron",
							"type": "uint256"
						}
					],
					"internalType": "struct TheLand.Resources",
					"name": "resources",
					"type": "tuple"
				},
				{
					"internalType": "uint16",
					"name": "level",
					"type": "uint16"
				},
				{
					"internalType": "uint256",
					"name": "accumulatedTurns",
					"type": "uint256"
				},
				{
					"internalType": "uint16",
					"name": "turns",
					"type": "uint16"
				},
				{
					"internalType": "uint256",
					"name": "start",
					"type": "uint256"
				},
				{
					"components": [
						{
							"internalType": "uint256",
							"name": "offensiveArmor",
							"type": "uint256"
						},
						{
							"internalType": "uint256",
							"name": "defensiveArmor",
							"type": "uint256"
						},
						{
							"internalType": "uint256",
							"name": "offensiveWeapon",
							"type": "uint256"
						},
						{
							"internalType": "uint256",
							"name": "defensiveWeapon",
							"type": "uint256"
						},
						{
							"internalType": "uint256",
							"name": "offensiveSoldier",
							"type": "uint256"
						},
						{
							"internalType": "uint256",
							"name": "defensiveSoldier",
							"type": "uint256"
						}
					],
					"internalType": "struct TheLand.Military",
					"name": "military",
					"type": "tuple"
				},
				{
					"components": [
						{
							"internalType": "uint8",
							"name": "offensiveTech",
							"type": "uint8"
						},
						{
							"internalType": "uint8",
							"name": "defensiveTech",
							"type": "uint8"
						}
					],
					"internalType": "struct TheLand.TechLevels",
					"name": "techLevels",
					"type": "tuple"
				},
				{
					"internalType": "uint256",
					"name": "points",
					"type": "uint256"
				}
			],
			"stateMutability": "view",
			"type": "function"
		},
		{
			"inputs": [],
			"name": "turnsPerLevel",
			"outputs": [
				{
					"internalType": "uint256",
					"name": "",
					"type": "uint256"
				}
			],
			"stateMutability": "view",
			"type": "function"
		},
		{
			"inputs": [
				{
					"internalType": "uint8",
					"name": "x",
					"type": "uint8"
				},
				{
					"internalType": "uint8",
					"name": "y",
					"type": "uint8"
				},
				{
					"internalType": "uint8",
					"name": "techType",
					"type": "uint8"
				}
			],
			"name": "upgradeTech",
			"outputs": [],
			"stateMutability": "nonpayable",
			"type": "function"
		},
		{
			"inputs": [
				{
					"internalType": "uint16",
					"name": "turns",
					"type": "uint16"
				},
				{
					"internalType": "uint8",
					"name": "x",
					"type": "uint8"
				},
				{
					"internalType": "uint8",
					"name": "y",
					"type": "uint8"
				}
			],
			"name": "useTurns",
			"outputs": [],
			"stateMutability": "nonpayable",
			"type": "function"
		}
	]
}