{
	"data": {
		"bytecode": {
			"linkReferences": {},
			"object": "67016345785d8a0000600455620f42406005556078608081905260a0819052606460c081905260b460e08190526011839055601283905560138290556014819055609661010081905261012081905261014083905261019061016081905260158290556016829055601784905560188190556101808590526101a08390526101c084905261012c6101e0819052601995909555601a92909255601b839055601c9390935561020083905260c861022081905261024083905260fa610260819052601d859055601e829055601f8490556020556102808290526102a08190526102c08490526102e083905260218290556022819055602384905560248390556103806040526103008290526103208190526103408490526103608390526025919091556026556027919091556028553480156200013a57600080fd5b5060405162005dd738038062005dd78339810160408190526200015d91620007c9565b6001600055600280546001600160a01b0319166001600160a01b0385161790556200076a60408051608080820183526104d8808352610c8060208085019182526105a0858701908152610370606080880182815260016000908152602b80875299517ffcc3d43705633578a5e8f1b6d6f38d08eb8cb891174edcc94b1a54972a1aebbd5595517ffcc3d43705633578a5e8f1b6d6f38d08eb8cb891174edcc94b1a54972a1aebbe5592517ffcc3d43705633578a5e8f1b6d6f38d08eb8cb891174edcc94b1a54972a1aebbf5591517ffcc3d43705633578a5e8f1b6d6f38d08eb8cb891174edcc94b1a54972a1aebc05587518087018952610514808252610bb8828601908152828b01918252610384838601908152600288528a875292517fbd6c10e6ce287735500a1c033be76c57d5e632addc2ff6eff6bb587b8ee0d95c55517fbd6c10e6ce287735500a1c033be76c57d5e632addc2ff6eff6bb587b8ee0d95d55517fbd6c10e6ce287735500a1c033be76c57d5e632addc2ff6eff6bb587b8ee0d95e55517fbd6c10e6ce287735500a1c033be76c57d5e632addc2ff6eff6bb587b8ee0d95f55875180870189526106e081526110688185019081526107a8828b01908152610528838601908152600388528a875292517fd3904653c5d0f9b122879aa13f7287465a10522aedd588dbbd607cf6f8b2147f5590517fd3904653c5d0f9b122879aa13f7287465a10522aedd588dbbd607cf6f8b2148055517fd3904653c5d0f9b122879aa13f7287465a10522aedd588dbbd607cf6f8b2148155517fd3904653c5d0f9b122879aa13f7287465a10522aedd588dbbd607cf6f8b214825587518087018952858152610af0818501908152818a019687526103ac8285019081526004875289865291517f8bd115fc6ec81ad72d5ca8a8b3bd3d0177f1b615af6ad35644a4e24a7bed08bc55517f8bd115fc6ec81ad72d5ca8a8b3bd3d0177f1b615af6ad35644a4e24a7bed08bd5594517f8bd115fc6ec81ad72d5ca8a8b3bd3d0177f1b615af6ad35644a4e24a7bed08be5593517f8bd115fc6ec81ad72d5ca8a8b3bd3d0177f1b615af6ad35644a4e24a7bed08bf558651808601885261019081526104108184019081526101c2828a0190815260e68385019081526005875289865292517f4b5b933abde5416303ae4347d7fcdf5a17e8022e0fefc2b31c7609ebd3c32fe95590517f4b5b933abde5416303ae4347d7fcdf5a17e8022e0fefc2b31c7609ebd3c32fea55517f4b5b933abde5416303ae4347d7fcdf5a17e8022e0fefc2b31c7609ebd3c32feb55517f4b5b933abde5416303ae4347d7fcdf5a17e8022e0fefc2b31c7609ebd3c32fec55865180860188526105b4808252610c30828501908152828a019182528284019687526006865288855291517f5ac1f6ea00ad8b0f699e3a293cc93d6fdaf7ee608fbc40ffef54db3fb7ebb9435590517f5ac1f6ea00ad8b0f699e3a293cc93d6fdaf7ee608fbc40ffef54db3fb7ebb94455517f5ac1f6ea00ad8b0f699e3a293cc93d6fdaf7ee608fbc40ffef54db3fb7ebb9455592517f5ac1f6ea00ad8b0f699e3a293cc93d6fdaf7ee608fbc40ffef54db3fb7ebb9465585518085018752610adc8152611900818301908152612fa88289019081526109248387019081526007865288855292517f455b6dea826802a5b6200d61a7810fccbd36f05c878743e3ac0e0e7aff3a46e85590517f455b6dea826802a5b6200d61a7810fccbd36f05c878743e3ac0e0e7aff3a46e955517f455b6dea826802a5b6200d61a7810fccbd36f05c878743e3ac0e0e7aff3a46ea55517f455b6dea826802a5b6200d61a7810fccbd36f05c878743e3ac0e0e7aff3a46eb55855193840186526106908452610e6084820190815261075896850196875261055093850193845260089092529390935290517fb145d60eaadb8dbd7aeb92dc4e0faae9b4a8d9eacc51e2fdf2d1eda28a5001f95590517fb145d60eaadb8dbd7aeb92dc4e0faae9b4a8d9eacc51e2fdf2d1eda28a5001fa5590517fb145d60eaadb8dbd7aeb92dc4e0faae9b4a8d9eacc51e2fdf2d1eda28a5001fb55517fb145d60eaadb8dbd7aeb92dc4e0faae9b4a8d9eacc51e2fdf2d1eda28a5001fc55565b600d80546001600160a01b03199081163317909155600180546001600160a01b0394851690831617905542600655601080549290931691161790555062000813565b80516001600160a01b0381168114620007c457600080fd5b919050565b600080600060608486031215620007df57600080fd5b620007ea84620007ac565b9250620007fa60208501620007ac565b91506200080a60408501620007ac565b90509250925092565b6155b480620008236000396000f3fe60806040526004361061036b5760003560e01c80637659bc60116101c6578063c14448cd116100f7578063decc1bbf11610095578063f32452541161006f578063f324525414610ba2578063f89d757114610bc2578063f9c6445414610be2578063fae9261214610c0557600080fd5b8063decc1bbf14610b38578063e9d60a1014610b5f578063e9dd658314610b8f57600080fd5b8063d836d447116100d1578063d836d44714610a59578063daa17f4914610ae2578063dd4b466b14610b02578063de8ca33a14610b2257600080fd5b8063c14448cd146109c7578063c1712d57146109dc578063ccd5e49114610a1e57600080fd5b80639a4a208411610164578063bc4462de1161013e578063bc4462de14610937578063bd63837814610957578063bdc7da8e14610984578063be9a263c1461099a57600080fd5b80639a4a2084146108b55780639c54e471146108d5578063a596b6451461091457600080fd5b8063887aca72116101a0578063887aca721461081a5780638c87fa4f146108525780638da5cb5b1461087557806397cefc4c1461089557600080fd5b80637659bc60146107b75780637cca26d9146107d7578063800bfa27146107f757600080fd5b806341ede44f116102a0578063562aafb61161023e578063620a9a9911610218578063620a9a991461074b57806365af3a2f1461076e5780636c9230db146107845780637502bad41461079757600080fd5b8063562aafb6146106f65780635d219d5f1461070b57806360b76b521461072b57600080fd5b806342eaa7c81161027a57806342eaa7c81461063f5780634855735c146106545780634f264b0314610693578063537e8f49146106b357600080fd5b806341ede44f146105c95780634274b16414610609578063428967da1461062957600080fd5b806321b74ea71161030d57806333b95ee0116102e757806333b95ee01461050b578063351662e4146105465780633e5f2857146105665780634173f9e91461058657600080fd5b806321b74ea71461048f5780632a490ae8146104b35780632ef78865146104d357600080fd5b80630df7b41a116103495780630df7b41a1461041a5780630ee22f311461043a57806315e91b481461045a5780631acc55ea1461046f57600080fd5b806302cd77e61461037057806307722bc2146103c05780630d67f59e146103e2575b600080fd5b34801561037c57600080fd5b506103ab61038b366004614e8e565b600a60209081526000928352604080842090915290825290205460ff1681565b60405190151581526020015b60405180910390f35b3480156103cc57600080fd5b506103e06103db366004614ec7565b610c25565b005b3480156103ee57600080fd5b50600154610402906001600160a01b031681565b6040516001600160a01b0390911681526020016103b7565b34801561042657600080fd5b506103e0610435366004614f2d565b610ed9565b34801561044657600080fd5b506103e0610455366004614f51565b610fc3565b34801561046657600080fd5b506103e061161e565b34801561047b57600080fd5b506103ab61048a366004614e8e565b61188c565b34801561049b57600080fd5b506104a560045481565b6040519081526020016103b7565b3480156104bf57600080fd5b506104a56104ce366004614e8e565b6118b5565b3480156104df57600080fd5b506104a56104ee366004614e8e565b600b60209081526000928352604080842090915290825290205481565b34801561051757600080fd5b506103ab610526366004614e8e565b600960209081526000928352604080842090915290825290205460ff1681565b34801561055257600080fd5b506103e0610561366004614fc2565b6119bb565b34801561057257600080fd5b506103e061058136600461501b565b611ebb565b34801561059257600080fd5b506104a56105a1366004614e8e565b60ff918216600090815260296020908152604080832093909416825291909152206007015490565b3480156105d557600080fd5b506104a56105e4366004614e8e565b60ff918216600090815260086020908152604080832093909416825291909152205490565b34801561061557600080fd5b506103e0610624366004614ec7565b6125aa565b34801561063557600080fd5b506104a560055481565b34801561064b57600080fd5b506104a5612834565b34801561066057600080fd5b506103ab61066f366004614e8e565b60ff9182166000908152600a60209081526040808320938516835292905220541690565b34801561069f57600080fd5b50600254610402906001600160a01b031681565b3480156106bf57600080fd5b50601d54601e54601f546020546106d69392919084565b6040805194855260208501939093529183015260608201526080016103b7565b34801561070257600080fd5b506103e06128bf565b34801561071757600080fd5b506103e0610726366004614f2d565b6129b0565b34801561073757600080fd5b506103e0610746366004615075565b612a9a565b34801561075757600080fd5b506011546012546013546014546106d69392919084565b34801561077a57600080fd5b506104a560065481565b34801561079057600080fd5b50426104a5565b3480156107a357600080fd5b50600f54610402906001600160a01b031681565b3480156107c357600080fd5b506103e06107d2366004614e8e565b612d9c565b3480156107e357600080fd5b50600354610402906001600160a01b031681565b34801561080357600080fd5b50601954601a54601b54601c546106d69392919084565b34801561082657600080fd5b506104a5610835366004614e8e565b600860209081526000928352604080842090915290825290205481565b34801561085e57600080fd5b506015546016546017546018546106d69392919084565b34801561088157600080fd5b50600d54610402906001600160a01b031681565b3480156108a157600080fd5b506103e06108b03660046150d1565b612e37565b3480156108c157600080fd5b506103e06108d03660046150ee565b612ec6565b3480156108e157600080fd5b506103ab6108f0366004614e8e565b60ff9182166000908152600c60209081526040808320938516835292905220541690565b34801561092057600080fd5b506021546022546023546024546106d69392919084565b34801561094357600080fd5b50601054610402906001600160a01b031681565b34801561096357600080fd5b50610977610972366004614e8e565b612f5f565b6040516103b7919061512e565b34801561099057600080fd5b506104a56103e881565b3480156109a657600080fd5b506109ba6109b5366004614e8e565b6131a9565b6040516103b791906151ec565b3480156109d357600080fd5b506103e0613333565b3480156109e857600080fd5b506106d66109f7366004615251565b602b6020526000908152604090208054600182015460028301546003909301549192909184565b348015610a2a57600080fd5b506103ab610a39366004614e8e565b600c60209081526000928352604080842090915290825290205460ff1681565b348015610a6557600080fd5b50610ac3610a74366004614e8e565b6040805180820182526000808252602091820181905260ff948516815260298252828120939094168452918252918290208251808401909352600481015461ffff168352600f01549082015290565b60408051825161ffff16815260209283015192810192909252016103b7565b348015610aee57600080fd5b50600e54610402906001600160a01b031681565b348015610b0e57600080fd5b506103e0610b1d366004614e8e565b61340d565b348015610b2e57600080fd5b506104a560075481565b348015610b4457600080fd5b50610b4d600981565b60405160ff90911681526020016103b7565b348015610b6b57600080fd5b5060105474010000000000000000000000000000000000000000900460ff166103ab565b6103e0610b9d36600461526e565b6134e2565b348015610bae57600080fd5b506104a5610bbd366004614e8e565b613d3b565b348015610bce57600080fd5b506103e0610bdd366004614ec7565b613ee8565b348015610bee57600080fd5b506025546026546027546028546106d69392919084565b348015610c1157600080fd5b506103e0610c20366004614f2d565b61432d565b610c2d614417565b600254604051638a88895360e01b815260ff8087166004830152851660248201528591859133916001600160a01b031690638a88895390604401602060405180830381865afa158015610c84573d6000803e3d6000fd5b505050506040513d601f19601f82011682018060405250810190610ca89190615295565b6001600160a01b031614610ce95760405162461bcd60e51b815260206004820152600360248201526237bbb760e91b60448201526064015b60405180910390fd5b600083118015610cfb57506103e88311155b610d475760405162461bcd60e51b815260206004820152601060248201527f496e76616c6964207175616e74697479000000000000000000000000000000006044820152606401610ce0565b8360ff1660011480610d5c57508360ff166002145b610d8c5760405162461bcd60e51b81526020600482015260016024820152601d60fa1b6044820152606401610ce0565b6000610d9a87876001614470565b905060008111610dec5760405162461bcd60e51b815260206004820152600160248201527f61000000000000000000000000000000000000000000000000000000000000006044820152606401610ce0565b60008560ff16600114610e00576015610e03565b60115b60408051608081018252825481526001830154602082015260028301549181019190915260039091015460608201529050610e41888883888661450b565b8560ff16600103610e8b5760ff8089166000908152602960209081526040808320938b1683529290529081206008018054879290610e809084906152e1565b90915550610ec59050565b60ff8089166000908152602960209081526040808320938b1683529290529081206009018054879290610ebf9084906152e1565b90915550505b50505050610ed36001600055565b50505050565b600d546001600160a01b03163314610f1d576040517f30cd747100000000000000000000000000000000000000000000000000000000815260040160405180910390fd5b6010547501000000000000000000000000000000000000000000900460ff1615610f895760405162461bcd60e51b815260206004820152600560248201527f6b696c69740000000000000000000000000000000000000000000000000000006044820152606401610ce0565b600f80547fffffffffffffffffffffffff0000000000000000000000000000000000000000166001600160a01b0392909216919091179055565b610fcb614417565b600254604051638a88895360e01b815260ff8088166004830152861660248201528691869133916001600160a01b031690638a88895390604401602060405180830381865afa158015611022573d6000803e3d6000fd5b505050506040513d601f19601f820116820180604052508101906110469190615295565b6001600160a01b0316146110825760405162461bcd60e51b815260206004820152600360248201526237bbb760e91b6044820152606401610ce0565b8484600960ff831610801561109a5750600960ff8216105b6110e65760405162461bcd60e51b815260206004820152600560248201527f636f6f72640000000000000000000000000000000000000000000000000000006044820152606401610ce0565b6110ef8561477a565b611125576040517fb44d49e600000000000000000000000000000000000000000000000000000000815260040160405180910390fd5b8660ff16600414801561113b57508560ff166004145b156111885760405162461bcd60e51b815260206004820152600160248201527f63000000000000000000000000000000000000000000000000000000000000006044820152606401610ce0565b60ff808a166000908152602a602090815260408083208c8516845282528083208b8516845282528083208a8516845290915290205416801561120c5760405162461bcd60e51b815260206004820152600160248201527f65000000000000000000000000000000000000000000000000000000000000006044820152606401610ce0565b8560ff1660030361129f576112238a8a6003614470565b156112705760405162461bcd60e51b815260206004820152600160248201527f63000000000000000000000000000000000000000000000000000000000000006044820152606401610ce0565b60ff808b166000908152600960209081526040808320938d16835292905220805460ff1916600117905561132e565b8560ff1660060361132e576112b68a8a6006614470565b156113035760405162461bcd60e51b815260206004820152600160248201527f6d000000000000000000000000000000000000000000000000000000000000006044820152606401610ce0565b60ff808b166000908152600a60209081526040808320938d16835292905220805460ff191660011790555b60ff86166000908152602b6020908152604091829020825160808101845281548082526001830154938201849052600283015494820185905260039092015460608201819052909392909117909117176113cc5760405162461bcd60e51b8152600401610ce09060208082526004908201527f6672656500000000000000000000000000000000000000000000000000000000604082015260600190565b60ff808c166000908152602960209081526040808320938e1683529290522081518154101561143d5760405162461bcd60e51b815260206004820152600160248201527f66000000000000000000000000000000000000000000000000000000000000006044820152606401610ce0565b6020820151600182015410156114955760405162461bcd60e51b815260206004820152600160248201527f77000000000000000000000000000000000000000000000000000000000000006044820152606401610ce0565b6040820151600282015410156114ed5760405162461bcd60e51b815260206004820152600160248201527f73000000000000000000000000000000000000000000000000000000000000006044820152606401610ce0565b6060820151600382015410156115455760405162461bcd60e51b815260206004820152600160248201527f69000000000000000000000000000000000000000000000000000000000000006044820152606401610ce0565b8151815482906000906115599084906152f4565b909155505060208201516001820180546000906115779084906152f4565b909155505060408201516002820180546000906115959084906152f4565b909155505060608201516003820180546000906115b39084906152f4565b909155505060ff8c81166000908152602a602090815260408083208f8516845282528083208e8516845282528083208d851684529091529020805460ff1916918a16919091179055611606818d8d614798565b505050505050506116176001600055565b5050505050565b600d546001600160a01b03163314611662576040517f30cd747100000000000000000000000000000000000000000000000000000000815260040160405180910390fd5b61166a614417565b6010547501000000000000000000000000000000000000000000900460ff16156116d65760405162461bcd60e51b815260206004820152600560248201527f6b696c69740000000000000000000000000000000000000000000000000000006044820152606401610ce0565b6001546040517f70a082310000000000000000000000000000000000000000000000000000000081523060048201526000916001600160a01b0316906370a0823190602401602060405180830381865afa158015611738573d6000803e3d6000fd5b505050506040513d601f19601f8201168201806040525081019061175c9190615307565b905080600003611798576040517f1f2a200500000000000000000000000000000000000000000000000000000000815260040160405180910390fd5b600154600d546040517fa9059cbb0000000000000000000000000000000000000000000000000000000081526001600160a01b03918216600482015260248101849052600092919091169063a9059cbb906044016020604051808303816000875af115801561180b573d6000803e3d6000fd5b505050506040513d601f19601f8201168201806040525081019061182f9190615320565b90508061187e5760405162461bcd60e51b815260206004820152601360248201527f4c4f50207769746864726177206661696c6564000000000000000000000000006044820152606401610ce0565b505061188a6001600055565b565b60ff80831660009081526009602090815260408083208585168452909152902054165b92915050565b600254604051638a88895360e01b815260ff8085166004830152831660248201526000918491849184916001600160a01b0390911690638a88895390604401602060405180830381865afa158015611911573d6000803e3d6000fd5b505050506040513d601f19601f820116820180604052508101906119359190615295565b9050336001600160a01b0382161480159061196e5750600e546001600160a01b0316158061196e5750600e546001600160a01b03163314155b156119a5576040517fda76f5fa00000000000000000000000000000000000000000000000000000000815260040160405180910390fd5b6119b186866007614470565b9695505050505050565b6119c3614417565b600254604051638a88895360e01b815260ff8086166004830152841660248201528491849133916001600160a01b031690638a88895390604401602060405180830381865afa158015611a1a573d6000803e3d6000fd5b505050506040513d601f19601f82011682018060405250810190611a3e9190615295565b6001600160a01b031614611a7a5760405162461bcd60e51b815260206004820152600360248201526237bbb760e91b6044820152606401610ce0565b60ff808616600090815260296020908152604080832088851684529091528120918516600103611ab35750600e81015461ffff16611b1d565b8460ff16600203611ad35750600e81015462010000900461ffff16611b1d565b60405162461bcd60e51b8152600401610ce09060208082526004908201527f7479706500000000000000000000000000000000000000000000000000000000604082015260600190565b6127108161ffff1610611b725760405162461bcd60e51b815260206004820152600160248201527f6c000000000000000000000000000000000000000000000000000000000000006044820152606401610ce0565b6000611b8088886008614470565b905060008111611bd25760405162461bcd60e51b815260206004820152600160248201527f77000000000000000000000000000000000000000000000000000000000000006044820152606401610ce0565b6000611bdf83600161533d565b611bee9061ffff16600261535f565b9050600082611bfe83608c61535f565b611c0891906153a5565b9050600083611c1884607861535f565b611c2291906153a5565b9050600084611c328560b461535f565b611c3c91906153a5565b9050600085611c4c86607861535f565b611c5691906153a5565b8854909150841115611caa5760405162461bcd60e51b815260206004820152600160248201527f66000000000000000000000000000000000000000000000000000000000000006044820152606401610ce0565b6001880154831115611cfe5760405162461bcd60e51b815260206004820152600160248201527f77000000000000000000000000000000000000000000000000000000000000006044820152606401610ce0565b6002880154821115611d525760405162461bcd60e51b815260206004820152600160248201527f73000000000000000000000000000000000000000000000000000000000000006044820152606401610ce0565b6003880154811115611da65760405162461bcd60e51b815260206004820152600160248201527f69000000000000000000000000000000000000000000000000000000000000006044820152606401610ce0565b875484908990600090611dba9084906152f4565b9091555050600188018054849190600090611dd69084906152f4565b9091555050600288018054839190600090611df29084906152f4565b9091555050600388018054829190600090611e0e9084906152f4565b909155505060ff8b16600103611e5457600e8801805461ffff16906000611e34836153b9565b91906101000a81548161ffff021916908361ffff16021790555050611e97565b8a60ff16600203611e9757600e8801805462010000900461ffff16906002611e7b836153b9565b91906101000a81548161ffff021916908361ffff160217905550505b611ea2888e8e614798565b50505050505050505050611eb66001600055565b505050565b611ec3614417565b600e546001600160a01b03163314611f07576040517f386317a300000000000000000000000000000000000000000000000000000000815260040160405180910390fd5b81600003611f41576040517f1f2a200500000000000000000000000000000000000000000000000000000000815260040160405180910390fd5b60018360ff1610158015611f595750600a8360ff1611155b611f895760405162461bcd60e51b81526020600482015260016024820152601d60fa1b6044820152606401610ce0565b60ff80861660009081526029602090815260408083208885168452909152902090841660010361203d578115611fd857805483908290600090611fcd9084906152e1565b909155506125949050565b80548311156120295760405162461bcd60e51b815260206004820152600160248201527f66000000000000000000000000000000000000000000000000000000000000006044820152606401610ce0565b805483908290600090611fcd9084906152f4565b8360ff166002036120d05781156120655782816000016001016000828254611fcd91906152e1565b60018101548311156120b95760405162461bcd60e51b815260206004820152600160248201527f77000000000000000000000000000000000000000000000000000000000000006044820152606401610ce0565b82816000016001016000828254611fcd91906152f4565b8360ff166003036121635781156120f85782816000016002016000828254611fcd91906152e1565b600281015483111561214c5760405162461bcd60e51b815260206004820152600160248201527f73000000000000000000000000000000000000000000000000000000000000006044820152606401610ce0565b82816000016002016000828254611fcd91906152f4565b8360ff166004036121f657811561218b5782816000016003016000828254611fcd91906152e1565b60038101548311156121df5760405162461bcd60e51b815260206004820152600160248201527f69000000000000000000000000000000000000000000000000000000000000006044820152606401610ce0565b82816000016003016000828254611fcd91906152f4565b8360ff1660050361228957811561221e5782816008016000016000828254611fcd91906152e1565b60088101548311156122725760405162461bcd60e51b815260206004820152600260248201527f6f610000000000000000000000000000000000000000000000000000000000006044820152606401610ce0565b82816008016000016000828254611fcd91906152f4565b8360ff1660060361231c5781156122b15782816008016001016000828254611fcd91906152e1565b60098101548311156123055760405162461bcd60e51b815260206004820152600260248201527f64610000000000000000000000000000000000000000000000000000000000006044820152606401610ce0565b82816008016001016000828254611fcd91906152f4565b8360ff166007036123af5781156123445782816008016002016000828254611fcd91906152e1565b600a8101548311156123985760405162461bcd60e51b815260206004820152600260248201527f6f770000000000000000000000000000000000000000000000000000000000006044820152606401610ce0565b82816008016002016000828254611fcd91906152f4565b8360ff166008036124425781156123d75782816008016003016000828254611fcd91906152e1565b600b81015483111561242b5760405162461bcd60e51b815260206004820152600260248201527f64770000000000000000000000000000000000000000000000000000000000006044820152606401610ce0565b82816008016003016000828254611fcd91906152f4565b8360ff166009036124d557811561246a5782816008016004016000828254611fcd91906152e1565b600c8101548311156124be5760405162461bcd60e51b815260206004820152600260248201527f6f730000000000000000000000000000000000000000000000000000000000006044820152606401610ce0565b82816008016004016000828254611fcd91906152f4565b8360ff16600a036125685781156124fd5782816008016005016000828254611fcd91906152e1565b600d8101548311156125515760405162461bcd60e51b815260206004820152600260248201527f64730000000000000000000000000000000000000000000000000000000000006044820152606401610ce0565b82816008016005016000828254611fcd91906152f4565b60405162461bcd60e51b81526020600482015260016024820152601d60fa1b6044820152606401610ce0565b61259f818787614798565b506116176001600055565b6125b2614417565b600254604051638a88895360e01b815260ff8087166004830152851660248201528591859133916001600160a01b031690638a88895390604401602060405180830381865afa158015612609573d6000803e3d6000fd5b505050506040513d601f19601f8201168201806040525081019061262d9190615295565b6001600160a01b0316146126695760405162461bcd60e51b815260206004820152600360248201526237bbb760e91b6044820152606401610ce0565b60008311801561267b57506103e88311155b6126c75760405162461bcd60e51b815260206004820152601060248201527f496e76616c6964207175616e74697479000000000000000000000000000000006044820152606401610ce0565b8360ff16600114806126dc57508360ff166002145b61270c5760405162461bcd60e51b81526020600482015260016024820152601d60fa1b6044820152606401610ce0565b600061271a87876002614470565b90506000811161276c5760405162461bcd60e51b815260206004820152600260248201527f62730000000000000000000000000000000000000000000000000000000000006044820152606401610ce0565b60008560ff1660011461278057601d612783565b60195b604080516080810182528254815260018301546020820152600283015491810191909152600390910154606082015290506127c1888883888661450b565b8560ff166001036128005760ff8089166000908152602960209081526040808320938b168352929052908120600a018054879290610e809084906152e1565b60ff8089166000908152602960209081526040808320938b168352929052908120600b018054879290610ebf9084906152e1565b6001546040517f70a082310000000000000000000000000000000000000000000000000000000081523060048201526000916001600160a01b0316906370a0823190602401602060405180830381865afa158015612896573d6000803e3d6000fd5b505050506040513d601f19601f820116820180604052508101906128ba9190615307565b905090565b600d546001600160a01b03163314612903576040517f30cd747100000000000000000000000000000000000000000000000000000000815260040160405180910390fd5b6010547501000000000000000000000000000000000000000000900460ff161561296f5760405162461bcd60e51b815260206004820152600560248201527f6b696c69740000000000000000000000000000000000000000000000000000006044820152606401610ce0565b601080547fffffffffffffffffffffff00ffffffffffffffffffffffffffffffffffffffff1674010000000000000000000000000000000000000000179055565b600d546001600160a01b031633146129f4576040517f30cd747100000000000000000000000000000000000000000000000000000000815260040160405180910390fd5b6010547501000000000000000000000000000000000000000000900460ff1615612a605760405162461bcd60e51b815260206004820152600560248201527f6b696c69740000000000000000000000000000000000000000000000000000006044820152606401610ce0565b600380547fffffffffffffffffffffffff0000000000000000000000000000000000000000166001600160a01b0392909216919091179055565b612aa2614417565b600254604051638a88895360e01b815260ff8087166004830152851660248201528591859133916001600160a01b031690638a88895390604401602060405180830381865afa158015612af9573d6000803e3d6000fd5b505050506040513d601f19601f82011682018060405250810190612b1d9190615295565b6001600160a01b031614612b595760405162461bcd60e51b815260206004820152600360248201526237bbb760e91b6044820152606401610ce0565b8383600960ff8316108015612b715750600960ff8216105b612bbd5760405162461bcd60e51b815260206004820152600560248201527f636f6f72640000000000000000000000000000000000000000000000000000006044820152606401610ce0565b8560ff166004148015612bd357508460ff166004145b15612c205760405162461bcd60e51b815260206004820152600160248201527f63000000000000000000000000000000000000000000000000000000000000006044820152606401610ce0565b60ff8089166000908152602a602090815260408083208b8516845282528083208a851684528252808320898516845290915281205490911690819003612ca85760405162461bcd60e51b815260206004820152600160248201527f6e000000000000000000000000000000000000000000000000000000000000006044820152606401610ce0565b612cb18161477a565b612ce7576040517fb44d49e600000000000000000000000000000000000000000000000000000000815260040160405180910390fd5b8060ff16600303612d1e5760ff808a166000908152600960209081526040808320938c16835292905220805460ff19169055612d51565b8060ff16600603612d515760ff808a166000908152600a60209081526040808320938c16835292905220805460ff191690555b50505060ff8087166000908152602a602090815260408083208985168452825280832088851684528252808320938716835292905220805460ff1916905550610ed390506001600055565b612da4614417565b600e546001600160a01b03163314612dfe5760405162461bcd60e51b815260206004820152600160248201527f61000000000000000000000000000000000000000000000000000000000000006044820152606401610ce0565b60ff8083166000908152602960209081526040808320938516835292905220612e28818484614798565b50612e336001600055565b5050565b6010546001600160a01b03163314612e7b576040517f3f5c695d00000000000000000000000000000000000000000000000000000000815260040160405180910390fd5b601080549115157501000000000000000000000000000000000000000000027fffffffffffffffffffff00ffffffffffffffffffffffffffffffffffffffffff909216919091179055565b612ece614417565b600e546001600160a01b03163314612f285760405162461bcd60e51b815260206004820152600160248201527f61000000000000000000000000000000000000000000000000000000000000006044820152606401610ce0565b60ff8084166000908152600c60209081526040808320938616835292905220805482151560ff19909116179055611eb66001600055565b612fe4604051806101e0016040528060008152602001600081526020016000815260200160008152602001600061ffff16815260200160008152602001600081526020016000815260200160008152602001600081526020016000815260200160008152602001600061ffff168152602001600061ffff168152602001600081525090565b600254604051638a88895360e01b815260ff808616600483015284166024820152849184916000916001600160a01b031690638a88895390604401602060405180830381865afa15801561303c573d6000803e3d6000fd5b505050506040513d601f19601f820116820180604052508101906130609190615295565b9050336001600160a01b038216148015906130995750600e546001600160a01b031615806130995750600e546001600160a01b03163314155b156130d0576040517fda76f5fa00000000000000000000000000000000000000000000000000000000815260040160405180910390fd5b5050505060ff918216600090815260296020908152604080832093909416825291825282902082516101e0810184528154815260018201549281019290925260028101549282019290925260038201546060820152600482015461ffff9081166080830152600583015460a0830152600883015460c0830152600983015460e0830152600a830154610100830152600b830154610120830152600c830154610140830152600d830154610160830152600e830154808216610180840152620100009004166101a0820152600f909101546101c082015290565b6131b1614e11565b600254604051638a88895360e01b815260ff8086166004830152841660248201528491849133916001600160a01b031690638a88895390604401602060405180830381865afa158015613208573d6000803e3d6000fd5b505050506040513d601f19601f8201168201806040525081019061322c9190615295565b6001600160a01b0316146132685760405162461bcd60e51b815260206004820152600360248201526237bbb760e91b6044820152606401610ce0565b613270614e11565b60005b600960ff821610156133275760005b600960ff821610156133145760ff8089166000908152602a602090815260408083208b851684528252808320868516808552908352818420868616855290925290912054909116908490600981106132dc576132dc6153da565b60200201518260ff16600981106132f5576132f56153da565b60ff90921660209290920201528061330c81615409565b915050613282565b508061331f81615409565b915050613273565b5092505b505092915050565b600d546001600160a01b03163314613377576040517f30cd747100000000000000000000000000000000000000000000000000000000815260040160405180910390fd5b6010547501000000000000000000000000000000000000000000900460ff16156133e35760405162461bcd60e51b815260206004820152600560248201527f6b696c69740000000000000000000000000000000000000000000000000000006044820152606401610ce0565b601080547fffffffffffffffffffffff00ffffffffffffffffffffffffffffffffffffffff169055565b613415614417565b600254604051638a88895360e01b815260ff8085166004830152831660248201528391839133916001600160a01b031690638a88895390604401602060405180830381865afa15801561346c573d6000803e3d6000fd5b505050506040513d601f19601f820116820180604052508101906134909190615295565b6001600160a01b0316146134cc5760405162461bcd60e51b815260206004820152600360248201526237bbb760e91b6044820152606401610ce0565b6134d684846147f8565b5050612e336001600055565b600254604051638a88895360e01b815260ff8085166004830152831660248201528391839133916001600160a01b031690638a88895390604401602060405180830381865afa158015613539573d6000803e3d6000fd5b505050506040513d601f19601f8201168201806040525081019061355d9190615295565b6001600160a01b0316146135995760405162461bcd60e51b815260206004820152600360248201526237bbb760e91b6044820152606401610ce0565b6135a1614417565b60105474010000000000000000000000000000000000000000900460ff161561360c5760405162461bcd60e51b815260206004820152600660248201527f70617573656400000000000000000000000000000000000000000000000000006044820152606401610ce0565b60008561ffff1611801561362657506102588561ffff1611155b6136725760405162461bcd60e51b815260206004820152600d60248201527f496e76616c6964207475726e73000000000000000000000000000000000000006044820152606401610ce0565b60045434146136ad576040517f917f1a5300000000000000000000000000000000000000000000000000000000815260040160405180910390fd5b600f546001600160a01b03166136ef576040517fd92e233d00000000000000000000000000000000000000000000000000000000815260040160405180910390fd5b6136f984846147f8565b60ff80851660009081526029602090815260408083209387168352929052206006015461ffff808716911610156137565760405162461bcd60e51b81526020600482015260016024820152601d60fa1b6044820152606401610ce0565b60ff808516600090815260296020908152604080832093871683529290522060050154613786906103e890615428565b613792906103e86152f4565b8561ffff1611156137dc5760ff8085166000908152602960209081526040808320938716835292905220600501546137cd906103e890615428565b6137d9906103e86152f4565b94505b60ff80851660009081526029602090815260408083209387168352929052908120600601805487929061381490849061ffff1661543c565b825461ffff9182166101009390930a92830291909202199091161790555060ff808516600090815260296020908152604080832093871683529290529081204260079091015561386685856005614470565b90506138736001826152e1565b6003546040517f2a2026a900000000000000000000000000000000000000000000000000000000815260ff8089166004830152871660248201529192506000916001600160a01b0390911690632a2026a990604401602060405180830381865afa1580156138e5573d6000803e3d6000fd5b505050506040513d601f19601f820116820180604052508101906139099190615457565b60ff80881660009081526029602090815260408083208a8516845290915290209192508216600103613960576139438361ffff8a1661535f565b815482906000906139559084906152e1565b909155506139ed9050565b8160ff1660020361398d576139798361ffff8a1661535f565b6001820180546000906139559084906152e1565b8160ff166003036139ba576139a68361ffff8a1661535f565b6002820180546000906139559084906152e1565b8160ff166004036139ed576139d38361ffff8a1661535f565b6003820180546000906139e79084906152e1565b90915550505b6139fb8361ffff8a1661535f565b81548290600090613a0d9084906152e1565b90915550613a2190508361ffff8a1661535f565b600182018054600090613a359084906152e1565b90915550613a4990508361ffff8a1661535f565b600282018054600090613a5d9084906152e1565b90915550613a7190508361ffff8a1661535f565b600382018054600090613a859084906152e1565b925050819055508761ffff16816005016000828254613aa491906152e1565b90915550506005810154600090613abe906103e8906153a5565b90506103e8826005016000828254613ad69190615428565b90915550506004820154600090613af290839061ffff1661533d565b90506101f48161ffff161115613b185760048301805461ffff19166101f4179055613b2c565b60048301805461ffff191661ffff83161790555b613b37838a8a614798565b60ff808a166000908152600860209081526040808320938c168352929052908120805461ffff8d169290613b6c9084906152e1565b909155505060ff808a166000908152600c60209081526040808320938c16835292905220805460ff191690556040805161ffff8c16815260ff808c1660208301528a169181019190915233907fbb5b4f7847476e1912e2b57d030b0e491d0d72b2ef256cceea9daa41f40f5d189060600160405180910390a2613bef34336148b9565b600080613bfa614bd1565b90925090508115613d1557600081836005548f61ffff16613c1b919061535f565b613c25919061535f565b613c2f91906153a5565b6001546040517fa9059cbb000000000000000000000000000000000000000000000000000000008152336004820152602481018390529192506000916001600160a01b039091169063a9059cbb906044016020604051808303816000875af1158015613c9f573d6000803e3d6000fd5b505050506040513d601f19601f82011682018060405250810190613cc39190615320565b905080613d125760405162461bcd60e51b815260206004820152601a60248201527f4c4f5020726577617264207472616e73666572206661696c65640000000000006044820152606401610ce0565b50505b60078054906000613d2583615474565b9190505550505050505050506116176001600055565b600254604051638a88895360e01b815260ff8085166004830152831660248201526000918491849133916001600160a01b0390911690638a88895390604401602060405180830381865afa158015613d97573d6000803e3d6000fd5b505050506040513d601f19601f82011682018060405250810190613dbb9190615295565b6001600160a01b031614613df75760405162461bcd60e51b815260206004820152600360248201526237bbb760e91b6044820152606401610ce0565b60ff808616600090815260296020908152604080832093881683529290522060070154610258908190613e2a90426152f4565b613e3491906153a5565b60ff8088166000908152602960209081526040808320938a1683529290522060060154613e65919061ffff166152e1565b1115613e7557610258925061332b565b60ff80861660009081526029602090815260408083209388168352929052206007015461025890613ea690426152f4565b613eb091906153a5565b60ff808716600090815260296020908152604080832093891683529290522060060154613ee1919061ffff166152e1565b925061332b565b613ef0614417565b600254604051638a88895360e01b815260ff8087166004830152851660248201528591859133916001600160a01b031690638a88895390604401602060405180830381865afa158015613f47573d6000803e3d6000fd5b505050506040513d601f19601f82011682018060405250810190613f6b9190615295565b6001600160a01b031614613fa75760405162461bcd60e51b815260206004820152600360248201526237bbb760e91b6044820152606401610ce0565b600083118015613fb957506103e88311155b6140055760405162461bcd60e51b815260206004820152601060248201527f496e76616c6964207175616e74697479000000000000000000000000000000006044820152606401610ce0565b8360ff166001148061401a57508360ff166002145b61404a5760405162461bcd60e51b81526020600482015260016024820152601d60fa1b6044820152606401610ce0565b600061405887876004614470565b9050600081116140aa5760405162461bcd60e51b815260206004820152600160248201527f70000000000000000000000000000000000000000000000000000000000000006044820152606401610ce0565b60008560ff166001146140be5760256140c1565b60215b604080516080810182528254815260018301546020820152600283015491810191909152600390910154606082015290506140ff888883888661450b565b60ff80891660009081526029602090815260408083208b85168452909152902060080190871660010361422657805486111561417d5760405162461bcd60e51b815260206004820152600260248201527f6f610000000000000000000000000000000000000000000000000000000000006044820152606401610ce0565b85816002015410156141d15760405162461bcd60e51b815260206004820152600260248201527f6f770000000000000000000000000000000000000000000000000000000000006044820152606401610ce0565b858160000160008282546141e591906152f4565b925050819055508581600201600082825461420091906152f4565b925050819055508581600401600082825461421b91906152e1565b9091555061431e9050565b858160010154101561427a5760405162461bcd60e51b815260206004820152600260248201527f64610000000000000000000000000000000000000000000000000000000000006044820152606401610ce0565b85816003015410156142ce5760405162461bcd60e51b815260206004820152600260248201527f64770000000000000000000000000000000000000000000000000000000000006044820152606401610ce0565b858160010160008282546142e291906152f4565b92505081905550858160030160008282546142fd91906152f4565b925050819055508581600501600082825461431891906152e1565b90915550505b5050505050610ed36001600055565b600d546001600160a01b03163314614371576040517f30cd747100000000000000000000000000000000000000000000000000000000815260040160405180910390fd5b6010547501000000000000000000000000000000000000000000900460ff16156143dd5760405162461bcd60e51b815260206004820152600560248201527f6b696c69740000000000000000000000000000000000000000000000000000006044820152606401610ce0565b600e80547fffffffffffffffffffffffff0000000000000000000000000000000000000000166001600160a01b0392909216919091179055565b6002600054036144695760405162461bcd60e51b815260206004820152601f60248201527f5265656e7472616e637947756172643a207265656e7472616e742063616c6c006044820152606401610ce0565b6002600055565b600080805b600960ff821610156145025760005b600960ff821610156144ef5760ff8781166000908152602a602090815260408083208a8516845282528083208685168452825280832085851684529091529020548187169116036144dd57826144d981615474565b9350505b806144e781615409565b915050614484565b50806144fa81615409565b915050614475565b50949350505050565b60ff808616600090815260296020908152604080832093881683529290529081208451909190839061453e90869061535f565b61454891906153a5565b905060008385876020015161455d919061535f565b61456791906153a5565b905060008486886040015161457c919061535f565b61458691906153a5565b905060008587896060015161459b919061535f565b6145a591906153a5565b85549091508411156145f95760405162461bcd60e51b815260206004820152600160248201527f66000000000000000000000000000000000000000000000000000000000000006044820152606401610ce0565b600185015483111561464d5760405162461bcd60e51b815260206004820152600160248201527f77000000000000000000000000000000000000000000000000000000000000006044820152606401610ce0565b60028501548211156146a15760405162461bcd60e51b815260206004820152600160248201527f73000000000000000000000000000000000000000000000000000000000000006044820152606401610ce0565b60038501548111156146f55760405162461bcd60e51b815260206004820152600160248201527f69000000000000000000000000000000000000000000000000000000000000006044820152606401610ce0565b8454849086906000906147099084906152f4565b90915550506001850180548491906000906147259084906152f4565b90915550506002850180548391906000906147419084906152f4565b909155505060038501805482919060009061475d9084906152f4565b9091555061476e9050858b8b614798565b50505050505050505050565b600060018260ff16101580156118af575050600860ff909116111590565b600383015460028401546001850154855460009392916147b7916152e1565b6147c191906152e1565b6147cb91906152e1565b600f9094018490555060ff9182166000908152600b60209081526040808320939094168252919091522055565b60ff80831660009081526029602090815260408083209385168352929052908120600701546102589061482b90426152f4565b61483591906153a5565b60ff808516600090815260296020908152604080832093871683529290522060060154614866919061ffff166152e1565b90506102588111614877578061487b565b6102585b60ff93841660009081526029602090815260408083209590961682529390935292909120600601805461ffff191661ffff9093169290921790915550565b6002546040517f4a9fefc70000000000000000000000000000000000000000000000000000000081526001600160a01b0383811660048301526000921690634a9fefc790602401602060405180830381865afa15801561491d573d6000803e3d6000fd5b505050506040513d601f19601f820116820180604052508101906149419190615295565b905061494b614e3f565b600080806000614959614c28565b9250925092508285858061496c90615474565b96506005811061497e5761497e6153da565b6001600160a01b03909216602092909202015281858561499d81615474565b9650600581106149af576149af6153da565b6001600160a01b0390921660209290920201528085856149ce81615474565b9650600581106149e0576149e06153da565b6001600160a01b039283166020919091029190910152600f54168585614a0581615474565b965060058110614a1757614a176153da565b6001600160a01b039092166020929092020152858585614a3681615474565b965060058110614a4857614a486153da565b6001600160a01b0390921660209290920201526000614a67858a6153a5565b90506000805b86811015614b07576000888260058110614a8957614a896153da565b60200201516001600160a01b03168460405160006040518083038185875af1925050503d8060008114614ad8576040519150601f19603f3d011682016040523d82523d6000602084013e614add565b606091505b505090508015614af457614af184846152e1565b92505b5080614aff81615474565b915050614a6d565b506000614b14828c6152f4565b90508015614bc457600f546040516000916001600160a01b03169083908381818185875af1925050503d8060008114614b69576040519150601f19603f3d011682016040523d82523d6000602084013e614b6e565b606091505b5050600f54604080516001600160a01b03909216825260208201859052821515908201529091507fee95dac99b5d637df9dbe3765b5d106af913bb16c5a277c1f75573525839b2ee9060600160405180910390a1505b5050505050505050505050565b6000806000614bde614dd4565b905060058110614bf45750600092600192509050565b80600003614c085750600292600192509050565b6001614c1481836152f4565b614c1f906002615572565b92509250509091565b60008060008060008060005b60148160ff161015614dcb5760005b60148160ff161015614db85760ff8083166000908152600b6020908152604080832093851683529290529081205490819003614c7f5750614da6565b600254604051638a88895360e01b815260ff8086166004830152841660248201526000916001600160a01b031690638a88895390604401602060405180830381865afa158015614cd3573d6000803e3d6000fd5b505050506040513d601f19601f82011682018060405250810190614cf79190615295565b90506001600160a01b038116614d0e575050614da6565b86821115614d255798979650949392508488614da3565b8582118015614d465750896001600160a01b0316816001600160a01b031614155b15614d58579796509392508387614da3565b8482118015614d795750896001600160a01b0316816001600160a01b031614155b8015614d975750886001600160a01b0316816001600160a01b031614155b15614da3578194508097505b50505b80614db081615409565b915050614c43565b5080614dc381615409565b915050614c34565b50505050909192565b600060065460001480614de8575060065442105b15614df4575060001990565b6301e1338060065442614e0791906152f4565b6128ba91906153a5565b6040518061012001604052806009905b614e29614e5d565b815260200190600190039081614e215790505090565b6040518060a001604052806005906020820280368337509192915050565b6040518061012001604052806009906020820280368337509192915050565b60ff81168114614e8b57600080fd5b50565b60008060408385031215614ea157600080fd5b8235614eac81614e7c565b91506020830135614ebc81614e7c565b809150509250929050565b60008060008060808587031215614edd57600080fd5b8435614ee881614e7c565b93506020850135614ef881614e7c565b92506040850135614f0881614e7c565b9396929550929360600135925050565b6001600160a01b0381168114614e8b57600080fd5b600060208284031215614f3f57600080fd5b8135614f4a81614f18565b9392505050565b600080600080600060a08688031215614f6957600080fd5b8535614f7481614e7c565b94506020860135614f8481614e7c565b93506040860135614f9481614e7c565b92506060860135614fa481614e7c565b91506080860135614fb481614e7c565b809150509295509295909350565b600080600060608486031215614fd757600080fd5b8335614fe281614e7c565b92506020840135614ff281614e7c565b9150604084013561500281614e7c565b809150509250925092565b8015158114614e8b57600080fd5b600080600080600060a0868803121561503357600080fd5b853561503e81614e7c565b9450602086013561504e81614e7c565b9350604086013561505e81614e7c565b9250606086013591506080860135614fb48161500d565b6000806000806080858703121561508b57600080fd5b843561509681614e7c565b935060208501356150a681614e7c565b925060408501356150b681614e7c565b915060608501356150c681614e7c565b939692955090935050565b6000602082840312156150e357600080fd5b8135614f4a8161500d565b60008060006060848603121561510357600080fd5b833561510e81614e7c565b9250602084013561511e81614e7c565b915060408401356150028161500d565b60006101e08201905082518252602083015160208301526040830151604083015260608301516060830152608083015161516e608084018261ffff169052565b5060a0838101519083015260c0808401519083015260e0808401519083015261010080840151908301526101208084015190830152610140808401519083015261016080840151908301526101808084015161ffff81168285015250506101a08381015161ffff81168483015250506101c092830151919092015290565b610a20810181836000805b60098082106152065750615247565b835185845b8381101561522c57825160ff1682526020928301929091019060010161520b565b505050610120949094019350602092909201916001016151f7565b5050505092915050565b60006020828403121561526357600080fd5b8135614f4a81614e7c565b60008060006060848603121561528357600080fd5b833561ffff81168114614fe257600080fd5b6000602082840312156152a757600080fd5b8151614f4a81614f18565b7f4e487b7100000000000000000000000000000000000000000000000000000000600052601160045260246000fd5b808201808211156118af576118af6152b2565b818103818111156118af576118af6152b2565b60006020828403121561531957600080fd5b5051919050565b60006020828403121561533257600080fd5b8151614f4a8161500d565b61ffff818116838216019080821115615358576153586152b2565b5092915050565b80820281158282048414176118af576118af6152b2565b7f4e487b7100000000000000000000000000000000000000000000000000000000600052601260045260246000fd5b6000826153b4576153b4615376565b500490565b600061ffff8083168181036153d0576153d06152b2565b6001019392505050565b7f4e487b7100000000000000000000000000000000000000000000000000000000600052603260045260246000fd5b600060ff821660ff810361541f5761541f6152b2565b60010192915050565b60008261543757615437615376565b500690565b61ffff828116828216039080821115615358576153586152b2565b60006020828403121561546957600080fd5b8151614f4a81614e7c565b60006000198203615487576154876152b2565b5060010190565b600181815b808511156154c95781600019048211156154af576154af6152b2565b808516156154bc57918102915b93841c9390800290615493565b509250929050565b6000826154e0575060016118af565b816154ed575060006118af565b8160018114615503576002811461550d57615529565b60019150506118af565b60ff84111561551e5761551e6152b2565b50506001821b6118af565b5060208310610133831016604e8410600b841016171561554c575081810a6118af565b615556838361548e565b806000190482111561556a5761556a6152b2565b029392505050565b6000614f4a83836154d156fea2646970667358221220ab159403d4d07e26adee2eceac7aeecf120ab2ace8abf2f936bd01ad153b8c2364736f6c63430008120033",
			"opcodes": "PUSH8 0x16345785D8A0000 PUSH1 0x4 SSTORE PUSH3 0xF4240 PUSH1 0x5 SSTORE PUSH1 0x78 PUSH1 0x80 DUP2 SWAP1 MSTORE PUSH1 0xA0 DUP2 SWAP1 MSTORE PUSH1 0x64 PUSH1 0xC0 DUP2 SWAP1 MSTORE PUSH1 0xB4 PUSH1 0xE0 DUP2 SWAP1 MSTORE PUSH1 0x11 DUP4 SWAP1 SSTORE PUSH1 0x12 DUP4 SWAP1 SSTORE PUSH1 0x13 DUP3 SWAP1 SSTORE PUSH1 0x14 DUP2 SWAP1 SSTORE PUSH1 0x96 PUSH2 0x100 DUP2 SWAP1 MSTORE PUSH2 0x120 DUP2 SWAP1 MSTORE PUSH2 0x140 DUP4 SWAP1 MSTORE PUSH2 0x190 PUSH2 0x160 DUP2 SWAP1 MSTORE PUSH1 0x15 DUP3 SWAP1 SSTORE PUSH1 0x16 DUP3 SWAP1 SSTORE PUSH1 0x17 DUP5 SWAP1 SSTORE PUSH1 0x18 DUP2 SWAP1 SSTORE PUSH2 0x180 DUP6 SWAP1 MSTORE PUSH2 0x1A0 DUP4 SWAP1 MSTORE PUSH2 0x1C0 DUP5 SWAP1 MSTORE PUSH2 0x12C PUSH2 0x1E0 DUP2 SWAP1 MSTORE PUSH1 0x19 SWAP6 SWAP1 SWAP6 SSTORE PUSH1 0x1A SWAP3 SWAP1 SWAP3 SSTORE PUSH1 0x1B DUP4 SWAP1 SSTORE PUSH1 0x1C SWAP4 SWAP1 SWAP4 SSTORE PUSH2 0x200 DUP4 SWAP1 MSTORE PUSH1 0xC8 PUSH2 0x220 DUP2 SWAP1 MSTORE PUSH2 0x240 DUP4 SWAP1 MSTORE PUSH1 0xFA PUSH2 0x260 DUP2 SWAP1 MSTORE PUSH1 0x1D DUP6 SWAP1 SSTORE PUSH1 0x1E DUP3 SWAP1 SSTORE PUSH1 0x1F DUP5 SWAP1 SSTORE PUSH1 0x20 SSTORE PUSH2 0x280 DUP3 SWAP1 MSTORE PUSH2 0x2A0 DUP2 SWAP1 MSTORE PUSH2 0x2C0 DUP5 SWAP1 MSTORE PUSH2 0x2E0 DUP4 SWAP1 MSTORE PUSH1 0x21 DUP3 SWAP1 SSTORE PUSH1 0x22 DUP2 SWAP1 SSTORE PUSH1 0x23 DUP5 SWAP1 SSTORE PUSH1 0x24 DUP4 SWAP1 SSTORE PUSH2 0x380 PUSH1 0x40 MSTORE PUSH2 0x300 DUP3 SWAP1 MSTORE PUSH2 0x320 DUP2 SWAP1 MSTORE PUSH2 0x340 DUP5 SWAP1 MSTORE PUSH2 0x360 DUP4 SWAP1 MSTORE PUSH1 0x25 SWAP2 SWAP1 SWAP2 SSTORE PUSH1 0x26 SSTORE PUSH1 0x27 SWAP2 SWAP1 SWAP2 SSTORE PUSH1 0x28 SSTORE CALLVALUE DUP1 ISZERO PUSH3 0x13A JUMPI PUSH1 0x0 DUP1 REVERT JUMPDEST POP PUSH1 0x40 MLOAD PUSH3 0x5DD7 CODESIZE SUB DUP1 PUSH3 0x5DD7 DUP4 CODECOPY DUP2 ADD PUSH1 0x40 DUP2 SWAP1 MSTORE PUSH3 0x15D SWAP2 PUSH3 0x7C9 JUMP JUMPDEST PUSH1 0x1 PUSH1 0x0 SSTORE PUSH1 0x2 DUP1 SLOAD PUSH1 0x1 PUSH1 0x1 PUSH1 0xA0 SHL SUB NOT AND PUSH1 0x1 PUSH1 0x1 PUSH1 0xA0 SHL SUB DUP6 AND OR SWAP1 SSTORE PUSH3 0x76A PUSH1 0x40 DUP1 MLOAD PUSH1 0x80 DUP1 DUP3 ADD DUP4 MSTORE PUSH2 0x4D8 DUP1 DUP4 MSTORE PUSH2 0xC80 PUSH1 0x20 DUP1 DUP6 ADD SWAP2 DUP3 MSTORE PUSH2 0x5A0 DUP6 DUP8 ADD SWAP1 DUP2 MSTORE PUSH2 0x370 PUSH1 0x60 DUP1 DUP9 ADD DUP3 DUP2 MSTORE PUSH1 0x1 PUSH1 0x0 SWAP1 DUP2 MSTORE PUSH1 0x2B DUP1 DUP8 MSTORE SWAP10 MLOAD PUSH32 0xFCC3D43705633578A5E8F1B6D6F38D08EB8CB891174EDCC94B1A54972A1AEBBD SSTORE SWAP6 MLOAD PUSH32 0xFCC3D43705633578A5E8F1B6D6F38D08EB8CB891174EDCC94B1A54972A1AEBBE SSTORE SWAP3 MLOAD PUSH32 0xFCC3D43705633578A5E8F1B6D6F38D08EB8CB891174EDCC94B1A54972A1AEBBF SSTORE SWAP2 MLOAD PUSH32 0xFCC3D43705633578A5E8F1B6D6F38D08EB8CB891174EDCC94B1A54972A1AEBC0 SSTORE DUP8 MLOAD DUP1 DUP8 ADD DUP10 MSTORE PUSH2 0x514 DUP1 DUP3 MSTORE PUSH2 0xBB8 DUP3 DUP7 ADD SWAP1 DUP2 MSTORE DUP3 DUP12 ADD SWAP2 DUP3 MSTORE PUSH2 0x384 DUP4 DUP7 ADD SWAP1 DUP2 MSTORE PUSH1 0x2 DUP9 MSTORE DUP11 DUP8 MSTORE SWAP3 MLOAD PUSH32 0xBD6C10E6CE287735500A1C033BE76C57D5E632ADDC2FF6EFF6BB587B8EE0D95C SSTORE MLOAD PUSH32 0xBD6C10E6CE287735500A1C033BE76C57D5E632ADDC2FF6EFF6BB587B8EE0D95D SSTORE MLOAD PUSH32 0xBD6C10E6CE287735500A1C033BE76C57D5E632ADDC2FF6EFF6BB587B8EE0D95E SSTORE MLOAD PUSH32 0xBD6C10E6CE287735500A1C033BE76C57D5E632ADDC2FF6EFF6BB587B8EE0D95F SSTORE DUP8 MLOAD DUP1 DUP8 ADD DUP10 MSTORE PUSH2 0x6E0 DUP2 MSTORE PUSH2 0x1068 DUP2 DUP6 ADD SWAP1 DUP2 MSTORE PUSH2 0x7A8 DUP3 DUP12 ADD SWAP1 DUP2 MSTORE PUSH2 0x528 DUP4 DUP7 ADD SWAP1 DUP2 MSTORE PUSH1 0x3 DUP9 MSTORE DUP11 DUP8 MSTORE SWAP3 MLOAD PUSH32 0xD3904653C5D0F9B122879AA13F7287465A10522AEDD588DBBD607CF6F8B2147F SSTORE SWAP1 MLOAD PUSH32 0xD3904653C5D0F9B122879AA13F7287465A10522AEDD588DBBD607CF6F8B21480 SSTORE MLOAD PUSH32 0xD3904653C5D0F9B122879AA13F7287465A10522AEDD588DBBD607CF6F8B21481 SSTORE MLOAD PUSH32 0xD3904653C5D0F9B122879AA13F7287465A10522AEDD588DBBD607CF6F8B21482 SSTORE DUP8 MLOAD DUP1 DUP8 ADD DUP10 MSTORE DUP6 DUP2 MSTORE PUSH2 0xAF0 DUP2 DUP6 ADD SWAP1 DUP2 MSTORE DUP2 DUP11 ADD SWAP7 DUP8 MSTORE PUSH2 0x3AC DUP3 DUP6 ADD SWAP1 DUP2 MSTORE PUSH1 0x4 DUP8 MSTORE DUP10 DUP7 MSTORE SWAP2 MLOAD PUSH32 0x8BD115FC6EC81AD72D5CA8A8B3BD3D0177F1B615AF6AD35644A4E24A7BED08BC SSTORE MLOAD PUSH32 0x8BD115FC6EC81AD72D5CA8A8B3BD3D0177F1B615AF6AD35644A4E24A7BED08BD SSTORE SWAP5 MLOAD PUSH32 0x8BD115FC6EC81AD72D5CA8A8B3BD3D0177F1B615AF6AD35644A4E24A7BED08BE SSTORE SWAP4 MLOAD PUSH32 0x8BD115FC6EC81AD72D5CA8A8B3BD3D0177F1B615AF6AD35644A4E24A7BED08BF SSTORE DUP7 MLOAD DUP1 DUP7 ADD DUP9 MSTORE PUSH2 0x190 DUP2 MSTORE PUSH2 0x410 DUP2 DUP5 ADD SWAP1 DUP2 MSTORE PUSH2 0x1C2 DUP3 DUP11 ADD SWAP1 DUP2 MSTORE PUSH1 0xE6 DUP4 DUP6 ADD SWAP1 DUP2 MSTORE PUSH1 0x5 DUP8 MSTORE DUP10 DUP7 MSTORE SWAP3 MLOAD PUSH32 0x4B5B933ABDE5416303AE4347D7FCDF5A17E8022E0FEFC2B31C7609EBD3C32FE9 SSTORE SWAP1 MLOAD PUSH32 0x4B5B933ABDE5416303AE4347D7FCDF5A17E8022E0FEFC2B31C7609EBD3C32FEA SSTORE MLOAD PUSH32 0x4B5B933ABDE5416303AE4347D7FCDF5A17E8022E0FEFC2B31C7609EBD3C32FEB SSTORE MLOAD PUSH32 0x4B5B933ABDE5416303AE4347D7FCDF5A17E8022E0FEFC2B31C7609EBD3C32FEC SSTORE DUP7 MLOAD DUP1 DUP7 ADD DUP9 MSTORE PUSH2 0x5B4 DUP1 DUP3 MSTORE PUSH2 0xC30 DUP3 DUP6 ADD SWAP1 DUP2 MSTORE DUP3 DUP11 ADD SWAP2 DUP3 MSTORE DUP3 DUP5 ADD SWAP7 DUP8 MSTORE PUSH1 0x6 DUP7 MSTORE DUP9 DUP6 MSTORE SWAP2 MLOAD PUSH32 0x5AC1F6EA00AD8B0F699E3A293CC93D6FDAF7EE608FBC40FFEF54DB3FB7EBB943 SSTORE SWAP1 MLOAD PUSH32 0x5AC1F6EA00AD8B0F699E3A293CC93D6FDAF7EE608FBC40FFEF54DB3FB7EBB944 SSTORE MLOAD PUSH32 0x5AC1F6EA00AD8B0F699E3A293CC93D6FDAF7EE608FBC40FFEF54DB3FB7EBB945 SSTORE SWAP3 MLOAD PUSH32 0x5AC1F6EA00AD8B0F699E3A293CC93D6FDAF7EE608FBC40FFEF54DB3FB7EBB946 SSTORE DUP6 MLOAD DUP1 DUP6 ADD DUP8 MSTORE PUSH2 0xADC DUP2 MSTORE PUSH2 0x1900 DUP2 DUP4 ADD SWAP1 DUP2 MSTORE PUSH2 0x2FA8 DUP3 DUP10 ADD SWAP1 DUP2 MSTORE PUSH2 0x924 DUP4 DUP8 ADD SWAP1 DUP2 MSTORE PUSH1 0x7 DUP7 MSTORE DUP9 DUP6 MSTORE SWAP3 MLOAD PUSH32 0x455B6DEA826802A5B6200D61A7810FCCBD36F05C878743E3AC0E0E7AFF3A46E8 SSTORE SWAP1 MLOAD PUSH32 0x455B6DEA826802A5B6200D61A7810FCCBD36F05C878743E3AC0E0E7AFF3A46E9 SSTORE MLOAD PUSH32 0x455B6DEA826802A5B6200D61A7810FCCBD36F05C878743E3AC0E0E7AFF3A46EA SSTORE MLOAD PUSH32 0x455B6DEA826802A5B6200D61A7810FCCBD36F05C878743E3AC0E0E7AFF3A46EB SSTORE DUP6 MLOAD SWAP4 DUP5 ADD DUP7 MSTORE PUSH2 0x690 DUP5 MSTORE PUSH2 0xE60 DUP5 DUP3 ADD SWAP1 DUP2 MSTORE PUSH2 0x758 SWAP7 DUP6 ADD SWAP7 DUP8 MSTORE PUSH2 0x550 SWAP4 DUP6 ADD SWAP4 DUP5 MSTORE PUSH1 0x8 SWAP1 SWAP3 MSTORE SWAP4 SWAP1 SWAP4 MSTORE SWAP1 MLOAD PUSH32 0xB145D60EAADB8DBD7AEB92DC4E0FAAE9B4A8D9EACC51E2FDF2D1EDA28A5001F9 SSTORE SWAP1 MLOAD PUSH32 0xB145D60EAADB8DBD7AEB92DC4E0FAAE9B4A8D9EACC51E2FDF2D1EDA28A5001FA SSTORE SWAP1 MLOAD PUSH32 0xB145D60EAADB8DBD7AEB92DC4E0FAAE9B4A8D9EACC51E2FDF2D1EDA28A5001FB SSTORE MLOAD PUSH32 0xB145D60EAADB8DBD7AEB92DC4E0FAAE9B4A8D9EACC51E2FDF2D1EDA28A5001FC SSTORE JUMP JUMPDEST PUSH1 0xD DUP1 SLOAD PUSH1 0x1 PUSH1 0x1 PUSH1 0xA0 SHL SUB NOT SWAP1 DUP2 AND CALLER OR SWAP1 SWAP2 SSTORE PUSH1 0x1 DUP1 SLOAD PUSH1 0x1 PUSH1 0x1 PUSH1 0xA0 SHL SUB SWAP5 DUP6 AND SWAP1 DUP4 AND OR SWAP1 SSTORE TIMESTAMP PUSH1 0x6 SSTORE PUSH1 0x10 DUP1 SLOAD SWAP3 SWAP1 SWAP4 AND SWAP2 AND OR SWAP1 SSTORE POP PUSH3 0x813 JUMP JUMPDEST DUP1 MLOAD PUSH1 0x1 PUSH1 0x1 PUSH1 0xA0 SHL SUB DUP2 AND DUP2 EQ PUSH3 0x7C4 JUMPI PUSH1 0x0 DUP1 REVERT JUMPDEST SWAP2 SWAP1 POP JUMP JUMPDEST PUSH1 0x0 DUP1 PUSH1 0x0 PUSH1 0x60 DUP5 DUP7 SUB SLT ISZERO PUSH3 0x7DF JUMPI PUSH1 0x0 DUP1 REVERT JUMPDEST PUSH3 0x7EA DUP5 PUSH3 0x7AC JUMP JUMPDEST SWAP3 POP PUSH3 0x7FA PUSH1 0x20 DUP6 ADD PUSH3 0x7AC JUMP JUMPDEST SWAP2 POP PUSH3 0x80A PUSH1 0x40 DUP6 ADD PUSH3 0x7AC JUMP JUMPDEST SWAP1 POP SWAP3 POP SWAP3 POP SWAP3 JUMP JUMPDEST PUSH2 0x55B4 DUP1 PUSH3 0x823 PUSH1 0x0 CODECOPY PUSH1 0x0 RETURN INVALID PUSH1 0x80 PUSH1 0x40 MSTORE PUSH1 0x4 CALLDATASIZE LT PUSH2 0x36B JUMPI PUSH1 0x0 CALLDATALOAD PUSH1 0xE0 SHR DUP1 PUSH4 0x7659BC60 GT PUSH2 0x1C6 JUMPI DUP1 PUSH4 0xC14448CD GT PUSH2 0xF7 JUMPI DUP1 PUSH4 0xDECC1BBF GT PUSH2 0x95 JUMPI DUP1 PUSH4 0xF3245254 GT PUSH2 0x6F JUMPI DUP1 PUSH4 0xF3245254 EQ PUSH2 0xBA2 JUMPI DUP1 PUSH4 0xF89D7571 EQ PUSH2 0xBC2 JUMPI DUP1 PUSH4 0xF9C64454 EQ PUSH2 0xBE2 JUMPI DUP1 PUSH4 0xFAE92612 EQ PUSH2 0xC05 JUMPI PUSH1 0x0 DUP1 REVERT JUMPDEST DUP1 PUSH4 0xDECC1BBF EQ PUSH2 0xB38 JUMPI DUP1 PUSH4 0xE9D60A10 EQ PUSH2 0xB5F JUMPI DUP1 PUSH4 0xE9DD6583 EQ PUSH2 0xB8F JUMPI PUSH1 0x0 DUP1 REVERT JUMPDEST DUP1 PUSH4 0xD836D447 GT PUSH2 0xD1 JUMPI DUP1 PUSH4 0xD836D447 EQ PUSH2 0xA59 JUMPI DUP1 PUSH4 0xDAA17F49 EQ PUSH2 0xAE2 JUMPI DUP1 PUSH4 0xDD4B466B EQ PUSH2 0xB02 JUMPI DUP1 PUSH4 0xDE8CA33A EQ PUSH2 0xB22 JUMPI PUSH1 0x0 DUP1 REVERT JUMPDEST DUP1 PUSH4 0xC14448CD EQ PUSH2 0x9C7 JUMPI DUP1 PUSH4 0xC1712D57 EQ PUSH2 0x9DC JUMPI DUP1 PUSH4 0xCCD5E491 EQ PUSH2 0xA1E JUMPI PUSH1 0x0 DUP1 REVERT JUMPDEST DUP1 PUSH4 0x9A4A2084 GT PUSH2 0x164 JUMPI DUP1 PUSH4 0xBC4462DE GT PUSH2 0x13E JUMPI DUP1 PUSH4 0xBC4462DE EQ PUSH2 0x937 JUMPI DUP1 PUSH4 0xBD638378 EQ PUSH2 0x957 JUMPI DUP1 PUSH4 0xBDC7DA8E EQ PUSH2 0x984 JUMPI DUP1 PUSH4 0xBE9A263C EQ PUSH2 0x99A JUMPI PUSH1 0x0 DUP1 REVERT JUMPDEST DUP1 PUSH4 0x9A4A2084 EQ PUSH2 0x8B5 JUMPI DUP1 PUSH4 0x9C54E471 EQ PUSH2 0x8D5 JUMPI DUP1 PUSH4 0xA596B645 EQ PUSH2 0x914 JUMPI PUSH1 0x0 DUP1 REVERT JUMPDEST DUP1 PUSH4 0x887ACA72 GT PUSH2 0x1A0 JUMPI DUP1 PUSH4 0x887ACA72 EQ PUSH2 0x81A JUMPI DUP1 PUSH4 0x8C87FA4F EQ PUSH2 0x852 JUMPI DUP1 PUSH4 0x8DA5CB5B EQ PUSH2 0x875 JUMPI DUP1 PUSH4 0x97CEFC4C EQ PUSH2 0x895 JUMPI PUSH1 0x0 DUP1 REVERT JUMPDEST DUP1 PUSH4 0x7659BC60 EQ PUSH2 0x7B7 JUMPI DUP1 PUSH4 0x7CCA26D9 EQ PUSH2 0x7D7 JUMPI DUP1 PUSH4 0x800BFA27 EQ PUSH2 0x7F7 JUMPI PUSH1 0x0 DUP1 REVERT JUMPDEST DUP1 PUSH4 0x41EDE44F GT PUSH2 0x2A0 JUMPI DUP1 PUSH4 0x562AAFB6 GT PUSH2 0x23E JUMPI DUP1 PUSH4 0x620A9A99 GT PUSH2 0x218 JUMPI DUP1 PUSH4 0x620A9A99 EQ PUSH2 0x74B JUMPI DUP1 PUSH4 0x65AF3A2F EQ PUSH2 0x76E JUMPI DUP1 PUSH4 0x6C9230DB EQ PUSH2 0x784 JUMPI DUP1 PUSH4 0x7502BAD4 EQ PUSH2 0x797 JUMPI PUSH1 0x0 DUP1 REVERT JUMPDEST DUP1 PUSH4 0x562AAFB6 EQ PUSH2 0x6F6 JUMPI DUP1 PUSH4 0x5D219D5F EQ PUSH2 0x70B JUMPI DUP1 PUSH4 0x60B76B52 EQ PUSH2 0x72B JUMPI PUSH1 0x0 DUP1 REVERT JUMPDEST DUP1 PUSH4 0x42EAA7C8 GT PUSH2 0x27A JUMPI DUP1 PUSH4 0x42EAA7C8 EQ PUSH2 0x63F JUMPI DUP1 PUSH4 0x4855735C EQ PUSH2 0x654 JUMPI DUP1 PUSH4 0x4F264B03 EQ PUSH2 0x693 JUMPI DUP1 PUSH4 0x537E8F49 EQ PUSH2 0x6B3 JUMPI PUSH1 0x0 DUP1 REVERT JUMPDEST DUP1 PUSH4 0x41EDE44F EQ PUSH2 0x5C9 JUMPI DUP1 PUSH4 0x4274B164 EQ PUSH2 0x609 JUMPI DUP1 PUSH4 0x428967DA EQ PUSH2 0x629 JUMPI PUSH1 0x0 DUP1 REVERT JUMPDEST DUP1 PUSH4 0x21B74EA7 GT PUSH2 0x30D JUMPI DUP1 PUSH4 0x33B95EE0 GT PUSH2 0x2E7 JUMPI DUP1 PUSH4 0x33B95EE0 EQ PUSH2 0x50B JUMPI DUP1 PUSH4 0x351662E4 EQ PUSH2 0x546 JUMPI DUP1 PUSH4 0x3E5F2857 EQ PUSH2 0x566 JUMPI DUP1 PUSH4 0x4173F9E9 EQ PUSH2 0x586 JUMPI PUSH1 0x0 DUP1 REVERT JUMPDEST DUP1 PUSH4 0x21B74EA7 EQ PUSH2 0x48F JUMPI DUP1 PUSH4 0x2A490AE8 EQ PUSH2 0x4B3 JUMPI DUP1 PUSH4 0x2EF78865 EQ PUSH2 0x4D3 JUMPI PUSH1 0x0 DUP1 REVERT JUMPDEST DUP1 PUSH4 0xDF7B41A GT PUSH2 0x349 JUMPI DUP1 PUSH4 0xDF7B41A EQ PUSH2 0x41A JUMPI DUP1 PUSH4 0xEE22F31 EQ PUSH2 0x43A JUMPI DUP1 PUSH4 0x15E91B48 EQ PUSH2 0x45A JUMPI DUP1 PUSH4 0x1ACC55EA EQ PUSH2 0x46F JUMPI PUSH1 0x0 DUP1 REVERT JUMPDEST DUP1 PUSH4 0x2CD77E6 EQ PUSH2 0x370 JUMPI DUP1 PUSH4 0x7722BC2 EQ PUSH2 0x3C0 JUMPI DUP1 PUSH4 0xD67F59E EQ PUSH2 0x3E2 JUMPI JUMPDEST PUSH1 0x0 DUP1 REVERT JUMPDEST CALLVALUE DUP1 ISZERO PUSH2 0x37C JUMPI PUSH1 0x0 DUP1 REVERT JUMPDEST POP PUSH2 0x3AB PUSH2 0x38B CALLDATASIZE PUSH1 0x4 PUSH2 0x4E8E JUMP JUMPDEST PUSH1 0xA PUSH1 0x20 SWAP1 DUP2 MSTORE PUSH1 0x0 SWAP3 DUP4 MSTORE PUSH1 0x40 DUP1 DUP5 KECCAK256 SWAP1 SWAP2 MSTORE SWAP1 DUP3 MSTORE SWAP1 KECCAK256 SLOAD PUSH1 0xFF AND DUP2 JUMP JUMPDEST PUSH1 0x40 MLOAD SWAP1 ISZERO ISZERO DUP2 MSTORE PUSH1 0x20 ADD JUMPDEST PUSH1 0x40 MLOAD DUP1 SWAP2 SUB SWAP1 RETURN JUMPDEST CALLVALUE DUP1 ISZERO PUSH2 0x3CC JUMPI PUSH1 0x0 DUP1 REVERT JUMPDEST POP PUSH2 0x3E0 PUSH2 0x3DB CALLDATASIZE PUSH1 0x4 PUSH2 0x4EC7 JUMP JUMPDEST PUSH2 0xC25 JUMP JUMPDEST STOP JUMPDEST CALLVALUE DUP1 ISZERO PUSH2 0x3EE JUMPI PUSH1 0x0 DUP1 REVERT JUMPDEST POP PUSH1 0x1 SLOAD PUSH2 0x402 SWAP1 PUSH1 0x1 PUSH1 0x1 PUSH1 0xA0 SHL SUB AND DUP2 JUMP JUMPDEST PUSH1 0x40 MLOAD PUSH1 0x1 PUSH1 0x1 PUSH1 0xA0 SHL SUB SWAP1 SWAP2 AND DUP2 MSTORE PUSH1 0x20 ADD PUSH2 0x3B7 JUMP JUMPDEST CALLVALUE DUP1 ISZERO PUSH2 0x426 JUMPI PUSH1 0x0 DUP1 REVERT JUMPDEST POP PUSH2 0x3E0 PUSH2 0x435 CALLDATASIZE PUSH1 0x4 PUSH2 0x4F2D JUMP JUMPDEST PUSH2 0xED9 JUMP JUMPDEST CALLVALUE DUP1 ISZERO PUSH2 0x446 JUMPI PUSH1 0x0 DUP1 REVERT JUMPDEST POP PUSH2 0x3E0 PUSH2 0x455 CALLDATASIZE PUSH1 0x4 PUSH2 0x4F51 JUMP JUMPDEST PUSH2 0xFC3 JUMP JUMPDEST CALLVALUE DUP1 ISZERO PUSH2 0x466 JUMPI PUSH1 0x0 DUP1 REVERT JUMPDEST POP PUSH2 0x3E0 PUSH2 0x161E JUMP JUMPDEST CALLVALUE DUP1 ISZERO PUSH2 0x47B JUMPI PUSH1 0x0 DUP1 REVERT JUMPDEST POP PUSH2 0x3AB PUSH2 0x48A CALLDATASIZE PUSH1 0x4 PUSH2 0x4E8E JUMP JUMPDEST PUSH2 0x188C JUMP JUMPDEST CALLVALUE DUP1 ISZERO PUSH2 0x49B JUMPI PUSH1 0x0 DUP1 REVERT JUMPDEST POP PUSH2 0x4A5 PUSH1 0x4 SLOAD DUP2 JUMP JUMPDEST PUSH1 0x40 MLOAD SWAP1 DUP2 MSTORE PUSH1 0x20 ADD PUSH2 0x3B7 JUMP JUMPDEST CALLVALUE DUP1 ISZERO PUSH2 0x4BF JUMPI PUSH1 0x0 DUP1 REVERT JUMPDEST POP PUSH2 0x4A5 PUSH2 0x4CE CALLDATASIZE PUSH1 0x4 PUSH2 0x4E8E JUMP JUMPDEST PUSH2 0x18B5 JUMP JUMPDEST CALLVALUE DUP1 ISZERO PUSH2 0x4DF JUMPI PUSH1 0x0 DUP1 REVERT JUMPDEST POP PUSH2 0x4A5 PUSH2 0x4EE CALLDATASIZE PUSH1 0x4 PUSH2 0x4E8E JUMP JUMPDEST PUSH1 0xB PUSH1 0x20 SWAP1 DUP2 MSTORE PUSH1 0x0 SWAP3 DUP4 MSTORE PUSH1 0x40 DUP1 DUP5 KECCAK256 SWAP1 SWAP2 MSTORE SWAP1 DUP3 MSTORE SWAP1 KECCAK256 SLOAD DUP2 JUMP JUMPDEST CALLVALUE DUP1 ISZERO PUSH2 0x517 JUMPI PUSH1 0x0 DUP1 REVERT JUMPDEST POP PUSH2 0x3AB PUSH2 0x526 CALLDATASIZE PUSH1 0x4 PUSH2 0x4E8E JUMP JUMPDEST PUSH1 0x9 PUSH1 0x20 SWAP1 DUP2 MSTORE PUSH1 0x0 SWAP3 DUP4 MSTORE PUSH1 0x40 DUP1 DUP5 KECCAK256 SWAP1 SWAP2 MSTORE SWAP1 DUP3 MSTORE SWAP1 KECCAK256 SLOAD PUSH1 0xFF AND DUP2 JUMP JUMPDEST CALLVALUE DUP1 ISZERO PUSH2 0x552 JUMPI PUSH1 0x0 DUP1 REVERT JUMPDEST POP PUSH2 0x3E0 PUSH2 0x561 CALLDATASIZE PUSH1 0x4 PUSH2 0x4FC2 JUMP JUMPDEST PUSH2 0x19BB JUMP JUMPDEST CALLVALUE DUP1 ISZERO PUSH2 0x572 JUMPI PUSH1 0x0 DUP1 REVERT JUMPDEST POP PUSH2 0x3E0 PUSH2 0x581 CALLDATASIZE PUSH1 0x4 PUSH2 0x501B JUMP JUMPDEST PUSH2 0x1EBB JUMP JUMPDEST CALLVALUE DUP1 ISZERO PUSH2 0x592 JUMPI PUSH1 0x0 DUP1 REVERT JUMPDEST POP PUSH2 0x4A5 PUSH2 0x5A1 CALLDATASIZE PUSH1 0x4 PUSH2 0x4E8E JUMP JUMPDEST PUSH1 0xFF SWAP2 DUP3 AND PUSH1 0x0 SWAP1 DUP2 MSTORE PUSH1 0x29 PUSH1 0x20 SWAP1 DUP2 MSTORE PUSH1 0x40 DUP1 DUP4 KECCAK256 SWAP4 SWAP1 SWAP5 AND DUP3 MSTORE SWAP2 SWAP1 SWAP2 MSTORE KECCAK256 PUSH1 0x7 ADD SLOAD SWAP1 JUMP JUMPDEST CALLVALUE DUP1 ISZERO PUSH2 0x5D5 JUMPI PUSH1 0x0 DUP1 REVERT JUMPDEST POP PUSH2 0x4A5 PUSH2 0x5E4 CALLDATASIZE PUSH1 0x4 PUSH2 0x4E8E JUMP JUMPDEST PUSH1 0xFF SWAP2 DUP3 AND PUSH1 0x0 SWAP1 DUP2 MSTORE PUSH1 0x8 PUSH1 0x20 SWAP1 DUP2 MSTORE PUSH1 0x40 DUP1 DUP4 KECCAK256 SWAP4 SWAP1 SWAP5 AND DUP3 MSTORE SWAP2 SWAP1 SWAP2 MSTORE KECCAK256 SLOAD SWAP1 JUMP JUMPDEST CALLVALUE DUP1 ISZERO PUSH2 0x615 JUMPI PUSH1 0x0 DUP1 REVERT JUMPDEST POP PUSH2 0x3E0 PUSH2 0x624 CALLDATASIZE PUSH1 0x4 PUSH2 0x4EC7 JUMP JUMPDEST PUSH2 0x25AA JUMP JUMPDEST CALLVALUE DUP1 ISZERO PUSH2 0x635 JUMPI PUSH1 0x0 DUP1 REVERT JUMPDEST POP PUSH2 0x4A5 PUSH1 0x5 SLOAD DUP2 JUMP JUMPDEST CALLVALUE DUP1 ISZERO PUSH2 0x64B JUMPI PUSH1 0x0 DUP1 REVERT JUMPDEST POP PUSH2 0x4A5 PUSH2 0x2834 JUMP JUMPDEST CALLVALUE DUP1 ISZERO PUSH2 0x660 JUMPI PUSH1 0x0 DUP1 REVERT JUMPDEST POP PUSH2 0x3AB PUSH2 0x66F CALLDATASIZE PUSH1 0x4 PUSH2 0x4E8E JUMP JUMPDEST PUSH1 0xFF SWAP2 DUP3 AND PUSH1 0x0 SWAP1 DUP2 MSTORE PUSH1 0xA PUSH1 0x20 SWAP1 DUP2 MSTORE PUSH1 0x40 DUP1 DUP4 KECCAK256 SWAP4 DUP6 AND DUP4 MSTORE SWAP3 SWAP1 MSTORE KECCAK256 SLOAD AND SWAP1 JUMP JUMPDEST CALLVALUE DUP1 ISZERO PUSH2 0x69F JUMPI PUSH1 0x0 DUP1 REVERT JUMPDEST POP PUSH1 0x2 SLOAD PUSH2 0x402 SWAP1 PUSH1 0x1 PUSH1 0x1 PUSH1 0xA0 SHL SUB AND DUP2 JUMP JUMPDEST CALLVALUE DUP1 ISZERO PUSH2 0x6BF JUMPI PUSH1 0x0 DUP1 REVERT JUMPDEST POP PUSH1 0x1D SLOAD PUSH1 0x1E SLOAD PUSH1 0x1F SLOAD PUSH1 0x20 SLOAD PUSH2 0x6D6 SWAP4 SWAP3 SWAP2 SWAP1 DUP5 JUMP JUMPDEST PUSH1 0x40 DUP1 MLOAD SWAP5 DUP6 MSTORE PUSH1 0x20 DUP6 ADD SWAP4 SWAP1 SWAP4 MSTORE SWAP2 DUP4 ADD MSTORE PUSH1 0x60 DUP3 ADD MSTORE PUSH1 0x80 ADD PUSH2 0x3B7 JUMP JUMPDEST CALLVALUE DUP1 ISZERO PUSH2 0x702 JUMPI PUSH1 0x0 DUP1 REVERT JUMPDEST POP PUSH2 0x3E0 PUSH2 0x28BF JUMP JUMPDEST CALLVALUE DUP1 ISZERO PUSH2 0x717 JUMPI PUSH1 0x0 DUP1 REVERT JUMPDEST POP PUSH2 0x3E0 PUSH2 0x726 CALLDATASIZE PUSH1 0x4 PUSH2 0x4F2D JUMP JUMPDEST PUSH2 0x29B0 JUMP JUMPDEST CALLVALUE DUP1 ISZERO PUSH2 0x737 JUMPI PUSH1 0x0 DUP1 REVERT JUMPDEST POP PUSH2 0x3E0 PUSH2 0x746 CALLDATASIZE PUSH1 0x4 PUSH2 0x5075 JUMP JUMPDEST PUSH2 0x2A9A JUMP JUMPDEST CALLVALUE DUP1 ISZERO PUSH2 0x757 JUMPI PUSH1 0x0 DUP1 REVERT JUMPDEST POP PUSH1 0x11 SLOAD PUSH1 0x12 SLOAD PUSH1 0x13 SLOAD PUSH1 0x14 SLOAD PUSH2 0x6D6 SWAP4 SWAP3 SWAP2 SWAP1 DUP5 JUMP JUMPDEST CALLVALUE DUP1 ISZERO PUSH2 0x77A JUMPI PUSH1 0x0 DUP1 REVERT JUMPDEST POP PUSH2 0x4A5 PUSH1 0x6 SLOAD DUP2 JUMP JUMPDEST CALLVALUE DUP1 ISZERO PUSH2 0x790 JUMPI PUSH1 0x0 DUP1 REVERT JUMPDEST POP TIMESTAMP PUSH2 0x4A5 JUMP JUMPDEST CALLVALUE DUP1 ISZERO PUSH2 0x7A3 JUMPI PUSH1 0x0 DUP1 REVERT JUMPDEST POP PUSH1 0xF SLOAD PUSH2 0x402 SWAP1 PUSH1 0x1 PUSH1 0x1 PUSH1 0xA0 SHL SUB AND DUP2 JUMP JUMPDEST CALLVALUE DUP1 ISZERO PUSH2 0x7C3 JUMPI PUSH1 0x0 DUP1 REVERT JUMPDEST POP PUSH2 0x3E0 PUSH2 0x7D2 CALLDATASIZE PUSH1 0x4 PUSH2 0x4E8E JUMP JUMPDEST PUSH2 0x2D9C JUMP JUMPDEST CALLVALUE DUP1 ISZERO PUSH2 0x7E3 JUMPI PUSH1 0x0 DUP1 REVERT JUMPDEST POP PUSH1 0x3 SLOAD PUSH2 0x402 SWAP1 PUSH1 0x1 PUSH1 0x1 PUSH1 0xA0 SHL SUB AND DUP2 JUMP JUMPDEST CALLVALUE DUP1 ISZERO PUSH2 0x803 JUMPI PUSH1 0x0 DUP1 REVERT JUMPDEST POP PUSH1 0x19 SLOAD PUSH1 0x1A SLOAD PUSH1 0x1B SLOAD PUSH1 0x1C SLOAD PUSH2 0x6D6 SWAP4 SWAP3 SWAP2 SWAP1 DUP5 JUMP JUMPDEST CALLVALUE DUP1 ISZERO PUSH2 0x826 JUMPI PUSH1 0x0 DUP1 REVERT JUMPDEST POP PUSH2 0x4A5 PUSH2 0x835 CALLDATASIZE PUSH1 0x4 PUSH2 0x4E8E JUMP JUMPDEST PUSH1 0x8 PUSH1 0x20 SWAP1 DUP2 MSTORE PUSH1 0x0 SWAP3 DUP4 MSTORE PUSH1 0x40 DUP1 DUP5 KECCAK256 SWAP1 SWAP2 MSTORE SWAP1 DUP3 MSTORE SWAP1 KECCAK256 SLOAD DUP2 JUMP JUMPDEST CALLVALUE DUP1 ISZERO PUSH2 0x85E JUMPI PUSH1 0x0 DUP1 REVERT JUMPDEST POP PUSH1 0x15 SLOAD PUSH1 0x16 SLOAD PUSH1 0x17 SLOAD PUSH1 0x18 SLOAD PUSH2 0x6D6 SWAP4 SWAP3 SWAP2 SWAP1 DUP5 JUMP JUMPDEST CALLVALUE DUP1 ISZERO PUSH2 0x881 JUMPI PUSH1 0x0 DUP1 REVERT JUMPDEST POP PUSH1 0xD SLOAD PUSH2 0x402 SWAP1 PUSH1 0x1 PUSH1 0x1 PUSH1 0xA0 SHL SUB AND DUP2 JUMP JUMPDEST CALLVALUE DUP1 ISZERO PUSH2 0x8A1 JUMPI PUSH1 0x0 DUP1 REVERT JUMPDEST POP PUSH2 0x3E0 PUSH2 0x8B0 CALLDATASIZE PUSH1 0x4 PUSH2 0x50D1 JUMP JUMPDEST PUSH2 0x2E37 JUMP JUMPDEST CALLVALUE DUP1 ISZERO PUSH2 0x8C1 JUMPI PUSH1 0x0 DUP1 REVERT JUMPDEST POP PUSH2 0x3E0 PUSH2 0x8D0 CALLDATASIZE PUSH1 0x4 PUSH2 0x50EE JUMP JUMPDEST PUSH2 0x2EC6 JUMP JUMPDEST CALLVALUE DUP1 ISZERO PUSH2 0x8E1 JUMPI PUSH1 0x0 DUP1 REVERT JUMPDEST POP PUSH2 0x3AB PUSH2 0x8F0 CALLDATASIZE PUSH1 0x4 PUSH2 0x4E8E JUMP JUMPDEST PUSH1 0xFF SWAP2 DUP3 AND PUSH1 0x0 SWAP1 DUP2 MSTORE PUSH1 0xC PUSH1 0x20 SWAP1 DUP2 MSTORE PUSH1 0x40 DUP1 DUP4 KECCAK256 SWAP4 DUP6 AND DUP4 MSTORE SWAP3 SWAP1 MSTORE KECCAK256 SLOAD AND SWAP1 JUMP JUMPDEST CALLVALUE DUP1 ISZERO PUSH2 0x920 JUMPI PUSH1 0x0 DUP1 REVERT JUMPDEST POP PUSH1 0x21 SLOAD PUSH1 0x22 SLOAD PUSH1 0x23 SLOAD PUSH1 0x24 SLOAD PUSH2 0x6D6 SWAP4 SWAP3 SWAP2 SWAP1 DUP5 JUMP JUMPDEST CALLVALUE DUP1 ISZERO PUSH2 0x943 JUMPI PUSH1 0x0 DUP1 REVERT JUMPDEST POP PUSH1 0x10 SLOAD PUSH2 0x402 SWAP1 PUSH1 0x1 PUSH1 0x1 PUSH1 0xA0 SHL SUB AND DUP2 JUMP JUMPDEST CALLVALUE DUP1 ISZERO PUSH2 0x963 JUMPI PUSH1 0x0 DUP1 REVERT JUMPDEST POP PUSH2 0x977 PUSH2 0x972 CALLDATASIZE PUSH1 0x4 PUSH2 0x4E8E JUMP JUMPDEST PUSH2 0x2F5F JUMP JUMPDEST PUSH1 0x40 MLOAD PUSH2 0x3B7 SWAP2 SWAP1 PUSH2 0x512E JUMP JUMPDEST CALLVALUE DUP1 ISZERO PUSH2 0x990 JUMPI PUSH1 0x0 DUP1 REVERT JUMPDEST POP PUSH2 0x4A5 PUSH2 0x3E8 DUP2 JUMP JUMPDEST CALLVALUE DUP1 ISZERO PUSH2 0x9A6 JUMPI PUSH1 0x0 DUP1 REVERT JUMPDEST POP PUSH2 0x9BA PUSH2 0x9B5 CALLDATASIZE PUSH1 0x4 PUSH2 0x4E8E JUMP JUMPDEST PUSH2 0x31A9 JUMP JUMPDEST PUSH1 0x40 MLOAD PUSH2 0x3B7 SWAP2 SWAP1 PUSH2 0x51EC JUMP JUMPDEST CALLVALUE DUP1 ISZERO PUSH2 0x9D3 JUMPI PUSH1 0x0 DUP1 REVERT JUMPDEST POP PUSH2 0x3E0 PUSH2 0x3333 JUMP JUMPDEST CALLVALUE DUP1 ISZERO PUSH2 0x9E8 JUMPI PUSH1 0x0 DUP1 REVERT JUMPDEST POP PUSH2 0x6D6 PUSH2 0x9F7 CALLDATASIZE PUSH1 0x4 PUSH2 0x5251 JUMP JUMPDEST PUSH1 0x2B PUSH1 0x20 MSTORE PUSH1 0x0 SWAP1 DUP2 MSTORE PUSH1 0x40 SWAP1 KECCAK256 DUP1 SLOAD PUSH1 0x1 DUP3 ADD SLOAD PUSH1 0x2 DUP4 ADD SLOAD PUSH1 0x3 SWAP1 SWAP4 ADD SLOAD SWAP2 SWAP3 SWAP1 SWAP2 DUP5 JUMP JUMPDEST CALLVALUE DUP1 ISZERO PUSH2 0xA2A JUMPI PUSH1 0x0 DUP1 REVERT JUMPDEST POP PUSH2 0x3AB PUSH2 0xA39 CALLDATASIZE PUSH1 0x4 PUSH2 0x4E8E JUMP JUMPDEST PUSH1 0xC PUSH1 0x20 SWAP1 DUP2 MSTORE PUSH1 0x0 SWAP3 DUP4 MSTORE PUSH1 0x40 DUP1 DUP5 KECCAK256 SWAP1 SWAP2 MSTORE SWAP1 DUP3 MSTORE SWAP1 KECCAK256 SLOAD PUSH1 0xFF AND DUP2 JUMP JUMPDEST CALLVALUE DUP1 ISZERO PUSH2 0xA65 JUMPI PUSH1 0x0 DUP1 REVERT JUMPDEST POP PUSH2 0xAC3 PUSH2 0xA74 CALLDATASIZE PUSH1 0x4 PUSH2 0x4E8E JUMP JUMPDEST PUSH1 0x40 DUP1 MLOAD DUP1 DUP3 ADD DUP3 MSTORE PUSH1 0x0 DUP1 DUP3 MSTORE PUSH1 0x20 SWAP2 DUP3 ADD DUP2 SWAP1 MSTORE PUSH1 0xFF SWAP5 DUP6 AND DUP2 MSTORE PUSH1 0x29 DUP3 MSTORE DUP3 DUP2 KECCAK256 SWAP4 SWAP1 SWAP5 AND DUP5 MSTORE SWAP2 DUP3 MSTORE SWAP2 DUP3 SWAP1 KECCAK256 DUP3 MLOAD DUP1 DUP5 ADD SWAP1 SWAP4 MSTORE PUSH1 0x4 DUP2 ADD SLOAD PUSH2 0xFFFF AND DUP4 MSTORE PUSH1 0xF ADD SLOAD SWAP1 DUP3 ADD MSTORE SWAP1 JUMP JUMPDEST PUSH1 0x40 DUP1 MLOAD DUP3 MLOAD PUSH2 0xFFFF AND DUP2 MSTORE PUSH1 0x20 SWAP3 DUP4 ADD MLOAD SWAP3 DUP2 ADD SWAP3 SWAP1 SWAP3 MSTORE ADD PUSH2 0x3B7 JUMP JUMPDEST CALLVALUE DUP1 ISZERO PUSH2 0xAEE JUMPI PUSH1 0x0 DUP1 REVERT JUMPDEST POP PUSH1 0xE SLOAD PUSH2 0x402 SWAP1 PUSH1 0x1 PUSH1 0x1 PUSH1 0xA0 SHL SUB AND DUP2 JUMP JUMPDEST CALLVALUE DUP1 ISZERO PUSH2 0xB0E JUMPI PUSH1 0x0 DUP1 REVERT JUMPDEST POP PUSH2 0x3E0 PUSH2 0xB1D CALLDATASIZE PUSH1 0x4 PUSH2 0x4E8E JUMP JUMPDEST PUSH2 0x340D JUMP JUMPDEST CALLVALUE DUP1 ISZERO PUSH2 0xB2E JUMPI PUSH1 0x0 DUP1 REVERT JUMPDEST POP PUSH2 0x4A5 PUSH1 0x7 SLOAD DUP2 JUMP JUMPDEST CALLVALUE DUP1 ISZERO PUSH2 0xB44 JUMPI PUSH1 0x0 DUP1 REVERT JUMPDEST POP PUSH2 0xB4D PUSH1 0x9 DUP2 JUMP JUMPDEST PUSH1 0x40 MLOAD PUSH1 0xFF SWAP1 SWAP2 AND DUP2 MSTORE PUSH1 0x20 ADD PUSH2 0x3B7 JUMP JUMPDEST CALLVALUE DUP1 ISZERO PUSH2 0xB6B JUMPI PUSH1 0x0 DUP1 REVERT JUMPDEST POP PUSH1 0x10 SLOAD PUSH21 0x10000000000000000000000000000000000000000 SWAP1 DIV PUSH1 0xFF AND PUSH2 0x3AB JUMP JUMPDEST PUSH2 0x3E0 PUSH2 0xB9D CALLDATASIZE PUSH1 0x4 PUSH2 0x526E JUMP JUMPDEST PUSH2 0x34E2 JUMP JUMPDEST CALLVALUE DUP1 ISZERO PUSH2 0xBAE JUMPI PUSH1 0x0 DUP1 REVERT JUMPDEST POP PUSH2 0x4A5 PUSH2 0xBBD CALLDATASIZE PUSH1 0x4 PUSH2 0x4E8E JUMP JUMPDEST PUSH2 0x3D3B JUMP JUMPDEST CALLVALUE DUP1 ISZERO PUSH2 0xBCE JUMPI PUSH1 0x0 DUP1 REVERT JUMPDEST POP PUSH2 0x3E0 PUSH2 0xBDD CALLDATASIZE PUSH1 0x4 PUSH2 0x4EC7 JUMP JUMPDEST PUSH2 0x3EE8 JUMP JUMPDEST CALLVALUE DUP1 ISZERO PUSH2 0xBEE JUMPI PUSH1 0x0 DUP1 REVERT JUMPDEST POP PUSH1 0x25 SLOAD PUSH1 0x26 SLOAD PUSH1 0x27 SLOAD PUSH1 0x28 SLOAD PUSH2 0x6D6 SWAP4 SWAP3 SWAP2 SWAP1 DUP5 JUMP JUMPDEST CALLVALUE DUP1 ISZERO PUSH2 0xC11 JUMPI PUSH1 0x0 DUP1 REVERT JUMPDEST POP PUSH2 0x3E0 PUSH2 0xC20 CALLDATASIZE PUSH1 0x4 PUSH2 0x4F2D JUMP JUMPDEST PUSH2 0x432D JUMP JUMPDEST PUSH2 0xC2D PUSH2 0x4417 JUMP JUMPDEST PUSH1 0x2 SLOAD PUSH1 0x40 MLOAD PUSH4 0x8A888953 PUSH1 0xE0 SHL DUP2 MSTORE PUSH1 0xFF DUP1 DUP8 AND PUSH1 0x4 DUP4 ADD MSTORE DUP6 AND PUSH1 0x24 DUP3 ADD MSTORE DUP6 SWAP2 DUP6 SWAP2 CALLER SWAP2 PUSH1 0x1 PUSH1 0x1 PUSH1 0xA0 SHL SUB AND SWAP1 PUSH4 0x8A888953 SWAP1 PUSH1 0x44 ADD PUSH1 0x20 PUSH1 0x40 MLOAD DUP1 DUP4 SUB DUP2 DUP7 GAS STATICCALL ISZERO DUP1 ISZERO PUSH2 0xC84 JUMPI RETURNDATASIZE PUSH1 0x0 DUP1 RETURNDATACOPY RETURNDATASIZE PUSH1 0x0 REVERT JUMPDEST POP POP POP POP PUSH1 0x40 MLOAD RETURNDATASIZE PUSH1 0x1F NOT PUSH1 0x1F DUP3 ADD AND DUP3 ADD DUP1 PUSH1 0x40 MSTORE POP DUP2 ADD SWAP1 PUSH2 0xCA8 SWAP2 SWAP1 PUSH2 0x5295 JUMP JUMPDEST PUSH1 0x1 PUSH1 0x1 PUSH1 0xA0 SHL SUB AND EQ PUSH2 0xCE9 JUMPI PUSH1 0x40 MLOAD PUSH3 0x461BCD PUSH1 0xE5 SHL DUP2 MSTORE PUSH1 0x20 PUSH1 0x4 DUP3 ADD MSTORE PUSH1 0x3 PUSH1 0x24 DUP3 ADD MSTORE PUSH3 0x37BBB7 PUSH1 0xE9 SHL PUSH1 0x44 DUP3 ADD MSTORE PUSH1 0x64 ADD JUMPDEST PUSH1 0x40 MLOAD DUP1 SWAP2 SUB SWAP1 REVERT JUMPDEST PUSH1 0x0 DUP4 GT DUP1 ISZERO PUSH2 0xCFB JUMPI POP PUSH2 0x3E8 DUP4 GT ISZERO JUMPDEST PUSH2 0xD47 JUMPI PUSH1 0x40 MLOAD PUSH3 0x461BCD PUSH1 0xE5 SHL DUP2 MSTORE PUSH1 0x20 PUSH1 0x4 DUP3 ADD MSTORE PUSH1 0x10 PUSH1 0x24 DUP3 ADD MSTORE PUSH32 0x496E76616C6964207175616E7469747900000000000000000000000000000000 PUSH1 0x44 DUP3 ADD MSTORE PUSH1 0x64 ADD PUSH2 0xCE0 JUMP JUMPDEST DUP4 PUSH1 0xFF AND PUSH1 0x1 EQ DUP1 PUSH2 0xD5C JUMPI POP DUP4 PUSH1 0xFF AND PUSH1 0x2 EQ JUMPDEST PUSH2 0xD8C JUMPI PUSH1 0x40 MLOAD PUSH3 0x461BCD PUSH1 0xE5 SHL DUP2 MSTORE PUSH1 0x20 PUSH1 0x4 DUP3 ADD MSTORE PUSH1 0x1 PUSH1 0x24 DUP3 ADD MSTORE PUSH1 0x1D PUSH1 0xFA SHL PUSH1 0x44 DUP3 ADD MSTORE PUSH1 0x64 ADD PUSH2 0xCE0 JUMP JUMPDEST PUSH1 0x0 PUSH2 0xD9A DUP8 DUP8 PUSH1 0x1 PUSH2 0x4470 JUMP JUMPDEST SWAP1 POP PUSH1 0x0 DUP2 GT PUSH2 0xDEC JUMPI PUSH1 0x40 MLOAD PUSH3 0x461BCD PUSH1 0xE5 SHL DUP2 MSTORE PUSH1 0x20 PUSH1 0x4 DUP3 ADD MSTORE PUSH1 0x1 PUSH1 0x24 DUP3 ADD MSTORE PUSH32 0x6100000000000000000000000000000000000000000000000000000000000000 PUSH1 0x44 DUP3 ADD MSTORE PUSH1 0x64 ADD PUSH2 0xCE0 JUMP JUMPDEST PUSH1 0x0 DUP6 PUSH1 0xFF AND PUSH1 0x1 EQ PUSH2 0xE00 JUMPI PUSH1 0x15 PUSH2 0xE03 JUMP JUMPDEST PUSH1 0x11 JUMPDEST PUSH1 0x40 DUP1 MLOAD PUSH1 0x80 DUP2 ADD DUP3 MSTORE DUP3 SLOAD DUP2 MSTORE PUSH1 0x1 DUP4 ADD SLOAD PUSH1 0x20 DUP3 ADD MSTORE PUSH1 0x2 DUP4 ADD SLOAD SWAP2 DUP2 ADD SWAP2 SWAP1 SWAP2 MSTORE PUSH1 0x3 SWAP1 SWAP2 ADD SLOAD PUSH1 0x60 DUP3 ADD MSTORE SWAP1 POP PUSH2 0xE41 DUP9 DUP9 DUP4 DUP9 DUP7 PUSH2 0x450B JUMP JUMPDEST DUP6 PUSH1 0xFF AND PUSH1 0x1 SUB PUSH2 0xE8B JUMPI PUSH1 0xFF DUP1 DUP10 AND PUSH1 0x0 SWAP1 DUP2 MSTORE PUSH1 0x29 PUSH1 0x20 SWAP1 DUP2 MSTORE PUSH1 0x40 DUP1 DUP4 KECCAK256 SWAP4 DUP12 AND DUP4 MSTORE SWAP3 SWAP1 MSTORE SWAP1 DUP2 KECCAK256 PUSH1 0x8 ADD DUP1 SLOAD DUP8 SWAP3 SWAP1 PUSH2 0xE80 SWAP1 DUP5 SWAP1 PUSH2 0x52E1 JUMP JUMPDEST SWAP1 SWAP2 SSTORE POP PUSH2 0xEC5 SWAP1 POP JUMP JUMPDEST PUSH1 0xFF DUP1 DUP10 AND PUSH1 0x0 SWAP1 DUP2 MSTORE PUSH1 0x29 PUSH1 0x20 SWAP1 DUP2 MSTORE PUSH1 0x40 DUP1 DUP4 KECCAK256 SWAP4 DUP12 AND DUP4 MSTORE SWAP3 SWAP1 MSTORE SWAP1 DUP2 KECCAK256 PUSH1 0x9 ADD DUP1 SLOAD DUP8 SWAP3 SWAP1 PUSH2 0xEBF SWAP1 DUP5 SWAP1 PUSH2 0x52E1 JUMP JUMPDEST SWAP1 SWAP2 SSTORE POP POP JUMPDEST POP POP POP POP PUSH2 0xED3 PUSH1 0x1 PUSH1 0x0 SSTORE JUMP JUMPDEST POP POP POP POP JUMP JUMPDEST PUSH1 0xD SLOAD PUSH1 0x1 PUSH1 0x1 PUSH1 0xA0 SHL SUB AND CALLER EQ PUSH2 0xF1D JUMPI PUSH1 0x40 MLOAD PUSH32 0x30CD747100000000000000000000000000000000000000000000000000000000 DUP2 MSTORE PUSH1 0x4 ADD PUSH1 0x40 MLOAD DUP1 SWAP2 SUB SWAP1 REVERT JUMPDEST PUSH1 0x10 SLOAD PUSH22 0x1000000000000000000000000000000000000000000 SWAP1 DIV PUSH1 0xFF AND ISZERO PUSH2 0xF89 JUMPI PUSH1 0x40 MLOAD PUSH3 0x461BCD PUSH1 0xE5 SHL DUP2 MSTORE PUSH1 0x20 PUSH1 0x4 DUP3 ADD MSTORE PUSH1 0x5 PUSH1 0x24 DUP3 ADD MSTORE PUSH32 0x6B696C6974000000000000000000000000000000000000000000000000000000 PUSH1 0x44 DUP3 ADD MSTORE PUSH1 0x64 ADD PUSH2 0xCE0 JUMP JUMPDEST PUSH1 0xF DUP1 SLOAD PUSH32 0xFFFFFFFFFFFFFFFFFFFFFFFF0000000000000000000000000000000000000000 AND PUSH1 0x1 PUSH1 0x1 PUSH1 0xA0 SHL SUB SWAP3 SWAP1 SWAP3 AND SWAP2 SWAP1 SWAP2 OR SWAP1 SSTORE JUMP JUMPDEST PUSH2 0xFCB PUSH2 0x4417 JUMP JUMPDEST PUSH1 0x2 SLOAD PUSH1 0x40 MLOAD PUSH4 0x8A888953 PUSH1 0xE0 SHL DUP2 MSTORE PUSH1 0xFF DUP1 DUP9 AND PUSH1 0x4 DUP4 ADD MSTORE DUP7 AND PUSH1 0x24 DUP3 ADD MSTORE DUP7 SWAP2 DUP7 SWAP2 CALLER SWAP2 PUSH1 0x1 PUSH1 0x1 PUSH1 0xA0 SHL SUB AND SWAP1 PUSH4 0x8A888953 SWAP1 PUSH1 0x44 ADD PUSH1 0x20 PUSH1 0x40 MLOAD DUP1 DUP4 SUB DUP2 DUP7 GAS STATICCALL ISZERO DUP1 ISZERO PUSH2 0x1022 JUMPI RETURNDATASIZE PUSH1 0x0 DUP1 RETURNDATACOPY RETURNDATASIZE PUSH1 0x0 REVERT JUMPDEST POP POP POP POP PUSH1 0x40 MLOAD RETURNDATASIZE PUSH1 0x1F NOT PUSH1 0x1F DUP3 ADD AND DUP3 ADD DUP1 PUSH1 0x40 MSTORE POP DUP2 ADD SWAP1 PUSH2 0x1046 SWAP2 SWAP1 PUSH2 0x5295 JUMP JUMPDEST PUSH1 0x1 PUSH1 0x1 PUSH1 0xA0 SHL SUB AND EQ PUSH2 0x1082 JUMPI PUSH1 0x40 MLOAD PUSH3 0x461BCD PUSH1 0xE5 SHL DUP2 MSTORE PUSH1 0x20 PUSH1 0x4 DUP3 ADD MSTORE PUSH1 0x3 PUSH1 0x24 DUP3 ADD MSTORE PUSH3 0x37BBB7 PUSH1 0xE9 SHL PUSH1 0x44 DUP3 ADD MSTORE PUSH1 0x64 ADD PUSH2 0xCE0 JUMP JUMPDEST DUP5 DUP5 PUSH1 0x9 PUSH1 0xFF DUP4 AND LT DUP1 ISZERO PUSH2 0x109A JUMPI POP PUSH1 0x9 PUSH1 0xFF DUP3 AND LT JUMPDEST PUSH2 0x10E6 JUMPI PUSH1 0x40 MLOAD PUSH3 0x461BCD PUSH1 0xE5 SHL DUP2 MSTORE PUSH1 0x20 PUSH1 0x4 DUP3 ADD MSTORE PUSH1 0x5 PUSH1 0x24 DUP3 ADD MSTORE PUSH32 0x636F6F7264000000000000000000000000000000000000000000000000000000 PUSH1 0x44 DUP3 ADD MSTORE PUSH1 0x64 ADD PUSH2 0xCE0 JUMP JUMPDEST PUSH2 0x10EF DUP6 PUSH2 0x477A JUMP JUMPDEST PUSH2 0x1125 JUMPI PUSH1 0x40 MLOAD PUSH32 0xB44D49E600000000000000000000000000000000000000000000000000000000 DUP2 MSTORE PUSH1 0x4 ADD PUSH1 0x40 MLOAD DUP1 SWAP2 SUB SWAP1 REVERT JUMPDEST DUP7 PUSH1 0xFF AND PUSH1 0x4 EQ DUP1 ISZERO PUSH2 0x113B JUMPI POP DUP6 PUSH1 0xFF AND PUSH1 0x4 EQ JUMPDEST ISZERO PUSH2 0x1188 JUMPI PUSH1 0x40 MLOAD PUSH3 0x461BCD PUSH1 0xE5 SHL DUP2 MSTORE PUSH1 0x20 PUSH1 0x4 DUP3 ADD MSTORE PUSH1 0x1 PUSH1 0x24 DUP3 ADD MSTORE PUSH32 0x6300000000000000000000000000000000000000000000000000000000000000 PUSH1 0x44 DUP3 ADD MSTORE PUSH1 0x64 ADD PUSH2 0xCE0 JUMP JUMPDEST PUSH1 0xFF DUP1 DUP11 AND PUSH1 0x0 SWAP1 DUP2 MSTORE PUSH1 0x2A PUSH1 0x20 SWAP1 DUP2 MSTORE PUSH1 0x40 DUP1 DUP4 KECCAK256 DUP13 DUP6 AND DUP5 MSTORE DUP3 MSTORE DUP1 DUP4 KECCAK256 DUP12 DUP6 AND DUP5 MSTORE DUP3 MSTORE DUP1 DUP4 KECCAK256 DUP11 DUP6 AND DUP5 MSTORE SWAP1 SWAP2 MSTORE SWAP1 KECCAK256 SLOAD AND DUP1 ISZERO PUSH2 0x120C JUMPI PUSH1 0x40 MLOAD PUSH3 0x461BCD PUSH1 0xE5 SHL DUP2 MSTORE PUSH1 0x20 PUSH1 0x4 DUP3 ADD MSTORE PUSH1 0x1 PUSH1 0x24 DUP3 ADD MSTORE PUSH32 0x6500000000000000000000000000000000000000000000000000000000000000 PUSH1 0x44 DUP3 ADD MSTORE PUSH1 0x64 ADD PUSH2 0xCE0 JUMP JUMPDEST DUP6 PUSH1 0xFF AND PUSH1 0x3 SUB PUSH2 0x129F JUMPI PUSH2 0x1223 DUP11 DUP11 PUSH1 0x3 PUSH2 0x4470 JUMP JUMPDEST ISZERO PUSH2 0x1270 JUMPI PUSH1 0x40 MLOAD PUSH3 0x461BCD PUSH1 0xE5 SHL DUP2 MSTORE PUSH1 0x20 PUSH1 0x4 DUP3 ADD MSTORE PUSH1 0x1 PUSH1 0x24 DUP3 ADD MSTORE PUSH32 0x6300000000000000000000000000000000000000000000000000000000000000 PUSH1 0x44 DUP3 ADD MSTORE PUSH1 0x64 ADD PUSH2 0xCE0 JUMP JUMPDEST PUSH1 0xFF DUP1 DUP12 AND PUSH1 0x0 SWAP1 DUP2 MSTORE PUSH1 0x9 PUSH1 0x20 SWAP1 DUP2 MSTORE PUSH1 0x40 DUP1 DUP4 KECCAK256 SWAP4 DUP14 AND DUP4 MSTORE SWAP3 SWAP1 MSTORE KECCAK256 DUP1 SLOAD PUSH1 0xFF NOT AND PUSH1 0x1 OR SWAP1 SSTORE PUSH2 0x132E JUMP JUMPDEST DUP6 PUSH1 0xFF AND PUSH1 0x6 SUB PUSH2 0x132E JUMPI PUSH2 0x12B6 DUP11 DUP11 PUSH1 0x6 PUSH2 0x4470 JUMP JUMPDEST ISZERO PUSH2 0x1303 JUMPI PUSH1 0x40 MLOAD PUSH3 0x461BCD PUSH1 0xE5 SHL DUP2 MSTORE PUSH1 0x20 PUSH1 0x4 DUP3 ADD MSTORE PUSH1 0x1 PUSH1 0x24 DUP3 ADD MSTORE PUSH32 0x6D00000000000000000000000000000000000000000000000000000000000000 PUSH1 0x44 DUP3 ADD MSTORE PUSH1 0x64 ADD PUSH2 0xCE0 JUMP JUMPDEST PUSH1 0xFF DUP1 DUP12 AND PUSH1 0x0 SWAP1 DUP2 MSTORE PUSH1 0xA PUSH1 0x20 SWAP1 DUP2 MSTORE PUSH1 0x40 DUP1 DUP4 KECCAK256 SWAP4 DUP14 AND DUP4 MSTORE SWAP3 SWAP1 MSTORE KECCAK256 DUP1 SLOAD PUSH1 0xFF NOT AND PUSH1 0x1 OR SWAP1 SSTORE JUMPDEST PUSH1 0xFF DUP7 AND PUSH1 0x0 SWAP1 DUP2 MSTORE PUSH1 0x2B PUSH1 0x20 SWAP1 DUP2 MSTORE PUSH1 0x40 SWAP2 DUP3 SWAP1 KECCAK256 DUP3 MLOAD PUSH1 0x80 DUP2 ADD DUP5 MSTORE DUP2 SLOAD DUP1 DUP3 MSTORE PUSH1 0x1 DUP4 ADD SLOAD SWAP4 DUP3 ADD DUP5 SWAP1 MSTORE PUSH1 0x2 DUP4 ADD SLOAD SWAP5 DUP3 ADD DUP6 SWAP1 MSTORE PUSH1 0x3 SWAP1 SWAP3 ADD SLOAD PUSH1 0x60 DUP3 ADD DUP2 SWAP1 MSTORE SWAP1 SWAP4 SWAP3 SWAP1 SWAP2 OR SWAP1 SWAP2 OR OR PUSH2 0x13CC JUMPI PUSH1 0x40 MLOAD PUSH3 0x461BCD PUSH1 0xE5 SHL DUP2 MSTORE PUSH1 0x4 ADD PUSH2 0xCE0 SWAP1 PUSH1 0x20 DUP1 DUP3 MSTORE PUSH1 0x4 SWAP1 DUP3 ADD MSTORE PUSH32 0x6672656500000000000000000000000000000000000000000000000000000000 PUSH1 0x40 DUP3 ADD MSTORE PUSH1 0x60 ADD SWAP1 JUMP JUMPDEST PUSH1 0xFF DUP1 DUP13 AND PUSH1 0x0 SWAP1 DUP2 MSTORE PUSH1 0x29 PUSH1 0x20 SWAP1 DUP2 MSTORE PUSH1 0x40 DUP1 DUP4 KECCAK256 SWAP4 DUP15 AND DUP4 MSTORE SWAP3 SWAP1 MSTORE KECCAK256 DUP2 MLOAD DUP2 SLOAD LT ISZERO PUSH2 0x143D JUMPI PUSH1 0x40 MLOAD PUSH3 0x461BCD PUSH1 0xE5 SHL DUP2 MSTORE PUSH1 0x20 PUSH1 0x4 DUP3 ADD MSTORE PUSH1 0x1 PUSH1 0x24 DUP3 ADD MSTORE PUSH32 0x6600000000000000000000000000000000000000000000000000000000000000 PUSH1 0x44 DUP3 ADD MSTORE PUSH1 0x64 ADD PUSH2 0xCE0 JUMP JUMPDEST PUSH1 0x20 DUP3 ADD MLOAD PUSH1 0x1 DUP3 ADD SLOAD LT ISZERO PUSH2 0x1495 JUMPI PUSH1 0x40 MLOAD PUSH3 0x461BCD PUSH1 0xE5 SHL DUP2 MSTORE PUSH1 0x20 PUSH1 0x4 DUP3 ADD MSTORE PUSH1 0x1 PUSH1 0x24 DUP3 ADD MSTORE PUSH32 0x7700000000000000000000000000000000000000000000000000000000000000 PUSH1 0x44 DUP3 ADD MSTORE PUSH1 0x64 ADD PUSH2 0xCE0 JUMP JUMPDEST PUSH1 0x40 DUP3 ADD MLOAD PUSH1 0x2 DUP3 ADD SLOAD LT ISZERO PUSH2 0x14ED JUMPI PUSH1 0x40 MLOAD PUSH3 0x461BCD PUSH1 0xE5 SHL DUP2 MSTORE PUSH1 0x20 PUSH1 0x4 DUP3 ADD MSTORE PUSH1 0x1 PUSH1 0x24 DUP3 ADD MSTORE PUSH32 0x7300000000000000000000000000000000000000000000000000000000000000 PUSH1 0x44 DUP3 ADD MSTORE PUSH1 0x64 ADD PUSH2 0xCE0 JUMP JUMPDEST PUSH1 0x60 DUP3 ADD MLOAD PUSH1 0x3 DUP3 ADD SLOAD LT ISZERO PUSH2 0x1545 JUMPI PUSH1 0x40 MLOAD PUSH3 0x461BCD PUSH1 0xE5 SHL DUP2 MSTORE PUSH1 0x20 PUSH1 0x4 DUP3 ADD MSTORE PUSH1 0x1 PUSH1 0x24 DUP3 ADD MSTORE PUSH32 0x6900000000000000000000000000000000000000000000000000000000000000 PUSH1 0x44 DUP3 ADD MSTORE PUSH1 0x64 ADD PUSH2 0xCE0 JUMP JUMPDEST DUP2 MLOAD DUP2 SLOAD DUP3 SWAP1 PUSH1 0x0 SWAP1 PUSH2 0x1559 SWAP1 DUP5 SWAP1 PUSH2 0x52F4 JUMP JUMPDEST SWAP1 SWAP2 SSTORE POP POP PUSH1 0x20 DUP3 ADD MLOAD PUSH1 0x1 DUP3 ADD DUP1 SLOAD PUSH1 0x0 SWAP1 PUSH2 0x1577 SWAP1 DUP5 SWAP1 PUSH2 0x52F4 JUMP JUMPDEST SWAP1 SWAP2 SSTORE POP POP PUSH1 0x40 DUP3 ADD MLOAD PUSH1 0x2 DUP3 ADD DUP1 SLOAD PUSH1 0x0 SWAP1 PUSH2 0x1595 SWAP1 DUP5 SWAP1 PUSH2 0x52F4 JUMP JUMPDEST SWAP1 SWAP2 SSTORE POP POP PUSH1 0x60 DUP3 ADD MLOAD PUSH1 0x3 DUP3 ADD DUP1 SLOAD PUSH1 0x0 SWAP1 PUSH2 0x15B3 SWAP1 DUP5 SWAP1 PUSH2 0x52F4 JUMP JUMPDEST SWAP1 SWAP2 SSTORE POP POP PUSH1 0xFF DUP13 DUP2 AND PUSH1 0x0 SWAP1 DUP2 MSTORE PUSH1 0x2A PUSH1 0x20 SWAP1 DUP2 MSTORE PUSH1 0x40 DUP1 DUP4 KECCAK256 DUP16 DUP6 AND DUP5 MSTORE DUP3 MSTORE DUP1 DUP4 KECCAK256 DUP15 DUP6 AND DUP5 MSTORE DUP3 MSTORE DUP1 DUP4 KECCAK256 DUP14 DUP6 AND DUP5 MSTORE SWAP1 SWAP2 MSTORE SWAP1 KECCAK256 DUP1 SLOAD PUSH1 0xFF NOT AND SWAP2 DUP11 AND SWAP2 SWAP1 SWAP2 OR SWAP1 SSTORE PUSH2 0x1606 DUP2 DUP14 DUP14 PUSH2 0x4798 JUMP JUMPDEST POP POP POP POP POP POP POP PUSH2 0x1617 PUSH1 0x1 PUSH1 0x0 SSTORE JUMP JUMPDEST POP POP POP POP POP JUMP JUMPDEST PUSH1 0xD SLOAD PUSH1 0x1 PUSH1 0x1 PUSH1 0xA0 SHL SUB AND CALLER EQ PUSH2 0x1662 JUMPI PUSH1 0x40 MLOAD PUSH32 0x30CD747100000000000000000000000000000000000000000000000000000000 DUP2 MSTORE PUSH1 0x4 ADD PUSH1 0x40 MLOAD DUP1 SWAP2 SUB SWAP1 REVERT JUMPDEST PUSH2 0x166A PUSH2 0x4417 JUMP JUMPDEST PUSH1 0x10 SLOAD PUSH22 0x1000000000000000000000000000000000000000000 SWAP1 DIV PUSH1 0xFF AND ISZERO PUSH2 0x16D6 JUMPI PUSH1 0x40 MLOAD PUSH3 0x461BCD PUSH1 0xE5 SHL DUP2 MSTORE PUSH1 0x20 PUSH1 0x4 DUP3 ADD MSTORE PUSH1 0x5 PUSH1 0x24 DUP3 ADD MSTORE PUSH32 0x6B696C6974000000000000000000000000000000000000000000000000000000 PUSH1 0x44 DUP3 ADD MSTORE PUSH1 0x64 ADD PUSH2 0xCE0 JUMP JUMPDEST PUSH1 0x1 SLOAD PUSH1 0x40 MLOAD PUSH32 0x70A0823100000000000000000000000000000000000000000000000000000000 DUP2 MSTORE ADDRESS PUSH1 0x4 DUP3 ADD MSTORE PUSH1 0x0 SWAP2 PUSH1 0x1 PUSH1 0x1 PUSH1 0xA0 SHL SUB AND SWAP1 PUSH4 0x70A08231 SWAP1 PUSH1 0x24 ADD PUSH1 0x20 PUSH1 0x40 MLOAD DUP1 DUP4 SUB DUP2 DUP7 GAS STATICCALL ISZERO DUP1 ISZERO PUSH2 0x1738 JUMPI RETURNDATASIZE PUSH1 0x0 DUP1 RETURNDATACOPY RETURNDATASIZE PUSH1 0x0 REVERT JUMPDEST POP POP POP POP PUSH1 0x40 MLOAD RETURNDATASIZE PUSH1 0x1F NOT PUSH1 0x1F DUP3 ADD AND DUP3 ADD DUP1 PUSH1 0x40 MSTORE POP DUP2 ADD SWAP1 PUSH2 0x175C SWAP2 SWAP1 PUSH2 0x5307 JUMP JUMPDEST SWAP1 POP DUP1 PUSH1 0x0 SUB PUSH2 0x1798 JUMPI PUSH1 0x40 MLOAD PUSH32 0x1F2A200500000000000000000000000000000000000000000000000000000000 DUP2 MSTORE PUSH1 0x4 ADD PUSH1 0x40 MLOAD DUP1 SWAP2 SUB SWAP1 REVERT JUMPDEST PUSH1 0x1 SLOAD PUSH1 0xD SLOAD PUSH1 0x40 MLOAD PUSH32 0xA9059CBB00000000000000000000000000000000000000000000000000000000 DUP2 MSTORE PUSH1 0x1 PUSH1 0x1 PUSH1 0xA0 SHL SUB SWAP2 DUP3 AND PUSH1 0x4 DUP3 ADD MSTORE PUSH1 0x24 DUP2 ADD DUP5 SWAP1 MSTORE PUSH1 0x0 SWAP3 SWAP2 SWAP1 SWAP2 AND SWAP1 PUSH4 0xA9059CBB SWAP1 PUSH1 0x44 ADD PUSH1 0x20 PUSH1 0x40 MLOAD DUP1 DUP4 SUB DUP2 PUSH1 0x0 DUP8 GAS CALL ISZERO DUP1 ISZERO PUSH2 0x180B JUMPI RETURNDATASIZE PUSH1 0x0 DUP1 RETURNDATACOPY RETURNDATASIZE PUSH1 0x0 REVERT JUMPDEST POP POP POP POP PUSH1 0x40 MLOAD RETURNDATASIZE PUSH1 0x1F NOT PUSH1 0x1F DUP3 ADD AND DUP3 ADD DUP1 PUSH1 0x40 MSTORE POP DUP2 ADD SWAP1 PUSH2 0x182F SWAP2 SWAP1 PUSH2 0x5320 JUMP JUMPDEST SWAP1 POP DUP1 PUSH2 0x187E JUMPI PUSH1 0x40 MLOAD PUSH3 0x461BCD PUSH1 0xE5 SHL DUP2 MSTORE PUSH1 0x20 PUSH1 0x4 DUP3 ADD MSTORE PUSH1 0x13 PUSH1 0x24 DUP3 ADD MSTORE PUSH32 0x4C4F50207769746864726177206661696C656400000000000000000000000000 PUSH1 0x44 DUP3 ADD MSTORE PUSH1 0x64 ADD PUSH2 0xCE0 JUMP JUMPDEST POP POP PUSH2 0x188A PUSH1 0x1 PUSH1 0x0 SSTORE JUMP JUMPDEST JUMP JUMPDEST PUSH1 0xFF DUP1 DUP4 AND PUSH1 0x0 SWAP1 DUP2 MSTORE PUSH1 0x9 PUSH1 0x20 SWAP1 DUP2 MSTORE PUSH1 0x40 DUP1 DUP4 KECCAK256 DUP6 DUP6 AND DUP5 MSTORE SWAP1 SWAP2 MSTORE SWAP1 KECCAK256 SLOAD AND JUMPDEST SWAP3 SWAP2 POP POP JUMP JUMPDEST PUSH1 0x2 SLOAD PUSH1 0x40 MLOAD PUSH4 0x8A888953 PUSH1 0xE0 SHL DUP2 MSTORE PUSH1 0xFF DUP1 DUP6 AND PUSH1 0x4 DUP4 ADD MSTORE DUP4 AND PUSH1 0x24 DUP3 ADD MSTORE PUSH1 0x0 SWAP2 DUP5 SWAP2 DUP5 SWAP2 DUP5 SWAP2 PUSH1 0x1 PUSH1 0x1 PUSH1 0xA0 SHL SUB SWAP1 SWAP2 AND SWAP1 PUSH4 0x8A888953 SWAP1 PUSH1 0x44 ADD PUSH1 0x20 PUSH1 0x40 MLOAD DUP1 DUP4 SUB DUP2 DUP7 GAS STATICCALL ISZERO DUP1 ISZERO PUSH2 0x1911 JUMPI RETURNDATASIZE PUSH1 0x0 DUP1 RETURNDATACOPY RETURNDATASIZE PUSH1 0x0 REVERT JUMPDEST POP POP POP POP PUSH1 0x40 MLOAD RETURNDATASIZE PUSH1 0x1F NOT PUSH1 0x1F DUP3 ADD AND DUP3 ADD DUP1 PUSH1 0x40 MSTORE POP DUP2 ADD SWAP1 PUSH2 0x1935 SWAP2 SWAP1 PUSH2 0x5295 JUMP JUMPDEST SWAP1 POP CALLER PUSH1 0x1 PUSH1 0x1 PUSH1 0xA0 SHL SUB DUP3 AND EQ DUP1 ISZERO SWAP1 PUSH2 0x196E JUMPI POP PUSH1 0xE SLOAD PUSH1 0x1 PUSH1 0x1 PUSH1 0xA0 SHL SUB AND ISZERO DUP1 PUSH2 0x196E JUMPI POP PUSH1 0xE SLOAD PUSH1 0x1 PUSH1 0x1 PUSH1 0xA0 SHL SUB AND CALLER EQ ISZERO JUMPDEST ISZERO PUSH2 0x19A5 JUMPI PUSH1 0x40 MLOAD PUSH32 0xDA76F5FA00000000000000000000000000000000000000000000000000000000 DUP2 MSTORE PUSH1 0x4 ADD PUSH1 0x40 MLOAD DUP1 SWAP2 SUB SWAP1 REVERT JUMPDEST PUSH2 0x19B1 DUP7 DUP7 PUSH1 0x7 PUSH2 0x4470 JUMP JUMPDEST SWAP7 SWAP6 POP POP POP POP POP POP JUMP JUMPDEST PUSH2 0x19C3 PUSH2 0x4417 JUMP JUMPDEST PUSH1 0x2 SLOAD PUSH1 0x40 MLOAD PUSH4 0x8A888953 PUSH1 0xE0 SHL DUP2 MSTORE PUSH1 0xFF DUP1 DUP7 AND PUSH1 0x4 DUP4 ADD MSTORE DUP5 AND PUSH1 0x24 DUP3 ADD MSTORE DUP5 SWAP2 DUP5 SWAP2 CALLER SWAP2 PUSH1 0x1 PUSH1 0x1 PUSH1 0xA0 SHL SUB AND SWAP1 PUSH4 0x8A888953 SWAP1 PUSH1 0x44 ADD PUSH1 0x20 PUSH1 0x40 MLOAD DUP1 DUP4 SUB DUP2 DUP7 GAS STATICCALL ISZERO DUP1 ISZERO PUSH2 0x1A1A JUMPI RETURNDATASIZE PUSH1 0x0 DUP1 RETURNDATACOPY RETURNDATASIZE PUSH1 0x0 REVERT JUMPDEST POP POP POP POP PUSH1 0x40 MLOAD RETURNDATASIZE PUSH1 0x1F NOT PUSH1 0x1F DUP3 ADD AND DUP3 ADD DUP1 PUSH1 0x40 MSTORE POP DUP2 ADD SWAP1 PUSH2 0x1A3E SWAP2 SWAP1 PUSH2 0x5295 JUMP JUMPDEST PUSH1 0x1 PUSH1 0x1 PUSH1 0xA0 SHL SUB AND EQ PUSH2 0x1A7A JUMPI PUSH1 0x40 MLOAD PUSH3 0x461BCD PUSH1 0xE5 SHL DUP2 MSTORE PUSH1 0x20 PUSH1 0x4 DUP3 ADD MSTORE PUSH1 0x3 PUSH1 0x24 DUP3 ADD MSTORE PUSH3 0x37BBB7 PUSH1 0xE9 SHL PUSH1 0x44 DUP3 ADD MSTORE PUSH1 0x64 ADD PUSH2 0xCE0 JUMP JUMPDEST PUSH1 0xFF DUP1 DUP7 AND PUSH1 0x0 SWAP1 DUP2 MSTORE PUSH1 0x29 PUSH1 0x20 SWAP1 DUP2 MSTORE PUSH1 0x40 DUP1 DUP4 KECCAK256 DUP9 DUP6 AND DUP5 MSTORE SWAP1 SWAP2 MSTORE DUP2 KECCAK256 SWAP2 DUP6 AND PUSH1 0x1 SUB PUSH2 0x1AB3 JUMPI POP PUSH1 0xE DUP2 ADD SLOAD PUSH2 0xFFFF AND PUSH2 0x1B1D JUMP JUMPDEST DUP5 PUSH1 0xFF AND PUSH1 0x2 SUB PUSH2 0x1AD3 JUMPI POP PUSH1 0xE DUP2 ADD SLOAD PUSH3 0x10000 SWAP1 DIV PUSH2 0xFFFF AND PUSH2 0x1B1D JUMP JUMPDEST PUSH1 0x40 MLOAD PUSH3 0x461BCD PUSH1 0xE5 SHL DUP2 MSTORE PUSH1 0x4 ADD PUSH2 0xCE0 SWAP1 PUSH1 0x20 DUP1 DUP3 MSTORE PUSH1 0x4 SWAP1 DUP3 ADD MSTORE PUSH32 0x7479706500000000000000000000000000000000000000000000000000000000 PUSH1 0x40 DUP3 ADD MSTORE PUSH1 0x60 ADD SWAP1 JUMP JUMPDEST PUSH2 0x2710 DUP2 PUSH2 0xFFFF AND LT PUSH2 0x1B72 JUMPI PUSH1 0x40 MLOAD PUSH3 0x461BCD PUSH1 0xE5 SHL DUP2 MSTORE PUSH1 0x20 PUSH1 0x4 DUP3 ADD MSTORE PUSH1 0x1 PUSH1 0x24 DUP3 ADD MSTORE PUSH32 0x6C00000000000000000000000000000000000000000000000000000000000000 PUSH1 0x44 DUP3 ADD MSTORE PUSH1 0x64 ADD PUSH2 0xCE0 JUMP JUMPDEST PUSH1 0x0 PUSH2 0x1B80 DUP9 DUP9 PUSH1 0x8 PUSH2 0x4470 JUMP JUMPDEST SWAP1 POP PUSH1 0x0 DUP2 GT PUSH2 0x1BD2 JUMPI PUSH1 0x40 MLOAD PUSH3 0x461BCD PUSH1 0xE5 SHL DUP2 MSTORE PUSH1 0x20 PUSH1 0x4 DUP3 ADD MSTORE PUSH1 0x1 PUSH1 0x24 DUP3 ADD MSTORE PUSH32 0x7700000000000000000000000000000000000000000000000000000000000000 PUSH1 0x44 DUP3 ADD MSTORE PUSH1 0x64 ADD PUSH2 0xCE0 JUMP JUMPDEST PUSH1 0x0 PUSH2 0x1BDF DUP4 PUSH1 0x1 PUSH2 0x533D JUMP JUMPDEST PUSH2 0x1BEE SWAP1 PUSH2 0xFFFF AND PUSH1 0x2 PUSH2 0x535F JUMP JUMPDEST SWAP1 POP PUSH1 0x0 DUP3 PUSH2 0x1BFE DUP4 PUSH1 0x8C PUSH2 0x535F JUMP JUMPDEST PUSH2 0x1C08 SWAP2 SWAP1 PUSH2 0x53A5 JUMP JUMPDEST SWAP1 POP PUSH1 0x0 DUP4 PUSH2 0x1C18 DUP5 PUSH1 0x78 PUSH2 0x535F JUMP JUMPDEST PUSH2 0x1C22 SWAP2 SWAP1 PUSH2 0x53A5 JUMP JUMPDEST SWAP1 POP PUSH1 0x0 DUP5 PUSH2 0x1C32 DUP6 PUSH1 0xB4 PUSH2 0x535F JUMP JUMPDEST PUSH2 0x1C3C SWAP2 SWAP1 PUSH2 0x53A5 JUMP JUMPDEST SWAP1 POP PUSH1 0x0 DUP6 PUSH2 0x1C4C DUP7 PUSH1 0x78 PUSH2 0x535F JUMP JUMPDEST PUSH2 0x1C56 SWAP2 SWAP1 PUSH2 0x53A5 JUMP JUMPDEST DUP9 SLOAD SWAP1 SWAP2 POP DUP5 GT ISZERO PUSH2 0x1CAA JUMPI PUSH1 0x40 MLOAD PUSH3 0x461BCD PUSH1 0xE5 SHL DUP2 MSTORE PUSH1 0x20 PUSH1 0x4 DUP3 ADD MSTORE PUSH1 0x1 PUSH1 0x24 DUP3 ADD MSTORE PUSH32 0x6600000000000000000000000000000000000000000000000000000000000000 PUSH1 0x44 DUP3 ADD MSTORE PUSH1 0x64 ADD PUSH2 0xCE0 JUMP JUMPDEST PUSH1 0x1 DUP9 ADD SLOAD DUP4 GT ISZERO PUSH2 0x1CFE JUMPI PUSH1 0x40 MLOAD PUSH3 0x461BCD PUSH1 0xE5 SHL DUP2 MSTORE PUSH1 0x20 PUSH1 0x4 DUP3 ADD MSTORE PUSH1 0x1 PUSH1 0x24 DUP3 ADD MSTORE PUSH32 0x7700000000000000000000000000000000000000000000000000000000000000 PUSH1 0x44 DUP3 ADD MSTORE PUSH1 0x64 ADD PUSH2 0xCE0 JUMP JUMPDEST PUSH1 0x2 DUP9 ADD SLOAD DUP3 GT ISZERO PUSH2 0x1D52 JUMPI PUSH1 0x40 MLOAD PUSH3 0x461BCD PUSH1 0xE5 SHL DUP2 MSTORE PUSH1 0x20 PUSH1 0x4 DUP3 ADD MSTORE PUSH1 0x1 PUSH1 0x24 DUP3 ADD MSTORE PUSH32 0x7300000000000000000000000000000000000000000000000000000000000000 PUSH1 0x44 DUP3 ADD MSTORE PUSH1 0x64 ADD PUSH2 0xCE0 JUMP JUMPDEST PUSH1 0x3 DUP9 ADD SLOAD DUP2 GT ISZERO PUSH2 0x1DA6 JUMPI PUSH1 0x40 MLOAD PUSH3 0x461BCD PUSH1 0xE5 SHL DUP2 MSTORE PUSH1 0x20 PUSH1 0x4 DUP3 ADD MSTORE PUSH1 0x1 PUSH1 0x24 DUP3 ADD MSTORE PUSH32 0x6900000000000000000000000000000000000000000000000000000000000000 PUSH1 0x44 DUP3 ADD MSTORE PUSH1 0x64 ADD PUSH2 0xCE0 JUMP JUMPDEST DUP8 SLOAD DUP5 SWAP1 DUP10 SWAP1 PUSH1 0x0 SWAP1 PUSH2 0x1DBA SWAP1 DUP5 SWAP1 PUSH2 0x52F4 JUMP JUMPDEST SWAP1 SWAP2 SSTORE POP POP PUSH1 0x1 DUP9 ADD DUP1 SLOAD DUP5 SWAP2 SWAP1 PUSH1 0x0 SWAP1 PUSH2 0x1DD6 SWAP1 DUP5 SWAP1 PUSH2 0x52F4 JUMP JUMPDEST SWAP1 SWAP2 SSTORE POP POP PUSH1 0x2 DUP9 ADD DUP1 SLOAD DUP4 SWAP2 SWAP1 PUSH1 0x0 SWAP1 PUSH2 0x1DF2 SWAP1 DUP5 SWAP1 PUSH2 0x52F4 JUMP JUMPDEST SWAP1 SWAP2 SSTORE POP POP PUSH1 0x3 DUP9 ADD DUP1 SLOAD DUP3 SWAP2 SWAP1 PUSH1 0x0 SWAP1 PUSH2 0x1E0E SWAP1 DUP5 SWAP1 PUSH2 0x52F4 JUMP JUMPDEST SWAP1 SWAP2 SSTORE POP POP PUSH1 0xFF DUP12 AND PUSH1 0x1 SUB PUSH2 0x1E54 JUMPI PUSH1 0xE DUP9 ADD DUP1 SLOAD PUSH2 0xFFFF AND SWAP1 PUSH1 0x0 PUSH2 0x1E34 DUP4 PUSH2 0x53B9 JUMP JUMPDEST SWAP2 SWAP1 PUSH2 0x100 EXP DUP2 SLOAD DUP2 PUSH2 0xFFFF MUL NOT AND SWAP1 DUP4 PUSH2 0xFFFF AND MUL OR SWAP1 SSTORE POP POP PUSH2 0x1E97 JUMP JUMPDEST DUP11 PUSH1 0xFF AND PUSH1 0x2 SUB PUSH2 0x1E97 JUMPI PUSH1 0xE DUP9 ADD DUP1 SLOAD PUSH3 0x10000 SWAP1 DIV PUSH2 0xFFFF AND SWAP1 PUSH1 0x2 PUSH2 0x1E7B DUP4 PUSH2 0x53B9 JUMP JUMPDEST SWAP2 SWAP1 PUSH2 0x100 EXP DUP2 SLOAD DUP2 PUSH2 0xFFFF MUL NOT AND SWAP1 DUP4 PUSH2 0xFFFF AND MUL OR SWAP1 SSTORE POP POP JUMPDEST PUSH2 0x1EA2 DUP9 DUP15 DUP15 PUSH2 0x4798 JUMP JUMPDEST POP POP POP POP POP POP POP POP POP POP PUSH2 0x1EB6 PUSH1 0x1 PUSH1 0x0 SSTORE JUMP JUMPDEST POP POP POP JUMP JUMPDEST PUSH2 0x1EC3 PUSH2 0x4417 JUMP JUMPDEST PUSH1 0xE SLOAD PUSH1 0x1 PUSH1 0x1 PUSH1 0xA0 SHL SUB AND CALLER EQ PUSH2 0x1F07 JUMPI PUSH1 0x40 MLOAD PUSH32 0x386317A300000000000000000000000000000000000000000000000000000000 DUP2 MSTORE PUSH1 0x4 ADD PUSH1 0x40 MLOAD DUP1 SWAP2 SUB SWAP1 REVERT JUMPDEST DUP2 PUSH1 0x0 SUB PUSH2 0x1F41 JUMPI PUSH1 0x40 MLOAD PUSH32 0x1F2A200500000000000000000000000000000000000000000000000000000000 DUP2 MSTORE PUSH1 0x4 ADD PUSH1 0x40 MLOAD DUP1 SWAP2 SUB SWAP1 REVERT JUMPDEST PUSH1 0x1 DUP4 PUSH1 0xFF AND LT ISZERO DUP1 ISZERO PUSH2 0x1F59 JUMPI POP PUSH1 0xA DUP4 PUSH1 0xFF AND GT ISZERO JUMPDEST PUSH2 0x1F89 JUMPI PUSH1 0x40 MLOAD PUSH3 0x461BCD PUSH1 0xE5 SHL DUP2 MSTORE PUSH1 0x20 PUSH1 0x4 DUP3 ADD MSTORE PUSH1 0x1 PUSH1 0x24 DUP3 ADD MSTORE PUSH1 0x1D PUSH1 0xFA SHL PUSH1 0x44 DUP3 ADD MSTORE PUSH1 0x64 ADD PUSH2 0xCE0 JUMP JUMPDEST PUSH1 0xFF DUP1 DUP7 AND PUSH1 0x0 SWAP1 DUP2 MSTORE PUSH1 0x29 PUSH1 0x20 SWAP1 DUP2 MSTORE PUSH1 0x40 DUP1 DUP4 KECCAK256 DUP9 DUP6 AND DUP5 MSTORE SWAP1 SWAP2 MSTORE SWAP1 KECCAK256 SWAP1 DUP5 AND PUSH1 0x1 SUB PUSH2 0x203D JUMPI DUP2 ISZERO PUSH2 0x1FD8 JUMPI DUP1 SLOAD DUP4 SWAP1 DUP3 SWAP1 PUSH1 0x0 SWAP1 PUSH2 0x1FCD SWAP1 DUP5 SWAP1 PUSH2 0x52E1 JUMP JUMPDEST SWAP1 SWAP2 SSTORE POP PUSH2 0x2594 SWAP1 POP JUMP JUMPDEST DUP1 SLOAD DUP4 GT ISZERO PUSH2 0x2029 JUMPI PUSH1 0x40 MLOAD PUSH3 0x461BCD PUSH1 0xE5 SHL DUP2 MSTORE PUSH1 0x20 PUSH1 0x4 DUP3 ADD MSTORE PUSH1 0x1 PUSH1 0x24 DUP3 ADD MSTORE PUSH32 0x6600000000000000000000000000000000000000000000000000000000000000 PUSH1 0x44 DUP3 ADD MSTORE PUSH1 0x64 ADD PUSH2 0xCE0 JUMP JUMPDEST DUP1 SLOAD DUP4 SWAP1 DUP3 SWAP1 PUSH1 0x0 SWAP1 PUSH2 0x1FCD SWAP1 DUP5 SWAP1 PUSH2 0x52F4 JUMP JUMPDEST DUP4 PUSH1 0xFF AND PUSH1 0x2 SUB PUSH2 0x20D0 JUMPI DUP2 ISZERO PUSH2 0x2065 JUMPI DUP3 DUP2 PUSH1 0x0 ADD PUSH1 0x1 ADD PUSH1 0x0 DUP3 DUP3 SLOAD PUSH2 0x1FCD SWAP2 SWAP1 PUSH2 0x52E1 JUMP JUMPDEST PUSH1 0x1 DUP2 ADD SLOAD DUP4 GT ISZERO PUSH2 0x20B9 JUMPI PUSH1 0x40 MLOAD PUSH3 0x461BCD PUSH1 0xE5 SHL DUP2 MSTORE PUSH1 0x20 PUSH1 0x4 DUP3 ADD MSTORE PUSH1 0x1 PUSH1 0x24 DUP3 ADD MSTORE PUSH32 0x7700000000000000000000000000000000000000000000000000000000000000 PUSH1 0x44 DUP3 ADD MSTORE PUSH1 0x64 ADD PUSH2 0xCE0 JUMP JUMPDEST DUP3 DUP2 PUSH1 0x0 ADD PUSH1 0x1 ADD PUSH1 0x0 DUP3 DUP3 SLOAD PUSH2 0x1FCD SWAP2 SWAP1 PUSH2 0x52F4 JUMP JUMPDEST DUP4 PUSH1 0xFF AND PUSH1 0x3 SUB PUSH2 0x2163 JUMPI DUP2 ISZERO PUSH2 0x20F8 JUMPI DUP3 DUP2 PUSH1 0x0 ADD PUSH1 0x2 ADD PUSH1 0x0 DUP3 DUP3 SLOAD PUSH2 0x1FCD SWAP2 SWAP1 PUSH2 0x52E1 JUMP JUMPDEST PUSH1 0x2 DUP2 ADD SLOAD DUP4 GT ISZERO PUSH2 0x214C JUMPI PUSH1 0x40 MLOAD PUSH3 0x461BCD PUSH1 0xE5 SHL DUP2 MSTORE PUSH1 0x20 PUSH1 0x4 DUP3 ADD MSTORE PUSH1 0x1 PUSH1 0x24 DUP3 ADD MSTORE PUSH32 0x7300000000000000000000000000000000000000000000000000000000000000 PUSH1 0x44 DUP3 ADD MSTORE PUSH1 0x64 ADD PUSH2 0xCE0 JUMP JUMPDEST DUP3 DUP2 PUSH1 0x0 ADD PUSH1 0x2 ADD PUSH1 0x0 DUP3 DUP3 SLOAD PUSH2 0x1FCD SWAP2 SWAP1 PUSH2 0x52F4 JUMP JUMPDEST DUP4 PUSH1 0xFF AND PUSH1 0x4 SUB PUSH2 0x21F6 JUMPI DUP2 ISZERO PUSH2 0x218B JUMPI DUP3 DUP2 PUSH1 0x0 ADD PUSH1 0x3 ADD PUSH1 0x0 DUP3 DUP3 SLOAD PUSH2 0x1FCD SWAP2 SWAP1 PUSH2 0x52E1 JUMP JUMPDEST PUSH1 0x3 DUP2 ADD SLOAD DUP4 GT ISZERO PUSH2 0x21DF JUMPI PUSH1 0x40 MLOAD PUSH3 0x461BCD PUSH1 0xE5 SHL DUP2 MSTORE PUSH1 0x20 PUSH1 0x4 DUP3 ADD MSTORE PUSH1 0x1 PUSH1 0x24 DUP3 ADD MSTORE PUSH32 0x6900000000000000000000000000000000000000000000000000000000000000 PUSH1 0x44 DUP3 ADD MSTORE PUSH1 0x64 ADD PUSH2 0xCE0 JUMP JUMPDEST DUP3 DUP2 PUSH1 0x0 ADD PUSH1 0x3 ADD PUSH1 0x0 DUP3 DUP3 SLOAD PUSH2 0x1FCD SWAP2 SWAP1 PUSH2 0x52F4 JUMP JUMPDEST DUP4 PUSH1 0xFF AND PUSH1 0x5 SUB PUSH2 0x2289 JUMPI DUP2 ISZERO PUSH2 0x221E JUMPI DUP3 DUP2 PUSH1 0x8 ADD PUSH1 0x0 ADD PUSH1 0x0 DUP3 DUP3 SLOAD PUSH2 0x1FCD SWAP2 SWAP1 PUSH2 0x52E1 JUMP JUMPDEST PUSH1 0x8 DUP2 ADD SLOAD DUP4 GT ISZERO PUSH2 0x2272 JUMPI PUSH1 0x40 MLOAD PUSH3 0x461BCD PUSH1 0xE5 SHL DUP2 MSTORE PUSH1 0x20 PUSH1 0x4 DUP3 ADD MSTORE PUSH1 0x2 PUSH1 0x24 DUP3 ADD MSTORE PUSH32 0x6F61000000000000000000000000000000000000000000000000000000000000 PUSH1 0x44 DUP3 ADD MSTORE PUSH1 0x64 ADD PUSH2 0xCE0 JUMP JUMPDEST DUP3 DUP2 PUSH1 0x8 ADD PUSH1 0x0 ADD PUSH1 0x0 DUP3 DUP3 SLOAD PUSH2 0x1FCD SWAP2 SWAP1 PUSH2 0x52F4 JUMP JUMPDEST DUP4 PUSH1 0xFF AND PUSH1 0x6 SUB PUSH2 0x231C JUMPI DUP2 ISZERO PUSH2 0x22B1 JUMPI DUP3 DUP2 PUSH1 0x8 ADD PUSH1 0x1 ADD PUSH1 0x0 DUP3 DUP3 SLOAD PUSH2 0x1FCD SWAP2 SWAP1 PUSH2 0x52E1 JUMP JUMPDEST PUSH1 0x9 DUP2 ADD SLOAD DUP4 GT ISZERO PUSH2 0x2305 JUMPI PUSH1 0x40 MLOAD PUSH3 0x461BCD PUSH1 0xE5 SHL DUP2 MSTORE PUSH1 0x20 PUSH1 0x4 DUP3 ADD MSTORE PUSH1 0x2 PUSH1 0x24 DUP3 ADD MSTORE PUSH32 0x6461000000000000000000000000000000000000000000000000000000000000 PUSH1 0x44 DUP3 ADD MSTORE PUSH1 0x64 ADD PUSH2 0xCE0 JUMP JUMPDEST DUP3 DUP2 PUSH1 0x8 ADD PUSH1 0x1 ADD PUSH1 0x0 DUP3 DUP3 SLOAD PUSH2 0x1FCD SWAP2 SWAP1 PUSH2 0x52F4 JUMP JUMPDEST DUP4 PUSH1 0xFF AND PUSH1 0x7 SUB PUSH2 0x23AF JUMPI DUP2 ISZERO PUSH2 0x2344 JUMPI DUP3 DUP2 PUSH1 0x8 ADD PUSH1 0x2 ADD PUSH1 0x0 DUP3 DUP3 SLOAD PUSH2 0x1FCD SWAP2 SWAP1 PUSH2 0x52E1 JUMP JUMPDEST PUSH1 0xA DUP2 ADD SLOAD DUP4 GT ISZERO PUSH2 0x2398 JUMPI PUSH1 0x40 MLOAD PUSH3 0x461BCD PUSH1 0xE5 SHL DUP2 MSTORE PUSH1 0x20 PUSH1 0x4 DUP3 ADD MSTORE PUSH1 0x2 PUSH1 0x24 DUP3 ADD MSTORE PUSH32 0x6F77000000000000000000000000000000000000000000000000000000000000 PUSH1 0x44 DUP3 ADD MSTORE PUSH1 0x64 ADD PUSH2 0xCE0 JUMP JUMPDEST DUP3 DUP2 PUSH1 0x8 ADD PUSH1 0x2 ADD PUSH1 0x0 DUP3 DUP3 SLOAD PUSH2 0x1FCD SWAP2 SWAP1 PUSH2 0x52F4 JUMP JUMPDEST DUP4 PUSH1 0xFF AND PUSH1 0x8 SUB PUSH2 0x2442 JUMPI DUP2 ISZERO PUSH2 0x23D7 JUMPI DUP3 DUP2 PUSH1 0x8 ADD PUSH1 0x3 ADD PUSH1 0x0 DUP3 DUP3 SLOAD PUSH2 0x1FCD SWAP2 SWAP1 PUSH2 0x52E1 JUMP JUMPDEST PUSH1 0xB DUP2 ADD SLOAD DUP4 GT ISZERO PUSH2 0x242B JUMPI PUSH1 0x40 MLOAD PUSH3 0x461BCD PUSH1 0xE5 SHL DUP2 MSTORE PUSH1 0x20 PUSH1 0x4 DUP3 ADD MSTORE PUSH1 0x2 PUSH1 0x24 DUP3 ADD MSTORE PUSH32 0x6477000000000000000000000000000000000000000000000000000000000000 PUSH1 0x44 DUP3 ADD MSTORE PUSH1 0x64 ADD PUSH2 0xCE0 JUMP JUMPDEST DUP3 DUP2 PUSH1 0x8 ADD PUSH1 0x3 ADD PUSH1 0x0 DUP3 DUP3 SLOAD PUSH2 0x1FCD SWAP2 SWAP1 PUSH2 0x52F4 JUMP JUMPDEST DUP4 PUSH1 0xFF AND PUSH1 0x9 SUB PUSH2 0x24D5 JUMPI DUP2 ISZERO PUSH2 0x246A JUMPI DUP3 DUP2 PUSH1 0x8 ADD PUSH1 0x4 ADD PUSH1 0x0 DUP3 DUP3 SLOAD PUSH2 0x1FCD SWAP2 SWAP1 PUSH2 0x52E1 JUMP JUMPDEST PUSH1 0xC DUP2 ADD SLOAD DUP4 GT ISZERO PUSH2 0x24BE JUMPI PUSH1 0x40 MLOAD PUSH3 0x461BCD PUSH1 0xE5 SHL DUP2 MSTORE PUSH1 0x20 PUSH1 0x4 DUP3 ADD MSTORE PUSH1 0x2 PUSH1 0x24 DUP3 ADD MSTORE PUSH32 0x6F73000000000000000000000000000000000000000000000000000000000000 PUSH1 0x44 DUP3 ADD MSTORE PUSH1 0x64 ADD PUSH2 0xCE0 JUMP JUMPDEST DUP3 DUP2 PUSH1 0x8 ADD PUSH1 0x4 ADD PUSH1 0x0 DUP3 DUP3 SLOAD PUSH2 0x1FCD SWAP2 SWAP1 PUSH2 0x52F4 JUMP JUMPDEST DUP4 PUSH1 0xFF AND PUSH1 0xA SUB PUSH2 0x2568 JUMPI DUP2 ISZERO PUSH2 0x24FD JUMPI DUP3 DUP2 PUSH1 0x8 ADD PUSH1 0x5 ADD PUSH1 0x0 DUP3 DUP3 SLOAD PUSH2 0x1FCD SWAP2 SWAP1 PUSH2 0x52E1 JUMP JUMPDEST PUSH1 0xD DUP2 ADD SLOAD DUP4 GT ISZERO PUSH2 0x2551 JUMPI PUSH1 0x40 MLOAD PUSH3 0x461BCD PUSH1 0xE5 SHL DUP2 MSTORE PUSH1 0x20 PUSH1 0x4 DUP3 ADD MSTORE PUSH1 0x2 PUSH1 0x24 DUP3 ADD MSTORE PUSH32 0x6473000000000000000000000000000000000000000000000000000000000000 PUSH1 0x44 DUP3 ADD MSTORE PUSH1 0x64 ADD PUSH2 0xCE0 JUMP JUMPDEST DUP3 DUP2 PUSH1 0x8 ADD PUSH1 0x5 ADD PUSH1 0x0 DUP3 DUP3 SLOAD PUSH2 0x1FCD SWAP2 SWAP1 PUSH2 0x52F4 JUMP JUMPDEST PUSH1 0x40 MLOAD PUSH3 0x461BCD PUSH1 0xE5 SHL DUP2 MSTORE PUSH1 0x20 PUSH1 0x4 DUP3 ADD MSTORE PUSH1 0x1 PUSH1 0x24 DUP3 ADD MSTORE PUSH1 0x1D PUSH1 0xFA SHL PUSH1 0x44 DUP3 ADD MSTORE PUSH1 0x64 ADD PUSH2 0xCE0 JUMP JUMPDEST PUSH2 0x259F DUP2 DUP8 DUP8 PUSH2 0x4798 JUMP JUMPDEST POP PUSH2 0x1617 PUSH1 0x1 PUSH1 0x0 SSTORE JUMP JUMPDEST PUSH2 0x25B2 PUSH2 0x4417 JUMP JUMPDEST PUSH1 0x2 SLOAD PUSH1 0x40 MLOAD PUSH4 0x8A888953 PUSH1 0xE0 SHL DUP2 MSTORE PUSH1 0xFF DUP1 DUP8 AND PUSH1 0x4 DUP4 ADD MSTORE DUP6 AND PUSH1 0x24 DUP3 ADD MSTORE DUP6 SWAP2 DUP6 SWAP2 CALLER SWAP2 PUSH1 0x1 PUSH1 0x1 PUSH1 0xA0 SHL SUB AND SWAP1 PUSH4 0x8A888953 SWAP1 PUSH1 0x44 ADD PUSH1 0x20 PUSH1 0x40 MLOAD DUP1 DUP4 SUB DUP2 DUP7 GAS STATICCALL ISZERO DUP1 ISZERO PUSH2 0x2609 JUMPI RETURNDATASIZE PUSH1 0x0 DUP1 RETURNDATACOPY RETURNDATASIZE PUSH1 0x0 REVERT JUMPDEST POP POP POP POP PUSH1 0x40 MLOAD RETURNDATASIZE PUSH1 0x1F NOT PUSH1 0x1F DUP3 ADD AND DUP3 ADD DUP1 PUSH1 0x40 MSTORE POP DUP2 ADD SWAP1 PUSH2 0x262D SWAP2 SWAP1 PUSH2 0x5295 JUMP JUMPDEST PUSH1 0x1 PUSH1 0x1 PUSH1 0xA0 SHL SUB AND EQ PUSH2 0x2669 JUMPI PUSH1 0x40 MLOAD PUSH3 0x461BCD PUSH1 0xE5 SHL DUP2 MSTORE PUSH1 0x20 PUSH1 0x4 DUP3 ADD MSTORE PUSH1 0x3 PUSH1 0x24 DUP3 ADD MSTORE PUSH3 0x37BBB7 PUSH1 0xE9 SHL PUSH1 0x44 DUP3 ADD MSTORE PUSH1 0x64 ADD PUSH2 0xCE0 JUMP JUMPDEST PUSH1 0x0 DUP4 GT DUP1 ISZERO PUSH2 0x267B JUMPI POP PUSH2 0x3E8 DUP4 GT ISZERO JUMPDEST PUSH2 0x26C7 JUMPI PUSH1 0x40 MLOAD PUSH3 0x461BCD PUSH1 0xE5 SHL DUP2 MSTORE PUSH1 0x20 PUSH1 0x4 DUP3 ADD MSTORE PUSH1 0x10 PUSH1 0x24 DUP3 ADD MSTORE PUSH32 0x496E76616C6964207175616E7469747900000000000000000000000000000000 PUSH1 0x44 DUP3 ADD MSTORE PUSH1 0x64 ADD PUSH2 0xCE0 JUMP JUMPDEST DUP4 PUSH1 0xFF AND PUSH1 0x1 EQ DUP1 PUSH2 0x26DC JUMPI POP DUP4 PUSH1 0xFF AND PUSH1 0x2 EQ JUMPDEST PUSH2 0x270C JUMPI PUSH1 0x40 MLOAD PUSH3 0x461BCD PUSH1 0xE5 SHL DUP2 MSTORE PUSH1 0x20 PUSH1 0x4 DUP3 ADD MSTORE PUSH1 0x1 PUSH1 0x24 DUP3 ADD MSTORE PUSH1 0x1D PUSH1 0xFA SHL PUSH1 0x44 DUP3 ADD MSTORE PUSH1 0x64 ADD PUSH2 0xCE0 JUMP JUMPDEST PUSH1 0x0 PUSH2 0x271A DUP8 DUP8 PUSH1 0x2 PUSH2 0x4470 JUMP JUMPDEST SWAP1 POP PUSH1 0x0 DUP2 GT PUSH2 0x276C JUMPI PUSH1 0x40 MLOAD PUSH3 0x461BCD PUSH1 0xE5 SHL DUP2 MSTORE PUSH1 0x20 PUSH1 0x4 DUP3 ADD MSTORE PUSH1 0x2 PUSH1 0x24 DUP3 ADD MSTORE PUSH32 0x6273000000000000000000000000000000000000000000000000000000000000 PUSH1 0x44 DUP3 ADD MSTORE PUSH1 0x64 ADD PUSH2 0xCE0 JUMP JUMPDEST PUSH1 0x0 DUP6 PUSH1 0xFF AND PUSH1 0x1 EQ PUSH2 0x2780 JUMPI PUSH1 0x1D PUSH2 0x2783 JUMP JUMPDEST PUSH1 0x19 JUMPDEST PUSH1 0x40 DUP1 MLOAD PUSH1 0x80 DUP2 ADD DUP3 MSTORE DUP3 SLOAD DUP2 MSTORE PUSH1 0x1 DUP4 ADD SLOAD PUSH1 0x20 DUP3 ADD MSTORE PUSH1 0x2 DUP4 ADD SLOAD SWAP2 DUP2 ADD SWAP2 SWAP1 SWAP2 MSTORE PUSH1 0x3 SWAP1 SWAP2 ADD SLOAD PUSH1 0x60 DUP3 ADD MSTORE SWAP1 POP PUSH2 0x27C1 DUP9 DUP9 DUP4 DUP9 DUP7 PUSH2 0x450B JUMP JUMPDEST DUP6 PUSH1 0xFF AND PUSH1 0x1 SUB PUSH2 0x2800 JUMPI PUSH1 0xFF DUP1 DUP10 AND PUSH1 0x0 SWAP1 DUP2 MSTORE PUSH1 0x29 PUSH1 0x20 SWAP1 DUP2 MSTORE PUSH1 0x40 DUP1 DUP4 KECCAK256 SWAP4 DUP12 AND DUP4 MSTORE SWAP3 SWAP1 MSTORE SWAP1 DUP2 KECCAK256 PUSH1 0xA ADD DUP1 SLOAD DUP8 SWAP3 SWAP1 PUSH2 0xE80 SWAP1 DUP5 SWAP1 PUSH2 0x52E1 JUMP JUMPDEST PUSH1 0xFF DUP1 DUP10 AND PUSH1 0x0 SWAP1 DUP2 MSTORE PUSH1 0x29 PUSH1 0x20 SWAP1 DUP2 MSTORE PUSH1 0x40 DUP1 DUP4 KECCAK256 SWAP4 DUP12 AND DUP4 MSTORE SWAP3 SWAP1 MSTORE SWAP1 DUP2 KECCAK256 PUSH1 0xB ADD DUP1 SLOAD DUP8 SWAP3 SWAP1 PUSH2 0xEBF SWAP1 DUP5 SWAP1 PUSH2 0x52E1 JUMP JUMPDEST PUSH1 0x1 SLOAD PUSH1 0x40 MLOAD PUSH32 0x70A0823100000000000000000000000000000000000000000000000000000000 DUP2 MSTORE ADDRESS PUSH1 0x4 DUP3 ADD MSTORE PUSH1 0x0 SWAP2 PUSH1 0x1 PUSH1 0x1 PUSH1 0xA0 SHL SUB AND SWAP1 PUSH4 0x70A08231 SWAP1 PUSH1 0x24 ADD PUSH1 0x20 PUSH1 0x40 MLOAD DUP1 DUP4 SUB DUP2 DUP7 GAS STATICCALL ISZERO DUP1 ISZERO PUSH2 0x2896 JUMPI RETURNDATASIZE PUSH1 0x0 DUP1 RETURNDATACOPY RETURNDATASIZE PUSH1 0x0 REVERT JUMPDEST POP POP POP POP PUSH1 0x40 MLOAD RETURNDATASIZE PUSH1 0x1F NOT PUSH1 0x1F DUP3 ADD AND DUP3 ADD DUP1 PUSH1 0x40 MSTORE POP DUP2 ADD SWAP1 PUSH2 0x28BA SWAP2 SWAP1 PUSH2 0x5307 JUMP JUMPDEST SWAP1 POP SWAP1 JUMP JUMPDEST PUSH1 0xD SLOAD PUSH1 0x1 PUSH1 0x1 PUSH1 0xA0 SHL SUB AND CALLER EQ PUSH2 0x2903 JUMPI PUSH1 0x40 MLOAD PUSH32 0x30CD747100000000000000000000000000000000000000000000000000000000 DUP2 MSTORE PUSH1 0x4 ADD PUSH1 0x40 MLOAD DUP1 SWAP2 SUB SWAP1 REVERT JUMPDEST PUSH1 0x10 SLOAD PUSH22 0x1000000000000000000000000000000000000000000 SWAP1 DIV PUSH1 0xFF AND ISZERO PUSH2 0x296F JUMPI PUSH1 0x40 MLOAD PUSH3 0x461BCD PUSH1 0xE5 SHL DUP2 MSTORE PUSH1 0x20 PUSH1 0x4 DUP3 ADD MSTORE PUSH1 0x5 PUSH1 0x24 DUP3 ADD MSTORE PUSH32 0x6B696C6974000000000000000000000000000000000000000000000000000000 PUSH1 0x44 DUP3 ADD MSTORE PUSH1 0x64 ADD PUSH2 0xCE0 JUMP JUMPDEST PUSH1 0x10 DUP1 SLOAD PUSH32 0xFFFFFFFFFFFFFFFFFFFFFF00FFFFFFFFFFFFFFFFFFFFFFFFFFFFFFFFFFFFFFFF AND PUSH21 0x10000000000000000000000000000000000000000 OR SWAP1 SSTORE JUMP JUMPDEST PUSH1 0xD SLOAD PUSH1 0x1 PUSH1 0x1 PUSH1 0xA0 SHL SUB AND CALLER EQ PUSH2 0x29F4 JUMPI PUSH1 0x40 MLOAD PUSH32 0x30CD747100000000000000000000000000000000000000000000000000000000 DUP2 MSTORE PUSH1 0x4 ADD PUSH1 0x40 MLOAD DUP1 SWAP2 SUB SWAP1 REVERT JUMPDEST PUSH1 0x10 SLOAD PUSH22 0x1000000000000000000000000000000000000000000 SWAP1 DIV PUSH1 0xFF AND ISZERO PUSH2 0x2A60 JUMPI PUSH1 0x40 MLOAD PUSH3 0x461BCD PUSH1 0xE5 SHL DUP2 MSTORE PUSH1 0x20 PUSH1 0x4 DUP3 ADD MSTORE PUSH1 0x5 PUSH1 0x24 DUP3 ADD MSTORE PUSH32 0x6B696C6974000000000000000000000000000000000000000000000000000000 PUSH1 0x44 DUP3 ADD MSTORE PUSH1 0x64 ADD PUSH2 0xCE0 JUMP JUMPDEST PUSH1 0x3 DUP1 SLOAD PUSH32 0xFFFFFFFFFFFFFFFFFFFFFFFF0000000000000000000000000000000000000000 AND PUSH1 0x1 PUSH1 0x1 PUSH1 0xA0 SHL SUB SWAP3 SWAP1 SWAP3 AND SWAP2 SWAP1 SWAP2 OR SWAP1 SSTORE JUMP JUMPDEST PUSH2 0x2AA2 PUSH2 0x4417 JUMP JUMPDEST PUSH1 0x2 SLOAD PUSH1 0x40 MLOAD PUSH4 0x8A888953 PUSH1 0xE0 SHL DUP2 MSTORE PUSH1 0xFF DUP1 DUP8 AND PUSH1 0x4 DUP4 ADD MSTORE DUP6 AND PUSH1 0x24 DUP3 ADD MSTORE DUP6 SWAP2 DUP6 SWAP2 CALLER SWAP2 PUSH1 0x1 PUSH1 0x1 PUSH1 0xA0 SHL SUB AND SWAP1 PUSH4 0x8A888953 SWAP1 PUSH1 0x44 ADD PUSH1 0x20 PUSH1 0x40 MLOAD DUP1 DUP4 SUB DUP2 DUP7 GAS STATICCALL ISZERO DUP1 ISZERO PUSH2 0x2AF9 JUMPI RETURNDATASIZE PUSH1 0x0 DUP1 RETURNDATACOPY RETURNDATASIZE PUSH1 0x0 REVERT JUMPDEST POP POP POP POP PUSH1 0x40 MLOAD RETURNDATASIZE PUSH1 0x1F NOT PUSH1 0x1F DUP3 ADD AND DUP3 ADD DUP1 PUSH1 0x40 MSTORE POP DUP2 ADD SWAP1 PUSH2 0x2B1D SWAP2 SWAP1 PUSH2 0x5295 JUMP JUMPDEST PUSH1 0x1 PUSH1 0x1 PUSH1 0xA0 SHL SUB AND EQ PUSH2 0x2B59 JUMPI PUSH1 0x40 MLOAD PUSH3 0x461BCD PUSH1 0xE5 SHL DUP2 MSTORE PUSH1 0x20 PUSH1 0x4 DUP3 ADD MSTORE PUSH1 0x3 PUSH1 0x24 DUP3 ADD MSTORE PUSH3 0x37BBB7 PUSH1 0xE9 SHL PUSH1 0x44 DUP3 ADD MSTORE PUSH1 0x64 ADD PUSH2 0xCE0 JUMP JUMPDEST DUP4 DUP4 PUSH1 0x9 PUSH1 0xFF DUP4 AND LT DUP1 ISZERO PUSH2 0x2B71 JUMPI POP PUSH1 0x9 PUSH1 0xFF DUP3 AND LT JUMPDEST PUSH2 0x2BBD JUMPI PUSH1 0x40 MLOAD PUSH3 0x461BCD PUSH1 0xE5 SHL DUP2 MSTORE PUSH1 0x20 PUSH1 0x4 DUP3 ADD MSTORE PUSH1 0x5 PUSH1 0x24 DUP3 ADD MSTORE PUSH32 0x636F6F7264000000000000000000000000000000000000000000000000000000 PUSH1 0x44 DUP3 ADD MSTORE PUSH1 0x64 ADD PUSH2 0xCE0 JUMP JUMPDEST DUP6 PUSH1 0xFF AND PUSH1 0x4 EQ DUP1 ISZERO PUSH2 0x2BD3 JUMPI POP DUP5 PUSH1 0xFF AND PUSH1 0x4 EQ JUMPDEST ISZERO PUSH2 0x2C20 JUMPI PUSH1 0x40 MLOAD PUSH3 0x461BCD PUSH1 0xE5 SHL DUP2 MSTORE PUSH1 0x20 PUSH1 0x4 DUP3 ADD MSTORE PUSH1 0x1 PUSH1 0x24 DUP3 ADD MSTORE PUSH32 0x6300000000000000000000000000000000000000000000000000000000000000 PUSH1 0x44 DUP3 ADD MSTORE PUSH1 0x64 ADD PUSH2 0xCE0 JUMP JUMPDEST PUSH1 0xFF DUP1 DUP10 AND PUSH1 0x0 SWAP1 DUP2 MSTORE PUSH1 0x2A PUSH1 0x20 SWAP1 DUP2 MSTORE PUSH1 0x40 DUP1 DUP4 KECCAK256 DUP12 DUP6 AND DUP5 MSTORE DUP3 MSTORE DUP1 DUP4 KECCAK256 DUP11 DUP6 AND DUP5 MSTORE DUP3 MSTORE DUP1 DUP4 KECCAK256 DUP10 DUP6 AND DUP5 MSTORE SWAP1 SWAP2 MSTORE DUP2 KECCAK256 SLOAD SWAP1 SWAP2 AND SWAP1 DUP2 SWAP1 SUB PUSH2 0x2CA8 JUMPI PUSH1 0x40 MLOAD PUSH3 0x461BCD PUSH1 0xE5 SHL DUP2 MSTORE PUSH1 0x20 PUSH1 0x4 DUP3 ADD MSTORE PUSH1 0x1 PUSH1 0x24 DUP3 ADD MSTORE PUSH32 0x6E00000000000000000000000000000000000000000000000000000000000000 PUSH1 0x44 DUP3 ADD MSTORE PUSH1 0x64 ADD PUSH2 0xCE0 JUMP JUMPDEST PUSH2 0x2CB1 DUP2 PUSH2 0x477A JUMP JUMPDEST PUSH2 0x2CE7 JUMPI PUSH1 0x40 MLOAD PUSH32 0xB44D49E600000000000000000000000000000000000000000000000000000000 DUP2 MSTORE PUSH1 0x4 ADD PUSH1 0x40 MLOAD DUP1 SWAP2 SUB SWAP1 REVERT JUMPDEST DUP1 PUSH1 0xFF AND PUSH1 0x3 SUB PUSH2 0x2D1E JUMPI PUSH1 0xFF DUP1 DUP11 AND PUSH1 0x0 SWAP1 DUP2 MSTORE PUSH1 0x9 PUSH1 0x20 SWAP1 DUP2 MSTORE PUSH1 0x40 DUP1 DUP4 KECCAK256 SWAP4 DUP13 AND DUP4 MSTORE SWAP3 SWAP1 MSTORE KECCAK256 DUP1 SLOAD PUSH1 0xFF NOT AND SWAP1 SSTORE PUSH2 0x2D51 JUMP JUMPDEST DUP1 PUSH1 0xFF AND PUSH1 0x6 SUB PUSH2 0x2D51 JUMPI PUSH1 0xFF DUP1 DUP11 AND PUSH1 0x0 SWAP1 DUP2 MSTORE PUSH1 0xA PUSH1 0x20 SWAP1 DUP2 MSTORE PUSH1 0x40 DUP1 DUP4 KECCAK256 SWAP4 DUP13 AND DUP4 MSTORE SWAP3 SWAP1 MSTORE KECCAK256 DUP1 SLOAD PUSH1 0xFF NOT AND SWAP1 SSTORE JUMPDEST POP POP POP PUSH1 0xFF DUP1 DUP8 AND PUSH1 0x0 SWAP1 DUP2 MSTORE PUSH1 0x2A PUSH1 0x20 SWAP1 DUP2 MSTORE PUSH1 0x40 DUP1 DUP4 KECCAK256 DUP10 DUP6 AND DUP5 MSTORE DUP3 MSTORE DUP1 DUP4 KECCAK256 DUP9 DUP6 AND DUP5 MSTORE DUP3 MSTORE DUP1 DUP4 KECCAK256 SWAP4 DUP8 AND DUP4 MSTORE SWAP3 SWAP1 MSTORE KECCAK256 DUP1 SLOAD PUSH1 0xFF NOT AND SWAP1 SSTORE POP PUSH2 0xED3 SWAP1 POP PUSH1 0x1 PUSH1 0x0 SSTORE JUMP JUMPDEST PUSH2 0x2DA4 PUSH2 0x4417 JUMP JUMPDEST PUSH1 0xE SLOAD PUSH1 0x1 PUSH1 0x1 PUSH1 0xA0 SHL SUB AND CALLER EQ PUSH2 0x2DFE JUMPI PUSH1 0x40 MLOAD PUSH3 0x461BCD PUSH1 0xE5 SHL DUP2 MSTORE PUSH1 0x20 PUSH1 0x4 DUP3 ADD MSTORE PUSH1 0x1 PUSH1 0x24 DUP3 ADD MSTORE PUSH32 0x6100000000000000000000000000000000000000000000000000000000000000 PUSH1 0x44 DUP3 ADD MSTORE PUSH1 0x64 ADD PUSH2 0xCE0 JUMP JUMPDEST PUSH1 0xFF DUP1 DUP4 AND PUSH1 0x0 SWAP1 DUP2 MSTORE PUSH1 0x29 PUSH1 0x20 SWAP1 DUP2 MSTORE PUSH1 0x40 DUP1 DUP4 KECCAK256 SWAP4 DUP6 AND DUP4 MSTORE SWAP3 SWAP1 MSTORE KECCAK256 PUSH2 0x2E28 DUP2 DUP5 DUP5 PUSH2 0x4798 JUMP JUMPDEST POP PUSH2 0x2E33 PUSH1 0x1 PUSH1 0x0 SSTORE JUMP JUMPDEST POP POP JUMP JUMPDEST PUSH1 0x10 SLOAD PUSH1 0x1 PUSH1 0x1 PUSH1 0xA0 SHL SUB AND CALLER EQ PUSH2 0x2E7B JUMPI PUSH1 0x40 MLOAD PUSH32 0x3F5C695D00000000000000000000000000000000000000000000000000000000 DUP2 MSTORE PUSH1 0x4 ADD PUSH1 0x40 MLOAD DUP1 SWAP2 SUB SWAP1 REVERT JUMPDEST PUSH1 0x10 DUP1 SLOAD SWAP2 ISZERO ISZERO PUSH22 0x1000000000000000000000000000000000000000000 MUL PUSH32 0xFFFFFFFFFFFFFFFFFFFF00FFFFFFFFFFFFFFFFFFFFFFFFFFFFFFFFFFFFFFFFFF SWAP1 SWAP3 AND SWAP2 SWAP1 SWAP2 OR SWAP1 SSTORE JUMP JUMPDEST PUSH2 0x2ECE PUSH2 0x4417 JUMP JUMPDEST PUSH1 0xE SLOAD PUSH1 0x1 PUSH1 0x1 PUSH1 0xA0 SHL SUB AND CALLER EQ PUSH2 0x2F28 JUMPI PUSH1 0x40 MLOAD PUSH3 0x461BCD PUSH1 0xE5 SHL DUP2 MSTORE PUSH1 0x20 PUSH1 0x4 DUP3 ADD MSTORE PUSH1 0x1 PUSH1 0x24 DUP3 ADD MSTORE PUSH32 0x6100000000000000000000000000000000000000000000000000000000000000 PUSH1 0x44 DUP3 ADD MSTORE PUSH1 0x64 ADD PUSH2 0xCE0 JUMP JUMPDEST PUSH1 0xFF DUP1 DUP5 AND PUSH1 0x0 SWAP1 DUP2 MSTORE PUSH1 0xC PUSH1 0x20 SWAP1 DUP2 MSTORE PUSH1 0x40 DUP1 DUP4 KECCAK256 SWAP4 DUP7 AND DUP4 MSTORE SWAP3 SWAP1 MSTORE KECCAK256 DUP1 SLOAD DUP3 ISZERO ISZERO PUSH1 0xFF NOT SWAP1 SWAP2 AND OR SWAP1 SSTORE PUSH2 0x1EB6 PUSH1 0x1 PUSH1 0x0 SSTORE JUMP JUMPDEST PUSH2 0x2FE4 PUSH1 0x40 MLOAD DUP1 PUSH2 0x1E0 ADD PUSH1 0x40 MSTORE DUP1 PUSH1 0x0 DUP2 MSTORE PUSH1 0x20 ADD PUSH1 0x0 DUP2 MSTORE PUSH1 0x20 ADD PUSH1 0x0 DUP2 MSTORE PUSH1 0x20 ADD PUSH1 0x0 DUP2 MSTORE PUSH1 0x20 ADD PUSH1 0x0 PUSH2 0xFFFF AND DUP2 MSTORE PUSH1 0x20 ADD PUSH1 0x0 DUP2 MSTORE PUSH1 0x20 ADD PUSH1 0x0 DUP2 MSTORE PUSH1 0x20 ADD PUSH1 0x0 DUP2 MSTORE PUSH1 0x20 ADD PUSH1 0x0 DUP2 MSTORE PUSH1 0x20 ADD PUSH1 0x0 DUP2 MSTORE PUSH1 0x20 ADD PUSH1 0x0 DUP2 MSTORE PUSH1 0x20 ADD PUSH1 0x0 DUP2 MSTORE PUSH1 0x20 ADD PUSH1 0x0 PUSH2 0xFFFF AND DUP2 MSTORE PUSH1 0x20 ADD PUSH1 0x0 PUSH2 0xFFFF AND DUP2 MSTORE PUSH1 0x20 ADD PUSH1 0x0 DUP2 MSTORE POP SWAP1 JUMP JUMPDEST PUSH1 0x2 SLOAD PUSH1 0x40 MLOAD PUSH4 0x8A888953 PUSH1 0xE0 SHL DUP2 MSTORE PUSH1 0xFF DUP1 DUP7 AND PUSH1 0x4 DUP4 ADD MSTORE DUP5 AND PUSH1 0x24 DUP3 ADD MSTORE DUP5 SWAP2 DUP5 SWAP2 PUSH1 0x0 SWAP2 PUSH1 0x1 PUSH1 0x1 PUSH1 0xA0 SHL SUB AND SWAP1 PUSH4 0x8A888953 SWAP1 PUSH1 0x44 ADD PUSH1 0x20 PUSH1 0x40 MLOAD DUP1 DUP4 SUB DUP2 DUP7 GAS STATICCALL ISZERO DUP1 ISZERO PUSH2 0x303C JUMPI RETURNDATASIZE PUSH1 0x0 DUP1 RETURNDATACOPY RETURNDATASIZE PUSH1 0x0 REVERT JUMPDEST POP POP POP POP PUSH1 0x40 MLOAD RETURNDATASIZE PUSH1 0x1F NOT PUSH1 0x1F DUP3 ADD AND DUP3 ADD DUP1 PUSH1 0x40 MSTORE POP DUP2 ADD SWAP1 PUSH2 0x3060 SWAP2 SWAP1 PUSH2 0x5295 JUMP JUMPDEST SWAP1 POP CALLER PUSH1 0x1 PUSH1 0x1 PUSH1 0xA0 SHL SUB DUP3 AND EQ DUP1 ISZERO SWAP1 PUSH2 0x3099 JUMPI POP PUSH1 0xE SLOAD PUSH1 0x1 PUSH1 0x1 PUSH1 0xA0 SHL SUB AND ISZERO DUP1 PUSH2 0x3099 JUMPI POP PUSH1 0xE SLOAD PUSH1 0x1 PUSH1 0x1 PUSH1 0xA0 SHL SUB AND CALLER EQ ISZERO JUMPDEST ISZERO PUSH2 0x30D0 JUMPI PUSH1 0x40 MLOAD PUSH32 0xDA76F5FA00000000000000000000000000000000000000000000000000000000 DUP2 MSTORE PUSH1 0x4 ADD PUSH1 0x40 MLOAD DUP1 SWAP2 SUB SWAP1 REVERT JUMPDEST POP POP POP POP PUSH1 0xFF SWAP2 DUP3 AND PUSH1 0x0 SWAP1 DUP2 MSTORE PUSH1 0x29 PUSH1 0x20 SWAP1 DUP2 MSTORE PUSH1 0x40 DUP1 DUP4 KECCAK256 SWAP4 SWAP1 SWAP5 AND DUP3 MSTORE SWAP2 DUP3 MSTORE DUP3 SWAP1 KECCAK256 DUP3 MLOAD PUSH2 0x1E0 DUP2 ADD DUP5 MSTORE DUP2 SLOAD DUP2 MSTORE PUSH1 0x1 DUP3 ADD SLOAD SWAP3 DUP2 ADD SWAP3 SWAP1 SWAP3 MSTORE PUSH1 0x2 DUP2 ADD SLOAD SWAP3 DUP3 ADD SWAP3 SWAP1 SWAP3 MSTORE PUSH1 0x3 DUP3 ADD SLOAD PUSH1 0x60 DUP3 ADD MSTORE PUSH1 0x4 DUP3 ADD SLOAD PUSH2 0xFFFF SWAP1 DUP2 AND PUSH1 0x80 DUP4 ADD MSTORE PUSH1 0x5 DUP4 ADD SLOAD PUSH1 0xA0 DUP4 ADD MSTORE PUSH1 0x8 DUP4 ADD SLOAD PUSH1 0xC0 DUP4 ADD MSTORE PUSH1 0x9 DUP4 ADD SLOAD PUSH1 0xE0 DUP4 ADD MSTORE PUSH1 0xA DUP4 ADD SLOAD PUSH2 0x100 DUP4 ADD MSTORE PUSH1 0xB DUP4 ADD SLOAD PUSH2 0x120 DUP4 ADD MSTORE PUSH1 0xC DUP4 ADD SLOAD PUSH2 0x140 DUP4 ADD MSTORE PUSH1 0xD DUP4 ADD SLOAD PUSH2 0x160 DUP4 ADD MSTORE PUSH1 0xE DUP4 ADD SLOAD DUP1 DUP3 AND PUSH2 0x180 DUP5 ADD MSTORE PUSH3 0x10000 SWAP1 DIV AND PUSH2 0x1A0 DUP3 ADD MSTORE PUSH1 0xF SWAP1 SWAP2 ADD SLOAD PUSH2 0x1C0 DUP3 ADD MSTORE SWAP1 JUMP JUMPDEST PUSH2 0x31B1 PUSH2 0x4E11 JUMP JUMPDEST PUSH1 0x2 SLOAD PUSH1 0x40 MLOAD PUSH4 0x8A888953 PUSH1 0xE0 SHL DUP2 MSTORE PUSH1 0xFF DUP1 DUP7 AND PUSH1 0x4 DUP4 ADD MSTORE DUP5 AND PUSH1 0x24 DUP3 ADD MSTORE DUP5 SWAP2 DUP5 SWAP2 CALLER SWAP2 PUSH1 0x1 PUSH1 0x1 PUSH1 0xA0 SHL SUB AND SWAP1 PUSH4 0x8A888953 SWAP1 PUSH1 0x44 ADD PUSH1 0x20 PUSH1 0x40 MLOAD DUP1 DUP4 SUB DUP2 DUP7 GAS STATICCALL ISZERO DUP1 ISZERO PUSH2 0x3208 JUMPI RETURNDATASIZE PUSH1 0x0 DUP1 RETURNDATACOPY RETURNDATASIZE PUSH1 0x0 REVERT JUMPDEST POP POP POP POP PUSH1 0x40 MLOAD RETURNDATASIZE PUSH1 0x1F NOT PUSH1 0x1F DUP3 ADD AND DUP3 ADD DUP1 PUSH1 0x40 MSTORE POP DUP2 ADD SWAP1 PUSH2 0x322C SWAP2 SWAP1 PUSH2 0x5295 JUMP JUMPDEST PUSH1 0x1 PUSH1 0x1 PUSH1 0xA0 SHL SUB AND EQ PUSH2 0x3268 JUMPI PUSH1 0x40 MLOAD PUSH3 0x461BCD PUSH1 0xE5 SHL DUP2 MSTORE PUSH1 0x20 PUSH1 0x4 DUP3 ADD MSTORE PUSH1 0x3 PUSH1 0x24 DUP3 ADD MSTORE PUSH3 0x37BBB7 PUSH1 0xE9 SHL PUSH1 0x44 DUP3 ADD MSTORE PUSH1 0x64 ADD PUSH2 0xCE0 JUMP JUMPDEST PUSH2 0x3270 PUSH2 0x4E11 JUMP JUMPDEST PUSH1 0x0 JUMPDEST PUSH1 0x9 PUSH1 0xFF DUP3 AND LT ISZERO PUSH2 0x3327 JUMPI PUSH1 0x0 JUMPDEST PUSH1 0x9 PUSH1 0xFF DUP3 AND LT ISZERO PUSH2 0x3314 JUMPI PUSH1 0xFF DUP1 DUP10 AND PUSH1 0x0 SWAP1 DUP2 MSTORE PUSH1 0x2A PUSH1 0x20 SWAP1 DUP2 MSTORE PUSH1 0x40 DUP1 DUP4 KECCAK256 DUP12 DUP6 AND DUP5 MSTORE DUP3 MSTORE DUP1 DUP4 KECCAK256 DUP7 DUP6 AND DUP1 DUP6 MSTORE SWAP1 DUP4 MSTORE DUP2 DUP5 KECCAK256 DUP7 DUP7 AND DUP6 MSTORE SWAP1 SWAP3 MSTORE SWAP1 SWAP2 KECCAK256 SLOAD SWAP1 SWAP2 AND SWAP1 DUP5 SWAP1 PUSH1 0x9 DUP2 LT PUSH2 0x32DC JUMPI PUSH2 0x32DC PUSH2 0x53DA JUMP JUMPDEST PUSH1 0x20 MUL ADD MLOAD DUP3 PUSH1 0xFF AND PUSH1 0x9 DUP2 LT PUSH2 0x32F5 JUMPI PUSH2 0x32F5 PUSH2 0x53DA JUMP JUMPDEST PUSH1 0xFF SWAP1 SWAP3 AND PUSH1 0x20 SWAP3 SWAP1 SWAP3 MUL ADD MSTORE DUP1 PUSH2 0x330C DUP2 PUSH2 0x5409 JUMP JUMPDEST SWAP2 POP POP PUSH2 0x3282 JUMP JUMPDEST POP DUP1 PUSH2 0x331F DUP2 PUSH2 0x5409 JUMP JUMPDEST SWAP2 POP POP PUSH2 0x3273 JUMP JUMPDEST POP SWAP3 POP JUMPDEST POP POP SWAP3 SWAP2 POP POP JUMP JUMPDEST PUSH1 0xD SLOAD PUSH1 0x1 PUSH1 0x1 PUSH1 0xA0 SHL SUB AND CALLER EQ PUSH2 0x3377 JUMPI PUSH1 0x40 MLOAD PUSH32 0x30CD747100000000000000000000000000000000000000000000000000000000 DUP2 MSTORE PUSH1 0x4 ADD PUSH1 0x40 MLOAD DUP1 SWAP2 SUB SWAP1 REVERT JUMPDEST PUSH1 0x10 SLOAD PUSH22 0x1000000000000000000000000000000000000000000 SWAP1 DIV PUSH1 0xFF AND ISZERO PUSH2 0x33E3 JUMPI PUSH1 0x40 MLOAD PUSH3 0x461BCD PUSH1 0xE5 SHL DUP2 MSTORE PUSH1 0x20 PUSH1 0x4 DUP3 ADD MSTORE PUSH1 0x5 PUSH1 0x24 DUP3 ADD MSTORE PUSH32 0x6B696C6974000000000000000000000000000000000000000000000000000000 PUSH1 0x44 DUP3 ADD MSTORE PUSH1 0x64 ADD PUSH2 0xCE0 JUMP JUMPDEST PUSH1 0x10 DUP1 SLOAD PUSH32 0xFFFFFFFFFFFFFFFFFFFFFF00FFFFFFFFFFFFFFFFFFFFFFFFFFFFFFFFFFFFFFFF AND SWAP1 SSTORE JUMP JUMPDEST PUSH2 0x3415 PUSH2 0x4417 JUMP JUMPDEST PUSH1 0x2 SLOAD PUSH1 0x40 MLOAD PUSH4 0x8A888953 PUSH1 0xE0 SHL DUP2 MSTORE PUSH1 0xFF DUP1 DUP6 AND PUSH1 0x4 DUP4 ADD MSTORE DUP4 AND PUSH1 0x24 DUP3 ADD MSTORE DUP4 SWAP2 DUP4 SWAP2 CALLER SWAP2 PUSH1 0x1 PUSH1 0x1 PUSH1 0xA0 SHL SUB AND SWAP1 PUSH4 0x8A888953 SWAP1 PUSH1 0x44 ADD PUSH1 0x20 PUSH1 0x40 MLOAD DUP1 DUP4 SUB DUP2 DUP7 GAS STATICCALL ISZERO DUP1 ISZERO PUSH2 0x346C JUMPI RETURNDATASIZE PUSH1 0x0 DUP1 RETURNDATACOPY RETURNDATASIZE PUSH1 0x0 REVERT JUMPDEST POP POP POP POP PUSH1 0x40 MLOAD RETURNDATASIZE PUSH1 0x1F NOT PUSH1 0x1F DUP3 ADD AND DUP3 ADD DUP1 PUSH1 0x40 MSTORE POP DUP2 ADD SWAP1 PUSH2 0x3490 SWAP2 SWAP1 PUSH2 0x5295 JUMP JUMPDEST PUSH1 0x1 PUSH1 0x1 PUSH1 0xA0 SHL SUB AND EQ PUSH2 0x34CC JUMPI PUSH1 0x40 MLOAD PUSH3 0x461BCD PUSH1 0xE5 SHL DUP2 MSTORE PUSH1 0x20 PUSH1 0x4 DUP3 ADD MSTORE PUSH1 0x3 PUSH1 0x24 DUP3 ADD MSTORE PUSH3 0x37BBB7 PUSH1 0xE9 SHL PUSH1 0x44 DUP3 ADD MSTORE PUSH1 0x64 ADD PUSH2 0xCE0 JUMP JUMPDEST PUSH2 0x34D6 DUP5 DUP5 PUSH2 0x47F8 JUMP JUMPDEST POP POP PUSH2 0x2E33 PUSH1 0x1 PUSH1 0x0 SSTORE JUMP JUMPDEST PUSH1 0x2 SLOAD PUSH1 0x40 MLOAD PUSH4 0x8A888953 PUSH1 0xE0 SHL DUP2 MSTORE PUSH1 0xFF DUP1 DUP6 AND PUSH1 0x4 DUP4 ADD MSTORE DUP4 AND PUSH1 0x24 DUP3 ADD MSTORE DUP4 SWAP2 DUP4 SWAP2 CALLER SWAP2 PUSH1 0x1 PUSH1 0x1 PUSH1 0xA0 SHL SUB AND SWAP1 PUSH4 0x8A888953 SWAP1 PUSH1 0x44 ADD PUSH1 0x20 PUSH1 0x40 MLOAD DUP1 DUP4 SUB DUP2 DUP7 GAS STATICCALL ISZERO DUP1 ISZERO PUSH2 0x3539 JUMPI RETURNDATASIZE PUSH1 0x0 DUP1 RETURNDATACOPY RETURNDATASIZE PUSH1 0x0 REVERT JUMPDEST POP POP POP POP PUSH1 0x40 MLOAD RETURNDATASIZE PUSH1 0x1F NOT PUSH1 0x1F DUP3 ADD AND DUP3 ADD DUP1 PUSH1 0x40 MSTORE POP DUP2 ADD SWAP1 PUSH2 0x355D SWAP2 SWAP1 PUSH2 0x5295 JUMP JUMPDEST PUSH1 0x1 PUSH1 0x1 PUSH1 0xA0 SHL SUB AND EQ PUSH2 0x3599 JUMPI PUSH1 0x40 MLOAD PUSH3 0x461BCD PUSH1 0xE5 SHL DUP2 MSTORE PUSH1 0x20 PUSH1 0x4 DUP3 ADD MSTORE PUSH1 0x3 PUSH1 0x24 DUP3 ADD MSTORE PUSH3 0x37BBB7 PUSH1 0xE9 SHL PUSH1 0x44 DUP3 ADD MSTORE PUSH1 0x64 ADD PUSH2 0xCE0 JUMP JUMPDEST PUSH2 0x35A1 PUSH2 0x4417 JUMP JUMPDEST PUSH1 0x10 SLOAD PUSH21 0x10000000000000000000000000000000000000000 SWAP1 DIV PUSH1 0xFF AND ISZERO PUSH2 0x360C JUMPI PUSH1 0x40 MLOAD PUSH3 0x461BCD PUSH1 0xE5 SHL DUP2 MSTORE PUSH1 0x20 PUSH1 0x4 DUP3 ADD MSTORE PUSH1 0x6 PUSH1 0x24 DUP3 ADD MSTORE PUSH32 0x7061757365640000000000000000000000000000000000000000000000000000 PUSH1 0x44 DUP3 ADD MSTORE PUSH1 0x64 ADD PUSH2 0xCE0 JUMP JUMPDEST PUSH1 0x0 DUP6 PUSH2 0xFFFF AND GT DUP1 ISZERO PUSH2 0x3626 JUMPI POP PUSH2 0x258 DUP6 PUSH2 0xFFFF AND GT ISZERO JUMPDEST PUSH2 0x3672 JUMPI PUSH1 0x40 MLOAD PUSH3 0x461BCD PUSH1 0xE5 SHL DUP2 MSTORE PUSH1 0x20 PUSH1 0x4 DUP3 ADD MSTORE PUSH1 0xD PUSH1 0x24 DUP3 ADD MSTORE PUSH32 0x496E76616C6964207475726E7300000000000000000000000000000000000000 PUSH1 0x44 DUP3 ADD MSTORE PUSH1 0x64 ADD PUSH2 0xCE0 JUMP JUMPDEST PUSH1 0x4 SLOAD CALLVALUE EQ PUSH2 0x36AD JUMPI PUSH1 0x40 MLOAD PUSH32 0x917F1A5300000000000000000000000000000000000000000000000000000000 DUP2 MSTORE PUSH1 0x4 ADD PUSH1 0x40 MLOAD DUP1 SWAP2 SUB SWAP1 REVERT JUMPDEST PUSH1 0xF SLOAD PUSH1 0x1 PUSH1 0x1 PUSH1 0xA0 SHL SUB AND PUSH2 0x36EF JUMPI PUSH1 0x40 MLOAD PUSH32 0xD92E233D00000000000000000000000000000000000000000000000000000000 DUP2 MSTORE PUSH1 0x4 ADD PUSH1 0x40 MLOAD DUP1 SWAP2 SUB SWAP1 REVERT JUMPDEST PUSH2 0x36F9 DUP5 DUP5 PUSH2 0x47F8 JUMP JUMPDEST PUSH1 0xFF DUP1 DUP6 AND PUSH1 0x0 SWAP1 DUP2 MSTORE PUSH1 0x29 PUSH1 0x20 SWAP1 DUP2 MSTORE PUSH1 0x40 DUP1 DUP4 KECCAK256 SWAP4 DUP8 AND DUP4 MSTORE SWAP3 SWAP1 MSTORE KECCAK256 PUSH1 0x6 ADD SLOAD PUSH2 0xFFFF DUP1 DUP8 AND SWAP2 AND LT ISZERO PUSH2 0x3756 JUMPI PUSH1 0x40 MLOAD PUSH3 0x461BCD PUSH1 0xE5 SHL DUP2 MSTORE PUSH1 0x20 PUSH1 0x4 DUP3 ADD MSTORE PUSH1 0x1 PUSH1 0x24 DUP3 ADD MSTORE PUSH1 0x1D PUSH1 0xFA SHL PUSH1 0x44 DUP3 ADD MSTORE PUSH1 0x64 ADD PUSH2 0xCE0 JUMP JUMPDEST PUSH1 0xFF DUP1 DUP6 AND PUSH1 0x0 SWAP1 DUP2 MSTORE PUSH1 0x29 PUSH1 0x20 SWAP1 DUP2 MSTORE PUSH1 0x40 DUP1 DUP4 KECCAK256 SWAP4 DUP8 AND DUP4 MSTORE SWAP3 SWAP1 MSTORE KECCAK256 PUSH1 0x5 ADD SLOAD PUSH2 0x3786 SWAP1 PUSH2 0x3E8 SWAP1 PUSH2 0x5428 JUMP JUMPDEST PUSH2 0x3792 SWAP1 PUSH2 0x3E8 PUSH2 0x52F4 JUMP JUMPDEST DUP6 PUSH2 0xFFFF AND GT ISZERO PUSH2 0x37DC JUMPI PUSH1 0xFF DUP1 DUP6 AND PUSH1 0x0 SWAP1 DUP2 MSTORE PUSH1 0x29 PUSH1 0x20 SWAP1 DUP2 MSTORE PUSH1 0x40 DUP1 DUP4 KECCAK256 SWAP4 DUP8 AND DUP4 MSTORE SWAP3 SWAP1 MSTORE KECCAK256 PUSH1 0x5 ADD SLOAD PUSH2 0x37CD SWAP1 PUSH2 0x3E8 SWAP1 PUSH2 0x5428 JUMP JUMPDEST PUSH2 0x37D9 SWAP1 PUSH2 0x3E8 PUSH2 0x52F4 JUMP JUMPDEST SWAP5 POP JUMPDEST PUSH1 0xFF DUP1 DUP6 AND PUSH1 0x0 SWAP1 DUP2 MSTORE PUSH1 0x29 PUSH1 0x20 SWAP1 DUP2 MSTORE PUSH1 0x40 DUP1 DUP4 KECCAK256 SWAP4 DUP8 AND DUP4 MSTORE SWAP3 SWAP1 MSTORE SWAP1 DUP2 KECCAK256 PUSH1 0x6 ADD DUP1 SLOAD DUP8 SWAP3 SWAP1 PUSH2 0x3814 SWAP1 DUP5 SWAP1 PUSH2 0xFFFF AND PUSH2 0x543C JUMP JUMPDEST DUP3 SLOAD PUSH2 0xFFFF SWAP2 DUP3 AND PUSH2 0x100 SWAP4 SWAP1 SWAP4 EXP SWAP3 DUP4 MUL SWAP2 SWAP1 SWAP3 MUL NOT SWAP1 SWAP2 AND OR SWAP1 SSTORE POP PUSH1 0xFF DUP1 DUP6 AND PUSH1 0x0 SWAP1 DUP2 MSTORE PUSH1 0x29 PUSH1 0x20 SWAP1 DUP2 MSTORE PUSH1 0x40 DUP1 DUP4 KECCAK256 SWAP4 DUP8 AND DUP4 MSTORE SWAP3 SWAP1 MSTORE SWAP1 DUP2 KECCAK256 TIMESTAMP PUSH1 0x7 SWAP1 SWAP2 ADD SSTORE PUSH2 0x3866 DUP6 DUP6 PUSH1 0x5 PUSH2 0x4470 JUMP JUMPDEST SWAP1 POP PUSH2 0x3873 PUSH1 0x1 DUP3 PUSH2 0x52E1 JUMP JUMPDEST PUSH1 0x3 SLOAD PUSH1 0x40 MLOAD PUSH32 0x2A2026A900000000000000000000000000000000000000000000000000000000 DUP2 MSTORE PUSH1 0xFF DUP1 DUP10 AND PUSH1 0x4 DUP4 ADD MSTORE DUP8 AND PUSH1 0x24 DUP3 ADD MSTORE SWAP2 SWAP3 POP PUSH1 0x0 SWAP2 PUSH1 0x1 PUSH1 0x1 PUSH1 0xA0 SHL SUB SWAP1 SWAP2 AND SWAP1 PUSH4 0x2A2026A9 SWAP1 PUSH1 0x44 ADD PUSH1 0x20 PUSH1 0x40 MLOAD DUP1 DUP4 SUB DUP2 DUP7 GAS STATICCALL ISZERO DUP1 ISZERO PUSH2 0x38E5 JUMPI RETURNDATASIZE PUSH1 0x0 DUP1 RETURNDATACOPY RETURNDATASIZE PUSH1 0x0 REVERT JUMPDEST POP POP POP POP PUSH1 0x40 MLOAD RETURNDATASIZE PUSH1 0x1F NOT PUSH1 0x1F DUP3 ADD AND DUP3 ADD DUP1 PUSH1 0x40 MSTORE POP DUP2 ADD SWAP1 PUSH2 0x3909 SWAP2 SWAP1 PUSH2 0x5457 JUMP JUMPDEST PUSH1 0xFF DUP1 DUP9 AND PUSH1 0x0 SWAP1 DUP2 MSTORE PUSH1 0x29 PUSH1 0x20 SWAP1 DUP2 MSTORE PUSH1 0x40 DUP1 DUP4 KECCAK256 DUP11 DUP6 AND DUP5 MSTORE SWAP1 SWAP2 MSTORE SWAP1 KECCAK256 SWAP2 SWAP3 POP DUP3 AND PUSH1 0x1 SUB PUSH2 0x3960 JUMPI PUSH2 0x3943 DUP4 PUSH2 0xFFFF DUP11 AND PUSH2 0x535F JUMP JUMPDEST DUP2 SLOAD DUP3 SWAP1 PUSH1 0x0 SWAP1 PUSH2 0x3955 SWAP1 DUP5 SWAP1 PUSH2 0x52E1 JUMP JUMPDEST SWAP1 SWAP2 SSTORE POP PUSH2 0x39ED SWAP1 POP JUMP JUMPDEST DUP2 PUSH1 0xFF AND PUSH1 0x2 SUB PUSH2 0x398D JUMPI PUSH2 0x3979 DUP4 PUSH2 0xFFFF DUP11 AND PUSH2 0x535F JUMP JUMPDEST PUSH1 0x1 DUP3 ADD DUP1 SLOAD PUSH1 0x0 SWAP1 PUSH2 0x3955 SWAP1 DUP5 SWAP1 PUSH2 0x52E1 JUMP JUMPDEST DUP2 PUSH1 0xFF AND PUSH1 0x3 SUB PUSH2 0x39BA JUMPI PUSH2 0x39A6 DUP4 PUSH2 0xFFFF DUP11 AND PUSH2 0x535F JUMP JUMPDEST PUSH1 0x2 DUP3 ADD DUP1 SLOAD PUSH1 0x0 SWAP1 PUSH2 0x3955 SWAP1 DUP5 SWAP1 PUSH2 0x52E1 JUMP JUMPDEST DUP2 PUSH1 0xFF AND PUSH1 0x4 SUB PUSH2 0x39ED JUMPI PUSH2 0x39D3 DUP4 PUSH2 0xFFFF DUP11 AND PUSH2 0x535F JUMP JUMPDEST PUSH1 0x3 DUP3 ADD DUP1 SLOAD PUSH1 0x0 SWAP1 PUSH2 0x39E7 SWAP1 DUP5 SWAP1 PUSH2 0x52E1 JUMP JUMPDEST SWAP1 SWAP2 SSTORE POP POP JUMPDEST PUSH2 0x39FB DUP4 PUSH2 0xFFFF DUP11 AND PUSH2 0x535F JUMP JUMPDEST DUP2 SLOAD DUP3 SWAP1 PUSH1 0x0 SWAP1 PUSH2 0x3A0D SWAP1 DUP5 SWAP1 PUSH2 0x52E1 JUMP JUMPDEST SWAP1 SWAP2 SSTORE POP PUSH2 0x3A21 SWAP1 POP DUP4 PUSH2 0xFFFF DUP11 AND PUSH2 0x535F JUMP JUMPDEST PUSH1 0x1 DUP3 ADD DUP1 SLOAD PUSH1 0x0 SWAP1 PUSH2 0x3A35 SWAP1 DUP5 SWAP1 PUSH2 0x52E1 JUMP JUMPDEST SWAP1 SWAP2 SSTORE POP PUSH2 0x3A49 SWAP1 POP DUP4 PUSH2 0xFFFF DUP11 AND PUSH2 0x535F JUMP JUMPDEST PUSH1 0x2 DUP3 ADD DUP1 SLOAD PUSH1 0x0 SWAP1 PUSH2 0x3A5D SWAP1 DUP5 SWAP1 PUSH2 0x52E1 JUMP JUMPDEST SWAP1 SWAP2 SSTORE POP PUSH2 0x3A71 SWAP1 POP DUP4 PUSH2 0xFFFF DUP11 AND PUSH2 0x535F JUMP JUMPDEST PUSH1 0x3 DUP3 ADD DUP1 SLOAD PUSH1 0x0 SWAP1 PUSH2 0x3A85 SWAP1 DUP5 SWAP1 PUSH2 0x52E1 JUMP JUMPDEST SWAP3 POP POP DUP2 SWAP1 SSTORE POP DUP8 PUSH2 0xFFFF AND DUP2 PUSH1 0x5 ADD PUSH1 0x0 DUP3 DUP3 SLOAD PUSH2 0x3AA4 SWAP2 SWAP1 PUSH2 0x52E1 JUMP JUMPDEST SWAP1 SWAP2 SSTORE POP POP PUSH1 0x5 DUP2 ADD SLOAD PUSH1 0x0 SWAP1 PUSH2 0x3ABE SWAP1 PUSH2 0x3E8 SWAP1 PUSH2 0x53A5 JUMP JUMPDEST SWAP1 POP PUSH2 0x3E8 DUP3 PUSH1 0x5 ADD PUSH1 0x0 DUP3 DUP3 SLOAD PUSH2 0x3AD6 SWAP2 SWAP1 PUSH2 0x5428 JUMP JUMPDEST SWAP1 SWAP2 SSTORE POP POP PUSH1 0x4 DUP3 ADD SLOAD PUSH1 0x0 SWAP1 PUSH2 0x3AF2 SWAP1 DUP4 SWAP1 PUSH2 0xFFFF AND PUSH2 0x533D JUMP JUMPDEST SWAP1 POP PUSH2 0x1F4 DUP2 PUSH2 0xFFFF AND GT ISZERO PUSH2 0x3B18 JUMPI PUSH1 0x4 DUP4 ADD DUP1 SLOAD PUSH2 0xFFFF NOT AND PUSH2 0x1F4 OR SWAP1 SSTORE PUSH2 0x3B2C JUMP JUMPDEST PUSH1 0x4 DUP4 ADD DUP1 SLOAD PUSH2 0xFFFF NOT AND PUSH2 0xFFFF DUP4 AND OR SWAP1 SSTORE JUMPDEST PUSH2 0x3B37 DUP4 DUP11 DUP11 PUSH2 0x4798 JUMP JUMPDEST PUSH1 0xFF DUP1 DUP11 AND PUSH1 0x0 SWAP1 DUP2 MSTORE PUSH1 0x8 PUSH1 0x20 SWAP1 DUP2 MSTORE PUSH1 0x40 DUP1 DUP4 KECCAK256 SWAP4 DUP13 AND DUP4 MSTORE SWAP3 SWAP1 MSTORE SWAP1 DUP2 KECCAK256 DUP1 SLOAD PUSH2 0xFFFF DUP14 AND SWAP3 SWAP1 PUSH2 0x3B6C SWAP1 DUP5 SWAP1 PUSH2 0x52E1 JUMP JUMPDEST SWAP1 SWAP2 SSTORE POP POP PUSH1 0xFF DUP1 DUP11 AND PUSH1 0x0 SWAP1 DUP2 MSTORE PUSH1 0xC PUSH1 0x20 SWAP1 DUP2 MSTORE PUSH1 0x40 DUP1 DUP4 KECCAK256 SWAP4 DUP13 AND DUP4 MSTORE SWAP3 SWAP1 MSTORE KECCAK256 DUP1 SLOAD PUSH1 0xFF NOT AND SWAP1 SSTORE PUSH1 0x40 DUP1 MLOAD PUSH2 0xFFFF DUP13 AND DUP2 MSTORE PUSH1 0xFF DUP1 DUP13 AND PUSH1 0x20 DUP4 ADD MSTORE DUP11 AND SWAP2 DUP2 ADD SWAP2 SWAP1 SWAP2 MSTORE CALLER SWAP1 PUSH32 0xBB5B4F7847476E1912E2B57D030B0E491D0D72B2EF256CCEEA9DAA41F40F5D18 SWAP1 PUSH1 0x60 ADD PUSH1 0x40 MLOAD DUP1 SWAP2 SUB SWAP1 LOG2 PUSH2 0x3BEF CALLVALUE CALLER PUSH2 0x48B9 JUMP JUMPDEST PUSH1 0x0 DUP1 PUSH2 0x3BFA PUSH2 0x4BD1 JUMP JUMPDEST SWAP1 SWAP3 POP SWAP1 POP DUP2 ISZERO PUSH2 0x3D15 JUMPI PUSH1 0x0 DUP2 DUP4 PUSH1 0x5 SLOAD DUP16 PUSH2 0xFFFF AND PUSH2 0x3C1B SWAP2 SWAP1 PUSH2 0x535F JUMP JUMPDEST PUSH2 0x3C25 SWAP2 SWAP1 PUSH2 0x535F JUMP JUMPDEST PUSH2 0x3C2F SWAP2 SWAP1 PUSH2 0x53A5 JUMP JUMPDEST PUSH1 0x1 SLOAD PUSH1 0x40 MLOAD PUSH32 0xA9059CBB00000000000000000000000000000000000000000000000000000000 DUP2 MSTORE CALLER PUSH1 0x4 DUP3 ADD MSTORE PUSH1 0x24 DUP2 ADD DUP4 SWAP1 MSTORE SWAP2 SWAP3 POP PUSH1 0x0 SWAP2 PUSH1 0x1 PUSH1 0x1 PUSH1 0xA0 SHL SUB SWAP1 SWAP2 AND SWAP1 PUSH4 0xA9059CBB SWAP1 PUSH1 0x44 ADD PUSH1 0x20 PUSH1 0x40 MLOAD DUP1 DUP4 SUB DUP2 PUSH1 0x0 DUP8 GAS CALL ISZERO DUP1 ISZERO PUSH2 0x3C9F JUMPI RETURNDATASIZE PUSH1 0x0 DUP1 RETURNDATACOPY RETURNDATASIZE PUSH1 0x0 REVERT JUMPDEST POP POP POP POP PUSH1 0x40 MLOAD RETURNDATASIZE PUSH1 0x1F NOT PUSH1 0x1F DUP3 ADD AND DUP3 ADD DUP1 PUSH1 0x40 MSTORE POP DUP2 ADD SWAP1 PUSH2 0x3CC3 SWAP2 SWAP1 PUSH2 0x5320 JUMP JUMPDEST SWAP1 POP DUP1 PUSH2 0x3D12 JUMPI PUSH1 0x40 MLOAD PUSH3 0x461BCD PUSH1 0xE5 SHL DUP2 MSTORE PUSH1 0x20 PUSH1 0x4 DUP3 ADD MSTORE PUSH1 0x1A PUSH1 0x24 DUP3 ADD MSTORE PUSH32 0x4C4F5020726577617264207472616E73666572206661696C6564000000000000 PUSH1 0x44 DUP3 ADD MSTORE PUSH1 0x64 ADD PUSH2 0xCE0 JUMP JUMPDEST POP POP JUMPDEST PUSH1 0x7 DUP1 SLOAD SWAP1 PUSH1 0x0 PUSH2 0x3D25 DUP4 PUSH2 0x5474 JUMP JUMPDEST SWAP2 SWAP1 POP SSTORE POP POP POP POP POP POP POP POP PUSH2 0x1617 PUSH1 0x1 PUSH1 0x0 SSTORE JUMP JUMPDEST PUSH1 0x2 SLOAD PUSH1 0x40 MLOAD PUSH4 0x8A888953 PUSH1 0xE0 SHL DUP2 MSTORE PUSH1 0xFF DUP1 DUP6 AND PUSH1 0x4 DUP4 ADD MSTORE DUP4 AND PUSH1 0x24 DUP3 ADD MSTORE PUSH1 0x0 SWAP2 DUP5 SWAP2 DUP5 SWAP2 CALLER SWAP2 PUSH1 0x1 PUSH1 0x1 PUSH1 0xA0 SHL SUB SWAP1 SWAP2 AND SWAP1 PUSH4 0x8A888953 SWAP1 PUSH1 0x44 ADD PUSH1 0x20 PUSH1 0x40 MLOAD DUP1 DUP4 SUB DUP2 DUP7 GAS STATICCALL ISZERO DUP1 ISZERO PUSH2 0x3D97 JUMPI RETURNDATASIZE PUSH1 0x0 DUP1 RETURNDATACOPY RETURNDATASIZE PUSH1 0x0 REVERT JUMPDEST POP POP POP POP PUSH1 0x40 MLOAD RETURNDATASIZE PUSH1 0x1F NOT PUSH1 0x1F DUP3 ADD AND DUP3 ADD DUP1 PUSH1 0x40 MSTORE POP DUP2 ADD SWAP1 PUSH2 0x3DBB SWAP2 SWAP1 PUSH2 0x5295 JUMP JUMPDEST PUSH1 0x1 PUSH1 0x1 PUSH1 0xA0 SHL SUB AND EQ PUSH2 0x3DF7 JUMPI PUSH1 0x40 MLOAD PUSH3 0x461BCD PUSH1 0xE5 SHL DUP2 MSTORE PUSH1 0x20 PUSH1 0x4 DUP3 ADD MSTORE PUSH1 0x3 PUSH1 0x24 DUP3 ADD MSTORE PUSH3 0x37BBB7 PUSH1 0xE9 SHL PUSH1 0x44 DUP3 ADD MSTORE PUSH1 0x64 ADD PUSH2 0xCE0 JUMP JUMPDEST PUSH1 0xFF DUP1 DUP7 AND PUSH1 0x0 SWAP1 DUP2 MSTORE PUSH1 0x29 PUSH1 0x20 SWAP1 DUP2 MSTORE PUSH1 0x40 DUP1 DUP4 KECCAK256 SWAP4 DUP9 AND DUP4 MSTORE SWAP3 SWAP1 MSTORE KECCAK256 PUSH1 0x7 ADD SLOAD PUSH2 0x258 SWAP1 DUP2 SWAP1 PUSH2 0x3E2A SWAP1 TIMESTAMP PUSH2 0x52F4 JUMP JUMPDEST PUSH2 0x3E34 SWAP2 SWAP1 PUSH2 0x53A5 JUMP JUMPDEST PUSH1 0xFF DUP1 DUP9 AND PUSH1 0x0 SWAP1 DUP2 MSTORE PUSH1 0x29 PUSH1 0x20 SWAP1 DUP2 MSTORE PUSH1 0x40 DUP1 DUP4 KECCAK256 SWAP4 DUP11 AND DUP4 MSTORE SWAP3 SWAP1 MSTORE KECCAK256 PUSH1 0x6 ADD SLOAD PUSH2 0x3E65 SWAP2 SWAP1 PUSH2 0xFFFF AND PUSH2 0x52E1 JUMP JUMPDEST GT ISZERO PUSH2 0x3E75 JUMPI PUSH2 0x258 SWAP3 POP PUSH2 0x332B JUMP JUMPDEST PUSH1 0xFF DUP1 DUP7 AND PUSH1 0x0 SWAP1 DUP2 MSTORE PUSH1 0x29 PUSH1 0x20 SWAP1 DUP2 MSTORE PUSH1 0x40 DUP1 DUP4 KECCAK256 SWAP4 DUP9 AND DUP4 MSTORE SWAP3 SWAP1 MSTORE KECCAK256 PUSH1 0x7 ADD SLOAD PUSH2 0x258 SWAP1 PUSH2 0x3EA6 SWAP1 TIMESTAMP PUSH2 0x52F4 JUMP JUMPDEST PUSH2 0x3EB0 SWAP2 SWAP1 PUSH2 0x53A5 JUMP JUMPDEST PUSH1 0xFF DUP1 DUP8 AND PUSH1 0x0 SWAP1 DUP2 MSTORE PUSH1 0x29 PUSH1 0x20 SWAP1 DUP2 MSTORE PUSH1 0x40 DUP1 DUP4 KECCAK256 SWAP4 DUP10 AND DUP4 MSTORE SWAP3 SWAP1 MSTORE KECCAK256 PUSH1 0x6 ADD SLOAD PUSH2 0x3EE1 SWAP2 SWAP1 PUSH2 0xFFFF AND PUSH2 0x52E1 JUMP JUMPDEST SWAP3 POP PUSH2 0x332B JUMP JUMPDEST PUSH2 0x3EF0 PUSH2 0x4417 JUMP JUMPDEST PUSH1 0x2 SLOAD PUSH1 0x40 MLOAD PUSH4 0x8A888953 PUSH1 0xE0 SHL DUP2 MSTORE PUSH1 0xFF DUP1 DUP8 AND PUSH1 0x4 DUP4 ADD MSTORE DUP6 AND PUSH1 0x24 DUP3 ADD MSTORE DUP6 SWAP2 DUP6 SWAP2 CALLER SWAP2 PUSH1 0x1 PUSH1 0x1 PUSH1 0xA0 SHL SUB AND SWAP1 PUSH4 0x8A888953 SWAP1 PUSH1 0x44 ADD PUSH1 0x20 PUSH1 0x40 MLOAD DUP1 DUP4 SUB DUP2 DUP7 GAS STATICCALL ISZERO DUP1 ISZERO PUSH2 0x3F47 JUMPI RETURNDATASIZE PUSH1 0x0 DUP1 RETURNDATACOPY RETURNDATASIZE PUSH1 0x0 REVERT JUMPDEST POP POP POP POP PUSH1 0x40 MLOAD RETURNDATASIZE PUSH1 0x1F NOT PUSH1 0x1F DUP3 ADD AND DUP3 ADD DUP1 PUSH1 0x40 MSTORE POP DUP2 ADD SWAP1 PUSH2 0x3F6B SWAP2 SWAP1 PUSH2 0x5295 JUMP JUMPDEST PUSH1 0x1 PUSH1 0x1 PUSH1 0xA0 SHL SUB AND EQ PUSH2 0x3FA7 JUMPI PUSH1 0x40 MLOAD PUSH3 0x461BCD PUSH1 0xE5 SHL DUP2 MSTORE PUSH1 0x20 PUSH1 0x4 DUP3 ADD MSTORE PUSH1 0x3 PUSH1 0x24 DUP3 ADD MSTORE PUSH3 0x37BBB7 PUSH1 0xE9 SHL PUSH1 0x44 DUP3 ADD MSTORE PUSH1 0x64 ADD PUSH2 0xCE0 JUMP JUMPDEST PUSH1 0x0 DUP4 GT DUP1 ISZERO PUSH2 0x3FB9 JUMPI POP PUSH2 0x3E8 DUP4 GT ISZERO JUMPDEST PUSH2 0x4005 JUMPI PUSH1 0x40 MLOAD PUSH3 0x461BCD PUSH1 0xE5 SHL DUP2 MSTORE PUSH1 0x20 PUSH1 0x4 DUP3 ADD MSTORE PUSH1 0x10 PUSH1 0x24 DUP3 ADD MSTORE PUSH32 0x496E76616C6964207175616E7469747900000000000000000000000000000000 PUSH1 0x44 DUP3 ADD MSTORE PUSH1 0x64 ADD PUSH2 0xCE0 JUMP JUMPDEST DUP4 PUSH1 0xFF AND PUSH1 0x1 EQ DUP1 PUSH2 0x401A JUMPI POP DUP4 PUSH1 0xFF AND PUSH1 0x2 EQ JUMPDEST PUSH2 0x404A JUMPI PUSH1 0x40 MLOAD PUSH3 0x461BCD PUSH1 0xE5 SHL DUP2 MSTORE PUSH1 0x20 PUSH1 0x4 DUP3 ADD MSTORE PUSH1 0x1 PUSH1 0x24 DUP3 ADD MSTORE PUSH1 0x1D PUSH1 0xFA SHL PUSH1 0x44 DUP3 ADD MSTORE PUSH1 0x64 ADD PUSH2 0xCE0 JUMP JUMPDEST PUSH1 0x0 PUSH2 0x4058 DUP8 DUP8 PUSH1 0x4 PUSH2 0x4470 JUMP JUMPDEST SWAP1 POP PUSH1 0x0 DUP2 GT PUSH2 0x40AA JUMPI PUSH1 0x40 MLOAD PUSH3 0x461BCD PUSH1 0xE5 SHL DUP2 MSTORE PUSH1 0x20 PUSH1 0x4 DUP3 ADD MSTORE PUSH1 0x1 PUSH1 0x24 DUP3 ADD MSTORE PUSH32 0x7000000000000000000000000000000000000000000000000000000000000000 PUSH1 0x44 DUP3 ADD MSTORE PUSH1 0x64 ADD PUSH2 0xCE0 JUMP JUMPDEST PUSH1 0x0 DUP6 PUSH1 0xFF AND PUSH1 0x1 EQ PUSH2 0x40BE JUMPI PUSH1 0x25 PUSH2 0x40C1 JUMP JUMPDEST PUSH1 0x21 JUMPDEST PUSH1 0x40 DUP1 MLOAD PUSH1 0x80 DUP2 ADD DUP3 MSTORE DUP3 SLOAD DUP2 MSTORE PUSH1 0x1 DUP4 ADD SLOAD PUSH1 0x20 DUP3 ADD MSTORE PUSH1 0x2 DUP4 ADD SLOAD SWAP2 DUP2 ADD SWAP2 SWAP1 SWAP2 MSTORE PUSH1 0x3 SWAP1 SWAP2 ADD SLOAD PUSH1 0x60 DUP3 ADD MSTORE SWAP1 POP PUSH2 0x40FF DUP9 DUP9 DUP4 DUP9 DUP7 PUSH2 0x450B JUMP JUMPDEST PUSH1 0xFF DUP1 DUP10 AND PUSH1 0x0 SWAP1 DUP2 MSTORE PUSH1 0x29 PUSH1 0x20 SWAP1 DUP2 MSTORE PUSH1 0x40 DUP1 DUP4 KECCAK256 DUP12 DUP6 AND DUP5 MSTORE SWAP1 SWAP2 MSTORE SWAP1 KECCAK256 PUSH1 0x8 ADD SWAP1 DUP8 AND PUSH1 0x1 SUB PUSH2 0x4226 JUMPI DUP1 SLOAD DUP7 GT ISZERO PUSH2 0x417D JUMPI PUSH1 0x40 MLOAD PUSH3 0x461BCD PUSH1 0xE5 SHL DUP2 MSTORE PUSH1 0x20 PUSH1 0x4 DUP3 ADD MSTORE PUSH1 0x2 PUSH1 0x24 DUP3 ADD MSTORE PUSH32 0x6F61000000000000000000000000000000000000000000000000000000000000 PUSH1 0x44 DUP3 ADD MSTORE PUSH1 0x64 ADD PUSH2 0xCE0 JUMP JUMPDEST DUP6 DUP2 PUSH1 0x2 ADD SLOAD LT ISZERO PUSH2 0x41D1 JUMPI PUSH1 0x40 MLOAD PUSH3 0x461BCD PUSH1 0xE5 SHL DUP2 MSTORE PUSH1 0x20 PUSH1 0x4 DUP3 ADD MSTORE PUSH1 0x2 PUSH1 0x24 DUP3 ADD MSTORE PUSH32 0x6F77000000000000000000000000000000000000000000000000000000000000 PUSH1 0x44 DUP3 ADD MSTORE PUSH1 0x64 ADD PUSH2 0xCE0 JUMP JUMPDEST DUP6 DUP2 PUSH1 0x0 ADD PUSH1 0x0 DUP3 DUP3 SLOAD PUSH2 0x41E5 SWAP2 SWAP1 PUSH2 0x52F4 JUMP JUMPDEST SWAP3 POP POP DUP2 SWAP1 SSTORE POP DUP6 DUP2 PUSH1 0x2 ADD PUSH1 0x0 DUP3 DUP3 SLOAD PUSH2 0x4200 SWAP2 SWAP1 PUSH2 0x52F4 JUMP JUMPDEST SWAP3 POP POP DUP2 SWAP1 SSTORE POP DUP6 DUP2 PUSH1 0x4 ADD PUSH1 0x0 DUP3 DUP3 SLOAD PUSH2 0x421B SWAP2 SWAP1 PUSH2 0x52E1 JUMP JUMPDEST SWAP1 SWAP2 SSTORE POP PUSH2 0x431E SWAP1 POP JUMP JUMPDEST DUP6 DUP2 PUSH1 0x1 ADD SLOAD LT ISZERO PUSH2 0x427A JUMPI PUSH1 0x40 MLOAD PUSH3 0x461BCD PUSH1 0xE5 SHL DUP2 MSTORE PUSH1 0x20 PUSH1 0x4 DUP3 ADD MSTORE PUSH1 0x2 PUSH1 0x24 DUP3 ADD MSTORE PUSH32 0x6461000000000000000000000000000000000000000000000000000000000000 PUSH1 0x44 DUP3 ADD MSTORE PUSH1 0x64 ADD PUSH2 0xCE0 JUMP JUMPDEST DUP6 DUP2 PUSH1 0x3 ADD SLOAD LT ISZERO PUSH2 0x42CE JUMPI PUSH1 0x40 MLOAD PUSH3 0x461BCD PUSH1 0xE5 SHL DUP2 MSTORE PUSH1 0x20 PUSH1 0x4 DUP3 ADD MSTORE PUSH1 0x2 PUSH1 0x24 DUP3 ADD MSTORE PUSH32 0x6477000000000000000000000000000000000000000000000000000000000000 PUSH1 0x44 DUP3 ADD MSTORE PUSH1 0x64 ADD PUSH2 0xCE0 JUMP JUMPDEST DUP6 DUP2 PUSH1 0x1 ADD PUSH1 0x0 DUP3 DUP3 SLOAD PUSH2 0x42E2 SWAP2 SWAP1 PUSH2 0x52F4 JUMP JUMPDEST SWAP3 POP POP DUP2 SWAP1 SSTORE POP DUP6 DUP2 PUSH1 0x3 ADD PUSH1 0x0 DUP3 DUP3 SLOAD PUSH2 0x42FD SWAP2 SWAP1 PUSH2 0x52F4 JUMP JUMPDEST SWAP3 POP POP DUP2 SWAP1 SSTORE POP DUP6 DUP2 PUSH1 0x5 ADD PUSH1 0x0 DUP3 DUP3 SLOAD PUSH2 0x4318 SWAP2 SWAP1 PUSH2 0x52E1 JUMP JUMPDEST SWAP1 SWAP2 SSTORE POP POP JUMPDEST POP POP POP POP POP PUSH2 0xED3 PUSH1 0x1 PUSH1 0x0 SSTORE JUMP JUMPDEST PUSH1 0xD SLOAD PUSH1 0x1 PUSH1 0x1 PUSH1 0xA0 SHL SUB AND CALLER EQ PUSH2 0x4371 JUMPI PUSH1 0x40 MLOAD PUSH32 0x30CD747100000000000000000000000000000000000000000000000000000000 DUP2 MSTORE PUSH1 0x4 ADD PUSH1 0x40 MLOAD DUP1 SWAP2 SUB SWAP1 REVERT JUMPDEST PUSH1 0x10 SLOAD PUSH22 0x1000000000000000000000000000000000000000000 SWAP1 DIV PUSH1 0xFF AND ISZERO PUSH2 0x43DD JUMPI PUSH1 0x40 MLOAD PUSH3 0x461BCD PUSH1 0xE5 SHL DUP2 MSTORE PUSH1 0x20 PUSH1 0x4 DUP3 ADD MSTORE PUSH1 0x5 PUSH1 0x24 DUP3 ADD MSTORE PUSH32 0x6B696C6974000000000000000000000000000000000000000000000000000000 PUSH1 0x44 DUP3 ADD MSTORE PUSH1 0x64 ADD PUSH2 0xCE0 JUMP JUMPDEST PUSH1 0xE DUP1 SLOAD PUSH32 0xFFFFFFFFFFFFFFFFFFFFFFFF0000000000000000000000000000000000000000 AND PUSH1 0x1 PUSH1 0x1 PUSH1 0xA0 SHL SUB SWAP3 SWAP1 SWAP3 AND SWAP2 SWAP1 SWAP2 OR SWAP1 SSTORE JUMP JUMPDEST PUSH1 0x2 PUSH1 0x0 SLOAD SUB PUSH2 0x4469 JUMPI PUSH1 0x40 MLOAD PUSH3 0x461BCD PUSH1 0xE5 SHL DUP2 MSTORE PUSH1 0x20 PUSH1 0x4 DUP3 ADD MSTORE PUSH1 0x1F PUSH1 0x24 DUP3 ADD MSTORE PUSH32 0x5265656E7472616E637947756172643A207265656E7472616E742063616C6C00 PUSH1 0x44 DUP3 ADD MSTORE PUSH1 0x64 ADD PUSH2 0xCE0 JUMP JUMPDEST PUSH1 0x2 PUSH1 0x0 SSTORE JUMP JUMPDEST PUSH1 0x0 DUP1 DUP1 JUMPDEST PUSH1 0x9 PUSH1 0xFF DUP3 AND LT ISZERO PUSH2 0x4502 JUMPI PUSH1 0x0 JUMPDEST PUSH1 0x9 PUSH1 0xFF DUP3 AND LT ISZERO PUSH2 0x44EF JUMPI PUSH1 0xFF DUP8 DUP2 AND PUSH1 0x0 SWAP1 DUP2 MSTORE PUSH1 0x2A PUSH1 0x20 SWAP1 DUP2 MSTORE PUSH1 0x40 DUP1 DUP4 KECCAK256 DUP11 DUP6 AND DUP5 MSTORE DUP3 MSTORE DUP1 DUP4 KECCAK256 DUP7 DUP6 AND DUP5 MSTORE DUP3 MSTORE DUP1 DUP4 KECCAK256 DUP6 DUP6 AND DUP5 MSTORE SWAP1 SWAP2 MSTORE SWAP1 KECCAK256 SLOAD DUP2 DUP8 AND SWAP2 AND SUB PUSH2 0x44DD JUMPI DUP3 PUSH2 0x44D9 DUP2 PUSH2 0x5474 JUMP JUMPDEST SWAP4 POP POP JUMPDEST DUP1 PUSH2 0x44E7 DUP2 PUSH2 0x5409 JUMP JUMPDEST SWAP2 POP POP PUSH2 0x4484 JUMP JUMPDEST POP DUP1 PUSH2 0x44FA DUP2 PUSH2 0x5409 JUMP JUMPDEST SWAP2 POP POP PUSH2 0x4475 JUMP JUMPDEST POP SWAP5 SWAP4 POP POP POP POP JUMP JUMPDEST PUSH1 0xFF DUP1 DUP7 AND PUSH1 0x0 SWAP1 DUP2 MSTORE PUSH1 0x29 PUSH1 0x20 SWAP1 DUP2 MSTORE PUSH1 0x40 DUP1 DUP4 KECCAK256 SWAP4 DUP9 AND DUP4 MSTORE SWAP3 SWAP1 MSTORE SWAP1 DUP2 KECCAK256 DUP5 MLOAD SWAP1 SWAP2 SWAP1 DUP4 SWAP1 PUSH2 0x453E SWAP1 DUP7 SWAP1 PUSH2 0x535F JUMP JUMPDEST PUSH2 0x4548 SWAP2 SWAP1 PUSH2 0x53A5 JUMP JUMPDEST SWAP1 POP PUSH1 0x0 DUP4 DUP6 DUP8 PUSH1 0x20 ADD MLOAD PUSH2 0x455D SWAP2 SWAP1 PUSH2 0x535F JUMP JUMPDEST PUSH2 0x4567 SWAP2 SWAP1 PUSH2 0x53A5 JUMP JUMPDEST SWAP1 POP PUSH1 0x0 DUP5 DUP7 DUP9 PUSH1 0x40 ADD MLOAD PUSH2 0x457C SWAP2 SWAP1 PUSH2 0x535F JUMP JUMPDEST PUSH2 0x4586 SWAP2 SWAP1 PUSH2 0x53A5 JUMP JUMPDEST SWAP1 POP PUSH1 0x0 DUP6 DUP8 DUP10 PUSH1 0x60 ADD MLOAD PUSH2 0x459B SWAP2 SWAP1 PUSH2 0x535F JUMP JUMPDEST PUSH2 0x45A5 SWAP2 SWAP1 PUSH2 0x53A5 JUMP JUMPDEST DUP6 SLOAD SWAP1 SWAP2 POP DUP5 GT ISZERO PUSH2 0x45F9 JUMPI PUSH1 0x40 MLOAD PUSH3 0x461BCD PUSH1 0xE5 SHL DUP2 MSTORE PUSH1 0x20 PUSH1 0x4 DUP3 ADD MSTORE PUSH1 0x1 PUSH1 0x24 DUP3 ADD MSTORE PUSH32 0x6600000000000000000000000000000000000000000000000000000000000000 PUSH1 0x44 DUP3 ADD MSTORE PUSH1 0x64 ADD PUSH2 0xCE0 JUMP JUMPDEST PUSH1 0x1 DUP6 ADD SLOAD DUP4 GT ISZERO PUSH2 0x464D JUMPI PUSH1 0x40 MLOAD PUSH3 0x461BCD PUSH1 0xE5 SHL DUP2 MSTORE PUSH1 0x20 PUSH1 0x4 DUP3 ADD MSTORE PUSH1 0x1 PUSH1 0x24 DUP3 ADD MSTORE PUSH32 0x7700000000000000000000000000000000000000000000000000000000000000 PUSH1 0x44 DUP3 ADD MSTORE PUSH1 0x64 ADD PUSH2 0xCE0 JUMP JUMPDEST PUSH1 0x2 DUP6 ADD SLOAD DUP3 GT ISZERO PUSH2 0x46A1 JUMPI PUSH1 0x40 MLOAD PUSH3 0x461BCD PUSH1 0xE5 SHL DUP2 MSTORE PUSH1 0x20 PUSH1 0x4 DUP3 ADD MSTORE PUSH1 0x1 PUSH1 0x24 DUP3 ADD MSTORE PUSH32 0x7300000000000000000000000000000000000000000000000000000000000000 PUSH1 0x44 DUP3 ADD MSTORE PUSH1 0x64 ADD PUSH2 0xCE0 JUMP JUMPDEST PUSH1 0x3 DUP6 ADD SLOAD DUP2 GT ISZERO PUSH2 0x46F5 JUMPI PUSH1 0x40 MLOAD PUSH3 0x461BCD PUSH1 0xE5 SHL DUP2 MSTORE PUSH1 0x20 PUSH1 0x4 DUP3 ADD MSTORE PUSH1 0x1 PUSH1 0x24 DUP3 ADD MSTORE PUSH32 0x6900000000000000000000000000000000000000000000000000000000000000 PUSH1 0x44 DUP3 ADD MSTORE PUSH1 0x64 ADD PUSH2 0xCE0 JUMP JUMPDEST DUP5 SLOAD DUP5 SWAP1 DUP7 SWAP1 PUSH1 0x0 SWAP1 PUSH2 0x4709 SWAP1 DUP5 SWAP1 PUSH2 0x52F4 JUMP JUMPDEST SWAP1 SWAP2 SSTORE POP POP PUSH1 0x1 DUP6 ADD DUP1 SLOAD DUP5 SWAP2 SWAP1 PUSH1 0x0 SWAP1 PUSH2 0x4725 SWAP1 DUP5 SWAP1 PUSH2 0x52F4 JUMP JUMPDEST SWAP1 SWAP2 SSTORE POP POP PUSH1 0x2 DUP6 ADD DUP1 SLOAD DUP4 SWAP2 SWAP1 PUSH1 0x0 SWAP1 PUSH2 0x4741 SWAP1 DUP5 SWAP1 PUSH2 0x52F4 JUMP JUMPDEST SWAP1 SWAP2 SSTORE POP POP PUSH1 0x3 DUP6 ADD DUP1 SLOAD DUP3 SWAP2 SWAP1 PUSH1 0x0 SWAP1 PUSH2 0x475D SWAP1 DUP5 SWAP1 PUSH2 0x52F4 JUMP JUMPDEST SWAP1 SWAP2 SSTORE POP PUSH2 0x476E SWAP1 POP DUP6 DUP12 DUP12 PUSH2 0x4798 JUMP JUMPDEST POP POP POP POP POP POP POP POP POP POP JUMP JUMPDEST PUSH1 0x0 PUSH1 0x1 DUP3 PUSH1 0xFF AND LT ISZERO DUP1 ISZERO PUSH2 0x18AF JUMPI POP POP PUSH1 0x8 PUSH1 0xFF SWAP1 SWAP2 AND GT ISZERO SWAP1 JUMP JUMPDEST PUSH1 0x3 DUP4 ADD SLOAD PUSH1 0x2 DUP5 ADD SLOAD PUSH1 0x1 DUP6 ADD SLOAD DUP6 SLOAD PUSH1 0x0 SWAP4 SWAP3 SWAP2 PUSH2 0x47B7 SWAP2 PUSH2 0x52E1 JUMP JUMPDEST PUSH2 0x47C1 SWAP2 SWAP1 PUSH2 0x52E1 JUMP JUMPDEST PUSH2 0x47CB SWAP2 SWAP1 PUSH2 0x52E1 JUMP JUMPDEST PUSH1 0xF SWAP1 SWAP5 ADD DUP5 SWAP1 SSTORE POP PUSH1 0xFF SWAP2 DUP3 AND PUSH1 0x0 SWAP1 DUP2 MSTORE PUSH1 0xB PUSH1 0x20 SWAP1 DUP2 MSTORE PUSH1 0x40 DUP1 DUP4 KECCAK256 SWAP4 SWAP1 SWAP5 AND DUP3 MSTORE SWAP2 SWAP1 SWAP2 MSTORE KECCAK256 SSTORE JUMP JUMPDEST PUSH1 0xFF DUP1 DUP4 AND PUSH1 0x0 SWAP1 DUP2 MSTORE PUSH1 0x29 PUSH1 0x20 SWAP1 DUP2 MSTORE PUSH1 0x40 DUP1 DUP4 KECCAK256 SWAP4 DUP6 AND DUP4 MSTORE SWAP3 SWAP1 MSTORE SWAP1 DUP2 KECCAK256 PUSH1 0x7 ADD SLOAD PUSH2 0x258 SWAP1 PUSH2 0x482B SWAP1 TIMESTAMP PUSH2 0x52F4 JUMP JUMPDEST PUSH2 0x4835 SWAP2 SWAP1 PUSH2 0x53A5 JUMP JUMPDEST PUSH1 0xFF DUP1 DUP6 AND PUSH1 0x0 SWAP1 DUP2 MSTORE PUSH1 0x29 PUSH1 0x20 SWAP1 DUP2 MSTORE PUSH1 0x40 DUP1 DUP4 KECCAK256 SWAP4 DUP8 AND DUP4 MSTORE SWAP3 SWAP1 MSTORE KECCAK256 PUSH1 0x6 ADD SLOAD PUSH2 0x4866 SWAP2 SWAP1 PUSH2 0xFFFF AND PUSH2 0x52E1 JUMP JUMPDEST SWAP1 POP PUSH2 0x258 DUP2 GT PUSH2 0x4877 JUMPI DUP1 PUSH2 0x487B JUMP JUMPDEST PUSH2 0x258 JUMPDEST PUSH1 0xFF SWAP4 DUP5 AND PUSH1 0x0 SWAP1 DUP2 MSTORE PUSH1 0x29 PUSH1 0x20 SWAP1 DUP2 MSTORE PUSH1 0x40 DUP1 DUP4 KECCAK256 SWAP6 SWAP1 SWAP7 AND DUP3 MSTORE SWAP4 SWAP1 SWAP4 MSTORE SWAP3 SWAP1 SWAP2 KECCAK256 PUSH1 0x6 ADD DUP1 SLOAD PUSH2 0xFFFF NOT AND PUSH2 0xFFFF SWAP1 SWAP4 AND SWAP3 SWAP1 SWAP3 OR SWAP1 SWAP2 SSTORE POP JUMP JUMPDEST PUSH1 0x2 SLOAD PUSH1 0x40 MLOAD PUSH32 0x4A9FEFC700000000000000000000000000000000000000000000000000000000 DUP2 MSTORE PUSH1 0x1 PUSH1 0x1 PUSH1 0xA0 SHL SUB DUP4 DUP2 AND PUSH1 0x4 DUP4 ADD MSTORE PUSH1 0x0 SWAP3 AND SWAP1 PUSH4 0x4A9FEFC7 SWAP1 PUSH1 0x24 ADD PUSH1 0x20 PUSH1 0x40 MLOAD DUP1 DUP4 SUB DUP2 DUP7 GAS STATICCALL ISZERO DUP1 ISZERO PUSH2 0x491D JUMPI RETURNDATASIZE PUSH1 0x0 DUP1 RETURNDATACOPY RETURNDATASIZE PUSH1 0x0 REVERT JUMPDEST POP POP POP POP PUSH1 0x40 MLOAD RETURNDATASIZE PUSH1 0x1F NOT PUSH1 0x1F DUP3 ADD AND DUP3 ADD DUP1 PUSH1 0x40 MSTORE POP DUP2 ADD SWAP1 PUSH2 0x4941 SWAP2 SWAP1 PUSH2 0x5295 JUMP JUMPDEST SWAP1 POP PUSH2 0x494B PUSH2 0x4E3F JUMP JUMPDEST PUSH1 0x0 DUP1 DUP1 PUSH1 0x0 PUSH2 0x4959 PUSH2 0x4C28 JUMP JUMPDEST SWAP3 POP SWAP3 POP SWAP3 POP DUP3 DUP6 DUP6 DUP1 PUSH2 0x496C SWAP1 PUSH2 0x5474 JUMP JUMPDEST SWAP7 POP PUSH1 0x5 DUP2 LT PUSH2 0x497E JUMPI PUSH2 0x497E PUSH2 0x53DA JUMP JUMPDEST PUSH1 0x1 PUSH1 0x1 PUSH1 0xA0 SHL SUB SWAP1 SWAP3 AND PUSH1 0x20 SWAP3 SWAP1 SWAP3 MUL ADD MSTORE DUP2 DUP6 DUP6 PUSH2 0x499D DUP2 PUSH2 0x5474 JUMP JUMPDEST SWAP7 POP PUSH1 0x5 DUP2 LT PUSH2 0x49AF JUMPI PUSH2 0x49AF PUSH2 0x53DA JUMP JUMPDEST PUSH1 0x1 PUSH1 0x1 PUSH1 0xA0 SHL SUB SWAP1 SWAP3 AND PUSH1 0x20 SWAP3 SWAP1 SWAP3 MUL ADD MSTORE DUP1 DUP6 DUP6 PUSH2 0x49CE DUP2 PUSH2 0x5474 JUMP JUMPDEST SWAP7 POP PUSH1 0x5 DUP2 LT PUSH2 0x49E0 JUMPI PUSH2 0x49E0 PUSH2 0x53DA JUMP JUMPDEST PUSH1 0x1 PUSH1 0x1 PUSH1 0xA0 SHL SUB SWAP3 DUP4 AND PUSH1 0x20 SWAP2 SWAP1 SWAP2 MUL SWAP2 SWAP1 SWAP2 ADD MSTORE PUSH1 0xF SLOAD AND DUP6 DUP6 PUSH2 0x4A05 DUP2 PUSH2 0x5474 JUMP JUMPDEST SWAP7 POP PUSH1 0x5 DUP2 LT PUSH2 0x4A17 JUMPI PUSH2 0x4A17 PUSH2 0x53DA JUMP JUMPDEST PUSH1 0x1 PUSH1 0x1 PUSH1 0xA0 SHL SUB SWAP1 SWAP3 AND PUSH1 0x20 SWAP3 SWAP1 SWAP3 MUL ADD MSTORE DUP6 DUP6 DUP6 PUSH2 0x4A36 DUP2 PUSH2 0x5474 JUMP JUMPDEST SWAP7 POP PUSH1 0x5 DUP2 LT PUSH2 0x4A48 JUMPI PUSH2 0x4A48 PUSH2 0x53DA JUMP JUMPDEST PUSH1 0x1 PUSH1 0x1 PUSH1 0xA0 SHL SUB SWAP1 SWAP3 AND PUSH1 0x20 SWAP3 SWAP1 SWAP3 MUL ADD MSTORE PUSH1 0x0 PUSH2 0x4A67 DUP6 DUP11 PUSH2 0x53A5 JUMP JUMPDEST SWAP1 POP PUSH1 0x0 DUP1 JUMPDEST DUP7 DUP2 LT ISZERO PUSH2 0x4B07 JUMPI PUSH1 0x0 DUP9 DUP3 PUSH1 0x5 DUP2 LT PUSH2 0x4A89 JUMPI PUSH2 0x4A89 PUSH2 0x53DA JUMP JUMPDEST PUSH1 0x20 MUL ADD MLOAD PUSH1 0x1 PUSH1 0x1 PUSH1 0xA0 SHL SUB AND DUP5 PUSH1 0x40 MLOAD PUSH1 0x0 PUSH1 0x40 MLOAD DUP1 DUP4 SUB DUP2 DUP6 DUP8 GAS CALL SWAP3 POP POP POP RETURNDATASIZE DUP1 PUSH1 0x0 DUP2 EQ PUSH2 0x4AD8 JUMPI PUSH1 0x40 MLOAD SWAP2 POP PUSH1 0x1F NOT PUSH1 0x3F RETURNDATASIZE ADD AND DUP3 ADD PUSH1 0x40 MSTORE RETURNDATASIZE DUP3 MSTORE RETURNDATASIZE PUSH1 0x0 PUSH1 0x20 DUP5 ADD RETURNDATACOPY PUSH2 0x4ADD JUMP JUMPDEST PUSH1 0x60 SWAP2 POP JUMPDEST POP POP SWAP1 POP DUP1 ISZERO PUSH2 0x4AF4 JUMPI PUSH2 0x4AF1 DUP5 DUP5 PUSH2 0x52E1 JUMP JUMPDEST SWAP3 POP JUMPDEST POP DUP1 PUSH2 0x4AFF DUP2 PUSH2 0x5474 JUMP JUMPDEST SWAP2 POP POP PUSH2 0x4A6D JUMP JUMPDEST POP PUSH1 0x0 PUSH2 0x4B14 DUP3 DUP13 PUSH2 0x52F4 JUMP JUMPDEST SWAP1 POP DUP1 ISZERO PUSH2 0x4BC4 JUMPI PUSH1 0xF SLOAD PUSH1 0x40 MLOAD PUSH1 0x0 SWAP2 PUSH1 0x1 PUSH1 0x1 PUSH1 0xA0 SHL SUB AND SWAP1 DUP4 SWAP1 DUP4 DUP2 DUP2 DUP2 DUP6 DUP8 GAS CALL SWAP3 POP POP POP RETURNDATASIZE DUP1 PUSH1 0x0 DUP2 EQ PUSH2 0x4B69 JUMPI PUSH1 0x40 MLOAD SWAP2 POP PUSH1 0x1F NOT PUSH1 0x3F RETURNDATASIZE ADD AND DUP3 ADD PUSH1 0x40 MSTORE RETURNDATASIZE DUP3 MSTORE RETURNDATASIZE PUSH1 0x0 PUSH1 0x20 DUP5 ADD RETURNDATACOPY PUSH2 0x4B6E JUMP JUMPDEST PUSH1 0x60 SWAP2 POP JUMPDEST POP POP PUSH1 0xF SLOAD PUSH1 0x40 DUP1 MLOAD PUSH1 0x1 PUSH1 0x1 PUSH1 0xA0 SHL SUB SWAP1 SWAP3 AND DUP3 MSTORE PUSH1 0x20 DUP3 ADD DUP6 SWAP1 MSTORE DUP3 ISZERO ISZERO SWAP1 DUP3 ADD MSTORE SWAP1 SWAP2 POP PUSH32 0xEE95DAC99B5D637DF9DBE3765B5D106AF913BB16C5A277C1F75573525839B2EE SWAP1 PUSH1 0x60 ADD PUSH1 0x40 MLOAD DUP1 SWAP2 SUB SWAP1 LOG1 POP JUMPDEST POP POP POP POP POP POP POP POP POP POP POP JUMP JUMPDEST PUSH1 0x0 DUP1 PUSH1 0x0 PUSH2 0x4BDE PUSH2 0x4DD4 JUMP JUMPDEST SWAP1 POP PUSH1 0x5 DUP2 LT PUSH2 0x4BF4 JUMPI POP PUSH1 0x0 SWAP3 PUSH1 0x1 SWAP3 POP SWAP1 POP JUMP JUMPDEST DUP1 PUSH1 0x0 SUB PUSH2 0x4C08 JUMPI POP PUSH1 0x2 SWAP3 PUSH1 0x1 SWAP3 POP SWAP1 POP JUMP JUMPDEST PUSH1 0x1 PUSH2 0x4C14 DUP2 DUP4 PUSH2 0x52F4 JUMP JUMPDEST PUSH2 0x4C1F SWAP1 PUSH1 0x2 PUSH2 0x5572 JUMP JUMPDEST SWAP3 POP SWAP3 POP POP SWAP1 SWAP2 JUMP JUMPDEST PUSH1 0x0 DUP1 PUSH1 0x0 DUP1 PUSH1 0x0 DUP1 PUSH1 0x0 JUMPDEST PUSH1 0x14 DUP2 PUSH1 0xFF AND LT ISZERO PUSH2 0x4DCB JUMPI PUSH1 0x0 JUMPDEST PUSH1 0x14 DUP2 PUSH1 0xFF AND LT ISZERO PUSH2 0x4DB8 JUMPI PUSH1 0xFF DUP1 DUP4 AND PUSH1 0x0 SWAP1 DUP2 MSTORE PUSH1 0xB PUSH1 0x20 SWAP1 DUP2 MSTORE PUSH1 0x40 DUP1 DUP4 KECCAK256 SWAP4 DUP6 AND DUP4 MSTORE SWAP3 SWAP1 MSTORE SWAP1 DUP2 KECCAK256 SLOAD SWAP1 DUP2 SWAP1 SUB PUSH2 0x4C7F JUMPI POP PUSH2 0x4DA6 JUMP JUMPDEST PUSH1 0x2 SLOAD PUSH1 0x40 MLOAD PUSH4 0x8A888953 PUSH1 0xE0 SHL DUP2 MSTORE PUSH1 0xFF DUP1 DUP7 AND PUSH1 0x4 DUP4 ADD MSTORE DUP5 AND PUSH1 0x24 DUP3 ADD MSTORE PUSH1 0x0 SWAP2 PUSH1 0x1 PUSH1 0x1 PUSH1 0xA0 SHL SUB AND SWAP1 PUSH4 0x8A888953 SWAP1 PUSH1 0x44 ADD PUSH1 0x20 PUSH1 0x40 MLOAD DUP1 DUP4 SUB DUP2 DUP7 GAS STATICCALL ISZERO DUP1 ISZERO PUSH2 0x4CD3 JUMPI RETURNDATASIZE PUSH1 0x0 DUP1 RETURNDATACOPY RETURNDATASIZE PUSH1 0x0 REVERT JUMPDEST POP POP POP POP PUSH1 0x40 MLOAD RETURNDATASIZE PUSH1 0x1F NOT PUSH1 0x1F DUP3 ADD AND DUP3 ADD DUP1 PUSH1 0x40 MSTORE POP DUP2 ADD SWAP1 PUSH2 0x4CF7 SWAP2 SWAP1 PUSH2 0x5295 JUMP JUMPDEST SWAP1 POP PUSH1 0x1 PUSH1 0x1 PUSH1 0xA0 SHL SUB DUP2 AND PUSH2 0x4D0E JUMPI POP POP PUSH2 0x4DA6 JUMP JUMPDEST DUP7 DUP3 GT ISZERO PUSH2 0x4D25 JUMPI SWAP9 SWAP8 SWAP7 POP SWAP5 SWAP4 SWAP3 POP DUP5 DUP9 PUSH2 0x4DA3 JUMP JUMPDEST DUP6 DUP3 GT DUP1 ISZERO PUSH2 0x4D46 JUMPI POP DUP10 PUSH1 0x1 PUSH1 0x1 PUSH1 0xA0 SHL SUB AND DUP2 PUSH1 0x1 PUSH1 0x1 PUSH1 0xA0 SHL SUB AND EQ ISZERO JUMPDEST ISZERO PUSH2 0x4D58 JUMPI SWAP8 SWAP7 POP SWAP4 SWAP3 POP DUP4 DUP8 PUSH2 0x4DA3 JUMP JUMPDEST DUP5 DUP3 GT DUP1 ISZERO PUSH2 0x4D79 JUMPI POP DUP10 PUSH1 0x1 PUSH1 0x1 PUSH1 0xA0 SHL SUB AND DUP2 PUSH1 0x1 PUSH1 0x1 PUSH1 0xA0 SHL SUB AND EQ ISZERO JUMPDEST DUP1 ISZERO PUSH2 0x4D97 JUMPI POP DUP9 PUSH1 0x1 PUSH1 0x1 PUSH1 0xA0 SHL SUB AND DUP2 PUSH1 0x1 PUSH1 0x1 PUSH1 0xA0 SHL SUB AND EQ ISZERO JUMPDEST ISZERO PUSH2 0x4DA3 JUMPI DUP2 SWAP5 POP DUP1 SWAP8 POP JUMPDEST POP POP JUMPDEST DUP1 PUSH2 0x4DB0 DUP2 PUSH2 0x5409 JUMP JUMPDEST SWAP2 POP POP PUSH2 0x4C43 JUMP JUMPDEST POP DUP1 PUSH2 0x4DC3 DUP2 PUSH2 0x5409 JUMP JUMPDEST SWAP2 POP POP PUSH2 0x4C34 JUMP JUMPDEST POP POP POP POP SWAP1 SWAP2 SWAP3 JUMP JUMPDEST PUSH1 0x0 PUSH1 0x6 SLOAD PUSH1 0x0 EQ DUP1 PUSH2 0x4DE8 JUMPI POP PUSH1 0x6 SLOAD TIMESTAMP LT JUMPDEST ISZERO PUSH2 0x4DF4 JUMPI POP PUSH1 0x0 NOT SWAP1 JUMP JUMPDEST PUSH4 0x1E13380 PUSH1 0x6 SLOAD TIMESTAMP PUSH2 0x4E07 SWAP2 SWAP1 PUSH2 0x52F4 JUMP JUMPDEST PUSH2 0x28BA SWAP2 SWAP1 PUSH2 0x53A5 JUMP JUMPDEST PUSH1 0x40 MLOAD DUP1 PUSH2 0x120 ADD PUSH1 0x40 MSTORE DUP1 PUSH1 0x9 SWAP1 JUMPDEST PUSH2 0x4E29 PUSH2 0x4E5D JUMP JUMPDEST DUP2 MSTORE PUSH1 0x20 ADD SWAP1 PUSH1 0x1 SWAP1 SUB SWAP1 DUP2 PUSH2 0x4E21 JUMPI SWAP1 POP POP SWAP1 JUMP JUMPDEST PUSH1 0x40 MLOAD DUP1 PUSH1 0xA0 ADD PUSH1 0x40 MSTORE DUP1 PUSH1 0x5 SWAP1 PUSH1 0x20 DUP3 MUL DUP1 CALLDATASIZE DUP4 CALLDATACOPY POP SWAP2 SWAP3 SWAP2 POP POP JUMP JUMPDEST PUSH1 0x40 MLOAD DUP1 PUSH2 0x120 ADD PUSH1 0x40 MSTORE DUP1 PUSH1 0x9 SWAP1 PUSH1 0x20 DUP3 MUL DUP1 CALLDATASIZE DUP4 CALLDATACOPY POP SWAP2 SWAP3 SWAP2 POP POP JUMP JUMPDEST PUSH1 0xFF DUP2 AND DUP2 EQ PUSH2 0x4E8B JUMPI PUSH1 0x0 DUP1 REVERT JUMPDEST POP JUMP JUMPDEST PUSH1 0x0 DUP1 PUSH1 0x40 DUP4 DUP6 SUB SLT ISZERO PUSH2 0x4EA1 JUMPI PUSH1 0x0 DUP1 REVERT JUMPDEST DUP3 CALLDATALOAD PUSH2 0x4EAC DUP2 PUSH2 0x4E7C JUMP JUMPDEST SWAP2 POP PUSH1 0x20 DUP4 ADD CALLDATALOAD PUSH2 0x4EBC DUP2 PUSH2 0x4E7C JUMP JUMPDEST DUP1 SWAP2 POP POP SWAP3 POP SWAP3 SWAP1 POP JUMP JUMPDEST PUSH1 0x0 DUP1 PUSH1 0x0 DUP1 PUSH1 0x80 DUP6 DUP8 SUB SLT ISZERO PUSH2 0x4EDD JUMPI PUSH1 0x0 DUP1 REVERT JUMPDEST DUP5 CALLDATALOAD PUSH2 0x4EE8 DUP2 PUSH2 0x4E7C JUMP JUMPDEST SWAP4 POP PUSH1 0x20 DUP6 ADD CALLDATALOAD PUSH2 0x4EF8 DUP2 PUSH2 0x4E7C JUMP JUMPDEST SWAP3 POP PUSH1 0x40 DUP6 ADD CALLDATALOAD PUSH2 0x4F08 DUP2 PUSH2 0x4E7C JUMP JUMPDEST SWAP4 SWAP7 SWAP3 SWAP6 POP SWAP3 SWAP4 PUSH1 0x60 ADD CALLDATALOAD SWAP3 POP POP JUMP JUMPDEST PUSH1 0x1 PUSH1 0x1 PUSH1 0xA0 SHL SUB DUP2 AND DUP2 EQ PUSH2 0x4E8B JUMPI PUSH1 0x0 DUP1 REVERT JUMPDEST PUSH1 0x0 PUSH1 0x20 DUP3 DUP5 SUB SLT ISZERO PUSH2 0x4F3F JUMPI PUSH1 0x0 DUP1 REVERT JUMPDEST DUP2 CALLDATALOAD PUSH2 0x4F4A DUP2 PUSH2 0x4F18 JUMP JUMPDEST SWAP4 SWAP3 POP POP POP JUMP JUMPDEST PUSH1 0x0 DUP1 PUSH1 0x0 DUP1 PUSH1 0x0 PUSH1 0xA0 DUP7 DUP9 SUB SLT ISZERO PUSH2 0x4F69 JUMPI PUSH1 0x0 DUP1 REVERT JUMPDEST DUP6 CALLDATALOAD PUSH2 0x4F74 DUP2 PUSH2 0x4E7C JUMP JUMPDEST SWAP5 POP PUSH1 0x20 DUP7 ADD CALLDATALOAD PUSH2 0x4F84 DUP2 PUSH2 0x4E7C JUMP JUMPDEST SWAP4 POP PUSH1 0x40 DUP7 ADD CALLDATALOAD PUSH2 0x4F94 DUP2 PUSH2 0x4E7C JUMP JUMPDEST SWAP3 POP PUSH1 0x60 DUP7 ADD CALLDATALOAD PUSH2 0x4FA4 DUP2 PUSH2 0x4E7C JUMP JUMPDEST SWAP2 POP PUSH1 0x80 DUP7 ADD CALLDATALOAD PUSH2 0x4FB4 DUP2 PUSH2 0x4E7C JUMP JUMPDEST DUP1 SWAP2 POP POP SWAP3 SWAP6 POP SWAP3 SWAP6 SWAP1 SWAP4 POP JUMP JUMPDEST PUSH1 0x0 DUP1 PUSH1 0x0 PUSH1 0x60 DUP5 DUP7 SUB SLT ISZERO PUSH2 0x4FD7 JUMPI PUSH1 0x0 DUP1 REVERT JUMPDEST DUP4 CALLDATALOAD PUSH2 0x4FE2 DUP2 PUSH2 0x4E7C JUMP JUMPDEST SWAP3 POP PUSH1 0x20 DUP5 ADD CALLDATALOAD PUSH2 0x4FF2 DUP2 PUSH2 0x4E7C JUMP JUMPDEST SWAP2 POP PUSH1 0x40 DUP5 ADD CALLDATALOAD PUSH2 0x5002 DUP2 PUSH2 0x4E7C JUMP JUMPDEST DUP1 SWAP2 POP POP SWAP3 POP SWAP3 POP SWAP3 JUMP JUMPDEST DUP1 ISZERO ISZERO DUP2 EQ PUSH2 0x4E8B JUMPI PUSH1 0x0 DUP1 REVERT JUMPDEST PUSH1 0x0 DUP1 PUSH1 0x0 DUP1 PUSH1 0x0 PUSH1 0xA0 DUP7 DUP9 SUB SLT ISZERO PUSH2 0x5033 JUMPI PUSH1 0x0 DUP1 REVERT JUMPDEST DUP6 CALLDATALOAD PUSH2 0x503E DUP2 PUSH2 0x4E7C JUMP JUMPDEST SWAP5 POP PUSH1 0x20 DUP7 ADD CALLDATALOAD PUSH2 0x504E DUP2 PUSH2 0x4E7C JUMP JUMPDEST SWAP4 POP PUSH1 0x40 DUP7 ADD CALLDATALOAD PUSH2 0x505E DUP2 PUSH2 0x4E7C JUMP JUMPDEST SWAP3 POP PUSH1 0x60 DUP7 ADD CALLDATALOAD SWAP2 POP PUSH1 0x80 DUP7 ADD CALLDATALOAD PUSH2 0x4FB4 DUP2 PUSH2 0x500D JUMP JUMPDEST PUSH1 0x0 DUP1 PUSH1 0x0 DUP1 PUSH1 0x80 DUP6 DUP8 SUB SLT ISZERO PUSH2 0x508B JUMPI PUSH1 0x0 DUP1 REVERT JUMPDEST DUP5 CALLDATALOAD PUSH2 0x5096 DUP2 PUSH2 0x4E7C JUMP JUMPDEST SWAP4 POP PUSH1 0x20 DUP6 ADD CALLDATALOAD PUSH2 0x50A6 DUP2 PUSH2 0x4E7C JUMP JUMPDEST SWAP3 POP PUSH1 0x40 DUP6 ADD CALLDATALOAD PUSH2 0x50B6 DUP2 PUSH2 0x4E7C JUMP JUMPDEST SWAP2 POP PUSH1 0x60 DUP6 ADD CALLDATALOAD PUSH2 0x50C6 DUP2 PUSH2 0x4E7C JUMP JUMPDEST SWAP4 SWAP7 SWAP3 SWAP6 POP SWAP1 SWAP4 POP POP JUMP JUMPDEST PUSH1 0x0 PUSH1 0x20 DUP3 DUP5 SUB SLT ISZERO PUSH2 0x50E3 JUMPI PUSH1 0x0 DUP1 REVERT JUMPDEST DUP2 CALLDATALOAD PUSH2 0x4F4A DUP2 PUSH2 0x500D JUMP JUMPDEST PUSH1 0x0 DUP1 PUSH1 0x0 PUSH1 0x60 DUP5 DUP7 SUB SLT ISZERO PUSH2 0x5103 JUMPI PUSH1 0x0 DUP1 REVERT JUMPDEST DUP4 CALLDATALOAD PUSH2 0x510E DUP2 PUSH2 0x4E7C JUMP JUMPDEST SWAP3 POP PUSH1 0x20 DUP5 ADD CALLDATALOAD PUSH2 0x511E DUP2 PUSH2 0x4E7C JUMP JUMPDEST SWAP2 POP PUSH1 0x40 DUP5 ADD CALLDATALOAD PUSH2 0x5002 DUP2 PUSH2 0x500D JUMP JUMPDEST PUSH1 0x0 PUSH2 0x1E0 DUP3 ADD SWAP1 POP DUP3 MLOAD DUP3 MSTORE PUSH1 0x20 DUP4 ADD MLOAD PUSH1 0x20 DUP4 ADD MSTORE PUSH1 0x40 DUP4 ADD MLOAD PUSH1 0x40 DUP4 ADD MSTORE PUSH1 0x60 DUP4 ADD MLOAD PUSH1 0x60 DUP4 ADD MSTORE PUSH1 0x80 DUP4 ADD MLOAD PUSH2 0x516E PUSH1 0x80 DUP5 ADD DUP3 PUSH2 0xFFFF AND SWAP1 MSTORE JUMP JUMPDEST POP PUSH1 0xA0 DUP4 DUP2 ADD MLOAD SWAP1 DUP4 ADD MSTORE PUSH1 0xC0 DUP1 DUP5 ADD MLOAD SWAP1 DUP4 ADD MSTORE PUSH1 0xE0 DUP1 DUP5 ADD MLOAD SWAP1 DUP4 ADD MSTORE PUSH2 0x100 DUP1 DUP5 ADD MLOAD SWAP1 DUP4 ADD MSTORE PUSH2 0x120 DUP1 DUP5 ADD MLOAD SWAP1 DUP4 ADD MSTORE PUSH2 0x140 DUP1 DUP5 ADD MLOAD SWAP1 DUP4 ADD MSTORE PUSH2 0x160 DUP1 DUP5 ADD MLOAD SWAP1 DUP4 ADD MSTORE PUSH2 0x180 DUP1 DUP5 ADD MLOAD PUSH2 0xFFFF DUP2 AND DUP3 DUP6 ADD MSTORE POP POP PUSH2 0x1A0 DUP4 DUP2 ADD MLOAD PUSH2 0xFFFF DUP2 AND DUP5 DUP4 ADD MSTORE POP POP PUSH2 0x1C0 SWAP3 DUP4 ADD MLOAD SWAP2 SWAP1 SWAP3 ADD MSTORE SWAP1 JUMP JUMPDEST PUSH2 0xA20 DUP2 ADD DUP2 DUP4 PUSH1 0x0 DUP1 JUMPDEST PUSH1 0x9 DUP1 DUP3 LT PUSH2 0x5206 JUMPI POP PUSH2 0x5247 JUMP JUMPDEST DUP4 MLOAD DUP6 DUP5 JUMPDEST DUP4 DUP2 LT ISZERO PUSH2 0x522C JUMPI DUP3 MLOAD PUSH1 0xFF AND DUP3 MSTORE PUSH1 0x20 SWAP3 DUP4 ADD SWAP3 SWAP1 SWAP2 ADD SWAP1 PUSH1 0x1 ADD PUSH2 0x520B JUMP JUMPDEST POP POP POP PUSH2 0x120 SWAP5 SWAP1 SWAP5 ADD SWAP4 POP PUSH1 0x20 SWAP3 SWAP1 SWAP3 ADD SWAP2 PUSH1 0x1 ADD PUSH2 0x51F7 JUMP JUMPDEST POP POP POP POP SWAP3 SWAP2 POP POP JUMP JUMPDEST PUSH1 0x0 PUSH1 0x20 DUP3 DUP5 SUB SLT ISZERO PUSH2 0x5263 JUMPI PUSH1 0x0 DUP1 REVERT JUMPDEST DUP2 CALLDATALOAD PUSH2 0x4F4A DUP2 PUSH2 0x4E7C JUMP JUMPDEST PUSH1 0x0 DUP1 PUSH1 0x0 PUSH1 0x60 DUP5 DUP7 SUB SLT ISZERO PUSH2 0x5283 JUMPI PUSH1 0x0 DUP1 REVERT JUMPDEST DUP4 CALLDATALOAD PUSH2 0xFFFF DUP2 AND DUP2 EQ PUSH2 0x4FE2 JUMPI PUSH1 0x0 DUP1 REVERT JUMPDEST PUSH1 0x0 PUSH1 0x20 DUP3 DUP5 SUB SLT ISZERO PUSH2 0x52A7 JUMPI PUSH1 0x0 DUP1 REVERT JUMPDEST DUP2 MLOAD PUSH2 0x4F4A DUP2 PUSH2 0x4F18 JUMP JUMPDEST PUSH32 0x4E487B7100000000000000000000000000000000000000000000000000000000 PUSH1 0x0 MSTORE PUSH1 0x11 PUSH1 0x4 MSTORE PUSH1 0x24 PUSH1 0x0 REVERT JUMPDEST DUP1 DUP3 ADD DUP1 DUP3 GT ISZERO PUSH2 0x18AF JUMPI PUSH2 0x18AF PUSH2 0x52B2 JUMP JUMPDEST DUP2 DUP2 SUB DUP2 DUP2 GT ISZERO PUSH2 0x18AF JUMPI PUSH2 0x18AF PUSH2 0x52B2 JUMP JUMPDEST PUSH1 0x0 PUSH1 0x20 DUP3 DUP5 SUB SLT ISZERO PUSH2 0x5319 JUMPI PUSH1 0x0 DUP1 REVERT JUMPDEST POP MLOAD SWAP2 SWAP1 POP JUMP JUMPDEST PUSH1 0x0 PUSH1 0x20 DUP3 DUP5 SUB SLT ISZERO PUSH2 0x5332 JUMPI PUSH1 0x0 DUP1 REVERT JUMPDEST DUP2 MLOAD PUSH2 0x4F4A DUP2 PUSH2 0x500D JUMP JUMPDEST PUSH2 0xFFFF DUP2 DUP2 AND DUP4 DUP3 AND ADD SWAP1 DUP1 DUP3 GT ISZERO PUSH2 0x5358 JUMPI PUSH2 0x5358 PUSH2 0x52B2 JUMP JUMPDEST POP SWAP3 SWAP2 POP POP JUMP JUMPDEST DUP1 DUP3 MUL DUP2 ISZERO DUP3 DUP3 DIV DUP5 EQ OR PUSH2 0x18AF JUMPI PUSH2 0x18AF PUSH2 0x52B2 JUMP JUMPDEST PUSH32 0x4E487B7100000000000000000000000000000000000000000000000000000000 PUSH1 0x0 MSTORE PUSH1 0x12 PUSH1 0x4 MSTORE PUSH1 0x24 PUSH1 0x0 REVERT JUMPDEST PUSH1 0x0 DUP3 PUSH2 0x53B4 JUMPI PUSH2 0x53B4 PUSH2 0x5376 JUMP JUMPDEST POP DIV SWAP1 JUMP JUMPDEST PUSH1 0x0 PUSH2 0xFFFF DUP1 DUP4 AND DUP2 DUP2 SUB PUSH2 0x53D0 JUMPI PUSH2 0x53D0 PUSH2 0x52B2 JUMP JUMPDEST PUSH1 0x1 ADD SWAP4 SWAP3 POP POP POP JUMP JUMPDEST PUSH32 0x4E487B7100000000000000000000000000000000000000000000000000000000 PUSH1 0x0 MSTORE PUSH1 0x32 PUSH1 0x4 MSTORE PUSH1 0x24 PUSH1 0x0 REVERT JUMPDEST PUSH1 0x0 PUSH1 0xFF DUP3 AND PUSH1 0xFF DUP2 SUB PUSH2 0x541F JUMPI PUSH2 0x541F PUSH2 0x52B2 JUMP JUMPDEST PUSH1 0x1 ADD SWAP3 SWAP2 POP POP JUMP JUMPDEST PUSH1 0x0 DUP3 PUSH2 0x5437 JUMPI PUSH2 0x5437 PUSH2 0x5376 JUMP JUMPDEST POP MOD SWAP1 JUMP JUMPDEST PUSH2 0xFFFF DUP3 DUP2 AND DUP3 DUP3 AND SUB SWAP1 DUP1 DUP3 GT ISZERO PUSH2 0x5358 JUMPI PUSH2 0x5358 PUSH2 0x52B2 JUMP JUMPDEST PUSH1 0x0 PUSH1 0x20 DUP3 DUP5 SUB SLT ISZERO PUSH2 0x5469 JUMPI PUSH1 0x0 DUP1 REVERT JUMPDEST DUP2 MLOAD PUSH2 0x4F4A DUP2 PUSH2 0x4E7C JUMP JUMPDEST PUSH1 0x0 PUSH1 0x0 NOT DUP3 SUB PUSH2 0x5487 JUMPI PUSH2 0x5487 PUSH2 0x52B2 JUMP JUMPDEST POP PUSH1 0x1 ADD SWAP1 JUMP JUMPDEST PUSH1 0x1 DUP2 DUP2 JUMPDEST DUP1 DUP6 GT ISZERO PUSH2 0x54C9 JUMPI DUP2 PUSH1 0x0 NOT DIV DUP3 GT ISZERO PUSH2 0x54AF JUMPI PUSH2 0x54AF PUSH2 0x52B2 JUMP JUMPDEST DUP1 DUP6 AND ISZERO PUSH2 0x54BC JUMPI SWAP2 DUP2 MUL SWAP2 JUMPDEST SWAP4 DUP5 SHR SWAP4 SWAP1 DUP1 MUL SWAP1 PUSH2 0x5493 JUMP JUMPDEST POP SWAP3 POP SWAP3 SWAP1 POP JUMP JUMPDEST PUSH1 0x0 DUP3 PUSH2 0x54E0 JUMPI POP PUSH1 0x1 PUSH2 0x18AF JUMP JUMPDEST DUP2 PUSH2 0x54ED JUMPI POP PUSH1 0x0 PUSH2 0x18AF JUMP JUMPDEST DUP2 PUSH1 0x1 DUP2 EQ PUSH2 0x5503 JUMPI PUSH1 0x2 DUP2 EQ PUSH2 0x550D JUMPI PUSH2 0x5529 JUMP JUMPDEST PUSH1 0x1 SWAP2 POP POP PUSH2 0x18AF JUMP JUMPDEST PUSH1 0xFF DUP5 GT ISZERO PUSH2 0x551E JUMPI PUSH2 0x551E PUSH2 0x52B2 JUMP JUMPDEST POP POP PUSH1 0x1 DUP3 SHL PUSH2 0x18AF JUMP JUMPDEST POP PUSH1 0x20 DUP4 LT PUSH2 0x133 DUP4 LT AND PUSH1 0x4E DUP5 LT PUSH1 0xB DUP5 LT AND OR ISZERO PUSH2 0x554C JUMPI POP DUP2 DUP2 EXP PUSH2 0x18AF JUMP JUMPDEST PUSH2 0x5556 DUP4 DUP4 PUSH2 0x548E JUMP JUMPDEST DUP1 PUSH1 0x0 NOT DIV DUP3 GT ISZERO PUSH2 0x556A JUMPI PUSH2 0x556A PUSH2 0x52B2 JUMP JUMPDEST MUL SWAP4 SWAP3 POP POP POP JUMP JUMPDEST PUSH1 0x0 PUSH2 0x4F4A DUP4 DUP4 PUSH2 0x54D1 JUMP INVALID LOG2 PUSH5 0x6970667358 0x22 SLT KECCAK256 0xAB ISZERO SWAP5 SUB 0xD4 0xD0 PUSH31 0x26ADEE2ECEAC7AEECF120AB2ACE8ABF2F936BD01AD153B8C2364736F6C6343 STOP ADDMOD SLT STOP CALLER "
		},
		"gasEstimates": {
			"creation": {
				"codeDepositCost": "4388000",
				"executionCost": "infinite",
				"totalCost": "infinite"
			},
			"external": {
				"TXCounter()": "2428",
				"_clan()": "2428",
				"adjustTileResources(uint8,uint8,uint8,uint256,bool)": "infinite",
				"baseDefensiveArmorCost()": "8763",
				"baseDefensiveSoldierCost()": "8783",
				"baseDefensiveWeaponCost()": "8807",
				"baseOffensiveArmorCost()": "8740",
				"baseOffensiveSoldierCost()": "8785",
				"baseOffensiveWeaponCost()": "8786",
				"buildingCosts(uint8)": "8993",
				"calcTurn(uint8,uint8)": "infinite",
				"createSoldier(uint8,uint8,uint8,uint256)": "infinite",
				"demolishBuilding(uint8,uint8,uint8,uint8)": "infinite",
				"extraFeeRecipient()": "2470",
				"getAllBuildings(uint8,uint8)": "infinite",
				"getCurrentTimestamp()": "302",
				"getResourceMessageFlag(uint8,uint8)": "infinite",
				"getTileData(uint8,uint8)": "infinite",
				"getTileLastActiveAt(uint8,uint8)": "infinite",
				"getTilePublic(uint8,uint8)": "infinite",
				"getTotalTurnsUsedByTile(uint8,uint8)": "infinite",
				"getTowerCount(uint8,uint8)": "infinite",
				"getTurn(uint8,uint8)": "infinite",
				"hasClanHallAt(uint8,uint8)": "infinite",
				"hasClanHallAtCoord(uint8,uint8)": "infinite",
				"hasMarketAt(uint8,uint8)": "infinite",
				"hasMarketAtCoord(uint8,uint8)": "infinite",
				"interiorMapSize()": "271",
				"isUseTurnsPaused()": "2393",
				"lopBalance()": "infinite",
				"lopToken()": "2451",
				"marketplaceAddress()": "2426",
				"owner()": "2449",
				"pauseUseTurns()": "28710",
				"placeBuilding(uint8,uint8,uint8,uint8,uint8)": "infinite",
				"pointsByCoords(uint8,uint8)": "infinite",
				"produceArmor(uint8,uint8,uint8,uint256)": "infinite",
				"produceWeapon(uint8,uint8,uint8,uint256)": "infinite",
				"recalculatePointsAfterAttack(uint8,uint8)": "infinite",
				"resourceMessage(uint8,uint8)": "infinite",
				"rewardUnit()": "2408",
				"rewardsStart()": "2384",
				"setClanAddress(address)": "28917",
				"setExtraFeeReceiver(address)": "28896",
				"setMarketAddress(address)": "28959",
				"setResourceMessageFlag(uint8,uint8,bool)": "infinite",
				"setSwitch(bool)": "26808",
				"switcher()": "2404",
				"tileMapPhaser()": "2449",
				"totalTurnsUsedByTile(uint8,uint8)": "infinite",
				"turnFeeWei()": "2364",
				"turnsPerLevel()": "306",
				"unpauseUseTurns()": "28704",
				"upgradeTech(uint8,uint8,uint8)": "infinite",
				"useTurns(uint16,uint8,uint8)": "infinite",
				"withdrawAllLop()": "infinite"
			},
			"internal": {
				"_calcTurn(uint8,uint8)": "infinite",
				"_currentYearIndex()": "6516",
				"_distributeNativeFee(uint256,address)": "infinite",
				"_initializeBuildingCosts()": "infinite",
				"_isValidBuilding(uint8)": "77",
				"_recalculatePoints(struct TheLand.TileData storage pointer,uint8,uint8)": "infinite",
				"_rewardMultiplier()": "infinite",
				"_setResourceMessageFlag(uint8,uint8,bool)": "infinite",
				"_top3Owners()": "infinite",
				"applyProductionCost(uint8,uint8,struct TheLand.Resources memory,uint256,uint256)": "infinite",
				"countBuildings(uint8,uint8,uint8)": "infinite"
			}
		},
		"methodIdentifiers": {
			"TXCounter()": "de8ca33a",
			"_clan()": "7cca26d9",
			"adjustTileResources(uint8,uint8,uint8,uint256,bool)": "3e5f2857",
			"baseDefensiveArmorCost()": "8c87fa4f",
			"baseDefensiveSoldierCost()": "f9c64454",
			"baseDefensiveWeaponCost()": "537e8f49",
			"baseOffensiveArmorCost()": "620a9a99",
			"baseOffensiveSoldierCost()": "a596b645",
			"baseOffensiveWeaponCost()": "800bfa27",
			"buildingCosts(uint8)": "c1712d57",
			"calcTurn(uint8,uint8)": "dd4b466b",
			"createSoldier(uint8,uint8,uint8,uint256)": "f89d7571",
			"demolishBuilding(uint8,uint8,uint8,uint8)": "60b76b52",
			"extraFeeRecipient()": "7502bad4",
			"getAllBuildings(uint8,uint8)": "be9a263c",
			"getCurrentTimestamp()": "6c9230db",
			"getResourceMessageFlag(uint8,uint8)": "9c54e471",
			"getTileData(uint8,uint8)": "bd638378",
			"getTileLastActiveAt(uint8,uint8)": "4173f9e9",
			"getTilePublic(uint8,uint8)": "d836d447",
			"getTotalTurnsUsedByTile(uint8,uint8)": "41ede44f",
			"getTowerCount(uint8,uint8)": "2a490ae8",
			"getTurn(uint8,uint8)": "f3245254",
			"hasClanHallAt(uint8,uint8)": "33b95ee0",
			"hasClanHallAtCoord(uint8,uint8)": "1acc55ea",
			"hasMarketAt(uint8,uint8)": "02cd77e6",
			"hasMarketAtCoord(uint8,uint8)": "4855735c",
			"interiorMapSize()": "decc1bbf",
			"isUseTurnsPaused()": "e9d60a10",
			"lopBalance()": "42eaa7c8",
			"lopToken()": "0d67f59e",
			"marketplaceAddress()": "daa17f49",
			"owner()": "8da5cb5b",
			"pauseUseTurns()": "562aafb6",
			"placeBuilding(uint8,uint8,uint8,uint8,uint8)": "0ee22f31",
			"pointsByCoords(uint8,uint8)": "2ef78865",
			"produceArmor(uint8,uint8,uint8,uint256)": "07722bc2",
			"produceWeapon(uint8,uint8,uint8,uint256)": "4274b164",
			"recalculatePointsAfterAttack(uint8,uint8)": "7659bc60",
			"resourceMessage(uint8,uint8)": "ccd5e491",
			"rewardUnit()": "428967da",
			"rewardsStart()": "65af3a2f",
			"setClanAddress(address)": "5d219d5f",
			"setExtraFeeReceiver(address)": "0df7b41a",
			"setMarketAddress(address)": "fae92612",
			"setResourceMessageFlag(uint8,uint8,bool)": "9a4a2084",
			"setSwitch(bool)": "97cefc4c",
			"switcher()": "bc4462de",
			"tileMapPhaser()": "4f264b03",
			"totalTurnsUsedByTile(uint8,uint8)": "887aca72",
			"turnFeeWei()": "21b74ea7",
			"turnsPerLevel()": "bdc7da8e",
			"unpauseUseTurns()": "c14448cd",
			"upgradeTech(uint8,uint8,uint8)": "351662e4",
			"useTurns(uint16,uint8,uint8)": "e9dd6583",
			"withdrawAllLop()": "15e91b48"
		}
	},
	"abi": [
		{
			"inputs": [
				{
					"internalType": "address",
					"name": "_tileMapPhaser",
					"type": "address"
				},
				{
					"internalType": "address",
					"name": "_lopToken",
					"type": "address"
				},
				{
					"internalType": "address",
					"name": "_switcher",
					"type": "address"
				}
			],
			"stateMutability": "nonpayable",
			"type": "constructor"
		},
		{
			"inputs": [],
			"name": "BadFee",
			"type": "error"
		},
		{
			"inputs": [],
			"name": "InvalidBuildingType",
			"type": "error"
		},
		{
			"inputs": [],
			"name": "InvalidCoord",
			"type": "error"
		},
		{
			"inputs": [],
			"name": "NotMarketplace",
			"type": "error"
		},
		{
			"inputs": [],
			"name": "NotOwner",
			"type": "error"
		},
		{
			"inputs": [],
			"name": "NotOwnerOrMarketplace",
			"type": "error"
		},
		{
			"inputs": [],
			"name": "NotSwitcher",
			"type": "error"
		},
		{
			"inputs": [],
			"name": "ZeroAddress",
			"type": "error"
		},
		{
			"inputs": [],
			"name": "ZeroAmount",
			"type": "error"
		},
		{
			"anonymous": false,
			"inputs": [
				{
					"indexed": false,
					"internalType": "address",
					"name": "recipient",
					"type": "address"
				},
				{
					"indexed": false,
					"internalType": "uint256",
					"name": "amount",
					"type": "uint256"
				},
				{
					"indexed": false,
					"internalType": "bool",
					"name": "success",
					"type": "bool"
				}
			],
			"name": "RemainderSent",
			"type": "event"
		},
		{
			"anonymous": false,
			"inputs": [
				{
					"indexed": true,
					"internalType": "address",
					"name": "user",
					"type": "address"
				},
				{
					"indexed": false,
					"internalType": "uint256",
					"name": "turnsUsed",
					"type": "uint256"
				},
				{
					"indexed": false,
					"internalType": "uint8",
					"name": "x",
					"type": "uint8"
				},
				{
					"indexed": false,
					"internalType": "uint8",
					"name": "y",
					"type": "uint8"
				}
			],
			"name": "TurnsUsed",
			"type": "event"
		},
		{
			"inputs": [],
			"name": "TXCounter",
			"outputs": [
				{
					"internalType": "uint256",
					"name": "",
					"type": "uint256"
				}
			],
			"stateMutability": "view",
			"type": "function"
		},
		{
			"inputs": [],
			"name": "_clan",
			"outputs": [
				{
					"internalType": "contract IClan",
					"name": "",
					"type": "address"
				}
			],
			"stateMutability": "view",
			"type": "function"
		},
		{
			"inputs": [
				{
					"internalType": "uint8",
					"name": "x",
					"type": "uint8"
				},
				{
					"internalType": "uint8",
					"name": "y",
					"type": "uint8"
				},
				{
					"internalType": "uint8",
					"name": "resourceType",
					"type": "uint8"
				},
				{
					"internalType": "uint256",
					"name": "amount",
					"type": "uint256"
				},
				{
					"internalType": "bool",
					"name": "isAdding",
					"type": "bool"
				}
			],
			"name": "adjustTileResources",
			"outputs": [],
			"stateMutability": "nonpayable",
			"type": "function"
		},
		{
			"inputs": [],
			"name": "baseDefensiveArmorCost",
			"outputs": [
				{
					"internalType": "uint256",
					"name": "food",
					"type": "uint256"
				},
				{
					"internalType": "uint256",
					"name": "wood",
					"type": "uint256"
				},
				{
					"internalType": "uint256",
					"name": "stone",
					"type": "uint256"
				},
				{
					"internalType": "uint256",
					"name": "iron",
					"type": "uint256"
				}
			],
			"stateMutability": "view",
			"type": "function"
		},
		{
			"inputs": [],
			"name": "baseDefensiveSoldierCost",
			"outputs": [
				{
					"internalType": "uint256",
					"name": "food",
					"type": "uint256"
				},
				{
					"internalType": "uint256",
					"name": "wood",
					"type": "uint256"
				},
				{
					"internalType": "uint256",
					"name": "stone",
					"type": "uint256"
				},
				{
					"internalType": "uint256",
					"name": "iron",
					"type": "uint256"
				}
			],
			"stateMutability": "view",
			"type": "function"
		},
		{
			"inputs": [],
			"name": "baseDefensiveWeaponCost",
			"outputs": [
				{
					"internalType": "uint256",
					"name": "food",
					"type": "uint256"
				},
				{
					"internalType": "uint256",
					"name": "wood",
					"type": "uint256"
				},
				{
					"internalType": "uint256",
					"name": "stone",
					"type": "uint256"
				},
				{
					"internalType": "uint256",
					"name": "iron",
					"type": "uint256"
				}
			],
			"stateMutability": "view",
			"type": "function"
		},
		{
			"inputs": [],
			"name": "baseOffensiveArmorCost",
			"outputs": [
				{
					"internalType": "uint256",
					"name": "food",
					"type": "uint256"
				},
				{
					"internalType": "uint256",
					"name": "wood",
					"type": "uint256"
				},
				{
					"internalType": "uint256",
					"name": "stone",
					"type": "uint256"
				},
				{
					"internalType": "uint256",
					"name": "iron",
					"type": "uint256"
				}
			],
			"stateMutability": "view",
			"type": "function"
		},
		{
			"inputs": [],
			"name": "baseOffensiveSoldierCost",
			"outputs": [
				{
					"internalType": "uint256",
					"name": "food",
					"type": "uint256"
				},
				{
					"internalType": "uint256",
					"name": "wood",
					"type": "uint256"
				},
				{
					"internalType": "uint256",
					"name": "stone",
					"type": "uint256"
				},
				{
					"internalType": "uint256",
					"name": "iron",
					"type": "uint256"
				}
			],
			"stateMutability": "view",
			"type": "function"
		},
		{
			"inputs": [],
			"name": "baseOffensiveWeaponCost",
			"outputs": [
				{
					"internalType": "uint256",
					"name": "food",
					"type": "uint256"
				},
				{
					"internalType": "uint256",
					"name": "wood",
					"type": "uint256"
				},
				{
					"internalType": "uint256",
					"name": "stone",
					"type": "uint256"
				},
				{
					"internalType": "uint256",
					"name": "iron",
					"type": "uint256"
				}
			],
			"stateMutability": "view",
			"type": "function"
		},
		{
			"inputs": [
				{
					"internalType": "uint8",
					"name": "",
					"type": "uint8"
				}
			],
			"name": "buildingCosts",
			"outputs": [
				{
					"internalType": "uint256",
					"name": "food",
					"type": "uint256"
				},
				{
					"internalType": "uint256",
					"name": "wood",
					"type": "uint256"
				},
				{
					"internalType": "uint256",
					"name": "stone",
					"type": "uint256"
				},
				{
					"internalType": "uint256",
					"name": "iron",
					"type": "uint256"
				}
			],
			"stateMutability": "view",
			"type": "function"
		},
		{
			"inputs": [
				{
					"internalType": "uint8",
					"name": "mainX",
					"type": "uint8"
				},
				{
					"internalType": "uint8",
					"name": "mainY",
					"type": "uint8"
				}
			],
			"name": "calcTurn",
			"outputs": [],
			"stateMutability": "nonpayable",
			"type": "function"
		},
		{
			"inputs": [
				{
					"internalType": "uint8",
					"name": "mainX",
					"type": "uint8"
				},
				{
					"internalType": "uint8",
					"name": "mainY",
					"type": "uint8"
				},
				{
					"internalType": "uint8",
					"name": "soldierType",
					"type": "uint8"
				},
				{
					"internalType": "uint256",
					"name": "quantity",
					"type": "uint256"
				}
			],
			"name": "createSoldier",
			"outputs": [],
			"stateMutability": "nonpayable",
			"type": "function"
		},
		{
			"inputs": [
				{
					"internalType": "uint8",
					"name": "mainX",
					"type": "uint8"
				},
				{
					"internalType": "uint8",
					"name": "mainY",
					"type": "uint8"
				},
				{
					"internalType": "uint8",
					"name": "interiorX",
					"type": "uint8"
				},
				{
					"internalType": "uint8",
					"name": "interiorY",
					"type": "uint8"
				}
			],
			"name": "demolishBuilding",
			"outputs": [],
			"stateMutability": "nonpayable",
			"type": "function"
		},
		{
			"inputs": [],
			"name": "extraFeeRecipient",
			"outputs": [
				{
					"internalType": "address",
					"name": "",
					"type": "address"
				}
			],
			"stateMutability": "view",
			"type": "function"
		},
		{
			"inputs": [
				{
					"internalType": "uint8",
					"name": "mainX",
					"type": "uint8"
				},
				{
					"internalType": "uint8",
					"name": "mainY",
					"type": "uint8"
				}
			],
			"name": "getAllBuildings",
			"outputs": [
				{
					"internalType": "uint8[9][9]",
					"name": "",
					"type": "uint8[9][9]"
				}
			],
			"stateMutability": "view",
			"type": "function"
		},
		{
			"inputs": [],
			"name": "getCurrentTimestamp",
			"outputs": [
				{
					"internalType": "uint256",
					"name": "",
					"type": "uint256"
				}
			],
			"stateMutability": "view",
			"type": "function"
		},
		{
			"inputs": [
				{
					"internalType": "uint8",
					"name": "x",
					"type": "uint8"
				},
				{
					"internalType": "uint8",
					"name": "y",
					"type": "uint8"
				}
			],
			"name": "getResourceMessageFlag",
			"outputs": [
				{
					"internalType": "bool",
					"name": "",
					"type": "bool"
				}
			],
			"stateMutability": "view",
			"type": "function"
		},
		{
			"inputs": [
				{
					"internalType": "uint8",
					"name": "x",
					"type": "uint8"
				},
				{
					"internalType": "uint8",
					"name": "y",
					"type": "uint8"
				}
			],
			"name": "getTileData",
			"outputs": [
				{
					"components": [
						{
							"internalType": "uint256",
							"name": "food",
							"type": "uint256"
						},
						{
							"internalType": "uint256",
							"name": "wood",
							"type": "uint256"
						},
						{
							"internalType": "uint256",
							"name": "stone",
							"type": "uint256"
						},
						{
							"internalType": "uint256",
							"name": "iron",
							"type": "uint256"
						},
						{
							"internalType": "uint16",
							"name": "level",
							"type": "uint16"
						},
						{
							"internalType": "uint256",
							"name": "accumulatedTurns",
							"type": "uint256"
						},
						{
							"internalType": "uint256",
							"name": "offensiveArmor",
							"type": "uint256"
						},
						{
							"internalType": "uint256",
							"name": "defensiveArmor",
							"type": "uint256"
						},
						{
							"internalType": "uint256",
							"name": "offensiveWeapon",
							"type": "uint256"
						},
						{
							"internalType": "uint256",
							"name": "defensiveWeapon",
							"type": "uint256"
						},
						{
							"internalType": "uint256",
							"name": "offensiveSoldier",
							"type": "uint256"
						},
						{
							"internalType": "uint256",
							"name": "defensiveSoldier",
							"type": "uint256"
						},
						{
							"internalType": "uint16",
							"name": "offensiveTech",
							"type": "uint16"
						},
						{
							"internalType": "uint16",
							"name": "defensiveTech",
							"type": "uint16"
						},
						{
							"internalType": "uint256",
							"name": "points",
							"type": "uint256"
						}
					],
					"internalType": "struct TheLand.TileDataResponse",
					"name": "",
					"type": "tuple"
				}
			],
			"stateMutability": "view",
			"type": "function"
		},
		{
			"inputs": [
				{
					"internalType": "uint8",
					"name": "x",
					"type": "uint8"
				},
				{
					"internalType": "uint8",
					"name": "y",
					"type": "uint8"
				}
			],
			"name": "getTileLastActiveAt",
			"outputs": [
				{
					"internalType": "uint256",
					"name": "",
					"type": "uint256"
				}
			],
			"stateMutability": "view",
			"type": "function"
		},
		{
			"inputs": [
				{
					"internalType": "uint8",
					"name": "x",
					"type": "uint8"
				},
				{
					"internalType": "uint8",
					"name": "y",
					"type": "uint8"
				}
			],
			"name": "getTilePublic",
			"outputs": [
				{
					"components": [
						{
							"internalType": "uint16",
							"name": "level",
							"type": "uint16"
						},
						{
							"internalType": "uint256",
							"name": "points",
							"type": "uint256"
						}
					],
					"internalType": "struct TheLand.TilePublicResponse",
					"name": "",
					"type": "tuple"
				}
			],
			"stateMutability": "view",
			"type": "function"
		},
		{
			"inputs": [
				{
					"internalType": "uint8",
					"name": "x",
					"type": "uint8"
				},
				{
					"internalType": "uint8",
					"name": "y",
					"type": "uint8"
				}
			],
			"name": "getTotalTurnsUsedByTile",
			"outputs": [
				{
					"internalType": "uint256",
					"name": "",
					"type": "uint256"
				}
			],
			"stateMutability": "view",
			"type": "function"
		},
		{
			"inputs": [
				{
					"internalType": "uint8",
					"name": "mainX",
					"type": "uint8"
				},
				{
					"internalType": "uint8",
					"name": "mainY",
					"type": "uint8"
				}
			],
			"name": "getTowerCount",
			"outputs": [
				{
					"internalType": "uint256",
					"name": "",
					"type": "uint256"
				}
			],
			"stateMutability": "view",
			"type": "function"
		},
		{
			"inputs": [
				{
					"internalType": "uint8",
					"name": "mainX",
					"type": "uint8"
				},
				{
					"internalType": "uint8",
					"name": "mainY",
					"type": "uint8"
				}
			],
			"name": "getTurn",
			"outputs": [
				{
					"internalType": "uint256",
					"name": "",
					"type": "uint256"
				}
			],
			"stateMutability": "view",
			"type": "function"
		},
		{
			"inputs": [
				{
					"internalType": "uint8",
					"name": "",
					"type": "uint8"
				},
				{
					"internalType": "uint8",
					"name": "",
					"type": "uint8"
				}
			],
			"name": "hasClanHallAt",
			"outputs": [
				{
					"internalType": "bool",
					"name": "",
					"type": "bool"
				}
			],
			"stateMutability": "view",
			"type": "function"
		},
		{
			"inputs": [
				{
					"internalType": "uint8",
					"name": "x",
					"type": "uint8"
				},
				{
					"internalType": "uint8",
					"name": "y",
					"type": "uint8"
				}
			],
			"name": "hasClanHallAtCoord",
			"outputs": [
				{
					"internalType": "bool",
					"name": "",
					"type": "bool"
				}
			],
			"stateMutability": "view",
			"type": "function"
		},
		{
			"inputs": [
				{
					"internalType": "uint8",
					"name": "",
					"type": "uint8"
				},
				{
					"internalType": "uint8",
					"name": "",
					"type": "uint8"
				}
			],
			"name": "hasMarketAt",
			"outputs": [
				{
					"internalType": "bool",
					"name": "",
					"type": "bool"
				}
			],
			"stateMutability": "view",
			"type": "function"
		},
		{
			"inputs": [
				{
					"internalType": "uint8",
					"name": "x",
					"type": "uint8"
				},
				{
					"internalType": "uint8",
					"name": "y",
					"type": "uint8"
				}
			],
			"name": "hasMarketAtCoord",
			"outputs": [
				{
					"internalType": "bool",
					"name": "",
					"type": "bool"
				}
			],
			"stateMutability": "view",
			"type": "function"
		},
		{
			"inputs": [],
			"name": "interiorMapSize",
			"outputs": [
				{
					"internalType": "uint8",
					"name": "",
					"type": "uint8"
				}
			],
			"stateMutability": "view",
			"type": "function"
		},
		{
			"inputs": [],
			"name": "isUseTurnsPaused",
			"outputs": [
				{
					"internalType": "bool",
					"name": "",
					"type": "bool"
				}
			],
			"stateMutability": "view",
			"type": "function"
		},
		{
			"inputs": [],
			"name": "lopBalance",
			"outputs": [
				{
					"internalType": "uint256",
					"name": "",
					"type": "uint256"
				}
			],
			"stateMutability": "view",
			"type": "function"
		},
		{
			"inputs": [],
			"name": "lopToken",
			"outputs": [
				{
					"internalType": "contract IHarmLop",
					"name": "",
					"type": "address"
				}
			],
			"stateMutability": "view",
			"type": "function"
		},
		{
			"inputs": [],
			"name": "marketplaceAddress",
			"outputs": [
				{
					"internalType": "address",
					"name": "",
					"type": "address"
				}
			],
			"stateMutability": "view",
			"type": "function"
		},
		{
			"inputs": [],
			"name": "owner",
			"outputs": [
				{
					"internalType": "address",
					"name": "",
					"type": "address"
				}
			],
			"stateMutability": "view",
			"type": "function"
		},
		{
			"inputs": [],
			"name": "pauseUseTurns",
			"outputs": [],
			"stateMutability": "nonpayable",
			"type": "function"
		},
		{
			"inputs": [
				{
					"internalType": "uint8",
					"name": "mainX",
					"type": "uint8"
				},
				{
					"internalType": "uint8",
					"name": "mainY",
					"type": "uint8"
				},
				{
					"internalType": "uint8",
					"name": "interiorX",
					"type": "uint8"
				},
				{
					"internalType": "uint8",
					"name": "interiorY",
					"type": "uint8"
				},
				{
					"internalType": "uint8",
					"name": "buildingType",
					"type": "uint8"
				}
			],
			"name": "placeBuilding",
			"outputs": [],
			"stateMutability": "nonpayable",
			"type": "function"
		},
		{
			"inputs": [
				{
					"internalType": "uint8",
					"name": "",
					"type": "uint8"
				},
				{
					"internalType": "uint8",
					"name": "",
					"type": "uint8"
				}
			],
			"name": "pointsByCoords",
			"outputs": [
				{
					"internalType": "uint256",
					"name": "",
					"type": "uint256"
				}
			],
			"stateMutability": "view",
			"type": "function"
		},
		{
			"inputs": [
				{
					"internalType": "uint8",
					"name": "mainX",
					"type": "uint8"
				},
				{
					"internalType": "uint8",
					"name": "mainY",
					"type": "uint8"
				},
				{
					"internalType": "uint8",
					"name": "armorType",
					"type": "uint8"
				},
				{
					"internalType": "uint256",
					"name": "quantity",
					"type": "uint256"
				}
			],
			"name": "produceArmor",
			"outputs": [],
			"stateMutability": "nonpayable",
			"type": "function"
		},
		{
			"inputs": [
				{
					"internalType": "uint8",
					"name": "mainX",
					"type": "uint8"
				},
				{
					"internalType": "uint8",
					"name": "mainY",
					"type": "uint8"
				},
				{
					"internalType": "uint8",
					"name": "weaponType",
					"type": "uint8"
				},
				{
					"internalType": "uint256",
					"name": "quantity",
					"type": "uint256"
				}
			],
			"name": "produceWeapon",
			"outputs": [],
			"stateMutability": "nonpayable",
			"type": "function"
		},
		{
			"inputs": [
				{
					"internalType": "uint8",
					"name": "x",
					"type": "uint8"
				},
				{
					"internalType": "uint8",
					"name": "y",
					"type": "uint8"
				}
			],
			"name": "recalculatePointsAfterAttack",
			"outputs": [],
			"stateMutability": "nonpayable",
			"type": "function"
		},
		{
			"inputs": [
				{
					"internalType": "uint8",
					"name": "",
					"type": "uint8"
				},
				{
					"internalType": "uint8",
					"name": "",
					"type": "uint8"
				}
			],
			"name": "resourceMessage",
			"outputs": [
				{
					"internalType": "bool",
					"name": "",
					"type": "bool"
				}
			],
			"stateMutability": "view",
			"type": "function"
		},
		{
			"inputs": [],
			"name": "rewardUnit",
			"outputs": [
				{
					"internalType": "uint256",
					"name": "",
					"type": "uint256"
				}
			],
			"stateMutability": "view",
			"type": "function"
		},
		{
			"inputs": [],
			"name": "rewardsStart",
			"outputs": [
				{
					"internalType": "uint256",
					"name": "",
					"type": "uint256"
				}
			],
			"stateMutability": "view",
			"type": "function"
		},
		{
			"inputs": [
				{
					"internalType": "address",
					"name": "_clanAddress",
					"type": "address"
				}
			],
			"name": "setClanAddress",
			"outputs": [],
			"stateMutability": "nonpayable",
			"type": "function"
		},
		{
			"inputs": [
				{
					"internalType": "address",
					"name": "_address",
					"type": "address"
				}
			],
			"name": "setExtraFeeReceiver",
			"outputs": [],
			"stateMutability": "nonpayable",
			"type": "function"
		},
		{
			"inputs": [
				{
					"internalType": "address",
					"name": "_market",
					"type": "address"
				}
			],
			"name": "setMarketAddress",
			"outputs": [],
			"stateMutability": "nonpayable",
			"type": "function"
		},
		{
			"inputs": [
				{
					"internalType": "uint8",
					"name": "x",
					"type": "uint8"
				},
				{
					"internalType": "uint8",
					"name": "y",
					"type": "uint8"
				},
				{
					"internalType": "bool",
					"name": "value",
					"type": "bool"
				}
			],
			"name": "setResourceMessageFlag",
			"outputs": [],
			"stateMutability": "nonpayable",
			"type": "function"
		},
		{
			"inputs": [
				{
					"internalType": "bool",
					"name": "kilit",
					"type": "bool"
				}
			],
			"name": "setSwitch",
			"outputs": [],
			"stateMutability": "nonpayable",
			"type": "function"
		},
		{
			"inputs": [],
			"name": "switcher",
			"outputs": [
				{
					"internalType": "address",
					"name": "",
					"type": "address"
				}
			],
			"stateMutability": "view",
			"type": "function"
		},
		{
			"inputs": [],
			"name": "tileMapPhaser",
			"outputs": [
				{
					"internalType": "contract ITileMapPhaser",
					"name": "",
					"type": "address"
				}
			],
			"stateMutability": "view",
			"type": "function"
		},
		{
			"inputs": [
				{
					"internalType": "uint8",
					"name": "",
					"type": "uint8"
				},
				{
					"internalType": "uint8",
					"name": "",
					"type": "uint8"
				}
			],
			"name": "totalTurnsUsedByTile",
			"outputs": [
				{
					"internalType": "uint256",
					"name": "",
					"type": "uint256"
				}
			],
			"stateMutability": "view",
			"type": "function"
		},
		{
			"inputs": [],
			"name": "turnFeeWei",
			"outputs": [
				{
					"internalType": "uint256",
					"name": "",
					"type": "uint256"
				}
			],
			"stateMutability": "view",
			"type": "function"
		},
		{
			"inputs": [],
			"name": "turnsPerLevel",
			"outputs": [
				{
					"internalType": "uint256",
					"name": "",
					"type": "uint256"
				}
			],
			"stateMutability": "view",
			"type": "function"
		},
		{
			"inputs": [],
			"name": "unpauseUseTurns",
			"outputs": [],
			"stateMutability": "nonpayable",
			"type": "function"
		},
		{
			"inputs": [
				{
					"internalType": "uint8",
					"name": "x",
					"type": "uint8"
				},
				{
					"internalType": "uint8",
					"name": "y",
					"type": "uint8"
				},
				{
					"internalType": "uint8",
					"name": "techType",
					"type": "uint8"
				}
			],
			"name": "upgradeTech",
			"outputs": [],
			"stateMutability": "nonpayable",
			"type": "function"
		},
		{
			"inputs": [
				{
					"internalType": "uint16",
					"name": "turns",
					"type": "uint16"
				},
				{
					"internalType": "uint8",
					"name": "x",
					"type": "uint8"
				},
				{
					"internalType": "uint8",
					"name": "y",
					"type": "uint8"
				}
			],
			"name": "useTurns",
			"outputs": [],
			"stateMutability": "payable",
			"type": "function"
		},
		{
			"inputs": [],
			"name": "withdrawAllLop",
			"outputs": [],
			"stateMutability": "nonpayable",
			"type": "function"
		}
	]
}