{
	"data": {
		"bytecode": {
			"linkReferences": {},
			"object": "6078608081905260a0819052606460c081905260b460e08190526009839055600a839055600b829055600c8190556096610100819052610120819052610140839052610190610160819052600d829055600e829055600f84905560108190556101808590526101a08390526101c084905261012c6101e0819052601195909555601292909255601383905560149390935561020083905260c861022081905261024083905260fa6102608190526015859055601682905560178490556018556102808290526102a08190526102c08490526102e08390526019829055601a819055601b849055601c839055610380604052610300829052610320819052610340849052610360839052601d91909155601e55601f919091556020553480156200012757600080fd5b506040516200458e3803806200458e8339810160408190526200014a9162000760565b600080546001600160a01b0319166001600160a01b03831617815560408051608080820183526104d8808352610c8060208085019182526105a0858701908152610370606080880182815260018b52602380865298517fb361aea33a0348d043deace4a562cb920ac10508397ad80f12dfe9a2a063e0475594517fb361aea33a0348d043deace4a562cb920ac10508397ad80f12dfe9a2a063e0485591517fb361aea33a0348d043deace4a562cb920ac10508397ad80f12dfe9a2a063e0495592517fb361aea33a0348d043deace4a562cb920ac10508397ad80f12dfe9a2a063e04a5586518086018852610514808252610bb8828501908152828a0191825261038483850190815260028c5289865292517f1bcb44d21c67d5659cdd5f45cd32c6d6c6d33d5044115600c6652ecd87939c0955517f1bcb44d21c67d5659cdd5f45cd32c6d6c6d33d5044115600c6652ecd87939c0a55517f1bcb44d21c67d5659cdd5f45cd32c6d6c6d33d5044115600c6652ecd87939c0b55517f1bcb44d21c67d5659cdd5f45cd32c6d6c6d33d5044115600c6652ecd87939c0c55865180860188526106e081526110688184019081526107a8828a0190815261052883850190815260038c5289865292517fca0574cb82515dd8d8feabc9bfece9b4778855cddef4d6e8f68e64178480ff7e5590517fca0574cb82515dd8d8feabc9bfece9b4778855cddef4d6e8f68e64178480ff7f55517fca0574cb82515dd8d8feabc9bfece9b4778855cddef4d6e8f68e64178480ff8055517fca0574cb82515dd8d8feabc9bfece9b4778855cddef4d6e8f68e64178480ff815586518086018852848152610af08184019081528189019586526103ac82840190815260048b5288855291517f33b8220312bcdd418636a962462731c74cfa4e2d018a461116daf7a4f539e35d55517f33b8220312bcdd418636a962462731c74cfa4e2d018a461116daf7a4f539e35e5593517f33b8220312bcdd418636a962462731c74cfa4e2d018a461116daf7a4f539e35f5592517f33b8220312bcdd418636a962462731c74cfa4e2d018a461116daf7a4f539e360558551808501875261019081526104108183019081526101c282890190815260e683870190815260058b5288855292517f704c3cd83e5804c028f2befbf48b95f696630c4191faa77498f0bcf394fbc1a85590517f704c3cd83e5804c028f2befbf48b95f696630c4191faa77498f0bcf394fbc1a955517f704c3cd83e5804c028f2befbf48b95f696630c4191faa77498f0bcf394fbc1aa55517f704c3cd83e5804c028f2befbf48b95f696630c4191faa77498f0bcf394fbc1ab55855180850187526105b4808252610c3082840190815282890191825282860194855260068a5287845291517fc218e2b733cf67303336f21ce058ad7b82d7ff580c18755103b33fa70179f5f85590517fc218e2b733cf67303336f21ce058ad7b82d7ff580c18755103b33fa70179f5f955517fc218e2b733cf67303336f21ce058ad7b82d7ff580c18755103b33fa70179f5fa5590517fc218e2b733cf67303336f21ce058ad7b82d7ff580c18755103b33fa70179f5fb5584518084018652610adc8152611900818301908152612fa882880190815261092483860190815260078a5287855292517fb62e16a8b5bf89c8318605a3c12168784f33bc0512a65a9c0f2c0ea6ebe350335590517fb62e16a8b5bf89c8318605a3c12168784f33bc0512a65a9c0f2c0ea6ebe3503455517fb62e16a8b5bf89c8318605a3c12168784f33bc0512a65a9c0f2c0ea6ebe3503555517fb62e16a8b5bf89c8318605a3c12168784f33bc0512a65a9c0f2c0ea6ebe3503655845192830185526106908352610e60838201908152610758958401958652610550928401928352600890965292909252517f43a8d743eedbf634542f2d1c3f99f7ad101c7c0bf66c8cf9de364b937bf7df065591517f43a8d743eedbf634542f2d1c3f99f7ad101c7c0bf66c8cf9de364b937bf7df0755517f43a8d743eedbf634542f2d1c3f99f7ad101c7c0bf66c8cf9de364b937bf7df0855517f43a8d743eedbf634542f2d1c3f99f7ad101c7c0bf66c8cf9de364b937bf7df095550600780546001600160a01b0319163317905562000792565b6000602082840312156200077357600080fd5b81516001600160a01b03811681146200078b57600080fd5b9392505050565b613dec80620007a26000396000f3fe608060405234801561001057600080fd5b50600436106102925760003560e01c80638da5cb5b11610160578063ccd5e491116100d8578063e9dd65831161008c578063f89d757111610071578063f89d75711461076e578063f9c6445414610781578063fae926121461079757600080fd5b8063e9dd658314610748578063f32452541461075b57600080fd5b8063dd4b466b116100bd578063dd4b466b1461070a578063decc1bbf1461071d578063e3198e081461072557600080fd5b8063ccd5e491146106c9578063daa17f49146106f757600080fd5b8063a596b6451161012f578063bdc7da8e11610114578063bdc7da8e1461066b578063be9a263c14610674578063c1712d571461069457600080fd5b8063a596b64514610635578063bd6383781461064b57600080fd5b80638da5cb5b146104c95780639a4a2084146104dc5780639b562df2146104ef578063a2f9cc5b146105e657600080fd5b8063537e8f491161020e5780637659bc60116101c2578063800bfa27116101a7578063800bfa2714610472578063887aca72146104885780638c87fa4f146104b357600080fd5b80637659bc601461044c5780637cca26d91461045f57600080fd5b80635e75968e116101f35780635e75968e146103f057806360b76b5214610423578063620a9a991461043657600080fd5b8063537e8f49146103a75780635d219d5f146103dd57600080fd5b8063351662e41161026557806341ede44f1161024a57806341ede44f146103365780634274b164146103695780634f264b031461037c57600080fd5b8063351662e4146103105780633e5f28571461032357600080fd5b806307722bc2146102975780630ee22f31146102ac5780632a490ae8146102bf5780632ef78865146102e5575b600080fd5b6102aa6102a5366004613721565b6107aa565b005b6102aa6102ba366004613772565b610a5a565b6102d26102cd3660046137e3565b610fdd565b6040519081526020015b60405180910390f35b6102d26102f33660046137e3565b600560209081526000928352604080842090915290825290205481565b6102aa61031e36600461381c565b610ff4565b6102aa61033136600461387c565b61154a565b6102d26103443660046137e3565b60ff918216600090815260026020908152604080832093909416825291909152205490565b6102aa610377366004613721565b611bde565b60005461038f906001600160a01b031681565b6040516001600160a01b0390911681526020016102dc565b6015546016546017546018546103bd9392919084565b6040805194855260208501939093529183015260608201526080016102dc565b6102aa6103eb3660046138f5565b611e6e565b6104136103fe3660046138f5565b60046020526000908152604090205460ff1681565b60405190151581526020016102dc565b6102aa610431366004613919565b611ee8565b600954600a54600b54600c546103bd9392919084565b6102aa61045a3660046137e3565b61217d565b60015461038f906001600160a01b031681565b6011546012546013546014546103bd9392919084565b6102d26104963660046137e3565b600260209081526000928352604080842090915290825290205481565b600d54600e54600f546010546103bd9392919084565b60075461038f906001600160a01b031681565b6102aa6104ea366004613975565b612206565b6105d26104fd3660046137e3565b60216020908152600092835260408084208252918352918190208151608080820184528254825260018301548286015260028301548285015260038301546060808401919091526004840154600585015460068601546007870154885160c081018a52600889015481526009890154818c0152600a890154818b0152600b89015495810195909552600c88015495850195909552600d87015460a08501528751808901909852600e87015460ff8082168a526101009091041698880198909852600f90950154939661ffff9182169691169388565b6040516102dc9897969594939291906139bc565b6106236105f4366004613919565b602260209081526000948552604080862082529385528385208152918452828420909152825290205460ff1681565b60405160ff90911681526020016102dc565b601954601a54601b54601c546103bd9392919084565b61065e6106593660046137e3565b612294565b6040516102dc9190613a78565b6102d26103e881565b6106876106823660046137e3565b6123ea565b6040516102dc9190613b34565b6103bd6106a2366004613b99565b60236020526000908152604090208054600182015460028301546003909301549192909184565b6104136106d73660046137e3565b600660209081526000928352604080842090915290825290205460ff1681565b60085461038f906001600160a01b031681565b6102aa6107183660046137e3565b612574565b610623600981565b6104136107333660046138f5565b60036020526000908152604090205460ff1681565b6102aa610756366004613bb6565b6126eb565b6102d26107693660046137e3565b612cf2565b6102aa61077c366004613721565b612e97565b601d54601e54601f546020546103bd9392919084565b6102aa6107a53660046138f5565b6132de565b600054604051638a88895360e01b815260ff8087166004830152851660248201528591859133916001600160a01b031690638a88895390604401602060405180830381865afa158015610801573d6000803e3d6000fd5b505050506040513d601f19601f820116820180604052508101906108259190613bdd565b6001600160a01b0316146108665760405162461bcd60e51b815260206004820152600360248201526237bbb760e91b60448201526064015b60405180910390fd5b600083116108b65760405162461bcd60e51b815260206004820152600160248201527f7a00000000000000000000000000000000000000000000000000000000000000604482015260640161085d565b8360ff16600114806108cb57508360ff166002145b6109175760405162461bcd60e51b815260206004820152600160248201527f7400000000000000000000000000000000000000000000000000000000000000604482015260640161085d565b600061092587876001613358565b9050600081116109775760405162461bcd60e51b815260206004820152600160248201527f6100000000000000000000000000000000000000000000000000000000000000604482015260640161085d565b60008560ff1660011461098b57600d61098e565b60095b604080516080810182528254815260018301546020820152600283015491810191909152600390910154606082015290506109cc88888388866133f3565b8560ff16600103610a165760ff8089166000908152602160209081526040808320938b1683529290529081206008018054879290610a0b908490613c29565b90915550610a509050565b60ff8089166000908152602160209081526040808320938b1683529290529081206009018054879290610a4a908490613c29565b90915550505b5050505050505050565b600054604051638a88895360e01b815260ff8088166004830152861660248201528691869133916001600160a01b031690638a88895390604401602060405180830381865afa158015610ab1573d6000803e3d6000fd5b505050506040513d601f19601f82011682018060405250810190610ad59190613bdd565b6001600160a01b031614610b115760405162461bcd60e51b815260206004820152600360248201526237bbb760e91b604482015260640161085d565b8484600960ff8316108015610b295750600960ff8216105b610b755760405162461bcd60e51b815260206004820152600560248201527f636f6f7264000000000000000000000000000000000000000000000000000000604482015260640161085d565b8660ff166004148015610b8b57508560ff166004145b15610bd85760405162461bcd60e51b815260206004820152600160248201527f6300000000000000000000000000000000000000000000000000000000000000604482015260640161085d565b60ff808a1660009081526022602090815260408083208c8516845282528083208b8516845282528083208a85168452909152902054168015610c5c5760405162461bcd60e51b815260206004820152600160248201527f6500000000000000000000000000000000000000000000000000000000000000604482015260640161085d565b8560ff16600303610cdf57610c738a8a6003613358565b15610cc05760405162461bcd60e51b815260206004820152600160248201527f6300000000000000000000000000000000000000000000000000000000000000604482015260640161085d565b336000908152600360205260409020805460ff19166001179055610d5e565b8560ff16600603610d5e57610cf68a8a6006613358565b15610d435760405162461bcd60e51b815260206004820152600160248201527f6d00000000000000000000000000000000000000000000000000000000000000604482015260640161085d565b336000908152600460205260409020805460ff191660011790555b60ff808716600090815260236020908152604080832081516080810183528154815260018201548185015260028201548184015260039091015460608201528e8516845260218352818420948e168452939091529020815181541015610e065760405162461bcd60e51b815260206004820152600160248201527f6600000000000000000000000000000000000000000000000000000000000000604482015260640161085d565b602082015160018201541015610e5e5760405162461bcd60e51b815260206004820152600160248201527f7700000000000000000000000000000000000000000000000000000000000000604482015260640161085d565b604082015160028201541015610eb65760405162461bcd60e51b815260206004820152600160248201527f7300000000000000000000000000000000000000000000000000000000000000604482015260640161085d565b606082015160038201541015610f0e5760405162461bcd60e51b815260206004820152600160248201527f6900000000000000000000000000000000000000000000000000000000000000604482015260640161085d565b815181548290600090610f22908490613c3c565b90915550506020820151600182018054600090610f40908490613c3c565b90915550506040820151600282018054600090610f5e908490613c3c565b90915550506060820151600382018054600090610f7c908490613c3c565b909155505060ff8c811660009081526022602090815260408083208f8516845282528083208e8516845282528083208d851684529091529020805460ff1916918a16919091179055610fcf818d8d613662565b505050505050505050505050565b6000610feb83836007613358565b90505b92915050565b600054604051638a88895360e01b815260ff8086166004830152841660248201528491849133916001600160a01b031690638a88895390604401602060405180830381865afa15801561104b573d6000803e3d6000fd5b505050506040513d601f19601f8201168201806040525081019061106f9190613bdd565b6001600160a01b0316146110ab5760405162461bcd60e51b815260206004820152600360248201526237bbb760e91b604482015260640161085d565b60ff80861660009081526021602090815260408083208885168452909152812091606090861660010361111e575050600e81015460408051808201909152600d81527f6f6666656e736976655465636800000000000000000000000000000000000000602082015260ff909116906111bd565b8560ff16600203611173575050600e81015460408051808201909152600d81527f646566656e736976655465636800000000000000000000000000000000000000602082015261010090910460ff16906111bd565b60405162461bcd60e51b815260040161085d9060208082526004908201527f7479706500000000000000000000000000000000000000000000000000000000604082015260600190565b6127108260ff1611156112125760405162461bcd60e51b815260206004820152600160248201527f6c00000000000000000000000000000000000000000000000000000000000000604482015260640161085d565b600061122089896008613358565b9050600081116112725760405162461bcd60e51b815260206004820152600160248201527f7700000000000000000000000000000000000000000000000000000000000000604482015260640161085d565b600061127f846001613c4f565b61128d9060ff166002613c68565b905060008261129d83608c613c68565b6112a79190613cae565b90506000836112b7846078613c68565b6112c19190613cae565b90506000846112d18560b4613c68565b6112db9190613cae565b90506000856112eb866078613c68565b6112f59190613cae565b89549091508411156113495760405162461bcd60e51b815260206004820152600160248201527f6600000000000000000000000000000000000000000000000000000000000000604482015260640161085d565b600189015483111561139d5760405162461bcd60e51b815260206004820152600160248201527f7700000000000000000000000000000000000000000000000000000000000000604482015260640161085d565b60028901548211156113f15760405162461bcd60e51b815260206004820152600160248201527f7300000000000000000000000000000000000000000000000000000000000000604482015260640161085d565b60038901548111156114455760405162461bcd60e51b815260206004820152600160248201527f6900000000000000000000000000000000000000000000000000000000000000604482015260640161085d565b885484908a90600090611459908490613c3c565b9091555050600189018054849190600090611475908490613c3c565b9091555050600289018054839190600090611491908490613c3c565b90915550506003890180548291906000906114ad908490613c3c565b909155505060ff8c166001036114f057600e8901805460ff169060006114d283613cc2565b91906101000a81548160ff021916908360ff1602179055505061152f565b8b60ff1660020361152f57600e89018054610100900460ff1690600161151583613cc2565b91906101000a81548160ff021916908360ff160217905550505b61153a898f8f613662565b5050505050505050505050505050565b6008546001600160a01b031633146115a45760405162461bcd60e51b815260206004820152600160248201527f6100000000000000000000000000000000000000000000000000000000000000604482015260640161085d565b60ff8086166000908152602160209081526040808320888516845290915290209084166001036116585781156115f3578054839082906000906115e8908490613c29565b90915550611bcb9050565b80548311156116445760405162461bcd60e51b815260206004820152600160248201527f6600000000000000000000000000000000000000000000000000000000000000604482015260640161085d565b8054839082906000906115e8908490613c3c565b8360ff166002036116eb57811561168057828160000160010160008282546115e89190613c29565b60018101548311156116d45760405162461bcd60e51b815260206004820152600160248201527f7700000000000000000000000000000000000000000000000000000000000000604482015260640161085d565b828160000160010160008282546115e89190613c3c565b8360ff1660030361177e57811561171357828160000160020160008282546115e89190613c29565b60028101548311156117675760405162461bcd60e51b815260206004820152600160248201527f7300000000000000000000000000000000000000000000000000000000000000604482015260640161085d565b828160000160020160008282546115e89190613c3c565b8360ff166004036118115781156117a657828160000160030160008282546115e89190613c29565b60038101548311156117fa5760405162461bcd60e51b815260206004820152600160248201527f6900000000000000000000000000000000000000000000000000000000000000604482015260640161085d565b828160000160030160008282546115e89190613c3c565b8360ff166005036118a457811561183957828160080160000160008282546115e89190613c29565b600881015483111561188d5760405162461bcd60e51b815260206004820152600260248201527f6f61000000000000000000000000000000000000000000000000000000000000604482015260640161085d565b828160080160000160008282546115e89190613c3c565b8360ff166006036119375781156118cc57828160080160010160008282546115e89190613c29565b60098101548311156119205760405162461bcd60e51b815260206004820152600260248201527f6461000000000000000000000000000000000000000000000000000000000000604482015260640161085d565b828160080160010160008282546115e89190613c3c565b8360ff166007036119ca57811561195f57828160080160020160008282546115e89190613c29565b600a8101548311156119b35760405162461bcd60e51b815260206004820152600260248201527f6f77000000000000000000000000000000000000000000000000000000000000604482015260640161085d565b828160080160020160008282546115e89190613c3c565b8360ff16600803611a5d5781156119f257828160080160030160008282546115e89190613c29565b600b810154831115611a465760405162461bcd60e51b815260206004820152600260248201527f6477000000000000000000000000000000000000000000000000000000000000604482015260640161085d565b828160080160030160008282546115e89190613c3c565b8360ff16600903611af0578115611a8557828160080160040160008282546115e89190613c29565b600c810154831115611ad95760405162461bcd60e51b815260206004820152600260248201527f6f73000000000000000000000000000000000000000000000000000000000000604482015260640161085d565b828160080160040160008282546115e89190613c3c565b8360ff16600a03611b83578115611b1857828160080160050160008282546115e89190613c29565b600d810154831115611b6c5760405162461bcd60e51b815260206004820152600260248201527f6473000000000000000000000000000000000000000000000000000000000000604482015260640161085d565b828160080160050160008282546115e89190613c3c565b60405162461bcd60e51b815260206004820152600160248201527f7400000000000000000000000000000000000000000000000000000000000000604482015260640161085d565b611bd6818787613662565b505050505050565b600054604051638a88895360e01b815260ff8087166004830152851660248201528591859133916001600160a01b031690638a88895390604401602060405180830381865afa158015611c35573d6000803e3d6000fd5b505050506040513d601f19601f82011682018060405250810190611c599190613bdd565b6001600160a01b031614611c955760405162461bcd60e51b815260206004820152600360248201526237bbb760e91b604482015260640161085d565b60008311611ce55760405162461bcd60e51b815260206004820152600160248201527f7a00000000000000000000000000000000000000000000000000000000000000604482015260640161085d565b8360ff1660011480611cfa57508360ff166002145b611d465760405162461bcd60e51b815260206004820152600160248201527f7400000000000000000000000000000000000000000000000000000000000000604482015260640161085d565b6000611d5487876002613358565b905060008111611da65760405162461bcd60e51b815260206004820152600260248201527f6273000000000000000000000000000000000000000000000000000000000000604482015260640161085d565b60008560ff16600114611dba576015611dbd565b60115b60408051608081018252825481526001830154602082015260028301549181019190915260039091015460608201529050611dfb88888388866133f3565b8560ff16600103611e3a5760ff8089166000908152602160209081526040808320938b168352929052908120600a018054879290610a0b908490613c29565b60ff8089166000908152602160209081526040808320938b168352929052908120600b018054879290610a4a908490613c29565b6007546001600160a01b03163314611eae5760405162461bcd60e51b815260206004820152600360248201526237bbb760e91b604482015260640161085d565b600180547fffffffffffffffffffffffff0000000000000000000000000000000000000000166001600160a01b0392909216919091179055565b600054604051638a88895360e01b815260ff8087166004830152851660248201528591859133916001600160a01b031690638a88895390604401602060405180830381865afa158015611f3f573d6000803e3d6000fd5b505050506040513d601f19601f82011682018060405250810190611f639190613bdd565b6001600160a01b031614611f9f5760405162461bcd60e51b815260206004820152600360248201526237bbb760e91b604482015260640161085d565b8383600960ff8316108015611fb75750600960ff8216105b6120035760405162461bcd60e51b815260206004820152600560248201527f636f6f7264000000000000000000000000000000000000000000000000000000604482015260640161085d565b8560ff16600414801561201957508460ff166004145b156120665760405162461bcd60e51b815260206004820152600160248201527f6300000000000000000000000000000000000000000000000000000000000000604482015260640161085d565b60ff80891660009081526022602090815260408083208b8516845282528083208a8516845282528083208985168452909152812054909116908190036120ee5760405162461bcd60e51b815260206004820152600160248201527f6e00000000000000000000000000000000000000000000000000000000000000604482015260640161085d565b8060ff1660030361211557336000908152600360205260409020805460ff19169055612138565b8060ff1660060361213857336000908152600460205260409020805460ff191690555b50505060ff958616600090815260226020908152604080832097891683529681528682209588168252948552858120939096168652505090529020805460ff19169055565b6008546001600160a01b031633146121d75760405162461bcd60e51b815260206004820152600160248201527f6100000000000000000000000000000000000000000000000000000000000000604482015260640161085d565b60ff8083166000908152602160209081526040808320938516835292905220612201818484613662565b505050565b6008546001600160a01b031633146122605760405162461bcd60e51b815260206004820152600160248201527f6100000000000000000000000000000000000000000000000000000000000000604482015260640161085d565b60ff928316600090815260066020908152604080832094909516825292909252919020805460ff1916911515919091179055565b612317604051806101e0016040528060008152602001600081526020016000815260200160008152602001600061ffff16815260200160008152602001600081526020016000815260200160008152602001600081526020016000815260200160008152602001600060ff168152602001600060ff168152602001600081525090565b5060ff918216600090815260216020908152604080832093851683529281529082902082516101e0810184528154815260018201549281019290925260028101549282019290925260038201546060820152600482015461ffff166080820152600582015460a0820152600882015460c0820152600982015460e0820152600a82015461010080830191909152600b830154610120830152600c830154610140830152600d830154610160830152600e830154808516610180840152049092166101a0830152600f01546101c082015290565b6123f26136c2565b600054604051638a88895360e01b815260ff8086166004830152841660248201528491849133916001600160a01b031690638a88895390604401602060405180830381865afa158015612449573d6000803e3d6000fd5b505050506040513d601f19601f8201168201806040525081019061246d9190613bdd565b6001600160a01b0316146124a95760405162461bcd60e51b815260206004820152600360248201526237bbb760e91b604482015260640161085d565b6124b16136c2565b60005b600960ff821610156125685760005b600960ff821610156125555760ff80891660009081526022602090815260408083208b8516845282528083208685168085529083528184208686168552909252909120549091169084906009811061251d5761251d613ce1565b60200201518260ff166009811061253657612536613ce1565b60ff90921660209290920201528061254d81613cc2565b9150506124c3565b508061256081613cc2565b9150506124b4565b5092505b505092915050565b600054604051638a88895360e01b815260ff8085166004830152831660248201528391839133916001600160a01b031690638a88895390604401602060405180830381865afa1580156125cb573d6000803e3d6000fd5b505050506040513d601f19601f820116820180604052508101906125ef9190613bdd565b6001600160a01b03161461262b5760405162461bcd60e51b815260206004820152600360248201526237bbb760e91b604482015260640161085d565b60ff808516600090815260216020908152604080832093871683529290529081206007015461265a9042613c3c565b61266590603c613c68565b60ff808716600090815260216020908152604080832093891683529290522060060154612696919061ffff16613c29565b905061025881116126a757806126ab565b6102585b60ff95861660009081526021602090815260408083209790981682529590955294909320600601805461ffff191661ffff90951694909417909355505050565b600054604051638a88895360e01b815260ff8085166004830152831660248201528391839133916001600160a01b031690638a88895390604401602060405180830381865afa158015612742573d6000803e3d6000fd5b505050506040513d601f19601f820116820180604052508101906127669190613bdd565b6001600160a01b0316146127a25760405162461bcd60e51b815260206004820152600360248201526237bbb760e91b604482015260640161085d565b60008561ffff16116127f65760405162461bcd60e51b815260206004820152600160248201527f3000000000000000000000000000000000000000000000000000000000000000604482015260640161085d565b6128008484612574565b60ff80851660009081526021602090815260408083209387168352929052206006015461ffff808716911610156128795760405162461bcd60e51b815260206004820152600160248201527f7400000000000000000000000000000000000000000000000000000000000000604482015260640161085d565b60ff8085166000908152602160209081526040808320938716835292905220600501546128a8906103e8613c3c565b8561ffff1611156128e55760ff8085166000908152602160209081526040808320938716835292905220600501546128e2906103e8613c3c565b94505b60ff80851660009081526021602090815260408083209387168352929052206006015461291790869061ffff16613d10565b60ff8581166000908152602160209081526040808320938816835292905290812060068101805461ffff191661ffff94909416939093179092554260079092019190915561296785856005613358565b9050612974600182613c29565b6001546040517f2a2026a900000000000000000000000000000000000000000000000000000000815260ff8089166004830152871660248201529192506000916001600160a01b0390911690632a2026a990604401602060405180830381865afa1580156129e6573d6000803e3d6000fd5b505050506040513d601f19601f82011682018060405250810190612a0a9190613d32565b60ff80881660009081526021602090815260408083208a8516845290915290209192508216600103612a6157612a448361ffff8a16613c68565b81548290600090612a56908490613c29565b90915550612aee9050565b8160ff16600203612a8e57612a7a8361ffff8a16613c68565b600182018054600090612a56908490613c29565b8160ff16600303612abb57612aa78361ffff8a16613c68565b600282018054600090612a56908490613c29565b8160ff16600403612aee57612ad48361ffff8a16613c68565b600382018054600090612ae8908490613c29565b90915550505b612afc8361ffff8a16613c68565b81548290600090612b0e908490613c29565b90915550612b2290508361ffff8a16613c68565b600182018054600090612b36908490613c29565b90915550612b4a90508361ffff8a16613c68565b600282018054600090612b5e908490613c29565b90915550612b7290508361ffff8a16613c68565b600382018054600090612b86908490613c29565b925050819055508761ffff16816005016000828254612ba59190613c29565b90915550506005810154600090612bbf906103e890613cae565b90506103e8826005016000828254612bd79190613d4f565b90915550506004820154600090612bf390839061ffff16613d63565b90506101f48161ffff161115612c195760048301805461ffff19166101f4179055612c2d565b60048301805461ffff191661ffff83161790555b612c38838a8a613662565b60ff808a166000908152600260209081526040808320938c168352929052908120805461ffff8d169290612c6d908490613c29565b909155505060ff808a166000908152600660209081526040808320938c16835292905220805460ff191690556040805161ffff8c16815260ff808c1660208301528a169181019190915233907fbb5b4f7847476e1912e2b57d030b0e491d0d72b2ef256cceea9daa41f40f5d189060600160405180910390a250505050505050505050565b60008054604051638a88895360e01b815260ff8086166004830152841660248201528491849133916001600160a01b031690638a88895390604401602060405180830381865afa158015612d4a573d6000803e3d6000fd5b505050506040513d601f19601f82011682018060405250810190612d6e9190613bdd565b6001600160a01b031614612daa5760405162461bcd60e51b815260206004820152600360248201526237bbb760e91b604482015260640161085d565b60ff80861660009081526021602090815260408083209388168352929052206007015461025890612ddb9042613c3c565b612de690603c613c68565b60ff8088166000908152602160209081526040808320938a1683529290522060060154612e17919061ffff16613c29565b1115612e2757610258925061256c565b60ff808616600090815260216020908152604080832093881683529290522060070154612e549042613c3c565b612e5f90603c613c68565b60ff808716600090815260216020908152604080832093891683529290522060060154612e90919061ffff16613c29565b925061256c565b600054604051638a88895360e01b815260ff8087166004830152851660248201528591859133916001600160a01b031690638a88895390604401602060405180830381865afa158015612eee573d6000803e3d6000fd5b505050506040513d601f19601f82011682018060405250810190612f129190613bdd565b6001600160a01b031614612f4e5760405162461bcd60e51b815260206004820152600360248201526237bbb760e91b604482015260640161085d565b60008311612f9e5760405162461bcd60e51b815260206004820152600160248201527f7a00000000000000000000000000000000000000000000000000000000000000604482015260640161085d565b8360ff1660011480612fb357508360ff166002145b612fff5760405162461bcd60e51b815260206004820152600160248201527f7400000000000000000000000000000000000000000000000000000000000000604482015260640161085d565b600061300d87876004613358565b90506000811161305f5760405162461bcd60e51b815260206004820152600160248201527f7000000000000000000000000000000000000000000000000000000000000000604482015260640161085d565b60008560ff1660011461307357601d613076565b60195b604080516080810182528254815260018301546020820152600283015491810191909152600390910154606082015290506130b488888388866133f3565b60ff80891660009081526021602090815260408083208b8516845290915290206008019087166001036131db5780548611156131325760405162461bcd60e51b815260206004820152600260248201527f6f61000000000000000000000000000000000000000000000000000000000000604482015260640161085d565b85816002015410156131865760405162461bcd60e51b815260206004820152600260248201527f6f77000000000000000000000000000000000000000000000000000000000000604482015260640161085d565b8581600001600082825461319a9190613c3c565b92505081905550858160020160008282546131b59190613c3c565b92505081905550858160040160008282546131d09190613c29565b909155506132d39050565b858160010154101561322f5760405162461bcd60e51b815260206004820152600260248201527f6461000000000000000000000000000000000000000000000000000000000000604482015260640161085d565b85816003015410156132835760405162461bcd60e51b815260206004820152600260248201527f6477000000000000000000000000000000000000000000000000000000000000604482015260640161085d565b858160010160008282546132979190613c3c565b92505081905550858160030160008282546132b29190613c3c565b92505081905550858160050160008282546132cd9190613c29565b90915550505b505050505050505050565b6007546001600160a01b0316331461331e5760405162461bcd60e51b815260206004820152600360248201526237bbb760e91b604482015260640161085d565b600880547fffffffffffffffffffffffff0000000000000000000000000000000000000000166001600160a01b0392909216919091179055565b600080805b600960ff821610156133ea5760005b600960ff821610156133d75760ff87811660009081526022602090815260408083208a8516845282528083208685168452825280832085851684529091529020548187169116036133c557826133c181613d7e565b9350505b806133cf81613cc2565b91505061336c565b50806133e281613cc2565b91505061335d565b50949350505050565b60ff8086166000908152602160209081526040808320938816835292905290812084519091908390613426908690613c68565b6134309190613cae565b90506000838587602001516134459190613c68565b61344f9190613cae565b90506000848688604001516134649190613c68565b61346e9190613cae565b90506000858789606001516134839190613c68565b61348d9190613cae565b85549091508411156134e15760405162461bcd60e51b815260206004820152600160248201527f6600000000000000000000000000000000000000000000000000000000000000604482015260640161085d565b60018501548311156135355760405162461bcd60e51b815260206004820152600160248201527f7700000000000000000000000000000000000000000000000000000000000000604482015260640161085d565b60028501548211156135895760405162461bcd60e51b815260206004820152600160248201527f7300000000000000000000000000000000000000000000000000000000000000604482015260640161085d565b60038501548111156135dd5760405162461bcd60e51b815260206004820152600160248201527f6900000000000000000000000000000000000000000000000000000000000000604482015260640161085d565b8454849086906000906135f1908490613c3c565b909155505060018501805484919060009061360d908490613c3c565b9091555050600285018054839190600090613629908490613c3c565b9091555050600385018054829190600090613645908490613c3c565b909155506136569050858b8b613662565b50505050505050505050565b6003830154600284015460018501548554600093929161368191613c29565b61368b9190613c29565b6136959190613c29565b600f9094018490555060ff9182166000908152600560209081526040808320939094168252919091522055565b6040518061012001604052806009905b6136da6136f0565b8152602001906001900390816136d25790505090565b6040518061012001604052806009906020820280368337509192915050565b60ff8116811461371e57600080fd5b50565b6000806000806080858703121561373757600080fd5b84356137428161370f565b935060208501356137528161370f565b925060408501356137628161370f565b9396929550929360600135925050565b600080600080600060a0868803121561378a57600080fd5b85356137958161370f565b945060208601356137a58161370f565b935060408601356137b58161370f565b925060608601356137c58161370f565b915060808601356137d58161370f565b809150509295509295909350565b600080604083850312156137f657600080fd5b82356138018161370f565b915060208301356138118161370f565b809150509250929050565b60008060006060848603121561383157600080fd5b833561383c8161370f565b9250602084013561384c8161370f565b9150604084013561385c8161370f565b809150509250925092565b8035801515811461387757600080fd5b919050565b600080600080600060a0868803121561389457600080fd5b853561389f8161370f565b945060208601356138af8161370f565b935060408601356138bf8161370f565b9250606086013591506138d460808701613867565b90509295509295909350565b6001600160a01b038116811461371e57600080fd5b60006020828403121561390757600080fd5b8135613912816138e0565b9392505050565b6000806000806080858703121561392f57600080fd5b843561393a8161370f565b9350602085013561394a8161370f565b9250604085013561395a8161370f565b9150606085013561396a8161370f565b939692955090935050565b60008060006060848603121561398a57600080fd5b83356139958161370f565b925060208401356139a58161370f565b91506139b360408501613867565b90509250925092565b6000610220820190508951825260208a0151602083015260408a0151604083015260608a0151606083015261ffff808a1660808401528860a084015280881660c0840152508560e08301528451610100830152602085015161012083015260408501516101408301526060850151610160830152608085015161018083015260a08501516101a0830152613a646101c0830185805160ff908116835260209182015116910152565b826102008301529998505050505050505050565b60006101e082019050825182526020830151602083015260408301516040830152606083015160608301526080830151613ab8608084018261ffff169052565b5060a0838101519083015260c0808401519083015260e0808401519083015261010080840151908301526101208084015190830152610140808401519083015261016080840151908301526101808084015160ff81168285015250506101a08381015160ff81168483015250506101c092830151919092015290565b610a20810181836000805b6009808210613b4e5750613b8f565b835185845b83811015613b7457825160ff16825260209283019290910190600101613b53565b50505061012094909401935060209290920191600101613b3f565b5050505092915050565b600060208284031215613bab57600080fd5b81356139128161370f565b600080600060608486031215613bcb57600080fd5b833561ffff8116811461383c57600080fd5b600060208284031215613bef57600080fd5b8151613912816138e0565b7f4e487b7100000000000000000000000000000000000000000000000000000000600052601160045260246000fd5b80820180821115610fee57610fee613bfa565b81810381811115610fee57610fee613bfa565b60ff8181168382160190811115610fee57610fee613bfa565b8082028115828204841417610fee57610fee613bfa565b7f4e487b7100000000000000000000000000000000000000000000000000000000600052601260045260246000fd5b600082613cbd57613cbd613c7f565b500490565b600060ff821660ff8103613cd857613cd8613bfa565b60010192915050565b7f4e487b7100000000000000000000000000000000000000000000000000000000600052603260045260246000fd5b61ffff828116828216039080821115613d2b57613d2b613bfa565b5092915050565b600060208284031215613d4457600080fd5b81516139128161370f565b600082613d5e57613d5e613c7f565b500690565b61ffff818116838216019080821115613d2b57613d2b613bfa565b60007fffffffffffffffffffffffffffffffffffffffffffffffffffffffffffffffff8203613daf57613daf613bfa565b506001019056fea2646970667358221220083548344fc092989ad447c9518e1166094836f3e7265255d14396556469baf564736f6c63430008120033",
			"opcodes": "PUSH1 0x78 PUSH1 0x80 DUP2 SWAP1 MSTORE PUSH1 0xA0 DUP2 SWAP1 MSTORE PUSH1 0x64 PUSH1 0xC0 DUP2 SWAP1 MSTORE PUSH1 0xB4 PUSH1 0xE0 DUP2 SWAP1 MSTORE PUSH1 0x9 DUP4 SWAP1 SSTORE PUSH1 0xA DUP4 SWAP1 SSTORE PUSH1 0xB DUP3 SWAP1 SSTORE PUSH1 0xC DUP2 SWAP1 SSTORE PUSH1 0x96 PUSH2 0x100 DUP2 SWAP1 MSTORE PUSH2 0x120 DUP2 SWAP1 MSTORE PUSH2 0x140 DUP4 SWAP1 MSTORE PUSH2 0x190 PUSH2 0x160 DUP2 SWAP1 MSTORE PUSH1 0xD DUP3 SWAP1 SSTORE PUSH1 0xE DUP3 SWAP1 SSTORE PUSH1 0xF DUP5 SWAP1 SSTORE PUSH1 0x10 DUP2 SWAP1 SSTORE PUSH2 0x180 DUP6 SWAP1 MSTORE PUSH2 0x1A0 DUP4 SWAP1 MSTORE PUSH2 0x1C0 DUP5 SWAP1 MSTORE PUSH2 0x12C PUSH2 0x1E0 DUP2 SWAP1 MSTORE PUSH1 0x11 SWAP6 SWAP1 SWAP6 SSTORE PUSH1 0x12 SWAP3 SWAP1 SWAP3 SSTORE PUSH1 0x13 DUP4 SWAP1 SSTORE PUSH1 0x14 SWAP4 SWAP1 SWAP4 SSTORE PUSH2 0x200 DUP4 SWAP1 MSTORE PUSH1 0xC8 PUSH2 0x220 DUP2 SWAP1 MSTORE PUSH2 0x240 DUP4 SWAP1 MSTORE PUSH1 0xFA PUSH2 0x260 DUP2 SWAP1 MSTORE PUSH1 0x15 DUP6 SWAP1 SSTORE PUSH1 0x16 DUP3 SWAP1 SSTORE PUSH1 0x17 DUP5 SWAP1 SSTORE PUSH1 0x18 SSTORE PUSH2 0x280 DUP3 SWAP1 MSTORE PUSH2 0x2A0 DUP2 SWAP1 MSTORE PUSH2 0x2C0 DUP5 SWAP1 MSTORE PUSH2 0x2E0 DUP4 SWAP1 MSTORE PUSH1 0x19 DUP3 SWAP1 SSTORE PUSH1 0x1A DUP2 SWAP1 SSTORE PUSH1 0x1B DUP5 SWAP1 SSTORE PUSH1 0x1C DUP4 SWAP1 SSTORE PUSH2 0x380 PUSH1 0x40 MSTORE PUSH2 0x300 DUP3 SWAP1 MSTORE PUSH2 0x320 DUP2 SWAP1 MSTORE PUSH2 0x340 DUP5 SWAP1 MSTORE PUSH2 0x360 DUP4 SWAP1 MSTORE PUSH1 0x1D SWAP2 SWAP1 SWAP2 SSTORE PUSH1 0x1E SSTORE PUSH1 0x1F SWAP2 SWAP1 SWAP2 SSTORE PUSH1 0x20 SSTORE CALLVALUE DUP1 ISZERO PUSH3 0x127 JUMPI PUSH1 0x0 DUP1 REVERT JUMPDEST POP PUSH1 0x40 MLOAD PUSH3 0x458E CODESIZE SUB DUP1 PUSH3 0x458E DUP4 CODECOPY DUP2 ADD PUSH1 0x40 DUP2 SWAP1 MSTORE PUSH3 0x14A SWAP2 PUSH3 0x760 JUMP JUMPDEST PUSH1 0x0 DUP1 SLOAD PUSH1 0x1 PUSH1 0x1 PUSH1 0xA0 SHL SUB NOT AND PUSH1 0x1 PUSH1 0x1 PUSH1 0xA0 SHL SUB DUP4 AND OR DUP2 SSTORE PUSH1 0x40 DUP1 MLOAD PUSH1 0x80 DUP1 DUP3 ADD DUP4 MSTORE PUSH2 0x4D8 DUP1 DUP4 MSTORE PUSH2 0xC80 PUSH1 0x20 DUP1 DUP6 ADD SWAP2 DUP3 MSTORE PUSH2 0x5A0 DUP6 DUP8 ADD SWAP1 DUP2 MSTORE PUSH2 0x370 PUSH1 0x60 DUP1 DUP9 ADD DUP3 DUP2 MSTORE PUSH1 0x1 DUP12 MSTORE PUSH1 0x23 DUP1 DUP7 MSTORE SWAP9 MLOAD PUSH32 0xB361AEA33A0348D043DEACE4A562CB920AC10508397AD80F12DFE9A2A063E047 SSTORE SWAP5 MLOAD PUSH32 0xB361AEA33A0348D043DEACE4A562CB920AC10508397AD80F12DFE9A2A063E048 SSTORE SWAP2 MLOAD PUSH32 0xB361AEA33A0348D043DEACE4A562CB920AC10508397AD80F12DFE9A2A063E049 SSTORE SWAP3 MLOAD PUSH32 0xB361AEA33A0348D043DEACE4A562CB920AC10508397AD80F12DFE9A2A063E04A SSTORE DUP7 MLOAD DUP1 DUP7 ADD DUP9 MSTORE PUSH2 0x514 DUP1 DUP3 MSTORE PUSH2 0xBB8 DUP3 DUP6 ADD SWAP1 DUP2 MSTORE DUP3 DUP11 ADD SWAP2 DUP3 MSTORE PUSH2 0x384 DUP4 DUP6 ADD SWAP1 DUP2 MSTORE PUSH1 0x2 DUP13 MSTORE DUP10 DUP7 MSTORE SWAP3 MLOAD PUSH32 0x1BCB44D21C67D5659CDD5F45CD32C6D6C6D33D5044115600C6652ECD87939C09 SSTORE MLOAD PUSH32 0x1BCB44D21C67D5659CDD5F45CD32C6D6C6D33D5044115600C6652ECD87939C0A SSTORE MLOAD PUSH32 0x1BCB44D21C67D5659CDD5F45CD32C6D6C6D33D5044115600C6652ECD87939C0B SSTORE MLOAD PUSH32 0x1BCB44D21C67D5659CDD5F45CD32C6D6C6D33D5044115600C6652ECD87939C0C SSTORE DUP7 MLOAD DUP1 DUP7 ADD DUP9 MSTORE PUSH2 0x6E0 DUP2 MSTORE PUSH2 0x1068 DUP2 DUP5 ADD SWAP1 DUP2 MSTORE PUSH2 0x7A8 DUP3 DUP11 ADD SWAP1 DUP2 MSTORE PUSH2 0x528 DUP4 DUP6 ADD SWAP1 DUP2 MSTORE PUSH1 0x3 DUP13 MSTORE DUP10 DUP7 MSTORE SWAP3 MLOAD PUSH32 0xCA0574CB82515DD8D8FEABC9BFECE9B4778855CDDEF4D6E8F68E64178480FF7E SSTORE SWAP1 MLOAD PUSH32 0xCA0574CB82515DD8D8FEABC9BFECE9B4778855CDDEF4D6E8F68E64178480FF7F SSTORE MLOAD PUSH32 0xCA0574CB82515DD8D8FEABC9BFECE9B4778855CDDEF4D6E8F68E64178480FF80 SSTORE MLOAD PUSH32 0xCA0574CB82515DD8D8FEABC9BFECE9B4778855CDDEF4D6E8F68E64178480FF81 SSTORE DUP7 MLOAD DUP1 DUP7 ADD DUP9 MSTORE DUP5 DUP2 MSTORE PUSH2 0xAF0 DUP2 DUP5 ADD SWAP1 DUP2 MSTORE DUP2 DUP10 ADD SWAP6 DUP7 MSTORE PUSH2 0x3AC DUP3 DUP5 ADD SWAP1 DUP2 MSTORE PUSH1 0x4 DUP12 MSTORE DUP9 DUP6 MSTORE SWAP2 MLOAD PUSH32 0x33B8220312BCDD418636A962462731C74CFA4E2D018A461116DAF7A4F539E35D SSTORE MLOAD PUSH32 0x33B8220312BCDD418636A962462731C74CFA4E2D018A461116DAF7A4F539E35E SSTORE SWAP4 MLOAD PUSH32 0x33B8220312BCDD418636A962462731C74CFA4E2D018A461116DAF7A4F539E35F SSTORE SWAP3 MLOAD PUSH32 0x33B8220312BCDD418636A962462731C74CFA4E2D018A461116DAF7A4F539E360 SSTORE DUP6 MLOAD DUP1 DUP6 ADD DUP8 MSTORE PUSH2 0x190 DUP2 MSTORE PUSH2 0x410 DUP2 DUP4 ADD SWAP1 DUP2 MSTORE PUSH2 0x1C2 DUP3 DUP10 ADD SWAP1 DUP2 MSTORE PUSH1 0xE6 DUP4 DUP8 ADD SWAP1 DUP2 MSTORE PUSH1 0x5 DUP12 MSTORE DUP9 DUP6 MSTORE SWAP3 MLOAD PUSH32 0x704C3CD83E5804C028F2BEFBF48B95F696630C4191FAA77498F0BCF394FBC1A8 SSTORE SWAP1 MLOAD PUSH32 0x704C3CD83E5804C028F2BEFBF48B95F696630C4191FAA77498F0BCF394FBC1A9 SSTORE MLOAD PUSH32 0x704C3CD83E5804C028F2BEFBF48B95F696630C4191FAA77498F0BCF394FBC1AA SSTORE MLOAD PUSH32 0x704C3CD83E5804C028F2BEFBF48B95F696630C4191FAA77498F0BCF394FBC1AB SSTORE DUP6 MLOAD DUP1 DUP6 ADD DUP8 MSTORE PUSH2 0x5B4 DUP1 DUP3 MSTORE PUSH2 0xC30 DUP3 DUP5 ADD SWAP1 DUP2 MSTORE DUP3 DUP10 ADD SWAP2 DUP3 MSTORE DUP3 DUP7 ADD SWAP5 DUP6 MSTORE PUSH1 0x6 DUP11 MSTORE DUP8 DUP5 MSTORE SWAP2 MLOAD PUSH32 0xC218E2B733CF67303336F21CE058AD7B82D7FF580C18755103B33FA70179F5F8 SSTORE SWAP1 MLOAD PUSH32 0xC218E2B733CF67303336F21CE058AD7B82D7FF580C18755103B33FA70179F5F9 SSTORE MLOAD PUSH32 0xC218E2B733CF67303336F21CE058AD7B82D7FF580C18755103B33FA70179F5FA SSTORE SWAP1 MLOAD PUSH32 0xC218E2B733CF67303336F21CE058AD7B82D7FF580C18755103B33FA70179F5FB SSTORE DUP5 MLOAD DUP1 DUP5 ADD DUP7 MSTORE PUSH2 0xADC DUP2 MSTORE PUSH2 0x1900 DUP2 DUP4 ADD SWAP1 DUP2 MSTORE PUSH2 0x2FA8 DUP3 DUP9 ADD SWAP1 DUP2 MSTORE PUSH2 0x924 DUP4 DUP7 ADD SWAP1 DUP2 MSTORE PUSH1 0x7 DUP11 MSTORE DUP8 DUP6 MSTORE SWAP3 MLOAD PUSH32 0xB62E16A8B5BF89C8318605A3C12168784F33BC0512A65A9C0F2C0EA6EBE35033 SSTORE SWAP1 MLOAD PUSH32 0xB62E16A8B5BF89C8318605A3C12168784F33BC0512A65A9C0F2C0EA6EBE35034 SSTORE MLOAD PUSH32 0xB62E16A8B5BF89C8318605A3C12168784F33BC0512A65A9C0F2C0EA6EBE35035 SSTORE MLOAD PUSH32 0xB62E16A8B5BF89C8318605A3C12168784F33BC0512A65A9C0F2C0EA6EBE35036 SSTORE DUP5 MLOAD SWAP3 DUP4 ADD DUP6 MSTORE PUSH2 0x690 DUP4 MSTORE PUSH2 0xE60 DUP4 DUP3 ADD SWAP1 DUP2 MSTORE PUSH2 0x758 SWAP6 DUP5 ADD SWAP6 DUP7 MSTORE PUSH2 0x550 SWAP3 DUP5 ADD SWAP3 DUP4 MSTORE PUSH1 0x8 SWAP1 SWAP7 MSTORE SWAP3 SWAP1 SWAP3 MSTORE MLOAD PUSH32 0x43A8D743EEDBF634542F2D1C3F99F7AD101C7C0BF66C8CF9DE364B937BF7DF06 SSTORE SWAP2 MLOAD PUSH32 0x43A8D743EEDBF634542F2D1C3F99F7AD101C7C0BF66C8CF9DE364B937BF7DF07 SSTORE MLOAD PUSH32 0x43A8D743EEDBF634542F2D1C3F99F7AD101C7C0BF66C8CF9DE364B937BF7DF08 SSTORE MLOAD PUSH32 0x43A8D743EEDBF634542F2D1C3F99F7AD101C7C0BF66C8CF9DE364B937BF7DF09 SSTORE POP PUSH1 0x7 DUP1 SLOAD PUSH1 0x1 PUSH1 0x1 PUSH1 0xA0 SHL SUB NOT AND CALLER OR SWAP1 SSTORE PUSH3 0x792 JUMP JUMPDEST PUSH1 0x0 PUSH1 0x20 DUP3 DUP5 SUB SLT ISZERO PUSH3 0x773 JUMPI PUSH1 0x0 DUP1 REVERT JUMPDEST DUP2 MLOAD PUSH1 0x1 PUSH1 0x1 PUSH1 0xA0 SHL SUB DUP2 AND DUP2 EQ PUSH3 0x78B JUMPI PUSH1 0x0 DUP1 REVERT JUMPDEST SWAP4 SWAP3 POP POP POP JUMP JUMPDEST PUSH2 0x3DEC DUP1 PUSH3 0x7A2 PUSH1 0x0 CODECOPY PUSH1 0x0 RETURN INVALID PUSH1 0x80 PUSH1 0x40 MSTORE CALLVALUE DUP1 ISZERO PUSH2 0x10 JUMPI PUSH1 0x0 DUP1 REVERT JUMPDEST POP PUSH1 0x4 CALLDATASIZE LT PUSH2 0x292 JUMPI PUSH1 0x0 CALLDATALOAD PUSH1 0xE0 SHR DUP1 PUSH4 0x8DA5CB5B GT PUSH2 0x160 JUMPI DUP1 PUSH4 0xCCD5E491 GT PUSH2 0xD8 JUMPI DUP1 PUSH4 0xE9DD6583 GT PUSH2 0x8C JUMPI DUP1 PUSH4 0xF89D7571 GT PUSH2 0x71 JUMPI DUP1 PUSH4 0xF89D7571 EQ PUSH2 0x76E JUMPI DUP1 PUSH4 0xF9C64454 EQ PUSH2 0x781 JUMPI DUP1 PUSH4 0xFAE92612 EQ PUSH2 0x797 JUMPI PUSH1 0x0 DUP1 REVERT JUMPDEST DUP1 PUSH4 0xE9DD6583 EQ PUSH2 0x748 JUMPI DUP1 PUSH4 0xF3245254 EQ PUSH2 0x75B JUMPI PUSH1 0x0 DUP1 REVERT JUMPDEST DUP1 PUSH4 0xDD4B466B GT PUSH2 0xBD JUMPI DUP1 PUSH4 0xDD4B466B EQ PUSH2 0x70A JUMPI DUP1 PUSH4 0xDECC1BBF EQ PUSH2 0x71D JUMPI DUP1 PUSH4 0xE3198E08 EQ PUSH2 0x725 JUMPI PUSH1 0x0 DUP1 REVERT JUMPDEST DUP1 PUSH4 0xCCD5E491 EQ PUSH2 0x6C9 JUMPI DUP1 PUSH4 0xDAA17F49 EQ PUSH2 0x6F7 JUMPI PUSH1 0x0 DUP1 REVERT JUMPDEST DUP1 PUSH4 0xA596B645 GT PUSH2 0x12F JUMPI DUP1 PUSH4 0xBDC7DA8E GT PUSH2 0x114 JUMPI DUP1 PUSH4 0xBDC7DA8E EQ PUSH2 0x66B JUMPI DUP1 PUSH4 0xBE9A263C EQ PUSH2 0x674 JUMPI DUP1 PUSH4 0xC1712D57 EQ PUSH2 0x694 JUMPI PUSH1 0x0 DUP1 REVERT JUMPDEST DUP1 PUSH4 0xA596B645 EQ PUSH2 0x635 JUMPI DUP1 PUSH4 0xBD638378 EQ PUSH2 0x64B JUMPI PUSH1 0x0 DUP1 REVERT JUMPDEST DUP1 PUSH4 0x8DA5CB5B EQ PUSH2 0x4C9 JUMPI DUP1 PUSH4 0x9A4A2084 EQ PUSH2 0x4DC JUMPI DUP1 PUSH4 0x9B562DF2 EQ PUSH2 0x4EF JUMPI DUP1 PUSH4 0xA2F9CC5B EQ PUSH2 0x5E6 JUMPI PUSH1 0x0 DUP1 REVERT JUMPDEST DUP1 PUSH4 0x537E8F49 GT PUSH2 0x20E JUMPI DUP1 PUSH4 0x7659BC60 GT PUSH2 0x1C2 JUMPI DUP1 PUSH4 0x800BFA27 GT PUSH2 0x1A7 JUMPI DUP1 PUSH4 0x800BFA27 EQ PUSH2 0x472 JUMPI DUP1 PUSH4 0x887ACA72 EQ PUSH2 0x488 JUMPI DUP1 PUSH4 0x8C87FA4F EQ PUSH2 0x4B3 JUMPI PUSH1 0x0 DUP1 REVERT JUMPDEST DUP1 PUSH4 0x7659BC60 EQ PUSH2 0x44C JUMPI DUP1 PUSH4 0x7CCA26D9 EQ PUSH2 0x45F JUMPI PUSH1 0x0 DUP1 REVERT JUMPDEST DUP1 PUSH4 0x5E75968E GT PUSH2 0x1F3 JUMPI DUP1 PUSH4 0x5E75968E EQ PUSH2 0x3F0 JUMPI DUP1 PUSH4 0x60B76B52 EQ PUSH2 0x423 JUMPI DUP1 PUSH4 0x620A9A99 EQ PUSH2 0x436 JUMPI PUSH1 0x0 DUP1 REVERT JUMPDEST DUP1 PUSH4 0x537E8F49 EQ PUSH2 0x3A7 JUMPI DUP1 PUSH4 0x5D219D5F EQ PUSH2 0x3DD JUMPI PUSH1 0x0 DUP1 REVERT JUMPDEST DUP1 PUSH4 0x351662E4 GT PUSH2 0x265 JUMPI DUP1 PUSH4 0x41EDE44F GT PUSH2 0x24A JUMPI DUP1 PUSH4 0x41EDE44F EQ PUSH2 0x336 JUMPI DUP1 PUSH4 0x4274B164 EQ PUSH2 0x369 JUMPI DUP1 PUSH4 0x4F264B03 EQ PUSH2 0x37C JUMPI PUSH1 0x0 DUP1 REVERT JUMPDEST DUP1 PUSH4 0x351662E4 EQ PUSH2 0x310 JUMPI DUP1 PUSH4 0x3E5F2857 EQ PUSH2 0x323 JUMPI PUSH1 0x0 DUP1 REVERT JUMPDEST DUP1 PUSH4 0x7722BC2 EQ PUSH2 0x297 JUMPI DUP1 PUSH4 0xEE22F31 EQ PUSH2 0x2AC JUMPI DUP1 PUSH4 0x2A490AE8 EQ PUSH2 0x2BF JUMPI DUP1 PUSH4 0x2EF78865 EQ PUSH2 0x2E5 JUMPI JUMPDEST PUSH1 0x0 DUP1 REVERT JUMPDEST PUSH2 0x2AA PUSH2 0x2A5 CALLDATASIZE PUSH1 0x4 PUSH2 0x3721 JUMP JUMPDEST PUSH2 0x7AA JUMP JUMPDEST STOP JUMPDEST PUSH2 0x2AA PUSH2 0x2BA CALLDATASIZE PUSH1 0x4 PUSH2 0x3772 JUMP JUMPDEST PUSH2 0xA5A JUMP JUMPDEST PUSH2 0x2D2 PUSH2 0x2CD CALLDATASIZE PUSH1 0x4 PUSH2 0x37E3 JUMP JUMPDEST PUSH2 0xFDD JUMP JUMPDEST PUSH1 0x40 MLOAD SWAP1 DUP2 MSTORE PUSH1 0x20 ADD JUMPDEST PUSH1 0x40 MLOAD DUP1 SWAP2 SUB SWAP1 RETURN JUMPDEST PUSH2 0x2D2 PUSH2 0x2F3 CALLDATASIZE PUSH1 0x4 PUSH2 0x37E3 JUMP JUMPDEST PUSH1 0x5 PUSH1 0x20 SWAP1 DUP2 MSTORE PUSH1 0x0 SWAP3 DUP4 MSTORE PUSH1 0x40 DUP1 DUP5 KECCAK256 SWAP1 SWAP2 MSTORE SWAP1 DUP3 MSTORE SWAP1 KECCAK256 SLOAD DUP2 JUMP JUMPDEST PUSH2 0x2AA PUSH2 0x31E CALLDATASIZE PUSH1 0x4 PUSH2 0x381C JUMP JUMPDEST PUSH2 0xFF4 JUMP JUMPDEST PUSH2 0x2AA PUSH2 0x331 CALLDATASIZE PUSH1 0x4 PUSH2 0x387C JUMP JUMPDEST PUSH2 0x154A JUMP JUMPDEST PUSH2 0x2D2 PUSH2 0x344 CALLDATASIZE PUSH1 0x4 PUSH2 0x37E3 JUMP JUMPDEST PUSH1 0xFF SWAP2 DUP3 AND PUSH1 0x0 SWAP1 DUP2 MSTORE PUSH1 0x2 PUSH1 0x20 SWAP1 DUP2 MSTORE PUSH1 0x40 DUP1 DUP4 KECCAK256 SWAP4 SWAP1 SWAP5 AND DUP3 MSTORE SWAP2 SWAP1 SWAP2 MSTORE KECCAK256 SLOAD SWAP1 JUMP JUMPDEST PUSH2 0x2AA PUSH2 0x377 CALLDATASIZE PUSH1 0x4 PUSH2 0x3721 JUMP JUMPDEST PUSH2 0x1BDE JUMP JUMPDEST PUSH1 0x0 SLOAD PUSH2 0x38F SWAP1 PUSH1 0x1 PUSH1 0x1 PUSH1 0xA0 SHL SUB AND DUP2 JUMP JUMPDEST PUSH1 0x40 MLOAD PUSH1 0x1 PUSH1 0x1 PUSH1 0xA0 SHL SUB SWAP1 SWAP2 AND DUP2 MSTORE PUSH1 0x20 ADD PUSH2 0x2DC JUMP JUMPDEST PUSH1 0x15 SLOAD PUSH1 0x16 SLOAD PUSH1 0x17 SLOAD PUSH1 0x18 SLOAD PUSH2 0x3BD SWAP4 SWAP3 SWAP2 SWAP1 DUP5 JUMP JUMPDEST PUSH1 0x40 DUP1 MLOAD SWAP5 DUP6 MSTORE PUSH1 0x20 DUP6 ADD SWAP4 SWAP1 SWAP4 MSTORE SWAP2 DUP4 ADD MSTORE PUSH1 0x60 DUP3 ADD MSTORE PUSH1 0x80 ADD PUSH2 0x2DC JUMP JUMPDEST PUSH2 0x2AA PUSH2 0x3EB CALLDATASIZE PUSH1 0x4 PUSH2 0x38F5 JUMP JUMPDEST PUSH2 0x1E6E JUMP JUMPDEST PUSH2 0x413 PUSH2 0x3FE CALLDATASIZE PUSH1 0x4 PUSH2 0x38F5 JUMP JUMPDEST PUSH1 0x4 PUSH1 0x20 MSTORE PUSH1 0x0 SWAP1 DUP2 MSTORE PUSH1 0x40 SWAP1 KECCAK256 SLOAD PUSH1 0xFF AND DUP2 JUMP JUMPDEST PUSH1 0x40 MLOAD SWAP1 ISZERO ISZERO DUP2 MSTORE PUSH1 0x20 ADD PUSH2 0x2DC JUMP JUMPDEST PUSH2 0x2AA PUSH2 0x431 CALLDATASIZE PUSH1 0x4 PUSH2 0x3919 JUMP JUMPDEST PUSH2 0x1EE8 JUMP JUMPDEST PUSH1 0x9 SLOAD PUSH1 0xA SLOAD PUSH1 0xB SLOAD PUSH1 0xC SLOAD PUSH2 0x3BD SWAP4 SWAP3 SWAP2 SWAP1 DUP5 JUMP JUMPDEST PUSH2 0x2AA PUSH2 0x45A CALLDATASIZE PUSH1 0x4 PUSH2 0x37E3 JUMP JUMPDEST PUSH2 0x217D JUMP JUMPDEST PUSH1 0x1 SLOAD PUSH2 0x38F SWAP1 PUSH1 0x1 PUSH1 0x1 PUSH1 0xA0 SHL SUB AND DUP2 JUMP JUMPDEST PUSH1 0x11 SLOAD PUSH1 0x12 SLOAD PUSH1 0x13 SLOAD PUSH1 0x14 SLOAD PUSH2 0x3BD SWAP4 SWAP3 SWAP2 SWAP1 DUP5 JUMP JUMPDEST PUSH2 0x2D2 PUSH2 0x496 CALLDATASIZE PUSH1 0x4 PUSH2 0x37E3 JUMP JUMPDEST PUSH1 0x2 PUSH1 0x20 SWAP1 DUP2 MSTORE PUSH1 0x0 SWAP3 DUP4 MSTORE PUSH1 0x40 DUP1 DUP5 KECCAK256 SWAP1 SWAP2 MSTORE SWAP1 DUP3 MSTORE SWAP1 KECCAK256 SLOAD DUP2 JUMP JUMPDEST PUSH1 0xD SLOAD PUSH1 0xE SLOAD PUSH1 0xF SLOAD PUSH1 0x10 SLOAD PUSH2 0x3BD SWAP4 SWAP3 SWAP2 SWAP1 DUP5 JUMP JUMPDEST PUSH1 0x7 SLOAD PUSH2 0x38F SWAP1 PUSH1 0x1 PUSH1 0x1 PUSH1 0xA0 SHL SUB AND DUP2 JUMP JUMPDEST PUSH2 0x2AA PUSH2 0x4EA CALLDATASIZE PUSH1 0x4 PUSH2 0x3975 JUMP JUMPDEST PUSH2 0x2206 JUMP JUMPDEST PUSH2 0x5D2 PUSH2 0x4FD CALLDATASIZE PUSH1 0x4 PUSH2 0x37E3 JUMP JUMPDEST PUSH1 0x21 PUSH1 0x20 SWAP1 DUP2 MSTORE PUSH1 0x0 SWAP3 DUP4 MSTORE PUSH1 0x40 DUP1 DUP5 KECCAK256 DUP3 MSTORE SWAP2 DUP4 MSTORE SWAP2 DUP2 SWAP1 KECCAK256 DUP2 MLOAD PUSH1 0x80 DUP1 DUP3 ADD DUP5 MSTORE DUP3 SLOAD DUP3 MSTORE PUSH1 0x1 DUP4 ADD SLOAD DUP3 DUP7 ADD MSTORE PUSH1 0x2 DUP4 ADD SLOAD DUP3 DUP6 ADD MSTORE PUSH1 0x3 DUP4 ADD SLOAD PUSH1 0x60 DUP1 DUP5 ADD SWAP2 SWAP1 SWAP2 MSTORE PUSH1 0x4 DUP5 ADD SLOAD PUSH1 0x5 DUP6 ADD SLOAD PUSH1 0x6 DUP7 ADD SLOAD PUSH1 0x7 DUP8 ADD SLOAD DUP9 MLOAD PUSH1 0xC0 DUP2 ADD DUP11 MSTORE PUSH1 0x8 DUP10 ADD SLOAD DUP2 MSTORE PUSH1 0x9 DUP10 ADD SLOAD DUP2 DUP13 ADD MSTORE PUSH1 0xA DUP10 ADD SLOAD DUP2 DUP12 ADD MSTORE PUSH1 0xB DUP10 ADD SLOAD SWAP6 DUP2 ADD SWAP6 SWAP1 SWAP6 MSTORE PUSH1 0xC DUP9 ADD SLOAD SWAP6 DUP6 ADD SWAP6 SWAP1 SWAP6 MSTORE PUSH1 0xD DUP8 ADD SLOAD PUSH1 0xA0 DUP6 ADD MSTORE DUP8 MLOAD DUP1 DUP10 ADD SWAP1 SWAP9 MSTORE PUSH1 0xE DUP8 ADD SLOAD PUSH1 0xFF DUP1 DUP3 AND DUP11 MSTORE PUSH2 0x100 SWAP1 SWAP2 DIV AND SWAP9 DUP9 ADD SWAP9 SWAP1 SWAP9 MSTORE PUSH1 0xF SWAP1 SWAP6 ADD SLOAD SWAP4 SWAP7 PUSH2 0xFFFF SWAP2 DUP3 AND SWAP7 SWAP2 AND SWAP4 DUP9 JUMP JUMPDEST PUSH1 0x40 MLOAD PUSH2 0x2DC SWAP9 SWAP8 SWAP7 SWAP6 SWAP5 SWAP4 SWAP3 SWAP2 SWAP1 PUSH2 0x39BC JUMP JUMPDEST PUSH2 0x623 PUSH2 0x5F4 CALLDATASIZE PUSH1 0x4 PUSH2 0x3919 JUMP JUMPDEST PUSH1 0x22 PUSH1 0x20 SWAP1 DUP2 MSTORE PUSH1 0x0 SWAP5 DUP6 MSTORE PUSH1 0x40 DUP1 DUP7 KECCAK256 DUP3 MSTORE SWAP4 DUP6 MSTORE DUP4 DUP6 KECCAK256 DUP2 MSTORE SWAP2 DUP5 MSTORE DUP3 DUP5 KECCAK256 SWAP1 SWAP2 MSTORE DUP3 MSTORE SWAP1 KECCAK256 SLOAD PUSH1 0xFF AND DUP2 JUMP JUMPDEST PUSH1 0x40 MLOAD PUSH1 0xFF SWAP1 SWAP2 AND DUP2 MSTORE PUSH1 0x20 ADD PUSH2 0x2DC JUMP JUMPDEST PUSH1 0x19 SLOAD PUSH1 0x1A SLOAD PUSH1 0x1B SLOAD PUSH1 0x1C SLOAD PUSH2 0x3BD SWAP4 SWAP3 SWAP2 SWAP1 DUP5 JUMP JUMPDEST PUSH2 0x65E PUSH2 0x659 CALLDATASIZE PUSH1 0x4 PUSH2 0x37E3 JUMP JUMPDEST PUSH2 0x2294 JUMP JUMPDEST PUSH1 0x40 MLOAD PUSH2 0x2DC SWAP2 SWAP1 PUSH2 0x3A78 JUMP JUMPDEST PUSH2 0x2D2 PUSH2 0x3E8 DUP2 JUMP JUMPDEST PUSH2 0x687 PUSH2 0x682 CALLDATASIZE PUSH1 0x4 PUSH2 0x37E3 JUMP JUMPDEST PUSH2 0x23EA JUMP JUMPDEST PUSH1 0x40 MLOAD PUSH2 0x2DC SWAP2 SWAP1 PUSH2 0x3B34 JUMP JUMPDEST PUSH2 0x3BD PUSH2 0x6A2 CALLDATASIZE PUSH1 0x4 PUSH2 0x3B99 JUMP JUMPDEST PUSH1 0x23 PUSH1 0x20 MSTORE PUSH1 0x0 SWAP1 DUP2 MSTORE PUSH1 0x40 SWAP1 KECCAK256 DUP1 SLOAD PUSH1 0x1 DUP3 ADD SLOAD PUSH1 0x2 DUP4 ADD SLOAD PUSH1 0x3 SWAP1 SWAP4 ADD SLOAD SWAP2 SWAP3 SWAP1 SWAP2 DUP5 JUMP JUMPDEST PUSH2 0x413 PUSH2 0x6D7 CALLDATASIZE PUSH1 0x4 PUSH2 0x37E3 JUMP JUMPDEST PUSH1 0x6 PUSH1 0x20 SWAP1 DUP2 MSTORE PUSH1 0x0 SWAP3 DUP4 MSTORE PUSH1 0x40 DUP1 DUP5 KECCAK256 SWAP1 SWAP2 MSTORE SWAP1 DUP3 MSTORE SWAP1 KECCAK256 SLOAD PUSH1 0xFF AND DUP2 JUMP JUMPDEST PUSH1 0x8 SLOAD PUSH2 0x38F SWAP1 PUSH1 0x1 PUSH1 0x1 PUSH1 0xA0 SHL SUB AND DUP2 JUMP JUMPDEST PUSH2 0x2AA PUSH2 0x718 CALLDATASIZE PUSH1 0x4 PUSH2 0x37E3 JUMP JUMPDEST PUSH2 0x2574 JUMP JUMPDEST PUSH2 0x623 PUSH1 0x9 DUP2 JUMP JUMPDEST PUSH2 0x413 PUSH2 0x733 CALLDATASIZE PUSH1 0x4 PUSH2 0x38F5 JUMP JUMPDEST PUSH1 0x3 PUSH1 0x20 MSTORE PUSH1 0x0 SWAP1 DUP2 MSTORE PUSH1 0x40 SWAP1 KECCAK256 SLOAD PUSH1 0xFF AND DUP2 JUMP JUMPDEST PUSH2 0x2AA PUSH2 0x756 CALLDATASIZE PUSH1 0x4 PUSH2 0x3BB6 JUMP JUMPDEST PUSH2 0x26EB JUMP JUMPDEST PUSH2 0x2D2 PUSH2 0x769 CALLDATASIZE PUSH1 0x4 PUSH2 0x37E3 JUMP JUMPDEST PUSH2 0x2CF2 JUMP JUMPDEST PUSH2 0x2AA PUSH2 0x77C CALLDATASIZE PUSH1 0x4 PUSH2 0x3721 JUMP JUMPDEST PUSH2 0x2E97 JUMP JUMPDEST PUSH1 0x1D SLOAD PUSH1 0x1E SLOAD PUSH1 0x1F SLOAD PUSH1 0x20 SLOAD PUSH2 0x3BD SWAP4 SWAP3 SWAP2 SWAP1 DUP5 JUMP JUMPDEST PUSH2 0x2AA PUSH2 0x7A5 CALLDATASIZE PUSH1 0x4 PUSH2 0x38F5 JUMP JUMPDEST PUSH2 0x32DE JUMP JUMPDEST PUSH1 0x0 SLOAD PUSH1 0x40 MLOAD PUSH4 0x8A888953 PUSH1 0xE0 SHL DUP2 MSTORE PUSH1 0xFF DUP1 DUP8 AND PUSH1 0x4 DUP4 ADD MSTORE DUP6 AND PUSH1 0x24 DUP3 ADD MSTORE DUP6 SWAP2 DUP6 SWAP2 CALLER SWAP2 PUSH1 0x1 PUSH1 0x1 PUSH1 0xA0 SHL SUB AND SWAP1 PUSH4 0x8A888953 SWAP1 PUSH1 0x44 ADD PUSH1 0x20 PUSH1 0x40 MLOAD DUP1 DUP4 SUB DUP2 DUP7 GAS STATICCALL ISZERO DUP1 ISZERO PUSH2 0x801 JUMPI RETURNDATASIZE PUSH1 0x0 DUP1 RETURNDATACOPY RETURNDATASIZE PUSH1 0x0 REVERT JUMPDEST POP POP POP POP PUSH1 0x40 MLOAD RETURNDATASIZE PUSH1 0x1F NOT PUSH1 0x1F DUP3 ADD AND DUP3 ADD DUP1 PUSH1 0x40 MSTORE POP DUP2 ADD SWAP1 PUSH2 0x825 SWAP2 SWAP1 PUSH2 0x3BDD JUMP JUMPDEST PUSH1 0x1 PUSH1 0x1 PUSH1 0xA0 SHL SUB AND EQ PUSH2 0x866 JUMPI PUSH1 0x40 MLOAD PUSH3 0x461BCD PUSH1 0xE5 SHL DUP2 MSTORE PUSH1 0x20 PUSH1 0x4 DUP3 ADD MSTORE PUSH1 0x3 PUSH1 0x24 DUP3 ADD MSTORE PUSH3 0x37BBB7 PUSH1 0xE9 SHL PUSH1 0x44 DUP3 ADD MSTORE PUSH1 0x64 ADD JUMPDEST PUSH1 0x40 MLOAD DUP1 SWAP2 SUB SWAP1 REVERT JUMPDEST PUSH1 0x0 DUP4 GT PUSH2 0x8B6 JUMPI PUSH1 0x40 MLOAD PUSH3 0x461BCD PUSH1 0xE5 SHL DUP2 MSTORE PUSH1 0x20 PUSH1 0x4 DUP3 ADD MSTORE PUSH1 0x1 PUSH1 0x24 DUP3 ADD MSTORE PUSH32 0x7A00000000000000000000000000000000000000000000000000000000000000 PUSH1 0x44 DUP3 ADD MSTORE PUSH1 0x64 ADD PUSH2 0x85D JUMP JUMPDEST DUP4 PUSH1 0xFF AND PUSH1 0x1 EQ DUP1 PUSH2 0x8CB JUMPI POP DUP4 PUSH1 0xFF AND PUSH1 0x2 EQ JUMPDEST PUSH2 0x917 JUMPI PUSH1 0x40 MLOAD PUSH3 0x461BCD PUSH1 0xE5 SHL DUP2 MSTORE PUSH1 0x20 PUSH1 0x4 DUP3 ADD MSTORE PUSH1 0x1 PUSH1 0x24 DUP3 ADD MSTORE PUSH32 0x7400000000000000000000000000000000000000000000000000000000000000 PUSH1 0x44 DUP3 ADD MSTORE PUSH1 0x64 ADD PUSH2 0x85D JUMP JUMPDEST PUSH1 0x0 PUSH2 0x925 DUP8 DUP8 PUSH1 0x1 PUSH2 0x3358 JUMP JUMPDEST SWAP1 POP PUSH1 0x0 DUP2 GT PUSH2 0x977 JUMPI PUSH1 0x40 MLOAD PUSH3 0x461BCD PUSH1 0xE5 SHL DUP2 MSTORE PUSH1 0x20 PUSH1 0x4 DUP3 ADD MSTORE PUSH1 0x1 PUSH1 0x24 DUP3 ADD MSTORE PUSH32 0x6100000000000000000000000000000000000000000000000000000000000000 PUSH1 0x44 DUP3 ADD MSTORE PUSH1 0x64 ADD PUSH2 0x85D JUMP JUMPDEST PUSH1 0x0 DUP6 PUSH1 0xFF AND PUSH1 0x1 EQ PUSH2 0x98B JUMPI PUSH1 0xD PUSH2 0x98E JUMP JUMPDEST PUSH1 0x9 JUMPDEST PUSH1 0x40 DUP1 MLOAD PUSH1 0x80 DUP2 ADD DUP3 MSTORE DUP3 SLOAD DUP2 MSTORE PUSH1 0x1 DUP4 ADD SLOAD PUSH1 0x20 DUP3 ADD MSTORE PUSH1 0x2 DUP4 ADD SLOAD SWAP2 DUP2 ADD SWAP2 SWAP1 SWAP2 MSTORE PUSH1 0x3 SWAP1 SWAP2 ADD SLOAD PUSH1 0x60 DUP3 ADD MSTORE SWAP1 POP PUSH2 0x9CC DUP9 DUP9 DUP4 DUP9 DUP7 PUSH2 0x33F3 JUMP JUMPDEST DUP6 PUSH1 0xFF AND PUSH1 0x1 SUB PUSH2 0xA16 JUMPI PUSH1 0xFF DUP1 DUP10 AND PUSH1 0x0 SWAP1 DUP2 MSTORE PUSH1 0x21 PUSH1 0x20 SWAP1 DUP2 MSTORE PUSH1 0x40 DUP1 DUP4 KECCAK256 SWAP4 DUP12 AND DUP4 MSTORE SWAP3 SWAP1 MSTORE SWAP1 DUP2 KECCAK256 PUSH1 0x8 ADD DUP1 SLOAD DUP8 SWAP3 SWAP1 PUSH2 0xA0B SWAP1 DUP5 SWAP1 PUSH2 0x3C29 JUMP JUMPDEST SWAP1 SWAP2 SSTORE POP PUSH2 0xA50 SWAP1 POP JUMP JUMPDEST PUSH1 0xFF DUP1 DUP10 AND PUSH1 0x0 SWAP1 DUP2 MSTORE PUSH1 0x21 PUSH1 0x20 SWAP1 DUP2 MSTORE PUSH1 0x40 DUP1 DUP4 KECCAK256 SWAP4 DUP12 AND DUP4 MSTORE SWAP3 SWAP1 MSTORE SWAP1 DUP2 KECCAK256 PUSH1 0x9 ADD DUP1 SLOAD DUP8 SWAP3 SWAP1 PUSH2 0xA4A SWAP1 DUP5 SWAP1 PUSH2 0x3C29 JUMP JUMPDEST SWAP1 SWAP2 SSTORE POP POP JUMPDEST POP POP POP POP POP POP POP POP JUMP JUMPDEST PUSH1 0x0 SLOAD PUSH1 0x40 MLOAD PUSH4 0x8A888953 PUSH1 0xE0 SHL DUP2 MSTORE PUSH1 0xFF DUP1 DUP9 AND PUSH1 0x4 DUP4 ADD MSTORE DUP7 AND PUSH1 0x24 DUP3 ADD MSTORE DUP7 SWAP2 DUP7 SWAP2 CALLER SWAP2 PUSH1 0x1 PUSH1 0x1 PUSH1 0xA0 SHL SUB AND SWAP1 PUSH4 0x8A888953 SWAP1 PUSH1 0x44 ADD PUSH1 0x20 PUSH1 0x40 MLOAD DUP1 DUP4 SUB DUP2 DUP7 GAS STATICCALL ISZERO DUP1 ISZERO PUSH2 0xAB1 JUMPI RETURNDATASIZE PUSH1 0x0 DUP1 RETURNDATACOPY RETURNDATASIZE PUSH1 0x0 REVERT JUMPDEST POP POP POP POP PUSH1 0x40 MLOAD RETURNDATASIZE PUSH1 0x1F NOT PUSH1 0x1F DUP3 ADD AND DUP3 ADD DUP1 PUSH1 0x40 MSTORE POP DUP2 ADD SWAP1 PUSH2 0xAD5 SWAP2 SWAP1 PUSH2 0x3BDD JUMP JUMPDEST PUSH1 0x1 PUSH1 0x1 PUSH1 0xA0 SHL SUB AND EQ PUSH2 0xB11 JUMPI PUSH1 0x40 MLOAD PUSH3 0x461BCD PUSH1 0xE5 SHL DUP2 MSTORE PUSH1 0x20 PUSH1 0x4 DUP3 ADD MSTORE PUSH1 0x3 PUSH1 0x24 DUP3 ADD MSTORE PUSH3 0x37BBB7 PUSH1 0xE9 SHL PUSH1 0x44 DUP3 ADD MSTORE PUSH1 0x64 ADD PUSH2 0x85D JUMP JUMPDEST DUP5 DUP5 PUSH1 0x9 PUSH1 0xFF DUP4 AND LT DUP1 ISZERO PUSH2 0xB29 JUMPI POP PUSH1 0x9 PUSH1 0xFF DUP3 AND LT JUMPDEST PUSH2 0xB75 JUMPI PUSH1 0x40 MLOAD PUSH3 0x461BCD PUSH1 0xE5 SHL DUP2 MSTORE PUSH1 0x20 PUSH1 0x4 DUP3 ADD MSTORE PUSH1 0x5 PUSH1 0x24 DUP3 ADD MSTORE PUSH32 0x636F6F7264000000000000000000000000000000000000000000000000000000 PUSH1 0x44 DUP3 ADD MSTORE PUSH1 0x64 ADD PUSH2 0x85D JUMP JUMPDEST DUP7 PUSH1 0xFF AND PUSH1 0x4 EQ DUP1 ISZERO PUSH2 0xB8B JUMPI POP DUP6 PUSH1 0xFF AND PUSH1 0x4 EQ JUMPDEST ISZERO PUSH2 0xBD8 JUMPI PUSH1 0x40 MLOAD PUSH3 0x461BCD PUSH1 0xE5 SHL DUP2 MSTORE PUSH1 0x20 PUSH1 0x4 DUP3 ADD MSTORE PUSH1 0x1 PUSH1 0x24 DUP3 ADD MSTORE PUSH32 0x6300000000000000000000000000000000000000000000000000000000000000 PUSH1 0x44 DUP3 ADD MSTORE PUSH1 0x64 ADD PUSH2 0x85D JUMP JUMPDEST PUSH1 0xFF DUP1 DUP11 AND PUSH1 0x0 SWAP1 DUP2 MSTORE PUSH1 0x22 PUSH1 0x20 SWAP1 DUP2 MSTORE PUSH1 0x40 DUP1 DUP4 KECCAK256 DUP13 DUP6 AND DUP5 MSTORE DUP3 MSTORE DUP1 DUP4 KECCAK256 DUP12 DUP6 AND DUP5 MSTORE DUP3 MSTORE DUP1 DUP4 KECCAK256 DUP11 DUP6 AND DUP5 MSTORE SWAP1 SWAP2 MSTORE SWAP1 KECCAK256 SLOAD AND DUP1 ISZERO PUSH2 0xC5C JUMPI PUSH1 0x40 MLOAD PUSH3 0x461BCD PUSH1 0xE5 SHL DUP2 MSTORE PUSH1 0x20 PUSH1 0x4 DUP3 ADD MSTORE PUSH1 0x1 PUSH1 0x24 DUP3 ADD MSTORE PUSH32 0x6500000000000000000000000000000000000000000000000000000000000000 PUSH1 0x44 DUP3 ADD MSTORE PUSH1 0x64 ADD PUSH2 0x85D JUMP JUMPDEST DUP6 PUSH1 0xFF AND PUSH1 0x3 SUB PUSH2 0xCDF JUMPI PUSH2 0xC73 DUP11 DUP11 PUSH1 0x3 PUSH2 0x3358 JUMP JUMPDEST ISZERO PUSH2 0xCC0 JUMPI PUSH1 0x40 MLOAD PUSH3 0x461BCD PUSH1 0xE5 SHL DUP2 MSTORE PUSH1 0x20 PUSH1 0x4 DUP3 ADD MSTORE PUSH1 0x1 PUSH1 0x24 DUP3 ADD MSTORE PUSH32 0x6300000000000000000000000000000000000000000000000000000000000000 PUSH1 0x44 DUP3 ADD MSTORE PUSH1 0x64 ADD PUSH2 0x85D JUMP JUMPDEST CALLER PUSH1 0x0 SWAP1 DUP2 MSTORE PUSH1 0x3 PUSH1 0x20 MSTORE PUSH1 0x40 SWAP1 KECCAK256 DUP1 SLOAD PUSH1 0xFF NOT AND PUSH1 0x1 OR SWAP1 SSTORE PUSH2 0xD5E JUMP JUMPDEST DUP6 PUSH1 0xFF AND PUSH1 0x6 SUB PUSH2 0xD5E JUMPI PUSH2 0xCF6 DUP11 DUP11 PUSH1 0x6 PUSH2 0x3358 JUMP JUMPDEST ISZERO PUSH2 0xD43 JUMPI PUSH1 0x40 MLOAD PUSH3 0x461BCD PUSH1 0xE5 SHL DUP2 MSTORE PUSH1 0x20 PUSH1 0x4 DUP3 ADD MSTORE PUSH1 0x1 PUSH1 0x24 DUP3 ADD MSTORE PUSH32 0x6D00000000000000000000000000000000000000000000000000000000000000 PUSH1 0x44 DUP3 ADD MSTORE PUSH1 0x64 ADD PUSH2 0x85D JUMP JUMPDEST CALLER PUSH1 0x0 SWAP1 DUP2 MSTORE PUSH1 0x4 PUSH1 0x20 MSTORE PUSH1 0x40 SWAP1 KECCAK256 DUP1 SLOAD PUSH1 0xFF NOT AND PUSH1 0x1 OR SWAP1 SSTORE JUMPDEST PUSH1 0xFF DUP1 DUP8 AND PUSH1 0x0 SWAP1 DUP2 MSTORE PUSH1 0x23 PUSH1 0x20 SWAP1 DUP2 MSTORE PUSH1 0x40 DUP1 DUP4 KECCAK256 DUP2 MLOAD PUSH1 0x80 DUP2 ADD DUP4 MSTORE DUP2 SLOAD DUP2 MSTORE PUSH1 0x1 DUP3 ADD SLOAD DUP2 DUP6 ADD MSTORE PUSH1 0x2 DUP3 ADD SLOAD DUP2 DUP5 ADD MSTORE PUSH1 0x3 SWAP1 SWAP2 ADD SLOAD PUSH1 0x60 DUP3 ADD MSTORE DUP15 DUP6 AND DUP5 MSTORE PUSH1 0x21 DUP4 MSTORE DUP2 DUP5 KECCAK256 SWAP5 DUP15 AND DUP5 MSTORE SWAP4 SWAP1 SWAP2 MSTORE SWAP1 KECCAK256 DUP2 MLOAD DUP2 SLOAD LT ISZERO PUSH2 0xE06 JUMPI PUSH1 0x40 MLOAD PUSH3 0x461BCD PUSH1 0xE5 SHL DUP2 MSTORE PUSH1 0x20 PUSH1 0x4 DUP3 ADD MSTORE PUSH1 0x1 PUSH1 0x24 DUP3 ADD MSTORE PUSH32 0x6600000000000000000000000000000000000000000000000000000000000000 PUSH1 0x44 DUP3 ADD MSTORE PUSH1 0x64 ADD PUSH2 0x85D JUMP JUMPDEST PUSH1 0x20 DUP3 ADD MLOAD PUSH1 0x1 DUP3 ADD SLOAD LT ISZERO PUSH2 0xE5E JUMPI PUSH1 0x40 MLOAD PUSH3 0x461BCD PUSH1 0xE5 SHL DUP2 MSTORE PUSH1 0x20 PUSH1 0x4 DUP3 ADD MSTORE PUSH1 0x1 PUSH1 0x24 DUP3 ADD MSTORE PUSH32 0x7700000000000000000000000000000000000000000000000000000000000000 PUSH1 0x44 DUP3 ADD MSTORE PUSH1 0x64 ADD PUSH2 0x85D JUMP JUMPDEST PUSH1 0x40 DUP3 ADD MLOAD PUSH1 0x2 DUP3 ADD SLOAD LT ISZERO PUSH2 0xEB6 JUMPI PUSH1 0x40 MLOAD PUSH3 0x461BCD PUSH1 0xE5 SHL DUP2 MSTORE PUSH1 0x20 PUSH1 0x4 DUP3 ADD MSTORE PUSH1 0x1 PUSH1 0x24 DUP3 ADD MSTORE PUSH32 0x7300000000000000000000000000000000000000000000000000000000000000 PUSH1 0x44 DUP3 ADD MSTORE PUSH1 0x64 ADD PUSH2 0x85D JUMP JUMPDEST PUSH1 0x60 DUP3 ADD MLOAD PUSH1 0x3 DUP3 ADD SLOAD LT ISZERO PUSH2 0xF0E JUMPI PUSH1 0x40 MLOAD PUSH3 0x461BCD PUSH1 0xE5 SHL DUP2 MSTORE PUSH1 0x20 PUSH1 0x4 DUP3 ADD MSTORE PUSH1 0x1 PUSH1 0x24 DUP3 ADD MSTORE PUSH32 0x6900000000000000000000000000000000000000000000000000000000000000 PUSH1 0x44 DUP3 ADD MSTORE PUSH1 0x64 ADD PUSH2 0x85D JUMP JUMPDEST DUP2 MLOAD DUP2 SLOAD DUP3 SWAP1 PUSH1 0x0 SWAP1 PUSH2 0xF22 SWAP1 DUP5 SWAP1 PUSH2 0x3C3C JUMP JUMPDEST SWAP1 SWAP2 SSTORE POP POP PUSH1 0x20 DUP3 ADD MLOAD PUSH1 0x1 DUP3 ADD DUP1 SLOAD PUSH1 0x0 SWAP1 PUSH2 0xF40 SWAP1 DUP5 SWAP1 PUSH2 0x3C3C JUMP JUMPDEST SWAP1 SWAP2 SSTORE POP POP PUSH1 0x40 DUP3 ADD MLOAD PUSH1 0x2 DUP3 ADD DUP1 SLOAD PUSH1 0x0 SWAP1 PUSH2 0xF5E SWAP1 DUP5 SWAP1 PUSH2 0x3C3C JUMP JUMPDEST SWAP1 SWAP2 SSTORE POP POP PUSH1 0x60 DUP3 ADD MLOAD PUSH1 0x3 DUP3 ADD DUP1 SLOAD PUSH1 0x0 SWAP1 PUSH2 0xF7C SWAP1 DUP5 SWAP1 PUSH2 0x3C3C JUMP JUMPDEST SWAP1 SWAP2 SSTORE POP POP PUSH1 0xFF DUP13 DUP2 AND PUSH1 0x0 SWAP1 DUP2 MSTORE PUSH1 0x22 PUSH1 0x20 SWAP1 DUP2 MSTORE PUSH1 0x40 DUP1 DUP4 KECCAK256 DUP16 DUP6 AND DUP5 MSTORE DUP3 MSTORE DUP1 DUP4 KECCAK256 DUP15 DUP6 AND DUP5 MSTORE DUP3 MSTORE DUP1 DUP4 KECCAK256 DUP14 DUP6 AND DUP5 MSTORE SWAP1 SWAP2 MSTORE SWAP1 KECCAK256 DUP1 SLOAD PUSH1 0xFF NOT AND SWAP2 DUP11 AND SWAP2 SWAP1 SWAP2 OR SWAP1 SSTORE PUSH2 0xFCF DUP2 DUP14 DUP14 PUSH2 0x3662 JUMP JUMPDEST POP POP POP POP POP POP POP POP POP POP POP POP JUMP JUMPDEST PUSH1 0x0 PUSH2 0xFEB DUP4 DUP4 PUSH1 0x7 PUSH2 0x3358 JUMP JUMPDEST SWAP1 POP JUMPDEST SWAP3 SWAP2 POP POP JUMP JUMPDEST PUSH1 0x0 SLOAD PUSH1 0x40 MLOAD PUSH4 0x8A888953 PUSH1 0xE0 SHL DUP2 MSTORE PUSH1 0xFF DUP1 DUP7 AND PUSH1 0x4 DUP4 ADD MSTORE DUP5 AND PUSH1 0x24 DUP3 ADD MSTORE DUP5 SWAP2 DUP5 SWAP2 CALLER SWAP2 PUSH1 0x1 PUSH1 0x1 PUSH1 0xA0 SHL SUB AND SWAP1 PUSH4 0x8A888953 SWAP1 PUSH1 0x44 ADD PUSH1 0x20 PUSH1 0x40 MLOAD DUP1 DUP4 SUB DUP2 DUP7 GAS STATICCALL ISZERO DUP1 ISZERO PUSH2 0x104B JUMPI RETURNDATASIZE PUSH1 0x0 DUP1 RETURNDATACOPY RETURNDATASIZE PUSH1 0x0 REVERT JUMPDEST POP POP POP POP PUSH1 0x40 MLOAD RETURNDATASIZE PUSH1 0x1F NOT PUSH1 0x1F DUP3 ADD AND DUP3 ADD DUP1 PUSH1 0x40 MSTORE POP DUP2 ADD SWAP1 PUSH2 0x106F SWAP2 SWAP1 PUSH2 0x3BDD JUMP JUMPDEST PUSH1 0x1 PUSH1 0x1 PUSH1 0xA0 SHL SUB AND EQ PUSH2 0x10AB JUMPI PUSH1 0x40 MLOAD PUSH3 0x461BCD PUSH1 0xE5 SHL DUP2 MSTORE PUSH1 0x20 PUSH1 0x4 DUP3 ADD MSTORE PUSH1 0x3 PUSH1 0x24 DUP3 ADD MSTORE PUSH3 0x37BBB7 PUSH1 0xE9 SHL PUSH1 0x44 DUP3 ADD MSTORE PUSH1 0x64 ADD PUSH2 0x85D JUMP JUMPDEST PUSH1 0xFF DUP1 DUP7 AND PUSH1 0x0 SWAP1 DUP2 MSTORE PUSH1 0x21 PUSH1 0x20 SWAP1 DUP2 MSTORE PUSH1 0x40 DUP1 DUP4 KECCAK256 DUP9 DUP6 AND DUP5 MSTORE SWAP1 SWAP2 MSTORE DUP2 KECCAK256 SWAP2 PUSH1 0x60 SWAP1 DUP7 AND PUSH1 0x1 SUB PUSH2 0x111E JUMPI POP POP PUSH1 0xE DUP2 ADD SLOAD PUSH1 0x40 DUP1 MLOAD DUP1 DUP3 ADD SWAP1 SWAP2 MSTORE PUSH1 0xD DUP2 MSTORE PUSH32 0x6F6666656E736976655465636800000000000000000000000000000000000000 PUSH1 0x20 DUP3 ADD MSTORE PUSH1 0xFF SWAP1 SWAP2 AND SWAP1 PUSH2 0x11BD JUMP JUMPDEST DUP6 PUSH1 0xFF AND PUSH1 0x2 SUB PUSH2 0x1173 JUMPI POP POP PUSH1 0xE DUP2 ADD SLOAD PUSH1 0x40 DUP1 MLOAD DUP1 DUP3 ADD SWAP1 SWAP2 MSTORE PUSH1 0xD DUP2 MSTORE PUSH32 0x646566656E736976655465636800000000000000000000000000000000000000 PUSH1 0x20 DUP3 ADD MSTORE PUSH2 0x100 SWAP1 SWAP2 DIV PUSH1 0xFF AND SWAP1 PUSH2 0x11BD JUMP JUMPDEST PUSH1 0x40 MLOAD PUSH3 0x461BCD PUSH1 0xE5 SHL DUP2 MSTORE PUSH1 0x4 ADD PUSH2 0x85D SWAP1 PUSH1 0x20 DUP1 DUP3 MSTORE PUSH1 0x4 SWAP1 DUP3 ADD MSTORE PUSH32 0x7479706500000000000000000000000000000000000000000000000000000000 PUSH1 0x40 DUP3 ADD MSTORE PUSH1 0x60 ADD SWAP1 JUMP JUMPDEST PUSH2 0x2710 DUP3 PUSH1 0xFF AND GT ISZERO PUSH2 0x1212 JUMPI PUSH1 0x40 MLOAD PUSH3 0x461BCD PUSH1 0xE5 SHL DUP2 MSTORE PUSH1 0x20 PUSH1 0x4 DUP3 ADD MSTORE PUSH1 0x1 PUSH1 0x24 DUP3 ADD MSTORE PUSH32 0x6C00000000000000000000000000000000000000000000000000000000000000 PUSH1 0x44 DUP3 ADD MSTORE PUSH1 0x64 ADD PUSH2 0x85D JUMP JUMPDEST PUSH1 0x0 PUSH2 0x1220 DUP10 DUP10 PUSH1 0x8 PUSH2 0x3358 JUMP JUMPDEST SWAP1 POP PUSH1 0x0 DUP2 GT PUSH2 0x1272 JUMPI PUSH1 0x40 MLOAD PUSH3 0x461BCD PUSH1 0xE5 SHL DUP2 MSTORE PUSH1 0x20 PUSH1 0x4 DUP3 ADD MSTORE PUSH1 0x1 PUSH1 0x24 DUP3 ADD MSTORE PUSH32 0x7700000000000000000000000000000000000000000000000000000000000000 PUSH1 0x44 DUP3 ADD MSTORE PUSH1 0x64 ADD PUSH2 0x85D JUMP JUMPDEST PUSH1 0x0 PUSH2 0x127F DUP5 PUSH1 0x1 PUSH2 0x3C4F JUMP JUMPDEST PUSH2 0x128D SWAP1 PUSH1 0xFF AND PUSH1 0x2 PUSH2 0x3C68 JUMP JUMPDEST SWAP1 POP PUSH1 0x0 DUP3 PUSH2 0x129D DUP4 PUSH1 0x8C PUSH2 0x3C68 JUMP JUMPDEST PUSH2 0x12A7 SWAP2 SWAP1 PUSH2 0x3CAE JUMP JUMPDEST SWAP1 POP PUSH1 0x0 DUP4 PUSH2 0x12B7 DUP5 PUSH1 0x78 PUSH2 0x3C68 JUMP JUMPDEST PUSH2 0x12C1 SWAP2 SWAP1 PUSH2 0x3CAE JUMP JUMPDEST SWAP1 POP PUSH1 0x0 DUP5 PUSH2 0x12D1 DUP6 PUSH1 0xB4 PUSH2 0x3C68 JUMP JUMPDEST PUSH2 0x12DB SWAP2 SWAP1 PUSH2 0x3CAE JUMP JUMPDEST SWAP1 POP PUSH1 0x0 DUP6 PUSH2 0x12EB DUP7 PUSH1 0x78 PUSH2 0x3C68 JUMP JUMPDEST PUSH2 0x12F5 SWAP2 SWAP1 PUSH2 0x3CAE JUMP JUMPDEST DUP10 SLOAD SWAP1 SWAP2 POP DUP5 GT ISZERO PUSH2 0x1349 JUMPI PUSH1 0x40 MLOAD PUSH3 0x461BCD PUSH1 0xE5 SHL DUP2 MSTORE PUSH1 0x20 PUSH1 0x4 DUP3 ADD MSTORE PUSH1 0x1 PUSH1 0x24 DUP3 ADD MSTORE PUSH32 0x6600000000000000000000000000000000000000000000000000000000000000 PUSH1 0x44 DUP3 ADD MSTORE PUSH1 0x64 ADD PUSH2 0x85D JUMP JUMPDEST PUSH1 0x1 DUP10 ADD SLOAD DUP4 GT ISZERO PUSH2 0x139D JUMPI PUSH1 0x40 MLOAD PUSH3 0x461BCD PUSH1 0xE5 SHL DUP2 MSTORE PUSH1 0x20 PUSH1 0x4 DUP3 ADD MSTORE PUSH1 0x1 PUSH1 0x24 DUP3 ADD MSTORE PUSH32 0x7700000000000000000000000000000000000000000000000000000000000000 PUSH1 0x44 DUP3 ADD MSTORE PUSH1 0x64 ADD PUSH2 0x85D JUMP JUMPDEST PUSH1 0x2 DUP10 ADD SLOAD DUP3 GT ISZERO PUSH2 0x13F1 JUMPI PUSH1 0x40 MLOAD PUSH3 0x461BCD PUSH1 0xE5 SHL DUP2 MSTORE PUSH1 0x20 PUSH1 0x4 DUP3 ADD MSTORE PUSH1 0x1 PUSH1 0x24 DUP3 ADD MSTORE PUSH32 0x7300000000000000000000000000000000000000000000000000000000000000 PUSH1 0x44 DUP3 ADD MSTORE PUSH1 0x64 ADD PUSH2 0x85D JUMP JUMPDEST PUSH1 0x3 DUP10 ADD SLOAD DUP2 GT ISZERO PUSH2 0x1445 JUMPI PUSH1 0x40 MLOAD PUSH3 0x461BCD PUSH1 0xE5 SHL DUP2 MSTORE PUSH1 0x20 PUSH1 0x4 DUP3 ADD MSTORE PUSH1 0x1 PUSH1 0x24 DUP3 ADD MSTORE PUSH32 0x6900000000000000000000000000000000000000000000000000000000000000 PUSH1 0x44 DUP3 ADD MSTORE PUSH1 0x64 ADD PUSH2 0x85D JUMP JUMPDEST DUP9 SLOAD DUP5 SWAP1 DUP11 SWAP1 PUSH1 0x0 SWAP1 PUSH2 0x1459 SWAP1 DUP5 SWAP1 PUSH2 0x3C3C JUMP JUMPDEST SWAP1 SWAP2 SSTORE POP POP PUSH1 0x1 DUP10 ADD DUP1 SLOAD DUP5 SWAP2 SWAP1 PUSH1 0x0 SWAP1 PUSH2 0x1475 SWAP1 DUP5 SWAP1 PUSH2 0x3C3C JUMP JUMPDEST SWAP1 SWAP2 SSTORE POP POP PUSH1 0x2 DUP10 ADD DUP1 SLOAD DUP4 SWAP2 SWAP1 PUSH1 0x0 SWAP1 PUSH2 0x1491 SWAP1 DUP5 SWAP1 PUSH2 0x3C3C JUMP JUMPDEST SWAP1 SWAP2 SSTORE POP POP PUSH1 0x3 DUP10 ADD DUP1 SLOAD DUP3 SWAP2 SWAP1 PUSH1 0x0 SWAP1 PUSH2 0x14AD SWAP1 DUP5 SWAP1 PUSH2 0x3C3C JUMP JUMPDEST SWAP1 SWAP2 SSTORE POP POP PUSH1 0xFF DUP13 AND PUSH1 0x1 SUB PUSH2 0x14F0 JUMPI PUSH1 0xE DUP10 ADD DUP1 SLOAD PUSH1 0xFF AND SWAP1 PUSH1 0x0 PUSH2 0x14D2 DUP4 PUSH2 0x3CC2 JUMP JUMPDEST SWAP2 SWAP1 PUSH2 0x100 EXP DUP2 SLOAD DUP2 PUSH1 0xFF MUL NOT AND SWAP1 DUP4 PUSH1 0xFF AND MUL OR SWAP1 SSTORE POP POP PUSH2 0x152F JUMP JUMPDEST DUP12 PUSH1 0xFF AND PUSH1 0x2 SUB PUSH2 0x152F JUMPI PUSH1 0xE DUP10 ADD DUP1 SLOAD PUSH2 0x100 SWAP1 DIV PUSH1 0xFF AND SWAP1 PUSH1 0x1 PUSH2 0x1515 DUP4 PUSH2 0x3CC2 JUMP JUMPDEST SWAP2 SWAP1 PUSH2 0x100 EXP DUP2 SLOAD DUP2 PUSH1 0xFF MUL NOT AND SWAP1 DUP4 PUSH1 0xFF AND MUL OR SWAP1 SSTORE POP POP JUMPDEST PUSH2 0x153A DUP10 DUP16 DUP16 PUSH2 0x3662 JUMP JUMPDEST POP POP POP POP POP POP POP POP POP POP POP POP POP POP JUMP JUMPDEST PUSH1 0x8 SLOAD PUSH1 0x1 PUSH1 0x1 PUSH1 0xA0 SHL SUB AND CALLER EQ PUSH2 0x15A4 JUMPI PUSH1 0x40 MLOAD PUSH3 0x461BCD PUSH1 0xE5 SHL DUP2 MSTORE PUSH1 0x20 PUSH1 0x4 DUP3 ADD MSTORE PUSH1 0x1 PUSH1 0x24 DUP3 ADD MSTORE PUSH32 0x6100000000000000000000000000000000000000000000000000000000000000 PUSH1 0x44 DUP3 ADD MSTORE PUSH1 0x64 ADD PUSH2 0x85D JUMP JUMPDEST PUSH1 0xFF DUP1 DUP7 AND PUSH1 0x0 SWAP1 DUP2 MSTORE PUSH1 0x21 PUSH1 0x20 SWAP1 DUP2 MSTORE PUSH1 0x40 DUP1 DUP4 KECCAK256 DUP9 DUP6 AND DUP5 MSTORE SWAP1 SWAP2 MSTORE SWAP1 KECCAK256 SWAP1 DUP5 AND PUSH1 0x1 SUB PUSH2 0x1658 JUMPI DUP2 ISZERO PUSH2 0x15F3 JUMPI DUP1 SLOAD DUP4 SWAP1 DUP3 SWAP1 PUSH1 0x0 SWAP1 PUSH2 0x15E8 SWAP1 DUP5 SWAP1 PUSH2 0x3C29 JUMP JUMPDEST SWAP1 SWAP2 SSTORE POP PUSH2 0x1BCB SWAP1 POP JUMP JUMPDEST DUP1 SLOAD DUP4 GT ISZERO PUSH2 0x1644 JUMPI PUSH1 0x40 MLOAD PUSH3 0x461BCD PUSH1 0xE5 SHL DUP2 MSTORE PUSH1 0x20 PUSH1 0x4 DUP3 ADD MSTORE PUSH1 0x1 PUSH1 0x24 DUP3 ADD MSTORE PUSH32 0x6600000000000000000000000000000000000000000000000000000000000000 PUSH1 0x44 DUP3 ADD MSTORE PUSH1 0x64 ADD PUSH2 0x85D JUMP JUMPDEST DUP1 SLOAD DUP4 SWAP1 DUP3 SWAP1 PUSH1 0x0 SWAP1 PUSH2 0x15E8 SWAP1 DUP5 SWAP1 PUSH2 0x3C3C JUMP JUMPDEST DUP4 PUSH1 0xFF AND PUSH1 0x2 SUB PUSH2 0x16EB JUMPI DUP2 ISZERO PUSH2 0x1680 JUMPI DUP3 DUP2 PUSH1 0x0 ADD PUSH1 0x1 ADD PUSH1 0x0 DUP3 DUP3 SLOAD PUSH2 0x15E8 SWAP2 SWAP1 PUSH2 0x3C29 JUMP JUMPDEST PUSH1 0x1 DUP2 ADD SLOAD DUP4 GT ISZERO PUSH2 0x16D4 JUMPI PUSH1 0x40 MLOAD PUSH3 0x461BCD PUSH1 0xE5 SHL DUP2 MSTORE PUSH1 0x20 PUSH1 0x4 DUP3 ADD MSTORE PUSH1 0x1 PUSH1 0x24 DUP3 ADD MSTORE PUSH32 0x7700000000000000000000000000000000000000000000000000000000000000 PUSH1 0x44 DUP3 ADD MSTORE PUSH1 0x64 ADD PUSH2 0x85D JUMP JUMPDEST DUP3 DUP2 PUSH1 0x0 ADD PUSH1 0x1 ADD PUSH1 0x0 DUP3 DUP3 SLOAD PUSH2 0x15E8 SWAP2 SWAP1 PUSH2 0x3C3C JUMP JUMPDEST DUP4 PUSH1 0xFF AND PUSH1 0x3 SUB PUSH2 0x177E JUMPI DUP2 ISZERO PUSH2 0x1713 JUMPI DUP3 DUP2 PUSH1 0x0 ADD PUSH1 0x2 ADD PUSH1 0x0 DUP3 DUP3 SLOAD PUSH2 0x15E8 SWAP2 SWAP1 PUSH2 0x3C29 JUMP JUMPDEST PUSH1 0x2 DUP2 ADD SLOAD DUP4 GT ISZERO PUSH2 0x1767 JUMPI PUSH1 0x40 MLOAD PUSH3 0x461BCD PUSH1 0xE5 SHL DUP2 MSTORE PUSH1 0x20 PUSH1 0x4 DUP3 ADD MSTORE PUSH1 0x1 PUSH1 0x24 DUP3 ADD MSTORE PUSH32 0x7300000000000000000000000000000000000000000000000000000000000000 PUSH1 0x44 DUP3 ADD MSTORE PUSH1 0x64 ADD PUSH2 0x85D JUMP JUMPDEST DUP3 DUP2 PUSH1 0x0 ADD PUSH1 0x2 ADD PUSH1 0x0 DUP3 DUP3 SLOAD PUSH2 0x15E8 SWAP2 SWAP1 PUSH2 0x3C3C JUMP JUMPDEST DUP4 PUSH1 0xFF AND PUSH1 0x4 SUB PUSH2 0x1811 JUMPI DUP2 ISZERO PUSH2 0x17A6 JUMPI DUP3 DUP2 PUSH1 0x0 ADD PUSH1 0x3 ADD PUSH1 0x0 DUP3 DUP3 SLOAD PUSH2 0x15E8 SWAP2 SWAP1 PUSH2 0x3C29 JUMP JUMPDEST PUSH1 0x3 DUP2 ADD SLOAD DUP4 GT ISZERO PUSH2 0x17FA JUMPI PUSH1 0x40 MLOAD PUSH3 0x461BCD PUSH1 0xE5 SHL DUP2 MSTORE PUSH1 0x20 PUSH1 0x4 DUP3 ADD MSTORE PUSH1 0x1 PUSH1 0x24 DUP3 ADD MSTORE PUSH32 0x6900000000000000000000000000000000000000000000000000000000000000 PUSH1 0x44 DUP3 ADD MSTORE PUSH1 0x64 ADD PUSH2 0x85D JUMP JUMPDEST DUP3 DUP2 PUSH1 0x0 ADD PUSH1 0x3 ADD PUSH1 0x0 DUP3 DUP3 SLOAD PUSH2 0x15E8 SWAP2 SWAP1 PUSH2 0x3C3C JUMP JUMPDEST DUP4 PUSH1 0xFF AND PUSH1 0x5 SUB PUSH2 0x18A4 JUMPI DUP2 ISZERO PUSH2 0x1839 JUMPI DUP3 DUP2 PUSH1 0x8 ADD PUSH1 0x0 ADD PUSH1 0x0 DUP3 DUP3 SLOAD PUSH2 0x15E8 SWAP2 SWAP1 PUSH2 0x3C29 JUMP JUMPDEST PUSH1 0x8 DUP2 ADD SLOAD DUP4 GT ISZERO PUSH2 0x188D JUMPI PUSH1 0x40 MLOAD PUSH3 0x461BCD PUSH1 0xE5 SHL DUP2 MSTORE PUSH1 0x20 PUSH1 0x4 DUP3 ADD MSTORE PUSH1 0x2 PUSH1 0x24 DUP3 ADD MSTORE PUSH32 0x6F61000000000000000000000000000000000000000000000000000000000000 PUSH1 0x44 DUP3 ADD MSTORE PUSH1 0x64 ADD PUSH2 0x85D JUMP JUMPDEST DUP3 DUP2 PUSH1 0x8 ADD PUSH1 0x0 ADD PUSH1 0x0 DUP3 DUP3 SLOAD PUSH2 0x15E8 SWAP2 SWAP1 PUSH2 0x3C3C JUMP JUMPDEST DUP4 PUSH1 0xFF AND PUSH1 0x6 SUB PUSH2 0x1937 JUMPI DUP2 ISZERO PUSH2 0x18CC JUMPI DUP3 DUP2 PUSH1 0x8 ADD PUSH1 0x1 ADD PUSH1 0x0 DUP3 DUP3 SLOAD PUSH2 0x15E8 SWAP2 SWAP1 PUSH2 0x3C29 JUMP JUMPDEST PUSH1 0x9 DUP2 ADD SLOAD DUP4 GT ISZERO PUSH2 0x1920 JUMPI PUSH1 0x40 MLOAD PUSH3 0x461BCD PUSH1 0xE5 SHL DUP2 MSTORE PUSH1 0x20 PUSH1 0x4 DUP3 ADD MSTORE PUSH1 0x2 PUSH1 0x24 DUP3 ADD MSTORE PUSH32 0x6461000000000000000000000000000000000000000000000000000000000000 PUSH1 0x44 DUP3 ADD MSTORE PUSH1 0x64 ADD PUSH2 0x85D JUMP JUMPDEST DUP3 DUP2 PUSH1 0x8 ADD PUSH1 0x1 ADD PUSH1 0x0 DUP3 DUP3 SLOAD PUSH2 0x15E8 SWAP2 SWAP1 PUSH2 0x3C3C JUMP JUMPDEST DUP4 PUSH1 0xFF AND PUSH1 0x7 SUB PUSH2 0x19CA JUMPI DUP2 ISZERO PUSH2 0x195F JUMPI DUP3 DUP2 PUSH1 0x8 ADD PUSH1 0x2 ADD PUSH1 0x0 DUP3 DUP3 SLOAD PUSH2 0x15E8 SWAP2 SWAP1 PUSH2 0x3C29 JUMP JUMPDEST PUSH1 0xA DUP2 ADD SLOAD DUP4 GT ISZERO PUSH2 0x19B3 JUMPI PUSH1 0x40 MLOAD PUSH3 0x461BCD PUSH1 0xE5 SHL DUP2 MSTORE PUSH1 0x20 PUSH1 0x4 DUP3 ADD MSTORE PUSH1 0x2 PUSH1 0x24 DUP3 ADD MSTORE PUSH32 0x6F77000000000000000000000000000000000000000000000000000000000000 PUSH1 0x44 DUP3 ADD MSTORE PUSH1 0x64 ADD PUSH2 0x85D JUMP JUMPDEST DUP3 DUP2 PUSH1 0x8 ADD PUSH1 0x2 ADD PUSH1 0x0 DUP3 DUP3 SLOAD PUSH2 0x15E8 SWAP2 SWAP1 PUSH2 0x3C3C JUMP JUMPDEST DUP4 PUSH1 0xFF AND PUSH1 0x8 SUB PUSH2 0x1A5D JUMPI DUP2 ISZERO PUSH2 0x19F2 JUMPI DUP3 DUP2 PUSH1 0x8 ADD PUSH1 0x3 ADD PUSH1 0x0 DUP3 DUP3 SLOAD PUSH2 0x15E8 SWAP2 SWAP1 PUSH2 0x3C29 JUMP JUMPDEST PUSH1 0xB DUP2 ADD SLOAD DUP4 GT ISZERO PUSH2 0x1A46 JUMPI PUSH1 0x40 MLOAD PUSH3 0x461BCD PUSH1 0xE5 SHL DUP2 MSTORE PUSH1 0x20 PUSH1 0x4 DUP3 ADD MSTORE PUSH1 0x2 PUSH1 0x24 DUP3 ADD MSTORE PUSH32 0x6477000000000000000000000000000000000000000000000000000000000000 PUSH1 0x44 DUP3 ADD MSTORE PUSH1 0x64 ADD PUSH2 0x85D JUMP JUMPDEST DUP3 DUP2 PUSH1 0x8 ADD PUSH1 0x3 ADD PUSH1 0x0 DUP3 DUP3 SLOAD PUSH2 0x15E8 SWAP2 SWAP1 PUSH2 0x3C3C JUMP JUMPDEST DUP4 PUSH1 0xFF AND PUSH1 0x9 SUB PUSH2 0x1AF0 JUMPI DUP2 ISZERO PUSH2 0x1A85 JUMPI DUP3 DUP2 PUSH1 0x8 ADD PUSH1 0x4 ADD PUSH1 0x0 DUP3 DUP3 SLOAD PUSH2 0x15E8 SWAP2 SWAP1 PUSH2 0x3C29 JUMP JUMPDEST PUSH1 0xC DUP2 ADD SLOAD DUP4 GT ISZERO PUSH2 0x1AD9 JUMPI PUSH1 0x40 MLOAD PUSH3 0x461BCD PUSH1 0xE5 SHL DUP2 MSTORE PUSH1 0x20 PUSH1 0x4 DUP3 ADD MSTORE PUSH1 0x2 PUSH1 0x24 DUP3 ADD MSTORE PUSH32 0x6F73000000000000000000000000000000000000000000000000000000000000 PUSH1 0x44 DUP3 ADD MSTORE PUSH1 0x64 ADD PUSH2 0x85D JUMP JUMPDEST DUP3 DUP2 PUSH1 0x8 ADD PUSH1 0x4 ADD PUSH1 0x0 DUP3 DUP3 SLOAD PUSH2 0x15E8 SWAP2 SWAP1 PUSH2 0x3C3C JUMP JUMPDEST DUP4 PUSH1 0xFF AND PUSH1 0xA SUB PUSH2 0x1B83 JUMPI DUP2 ISZERO PUSH2 0x1B18 JUMPI DUP3 DUP2 PUSH1 0x8 ADD PUSH1 0x5 ADD PUSH1 0x0 DUP3 DUP3 SLOAD PUSH2 0x15E8 SWAP2 SWAP1 PUSH2 0x3C29 JUMP JUMPDEST PUSH1 0xD DUP2 ADD SLOAD DUP4 GT ISZERO PUSH2 0x1B6C JUMPI PUSH1 0x40 MLOAD PUSH3 0x461BCD PUSH1 0xE5 SHL DUP2 MSTORE PUSH1 0x20 PUSH1 0x4 DUP3 ADD MSTORE PUSH1 0x2 PUSH1 0x24 DUP3 ADD MSTORE PUSH32 0x6473000000000000000000000000000000000000000000000000000000000000 PUSH1 0x44 DUP3 ADD MSTORE PUSH1 0x64 ADD PUSH2 0x85D JUMP JUMPDEST DUP3 DUP2 PUSH1 0x8 ADD PUSH1 0x5 ADD PUSH1 0x0 DUP3 DUP3 SLOAD PUSH2 0x15E8 SWAP2 SWAP1 PUSH2 0x3C3C JUMP JUMPDEST PUSH1 0x40 MLOAD PUSH3 0x461BCD PUSH1 0xE5 SHL DUP2 MSTORE PUSH1 0x20 PUSH1 0x4 DUP3 ADD MSTORE PUSH1 0x1 PUSH1 0x24 DUP3 ADD MSTORE PUSH32 0x7400000000000000000000000000000000000000000000000000000000000000 PUSH1 0x44 DUP3 ADD MSTORE PUSH1 0x64 ADD PUSH2 0x85D JUMP JUMPDEST PUSH2 0x1BD6 DUP2 DUP8 DUP8 PUSH2 0x3662 JUMP JUMPDEST POP POP POP POP POP POP JUMP JUMPDEST PUSH1 0x0 SLOAD PUSH1 0x40 MLOAD PUSH4 0x8A888953 PUSH1 0xE0 SHL DUP2 MSTORE PUSH1 0xFF DUP1 DUP8 AND PUSH1 0x4 DUP4 ADD MSTORE DUP6 AND PUSH1 0x24 DUP3 ADD MSTORE DUP6 SWAP2 DUP6 SWAP2 CALLER SWAP2 PUSH1 0x1 PUSH1 0x1 PUSH1 0xA0 SHL SUB AND SWAP1 PUSH4 0x8A888953 SWAP1 PUSH1 0x44 ADD PUSH1 0x20 PUSH1 0x40 MLOAD DUP1 DUP4 SUB DUP2 DUP7 GAS STATICCALL ISZERO DUP1 ISZERO PUSH2 0x1C35 JUMPI RETURNDATASIZE PUSH1 0x0 DUP1 RETURNDATACOPY RETURNDATASIZE PUSH1 0x0 REVERT JUMPDEST POP POP POP POP PUSH1 0x40 MLOAD RETURNDATASIZE PUSH1 0x1F NOT PUSH1 0x1F DUP3 ADD AND DUP3 ADD DUP1 PUSH1 0x40 MSTORE POP DUP2 ADD SWAP1 PUSH2 0x1C59 SWAP2 SWAP1 PUSH2 0x3BDD JUMP JUMPDEST PUSH1 0x1 PUSH1 0x1 PUSH1 0xA0 SHL SUB AND EQ PUSH2 0x1C95 JUMPI PUSH1 0x40 MLOAD PUSH3 0x461BCD PUSH1 0xE5 SHL DUP2 MSTORE PUSH1 0x20 PUSH1 0x4 DUP3 ADD MSTORE PUSH1 0x3 PUSH1 0x24 DUP3 ADD MSTORE PUSH3 0x37BBB7 PUSH1 0xE9 SHL PUSH1 0x44 DUP3 ADD MSTORE PUSH1 0x64 ADD PUSH2 0x85D JUMP JUMPDEST PUSH1 0x0 DUP4 GT PUSH2 0x1CE5 JUMPI PUSH1 0x40 MLOAD PUSH3 0x461BCD PUSH1 0xE5 SHL DUP2 MSTORE PUSH1 0x20 PUSH1 0x4 DUP3 ADD MSTORE PUSH1 0x1 PUSH1 0x24 DUP3 ADD MSTORE PUSH32 0x7A00000000000000000000000000000000000000000000000000000000000000 PUSH1 0x44 DUP3 ADD MSTORE PUSH1 0x64 ADD PUSH2 0x85D JUMP JUMPDEST DUP4 PUSH1 0xFF AND PUSH1 0x1 EQ DUP1 PUSH2 0x1CFA JUMPI POP DUP4 PUSH1 0xFF AND PUSH1 0x2 EQ JUMPDEST PUSH2 0x1D46 JUMPI PUSH1 0x40 MLOAD PUSH3 0x461BCD PUSH1 0xE5 SHL DUP2 MSTORE PUSH1 0x20 PUSH1 0x4 DUP3 ADD MSTORE PUSH1 0x1 PUSH1 0x24 DUP3 ADD MSTORE PUSH32 0x7400000000000000000000000000000000000000000000000000000000000000 PUSH1 0x44 DUP3 ADD MSTORE PUSH1 0x64 ADD PUSH2 0x85D JUMP JUMPDEST PUSH1 0x0 PUSH2 0x1D54 DUP8 DUP8 PUSH1 0x2 PUSH2 0x3358 JUMP JUMPDEST SWAP1 POP PUSH1 0x0 DUP2 GT PUSH2 0x1DA6 JUMPI PUSH1 0x40 MLOAD PUSH3 0x461BCD PUSH1 0xE5 SHL DUP2 MSTORE PUSH1 0x20 PUSH1 0x4 DUP3 ADD MSTORE PUSH1 0x2 PUSH1 0x24 DUP3 ADD MSTORE PUSH32 0x6273000000000000000000000000000000000000000000000000000000000000 PUSH1 0x44 DUP3 ADD MSTORE PUSH1 0x64 ADD PUSH2 0x85D JUMP JUMPDEST PUSH1 0x0 DUP6 PUSH1 0xFF AND PUSH1 0x1 EQ PUSH2 0x1DBA JUMPI PUSH1 0x15 PUSH2 0x1DBD JUMP JUMPDEST PUSH1 0x11 JUMPDEST PUSH1 0x40 DUP1 MLOAD PUSH1 0x80 DUP2 ADD DUP3 MSTORE DUP3 SLOAD DUP2 MSTORE PUSH1 0x1 DUP4 ADD SLOAD PUSH1 0x20 DUP3 ADD MSTORE PUSH1 0x2 DUP4 ADD SLOAD SWAP2 DUP2 ADD SWAP2 SWAP1 SWAP2 MSTORE PUSH1 0x3 SWAP1 SWAP2 ADD SLOAD PUSH1 0x60 DUP3 ADD MSTORE SWAP1 POP PUSH2 0x1DFB DUP9 DUP9 DUP4 DUP9 DUP7 PUSH2 0x33F3 JUMP JUMPDEST DUP6 PUSH1 0xFF AND PUSH1 0x1 SUB PUSH2 0x1E3A JUMPI PUSH1 0xFF DUP1 DUP10 AND PUSH1 0x0 SWAP1 DUP2 MSTORE PUSH1 0x21 PUSH1 0x20 SWAP1 DUP2 MSTORE PUSH1 0x40 DUP1 DUP4 KECCAK256 SWAP4 DUP12 AND DUP4 MSTORE SWAP3 SWAP1 MSTORE SWAP1 DUP2 KECCAK256 PUSH1 0xA ADD DUP1 SLOAD DUP8 SWAP3 SWAP1 PUSH2 0xA0B SWAP1 DUP5 SWAP1 PUSH2 0x3C29 JUMP JUMPDEST PUSH1 0xFF DUP1 DUP10 AND PUSH1 0x0 SWAP1 DUP2 MSTORE PUSH1 0x21 PUSH1 0x20 SWAP1 DUP2 MSTORE PUSH1 0x40 DUP1 DUP4 KECCAK256 SWAP4 DUP12 AND DUP4 MSTORE SWAP3 SWAP1 MSTORE SWAP1 DUP2 KECCAK256 PUSH1 0xB ADD DUP1 SLOAD DUP8 SWAP3 SWAP1 PUSH2 0xA4A SWAP1 DUP5 SWAP1 PUSH2 0x3C29 JUMP JUMPDEST PUSH1 0x7 SLOAD PUSH1 0x1 PUSH1 0x1 PUSH1 0xA0 SHL SUB AND CALLER EQ PUSH2 0x1EAE JUMPI PUSH1 0x40 MLOAD PUSH3 0x461BCD PUSH1 0xE5 SHL DUP2 MSTORE PUSH1 0x20 PUSH1 0x4 DUP3 ADD MSTORE PUSH1 0x3 PUSH1 0x24 DUP3 ADD MSTORE PUSH3 0x37BBB7 PUSH1 0xE9 SHL PUSH1 0x44 DUP3 ADD MSTORE PUSH1 0x64 ADD PUSH2 0x85D JUMP JUMPDEST PUSH1 0x1 DUP1 SLOAD PUSH32 0xFFFFFFFFFFFFFFFFFFFFFFFF0000000000000000000000000000000000000000 AND PUSH1 0x1 PUSH1 0x1 PUSH1 0xA0 SHL SUB SWAP3 SWAP1 SWAP3 AND SWAP2 SWAP1 SWAP2 OR SWAP1 SSTORE JUMP JUMPDEST PUSH1 0x0 SLOAD PUSH1 0x40 MLOAD PUSH4 0x8A888953 PUSH1 0xE0 SHL DUP2 MSTORE PUSH1 0xFF DUP1 DUP8 AND PUSH1 0x4 DUP4 ADD MSTORE DUP6 AND PUSH1 0x24 DUP3 ADD MSTORE DUP6 SWAP2 DUP6 SWAP2 CALLER SWAP2 PUSH1 0x1 PUSH1 0x1 PUSH1 0xA0 SHL SUB AND SWAP1 PUSH4 0x8A888953 SWAP1 PUSH1 0x44 ADD PUSH1 0x20 PUSH1 0x40 MLOAD DUP1 DUP4 SUB DUP2 DUP7 GAS STATICCALL ISZERO DUP1 ISZERO PUSH2 0x1F3F JUMPI RETURNDATASIZE PUSH1 0x0 DUP1 RETURNDATACOPY RETURNDATASIZE PUSH1 0x0 REVERT JUMPDEST POP POP POP POP PUSH1 0x40 MLOAD RETURNDATASIZE PUSH1 0x1F NOT PUSH1 0x1F DUP3 ADD AND DUP3 ADD DUP1 PUSH1 0x40 MSTORE POP DUP2 ADD SWAP1 PUSH2 0x1F63 SWAP2 SWAP1 PUSH2 0x3BDD JUMP JUMPDEST PUSH1 0x1 PUSH1 0x1 PUSH1 0xA0 SHL SUB AND EQ PUSH2 0x1F9F JUMPI PUSH1 0x40 MLOAD PUSH3 0x461BCD PUSH1 0xE5 SHL DUP2 MSTORE PUSH1 0x20 PUSH1 0x4 DUP3 ADD MSTORE PUSH1 0x3 PUSH1 0x24 DUP3 ADD MSTORE PUSH3 0x37BBB7 PUSH1 0xE9 SHL PUSH1 0x44 DUP3 ADD MSTORE PUSH1 0x64 ADD PUSH2 0x85D JUMP JUMPDEST DUP4 DUP4 PUSH1 0x9 PUSH1 0xFF DUP4 AND LT DUP1 ISZERO PUSH2 0x1FB7 JUMPI POP PUSH1 0x9 PUSH1 0xFF DUP3 AND LT JUMPDEST PUSH2 0x2003 JUMPI PUSH1 0x40 MLOAD PUSH3 0x461BCD PUSH1 0xE5 SHL DUP2 MSTORE PUSH1 0x20 PUSH1 0x4 DUP3 ADD MSTORE PUSH1 0x5 PUSH1 0x24 DUP3 ADD MSTORE PUSH32 0x636F6F7264000000000000000000000000000000000000000000000000000000 PUSH1 0x44 DUP3 ADD MSTORE PUSH1 0x64 ADD PUSH2 0x85D JUMP JUMPDEST DUP6 PUSH1 0xFF AND PUSH1 0x4 EQ DUP1 ISZERO PUSH2 0x2019 JUMPI POP DUP5 PUSH1 0xFF AND PUSH1 0x4 EQ JUMPDEST ISZERO PUSH2 0x2066 JUMPI PUSH1 0x40 MLOAD PUSH3 0x461BCD PUSH1 0xE5 SHL DUP2 MSTORE PUSH1 0x20 PUSH1 0x4 DUP3 ADD MSTORE PUSH1 0x1 PUSH1 0x24 DUP3 ADD MSTORE PUSH32 0x6300000000000000000000000000000000000000000000000000000000000000 PUSH1 0x44 DUP3 ADD MSTORE PUSH1 0x64 ADD PUSH2 0x85D JUMP JUMPDEST PUSH1 0xFF DUP1 DUP10 AND PUSH1 0x0 SWAP1 DUP2 MSTORE PUSH1 0x22 PUSH1 0x20 SWAP1 DUP2 MSTORE PUSH1 0x40 DUP1 DUP4 KECCAK256 DUP12 DUP6 AND DUP5 MSTORE DUP3 MSTORE DUP1 DUP4 KECCAK256 DUP11 DUP6 AND DUP5 MSTORE DUP3 MSTORE DUP1 DUP4 KECCAK256 DUP10 DUP6 AND DUP5 MSTORE SWAP1 SWAP2 MSTORE DUP2 KECCAK256 SLOAD SWAP1 SWAP2 AND SWAP1 DUP2 SWAP1 SUB PUSH2 0x20EE JUMPI PUSH1 0x40 MLOAD PUSH3 0x461BCD PUSH1 0xE5 SHL DUP2 MSTORE PUSH1 0x20 PUSH1 0x4 DUP3 ADD MSTORE PUSH1 0x1 PUSH1 0x24 DUP3 ADD MSTORE PUSH32 0x6E00000000000000000000000000000000000000000000000000000000000000 PUSH1 0x44 DUP3 ADD MSTORE PUSH1 0x64 ADD PUSH2 0x85D JUMP JUMPDEST DUP1 PUSH1 0xFF AND PUSH1 0x3 SUB PUSH2 0x2115 JUMPI CALLER PUSH1 0x0 SWAP1 DUP2 MSTORE PUSH1 0x3 PUSH1 0x20 MSTORE PUSH1 0x40 SWAP1 KECCAK256 DUP1 SLOAD PUSH1 0xFF NOT AND SWAP1 SSTORE PUSH2 0x2138 JUMP JUMPDEST DUP1 PUSH1 0xFF AND PUSH1 0x6 SUB PUSH2 0x2138 JUMPI CALLER PUSH1 0x0 SWAP1 DUP2 MSTORE PUSH1 0x4 PUSH1 0x20 MSTORE PUSH1 0x40 SWAP1 KECCAK256 DUP1 SLOAD PUSH1 0xFF NOT AND SWAP1 SSTORE JUMPDEST POP POP POP PUSH1 0xFF SWAP6 DUP7 AND PUSH1 0x0 SWAP1 DUP2 MSTORE PUSH1 0x22 PUSH1 0x20 SWAP1 DUP2 MSTORE PUSH1 0x40 DUP1 DUP4 KECCAK256 SWAP8 DUP10 AND DUP4 MSTORE SWAP7 DUP2 MSTORE DUP7 DUP3 KECCAK256 SWAP6 DUP9 AND DUP3 MSTORE SWAP5 DUP6 MSTORE DUP6 DUP2 KECCAK256 SWAP4 SWAP1 SWAP7 AND DUP7 MSTORE POP POP SWAP1 MSTORE SWAP1 KECCAK256 DUP1 SLOAD PUSH1 0xFF NOT AND SWAP1 SSTORE JUMP JUMPDEST PUSH1 0x8 SLOAD PUSH1 0x1 PUSH1 0x1 PUSH1 0xA0 SHL SUB AND CALLER EQ PUSH2 0x21D7 JUMPI PUSH1 0x40 MLOAD PUSH3 0x461BCD PUSH1 0xE5 SHL DUP2 MSTORE PUSH1 0x20 PUSH1 0x4 DUP3 ADD MSTORE PUSH1 0x1 PUSH1 0x24 DUP3 ADD MSTORE PUSH32 0x6100000000000000000000000000000000000000000000000000000000000000 PUSH1 0x44 DUP3 ADD MSTORE PUSH1 0x64 ADD PUSH2 0x85D JUMP JUMPDEST PUSH1 0xFF DUP1 DUP4 AND PUSH1 0x0 SWAP1 DUP2 MSTORE PUSH1 0x21 PUSH1 0x20 SWAP1 DUP2 MSTORE PUSH1 0x40 DUP1 DUP4 KECCAK256 SWAP4 DUP6 AND DUP4 MSTORE SWAP3 SWAP1 MSTORE KECCAK256 PUSH2 0x2201 DUP2 DUP5 DUP5 PUSH2 0x3662 JUMP JUMPDEST POP POP POP JUMP JUMPDEST PUSH1 0x8 SLOAD PUSH1 0x1 PUSH1 0x1 PUSH1 0xA0 SHL SUB AND CALLER EQ PUSH2 0x2260 JUMPI PUSH1 0x40 MLOAD PUSH3 0x461BCD PUSH1 0xE5 SHL DUP2 MSTORE PUSH1 0x20 PUSH1 0x4 DUP3 ADD MSTORE PUSH1 0x1 PUSH1 0x24 DUP3 ADD MSTORE PUSH32 0x6100000000000000000000000000000000000000000000000000000000000000 PUSH1 0x44 DUP3 ADD MSTORE PUSH1 0x64 ADD PUSH2 0x85D JUMP JUMPDEST PUSH1 0xFF SWAP3 DUP4 AND PUSH1 0x0 SWAP1 DUP2 MSTORE PUSH1 0x6 PUSH1 0x20 SWAP1 DUP2 MSTORE PUSH1 0x40 DUP1 DUP4 KECCAK256 SWAP5 SWAP1 SWAP6 AND DUP3 MSTORE SWAP3 SWAP1 SWAP3 MSTORE SWAP2 SWAP1 KECCAK256 DUP1 SLOAD PUSH1 0xFF NOT AND SWAP2 ISZERO ISZERO SWAP2 SWAP1 SWAP2 OR SWAP1 SSTORE JUMP JUMPDEST PUSH2 0x2317 PUSH1 0x40 MLOAD DUP1 PUSH2 0x1E0 ADD PUSH1 0x40 MSTORE DUP1 PUSH1 0x0 DUP2 MSTORE PUSH1 0x20 ADD PUSH1 0x0 DUP2 MSTORE PUSH1 0x20 ADD PUSH1 0x0 DUP2 MSTORE PUSH1 0x20 ADD PUSH1 0x0 DUP2 MSTORE PUSH1 0x20 ADD PUSH1 0x0 PUSH2 0xFFFF AND DUP2 MSTORE PUSH1 0x20 ADD PUSH1 0x0 DUP2 MSTORE PUSH1 0x20 ADD PUSH1 0x0 DUP2 MSTORE PUSH1 0x20 ADD PUSH1 0x0 DUP2 MSTORE PUSH1 0x20 ADD PUSH1 0x0 DUP2 MSTORE PUSH1 0x20 ADD PUSH1 0x0 DUP2 MSTORE PUSH1 0x20 ADD PUSH1 0x0 DUP2 MSTORE PUSH1 0x20 ADD PUSH1 0x0 DUP2 MSTORE PUSH1 0x20 ADD PUSH1 0x0 PUSH1 0xFF AND DUP2 MSTORE PUSH1 0x20 ADD PUSH1 0x0 PUSH1 0xFF AND DUP2 MSTORE PUSH1 0x20 ADD PUSH1 0x0 DUP2 MSTORE POP SWAP1 JUMP JUMPDEST POP PUSH1 0xFF SWAP2 DUP3 AND PUSH1 0x0 SWAP1 DUP2 MSTORE PUSH1 0x21 PUSH1 0x20 SWAP1 DUP2 MSTORE PUSH1 0x40 DUP1 DUP4 KECCAK256 SWAP4 DUP6 AND DUP4 MSTORE SWAP3 DUP2 MSTORE SWAP1 DUP3 SWAP1 KECCAK256 DUP3 MLOAD PUSH2 0x1E0 DUP2 ADD DUP5 MSTORE DUP2 SLOAD DUP2 MSTORE PUSH1 0x1 DUP3 ADD SLOAD SWAP3 DUP2 ADD SWAP3 SWAP1 SWAP3 MSTORE PUSH1 0x2 DUP2 ADD SLOAD SWAP3 DUP3 ADD SWAP3 SWAP1 SWAP3 MSTORE PUSH1 0x3 DUP3 ADD SLOAD PUSH1 0x60 DUP3 ADD MSTORE PUSH1 0x4 DUP3 ADD SLOAD PUSH2 0xFFFF AND PUSH1 0x80 DUP3 ADD MSTORE PUSH1 0x5 DUP3 ADD SLOAD PUSH1 0xA0 DUP3 ADD MSTORE PUSH1 0x8 DUP3 ADD SLOAD PUSH1 0xC0 DUP3 ADD MSTORE PUSH1 0x9 DUP3 ADD SLOAD PUSH1 0xE0 DUP3 ADD MSTORE PUSH1 0xA DUP3 ADD SLOAD PUSH2 0x100 DUP1 DUP4 ADD SWAP2 SWAP1 SWAP2 MSTORE PUSH1 0xB DUP4 ADD SLOAD PUSH2 0x120 DUP4 ADD MSTORE PUSH1 0xC DUP4 ADD SLOAD PUSH2 0x140 DUP4 ADD MSTORE PUSH1 0xD DUP4 ADD SLOAD PUSH2 0x160 DUP4 ADD MSTORE PUSH1 0xE DUP4 ADD SLOAD DUP1 DUP6 AND PUSH2 0x180 DUP5 ADD MSTORE DIV SWAP1 SWAP3 AND PUSH2 0x1A0 DUP4 ADD MSTORE PUSH1 0xF ADD SLOAD PUSH2 0x1C0 DUP3 ADD MSTORE SWAP1 JUMP JUMPDEST PUSH2 0x23F2 PUSH2 0x36C2 JUMP JUMPDEST PUSH1 0x0 SLOAD PUSH1 0x40 MLOAD PUSH4 0x8A888953 PUSH1 0xE0 SHL DUP2 MSTORE PUSH1 0xFF DUP1 DUP7 AND PUSH1 0x4 DUP4 ADD MSTORE DUP5 AND PUSH1 0x24 DUP3 ADD MSTORE DUP5 SWAP2 DUP5 SWAP2 CALLER SWAP2 PUSH1 0x1 PUSH1 0x1 PUSH1 0xA0 SHL SUB AND SWAP1 PUSH4 0x8A888953 SWAP1 PUSH1 0x44 ADD PUSH1 0x20 PUSH1 0x40 MLOAD DUP1 DUP4 SUB DUP2 DUP7 GAS STATICCALL ISZERO DUP1 ISZERO PUSH2 0x2449 JUMPI RETURNDATASIZE PUSH1 0x0 DUP1 RETURNDATACOPY RETURNDATASIZE PUSH1 0x0 REVERT JUMPDEST POP POP POP POP PUSH1 0x40 MLOAD RETURNDATASIZE PUSH1 0x1F NOT PUSH1 0x1F DUP3 ADD AND DUP3 ADD DUP1 PUSH1 0x40 MSTORE POP DUP2 ADD SWAP1 PUSH2 0x246D SWAP2 SWAP1 PUSH2 0x3BDD JUMP JUMPDEST PUSH1 0x1 PUSH1 0x1 PUSH1 0xA0 SHL SUB AND EQ PUSH2 0x24A9 JUMPI PUSH1 0x40 MLOAD PUSH3 0x461BCD PUSH1 0xE5 SHL DUP2 MSTORE PUSH1 0x20 PUSH1 0x4 DUP3 ADD MSTORE PUSH1 0x3 PUSH1 0x24 DUP3 ADD MSTORE PUSH3 0x37BBB7 PUSH1 0xE9 SHL PUSH1 0x44 DUP3 ADD MSTORE PUSH1 0x64 ADD PUSH2 0x85D JUMP JUMPDEST PUSH2 0x24B1 PUSH2 0x36C2 JUMP JUMPDEST PUSH1 0x0 JUMPDEST PUSH1 0x9 PUSH1 0xFF DUP3 AND LT ISZERO PUSH2 0x2568 JUMPI PUSH1 0x0 JUMPDEST PUSH1 0x9 PUSH1 0xFF DUP3 AND LT ISZERO PUSH2 0x2555 JUMPI PUSH1 0xFF DUP1 DUP10 AND PUSH1 0x0 SWAP1 DUP2 MSTORE PUSH1 0x22 PUSH1 0x20 SWAP1 DUP2 MSTORE PUSH1 0x40 DUP1 DUP4 KECCAK256 DUP12 DUP6 AND DUP5 MSTORE DUP3 MSTORE DUP1 DUP4 KECCAK256 DUP7 DUP6 AND DUP1 DUP6 MSTORE SWAP1 DUP4 MSTORE DUP2 DUP5 KECCAK256 DUP7 DUP7 AND DUP6 MSTORE SWAP1 SWAP3 MSTORE SWAP1 SWAP2 KECCAK256 SLOAD SWAP1 SWAP2 AND SWAP1 DUP5 SWAP1 PUSH1 0x9 DUP2 LT PUSH2 0x251D JUMPI PUSH2 0x251D PUSH2 0x3CE1 JUMP JUMPDEST PUSH1 0x20 MUL ADD MLOAD DUP3 PUSH1 0xFF AND PUSH1 0x9 DUP2 LT PUSH2 0x2536 JUMPI PUSH2 0x2536 PUSH2 0x3CE1 JUMP JUMPDEST PUSH1 0xFF SWAP1 SWAP3 AND PUSH1 0x20 SWAP3 SWAP1 SWAP3 MUL ADD MSTORE DUP1 PUSH2 0x254D DUP2 PUSH2 0x3CC2 JUMP JUMPDEST SWAP2 POP POP PUSH2 0x24C3 JUMP JUMPDEST POP DUP1 PUSH2 0x2560 DUP2 PUSH2 0x3CC2 JUMP JUMPDEST SWAP2 POP POP PUSH2 0x24B4 JUMP JUMPDEST POP SWAP3 POP JUMPDEST POP POP SWAP3 SWAP2 POP POP JUMP JUMPDEST PUSH1 0x0 SLOAD PUSH1 0x40 MLOAD PUSH4 0x8A888953 PUSH1 0xE0 SHL DUP2 MSTORE PUSH1 0xFF DUP1 DUP6 AND PUSH1 0x4 DUP4 ADD MSTORE DUP4 AND PUSH1 0x24 DUP3 ADD MSTORE DUP4 SWAP2 DUP4 SWAP2 CALLER SWAP2 PUSH1 0x1 PUSH1 0x1 PUSH1 0xA0 SHL SUB AND SWAP1 PUSH4 0x8A888953 SWAP1 PUSH1 0x44 ADD PUSH1 0x20 PUSH1 0x40 MLOAD DUP1 DUP4 SUB DUP2 DUP7 GAS STATICCALL ISZERO DUP1 ISZERO PUSH2 0x25CB JUMPI RETURNDATASIZE PUSH1 0x0 DUP1 RETURNDATACOPY RETURNDATASIZE PUSH1 0x0 REVERT JUMPDEST POP POP POP POP PUSH1 0x40 MLOAD RETURNDATASIZE PUSH1 0x1F NOT PUSH1 0x1F DUP3 ADD AND DUP3 ADD DUP1 PUSH1 0x40 MSTORE POP DUP2 ADD SWAP1 PUSH2 0x25EF SWAP2 SWAP1 PUSH2 0x3BDD JUMP JUMPDEST PUSH1 0x1 PUSH1 0x1 PUSH1 0xA0 SHL SUB AND EQ PUSH2 0x262B JUMPI PUSH1 0x40 MLOAD PUSH3 0x461BCD PUSH1 0xE5 SHL DUP2 MSTORE PUSH1 0x20 PUSH1 0x4 DUP3 ADD MSTORE PUSH1 0x3 PUSH1 0x24 DUP3 ADD MSTORE PUSH3 0x37BBB7 PUSH1 0xE9 SHL PUSH1 0x44 DUP3 ADD MSTORE PUSH1 0x64 ADD PUSH2 0x85D JUMP JUMPDEST PUSH1 0xFF DUP1 DUP6 AND PUSH1 0x0 SWAP1 DUP2 MSTORE PUSH1 0x21 PUSH1 0x20 SWAP1 DUP2 MSTORE PUSH1 0x40 DUP1 DUP4 KECCAK256 SWAP4 DUP8 AND DUP4 MSTORE SWAP3 SWAP1 MSTORE SWAP1 DUP2 KECCAK256 PUSH1 0x7 ADD SLOAD PUSH2 0x265A SWAP1 TIMESTAMP PUSH2 0x3C3C JUMP JUMPDEST PUSH2 0x2665 SWAP1 PUSH1 0x3C PUSH2 0x3C68 JUMP JUMPDEST PUSH1 0xFF DUP1 DUP8 AND PUSH1 0x0 SWAP1 DUP2 MSTORE PUSH1 0x21 PUSH1 0x20 SWAP1 DUP2 MSTORE PUSH1 0x40 DUP1 DUP4 KECCAK256 SWAP4 DUP10 AND DUP4 MSTORE SWAP3 SWAP1 MSTORE KECCAK256 PUSH1 0x6 ADD SLOAD PUSH2 0x2696 SWAP2 SWAP1 PUSH2 0xFFFF AND PUSH2 0x3C29 JUMP JUMPDEST SWAP1 POP PUSH2 0x258 DUP2 GT PUSH2 0x26A7 JUMPI DUP1 PUSH2 0x26AB JUMP JUMPDEST PUSH2 0x258 JUMPDEST PUSH1 0xFF SWAP6 DUP7 AND PUSH1 0x0 SWAP1 DUP2 MSTORE PUSH1 0x21 PUSH1 0x20 SWAP1 DUP2 MSTORE PUSH1 0x40 DUP1 DUP4 KECCAK256 SWAP8 SWAP1 SWAP9 AND DUP3 MSTORE SWAP6 SWAP1 SWAP6 MSTORE SWAP5 SWAP1 SWAP4 KECCAK256 PUSH1 0x6 ADD DUP1 SLOAD PUSH2 0xFFFF NOT AND PUSH2 0xFFFF SWAP1 SWAP6 AND SWAP5 SWAP1 SWAP5 OR SWAP1 SWAP4 SSTORE POP POP POP JUMP JUMPDEST PUSH1 0x0 SLOAD PUSH1 0x40 MLOAD PUSH4 0x8A888953 PUSH1 0xE0 SHL DUP2 MSTORE PUSH1 0xFF DUP1 DUP6 AND PUSH1 0x4 DUP4 ADD MSTORE DUP4 AND PUSH1 0x24 DUP3 ADD MSTORE DUP4 SWAP2 DUP4 SWAP2 CALLER SWAP2 PUSH1 0x1 PUSH1 0x1 PUSH1 0xA0 SHL SUB AND SWAP1 PUSH4 0x8A888953 SWAP1 PUSH1 0x44 ADD PUSH1 0x20 PUSH1 0x40 MLOAD DUP1 DUP4 SUB DUP2 DUP7 GAS STATICCALL ISZERO DUP1 ISZERO PUSH2 0x2742 JUMPI RETURNDATASIZE PUSH1 0x0 DUP1 RETURNDATACOPY RETURNDATASIZE PUSH1 0x0 REVERT JUMPDEST POP POP POP POP PUSH1 0x40 MLOAD RETURNDATASIZE PUSH1 0x1F NOT PUSH1 0x1F DUP3 ADD AND DUP3 ADD DUP1 PUSH1 0x40 MSTORE POP DUP2 ADD SWAP1 PUSH2 0x2766 SWAP2 SWAP1 PUSH2 0x3BDD JUMP JUMPDEST PUSH1 0x1 PUSH1 0x1 PUSH1 0xA0 SHL SUB AND EQ PUSH2 0x27A2 JUMPI PUSH1 0x40 MLOAD PUSH3 0x461BCD PUSH1 0xE5 SHL DUP2 MSTORE PUSH1 0x20 PUSH1 0x4 DUP3 ADD MSTORE PUSH1 0x3 PUSH1 0x24 DUP3 ADD MSTORE PUSH3 0x37BBB7 PUSH1 0xE9 SHL PUSH1 0x44 DUP3 ADD MSTORE PUSH1 0x64 ADD PUSH2 0x85D JUMP JUMPDEST PUSH1 0x0 DUP6 PUSH2 0xFFFF AND GT PUSH2 0x27F6 JUMPI PUSH1 0x40 MLOAD PUSH3 0x461BCD PUSH1 0xE5 SHL DUP2 MSTORE PUSH1 0x20 PUSH1 0x4 DUP3 ADD MSTORE PUSH1 0x1 PUSH1 0x24 DUP3 ADD MSTORE PUSH32 0x3000000000000000000000000000000000000000000000000000000000000000 PUSH1 0x44 DUP3 ADD MSTORE PUSH1 0x64 ADD PUSH2 0x85D JUMP JUMPDEST PUSH2 0x2800 DUP5 DUP5 PUSH2 0x2574 JUMP JUMPDEST PUSH1 0xFF DUP1 DUP6 AND PUSH1 0x0 SWAP1 DUP2 MSTORE PUSH1 0x21 PUSH1 0x20 SWAP1 DUP2 MSTORE PUSH1 0x40 DUP1 DUP4 KECCAK256 SWAP4 DUP8 AND DUP4 MSTORE SWAP3 SWAP1 MSTORE KECCAK256 PUSH1 0x6 ADD SLOAD PUSH2 0xFFFF DUP1 DUP8 AND SWAP2 AND LT ISZERO PUSH2 0x2879 JUMPI PUSH1 0x40 MLOAD PUSH3 0x461BCD PUSH1 0xE5 SHL DUP2 MSTORE PUSH1 0x20 PUSH1 0x4 DUP3 ADD MSTORE PUSH1 0x1 PUSH1 0x24 DUP3 ADD MSTORE PUSH32 0x7400000000000000000000000000000000000000000000000000000000000000 PUSH1 0x44 DUP3 ADD MSTORE PUSH1 0x64 ADD PUSH2 0x85D JUMP JUMPDEST PUSH1 0xFF DUP1 DUP6 AND PUSH1 0x0 SWAP1 DUP2 MSTORE PUSH1 0x21 PUSH1 0x20 SWAP1 DUP2 MSTORE PUSH1 0x40 DUP1 DUP4 KECCAK256 SWAP4 DUP8 AND DUP4 MSTORE SWAP3 SWAP1 MSTORE KECCAK256 PUSH1 0x5 ADD SLOAD PUSH2 0x28A8 SWAP1 PUSH2 0x3E8 PUSH2 0x3C3C JUMP JUMPDEST DUP6 PUSH2 0xFFFF AND GT ISZERO PUSH2 0x28E5 JUMPI PUSH1 0xFF DUP1 DUP6 AND PUSH1 0x0 SWAP1 DUP2 MSTORE PUSH1 0x21 PUSH1 0x20 SWAP1 DUP2 MSTORE PUSH1 0x40 DUP1 DUP4 KECCAK256 SWAP4 DUP8 AND DUP4 MSTORE SWAP3 SWAP1 MSTORE KECCAK256 PUSH1 0x5 ADD SLOAD PUSH2 0x28E2 SWAP1 PUSH2 0x3E8 PUSH2 0x3C3C JUMP JUMPDEST SWAP5 POP JUMPDEST PUSH1 0xFF DUP1 DUP6 AND PUSH1 0x0 SWAP1 DUP2 MSTORE PUSH1 0x21 PUSH1 0x20 SWAP1 DUP2 MSTORE PUSH1 0x40 DUP1 DUP4 KECCAK256 SWAP4 DUP8 AND DUP4 MSTORE SWAP3 SWAP1 MSTORE KECCAK256 PUSH1 0x6 ADD SLOAD PUSH2 0x2917 SWAP1 DUP7 SWAP1 PUSH2 0xFFFF AND PUSH2 0x3D10 JUMP JUMPDEST PUSH1 0xFF DUP6 DUP2 AND PUSH1 0x0 SWAP1 DUP2 MSTORE PUSH1 0x21 PUSH1 0x20 SWAP1 DUP2 MSTORE PUSH1 0x40 DUP1 DUP4 KECCAK256 SWAP4 DUP9 AND DUP4 MSTORE SWAP3 SWAP1 MSTORE SWAP1 DUP2 KECCAK256 PUSH1 0x6 DUP2 ADD DUP1 SLOAD PUSH2 0xFFFF NOT AND PUSH2 0xFFFF SWAP5 SWAP1 SWAP5 AND SWAP4 SWAP1 SWAP4 OR SWAP1 SWAP3 SSTORE TIMESTAMP PUSH1 0x7 SWAP1 SWAP3 ADD SWAP2 SWAP1 SWAP2 SSTORE PUSH2 0x2967 DUP6 DUP6 PUSH1 0x5 PUSH2 0x3358 JUMP JUMPDEST SWAP1 POP PUSH2 0x2974 PUSH1 0x1 DUP3 PUSH2 0x3C29 JUMP JUMPDEST PUSH1 0x1 SLOAD PUSH1 0x40 MLOAD PUSH32 0x2A2026A900000000000000000000000000000000000000000000000000000000 DUP2 MSTORE PUSH1 0xFF DUP1 DUP10 AND PUSH1 0x4 DUP4 ADD MSTORE DUP8 AND PUSH1 0x24 DUP3 ADD MSTORE SWAP2 SWAP3 POP PUSH1 0x0 SWAP2 PUSH1 0x1 PUSH1 0x1 PUSH1 0xA0 SHL SUB SWAP1 SWAP2 AND SWAP1 PUSH4 0x2A2026A9 SWAP1 PUSH1 0x44 ADD PUSH1 0x20 PUSH1 0x40 MLOAD DUP1 DUP4 SUB DUP2 DUP7 GAS STATICCALL ISZERO DUP1 ISZERO PUSH2 0x29E6 JUMPI RETURNDATASIZE PUSH1 0x0 DUP1 RETURNDATACOPY RETURNDATASIZE PUSH1 0x0 REVERT JUMPDEST POP POP POP POP PUSH1 0x40 MLOAD RETURNDATASIZE PUSH1 0x1F NOT PUSH1 0x1F DUP3 ADD AND DUP3 ADD DUP1 PUSH1 0x40 MSTORE POP DUP2 ADD SWAP1 PUSH2 0x2A0A SWAP2 SWAP1 PUSH2 0x3D32 JUMP JUMPDEST PUSH1 0xFF DUP1 DUP9 AND PUSH1 0x0 SWAP1 DUP2 MSTORE PUSH1 0x21 PUSH1 0x20 SWAP1 DUP2 MSTORE PUSH1 0x40 DUP1 DUP4 KECCAK256 DUP11 DUP6 AND DUP5 MSTORE SWAP1 SWAP2 MSTORE SWAP1 KECCAK256 SWAP2 SWAP3 POP DUP3 AND PUSH1 0x1 SUB PUSH2 0x2A61 JUMPI PUSH2 0x2A44 DUP4 PUSH2 0xFFFF DUP11 AND PUSH2 0x3C68 JUMP JUMPDEST DUP2 SLOAD DUP3 SWAP1 PUSH1 0x0 SWAP1 PUSH2 0x2A56 SWAP1 DUP5 SWAP1 PUSH2 0x3C29 JUMP JUMPDEST SWAP1 SWAP2 SSTORE POP PUSH2 0x2AEE SWAP1 POP JUMP JUMPDEST DUP2 PUSH1 0xFF AND PUSH1 0x2 SUB PUSH2 0x2A8E JUMPI PUSH2 0x2A7A DUP4 PUSH2 0xFFFF DUP11 AND PUSH2 0x3C68 JUMP JUMPDEST PUSH1 0x1 DUP3 ADD DUP1 SLOAD PUSH1 0x0 SWAP1 PUSH2 0x2A56 SWAP1 DUP5 SWAP1 PUSH2 0x3C29 JUMP JUMPDEST DUP2 PUSH1 0xFF AND PUSH1 0x3 SUB PUSH2 0x2ABB JUMPI PUSH2 0x2AA7 DUP4 PUSH2 0xFFFF DUP11 AND PUSH2 0x3C68 JUMP JUMPDEST PUSH1 0x2 DUP3 ADD DUP1 SLOAD PUSH1 0x0 SWAP1 PUSH2 0x2A56 SWAP1 DUP5 SWAP1 PUSH2 0x3C29 JUMP JUMPDEST DUP2 PUSH1 0xFF AND PUSH1 0x4 SUB PUSH2 0x2AEE JUMPI PUSH2 0x2AD4 DUP4 PUSH2 0xFFFF DUP11 AND PUSH2 0x3C68 JUMP JUMPDEST PUSH1 0x3 DUP3 ADD DUP1 SLOAD PUSH1 0x0 SWAP1 PUSH2 0x2AE8 SWAP1 DUP5 SWAP1 PUSH2 0x3C29 JUMP JUMPDEST SWAP1 SWAP2 SSTORE POP POP JUMPDEST PUSH2 0x2AFC DUP4 PUSH2 0xFFFF DUP11 AND PUSH2 0x3C68 JUMP JUMPDEST DUP2 SLOAD DUP3 SWAP1 PUSH1 0x0 SWAP1 PUSH2 0x2B0E SWAP1 DUP5 SWAP1 PUSH2 0x3C29 JUMP JUMPDEST SWAP1 SWAP2 SSTORE POP PUSH2 0x2B22 SWAP1 POP DUP4 PUSH2 0xFFFF DUP11 AND PUSH2 0x3C68 JUMP JUMPDEST PUSH1 0x1 DUP3 ADD DUP1 SLOAD PUSH1 0x0 SWAP1 PUSH2 0x2B36 SWAP1 DUP5 SWAP1 PUSH2 0x3C29 JUMP JUMPDEST SWAP1 SWAP2 SSTORE POP PUSH2 0x2B4A SWAP1 POP DUP4 PUSH2 0xFFFF DUP11 AND PUSH2 0x3C68 JUMP JUMPDEST PUSH1 0x2 DUP3 ADD DUP1 SLOAD PUSH1 0x0 SWAP1 PUSH2 0x2B5E SWAP1 DUP5 SWAP1 PUSH2 0x3C29 JUMP JUMPDEST SWAP1 SWAP2 SSTORE POP PUSH2 0x2B72 SWAP1 POP DUP4 PUSH2 0xFFFF DUP11 AND PUSH2 0x3C68 JUMP JUMPDEST PUSH1 0x3 DUP3 ADD DUP1 SLOAD PUSH1 0x0 SWAP1 PUSH2 0x2B86 SWAP1 DUP5 SWAP1 PUSH2 0x3C29 JUMP JUMPDEST SWAP3 POP POP DUP2 SWAP1 SSTORE POP DUP8 PUSH2 0xFFFF AND DUP2 PUSH1 0x5 ADD PUSH1 0x0 DUP3 DUP3 SLOAD PUSH2 0x2BA5 SWAP2 SWAP1 PUSH2 0x3C29 JUMP JUMPDEST SWAP1 SWAP2 SSTORE POP POP PUSH1 0x5 DUP2 ADD SLOAD PUSH1 0x0 SWAP1 PUSH2 0x2BBF SWAP1 PUSH2 0x3E8 SWAP1 PUSH2 0x3CAE JUMP JUMPDEST SWAP1 POP PUSH2 0x3E8 DUP3 PUSH1 0x5 ADD PUSH1 0x0 DUP3 DUP3 SLOAD PUSH2 0x2BD7 SWAP2 SWAP1 PUSH2 0x3D4F JUMP JUMPDEST SWAP1 SWAP2 SSTORE POP POP PUSH1 0x4 DUP3 ADD SLOAD PUSH1 0x0 SWAP1 PUSH2 0x2BF3 SWAP1 DUP4 SWAP1 PUSH2 0xFFFF AND PUSH2 0x3D63 JUMP JUMPDEST SWAP1 POP PUSH2 0x1F4 DUP2 PUSH2 0xFFFF AND GT ISZERO PUSH2 0x2C19 JUMPI PUSH1 0x4 DUP4 ADD DUP1 SLOAD PUSH2 0xFFFF NOT AND PUSH2 0x1F4 OR SWAP1 SSTORE PUSH2 0x2C2D JUMP JUMPDEST PUSH1 0x4 DUP4 ADD DUP1 SLOAD PUSH2 0xFFFF NOT AND PUSH2 0xFFFF DUP4 AND OR SWAP1 SSTORE JUMPDEST PUSH2 0x2C38 DUP4 DUP11 DUP11 PUSH2 0x3662 JUMP JUMPDEST PUSH1 0xFF DUP1 DUP11 AND PUSH1 0x0 SWAP1 DUP2 MSTORE PUSH1 0x2 PUSH1 0x20 SWAP1 DUP2 MSTORE PUSH1 0x40 DUP1 DUP4 KECCAK256 SWAP4 DUP13 AND DUP4 MSTORE SWAP3 SWAP1 MSTORE SWAP1 DUP2 KECCAK256 DUP1 SLOAD PUSH2 0xFFFF DUP14 AND SWAP3 SWAP1 PUSH2 0x2C6D SWAP1 DUP5 SWAP1 PUSH2 0x3C29 JUMP JUMPDEST SWAP1 SWAP2 SSTORE POP POP PUSH1 0xFF DUP1 DUP11 AND PUSH1 0x0 SWAP1 DUP2 MSTORE PUSH1 0x6 PUSH1 0x20 SWAP1 DUP2 MSTORE PUSH1 0x40 DUP1 DUP4 KECCAK256 SWAP4 DUP13 AND DUP4 MSTORE SWAP3 SWAP1 MSTORE KECCAK256 DUP1 SLOAD PUSH1 0xFF NOT AND SWAP1 SSTORE PUSH1 0x40 DUP1 MLOAD PUSH2 0xFFFF DUP13 AND DUP2 MSTORE PUSH1 0xFF DUP1 DUP13 AND PUSH1 0x20 DUP4 ADD MSTORE DUP11 AND SWAP2 DUP2 ADD SWAP2 SWAP1 SWAP2 MSTORE CALLER SWAP1 PUSH32 0xBB5B4F7847476E1912E2B57D030B0E491D0D72B2EF256CCEEA9DAA41F40F5D18 SWAP1 PUSH1 0x60 ADD PUSH1 0x40 MLOAD DUP1 SWAP2 SUB SWAP1 LOG2 POP POP POP POP POP POP POP POP POP POP JUMP JUMPDEST PUSH1 0x0 DUP1 SLOAD PUSH1 0x40 MLOAD PUSH4 0x8A888953 PUSH1 0xE0 SHL DUP2 MSTORE PUSH1 0xFF DUP1 DUP7 AND PUSH1 0x4 DUP4 ADD MSTORE DUP5 AND PUSH1 0x24 DUP3 ADD MSTORE DUP5 SWAP2 DUP5 SWAP2 CALLER SWAP2 PUSH1 0x1 PUSH1 0x1 PUSH1 0xA0 SHL SUB AND SWAP1 PUSH4 0x8A888953 SWAP1 PUSH1 0x44 ADD PUSH1 0x20 PUSH1 0x40 MLOAD DUP1 DUP4 SUB DUP2 DUP7 GAS STATICCALL ISZERO DUP1 ISZERO PUSH2 0x2D4A JUMPI RETURNDATASIZE PUSH1 0x0 DUP1 RETURNDATACOPY RETURNDATASIZE PUSH1 0x0 REVERT JUMPDEST POP POP POP POP PUSH1 0x40 MLOAD RETURNDATASIZE PUSH1 0x1F NOT PUSH1 0x1F DUP3 ADD AND DUP3 ADD DUP1 PUSH1 0x40 MSTORE POP DUP2 ADD SWAP1 PUSH2 0x2D6E SWAP2 SWAP1 PUSH2 0x3BDD JUMP JUMPDEST PUSH1 0x1 PUSH1 0x1 PUSH1 0xA0 SHL SUB AND EQ PUSH2 0x2DAA JUMPI PUSH1 0x40 MLOAD PUSH3 0x461BCD PUSH1 0xE5 SHL DUP2 MSTORE PUSH1 0x20 PUSH1 0x4 DUP3 ADD MSTORE PUSH1 0x3 PUSH1 0x24 DUP3 ADD MSTORE PUSH3 0x37BBB7 PUSH1 0xE9 SHL PUSH1 0x44 DUP3 ADD MSTORE PUSH1 0x64 ADD PUSH2 0x85D JUMP JUMPDEST PUSH1 0xFF DUP1 DUP7 AND PUSH1 0x0 SWAP1 DUP2 MSTORE PUSH1 0x21 PUSH1 0x20 SWAP1 DUP2 MSTORE PUSH1 0x40 DUP1 DUP4 KECCAK256 SWAP4 DUP9 AND DUP4 MSTORE SWAP3 SWAP1 MSTORE KECCAK256 PUSH1 0x7 ADD SLOAD PUSH2 0x258 SWAP1 PUSH2 0x2DDB SWAP1 TIMESTAMP PUSH2 0x3C3C JUMP JUMPDEST PUSH2 0x2DE6 SWAP1 PUSH1 0x3C PUSH2 0x3C68 JUMP JUMPDEST PUSH1 0xFF DUP1 DUP9 AND PUSH1 0x0 SWAP1 DUP2 MSTORE PUSH1 0x21 PUSH1 0x20 SWAP1 DUP2 MSTORE PUSH1 0x40 DUP1 DUP4 KECCAK256 SWAP4 DUP11 AND DUP4 MSTORE SWAP3 SWAP1 MSTORE KECCAK256 PUSH1 0x6 ADD SLOAD PUSH2 0x2E17 SWAP2 SWAP1 PUSH2 0xFFFF AND PUSH2 0x3C29 JUMP JUMPDEST GT ISZERO PUSH2 0x2E27 JUMPI PUSH2 0x258 SWAP3 POP PUSH2 0x256C JUMP JUMPDEST PUSH1 0xFF DUP1 DUP7 AND PUSH1 0x0 SWAP1 DUP2 MSTORE PUSH1 0x21 PUSH1 0x20 SWAP1 DUP2 MSTORE PUSH1 0x40 DUP1 DUP4 KECCAK256 SWAP4 DUP9 AND DUP4 MSTORE SWAP3 SWAP1 MSTORE KECCAK256 PUSH1 0x7 ADD SLOAD PUSH2 0x2E54 SWAP1 TIMESTAMP PUSH2 0x3C3C JUMP JUMPDEST PUSH2 0x2E5F SWAP1 PUSH1 0x3C PUSH2 0x3C68 JUMP JUMPDEST PUSH1 0xFF DUP1 DUP8 AND PUSH1 0x0 SWAP1 DUP2 MSTORE PUSH1 0x21 PUSH1 0x20 SWAP1 DUP2 MSTORE PUSH1 0x40 DUP1 DUP4 KECCAK256 SWAP4 DUP10 AND DUP4 MSTORE SWAP3 SWAP1 MSTORE KECCAK256 PUSH1 0x6 ADD SLOAD PUSH2 0x2E90 SWAP2 SWAP1 PUSH2 0xFFFF AND PUSH2 0x3C29 JUMP JUMPDEST SWAP3 POP PUSH2 0x256C JUMP JUMPDEST PUSH1 0x0 SLOAD PUSH1 0x40 MLOAD PUSH4 0x8A888953 PUSH1 0xE0 SHL DUP2 MSTORE PUSH1 0xFF DUP1 DUP8 AND PUSH1 0x4 DUP4 ADD MSTORE DUP6 AND PUSH1 0x24 DUP3 ADD MSTORE DUP6 SWAP2 DUP6 SWAP2 CALLER SWAP2 PUSH1 0x1 PUSH1 0x1 PUSH1 0xA0 SHL SUB AND SWAP1 PUSH4 0x8A888953 SWAP1 PUSH1 0x44 ADD PUSH1 0x20 PUSH1 0x40 MLOAD DUP1 DUP4 SUB DUP2 DUP7 GAS STATICCALL ISZERO DUP1 ISZERO PUSH2 0x2EEE JUMPI RETURNDATASIZE PUSH1 0x0 DUP1 RETURNDATACOPY RETURNDATASIZE PUSH1 0x0 REVERT JUMPDEST POP POP POP POP PUSH1 0x40 MLOAD RETURNDATASIZE PUSH1 0x1F NOT PUSH1 0x1F DUP3 ADD AND DUP3 ADD DUP1 PUSH1 0x40 MSTORE POP DUP2 ADD SWAP1 PUSH2 0x2F12 SWAP2 SWAP1 PUSH2 0x3BDD JUMP JUMPDEST PUSH1 0x1 PUSH1 0x1 PUSH1 0xA0 SHL SUB AND EQ PUSH2 0x2F4E JUMPI PUSH1 0x40 MLOAD PUSH3 0x461BCD PUSH1 0xE5 SHL DUP2 MSTORE PUSH1 0x20 PUSH1 0x4 DUP3 ADD MSTORE PUSH1 0x3 PUSH1 0x24 DUP3 ADD MSTORE PUSH3 0x37BBB7 PUSH1 0xE9 SHL PUSH1 0x44 DUP3 ADD MSTORE PUSH1 0x64 ADD PUSH2 0x85D JUMP JUMPDEST PUSH1 0x0 DUP4 GT PUSH2 0x2F9E JUMPI PUSH1 0x40 MLOAD PUSH3 0x461BCD PUSH1 0xE5 SHL DUP2 MSTORE PUSH1 0x20 PUSH1 0x4 DUP3 ADD MSTORE PUSH1 0x1 PUSH1 0x24 DUP3 ADD MSTORE PUSH32 0x7A00000000000000000000000000000000000000000000000000000000000000 PUSH1 0x44 DUP3 ADD MSTORE PUSH1 0x64 ADD PUSH2 0x85D JUMP JUMPDEST DUP4 PUSH1 0xFF AND PUSH1 0x1 EQ DUP1 PUSH2 0x2FB3 JUMPI POP DUP4 PUSH1 0xFF AND PUSH1 0x2 EQ JUMPDEST PUSH2 0x2FFF JUMPI PUSH1 0x40 MLOAD PUSH3 0x461BCD PUSH1 0xE5 SHL DUP2 MSTORE PUSH1 0x20 PUSH1 0x4 DUP3 ADD MSTORE PUSH1 0x1 PUSH1 0x24 DUP3 ADD MSTORE PUSH32 0x7400000000000000000000000000000000000000000000000000000000000000 PUSH1 0x44 DUP3 ADD MSTORE PUSH1 0x64 ADD PUSH2 0x85D JUMP JUMPDEST PUSH1 0x0 PUSH2 0x300D DUP8 DUP8 PUSH1 0x4 PUSH2 0x3358 JUMP JUMPDEST SWAP1 POP PUSH1 0x0 DUP2 GT PUSH2 0x305F JUMPI PUSH1 0x40 MLOAD PUSH3 0x461BCD PUSH1 0xE5 SHL DUP2 MSTORE PUSH1 0x20 PUSH1 0x4 DUP3 ADD MSTORE PUSH1 0x1 PUSH1 0x24 DUP3 ADD MSTORE PUSH32 0x7000000000000000000000000000000000000000000000000000000000000000 PUSH1 0x44 DUP3 ADD MSTORE PUSH1 0x64 ADD PUSH2 0x85D JUMP JUMPDEST PUSH1 0x0 DUP6 PUSH1 0xFF AND PUSH1 0x1 EQ PUSH2 0x3073 JUMPI PUSH1 0x1D PUSH2 0x3076 JUMP JUMPDEST PUSH1 0x19 JUMPDEST PUSH1 0x40 DUP1 MLOAD PUSH1 0x80 DUP2 ADD DUP3 MSTORE DUP3 SLOAD DUP2 MSTORE PUSH1 0x1 DUP4 ADD SLOAD PUSH1 0x20 DUP3 ADD MSTORE PUSH1 0x2 DUP4 ADD SLOAD SWAP2 DUP2 ADD SWAP2 SWAP1 SWAP2 MSTORE PUSH1 0x3 SWAP1 SWAP2 ADD SLOAD PUSH1 0x60 DUP3 ADD MSTORE SWAP1 POP PUSH2 0x30B4 DUP9 DUP9 DUP4 DUP9 DUP7 PUSH2 0x33F3 JUMP JUMPDEST PUSH1 0xFF DUP1 DUP10 AND PUSH1 0x0 SWAP1 DUP2 MSTORE PUSH1 0x21 PUSH1 0x20 SWAP1 DUP2 MSTORE PUSH1 0x40 DUP1 DUP4 KECCAK256 DUP12 DUP6 AND DUP5 MSTORE SWAP1 SWAP2 MSTORE SWAP1 KECCAK256 PUSH1 0x8 ADD SWAP1 DUP8 AND PUSH1 0x1 SUB PUSH2 0x31DB JUMPI DUP1 SLOAD DUP7 GT ISZERO PUSH2 0x3132 JUMPI PUSH1 0x40 MLOAD PUSH3 0x461BCD PUSH1 0xE5 SHL DUP2 MSTORE PUSH1 0x20 PUSH1 0x4 DUP3 ADD MSTORE PUSH1 0x2 PUSH1 0x24 DUP3 ADD MSTORE PUSH32 0x6F61000000000000000000000000000000000000000000000000000000000000 PUSH1 0x44 DUP3 ADD MSTORE PUSH1 0x64 ADD PUSH2 0x85D JUMP JUMPDEST DUP6 DUP2 PUSH1 0x2 ADD SLOAD LT ISZERO PUSH2 0x3186 JUMPI PUSH1 0x40 MLOAD PUSH3 0x461BCD PUSH1 0xE5 SHL DUP2 MSTORE PUSH1 0x20 PUSH1 0x4 DUP3 ADD MSTORE PUSH1 0x2 PUSH1 0x24 DUP3 ADD MSTORE PUSH32 0x6F77000000000000000000000000000000000000000000000000000000000000 PUSH1 0x44 DUP3 ADD MSTORE PUSH1 0x64 ADD PUSH2 0x85D JUMP JUMPDEST DUP6 DUP2 PUSH1 0x0 ADD PUSH1 0x0 DUP3 DUP3 SLOAD PUSH2 0x319A SWAP2 SWAP1 PUSH2 0x3C3C JUMP JUMPDEST SWAP3 POP POP DUP2 SWAP1 SSTORE POP DUP6 DUP2 PUSH1 0x2 ADD PUSH1 0x0 DUP3 DUP3 SLOAD PUSH2 0x31B5 SWAP2 SWAP1 PUSH2 0x3C3C JUMP JUMPDEST SWAP3 POP POP DUP2 SWAP1 SSTORE POP DUP6 DUP2 PUSH1 0x4 ADD PUSH1 0x0 DUP3 DUP3 SLOAD PUSH2 0x31D0 SWAP2 SWAP1 PUSH2 0x3C29 JUMP JUMPDEST SWAP1 SWAP2 SSTORE POP PUSH2 0x32D3 SWAP1 POP JUMP JUMPDEST DUP6 DUP2 PUSH1 0x1 ADD SLOAD LT ISZERO PUSH2 0x322F JUMPI PUSH1 0x40 MLOAD PUSH3 0x461BCD PUSH1 0xE5 SHL DUP2 MSTORE PUSH1 0x20 PUSH1 0x4 DUP3 ADD MSTORE PUSH1 0x2 PUSH1 0x24 DUP3 ADD MSTORE PUSH32 0x6461000000000000000000000000000000000000000000000000000000000000 PUSH1 0x44 DUP3 ADD MSTORE PUSH1 0x64 ADD PUSH2 0x85D JUMP JUMPDEST DUP6 DUP2 PUSH1 0x3 ADD SLOAD LT ISZERO PUSH2 0x3283 JUMPI PUSH1 0x40 MLOAD PUSH3 0x461BCD PUSH1 0xE5 SHL DUP2 MSTORE PUSH1 0x20 PUSH1 0x4 DUP3 ADD MSTORE PUSH1 0x2 PUSH1 0x24 DUP3 ADD MSTORE PUSH32 0x6477000000000000000000000000000000000000000000000000000000000000 PUSH1 0x44 DUP3 ADD MSTORE PUSH1 0x64 ADD PUSH2 0x85D JUMP JUMPDEST DUP6 DUP2 PUSH1 0x1 ADD PUSH1 0x0 DUP3 DUP3 SLOAD PUSH2 0x3297 SWAP2 SWAP1 PUSH2 0x3C3C JUMP JUMPDEST SWAP3 POP POP DUP2 SWAP1 SSTORE POP DUP6 DUP2 PUSH1 0x3 ADD PUSH1 0x0 DUP3 DUP3 SLOAD PUSH2 0x32B2 SWAP2 SWAP1 PUSH2 0x3C3C JUMP JUMPDEST SWAP3 POP POP DUP2 SWAP1 SSTORE POP DUP6 DUP2 PUSH1 0x5 ADD PUSH1 0x0 DUP3 DUP3 SLOAD PUSH2 0x32CD SWAP2 SWAP1 PUSH2 0x3C29 JUMP JUMPDEST SWAP1 SWAP2 SSTORE POP POP JUMPDEST POP POP POP POP POP POP POP POP POP JUMP JUMPDEST PUSH1 0x7 SLOAD PUSH1 0x1 PUSH1 0x1 PUSH1 0xA0 SHL SUB AND CALLER EQ PUSH2 0x331E JUMPI PUSH1 0x40 MLOAD PUSH3 0x461BCD PUSH1 0xE5 SHL DUP2 MSTORE PUSH1 0x20 PUSH1 0x4 DUP3 ADD MSTORE PUSH1 0x3 PUSH1 0x24 DUP3 ADD MSTORE PUSH3 0x37BBB7 PUSH1 0xE9 SHL PUSH1 0x44 DUP3 ADD MSTORE PUSH1 0x64 ADD PUSH2 0x85D JUMP JUMPDEST PUSH1 0x8 DUP1 SLOAD PUSH32 0xFFFFFFFFFFFFFFFFFFFFFFFF0000000000000000000000000000000000000000 AND PUSH1 0x1 PUSH1 0x1 PUSH1 0xA0 SHL SUB SWAP3 SWAP1 SWAP3 AND SWAP2 SWAP1 SWAP2 OR SWAP1 SSTORE JUMP JUMPDEST PUSH1 0x0 DUP1 DUP1 JUMPDEST PUSH1 0x9 PUSH1 0xFF DUP3 AND LT ISZERO PUSH2 0x33EA JUMPI PUSH1 0x0 JUMPDEST PUSH1 0x9 PUSH1 0xFF DUP3 AND LT ISZERO PUSH2 0x33D7 JUMPI PUSH1 0xFF DUP8 DUP2 AND PUSH1 0x0 SWAP1 DUP2 MSTORE PUSH1 0x22 PUSH1 0x20 SWAP1 DUP2 MSTORE PUSH1 0x40 DUP1 DUP4 KECCAK256 DUP11 DUP6 AND DUP5 MSTORE DUP3 MSTORE DUP1 DUP4 KECCAK256 DUP7 DUP6 AND DUP5 MSTORE DUP3 MSTORE DUP1 DUP4 KECCAK256 DUP6 DUP6 AND DUP5 MSTORE SWAP1 SWAP2 MSTORE SWAP1 KECCAK256 SLOAD DUP2 DUP8 AND SWAP2 AND SUB PUSH2 0x33C5 JUMPI DUP3 PUSH2 0x33C1 DUP2 PUSH2 0x3D7E JUMP JUMPDEST SWAP4 POP POP JUMPDEST DUP1 PUSH2 0x33CF DUP2 PUSH2 0x3CC2 JUMP JUMPDEST SWAP2 POP POP PUSH2 0x336C JUMP JUMPDEST POP DUP1 PUSH2 0x33E2 DUP2 PUSH2 0x3CC2 JUMP JUMPDEST SWAP2 POP POP PUSH2 0x335D JUMP JUMPDEST POP SWAP5 SWAP4 POP POP POP POP JUMP JUMPDEST PUSH1 0xFF DUP1 DUP7 AND PUSH1 0x0 SWAP1 DUP2 MSTORE PUSH1 0x21 PUSH1 0x20 SWAP1 DUP2 MSTORE PUSH1 0x40 DUP1 DUP4 KECCAK256 SWAP4 DUP9 AND DUP4 MSTORE SWAP3 SWAP1 MSTORE SWAP1 DUP2 KECCAK256 DUP5 MLOAD SWAP1 SWAP2 SWAP1 DUP4 SWAP1 PUSH2 0x3426 SWAP1 DUP7 SWAP1 PUSH2 0x3C68 JUMP JUMPDEST PUSH2 0x3430 SWAP2 SWAP1 PUSH2 0x3CAE JUMP JUMPDEST SWAP1 POP PUSH1 0x0 DUP4 DUP6 DUP8 PUSH1 0x20 ADD MLOAD PUSH2 0x3445 SWAP2 SWAP1 PUSH2 0x3C68 JUMP JUMPDEST PUSH2 0x344F SWAP2 SWAP1 PUSH2 0x3CAE JUMP JUMPDEST SWAP1 POP PUSH1 0x0 DUP5 DUP7 DUP9 PUSH1 0x40 ADD MLOAD PUSH2 0x3464 SWAP2 SWAP1 PUSH2 0x3C68 JUMP JUMPDEST PUSH2 0x346E SWAP2 SWAP1 PUSH2 0x3CAE JUMP JUMPDEST SWAP1 POP PUSH1 0x0 DUP6 DUP8 DUP10 PUSH1 0x60 ADD MLOAD PUSH2 0x3483 SWAP2 SWAP1 PUSH2 0x3C68 JUMP JUMPDEST PUSH2 0x348D SWAP2 SWAP1 PUSH2 0x3CAE JUMP JUMPDEST DUP6 SLOAD SWAP1 SWAP2 POP DUP5 GT ISZERO PUSH2 0x34E1 JUMPI PUSH1 0x40 MLOAD PUSH3 0x461BCD PUSH1 0xE5 SHL DUP2 MSTORE PUSH1 0x20 PUSH1 0x4 DUP3 ADD MSTORE PUSH1 0x1 PUSH1 0x24 DUP3 ADD MSTORE PUSH32 0x6600000000000000000000000000000000000000000000000000000000000000 PUSH1 0x44 DUP3 ADD MSTORE PUSH1 0x64 ADD PUSH2 0x85D JUMP JUMPDEST PUSH1 0x1 DUP6 ADD SLOAD DUP4 GT ISZERO PUSH2 0x3535 JUMPI PUSH1 0x40 MLOAD PUSH3 0x461BCD PUSH1 0xE5 SHL DUP2 MSTORE PUSH1 0x20 PUSH1 0x4 DUP3 ADD MSTORE PUSH1 0x1 PUSH1 0x24 DUP3 ADD MSTORE PUSH32 0x7700000000000000000000000000000000000000000000000000000000000000 PUSH1 0x44 DUP3 ADD MSTORE PUSH1 0x64 ADD PUSH2 0x85D JUMP JUMPDEST PUSH1 0x2 DUP6 ADD SLOAD DUP3 GT ISZERO PUSH2 0x3589 JUMPI PUSH1 0x40 MLOAD PUSH3 0x461BCD PUSH1 0xE5 SHL DUP2 MSTORE PUSH1 0x20 PUSH1 0x4 DUP3 ADD MSTORE PUSH1 0x1 PUSH1 0x24 DUP3 ADD MSTORE PUSH32 0x7300000000000000000000000000000000000000000000000000000000000000 PUSH1 0x44 DUP3 ADD MSTORE PUSH1 0x64 ADD PUSH2 0x85D JUMP JUMPDEST PUSH1 0x3 DUP6 ADD SLOAD DUP2 GT ISZERO PUSH2 0x35DD JUMPI PUSH1 0x40 MLOAD PUSH3 0x461BCD PUSH1 0xE5 SHL DUP2 MSTORE PUSH1 0x20 PUSH1 0x4 DUP3 ADD MSTORE PUSH1 0x1 PUSH1 0x24 DUP3 ADD MSTORE PUSH32 0x6900000000000000000000000000000000000000000000000000000000000000 PUSH1 0x44 DUP3 ADD MSTORE PUSH1 0x64 ADD PUSH2 0x85D JUMP JUMPDEST DUP5 SLOAD DUP5 SWAP1 DUP7 SWAP1 PUSH1 0x0 SWAP1 PUSH2 0x35F1 SWAP1 DUP5 SWAP1 PUSH2 0x3C3C JUMP JUMPDEST SWAP1 SWAP2 SSTORE POP POP PUSH1 0x1 DUP6 ADD DUP1 SLOAD DUP5 SWAP2 SWAP1 PUSH1 0x0 SWAP1 PUSH2 0x360D SWAP1 DUP5 SWAP1 PUSH2 0x3C3C JUMP JUMPDEST SWAP1 SWAP2 SSTORE POP POP PUSH1 0x2 DUP6 ADD DUP1 SLOAD DUP4 SWAP2 SWAP1 PUSH1 0x0 SWAP1 PUSH2 0x3629 SWAP1 DUP5 SWAP1 PUSH2 0x3C3C JUMP JUMPDEST SWAP1 SWAP2 SSTORE POP POP PUSH1 0x3 DUP6 ADD DUP1 SLOAD DUP3 SWAP2 SWAP1 PUSH1 0x0 SWAP1 PUSH2 0x3645 SWAP1 DUP5 SWAP1 PUSH2 0x3C3C JUMP JUMPDEST SWAP1 SWAP2 SSTORE POP PUSH2 0x3656 SWAP1 POP DUP6 DUP12 DUP12 PUSH2 0x3662 JUMP JUMPDEST POP POP POP POP POP POP POP POP POP POP JUMP JUMPDEST PUSH1 0x3 DUP4 ADD SLOAD PUSH1 0x2 DUP5 ADD SLOAD PUSH1 0x1 DUP6 ADD SLOAD DUP6 SLOAD PUSH1 0x0 SWAP4 SWAP3 SWAP2 PUSH2 0x3681 SWAP2 PUSH2 0x3C29 JUMP JUMPDEST PUSH2 0x368B SWAP2 SWAP1 PUSH2 0x3C29 JUMP JUMPDEST PUSH2 0x3695 SWAP2 SWAP1 PUSH2 0x3C29 JUMP JUMPDEST PUSH1 0xF SWAP1 SWAP5 ADD DUP5 SWAP1 SSTORE POP PUSH1 0xFF SWAP2 DUP3 AND PUSH1 0x0 SWAP1 DUP2 MSTORE PUSH1 0x5 PUSH1 0x20 SWAP1 DUP2 MSTORE PUSH1 0x40 DUP1 DUP4 KECCAK256 SWAP4 SWAP1 SWAP5 AND DUP3 MSTORE SWAP2 SWAP1 SWAP2 MSTORE KECCAK256 SSTORE JUMP JUMPDEST PUSH1 0x40 MLOAD DUP1 PUSH2 0x120 ADD PUSH1 0x40 MSTORE DUP1 PUSH1 0x9 SWAP1 JUMPDEST PUSH2 0x36DA PUSH2 0x36F0 JUMP JUMPDEST DUP2 MSTORE PUSH1 0x20 ADD SWAP1 PUSH1 0x1 SWAP1 SUB SWAP1 DUP2 PUSH2 0x36D2 JUMPI SWAP1 POP POP SWAP1 JUMP JUMPDEST PUSH1 0x40 MLOAD DUP1 PUSH2 0x120 ADD PUSH1 0x40 MSTORE DUP1 PUSH1 0x9 SWAP1 PUSH1 0x20 DUP3 MUL DUP1 CALLDATASIZE DUP4 CALLDATACOPY POP SWAP2 SWAP3 SWAP2 POP POP JUMP JUMPDEST PUSH1 0xFF DUP2 AND DUP2 EQ PUSH2 0x371E JUMPI PUSH1 0x0 DUP1 REVERT JUMPDEST POP JUMP JUMPDEST PUSH1 0x0 DUP1 PUSH1 0x0 DUP1 PUSH1 0x80 DUP6 DUP8 SUB SLT ISZERO PUSH2 0x3737 JUMPI PUSH1 0x0 DUP1 REVERT JUMPDEST DUP5 CALLDATALOAD PUSH2 0x3742 DUP2 PUSH2 0x370F JUMP JUMPDEST SWAP4 POP PUSH1 0x20 DUP6 ADD CALLDATALOAD PUSH2 0x3752 DUP2 PUSH2 0x370F JUMP JUMPDEST SWAP3 POP PUSH1 0x40 DUP6 ADD CALLDATALOAD PUSH2 0x3762 DUP2 PUSH2 0x370F JUMP JUMPDEST SWAP4 SWAP7 SWAP3 SWAP6 POP SWAP3 SWAP4 PUSH1 0x60 ADD CALLDATALOAD SWAP3 POP POP JUMP JUMPDEST PUSH1 0x0 DUP1 PUSH1 0x0 DUP1 PUSH1 0x0 PUSH1 0xA0 DUP7 DUP9 SUB SLT ISZERO PUSH2 0x378A JUMPI PUSH1 0x0 DUP1 REVERT JUMPDEST DUP6 CALLDATALOAD PUSH2 0x3795 DUP2 PUSH2 0x370F JUMP JUMPDEST SWAP5 POP PUSH1 0x20 DUP7 ADD CALLDATALOAD PUSH2 0x37A5 DUP2 PUSH2 0x370F JUMP JUMPDEST SWAP4 POP PUSH1 0x40 DUP7 ADD CALLDATALOAD PUSH2 0x37B5 DUP2 PUSH2 0x370F JUMP JUMPDEST SWAP3 POP PUSH1 0x60 DUP7 ADD CALLDATALOAD PUSH2 0x37C5 DUP2 PUSH2 0x370F JUMP JUMPDEST SWAP2 POP PUSH1 0x80 DUP7 ADD CALLDATALOAD PUSH2 0x37D5 DUP2 PUSH2 0x370F JUMP JUMPDEST DUP1 SWAP2 POP POP SWAP3 SWAP6 POP SWAP3 SWAP6 SWAP1 SWAP4 POP JUMP JUMPDEST PUSH1 0x0 DUP1 PUSH1 0x40 DUP4 DUP6 SUB SLT ISZERO PUSH2 0x37F6 JUMPI PUSH1 0x0 DUP1 REVERT JUMPDEST DUP3 CALLDATALOAD PUSH2 0x3801 DUP2 PUSH2 0x370F JUMP JUMPDEST SWAP2 POP PUSH1 0x20 DUP4 ADD CALLDATALOAD PUSH2 0x3811 DUP2 PUSH2 0x370F JUMP JUMPDEST DUP1 SWAP2 POP POP SWAP3 POP SWAP3 SWAP1 POP JUMP JUMPDEST PUSH1 0x0 DUP1 PUSH1 0x0 PUSH1 0x60 DUP5 DUP7 SUB SLT ISZERO PUSH2 0x3831 JUMPI PUSH1 0x0 DUP1 REVERT JUMPDEST DUP4 CALLDATALOAD PUSH2 0x383C DUP2 PUSH2 0x370F JUMP JUMPDEST SWAP3 POP PUSH1 0x20 DUP5 ADD CALLDATALOAD PUSH2 0x384C DUP2 PUSH2 0x370F JUMP JUMPDEST SWAP2 POP PUSH1 0x40 DUP5 ADD CALLDATALOAD PUSH2 0x385C DUP2 PUSH2 0x370F JUMP JUMPDEST DUP1 SWAP2 POP POP SWAP3 POP SWAP3 POP SWAP3 JUMP JUMPDEST DUP1 CALLDATALOAD DUP1 ISZERO ISZERO DUP2 EQ PUSH2 0x3877 JUMPI PUSH1 0x0 DUP1 REVERT JUMPDEST SWAP2 SWAP1 POP JUMP JUMPDEST PUSH1 0x0 DUP1 PUSH1 0x0 DUP1 PUSH1 0x0 PUSH1 0xA0 DUP7 DUP9 SUB SLT ISZERO PUSH2 0x3894 JUMPI PUSH1 0x0 DUP1 REVERT JUMPDEST DUP6 CALLDATALOAD PUSH2 0x389F DUP2 PUSH2 0x370F JUMP JUMPDEST SWAP5 POP PUSH1 0x20 DUP7 ADD CALLDATALOAD PUSH2 0x38AF DUP2 PUSH2 0x370F JUMP JUMPDEST SWAP4 POP PUSH1 0x40 DUP7 ADD CALLDATALOAD PUSH2 0x38BF DUP2 PUSH2 0x370F JUMP JUMPDEST SWAP3 POP PUSH1 0x60 DUP7 ADD CALLDATALOAD SWAP2 POP PUSH2 0x38D4 PUSH1 0x80 DUP8 ADD PUSH2 0x3867 JUMP JUMPDEST SWAP1 POP SWAP3 SWAP6 POP SWAP3 SWAP6 SWAP1 SWAP4 POP JUMP JUMPDEST PUSH1 0x1 PUSH1 0x1 PUSH1 0xA0 SHL SUB DUP2 AND DUP2 EQ PUSH2 0x371E JUMPI PUSH1 0x0 DUP1 REVERT JUMPDEST PUSH1 0x0 PUSH1 0x20 DUP3 DUP5 SUB SLT ISZERO PUSH2 0x3907 JUMPI PUSH1 0x0 DUP1 REVERT JUMPDEST DUP2 CALLDATALOAD PUSH2 0x3912 DUP2 PUSH2 0x38E0 JUMP JUMPDEST SWAP4 SWAP3 POP POP POP JUMP JUMPDEST PUSH1 0x0 DUP1 PUSH1 0x0 DUP1 PUSH1 0x80 DUP6 DUP8 SUB SLT ISZERO PUSH2 0x392F JUMPI PUSH1 0x0 DUP1 REVERT JUMPDEST DUP5 CALLDATALOAD PUSH2 0x393A DUP2 PUSH2 0x370F JUMP JUMPDEST SWAP4 POP PUSH1 0x20 DUP6 ADD CALLDATALOAD PUSH2 0x394A DUP2 PUSH2 0x370F JUMP JUMPDEST SWAP3 POP PUSH1 0x40 DUP6 ADD CALLDATALOAD PUSH2 0x395A DUP2 PUSH2 0x370F JUMP JUMPDEST SWAP2 POP PUSH1 0x60 DUP6 ADD CALLDATALOAD PUSH2 0x396A DUP2 PUSH2 0x370F JUMP JUMPDEST SWAP4 SWAP7 SWAP3 SWAP6 POP SWAP1 SWAP4 POP POP JUMP JUMPDEST PUSH1 0x0 DUP1 PUSH1 0x0 PUSH1 0x60 DUP5 DUP7 SUB SLT ISZERO PUSH2 0x398A JUMPI PUSH1 0x0 DUP1 REVERT JUMPDEST DUP4 CALLDATALOAD PUSH2 0x3995 DUP2 PUSH2 0x370F JUMP JUMPDEST SWAP3 POP PUSH1 0x20 DUP5 ADD CALLDATALOAD PUSH2 0x39A5 DUP2 PUSH2 0x370F JUMP JUMPDEST SWAP2 POP PUSH2 0x39B3 PUSH1 0x40 DUP6 ADD PUSH2 0x3867 JUMP JUMPDEST SWAP1 POP SWAP3 POP SWAP3 POP SWAP3 JUMP JUMPDEST PUSH1 0x0 PUSH2 0x220 DUP3 ADD SWAP1 POP DUP10 MLOAD DUP3 MSTORE PUSH1 0x20 DUP11 ADD MLOAD PUSH1 0x20 DUP4 ADD MSTORE PUSH1 0x40 DUP11 ADD MLOAD PUSH1 0x40 DUP4 ADD MSTORE PUSH1 0x60 DUP11 ADD MLOAD PUSH1 0x60 DUP4 ADD MSTORE PUSH2 0xFFFF DUP1 DUP11 AND PUSH1 0x80 DUP5 ADD MSTORE DUP9 PUSH1 0xA0 DUP5 ADD MSTORE DUP1 DUP9 AND PUSH1 0xC0 DUP5 ADD MSTORE POP DUP6 PUSH1 0xE0 DUP4 ADD MSTORE DUP5 MLOAD PUSH2 0x100 DUP4 ADD MSTORE PUSH1 0x20 DUP6 ADD MLOAD PUSH2 0x120 DUP4 ADD MSTORE PUSH1 0x40 DUP6 ADD MLOAD PUSH2 0x140 DUP4 ADD MSTORE PUSH1 0x60 DUP6 ADD MLOAD PUSH2 0x160 DUP4 ADD MSTORE PUSH1 0x80 DUP6 ADD MLOAD PUSH2 0x180 DUP4 ADD MSTORE PUSH1 0xA0 DUP6 ADD MLOAD PUSH2 0x1A0 DUP4 ADD MSTORE PUSH2 0x3A64 PUSH2 0x1C0 DUP4 ADD DUP6 DUP1 MLOAD PUSH1 0xFF SWAP1 DUP2 AND DUP4 MSTORE PUSH1 0x20 SWAP2 DUP3 ADD MLOAD AND SWAP2 ADD MSTORE JUMP JUMPDEST DUP3 PUSH2 0x200 DUP4 ADD MSTORE SWAP10 SWAP9 POP POP POP POP POP POP POP POP POP JUMP JUMPDEST PUSH1 0x0 PUSH2 0x1E0 DUP3 ADD SWAP1 POP DUP3 MLOAD DUP3 MSTORE PUSH1 0x20 DUP4 ADD MLOAD PUSH1 0x20 DUP4 ADD MSTORE PUSH1 0x40 DUP4 ADD MLOAD PUSH1 0x40 DUP4 ADD MSTORE PUSH1 0x60 DUP4 ADD MLOAD PUSH1 0x60 DUP4 ADD MSTORE PUSH1 0x80 DUP4 ADD MLOAD PUSH2 0x3AB8 PUSH1 0x80 DUP5 ADD DUP3 PUSH2 0xFFFF AND SWAP1 MSTORE JUMP JUMPDEST POP PUSH1 0xA0 DUP4 DUP2 ADD MLOAD SWAP1 DUP4 ADD MSTORE PUSH1 0xC0 DUP1 DUP5 ADD MLOAD SWAP1 DUP4 ADD MSTORE PUSH1 0xE0 DUP1 DUP5 ADD MLOAD SWAP1 DUP4 ADD MSTORE PUSH2 0x100 DUP1 DUP5 ADD MLOAD SWAP1 DUP4 ADD MSTORE PUSH2 0x120 DUP1 DUP5 ADD MLOAD SWAP1 DUP4 ADD MSTORE PUSH2 0x140 DUP1 DUP5 ADD MLOAD SWAP1 DUP4 ADD MSTORE PUSH2 0x160 DUP1 DUP5 ADD MLOAD SWAP1 DUP4 ADD MSTORE PUSH2 0x180 DUP1 DUP5 ADD MLOAD PUSH1 0xFF DUP2 AND DUP3 DUP6 ADD MSTORE POP POP PUSH2 0x1A0 DUP4 DUP2 ADD MLOAD PUSH1 0xFF DUP2 AND DUP5 DUP4 ADD MSTORE POP POP PUSH2 0x1C0 SWAP3 DUP4 ADD MLOAD SWAP2 SWAP1 SWAP3 ADD MSTORE SWAP1 JUMP JUMPDEST PUSH2 0xA20 DUP2 ADD DUP2 DUP4 PUSH1 0x0 DUP1 JUMPDEST PUSH1 0x9 DUP1 DUP3 LT PUSH2 0x3B4E JUMPI POP PUSH2 0x3B8F JUMP JUMPDEST DUP4 MLOAD DUP6 DUP5 JUMPDEST DUP4 DUP2 LT ISZERO PUSH2 0x3B74 JUMPI DUP3 MLOAD PUSH1 0xFF AND DUP3 MSTORE PUSH1 0x20 SWAP3 DUP4 ADD SWAP3 SWAP1 SWAP2 ADD SWAP1 PUSH1 0x1 ADD PUSH2 0x3B53 JUMP JUMPDEST POP POP POP PUSH2 0x120 SWAP5 SWAP1 SWAP5 ADD SWAP4 POP PUSH1 0x20 SWAP3 SWAP1 SWAP3 ADD SWAP2 PUSH1 0x1 ADD PUSH2 0x3B3F JUMP JUMPDEST POP POP POP POP SWAP3 SWAP2 POP POP JUMP JUMPDEST PUSH1 0x0 PUSH1 0x20 DUP3 DUP5 SUB SLT ISZERO PUSH2 0x3BAB JUMPI PUSH1 0x0 DUP1 REVERT JUMPDEST DUP2 CALLDATALOAD PUSH2 0x3912 DUP2 PUSH2 0x370F JUMP JUMPDEST PUSH1 0x0 DUP1 PUSH1 0x0 PUSH1 0x60 DUP5 DUP7 SUB SLT ISZERO PUSH2 0x3BCB JUMPI PUSH1 0x0 DUP1 REVERT JUMPDEST DUP4 CALLDATALOAD PUSH2 0xFFFF DUP2 AND DUP2 EQ PUSH2 0x383C JUMPI PUSH1 0x0 DUP1 REVERT JUMPDEST PUSH1 0x0 PUSH1 0x20 DUP3 DUP5 SUB SLT ISZERO PUSH2 0x3BEF JUMPI PUSH1 0x0 DUP1 REVERT JUMPDEST DUP2 MLOAD PUSH2 0x3912 DUP2 PUSH2 0x38E0 JUMP JUMPDEST PUSH32 0x4E487B7100000000000000000000000000000000000000000000000000000000 PUSH1 0x0 MSTORE PUSH1 0x11 PUSH1 0x4 MSTORE PUSH1 0x24 PUSH1 0x0 REVERT JUMPDEST DUP1 DUP3 ADD DUP1 DUP3 GT ISZERO PUSH2 0xFEE JUMPI PUSH2 0xFEE PUSH2 0x3BFA JUMP JUMPDEST DUP2 DUP2 SUB DUP2 DUP2 GT ISZERO PUSH2 0xFEE JUMPI PUSH2 0xFEE PUSH2 0x3BFA JUMP JUMPDEST PUSH1 0xFF DUP2 DUP2 AND DUP4 DUP3 AND ADD SWAP1 DUP2 GT ISZERO PUSH2 0xFEE JUMPI PUSH2 0xFEE PUSH2 0x3BFA JUMP JUMPDEST DUP1 DUP3 MUL DUP2 ISZERO DUP3 DUP3 DIV DUP5 EQ OR PUSH2 0xFEE JUMPI PUSH2 0xFEE PUSH2 0x3BFA JUMP JUMPDEST PUSH32 0x4E487B7100000000000000000000000000000000000000000000000000000000 PUSH1 0x0 MSTORE PUSH1 0x12 PUSH1 0x4 MSTORE PUSH1 0x24 PUSH1 0x0 REVERT JUMPDEST PUSH1 0x0 DUP3 PUSH2 0x3CBD JUMPI PUSH2 0x3CBD PUSH2 0x3C7F JUMP JUMPDEST POP DIV SWAP1 JUMP JUMPDEST PUSH1 0x0 PUSH1 0xFF DUP3 AND PUSH1 0xFF DUP2 SUB PUSH2 0x3CD8 JUMPI PUSH2 0x3CD8 PUSH2 0x3BFA JUMP JUMPDEST PUSH1 0x1 ADD SWAP3 SWAP2 POP POP JUMP JUMPDEST PUSH32 0x4E487B7100000000000000000000000000000000000000000000000000000000 PUSH1 0x0 MSTORE PUSH1 0x32 PUSH1 0x4 MSTORE PUSH1 0x24 PUSH1 0x0 REVERT JUMPDEST PUSH2 0xFFFF DUP3 DUP2 AND DUP3 DUP3 AND SUB SWAP1 DUP1 DUP3 GT ISZERO PUSH2 0x3D2B JUMPI PUSH2 0x3D2B PUSH2 0x3BFA JUMP JUMPDEST POP SWAP3 SWAP2 POP POP JUMP JUMPDEST PUSH1 0x0 PUSH1 0x20 DUP3 DUP5 SUB SLT ISZERO PUSH2 0x3D44 JUMPI PUSH1 0x0 DUP1 REVERT JUMPDEST DUP2 MLOAD PUSH2 0x3912 DUP2 PUSH2 0x370F JUMP JUMPDEST PUSH1 0x0 DUP3 PUSH2 0x3D5E JUMPI PUSH2 0x3D5E PUSH2 0x3C7F JUMP JUMPDEST POP MOD SWAP1 JUMP JUMPDEST PUSH2 0xFFFF DUP2 DUP2 AND DUP4 DUP3 AND ADD SWAP1 DUP1 DUP3 GT ISZERO PUSH2 0x3D2B JUMPI PUSH2 0x3D2B PUSH2 0x3BFA JUMP JUMPDEST PUSH1 0x0 PUSH32 0xFFFFFFFFFFFFFFFFFFFFFFFFFFFFFFFFFFFFFFFFFFFFFFFFFFFFFFFFFFFFFFFF DUP3 SUB PUSH2 0x3DAF JUMPI PUSH2 0x3DAF PUSH2 0x3BFA JUMP JUMPDEST POP PUSH1 0x1 ADD SWAP1 JUMP INVALID LOG2 PUSH5 0x6970667358 0x22 SLT KECCAK256 ADDMOD CALLDATALOAD BASEFEE CALLVALUE 0x4F 0xC0 SWAP3 SWAP9 SWAP11 0xD4 SELFBALANCE 0xC9 MLOAD DUP15 GT PUSH7 0x94836F3E72652 SSTORE 0xD1 NUMBER SWAP7 SSTORE PUSH5 0x69BAF56473 PUSH16 0x6C634300081200330000000000000000 "
		},
		"gasEstimates": {
			"creation": {
				"codeDepositCost": "3170400",
				"executionCost": "infinite",
				"totalCost": "infinite"
			},
			"external": {
				"_clan()": "2427",
				"adjustTileResources(uint8,uint8,uint8,uint256,bool)": "infinite",
				"baseDefensiveArmorCost()": "8784",
				"baseDefensiveSoldierCost()": "8761",
				"baseDefensiveWeaponCost()": "8742",
				"baseOffensiveArmorCost()": "8785",
				"baseOffensiveSoldierCost()": "8741",
				"baseOffensiveWeaponCost()": "8740",
				"buildingCosts(uint8)": "9014",
				"calcTurn(uint8,uint8)": "infinite",
				"createSoldier(uint8,uint8,uint8,uint256)": "infinite",
				"demolishBuilding(uint8,uint8,uint8,uint8)": "infinite",
				"getAllBuildings(uint8,uint8)": "infinite",
				"getTileData(uint8,uint8)": "infinite",
				"getTotalTurnsUsedByTile(uint8,uint8)": "infinite",
				"getTowerCount(uint8,uint8)": "infinite",
				"getTurn(uint8,uint8)": "infinite",
				"hasClanHall(address)": "2636",
				"hasMarket(address)": "2593",
				"interiorMapSize()": "293",
				"interiorMaps(uint8,uint8,uint8,uint8)": "infinite",
				"marketplaceAddress()": "2427",
				"owner()": "2383",
				"placeBuilding(uint8,uint8,uint8,uint8,uint8)": "infinite",
				"pointsByCoords(uint8,uint8)": "infinite",
				"produceArmor(uint8,uint8,uint8,uint256)": "infinite",
				"produceWeapon(uint8,uint8,uint8,uint256)": "infinite",
				"recalculatePointsAfterAttack(uint8,uint8)": "infinite",
				"resourceMessage(uint8,uint8)": "infinite",
				"setClanAddress(address)": "26781",
				"setMarketAddress(address)": "26800",
				"setResourceMessageFlag(uint8,uint8,bool)": "infinite",
				"tileMapPhaser()": "2449",
				"tiles(uint8,uint8)": "infinite",
				"totalTurnsUsedByTile(uint8,uint8)": "infinite",
				"turnsPerLevel()": "251",
				"upgradeTech(uint8,uint8,uint8)": "infinite",
				"useTurns(uint16,uint8,uint8)": "infinite"
			},
			"internal": {
				"_initializeBuildingCosts()": "infinite",
				"_recalculatePoints(struct TheLand.TileData storage pointer,uint8,uint8)": "infinite",
				"_setResourceMessageFlag(uint8,uint8,bool)": "infinite",
				"applyProductionCost(uint8,uint8,struct TheLand.Resources memory,uint256,uint256)": "infinite",
				"countBuildings(uint8,uint8,uint8)": "infinite"
			}
		},
		"methodIdentifiers": {
			"_clan()": "7cca26d9",
			"adjustTileResources(uint8,uint8,uint8,uint256,bool)": "3e5f2857",
			"baseDefensiveArmorCost()": "8c87fa4f",
			"baseDefensiveSoldierCost()": "f9c64454",
			"baseDefensiveWeaponCost()": "537e8f49",
			"baseOffensiveArmorCost()": "620a9a99",
			"baseOffensiveSoldierCost()": "a596b645",
			"baseOffensiveWeaponCost()": "800bfa27",
			"buildingCosts(uint8)": "c1712d57",
			"calcTurn(uint8,uint8)": "dd4b466b",
			"createSoldier(uint8,uint8,uint8,uint256)": "f89d7571",
			"demolishBuilding(uint8,uint8,uint8,uint8)": "60b76b52",
			"getAllBuildings(uint8,uint8)": "be9a263c",
			"getTileData(uint8,uint8)": "bd638378",
			"getTotalTurnsUsedByTile(uint8,uint8)": "41ede44f",
			"getTowerCount(uint8,uint8)": "2a490ae8",
			"getTurn(uint8,uint8)": "f3245254",
			"hasClanHall(address)": "e3198e08",
			"hasMarket(address)": "5e75968e",
			"interiorMapSize()": "decc1bbf",
			"interiorMaps(uint8,uint8,uint8,uint8)": "a2f9cc5b",
			"marketplaceAddress()": "daa17f49",
			"owner()": "8da5cb5b",
			"placeBuilding(uint8,uint8,uint8,uint8,uint8)": "0ee22f31",
			"pointsByCoords(uint8,uint8)": "2ef78865",
			"produceArmor(uint8,uint8,uint8,uint256)": "07722bc2",
			"produceWeapon(uint8,uint8,uint8,uint256)": "4274b164",
			"recalculatePointsAfterAttack(uint8,uint8)": "7659bc60",
			"resourceMessage(uint8,uint8)": "ccd5e491",
			"setClanAddress(address)": "5d219d5f",
			"setMarketAddress(address)": "fae92612",
			"setResourceMessageFlag(uint8,uint8,bool)": "9a4a2084",
			"tileMapPhaser()": "4f264b03",
			"tiles(uint8,uint8)": "9b562df2",
			"totalTurnsUsedByTile(uint8,uint8)": "887aca72",
			"turnsPerLevel()": "bdc7da8e",
			"upgradeTech(uint8,uint8,uint8)": "351662e4",
			"useTurns(uint16,uint8,uint8)": "e9dd6583"
		}
	},
	"abi": [
		{
			"inputs": [
				{
					"internalType": "address",
					"name": "_tileMapPhaser",
					"type": "address"
				}
			],
			"stateMutability": "nonpayable",
			"type": "constructor"
		},
		{
			"anonymous": false,
			"inputs": [
				{
					"indexed": true,
					"internalType": "address",
					"name": "user",
					"type": "address"
				},
				{
					"indexed": false,
					"internalType": "uint256",
					"name": "turnsUsed",
					"type": "uint256"
				},
				{
					"indexed": false,
					"internalType": "uint8",
					"name": "x",
					"type": "uint8"
				},
				{
					"indexed": false,
					"internalType": "uint8",
					"name": "y",
					"type": "uint8"
				}
			],
			"name": "TurnsUsed",
			"type": "event"
		},
		{
			"inputs": [],
			"name": "_clan",
			"outputs": [
				{
					"internalType": "contract IClan",
					"name": "",
					"type": "address"
				}
			],
			"stateMutability": "view",
			"type": "function"
		},
		{
			"inputs": [
				{
					"internalType": "uint8",
					"name": "x",
					"type": "uint8"
				},
				{
					"internalType": "uint8",
					"name": "y",
					"type": "uint8"
				},
				{
					"internalType": "uint8",
					"name": "resourceType",
					"type": "uint8"
				},
				{
					"internalType": "uint256",
					"name": "amount",
					"type": "uint256"
				},
				{
					"internalType": "bool",
					"name": "isAdding",
					"type": "bool"
				}
			],
			"name": "adjustTileResources",
			"outputs": [],
			"stateMutability": "nonpayable",
			"type": "function"
		},
		{
			"inputs": [],
			"name": "baseDefensiveArmorCost",
			"outputs": [
				{
					"internalType": "uint256",
					"name": "food",
					"type": "uint256"
				},
				{
					"internalType": "uint256",
					"name": "wood",
					"type": "uint256"
				},
				{
					"internalType": "uint256",
					"name": "stone",
					"type": "uint256"
				},
				{
					"internalType": "uint256",
					"name": "iron",
					"type": "uint256"
				}
			],
			"stateMutability": "view",
			"type": "function"
		},
		{
			"inputs": [],
			"name": "baseDefensiveSoldierCost",
			"outputs": [
				{
					"internalType": "uint256",
					"name": "food",
					"type": "uint256"
				},
				{
					"internalType": "uint256",
					"name": "wood",
					"type": "uint256"
				},
				{
					"internalType": "uint256",
					"name": "stone",
					"type": "uint256"
				},
				{
					"internalType": "uint256",
					"name": "iron",
					"type": "uint256"
				}
			],
			"stateMutability": "view",
			"type": "function"
		},
		{
			"inputs": [],
			"name": "baseDefensiveWeaponCost",
			"outputs": [
				{
					"internalType": "uint256",
					"name": "food",
					"type": "uint256"
				},
				{
					"internalType": "uint256",
					"name": "wood",
					"type": "uint256"
				},
				{
					"internalType": "uint256",
					"name": "stone",
					"type": "uint256"
				},
				{
					"internalType": "uint256",
					"name": "iron",
					"type": "uint256"
				}
			],
			"stateMutability": "view",
			"type": "function"
		},
		{
			"inputs": [],
			"name": "baseOffensiveArmorCost",
			"outputs": [
				{
					"internalType": "uint256",
					"name": "food",
					"type": "uint256"
				},
				{
					"internalType": "uint256",
					"name": "wood",
					"type": "uint256"
				},
				{
					"internalType": "uint256",
					"name": "stone",
					"type": "uint256"
				},
				{
					"internalType": "uint256",
					"name": "iron",
					"type": "uint256"
				}
			],
			"stateMutability": "view",
			"type": "function"
		},
		{
			"inputs": [],
			"name": "baseOffensiveSoldierCost",
			"outputs": [
				{
					"internalType": "uint256",
					"name": "food",
					"type": "uint256"
				},
				{
					"internalType": "uint256",
					"name": "wood",
					"type": "uint256"
				},
				{
					"internalType": "uint256",
					"name": "stone",
					"type": "uint256"
				},
				{
					"internalType": "uint256",
					"name": "iron",
					"type": "uint256"
				}
			],
			"stateMutability": "view",
			"type": "function"
		},
		{
			"inputs": [],
			"name": "baseOffensiveWeaponCost",
			"outputs": [
				{
					"internalType": "uint256",
					"name": "food",
					"type": "uint256"
				},
				{
					"internalType": "uint256",
					"name": "wood",
					"type": "uint256"
				},
				{
					"internalType": "uint256",
					"name": "stone",
					"type": "uint256"
				},
				{
					"internalType": "uint256",
					"name": "iron",
					"type": "uint256"
				}
			],
			"stateMutability": "view",
			"type": "function"
		},
		{
			"inputs": [
				{
					"internalType": "uint8",
					"name": "",
					"type": "uint8"
				}
			],
			"name": "buildingCosts",
			"outputs": [
				{
					"internalType": "uint256",
					"name": "food",
					"type": "uint256"
				},
				{
					"internalType": "uint256",
					"name": "wood",
					"type": "uint256"
				},
				{
					"internalType": "uint256",
					"name": "stone",
					"type": "uint256"
				},
				{
					"internalType": "uint256",
					"name": "iron",
					"type": "uint256"
				}
			],
			"stateMutability": "view",
			"type": "function"
		},
		{
			"inputs": [
				{
					"internalType": "uint8",
					"name": "mainX",
					"type": "uint8"
				},
				{
					"internalType": "uint8",
					"name": "mainY",
					"type": "uint8"
				}
			],
			"name": "calcTurn",
			"outputs": [],
			"stateMutability": "nonpayable",
			"type": "function"
		},
		{
			"inputs": [
				{
					"internalType": "uint8",
					"name": "mainX",
					"type": "uint8"
				},
				{
					"internalType": "uint8",
					"name": "mainY",
					"type": "uint8"
				},
				{
					"internalType": "uint8",
					"name": "soldierType",
					"type": "uint8"
				},
				{
					"internalType": "uint256",
					"name": "quantity",
					"type": "uint256"
				}
			],
			"name": "createSoldier",
			"outputs": [],
			"stateMutability": "nonpayable",
			"type": "function"
		},
		{
			"inputs": [
				{
					"internalType": "uint8",
					"name": "mainX",
					"type": "uint8"
				},
				{
					"internalType": "uint8",
					"name": "mainY",
					"type": "uint8"
				},
				{
					"internalType": "uint8",
					"name": "interiorX",
					"type": "uint8"
				},
				{
					"internalType": "uint8",
					"name": "interiorY",
					"type": "uint8"
				}
			],
			"name": "demolishBuilding",
			"outputs": [],
			"stateMutability": "nonpayable",
			"type": "function"
		},
		{
			"inputs": [
				{
					"internalType": "uint8",
					"name": "mainX",
					"type": "uint8"
				},
				{
					"internalType": "uint8",
					"name": "mainY",
					"type": "uint8"
				}
			],
			"name": "getAllBuildings",
			"outputs": [
				{
					"internalType": "uint8[9][9]",
					"name": "",
					"type": "uint8[9][9]"
				}
			],
			"stateMutability": "view",
			"type": "function"
		},
		{
			"inputs": [
				{
					"internalType": "uint8",
					"name": "x",
					"type": "uint8"
				},
				{
					"internalType": "uint8",
					"name": "y",
					"type": "uint8"
				}
			],
			"name": "getTileData",
			"outputs": [
				{
					"components": [
						{
							"internalType": "uint256",
							"name": "food",
							"type": "uint256"
						},
						{
							"internalType": "uint256",
							"name": "wood",
							"type": "uint256"
						},
						{
							"internalType": "uint256",
							"name": "stone",
							"type": "uint256"
						},
						{
							"internalType": "uint256",
							"name": "iron",
							"type": "uint256"
						},
						{
							"internalType": "uint16",
							"name": "level",
							"type": "uint16"
						},
						{
							"internalType": "uint256",
							"name": "accumulatedTurns",
							"type": "uint256"
						},
						{
							"internalType": "uint256",
							"name": "offensiveArmor",
							"type": "uint256"
						},
						{
							"internalType": "uint256",
							"name": "defensiveArmor",
							"type": "uint256"
						},
						{
							"internalType": "uint256",
							"name": "offensiveWeapon",
							"type": "uint256"
						},
						{
							"internalType": "uint256",
							"name": "defensiveWeapon",
							"type": "uint256"
						},
						{
							"internalType": "uint256",
							"name": "offensiveSoldier",
							"type": "uint256"
						},
						{
							"internalType": "uint256",
							"name": "defensiveSoldier",
							"type": "uint256"
						},
						{
							"internalType": "uint8",
							"name": "offensiveTech",
							"type": "uint8"
						},
						{
							"internalType": "uint8",
							"name": "defensiveTech",
							"type": "uint8"
						},
						{
							"internalType": "uint256",
							"name": "points",
							"type": "uint256"
						}
					],
					"internalType": "struct TheLand.TileDataResponse",
					"name": "",
					"type": "tuple"
				}
			],
			"stateMutability": "view",
			"type": "function"
		},
		{
			"inputs": [
				{
					"internalType": "uint8",
					"name": "x",
					"type": "uint8"
				},
				{
					"internalType": "uint8",
					"name": "y",
					"type": "uint8"
				}
			],
			"name": "getTotalTurnsUsedByTile",
			"outputs": [
				{
					"internalType": "uint256",
					"name": "",
					"type": "uint256"
				}
			],
			"stateMutability": "view",
			"type": "function"
		},
		{
			"inputs": [
				{
					"internalType": "uint8",
					"name": "mainX",
					"type": "uint8"
				},
				{
					"internalType": "uint8",
					"name": "mainY",
					"type": "uint8"
				}
			],
			"name": "getTowerCount",
			"outputs": [
				{
					"internalType": "uint256",
					"name": "",
					"type": "uint256"
				}
			],
			"stateMutability": "view",
			"type": "function"
		},
		{
			"inputs": [
				{
					"internalType": "uint8",
					"name": "mainX",
					"type": "uint8"
				},
				{
					"internalType": "uint8",
					"name": "mainY",
					"type": "uint8"
				}
			],
			"name": "getTurn",
			"outputs": [
				{
					"internalType": "uint256",
					"name": "",
					"type": "uint256"
				}
			],
			"stateMutability": "view",
			"type": "function"
		},
		{
			"inputs": [
				{
					"internalType": "address",
					"name": "",
					"type": "address"
				}
			],
			"name": "hasClanHall",
			"outputs": [
				{
					"internalType": "bool",
					"name": "",
					"type": "bool"
				}
			],
			"stateMutability": "view",
			"type": "function"
		},
		{
			"inputs": [
				{
					"internalType": "address",
					"name": "",
					"type": "address"
				}
			],
			"name": "hasMarket",
			"outputs": [
				{
					"internalType": "bool",
					"name": "",
					"type": "bool"
				}
			],
			"stateMutability": "view",
			"type": "function"
		},
		{
			"inputs": [],
			"name": "interiorMapSize",
			"outputs": [
				{
					"internalType": "uint8",
					"name": "",
					"type": "uint8"
				}
			],
			"stateMutability": "view",
			"type": "function"
		},
		{
			"inputs": [
				{
					"internalType": "uint8",
					"name": "",
					"type": "uint8"
				},
				{
					"internalType": "uint8",
					"name": "",
					"type": "uint8"
				},
				{
					"internalType": "uint8",
					"name": "",
					"type": "uint8"
				},
				{
					"internalType": "uint8",
					"name": "",
					"type": "uint8"
				}
			],
			"name": "interiorMaps",
			"outputs": [
				{
					"internalType": "uint8",
					"name": "",
					"type": "uint8"
				}
			],
			"stateMutability": "view",
			"type": "function"
		},
		{
			"inputs": [],
			"name": "marketplaceAddress",
			"outputs": [
				{
					"internalType": "address",
					"name": "",
					"type": "address"
				}
			],
			"stateMutability": "view",
			"type": "function"
		},
		{
			"inputs": [],
			"name": "owner",
			"outputs": [
				{
					"internalType": "address",
					"name": "",
					"type": "address"
				}
			],
			"stateMutability": "view",
			"type": "function"
		},
		{
			"inputs": [
				{
					"internalType": "uint8",
					"name": "mainX",
					"type": "uint8"
				},
				{
					"internalType": "uint8",
					"name": "mainY",
					"type": "uint8"
				},
				{
					"internalType": "uint8",
					"name": "interiorX",
					"type": "uint8"
				},
				{
					"internalType": "uint8",
					"name": "interiorY",
					"type": "uint8"
				},
				{
					"internalType": "uint8",
					"name": "buildingType",
					"type": "uint8"
				}
			],
			"name": "placeBuilding",
			"outputs": [],
			"stateMutability": "nonpayable",
			"type": "function"
		},
		{
			"inputs": [
				{
					"internalType": "uint8",
					"name": "",
					"type": "uint8"
				},
				{
					"internalType": "uint8",
					"name": "",
					"type": "uint8"
				}
			],
			"name": "pointsByCoords",
			"outputs": [
				{
					"internalType": "uint256",
					"name": "",
					"type": "uint256"
				}
			],
			"stateMutability": "view",
			"type": "function"
		},
		{
			"inputs": [
				{
					"internalType": "uint8",
					"name": "mainX",
					"type": "uint8"
				},
				{
					"internalType": "uint8",
					"name": "mainY",
					"type": "uint8"
				},
				{
					"internalType": "uint8",
					"name": "armorType",
					"type": "uint8"
				},
				{
					"internalType": "uint256",
					"name": "quantity",
					"type": "uint256"
				}
			],
			"name": "produceArmor",
			"outputs": [],
			"stateMutability": "nonpayable",
			"type": "function"
		},
		{
			"inputs": [
				{
					"internalType": "uint8",
					"name": "mainX",
					"type": "uint8"
				},
				{
					"internalType": "uint8",
					"name": "mainY",
					"type": "uint8"
				},
				{
					"internalType": "uint8",
					"name": "weaponType",
					"type": "uint8"
				},
				{
					"internalType": "uint256",
					"name": "quantity",
					"type": "uint256"
				}
			],
			"name": "produceWeapon",
			"outputs": [],
			"stateMutability": "nonpayable",
			"type": "function"
		},
		{
			"inputs": [
				{
					"internalType": "uint8",
					"name": "x",
					"type": "uint8"
				},
				{
					"internalType": "uint8",
					"name": "y",
					"type": "uint8"
				}
			],
			"name": "recalculatePointsAfterAttack",
			"outputs": [],
			"stateMutability": "nonpayable",
			"type": "function"
		},
		{
			"inputs": [
				{
					"internalType": "uint8",
					"name": "",
					"type": "uint8"
				},
				{
					"internalType": "uint8",
					"name": "",
					"type": "uint8"
				}
			],
			"name": "resourceMessage",
			"outputs": [
				{
					"internalType": "bool",
					"name": "",
					"type": "bool"
				}
			],
			"stateMutability": "view",
			"type": "function"
		},
		{
			"inputs": [
				{
					"internalType": "address",
					"name": "_clanAddress",
					"type": "address"
				}
			],
			"name": "setClanAddress",
			"outputs": [],
			"stateMutability": "nonpayable",
			"type": "function"
		},
		{
			"inputs": [
				{
					"internalType": "address",
					"name": "_market",
					"type": "address"
				}
			],
			"name": "setMarketAddress",
			"outputs": [],
			"stateMutability": "nonpayable",
			"type": "function"
		},
		{
			"inputs": [
				{
					"internalType": "uint8",
					"name": "x",
					"type": "uint8"
				},
				{
					"internalType": "uint8",
					"name": "y",
					"type": "uint8"
				},
				{
					"internalType": "bool",
					"name": "value",
					"type": "bool"
				}
			],
			"name": "setResourceMessageFlag",
			"outputs": [],
			"stateMutability": "nonpayable",
			"type": "function"
		},
		{
			"inputs": [],
			"name": "tileMapPhaser",
			"outputs": [
				{
					"internalType": "contract ITileMapPhaser",
					"name": "",
					"type": "address"
				}
			],
			"stateMutability": "view",
			"type": "function"
		},
		{
			"inputs": [
				{
					"internalType": "uint8",
					"name": "",
					"type": "uint8"
				},
				{
					"internalType": "uint8",
					"name": "",
					"type": "uint8"
				}
			],
			"name": "tiles",
			"outputs": [
				{
					"components": [
						{
							"internalType": "uint256",
							"name": "food",
							"type": "uint256"
						},
						{
							"internalType": "uint256",
							"name": "wood",
							"type": "uint256"
						},
						{
							"internalType": "uint256",
							"name": "stone",
							"type": "uint256"
						},
						{
							"internalType": "uint256",
							"name": "iron",
							"type": "uint256"
						}
					],
					"internalType": "struct TheLand.Resources",
					"name": "resources",
					"type": "tuple"
				},
				{
					"internalType": "uint16",
					"name": "level",
					"type": "uint16"
				},
				{
					"internalType": "uint256",
					"name": "accumulatedTurns",
					"type": "uint256"
				},
				{
					"internalType": "uint16",
					"name": "turns",
					"type": "uint16"
				},
				{
					"internalType": "uint256",
					"name": "start",
					"type": "uint256"
				},
				{
					"components": [
						{
							"internalType": "uint256",
							"name": "offensiveArmor",
							"type": "uint256"
						},
						{
							"internalType": "uint256",
							"name": "defensiveArmor",
							"type": "uint256"
						},
						{
							"internalType": "uint256",
							"name": "offensiveWeapon",
							"type": "uint256"
						},
						{
							"internalType": "uint256",
							"name": "defensiveWeapon",
							"type": "uint256"
						},
						{
							"internalType": "uint256",
							"name": "offensiveSoldier",
							"type": "uint256"
						},
						{
							"internalType": "uint256",
							"name": "defensiveSoldier",
							"type": "uint256"
						}
					],
					"internalType": "struct TheLand.Military",
					"name": "military",
					"type": "tuple"
				},
				{
					"components": [
						{
							"internalType": "uint8",
							"name": "offensiveTech",
							"type": "uint8"
						},
						{
							"internalType": "uint8",
							"name": "defensiveTech",
							"type": "uint8"
						}
					],
					"internalType": "struct TheLand.TechLevels",
					"name": "techLevels",
					"type": "tuple"
				},
				{
					"internalType": "uint256",
					"name": "points",
					"type": "uint256"
				}
			],
			"stateMutability": "view",
			"type": "function"
		},
		{
			"inputs": [
				{
					"internalType": "uint8",
					"name": "",
					"type": "uint8"
				},
				{
					"internalType": "uint8",
					"name": "",
					"type": "uint8"
				}
			],
			"name": "totalTurnsUsedByTile",
			"outputs": [
				{
					"internalType": "uint256",
					"name": "",
					"type": "uint256"
				}
			],
			"stateMutability": "view",
			"type": "function"
		},
		{
			"inputs": [],
			"name": "turnsPerLevel",
			"outputs": [
				{
					"internalType": "uint256",
					"name": "",
					"type": "uint256"
				}
			],
			"stateMutability": "view",
			"type": "function"
		},
		{
			"inputs": [
				{
					"internalType": "uint8",
					"name": "x",
					"type": "uint8"
				},
				{
					"internalType": "uint8",
					"name": "y",
					"type": "uint8"
				},
				{
					"internalType": "uint8",
					"name": "techType",
					"type": "uint8"
				}
			],
			"name": "upgradeTech",
			"outputs": [],
			"stateMutability": "nonpayable",
			"type": "function"
		},
		{
			"inputs": [
				{
					"internalType": "uint16",
					"name": "turns",
					"type": "uint16"
				},
				{
					"internalType": "uint8",
					"name": "x",
					"type": "uint8"
				},
				{
					"internalType": "uint8",
					"name": "y",
					"type": "uint8"
				}
			],
			"name": "useTurns",
			"outputs": [],
			"stateMutability": "nonpayable",
			"type": "function"
		}
	]
}