{
	"data": {
		"bytecode": {
			"linkReferences": {},
			"object": "67016345785d8a0000600355620f42406004556078608081905260a0819052606460c081905260b460e0819052600f839055601083905560118290556012819055609661010081905261012081905261014083905261019061016081905260138290556014829055601584905560168190556101808590526101a08390526101c084905261012c6101e08190526017959095556018929092556019839055601a9390935561020083905260c861022081905261024083905260fa610260819052601b859055601c829055601d849055601e556102808290526102a08190526102c08490526102e0839052601f8290556020819055602184905560228390556103806040526103008290526103208190526103408490526103608390526023919091556024556025919091556026553480156200013a57600080fd5b5060405162004704380380620047048339810160408190526200015d916200079d565b600180546001600160a01b039384166001600160a01b031991821617825560408051608080820183526104d8808352610c8060208085019182526105a0858701908152610370606080880182815260009b8c52602980865298517f6e777cacfc4ad3a3cac3b8e17ccbbe9f6893bdc61d89783315eee44e3959da215594517f6e777cacfc4ad3a3cac3b8e17ccbbe9f6893bdc61d89783315eee44e3959da225591517f6e777cacfc4ad3a3cac3b8e17ccbbe9f6893bdc61d89783315eee44e3959da235592517f6e777cacfc4ad3a3cac3b8e17ccbbe9f6893bdc61d89783315eee44e3959da245586518086018852610514808252610bb8828501908152828a0191825261038483850190815260028d5289865292517f0e7ad7371109721849e84e0aa8f38c7e2d52987cf4198b383fc809a992a35e2f55517f0e7ad7371109721849e84e0aa8f38c7e2d52987cf4198b383fc809a992a35e3055517f0e7ad7371109721849e84e0aa8f38c7e2d52987cf4198b383fc809a992a35e3155517f0e7ad7371109721849e84e0aa8f38c7e2d52987cf4198b383fc809a992a35e3255865180860188526106e081526110688184019081526107a8828a0190815261052883850190815260038d5289865292517fd183863b3c0bf41d16900072a0fb18fc55924f70979571eeaf4ae275fe9bd7a85590517fd183863b3c0bf41d16900072a0fb18fc55924f70979571eeaf4ae275fe9bd7a955517fd183863b3c0bf41d16900072a0fb18fc55924f70979571eeaf4ae275fe9bd7aa55517fd183863b3c0bf41d16900072a0fb18fc55924f70979571eeaf4ae275fe9bd7ab5586518086018852848152610af08184019081528189019586526103ac82840190815260048c5288855291517fc0697d2f1fce52aa225d0458a7b27ad1956d52964cfd4c2be7f9306a6f1400ef55517fc0697d2f1fce52aa225d0458a7b27ad1956d52964cfd4c2be7f9306a6f1400f05593517fc0697d2f1fce52aa225d0458a7b27ad1956d52964cfd4c2be7f9306a6f1400f15592517fc0697d2f1fce52aa225d0458a7b27ad1956d52964cfd4c2be7f9306a6f1400f2558551808501875261019081526104108183019081526101c282890190815260e68387019081526005808d5289865293517f101e69429c70f0e5bdf1ca2519786bb700a226052b30ab320372e4d9b3d6148a5591517f101e69429c70f0e5bdf1ca2519786bb700a226052b30ab320372e4d9b3d6148b55517f101e69429c70f0e5bdf1ca2519786bb700a226052b30ab320372e4d9b3d6148c55517f101e69429c70f0e5bdf1ca2519786bb700a226052b30ab320372e4d9b3d6148d55865180860188526105b4808252610c30828501908152828a0191825282870195865260068c5288855291517fc04cd9b44512fe9491abee65458f1e4f47328079fb141482406872aee2a9dadc5590517fc04cd9b44512fe9491abee65458f1e4f47328079fb141482406872aee2a9dadd55517fc04cd9b44512fe9491abee65458f1e4f47328079fb141482406872aee2a9dade5591517fc04cd9b44512fe9491abee65458f1e4f47328079fb141482406872aee2a9dadf5585518085018752610adc8152611900818301908152612fa882890190815261092483870190815260078c5288855292517f3e9630cde5c31505c0e768288943c411ac318108355f25e62097bfde2e170d095590517f3e9630cde5c31505c0e768288943c411ac318108355f25e62097bfde2e170d0a55517f3e9630cde5c31505c0e768288943c411ac318108355f25e62097bfde2e170d0b55517f3e9630cde5c31505c0e768288943c411ac318108355f25e62097bfde2e170d0c55855193840186526106908452610e608482019081526107589685019687526105509385019384526008895294905291517fb8c34d5b978521102a376ad401fcc53fb292b93ba791cf9bac84eddf8307bc7a5591517fb8c34d5b978521102a376ad401fcc53fb292b93ba791cf9bac84eddf8307bc7b5591517fb8c34d5b978521102a376ad401fcc53fb292b93ba791cf9bac84eddf8307bc7c55517fb8c34d5b978521102a376ad401fcc53fb292b93ba791cf9bac84eddf8307bc7d55600c80548316331790558254939094169216919091179055429055620007d5565b80516001600160a01b03811681146200079857600080fd5b919050565b60008060408385031215620007b157600080fd5b620007bc8362000780565b9150620007cc6020840162000780565b90509250929050565b613f1f80620007e56000396000f3fe6080604052600436106102725760003560e01c8063800bfa271161014f578063c1712d57116100c1578063e3198e081161007a578063e3198e081461095d578063e9dd65831461098d578063f3245254146109a0578063f89d7571146109c0578063f9c64454146109e0578063fae9261214610a0357600080fd5b8063c1712d5714610875578063ccd5e491146108b7578063daa17f49146108f2578063dd4b466b14610912578063de8ca33a14610932578063decc1bbf1461094857600080fd5b80639b562df2116101135780639b562df214610682578063a2f9cc5b14610786578063a596b645146107e2578063bd63837814610805578063bdc7da8e14610832578063be9a263c1461084857600080fd5b8063800bfa27146105c4578063887aca72146105e75780638c87fa4f1461061f5780638da5cb5b146106425780639a4a20841461066257600080fd5b8063428967da116101e857806360b76b52116101ac57806360b76b521461050b578063620a9a991461052b57806365af3a2f1461054e5780637502bad4146105645780637659bc60146105845780637cca26d9146105a457600080fd5b8063428967da146104325780634f264b0314610448578063537e8f49146104685780635d219d5f146104ab5780635e75968e146104cb57600080fd5b80632a490ae81161023a5780632a490ae81461033a5780632ef788651461035a578063351662e4146103925780633e5f2857146103b257806341ede44f146103d25780634274b1641461041257600080fd5b806307722bc2146102775780630d67f59e146102995780630df7b41a146102d65780630ee22f31146102f657806321b74ea714610316575b600080fd5b34801561028357600080fd5b506102976102923660046136d4565b610a23565b005b3480156102a557600080fd5b506000546102b9906001600160a01b031681565b6040516001600160a01b0390911681526020015b60405180910390f35b3480156102e257600080fd5b506102976102f136600461373a565b610c31565b34801561030257600080fd5b5061029761031136600461375e565b610c7d565b34801561032257600080fd5b5061032c60035481565b6040519081526020016102cd565b34801561034657600080fd5b5061032c6103553660046137cf565b61107a565b34801561036657600080fd5b5061032c6103753660046137cf565b600a60209081526000928352604080842090915290825290205481565b34801561039e57600080fd5b506102976103ad366004613808565b611091565b3480156103be57600080fd5b506102976103cd366004613861565b61148c565b3480156103de57600080fd5b5061032c6103ed3660046137cf565b60ff918216600090815260076020908152604080832093909416825291909152205490565b34801561041e57600080fd5b5061029761042d3660046136d4565b61195e565b34801561043e57600080fd5b5061032c60045481565b34801561045457600080fd5b506001546102b9906001600160a01b031681565b34801561047457600080fd5b50601b54601c54601d54601e5461048b9392919084565b6040805194855260208501939093529183015260608201526080016102cd565b3480156104b757600080fd5b506102976104c636600461373a565b611b5d565b3480156104d757600080fd5b506104fb6104e636600461373a565b60096020526000908152604090205460ff1681565b60405190151581526020016102cd565b34801561051757600080fd5b506102976105263660046138bb565b611ba9565b34801561053757600080fd5b50600f5460105460115460125461048b9392919084565b34801561055a57600080fd5b5061032c60055481565b34801561057057600080fd5b50600e546102b9906001600160a01b031681565b34801561059057600080fd5b5061029761059f3660046137cf565b611dc4565b3480156105b057600080fd5b506002546102b9906001600160a01b031681565b3480156105d057600080fd5b50601754601854601954601a5461048b9392919084565b3480156105f357600080fd5b5061032c6106023660046137cf565b600760209081526000928352604080842090915290825290205481565b34801561062b57600080fd5b5060135460145460155460165461048b9392919084565b34801561064e57600080fd5b50600c546102b9906001600160a01b031681565b34801561066e57600080fd5b5061029761067d366004613917565b611e1d565b34801561068e57600080fd5b5061077261069d3660046137cf565b60276020908152600092835260408084208252918352918190208151608080820184528254825260018301548286015260028301548285015260038301546060808401919091526004840154600585015460068601546007870154885160c081018a52600889015481526009890154818c0152600a890154818b0152600b89015495810195909552600c88015495850195909552600d87015460a08501528751808901909852600e87015460ff8082168a526101009091041698880198909852600f90950154939661ffff9182169691169388565b6040516102cd989796959493929190613957565b34801561079257600080fd5b506107d06107a13660046138bb565b602860209081526000948552604080862082529385528385208152918452828420909152825290205460ff1681565b60405160ff90911681526020016102cd565b3480156107ee57600080fd5b50601f5460205460215460225461048b9392919084565b34801561081157600080fd5b506108256108203660046137cf565b611e7b565b6040516102cd9190613a13565b34801561083e57600080fd5b5061032c6103e881565b34801561085457600080fd5b506108686108633660046137cf565b611fd1565b6040516102cd9190613acf565b34801561088157600080fd5b5061048b610890366004613b34565b60296020526000908152604090208054600182015460028301546003909301549192909184565b3480156108c357600080fd5b506104fb6108d23660046137cf565b600b60209081526000928352604080842090915290825290205460ff1681565b3480156108fe57600080fd5b50600d546102b9906001600160a01b031681565b34801561091e57600080fd5b5061029761092d3660046137cf565b612145565b34801561093e57600080fd5b5061032c60065481565b34801561095457600080fd5b506107d0600981565b34801561096957600080fd5b506104fb61097836600461373a565b60086020526000908152604090205460ff1681565b61029761099b366004613b51565b6122a6565b3480156109ac57600080fd5b5061032c6109bb3660046137cf565b6129c5565b3480156109cc57600080fd5b506102976109db3660046136d4565b612b58565b3480156109ec57600080fd5b5060235460245460255460265461048b9392919084565b348015610a0f57600080fd5b50610297610a1e36600461373a565b612ea1565b600154604051638a88895360e01b815260ff8087166004830152851660248201528591859133916001600160a01b031690638a88895390604401602060405180830381865afa158015610a7a573d6000803e3d6000fd5b505050506040513d601f19601f82011682018060405250810190610a9e9190613b78565b6001600160a01b031614610acd5760405162461bcd60e51b8152600401610ac490613b95565b60405180910390fd5b60008311610aed5760405162461bcd60e51b8152600401610ac490613bb2565b8360ff1660011480610b0257508360ff166002145b610b1e5760405162461bcd60e51b8152600401610ac490613bcd565b6000610b2c87876001612eed565b905060008111610b4e5760405162461bcd60e51b8152600401610ac490613be8565b60008560ff16600114610b62576013610b65565b600f5b60408051608081018252825481526001830154602082015260028301549181019190915260039091015460608201529050610ba38888838886612f88565b8560ff16600103610bed5760ff8089166000908152602760209081526040808320938b1683529290529081206008018054879290610be2908490613c19565b90915550610c279050565b60ff8089166000908152602760209081526040808320938b1683529290529081206009018054879290610c21908490613c19565b90915550505b5050505050505050565b600c546001600160a01b03163314610c5b5760405162461bcd60e51b8152600401610ac490613b95565b600e80546001600160a01b0319166001600160a01b0392909216919091179055565b600154604051638a88895360e01b815260ff8088166004830152861660248201528691869133916001600160a01b031690638a88895390604401602060405180830381865afa158015610cd4573d6000803e3d6000fd5b505050506040513d601f19601f82011682018060405250810190610cf89190613b78565b6001600160a01b031614610d1e5760405162461bcd60e51b8152600401610ac490613b95565b8484600960ff8316108015610d365750600960ff8216105b610d6a5760405162461bcd60e51b815260206004820152600560248201526418dbdbdc9960da1b6044820152606401610ac4565b8660ff166004148015610d8057508560ff166004145b15610d9d5760405162461bcd60e51b8152600401610ac490613c2c565b60ff808a1660009081526028602090815260408083208c8516845282528083208b8516845282528083208a85168452909152902054168015610e055760405162461bcd60e51b81526020600482015260016024820152606560f81b6044820152606401610ac4565b8560ff16600303610e5857610e1c8a8a6003612eed565b15610e395760405162461bcd60e51b8152600401610ac490613c2c565b336000908152600860205260409020805460ff19166001179055610ebb565b8560ff16600603610ebb57610e6f8a8a6006612eed565b15610ea05760405162461bcd60e51b81526020600482015260016024820152606d60f81b6044820152606401610ac4565b336000908152600960205260409020805460ff191660011790555b60ff808716600090815260296020908152604080832081516080810183528154815260018201548185015260028201548184015260039091015460608201528e8516845260278352818420948e168452939091529020815181541015610f335760405162461bcd60e51b8152600401610ac490613c47565b602082015160018201541015610f5b5760405162461bcd60e51b8152600401610ac490613c62565b604082015160028201541015610f835760405162461bcd60e51b8152600401610ac490613c7d565b606082015160038201541015610fab5760405162461bcd60e51b8152600401610ac490613c98565b815181548290600090610fbf908490613cb3565b90915550506020820151600182018054600090610fdd908490613cb3565b90915550506040820151600282018054600090610ffb908490613cb3565b90915550506060820151600382018054600090611019908490613cb3565b909155505060ff8c811660009081526028602090815260408083208f8516845282528083208e8516845282528083208d851684529091529020805460ff1916918a1691909117905561106c818d8d613137565b505050505050505050505050565b600061108883836007612eed565b90505b92915050565b600154604051638a88895360e01b815260ff8086166004830152841660248201528491849133916001600160a01b031690638a88895390604401602060405180830381865afa1580156110e8573d6000803e3d6000fd5b505050506040513d601f19601f8201168201806040525081019061110c9190613b78565b6001600160a01b0316146111325760405162461bcd60e51b8152600401610ac490613b95565b60ff808616600090815260276020908152604080832088851684529091528120916060908616600103611195575050600e81015460408051808201909152600d81526c0decccccadce6d2eccaa8cac6d609b1b602082015260ff9091169061120b565b8560ff166002036111da575050600e81015460408051808201909152600d81526c0c8cacccadce6d2eccaa8cac6d609b1b602082015261010090910460ff169061120b565b60405162461bcd60e51b8152600401610ac4906020808252600490820152637479706560e01b604082015260600190565b6127108260ff1611156112445760405162461bcd60e51b81526020600482015260016024820152601b60fa1b6044820152606401610ac4565b600061125289896008612eed565b9050600081116112745760405162461bcd60e51b8152600401610ac490613c62565b6000611281846001613cc6565b61128f9060ff166002613cdf565b905060008261129f83608c613cdf565b6112a99190613d0c565b90506000836112b9846078613cdf565b6112c39190613d0c565b90506000846112d38560b4613cdf565b6112dd9190613d0c565b90506000856112ed866078613cdf565b6112f79190613d0c565b895490915084111561131b5760405162461bcd60e51b8152600401610ac490613c47565b600189015483111561133f5760405162461bcd60e51b8152600401610ac490613c62565b60028901548211156113635760405162461bcd60e51b8152600401610ac490613c7d565b60038901548111156113875760405162461bcd60e51b8152600401610ac490613c98565b885484908a9060009061139b908490613cb3565b90915550506001890180548491906000906113b7908490613cb3565b90915550506002890180548391906000906113d3908490613cb3565b90915550506003890180548291906000906113ef908490613cb3565b909155505060ff8c1660010361143257600e8901805460ff1690600061141483613d20565b91906101000a81548160ff021916908360ff16021790555050611471565b8b60ff1660020361147157600e89018054610100900460ff1690600161145783613d20565b91906101000a81548160ff021916908360ff160217905550505b61147c898f8f613137565b5050505050505050505050505050565b600d546001600160a01b031633146114b65760405162461bcd60e51b8152600401610ac490613be8565b60ff80861660009081526027602090815260408083208885168452909152902090841660010361153a578115611505578054839082906000906114fa908490613c19565b9091555061194b9050565b80548311156115265760405162461bcd60e51b8152600401610ac490613c47565b8054839082906000906114fa908490613cb3565b8360ff1660020361159d57811561156257828160000160010160008282546114fa9190613c19565b60018101548311156115865760405162461bcd60e51b8152600401610ac490613c62565b828160000160010160008282546114fa9190613cb3565b8360ff166003036116005781156115c557828160000160020160008282546114fa9190613c19565b60028101548311156115e95760405162461bcd60e51b8152600401610ac490613c7d565b828160000160020160008282546114fa9190613cb3565b8360ff1660040361166357811561162857828160000160030160008282546114fa9190613c19565b600381015483111561164c5760405162461bcd60e51b8152600401610ac490613c98565b828160000160030160008282546114fa9190613cb3565b8360ff166005036116db57811561168b57828160080160000160008282546114fa9190613c19565b60088101548311156116c45760405162461bcd60e51b81526020600482015260026024820152616f6160f01b6044820152606401610ac4565b828160080160000160008282546114fa9190613cb3565b8360ff1660060361175357811561170357828160080160010160008282546114fa9190613c19565b600981015483111561173c5760405162461bcd60e51b8152602060048201526002602482015261646160f01b6044820152606401610ac4565b828160080160010160008282546114fa9190613cb3565b8360ff166007036117cb57811561177b57828160080160020160008282546114fa9190613c19565b600a8101548311156117b45760405162461bcd60e51b81526020600482015260026024820152616f7760f01b6044820152606401610ac4565b828160080160020160008282546114fa9190613cb3565b8360ff166008036118435781156117f357828160080160030160008282546114fa9190613c19565b600b81015483111561182c5760405162461bcd60e51b8152602060048201526002602482015261647760f01b6044820152606401610ac4565b828160080160030160008282546114fa9190613cb3565b8360ff166009036118bb57811561186b57828160080160040160008282546114fa9190613c19565b600c8101548311156118a45760405162461bcd60e51b81526020600482015260026024820152616f7360f01b6044820152606401610ac4565b828160080160040160008282546114fa9190613cb3565b8360ff16600a036119335781156118e357828160080160050160008282546114fa9190613c19565b600d81015483111561191c5760405162461bcd60e51b8152602060048201526002602482015261647360f01b6044820152606401610ac4565b828160080160050160008282546114fa9190613cb3565b60405162461bcd60e51b8152600401610ac490613bcd565b611956818787613137565b505050505050565b600154604051638a88895360e01b815260ff8087166004830152851660248201528591859133916001600160a01b031690638a88895390604401602060405180830381865afa1580156119b5573d6000803e3d6000fd5b505050506040513d601f19601f820116820180604052508101906119d99190613b78565b6001600160a01b0316146119ff5760405162461bcd60e51b8152600401610ac490613b95565b60008311611a1f5760405162461bcd60e51b8152600401610ac490613bb2565b8360ff1660011480611a3457508360ff166002145b611a505760405162461bcd60e51b8152600401610ac490613bcd565b6000611a5e87876002612eed565b905060008111611a955760405162461bcd60e51b8152602060048201526002602482015261627360f01b6044820152606401610ac4565b60008560ff16600114611aa957601b611aac565b60175b60408051608081018252825481526001830154602082015260028301549181019190915260039091015460608201529050611aea8888838886612f88565b8560ff16600103611b295760ff8089166000908152602760209081526040808320938b168352929052908120600a018054879290610be2908490613c19565b60ff8089166000908152602760209081526040808320938b168352929052908120600b018054879290610c21908490613c19565b600c546001600160a01b03163314611b875760405162461bcd60e51b8152600401610ac490613b95565b600280546001600160a01b0319166001600160a01b0392909216919091179055565b600154604051638a88895360e01b815260ff8087166004830152851660248201528591859133916001600160a01b031690638a88895390604401602060405180830381865afa158015611c00573d6000803e3d6000fd5b505050506040513d601f19601f82011682018060405250810190611c249190613b78565b6001600160a01b031614611c4a5760405162461bcd60e51b8152600401610ac490613b95565b8383600960ff8316108015611c625750600960ff8216105b611c965760405162461bcd60e51b815260206004820152600560248201526418dbdbdc9960da1b6044820152606401610ac4565b8560ff166004148015611cac57508460ff166004145b15611cc95760405162461bcd60e51b8152600401610ac490613c2c565b60ff80891660009081526028602090815260408083208b8516845282528083208a851684528252808320898516845290915281205490911690819003611d355760405162461bcd60e51b81526020600482015260016024820152603760f91b6044820152606401610ac4565b8060ff16600303611d5c57336000908152600860205260409020805460ff19169055611d7f565b8060ff16600603611d7f57336000908152600960205260409020805460ff191690555b50505060ff958616600090815260286020908152604080832097891683529681528682209588168252948552858120939096168652505090529020805460ff19169055565b600d546001600160a01b03163314611dee5760405162461bcd60e51b8152600401610ac490613be8565b60ff8083166000908152602760209081526040808320938516835292905220611e18818484613137565b505050565b600d546001600160a01b03163314611e475760405162461bcd60e51b8152600401610ac490613be8565b60ff9283166000908152600b6020908152604080832094909516825292909252919020805460ff1916911515919091179055565b611efe604051806101e0016040528060008152602001600081526020016000815260200160008152602001600061ffff16815260200160008152602001600081526020016000815260200160008152602001600081526020016000815260200160008152602001600060ff168152602001600060ff168152602001600081525090565b5060ff918216600090815260276020908152604080832093851683529281529082902082516101e0810184528154815260018201549281019290925260028101549282019290925260038201546060820152600482015461ffff166080820152600582015460a0820152600882015460c0820152600982015460e0820152600a82015461010080830191909152600b830154610120830152600c830154610140830152600d830154610160830152600e830154808516610180840152049092166101a0830152600f01546101c082015290565b611fd9613657565b600154604051638a88895360e01b815260ff8086166004830152841660248201528491849133916001600160a01b031690638a88895390604401602060405180830381865afa158015612030573d6000803e3d6000fd5b505050506040513d601f19601f820116820180604052508101906120549190613b78565b6001600160a01b03161461207a5760405162461bcd60e51b8152600401610ac490613b95565b612082613657565b60005b600960ff821610156121395760005b600960ff821610156121265760ff80891660009081526028602090815260408083208b851684528252808320868516808552908352818420868616855290925290912054909116908490600981106120ee576120ee613d3f565b60200201518260ff166009811061210757612107613d3f565b60ff90921660209290920201528061211e81613d20565b915050612094565b508061213181613d20565b915050612085565b5092505b505092915050565b600154604051638a88895360e01b815260ff8085166004830152831660248201528391839133916001600160a01b031690638a88895390604401602060405180830381865afa15801561219c573d6000803e3d6000fd5b505050506040513d601f19601f820116820180604052508101906121c09190613b78565b6001600160a01b0316146121e65760405162461bcd60e51b8152600401610ac490613b95565b60ff80851660009081526027602090815260408083209387168352929052908120600701546122159042613cb3565b61222090603c613cdf565b60ff808716600090815260276020908152604080832093891683529290522060060154612251919061ffff16613c19565b905061025881116122625780612266565b6102585b60ff95861660009081526027602090815260408083209790981682529590955294909320600601805461ffff191661ffff90951694909417909355505050565b600154604051638a88895360e01b815260ff8085166004830152831660248201528391839133916001600160a01b031690638a88895390604401602060405180830381865afa1580156122fd573d6000803e3d6000fd5b505050506040513d601f19601f820116820180604052508101906123219190613b78565b6001600160a01b0316146123475760405162461bcd60e51b8152600401610ac490613b95565b60008561ffff161161237f5760405162461bcd60e51b81526020600482015260016024820152600360fc1b6044820152606401610ac4565b60035434146123ba5760405162461bcd60e51b81526020600482015260076024820152666261642066656560c81b6044820152606401610ac4565b600e546001600160a01b03166124025760405162461bcd60e51b815260206004820152600d60248201526c195e1d1c98481b9bdd081cd95d609a1b6044820152606401610ac4565b61240c8484612145565b60ff80851660009081526027602090815260408083209387168352929052206006015461ffff808716911610156124555760405162461bcd60e51b8152600401610ac490613bcd565b60ff808516600090815260276020908152604080832093871683529290522060050154612484906103e8613cb3565b8561ffff1611156124c15760ff8085166000908152602760209081526040808320938716835292905220600501546124be906103e8613cb3565b94505b60ff8085166000908152602760209081526040808320938716835292905220600601546124f390869061ffff16613d55565b60ff8581166000908152602760209081526040808320938816835292905290812060068101805461ffff191661ffff94909416939093179092554260079092019190915561254385856005612eed565b9050612550600182613c19565b600254604051632a2026a960e01b815260ff8089166004830152871660248201529192506000916001600160a01b0390911690632a2026a990604401602060405180830381865afa1580156125a9573d6000803e3d6000fd5b505050506040513d601f19601f820116820180604052508101906125cd9190613d77565b60ff80881660009081526027602090815260408083208a8516845290915290209192508216600103612624576126078361ffff8a16613cdf565b81548290600090612619908490613c19565b909155506126b19050565b8160ff166002036126515761263d8361ffff8a16613cdf565b600182018054600090612619908490613c19565b8160ff1660030361267e5761266a8361ffff8a16613cdf565b600282018054600090612619908490613c19565b8160ff166004036126b1576126978361ffff8a16613cdf565b6003820180546000906126ab908490613c19565b90915550505b6126bf8361ffff8a16613cdf565b815482906000906126d1908490613c19565b909155506126e590508361ffff8a16613cdf565b6001820180546000906126f9908490613c19565b9091555061270d90508361ffff8a16613cdf565b600282018054600090612721908490613c19565b9091555061273590508361ffff8a16613cdf565b600382018054600090612749908490613c19565b925050819055508761ffff168160050160008282546127689190613c19565b90915550506005810154600090612782906103e890613d0c565b90506103e882600501600082825461279a9190613d94565b909155505060048201546000906127b690839061ffff16613da8565b90506101f48161ffff1611156127dc5760048301805461ffff19166101f41790556127f0565b60048301805461ffff191661ffff83161790555b6127fb838a8a613137565b60ff808a166000908152600760209081526040808320938c168352929052908120805461ffff8d169290612830908490613c19565b90915550612842905089896000611e47565b6040805161ffff8c16815260ff8b811660208301528a1681830152905133917fbb5b4f7847476e1912e2b57d030b0e491d0d72b2ef256cceea9daa41f40f5d18919081900360600190a261289534613197565b6000806128a0613412565b909250905081156129a257600081836004548f61ffff166128c19190613cdf565b6128cb9190613cdf565b6128d59190613d0c565b6000805460405163a9059cbb60e01b81523360048201526024810184905292935090916001600160a01b039091169063a9059cbb906044016020604051808303816000875af115801561292c573d6000803e3d6000fd5b505050506040513d601f19601f820116820180604052508101906129509190613dc3565b90508061299f5760405162461bcd60e51b815260206004820152601a60248201527f4c4f5020726577617264207472616e73666572206661696c65640000000000006044820152606401610ac4565b50505b600680549060006129b283613de0565b9190505550505050505050505050505050565b600154604051638a88895360e01b815260ff8085166004830152831660248201526000918491849133916001600160a01b0390911690638a88895390604401602060405180830381865afa158015612a21573d6000803e3d6000fd5b505050506040513d601f19601f82011682018060405250810190612a459190613b78565b6001600160a01b031614612a6b5760405162461bcd60e51b8152600401610ac490613b95565b60ff80861660009081526027602090815260408083209388168352929052206007015461025890612a9c9042613cb3565b612aa790603c613cdf565b60ff8088166000908152602760209081526040808320938a1683529290522060060154612ad8919061ffff16613c19565b1115612ae857610258925061213d565b60ff808616600090815260276020908152604080832093881683529290522060070154612b159042613cb3565b612b2090603c613cdf565b60ff808716600090815260276020908152604080832093891683529290522060060154612b51919061ffff16613c19565b925061213d565b600154604051638a88895360e01b815260ff8087166004830152851660248201528591859133916001600160a01b031690638a88895390604401602060405180830381865afa158015612baf573d6000803e3d6000fd5b505050506040513d601f19601f82011682018060405250810190612bd39190613b78565b6001600160a01b031614612bf95760405162461bcd60e51b8152600401610ac490613b95565b60008311612c195760405162461bcd60e51b8152600401610ac490613bb2565b8360ff1660011480612c2e57508360ff166002145b612c4a5760405162461bcd60e51b8152600401610ac490613bcd565b6000612c5887876004612eed565b905060008111612c8e5760405162461bcd60e51b81526020600482015260016024820152600760fc1b6044820152606401610ac4565b60008560ff16600114612ca2576023612ca5565b601f5b60408051608081018252825481526001830154602082015260028301549181019190915260039091015460608201529050612ce38888838886612f88565b60ff80891660009081526027602090815260408083208b851684529091529020600801908716600103612dd4578054861115612d465760405162461bcd60e51b81526020600482015260026024820152616f6160f01b6044820152606401610ac4565b8581600201541015612d7f5760405162461bcd60e51b81526020600482015260026024820152616f7760f01b6044820152606401610ac4565b85816000016000828254612d939190613cb3565b9250508190555085816002016000828254612dae9190613cb3565b9250508190555085816004016000828254612dc99190613c19565b90915550612e969050565b8581600101541015612e0d5760405162461bcd60e51b8152602060048201526002602482015261646160f01b6044820152606401610ac4565b8581600301541015612e465760405162461bcd60e51b8152602060048201526002602482015261647760f01b6044820152606401610ac4565b85816001016000828254612e5a9190613cb3565b9250508190555085816003016000828254612e759190613cb3565b9250508190555085816005016000828254612e909190613c19565b90915550505b505050505050505050565b600c546001600160a01b03163314612ecb5760405162461bcd60e51b8152600401610ac490613b95565b600d80546001600160a01b0319166001600160a01b0392909216919091179055565b600080805b600960ff82161015612f7f5760005b600960ff82161015612f6c5760ff87811660009081526028602090815260408083208a851684528252808320868516845282528083208585168452909152902054818716911603612f5a5782612f5681613de0565b9350505b80612f6481613d20565b915050612f01565b5080612f7781613d20565b915050612ef2565b50949350505050565b60ff8086166000908152602760209081526040808320938816835292905290812084519091908390612fbb908690613cdf565b612fc59190613d0c565b9050600083858760200151612fda9190613cdf565b612fe49190613d0c565b9050600084868860400151612ff99190613cdf565b6130039190613d0c565b90506000858789606001516130189190613cdf565b6130229190613d0c565b85549091508411156130465760405162461bcd60e51b8152600401610ac490613c47565b600185015483111561306a5760405162461bcd60e51b8152600401610ac490613c62565b600285015482111561308e5760405162461bcd60e51b8152600401610ac490613c7d565b60038501548111156130b25760405162461bcd60e51b8152600401610ac490613c98565b8454849086906000906130c6908490613cb3565b90915550506001850180548491906000906130e2908490613cb3565b90915550506002850180548391906000906130fe908490613cb3565b909155505060038501805482919060009061311a908490613cb3565b9091555061312b9050858b8b613137565b50505050505050505050565b6003830154600284015460018501548554600093929161315691613c19565b6131609190613c19565b61316a9190613c19565b600f9094018490555060ff9182166000908152600a60209081526040808320939094168252919091522055565b61319f613685565b6000808060006131ad613469565b919450925090506001600160a01b038316156131f5578285856131cf81613de0565b9650600481106131e1576131e1613d3f565b6001600160a01b0390921660209290920201525b6001600160a01b038216156132365781858561321081613de0565b96506004811061322257613222613d3f565b6001600160a01b0390921660209290920201525b6001600160a01b038116156132775780858561325181613de0565b96506004811061326357613263613d3f565b6001600160a01b0390921660209290920201525b600e546001600160a01b0316858561328e81613de0565b9650600481106132a0576132a0613d3f565b6001600160a01b03909216602092909202015260006132bf8588613d0c565b90506000805b868110156133765760008882600481106132e1576132e1613d3f565b60200201516001600160a01b03168460405160006040518083038185875af1925050503d8060008114613330576040519150601f19603f3d011682016040523d82523d6000602084013e613335565b606091505b50509050806133565760405162461bcd60e51b8152600401610ac490613c7d565b6133608484613c19565b925050808061336e90613de0565b9150506132c5565b506000613383828a613cb3565b90508015612e9657600e546040516000916001600160a01b03169083908381818185875af1925050503d80600081146133d8576040519150601f19603f3d011682016040523d82523d6000602084013e6133dd565b606091505b505090508061312b5760405162461bcd60e51b81526020600482015260016024820152603960f91b6044820152606401610ac4565b600080600061341f613615565b9050600581106134355750600092600192509050565b806000036134495750600292600192509050565b60016134558183613cb3565b613460906002613edd565b92509250509091565b60008060008060008060005b60148160ff16101561360c5760005b60148160ff1610156135f95760ff8083166000908152600a60209081526040808320938516835292905290812054908190036134c057506135e7565b600154604051638a88895360e01b815260ff8086166004830152841660248201526000916001600160a01b031690638a88895390604401602060405180830381865afa158015613514573d6000803e3d6000fd5b505050506040513d601f19601f820116820180604052508101906135389190613b78565b90506001600160a01b03811661354f5750506135e7565b8682111561356657989796509493925084886135e4565b85821180156135875750896001600160a01b0316816001600160a01b031614155b156135995797965093925083876135e4565b84821180156135ba5750896001600160a01b0316816001600160a01b031614155b80156135d85750886001600160a01b0316816001600160a01b031614155b156135e4578194508097505b50505b806135f181613d20565b915050613484565b508061360481613d20565b915050613475565b50505050909192565b600060055460001480613629575060055442105b15613635575060001990565b6301e13380600554426136489190613cb3565b6136529190613d0c565b905090565b6040518061012001604052806009905b61366f6136a3565b8152602001906001900390816136675790505090565b60405180608001604052806004906020820280368337509192915050565b6040518061012001604052806009906020820280368337509192915050565b60ff811681146136d157600080fd5b50565b600080600080608085870312156136ea57600080fd5b84356136f5816136c2565b93506020850135613705816136c2565b92506040850135613715816136c2565b9396929550929360600135925050565b6001600160a01b03811681146136d157600080fd5b60006020828403121561374c57600080fd5b813561375781613725565b9392505050565b600080600080600060a0868803121561377657600080fd5b8535613781816136c2565b94506020860135613791816136c2565b935060408601356137a1816136c2565b925060608601356137b1816136c2565b915060808601356137c1816136c2565b809150509295509295909350565b600080604083850312156137e257600080fd5b82356137ed816136c2565b915060208301356137fd816136c2565b809150509250929050565b60008060006060848603121561381d57600080fd5b8335613828816136c2565b92506020840135613838816136c2565b91506040840135613848816136c2565b809150509250925092565b80151581146136d157600080fd5b600080600080600060a0868803121561387957600080fd5b8535613884816136c2565b94506020860135613894816136c2565b935060408601356138a4816136c2565b92506060860135915060808601356137c181613853565b600080600080608085870312156138d157600080fd5b84356138dc816136c2565b935060208501356138ec816136c2565b925060408501356138fc816136c2565b9150606085013561390c816136c2565b939692955090935050565b60008060006060848603121561392c57600080fd5b8335613937816136c2565b92506020840135613947816136c2565b9150604084013561384881613853565b6000610220820190508951825260208a0151602083015260408a0151604083015260608a0151606083015261ffff808a1660808401528860a084015280881660c0840152508560e08301528451610100830152602085015161012083015260408501516101408301526060850151610160830152608085015161018083015260a08501516101a08301526139ff6101c0830185805160ff908116835260209182015116910152565b826102008301529998505050505050505050565b60006101e082019050825182526020830151602083015260408301516040830152606083015160608301526080830151613a53608084018261ffff169052565b5060a0838101519083015260c0808401519083015260e0808401519083015261010080840151908301526101208084015190830152610140808401519083015261016080840151908301526101808084015160ff81168285015250506101a08381015160ff81168483015250506101c092830151919092015290565b610a20810181836000805b6009808210613ae95750613b2a565b835185845b83811015613b0f57825160ff16825260209283019290910190600101613aee565b50505061012094909401935060209290920191600101613ada565b5050505092915050565b600060208284031215613b4657600080fd5b8135613757816136c2565b600080600060608486031215613b6657600080fd5b833561ffff8116811461382857600080fd5b600060208284031215613b8a57600080fd5b815161375781613725565b60208082526003908201526237bbb760e91b604082015260600190565b6020808252600190820152603d60f91b604082015260600190565b6020808252600190820152601d60fa1b604082015260600190565b6020808252600190820152606160f81b604082015260600190565b634e487b7160e01b600052601160045260246000fd5b8082018082111561108b5761108b613c03565b6020808252600190820152606360f81b604082015260600190565b6020808252600190820152603360f91b604082015260600190565b6020808252600190820152607760f81b604082015260600190565b6020808252600190820152607360f81b604082015260600190565b6020808252600190820152606960f81b604082015260600190565b8181038181111561108b5761108b613c03565b60ff818116838216019081111561108b5761108b613c03565b808202811582820484141761108b5761108b613c03565b634e487b7160e01b600052601260045260246000fd5b600082613d1b57613d1b613cf6565b500490565b600060ff821660ff8103613d3657613d36613c03565b60010192915050565b634e487b7160e01b600052603260045260246000fd5b61ffff828116828216039080821115613d7057613d70613c03565b5092915050565b600060208284031215613d8957600080fd5b8151613757816136c2565b600082613da357613da3613cf6565b500690565b61ffff818116838216019080821115613d7057613d70613c03565b600060208284031215613dd557600080fd5b815161375781613853565b600060018201613df257613df2613c03565b5060010190565b600181815b80851115613e34578160001904821115613e1a57613e1a613c03565b80851615613e2757918102915b93841c9390800290613dfe565b509250929050565b600082613e4b5750600161108b565b81613e585750600061108b565b8160018114613e6e5760028114613e7857613e94565b600191505061108b565b60ff841115613e8957613e89613c03565b50506001821b61108b565b5060208310610133831016604e8410600b8410161715613eb7575081810a61108b565b613ec18383613df9565b8060001904821115613ed557613ed5613c03565b029392505050565b60006110888383613e3c56fea2646970667358221220083213e42c0cce090648d2ca92caf862fde47cfbe60d7b591409caad120bb28a64736f6c63430008120033",
			"opcodes": "PUSH8 0x16345785D8A0000 PUSH1 0x3 SSTORE PUSH3 0xF4240 PUSH1 0x4 SSTORE PUSH1 0x78 PUSH1 0x80 DUP2 SWAP1 MSTORE PUSH1 0xA0 DUP2 SWAP1 MSTORE PUSH1 0x64 PUSH1 0xC0 DUP2 SWAP1 MSTORE PUSH1 0xB4 PUSH1 0xE0 DUP2 SWAP1 MSTORE PUSH1 0xF DUP4 SWAP1 SSTORE PUSH1 0x10 DUP4 SWAP1 SSTORE PUSH1 0x11 DUP3 SWAP1 SSTORE PUSH1 0x12 DUP2 SWAP1 SSTORE PUSH1 0x96 PUSH2 0x100 DUP2 SWAP1 MSTORE PUSH2 0x120 DUP2 SWAP1 MSTORE PUSH2 0x140 DUP4 SWAP1 MSTORE PUSH2 0x190 PUSH2 0x160 DUP2 SWAP1 MSTORE PUSH1 0x13 DUP3 SWAP1 SSTORE PUSH1 0x14 DUP3 SWAP1 SSTORE PUSH1 0x15 DUP5 SWAP1 SSTORE PUSH1 0x16 DUP2 SWAP1 SSTORE PUSH2 0x180 DUP6 SWAP1 MSTORE PUSH2 0x1A0 DUP4 SWAP1 MSTORE PUSH2 0x1C0 DUP5 SWAP1 MSTORE PUSH2 0x12C PUSH2 0x1E0 DUP2 SWAP1 MSTORE PUSH1 0x17 SWAP6 SWAP1 SWAP6 SSTORE PUSH1 0x18 SWAP3 SWAP1 SWAP3 SSTORE PUSH1 0x19 DUP4 SWAP1 SSTORE PUSH1 0x1A SWAP4 SWAP1 SWAP4 SSTORE PUSH2 0x200 DUP4 SWAP1 MSTORE PUSH1 0xC8 PUSH2 0x220 DUP2 SWAP1 MSTORE PUSH2 0x240 DUP4 SWAP1 MSTORE PUSH1 0xFA PUSH2 0x260 DUP2 SWAP1 MSTORE PUSH1 0x1B DUP6 SWAP1 SSTORE PUSH1 0x1C DUP3 SWAP1 SSTORE PUSH1 0x1D DUP5 SWAP1 SSTORE PUSH1 0x1E SSTORE PUSH2 0x280 DUP3 SWAP1 MSTORE PUSH2 0x2A0 DUP2 SWAP1 MSTORE PUSH2 0x2C0 DUP5 SWAP1 MSTORE PUSH2 0x2E0 DUP4 SWAP1 MSTORE PUSH1 0x1F DUP3 SWAP1 SSTORE PUSH1 0x20 DUP2 SWAP1 SSTORE PUSH1 0x21 DUP5 SWAP1 SSTORE PUSH1 0x22 DUP4 SWAP1 SSTORE PUSH2 0x380 PUSH1 0x40 MSTORE PUSH2 0x300 DUP3 SWAP1 MSTORE PUSH2 0x320 DUP2 SWAP1 MSTORE PUSH2 0x340 DUP5 SWAP1 MSTORE PUSH2 0x360 DUP4 SWAP1 MSTORE PUSH1 0x23 SWAP2 SWAP1 SWAP2 SSTORE PUSH1 0x24 SSTORE PUSH1 0x25 SWAP2 SWAP1 SWAP2 SSTORE PUSH1 0x26 SSTORE CALLVALUE DUP1 ISZERO PUSH3 0x13A JUMPI PUSH1 0x0 DUP1 REVERT JUMPDEST POP PUSH1 0x40 MLOAD PUSH3 0x4704 CODESIZE SUB DUP1 PUSH3 0x4704 DUP4 CODECOPY DUP2 ADD PUSH1 0x40 DUP2 SWAP1 MSTORE PUSH3 0x15D SWAP2 PUSH3 0x79D JUMP JUMPDEST PUSH1 0x1 DUP1 SLOAD PUSH1 0x1 PUSH1 0x1 PUSH1 0xA0 SHL SUB SWAP4 DUP5 AND PUSH1 0x1 PUSH1 0x1 PUSH1 0xA0 SHL SUB NOT SWAP2 DUP3 AND OR DUP3 SSTORE PUSH1 0x40 DUP1 MLOAD PUSH1 0x80 DUP1 DUP3 ADD DUP4 MSTORE PUSH2 0x4D8 DUP1 DUP4 MSTORE PUSH2 0xC80 PUSH1 0x20 DUP1 DUP6 ADD SWAP2 DUP3 MSTORE PUSH2 0x5A0 DUP6 DUP8 ADD SWAP1 DUP2 MSTORE PUSH2 0x370 PUSH1 0x60 DUP1 DUP9 ADD DUP3 DUP2 MSTORE PUSH1 0x0 SWAP12 DUP13 MSTORE PUSH1 0x29 DUP1 DUP7 MSTORE SWAP9 MLOAD PUSH32 0x6E777CACFC4AD3A3CAC3B8E17CCBBE9F6893BDC61D89783315EEE44E3959DA21 SSTORE SWAP5 MLOAD PUSH32 0x6E777CACFC4AD3A3CAC3B8E17CCBBE9F6893BDC61D89783315EEE44E3959DA22 SSTORE SWAP2 MLOAD PUSH32 0x6E777CACFC4AD3A3CAC3B8E17CCBBE9F6893BDC61D89783315EEE44E3959DA23 SSTORE SWAP3 MLOAD PUSH32 0x6E777CACFC4AD3A3CAC3B8E17CCBBE9F6893BDC61D89783315EEE44E3959DA24 SSTORE DUP7 MLOAD DUP1 DUP7 ADD DUP9 MSTORE PUSH2 0x514 DUP1 DUP3 MSTORE PUSH2 0xBB8 DUP3 DUP6 ADD SWAP1 DUP2 MSTORE DUP3 DUP11 ADD SWAP2 DUP3 MSTORE PUSH2 0x384 DUP4 DUP6 ADD SWAP1 DUP2 MSTORE PUSH1 0x2 DUP14 MSTORE DUP10 DUP7 MSTORE SWAP3 MLOAD PUSH32 0xE7AD7371109721849E84E0AA8F38C7E2D52987CF4198B383FC809A992A35E2F SSTORE MLOAD PUSH32 0xE7AD7371109721849E84E0AA8F38C7E2D52987CF4198B383FC809A992A35E30 SSTORE MLOAD PUSH32 0xE7AD7371109721849E84E0AA8F38C7E2D52987CF4198B383FC809A992A35E31 SSTORE MLOAD PUSH32 0xE7AD7371109721849E84E0AA8F38C7E2D52987CF4198B383FC809A992A35E32 SSTORE DUP7 MLOAD DUP1 DUP7 ADD DUP9 MSTORE PUSH2 0x6E0 DUP2 MSTORE PUSH2 0x1068 DUP2 DUP5 ADD SWAP1 DUP2 MSTORE PUSH2 0x7A8 DUP3 DUP11 ADD SWAP1 DUP2 MSTORE PUSH2 0x528 DUP4 DUP6 ADD SWAP1 DUP2 MSTORE PUSH1 0x3 DUP14 MSTORE DUP10 DUP7 MSTORE SWAP3 MLOAD PUSH32 0xD183863B3C0BF41D16900072A0FB18FC55924F70979571EEAF4AE275FE9BD7A8 SSTORE SWAP1 MLOAD PUSH32 0xD183863B3C0BF41D16900072A0FB18FC55924F70979571EEAF4AE275FE9BD7A9 SSTORE MLOAD PUSH32 0xD183863B3C0BF41D16900072A0FB18FC55924F70979571EEAF4AE275FE9BD7AA SSTORE MLOAD PUSH32 0xD183863B3C0BF41D16900072A0FB18FC55924F70979571EEAF4AE275FE9BD7AB SSTORE DUP7 MLOAD DUP1 DUP7 ADD DUP9 MSTORE DUP5 DUP2 MSTORE PUSH2 0xAF0 DUP2 DUP5 ADD SWAP1 DUP2 MSTORE DUP2 DUP10 ADD SWAP6 DUP7 MSTORE PUSH2 0x3AC DUP3 DUP5 ADD SWAP1 DUP2 MSTORE PUSH1 0x4 DUP13 MSTORE DUP9 DUP6 MSTORE SWAP2 MLOAD PUSH32 0xC0697D2F1FCE52AA225D0458A7B27AD1956D52964CFD4C2BE7F9306A6F1400EF SSTORE MLOAD PUSH32 0xC0697D2F1FCE52AA225D0458A7B27AD1956D52964CFD4C2BE7F9306A6F1400F0 SSTORE SWAP4 MLOAD PUSH32 0xC0697D2F1FCE52AA225D0458A7B27AD1956D52964CFD4C2BE7F9306A6F1400F1 SSTORE SWAP3 MLOAD PUSH32 0xC0697D2F1FCE52AA225D0458A7B27AD1956D52964CFD4C2BE7F9306A6F1400F2 SSTORE DUP6 MLOAD DUP1 DUP6 ADD DUP8 MSTORE PUSH2 0x190 DUP2 MSTORE PUSH2 0x410 DUP2 DUP4 ADD SWAP1 DUP2 MSTORE PUSH2 0x1C2 DUP3 DUP10 ADD SWAP1 DUP2 MSTORE PUSH1 0xE6 DUP4 DUP8 ADD SWAP1 DUP2 MSTORE PUSH1 0x5 DUP1 DUP14 MSTORE DUP10 DUP7 MSTORE SWAP4 MLOAD PUSH32 0x101E69429C70F0E5BDF1CA2519786BB700A226052B30AB320372E4D9B3D6148A SSTORE SWAP2 MLOAD PUSH32 0x101E69429C70F0E5BDF1CA2519786BB700A226052B30AB320372E4D9B3D6148B SSTORE MLOAD PUSH32 0x101E69429C70F0E5BDF1CA2519786BB700A226052B30AB320372E4D9B3D6148C SSTORE MLOAD PUSH32 0x101E69429C70F0E5BDF1CA2519786BB700A226052B30AB320372E4D9B3D6148D SSTORE DUP7 MLOAD DUP1 DUP7 ADD DUP9 MSTORE PUSH2 0x5B4 DUP1 DUP3 MSTORE PUSH2 0xC30 DUP3 DUP6 ADD SWAP1 DUP2 MSTORE DUP3 DUP11 ADD SWAP2 DUP3 MSTORE DUP3 DUP8 ADD SWAP6 DUP7 MSTORE PUSH1 0x6 DUP13 MSTORE DUP9 DUP6 MSTORE SWAP2 MLOAD PUSH32 0xC04CD9B44512FE9491ABEE65458F1E4F47328079FB141482406872AEE2A9DADC SSTORE SWAP1 MLOAD PUSH32 0xC04CD9B44512FE9491ABEE65458F1E4F47328079FB141482406872AEE2A9DADD SSTORE MLOAD PUSH32 0xC04CD9B44512FE9491ABEE65458F1E4F47328079FB141482406872AEE2A9DADE SSTORE SWAP2 MLOAD PUSH32 0xC04CD9B44512FE9491ABEE65458F1E4F47328079FB141482406872AEE2A9DADF SSTORE DUP6 MLOAD DUP1 DUP6 ADD DUP8 MSTORE PUSH2 0xADC DUP2 MSTORE PUSH2 0x1900 DUP2 DUP4 ADD SWAP1 DUP2 MSTORE PUSH2 0x2FA8 DUP3 DUP10 ADD SWAP1 DUP2 MSTORE PUSH2 0x924 DUP4 DUP8 ADD SWAP1 DUP2 MSTORE PUSH1 0x7 DUP13 MSTORE DUP9 DUP6 MSTORE SWAP3 MLOAD PUSH32 0x3E9630CDE5C31505C0E768288943C411AC318108355F25E62097BFDE2E170D09 SSTORE SWAP1 MLOAD PUSH32 0x3E9630CDE5C31505C0E768288943C411AC318108355F25E62097BFDE2E170D0A SSTORE MLOAD PUSH32 0x3E9630CDE5C31505C0E768288943C411AC318108355F25E62097BFDE2E170D0B SSTORE MLOAD PUSH32 0x3E9630CDE5C31505C0E768288943C411AC318108355F25E62097BFDE2E170D0C SSTORE DUP6 MLOAD SWAP4 DUP5 ADD DUP7 MSTORE PUSH2 0x690 DUP5 MSTORE PUSH2 0xE60 DUP5 DUP3 ADD SWAP1 DUP2 MSTORE PUSH2 0x758 SWAP7 DUP6 ADD SWAP7 DUP8 MSTORE PUSH2 0x550 SWAP4 DUP6 ADD SWAP4 DUP5 MSTORE PUSH1 0x8 DUP10 MSTORE SWAP5 SWAP1 MSTORE SWAP2 MLOAD PUSH32 0xB8C34D5B978521102A376AD401FCC53FB292B93BA791CF9BAC84EDDF8307BC7A SSTORE SWAP2 MLOAD PUSH32 0xB8C34D5B978521102A376AD401FCC53FB292B93BA791CF9BAC84EDDF8307BC7B SSTORE SWAP2 MLOAD PUSH32 0xB8C34D5B978521102A376AD401FCC53FB292B93BA791CF9BAC84EDDF8307BC7C SSTORE MLOAD PUSH32 0xB8C34D5B978521102A376AD401FCC53FB292B93BA791CF9BAC84EDDF8307BC7D SSTORE PUSH1 0xC DUP1 SLOAD DUP4 AND CALLER OR SWAP1 SSTORE DUP3 SLOAD SWAP4 SWAP1 SWAP5 AND SWAP3 AND SWAP2 SWAP1 SWAP2 OR SWAP1 SSTORE TIMESTAMP SWAP1 SSTORE PUSH3 0x7D5 JUMP JUMPDEST DUP1 MLOAD PUSH1 0x1 PUSH1 0x1 PUSH1 0xA0 SHL SUB DUP2 AND DUP2 EQ PUSH3 0x798 JUMPI PUSH1 0x0 DUP1 REVERT JUMPDEST SWAP2 SWAP1 POP JUMP JUMPDEST PUSH1 0x0 DUP1 PUSH1 0x40 DUP4 DUP6 SUB SLT ISZERO PUSH3 0x7B1 JUMPI PUSH1 0x0 DUP1 REVERT JUMPDEST PUSH3 0x7BC DUP4 PUSH3 0x780 JUMP JUMPDEST SWAP2 POP PUSH3 0x7CC PUSH1 0x20 DUP5 ADD PUSH3 0x780 JUMP JUMPDEST SWAP1 POP SWAP3 POP SWAP3 SWAP1 POP JUMP JUMPDEST PUSH2 0x3F1F DUP1 PUSH3 0x7E5 PUSH1 0x0 CODECOPY PUSH1 0x0 RETURN INVALID PUSH1 0x80 PUSH1 0x40 MSTORE PUSH1 0x4 CALLDATASIZE LT PUSH2 0x272 JUMPI PUSH1 0x0 CALLDATALOAD PUSH1 0xE0 SHR DUP1 PUSH4 0x800BFA27 GT PUSH2 0x14F JUMPI DUP1 PUSH4 0xC1712D57 GT PUSH2 0xC1 JUMPI DUP1 PUSH4 0xE3198E08 GT PUSH2 0x7A JUMPI DUP1 PUSH4 0xE3198E08 EQ PUSH2 0x95D JUMPI DUP1 PUSH4 0xE9DD6583 EQ PUSH2 0x98D JUMPI DUP1 PUSH4 0xF3245254 EQ PUSH2 0x9A0 JUMPI DUP1 PUSH4 0xF89D7571 EQ PUSH2 0x9C0 JUMPI DUP1 PUSH4 0xF9C64454 EQ PUSH2 0x9E0 JUMPI DUP1 PUSH4 0xFAE92612 EQ PUSH2 0xA03 JUMPI PUSH1 0x0 DUP1 REVERT JUMPDEST DUP1 PUSH4 0xC1712D57 EQ PUSH2 0x875 JUMPI DUP1 PUSH4 0xCCD5E491 EQ PUSH2 0x8B7 JUMPI DUP1 PUSH4 0xDAA17F49 EQ PUSH2 0x8F2 JUMPI DUP1 PUSH4 0xDD4B466B EQ PUSH2 0x912 JUMPI DUP1 PUSH4 0xDE8CA33A EQ PUSH2 0x932 JUMPI DUP1 PUSH4 0xDECC1BBF EQ PUSH2 0x948 JUMPI PUSH1 0x0 DUP1 REVERT JUMPDEST DUP1 PUSH4 0x9B562DF2 GT PUSH2 0x113 JUMPI DUP1 PUSH4 0x9B562DF2 EQ PUSH2 0x682 JUMPI DUP1 PUSH4 0xA2F9CC5B EQ PUSH2 0x786 JUMPI DUP1 PUSH4 0xA596B645 EQ PUSH2 0x7E2 JUMPI DUP1 PUSH4 0xBD638378 EQ PUSH2 0x805 JUMPI DUP1 PUSH4 0xBDC7DA8E EQ PUSH2 0x832 JUMPI DUP1 PUSH4 0xBE9A263C EQ PUSH2 0x848 JUMPI PUSH1 0x0 DUP1 REVERT JUMPDEST DUP1 PUSH4 0x800BFA27 EQ PUSH2 0x5C4 JUMPI DUP1 PUSH4 0x887ACA72 EQ PUSH2 0x5E7 JUMPI DUP1 PUSH4 0x8C87FA4F EQ PUSH2 0x61F JUMPI DUP1 PUSH4 0x8DA5CB5B EQ PUSH2 0x642 JUMPI DUP1 PUSH4 0x9A4A2084 EQ PUSH2 0x662 JUMPI PUSH1 0x0 DUP1 REVERT JUMPDEST DUP1 PUSH4 0x428967DA GT PUSH2 0x1E8 JUMPI DUP1 PUSH4 0x60B76B52 GT PUSH2 0x1AC JUMPI DUP1 PUSH4 0x60B76B52 EQ PUSH2 0x50B JUMPI DUP1 PUSH4 0x620A9A99 EQ PUSH2 0x52B JUMPI DUP1 PUSH4 0x65AF3A2F EQ PUSH2 0x54E JUMPI DUP1 PUSH4 0x7502BAD4 EQ PUSH2 0x564 JUMPI DUP1 PUSH4 0x7659BC60 EQ PUSH2 0x584 JUMPI DUP1 PUSH4 0x7CCA26D9 EQ PUSH2 0x5A4 JUMPI PUSH1 0x0 DUP1 REVERT JUMPDEST DUP1 PUSH4 0x428967DA EQ PUSH2 0x432 JUMPI DUP1 PUSH4 0x4F264B03 EQ PUSH2 0x448 JUMPI DUP1 PUSH4 0x537E8F49 EQ PUSH2 0x468 JUMPI DUP1 PUSH4 0x5D219D5F EQ PUSH2 0x4AB JUMPI DUP1 PUSH4 0x5E75968E EQ PUSH2 0x4CB JUMPI PUSH1 0x0 DUP1 REVERT JUMPDEST DUP1 PUSH4 0x2A490AE8 GT PUSH2 0x23A JUMPI DUP1 PUSH4 0x2A490AE8 EQ PUSH2 0x33A JUMPI DUP1 PUSH4 0x2EF78865 EQ PUSH2 0x35A JUMPI DUP1 PUSH4 0x351662E4 EQ PUSH2 0x392 JUMPI DUP1 PUSH4 0x3E5F2857 EQ PUSH2 0x3B2 JUMPI DUP1 PUSH4 0x41EDE44F EQ PUSH2 0x3D2 JUMPI DUP1 PUSH4 0x4274B164 EQ PUSH2 0x412 JUMPI PUSH1 0x0 DUP1 REVERT JUMPDEST DUP1 PUSH4 0x7722BC2 EQ PUSH2 0x277 JUMPI DUP1 PUSH4 0xD67F59E EQ PUSH2 0x299 JUMPI DUP1 PUSH4 0xDF7B41A EQ PUSH2 0x2D6 JUMPI DUP1 PUSH4 0xEE22F31 EQ PUSH2 0x2F6 JUMPI DUP1 PUSH4 0x21B74EA7 EQ PUSH2 0x316 JUMPI JUMPDEST PUSH1 0x0 DUP1 REVERT JUMPDEST CALLVALUE DUP1 ISZERO PUSH2 0x283 JUMPI PUSH1 0x0 DUP1 REVERT JUMPDEST POP PUSH2 0x297 PUSH2 0x292 CALLDATASIZE PUSH1 0x4 PUSH2 0x36D4 JUMP JUMPDEST PUSH2 0xA23 JUMP JUMPDEST STOP JUMPDEST CALLVALUE DUP1 ISZERO PUSH2 0x2A5 JUMPI PUSH1 0x0 DUP1 REVERT JUMPDEST POP PUSH1 0x0 SLOAD PUSH2 0x2B9 SWAP1 PUSH1 0x1 PUSH1 0x1 PUSH1 0xA0 SHL SUB AND DUP2 JUMP JUMPDEST PUSH1 0x40 MLOAD PUSH1 0x1 PUSH1 0x1 PUSH1 0xA0 SHL SUB SWAP1 SWAP2 AND DUP2 MSTORE PUSH1 0x20 ADD JUMPDEST PUSH1 0x40 MLOAD DUP1 SWAP2 SUB SWAP1 RETURN JUMPDEST CALLVALUE DUP1 ISZERO PUSH2 0x2E2 JUMPI PUSH1 0x0 DUP1 REVERT JUMPDEST POP PUSH2 0x297 PUSH2 0x2F1 CALLDATASIZE PUSH1 0x4 PUSH2 0x373A JUMP JUMPDEST PUSH2 0xC31 JUMP JUMPDEST CALLVALUE DUP1 ISZERO PUSH2 0x302 JUMPI PUSH1 0x0 DUP1 REVERT JUMPDEST POP PUSH2 0x297 PUSH2 0x311 CALLDATASIZE PUSH1 0x4 PUSH2 0x375E JUMP JUMPDEST PUSH2 0xC7D JUMP JUMPDEST CALLVALUE DUP1 ISZERO PUSH2 0x322 JUMPI PUSH1 0x0 DUP1 REVERT JUMPDEST POP PUSH2 0x32C PUSH1 0x3 SLOAD DUP2 JUMP JUMPDEST PUSH1 0x40 MLOAD SWAP1 DUP2 MSTORE PUSH1 0x20 ADD PUSH2 0x2CD JUMP JUMPDEST CALLVALUE DUP1 ISZERO PUSH2 0x346 JUMPI PUSH1 0x0 DUP1 REVERT JUMPDEST POP PUSH2 0x32C PUSH2 0x355 CALLDATASIZE PUSH1 0x4 PUSH2 0x37CF JUMP JUMPDEST PUSH2 0x107A JUMP JUMPDEST CALLVALUE DUP1 ISZERO PUSH2 0x366 JUMPI PUSH1 0x0 DUP1 REVERT JUMPDEST POP PUSH2 0x32C PUSH2 0x375 CALLDATASIZE PUSH1 0x4 PUSH2 0x37CF JUMP JUMPDEST PUSH1 0xA PUSH1 0x20 SWAP1 DUP2 MSTORE PUSH1 0x0 SWAP3 DUP4 MSTORE PUSH1 0x40 DUP1 DUP5 KECCAK256 SWAP1 SWAP2 MSTORE SWAP1 DUP3 MSTORE SWAP1 KECCAK256 SLOAD DUP2 JUMP JUMPDEST CALLVALUE DUP1 ISZERO PUSH2 0x39E JUMPI PUSH1 0x0 DUP1 REVERT JUMPDEST POP PUSH2 0x297 PUSH2 0x3AD CALLDATASIZE PUSH1 0x4 PUSH2 0x3808 JUMP JUMPDEST PUSH2 0x1091 JUMP JUMPDEST CALLVALUE DUP1 ISZERO PUSH2 0x3BE JUMPI PUSH1 0x0 DUP1 REVERT JUMPDEST POP PUSH2 0x297 PUSH2 0x3CD CALLDATASIZE PUSH1 0x4 PUSH2 0x3861 JUMP JUMPDEST PUSH2 0x148C JUMP JUMPDEST CALLVALUE DUP1 ISZERO PUSH2 0x3DE JUMPI PUSH1 0x0 DUP1 REVERT JUMPDEST POP PUSH2 0x32C PUSH2 0x3ED CALLDATASIZE PUSH1 0x4 PUSH2 0x37CF JUMP JUMPDEST PUSH1 0xFF SWAP2 DUP3 AND PUSH1 0x0 SWAP1 DUP2 MSTORE PUSH1 0x7 PUSH1 0x20 SWAP1 DUP2 MSTORE PUSH1 0x40 DUP1 DUP4 KECCAK256 SWAP4 SWAP1 SWAP5 AND DUP3 MSTORE SWAP2 SWAP1 SWAP2 MSTORE KECCAK256 SLOAD SWAP1 JUMP JUMPDEST CALLVALUE DUP1 ISZERO PUSH2 0x41E JUMPI PUSH1 0x0 DUP1 REVERT JUMPDEST POP PUSH2 0x297 PUSH2 0x42D CALLDATASIZE PUSH1 0x4 PUSH2 0x36D4 JUMP JUMPDEST PUSH2 0x195E JUMP JUMPDEST CALLVALUE DUP1 ISZERO PUSH2 0x43E JUMPI PUSH1 0x0 DUP1 REVERT JUMPDEST POP PUSH2 0x32C PUSH1 0x4 SLOAD DUP2 JUMP JUMPDEST CALLVALUE DUP1 ISZERO PUSH2 0x454 JUMPI PUSH1 0x0 DUP1 REVERT JUMPDEST POP PUSH1 0x1 SLOAD PUSH2 0x2B9 SWAP1 PUSH1 0x1 PUSH1 0x1 PUSH1 0xA0 SHL SUB AND DUP2 JUMP JUMPDEST CALLVALUE DUP1 ISZERO PUSH2 0x474 JUMPI PUSH1 0x0 DUP1 REVERT JUMPDEST POP PUSH1 0x1B SLOAD PUSH1 0x1C SLOAD PUSH1 0x1D SLOAD PUSH1 0x1E SLOAD PUSH2 0x48B SWAP4 SWAP3 SWAP2 SWAP1 DUP5 JUMP JUMPDEST PUSH1 0x40 DUP1 MLOAD SWAP5 DUP6 MSTORE PUSH1 0x20 DUP6 ADD SWAP4 SWAP1 SWAP4 MSTORE SWAP2 DUP4 ADD MSTORE PUSH1 0x60 DUP3 ADD MSTORE PUSH1 0x80 ADD PUSH2 0x2CD JUMP JUMPDEST CALLVALUE DUP1 ISZERO PUSH2 0x4B7 JUMPI PUSH1 0x0 DUP1 REVERT JUMPDEST POP PUSH2 0x297 PUSH2 0x4C6 CALLDATASIZE PUSH1 0x4 PUSH2 0x373A JUMP JUMPDEST PUSH2 0x1B5D JUMP JUMPDEST CALLVALUE DUP1 ISZERO PUSH2 0x4D7 JUMPI PUSH1 0x0 DUP1 REVERT JUMPDEST POP PUSH2 0x4FB PUSH2 0x4E6 CALLDATASIZE PUSH1 0x4 PUSH2 0x373A JUMP JUMPDEST PUSH1 0x9 PUSH1 0x20 MSTORE PUSH1 0x0 SWAP1 DUP2 MSTORE PUSH1 0x40 SWAP1 KECCAK256 SLOAD PUSH1 0xFF AND DUP2 JUMP JUMPDEST PUSH1 0x40 MLOAD SWAP1 ISZERO ISZERO DUP2 MSTORE PUSH1 0x20 ADD PUSH2 0x2CD JUMP JUMPDEST CALLVALUE DUP1 ISZERO PUSH2 0x517 JUMPI PUSH1 0x0 DUP1 REVERT JUMPDEST POP PUSH2 0x297 PUSH2 0x526 CALLDATASIZE PUSH1 0x4 PUSH2 0x38BB JUMP JUMPDEST PUSH2 0x1BA9 JUMP JUMPDEST CALLVALUE DUP1 ISZERO PUSH2 0x537 JUMPI PUSH1 0x0 DUP1 REVERT JUMPDEST POP PUSH1 0xF SLOAD PUSH1 0x10 SLOAD PUSH1 0x11 SLOAD PUSH1 0x12 SLOAD PUSH2 0x48B SWAP4 SWAP3 SWAP2 SWAP1 DUP5 JUMP JUMPDEST CALLVALUE DUP1 ISZERO PUSH2 0x55A JUMPI PUSH1 0x0 DUP1 REVERT JUMPDEST POP PUSH2 0x32C PUSH1 0x5 SLOAD DUP2 JUMP JUMPDEST CALLVALUE DUP1 ISZERO PUSH2 0x570 JUMPI PUSH1 0x0 DUP1 REVERT JUMPDEST POP PUSH1 0xE SLOAD PUSH2 0x2B9 SWAP1 PUSH1 0x1 PUSH1 0x1 PUSH1 0xA0 SHL SUB AND DUP2 JUMP JUMPDEST CALLVALUE DUP1 ISZERO PUSH2 0x590 JUMPI PUSH1 0x0 DUP1 REVERT JUMPDEST POP PUSH2 0x297 PUSH2 0x59F CALLDATASIZE PUSH1 0x4 PUSH2 0x37CF JUMP JUMPDEST PUSH2 0x1DC4 JUMP JUMPDEST CALLVALUE DUP1 ISZERO PUSH2 0x5B0 JUMPI PUSH1 0x0 DUP1 REVERT JUMPDEST POP PUSH1 0x2 SLOAD PUSH2 0x2B9 SWAP1 PUSH1 0x1 PUSH1 0x1 PUSH1 0xA0 SHL SUB AND DUP2 JUMP JUMPDEST CALLVALUE DUP1 ISZERO PUSH2 0x5D0 JUMPI PUSH1 0x0 DUP1 REVERT JUMPDEST POP PUSH1 0x17 SLOAD PUSH1 0x18 SLOAD PUSH1 0x19 SLOAD PUSH1 0x1A SLOAD PUSH2 0x48B SWAP4 SWAP3 SWAP2 SWAP1 DUP5 JUMP JUMPDEST CALLVALUE DUP1 ISZERO PUSH2 0x5F3 JUMPI PUSH1 0x0 DUP1 REVERT JUMPDEST POP PUSH2 0x32C PUSH2 0x602 CALLDATASIZE PUSH1 0x4 PUSH2 0x37CF JUMP JUMPDEST PUSH1 0x7 PUSH1 0x20 SWAP1 DUP2 MSTORE PUSH1 0x0 SWAP3 DUP4 MSTORE PUSH1 0x40 DUP1 DUP5 KECCAK256 SWAP1 SWAP2 MSTORE SWAP1 DUP3 MSTORE SWAP1 KECCAK256 SLOAD DUP2 JUMP JUMPDEST CALLVALUE DUP1 ISZERO PUSH2 0x62B JUMPI PUSH1 0x0 DUP1 REVERT JUMPDEST POP PUSH1 0x13 SLOAD PUSH1 0x14 SLOAD PUSH1 0x15 SLOAD PUSH1 0x16 SLOAD PUSH2 0x48B SWAP4 SWAP3 SWAP2 SWAP1 DUP5 JUMP JUMPDEST CALLVALUE DUP1 ISZERO PUSH2 0x64E JUMPI PUSH1 0x0 DUP1 REVERT JUMPDEST POP PUSH1 0xC SLOAD PUSH2 0x2B9 SWAP1 PUSH1 0x1 PUSH1 0x1 PUSH1 0xA0 SHL SUB AND DUP2 JUMP JUMPDEST CALLVALUE DUP1 ISZERO PUSH2 0x66E JUMPI PUSH1 0x0 DUP1 REVERT JUMPDEST POP PUSH2 0x297 PUSH2 0x67D CALLDATASIZE PUSH1 0x4 PUSH2 0x3917 JUMP JUMPDEST PUSH2 0x1E1D JUMP JUMPDEST CALLVALUE DUP1 ISZERO PUSH2 0x68E JUMPI PUSH1 0x0 DUP1 REVERT JUMPDEST POP PUSH2 0x772 PUSH2 0x69D CALLDATASIZE PUSH1 0x4 PUSH2 0x37CF JUMP JUMPDEST PUSH1 0x27 PUSH1 0x20 SWAP1 DUP2 MSTORE PUSH1 0x0 SWAP3 DUP4 MSTORE PUSH1 0x40 DUP1 DUP5 KECCAK256 DUP3 MSTORE SWAP2 DUP4 MSTORE SWAP2 DUP2 SWAP1 KECCAK256 DUP2 MLOAD PUSH1 0x80 DUP1 DUP3 ADD DUP5 MSTORE DUP3 SLOAD DUP3 MSTORE PUSH1 0x1 DUP4 ADD SLOAD DUP3 DUP7 ADD MSTORE PUSH1 0x2 DUP4 ADD SLOAD DUP3 DUP6 ADD MSTORE PUSH1 0x3 DUP4 ADD SLOAD PUSH1 0x60 DUP1 DUP5 ADD SWAP2 SWAP1 SWAP2 MSTORE PUSH1 0x4 DUP5 ADD SLOAD PUSH1 0x5 DUP6 ADD SLOAD PUSH1 0x6 DUP7 ADD SLOAD PUSH1 0x7 DUP8 ADD SLOAD DUP9 MLOAD PUSH1 0xC0 DUP2 ADD DUP11 MSTORE PUSH1 0x8 DUP10 ADD SLOAD DUP2 MSTORE PUSH1 0x9 DUP10 ADD SLOAD DUP2 DUP13 ADD MSTORE PUSH1 0xA DUP10 ADD SLOAD DUP2 DUP12 ADD MSTORE PUSH1 0xB DUP10 ADD SLOAD SWAP6 DUP2 ADD SWAP6 SWAP1 SWAP6 MSTORE PUSH1 0xC DUP9 ADD SLOAD SWAP6 DUP6 ADD SWAP6 SWAP1 SWAP6 MSTORE PUSH1 0xD DUP8 ADD SLOAD PUSH1 0xA0 DUP6 ADD MSTORE DUP8 MLOAD DUP1 DUP10 ADD SWAP1 SWAP9 MSTORE PUSH1 0xE DUP8 ADD SLOAD PUSH1 0xFF DUP1 DUP3 AND DUP11 MSTORE PUSH2 0x100 SWAP1 SWAP2 DIV AND SWAP9 DUP9 ADD SWAP9 SWAP1 SWAP9 MSTORE PUSH1 0xF SWAP1 SWAP6 ADD SLOAD SWAP4 SWAP7 PUSH2 0xFFFF SWAP2 DUP3 AND SWAP7 SWAP2 AND SWAP4 DUP9 JUMP JUMPDEST PUSH1 0x40 MLOAD PUSH2 0x2CD SWAP9 SWAP8 SWAP7 SWAP6 SWAP5 SWAP4 SWAP3 SWAP2 SWAP1 PUSH2 0x3957 JUMP JUMPDEST CALLVALUE DUP1 ISZERO PUSH2 0x792 JUMPI PUSH1 0x0 DUP1 REVERT JUMPDEST POP PUSH2 0x7D0 PUSH2 0x7A1 CALLDATASIZE PUSH1 0x4 PUSH2 0x38BB JUMP JUMPDEST PUSH1 0x28 PUSH1 0x20 SWAP1 DUP2 MSTORE PUSH1 0x0 SWAP5 DUP6 MSTORE PUSH1 0x40 DUP1 DUP7 KECCAK256 DUP3 MSTORE SWAP4 DUP6 MSTORE DUP4 DUP6 KECCAK256 DUP2 MSTORE SWAP2 DUP5 MSTORE DUP3 DUP5 KECCAK256 SWAP1 SWAP2 MSTORE DUP3 MSTORE SWAP1 KECCAK256 SLOAD PUSH1 0xFF AND DUP2 JUMP JUMPDEST PUSH1 0x40 MLOAD PUSH1 0xFF SWAP1 SWAP2 AND DUP2 MSTORE PUSH1 0x20 ADD PUSH2 0x2CD JUMP JUMPDEST CALLVALUE DUP1 ISZERO PUSH2 0x7EE JUMPI PUSH1 0x0 DUP1 REVERT JUMPDEST POP PUSH1 0x1F SLOAD PUSH1 0x20 SLOAD PUSH1 0x21 SLOAD PUSH1 0x22 SLOAD PUSH2 0x48B SWAP4 SWAP3 SWAP2 SWAP1 DUP5 JUMP JUMPDEST CALLVALUE DUP1 ISZERO PUSH2 0x811 JUMPI PUSH1 0x0 DUP1 REVERT JUMPDEST POP PUSH2 0x825 PUSH2 0x820 CALLDATASIZE PUSH1 0x4 PUSH2 0x37CF JUMP JUMPDEST PUSH2 0x1E7B JUMP JUMPDEST PUSH1 0x40 MLOAD PUSH2 0x2CD SWAP2 SWAP1 PUSH2 0x3A13 JUMP JUMPDEST CALLVALUE DUP1 ISZERO PUSH2 0x83E JUMPI PUSH1 0x0 DUP1 REVERT JUMPDEST POP PUSH2 0x32C PUSH2 0x3E8 DUP2 JUMP JUMPDEST CALLVALUE DUP1 ISZERO PUSH2 0x854 JUMPI PUSH1 0x0 DUP1 REVERT JUMPDEST POP PUSH2 0x868 PUSH2 0x863 CALLDATASIZE PUSH1 0x4 PUSH2 0x37CF JUMP JUMPDEST PUSH2 0x1FD1 JUMP JUMPDEST PUSH1 0x40 MLOAD PUSH2 0x2CD SWAP2 SWAP1 PUSH2 0x3ACF JUMP JUMPDEST CALLVALUE DUP1 ISZERO PUSH2 0x881 JUMPI PUSH1 0x0 DUP1 REVERT JUMPDEST POP PUSH2 0x48B PUSH2 0x890 CALLDATASIZE PUSH1 0x4 PUSH2 0x3B34 JUMP JUMPDEST PUSH1 0x29 PUSH1 0x20 MSTORE PUSH1 0x0 SWAP1 DUP2 MSTORE PUSH1 0x40 SWAP1 KECCAK256 DUP1 SLOAD PUSH1 0x1 DUP3 ADD SLOAD PUSH1 0x2 DUP4 ADD SLOAD PUSH1 0x3 SWAP1 SWAP4 ADD SLOAD SWAP2 SWAP3 SWAP1 SWAP2 DUP5 JUMP JUMPDEST CALLVALUE DUP1 ISZERO PUSH2 0x8C3 JUMPI PUSH1 0x0 DUP1 REVERT JUMPDEST POP PUSH2 0x4FB PUSH2 0x8D2 CALLDATASIZE PUSH1 0x4 PUSH2 0x37CF JUMP JUMPDEST PUSH1 0xB PUSH1 0x20 SWAP1 DUP2 MSTORE PUSH1 0x0 SWAP3 DUP4 MSTORE PUSH1 0x40 DUP1 DUP5 KECCAK256 SWAP1 SWAP2 MSTORE SWAP1 DUP3 MSTORE SWAP1 KECCAK256 SLOAD PUSH1 0xFF AND DUP2 JUMP JUMPDEST CALLVALUE DUP1 ISZERO PUSH2 0x8FE JUMPI PUSH1 0x0 DUP1 REVERT JUMPDEST POP PUSH1 0xD SLOAD PUSH2 0x2B9 SWAP1 PUSH1 0x1 PUSH1 0x1 PUSH1 0xA0 SHL SUB AND DUP2 JUMP JUMPDEST CALLVALUE DUP1 ISZERO PUSH2 0x91E JUMPI PUSH1 0x0 DUP1 REVERT JUMPDEST POP PUSH2 0x297 PUSH2 0x92D CALLDATASIZE PUSH1 0x4 PUSH2 0x37CF JUMP JUMPDEST PUSH2 0x2145 JUMP JUMPDEST CALLVALUE DUP1 ISZERO PUSH2 0x93E JUMPI PUSH1 0x0 DUP1 REVERT JUMPDEST POP PUSH2 0x32C PUSH1 0x6 SLOAD DUP2 JUMP JUMPDEST CALLVALUE DUP1 ISZERO PUSH2 0x954 JUMPI PUSH1 0x0 DUP1 REVERT JUMPDEST POP PUSH2 0x7D0 PUSH1 0x9 DUP2 JUMP JUMPDEST CALLVALUE DUP1 ISZERO PUSH2 0x969 JUMPI PUSH1 0x0 DUP1 REVERT JUMPDEST POP PUSH2 0x4FB PUSH2 0x978 CALLDATASIZE PUSH1 0x4 PUSH2 0x373A JUMP JUMPDEST PUSH1 0x8 PUSH1 0x20 MSTORE PUSH1 0x0 SWAP1 DUP2 MSTORE PUSH1 0x40 SWAP1 KECCAK256 SLOAD PUSH1 0xFF AND DUP2 JUMP JUMPDEST PUSH2 0x297 PUSH2 0x99B CALLDATASIZE PUSH1 0x4 PUSH2 0x3B51 JUMP JUMPDEST PUSH2 0x22A6 JUMP JUMPDEST CALLVALUE DUP1 ISZERO PUSH2 0x9AC JUMPI PUSH1 0x0 DUP1 REVERT JUMPDEST POP PUSH2 0x32C PUSH2 0x9BB CALLDATASIZE PUSH1 0x4 PUSH2 0x37CF JUMP JUMPDEST PUSH2 0x29C5 JUMP JUMPDEST CALLVALUE DUP1 ISZERO PUSH2 0x9CC JUMPI PUSH1 0x0 DUP1 REVERT JUMPDEST POP PUSH2 0x297 PUSH2 0x9DB CALLDATASIZE PUSH1 0x4 PUSH2 0x36D4 JUMP JUMPDEST PUSH2 0x2B58 JUMP JUMPDEST CALLVALUE DUP1 ISZERO PUSH2 0x9EC JUMPI PUSH1 0x0 DUP1 REVERT JUMPDEST POP PUSH1 0x23 SLOAD PUSH1 0x24 SLOAD PUSH1 0x25 SLOAD PUSH1 0x26 SLOAD PUSH2 0x48B SWAP4 SWAP3 SWAP2 SWAP1 DUP5 JUMP JUMPDEST CALLVALUE DUP1 ISZERO PUSH2 0xA0F JUMPI PUSH1 0x0 DUP1 REVERT JUMPDEST POP PUSH2 0x297 PUSH2 0xA1E CALLDATASIZE PUSH1 0x4 PUSH2 0x373A JUMP JUMPDEST PUSH2 0x2EA1 JUMP JUMPDEST PUSH1 0x1 SLOAD PUSH1 0x40 MLOAD PUSH4 0x8A888953 PUSH1 0xE0 SHL DUP2 MSTORE PUSH1 0xFF DUP1 DUP8 AND PUSH1 0x4 DUP4 ADD MSTORE DUP6 AND PUSH1 0x24 DUP3 ADD MSTORE DUP6 SWAP2 DUP6 SWAP2 CALLER SWAP2 PUSH1 0x1 PUSH1 0x1 PUSH1 0xA0 SHL SUB AND SWAP1 PUSH4 0x8A888953 SWAP1 PUSH1 0x44 ADD PUSH1 0x20 PUSH1 0x40 MLOAD DUP1 DUP4 SUB DUP2 DUP7 GAS STATICCALL ISZERO DUP1 ISZERO PUSH2 0xA7A JUMPI RETURNDATASIZE PUSH1 0x0 DUP1 RETURNDATACOPY RETURNDATASIZE PUSH1 0x0 REVERT JUMPDEST POP POP POP POP PUSH1 0x40 MLOAD RETURNDATASIZE PUSH1 0x1F NOT PUSH1 0x1F DUP3 ADD AND DUP3 ADD DUP1 PUSH1 0x40 MSTORE POP DUP2 ADD SWAP1 PUSH2 0xA9E SWAP2 SWAP1 PUSH2 0x3B78 JUMP JUMPDEST PUSH1 0x1 PUSH1 0x1 PUSH1 0xA0 SHL SUB AND EQ PUSH2 0xACD JUMPI PUSH1 0x40 MLOAD PUSH3 0x461BCD PUSH1 0xE5 SHL DUP2 MSTORE PUSH1 0x4 ADD PUSH2 0xAC4 SWAP1 PUSH2 0x3B95 JUMP JUMPDEST PUSH1 0x40 MLOAD DUP1 SWAP2 SUB SWAP1 REVERT JUMPDEST PUSH1 0x0 DUP4 GT PUSH2 0xAED JUMPI PUSH1 0x40 MLOAD PUSH3 0x461BCD PUSH1 0xE5 SHL DUP2 MSTORE PUSH1 0x4 ADD PUSH2 0xAC4 SWAP1 PUSH2 0x3BB2 JUMP JUMPDEST DUP4 PUSH1 0xFF AND PUSH1 0x1 EQ DUP1 PUSH2 0xB02 JUMPI POP DUP4 PUSH1 0xFF AND PUSH1 0x2 EQ JUMPDEST PUSH2 0xB1E JUMPI PUSH1 0x40 MLOAD PUSH3 0x461BCD PUSH1 0xE5 SHL DUP2 MSTORE PUSH1 0x4 ADD PUSH2 0xAC4 SWAP1 PUSH2 0x3BCD JUMP JUMPDEST PUSH1 0x0 PUSH2 0xB2C DUP8 DUP8 PUSH1 0x1 PUSH2 0x2EED JUMP JUMPDEST SWAP1 POP PUSH1 0x0 DUP2 GT PUSH2 0xB4E JUMPI PUSH1 0x40 MLOAD PUSH3 0x461BCD PUSH1 0xE5 SHL DUP2 MSTORE PUSH1 0x4 ADD PUSH2 0xAC4 SWAP1 PUSH2 0x3BE8 JUMP JUMPDEST PUSH1 0x0 DUP6 PUSH1 0xFF AND PUSH1 0x1 EQ PUSH2 0xB62 JUMPI PUSH1 0x13 PUSH2 0xB65 JUMP JUMPDEST PUSH1 0xF JUMPDEST PUSH1 0x40 DUP1 MLOAD PUSH1 0x80 DUP2 ADD DUP3 MSTORE DUP3 SLOAD DUP2 MSTORE PUSH1 0x1 DUP4 ADD SLOAD PUSH1 0x20 DUP3 ADD MSTORE PUSH1 0x2 DUP4 ADD SLOAD SWAP2 DUP2 ADD SWAP2 SWAP1 SWAP2 MSTORE PUSH1 0x3 SWAP1 SWAP2 ADD SLOAD PUSH1 0x60 DUP3 ADD MSTORE SWAP1 POP PUSH2 0xBA3 DUP9 DUP9 DUP4 DUP9 DUP7 PUSH2 0x2F88 JUMP JUMPDEST DUP6 PUSH1 0xFF AND PUSH1 0x1 SUB PUSH2 0xBED JUMPI PUSH1 0xFF DUP1 DUP10 AND PUSH1 0x0 SWAP1 DUP2 MSTORE PUSH1 0x27 PUSH1 0x20 SWAP1 DUP2 MSTORE PUSH1 0x40 DUP1 DUP4 KECCAK256 SWAP4 DUP12 AND DUP4 MSTORE SWAP3 SWAP1 MSTORE SWAP1 DUP2 KECCAK256 PUSH1 0x8 ADD DUP1 SLOAD DUP8 SWAP3 SWAP1 PUSH2 0xBE2 SWAP1 DUP5 SWAP1 PUSH2 0x3C19 JUMP JUMPDEST SWAP1 SWAP2 SSTORE POP PUSH2 0xC27 SWAP1 POP JUMP JUMPDEST PUSH1 0xFF DUP1 DUP10 AND PUSH1 0x0 SWAP1 DUP2 MSTORE PUSH1 0x27 PUSH1 0x20 SWAP1 DUP2 MSTORE PUSH1 0x40 DUP1 DUP4 KECCAK256 SWAP4 DUP12 AND DUP4 MSTORE SWAP3 SWAP1 MSTORE SWAP1 DUP2 KECCAK256 PUSH1 0x9 ADD DUP1 SLOAD DUP8 SWAP3 SWAP1 PUSH2 0xC21 SWAP1 DUP5 SWAP1 PUSH2 0x3C19 JUMP JUMPDEST SWAP1 SWAP2 SSTORE POP POP JUMPDEST POP POP POP POP POP POP POP POP JUMP JUMPDEST PUSH1 0xC SLOAD PUSH1 0x1 PUSH1 0x1 PUSH1 0xA0 SHL SUB AND CALLER EQ PUSH2 0xC5B JUMPI PUSH1 0x40 MLOAD PUSH3 0x461BCD PUSH1 0xE5 SHL DUP2 MSTORE PUSH1 0x4 ADD PUSH2 0xAC4 SWAP1 PUSH2 0x3B95 JUMP JUMPDEST PUSH1 0xE DUP1 SLOAD PUSH1 0x1 PUSH1 0x1 PUSH1 0xA0 SHL SUB NOT AND PUSH1 0x1 PUSH1 0x1 PUSH1 0xA0 SHL SUB SWAP3 SWAP1 SWAP3 AND SWAP2 SWAP1 SWAP2 OR SWAP1 SSTORE JUMP JUMPDEST PUSH1 0x1 SLOAD PUSH1 0x40 MLOAD PUSH4 0x8A888953 PUSH1 0xE0 SHL DUP2 MSTORE PUSH1 0xFF DUP1 DUP9 AND PUSH1 0x4 DUP4 ADD MSTORE DUP7 AND PUSH1 0x24 DUP3 ADD MSTORE DUP7 SWAP2 DUP7 SWAP2 CALLER SWAP2 PUSH1 0x1 PUSH1 0x1 PUSH1 0xA0 SHL SUB AND SWAP1 PUSH4 0x8A888953 SWAP1 PUSH1 0x44 ADD PUSH1 0x20 PUSH1 0x40 MLOAD DUP1 DUP4 SUB DUP2 DUP7 GAS STATICCALL ISZERO DUP1 ISZERO PUSH2 0xCD4 JUMPI RETURNDATASIZE PUSH1 0x0 DUP1 RETURNDATACOPY RETURNDATASIZE PUSH1 0x0 REVERT JUMPDEST POP POP POP POP PUSH1 0x40 MLOAD RETURNDATASIZE PUSH1 0x1F NOT PUSH1 0x1F DUP3 ADD AND DUP3 ADD DUP1 PUSH1 0x40 MSTORE POP DUP2 ADD SWAP1 PUSH2 0xCF8 SWAP2 SWAP1 PUSH2 0x3B78 JUMP JUMPDEST PUSH1 0x1 PUSH1 0x1 PUSH1 0xA0 SHL SUB AND EQ PUSH2 0xD1E JUMPI PUSH1 0x40 MLOAD PUSH3 0x461BCD PUSH1 0xE5 SHL DUP2 MSTORE PUSH1 0x4 ADD PUSH2 0xAC4 SWAP1 PUSH2 0x3B95 JUMP JUMPDEST DUP5 DUP5 PUSH1 0x9 PUSH1 0xFF DUP4 AND LT DUP1 ISZERO PUSH2 0xD36 JUMPI POP PUSH1 0x9 PUSH1 0xFF DUP3 AND LT JUMPDEST PUSH2 0xD6A JUMPI PUSH1 0x40 MLOAD PUSH3 0x461BCD PUSH1 0xE5 SHL DUP2 MSTORE PUSH1 0x20 PUSH1 0x4 DUP3 ADD MSTORE PUSH1 0x5 PUSH1 0x24 DUP3 ADD MSTORE PUSH5 0x18DBDBDC99 PUSH1 0xDA SHL PUSH1 0x44 DUP3 ADD MSTORE PUSH1 0x64 ADD PUSH2 0xAC4 JUMP JUMPDEST DUP7 PUSH1 0xFF AND PUSH1 0x4 EQ DUP1 ISZERO PUSH2 0xD80 JUMPI POP DUP6 PUSH1 0xFF AND PUSH1 0x4 EQ JUMPDEST ISZERO PUSH2 0xD9D JUMPI PUSH1 0x40 MLOAD PUSH3 0x461BCD PUSH1 0xE5 SHL DUP2 MSTORE PUSH1 0x4 ADD PUSH2 0xAC4 SWAP1 PUSH2 0x3C2C JUMP JUMPDEST PUSH1 0xFF DUP1 DUP11 AND PUSH1 0x0 SWAP1 DUP2 MSTORE PUSH1 0x28 PUSH1 0x20 SWAP1 DUP2 MSTORE PUSH1 0x40 DUP1 DUP4 KECCAK256 DUP13 DUP6 AND DUP5 MSTORE DUP3 MSTORE DUP1 DUP4 KECCAK256 DUP12 DUP6 AND DUP5 MSTORE DUP3 MSTORE DUP1 DUP4 KECCAK256 DUP11 DUP6 AND DUP5 MSTORE SWAP1 SWAP2 MSTORE SWAP1 KECCAK256 SLOAD AND DUP1 ISZERO PUSH2 0xE05 JUMPI PUSH1 0x40 MLOAD PUSH3 0x461BCD PUSH1 0xE5 SHL DUP2 MSTORE PUSH1 0x20 PUSH1 0x4 DUP3 ADD MSTORE PUSH1 0x1 PUSH1 0x24 DUP3 ADD MSTORE PUSH1 0x65 PUSH1 0xF8 SHL PUSH1 0x44 DUP3 ADD MSTORE PUSH1 0x64 ADD PUSH2 0xAC4 JUMP JUMPDEST DUP6 PUSH1 0xFF AND PUSH1 0x3 SUB PUSH2 0xE58 JUMPI PUSH2 0xE1C DUP11 DUP11 PUSH1 0x3 PUSH2 0x2EED JUMP JUMPDEST ISZERO PUSH2 0xE39 JUMPI PUSH1 0x40 MLOAD PUSH3 0x461BCD PUSH1 0xE5 SHL DUP2 MSTORE PUSH1 0x4 ADD PUSH2 0xAC4 SWAP1 PUSH2 0x3C2C JUMP JUMPDEST CALLER PUSH1 0x0 SWAP1 DUP2 MSTORE PUSH1 0x8 PUSH1 0x20 MSTORE PUSH1 0x40 SWAP1 KECCAK256 DUP1 SLOAD PUSH1 0xFF NOT AND PUSH1 0x1 OR SWAP1 SSTORE PUSH2 0xEBB JUMP JUMPDEST DUP6 PUSH1 0xFF AND PUSH1 0x6 SUB PUSH2 0xEBB JUMPI PUSH2 0xE6F DUP11 DUP11 PUSH1 0x6 PUSH2 0x2EED JUMP JUMPDEST ISZERO PUSH2 0xEA0 JUMPI PUSH1 0x40 MLOAD PUSH3 0x461BCD PUSH1 0xE5 SHL DUP2 MSTORE PUSH1 0x20 PUSH1 0x4 DUP3 ADD MSTORE PUSH1 0x1 PUSH1 0x24 DUP3 ADD MSTORE PUSH1 0x6D PUSH1 0xF8 SHL PUSH1 0x44 DUP3 ADD MSTORE PUSH1 0x64 ADD PUSH2 0xAC4 JUMP JUMPDEST CALLER PUSH1 0x0 SWAP1 DUP2 MSTORE PUSH1 0x9 PUSH1 0x20 MSTORE PUSH1 0x40 SWAP1 KECCAK256 DUP1 SLOAD PUSH1 0xFF NOT AND PUSH1 0x1 OR SWAP1 SSTORE JUMPDEST PUSH1 0xFF DUP1 DUP8 AND PUSH1 0x0 SWAP1 DUP2 MSTORE PUSH1 0x29 PUSH1 0x20 SWAP1 DUP2 MSTORE PUSH1 0x40 DUP1 DUP4 KECCAK256 DUP2 MLOAD PUSH1 0x80 DUP2 ADD DUP4 MSTORE DUP2 SLOAD DUP2 MSTORE PUSH1 0x1 DUP3 ADD SLOAD DUP2 DUP6 ADD MSTORE PUSH1 0x2 DUP3 ADD SLOAD DUP2 DUP5 ADD MSTORE PUSH1 0x3 SWAP1 SWAP2 ADD SLOAD PUSH1 0x60 DUP3 ADD MSTORE DUP15 DUP6 AND DUP5 MSTORE PUSH1 0x27 DUP4 MSTORE DUP2 DUP5 KECCAK256 SWAP5 DUP15 AND DUP5 MSTORE SWAP4 SWAP1 SWAP2 MSTORE SWAP1 KECCAK256 DUP2 MLOAD DUP2 SLOAD LT ISZERO PUSH2 0xF33 JUMPI PUSH1 0x40 MLOAD PUSH3 0x461BCD PUSH1 0xE5 SHL DUP2 MSTORE PUSH1 0x4 ADD PUSH2 0xAC4 SWAP1 PUSH2 0x3C47 JUMP JUMPDEST PUSH1 0x20 DUP3 ADD MLOAD PUSH1 0x1 DUP3 ADD SLOAD LT ISZERO PUSH2 0xF5B JUMPI PUSH1 0x40 MLOAD PUSH3 0x461BCD PUSH1 0xE5 SHL DUP2 MSTORE PUSH1 0x4 ADD PUSH2 0xAC4 SWAP1 PUSH2 0x3C62 JUMP JUMPDEST PUSH1 0x40 DUP3 ADD MLOAD PUSH1 0x2 DUP3 ADD SLOAD LT ISZERO PUSH2 0xF83 JUMPI PUSH1 0x40 MLOAD PUSH3 0x461BCD PUSH1 0xE5 SHL DUP2 MSTORE PUSH1 0x4 ADD PUSH2 0xAC4 SWAP1 PUSH2 0x3C7D JUMP JUMPDEST PUSH1 0x60 DUP3 ADD MLOAD PUSH1 0x3 DUP3 ADD SLOAD LT ISZERO PUSH2 0xFAB JUMPI PUSH1 0x40 MLOAD PUSH3 0x461BCD PUSH1 0xE5 SHL DUP2 MSTORE PUSH1 0x4 ADD PUSH2 0xAC4 SWAP1 PUSH2 0x3C98 JUMP JUMPDEST DUP2 MLOAD DUP2 SLOAD DUP3 SWAP1 PUSH1 0x0 SWAP1 PUSH2 0xFBF SWAP1 DUP5 SWAP1 PUSH2 0x3CB3 JUMP JUMPDEST SWAP1 SWAP2 SSTORE POP POP PUSH1 0x20 DUP3 ADD MLOAD PUSH1 0x1 DUP3 ADD DUP1 SLOAD PUSH1 0x0 SWAP1 PUSH2 0xFDD SWAP1 DUP5 SWAP1 PUSH2 0x3CB3 JUMP JUMPDEST SWAP1 SWAP2 SSTORE POP POP PUSH1 0x40 DUP3 ADD MLOAD PUSH1 0x2 DUP3 ADD DUP1 SLOAD PUSH1 0x0 SWAP1 PUSH2 0xFFB SWAP1 DUP5 SWAP1 PUSH2 0x3CB3 JUMP JUMPDEST SWAP1 SWAP2 SSTORE POP POP PUSH1 0x60 DUP3 ADD MLOAD PUSH1 0x3 DUP3 ADD DUP1 SLOAD PUSH1 0x0 SWAP1 PUSH2 0x1019 SWAP1 DUP5 SWAP1 PUSH2 0x3CB3 JUMP JUMPDEST SWAP1 SWAP2 SSTORE POP POP PUSH1 0xFF DUP13 DUP2 AND PUSH1 0x0 SWAP1 DUP2 MSTORE PUSH1 0x28 PUSH1 0x20 SWAP1 DUP2 MSTORE PUSH1 0x40 DUP1 DUP4 KECCAK256 DUP16 DUP6 AND DUP5 MSTORE DUP3 MSTORE DUP1 DUP4 KECCAK256 DUP15 DUP6 AND DUP5 MSTORE DUP3 MSTORE DUP1 DUP4 KECCAK256 DUP14 DUP6 AND DUP5 MSTORE SWAP1 SWAP2 MSTORE SWAP1 KECCAK256 DUP1 SLOAD PUSH1 0xFF NOT AND SWAP2 DUP11 AND SWAP2 SWAP1 SWAP2 OR SWAP1 SSTORE PUSH2 0x106C DUP2 DUP14 DUP14 PUSH2 0x3137 JUMP JUMPDEST POP POP POP POP POP POP POP POP POP POP POP POP JUMP JUMPDEST PUSH1 0x0 PUSH2 0x1088 DUP4 DUP4 PUSH1 0x7 PUSH2 0x2EED JUMP JUMPDEST SWAP1 POP JUMPDEST SWAP3 SWAP2 POP POP JUMP JUMPDEST PUSH1 0x1 SLOAD PUSH1 0x40 MLOAD PUSH4 0x8A888953 PUSH1 0xE0 SHL DUP2 MSTORE PUSH1 0xFF DUP1 DUP7 AND PUSH1 0x4 DUP4 ADD MSTORE DUP5 AND PUSH1 0x24 DUP3 ADD MSTORE DUP5 SWAP2 DUP5 SWAP2 CALLER SWAP2 PUSH1 0x1 PUSH1 0x1 PUSH1 0xA0 SHL SUB AND SWAP1 PUSH4 0x8A888953 SWAP1 PUSH1 0x44 ADD PUSH1 0x20 PUSH1 0x40 MLOAD DUP1 DUP4 SUB DUP2 DUP7 GAS STATICCALL ISZERO DUP1 ISZERO PUSH2 0x10E8 JUMPI RETURNDATASIZE PUSH1 0x0 DUP1 RETURNDATACOPY RETURNDATASIZE PUSH1 0x0 REVERT JUMPDEST POP POP POP POP PUSH1 0x40 MLOAD RETURNDATASIZE PUSH1 0x1F NOT PUSH1 0x1F DUP3 ADD AND DUP3 ADD DUP1 PUSH1 0x40 MSTORE POP DUP2 ADD SWAP1 PUSH2 0x110C SWAP2 SWAP1 PUSH2 0x3B78 JUMP JUMPDEST PUSH1 0x1 PUSH1 0x1 PUSH1 0xA0 SHL SUB AND EQ PUSH2 0x1132 JUMPI PUSH1 0x40 MLOAD PUSH3 0x461BCD PUSH1 0xE5 SHL DUP2 MSTORE PUSH1 0x4 ADD PUSH2 0xAC4 SWAP1 PUSH2 0x3B95 JUMP JUMPDEST PUSH1 0xFF DUP1 DUP7 AND PUSH1 0x0 SWAP1 DUP2 MSTORE PUSH1 0x27 PUSH1 0x20 SWAP1 DUP2 MSTORE PUSH1 0x40 DUP1 DUP4 KECCAK256 DUP9 DUP6 AND DUP5 MSTORE SWAP1 SWAP2 MSTORE DUP2 KECCAK256 SWAP2 PUSH1 0x60 SWAP1 DUP7 AND PUSH1 0x1 SUB PUSH2 0x1195 JUMPI POP POP PUSH1 0xE DUP2 ADD SLOAD PUSH1 0x40 DUP1 MLOAD DUP1 DUP3 ADD SWAP1 SWAP2 MSTORE PUSH1 0xD DUP2 MSTORE PUSH13 0xDECCCCCADCE6D2ECCAA8CAC6D PUSH1 0x9B SHL PUSH1 0x20 DUP3 ADD MSTORE PUSH1 0xFF SWAP1 SWAP2 AND SWAP1 PUSH2 0x120B JUMP JUMPDEST DUP6 PUSH1 0xFF AND PUSH1 0x2 SUB PUSH2 0x11DA JUMPI POP POP PUSH1 0xE DUP2 ADD SLOAD PUSH1 0x40 DUP1 MLOAD DUP1 DUP3 ADD SWAP1 SWAP2 MSTORE PUSH1 0xD DUP2 MSTORE PUSH13 0xC8CACCCADCE6D2ECCAA8CAC6D PUSH1 0x9B SHL PUSH1 0x20 DUP3 ADD MSTORE PUSH2 0x100 SWAP1 SWAP2 DIV PUSH1 0xFF AND SWAP1 PUSH2 0x120B JUMP JUMPDEST PUSH1 0x40 MLOAD PUSH3 0x461BCD PUSH1 0xE5 SHL DUP2 MSTORE PUSH1 0x4 ADD PUSH2 0xAC4 SWAP1 PUSH1 0x20 DUP1 DUP3 MSTORE PUSH1 0x4 SWAP1 DUP3 ADD MSTORE PUSH4 0x74797065 PUSH1 0xE0 SHL PUSH1 0x40 DUP3 ADD MSTORE PUSH1 0x60 ADD SWAP1 JUMP JUMPDEST PUSH2 0x2710 DUP3 PUSH1 0xFF AND GT ISZERO PUSH2 0x1244 JUMPI PUSH1 0x40 MLOAD PUSH3 0x461BCD PUSH1 0xE5 SHL DUP2 MSTORE PUSH1 0x20 PUSH1 0x4 DUP3 ADD MSTORE PUSH1 0x1 PUSH1 0x24 DUP3 ADD MSTORE PUSH1 0x1B PUSH1 0xFA SHL PUSH1 0x44 DUP3 ADD MSTORE PUSH1 0x64 ADD PUSH2 0xAC4 JUMP JUMPDEST PUSH1 0x0 PUSH2 0x1252 DUP10 DUP10 PUSH1 0x8 PUSH2 0x2EED JUMP JUMPDEST SWAP1 POP PUSH1 0x0 DUP2 GT PUSH2 0x1274 JUMPI PUSH1 0x40 MLOAD PUSH3 0x461BCD PUSH1 0xE5 SHL DUP2 MSTORE PUSH1 0x4 ADD PUSH2 0xAC4 SWAP1 PUSH2 0x3C62 JUMP JUMPDEST PUSH1 0x0 PUSH2 0x1281 DUP5 PUSH1 0x1 PUSH2 0x3CC6 JUMP JUMPDEST PUSH2 0x128F SWAP1 PUSH1 0xFF AND PUSH1 0x2 PUSH2 0x3CDF JUMP JUMPDEST SWAP1 POP PUSH1 0x0 DUP3 PUSH2 0x129F DUP4 PUSH1 0x8C PUSH2 0x3CDF JUMP JUMPDEST PUSH2 0x12A9 SWAP2 SWAP1 PUSH2 0x3D0C JUMP JUMPDEST SWAP1 POP PUSH1 0x0 DUP4 PUSH2 0x12B9 DUP5 PUSH1 0x78 PUSH2 0x3CDF JUMP JUMPDEST PUSH2 0x12C3 SWAP2 SWAP1 PUSH2 0x3D0C JUMP JUMPDEST SWAP1 POP PUSH1 0x0 DUP5 PUSH2 0x12D3 DUP6 PUSH1 0xB4 PUSH2 0x3CDF JUMP JUMPDEST PUSH2 0x12DD SWAP2 SWAP1 PUSH2 0x3D0C JUMP JUMPDEST SWAP1 POP PUSH1 0x0 DUP6 PUSH2 0x12ED DUP7 PUSH1 0x78 PUSH2 0x3CDF JUMP JUMPDEST PUSH2 0x12F7 SWAP2 SWAP1 PUSH2 0x3D0C JUMP JUMPDEST DUP10 SLOAD SWAP1 SWAP2 POP DUP5 GT ISZERO PUSH2 0x131B JUMPI PUSH1 0x40 MLOAD PUSH3 0x461BCD PUSH1 0xE5 SHL DUP2 MSTORE PUSH1 0x4 ADD PUSH2 0xAC4 SWAP1 PUSH2 0x3C47 JUMP JUMPDEST PUSH1 0x1 DUP10 ADD SLOAD DUP4 GT ISZERO PUSH2 0x133F JUMPI PUSH1 0x40 MLOAD PUSH3 0x461BCD PUSH1 0xE5 SHL DUP2 MSTORE PUSH1 0x4 ADD PUSH2 0xAC4 SWAP1 PUSH2 0x3C62 JUMP JUMPDEST PUSH1 0x2 DUP10 ADD SLOAD DUP3 GT ISZERO PUSH2 0x1363 JUMPI PUSH1 0x40 MLOAD PUSH3 0x461BCD PUSH1 0xE5 SHL DUP2 MSTORE PUSH1 0x4 ADD PUSH2 0xAC4 SWAP1 PUSH2 0x3C7D JUMP JUMPDEST PUSH1 0x3 DUP10 ADD SLOAD DUP2 GT ISZERO PUSH2 0x1387 JUMPI PUSH1 0x40 MLOAD PUSH3 0x461BCD PUSH1 0xE5 SHL DUP2 MSTORE PUSH1 0x4 ADD PUSH2 0xAC4 SWAP1 PUSH2 0x3C98 JUMP JUMPDEST DUP9 SLOAD DUP5 SWAP1 DUP11 SWAP1 PUSH1 0x0 SWAP1 PUSH2 0x139B SWAP1 DUP5 SWAP1 PUSH2 0x3CB3 JUMP JUMPDEST SWAP1 SWAP2 SSTORE POP POP PUSH1 0x1 DUP10 ADD DUP1 SLOAD DUP5 SWAP2 SWAP1 PUSH1 0x0 SWAP1 PUSH2 0x13B7 SWAP1 DUP5 SWAP1 PUSH2 0x3CB3 JUMP JUMPDEST SWAP1 SWAP2 SSTORE POP POP PUSH1 0x2 DUP10 ADD DUP1 SLOAD DUP4 SWAP2 SWAP1 PUSH1 0x0 SWAP1 PUSH2 0x13D3 SWAP1 DUP5 SWAP1 PUSH2 0x3CB3 JUMP JUMPDEST SWAP1 SWAP2 SSTORE POP POP PUSH1 0x3 DUP10 ADD DUP1 SLOAD DUP3 SWAP2 SWAP1 PUSH1 0x0 SWAP1 PUSH2 0x13EF SWAP1 DUP5 SWAP1 PUSH2 0x3CB3 JUMP JUMPDEST SWAP1 SWAP2 SSTORE POP POP PUSH1 0xFF DUP13 AND PUSH1 0x1 SUB PUSH2 0x1432 JUMPI PUSH1 0xE DUP10 ADD DUP1 SLOAD PUSH1 0xFF AND SWAP1 PUSH1 0x0 PUSH2 0x1414 DUP4 PUSH2 0x3D20 JUMP JUMPDEST SWAP2 SWAP1 PUSH2 0x100 EXP DUP2 SLOAD DUP2 PUSH1 0xFF MUL NOT AND SWAP1 DUP4 PUSH1 0xFF AND MUL OR SWAP1 SSTORE POP POP PUSH2 0x1471 JUMP JUMPDEST DUP12 PUSH1 0xFF AND PUSH1 0x2 SUB PUSH2 0x1471 JUMPI PUSH1 0xE DUP10 ADD DUP1 SLOAD PUSH2 0x100 SWAP1 DIV PUSH1 0xFF AND SWAP1 PUSH1 0x1 PUSH2 0x1457 DUP4 PUSH2 0x3D20 JUMP JUMPDEST SWAP2 SWAP1 PUSH2 0x100 EXP DUP2 SLOAD DUP2 PUSH1 0xFF MUL NOT AND SWAP1 DUP4 PUSH1 0xFF AND MUL OR SWAP1 SSTORE POP POP JUMPDEST PUSH2 0x147C DUP10 DUP16 DUP16 PUSH2 0x3137 JUMP JUMPDEST POP POP POP POP POP POP POP POP POP POP POP POP POP POP JUMP JUMPDEST PUSH1 0xD SLOAD PUSH1 0x1 PUSH1 0x1 PUSH1 0xA0 SHL SUB AND CALLER EQ PUSH2 0x14B6 JUMPI PUSH1 0x40 MLOAD PUSH3 0x461BCD PUSH1 0xE5 SHL DUP2 MSTORE PUSH1 0x4 ADD PUSH2 0xAC4 SWAP1 PUSH2 0x3BE8 JUMP JUMPDEST PUSH1 0xFF DUP1 DUP7 AND PUSH1 0x0 SWAP1 DUP2 MSTORE PUSH1 0x27 PUSH1 0x20 SWAP1 DUP2 MSTORE PUSH1 0x40 DUP1 DUP4 KECCAK256 DUP9 DUP6 AND DUP5 MSTORE SWAP1 SWAP2 MSTORE SWAP1 KECCAK256 SWAP1 DUP5 AND PUSH1 0x1 SUB PUSH2 0x153A JUMPI DUP2 ISZERO PUSH2 0x1505 JUMPI DUP1 SLOAD DUP4 SWAP1 DUP3 SWAP1 PUSH1 0x0 SWAP1 PUSH2 0x14FA SWAP1 DUP5 SWAP1 PUSH2 0x3C19 JUMP JUMPDEST SWAP1 SWAP2 SSTORE POP PUSH2 0x194B SWAP1 POP JUMP JUMPDEST DUP1 SLOAD DUP4 GT ISZERO PUSH2 0x1526 JUMPI PUSH1 0x40 MLOAD PUSH3 0x461BCD PUSH1 0xE5 SHL DUP2 MSTORE PUSH1 0x4 ADD PUSH2 0xAC4 SWAP1 PUSH2 0x3C47 JUMP JUMPDEST DUP1 SLOAD DUP4 SWAP1 DUP3 SWAP1 PUSH1 0x0 SWAP1 PUSH2 0x14FA SWAP1 DUP5 SWAP1 PUSH2 0x3CB3 JUMP JUMPDEST DUP4 PUSH1 0xFF AND PUSH1 0x2 SUB PUSH2 0x159D JUMPI DUP2 ISZERO PUSH2 0x1562 JUMPI DUP3 DUP2 PUSH1 0x0 ADD PUSH1 0x1 ADD PUSH1 0x0 DUP3 DUP3 SLOAD PUSH2 0x14FA SWAP2 SWAP1 PUSH2 0x3C19 JUMP JUMPDEST PUSH1 0x1 DUP2 ADD SLOAD DUP4 GT ISZERO PUSH2 0x1586 JUMPI PUSH1 0x40 MLOAD PUSH3 0x461BCD PUSH1 0xE5 SHL DUP2 MSTORE PUSH1 0x4 ADD PUSH2 0xAC4 SWAP1 PUSH2 0x3C62 JUMP JUMPDEST DUP3 DUP2 PUSH1 0x0 ADD PUSH1 0x1 ADD PUSH1 0x0 DUP3 DUP3 SLOAD PUSH2 0x14FA SWAP2 SWAP1 PUSH2 0x3CB3 JUMP JUMPDEST DUP4 PUSH1 0xFF AND PUSH1 0x3 SUB PUSH2 0x1600 JUMPI DUP2 ISZERO PUSH2 0x15C5 JUMPI DUP3 DUP2 PUSH1 0x0 ADD PUSH1 0x2 ADD PUSH1 0x0 DUP3 DUP3 SLOAD PUSH2 0x14FA SWAP2 SWAP1 PUSH2 0x3C19 JUMP JUMPDEST PUSH1 0x2 DUP2 ADD SLOAD DUP4 GT ISZERO PUSH2 0x15E9 JUMPI PUSH1 0x40 MLOAD PUSH3 0x461BCD PUSH1 0xE5 SHL DUP2 MSTORE PUSH1 0x4 ADD PUSH2 0xAC4 SWAP1 PUSH2 0x3C7D JUMP JUMPDEST DUP3 DUP2 PUSH1 0x0 ADD PUSH1 0x2 ADD PUSH1 0x0 DUP3 DUP3 SLOAD PUSH2 0x14FA SWAP2 SWAP1 PUSH2 0x3CB3 JUMP JUMPDEST DUP4 PUSH1 0xFF AND PUSH1 0x4 SUB PUSH2 0x1663 JUMPI DUP2 ISZERO PUSH2 0x1628 JUMPI DUP3 DUP2 PUSH1 0x0 ADD PUSH1 0x3 ADD PUSH1 0x0 DUP3 DUP3 SLOAD PUSH2 0x14FA SWAP2 SWAP1 PUSH2 0x3C19 JUMP JUMPDEST PUSH1 0x3 DUP2 ADD SLOAD DUP4 GT ISZERO PUSH2 0x164C JUMPI PUSH1 0x40 MLOAD PUSH3 0x461BCD PUSH1 0xE5 SHL DUP2 MSTORE PUSH1 0x4 ADD PUSH2 0xAC4 SWAP1 PUSH2 0x3C98 JUMP JUMPDEST DUP3 DUP2 PUSH1 0x0 ADD PUSH1 0x3 ADD PUSH1 0x0 DUP3 DUP3 SLOAD PUSH2 0x14FA SWAP2 SWAP1 PUSH2 0x3CB3 JUMP JUMPDEST DUP4 PUSH1 0xFF AND PUSH1 0x5 SUB PUSH2 0x16DB JUMPI DUP2 ISZERO PUSH2 0x168B JUMPI DUP3 DUP2 PUSH1 0x8 ADD PUSH1 0x0 ADD PUSH1 0x0 DUP3 DUP3 SLOAD PUSH2 0x14FA SWAP2 SWAP1 PUSH2 0x3C19 JUMP JUMPDEST PUSH1 0x8 DUP2 ADD SLOAD DUP4 GT ISZERO PUSH2 0x16C4 JUMPI PUSH1 0x40 MLOAD PUSH3 0x461BCD PUSH1 0xE5 SHL DUP2 MSTORE PUSH1 0x20 PUSH1 0x4 DUP3 ADD MSTORE PUSH1 0x2 PUSH1 0x24 DUP3 ADD MSTORE PUSH2 0x6F61 PUSH1 0xF0 SHL PUSH1 0x44 DUP3 ADD MSTORE PUSH1 0x64 ADD PUSH2 0xAC4 JUMP JUMPDEST DUP3 DUP2 PUSH1 0x8 ADD PUSH1 0x0 ADD PUSH1 0x0 DUP3 DUP3 SLOAD PUSH2 0x14FA SWAP2 SWAP1 PUSH2 0x3CB3 JUMP JUMPDEST DUP4 PUSH1 0xFF AND PUSH1 0x6 SUB PUSH2 0x1753 JUMPI DUP2 ISZERO PUSH2 0x1703 JUMPI DUP3 DUP2 PUSH1 0x8 ADD PUSH1 0x1 ADD PUSH1 0x0 DUP3 DUP3 SLOAD PUSH2 0x14FA SWAP2 SWAP1 PUSH2 0x3C19 JUMP JUMPDEST PUSH1 0x9 DUP2 ADD SLOAD DUP4 GT ISZERO PUSH2 0x173C JUMPI PUSH1 0x40 MLOAD PUSH3 0x461BCD PUSH1 0xE5 SHL DUP2 MSTORE PUSH1 0x20 PUSH1 0x4 DUP3 ADD MSTORE PUSH1 0x2 PUSH1 0x24 DUP3 ADD MSTORE PUSH2 0x6461 PUSH1 0xF0 SHL PUSH1 0x44 DUP3 ADD MSTORE PUSH1 0x64 ADD PUSH2 0xAC4 JUMP JUMPDEST DUP3 DUP2 PUSH1 0x8 ADD PUSH1 0x1 ADD PUSH1 0x0 DUP3 DUP3 SLOAD PUSH2 0x14FA SWAP2 SWAP1 PUSH2 0x3CB3 JUMP JUMPDEST DUP4 PUSH1 0xFF AND PUSH1 0x7 SUB PUSH2 0x17CB JUMPI DUP2 ISZERO PUSH2 0x177B JUMPI DUP3 DUP2 PUSH1 0x8 ADD PUSH1 0x2 ADD PUSH1 0x0 DUP3 DUP3 SLOAD PUSH2 0x14FA SWAP2 SWAP1 PUSH2 0x3C19 JUMP JUMPDEST PUSH1 0xA DUP2 ADD SLOAD DUP4 GT ISZERO PUSH2 0x17B4 JUMPI PUSH1 0x40 MLOAD PUSH3 0x461BCD PUSH1 0xE5 SHL DUP2 MSTORE PUSH1 0x20 PUSH1 0x4 DUP3 ADD MSTORE PUSH1 0x2 PUSH1 0x24 DUP3 ADD MSTORE PUSH2 0x6F77 PUSH1 0xF0 SHL PUSH1 0x44 DUP3 ADD MSTORE PUSH1 0x64 ADD PUSH2 0xAC4 JUMP JUMPDEST DUP3 DUP2 PUSH1 0x8 ADD PUSH1 0x2 ADD PUSH1 0x0 DUP3 DUP3 SLOAD PUSH2 0x14FA SWAP2 SWAP1 PUSH2 0x3CB3 JUMP JUMPDEST DUP4 PUSH1 0xFF AND PUSH1 0x8 SUB PUSH2 0x1843 JUMPI DUP2 ISZERO PUSH2 0x17F3 JUMPI DUP3 DUP2 PUSH1 0x8 ADD PUSH1 0x3 ADD PUSH1 0x0 DUP3 DUP3 SLOAD PUSH2 0x14FA SWAP2 SWAP1 PUSH2 0x3C19 JUMP JUMPDEST PUSH1 0xB DUP2 ADD SLOAD DUP4 GT ISZERO PUSH2 0x182C JUMPI PUSH1 0x40 MLOAD PUSH3 0x461BCD PUSH1 0xE5 SHL DUP2 MSTORE PUSH1 0x20 PUSH1 0x4 DUP3 ADD MSTORE PUSH1 0x2 PUSH1 0x24 DUP3 ADD MSTORE PUSH2 0x6477 PUSH1 0xF0 SHL PUSH1 0x44 DUP3 ADD MSTORE PUSH1 0x64 ADD PUSH2 0xAC4 JUMP JUMPDEST DUP3 DUP2 PUSH1 0x8 ADD PUSH1 0x3 ADD PUSH1 0x0 DUP3 DUP3 SLOAD PUSH2 0x14FA SWAP2 SWAP1 PUSH2 0x3CB3 JUMP JUMPDEST DUP4 PUSH1 0xFF AND PUSH1 0x9 SUB PUSH2 0x18BB JUMPI DUP2 ISZERO PUSH2 0x186B JUMPI DUP3 DUP2 PUSH1 0x8 ADD PUSH1 0x4 ADD PUSH1 0x0 DUP3 DUP3 SLOAD PUSH2 0x14FA SWAP2 SWAP1 PUSH2 0x3C19 JUMP JUMPDEST PUSH1 0xC DUP2 ADD SLOAD DUP4 GT ISZERO PUSH2 0x18A4 JUMPI PUSH1 0x40 MLOAD PUSH3 0x461BCD PUSH1 0xE5 SHL DUP2 MSTORE PUSH1 0x20 PUSH1 0x4 DUP3 ADD MSTORE PUSH1 0x2 PUSH1 0x24 DUP3 ADD MSTORE PUSH2 0x6F73 PUSH1 0xF0 SHL PUSH1 0x44 DUP3 ADD MSTORE PUSH1 0x64 ADD PUSH2 0xAC4 JUMP JUMPDEST DUP3 DUP2 PUSH1 0x8 ADD PUSH1 0x4 ADD PUSH1 0x0 DUP3 DUP3 SLOAD PUSH2 0x14FA SWAP2 SWAP1 PUSH2 0x3CB3 JUMP JUMPDEST DUP4 PUSH1 0xFF AND PUSH1 0xA SUB PUSH2 0x1933 JUMPI DUP2 ISZERO PUSH2 0x18E3 JUMPI DUP3 DUP2 PUSH1 0x8 ADD PUSH1 0x5 ADD PUSH1 0x0 DUP3 DUP3 SLOAD PUSH2 0x14FA SWAP2 SWAP1 PUSH2 0x3C19 JUMP JUMPDEST PUSH1 0xD DUP2 ADD SLOAD DUP4 GT ISZERO PUSH2 0x191C JUMPI PUSH1 0x40 MLOAD PUSH3 0x461BCD PUSH1 0xE5 SHL DUP2 MSTORE PUSH1 0x20 PUSH1 0x4 DUP3 ADD MSTORE PUSH1 0x2 PUSH1 0x24 DUP3 ADD MSTORE PUSH2 0x6473 PUSH1 0xF0 SHL PUSH1 0x44 DUP3 ADD MSTORE PUSH1 0x64 ADD PUSH2 0xAC4 JUMP JUMPDEST DUP3 DUP2 PUSH1 0x8 ADD PUSH1 0x5 ADD PUSH1 0x0 DUP3 DUP3 SLOAD PUSH2 0x14FA SWAP2 SWAP1 PUSH2 0x3CB3 JUMP JUMPDEST PUSH1 0x40 MLOAD PUSH3 0x461BCD PUSH1 0xE5 SHL DUP2 MSTORE PUSH1 0x4 ADD PUSH2 0xAC4 SWAP1 PUSH2 0x3BCD JUMP JUMPDEST PUSH2 0x1956 DUP2 DUP8 DUP8 PUSH2 0x3137 JUMP JUMPDEST POP POP POP POP POP POP JUMP JUMPDEST PUSH1 0x1 SLOAD PUSH1 0x40 MLOAD PUSH4 0x8A888953 PUSH1 0xE0 SHL DUP2 MSTORE PUSH1 0xFF DUP1 DUP8 AND PUSH1 0x4 DUP4 ADD MSTORE DUP6 AND PUSH1 0x24 DUP3 ADD MSTORE DUP6 SWAP2 DUP6 SWAP2 CALLER SWAP2 PUSH1 0x1 PUSH1 0x1 PUSH1 0xA0 SHL SUB AND SWAP1 PUSH4 0x8A888953 SWAP1 PUSH1 0x44 ADD PUSH1 0x20 PUSH1 0x40 MLOAD DUP1 DUP4 SUB DUP2 DUP7 GAS STATICCALL ISZERO DUP1 ISZERO PUSH2 0x19B5 JUMPI RETURNDATASIZE PUSH1 0x0 DUP1 RETURNDATACOPY RETURNDATASIZE PUSH1 0x0 REVERT JUMPDEST POP POP POP POP PUSH1 0x40 MLOAD RETURNDATASIZE PUSH1 0x1F NOT PUSH1 0x1F DUP3 ADD AND DUP3 ADD DUP1 PUSH1 0x40 MSTORE POP DUP2 ADD SWAP1 PUSH2 0x19D9 SWAP2 SWAP1 PUSH2 0x3B78 JUMP JUMPDEST PUSH1 0x1 PUSH1 0x1 PUSH1 0xA0 SHL SUB AND EQ PUSH2 0x19FF JUMPI PUSH1 0x40 MLOAD PUSH3 0x461BCD PUSH1 0xE5 SHL DUP2 MSTORE PUSH1 0x4 ADD PUSH2 0xAC4 SWAP1 PUSH2 0x3B95 JUMP JUMPDEST PUSH1 0x0 DUP4 GT PUSH2 0x1A1F JUMPI PUSH1 0x40 MLOAD PUSH3 0x461BCD PUSH1 0xE5 SHL DUP2 MSTORE PUSH1 0x4 ADD PUSH2 0xAC4 SWAP1 PUSH2 0x3BB2 JUMP JUMPDEST DUP4 PUSH1 0xFF AND PUSH1 0x1 EQ DUP1 PUSH2 0x1A34 JUMPI POP DUP4 PUSH1 0xFF AND PUSH1 0x2 EQ JUMPDEST PUSH2 0x1A50 JUMPI PUSH1 0x40 MLOAD PUSH3 0x461BCD PUSH1 0xE5 SHL DUP2 MSTORE PUSH1 0x4 ADD PUSH2 0xAC4 SWAP1 PUSH2 0x3BCD JUMP JUMPDEST PUSH1 0x0 PUSH2 0x1A5E DUP8 DUP8 PUSH1 0x2 PUSH2 0x2EED JUMP JUMPDEST SWAP1 POP PUSH1 0x0 DUP2 GT PUSH2 0x1A95 JUMPI PUSH1 0x40 MLOAD PUSH3 0x461BCD PUSH1 0xE5 SHL DUP2 MSTORE PUSH1 0x20 PUSH1 0x4 DUP3 ADD MSTORE PUSH1 0x2 PUSH1 0x24 DUP3 ADD MSTORE PUSH2 0x6273 PUSH1 0xF0 SHL PUSH1 0x44 DUP3 ADD MSTORE PUSH1 0x64 ADD PUSH2 0xAC4 JUMP JUMPDEST PUSH1 0x0 DUP6 PUSH1 0xFF AND PUSH1 0x1 EQ PUSH2 0x1AA9 JUMPI PUSH1 0x1B PUSH2 0x1AAC JUMP JUMPDEST PUSH1 0x17 JUMPDEST PUSH1 0x40 DUP1 MLOAD PUSH1 0x80 DUP2 ADD DUP3 MSTORE DUP3 SLOAD DUP2 MSTORE PUSH1 0x1 DUP4 ADD SLOAD PUSH1 0x20 DUP3 ADD MSTORE PUSH1 0x2 DUP4 ADD SLOAD SWAP2 DUP2 ADD SWAP2 SWAP1 SWAP2 MSTORE PUSH1 0x3 SWAP1 SWAP2 ADD SLOAD PUSH1 0x60 DUP3 ADD MSTORE SWAP1 POP PUSH2 0x1AEA DUP9 DUP9 DUP4 DUP9 DUP7 PUSH2 0x2F88 JUMP JUMPDEST DUP6 PUSH1 0xFF AND PUSH1 0x1 SUB PUSH2 0x1B29 JUMPI PUSH1 0xFF DUP1 DUP10 AND PUSH1 0x0 SWAP1 DUP2 MSTORE PUSH1 0x27 PUSH1 0x20 SWAP1 DUP2 MSTORE PUSH1 0x40 DUP1 DUP4 KECCAK256 SWAP4 DUP12 AND DUP4 MSTORE SWAP3 SWAP1 MSTORE SWAP1 DUP2 KECCAK256 PUSH1 0xA ADD DUP1 SLOAD DUP8 SWAP3 SWAP1 PUSH2 0xBE2 SWAP1 DUP5 SWAP1 PUSH2 0x3C19 JUMP JUMPDEST PUSH1 0xFF DUP1 DUP10 AND PUSH1 0x0 SWAP1 DUP2 MSTORE PUSH1 0x27 PUSH1 0x20 SWAP1 DUP2 MSTORE PUSH1 0x40 DUP1 DUP4 KECCAK256 SWAP4 DUP12 AND DUP4 MSTORE SWAP3 SWAP1 MSTORE SWAP1 DUP2 KECCAK256 PUSH1 0xB ADD DUP1 SLOAD DUP8 SWAP3 SWAP1 PUSH2 0xC21 SWAP1 DUP5 SWAP1 PUSH2 0x3C19 JUMP JUMPDEST PUSH1 0xC SLOAD PUSH1 0x1 PUSH1 0x1 PUSH1 0xA0 SHL SUB AND CALLER EQ PUSH2 0x1B87 JUMPI PUSH1 0x40 MLOAD PUSH3 0x461BCD PUSH1 0xE5 SHL DUP2 MSTORE PUSH1 0x4 ADD PUSH2 0xAC4 SWAP1 PUSH2 0x3B95 JUMP JUMPDEST PUSH1 0x2 DUP1 SLOAD PUSH1 0x1 PUSH1 0x1 PUSH1 0xA0 SHL SUB NOT AND PUSH1 0x1 PUSH1 0x1 PUSH1 0xA0 SHL SUB SWAP3 SWAP1 SWAP3 AND SWAP2 SWAP1 SWAP2 OR SWAP1 SSTORE JUMP JUMPDEST PUSH1 0x1 SLOAD PUSH1 0x40 MLOAD PUSH4 0x8A888953 PUSH1 0xE0 SHL DUP2 MSTORE PUSH1 0xFF DUP1 DUP8 AND PUSH1 0x4 DUP4 ADD MSTORE DUP6 AND PUSH1 0x24 DUP3 ADD MSTORE DUP6 SWAP2 DUP6 SWAP2 CALLER SWAP2 PUSH1 0x1 PUSH1 0x1 PUSH1 0xA0 SHL SUB AND SWAP1 PUSH4 0x8A888953 SWAP1 PUSH1 0x44 ADD PUSH1 0x20 PUSH1 0x40 MLOAD DUP1 DUP4 SUB DUP2 DUP7 GAS STATICCALL ISZERO DUP1 ISZERO PUSH2 0x1C00 JUMPI RETURNDATASIZE PUSH1 0x0 DUP1 RETURNDATACOPY RETURNDATASIZE PUSH1 0x0 REVERT JUMPDEST POP POP POP POP PUSH1 0x40 MLOAD RETURNDATASIZE PUSH1 0x1F NOT PUSH1 0x1F DUP3 ADD AND DUP3 ADD DUP1 PUSH1 0x40 MSTORE POP DUP2 ADD SWAP1 PUSH2 0x1C24 SWAP2 SWAP1 PUSH2 0x3B78 JUMP JUMPDEST PUSH1 0x1 PUSH1 0x1 PUSH1 0xA0 SHL SUB AND EQ PUSH2 0x1C4A JUMPI PUSH1 0x40 MLOAD PUSH3 0x461BCD PUSH1 0xE5 SHL DUP2 MSTORE PUSH1 0x4 ADD PUSH2 0xAC4 SWAP1 PUSH2 0x3B95 JUMP JUMPDEST DUP4 DUP4 PUSH1 0x9 PUSH1 0xFF DUP4 AND LT DUP1 ISZERO PUSH2 0x1C62 JUMPI POP PUSH1 0x9 PUSH1 0xFF DUP3 AND LT JUMPDEST PUSH2 0x1C96 JUMPI PUSH1 0x40 MLOAD PUSH3 0x461BCD PUSH1 0xE5 SHL DUP2 MSTORE PUSH1 0x20 PUSH1 0x4 DUP3 ADD MSTORE PUSH1 0x5 PUSH1 0x24 DUP3 ADD MSTORE PUSH5 0x18DBDBDC99 PUSH1 0xDA SHL PUSH1 0x44 DUP3 ADD MSTORE PUSH1 0x64 ADD PUSH2 0xAC4 JUMP JUMPDEST DUP6 PUSH1 0xFF AND PUSH1 0x4 EQ DUP1 ISZERO PUSH2 0x1CAC JUMPI POP DUP5 PUSH1 0xFF AND PUSH1 0x4 EQ JUMPDEST ISZERO PUSH2 0x1CC9 JUMPI PUSH1 0x40 MLOAD PUSH3 0x461BCD PUSH1 0xE5 SHL DUP2 MSTORE PUSH1 0x4 ADD PUSH2 0xAC4 SWAP1 PUSH2 0x3C2C JUMP JUMPDEST PUSH1 0xFF DUP1 DUP10 AND PUSH1 0x0 SWAP1 DUP2 MSTORE PUSH1 0x28 PUSH1 0x20 SWAP1 DUP2 MSTORE PUSH1 0x40 DUP1 DUP4 KECCAK256 DUP12 DUP6 AND DUP5 MSTORE DUP3 MSTORE DUP1 DUP4 KECCAK256 DUP11 DUP6 AND DUP5 MSTORE DUP3 MSTORE DUP1 DUP4 KECCAK256 DUP10 DUP6 AND DUP5 MSTORE SWAP1 SWAP2 MSTORE DUP2 KECCAK256 SLOAD SWAP1 SWAP2 AND SWAP1 DUP2 SWAP1 SUB PUSH2 0x1D35 JUMPI PUSH1 0x40 MLOAD PUSH3 0x461BCD PUSH1 0xE5 SHL DUP2 MSTORE PUSH1 0x20 PUSH1 0x4 DUP3 ADD MSTORE PUSH1 0x1 PUSH1 0x24 DUP3 ADD MSTORE PUSH1 0x37 PUSH1 0xF9 SHL PUSH1 0x44 DUP3 ADD MSTORE PUSH1 0x64 ADD PUSH2 0xAC4 JUMP JUMPDEST DUP1 PUSH1 0xFF AND PUSH1 0x3 SUB PUSH2 0x1D5C JUMPI CALLER PUSH1 0x0 SWAP1 DUP2 MSTORE PUSH1 0x8 PUSH1 0x20 MSTORE PUSH1 0x40 SWAP1 KECCAK256 DUP1 SLOAD PUSH1 0xFF NOT AND SWAP1 SSTORE PUSH2 0x1D7F JUMP JUMPDEST DUP1 PUSH1 0xFF AND PUSH1 0x6 SUB PUSH2 0x1D7F JUMPI CALLER PUSH1 0x0 SWAP1 DUP2 MSTORE PUSH1 0x9 PUSH1 0x20 MSTORE PUSH1 0x40 SWAP1 KECCAK256 DUP1 SLOAD PUSH1 0xFF NOT AND SWAP1 SSTORE JUMPDEST POP POP POP PUSH1 0xFF SWAP6 DUP7 AND PUSH1 0x0 SWAP1 DUP2 MSTORE PUSH1 0x28 PUSH1 0x20 SWAP1 DUP2 MSTORE PUSH1 0x40 DUP1 DUP4 KECCAK256 SWAP8 DUP10 AND DUP4 MSTORE SWAP7 DUP2 MSTORE DUP7 DUP3 KECCAK256 SWAP6 DUP9 AND DUP3 MSTORE SWAP5 DUP6 MSTORE DUP6 DUP2 KECCAK256 SWAP4 SWAP1 SWAP7 AND DUP7 MSTORE POP POP SWAP1 MSTORE SWAP1 KECCAK256 DUP1 SLOAD PUSH1 0xFF NOT AND SWAP1 SSTORE JUMP JUMPDEST PUSH1 0xD SLOAD PUSH1 0x1 PUSH1 0x1 PUSH1 0xA0 SHL SUB AND CALLER EQ PUSH2 0x1DEE JUMPI PUSH1 0x40 MLOAD PUSH3 0x461BCD PUSH1 0xE5 SHL DUP2 MSTORE PUSH1 0x4 ADD PUSH2 0xAC4 SWAP1 PUSH2 0x3BE8 JUMP JUMPDEST PUSH1 0xFF DUP1 DUP4 AND PUSH1 0x0 SWAP1 DUP2 MSTORE PUSH1 0x27 PUSH1 0x20 SWAP1 DUP2 MSTORE PUSH1 0x40 DUP1 DUP4 KECCAK256 SWAP4 DUP6 AND DUP4 MSTORE SWAP3 SWAP1 MSTORE KECCAK256 PUSH2 0x1E18 DUP2 DUP5 DUP5 PUSH2 0x3137 JUMP JUMPDEST POP POP POP JUMP JUMPDEST PUSH1 0xD SLOAD PUSH1 0x1 PUSH1 0x1 PUSH1 0xA0 SHL SUB AND CALLER EQ PUSH2 0x1E47 JUMPI PUSH1 0x40 MLOAD PUSH3 0x461BCD PUSH1 0xE5 SHL DUP2 MSTORE PUSH1 0x4 ADD PUSH2 0xAC4 SWAP1 PUSH2 0x3BE8 JUMP JUMPDEST PUSH1 0xFF SWAP3 DUP4 AND PUSH1 0x0 SWAP1 DUP2 MSTORE PUSH1 0xB PUSH1 0x20 SWAP1 DUP2 MSTORE PUSH1 0x40 DUP1 DUP4 KECCAK256 SWAP5 SWAP1 SWAP6 AND DUP3 MSTORE SWAP3 SWAP1 SWAP3 MSTORE SWAP2 SWAP1 KECCAK256 DUP1 SLOAD PUSH1 0xFF NOT AND SWAP2 ISZERO ISZERO SWAP2 SWAP1 SWAP2 OR SWAP1 SSTORE JUMP JUMPDEST PUSH2 0x1EFE PUSH1 0x40 MLOAD DUP1 PUSH2 0x1E0 ADD PUSH1 0x40 MSTORE DUP1 PUSH1 0x0 DUP2 MSTORE PUSH1 0x20 ADD PUSH1 0x0 DUP2 MSTORE PUSH1 0x20 ADD PUSH1 0x0 DUP2 MSTORE PUSH1 0x20 ADD PUSH1 0x0 DUP2 MSTORE PUSH1 0x20 ADD PUSH1 0x0 PUSH2 0xFFFF AND DUP2 MSTORE PUSH1 0x20 ADD PUSH1 0x0 DUP2 MSTORE PUSH1 0x20 ADD PUSH1 0x0 DUP2 MSTORE PUSH1 0x20 ADD PUSH1 0x0 DUP2 MSTORE PUSH1 0x20 ADD PUSH1 0x0 DUP2 MSTORE PUSH1 0x20 ADD PUSH1 0x0 DUP2 MSTORE PUSH1 0x20 ADD PUSH1 0x0 DUP2 MSTORE PUSH1 0x20 ADD PUSH1 0x0 DUP2 MSTORE PUSH1 0x20 ADD PUSH1 0x0 PUSH1 0xFF AND DUP2 MSTORE PUSH1 0x20 ADD PUSH1 0x0 PUSH1 0xFF AND DUP2 MSTORE PUSH1 0x20 ADD PUSH1 0x0 DUP2 MSTORE POP SWAP1 JUMP JUMPDEST POP PUSH1 0xFF SWAP2 DUP3 AND PUSH1 0x0 SWAP1 DUP2 MSTORE PUSH1 0x27 PUSH1 0x20 SWAP1 DUP2 MSTORE PUSH1 0x40 DUP1 DUP4 KECCAK256 SWAP4 DUP6 AND DUP4 MSTORE SWAP3 DUP2 MSTORE SWAP1 DUP3 SWAP1 KECCAK256 DUP3 MLOAD PUSH2 0x1E0 DUP2 ADD DUP5 MSTORE DUP2 SLOAD DUP2 MSTORE PUSH1 0x1 DUP3 ADD SLOAD SWAP3 DUP2 ADD SWAP3 SWAP1 SWAP3 MSTORE PUSH1 0x2 DUP2 ADD SLOAD SWAP3 DUP3 ADD SWAP3 SWAP1 SWAP3 MSTORE PUSH1 0x3 DUP3 ADD SLOAD PUSH1 0x60 DUP3 ADD MSTORE PUSH1 0x4 DUP3 ADD SLOAD PUSH2 0xFFFF AND PUSH1 0x80 DUP3 ADD MSTORE PUSH1 0x5 DUP3 ADD SLOAD PUSH1 0xA0 DUP3 ADD MSTORE PUSH1 0x8 DUP3 ADD SLOAD PUSH1 0xC0 DUP3 ADD MSTORE PUSH1 0x9 DUP3 ADD SLOAD PUSH1 0xE0 DUP3 ADD MSTORE PUSH1 0xA DUP3 ADD SLOAD PUSH2 0x100 DUP1 DUP4 ADD SWAP2 SWAP1 SWAP2 MSTORE PUSH1 0xB DUP4 ADD SLOAD PUSH2 0x120 DUP4 ADD MSTORE PUSH1 0xC DUP4 ADD SLOAD PUSH2 0x140 DUP4 ADD MSTORE PUSH1 0xD DUP4 ADD SLOAD PUSH2 0x160 DUP4 ADD MSTORE PUSH1 0xE DUP4 ADD SLOAD DUP1 DUP6 AND PUSH2 0x180 DUP5 ADD MSTORE DIV SWAP1 SWAP3 AND PUSH2 0x1A0 DUP4 ADD MSTORE PUSH1 0xF ADD SLOAD PUSH2 0x1C0 DUP3 ADD MSTORE SWAP1 JUMP JUMPDEST PUSH2 0x1FD9 PUSH2 0x3657 JUMP JUMPDEST PUSH1 0x1 SLOAD PUSH1 0x40 MLOAD PUSH4 0x8A888953 PUSH1 0xE0 SHL DUP2 MSTORE PUSH1 0xFF DUP1 DUP7 AND PUSH1 0x4 DUP4 ADD MSTORE DUP5 AND PUSH1 0x24 DUP3 ADD MSTORE DUP5 SWAP2 DUP5 SWAP2 CALLER SWAP2 PUSH1 0x1 PUSH1 0x1 PUSH1 0xA0 SHL SUB AND SWAP1 PUSH4 0x8A888953 SWAP1 PUSH1 0x44 ADD PUSH1 0x20 PUSH1 0x40 MLOAD DUP1 DUP4 SUB DUP2 DUP7 GAS STATICCALL ISZERO DUP1 ISZERO PUSH2 0x2030 JUMPI RETURNDATASIZE PUSH1 0x0 DUP1 RETURNDATACOPY RETURNDATASIZE PUSH1 0x0 REVERT JUMPDEST POP POP POP POP PUSH1 0x40 MLOAD RETURNDATASIZE PUSH1 0x1F NOT PUSH1 0x1F DUP3 ADD AND DUP3 ADD DUP1 PUSH1 0x40 MSTORE POP DUP2 ADD SWAP1 PUSH2 0x2054 SWAP2 SWAP1 PUSH2 0x3B78 JUMP JUMPDEST PUSH1 0x1 PUSH1 0x1 PUSH1 0xA0 SHL SUB AND EQ PUSH2 0x207A JUMPI PUSH1 0x40 MLOAD PUSH3 0x461BCD PUSH1 0xE5 SHL DUP2 MSTORE PUSH1 0x4 ADD PUSH2 0xAC4 SWAP1 PUSH2 0x3B95 JUMP JUMPDEST PUSH2 0x2082 PUSH2 0x3657 JUMP JUMPDEST PUSH1 0x0 JUMPDEST PUSH1 0x9 PUSH1 0xFF DUP3 AND LT ISZERO PUSH2 0x2139 JUMPI PUSH1 0x0 JUMPDEST PUSH1 0x9 PUSH1 0xFF DUP3 AND LT ISZERO PUSH2 0x2126 JUMPI PUSH1 0xFF DUP1 DUP10 AND PUSH1 0x0 SWAP1 DUP2 MSTORE PUSH1 0x28 PUSH1 0x20 SWAP1 DUP2 MSTORE PUSH1 0x40 DUP1 DUP4 KECCAK256 DUP12 DUP6 AND DUP5 MSTORE DUP3 MSTORE DUP1 DUP4 KECCAK256 DUP7 DUP6 AND DUP1 DUP6 MSTORE SWAP1 DUP4 MSTORE DUP2 DUP5 KECCAK256 DUP7 DUP7 AND DUP6 MSTORE SWAP1 SWAP3 MSTORE SWAP1 SWAP2 KECCAK256 SLOAD SWAP1 SWAP2 AND SWAP1 DUP5 SWAP1 PUSH1 0x9 DUP2 LT PUSH2 0x20EE JUMPI PUSH2 0x20EE PUSH2 0x3D3F JUMP JUMPDEST PUSH1 0x20 MUL ADD MLOAD DUP3 PUSH1 0xFF AND PUSH1 0x9 DUP2 LT PUSH2 0x2107 JUMPI PUSH2 0x2107 PUSH2 0x3D3F JUMP JUMPDEST PUSH1 0xFF SWAP1 SWAP3 AND PUSH1 0x20 SWAP3 SWAP1 SWAP3 MUL ADD MSTORE DUP1 PUSH2 0x211E DUP2 PUSH2 0x3D20 JUMP JUMPDEST SWAP2 POP POP PUSH2 0x2094 JUMP JUMPDEST POP DUP1 PUSH2 0x2131 DUP2 PUSH2 0x3D20 JUMP JUMPDEST SWAP2 POP POP PUSH2 0x2085 JUMP JUMPDEST POP SWAP3 POP JUMPDEST POP POP SWAP3 SWAP2 POP POP JUMP JUMPDEST PUSH1 0x1 SLOAD PUSH1 0x40 MLOAD PUSH4 0x8A888953 PUSH1 0xE0 SHL DUP2 MSTORE PUSH1 0xFF DUP1 DUP6 AND PUSH1 0x4 DUP4 ADD MSTORE DUP4 AND PUSH1 0x24 DUP3 ADD MSTORE DUP4 SWAP2 DUP4 SWAP2 CALLER SWAP2 PUSH1 0x1 PUSH1 0x1 PUSH1 0xA0 SHL SUB AND SWAP1 PUSH4 0x8A888953 SWAP1 PUSH1 0x44 ADD PUSH1 0x20 PUSH1 0x40 MLOAD DUP1 DUP4 SUB DUP2 DUP7 GAS STATICCALL ISZERO DUP1 ISZERO PUSH2 0x219C JUMPI RETURNDATASIZE PUSH1 0x0 DUP1 RETURNDATACOPY RETURNDATASIZE PUSH1 0x0 REVERT JUMPDEST POP POP POP POP PUSH1 0x40 MLOAD RETURNDATASIZE PUSH1 0x1F NOT PUSH1 0x1F DUP3 ADD AND DUP3 ADD DUP1 PUSH1 0x40 MSTORE POP DUP2 ADD SWAP1 PUSH2 0x21C0 SWAP2 SWAP1 PUSH2 0x3B78 JUMP JUMPDEST PUSH1 0x1 PUSH1 0x1 PUSH1 0xA0 SHL SUB AND EQ PUSH2 0x21E6 JUMPI PUSH1 0x40 MLOAD PUSH3 0x461BCD PUSH1 0xE5 SHL DUP2 MSTORE PUSH1 0x4 ADD PUSH2 0xAC4 SWAP1 PUSH2 0x3B95 JUMP JUMPDEST PUSH1 0xFF DUP1 DUP6 AND PUSH1 0x0 SWAP1 DUP2 MSTORE PUSH1 0x27 PUSH1 0x20 SWAP1 DUP2 MSTORE PUSH1 0x40 DUP1 DUP4 KECCAK256 SWAP4 DUP8 AND DUP4 MSTORE SWAP3 SWAP1 MSTORE SWAP1 DUP2 KECCAK256 PUSH1 0x7 ADD SLOAD PUSH2 0x2215 SWAP1 TIMESTAMP PUSH2 0x3CB3 JUMP JUMPDEST PUSH2 0x2220 SWAP1 PUSH1 0x3C PUSH2 0x3CDF JUMP JUMPDEST PUSH1 0xFF DUP1 DUP8 AND PUSH1 0x0 SWAP1 DUP2 MSTORE PUSH1 0x27 PUSH1 0x20 SWAP1 DUP2 MSTORE PUSH1 0x40 DUP1 DUP4 KECCAK256 SWAP4 DUP10 AND DUP4 MSTORE SWAP3 SWAP1 MSTORE KECCAK256 PUSH1 0x6 ADD SLOAD PUSH2 0x2251 SWAP2 SWAP1 PUSH2 0xFFFF AND PUSH2 0x3C19 JUMP JUMPDEST SWAP1 POP PUSH2 0x258 DUP2 GT PUSH2 0x2262 JUMPI DUP1 PUSH2 0x2266 JUMP JUMPDEST PUSH2 0x258 JUMPDEST PUSH1 0xFF SWAP6 DUP7 AND PUSH1 0x0 SWAP1 DUP2 MSTORE PUSH1 0x27 PUSH1 0x20 SWAP1 DUP2 MSTORE PUSH1 0x40 DUP1 DUP4 KECCAK256 SWAP8 SWAP1 SWAP9 AND DUP3 MSTORE SWAP6 SWAP1 SWAP6 MSTORE SWAP5 SWAP1 SWAP4 KECCAK256 PUSH1 0x6 ADD DUP1 SLOAD PUSH2 0xFFFF NOT AND PUSH2 0xFFFF SWAP1 SWAP6 AND SWAP5 SWAP1 SWAP5 OR SWAP1 SWAP4 SSTORE POP POP POP JUMP JUMPDEST PUSH1 0x1 SLOAD PUSH1 0x40 MLOAD PUSH4 0x8A888953 PUSH1 0xE0 SHL DUP2 MSTORE PUSH1 0xFF DUP1 DUP6 AND PUSH1 0x4 DUP4 ADD MSTORE DUP4 AND PUSH1 0x24 DUP3 ADD MSTORE DUP4 SWAP2 DUP4 SWAP2 CALLER SWAP2 PUSH1 0x1 PUSH1 0x1 PUSH1 0xA0 SHL SUB AND SWAP1 PUSH4 0x8A888953 SWAP1 PUSH1 0x44 ADD PUSH1 0x20 PUSH1 0x40 MLOAD DUP1 DUP4 SUB DUP2 DUP7 GAS STATICCALL ISZERO DUP1 ISZERO PUSH2 0x22FD JUMPI RETURNDATASIZE PUSH1 0x0 DUP1 RETURNDATACOPY RETURNDATASIZE PUSH1 0x0 REVERT JUMPDEST POP POP POP POP PUSH1 0x40 MLOAD RETURNDATASIZE PUSH1 0x1F NOT PUSH1 0x1F DUP3 ADD AND DUP3 ADD DUP1 PUSH1 0x40 MSTORE POP DUP2 ADD SWAP1 PUSH2 0x2321 SWAP2 SWAP1 PUSH2 0x3B78 JUMP JUMPDEST PUSH1 0x1 PUSH1 0x1 PUSH1 0xA0 SHL SUB AND EQ PUSH2 0x2347 JUMPI PUSH1 0x40 MLOAD PUSH3 0x461BCD PUSH1 0xE5 SHL DUP2 MSTORE PUSH1 0x4 ADD PUSH2 0xAC4 SWAP1 PUSH2 0x3B95 JUMP JUMPDEST PUSH1 0x0 DUP6 PUSH2 0xFFFF AND GT PUSH2 0x237F JUMPI PUSH1 0x40 MLOAD PUSH3 0x461BCD PUSH1 0xE5 SHL DUP2 MSTORE PUSH1 0x20 PUSH1 0x4 DUP3 ADD MSTORE PUSH1 0x1 PUSH1 0x24 DUP3 ADD MSTORE PUSH1 0x3 PUSH1 0xFC SHL PUSH1 0x44 DUP3 ADD MSTORE PUSH1 0x64 ADD PUSH2 0xAC4 JUMP JUMPDEST PUSH1 0x3 SLOAD CALLVALUE EQ PUSH2 0x23BA JUMPI PUSH1 0x40 MLOAD PUSH3 0x461BCD PUSH1 0xE5 SHL DUP2 MSTORE PUSH1 0x20 PUSH1 0x4 DUP3 ADD MSTORE PUSH1 0x7 PUSH1 0x24 DUP3 ADD MSTORE PUSH7 0x62616420666565 PUSH1 0xC8 SHL PUSH1 0x44 DUP3 ADD MSTORE PUSH1 0x64 ADD PUSH2 0xAC4 JUMP JUMPDEST PUSH1 0xE SLOAD PUSH1 0x1 PUSH1 0x1 PUSH1 0xA0 SHL SUB AND PUSH2 0x2402 JUMPI PUSH1 0x40 MLOAD PUSH3 0x461BCD PUSH1 0xE5 SHL DUP2 MSTORE PUSH1 0x20 PUSH1 0x4 DUP3 ADD MSTORE PUSH1 0xD PUSH1 0x24 DUP3 ADD MSTORE PUSH13 0x195E1D1C98481B9BDD081CD95D PUSH1 0x9A SHL PUSH1 0x44 DUP3 ADD MSTORE PUSH1 0x64 ADD PUSH2 0xAC4 JUMP JUMPDEST PUSH2 0x240C DUP5 DUP5 PUSH2 0x2145 JUMP JUMPDEST PUSH1 0xFF DUP1 DUP6 AND PUSH1 0x0 SWAP1 DUP2 MSTORE PUSH1 0x27 PUSH1 0x20 SWAP1 DUP2 MSTORE PUSH1 0x40 DUP1 DUP4 KECCAK256 SWAP4 DUP8 AND DUP4 MSTORE SWAP3 SWAP1 MSTORE KECCAK256 PUSH1 0x6 ADD SLOAD PUSH2 0xFFFF DUP1 DUP8 AND SWAP2 AND LT ISZERO PUSH2 0x2455 JUMPI PUSH1 0x40 MLOAD PUSH3 0x461BCD PUSH1 0xE5 SHL DUP2 MSTORE PUSH1 0x4 ADD PUSH2 0xAC4 SWAP1 PUSH2 0x3BCD JUMP JUMPDEST PUSH1 0xFF DUP1 DUP6 AND PUSH1 0x0 SWAP1 DUP2 MSTORE PUSH1 0x27 PUSH1 0x20 SWAP1 DUP2 MSTORE PUSH1 0x40 DUP1 DUP4 KECCAK256 SWAP4 DUP8 AND DUP4 MSTORE SWAP3 SWAP1 MSTORE KECCAK256 PUSH1 0x5 ADD SLOAD PUSH2 0x2484 SWAP1 PUSH2 0x3E8 PUSH2 0x3CB3 JUMP JUMPDEST DUP6 PUSH2 0xFFFF AND GT ISZERO PUSH2 0x24C1 JUMPI PUSH1 0xFF DUP1 DUP6 AND PUSH1 0x0 SWAP1 DUP2 MSTORE PUSH1 0x27 PUSH1 0x20 SWAP1 DUP2 MSTORE PUSH1 0x40 DUP1 DUP4 KECCAK256 SWAP4 DUP8 AND DUP4 MSTORE SWAP3 SWAP1 MSTORE KECCAK256 PUSH1 0x5 ADD SLOAD PUSH2 0x24BE SWAP1 PUSH2 0x3E8 PUSH2 0x3CB3 JUMP JUMPDEST SWAP5 POP JUMPDEST PUSH1 0xFF DUP1 DUP6 AND PUSH1 0x0 SWAP1 DUP2 MSTORE PUSH1 0x27 PUSH1 0x20 SWAP1 DUP2 MSTORE PUSH1 0x40 DUP1 DUP4 KECCAK256 SWAP4 DUP8 AND DUP4 MSTORE SWAP3 SWAP1 MSTORE KECCAK256 PUSH1 0x6 ADD SLOAD PUSH2 0x24F3 SWAP1 DUP7 SWAP1 PUSH2 0xFFFF AND PUSH2 0x3D55 JUMP JUMPDEST PUSH1 0xFF DUP6 DUP2 AND PUSH1 0x0 SWAP1 DUP2 MSTORE PUSH1 0x27 PUSH1 0x20 SWAP1 DUP2 MSTORE PUSH1 0x40 DUP1 DUP4 KECCAK256 SWAP4 DUP9 AND DUP4 MSTORE SWAP3 SWAP1 MSTORE SWAP1 DUP2 KECCAK256 PUSH1 0x6 DUP2 ADD DUP1 SLOAD PUSH2 0xFFFF NOT AND PUSH2 0xFFFF SWAP5 SWAP1 SWAP5 AND SWAP4 SWAP1 SWAP4 OR SWAP1 SWAP3 SSTORE TIMESTAMP PUSH1 0x7 SWAP1 SWAP3 ADD SWAP2 SWAP1 SWAP2 SSTORE PUSH2 0x2543 DUP6 DUP6 PUSH1 0x5 PUSH2 0x2EED JUMP JUMPDEST SWAP1 POP PUSH2 0x2550 PUSH1 0x1 DUP3 PUSH2 0x3C19 JUMP JUMPDEST PUSH1 0x2 SLOAD PUSH1 0x40 MLOAD PUSH4 0x2A2026A9 PUSH1 0xE0 SHL DUP2 MSTORE PUSH1 0xFF DUP1 DUP10 AND PUSH1 0x4 DUP4 ADD MSTORE DUP8 AND PUSH1 0x24 DUP3 ADD MSTORE SWAP2 SWAP3 POP PUSH1 0x0 SWAP2 PUSH1 0x1 PUSH1 0x1 PUSH1 0xA0 SHL SUB SWAP1 SWAP2 AND SWAP1 PUSH4 0x2A2026A9 SWAP1 PUSH1 0x44 ADD PUSH1 0x20 PUSH1 0x40 MLOAD DUP1 DUP4 SUB DUP2 DUP7 GAS STATICCALL ISZERO DUP1 ISZERO PUSH2 0x25A9 JUMPI RETURNDATASIZE PUSH1 0x0 DUP1 RETURNDATACOPY RETURNDATASIZE PUSH1 0x0 REVERT JUMPDEST POP POP POP POP PUSH1 0x40 MLOAD RETURNDATASIZE PUSH1 0x1F NOT PUSH1 0x1F DUP3 ADD AND DUP3 ADD DUP1 PUSH1 0x40 MSTORE POP DUP2 ADD SWAP1 PUSH2 0x25CD SWAP2 SWAP1 PUSH2 0x3D77 JUMP JUMPDEST PUSH1 0xFF DUP1 DUP9 AND PUSH1 0x0 SWAP1 DUP2 MSTORE PUSH1 0x27 PUSH1 0x20 SWAP1 DUP2 MSTORE PUSH1 0x40 DUP1 DUP4 KECCAK256 DUP11 DUP6 AND DUP5 MSTORE SWAP1 SWAP2 MSTORE SWAP1 KECCAK256 SWAP2 SWAP3 POP DUP3 AND PUSH1 0x1 SUB PUSH2 0x2624 JUMPI PUSH2 0x2607 DUP4 PUSH2 0xFFFF DUP11 AND PUSH2 0x3CDF JUMP JUMPDEST DUP2 SLOAD DUP3 SWAP1 PUSH1 0x0 SWAP1 PUSH2 0x2619 SWAP1 DUP5 SWAP1 PUSH2 0x3C19 JUMP JUMPDEST SWAP1 SWAP2 SSTORE POP PUSH2 0x26B1 SWAP1 POP JUMP JUMPDEST DUP2 PUSH1 0xFF AND PUSH1 0x2 SUB PUSH2 0x2651 JUMPI PUSH2 0x263D DUP4 PUSH2 0xFFFF DUP11 AND PUSH2 0x3CDF JUMP JUMPDEST PUSH1 0x1 DUP3 ADD DUP1 SLOAD PUSH1 0x0 SWAP1 PUSH2 0x2619 SWAP1 DUP5 SWAP1 PUSH2 0x3C19 JUMP JUMPDEST DUP2 PUSH1 0xFF AND PUSH1 0x3 SUB PUSH2 0x267E JUMPI PUSH2 0x266A DUP4 PUSH2 0xFFFF DUP11 AND PUSH2 0x3CDF JUMP JUMPDEST PUSH1 0x2 DUP3 ADD DUP1 SLOAD PUSH1 0x0 SWAP1 PUSH2 0x2619 SWAP1 DUP5 SWAP1 PUSH2 0x3C19 JUMP JUMPDEST DUP2 PUSH1 0xFF AND PUSH1 0x4 SUB PUSH2 0x26B1 JUMPI PUSH2 0x2697 DUP4 PUSH2 0xFFFF DUP11 AND PUSH2 0x3CDF JUMP JUMPDEST PUSH1 0x3 DUP3 ADD DUP1 SLOAD PUSH1 0x0 SWAP1 PUSH2 0x26AB SWAP1 DUP5 SWAP1 PUSH2 0x3C19 JUMP JUMPDEST SWAP1 SWAP2 SSTORE POP POP JUMPDEST PUSH2 0x26BF DUP4 PUSH2 0xFFFF DUP11 AND PUSH2 0x3CDF JUMP JUMPDEST DUP2 SLOAD DUP3 SWAP1 PUSH1 0x0 SWAP1 PUSH2 0x26D1 SWAP1 DUP5 SWAP1 PUSH2 0x3C19 JUMP JUMPDEST SWAP1 SWAP2 SSTORE POP PUSH2 0x26E5 SWAP1 POP DUP4 PUSH2 0xFFFF DUP11 AND PUSH2 0x3CDF JUMP JUMPDEST PUSH1 0x1 DUP3 ADD DUP1 SLOAD PUSH1 0x0 SWAP1 PUSH2 0x26F9 SWAP1 DUP5 SWAP1 PUSH2 0x3C19 JUMP JUMPDEST SWAP1 SWAP2 SSTORE POP PUSH2 0x270D SWAP1 POP DUP4 PUSH2 0xFFFF DUP11 AND PUSH2 0x3CDF JUMP JUMPDEST PUSH1 0x2 DUP3 ADD DUP1 SLOAD PUSH1 0x0 SWAP1 PUSH2 0x2721 SWAP1 DUP5 SWAP1 PUSH2 0x3C19 JUMP JUMPDEST SWAP1 SWAP2 SSTORE POP PUSH2 0x2735 SWAP1 POP DUP4 PUSH2 0xFFFF DUP11 AND PUSH2 0x3CDF JUMP JUMPDEST PUSH1 0x3 DUP3 ADD DUP1 SLOAD PUSH1 0x0 SWAP1 PUSH2 0x2749 SWAP1 DUP5 SWAP1 PUSH2 0x3C19 JUMP JUMPDEST SWAP3 POP POP DUP2 SWAP1 SSTORE POP DUP8 PUSH2 0xFFFF AND DUP2 PUSH1 0x5 ADD PUSH1 0x0 DUP3 DUP3 SLOAD PUSH2 0x2768 SWAP2 SWAP1 PUSH2 0x3C19 JUMP JUMPDEST SWAP1 SWAP2 SSTORE POP POP PUSH1 0x5 DUP2 ADD SLOAD PUSH1 0x0 SWAP1 PUSH2 0x2782 SWAP1 PUSH2 0x3E8 SWAP1 PUSH2 0x3D0C JUMP JUMPDEST SWAP1 POP PUSH2 0x3E8 DUP3 PUSH1 0x5 ADD PUSH1 0x0 DUP3 DUP3 SLOAD PUSH2 0x279A SWAP2 SWAP1 PUSH2 0x3D94 JUMP JUMPDEST SWAP1 SWAP2 SSTORE POP POP PUSH1 0x4 DUP3 ADD SLOAD PUSH1 0x0 SWAP1 PUSH2 0x27B6 SWAP1 DUP4 SWAP1 PUSH2 0xFFFF AND PUSH2 0x3DA8 JUMP JUMPDEST SWAP1 POP PUSH2 0x1F4 DUP2 PUSH2 0xFFFF AND GT ISZERO PUSH2 0x27DC JUMPI PUSH1 0x4 DUP4 ADD DUP1 SLOAD PUSH2 0xFFFF NOT AND PUSH2 0x1F4 OR SWAP1 SSTORE PUSH2 0x27F0 JUMP JUMPDEST PUSH1 0x4 DUP4 ADD DUP1 SLOAD PUSH2 0xFFFF NOT AND PUSH2 0xFFFF DUP4 AND OR SWAP1 SSTORE JUMPDEST PUSH2 0x27FB DUP4 DUP11 DUP11 PUSH2 0x3137 JUMP JUMPDEST PUSH1 0xFF DUP1 DUP11 AND PUSH1 0x0 SWAP1 DUP2 MSTORE PUSH1 0x7 PUSH1 0x20 SWAP1 DUP2 MSTORE PUSH1 0x40 DUP1 DUP4 KECCAK256 SWAP4 DUP13 AND DUP4 MSTORE SWAP3 SWAP1 MSTORE SWAP1 DUP2 KECCAK256 DUP1 SLOAD PUSH2 0xFFFF DUP14 AND SWAP3 SWAP1 PUSH2 0x2830 SWAP1 DUP5 SWAP1 PUSH2 0x3C19 JUMP JUMPDEST SWAP1 SWAP2 SSTORE POP PUSH2 0x2842 SWAP1 POP DUP10 DUP10 PUSH1 0x0 PUSH2 0x1E47 JUMP JUMPDEST PUSH1 0x40 DUP1 MLOAD PUSH2 0xFFFF DUP13 AND DUP2 MSTORE PUSH1 0xFF DUP12 DUP2 AND PUSH1 0x20 DUP4 ADD MSTORE DUP11 AND DUP2 DUP4 ADD MSTORE SWAP1 MLOAD CALLER SWAP2 PUSH32 0xBB5B4F7847476E1912E2B57D030B0E491D0D72B2EF256CCEEA9DAA41F40F5D18 SWAP2 SWAP1 DUP2 SWAP1 SUB PUSH1 0x60 ADD SWAP1 LOG2 PUSH2 0x2895 CALLVALUE PUSH2 0x3197 JUMP JUMPDEST PUSH1 0x0 DUP1 PUSH2 0x28A0 PUSH2 0x3412 JUMP JUMPDEST SWAP1 SWAP3 POP SWAP1 POP DUP2 ISZERO PUSH2 0x29A2 JUMPI PUSH1 0x0 DUP2 DUP4 PUSH1 0x4 SLOAD DUP16 PUSH2 0xFFFF AND PUSH2 0x28C1 SWAP2 SWAP1 PUSH2 0x3CDF JUMP JUMPDEST PUSH2 0x28CB SWAP2 SWAP1 PUSH2 0x3CDF JUMP JUMPDEST PUSH2 0x28D5 SWAP2 SWAP1 PUSH2 0x3D0C JUMP JUMPDEST PUSH1 0x0 DUP1 SLOAD PUSH1 0x40 MLOAD PUSH4 0xA9059CBB PUSH1 0xE0 SHL DUP2 MSTORE CALLER PUSH1 0x4 DUP3 ADD MSTORE PUSH1 0x24 DUP2 ADD DUP5 SWAP1 MSTORE SWAP3 SWAP4 POP SWAP1 SWAP2 PUSH1 0x1 PUSH1 0x1 PUSH1 0xA0 SHL SUB SWAP1 SWAP2 AND SWAP1 PUSH4 0xA9059CBB SWAP1 PUSH1 0x44 ADD PUSH1 0x20 PUSH1 0x40 MLOAD DUP1 DUP4 SUB DUP2 PUSH1 0x0 DUP8 GAS CALL ISZERO DUP1 ISZERO PUSH2 0x292C JUMPI RETURNDATASIZE PUSH1 0x0 DUP1 RETURNDATACOPY RETURNDATASIZE PUSH1 0x0 REVERT JUMPDEST POP POP POP POP PUSH1 0x40 MLOAD RETURNDATASIZE PUSH1 0x1F NOT PUSH1 0x1F DUP3 ADD AND DUP3 ADD DUP1 PUSH1 0x40 MSTORE POP DUP2 ADD SWAP1 PUSH2 0x2950 SWAP2 SWAP1 PUSH2 0x3DC3 JUMP JUMPDEST SWAP1 POP DUP1 PUSH2 0x299F JUMPI PUSH1 0x40 MLOAD PUSH3 0x461BCD PUSH1 0xE5 SHL DUP2 MSTORE PUSH1 0x20 PUSH1 0x4 DUP3 ADD MSTORE PUSH1 0x1A PUSH1 0x24 DUP3 ADD MSTORE PUSH32 0x4C4F5020726577617264207472616E73666572206661696C6564000000000000 PUSH1 0x44 DUP3 ADD MSTORE PUSH1 0x64 ADD PUSH2 0xAC4 JUMP JUMPDEST POP POP JUMPDEST PUSH1 0x6 DUP1 SLOAD SWAP1 PUSH1 0x0 PUSH2 0x29B2 DUP4 PUSH2 0x3DE0 JUMP JUMPDEST SWAP2 SWAP1 POP SSTORE POP POP POP POP POP POP POP POP POP POP POP POP POP JUMP JUMPDEST PUSH1 0x1 SLOAD PUSH1 0x40 MLOAD PUSH4 0x8A888953 PUSH1 0xE0 SHL DUP2 MSTORE PUSH1 0xFF DUP1 DUP6 AND PUSH1 0x4 DUP4 ADD MSTORE DUP4 AND PUSH1 0x24 DUP3 ADD MSTORE PUSH1 0x0 SWAP2 DUP5 SWAP2 DUP5 SWAP2 CALLER SWAP2 PUSH1 0x1 PUSH1 0x1 PUSH1 0xA0 SHL SUB SWAP1 SWAP2 AND SWAP1 PUSH4 0x8A888953 SWAP1 PUSH1 0x44 ADD PUSH1 0x20 PUSH1 0x40 MLOAD DUP1 DUP4 SUB DUP2 DUP7 GAS STATICCALL ISZERO DUP1 ISZERO PUSH2 0x2A21 JUMPI RETURNDATASIZE PUSH1 0x0 DUP1 RETURNDATACOPY RETURNDATASIZE PUSH1 0x0 REVERT JUMPDEST POP POP POP POP PUSH1 0x40 MLOAD RETURNDATASIZE PUSH1 0x1F NOT PUSH1 0x1F DUP3 ADD AND DUP3 ADD DUP1 PUSH1 0x40 MSTORE POP DUP2 ADD SWAP1 PUSH2 0x2A45 SWAP2 SWAP1 PUSH2 0x3B78 JUMP JUMPDEST PUSH1 0x1 PUSH1 0x1 PUSH1 0xA0 SHL SUB AND EQ PUSH2 0x2A6B JUMPI PUSH1 0x40 MLOAD PUSH3 0x461BCD PUSH1 0xE5 SHL DUP2 MSTORE PUSH1 0x4 ADD PUSH2 0xAC4 SWAP1 PUSH2 0x3B95 JUMP JUMPDEST PUSH1 0xFF DUP1 DUP7 AND PUSH1 0x0 SWAP1 DUP2 MSTORE PUSH1 0x27 PUSH1 0x20 SWAP1 DUP2 MSTORE PUSH1 0x40 DUP1 DUP4 KECCAK256 SWAP4 DUP9 AND DUP4 MSTORE SWAP3 SWAP1 MSTORE KECCAK256 PUSH1 0x7 ADD SLOAD PUSH2 0x258 SWAP1 PUSH2 0x2A9C SWAP1 TIMESTAMP PUSH2 0x3CB3 JUMP JUMPDEST PUSH2 0x2AA7 SWAP1 PUSH1 0x3C PUSH2 0x3CDF JUMP JUMPDEST PUSH1 0xFF DUP1 DUP9 AND PUSH1 0x0 SWAP1 DUP2 MSTORE PUSH1 0x27 PUSH1 0x20 SWAP1 DUP2 MSTORE PUSH1 0x40 DUP1 DUP4 KECCAK256 SWAP4 DUP11 AND DUP4 MSTORE SWAP3 SWAP1 MSTORE KECCAK256 PUSH1 0x6 ADD SLOAD PUSH2 0x2AD8 SWAP2 SWAP1 PUSH2 0xFFFF AND PUSH2 0x3C19 JUMP JUMPDEST GT ISZERO PUSH2 0x2AE8 JUMPI PUSH2 0x258 SWAP3 POP PUSH2 0x213D JUMP JUMPDEST PUSH1 0xFF DUP1 DUP7 AND PUSH1 0x0 SWAP1 DUP2 MSTORE PUSH1 0x27 PUSH1 0x20 SWAP1 DUP2 MSTORE PUSH1 0x40 DUP1 DUP4 KECCAK256 SWAP4 DUP9 AND DUP4 MSTORE SWAP3 SWAP1 MSTORE KECCAK256 PUSH1 0x7 ADD SLOAD PUSH2 0x2B15 SWAP1 TIMESTAMP PUSH2 0x3CB3 JUMP JUMPDEST PUSH2 0x2B20 SWAP1 PUSH1 0x3C PUSH2 0x3CDF JUMP JUMPDEST PUSH1 0xFF DUP1 DUP8 AND PUSH1 0x0 SWAP1 DUP2 MSTORE PUSH1 0x27 PUSH1 0x20 SWAP1 DUP2 MSTORE PUSH1 0x40 DUP1 DUP4 KECCAK256 SWAP4 DUP10 AND DUP4 MSTORE SWAP3 SWAP1 MSTORE KECCAK256 PUSH1 0x6 ADD SLOAD PUSH2 0x2B51 SWAP2 SWAP1 PUSH2 0xFFFF AND PUSH2 0x3C19 JUMP JUMPDEST SWAP3 POP PUSH2 0x213D JUMP JUMPDEST PUSH1 0x1 SLOAD PUSH1 0x40 MLOAD PUSH4 0x8A888953 PUSH1 0xE0 SHL DUP2 MSTORE PUSH1 0xFF DUP1 DUP8 AND PUSH1 0x4 DUP4 ADD MSTORE DUP6 AND PUSH1 0x24 DUP3 ADD MSTORE DUP6 SWAP2 DUP6 SWAP2 CALLER SWAP2 PUSH1 0x1 PUSH1 0x1 PUSH1 0xA0 SHL SUB AND SWAP1 PUSH4 0x8A888953 SWAP1 PUSH1 0x44 ADD PUSH1 0x20 PUSH1 0x40 MLOAD DUP1 DUP4 SUB DUP2 DUP7 GAS STATICCALL ISZERO DUP1 ISZERO PUSH2 0x2BAF JUMPI RETURNDATASIZE PUSH1 0x0 DUP1 RETURNDATACOPY RETURNDATASIZE PUSH1 0x0 REVERT JUMPDEST POP POP POP POP PUSH1 0x40 MLOAD RETURNDATASIZE PUSH1 0x1F NOT PUSH1 0x1F DUP3 ADD AND DUP3 ADD DUP1 PUSH1 0x40 MSTORE POP DUP2 ADD SWAP1 PUSH2 0x2BD3 SWAP2 SWAP1 PUSH2 0x3B78 JUMP JUMPDEST PUSH1 0x1 PUSH1 0x1 PUSH1 0xA0 SHL SUB AND EQ PUSH2 0x2BF9 JUMPI PUSH1 0x40 MLOAD PUSH3 0x461BCD PUSH1 0xE5 SHL DUP2 MSTORE PUSH1 0x4 ADD PUSH2 0xAC4 SWAP1 PUSH2 0x3B95 JUMP JUMPDEST PUSH1 0x0 DUP4 GT PUSH2 0x2C19 JUMPI PUSH1 0x40 MLOAD PUSH3 0x461BCD PUSH1 0xE5 SHL DUP2 MSTORE PUSH1 0x4 ADD PUSH2 0xAC4 SWAP1 PUSH2 0x3BB2 JUMP JUMPDEST DUP4 PUSH1 0xFF AND PUSH1 0x1 EQ DUP1 PUSH2 0x2C2E JUMPI POP DUP4 PUSH1 0xFF AND PUSH1 0x2 EQ JUMPDEST PUSH2 0x2C4A JUMPI PUSH1 0x40 MLOAD PUSH3 0x461BCD PUSH1 0xE5 SHL DUP2 MSTORE PUSH1 0x4 ADD PUSH2 0xAC4 SWAP1 PUSH2 0x3BCD JUMP JUMPDEST PUSH1 0x0 PUSH2 0x2C58 DUP8 DUP8 PUSH1 0x4 PUSH2 0x2EED JUMP JUMPDEST SWAP1 POP PUSH1 0x0 DUP2 GT PUSH2 0x2C8E JUMPI PUSH1 0x40 MLOAD PUSH3 0x461BCD PUSH1 0xE5 SHL DUP2 MSTORE PUSH1 0x20 PUSH1 0x4 DUP3 ADD MSTORE PUSH1 0x1 PUSH1 0x24 DUP3 ADD MSTORE PUSH1 0x7 PUSH1 0xFC SHL PUSH1 0x44 DUP3 ADD MSTORE PUSH1 0x64 ADD PUSH2 0xAC4 JUMP JUMPDEST PUSH1 0x0 DUP6 PUSH1 0xFF AND PUSH1 0x1 EQ PUSH2 0x2CA2 JUMPI PUSH1 0x23 PUSH2 0x2CA5 JUMP JUMPDEST PUSH1 0x1F JUMPDEST PUSH1 0x40 DUP1 MLOAD PUSH1 0x80 DUP2 ADD DUP3 MSTORE DUP3 SLOAD DUP2 MSTORE PUSH1 0x1 DUP4 ADD SLOAD PUSH1 0x20 DUP3 ADD MSTORE PUSH1 0x2 DUP4 ADD SLOAD SWAP2 DUP2 ADD SWAP2 SWAP1 SWAP2 MSTORE PUSH1 0x3 SWAP1 SWAP2 ADD SLOAD PUSH1 0x60 DUP3 ADD MSTORE SWAP1 POP PUSH2 0x2CE3 DUP9 DUP9 DUP4 DUP9 DUP7 PUSH2 0x2F88 JUMP JUMPDEST PUSH1 0xFF DUP1 DUP10 AND PUSH1 0x0 SWAP1 DUP2 MSTORE PUSH1 0x27 PUSH1 0x20 SWAP1 DUP2 MSTORE PUSH1 0x40 DUP1 DUP4 KECCAK256 DUP12 DUP6 AND DUP5 MSTORE SWAP1 SWAP2 MSTORE SWAP1 KECCAK256 PUSH1 0x8 ADD SWAP1 DUP8 AND PUSH1 0x1 SUB PUSH2 0x2DD4 JUMPI DUP1 SLOAD DUP7 GT ISZERO PUSH2 0x2D46 JUMPI PUSH1 0x40 MLOAD PUSH3 0x461BCD PUSH1 0xE5 SHL DUP2 MSTORE PUSH1 0x20 PUSH1 0x4 DUP3 ADD MSTORE PUSH1 0x2 PUSH1 0x24 DUP3 ADD MSTORE PUSH2 0x6F61 PUSH1 0xF0 SHL PUSH1 0x44 DUP3 ADD MSTORE PUSH1 0x64 ADD PUSH2 0xAC4 JUMP JUMPDEST DUP6 DUP2 PUSH1 0x2 ADD SLOAD LT ISZERO PUSH2 0x2D7F JUMPI PUSH1 0x40 MLOAD PUSH3 0x461BCD PUSH1 0xE5 SHL DUP2 MSTORE PUSH1 0x20 PUSH1 0x4 DUP3 ADD MSTORE PUSH1 0x2 PUSH1 0x24 DUP3 ADD MSTORE PUSH2 0x6F77 PUSH1 0xF0 SHL PUSH1 0x44 DUP3 ADD MSTORE PUSH1 0x64 ADD PUSH2 0xAC4 JUMP JUMPDEST DUP6 DUP2 PUSH1 0x0 ADD PUSH1 0x0 DUP3 DUP3 SLOAD PUSH2 0x2D93 SWAP2 SWAP1 PUSH2 0x3CB3 JUMP JUMPDEST SWAP3 POP POP DUP2 SWAP1 SSTORE POP DUP6 DUP2 PUSH1 0x2 ADD PUSH1 0x0 DUP3 DUP3 SLOAD PUSH2 0x2DAE SWAP2 SWAP1 PUSH2 0x3CB3 JUMP JUMPDEST SWAP3 POP POP DUP2 SWAP1 SSTORE POP DUP6 DUP2 PUSH1 0x4 ADD PUSH1 0x0 DUP3 DUP3 SLOAD PUSH2 0x2DC9 SWAP2 SWAP1 PUSH2 0x3C19 JUMP JUMPDEST SWAP1 SWAP2 SSTORE POP PUSH2 0x2E96 SWAP1 POP JUMP JUMPDEST DUP6 DUP2 PUSH1 0x1 ADD SLOAD LT ISZERO PUSH2 0x2E0D JUMPI PUSH1 0x40 MLOAD PUSH3 0x461BCD PUSH1 0xE5 SHL DUP2 MSTORE PUSH1 0x20 PUSH1 0x4 DUP3 ADD MSTORE PUSH1 0x2 PUSH1 0x24 DUP3 ADD MSTORE PUSH2 0x6461 PUSH1 0xF0 SHL PUSH1 0x44 DUP3 ADD MSTORE PUSH1 0x64 ADD PUSH2 0xAC4 JUMP JUMPDEST DUP6 DUP2 PUSH1 0x3 ADD SLOAD LT ISZERO PUSH2 0x2E46 JUMPI PUSH1 0x40 MLOAD PUSH3 0x461BCD PUSH1 0xE5 SHL DUP2 MSTORE PUSH1 0x20 PUSH1 0x4 DUP3 ADD MSTORE PUSH1 0x2 PUSH1 0x24 DUP3 ADD MSTORE PUSH2 0x6477 PUSH1 0xF0 SHL PUSH1 0x44 DUP3 ADD MSTORE PUSH1 0x64 ADD PUSH2 0xAC4 JUMP JUMPDEST DUP6 DUP2 PUSH1 0x1 ADD PUSH1 0x0 DUP3 DUP3 SLOAD PUSH2 0x2E5A SWAP2 SWAP1 PUSH2 0x3CB3 JUMP JUMPDEST SWAP3 POP POP DUP2 SWAP1 SSTORE POP DUP6 DUP2 PUSH1 0x3 ADD PUSH1 0x0 DUP3 DUP3 SLOAD PUSH2 0x2E75 SWAP2 SWAP1 PUSH2 0x3CB3 JUMP JUMPDEST SWAP3 POP POP DUP2 SWAP1 SSTORE POP DUP6 DUP2 PUSH1 0x5 ADD PUSH1 0x0 DUP3 DUP3 SLOAD PUSH2 0x2E90 SWAP2 SWAP1 PUSH2 0x3C19 JUMP JUMPDEST SWAP1 SWAP2 SSTORE POP POP JUMPDEST POP POP POP POP POP POP POP POP POP JUMP JUMPDEST PUSH1 0xC SLOAD PUSH1 0x1 PUSH1 0x1 PUSH1 0xA0 SHL SUB AND CALLER EQ PUSH2 0x2ECB JUMPI PUSH1 0x40 MLOAD PUSH3 0x461BCD PUSH1 0xE5 SHL DUP2 MSTORE PUSH1 0x4 ADD PUSH2 0xAC4 SWAP1 PUSH2 0x3B95 JUMP JUMPDEST PUSH1 0xD DUP1 SLOAD PUSH1 0x1 PUSH1 0x1 PUSH1 0xA0 SHL SUB NOT AND PUSH1 0x1 PUSH1 0x1 PUSH1 0xA0 SHL SUB SWAP3 SWAP1 SWAP3 AND SWAP2 SWAP1 SWAP2 OR SWAP1 SSTORE JUMP JUMPDEST PUSH1 0x0 DUP1 DUP1 JUMPDEST PUSH1 0x9 PUSH1 0xFF DUP3 AND LT ISZERO PUSH2 0x2F7F JUMPI PUSH1 0x0 JUMPDEST PUSH1 0x9 PUSH1 0xFF DUP3 AND LT ISZERO PUSH2 0x2F6C JUMPI PUSH1 0xFF DUP8 DUP2 AND PUSH1 0x0 SWAP1 DUP2 MSTORE PUSH1 0x28 PUSH1 0x20 SWAP1 DUP2 MSTORE PUSH1 0x40 DUP1 DUP4 KECCAK256 DUP11 DUP6 AND DUP5 MSTORE DUP3 MSTORE DUP1 DUP4 KECCAK256 DUP7 DUP6 AND DUP5 MSTORE DUP3 MSTORE DUP1 DUP4 KECCAK256 DUP6 DUP6 AND DUP5 MSTORE SWAP1 SWAP2 MSTORE SWAP1 KECCAK256 SLOAD DUP2 DUP8 AND SWAP2 AND SUB PUSH2 0x2F5A JUMPI DUP3 PUSH2 0x2F56 DUP2 PUSH2 0x3DE0 JUMP JUMPDEST SWAP4 POP POP JUMPDEST DUP1 PUSH2 0x2F64 DUP2 PUSH2 0x3D20 JUMP JUMPDEST SWAP2 POP POP PUSH2 0x2F01 JUMP JUMPDEST POP DUP1 PUSH2 0x2F77 DUP2 PUSH2 0x3D20 JUMP JUMPDEST SWAP2 POP POP PUSH2 0x2EF2 JUMP JUMPDEST POP SWAP5 SWAP4 POP POP POP POP JUMP JUMPDEST PUSH1 0xFF DUP1 DUP7 AND PUSH1 0x0 SWAP1 DUP2 MSTORE PUSH1 0x27 PUSH1 0x20 SWAP1 DUP2 MSTORE PUSH1 0x40 DUP1 DUP4 KECCAK256 SWAP4 DUP9 AND DUP4 MSTORE SWAP3 SWAP1 MSTORE SWAP1 DUP2 KECCAK256 DUP5 MLOAD SWAP1 SWAP2 SWAP1 DUP4 SWAP1 PUSH2 0x2FBB SWAP1 DUP7 SWAP1 PUSH2 0x3CDF JUMP JUMPDEST PUSH2 0x2FC5 SWAP2 SWAP1 PUSH2 0x3D0C JUMP JUMPDEST SWAP1 POP PUSH1 0x0 DUP4 DUP6 DUP8 PUSH1 0x20 ADD MLOAD PUSH2 0x2FDA SWAP2 SWAP1 PUSH2 0x3CDF JUMP JUMPDEST PUSH2 0x2FE4 SWAP2 SWAP1 PUSH2 0x3D0C JUMP JUMPDEST SWAP1 POP PUSH1 0x0 DUP5 DUP7 DUP9 PUSH1 0x40 ADD MLOAD PUSH2 0x2FF9 SWAP2 SWAP1 PUSH2 0x3CDF JUMP JUMPDEST PUSH2 0x3003 SWAP2 SWAP1 PUSH2 0x3D0C JUMP JUMPDEST SWAP1 POP PUSH1 0x0 DUP6 DUP8 DUP10 PUSH1 0x60 ADD MLOAD PUSH2 0x3018 SWAP2 SWAP1 PUSH2 0x3CDF JUMP JUMPDEST PUSH2 0x3022 SWAP2 SWAP1 PUSH2 0x3D0C JUMP JUMPDEST DUP6 SLOAD SWAP1 SWAP2 POP DUP5 GT ISZERO PUSH2 0x3046 JUMPI PUSH1 0x40 MLOAD PUSH3 0x461BCD PUSH1 0xE5 SHL DUP2 MSTORE PUSH1 0x4 ADD PUSH2 0xAC4 SWAP1 PUSH2 0x3C47 JUMP JUMPDEST PUSH1 0x1 DUP6 ADD SLOAD DUP4 GT ISZERO PUSH2 0x306A JUMPI PUSH1 0x40 MLOAD PUSH3 0x461BCD PUSH1 0xE5 SHL DUP2 MSTORE PUSH1 0x4 ADD PUSH2 0xAC4 SWAP1 PUSH2 0x3C62 JUMP JUMPDEST PUSH1 0x2 DUP6 ADD SLOAD DUP3 GT ISZERO PUSH2 0x308E JUMPI PUSH1 0x40 MLOAD PUSH3 0x461BCD PUSH1 0xE5 SHL DUP2 MSTORE PUSH1 0x4 ADD PUSH2 0xAC4 SWAP1 PUSH2 0x3C7D JUMP JUMPDEST PUSH1 0x3 DUP6 ADD SLOAD DUP2 GT ISZERO PUSH2 0x30B2 JUMPI PUSH1 0x40 MLOAD PUSH3 0x461BCD PUSH1 0xE5 SHL DUP2 MSTORE PUSH1 0x4 ADD PUSH2 0xAC4 SWAP1 PUSH2 0x3C98 JUMP JUMPDEST DUP5 SLOAD DUP5 SWAP1 DUP7 SWAP1 PUSH1 0x0 SWAP1 PUSH2 0x30C6 SWAP1 DUP5 SWAP1 PUSH2 0x3CB3 JUMP JUMPDEST SWAP1 SWAP2 SSTORE POP POP PUSH1 0x1 DUP6 ADD DUP1 SLOAD DUP5 SWAP2 SWAP1 PUSH1 0x0 SWAP1 PUSH2 0x30E2 SWAP1 DUP5 SWAP1 PUSH2 0x3CB3 JUMP JUMPDEST SWAP1 SWAP2 SSTORE POP POP PUSH1 0x2 DUP6 ADD DUP1 SLOAD DUP4 SWAP2 SWAP1 PUSH1 0x0 SWAP1 PUSH2 0x30FE SWAP1 DUP5 SWAP1 PUSH2 0x3CB3 JUMP JUMPDEST SWAP1 SWAP2 SSTORE POP POP PUSH1 0x3 DUP6 ADD DUP1 SLOAD DUP3 SWAP2 SWAP1 PUSH1 0x0 SWAP1 PUSH2 0x311A SWAP1 DUP5 SWAP1 PUSH2 0x3CB3 JUMP JUMPDEST SWAP1 SWAP2 SSTORE POP PUSH2 0x312B SWAP1 POP DUP6 DUP12 DUP12 PUSH2 0x3137 JUMP JUMPDEST POP POP POP POP POP POP POP POP POP POP JUMP JUMPDEST PUSH1 0x3 DUP4 ADD SLOAD PUSH1 0x2 DUP5 ADD SLOAD PUSH1 0x1 DUP6 ADD SLOAD DUP6 SLOAD PUSH1 0x0 SWAP4 SWAP3 SWAP2 PUSH2 0x3156 SWAP2 PUSH2 0x3C19 JUMP JUMPDEST PUSH2 0x3160 SWAP2 SWAP1 PUSH2 0x3C19 JUMP JUMPDEST PUSH2 0x316A SWAP2 SWAP1 PUSH2 0x3C19 JUMP JUMPDEST PUSH1 0xF SWAP1 SWAP5 ADD DUP5 SWAP1 SSTORE POP PUSH1 0xFF SWAP2 DUP3 AND PUSH1 0x0 SWAP1 DUP2 MSTORE PUSH1 0xA PUSH1 0x20 SWAP1 DUP2 MSTORE PUSH1 0x40 DUP1 DUP4 KECCAK256 SWAP4 SWAP1 SWAP5 AND DUP3 MSTORE SWAP2 SWAP1 SWAP2 MSTORE KECCAK256 SSTORE JUMP JUMPDEST PUSH2 0x319F PUSH2 0x3685 JUMP JUMPDEST PUSH1 0x0 DUP1 DUP1 PUSH1 0x0 PUSH2 0x31AD PUSH2 0x3469 JUMP JUMPDEST SWAP2 SWAP5 POP SWAP3 POP SWAP1 POP PUSH1 0x1 PUSH1 0x1 PUSH1 0xA0 SHL SUB DUP4 AND ISZERO PUSH2 0x31F5 JUMPI DUP3 DUP6 DUP6 PUSH2 0x31CF DUP2 PUSH2 0x3DE0 JUMP JUMPDEST SWAP7 POP PUSH1 0x4 DUP2 LT PUSH2 0x31E1 JUMPI PUSH2 0x31E1 PUSH2 0x3D3F JUMP JUMPDEST PUSH1 0x1 PUSH1 0x1 PUSH1 0xA0 SHL SUB SWAP1 SWAP3 AND PUSH1 0x20 SWAP3 SWAP1 SWAP3 MUL ADD MSTORE JUMPDEST PUSH1 0x1 PUSH1 0x1 PUSH1 0xA0 SHL SUB DUP3 AND ISZERO PUSH2 0x3236 JUMPI DUP2 DUP6 DUP6 PUSH2 0x3210 DUP2 PUSH2 0x3DE0 JUMP JUMPDEST SWAP7 POP PUSH1 0x4 DUP2 LT PUSH2 0x3222 JUMPI PUSH2 0x3222 PUSH2 0x3D3F JUMP JUMPDEST PUSH1 0x1 PUSH1 0x1 PUSH1 0xA0 SHL SUB SWAP1 SWAP3 AND PUSH1 0x20 SWAP3 SWAP1 SWAP3 MUL ADD MSTORE JUMPDEST PUSH1 0x1 PUSH1 0x1 PUSH1 0xA0 SHL SUB DUP2 AND ISZERO PUSH2 0x3277 JUMPI DUP1 DUP6 DUP6 PUSH2 0x3251 DUP2 PUSH2 0x3DE0 JUMP JUMPDEST SWAP7 POP PUSH1 0x4 DUP2 LT PUSH2 0x3263 JUMPI PUSH2 0x3263 PUSH2 0x3D3F JUMP JUMPDEST PUSH1 0x1 PUSH1 0x1 PUSH1 0xA0 SHL SUB SWAP1 SWAP3 AND PUSH1 0x20 SWAP3 SWAP1 SWAP3 MUL ADD MSTORE JUMPDEST PUSH1 0xE SLOAD PUSH1 0x1 PUSH1 0x1 PUSH1 0xA0 SHL SUB AND DUP6 DUP6 PUSH2 0x328E DUP2 PUSH2 0x3DE0 JUMP JUMPDEST SWAP7 POP PUSH1 0x4 DUP2 LT PUSH2 0x32A0 JUMPI PUSH2 0x32A0 PUSH2 0x3D3F JUMP JUMPDEST PUSH1 0x1 PUSH1 0x1 PUSH1 0xA0 SHL SUB SWAP1 SWAP3 AND PUSH1 0x20 SWAP3 SWAP1 SWAP3 MUL ADD MSTORE PUSH1 0x0 PUSH2 0x32BF DUP6 DUP9 PUSH2 0x3D0C JUMP JUMPDEST SWAP1 POP PUSH1 0x0 DUP1 JUMPDEST DUP7 DUP2 LT ISZERO PUSH2 0x3376 JUMPI PUSH1 0x0 DUP9 DUP3 PUSH1 0x4 DUP2 LT PUSH2 0x32E1 JUMPI PUSH2 0x32E1 PUSH2 0x3D3F JUMP JUMPDEST PUSH1 0x20 MUL ADD MLOAD PUSH1 0x1 PUSH1 0x1 PUSH1 0xA0 SHL SUB AND DUP5 PUSH1 0x40 MLOAD PUSH1 0x0 PUSH1 0x40 MLOAD DUP1 DUP4 SUB DUP2 DUP6 DUP8 GAS CALL SWAP3 POP POP POP RETURNDATASIZE DUP1 PUSH1 0x0 DUP2 EQ PUSH2 0x3330 JUMPI PUSH1 0x40 MLOAD SWAP2 POP PUSH1 0x1F NOT PUSH1 0x3F RETURNDATASIZE ADD AND DUP3 ADD PUSH1 0x40 MSTORE RETURNDATASIZE DUP3 MSTORE RETURNDATASIZE PUSH1 0x0 PUSH1 0x20 DUP5 ADD RETURNDATACOPY PUSH2 0x3335 JUMP JUMPDEST PUSH1 0x60 SWAP2 POP JUMPDEST POP POP SWAP1 POP DUP1 PUSH2 0x3356 JUMPI PUSH1 0x40 MLOAD PUSH3 0x461BCD PUSH1 0xE5 SHL DUP2 MSTORE PUSH1 0x4 ADD PUSH2 0xAC4 SWAP1 PUSH2 0x3C7D JUMP JUMPDEST PUSH2 0x3360 DUP5 DUP5 PUSH2 0x3C19 JUMP JUMPDEST SWAP3 POP POP DUP1 DUP1 PUSH2 0x336E SWAP1 PUSH2 0x3DE0 JUMP JUMPDEST SWAP2 POP POP PUSH2 0x32C5 JUMP JUMPDEST POP PUSH1 0x0 PUSH2 0x3383 DUP3 DUP11 PUSH2 0x3CB3 JUMP JUMPDEST SWAP1 POP DUP1 ISZERO PUSH2 0x2E96 JUMPI PUSH1 0xE SLOAD PUSH1 0x40 MLOAD PUSH1 0x0 SWAP2 PUSH1 0x1 PUSH1 0x1 PUSH1 0xA0 SHL SUB AND SWAP1 DUP4 SWAP1 DUP4 DUP2 DUP2 DUP2 DUP6 DUP8 GAS CALL SWAP3 POP POP POP RETURNDATASIZE DUP1 PUSH1 0x0 DUP2 EQ PUSH2 0x33D8 JUMPI PUSH1 0x40 MLOAD SWAP2 POP PUSH1 0x1F NOT PUSH1 0x3F RETURNDATASIZE ADD AND DUP3 ADD PUSH1 0x40 MSTORE RETURNDATASIZE DUP3 MSTORE RETURNDATASIZE PUSH1 0x0 PUSH1 0x20 DUP5 ADD RETURNDATACOPY PUSH2 0x33DD JUMP JUMPDEST PUSH1 0x60 SWAP2 POP JUMPDEST POP POP SWAP1 POP DUP1 PUSH2 0x312B JUMPI PUSH1 0x40 MLOAD PUSH3 0x461BCD PUSH1 0xE5 SHL DUP2 MSTORE PUSH1 0x20 PUSH1 0x4 DUP3 ADD MSTORE PUSH1 0x1 PUSH1 0x24 DUP3 ADD MSTORE PUSH1 0x39 PUSH1 0xF9 SHL PUSH1 0x44 DUP3 ADD MSTORE PUSH1 0x64 ADD PUSH2 0xAC4 JUMP JUMPDEST PUSH1 0x0 DUP1 PUSH1 0x0 PUSH2 0x341F PUSH2 0x3615 JUMP JUMPDEST SWAP1 POP PUSH1 0x5 DUP2 LT PUSH2 0x3435 JUMPI POP PUSH1 0x0 SWAP3 PUSH1 0x1 SWAP3 POP SWAP1 POP JUMP JUMPDEST DUP1 PUSH1 0x0 SUB PUSH2 0x3449 JUMPI POP PUSH1 0x2 SWAP3 PUSH1 0x1 SWAP3 POP SWAP1 POP JUMP JUMPDEST PUSH1 0x1 PUSH2 0x3455 DUP2 DUP4 PUSH2 0x3CB3 JUMP JUMPDEST PUSH2 0x3460 SWAP1 PUSH1 0x2 PUSH2 0x3EDD JUMP JUMPDEST SWAP3 POP SWAP3 POP POP SWAP1 SWAP2 JUMP JUMPDEST PUSH1 0x0 DUP1 PUSH1 0x0 DUP1 PUSH1 0x0 DUP1 PUSH1 0x0 JUMPDEST PUSH1 0x14 DUP2 PUSH1 0xFF AND LT ISZERO PUSH2 0x360C JUMPI PUSH1 0x0 JUMPDEST PUSH1 0x14 DUP2 PUSH1 0xFF AND LT ISZERO PUSH2 0x35F9 JUMPI PUSH1 0xFF DUP1 DUP4 AND PUSH1 0x0 SWAP1 DUP2 MSTORE PUSH1 0xA PUSH1 0x20 SWAP1 DUP2 MSTORE PUSH1 0x40 DUP1 DUP4 KECCAK256 SWAP4 DUP6 AND DUP4 MSTORE SWAP3 SWAP1 MSTORE SWAP1 DUP2 KECCAK256 SLOAD SWAP1 DUP2 SWAP1 SUB PUSH2 0x34C0 JUMPI POP PUSH2 0x35E7 JUMP JUMPDEST PUSH1 0x1 SLOAD PUSH1 0x40 MLOAD PUSH4 0x8A888953 PUSH1 0xE0 SHL DUP2 MSTORE PUSH1 0xFF DUP1 DUP7 AND PUSH1 0x4 DUP4 ADD MSTORE DUP5 AND PUSH1 0x24 DUP3 ADD MSTORE PUSH1 0x0 SWAP2 PUSH1 0x1 PUSH1 0x1 PUSH1 0xA0 SHL SUB AND SWAP1 PUSH4 0x8A888953 SWAP1 PUSH1 0x44 ADD PUSH1 0x20 PUSH1 0x40 MLOAD DUP1 DUP4 SUB DUP2 DUP7 GAS STATICCALL ISZERO DUP1 ISZERO PUSH2 0x3514 JUMPI RETURNDATASIZE PUSH1 0x0 DUP1 RETURNDATACOPY RETURNDATASIZE PUSH1 0x0 REVERT JUMPDEST POP POP POP POP PUSH1 0x40 MLOAD RETURNDATASIZE PUSH1 0x1F NOT PUSH1 0x1F DUP3 ADD AND DUP3 ADD DUP1 PUSH1 0x40 MSTORE POP DUP2 ADD SWAP1 PUSH2 0x3538 SWAP2 SWAP1 PUSH2 0x3B78 JUMP JUMPDEST SWAP1 POP PUSH1 0x1 PUSH1 0x1 PUSH1 0xA0 SHL SUB DUP2 AND PUSH2 0x354F JUMPI POP POP PUSH2 0x35E7 JUMP JUMPDEST DUP7 DUP3 GT ISZERO PUSH2 0x3566 JUMPI SWAP9 SWAP8 SWAP7 POP SWAP5 SWAP4 SWAP3 POP DUP5 DUP9 PUSH2 0x35E4 JUMP JUMPDEST DUP6 DUP3 GT DUP1 ISZERO PUSH2 0x3587 JUMPI POP DUP10 PUSH1 0x1 PUSH1 0x1 PUSH1 0xA0 SHL SUB AND DUP2 PUSH1 0x1 PUSH1 0x1 PUSH1 0xA0 SHL SUB AND EQ ISZERO JUMPDEST ISZERO PUSH2 0x3599 JUMPI SWAP8 SWAP7 POP SWAP4 SWAP3 POP DUP4 DUP8 PUSH2 0x35E4 JUMP JUMPDEST DUP5 DUP3 GT DUP1 ISZERO PUSH2 0x35BA JUMPI POP DUP10 PUSH1 0x1 PUSH1 0x1 PUSH1 0xA0 SHL SUB AND DUP2 PUSH1 0x1 PUSH1 0x1 PUSH1 0xA0 SHL SUB AND EQ ISZERO JUMPDEST DUP1 ISZERO PUSH2 0x35D8 JUMPI POP DUP9 PUSH1 0x1 PUSH1 0x1 PUSH1 0xA0 SHL SUB AND DUP2 PUSH1 0x1 PUSH1 0x1 PUSH1 0xA0 SHL SUB AND EQ ISZERO JUMPDEST ISZERO PUSH2 0x35E4 JUMPI DUP2 SWAP5 POP DUP1 SWAP8 POP JUMPDEST POP POP JUMPDEST DUP1 PUSH2 0x35F1 DUP2 PUSH2 0x3D20 JUMP JUMPDEST SWAP2 POP POP PUSH2 0x3484 JUMP JUMPDEST POP DUP1 PUSH2 0x3604 DUP2 PUSH2 0x3D20 JUMP JUMPDEST SWAP2 POP POP PUSH2 0x3475 JUMP JUMPDEST POP POP POP POP SWAP1 SWAP2 SWAP3 JUMP JUMPDEST PUSH1 0x0 PUSH1 0x5 SLOAD PUSH1 0x0 EQ DUP1 PUSH2 0x3629 JUMPI POP PUSH1 0x5 SLOAD TIMESTAMP LT JUMPDEST ISZERO PUSH2 0x3635 JUMPI POP PUSH1 0x0 NOT SWAP1 JUMP JUMPDEST PUSH4 0x1E13380 PUSH1 0x5 SLOAD TIMESTAMP PUSH2 0x3648 SWAP2 SWAP1 PUSH2 0x3CB3 JUMP JUMPDEST PUSH2 0x3652 SWAP2 SWAP1 PUSH2 0x3D0C JUMP JUMPDEST SWAP1 POP SWAP1 JUMP JUMPDEST PUSH1 0x40 MLOAD DUP1 PUSH2 0x120 ADD PUSH1 0x40 MSTORE DUP1 PUSH1 0x9 SWAP1 JUMPDEST PUSH2 0x366F PUSH2 0x36A3 JUMP JUMPDEST DUP2 MSTORE PUSH1 0x20 ADD SWAP1 PUSH1 0x1 SWAP1 SUB SWAP1 DUP2 PUSH2 0x3667 JUMPI SWAP1 POP POP SWAP1 JUMP JUMPDEST PUSH1 0x40 MLOAD DUP1 PUSH1 0x80 ADD PUSH1 0x40 MSTORE DUP1 PUSH1 0x4 SWAP1 PUSH1 0x20 DUP3 MUL DUP1 CALLDATASIZE DUP4 CALLDATACOPY POP SWAP2 SWAP3 SWAP2 POP POP JUMP JUMPDEST PUSH1 0x40 MLOAD DUP1 PUSH2 0x120 ADD PUSH1 0x40 MSTORE DUP1 PUSH1 0x9 SWAP1 PUSH1 0x20 DUP3 MUL DUP1 CALLDATASIZE DUP4 CALLDATACOPY POP SWAP2 SWAP3 SWAP2 POP POP JUMP JUMPDEST PUSH1 0xFF DUP2 AND DUP2 EQ PUSH2 0x36D1 JUMPI PUSH1 0x0 DUP1 REVERT JUMPDEST POP JUMP JUMPDEST PUSH1 0x0 DUP1 PUSH1 0x0 DUP1 PUSH1 0x80 DUP6 DUP8 SUB SLT ISZERO PUSH2 0x36EA JUMPI PUSH1 0x0 DUP1 REVERT JUMPDEST DUP5 CALLDATALOAD PUSH2 0x36F5 DUP2 PUSH2 0x36C2 JUMP JUMPDEST SWAP4 POP PUSH1 0x20 DUP6 ADD CALLDATALOAD PUSH2 0x3705 DUP2 PUSH2 0x36C2 JUMP JUMPDEST SWAP3 POP PUSH1 0x40 DUP6 ADD CALLDATALOAD PUSH2 0x3715 DUP2 PUSH2 0x36C2 JUMP JUMPDEST SWAP4 SWAP7 SWAP3 SWAP6 POP SWAP3 SWAP4 PUSH1 0x60 ADD CALLDATALOAD SWAP3 POP POP JUMP JUMPDEST PUSH1 0x1 PUSH1 0x1 PUSH1 0xA0 SHL SUB DUP2 AND DUP2 EQ PUSH2 0x36D1 JUMPI PUSH1 0x0 DUP1 REVERT JUMPDEST PUSH1 0x0 PUSH1 0x20 DUP3 DUP5 SUB SLT ISZERO PUSH2 0x374C JUMPI PUSH1 0x0 DUP1 REVERT JUMPDEST DUP2 CALLDATALOAD PUSH2 0x3757 DUP2 PUSH2 0x3725 JUMP JUMPDEST SWAP4 SWAP3 POP POP POP JUMP JUMPDEST PUSH1 0x0 DUP1 PUSH1 0x0 DUP1 PUSH1 0x0 PUSH1 0xA0 DUP7 DUP9 SUB SLT ISZERO PUSH2 0x3776 JUMPI PUSH1 0x0 DUP1 REVERT JUMPDEST DUP6 CALLDATALOAD PUSH2 0x3781 DUP2 PUSH2 0x36C2 JUMP JUMPDEST SWAP5 POP PUSH1 0x20 DUP7 ADD CALLDATALOAD PUSH2 0x3791 DUP2 PUSH2 0x36C2 JUMP JUMPDEST SWAP4 POP PUSH1 0x40 DUP7 ADD CALLDATALOAD PUSH2 0x37A1 DUP2 PUSH2 0x36C2 JUMP JUMPDEST SWAP3 POP PUSH1 0x60 DUP7 ADD CALLDATALOAD PUSH2 0x37B1 DUP2 PUSH2 0x36C2 JUMP JUMPDEST SWAP2 POP PUSH1 0x80 DUP7 ADD CALLDATALOAD PUSH2 0x37C1 DUP2 PUSH2 0x36C2 JUMP JUMPDEST DUP1 SWAP2 POP POP SWAP3 SWAP6 POP SWAP3 SWAP6 SWAP1 SWAP4 POP JUMP JUMPDEST PUSH1 0x0 DUP1 PUSH1 0x40 DUP4 DUP6 SUB SLT ISZERO PUSH2 0x37E2 JUMPI PUSH1 0x0 DUP1 REVERT JUMPDEST DUP3 CALLDATALOAD PUSH2 0x37ED DUP2 PUSH2 0x36C2 JUMP JUMPDEST SWAP2 POP PUSH1 0x20 DUP4 ADD CALLDATALOAD PUSH2 0x37FD DUP2 PUSH2 0x36C2 JUMP JUMPDEST DUP1 SWAP2 POP POP SWAP3 POP SWAP3 SWAP1 POP JUMP JUMPDEST PUSH1 0x0 DUP1 PUSH1 0x0 PUSH1 0x60 DUP5 DUP7 SUB SLT ISZERO PUSH2 0x381D JUMPI PUSH1 0x0 DUP1 REVERT JUMPDEST DUP4 CALLDATALOAD PUSH2 0x3828 DUP2 PUSH2 0x36C2 JUMP JUMPDEST SWAP3 POP PUSH1 0x20 DUP5 ADD CALLDATALOAD PUSH2 0x3838 DUP2 PUSH2 0x36C2 JUMP JUMPDEST SWAP2 POP PUSH1 0x40 DUP5 ADD CALLDATALOAD PUSH2 0x3848 DUP2 PUSH2 0x36C2 JUMP JUMPDEST DUP1 SWAP2 POP POP SWAP3 POP SWAP3 POP SWAP3 JUMP JUMPDEST DUP1 ISZERO ISZERO DUP2 EQ PUSH2 0x36D1 JUMPI PUSH1 0x0 DUP1 REVERT JUMPDEST PUSH1 0x0 DUP1 PUSH1 0x0 DUP1 PUSH1 0x0 PUSH1 0xA0 DUP7 DUP9 SUB SLT ISZERO PUSH2 0x3879 JUMPI PUSH1 0x0 DUP1 REVERT JUMPDEST DUP6 CALLDATALOAD PUSH2 0x3884 DUP2 PUSH2 0x36C2 JUMP JUMPDEST SWAP5 POP PUSH1 0x20 DUP7 ADD CALLDATALOAD PUSH2 0x3894 DUP2 PUSH2 0x36C2 JUMP JUMPDEST SWAP4 POP PUSH1 0x40 DUP7 ADD CALLDATALOAD PUSH2 0x38A4 DUP2 PUSH2 0x36C2 JUMP JUMPDEST SWAP3 POP PUSH1 0x60 DUP7 ADD CALLDATALOAD SWAP2 POP PUSH1 0x80 DUP7 ADD CALLDATALOAD PUSH2 0x37C1 DUP2 PUSH2 0x3853 JUMP JUMPDEST PUSH1 0x0 DUP1 PUSH1 0x0 DUP1 PUSH1 0x80 DUP6 DUP8 SUB SLT ISZERO PUSH2 0x38D1 JUMPI PUSH1 0x0 DUP1 REVERT JUMPDEST DUP5 CALLDATALOAD PUSH2 0x38DC DUP2 PUSH2 0x36C2 JUMP JUMPDEST SWAP4 POP PUSH1 0x20 DUP6 ADD CALLDATALOAD PUSH2 0x38EC DUP2 PUSH2 0x36C2 JUMP JUMPDEST SWAP3 POP PUSH1 0x40 DUP6 ADD CALLDATALOAD PUSH2 0x38FC DUP2 PUSH2 0x36C2 JUMP JUMPDEST SWAP2 POP PUSH1 0x60 DUP6 ADD CALLDATALOAD PUSH2 0x390C DUP2 PUSH2 0x36C2 JUMP JUMPDEST SWAP4 SWAP7 SWAP3 SWAP6 POP SWAP1 SWAP4 POP POP JUMP JUMPDEST PUSH1 0x0 DUP1 PUSH1 0x0 PUSH1 0x60 DUP5 DUP7 SUB SLT ISZERO PUSH2 0x392C JUMPI PUSH1 0x0 DUP1 REVERT JUMPDEST DUP4 CALLDATALOAD PUSH2 0x3937 DUP2 PUSH2 0x36C2 JUMP JUMPDEST SWAP3 POP PUSH1 0x20 DUP5 ADD CALLDATALOAD PUSH2 0x3947 DUP2 PUSH2 0x36C2 JUMP JUMPDEST SWAP2 POP PUSH1 0x40 DUP5 ADD CALLDATALOAD PUSH2 0x3848 DUP2 PUSH2 0x3853 JUMP JUMPDEST PUSH1 0x0 PUSH2 0x220 DUP3 ADD SWAP1 POP DUP10 MLOAD DUP3 MSTORE PUSH1 0x20 DUP11 ADD MLOAD PUSH1 0x20 DUP4 ADD MSTORE PUSH1 0x40 DUP11 ADD MLOAD PUSH1 0x40 DUP4 ADD MSTORE PUSH1 0x60 DUP11 ADD MLOAD PUSH1 0x60 DUP4 ADD MSTORE PUSH2 0xFFFF DUP1 DUP11 AND PUSH1 0x80 DUP5 ADD MSTORE DUP9 PUSH1 0xA0 DUP5 ADD MSTORE DUP1 DUP9 AND PUSH1 0xC0 DUP5 ADD MSTORE POP DUP6 PUSH1 0xE0 DUP4 ADD MSTORE DUP5 MLOAD PUSH2 0x100 DUP4 ADD MSTORE PUSH1 0x20 DUP6 ADD MLOAD PUSH2 0x120 DUP4 ADD MSTORE PUSH1 0x40 DUP6 ADD MLOAD PUSH2 0x140 DUP4 ADD MSTORE PUSH1 0x60 DUP6 ADD MLOAD PUSH2 0x160 DUP4 ADD MSTORE PUSH1 0x80 DUP6 ADD MLOAD PUSH2 0x180 DUP4 ADD MSTORE PUSH1 0xA0 DUP6 ADD MLOAD PUSH2 0x1A0 DUP4 ADD MSTORE PUSH2 0x39FF PUSH2 0x1C0 DUP4 ADD DUP6 DUP1 MLOAD PUSH1 0xFF SWAP1 DUP2 AND DUP4 MSTORE PUSH1 0x20 SWAP2 DUP3 ADD MLOAD AND SWAP2 ADD MSTORE JUMP JUMPDEST DUP3 PUSH2 0x200 DUP4 ADD MSTORE SWAP10 SWAP9 POP POP POP POP POP POP POP POP POP JUMP JUMPDEST PUSH1 0x0 PUSH2 0x1E0 DUP3 ADD SWAP1 POP DUP3 MLOAD DUP3 MSTORE PUSH1 0x20 DUP4 ADD MLOAD PUSH1 0x20 DUP4 ADD MSTORE PUSH1 0x40 DUP4 ADD MLOAD PUSH1 0x40 DUP4 ADD MSTORE PUSH1 0x60 DUP4 ADD MLOAD PUSH1 0x60 DUP4 ADD MSTORE PUSH1 0x80 DUP4 ADD MLOAD PUSH2 0x3A53 PUSH1 0x80 DUP5 ADD DUP3 PUSH2 0xFFFF AND SWAP1 MSTORE JUMP JUMPDEST POP PUSH1 0xA0 DUP4 DUP2 ADD MLOAD SWAP1 DUP4 ADD MSTORE PUSH1 0xC0 DUP1 DUP5 ADD MLOAD SWAP1 DUP4 ADD MSTORE PUSH1 0xE0 DUP1 DUP5 ADD MLOAD SWAP1 DUP4 ADD MSTORE PUSH2 0x100 DUP1 DUP5 ADD MLOAD SWAP1 DUP4 ADD MSTORE PUSH2 0x120 DUP1 DUP5 ADD MLOAD SWAP1 DUP4 ADD MSTORE PUSH2 0x140 DUP1 DUP5 ADD MLOAD SWAP1 DUP4 ADD MSTORE PUSH2 0x160 DUP1 DUP5 ADD MLOAD SWAP1 DUP4 ADD MSTORE PUSH2 0x180 DUP1 DUP5 ADD MLOAD PUSH1 0xFF DUP2 AND DUP3 DUP6 ADD MSTORE POP POP PUSH2 0x1A0 DUP4 DUP2 ADD MLOAD PUSH1 0xFF DUP2 AND DUP5 DUP4 ADD MSTORE POP POP PUSH2 0x1C0 SWAP3 DUP4 ADD MLOAD SWAP2 SWAP1 SWAP3 ADD MSTORE SWAP1 JUMP JUMPDEST PUSH2 0xA20 DUP2 ADD DUP2 DUP4 PUSH1 0x0 DUP1 JUMPDEST PUSH1 0x9 DUP1 DUP3 LT PUSH2 0x3AE9 JUMPI POP PUSH2 0x3B2A JUMP JUMPDEST DUP4 MLOAD DUP6 DUP5 JUMPDEST DUP4 DUP2 LT ISZERO PUSH2 0x3B0F JUMPI DUP3 MLOAD PUSH1 0xFF AND DUP3 MSTORE PUSH1 0x20 SWAP3 DUP4 ADD SWAP3 SWAP1 SWAP2 ADD SWAP1 PUSH1 0x1 ADD PUSH2 0x3AEE JUMP JUMPDEST POP POP POP PUSH2 0x120 SWAP5 SWAP1 SWAP5 ADD SWAP4 POP PUSH1 0x20 SWAP3 SWAP1 SWAP3 ADD SWAP2 PUSH1 0x1 ADD PUSH2 0x3ADA JUMP JUMPDEST POP POP POP POP SWAP3 SWAP2 POP POP JUMP JUMPDEST PUSH1 0x0 PUSH1 0x20 DUP3 DUP5 SUB SLT ISZERO PUSH2 0x3B46 JUMPI PUSH1 0x0 DUP1 REVERT JUMPDEST DUP2 CALLDATALOAD PUSH2 0x3757 DUP2 PUSH2 0x36C2 JUMP JUMPDEST PUSH1 0x0 DUP1 PUSH1 0x0 PUSH1 0x60 DUP5 DUP7 SUB SLT ISZERO PUSH2 0x3B66 JUMPI PUSH1 0x0 DUP1 REVERT JUMPDEST DUP4 CALLDATALOAD PUSH2 0xFFFF DUP2 AND DUP2 EQ PUSH2 0x3828 JUMPI PUSH1 0x0 DUP1 REVERT JUMPDEST PUSH1 0x0 PUSH1 0x20 DUP3 DUP5 SUB SLT ISZERO PUSH2 0x3B8A JUMPI PUSH1 0x0 DUP1 REVERT JUMPDEST DUP2 MLOAD PUSH2 0x3757 DUP2 PUSH2 0x3725 JUMP JUMPDEST PUSH1 0x20 DUP1 DUP3 MSTORE PUSH1 0x3 SWAP1 DUP3 ADD MSTORE PUSH3 0x37BBB7 PUSH1 0xE9 SHL PUSH1 0x40 DUP3 ADD MSTORE PUSH1 0x60 ADD SWAP1 JUMP JUMPDEST PUSH1 0x20 DUP1 DUP3 MSTORE PUSH1 0x1 SWAP1 DUP3 ADD MSTORE PUSH1 0x3D PUSH1 0xF9 SHL PUSH1 0x40 DUP3 ADD MSTORE PUSH1 0x60 ADD SWAP1 JUMP JUMPDEST PUSH1 0x20 DUP1 DUP3 MSTORE PUSH1 0x1 SWAP1 DUP3 ADD MSTORE PUSH1 0x1D PUSH1 0xFA SHL PUSH1 0x40 DUP3 ADD MSTORE PUSH1 0x60 ADD SWAP1 JUMP JUMPDEST PUSH1 0x20 DUP1 DUP3 MSTORE PUSH1 0x1 SWAP1 DUP3 ADD MSTORE PUSH1 0x61 PUSH1 0xF8 SHL PUSH1 0x40 DUP3 ADD MSTORE PUSH1 0x60 ADD SWAP1 JUMP JUMPDEST PUSH4 0x4E487B71 PUSH1 0xE0 SHL PUSH1 0x0 MSTORE PUSH1 0x11 PUSH1 0x4 MSTORE PUSH1 0x24 PUSH1 0x0 REVERT JUMPDEST DUP1 DUP3 ADD DUP1 DUP3 GT ISZERO PUSH2 0x108B JUMPI PUSH2 0x108B PUSH2 0x3C03 JUMP JUMPDEST PUSH1 0x20 DUP1 DUP3 MSTORE PUSH1 0x1 SWAP1 DUP3 ADD MSTORE PUSH1 0x63 PUSH1 0xF8 SHL PUSH1 0x40 DUP3 ADD MSTORE PUSH1 0x60 ADD SWAP1 JUMP JUMPDEST PUSH1 0x20 DUP1 DUP3 MSTORE PUSH1 0x1 SWAP1 DUP3 ADD MSTORE PUSH1 0x33 PUSH1 0xF9 SHL PUSH1 0x40 DUP3 ADD MSTORE PUSH1 0x60 ADD SWAP1 JUMP JUMPDEST PUSH1 0x20 DUP1 DUP3 MSTORE PUSH1 0x1 SWAP1 DUP3 ADD MSTORE PUSH1 0x77 PUSH1 0xF8 SHL PUSH1 0x40 DUP3 ADD MSTORE PUSH1 0x60 ADD SWAP1 JUMP JUMPDEST PUSH1 0x20 DUP1 DUP3 MSTORE PUSH1 0x1 SWAP1 DUP3 ADD MSTORE PUSH1 0x73 PUSH1 0xF8 SHL PUSH1 0x40 DUP3 ADD MSTORE PUSH1 0x60 ADD SWAP1 JUMP JUMPDEST PUSH1 0x20 DUP1 DUP3 MSTORE PUSH1 0x1 SWAP1 DUP3 ADD MSTORE PUSH1 0x69 PUSH1 0xF8 SHL PUSH1 0x40 DUP3 ADD MSTORE PUSH1 0x60 ADD SWAP1 JUMP JUMPDEST DUP2 DUP2 SUB DUP2 DUP2 GT ISZERO PUSH2 0x108B JUMPI PUSH2 0x108B PUSH2 0x3C03 JUMP JUMPDEST PUSH1 0xFF DUP2 DUP2 AND DUP4 DUP3 AND ADD SWAP1 DUP2 GT ISZERO PUSH2 0x108B JUMPI PUSH2 0x108B PUSH2 0x3C03 JUMP JUMPDEST DUP1 DUP3 MUL DUP2 ISZERO DUP3 DUP3 DIV DUP5 EQ OR PUSH2 0x108B JUMPI PUSH2 0x108B PUSH2 0x3C03 JUMP JUMPDEST PUSH4 0x4E487B71 PUSH1 0xE0 SHL PUSH1 0x0 MSTORE PUSH1 0x12 PUSH1 0x4 MSTORE PUSH1 0x24 PUSH1 0x0 REVERT JUMPDEST PUSH1 0x0 DUP3 PUSH2 0x3D1B JUMPI PUSH2 0x3D1B PUSH2 0x3CF6 JUMP JUMPDEST POP DIV SWAP1 JUMP JUMPDEST PUSH1 0x0 PUSH1 0xFF DUP3 AND PUSH1 0xFF DUP2 SUB PUSH2 0x3D36 JUMPI PUSH2 0x3D36 PUSH2 0x3C03 JUMP JUMPDEST PUSH1 0x1 ADD SWAP3 SWAP2 POP POP JUMP JUMPDEST PUSH4 0x4E487B71 PUSH1 0xE0 SHL PUSH1 0x0 MSTORE PUSH1 0x32 PUSH1 0x4 MSTORE PUSH1 0x24 PUSH1 0x0 REVERT JUMPDEST PUSH2 0xFFFF DUP3 DUP2 AND DUP3 DUP3 AND SUB SWAP1 DUP1 DUP3 GT ISZERO PUSH2 0x3D70 JUMPI PUSH2 0x3D70 PUSH2 0x3C03 JUMP JUMPDEST POP SWAP3 SWAP2 POP POP JUMP JUMPDEST PUSH1 0x0 PUSH1 0x20 DUP3 DUP5 SUB SLT ISZERO PUSH2 0x3D89 JUMPI PUSH1 0x0 DUP1 REVERT JUMPDEST DUP2 MLOAD PUSH2 0x3757 DUP2 PUSH2 0x36C2 JUMP JUMPDEST PUSH1 0x0 DUP3 PUSH2 0x3DA3 JUMPI PUSH2 0x3DA3 PUSH2 0x3CF6 JUMP JUMPDEST POP MOD SWAP1 JUMP JUMPDEST PUSH2 0xFFFF DUP2 DUP2 AND DUP4 DUP3 AND ADD SWAP1 DUP1 DUP3 GT ISZERO PUSH2 0x3D70 JUMPI PUSH2 0x3D70 PUSH2 0x3C03 JUMP JUMPDEST PUSH1 0x0 PUSH1 0x20 DUP3 DUP5 SUB SLT ISZERO PUSH2 0x3DD5 JUMPI PUSH1 0x0 DUP1 REVERT JUMPDEST DUP2 MLOAD PUSH2 0x3757 DUP2 PUSH2 0x3853 JUMP JUMPDEST PUSH1 0x0 PUSH1 0x1 DUP3 ADD PUSH2 0x3DF2 JUMPI PUSH2 0x3DF2 PUSH2 0x3C03 JUMP JUMPDEST POP PUSH1 0x1 ADD SWAP1 JUMP JUMPDEST PUSH1 0x1 DUP2 DUP2 JUMPDEST DUP1 DUP6 GT ISZERO PUSH2 0x3E34 JUMPI DUP2 PUSH1 0x0 NOT DIV DUP3 GT ISZERO PUSH2 0x3E1A JUMPI PUSH2 0x3E1A PUSH2 0x3C03 JUMP JUMPDEST DUP1 DUP6 AND ISZERO PUSH2 0x3E27 JUMPI SWAP2 DUP2 MUL SWAP2 JUMPDEST SWAP4 DUP5 SHR SWAP4 SWAP1 DUP1 MUL SWAP1 PUSH2 0x3DFE JUMP JUMPDEST POP SWAP3 POP SWAP3 SWAP1 POP JUMP JUMPDEST PUSH1 0x0 DUP3 PUSH2 0x3E4B JUMPI POP PUSH1 0x1 PUSH2 0x108B JUMP JUMPDEST DUP2 PUSH2 0x3E58 JUMPI POP PUSH1 0x0 PUSH2 0x108B JUMP JUMPDEST DUP2 PUSH1 0x1 DUP2 EQ PUSH2 0x3E6E JUMPI PUSH1 0x2 DUP2 EQ PUSH2 0x3E78 JUMPI PUSH2 0x3E94 JUMP JUMPDEST PUSH1 0x1 SWAP2 POP POP PUSH2 0x108B JUMP JUMPDEST PUSH1 0xFF DUP5 GT ISZERO PUSH2 0x3E89 JUMPI PUSH2 0x3E89 PUSH2 0x3C03 JUMP JUMPDEST POP POP PUSH1 0x1 DUP3 SHL PUSH2 0x108B JUMP JUMPDEST POP PUSH1 0x20 DUP4 LT PUSH2 0x133 DUP4 LT AND PUSH1 0x4E DUP5 LT PUSH1 0xB DUP5 LT AND OR ISZERO PUSH2 0x3EB7 JUMPI POP DUP2 DUP2 EXP PUSH2 0x108B JUMP JUMPDEST PUSH2 0x3EC1 DUP4 DUP4 PUSH2 0x3DF9 JUMP JUMPDEST DUP1 PUSH1 0x0 NOT DIV DUP3 GT ISZERO PUSH2 0x3ED5 JUMPI PUSH2 0x3ED5 PUSH2 0x3C03 JUMP JUMPDEST MUL SWAP4 SWAP3 POP POP POP JUMP JUMPDEST PUSH1 0x0 PUSH2 0x1088 DUP4 DUP4 PUSH2 0x3E3C JUMP INVALID LOG2 PUSH5 0x6970667358 0x22 SLT KECCAK256 ADDMOD ORIGIN SGT 0xE4 0x2C 0xC 0xCE MULMOD MOD BASEFEE 0xD2 0xCA SWAP3 0xCA 0xF8 PUSH3 0xFDE47C 0xFB 0xE6 0xD PUSH28 0x591409CAAD120BB28A64736F6C634300081200330000000000000000 "
		},
		"gasEstimates": {
			"creation": {
				"codeDepositCost": "3231800",
				"executionCost": "infinite",
				"totalCost": "infinite"
			},
			"external": {
				"TXCounter()": "2428",
				"_clan()": "2481",
				"adjustTileResources(uint8,uint8,uint8,uint256,bool)": "infinite",
				"baseDefensiveArmorCost()": "8763",
				"baseDefensiveSoldierCost()": "8805",
				"baseDefensiveWeaponCost()": "8763",
				"baseOffensiveArmorCost()": "8740",
				"baseOffensiveSoldierCost()": "8762",
				"baseOffensiveWeaponCost()": "8719",
				"buildingCosts(uint8)": "8948",
				"calcTurn(uint8,uint8)": "infinite",
				"createSoldier(uint8,uint8,uint8,uint256)": "infinite",
				"demolishBuilding(uint8,uint8,uint8,uint8)": "infinite",
				"extraFeeRecipient()": "2437",
				"getAllBuildings(uint8,uint8)": "infinite",
				"getTileData(uint8,uint8)": "infinite",
				"getTotalTurnsUsedByTile(uint8,uint8)": "infinite",
				"getTowerCount(uint8,uint8)": "infinite",
				"getTurn(uint8,uint8)": "infinite",
				"hasClanHall(address)": "2569",
				"hasMarket(address)": "2659",
				"interiorMapSize()": "359",
				"interiorMaps(uint8,uint8,uint8,uint8)": "infinite",
				"lopToken()": "2395",
				"marketplaceAddress()": "2415",
				"owner()": "2438",
				"placeBuilding(uint8,uint8,uint8,uint8,uint8)": "infinite",
				"pointsByCoords(uint8,uint8)": "infinite",
				"produceArmor(uint8,uint8,uint8,uint256)": "infinite",
				"produceWeapon(uint8,uint8,uint8,uint256)": "infinite",
				"recalculatePointsAfterAttack(uint8,uint8)": "infinite",
				"resourceMessage(uint8,uint8)": "infinite",
				"rewardUnit()": "2341",
				"rewardsStart()": "2384",
				"setClanAddress(address)": "26817",
				"setExtraFeeReceiver(address)": "26796",
				"setMarketAddress(address)": "26859",
				"setResourceMessageFlag(uint8,uint8,bool)": "infinite",
				"tileMapPhaser()": "2394",
				"tiles(uint8,uint8)": "infinite",
				"totalTurnsUsedByTile(uint8,uint8)": "infinite",
				"turnFeeWei()": "2430",
				"turnsPerLevel()": "328",
				"upgradeTech(uint8,uint8,uint8)": "infinite",
				"useTurns(uint16,uint8,uint8)": "infinite"
			},
			"internal": {
				"_currentYearIndex()": "6516",
				"_distributeNativeFee(uint256)": "infinite",
				"_initializeBuildingCosts()": "infinite",
				"_recalculatePoints(struct TheLand.TileData storage pointer,uint8,uint8)": "infinite",
				"_rewardMultiplier()": "infinite",
				"_setResourceMessageFlag(uint8,uint8,bool)": "infinite",
				"_top3Owners()": "infinite",
				"applyProductionCost(uint8,uint8,struct TheLand.Resources memory,uint256,uint256)": "infinite",
				"countBuildings(uint8,uint8,uint8)": "infinite"
			}
		},
		"methodIdentifiers": {
			"TXCounter()": "de8ca33a",
			"_clan()": "7cca26d9",
			"adjustTileResources(uint8,uint8,uint8,uint256,bool)": "3e5f2857",
			"baseDefensiveArmorCost()": "8c87fa4f",
			"baseDefensiveSoldierCost()": "f9c64454",
			"baseDefensiveWeaponCost()": "537e8f49",
			"baseOffensiveArmorCost()": "620a9a99",
			"baseOffensiveSoldierCost()": "a596b645",
			"baseOffensiveWeaponCost()": "800bfa27",
			"buildingCosts(uint8)": "c1712d57",
			"calcTurn(uint8,uint8)": "dd4b466b",
			"createSoldier(uint8,uint8,uint8,uint256)": "f89d7571",
			"demolishBuilding(uint8,uint8,uint8,uint8)": "60b76b52",
			"extraFeeRecipient()": "7502bad4",
			"getAllBuildings(uint8,uint8)": "be9a263c",
			"getTileData(uint8,uint8)": "bd638378",
			"getTotalTurnsUsedByTile(uint8,uint8)": "41ede44f",
			"getTowerCount(uint8,uint8)": "2a490ae8",
			"getTurn(uint8,uint8)": "f3245254",
			"hasClanHall(address)": "e3198e08",
			"hasMarket(address)": "5e75968e",
			"interiorMapSize()": "decc1bbf",
			"interiorMaps(uint8,uint8,uint8,uint8)": "a2f9cc5b",
			"lopToken()": "0d67f59e",
			"marketplaceAddress()": "daa17f49",
			"owner()": "8da5cb5b",
			"placeBuilding(uint8,uint8,uint8,uint8,uint8)": "0ee22f31",
			"pointsByCoords(uint8,uint8)": "2ef78865",
			"produceArmor(uint8,uint8,uint8,uint256)": "07722bc2",
			"produceWeapon(uint8,uint8,uint8,uint256)": "4274b164",
			"recalculatePointsAfterAttack(uint8,uint8)": "7659bc60",
			"resourceMessage(uint8,uint8)": "ccd5e491",
			"rewardUnit()": "428967da",
			"rewardsStart()": "65af3a2f",
			"setClanAddress(address)": "5d219d5f",
			"setExtraFeeReceiver(address)": "0df7b41a",
			"setMarketAddress(address)": "fae92612",
			"setResourceMessageFlag(uint8,uint8,bool)": "9a4a2084",
			"tileMapPhaser()": "4f264b03",
			"tiles(uint8,uint8)": "9b562df2",
			"totalTurnsUsedByTile(uint8,uint8)": "887aca72",
			"turnFeeWei()": "21b74ea7",
			"turnsPerLevel()": "bdc7da8e",
			"upgradeTech(uint8,uint8,uint8)": "351662e4",
			"useTurns(uint16,uint8,uint8)": "e9dd6583"
		}
	},
	"abi": [
		{
			"inputs": [
				{
					"internalType": "address",
					"name": "_tileMapPhaser",
					"type": "address"
				},
				{
					"internalType": "address",
					"name": "_lopToken",
					"type": "address"
				}
			],
			"stateMutability": "nonpayable",
			"type": "constructor"
		},
		{
			"anonymous": false,
			"inputs": [
				{
					"indexed": true,
					"internalType": "address",
					"name": "user",
					"type": "address"
				},
				{
					"indexed": false,
					"internalType": "uint256",
					"name": "turnsUsed",
					"type": "uint256"
				},
				{
					"indexed": false,
					"internalType": "uint8",
					"name": "x",
					"type": "uint8"
				},
				{
					"indexed": false,
					"internalType": "uint8",
					"name": "y",
					"type": "uint8"
				}
			],
			"name": "TurnsUsed",
			"type": "event"
		},
		{
			"inputs": [],
			"name": "TXCounter",
			"outputs": [
				{
					"internalType": "uint256",
					"name": "",
					"type": "uint256"
				}
			],
			"stateMutability": "view",
			"type": "function"
		},
		{
			"inputs": [],
			"name": "_clan",
			"outputs": [
				{
					"internalType": "contract IClan",
					"name": "",
					"type": "address"
				}
			],
			"stateMutability": "view",
			"type": "function"
		},
		{
			"inputs": [
				{
					"internalType": "uint8",
					"name": "x",
					"type": "uint8"
				},
				{
					"internalType": "uint8",
					"name": "y",
					"type": "uint8"
				},
				{
					"internalType": "uint8",
					"name": "resourceType",
					"type": "uint8"
				},
				{
					"internalType": "uint256",
					"name": "amount",
					"type": "uint256"
				},
				{
					"internalType": "bool",
					"name": "isAdding",
					"type": "bool"
				}
			],
			"name": "adjustTileResources",
			"outputs": [],
			"stateMutability": "nonpayable",
			"type": "function"
		},
		{
			"inputs": [],
			"name": "baseDefensiveArmorCost",
			"outputs": [
				{
					"internalType": "uint256",
					"name": "food",
					"type": "uint256"
				},
				{
					"internalType": "uint256",
					"name": "wood",
					"type": "uint256"
				},
				{
					"internalType": "uint256",
					"name": "stone",
					"type": "uint256"
				},
				{
					"internalType": "uint256",
					"name": "iron",
					"type": "uint256"
				}
			],
			"stateMutability": "view",
			"type": "function"
		},
		{
			"inputs": [],
			"name": "baseDefensiveSoldierCost",
			"outputs": [
				{
					"internalType": "uint256",
					"name": "food",
					"type": "uint256"
				},
				{
					"internalType": "uint256",
					"name": "wood",
					"type": "uint256"
				},
				{
					"internalType": "uint256",
					"name": "stone",
					"type": "uint256"
				},
				{
					"internalType": "uint256",
					"name": "iron",
					"type": "uint256"
				}
			],
			"stateMutability": "view",
			"type": "function"
		},
		{
			"inputs": [],
			"name": "baseDefensiveWeaponCost",
			"outputs": [
				{
					"internalType": "uint256",
					"name": "food",
					"type": "uint256"
				},
				{
					"internalType": "uint256",
					"name": "wood",
					"type": "uint256"
				},
				{
					"internalType": "uint256",
					"name": "stone",
					"type": "uint256"
				},
				{
					"internalType": "uint256",
					"name": "iron",
					"type": "uint256"
				}
			],
			"stateMutability": "view",
			"type": "function"
		},
		{
			"inputs": [],
			"name": "baseOffensiveArmorCost",
			"outputs": [
				{
					"internalType": "uint256",
					"name": "food",
					"type": "uint256"
				},
				{
					"internalType": "uint256",
					"name": "wood",
					"type": "uint256"
				},
				{
					"internalType": "uint256",
					"name": "stone",
					"type": "uint256"
				},
				{
					"internalType": "uint256",
					"name": "iron",
					"type": "uint256"
				}
			],
			"stateMutability": "view",
			"type": "function"
		},
		{
			"inputs": [],
			"name": "baseOffensiveSoldierCost",
			"outputs": [
				{
					"internalType": "uint256",
					"name": "food",
					"type": "uint256"
				},
				{
					"internalType": "uint256",
					"name": "wood",
					"type": "uint256"
				},
				{
					"internalType": "uint256",
					"name": "stone",
					"type": "uint256"
				},
				{
					"internalType": "uint256",
					"name": "iron",
					"type": "uint256"
				}
			],
			"stateMutability": "view",
			"type": "function"
		},
		{
			"inputs": [],
			"name": "baseOffensiveWeaponCost",
			"outputs": [
				{
					"internalType": "uint256",
					"name": "food",
					"type": "uint256"
				},
				{
					"internalType": "uint256",
					"name": "wood",
					"type": "uint256"
				},
				{
					"internalType": "uint256",
					"name": "stone",
					"type": "uint256"
				},
				{
					"internalType": "uint256",
					"name": "iron",
					"type": "uint256"
				}
			],
			"stateMutability": "view",
			"type": "function"
		},
		{
			"inputs": [
				{
					"internalType": "uint8",
					"name": "",
					"type": "uint8"
				}
			],
			"name": "buildingCosts",
			"outputs": [
				{
					"internalType": "uint256",
					"name": "food",
					"type": "uint256"
				},
				{
					"internalType": "uint256",
					"name": "wood",
					"type": "uint256"
				},
				{
					"internalType": "uint256",
					"name": "stone",
					"type": "uint256"
				},
				{
					"internalType": "uint256",
					"name": "iron",
					"type": "uint256"
				}
			],
			"stateMutability": "view",
			"type": "function"
		},
		{
			"inputs": [
				{
					"internalType": "uint8",
					"name": "mainX",
					"type": "uint8"
				},
				{
					"internalType": "uint8",
					"name": "mainY",
					"type": "uint8"
				}
			],
			"name": "calcTurn",
			"outputs": [],
			"stateMutability": "nonpayable",
			"type": "function"
		},
		{
			"inputs": [
				{
					"internalType": "uint8",
					"name": "mainX",
					"type": "uint8"
				},
				{
					"internalType": "uint8",
					"name": "mainY",
					"type": "uint8"
				},
				{
					"internalType": "uint8",
					"name": "soldierType",
					"type": "uint8"
				},
				{
					"internalType": "uint256",
					"name": "quantity",
					"type": "uint256"
				}
			],
			"name": "createSoldier",
			"outputs": [],
			"stateMutability": "nonpayable",
			"type": "function"
		},
		{
			"inputs": [
				{
					"internalType": "uint8",
					"name": "mainX",
					"type": "uint8"
				},
				{
					"internalType": "uint8",
					"name": "mainY",
					"type": "uint8"
				},
				{
					"internalType": "uint8",
					"name": "interiorX",
					"type": "uint8"
				},
				{
					"internalType": "uint8",
					"name": "interiorY",
					"type": "uint8"
				}
			],
			"name": "demolishBuilding",
			"outputs": [],
			"stateMutability": "nonpayable",
			"type": "function"
		},
		{
			"inputs": [],
			"name": "extraFeeRecipient",
			"outputs": [
				{
					"internalType": "address",
					"name": "",
					"type": "address"
				}
			],
			"stateMutability": "view",
			"type": "function"
		},
		{
			"inputs": [
				{
					"internalType": "uint8",
					"name": "mainX",
					"type": "uint8"
				},
				{
					"internalType": "uint8",
					"name": "mainY",
					"type": "uint8"
				}
			],
			"name": "getAllBuildings",
			"outputs": [
				{
					"internalType": "uint8[9][9]",
					"name": "",
					"type": "uint8[9][9]"
				}
			],
			"stateMutability": "view",
			"type": "function"
		},
		{
			"inputs": [
				{
					"internalType": "uint8",
					"name": "x",
					"type": "uint8"
				},
				{
					"internalType": "uint8",
					"name": "y",
					"type": "uint8"
				}
			],
			"name": "getTileData",
			"outputs": [
				{
					"components": [
						{
							"internalType": "uint256",
							"name": "food",
							"type": "uint256"
						},
						{
							"internalType": "uint256",
							"name": "wood",
							"type": "uint256"
						},
						{
							"internalType": "uint256",
							"name": "stone",
							"type": "uint256"
						},
						{
							"internalType": "uint256",
							"name": "iron",
							"type": "uint256"
						},
						{
							"internalType": "uint16",
							"name": "level",
							"type": "uint16"
						},
						{
							"internalType": "uint256",
							"name": "accumulatedTurns",
							"type": "uint256"
						},
						{
							"internalType": "uint256",
							"name": "offensiveArmor",
							"type": "uint256"
						},
						{
							"internalType": "uint256",
							"name": "defensiveArmor",
							"type": "uint256"
						},
						{
							"internalType": "uint256",
							"name": "offensiveWeapon",
							"type": "uint256"
						},
						{
							"internalType": "uint256",
							"name": "defensiveWeapon",
							"type": "uint256"
						},
						{
							"internalType": "uint256",
							"name": "offensiveSoldier",
							"type": "uint256"
						},
						{
							"internalType": "uint256",
							"name": "defensiveSoldier",
							"type": "uint256"
						},
						{
							"internalType": "uint8",
							"name": "offensiveTech",
							"type": "uint8"
						},
						{
							"internalType": "uint8",
							"name": "defensiveTech",
							"type": "uint8"
						},
						{
							"internalType": "uint256",
							"name": "points",
							"type": "uint256"
						}
					],
					"internalType": "struct TheLand.TileDataResponse",
					"name": "",
					"type": "tuple"
				}
			],
			"stateMutability": "view",
			"type": "function"
		},
		{
			"inputs": [
				{
					"internalType": "uint8",
					"name": "x",
					"type": "uint8"
				},
				{
					"internalType": "uint8",
					"name": "y",
					"type": "uint8"
				}
			],
			"name": "getTotalTurnsUsedByTile",
			"outputs": [
				{
					"internalType": "uint256",
					"name": "",
					"type": "uint256"
				}
			],
			"stateMutability": "view",
			"type": "function"
		},
		{
			"inputs": [
				{
					"internalType": "uint8",
					"name": "mainX",
					"type": "uint8"
				},
				{
					"internalType": "uint8",
					"name": "mainY",
					"type": "uint8"
				}
			],
			"name": "getTowerCount",
			"outputs": [
				{
					"internalType": "uint256",
					"name": "",
					"type": "uint256"
				}
			],
			"stateMutability": "view",
			"type": "function"
		},
		{
			"inputs": [
				{
					"internalType": "uint8",
					"name": "mainX",
					"type": "uint8"
				},
				{
					"internalType": "uint8",
					"name": "mainY",
					"type": "uint8"
				}
			],
			"name": "getTurn",
			"outputs": [
				{
					"internalType": "uint256",
					"name": "",
					"type": "uint256"
				}
			],
			"stateMutability": "view",
			"type": "function"
		},
		{
			"inputs": [
				{
					"internalType": "address",
					"name": "",
					"type": "address"
				}
			],
			"name": "hasClanHall",
			"outputs": [
				{
					"internalType": "bool",
					"name": "",
					"type": "bool"
				}
			],
			"stateMutability": "view",
			"type": "function"
		},
		{
			"inputs": [
				{
					"internalType": "address",
					"name": "",
					"type": "address"
				}
			],
			"name": "hasMarket",
			"outputs": [
				{
					"internalType": "bool",
					"name": "",
					"type": "bool"
				}
			],
			"stateMutability": "view",
			"type": "function"
		},
		{
			"inputs": [],
			"name": "interiorMapSize",
			"outputs": [
				{
					"internalType": "uint8",
					"name": "",
					"type": "uint8"
				}
			],
			"stateMutability": "view",
			"type": "function"
		},
		{
			"inputs": [
				{
					"internalType": "uint8",
					"name": "",
					"type": "uint8"
				},
				{
					"internalType": "uint8",
					"name": "",
					"type": "uint8"
				},
				{
					"internalType": "uint8",
					"name": "",
					"type": "uint8"
				},
				{
					"internalType": "uint8",
					"name": "",
					"type": "uint8"
				}
			],
			"name": "interiorMaps",
			"outputs": [
				{
					"internalType": "uint8",
					"name": "",
					"type": "uint8"
				}
			],
			"stateMutability": "view",
			"type": "function"
		},
		{
			"inputs": [],
			"name": "lopToken",
			"outputs": [
				{
					"internalType": "contract IHarmLop",
					"name": "",
					"type": "address"
				}
			],
			"stateMutability": "view",
			"type": "function"
		},
		{
			"inputs": [],
			"name": "marketplaceAddress",
			"outputs": [
				{
					"internalType": "address",
					"name": "",
					"type": "address"
				}
			],
			"stateMutability": "view",
			"type": "function"
		},
		{
			"inputs": [],
			"name": "owner",
			"outputs": [
				{
					"internalType": "address",
					"name": "",
					"type": "address"
				}
			],
			"stateMutability": "view",
			"type": "function"
		},
		{
			"inputs": [
				{
					"internalType": "uint8",
					"name": "mainX",
					"type": "uint8"
				},
				{
					"internalType": "uint8",
					"name": "mainY",
					"type": "uint8"
				},
				{
					"internalType": "uint8",
					"name": "interiorX",
					"type": "uint8"
				},
				{
					"internalType": "uint8",
					"name": "interiorY",
					"type": "uint8"
				},
				{
					"internalType": "uint8",
					"name": "buildingType",
					"type": "uint8"
				}
			],
			"name": "placeBuilding",
			"outputs": [],
			"stateMutability": "nonpayable",
			"type": "function"
		},
		{
			"inputs": [
				{
					"internalType": "uint8",
					"name": "",
					"type": "uint8"
				},
				{
					"internalType": "uint8",
					"name": "",
					"type": "uint8"
				}
			],
			"name": "pointsByCoords",
			"outputs": [
				{
					"internalType": "uint256",
					"name": "",
					"type": "uint256"
				}
			],
			"stateMutability": "view",
			"type": "function"
		},
		{
			"inputs": [
				{
					"internalType": "uint8",
					"name": "mainX",
					"type": "uint8"
				},
				{
					"internalType": "uint8",
					"name": "mainY",
					"type": "uint8"
				},
				{
					"internalType": "uint8",
					"name": "armorType",
					"type": "uint8"
				},
				{
					"internalType": "uint256",
					"name": "quantity",
					"type": "uint256"
				}
			],
			"name": "produceArmor",
			"outputs": [],
			"stateMutability": "nonpayable",
			"type": "function"
		},
		{
			"inputs": [
				{
					"internalType": "uint8",
					"name": "mainX",
					"type": "uint8"
				},
				{
					"internalType": "uint8",
					"name": "mainY",
					"type": "uint8"
				},
				{
					"internalType": "uint8",
					"name": "weaponType",
					"type": "uint8"
				},
				{
					"internalType": "uint256",
					"name": "quantity",
					"type": "uint256"
				}
			],
			"name": "produceWeapon",
			"outputs": [],
			"stateMutability": "nonpayable",
			"type": "function"
		},
		{
			"inputs": [
				{
					"internalType": "uint8",
					"name": "x",
					"type": "uint8"
				},
				{
					"internalType": "uint8",
					"name": "y",
					"type": "uint8"
				}
			],
			"name": "recalculatePointsAfterAttack",
			"outputs": [],
			"stateMutability": "nonpayable",
			"type": "function"
		},
		{
			"inputs": [
				{
					"internalType": "uint8",
					"name": "",
					"type": "uint8"
				},
				{
					"internalType": "uint8",
					"name": "",
					"type": "uint8"
				}
			],
			"name": "resourceMessage",
			"outputs": [
				{
					"internalType": "bool",
					"name": "",
					"type": "bool"
				}
			],
			"stateMutability": "view",
			"type": "function"
		},
		{
			"inputs": [],
			"name": "rewardUnit",
			"outputs": [
				{
					"internalType": "uint256",
					"name": "",
					"type": "uint256"
				}
			],
			"stateMutability": "view",
			"type": "function"
		},
		{
			"inputs": [],
			"name": "rewardsStart",
			"outputs": [
				{
					"internalType": "uint256",
					"name": "",
					"type": "uint256"
				}
			],
			"stateMutability": "view",
			"type": "function"
		},
		{
			"inputs": [
				{
					"internalType": "address",
					"name": "_clanAddress",
					"type": "address"
				}
			],
			"name": "setClanAddress",
			"outputs": [],
			"stateMutability": "nonpayable",
			"type": "function"
		},
		{
			"inputs": [
				{
					"internalType": "address",
					"name": "_address",
					"type": "address"
				}
			],
			"name": "setExtraFeeReceiver",
			"outputs": [],
			"stateMutability": "nonpayable",
			"type": "function"
		},
		{
			"inputs": [
				{
					"internalType": "address",
					"name": "_market",
					"type": "address"
				}
			],
			"name": "setMarketAddress",
			"outputs": [],
			"stateMutability": "nonpayable",
			"type": "function"
		},
		{
			"inputs": [
				{
					"internalType": "uint8",
					"name": "x",
					"type": "uint8"
				},
				{
					"internalType": "uint8",
					"name": "y",
					"type": "uint8"
				},
				{
					"internalType": "bool",
					"name": "value",
					"type": "bool"
				}
			],
			"name": "setResourceMessageFlag",
			"outputs": [],
			"stateMutability": "nonpayable",
			"type": "function"
		},
		{
			"inputs": [],
			"name": "tileMapPhaser",
			"outputs": [
				{
					"internalType": "contract ITileMapPhaser",
					"name": "",
					"type": "address"
				}
			],
			"stateMutability": "view",
			"type": "function"
		},
		{
			"inputs": [
				{
					"internalType": "uint8",
					"name": "",
					"type": "uint8"
				},
				{
					"internalType": "uint8",
					"name": "",
					"type": "uint8"
				}
			],
			"name": "tiles",
			"outputs": [
				{
					"components": [
						{
							"internalType": "uint256",
							"name": "food",
							"type": "uint256"
						},
						{
							"internalType": "uint256",
							"name": "wood",
							"type": "uint256"
						},
						{
							"internalType": "uint256",
							"name": "stone",
							"type": "uint256"
						},
						{
							"internalType": "uint256",
							"name": "iron",
							"type": "uint256"
						}
					],
					"internalType": "struct TheLand.Resources",
					"name": "resources",
					"type": "tuple"
				},
				{
					"internalType": "uint16",
					"name": "level",
					"type": "uint16"
				},
				{
					"internalType": "uint256",
					"name": "accumulatedTurns",
					"type": "uint256"
				},
				{
					"internalType": "uint16",
					"name": "turns",
					"type": "uint16"
				},
				{
					"internalType": "uint256",
					"name": "start",
					"type": "uint256"
				},
				{
					"components": [
						{
							"internalType": "uint256",
							"name": "offensiveArmor",
							"type": "uint256"
						},
						{
							"internalType": "uint256",
							"name": "defensiveArmor",
							"type": "uint256"
						},
						{
							"internalType": "uint256",
							"name": "offensiveWeapon",
							"type": "uint256"
						},
						{
							"internalType": "uint256",
							"name": "defensiveWeapon",
							"type": "uint256"
						},
						{
							"internalType": "uint256",
							"name": "offensiveSoldier",
							"type": "uint256"
						},
						{
							"internalType": "uint256",
							"name": "defensiveSoldier",
							"type": "uint256"
						}
					],
					"internalType": "struct TheLand.Military",
					"name": "military",
					"type": "tuple"
				},
				{
					"components": [
						{
							"internalType": "uint8",
							"name": "offensiveTech",
							"type": "uint8"
						},
						{
							"internalType": "uint8",
							"name": "defensiveTech",
							"type": "uint8"
						}
					],
					"internalType": "struct TheLand.TechLevels",
					"name": "techLevels",
					"type": "tuple"
				},
				{
					"internalType": "uint256",
					"name": "points",
					"type": "uint256"
				}
			],
			"stateMutability": "view",
			"type": "function"
		},
		{
			"inputs": [
				{
					"internalType": "uint8",
					"name": "",
					"type": "uint8"
				},
				{
					"internalType": "uint8",
					"name": "",
					"type": "uint8"
				}
			],
			"name": "totalTurnsUsedByTile",
			"outputs": [
				{
					"internalType": "uint256",
					"name": "",
					"type": "uint256"
				}
			],
			"stateMutability": "view",
			"type": "function"
		},
		{
			"inputs": [],
			"name": "turnFeeWei",
			"outputs": [
				{
					"internalType": "uint256",
					"name": "",
					"type": "uint256"
				}
			],
			"stateMutability": "view",
			"type": "function"
		},
		{
			"inputs": [],
			"name": "turnsPerLevel",
			"outputs": [
				{
					"internalType": "uint256",
					"name": "",
					"type": "uint256"
				}
			],
			"stateMutability": "view",
			"type": "function"
		},
		{
			"inputs": [
				{
					"internalType": "uint8",
					"name": "x",
					"type": "uint8"
				},
				{
					"internalType": "uint8",
					"name": "y",
					"type": "uint8"
				},
				{
					"internalType": "uint8",
					"name": "techType",
					"type": "uint8"
				}
			],
			"name": "upgradeTech",
			"outputs": [],
			"stateMutability": "nonpayable",
			"type": "function"
		},
		{
			"inputs": [
				{
					"internalType": "uint16",
					"name": "turns",
					"type": "uint16"
				},
				{
					"internalType": "uint8",
					"name": "x",
					"type": "uint8"
				},
				{
					"internalType": "uint8",
					"name": "y",
					"type": "uint8"
				}
			],
			"name": "useTurns",
			"outputs": [],
			"stateMutability": "payable",
			"type": "function"
		}
	]
}