{
	"data": {
		"bytecode": {
			"linkReferences": {},
			"object": "67016345785d8a0000600455620f42406005556078608081905260a0819052606460c081905260b460e08190526011839055601283905560138290556014819055609661010081905261012081905261014083905261019061016081905260158290556016829055601784905560188190556101808590526101a08390526101c084905261012c6101e0819052601995909555601a92909255601b839055601c9390935561020083905260c861022081905261024083905260fa610260819052601d859055601e829055601f8490556020556102808290526102a08190526102c08490526102e083905260218290556022819055602384905560248390556103806040526103008290526103208190526103408490526103608390526025919091556026556027919091556028553480156200013a57600080fd5b5060405162005db238038062005db28339810160408190526200015d91620007c9565b6001600055600280546001600160a01b0319166001600160a01b0385161790556200076a60408051608080820183526104d8808352610c8060208085019182526105a0858701908152610370606080880182815260016000908152602b80875299517ffcc3d43705633578a5e8f1b6d6f38d08eb8cb891174edcc94b1a54972a1aebbd5595517ffcc3d43705633578a5e8f1b6d6f38d08eb8cb891174edcc94b1a54972a1aebbe5592517ffcc3d43705633578a5e8f1b6d6f38d08eb8cb891174edcc94b1a54972a1aebbf5591517ffcc3d43705633578a5e8f1b6d6f38d08eb8cb891174edcc94b1a54972a1aebc05587518087018952610514808252610bb8828601908152828b01918252610384838601908152600288528a875292517fbd6c10e6ce287735500a1c033be76c57d5e632addc2ff6eff6bb587b8ee0d95c55517fbd6c10e6ce287735500a1c033be76c57d5e632addc2ff6eff6bb587b8ee0d95d55517fbd6c10e6ce287735500a1c033be76c57d5e632addc2ff6eff6bb587b8ee0d95e55517fbd6c10e6ce287735500a1c033be76c57d5e632addc2ff6eff6bb587b8ee0d95f55875180870189526106e081526110688185019081526107a8828b01908152610528838601908152600388528a875292517fd3904653c5d0f9b122879aa13f7287465a10522aedd588dbbd607cf6f8b2147f5590517fd3904653c5d0f9b122879aa13f7287465a10522aedd588dbbd607cf6f8b2148055517fd3904653c5d0f9b122879aa13f7287465a10522aedd588dbbd607cf6f8b2148155517fd3904653c5d0f9b122879aa13f7287465a10522aedd588dbbd607cf6f8b214825587518087018952858152610af0818501908152818a019687526103ac8285019081526004875289865291517f8bd115fc6ec81ad72d5ca8a8b3bd3d0177f1b615af6ad35644a4e24a7bed08bc55517f8bd115fc6ec81ad72d5ca8a8b3bd3d0177f1b615af6ad35644a4e24a7bed08bd5594517f8bd115fc6ec81ad72d5ca8a8b3bd3d0177f1b615af6ad35644a4e24a7bed08be5593517f8bd115fc6ec81ad72d5ca8a8b3bd3d0177f1b615af6ad35644a4e24a7bed08bf558651808601885261019081526104108184019081526101c2828a0190815260e68385019081526005875289865292517f4b5b933abde5416303ae4347d7fcdf5a17e8022e0fefc2b31c7609ebd3c32fe95590517f4b5b933abde5416303ae4347d7fcdf5a17e8022e0fefc2b31c7609ebd3c32fea55517f4b5b933abde5416303ae4347d7fcdf5a17e8022e0fefc2b31c7609ebd3c32feb55517f4b5b933abde5416303ae4347d7fcdf5a17e8022e0fefc2b31c7609ebd3c32fec55865180860188526105b4808252610c30828501908152828a019182528284019687526006865288855291517f5ac1f6ea00ad8b0f699e3a293cc93d6fdaf7ee608fbc40ffef54db3fb7ebb9435590517f5ac1f6ea00ad8b0f699e3a293cc93d6fdaf7ee608fbc40ffef54db3fb7ebb94455517f5ac1f6ea00ad8b0f699e3a293cc93d6fdaf7ee608fbc40ffef54db3fb7ebb9455592517f5ac1f6ea00ad8b0f699e3a293cc93d6fdaf7ee608fbc40ffef54db3fb7ebb9465585518085018752610adc8152611900818301908152612fa88289019081526109248387019081526007865288855292517f455b6dea826802a5b6200d61a7810fccbd36f05c878743e3ac0e0e7aff3a46e85590517f455b6dea826802a5b6200d61a7810fccbd36f05c878743e3ac0e0e7aff3a46e955517f455b6dea826802a5b6200d61a7810fccbd36f05c878743e3ac0e0e7aff3a46ea55517f455b6dea826802a5b6200d61a7810fccbd36f05c878743e3ac0e0e7aff3a46eb55855193840186526106908452610e6084820190815261075896850196875261055093850193845260089092529390935290517fb145d60eaadb8dbd7aeb92dc4e0faae9b4a8d9eacc51e2fdf2d1eda28a5001f95590517fb145d60eaadb8dbd7aeb92dc4e0faae9b4a8d9eacc51e2fdf2d1eda28a5001fa5590517fb145d60eaadb8dbd7aeb92dc4e0faae9b4a8d9eacc51e2fdf2d1eda28a5001fb55517fb145d60eaadb8dbd7aeb92dc4e0faae9b4a8d9eacc51e2fdf2d1eda28a5001fc55565b600d80546001600160a01b03199081163317909155600180546001600160a01b0394851690831617905542600655601080549290931691161790555062000813565b80516001600160a01b0381168114620007c457600080fd5b919050565b600080600060608486031215620007df57600080fd5b620007ea84620007ac565b9250620007fa60208501620007ac565b91506200080a60408501620007ac565b90509250925092565b61558f80620008236000396000f3fe6080604052600436106103605760003560e01c80637659bc60116101c6578063c14448cd116100f7578063decc1bbf11610095578063f32452541161006f578063f324525414610b84578063f89d757114610ba4578063f9c6445414610bc4578063fae9261214610be757600080fd5b8063decc1bbf14610b1a578063e9d60a1014610b41578063e9dd658314610b7157600080fd5b8063d836d447116100d1578063d836d44714610a3b578063daa17f4914610ac4578063dd4b466b14610ae4578063de8ca33a14610b0457600080fd5b8063c14448cd146109a9578063c1712d57146109be578063ccd5e49114610a0057600080fd5b80639a4a208411610164578063bc4462de1161013e578063bc4462de14610919578063bd63837814610939578063bdc7da8e14610966578063be9a263c1461097c57600080fd5b80639a4a2084146108975780639c54e471146108b7578063a596b645146108f657600080fd5b8063887aca72116101a0578063887aca72146107fc5780638c87fa4f146108345780638da5cb5b1461085757806397cefc4c1461087757600080fd5b80637659bc60146107995780637cca26d9146107b9578063800bfa27146107d957600080fd5b80634173f9e9116102a0578063537e8f491161023e57806360b76b521161021857806360b76b5214610720578063620a9a991461074057806365af3a2f146107635780637502bad41461077957600080fd5b8063537e8f49146106a8578063562aafb6146106eb5780635d219d5f1461070057600080fd5b8063428967da1161027a578063428967da1461061e57806342eaa7c8146106345780634855735c146106495780634f264b031461068857600080fd5b80634173f9e91461057b57806341ede44f146105be5780634274b164146105fe57600080fd5b80631acc55ea1161030d5780632ef78865116102e75780632ef78865146104c857806333b95ee014610500578063351662e41461053b5780633e5f28571461055b57600080fd5b80631acc55ea1461046457806321b74ea7146104845780632a490ae8146104a857600080fd5b80630df7b41a1161033e5780630df7b41a1461040f5780630ee22f311461042f57806315e91b481461044f57600080fd5b806302cd77e61461036557806307722bc2146103b55780630d67f59e146103d7575b600080fd5b34801561037157600080fd5b506103a0610380366004614e69565b600a60209081526000928352604080842090915290825290205460ff1681565b60405190151581526020015b60405180910390f35b3480156103c157600080fd5b506103d56103d0366004614ea2565b610c07565b005b3480156103e357600080fd5b506001546103f7906001600160a01b031681565b6040516001600160a01b0390911681526020016103ac565b34801561041b57600080fd5b506103d561042a366004614f08565b610ebb565b34801561043b57600080fd5b506103d561044a366004614f2c565b610fa5565b34801561045b57600080fd5b506103d5611600565b34801561047057600080fd5b506103a061047f366004614e69565b61186e565b34801561049057600080fd5b5061049a60045481565b6040519081526020016103ac565b3480156104b457600080fd5b5061049a6104c3366004614e69565b611897565b3480156104d457600080fd5b5061049a6104e3366004614e69565b600b60209081526000928352604080842090915290825290205481565b34801561050c57600080fd5b506103a061051b366004614e69565b600960209081526000928352604080842090915290825290205460ff1681565b34801561054757600080fd5b506103d5610556366004614f9d565b61199d565b34801561056757600080fd5b506103d5610576366004614ff6565b611e9d565b34801561058757600080fd5b5061049a610596366004614e69565b60ff918216600090815260296020908152604080832093909416825291909152206007015490565b3480156105ca57600080fd5b5061049a6105d9366004614e69565b60ff918216600090815260086020908152604080832093909416825291909152205490565b34801561060a57600080fd5b506103d5610619366004614ea2565b61258c565b34801561062a57600080fd5b5061049a60055481565b34801561064057600080fd5b5061049a612816565b34801561065557600080fd5b506103a0610664366004614e69565b60ff9182166000908152600a60209081526040808320938516835292905220541690565b34801561069457600080fd5b506002546103f7906001600160a01b031681565b3480156106b457600080fd5b50601d54601e54601f546020546106cb9392919084565b6040805194855260208501939093529183015260608201526080016103ac565b3480156106f757600080fd5b506103d56128a1565b34801561070c57600080fd5b506103d561071b366004614f08565b612992565b34801561072c57600080fd5b506103d561073b366004615050565b612a7c565b34801561074c57600080fd5b506011546012546013546014546106cb9392919084565b34801561076f57600080fd5b5061049a60065481565b34801561078557600080fd5b50600f546103f7906001600160a01b031681565b3480156107a557600080fd5b506103d56107b4366004614e69565b612d7e565b3480156107c557600080fd5b506003546103f7906001600160a01b031681565b3480156107e557600080fd5b50601954601a54601b54601c546106cb9392919084565b34801561080857600080fd5b5061049a610817366004614e69565b600860209081526000928352604080842090915290825290205481565b34801561084057600080fd5b506015546016546017546018546106cb9392919084565b34801561086357600080fd5b50600d546103f7906001600160a01b031681565b34801561088357600080fd5b506103d56108923660046150ac565b612e19565b3480156108a357600080fd5b506103d56108b23660046150c9565b612ea8565b3480156108c357600080fd5b506103a06108d2366004614e69565b60ff9182166000908152600c60209081526040808320938516835292905220541690565b34801561090257600080fd5b506021546022546023546024546106cb9392919084565b34801561092557600080fd5b506010546103f7906001600160a01b031681565b34801561094557600080fd5b50610959610954366004614e69565b612f41565b6040516103ac9190615109565b34801561097257600080fd5b5061049a6103e881565b34801561098857600080fd5b5061099c610997366004614e69565b61318b565b6040516103ac91906151c7565b3480156109b557600080fd5b506103d5613315565b3480156109ca57600080fd5b506106cb6109d936600461522c565b602b6020526000908152604090208054600182015460028301546003909301549192909184565b348015610a0c57600080fd5b506103a0610a1b366004614e69565b600c60209081526000928352604080842090915290825290205460ff1681565b348015610a4757600080fd5b50610aa5610a56366004614e69565b6040805180820182526000808252602091820181905260ff948516815260298252828120939094168452918252918290208251808401909352600481015461ffff168352600f01549082015290565b60408051825161ffff16815260209283015192810192909252016103ac565b348015610ad057600080fd5b50600e546103f7906001600160a01b031681565b348015610af057600080fd5b506103d5610aff366004614e69565b6133ef565b348015610b1057600080fd5b5061049a60075481565b348015610b2657600080fd5b50610b2f600981565b60405160ff90911681526020016103ac565b348015610b4d57600080fd5b5060105474010000000000000000000000000000000000000000900460ff166103a0565b6103d5610b7f366004615249565b6134c4565b348015610b9057600080fd5b5061049a610b9f366004614e69565b613d1d565b348015610bb057600080fd5b506103d5610bbf366004614ea2565b613ec6565b348015610bd057600080fd5b506025546026546027546028546106cb9392919084565b348015610bf357600080fd5b506103d5610c02366004614f08565b61430b565b610c0f6143f5565b600254604051638a88895360e01b815260ff8087166004830152851660248201528591859133916001600160a01b031690638a88895390604401602060405180830381865afa158015610c66573d6000803e3d6000fd5b505050506040513d601f19601f82011682018060405250810190610c8a9190615270565b6001600160a01b031614610ccb5760405162461bcd60e51b815260206004820152600360248201526237bbb760e91b60448201526064015b60405180910390fd5b600083118015610cdd57506103e88311155b610d295760405162461bcd60e51b815260206004820152601060248201527f496e76616c6964207175616e74697479000000000000000000000000000000006044820152606401610cc2565b8360ff1660011480610d3e57508360ff166002145b610d6e5760405162461bcd60e51b81526020600482015260016024820152601d60fa1b6044820152606401610cc2565b6000610d7c8787600161444e565b905060008111610dce5760405162461bcd60e51b815260206004820152600160248201527f61000000000000000000000000000000000000000000000000000000000000006044820152606401610cc2565b60008560ff16600114610de2576015610de5565b60115b60408051608081018252825481526001830154602082015260028301549181019190915260039091015460608201529050610e2388888388866144e9565b8560ff16600103610e6d5760ff8089166000908152602960209081526040808320938b1683529290529081206008018054879290610e629084906152bc565b90915550610ea79050565b60ff8089166000908152602960209081526040808320938b1683529290529081206009018054879290610ea19084906152bc565b90915550505b50505050610eb56001600055565b50505050565b600d546001600160a01b03163314610eff576040517f30cd747100000000000000000000000000000000000000000000000000000000815260040160405180910390fd5b6010547501000000000000000000000000000000000000000000900460ff1615610f6b5760405162461bcd60e51b815260206004820152600560248201527f6b696c69740000000000000000000000000000000000000000000000000000006044820152606401610cc2565b600f80547fffffffffffffffffffffffff0000000000000000000000000000000000000000166001600160a01b0392909216919091179055565b610fad6143f5565b600254604051638a88895360e01b815260ff8088166004830152861660248201528691869133916001600160a01b031690638a88895390604401602060405180830381865afa158015611004573d6000803e3d6000fd5b505050506040513d601f19601f820116820180604052508101906110289190615270565b6001600160a01b0316146110645760405162461bcd60e51b815260206004820152600360248201526237bbb760e91b6044820152606401610cc2565b8484600960ff831610801561107c5750600960ff8216105b6110c85760405162461bcd60e51b815260206004820152600560248201527f636f6f72640000000000000000000000000000000000000000000000000000006044820152606401610cc2565b6110d185614758565b611107576040517fb44d49e600000000000000000000000000000000000000000000000000000000815260040160405180910390fd5b8660ff16600414801561111d57508560ff166004145b1561116a5760405162461bcd60e51b815260206004820152600160248201527f63000000000000000000000000000000000000000000000000000000000000006044820152606401610cc2565b60ff808a166000908152602a602090815260408083208c8516845282528083208b8516845282528083208a851684529091529020541680156111ee5760405162461bcd60e51b815260206004820152600160248201527f65000000000000000000000000000000000000000000000000000000000000006044820152606401610cc2565b8560ff16600303611281576112058a8a600361444e565b156112525760405162461bcd60e51b815260206004820152600160248201527f63000000000000000000000000000000000000000000000000000000000000006044820152606401610cc2565b60ff808b166000908152600960209081526040808320938d16835292905220805460ff19166001179055611310565b8560ff16600603611310576112988a8a600661444e565b156112e55760405162461bcd60e51b815260206004820152600160248201527f6d000000000000000000000000000000000000000000000000000000000000006044820152606401610cc2565b60ff808b166000908152600a60209081526040808320938d16835292905220805460ff191660011790555b60ff86166000908152602b6020908152604091829020825160808101845281548082526001830154938201849052600283015494820185905260039092015460608201819052909392909117909117176113ae5760405162461bcd60e51b8152600401610cc29060208082526004908201527f6672656500000000000000000000000000000000000000000000000000000000604082015260600190565b60ff808c166000908152602960209081526040808320938e1683529290522081518154101561141f5760405162461bcd60e51b815260206004820152600160248201527f66000000000000000000000000000000000000000000000000000000000000006044820152606401610cc2565b6020820151600182015410156114775760405162461bcd60e51b815260206004820152600160248201527f77000000000000000000000000000000000000000000000000000000000000006044820152606401610cc2565b6040820151600282015410156114cf5760405162461bcd60e51b815260206004820152600160248201527f73000000000000000000000000000000000000000000000000000000000000006044820152606401610cc2565b6060820151600382015410156115275760405162461bcd60e51b815260206004820152600160248201527f69000000000000000000000000000000000000000000000000000000000000006044820152606401610cc2565b81518154829060009061153b9084906152cf565b909155505060208201516001820180546000906115599084906152cf565b909155505060408201516002820180546000906115779084906152cf565b909155505060608201516003820180546000906115959084906152cf565b909155505060ff8c81166000908152602a602090815260408083208f8516845282528083208e8516845282528083208d851684529091529020805460ff1916918a169190911790556115e8818d8d614776565b505050505050506115f96001600055565b5050505050565b600d546001600160a01b03163314611644576040517f30cd747100000000000000000000000000000000000000000000000000000000815260040160405180910390fd5b61164c6143f5565b6010547501000000000000000000000000000000000000000000900460ff16156116b85760405162461bcd60e51b815260206004820152600560248201527f6b696c69740000000000000000000000000000000000000000000000000000006044820152606401610cc2565b6001546040517f70a082310000000000000000000000000000000000000000000000000000000081523060048201526000916001600160a01b0316906370a0823190602401602060405180830381865afa15801561171a573d6000803e3d6000fd5b505050506040513d601f19601f8201168201806040525081019061173e91906152e2565b90508060000361177a576040517f1f2a200500000000000000000000000000000000000000000000000000000000815260040160405180910390fd5b600154600d546040517fa9059cbb0000000000000000000000000000000000000000000000000000000081526001600160a01b03918216600482015260248101849052600092919091169063a9059cbb906044016020604051808303816000875af11580156117ed573d6000803e3d6000fd5b505050506040513d601f19601f8201168201806040525081019061181191906152fb565b9050806118605760405162461bcd60e51b815260206004820152601360248201527f4c4f50207769746864726177206661696c6564000000000000000000000000006044820152606401610cc2565b505061186c6001600055565b565b60ff80831660009081526009602090815260408083208585168452909152902054165b92915050565b600254604051638a88895360e01b815260ff8085166004830152831660248201526000918491849184916001600160a01b0390911690638a88895390604401602060405180830381865afa1580156118f3573d6000803e3d6000fd5b505050506040513d601f19601f820116820180604052508101906119179190615270565b9050336001600160a01b038216148015906119505750600e546001600160a01b031615806119505750600e546001600160a01b03163314155b15611987576040517fda76f5fa00000000000000000000000000000000000000000000000000000000815260040160405180910390fd5b6119938686600761444e565b9695505050505050565b6119a56143f5565b600254604051638a88895360e01b815260ff8086166004830152841660248201528491849133916001600160a01b031690638a88895390604401602060405180830381865afa1580156119fc573d6000803e3d6000fd5b505050506040513d601f19601f82011682018060405250810190611a209190615270565b6001600160a01b031614611a5c5760405162461bcd60e51b815260206004820152600360248201526237bbb760e91b6044820152606401610cc2565b60ff808616600090815260296020908152604080832088851684529091528120918516600103611a955750600e81015461ffff16611aff565b8460ff16600203611ab55750600e81015462010000900461ffff16611aff565b60405162461bcd60e51b8152600401610cc29060208082526004908201527f7479706500000000000000000000000000000000000000000000000000000000604082015260600190565b6127108161ffff1610611b545760405162461bcd60e51b815260206004820152600160248201527f6c000000000000000000000000000000000000000000000000000000000000006044820152606401610cc2565b6000611b628888600861444e565b905060008111611bb45760405162461bcd60e51b815260206004820152600160248201527f77000000000000000000000000000000000000000000000000000000000000006044820152606401610cc2565b6000611bc1836001615318565b611bd09061ffff16600261533a565b9050600082611be083608c61533a565b611bea9190615380565b9050600083611bfa84607861533a565b611c049190615380565b9050600084611c148560b461533a565b611c1e9190615380565b9050600085611c2e86607861533a565b611c389190615380565b8854909150841115611c8c5760405162461bcd60e51b815260206004820152600160248201527f66000000000000000000000000000000000000000000000000000000000000006044820152606401610cc2565b6001880154831115611ce05760405162461bcd60e51b815260206004820152600160248201527f77000000000000000000000000000000000000000000000000000000000000006044820152606401610cc2565b6002880154821115611d345760405162461bcd60e51b815260206004820152600160248201527f73000000000000000000000000000000000000000000000000000000000000006044820152606401610cc2565b6003880154811115611d885760405162461bcd60e51b815260206004820152600160248201527f69000000000000000000000000000000000000000000000000000000000000006044820152606401610cc2565b875484908990600090611d9c9084906152cf565b9091555050600188018054849190600090611db89084906152cf565b9091555050600288018054839190600090611dd49084906152cf565b9091555050600388018054829190600090611df09084906152cf565b909155505060ff8b16600103611e3657600e8801805461ffff16906000611e1683615394565b91906101000a81548161ffff021916908361ffff16021790555050611e79565b8a60ff16600203611e7957600e8801805462010000900461ffff16906002611e5d83615394565b91906101000a81548161ffff021916908361ffff160217905550505b611e84888e8e614776565b50505050505050505050611e986001600055565b505050565b611ea56143f5565b600e546001600160a01b03163314611ee9576040517f386317a300000000000000000000000000000000000000000000000000000000815260040160405180910390fd5b81600003611f23576040517f1f2a200500000000000000000000000000000000000000000000000000000000815260040160405180910390fd5b60018360ff1610158015611f3b5750600a8360ff1611155b611f6b5760405162461bcd60e51b81526020600482015260016024820152601d60fa1b6044820152606401610cc2565b60ff80861660009081526029602090815260408083208885168452909152902090841660010361201f578115611fba57805483908290600090611faf9084906152bc565b909155506125769050565b805483111561200b5760405162461bcd60e51b815260206004820152600160248201527f66000000000000000000000000000000000000000000000000000000000000006044820152606401610cc2565b805483908290600090611faf9084906152cf565b8360ff166002036120b25781156120475782816000016001016000828254611faf91906152bc565b600181015483111561209b5760405162461bcd60e51b815260206004820152600160248201527f77000000000000000000000000000000000000000000000000000000000000006044820152606401610cc2565b82816000016001016000828254611faf91906152cf565b8360ff166003036121455781156120da5782816000016002016000828254611faf91906152bc565b600281015483111561212e5760405162461bcd60e51b815260206004820152600160248201527f73000000000000000000000000000000000000000000000000000000000000006044820152606401610cc2565b82816000016002016000828254611faf91906152cf565b8360ff166004036121d857811561216d5782816000016003016000828254611faf91906152bc565b60038101548311156121c15760405162461bcd60e51b815260206004820152600160248201527f69000000000000000000000000000000000000000000000000000000000000006044820152606401610cc2565b82816000016003016000828254611faf91906152cf565b8360ff1660050361226b5781156122005782816008016000016000828254611faf91906152bc565b60088101548311156122545760405162461bcd60e51b815260206004820152600260248201527f6f610000000000000000000000000000000000000000000000000000000000006044820152606401610cc2565b82816008016000016000828254611faf91906152cf565b8360ff166006036122fe5781156122935782816008016001016000828254611faf91906152bc565b60098101548311156122e75760405162461bcd60e51b815260206004820152600260248201527f64610000000000000000000000000000000000000000000000000000000000006044820152606401610cc2565b82816008016001016000828254611faf91906152cf565b8360ff166007036123915781156123265782816008016002016000828254611faf91906152bc565b600a81015483111561237a5760405162461bcd60e51b815260206004820152600260248201527f6f770000000000000000000000000000000000000000000000000000000000006044820152606401610cc2565b82816008016002016000828254611faf91906152cf565b8360ff166008036124245781156123b95782816008016003016000828254611faf91906152bc565b600b81015483111561240d5760405162461bcd60e51b815260206004820152600260248201527f64770000000000000000000000000000000000000000000000000000000000006044820152606401610cc2565b82816008016003016000828254611faf91906152cf565b8360ff166009036124b757811561244c5782816008016004016000828254611faf91906152bc565b600c8101548311156124a05760405162461bcd60e51b815260206004820152600260248201527f6f730000000000000000000000000000000000000000000000000000000000006044820152606401610cc2565b82816008016004016000828254611faf91906152cf565b8360ff16600a0361254a5781156124df5782816008016005016000828254611faf91906152bc565b600d8101548311156125335760405162461bcd60e51b815260206004820152600260248201527f64730000000000000000000000000000000000000000000000000000000000006044820152606401610cc2565b82816008016005016000828254611faf91906152cf565b60405162461bcd60e51b81526020600482015260016024820152601d60fa1b6044820152606401610cc2565b612581818787614776565b506115f96001600055565b6125946143f5565b600254604051638a88895360e01b815260ff8087166004830152851660248201528591859133916001600160a01b031690638a88895390604401602060405180830381865afa1580156125eb573d6000803e3d6000fd5b505050506040513d601f19601f8201168201806040525081019061260f9190615270565b6001600160a01b03161461264b5760405162461bcd60e51b815260206004820152600360248201526237bbb760e91b6044820152606401610cc2565b60008311801561265d57506103e88311155b6126a95760405162461bcd60e51b815260206004820152601060248201527f496e76616c6964207175616e74697479000000000000000000000000000000006044820152606401610cc2565b8360ff16600114806126be57508360ff166002145b6126ee5760405162461bcd60e51b81526020600482015260016024820152601d60fa1b6044820152606401610cc2565b60006126fc8787600261444e565b90506000811161274e5760405162461bcd60e51b815260206004820152600260248201527f62730000000000000000000000000000000000000000000000000000000000006044820152606401610cc2565b60008560ff1660011461276257601d612765565b60195b604080516080810182528254815260018301546020820152600283015491810191909152600390910154606082015290506127a388888388866144e9565b8560ff166001036127e25760ff8089166000908152602960209081526040808320938b168352929052908120600a018054879290610e629084906152bc565b60ff8089166000908152602960209081526040808320938b168352929052908120600b018054879290610ea19084906152bc565b6001546040517f70a082310000000000000000000000000000000000000000000000000000000081523060048201526000916001600160a01b0316906370a0823190602401602060405180830381865afa158015612878573d6000803e3d6000fd5b505050506040513d601f19601f8201168201806040525081019061289c91906152e2565b905090565b600d546001600160a01b031633146128e5576040517f30cd747100000000000000000000000000000000000000000000000000000000815260040160405180910390fd5b6010547501000000000000000000000000000000000000000000900460ff16156129515760405162461bcd60e51b815260206004820152600560248201527f6b696c69740000000000000000000000000000000000000000000000000000006044820152606401610cc2565b601080547fffffffffffffffffffffff00ffffffffffffffffffffffffffffffffffffffff1674010000000000000000000000000000000000000000179055565b600d546001600160a01b031633146129d6576040517f30cd747100000000000000000000000000000000000000000000000000000000815260040160405180910390fd5b6010547501000000000000000000000000000000000000000000900460ff1615612a425760405162461bcd60e51b815260206004820152600560248201527f6b696c69740000000000000000000000000000000000000000000000000000006044820152606401610cc2565b600380547fffffffffffffffffffffffff0000000000000000000000000000000000000000166001600160a01b0392909216919091179055565b612a846143f5565b600254604051638a88895360e01b815260ff8087166004830152851660248201528591859133916001600160a01b031690638a88895390604401602060405180830381865afa158015612adb573d6000803e3d6000fd5b505050506040513d601f19601f82011682018060405250810190612aff9190615270565b6001600160a01b031614612b3b5760405162461bcd60e51b815260206004820152600360248201526237bbb760e91b6044820152606401610cc2565b8383600960ff8316108015612b535750600960ff8216105b612b9f5760405162461bcd60e51b815260206004820152600560248201527f636f6f72640000000000000000000000000000000000000000000000000000006044820152606401610cc2565b8560ff166004148015612bb557508460ff166004145b15612c025760405162461bcd60e51b815260206004820152600160248201527f63000000000000000000000000000000000000000000000000000000000000006044820152606401610cc2565b60ff8089166000908152602a602090815260408083208b8516845282528083208a851684528252808320898516845290915281205490911690819003612c8a5760405162461bcd60e51b815260206004820152600160248201527f6e000000000000000000000000000000000000000000000000000000000000006044820152606401610cc2565b612c9381614758565b612cc9576040517fb44d49e600000000000000000000000000000000000000000000000000000000815260040160405180910390fd5b8060ff16600303612d005760ff808a166000908152600960209081526040808320938c16835292905220805460ff19169055612d33565b8060ff16600603612d335760ff808a166000908152600a60209081526040808320938c16835292905220805460ff191690555b50505060ff8087166000908152602a602090815260408083208985168452825280832088851684528252808320938716835292905220805460ff1916905550610eb590506001600055565b612d866143f5565b600e546001600160a01b03163314612de05760405162461bcd60e51b815260206004820152600160248201527f61000000000000000000000000000000000000000000000000000000000000006044820152606401610cc2565b60ff8083166000908152602960209081526040808320938516835292905220612e0a818484614776565b50612e156001600055565b5050565b6010546001600160a01b03163314612e5d576040517f3f5c695d00000000000000000000000000000000000000000000000000000000815260040160405180910390fd5b601080549115157501000000000000000000000000000000000000000000027fffffffffffffffffffff00ffffffffffffffffffffffffffffffffffffffffff909216919091179055565b612eb06143f5565b600e546001600160a01b03163314612f0a5760405162461bcd60e51b815260206004820152600160248201527f61000000000000000000000000000000000000000000000000000000000000006044820152606401610cc2565b60ff8084166000908152600c60209081526040808320938616835292905220805482151560ff19909116179055611e986001600055565b612fc6604051806101e0016040528060008152602001600081526020016000815260200160008152602001600061ffff16815260200160008152602001600081526020016000815260200160008152602001600081526020016000815260200160008152602001600061ffff168152602001600061ffff168152602001600081525090565b600254604051638a88895360e01b815260ff808616600483015284166024820152849184916000916001600160a01b031690638a88895390604401602060405180830381865afa15801561301e573d6000803e3d6000fd5b505050506040513d601f19601f820116820180604052508101906130429190615270565b9050336001600160a01b0382161480159061307b5750600e546001600160a01b0316158061307b5750600e546001600160a01b03163314155b156130b2576040517fda76f5fa00000000000000000000000000000000000000000000000000000000815260040160405180910390fd5b5050505060ff918216600090815260296020908152604080832093909416825291825282902082516101e0810184528154815260018201549281019290925260028101549282019290925260038201546060820152600482015461ffff9081166080830152600583015460a0830152600883015460c0830152600983015460e0830152600a830154610100830152600b830154610120830152600c830154610140830152600d830154610160830152600e830154808216610180840152620100009004166101a0820152600f909101546101c082015290565b613193614dec565b600254604051638a88895360e01b815260ff8086166004830152841660248201528491849133916001600160a01b031690638a88895390604401602060405180830381865afa1580156131ea573d6000803e3d6000fd5b505050506040513d601f19601f8201168201806040525081019061320e9190615270565b6001600160a01b03161461324a5760405162461bcd60e51b815260206004820152600360248201526237bbb760e91b6044820152606401610cc2565b613252614dec565b60005b600960ff821610156133095760005b600960ff821610156132f65760ff8089166000908152602a602090815260408083208b851684528252808320868516808552908352818420868616855290925290912054909116908490600981106132be576132be6153b5565b60200201518260ff16600981106132d7576132d76153b5565b60ff9092166020929092020152806132ee816153e4565b915050613264565b5080613301816153e4565b915050613255565b5092505b505092915050565b600d546001600160a01b03163314613359576040517f30cd747100000000000000000000000000000000000000000000000000000000815260040160405180910390fd5b6010547501000000000000000000000000000000000000000000900460ff16156133c55760405162461bcd60e51b815260206004820152600560248201527f6b696c69740000000000000000000000000000000000000000000000000000006044820152606401610cc2565b601080547fffffffffffffffffffffff00ffffffffffffffffffffffffffffffffffffffff169055565b6133f76143f5565b600254604051638a88895360e01b815260ff8085166004830152831660248201528391839133916001600160a01b031690638a88895390604401602060405180830381865afa15801561344e573d6000803e3d6000fd5b505050506040513d601f19601f820116820180604052508101906134729190615270565b6001600160a01b0316146134ae5760405162461bcd60e51b815260206004820152600360248201526237bbb760e91b6044820152606401610cc2565b6134b884846147d6565b5050612e156001600055565b600254604051638a88895360e01b815260ff8085166004830152831660248201528391839133916001600160a01b031690638a88895390604401602060405180830381865afa15801561351b573d6000803e3d6000fd5b505050506040513d601f19601f8201168201806040525081019061353f9190615270565b6001600160a01b03161461357b5760405162461bcd60e51b815260206004820152600360248201526237bbb760e91b6044820152606401610cc2565b6135836143f5565b60105474010000000000000000000000000000000000000000900460ff16156135ee5760405162461bcd60e51b815260206004820152600660248201527f70617573656400000000000000000000000000000000000000000000000000006044820152606401610cc2565b60008561ffff1611801561360857506102588561ffff1611155b6136545760405162461bcd60e51b815260206004820152600d60248201527f496e76616c6964207475726e73000000000000000000000000000000000000006044820152606401610cc2565b600454341461368f576040517f917f1a5300000000000000000000000000000000000000000000000000000000815260040160405180910390fd5b600f546001600160a01b03166136d1576040517fd92e233d00000000000000000000000000000000000000000000000000000000815260040160405180910390fd5b6136db84846147d6565b60ff80851660009081526029602090815260408083209387168352929052206006015461ffff808716911610156137385760405162461bcd60e51b81526020600482015260016024820152601d60fa1b6044820152606401610cc2565b60ff808516600090815260296020908152604080832093871683529290522060050154613768906103e890615403565b613774906103e86152cf565b8561ffff1611156137be5760ff8085166000908152602960209081526040808320938716835292905220600501546137af906103e890615403565b6137bb906103e86152cf565b94505b60ff8085166000908152602960209081526040808320938716835292905290812060060180548792906137f690849061ffff16615417565b825461ffff9182166101009390930a92830291909202199091161790555060ff80851660009081526029602090815260408083209387168352929052908120426007909101556138488585600561444e565b90506138556001826152bc565b6003546040517f2a2026a900000000000000000000000000000000000000000000000000000000815260ff8089166004830152871660248201529192506000916001600160a01b0390911690632a2026a990604401602060405180830381865afa1580156138c7573d6000803e3d6000fd5b505050506040513d601f19601f820116820180604052508101906138eb9190615432565b60ff80881660009081526029602090815260408083208a8516845290915290209192508216600103613942576139258361ffff8a1661533a565b815482906000906139379084906152bc565b909155506139cf9050565b8160ff1660020361396f5761395b8361ffff8a1661533a565b6001820180546000906139379084906152bc565b8160ff1660030361399c576139888361ffff8a1661533a565b6002820180546000906139379084906152bc565b8160ff166004036139cf576139b58361ffff8a1661533a565b6003820180546000906139c99084906152bc565b90915550505b6139dd8361ffff8a1661533a565b815482906000906139ef9084906152bc565b90915550613a0390508361ffff8a1661533a565b600182018054600090613a179084906152bc565b90915550613a2b90508361ffff8a1661533a565b600282018054600090613a3f9084906152bc565b90915550613a5390508361ffff8a1661533a565b600382018054600090613a679084906152bc565b925050819055508761ffff16816005016000828254613a8691906152bc565b90915550506005810154600090613aa0906103e890615380565b90506103e8826005016000828254613ab89190615403565b90915550506004820154600090613ad490839061ffff16615318565b90506101f48161ffff161115613afa5760048301805461ffff19166101f4179055613b0e565b60048301805461ffff191661ffff83161790555b613b19838a8a614776565b60ff808a166000908152600860209081526040808320938c168352929052908120805461ffff8d169290613b4e9084906152bc565b909155505060ff808a166000908152600c60209081526040808320938c16835292905220805460ff191690556040805161ffff8c16815260ff808c1660208301528a169181019190915233907fbb5b4f7847476e1912e2b57d030b0e491d0d72b2ef256cceea9daa41f40f5d189060600160405180910390a2613bd13433614894565b600080613bdc614bac565b90925090508115613cf757600081836005548f61ffff16613bfd919061533a565b613c07919061533a565b613c119190615380565b6001546040517fa9059cbb000000000000000000000000000000000000000000000000000000008152336004820152602481018390529192506000916001600160a01b039091169063a9059cbb906044016020604051808303816000875af1158015613c81573d6000803e3d6000fd5b505050506040513d601f19601f82011682018060405250810190613ca591906152fb565b905080613cf45760405162461bcd60e51b815260206004820152601a60248201527f4c4f5020726577617264207472616e73666572206661696c65640000000000006044820152606401610cc2565b50505b60078054906000613d078361544f565b9190505550505050505050506115f96001600055565b600254604051638a88895360e01b815260ff8085166004830152831660248201526000918491849133916001600160a01b0390911690638a88895390604401602060405180830381865afa158015613d79573d6000803e3d6000fd5b505050506040513d601f19601f82011682018060405250810190613d9d9190615270565b6001600160a01b031614613dd95760405162461bcd60e51b815260206004820152600360248201526237bbb760e91b6044820152606401610cc2565b60ff80861660009081526029602090815260408083209388168352929052206007015461025890613e0a90426152cf565b613e1590603c61533a565b60ff8088166000908152602960209081526040808320938a1683529290522060060154613e46919061ffff166152bc565b1115613e5657610258925061330d565b60ff808616600090815260296020908152604080832093881683529290522060070154613e8390426152cf565b613e8e90603c61533a565b60ff808716600090815260296020908152604080832093891683529290522060060154613ebf919061ffff166152bc565b925061330d565b613ece6143f5565b600254604051638a88895360e01b815260ff8087166004830152851660248201528591859133916001600160a01b031690638a88895390604401602060405180830381865afa158015613f25573d6000803e3d6000fd5b505050506040513d601f19601f82011682018060405250810190613f499190615270565b6001600160a01b031614613f855760405162461bcd60e51b815260206004820152600360248201526237bbb760e91b6044820152606401610cc2565b600083118015613f9757506103e88311155b613fe35760405162461bcd60e51b815260206004820152601060248201527f496e76616c6964207175616e74697479000000000000000000000000000000006044820152606401610cc2565b8360ff1660011480613ff857508360ff166002145b6140285760405162461bcd60e51b81526020600482015260016024820152601d60fa1b6044820152606401610cc2565b60006140368787600461444e565b9050600081116140885760405162461bcd60e51b815260206004820152600160248201527f70000000000000000000000000000000000000000000000000000000000000006044820152606401610cc2565b60008560ff1660011461409c57602561409f565b60215b604080516080810182528254815260018301546020820152600283015491810191909152600390910154606082015290506140dd88888388866144e9565b60ff80891660009081526029602090815260408083208b85168452909152902060080190871660010361420457805486111561415b5760405162461bcd60e51b815260206004820152600260248201527f6f610000000000000000000000000000000000000000000000000000000000006044820152606401610cc2565b85816002015410156141af5760405162461bcd60e51b815260206004820152600260248201527f6f770000000000000000000000000000000000000000000000000000000000006044820152606401610cc2565b858160000160008282546141c391906152cf565b92505081905550858160020160008282546141de91906152cf565b92505081905550858160040160008282546141f991906152bc565b909155506142fc9050565b85816001015410156142585760405162461bcd60e51b815260206004820152600260248201527f64610000000000000000000000000000000000000000000000000000000000006044820152606401610cc2565b85816003015410156142ac5760405162461bcd60e51b815260206004820152600260248201527f64770000000000000000000000000000000000000000000000000000000000006044820152606401610cc2565b858160010160008282546142c091906152cf565b92505081905550858160030160008282546142db91906152cf565b92505081905550858160050160008282546142f691906152bc565b90915550505b5050505050610eb56001600055565b600d546001600160a01b0316331461434f576040517f30cd747100000000000000000000000000000000000000000000000000000000815260040160405180910390fd5b6010547501000000000000000000000000000000000000000000900460ff16156143bb5760405162461bcd60e51b815260206004820152600560248201527f6b696c69740000000000000000000000000000000000000000000000000000006044820152606401610cc2565b600e80547fffffffffffffffffffffffff0000000000000000000000000000000000000000166001600160a01b0392909216919091179055565b6002600054036144475760405162461bcd60e51b815260206004820152601f60248201527f5265656e7472616e637947756172643a207265656e7472616e742063616c6c006044820152606401610cc2565b6002600055565b600080805b600960ff821610156144e05760005b600960ff821610156144cd5760ff8781166000908152602a602090815260408083208a8516845282528083208685168452825280832085851684529091529020548187169116036144bb57826144b78161544f565b9350505b806144c5816153e4565b915050614462565b50806144d8816153e4565b915050614453565b50949350505050565b60ff808616600090815260296020908152604080832093881683529290529081208451909190839061451c90869061533a565b6145269190615380565b905060008385876020015161453b919061533a565b6145459190615380565b905060008486886040015161455a919061533a565b6145649190615380565b9050600085878960600151614579919061533a565b6145839190615380565b85549091508411156145d75760405162461bcd60e51b815260206004820152600160248201527f66000000000000000000000000000000000000000000000000000000000000006044820152606401610cc2565b600185015483111561462b5760405162461bcd60e51b815260206004820152600160248201527f77000000000000000000000000000000000000000000000000000000000000006044820152606401610cc2565b600285015482111561467f5760405162461bcd60e51b815260206004820152600160248201527f73000000000000000000000000000000000000000000000000000000000000006044820152606401610cc2565b60038501548111156146d35760405162461bcd60e51b815260206004820152600160248201527f69000000000000000000000000000000000000000000000000000000000000006044820152606401610cc2565b8454849086906000906146e79084906152cf565b90915550506001850180548491906000906147039084906152cf565b909155505060028501805483919060009061471f9084906152cf565b909155505060038501805482919060009061473b9084906152cf565b9091555061474c9050858b8b614776565b50505050505050505050565b600060018260ff1610158015611891575050600860ff909116111590565b60038301546002840154600185015485546000939291614795916152bc565b61479f91906152bc565b6147a991906152bc565b600f9094018490555060ff9182166000908152600b60209081526040808320939094168252919091522055565b60ff808316600090815260296020908152604080832093851683529290529081206007015461480590426152cf565b61481090603c61533a565b60ff808516600090815260296020908152604080832093871683529290522060060154614841919061ffff166152bc565b905061025881116148525780614856565b6102585b60ff93841660009081526029602090815260408083209590961682529390935292909120600601805461ffff191661ffff9093169290921790915550565b6002546040517f4a9fefc70000000000000000000000000000000000000000000000000000000081526001600160a01b0383811660048301526000921690634a9fefc790602401602060405180830381865afa1580156148f8573d6000803e3d6000fd5b505050506040513d601f19601f8201168201806040525081019061491c9190615270565b9050614926614e1a565b600080806000614934614c03565b925092509250828585806149479061544f565b965060058110614959576149596153b5565b6001600160a01b0390921660209290920201528185856149788161544f565b96506005811061498a5761498a6153b5565b6001600160a01b0390921660209290920201528085856149a98161544f565b9650600581106149bb576149bb6153b5565b6001600160a01b039283166020919091029190910152600f541685856149e08161544f565b9650600581106149f2576149f26153b5565b6001600160a01b039092166020929092020152858585614a118161544f565b965060058110614a2357614a236153b5565b6001600160a01b0390921660209290920201526000614a42858a615380565b90506000805b86811015614ae2576000888260058110614a6457614a646153b5565b60200201516001600160a01b03168460405160006040518083038185875af1925050503d8060008114614ab3576040519150601f19603f3d011682016040523d82523d6000602084013e614ab8565b606091505b505090508015614acf57614acc84846152bc565b92505b5080614ada8161544f565b915050614a48565b506000614aef828c6152cf565b90508015614b9f57600f546040516000916001600160a01b03169083908381818185875af1925050503d8060008114614b44576040519150601f19603f3d011682016040523d82523d6000602084013e614b49565b606091505b5050600f54604080516001600160a01b03909216825260208201859052821515908201529091507fee95dac99b5d637df9dbe3765b5d106af913bb16c5a277c1f75573525839b2ee9060600160405180910390a1505b5050505050505050505050565b6000806000614bb9614daf565b905060058110614bcf5750600092600192509050565b80600003614be35750600292600192509050565b6001614bef81836152cf565b614bfa90600261554d565b92509250509091565b60008060008060008060005b60148160ff161015614da65760005b60148160ff161015614d935760ff8083166000908152600b6020908152604080832093851683529290529081205490819003614c5a5750614d81565b600254604051638a88895360e01b815260ff8086166004830152841660248201526000916001600160a01b031690638a88895390604401602060405180830381865afa158015614cae573d6000803e3d6000fd5b505050506040513d601f19601f82011682018060405250810190614cd29190615270565b90506001600160a01b038116614ce9575050614d81565b86821115614d005798979650949392508488614d7e565b8582118015614d215750896001600160a01b0316816001600160a01b031614155b15614d33579796509392508387614d7e565b8482118015614d545750896001600160a01b0316816001600160a01b031614155b8015614d725750886001600160a01b0316816001600160a01b031614155b15614d7e578194508097505b50505b80614d8b816153e4565b915050614c1e565b5080614d9e816153e4565b915050614c0f565b50505050909192565b600060065460001480614dc3575060065442105b15614dcf575060001990565b6301e1338060065442614de291906152cf565b61289c9190615380565b6040518061012001604052806009905b614e04614e38565b815260200190600190039081614dfc5790505090565b6040518060a001604052806005906020820280368337509192915050565b6040518061012001604052806009906020820280368337509192915050565b60ff81168114614e6657600080fd5b50565b60008060408385031215614e7c57600080fd5b8235614e8781614e57565b91506020830135614e9781614e57565b809150509250929050565b60008060008060808587031215614eb857600080fd5b8435614ec381614e57565b93506020850135614ed381614e57565b92506040850135614ee381614e57565b9396929550929360600135925050565b6001600160a01b0381168114614e6657600080fd5b600060208284031215614f1a57600080fd5b8135614f2581614ef3565b9392505050565b600080600080600060a08688031215614f4457600080fd5b8535614f4f81614e57565b94506020860135614f5f81614e57565b93506040860135614f6f81614e57565b92506060860135614f7f81614e57565b91506080860135614f8f81614e57565b809150509295509295909350565b600080600060608486031215614fb257600080fd5b8335614fbd81614e57565b92506020840135614fcd81614e57565b91506040840135614fdd81614e57565b809150509250925092565b8015158114614e6657600080fd5b600080600080600060a0868803121561500e57600080fd5b853561501981614e57565b9450602086013561502981614e57565b9350604086013561503981614e57565b9250606086013591506080860135614f8f81614fe8565b6000806000806080858703121561506657600080fd5b843561507181614e57565b9350602085013561508181614e57565b9250604085013561509181614e57565b915060608501356150a181614e57565b939692955090935050565b6000602082840312156150be57600080fd5b8135614f2581614fe8565b6000806000606084860312156150de57600080fd5b83356150e981614e57565b925060208401356150f981614e57565b91506040840135614fdd81614fe8565b60006101e082019050825182526020830151602083015260408301516040830152606083015160608301526080830151615149608084018261ffff169052565b5060a0838101519083015260c0808401519083015260e0808401519083015261010080840151908301526101208084015190830152610140808401519083015261016080840151908301526101808084015161ffff81168285015250506101a08381015161ffff81168483015250506101c092830151919092015290565b610a20810181836000805b60098082106151e15750615222565b835185845b8381101561520757825160ff168252602092830192909101906001016151e6565b505050610120949094019350602092909201916001016151d2565b5050505092915050565b60006020828403121561523e57600080fd5b8135614f2581614e57565b60008060006060848603121561525e57600080fd5b833561ffff81168114614fbd57600080fd5b60006020828403121561528257600080fd5b8151614f2581614ef3565b7f4e487b7100000000000000000000000000000000000000000000000000000000600052601160045260246000fd5b808201808211156118915761189161528d565b818103818111156118915761189161528d565b6000602082840312156152f457600080fd5b5051919050565b60006020828403121561530d57600080fd5b8151614f2581614fe8565b61ffff8181168382160190808211156153335761533361528d565b5092915050565b80820281158282048414176118915761189161528d565b7f4e487b7100000000000000000000000000000000000000000000000000000000600052601260045260246000fd5b60008261538f5761538f615351565b500490565b600061ffff8083168181036153ab576153ab61528d565b6001019392505050565b7f4e487b7100000000000000000000000000000000000000000000000000000000600052603260045260246000fd5b600060ff821660ff81036153fa576153fa61528d565b60010192915050565b60008261541257615412615351565b500690565b61ffff8281168282160390808211156153335761533361528d565b60006020828403121561544457600080fd5b8151614f2581614e57565b600060001982036154625761546261528d565b5060010190565b600181815b808511156154a457816000190482111561548a5761548a61528d565b8085161561549757918102915b93841c939080029061546e565b509250929050565b6000826154bb57506001611891565b816154c857506000611891565b81600181146154de57600281146154e857615504565b6001915050611891565b60ff8411156154f9576154f961528d565b50506001821b611891565b5060208310610133831016604e8410600b8410161715615527575081810a611891565b6155318383615469565b80600019048211156155455761554561528d565b029392505050565b6000614f2583836154ac56fea2646970667358221220d5c2a05d1c0f749688a507169ab0cbbad345fbd2c86a1b80674d5724049ba9c964736f6c63430008120033",
			"opcodes": "PUSH8 0x16345785D8A0000 PUSH1 0x4 SSTORE PUSH3 0xF4240 PUSH1 0x5 SSTORE PUSH1 0x78 PUSH1 0x80 DUP2 SWAP1 MSTORE PUSH1 0xA0 DUP2 SWAP1 MSTORE PUSH1 0x64 PUSH1 0xC0 DUP2 SWAP1 MSTORE PUSH1 0xB4 PUSH1 0xE0 DUP2 SWAP1 MSTORE PUSH1 0x11 DUP4 SWAP1 SSTORE PUSH1 0x12 DUP4 SWAP1 SSTORE PUSH1 0x13 DUP3 SWAP1 SSTORE PUSH1 0x14 DUP2 SWAP1 SSTORE PUSH1 0x96 PUSH2 0x100 DUP2 SWAP1 MSTORE PUSH2 0x120 DUP2 SWAP1 MSTORE PUSH2 0x140 DUP4 SWAP1 MSTORE PUSH2 0x190 PUSH2 0x160 DUP2 SWAP1 MSTORE PUSH1 0x15 DUP3 SWAP1 SSTORE PUSH1 0x16 DUP3 SWAP1 SSTORE PUSH1 0x17 DUP5 SWAP1 SSTORE PUSH1 0x18 DUP2 SWAP1 SSTORE PUSH2 0x180 DUP6 SWAP1 MSTORE PUSH2 0x1A0 DUP4 SWAP1 MSTORE PUSH2 0x1C0 DUP5 SWAP1 MSTORE PUSH2 0x12C PUSH2 0x1E0 DUP2 SWAP1 MSTORE PUSH1 0x19 SWAP6 SWAP1 SWAP6 SSTORE PUSH1 0x1A SWAP3 SWAP1 SWAP3 SSTORE PUSH1 0x1B DUP4 SWAP1 SSTORE PUSH1 0x1C SWAP4 SWAP1 SWAP4 SSTORE PUSH2 0x200 DUP4 SWAP1 MSTORE PUSH1 0xC8 PUSH2 0x220 DUP2 SWAP1 MSTORE PUSH2 0x240 DUP4 SWAP1 MSTORE PUSH1 0xFA PUSH2 0x260 DUP2 SWAP1 MSTORE PUSH1 0x1D DUP6 SWAP1 SSTORE PUSH1 0x1E DUP3 SWAP1 SSTORE PUSH1 0x1F DUP5 SWAP1 SSTORE PUSH1 0x20 SSTORE PUSH2 0x280 DUP3 SWAP1 MSTORE PUSH2 0x2A0 DUP2 SWAP1 MSTORE PUSH2 0x2C0 DUP5 SWAP1 MSTORE PUSH2 0x2E0 DUP4 SWAP1 MSTORE PUSH1 0x21 DUP3 SWAP1 SSTORE PUSH1 0x22 DUP2 SWAP1 SSTORE PUSH1 0x23 DUP5 SWAP1 SSTORE PUSH1 0x24 DUP4 SWAP1 SSTORE PUSH2 0x380 PUSH1 0x40 MSTORE PUSH2 0x300 DUP3 SWAP1 MSTORE PUSH2 0x320 DUP2 SWAP1 MSTORE PUSH2 0x340 DUP5 SWAP1 MSTORE PUSH2 0x360 DUP4 SWAP1 MSTORE PUSH1 0x25 SWAP2 SWAP1 SWAP2 SSTORE PUSH1 0x26 SSTORE PUSH1 0x27 SWAP2 SWAP1 SWAP2 SSTORE PUSH1 0x28 SSTORE CALLVALUE DUP1 ISZERO PUSH3 0x13A JUMPI PUSH1 0x0 DUP1 REVERT JUMPDEST POP PUSH1 0x40 MLOAD PUSH3 0x5DB2 CODESIZE SUB DUP1 PUSH3 0x5DB2 DUP4 CODECOPY DUP2 ADD PUSH1 0x40 DUP2 SWAP1 MSTORE PUSH3 0x15D SWAP2 PUSH3 0x7C9 JUMP JUMPDEST PUSH1 0x1 PUSH1 0x0 SSTORE PUSH1 0x2 DUP1 SLOAD PUSH1 0x1 PUSH1 0x1 PUSH1 0xA0 SHL SUB NOT AND PUSH1 0x1 PUSH1 0x1 PUSH1 0xA0 SHL SUB DUP6 AND OR SWAP1 SSTORE PUSH3 0x76A PUSH1 0x40 DUP1 MLOAD PUSH1 0x80 DUP1 DUP3 ADD DUP4 MSTORE PUSH2 0x4D8 DUP1 DUP4 MSTORE PUSH2 0xC80 PUSH1 0x20 DUP1 DUP6 ADD SWAP2 DUP3 MSTORE PUSH2 0x5A0 DUP6 DUP8 ADD SWAP1 DUP2 MSTORE PUSH2 0x370 PUSH1 0x60 DUP1 DUP9 ADD DUP3 DUP2 MSTORE PUSH1 0x1 PUSH1 0x0 SWAP1 DUP2 MSTORE PUSH1 0x2B DUP1 DUP8 MSTORE SWAP10 MLOAD PUSH32 0xFCC3D43705633578A5E8F1B6D6F38D08EB8CB891174EDCC94B1A54972A1AEBBD SSTORE SWAP6 MLOAD PUSH32 0xFCC3D43705633578A5E8F1B6D6F38D08EB8CB891174EDCC94B1A54972A1AEBBE SSTORE SWAP3 MLOAD PUSH32 0xFCC3D43705633578A5E8F1B6D6F38D08EB8CB891174EDCC94B1A54972A1AEBBF SSTORE SWAP2 MLOAD PUSH32 0xFCC3D43705633578A5E8F1B6D6F38D08EB8CB891174EDCC94B1A54972A1AEBC0 SSTORE DUP8 MLOAD DUP1 DUP8 ADD DUP10 MSTORE PUSH2 0x514 DUP1 DUP3 MSTORE PUSH2 0xBB8 DUP3 DUP7 ADD SWAP1 DUP2 MSTORE DUP3 DUP12 ADD SWAP2 DUP3 MSTORE PUSH2 0x384 DUP4 DUP7 ADD SWAP1 DUP2 MSTORE PUSH1 0x2 DUP9 MSTORE DUP11 DUP8 MSTORE SWAP3 MLOAD PUSH32 0xBD6C10E6CE287735500A1C033BE76C57D5E632ADDC2FF6EFF6BB587B8EE0D95C SSTORE MLOAD PUSH32 0xBD6C10E6CE287735500A1C033BE76C57D5E632ADDC2FF6EFF6BB587B8EE0D95D SSTORE MLOAD PUSH32 0xBD6C10E6CE287735500A1C033BE76C57D5E632ADDC2FF6EFF6BB587B8EE0D95E SSTORE MLOAD PUSH32 0xBD6C10E6CE287735500A1C033BE76C57D5E632ADDC2FF6EFF6BB587B8EE0D95F SSTORE DUP8 MLOAD DUP1 DUP8 ADD DUP10 MSTORE PUSH2 0x6E0 DUP2 MSTORE PUSH2 0x1068 DUP2 DUP6 ADD SWAP1 DUP2 MSTORE PUSH2 0x7A8 DUP3 DUP12 ADD SWAP1 DUP2 MSTORE PUSH2 0x528 DUP4 DUP7 ADD SWAP1 DUP2 MSTORE PUSH1 0x3 DUP9 MSTORE DUP11 DUP8 MSTORE SWAP3 MLOAD PUSH32 0xD3904653C5D0F9B122879AA13F7287465A10522AEDD588DBBD607CF6F8B2147F SSTORE SWAP1 MLOAD PUSH32 0xD3904653C5D0F9B122879AA13F7287465A10522AEDD588DBBD607CF6F8B21480 SSTORE MLOAD PUSH32 0xD3904653C5D0F9B122879AA13F7287465A10522AEDD588DBBD607CF6F8B21481 SSTORE MLOAD PUSH32 0xD3904653C5D0F9B122879AA13F7287465A10522AEDD588DBBD607CF6F8B21482 SSTORE DUP8 MLOAD DUP1 DUP8 ADD DUP10 MSTORE DUP6 DUP2 MSTORE PUSH2 0xAF0 DUP2 DUP6 ADD SWAP1 DUP2 MSTORE DUP2 DUP11 ADD SWAP7 DUP8 MSTORE PUSH2 0x3AC DUP3 DUP6 ADD SWAP1 DUP2 MSTORE PUSH1 0x4 DUP8 MSTORE DUP10 DUP7 MSTORE SWAP2 MLOAD PUSH32 0x8BD115FC6EC81AD72D5CA8A8B3BD3D0177F1B615AF6AD35644A4E24A7BED08BC SSTORE MLOAD PUSH32 0x8BD115FC6EC81AD72D5CA8A8B3BD3D0177F1B615AF6AD35644A4E24A7BED08BD SSTORE SWAP5 MLOAD PUSH32 0x8BD115FC6EC81AD72D5CA8A8B3BD3D0177F1B615AF6AD35644A4E24A7BED08BE SSTORE SWAP4 MLOAD PUSH32 0x8BD115FC6EC81AD72D5CA8A8B3BD3D0177F1B615AF6AD35644A4E24A7BED08BF SSTORE DUP7 MLOAD DUP1 DUP7 ADD DUP9 MSTORE PUSH2 0x190 DUP2 MSTORE PUSH2 0x410 DUP2 DUP5 ADD SWAP1 DUP2 MSTORE PUSH2 0x1C2 DUP3 DUP11 ADD SWAP1 DUP2 MSTORE PUSH1 0xE6 DUP4 DUP6 ADD SWAP1 DUP2 MSTORE PUSH1 0x5 DUP8 MSTORE DUP10 DUP7 MSTORE SWAP3 MLOAD PUSH32 0x4B5B933ABDE5416303AE4347D7FCDF5A17E8022E0FEFC2B31C7609EBD3C32FE9 SSTORE SWAP1 MLOAD PUSH32 0x4B5B933ABDE5416303AE4347D7FCDF5A17E8022E0FEFC2B31C7609EBD3C32FEA SSTORE MLOAD PUSH32 0x4B5B933ABDE5416303AE4347D7FCDF5A17E8022E0FEFC2B31C7609EBD3C32FEB SSTORE MLOAD PUSH32 0x4B5B933ABDE5416303AE4347D7FCDF5A17E8022E0FEFC2B31C7609EBD3C32FEC SSTORE DUP7 MLOAD DUP1 DUP7 ADD DUP9 MSTORE PUSH2 0x5B4 DUP1 DUP3 MSTORE PUSH2 0xC30 DUP3 DUP6 ADD SWAP1 DUP2 MSTORE DUP3 DUP11 ADD SWAP2 DUP3 MSTORE DUP3 DUP5 ADD SWAP7 DUP8 MSTORE PUSH1 0x6 DUP7 MSTORE DUP9 DUP6 MSTORE SWAP2 MLOAD PUSH32 0x5AC1F6EA00AD8B0F699E3A293CC93D6FDAF7EE608FBC40FFEF54DB3FB7EBB943 SSTORE SWAP1 MLOAD PUSH32 0x5AC1F6EA00AD8B0F699E3A293CC93D6FDAF7EE608FBC40FFEF54DB3FB7EBB944 SSTORE MLOAD PUSH32 0x5AC1F6EA00AD8B0F699E3A293CC93D6FDAF7EE608FBC40FFEF54DB3FB7EBB945 SSTORE SWAP3 MLOAD PUSH32 0x5AC1F6EA00AD8B0F699E3A293CC93D6FDAF7EE608FBC40FFEF54DB3FB7EBB946 SSTORE DUP6 MLOAD DUP1 DUP6 ADD DUP8 MSTORE PUSH2 0xADC DUP2 MSTORE PUSH2 0x1900 DUP2 DUP4 ADD SWAP1 DUP2 MSTORE PUSH2 0x2FA8 DUP3 DUP10 ADD SWAP1 DUP2 MSTORE PUSH2 0x924 DUP4 DUP8 ADD SWAP1 DUP2 MSTORE PUSH1 0x7 DUP7 MSTORE DUP9 DUP6 MSTORE SWAP3 MLOAD PUSH32 0x455B6DEA826802A5B6200D61A7810FCCBD36F05C878743E3AC0E0E7AFF3A46E8 SSTORE SWAP1 MLOAD PUSH32 0x455B6DEA826802A5B6200D61A7810FCCBD36F05C878743E3AC0E0E7AFF3A46E9 SSTORE MLOAD PUSH32 0x455B6DEA826802A5B6200D61A7810FCCBD36F05C878743E3AC0E0E7AFF3A46EA SSTORE MLOAD PUSH32 0x455B6DEA826802A5B6200D61A7810FCCBD36F05C878743E3AC0E0E7AFF3A46EB SSTORE DUP6 MLOAD SWAP4 DUP5 ADD DUP7 MSTORE PUSH2 0x690 DUP5 MSTORE PUSH2 0xE60 DUP5 DUP3 ADD SWAP1 DUP2 MSTORE PUSH2 0x758 SWAP7 DUP6 ADD SWAP7 DUP8 MSTORE PUSH2 0x550 SWAP4 DUP6 ADD SWAP4 DUP5 MSTORE PUSH1 0x8 SWAP1 SWAP3 MSTORE SWAP4 SWAP1 SWAP4 MSTORE SWAP1 MLOAD PUSH32 0xB145D60EAADB8DBD7AEB92DC4E0FAAE9B4A8D9EACC51E2FDF2D1EDA28A5001F9 SSTORE SWAP1 MLOAD PUSH32 0xB145D60EAADB8DBD7AEB92DC4E0FAAE9B4A8D9EACC51E2FDF2D1EDA28A5001FA SSTORE SWAP1 MLOAD PUSH32 0xB145D60EAADB8DBD7AEB92DC4E0FAAE9B4A8D9EACC51E2FDF2D1EDA28A5001FB SSTORE MLOAD PUSH32 0xB145D60EAADB8DBD7AEB92DC4E0FAAE9B4A8D9EACC51E2FDF2D1EDA28A5001FC SSTORE JUMP JUMPDEST PUSH1 0xD DUP1 SLOAD PUSH1 0x1 PUSH1 0x1 PUSH1 0xA0 SHL SUB NOT SWAP1 DUP2 AND CALLER OR SWAP1 SWAP2 SSTORE PUSH1 0x1 DUP1 SLOAD PUSH1 0x1 PUSH1 0x1 PUSH1 0xA0 SHL SUB SWAP5 DUP6 AND SWAP1 DUP4 AND OR SWAP1 SSTORE TIMESTAMP PUSH1 0x6 SSTORE PUSH1 0x10 DUP1 SLOAD SWAP3 SWAP1 SWAP4 AND SWAP2 AND OR SWAP1 SSTORE POP PUSH3 0x813 JUMP JUMPDEST DUP1 MLOAD PUSH1 0x1 PUSH1 0x1 PUSH1 0xA0 SHL SUB DUP2 AND DUP2 EQ PUSH3 0x7C4 JUMPI PUSH1 0x0 DUP1 REVERT JUMPDEST SWAP2 SWAP1 POP JUMP JUMPDEST PUSH1 0x0 DUP1 PUSH1 0x0 PUSH1 0x60 DUP5 DUP7 SUB SLT ISZERO PUSH3 0x7DF JUMPI PUSH1 0x0 DUP1 REVERT JUMPDEST PUSH3 0x7EA DUP5 PUSH3 0x7AC JUMP JUMPDEST SWAP3 POP PUSH3 0x7FA PUSH1 0x20 DUP6 ADD PUSH3 0x7AC JUMP JUMPDEST SWAP2 POP PUSH3 0x80A PUSH1 0x40 DUP6 ADD PUSH3 0x7AC JUMP JUMPDEST SWAP1 POP SWAP3 POP SWAP3 POP SWAP3 JUMP JUMPDEST PUSH2 0x558F DUP1 PUSH3 0x823 PUSH1 0x0 CODECOPY PUSH1 0x0 RETURN INVALID PUSH1 0x80 PUSH1 0x40 MSTORE PUSH1 0x4 CALLDATASIZE LT PUSH2 0x360 JUMPI PUSH1 0x0 CALLDATALOAD PUSH1 0xE0 SHR DUP1 PUSH4 0x7659BC60 GT PUSH2 0x1C6 JUMPI DUP1 PUSH4 0xC14448CD GT PUSH2 0xF7 JUMPI DUP1 PUSH4 0xDECC1BBF GT PUSH2 0x95 JUMPI DUP1 PUSH4 0xF3245254 GT PUSH2 0x6F JUMPI DUP1 PUSH4 0xF3245254 EQ PUSH2 0xB84 JUMPI DUP1 PUSH4 0xF89D7571 EQ PUSH2 0xBA4 JUMPI DUP1 PUSH4 0xF9C64454 EQ PUSH2 0xBC4 JUMPI DUP1 PUSH4 0xFAE92612 EQ PUSH2 0xBE7 JUMPI PUSH1 0x0 DUP1 REVERT JUMPDEST DUP1 PUSH4 0xDECC1BBF EQ PUSH2 0xB1A JUMPI DUP1 PUSH4 0xE9D60A10 EQ PUSH2 0xB41 JUMPI DUP1 PUSH4 0xE9DD6583 EQ PUSH2 0xB71 JUMPI PUSH1 0x0 DUP1 REVERT JUMPDEST DUP1 PUSH4 0xD836D447 GT PUSH2 0xD1 JUMPI DUP1 PUSH4 0xD836D447 EQ PUSH2 0xA3B JUMPI DUP1 PUSH4 0xDAA17F49 EQ PUSH2 0xAC4 JUMPI DUP1 PUSH4 0xDD4B466B EQ PUSH2 0xAE4 JUMPI DUP1 PUSH4 0xDE8CA33A EQ PUSH2 0xB04 JUMPI PUSH1 0x0 DUP1 REVERT JUMPDEST DUP1 PUSH4 0xC14448CD EQ PUSH2 0x9A9 JUMPI DUP1 PUSH4 0xC1712D57 EQ PUSH2 0x9BE JUMPI DUP1 PUSH4 0xCCD5E491 EQ PUSH2 0xA00 JUMPI PUSH1 0x0 DUP1 REVERT JUMPDEST DUP1 PUSH4 0x9A4A2084 GT PUSH2 0x164 JUMPI DUP1 PUSH4 0xBC4462DE GT PUSH2 0x13E JUMPI DUP1 PUSH4 0xBC4462DE EQ PUSH2 0x919 JUMPI DUP1 PUSH4 0xBD638378 EQ PUSH2 0x939 JUMPI DUP1 PUSH4 0xBDC7DA8E EQ PUSH2 0x966 JUMPI DUP1 PUSH4 0xBE9A263C EQ PUSH2 0x97C JUMPI PUSH1 0x0 DUP1 REVERT JUMPDEST DUP1 PUSH4 0x9A4A2084 EQ PUSH2 0x897 JUMPI DUP1 PUSH4 0x9C54E471 EQ PUSH2 0x8B7 JUMPI DUP1 PUSH4 0xA596B645 EQ PUSH2 0x8F6 JUMPI PUSH1 0x0 DUP1 REVERT JUMPDEST DUP1 PUSH4 0x887ACA72 GT PUSH2 0x1A0 JUMPI DUP1 PUSH4 0x887ACA72 EQ PUSH2 0x7FC JUMPI DUP1 PUSH4 0x8C87FA4F EQ PUSH2 0x834 JUMPI DUP1 PUSH4 0x8DA5CB5B EQ PUSH2 0x857 JUMPI DUP1 PUSH4 0x97CEFC4C EQ PUSH2 0x877 JUMPI PUSH1 0x0 DUP1 REVERT JUMPDEST DUP1 PUSH4 0x7659BC60 EQ PUSH2 0x799 JUMPI DUP1 PUSH4 0x7CCA26D9 EQ PUSH2 0x7B9 JUMPI DUP1 PUSH4 0x800BFA27 EQ PUSH2 0x7D9 JUMPI PUSH1 0x0 DUP1 REVERT JUMPDEST DUP1 PUSH4 0x4173F9E9 GT PUSH2 0x2A0 JUMPI DUP1 PUSH4 0x537E8F49 GT PUSH2 0x23E JUMPI DUP1 PUSH4 0x60B76B52 GT PUSH2 0x218 JUMPI DUP1 PUSH4 0x60B76B52 EQ PUSH2 0x720 JUMPI DUP1 PUSH4 0x620A9A99 EQ PUSH2 0x740 JUMPI DUP1 PUSH4 0x65AF3A2F EQ PUSH2 0x763 JUMPI DUP1 PUSH4 0x7502BAD4 EQ PUSH2 0x779 JUMPI PUSH1 0x0 DUP1 REVERT JUMPDEST DUP1 PUSH4 0x537E8F49 EQ PUSH2 0x6A8 JUMPI DUP1 PUSH4 0x562AAFB6 EQ PUSH2 0x6EB JUMPI DUP1 PUSH4 0x5D219D5F EQ PUSH2 0x700 JUMPI PUSH1 0x0 DUP1 REVERT JUMPDEST DUP1 PUSH4 0x428967DA GT PUSH2 0x27A JUMPI DUP1 PUSH4 0x428967DA EQ PUSH2 0x61E JUMPI DUP1 PUSH4 0x42EAA7C8 EQ PUSH2 0x634 JUMPI DUP1 PUSH4 0x4855735C EQ PUSH2 0x649 JUMPI DUP1 PUSH4 0x4F264B03 EQ PUSH2 0x688 JUMPI PUSH1 0x0 DUP1 REVERT JUMPDEST DUP1 PUSH4 0x4173F9E9 EQ PUSH2 0x57B JUMPI DUP1 PUSH4 0x41EDE44F EQ PUSH2 0x5BE JUMPI DUP1 PUSH4 0x4274B164 EQ PUSH2 0x5FE JUMPI PUSH1 0x0 DUP1 REVERT JUMPDEST DUP1 PUSH4 0x1ACC55EA GT PUSH2 0x30D JUMPI DUP1 PUSH4 0x2EF78865 GT PUSH2 0x2E7 JUMPI DUP1 PUSH4 0x2EF78865 EQ PUSH2 0x4C8 JUMPI DUP1 PUSH4 0x33B95EE0 EQ PUSH2 0x500 JUMPI DUP1 PUSH4 0x351662E4 EQ PUSH2 0x53B JUMPI DUP1 PUSH4 0x3E5F2857 EQ PUSH2 0x55B JUMPI PUSH1 0x0 DUP1 REVERT JUMPDEST DUP1 PUSH4 0x1ACC55EA EQ PUSH2 0x464 JUMPI DUP1 PUSH4 0x21B74EA7 EQ PUSH2 0x484 JUMPI DUP1 PUSH4 0x2A490AE8 EQ PUSH2 0x4A8 JUMPI PUSH1 0x0 DUP1 REVERT JUMPDEST DUP1 PUSH4 0xDF7B41A GT PUSH2 0x33E JUMPI DUP1 PUSH4 0xDF7B41A EQ PUSH2 0x40F JUMPI DUP1 PUSH4 0xEE22F31 EQ PUSH2 0x42F JUMPI DUP1 PUSH4 0x15E91B48 EQ PUSH2 0x44F JUMPI PUSH1 0x0 DUP1 REVERT JUMPDEST DUP1 PUSH4 0x2CD77E6 EQ PUSH2 0x365 JUMPI DUP1 PUSH4 0x7722BC2 EQ PUSH2 0x3B5 JUMPI DUP1 PUSH4 0xD67F59E EQ PUSH2 0x3D7 JUMPI JUMPDEST PUSH1 0x0 DUP1 REVERT JUMPDEST CALLVALUE DUP1 ISZERO PUSH2 0x371 JUMPI PUSH1 0x0 DUP1 REVERT JUMPDEST POP PUSH2 0x3A0 PUSH2 0x380 CALLDATASIZE PUSH1 0x4 PUSH2 0x4E69 JUMP JUMPDEST PUSH1 0xA PUSH1 0x20 SWAP1 DUP2 MSTORE PUSH1 0x0 SWAP3 DUP4 MSTORE PUSH1 0x40 DUP1 DUP5 KECCAK256 SWAP1 SWAP2 MSTORE SWAP1 DUP3 MSTORE SWAP1 KECCAK256 SLOAD PUSH1 0xFF AND DUP2 JUMP JUMPDEST PUSH1 0x40 MLOAD SWAP1 ISZERO ISZERO DUP2 MSTORE PUSH1 0x20 ADD JUMPDEST PUSH1 0x40 MLOAD DUP1 SWAP2 SUB SWAP1 RETURN JUMPDEST CALLVALUE DUP1 ISZERO PUSH2 0x3C1 JUMPI PUSH1 0x0 DUP1 REVERT JUMPDEST POP PUSH2 0x3D5 PUSH2 0x3D0 CALLDATASIZE PUSH1 0x4 PUSH2 0x4EA2 JUMP JUMPDEST PUSH2 0xC07 JUMP JUMPDEST STOP JUMPDEST CALLVALUE DUP1 ISZERO PUSH2 0x3E3 JUMPI PUSH1 0x0 DUP1 REVERT JUMPDEST POP PUSH1 0x1 SLOAD PUSH2 0x3F7 SWAP1 PUSH1 0x1 PUSH1 0x1 PUSH1 0xA0 SHL SUB AND DUP2 JUMP JUMPDEST PUSH1 0x40 MLOAD PUSH1 0x1 PUSH1 0x1 PUSH1 0xA0 SHL SUB SWAP1 SWAP2 AND DUP2 MSTORE PUSH1 0x20 ADD PUSH2 0x3AC JUMP JUMPDEST CALLVALUE DUP1 ISZERO PUSH2 0x41B JUMPI PUSH1 0x0 DUP1 REVERT JUMPDEST POP PUSH2 0x3D5 PUSH2 0x42A CALLDATASIZE PUSH1 0x4 PUSH2 0x4F08 JUMP JUMPDEST PUSH2 0xEBB JUMP JUMPDEST CALLVALUE DUP1 ISZERO PUSH2 0x43B JUMPI PUSH1 0x0 DUP1 REVERT JUMPDEST POP PUSH2 0x3D5 PUSH2 0x44A CALLDATASIZE PUSH1 0x4 PUSH2 0x4F2C JUMP JUMPDEST PUSH2 0xFA5 JUMP JUMPDEST CALLVALUE DUP1 ISZERO PUSH2 0x45B JUMPI PUSH1 0x0 DUP1 REVERT JUMPDEST POP PUSH2 0x3D5 PUSH2 0x1600 JUMP JUMPDEST CALLVALUE DUP1 ISZERO PUSH2 0x470 JUMPI PUSH1 0x0 DUP1 REVERT JUMPDEST POP PUSH2 0x3A0 PUSH2 0x47F CALLDATASIZE PUSH1 0x4 PUSH2 0x4E69 JUMP JUMPDEST PUSH2 0x186E JUMP JUMPDEST CALLVALUE DUP1 ISZERO PUSH2 0x490 JUMPI PUSH1 0x0 DUP1 REVERT JUMPDEST POP PUSH2 0x49A PUSH1 0x4 SLOAD DUP2 JUMP JUMPDEST PUSH1 0x40 MLOAD SWAP1 DUP2 MSTORE PUSH1 0x20 ADD PUSH2 0x3AC JUMP JUMPDEST CALLVALUE DUP1 ISZERO PUSH2 0x4B4 JUMPI PUSH1 0x0 DUP1 REVERT JUMPDEST POP PUSH2 0x49A PUSH2 0x4C3 CALLDATASIZE PUSH1 0x4 PUSH2 0x4E69 JUMP JUMPDEST PUSH2 0x1897 JUMP JUMPDEST CALLVALUE DUP1 ISZERO PUSH2 0x4D4 JUMPI PUSH1 0x0 DUP1 REVERT JUMPDEST POP PUSH2 0x49A PUSH2 0x4E3 CALLDATASIZE PUSH1 0x4 PUSH2 0x4E69 JUMP JUMPDEST PUSH1 0xB PUSH1 0x20 SWAP1 DUP2 MSTORE PUSH1 0x0 SWAP3 DUP4 MSTORE PUSH1 0x40 DUP1 DUP5 KECCAK256 SWAP1 SWAP2 MSTORE SWAP1 DUP3 MSTORE SWAP1 KECCAK256 SLOAD DUP2 JUMP JUMPDEST CALLVALUE DUP1 ISZERO PUSH2 0x50C JUMPI PUSH1 0x0 DUP1 REVERT JUMPDEST POP PUSH2 0x3A0 PUSH2 0x51B CALLDATASIZE PUSH1 0x4 PUSH2 0x4E69 JUMP JUMPDEST PUSH1 0x9 PUSH1 0x20 SWAP1 DUP2 MSTORE PUSH1 0x0 SWAP3 DUP4 MSTORE PUSH1 0x40 DUP1 DUP5 KECCAK256 SWAP1 SWAP2 MSTORE SWAP1 DUP3 MSTORE SWAP1 KECCAK256 SLOAD PUSH1 0xFF AND DUP2 JUMP JUMPDEST CALLVALUE DUP1 ISZERO PUSH2 0x547 JUMPI PUSH1 0x0 DUP1 REVERT JUMPDEST POP PUSH2 0x3D5 PUSH2 0x556 CALLDATASIZE PUSH1 0x4 PUSH2 0x4F9D JUMP JUMPDEST PUSH2 0x199D JUMP JUMPDEST CALLVALUE DUP1 ISZERO PUSH2 0x567 JUMPI PUSH1 0x0 DUP1 REVERT JUMPDEST POP PUSH2 0x3D5 PUSH2 0x576 CALLDATASIZE PUSH1 0x4 PUSH2 0x4FF6 JUMP JUMPDEST PUSH2 0x1E9D JUMP JUMPDEST CALLVALUE DUP1 ISZERO PUSH2 0x587 JUMPI PUSH1 0x0 DUP1 REVERT JUMPDEST POP PUSH2 0x49A PUSH2 0x596 CALLDATASIZE PUSH1 0x4 PUSH2 0x4E69 JUMP JUMPDEST PUSH1 0xFF SWAP2 DUP3 AND PUSH1 0x0 SWAP1 DUP2 MSTORE PUSH1 0x29 PUSH1 0x20 SWAP1 DUP2 MSTORE PUSH1 0x40 DUP1 DUP4 KECCAK256 SWAP4 SWAP1 SWAP5 AND DUP3 MSTORE SWAP2 SWAP1 SWAP2 MSTORE KECCAK256 PUSH1 0x7 ADD SLOAD SWAP1 JUMP JUMPDEST CALLVALUE DUP1 ISZERO PUSH2 0x5CA JUMPI PUSH1 0x0 DUP1 REVERT JUMPDEST POP PUSH2 0x49A PUSH2 0x5D9 CALLDATASIZE PUSH1 0x4 PUSH2 0x4E69 JUMP JUMPDEST PUSH1 0xFF SWAP2 DUP3 AND PUSH1 0x0 SWAP1 DUP2 MSTORE PUSH1 0x8 PUSH1 0x20 SWAP1 DUP2 MSTORE PUSH1 0x40 DUP1 DUP4 KECCAK256 SWAP4 SWAP1 SWAP5 AND DUP3 MSTORE SWAP2 SWAP1 SWAP2 MSTORE KECCAK256 SLOAD SWAP1 JUMP JUMPDEST CALLVALUE DUP1 ISZERO PUSH2 0x60A JUMPI PUSH1 0x0 DUP1 REVERT JUMPDEST POP PUSH2 0x3D5 PUSH2 0x619 CALLDATASIZE PUSH1 0x4 PUSH2 0x4EA2 JUMP JUMPDEST PUSH2 0x258C JUMP JUMPDEST CALLVALUE DUP1 ISZERO PUSH2 0x62A JUMPI PUSH1 0x0 DUP1 REVERT JUMPDEST POP PUSH2 0x49A PUSH1 0x5 SLOAD DUP2 JUMP JUMPDEST CALLVALUE DUP1 ISZERO PUSH2 0x640 JUMPI PUSH1 0x0 DUP1 REVERT JUMPDEST POP PUSH2 0x49A PUSH2 0x2816 JUMP JUMPDEST CALLVALUE DUP1 ISZERO PUSH2 0x655 JUMPI PUSH1 0x0 DUP1 REVERT JUMPDEST POP PUSH2 0x3A0 PUSH2 0x664 CALLDATASIZE PUSH1 0x4 PUSH2 0x4E69 JUMP JUMPDEST PUSH1 0xFF SWAP2 DUP3 AND PUSH1 0x0 SWAP1 DUP2 MSTORE PUSH1 0xA PUSH1 0x20 SWAP1 DUP2 MSTORE PUSH1 0x40 DUP1 DUP4 KECCAK256 SWAP4 DUP6 AND DUP4 MSTORE SWAP3 SWAP1 MSTORE KECCAK256 SLOAD AND SWAP1 JUMP JUMPDEST CALLVALUE DUP1 ISZERO PUSH2 0x694 JUMPI PUSH1 0x0 DUP1 REVERT JUMPDEST POP PUSH1 0x2 SLOAD PUSH2 0x3F7 SWAP1 PUSH1 0x1 PUSH1 0x1 PUSH1 0xA0 SHL SUB AND DUP2 JUMP JUMPDEST CALLVALUE DUP1 ISZERO PUSH2 0x6B4 JUMPI PUSH1 0x0 DUP1 REVERT JUMPDEST POP PUSH1 0x1D SLOAD PUSH1 0x1E SLOAD PUSH1 0x1F SLOAD PUSH1 0x20 SLOAD PUSH2 0x6CB SWAP4 SWAP3 SWAP2 SWAP1 DUP5 JUMP JUMPDEST PUSH1 0x40 DUP1 MLOAD SWAP5 DUP6 MSTORE PUSH1 0x20 DUP6 ADD SWAP4 SWAP1 SWAP4 MSTORE SWAP2 DUP4 ADD MSTORE PUSH1 0x60 DUP3 ADD MSTORE PUSH1 0x80 ADD PUSH2 0x3AC JUMP JUMPDEST CALLVALUE DUP1 ISZERO PUSH2 0x6F7 JUMPI PUSH1 0x0 DUP1 REVERT JUMPDEST POP PUSH2 0x3D5 PUSH2 0x28A1 JUMP JUMPDEST CALLVALUE DUP1 ISZERO PUSH2 0x70C JUMPI PUSH1 0x0 DUP1 REVERT JUMPDEST POP PUSH2 0x3D5 PUSH2 0x71B CALLDATASIZE PUSH1 0x4 PUSH2 0x4F08 JUMP JUMPDEST PUSH2 0x2992 JUMP JUMPDEST CALLVALUE DUP1 ISZERO PUSH2 0x72C JUMPI PUSH1 0x0 DUP1 REVERT JUMPDEST POP PUSH2 0x3D5 PUSH2 0x73B CALLDATASIZE PUSH1 0x4 PUSH2 0x5050 JUMP JUMPDEST PUSH2 0x2A7C JUMP JUMPDEST CALLVALUE DUP1 ISZERO PUSH2 0x74C JUMPI PUSH1 0x0 DUP1 REVERT JUMPDEST POP PUSH1 0x11 SLOAD PUSH1 0x12 SLOAD PUSH1 0x13 SLOAD PUSH1 0x14 SLOAD PUSH2 0x6CB SWAP4 SWAP3 SWAP2 SWAP1 DUP5 JUMP JUMPDEST CALLVALUE DUP1 ISZERO PUSH2 0x76F JUMPI PUSH1 0x0 DUP1 REVERT JUMPDEST POP PUSH2 0x49A PUSH1 0x6 SLOAD DUP2 JUMP JUMPDEST CALLVALUE DUP1 ISZERO PUSH2 0x785 JUMPI PUSH1 0x0 DUP1 REVERT JUMPDEST POP PUSH1 0xF SLOAD PUSH2 0x3F7 SWAP1 PUSH1 0x1 PUSH1 0x1 PUSH1 0xA0 SHL SUB AND DUP2 JUMP JUMPDEST CALLVALUE DUP1 ISZERO PUSH2 0x7A5 JUMPI PUSH1 0x0 DUP1 REVERT JUMPDEST POP PUSH2 0x3D5 PUSH2 0x7B4 CALLDATASIZE PUSH1 0x4 PUSH2 0x4E69 JUMP JUMPDEST PUSH2 0x2D7E JUMP JUMPDEST CALLVALUE DUP1 ISZERO PUSH2 0x7C5 JUMPI PUSH1 0x0 DUP1 REVERT JUMPDEST POP PUSH1 0x3 SLOAD PUSH2 0x3F7 SWAP1 PUSH1 0x1 PUSH1 0x1 PUSH1 0xA0 SHL SUB AND DUP2 JUMP JUMPDEST CALLVALUE DUP1 ISZERO PUSH2 0x7E5 JUMPI PUSH1 0x0 DUP1 REVERT JUMPDEST POP PUSH1 0x19 SLOAD PUSH1 0x1A SLOAD PUSH1 0x1B SLOAD PUSH1 0x1C SLOAD PUSH2 0x6CB SWAP4 SWAP3 SWAP2 SWAP1 DUP5 JUMP JUMPDEST CALLVALUE DUP1 ISZERO PUSH2 0x808 JUMPI PUSH1 0x0 DUP1 REVERT JUMPDEST POP PUSH2 0x49A PUSH2 0x817 CALLDATASIZE PUSH1 0x4 PUSH2 0x4E69 JUMP JUMPDEST PUSH1 0x8 PUSH1 0x20 SWAP1 DUP2 MSTORE PUSH1 0x0 SWAP3 DUP4 MSTORE PUSH1 0x40 DUP1 DUP5 KECCAK256 SWAP1 SWAP2 MSTORE SWAP1 DUP3 MSTORE SWAP1 KECCAK256 SLOAD DUP2 JUMP JUMPDEST CALLVALUE DUP1 ISZERO PUSH2 0x840 JUMPI PUSH1 0x0 DUP1 REVERT JUMPDEST POP PUSH1 0x15 SLOAD PUSH1 0x16 SLOAD PUSH1 0x17 SLOAD PUSH1 0x18 SLOAD PUSH2 0x6CB SWAP4 SWAP3 SWAP2 SWAP1 DUP5 JUMP JUMPDEST CALLVALUE DUP1 ISZERO PUSH2 0x863 JUMPI PUSH1 0x0 DUP1 REVERT JUMPDEST POP PUSH1 0xD SLOAD PUSH2 0x3F7 SWAP1 PUSH1 0x1 PUSH1 0x1 PUSH1 0xA0 SHL SUB AND DUP2 JUMP JUMPDEST CALLVALUE DUP1 ISZERO PUSH2 0x883 JUMPI PUSH1 0x0 DUP1 REVERT JUMPDEST POP PUSH2 0x3D5 PUSH2 0x892 CALLDATASIZE PUSH1 0x4 PUSH2 0x50AC JUMP JUMPDEST PUSH2 0x2E19 JUMP JUMPDEST CALLVALUE DUP1 ISZERO PUSH2 0x8A3 JUMPI PUSH1 0x0 DUP1 REVERT JUMPDEST POP PUSH2 0x3D5 PUSH2 0x8B2 CALLDATASIZE PUSH1 0x4 PUSH2 0x50C9 JUMP JUMPDEST PUSH2 0x2EA8 JUMP JUMPDEST CALLVALUE DUP1 ISZERO PUSH2 0x8C3 JUMPI PUSH1 0x0 DUP1 REVERT JUMPDEST POP PUSH2 0x3A0 PUSH2 0x8D2 CALLDATASIZE PUSH1 0x4 PUSH2 0x4E69 JUMP JUMPDEST PUSH1 0xFF SWAP2 DUP3 AND PUSH1 0x0 SWAP1 DUP2 MSTORE PUSH1 0xC PUSH1 0x20 SWAP1 DUP2 MSTORE PUSH1 0x40 DUP1 DUP4 KECCAK256 SWAP4 DUP6 AND DUP4 MSTORE SWAP3 SWAP1 MSTORE KECCAK256 SLOAD AND SWAP1 JUMP JUMPDEST CALLVALUE DUP1 ISZERO PUSH2 0x902 JUMPI PUSH1 0x0 DUP1 REVERT JUMPDEST POP PUSH1 0x21 SLOAD PUSH1 0x22 SLOAD PUSH1 0x23 SLOAD PUSH1 0x24 SLOAD PUSH2 0x6CB SWAP4 SWAP3 SWAP2 SWAP1 DUP5 JUMP JUMPDEST CALLVALUE DUP1 ISZERO PUSH2 0x925 JUMPI PUSH1 0x0 DUP1 REVERT JUMPDEST POP PUSH1 0x10 SLOAD PUSH2 0x3F7 SWAP1 PUSH1 0x1 PUSH1 0x1 PUSH1 0xA0 SHL SUB AND DUP2 JUMP JUMPDEST CALLVALUE DUP1 ISZERO PUSH2 0x945 JUMPI PUSH1 0x0 DUP1 REVERT JUMPDEST POP PUSH2 0x959 PUSH2 0x954 CALLDATASIZE PUSH1 0x4 PUSH2 0x4E69 JUMP JUMPDEST PUSH2 0x2F41 JUMP JUMPDEST PUSH1 0x40 MLOAD PUSH2 0x3AC SWAP2 SWAP1 PUSH2 0x5109 JUMP JUMPDEST CALLVALUE DUP1 ISZERO PUSH2 0x972 JUMPI PUSH1 0x0 DUP1 REVERT JUMPDEST POP PUSH2 0x49A PUSH2 0x3E8 DUP2 JUMP JUMPDEST CALLVALUE DUP1 ISZERO PUSH2 0x988 JUMPI PUSH1 0x0 DUP1 REVERT JUMPDEST POP PUSH2 0x99C PUSH2 0x997 CALLDATASIZE PUSH1 0x4 PUSH2 0x4E69 JUMP JUMPDEST PUSH2 0x318B JUMP JUMPDEST PUSH1 0x40 MLOAD PUSH2 0x3AC SWAP2 SWAP1 PUSH2 0x51C7 JUMP JUMPDEST CALLVALUE DUP1 ISZERO PUSH2 0x9B5 JUMPI PUSH1 0x0 DUP1 REVERT JUMPDEST POP PUSH2 0x3D5 PUSH2 0x3315 JUMP JUMPDEST CALLVALUE DUP1 ISZERO PUSH2 0x9CA JUMPI PUSH1 0x0 DUP1 REVERT JUMPDEST POP PUSH2 0x6CB PUSH2 0x9D9 CALLDATASIZE PUSH1 0x4 PUSH2 0x522C JUMP JUMPDEST PUSH1 0x2B PUSH1 0x20 MSTORE PUSH1 0x0 SWAP1 DUP2 MSTORE PUSH1 0x40 SWAP1 KECCAK256 DUP1 SLOAD PUSH1 0x1 DUP3 ADD SLOAD PUSH1 0x2 DUP4 ADD SLOAD PUSH1 0x3 SWAP1 SWAP4 ADD SLOAD SWAP2 SWAP3 SWAP1 SWAP2 DUP5 JUMP JUMPDEST CALLVALUE DUP1 ISZERO PUSH2 0xA0C JUMPI PUSH1 0x0 DUP1 REVERT JUMPDEST POP PUSH2 0x3A0 PUSH2 0xA1B CALLDATASIZE PUSH1 0x4 PUSH2 0x4E69 JUMP JUMPDEST PUSH1 0xC PUSH1 0x20 SWAP1 DUP2 MSTORE PUSH1 0x0 SWAP3 DUP4 MSTORE PUSH1 0x40 DUP1 DUP5 KECCAK256 SWAP1 SWAP2 MSTORE SWAP1 DUP3 MSTORE SWAP1 KECCAK256 SLOAD PUSH1 0xFF AND DUP2 JUMP JUMPDEST CALLVALUE DUP1 ISZERO PUSH2 0xA47 JUMPI PUSH1 0x0 DUP1 REVERT JUMPDEST POP PUSH2 0xAA5 PUSH2 0xA56 CALLDATASIZE PUSH1 0x4 PUSH2 0x4E69 JUMP JUMPDEST PUSH1 0x40 DUP1 MLOAD DUP1 DUP3 ADD DUP3 MSTORE PUSH1 0x0 DUP1 DUP3 MSTORE PUSH1 0x20 SWAP2 DUP3 ADD DUP2 SWAP1 MSTORE PUSH1 0xFF SWAP5 DUP6 AND DUP2 MSTORE PUSH1 0x29 DUP3 MSTORE DUP3 DUP2 KECCAK256 SWAP4 SWAP1 SWAP5 AND DUP5 MSTORE SWAP2 DUP3 MSTORE SWAP2 DUP3 SWAP1 KECCAK256 DUP3 MLOAD DUP1 DUP5 ADD SWAP1 SWAP4 MSTORE PUSH1 0x4 DUP2 ADD SLOAD PUSH2 0xFFFF AND DUP4 MSTORE PUSH1 0xF ADD SLOAD SWAP1 DUP3 ADD MSTORE SWAP1 JUMP JUMPDEST PUSH1 0x40 DUP1 MLOAD DUP3 MLOAD PUSH2 0xFFFF AND DUP2 MSTORE PUSH1 0x20 SWAP3 DUP4 ADD MLOAD SWAP3 DUP2 ADD SWAP3 SWAP1 SWAP3 MSTORE ADD PUSH2 0x3AC JUMP JUMPDEST CALLVALUE DUP1 ISZERO PUSH2 0xAD0 JUMPI PUSH1 0x0 DUP1 REVERT JUMPDEST POP PUSH1 0xE SLOAD PUSH2 0x3F7 SWAP1 PUSH1 0x1 PUSH1 0x1 PUSH1 0xA0 SHL SUB AND DUP2 JUMP JUMPDEST CALLVALUE DUP1 ISZERO PUSH2 0xAF0 JUMPI PUSH1 0x0 DUP1 REVERT JUMPDEST POP PUSH2 0x3D5 PUSH2 0xAFF CALLDATASIZE PUSH1 0x4 PUSH2 0x4E69 JUMP JUMPDEST PUSH2 0x33EF JUMP JUMPDEST CALLVALUE DUP1 ISZERO PUSH2 0xB10 JUMPI PUSH1 0x0 DUP1 REVERT JUMPDEST POP PUSH2 0x49A PUSH1 0x7 SLOAD DUP2 JUMP JUMPDEST CALLVALUE DUP1 ISZERO PUSH2 0xB26 JUMPI PUSH1 0x0 DUP1 REVERT JUMPDEST POP PUSH2 0xB2F PUSH1 0x9 DUP2 JUMP JUMPDEST PUSH1 0x40 MLOAD PUSH1 0xFF SWAP1 SWAP2 AND DUP2 MSTORE PUSH1 0x20 ADD PUSH2 0x3AC JUMP JUMPDEST CALLVALUE DUP1 ISZERO PUSH2 0xB4D JUMPI PUSH1 0x0 DUP1 REVERT JUMPDEST POP PUSH1 0x10 SLOAD PUSH21 0x10000000000000000000000000000000000000000 SWAP1 DIV PUSH1 0xFF AND PUSH2 0x3A0 JUMP JUMPDEST PUSH2 0x3D5 PUSH2 0xB7F CALLDATASIZE PUSH1 0x4 PUSH2 0x5249 JUMP JUMPDEST PUSH2 0x34C4 JUMP JUMPDEST CALLVALUE DUP1 ISZERO PUSH2 0xB90 JUMPI PUSH1 0x0 DUP1 REVERT JUMPDEST POP PUSH2 0x49A PUSH2 0xB9F CALLDATASIZE PUSH1 0x4 PUSH2 0x4E69 JUMP JUMPDEST PUSH2 0x3D1D JUMP JUMPDEST CALLVALUE DUP1 ISZERO PUSH2 0xBB0 JUMPI PUSH1 0x0 DUP1 REVERT JUMPDEST POP PUSH2 0x3D5 PUSH2 0xBBF CALLDATASIZE PUSH1 0x4 PUSH2 0x4EA2 JUMP JUMPDEST PUSH2 0x3EC6 JUMP JUMPDEST CALLVALUE DUP1 ISZERO PUSH2 0xBD0 JUMPI PUSH1 0x0 DUP1 REVERT JUMPDEST POP PUSH1 0x25 SLOAD PUSH1 0x26 SLOAD PUSH1 0x27 SLOAD PUSH1 0x28 SLOAD PUSH2 0x6CB SWAP4 SWAP3 SWAP2 SWAP1 DUP5 JUMP JUMPDEST CALLVALUE DUP1 ISZERO PUSH2 0xBF3 JUMPI PUSH1 0x0 DUP1 REVERT JUMPDEST POP PUSH2 0x3D5 PUSH2 0xC02 CALLDATASIZE PUSH1 0x4 PUSH2 0x4F08 JUMP JUMPDEST PUSH2 0x430B JUMP JUMPDEST PUSH2 0xC0F PUSH2 0x43F5 JUMP JUMPDEST PUSH1 0x2 SLOAD PUSH1 0x40 MLOAD PUSH4 0x8A888953 PUSH1 0xE0 SHL DUP2 MSTORE PUSH1 0xFF DUP1 DUP8 AND PUSH1 0x4 DUP4 ADD MSTORE DUP6 AND PUSH1 0x24 DUP3 ADD MSTORE DUP6 SWAP2 DUP6 SWAP2 CALLER SWAP2 PUSH1 0x1 PUSH1 0x1 PUSH1 0xA0 SHL SUB AND SWAP1 PUSH4 0x8A888953 SWAP1 PUSH1 0x44 ADD PUSH1 0x20 PUSH1 0x40 MLOAD DUP1 DUP4 SUB DUP2 DUP7 GAS STATICCALL ISZERO DUP1 ISZERO PUSH2 0xC66 JUMPI RETURNDATASIZE PUSH1 0x0 DUP1 RETURNDATACOPY RETURNDATASIZE PUSH1 0x0 REVERT JUMPDEST POP POP POP POP PUSH1 0x40 MLOAD RETURNDATASIZE PUSH1 0x1F NOT PUSH1 0x1F DUP3 ADD AND DUP3 ADD DUP1 PUSH1 0x40 MSTORE POP DUP2 ADD SWAP1 PUSH2 0xC8A SWAP2 SWAP1 PUSH2 0x5270 JUMP JUMPDEST PUSH1 0x1 PUSH1 0x1 PUSH1 0xA0 SHL SUB AND EQ PUSH2 0xCCB JUMPI PUSH1 0x40 MLOAD PUSH3 0x461BCD PUSH1 0xE5 SHL DUP2 MSTORE PUSH1 0x20 PUSH1 0x4 DUP3 ADD MSTORE PUSH1 0x3 PUSH1 0x24 DUP3 ADD MSTORE PUSH3 0x37BBB7 PUSH1 0xE9 SHL PUSH1 0x44 DUP3 ADD MSTORE PUSH1 0x64 ADD JUMPDEST PUSH1 0x40 MLOAD DUP1 SWAP2 SUB SWAP1 REVERT JUMPDEST PUSH1 0x0 DUP4 GT DUP1 ISZERO PUSH2 0xCDD JUMPI POP PUSH2 0x3E8 DUP4 GT ISZERO JUMPDEST PUSH2 0xD29 JUMPI PUSH1 0x40 MLOAD PUSH3 0x461BCD PUSH1 0xE5 SHL DUP2 MSTORE PUSH1 0x20 PUSH1 0x4 DUP3 ADD MSTORE PUSH1 0x10 PUSH1 0x24 DUP3 ADD MSTORE PUSH32 0x496E76616C6964207175616E7469747900000000000000000000000000000000 PUSH1 0x44 DUP3 ADD MSTORE PUSH1 0x64 ADD PUSH2 0xCC2 JUMP JUMPDEST DUP4 PUSH1 0xFF AND PUSH1 0x1 EQ DUP1 PUSH2 0xD3E JUMPI POP DUP4 PUSH1 0xFF AND PUSH1 0x2 EQ JUMPDEST PUSH2 0xD6E JUMPI PUSH1 0x40 MLOAD PUSH3 0x461BCD PUSH1 0xE5 SHL DUP2 MSTORE PUSH1 0x20 PUSH1 0x4 DUP3 ADD MSTORE PUSH1 0x1 PUSH1 0x24 DUP3 ADD MSTORE PUSH1 0x1D PUSH1 0xFA SHL PUSH1 0x44 DUP3 ADD MSTORE PUSH1 0x64 ADD PUSH2 0xCC2 JUMP JUMPDEST PUSH1 0x0 PUSH2 0xD7C DUP8 DUP8 PUSH1 0x1 PUSH2 0x444E JUMP JUMPDEST SWAP1 POP PUSH1 0x0 DUP2 GT PUSH2 0xDCE JUMPI PUSH1 0x40 MLOAD PUSH3 0x461BCD PUSH1 0xE5 SHL DUP2 MSTORE PUSH1 0x20 PUSH1 0x4 DUP3 ADD MSTORE PUSH1 0x1 PUSH1 0x24 DUP3 ADD MSTORE PUSH32 0x6100000000000000000000000000000000000000000000000000000000000000 PUSH1 0x44 DUP3 ADD MSTORE PUSH1 0x64 ADD PUSH2 0xCC2 JUMP JUMPDEST PUSH1 0x0 DUP6 PUSH1 0xFF AND PUSH1 0x1 EQ PUSH2 0xDE2 JUMPI PUSH1 0x15 PUSH2 0xDE5 JUMP JUMPDEST PUSH1 0x11 JUMPDEST PUSH1 0x40 DUP1 MLOAD PUSH1 0x80 DUP2 ADD DUP3 MSTORE DUP3 SLOAD DUP2 MSTORE PUSH1 0x1 DUP4 ADD SLOAD PUSH1 0x20 DUP3 ADD MSTORE PUSH1 0x2 DUP4 ADD SLOAD SWAP2 DUP2 ADD SWAP2 SWAP1 SWAP2 MSTORE PUSH1 0x3 SWAP1 SWAP2 ADD SLOAD PUSH1 0x60 DUP3 ADD MSTORE SWAP1 POP PUSH2 0xE23 DUP9 DUP9 DUP4 DUP9 DUP7 PUSH2 0x44E9 JUMP JUMPDEST DUP6 PUSH1 0xFF AND PUSH1 0x1 SUB PUSH2 0xE6D JUMPI PUSH1 0xFF DUP1 DUP10 AND PUSH1 0x0 SWAP1 DUP2 MSTORE PUSH1 0x29 PUSH1 0x20 SWAP1 DUP2 MSTORE PUSH1 0x40 DUP1 DUP4 KECCAK256 SWAP4 DUP12 AND DUP4 MSTORE SWAP3 SWAP1 MSTORE SWAP1 DUP2 KECCAK256 PUSH1 0x8 ADD DUP1 SLOAD DUP8 SWAP3 SWAP1 PUSH2 0xE62 SWAP1 DUP5 SWAP1 PUSH2 0x52BC JUMP JUMPDEST SWAP1 SWAP2 SSTORE POP PUSH2 0xEA7 SWAP1 POP JUMP JUMPDEST PUSH1 0xFF DUP1 DUP10 AND PUSH1 0x0 SWAP1 DUP2 MSTORE PUSH1 0x29 PUSH1 0x20 SWAP1 DUP2 MSTORE PUSH1 0x40 DUP1 DUP4 KECCAK256 SWAP4 DUP12 AND DUP4 MSTORE SWAP3 SWAP1 MSTORE SWAP1 DUP2 KECCAK256 PUSH1 0x9 ADD DUP1 SLOAD DUP8 SWAP3 SWAP1 PUSH2 0xEA1 SWAP1 DUP5 SWAP1 PUSH2 0x52BC JUMP JUMPDEST SWAP1 SWAP2 SSTORE POP POP JUMPDEST POP POP POP POP PUSH2 0xEB5 PUSH1 0x1 PUSH1 0x0 SSTORE JUMP JUMPDEST POP POP POP POP JUMP JUMPDEST PUSH1 0xD SLOAD PUSH1 0x1 PUSH1 0x1 PUSH1 0xA0 SHL SUB AND CALLER EQ PUSH2 0xEFF JUMPI PUSH1 0x40 MLOAD PUSH32 0x30CD747100000000000000000000000000000000000000000000000000000000 DUP2 MSTORE PUSH1 0x4 ADD PUSH1 0x40 MLOAD DUP1 SWAP2 SUB SWAP1 REVERT JUMPDEST PUSH1 0x10 SLOAD PUSH22 0x1000000000000000000000000000000000000000000 SWAP1 DIV PUSH1 0xFF AND ISZERO PUSH2 0xF6B JUMPI PUSH1 0x40 MLOAD PUSH3 0x461BCD PUSH1 0xE5 SHL DUP2 MSTORE PUSH1 0x20 PUSH1 0x4 DUP3 ADD MSTORE PUSH1 0x5 PUSH1 0x24 DUP3 ADD MSTORE PUSH32 0x6B696C6974000000000000000000000000000000000000000000000000000000 PUSH1 0x44 DUP3 ADD MSTORE PUSH1 0x64 ADD PUSH2 0xCC2 JUMP JUMPDEST PUSH1 0xF DUP1 SLOAD PUSH32 0xFFFFFFFFFFFFFFFFFFFFFFFF0000000000000000000000000000000000000000 AND PUSH1 0x1 PUSH1 0x1 PUSH1 0xA0 SHL SUB SWAP3 SWAP1 SWAP3 AND SWAP2 SWAP1 SWAP2 OR SWAP1 SSTORE JUMP JUMPDEST PUSH2 0xFAD PUSH2 0x43F5 JUMP JUMPDEST PUSH1 0x2 SLOAD PUSH1 0x40 MLOAD PUSH4 0x8A888953 PUSH1 0xE0 SHL DUP2 MSTORE PUSH1 0xFF DUP1 DUP9 AND PUSH1 0x4 DUP4 ADD MSTORE DUP7 AND PUSH1 0x24 DUP3 ADD MSTORE DUP7 SWAP2 DUP7 SWAP2 CALLER SWAP2 PUSH1 0x1 PUSH1 0x1 PUSH1 0xA0 SHL SUB AND SWAP1 PUSH4 0x8A888953 SWAP1 PUSH1 0x44 ADD PUSH1 0x20 PUSH1 0x40 MLOAD DUP1 DUP4 SUB DUP2 DUP7 GAS STATICCALL ISZERO DUP1 ISZERO PUSH2 0x1004 JUMPI RETURNDATASIZE PUSH1 0x0 DUP1 RETURNDATACOPY RETURNDATASIZE PUSH1 0x0 REVERT JUMPDEST POP POP POP POP PUSH1 0x40 MLOAD RETURNDATASIZE PUSH1 0x1F NOT PUSH1 0x1F DUP3 ADD AND DUP3 ADD DUP1 PUSH1 0x40 MSTORE POP DUP2 ADD SWAP1 PUSH2 0x1028 SWAP2 SWAP1 PUSH2 0x5270 JUMP JUMPDEST PUSH1 0x1 PUSH1 0x1 PUSH1 0xA0 SHL SUB AND EQ PUSH2 0x1064 JUMPI PUSH1 0x40 MLOAD PUSH3 0x461BCD PUSH1 0xE5 SHL DUP2 MSTORE PUSH1 0x20 PUSH1 0x4 DUP3 ADD MSTORE PUSH1 0x3 PUSH1 0x24 DUP3 ADD MSTORE PUSH3 0x37BBB7 PUSH1 0xE9 SHL PUSH1 0x44 DUP3 ADD MSTORE PUSH1 0x64 ADD PUSH2 0xCC2 JUMP JUMPDEST DUP5 DUP5 PUSH1 0x9 PUSH1 0xFF DUP4 AND LT DUP1 ISZERO PUSH2 0x107C JUMPI POP PUSH1 0x9 PUSH1 0xFF DUP3 AND LT JUMPDEST PUSH2 0x10C8 JUMPI PUSH1 0x40 MLOAD PUSH3 0x461BCD PUSH1 0xE5 SHL DUP2 MSTORE PUSH1 0x20 PUSH1 0x4 DUP3 ADD MSTORE PUSH1 0x5 PUSH1 0x24 DUP3 ADD MSTORE PUSH32 0x636F6F7264000000000000000000000000000000000000000000000000000000 PUSH1 0x44 DUP3 ADD MSTORE PUSH1 0x64 ADD PUSH2 0xCC2 JUMP JUMPDEST PUSH2 0x10D1 DUP6 PUSH2 0x4758 JUMP JUMPDEST PUSH2 0x1107 JUMPI PUSH1 0x40 MLOAD PUSH32 0xB44D49E600000000000000000000000000000000000000000000000000000000 DUP2 MSTORE PUSH1 0x4 ADD PUSH1 0x40 MLOAD DUP1 SWAP2 SUB SWAP1 REVERT JUMPDEST DUP7 PUSH1 0xFF AND PUSH1 0x4 EQ DUP1 ISZERO PUSH2 0x111D JUMPI POP DUP6 PUSH1 0xFF AND PUSH1 0x4 EQ JUMPDEST ISZERO PUSH2 0x116A JUMPI PUSH1 0x40 MLOAD PUSH3 0x461BCD PUSH1 0xE5 SHL DUP2 MSTORE PUSH1 0x20 PUSH1 0x4 DUP3 ADD MSTORE PUSH1 0x1 PUSH1 0x24 DUP3 ADD MSTORE PUSH32 0x6300000000000000000000000000000000000000000000000000000000000000 PUSH1 0x44 DUP3 ADD MSTORE PUSH1 0x64 ADD PUSH2 0xCC2 JUMP JUMPDEST PUSH1 0xFF DUP1 DUP11 AND PUSH1 0x0 SWAP1 DUP2 MSTORE PUSH1 0x2A PUSH1 0x20 SWAP1 DUP2 MSTORE PUSH1 0x40 DUP1 DUP4 KECCAK256 DUP13 DUP6 AND DUP5 MSTORE DUP3 MSTORE DUP1 DUP4 KECCAK256 DUP12 DUP6 AND DUP5 MSTORE DUP3 MSTORE DUP1 DUP4 KECCAK256 DUP11 DUP6 AND DUP5 MSTORE SWAP1 SWAP2 MSTORE SWAP1 KECCAK256 SLOAD AND DUP1 ISZERO PUSH2 0x11EE JUMPI PUSH1 0x40 MLOAD PUSH3 0x461BCD PUSH1 0xE5 SHL DUP2 MSTORE PUSH1 0x20 PUSH1 0x4 DUP3 ADD MSTORE PUSH1 0x1 PUSH1 0x24 DUP3 ADD MSTORE PUSH32 0x6500000000000000000000000000000000000000000000000000000000000000 PUSH1 0x44 DUP3 ADD MSTORE PUSH1 0x64 ADD PUSH2 0xCC2 JUMP JUMPDEST DUP6 PUSH1 0xFF AND PUSH1 0x3 SUB PUSH2 0x1281 JUMPI PUSH2 0x1205 DUP11 DUP11 PUSH1 0x3 PUSH2 0x444E JUMP JUMPDEST ISZERO PUSH2 0x1252 JUMPI PUSH1 0x40 MLOAD PUSH3 0x461BCD PUSH1 0xE5 SHL DUP2 MSTORE PUSH1 0x20 PUSH1 0x4 DUP3 ADD MSTORE PUSH1 0x1 PUSH1 0x24 DUP3 ADD MSTORE PUSH32 0x6300000000000000000000000000000000000000000000000000000000000000 PUSH1 0x44 DUP3 ADD MSTORE PUSH1 0x64 ADD PUSH2 0xCC2 JUMP JUMPDEST PUSH1 0xFF DUP1 DUP12 AND PUSH1 0x0 SWAP1 DUP2 MSTORE PUSH1 0x9 PUSH1 0x20 SWAP1 DUP2 MSTORE PUSH1 0x40 DUP1 DUP4 KECCAK256 SWAP4 DUP14 AND DUP4 MSTORE SWAP3 SWAP1 MSTORE KECCAK256 DUP1 SLOAD PUSH1 0xFF NOT AND PUSH1 0x1 OR SWAP1 SSTORE PUSH2 0x1310 JUMP JUMPDEST DUP6 PUSH1 0xFF AND PUSH1 0x6 SUB PUSH2 0x1310 JUMPI PUSH2 0x1298 DUP11 DUP11 PUSH1 0x6 PUSH2 0x444E JUMP JUMPDEST ISZERO PUSH2 0x12E5 JUMPI PUSH1 0x40 MLOAD PUSH3 0x461BCD PUSH1 0xE5 SHL DUP2 MSTORE PUSH1 0x20 PUSH1 0x4 DUP3 ADD MSTORE PUSH1 0x1 PUSH1 0x24 DUP3 ADD MSTORE PUSH32 0x6D00000000000000000000000000000000000000000000000000000000000000 PUSH1 0x44 DUP3 ADD MSTORE PUSH1 0x64 ADD PUSH2 0xCC2 JUMP JUMPDEST PUSH1 0xFF DUP1 DUP12 AND PUSH1 0x0 SWAP1 DUP2 MSTORE PUSH1 0xA PUSH1 0x20 SWAP1 DUP2 MSTORE PUSH1 0x40 DUP1 DUP4 KECCAK256 SWAP4 DUP14 AND DUP4 MSTORE SWAP3 SWAP1 MSTORE KECCAK256 DUP1 SLOAD PUSH1 0xFF NOT AND PUSH1 0x1 OR SWAP1 SSTORE JUMPDEST PUSH1 0xFF DUP7 AND PUSH1 0x0 SWAP1 DUP2 MSTORE PUSH1 0x2B PUSH1 0x20 SWAP1 DUP2 MSTORE PUSH1 0x40 SWAP2 DUP3 SWAP1 KECCAK256 DUP3 MLOAD PUSH1 0x80 DUP2 ADD DUP5 MSTORE DUP2 SLOAD DUP1 DUP3 MSTORE PUSH1 0x1 DUP4 ADD SLOAD SWAP4 DUP3 ADD DUP5 SWAP1 MSTORE PUSH1 0x2 DUP4 ADD SLOAD SWAP5 DUP3 ADD DUP6 SWAP1 MSTORE PUSH1 0x3 SWAP1 SWAP3 ADD SLOAD PUSH1 0x60 DUP3 ADD DUP2 SWAP1 MSTORE SWAP1 SWAP4 SWAP3 SWAP1 SWAP2 OR SWAP1 SWAP2 OR OR PUSH2 0x13AE JUMPI PUSH1 0x40 MLOAD PUSH3 0x461BCD PUSH1 0xE5 SHL DUP2 MSTORE PUSH1 0x4 ADD PUSH2 0xCC2 SWAP1 PUSH1 0x20 DUP1 DUP3 MSTORE PUSH1 0x4 SWAP1 DUP3 ADD MSTORE PUSH32 0x6672656500000000000000000000000000000000000000000000000000000000 PUSH1 0x40 DUP3 ADD MSTORE PUSH1 0x60 ADD SWAP1 JUMP JUMPDEST PUSH1 0xFF DUP1 DUP13 AND PUSH1 0x0 SWAP1 DUP2 MSTORE PUSH1 0x29 PUSH1 0x20 SWAP1 DUP2 MSTORE PUSH1 0x40 DUP1 DUP4 KECCAK256 SWAP4 DUP15 AND DUP4 MSTORE SWAP3 SWAP1 MSTORE KECCAK256 DUP2 MLOAD DUP2 SLOAD LT ISZERO PUSH2 0x141F JUMPI PUSH1 0x40 MLOAD PUSH3 0x461BCD PUSH1 0xE5 SHL DUP2 MSTORE PUSH1 0x20 PUSH1 0x4 DUP3 ADD MSTORE PUSH1 0x1 PUSH1 0x24 DUP3 ADD MSTORE PUSH32 0x6600000000000000000000000000000000000000000000000000000000000000 PUSH1 0x44 DUP3 ADD MSTORE PUSH1 0x64 ADD PUSH2 0xCC2 JUMP JUMPDEST PUSH1 0x20 DUP3 ADD MLOAD PUSH1 0x1 DUP3 ADD SLOAD LT ISZERO PUSH2 0x1477 JUMPI PUSH1 0x40 MLOAD PUSH3 0x461BCD PUSH1 0xE5 SHL DUP2 MSTORE PUSH1 0x20 PUSH1 0x4 DUP3 ADD MSTORE PUSH1 0x1 PUSH1 0x24 DUP3 ADD MSTORE PUSH32 0x7700000000000000000000000000000000000000000000000000000000000000 PUSH1 0x44 DUP3 ADD MSTORE PUSH1 0x64 ADD PUSH2 0xCC2 JUMP JUMPDEST PUSH1 0x40 DUP3 ADD MLOAD PUSH1 0x2 DUP3 ADD SLOAD LT ISZERO PUSH2 0x14CF JUMPI PUSH1 0x40 MLOAD PUSH3 0x461BCD PUSH1 0xE5 SHL DUP2 MSTORE PUSH1 0x20 PUSH1 0x4 DUP3 ADD MSTORE PUSH1 0x1 PUSH1 0x24 DUP3 ADD MSTORE PUSH32 0x7300000000000000000000000000000000000000000000000000000000000000 PUSH1 0x44 DUP3 ADD MSTORE PUSH1 0x64 ADD PUSH2 0xCC2 JUMP JUMPDEST PUSH1 0x60 DUP3 ADD MLOAD PUSH1 0x3 DUP3 ADD SLOAD LT ISZERO PUSH2 0x1527 JUMPI PUSH1 0x40 MLOAD PUSH3 0x461BCD PUSH1 0xE5 SHL DUP2 MSTORE PUSH1 0x20 PUSH1 0x4 DUP3 ADD MSTORE PUSH1 0x1 PUSH1 0x24 DUP3 ADD MSTORE PUSH32 0x6900000000000000000000000000000000000000000000000000000000000000 PUSH1 0x44 DUP3 ADD MSTORE PUSH1 0x64 ADD PUSH2 0xCC2 JUMP JUMPDEST DUP2 MLOAD DUP2 SLOAD DUP3 SWAP1 PUSH1 0x0 SWAP1 PUSH2 0x153B SWAP1 DUP5 SWAP1 PUSH2 0x52CF JUMP JUMPDEST SWAP1 SWAP2 SSTORE POP POP PUSH1 0x20 DUP3 ADD MLOAD PUSH1 0x1 DUP3 ADD DUP1 SLOAD PUSH1 0x0 SWAP1 PUSH2 0x1559 SWAP1 DUP5 SWAP1 PUSH2 0x52CF JUMP JUMPDEST SWAP1 SWAP2 SSTORE POP POP PUSH1 0x40 DUP3 ADD MLOAD PUSH1 0x2 DUP3 ADD DUP1 SLOAD PUSH1 0x0 SWAP1 PUSH2 0x1577 SWAP1 DUP5 SWAP1 PUSH2 0x52CF JUMP JUMPDEST SWAP1 SWAP2 SSTORE POP POP PUSH1 0x60 DUP3 ADD MLOAD PUSH1 0x3 DUP3 ADD DUP1 SLOAD PUSH1 0x0 SWAP1 PUSH2 0x1595 SWAP1 DUP5 SWAP1 PUSH2 0x52CF JUMP JUMPDEST SWAP1 SWAP2 SSTORE POP POP PUSH1 0xFF DUP13 DUP2 AND PUSH1 0x0 SWAP1 DUP2 MSTORE PUSH1 0x2A PUSH1 0x20 SWAP1 DUP2 MSTORE PUSH1 0x40 DUP1 DUP4 KECCAK256 DUP16 DUP6 AND DUP5 MSTORE DUP3 MSTORE DUP1 DUP4 KECCAK256 DUP15 DUP6 AND DUP5 MSTORE DUP3 MSTORE DUP1 DUP4 KECCAK256 DUP14 DUP6 AND DUP5 MSTORE SWAP1 SWAP2 MSTORE SWAP1 KECCAK256 DUP1 SLOAD PUSH1 0xFF NOT AND SWAP2 DUP11 AND SWAP2 SWAP1 SWAP2 OR SWAP1 SSTORE PUSH2 0x15E8 DUP2 DUP14 DUP14 PUSH2 0x4776 JUMP JUMPDEST POP POP POP POP POP POP POP PUSH2 0x15F9 PUSH1 0x1 PUSH1 0x0 SSTORE JUMP JUMPDEST POP POP POP POP POP JUMP JUMPDEST PUSH1 0xD SLOAD PUSH1 0x1 PUSH1 0x1 PUSH1 0xA0 SHL SUB AND CALLER EQ PUSH2 0x1644 JUMPI PUSH1 0x40 MLOAD PUSH32 0x30CD747100000000000000000000000000000000000000000000000000000000 DUP2 MSTORE PUSH1 0x4 ADD PUSH1 0x40 MLOAD DUP1 SWAP2 SUB SWAP1 REVERT JUMPDEST PUSH2 0x164C PUSH2 0x43F5 JUMP JUMPDEST PUSH1 0x10 SLOAD PUSH22 0x1000000000000000000000000000000000000000000 SWAP1 DIV PUSH1 0xFF AND ISZERO PUSH2 0x16B8 JUMPI PUSH1 0x40 MLOAD PUSH3 0x461BCD PUSH1 0xE5 SHL DUP2 MSTORE PUSH1 0x20 PUSH1 0x4 DUP3 ADD MSTORE PUSH1 0x5 PUSH1 0x24 DUP3 ADD MSTORE PUSH32 0x6B696C6974000000000000000000000000000000000000000000000000000000 PUSH1 0x44 DUP3 ADD MSTORE PUSH1 0x64 ADD PUSH2 0xCC2 JUMP JUMPDEST PUSH1 0x1 SLOAD PUSH1 0x40 MLOAD PUSH32 0x70A0823100000000000000000000000000000000000000000000000000000000 DUP2 MSTORE ADDRESS PUSH1 0x4 DUP3 ADD MSTORE PUSH1 0x0 SWAP2 PUSH1 0x1 PUSH1 0x1 PUSH1 0xA0 SHL SUB AND SWAP1 PUSH4 0x70A08231 SWAP1 PUSH1 0x24 ADD PUSH1 0x20 PUSH1 0x40 MLOAD DUP1 DUP4 SUB DUP2 DUP7 GAS STATICCALL ISZERO DUP1 ISZERO PUSH2 0x171A JUMPI RETURNDATASIZE PUSH1 0x0 DUP1 RETURNDATACOPY RETURNDATASIZE PUSH1 0x0 REVERT JUMPDEST POP POP POP POP PUSH1 0x40 MLOAD RETURNDATASIZE PUSH1 0x1F NOT PUSH1 0x1F DUP3 ADD AND DUP3 ADD DUP1 PUSH1 0x40 MSTORE POP DUP2 ADD SWAP1 PUSH2 0x173E SWAP2 SWAP1 PUSH2 0x52E2 JUMP JUMPDEST SWAP1 POP DUP1 PUSH1 0x0 SUB PUSH2 0x177A JUMPI PUSH1 0x40 MLOAD PUSH32 0x1F2A200500000000000000000000000000000000000000000000000000000000 DUP2 MSTORE PUSH1 0x4 ADD PUSH1 0x40 MLOAD DUP1 SWAP2 SUB SWAP1 REVERT JUMPDEST PUSH1 0x1 SLOAD PUSH1 0xD SLOAD PUSH1 0x40 MLOAD PUSH32 0xA9059CBB00000000000000000000000000000000000000000000000000000000 DUP2 MSTORE PUSH1 0x1 PUSH1 0x1 PUSH1 0xA0 SHL SUB SWAP2 DUP3 AND PUSH1 0x4 DUP3 ADD MSTORE PUSH1 0x24 DUP2 ADD DUP5 SWAP1 MSTORE PUSH1 0x0 SWAP3 SWAP2 SWAP1 SWAP2 AND SWAP1 PUSH4 0xA9059CBB SWAP1 PUSH1 0x44 ADD PUSH1 0x20 PUSH1 0x40 MLOAD DUP1 DUP4 SUB DUP2 PUSH1 0x0 DUP8 GAS CALL ISZERO DUP1 ISZERO PUSH2 0x17ED JUMPI RETURNDATASIZE PUSH1 0x0 DUP1 RETURNDATACOPY RETURNDATASIZE PUSH1 0x0 REVERT JUMPDEST POP POP POP POP PUSH1 0x40 MLOAD RETURNDATASIZE PUSH1 0x1F NOT PUSH1 0x1F DUP3 ADD AND DUP3 ADD DUP1 PUSH1 0x40 MSTORE POP DUP2 ADD SWAP1 PUSH2 0x1811 SWAP2 SWAP1 PUSH2 0x52FB JUMP JUMPDEST SWAP1 POP DUP1 PUSH2 0x1860 JUMPI PUSH1 0x40 MLOAD PUSH3 0x461BCD PUSH1 0xE5 SHL DUP2 MSTORE PUSH1 0x20 PUSH1 0x4 DUP3 ADD MSTORE PUSH1 0x13 PUSH1 0x24 DUP3 ADD MSTORE PUSH32 0x4C4F50207769746864726177206661696C656400000000000000000000000000 PUSH1 0x44 DUP3 ADD MSTORE PUSH1 0x64 ADD PUSH2 0xCC2 JUMP JUMPDEST POP POP PUSH2 0x186C PUSH1 0x1 PUSH1 0x0 SSTORE JUMP JUMPDEST JUMP JUMPDEST PUSH1 0xFF DUP1 DUP4 AND PUSH1 0x0 SWAP1 DUP2 MSTORE PUSH1 0x9 PUSH1 0x20 SWAP1 DUP2 MSTORE PUSH1 0x40 DUP1 DUP4 KECCAK256 DUP6 DUP6 AND DUP5 MSTORE SWAP1 SWAP2 MSTORE SWAP1 KECCAK256 SLOAD AND JUMPDEST SWAP3 SWAP2 POP POP JUMP JUMPDEST PUSH1 0x2 SLOAD PUSH1 0x40 MLOAD PUSH4 0x8A888953 PUSH1 0xE0 SHL DUP2 MSTORE PUSH1 0xFF DUP1 DUP6 AND PUSH1 0x4 DUP4 ADD MSTORE DUP4 AND PUSH1 0x24 DUP3 ADD MSTORE PUSH1 0x0 SWAP2 DUP5 SWAP2 DUP5 SWAP2 DUP5 SWAP2 PUSH1 0x1 PUSH1 0x1 PUSH1 0xA0 SHL SUB SWAP1 SWAP2 AND SWAP1 PUSH4 0x8A888953 SWAP1 PUSH1 0x44 ADD PUSH1 0x20 PUSH1 0x40 MLOAD DUP1 DUP4 SUB DUP2 DUP7 GAS STATICCALL ISZERO DUP1 ISZERO PUSH2 0x18F3 JUMPI RETURNDATASIZE PUSH1 0x0 DUP1 RETURNDATACOPY RETURNDATASIZE PUSH1 0x0 REVERT JUMPDEST POP POP POP POP PUSH1 0x40 MLOAD RETURNDATASIZE PUSH1 0x1F NOT PUSH1 0x1F DUP3 ADD AND DUP3 ADD DUP1 PUSH1 0x40 MSTORE POP DUP2 ADD SWAP1 PUSH2 0x1917 SWAP2 SWAP1 PUSH2 0x5270 JUMP JUMPDEST SWAP1 POP CALLER PUSH1 0x1 PUSH1 0x1 PUSH1 0xA0 SHL SUB DUP3 AND EQ DUP1 ISZERO SWAP1 PUSH2 0x1950 JUMPI POP PUSH1 0xE SLOAD PUSH1 0x1 PUSH1 0x1 PUSH1 0xA0 SHL SUB AND ISZERO DUP1 PUSH2 0x1950 JUMPI POP PUSH1 0xE SLOAD PUSH1 0x1 PUSH1 0x1 PUSH1 0xA0 SHL SUB AND CALLER EQ ISZERO JUMPDEST ISZERO PUSH2 0x1987 JUMPI PUSH1 0x40 MLOAD PUSH32 0xDA76F5FA00000000000000000000000000000000000000000000000000000000 DUP2 MSTORE PUSH1 0x4 ADD PUSH1 0x40 MLOAD DUP1 SWAP2 SUB SWAP1 REVERT JUMPDEST PUSH2 0x1993 DUP7 DUP7 PUSH1 0x7 PUSH2 0x444E JUMP JUMPDEST SWAP7 SWAP6 POP POP POP POP POP POP JUMP JUMPDEST PUSH2 0x19A5 PUSH2 0x43F5 JUMP JUMPDEST PUSH1 0x2 SLOAD PUSH1 0x40 MLOAD PUSH4 0x8A888953 PUSH1 0xE0 SHL DUP2 MSTORE PUSH1 0xFF DUP1 DUP7 AND PUSH1 0x4 DUP4 ADD MSTORE DUP5 AND PUSH1 0x24 DUP3 ADD MSTORE DUP5 SWAP2 DUP5 SWAP2 CALLER SWAP2 PUSH1 0x1 PUSH1 0x1 PUSH1 0xA0 SHL SUB AND SWAP1 PUSH4 0x8A888953 SWAP1 PUSH1 0x44 ADD PUSH1 0x20 PUSH1 0x40 MLOAD DUP1 DUP4 SUB DUP2 DUP7 GAS STATICCALL ISZERO DUP1 ISZERO PUSH2 0x19FC JUMPI RETURNDATASIZE PUSH1 0x0 DUP1 RETURNDATACOPY RETURNDATASIZE PUSH1 0x0 REVERT JUMPDEST POP POP POP POP PUSH1 0x40 MLOAD RETURNDATASIZE PUSH1 0x1F NOT PUSH1 0x1F DUP3 ADD AND DUP3 ADD DUP1 PUSH1 0x40 MSTORE POP DUP2 ADD SWAP1 PUSH2 0x1A20 SWAP2 SWAP1 PUSH2 0x5270 JUMP JUMPDEST PUSH1 0x1 PUSH1 0x1 PUSH1 0xA0 SHL SUB AND EQ PUSH2 0x1A5C JUMPI PUSH1 0x40 MLOAD PUSH3 0x461BCD PUSH1 0xE5 SHL DUP2 MSTORE PUSH1 0x20 PUSH1 0x4 DUP3 ADD MSTORE PUSH1 0x3 PUSH1 0x24 DUP3 ADD MSTORE PUSH3 0x37BBB7 PUSH1 0xE9 SHL PUSH1 0x44 DUP3 ADD MSTORE PUSH1 0x64 ADD PUSH2 0xCC2 JUMP JUMPDEST PUSH1 0xFF DUP1 DUP7 AND PUSH1 0x0 SWAP1 DUP2 MSTORE PUSH1 0x29 PUSH1 0x20 SWAP1 DUP2 MSTORE PUSH1 0x40 DUP1 DUP4 KECCAK256 DUP9 DUP6 AND DUP5 MSTORE SWAP1 SWAP2 MSTORE DUP2 KECCAK256 SWAP2 DUP6 AND PUSH1 0x1 SUB PUSH2 0x1A95 JUMPI POP PUSH1 0xE DUP2 ADD SLOAD PUSH2 0xFFFF AND PUSH2 0x1AFF JUMP JUMPDEST DUP5 PUSH1 0xFF AND PUSH1 0x2 SUB PUSH2 0x1AB5 JUMPI POP PUSH1 0xE DUP2 ADD SLOAD PUSH3 0x10000 SWAP1 DIV PUSH2 0xFFFF AND PUSH2 0x1AFF JUMP JUMPDEST PUSH1 0x40 MLOAD PUSH3 0x461BCD PUSH1 0xE5 SHL DUP2 MSTORE PUSH1 0x4 ADD PUSH2 0xCC2 SWAP1 PUSH1 0x20 DUP1 DUP3 MSTORE PUSH1 0x4 SWAP1 DUP3 ADD MSTORE PUSH32 0x7479706500000000000000000000000000000000000000000000000000000000 PUSH1 0x40 DUP3 ADD MSTORE PUSH1 0x60 ADD SWAP1 JUMP JUMPDEST PUSH2 0x2710 DUP2 PUSH2 0xFFFF AND LT PUSH2 0x1B54 JUMPI PUSH1 0x40 MLOAD PUSH3 0x461BCD PUSH1 0xE5 SHL DUP2 MSTORE PUSH1 0x20 PUSH1 0x4 DUP3 ADD MSTORE PUSH1 0x1 PUSH1 0x24 DUP3 ADD MSTORE PUSH32 0x6C00000000000000000000000000000000000000000000000000000000000000 PUSH1 0x44 DUP3 ADD MSTORE PUSH1 0x64 ADD PUSH2 0xCC2 JUMP JUMPDEST PUSH1 0x0 PUSH2 0x1B62 DUP9 DUP9 PUSH1 0x8 PUSH2 0x444E JUMP JUMPDEST SWAP1 POP PUSH1 0x0 DUP2 GT PUSH2 0x1BB4 JUMPI PUSH1 0x40 MLOAD PUSH3 0x461BCD PUSH1 0xE5 SHL DUP2 MSTORE PUSH1 0x20 PUSH1 0x4 DUP3 ADD MSTORE PUSH1 0x1 PUSH1 0x24 DUP3 ADD MSTORE PUSH32 0x7700000000000000000000000000000000000000000000000000000000000000 PUSH1 0x44 DUP3 ADD MSTORE PUSH1 0x64 ADD PUSH2 0xCC2 JUMP JUMPDEST PUSH1 0x0 PUSH2 0x1BC1 DUP4 PUSH1 0x1 PUSH2 0x5318 JUMP JUMPDEST PUSH2 0x1BD0 SWAP1 PUSH2 0xFFFF AND PUSH1 0x2 PUSH2 0x533A JUMP JUMPDEST SWAP1 POP PUSH1 0x0 DUP3 PUSH2 0x1BE0 DUP4 PUSH1 0x8C PUSH2 0x533A JUMP JUMPDEST PUSH2 0x1BEA SWAP2 SWAP1 PUSH2 0x5380 JUMP JUMPDEST SWAP1 POP PUSH1 0x0 DUP4 PUSH2 0x1BFA DUP5 PUSH1 0x78 PUSH2 0x533A JUMP JUMPDEST PUSH2 0x1C04 SWAP2 SWAP1 PUSH2 0x5380 JUMP JUMPDEST SWAP1 POP PUSH1 0x0 DUP5 PUSH2 0x1C14 DUP6 PUSH1 0xB4 PUSH2 0x533A JUMP JUMPDEST PUSH2 0x1C1E SWAP2 SWAP1 PUSH2 0x5380 JUMP JUMPDEST SWAP1 POP PUSH1 0x0 DUP6 PUSH2 0x1C2E DUP7 PUSH1 0x78 PUSH2 0x533A JUMP JUMPDEST PUSH2 0x1C38 SWAP2 SWAP1 PUSH2 0x5380 JUMP JUMPDEST DUP9 SLOAD SWAP1 SWAP2 POP DUP5 GT ISZERO PUSH2 0x1C8C JUMPI PUSH1 0x40 MLOAD PUSH3 0x461BCD PUSH1 0xE5 SHL DUP2 MSTORE PUSH1 0x20 PUSH1 0x4 DUP3 ADD MSTORE PUSH1 0x1 PUSH1 0x24 DUP3 ADD MSTORE PUSH32 0x6600000000000000000000000000000000000000000000000000000000000000 PUSH1 0x44 DUP3 ADD MSTORE PUSH1 0x64 ADD PUSH2 0xCC2 JUMP JUMPDEST PUSH1 0x1 DUP9 ADD SLOAD DUP4 GT ISZERO PUSH2 0x1CE0 JUMPI PUSH1 0x40 MLOAD PUSH3 0x461BCD PUSH1 0xE5 SHL DUP2 MSTORE PUSH1 0x20 PUSH1 0x4 DUP3 ADD MSTORE PUSH1 0x1 PUSH1 0x24 DUP3 ADD MSTORE PUSH32 0x7700000000000000000000000000000000000000000000000000000000000000 PUSH1 0x44 DUP3 ADD MSTORE PUSH1 0x64 ADD PUSH2 0xCC2 JUMP JUMPDEST PUSH1 0x2 DUP9 ADD SLOAD DUP3 GT ISZERO PUSH2 0x1D34 JUMPI PUSH1 0x40 MLOAD PUSH3 0x461BCD PUSH1 0xE5 SHL DUP2 MSTORE PUSH1 0x20 PUSH1 0x4 DUP3 ADD MSTORE PUSH1 0x1 PUSH1 0x24 DUP3 ADD MSTORE PUSH32 0x7300000000000000000000000000000000000000000000000000000000000000 PUSH1 0x44 DUP3 ADD MSTORE PUSH1 0x64 ADD PUSH2 0xCC2 JUMP JUMPDEST PUSH1 0x3 DUP9 ADD SLOAD DUP2 GT ISZERO PUSH2 0x1D88 JUMPI PUSH1 0x40 MLOAD PUSH3 0x461BCD PUSH1 0xE5 SHL DUP2 MSTORE PUSH1 0x20 PUSH1 0x4 DUP3 ADD MSTORE PUSH1 0x1 PUSH1 0x24 DUP3 ADD MSTORE PUSH32 0x6900000000000000000000000000000000000000000000000000000000000000 PUSH1 0x44 DUP3 ADD MSTORE PUSH1 0x64 ADD PUSH2 0xCC2 JUMP JUMPDEST DUP8 SLOAD DUP5 SWAP1 DUP10 SWAP1 PUSH1 0x0 SWAP1 PUSH2 0x1D9C SWAP1 DUP5 SWAP1 PUSH2 0x52CF JUMP JUMPDEST SWAP1 SWAP2 SSTORE POP POP PUSH1 0x1 DUP9 ADD DUP1 SLOAD DUP5 SWAP2 SWAP1 PUSH1 0x0 SWAP1 PUSH2 0x1DB8 SWAP1 DUP5 SWAP1 PUSH2 0x52CF JUMP JUMPDEST SWAP1 SWAP2 SSTORE POP POP PUSH1 0x2 DUP9 ADD DUP1 SLOAD DUP4 SWAP2 SWAP1 PUSH1 0x0 SWAP1 PUSH2 0x1DD4 SWAP1 DUP5 SWAP1 PUSH2 0x52CF JUMP JUMPDEST SWAP1 SWAP2 SSTORE POP POP PUSH1 0x3 DUP9 ADD DUP1 SLOAD DUP3 SWAP2 SWAP1 PUSH1 0x0 SWAP1 PUSH2 0x1DF0 SWAP1 DUP5 SWAP1 PUSH2 0x52CF JUMP JUMPDEST SWAP1 SWAP2 SSTORE POP POP PUSH1 0xFF DUP12 AND PUSH1 0x1 SUB PUSH2 0x1E36 JUMPI PUSH1 0xE DUP9 ADD DUP1 SLOAD PUSH2 0xFFFF AND SWAP1 PUSH1 0x0 PUSH2 0x1E16 DUP4 PUSH2 0x5394 JUMP JUMPDEST SWAP2 SWAP1 PUSH2 0x100 EXP DUP2 SLOAD DUP2 PUSH2 0xFFFF MUL NOT AND SWAP1 DUP4 PUSH2 0xFFFF AND MUL OR SWAP1 SSTORE POP POP PUSH2 0x1E79 JUMP JUMPDEST DUP11 PUSH1 0xFF AND PUSH1 0x2 SUB PUSH2 0x1E79 JUMPI PUSH1 0xE DUP9 ADD DUP1 SLOAD PUSH3 0x10000 SWAP1 DIV PUSH2 0xFFFF AND SWAP1 PUSH1 0x2 PUSH2 0x1E5D DUP4 PUSH2 0x5394 JUMP JUMPDEST SWAP2 SWAP1 PUSH2 0x100 EXP DUP2 SLOAD DUP2 PUSH2 0xFFFF MUL NOT AND SWAP1 DUP4 PUSH2 0xFFFF AND MUL OR SWAP1 SSTORE POP POP JUMPDEST PUSH2 0x1E84 DUP9 DUP15 DUP15 PUSH2 0x4776 JUMP JUMPDEST POP POP POP POP POP POP POP POP POP POP PUSH2 0x1E98 PUSH1 0x1 PUSH1 0x0 SSTORE JUMP JUMPDEST POP POP POP JUMP JUMPDEST PUSH2 0x1EA5 PUSH2 0x43F5 JUMP JUMPDEST PUSH1 0xE SLOAD PUSH1 0x1 PUSH1 0x1 PUSH1 0xA0 SHL SUB AND CALLER EQ PUSH2 0x1EE9 JUMPI PUSH1 0x40 MLOAD PUSH32 0x386317A300000000000000000000000000000000000000000000000000000000 DUP2 MSTORE PUSH1 0x4 ADD PUSH1 0x40 MLOAD DUP1 SWAP2 SUB SWAP1 REVERT JUMPDEST DUP2 PUSH1 0x0 SUB PUSH2 0x1F23 JUMPI PUSH1 0x40 MLOAD PUSH32 0x1F2A200500000000000000000000000000000000000000000000000000000000 DUP2 MSTORE PUSH1 0x4 ADD PUSH1 0x40 MLOAD DUP1 SWAP2 SUB SWAP1 REVERT JUMPDEST PUSH1 0x1 DUP4 PUSH1 0xFF AND LT ISZERO DUP1 ISZERO PUSH2 0x1F3B JUMPI POP PUSH1 0xA DUP4 PUSH1 0xFF AND GT ISZERO JUMPDEST PUSH2 0x1F6B JUMPI PUSH1 0x40 MLOAD PUSH3 0x461BCD PUSH1 0xE5 SHL DUP2 MSTORE PUSH1 0x20 PUSH1 0x4 DUP3 ADD MSTORE PUSH1 0x1 PUSH1 0x24 DUP3 ADD MSTORE PUSH1 0x1D PUSH1 0xFA SHL PUSH1 0x44 DUP3 ADD MSTORE PUSH1 0x64 ADD PUSH2 0xCC2 JUMP JUMPDEST PUSH1 0xFF DUP1 DUP7 AND PUSH1 0x0 SWAP1 DUP2 MSTORE PUSH1 0x29 PUSH1 0x20 SWAP1 DUP2 MSTORE PUSH1 0x40 DUP1 DUP4 KECCAK256 DUP9 DUP6 AND DUP5 MSTORE SWAP1 SWAP2 MSTORE SWAP1 KECCAK256 SWAP1 DUP5 AND PUSH1 0x1 SUB PUSH2 0x201F JUMPI DUP2 ISZERO PUSH2 0x1FBA JUMPI DUP1 SLOAD DUP4 SWAP1 DUP3 SWAP1 PUSH1 0x0 SWAP1 PUSH2 0x1FAF SWAP1 DUP5 SWAP1 PUSH2 0x52BC JUMP JUMPDEST SWAP1 SWAP2 SSTORE POP PUSH2 0x2576 SWAP1 POP JUMP JUMPDEST DUP1 SLOAD DUP4 GT ISZERO PUSH2 0x200B JUMPI PUSH1 0x40 MLOAD PUSH3 0x461BCD PUSH1 0xE5 SHL DUP2 MSTORE PUSH1 0x20 PUSH1 0x4 DUP3 ADD MSTORE PUSH1 0x1 PUSH1 0x24 DUP3 ADD MSTORE PUSH32 0x6600000000000000000000000000000000000000000000000000000000000000 PUSH1 0x44 DUP3 ADD MSTORE PUSH1 0x64 ADD PUSH2 0xCC2 JUMP JUMPDEST DUP1 SLOAD DUP4 SWAP1 DUP3 SWAP1 PUSH1 0x0 SWAP1 PUSH2 0x1FAF SWAP1 DUP5 SWAP1 PUSH2 0x52CF JUMP JUMPDEST DUP4 PUSH1 0xFF AND PUSH1 0x2 SUB PUSH2 0x20B2 JUMPI DUP2 ISZERO PUSH2 0x2047 JUMPI DUP3 DUP2 PUSH1 0x0 ADD PUSH1 0x1 ADD PUSH1 0x0 DUP3 DUP3 SLOAD PUSH2 0x1FAF SWAP2 SWAP1 PUSH2 0x52BC JUMP JUMPDEST PUSH1 0x1 DUP2 ADD SLOAD DUP4 GT ISZERO PUSH2 0x209B JUMPI PUSH1 0x40 MLOAD PUSH3 0x461BCD PUSH1 0xE5 SHL DUP2 MSTORE PUSH1 0x20 PUSH1 0x4 DUP3 ADD MSTORE PUSH1 0x1 PUSH1 0x24 DUP3 ADD MSTORE PUSH32 0x7700000000000000000000000000000000000000000000000000000000000000 PUSH1 0x44 DUP3 ADD MSTORE PUSH1 0x64 ADD PUSH2 0xCC2 JUMP JUMPDEST DUP3 DUP2 PUSH1 0x0 ADD PUSH1 0x1 ADD PUSH1 0x0 DUP3 DUP3 SLOAD PUSH2 0x1FAF SWAP2 SWAP1 PUSH2 0x52CF JUMP JUMPDEST DUP4 PUSH1 0xFF AND PUSH1 0x3 SUB PUSH2 0x2145 JUMPI DUP2 ISZERO PUSH2 0x20DA JUMPI DUP3 DUP2 PUSH1 0x0 ADD PUSH1 0x2 ADD PUSH1 0x0 DUP3 DUP3 SLOAD PUSH2 0x1FAF SWAP2 SWAP1 PUSH2 0x52BC JUMP JUMPDEST PUSH1 0x2 DUP2 ADD SLOAD DUP4 GT ISZERO PUSH2 0x212E JUMPI PUSH1 0x40 MLOAD PUSH3 0x461BCD PUSH1 0xE5 SHL DUP2 MSTORE PUSH1 0x20 PUSH1 0x4 DUP3 ADD MSTORE PUSH1 0x1 PUSH1 0x24 DUP3 ADD MSTORE PUSH32 0x7300000000000000000000000000000000000000000000000000000000000000 PUSH1 0x44 DUP3 ADD MSTORE PUSH1 0x64 ADD PUSH2 0xCC2 JUMP JUMPDEST DUP3 DUP2 PUSH1 0x0 ADD PUSH1 0x2 ADD PUSH1 0x0 DUP3 DUP3 SLOAD PUSH2 0x1FAF SWAP2 SWAP1 PUSH2 0x52CF JUMP JUMPDEST DUP4 PUSH1 0xFF AND PUSH1 0x4 SUB PUSH2 0x21D8 JUMPI DUP2 ISZERO PUSH2 0x216D JUMPI DUP3 DUP2 PUSH1 0x0 ADD PUSH1 0x3 ADD PUSH1 0x0 DUP3 DUP3 SLOAD PUSH2 0x1FAF SWAP2 SWAP1 PUSH2 0x52BC JUMP JUMPDEST PUSH1 0x3 DUP2 ADD SLOAD DUP4 GT ISZERO PUSH2 0x21C1 JUMPI PUSH1 0x40 MLOAD PUSH3 0x461BCD PUSH1 0xE5 SHL DUP2 MSTORE PUSH1 0x20 PUSH1 0x4 DUP3 ADD MSTORE PUSH1 0x1 PUSH1 0x24 DUP3 ADD MSTORE PUSH32 0x6900000000000000000000000000000000000000000000000000000000000000 PUSH1 0x44 DUP3 ADD MSTORE PUSH1 0x64 ADD PUSH2 0xCC2 JUMP JUMPDEST DUP3 DUP2 PUSH1 0x0 ADD PUSH1 0x3 ADD PUSH1 0x0 DUP3 DUP3 SLOAD PUSH2 0x1FAF SWAP2 SWAP1 PUSH2 0x52CF JUMP JUMPDEST DUP4 PUSH1 0xFF AND PUSH1 0x5 SUB PUSH2 0x226B JUMPI DUP2 ISZERO PUSH2 0x2200 JUMPI DUP3 DUP2 PUSH1 0x8 ADD PUSH1 0x0 ADD PUSH1 0x0 DUP3 DUP3 SLOAD PUSH2 0x1FAF SWAP2 SWAP1 PUSH2 0x52BC JUMP JUMPDEST PUSH1 0x8 DUP2 ADD SLOAD DUP4 GT ISZERO PUSH2 0x2254 JUMPI PUSH1 0x40 MLOAD PUSH3 0x461BCD PUSH1 0xE5 SHL DUP2 MSTORE PUSH1 0x20 PUSH1 0x4 DUP3 ADD MSTORE PUSH1 0x2 PUSH1 0x24 DUP3 ADD MSTORE PUSH32 0x6F61000000000000000000000000000000000000000000000000000000000000 PUSH1 0x44 DUP3 ADD MSTORE PUSH1 0x64 ADD PUSH2 0xCC2 JUMP JUMPDEST DUP3 DUP2 PUSH1 0x8 ADD PUSH1 0x0 ADD PUSH1 0x0 DUP3 DUP3 SLOAD PUSH2 0x1FAF SWAP2 SWAP1 PUSH2 0x52CF JUMP JUMPDEST DUP4 PUSH1 0xFF AND PUSH1 0x6 SUB PUSH2 0x22FE JUMPI DUP2 ISZERO PUSH2 0x2293 JUMPI DUP3 DUP2 PUSH1 0x8 ADD PUSH1 0x1 ADD PUSH1 0x0 DUP3 DUP3 SLOAD PUSH2 0x1FAF SWAP2 SWAP1 PUSH2 0x52BC JUMP JUMPDEST PUSH1 0x9 DUP2 ADD SLOAD DUP4 GT ISZERO PUSH2 0x22E7 JUMPI PUSH1 0x40 MLOAD PUSH3 0x461BCD PUSH1 0xE5 SHL DUP2 MSTORE PUSH1 0x20 PUSH1 0x4 DUP3 ADD MSTORE PUSH1 0x2 PUSH1 0x24 DUP3 ADD MSTORE PUSH32 0x6461000000000000000000000000000000000000000000000000000000000000 PUSH1 0x44 DUP3 ADD MSTORE PUSH1 0x64 ADD PUSH2 0xCC2 JUMP JUMPDEST DUP3 DUP2 PUSH1 0x8 ADD PUSH1 0x1 ADD PUSH1 0x0 DUP3 DUP3 SLOAD PUSH2 0x1FAF SWAP2 SWAP1 PUSH2 0x52CF JUMP JUMPDEST DUP4 PUSH1 0xFF AND PUSH1 0x7 SUB PUSH2 0x2391 JUMPI DUP2 ISZERO PUSH2 0x2326 JUMPI DUP3 DUP2 PUSH1 0x8 ADD PUSH1 0x2 ADD PUSH1 0x0 DUP3 DUP3 SLOAD PUSH2 0x1FAF SWAP2 SWAP1 PUSH2 0x52BC JUMP JUMPDEST PUSH1 0xA DUP2 ADD SLOAD DUP4 GT ISZERO PUSH2 0x237A JUMPI PUSH1 0x40 MLOAD PUSH3 0x461BCD PUSH1 0xE5 SHL DUP2 MSTORE PUSH1 0x20 PUSH1 0x4 DUP3 ADD MSTORE PUSH1 0x2 PUSH1 0x24 DUP3 ADD MSTORE PUSH32 0x6F77000000000000000000000000000000000000000000000000000000000000 PUSH1 0x44 DUP3 ADD MSTORE PUSH1 0x64 ADD PUSH2 0xCC2 JUMP JUMPDEST DUP3 DUP2 PUSH1 0x8 ADD PUSH1 0x2 ADD PUSH1 0x0 DUP3 DUP3 SLOAD PUSH2 0x1FAF SWAP2 SWAP1 PUSH2 0x52CF JUMP JUMPDEST DUP4 PUSH1 0xFF AND PUSH1 0x8 SUB PUSH2 0x2424 JUMPI DUP2 ISZERO PUSH2 0x23B9 JUMPI DUP3 DUP2 PUSH1 0x8 ADD PUSH1 0x3 ADD PUSH1 0x0 DUP3 DUP3 SLOAD PUSH2 0x1FAF SWAP2 SWAP1 PUSH2 0x52BC JUMP JUMPDEST PUSH1 0xB DUP2 ADD SLOAD DUP4 GT ISZERO PUSH2 0x240D JUMPI PUSH1 0x40 MLOAD PUSH3 0x461BCD PUSH1 0xE5 SHL DUP2 MSTORE PUSH1 0x20 PUSH1 0x4 DUP3 ADD MSTORE PUSH1 0x2 PUSH1 0x24 DUP3 ADD MSTORE PUSH32 0x6477000000000000000000000000000000000000000000000000000000000000 PUSH1 0x44 DUP3 ADD MSTORE PUSH1 0x64 ADD PUSH2 0xCC2 JUMP JUMPDEST DUP3 DUP2 PUSH1 0x8 ADD PUSH1 0x3 ADD PUSH1 0x0 DUP3 DUP3 SLOAD PUSH2 0x1FAF SWAP2 SWAP1 PUSH2 0x52CF JUMP JUMPDEST DUP4 PUSH1 0xFF AND PUSH1 0x9 SUB PUSH2 0x24B7 JUMPI DUP2 ISZERO PUSH2 0x244C JUMPI DUP3 DUP2 PUSH1 0x8 ADD PUSH1 0x4 ADD PUSH1 0x0 DUP3 DUP3 SLOAD PUSH2 0x1FAF SWAP2 SWAP1 PUSH2 0x52BC JUMP JUMPDEST PUSH1 0xC DUP2 ADD SLOAD DUP4 GT ISZERO PUSH2 0x24A0 JUMPI PUSH1 0x40 MLOAD PUSH3 0x461BCD PUSH1 0xE5 SHL DUP2 MSTORE PUSH1 0x20 PUSH1 0x4 DUP3 ADD MSTORE PUSH1 0x2 PUSH1 0x24 DUP3 ADD MSTORE PUSH32 0x6F73000000000000000000000000000000000000000000000000000000000000 PUSH1 0x44 DUP3 ADD MSTORE PUSH1 0x64 ADD PUSH2 0xCC2 JUMP JUMPDEST DUP3 DUP2 PUSH1 0x8 ADD PUSH1 0x4 ADD PUSH1 0x0 DUP3 DUP3 SLOAD PUSH2 0x1FAF SWAP2 SWAP1 PUSH2 0x52CF JUMP JUMPDEST DUP4 PUSH1 0xFF AND PUSH1 0xA SUB PUSH2 0x254A JUMPI DUP2 ISZERO PUSH2 0x24DF JUMPI DUP3 DUP2 PUSH1 0x8 ADD PUSH1 0x5 ADD PUSH1 0x0 DUP3 DUP3 SLOAD PUSH2 0x1FAF SWAP2 SWAP1 PUSH2 0x52BC JUMP JUMPDEST PUSH1 0xD DUP2 ADD SLOAD DUP4 GT ISZERO PUSH2 0x2533 JUMPI PUSH1 0x40 MLOAD PUSH3 0x461BCD PUSH1 0xE5 SHL DUP2 MSTORE PUSH1 0x20 PUSH1 0x4 DUP3 ADD MSTORE PUSH1 0x2 PUSH1 0x24 DUP3 ADD MSTORE PUSH32 0x6473000000000000000000000000000000000000000000000000000000000000 PUSH1 0x44 DUP3 ADD MSTORE PUSH1 0x64 ADD PUSH2 0xCC2 JUMP JUMPDEST DUP3 DUP2 PUSH1 0x8 ADD PUSH1 0x5 ADD PUSH1 0x0 DUP3 DUP3 SLOAD PUSH2 0x1FAF SWAP2 SWAP1 PUSH2 0x52CF JUMP JUMPDEST PUSH1 0x40 MLOAD PUSH3 0x461BCD PUSH1 0xE5 SHL DUP2 MSTORE PUSH1 0x20 PUSH1 0x4 DUP3 ADD MSTORE PUSH1 0x1 PUSH1 0x24 DUP3 ADD MSTORE PUSH1 0x1D PUSH1 0xFA SHL PUSH1 0x44 DUP3 ADD MSTORE PUSH1 0x64 ADD PUSH2 0xCC2 JUMP JUMPDEST PUSH2 0x2581 DUP2 DUP8 DUP8 PUSH2 0x4776 JUMP JUMPDEST POP PUSH2 0x15F9 PUSH1 0x1 PUSH1 0x0 SSTORE JUMP JUMPDEST PUSH2 0x2594 PUSH2 0x43F5 JUMP JUMPDEST PUSH1 0x2 SLOAD PUSH1 0x40 MLOAD PUSH4 0x8A888953 PUSH1 0xE0 SHL DUP2 MSTORE PUSH1 0xFF DUP1 DUP8 AND PUSH1 0x4 DUP4 ADD MSTORE DUP6 AND PUSH1 0x24 DUP3 ADD MSTORE DUP6 SWAP2 DUP6 SWAP2 CALLER SWAP2 PUSH1 0x1 PUSH1 0x1 PUSH1 0xA0 SHL SUB AND SWAP1 PUSH4 0x8A888953 SWAP1 PUSH1 0x44 ADD PUSH1 0x20 PUSH1 0x40 MLOAD DUP1 DUP4 SUB DUP2 DUP7 GAS STATICCALL ISZERO DUP1 ISZERO PUSH2 0x25EB JUMPI RETURNDATASIZE PUSH1 0x0 DUP1 RETURNDATACOPY RETURNDATASIZE PUSH1 0x0 REVERT JUMPDEST POP POP POP POP PUSH1 0x40 MLOAD RETURNDATASIZE PUSH1 0x1F NOT PUSH1 0x1F DUP3 ADD AND DUP3 ADD DUP1 PUSH1 0x40 MSTORE POP DUP2 ADD SWAP1 PUSH2 0x260F SWAP2 SWAP1 PUSH2 0x5270 JUMP JUMPDEST PUSH1 0x1 PUSH1 0x1 PUSH1 0xA0 SHL SUB AND EQ PUSH2 0x264B JUMPI PUSH1 0x40 MLOAD PUSH3 0x461BCD PUSH1 0xE5 SHL DUP2 MSTORE PUSH1 0x20 PUSH1 0x4 DUP3 ADD MSTORE PUSH1 0x3 PUSH1 0x24 DUP3 ADD MSTORE PUSH3 0x37BBB7 PUSH1 0xE9 SHL PUSH1 0x44 DUP3 ADD MSTORE PUSH1 0x64 ADD PUSH2 0xCC2 JUMP JUMPDEST PUSH1 0x0 DUP4 GT DUP1 ISZERO PUSH2 0x265D JUMPI POP PUSH2 0x3E8 DUP4 GT ISZERO JUMPDEST PUSH2 0x26A9 JUMPI PUSH1 0x40 MLOAD PUSH3 0x461BCD PUSH1 0xE5 SHL DUP2 MSTORE PUSH1 0x20 PUSH1 0x4 DUP3 ADD MSTORE PUSH1 0x10 PUSH1 0x24 DUP3 ADD MSTORE PUSH32 0x496E76616C6964207175616E7469747900000000000000000000000000000000 PUSH1 0x44 DUP3 ADD MSTORE PUSH1 0x64 ADD PUSH2 0xCC2 JUMP JUMPDEST DUP4 PUSH1 0xFF AND PUSH1 0x1 EQ DUP1 PUSH2 0x26BE JUMPI POP DUP4 PUSH1 0xFF AND PUSH1 0x2 EQ JUMPDEST PUSH2 0x26EE JUMPI PUSH1 0x40 MLOAD PUSH3 0x461BCD PUSH1 0xE5 SHL DUP2 MSTORE PUSH1 0x20 PUSH1 0x4 DUP3 ADD MSTORE PUSH1 0x1 PUSH1 0x24 DUP3 ADD MSTORE PUSH1 0x1D PUSH1 0xFA SHL PUSH1 0x44 DUP3 ADD MSTORE PUSH1 0x64 ADD PUSH2 0xCC2 JUMP JUMPDEST PUSH1 0x0 PUSH2 0x26FC DUP8 DUP8 PUSH1 0x2 PUSH2 0x444E JUMP JUMPDEST SWAP1 POP PUSH1 0x0 DUP2 GT PUSH2 0x274E JUMPI PUSH1 0x40 MLOAD PUSH3 0x461BCD PUSH1 0xE5 SHL DUP2 MSTORE PUSH1 0x20 PUSH1 0x4 DUP3 ADD MSTORE PUSH1 0x2 PUSH1 0x24 DUP3 ADD MSTORE PUSH32 0x6273000000000000000000000000000000000000000000000000000000000000 PUSH1 0x44 DUP3 ADD MSTORE PUSH1 0x64 ADD PUSH2 0xCC2 JUMP JUMPDEST PUSH1 0x0 DUP6 PUSH1 0xFF AND PUSH1 0x1 EQ PUSH2 0x2762 JUMPI PUSH1 0x1D PUSH2 0x2765 JUMP JUMPDEST PUSH1 0x19 JUMPDEST PUSH1 0x40 DUP1 MLOAD PUSH1 0x80 DUP2 ADD DUP3 MSTORE DUP3 SLOAD DUP2 MSTORE PUSH1 0x1 DUP4 ADD SLOAD PUSH1 0x20 DUP3 ADD MSTORE PUSH1 0x2 DUP4 ADD SLOAD SWAP2 DUP2 ADD SWAP2 SWAP1 SWAP2 MSTORE PUSH1 0x3 SWAP1 SWAP2 ADD SLOAD PUSH1 0x60 DUP3 ADD MSTORE SWAP1 POP PUSH2 0x27A3 DUP9 DUP9 DUP4 DUP9 DUP7 PUSH2 0x44E9 JUMP JUMPDEST DUP6 PUSH1 0xFF AND PUSH1 0x1 SUB PUSH2 0x27E2 JUMPI PUSH1 0xFF DUP1 DUP10 AND PUSH1 0x0 SWAP1 DUP2 MSTORE PUSH1 0x29 PUSH1 0x20 SWAP1 DUP2 MSTORE PUSH1 0x40 DUP1 DUP4 KECCAK256 SWAP4 DUP12 AND DUP4 MSTORE SWAP3 SWAP1 MSTORE SWAP1 DUP2 KECCAK256 PUSH1 0xA ADD DUP1 SLOAD DUP8 SWAP3 SWAP1 PUSH2 0xE62 SWAP1 DUP5 SWAP1 PUSH2 0x52BC JUMP JUMPDEST PUSH1 0xFF DUP1 DUP10 AND PUSH1 0x0 SWAP1 DUP2 MSTORE PUSH1 0x29 PUSH1 0x20 SWAP1 DUP2 MSTORE PUSH1 0x40 DUP1 DUP4 KECCAK256 SWAP4 DUP12 AND DUP4 MSTORE SWAP3 SWAP1 MSTORE SWAP1 DUP2 KECCAK256 PUSH1 0xB ADD DUP1 SLOAD DUP8 SWAP3 SWAP1 PUSH2 0xEA1 SWAP1 DUP5 SWAP1 PUSH2 0x52BC JUMP JUMPDEST PUSH1 0x1 SLOAD PUSH1 0x40 MLOAD PUSH32 0x70A0823100000000000000000000000000000000000000000000000000000000 DUP2 MSTORE ADDRESS PUSH1 0x4 DUP3 ADD MSTORE PUSH1 0x0 SWAP2 PUSH1 0x1 PUSH1 0x1 PUSH1 0xA0 SHL SUB AND SWAP1 PUSH4 0x70A08231 SWAP1 PUSH1 0x24 ADD PUSH1 0x20 PUSH1 0x40 MLOAD DUP1 DUP4 SUB DUP2 DUP7 GAS STATICCALL ISZERO DUP1 ISZERO PUSH2 0x2878 JUMPI RETURNDATASIZE PUSH1 0x0 DUP1 RETURNDATACOPY RETURNDATASIZE PUSH1 0x0 REVERT JUMPDEST POP POP POP POP PUSH1 0x40 MLOAD RETURNDATASIZE PUSH1 0x1F NOT PUSH1 0x1F DUP3 ADD AND DUP3 ADD DUP1 PUSH1 0x40 MSTORE POP DUP2 ADD SWAP1 PUSH2 0x289C SWAP2 SWAP1 PUSH2 0x52E2 JUMP JUMPDEST SWAP1 POP SWAP1 JUMP JUMPDEST PUSH1 0xD SLOAD PUSH1 0x1 PUSH1 0x1 PUSH1 0xA0 SHL SUB AND CALLER EQ PUSH2 0x28E5 JUMPI PUSH1 0x40 MLOAD PUSH32 0x30CD747100000000000000000000000000000000000000000000000000000000 DUP2 MSTORE PUSH1 0x4 ADD PUSH1 0x40 MLOAD DUP1 SWAP2 SUB SWAP1 REVERT JUMPDEST PUSH1 0x10 SLOAD PUSH22 0x1000000000000000000000000000000000000000000 SWAP1 DIV PUSH1 0xFF AND ISZERO PUSH2 0x2951 JUMPI PUSH1 0x40 MLOAD PUSH3 0x461BCD PUSH1 0xE5 SHL DUP2 MSTORE PUSH1 0x20 PUSH1 0x4 DUP3 ADD MSTORE PUSH1 0x5 PUSH1 0x24 DUP3 ADD MSTORE PUSH32 0x6B696C6974000000000000000000000000000000000000000000000000000000 PUSH1 0x44 DUP3 ADD MSTORE PUSH1 0x64 ADD PUSH2 0xCC2 JUMP JUMPDEST PUSH1 0x10 DUP1 SLOAD PUSH32 0xFFFFFFFFFFFFFFFFFFFFFF00FFFFFFFFFFFFFFFFFFFFFFFFFFFFFFFFFFFFFFFF AND PUSH21 0x10000000000000000000000000000000000000000 OR SWAP1 SSTORE JUMP JUMPDEST PUSH1 0xD SLOAD PUSH1 0x1 PUSH1 0x1 PUSH1 0xA0 SHL SUB AND CALLER EQ PUSH2 0x29D6 JUMPI PUSH1 0x40 MLOAD PUSH32 0x30CD747100000000000000000000000000000000000000000000000000000000 DUP2 MSTORE PUSH1 0x4 ADD PUSH1 0x40 MLOAD DUP1 SWAP2 SUB SWAP1 REVERT JUMPDEST PUSH1 0x10 SLOAD PUSH22 0x1000000000000000000000000000000000000000000 SWAP1 DIV PUSH1 0xFF AND ISZERO PUSH2 0x2A42 JUMPI PUSH1 0x40 MLOAD PUSH3 0x461BCD PUSH1 0xE5 SHL DUP2 MSTORE PUSH1 0x20 PUSH1 0x4 DUP3 ADD MSTORE PUSH1 0x5 PUSH1 0x24 DUP3 ADD MSTORE PUSH32 0x6B696C6974000000000000000000000000000000000000000000000000000000 PUSH1 0x44 DUP3 ADD MSTORE PUSH1 0x64 ADD PUSH2 0xCC2 JUMP JUMPDEST PUSH1 0x3 DUP1 SLOAD PUSH32 0xFFFFFFFFFFFFFFFFFFFFFFFF0000000000000000000000000000000000000000 AND PUSH1 0x1 PUSH1 0x1 PUSH1 0xA0 SHL SUB SWAP3 SWAP1 SWAP3 AND SWAP2 SWAP1 SWAP2 OR SWAP1 SSTORE JUMP JUMPDEST PUSH2 0x2A84 PUSH2 0x43F5 JUMP JUMPDEST PUSH1 0x2 SLOAD PUSH1 0x40 MLOAD PUSH4 0x8A888953 PUSH1 0xE0 SHL DUP2 MSTORE PUSH1 0xFF DUP1 DUP8 AND PUSH1 0x4 DUP4 ADD MSTORE DUP6 AND PUSH1 0x24 DUP3 ADD MSTORE DUP6 SWAP2 DUP6 SWAP2 CALLER SWAP2 PUSH1 0x1 PUSH1 0x1 PUSH1 0xA0 SHL SUB AND SWAP1 PUSH4 0x8A888953 SWAP1 PUSH1 0x44 ADD PUSH1 0x20 PUSH1 0x40 MLOAD DUP1 DUP4 SUB DUP2 DUP7 GAS STATICCALL ISZERO DUP1 ISZERO PUSH2 0x2ADB JUMPI RETURNDATASIZE PUSH1 0x0 DUP1 RETURNDATACOPY RETURNDATASIZE PUSH1 0x0 REVERT JUMPDEST POP POP POP POP PUSH1 0x40 MLOAD RETURNDATASIZE PUSH1 0x1F NOT PUSH1 0x1F DUP3 ADD AND DUP3 ADD DUP1 PUSH1 0x40 MSTORE POP DUP2 ADD SWAP1 PUSH2 0x2AFF SWAP2 SWAP1 PUSH2 0x5270 JUMP JUMPDEST PUSH1 0x1 PUSH1 0x1 PUSH1 0xA0 SHL SUB AND EQ PUSH2 0x2B3B JUMPI PUSH1 0x40 MLOAD PUSH3 0x461BCD PUSH1 0xE5 SHL DUP2 MSTORE PUSH1 0x20 PUSH1 0x4 DUP3 ADD MSTORE PUSH1 0x3 PUSH1 0x24 DUP3 ADD MSTORE PUSH3 0x37BBB7 PUSH1 0xE9 SHL PUSH1 0x44 DUP3 ADD MSTORE PUSH1 0x64 ADD PUSH2 0xCC2 JUMP JUMPDEST DUP4 DUP4 PUSH1 0x9 PUSH1 0xFF DUP4 AND LT DUP1 ISZERO PUSH2 0x2B53 JUMPI POP PUSH1 0x9 PUSH1 0xFF DUP3 AND LT JUMPDEST PUSH2 0x2B9F JUMPI PUSH1 0x40 MLOAD PUSH3 0x461BCD PUSH1 0xE5 SHL DUP2 MSTORE PUSH1 0x20 PUSH1 0x4 DUP3 ADD MSTORE PUSH1 0x5 PUSH1 0x24 DUP3 ADD MSTORE PUSH32 0x636F6F7264000000000000000000000000000000000000000000000000000000 PUSH1 0x44 DUP3 ADD MSTORE PUSH1 0x64 ADD PUSH2 0xCC2 JUMP JUMPDEST DUP6 PUSH1 0xFF AND PUSH1 0x4 EQ DUP1 ISZERO PUSH2 0x2BB5 JUMPI POP DUP5 PUSH1 0xFF AND PUSH1 0x4 EQ JUMPDEST ISZERO PUSH2 0x2C02 JUMPI PUSH1 0x40 MLOAD PUSH3 0x461BCD PUSH1 0xE5 SHL DUP2 MSTORE PUSH1 0x20 PUSH1 0x4 DUP3 ADD MSTORE PUSH1 0x1 PUSH1 0x24 DUP3 ADD MSTORE PUSH32 0x6300000000000000000000000000000000000000000000000000000000000000 PUSH1 0x44 DUP3 ADD MSTORE PUSH1 0x64 ADD PUSH2 0xCC2 JUMP JUMPDEST PUSH1 0xFF DUP1 DUP10 AND PUSH1 0x0 SWAP1 DUP2 MSTORE PUSH1 0x2A PUSH1 0x20 SWAP1 DUP2 MSTORE PUSH1 0x40 DUP1 DUP4 KECCAK256 DUP12 DUP6 AND DUP5 MSTORE DUP3 MSTORE DUP1 DUP4 KECCAK256 DUP11 DUP6 AND DUP5 MSTORE DUP3 MSTORE DUP1 DUP4 KECCAK256 DUP10 DUP6 AND DUP5 MSTORE SWAP1 SWAP2 MSTORE DUP2 KECCAK256 SLOAD SWAP1 SWAP2 AND SWAP1 DUP2 SWAP1 SUB PUSH2 0x2C8A JUMPI PUSH1 0x40 MLOAD PUSH3 0x461BCD PUSH1 0xE5 SHL DUP2 MSTORE PUSH1 0x20 PUSH1 0x4 DUP3 ADD MSTORE PUSH1 0x1 PUSH1 0x24 DUP3 ADD MSTORE PUSH32 0x6E00000000000000000000000000000000000000000000000000000000000000 PUSH1 0x44 DUP3 ADD MSTORE PUSH1 0x64 ADD PUSH2 0xCC2 JUMP JUMPDEST PUSH2 0x2C93 DUP2 PUSH2 0x4758 JUMP JUMPDEST PUSH2 0x2CC9 JUMPI PUSH1 0x40 MLOAD PUSH32 0xB44D49E600000000000000000000000000000000000000000000000000000000 DUP2 MSTORE PUSH1 0x4 ADD PUSH1 0x40 MLOAD DUP1 SWAP2 SUB SWAP1 REVERT JUMPDEST DUP1 PUSH1 0xFF AND PUSH1 0x3 SUB PUSH2 0x2D00 JUMPI PUSH1 0xFF DUP1 DUP11 AND PUSH1 0x0 SWAP1 DUP2 MSTORE PUSH1 0x9 PUSH1 0x20 SWAP1 DUP2 MSTORE PUSH1 0x40 DUP1 DUP4 KECCAK256 SWAP4 DUP13 AND DUP4 MSTORE SWAP3 SWAP1 MSTORE KECCAK256 DUP1 SLOAD PUSH1 0xFF NOT AND SWAP1 SSTORE PUSH2 0x2D33 JUMP JUMPDEST DUP1 PUSH1 0xFF AND PUSH1 0x6 SUB PUSH2 0x2D33 JUMPI PUSH1 0xFF DUP1 DUP11 AND PUSH1 0x0 SWAP1 DUP2 MSTORE PUSH1 0xA PUSH1 0x20 SWAP1 DUP2 MSTORE PUSH1 0x40 DUP1 DUP4 KECCAK256 SWAP4 DUP13 AND DUP4 MSTORE SWAP3 SWAP1 MSTORE KECCAK256 DUP1 SLOAD PUSH1 0xFF NOT AND SWAP1 SSTORE JUMPDEST POP POP POP PUSH1 0xFF DUP1 DUP8 AND PUSH1 0x0 SWAP1 DUP2 MSTORE PUSH1 0x2A PUSH1 0x20 SWAP1 DUP2 MSTORE PUSH1 0x40 DUP1 DUP4 KECCAK256 DUP10 DUP6 AND DUP5 MSTORE DUP3 MSTORE DUP1 DUP4 KECCAK256 DUP9 DUP6 AND DUP5 MSTORE DUP3 MSTORE DUP1 DUP4 KECCAK256 SWAP4 DUP8 AND DUP4 MSTORE SWAP3 SWAP1 MSTORE KECCAK256 DUP1 SLOAD PUSH1 0xFF NOT AND SWAP1 SSTORE POP PUSH2 0xEB5 SWAP1 POP PUSH1 0x1 PUSH1 0x0 SSTORE JUMP JUMPDEST PUSH2 0x2D86 PUSH2 0x43F5 JUMP JUMPDEST PUSH1 0xE SLOAD PUSH1 0x1 PUSH1 0x1 PUSH1 0xA0 SHL SUB AND CALLER EQ PUSH2 0x2DE0 JUMPI PUSH1 0x40 MLOAD PUSH3 0x461BCD PUSH1 0xE5 SHL DUP2 MSTORE PUSH1 0x20 PUSH1 0x4 DUP3 ADD MSTORE PUSH1 0x1 PUSH1 0x24 DUP3 ADD MSTORE PUSH32 0x6100000000000000000000000000000000000000000000000000000000000000 PUSH1 0x44 DUP3 ADD MSTORE PUSH1 0x64 ADD PUSH2 0xCC2 JUMP JUMPDEST PUSH1 0xFF DUP1 DUP4 AND PUSH1 0x0 SWAP1 DUP2 MSTORE PUSH1 0x29 PUSH1 0x20 SWAP1 DUP2 MSTORE PUSH1 0x40 DUP1 DUP4 KECCAK256 SWAP4 DUP6 AND DUP4 MSTORE SWAP3 SWAP1 MSTORE KECCAK256 PUSH2 0x2E0A DUP2 DUP5 DUP5 PUSH2 0x4776 JUMP JUMPDEST POP PUSH2 0x2E15 PUSH1 0x1 PUSH1 0x0 SSTORE JUMP JUMPDEST POP POP JUMP JUMPDEST PUSH1 0x10 SLOAD PUSH1 0x1 PUSH1 0x1 PUSH1 0xA0 SHL SUB AND CALLER EQ PUSH2 0x2E5D JUMPI PUSH1 0x40 MLOAD PUSH32 0x3F5C695D00000000000000000000000000000000000000000000000000000000 DUP2 MSTORE PUSH1 0x4 ADD PUSH1 0x40 MLOAD DUP1 SWAP2 SUB SWAP1 REVERT JUMPDEST PUSH1 0x10 DUP1 SLOAD SWAP2 ISZERO ISZERO PUSH22 0x1000000000000000000000000000000000000000000 MUL PUSH32 0xFFFFFFFFFFFFFFFFFFFF00FFFFFFFFFFFFFFFFFFFFFFFFFFFFFFFFFFFFFFFFFF SWAP1 SWAP3 AND SWAP2 SWAP1 SWAP2 OR SWAP1 SSTORE JUMP JUMPDEST PUSH2 0x2EB0 PUSH2 0x43F5 JUMP JUMPDEST PUSH1 0xE SLOAD PUSH1 0x1 PUSH1 0x1 PUSH1 0xA0 SHL SUB AND CALLER EQ PUSH2 0x2F0A JUMPI PUSH1 0x40 MLOAD PUSH3 0x461BCD PUSH1 0xE5 SHL DUP2 MSTORE PUSH1 0x20 PUSH1 0x4 DUP3 ADD MSTORE PUSH1 0x1 PUSH1 0x24 DUP3 ADD MSTORE PUSH32 0x6100000000000000000000000000000000000000000000000000000000000000 PUSH1 0x44 DUP3 ADD MSTORE PUSH1 0x64 ADD PUSH2 0xCC2 JUMP JUMPDEST PUSH1 0xFF DUP1 DUP5 AND PUSH1 0x0 SWAP1 DUP2 MSTORE PUSH1 0xC PUSH1 0x20 SWAP1 DUP2 MSTORE PUSH1 0x40 DUP1 DUP4 KECCAK256 SWAP4 DUP7 AND DUP4 MSTORE SWAP3 SWAP1 MSTORE KECCAK256 DUP1 SLOAD DUP3 ISZERO ISZERO PUSH1 0xFF NOT SWAP1 SWAP2 AND OR SWAP1 SSTORE PUSH2 0x1E98 PUSH1 0x1 PUSH1 0x0 SSTORE JUMP JUMPDEST PUSH2 0x2FC6 PUSH1 0x40 MLOAD DUP1 PUSH2 0x1E0 ADD PUSH1 0x40 MSTORE DUP1 PUSH1 0x0 DUP2 MSTORE PUSH1 0x20 ADD PUSH1 0x0 DUP2 MSTORE PUSH1 0x20 ADD PUSH1 0x0 DUP2 MSTORE PUSH1 0x20 ADD PUSH1 0x0 DUP2 MSTORE PUSH1 0x20 ADD PUSH1 0x0 PUSH2 0xFFFF AND DUP2 MSTORE PUSH1 0x20 ADD PUSH1 0x0 DUP2 MSTORE PUSH1 0x20 ADD PUSH1 0x0 DUP2 MSTORE PUSH1 0x20 ADD PUSH1 0x0 DUP2 MSTORE PUSH1 0x20 ADD PUSH1 0x0 DUP2 MSTORE PUSH1 0x20 ADD PUSH1 0x0 DUP2 MSTORE PUSH1 0x20 ADD PUSH1 0x0 DUP2 MSTORE PUSH1 0x20 ADD PUSH1 0x0 DUP2 MSTORE PUSH1 0x20 ADD PUSH1 0x0 PUSH2 0xFFFF AND DUP2 MSTORE PUSH1 0x20 ADD PUSH1 0x0 PUSH2 0xFFFF AND DUP2 MSTORE PUSH1 0x20 ADD PUSH1 0x0 DUP2 MSTORE POP SWAP1 JUMP JUMPDEST PUSH1 0x2 SLOAD PUSH1 0x40 MLOAD PUSH4 0x8A888953 PUSH1 0xE0 SHL DUP2 MSTORE PUSH1 0xFF DUP1 DUP7 AND PUSH1 0x4 DUP4 ADD MSTORE DUP5 AND PUSH1 0x24 DUP3 ADD MSTORE DUP5 SWAP2 DUP5 SWAP2 PUSH1 0x0 SWAP2 PUSH1 0x1 PUSH1 0x1 PUSH1 0xA0 SHL SUB AND SWAP1 PUSH4 0x8A888953 SWAP1 PUSH1 0x44 ADD PUSH1 0x20 PUSH1 0x40 MLOAD DUP1 DUP4 SUB DUP2 DUP7 GAS STATICCALL ISZERO DUP1 ISZERO PUSH2 0x301E JUMPI RETURNDATASIZE PUSH1 0x0 DUP1 RETURNDATACOPY RETURNDATASIZE PUSH1 0x0 REVERT JUMPDEST POP POP POP POP PUSH1 0x40 MLOAD RETURNDATASIZE PUSH1 0x1F NOT PUSH1 0x1F DUP3 ADD AND DUP3 ADD DUP1 PUSH1 0x40 MSTORE POP DUP2 ADD SWAP1 PUSH2 0x3042 SWAP2 SWAP1 PUSH2 0x5270 JUMP JUMPDEST SWAP1 POP CALLER PUSH1 0x1 PUSH1 0x1 PUSH1 0xA0 SHL SUB DUP3 AND EQ DUP1 ISZERO SWAP1 PUSH2 0x307B JUMPI POP PUSH1 0xE SLOAD PUSH1 0x1 PUSH1 0x1 PUSH1 0xA0 SHL SUB AND ISZERO DUP1 PUSH2 0x307B JUMPI POP PUSH1 0xE SLOAD PUSH1 0x1 PUSH1 0x1 PUSH1 0xA0 SHL SUB AND CALLER EQ ISZERO JUMPDEST ISZERO PUSH2 0x30B2 JUMPI PUSH1 0x40 MLOAD PUSH32 0xDA76F5FA00000000000000000000000000000000000000000000000000000000 DUP2 MSTORE PUSH1 0x4 ADD PUSH1 0x40 MLOAD DUP1 SWAP2 SUB SWAP1 REVERT JUMPDEST POP POP POP POP PUSH1 0xFF SWAP2 DUP3 AND PUSH1 0x0 SWAP1 DUP2 MSTORE PUSH1 0x29 PUSH1 0x20 SWAP1 DUP2 MSTORE PUSH1 0x40 DUP1 DUP4 KECCAK256 SWAP4 SWAP1 SWAP5 AND DUP3 MSTORE SWAP2 DUP3 MSTORE DUP3 SWAP1 KECCAK256 DUP3 MLOAD PUSH2 0x1E0 DUP2 ADD DUP5 MSTORE DUP2 SLOAD DUP2 MSTORE PUSH1 0x1 DUP3 ADD SLOAD SWAP3 DUP2 ADD SWAP3 SWAP1 SWAP3 MSTORE PUSH1 0x2 DUP2 ADD SLOAD SWAP3 DUP3 ADD SWAP3 SWAP1 SWAP3 MSTORE PUSH1 0x3 DUP3 ADD SLOAD PUSH1 0x60 DUP3 ADD MSTORE PUSH1 0x4 DUP3 ADD SLOAD PUSH2 0xFFFF SWAP1 DUP2 AND PUSH1 0x80 DUP4 ADD MSTORE PUSH1 0x5 DUP4 ADD SLOAD PUSH1 0xA0 DUP4 ADD MSTORE PUSH1 0x8 DUP4 ADD SLOAD PUSH1 0xC0 DUP4 ADD MSTORE PUSH1 0x9 DUP4 ADD SLOAD PUSH1 0xE0 DUP4 ADD MSTORE PUSH1 0xA DUP4 ADD SLOAD PUSH2 0x100 DUP4 ADD MSTORE PUSH1 0xB DUP4 ADD SLOAD PUSH2 0x120 DUP4 ADD MSTORE PUSH1 0xC DUP4 ADD SLOAD PUSH2 0x140 DUP4 ADD MSTORE PUSH1 0xD DUP4 ADD SLOAD PUSH2 0x160 DUP4 ADD MSTORE PUSH1 0xE DUP4 ADD SLOAD DUP1 DUP3 AND PUSH2 0x180 DUP5 ADD MSTORE PUSH3 0x10000 SWAP1 DIV AND PUSH2 0x1A0 DUP3 ADD MSTORE PUSH1 0xF SWAP1 SWAP2 ADD SLOAD PUSH2 0x1C0 DUP3 ADD MSTORE SWAP1 JUMP JUMPDEST PUSH2 0x3193 PUSH2 0x4DEC JUMP JUMPDEST PUSH1 0x2 SLOAD PUSH1 0x40 MLOAD PUSH4 0x8A888953 PUSH1 0xE0 SHL DUP2 MSTORE PUSH1 0xFF DUP1 DUP7 AND PUSH1 0x4 DUP4 ADD MSTORE DUP5 AND PUSH1 0x24 DUP3 ADD MSTORE DUP5 SWAP2 DUP5 SWAP2 CALLER SWAP2 PUSH1 0x1 PUSH1 0x1 PUSH1 0xA0 SHL SUB AND SWAP1 PUSH4 0x8A888953 SWAP1 PUSH1 0x44 ADD PUSH1 0x20 PUSH1 0x40 MLOAD DUP1 DUP4 SUB DUP2 DUP7 GAS STATICCALL ISZERO DUP1 ISZERO PUSH2 0x31EA JUMPI RETURNDATASIZE PUSH1 0x0 DUP1 RETURNDATACOPY RETURNDATASIZE PUSH1 0x0 REVERT JUMPDEST POP POP POP POP PUSH1 0x40 MLOAD RETURNDATASIZE PUSH1 0x1F NOT PUSH1 0x1F DUP3 ADD AND DUP3 ADD DUP1 PUSH1 0x40 MSTORE POP DUP2 ADD SWAP1 PUSH2 0x320E SWAP2 SWAP1 PUSH2 0x5270 JUMP JUMPDEST PUSH1 0x1 PUSH1 0x1 PUSH1 0xA0 SHL SUB AND EQ PUSH2 0x324A JUMPI PUSH1 0x40 MLOAD PUSH3 0x461BCD PUSH1 0xE5 SHL DUP2 MSTORE PUSH1 0x20 PUSH1 0x4 DUP3 ADD MSTORE PUSH1 0x3 PUSH1 0x24 DUP3 ADD MSTORE PUSH3 0x37BBB7 PUSH1 0xE9 SHL PUSH1 0x44 DUP3 ADD MSTORE PUSH1 0x64 ADD PUSH2 0xCC2 JUMP JUMPDEST PUSH2 0x3252 PUSH2 0x4DEC JUMP JUMPDEST PUSH1 0x0 JUMPDEST PUSH1 0x9 PUSH1 0xFF DUP3 AND LT ISZERO PUSH2 0x3309 JUMPI PUSH1 0x0 JUMPDEST PUSH1 0x9 PUSH1 0xFF DUP3 AND LT ISZERO PUSH2 0x32F6 JUMPI PUSH1 0xFF DUP1 DUP10 AND PUSH1 0x0 SWAP1 DUP2 MSTORE PUSH1 0x2A PUSH1 0x20 SWAP1 DUP2 MSTORE PUSH1 0x40 DUP1 DUP4 KECCAK256 DUP12 DUP6 AND DUP5 MSTORE DUP3 MSTORE DUP1 DUP4 KECCAK256 DUP7 DUP6 AND DUP1 DUP6 MSTORE SWAP1 DUP4 MSTORE DUP2 DUP5 KECCAK256 DUP7 DUP7 AND DUP6 MSTORE SWAP1 SWAP3 MSTORE SWAP1 SWAP2 KECCAK256 SLOAD SWAP1 SWAP2 AND SWAP1 DUP5 SWAP1 PUSH1 0x9 DUP2 LT PUSH2 0x32BE JUMPI PUSH2 0x32BE PUSH2 0x53B5 JUMP JUMPDEST PUSH1 0x20 MUL ADD MLOAD DUP3 PUSH1 0xFF AND PUSH1 0x9 DUP2 LT PUSH2 0x32D7 JUMPI PUSH2 0x32D7 PUSH2 0x53B5 JUMP JUMPDEST PUSH1 0xFF SWAP1 SWAP3 AND PUSH1 0x20 SWAP3 SWAP1 SWAP3 MUL ADD MSTORE DUP1 PUSH2 0x32EE DUP2 PUSH2 0x53E4 JUMP JUMPDEST SWAP2 POP POP PUSH2 0x3264 JUMP JUMPDEST POP DUP1 PUSH2 0x3301 DUP2 PUSH2 0x53E4 JUMP JUMPDEST SWAP2 POP POP PUSH2 0x3255 JUMP JUMPDEST POP SWAP3 POP JUMPDEST POP POP SWAP3 SWAP2 POP POP JUMP JUMPDEST PUSH1 0xD SLOAD PUSH1 0x1 PUSH1 0x1 PUSH1 0xA0 SHL SUB AND CALLER EQ PUSH2 0x3359 JUMPI PUSH1 0x40 MLOAD PUSH32 0x30CD747100000000000000000000000000000000000000000000000000000000 DUP2 MSTORE PUSH1 0x4 ADD PUSH1 0x40 MLOAD DUP1 SWAP2 SUB SWAP1 REVERT JUMPDEST PUSH1 0x10 SLOAD PUSH22 0x1000000000000000000000000000000000000000000 SWAP1 DIV PUSH1 0xFF AND ISZERO PUSH2 0x33C5 JUMPI PUSH1 0x40 MLOAD PUSH3 0x461BCD PUSH1 0xE5 SHL DUP2 MSTORE PUSH1 0x20 PUSH1 0x4 DUP3 ADD MSTORE PUSH1 0x5 PUSH1 0x24 DUP3 ADD MSTORE PUSH32 0x6B696C6974000000000000000000000000000000000000000000000000000000 PUSH1 0x44 DUP3 ADD MSTORE PUSH1 0x64 ADD PUSH2 0xCC2 JUMP JUMPDEST PUSH1 0x10 DUP1 SLOAD PUSH32 0xFFFFFFFFFFFFFFFFFFFFFF00FFFFFFFFFFFFFFFFFFFFFFFFFFFFFFFFFFFFFFFF AND SWAP1 SSTORE JUMP JUMPDEST PUSH2 0x33F7 PUSH2 0x43F5 JUMP JUMPDEST PUSH1 0x2 SLOAD PUSH1 0x40 MLOAD PUSH4 0x8A888953 PUSH1 0xE0 SHL DUP2 MSTORE PUSH1 0xFF DUP1 DUP6 AND PUSH1 0x4 DUP4 ADD MSTORE DUP4 AND PUSH1 0x24 DUP3 ADD MSTORE DUP4 SWAP2 DUP4 SWAP2 CALLER SWAP2 PUSH1 0x1 PUSH1 0x1 PUSH1 0xA0 SHL SUB AND SWAP1 PUSH4 0x8A888953 SWAP1 PUSH1 0x44 ADD PUSH1 0x20 PUSH1 0x40 MLOAD DUP1 DUP4 SUB DUP2 DUP7 GAS STATICCALL ISZERO DUP1 ISZERO PUSH2 0x344E JUMPI RETURNDATASIZE PUSH1 0x0 DUP1 RETURNDATACOPY RETURNDATASIZE PUSH1 0x0 REVERT JUMPDEST POP POP POP POP PUSH1 0x40 MLOAD RETURNDATASIZE PUSH1 0x1F NOT PUSH1 0x1F DUP3 ADD AND DUP3 ADD DUP1 PUSH1 0x40 MSTORE POP DUP2 ADD SWAP1 PUSH2 0x3472 SWAP2 SWAP1 PUSH2 0x5270 JUMP JUMPDEST PUSH1 0x1 PUSH1 0x1 PUSH1 0xA0 SHL SUB AND EQ PUSH2 0x34AE JUMPI PUSH1 0x40 MLOAD PUSH3 0x461BCD PUSH1 0xE5 SHL DUP2 MSTORE PUSH1 0x20 PUSH1 0x4 DUP3 ADD MSTORE PUSH1 0x3 PUSH1 0x24 DUP3 ADD MSTORE PUSH3 0x37BBB7 PUSH1 0xE9 SHL PUSH1 0x44 DUP3 ADD MSTORE PUSH1 0x64 ADD PUSH2 0xCC2 JUMP JUMPDEST PUSH2 0x34B8 DUP5 DUP5 PUSH2 0x47D6 JUMP JUMPDEST POP POP PUSH2 0x2E15 PUSH1 0x1 PUSH1 0x0 SSTORE JUMP JUMPDEST PUSH1 0x2 SLOAD PUSH1 0x40 MLOAD PUSH4 0x8A888953 PUSH1 0xE0 SHL DUP2 MSTORE PUSH1 0xFF DUP1 DUP6 AND PUSH1 0x4 DUP4 ADD MSTORE DUP4 AND PUSH1 0x24 DUP3 ADD MSTORE DUP4 SWAP2 DUP4 SWAP2 CALLER SWAP2 PUSH1 0x1 PUSH1 0x1 PUSH1 0xA0 SHL SUB AND SWAP1 PUSH4 0x8A888953 SWAP1 PUSH1 0x44 ADD PUSH1 0x20 PUSH1 0x40 MLOAD DUP1 DUP4 SUB DUP2 DUP7 GAS STATICCALL ISZERO DUP1 ISZERO PUSH2 0x351B JUMPI RETURNDATASIZE PUSH1 0x0 DUP1 RETURNDATACOPY RETURNDATASIZE PUSH1 0x0 REVERT JUMPDEST POP POP POP POP PUSH1 0x40 MLOAD RETURNDATASIZE PUSH1 0x1F NOT PUSH1 0x1F DUP3 ADD AND DUP3 ADD DUP1 PUSH1 0x40 MSTORE POP DUP2 ADD SWAP1 PUSH2 0x353F SWAP2 SWAP1 PUSH2 0x5270 JUMP JUMPDEST PUSH1 0x1 PUSH1 0x1 PUSH1 0xA0 SHL SUB AND EQ PUSH2 0x357B JUMPI PUSH1 0x40 MLOAD PUSH3 0x461BCD PUSH1 0xE5 SHL DUP2 MSTORE PUSH1 0x20 PUSH1 0x4 DUP3 ADD MSTORE PUSH1 0x3 PUSH1 0x24 DUP3 ADD MSTORE PUSH3 0x37BBB7 PUSH1 0xE9 SHL PUSH1 0x44 DUP3 ADD MSTORE PUSH1 0x64 ADD PUSH2 0xCC2 JUMP JUMPDEST PUSH2 0x3583 PUSH2 0x43F5 JUMP JUMPDEST PUSH1 0x10 SLOAD PUSH21 0x10000000000000000000000000000000000000000 SWAP1 DIV PUSH1 0xFF AND ISZERO PUSH2 0x35EE JUMPI PUSH1 0x40 MLOAD PUSH3 0x461BCD PUSH1 0xE5 SHL DUP2 MSTORE PUSH1 0x20 PUSH1 0x4 DUP3 ADD MSTORE PUSH1 0x6 PUSH1 0x24 DUP3 ADD MSTORE PUSH32 0x7061757365640000000000000000000000000000000000000000000000000000 PUSH1 0x44 DUP3 ADD MSTORE PUSH1 0x64 ADD PUSH2 0xCC2 JUMP JUMPDEST PUSH1 0x0 DUP6 PUSH2 0xFFFF AND GT DUP1 ISZERO PUSH2 0x3608 JUMPI POP PUSH2 0x258 DUP6 PUSH2 0xFFFF AND GT ISZERO JUMPDEST PUSH2 0x3654 JUMPI PUSH1 0x40 MLOAD PUSH3 0x461BCD PUSH1 0xE5 SHL DUP2 MSTORE PUSH1 0x20 PUSH1 0x4 DUP3 ADD MSTORE PUSH1 0xD PUSH1 0x24 DUP3 ADD MSTORE PUSH32 0x496E76616C6964207475726E7300000000000000000000000000000000000000 PUSH1 0x44 DUP3 ADD MSTORE PUSH1 0x64 ADD PUSH2 0xCC2 JUMP JUMPDEST PUSH1 0x4 SLOAD CALLVALUE EQ PUSH2 0x368F JUMPI PUSH1 0x40 MLOAD PUSH32 0x917F1A5300000000000000000000000000000000000000000000000000000000 DUP2 MSTORE PUSH1 0x4 ADD PUSH1 0x40 MLOAD DUP1 SWAP2 SUB SWAP1 REVERT JUMPDEST PUSH1 0xF SLOAD PUSH1 0x1 PUSH1 0x1 PUSH1 0xA0 SHL SUB AND PUSH2 0x36D1 JUMPI PUSH1 0x40 MLOAD PUSH32 0xD92E233D00000000000000000000000000000000000000000000000000000000 DUP2 MSTORE PUSH1 0x4 ADD PUSH1 0x40 MLOAD DUP1 SWAP2 SUB SWAP1 REVERT JUMPDEST PUSH2 0x36DB DUP5 DUP5 PUSH2 0x47D6 JUMP JUMPDEST PUSH1 0xFF DUP1 DUP6 AND PUSH1 0x0 SWAP1 DUP2 MSTORE PUSH1 0x29 PUSH1 0x20 SWAP1 DUP2 MSTORE PUSH1 0x40 DUP1 DUP4 KECCAK256 SWAP4 DUP8 AND DUP4 MSTORE SWAP3 SWAP1 MSTORE KECCAK256 PUSH1 0x6 ADD SLOAD PUSH2 0xFFFF DUP1 DUP8 AND SWAP2 AND LT ISZERO PUSH2 0x3738 JUMPI PUSH1 0x40 MLOAD PUSH3 0x461BCD PUSH1 0xE5 SHL DUP2 MSTORE PUSH1 0x20 PUSH1 0x4 DUP3 ADD MSTORE PUSH1 0x1 PUSH1 0x24 DUP3 ADD MSTORE PUSH1 0x1D PUSH1 0xFA SHL PUSH1 0x44 DUP3 ADD MSTORE PUSH1 0x64 ADD PUSH2 0xCC2 JUMP JUMPDEST PUSH1 0xFF DUP1 DUP6 AND PUSH1 0x0 SWAP1 DUP2 MSTORE PUSH1 0x29 PUSH1 0x20 SWAP1 DUP2 MSTORE PUSH1 0x40 DUP1 DUP4 KECCAK256 SWAP4 DUP8 AND DUP4 MSTORE SWAP3 SWAP1 MSTORE KECCAK256 PUSH1 0x5 ADD SLOAD PUSH2 0x3768 SWAP1 PUSH2 0x3E8 SWAP1 PUSH2 0x5403 JUMP JUMPDEST PUSH2 0x3774 SWAP1 PUSH2 0x3E8 PUSH2 0x52CF JUMP JUMPDEST DUP6 PUSH2 0xFFFF AND GT ISZERO PUSH2 0x37BE JUMPI PUSH1 0xFF DUP1 DUP6 AND PUSH1 0x0 SWAP1 DUP2 MSTORE PUSH1 0x29 PUSH1 0x20 SWAP1 DUP2 MSTORE PUSH1 0x40 DUP1 DUP4 KECCAK256 SWAP4 DUP8 AND DUP4 MSTORE SWAP3 SWAP1 MSTORE KECCAK256 PUSH1 0x5 ADD SLOAD PUSH2 0x37AF SWAP1 PUSH2 0x3E8 SWAP1 PUSH2 0x5403 JUMP JUMPDEST PUSH2 0x37BB SWAP1 PUSH2 0x3E8 PUSH2 0x52CF JUMP JUMPDEST SWAP5 POP JUMPDEST PUSH1 0xFF DUP1 DUP6 AND PUSH1 0x0 SWAP1 DUP2 MSTORE PUSH1 0x29 PUSH1 0x20 SWAP1 DUP2 MSTORE PUSH1 0x40 DUP1 DUP4 KECCAK256 SWAP4 DUP8 AND DUP4 MSTORE SWAP3 SWAP1 MSTORE SWAP1 DUP2 KECCAK256 PUSH1 0x6 ADD DUP1 SLOAD DUP8 SWAP3 SWAP1 PUSH2 0x37F6 SWAP1 DUP5 SWAP1 PUSH2 0xFFFF AND PUSH2 0x5417 JUMP JUMPDEST DUP3 SLOAD PUSH2 0xFFFF SWAP2 DUP3 AND PUSH2 0x100 SWAP4 SWAP1 SWAP4 EXP SWAP3 DUP4 MUL SWAP2 SWAP1 SWAP3 MUL NOT SWAP1 SWAP2 AND OR SWAP1 SSTORE POP PUSH1 0xFF DUP1 DUP6 AND PUSH1 0x0 SWAP1 DUP2 MSTORE PUSH1 0x29 PUSH1 0x20 SWAP1 DUP2 MSTORE PUSH1 0x40 DUP1 DUP4 KECCAK256 SWAP4 DUP8 AND DUP4 MSTORE SWAP3 SWAP1 MSTORE SWAP1 DUP2 KECCAK256 TIMESTAMP PUSH1 0x7 SWAP1 SWAP2 ADD SSTORE PUSH2 0x3848 DUP6 DUP6 PUSH1 0x5 PUSH2 0x444E JUMP JUMPDEST SWAP1 POP PUSH2 0x3855 PUSH1 0x1 DUP3 PUSH2 0x52BC JUMP JUMPDEST PUSH1 0x3 SLOAD PUSH1 0x40 MLOAD PUSH32 0x2A2026A900000000000000000000000000000000000000000000000000000000 DUP2 MSTORE PUSH1 0xFF DUP1 DUP10 AND PUSH1 0x4 DUP4 ADD MSTORE DUP8 AND PUSH1 0x24 DUP3 ADD MSTORE SWAP2 SWAP3 POP PUSH1 0x0 SWAP2 PUSH1 0x1 PUSH1 0x1 PUSH1 0xA0 SHL SUB SWAP1 SWAP2 AND SWAP1 PUSH4 0x2A2026A9 SWAP1 PUSH1 0x44 ADD PUSH1 0x20 PUSH1 0x40 MLOAD DUP1 DUP4 SUB DUP2 DUP7 GAS STATICCALL ISZERO DUP1 ISZERO PUSH2 0x38C7 JUMPI RETURNDATASIZE PUSH1 0x0 DUP1 RETURNDATACOPY RETURNDATASIZE PUSH1 0x0 REVERT JUMPDEST POP POP POP POP PUSH1 0x40 MLOAD RETURNDATASIZE PUSH1 0x1F NOT PUSH1 0x1F DUP3 ADD AND DUP3 ADD DUP1 PUSH1 0x40 MSTORE POP DUP2 ADD SWAP1 PUSH2 0x38EB SWAP2 SWAP1 PUSH2 0x5432 JUMP JUMPDEST PUSH1 0xFF DUP1 DUP9 AND PUSH1 0x0 SWAP1 DUP2 MSTORE PUSH1 0x29 PUSH1 0x20 SWAP1 DUP2 MSTORE PUSH1 0x40 DUP1 DUP4 KECCAK256 DUP11 DUP6 AND DUP5 MSTORE SWAP1 SWAP2 MSTORE SWAP1 KECCAK256 SWAP2 SWAP3 POP DUP3 AND PUSH1 0x1 SUB PUSH2 0x3942 JUMPI PUSH2 0x3925 DUP4 PUSH2 0xFFFF DUP11 AND PUSH2 0x533A JUMP JUMPDEST DUP2 SLOAD DUP3 SWAP1 PUSH1 0x0 SWAP1 PUSH2 0x3937 SWAP1 DUP5 SWAP1 PUSH2 0x52BC JUMP JUMPDEST SWAP1 SWAP2 SSTORE POP PUSH2 0x39CF SWAP1 POP JUMP JUMPDEST DUP2 PUSH1 0xFF AND PUSH1 0x2 SUB PUSH2 0x396F JUMPI PUSH2 0x395B DUP4 PUSH2 0xFFFF DUP11 AND PUSH2 0x533A JUMP JUMPDEST PUSH1 0x1 DUP3 ADD DUP1 SLOAD PUSH1 0x0 SWAP1 PUSH2 0x3937 SWAP1 DUP5 SWAP1 PUSH2 0x52BC JUMP JUMPDEST DUP2 PUSH1 0xFF AND PUSH1 0x3 SUB PUSH2 0x399C JUMPI PUSH2 0x3988 DUP4 PUSH2 0xFFFF DUP11 AND PUSH2 0x533A JUMP JUMPDEST PUSH1 0x2 DUP3 ADD DUP1 SLOAD PUSH1 0x0 SWAP1 PUSH2 0x3937 SWAP1 DUP5 SWAP1 PUSH2 0x52BC JUMP JUMPDEST DUP2 PUSH1 0xFF AND PUSH1 0x4 SUB PUSH2 0x39CF JUMPI PUSH2 0x39B5 DUP4 PUSH2 0xFFFF DUP11 AND PUSH2 0x533A JUMP JUMPDEST PUSH1 0x3 DUP3 ADD DUP1 SLOAD PUSH1 0x0 SWAP1 PUSH2 0x39C9 SWAP1 DUP5 SWAP1 PUSH2 0x52BC JUMP JUMPDEST SWAP1 SWAP2 SSTORE POP POP JUMPDEST PUSH2 0x39DD DUP4 PUSH2 0xFFFF DUP11 AND PUSH2 0x533A JUMP JUMPDEST DUP2 SLOAD DUP3 SWAP1 PUSH1 0x0 SWAP1 PUSH2 0x39EF SWAP1 DUP5 SWAP1 PUSH2 0x52BC JUMP JUMPDEST SWAP1 SWAP2 SSTORE POP PUSH2 0x3A03 SWAP1 POP DUP4 PUSH2 0xFFFF DUP11 AND PUSH2 0x533A JUMP JUMPDEST PUSH1 0x1 DUP3 ADD DUP1 SLOAD PUSH1 0x0 SWAP1 PUSH2 0x3A17 SWAP1 DUP5 SWAP1 PUSH2 0x52BC JUMP JUMPDEST SWAP1 SWAP2 SSTORE POP PUSH2 0x3A2B SWAP1 POP DUP4 PUSH2 0xFFFF DUP11 AND PUSH2 0x533A JUMP JUMPDEST PUSH1 0x2 DUP3 ADD DUP1 SLOAD PUSH1 0x0 SWAP1 PUSH2 0x3A3F SWAP1 DUP5 SWAP1 PUSH2 0x52BC JUMP JUMPDEST SWAP1 SWAP2 SSTORE POP PUSH2 0x3A53 SWAP1 POP DUP4 PUSH2 0xFFFF DUP11 AND PUSH2 0x533A JUMP JUMPDEST PUSH1 0x3 DUP3 ADD DUP1 SLOAD PUSH1 0x0 SWAP1 PUSH2 0x3A67 SWAP1 DUP5 SWAP1 PUSH2 0x52BC JUMP JUMPDEST SWAP3 POP POP DUP2 SWAP1 SSTORE POP DUP8 PUSH2 0xFFFF AND DUP2 PUSH1 0x5 ADD PUSH1 0x0 DUP3 DUP3 SLOAD PUSH2 0x3A86 SWAP2 SWAP1 PUSH2 0x52BC JUMP JUMPDEST SWAP1 SWAP2 SSTORE POP POP PUSH1 0x5 DUP2 ADD SLOAD PUSH1 0x0 SWAP1 PUSH2 0x3AA0 SWAP1 PUSH2 0x3E8 SWAP1 PUSH2 0x5380 JUMP JUMPDEST SWAP1 POP PUSH2 0x3E8 DUP3 PUSH1 0x5 ADD PUSH1 0x0 DUP3 DUP3 SLOAD PUSH2 0x3AB8 SWAP2 SWAP1 PUSH2 0x5403 JUMP JUMPDEST SWAP1 SWAP2 SSTORE POP POP PUSH1 0x4 DUP3 ADD SLOAD PUSH1 0x0 SWAP1 PUSH2 0x3AD4 SWAP1 DUP4 SWAP1 PUSH2 0xFFFF AND PUSH2 0x5318 JUMP JUMPDEST SWAP1 POP PUSH2 0x1F4 DUP2 PUSH2 0xFFFF AND GT ISZERO PUSH2 0x3AFA JUMPI PUSH1 0x4 DUP4 ADD DUP1 SLOAD PUSH2 0xFFFF NOT AND PUSH2 0x1F4 OR SWAP1 SSTORE PUSH2 0x3B0E JUMP JUMPDEST PUSH1 0x4 DUP4 ADD DUP1 SLOAD PUSH2 0xFFFF NOT AND PUSH2 0xFFFF DUP4 AND OR SWAP1 SSTORE JUMPDEST PUSH2 0x3B19 DUP4 DUP11 DUP11 PUSH2 0x4776 JUMP JUMPDEST PUSH1 0xFF DUP1 DUP11 AND PUSH1 0x0 SWAP1 DUP2 MSTORE PUSH1 0x8 PUSH1 0x20 SWAP1 DUP2 MSTORE PUSH1 0x40 DUP1 DUP4 KECCAK256 SWAP4 DUP13 AND DUP4 MSTORE SWAP3 SWAP1 MSTORE SWAP1 DUP2 KECCAK256 DUP1 SLOAD PUSH2 0xFFFF DUP14 AND SWAP3 SWAP1 PUSH2 0x3B4E SWAP1 DUP5 SWAP1 PUSH2 0x52BC JUMP JUMPDEST SWAP1 SWAP2 SSTORE POP POP PUSH1 0xFF DUP1 DUP11 AND PUSH1 0x0 SWAP1 DUP2 MSTORE PUSH1 0xC PUSH1 0x20 SWAP1 DUP2 MSTORE PUSH1 0x40 DUP1 DUP4 KECCAK256 SWAP4 DUP13 AND DUP4 MSTORE SWAP3 SWAP1 MSTORE KECCAK256 DUP1 SLOAD PUSH1 0xFF NOT AND SWAP1 SSTORE PUSH1 0x40 DUP1 MLOAD PUSH2 0xFFFF DUP13 AND DUP2 MSTORE PUSH1 0xFF DUP1 DUP13 AND PUSH1 0x20 DUP4 ADD MSTORE DUP11 AND SWAP2 DUP2 ADD SWAP2 SWAP1 SWAP2 MSTORE CALLER SWAP1 PUSH32 0xBB5B4F7847476E1912E2B57D030B0E491D0D72B2EF256CCEEA9DAA41F40F5D18 SWAP1 PUSH1 0x60 ADD PUSH1 0x40 MLOAD DUP1 SWAP2 SUB SWAP1 LOG2 PUSH2 0x3BD1 CALLVALUE CALLER PUSH2 0x4894 JUMP JUMPDEST PUSH1 0x0 DUP1 PUSH2 0x3BDC PUSH2 0x4BAC JUMP JUMPDEST SWAP1 SWAP3 POP SWAP1 POP DUP2 ISZERO PUSH2 0x3CF7 JUMPI PUSH1 0x0 DUP2 DUP4 PUSH1 0x5 SLOAD DUP16 PUSH2 0xFFFF AND PUSH2 0x3BFD SWAP2 SWAP1 PUSH2 0x533A JUMP JUMPDEST PUSH2 0x3C07 SWAP2 SWAP1 PUSH2 0x533A JUMP JUMPDEST PUSH2 0x3C11 SWAP2 SWAP1 PUSH2 0x5380 JUMP JUMPDEST PUSH1 0x1 SLOAD PUSH1 0x40 MLOAD PUSH32 0xA9059CBB00000000000000000000000000000000000000000000000000000000 DUP2 MSTORE CALLER PUSH1 0x4 DUP3 ADD MSTORE PUSH1 0x24 DUP2 ADD DUP4 SWAP1 MSTORE SWAP2 SWAP3 POP PUSH1 0x0 SWAP2 PUSH1 0x1 PUSH1 0x1 PUSH1 0xA0 SHL SUB SWAP1 SWAP2 AND SWAP1 PUSH4 0xA9059CBB SWAP1 PUSH1 0x44 ADD PUSH1 0x20 PUSH1 0x40 MLOAD DUP1 DUP4 SUB DUP2 PUSH1 0x0 DUP8 GAS CALL ISZERO DUP1 ISZERO PUSH2 0x3C81 JUMPI RETURNDATASIZE PUSH1 0x0 DUP1 RETURNDATACOPY RETURNDATASIZE PUSH1 0x0 REVERT JUMPDEST POP POP POP POP PUSH1 0x40 MLOAD RETURNDATASIZE PUSH1 0x1F NOT PUSH1 0x1F DUP3 ADD AND DUP3 ADD DUP1 PUSH1 0x40 MSTORE POP DUP2 ADD SWAP1 PUSH2 0x3CA5 SWAP2 SWAP1 PUSH2 0x52FB JUMP JUMPDEST SWAP1 POP DUP1 PUSH2 0x3CF4 JUMPI PUSH1 0x40 MLOAD PUSH3 0x461BCD PUSH1 0xE5 SHL DUP2 MSTORE PUSH1 0x20 PUSH1 0x4 DUP3 ADD MSTORE PUSH1 0x1A PUSH1 0x24 DUP3 ADD MSTORE PUSH32 0x4C4F5020726577617264207472616E73666572206661696C6564000000000000 PUSH1 0x44 DUP3 ADD MSTORE PUSH1 0x64 ADD PUSH2 0xCC2 JUMP JUMPDEST POP POP JUMPDEST PUSH1 0x7 DUP1 SLOAD SWAP1 PUSH1 0x0 PUSH2 0x3D07 DUP4 PUSH2 0x544F JUMP JUMPDEST SWAP2 SWAP1 POP SSTORE POP POP POP POP POP POP POP POP PUSH2 0x15F9 PUSH1 0x1 PUSH1 0x0 SSTORE JUMP JUMPDEST PUSH1 0x2 SLOAD PUSH1 0x40 MLOAD PUSH4 0x8A888953 PUSH1 0xE0 SHL DUP2 MSTORE PUSH1 0xFF DUP1 DUP6 AND PUSH1 0x4 DUP4 ADD MSTORE DUP4 AND PUSH1 0x24 DUP3 ADD MSTORE PUSH1 0x0 SWAP2 DUP5 SWAP2 DUP5 SWAP2 CALLER SWAP2 PUSH1 0x1 PUSH1 0x1 PUSH1 0xA0 SHL SUB SWAP1 SWAP2 AND SWAP1 PUSH4 0x8A888953 SWAP1 PUSH1 0x44 ADD PUSH1 0x20 PUSH1 0x40 MLOAD DUP1 DUP4 SUB DUP2 DUP7 GAS STATICCALL ISZERO DUP1 ISZERO PUSH2 0x3D79 JUMPI RETURNDATASIZE PUSH1 0x0 DUP1 RETURNDATACOPY RETURNDATASIZE PUSH1 0x0 REVERT JUMPDEST POP POP POP POP PUSH1 0x40 MLOAD RETURNDATASIZE PUSH1 0x1F NOT PUSH1 0x1F DUP3 ADD AND DUP3 ADD DUP1 PUSH1 0x40 MSTORE POP DUP2 ADD SWAP1 PUSH2 0x3D9D SWAP2 SWAP1 PUSH2 0x5270 JUMP JUMPDEST PUSH1 0x1 PUSH1 0x1 PUSH1 0xA0 SHL SUB AND EQ PUSH2 0x3DD9 JUMPI PUSH1 0x40 MLOAD PUSH3 0x461BCD PUSH1 0xE5 SHL DUP2 MSTORE PUSH1 0x20 PUSH1 0x4 DUP3 ADD MSTORE PUSH1 0x3 PUSH1 0x24 DUP3 ADD MSTORE PUSH3 0x37BBB7 PUSH1 0xE9 SHL PUSH1 0x44 DUP3 ADD MSTORE PUSH1 0x64 ADD PUSH2 0xCC2 JUMP JUMPDEST PUSH1 0xFF DUP1 DUP7 AND PUSH1 0x0 SWAP1 DUP2 MSTORE PUSH1 0x29 PUSH1 0x20 SWAP1 DUP2 MSTORE PUSH1 0x40 DUP1 DUP4 KECCAK256 SWAP4 DUP9 AND DUP4 MSTORE SWAP3 SWAP1 MSTORE KECCAK256 PUSH1 0x7 ADD SLOAD PUSH2 0x258 SWAP1 PUSH2 0x3E0A SWAP1 TIMESTAMP PUSH2 0x52CF JUMP JUMPDEST PUSH2 0x3E15 SWAP1 PUSH1 0x3C PUSH2 0x533A JUMP JUMPDEST PUSH1 0xFF DUP1 DUP9 AND PUSH1 0x0 SWAP1 DUP2 MSTORE PUSH1 0x29 PUSH1 0x20 SWAP1 DUP2 MSTORE PUSH1 0x40 DUP1 DUP4 KECCAK256 SWAP4 DUP11 AND DUP4 MSTORE SWAP3 SWAP1 MSTORE KECCAK256 PUSH1 0x6 ADD SLOAD PUSH2 0x3E46 SWAP2 SWAP1 PUSH2 0xFFFF AND PUSH2 0x52BC JUMP JUMPDEST GT ISZERO PUSH2 0x3E56 JUMPI PUSH2 0x258 SWAP3 POP PUSH2 0x330D JUMP JUMPDEST PUSH1 0xFF DUP1 DUP7 AND PUSH1 0x0 SWAP1 DUP2 MSTORE PUSH1 0x29 PUSH1 0x20 SWAP1 DUP2 MSTORE PUSH1 0x40 DUP1 DUP4 KECCAK256 SWAP4 DUP9 AND DUP4 MSTORE SWAP3 SWAP1 MSTORE KECCAK256 PUSH1 0x7 ADD SLOAD PUSH2 0x3E83 SWAP1 TIMESTAMP PUSH2 0x52CF JUMP JUMPDEST PUSH2 0x3E8E SWAP1 PUSH1 0x3C PUSH2 0x533A JUMP JUMPDEST PUSH1 0xFF DUP1 DUP8 AND PUSH1 0x0 SWAP1 DUP2 MSTORE PUSH1 0x29 PUSH1 0x20 SWAP1 DUP2 MSTORE PUSH1 0x40 DUP1 DUP4 KECCAK256 SWAP4 DUP10 AND DUP4 MSTORE SWAP3 SWAP1 MSTORE KECCAK256 PUSH1 0x6 ADD SLOAD PUSH2 0x3EBF SWAP2 SWAP1 PUSH2 0xFFFF AND PUSH2 0x52BC JUMP JUMPDEST SWAP3 POP PUSH2 0x330D JUMP JUMPDEST PUSH2 0x3ECE PUSH2 0x43F5 JUMP JUMPDEST PUSH1 0x2 SLOAD PUSH1 0x40 MLOAD PUSH4 0x8A888953 PUSH1 0xE0 SHL DUP2 MSTORE PUSH1 0xFF DUP1 DUP8 AND PUSH1 0x4 DUP4 ADD MSTORE DUP6 AND PUSH1 0x24 DUP3 ADD MSTORE DUP6 SWAP2 DUP6 SWAP2 CALLER SWAP2 PUSH1 0x1 PUSH1 0x1 PUSH1 0xA0 SHL SUB AND SWAP1 PUSH4 0x8A888953 SWAP1 PUSH1 0x44 ADD PUSH1 0x20 PUSH1 0x40 MLOAD DUP1 DUP4 SUB DUP2 DUP7 GAS STATICCALL ISZERO DUP1 ISZERO PUSH2 0x3F25 JUMPI RETURNDATASIZE PUSH1 0x0 DUP1 RETURNDATACOPY RETURNDATASIZE PUSH1 0x0 REVERT JUMPDEST POP POP POP POP PUSH1 0x40 MLOAD RETURNDATASIZE PUSH1 0x1F NOT PUSH1 0x1F DUP3 ADD AND DUP3 ADD DUP1 PUSH1 0x40 MSTORE POP DUP2 ADD SWAP1 PUSH2 0x3F49 SWAP2 SWAP1 PUSH2 0x5270 JUMP JUMPDEST PUSH1 0x1 PUSH1 0x1 PUSH1 0xA0 SHL SUB AND EQ PUSH2 0x3F85 JUMPI PUSH1 0x40 MLOAD PUSH3 0x461BCD PUSH1 0xE5 SHL DUP2 MSTORE PUSH1 0x20 PUSH1 0x4 DUP3 ADD MSTORE PUSH1 0x3 PUSH1 0x24 DUP3 ADD MSTORE PUSH3 0x37BBB7 PUSH1 0xE9 SHL PUSH1 0x44 DUP3 ADD MSTORE PUSH1 0x64 ADD PUSH2 0xCC2 JUMP JUMPDEST PUSH1 0x0 DUP4 GT DUP1 ISZERO PUSH2 0x3F97 JUMPI POP PUSH2 0x3E8 DUP4 GT ISZERO JUMPDEST PUSH2 0x3FE3 JUMPI PUSH1 0x40 MLOAD PUSH3 0x461BCD PUSH1 0xE5 SHL DUP2 MSTORE PUSH1 0x20 PUSH1 0x4 DUP3 ADD MSTORE PUSH1 0x10 PUSH1 0x24 DUP3 ADD MSTORE PUSH32 0x496E76616C6964207175616E7469747900000000000000000000000000000000 PUSH1 0x44 DUP3 ADD MSTORE PUSH1 0x64 ADD PUSH2 0xCC2 JUMP JUMPDEST DUP4 PUSH1 0xFF AND PUSH1 0x1 EQ DUP1 PUSH2 0x3FF8 JUMPI POP DUP4 PUSH1 0xFF AND PUSH1 0x2 EQ JUMPDEST PUSH2 0x4028 JUMPI PUSH1 0x40 MLOAD PUSH3 0x461BCD PUSH1 0xE5 SHL DUP2 MSTORE PUSH1 0x20 PUSH1 0x4 DUP3 ADD MSTORE PUSH1 0x1 PUSH1 0x24 DUP3 ADD MSTORE PUSH1 0x1D PUSH1 0xFA SHL PUSH1 0x44 DUP3 ADD MSTORE PUSH1 0x64 ADD PUSH2 0xCC2 JUMP JUMPDEST PUSH1 0x0 PUSH2 0x4036 DUP8 DUP8 PUSH1 0x4 PUSH2 0x444E JUMP JUMPDEST SWAP1 POP PUSH1 0x0 DUP2 GT PUSH2 0x4088 JUMPI PUSH1 0x40 MLOAD PUSH3 0x461BCD PUSH1 0xE5 SHL DUP2 MSTORE PUSH1 0x20 PUSH1 0x4 DUP3 ADD MSTORE PUSH1 0x1 PUSH1 0x24 DUP3 ADD MSTORE PUSH32 0x7000000000000000000000000000000000000000000000000000000000000000 PUSH1 0x44 DUP3 ADD MSTORE PUSH1 0x64 ADD PUSH2 0xCC2 JUMP JUMPDEST PUSH1 0x0 DUP6 PUSH1 0xFF AND PUSH1 0x1 EQ PUSH2 0x409C JUMPI PUSH1 0x25 PUSH2 0x409F JUMP JUMPDEST PUSH1 0x21 JUMPDEST PUSH1 0x40 DUP1 MLOAD PUSH1 0x80 DUP2 ADD DUP3 MSTORE DUP3 SLOAD DUP2 MSTORE PUSH1 0x1 DUP4 ADD SLOAD PUSH1 0x20 DUP3 ADD MSTORE PUSH1 0x2 DUP4 ADD SLOAD SWAP2 DUP2 ADD SWAP2 SWAP1 SWAP2 MSTORE PUSH1 0x3 SWAP1 SWAP2 ADD SLOAD PUSH1 0x60 DUP3 ADD MSTORE SWAP1 POP PUSH2 0x40DD DUP9 DUP9 DUP4 DUP9 DUP7 PUSH2 0x44E9 JUMP JUMPDEST PUSH1 0xFF DUP1 DUP10 AND PUSH1 0x0 SWAP1 DUP2 MSTORE PUSH1 0x29 PUSH1 0x20 SWAP1 DUP2 MSTORE PUSH1 0x40 DUP1 DUP4 KECCAK256 DUP12 DUP6 AND DUP5 MSTORE SWAP1 SWAP2 MSTORE SWAP1 KECCAK256 PUSH1 0x8 ADD SWAP1 DUP8 AND PUSH1 0x1 SUB PUSH2 0x4204 JUMPI DUP1 SLOAD DUP7 GT ISZERO PUSH2 0x415B JUMPI PUSH1 0x40 MLOAD PUSH3 0x461BCD PUSH1 0xE5 SHL DUP2 MSTORE PUSH1 0x20 PUSH1 0x4 DUP3 ADD MSTORE PUSH1 0x2 PUSH1 0x24 DUP3 ADD MSTORE PUSH32 0x6F61000000000000000000000000000000000000000000000000000000000000 PUSH1 0x44 DUP3 ADD MSTORE PUSH1 0x64 ADD PUSH2 0xCC2 JUMP JUMPDEST DUP6 DUP2 PUSH1 0x2 ADD SLOAD LT ISZERO PUSH2 0x41AF JUMPI PUSH1 0x40 MLOAD PUSH3 0x461BCD PUSH1 0xE5 SHL DUP2 MSTORE PUSH1 0x20 PUSH1 0x4 DUP3 ADD MSTORE PUSH1 0x2 PUSH1 0x24 DUP3 ADD MSTORE PUSH32 0x6F77000000000000000000000000000000000000000000000000000000000000 PUSH1 0x44 DUP3 ADD MSTORE PUSH1 0x64 ADD PUSH2 0xCC2 JUMP JUMPDEST DUP6 DUP2 PUSH1 0x0 ADD PUSH1 0x0 DUP3 DUP3 SLOAD PUSH2 0x41C3 SWAP2 SWAP1 PUSH2 0x52CF JUMP JUMPDEST SWAP3 POP POP DUP2 SWAP1 SSTORE POP DUP6 DUP2 PUSH1 0x2 ADD PUSH1 0x0 DUP3 DUP3 SLOAD PUSH2 0x41DE SWAP2 SWAP1 PUSH2 0x52CF JUMP JUMPDEST SWAP3 POP POP DUP2 SWAP1 SSTORE POP DUP6 DUP2 PUSH1 0x4 ADD PUSH1 0x0 DUP3 DUP3 SLOAD PUSH2 0x41F9 SWAP2 SWAP1 PUSH2 0x52BC JUMP JUMPDEST SWAP1 SWAP2 SSTORE POP PUSH2 0x42FC SWAP1 POP JUMP JUMPDEST DUP6 DUP2 PUSH1 0x1 ADD SLOAD LT ISZERO PUSH2 0x4258 JUMPI PUSH1 0x40 MLOAD PUSH3 0x461BCD PUSH1 0xE5 SHL DUP2 MSTORE PUSH1 0x20 PUSH1 0x4 DUP3 ADD MSTORE PUSH1 0x2 PUSH1 0x24 DUP3 ADD MSTORE PUSH32 0x6461000000000000000000000000000000000000000000000000000000000000 PUSH1 0x44 DUP3 ADD MSTORE PUSH1 0x64 ADD PUSH2 0xCC2 JUMP JUMPDEST DUP6 DUP2 PUSH1 0x3 ADD SLOAD LT ISZERO PUSH2 0x42AC JUMPI PUSH1 0x40 MLOAD PUSH3 0x461BCD PUSH1 0xE5 SHL DUP2 MSTORE PUSH1 0x20 PUSH1 0x4 DUP3 ADD MSTORE PUSH1 0x2 PUSH1 0x24 DUP3 ADD MSTORE PUSH32 0x6477000000000000000000000000000000000000000000000000000000000000 PUSH1 0x44 DUP3 ADD MSTORE PUSH1 0x64 ADD PUSH2 0xCC2 JUMP JUMPDEST DUP6 DUP2 PUSH1 0x1 ADD PUSH1 0x0 DUP3 DUP3 SLOAD PUSH2 0x42C0 SWAP2 SWAP1 PUSH2 0x52CF JUMP JUMPDEST SWAP3 POP POP DUP2 SWAP1 SSTORE POP DUP6 DUP2 PUSH1 0x3 ADD PUSH1 0x0 DUP3 DUP3 SLOAD PUSH2 0x42DB SWAP2 SWAP1 PUSH2 0x52CF JUMP JUMPDEST SWAP3 POP POP DUP2 SWAP1 SSTORE POP DUP6 DUP2 PUSH1 0x5 ADD PUSH1 0x0 DUP3 DUP3 SLOAD PUSH2 0x42F6 SWAP2 SWAP1 PUSH2 0x52BC JUMP JUMPDEST SWAP1 SWAP2 SSTORE POP POP JUMPDEST POP POP POP POP POP PUSH2 0xEB5 PUSH1 0x1 PUSH1 0x0 SSTORE JUMP JUMPDEST PUSH1 0xD SLOAD PUSH1 0x1 PUSH1 0x1 PUSH1 0xA0 SHL SUB AND CALLER EQ PUSH2 0x434F JUMPI PUSH1 0x40 MLOAD PUSH32 0x30CD747100000000000000000000000000000000000000000000000000000000 DUP2 MSTORE PUSH1 0x4 ADD PUSH1 0x40 MLOAD DUP1 SWAP2 SUB SWAP1 REVERT JUMPDEST PUSH1 0x10 SLOAD PUSH22 0x1000000000000000000000000000000000000000000 SWAP1 DIV PUSH1 0xFF AND ISZERO PUSH2 0x43BB JUMPI PUSH1 0x40 MLOAD PUSH3 0x461BCD PUSH1 0xE5 SHL DUP2 MSTORE PUSH1 0x20 PUSH1 0x4 DUP3 ADD MSTORE PUSH1 0x5 PUSH1 0x24 DUP3 ADD MSTORE PUSH32 0x6B696C6974000000000000000000000000000000000000000000000000000000 PUSH1 0x44 DUP3 ADD MSTORE PUSH1 0x64 ADD PUSH2 0xCC2 JUMP JUMPDEST PUSH1 0xE DUP1 SLOAD PUSH32 0xFFFFFFFFFFFFFFFFFFFFFFFF0000000000000000000000000000000000000000 AND PUSH1 0x1 PUSH1 0x1 PUSH1 0xA0 SHL SUB SWAP3 SWAP1 SWAP3 AND SWAP2 SWAP1 SWAP2 OR SWAP1 SSTORE JUMP JUMPDEST PUSH1 0x2 PUSH1 0x0 SLOAD SUB PUSH2 0x4447 JUMPI PUSH1 0x40 MLOAD PUSH3 0x461BCD PUSH1 0xE5 SHL DUP2 MSTORE PUSH1 0x20 PUSH1 0x4 DUP3 ADD MSTORE PUSH1 0x1F PUSH1 0x24 DUP3 ADD MSTORE PUSH32 0x5265656E7472616E637947756172643A207265656E7472616E742063616C6C00 PUSH1 0x44 DUP3 ADD MSTORE PUSH1 0x64 ADD PUSH2 0xCC2 JUMP JUMPDEST PUSH1 0x2 PUSH1 0x0 SSTORE JUMP JUMPDEST PUSH1 0x0 DUP1 DUP1 JUMPDEST PUSH1 0x9 PUSH1 0xFF DUP3 AND LT ISZERO PUSH2 0x44E0 JUMPI PUSH1 0x0 JUMPDEST PUSH1 0x9 PUSH1 0xFF DUP3 AND LT ISZERO PUSH2 0x44CD JUMPI PUSH1 0xFF DUP8 DUP2 AND PUSH1 0x0 SWAP1 DUP2 MSTORE PUSH1 0x2A PUSH1 0x20 SWAP1 DUP2 MSTORE PUSH1 0x40 DUP1 DUP4 KECCAK256 DUP11 DUP6 AND DUP5 MSTORE DUP3 MSTORE DUP1 DUP4 KECCAK256 DUP7 DUP6 AND DUP5 MSTORE DUP3 MSTORE DUP1 DUP4 KECCAK256 DUP6 DUP6 AND DUP5 MSTORE SWAP1 SWAP2 MSTORE SWAP1 KECCAK256 SLOAD DUP2 DUP8 AND SWAP2 AND SUB PUSH2 0x44BB JUMPI DUP3 PUSH2 0x44B7 DUP2 PUSH2 0x544F JUMP JUMPDEST SWAP4 POP POP JUMPDEST DUP1 PUSH2 0x44C5 DUP2 PUSH2 0x53E4 JUMP JUMPDEST SWAP2 POP POP PUSH2 0x4462 JUMP JUMPDEST POP DUP1 PUSH2 0x44D8 DUP2 PUSH2 0x53E4 JUMP JUMPDEST SWAP2 POP POP PUSH2 0x4453 JUMP JUMPDEST POP SWAP5 SWAP4 POP POP POP POP JUMP JUMPDEST PUSH1 0xFF DUP1 DUP7 AND PUSH1 0x0 SWAP1 DUP2 MSTORE PUSH1 0x29 PUSH1 0x20 SWAP1 DUP2 MSTORE PUSH1 0x40 DUP1 DUP4 KECCAK256 SWAP4 DUP9 AND DUP4 MSTORE SWAP3 SWAP1 MSTORE SWAP1 DUP2 KECCAK256 DUP5 MLOAD SWAP1 SWAP2 SWAP1 DUP4 SWAP1 PUSH2 0x451C SWAP1 DUP7 SWAP1 PUSH2 0x533A JUMP JUMPDEST PUSH2 0x4526 SWAP2 SWAP1 PUSH2 0x5380 JUMP JUMPDEST SWAP1 POP PUSH1 0x0 DUP4 DUP6 DUP8 PUSH1 0x20 ADD MLOAD PUSH2 0x453B SWAP2 SWAP1 PUSH2 0x533A JUMP JUMPDEST PUSH2 0x4545 SWAP2 SWAP1 PUSH2 0x5380 JUMP JUMPDEST SWAP1 POP PUSH1 0x0 DUP5 DUP7 DUP9 PUSH1 0x40 ADD MLOAD PUSH2 0x455A SWAP2 SWAP1 PUSH2 0x533A JUMP JUMPDEST PUSH2 0x4564 SWAP2 SWAP1 PUSH2 0x5380 JUMP JUMPDEST SWAP1 POP PUSH1 0x0 DUP6 DUP8 DUP10 PUSH1 0x60 ADD MLOAD PUSH2 0x4579 SWAP2 SWAP1 PUSH2 0x533A JUMP JUMPDEST PUSH2 0x4583 SWAP2 SWAP1 PUSH2 0x5380 JUMP JUMPDEST DUP6 SLOAD SWAP1 SWAP2 POP DUP5 GT ISZERO PUSH2 0x45D7 JUMPI PUSH1 0x40 MLOAD PUSH3 0x461BCD PUSH1 0xE5 SHL DUP2 MSTORE PUSH1 0x20 PUSH1 0x4 DUP3 ADD MSTORE PUSH1 0x1 PUSH1 0x24 DUP3 ADD MSTORE PUSH32 0x6600000000000000000000000000000000000000000000000000000000000000 PUSH1 0x44 DUP3 ADD MSTORE PUSH1 0x64 ADD PUSH2 0xCC2 JUMP JUMPDEST PUSH1 0x1 DUP6 ADD SLOAD DUP4 GT ISZERO PUSH2 0x462B JUMPI PUSH1 0x40 MLOAD PUSH3 0x461BCD PUSH1 0xE5 SHL DUP2 MSTORE PUSH1 0x20 PUSH1 0x4 DUP3 ADD MSTORE PUSH1 0x1 PUSH1 0x24 DUP3 ADD MSTORE PUSH32 0x7700000000000000000000000000000000000000000000000000000000000000 PUSH1 0x44 DUP3 ADD MSTORE PUSH1 0x64 ADD PUSH2 0xCC2 JUMP JUMPDEST PUSH1 0x2 DUP6 ADD SLOAD DUP3 GT ISZERO PUSH2 0x467F JUMPI PUSH1 0x40 MLOAD PUSH3 0x461BCD PUSH1 0xE5 SHL DUP2 MSTORE PUSH1 0x20 PUSH1 0x4 DUP3 ADD MSTORE PUSH1 0x1 PUSH1 0x24 DUP3 ADD MSTORE PUSH32 0x7300000000000000000000000000000000000000000000000000000000000000 PUSH1 0x44 DUP3 ADD MSTORE PUSH1 0x64 ADD PUSH2 0xCC2 JUMP JUMPDEST PUSH1 0x3 DUP6 ADD SLOAD DUP2 GT ISZERO PUSH2 0x46D3 JUMPI PUSH1 0x40 MLOAD PUSH3 0x461BCD PUSH1 0xE5 SHL DUP2 MSTORE PUSH1 0x20 PUSH1 0x4 DUP3 ADD MSTORE PUSH1 0x1 PUSH1 0x24 DUP3 ADD MSTORE PUSH32 0x6900000000000000000000000000000000000000000000000000000000000000 PUSH1 0x44 DUP3 ADD MSTORE PUSH1 0x64 ADD PUSH2 0xCC2 JUMP JUMPDEST DUP5 SLOAD DUP5 SWAP1 DUP7 SWAP1 PUSH1 0x0 SWAP1 PUSH2 0x46E7 SWAP1 DUP5 SWAP1 PUSH2 0x52CF JUMP JUMPDEST SWAP1 SWAP2 SSTORE POP POP PUSH1 0x1 DUP6 ADD DUP1 SLOAD DUP5 SWAP2 SWAP1 PUSH1 0x0 SWAP1 PUSH2 0x4703 SWAP1 DUP5 SWAP1 PUSH2 0x52CF JUMP JUMPDEST SWAP1 SWAP2 SSTORE POP POP PUSH1 0x2 DUP6 ADD DUP1 SLOAD DUP4 SWAP2 SWAP1 PUSH1 0x0 SWAP1 PUSH2 0x471F SWAP1 DUP5 SWAP1 PUSH2 0x52CF JUMP JUMPDEST SWAP1 SWAP2 SSTORE POP POP PUSH1 0x3 DUP6 ADD DUP1 SLOAD DUP3 SWAP2 SWAP1 PUSH1 0x0 SWAP1 PUSH2 0x473B SWAP1 DUP5 SWAP1 PUSH2 0x52CF JUMP JUMPDEST SWAP1 SWAP2 SSTORE POP PUSH2 0x474C SWAP1 POP DUP6 DUP12 DUP12 PUSH2 0x4776 JUMP JUMPDEST POP POP POP POP POP POP POP POP POP POP JUMP JUMPDEST PUSH1 0x0 PUSH1 0x1 DUP3 PUSH1 0xFF AND LT ISZERO DUP1 ISZERO PUSH2 0x1891 JUMPI POP POP PUSH1 0x8 PUSH1 0xFF SWAP1 SWAP2 AND GT ISZERO SWAP1 JUMP JUMPDEST PUSH1 0x3 DUP4 ADD SLOAD PUSH1 0x2 DUP5 ADD SLOAD PUSH1 0x1 DUP6 ADD SLOAD DUP6 SLOAD PUSH1 0x0 SWAP4 SWAP3 SWAP2 PUSH2 0x4795 SWAP2 PUSH2 0x52BC JUMP JUMPDEST PUSH2 0x479F SWAP2 SWAP1 PUSH2 0x52BC JUMP JUMPDEST PUSH2 0x47A9 SWAP2 SWAP1 PUSH2 0x52BC JUMP JUMPDEST PUSH1 0xF SWAP1 SWAP5 ADD DUP5 SWAP1 SSTORE POP PUSH1 0xFF SWAP2 DUP3 AND PUSH1 0x0 SWAP1 DUP2 MSTORE PUSH1 0xB PUSH1 0x20 SWAP1 DUP2 MSTORE PUSH1 0x40 DUP1 DUP4 KECCAK256 SWAP4 SWAP1 SWAP5 AND DUP3 MSTORE SWAP2 SWAP1 SWAP2 MSTORE KECCAK256 SSTORE JUMP JUMPDEST PUSH1 0xFF DUP1 DUP4 AND PUSH1 0x0 SWAP1 DUP2 MSTORE PUSH1 0x29 PUSH1 0x20 SWAP1 DUP2 MSTORE PUSH1 0x40 DUP1 DUP4 KECCAK256 SWAP4 DUP6 AND DUP4 MSTORE SWAP3 SWAP1 MSTORE SWAP1 DUP2 KECCAK256 PUSH1 0x7 ADD SLOAD PUSH2 0x4805 SWAP1 TIMESTAMP PUSH2 0x52CF JUMP JUMPDEST PUSH2 0x4810 SWAP1 PUSH1 0x3C PUSH2 0x533A JUMP JUMPDEST PUSH1 0xFF DUP1 DUP6 AND PUSH1 0x0 SWAP1 DUP2 MSTORE PUSH1 0x29 PUSH1 0x20 SWAP1 DUP2 MSTORE PUSH1 0x40 DUP1 DUP4 KECCAK256 SWAP4 DUP8 AND DUP4 MSTORE SWAP3 SWAP1 MSTORE KECCAK256 PUSH1 0x6 ADD SLOAD PUSH2 0x4841 SWAP2 SWAP1 PUSH2 0xFFFF AND PUSH2 0x52BC JUMP JUMPDEST SWAP1 POP PUSH2 0x258 DUP2 GT PUSH2 0x4852 JUMPI DUP1 PUSH2 0x4856 JUMP JUMPDEST PUSH2 0x258 JUMPDEST PUSH1 0xFF SWAP4 DUP5 AND PUSH1 0x0 SWAP1 DUP2 MSTORE PUSH1 0x29 PUSH1 0x20 SWAP1 DUP2 MSTORE PUSH1 0x40 DUP1 DUP4 KECCAK256 SWAP6 SWAP1 SWAP7 AND DUP3 MSTORE SWAP4 SWAP1 SWAP4 MSTORE SWAP3 SWAP1 SWAP2 KECCAK256 PUSH1 0x6 ADD DUP1 SLOAD PUSH2 0xFFFF NOT AND PUSH2 0xFFFF SWAP1 SWAP4 AND SWAP3 SWAP1 SWAP3 OR SWAP1 SWAP2 SSTORE POP JUMP JUMPDEST PUSH1 0x2 SLOAD PUSH1 0x40 MLOAD PUSH32 0x4A9FEFC700000000000000000000000000000000000000000000000000000000 DUP2 MSTORE PUSH1 0x1 PUSH1 0x1 PUSH1 0xA0 SHL SUB DUP4 DUP2 AND PUSH1 0x4 DUP4 ADD MSTORE PUSH1 0x0 SWAP3 AND SWAP1 PUSH4 0x4A9FEFC7 SWAP1 PUSH1 0x24 ADD PUSH1 0x20 PUSH1 0x40 MLOAD DUP1 DUP4 SUB DUP2 DUP7 GAS STATICCALL ISZERO DUP1 ISZERO PUSH2 0x48F8 JUMPI RETURNDATASIZE PUSH1 0x0 DUP1 RETURNDATACOPY RETURNDATASIZE PUSH1 0x0 REVERT JUMPDEST POP POP POP POP PUSH1 0x40 MLOAD RETURNDATASIZE PUSH1 0x1F NOT PUSH1 0x1F DUP3 ADD AND DUP3 ADD DUP1 PUSH1 0x40 MSTORE POP DUP2 ADD SWAP1 PUSH2 0x491C SWAP2 SWAP1 PUSH2 0x5270 JUMP JUMPDEST SWAP1 POP PUSH2 0x4926 PUSH2 0x4E1A JUMP JUMPDEST PUSH1 0x0 DUP1 DUP1 PUSH1 0x0 PUSH2 0x4934 PUSH2 0x4C03 JUMP JUMPDEST SWAP3 POP SWAP3 POP SWAP3 POP DUP3 DUP6 DUP6 DUP1 PUSH2 0x4947 SWAP1 PUSH2 0x544F JUMP JUMPDEST SWAP7 POP PUSH1 0x5 DUP2 LT PUSH2 0x4959 JUMPI PUSH2 0x4959 PUSH2 0x53B5 JUMP JUMPDEST PUSH1 0x1 PUSH1 0x1 PUSH1 0xA0 SHL SUB SWAP1 SWAP3 AND PUSH1 0x20 SWAP3 SWAP1 SWAP3 MUL ADD MSTORE DUP2 DUP6 DUP6 PUSH2 0x4978 DUP2 PUSH2 0x544F JUMP JUMPDEST SWAP7 POP PUSH1 0x5 DUP2 LT PUSH2 0x498A JUMPI PUSH2 0x498A PUSH2 0x53B5 JUMP JUMPDEST PUSH1 0x1 PUSH1 0x1 PUSH1 0xA0 SHL SUB SWAP1 SWAP3 AND PUSH1 0x20 SWAP3 SWAP1 SWAP3 MUL ADD MSTORE DUP1 DUP6 DUP6 PUSH2 0x49A9 DUP2 PUSH2 0x544F JUMP JUMPDEST SWAP7 POP PUSH1 0x5 DUP2 LT PUSH2 0x49BB JUMPI PUSH2 0x49BB PUSH2 0x53B5 JUMP JUMPDEST PUSH1 0x1 PUSH1 0x1 PUSH1 0xA0 SHL SUB SWAP3 DUP4 AND PUSH1 0x20 SWAP2 SWAP1 SWAP2 MUL SWAP2 SWAP1 SWAP2 ADD MSTORE PUSH1 0xF SLOAD AND DUP6 DUP6 PUSH2 0x49E0 DUP2 PUSH2 0x544F JUMP JUMPDEST SWAP7 POP PUSH1 0x5 DUP2 LT PUSH2 0x49F2 JUMPI PUSH2 0x49F2 PUSH2 0x53B5 JUMP JUMPDEST PUSH1 0x1 PUSH1 0x1 PUSH1 0xA0 SHL SUB SWAP1 SWAP3 AND PUSH1 0x20 SWAP3 SWAP1 SWAP3 MUL ADD MSTORE DUP6 DUP6 DUP6 PUSH2 0x4A11 DUP2 PUSH2 0x544F JUMP JUMPDEST SWAP7 POP PUSH1 0x5 DUP2 LT PUSH2 0x4A23 JUMPI PUSH2 0x4A23 PUSH2 0x53B5 JUMP JUMPDEST PUSH1 0x1 PUSH1 0x1 PUSH1 0xA0 SHL SUB SWAP1 SWAP3 AND PUSH1 0x20 SWAP3 SWAP1 SWAP3 MUL ADD MSTORE PUSH1 0x0 PUSH2 0x4A42 DUP6 DUP11 PUSH2 0x5380 JUMP JUMPDEST SWAP1 POP PUSH1 0x0 DUP1 JUMPDEST DUP7 DUP2 LT ISZERO PUSH2 0x4AE2 JUMPI PUSH1 0x0 DUP9 DUP3 PUSH1 0x5 DUP2 LT PUSH2 0x4A64 JUMPI PUSH2 0x4A64 PUSH2 0x53B5 JUMP JUMPDEST PUSH1 0x20 MUL ADD MLOAD PUSH1 0x1 PUSH1 0x1 PUSH1 0xA0 SHL SUB AND DUP5 PUSH1 0x40 MLOAD PUSH1 0x0 PUSH1 0x40 MLOAD DUP1 DUP4 SUB DUP2 DUP6 DUP8 GAS CALL SWAP3 POP POP POP RETURNDATASIZE DUP1 PUSH1 0x0 DUP2 EQ PUSH2 0x4AB3 JUMPI PUSH1 0x40 MLOAD SWAP2 POP PUSH1 0x1F NOT PUSH1 0x3F RETURNDATASIZE ADD AND DUP3 ADD PUSH1 0x40 MSTORE RETURNDATASIZE DUP3 MSTORE RETURNDATASIZE PUSH1 0x0 PUSH1 0x20 DUP5 ADD RETURNDATACOPY PUSH2 0x4AB8 JUMP JUMPDEST PUSH1 0x60 SWAP2 POP JUMPDEST POP POP SWAP1 POP DUP1 ISZERO PUSH2 0x4ACF JUMPI PUSH2 0x4ACC DUP5 DUP5 PUSH2 0x52BC JUMP JUMPDEST SWAP3 POP JUMPDEST POP DUP1 PUSH2 0x4ADA DUP2 PUSH2 0x544F JUMP JUMPDEST SWAP2 POP POP PUSH2 0x4A48 JUMP JUMPDEST POP PUSH1 0x0 PUSH2 0x4AEF DUP3 DUP13 PUSH2 0x52CF JUMP JUMPDEST SWAP1 POP DUP1 ISZERO PUSH2 0x4B9F JUMPI PUSH1 0xF SLOAD PUSH1 0x40 MLOAD PUSH1 0x0 SWAP2 PUSH1 0x1 PUSH1 0x1 PUSH1 0xA0 SHL SUB AND SWAP1 DUP4 SWAP1 DUP4 DUP2 DUP2 DUP2 DUP6 DUP8 GAS CALL SWAP3 POP POP POP RETURNDATASIZE DUP1 PUSH1 0x0 DUP2 EQ PUSH2 0x4B44 JUMPI PUSH1 0x40 MLOAD SWAP2 POP PUSH1 0x1F NOT PUSH1 0x3F RETURNDATASIZE ADD AND DUP3 ADD PUSH1 0x40 MSTORE RETURNDATASIZE DUP3 MSTORE RETURNDATASIZE PUSH1 0x0 PUSH1 0x20 DUP5 ADD RETURNDATACOPY PUSH2 0x4B49 JUMP JUMPDEST PUSH1 0x60 SWAP2 POP JUMPDEST POP POP PUSH1 0xF SLOAD PUSH1 0x40 DUP1 MLOAD PUSH1 0x1 PUSH1 0x1 PUSH1 0xA0 SHL SUB SWAP1 SWAP3 AND DUP3 MSTORE PUSH1 0x20 DUP3 ADD DUP6 SWAP1 MSTORE DUP3 ISZERO ISZERO SWAP1 DUP3 ADD MSTORE SWAP1 SWAP2 POP PUSH32 0xEE95DAC99B5D637DF9DBE3765B5D106AF913BB16C5A277C1F75573525839B2EE SWAP1 PUSH1 0x60 ADD PUSH1 0x40 MLOAD DUP1 SWAP2 SUB SWAP1 LOG1 POP JUMPDEST POP POP POP POP POP POP POP POP POP POP POP JUMP JUMPDEST PUSH1 0x0 DUP1 PUSH1 0x0 PUSH2 0x4BB9 PUSH2 0x4DAF JUMP JUMPDEST SWAP1 POP PUSH1 0x5 DUP2 LT PUSH2 0x4BCF JUMPI POP PUSH1 0x0 SWAP3 PUSH1 0x1 SWAP3 POP SWAP1 POP JUMP JUMPDEST DUP1 PUSH1 0x0 SUB PUSH2 0x4BE3 JUMPI POP PUSH1 0x2 SWAP3 PUSH1 0x1 SWAP3 POP SWAP1 POP JUMP JUMPDEST PUSH1 0x1 PUSH2 0x4BEF DUP2 DUP4 PUSH2 0x52CF JUMP JUMPDEST PUSH2 0x4BFA SWAP1 PUSH1 0x2 PUSH2 0x554D JUMP JUMPDEST SWAP3 POP SWAP3 POP POP SWAP1 SWAP2 JUMP JUMPDEST PUSH1 0x0 DUP1 PUSH1 0x0 DUP1 PUSH1 0x0 DUP1 PUSH1 0x0 JUMPDEST PUSH1 0x14 DUP2 PUSH1 0xFF AND LT ISZERO PUSH2 0x4DA6 JUMPI PUSH1 0x0 JUMPDEST PUSH1 0x14 DUP2 PUSH1 0xFF AND LT ISZERO PUSH2 0x4D93 JUMPI PUSH1 0xFF DUP1 DUP4 AND PUSH1 0x0 SWAP1 DUP2 MSTORE PUSH1 0xB PUSH1 0x20 SWAP1 DUP2 MSTORE PUSH1 0x40 DUP1 DUP4 KECCAK256 SWAP4 DUP6 AND DUP4 MSTORE SWAP3 SWAP1 MSTORE SWAP1 DUP2 KECCAK256 SLOAD SWAP1 DUP2 SWAP1 SUB PUSH2 0x4C5A JUMPI POP PUSH2 0x4D81 JUMP JUMPDEST PUSH1 0x2 SLOAD PUSH1 0x40 MLOAD PUSH4 0x8A888953 PUSH1 0xE0 SHL DUP2 MSTORE PUSH1 0xFF DUP1 DUP7 AND PUSH1 0x4 DUP4 ADD MSTORE DUP5 AND PUSH1 0x24 DUP3 ADD MSTORE PUSH1 0x0 SWAP2 PUSH1 0x1 PUSH1 0x1 PUSH1 0xA0 SHL SUB AND SWAP1 PUSH4 0x8A888953 SWAP1 PUSH1 0x44 ADD PUSH1 0x20 PUSH1 0x40 MLOAD DUP1 DUP4 SUB DUP2 DUP7 GAS STATICCALL ISZERO DUP1 ISZERO PUSH2 0x4CAE JUMPI RETURNDATASIZE PUSH1 0x0 DUP1 RETURNDATACOPY RETURNDATASIZE PUSH1 0x0 REVERT JUMPDEST POP POP POP POP PUSH1 0x40 MLOAD RETURNDATASIZE PUSH1 0x1F NOT PUSH1 0x1F DUP3 ADD AND DUP3 ADD DUP1 PUSH1 0x40 MSTORE POP DUP2 ADD SWAP1 PUSH2 0x4CD2 SWAP2 SWAP1 PUSH2 0x5270 JUMP JUMPDEST SWAP1 POP PUSH1 0x1 PUSH1 0x1 PUSH1 0xA0 SHL SUB DUP2 AND PUSH2 0x4CE9 JUMPI POP POP PUSH2 0x4D81 JUMP JUMPDEST DUP7 DUP3 GT ISZERO PUSH2 0x4D00 JUMPI SWAP9 SWAP8 SWAP7 POP SWAP5 SWAP4 SWAP3 POP DUP5 DUP9 PUSH2 0x4D7E JUMP JUMPDEST DUP6 DUP3 GT DUP1 ISZERO PUSH2 0x4D21 JUMPI POP DUP10 PUSH1 0x1 PUSH1 0x1 PUSH1 0xA0 SHL SUB AND DUP2 PUSH1 0x1 PUSH1 0x1 PUSH1 0xA0 SHL SUB AND EQ ISZERO JUMPDEST ISZERO PUSH2 0x4D33 JUMPI SWAP8 SWAP7 POP SWAP4 SWAP3 POP DUP4 DUP8 PUSH2 0x4D7E JUMP JUMPDEST DUP5 DUP3 GT DUP1 ISZERO PUSH2 0x4D54 JUMPI POP DUP10 PUSH1 0x1 PUSH1 0x1 PUSH1 0xA0 SHL SUB AND DUP2 PUSH1 0x1 PUSH1 0x1 PUSH1 0xA0 SHL SUB AND EQ ISZERO JUMPDEST DUP1 ISZERO PUSH2 0x4D72 JUMPI POP DUP9 PUSH1 0x1 PUSH1 0x1 PUSH1 0xA0 SHL SUB AND DUP2 PUSH1 0x1 PUSH1 0x1 PUSH1 0xA0 SHL SUB AND EQ ISZERO JUMPDEST ISZERO PUSH2 0x4D7E JUMPI DUP2 SWAP5 POP DUP1 SWAP8 POP JUMPDEST POP POP JUMPDEST DUP1 PUSH2 0x4D8B DUP2 PUSH2 0x53E4 JUMP JUMPDEST SWAP2 POP POP PUSH2 0x4C1E JUMP JUMPDEST POP DUP1 PUSH2 0x4D9E DUP2 PUSH2 0x53E4 JUMP JUMPDEST SWAP2 POP POP PUSH2 0x4C0F JUMP JUMPDEST POP POP POP POP SWAP1 SWAP2 SWAP3 JUMP JUMPDEST PUSH1 0x0 PUSH1 0x6 SLOAD PUSH1 0x0 EQ DUP1 PUSH2 0x4DC3 JUMPI POP PUSH1 0x6 SLOAD TIMESTAMP LT JUMPDEST ISZERO PUSH2 0x4DCF JUMPI POP PUSH1 0x0 NOT SWAP1 JUMP JUMPDEST PUSH4 0x1E13380 PUSH1 0x6 SLOAD TIMESTAMP PUSH2 0x4DE2 SWAP2 SWAP1 PUSH2 0x52CF JUMP JUMPDEST PUSH2 0x289C SWAP2 SWAP1 PUSH2 0x5380 JUMP JUMPDEST PUSH1 0x40 MLOAD DUP1 PUSH2 0x120 ADD PUSH1 0x40 MSTORE DUP1 PUSH1 0x9 SWAP1 JUMPDEST PUSH2 0x4E04 PUSH2 0x4E38 JUMP JUMPDEST DUP2 MSTORE PUSH1 0x20 ADD SWAP1 PUSH1 0x1 SWAP1 SUB SWAP1 DUP2 PUSH2 0x4DFC JUMPI SWAP1 POP POP SWAP1 JUMP JUMPDEST PUSH1 0x40 MLOAD DUP1 PUSH1 0xA0 ADD PUSH1 0x40 MSTORE DUP1 PUSH1 0x5 SWAP1 PUSH1 0x20 DUP3 MUL DUP1 CALLDATASIZE DUP4 CALLDATACOPY POP SWAP2 SWAP3 SWAP2 POP POP JUMP JUMPDEST PUSH1 0x40 MLOAD DUP1 PUSH2 0x120 ADD PUSH1 0x40 MSTORE DUP1 PUSH1 0x9 SWAP1 PUSH1 0x20 DUP3 MUL DUP1 CALLDATASIZE DUP4 CALLDATACOPY POP SWAP2 SWAP3 SWAP2 POP POP JUMP JUMPDEST PUSH1 0xFF DUP2 AND DUP2 EQ PUSH2 0x4E66 JUMPI PUSH1 0x0 DUP1 REVERT JUMPDEST POP JUMP JUMPDEST PUSH1 0x0 DUP1 PUSH1 0x40 DUP4 DUP6 SUB SLT ISZERO PUSH2 0x4E7C JUMPI PUSH1 0x0 DUP1 REVERT JUMPDEST DUP3 CALLDATALOAD PUSH2 0x4E87 DUP2 PUSH2 0x4E57 JUMP JUMPDEST SWAP2 POP PUSH1 0x20 DUP4 ADD CALLDATALOAD PUSH2 0x4E97 DUP2 PUSH2 0x4E57 JUMP JUMPDEST DUP1 SWAP2 POP POP SWAP3 POP SWAP3 SWAP1 POP JUMP JUMPDEST PUSH1 0x0 DUP1 PUSH1 0x0 DUP1 PUSH1 0x80 DUP6 DUP8 SUB SLT ISZERO PUSH2 0x4EB8 JUMPI PUSH1 0x0 DUP1 REVERT JUMPDEST DUP5 CALLDATALOAD PUSH2 0x4EC3 DUP2 PUSH2 0x4E57 JUMP JUMPDEST SWAP4 POP PUSH1 0x20 DUP6 ADD CALLDATALOAD PUSH2 0x4ED3 DUP2 PUSH2 0x4E57 JUMP JUMPDEST SWAP3 POP PUSH1 0x40 DUP6 ADD CALLDATALOAD PUSH2 0x4EE3 DUP2 PUSH2 0x4E57 JUMP JUMPDEST SWAP4 SWAP7 SWAP3 SWAP6 POP SWAP3 SWAP4 PUSH1 0x60 ADD CALLDATALOAD SWAP3 POP POP JUMP JUMPDEST PUSH1 0x1 PUSH1 0x1 PUSH1 0xA0 SHL SUB DUP2 AND DUP2 EQ PUSH2 0x4E66 JUMPI PUSH1 0x0 DUP1 REVERT JUMPDEST PUSH1 0x0 PUSH1 0x20 DUP3 DUP5 SUB SLT ISZERO PUSH2 0x4F1A JUMPI PUSH1 0x0 DUP1 REVERT JUMPDEST DUP2 CALLDATALOAD PUSH2 0x4F25 DUP2 PUSH2 0x4EF3 JUMP JUMPDEST SWAP4 SWAP3 POP POP POP JUMP JUMPDEST PUSH1 0x0 DUP1 PUSH1 0x0 DUP1 PUSH1 0x0 PUSH1 0xA0 DUP7 DUP9 SUB SLT ISZERO PUSH2 0x4F44 JUMPI PUSH1 0x0 DUP1 REVERT JUMPDEST DUP6 CALLDATALOAD PUSH2 0x4F4F DUP2 PUSH2 0x4E57 JUMP JUMPDEST SWAP5 POP PUSH1 0x20 DUP7 ADD CALLDATALOAD PUSH2 0x4F5F DUP2 PUSH2 0x4E57 JUMP JUMPDEST SWAP4 POP PUSH1 0x40 DUP7 ADD CALLDATALOAD PUSH2 0x4F6F DUP2 PUSH2 0x4E57 JUMP JUMPDEST SWAP3 POP PUSH1 0x60 DUP7 ADD CALLDATALOAD PUSH2 0x4F7F DUP2 PUSH2 0x4E57 JUMP JUMPDEST SWAP2 POP PUSH1 0x80 DUP7 ADD CALLDATALOAD PUSH2 0x4F8F DUP2 PUSH2 0x4E57 JUMP JUMPDEST DUP1 SWAP2 POP POP SWAP3 SWAP6 POP SWAP3 SWAP6 SWAP1 SWAP4 POP JUMP JUMPDEST PUSH1 0x0 DUP1 PUSH1 0x0 PUSH1 0x60 DUP5 DUP7 SUB SLT ISZERO PUSH2 0x4FB2 JUMPI PUSH1 0x0 DUP1 REVERT JUMPDEST DUP4 CALLDATALOAD PUSH2 0x4FBD DUP2 PUSH2 0x4E57 JUMP JUMPDEST SWAP3 POP PUSH1 0x20 DUP5 ADD CALLDATALOAD PUSH2 0x4FCD DUP2 PUSH2 0x4E57 JUMP JUMPDEST SWAP2 POP PUSH1 0x40 DUP5 ADD CALLDATALOAD PUSH2 0x4FDD DUP2 PUSH2 0x4E57 JUMP JUMPDEST DUP1 SWAP2 POP POP SWAP3 POP SWAP3 POP SWAP3 JUMP JUMPDEST DUP1 ISZERO ISZERO DUP2 EQ PUSH2 0x4E66 JUMPI PUSH1 0x0 DUP1 REVERT JUMPDEST PUSH1 0x0 DUP1 PUSH1 0x0 DUP1 PUSH1 0x0 PUSH1 0xA0 DUP7 DUP9 SUB SLT ISZERO PUSH2 0x500E JUMPI PUSH1 0x0 DUP1 REVERT JUMPDEST DUP6 CALLDATALOAD PUSH2 0x5019 DUP2 PUSH2 0x4E57 JUMP JUMPDEST SWAP5 POP PUSH1 0x20 DUP7 ADD CALLDATALOAD PUSH2 0x5029 DUP2 PUSH2 0x4E57 JUMP JUMPDEST SWAP4 POP PUSH1 0x40 DUP7 ADD CALLDATALOAD PUSH2 0x5039 DUP2 PUSH2 0x4E57 JUMP JUMPDEST SWAP3 POP PUSH1 0x60 DUP7 ADD CALLDATALOAD SWAP2 POP PUSH1 0x80 DUP7 ADD CALLDATALOAD PUSH2 0x4F8F DUP2 PUSH2 0x4FE8 JUMP JUMPDEST PUSH1 0x0 DUP1 PUSH1 0x0 DUP1 PUSH1 0x80 DUP6 DUP8 SUB SLT ISZERO PUSH2 0x5066 JUMPI PUSH1 0x0 DUP1 REVERT JUMPDEST DUP5 CALLDATALOAD PUSH2 0x5071 DUP2 PUSH2 0x4E57 JUMP JUMPDEST SWAP4 POP PUSH1 0x20 DUP6 ADD CALLDATALOAD PUSH2 0x5081 DUP2 PUSH2 0x4E57 JUMP JUMPDEST SWAP3 POP PUSH1 0x40 DUP6 ADD CALLDATALOAD PUSH2 0x5091 DUP2 PUSH2 0x4E57 JUMP JUMPDEST SWAP2 POP PUSH1 0x60 DUP6 ADD CALLDATALOAD PUSH2 0x50A1 DUP2 PUSH2 0x4E57 JUMP JUMPDEST SWAP4 SWAP7 SWAP3 SWAP6 POP SWAP1 SWAP4 POP POP JUMP JUMPDEST PUSH1 0x0 PUSH1 0x20 DUP3 DUP5 SUB SLT ISZERO PUSH2 0x50BE JUMPI PUSH1 0x0 DUP1 REVERT JUMPDEST DUP2 CALLDATALOAD PUSH2 0x4F25 DUP2 PUSH2 0x4FE8 JUMP JUMPDEST PUSH1 0x0 DUP1 PUSH1 0x0 PUSH1 0x60 DUP5 DUP7 SUB SLT ISZERO PUSH2 0x50DE JUMPI PUSH1 0x0 DUP1 REVERT JUMPDEST DUP4 CALLDATALOAD PUSH2 0x50E9 DUP2 PUSH2 0x4E57 JUMP JUMPDEST SWAP3 POP PUSH1 0x20 DUP5 ADD CALLDATALOAD PUSH2 0x50F9 DUP2 PUSH2 0x4E57 JUMP JUMPDEST SWAP2 POP PUSH1 0x40 DUP5 ADD CALLDATALOAD PUSH2 0x4FDD DUP2 PUSH2 0x4FE8 JUMP JUMPDEST PUSH1 0x0 PUSH2 0x1E0 DUP3 ADD SWAP1 POP DUP3 MLOAD DUP3 MSTORE PUSH1 0x20 DUP4 ADD MLOAD PUSH1 0x20 DUP4 ADD MSTORE PUSH1 0x40 DUP4 ADD MLOAD PUSH1 0x40 DUP4 ADD MSTORE PUSH1 0x60 DUP4 ADD MLOAD PUSH1 0x60 DUP4 ADD MSTORE PUSH1 0x80 DUP4 ADD MLOAD PUSH2 0x5149 PUSH1 0x80 DUP5 ADD DUP3 PUSH2 0xFFFF AND SWAP1 MSTORE JUMP JUMPDEST POP PUSH1 0xA0 DUP4 DUP2 ADD MLOAD SWAP1 DUP4 ADD MSTORE PUSH1 0xC0 DUP1 DUP5 ADD MLOAD SWAP1 DUP4 ADD MSTORE PUSH1 0xE0 DUP1 DUP5 ADD MLOAD SWAP1 DUP4 ADD MSTORE PUSH2 0x100 DUP1 DUP5 ADD MLOAD SWAP1 DUP4 ADD MSTORE PUSH2 0x120 DUP1 DUP5 ADD MLOAD SWAP1 DUP4 ADD MSTORE PUSH2 0x140 DUP1 DUP5 ADD MLOAD SWAP1 DUP4 ADD MSTORE PUSH2 0x160 DUP1 DUP5 ADD MLOAD SWAP1 DUP4 ADD MSTORE PUSH2 0x180 DUP1 DUP5 ADD MLOAD PUSH2 0xFFFF DUP2 AND DUP3 DUP6 ADD MSTORE POP POP PUSH2 0x1A0 DUP4 DUP2 ADD MLOAD PUSH2 0xFFFF DUP2 AND DUP5 DUP4 ADD MSTORE POP POP PUSH2 0x1C0 SWAP3 DUP4 ADD MLOAD SWAP2 SWAP1 SWAP3 ADD MSTORE SWAP1 JUMP JUMPDEST PUSH2 0xA20 DUP2 ADD DUP2 DUP4 PUSH1 0x0 DUP1 JUMPDEST PUSH1 0x9 DUP1 DUP3 LT PUSH2 0x51E1 JUMPI POP PUSH2 0x5222 JUMP JUMPDEST DUP4 MLOAD DUP6 DUP5 JUMPDEST DUP4 DUP2 LT ISZERO PUSH2 0x5207 JUMPI DUP3 MLOAD PUSH1 0xFF AND DUP3 MSTORE PUSH1 0x20 SWAP3 DUP4 ADD SWAP3 SWAP1 SWAP2 ADD SWAP1 PUSH1 0x1 ADD PUSH2 0x51E6 JUMP JUMPDEST POP POP POP PUSH2 0x120 SWAP5 SWAP1 SWAP5 ADD SWAP4 POP PUSH1 0x20 SWAP3 SWAP1 SWAP3 ADD SWAP2 PUSH1 0x1 ADD PUSH2 0x51D2 JUMP JUMPDEST POP POP POP POP SWAP3 SWAP2 POP POP JUMP JUMPDEST PUSH1 0x0 PUSH1 0x20 DUP3 DUP5 SUB SLT ISZERO PUSH2 0x523E JUMPI PUSH1 0x0 DUP1 REVERT JUMPDEST DUP2 CALLDATALOAD PUSH2 0x4F25 DUP2 PUSH2 0x4E57 JUMP JUMPDEST PUSH1 0x0 DUP1 PUSH1 0x0 PUSH1 0x60 DUP5 DUP7 SUB SLT ISZERO PUSH2 0x525E JUMPI PUSH1 0x0 DUP1 REVERT JUMPDEST DUP4 CALLDATALOAD PUSH2 0xFFFF DUP2 AND DUP2 EQ PUSH2 0x4FBD JUMPI PUSH1 0x0 DUP1 REVERT JUMPDEST PUSH1 0x0 PUSH1 0x20 DUP3 DUP5 SUB SLT ISZERO PUSH2 0x5282 JUMPI PUSH1 0x0 DUP1 REVERT JUMPDEST DUP2 MLOAD PUSH2 0x4F25 DUP2 PUSH2 0x4EF3 JUMP JUMPDEST PUSH32 0x4E487B7100000000000000000000000000000000000000000000000000000000 PUSH1 0x0 MSTORE PUSH1 0x11 PUSH1 0x4 MSTORE PUSH1 0x24 PUSH1 0x0 REVERT JUMPDEST DUP1 DUP3 ADD DUP1 DUP3 GT ISZERO PUSH2 0x1891 JUMPI PUSH2 0x1891 PUSH2 0x528D JUMP JUMPDEST DUP2 DUP2 SUB DUP2 DUP2 GT ISZERO PUSH2 0x1891 JUMPI PUSH2 0x1891 PUSH2 0x528D JUMP JUMPDEST PUSH1 0x0 PUSH1 0x20 DUP3 DUP5 SUB SLT ISZERO PUSH2 0x52F4 JUMPI PUSH1 0x0 DUP1 REVERT JUMPDEST POP MLOAD SWAP2 SWAP1 POP JUMP JUMPDEST PUSH1 0x0 PUSH1 0x20 DUP3 DUP5 SUB SLT ISZERO PUSH2 0x530D JUMPI PUSH1 0x0 DUP1 REVERT JUMPDEST DUP2 MLOAD PUSH2 0x4F25 DUP2 PUSH2 0x4FE8 JUMP JUMPDEST PUSH2 0xFFFF DUP2 DUP2 AND DUP4 DUP3 AND ADD SWAP1 DUP1 DUP3 GT ISZERO PUSH2 0x5333 JUMPI PUSH2 0x5333 PUSH2 0x528D JUMP JUMPDEST POP SWAP3 SWAP2 POP POP JUMP JUMPDEST DUP1 DUP3 MUL DUP2 ISZERO DUP3 DUP3 DIV DUP5 EQ OR PUSH2 0x1891 JUMPI PUSH2 0x1891 PUSH2 0x528D JUMP JUMPDEST PUSH32 0x4E487B7100000000000000000000000000000000000000000000000000000000 PUSH1 0x0 MSTORE PUSH1 0x12 PUSH1 0x4 MSTORE PUSH1 0x24 PUSH1 0x0 REVERT JUMPDEST PUSH1 0x0 DUP3 PUSH2 0x538F JUMPI PUSH2 0x538F PUSH2 0x5351 JUMP JUMPDEST POP DIV SWAP1 JUMP JUMPDEST PUSH1 0x0 PUSH2 0xFFFF DUP1 DUP4 AND DUP2 DUP2 SUB PUSH2 0x53AB JUMPI PUSH2 0x53AB PUSH2 0x528D JUMP JUMPDEST PUSH1 0x1 ADD SWAP4 SWAP3 POP POP POP JUMP JUMPDEST PUSH32 0x4E487B7100000000000000000000000000000000000000000000000000000000 PUSH1 0x0 MSTORE PUSH1 0x32 PUSH1 0x4 MSTORE PUSH1 0x24 PUSH1 0x0 REVERT JUMPDEST PUSH1 0x0 PUSH1 0xFF DUP3 AND PUSH1 0xFF DUP2 SUB PUSH2 0x53FA JUMPI PUSH2 0x53FA PUSH2 0x528D JUMP JUMPDEST PUSH1 0x1 ADD SWAP3 SWAP2 POP POP JUMP JUMPDEST PUSH1 0x0 DUP3 PUSH2 0x5412 JUMPI PUSH2 0x5412 PUSH2 0x5351 JUMP JUMPDEST POP MOD SWAP1 JUMP JUMPDEST PUSH2 0xFFFF DUP3 DUP2 AND DUP3 DUP3 AND SUB SWAP1 DUP1 DUP3 GT ISZERO PUSH2 0x5333 JUMPI PUSH2 0x5333 PUSH2 0x528D JUMP JUMPDEST PUSH1 0x0 PUSH1 0x20 DUP3 DUP5 SUB SLT ISZERO PUSH2 0x5444 JUMPI PUSH1 0x0 DUP1 REVERT JUMPDEST DUP2 MLOAD PUSH2 0x4F25 DUP2 PUSH2 0x4E57 JUMP JUMPDEST PUSH1 0x0 PUSH1 0x0 NOT DUP3 SUB PUSH2 0x5462 JUMPI PUSH2 0x5462 PUSH2 0x528D JUMP JUMPDEST POP PUSH1 0x1 ADD SWAP1 JUMP JUMPDEST PUSH1 0x1 DUP2 DUP2 JUMPDEST DUP1 DUP6 GT ISZERO PUSH2 0x54A4 JUMPI DUP2 PUSH1 0x0 NOT DIV DUP3 GT ISZERO PUSH2 0x548A JUMPI PUSH2 0x548A PUSH2 0x528D JUMP JUMPDEST DUP1 DUP6 AND ISZERO PUSH2 0x5497 JUMPI SWAP2 DUP2 MUL SWAP2 JUMPDEST SWAP4 DUP5 SHR SWAP4 SWAP1 DUP1 MUL SWAP1 PUSH2 0x546E JUMP JUMPDEST POP SWAP3 POP SWAP3 SWAP1 POP JUMP JUMPDEST PUSH1 0x0 DUP3 PUSH2 0x54BB JUMPI POP PUSH1 0x1 PUSH2 0x1891 JUMP JUMPDEST DUP2 PUSH2 0x54C8 JUMPI POP PUSH1 0x0 PUSH2 0x1891 JUMP JUMPDEST DUP2 PUSH1 0x1 DUP2 EQ PUSH2 0x54DE JUMPI PUSH1 0x2 DUP2 EQ PUSH2 0x54E8 JUMPI PUSH2 0x5504 JUMP JUMPDEST PUSH1 0x1 SWAP2 POP POP PUSH2 0x1891 JUMP JUMPDEST PUSH1 0xFF DUP5 GT ISZERO PUSH2 0x54F9 JUMPI PUSH2 0x54F9 PUSH2 0x528D JUMP JUMPDEST POP POP PUSH1 0x1 DUP3 SHL PUSH2 0x1891 JUMP JUMPDEST POP PUSH1 0x20 DUP4 LT PUSH2 0x133 DUP4 LT AND PUSH1 0x4E DUP5 LT PUSH1 0xB DUP5 LT AND OR ISZERO PUSH2 0x5527 JUMPI POP DUP2 DUP2 EXP PUSH2 0x1891 JUMP JUMPDEST PUSH2 0x5531 DUP4 DUP4 PUSH2 0x5469 JUMP JUMPDEST DUP1 PUSH1 0x0 NOT DIV DUP3 GT ISZERO PUSH2 0x5545 JUMPI PUSH2 0x5545 PUSH2 0x528D JUMP JUMPDEST MUL SWAP4 SWAP3 POP POP POP JUMP JUMPDEST PUSH1 0x0 PUSH2 0x4F25 DUP4 DUP4 PUSH2 0x54AC JUMP INVALID LOG2 PUSH5 0x6970667358 0x22 SLT KECCAK256 0xD5 0xC2 LOG0 0x5D SHR 0xF PUSH21 0x9688A507169AB0CBBAD345FBD2C86A1B80674D5724 DIV SWAP12 0xA9 0xC9 PUSH5 0x736F6C6343 STOP ADDMOD SLT STOP CALLER "
		},
		"gasEstimates": {
			"creation": {
				"codeDepositCost": "4380600",
				"executionCost": "infinite",
				"totalCost": "infinite"
			},
			"external": {
				"TXCounter()": "2428",
				"_clan()": "2428",
				"adjustTileResources(uint8,uint8,uint8,uint256,bool)": "infinite",
				"baseDefensiveArmorCost()": "8763",
				"baseDefensiveSoldierCost()": "8783",
				"baseDefensiveWeaponCost()": "8741",
				"baseOffensiveArmorCost()": "8762",
				"baseOffensiveSoldierCost()": "8785",
				"baseOffensiveWeaponCost()": "8786",
				"buildingCosts(uint8)": "8993",
				"calcTurn(uint8,uint8)": "infinite",
				"createSoldier(uint8,uint8,uint8,uint256)": "infinite",
				"demolishBuilding(uint8,uint8,uint8,uint8)": "infinite",
				"extraFeeRecipient()": "2470",
				"getAllBuildings(uint8,uint8)": "infinite",
				"getResourceMessageFlag(uint8,uint8)": "infinite",
				"getTileData(uint8,uint8)": "infinite",
				"getTileLastActiveAt(uint8,uint8)": "infinite",
				"getTilePublic(uint8,uint8)": "infinite",
				"getTotalTurnsUsedByTile(uint8,uint8)": "infinite",
				"getTowerCount(uint8,uint8)": "infinite",
				"getTurn(uint8,uint8)": "infinite",
				"hasClanHallAt(uint8,uint8)": "infinite",
				"hasClanHallAtCoord(uint8,uint8)": "infinite",
				"hasMarketAt(uint8,uint8)": "infinite",
				"hasMarketAtCoord(uint8,uint8)": "infinite",
				"interiorMapSize()": "271",
				"isUseTurnsPaused()": "2393",
				"lopBalance()": "infinite",
				"lopToken()": "2451",
				"marketplaceAddress()": "2426",
				"owner()": "2449",
				"pauseUseTurns()": "28732",
				"placeBuilding(uint8,uint8,uint8,uint8,uint8)": "infinite",
				"pointsByCoords(uint8,uint8)": "infinite",
				"produceArmor(uint8,uint8,uint8,uint256)": "infinite",
				"produceWeapon(uint8,uint8,uint8,uint256)": "infinite",
				"recalculatePointsAfterAttack(uint8,uint8)": "infinite",
				"resourceMessage(uint8,uint8)": "infinite",
				"rewardUnit()": "2363",
				"rewardsStart()": "2406",
				"setClanAddress(address)": "28939",
				"setExtraFeeReceiver(address)": "28896",
				"setMarketAddress(address)": "28959",
				"setResourceMessageFlag(uint8,uint8,bool)": "infinite",
				"setSwitch(bool)": "26808",
				"switcher()": "2404",
				"tileMapPhaser()": "2471",
				"totalTurnsUsedByTile(uint8,uint8)": "infinite",
				"turnFeeWei()": "2386",
				"turnsPerLevel()": "306",
				"unpauseUseTurns()": "28704",
				"upgradeTech(uint8,uint8,uint8)": "infinite",
				"useTurns(uint16,uint8,uint8)": "infinite",
				"withdrawAllLop()": "infinite"
			},
			"internal": {
				"_calcTurn(uint8,uint8)": "infinite",
				"_currentYearIndex()": "6516",
				"_distributeNativeFee(uint256,address)": "infinite",
				"_initializeBuildingCosts()": "infinite",
				"_isValidBuilding(uint8)": "77",
				"_recalculatePoints(struct TheLand.TileData storage pointer,uint8,uint8)": "infinite",
				"_rewardMultiplier()": "infinite",
				"_setResourceMessageFlag(uint8,uint8,bool)": "infinite",
				"_top3Owners()": "infinite",
				"applyProductionCost(uint8,uint8,struct TheLand.Resources memory,uint256,uint256)": "infinite",
				"countBuildings(uint8,uint8,uint8)": "infinite"
			}
		},
		"methodIdentifiers": {
			"TXCounter()": "de8ca33a",
			"_clan()": "7cca26d9",
			"adjustTileResources(uint8,uint8,uint8,uint256,bool)": "3e5f2857",
			"baseDefensiveArmorCost()": "8c87fa4f",
			"baseDefensiveSoldierCost()": "f9c64454",
			"baseDefensiveWeaponCost()": "537e8f49",
			"baseOffensiveArmorCost()": "620a9a99",
			"baseOffensiveSoldierCost()": "a596b645",
			"baseOffensiveWeaponCost()": "800bfa27",
			"buildingCosts(uint8)": "c1712d57",
			"calcTurn(uint8,uint8)": "dd4b466b",
			"createSoldier(uint8,uint8,uint8,uint256)": "f89d7571",
			"demolishBuilding(uint8,uint8,uint8,uint8)": "60b76b52",
			"extraFeeRecipient()": "7502bad4",
			"getAllBuildings(uint8,uint8)": "be9a263c",
			"getResourceMessageFlag(uint8,uint8)": "9c54e471",
			"getTileData(uint8,uint8)": "bd638378",
			"getTileLastActiveAt(uint8,uint8)": "4173f9e9",
			"getTilePublic(uint8,uint8)": "d836d447",
			"getTotalTurnsUsedByTile(uint8,uint8)": "41ede44f",
			"getTowerCount(uint8,uint8)": "2a490ae8",
			"getTurn(uint8,uint8)": "f3245254",
			"hasClanHallAt(uint8,uint8)": "33b95ee0",
			"hasClanHallAtCoord(uint8,uint8)": "1acc55ea",
			"hasMarketAt(uint8,uint8)": "02cd77e6",
			"hasMarketAtCoord(uint8,uint8)": "4855735c",
			"interiorMapSize()": "decc1bbf",
			"isUseTurnsPaused()": "e9d60a10",
			"lopBalance()": "42eaa7c8",
			"lopToken()": "0d67f59e",
			"marketplaceAddress()": "daa17f49",
			"owner()": "8da5cb5b",
			"pauseUseTurns()": "562aafb6",
			"placeBuilding(uint8,uint8,uint8,uint8,uint8)": "0ee22f31",
			"pointsByCoords(uint8,uint8)": "2ef78865",
			"produceArmor(uint8,uint8,uint8,uint256)": "07722bc2",
			"produceWeapon(uint8,uint8,uint8,uint256)": "4274b164",
			"recalculatePointsAfterAttack(uint8,uint8)": "7659bc60",
			"resourceMessage(uint8,uint8)": "ccd5e491",
			"rewardUnit()": "428967da",
			"rewardsStart()": "65af3a2f",
			"setClanAddress(address)": "5d219d5f",
			"setExtraFeeReceiver(address)": "0df7b41a",
			"setMarketAddress(address)": "fae92612",
			"setResourceMessageFlag(uint8,uint8,bool)": "9a4a2084",
			"setSwitch(bool)": "97cefc4c",
			"switcher()": "bc4462de",
			"tileMapPhaser()": "4f264b03",
			"totalTurnsUsedByTile(uint8,uint8)": "887aca72",
			"turnFeeWei()": "21b74ea7",
			"turnsPerLevel()": "bdc7da8e",
			"unpauseUseTurns()": "c14448cd",
			"upgradeTech(uint8,uint8,uint8)": "351662e4",
			"useTurns(uint16,uint8,uint8)": "e9dd6583",
			"withdrawAllLop()": "15e91b48"
		}
	},
	"abi": [
		{
			"inputs": [
				{
					"internalType": "address",
					"name": "_tileMapPhaser",
					"type": "address"
				},
				{
					"internalType": "address",
					"name": "_lopToken",
					"type": "address"
				},
				{
					"internalType": "address",
					"name": "_switcher",
					"type": "address"
				}
			],
			"stateMutability": "nonpayable",
			"type": "constructor"
		},
		{
			"inputs": [],
			"name": "BadFee",
			"type": "error"
		},
		{
			"inputs": [],
			"name": "InvalidBuildingType",
			"type": "error"
		},
		{
			"inputs": [],
			"name": "InvalidCoord",
			"type": "error"
		},
		{
			"inputs": [],
			"name": "NotMarketplace",
			"type": "error"
		},
		{
			"inputs": [],
			"name": "NotOwner",
			"type": "error"
		},
		{
			"inputs": [],
			"name": "NotOwnerOrMarketplace",
			"type": "error"
		},
		{
			"inputs": [],
			"name": "NotSwitcher",
			"type": "error"
		},
		{
			"inputs": [],
			"name": "ZeroAddress",
			"type": "error"
		},
		{
			"inputs": [],
			"name": "ZeroAmount",
			"type": "error"
		},
		{
			"anonymous": false,
			"inputs": [
				{
					"indexed": false,
					"internalType": "address",
					"name": "recipient",
					"type": "address"
				},
				{
					"indexed": false,
					"internalType": "uint256",
					"name": "amount",
					"type": "uint256"
				},
				{
					"indexed": false,
					"internalType": "bool",
					"name": "success",
					"type": "bool"
				}
			],
			"name": "RemainderSent",
			"type": "event"
		},
		{
			"anonymous": false,
			"inputs": [
				{
					"indexed": true,
					"internalType": "address",
					"name": "user",
					"type": "address"
				},
				{
					"indexed": false,
					"internalType": "uint256",
					"name": "turnsUsed",
					"type": "uint256"
				},
				{
					"indexed": false,
					"internalType": "uint8",
					"name": "x",
					"type": "uint8"
				},
				{
					"indexed": false,
					"internalType": "uint8",
					"name": "y",
					"type": "uint8"
				}
			],
			"name": "TurnsUsed",
			"type": "event"
		},
		{
			"inputs": [],
			"name": "TXCounter",
			"outputs": [
				{
					"internalType": "uint256",
					"name": "",
					"type": "uint256"
				}
			],
			"stateMutability": "view",
			"type": "function"
		},
		{
			"inputs": [],
			"name": "_clan",
			"outputs": [
				{
					"internalType": "contract IClan",
					"name": "",
					"type": "address"
				}
			],
			"stateMutability": "view",
			"type": "function"
		},
		{
			"inputs": [
				{
					"internalType": "uint8",
					"name": "x",
					"type": "uint8"
				},
				{
					"internalType": "uint8",
					"name": "y",
					"type": "uint8"
				},
				{
					"internalType": "uint8",
					"name": "resourceType",
					"type": "uint8"
				},
				{
					"internalType": "uint256",
					"name": "amount",
					"type": "uint256"
				},
				{
					"internalType": "bool",
					"name": "isAdding",
					"type": "bool"
				}
			],
			"name": "adjustTileResources",
			"outputs": [],
			"stateMutability": "nonpayable",
			"type": "function"
		},
		{
			"inputs": [],
			"name": "baseDefensiveArmorCost",
			"outputs": [
				{
					"internalType": "uint256",
					"name": "food",
					"type": "uint256"
				},
				{
					"internalType": "uint256",
					"name": "wood",
					"type": "uint256"
				},
				{
					"internalType": "uint256",
					"name": "stone",
					"type": "uint256"
				},
				{
					"internalType": "uint256",
					"name": "iron",
					"type": "uint256"
				}
			],
			"stateMutability": "view",
			"type": "function"
		},
		{
			"inputs": [],
			"name": "baseDefensiveSoldierCost",
			"outputs": [
				{
					"internalType": "uint256",
					"name": "food",
					"type": "uint256"
				},
				{
					"internalType": "uint256",
					"name": "wood",
					"type": "uint256"
				},
				{
					"internalType": "uint256",
					"name": "stone",
					"type": "uint256"
				},
				{
					"internalType": "uint256",
					"name": "iron",
					"type": "uint256"
				}
			],
			"stateMutability": "view",
			"type": "function"
		},
		{
			"inputs": [],
			"name": "baseDefensiveWeaponCost",
			"outputs": [
				{
					"internalType": "uint256",
					"name": "food",
					"type": "uint256"
				},
				{
					"internalType": "uint256",
					"name": "wood",
					"type": "uint256"
				},
				{
					"internalType": "uint256",
					"name": "stone",
					"type": "uint256"
				},
				{
					"internalType": "uint256",
					"name": "iron",
					"type": "uint256"
				}
			],
			"stateMutability": "view",
			"type": "function"
		},
		{
			"inputs": [],
			"name": "baseOffensiveArmorCost",
			"outputs": [
				{
					"internalType": "uint256",
					"name": "food",
					"type": "uint256"
				},
				{
					"internalType": "uint256",
					"name": "wood",
					"type": "uint256"
				},
				{
					"internalType": "uint256",
					"name": "stone",
					"type": "uint256"
				},
				{
					"internalType": "uint256",
					"name": "iron",
					"type": "uint256"
				}
			],
			"stateMutability": "view",
			"type": "function"
		},
		{
			"inputs": [],
			"name": "baseOffensiveSoldierCost",
			"outputs": [
				{
					"internalType": "uint256",
					"name": "food",
					"type": "uint256"
				},
				{
					"internalType": "uint256",
					"name": "wood",
					"type": "uint256"
				},
				{
					"internalType": "uint256",
					"name": "stone",
					"type": "uint256"
				},
				{
					"internalType": "uint256",
					"name": "iron",
					"type": "uint256"
				}
			],
			"stateMutability": "view",
			"type": "function"
		},
		{
			"inputs": [],
			"name": "baseOffensiveWeaponCost",
			"outputs": [
				{
					"internalType": "uint256",
					"name": "food",
					"type": "uint256"
				},
				{
					"internalType": "uint256",
					"name": "wood",
					"type": "uint256"
				},
				{
					"internalType": "uint256",
					"name": "stone",
					"type": "uint256"
				},
				{
					"internalType": "uint256",
					"name": "iron",
					"type": "uint256"
				}
			],
			"stateMutability": "view",
			"type": "function"
		},
		{
			"inputs": [
				{
					"internalType": "uint8",
					"name": "",
					"type": "uint8"
				}
			],
			"name": "buildingCosts",
			"outputs": [
				{
					"internalType": "uint256",
					"name": "food",
					"type": "uint256"
				},
				{
					"internalType": "uint256",
					"name": "wood",
					"type": "uint256"
				},
				{
					"internalType": "uint256",
					"name": "stone",
					"type": "uint256"
				},
				{
					"internalType": "uint256",
					"name": "iron",
					"type": "uint256"
				}
			],
			"stateMutability": "view",
			"type": "function"
		},
		{
			"inputs": [
				{
					"internalType": "uint8",
					"name": "mainX",
					"type": "uint8"
				},
				{
					"internalType": "uint8",
					"name": "mainY",
					"type": "uint8"
				}
			],
			"name": "calcTurn",
			"outputs": [],
			"stateMutability": "nonpayable",
			"type": "function"
		},
		{
			"inputs": [
				{
					"internalType": "uint8",
					"name": "mainX",
					"type": "uint8"
				},
				{
					"internalType": "uint8",
					"name": "mainY",
					"type": "uint8"
				},
				{
					"internalType": "uint8",
					"name": "soldierType",
					"type": "uint8"
				},
				{
					"internalType": "uint256",
					"name": "quantity",
					"type": "uint256"
				}
			],
			"name": "createSoldier",
			"outputs": [],
			"stateMutability": "nonpayable",
			"type": "function"
		},
		{
			"inputs": [
				{
					"internalType": "uint8",
					"name": "mainX",
					"type": "uint8"
				},
				{
					"internalType": "uint8",
					"name": "mainY",
					"type": "uint8"
				},
				{
					"internalType": "uint8",
					"name": "interiorX",
					"type": "uint8"
				},
				{
					"internalType": "uint8",
					"name": "interiorY",
					"type": "uint8"
				}
			],
			"name": "demolishBuilding",
			"outputs": [],
			"stateMutability": "nonpayable",
			"type": "function"
		},
		{
			"inputs": [],
			"name": "extraFeeRecipient",
			"outputs": [
				{
					"internalType": "address",
					"name": "",
					"type": "address"
				}
			],
			"stateMutability": "view",
			"type": "function"
		},
		{
			"inputs": [
				{
					"internalType": "uint8",
					"name": "mainX",
					"type": "uint8"
				},
				{
					"internalType": "uint8",
					"name": "mainY",
					"type": "uint8"
				}
			],
			"name": "getAllBuildings",
			"outputs": [
				{
					"internalType": "uint8[9][9]",
					"name": "",
					"type": "uint8[9][9]"
				}
			],
			"stateMutability": "view",
			"type": "function"
		},
		{
			"inputs": [
				{
					"internalType": "uint8",
					"name": "x",
					"type": "uint8"
				},
				{
					"internalType": "uint8",
					"name": "y",
					"type": "uint8"
				}
			],
			"name": "getResourceMessageFlag",
			"outputs": [
				{
					"internalType": "bool",
					"name": "",
					"type": "bool"
				}
			],
			"stateMutability": "view",
			"type": "function"
		},
		{
			"inputs": [
				{
					"internalType": "uint8",
					"name": "x",
					"type": "uint8"
				},
				{
					"internalType": "uint8",
					"name": "y",
					"type": "uint8"
				}
			],
			"name": "getTileData",
			"outputs": [
				{
					"components": [
						{
							"internalType": "uint256",
							"name": "food",
							"type": "uint256"
						},
						{
							"internalType": "uint256",
							"name": "wood",
							"type": "uint256"
						},
						{
							"internalType": "uint256",
							"name": "stone",
							"type": "uint256"
						},
						{
							"internalType": "uint256",
							"name": "iron",
							"type": "uint256"
						},
						{
							"internalType": "uint16",
							"name": "level",
							"type": "uint16"
						},
						{
							"internalType": "uint256",
							"name": "accumulatedTurns",
							"type": "uint256"
						},
						{
							"internalType": "uint256",
							"name": "offensiveArmor",
							"type": "uint256"
						},
						{
							"internalType": "uint256",
							"name": "defensiveArmor",
							"type": "uint256"
						},
						{
							"internalType": "uint256",
							"name": "offensiveWeapon",
							"type": "uint256"
						},
						{
							"internalType": "uint256",
							"name": "defensiveWeapon",
							"type": "uint256"
						},
						{
							"internalType": "uint256",
							"name": "offensiveSoldier",
							"type": "uint256"
						},
						{
							"internalType": "uint256",
							"name": "defensiveSoldier",
							"type": "uint256"
						},
						{
							"internalType": "uint16",
							"name": "offensiveTech",
							"type": "uint16"
						},
						{
							"internalType": "uint16",
							"name": "defensiveTech",
							"type": "uint16"
						},
						{
							"internalType": "uint256",
							"name": "points",
							"type": "uint256"
						}
					],
					"internalType": "struct TheLand.TileDataResponse",
					"name": "",
					"type": "tuple"
				}
			],
			"stateMutability": "view",
			"type": "function"
		},
		{
			"inputs": [
				{
					"internalType": "uint8",
					"name": "x",
					"type": "uint8"
				},
				{
					"internalType": "uint8",
					"name": "y",
					"type": "uint8"
				}
			],
			"name": "getTileLastActiveAt",
			"outputs": [
				{
					"internalType": "uint256",
					"name": "",
					"type": "uint256"
				}
			],
			"stateMutability": "view",
			"type": "function"
		},
		{
			"inputs": [
				{
					"internalType": "uint8",
					"name": "x",
					"type": "uint8"
				},
				{
					"internalType": "uint8",
					"name": "y",
					"type": "uint8"
				}
			],
			"name": "getTilePublic",
			"outputs": [
				{
					"components": [
						{
							"internalType": "uint16",
							"name": "level",
							"type": "uint16"
						},
						{
							"internalType": "uint256",
							"name": "points",
							"type": "uint256"
						}
					],
					"internalType": "struct TheLand.TilePublicResponse",
					"name": "",
					"type": "tuple"
				}
			],
			"stateMutability": "view",
			"type": "function"
		},
		{
			"inputs": [
				{
					"internalType": "uint8",
					"name": "x",
					"type": "uint8"
				},
				{
					"internalType": "uint8",
					"name": "y",
					"type": "uint8"
				}
			],
			"name": "getTotalTurnsUsedByTile",
			"outputs": [
				{
					"internalType": "uint256",
					"name": "",
					"type": "uint256"
				}
			],
			"stateMutability": "view",
			"type": "function"
		},
		{
			"inputs": [
				{
					"internalType": "uint8",
					"name": "mainX",
					"type": "uint8"
				},
				{
					"internalType": "uint8",
					"name": "mainY",
					"type": "uint8"
				}
			],
			"name": "getTowerCount",
			"outputs": [
				{
					"internalType": "uint256",
					"name": "",
					"type": "uint256"
				}
			],
			"stateMutability": "view",
			"type": "function"
		},
		{
			"inputs": [
				{
					"internalType": "uint8",
					"name": "mainX",
					"type": "uint8"
				},
				{
					"internalType": "uint8",
					"name": "mainY",
					"type": "uint8"
				}
			],
			"name": "getTurn",
			"outputs": [
				{
					"internalType": "uint256",
					"name": "",
					"type": "uint256"
				}
			],
			"stateMutability": "view",
			"type": "function"
		},
		{
			"inputs": [
				{
					"internalType": "uint8",
					"name": "",
					"type": "uint8"
				},
				{
					"internalType": "uint8",
					"name": "",
					"type": "uint8"
				}
			],
			"name": "hasClanHallAt",
			"outputs": [
				{
					"internalType": "bool",
					"name": "",
					"type": "bool"
				}
			],
			"stateMutability": "view",
			"type": "function"
		},
		{
			"inputs": [
				{
					"internalType": "uint8",
					"name": "x",
					"type": "uint8"
				},
				{
					"internalType": "uint8",
					"name": "y",
					"type": "uint8"
				}
			],
			"name": "hasClanHallAtCoord",
			"outputs": [
				{
					"internalType": "bool",
					"name": "",
					"type": "bool"
				}
			],
			"stateMutability": "view",
			"type": "function"
		},
		{
			"inputs": [
				{
					"internalType": "uint8",
					"name": "",
					"type": "uint8"
				},
				{
					"internalType": "uint8",
					"name": "",
					"type": "uint8"
				}
			],
			"name": "hasMarketAt",
			"outputs": [
				{
					"internalType": "bool",
					"name": "",
					"type": "bool"
				}
			],
			"stateMutability": "view",
			"type": "function"
		},
		{
			"inputs": [
				{
					"internalType": "uint8",
					"name": "x",
					"type": "uint8"
				},
				{
					"internalType": "uint8",
					"name": "y",
					"type": "uint8"
				}
			],
			"name": "hasMarketAtCoord",
			"outputs": [
				{
					"internalType": "bool",
					"name": "",
					"type": "bool"
				}
			],
			"stateMutability": "view",
			"type": "function"
		},
		{
			"inputs": [],
			"name": "interiorMapSize",
			"outputs": [
				{
					"internalType": "uint8",
					"name": "",
					"type": "uint8"
				}
			],
			"stateMutability": "view",
			"type": "function"
		},
		{
			"inputs": [],
			"name": "isUseTurnsPaused",
			"outputs": [
				{
					"internalType": "bool",
					"name": "",
					"type": "bool"
				}
			],
			"stateMutability": "view",
			"type": "function"
		},
		{
			"inputs": [],
			"name": "lopBalance",
			"outputs": [
				{
					"internalType": "uint256",
					"name": "",
					"type": "uint256"
				}
			],
			"stateMutability": "view",
			"type": "function"
		},
		{
			"inputs": [],
			"name": "lopToken",
			"outputs": [
				{
					"internalType": "contract IHarmLop",
					"name": "",
					"type": "address"
				}
			],
			"stateMutability": "view",
			"type": "function"
		},
		{
			"inputs": [],
			"name": "marketplaceAddress",
			"outputs": [
				{
					"internalType": "address",
					"name": "",
					"type": "address"
				}
			],
			"stateMutability": "view",
			"type": "function"
		},
		{
			"inputs": [],
			"name": "owner",
			"outputs": [
				{
					"internalType": "address",
					"name": "",
					"type": "address"
				}
			],
			"stateMutability": "view",
			"type": "function"
		},
		{
			"inputs": [],
			"name": "pauseUseTurns",
			"outputs": [],
			"stateMutability": "nonpayable",
			"type": "function"
		},
		{
			"inputs": [
				{
					"internalType": "uint8",
					"name": "mainX",
					"type": "uint8"
				},
				{
					"internalType": "uint8",
					"name": "mainY",
					"type": "uint8"
				},
				{
					"internalType": "uint8",
					"name": "interiorX",
					"type": "uint8"
				},
				{
					"internalType": "uint8",
					"name": "interiorY",
					"type": "uint8"
				},
				{
					"internalType": "uint8",
					"name": "buildingType",
					"type": "uint8"
				}
			],
			"name": "placeBuilding",
			"outputs": [],
			"stateMutability": "nonpayable",
			"type": "function"
		},
		{
			"inputs": [
				{
					"internalType": "uint8",
					"name": "",
					"type": "uint8"
				},
				{
					"internalType": "uint8",
					"name": "",
					"type": "uint8"
				}
			],
			"name": "pointsByCoords",
			"outputs": [
				{
					"internalType": "uint256",
					"name": "",
					"type": "uint256"
				}
			],
			"stateMutability": "view",
			"type": "function"
		},
		{
			"inputs": [
				{
					"internalType": "uint8",
					"name": "mainX",
					"type": "uint8"
				},
				{
					"internalType": "uint8",
					"name": "mainY",
					"type": "uint8"
				},
				{
					"internalType": "uint8",
					"name": "armorType",
					"type": "uint8"
				},
				{
					"internalType": "uint256",
					"name": "quantity",
					"type": "uint256"
				}
			],
			"name": "produceArmor",
			"outputs": [],
			"stateMutability": "nonpayable",
			"type": "function"
		},
		{
			"inputs": [
				{
					"internalType": "uint8",
					"name": "mainX",
					"type": "uint8"
				},
				{
					"internalType": "uint8",
					"name": "mainY",
					"type": "uint8"
				},
				{
					"internalType": "uint8",
					"name": "weaponType",
					"type": "uint8"
				},
				{
					"internalType": "uint256",
					"name": "quantity",
					"type": "uint256"
				}
			],
			"name": "produceWeapon",
			"outputs": [],
			"stateMutability": "nonpayable",
			"type": "function"
		},
		{
			"inputs": [
				{
					"internalType": "uint8",
					"name": "x",
					"type": "uint8"
				},
				{
					"internalType": "uint8",
					"name": "y",
					"type": "uint8"
				}
			],
			"name": "recalculatePointsAfterAttack",
			"outputs": [],
			"stateMutability": "nonpayable",
			"type": "function"
		},
		{
			"inputs": [
				{
					"internalType": "uint8",
					"name": "",
					"type": "uint8"
				},
				{
					"internalType": "uint8",
					"name": "",
					"type": "uint8"
				}
			],
			"name": "resourceMessage",
			"outputs": [
				{
					"internalType": "bool",
					"name": "",
					"type": "bool"
				}
			],
			"stateMutability": "view",
			"type": "function"
		},
		{
			"inputs": [],
			"name": "rewardUnit",
			"outputs": [
				{
					"internalType": "uint256",
					"name": "",
					"type": "uint256"
				}
			],
			"stateMutability": "view",
			"type": "function"
		},
		{
			"inputs": [],
			"name": "rewardsStart",
			"outputs": [
				{
					"internalType": "uint256",
					"name": "",
					"type": "uint256"
				}
			],
			"stateMutability": "view",
			"type": "function"
		},
		{
			"inputs": [
				{
					"internalType": "address",
					"name": "_clanAddress",
					"type": "address"
				}
			],
			"name": "setClanAddress",
			"outputs": [],
			"stateMutability": "nonpayable",
			"type": "function"
		},
		{
			"inputs": [
				{
					"internalType": "address",
					"name": "_address",
					"type": "address"
				}
			],
			"name": "setExtraFeeReceiver",
			"outputs": [],
			"stateMutability": "nonpayable",
			"type": "function"
		},
		{
			"inputs": [
				{
					"internalType": "address",
					"name": "_market",
					"type": "address"
				}
			],
			"name": "setMarketAddress",
			"outputs": [],
			"stateMutability": "nonpayable",
			"type": "function"
		},
		{
			"inputs": [
				{
					"internalType": "uint8",
					"name": "x",
					"type": "uint8"
				},
				{
					"internalType": "uint8",
					"name": "y",
					"type": "uint8"
				},
				{
					"internalType": "bool",
					"name": "value",
					"type": "bool"
				}
			],
			"name": "setResourceMessageFlag",
			"outputs": [],
			"stateMutability": "nonpayable",
			"type": "function"
		},
		{
			"inputs": [
				{
					"internalType": "bool",
					"name": "kilit",
					"type": "bool"
				}
			],
			"name": "setSwitch",
			"outputs": [],
			"stateMutability": "nonpayable",
			"type": "function"
		},
		{
			"inputs": [],
			"name": "switcher",
			"outputs": [
				{
					"internalType": "address",
					"name": "",
					"type": "address"
				}
			],
			"stateMutability": "view",
			"type": "function"
		},
		{
			"inputs": [],
			"name": "tileMapPhaser",
			"outputs": [
				{
					"internalType": "contract ITileMapPhaser",
					"name": "",
					"type": "address"
				}
			],
			"stateMutability": "view",
			"type": "function"
		},
		{
			"inputs": [
				{
					"internalType": "uint8",
					"name": "",
					"type": "uint8"
				},
				{
					"internalType": "uint8",
					"name": "",
					"type": "uint8"
				}
			],
			"name": "totalTurnsUsedByTile",
			"outputs": [
				{
					"internalType": "uint256",
					"name": "",
					"type": "uint256"
				}
			],
			"stateMutability": "view",
			"type": "function"
		},
		{
			"inputs": [],
			"name": "turnFeeWei",
			"outputs": [
				{
					"internalType": "uint256",
					"name": "",
					"type": "uint256"
				}
			],
			"stateMutability": "view",
			"type": "function"
		},
		{
			"inputs": [],
			"name": "turnsPerLevel",
			"outputs": [
				{
					"internalType": "uint256",
					"name": "",
					"type": "uint256"
				}
			],
			"stateMutability": "view",
			"type": "function"
		},
		{
			"inputs": [],
			"name": "unpauseUseTurns",
			"outputs": [],
			"stateMutability": "nonpayable",
			"type": "function"
		},
		{
			"inputs": [
				{
					"internalType": "uint8",
					"name": "x",
					"type": "uint8"
				},
				{
					"internalType": "uint8",
					"name": "y",
					"type": "uint8"
				},
				{
					"internalType": "uint8",
					"name": "techType",
					"type": "uint8"
				}
			],
			"name": "upgradeTech",
			"outputs": [],
			"stateMutability": "nonpayable",
			"type": "function"
		},
		{
			"inputs": [
				{
					"internalType": "uint16",
					"name": "turns",
					"type": "uint16"
				},
				{
					"internalType": "uint8",
					"name": "x",
					"type": "uint8"
				},
				{
					"internalType": "uint8",
					"name": "y",
					"type": "uint8"
				}
			],
			"name": "useTurns",
			"outputs": [],
			"stateMutability": "payable",
			"type": "function"
		},
		{
			"inputs": [],
			"name": "withdrawAllLop",
			"outputs": [],
			"stateMutability": "nonpayable",
			"type": "function"
		}
	]
}